0REMESSANOTIFICAÇÃO ELETRONICA        99999999999999Bicbanco S/A                            Avenida Paulista                        1048      12º andar BELA VISTA                    SÃO PAULO                     01310100SPBicbanco S/A                                                                    13062011                                                                                                                                                                                                                                                                                                                                                                                                000001
1019421004658COBR_CAUC_COR  S/A ESTADO DE MINAS                     022196430000163HABITARE CONSTRUTORA E INCORPORADO      AIMORES 2825 BR                         BELO HORIZONTE                          30140073MG280620000101100421286703-1    07062011900BRADESCO S/A        3006201100000000011233484CC                                                                                                                                                                                                                                                                                                                                                                                           133660-1      000002
1019421004658COBR_CAUC_COR  S/A ESTADO DE MINAS                     067405936000173PEUGEOT CITROEN DO BRASIL AUTOMOVE      ESTRADA RENATO MONTEIRO 6901 BR         PORTO REAL                              27570000RJ280630000101100412286925-1    07062011900BRADESCO S/A        3006201100000000010565069CC                                                                                                                                                                                                                                                                                                                                                                                           133660-2      000003
1021420930887COBR_CAUC_BIC  DEDINI S/A INDUSTRIAS DE BASE           054470679000101USINA BATATAIS S A ACUCAR E ALCOOL      END USINA BATATAIS ZONA RURAL BR        BATATAIS                                14300000SP280640000106162122143891-3-3  07062011022RIBEIRAO PRETO      3008201100000000025600000CC                                                                                                                                                                                                                                                                                                                                                                                           133660-3      000004
1031421007893COBR_CAUC_BIC  DIPLOMATA S/AINDL. E COMERCIAL          009418012000105TREND COMERCIO DE PRODUTOS ALIMENT      R ZILDA CICCONE GIRALDI, 141 141        CAMPINAS                                13052475SP2806500001048810690234952-01  06062011021CAMPINAS            1607201100000000012555000CC                                                                                                                                                                                                                                                                                                                                                                                           133660-4      000005
1031421007893COBR_CAUC_BIC  DIPLOMATA S/AINDL. E COMERCIAL          009418012000105TREND COMERCIO DE PRODUTOS ALIMENT      R ZILDA CICCONE GIRALDI, 141 141        CAMPINAS                                13052475SP2806500002048810770234954-01  06062011021CAMPINAS            0907201100000000012555000CC                                                                                                                                                                                                                                                                                                                                                                                           133660-5      000006
1042141000037COBR_CAUC_BIC  COBRACO SERVICOS E MONTAGENS LTDA       003715415000130J W ENG E MANUT INDL LTDA               AV EMILIANO MACIEIRA KM 09              SAO LUIS                                65099110MA280660000102224111199/1       24052011042SAO LUIS            2708201100000000016000000TD                                                                                                                                                                                                                                                                                                                                                                                           133660-6      000007
1028421001518COBR_CAUC_COR  GAIA AGRIBUSINESS AGRICOLA LTDA         000037457080082SILVIO ARANTES DE OLIVEIRA              AV MINAS GERAIS,1380                    GOIATUBA                                75600000GO28067000010271693910912       06062011800UNIBANCO S/A        2011201100000000016000000CC                                                                                                                                                                                                                                                                                                                                                                                           133660-7      000008
1028421001518COBR_CAUC_COR  GAIA AGRIBUSINESS AGRICOLA LTDA         000048494836153JOSE ADONIZETE DA COSTA                 AV SANTA CATARINA ,180                  GOIATUBA                                75600000GO28068000010271694710935       07062011800UNIBANCO S/A        3011201100000000017600000CC                                                                                                                                                                                                                                                                                                                                                                                           133660-8      000009
1028421001518COBR_CAUC_COR  GAIA AGRIBUSINESS AGRICOLA LTDA         000064140130130VINICIUS VIEIRA LOPES                   RUA TAPAJOS ,712                        GOIATUBA                                75600000GO28069000010271692110913       06062011800UNIBANCO S/A        2511201100000000017600000CC                                                                                                                                                                                                                                                                                                                                                                                           133660-9      000010
1007421049060COBR_CAUC_BIC  MERCOSUL COMERCIAL E INDL LTDA          004177571000157EXCEL 3000 MAT E SERV. LTDA             R. MIGUEL FRIAS,77 S-1804/6             NITEROI                                 24220901RJ2807000001006137964983-1/1    06062011014RIO DE JANEIRO      2609201100000000010260300CC                                                                                                                                                                                                                                                                                                                                                                                           133660-10     000011
1007421049060COBR_CAUC_BIC  MERCOSUL COMERCIAL E INDL LTDA          004177571000157EXCEL 3000 MAT E SERV. LTDA             R. MIGUEL FRIAS,77 S-1804/6             NITEROI                                 24220901RJ28070000020061382620105-1     06062011014RIO DE JANEIRO      0110201100000000010147140CC                                                                                                                                                                                                                                                                                                                                                                                           133660-11     000012
1007421049060COBR_CAUC_BIC  MERCOSUL COMERCIAL E INDL LTDA          004177571000157EXCEL 3000 MAT E SERV. LTDA             R. MIGUEL FRIAS,77 S-1804/6             NITEROI                                 24220901RJ2807000003006138698507-1      06062011014RIO DE JANEIRO      2609201100000000021531343CC                                                                                                                                                                                                                                                                                                                                                                                           133660-12     000013
1007421049060COBR_CAUC_BIC  MERCOSUL COMERCIAL E INDL LTDA          006067345000149LV DISTRIB DE MAT LTDA                  R GAL.SILVESTRE ROCHA, 133              NITEROI                                 24220170RJ28071000010061383420476-1     06062011014RIO DE JANEIRO      2308201100000000051186960CC                                                                                                                                                                                                                                                                                                                                                                                           133660-13     000014
1007421049060COBR_CAUC_BIC  MERCOSUL COMERCIAL E INDL LTDA          006067345000149LV DISTRIB DE MAT LTDA                  R GAL.SILVESTRE ROCHA, 133              NITEROI                                 24220170RJ28071000020061384220477-1     06062011014RIO DE JANEIRO      2308201100000000048598770CC                                                                                                                                                                                                                                                                                                                                                                                           133660-14     000015
1007421049060COBR_CAUC_BIC  MERCOSUL COMERCIAL E INDL LTDA          006067345000149LV DISTRIB DE MAT LTDA                  R GAL.SILVESTRE ROCHA, 133              NITEROI                                 24220170RJ28071000030061385120479-1     06062011014RIO DE JANEIRO      2308201100000000040087440CC                                                                                                                                                                                                                                                                                                                                                                                           133660-15     000016
1031421008326DIR_CREDIT     FERTIMOURAO AGRICOLA LTDA               004666932000129BONDIO ALIMENTO S/A                     ROD SC 283 S/ NR - KM 03ZONA RURAL      GUATAMBU                                89817000SC2807600001                                                                                                                                          011464600           010620110000018865            07062011000301compra e venda de graos                                                                                                                                                                                                                         080768153001003133660-16     000017
1014421003968DIR_CREDIT     BERKELEY EQUIPAMENTOS MEDICOS LTDA      000394544021182MINISTERIO DA SAUDE HOSP. DOS SERV.DO ESRUA SACADURA CABRAL, 178 - SAUDE        RIO DE JANEIRO                          20221903RJ2809400001                                                                                                                                          481021915           02052007000000179317/2011     11042011000404Locação com manutenção preventiva e corretiva de equipamentos para osserviços de anestesia, Centro Cirúrgico Geral, CTI Geral e Unidade Coronariana do Hospital dos Servidores do Estado.                                                       000210051000148133660-17     000018
1021421011559DIR_CREDIT     FOXX SOLUCOES AMBIENTAIS LTDA           045301264000113PM DE MOGI GUACU                        RUA HENRIQUE COPPI Nº 200               MOGI GUAçU                              13840061SP2809500001                                                                                                                                          011470962           07012010000001399914513/2009  07062011000407prestação de serviços especializados de limpeza e manutenção urbanas.                                                                                                                                                                           008804459000150133660-18     000019
1008421020123DIR_CREDIT     CAPTAR SERVICOS TECNICOS LTDA           042498659000160SECRETARIA DE ESTADO DE EDUCACAO DO RJ  AV NILO PECANHA, 175 5 ANDAR            RIO DE JANEIRO                          20020100RJ2807200001                                                                                                                                          481023203           26082010000001546867/10       06062011000404contratacao de empresa para a prestacao de servicos de interpretacao de lingua brasileira de sinais.                                                                                                                                            002590700000109133662-1      000020
1014421008420DIR_CREDIT     TOESA SERVICE S/A                       042498733000148PM DO RIO DE JANEIRO                    RUA AFONSO CAVALCANTI, 455/8 ANDAR      CENTRO / RJ                             20211110RJ2807300001                                                                                                                                          481022350           231120070000004397 371/07     06062011000404PRESTACAO DE SERVICOS DE TRANPORTE INTER HOSPITALAR DE PACIENTES, COM VEICULOS TIPO AMBULANCIAS USB, USA E NEONATAL, INCLUINDO MOTORISTAS E EQUIPEMEDICA P/OPER. DOS ATENDIMENTOS (REPASSE DA CONTA DO BMG PELO PROPRIO CLIENTE)                032056848000129133662-2      000021
1014421020390DIR_CREDIT     TOESA SERVICE S/A                       000394452027133MINISTERIO DEFESA EXERCITO DEPTO GERAL  SETOR MILITAR URBANO BLOCO E            BRASILIA                                70630901DF2807400001                                                                                                                                          481022350           17122010000001883424 DGP-2010 06062011000404contrato de prestação de serviços de apoio de saude na forma de locaçãode ambulancias da classe "D" (uti movel)para atendimento a familia cism nas arenas de competição jogos olimpicos militares.                                              032056848000129133662-3      000022
1045481010360DIR_CREDIT     MGM CONSTRUCAO E INCORPORACAO LTDA      013031547000104UNIVERSIDADE FEDERAL DE SERGIPE - UFS   AV: MARECHAL RANDON S/N                 SAO CRISTOVAO                           49160000SE2808200001                                                                                                                                          481011390           1504200900000089511084.004/20006062011000404Construção da Unidade Materno-Infantil do Campus da Saúde, em Aracaju.                                                                                                                                                                          004731837000161133662-4      000023
1041421002171DIR_CREDIT     SP COMERCIAL E DISTRIBUIDORA LTDA       002422952000129SECRETARIA MUNICIPAL DE EDUCAÇÃO        RUA MARIA CARLOS DA SILVA, S/N PQ. PIAUÍTERESINA                                65630170MA2808300001                                                                                                                                          011463363           240220110000017794002.003/201106062011000403AQUISIÇÃO DE GÊNEROS ALIMENTÍCIOS NÃO PERECÍVEIS DESTINADOS A MERENDAESCOLAR MUNICIPAL, NA CONDIÇÃO DE CARONA, CONF. SISTEMA DE REGISTRO DE PREÇOSDO ESTADO DO PIAUÍ-SRP(BENS COMUNS) E O PREGÃO 018/2009-CCEL/SEAD.                            008728961000129133662-5      000024
1041421002171DIR_CREDIT     SP COMERCIAL E DISTRIBUIDORA LTDA       002422952000129SECRETARIA MUNICIPAL DE EDUCAÇÃO        RUA MARIA CARLOS DA SILVA, S/N PQ. PIAUÍTERESINA                                65630170MA2808400001                                                                                                                                          011463363           240220110000017794002.003/201106062011000403AQUISIÇÃO DE GÊNEROS ALIMENTÍCIOS NÃO PERECÍVEIS DESTINADOS A MERENDAESCOLAR MUNICIPAL, NA CONDIÇÃO DE CARONA, CONF. SISTEMA DE REGISTRO DE PREÇOSDO ESTADO DO PIAUÍ-SRP(BENS COMUNS) E O PREGÃO 018/2009-CCEL/SEAD.                            008728961000129133662-6      000025
1016421016900DIR_CREDIT     SIGMA DATASERV INFORMATICA S A          000394478000224MINISTERIO DO DESENV IND E COM EXTERIOR ESPLANADA DOS MINISTERIOS BLOCO J       BRASILIA                                70053900DF2809000001                                                                                                                                          481020010           25092010000001580052/2009     06062011000404prestação de serviços tecnicos especializados de desenvolvimento e manutenção evolutiva de sistemas de informações e de sitios web ao ministerio ,para realização de projetos .                                                                 077166098000186133662-7      000026
1007421035264COBR_CAUC_BIC  ALLIED ADVANCED TECHNOLOGIES LTDA       025760877012975CARLOS SARAIVA IMPORTACAO E COMERC      AV PERIMETRAL NORTE, 2859               GOIANIA                                 74445190GO280960000100615161000047091A  04042011018GOIANIA             1407201100000000020670000CC                                                                                                                                                                                                                                                                                                                                                                                           133662-8      000027
1007421036791COBR_CAUC_COR  PLASCAR IND DE COMP PLAST LTDA          016701716000156FIAT AUTOMOVEIS S/A                     RUA SENADOR MILTON CAMPOS,175 - 4ANDAR  NOVA LIMA                               34000000MG2809700001006155270191482 01  10022011900BRADESCO S/A        2708201100000000016473380CC                                                                                                                                                                                                                                                                                                                                                                                           133662-9      000028
1007421036791COBR_CAUC_COR  PLASCAR IND DE COMP PLAST LTDA          016701716000156FIAT AUTOMOVEIS S/A                     RUA SENADOR MILTON CAMPOS,175 - 4ANDAR  NOVA LIMA                               34000000MG2809700002006155510787377 01  04032011900BRADESCO S/A        0108201100000000010224407CC                                                                                                                                                                                                                                                                                                                                                                                           133662-10     000029
9000028                                                                                                                                                                                                                                                                                                                                                                                                                                                                                                                                                                                                                                                                                                               000030
