0REMESSANOTIFICAÇÃO ELETRONICA        99999999999999Bicbanco S/A                            Avenida Paulista                        1048      12º andar BELA VISTA                    SÃO PAULO                     01310100SPBicbanco S/A                                                                    08072011                                                                                                                                                                                                                                                                                                                                                                                                000001
1006420932150COBR_CAUC_COR  FIOTEX INDUSTRIAL S/A                   054508031000691BURDAY´S TEXTIL E MODAS LTDA            AV. WILSON PINHEIRO800UNID              IBITINGA                                14940000SP2872500001085673410001021001  30062011800UNIBANCO S/A        2809201100000000015917656CC                                                                                                                                                                                                                                                                                                                                                                                           136356-1      000002
1007421022022COBR_CAUC_BIC  SOL EMBALAGENS PLASTICAS LTDA.          009486726000150AMT INDUSTRIA E COMERCIO LTDA           AV RADIALISTA JOAO RAMOS, N§ 02586      MARACANAU                               61930360CE2877300001006097136428A!      06062011003CENTRO              0609201100000000006630000CC                                                                                                                                                                                                                                                                                                                                                                                           136356-2      000003
1007421022022COBR_CAUC_BIC  SOL EMBALAGENS PLASTICAS LTDA.          009486726000150AMT INDUSTRIA E COMERCIO LTDA           AV RADIALISTA JOAO RAMOS, N§ 02586      MARACANAU                               61930360CE2877300002006097306428B!      06062011003CENTRO              0709201100000000006630000CC                                                                                                                                                                                                                                                                                                                                                                                           136356-3      000004
1007421022022COBR_CAUC_BIC  SOL EMBALAGENS PLASTICAS LTDA.          009486726000150AMT INDUSTRIA E COMERCIO LTDA           AV RADIALISTA JOAO RAMOS, N§ 02586      MARACANAU                               61930360CE2877300003006579636593A!      07062011003CENTRO              3008201100000000006435000CC                                                                                                                                                                                                                                                                                                                                                                                           136356-4      000005
1007421022022COBR_CAUC_BIC  SOL EMBALAGENS PLASTICAS LTDA.          009486726000150AMT INDUSTRIA E COMERCIO LTDA           AV RADIALISTA JOAO RAMOS, N§ 02586      MARACANAU                               61930360CE2877300004006581116593B!      07062011003CENTRO              0209201100000000006435000CC                                                                                                                                                                                                                                                                                                                                                                                           136356-5      000006
9000005                                                                                                                                                                                                                                                                                                                                                                                                                                                                                                                                                                                                                                                                                                               000007
