0REMESSANOTIFICAÇÃO ELETRONICA        99999999999999Bicbanco S/A                            Avenida Paulista , 1048 12º andar                           BELA VISTA                    SÃO PAULO                     01310100SPBicbanco S/A                                                                    26072010                                                                                                                                                                                                                                                                                                                                                                                                000001
1008421003482COBR_CAUC_BIC  METALGRAFICA CEARENSE S/AMECESA         061186888009069SPAL IND. BRASILEIRA DE BEBIDAS S/      AV PRES HUMBERTO A. C. BRANCO,2911      JACAREI                                 12321150SP23355000010803356201218201    20072010007PAULISTA            2408201000000000011016661CC                                                                                                                                                                                                                                                                                                                                                                                           106555-1      000002
1021420930887COBR_CAUC_BIC  DEDINI S/A INDUSTRIAS DE BASE           002216876000103ANDRITZ HYDRO INEPAR DO BRASIL SA       ROD MANOEL DE ABREU ZONA RURAL BR       ARARAQUARA                              14806500SP23377000010586167113768-5-5   20072010022RIBEIRAO PRETO      0508201000000000016041270CC                                                                                                                                                                                                                                                                                                                                                                                           106702-1      000003
1021420930887COBR_CAUC_BIC  DEDINI S/A INDUSTRIAS DE BASE           053009825000133USINA ALTA MOGIANA S A - ACUCAR E       FAZ SANTANA ZONA RURAL BR               SAO JOAQUIM DA                          14600000SP23378000010586169812398-2-2   20072010022RIBEIRAO PRETO      1008201000000000013552700CC                                                                                                                                                                                                                                                                                                                                                                                           106702-2      000004
1007421040063COBR_CAUC_BIC  TUBERFIL IND. E COM. DE TUBOS LTDA      059339408000135INCOTEP IND COM TUBOS ESP PREC LTD      RUA MAJESTIC 225                        GUARULHOS                               07221060SP233790000109995594016469001   20072010037GUARULHOS           1908201000000000010471721CC                                                                                                                                                                                                                                                                                                                                                                                           106702-3      000005
1042141002650COBR_CAUC_BIC  MAXXIMO SERV DE MONT E CONST LTDA       004487870000198COBRACO SERV E MONT LTDA                ROD BR 135 KM 17                        SAO LUIS                                65000000MA23380000010150093008/2010     14072010042SAO LUIS            2508201000000000014900000TD                                                                                                                                                                                                                                                                                                                                                                                           106702-4      000006
9000005                                                                                                                                                                                                                                                                                                                                                                                                                                                                                                                                                                                                                                                                                                               000007
