0REMESSANOTIFICAÇÃO ELETRONICA        99999999999999Bicbanco S/A                            Avenida Paulista                        1048      12º andar BELA VISTA                    SÃO PAULO                     01310100SPBicbanco S/A                                                                    18032011                                                                                                                                                                                                                                                                                                                                                                                                000001
1003421010775COBR_CAUC_COR  NUFARM IND QUIM FARMACEUTICA S/A        003718848000149RURAL TECNICA PRODUTOS AGROPECUARI      R. RIO VERDE 505,                       JATAI                                   75800093GO267670000103916675 001461501  15122010600HSBC BANK BRASIL    3005201100000000023490000CC                                                                                                                                                                                                                                                                                                                                                                                           125197-1      000002
1003421010775COBR_CAUC_COR  NUFARM IND QUIM FARMACEUTICA S/A        003718848000149RURAL TECNICA PRODUTOS AGROPECUARI      R. RIO VERDE 505,                       JATAI                                   75800093GO267670000203916683 001472101  20122010600HSBC BANK BRASIL    1905201100000000019000000CC                                                                                                                                                                                                                                                                                                                                                                                           125197-2      000003
1003421010775COBR_CAUC_COR  NUFARM IND QUIM FARMACEUTICA S/A        005430190000281SANTANA PROD AGROPEC LTDA               AV. ARAGUAIA, 3484                      REDENCAO                                68552412PA267680000103916641 001458101  14122010600HSBC BANK BRASIL    1305201100000000019249990CC                                                                                                                                                                                                                                                                                                                                                                                           125197-3      000004
1003421010775COBR_CAUC_BIC  NUFARM IND QUIM FARMACEUTICA S/A        005554364000137SIGMA AGROPECUARIA LTDA.                AVENIDA MIGUEL SUTIL, 10040             CUIABA                                  78040365MT267690000103916616 001440903  30112010024CUIABA              2905201100000000025899986CC                                                                                                                                                                                                                                                                                                                                                                                           125197-4      000005
1003421010775COBR_CAUC_COR  NUFARM IND QUIM FARMACEUTICA S/A        010197621000160PORTAL PROD AGROPECUARIOS LTDA ME       AV PRESIDENTE VARGAS 173 SL A           PARAGOMINAS                             68625130PA267700000103916624 001438001  30112010600HSBC BANK BRASIL    3006201100000000014957500CC                                                                                                                                                                                                                                                                                                                                                                                           125197-5      000006
1019421004658COBR_CAUC_COR  S/A ESTADO DE MINAS                     061198164000160PORTO SEGURO COMPANHIA DE SEGUROS       RIO BRANCO 1489                         SAO PAULO                               01205001SP267710000101077062125377-1    14032011900BRADESCO S/A        3004201100000000010400000CC                                                                                                                                                                                                                                                                                                                                                                                           125197-6      000007
1016421001333COBR_CAUC_COR  CONDUSPAR CONDUTORES ELETRICOS LTDA     002808708013268COMPANHIA DE BEBIDAS DAS AMERICAS       RODOVIA BR 101 NORTE, KM 34             ITAPISSUMA                              53700000PE267720000103042357222411      22022011900BRADESCO S/A        0804201100000000014043000CC                                                                                                                                                                                                                                                                                                                                                                                           125197-7      000008
1016421001333COBR_CAUC_BIC  CONDUSPAR CONDUTORES ELETRICOS LTDA     002932074003298HYPERMARCAS S/A                         AV FERNANDO CERQUEIRA CESAR COIMBRA 1000BARUERI                                 06456090SP267730000103042021223142      09032011007PAULISTA            0604201100000000027184075CC                                                                                                                                                                                                                                                                                                                                                                                           125197-8      000009
1016421001333COBR_CAUC_BIC  CONDUSPAR CONDUTORES ELETRICOS LTDA     071796478000118CORDEIRO FIOS E CABOS ELETRICOS LT      RUA LIJIMA, 1180                        FERRAZ DE VASCO                         08534000SP267740000103042586223376      14032011007PAULISTA            1804201100000000010736769CC                                                                                                                                                                                                                                                                                                                                                                                           125197-9      000010
1031421007850COBR_CAUC_BIC  AGRICOLA JANDELLE S/A                   003083231000790CEMA CENTRAL MINEIRA ATACADISTA LT      ROD BR 040 KM 688 S/N PAVILHAO 05 CEASA CONTAGEM                                32145900MG2677500001048495050000372075  16032011019BELO HORIZONTE      1504201100000000010229769CC                                                                                                                                                                                                                                                                                                                                                                                           125197-10     000011
1007421040063COBR_CAUC_BIC  TUBERFIL IND. E COM. DE TUBOS LTDA      060608866000101ACOS VIC LTDA                           AV. PRESIDENTE WILSON 5445              SAO PAULO                               04220905SP26776000010043966425948 004   31012011007PAULISTA            0104201100000000045339261CC                                                                                                                                                                                                                                                                                                                                                                                           125197-11     000012
1007421049451COBR_CAUC_COR  RIGOR ALIMENTOS LTDA                    001928075009822DMA DISTRIBUIDORA SA                    AV EUDES SCHERRERSOUZA 2001 G 8 CJ E M  SERRA                                   29167080ES267770000100006326103041      15032011900BRADESCO S/A        1204201100000000011640000CC                                                                                                                                                                                                                                                                                                                                                                                           125197-12     000013
1014421008439COBR_CAUC_BIC  TV OMEGA LTDA                           000913443000173Renault do Brasil S/A                   Av. Mofarrej, -1174                     SãoPaulo                                05311000SP267780000104383152518479      15032011007PAULISTA            3005201100000000015128400CC                                                                                                                                                                                                                                                                                                                                                                                           125197-13     000014
9000013                                                                                                                                                                                                                                                                                                                                                                                                                                                                                                                                                                                                                                                                                                               000015
