0REMESSANOTIFICAÇÃO ELETRONICA        99999999999999Bicbanco S/A                            Avenida Paulista                        1048      12º andar BELA VISTA                    SÃO PAULO                     01310100SPBicbanco S/A                                                                    16022011                                                                                                                                                                                                                                                                                                                                                                                                000001
1007421049451COBR_CAUC_COR  RIGOR ALIMENTOS LTDA                    012714378000136XPY DISTRIBUIDORA DE ALIMENTOS LTD      AV. SANTOS DUMONT, 8011 ESP 10 GP 0 CENTLAURO DE FREITA                         42700000BA263150000100002479002342      10022011900BRADESCO S/A        0303201100000000010200000CC                                                                                                                                                                                                                                                                                                                                                                                           122595-1      000002
1024421007416COBR_CAUC_BIC  ATLAS AGROINDUSTRIAL LTDA               002632315000934RIGOR ALIMENTOS LTDA                    ROD DR PAULO LAUROP SP KM 108           DESCALVADO                              13690000SP263160000101861306            10022011024CUIABA              2203201100000000019750000CC                                                                                                                                                                                                                                                                                                                                                                                           122595-2      000003
1024421007416COBR_CAUC_BIC  ATLAS AGROINDUSTRIAL LTDA               002632315000934RIGOR ALIMENTOS LTDA                    ROD DR PAULO LAUROP SP KM 108           DESCALVADO                              13690000SP263160000201861314            10022011024CUIABA              3003201100000000010771467CC                                                                                                                                                                                                                                                                                                                                                                                           122595-3      000004
1024421007416COBR_CAUC_BIC  ATLAS AGROINDUSTRIAL LTDA               003470626000745COOPERATIVA A1                          ROD SC 283 S/N                          MONDAI                                  89893000SC263170000101861373            10022011024CUIABA              0303201100000000011100000CC                                                                                                                                                                                                                                                                                                                                                                                           122595-4      000005
1024421007416COBR_CAUC_BIC  ATLAS AGROINDUSTRIAL LTDA               003470626000745COOPERATIVA A1                          ROD SC 283 S/N                          MONDAI                                  89893000SC263170000201861381            10022011024CUIABA              0303201100000000011100000CC                                                                                                                                                                                                                                                                                                                                                                                           122595-5      000006
1024421007416COBR_CAUC_BIC  ATLAS AGROINDUSTRIAL LTDA               083731927001010COOP REG AURIVERDE LTDA                 AV MARALHIVA, 1311                      MARAVILHA                               89820000SC263180000101861390            10022011024CUIABA              1003201100000000012000000CC                                                                                                                                                                                                                                                                                                                                                                                           122595-6      000007
1023421006136DIR_CREDIT     TRANSPORTADORA MECA LTDA                002476026000136ULTRAFERTIL S/A                         ESTRADA DA CANA KM 11                   UBERABA                                 11065910MG2633100001                                                                                                                                          011029924           010720090000014593GESUP 3678/027072010000403Execução de serviços de transporte rodoviário de cargas a granel, de acordo com as solicitações das contratantes.                                                                                                                               058149881000197122595-7      000008
1021420930887COBR_CAUC_BIC  DEDINI S/A INDUSTRIAS DE BASE           009325874000193COMPANHIA BRASILEIRA DE BEBIDAS PR      AV. ENGº DOMINGOS FERREIRA, BOA VIAGEM  RECIFE                                  51020031PE263320000106118115118301-3-3  26082010010RECIFE              0103201100000000090000000CC                                                                                                                                                                                                                                                                                                                                                                                           122596-1      000009
1032421000854COBR_CAUC_BIC  METALURGICA IANY IND E COM LTDA         076639285000339FERRAGENS NEGRAO COMERCIAL LTDA.-       RUA PROF. ALGACYR M. MADER, 2800        CURITIBA - PR                           81310020PR26333000010898014510797-1/1   10022011016CURITIBA            2703201100000000010297228CC                                                                                                                                                                                                                                                                                                                                                                                           122596-2      000010
9000009                                                                                                                                                                                                                                                                                                                                                                                                                                                                                                                                                                                                                                                                                                               000011
