0REMESSANOTIFICAÇÃO ELETRONICA        99999999999999Bicbanco S/A                            Avenida Paulista , 1048 12º andar                           BELA VISTA                    SÃO PAULO                     01310100SPBicbanco S/A                                                                    25032010                                                                                                                                                                                                                                                                                                                                                                                                000001
1038420933422COBR_CAUC_COR  ROTAVI INDUSTRIAL LTDA                  016694812000114TEKSID DO BRASIL LTDA                   RUA SENADOR GIOVANI AGNELLI, 230/906    BETIM                                   32637508MG211790000108634979005353301   23032010900BRADESCO S/A        2204201000000000011302500CC                                                                                                                                                                                                                                                                                                                                                                                           90882-1       000002
1022421002370COBR_CAUC_COR  FRIGOESTRELA S.A.                       000281228000440N & N COMERCIO DE ALIMENTOS LTDA        ROD. REGIS BITTENCOURTS/NKM 294 SA      ITAPECERICA DA                          06882700SP2118000001021066620030124601  22032010900BRADESCO S/A        2304201000000000015629220CC                                                                                                                                                                                                                                                                                                                                                                                           90882-2       000003
1038421000829COBR_CAUC_BIC  ATHENEE COMERCIO IMP E EXP LTDA         001545826000107GAFISA S/A                              AV DAS NACOES UNIDAS,8501-19 ANDAR      SAO PAULO                               05425070SP211810000100013932016498      19032010007PAULISTA            0504201000000000027000000CC                                                                                                                                                                                                                                                                                                                                                                                           90882-3       000004
1007421034080COBR_CAUC_BIC  SIDMEX INTERNACIONAL LTDA               001005844000198RS BRASIL COMERCIAL LTDA.               RUA CARIUS 224                          GUARULHOS                               07230030SP2118200001097639617154        12032010037GUARULHOS           2704201000000000011100000CC                                                                                                                                                                                                                                                                                                                                                                                           90882-4       000005
1007421034080COBR_CAUC_BIC  SIDMEX INTERNACIONAL LTDA               009507445000137INNOTEX                                 RUA RODOLFO MIRANDA 494                 SAO PAULO                               01121010SP2118300001097639877142        12032010007PAULISTA            1105201000000000011600000CC                                                                                                                                                                                                                                                                                                                                                                                           90882-5       000006
9000005                                                                                                                                                                                                                                                                                                                                                                                                                                                                                                                                                                                                                                                                                                               000007
