0REMESSANOTIFICAÇÃO ELETRONICA        99999999999999Bicbanco S/A                            Avenida Brigadeiro Faria Lima           4.440     2º andar  Itaim Bibi                    São Paulo                     04538132SPBicbanco S/A                                                                    26022015                                                                                                                                                                                                                                                                                                                                                                                                000001
1043421010006COBR_CAUC_COR  ELFA MEDICAMENTOS LTDA                  060961968000106FUNDACAO ANTONIO PRUDENTE               RUA PROFESSOR ANTONIO PRUDENTE          SAO PAULO                               01509010SP506710000100152388000077764   19022015900BRADESCO S/A        2004201500000000010917336CC                                                                                                                                                                                                                                                                                                                                                                                           347750-1      000002
1031421011181COBR_CAUC_BIC  AGROIND IRMAOS DALLA COSTA LTDA         011224864000103REAL FOODS COMERCIO ATAC DE GEN AL      AV AMERICAS, DAS SALA 1109 00844        RIO DE JANEIRO                          22793081RJ50672000010547526921049/1     07022015014RIO DE JANEIRO      0903201500000000017909100CC                                                                                                                                                                                                                                                                                                                                                                                           347750-2      000003
1007421079083COBR_CAUC_BIC  CARBINOX INDUSTRIA E COMERCIO LTDA      002176480000171M+W BRASIL PROJETOS TECNICOS LTDA       R PAES LEME, 524                        SAO PAULO                               05424010SP506740000103643645166571-EB   20022015007PAULISTA            1704201500000000015742867CC                                                                                                                                                                                                                                                                                                                                                                                           348099-1      000004
1048421002195COBR_CAUC_COR  SERVIMED COMERCIAL LTDA                 011059197000312MEDCOMERCE DELIVERY DE MEDS E           AV CASTELO BRANCO 945                   GOIANIA                                 75510360GO50675000010259050597604124    20022015900BRADESCO S/A        2003201500000000020611264CC                                                                                                                                                                                                                                                                                                                                                                                           348099-2      000005
1050421000089COBR_CAUC_COR  ATIVO ALIMENTOS EXP E IMP EIRELI        027497684000135FRISA FRIGORIFICO RIO DOCE SA           R FIORAVANTE ROSSI 4000                 COLATINA                                29704700ES506760000100635714299185/1    20022015600HSBC BANK BRASIL    2003201500000000014297312CC                                                                                                                                                                                                                                                                                                                                                                                           348099-3      000006
1021421017050COBR_CAUC_BIC  STAR DISTR PROD FARMACEUTICOS LTDA      061585865000151RAIA DROGASIL S/A                       AVENIDA CORIFEU DE AZEVEDO MARQUES, 3097SAO PAULO                               05339000SP5067700001000109410000502101  20022015007PAULISTA            2105201500000000011776415CC                                                                                                                                                                                                                                                                                                                                                                                           348099-4      000007
1021421017050COBR_CAUC_BIC  STAR DISTR PROD FARMACEUTICOS LTDA      061585865000151RAIA DROGASIL S/A                       AVENIDA CORIFEU DE AZEVEDO MARQUES, 3097SAO PAULO                               05339000SP5067700002000109590000502201  20022015007PAULISTA            2105201500000000013170355CC                                                                                                                                                                                                                                                                                                                                                                                           348099-5      000008
1022421008149COBR_CAUC_COR  PASSAREDO T. AEREOS LTDA-EM REC.JUD     010760260000119CVC BRASIL OPERADORA E AGENCIA DE       RUA GERTRUDES DE LIMA,53-CJ 52          SANTO ANDRE                             09020000SP506830000100019568120191      20022015900BRADESCO S/A        0303201500000000013362210CC                                                                                                                                                                                                                                                                                                                                                                                           348237-1      000009
1007421078737COBR_CAUC_BIC  AEGER COMERCIAL E IMPORTADORA LTDA      019826519000151SL COSMETICOS LTDA ME                   AV PROFESSOR CARLOS CUNHA 1000          SAO LUIS                                65076820MA506850000103588237AG3154468D  10122014042SAO LUIS            0804201500000000000091488CC                                                                                                                                                                                                                                                                                                                                                                                           348237-2      000010
1007421078737COBR_CAUC_BIC  AEGER COMERCIAL E IMPORTADORA LTDA      019826519000151SL COSMETICOS LTDA ME                   AV PROFESSOR CARLOS CUNHA 1000          SAO LUIS                                65076820MA506850000203631868AG3156440D  23012015042SAO LUIS            2205201500000000000500253CC                                                                                                                                                                                                                                                                                                                                                                                           348237-3      000011
1007421078737COBR_CAUC_BIC  AEGER COMERCIAL E IMPORTADORA LTDA      019826519000151SL COSMETICOS LTDA ME                   AV PROFESSOR CARLOS CUNHA 1000          SAO LUIS                                65076820MA506850000303631876AG3156442D  23012015042SAO LUIS            2205201500000000000535569CC                                                                                                                                                                                                                                                                                                                                                                                           348237-4      000012
1007421078737COBR_CAUC_BIC  AEGER COMERCIAL E IMPORTADORA LTDA      019826519000151SL COSMETICOS LTDA ME                   AV PROFESSOR CARLOS CUNHA 1000          SAO LUIS                                65076820MA506850000403631884AG3156444D  23012015042SAO LUIS            2205201500000000000073275CC                                                                                                                                                                                                                                                                                                                                                                                           348237-5      000013
1007421078737COBR_CAUC_BIC  AEGER COMERCIAL E IMPORTADORA LTDA      019826519000151SL COSMETICOS LTDA ME                   AV PROFESSOR CARLOS CUNHA 1000          SAO LUIS                                65076820MA506850000503631892AG3156446D  23012015042SAO LUIS            2205201500000000000039000CC                                                                                                                                                                                                                                                                                                                                                                                           348237-6      000014
1007421078737COBR_CAUC_BIC  AEGER COMERCIAL E IMPORTADORA LTDA      019826519000151SL COSMETICOS LTDA ME                   AV PROFESSOR CARLOS CUNHA 1000          SAO LUIS                                65076820MA506850000603631906AG3156448D  23012015042SAO LUIS            2205201500000000000023043CC                                                                                                                                                                                                                                                                                                                                                                                           348237-7      000015
1007421078737COBR_CAUC_BIC  AEGER COMERCIAL E IMPORTADORA LTDA      019826519000151SL COSMETICOS LTDA ME                   AV PROFESSOR CARLOS CUNHA 1000          SAO LUIS                                65076820MA506850000703631914AG3156450D  23012015042SAO LUIS            2205201500000000000036993CC                                                                                                                                                                                                                                                                                                                                                                                           348237-8      000016
1007421078737COBR_CAUC_BIC  AEGER COMERCIAL E IMPORTADORA LTDA      019826519000151SL COSMETICOS LTDA ME                   AV PROFESSOR CARLOS CUNHA 1000          SAO LUIS                                65076820MA506850000803631922AG3156452D  23012015042SAO LUIS            2205201500000000000232434CC                                                                                                                                                                                                                                                                                                                                                                                           348237-9      000017
1007421078737COBR_CAUC_COR  AEGER COMERCIAL E IMPORTADORA LTDA      000712801000180CBL COM DE COSMETICOS LTDA ME           R: DR EDMUNDO PEREIRA LEITE, 121        CRUZ DAS ALMAS                          44380000BA506860000103615072AG3156990A  30012015900BRADESCO S/A        0203201500000000000416544CC                                                                                                                                                                                                                                                                                                                                                                                           348237-10     000018
1007421078737COBR_CAUC_COR  AEGER COMERCIAL E IMPORTADORA LTDA      000712801000180CBL COM DE COSMETICOS LTDA ME           R: DR EDMUNDO PEREIRA LEITE, 121        CRUZ DAS ALMAS                          44380000BA506860000203632066AG3156990D  30012015900BRADESCO S/A        2905201500000000000416544CC                                                                                                                                                                                                                                                                                                                                                                                           348237-11     000019
1007421078737COBR_CAUC_COR  AEGER COMERCIAL E IMPORTADORA LTDA      000712801000180CBL COM DE COSMETICOS LTDA ME           R: DR EDMUNDO PEREIRA LEITE, 121        CRUZ DAS ALMAS                          44380000BA506860000303632058AG3156091D  20012015900BRADESCO S/A        1905201500000000000741252CC                                                                                                                                                                                                                                                                                                                                                                                           348237-12     000020
1007421078737COBR_CAUC_BIC  AEGER COMERCIAL E IMPORTADORA LTDA      015266701000144LUZIA DALVA MENDES VILELA - EPP         AV NACOES UNIDAS, 22540                 SAO PAULO                               04795000SP506870000103418463AG3147981D  17102014007PAULISTA            0203201500000000000024654CC                                                                                                                                                                                                                                                                                                                                                                                           348237-13     000021
1007421078737COBR_CAUC_BIC  AEGER COMERCIAL E IMPORTADORA LTDA      015266701000144LUZIA DALVA MENDES VILELA - EPP         AV NACOES UNIDAS, 22540                 SAO PAULO                               04795000SP506870000203418501AG3147985D  17102014007PAULISTA            0203201500000000000043401CC                                                                                                                                                                                                                                                                                                                                                                                           348237-14     000022
1007421078737COBR_CAUC_BIC  AEGER COMERCIAL E IMPORTADORA LTDA      015266701000144LUZIA DALVA MENDES VILELA - EPP         AV NACOES UNIDAS, 22540                 SAO PAULO                               04795000SP506870000303586943AG3150707D  11112014007PAULISTA            2603201500000000000070734CC                                                                                                                                                                                                                                                                                                                                                                                           348237-15     000023
1007421078737COBR_CAUC_BIC  AEGER COMERCIAL E IMPORTADORA LTDA      015266701000144LUZIA DALVA MENDES VILELA - EPP         AV NACOES UNIDAS, 22540                 SAO PAULO                               04795000SP506870000403586960AG3150896D  13112014007PAULISTA            3003201500000000000063438CC                                                                                                                                                                                                                                                                                                                                                                                           348237-16     000024
1007421078737COBR_CAUC_BIC  AEGER COMERCIAL E IMPORTADORA LTDA      015266701000144LUZIA DALVA MENDES VILELA - EPP         AV NACOES UNIDAS, 22540                 SAO PAULO                               04795000SP506870000503587133AG3153013D  02122014007PAULISTA            1604201500000000000110931CC                                                                                                                                                                                                                                                                                                                                                                                           348237-17     000025
1007421078737COBR_CAUC_BIC  AEGER COMERCIAL E IMPORTADORA LTDA      015266701000144LUZIA DALVA MENDES VILELA - EPP         AV NACOES UNIDAS, 22540                 SAO PAULO                               04795000SP506870000603587443AG3151907D  20112014007PAULISTA            0604201500000000000122898CC                                                                                                                                                                                                                                                                                                                                                                                           348237-18     000026
1007421078737COBR_CAUC_BIC  AEGER COMERCIAL E IMPORTADORA LTDA      015266701000144LUZIA DALVA MENDES VILELA - EPP         AV NACOES UNIDAS, 22540                 SAO PAULO                               04795000SP506870000703587451AG3151909D  20112014007PAULISTA            0604201500000000000037465CC                                                                                                                                                                                                                                                                                                                                                                                           348237-19     000027
1007421078737COBR_CAUC_BIC  AEGER COMERCIAL E IMPORTADORA LTDA      015266701000144LUZIA DALVA MENDES VILELA - EPP         AV NACOES UNIDAS, 22540                 SAO PAULO                               04795000SP506870000803587541AG3151986D  21112014007PAULISTA            0604201500000000000181082CC                                                                                                                                                                                                                                                                                                                                                                                           348237-20     000028
1007421078737COBR_CAUC_BIC  AEGER COMERCIAL E IMPORTADORA LTDA      015266701000144LUZIA DALVA MENDES VILELA - EPP         AV NACOES UNIDAS, 22540                 SAO PAULO                               04795000SP506870000903587559AG3151988D  21112014007PAULISTA            0604201500000000000037465CC                                                                                                                                                                                                                                                                                                                                                                                           348237-21     000029
1007421078737COBR_CAUC_BIC  AEGER COMERCIAL E IMPORTADORA LTDA      015266701000144LUZIA DALVA MENDES VILELA - EPP         AV NACOES UNIDAS, 22540                 SAO PAULO                               04795000SP506870001003587656AG3152673C  27112014007PAULISTA            1203201500000000000076535CC                                                                                                                                                                                                                                                                                                                                                                                           348237-22     000030
1007421078737COBR_CAUC_BIC  AEGER COMERCIAL E IMPORTADORA LTDA      015266701000144LUZIA DALVA MENDES VILELA - EPP         AV NACOES UNIDAS, 22540                 SAO PAULO                               04795000SP506870001103587664AG3152673D  27112014007PAULISTA            1304201500000000000076533CC                                                                                                                                                                                                                                                                                                                                                                                           348237-23     000031
1007421078737COBR_CAUC_BIC  AEGER COMERCIAL E IMPORTADORA LTDA      015266701000144LUZIA DALVA MENDES VILELA - EPP         AV NACOES UNIDAS, 22540                 SAO PAULO                               04795000SP506870001203587982AG3153962C  06122014007PAULISTA            2303201500000000000104886CC                                                                                                                                                                                                                                                                                                                                                                                           348237-24     000032
1007421078737COBR_CAUC_BIC  AEGER COMERCIAL E IMPORTADORA LTDA      015266701000144LUZIA DALVA MENDES VILELA - EPP         AV NACOES UNIDAS, 22540                 SAO PAULO                               04795000SP506870001303587991AG3153963C  06122014007PAULISTA            2303201500000000000151710CC                                                                                                                                                                                                                                                                                                                                                                                           348237-25     000033
1007421078737COBR_CAUC_BIC  AEGER COMERCIAL E IMPORTADORA LTDA      015266701000144LUZIA DALVA MENDES VILELA - EPP         AV NACOES UNIDAS, 22540                 SAO PAULO                               04795000SP506870001403588016AG3153967C  06122014007PAULISTA            2303201500000000000170481CC                                                                                                                                                                                                                                                                                                                                                                                           348237-26     000034
1007421078737COBR_CAUC_BIC  AEGER COMERCIAL E IMPORTADORA LTDA      015266701000144LUZIA DALVA MENDES VILELA - EPP         AV NACOES UNIDAS, 22540                 SAO PAULO                               04795000SP506870001503588024AG3153968C  06122014007PAULISTA            2303201500000000000241146CC                                                                                                                                                                                                                                                                                                                                                                                           348237-27     000035
1007421078737COBR_CAUC_BIC  AEGER COMERCIAL E IMPORTADORA LTDA      015266701000144LUZIA DALVA MENDES VILELA - EPP         AV NACOES UNIDAS, 22540                 SAO PAULO                               04795000SP506870001603588032AG3153971C  06122014007PAULISTA            2303201500000000000073386CC                                                                                                                                                                                                                                                                                                                                                                                           348237-28     000036
1007421078737COBR_CAUC_BIC  AEGER COMERCIAL E IMPORTADORA LTDA      015266701000144LUZIA DALVA MENDES VILELA - EPP         AV NACOES UNIDAS, 22540                 SAO PAULO                               04795000SP506870001703588041AG3153973C  06122014007PAULISTA            2303201500000000000049791CC                                                                                                                                                                                                                                                                                                                                                                                           348237-29     000037
1007421078737COBR_CAUC_BIC  AEGER COMERCIAL E IMPORTADORA LTDA      015266701000144LUZIA DALVA MENDES VILELA - EPP         AV NACOES UNIDAS, 22540                 SAO PAULO                               04795000SP506870001803588008AG3153965C  06122014007PAULISTA            2303201500000000000061919CC                                                                                                                                                                                                                                                                                                                                                                                           348237-30     000038
1007421078737COBR_CAUC_BIC  AEGER COMERCIAL E IMPORTADORA LTDA      016502048000219VFX COMERCIO DE COSMETICOS E PERFU      AV TANCREDO NEVES, 148LJ 18 PISO 2      SALVADOR                                41820020BA506880000103587214AG3153657D  04122014013SALVADOR            0204201500000000000700701CC                                                                                                                                                                                                                                                                                                                                                                                           348237-31     000039
1007421078737COBR_CAUC_BIC  AEGER COMERCIAL E IMPORTADORA LTDA      016502048000219VFX COMERCIO DE COSMETICOS E PERFU      AV TANCREDO NEVES, 148LJ 18 PISO 2      SALVADOR                                41820020BA506880000203587745AG3154657D  10122014013SALVADOR            0804201500000000000272142CC                                                                                                                                                                                                                                                                                                                                                                                           348237-32     000040
1007421078737COBR_CAUC_BIC  AEGER COMERCIAL E IMPORTADORA LTDA      016502048000219VFX COMERCIO DE COSMETICOS E PERFU      AV TANCREDO NEVES, 148LJ 18 PISO 2      SALVADOR                                41820020BA506880000303631965AG3157499D  09022015013SALVADOR            0106201500000000000544155CC                                                                                                                                                                                                                                                                                                                                                                                           348237-33     000041
1007421078737COBR_CAUC_BIC  AEGER COMERCIAL E IMPORTADORA LTDA      016502048000219VFX COMERCIO DE COSMETICOS E PERFU      AV TANCREDO NEVES, 148LJ 18 PISO 2      SALVADOR                                41820020BA506880000403631973AG3157502C  09022015013SALVADOR            1105201500000000000229742CC                                                                                                                                                                                                                                                                                                                                                                                           348237-34     000042
1007421078737COBR_CAUC_BIC  AEGER COMERCIAL E IMPORTADORA LTDA      020813617000303AC MLT COMERCIO VAREJISTA DE PERFU      AV OTTO BAUMGART S/N LJ907 SHOPCENTER NOSAO PAULO                               02049000SP506890000103587702AG3152936D  01122014007PAULISTA            1504201500000000000170481CC                                                                                                                                                                                                                                                                                                                                                                                           348237-35     000043
1007421078737COBR_CAUC_BIC  AEGER COMERCIAL E IMPORTADORA LTDA      020813617000303AC MLT COMERCIO VAREJISTA DE PERFU      AV OTTO BAUMGART S/N LJ907 SHOPCENTER NOSAO PAULO                               02049000SP506890000203417891AG3147991D  17102014007PAULISTA            0203201500000000000114765CC                                                                                                                                                                                                                                                                                                                                                                                           348237-36     000044
1007421078737COBR_CAUC_BIC  AEGER COMERCIAL E IMPORTADORA LTDA      020813617000303AC MLT COMERCIO VAREJISTA DE PERFU      AV OTTO BAUMGART S/N LJ907 SHOPCENTER NOSAO PAULO                               02049000SP506890000303418544AG3147989D  17102014007PAULISTA            0203201500000000000039345CC                                                                                                                                                                                                                                                                                                                                                                                           348237-37     000045
1007421078737COBR_CAUC_BIC  AEGER COMERCIAL E IMPORTADORA LTDA      020813617000303AC MLT COMERCIO VAREJISTA DE PERFU      AV OTTO BAUMGART S/N LJ907 SHOPCENTER NOSAO PAULO                               02049000SP506890000403586978AG3152940D  01122014007PAULISTA            1504201500000000000073386CC                                                                                                                                                                                                                                                                                                                                                                                           348237-38     000046
1007421078737COBR_CAUC_BIC  AEGER COMERCIAL E IMPORTADORA LTDA      020813617000303AC MLT COMERCIO VAREJISTA DE PERFU      AV OTTO BAUMGART S/N LJ907 SHOPCENTER NOSAO PAULO                               02049000SP506890000503586986AG3152942D  01122014007PAULISTA            1504201500000000000086481CC                                                                                                                                                                                                                                                                                                                                                                                           348237-39     000047
1007421078737COBR_CAUC_BIC  AEGER COMERCIAL E IMPORTADORA LTDA      020813617000303AC MLT COMERCIO VAREJISTA DE PERFU      AV OTTO BAUMGART S/N LJ907 SHOPCENTER NOSAO PAULO                               02049000SP506890000603586994AG3152965D  01122014007PAULISTA            1504201500000000000050448CC                                                                                                                                                                                                                                                                                                                                                                                           348237-40     000048
1007421078737COBR_CAUC_BIC  AEGER COMERCIAL E IMPORTADORA LTDA      020813617000303AC MLT COMERCIO VAREJISTA DE PERFU      AV OTTO BAUMGART S/N LJ907 SHOPCENTER NOSAO PAULO                               02049000SP506890000703587001AG3152966D  01122014007PAULISTA            1504201500000000000064356CC                                                                                                                                                                                                                                                                                                                                                                                           348237-41     000049
1007421078737COBR_CAUC_BIC  AEGER COMERCIAL E IMPORTADORA LTDA      020813617000303AC MLT COMERCIO VAREJISTA DE PERFU      AV OTTO BAUMGART S/N LJ907 SHOPCENTER NOSAO PAULO                               02049000SP506890000803587010AG3152967C  01122014007PAULISTA            1603201500000000000057347CC                                                                                                                                                                                                                                                                                                                                                                                           348237-42     000050
1007421078737COBR_CAUC_BIC  AEGER COMERCIAL E IMPORTADORA LTDA      020813617000303AC MLT COMERCIO VAREJISTA DE PERFU      AV OTTO BAUMGART S/N LJ907 SHOPCENTER NOSAO PAULO                               02049000SP506890000903587028AG3152967D  01122014007PAULISTA            1504201500000000000057348CC                                                                                                                                                                                                                                                                                                                                                                                           348237-43     000051
1007421078737COBR_CAUC_BIC  AEGER COMERCIAL E IMPORTADORA LTDA      020813617000303AC MLT COMERCIO VAREJISTA DE PERFU      AV OTTO BAUMGART S/N LJ907 SHOPCENTER NOSAO PAULO                               02049000SP506890001003587036AG3152969C  01122014007PAULISTA            1603201500000000000044078CC                                                                                                                                                                                                                                                                                                                                                                                           348237-44     000052
1007421078737COBR_CAUC_BIC  AEGER COMERCIAL E IMPORTADORA LTDA      020813617000303AC MLT COMERCIO VAREJISTA DE PERFU      AV OTTO BAUMGART S/N LJ907 SHOPCENTER NOSAO PAULO                               02049000SP506890001103587044AG3152969D  01122014007PAULISTA            1504201500000000000044079CC                                                                                                                                                                                                                                                                                                                                                                                           348237-45     000053
1007421078737COBR_CAUC_BIC  AEGER COMERCIAL E IMPORTADORA LTDA      020813617000303AC MLT COMERCIO VAREJISTA DE PERFU      AV OTTO BAUMGART S/N LJ907 SHOPCENTER NOSAO PAULO                               02049000SP506890001203587052AG3153007C  02122014007PAULISTA            1703201500000000000029572CC                                                                                                                                                                                                                                                                                                                                                                                           348237-46     000054
1007421078737COBR_CAUC_BIC  AEGER COMERCIAL E IMPORTADORA LTDA      020813617000303AC MLT COMERCIO VAREJISTA DE PERFU      AV OTTO BAUMGART S/N LJ907 SHOPCENTER NOSAO PAULO                               02049000SP506890001303587061AG3153007D  02122014007PAULISTA            1604201500000000000029571CC                                                                                                                                                                                                                                                                                                                                                                                           348237-47     000055
1007421078737COBR_CAUC_BIC  AEGER COMERCIAL E IMPORTADORA LTDA      020813617000303AC MLT COMERCIO VAREJISTA DE PERFU      AV OTTO BAUMGART S/N LJ907 SHOPCENTER NOSAO PAULO                               02049000SP506890001403587079AG3153008C  02122014007PAULISTA            1703201500000000000045909CC                                                                                                                                                                                                                                                                                                                                                                                           348237-48     000056
1007421078737COBR_CAUC_BIC  AEGER COMERCIAL E IMPORTADORA LTDA      020813617000303AC MLT COMERCIO VAREJISTA DE PERFU      AV OTTO BAUMGART S/N LJ907 SHOPCENTER NOSAO PAULO                               02049000SP506890001503587087AG3153008D  02122014007PAULISTA            1604201500000000000045909CC                                                                                                                                                                                                                                                                                                                                                                                           348237-49     000057
1007421078737COBR_CAUC_BIC  AEGER COMERCIAL E IMPORTADORA LTDA      020813617000303AC MLT COMERCIO VAREJISTA DE PERFU      AV OTTO BAUMGART S/N LJ907 SHOPCENTER NOSAO PAULO                               02049000SP506890001603587095AG3153009C  02122014007PAULISTA            1703201500000000000033473CC                                                                                                                                                                                                                                                                                                                                                                                           348237-50     000058
1007421078737COBR_CAUC_BIC  AEGER COMERCIAL E IMPORTADORA LTDA      020813617000303AC MLT COMERCIO VAREJISTA DE PERFU      AV OTTO BAUMGART S/N LJ907 SHOPCENTER NOSAO PAULO                               02049000SP506890001703587109AG3153009D  02122014007PAULISTA            1604201500000000000033471CC                                                                                                                                                                                                                                                                                                                                                                                           348237-51     000059
1007421078737COBR_CAUC_BIC  AEGER COMERCIAL E IMPORTADORA LTDA      020813617000303AC MLT COMERCIO VAREJISTA DE PERFU      AV OTTO BAUMGART S/N LJ907 SHOPCENTER NOSAO PAULO                               02049000SP506890001803587117AG3153011C  02122014007PAULISTA            1703201500000000000030192CC                                                                                                                                                                                                                                                                                                                                                                                           348237-52     000060
1007421078737COBR_CAUC_BIC  AEGER COMERCIAL E IMPORTADORA LTDA      020813617000303AC MLT COMERCIO VAREJISTA DE PERFU      AV OTTO BAUMGART S/N LJ907 SHOPCENTER NOSAO PAULO                               02049000SP506890001903587125AG3153011D  02122014007PAULISTA            1604201500000000000030192CC                                                                                                                                                                                                                                                                                                                                                                                           348237-53     000061
1007421078737COBR_CAUC_BIC  AEGER COMERCIAL E IMPORTADORA LTDA      020813617000303AC MLT COMERCIO VAREJISTA DE PERFU      AV OTTO BAUMGART S/N LJ907 SHOPCENTER NOSAO PAULO                               02049000SP506890002003587401AG3150898D  13112014007PAULISTA            3003201500000000000098898CC                                                                                                                                                                                                                                                                                                                                                                                           348237-54     000062
1007421078737COBR_CAUC_BIC  AEGER COMERCIAL E IMPORTADORA LTDA      020813617000303AC MLT COMERCIO VAREJISTA DE PERFU      AV OTTO BAUMGART S/N LJ907 SHOPCENTER NOSAO PAULO                               02049000SP506890002103587427AG3150902D  13112014007PAULISTA            3003201500000000000024132CC                                                                                                                                                                                                                                                                                                                                                                                           348237-55     000063
1007421078737COBR_CAUC_BIC  AEGER COMERCIAL E IMPORTADORA LTDA      020813617000303AC MLT COMERCIO VAREJISTA DE PERFU      AV OTTO BAUMGART S/N LJ907 SHOPCENTER NOSAO PAULO                               02049000SP506890002203587435AG3150904D  13112014007PAULISTA            3003201500000000000083127CC                                                                                                                                                                                                                                                                                                                                                                                           348237-56     000064
1007421078737COBR_CAUC_BIC  AEGER COMERCIAL E IMPORTADORA LTDA      020813617000303AC MLT COMERCIO VAREJISTA DE PERFU      AV OTTO BAUMGART S/N LJ907 SHOPCENTER NOSAO PAULO                               02049000SP506890002303587460AG3151917D  20112014007PAULISTA            0604201500000000000061449CC                                                                                                                                                                                                                                                                                                                                                                                           348237-57     000065
1007421078737COBR_CAUC_BIC  AEGER COMERCIAL E IMPORTADORA LTDA      020813617000303AC MLT COMERCIO VAREJISTA DE PERFU      AV OTTO BAUMGART S/N LJ907 SHOPCENTER NOSAO PAULO                               02049000SP506890002403587532AG3151950D  21112014007PAULISTA            0604201500000000000067980CC                                                                                                                                                                                                                                                                                                                                                                                           348237-58     000066
1007421078737COBR_CAUC_BIC  AEGER COMERCIAL E IMPORTADORA LTDA      020813617000303AC MLT COMERCIO VAREJISTA DE PERFU      AV OTTO BAUMGART S/N LJ907 SHOPCENTER NOSAO PAULO                               02049000SP506890002503587567AG3152045D  21112014007PAULISTA            0604201500000000000181082CC                                                                                                                                                                                                                                                                                                                                                                                           348237-59     000067
1007421078737COBR_CAUC_BIC  AEGER COMERCIAL E IMPORTADORA LTDA      020813617000303AC MLT COMERCIO VAREJISTA DE PERFU      AV OTTO BAUMGART S/N LJ907 SHOPCENTER NOSAO PAULO                               02049000SP506890002603587575AG3152047D  21112014007PAULISTA            0604201500000000000037465CC                                                                                                                                                                                                                                                                                                                                                                                           348237-60     000068
1007421078737COBR_CAUC_BIC  AEGER COMERCIAL E IMPORTADORA LTDA      020813617000303AC MLT COMERCIO VAREJISTA DE PERFU      AV OTTO BAUMGART S/N LJ907 SHOPCENTER NOSAO PAULO                               02049000SP506890002703587699AG3152935D  01122014007PAULISTA            1504201500000000000110931CC                                                                                                                                                                                                                                                                                                                                                                                           348237-61     000069
1007421078737COBR_CAUC_BIC  AEGER COMERCIAL E IMPORTADORA LTDA      020813617000303AC MLT COMERCIO VAREJISTA DE PERFU      AV OTTO BAUMGART S/N LJ907 SHOPCENTER NOSAO PAULO                               02049000SP506890002803587711AG3152937D  01122014007PAULISTA            1504201500000000000241146CC                                                                                                                                                                                                                                                                                                                                                                                           348237-62     000070
1007421078737COBR_CAUC_BIC  AEGER COMERCIAL E IMPORTADORA LTDA      015224933000130TIAGO MENDES VILELA - EPP               RUA DOUTOR JOAO RIBEIRO, 304 LJ 1213    SAO PAULO                               03634900SP506900000103418447AG3147979D  17102014007PAULISTA            0203201500000000000089376CC                                                                                                                                                                                                                                                                                                                                                                                           348237-63     000071
1007421078737COBR_CAUC_BIC  AEGER COMERCIAL E IMPORTADORA LTDA      015224933000130TIAGO MENDES VILELA - EPP               RUA DOUTOR JOAO RIBEIRO, 304 LJ 1213    SAO PAULO                               03634900SP506900000203418480AG3147983D  17102014007PAULISTA            0203201500000000000102438CC                                                                                                                                                                                                                                                                                                                                                                                           348237-64     000072
1007421078737COBR_CAUC_BIC  AEGER COMERCIAL E IMPORTADORA LTDA      015224933000130TIAGO MENDES VILELA - EPP               RUA DOUTOR JOAO RIBEIRO, 304 LJ 1213    SAO PAULO                               03634900SP506900000303418528AG3147987D  17102014007PAULISTA            0203201500000000000031281CC                                                                                                                                                                                                                                                                                                                                                                                           348237-65     000073
1007421078737COBR_CAUC_BIC  AEGER COMERCIAL E IMPORTADORA LTDA      015224933000130TIAGO MENDES VILELA - EPP               RUA DOUTOR JOAO RIBEIRO, 304 LJ 1213    SAO PAULO                               03634900SP506900000403586951AG3150894D  13112014007PAULISTA            3003201500000000000070647CC                                                                                                                                                                                                                                                                                                                                                                                           348237-66     000074
1007421078737COBR_CAUC_BIC  AEGER COMERCIAL E IMPORTADORA LTDA      015224933000130TIAGO MENDES VILELA - EPP               RUA DOUTOR JOAO RIBEIRO, 304 LJ 1213    SAO PAULO                               03634900SP506900000503587311AG3153738C  04122014007PAULISTA            1903201500000000000120022CC                                                                                                                                                                                                                                                                                                                                                                                           348237-67     000075
1007421078737COBR_CAUC_BIC  AEGER COMERCIAL E IMPORTADORA LTDA      015224933000130TIAGO MENDES VILELA - EPP               RUA DOUTOR JOAO RIBEIRO, 304 LJ 1213    SAO PAULO                               03634900SP506900000603587320AG3153739C  04122014007PAULISTA            1903201500000000000158665CC                                                                                                                                                                                                                                                                                                                                                                                           348237-68     000076
1007421078737COBR_CAUC_BIC  AEGER COMERCIAL E IMPORTADORA LTDA      015224933000130TIAGO MENDES VILELA - EPP               RUA DOUTOR JOAO RIBEIRO, 304 LJ 1213    SAO PAULO                               03634900SP506900000703587338AG3153743C  04122014007PAULISTA            1903201500000000000103904CC                                                                                                                                                                                                                                                                                                                                                                                           348237-69     000077
1007421078737COBR_CAUC_BIC  AEGER COMERCIAL E IMPORTADORA LTDA      015224933000130TIAGO MENDES VILELA - EPP               RUA DOUTOR JOAO RIBEIRO, 304 LJ 1213    SAO PAULO                               03634900SP506900000803587354AG3153879C  05122014007PAULISTA            2003201500000000000132719CC                                                                                                                                                                                                                                                                                                                                                                                           348237-70     000078
1007421078737COBR_CAUC_BIC  AEGER COMERCIAL E IMPORTADORA LTDA      015224933000130TIAGO MENDES VILELA - EPP               RUA DOUTOR JOAO RIBEIRO, 304 LJ 1213    SAO PAULO                               03634900SP506900000903587362AG3153880C  05122014007PAULISTA            2003201500000000000191771CC                                                                                                                                                                                                                                                                                                                                                                                           348237-71     000079
1007421078737COBR_CAUC_BIC  AEGER COMERCIAL E IMPORTADORA LTDA      015224933000130TIAGO MENDES VILELA - EPP               RUA DOUTOR JOAO RIBEIRO, 304 LJ 1213    SAO PAULO                               03634900SP506900001003587371AG3153882C  05122014007PAULISTA            2003201500000000000078731CC                                                                                                                                                                                                                                                                                                                                                                                           348237-72     000080
1007421078737COBR_CAUC_BIC  AEGER COMERCIAL E IMPORTADORA LTDA      015224933000130TIAGO MENDES VILELA - EPP               RUA DOUTOR JOAO RIBEIRO, 304 LJ 1213    SAO PAULO                               03634900SP506900001103587389AG3153946C  06122014007PAULISTA            2303201500000000000132719CC                                                                                                                                                                                                                                                                                                                                                                                           348237-73     000081
1007421078737COBR_CAUC_BIC  AEGER COMERCIAL E IMPORTADORA LTDA      015224933000130TIAGO MENDES VILELA - EPP               RUA DOUTOR JOAO RIBEIRO, 304 LJ 1213    SAO PAULO                               03634900SP506900001203587397AG3153947C  06122014007PAULISTA            2303201500000000000195671CC                                                                                                                                                                                                                                                                                                                                                                                           348237-74     000082
1007421078737COBR_CAUC_BIC  AEGER COMERCIAL E IMPORTADORA LTDA      015224933000130TIAGO MENDES VILELA - EPP               RUA DOUTOR JOAO RIBEIRO, 304 LJ 1213    SAO PAULO                               03634900SP506900001303587478AG3151929D  20112014007PAULISTA            0604201500000000000122898CC                                                                                                                                                                                                                                                                                                                                                                                           348237-75     000083
1007421078737COBR_CAUC_BIC  AEGER COMERCIAL E IMPORTADORA LTDA      015224933000130TIAGO MENDES VILELA - EPP               RUA DOUTOR JOAO RIBEIRO, 304 LJ 1213    SAO PAULO                               03634900SP506900001403587486AG3151931D  20112014007PAULISTA            0604201500000000000037465CC                                                                                                                                                                                                                                                                                                                                                                                           348237-76     000084
1007421078737COBR_CAUC_BIC  AEGER COMERCIAL E IMPORTADORA LTDA      015224933000130TIAGO MENDES VILELA - EPP               RUA DOUTOR JOAO RIBEIRO, 304 LJ 1213    SAO PAULO                               03634900SP506900001503587494AG3151938D  21112014007PAULISTA            0604201500000000000152913CC                                                                                                                                                                                                                                                                                                                                                                                           348237-77     000085
1007421078737COBR_CAUC_BIC  AEGER COMERCIAL E IMPORTADORA LTDA      015224933000130TIAGO MENDES VILELA - EPP               RUA DOUTOR JOAO RIBEIRO, 304 LJ 1213    SAO PAULO                               03634900SP506900001603587508AG3151940D  21112014007PAULISTA            0604201500000000000037465CC                                                                                                                                                                                                                                                                                                                                                                                           348237-78     000086
1007421078737COBR_CAUC_BIC  AEGER COMERCIAL E IMPORTADORA LTDA      015224933000130TIAGO MENDES VILELA - EPP               RUA DOUTOR JOAO RIBEIRO, 304 LJ 1213    SAO PAULO                               03634900SP506900001703587516AG3151944D  21112014007PAULISTA            0604201500000000000153621CC                                                                                                                                                                                                                                                                                                                                                                                           348237-79     000087
1007421078737COBR_CAUC_BIC  AEGER COMERCIAL E IMPORTADORA LTDA      015224933000130TIAGO MENDES VILELA - EPP               RUA DOUTOR JOAO RIBEIRO, 304 LJ 1213    SAO PAULO                               03634900SP506900001803587524AG3151946D  21112014007PAULISTA            0604201500000000000037465CC                                                                                                                                                                                                                                                                                                                                                                                           348237-80     000088
1007421078737COBR_CAUC_BIC  AEGER COMERCIAL E IMPORTADORA LTDA      015224933000130TIAGO MENDES VILELA - EPP               RUA DOUTOR JOAO RIBEIRO, 304 LJ 1213    SAO PAULO                               03634900SP506900001903587966AG3153949C  06122014007PAULISTA            2303201500000000000078731CC                                                                                                                                                                                                                                                                                                                                                                                           348237-81     000089
1007421078737COBR_CAUC_BIC  AEGER COMERCIAL E IMPORTADORA LTDA      015224933000130TIAGO MENDES VILELA - EPP               RUA DOUTOR JOAO RIBEIRO, 304 LJ 1213    SAO PAULO                               03634900SP506900002003587419AG3150900D  13112014007PAULISTA            3003201500000000000091217CC                                                                                                                                                                                                                                                                                                                                                                                           348237-82     000090
1007421078737COBR_CAUC_COR  AEGER COMERCIAL E IMPORTADORA LTDA      018598664000160PROVENCE PERFUMES LTDA                  AV STA BEATRIZ SILVA, 1501              UBERABA                                 38050000MG506910000103588181AG3154408D  10122014700BANCO REAL- ABN AMRO0804201500000000001032897CC                                                                                                                                                                                                                                                                                                                                                                                           348237-83     000091
1007421078737COBR_CAUC_COR  AEGER COMERCIAL E IMPORTADORA LTDA      018598664000160PROVENCE PERFUMES LTDA                  AV STA BEATRIZ SILVA, 1501              UBERABA                                 38050000MG506910000203588261AG3154521D  10122014700BANCO REAL- ABN AMRO0804201500000000001162430CC                                                                                                                                                                                                                                                                                                                                                                                           348237-84     000092
1007421078737COBR_CAUC_COR  AEGER COMERCIAL E IMPORTADORA LTDA      016747527000114EXCLUSIVE PRIME COSMETICOS LTDA         DR. HOMERO JOSE DE FRANCA LIMEIRA, 330  PALMARES                                55540000PE506920000103587877AG3154108B  08122014700BANCO REAL- ABN AMRO0903201500000000001206927CC                                                                                                                                                                                                                                                                                                                                                                                           348237-85     000093
1007421078737COBR_CAUC_COR  AEGER COMERCIAL E IMPORTADORA LTDA      016747527000114EXCLUSIVE PRIME COSMETICOS LTDA         DR. HOMERO JOSE DE FRANCA LIMEIRA, 330  PALMARES                                55540000PE506920000203587885AG3154108C  08122014700BANCO REAL- ABN AMRO2303201500000000001206926CC                                                                                                                                                                                                                                                                                                                                                                                           348237-86     000094
1007421078737COBR_CAUC_COR  AEGER COMERCIAL E IMPORTADORA LTDA      016747527000114EXCLUSIVE PRIME COSMETICOS LTDA         DR. HOMERO JOSE DE FRANCA LIMEIRA, 330  PALMARES                                55540000PE506920000303614491AG3157176A  31012015700BANCO REAL- ABN AMRO0203201500000000000578654CC                                                                                                                                                                                                                                                                                                                                                                                           348237-87     000095
1007421078737COBR_CAUC_COR  AEGER COMERCIAL E IMPORTADORA LTDA      016747527000114EXCLUSIVE PRIME COSMETICOS LTDA         DR. HOMERO JOSE DE FRANCA LIMEIRA, 330  PALMARES                                55540000PE506920000403632082AG3157176D  31012015700BANCO REAL- ABN AMRO0106201500000000000578652CC                                                                                                                                                                                                                                                                                                                                                                                           348237-88     000096
1007421078737COBR_CAUC_BIC  AEGER COMERCIAL E IMPORTADORA LTDA      016569145000229PRA & G COMERCIO DE COSMETICOS LTD      AV CRISTIANO MACHADO, 4000LOJA 158      BELO HORIZONTE                          31910900MG506930000103589683AG4016921D  05122014019BELO HORIZONTE      0304201500000000000093255CC                                                                                                                                                                                                                                                                                                                                                                                           348237-89     000097
1007421078737COBR_CAUC_BIC  AEGER COMERCIAL E IMPORTADORA LTDA      016569145000229PRA & G COMERCIO DE COSMETICOS LTD      AV CRISTIANO MACHADO, 4000LOJA 158      BELO HORIZONTE                          31910900MG506930000203589772AG4017012D  05122014019BELO HORIZONTE      0304201500000000000028890CC                                                                                                                                                                                                                                                                                                                                                                                           348237-90     000098
1007421078737COBR_CAUC_BIC  AEGER COMERCIAL E IMPORTADORA LTDA      016569145000229PRA & G COMERCIO DE COSMETICOS LTD      AV CRISTIANO MACHADO, 4000LOJA 158      BELO HORIZONTE                          31910900MG506930000303589781AG4017022D  08122014019BELO HORIZONTE      0604201500000000000340806CC                                                                                                                                                                                                                                                                                                                                                                                           348237-91     000099
1007421078737COBR_CAUC_BIC  AEGER COMERCIAL E IMPORTADORA LTDA      016569145000229PRA & G COMERCIO DE COSMETICOS LTD      AV CRISTIANO MACHADO, 4000LOJA 158      BELO HORIZONTE                          31910900MG506930000403589799AG4017023D  08122014019BELO HORIZONTE      0604201500000000000130113CC                                                                                                                                                                                                                                                                                                                                                                                           348237-92     000100
1007421078737COBR_CAUC_BIC  AEGER COMERCIAL E IMPORTADORA LTDA      016569145000229PRA & G COMERCIO DE COSMETICOS LTD      AV CRISTIANO MACHADO, 4000LOJA 158      BELO HORIZONTE                          31910900MG506930000503589802AG4017025D  08122014019BELO HORIZONTE      0604201500000000000402177CC                                                                                                                                                                                                                                                                                                                                                                                           348237-93     000101
1007421078737COBR_CAUC_BIC  AEGER COMERCIAL E IMPORTADORA LTDA      016569145000229PRA & G COMERCIO DE COSMETICOS LTD      AV CRISTIANO MACHADO, 4000LOJA 158      BELO HORIZONTE                          31910900MG506930000603589829AG4017067D  08122014019BELO HORIZONTE      0604201500000000000185079CC                                                                                                                                                                                                                                                                                                                                                                                           348237-94     000102
1007421078737COBR_CAUC_BIC  AEGER COMERCIAL E IMPORTADORA LTDA      016569145000229PRA & G COMERCIO DE COSMETICOS LTD      AV CRISTIANO MACHADO, 4000LOJA 158      BELO HORIZONTE                          31910900MG506930000703589861AG4017096D  08122014019BELO HORIZONTE      0604201500000000000042469CC                                                                                                                                                                                                                                                                                                                                                                                           348237-95     000103
9000102                                                                                                                                                                                                                                                                                                                                                                                                                                                                                                                                                                                                                                                                                                               000104
