0REMESSANOTIFICAÇÃO ELETRONICA        99999999999999Bicbanco S/A                            Avenida Brigadeiro Faria Lima           4.440     2º andar  Itaim Bibi                    São Paulo                     04538132SPBicbanco S/A                                                                    17052012                                                                                                                                                                                                                                                                                                                                                                                                000001
1007421053971COBR_CAUC_BIC  VIDA ALIMENTOS LTDA                     011457034000126GOOD MEAL COM E TRANSP DE PROD ALI      RUA ARARIPE, 206                        SAO PAULO                               03215010SP3536800001012174280004421301  10052012007PAULISTA            3105201200000000011398000CC                                                                                                                                                                                                                                                                                                                                                                                           175276-1      000002
1007421044581COBR_CAUC_BIC  GRANCARGA TRANSP. E GUINDASTES S/A.     001027335000166WOBBEN WINDPOWER IND.E COM.LTDA.        AV.FERNANDO STECCA,100                  SOROCABA                                18087149SP353690000101216553002224      08052012007PAULISTA            0407201200000000023168209CC                                                                                                                                                                                                                                                                                                                                                                                           175276-2      000003
1007421044581COBR_CAUC_BIC  GRANCARGA TRANSP. E GUINDASTES S/A.     001027335000166WOBBEN WINDPOWER IND.E COM.LTDA.        AV.FERNANDO STECCA,100                  SOROCABA                                18087149SP353690000201216715002223      08052012007PAULISTA            0407201200000000055229417CC                                                                                                                                                                                                                                                                                                                                                                                           175276-3      000004
1021141012725COBR_CAUC_BIC  MABE BRASIL ELETRODOMESTICOS LTDA       000776574000660B2W COMPANHIA GLOBAL DO VAREJO          RUA SACADURA CABRAL 102, PARTE          RIO DE JANEIRO                          20081902RJ3537000001063298170000107499  10052012014RIO DE JANEIRO      1807201200000000010899520TD                                                                                                                                                                                                                                                                                                                                                                                           175276-4      000005
1021141012725COBR_CAUC_BIC  MABE BRASIL ELETRODOMESTICOS LTDA       000776574000660B2W COMPANHIA GLOBAL DO VAREJO          RUA SACADURA CABRAL 102, PARTE          RIO DE JANEIRO                          20081902RJ3537000002063299490000730388  11052012014RIO DE JANEIRO      1907201200000000011026473TD                                                                                                                                                                                                                                                                                                                                                                                           175276-5      000006
1021141012725COBR_CAUC_BIC  MABE BRASIL ELETRODOMESTICOS LTDA       000776574000660B2W COMPANHIA GLOBAL DO VAREJO          RUA SACADURA CABRAL 102, PARTE          RIO DE JANEIRO                          20081902RJ3537000003063299650000730390  11052012014RIO DE JANEIRO      1907201200000000012413565TD                                                                                                                                                                                                                                                                                                                                                                                           175276-6      000007
1021141012725COBR_CAUC_BIC  MABE BRASIL ELETRODOMESTICOS LTDA       009358108000397NOVA PONTOCOM COMERCIO ELETRONICO       RUA GOMES DE CARVALHO, 1609             SãO PAULO                               04547006SP3537100001063296550000729962  10052012007PAULISTA            1807201200000000012461732TD                                                                                                                                                                                                                                                                                                                                                                                           175276-7      000008
1036421016893COBR_CAUC_COR  TECAL ALUMINIO DA AMAZONIA LTDA         004012043000148SHOWA DO BRASIL LTDA                    RUA RIO QUIXITO                         MANAUS                                  69075830AM3537200001058654600000039518  11052012900BRADESCO S/A        1006201200000000010412192CC                                                                                                                                                                                                                                                                                                                                                                                           175276-8      000009
1010421019891DIR_CREDIT     CIDADE TRANSPORTES LTDA                 003128979000176DISTR.EQUADOR DE PRODUTOS DE PETROLEO   RUA PAJURA 895 VILA BURITI              MANAUS                                  69075840AM3538200001                                                                                                                                          011811245           260420070000015968_001/2007   11052012000403TRANSPORTE VIA FLUVIAL COMBUSTIVEL(GASOLINA, ALCOOL E DIESEL) EM CARRETAS TANQUE.                                                                                                                                                               006151511000190175276-9      000010
1020421001652COBR_CAUC_COR  SANTHER FAB PAP STA THEREZINHA S/A      066471517000177DPC DISTRIBUIDOR ATACADISTA S/A         RODOVIA MG 329 KM 2,0                   CARATINGA                               35300000MG353830000106186631036137101   12052012800UNIBANCO S/A        2506201200000000010234474CC                                                                                                                                                                                                                                                                                                                                                                                           175278-1      000011
1021141012725COBR_CAUC_BIC  MABE BRASIL ELETRODOMESTICOS LTDA       009358108000397NOVA PONTOCOM COMERCIO ELETRONICO       RUA GOMES DE CARVALHO, 1609             SãO PAULO                               04547006SP3538400001063306450000731552  14052012007PAULISTA            2307201200000000012706946TD                                                                                                                                                                                                                                                                                                                                                                                           175278-2      000012
1021141012725COBR_CAUC_BIC  MABE BRASIL ELETRODOMESTICOS LTDA       047508411007835CIA.BRASILEIRA DE DISTRIBUICAO          MARG. DIR. TIETE 342                    SAO PAULO                               05118100SP3538500001063304240000107845  11052012007PAULISTA            2007201200000000010240031TD                                                                                                                                                                                                                                                                                                                                                                                           175278-3      000013
1050421000089COBR_CAUC_BIC  ATIVO ALIMENTOS LTDA                    011596442003427CARVALHO E FERNANDES LTDA               AVE DEPUTADO PAULO FERRAZ 4888          TERESINA                                64078820PI353860000100333149134177/1    11052012041TERESINA            1006201200000000014226659CC                                                                                                                                                                                                                                                                                                                                                                                           175278-4      000014
1014421008439COBR_CAUC_BIC  TV OMEGA LTDA                           060701190000104Itaú Unibanco S/A.                      Av. Brig. Faria Lima - 18º Andar 2277   SãoPaulo                                01452000SP35387000010452147401316701    14052012007PAULISTA            1506201200000000013735008CC                                                                                                                                                                                                                                                                                                                                                                                           175278-5      000015
1044421000599DIR_CREDIT     FLAGUE CONSTRUCOES LTDA                 008234148000100PM DE MACAIBA                           AV MONICA NOBREGA DANTAS, 34            MACAIBA                                 59280000RN3535500001                                                                                                                                          011833992           060520110000018754P. LICIT. 1110052012000403construção de escola padrão com 10 salas de aula - monte líbano/macaiba-rn.                                                                                                                                                                     041000977000196175282-1      000016
1044481014642DIR_CREDIT     GASPAR SERVICOS E CONSTRUCOES LTDA      008241804000194SECRETARIA DE ESTADO DA EDUCACAO E CULT 5OC CENTRO ADMINISTRATIVO S/N           NATAL                                   59037155RN3535700001                                                                                                                                          481017471           230720100000015054060/2010    05012012000404execução de obras referente ao lote n 38 - reforma e ampliação das instalações físicas na escola estadual ielmo marinho, em ielmo marinho/rn e reformadas instalaçoes fisicas na e.e. jose fernandes machado em natal/rn.                       008735254000160175282-2      000017
1044481016670DIR_CREDIT     GASPAR SERVICOS E CONSTRUCOES LTDA      008241804000194SECRETARIA DE ESTADO DA EDUCACAO E CULT LOC CENTRO ADMINISTRATIVO - S/N         NATAL                                   59037155RN3535800001                                                                                                                                          481017471           040820100000015267026/2010-SIN05012012000404execução das obras do lote n 22 - construção de unidade escolar padrao com 06 salas de aula e quadra poliesportiva coberta, em galinhos/rn.                                                                                                     008735254000160175282-3      000018
1044481016670DIR_CREDIT     GASPAR SERVICOS E CONSTRUCOES LTDA      008241804000194SECRETARIA DE ESTADO DA EDUCACAO E CULT LOC CENTRO ADMINISTRATIVO               NATAL                                   59037155RN3535900001                                                                                                                                          481017471           030920100000015688076/2010-SIN05012012000404reforma e ampliação das instalações físicas na E.E Querubina Silveira, em Cerro corá/rn e reforma e ampliação das instalaçoes fisicas na e.e teonia amaral, em florania/rn.                                                                     008735254000160175282-4      000019
1007421006183COBR_CAUC_BIC  NITRIFLEX S/A IND E COMERCIO            015179682002243RHODIA POLIAMIDA E ESPECIALIDADES       AV.DOS ESTADOS, 6144                    SANTO ANDRE                             09290520SP353940000101219846001513301   14052012038ABC                 1607201200000000015165360CC                                                                                                                                                                                                                                                                                                                                                                                           175282-5      000020
1009420930764COBR_CAUC_BIC  S/A CORREIO BRAZILIENSE                 060701190000104ITAU UNIBANCO S.A.                      PRACA ALFREDO E.S.ARANHA,100 TORRE ITAUSSAO PAULO                               04344902SP353950000101376971437505-1    14052012007PAULISTA            3005201200000000011681280CC                                                                                                                                                                                                                                                                                                                                                                                           175282-6      000021
1021420930887COBR_CAUC_BIC  DEDINI S/A INDUSTRIAS DE BASE           061068342000138PRENSAS SCHULER SA                      AV FAGUNDES DE OLIVEIRA, 1515 PIRAPORINHDIADEMA                                 09950904SP35396000010633072631386-01-1  11052012038ABC                 3005201200000000010594900CC                                                                                                                                                                                                                                                                                                                                                                                           175282-7      000022
1007420931444COBR_CAUC_BIC  PLASINCO LTDA                           047090782000160DANEVA MAQ. E COND. EL. LTDA.           RUA VOTUPORANGA,415                     POA                                     08558050SP35397000010121974920178       14052012007PAULISTA            0406201200000000020654816CC                                                                                                                                                                                                                                                                                                                                                                                           175282-8      000023
1007421053971COBR_CAUC_BIC  VIDA ALIMENTOS LTDA                     011457034000126GOOD MEAL COM E TRANSP DE PROD ALI      RUA ARARIPE, 206                        SAO PAULO                               03215010SP3539800001012202410004438001  14052012007PAULISTA            0606201200000000015012000CC                                                                                                                                                                                                                                                                                                                                                                                           175282-9      000024
1020421001652COBR_CAUC_BIC  SANTHER FAB PAP STA THEREZINHA S/A      007968243000167FOCO DISTRIBUIDORA LTDA                 R. TOM JOBIM, 600 GALP 01/02 E MOD01    CONTAGEM                                32210190MG353990000106187653036188101   14052012019BELO HORIZONTE      1106201200000000015335659CC                                                                                                                                                                                                                                                                                                                                                                                           175282-10     000025
1014421021575COBR_CAUC_COR  CESBRA QUIMICA S/A                      048539407000207BASF SA                                 AVENIDA BRASIL ,791                     GUARATINGUETA                           12521900SP3540000001045218658352/COMPL  15052012900BRADESCO S/A        1406201200000000038000000CC                                                                                                                                                                                                                                                                                                                                                                                           175282-11     000026
1010421023481DIR_CREDIT     HOSPITAL DE AVILA LTDA                  004171205000190VIVA PLANOS DE SAUDE LTDA               AV.DR.JOSE A.MOREIRA, 1251 - CASA CAIADAOLINDA                                  53130410PE3541000001                                                                                                                                          001177263           010320100000020792S/N         10052012001213Prestação de serviços de assistência médico-hospitalar.                                                                                                                                                                                         035716166000193175282-12     000027
9000026                                                                                                                                                                                                                                                                                                                                                                                                                                                                                                                                                                                                                                                                                                               000028
