0REMESSANOTIFICAÇÃO ELETRONICA        99999999999999Bicbanco S/A                            Avenida Brigadeiro Faria Lima           4.440     2º andar  Itaim Bibi                    São Paulo                     04538132SPBicbanco S/A                                                                    04122013                                                                                                                                                                                                                                                                                                                                                                                                000001
1009421012831COBR_CAUC_COR  ASA ALIMENTOS S/A                       007209331000185REGINA AGROINDUSTRIAL S/A               ESTRADA DO AQUIRAZ,801                  FORTALEZA                               60840970CE4548100001001489750044855     30112013900BRADESCO S/A        2812201300000000012761910CC                                                                                                                                                                                                                                                                                                                                                                                           272053-1      000002
1021420930887COBR_CAUC_COR  DEDINI S/A INDUSTRIAS DE BASE           075717355000286USINA DE ACUCAR SANTA TEREZINHA LT      AV MARCELO MESSIAS BUSIQUIA 847 PQ INDUSMARINGA                                 87065006PR454820000106483808228298-7-7  23102013900BRADESCO S/A        2802201400000000020358077CC                                                                                                                                                                                                                                                                                                                                                                                           272053-2      000003
1021420930887COBR_CAUC_COR  DEDINI S/A INDUSTRIAS DE BASE           075717355000286USINA DE ACUCAR SANTA TEREZINHA LT      AV MARCELO MESSIAS BUSIQUIA 847 PQ INDUSMARINGA                                 87065006PR454820000206483824228279-7-7  23102013900BRADESCO S/A        2802201400000000015648471CC                                                                                                                                                                                                                                                                                                                                                                                           272053-3      000004
1021420930887COBR_CAUC_COR  DEDINI S/A INDUSTRIAS DE BASE           075717355000286USINA DE ACUCAR SANTA TEREZINHA LT      AV MARCELO MESSIAS BUSIQUIA 847 PQ INDUSMARINGA                                 87065006PR454820000306483875228243-7-7  23102013900BRADESCO S/A        2802201400000000022820005CC                                                                                                                                                                                                                                                                                                                                                                                           272053-4      000005
1020421002020COBR_CAUC_COR  GRABER SISTEMAS DE SEGURANCA LTDA       010588595000363MEDLEY COMERCIAL E LOGISTICA L          R ESTACIO DE SA, 1490 - JD SANTA GENEBRACAMPINAS                                13080010SP4548400001000136370000006883  02122013900BRADESCO S/A        0101201400000000013218646CC                                                                                                                                                                                                                                                                                                                                                                                           272053-5      000006
1020421001652COBR_CAUC_BIC  SANTHER FAB PAP STA THEREZINHA S/A      002782071000623MEGAFORT DISTRIBUIDORA IMPORTACAO       AV. WILSON TAVARES RIBEIRO,1651 GP LC1  CONTAGEM                                31183680MG454850000106371543050294901   26112013019BELO HORIZONTE      0701201400000000015995028CC                                                                                                                                                                                                                                                                                                                                                                                           272053-6      000007
1007421056385COBR_CAUC_COR  TERRA NOVA TRADING S/A                  075308551004456RIBEIRO S/A COMERCIO DE PNEUS           AV. PHILADELPHO MANOEL GOUVEIA,142      SAO JOSE DO RIO                         15050006SP454830000100001642TV12530-00  02022013900BRADESCO S/A        1612201300000000024658037CC                                                                                                                                                                                                                                                                                                                                                                                           272053-7      000008
1050421007970COBR_CAUC_COR  TRANSGLOBAL NORTE TRANSPORTES LTDA      010456016001643SHELL BRASIL PETROLEO LTDA              ROD. BR 316,0                           ANANINDEUA                              67030000PA4548600001000002391907        02122013900BRADESCO S/A        2412201300000000011127514CC                                                                                                                                                                                                                                                                                                                                                                                           272053-8      000009
9000008                                                                                                                                                                                                                                                                                                                                                                                                                                                                                                                                                                                                                                                                                                               000010
