0REMESSANOTIFICAÇÃO ELETRONICA        99999999999999Bicbanco S/A                            Avenida Brigadeiro Faria Lima           4.440     2º andar  Itaim Bibi                    São Paulo                     04538132SPBicbanco S/A                                                                    12032014                                                                                                                                                                                                                                                                                                                                                                                                000001
1036421016893COBR_CAUC_COR  TECAL ALUMINIO DA AMAZONIA LTDA         004012043000148SHOWA DO BRASIL LTDA                    RUA RIO QUIXITO                         MANAUS                                  69075830AM4667100001059976920000057419  26022014900BRADESCO S/A        2803201400000000015363865CC                                                                                                                                                                                                                                                                                                                                                                                           289206-1      000002
1016421019267COBR_CAUC_BIC  COBRAZEM AGROINDUSTRIAL LTDA            076108349000103CASTROLANDA COOP. AGROINDUSTRIAL L      ROD. PR 340 KM 195 + 490 MTS,0          CASTRO                                  84160000PR4667200001044081770013482-1   27022014016CURITIBA            0704201400000000046875000CC                                                                                                                                                                                                                                                                                                                                                                                           289206-2      000003
1016421019267COBR_CAUC_BIC  COBRAZEM AGROINDUSTRIAL LTDA            076108349000103CASTROLANDA COOP. AGROINDUSTRIAL L      ROD. PR 340 KM 195 + 490 MTS,0          CASTRO                                  84160000PR4667200002044081850013483-1   27022014016CURITIBA            0704201400000000046875000CC                                                                                                                                                                                                                                                                                                                                                                                           289206-3      000004
1046421001443COBR_CAUC_COR  COSTAO DO SANTINHO TUR E LAZER LTDA     000027976000158MM ASSESSORIA EVENTOS E CONGRESSOS      AV. PAULISTA - ,1439-3O AND.CJ.33/      SAO PAULO                               01311200SP466730000100013475204086      28022014900BRADESCO S/A        2703201400000000197782346CC                                                                                                                                                                                                                                                                                                                                                                                           289206-4      000005
1048421003043COBR_CAUC_COR  FRIGOL S.A. EM RECUPERACAO JUDICIAL     008029696000352ESTIVAS NOVO PRADO LTDA                 VINTE DE JANEIRO 958                    RECIFE                                  51130120PE4667400001000692040000033875  07032014900BRADESCO S/A        1703201400000000022103235CC                                                                                                                                                                                                                                                                                                                                                                                           289206-5      000006
1018421034869COBR_CAUC_COR  L ANNO IND E COM DE LATICINIOS LTDA     009040746000284DFB DIST D PROD FRIOS ALIMENTICIOS      RUA MARGINAL, 3 QUADRA J                PETROLINA                               56308422PE4667500001036249980010421     25022014900BRADESCO S/A        2503201400000000010406333CC                                                                                                                                                                                                                                                                                                                                                                                           289206-6      000007
1018421034397COBR_CAUC_COR  MISSIONEIRA COM E REP AGROP LTDA        000052947700910YOISHIO BENTO KUMASSAKA                 R.CANDIDO PORTINARI Q17 LT8, 270        LUIS EDUARDO MA                         47850000BA46716000010349557819690/01    29102013900BRADESCO S/A        3005201400000000019000000CC                                                                                                                                                                                                                                                                                                                                                                                           289348-1      000008
1018421002380COBR_CAUC_COR  FERTILIZANTES ALIANCA LTDA.             000014555391802FLAMERSON DIAS DE OLIVEIRA              R.PRES.KENNEDY Q.9 LT1 -BANDEIRANTES    CALDAS NOVAS                            75690000GO467170000103518021A1347856B   05122013700BANCO REAL- ABN AMRO3005201400000000013360800CC                                                                                                                                                                                                                                                                                                                                                                                           289348-2      000009
1018421002380COBR_CAUC_COR  FERTILIZANTES ALIANCA LTDA.             000014555391802FLAMERSON DIAS DE OLIVEIRA              R.PRES.KENNEDY Q.9 LT1 -BANDEIRANTES    CALDAS NOVAS                            75690000GO467170000203518039A1347856A   05122013700BANCO REAL- ABN AMRO3005201400000000013360800CC                                                                                                                                                                                                                                                                                                                                                                                           289348-3      000010
1028421001518COBR_CAUC_COR  GAIA AGRIBUSINESS AGRICOLA LTDA         000048494836153JOSE ADONIZETE DA COSTA                 AV.STA.CATARINA 180- S.FRANCISCO        GOIATUBA                                75600000GO46718000010297284646089       10122013900BRADESCO S/A        2505201400000000017390000CC                                                                                                                                                                                                                                                                                                                                                                                           289348-4      000011
1028421001518COBR_CAUC_COR  GAIA AGRIBUSINESS AGRICOLA LTDA         000048494836153JOSE ADONIZETE DA COSTA                 AV.STA.CATARINA 180- S.FRANCISCO        GOIATUBA                                75600000GO46718000020297285446090       10122013900BRADESCO S/A        0506201400000000017392000CC                                                                                                                                                                                                                                                                                                                                                                                           289348-5      000012
1019421011492COBR_CAUC_BIC  SECULUS DA AMAZONIA IND. E COM. S/A     027197888007597DUFRY DO BRASIL DUTY FREE SHOP LTD      RUA DA ASSEMBLEIA 51, 10 ANDAR          RIO DE JANEIRO                          20011001RJ467000000106836158123453001   05022014014RIO DE JANEIRO      0805201400000000015379434CC                                                                                                                                                                                                                                                                                                                                                                                           289348-6      000013
1007421061990COBR_CAUC_COR  BRASIL MAQUINAS E EQUIP PESADOS S/A     018795934000122CONSORCIO CONTEK - A. MADEIRA           ROD BR-101 NORTE - KM 260 S/N,0         SERRA                                   29170022ES46701000010271639817715A      28022014700BANCO REAL- ABN AMRO1004201400000000024000000CC                                                                                                                                                                                                                                                                                                                                                                                           289348-7      000014
1007421061990COBR_CAUC_COR  BRASIL MAQUINAS E EQUIP PESADOS S/A     018795934000122CONSORCIO CONTEK - A. MADEIRA           ROD BR-101 NORTE - KM 260 S/N,0         SERRA                                   29170022ES46701000020271640117715B      28022014700BANCO REAL- ABN AMRO1005201400000000024000000CC                                                                                                                                                                                                                                                                                                                                                                                           289348-8      000015
1007421061990COBR_CAUC_COR  BRASIL MAQUINAS E EQUIP PESADOS S/A     018795934000122CONSORCIO CONTEK - A. MADEIRA           ROD BR-101 NORTE - KM 260 S/N,0         SERRA                                   29170022ES46701000030271641017715C      28022014700BANCO REAL- ABN AMRO1006201400000000024000000CC                                                                                                                                                                                                                                                                                                                                                                                           289348-9      000016
1007421061990COBR_CAUC_COR  BRASIL MAQUINAS E EQUIP PESADOS S/A     018795934000122CONSORCIO CONTEK - A. MADEIRA           ROD BR-101 NORTE - KM 260 S/N,0         SERRA                                   29170022ES46701000040271642817715D      28022014700BANCO REAL- ABN AMRO1007201400000000024000000CC                                                                                                                                                                                                                                                                                                                                                                                           289348-10     000017
1048421003043COBR_CAUC_COR  FRIGOL S.A. EM RECUPERACAO JUDICIAL     008029696000352ESTIVAS NOVO PRADO LTDA                 VINTE DE JANEIRO 958                    RECIFE                                  51130120PE46702000010006921200000444-1  08032014900BRADESCO S/A        1703201400000000020761230CC                                                                                                                                                                                                                                                                                                                                                                                           289348-11     000018
9000017                                                                                                                                                                                                                                                                                                                                                                                                                                                                                                                                                                                                                                                                                                               000019
