0REMESSANOTIFICAÇÃO ELETRONICA        99999999999999Bicbanco S/A                            Avenida Paulista                        1048      12º andar BELA VISTA                    SÃO PAULO                     01310100SPBicbanco S/A                                                                    14122010                                                                                                                                                                                                                                                                                                                                                                                                000001
1028421002921COBR_CAUC_COR  FRIGORIFICO MATABOI S/A                 005546194001030G.M.A.P. SUPERMERCADOS LTDA             R MANOEL DUARTE 152                     SAO GONCALO                             24430500RJ2541900001002262170013358601  09122010900BRADESCO S/A        0801201100000000010009833CC                                                                                                                                                                                                                                                                                                                                                                                           117916-1      000002
1021420930887COBR_CAUC_COR  DEDINI S/A INDUSTRIAS DE BASE           006123299000158BIONASA COMBUSTIVEL NATURAL SA          RODOVIA BR 153 ZONA RURAL BR            PORANGATU                               76550000GO25420000010600085882338-18-2  04112010900BRADESCO S/A        0702201100000000020595300CC                                                                                                                                                                                                                                                                                                                                                                                           117916-2      000003
1021420930887COBR_CAUC_COR  DEDINI S/A INDUSTRIAS DE BASE           006123299000158BIONASA COMBUSTIVEL NATURAL SA          RODOVIA BR 153 ZONA RURAL BR            PORANGATU                               76550000GO25420000020600086682338-18-2  04112010900BRADESCO S/A        0702201100000000020595300CC                                                                                                                                                                                                                                                                                                                                                                                           117916-3      000004
1007421034080COBR_CAUC_BIC  SIDMEX INTERNACIONAL LTDA               004887369000119BIZ - BORD COMERCIAL LTDA               RUA FERNAO DE MAGALHAES,152             SAO PAULO                               03023010SP254210000100273022173310      08122010007PAULISTA            0803201100000000014500000CC                                                                                                                                                                                                                                                                                                                                                                                           117916-4      000005
1007421034080COBR_CAUC_BIC  SIDMEX INTERNACIONAL LTDA               011726110000151OASIS COMERCIO DE TECIDOS LTDA.         RUA JOSE PAULINO,756                    SAO PAULO                               01120000SP254220000100273031169910      09122010007PAULISTA            2203201100000000018800000CC                                                                                                                                                                                                                                                                                                                                                                                           117916-5      000006
1042421000576DIR_CREDIT     VIACAO CLEIMATUR LTDA                   003650060000148EMP MARANHENSE DE ADM PORTUARIA - EMAP  PORTO DO ITAQUI SAO LUIS MA             SAO LUIS MA                             65085370MA2543500001                                                                                                                                          481008271           30112007000001484862/2007 - CP30072010000404Contratação de empresa para prestação de serviço de locação de doisônibus, em conformidade com o termo de referência.                                                                                                                           063442792000174117916-6      000007
9000006                                                                                                                                                                                                                                                                                                                                                                                                                                                                                                                                                                                                                                                                                                               000008
