0REMESSANOTIFICAÇÃO ELETRONICA        99999999999999Bicbanco S/A                            Avenida Paulista                        1048      12º andar BELA VISTA                    SÃO PAULO                     01310100SPBicbanco S/A                                                                    14122011                                                                                                                                                                                                                                                                                                                                                                                                000001
1032420932303COBR_CAUC_BIC  TEKA TECELAGEM KUEHNRICH S/A            014112933000185AGUA DE CHEIRO DISTRIB.PRODUTOS LT      ROD.RAP.TAV,SN KM20 BLA MOD1002/1004    SAO PAULO                               05577300SP3247100001001048340121899501  07122011007PAULISTA            0603201200000000023839200CC                                                                                                                                                                                                                                                                                                                                                                                           155313-1      000002
1007421006183COBR_CAUC_BIC  NITRIFLEX S/A IND E COMERCIO            015179682002243RHODIA POLIAMIDA E ESPECIALIDADES       AV.DOS ESTADOS, 6144                    SANTO ANDRE                             09290520SP324720000100968519001272801   07122011038ABC                 0802201200000000015251691CC                                                                                                                                                                                                                                                                                                                                                                                           155313-2      000003
1007420931444COBR_CAUC_BIC  PLASINCO LTDA                           066007857000141WIREX CABLE SA                          ESTR JACAREI STA BRANCA,0-PREDIO A      STA BRANCA                              12325310SP32473000010096835716916-3     07122011007PAULISTA            1101201200000000014959868CC                                                                                                                                                                                                                                                                                                                                                                                           155313-3      000004
1007420931444COBR_CAUC_BIC  PLASINCO LTDA                           066007857000141WIREX CABLE SA                          ESTR JACAREI STA BRANCA,0-PREDIO A      STA BRANCA                              12325310SP32473000020096836516916-2     07122011007PAULISTA            0401201200000000014959418CC                                                                                                                                                                                                                                                                                                                                                                                           155313-4      000005
1007420931444COBR_CAUC_BIC  PLASINCO LTDA                           066007857000141WIREX CABLE SA                          ESTR JACAREI STA BRANCA,0-PREDIO A      STA BRANCA                              12325310SP32473000030096837316916       07122011007PAULISTA            2812201100000000014959418CC                                                                                                                                                                                                                                                                                                                                                                                           155313-5      000006
1032420933490COBR_CAUC_BIC  CECRISA REVESTIMENTOS CERAMICOS         009162574000130RIBEIRAO GOLF EMPREENDIMENTOS           R DR SODRE CONJ 66,122                  SAO PAULO                               04535110SP324740000100106497VP00507504  07122011007PAULISTA            2603201200000000015488643CC                                                                                                                                                                                                                                                                                                                                                                                           155313-6      000007
1007421012434COBR_CAUC_COR  AMEPLAN ASSIST MEDICA PLANEJADA         011031202000117VIACAO METROPOLITANA.                   R. GENARO DE CARVALHO 65                SAO PAULO                               04377220SP3247500001000265130000000868  08122011900BRADESCO S/A        2501201200000000012458267CC                                                                                                                                                                                                                                                                                                                                                                                           155313-7      000008
1016421000809COBR_CAUC_BIC  LOGIKA DISTRIBUIDORA COSMETICOS LTD     025769266000124ARCOM S/A                               ANEL VIARIO AYRTON SENNA, 2001          UBERLANDIA                              38414512MG3247600001032552290010578/01  28112011028UBERLANDIA          3001201200000000013524000CC                                                                                                                                                                                                                                                                                                                                                                                           155313-8      000009
1016421000809COBR_CAUC_BIC  LOGIKA DISTRIBUIDORA COSMETICOS LTD     025769266000124ARCOM S/A                               ANEL VIARIO AYRTON SENNA, 2001          UBERLANDIA                              38414512MG3247600002032552370010709/01  29112011028UBERLANDIA          3001201200000000022314600CC                                                                                                                                                                                                                                                                                                                                                                                           155313-9      000010
1016421000809COBR_CAUC_BIC  LOGIKA DISTRIBUIDORA COSMETICOS LTD     025769266000124ARCOM S/A                               ANEL VIARIO AYRTON SENNA, 2001          UBERLANDIA                              38414512MG3247600003032552450010823/01  30112011028UBERLANDIA          3001201200000000025695600CC                                                                                                                                                                                                                                                                                                                                                                                           155313-10     000011
1024421007416COBR_CAUC_COR  ATLAS AGROINDUSTRIAL LTDA               005055406000195FAROLEO COM DE PROD ALIMENTICIOS L      RUA STA. RITA, 539                      CONTAGEM                                32210120MG324770000101945861028816      07122011600HSBC BANK BRASIL    2012201100000000012250000CC                                                                                                                                                                                                                                                                                                                                                                                           155313-11     000012
1024421007416COBR_CAUC_COR  ATLAS AGROINDUSTRIAL LTDA               005055406000195FAROLEO COM DE PROD ALIMENTICIOS L      RUA STA. RITA, 539                      CONTAGEM                                32210120MG324770000201945879028815      07122011600HSBC BANK BRASIL    2012201100000000012250000CC                                                                                                                                                                                                                                                                                                                                                                                           155313-12     000013
1010421018542DIR_CREDIT     CENTRO TERAPIA CUIDADOS INT LTDA        011944899000117INSTITUTO DE RECURSOS HUMANOS DE PE-IRH RUA HENRIQUE DIAS S/N                   _RECIFE                                 50070140PE3249100001                                                                                                                                          011438617           02012008000001375104/2008     16052011000403Prestação de Serviços de Assistência à Saúde aos Usuários do Sistema deAssistência à Saude dos Servidores do Estado de PE - SASSEPE.                                                                                                            008273584000180155313-13     000014
1007421049060COBR_CAUC_BIC  MERCOSUL COMERCIAL E INDL LTDA          060745411000138CAPRICORNIO S/A                         AV ANGELICA, 2578 12º ANDAR             SAO PAULO                               01228200SP324920000100970351FF          04112011007PAULISTA            0904201200000000385888000CC                                                                                                                                                                                                                                                                                                                                                                                           155612-1      000015
1021141012725COBR_CAUC_BIC  MABE BRASIL ELETRODOMESTICOS LTDA       047960950003902MAGAZINE LUIZA S/A                      RUA DO COMéRCIO 1.924                   FRANCA                                  14400660SP3251200001062603370000569621  09122011022RIBEIRAO PRETO      0401201200000000011357879TD                                                                                                                                                                                                                                                                                                                                                                                           155615-1      000016
1009141012890COBR_CAUC_BIC  CONSTRUTORA J COUTO I. TERRAP. LTDA     024946352000100JM TERRAPLENAGEM E COSNTRUÇÃO LTDA      QNA 26 CASA 34                          TAGUATINGA                              72110260DF325130000106776501250         29112011009BRASILIA            0703201200000000056348263TD                                                                                                                                                                                                                                                                                                                                                                                           155615-2      000017
1007421054641COBR_CAUC_BIC  TEC TOY S/A                             072820822002840SKY BRASIL SERVICOS LTDA                EST DA CRUZ GRANDE, 1700 PARTE A        LOUVEIRA                                13290000SP3252900001009231413100811001  16112011007PAULISTA            3112201100000000056727840CC                                                                                                                                                                                                                                                                                                                                                                                           155615-3      000018
1007421054641COBR_CAUC_COR  TEC TOY S/A                             007105743001651POLO DO ELETRO COMERCIAL DE MOVEIS      AV DOM LINO ,996                        RUSSAS                                  62900000CE3253000001009624133100806502  10112011800UNIBANCO S/A        2112201100000000003135000CC                                                                                                                                                                                                                                                                                                                                                                                           155615-4      000019
1007421054641COBR_CAUC_COR  TEC TOY S/A                             007105743001651POLO DO ELETRO COMERCIAL DE MOVEIS      AV DOM LINO ,996                        RUSSAS                                  62900000CE3253000002009625023100806503  10112011800UNIBANCO S/A        3112201100000000003135000CC                                                                                                                                                                                                                                                                                                                                                                                           155615-5      000020
1007421054641COBR_CAUC_COR  TEC TOY S/A                             007105743001651POLO DO ELETRO COMERCIAL DE MOVEIS      AV DOM LINO ,996                        RUSSAS                                  62900000CE3253000003009625883100831101  29112011800UNIBANCO S/A        1512201100000000001191190CC                                                                                                                                                                                                                                                                                                                                                                                           155615-6      000021
1007421054641COBR_CAUC_COR  TEC TOY S/A                             007105743001651POLO DO ELETRO COMERCIAL DE MOVEIS      AV DOM LINO ,996                        RUSSAS                                  62900000CE3253000004009625963100831102  29112011800UNIBANCO S/A        2512201100000000001156155CC                                                                                                                                                                                                                                                                                                                                                                                           155615-7      000022
1007421054641COBR_CAUC_COR  TEC TOY S/A                             007105743001651POLO DO ELETRO COMERCIAL DE MOVEIS      AV DOM LINO ,996                        RUSSAS                                  62900000CE3253000005009626003100831103  29112011800UNIBANCO S/A        0401201200000000001156155CC                                                                                                                                                                                                                                                                                                                                                                                           155615-8      000023
1007421054641COBR_CAUC_COR  TEC TOY S/A                             007105743001651POLO DO ELETRO COMERCIAL DE MOVEIS      AV DOM LINO ,996                        RUSSAS                                  62900000CE3253000006009626933100832601  30112011800UNIBANCO S/A        1512201100000000001191190CC                                                                                                                                                                                                                                                                                                                                                                                           155615-9      000024
1007421054641COBR_CAUC_COR  TEC TOY S/A                             007105743001651POLO DO ELETRO COMERCIAL DE MOVEIS      AV DOM LINO ,996                        RUSSAS                                  62900000CE3253000007009627073100832602  30112011800UNIBANCO S/A        2412201100000000001156155CC                                                                                                                                                                                                                                                                                                                                                                                           155615-10     000025
1007421054641COBR_CAUC_COR  TEC TOY S/A                             007105743001651POLO DO ELETRO COMERCIAL DE MOVEIS      AV DOM LINO ,996                        RUSSAS                                  62900000CE3253000008009627153100832603  30112011800UNIBANCO S/A        0301201200000000001156155CC                                                                                                                                                                                                                                                                                                                                                                                           155615-11     000026
1                           COMPANHIA ESTADUAL DE HABITAÇÃO E OBRAS -CEHAB               DUARTE CARVALHO EMPREENDIMENTOS LTDA    Rua Othon Paraíso, nº 343, térreo       Recife                                  52030-250PE                                                                                        Encruzilhada                                                                                                                                                                                                                                                                                                                                                                               155627-1      000027
1                           DUARTE CARVALHO EMPREENDIMENTOS LTDA                   COMPANHIA ESTADUAL DE HABITAÇÃO E OBRAS – CEHABRua Odorico Mendes, nº 700              Recife                                  52031-080PE                                                                                        Campo Grande                                                                                                                                                                                                                                                                                                                                                                               155630-1      000028
1                           LEAL ENGENHARIA QUÍMICA LTDA                           VALPASA INDÚSTRIA DE PAPEL LTDA         Linha Perotto, Km 0,5 – nº 100          Tangará                                 89642-000SC                                                                                        Distrito Industrial                                                                                                                                                                                                                                                                                                                                                                        155640-1      000029
9000028                                                                                                                                                                                                                                                                                                                                                                                                                                                                                                                                                                                                                                                                                                               000030
