0REMESSANOTIFICAÇÃO ELETRONICA        99999999999999Bicbanco S/A                            Avenida Paulista                        1048      12º andar BELA VISTA                    SÃO PAULO                     01310100SPBicbanco S/A                                                                    14012011                                                                                                                                                                                                                                                                                                                                                                                                000001
1028421002921COBR_CAUC_COR  FRIGORIFICO MATABOI S/A                 005650877000141ROMANELLI COMERCIO DE CARNES LTDA       VIA RAMON00314                          SAO LOURENCO                            37470000MG2582800001002382400013907701  08012011900BRADESCO S/A        0702201100000000015202354CC                                                                                                                                                                                                                                                                                                                                                                                           119816-1      000002
1021420930887COBR_CAUC_COR  DEDINI S/A INDUSTRIAS DE BASE           010785202000140USINA BOM JESUS S A                     ENGENHO BOM JESUS PONTE DOS CARVA BR    CABO DE SANTO A                         54590000PE258290000106065895137390-4-4  21122010900BRADESCO S/A        0804201100000000024000000CC                                                                                                                                                                                                                                                                                                                                                                                           119816-2      000003
1014421011391COBR_CAUC_BIC  CENTRAL NACIONAL DE PRODUCOES LTDA      002415583000147IGREJA MUNDIAL DO PODER DE DEUS         R.CARNEIRO DE LEAO, 439                 SAO PAULO                               03015000SP2583000001043374011778/A      10012011007PAULISTA            1005201100000000050000000CC                                                                                                                                                                                                                                                                                                                                                                                           119816-3      000004
1031420932046COBR_CAUC_BIC  PALMALI INDL.DE ALIMENTOS LTDA          074101569000341AGRICOLA JANDELLE S/A.                  AV ITAMARATY                            ROLANDIA                                86600000PR258310000104818405NE 0318701  10012011031LONDRINA            2502201100000000070000000CC                                                                                                                                                                                                                                                                                                                                                                                           119816-4      000005
1031420932046COBR_CAUC_BIC  PALMALI INDL.DE ALIMENTOS LTDA          074101569000341AGRICOLA JANDELLE S/A.                  AV ITAMARATY                            ROLANDIA                                86600000PR258320000104818634NE 0318692  10012011031LONDRINA            2501201100000000025000000CC                                                                                                                                                                                                                                                                                                                                                                                           119818-1      000006
1048141000168COBR_CAUC_BIC  BALDIN BIOENERGIA S/A                   001062529000100DULCINI S.A.                            ESTRADA SITIO TABOÃO S/Nº               PIRASSUNUNGA                            13631301SP25833000010028676112003/12    04012011021CAMPINAS            3003201100000000025000000TD                                                                                                                                                                                                                                                                                                                                                                                           119818-2      000007
1048141000168COBR_CAUC_BIC  BALDIN BIOENERGIA S/A                   001062529000100DULCINI S.A.                            ESTRADA SITIO TABOÃO S/Nº               PIRASSUNUNGA                            13631301SP25833000020028677912003/13    04012011021CAMPINAS            3103201100000000025000000TD                                                                                                                                                                                                                                                                                                                                                                                           119818-3      000008
1048141000168COBR_CAUC_BIC  BALDIN BIOENERGIA S/A                   001062529000100DULCINI S.A.                            ESTRADA SITIO TABOÃO S/Nº               PIRASSUNUNGA                            13631301SP25833000030028678712003/14    04012011021CAMPINAS            0104201100000000025000000TD                                                                                                                                                                                                                                                                                                                                                                                           119818-4      000009
1048141000168COBR_CAUC_BIC  BALDIN BIOENERGIA S/A                   001062529000100DULCINI S.A.                            ESTRADA SITIO TABOÃO S/Nº               PIRASSUNUNGA                            13631301SP25833000040028679512003/15    04012011021CAMPINAS            0404201100000000025000000TD                                                                                                                                                                                                                                                                                                                                                                                           119818-5      000010
1008421005590COBR_CAUC_BIC  MM MONTEIRO PESCA E EXPORTACAO LTDA     071815229000122GREAT FOOD P.DE ALIMENTICIOS LTDA       RUA DOS ESTUDANTES,377                  COTIA                                   06707050SP2583400001081991181005 C      11012011007PAULISTA            1203201100000000016788666CC                                                                                                                                                                                                                                                                                                                                                                                           119818-6      000011
1008421005590COBR_CAUC_BIC  MM MONTEIRO PESCA E EXPORTACAO LTDA     071815229000122GREAT FOOD P.DE ALIMENTICIOS LTDA       RUA DOS ESTUDANTES,377                  COTIA                                   06707050SP2583400002081991261005 B      11012011007PAULISTA            2502201100000000016788667CC                                                                                                                                                                                                                                                                                                                                                                                           119818-7      000012
1008421005590COBR_CAUC_BIC  MM MONTEIRO PESCA E EXPORTACAO LTDA     071815229000122GREAT FOOD P.DE ALIMENTICIOS LTDA       RUA DOS ESTUDANTES,377                  COTIA                                   06707050SP2583400003081991341005 A      11012011007PAULISTA            1002201100000000016788667CC                                                                                                                                                                                                                                                                                                                                                                                           119818-8      000013
9000012                                                                                                                                                                                                                                                                                                                                                                                                                                                                                                                                                                                                                                                                                                               000014
