0REMESSANOTIFICAÇÃO ELETRONICA        99999999999999Bicbanco S/A                            Avenida Brigadeiro Faria Lima           4.440     2º andar  Itaim Bibi                    São Paulo                     04538132SPBicbanco S/A                                                                    24082012                                                                                                                                                                                                                                                                                                                                                                                                000001
1007420931444COBR_CAUC_BIC  PLASINCO LTDA                           061150751000260PRSMIAN ENERGIA CABOS E SIST BRAS       AV ALEXANDRE GUSMAO ,397                STO ANDRE                               09110900SP37192000010139719122201       13082012038ABC                 2709201200000000011450901CC                                                                                                                                                                                                                                                                                                                                                                                           190278-1      000002
1007420931444COBR_CAUC_BIC  PLASINCO LTDA                           061150751000260PRSMIAN ENERGIA CABOS E SIST BRAS       AV ALEXANDRE GUSMAO ,397                STO ANDRE                               09110900SP37192000020139720522203       13082012038ABC                 2709201200000000026468658CC                                                                                                                                                                                                                                                                                                                                                                                           190278-2      000003
1007420931444COBR_CAUC_BIC  PLASINCO LTDA                           061150751000260PRSMIAN ENERGIA CABOS E SIST BRAS       AV ALEXANDRE GUSMAO ,397                STO ANDRE                               09110900SP37192000030139721322205       13082012038ABC                 2709201200000000020841967CC                                                                                                                                                                                                                                                                                                                                                                                           190278-3      000004
1029420932648DIR_CREDIT     PRATO FEITO ALIMENTACAO E SERVICOS      082638644000174UNIVERSAL LEAF TABACOS LTDA             BR 471 KM 129,8 DISTRITO INDUSTRIAL     SANTA CRUZ DO SUL                       96835642RS3719700001                                                                                                                                          011726240           230120070000000795S/N         30012012051902FORNECIMENTO DE REFEICOES COLETIVAS                                                                                                                                                                                                             094161122000103190293-1      000005
1015421021743DIR_CREDIT     CENTRO CLINICO GAUCHO LTDA              000773639000100DIVERSOS CONVENIADOS - PF               CEL FREDERICO LINK, 25                  PORTO ALEGRE                            90035010RS3720000001                                                                                                                                          011949621           090720120000021986DIVERSOS CON08082012000403CONVENIOS DE PLANOS DE SAÚDE.                                                                                                                                                                                                                   093956837000190190293-2      000006
1045421005424DIR_CREDIT     SAO LUCAS MEDICO HOSPITALAR LTDA        013360276000122UNIMED SERGIPE - COOP DE TRAB MEDICO    RUA SOCORRO 100_ SAO JOSE               ARACAJU                                 49015300SE3720600001                                                                                                                                          001193337           01052003000000852505/2003     10082012001213Contrato de prestação de serviços hospitalares aos beneficiários dos planos de saúde operacionalizados pela contratante.                                                                                                                        013131370000100190293-3      000007
1007421011462DIR_CREDIT     HOSPITAL EVANGELICO DE RIO VERDE        037275625000176UNIMED RIO VERDE COOPERATIVA            RUA COSTA GOMES 208                     RIO VERDE                               75901550GO3720700001                                                                                                                                          011958822           121220050000021744122005      15082012000407PRESTAÇÃO DE SERVIÇOS MÉDICOS E HOSPITALARES AOS USUÁRIOS DO PLANO DE ´SAÚDE DA UNIMED                                                                                                                                                          002608131000181190293-4      000008
1031421009837COBR_CAUC_BIC  DIPLOMATA S/AINDL. E COMERCIAL          010545821000167FRIGO BRAS RIO ALIMENTOS LTDA           RUA PALAS 143 143                       RIO DE JANEIRO                          21520360RJ3722600001050232360169869-01  13082012014RIO DE JANEIRO      1809201200000000010260000CC                                                                                                                                                                                                                                                                                                                                                                                           190293-5      000009
1031421009837COBR_CAUC_BIC  DIPLOMATA S/AINDL. E COMERCIAL          010887961000113MAYARA COMERCIO DE GENEROS ALIMENT      AV NELORE 200                           CABO FRIO                               28910420RJ3722700001050230400170009-01  15082012014RIO DE JANEIRO      1809201200000000010125000CC                                                                                                                                                                                                                                                                                                                                                                                           190293-6      000010
1031421009837COBR_CAUC_BIC  DIPLOMATA S/AINDL. E COMERCIAL          039543806000161CENTRO SUL COM. ATACADISTA DE CARN      RUA MONSENHOR RAEDER,28                 NITEROI                                 24110814RJ3722800001050232010169987-01  14082012014RIO DE JANEIRO      1809201200000000011340000CC                                                                                                                                                                                                                                                                                                                                                                                           190293-7      000011
1031421009837COBR_CAUC_BIC  DIPLOMATA S/AINDL. E COMERCIAL          085070068000108GONCALVES & TORTOLA S/A                 CAIXA POSTAL 142                        MARINGA                                 87001970PR3722900001050231120029417-01  14082012016CURITIBA            1009201200000000010400000CC                                                                                                                                                                                                                                                                                                                                                                                           190293-8      000012
1031421009837COBR_CAUC_BIC  DIPLOMATA S/AINDL. E COMERCIAL          085070068000108GONCALVES & TORTOLA S/A                 CAIXA POSTAL 142                        MARINGA                                 87001970PR3722900002050231210029417-02  14082012016CURITIBA            1009201200000000010400000CC                                                                                                                                                                                                                                                                                                                                                                                           190293-9      000013
1031421009837COBR_CAUC_BIC  DIPLOMATA S/AINDL. E COMERCIAL          085070068000108GONCALVES & TORTOLA S/A                 CAIXA POSTAL 142                        MARINGA                                 87001970PR3722900003050231390029417-03  14082012016CURITIBA            1009201200000000010400000CC                                                                                                                                                                                                                                                                                                                                                                                           190293-10     000014
1031421009837COBR_CAUC_BIC  DIPLOMATA S/AINDL. E COMERCIAL          085070068000108GONCALVES & TORTOLA S/A                 CAIXA POSTAL 142                        MARINGA                                 87001970PR3722900004050231470029417-04  14082012016CURITIBA            1309201200000000010400000CC                                                                                                                                                                                                                                                                                                                                                                                           190293-11     000015
1031421009837COBR_CAUC_BIC  DIPLOMATA S/AINDL. E COMERCIAL          085070068000108GONCALVES & TORTOLA S/A                 CAIXA POSTAL 142                        MARINGA                                 87001970PR3722900005050231550029417-05  14082012016CURITIBA            1309201200000000010400000CC                                                                                                                                                                                                                                                                                                                                                                                           190293-12     000016
1031421009837COBR_CAUC_BIC  DIPLOMATA S/AINDL. E COMERCIAL          085070068000108GONCALVES & TORTOLA S/A                 CAIXA POSTAL 142                        MARINGA                                 87001970PR3722900006050231630029416-02  14082012016CURITIBA            1409201200000000010400000CC                                                                                                                                                                                                                                                                                                                                                                                           190293-13     000017
1031421009837COBR_CAUC_BIC  DIPLOMATA S/AINDL. E COMERCIAL          085070068000108GONCALVES & TORTOLA S/A                 CAIXA POSTAL 142                        MARINGA                                 87001970PR3722900007050231710029417-06  14082012016CURITIBA            1609201200000000010400000CC                                                                                                                                                                                                                                                                                                                                                                                           190293-14     000018
1014420939021COBR_CAUC_BIC  EDITORA O DIA S/A                       010757237000175NOVA CASA BAHIA S/A.                    CONDE FRANCISCO MATARAZZO 100           SAO CAETANO DO                          09520900SP3723000001024651270654113     15082012038ABC                 0509201200000000019053729CC                                                                                                                                                                                                                                                                                                                                                                                           190293-15     000019
1024420934410COBR_CAUC_BIC  INTERCOOP INT SUIN MED NORTE MT LTD     010578244000100GP INDUSTRIA SERVICOS E COMERCIO D      R. MANUEL DUARTE,167                    SAO GONCALO                             24430500RJ37231000010198762884878       13082012014RIO DE JANEIRO      1009201200000000010912000CC                                                                                                                                                                                                                                                                                                                                                                                           190293-16     000020
1007421044581COBR_CAUC_BIC  GRANCARGA TRANSP. E GUINDASTES S/A.     001027335000166WOBBEN WINDPOWER IND.E COM.LTDA.        AV.FERNANDO STECCA,100                  SOROCABA                                18087149SP372320000101402195FAT002417   15082012007PAULISTA            0509201200000000016150000CC                                                                                                                                                                                                                                                                                                                                                                                           190293-17     000021
1007421044581COBR_CAUC_BIC  GRANCARGA TRANSP. E GUINDASTES S/A.     001027335000166WOBBEN WINDPOWER IND.E COM.LTDA.        AV.FERNANDO STECCA,100                  SOROCABA                                18087149SP372320000201402322002416      09082012007PAULISTA            0509201200000000022180183CC                                                                                                                                                                                                                                                                                                                                                                                           190293-18     000022
1007421044581COBR_CAUC_BIC  GRANCARGA TRANSP. E GUINDASTES S/A.     001027335000166WOBBEN WINDPOWER IND.E COM.LTDA.        AV.FERNANDO STECCA,100                  SOROCABA                                18087149SP372320000301402489002421      15082012007PAULISTA            1209201200000000050624783CC                                                                                                                                                                                                                                                                                                                                                                                           190293-19     000023
1020421001717COBR_CAUC_COR  H-BUSTER DA AMAZONIA IND COM LTDA       009268517000564F.S. VASCONCELOS CIA LTDA               ROD BR 230 - ESTRADA DE CABEDELO,KM 12  CABEDELO                                58310000PB372330000106227876017363.1/1  13082012900BRADESCO S/A        2611201200000000068220000CC                                                                                                                                                                                                                                                                                                                                                                                           190293-20     000024
1020421001717COBR_CAUC_COR  H-BUSTER DA AMAZONIA IND COM LTDA       010859506000104LBROS COMERCIO DE MOVEIS LTDA           RUA JOAO VALERIO,365                    MAGE                                    25900000RJ372340000106227841017230.1/1  09082012900BRADESCO S/A        0711201200000000013600000CC                                                                                                                                                                                                                                                                                                                                                                                           190293-21     000025
1020421001717COBR_CAUC_COR  H-BUSTER DA AMAZONIA IND COM LTDA       016182834034180LOJAS INSINUANTE LTDA                   RUA PORTO FRANCO 1271,BLOCO B           JABOATAO DOS GU                         54335020PE372350000106227809017143.1/1  07082012900BRADESCO S/A        2109201200000000045114000CC                                                                                                                                                                                                                                                                                                                                                                                           190293-22     000026
1020421001717COBR_CAUC_COR  H-BUSTER DA AMAZONIA IND COM LTDA       016182834034180LOJAS INSINUANTE LTDA                   RUA PORTO FRANCO 1271,BLOCO B           JABOATAO DOS GU                         54335020PE372350000206227868017251.1/1  09082012900BRADESCO S/A        0711201200000000041200000CC                                                                                                                                                                                                                                                                                                                                                                                           190293-23     000027
1020421001717COBR_CAUC_BIC  H-BUSTER DA AMAZONIA IND COM LTDA       025760877012975CARLOS SARAIVA IMPORTACAO E COM LT      RUA HUM,60                              CONTAGEM                                32183050MG372360000106227795016570.1/1  26072012019BELO HORIZONTE      0909201200000000045114000CC                                                                                                                                                                                                                                                                                                                                                                                           190293-24     000028
1020421001717COBR_CAUC_BIC  H-BUSTER DA AMAZONIA IND COM LTDA       047960950044927MAGAZINE LUIZA S/A - CD300              RUA DO COMERCIO,1924                    FRANCA                                  14400660SP372370000106227884017365.1/1  13082012022RIBEIRAO PRETO      2611201200000000040932000CC                                                                                                                                                                                                                                                                                                                                                                                           190293-25     000029
1020421001717COBR_CAUC_BIC  H-BUSTER DA AMAZONIA IND COM LTDA       047960950044927MAGAZINE LUIZA S/A - CD300              RUA DO COMERCIO,1924                    FRANCA                                  14400660SP372370000206227892017366.1/1  13082012022RIBEIRAO PRETO      2611201200000000040932000CC                                                                                                                                                                                                                                                                                                                                                                                           190293-26     000030
1020421001717COBR_CAUC_BIC  H-BUSTER DA AMAZONIA IND COM LTDA       077500049000308MERCADOMOVEIS LTDA                      RUA VICTOR MEIRELES,288                 PONTA GROSSA                            84051300PR372380000106227825017202.1/1  08082012016CURITIBA            1709201200000000055564000CC                                                                                                                                                                                                                                                                                                                                                                                           190293-27     000031
1020421001717COBR_CAUC_BIC  H-BUSTER DA AMAZONIA IND COM LTDA       077500049000308MERCADOMOVEIS LTDA                      RUA VICTOR MEIRELES,288                 PONTA GROSSA                            84051300PR372380000206227833017203.1/1  08082012016CURITIBA            1709201200000000055564000CC                                                                                                                                                                                                                                                                                                                                                                                           190293-28     000032
1014421020986DIR_CREDIT     EISA ESTALEIRO ILHA SA                  042278291000124LOG-IN LOGISTICA INTERMODAL S/A         PRAIA DE BOTAFOGO, 501/703-TORRE CORCOV RIO DE JANEIRO                          22250908RJ3724500001                                                                                                                                          011183487           301120070000022254S/NR- CASC  10082012000403construir,lançar, equipar, montar, testar e entregar 05 navios porta-conteiner de 2.700 TEU, feitos de aço.                                                                                                                                     000261304000102190293-29     000033
1014421020986DIR_CREDIT     EISA ESTALEIRO ILHA SA                  042278291000124LOG-IN LOGISTICA INTERMODAL S/A         PRAIA DE BOTAFOGO, 501/703-TORRE CORCOV RIO DE JANEIRO                          22250908RJ3724600001                                                                                                                                          011801865           301120070000022254S/NR- CASC  10082012000403construir,lançar, equipar, montar, testar e entregar 05 navios porta-conteiner de 2.700 TEU, feitos de aço.                                                                                                                                     000261304000102190293-30     000034
1014421020986DIR_CREDIT     EISA ESTALEIRO ILHA SA                  042278291000124LOG-IN LOGISTICA INTERMODAL S/A         PRAIA DE BOTAFOGO, 501/703-TORRE CORCOV RIO DE JANEIRO                          22250908RJ3724900001                                                                                                                                          011955990           301120070000022254S/NR- CASC  15082012000403construir,lançar, equipar, montar, testar e entregar 05 navios porta-conteiner de 2.700 TEU, feitos de aço.                                                                                                                                     000261304000102190293-31     000035
9000034                                                                                                                                                                                                                                                                                                                                                                                                                                                                                                                                                                                                                                                                                                               000036
