0REMESSANOTIFICAÇÃO ELETRONICA        99999999999999Bicbanco S/A                            Avenida Paulista                        1048      12º andar BELA VISTA                    SÃO PAULO                     01310100SPBicbanco S/A                                                                    05052011                                                                                                                                                                                                                                                                                                                                                                                                000001
1031421007893COBR_CAUC_BIC  DIPLOMATA S/AINDL. E COMERCIAL          009418012000105TREND COMERCIO DE PRODUTOS ALIMENT      R ZILDA CICCONE GIRALDI, 141 141        CAMPINAS                                13052475SP2744900001048654460226714-01  03052011021CAMPINAS            0306201100000000013905000CC                                                                                                                                                                                                                                                                                                                                                                                           129734-1      000002
1031421007893COBR_CAUC_COR  DIPLOMATA S/AINDL. E COMERCIAL          027497684000135FRISA FRIGORIFICO RIO DOCE S/A.         FIORAVANTE ROSSI, 4000                  COLATINA                                29704700ES2745000001048654710109873-01  03052011800UNIBANCO S/A        0206201100000000010325160CC                                                                                                                                                                                                                                                                                                                                                                                           129734-2      000003
1032421000854COBR_CAUC_BIC  METALURGICA IANY IND E COM LTDA         076639285000177FERRAGENS NEGRAO COMERCIAL LTDA         RUA PROFESSOR ALGACYR MUNHOZ MADER, 2800CURITIBA - PR                           81310020PR27451000010930827112710-1/1   27042011016CURITIBA            1306201100000000011520414CC                                                                                                                                                                                                                                                                                                                                                                                           129734-3      000004
1007421044581COBR_CAUC_BIC  GRANCARGA TRANSP. E GUINDASTES S/A.     001027335000166WOBBEN WINDPOWER IND.E COM.LTDA         AV.FERNANDO STECCA,100                  SOROCABA                                18087149SP274520000100531838001751      02052011007PAULISTA            0106201100000000014892761CC                                                                                                                                                                                                                                                                                                                                                                                           129734-4      000005
1014421021575COBR_CAUC_BIC  CESBRA QUIMICA S/A                      033337122021396IPIRANGA PRODUTOS DE PETROLEO S/A       AV PRESIDENTE ANTONIO CARLOS A,810      DUQUE DE CAXIAS                         25215180RJ2745300001044102140005695/01  03052011014RIO DE JANEIRO      1605201100000000011147020CC                                                                                                                                                                                                                                                                                                                                                                                           129734-5      000006
1042421007031DIR_CREDIT     URGMED SISTEMA DE URG E EMERGE LTDA     008584642000197SECRETARIA DE ESTADO DA ADMINISTRACAO   AV JERONIMO DE ALBQUERQUE S/N CALHAU    SAO LUIS                                65000000MA2746000001                                                                                                                                          011419182           011020090000012460148/2009    29042011000403CONTRATACAO DE EMPRESA ESPECIALIZADA NO ATENDIMENTO MEDICO DE URGENCIA E EMERGENCIA PRE-HOSPITALAR E INTER-HOSPITALAR TERRESTRE E ACOMSELHAMENTO A DISTANCIA, EM FAVOR DOS SERVICOS PUBLICOS ESTADUAIS, ATIVOS, INATIVOS E PENSIONIST           004690222000134129734-6      000007
1042421007031DIR_CREDIT     URGMED SISTEMA DE URG E EMERGE LTDA     007142821000101UNIMED DE SAO LUIS - COOP DE TRAB MEDICOAV GETULIO VARGAS 1863 MONTE CASTELO    SAO LUIS                                65000000MA2746100001                                                                                                                                          011419182           130120030000012466            29042011000403atendimento medico de urgencia e emergencia pre hospitalar e inter hospitalar terrestre                                                                                                                                                         004690222000134129734-7      000008
1042421006400DIR_CREDIT     PROMA - PROJETOS E CONSTRUCOES LTDA     008892295000160SECID-SEC DE ESTADO DAS CIDADES         AV JERONIMO DE ALBUQUERQUE ED CLODOMIR  SAO LUIS                                65000000MA2746500001                                                                                                                                          481010918           281120080000011787135/2008    29042011000404serviço de melhorias habitacionais no rio anil                                                                                                                                                                                                  041484171000110129734-8      000009
9000008                                                                                                                                                                                                                                                                                                                                                                                                                                                                                                                                                                                                                                                                                                               000010
