0REMESSANOTIFICAÇÃO ELETRONICA        99999999999999Bicbanco S/A                            Avenida Paulista , 1048 12º andar                           BELA VISTA                    SÃO PAULO                     01310100SPBicbanco S/A                                                                    21062010                                                                                                                                                                                                                                                                                                                                                                                                000001
1021420930887COBR_CAUC_COR  DEDINI S/A INDUSTRIAS DE BASE           002334471000323USINA SAO TOME SA                       ROD PR 492, KM 47 ZONA RURAL BR         RONDON                                  87800000PR227450000105831683109993-1-1  09062010600HSBC BANK BRASIL    0207201000000000012043400CC                                                                                                                                                                                                                                                                                                                                                                                           103500-1      000002
1021420930887COBR_CAUC_COR  DEDINI S/A INDUSTRIAS DE BASE           002334471000323USINA SAO TOME SA                       ROD PR 492, KM 47 ZONA RURAL BR         RONDON                                  87800000PR227450000205831675109766-4-4  09062010900HSBC BANK BRASIL    0207201000000000011658500CC                                                                                                                                                                                                                                                                                                                                                                                           103500-2      000003
1021420930887COBR_CAUC_COR  DEDINI S/A INDUSTRIAS DE BASE           007603999000293USINA BOA VISTA SA                      FAZENDA BOA VISTA ZONA RURAL BR         QUIRINOPOLIS                            75860000GO227460000105831551115821-3-3  07062010600HSBC BANK BRASIL    0207201000000000013896000CC                                                                                                                                                                                                                                                                                                                                                                                           103500-3      000004
1021420930887COBR_CAUC_COR  DEDINI S/A INDUSTRIAS DE BASE           007603999000293USINA BOA VISTA SA                      FAZENDA BOA VISTA ZONA RURAL BR         QUIRINOPOLIS                            75860000GO227460000205832132115821-5-5  07062010600HSBC BANK BRASIL    2008201000000000010422000CC                                                                                                                                                                                                                                                                                                                                                                                           103500-4      000005
1021420930887COBR_CAUC_BIC  DEDINI S/A INDUSTRIAS DE BASE           015527906003666LDC BIOENERGIA S.A.                     EST VICINAL JOSE DE SOUZA QUEIROZ F ZONALEME                                    13610970SP22747000010583164112928-1-1   02062010021CAMPINAS            0207201000000000010395000CC                                                                                                                                                                                                                                                                                                                                                                                           103500-5      000006
1021420930887COBR_CAUC_COR  DEDINI S/A INDUSTRIAS DE BASE           051466860002957SAO MARTINHO S A                        RUA USINA IRACEMA IRACEMAPOLIS BR       IRACEMAPOLIS                            13495000SP227480000105831560115818-3-3  07062010600HSBC BANK BRASIL    0207201000000000013971200CC                                                                                                                                                                                                                                                                                                                                                                                           103500-6      000007
1021420930887COBR_CAUC_COR  DEDINI S/A INDUSTRIAS DE BASE           051466860002957SAO MARTINHO S A                        RUA USINA IRACEMA IRACEMAPOLIS BR       IRACEMAPOLIS                            13495000SP227480000205832272115818-4-4  07062010600HSBC BANK BRASIL    2007201000000000010478400CC                                                                                                                                                                                                                                                                                                                                                                                           103500-7      000008
1007420931444COBR_CAUC_BIC  PLASINCO LTDA                           060398138000384PRODUQUIMICA INDUSTRIA E COMERCIO       AV. PAULISTA,1754-3O ANDAR              SAO PAULO                               01310920SP2274900001099318715579-A      16062010007PAULISTA            3107201000000000010567697CC                                                                                                                                                                                                                                                                                                                                                                                           103500-8      000009
1014421011391COBR_CAUC_BIC  CENTRAL NACIONAL DE PRODUCOES LTDA      002415583000147IGREJA MUNDIAL DO PODER DE DEUS         RUA CARNEIRO LEAO, 439                  SAO PAULO                               03015000SP2275000001042384891490/A      16062010014RIO DE JANEIRO      3009201000000000050000000CC                                                                                                                                                                                                                                                                                                                                                                                           103500-9      000010
1022141001217COBR_CAUC_BIC  BALDIN BIOENERGIA S/A                   001062529000100DULCINI S/A                             ESTR SITIO TABOAO S/N Z RURAL           PIRASSUNUNGA                            13631301SP2275100001038938038097/13     08062010021CAMPINAS            2508201000000000025000000TD                                                                                                                                                                                                                                                                                                                                                                                           103500-10     000011
1022141001217COBR_CAUC_BIC  BALDIN BIOENERGIA S/A                   001062529000100DULCINI S/A                             ESTR SITIO TABOAO S/N Z RURAL           PIRASSUNUNGA                            13631301SP2275100002038938118097/14     08062010021CAMPINAS            2608201000000000025000000TD                                                                                                                                                                                                                                                                                                                                                                                           103500-11     000012
1022141001217COBR_CAUC_BIC  BALDIN BIOENERGIA S/A                   001062529000100DULCINI S/A                             ESTR SITIO TABOAO S/N Z RURAL           PIRASSUNUNGA                            13631301SP2275100003038938208097/15     08062010021CAMPINAS            2708201000000000025000000TD                                                                                                                                                                                                                                                                                                                                                                                           103500-12     000013
1022141001217COBR_CAUC_BIC  BALDIN BIOENERGIA S/A                   001062529000100DULCINI S/A                             ESTR SITIO TABOAO S/N Z RURAL           PIRASSUNUNGA                            13631301SP2275100004038938388097/16     08062010021CAMPINAS            3008201000000000025000000TD                                                                                                                                                                                                                                                                                                                                                                                           103500-13     000014
1022141001217COBR_CAUC_BIC  BALDIN BIOENERGIA S/A                   001062529000100DULCINI S/A                             ESTR SITIO TABOAO S/N Z RURAL           PIRASSUNUNGA                            13631301SP2275100005038938468097/17     08062010021CAMPINAS            3108201000000000025000000TD                                                                                                                                                                                                                                                                                                                                                                                           103500-14     000015
1022141001217COBR_CAUC_BIC  BALDIN BIOENERGIA S/A                   001062529000100DULCINI S/A                             ESTR SITIO TABOAO S/N Z RURAL           PIRASSUNUNGA                            13631301SP2275100006038938548097/18     08062010021CAMPINAS            0109201000000000025000000TD                                                                                                                                                                                                                                                                                                                                                                                           103500-15     000016
1022141001217COBR_CAUC_BIC  BALDIN BIOENERGIA S/A                   001062529000100DULCINI S/A                             ESTR SITIO TABOAO S/N Z RURAL           PIRASSUNUNGA                            13631301SP2275100007038938628097/19     08062010021CAMPINAS            0209201000000000025000000TD                                                                                                                                                                                                                                                                                                                                                                                           103500-16     000017
1022141001217COBR_CAUC_BIC  BALDIN BIOENERGIA S/A                   001062529000100DULCINI S/A                             ESTR SITIO TABOAO S/N Z RURAL           PIRASSUNUNGA                            13631301SP2275100008038938718097/20     08062010021CAMPINAS            0309201000000000025000000TD                                                                                                                                                                                                                                                                                                                                                                                           103500-17     000018
1007421034080COBR_CAUC_BIC  SIDMEX INTERNACIONAL LTDA               045145075000107SANTO ANDRE DISTRIBUIDORA INDUSTRI      RUA CAIUBI ,60                          SANTO ANDRE                             09185610SP227520000109935401263102      16062010038ABC                 0507201000000000012462358CC                                                                                                                                                                                                                                                                                                                                                                                           103500-18     000019
9000018                                                                                                                                                                                                                                                                                                                                                                                                                                                                                                                                                                                                                                                                                                               000020
