0REMESSANOTIFICAÇÃO ELETRONICA        99999999999999Bicbanco S/A                            Avenida Brigadeiro Faria Lima           4.440     2º andar  Itaim Bibi                    São Paulo                     04538132SPBicbanco S/A                                                                    05122012                                                                                                                                                                                                                                                                                                                                                                                                000001
1038421021036DIR_CREDIT     ADELCO SISTEMAS DE ENERGIA LTDA         048600191000159MTU DO BRASIL LTDA                      VIA ANHANGUERA, KM 29 + 203 MTS         SÃO PAULO                               05275000SP3898400001                                                                                                                                          011974022           1008201100000224334500017411  05102012051902Fornecimento de equipamentos e sistema de alimentação 24VCC.                                                                                                                                                                                    061693461000181208359-1      000002
1046421006658COBR_CAUC_COR  TRANSPORTES DALCOQUIO LTDA              015179682002596RHODIA POLIAMIDA E ESPECIALIDADES       AV MARIA COELHO AGUIAR NUM 215 BAIRRO JRSAO PAULO                               05804902SP3899200001000113831201073031  27112012900BRADESCO S/A        0501201300000000016340507CC                                                                                                                                                                                                                                                                                                                                                                                           208359-2      000003
1014421008439COBR_CAUC_BIC  TV OMEGA LTDA                           029737368001433Masterfoods Brasil Alimentos Ltda.      Av. Roque Petroni Júnior - 3, 5, 999    SãoPaulo                                04707905SP38993000010455364300029101    27112012007PAULISTA            1501201300000000014224680CC                                                                                                                                                                                                                                                                                                                                                                                           208359-3      000004
1021421011958DIR_CREDIT     USINA CAROLO S/A ACUCAR E ALCOOL        023314594000100ALESAT COMBUSTIVEIS S/A                 R. MANOEL DE CASTRO, 1170               NATAL                                   59064010RN3894700001                                                                                                                                          012052471           2210201000000160732010.US.000823112012000407Venda do volume semanal de 135m³ de ETANOL ANIDRO COMBUSTÍVEL,destinadoao mercado interno,produzido na Safra 2011/2012 e 2012/2013.                                                                                                             055109474000168208359-4      000005
1050421002855COBR_CAUC_COR  C F SANTOS COM DE ALIMENTOS LTDA        004899316000118IMIFARMA PRODUTOS FARMAC. E COSMET      TV QUINTINO BOCAIUVA 381,381            BELEM                                   66053240PA390130000100000174110452      28112012900BRADESCO S/A        0501201300000000011365093CC                                                                                                                                                                                                                                                                                                                                                                                           208362-1      000006
1031421009837COBR_CAUC_COR  DIPLOMATA S/AINDL. E COMERCIAL          007534303000133COMAL COM. ATAC. DE ALIMENTOS LTDA      R MARIA GOMES DA SILVA 292 292          OLINDA                                  53370680PE3902900001050582850174194-03  04102012800UNIBANCO S/A        3011201200000000003337950CC                                                                                                                                                                                                                                                                                                                                                                                           208362-2      000007
1031421009837COBR_CAUC_COR  DIPLOMATA S/AINDL. E COMERCIAL          007534303000133COMAL COM. ATAC. DE ALIMENTOS LTDA      R MARIA GOMES DA SILVA 292 292          OLINDA                                  53370680PE3902900002050582510174195-03  04102012800UNIBANCO S/A        3011201200000000000385770CC                                                                                                                                                                                                                                                                                                                                                                                           208362-3      000008
1031421009837COBR_CAUC_COR  DIPLOMATA S/AINDL. E COMERCIAL          007534303000133COMAL COM. ATAC. DE ALIMENTOS LTDA      R MARIA GOMES DA SILVA 292 292          OLINDA                                  53370680PE3902900003051025430176301-01  08112012600UNIBANCO S/A        2612201200000000000420840CC                                                                                                                                                                                                                                                                                                                                                                                           208362-4      000009
1031421009837COBR_CAUC_COR  DIPLOMATA S/AINDL. E COMERCIAL          007534303000133COMAL COM. ATAC. DE ALIMENTOS LTDA      R MARIA GOMES DA SILVA 292 292          OLINDA                                  53370680PE3902900004051025600176301-02  08112012600UNIBANCO S/A        3112201200000000000420840CC                                                                                                                                                                                                                                                                                                                                                                                           208362-5      000010
1031421009837COBR_CAUC_COR  DIPLOMATA S/AINDL. E COMERCIAL          007534303000133COMAL COM. ATAC. DE ALIMENTOS LTDA      R MARIA GOMES DA SILVA 292 292          OLINDA                                  53370680PE3902900005051025860176301-03  08112012600UNIBANCO S/A        0401201300000000000420840CC                                                                                                                                                                                                                                                                                                                                                                                           208362-6      000011
1031421009837COBR_CAUC_COR  DIPLOMATA S/AINDL. E COMERCIAL          007534303000133COMAL COM. ATAC. DE ALIMENTOS LTDA      R MARIA GOMES DA SILVA 292 292          OLINDA                                  53370680PE3902900006051025510176303-01  08112012600UNIBANCO S/A        3112201200000000000420840CC                                                                                                                                                                                                                                                                                                                                                                                           208362-7      000012
1031421009837COBR_CAUC_COR  DIPLOMATA S/AINDL. E COMERCIAL          007534303000133COMAL COM. ATAC. DE ALIMENTOS LTDA      R MARIA GOMES DA SILVA 292 292          OLINDA                                  53370680PE3902900007051025780176303-02  08112012600UNIBANCO S/A        0401201300000000000420840CC                                                                                                                                                                                                                                                                                                                                                                                           208362-8      000013
1031421009837COBR_CAUC_COR  DIPLOMATA S/AINDL. E COMERCIAL          007534303000133COMAL COM. ATAC. DE ALIMENTOS LTDA      R MARIA GOMES DA SILVA 292 292          OLINDA                                  53370680PE3902900008051025940176303-03  08112012600UNIBANCO S/A        0901201300000000000420840CC                                                                                                                                                                                                                                                                                                                                                                                           208362-9      000014
1031421009837COBR_CAUC_BIC  DIPLOMATA S/AINDL. E COMERCIAL          001333984000195SEGALAS ALIMENTOS LTDA                  BR 470 N 4292                           BLUMENAU                                89070200SC3906400001050718260347645-01  16102012032BLUMENAU            2012201200000000007236000CC                                                                                                                                                                                                                                                                                                                                                                                           208362-10     000015
1031421009837COBR_CAUC_BIC  DIPLOMATA S/AINDL. E COMERCIAL          015729989000146ADR DISTRIBUIDORA DE ALIMENTOS LTD      RUA CORONEL OLIVEIRA 39                 RECIFE                                  50830430PE3906300001050660080174677-01  10102012010RECIFE              0312201200000000002016120CC                                                                                                                                                                                                                                                                                                                                                                                           208362-11     000016
1031421009837COBR_CAUC_BIC  DIPLOMATA S/AINDL. E COMERCIAL          015729989000146ADR DISTRIBUIDORA DE ALIMENTOS LTD      RUA CORONEL OLIVEIRA 39                 RECIFE                                  50830430PE3906300002050660160174677-02  10102012010RECIFE              0712201200000000002016120CC                                                                                                                                                                                                                                                                                                                                                                                           208362-12     000017
1031421009837COBR_CAUC_BIC  DIPLOMATA S/AINDL. E COMERCIAL          015729989000146ADR DISTRIBUIDORA DE ALIMENTOS LTD      RUA CORONEL OLIVEIRA 39                 RECIFE                                  50830430PE3906300003050660240174677-03  10102012010RECIFE              1312201200000000002016120CC                                                                                                                                                                                                                                                                                                                                                                                           208362-13     000018
1031421009837COBR_CAUC_BIC  DIPLOMATA S/AINDL. E COMERCIAL          009418012000105TREND COMERCIO DE PRODUTOS ALIMENT      RUA DOUTOR OSVALDO ANHERT 00            CAMPINAS                                13034195SP3906200001050512050344273-02  24092012021CAMPINAS            1001201300000000005940000CC                                                                                                                                                                                                                                                                                                                                                                                           208362-14     000019
1031421009837COBR_CAUC_BIC  DIPLOMATA S/AINDL. E COMERCIAL          008969770000159RIO QUALITY COM. DE ALIM.LTDA           RUA HERCULANO PINHEIRO 1045 1045        RIO DE JANEIRO                          21532440RJ3906100001051102280351355-01  16112012014RIO DE JANEIRO      1712201200000000004897800CC                                                                                                                                                                                                                                                                                                                                                                                           208362-15     000020
1031421009837COBR_CAUC_BIC  DIPLOMATA S/AINDL. E COMERCIAL          027833615000155PRINCESA AUTO SERV.COMESTIVEIS LTD      RUA DO FEIJAO, 684                      RIO DE JANEIRO                          21011050RJ3906000001050748250175758-01  25102012014RIO DE JANEIRO      0712201200000000004894290CC                                                                                                                                                                                                                                                                                                                                                                                           208362-16     000021
1031421009837COBR_CAUC_BIC  DIPLOMATA S/AINDL. E COMERCIAL          008960738000102RJ INDUSTRIA COM E ARMAZ DE ALIMEN      RUA DA MATRIZ 274                       SALVADOR                                41300600BA3905900001050635130174575-03  09102012013SALVADOR            0112201200000000000365730CC                                                                                                                                                                                                                                                                                                                                                                                           208362-17     000022
1031421009837COBR_CAUC_BIC  DIPLOMATA S/AINDL. E COMERCIAL          008960738000102RJ INDUSTRIA COM E ARMAZ DE ALIMEN      RUA DA MATRIZ 274                       SALVADOR                                41300600BA3905900002050635480174577-02  09102012013SALVADOR            0312201200000000000368736CC                                                                                                                                                                                                                                                                                                                                                                                           208362-18     000023
1031421009837COBR_CAUC_BIC  DIPLOMATA S/AINDL. E COMERCIAL          008960738000102RJ INDUSTRIA COM E ARMAZ DE ALIMEN      RUA DA MATRIZ 274                       SALVADOR                                41300600BA3905900003050635640174577-03  09102012013SALVADOR            0712201200000000000368736CC                                                                                                                                                                                                                                                                                                                                                                                           208362-19     000024
1031421009837COBR_CAUC_BIC  DIPLOMATA S/AINDL. E COMERCIAL          008960738000102RJ INDUSTRIA COM E ARMAZ DE ALIMEN      RUA DA MATRIZ 274                       SALVADOR                                41300600BA3905900004050635300346639-01  09102012013SALVADOR            3011201200000000000368736CC                                                                                                                                                                                                                                                                                                                                                                                           208362-20     000025
1031421009837COBR_CAUC_BIC  DIPLOMATA S/AINDL. E COMERCIAL          008960738000102RJ INDUSTRIA COM E ARMAZ DE ALIMEN      RUA DA MATRIZ 274                       SALVADOR                                41300600BA3905900005050635560346639-02  09102012013SALVADOR            0612201200000000000368736CC                                                                                                                                                                                                                                                                                                                                                                                           208362-21     000026
1031421009837COBR_CAUC_BIC  DIPLOMATA S/AINDL. E COMERCIAL          008960738000102RJ INDUSTRIA COM E ARMAZ DE ALIMEN      RUA DA MATRIZ 274                       SALVADOR                                41300600BA3905900006050635720346639-03  09102012013SALVADOR            1112201200000000000368736CC                                                                                                                                                                                                                                                                                                                                                                                           208362-22     000027
1031421009837COBR_CAUC_BIC  DIPLOMATA S/AINDL. E COMERCIAL          008960738000102RJ INDUSTRIA COM E ARMAZ DE ALIMEN      RUA DA MATRIZ 274                       SALVADOR                                41300600BA3905900007050865560349954-01  01112012013SALVADOR            1412201200000000000352704CC                                                                                                                                                                                                                                                                                                                                                                                           208362-23     000028
1031421009837COBR_CAUC_BIC  DIPLOMATA S/AINDL. E COMERCIAL          008960738000102RJ INDUSTRIA COM E ARMAZ DE ALIMEN      RUA DA MATRIZ 274                       SALVADOR                                41300600BA3905900008050865720349954-02  01112012013SALVADOR            2012201200000000000352704CC                                                                                                                                                                                                                                                                                                                                                                                           208362-24     000029
1031421009837COBR_CAUC_BIC  DIPLOMATA S/AINDL. E COMERCIAL          008960738000102RJ INDUSTRIA COM E ARMAZ DE ALIMEN      RUA DA MATRIZ 274                       SALVADOR                                41300600BA3905900009050865990349954-03  01112012013SALVADOR            2512201200000000000352704CC                                                                                                                                                                                                                                                                                                                                                                                           208362-25     000030
1031421009837COBR_CAUC_BIC  DIPLOMATA S/AINDL. E COMERCIAL          008960738000102RJ INDUSTRIA COM E ARMAZ DE ALIMEN      RUA DA MATRIZ 274                       SALVADOR                                41300600BA3905900010050865640349955-01  01112012013SALVADOR            1912201200000000000352704CC                                                                                                                                                                                                                                                                                                                                                                                           208362-26     000031
1031421009837COBR_CAUC_BIC  DIPLOMATA S/AINDL. E COMERCIAL          008960738000102RJ INDUSTRIA COM E ARMAZ DE ALIMEN      RUA DA MATRIZ 274                       SALVADOR                                41300600BA3905900011050865810349955-02  01112012013SALVADOR            2412201200000000000352704CC                                                                                                                                                                                                                                                                                                                                                                                           208362-27     000032
1031421009837COBR_CAUC_BIC  DIPLOMATA S/AINDL. E COMERCIAL          008960738000102RJ INDUSTRIA COM E ARMAZ DE ALIMEN      RUA DA MATRIZ 274                       SALVADOR                                41300600BA3905900012050866020349955-03  01112012013SALVADOR            2812201200000000000352704CC                                                                                                                                                                                                                                                                                                                                                                                           208362-28     000033
1031421009837COBR_CAUC_BIC  DIPLOMATA S/AINDL. E COMERCIAL          007158073000155PERALTA DISTRIBUIDORA DE ALIMENTOS      ESTRADA DE LIGAÇÃO, 24,8 KM 23,4 ANHANGUSAO PAULO                               05280000SP3905800001051103680176727-01  16112012007PAULISTA            1212201200000000004258200CC                                                                                                                                                                                                                                                                                                                                                                                           208362-29     000034
1031421009837COBR_CAUC_BIC  DIPLOMATA S/AINDL. E COMERCIAL          001990619000153CEVISKO ALIMENTOS LTDA                  RUA SEBATIÃO SOUZA CAMPOS, 334          MOGI-MIRIM                              13807506SP3905700001050812010349712-01  30102012021CAMPINAS            0712201200000000003256200CC                                                                                                                                                                                                                                                                                                                                                                                           208362-30     000035
1031421009837COBR_CAUC_COR  DIPLOMATA S/AINDL. E COMERCIAL          008797179000161DSG - DISTRIBUIDORA DE ALIMENTOS L      RUA SALATIEL MARQUES FONTES 695         SOUSA                                   85806410PB3905600001050747010175618-01  24102012900BRADESCO S/A        0712201200000000000350700CC                                                                                                                                                                                                                                                                                                                                                                                           208362-31     000036
1031421009837COBR_CAUC_COR  DIPLOMATA S/AINDL. E COMERCIAL          008797179000161DSG - DISTRIBUIDORA DE ALIMENTOS L      RUA SALATIEL MARQUES FONTES 695         SOUSA                                   85806410PB3905600002050747280175618-02  24102012900BRADESCO S/A        1312201200000000000350700CC                                                                                                                                                                                                                                                                                                                                                                                           208362-32     000037
1031421009837COBR_CAUC_COR  DIPLOMATA S/AINDL. E COMERCIAL          008797179000161DSG - DISTRIBUIDORA DE ALIMENTOS L      RUA SALATIEL MARQUES FONTES 695         SOUSA                                   85806410PB3905600003050747520175618-03  24102012900BRADESCO S/A        1812201200000000000350700CC                                                                                                                                                                                                                                                                                                                                                                                           208362-33     000038
1031421009837COBR_CAUC_COR  DIPLOMATA S/AINDL. E COMERCIAL          008797179000161DSG - DISTRIBUIDORA DE ALIMENTOS L      RUA SALATIEL MARQUES FONTES 695         SOUSA                                   85806410PB3905600004050746980175620-01  24102012900BRADESCO S/A        1812201200000000000350700CC                                                                                                                                                                                                                                                                                                                                                                                           208362-34     000039
1031421009837COBR_CAUC_COR  DIPLOMATA S/AINDL. E COMERCIAL          008797179000161DSG - DISTRIBUIDORA DE ALIMENTOS L      RUA SALATIEL MARQUES FONTES 695         SOUSA                                   85806410PB3905600005050747100175620-02  24102012900BRADESCO S/A        2412201200000000000350700CC                                                                                                                                                                                                                                                                                                                                                                                           208362-35     000040
1031421009837COBR_CAUC_COR  DIPLOMATA S/AINDL. E COMERCIAL          008797179000161DSG - DISTRIBUIDORA DE ALIMENTOS L      RUA SALATIEL MARQUES FONTES 695         SOUSA                                   85806410PB3905600006050747440175620-03  24102012900BRADESCO S/A        2812201200000000000350700CC                                                                                                                                                                                                                                                                                                                                                                                           208362-36     000041
1031421009837COBR_CAUC_COR  DIPLOMATA S/AINDL. E COMERCIAL          008797179000161DSG - DISTRIBUIDORA DE ALIMENTOS L      RUA SALATIEL MARQUES FONTES 695         SOUSA                                   85806410PB3905600007050747360175622-01  24102012900BRADESCO S/A        1412201200000000000350700CC                                                                                                                                                                                                                                                                                                                                                                                           208362-37     000042
1031421009837COBR_CAUC_COR  DIPLOMATA S/AINDL. E COMERCIAL          008797179000161DSG - DISTRIBUIDORA DE ALIMENTOS L      RUA SALATIEL MARQUES FONTES 695         SOUSA                                   85806410PB3905600008050747610175622-02  24102012900BRADESCO S/A        2012201200000000000350700CC                                                                                                                                                                                                                                                                                                                                                                                           208362-38     000043
1031421009837COBR_CAUC_COR  DIPLOMATA S/AINDL. E COMERCIAL          008797179000161DSG - DISTRIBUIDORA DE ALIMENTOS L      RUA SALATIEL MARQUES FONTES 695         SOUSA                                   85806410PB3905600009050747790175622-03  24102012900BRADESCO S/A        2512201200000000000350700CC                                                                                                                                                                                                                                                                                                                                                                                           208362-39     000044
1031421009837COBR_CAUC_COR  DIPLOMATA S/AINDL. E COMERCIAL          002330475000171G.DE OLIVEIRA PINTO                     R. PROJETADA, 30 BR 304 KM 30           MOSSORO                                 59614470RN3905500001050657700347490-03  15102012800UNIBANCO S/A        3011201200000000000340680CC                                                                                                                                                                                                                                                                                                                                                                                           208362-40     000045
1031421009837COBR_CAUC_COR  DIPLOMATA S/AINDL. E COMERCIAL          002330475000171G.DE OLIVEIRA PINTO                     R. PROJETADA, 30 BR 304 KM 30           MOSSORO                                 59614470RN3905500002050658000347491-03  15102012800UNIBANCO S/A        3011201200000000002520000CC                                                                                                                                                                                                                                                                                                                                                                                           208362-41     000046
1031421009837COBR_CAUC_COR  DIPLOMATA S/AINDL. E COMERCIAL          002330475000171G.DE OLIVEIRA PINTO                     R. PROJETADA, 30 BR 304 KM 30           MOSSORO                                 59614470RN3905500003050661050347492-03  15102012800UNIBANCO S/A        3011201200000000000280560CC                                                                                                                                                                                                                                                                                                                                                                                           208362-42     000047
1031421009837COBR_CAUC_BIC  DIPLOMATA S/AINDL. E COMERCIAL          002478344000136MERCADO DE CARNES M P C G LTDA          AV PRESIDENTE TANCREDO NEVES 953        DUQUE DE CAXIAS                         25070096RJ3905400001050748170175757-02  25102012014RIO DE JANEIRO      0612201200000000000652050CC                                                                                                                                                                                                                                                                                                                                                                                           208362-43     000048
1031421009837COBR_CAUC_BIC  DIPLOMATA S/AINDL. E COMERCIAL          002478344000136MERCADO DE CARNES M P C G LTDA          AV PRESIDENTE TANCREDO NEVES 953        DUQUE DE CAXIAS                         25070096RJ3905400002051101710176042-01  06112012014RIO DE JANEIRO      0312201200000000000896040CC                                                                                                                                                                                                                                                                                                                                                                                           208362-44     000049
1031421009837COBR_CAUC_BIC  DIPLOMATA S/AINDL. E COMERCIAL          002478344000136MERCADO DE CARNES M P C G LTDA          AV PRESIDENTE TANCREDO NEVES 953        DUQUE DE CAXIAS                         25070096RJ3905400003051101800176042-02  06112012014RIO DE JANEIRO      1012201200000000000896040CC                                                                                                                                                                                                                                                                                                                                                                                           208362-45     000050
1031421009837COBR_CAUC_BIC  DIPLOMATA S/AINDL. E COMERCIAL          006240281000136MAR AZUL DIST .IMP.E EXPORT. LTDA       AV DURVAL DE GOES MONTEIRO 6115         MACEIO                                  57062280AL3905300001050622150174419-01  08102012017MACEIO              0312201200000000000385770CC                                                                                                                                                                                                                                                                                                                                                                                           208362-46     000051
1031421009837COBR_CAUC_BIC  DIPLOMATA S/AINDL. E COMERCIAL          006240281000136MAR AZUL DIST .IMP.E EXPORT. LTDA       AV DURVAL DE GOES MONTEIRO 6115         MACEIO                                  57062280AL3905300002050622310174419-02  08102012017MACEIO              0712201200000000000385770CC                                                                                                                                                                                                                                                                                                                                                                                           208362-47     000052
1031421009837COBR_CAUC_BIC  DIPLOMATA S/AINDL. E COMERCIAL          006240281000136MAR AZUL DIST .IMP.E EXPORT. LTDA       AV DURVAL DE GOES MONTEIRO 6115         MACEIO                                  57062280AL3905300003050622580174419-03  08102012017MACEIO              1212201200000000000385770CC                                                                                                                                                                                                                                                                                                                                                                                           208362-48     000053
1031421009837COBR_CAUC_BIC  DIPLOMATA S/AINDL. E COMERCIAL          006240281000136MAR AZUL DIST .IMP.E EXPORT. LTDA       AV DURVAL DE GOES MONTEIRO 6115         MACEIO                                  57062280AL3905300004050622230346415-01  08102012017MACEIO              0712201200000000000385770CC                                                                                                                                                                                                                                                                                                                                                                                           208362-49     000054
1031421009837COBR_CAUC_BIC  DIPLOMATA S/AINDL. E COMERCIAL          006240281000136MAR AZUL DIST .IMP.E EXPORT. LTDA       AV DURVAL DE GOES MONTEIRO 6115         MACEIO                                  57062280AL3905300005050622400346415-02  08102012017MACEIO              1212201200000000000385770CC                                                                                                                                                                                                                                                                                                                                                                                           208362-50     000055
1031421009837COBR_CAUC_BIC  DIPLOMATA S/AINDL. E COMERCIAL          006240281000136MAR AZUL DIST .IMP.E EXPORT. LTDA       AV DURVAL DE GOES MONTEIRO 6115         MACEIO                                  57062280AL3905300006050622660346415-03  08102012017MACEIO              1712201200000000000385770CC                                                                                                                                                                                                                                                                                                                                                                                           208362-51     000056
1031421009837COBR_CAUC_BIC  DIPLOMATA S/AINDL. E COMERCIAL          081433765000389PEDRO MUFFATTO & CIA LTDA               ROD. BR 277 -KM- 598                    CASCAVEL                                85804200PR3905200001051099390176499-01  12112012016CURITIBA            1012201200000000001696086CC                                                                                                                                                                                                                                                                                                                                                                                           208362-52     000057
1031421009837COBR_CAUC_COR  DIPLOMATA S/AINDL. E COMERCIAL          000981411000105SPF DO BRASIL IND. E COM. LTDA          ROD. SP 215,KM 112,5 SN                 DESCALVADO                              13690970SP3905100001051103410176682-01  15112012800UNIBANCO S/A        1312201200000000000780000CC                                                                                                                                                                                                                                                                                                                                                                                           208362-53     000058
1031421009837COBR_CAUC_COR  DIPLOMATA S/AINDL. E COMERCIAL          000981411000105SPF DO BRASIL IND. E COM. LTDA          ROD. SP 215,KM 112,5 SN                 DESCALVADO                              13690970SP3905100002051103500176683-01  15112012800UNIBANCO S/A        1312201200000000000780000CC                                                                                                                                                                                                                                                                                                                                                                                           208362-54     000059
1031421009837COBR_CAUC_COR  DIPLOMATA S/AINDL. E COMERCIAL          076111335000149GRANJA ECONOMICA AVICOLA LTDA           RUA CATANDUVAS, 333                     CARAMBEI                                84145000PR3905000001051109020017994-01  09112012800UNIBANCO S/A        1012201200000000001400000CC                                                                                                                                                                                                                                                                                                                                                                                           208362-55     000060
1031421009837COBR_CAUC_BIC  DIPLOMATA S/AINDL. E COMERCIAL          009531776000102VTF ALIMENTOS LTDA - EPP                RUA NOEMIA DE QUEIROZ TELES DA FONSECA 1JUNDIAI                                 13206180SP3904900001050811800003428-01  30102012007PAULISTA            0312201200000000000987840CC                                                                                                                                                                                                                                                                                                                                                                                           208362-56     000061
1031421009837COBR_CAUC_BIC  DIPLOMATA S/AINDL. E COMERCIAL          004484639000140IDEIAS E SABOR ALIMENTOS LTDA           NOEMIA DE QUEIROZ T.FONSECA 104         JUNDIAI                                 13206180SP3904800001050811980003427-01  30102012007PAULISTA            0312201200000000000987840CC                                                                                                                                                                                                                                                                                                                                                                                           208362-57     000062
1031421009837COBR_CAUC_BIC  DIPLOMATA S/AINDL. E COMERCIAL          031210180001565GERMANS DISTR. DE PROD.COMEST. LTD      RUA CORDOVIL 1000                       RIO DE JANEIRO                          21250450RJ3904700001050810820349655-01  30102012014RIO DE JANEIRO      1012201200000000000979200CC                                                                                                                                                                                                                                                                                                                                                                                           208362-58     000063
1031421009837COBR_CAUC_BIC  DIPLOMATA S/AINDL. E COMERCIAL          003925746000102QUEM VEM EM MURY GAMA SUPERMERCADO      AV MANOEL CARNEIRO DE MENEZES 4329      NOVA FRIBURGO                           28615060RJ3904600001051102100350577-02  06112012014RIO DE JANEIRO      3011201200000000000619350CC                                                                                                                                                                                                                                                                                                                                                                                           208362-59     000064
1031421009837COBR_CAUC_BIC  DIPLOMATA S/AINDL. E COMERCIAL          011270328000144BOVMEAT PROCESSADORA DE CARNES E D      ESTRADA DO LUPPI SN                     ITAPIRA                                 13970260SP3904500001050811630003399-03  30102012021CAMPINAS            0412201200000000000288000CC                                                                                                                                                                                                                                                                                                                                                                                           208362-60     000065
1031421009837COBR_CAUC_BIC  DIPLOMATA S/AINDL. E COMERCIAL          076085125000123POLINA E CIA LTDA                       AVENIDA BRASIL 2232                     CASCAVEL                                85816290PR3904400001051109110176708-01  16112012016CURITIBA            1012201200000000000246960CC                                                                                                                                                                                                                                                                                                                                                                                           208362-61     000066
1031421009837COBR_CAUC_BIC  DIPLOMATA S/AINDL. E COMERCIAL          075315333012620ATACADAO DISTRIBUICAO COM.E IND.LT      AV.MORVAN DIAS DE FIGUEIREDO 6169       SAO PAULO                               02170901SP3904300001051101210003856-01  06112012007PAULISTA            0201201300000000001368000CC                                                                                                                                                                                                                                                                                                                                                                                           208362-62     000067
1031421009837COBR_CAUC_BIC  DIPLOMATA S/AINDL. E COMERCIAL          075315333012620ATACADAO DISTRIBUICAO COM.E IND.LT      AV.MORVAN DIAS DE FIGUEIREDO 6169       SAO PAULO                               02170901SP3904300002051101390003857-01  06112012007PAULISTA            0201201300000000003077640CC                                                                                                                                                                                                                                                                                                                                                                                           208362-63     000068
1031421009837COBR_CAUC_BIC  DIPLOMATA S/AINDL. E COMERCIAL          075315333012620ATACADAO DISTRIBUICAO COM.E IND.LT      AV.MORVAN DIAS DE FIGUEIREDO 6169       SAO PAULO                               02170901SP3904300003051099630003858-01  06112012007PAULISTA            0201201300000000003609000CC                                                                                                                                                                                                                                                                                                                                                                                           208362-64     000069
1031421009837COBR_CAUC_BIC  DIPLOMATA S/AINDL. E COMERCIAL          075315333012620ATACADAO DISTRIBUICAO COM.E IND.LT      AV.MORVAN DIAS DE FIGUEIREDO 6169       SAO PAULO                               02170901SP3904300004051099550003859-01  06112012007PAULISTA            0201201300000000003609000CC                                                                                                                                                                                                                                                                                                                                                                                           208362-65     000070
1031421009837COBR_CAUC_BIC  DIPLOMATA S/AINDL. E COMERCIAL          075315333012620ATACADAO DISTRIBUICAO COM.E IND.LT      AV.MORVAN DIAS DE FIGUEIREDO 6169       SAO PAULO                               02170901SP3904300005051100740003860-01  06112012007PAULISTA            0201201300000000005318640CC                                                                                                                                                                                                                                                                                                                                                                                           208362-66     000071
1031421009837COBR_CAUC_BIC  DIPLOMATA S/AINDL. E COMERCIAL          075315333012620ATACADAO DISTRIBUICAO COM.E IND.LT      AV.MORVAN DIAS DE FIGUEIREDO 6169       SAO PAULO                               02170901SP3904300006051101040003861-01  06112012007PAULISTA            0201201300000000003361500CC                                                                                                                                                                                                                                                                                                                                                                                           208362-67     000072
1031421009837COBR_CAUC_BIC  DIPLOMATA S/AINDL. E COMERCIAL          075315333012620ATACADAO DISTRIBUICAO COM.E IND.LT      AV.MORVAN DIAS DE FIGUEIREDO 6169       SAO PAULO                               02170901SP3904300007051101120003862-01  06112012007PAULISTA            0201201300000000003361500CC                                                                                                                                                                                                                                                                                                                                                                                           208362-68     000073
1031421009837COBR_CAUC_BIC  DIPLOMATA S/AINDL. E COMERCIAL          075315333012620ATACADAO DISTRIBUICAO COM.E IND.LT      AV.MORVAN DIAS DE FIGUEIREDO 6169       SAO PAULO                               02170901SP3904300008051103330003863-01  06112012007PAULISTA            0701201300000000008680140CC                                                                                                                                                                                                                                                                                                                                                                                           208362-69     000074
1031421009837COBR_CAUC_BIC  DIPLOMATA S/AINDL. E COMERCIAL          075315333012620ATACADAO DISTRIBUICAO COM.E IND.LT      AV.MORVAN DIAS DE FIGUEIREDO 6169       SAO PAULO                               02170901SP3904300009051100910003864-01  06112012007PAULISTA            0801201300000000002076660CC                                                                                                                                                                                                                                                                                                                                                                                           208362-70     000075
1031421009837COBR_CAUC_BIC  DIPLOMATA S/AINDL. E COMERCIAL          075315333012620ATACADAO DISTRIBUICAO COM.E IND.LT      AV.MORVAN DIAS DE FIGUEIREDO 6169       SAO PAULO                               02170901SP3904300010051100820003865-01  06112012007PAULISTA            0801201300000000001247490CC                                                                                                                                                                                                                                                                                                                                                                                           208362-71     000076
1031421009837COBR_CAUC_BIC  DIPLOMATA S/AINDL. E COMERCIAL          075315333012620ATACADAO DISTRIBUICAO COM.E IND.LT      AV.MORVAN DIAS DE FIGUEIREDO 6169       SAO PAULO                               02170901SP3904300011051099470003867-01  06112012007PAULISTA            0801201300000000003609000CC                                                                                                                                                                                                                                                                                                                                                                                           208362-72     000077
1031421009837COBR_CAUC_BIC  DIPLOMATA S/AINDL. E COMERCIAL          075315333012620ATACADAO DISTRIBUICAO COM.E IND.LT      AV.MORVAN DIAS DE FIGUEIREDO 6169       SAO PAULO                               02170901SP3904300012051103250003868-01  06112012007PAULISTA            0801201300000000001368000CC                                                                                                                                                                                                                                                                                                                                                                                           208362-73     000078
1031421009837COBR_CAUC_BIC  DIPLOMATA S/AINDL. E COMERCIAL          003835761000151COMCARNE COML DE CARNES LTDA            RUA GENERAL ARTUR CARVALHO320           SAO LUIS                                65066320MA3904200001051100150176724-01  16112012042SAO LUIS            1412201200000000003690000CC                                                                                                                                                                                                                                                                                                                                                                                           208362-74     000079
1031421009837COBR_CAUC_BIC  DIPLOMATA S/AINDL. E COMERCIAL          003835761000151COMCARNE COML DE CARNES LTDA            RUA GENERAL ARTUR CARVALHO320           SAO LUIS                                65066320MA3904200002051100230176724-02  16112012042SAO LUIS            1912201200000000003690000CC                                                                                                                                                                                                                                                                                                                                                                                           208362-75     000080
1031421009837COBR_CAUC_BIC  DIPLOMATA S/AINDL. E COMERCIAL          003835761000151COMCARNE COML DE CARNES LTDA            RUA GENERAL ARTUR CARVALHO320           SAO LUIS                                65066320MA3904200003051100310176724-03  16112012042SAO LUIS            2412201200000000003690000CC                                                                                                                                                                                                                                                                                                                                                                                           208362-76     000081
1031421009837COBR_CAUC_BIC  DIPLOMATA S/AINDL. E COMERCIAL          003835761000151COMCARNE COML DE CARNES LTDA            RUA GENERAL ARTUR CARVALHO320           SAO LUIS                                65066320MA3904200004051099710176725-01  16112012042SAO LUIS            1412201200000000000410820CC                                                                                                                                                                                                                                                                                                                                                                                           208362-77     000082
1031421009837COBR_CAUC_BIC  DIPLOMATA S/AINDL. E COMERCIAL          003835761000151COMCARNE COML DE CARNES LTDA            RUA GENERAL ARTUR CARVALHO320           SAO LUIS                                65066320MA3904200005051099800176725-02  16112012042SAO LUIS            1912201200000000000410820CC                                                                                                                                                                                                                                                                                                                                                                                           208362-78     000083
1031421009837COBR_CAUC_BIC  DIPLOMATA S/AINDL. E COMERCIAL          003835761000151COMCARNE COML DE CARNES LTDA            RUA GENERAL ARTUR CARVALHO320           SAO LUIS                                65066320MA3904200006051099980176725-03  16112012042SAO LUIS            2412201200000000000410820CC                                                                                                                                                                                                                                                                                                                                                                                           208362-79     000084
1031421009837COBR_CAUC_BIC  DIPLOMATA S/AINDL. E COMERCIAL          003835761000151COMCARNE COML DE CARNES LTDA            RUA GENERAL ARTUR CARVALHO320           SAO LUIS                                65066320MA3904200007051099040176726-01  16112012042SAO LUIS            1412201200000000000521040CC                                                                                                                                                                                                                                                                                                                                                                                           208362-80     000085
1031421009837COBR_CAUC_BIC  DIPLOMATA S/AINDL. E COMERCIAL          003835761000151COMCARNE COML DE CARNES LTDA            RUA GENERAL ARTUR CARVALHO320           SAO LUIS                                65066320MA3904200008051099120176726-02  16112012042SAO LUIS            1912201200000000000521040CC                                                                                                                                                                                                                                                                                                                                                                                           208362-81     000086
1031421009837COBR_CAUC_BIC  DIPLOMATA S/AINDL. E COMERCIAL          003835761000151COMCARNE COML DE CARNES LTDA            RUA GENERAL ARTUR CARVALHO320           SAO LUIS                                65066320MA3904200009051099210176726-03  16112012042SAO LUIS            2412201200000000000521040CC                                                                                                                                                                                                                                                                                                                                                                                           208362-82     000087
1031421009837COBR_CAUC_BIC  DIPLOMATA S/AINDL. E COMERCIAL          003835761000151COMCARNE COML DE CARNES LTDA            RUA GENERAL ARTUR CARVALHO320           SAO LUIS                                65066320MA3904200010051100400176729-01  16112012042SAO LUIS            1112201200000000003988200CC                                                                                                                                                                                                                                                                                                                                                                                           208362-83     000088
1031421009837COBR_CAUC_BIC  DIPLOMATA S/AINDL. E COMERCIAL          003835761000151COMCARNE COML DE CARNES LTDA            RUA GENERAL ARTUR CARVALHO320           SAO LUIS                                65066320MA3904200011051100580176729-02  16112012042SAO LUIS            1712201200000000003988200CC                                                                                                                                                                                                                                                                                                                                                                                           208362-84     000089
1031421009837COBR_CAUC_BIC  DIPLOMATA S/AINDL. E COMERCIAL          003835761000151COMCARNE COML DE CARNES LTDA            RUA GENERAL ARTUR CARVALHO320           SAO LUIS                                65066320MA3904200012051100660176729-03  16112012042SAO LUIS            2112201200000000003988200CC                                                                                                                                                                                                                                                                                                                                                                                           208362-85     000090
1031421009837COBR_CAUC_BIC  DIPLOMATA S/AINDL. E COMERCIAL          003835761000151COMCARNE COML DE CARNES LTDA            RUA GENERAL ARTUR CARVALHO320           SAO LUIS                                65066320MA3904200013051100070176730-01  16112012042SAO LUIS            1112201200000000000460920CC                                                                                                                                                                                                                                                                                                                                                                                           208362-86     000091
1031421009837COBR_CAUC_BIC  DIPLOMATA S/AINDL. E COMERCIAL          003835761000151COMCARNE COML DE CARNES LTDA            RUA GENERAL ARTUR CARVALHO320           SAO LUIS                                65066320MA3904200014051098820176730-02  16112012042SAO LUIS            1712201200000000000460920CC                                                                                                                                                                                                                                                                                                                                                                                           208362-87     000092
1031421009837COBR_CAUC_BIC  DIPLOMATA S/AINDL. E COMERCIAL          003835761000151COMCARNE COML DE CARNES LTDA            RUA GENERAL ARTUR CARVALHO320           SAO LUIS                                65066320MA3904200015051098910176730-03  16112012042SAO LUIS            2112201200000000000460920CC                                                                                                                                                                                                                                                                                                                                                                                           208362-88     000093
1031421009837COBR_CAUC_BIC  DIPLOMATA S/AINDL. E COMERCIAL          010887961000113MAYARA COMERCIO DE GENEROS ALIMENT      AV NELORE 200                           CABO FRIO                               28910420RJ3904100001050866110003532-01  31102012014RIO DE JANEIRO      1412201200000000009936360CC                                                                                                                                                                                                                                                                                                                                                                                           208362-89     000094
1031421009837COBR_CAUC_BIC  DIPLOMATA S/AINDL. E COMERCIAL          010887961000113MAYARA COMERCIO DE GENEROS ALIMENT      AV NELORE 200                           CABO FRIO                               28910420RJ3904100002050621850174463-01  09102012014RIO DE JANEIRO      0412201200000000006030000CC                                                                                                                                                                                                                                                                                                                                                                                           208362-90     000095
1031421009837COBR_CAUC_BIC  DIPLOMATA S/AINDL. E COMERCIAL          010887961000113MAYARA COMERCIO DE GENEROS ALIMENT      AV NELORE 200                           CABO FRIO                               28910420RJ3904100003051101630176105-01  07112012014RIO DE JANEIRO      2512201200000000006633000CC                                                                                                                                                                                                                                                                                                                                                                                           208362-91     000096
1031421009837COBR_CAUC_BIC  DIPLOMATA S/AINDL. E COMERCIAL          010948378000175COMERCIAL DE ALIMENTOS VITORIA LTD      RUA DO ARROZ 76                         RIO DE JANEIRO                          21011070RJ3904000001050624280174461-03  09102012014RIO DE JANEIRO      0412201200000000003645000CC                                                                                                                                                                                                                                                                                                                                                                                           208362-92     000097
1031421009837COBR_CAUC_BIC  DIPLOMATA S/AINDL. E COMERCIAL          010948378000175COMERCIAL DE ALIMENTOS VITORIA LTD      RUA DO ARROZ 76                         RIO DE JANEIRO                          21011070RJ3904000002051102360176025-01  06112012014RIO DE JANEIRO      1412201200000000003735000CC                                                                                                                                                                                                                                                                                                                                                                                           208362-93     000098
1031421009837COBR_CAUC_BIC  DIPLOMATA S/AINDL. E COMERCIAL          010948378000175COMERCIAL DE ALIMENTOS VITORIA LTD      RUA DO ARROZ 76                         RIO DE JANEIRO                          21011070RJ3904000003051102440176025-02  06112012014RIO DE JANEIRO      1912201200000000003735000CC                                                                                                                                                                                                                                                                                                                                                                                           208362-94     000099
1031421009837COBR_CAUC_BIC  DIPLOMATA S/AINDL. E COMERCIAL          010948378000175COMERCIAL DE ALIMENTOS VITORIA LTD      RUA DO ARROZ 76                         RIO DE JANEIRO                          21011070RJ3904000004051102520176025-03  06112012014RIO DE JANEIRO      2412201200000000003735000CC                                                                                                                                                                                                                                                                                                                                                                                           208362-95     000100
1031421009837COBR_CAUC_BIC  DIPLOMATA S/AINDL. E COMERCIAL          001693848000297VERDINI MEIRELES REPRESENTACOES LT      RUA DO FEIJAO530 530                    RIO DE JANEIRO                          21011050RJ3903600001051102610176020-01  06112012014RIO DE JANEIRO      2112201200000000005130000CC                                                                                                                                                                                                                                                                                                                                                                                           208362-96     000101
1031421009837COBR_CAUC_BIC  DIPLOMATA S/AINDL. E COMERCIAL          001693848000297VERDINI MEIRELES REPRESENTACOES LT      RUA DO FEIJAO530 530                    RIO DE JANEIRO                          21011050RJ3903600002051102790176020-02  06112012014RIO DE JANEIRO      2512201200000000005130000CC                                                                                                                                                                                                                                                                                                                                                                                           208362-97     000102
1031421009837COBR_CAUC_BIC  DIPLOMATA S/AINDL. E COMERCIAL          001333984000195SEGALAS ALIMENTOS LTDA                  BR 470 N 4292                           BLUMENAU                                89070200SC3903400001050517520345038-01  28092012032BLUMENAU            1912201200000000007920000CC                                                                                                                                                                                                                                                                                                                                                                                           208362-98     000103
1031421009837COBR_CAUC_COR  DIPLOMATA S/AINDL. E COMERCIAL          010535064000140MAX ALIMENTOS LTDA                      AV AYRON WELLINGTON DE ANDRADE 7        BEZERROS                                55660000PE3903300001050675190175297-02  18102012900BRADESCO S/A        0412201200000000000390780CC                                                                                                                                                                                                                                                                                                                                                                                           208362-99     000104
1031421009837COBR_CAUC_COR  DIPLOMATA S/AINDL. E COMERCIAL          010535064000140MAX ALIMENTOS LTDA                      AV AYRON WELLINGTON DE ANDRADE 7        BEZERROS                                55660000PE3903300002050675270175297-03  18102012900BRADESCO S/A        1012201200000000000390780CC                                                                                                                                                                                                                                                                                                                                                                                           208362-100    000105
1031421009837COBR_CAUC_COR  DIPLOMATA S/AINDL. E COMERCIAL          010535064000140MAX ALIMENTOS LTDA                      AV AYRON WELLINGTON DE ANDRADE 7        BEZERROS                                55660000PE3903300003050675430175298-02  18102012900BRADESCO S/A        0412201200000000003381300CC                                                                                                                                                                                                                                                                                                                                                                                           208362-101    000106
1031421009837COBR_CAUC_COR  DIPLOMATA S/AINDL. E COMERCIAL          010535064000140MAX ALIMENTOS LTDA                      AV AYRON WELLINGTON DE ANDRADE 7        BEZERROS                                55660000PE3903300004050675510175298-03  18102012900BRADESCO S/A        1012201200000000003381300CC                                                                                                                                                                                                                                                                                                                                                                                           208362-102    000107
1031421009837COBR_CAUC_BIC  DIPLOMATA S/AINDL. E COMERCIAL          081894255000147DUSNEI ALIMENTICIOS LTDA                RUA PIONEIRO JOAO RUFATO 257            MARINGA                                 87035540PR3903200001051101470176719-01  16112012016CURITIBA            0712201200000000006669000CC                                                                                                                                                                                                                                                                                                                                                                                           208362-103    000108
1031421009837COBR_CAUC_BIC  DIPLOMATA S/AINDL. E COMERCIAL          011662138000334SUPERMERCADO CHARME LTDA                ETR DE ITAIPUACU, LOTEAMENTO CHACARAS DEMARICA                                  24900000RJ3903100001050746550175508-01  22102012014RIO DE JANEIRO      0312201200000000006660000CC                                                                                                                                                                                                                                                                                                                                                                                           208362-104    000109
1031421009837COBR_CAUC_BIC  DIPLOMATA S/AINDL. E COMERCIAL          008700020000187BARRA FRIOS FLUMINENSE DISTRIBUIDO      ESTRADA GOVERNADOR CHAGAS FREITAS, 3040 BARRA MANSA                             27351720RJ3903000001051101550176043-01  06112012014RIO DE JANEIRO      0312201200000000006480000CC                                                                                                                                                                                                                                                                                                                                                                                           208362-105    000110
1049421001570COBR_CAUC_COR  MASTER AGROINDUSTRIAL LTDA              085782878000340FRIGORIFICO RIO SULENSE SA              RUA JOSINO MONTEIRO,2                   ESTACAO                                 99930000RS39012000010000493822417       21112012900BRADESCO S/A        1912201200000000013007019CC                                                                                                                                                                                                                                                                                                                                                                                           208362-106    000111
1007421006183COBR_CAUC_BIC  NITRIFLEX S/A IND E COMERCIO            036193928000187TEADIT INDUSTRIA E COMERCIO LTDA        AV.PASTOR MARTIN LUTHER KING JR,8939    RIO DE JANEIRO                          21530012RJ390100000101594019001812701   27112012014RIO DE JANEIRO      1312201200000000016957495CC                                                                                                                                                                                                                                                                                                                                                                                           208362-107    000112
1019421014068COBR_CAUC_COR  RIO BRANCO ALIMENTOS S/A                004641376007300SUPERMERCADOS BH COMERCIO DE            AV GERALDO ROCHA 700                    CONTAGEM                                32183054MG3901100001007168510151468301  28112012900BRADESCO S/A        2612201200000000030943308CC                                                                                                                                                                                                                                                                                                                                                                                           208362-108    000113
1006421012283COBR_CAUC_BIC  AERIS IND E COM DE E G DE ENERG S/A     008146882000100SUZLON ENERGIA EOLICA DO BRASIL_LT      AV SENADOR VIRGILIO TAVORA 195          FORTALEZA                               60170250CE390720000109291667209         22112012003CENTRO              0901201300000000050635337CC                                                                                                                                                                                                                                                                                                                                                                                           208366-1      000114
1006421012283COBR_CAUC_BIC  AERIS IND E COM DE E G DE ENERG S/A     008146882000100SUZLON ENERGIA EOLICA DO BRASIL_LT      AV SENADOR VIRGILIO TAVORA 195          FORTALEZA                               60170250CE390720000209291675221         22112012003CENTRO              2301201300000000050635337CC                                                                                                                                                                                                                                                                                                                                                                                           208366-2      000115
1006421012283COBR_CAUC_BIC  AERIS IND E COM DE E G DE ENERG S/A     008146882000100SUZLON ENERGIA EOLICA DO BRASIL_LT      AV SENADOR VIRGILIO TAVORA 195          FORTALEZA                               60170250CE390720000309291683280         22112012003CENTRO              0702201300000000050635337CC                                                                                                                                                                                                                                                                                                                                                                                           208366-3      000116
1010421024356COBR_CAUC_COR  DIST EQUADOR DE PROD PETROLEO LTDA      084090125000140O DA C DE A SOARES                      R CORONEL PEDRO DA CUNHA, 405           URUCARA                                 69130000AM39069000010000914084708       28112012900BRADESCO S/A        0112201200000000015000000CC                                                                                                                                                                                                                                                                                                                                                                                           208366-4      000117
1037421003994COBR_CAUC_BIC  DOX COM. DE VALVULAS CONEXOES INSTR     001340937002708GALVAO ENGENHARIA S/A                   AVENIDA JOAO ARANHA, 941                PAULINIA                                13140000SP390700000104575991004286      01112012021CAMPINAS            3112201200000000030132000CC                                                                                                                                                                                                                                                                                                                                                                                           208366-5      000118
1037421003994COBR_CAUC_BIC  DOX COM. DE VALVULAS CONEXOES INSTR     001340937002708GALVAO ENGENHARIA S/A                   AVENIDA JOAO ARANHA, 941                PAULINIA                                13140000SP390700000204576009004317      08112012021CAMPINAS            0701201300000000015120000CC                                                                                                                                                                                                                                                                                                                                                                                           208366-6      000119
1048421000338COBR_CAUC_COR  FRIGOESTRELA S.A. EM RECUP JUDICIAL     050947761001871IRMAOS RUSSI LTDA                       RUA LUIS ALLI FARDYN590SALA 03          CAJAMAR                                 07750000SP3906600001032422920023996501  28112012900BRADESCO S/A        0301201300000000010153828CC                                                                                                                                                                                                                                                                                                                                                                                           208366-7      000120
1031421010312COBR_CAUC_BIC  PADO S/A - INDL.COML E IMPORTADORA      052816162000104CENTER FERTIN COM. TINTAS FERGS.        AV. GUARAPIRANGA 117 123 127 141 99     SAO PAULO                               04909025SP3906500001051207970016122901  28112012007PAULISTA            1412201200000000012964715CC                                                                                                                                                                                                                                                                                                                                                                                           208366-8      000121
1038421020013COBR_CAUC_BIC  PROBANCO FOMENTO MERCANTIL LTDA         043202951000156RACIONAL ENG                            RUA CHEDID JAFFET 222 3 ANDAR BLOCO D   SAO PAULO                               04551065SP390710000109946371000785/AD   28112012007PAULISTA            1501201300000000010612500CC                                                                                                                                                                                                                                                                                                                                                                                           208366-9      000122
1019421014068COBR_CAUC_COR  RIO BRANCO ALIMENTOS S/A                004641376007300SUPERMERCADOS BH COMERCIO DE            AV GERALDO ROCHA 700                    CONTAGEM                                32183054MG3906700001007210570352609001  28112012900BRADESCO S/A        2612201200000000010028003CC                                                                                                                                                                                                                                                                                                                                                                                           208366-10     000123
1032421002555COBR_CAUC_BIC  ZZA SECURITIZADORA S.A.                 053558342001593ANIS RAZUK INDUSTRIA E COM LTD          RUA CAETANO PINTO129                    SAO PAULO                               03041000SP390680000101175832174030011   27112012007PAULISTA            1001201300000000012000000CC                                                                                                                                                                                                                                                                                                                                                                                           208366-11     000124
1031421007850COBR_CAUC_BIC  AGRICOLA JANDELLE S/A                   004641376007300SUPERMERCADOS BH COMERCIO DE ALIME      AVENIDA GERALDO ROCHA 200               CONTAGEM                                32183054MG3909600001051211730010374801  30112012019BELO HORIZONTE      2812201200000000011005394CC                                                                                                                                                                                                                                                                                                                                                                                           208643-1      000125
1031421007850COBR_CAUC_COR  AGRICOLA JANDELLE S/A                   026036491000114CONGEBRAS ALIMENTOS LTDA                RODOVIA BR 040 S/N KM 516 SALA 101      RIBEIRAO DAS NE                         33822502MG3909700001051211810010374401  30112012800UNIBANCO S/A        3112201200000000012089259CC                                                                                                                                                                                                                                                                                                                                                                                           208643-2      000126
1048421000338COBR_CAUC_COR  FRIGOESTRELA S.A. EM RECUP JUDICIAL     004004586000113ABRAHAO CANDIDO DA SILVA                AVENIDA DESEMBARGADOR TAVORA35          CRUZEIRO DO SUL                         69980000AC3909800001032564390083262601  29112012900BRADESCO S/A        0412201200000000010661644CC                                                                                                                                                                                                                                                                                                                                                                                           208643-3      000127
1048421000338COBR_CAUC_COR  FRIGOESTRELA S.A. EM RECUP JUDICIAL     008386287000141BERMAS MARACANAU IND E COM DE COUR      AV CONTORNOS/NDISTRITO INDUSTRIAL       MARACANAU                               61939160CE3909900001032563660001400501  29112012900BRADESCO S/A        2912201200000000015969807CC                                                                                                                                                                                                                                                                                                                                                                                           208643-4      000128
1048421000338COBR_CAUC_COR  FRIGOESTRELA S.A. EM RECUP JUDICIAL     008386287000141BERMAS MARACANAU IND E COM DE COUR      AV CONTORNOS/NDISTRITO INDUSTRIAL       MARACANAU                               61939160CE3909900002032563740001400601  29112012900BRADESCO S/A        2912201200000000016042590CC                                                                                                                                                                                                                                                                                                                                                                                           208643-5      000129
1046421007255COBR_CAUC_COR  MAESTRO DO BRASIL IND METALUR LTDA      019166917000199EMBRASIL EMPRESA BRASILEIRA DISTRI      RODOVIA BR-040,KM-517,S/N               RIBEIRAO DAS NE                         33823310MG39095000010168969325575-1/1   26112012800UNIBANCO S/A        2901201300000000012031172CC                                                                                                                                                                                                                                                                                                                                                                                           208643-6      000130
1007421061290COBR_CAUC_BIC  ROYAL QUIMICA LTDA                      056558703000194BENTOMAR IND. E COM. DE MINERIOS L      R: SR. EDGAR MAGALHAES DE NORONHA, 563  SAO PAULO                               03480000SP3910100001016030510000115496  29112012007PAULISTA            2801201300000000011400375CC                                                                                                                                                                                                                                                                                                                                                                                           208643-7      000131
1019421004658COBR_CAUC_COR  S/A ESTADO DE MINAS                     016705345000180SINDICATO DAS EMP.TRANSP.PASSAG.MG      AIMORES 2152BR                          BELO HORIZONTE                          30140072MG3909400001011907211487744-1   29112012900BRADESCO S/A        0303201300000000020000000CC                                                                                                                                                                                                                                                                                                                                                                                           208643-8      000132
1016421019909COBR_CAUC_COR  TROMBINI EMBALAGENS S/A                 021228861000363NACIONAL DE GRAFITE LTDA                RODOVIA MG.164 - KM.04 S N NA           ITAPECERICA                             35550000MG39100000010384296516944-1     29112012800UNIBANCO S/A        1301201300000000010065066CC                                                                                                                                                                                                                                                                                                                                                                                           208643-9      000133
9000132                                                                                                                                                                                                                                                                                                                                                                                                                                                                                                                                                                                                                                                                                                               000134
