0REMESSANOTIFICAÇÃO ELETRONICA        99999999999999Bicbanco S/A                            Avenida Paulista , 1048 12º andar                           BELA VISTA                    SÃO PAULO                     01310100SPBicbanco S/A                                                                    19052010                                                                                                                                                                                                                                                                                                                                                                                                000001
1028421002719COBR_CAUC_COR  SIPCAM ISAGRO BRASIL S/A                002523485000123CIMOAGRO - COMERCIO E REPRES.AGROP      RUA BERNARDINO DE CAMPOS N. 116         ITAPOLIS                                14900000SP221660000102607536DC00245001  29042010900BRADESCO S/A        2709201000000000011520000CC                                                                                                                                                                                                                                                                                                                                                                                           100169-1      000002
1028421002719COBR_CAUC_COR  SIPCAM ISAGRO BRASIL S/A                004338559000187OBJETIVA AGRICOLA LTDA                  AV. PERIMETRAL SUDESTE, 10655           SORRISO                                 78890000MT221670000102607650DL00103601  23122009900BRADESCO S/A        3009201000000000024746700CC                                                                                                                                                                                                                                                                                                                                                                                           100169-2      000003
1028421002719COBR_CAUC_BIC  SIPCAM ISAGRO BRASIL S/A                004784681000187QUALICICLO AGRICOLA LTDA                AV. MOGI MIRIM, 1002                    LIMEIRA                                 13486170SP221680000102607561DC00244701  29042010021CAMPINAS            2709201000000000026252400CC                                                                                                                                                                                                                                                                                                                                                                                           100169-3      000004
1028421002719COBR_CAUC_COR  SIPCAM ISAGRO BRASIL S/A                005412826000181COSTA E VIEIRA LTDA                     RUA RIO DE JANEIRO, N. 1.529            PRIMAVERA DO LE                         78850000MT221690000102607595DL00138801  12022010900BRADESCO S/A        3009201000000000013999960CC                                                                                                                                                                                                                                                                                                                                                                                           100169-4      000005
1028421002719COBR_CAUC_COR  SIPCAM ISAGRO BRASIL S/A                005412826000181COSTA E VIEIRA LTDA                     RUA RIO DE JANEIRO, N. 1.529            PRIMAVERA DO LE                         78850000MT221690000202607617DL00145901  25022010900BRADESCO S/A        3009201000000000013999960CC                                                                                                                                                                                                                                                                                                                                                                                           100169-5      000006
1028421002719COBR_CAUC_COR  SIPCAM ISAGRO BRASIL S/A                007367791000131NANTES E SILVA LTDA                     AV PERIMETRAL SUDESTE, 10265            SORRISO                                 78890000MT221700000102607641DL00110201  29122009900BRADESCO S/A        3009201000000000010680000CC                                                                                                                                                                                                                                                                                                                                                                                           100169-6      000007
1028421002719COBR_CAUC_COR  SIPCAM ISAGRO BRASIL S/A                000020374070253CLAIDES LAZARETTI MASUTTI E OUTROS      AV. PREFEITO VALDIR MASUTTI N. 3.818    COMODORO                                78310000MT221710000102607579DL00106301  28122009900BRADESCO S/A        3009201000000000014094000CC                                                                                                                                                                                                                                                                                                                                                                                           100169-7      000008
1016141008940COBR_CAUC_COR  COOPERATIVA RIO DO PEIXE                083310441000117AURORA S/A                              RUA JOAO MARTINS,219                    CHAPECO                                 89803901SC221720000102763808522882      06052010900BRADESCO S/A        1006201000000000020380800TD                                                                                                                                                                                                                                                                                                                                                                                           100169-8      000009
1014421008439COBR_CAUC_BIC  TV OMEGA LTDA                           001027058000191Cielo S.A                               Av. Brigadeiro Faria Lima - 6º an1478   SaoPaulo                                05465070SP221730000104218143419761      14052010007PAULISTA            1506201000000000010897929CC                                                                                                                                                                                                                                                                                                                                                                                           100169-9      000010
1014421008439COBR_CAUC_BIC  TV OMEGA LTDA                           050564053000880Bombril S/A                             Rua Novo Horizonte - 78                 SãoPaulo                                01244020SP221740000104218127419723      14052010007PAULISTA            1509201000000000025145984CC                                                                                                                                                                                                                                                                                                                                                                                           100169-10     000011
1014421008439COBR_CAUC_BIC  TV OMEGA LTDA                           052529815000166Support Editora e Papelaria Ltda        Av. Brasil, -1594                       SãoPaulo                                01431001SP221750000104218135419724      14052010007PAULISTA            1509201000000000013688000CC                                                                                                                                                                                                                                                                                                                                                                                           100169-11     000012
1028421002921COBR_CAUC_COR  FRIGORIFICO MATABOI S/A                 008288835000109COMERCIO DE CHARQUE TL LTDA             RDV PR 458 KM 57 SN                     ATALAIA                                 87630000PR2219100001001337310009463901  14052010900BRADESCO S/A        1806201000000000010663984CC                                                                                                                                                                                                                                                                                                                                                                                           100171-1      000013
1029420932214COBR_CAUC_COR  BERTOL S/A IND COM E EXP                077752293006129COOPERATIVA AGROINDUSTRIAL LAR          AV BRASILIA, 1220 CXP:080               MEDIANEIRA                              85884000PR221920000109202631E110036561  30042010900BRADESCO S/A        0908201000000000012000000CC                                                                                                                                                                                                                                                                                                                                                                                           100171-2      000014
1008421003482COBR_CAUC_BIC  METALGRAFICA CEARENSE S/AMECESA         061186888009069SPAL IND. BRASILEIRA DE BEBIDAS S/      AV PRES HUMBERTO A. C. BRANCO,2911      JACAREI                                 12321150SP22193000010796363901086601    14052010007PAULISTA            1806201000000000011733197CC                                                                                                                                                                                                                                                                                                                                                                                           100171-3      000015
1029140511987COBR_CAUC_BIC  BRASFUMO IND BRAS DE FUMOS S/A          033876145000100ALLIANCE ONE BRASIL EXPORTADORA DE      RUA THOMAZ GONZAGA, 666                 VERA CRUZ                               96880000RS221940000109202542170510      17052010015PORTO ALEGRE        2406201000000000052319652TD                                                                                                                                                                                                                                                                                                                                                                                           100171-4      000016
1014420939021COBR_CAUC_BIC  EDITORA O DIA S/A                       033041260000164GLOBEX UTILIDADES SA                    AV. TENENTE REBELO, 675                 RIO DE JANEIRO                          21241460RJ2219500001022117370538012     15052010014RIO DE JANEIRO      3005201000000000011800000CC                                                                                                                                                                                                                                                                                                                                                                                           100171-5      000017
1007421035264COBR_CAUC_BIC  ALLIED ADVANCED TECHNOLOGIES LTDA       001534080009770NOVO MUNDO MOVEIS E UTILIDADES LTD      ALAMEDA DOS FLAMBOYANTS, 101 - QD QC 3 -GOIANIA                                 74681230GO22196000010986145800067891 A  29042010018GOIANIA             2807201000000000019460000CC                                                                                                                                                                                                                                                                                                                                                                                           100171-6      000018
1007421035264COBR_CAUC_COR  ALLIED ADVANCED TECHNOLOGIES LTDA       026404731000196ELETROZEMA LTDA                         AV JOSÉ ANANIAS AGUIAR, 5005            Araxa                                   38184200MG22197000010986141500060861 A  23042010900BRADESCO S/A        0707201000000000035154000CC                                                                                                                                                                                                                                                                                                                                                                                           100171-7      000019
1008421005590COBR_CAUC_COR  MM MONTEIRO PESCA EXPORTACAO LTDA       071815229000122GREAT FOOD P.DE ALIMENTICIOS LTDA       RUA DOS ESTUDANTES,377                  COTIA                                   06707050SP22198000010796364729 B        15052010900BRADESCO S/A        2906201000000000010715000CC                                                                                                                                                                                                                                                                                                                                                                                           100171-8      000020
1008421005590COBR_CAUC_COR  MM MONTEIRO PESCA EXPORTACAO LTDA       071815229000122GREAT FOOD P.DE ALIMENTICIOS LTDA       RUA DOS ESTUDANTES,377                  COTIA                                   06707050SP22198000020796372829 A        15052010900BRADESCO S/A        1406201000000000010715000CC                                                                                                                                                                                                                                                                                                                                                                                           100171-9      000021
9000020                                                                                                                                                                                                                                                                                                                                                                                                                                                                                                                                                                                                                                                                                                               000022
