0REMESSANOTIFICAÇÃO ELETRONICA        99999999999999Bicbanco S/A                            Avenida Paulista                        1048      12º andar BELA VISTA                    SÃO PAULO                     01310100SPBicbanco S/A                                                                    14102011                                                                                                                                                                                                                                                                                                                                                                                                000001
1016421006424COBR_CAUC_BIC  BOUTIN FERTILIZANTES LTDA               075808808000107DISTRIBUIDORA DE FERTILIZANTES CAM      RUA XV DE NOVEMBRO,2733                 CAMPO LARGO                             83601030PR31264000010320287721585       10102011016CURITIBA            1501201200000000011800000CC                                                                                                                                                                                                                                                                                                                                                                                           148072-1      000002
1038421011812COBR_CAUC_BIC  ENERGY COML IMPORT E EXPORT LTDA        009363567000105PREMIX BRASIL RESINAS                   ALAMEDA ARAGU,2044-CJ703A705TORRE2      SAO PAULO                               06455000SP312650000109444871565         07102011007PAULISTA            2610201100000000013183837CC                                                                                                                                                                                                                                                                                                                                                                                           148072-2      000003
1038421011812COBR_CAUC_BIC  ENERGY COML IMPORT E EXPORT LTDA        009363567000105PREMIX BRASIL RESINAS                   ALAMEDA ARAGU,2044-CJ703A705TORRE2      SAO PAULO                               06455000SP312650000209444880566         07102011007PAULISTA            2610201100000000011617359CC                                                                                                                                                                                                                                                                                                                                                                                           148072-3      000004
1038421011812COBR_CAUC_BIC  ENERGY COML IMPORT E EXPORT LTDA        009363567000105PREMIX BRASIL RESINAS                   ALAMEDA ARAGU,2044-CJ703A705TORRE2      SAO PAULO                               06455000SP312650000309444898567         07102011007PAULISTA            2610201100000000012908177CC                                                                                                                                                                                                                                                                                                                                                                                           148072-4      000005
1038421011812COBR_CAUC_BIC  ENERGY COML IMPORT E EXPORT LTDA        009363567000105PREMIX BRASIL RESINAS                   ALAMEDA ARAGU,2044-CJ703A705TORRE2      SAO PAULO                               06455000SP312650000409444901568         07102011007PAULISTA            2610201100000000012852814CC                                                                                                                                                                                                                                                                                                                                                                                           148072-5      000006
1038421011812COBR_CAUC_BIC  ENERGY COML IMPORT E EXPORT LTDA        009363567000105PREMIX BRASIL RESINAS                   ALAMEDA ARAGU,2044-CJ703A705TORRE2      SAO PAULO                               06455000SP312650000509444910591         07102011007PAULISTA            2810201100000000014277558CC                                                                                                                                                                                                                                                                                                                                                                                           148072-6      000007
1038421011812COBR_CAUC_BIC  ENERGY COML IMPORT E EXPORT LTDA        009363567000105PREMIX BRASIL RESINAS                   ALAMEDA ARAGU,2044-CJ703A705TORRE2      SAO PAULO                               06455000SP312650000609444928592         07102011007PAULISTA            2810201100000000014277558CC                                                                                                                                                                                                                                                                                                                                                                                           148072-7      000008
1038421011812COBR_CAUC_BIC  ENERGY COML IMPORT E EXPORT LTDA        009363567000105PREMIX BRASIL RESINAS                   ALAMEDA ARAGU,2044-CJ703A705TORRE2      SAO PAULO                               06455000SP312650000709444936593         07102011007PAULISTA            2810201100000000011941231CC                                                                                                                                                                                                                                                                                                                                                                                           148072-8      000009
1007421049451COBR_CAUC_COR  RIGOR ALIMENTOS LTDA                    064308299000129INTERCONTINENTAL COM DE ALIMENTOS       ROD. PRES. DUTRA, 1957 KM 167           SAO JOAO MIRITI                         25515230RJ3126600001000506864123517     07102011900BRADESCO S/A        0411201100000000012015000CC                                                                                                                                                                                                                                                                                                                                                                                           148072-9      000010
9000009                                                                                                                                                                                                                                                                                                                                                                                                                                                                                                                                                                                                                                                                                                               000011
