0REMESSANOTIFICAÇÃO ELETRONICA        99999999999999Bicbanco S/A                            Avenida Paulista , 1048 12º andar                           BELA VISTA                    SÃO PAULO                     01310100SPBicbanco S/A                                                                    03082010                                                                                                                                                                                                                                                                                                                                                                                                000001
1021420930887COBR_CAUC_BIC  DEDINI S/A INDUSTRIAS DE BASE           053009825000133USINA ALTA MOGIANA S A - ACUCAR E       FAZ SANTANA ZONA RURAL BR               SAO JOAQUIM DA                          14600000SP23510000010587077812576-2-2   28072010022RIBEIRAO PRETO      1808201000000000013022578CC                                                                                                                                                                                                                                                                                                                                                                                           107563-1      000002
1014420939021COBR_CAUC_BIC  EDITORA O DIA S/A                       033747288000111FETRANSPOR FED.EMP.TRANSP.PASSAG.E      ASSEMBLEIA, 10 39§ ANDAR SLS.3901       RIO DE JANEIRO                          20011901RJ2351100001022565280548652     29072010014RIO DE JANEIRO      1508201000000000010552910CC                                                                                                                                                                                                                                                                                                                                                                                           107563-2      000003
1022141001217COBR_CAUC_BIC  BALDIN BIOENERGIA S/A                   001062529000100DULCINI S/A                             ESTR SITIO TABOAO S/N Z RURAL           PIRASSUNUNGA                            13631301SP2351200001039520958883/05     08072010021CAMPINAS            2709201000000000025000000TD                                                                                                                                                                                                                                                                                                                                                                                           107563-3      000004
1022141001217COBR_CAUC_BIC  BALDIN BIOENERGIA S/A                   001062529000100DULCINI S/A                             ESTR SITIO TABOAO S/N Z RURAL           PIRASSUNUNGA                            13631301SP2351200002039521098883/06     08072010021CAMPINAS            2809201000000000025000000TD                                                                                                                                                                                                                                                                                                                                                                                           107563-4      000005
1022141001217COBR_CAUC_BIC  BALDIN BIOENERGIA S/A                   001062529000100DULCINI S/A                             ESTR SITIO TABOAO S/N Z RURAL           PIRASSUNUNGA                            13631301SP2351200003039521178883/07     08072010021CAMPINAS            2909201000000000025000000TD                                                                                                                                                                                                                                                                                                                                                                                           107563-5      000006
1022141001217COBR_CAUC_BIC  BALDIN BIOENERGIA S/A                   001062529000100DULCINI S/A                             ESTR SITIO TABOAO S/N Z RURAL           PIRASSUNUNGA                            13631301SP2351200004039521258883/08     08072010021CAMPINAS            0110201000000000025000000TD                                                                                                                                                                                                                                                                                                                                                                                           107563-6      000007
1005421004528DIR_CREDIT     A L TEIXEIRA PINHEIRO                   007810468000190PM DE IGUATU                            AV RUI BARBOSA S/N                      IGUATU                                  63500000CE2346100001                                                                                                                                          481004773           06052010000001350920/2010     26072010000404EXECUÇÃO DAS OBRAS E SERVIÇOS DE ENGENHARIA PARA A PAVIMENTAÇÃO ASFALTICA EM AAUQ DA AMPLIAÇÃO DA AV. CRUZEIRO DO SUL(ETAPAS 01,02,03 E 04) E PAVIMENTAÇÃO EM PEDRA TOSCA NOS DISTRITOS JOSE DE ALENCAR E BARRO ALTO.                           069374585000106107695-1      000008
1042421006574DIR_CREDIT     MS INFORMATICA E CONSULTORIA            006217954000137MUNICIPIO DE BARREIRINHAS               AV JOAQUIM DE CARVALHO S/N              BARREIRINHAS                            65000000MA2347900001                                                                                                                                          011055946           181220090000014329001/BA-CL/2026072010000403Prestação de serviços de licenciamento, intalação, customização e capacitação de ferramentas de gerenciamento baseadas na tecnologia Oracle 10g e Microsoft.Net, visando automatizar rotinas tributárias existentes na prefeitura.              002431800000192107695-2      000009
1032421001141DIR_CREDIT     ENGEPLAN TERRAP SANEAM E URB LTDA       083102764000115PM DE TIMBO                             AV. GETULIO VARGAS, 816                 TIMBO                                   89120000SC2349000001                                                                                                                                          011064990           0202201000000139052010/37     27072010000404Execução de obras e serviços de drenagem e pavimentação asfáltica.                                                                                                                                                                              083897504000183107695-3      000010
1032421014855COBR_CAUC_BIC  CATIVA TEXTIL IND. E COM. LTDA          087345021000127LINS FERRAO ARTIGOS DO VESTUARIO L      AV CONEGO L W HANQUET 1717              CAMAQUA                                 96180000RS2352700001081306300000238002  26072010015PORTO ALEGRE        0811201000000000015680500CC                                                                                                                                                                                                                                                                                                                                                                                           107695-4      000011
1038421000764COBR_CAUC_BIC  METROPOLITAN LOGIST COMERCIAL LTDA      061068276002816UNILEVER BRASIL LTDA                    AV.JOSE LUIZ MAZZALI 450 P.E            LOUVEIRA                                13290000SP235280000108844213640         23072010007PAULISTA            0109201000000000020815200CC                                                                                                                                                                                                                                                                                                                                                                                           107695-5      000012
1038421000764COBR_CAUC_BIC  METROPOLITAN LOGIST COMERCIAL LTDA      061068276002816UNILEVER BRASIL LTDA                    AV.JOSE LUIZ MAZZALI 450 P.E            LOUVEIRA                                13290000SP235280000208844221627         08072010007PAULISTA            1708201000000000016131928CC                                                                                                                                                                                                                                                                                                                                                                                           107695-6      000013
1018421008680COBR_CAUC_BIC  CMS PRODUTOS MEDICOS LTDA               003543875000128SIGNUS DO BRASIL COM. IMP. E EXP.       AV. DAS AMERICAS, 3959                  RIO DE JANEIRO                          22631003RJ235290000101813149000001900   27072010014RIO DE JANEIRO      2409201000000000012000000CC                                                                                                                                                                                                                                                                                                                                                                                           107695-7      000014
1022421004755COBR_CAUC_COR  FRIGOL S.A.                             009112489002616BERTIN S/A                              ROD PA 447 S/N KM 4                     CONCEICAO DO AR                         68540000PA2355600001039470084048-1      23072010900BRADESCO S/A        2208201000000000001545700CC                                                                                                                                                                                                                                                                                                                                                                                           107695-8      000015
1022421004755COBR_CAUC_COR  FRIGOL S.A.                             009112489002616BERTIN S/A                              ROD PA 447 S/N KM 4                     CONCEICAO DO AR                         68540000PA2355600002039245123745-1      05072010900BRADESCO S/A        0408201000000000001453400CC                                                                                                                                                                                                                                                                                                                                                                                           107695-9      000016
1022421004755COBR_CAUC_COR  FRIGOL S.A.                             009112489002616BERTIN S/A                              ROD PA 447 S/N KM 4                     CONCEICAO DO AR                         68540000PA2355600003039245213747-1      05072010600BRADESCO S/A        0408201000000000001380600CC                                                                                                                                                                                                                                                                                                                                                                                           107695-10     000017
1022421004755COBR_CAUC_COR  FRIGOL S.A.                             009112489002616BERTIN S/A                              ROD PA 447 S/N KM 4                     CONCEICAO DO AR                         68540000PA2355600004039252843761-1      06072010600BRADESCO S/A        0508201000000000000060060CC                                                                                                                                                                                                                                                                                                                                                                                           107695-11     000018
1022421004755COBR_CAUC_COR  FRIGOL S.A.                             009112489002616BERTIN S/A                              ROD PA 447 S/N KM 4                     CONCEICAO DO AR                         68540000PA2355600005039252923762-1      06072010600BRADESCO S/A        0508201000000000001322100CC                                                                                                                                                                                                                                                                                                                                                                                           107695-12     000019
1022421004755COBR_CAUC_COR  FRIGOL S.A.                             009112489002616BERTIN S/A                              ROD PA 447 S/N KM 4                     CONCEICAO DO AR                         68540000PA2355600006039253063759-1      06072010900BRADESCO S/A        0508201000000000001627600CC                                                                                                                                                                                                                                                                                                                                                                                           107695-13     000020
1022421004755COBR_CAUC_COR  FRIGOL S.A.                             009112489002616BERTIN S/A                              ROD PA 447 S/N KM 4                     CONCEICAO DO AR                         68540000PA2355600007039286153777-1      07072010900BRADESCO S/A        0608201000000000002020200CC                                                                                                                                                                                                                                                                                                                                                                                           107695-14     000021
1022421004755COBR_CAUC_COR  FRIGOL S.A.                             009112489002616BERTIN S/A                              ROD PA 447 S/N KM 4                     CONCEICAO DO AR                         68540000PA2355600008039297513793-1      07072010600BRADESCO S/A        0608201000000000001818700CC                                                                                                                                                                                                                                                                                                                                                                                           107695-15     000022
1022421004755COBR_CAUC_COR  FRIGOL S.A.                             009112489002616BERTIN S/A                              ROD PA 447 S/N KM 4                     CONCEICAO DO AR                         68540000PA2355600009039297863800-1      08072010900BRADESCO S/A        0708201000000000001872000CC                                                                                                                                                                                                                                                                                                                                                                                           107695-16     000023
1022421004755COBR_CAUC_COR  FRIGOL S.A.                             009112489002616BERTIN S/A                              ROD PA 447 S/N KM 4                     CONCEICAO DO AR                         68540000PA2355600010039308813827-1      10072010600BRADESCO S/A        0908201000000000001756300CC                                                                                                                                                                                                                                                                                                                                                                                           107695-17     000024
1022421004755COBR_CAUC_COR  FRIGOL S.A.                             009112489002616BERTIN S/A                              ROD PA 447 S/N KM 4                     CONCEICAO DO AR                         68540000PA2355600011039308903834-1      10072010900BRADESCO S/A        0908201000000000001422200CC                                                                                                                                                                                                                                                                                                                                                                                           107695-18     000025
1022421004755COBR_CAUC_COR  FRIGOL S.A.                             009112489002616BERTIN S/A                              ROD PA 447 S/N KM 4                     CONCEICAO DO AR                         68540000PA2355600012039309383865-1      12072010900BRADESCO S/A        1108201000000000001900600CC                                                                                                                                                                                                                                                                                                                                                                                           107695-19     000026
1022421004755COBR_CAUC_COR  FRIGOL S.A.                             009112489002616BERTIN S/A                              ROD PA 447 S/N KM 4                     CONCEICAO DO AR                         68540000PA2355600013039320943871-1      12072010600BRADESCO S/A        1108201000000000001803100CC                                                                                                                                                                                                                                                                                                                                                                                           107695-20     000027
1022421004755COBR_CAUC_COR  FRIGOL S.A.                             009112489002616BERTIN S/A                              ROD PA 447 S/N KM 4                     CONCEICAO DO AR                         68540000PA2355600014039321163892-1      13072010900BRADESCO S/A        1208201000000000001680900CC                                                                                                                                                                                                                                                                                                                                                                                           107695-21     000028
1022421004755COBR_CAUC_COR  FRIGOL S.A.                             009112489002616BERTIN S/A                              ROD PA 447 S/N KM 4                     CONCEICAO DO AR                         68540000PA2355600015039325743894-1      13072010600BRADESCO S/A        1208201000000000001630200CC                                                                                                                                                                                                                                                                                                                                                                                           107695-22     000029
1022421004755COBR_CAUC_COR  FRIGOL S.A.                             009112489002616BERTIN S/A                              ROD PA 447 S/N KM 4                     CONCEICAO DO AR                         68540000PA2355600016039326043904-1      14072010900BRADESCO S/A        1308201000000000001212900CC                                                                                                                                                                                                                                                                                                                                                                                           107695-23     000030
1022421004755COBR_CAUC_COR  FRIGOL S.A.                             009112489002616BERTIN S/A                              ROD PA 447 S/N KM 4                     CONCEICAO DO AR                         68540000PA2355600017039334313916-1      14072010600BRADESCO S/A        1308201000000000002810600CC                                                                                                                                                                                                                                                                                                                                                                                           107695-24     000031
1022421004755COBR_CAUC_COR  FRIGOL S.A.                             009112489002616BERTIN S/A                              ROD PA 447 S/N KM 4                     CONCEICAO DO AR                         68540000PA2355600018039334733931-1      15072010900BRADESCO S/A        1408201000000000002089100CC                                                                                                                                                                                                                                                                                                                                                                                           107695-25     000032
1022421004755COBR_CAUC_COR  FRIGOL S.A.                             009112489002616BERTIN S/A                              ROD PA 447 S/N KM 4                     CONCEICAO DO AR                         68540000PA2355600019039351913936-1      15072010900BRADESCO S/A        1408201000000000001792700CC                                                                                                                                                                                                                                                                                                                                                                                           107695-26     000033
1022421004755COBR_CAUC_COR  FRIGOL S.A.                             009112489002616BERTIN S/A                              ROD PA 447 S/N KM 4                     CONCEICAO DO AR                         68540000PA2355600020039352393945-1      16072010900BRADESCO S/A        1508201000000000002022800CC                                                                                                                                                                                                                                                                                                                                                                                           107695-27     000034
1022421004755COBR_CAUC_COR  FRIGOL S.A.                             009112489002616BERTIN S/A                              ROD PA 447 S/N KM 4                     CONCEICAO DO AR                         68540000PA2355600021039381223956-1      17072010600BRADESCO S/A        1608201000000000001579500CC                                                                                                                                                                                                                                                                                                                                                                                           107695-28     000035
1022421004755COBR_CAUC_COR  FRIGOL S.A.                             009112489002616BERTIN S/A                              ROD PA 447 S/N KM 4                     CONCEICAO DO AR                         68540000PA2355600022039381313967-1      17072010900BRADESCO S/A        1608201000000000001394900CC                                                                                                                                                                                                                                                                                                                                                                                           107695-29     000036
1022421004755COBR_CAUC_COR  FRIGOL S.A.                             009112489002616BERTIN S/A                              ROD PA 447 S/N KM 4                     CONCEICAO DO AR                         68540000PA2355600023039381653948-1      16072010900BRADESCO S/A        1508201000000000001883700CC                                                                                                                                                                                                                                                                                                                                                                                           107695-30     000037
1022421004755COBR_CAUC_COR  FRIGOL S.A.                             009112489002616BERTIN S/A                              ROD PA 447 S/N KM 4                     CONCEICAO DO AR                         68540000PA2355600024039381813974-1      19072010900BRADESCO S/A        1808201000000000001723800CC                                                                                                                                                                                                                                                                                                                                                                                           107695-31     000038
1022421004755COBR_CAUC_COR  FRIGOL S.A.                             009112489002616BERTIN S/A                              ROD PA 447 S/N KM 4                     CONCEICAO DO AR                         68540000PA2355600025039405933993-1      20072010900BRADESCO S/A        1908201000000000001378000CC                                                                                                                                                                                                                                                                                                                                                                                           107695-32     000039
1022421004755COBR_CAUC_COR  FRIGOL S.A.                             009112489002616BERTIN S/A                              ROD PA 447 S/N KM 4                     CONCEICAO DO AR                         68540000PA2355600026039406153977-1      19072010600BRADESCO S/A        1808201000000000001513200CC                                                                                                                                                                                                                                                                                                                                                                                           107695-33     000040
1022421004755COBR_CAUC_COR  FRIGOL S.A.                             009112489002616BERTIN S/A                              ROD PA 447 S/N KM 4                     CONCEICAO DO AR                         68540000PA2355600027039411913999-1      20072010600BRADESCO S/A        1908201000000000001823900CC                                                                                                                                                                                                                                                                                                                                                                                           107695-34     000041
1022421004755COBR_CAUC_COR  FRIGOL S.A.                             009112489002616BERTIN S/A                              ROD PA 447 S/N KM 4                     CONCEICAO DO AR                         68540000PA2355600028039412124003-1      21072010900BRADESCO S/A        2008201000000000001476800CC                                                                                                                                                                                                                                                                                                                                                                                           107695-35     000042
1022421004755COBR_CAUC_COR  FRIGOL S.A.                             009112489002616BERTIN S/A                              ROD PA 447 S/N KM 4                     CONCEICAO DO AR                         68540000PA2355600029039463544007-1      21072010600BRADESCO S/A        2008201000000000001128400CC                                                                                                                                                                                                                                                                                                                                                                                           107695-36     000043
1022421004755COBR_CAUC_COR  FRIGOL S.A.                             009112489002616BERTIN S/A                              ROD PA 447 S/N KM 4                     CONCEICAO DO AR                         68540000PA2355600030039463974016-1      22072010900BRADESCO S/A        2108201000000000001686100CC                                                                                                                                                                                                                                                                                                                                                                                           107695-37     000044
1022421004755COBR_CAUC_COR  FRIGOL S.A.                             009112489002616BERTIN S/A                              ROD PA 447 S/N KM 4                     CONCEICAO DO AR                         68540000PA2355600031039469824044-1      23072010600BRADESCO S/A        2308201000000000001329900CC                                                                                                                                                                                                                                                                                                                                                                                           107695-38     000045
1022421004755COBR_CAUC_COR  FRIGOL S.A.                             009112489002616BERTIN S/A                              ROD PA 447 S/N KM 4                     CONCEICAO DO AR                         68540000PA235560003203949540138363-1    26072010600BRADESCO S/A        1608201000000000001246728CC                                                                                                                                                                                                                                                                                                                                                                                           107695-39     000046
1022421004755COBR_CAUC_COR  FRIGOL S.A.                             009112489002616BERTIN S/A                              ROD PA 447 S/N KM 4                     CONCEICAO DO AR                         68540000PA2355600033039519864076-1      27072010600BRADESCO S/A        2608201000000000001027000CC                                                                                                                                                                                                                                                                                                                                                                                           107695-40     000047
1022421004755COBR_CAUC_COR  FRIGOL S.A.                             009112489002616BERTIN S/A                              ROD PA 447 S/N KM 4                     CONCEICAO DO AR                         68540000PA2355600034039582044109        29072010900BRADESCO S/A        2808201000000000001400100CC                                                                                                                                                                                                                                                                                                                                                                                           107695-41     000048
1022421004755COBR_CAUC_COR  FRIGOL S.A.                             002916265008063JBS S/A                                 RODOVIA BR 364 KM 245 S/N               CACOAL                                  78976970RO235570000103933457894-1       15072010900BRADESCO S/A        1608201000000000001327700CC                                                                                                                                                                                                                                                                                                                                                                                           107695-42     000049
1022421004755COBR_CAUC_COR  FRIGOL S.A.                             002916265008063JBS S/A                                 RODOVIA BR 364 KM 245 S/N               CACOAL                                  78976970RO235570000203924491830-1       05072010900BRADESCO S/A        0408201000000000000762300CC                                                                                                                                                                                                                                                                                                                                                                                           107695-43     000050
1022421004755COBR_CAUC_COR  FRIGOL S.A.                             002916265008063JBS S/A                                 RODOVIA BR 364 KM 245 S/N               CACOAL                                  78976970RO235570000303924504133478-1    05072010900BRADESCO S/A        0408201000000000001950200CC                                                                                                                                                                                                                                                                                                                                                                                           107695-44     000051
1022421004755COBR_CAUC_COR  FRIGOL S.A.                             002916265008063JBS S/A                                 RODOVIA BR 364 KM 245 S/N               CACOAL                                  78976970RO235570000403924539133487-1    05072010900BRADESCO S/A        0408201000000000001686200CC                                                                                                                                                                                                                                                                                                                                                                                           107695-45     000052
1022421004755COBR_CAUC_COR  FRIGOL S.A.                             002916265008063JBS S/A                                 RODOVIA BR 364 KM 245 S/N               CACOAL                                  78976970RO235570000503925276834-1       06072010900BRADESCO S/A        0508201000000000000564300CC                                                                                                                                                                                                                                                                                                                                                                                           107695-46     000053
1022421004755COBR_CAUC_COR  FRIGOL S.A.                             002916265008063JBS S/A                                 RODOVIA BR 364 KM 245 S/N               CACOAL                                  78976970RO235570000603925314133792-1    06072010900BRADESCO S/A        0508201000000000001520400CC                                                                                                                                                                                                                                                                                                                                                                                           107695-47     000054
1022421004755COBR_CAUC_COR  FRIGOL S.A.                             002916265008063JBS S/A                                 RODOVIA BR 364 KM 245 S/N               CACOAL                                  78976970RO235570000703925322133799-1    06072010900BRADESCO S/A        0508201000000000001472800CC                                                                                                                                                                                                                                                                                                                                                                                           107695-48     000055
1022421004755COBR_CAUC_COR  FRIGOL S.A.                             002916265008063JBS S/A                                 RODOVIA BR 364 KM 245 S/N               CACOAL                                  78976970RO235570000803928585837-1       07072010900BRADESCO S/A        0608201000000000001150600CC                                                                                                                                                                                                                                                                                                                                                                                           107695-49     000056
1022421004755COBR_CAUC_COR  FRIGOL S.A.                             002916265008063JBS S/A                                 RODOVIA BR 364 KM 245 S/N               CACOAL                                  78976970RO235570000903928593133812-1    06072010900BRADESCO S/A        0508201000000000001434300CC                                                                                                                                                                                                                                                                                                                                                                                           107695-50     000057
1022421004755COBR_CAUC_COR  FRIGOL S.A.                             002916265008063JBS S/A                                 RODOVIA BR 364 KM 245 S/N               CACOAL                                  78976970RO235570001003928607134105-1    07072010900BRADESCO S/A        0608201000000000001820000CC                                                                                                                                                                                                                                                                                                                                                                                           107695-51     000058
1022421004755COBR_CAUC_COR  FRIGOL S.A.                             002916265008063JBS S/A                                 RODOVIA BR 364 KM 245 S/N               CACOAL                                  78976970RO235570001103929760134135-1    07072010900BRADESCO S/A        0608201000000000001606100CC                                                                                                                                                                                                                                                                                                                                                                                           107695-52     000059
1022421004755COBR_CAUC_COR  FRIGOL S.A.                             002916265008063JBS S/A                                 RODOVIA BR 364 KM 245 S/N               CACOAL                                  78976970RO235570001203929778134549-1    08072010900BRADESCO S/A        0908201000000000001792000CC                                                                                                                                                                                                                                                                                                                                                                                           107695-53     000060
1022421004755COBR_CAUC_COR  FRIGOL S.A.                             002916265008063JBS S/A                                 RODOVIA BR 364 KM 245 S/N               CACOAL                                  78976970RO235570001303929794851-1       08072010900BRADESCO S/A        0908201000000000001142900CC                                                                                                                                                                                                                                                                                                                                                                                           107695-54     000061
1022421004755COBR_CAUC_COR  FRIGOL S.A.                             002916265008063JBS S/A                                 RODOVIA BR 364 KM 245 S/N               CACOAL                                  78976970RO235570001403929808134557-1    08072010900BRADESCO S/A        0908201000000000001779400CC                                                                                                                                                                                                                                                                                                                                                                                           107695-55     000062
1022421004755COBR_CAUC_COR  FRIGOL S.A.                             002916265008063JBS S/A                                 RODOVIA BR 364 KM 245 S/N               CACOAL                                  78976970RO235570001503930903134930-1    10072010900BRADESCO S/A        0908201000000000001328600CC                                                                                                                                                                                                                                                                                                                                                                                           107695-56     000063
1022421004755COBR_CAUC_COR  FRIGOL S.A.                             002916265008063JBS S/A                                 RODOVIA BR 364 KM 245 S/N               CACOAL                                  78976970RO235570001603930911134934-1    10072010900BRADESCO S/A        0908201000000000001326400CC                                                                                                                                                                                                                                                                                                                                                                                           107695-57     000064
1022421004755COBR_CAUC_COR  FRIGOL S.A.                             002916265008063JBS S/A                                 RODOVIA BR 364 KM 245 S/N               CACOAL                                  78976970RO235570001703930920877-1       10072010900BRADESCO S/A        0908201000000000001437700CC                                                                                                                                                                                                                                                                                                                                                                                           107695-58     000065
1022421004755COBR_CAUC_COR  FRIGOL S.A.                             002916265008063JBS S/A                                 RODOVIA BR 364 KM 245 S/N               CACOAL                                  78976970RO235570001803930946135182-1    12072010900BRADESCO S/A        1108201000000000001590400CC                                                                                                                                                                                                                                                                                                                                                                                           107695-59     000066
1022421004755COBR_CAUC_COR  FRIGOL S.A.                             002916265008063JBS S/A                                 RODOVIA BR 364 KM 245 S/N               CACOAL                                  78976970RO235570001903930954135176-1    12072010900BRADESCO S/A        1108201000000000001464400CC                                                                                                                                                                                                                                                                                                                                                                                           107695-60     000067
1022421004755COBR_CAUC_COR  FRIGOL S.A.                             002916265008063JBS S/A                                 RODOVIA BR 364 KM 245 S/N               CACOAL                                  78976970RO235570002003930962135189-1    12072010900BRADESCO S/A        1108201000000000001289800CC                                                                                                                                                                                                                                                                                                                                                                                           107695-61     000068
1022421004755COBR_CAUC_COR  FRIGOL S.A.                             002916265008063JBS S/A                                 RODOVIA BR 364 KM 245 S/N               CACOAL                                  78976970RO235570002103930971405-1       12072010900BRADESCO S/A        1108201000000000003061300CC                                                                                                                                                                                                                                                                                                                                                                                           107695-62     000069
1022421004755COBR_CAUC_COR  FRIGOL S.A.                             002916265008063JBS S/A                                 RODOVIA BR 364 KM 245 S/N               CACOAL                                  78976970RO235570002203930989406-1       12072010900BRADESCO S/A        1108201000000000004017200CC                                                                                                                                                                                                                                                                                                                                                                                           107695-63     000070
1022421004755COBR_CAUC_COR  FRIGOL S.A.                             002916265008063JBS S/A                                 RODOVIA BR 364 KM 245 S/N               CACOAL                                  78976970RO235570002303932086882-1       12072010900BRADESCO S/A        1108201000000000001360700CC                                                                                                                                                                                                                                                                                                                                                                                           107695-64     000071
1022421004755COBR_CAUC_COR  FRIGOL S.A.                             002916265008063JBS S/A                                 RODOVIA BR 364 KM 245 S/N               CACOAL                                  78976970RO235570002403932108135543-1    13072010900BRADESCO S/A        1208201000000000002112600CC                                                                                                                                                                                                                                                                                                                                                                                           107695-65     000072
1022421004755COBR_CAUC_COR  FRIGOL S.A.                             002916265008063JBS S/A                                 RODOVIA BR 364 KM 245 S/N               CACOAL                                  78976970RO235570002503932124884-1       13072010900BRADESCO S/A        1208201000000000001014200CC                                                                                                                                                                                                                                                                                                                                                                                           107695-66     000073
1022421004755COBR_CAUC_COR  FRIGOL S.A.                             002916265008063JBS S/A                                 RODOVIA BR 364 KM 245 S/N               CACOAL                                  78976970RO235570002603932582135558-1    13072010900BRADESCO S/A        1208201000000000002451300CC                                                                                                                                                                                                                                                                                                                                                                                           107695-67     000074
1022421004755COBR_CAUC_COR  FRIGOL S.A.                             002916265008063JBS S/A                                 RODOVIA BR 364 KM 245 S/N               CACOAL                                  78976970RO235570002703932591886-1       14072010900BRADESCO S/A        1308201000000000000784300CC                                                                                                                                                                                                                                                                                                                                                                                           107695-68     000075
1022421004755COBR_CAUC_COR  FRIGOL S.A.                             002916265008063JBS S/A                                 RODOVIA BR 364 KM 245 S/N               CACOAL                                  78976970RO235570002803932612135810-1    14072010900BRADESCO S/A        1308201000000000001481200CC                                                                                                                                                                                                                                                                                                                                                                                           107695-69     000076
1022421004755COBR_CAUC_COR  FRIGOL S.A.                             002916265008063JBS S/A                                 RODOVIA BR 364 KM 245 S/N               CACOAL                                  78976970RO235570002903932621135804-1    14072010900BRADESCO S/A        1308201000000000001625400CC                                                                                                                                                                                                                                                                                                                                                                                           107695-70     000077
1022421004755COBR_CAUC_COR  FRIGOL S.A.                             002916265008063JBS S/A                                 RODOVIA BR 364 KM 245 S/N               CACOAL                                  78976970RO235570003003933422135816-1    14072010900BRADESCO S/A        1308201000000000001139700CC                                                                                                                                                                                                                                                                                                                                                                                           107695-71     000078
1022421004755COBR_CAUC_COR  FRIGOL S.A.                             002916265008063JBS S/A                                 RODOVIA BR 364 KM 245 S/N               CACOAL                                  78976970RO235570003103933449136165-1    15072010900BRADESCO S/A        1608201000000000001775200CC                                                                                                                                                                                                                                                                                                                                                                                           107695-72     000079
1022421004755COBR_CAUC_COR  FRIGOL S.A.                             002916265008063JBS S/A                                 RODOVIA BR 364 KM 245 S/N               CACOAL                                  78976970RO235570003203933465136171-1    15072010900BRADESCO S/A        1608201000000000001726800CC                                                                                                                                                                                                                                                                                                                                                                                           107695-73     000080
1022421004755COBR_CAUC_COR  FRIGOL S.A.                             002916265008063JBS S/A                                 RODOVIA BR 364 KM 245 S/N               CACOAL                                  78976970RO235570003303935204911-1       16072010900BRADESCO S/A        1608201000000000001323300CC                                                                                                                                                                                                                                                                                                                                                                                           107695-74     000081
1022421004755COBR_CAUC_COR  FRIGOL S.A.                             002916265008063JBS S/A                                 RODOVIA BR 364 KM 245 S/N               CACOAL                                  78976970RO235570003403935212136523-1    16072010900BRADESCO S/A        1608201000000000001365000CC                                                                                                                                                                                                                                                                                                                                                                                           107695-75     000082
1022421004755COBR_CAUC_COR  FRIGOL S.A.                             002916265008063JBS S/A                                 RODOVIA BR 364 KM 245 S/N               CACOAL                                  78976970RO235570003503935221136516-1    16072010900BRADESCO S/A        1608201000000000001541400CC                                                                                                                                                                                                                                                                                                                                                                                           107695-76     000083
1022421004755COBR_CAUC_COR  FRIGOL S.A.                             002916265008063JBS S/A                                 RODOVIA BR 364 KM 245 S/N               CACOAL                                  78976970RO235570003603938114136681-1    17072010900BRADESCO S/A        1608201000000000001211000CC                                                                                                                                                                                                                                                                                                                                                                                           107695-77     000084
1022421004755COBR_CAUC_COR  FRIGOL S.A.                             002916265008063JBS S/A                                 RODOVIA BR 364 KM 245 S/N               CACOAL                                  78976970RO235570003703938149136675-1    17072010900BRADESCO S/A        1608201000000000001271200CC                                                                                                                                                                                                                                                                                                                                                                                           107695-78     000085
1022421004755COBR_CAUC_COR  FRIGOL S.A.                             002916265008063JBS S/A                                 RODOVIA BR 364 KM 245 S/N               CACOAL                                  78976970RO235570003803938157136527-1    16072010900BRADESCO S/A        1608201000000000001064800CC                                                                                                                                                                                                                                                                                                                                                                                           107695-79     000086
1022421004755COBR_CAUC_COR  FRIGOL S.A.                             002916265008063JBS S/A                                 RODOVIA BR 364 KM 245 S/N               CACOAL                                  78976970RO2355700039039381733973-1      19072010900BRADESCO S/A        1808201000000000004480800CC                                                                                                                                                                                                                                                                                                                                                                                           107695-80     000087
1022421004755COBR_CAUC_COR  FRIGOL S.A.                             002916265008063JBS S/A                                 RODOVIA BR 364 KM 245 S/N               CACOAL                                  78976970RO235570004003938190136857-1    19072010900BRADESCO S/A        1808201000000000002178400CC                                                                                                                                                                                                                                                                                                                                                                                           107695-81     000088
1022421004755COBR_CAUC_COR  FRIGOL S.A.                             002916265008063JBS S/A                                 RODOVIA BR 364 KM 245 S/N               CACOAL                                  78976970RO235570004103940569137141-1    20072010900BRADESCO S/A        1908201000000000001514800CC                                                                                                                                                                                                                                                                                                                                                                                           107695-82     000089
1022421004755COBR_CAUC_COR  FRIGOL S.A.                             002916265008063JBS S/A                                 RODOVIA BR 364 KM 245 S/N               CACOAL                                  78976970RO235570004203940577930-1       20072010900BRADESCO S/A        1908201000000000000728200CC                                                                                                                                                                                                                                                                                                                                                                                           107695-83     000090
1022421004755COBR_CAUC_COR  FRIGOL S.A.                             002916265008063JBS S/A                                 RODOVIA BR 364 KM 245 S/N               CACOAL                                  78976970RO235570004303940585137146-1    20072010900BRADESCO S/A        1908201000000000001255800CC                                                                                                                                                                                                                                                                                                                                                                                           107695-84     000091
1022421004755COBR_CAUC_COR  FRIGOL S.A.                             002916265008063JBS S/A                                 RODOVIA BR 364 KM 245 S/N               CACOAL                                  78976970RO235570004403940607136886-1    19072010900BRADESCO S/A        1808201000000000002157200CC                                                                                                                                                                                                                                                                                                                                                                                           107695-85     000092
1022421004755COBR_CAUC_COR  FRIGOL S.A.                             002916265008063JBS S/A                                 RODOVIA BR 364 KM 245 S/N               CACOAL                                  78976970RO2355700045039406233978-1      19072010900BRADESCO S/A        1808201000000000004552800CC                                                                                                                                                                                                                                                                                                                                                                                           107695-86     000093
1022421004755COBR_CAUC_COR  FRIGOL S.A.                             002916265008063JBS S/A                                 RODOVIA BR 364 KM 245 S/N               CACOAL                                  78976970RO235570004603941182137150-1    20072010900BRADESCO S/A        1908201000000000001233400CC                                                                                                                                                                                                                                                                                                                                                                                           107695-87     000094
1022421004755COBR_CAUC_COR  FRIGOL S.A.                             002916265008063JBS S/A                                 RODOVIA BR 364 KM 245 S/N               CACOAL                                  78976970RO235570004703941204635-1       21072010900BRADESCO S/A        2008201000000000000577500CC                                                                                                                                                                                                                                                                                                                                                                                           107695-88     000095
1022421004755COBR_CAUC_COR  FRIGOL S.A.                             002916265008063JBS S/A                                 RODOVIA BR 364 KM 245 S/N               CACOAL                                  78976970RO235570004803941221137384-1    21072010900BRADESCO S/A        2008201000000000001278200CC                                                                                                                                                                                                                                                                                                                                                                                           107695-89     000096
1022421004755COBR_CAUC_COR  FRIGOL S.A.                             002916265008063JBS S/A                                 RODOVIA BR 364 KM 245 S/N               CACOAL                                  78976970RO235570004903941239137378-1    21072010900BRADESCO S/A        2008201000000000001293600CC                                                                                                                                                                                                                                                                                                                                                                                           107695-90     000097
1022421004755COBR_CAUC_COR  FRIGOL S.A.                             002916265008063JBS S/A                                 RODOVIA BR 364 KM 245 S/N               CACOAL                                  78976970RO235570005003946346950-1       22072010900BRADESCO S/A        2308201000000000000848100CC                                                                                                                                                                                                                                                                                                                                                                                           107695-91     000098
1022421004755COBR_CAUC_COR  FRIGOL S.A.                             002916265008063JBS S/A                                 RODOVIA BR 364 KM 245 S/N               CACOAL                                  78976970RO235570005103946362137387-1    21072010900BRADESCO S/A        2008201000000000001207000CC                                                                                                                                                                                                                                                                                                                                                                                           107695-92     000099
1022421004755COBR_CAUC_COR  FRIGOL S.A.                             002916265008063JBS S/A                                 RODOVIA BR 364 KM 245 S/N               CACOAL                                  78976970RO235570005203946389137709-1    22072010900BRADESCO S/A        2308201000000000001898400CC                                                                                                                                                                                                                                                                                                                                                                                           107695-93     000100
1022421004755COBR_CAUC_COR  FRIGOL S.A.                             002916265008063JBS S/A                                 RODOVIA BR 364 KM 245 S/N               CACOAL                                  78976970RO235570005303946991138023-1    23072010900BRADESCO S/A        2308201000000000001859200CC                                                                                                                                                                                                                                                                                                                                                                                           107695-94     000101
1022421004755COBR_CAUC_COR  FRIGOL S.A.                             002916265008063JBS S/A                                 RODOVIA BR 364 KM 245 S/N               CACOAL                                  78976970RO235570005403949531417-1       27072010900BRADESCO S/A        0608201000000000003344400CC                                                                                                                                                                                                                                                                                                                                                                                           107695-95     000102
1022421004755COBR_CAUC_COR  FRIGOL S.A.                             002916265008063JBS S/A                                 RODOVIA BR 364 KM 245 S/N               CACOAL                                  78976970RO235570005503949558138606-1    27072010900BRADESCO S/A        2608201000000000001132100CC                                                                                                                                                                                                                                                                                                                                                                                           107695-96     000103
1022421004755COBR_CAUC_COR  FRIGOL S.A.                             002916265008063JBS S/A                                 RODOVIA BR 364 KM 245 S/N               CACOAL                                  78976970RO235570005603951994138786-1    28072010900BRADESCO S/A        2708201000000000001249000CC                                                                                                                                                                                                                                                                                                                                                                                           107695-97     000104
1022421004755COBR_CAUC_COR  FRIGOL S.A.                             002916265008063JBS S/A                                 RODOVIA BR 364 KM 245 S/N               CACOAL                                  78976970RO235570005703958182420         30072010900BRADESCO S/A        2008201000000000004003200CC                                                                                                                                                                                                                                                                                                                                                                                           107695-98     000105
1022421004755COBR_CAUC_COR  FRIGOL S.A.                             002916265008063JBS S/A                                 RODOVIA BR 364 KM 245 S/N               CACOAL                                  78976970RO235570005803958191421         30072010900BRADESCO S/A        2708201000000000004308000CC                                                                                                                                                                                                                                                                                                                                                                                           107695-99     000106
1022421004755COBR_CAUC_COR  FRIGOL S.A.                             002916265008063JBS S/A                                 RODOVIA BR 364 KM 245 S/N               CACOAL                                  78976970RO235570005903958212422         30072010900BRADESCO S/A        0309201000000000004014000CC                                                                                                                                                                                                                                                                                                                                                                                           107695-100    000107
1022421004755COBR_CAUC_COR  FRIGOL S.A.                             002916265008063JBS S/A                                 RODOVIA BR 364 KM 245 S/N               CACOAL                                  78976970RO235570006003958221423         30072010900BRADESCO S/A        1009201000000000004098000CC                                                                                                                                                                                                                                                                                                                                                                                           107695-101    000108
9000107                                                                                                                                                                                                                                                                                                                                                                                                                                                                                                                                                                                                                                                                                                               000109
