0REMESSANOTIFICAÇÃO ELETRONICA        99999999999999Bicbanco S/A                            Avenida Paulista                        1048      12º andar BELA VISTA                    SÃO PAULO                     01310100SPBicbanco S/A                                                                    05102010                                                                                                                                                                                                                                                                                                                                                                                                000001
1016420932333COBR_CAUC_BIC  COCELPA CIA DE CEL PAPEL DO PR          042564807000105CSN CIMENTOS S/A                        ROD BR 393 LUCIO MEIRA KM 5001 PARTE    VOLTA REDONDA                           27260390RJ2442100001028827180001442-01  28092010014RIO DE JANEIRO      3010201000000000010081717CC                                                                                                                                                                                                                                                                                                                                                                                           112701-1      000002
1007421035264COBR_CAUC_BIC  ALLIED ADVANCED TECHNOLOGIES LTDA       010772760000170RICARDO ELETRO ATACADO LTDA             AV C PHIDIAS, TAVORA, 360 BLC 01 ARMZ 01RIO DE JANEIRO                          21535510RJ244220000100123209000023039A  28092010014RIO DE JANEIRO      1212201000000000013374090CC                                                                                                                                                                                                                                                                                                                                                                                           112701-2      000003
1015420931819COBR_CAUC_COR  COOPERATIVA TRITICOLA ERECHIM LTDA      083310441000117AURORA - COOP.CENTRAL OESTE CATARI      RUA JOAO MARTINS,219D                   CHAPECO                                 89803901SC2445000001007637862610        23092010900BRADESCO S/A        2610201000000000012000000CC                                                                                                                                                                                                                                                                                                                                                                                           112792-1      000004
1015420931819COBR_CAUC_COR  COOPERATIVA TRITICOLA ERECHIM LTDA      083310441000117AURORA - COOP.CENTRAL OESTE CATARI      RUA JOAO MARTINS,219D                   CHAPECO                                 89803901SC2445000002007637943011        23092010900BRADESCO S/A        3011201000000000012000000CC                                                                                                                                                                                                                                                                                                                                                                                           112792-2      000005
1015420931819COBR_CAUC_COR  COOPERATIVA TRITICOLA ERECHIM LTDA      083310441000117AURORA - COOP.CENTRAL OESTE CATARI      RUA JOAO MARTINS,219D                   CHAPECO                                 89803901SC2445000003007638082812        23092010900BRADESCO S/A        2812201000000000012000000CC                                                                                                                                                                                                                                                                                                                                                                                           112792-3      000006
1015420931819COBR_CAUC_COR  COOPERATIVA TRITICOLA ERECHIM LTDA      083310441000117AURORA - COOP.CENTRAL OESTE CATARI      RUA JOAO MARTINS,219D                   CHAPECO                                 89803901SC2445000004007638161004        23092010900BRADESCO S/A        2501201100000000012000000CC                                                                                                                                                                                                                                                                                                                                                                                           112792-4      000007
1016420932333COBR_CAUC_BIC  COCELPA CIA DE CEL PAPEL DO PR          042564807000105CSN CIMENTOS S/A                        ROD BR 393 LUCIO MEIRA KM 5001 PARTE    VOLTA REDONDA                           27260390RJ2445100001028846050001446-01  29092010014RIO DE JANEIRO      3010201000000000010785093CC                                                                                                                                                                                                                                                                                                                                                                                           112792-5      000008
1016420932333COBR_CAUC_BIC  COCELPA CIA DE CEL PAPEL DO PR          042564807000105CSN CIMENTOS S/A                        ROD BR 393 LUCIO MEIRA KM 5001 PARTE    VOLTA REDONDA                           27260390RJ2445100002028846210001445-01  29092010014RIO DE JANEIRO      3010201000000000010785093CC                                                                                                                                                                                                                                                                                                                                                                                           112792-6      000009
1032421000854COBR_CAUC_COR  METALURGICA IANY IND E COM LTDA         076639285000339FERRAGENS NEGRAO COMERCIAL LTDA.-       RUA PROF. ALGACYR M. MADER,2800, 2800   CURITIBA - PR                           81310020PR2445200001084112138226-1/1    28092010900BRADESCO S/A        1211201000000000012089539CC                                                                                                                                                                                                                                                                                                                                                                                           112792-7      000010
1014421008188COBR_CAUC_COR  YARA ALIMENTOS LTDA                     062808506000340CASA FLORA LTDA                         R MONSENHOR ANDRADE, 388                SAO PAULO                               03008000SP24453000010057664955166001    29092010900BRADESCO S/A        1410201000000000021999999CC                                                                                                                                                                                                                                                                                                                                                                                           112792-8      000011
1022421000024COBR_CAUC_COR  BON MART FRIGORIFICO LTDA               050947761001871IRMAOS RUSSI LTDA. (R.14)               RUA LUIZ ALLI FARDYN 59003              CAJAMAR                                 07750000SP244540000100166617132301-1    29092010900BRADESCO S/A        2910201000000000014527258CC                                                                                                                                                                                                                                                                                                                                                                                           112792-9      000012
1017141000044COBR_CAUC_BIC  ELINALDO JOSE DA SILVA ME               012274379000107LAGINHA AGROINDUSTRIAL S/A-FILIAL       ROD.AL 101 NORTE KM 06, N.3600          MACEIO                                  57033070AL2445500001025113131331        30092010017MACEIO              1511201000000000010386290TD                                                                                                                                                                                                                                                                                                                                                                                           112792-10     000013
1017141000044COBR_CAUC_BIC  ELINALDO JOSE DA SILVA ME               012274379000107LAGINHA AGROINDUSTRIAL S/A-FILIAL       ROD.AL 101 NORTE KM 06, N.3600          MACEIO                                  57033070AL2445500002025113481333        30092010017MACEIO              3011201000000000010386290TD                                                                                                                                                                                                                                                                                                                                                                                           112792-11     000014
1017141000044COBR_CAUC_BIC  ELINALDO JOSE DA SILVA ME               012274379000107LAGINHA AGROINDUSTRIAL S/A-FILIAL       ROD.AL 101 NORTE KM 06, N.3600          MACEIO                                  57033070AL2445500003025113561337        30092010017MACEIO              1512201000000000010386290TD                                                                                                                                                                                                                                                                                                                                                                                           112792-12     000015
1017141000044COBR_CAUC_BIC  ELINALDO JOSE DA SILVA ME               012274379000107LAGINHA AGROINDUSTRIAL S/A-FILIAL       ROD.AL 101 NORTE KM 06, N.3600          MACEIO                                  57033070AL24455000040251137213441       28092010900MACEIO              3012201000000000015739428TD                                                                                                                                                                                                                                                                                                                                                                                           112792-13     000016
1017141000044COBR_CAUC_BIC  ELINALDO JOSE DA SILVA ME               012274379000107LAGINHA AGROINDUSTRIAL S/A-FILIAL       ROD.AL 101 NORTE KM 06, N.3600          MACEIO                                  57033070AL24455000050251139913442       28092010900MACEIO              1501201100000000015739430TD                                                                                                                                                                                                                                                                                                                                                                                           112792-14     000017
1017141000044COBR_CAUC_BIC  ELINALDO JOSE DA SILVA ME               012274379000107LAGINHA AGROINDUSTRIAL S/A-FILIAL       ROD.AL 101 NORTE KM 06, N.3600          MACEIO                                  57033070AL24455000060251140213443       28092010900MACEIO              3001201100000000015739430TD                                                                                                                                                                                                                                                                                                                                                                                           112792-15     000018
1017141000044COBR_CAUC_BIC  ELINALDO JOSE DA SILVA ME               012274379000107LAGINHA AGROINDUSTRIAL S/A-FILIAL       ROD.AL 101 NORTE KM 06, N.3600          MACEIO                                  57033070AL24455000070251141113444       28092010900MACEIO              1502201100000000015739430TD                                                                                                                                                                                                                                                                                                                                                                                           112792-16     000019
1017141000044COBR_CAUC_BIC  ELINALDO JOSE DA SILVA ME               012274379000107LAGINHA AGROINDUSTRIAL S/A-FILIAL       ROD.AL 101 NORTE KM 06, N.3600          MACEIO                                  57033070AL24455000080251142913445       28092010900MACEIO              0203201100000000015739430TD                                                                                                                                                                                                                                                                                                                                                                                           112792-17     000020
1017141010961COBR_CAUC_BIC  GTS FERT. E DEFENSIVOS LTDA             012274379000450LAGINHA AGROINDUSTRIAL S/A-FILIAL       ROD.AL 101 NORTE KM 06, N.3600          MACEIO                                  57033070AL2445600001025114452821B       01062010017MACEIO              3010201000000000038553000TD                                                                                                                                                                                                                                                                                                                                                                                           112792-18     000021
1017141010961COBR_CAUC_BIC  GTS FERT. E DEFENSIVOS LTDA             012274379000450LAGINHA AGROINDUSTRIAL S/A-FILIAL       ROD.AL 101 NORTE KM 06, N.3600          MACEIO                                  57033070AL2445600002025114532822/B      01062010017MACEIO              3010201000000000016240000TD                                                                                                                                                                                                                                                                                                                                                                                           112792-19     000022
1017141010961COBR_CAUC_BIC  GTS FERT. E DEFENSIVOS LTDA             012274379000450LAGINHA AGROINDUSTRIAL S/A-FILIAL       ROD.AL 101 NORTE KM 06, N.3600          MACEIO                                  57033070AL2445600003025114702822/C      01062010017MACEIO              3011201000000000016240000TD                                                                                                                                                                                                                                                                                                                                                                                           112792-20     000023
1017141010961COBR_CAUC_BIC  GTS FERT. E DEFENSIVOS LTDA             012274379000450LAGINHA AGROINDUSTRIAL S/A-FILIAL       ROD.AL 101 NORTE KM 06, N.3600          MACEIO                                  57033070AL2445600004025114612823B       01062010900MACEIO              3010201000000000047908000TD                                                                                                                                                                                                                                                                                                                                                                                           112792-21     000024
9000023                                                                                                                                                                                                                                                                                                                                                                                                                                                                                                                                                                                                                                                                                                               000025
