0REMESSANOTIFICAÇÃO ELETRONICA        99999999999999Bicbanco S/A                            Avenida Brigadeiro Faria Lima           4.440     2º andar  Itaim Bibi                    São Paulo                     04538132SPBicbanco S/A                                                                    12092014                                                                                                                                                                                                                                                                                                                                                                                                000001
1020421002020COBR_CAUC_COR  GRABER SISTEMAS DE SEGURANCA LTDA       010588595000363MEDLEY COMERCIAL E LOGISTICA L          R ESTACIO DE SA, 1490 - JD SANTA GENEBRACAMPINAS                                13080010SP4910700001000182810000008032  09092014900BRADESCO S/A        0110201400000000014914867CC                                                                                                                                                                                                                                                                                                                                                                                           321560-1      000002
1048421002195COBR_CAUC_COR  SERVIMED COMERCIAL LTDA                 011059197000312MEDCOMERCE DELIVERY DE MEDS E           AV CASTELO BRANCO 945                   GOIANIA                                 75510360GO49108000010225069123092923    09092014900BRADESCO S/A        0710201400000000046928339CC                                                                                                                                                                                                                                                                                                                                                                                           321560-2      000003
1007421065309COBR_CAUC_BIC  OCEANO IND.GRAFICA E EDITORA LTDA       042179671000101DART DO BRASIL IND E COM LTDA           ESTRADA DA ILHA,870                     RIO DE JANEIRO                          23020230RJ49109000010326238276124       10092014014RIO DE JANEIRO      3009201400000000018425880CC                                                                                                                                                                                                                                                                                                                                                                                           321560-3      000004
1018421010323COBR_CAUC_BIC  PRODUBON NUTRICAO ANIMAL LTDA           000000794902634SEBASTIAO RIBEIRO FLOR E OUTRO (ES      RUA 7 N354 ED BRITANIA SL101            GOIANIA                                 74023020GO491100000103831560057685/5    18062014018GOIANIA             1012201400000000012800000CC                                                                                                                                                                                                                                                                                                                                                                                           321560-4      000005
1007421057772COBR_CAUC_COR  TIMBRO COMERCIO EXTERIOR LTDA           033115726000129LSM BRASIL LTDA                         BR-383,S/N DO KM93000 AO 94000          SAO JOAO DEL RE                         36302812MG491110000103259977331         27082014700BANCO REAL- ABN AMRO1310201400000000018054024CC                                                                                                                                                                                                                                                                                                                                                                                           321560-5      000006
1007421057772COBR_CAUC_COR  TIMBRO COMERCIO EXTERIOR LTDA           033115726000129LSM BRASIL LTDA                         BR-383,S/N DO KM93000 AO 94000          SAO JOAO DEL RE                         36302812MG491110000203259985332         27082014700BANCO REAL- ABN AMRO1310201400000000018083902CC                                                                                                                                                                                                                                                                                                                                                                                           321560-6      000007
1007421057772COBR_CAUC_COR  TIMBRO COMERCIO EXTERIOR LTDA           033115726000129LSM BRASIL LTDA                         BR-383,S/N DO KM93000 AO 94000          SAO JOAO DEL RE                         36302812MG491110000303260011333         27082014700BANCO REAL- ABN AMRO1310201400000000017852344CC                                                                                                                                                                                                                                                                                                                                                                                           321560-7      000008
1007421057772COBR_CAUC_COR  TIMBRO COMERCIO EXTERIOR LTDA           033115726000129LSM BRASIL LTDA                         BR-383,S/N DO KM93000 AO 94000          SAO JOAO DEL RE                         36302812MG491110000403260037335         27082014700BANCO REAL- ABN AMRO1310201400000000017777648CC                                                                                                                                                                                                                                                                                                                                                                                           321560-8      000009
1007421057772COBR_CAUC_COR  TIMBRO COMERCIO EXTERIOR LTDA           033115726000129LSM BRASIL LTDA                         BR-383,S/N DO KM93000 AO 94000          SAO JOAO DEL RE                         36302812MG491110000503260045336         27082014700BANCO REAL- ABN AMRO1310201400000000017919570CC                                                                                                                                                                                                                                                                                                                                                                                           321560-9      000010
9000009                                                                                                                                                                                                                                                                                                                                                                                                                                                                                                                                                                                                                                                                                                               000011
