0REMESSANOTIFICAÇÃO ELETRONICA        99999999999999Bicbanco S/A                            Avenida Brigadeiro Faria Lima           4.440     2º andar  Itaim Bibi                    São Paulo                     04538132SPBicbanco S/A                                                                    15012014                                                                                                                                                                                                                                                                                                                                                                                                000001
1015421021867COBR_CAUC_COR  COTRIJUI COOP AGROP & INDUSTRIAL        008474030000141MEDEIROS FRIOS E CONGELADOS LTDA-       RUA DIAS CARNEIRO 1977                  BACABAL                                 65700000MA460270000100235828178803-1    10012014900BRADESCO S/A        1701201400000000014127000CC                                                                                                                                                                                                                                                                                                                                                                                           278404-1      000002
1020421002020COBR_CAUC_COR  GRABER SISTEMAS DE SEGURANCA LTDA       010588595000363MEDLEY COMERCIAL E LOGISTICA L          R ESTACIO DE SA, 1490 - JD SANTA GENEBRACAMPINAS                                13080010SP4602600001000143310000007121  10012014900BRADESCO S/A        0102201400000000013987495CC                                                                                                                                                                                                                                                                                                                                                                                           278404-2      000003
1008421001102COBR_CAUC_COR  IRACEMA IND COM CASTANHA CAJU LTDA      004175027000338GLOBALBEV BEBIDAS E ALIMENTOS SA        AVNOSSA SENHORA DO CARMO, 900           BELO HORIZONTE                          30330000MG4603100001090617990104923222  07012014800UNIBANCO S/A        2102201400000000008469989CC                                                                                                                                                                                                                                                                                                                                                                                           278404-3      000004
1008421001102COBR_CAUC_COR  IRACEMA IND COM CASTANHA CAJU LTDA      004175027000338GLOBALBEV BEBIDAS E ALIMENTOS SA        AVNOSSA SENHORA DO CARMO, 900           BELO HORIZONTE                          30330000MG4603100002090618020104923223  07012014800UNIBANCO S/A        2102201400000000008469989CC                                                                                                                                                                                                                                                                                                                                                                                           278404-4      000005
1008421001102COBR_CAUC_COR  IRACEMA IND COM CASTANHA CAJU LTDA      004175027000338GLOBALBEV BEBIDAS E ALIMENTOS SA        AVNOSSA SENHORA DO CARMO, 900           BELO HORIZONTE                          30330000MG4603100003090618110104927221  10012014800UNIBANCO S/A        2402201400000000008224409CC                                                                                                                                                                                                                                                                                                                                                                                           278404-5      000006
1008421001102COBR_CAUC_COR  IRACEMA IND COM CASTANHA CAJU LTDA      004175027000338GLOBALBEV BEBIDAS E ALIMENTOS SA        AVNOSSA SENHORA DO CARMO, 900           BELO HORIZONTE                          30330000MG4603100004090618290104927222  10012014800UNIBANCO S/A        2402201400000000008224409CC                                                                                                                                                                                                                                                                                                                                                                                           278404-6      000007
1008421001102COBR_CAUC_COR  IRACEMA IND COM CASTANHA CAJU LTDA      004175027000338GLOBALBEV BEBIDAS E ALIMENTOS SA        AVNOSSA SENHORA DO CARMO, 900           BELO HORIZONTE                          30330000MG4603100005090618370104927223  10012014800UNIBANCO S/A        2402201400000000008224409CC                                                                                                                                                                                                                                                                                                                                                                                           278404-7      000008
1046421006070DIR_CREDIT     METALURGICA DS LTDA                     060857349000176TRW AUTOMOTIVE LTDA                     VIA ANHANGUERA KM 147                   LIMEIRA                                 13486915SP4600100001                                                                                                                                          012474646           260320070000018698            09012014017002fornecimento de discos e tambores de freio para automoveis                                                                                                                                                                                      079414868000198278404-8      000009
1044421012724DIR_CREDIT     NATAL HOSPITAL CENTER S/A               063554067000198HAPVIDA ASSISTENCIA MEDICA LTDA         AV HERáCLITO GRAçA,406 CENTRO           FORTALEZA                               60140061CE4597700001                                                                                                                                          012463021           010120130000025348S/N         08012014000404prestação de serviços medicos.                                                                                                                                                                                                                  002109397000180278404-9      000010
1045421013761DIR_CREDIT     NUCLEO DE GESTAO INF COM SERVICO        003264927000127MANAUS AMBIENTAL S/A                    RUA DO BOMBEAMENTO Nº 01                MANAUS                                  69029000AM4593600001                                                                                                                                          012449181           021220130000025298250/2013    03012014000404prestação de serviços técnicos especializados de engenharia para captação de novos clientes, potencialização da base cadastral e redução de perdas comerciais nas áreas abastecidas por Ponta das Lajes, etc.                                   004009820000103278404-10     000011
1044421012350DIR_CREDIT     PAPI PRONTO SOCORRO                     008380701000105UNIMED NATAL                            RUA MIPIBU, 511 - PETRÓPOLIS            NATAL                                   59020250RN4598000001                                                                                                                                          012469593           260320080000005352001         08012014000404atendimento médico ambulatorial dos conveniados da UNIMED                                                                                                                                                                                       008423220000130278404-11     000012
1014421025163DIR_CREDIT     REALMAR DISTRIBUIDORA LTDA              027406222000165DACASA FINANCEIRA S/A - SCFI            AV NOSSA SENHORA DA PENHA 2035          VITORIA                                 29056245ES4603000001                                                                                                                                          012383676           020720040000024113S/NR        30102013051902determinação das normas, condições e obrigações referentes a vinculaçãodo Estabelecimento ao Sistema Dacasa de Cartões de Crédito.                                                                                                              003845717000122278404-12     000013
1019421004658COBR_CAUC_COR  S/A ESTADO DE MINAS                     016705345000180SINDICATO DAS EMP.TRANSP.PASSAG.MG      AIMORES 2152BR                          BELO HORIZONTE                          30140072MG4602500001012802412157998-1   10012014900BRADESCO S/A        3001201400000000020000000CC                                                                                                                                                                                                                                                                                                                                                                                           278404-13     000014
1019421004658COBR_CAUC_COR  S/A ESTADO DE MINAS                     016705345000180SINDICATO DAS EMP.TRANSP.PASSAG.MG      AIMORES 2152BR                          BELO HORIZONTE                          30140072MG4602500002012802592157999-1   10012014900BRADESCO S/A        2802201400000000020000000CC                                                                                                                                                                                                                                                                                                                                                                                           278404-14     000015
1045421005424DIR_CREDIT     SAO LUCAS MEDICO HOSPITALAR LTDA        013360276000122UNIMED SERGIPE - COOP DE TRAB MEDICO    RUA SOCORRO 100_ SAO JOSE               ARACAJU                                 49015300SE4601400001                                                                                                                                          012470644           01052003000000852505/2003     10012014000404Contrato de prestação de serviços hospitalares aos beneficiários dos planos de saúde operacionalizados pela contratante.                                                                                                                        013131370000100278404-15     000016
9000015                                                                                                                                                                                                                                                                                                                                                                                                                                                                                                                                                                                                                                                                                                               000017
