0REMESSANOTIFICAÇÃO ELETRONICA        99999999999999Bicbanco S/A                            Avenida Brigadeiro Faria Lima           4.440     2º andar  Itaim Bibi                    São Paulo                     04538132SPBicbanco S/A                                                                    22092014                                                                                                                                                                                                                                                                                                                                                                                                000001
1021421015678DIR_CREDIT     USINA SANTA ROSA LTDA                   023314594000100ALESAT COMBUSTÍVEIS S/A                 RUA MANOEL DE CASTRO Nº 1170 CANDELARIA NATAL                                   59064010RN4911300001                                                                                                                                          012433947           1311201300000252052013.US.052 29112013000403compra e venda do volume total de 540m3 de Etanol Hidratado para ser entregue entre 01/07/2014 até 30/09/2014.                                                                                                                                  045483146000173323347-1      000002
1046421006070DIR_CREDIT     METALURGICA DS LTDA                     060857349000176TRW AUTOMOTIVE LTDA                     VIA ANHANGUERA KM 147                   LIMEIRA                                 13486915SP4911900001                                                                                                                                          012672260           260320070000018698            11092014000404fornecimento de discos e tambores de freio para automóveis.                                                                                                                                                                                     079414868000198323347-2      000003
1007421072259COBR_CAUC_COR  BOMBRIL S/A                             011517841004931COMPANHIA SULAMERICANA DE DIST          AV IVAI S/N                             PAICANDU                                87140000PR4917400001032873421021205001  30082014900BRADESCO S/A        0610201400000000012203216CC                                                                                                                                                                                                                                                                                                                                                                                           323347-3      000004
1003421013987COBR_CAUC_COR  SCIENTIFIC COM E IMPORTACAO LTDA        000029372000140GE HC DO BRASIL COM. SERV. EQUIP M      AV DAS NACOES UNIDAS,8501               SAO PAULO                               05425070SP4917500001001143221104        11092014900BRADESCO S/A        2609201400000000013314322CC                                                                                                                                                                                                                                                                                                                                                                                           323347-4      000005
1046421001109COBR_CAUC_BIC  C-PACK CREATIVE PACKAGING S/A           001615814006487UNILEVER BRASIL INDUSTRIAL LTDA         AV FCO MATARAZZO, 1500 10§              SAO PAULO                               05001200SP491760000102502074006485801   09092014007PAULISTA            0701201500000000011616395CC                                                                                                                                                                                                                                                                                                                                                                                           323347-5      000006
1050421000089COBR_CAUC_BIC  ATIVO ALIMENTOS EXP E IMP EIRELI        005054671001554LIDER COMERCIO E INDUSTRIA LTDA         RUA DOSPARIQUIS SALA 01 1056            BELEM                                   66033590PA491770000100608652273808/1    17092014050BELEM               1710201400000000018643686CC                                                                                                                                                                                                                                                                                                                                                                                           323347-6      000007
1015421021867COBR_CAUC_COR  COTRIJUI COOP AGROP & INDUSTRIAL        008797179000161DSG DISTRIB. DE ALIMENTOS LTDA          SALATIEL MARQUES FONTES, 695            SOUSA                                   58806410PB491780000100463022204194-1    17092014900BRADESCO S/A        2409201400000000017812500CC                                                                                                                                                                                                                                                                                                                                                                                           323347-7      000008
1031421011181COBR_CAUC_BIC  AGROIND IRMAOS DALLA COSTA LTDA         007760885001571MERCADO TORRE DE JACAREPAGUA LTDA       RUA DA FARINHA 00397                    RIO DE JANEIRO                          21011010RJ49179000010544272714207/1     05092014014RIO DE JANEIRO      0310201400000000017316000CC                                                                                                                                                                                                                                                                                                                                                                                           323347-8      000009
1007421055095COBR_CAUC_COR  PLASTER COM DE RESINAS PLAST EIRELI     001625072000197TOPACK DO BRASIL LTDA                   AV PROJETADA,3615                       AMERICANA                               13475000SP491800000100022950043834/A    17092014900BRADESCO S/A        3010201400000000016112250CC                                                                                                                                                                                                                                                                                                                                                                                           323347-9      000010
9000009                                                                                                                                                                                                                                                                                                                                                                                                                                                                                                                                                                                                                                                                                                               000011
