0REMESSANOTIFICAÇÃO ELETRONICA        99999999999999Bicbanco S/A                            Avenida Brigadeiro Faria Lima           4.440     2º andar  Itaim Bibi                    São Paulo                     04538132SPBicbanco S/A                                                                    13022013                                                                                                                                                                                                                                                                                                                                                                                                000001
1031421007850COBR_CAUC_BIC  AGRICOLA JANDELLE S/A                   010319375000172MULTI FORMATO DISTRIBUIDORA SOCIED      AVENIDA MANOEL JACINTO COELHO JUNIOR 901CONTAGEM                                32150245MG4006900001051743150010905201  01022013019BELO HORIZONTE      0703201300000000013232934CC                                                                                                                                                                                                                                                                                                                                                                                           220606-1      000002
1050421000089COBR_CAUC_BIC  ATIVO ALIMENTOS EXP E IMP EIRELI        028664456000337SUPERMERCADO CRISTAL LTDA               RUA ANTONIO JOSE BITTENCOURT 429        RIO DE JANEIRO                          26535000RJ400710000100423237175475/1    02022013014RIO DE JANEIRO      1602201300000000028990112CC                                                                                                                                                                                                                                                                                                                                                                                           220606-2      000003
1044421014794DIR_CREDIT     DROGUISTAS POTIGUARES REUNIDAS LTDA     008241754000145SECRETARIA DE ESTADO DA SAUDE PUBLICA   AV DEODORO DA FONSECA,730               NATAL                                   59025600RN3997200001                                                                                                                                          011655989           201220100000017099PE763/10    29112012000403fornecimento de medicamento á secretaria de saude. descrição: citrato sildenafila revatio 20mg cx c/90 cpr pfizer - lote 0716810 , qtde 285 - validade 01/2012                                                                                  008401564000148220606-3      000004
1044421014794DIR_CREDIT     DROGUISTAS POTIGUARES REUNIDAS LTDA     008241754000145SECRETARIA DE ESTADO DA SAUDE PUBLICA   AV DEODORO DA FONSECA,730               NATAL                                   59025600RN3997400001                                                                                                                                          011655989           061220100000017106011/09      29112012000403fornecimento de medicamento à secretaria de saúde.                                                                                                                                                                                              008401564000148220606-4      000005
1044421014794DIR_CREDIT     DROGUISTAS POTIGUARES REUNIDAS LTDA     008241754000145SECRETARIA DE ESTADO DA SAUDE PUBLICA   AV DEODORO DA FONSECA,730               NATAL                                   59025600RN3997300001                                                                                                                                          011655989           161120100000017104ATA PREçO 0329112012000403fornecimento de medicamentos à secretaria de saúde do estado do rn.                                                                                                                                                                             008401564000148220606-5      000006
1007421031242COBR_CAUC_BIC  GP GUARDA PATRIMONIAL DE S.P. LTDA      000007618080860JOSE OSWALDO RIBEIRO DE MENDONCA        RUA CRISTOVAO DINIZ67                   SAO PAULO                               01426020SP40067000010007379188723       01022013007PAULISTA            0103201300000000011068990CC                                                                                                                                                                                                                                                                                                                                                                                           220606-6      000007
1020421002020COBR_CAUC_COR  GRABER SISTEMAS DE SEGURANCA LTDA       010588595000363MEDLEY COMERCIAL E LOGISTICA L          R ESTACIO DE SA, 1490 - JD SANTA GENEBRACAMPINAS                                13080010SP400660000100002899000004787   01022013900BRADESCO S/A        0103201300000000013332049CC                                                                                                                                                                                                                                                                                                                                                                                           220606-7      000008
1006420933059COBR_CAUC_BIC  IMARF BENEFICIAMENTO DE GRANITOS LT     000475251000122PAULO OCTAVIO INVESTIMENTOS IMOBIL      SCN QUADRA 01,125                       BRASILIA                                70711900DF4006800001093790842970        04022013009BRASILIA            0403201300000000010017108CC                                                                                                                                                                                                                                                                                                                                                                                           220606-8      000009
1007421061559COBR_CAUC_BIC  PLASCAR IND DE COMP PLAST LTDA          059275792000826GENERAL MOTORS DO BRASIL LTDA.          AV. GOIAS, 1805                         SAO CAETANO DO                          09550900SP4007000001017196520356425 01  05112012038ABC                 2204201300000000052383734CC                                                                                                                                                                                                                                                                                                                                                                                           220606-9      000010
1038420932914COBR_CAUC_BIC  INDS GER DE PARAF INGEPAL LTDA          059274332000107INDUSTRIA METALPLASTICA IRBAS LTDA      NEUCHATEL363                            SAO BERNARDO DO                         09663020SP4010800001099936970000067518  03012013038ABC                 0702201300000000000113608CC                                                                                                                                                                                                                                                                                                                                                                                           220921-1      000011
1038420932914COBR_CAUC_BIC  INDS GER DE PARAF INGEPAL LTDA          059274332000107INDUSTRIA METALPLASTICA IRBAS LTDA      NEUCHATEL363                            SAO BERNARDO DO                         09663020SP4010800002099938160000067731  16012013038ABC                 2002201300000000000218739CC                                                                                                                                                                                                                                                                                                                                                                                           220921-2      000012
1038420932914COBR_CAUC_BIC  INDS GER DE PARAF INGEPAL LTDA          002042860000113ALLEVARD MOLAS DO BRASIL LTDA           JOSÉ FABIANO DE CRISTO GURJÃO411        MOGI-MIRIM                              13803705SP4011000001099937510000067676  11012013021CAMPINAS            0802201300000000000630180CC                                                                                                                                                                                                                                                                                                                                                                                           220921-3      000013
1038420932914COBR_CAUC_BIC  INDS GER DE PARAF INGEPAL LTDA          002042860000113ALLEVARD MOLAS DO BRASIL LTDA           JOSÉ FABIANO DE CRISTO GURJÃO411        MOGI-MIRIM                              13803705SP4011000002099937780000067699  14012013021CAMPINAS            1102201300000000000222462CC                                                                                                                                                                                                                                                                                                                                                                                           220921-4      000014
1038420932914COBR_CAUC_BIC  INDS GER DE PARAF INGEPAL LTDA          002042860000113ALLEVARD MOLAS DO BRASIL LTDA           JOSÉ FABIANO DE CRISTO GURJÃO411        MOGI-MIRIM                              13803705SP4011000003099938240000067741  16012013021CAMPINAS            1302201300000000000371281CC                                                                                                                                                                                                                                                                                                                                                                                           220921-5      000015
1038420932914COBR_CAUC_BIC  INDS GER DE PARAF INGEPAL LTDA          002042860000113ALLEVARD MOLAS DO BRASIL LTDA           JOSÉ FABIANO DE CRISTO GURJÃO411        MOGI-MIRIM                              13803705SP4011000004099938320000067742  16012013021CAMPINAS            1302201300000000000581120CC                                                                                                                                                                                                                                                                                                                                                                                           220921-6      000016
1038420932914COBR_CAUC_COR  INDS GER DE PARAF INGEPAL LTDA          061156113000175IOCHPE MAXION S/A                       OTHON BARCELLOS83                       CRUZEIRO                                12730900SP4010900001099938080000067718  15012013900BRADESCO S/A        1202201300000000000382983CC                                                                                                                                                                                                                                                                                                                                                                                           220921-7      000017
1022421007720COBR_CAUC_COR  JUMIL-JUSTINO DE MORAIS IRMAOS S/A      000079081479172MABIO LUIZ DE MOURA                     RUA 17, SALA 09, 113                    ITUMBIARA                               75532570GO400850000104489071139220E.02  30012013800UNIBANCO S/A        3005201300000000027450000CC                                                                                                                                                                                                                                                                                                                                                                                           220921-8      000018
1050421002855COBR_CAUC_COR  C F SANTOS COM DE ALIMENTOS LTDA        004899316000118IMIFARMA PRODUTOS FARMAC. E COSMET      TV QUINTINO BOCAIUVA 381,381            BELEM                                   66053240PA401120000100000221287362      06022013900BRADESCO S/A        2103201300000000013576770CC                                                                                                                                                                                                                                                                                                                                                                                           221012-1      000019
1038420932914COBR_CAUC_BIC  INDS GER DE PARAF INGEPAL LTDA          004532167000154BMB MODE CENTER IND.COM.E SERVIÇOS      R.RENATO MONTEIRO,8005-POLO URB.AGRO.INDPORTO REAL                              27570000RJ4012800001099938750000067766  17012013014RIO DE JANEIRO      1402201300000000000163024CC                                                                                                                                                                                                                                                                                                                                                                                           221012-2      000020
1038420932914COBR_CAUC_BIC  INDS GER DE PARAF INGEPAL LTDA          010602108000108SAVA COM.DISTR.E LOG.PEÇAS FIX.MEC      RUA TAMIRIM,08-VILA ALPINA              SAO PAULO                               03204050SP4013500001099896570000067440  18122012007PAULISTA            0204201300000000000566225CC                                                                                                                                                                                                                                                                                                                                                                                           221012-3      000021
1038420932914COBR_CAUC_BIC  INDS GER DE PARAF INGEPAL LTDA          010602108000108SAVA COM.DISTR.E LOG.PEÇAS FIX.MEC      RUA TAMIRIM,08-VILA ALPINA              SAO PAULO                               03204050SP4013500002099896650000067440  18122012007PAULISTA            0403201300000000000566225CC                                                                                                                                                                                                                                                                                                                                                                                           221012-4      000022
1038420932914COBR_CAUC_BIC  INDS GER DE PARAF INGEPAL LTDA          010602108000108SAVA COM.DISTR.E LOG.PEÇAS FIX.MEC      RUA TAMIRIM,08-VILA ALPINA              SAO PAULO                               03204050SP4013500003099936380000067440  18122012007PAULISTA            1705201300000000000566225CC                                                                                                                                                                                                                                                                                                                                                                                           221012-5      000023
1038420932914COBR_CAUC_BIC  INDS GER DE PARAF INGEPAL LTDA          010602108000108SAVA COM.DISTR.E LOG.PEÇAS FIX.MEC      RUA TAMIRIM,08-VILA ALPINA              SAO PAULO                               03204050SP4013500004099936460000067440  18122012007PAULISTA            0205201300000000000566225CC                                                                                                                                                                                                                                                                                                                                                                                           221012-6      000024
1038420932914COBR_CAUC_BIC  INDS GER DE PARAF INGEPAL LTDA          010602108000108SAVA COM.DISTR.E LOG.PEÇAS FIX.MEC      RUA TAMIRIM,08-VILA ALPINA              SAO PAULO                               03204050SP4013500005099896730000067444  18122012007PAULISTA            1802201300000000000217067CC                                                                                                                                                                                                                                                                                                                                                                                           221012-7      000025
1038420932914COBR_CAUC_BIC  INDS GER DE PARAF INGEPAL LTDA          010602108000108SAVA COM.DISTR.E LOG.PEÇAS FIX.MEC      RUA TAMIRIM,08-VILA ALPINA              SAO PAULO                               03204050SP4013500006099936540000067444  18122012007PAULISTA            1803201300000000000217067CC                                                                                                                                                                                                                                                                                                                                                                                           221012-8      000026
1038420932914COBR_CAUC_BIC  INDS GER DE PARAF INGEPAL LTDA          010602108000108SAVA COM.DISTR.E LOG.PEÇAS FIX.MEC      RUA TAMIRIM,08-VILA ALPINA              SAO PAULO                               03204050SP4013500007099771100000067445  18122012007PAULISTA            1802201300000000000383123CC                                                                                                                                                                                                                                                                                                                                                                                           221012-9      000027
1038420932914COBR_CAUC_BIC  INDS GER DE PARAF INGEPAL LTDA          010602108000108SAVA COM.DISTR.E LOG.PEÇAS FIX.MEC      RUA TAMIRIM,08-VILA ALPINA              SAO PAULO                               03204050SP4013500008099936620000067445  18122012007PAULISTA            1803201300000000000383123CC                                                                                                                                                                                                                                                                                                                                                                                           221012-10     000028
1038420932914COBR_CAUC_BIC  INDS GER DE PARAF INGEPAL LTDA          010602108000108SAVA COM.DISTR.E LOG.PEÇAS FIX.MEC      RUA TAMIRIM,08-VILA ALPINA              SAO PAULO                               03204050SP4013500009099896810000067447  18122012007PAULISTA            0403201300000000001823464CC                                                                                                                                                                                                                                                                                                                                                                                           221012-11     000029
1038420932914COBR_CAUC_BIC  INDS GER DE PARAF INGEPAL LTDA          010602108000108SAVA COM.DISTR.E LOG.PEÇAS FIX.MEC      RUA TAMIRIM,08-VILA ALPINA              SAO PAULO                               03204050SP4013500010099896900000067447  18122012007PAULISTA            0204201300000000001823464CC                                                                                                                                                                                                                                                                                                                                                                                           221012-12     000030
1038420932914COBR_CAUC_BIC  INDS GER DE PARAF INGEPAL LTDA          010602108000108SAVA COM.DISTR.E LOG.PEÇAS FIX.MEC      RUA TAMIRIM,08-VILA ALPINA              SAO PAULO                               03204050SP4013500011099936710000067447  18122012007PAULISTA            0205201300000000001823464CC                                                                                                                                                                                                                                                                                                                                                                                           221012-13     000031
1038420932914COBR_CAUC_BIC  INDS GER DE PARAF INGEPAL LTDA          010602108000108SAVA COM.DISTR.E LOG.PEÇAS FIX.MEC      RUA TAMIRIM,08-VILA ALPINA              SAO PAULO                               03204050SP4013500012099936890000067447  18122012007PAULISTA            1705201300000000001823464CC                                                                                                                                                                                                                                                                                                                                                                                           221012-14     000032
1038420932914COBR_CAUC_BIC  INDS GER DE PARAF INGEPAL LTDA          010602108000108SAVA COM.DISTR.E LOG.PEÇAS FIX.MEC      RUA TAMIRIM,08-VILA ALPINA              SAO PAULO                               03204050SP4013500013099937860000067713  15012013007PAULISTA            1402201300000000000042802CC                                                                                                                                                                                                                                                                                                                                                                                           221012-15     000033
1038420932914COBR_CAUC_BIC  INDS GER DE PARAF INGEPAL LTDA          010602108000108SAVA COM.DISTR.E LOG.PEÇAS FIX.MEC      RUA TAMIRIM,08-VILA ALPINA              SAO PAULO                               03204050SP4013500014099937940000067713  15012013007PAULISTA            1803201300000000000042803CC                                                                                                                                                                                                                                                                                                                                                                                           221012-16     000034
1038420932914COBR_CAUC_BIC  INDS GER DE PARAF INGEPAL LTDA          010602108000108SAVA COM.DISTR.E LOG.PEÇAS FIX.MEC      RUA TAMIRIM,08-VILA ALPINA              SAO PAULO                               03204050SP4013500015099938910000067780  17012013007PAULISTA            1802201300000000000060309CC                                                                                                                                                                                                                                                                                                                                                                                           221012-17     000035
1038420932914COBR_CAUC_BIC  INDS GER DE PARAF INGEPAL LTDA          010602108000108SAVA COM.DISTR.E LOG.PEÇAS FIX.MEC      RUA TAMIRIM,08-VILA ALPINA              SAO PAULO                               03204050SP4013500016099939050000067780  17012013007PAULISTA            1803201300000000000060309CC                                                                                                                                                                                                                                                                                                                                                                                           221012-18     000036
1038420932914COBR_CAUC_COR  INDS GER DE PARAF INGEPAL LTDA          079131918000120NOMA DO BRASIL LTDA.                    ROD BR 376,Nº336 KM 415-JARDIM IMPERIAL SARANDI                                 87111010PR4013400001099897030000067489  26122012600HSBC BANK BRASIL    1102201300000000000379816CC                                                                                                                                                                                                                                                                                                                                                                                           221012-19     000037
1038420932914COBR_CAUC_COR  INDS GER DE PARAF INGEPAL LTDA          079131918000120NOMA DO BRASIL LTDA.                    ROD BR 376,Nº336 KM 415-JARDIM IMPERIAL SARANDI                                 87111010PR4013400002099937190000067611  09012013600HSBC BANK BRASIL    2502201300000000000122752CC                                                                                                                                                                                                                                                                                                                                                                                           221012-20     000038
1038420932914COBR_CAUC_COR  INDS GER DE PARAF INGEPAL LTDA          079131918000120NOMA DO BRASIL LTDA.                    ROD BR 376,Nº336 KM 415-JARDIM IMPERIAL SARANDI                                 87111010PR4013400003099937270000067612  09012013600HSBC BANK BRASIL    2502201300000000000505458CC                                                                                                                                                                                                                                                                                                                                                                                           221012-21     000039
1038420932914COBR_CAUC_COR  INDS GER DE PARAF INGEPAL LTDA          079131918000120NOMA DO BRASIL LTDA.                    ROD BR 376,Nº336 KM 415-JARDIM IMPERIAL SARANDI                                 87111010PR4013400004099937600000067691  14012013600HSBC BANK BRASIL    2802201300000000001008048CC                                                                                                                                                                                                                                                                                                                                                                                           221012-22     000040
1038420932914COBR_CAUC_COR  INDS GER DE PARAF INGEPAL LTDA          079131918000120NOMA DO BRASIL LTDA.                    ROD BR 376,Nº336 KM 415-JARDIM IMPERIAL SARANDI                                 87111010PR4013400005099938830000067772  17012013600HSBC BANK BRASIL    0403201300000000001791776CC                                                                                                                                                                                                                                                                                                                                                                                           221012-23     000041
1038420932914COBR_CAUC_BIC  INDS GER DE PARAF INGEPAL LTDA          092327410000160KLL EQUIPAMENTOS PARA TRANSPORTE L      AV.PRES.GETULIO VARGAS,9994-DISTR.INDL. ALVORADA                                94836000RS4013300001099935220000011462  10012013015PORTO ALEGRE        1102201300000000000777062CC                                                                                                                                                                                                                                                                                                                                                                                           221012-24     000042
1038420932914COBR_CAUC_BIC  INDS GER DE PARAF INGEPAL LTDA          092327410000160KLL EQUIPAMENTOS PARA TRANSPORTE L      AV.PRES.GETULIO VARGAS,9994-DISTR.INDL. ALVORADA                                94836000RS4013300002099935570000011477  14012013015PORTO ALEGRE        1302201300000000001417553CC                                                                                                                                                                                                                                                                                                                                                                                           221012-25     000043
1038420932914COBR_CAUC_BIC  INDS GER DE PARAF INGEPAL LTDA          092327410000160KLL EQUIPAMENTOS PARA TRANSPORTE L      AV.PRES.GETULIO VARGAS,9994-DISTR.INDL. ALVORADA                                94836000RS4013300003099936200000011503  17012013015PORTO ALEGRE        1802201300000000001013813CC                                                                                                                                                                                                                                                                                                                                                                                           221012-26     000044
1038420932914COBR_CAUC_BIC  INDS GER DE PARAF INGEPAL LTDA          088665146000601GUERRA IMPLEMENTOS RODOVIÁRIOS LTD      EST.FEDERAL,BR 116,Nº15354-KM 146-DE LAZCAXIAS DO SUL                           95059520RS4013200001099935140000011449  07012013029CAXIAS DO SUL       1402201300000000000112217CC                                                                                                                                                                                                                                                                                                                                                                                           221012-27     000045
1038420932914COBR_CAUC_BIC  INDS GER DE PARAF INGEPAL LTDA          088665146000601GUERRA IMPLEMENTOS RODOVIÁRIOS LTD      EST.FEDERAL,BR 116,Nº15354-KM 146-DE LAZCAXIAS DO SUL                           95059520RS4013200002099935310000011467  11012013029CAXIAS DO SUL       1402201300000000000015391CC                                                                                                                                                                                                                                                                                                                                                                                           221012-28     000046
1038420932914COBR_CAUC_BIC  INDS GER DE PARAF INGEPAL LTDA          088665146000601GUERRA IMPLEMENTOS RODOVIÁRIOS LTD      EST.FEDERAL,BR 116,Nº15354-KM 146-DE LAZCAXIAS DO SUL                           95059520RS4013200003099935490000011469  11012013029CAXIAS DO SUL       1402201300000000000382495CC                                                                                                                                                                                                                                                                                                                                                                                           221012-29     000047
1038420932914COBR_CAUC_BIC  INDS GER DE PARAF INGEPAL LTDA          088665146000601GUERRA IMPLEMENTOS RODOVIÁRIOS LTD      EST.FEDERAL,BR 116,Nº15354-KM 146-DE LAZCAXIAS DO SUL                           95059520RS4013200004099935730000011484  14012013029CAXIAS DO SUL       2102201300000000000156432CC                                                                                                                                                                                                                                                                                                                                                                                           221012-30     000048
1038420932914COBR_CAUC_BIC  INDS GER DE PARAF INGEPAL LTDA          088665146000601GUERRA IMPLEMENTOS RODOVIÁRIOS LTD      EST.FEDERAL,BR 116,Nº15354-KM 146-DE LAZCAXIAS DO SUL                           95059520RS4013200005099935810000011485  14012013029CAXIAS DO SUL       2102201300000000000249235CC                                                                                                                                                                                                                                                                                                                                                                                           221012-31     000049
1038420932914COBR_CAUC_BIC  INDS GER DE PARAF INGEPAL LTDA          088665146000601GUERRA IMPLEMENTOS RODOVIÁRIOS LTD      EST.FEDERAL,BR 116,Nº15354-KM 146-DE LAZCAXIAS DO SUL                           95059520RS4013200006099935900000011491  15012013029CAXIAS DO SUL       2102201300000000000439543CC                                                                                                                                                                                                                                                                                                                                                                                           221012-32     000050
1038420932914COBR_CAUC_BIC  INDS GER DE PARAF INGEPAL LTDA          088665146000601GUERRA IMPLEMENTOS RODOVIÁRIOS LTD      EST.FEDERAL,BR 116,Nº15354-KM 146-DE LAZCAXIAS DO SUL                           95059520RS4013200007099936030000011492  15012013029CAXIAS DO SUL       2102201300000000000010494CC                                                                                                                                                                                                                                                                                                                                                                                           221012-33     000051
1038420932914COBR_CAUC_BIC  INDS GER DE PARAF INGEPAL LTDA          088665146000601GUERRA IMPLEMENTOS RODOVIÁRIOS LTD      EST.FEDERAL,BR 116,Nº15354-KM 146-DE LAZCAXIAS DO SUL                           95059520RS4013200008099936110000011500  16012013029CAXIAS DO SUL       2102201300000000001098533CC                                                                                                                                                                                                                                                                                                                                                                                           221012-34     000052
1038420932914COBR_CAUC_COR  INDS GER DE PARAF INGEPAL LTDA          055064562000190MÁQUINAS AGRICOLAS JACTO S.A            RUA DR.LUIZ MIRANDA,1650-CENTRO         POMPEIA                                 17580000SP4013100001099938410000067744  16012013900BRADESCO S/A        1502201300000000000064518CC                                                                                                                                                                                                                                                                                                                                                                                           221012-35     000053
1038420932914COBR_CAUC_COR  INDS GER DE PARAF INGEPAL LTDA          055064562000190MÁQUINAS AGRICOLAS JACTO S.A            RUA DR.LUIZ MIRANDA,1650-CENTRO         POMPEIA                                 17580000SP4013100002099938590000067746  16012013900BRADESCO S/A        1502201300000000001470153CC                                                                                                                                                                                                                                                                                                                                                                                           221012-36     000054
1038420932914COBR_CAUC_BIC  INDS GER DE PARAF INGEPAL LTDA          060862604000179BASSO COMPONENTES AUTOMOTIVOS LTDA      EST.DO JARAGUA,4111-VIA ANHANG.KM 25,5  SAO PAULO                               05276962SP4013000001099937430000067671  11012013007PAULISTA            0802201300000000000524699CC                                                                                                                                                                                                                                                                                                                                                                                           221012-37     000055
1038420932914COBR_CAUC_BIC  INDS GER DE PARAF INGEPAL LTDA          088624242000105INSTALADORA SAO MARCOS LTDA             EST BR 116,Nº1155-KM 113-INDUSTRIAL     SAO MARCOS                              95190000RS4012900001099935650000011478  14012013029CAXIAS DO SUL       1102201300000000000264446CC                                                                                                                                                                                                                                                                                                                                                                                           221012-38     000056
1016421019909COBR_CAUC_BIC  TROMBINI EMBALAGENS S/A                 006538082000109ROUSSELOT GELATINAS DO BRASIL LTDA      RUA SANTO AGOSTINHO 280 ARCADAS         AMPARO                                  13908000SP40111000010389584818049-1     05022013021CAMPINAS            1903201300000000010846944CC                                                                                                                                                                                                                                                                                                                                                                                           221012-39     000057
9000056                                                                                                                                                                                                                                                                                                                                                                                                                                                                                                                                                                                                                                                                                                               000058
