0REMESSANOTIFICAÇÃO ELETRONICA        99999999999999Bicbanco S/A                            Avenida Paulista                        1048      12º andar BELA VISTA                    SÃO PAULO                     01310100SPBicbanco S/A                                                                    22032011                                                                                                                                                                                                                                                                                                                                                                                                000001
1021420930887COBR_CAUC_COR  DEDINI S/A INDUSTRIAS DE BASE           047254396000167J PILON S A AC E ALC                    FAZ SANTA MARIA SAO FRANCISCO BR        CERQUILHO                               18520000SP268340000106139589135287-1-1  18032011900BRADESCO S/A        0804201100000000011382498CC                                                                                                                                                                                                                                                                                                                                                                                           125432-1      000002
1032420933490COBR_CAUC_BIC  CECRISA REVESTIMENTOS CERAMICOS         008667777000116DEVON INVESTIMENTOS IMOBILIARI          AV DOM LUIS CJ 702/705 EDI,509          FORTALEZA                               60160230CE268350000109126504VP00467702  18032011003CENTRO              0404201100000000115825452CC                                                                                                                                                                                                                                                                                                                                                                                           125432-2      000003
1048421000613COBR_CAUC_BIC  TRIANGULO ALIMENTOS LTDA                044242287000131SIOL ALIMENTOS LTDA                     FCO. DE MELLO PALHETA, 327              BARUERI                                 06410120SP2683600001003077760001805415  18032011007PAULISTA            2704201100000000024100000CC                                                                                                                                                                                                                                                                                                                                                                                           125432-3      000004
1048421000613COBR_CAUC_BIC  TRIANGULO ALIMENTOS LTDA                044242287000131SIOL ALIMENTOS LTDA                     FCO. DE MELLO PALHETA, 327              BARUERI                                 06410120SP2683600002003077840001805417  18032011007PAULISTA            2904201100000000024100000CC                                                                                                                                                                                                                                                                                                                                                                                           125432-4      000005
1048421000613COBR_CAUC_BIC  TRIANGULO ALIMENTOS LTDA                044242287000131SIOL ALIMENTOS LTDA                     FCO. DE MELLO PALHETA, 327              BARUERI                                 06410120SP2683600003003077920001805419  18032011007PAULISTA            0305201100000000024100000CC                                                                                                                                                                                                                                                                                                                                                                                           125432-5      000006
1048421000613COBR_CAUC_BIC  TRIANGULO ALIMENTOS LTDA                044242287000131SIOL ALIMENTOS LTDA                     FCO. DE MELLO PALHETA, 327              BARUERI                                 06410120SP2683600004003078060001805421  18032011007PAULISTA            0505201100000000024100000CC                                                                                                                                                                                                                                                                                                                                                                                           125432-6      000007
1047421000933COBR_CAUC_BIC  AQUECEDOR SOLAR TRANSSEN LTDA           003584427000172SERVICO SOCIAL DO COMERCIO - S          RUA VISCONDE DO RIO BRANCO, 931         CURITIBA                                80410001PR268370000100612983000019660   09032011016CURITIBA            0504201100000000011871900CC                                                                                                                                                                                                                                                                                                                                                                                           125432-7      000008
1042141000037COBR_CAUC_BIC  COBRACO SERVICOS E MONTAGENS LTDA       008675637000190CEMEC CONST ENG ELET E MONTAGENS L      RUA 01 N. 01 QD A LOTE 01 KM 8          SAO LUIS                                65099110MA268380000102087564159         16032011042SAO LUIS            0107201100000000053000000TD                                                                                                                                                                                                                                                                                                                                                                                           125432-8      000009
9000008                                                                                                                                                                                                                                                                                                                                                                                                                                                                                                                                                                                                                                                                                                               000010
