0REMESSANOTIFICAÇÃO ELETRONICA        99999999999999Bicbanco S/A                            Avenida Paulista                        1048      12º andar BELA VISTA                    SÃO PAULO                     01310100SPBicbanco S/A                                                                    05092011                                                                                                                                                                                                                                                                                                                                                                                                000001
1003421010775COBR_CAUC_COR  NUFARM IND QUIM FARMACEUTICA S/A        028138113001491CASA DO ADUBO LTDA                      ROD JOSE SETE, KM 01                    CARIACICA                               29151300ES299800000104015582 000592601  29082011800UNIBANCO S/A        2811201100000000011400000CC                                                                                                                                                                                                                                                                                                                                                                                           143202-1      000002
1038421011812COBR_CAUC_COR  ENERGY COML IMPORT E EXPORT LTDA        009363567000369PREMIX BRASIL RESINAS LTDA              ROD.BR. 101 5600 KM 117 5 SL 6          OSASCO                                  88311601SP2998100001094175306308        24082011900BRADESCO S/A        2309201100000000089825586CC                                                                                                                                                                                                                                                                                                                                                                                           143202-2      000003
1018421014299COBR_CAUC_BIC  CMS PRODUTOS MEDICOS LTDA               020294088000109BIOCOR HOSPITAL DE DOENCAS CARDIOV      AV. ALAMEDA DA SERRA, 217               NOVA LIMA                               34000000MG299820000102419436000024530   25082011019BELO HORIZONTE      2211201100000000012760000CC                                                                                                                                                                                                                                                                                                                                                                                           143202-3      000004
1014421021575COBR_CAUC_COR  CESBRA QUIMICA S/A                      084684455006951TIGRE S A TUBOS E CONEXOES              RUA DOS BOROROS,84                      JOINVILLE                               89239290SC2998300001044751200006577/01  31082011600HSBC BANK BRASIL    2809201100000000014320000CC                                                                                                                                                                                                                                                                                                                                                                                           143202-4      000005
1024141008340COBR_CAUC_BIC  METRICA CONSTRUCOES LTDA                007655514000124TELEGRAFICA ENERGIA S A                 AV MIGUEL SUTIL 8695                    CUIABA                                  78043305MT29984000010192197041 A        25082011024CUIABA              2410201100000000133300000TD                                                                                                                                                                                                                                                                                                                                                                                           143202-5      000006
9000005                                                                                                                                                                                                                                                                                                                                                                                                                                                                                                                                                                                                                                                                                                               000007
