0REMESSANOTIFICAÇÃO ELETRONICA        99999999999999Bicbanco S/A                            Avenida Paulista                        1048      12º andar BELA VISTA                    SÃO PAULO                     01310100SPBicbanco S/A                                                                    22022011                                                                                                                                                                                                                                                                                                                                                                                                000001
1031421007893COBR_CAUC_BIC  DIPLOMATA S/AINDL. E COMERCIAL          010915021000190TOP ALTO PARTICIPACOES E COMERCIO       RUA SAO JOAO CAXIAS 99                  SAO JOAO DE MER                         25515420RJ2641700001048438500208341-01  18022011014RIO DE JANEIRO      1603201100000000010260000CC                                                                                                                                                                                                                                                                                                                                                                                           123086-1      000002
1031421007893COBR_CAUC_BIC  DIPLOMATA S/AINDL. E COMERCIAL          010915021000190TOP ALTO PARTICIPACOES E COMERCIO       RUA SAO JOAO CAXIAS 99                  SAO JOAO DE MER                         25515420RJ2641700002048439730208340-01  18022011014RIO DE JANEIRO      1303201100000000010260000CC                                                                                                                                                                                                                                                                                                                                                                                           123086-2      000003
1016421000833COBR_CAUC_COR  SPERAFICO AGROINDUSTRIAL LTDA           081584278004304COOPERATIVA AGROINDUSTRIAL -COPAGR      RUA ARSENIO BACKES SN-Z RURAL           ENTRE RIOS DO O                         85988000PR264180000103024243001654401   10022011600HSBC BANK BRASIL    2103201100000000028600000CC                                                                                                                                                                                                                                                                                                                                                                                           123086-3      000004
1016421000833COBR_CAUC_COR  SPERAFICO AGROINDUSTRIAL LTDA           081584278004304COOPERATIVA AGROINDUSTRIAL -COPAGR      RUA ARSENIO BACKES SN-Z RURAL           ENTRE RIOS DO O                         85988000PR264180000203024251001654402   10022011600HSBC BANK BRASIL    2203201100000000014300000CC                                                                                                                                                                                                                                                                                                                                                                                           123086-4      000005
1010421008539COBR_CAUC_COR  EXITO IMPORTADORA E EXPORTADORA S/A     000033511705991ERAI MAGGI SCHEFFER E OUTROS - FZ       RODOVIA BR 070 KM 384 + 45 KM 0         CAMPO VERDE                             78840000MT2641900001001031111420        17022011900BRADESCO S/A        2202201100000000017000000CC                                                                                                                                                                                                                                                                                                                                                                                           123086-5      000006
9000005                                                                                                                                                                                                                                                                                                                                                                                                                                                                                                                                                                                                                                                                                                               000007
