0REMESSANOTIFICAÇÃO ELETRONICA        99999999999999Bicbanco S/A                            Avenida Paulista                        1048      12º andar BELA VISTA                    SÃO PAULO                     01310100SPBicbanco S/A                                                                    20102011                                                                                                                                                                                                                                                                                                                                                                                                000001
1047421000232COBR_CAUC_BIC  JOFER EMBALAGENS LTDA.                  000190373000172IND. E COM. DE COSMETICOS NATURA L      AVENIDA JURUA, 253                      BARUERI                                 06455010SP3135800001011152820025246     07102011007PAULISTA            2112201100000000017724951CC                                                                                                                                                                                                                                                                                                                                                                                           148565-1      000002
1016421008591COBR_CAUC_BIC  GLOBOAVES SAO PAULO AGROAVICOLA LTD     061752739000144FRIGORIFICO PRIETO LTDA                 AV VER JOAQUIM P BARBOSA,777            CAJAMAR                                 07760000SP313590000103207402068733      11102011021CAMPINAS            1011201100000000010021190CC                                                                                                                                                                                                                                                                                                                                                                                           148565-2      000003
1047421000402COBR_CAUC_BIC  TRANSPORTADORA JOVERNO LTDA             049972326000170USINA MOEMA ACUCAR E ALCOOL LTDA        AV. JOHN DALTO,301-BL B-CJ 11           CAMPINAS                                13069330SP3136000001011153041185        13102011021CAMPINAS            2811201100000000013823000CC                                                                                                                                                                                                                                                                                                                                                                                           148565-3      000004
1007421053076COBR_CAUC_BIC  WORLD TRACTOR COML IMP LTDA             033042730001348CIA SIDERURGICA NACIONAL                RUA ENG FRANCISCO PITTA BRITTO,138      SAO PAULO                               04753900SP3136100001008633693741        13102011007PAULISTA            2011201100000000024421284CC                                                                                                                                                                                                                                                                                                                                                                                           148565-4      000005
1018421016232COBR_CAUC_COR  LBR - LACTEOS BRASIL S/A                006979856000137MANDABRASA ALIMENTOS LTDA               AV MENINO MARCELO 346                   MACEIO                                  57081385AL3140000001010898400003035001  15102011900BRADESCO S/A        1211201100000000013800000CC                                                                                                                                                                                                                                                                                                                                                                                           148731-1      000006
1023141007329COBR_CAUC_COR  ENGEBASA MECANICA E USINAGEM LTDA.      008528337000188WIND POWER ENERGIA S/A                  EST.TRONCO DIST.ROD NORTE,1724          CABO DE SANTO A                         54590000PE3140100001036583943319-1/01   29072011900BRADESCO S/A        1212201100000000105854540TD                                                                                                                                                                                                                                                                                                                                                                                           148731-2      000007
1023141007329COBR_CAUC_COR  ENGEBASA MECANICA E USINAGEM LTDA.      008528337000188WIND POWER ENERGIA S/A                  EST.TRONCO DIST.ROD NORTE,1724          CABO DE SANTO A                         54590000PE3140100002036584083526-1/01   26082011900BRADESCO S/A        1312201100000000020456837TD                                                                                                                                                                                                                                                                                                                                                                                           148731-3      000008
1023141007329COBR_CAUC_COR  ENGEBASA MECANICA E USINAGEM LTDA.      008528337000188WIND POWER ENERGIA S/A                  EST.TRONCO DIST.ROD NORTE,1724          CABO DE SANTO A                         54590000PE3140100003036584163528-1/01   26082011900BRADESCO S/A        1312201100000000013848562TD                                                                                                                                                                                                                                                                                                                                                                                           148731-4      000009
1023141007329COBR_CAUC_COR  ENGEBASA MECANICA E USINAGEM LTDA.      008528337000188WIND POWER ENERGIA S/A                  EST.TRONCO DIST.ROD NORTE,1724          CABO DE SANTO A                         54590000PE3140100004036584323567-1/01   30082011900BRADESCO S/A        1412201100000000013848562TD                                                                                                                                                                                                                                                                                                                                                                                           148731-5      000010
1023141007329COBR_CAUC_COR  ENGEBASA MECANICA E USINAGEM LTDA.      008528337000188WIND POWER ENERGIA S/A                  EST.TRONCO DIST.ROD NORTE,1724          CABO DE SANTO A                         54590000PE3140100005036584413563-1/01   30082011900BRADESCO S/A        1412201100000000020456837TD                                                                                                                                                                                                                                                                                                                                                                                           148731-6      000011
1023141007329COBR_CAUC_COR  ENGEBASA MECANICA E USINAGEM LTDA.      008528337000188WIND POWER ENERGIA S/A                  EST.TRONCO DIST.ROD NORTE,1724          CABO DE SANTO A                         54590000PE3140100006036584593564-1/01   30082011900BRADESCO S/A        1412201100000000013906039TD                                                                                                                                                                                                                                                                                                                                                                                           148731-7      000012
1023141007329COBR_CAUC_COR  ENGEBASA MECANICA E USINAGEM LTDA.      008528337000188WIND POWER ENERGIA S/A                  EST.TRONCO DIST.ROD NORTE,1724          CABO DE SANTO A                         54590000PE3140100007036584673572-1/01   30082011900BRADESCO S/A        1512201100000000020456837TD                                                                                                                                                                                                                                                                                                                                                                                           148731-8      000013
1023141007329COBR_CAUC_COR  ENGEBASA MECANICA E USINAGEM LTDA.      008528337000188WIND POWER ENERGIA S/A                  EST.TRONCO DIST.ROD NORTE,1724          CABO DE SANTO A                         54590000PE3140100008036584753673-1/01   30082011900BRADESCO S/A        1512201100000000013906039TD                                                                                                                                                                                                                                                                                                                                                                                           148731-9      000014
1023141007329COBR_CAUC_COR  ENGEBASA MECANICA E USINAGEM LTDA.      008528337000188WIND POWER ENERGIA S/A                  EST.TRONCO DIST.ROD NORTE,1724          CABO DE SANTO A                         54590000PE3140100009036584913576-1/01   31082011900BRADESCO S/A        1612201100000000020456837TD                                                                                                                                                                                                                                                                                                                                                                                           148731-10     000015
1023141007329COBR_CAUC_COR  ENGEBASA MECANICA E USINAGEM LTDA.      008528337000188WIND POWER ENERGIA S/A                  EST.TRONCO DIST.ROD NORTE,1724          CABO DE SANTO A                         54590000PE3140100010036585133574-1/01   30082011900BRADESCO S/A        1612201100000000013848562TD                                                                                                                                                                                                                                                                                                                                                                                           148731-11     000016
1023141007329COBR_CAUC_COR  ENGEBASA MECANICA E USINAGEM LTDA.      008528337000188WIND POWER ENERGIA S/A                  EST.TRONCO DIST.ROD NORTE,1724          CABO DE SANTO A                         54590000PE3140100011036585213390-1/01   05082011900BRADESCO S/A        1912201100000000211709080TD                                                                                                                                                                                                                                                                                                                                                                                           148731-12     000017
1023141007329COBR_CAUC_COR  ENGEBASA MECANICA E USINAGEM LTDA.      008528337000188WIND POWER ENERGIA S/A                  EST.TRONCO DIST.ROD NORTE,1724          CABO DE SANTO A                         54590000PE3140100012036585643578-1/01   31082011900BRADESCO S/A        2012201100000000013848562TD                                                                                                                                                                                                                                                                                                                                                                                           148731-13     000018
1023141007329COBR_CAUC_COR  ENGEBASA MECANICA E USINAGEM LTDA.      008528337000188WIND POWER ENERGIA S/A                  EST.TRONCO DIST.ROD NORTE,1724          CABO DE SANTO A                         54590000PE3140100013036585723527-1/01   26082011900BRADESCO S/A        2012201100000000013906039TD                                                                                                                                                                                                                                                                                                                                                                                           148731-14     000019
1031421007893COBR_CAUC_BIC  DIPLOMATA S/AINDL. E COMERCIAL          009418012000105TREND COMERCIO DE PRODUTOS ALIMENT      RUA DOUTOR OSVALDO ANHERT 00            CAMPINAS                                13034195SP3140200001049352820265886-01  17102011021CAMPINAS            3011201100000000013284000CC                                                                                                                                                                                                                                                                                                                                                                                           148731-15     000020
1014420939021COBR_CAUC_BIC  EDITORA O DIA S/A                       033747288000111FEDER.EMPR.TRANSP.RODOV.LESTE M.BR      RUA DA ASSEMBLEIA 10 39 A/C. SR.ED      RIO DE JANEIRO                          20119900RJ3140300001023699510614227     06102011014RIO DE JANEIRO      3010201100000000011582540CC                                                                                                                                                                                                                                                                                                                                                                                           148731-16     000021
1014420939021COBR_CAUC_BIC  EDITORA O DIA S/A                       033747288000111FEDER.EMPR.TRANSP.RODOV.LESTE M.BR      RUA DA ASSEMBLEIA 10 39 A/C. SR.ED      RIO DE JANEIRO                          20119900RJ3140300002023699690614229     06102011014RIO DE JANEIRO      1711201100000000011582540CC                                                                                                                                                                                                                                                                                                                                                                                           148731-17     000022
1016421019267COBR_CAUC_COR  COBRAZEM AGROINDUSTRIAL LTDA            002489004000100GLOBOSUINOS AGROPECUARIA S/A            RUA MATE LARANJEIRAS,0                  TOLEDO                                  85907150PR3140400001032080690000804-01  30092011800UNIBANCO S/A        0111201100000000027000000CC                                                                                                                                                                                                                                                                                                                                                                                           148731-18     000023
1016421019267COBR_CAUC_COR  COBRAZEM AGROINDUSTRIAL LTDA            002489004000100GLOBOSUINOS AGROPECUARIA S/A            RUA MATE LARANJEIRAS,0                  TOLEDO                                  85907150PR3140400002032080770000805-01  30092011800UNIBANCO S/A        0111201100000000027000000CC                                                                                                                                                                                                                                                                                                                                                                                           148731-19     000024
1023141007329COBR_DESC_COR  ENGEBASA MECANICA E USINAGEM LTDA.      008528337000188WIND POWER ENERGIA S/A                  EST.TRONCO DIST.ROD NORTE,1724          CABO DE SANTO A                         54590000PE3143100001036584243529-1/01   26082011900BRADESCO S/A        1312201100000000009251514TD                                                                                                                                                                                                                                                                                                                                                                                           148731-20     000025
1023141007329COBR_DESC_COR  ENGEBASA MECANICA E USINAGEM LTDA.      008528337000188WIND POWER ENERGIA S/A                  EST.TRONCO DIST.ROD NORTE,1724          CABO DE SANTO A                         54590000PE3143100002036584833568-1/01   30082011900BRADESCO S/A        1512201100000000009251514TD                                                                                                                                                                                                                                                                                                                                                                                           148731-21     000026
1023141007329COBR_DESC_COR  ENGEBASA MECANICA E USINAGEM LTDA.      008528337000188WIND POWER ENERGIA S/A                  EST.TRONCO DIST.ROD NORTE,1724          CABO DE SANTO A                         54590000PE3143100003036585053575-1/01   30082011900BRADESCO S/A        1612201100000000009251514TD                                                                                                                                                                                                                                                                                                                                                                                           148731-22     000027
1023141007329COBR_DESC_COR  ENGEBASA MECANICA E USINAGEM LTDA.      008528337000188WIND POWER ENERGIA S/A                  EST.TRONCO DIST.ROD NORTE,1724          CABO DE SANTO A                         54590000PE3143100004036585303659-3/03   06092011900BRADESCO S/A        2012201100000000003479706TD                                                                                                                                                                                                                                                                                                                                                                                           148731-23     000028
1023141007329COBR_DESC_COR  ENGEBASA MECANICA E USINAGEM LTDA.      008528337000188WIND POWER ENERGIA S/A                  EST.TRONCO DIST.ROD NORTE,1724          CABO DE SANTO A                         54590000PE3143100005036585483659-2/03   06092011900BRADESCO S/A        2012201100000000003479706TD                                                                                                                                                                                                                                                                                                                                                                                           148731-24     000029
1023141007329COBR_DESC_COR  ENGEBASA MECANICA E USINAGEM LTDA.      008528337000188WIND POWER ENERGIA S/A                  EST.TRONCO DIST.ROD NORTE,1724          CABO DE SANTO A                         54590000PE3143100006036585563659-1/03   06092011900BRADESCO S/A        2012201100000000003479705TD                                                                                                                                                                                                                                                                                                                                                                                           148731-25     000030
9000029                                                                                                                                                                                                                                                                                                                                                                                                                                                                                                                                                                                                                                                                                                               000031
