0REMESSANOTIFICAÇÃO ELETRONICA        99999999999999Bicbanco S/A                            Avenida Paulista                        1048      12º andar BELA VISTA                    SÃO PAULO                     01310100SPBicbanco S/A                                                                    22122010                                                                                                                                                                                                                                                                                                                                                                                                000001
1021420930887COBR_CAUC_COR  DEDINI S/A INDUSTRIAS DE BASE           006026236000183USINA CONTINENTAL S A                   ROD BRIGADEIRO FARIA LIMA FAZ CONTINENTACOLOMBIA                                14795000SP255070000106018340136412-1-1  17122010600HSBC BANK BRASIL    2901201100000000011525000CC                                                                                                                                                                                                                                                                                                                                                                                           118399-1      000002
1016420932333COBR_CAUC_BIC  COCELPA CIA DE CEL PAPEL DO PR          042564807000105CSN CIMENTOS S/A                        ROD BR 393 LUCIO MEIRA KM 5001 PARTE    VOLTA REDONDA                           27260390RJ2550800001029760030002163-01  16122010014RIO DE JANEIRO      1401201100000000010644977CC                                                                                                                                                                                                                                                                                                                                                                                           118399-2      000003
1014421014420COBR_CAUC_BIC  RADIO ARCA LTDA                         060746948000112BANCO BRADESCO S/A                      CIDADE DE DEUS , S/NO.                  RIO DE JANEIRO                          20011001RJ2550900001000583620000668     17122010014RIO DE JANEIRO      1501201100000000012820992CC                                                                                                                                                                                                                                                                                                                                                                                           118399-3      000004
1010421014083COBR_CAUC_COR  INTERNATIONAL COMMODITY TRADE S/A       008798034000266MARILENE A DOS SANTOS COMERCIO ME       R. DIAS CARNEIRO,1673                   BACABAL                                 65700000MA255100000104100028007446/1.1  03122010900BRADESCO S/A        1901201100000000021600000CC                                                                                                                                                                                                                                                                                                                                                                                           118399-4      000005
1010421014083COBR_CAUC_COR  INTERNATIONAL COMMODITY TRADE S/A       008798034000266MARILENE A DOS SANTOS COMERCIO ME       R. DIAS CARNEIRO,1673                   BACABAL                                 65700000MA255100000204100036007447/1.1  03122010900BRADESCO S/A        1901201100000000016200000CC                                                                                                                                                                                                                                                                                                                                                                                           118399-5      000006
1010421014083COBR_CAUC_COR  INTERNATIONAL COMMODITY TRADE S/A       009005077000129USACUCAR COM E EMPACOT.DE CEREAIS       AV.ALMIRANTE PAULO MOREIRA,01           CABO DE SANTO A                         54590000PE255110000104100010007039/4.4  03122010900BRADESCO S/A        1801201100000000020100000CC                                                                                                                                                                                                                                                                                                                                                                                           118399-6      000007
1010421014083COBR_CAUC_BIC  INTERNATIONAL COMMODITY TRADE S/A       016295990000172BOM GOSTO ATACADO LTDA                  R.ELIAS NAZARE,20                       SALVADOR                                40411000BA255120000104100044007161/1.1  03122010013SALVADOR            3012201000000000010500000CC                                                                                                                                                                                                                                                                                                                                                                                           118399-7      000008
1018141006024COBR_CAUC_COR  ACRESUL INDUSTRIA E COMERCIO LTDA       002991282000161GUANAMBI COM REP PROD MET E RACOES      ROD GO 164, 515 LT 03 E 05_Q.1          SANTA HELENA DE                         75920000GO255130000102045030676/2010    15122010900BRADESCO S/A        2004201100000000017452040TD                                                                                                                                                                                                                                                                                                                                                                                           118399-8      000009
1028421001518COBR_CAUC_COR  GAIA AGRIBUSINESS AGRICOLA LTDA         000048494836153JOSE ADONIZETE DA COSTA                 AV SANTA CATARINA ,180                  GOIATUBA                                75600000GO2551400001026844334096        16122010600HSBC BANK BRASIL    1006201100000000012385000CC                                                                                                                                                                                                                                                                                                                                                                                           118399-9      000010
9000009                                                                                                                                                                                                                                                                                                                                                                                                                                                                                                                                                                                                                                                                                                               000011
