0REMESSANOTIFICAÇÃO ELETRONICA        99999999999999Bicbanco S/A                            Avenida Paulista , 1048 12º andar                           BELA VISTA                    SÃO PAULO                     01310100SPBicbanco S/A                                                                    19032010                                                                                                                                                                                                                                                                                                                                                                                                000001
1014421012444COBR_CAUC_COR  HOTEIS OTHON S/A.                       007575651000310VRG LINHAS AEREAS S A                   PCA SEN SALGADO FILHO S N SALA 02       RIO DE JANEIRO                          20021971RJ2100900001000593261200120501  16032010900BRADESCO S/A        1704201000000000023343000CC                                                                                                                                                                                                                                                                                                                                                                                           90014-1       000002
1007420931444COBR_CAUC_BIC  PLASINCO LTDA                           056607104000113TELCON FIOS E CABOS P/ TELECOMUNIC      CHICRI MALUF,121                        SOROCABA                                18087141SP2101000001097512613654-A      16032010007PAULISTA            1505201000000000023105328CC                                                                                                                                                                                                                                                                                                                                                                                           90014-2       000003
1046421002628COBR_CAUC_BIC  INTELBRAS S/A IND DE TELEC ELET BR      084978485000182KIDASEN INDUSTRIA E COMERCIO D          AV PREF SINCLER SAMBATTI, 1845          MARINGA                                 87055405PR210110000100673947DM05814701  26022010016CURITIBA            1803201000000000029197350CC                                                                                                                                                                                                                                                                                                                                                                                           90014-3       000004
1022421002370COBR_CAUC_COR  FRIGOESTRELA S.A.                       000281228000440N & N COMERCIO DE ALIMENTOS LTDA        ROD. REGIS BITTENCOURTS/NKM 294 SA      ITAPECERICA DA                          06882700SP2101200001020497400029788801  15032010900BRADESCO S/A        1604201000000000010065242CC                                                                                                                                                                                                                                                                                                                                                                                           90014-4       000005
1022421002370COBR_CAUC_COR  FRIGOESTRELA S.A.                       008410451000109PRODUTORA DE CHARQUE SOROCABA LTDA      EST. DOM JOSE MELHADO CAMPOS390         SOROCABA                                18087315SP2101300001020481070029775501  15032010900BRADESCO S/A        1404201000000000012492653CC                                                                                                                                                                                                                                                                                                                                                                                           90014-5       000006
1015421010393COBR_CAUC_BIC  LABORATORIO AVAMILLER DE COSMETICO      025769266000124ARCOM S/A                               ROD.ANEL VIARIO AYRTON SENNA 2001       UBERLANDIA                              38414512MG2101400001006339211854        12032010028UBERLANDIA          1105201000000000040951010CC                                                                                                                                                                                                                                                                                                                                                                                           90014-6       000007
1038421000764COBR_CAUC_BIC  METROPOLITAN LOGIST COMERCIAL LTDA      061068276002816UNILEVER BRASIL LTDA                    AV. JOSE LUIZ MAZZALI 450               LOUVEIRA                                13290000SP2101500001086254903206        16032010007PAULISTA            2804201000000000011092459CC                                                                                                                                                                                                                                                                                                                                                                                           90014-7       000008
1022141001594COBR_CAUC_COR  IRMAOS GADOTTI TRANSP. E SERV. LTDA     044984490000426UNIALCO S/A ALCOOL E ACUCAR             ES VICINAL ANGELO ZANCANERKM30          GUARARAPES                              16700000SP210160000103796492071/2010    15032010900BRADESCO S/A        1204201000000000011000000TD                                                                                                                                                                                                                                                                                                                                                                                           90014-8       000009
1013141007379COBR_CAUC_BIC  ISOREL LOCACAO E SERVICOS LTDA          067558361000129QUALIMAM MONTAGENS INDLTDA              R JOAQUIM FLORIANO,466 10 AND           SAO PAULO                               04534002SP21017000010396983501349       07012010007PAULISTA            1604201000000000027076078TD                                                                                                                                                                                                                                                                                                                                                                                           90014-9       000010
1017141009734COBR_CAUC_BIC  GTS COMERCIAL AGROQUIMICA LTDA          012718011000190CENTRAL ACUCAREIRA SANTO ANTONIO S      RUA BARAO DE JARAGUA, 195               MACEIO                                  57092000AL2101800001024937312501A       04032010017MACEIO              1604201000000000022785000TD                                                                                                                                                                                                                                                                                                                                                                                           90014-10      000011
1017141009734COBR_CAUC_BIC  GTS COMERCIAL AGROQUIMICA LTDA          012718011000190CENTRAL ACUCAREIRA SANTO ANTONIO S      RUA BARAO DE JARAGUA, 195               MACEIO                                  57092000AL2101800002024937492501B       04032010017MACEIO              2304201000000000022785000TD                                                                                                                                                                                                                                                                                                                                                                                           90014-11      000012
9000011                                                                                                                                                                                                                                                                                                                                                                                                                                                                                                                                                                                                                                                                                                               000013
