0REMESSANOTIFICAÇÃO ELETRONICA        99999999999999Bicbanco S/A                            Avenida Paulista                        1048      12º andar BELA VISTA                    SÃO PAULO                     01310100SPBicbanco S/A                                                                    30082010                                                                                                                                                                                                                                                                                                                                                                                                000001
1029140511987COBR_CAUC_BIC  BRASFUMO IND BRAS DE FUMOS S/A          005648120000385TABACUM INTERAMERICAN COM.E EXP.DE      ROD RSC 287, SN                         VENANCIO AIRES                          95800000RS238820000109263533000007421   16082010015PORTO ALEGRE        1712201000000000014158745TD                                                                                                                                                                                                                                                                                                                                                                                           109867-1      000002
1014421008188COBR_CAUC_COR  YARA ALIMENTOS LTDA                     001928075009822DMA DISTRIBUIDORA S/A                   R TORRICELI, 2001                       SERRA                                   29165140ES2388300001005756932034001     24082010900BRADESCO S/A        2509201000000000014910629CC                                                                                                                                                                                                                                                                                                                                                                                           109867-2      000003
1014421008188COBR_CAUC_COR  YARA ALIMENTOS LTDA                     001928075009822DMA DISTRIBUIDORA S/A                   R TORRICELI, 2001                       SERRA                                   29165140ES2388300002005757072034002     24082010900BRADESCO S/A        2510201000000000014906156CC                                                                                                                                                                                                                                                                                                                                                                                           109867-3      000004
1014421008188COBR_CAUC_COR  YARA ALIMENTOS LTDA                     001928075009822DMA DISTRIBUIDORA S/A                   R TORRICELI, 2001                       SERRA                                   29165140ES2388300003005757152034003     24082010900BRADESCO S/A        2511201000000000014906156CC                                                                                                                                                                                                                                                                                                                                                                                           109867-4      000005
1014420939021COBR_CAUC_BIC  EDITORA O DIA S/A                       033747288000111FETRANSPOR FED.EMP.TRANSP.PASSAG.E      ASSEMBLEIA, 10 39§ ANDAR SLS.3901       RIO DE JANEIRO                          20011901RJ2388400001022728170553223     15082010014RIO DE JANEIRO      1509201000000000010552910CC                                                                                                                                                                                                                                                                                                                                                                                           109867-5      000006
1022421004755COBR_CAUC_COR  FRIGOL S.A.                             033130543000182CASAS GUANABARA COMESTIVEIS LTDA        ESTRADA DA AGUA BRANCA, 3400            RIO DE JANEIRO                          21720161RJ238850000100000433418901      25082010900BRADESCO S/A        2409201000000000015889221CC                                                                                                                                                                                                                                                                                                                                                                                           109867-6      000007
1003441005224COBR_CAUC_BIC  DCA DISTRIB CEAR DE ALIMENTOS LTDA      000954394000117VULCABRAS DO NORDESTE S/A               AV. PRESIDENTE CASTELO BRANCO,6847      HORIZONTE                               62880000CE2388600001037738408404        25082010003CENTRO              3009201000000000035972580CC                                                                                                                                                                                                                                                                                                                                                                                           109867-7      000008
1018421008680COBR_CAUC_BIC  CMS PRODUTOS MEDICOS LTDA               060726502000126HOSPITAL ALEMAO OSWALDO CRUZ            RUA JOAO JULIAO, 331                    SAO PAULO                               01323903SP238870000101870932000002769   18082010007PAULISTA            1709201000000000018000000CC                                                                                                                                                                                                                                                                                                                                                                                           109867-8      000009
1029421008006COBR_CAUC_BIC  COML DE TABACOS SANTA CRUZ BR LTDA      009136885000125UNICRUZ TABACOS LTDA.                   RUA ERNESTO WILD,2300                   VERA CRUZ                               96880000RS2388800001092641577123-1      30062010015PORTO ALEGRE        1611201000000000015075769CC                                                                                                                                                                                                                                                                                                                                                                                           109867-9      000010
1008421013640DIR_CREDIT     CONSTRUTORA BORGES CARNEIRO LTDA        010744098000226INSTITUTO FEDERAL DE EDUCACAO,CIENCIA E AV. 13 DE MAIO, 2081                    FORTALEZA                               60040531CE2390400001                                                                                                                                          010858707           231220090000011660304/2009    19022010000416execução das obras de engenharia para construção da extensão do ifce no municipio de caucaia-ce                                                                                                                                                 001590549000146109867-10     000011
9000010                                                                                                                                                                                                                                                                                                                                                                                                                                                                                                                                                                                                                                                                                                               000012
