0REMESSANOTIFICAÇÃO ELETRONICA        99999999999999Bicbanco S/A                            Avenida Brigadeiro Faria Lima           4.440     2º andar  Itaim Bibi                    São Paulo                     04538132SPBicbanco S/A                                                                    31072012                                                                                                                                                                                                                                                                                                                                                                                                000001
1007420931444COBR_CAUC_BIC  PLASINCO LTDA                           061413282000143LORENZETTI S/A INDUSTRIA BRASILEIR      AV. PRESIDENTE WILSON,1230              SAO PAULO                               03107901SP36635000010134663521678       18072012007PAULISTA            1508201200000000019458340CC                                                                                                                                                                                                                                                                                                                                                                                           185787-1      000002
1032421021860COBR_CAUC_COR  INDUSTRIAL REX LTDA                     087288940000297KEPLER WEBER INDUSTRIAL S/A             AV. ADOLFO K.JUNIOR, 1.500              PANAMBI                                 98280000RS366360000100815030802.808/01  18072012800UNIBANCO S/A        1708201200000000010204858CC                                                                                                                                                                                                                                                                                                                                                                                           185787-2      000003
1007421055095COBR_CAUC_COR  PLASTER IND COM RESINAS PLAS EIRELI     046188199000124NORTEE PLASTICOS LTDA                   AV DR DIB SAUAIA NETO,4628              BARUERI                                 06455050SP36637000010000710126181/A     19072012900BRADESCO S/A        0709201200000000012188138CC                                                                                                                                                                                                                                                                                                                                                                                           185787-3      000004
1007421060307COBR_CAUC_COR  ROTHENBERG COMERCIO DE PERFUMES E C     005753951000317DOTCOM GROUP COMERCIO DE PRESENTES      912 SUL ALEMEDA 07 QL E LTES 5 9 LJ 2   PALMAS                                  77023482TO366380000101348131RR4071005A  14072012800UNIBANCO S/A        1308201200000000013439131CC                                                                                                                                                                                                                                                                                                                                                                                           185787-4      000005
1003420935082DIR_CREDIT     PB CONSTRUCOES LTDA                     010260249000351CIA INDUSTRIAL DE CIMENTO APODI S/A     ROD. CE 536 S/N - KM 30 - BOM SUCESSO   QUIXERE                                 62920000CE3664100001                                                                                                                                          011921478           150120120000021239S/N         19072012000403PRESTACAO DE SERVICOS DE EDIFICACOES DE PREDIOS INDUSTRIAIS, INCLUSO FUNDACAO ATE A LIMPEZA E ENTREGA FINAL.                                                                                                                                    006017891000175185787-5      000006
1045421005424DIR_CREDIT     SAO LUCAS MEDICO HOSPITALAR LTDA        013360276000122UNIMED SERGIPE - COOP DE TRAB MEDICO    RUA SOCORRO 100_ SAO JOSE               ARACAJU                                 49015300SE3664500001                                                                                                                                          441009174           01052003000000852505/2003     05032012000101Contrato de prestação de serviços hospitalares aos beneficiários dos planos de saúde operacionalizados pela contratante.                                                                                                                        013131370000100185787-6      000007
1044421012350DIR_CREDIT     PAPI PRONTO SOCORRO                     008380701000105UNIMED NATAL                            RUA MIPIBU, 511 - PETRÓPOLIS            NATAL                                   59020250RN3664900001                                                                                                                                          011928730           260320080000005352001         19072012000401ATENDIMENTO MEDICO/AMBULATORIAL DOS CONVENIADOS A UNIMED/NATAL.                                                                                                                                                                                 008423220000130185787-7      000008
1007421045766COBR_CAUC_COR  EVER ELETRIC A IND E COM VEIC LTDA      010738770000190FARIA & FARIA LTDA                      RUA DARCY GRIJO,20 LOJA 02              VITORIA                                 29060500ES36656000010131679523266       28062012800UNIBANCO S/A        3007201200000000002636568CC                                                                                                                                                                                                                                                                                                                                                                                           185787-8      000009
1007421045766COBR_CAUC_COR  EVER ELETRIC A IND E COM VEIC LTDA      010738770000190FARIA & FARIA LTDA                      RUA DARCY GRIJO,20 LOJA 02              VITORIA                                 29060500ES36656000020131680923267       28062012800UNIBANCO S/A        3007201200000000002636568CC                                                                                                                                                                                                                                                                                                                                                                                           185787-9      000010
1007421045766COBR_CAUC_COR  EVER ELETRIC A IND E COM VEIC LTDA      010738770000190FARIA & FARIA LTDA                      RUA DARCY GRIJO,20 LOJA 02              VITORIA                                 29060500ES36656000030131681723264       28062012800UNIBANCO S/A        3007201200000000002636568CC                                                                                                                                                                                                                                                                                                                                                                                           185787-10     000011
1016421022241COBR_CAUC_BIC  STOCKFER COM DIST DE FERRO ACO LTDA     082605288000192CLIMASUL AR CONDICIONADOS LTDA          AV. COMENDADOR FRANCO,8218              CURITIBA                                81560001PR366570000103566968100704/1    17072012016CURITIBA            1608201200000000000028048CC                                                                                                                                                                                                                                                                                                                                                                                           185787-11     000012
1016421022241COBR_CAUC_BIC  STOCKFER COM DIST DE FERRO ACO LTDA     081662462000176TECNOGRAN DO BRASIL                     RUA JOSE HAUER,525                      CURITIBA                                81580330PR36658000010341916799701/2     24052012016CURITIBA            2607201200000000000062388CC                                                                                                                                                                                                                                                                                                                                                                                           185787-12     000013
1016421022241COBR_CAUC_BIC  STOCKFER COM DIST DE FERRO ACO LTDA     078377363000138GRANISUL INDUSTRIA E COMERCIO LTDA      RODOVIA DOS MINERIOS,SN-KM 27           RIO BRANCO DO S                         83540000PR36659000010342951199873       31052012016CURITIBA            2607201200000000000082500CC                                                                                                                                                                                                                                                                                                                                                                                           185787-13     000014
1016421022241COBR_CAUC_COR  STOCKFER COM DIST DE FERRO ACO LTDA     033225616000705FORNECEDORA E EXP DE MADEIRA FOREX      RUA FAZENDA JANGADA,0                   TRES BARRAS                             89490000SC366600000103440603100138/2    12062012800UNIBANCO S/A        2407201200000000000085492CC                                                                                                                                                                                                                                                                                                                                                                                           185787-14     000015
1016421022241COBR_CAUC_BIC  STOCKFER COM DIST DE FERRO ACO LTDA     004638954000185GILTON NEUBER E CIA LTDA                AVENIDA PRINCIPAL,0                     PALMEIRA                                84130000PR366610000103475571100323      22062012016CURITIBA            2207201200000000000094775CC                                                                                                                                                                                                                                                                                                                                                                                           185787-15     000016
1016421022241COBR_CAUC_COR  STOCKFER COM DIST DE FERRO ACO LTDA     010646366000196I9 ENGENHARIA LTDA                      RUA CLOVIS DEVILAQUA,734                PINHAIS                                 83321110PR36662000010342950299867       31052012900BRADESCO S/A        2607201200000000000095879CC                                                                                                                                                                                                                                                                                                                                                                                           185787-16     000017
1016421022241COBR_CAUC_BIC  STOCKFER COM DIST DE FERRO ACO LTDA     019900000000842CERVEJARIAS KAISE DO BRASIL LTDA        AV TOCANTINS,199                        PONTA GROSSA                            84050130PR366630000103475661100333      25062012016CURITIBA            2507201200000000000100460CC                                                                                                                                                                                                                                                                                                                                                                                           185787-17     000018
1016421022241COBR_CAUC_BIC  STOCKFER COM DIST DE FERRO ACO LTDA     035820448016482WHITE MARTINS GASES INDL TDA            RUAELI VOLPATO,888                      ARAUCARIA                               83707440PR366640000103468281100289      20062012016CURITIBA            0408201200000000000103083CC                                                                                                                                                                                                                                                                                                                                                                                           185787-18     000019
1016421022241COBR_CAUC_COR  STOCKFER COM DIST DE FERRO ACO LTDA     013200521000134CONSORCIO FERROSUL                      RUA PAULO LOPES,400-LT 3 E 4            SANTA HELENA DE                         75920000GO366650000103475539100366      26062012800UNIBANCO S/A        2607201200000000000104000CC                                                                                                                                                                                                                                                                                                                                                                                           185787-19     000020
1016421022241COBR_CAUC_COR  STOCKFER COM DIST DE FERRO ACO LTDA     075703256000164JANACIEVIZCZ MALINOWSKI E CIA LTDA      RODOVIA DO PAPEL PR 160,SN-KM 14,5      TELEMACO BORBA                          84269090PR366660000103475580100332      25062012800UNIBANCO S/A        2207201200000000000115148CC                                                                                                                                                                                                                                                                                                                                                                                           185787-20     000021
1016421022241COBR_CAUC_BIC  STOCKFER COM DIST DE FERRO ACO LTDA     076147578000137EMISA PLAENGE ENGENHARIA LTDA           AV TIRADENTES,100-SL 11 E 12            LONDRINA                                86070520PR366670000103475644100339      25062012031LONDRINA            2507201200000000000118817CC                                                                                                                                                                                                                                                                                                                                                                                           185787-21     000022
1016421022241COBR_CAUC_BIC  STOCKFER COM DIST DE FERRO ACO LTDA     061082962001608CIA MELHORAMENTOS NORTE DO PARANHA      ESTRADA JUSSARA VIDIGAL, ,0             JUSSARA                                 87230000PR3666800001034383231000501     11062012016CURITIBA            3107201200000000000132534CC                                                                                                                                                                                                                                                                                                                                                                                           185787-22     000023
1016421022241COBR_CAUC_COR  STOCKFER COM DIST DE FERRO ACO LTDA     061575775000856TECHINT SA                              RUA PONTO DO POCO ,SN                   PONTAL DO PARAN                         83255000PR3666900001034383151000491     11062012800UNIBANCO S/A        2307201200000000000161986CC                                                                                                                                                                                                                                                                                                                                                                                           185787-23     000024
1016421022241COBR_CAUC_COR  STOCKFER COM DIST DE FERRO ACO LTDA     078908266000205MILI S/A                                RODOVIA BR 116,21561-KM 109             TRES BARRAS                             89490000SC366700000103475563100320      22062012800UNIBANCO S/A        2207201200000000000167946CC                                                                                                                                                                                                                                                                                                                                                                                           185787-24     000025
1016421022241COBR_CAUC_COR  STOCKFER COM DIST DE FERRO ACO LTDA     000506489000178FARENZENA SERRALHERIA E FERRAGENS       RUA CASTRO ALVES,165                    SALTO VELOSO                            89595000SC366710000103440638100141/3    12062012800UNIBANCO S/A        2407201200000000000178616CC                                                                                                                                                                                                                                                                                                                                                                                           185787-25     000026
1016421022241COBR_CAUC_BIC  STOCKFER COM DIST DE FERRO ACO LTDA     076024876000130EMPO CURITIBANO DE SANEAMENTO CONS      RUA MATEUS LEME, ,2511                  CURITIBA                                80530010PR366720000103475555100375      26062012016CURITIBA            2607201200000000000190001CC                                                                                                                                                                                                                                                                                                                                                                                           185787-26     000027
1016421022241COBR_CAUC_COR  STOCKFER COM DIST DE FERRO ACO LTDA     003632042000133FARENZENA COM DE EQUIPAMENTOS LTDA      RUA ALGINO FORMIGUERI,70                VIDEIRA                                 89560000SC36673000010341907899697/3     24042012800UNIBANCO S/A        2607201200000000000208086CC                                                                                                                                                                                                                                                                                                                                                                                           185787-27     000028
1016421022241COBR_CAUC_BIC  STOCKFER COM DIST DE FERRO ACO LTDA     008371303000122WZ OLIVEIRA MANUTENCAO E MONTAGENS      RUA FRANCISCO GALARDA,411               ARAUCARIA                               83706540PR366740000103475628100327      22062012016CURITIBA            2207201200000000000113050CC                                                                                                                                                                                                                                                                                                                                                                                           185787-28     000029
1016421022241COBR_CAUC_BIC  STOCKFER COM DIST DE FERRO ACO LTDA     008371303000122WZ OLIVEIRA MANUTENCAO E MONTAGENS      RUA FRANCISCO GALARDA,411               ARAUCARIA                               83706540PR366740000203475636100327/2    22062012016CURITIBA            0608201200000000000113050CC                                                                                                                                                                                                                                                                                                                                                                                           185787-29     000030
1016421022241COBR_CAUC_COR  STOCKFER COM DIST DE FERRO ACO LTDA     008824016000120ARY KIMITA JUNIOR                       RUA JOSE CASEMIRO SWIERK,,90            PORTO UNIAO                             89500000SC366750000103475547100371      26062012800UNIBANCO S/A        2607201200000000000290149CC                                                                                                                                                                                                                                                                                                                                                                                           185787-30     000031
1016421022241COBR_CAUC_BIC  STOCKFER COM DIST DE FERRO ACO LTDA     004731861000109INTERALLI ADMINISTRACAO E PARTICIP      AVENIDA PORTUARIA,0                     PARANAGUA                               83221570PR36676000010341911699706/3     24052012016CURITIBA            2607201200000000000325498CC                                                                                                                                                                                                                                                                                                                                                                                           185787-31     000032
1016421022241COBR_CAUC_BIC  STOCKFER COM DIST DE FERRO ACO LTDA     077955532000700CONSTRUTORA TRIUNFO SA                  ROD. BR 116, ,2651                      CURITIBA                                82590100PR366770000103566976100680/1    16072012016CURITIBA            1208201200000000000568650CC                                                                                                                                                                                                                                                                                                                                                                                           185787-32     000033
1016421022241COBR_CAUC_BIC  STOCKFER COM DIST DE FERRO ACO LTDA     004731861000109INTERALLI ADMINISTRACAO E PARTICIP      AVENIDA PORTUARIA,0                     PARANAGUA                               83221570PR366780000103468303100288      20062012016CURITIBA            2507201200000000000309990CC                                                                                                                                                                                                                                                                                                                                                                                           185787-33     000034
1016421022241COBR_CAUC_BIC  STOCKFER COM DIST DE FERRO ACO LTDA     004731861000109INTERALLI ADMINISTRACAO E PARTICIP      AVENIDA PORTUARIA,0                     PARANAGUA                               83221570PR3667800002034682901002882     20062012016CURITIBA            0108201200000000000309990CC                                                                                                                                                                                                                                                                                                                                                                                           185787-34     000035
1016421022241COBR_CAUC_COR  STOCKFER COM DIST DE FERRO ACO LTDA     076093731000190COPACOL - COOPERATIVA AGROINDUSTRI      RUA DES. MUNHOZ DE MELO,176             CAFELANDIA                              85415970PR366790000103475610100326      22062012800UNIBANCO S/A        2207201200000000000313020CC                                                                                                                                                                                                                                                                                                                                                                                           185787-35     000036
1016421022241COBR_CAUC_COR  STOCKFER COM DIST DE FERRO ACO LTDA     076093731000190COPACOL - COOPERATIVA AGROINDUSTRI      RUA DES. MUNHOZ DE MELO,176             CAFELANDIA                              85415970PR366790000203475652100352      25062012800UNIBANCO S/A        2507201200000000000127680CC                                                                                                                                                                                                                                                                                                                                                                                           185787-36     000037
1016421022241COBR_CAUC_COR  STOCKFER COM DIST DE FERRO ACO LTDA     076093731000190COPACOL - COOPERATIVA AGROINDUSTRI      RUA DES. MUNHOZ DE MELO,176             CAFELANDIA                              85415970PR366790000303475598100359      26062012800UNIBANCO S/A        2607201200000000003164592CC                                                                                                                                                                                                                                                                                                                                                                                           185787-37     000038
1016421022241COBR_CAUC_COR  STOCKFER COM DIST DE FERRO ACO LTDA     076093731000190COPACOL - COOPERATIVA AGROINDUSTRI      RUA DES. MUNHOZ DE MELO,176             CAFELANDIA                              85415970PR36679000040341925699632       22052012800UNIBANCO S/A        2307201200000000000372000CC                                                                                                                                                                                                                                                                                                                                                                                           185787-38     000039
1007421044581COBR_CAUC_BIC  GRANCARGA TRANSP. E GUINDASTES S/A.     001027335000166WOBBEN WINDPOWER IND.E COM.LTDA.        AV.FERNANDO STECCA,100                  SOROCABA                                18087149SP36680000010134918902345       20072012007PAULISTA            1508201200000000034496260CC                                                                                                                                                                                                                                                                                                                                                                                           185794-1      000040
1007421053378COBR_CAUC_COR  MEGGA TEC E COM DE MAQUINAS LTDA        006931598000119NOVA INJECAO SOB PRESSAO E COMERCI      RUA MARIA JOSE RODRIGUES,1365           CAMPO LIMPO PAU                         13236200SP3668100001013493836815-4-4    20072012800UNIBANCO S/A        0909201200000000012372250CC                                                                                                                                                                                                                                                                                                                                                                                           185794-2      000041
1007421043100COBR_CAUC_COR  MACROPORT INTERNACIONAL LTDA            012158862000207AMPLA COMERCIO, IMPORTACAO E EXPOR      AV. CEM, MOD 16,0                       SERRA                                   29161384ES366820000101348972312411      20072012800UNIBANCO S/A        2008201200000000011986704CC                                                                                                                                                                                                                                                                                                                                                                                           185794-3      000042
1014421023721COBR_CAUC_COR  VML COMERCIAL IMP E EXP LTDA            011978797000112OPENVIX DISTRIBUIDORA LTDA              TANCREDO NEVES, QUADRA 12, LOT,S/N      SERRA                                   29163267ES36683000010453529711286       20072012900BRADESCO S/A        1109201200000000016631817CC                                                                                                                                                                                                                                                                                                                                                                                           185794-4      000043
1007421060307COBR_CAUC_BIC  ROTHENBERG COMERCIO DE PERFUMES E C     027197888007597DUFRY DO BRASIL DUTY FREE SHOP LTD      R ESTRELA D OESTE 124                   GUARULHOS                               07140030SP366840000101349740RR4071540   19072012037GUARULHOS           2709201200000000012119425CC                                                                                                                                                                                                                                                                                                                                                                                           185794-5      000044
1049000000000DIR_CREDIT     COOP AGR MISTA URTIGENSE LTDA           088587357000240COOPERATIVA SANTA CLARA LTDA            EST JOSE CHIES 1637                     CARLOS BARBOSA                          95185000RS3668700001                                                                                                                                          011924078           300420120000021421            20072012000403Fornecimento de leite.                                                                                                                                                                                                                          002032115000193185794-6      000045
1008421002710DIR_CREDIT     OCS MIN E EMPREENDIMENTOS LTDA          034230979005418SUPERMIX CONCRETO S/A                   R PROF. JOSE VIEIRA DE MENDONçA, 1121   BELO HORIZONTE                          31310260MG3668900001                                                                                                                                          481026547           100120070000012817            20072012000404fornecimento de material produzido pela OCS-Mineração e EmpreendimentosLtda,a saber Brita 19mm,Brita 9,5mm e areia grossa de Brita,todos fornecidos e oferecidos em forma de tonelada.                                                          007323439000102185794-7      000046
1044421005221DIR_CREDIT     CNG CONSTRUTORA NOBREGA GOMES LTDA      070162904000107COOPERATIVA HABITACIONAL DOS SERV. E TRAPC PADRE JOAO MARIA, 74 - CIDADE ALTA   NATAL                                   59025290RN3669300001                                                                                                                                          011745759           121220060000019090S/N         31012012000416construção de um empreendimento habitacional denominado " residencialesplanada dos jardins III, IV E V em parnamirim/rn.                                                                                                                        040766917000116185794-8      000047
1009421001996COBR_CAUC_COR  MEDICAL SHOP PROD.HOSPITALARES LTDA     000382069000127HOSPITAL LAGO SUL                       SHIS QI 7 BLOCO F COM. LOCAL SUL,0      BRASILIA                                71615570DF36695000010005492052959/1     10072012900BRADESCO S/A        0908201200000000000061363CC                                                                                                                                                                                                                                                                                                                                                                                           185794-9      000048
1009421001996COBR_CAUC_COR  MEDICAL SHOP PROD.HOSPITALARES LTDA     000382069000127HOSPITAL LAGO SUL                       SHIS QI 7 BLOCO F COM. LOCAL SUL,0      BRASILIA                                71615570DF36695000020005493852959/2     10072012900BRADESCO S/A        0809201200000000000061363CC                                                                                                                                                                                                                                                                                                                                                                                           185794-10     000049
1009421001996COBR_CAUC_COR  MEDICAL SHOP PROD.HOSPITALARES LTDA     000382069000127HOSPITAL LAGO SUL                       SHIS QI 7 BLOCO F COM. LOCAL SUL,0      BRASILIA                                71615570DF36695000030005494652959/3     10072012900BRADESCO S/A        2309201200000000000061364CC                                                                                                                                                                                                                                                                                                                                                                                           185794-11     000050
1009421001996COBR_CAUC_COR  MEDICAL SHOP PROD.HOSPITALARES LTDA     000382069000127HOSPITAL LAGO SUL                       SHIS QI 7 BLOCO F COM. LOCAL SUL,0      BRASILIA                                71615570DF36695000040005498952983/1     11072012900BRADESCO S/A        1008201200000000000125255CC                                                                                                                                                                                                                                                                                                                                                                                           185794-12     000051
1009421001996COBR_CAUC_COR  MEDICAL SHOP PROD.HOSPITALARES LTDA     000382069000127HOSPITAL LAGO SUL                       SHIS QI 7 BLOCO F COM. LOCAL SUL,0      BRASILIA                                71615570DF36695000050005496252983/2     11072012900BRADESCO S/A        0909201200000000000125255CC                                                                                                                                                                                                                                                                                                                                                                                           185794-13     000052
1009421001996COBR_CAUC_COR  MEDICAL SHOP PROD.HOSPITALARES LTDA     000382069000127HOSPITAL LAGO SUL                       SHIS QI 7 BLOCO F COM. LOCAL SUL,0      BRASILIA                                71615570DF36695000060005497152983/3     11072012900BRADESCO S/A        2409201200000000000125255CC                                                                                                                                                                                                                                                                                                                                                                                           185794-14     000053
1009421001996COBR_CAUC_COR  MEDICAL SHOP PROD.HOSPITALARES LTDA     000382069000127HOSPITAL LAGO SUL                       SHIS QI 7 BLOCO F COM. LOCAL SUL,0      BRASILIA                                71615570DF36695000070005502153087/1     18072012900BRADESCO S/A        1708201200000000000046667CC                                                                                                                                                                                                                                                                                                                                                                                           185794-15     000054
1009421001996COBR_CAUC_COR  MEDICAL SHOP PROD.HOSPITALARES LTDA     000382069000127HOSPITAL LAGO SUL                       SHIS QI 7 BLOCO F COM. LOCAL SUL,0      BRASILIA                                71615570DF36695000080005503953087/2     18072012900BRADESCO S/A        1609201200000000000046667CC                                                                                                                                                                                                                                                                                                                                                                                           185794-16     000055
1009421001996COBR_CAUC_COR  MEDICAL SHOP PROD.HOSPITALARES LTDA     000382069000127HOSPITAL LAGO SUL                       SHIS QI 7 BLOCO F COM. LOCAL SUL,0      BRASILIA                                71615570DF36695000090005504753087/3     18072012900BRADESCO S/A        0110201200000000000046666CC                                                                                                                                                                                                                                                                                                                                                                                           185794-17     000056
1009421001996COBR_CAUC_COR  MEDICAL SHOP PROD.HOSPITALARES LTDA     000382069000127HOSPITAL LAGO SUL                       SHIS QI 7 BLOCO F COM. LOCAL SUL,0      BRASILIA                                71615570DF36695000100005507153106/1     19072012900BRADESCO S/A        1808201200000000001108813CC                                                                                                                                                                                                                                                                                                                                                                                           185794-18     000057
1009421001996COBR_CAUC_COR  MEDICAL SHOP PROD.HOSPITALARES LTDA     000382069000127HOSPITAL LAGO SUL                       SHIS QI 7 BLOCO F COM. LOCAL SUL,0      BRASILIA                                71615570DF36695000110005508053106/2     19072012900BRADESCO S/A        1709201200000000001108813CC                                                                                                                                                                                                                                                                                                                                                                                           185794-19     000058
1009421001996COBR_CAUC_COR  MEDICAL SHOP PROD.HOSPITALARES LTDA     000382069000127HOSPITAL LAGO SUL                       SHIS QI 7 BLOCO F COM. LOCAL SUL,0      BRASILIA                                71615570DF36695000120005509853106/3     19072012900BRADESCO S/A        0210201200000000001108814CC                                                                                                                                                                                                                                                                                                                                                                                           185794-20     000059
1009421001996COBR_CAUC_COR  MEDICAL SHOP PROD.HOSPITALARES LTDA     008380701000610UNIMED NATAL - SOCIEDADE COOPERATI      AVENIDA ANTONIO BASILIO,3598            NATAL                                   59056500RN36696000010005467952806/1     27062012900BRADESCO S/A        2707201200000000001800000CC                                                                                                                                                                                                                                                                                                                                                                                           185794-21     000060
1009421001996COBR_CAUC_COR  MEDICAL SHOP PROD.HOSPITALARES LTDA     008380701000610UNIMED NATAL - SOCIEDADE COOPERATI      AVENIDA ANTONIO BASILIO,3598            NATAL                                   59056500RN366960000200054687813/1       27062012900BRADESCO S/A        2707201200000000001200000CC                                                                                                                                                                                                                                                                                                                                                                                           185794-22     000061
1009421001996COBR_CAUC_COR  MEDICAL SHOP PROD.HOSPITALARES LTDA     008380701000610UNIMED NATAL - SOCIEDADE COOPERATI      AVENIDA ANTONIO BASILIO,3598            NATAL                                   59056500RN366960000300054695814/1       27062012900BRADESCO S/A        2707201200000000001249410CC                                                                                                                                                                                                                                                                                                                                                                                           185794-23     000062
1009421001996COBR_CAUC_COR  MEDICAL SHOP PROD.HOSPITALARES LTDA     000025841000153HOSPITAL SANTA LUCIA S/A                SHLS QD 716 CONJUNTO C,0                BRASILIA                                70390700DF36697000010005458052407/1     30052012900BRADESCO S/A        2807201200000000003500000CC                                                                                                                                                                                                                                                                                                                                                                                           185794-24     000063
1009421001996COBR_CAUC_COR  MEDICAL SHOP PROD.HOSPITALARES LTDA     000025841000153HOSPITAL SANTA LUCIA S/A                SHLS QD 716 CONJUNTO C,0                BRASILIA                                70390700DF36697000020005501253088/1     18072012900BRADESCO S/A        1609201200000000000698420CC                                                                                                                                                                                                                                                                                                                                                                                           185794-25     000064
1009421001996COBR_CAUC_COR  MEDICAL SHOP PROD.HOSPITALARES LTDA     000025841000153HOSPITAL SANTA LUCIA S/A                SHLS QD 716 CONJUNTO C,0                BRASILIA                                70390700DF36697000030005505553093/1     19072012900BRADESCO S/A        1709201200000000000300000CC                                                                                                                                                                                                                                                                                                                                                                                           185794-26     000065
1009421001996COBR_CAUC_COR  MEDICAL SHOP PROD.HOSPITALARES LTDA     000025841000153HOSPITAL SANTA LUCIA S/A                SHLS QD 716 CONJUNTO C,0                BRASILIA                                70390700DF36697000040005510153107/1     20072012900BRADESCO S/A        1709201200000000001400000CC                                                                                                                                                                                                                                                                                                                                                                                           185794-27     000066
1007421045766COBR_CAUC_COR  EVER ELETRIC A IND E COM VEIC LTDA      012259991000100PARQUE VEICULOS GUANHAES LTDA           ROD. BR 120,2000                        GUANHAES                                39740000MG36698000010134924325972       20072012800UNIBANCO S/A        2008201200000000003526000CC                                                                                                                                                                                                                                                                                                                                                                                           185794-28     000067
1007421045766COBR_CAUC_BIC  EVER ELETRIC A IND E COM VEIC LTDA      001913794000147NCA COMERCIO DE VEICULOS LTDA           AV. GUARULHOS,1971                      GUARULHOS                               07025000SP36699000010134923525651       20072012037GUARULHOS           2008201200000000004498200CC                                                                                                                                                                                                                                                                                                                                                                                           185794-29     000068
1043421004812DIR_CREDIT     CONSTRUTORA GABARITO LTDA               008999674000153PM DE SOUSA - SECRETARIA DE INFRAEST    RUA CEL JOSé GOMES DE Sá,27 - CENTRO    SOUSA                                   58806000PB3659300001                                                                                                                                          481010320           1108200800000155921135/2008   05042012000404EXECUÇÃO DE SERVIÇOS DE ENGENHARIA DESTINADOS A AMPLIAÇÃO DO SISTEMA DEESGOTAMENTO SANITÁRIO DA CIDADE DE SOUSA.                                                                                                                                041222829000116185796-1      000069
1032420934675COBR_CAUC_BIC  ELIANE S/A REVESTIMENTOS CERAMICOS      010825624000282SPE BRASIL INCORPORACAO 11 LTDA         AV 136, 960 15 ANDAR, ED. EXECUTIVE TOWEGOIANIA                                 74180040GO367000000100825302DPL288920A  23072012018GOIANIA             2910201200000000016055473CC                                                                                                                                                                                                                                                                                                                                                                                           185796-2      000070
1020421001652COBR_CAUC_BIC  SANTHER FAB PAP STA THEREZINHA S/A      023439441000190ARMAZEM MATEUS LTDA                     AV DANIEL DE LA TOUCHE, 73              SAO LUIS                                65073780MA367010000106219229003172101   21072012042SAO LUIS            0309201200000000011330278CC                                                                                                                                                                                                                                                                                                                                                                                           185796-3      000071
1022421007720COBR_CAUC_BIC  JUMIL-JUSTINO DE MORAIS IRMAOS S/A      002077618004172COOP AGROIND PROD RURAIS SUD GOIAN      AV PRES VARGAS, 1878                    RIO VERDE                               75901901GO367020000104359991111979E.01  23072012018GOIANIA             2208201200000000018000000CC                                                                                                                                                                                                                                                                                                                                                                                           185796-4      000072
1019421014068COBR_CAUC_COR  RIO BRANCO ALIMENTOS S/A                001928075002062DMA DISTRIBUIDORA S/A                   ROD BR 040 KM 531 180                   BELO HORIZONTE                          30855500MG3670300001000952020136706801  23072012900BRADESCO S/A        2208201200000000016871521CC                                                                                                                                                                                                                                                                                                                                                                                           185796-5      000073
1022421007495COBR_CAUC_BIC  TECUMSEH DO BRASIL LTDA                 004222931000195CLIMAZON INDUSTRIAL LTDA                RUA BERTO CIRIO ,521                    CANOAS                                  92420030RS36704000010435995954777/1     23072012015PORTO ALEGRE        0609201200000000026152483CC                                                                                                                                                                                                                                                                                                                                                                                           185796-6      000074
1038421002945COBR_CAUC_BIC  NEOLIDER COM.IMP.E EXP.DE ACOS LTDA     004071453000160EGC COMERCIAL ELETRICA E HIDRAULIC      AV. PARANA, 2000                        PORTO ALEGRE                            90240602RS367050000109746711045161/01   10072012015PORTO ALEGRE        0708201200000000010141628CC                                                                                                                                                                                                                                                                                                                                                                                           185796-7      000075
1038421002945COBR_CAUC_BIC  NEOLIDER COM.IMP.E EXP.DE ACOS LTDA     004071453000160EGC COMERCIAL ELETRICA E HIDRAULIC      AV. PARANA, 2000                        PORTO ALEGRE                            90240602RS367050000209746720045191/01   11072012015PORTO ALEGRE        1008201200000000010322752CC                                                                                                                                                                                                                                                                                                                                                                                           185796-8      000076
1014421008439COBR_CAUC_BIC  TV OMEGA LTDA                           033200056000149Lojas Riachuelo S/A                     Rua Natingui - 1282                     SãoPaulo                                05443002SP36706000010453537801444901    23072012007PAULISTA            1508201200000000014396416CC                                                                                                                                                                                                                                                                                                                                                                                           185796-9      000077
1032421001435DIR_CREDIT     CEDRO-INFRAESTRUTURA VIARIA LTDA        082892274000105PM DE SAO JOSE                          RUA DOMINGOS ZANINI, 300                SÃO JOSE                                88117200SC3671800001                                                                                                                                          011874437           030320110000020487134/2011    06072012000404Execução de serviços de recuperação de pavimentação asfáltica das Ruas Transversais do Loteamento Lisboa, em São José/SC,com fornecimento de materiais                                                                                          004880941000118185796-10     000078
1032421001435DIR_CREDIT     CEDRO-INFRAESTRUTURA VIARIA LTDA        082892274000105PM DE SAO JOSE                          RUA DOMINGOS ANDRE ZANINI, 300          SÃO JOSE                                88117200SC3671900001                                                                                                                                          011847812           180120110000018210024/2011    12072012000404Contrato de empresa de engenharia para execução de serviços de manuten-ção de ruas com revestimentoasfástico, incluindo fornecimento de material, emSão José/SC.                                                                                004880941000118185796-11     000079
1038421019619COBR_CAUC_BIC  TOME EQUIPAMENTOS E TRANSPORTES S.A     006361990000170IMPERPORTOS TERMINAIS E LOGISTICA       AV. BRASIL 3200                         RIO DE JANEIRO                          20930040RJ3672000001097515962307        23072012014RIO DE JANEIRO      0608201200000000050006866CC                                                                                                                                                                                                                                                                                                                                                                                           185799-1      000080
1007421006183COBR_CAUC_BIC  NITRIFLEX S/A IND E COMERCIO            002036483000290CONTINENTAL DO BRASIL PROD AUTOMOT      AV. CONTINENTAL, 2777                   PONTA GROSSA                            84043735PR367210000101352619001622101   23072012016CURITIBA            2008201200000000011942007CC                                                                                                                                                                                                                                                                                                                                                                                           185799-2      000081
1007421044581COBR_CAUC_BIC  GRANCARGA TRANSP. E GUINDASTES S/A.     001027335000166WOBBEN WINDPOWER IND.E COM.LTDA.        AV.FERNANDO STECCA,100                  SOROCABA                                18087149SP367220000101352767002346      23072012007PAULISTA            2208201200000000012455315CC                                                                                                                                                                                                                                                                                                                                                                                           185799-3      000082
1007421044581COBR_CAUC_BIC  GRANCARGA TRANSP. E GUINDASTES S/A.     001027335000166WOBBEN WINDPOWER IND.E COM.LTDA.        AV.FERNANDO STECCA,100                  SOROCABA                                18087149SP367220000201352775002347      23072012007PAULISTA            2908201200000000012455315CC                                                                                                                                                                                                                                                                                                                                                                                           185799-4      000083
1007421044581COBR_CAUC_BIC  GRANCARGA TRANSP. E GUINDASTES S/A.     001027335000166WOBBEN WINDPOWER IND.E COM.LTDA.        AV.FERNANDO STECCA,100                  SOROCABA                                18087149SP367220000301352783002348      23072012007PAULISTA            0509201200000000012455315CC                                                                                                                                                                                                                                                                                                                                                                                           185799-5      000084
1022421007495COBR_CAUC_BIC  TECUMSEH DO BRASIL LTDA                 002948030000230ESMALTEC SA                             AV PARQUE OESTE ,2130                   MARACANAU                               61939120CE36723000010436053154886/1     24072012003CENTRO              3108201200000000018601920CC                                                                                                                                                                                                                                                                                                                                                                                           185799-6      000085
1036421018985COBR_CAUC_BIC  PEEQFLEX INDUSTRIA E COMERCIO LTDA      060723061055868YAKULT S/A IND.COM                      Alameda Santos, 771                     SAO PAULO                               01419000SP3672400001058808256017127-01  24072012007PAULISTA            1408201200000000036300827CC                                                                                                                                                                                                                                                                                                                                                                                           185799-7      000086
1042141005772COBR_CAUC_BIC  HIDROSONDA LTDA                         007073042000100EDECONSIL CONSTRUCOES E LOCAÇOES L      RUA JOSE SARNEY, 42-A N 500             SAO LUIS                                65085470MA367250000103091492NF008-1     27062012042SAO LUIS            0608201200000000025000000TD                                                                                                                                                                                                                                                                                                                                                                                           185799-8      000087
1042141005772COBR_CAUC_BIC  HIDROSONDA LTDA                         007073042000100EDECONSIL CONSTRUCOES E LOCAÇOES L      RUA JOSE SARNEY, 42-A N 500             SAO LUIS                                65085470MA367250000203091506NF008-2     27062012042SAO LUIS            0609201200000000025000000TD                                                                                                                                                                                                                                                                                                                                                                                           185799-9      000088
1007421055095COBR_CAUC_COR  PLASTER IND COM RESINAS PLAS EIRELI     001618295000127BOLIVAR PRODUOS PLASTICOS LTDA          ROD GERALDO MARTINS COSTA,35            PCS DE CALDAS                           37718000MG36726000010000715226245/A     23072012900BRADESCO S/A        1209201200000000012390000CC                                                                                                                                                                                                                                                                                                                                                                                           185799-10     000089
1014421023721COBR_CAUC_BIC  VML COMERCIAL IMP E EXP LTDA            011894188000185MELFI IMPORTACAO E COMERCIO DE FER      R. RIO GRANDE DO NORTE,525              SANTO ANDRE                             09210360SP3674100001045353014165-1      20072012038ABC                 1709201200000000002425123CC                                                                                                                                                                                                                                                                                                                                                                                           185799-11     000090
1014421023721COBR_CAUC_BIC  VML COMERCIAL IMP E EXP LTDA            011894188000185MELFI IMPORTACAO E COMERCIO DE FER      R. RIO GRANDE DO NORTE,525              SANTO ANDRE                             09210360SP3674100002045353194165-2      20072012038ABC                 1809201200000000002425123CC                                                                                                                                                                                                                                                                                                                                                                                           185799-12     000091
1014421023721COBR_CAUC_BIC  VML COMERCIAL IMP E EXP LTDA            011894188000185MELFI IMPORTACAO E COMERCIO DE FER      R. RIO GRANDE DO NORTE,525              SANTO ANDRE                             09210360SP3674100003045353274165-3      20072012038ABC                 1909201200000000002425123CC                                                                                                                                                                                                                                                                                                                                                                                           185799-13     000092
1014421023721COBR_CAUC_BIC  VML COMERCIAL IMP E EXP LTDA            011894188000185MELFI IMPORTACAO E COMERCIO DE FER      R. RIO GRANDE DO NORTE,525              SANTO ANDRE                             09210360SP3674100004045353354165-4      20072012038ABC                 2009201200000000002425123CC                                                                                                                                                                                                                                                                                                                                                                                           185799-14     000093
1014421023721COBR_CAUC_BIC  VML COMERCIAL IMP E EXP LTDA            011894188000185MELFI IMPORTACAO E COMERCIO DE FER      R. RIO GRANDE DO NORTE,525              SANTO ANDRE                             09210360SP3674100005045353434165-5      20072012038ABC                 2109201200000000002425123CC                                                                                                                                                                                                                                                                                                                                                                                           185799-15     000094
1046421006020COBR_CAUC_BIC  RUELL IMPORTACAO E EXPORTACAO LTDA      004744781000341ADM COM. DE ROUPAS LTDA                 ALAMEDA STO AMARO,326                   SAO PAULO                               04745001SP3674200001014497732651/12     27032012007PAULISTA            1710201200000000005805518CC                                                                                                                                                                                                                                                                                                                                                                                           185799-16     000095
1046421006020COBR_CAUC_BIC  RUELL IMPORTACAO E EXPORTACAO LTDA      004744781000341ADM COM. DE ROUPAS LTDA                 ALAMEDA STO AMARO,326                   SAO PAULO                               04745001SP3674200002013649211060/08     14122011007PAULISTA            3107201200000000006327700CC                                                                                                                                                                                                                                                                                                                                                                                           185799-17     000096
1046421006020COBR_CAUC_BIC  RUELL IMPORTACAO E EXPORTACAO LTDA      004744781000341ADM COM. DE ROUPAS LTDA                 ALAMEDA STO AMARO,326                   SAO PAULO                               04745001SP3674200003013650901060/09     14122011007PAULISTA            2008201200000000006327700CC                                                                                                                                                                                                                                                                                                                                                                                           185799-18     000097
1046421006020COBR_CAUC_BIC  RUELL IMPORTACAO E EXPORTACAO LTDA      004744781000341ADM COM. DE ROUPAS LTDA                 ALAMEDA STO AMARO,326                   SAO PAULO                               04745001SP3674200004013651031060/10     14122011007PAULISTA            2708201200000000006327700CC                                                                                                                                                                                                                                                                                                                                                                                           185799-19     000098
1046421006020COBR_CAUC_BIC  RUELL IMPORTACAO E EXPORTACAO LTDA      004744781000341ADM COM. DE ROUPAS LTDA                 ALAMEDA STO AMARO,326                   SAO PAULO                               04745001SP3674200005013649481060/11     14122011007PAULISTA            1809201200000000006327700CC                                                                                                                                                                                                                                                                                                                                                                                           185799-20     000099
1046421006020COBR_CAUC_BIC  RUELL IMPORTACAO E EXPORTACAO LTDA      004744781000341ADM COM. DE ROUPAS LTDA                 ALAMEDA STO AMARO,326                   SAO PAULO                               04745001SP3674200006013650811082/05     22122011007PAULISTA            3007201200000000005616000CC                                                                                                                                                                                                                                                                                                                                                                                           185799-21     000100
1046421006020COBR_CAUC_BIC  RUELL IMPORTACAO E EXPORTACAO LTDA      004744781000341ADM COM. DE ROUPAS LTDA                 ALAMEDA STO AMARO,326                   SAO PAULO                               04745001SP3674200007013649301082/06     22122011007PAULISTA            3008201200000000005616000CC                                                                                                                                                                                                                                                                                                                                                                                           185799-22     000101
1046421006020COBR_CAUC_BIC  RUELL IMPORTACAO E EXPORTACAO LTDA      004744781000341ADM COM. DE ROUPAS LTDA                 ALAMEDA STO AMARO,326                   SAO PAULO                               04745001SP3674200008014046641117/08     25012012007PAULISTA            1608201200000000005015000CC                                                                                                                                                                                                                                                                                                                                                                                           185799-23     000102
1046421006020COBR_CAUC_BIC  RUELL IMPORTACAO E EXPORTACAO LTDA      004744781000341ADM COM. DE ROUPAS LTDA                 ALAMEDA STO AMARO,326                   SAO PAULO                               04745001SP3674200009014046561117/09     25012012007PAULISTA            2308201200000000005015000CC                                                                                                                                                                                                                                                                                                                                                                                           185799-24     000103
1046421006020COBR_CAUC_BIC  RUELL IMPORTACAO E EXPORTACAO LTDA      004744781000341ADM COM. DE ROUPAS LTDA                 ALAMEDA STO AMARO,326                   SAO PAULO                               04745001SP3674200010014046481117/10     25012012007PAULISTA            2808201200000000005015000CC                                                                                                                                                                                                                                                                                                                                                                                           185799-25     000104
1046421006020COBR_CAUC_BIC  RUELL IMPORTACAO E EXPORTACAO LTDA      004744781000341ADM COM. DE ROUPAS LTDA                 ALAMEDA STO AMARO,326                   SAO PAULO                               04745001SP3674200011014046131117/11     25012012007PAULISTA            1909201200000000005015000CC                                                                                                                                                                                                                                                                                                                                                                                           185799-26     000105
1046421006020COBR_CAUC_BIC  RUELL IMPORTACAO E EXPORTACAO LTDA      004744781000341ADM COM. DE ROUPAS LTDA                 ALAMEDA STO AMARO,326                   SAO PAULO                               04745001SP3674200012014047371117/12     25012012007PAULISTA            2709201200000000005015000CC                                                                                                                                                                                                                                                                                                                                                                                           185799-27     000106
1046421006020COBR_CAUC_BIC  RUELL IMPORTACAO E EXPORTACAO LTDA      004744781000341ADM COM. DE ROUPAS LTDA                 ALAMEDA STO AMARO,326                   SAO PAULO                               04745001SP3674200013014047111117/13     25012012007PAULISTA            1610201200000000005015000CC                                                                                                                                                                                                                                                                                                                                                                                           185799-28     000107
1046421006020COBR_CAUC_BIC  RUELL IMPORTACAO E EXPORTACAO LTDA      004744781000341ADM COM. DE ROUPAS LTDA                 ALAMEDA STO AMARO,326                   SAO PAULO                               04745001SP3674200014014046991119/08     26012012007PAULISTA            1508201200000000004679857CC                                                                                                                                                                                                                                                                                                                                                                                           185799-29     000108
1046421006020COBR_CAUC_BIC  RUELL IMPORTACAO E EXPORTACAO LTDA      004744781000341ADM COM. DE ROUPAS LTDA                 ALAMEDA STO AMARO,326                   SAO PAULO                               04745001SP3674200015014046301119/11     26012012007PAULISTA            1109201200000000004679857CC                                                                                                                                                                                                                                                                                                                                                                                           185799-30     000109
1046421006020COBR_CAUC_BIC  RUELL IMPORTACAO E EXPORTACAO LTDA      004744781000341ADM COM. DE ROUPAS LTDA                 ALAMEDA STO AMARO,326                   SAO PAULO                               04745001SP3674200016014046051119/12     26012012007PAULISTA            2509201200000000004679857CC                                                                                                                                                                                                                                                                                                                                                                                           185799-31     000110
1046421006020COBR_CAUC_BIC  RUELL IMPORTACAO E EXPORTACAO LTDA      004744781000341ADM COM. DE ROUPAS LTDA                 ALAMEDA STO AMARO,326                   SAO PAULO                               04745001SP3674200017014047021119/13     26012012007PAULISTA            2010201200000000004679857CC                                                                                                                                                                                                                                                                                                                                                                                           185799-32     000111
1046421006020COBR_CAUC_BIC  RUELL IMPORTACAO E EXPORTACAO LTDA      004744781000341ADM COM. DE ROUPAS LTDA                 ALAMEDA STO AMARO,326                   SAO PAULO                               04745001SP3674200018014046721121/08     27012012007PAULISTA            1508201200000000004679857CC                                                                                                                                                                                                                                                                                                                                                                                           185799-33     000112
1046421006020COBR_CAUC_BIC  RUELL IMPORTACAO E EXPORTACAO LTDA      004744781000341ADM COM. DE ROUPAS LTDA                 ALAMEDA STO AMARO,326                   SAO PAULO                               04745001SP3674200019014046211121/11     27012012007PAULISTA            1109201200000000004679857CC                                                                                                                                                                                                                                                                                                                                                                                           185799-34     000113
1046421006020COBR_CAUC_BIC  RUELL IMPORTACAO E EXPORTACAO LTDA      004744781000341ADM COM. DE ROUPAS LTDA                 ALAMEDA STO AMARO,326                   SAO PAULO                               04745001SP3674200020014047291121/12     27012012007PAULISTA            2709201200000000004679857CC                                                                                                                                                                                                                                                                                                                                                                                           185799-35     000114
1046421006020COBR_CAUC_BIC  RUELL IMPORTACAO E EXPORTACAO LTDA      004744781000341ADM COM. DE ROUPAS LTDA                 ALAMEDA STO AMARO,326                   SAO PAULO                               04745001SP3674200021014046811121/13     27012012007PAULISTA            2010201200000000004679857CC                                                                                                                                                                                                                                                                                                                                                                                           185799-36     000115
1046421006020COBR_CAUC_BIC  RUELL IMPORTACAO E EXPORTACAO LTDA      004744781000341ADM COM. DE ROUPAS LTDA                 ALAMEDA STO AMARO,326                   SAO PAULO                               04745001SP3674200022014538192487/14     26012012007PAULISTA            2110201200000000004679857CC                                                                                                                                                                                                                                                                                                                                                                                           185799-37     000116
1046421006020COBR_CAUC_BIC  RUELL IMPORTACAO E EXPORTACAO LTDA      004744781000341ADM COM. DE ROUPAS LTDA                 ALAMEDA STO AMARO,326                   SAO PAULO                               04745001SP3674200023014498112591/08     27032012007PAULISTA            2108201200000000004239100CC                                                                                                                                                                                                                                                                                                                                                                                           185799-38     000117
1046421006020COBR_CAUC_BIC  RUELL IMPORTACAO E EXPORTACAO LTDA      004744781000341ADM COM. DE ROUPAS LTDA                 ALAMEDA STO AMARO,326                   SAO PAULO                               04745001SP3674200024014497902591/10     27032012007PAULISTA            1909201200000000004239100CC                                                                                                                                                                                                                                                                                                                                                                                           185799-39     000118
1046421006020COBR_CAUC_BIC  RUELL IMPORTACAO E EXPORTACAO LTDA      004744781000341ADM COM. DE ROUPAS LTDA                 ALAMEDA STO AMARO,326                   SAO PAULO                               04745001SP3674200025014497812591/11     27032012007PAULISTA            1510201200000000004239100CC                                                                                                                                                                                                                                                                                                                                                                                           185799-40     000119
1046421006020COBR_CAUC_BIC  RUELL IMPORTACAO E EXPORTACAO LTDA      004744781000341ADM COM. DE ROUPAS LTDA                 ALAMEDA STO AMARO,326                   SAO PAULO                               04745001SP3674200026014538272591/12     27032012007PAULISTA            2210201200000000004242700CC                                                                                                                                                                                                                                                                                                                                                                                           185799-41     000120
1046421006020COBR_CAUC_BIC  RUELL IMPORTACAO E EXPORTACAO LTDA      004744781000341ADM COM. DE ROUPAS LTDA                 ALAMEDA STO AMARO,326                   SAO PAULO                               04745001SP3674200027014498032596/10     27032012007PAULISTA            1809201200000000004239400CC                                                                                                                                                                                                                                                                                                                                                                                           185799-42     000121
1046421006020COBR_CAUC_BIC  RUELL IMPORTACAO E EXPORTACAO LTDA      004744781000341ADM COM. DE ROUPAS LTDA                 ALAMEDA STO AMARO,326                   SAO PAULO                               04745001SP367420002801365073881/16      29092011007PAULISTA            2707201200000000004112640CC                                                                                                                                                                                                                                                                                                                                                                                           185799-43     000122
1028421001348DIR_CREDIT     ELETROSOM S/A                           062421979000129BANCO GE CAPITAL SA - ATUAL BANCO CIFRA AVENIDA DO CAFé, 277 - 3 ANDAR TORRE A  SAO PAULO                               04311000SP3672900001                                                                                                                                          011330456           080620040000010310            21022011000453Financiamento de compra dos produtos vendidos pela Rede Eletrosom.                                                                                                                                                                              022164990000136185804-1      000123
1013421019571DIR_CREDIT     JPNOR ENGENHARIA LTDA                   042150391000170BRASKEM S/A                             RUA ETENO,1561-POLO PETROQUIMICO        CAMAçARI                                42800000BA3673400001                                                                                                                                          481025628           10022010000001798510108/2009  24072012000404Elaboração de projetos conceituais, de engenharia básica, de detalhamento de projeto, de automação, estudos técnicos e estudos de viabilidade.                                                                                                  001531864000100185804-2      000124
1038421019619COBR_CAUC_BIC  TOME EQUIPAMENTOS E TRANSPORTES S.A     006361990000170IMPERPORTOS TERMINAIS E LOGISTICA       AV. BRASIL 3200                         RIO DE JANEIRO                          20930040RJ3674300001097529242307        23072012014RIO DE JANEIRO      0608201200000000050353214CC                                                                                                                                                                                                                                                                                                                                                                                           185804-3      000125
1020421001652COBR_CAUC_BIC  SANTHER FAB PAP STA THEREZINHA S/A      023439441000190ARMAZEM MATEUS LTDA                     AV DANIEL DE LA TOUCHE, 73              SAO LUIS                                65073780MA367440000106220171003189801   24072012042SAO LUIS            0409201200000000012795199CC                                                                                                                                                                                                                                                                                                                                                                                           185804-4      000126
1048421000338COBR_CAUC_COR  FRIGOESTRELA S.A. EM RECUP JUDICIAL     008386287000141BERMAS MARACANAU IND E COM DE COUR      AV CONTORNOS/NDISTRITO INDUSTRIAL       MARACANAU                               61939160CE3674500001024439790001247401  24072012900BRADESCO S/A        2308201200000000033052127CC                                                                                                                                                                                                                                                                                                                                                                                           185804-5      000127
1050421000089COBR_CAUC_BIC  ATIVO ALIMENTOS LTDA                    028664456000337SUPERMERCADO CRISTAL LTDA               RUA ANTONIO JOSE BITTENCOURT 429        RIO DE JANEIRO                          26535000RJ367460000100365041145233/1    24072012014RIO DE JANEIRO      0608201200000000021250630CC                                                                                                                                                                                                                                                                                                                                                                                           185804-6      000128
1032421002350DIR_CREDIT     TECNOFIBRAS HVR AUTOMOTIVA S/A          089674782000158JOHN DEERE BRASIL LTDA                  AV. ENG. JORGE D. LOGEMANN, SN          HORIZONTINA                             98920000RS3674800001                                                                                                                                          011560971           0101200800000137544500014820  23072012000403Elaboração e confecção pela contratada de Ferramental a ser especialmente empregado na Fabricação de Componentes e/ou Peças de Uso Industrial daContratante.                                                                                    079004727000105185804-7      000129
1038421019058COBR_CAUC_BIC  CAMP ALIMENTOS COM E DISTR LTDA         007170943001264BARCELONA COM VAR E ATAC SA LJ 05       AV DAS NACOES UNIDAS, 21883             SAO PAULO                               04795100SP367630000109677671001013815   20062012007PAULISTA            2008201200000000000280464CC                                                                                                                                                                                                                                                                                                                                                                                           185804-8      000130
1038421019058COBR_CAUC_BIC  CAMP ALIMENTOS COM E DISTR LTDA         007170943001264BARCELONA COM VAR E ATAC SA LJ 05       AV DAS NACOES UNIDAS, 21883             SAO PAULO                               04795100SP367630000209625817001011588   16052012007PAULISTA            2707201200000000001267488CC                                                                                                                                                                                                                                                                                                                                                                                           185804-9      000131
1038421019058COBR_CAUC_BIC  CAMP ALIMENTOS COM E DISTR LTDA         007170943001264BARCELONA COM VAR E ATAC SA LJ 05       AV DAS NACOES UNIDAS, 21883             SAO PAULO                               04795100SP367630000309629120001011693   18052012007PAULISTA            3007201200000000001321320CC                                                                                                                                                                                                                                                                                                                                                                                           185804-10     000132
1038421019058COBR_CAUC_BIC  CAMP ALIMENTOS COM E DISTR LTDA         007170943001264BARCELONA COM VAR E ATAC SA LJ 05       AV DAS NACOES UNIDAS, 21883             SAO PAULO                               04795100SP367630000409629138001011694   18052012007PAULISTA            0708201200000000004224588CC                                                                                                                                                                                                                                                                                                                                                                                           185804-11     000133
1038421019058COBR_CAUC_BIC  CAMP ALIMENTOS COM E DISTR LTDA         007170943001264BARCELONA COM VAR E ATAC SA LJ 05       AV DAS NACOES UNIDAS, 21883             SAO PAULO                               04795100SP367630000509631116001011709   18052012007PAULISTA            3007201200000000005000400CC                                                                                                                                                                                                                                                                                                                                                                                           185804-12     000134
1038421019058COBR_CAUC_BIC  CAMP ALIMENTOS COM E DISTR LTDA         007170943001264BARCELONA COM VAR E ATAC SA LJ 05       AV DAS NACOES UNIDAS, 21883             SAO PAULO                               04795100SP367630000609644421001012502   29052012007PAULISTA            1008201200000000002397952CC                                                                                                                                                                                                                                                                                                                                                                                           185804-13     000135
1038421019058COBR_CAUC_BIC  CAMP ALIMENTOS COM E DISTR LTDA         007170943001264BARCELONA COM VAR E ATAC SA LJ 05       AV DAS NACOES UNIDAS, 21883             SAO PAULO                               04795100SP367630000709654311001012826   05062012007PAULISTA            2008201200000000003904720CC                                                                                                                                                                                                                                                                                                                                                                                           185804-14     000136
1038421019058COBR_CAUC_BIC  CAMP ALIMENTOS COM E DISTR LTDA         007170943001264BARCELONA COM VAR E ATAC SA LJ 05       AV DAS NACOES UNIDAS, 21883             SAO PAULO                               04795100SP367630000809657875001012949   06062012007PAULISTA            2408201200000000004373460CC                                                                                                                                                                                                                                                                                                                                                                                           185804-15     000137
1038421019058COBR_CAUC_BIC  CAMP ALIMENTOS COM E DISTR LTDA         007170943001264BARCELONA COM VAR E ATAC SA LJ 05       AV DAS NACOES UNIDAS, 21883             SAO PAULO                               04795100SP367630000909661368001012950   06062012007PAULISTA            0608201200000000005000400CC                                                                                                                                                                                                                                                                                                                                                                                           185804-16     000138
1038421019058COBR_CAUC_BIC  CAMP ALIMENTOS COM E DISTR LTDA         007170943001264BARCELONA COM VAR E ATAC SA LJ 05       AV DAS NACOES UNIDAS, 21883             SAO PAULO                               04795100SP367630001009657883001012957   06062012007PAULISTA            2108201200000000001498720CC                                                                                                                                                                                                                                                                                                                                                                                           185804-17     000139
1038421019058COBR_CAUC_BIC  CAMP ALIMENTOS COM E DISTR LTDA         007170943001264BARCELONA COM VAR E ATAC SA LJ 05       AV DAS NACOES UNIDAS, 21883             SAO PAULO                               04795100SP367630001109663450001012960   06062012007PAULISTA            0608201200000000002941120CC                                                                                                                                                                                                                                                                                                                                                                                           185804-18     000140
1038421019058COBR_CAUC_BIC  CAMP ALIMENTOS COM E DISTR LTDA         007170943001264BARCELONA COM VAR E ATAC SA LJ 05       AV DAS NACOES UNIDAS, 21883             SAO PAULO                               04795100SP367630001209661376001013084   11062012007PAULISTA            2808201200000000000599488CC                                                                                                                                                                                                                                                                                                                                                                                           185804-19     000141
1038421019058COBR_CAUC_BIC  CAMP ALIMENTOS COM E DISTR LTDA         007170943001264BARCELONA COM VAR E ATAC SA LJ 05       AV DAS NACOES UNIDAS, 21883             SAO PAULO                               04795100SP367630001309665037001013151   12062012007PAULISTA            2808201200000000002534976CC                                                                                                                                                                                                                                                                                                                                                                                           185804-20     000142
