0REMESSANOTIFICAÇÃO ELETRONICA        99999999999999Bicbanco S/A                            Avenida Paulista                        1048      12º andar BELA VISTA                    SÃO PAULO                     01310100SPBicbanco S/A                                                                    12072011                                                                                                                                                                                                                                                                                                                                                                                                000001
1018421002380COBR_CAUC_COR  FERTILIZANTES ALIANCA LTDA.             000044667264004LEONARDO PAULO AIMI                     RUA SAID ABDALLA, ,430                  JATAI                                   75802019GO288790000102337677A11019055A  05072011800UNIBANCO S/A        3007201100000000015200000CC                                                                                                                                                                                                                                                                                                                                                                                           136737-1      000002
1032420932087COBR_CAUC_BIC  TEXTIL RENAUXVIEW S/A                   085120939001700DUDALINA SA                             R ARNO DELLING 258                      BLUMENAU                                89066350SC28880000010956143041637/A     30062011032BLUMENAU            0208201100000000021049589CC                                                                                                                                                                                                                                                                                                                                                                                           136737-2      000003
1021420930887COBR_CAUC_COR  DEDINI S/A INDUSTRIAS DE BASE           048295562001108USINA ALTO ALEGRE S A - ACUCAR E A      RUA JOSE LEITE, 40                      PRESIDENTE PRUD                         19050910SP288810000106171334154060-1-1  06072011900BRADESCO S/A        2007201100000000039575520CC                                                                                                                                                                                                                                                                                                                                                                                           136737-3      000004
1021420930887COBR_CAUC_COR  DEDINI S/A INDUSTRIAS DE BASE           048295562001108USINA ALTO ALEGRE S A - ACUCAR E A      RUA JOSE LEITE, 40                      PRESIDENTE PRUD                         19050910SP288810000206171342154057-1-1  06072011900BRADESCO S/A        2007201100000000029911560CC                                                                                                                                                                                                                                                                                                                                                                                           136737-4      000005
1021420930887COBR_CAUC_COR  DEDINI S/A INDUSTRIAS DE BASE           048295562001108USINA ALTO ALEGRE S A - ACUCAR E A      RUA JOSE LEITE, 40                      PRESIDENTE PRUD                         19050910SP288810000306171351154056-1-1  06072011900BRADESCO S/A        2007201100000000043116160CC                                                                                                                                                                                                                                                                                                                                                                                           136737-5      000006
1021420930887COBR_CAUC_COR  DEDINI S/A INDUSTRIAS DE BASE           048295562001108USINA ALTO ALEGRE S A - ACUCAR E A      RUA JOSE LEITE, 40                      PRESIDENTE PRUD                         19050910SP288810000406171369154062-1-1  06072011900BRADESCO S/A        2007201100000000084478120CC                                                                                                                                                                                                                                                                                                                                                                                           136737-6      000007
1048421000354COBR_CAUC_COR  FRIGOL S.A. EM RECUPERACAO JUDICIAL     007042642000100FRINENSE ALIMENTOS LTDA                 AV ZOELHO SOLA, 44                      ITAPERUNA                               28300000RJ2888200001001645097188        06072011900BRADESCO S/A        1107201100000000012552144CC                                                                                                                                                                                                                                                                                                                                                                                           136737-7      000008
1008421005590COBR_CAUC_BIC  MM MONTEIRO PESCA E EXPORTACAO LTDA     033304981001949SUPERMERCADOS MUNDIAL LTDA              AV ITAOCA,2600                          RIO DE JANEIRO                          21061020RJ2888300001083772371555 A      05072011014RIO DE JANEIRO      1907201100000000012015000CC                                                                                                                                                                                                                                                                                                                                                                                           136737-8      000009
1008421005590COBR_CAUC_BIC  MM MONTEIRO PESCA E EXPORTACAO LTDA     033304981001949SUPERMERCADOS MUNDIAL LTDA              AV ITAOCA,2600                          RIO DE JANEIRO                          21061020RJ2888300002083772451555 B      05072011014RIO DE JANEIRO      2607201100000000012015000CC                                                                                                                                                                                                                                                                                                                                                                                           136737-9      000010
1024421007416COBR_CAUC_BIC  ATLAS AGROINDUSTRIAL LTDA               001656444000142COOPERATIVA AGRARIA XANXERE             R SANTOS DUMONT, 860                    ERECHIM                                 89820000SC288840000101904510016285      06072011024CUIABA              1508201100000000010553133CC                                                                                                                                                                                                                                                                                                                                                                                           136737-10     000011
1024421007416COBR_CAUC_BIC  ATLAS AGROINDUSTRIAL LTDA               001656444000142COOPERATIVA AGRARIA XANXERE             R SANTOS DUMONT, 860                    ERECHIM                                 89820000SC288840000201904528016284      06072011024CUIABA              1208201100000000010553133CC                                                                                                                                                                                                                                                                                                                                                                                           136737-11     000012
1047421000232COBR_CAUC_BIC  JOFER EMBALAGENS LTDA.                  000190373000172IND. E COM. DE COSMETICOS NATURA L      LAMEDA JURUA, 253                       BARUERI                                 06455010SP2893100001009761790021794     07072011007PAULISTA            2009201100000000032367000CC                                                                                                                                                                                                                                                                                                                                                                                           136779-1      000013
1009420930764COBR_CAUC_BIC  S/A CORREIO BRAZILIENSE                 061695227000193ELETROPAULO METROPOLITANA ELETR.SP      R LOURENCO MARQUES 158 VILA OLMPIA      SAO PAULO                               04547100SP289320000101355087416276-1    06072011007PAULISTA            3007201100000000012730973CC                                                                                                                                                                                                                                                                                                                                                                                           136779-2      000014
1021420930887COBR_CAUC_COR  DEDINI S/A INDUSTRIAS DE BASE           048295562001450USINA ALTO ALEGRE S A - ACUCAR E A      RUA JOSE LEITE, 40                      PRESIDENTE PRUD                         19050910SP289330000106171466154063-1-1  07072011900BRADESCO S/A        3007201100000000016799316CC                                                                                                                                                                                                                                                                                                                                                                                           136779-3      000015
1021420930887COBR_CAUC_COR  DEDINI S/A INDUSTRIAS DE BASE           048295562001450USINA ALTO ALEGRE S A - ACUCAR E A      RUA JOSE LEITE, 40                      PRESIDENTE PRUD                         19050910SP289330000206171491154061-1-1  07072011900BRADESCO S/A        3007201100000000011755644CC                                                                                                                                                                                                                                                                                                                                                                                           136779-4      000016
1021420930887COBR_CAUC_COR  DEDINI S/A INDUSTRIAS DE BASE           048295562001450USINA ALTO ALEGRE S A - ACUCAR E A      RUA JOSE LEITE, 40                      PRESIDENTE PRUD                         19050910SP289330000306171504154058-1-1  07072011900BRADESCO S/A        3007201100000000011263848CC                                                                                                                                                                                                                                                                                                                                                                                           136779-5      000017
1048421000613COBR_CAUC_BIC  TRIANGULO ALIMENTOS LTDA                004182260000186BIOVERDE INDUSTRIA E COMERCIO DE B      R IRMAOS ALBERNAZ                       TAUBATE                                 12050190SP2893400001003984020001855121  06072011007PAULISTA            1509201100000000019440000CC                                                                                                                                                                                                                                                                                                                                                                                           136779-6      000018
1014421011391COBR_CAUC_BIC  CENTRAL NACIONAL DE PRODUCOES LTDA      002415583000147IGREJA MUNDIAL DO PODER DE DEUS         R.CARNEIRO DE LEAO, 439                 SAO PAULO                               03015000SP2893500001044544751522/A      01072011007PAULISTA            1311201100000000050000000CC                                                                                                                                                                                                                                                                                                                                                                                           136779-7      000019
1016421006424COBR_CAUC_BIC  BOUTIN FERTILIZANTES LTDA               008188977000196SUL RURAL COM DE INS AGRICOLAS          AV BRASILIA,10000-BOX 20201 2021        LONDRINA                                86031770PR28936000010311462517362       27062011031LONDRINA            3001201200000000028416000CC                                                                                                                                                                                                                                                                                                                                                                                           136779-8      000020
1015421019587COBR_CAUC_BIC  SOCIEDADE GERAL DE EMPREITADAS LTDA     088074364000167ICCILA IND E COM E CONSTRUÇÕES IBA      JULIO DE CASTILHOS,448-SALA201          ESTRELA                                 95880000RS2893700001008685701100        04072011015PORTO ALEGRE        0409201100000000034152723CC                                                                                                                                                                                                                                                                                                                                                                                           136779-9      000021
1024421007416COBR_CAUC_BIC  ATLAS AGROINDUSTRIAL LTDA               007037802000115BOAV ALIMENTOS LTDA                     EST VICINAL CASA BRANCA KM 8            CASA BRANCA                             13700000SP2893800001019052495559        07072011024CUIABA              1108201100000000010443333CC                                                                                                                                                                                                                                                                                                                                                                                           136779-10     000022
1024421007416COBR_CAUC_BIC  ATLAS AGROINDUSTRIAL LTDA               007037802000115BOAV ALIMENTOS LTDA                     EST VICINAL CASA BRANCA KM 8            CASA BRANCA                             13700000SP2893800002019052735562        07072011024CUIABA              1708201100000000010443333CC                                                                                                                                                                                                                                                                                                                                                                                           136779-11     000023
1044421011590DIR_CREDIT     JMT SERVICOS E LOCACAO DE MAO DE OB     008109126000100PM DE CURRAIS NOVOS                     PCA DESEMBARGADOR TOMAZ SALUSTINO,90    NATAL                                   59000000RN2896200001                                                                                                                                          001090542           240820090000012577S/N         07052010003307prestação de serviços de locação de veiculos, maquinas e equipamentos, para limpeza urbana e coleta de lixo no municipio de currais novos/rn.                                                                                                   007442731000136136779-12     000024
9000023                                                                                                                                                                                                                                                                                                                                                                                                                                                                                                                                                                                                                                                                                                               000025
