0REMESSANOTIFICAÇÃO ELETRONICA        99999999999999Bicbanco S/A                            Avenida Paulista                        1048      12º andar BELA VISTA                    SÃO PAULO                     01310100SPBicbanco S/A                                                                    23092010                                                                                                                                                                                                                                                                                                                                                                                                000001
1021420930887COBR_CAUC_COR  DEDINI S/A INDUSTRIAS DE BASE           008657268000102USINA RIO PARDO LTDA                    FAZ S PEDRO SP 280 ROD C BRANCO KM260 ENCERQUEIRA CESAR                         18760000SP242920000105906811128929-2-2  20092010900BRADESCO S/A        1511201000000000012528653CC                                                                                                                                                                                                                                                                                                                                                                                           111983-1      000002
1021420930887COBR_CAUC_COR  DEDINI S/A INDUSTRIAS DE BASE           008657268000102USINA RIO PARDO LTDA                    FAZ S PEDRO SP 280 ROD C BRANCO KM260 ENCERQUEIRA CESAR                         18760000SP242920000205906845128929-3-3  20092010900BRADESCO S/A        1512201000000000012528653CC                                                                                                                                                                                                                                                                                                                                                                                           111983-2      000003
1021420930887COBR_CAUC_COR  DEDINI S/A INDUSTRIAS DE BASE           047254396000167J PILON S A AC E ALC                    FAZ SANTA MARIA SAO FRANCISCO BR        CERQUILHO                               18520000SP242930000105906659128807-2-2  20092010900BRADESCO S/A        1510201000000000015896180CC                                                                                                                                                                                                                                                                                                                                                                                           111983-3      000004
1021420930887COBR_CAUC_COR  DEDINI S/A INDUSTRIAS DE BASE           047254396000167J PILON S A AC E ALC                    FAZ SANTA MARIA SAO FRANCISCO BR        CERQUILHO                               18520000SP242930000205906802128807-3-3  20092010900BRADESCO S/A        1511201000000000015896180CC                                                                                                                                                                                                                                                                                                                                                                                           111983-4      000005
1021420930887COBR_CAUC_COR  DEDINI S/A INDUSTRIAS DE BASE           047254396000167J PILON S A AC E ALC                    FAZ SANTA MARIA SAO FRANCISCO BR        CERQUILHO                               18520000SP242930000305906829128807-4-4  20092010900BRADESCO S/A        1512201000000000015896180CC                                                                                                                                                                                                                                                                                                                                                                                           111983-5      000006
1021420930887COBR_CAUC_COR  DEDINI S/A INDUSTRIAS DE BASE           047254396000167J PILON S A AC E ALC                    FAZ SANTA MARIA SAO FRANCISCO BR        CERQUILHO                               18520000SP242930000405906853128716-3-3  20092010900BRADESCO S/A        2012201000000000010750000CC                                                                                                                                                                                                                                                                                                                                                                                           111983-6      000007
1016421011053COBR_CAUC_COR  FRIMESA COOPERATIVA CENTRAL             032296378002386CEREAIS BRAMIL LTDA                     EST BR 393,SN KM 176,3 LOTE02 E 03 DO   TRES RIOS                               25804970RJ242940000102876343199939-1    21092010900BRADESCO S/A        1910201000000000010989814CC                                                                                                                                                                                                                                                                                                                                                                                           111983-7      000008
1024420934410COBR_CAUC_BIC  INTERCOOP INT SUIN MED NORTE MT LTD     004613751000487CRISTALFRIGO IND COM IMPORTACAO EX      AV DOS ANDRADAS ,2229-STA EFIGENIA      BELO HORIZONTE                          30120010MG24295000010183037146119       18092010019BELO HORIZONTE      1610201000000000010936568CC                                                                                                                                                                                                                                                                                                                                                                                           111983-8      000009
1015421008640COBR_CAUC_COR  LABORATORIO AVAMILLER DE COSMETICO      025769266000124ARCOM S/A                               ROD.ANEL VIARIO AYRTON SENNA 2001       UBERLANDIA                              38414512MG2429600001007581034295        20092010900BRADESCO S/A        2911201000000000012408864CC                                                                                                                                                                                                                                                                                                                                                                                           111983-9      000010
1022421004755COBR_CAUC_COR  FRIGOL S.A.                             008593008000110DISTCARNES - DISTRIBUIDORA DE CARN      RUA ENG. VASCONCELOS BITTENCOURT, 414   RECIFE                                  50740180PE2429700001000352024380        21092010900BRADESCO S/A        2709201000000000016113986CC                                                                                                                                                                                                                                                                                                                                                                                           111983-10     000011
9000010                                                                                                                                                                                                                                                                                                                                                                                                                                                                                                                                                                                                                                                                                                               000012
