0REMESSANOTIFICAÇÃO ELETRONICA        99999999999999Bicbanco S/A                            Avenida Brigadeiro Faria Lima           4.440     2º andar  Itaim Bibi                    São Paulo                     04538132SPBicbanco S/A                                                                    16042014                                                                                                                                                                                                                                                                                                                                                                                                000001
1009421012831COBR_CAUC_COR  ASA ALIMENTOS S/A                       009587239000427COOPERATIVA MISTA DOS AVICULT. DO       ESTRADA TERESINA UNIAO ZONA LESTE       TERESINA                                64058305PI4714400001001504900048815     09042014900BRADESCO S/A        3004201400000000010800000CC                                                                                                                                                                                                                                                                                                                                                                                           296021-1      000002
1009421012831COBR_CAUC_COR  ASA ALIMENTOS S/A                       000083809899615VALDIR VAGNER FERREIRA E OUTROS         ROD BR 262, SN KM 426                   IGARATINGA                              35695000MG4714500001001505710048864     11042014900BRADESCO S/A        1604201400000000011604470CC                                                                                                                                                                                                                                                                                                                                                                                           296021-2      000003
1007421056385COBR_CAUC_COR  TERRA NOVA TRADING S/A                  061733242000189GREENWOOD INDUSTRIA E COMERCIO LTD      RUA PROF. CELIA ASS,127-PAVILHAO C      SAO ROQUE                               18130375SP471460000100001910TI13860PBB  11042014900BRADESCO S/A        2804201400000000015631172CC                                                                                                                                                                                                                                                                                                                                                                                           296021-3      000004
1020421002020COBR_CAUC_COR  GRABER SISTEMAS DE SEGURANCA LTDA       010588595000363MEDLEY COMERCIAL E LOGISTICA L          R ESTACIO DE SA, 1490 - JD SANTA GENEBRACAMPINAS                                13080010SP4714700001000163340000007639  09042014900BRADESCO S/A        0105201400000000014914867CC                                                                                                                                                                                                                                                                                                                                                                                           296021-4      000005
1021421016526COBR_CAUC_COR  EAM FACTORING FOMENTO MERCANTIL EIR     008419273000500PALMYRA REC NAT EXP COM LTDA            ROD PA 263, VIC CCM, PT REFLOR , S N    BREU BRANCO                             68488000PA471480000106552036000009092   09042014900BRADESCO S/A        0905201400000000011776505CC                                                                                                                                                                                                                                                                                                                                                                                           296021-5      000006
1018421015651COBR_CAUC_BIC  CMS PRODUTOS MEDICOS LTDA               076767219000182UNIMED REGIONAL MARINGA - COOPERAT      AV. TIRADENTES, 1008                    MARINGA                                 87013260PR471490000103669690000092641   10042014016CURITIBA            1205201400000000014738000CC                                                                                                                                                                                                                                                                                                                                                                                           296021-6      000007
1018421010323COBR_CAUC_BIC  PRODUBON NUTRICAO ANIMAL LTDA           000000794902634SEBASTIAO RIBEIRO FLOR E OUTRO          RUA 7 N354 ED BRITANIA SL101            GOIANIA                                 74023020GO471500000103669576053008/6    14012014018GOIANIA             0608201400000000012800000CC                                                                                                                                                                                                                                                                                                                                                                                           296021-7      000008
1007421055095COBR_CAUC_COR  PLASTER IND COM RESINAS PLAS EIRELI     059104513000195AUTOMETAL S/A                           AV FAGUNDES DE OLIVEIRA,1650            DIADEMA                                 09950300SP471510000100019622040469/A    31032014900BRADESCO S/A        1305201400000000010920000CC                                                                                                                                                                                                                                                                                                                                                                                           296021-8      000009
1007421077048DIR_CREDIT     ACESYSTEMS SOLUCOES EM TECNOLOGIA       043217280000105SOCICAM ADMIN. E PROJ. E REPR. LTDA     RUA BOA VISTA, 236                      SãO PAULO                               01046926SP4717000001                                                                                                                                          012556825           01082013000002541010/2013-INEA11042014000404Serviços de manutenção de Terminais Inteligentes(TI) nos Terminais,Estações de Transferencia e Paradas conforme proposta técnica apresentada e de acordo com as Ordens de Serviços a serem expedidas pela SP Trans a Socicam.                   008755477000199296104-1      000010
1015421022340COBR_CAUC_BIC  BORRACHAS VIPAL SA                      002437645000111RECAP -PNEUS MARINGA LTDA               ESTRADA RJ 145, N 10017 PARTE CX P 87345VALENCA                                 27600000RJ471720000101266948048200601   09042014014RIO DE JANEIRO      0807201400000000012147345CC                                                                                                                                                                                                                                                                                                                                                                                           296104-2      000011
1015421022340COBR_CAUC_BIC  BORRACHAS VIPAL SA                      002926987000103UNIMAK REFORMADORA DE PNEUS LTDA        ROD. DO ACUCARKM154                     RIO DAS PEDRAS                          13390000SP471730000101267014048191101   09042014021CAMPINAS            2904201400000000011565096CC                                                                                                                                                                                                                                                                                                                                                                                           296104-3      000012
1015421022340COBR_CAUC_BIC  BORRACHAS VIPAL SA                      008832031000110VEYANCE TECHNOLOGIES BR.PRODS.ENG.      RUA MORAES MIGUEL, 180                  SAO PAULO                               03021200SP471740000101264465048187401   09042014007PAULISTA            1605201400000000020390328CC                                                                                                                                                                                                                                                                                                                                                                                           296104-4      000013
1015421022340COBR_CAUC_BIC  BORRACHAS VIPAL SA                      008832031000110VEYANCE TECHNOLOGIES BR.PRODS.ENG.      RUA MORAES MIGUEL, 180                  SAO PAULO                               03021200SP471740000201266891048199601   09042014007PAULISTA            1605201400000000018015900CC                                                                                                                                                                                                                                                                                                                                                                                           296104-5      000014
1021420930887COBR_CAUC_COR  DEDINI S/A INDUSTRIAS DE BASE           033273681000110FLOWSERVE DO BRASIL LTDA                ESTRADA DO PEDREGOSO CAMPO GRANDE BR    RIO DE JANEIRO                          23078450RJ47175000010655328847722-3-3   10042014900BRADESCO S/A        1005201400000000019859982CC                                                                                                                                                                                                                                                                                                                                                                                           296104-6      000015
1007421065309COBR_CAUC_BIC  OCEANO IND.GRAFICA E EDITORA LTDA       062270186000156PRECOLANDIA COMERCIALLTDA               AV. ALVARO RAMOS,2178                   SAO PAULO                               03330000SP47176000010282712261235-C     01042014007PAULISTA            0107201400000000010461600CC                                                                                                                                                                                                                                                                                                                                                                                           296104-7      000016
1007421065309COBR_CAUC_BIC  OCEANO IND.GRAFICA E EDITORA LTDA       062270186000156PRECOLANDIA COMERCIALLTDA               AV. ALVARO RAMOS,2178                   SAO PAULO                               03330000SP47176000020282713161235-D     01042014007PAULISTA            1107201400000000010461600CC                                                                                                                                                                                                                                                                                                                                                                                           296104-8      000017
1008421022487COBR_CAUC_COR  EBP - EMPRESA BRASILEIRA DE PESCADO     033304981000110SUPERMERCADOS MUNDIAL LTDA              RUADONA EMILIA, 2                       RIO DE JANEIRO                          20765110RJ4717700001017468310025795/    12042014900BRADESCO S/A        0205201400000000015800000CC                                                                                                                                                                                                                                                                                                                                                                                           296104-9      000018
1022421009978COBR_CAUC_COR  LAJINHA AGROPECUARIA DE ITAPUI LTDA     023439441001404ARMAZEM MATEUS S/A                      RUA: LEONCIO PIRES DOURDAO , 3200       IMPERATRIZ                              65901020MA4718300001000305612026777     14042014900BRADESCO S/A        1305201400000000009570000CC                                                                                                                                                                                                                                                                                                                                                                                           296104-10     000019
1022421009978COBR_CAUC_COR  LAJINHA AGROPECUARIA DE ITAPUI LTDA     023439441001404ARMAZEM MATEUS S/A                      RUA: LEONCIO PIRES DOURDAO , 3200       IMPERATRIZ                              65901020MA4718300002000305702026778     14042014900BRADESCO S/A        1305201400000000009570000CC                                                                                                                                                                                                                                                                                                                                                                                           296104-11     000020
9000019                                                                                                                                                                                                                                                                                                                                                                                                                                                                                                                                                                                                                                                                                                               000021
