0REMESSANOTIFICAÇÃO ELETRONICA        99999999999999Bicbanco S/A                            Avenida Brigadeiro Faria Lima           4.440     2º andar  Itaim Bibi                    São Paulo                     04538132SPBicbanco S/A                                                                    22012014                                                                                                                                                                                                                                                                                                                                                                                                000001
1009421012831COBR_CAUC_COR  ASA ALIMENTOS S/A                       076111335000149GRANJA ECONOMICA AVICOLA LTDA           RUA CATANDUVAS, 333                     CARAMBEI                                84145000PR4610300001001495810046452     20012014900BRADESCO S/A        1702201400000000012870000CC                                                                                                                                                                                                                                                                                                                                                                                           279976-1      000002
1050421000089COBR_CAUC_BIC  ATIVO ALIMENTOS EXP E IMP EIRELI        008509003000167CENTRAL COM DIST DE ALIM BOMFIM LT      TV SAMPAIO CORREIA 31                   NATAL                                   59052061RN461040000100542465233010/1    17012014044NATAL               0702201400000000011654875CC                                                                                                                                                                                                                                                                                                                                                                                           279976-2      000003
1050421000089COBR_CAUC_BIC  ATIVO ALIMENTOS EXP E IMP EIRELI        010364949000124CAMPINAS ATACADISTA DE CARNESDER        ESTRADA VELHA CAMPINASMONTE MOR 1211    CAMPINAS                                13012970SP461050000100542431232985/1    17012014021CAMPINAS            1402201400000000019187538CC                                                                                                                                                                                                                                                                                                                                                                                           279976-3      000004
1050421000089COBR_CAUC_BIC  ATIVO ALIMENTOS EXP E IMP EIRELI        010364949000124CAMPINAS ATACADISTA DE CARNESDER        ESTRADA VELHA CAMPINASMONTE MOR 1211    CAMPINAS                                13012970SP461050000200542449232985/2    17012014021CAMPINAS            2102201400000000019187538CC                                                                                                                                                                                                                                                                                                                                                                                           279976-4      000005
1015421021867COBR_CAUC_COR  COTRIJUI COOP AGROP & INDUSTRIAL        008474030000141MEDEIROS FRIOS E CONGELADOS LTDA-       RUA DIAS CARNEIRO 1977                  BACABAL                                 65700000MA461060000100243863179710-1    17012014900BRADESCO S/A        2401201400000000011985000CC                                                                                                                                                                                                                                                                                                                                                                                           279976-5      000006
1048421003043COBR_CAUC_COR  FRIGOL S.A. EM RECUPERACAO JUDICIAL     006128996000100ATIVO ALIMENTOSEXP. E IMP. LTDA         RODOVIA CASTANHAL - INHANGAPI, S/N KM 04CASTANHAL                               68745040PA4610900001000653570000000159  20012014900BRADESCO S/A        2701201400000000014123340CC                                                                                                                                                                                                                                                                                                                                                                                           279976-6      000007
1007421069410COBR_CAUC_BIC  FULL COMEX TRADING S/A                  013837722000147CIDEMAQ COMERCIO DE MAQUINAS E EQU      JOAO CARLOS GONCALVES 870               SAO JOSE DO RIO                         15061510SP46107000010260066721899.1     17012014022RIBEIRAO PRETO      1803201400000000012005823CC                                                                                                                                                                                                                                                                                                                                                                                           279976-7      000008
1007421069410COBR_CAUC_BIC  FULL COMEX TRADING S/A                  013837722000147CIDEMAQ COMERCIO DE MAQUINAS E EQU      JOAO CARLOS GONCALVES 870               SAO JOSE DO RIO                         15061510SP46107000020260067521902.1     17012014022RIBEIRAO PRETO      1803201400000000012005823CC                                                                                                                                                                                                                                                                                                                                                                                           279976-8      000009
1007421060307COBR_CAUC_BIC  ROTHENBERG COMERCIO DE PERFUMES E C     027197888007597DUFRY DO BRASIL DUTY FREE SHOP LTD      R ESTRELA D OESTE 124                   GUARULHOS                               07140030SP461080000102598671RR4110599   20012014007PAULISTA            3103201400000000010812210CC                                                                                                                                                                                                                                                                                                                                                                                           279976-9      000010
9000009                                                                                                                                                                                                                                                                                                                                                                                                                                                                                                                                                                                                                                                                                                               000011
