0REMESSANOTIFICAÇÃO ELETRONICA        99999999999999Bicbanco S/A                            Avenida Paulista , 1048 12º andar                           BELA VISTA                    SÃO PAULO                     01310100SPBicbanco S/A                                                                    15062010                                                                                                                                                                                                                                                                                                                                                                                                000001
1028421002921COBR_CAUC_COR  FRIGORIFICO MATABOI S/A                 083648477000610GIASSI & CIA LTDA                       VL SAO JOSE SN                          ICARA                                   88820000SC2258400001001480710009910401  08062010900BRADESCO S/A        1306201000000000015366840CC                                                                                                                                                                                                                                                                                                                                                                                           102801-1      000002
1007420931444COBR_CAUC_BIC  PLASINCO LTDA                           007236290000116TUTTOELETRICA IND. DE FIOS E CABOS      R. ANTONIO AVER,214                     CAXIAS DO SUL                           95060070RS2258500001099160235397-C      09062010029CAXIAS DO SUL       0808201000000000013492800CC                                                                                                                                                                                                                                                                                                                                                                                           102801-2      000003
1007420931444COBR_CAUC_BIC  PLASINCO LTDA                           007236290000116TUTTOELETRICA IND. DE FIOS E CABOS      R. ANTONIO AVER,214                     CAXIAS DO SUL                           95060070RS2258500002099160315397-A      09062010029CAXIAS DO SUL       1907201000000000013492800CC                                                                                                                                                                                                                                                                                                                                                                                           102801-3      000004
1007420931444COBR_CAUC_BIC  PLASINCO LTDA                           007236290000116TUTTOELETRICA IND. DE FIOS E CABOS      R. ANTONIO AVER,214                     CAXIAS DO SUL                           95060070RS2258500003099160665397-B      09062010029CAXIAS DO SUL       2907201000000000013492800CC                                                                                                                                                                                                                                                                                                                                                                                           102801-4      000005
1032420933490COBR_CAUC_COR  CECRISA REVESTIMENTOS CERAMICOS         081332637000187OK CONSTRUTORA E EMPREEND IMOB          RUA LEDIO JOAO MARTINS,S/N              SAO JOSE                                88101100SC225860000107904542VP00425501  09062010900BRADESCO S/A        3006201000000000019028461CC                                                                                                                                                                                                                                                                                                                                                                                           102801-5      000006
1031420932046COBR_CAUC_BIC  PALMALI INDL.DE ALIMENTOS LTDA          074101569000341AGRICOLA JANDELLE S/A.                  AV ITAMARATY                            ROLANDIA                                86600000PR225870000104687696NE 0304541  08062010031LONDRINA            2307201000000000100000000CC                                                                                                                                                                                                                                                                                                                                                                                           102801-6      000007
1031420932046COBR_CAUC_BIC  PALMALI INDL.DE ALIMENTOS LTDA          074101569000341AGRICOLA JANDELLE S/A.                  AV ITAMARATY                            ROLANDIA                                86600000PR225870000204687700NE 0304551  08062010031LONDRINA            1808201000000000025000000CC                                                                                                                                                                                                                                                                                                                                                                                           102801-7      000008
1031420932046COBR_CAUC_BIC  PALMALI INDL.DE ALIMENTOS LTDA          074101569000341AGRICOLA JANDELLE S/A.                  AV ITAMARATY                            ROLANDIA                                86600000PR225870000304687718NE 0304561  08062010031LONDRINA            1808201000000000025000000CC                                                                                                                                                                                                                                                                                                                                                                                           102801-8      000009
1031420932046COBR_CAUC_BIC  PALMALI INDL.DE ALIMENTOS LTDA          074101569000341AGRICOLA JANDELLE S/A.                  AV ITAMARATY                            ROLANDIA                                86600000PR225870000404687726NE 0304571  08062010031LONDRINA            1809201000000000050000000CC                                                                                                                                                                                                                                                                                                                                                                                           102801-9      000010
1031420932046COBR_CAUC_BIC  PALMALI INDL.DE ALIMENTOS LTDA          074101569000341AGRICOLA JANDELLE S/A.                  AV ITAMARATY                            ROLANDIA                                86600000PR225870000504687734NE 0304581  08062010031LONDRINA            1810201000000000020000000CC                                                                                                                                                                                                                                                                                                                                                                                           102801-10     000011
1031420932046COBR_CAUC_BIC  PALMALI INDL.DE ALIMENTOS LTDA          074101569000341AGRICOLA JANDELLE S/A.                  AV ITAMARATY                            ROLANDIA                                86600000PR225870000604687742NE 0304591  08062010031LONDRINA            1810201000000000020000000CC                                                                                                                                                                                                                                                                                                                                                                                           102801-11     000012
1006420931269COBR_CAUC_COR  ACO CEARENSE INDUSTRIAL LTDA            010453816000124VIVIANE CALDAS REIS                     AVENIDA PREFEITO JOSE RODRIGUES . S/N   LUZIANIA                                72850140GO22623000010796059609127042 1  10062010900BRADESCO S/A        2507201000000000010026457CC                                                                                                                                                                                                                                                                                                                                                                                           102978-1      000013
1007421035264COBR_CAUC_BIC  ALLIED ADVANCED TECHNOLOGIES LTDA       004900392000449MAX AGP COMUNICACOES LTDA               RUA DA QUITANDA, 79                     RIO DE JANEIRO                          20091005RJ22624000010992323200099571 A  31052010014RIO DE JANEIRO      2908201000000000025758769CC                                                                                                                                                                                                                                                                                                                                                                                           102978-2      000014
1010140523766COBR_CAUC_BIC  UNA ACUCAR E ENERGIA LTDA               055483564000114SETTA COMBUSTIVEIS LTDA                 AV. MAL. MASC.DE MORAES,2525            RECIFE                                  51150001PE2262500001040694145403A       28052010010RECIFE              1510201000000000022000000TD                                                                                                                                                                                                                                                                                                                                                                                           102978-3      000015
1010140523766COBR_CAUC_BIC  UNA ACUCAR E ENERGIA LTDA               055483564000114SETTA COMBUSTIVEIS LTDA                 AV. MAL. MASC.DE MORAES,2525            RECIFE                                  51150001PE2262500002040694225403B       28052010010RECIFE              2210201000000000022000000TD                                                                                                                                                                                                                                                                                                                                                                                           102978-4      000016
1010140523766COBR_CAUC_BIC  UNA ACUCAR E ENERGIA LTDA               055483564000114SETTA COMBUSTIVEIS LTDA                 AV. MAL. MASC.DE MORAES,2525            RECIFE                                  51150001PE2262500003040694315403C       28052010010RECIFE              2910201000000000022000000TD                                                                                                                                                                                                                                                                                                                                                                                           102978-5      000017
1016421000809COBR_CAUC_BIC  LOGIKA DISTRIBUIDORA COSMETICOS LTD     025769266000124ARCOM S/A                               ANEL VIARIO AYRTON SENNA, 2001          UBERLANDIA                              38414512MG2262600001027863870000299/01  08062010028UBERLANDIA          0908201000000000017581200CC                                                                                                                                                                                                                                                                                                                                                                                           102978-6      000018
1016421000809COBR_CAUC_BIC  LOGIKA DISTRIBUIDORA COSMETICOS LTD     025769266000124ARCOM S/A                               ANEL VIARIO AYRTON SENNA, 2001          UBERLANDIA                              38414512MG2262600002027863950000300/01  08062010028UBERLANDIA          0908201000000000016228800CC                                                                                                                                                                                                                                                                                                                                                                                           102978-7      000019
1016421000809COBR_CAUC_BIC  LOGIKA DISTRIBUIDORA COSMETICOS LTD     025769266000124ARCOM S/A                               ANEL VIARIO AYRTON SENNA, 2001          UBERLANDIA                              38414512MG2262600003027864090000301/01  08062010028UBERLANDIA          0908201000000000013524000CC                                                                                                                                                                                                                                                                                                                                                                                           102978-8      000020
1028421001518COBR_CAUC_COR  GAIA AGRIBUSINESS AGRICOLA LTDA         000028303172115JOSE BENTO DE GODOY NETO                AV SANTA CATARINA ,830                  GOIATUBA                                75600000GO22627000010261376557718       06042010600HSBC BANK BRASIL    3011201000000000014400000CC                                                                                                                                                                                                                                                                                                                                                                                           102978-9      000021
1028421001518COBR_CAUC_COR  GAIA AGRIBUSINESS AGRICOLA LTDA         000043982166187RENIS EUSTAQUIO GONCALVES               RUA JURUA ,95                           GOIATUBA                                75600000GO22628000010261377357743       06042010600HSBC BANK BRASIL    3011201000000000014400000CC                                                                                                                                                                                                                                                                                                                                                                                           102978-10     000022
1028421001518COBR_CAUC_COR  GAIA AGRIBUSINESS AGRICOLA LTDA         000084892072672MAERCIO GOIS PORTILHO                   AV SANTA CATARINA,830                   GOIATUBA                                75600000GO22629000010261379057706       06042010600HSBC BANK BRASIL    3011201000000000015000000CC                                                                                                                                                                                                                                                                                                                                                                                           102978-11     000023
1019421010259COBR_CAUC_BIC  L&S FOMENTO MERCANTIL                   001062529000100DULCINI S/A                             ESTRADA SITIO TABOAO, S/N               PIRASSUNUNGA                            13631301SP2263000001053035397752        07062010021CAMPINAS            1607201000000000019449528CC                                                                                                                                                                                                                                                                                                                                                                                           102978-12     000024
1019421010259COBR_CAUC_BIC  L&S FOMENTO MERCANTIL                   011751805000193CONSORCIO SANTA BARBARA-MENDES JR       AV DO CONTORNO, 3542 SL 501             BELO HORIZONTE                          30110018MG2263100001053035210345-1      10062010019BELO HORIZONTE      2506201000000000020000000CC                                                                                                                                                                                                                                                                                                                                                                                           102978-13     000025
1017421000397DIR_CREDIT     MARIO SERGIO CURSINO DOS SANTOS         012272498000120USINA CANSANCAO DE SINIMBU S/A          POVOADO SINIMBU, S/N                    JEQUIA DA PRAIA                         57244000AL2265100001                                                                                                                                          011000225           151220060000004482            09062010000403VENDA DE 5000 TONELADAS DE CANA-DE-AçUCAR PRODUZIDAS DURANTE A SAFRA2009/2010, NO FUNDO AGRICOLA DENOMINADO FAZENDA URUçU, LOCALIZADA NO MUNICIPIO DE JEQUIá DA PRAIA-AL.                                                                       485082254000015103119-1      000026
1014421018817DIR_CREDIT     GEVA CONSTRUTORA LTDA                   072840085000127SANED COMPANHIA DE SANEAMENTO DE DIADEMARUA ESTADOS UNIDOS 78, CENTRO           SAO PAULO                               09921030SP2266300001                                                                                                                                          481020021           27052008000001195310.135-3/08 09062010000404ampliação, MELHORIA DO ABASTECIMENTO DE REGIÃO NORTE E IMPLANTAÇÃO DESETORIZAÇÃO VOLTADO AO CONTROLE DE PRESSÃO NO MUNICÍPIO DE DIADEMA.                                                                                                        008158091000108103119-2      000027
1014421018817DIR_CREDIT     GEVA CONSTRUTORA LTDA                   072840085000127SANED COMPANHIA DE SANEAMENTO DE DIADEMARUA ESTADOS UNIDOS, 78                  DIADEMA                                 09921030SP2266400001                                                                                                                                          481020021           28052008000001195510.137-3/08 09062010000404EXECUÇÃO DE REDE DE ESGOTO EM VIAS PÚBLICAS E NOVOS LOTEAMENTOS E COLE-TOR TRONCO CURRAL GRANDE NO MUNICÍPIO DE DIADEMA.                                                                                                                        008158091000108103119-3      000028
1007420931444COBR_CAUC_BIC  PLASINCO LTDA                           061413282000143LORENZETTI S/A INDUSTRIA BRASILEIR      AV. PRESIDENTE WILSON,1230              SAO PAULO                               03107901SP2267700001099234535431-A      09062010007PAULISTA            0707201000000000024016728CC                                                                                                                                                                                                                                                                                                                                                                                           103119-4      000029
1014420939021COBR_CAUC_BIC  EDITORA O DIA S/A                       011140086000174EMPRESA JORNALISTICA ECONOMICO S.A      AV DAS NACOES UNIDAS, 11633 8 ANDA      SAO PAULO                               04578901SP2267800001022413510542691     10062010007PAULISTA            3006201000000000011121540CC                                                                                                                                                                                                                                                                                                                                                                                           103119-5      000030
1046421003063DIR_CREDIT     HUMANA GROUP BRASIL PART LTDA           083102574000106PM DE RIO DO SUL - SC                   PRAÇA 25 DE JULHO, 01                   RIO DO SUL                              89160000SC2271800001                                                                                                                                          481003094           091220090000011300110/2009    29012010000404contratação de serviços tecnicos de consultoria para elaboração, adequação e ajustes do projeto PNAFM - Programa Nacional de Apoio à Gestão Administrativa e Fiscal para o Município de Rio do Sul.                                             010640055000110103119-6      000031
9000030                                                                                                                                                                                                                                                                                                                                                                                                                                                                                                                                                                                                                                                                                                               000032
