0REMESSANOTIFICAÇÃO ELETRONICA        99999999999999Bicbanco S/A                            Avenida Paulista                        1048      12º andar BELA VISTA                    SÃO PAULO                     01310100SPBicbanco S/A                                                                    28102011                                                                                                                                                                                                                                                                                                                                                                                                000001
1007421012434COBR_CAUC_COR  AMEPLAN ASSIST MEDICA PLANEJADA         011031202000117VIACAO METROPOLITANA LTDA.              R. GENARO DE CARVALHO 65                SAO PAULO                               04377220SP3155300001000252310000000868  25102011900BRADESCO S/A        2511201100000000012523566CC                                                                                                                                                                                                                                                                                                                                                                                           149815-1      000002
1048421000354COBR_CAUC_COR  FRIGOL S.A. EM RECUPERACAO JUDICIAL     009298360000196FUNCHAL COMERCIAL DE ALIMENTOS LTD      RUA SAMPAIO CORREIA, 75                 SAO PAULO                               02710080SP315540000100263612245747-1    25102011900BRADESCO S/A        2810201100000000010085360CC                                                                                                                                                                                                                                                                                                                                                                                           149815-2      000003
1037421002157DIR_CREDIT     IFC INT FOOD COMP IND DE ALIM S/A       060037058000131AD´ORO S/A                              RUA TABAPUA, 594 - 5º ANDAR - ITAIM BIBISÃO PAULO                               04533002SP3156800001                                                                                                                                          011206851           09122009000001612809122009    12112010000430CONSISTE NO ALUGUEL DA AREA DE ARMAZENAMENTO PELA IFC A AD´ORO ("O ALUGUEL"), AREA TOTAL DE 1.832.32 M2, DEVIDAMENTE DELIMITADA NA PLANTA.                                                                                                      002473696000107149816-1      000004
1007421054544COBR_CAUC_BIC  WIREX CABLE S/A                         000463220000232SANDVIK MGS S.A                         AV PAULISTA, 1000 4O ANDAR              SAO PAULO                               01310100SP3157900001008872920051228/01  20102011007PAULISTA            1711201100000000017121179CC                                                                                                                                                                                                                                                                                                                                                                                           149816-2      000005
1021141012725COBR_CAUC_BIC  MABE BRASIL ELETRODOMESTICOS LTDA       047960950003902MAGAZINE LUIZA S/A                      VIA ANHANGUERA 0, KM 310 S/N            RIBEIRAOPRETO                           14093500SP3158000001062221410000519976  24102011022RIBEIRAO PRETO      1611201100000000011308601TD                                                                                                                                                                                                                                                                                                                                                                                           149816-3      000006
1021141012725COBR_CAUC_BIC  MABE BRASIL ELETRODOMESTICOS LTDA       047960950003902MAGAZINE LUIZA S/A                      VIA ANHANGUERA 0, KM 310 S/N            RIBEIRAOPRETO                           14093500SP3158000002062221500000519977  24102011022RIBEIRAO PRETO      1611201100000000010574910TD                                                                                                                                                                                                                                                                                                                                                                                           149816-4      000007
1048421000354COBR_CAUC_COR  FRIGOL S.A. EM RECUPERACAO JUDICIAL     001702122000192FRIGORIFICO VALE DO SAPUCAI LTDA        AV WAGNER LEMOS MACHADO 1100            ITAJUBA                                 37504326MG3158100001002650208409        26102011900BRADESCO S/A        0111201100000000016106469CC                                                                                                                                                                                                                                                                                                                                                                                           149816-5      000008
1048421000354COBR_CAUC_COR  FRIGOL S.A. EM RECUPERACAO JUDICIAL     001702122000192FRIGORIFICO VALE DO SAPUCAI LTDA        AV WAGNER LEMOS MACHADO 1100            ITAJUBA                                 37504326MG3158100002002650628413        26102011900BRADESCO S/A        0311201100000000015642198CC                                                                                                                                                                                                                                                                                                                                                                                           149816-6      000009
1048421000354COBR_CAUC_COR  FRIGOL S.A. EM RECUPERACAO JUDICIAL     004623921000161COMERCIO DE CARNES PADRE CICERO LT      R: PHILARETTE CARNEIRO NOBRELACERDA, 158RECIFE                                  50770120PE3158200001002650548407        26102011900BRADESCO S/A        0111201100000000016901625CC                                                                                                                                                                                                                                                                                                                                                                                           149816-7      000010
1044421010977COBR_CAUC_BIC  FEDCO INDUSTRIA E COMERCIO LTDA         006626253012400EMPREENDIMENTOS PAGUE MENOS S/A         R. FRANCISCO CORDEIRO                   FORTALEZA                               60310490CE315830000101368298015518/1.1  17102011003CENTRO              2302201200000000012264632CC                                                                                                                                                                                                                                                                                                                                                                                           149816-8      000011
1000000000000DIR_CREDIT     IBA AGROINDUSTRIAL LTDA                 007459492000127DESTILARIA VALE DO PARACATU AGROENERGIA ROD LMG 680 KM 26 CX POSTAL 271         PARACATU                                38600000MG3159700001                                                                                                                                          001114325           101020100000017282            24102011001210a locadora aluga para locataria as maquinas descritas no instrumento particular de contrato de locação de maquinas agricolas.                                                                                                                   006997187000126149816-9      000012
1000000000000DIR_CREDIT     IBA AGROINDUSTRIAL LTDA                 007459492000127DESTILARIA VALE DO PARACATU AGROENERGIA ROD LMG 680 KM 26 CX POSTAL 271         PARACATU                                38600000MG3159800001                                                                                                                                          001114319           101020100000017282            24102011001213a locadora aluga para locataria as maquinas descritas no instrumento particular de contrato de locação de maquinas agricolas.                                                                                                                   006997187000126149816-10     000013
1000000000000DIR_CREDIT     IBA AGROINDUSTRIAL LTDA                 007459492000127DESTILARIA VALE DO PARACATU AGROENERGIA ROD LMG 680 KM 26 CX POSTAL 271         PARACATU                                38600000MG3159900001                                                                                                                                          001114338           101020100000017282            24102011001213a locadora aluga para locataria as maquinas descritas no instrumento particular de contrato de locação de maquinas agricolas.                                                                                                                   006997187000126149816-11     000014
9000013                                                                                                                                                                                                                                                                                                                                                                                                                                                                                                                                                                                                                                                                                                               000015
