0REMESSANOTIFICAÇÃO ELETRONICA        99999999999999Bicbanco S/A                            Avenida Brigadeiro Faria Lima           4.440     2º andar  Itaim Bibi                    São Paulo                     04538132SPBicbanco S/A                                                                    21012014                                                                                                                                                                                                                                                                                                                                                                                                000001
1031421007850COBR_CAUC_COR  AGRICOLA JANDELLE S/A                   004641376007300SUPERMERCADOS BH COMERCIO DE ALIME      AVENIDA GERALDO ROCHA 200               CONTAGEM                                32183054MG4591400001053450040013616901  31122013900BRADESCO S/A        3001201400000000012298366CC                                                                                                                                                                                                                                                                                                                                                                                           279698-1      000002
1048421002284DIR_CREDIT     BENEPLAN PLANO DE SAUDE LTDA            005500934000106PASCHOALOTTO SERVICOS FINANCEIROS LTDA  RUA PROF. DURVAL GUEDES DE AZEVEDO      BAURU                                   17012633SP4592000001                                                                                                                                          011810823           270620070000021102            26042012000403Prestação de assistência médica, hospitalar e ambulatorial aos funcionários aderentes da empresa Contratante, bem como seus dependentes.                                                                                                        002719125000100279698-2      000003
1018420932820COBR_CAUC_COR  ADUBOS ARAGUAIA IND. E COM. LTDA        005804120000246CERES AGRONEGOCIOS LTDA                 AV MODESTO DE CARVALHO 1650 A           ITUMBIARA                               75533020GO4592200001035459910001198501  30122013800UNIBANCO S/A        3005201400000000011789470CC                                                                                                                                                                                                                                                                                                                                                                                           279699-1      000004
1020421002020COBR_CAUC_COR  GRABER SISTEMAS DE SEGURANCA LTDA       004176689000322ENVISION INDUSTRIA DE PRODUTOS          ROD ANHNAGUERA, S/N - KM 49 - TERRA NOVAJUNDIAI                                 13205700SP4593900001000140300000007071  06012014900BRADESCO S/A        3001201400000000010927320CC                                                                                                                                                                                                                                                                                                                                                                                           279700-3      000005
1020421001652COBR_CAUC_BIC  SANTHER FAB PAP STA THEREZINHA S/A      086580594000334SUPERMIX COMERCIAL S/A                  AV. WILSON TAVARES RIBEIRO, 800         CONTAGEM                                32183683MG459410000106376359051044401   03012014019BELO HORIZONTE      1402201400000000013744034CC                                                                                                                                                                                                                                                                                                                                                                                           279700-7      000006
1007421073611COBR_CAUC_BIC  VALE GRANDE IND E COM DE ALIMENTOS      007158073000155PERALTA DISTRIBUIDORA DE ALIMENTOS      LIGACAO, DE 248                         SAO PAULO                               05280000SP45942000010255000700055190-1  26122013007PAULISTA            2701201400000000020754130CC                                                                                                                                                                                                                                                                                                                                                                                           279700-8      000007
1028421011386COBR_CAUC_COR  POLICARD SYSTEMS E SERVICOS S/A         003240946000113ISOREL LOCAçãO E SERVIçOS LTDA          R.ALCEU AMOROSO LIMA, 314 S406          SALVADOR                                41812770BA459580000102977651211218      07012014900BRADESCO S/A        0602201400000000018359786CC                                                                                                                                                                                                                                                                                                                                                                                           279701-2      000008
1028421011386COBR_CAUC_COR  POLICARD SYSTEMS E SERVICOS S/A         062598586000195ANGELO AURICCHIO COMPANHIA LTDA         R LEME DA SILVA, 255                    SAO PAULO                               03182901SP459600000102977953210777      06012014900BRADESCO S/A        2801201400000000011728937CC                                                                                                                                                                                                                                                                                                                                                                                           279701-3      000009
1028421011386COBR_CAUC_COR  POLICARD SYSTEMS E SERVICOS S/A         012463689000170VIACAO SORRISO DE MINAS S/A             AV. PINHO, 895                          UBERLANDIA                              38413308MG459590000102977694211204      07012014900BRADESCO S/A        0102201400000000014906688CC                                                                                                                                                                                                                                                                                                                                                                                           279701-4      000010
1029421018494COBR_CAUC_COR  PRO SALUTE SERVICOS PARA SAUDE LTDA     088611264000122INTRAL S A IND DE MATERIAIS ELETRI      TRAV. RIO GRANDE , 130                  CAXIAS DO SUL                           95098750RS4595600001000908060142811.A   03012014900BRADESCO S/A        1002201400000000011106575CC                                                                                                                                                                                                                                                                                                                                                                                           279701-5      000011
1046421006020COBR_CAUC_BIC  RUELL IMPORTACAO E EXPORTACAO LTDA      004744781000341ADM COM. DE ROUPAS LTDA                 ALAMEDA STO AMARO,326                   SAO PAULO                               04745001SP4596300001022614501977/03     16072013007PAULISTA            2707201400000000010888020CC                                                                                                                                                                                                                                                                                                                                                                                           279701-7      000012
1046421006020COBR_CAUC_BIC  RUELL IMPORTACAO E EXPORTACAO LTDA      004744781000341ADM COM. DE ROUPAS LTDA                 ALAMEDA STO AMARO,326                   SAO PAULO                               04745001SP4596300002022614682370/05     12122013007PAULISTA            2707201400000000013131122CC                                                                                                                                                                                                                                                                                                                                                                                           279701-8      000013
1046421006020COBR_CAUC_BIC  RUELL IMPORTACAO E EXPORTACAO LTDA      004744781000341ADM COM. DE ROUPAS LTDA                 ALAMEDA STO AMARO,326                   SAO PAULO                               04745001SP4596300003022614762332/05     26112013007PAULISTA            2307201400000000012696000CC                                                                                                                                                                                                                                                                                                                                                                                           279701-9      000014
1046421006020COBR_CAUC_BIC  RUELL IMPORTACAO E EXPORTACAO LTDA      004744781000341ADM COM. DE ROUPAS LTDA                 ALAMEDA STO AMARO,326                   SAO PAULO                               04745001SP4596300004022614841975/03     16072013007PAULISTA            2107201400000000010888020CC                                                                                                                                                                                                                                                                                                                                                                                           279701-10     000015
1046421006020COBR_CAUC_BIC  RUELL IMPORTACAO E EXPORTACAO LTDA      004744781000341ADM COM. DE ROUPAS LTDA                 ALAMEDA STO AMARO,326                   SAO PAULO                               04745001SP4596300005022615061974/03     16072013007PAULISTA            1707201400000000010105000CC                                                                                                                                                                                                                                                                                                                                                                                           279701-11     000016
1046421006020COBR_CAUC_BIC  RUELL IMPORTACAO E EXPORTACAO LTDA      004744781000341ADM COM. DE ROUPAS LTDA                 ALAMEDA STO AMARO,326                   SAO PAULO                               04745001SP4596300006022615141967/03     16072013007PAULISTA            1307201400000000010857000CC                                                                                                                                                                                                                                                                                                                                                                                           279701-12     000017
1046421006020COBR_CAUC_BIC  RUELL IMPORTACAO E EXPORTACAO LTDA      004744781000341ADM COM. DE ROUPAS LTDA                 ALAMEDA STO AMARO,326                   SAO PAULO                               04745001SP4596300007022615312371/04     12122013007PAULISTA            3006201400000000011377448CC                                                                                                                                                                                                                                                                                                                                                                                           279701-13     000018
1046421006020COBR_CAUC_BIC  RUELL IMPORTACAO E EXPORTACAO LTDA      004744781000341ADM COM. DE ROUPAS LTDA                 ALAMEDA STO AMARO,326                   SAO PAULO                               04745001SP4596300008022615492370/04     12122013007PAULISTA            2706201400000000013131122CC                                                                                                                                                                                                                                                                                                                                                                                           279701-14     000019
1046421006020COBR_CAUC_BIC  RUELL IMPORTACAO E EXPORTACAO LTDA      004744781000341ADM COM. DE ROUPAS LTDA                 ALAMEDA STO AMARO,326                   SAO PAULO                               04745001SP4596300009022615651974/02     16072013007PAULISTA            1706201400000000010105000CC                                                                                                                                                                                                                                                                                                                                                                                           279701-15     000020
1046421006020COBR_CAUC_BIC  RUELL IMPORTACAO E EXPORTACAO LTDA      004744781000341ADM COM. DE ROUPAS LTDA                 ALAMEDA STO AMARO,326                   SAO PAULO                               04745001SP4596300010022615732371/03     12122013007PAULISTA            3005201400000000011377448CC                                                                                                                                                                                                                                                                                                                                                                                           279701-16     000021
1046421006020COBR_CAUC_BIC  RUELL IMPORTACAO E EXPORTACAO LTDA      004744781000341ADM COM. DE ROUPAS LTDA                 ALAMEDA STO AMARO,326                   SAO PAULO                               04745001SP4596300011022615811974/04     16072013007PAULISTA            2807201400000000010105000CC                                                                                                                                                                                                                                                                                                                                                                                           279701-17     000022
1007421073611COBR_CAUC_BIC  VALE GRANDE IND E COM DE ALIMENTOS      011308974000153INDAIATUBA DISTRIBUIDORA DE CARNES      RUA DR SERGIO MARIO ALMEIDA, 410 410    INDAIATUBA                              13348440SP45962000010256343500019104-1  06012014021CAMPINAS            3001201400000000014614549CC                                                                                                                                                                                                                                                                                                                                                                                           279701-18     000023
1029421011376COBR_CAUC_BIC  VOGES METALURGIA LTDA                   009688218000155JOHN BEAN TECHNOLOGIES MAQUINAS         AVENIDA ENGENHEIRO CA 4.605, SALA A     ARARAQUARA                              14808900SP4596100001000884290255231001  06012014022RIBEIRAO PRETO      1702201400000000010054312CC                                                                                                                                                                                                                                                                                                                                                                                           279701-19     000024
1046421006399DIR_CREDIT     CARBONIFERA CRICIUMA S/A                002474103000208TRACTEBEL ENERGIA S/A                   AVENIDA PAULO SANTOS MELLO, S/NR        CAPIVARI DE BAIXO                       88745000SC4591900001                                                                                                                                          012465655           011220100000020197DGT.NAJL.05.02012014000404compra de carvão mineral tipo CE 4500.                                                                                                                                                                                                          083647909000163279703-2      000025
1046421001443COBR_CAUC_COR  COSTAO DO SANTINHO TUR E LAZER LTDA     010760260000119CVC BRASIL OPERADORA E AGENCIA DE       RUA GERTRUDES DE LI,53-4OA - SL 43      SANTO ANDRE                             09020000SP459740000100013271196659      07012014900BRADESCO S/A        0202201400000000011857700CC                                                                                                                                                                                                                                                                                                                                                                                           279703-3      000026
1046421001443COBR_CAUC_COR  COSTAO DO SANTINHO TUR E LAZER LTDA     010760260000119CVC BRASIL OPERADORA E AGENCIA DE       RUA GERTRUDES DE LI,53-4OA - SL 43      SANTO ANDRE                             09020000SP459740000200013289196671      07012014900BRADESCO S/A        0302201400000000010839862CC                                                                                                                                                                                                                                                                                                                                                                                           279703-4      000027
1036421019760DIR_CREDIT     ED PLANETA DEAGOSTINI DO BRASIL LTD     028322873000130FC COMERCIAL E DISTRIBUIDORA S/A        DR KENKITI SHIMOMOTO, 1678 - SALA A     OSASCO                                  06045390SP4589700001                                                                                                                                          012363067           230520110000022012S/N         26092013051902contrato de compra e venda de publicações, em regime de consignação de mercadorias para revenda à terceiros,bancas de jornais e revistas e em pontosalternativos.                                                                               001713870000170279703-5      000028
1000000000000DIR_CREDIT     IBA AGROINDUSTRIAL LTDA                 007459492000127DESTILARIA VALE DO PARACATU AGROENERGIA ROD LMG 680 KM 26 CX POSTAL 271         PARACATU                                38600000MG4567100001                                                                                                                                          001114338           101020100000017282            29082013001210a locadora aluga para locataria as maquinas descritas no instrumento particular de contrato de locação de maquinas agricolas.                                                                                                                   006997187000126279703-6      000029
1016421027286DIR_CREDIT     KONRAD CURITIBA COM DE CAMINHOES LT     000000000000191BANCO DOBRASIL S/A                      SETOR SUL QUADRA 1 SCS ASA SUL          BRASILIA                                07040902DF4571600001                                                                                                                                          012454096           011120130000025251DIVERSOS    16122013000404fornecimento de bens                                                                                                                                                                                                                            008482610000180279703-7      000030
1007000000000DIR_CREDIT     LADEIRA MIRANDA ENGENHARIA E CONSTR     015419865000164LMT SOCIEDADE INCORPORADORA SPE LTDA    AV. JUSCELINO KUBITSCHEK DE OLIVEIRA    TAUBATE                                 12010600SP4584800001                                                                                                                                          012372988           240720130000024896            20122013000403A empresa Ladeira Miranda receberá 10% sobre o valor total de constru- ção (R$23.500.000,00), em razão da administração da obra. O contrato é recem iniciado, por este motivo o valor a receber é de 100%.                                      046407888000182279703-8      000031
1007421067719COBR_CAUC_BIC  NEOLIDER COM.IMP.E EXP.DE ACOS LTDA     060869005000772SOBLOCO CONSTRUTORA SA                  AV BRIG FARIA LIMA,2601 7* AND          SAO PAULO                               01452924SP459730000102570547058977/     08012014007PAULISTA            0702201400000000012525702CC                                                                                                                                                                                                                                                                                                                                                                                           279703-9      000032
1007421071368DIR_CREDIT     RONSINE ALIMENTOS COM E SERVICOS LT     059307595000175MUNICIPIO DE SÃO CAETANO DO SUL         RUA EDUARDO PRADO, Nº 201               SÃO JOSE                                09581200SP4598200001                                                                                                                                          012309496           200420120000024074610/2008    06012014000403fornecimento de cestas básicas de alimentos, com sistema de entregaporta a porta destinadas ao Departamento de Assistência Social e Cidadania.                                                                                                  005428934000142279703-10     000033
1009421012831COBR_CAUC_COR  ASA ALIMENTOS S/A                       007387853000177GRANJA SALOME LTDA                      ROD. BR-262KM 0                         BOM DESPACHO                            35600000MG4606200001001495560046310     15012014900BRADESCO S/A        1202201400000000013185000CC                                                                                                                                                                                                                                                                                                                                                                                           279709-1      000034
1021421016526COBR_CAUC_COR  EAM FACTORING FOMENTO MERCANTIL EIR     006997743000598SB COMERCIAL DE ALIMENTOS LTDA EPP      POETA JOAQUIM BONIFACIO                 GOIANIA                                 74770325GO460630000106508029017644 55   16012014900BRADESCO S/A        2002201400000000013200000CC                                                                                                                                                                                                                                                                                                                                                                                           279709-2      000035
1048421003043COBR_CAUC_COR  FRIGOL S.A. EM RECUPERACAO JUDICIAL     032296378002386CEREAIS BRAMIL LTDA                     EST. PASSA TEMPO, 103                   TRES RIOS                               25805250RJ46066000010006486500031954-1  15012014900BRADESCO S/A        1402201400000000020245225CC                                                                                                                                                                                                                                                                                                                                                                                           279709-3      000036
1028421001518COBR_CAUC_COR  GAIA AGRIBUSINESS AGRICOLA LTDA         000000397580100ADAIR HENRIQUE DA SILVA                 AV CAROLINA VIEIRA DA MOTA,524          BOM JESUS                               75570000GO46065000010297976048402       09012014900BRADESCO S/A        0205201400000000014328000CC                                                                                                                                                                                                                                                                                                                                                                                           279709-4      000037
1018421010323COBR_CAUC_BIC  PRODUBON NUTRICAO ANIMAL LTDA           000000794902634SEBASTIAO RIBEIRO FLOR E OUTRO          RUA 7 N354 ED BRITANIA SL101            GOIANIA                                 74023020GO460640000103555295053008/2    14012014018GOIANIA             0204201400000000012800000CC                                                                                                                                                                                                                                                                                                                                                                                           279709-5      000038
1009421012831COBR_CAUC_COR  ASA ALIMENTOS S/A                       009587239000427COOPERATIVA MISTA DOS AVICULT. DO       ESTRADA TERESINA UNIAO ZONA LESTE       TERESINA                                64058305PI4609100001001495640046328     16012014900BRADESCO S/A        0602201400000000010800000CC                                                                                                                                                                                                                                                                                                                                                                                           279710-1      000039
9000038                                                                                                                                                                                                                                                                                                                                                                                                                                                                                                                                                                                                                                                                                                               000040
