0REMESSANOTIFICAÇÃO ELETRONICA        99999999999999Bicbanco S/A                            Avenida Paulista                        1048      12º andar BELA VISTA                    SÃO PAULO                     01310100SPBicbanco S/A                                                                    30092011                                                                                                                                                                                                                                                                                                                                                                                                000001
1009421003875DIR_CREDIT     POLIEDRO INFORMATICA CONSULT. SERV.     007947821000189AGENCIA NACIONAL DE AVIAçãO CIVIL-ANAC  Q SCS QUADRA 9 S/N - EDIF. PARQUE CIDAD BRASILIA-DF                             70308200DF3082500001                                                                                                                                          481012742           251020070000019564053/2007/ANA22092011000404Prestação de serviços técnicos especializados em Tecnologia da Informa-ção (TI) em apoio às atividades meio e fim da Agência Nacional de Aviação Civil(ANAC).                                                                                   002660447000112146406-1      000002
1021420930887COBR_CAUC_COR  DEDINI S/A INDUSTRIAS DE BASE           048295562001884USINA ALTO ALEGRE S A - ACUCAR E A      RUA JOSE LEITE, 40 JD BONGIOVANI BR     PRESIDENTE PRUD                         19050910SP30893000010619793721294-2-2   20092011900BRADESCO S/A        1110201100000000010058916CC                                                                                                                                                                                                                                                                                                                                                                                           146406-2      000003
1048421000338COBR_CAUC_COR  FRIGOESTRELA S.A. EM RECUP JUDICIAL     050947761001871IRMAOS RUSSI LTDA                       RUA LUIS ALLI FARDYN590SALA 03          CAJAMAR                                 07750000SP3089400001014661930014913401  25092011900BRADESCO S/A        3110201100000000011278372CC                                                                                                                                                                                                                                                                                                                                                                                           146406-3      000004
1038421011812COBR_CAUC_BIC  ENERGY COML IMPORT E EXPORT LTDA        009363567000105PREMIX BRASIL RESINAS                   ALAMEDA ARAGU,2044-CJ703A705TORRE2      SAO PAULO                               06455000SP309160000109433900564         26092011007PAULISTA            2410201100000000012367890CC                                                                                                                                                                                                                                                                                                                                                                                           146561-1      000005
1038421011812COBR_CAUC_BIC  ENERGY COML IMPORT E EXPORT LTDA        009363567000105PREMIX BRASIL RESINAS                   ALAMEDA ARAGU,2044-CJ703A705TORRE2      SAO PAULO                               06455000SP309160000209433918563         26092011007PAULISTA            2410201100000000011030821CC                                                                                                                                                                                                                                                                                                                                                                                           146561-2      000006
1038421011812COBR_CAUC_BIC  ENERGY COML IMPORT E EXPORT LTDA        009363567000105PREMIX BRASIL RESINAS                   ALAMEDA ARAGU,2044-CJ703A705TORRE2      SAO PAULO                               06455000SP309160000309433926562         26092011007PAULISTA            2410201100000000011030821CC                                                                                                                                                                                                                                                                                                                                                                                           146561-3      000007
1038421011812COBR_CAUC_BIC  ENERGY COML IMPORT E EXPORT LTDA        009363567000105PREMIX BRASIL RESINAS                   ALAMEDA ARAGU,2044-CJ703A705TORRE2      SAO PAULO                               06455000SP309160000409433934561         26092011007PAULISTA            2410201100000000011030821CC                                                                                                                                                                                                                                                                                                                                                                                           146561-4      000008
1048421000354COBR_CAUC_COR  FRIGOL S.A. EM RECUPERACAO JUDICIAL     003879760000702ANCORA DISTRIBUIDORA LTDA               AV SENADOR ROBERT KENNEDY 1055          FORTALEZA                               60332170CE30917000010024623819992       27092011900BRADESCO S/A        0410201100000000013380000CC                                                                                                                                                                                                                                                                                                                                                                                           146561-5      000009
1048421000354COBR_CAUC_COR  FRIGOL S.A. EM RECUPERACAO JUDICIAL     074101569002395AGRICOLA JANDELLE SA                    ROD PR 317 KM 52                        SANTA FE                                86770000PR3091800001002462718103        27092011900BRADESCO S/A        0410201100000000016347764CC                                                                                                                                                                                                                                                                                                                                                                                           146561-6      000010
1024421007416COBR_CAUC_BIC  ATLAS AGROINDUSTRIAL LTDA               060037058000484ADORO S/A                               ROD SP 215 KM 157 S/N                   SAO CARLOS                              13560970SP30919000010192861320222       26092011024CUIABA              1601201200000000014192125CC                                                                                                                                                                                                                                                                                                                                                                                           146561-7      000011
1024421007416COBR_CAUC_BIC  ATLAS AGROINDUSTRIAL LTDA               060037058000484ADORO S/A                               ROD SP 215 KM 157 S/N                   SAO CARLOS                              13560970SP30919000020192862120223       26092011024CUIABA              2001201200000000014192125CC                                                                                                                                                                                                                                                                                                                                                                                           146561-8      000012
9000011                                                                                                                                                                                                                                                                                                                                                                                                                                                                                                                                                                                                                                                                                                               000013
