0REMESSANOTIFICAÇÃO ELETRONICA        99999999999999Bicbanco S/A                            Avenida Brigadeiro Faria Lima           4.440     2º andar  Itaim Bibi                    São Paulo                     04538132SPBicbanco S/A                                                                    20122012                                                                                                                                                                                                                                                                                                                                                                                                000001
1048421000338COBR_CAUC_COR  FRIGOESTRELA S.A. EM RECUP JUDICIAL     050947761001871IRMAOS RUSSI LTDA                       RUA LUIS ALLI FARDYN590SALA 03          CAJAMAR                                 07750000SP3932500001033673460024324201  12122012900BRADESCO S/A        1701201300000000010424817CC                                                                                                                                                                                                                                                                                                                                                                                           211940-1      000002
1037421008961COBR_CAUC_BIC  INTERMODAL BRASIL LOGISTICA LTDA        059275792008991GENERAL MOTORS DO BRASIL LTDA           R. MANOEL BORBA GATO,100                GUARULHOS                               07044220SP39326000010457981465852       05122012037GUARULHOS           2201201300000000015307205CC                                                                                                                                                                                                                                                                                                                                                                                           211940-2      000003
1037421008961COBR_CAUC_BIC  INTERMODAL BRASIL LOGISTICA LTDA        059275792008991GENERAL MOTORS DO BRASIL LTDA           R. MANOEL BORBA GATO,100                GUARULHOS                               07044220SP39326000020457982266201       12122012037GUARULHOS           2901201300000000013326924CC                                                                                                                                                                                                                                                                                                                                                                                           211940-3      000004
1021421015236COBR_CAUC_COR  AGRARIA INDUSTRIA E COMERCIO LTDA       011586646000119EMPRESA DE COMERCIO AGRICOLA LTDA.      AVMINISTRO OLAVO ,955                   ARAXA                                   38190510MG3934100001063609780000006143  17102012800UNIBANCO S/A        3103201300000000014256670CC                                                                                                                                                                                                                                                                                                                                                                                           211943-1      000005
1046421001443COBR_CAUC_COR  COSTAO DO SANTINHO TUR E LAZER LTDA     073431686000149KONTIK FRANSTUR VIAGENS E TURISMO       AVENIDA ANTONIO CARLOS MAGALH,3244      SALVADOR                                41800700BA393390000100008960153761      14122012900BRADESCO S/A        1001201300000000016612898CC                                                                                                                                                                                                                                                                                                                                                                                           211943-2      000006
1021420930887COBR_CAUC_BIC  DEDINI S/A INDUSTRIAS DE BASE           005635291001260GE OIL GAS DO BRASIL LTDA               PC ALCIDES PEREIRA, ILHA DA CONCEICAO BRNITEROI                                 24050350RJ39338000010636095123405-1-1   13122012014RIO DE JANEIRO      2701201300000000021370000CC                                                                                                                                                                                                                                                                                                                                                                                           211943-3      000007
1031421010495COBR_CAUC_BIC  FOREMAN CONFECCOES LTDA                 009054385005707INBRANDS S/A                            CORONEL LUIS BARROSO 151                SAO PAULO                               04750030SP393400000105140712019810/01   13122012007PAULISTA            1803201300000000013365852CC                                                                                                                                                                                                                                                                                                                                                                                           211943-4      000008
1007421060307COBR_CAUC_BIC  ROTHENBERG COMERCIO DE PERFUMES E C     027197888007597DUFRY DO BRASIL DUTY FREE SHOP LTD      R ESTRELA D OESTE 124                   GUARULHOS                               07140030SP393420000101625461RR4083026   29112012037GUARULHOS           0702201300000000011290161CC                                                                                                                                                                                                                                                                                                                                                                                           211943-5      000009
1031421007850COBR_CAUC_BIC  AGRICOLA JANDELLE S/A                   010319375000172MULTI FORMATO DISTRIBUIDORA SOCIED      AVENIDA MANOEL JACINTO COELHO JUNIOR 901CONTAGEM                                32150245MG3936600001051407550010508501  14122012019BELO HORIZONTE      1301201300000000011549790CC                                                                                                                                                                                                                                                                                                                                                                                           211948-1      000010
1036421019213COBR_CAUC_COR  COTONIFICIO DE ANDIRA S/A               010474553000130MALHAS MENEGOTTI IND TEXTIL LTDA        R.JOAQUIM FRCO DE PAULA, 4850 PREDIO    JARAGUA DO SUL                          89254710SC39367000010591053801104801    12122012800UNIBANCO S/A        1101201300000000011796595CC                                                                                                                                                                                                                                                                                                                                                                                           211948-2      000011
1036421019213COBR_CAUC_COR  COTONIFICIO DE ANDIRA S/A               084429737000203MALWEE MALHAS LTDA                      RUA BERTHA WEEGE, 200                   JARAGUA DO SUL                          89260500SC39368000010591054601105001    12122012800UNIBANCO S/A        1101201300000000011261540CC                                                                                                                                                                                                                                                                                                                                                                                           211948-3      000012
1018421009783COBR_CAUC_BIC  EMBALO EMBALAGENS LOGICAS LTDA          007664432000146VINDAPLASTIK IND COM DE EMBALAGENS      RUA GUAMIRANGA,1299                     SAO PAULO                               04220020SP393690000103005848042401      14122012007PAULISTA            1401201300000000013859991CC                                                                                                                                                                                                                                                                                                                                                                                           211948-4      000013
1029141001648COBR_CAUC_COR  EUROAR SISTEMAS AUTOMOTIVOS LTDA        001844555000506IVECO LATIN AMERICA LTDA                RODOVIA MG ,238-KM 73,5                 SETE LAGOAS                             35701482MG393650000109845052019347/01   11122012900BRADESCO S/A        1001201300000000013422752TD                                                                                                                                                                                                                                                                                                                                                                                           211948-5      000014
1048421003043COBR_CAUC_COR  FRIGOL S.A. EM RECUPERACAO JUDICIAL     007042642000364FRINENSE ALIMENTOS LTDA                 ZOELO SOLA 44                           ITAPERUNA                               57300530RJ3937000001000001400000016144  17122012900BRADESCO S/A        2112201200000000010460355CC                                                                                                                                                                                                                                                                                                                                                                                           211948-6      000015
1048421003043COBR_CAUC_COR  FRIGOL S.A. EM RECUPERACAO JUDICIAL     083571083000104XINGUARA INDUSTRIA E COMERCIO LTDA      PA-150 S/N                              XINGUARA                                68555330PA3937100001000001230000016166  17122012900BRADESCO S/A        2112201200000000022515994CC                                                                                                                                                                                                                                                                                                                                                                                           211948-7      000016
9000015                                                                                                                                                                                                                                                                                                                                                                                                                                                                                                                                                                                                                                                                                                               000017
