0REMESSANOTIFICAÇÃO ELETRONICA        99999999999999Bicbanco S/A                            Avenida Brigadeiro Faria Lima           4.440     2º andar  Itaim Bibi                    São Paulo                     04538132SPBicbanco S/A                                                                    10062014                                                                                                                                                                                                                                                                                                                                                                                                000001
1032420934675COBR_CAUC_COR  ELIANE S/A REVESTIMENTOS CERAMICOS      015723427000195CONDOMINIO RESIDENCIAL DIAMANTE DE      RUA JOAO MAXIMO DE CARVALHO, 59         ARACATUBA                               16015260SP477860000102857716NDP004842A  30052014700BANCO REAL- ABN AMRO3006201400000000011600870CC                                                                                                                                                                                                                                                                                                                                                                                           305005-1      000002
1016421023809COBR_CAUC_BIC  IBEMA COMPANHIA BRASILEIRA DE PAPEL     043336056000124IND.COM.GRAF.CONSELHEIRO LTDA           RUA CANTIGA INGENUA,99                  SAO PAULO                               04184065SP477870000104522051196071.1    02062014007PAULISTA            1706201400000000011681031CC                                                                                                                                                                                                                                                                                                                                                                                           305005-2      000003
1048421000338COBR_CAUC_COR  FRIGOESTRELA S.A. EM RECUP JUDICIAL     023439441001323ARMAZEM MATEUS S.A.                     AV ENGENHEIRO EMILIANO MACIEIRA DE      SAO LUIS                                65095602MA4778800001082054330112518301  30052014900BRADESCO S/A        2906201400000000017019000CC                                                                                                                                                                                                                                                                                                                                                                                           305005-3      000004
1003421013987COBR_CAUC_COR  SCIENTIFIC COM E IMPORTACAO LTDA        008546929000122CARESTREAM DO BRASIL COM.SERV.P.ME      AV.DR.MARCOS PENTEADO,401-PARTE 17      BARUERI                                 06460040SP4778900001001049801042        02062014900BRADESCO S/A        0207201400000000012753727CC                                                                                                                                                                                                                                                                                                                                                                                           305005-4      000005
1046421001109COBR_CAUC_BIC  C-PACK CREATIVE PACKAGING S/A           001615814006487UNILEVER BRASIL INDUSTRIAL LTDA         AV FCO MATARAZZO, 1500 10§              SAO PAULO                               05001200SP477900000102412032006106801   30052014007PAULISTA            2709201400000000010164345CC                                                                                                                                                                                                                                                                                                                                                                                           305005-5      000006
1050421000089COBR_CAUC_BIC  ATIVO ALIMENTOS EXP E IMP EIRELI        062453774000125CORINGA ALIMENTOS LTDA                  R SANTO STEFANO 38                      SAO PAULO                               02084030SP477910000100577552254661/1    31052014007PAULISTA            2806201400000000011088361CC                                                                                                                                                                                                                                                                                                                                                                                           305005-6      000007
1021421015236COBR_CAUC_BIC  AGRARIA INDUSTRIA E COMERCIO LTDA       046344354000588AJINOMOTO DO BRASIL IND. E COM. DE      C PCAIXA POSTAL,312                     LIMEIRA                                 13480970SP4779200001065747900000023647  30052014021CAMPINAS            3006201400000000021180000CC                                                                                                                                                                                                                                                                                                                                                                                           305005-7      000008
1015421019927COBR_CAUC_COR  BELSUL IND. E COM DE MAT. PRIMAS LT     004826593000109LEITISSIMO SA                           ROD MAMBAI/COCOS, SN - FAZ,0-KM 35      JABORANDI                               47655000BA47793000010129502611773-01    02062014900BRADESCO S/A        3006201400000000012100000CC                                                                                                                                                                                                                                                                                                                                                                                           305005-8      000009
1032421025814COBR_CAUC_COR  VILLA GERMANIA ALIMENTOS S/A            001693848000297VERDINI MEIRELES REPRESENTACOES LT      AV.BRASIL, 12980 RUA DO FEIJAO, 530     RIO DE JANEIRO                          21011050RJ4779400001001075150056843/01  30052014900BRADESCO S/A        2706201400000000010740000CC                                                                                                                                                                                                                                                                                                                                                                                           305005-9      000010
1007421076122COBR_CAUC_COR  BMC HYUNDAI S.A                         005659785003733MARE CIMENTO LTDA                        SIT VELAME II ,0-S/N                   BARAUNA                                 59695000RN477950000102971967114013...A  17052012900BRADESCO S/A        1706201400000000072122295CC                                                                                                                                                                                                                                                                                                                                                                                           305005-10     000011
1007421076122COBR_CAUC_COR  BMC HYUNDAI S.A                         005659785003733MARE CIMENTO LTDA                        SIT VELAME II ,0-S/N                   BARAUNA                                 59695000RN477950000202971975114013...B  17052012900BRADESCO S/A        1707201400000000072122295CC                                                                                                                                                                                                                                                                                                                                                                                           305005-11     000012
1007421076122COBR_CAUC_COR  BMC HYUNDAI S.A                         005659785003733MARE CIMENTO LTDA                        SIT VELAME II ,0-S/N                   BARAUNA                                 59695000RN477950000302971983114013...C  17052012900BRADESCO S/A        1708201400000000072122295CC                                                                                                                                                                                                                                                                                                                                                                                           305005-12     000013
1007421076122COBR_CAUC_COR  BMC HYUNDAI S.A                         005659785003733MARE CIMENTO LTDA                        SIT VELAME II ,0-S/N                   BARAUNA                                 59695000RN477950000402971991114013...D  17052012900BRADESCO S/A        1709201400000000072122295CC                                                                                                                                                                                                                                                                                                                                                                                           305005-13     000014
1007421076122COBR_CAUC_COR  BMC HYUNDAI S.A                         005659785003733MARE CIMENTO LTDA                        SIT VELAME II ,0-S/N                   BARAUNA                                 59695000RN477950000502972009114013...E  17052012900BRADESCO S/A        1710201400000000072122295CC                                                                                                                                                                                                                                                                                                                                                                                           305005-14     000015
1007421068952COBR_CAUC_COR  CAMP ALIMENTOS COM E DISTR LTDA         002492193000170DISTRIBUIDORA SOLIMOES LTDA             AV GENERAL ATAIDE TEIVE, 4199           BOA VISTA                               69312244RR4780700001028854160010608783  05032014700BANCO REAL- ABN AMRO1007201400000000000171353CC                                                                                                                                                                                                                                                                                                                                                                                           305005-15     000016
1007421068952COBR_CAUC_COR  CAMP ALIMENTOS COM E DISTR LTDA         002492193000170DISTRIBUIDORA SOLIMOES LTDA             AV GENERAL ATAIDE TEIVE, 4199           BOA VISTA                               69312244RR4780700002028537190010640142  22042014700BANCO REAL- ABN AMRO1006201400000000000508698CC                                                                                                                                                                                                                                                                                                                                                                                           305005-16     000017
1007421068952COBR_CAUC_COR  CAMP ALIMENTOS COM E DISTR LTDA         002492193000170DISTRIBUIDORA SOLIMOES LTDA             AV GENERAL ATAIDE TEIVE, 4199           BOA VISTA                               69312244RR4780700003028537270010640143  22042014700BANCO REAL- ABN AMRO1706201400000000000508698CC                                                                                                                                                                                                                                                                                                                                                                                           305005-17     000018
1007421068952COBR_CAUC_BIC  CAMP ALIMENTOS COM E DISTR LTDA         011322774000155NORTE SUL REAL DIST E LOG               RUA CASTRO ALVES,434                    VARZEA GRANDE                           78125590MT478080000102834579001063780   14042014024CUIABA              1306201400000000001495880CC                                                                                                                                                                                                                                                                                                                                                                                           305005-18     000019
1007421068952COBR_CAUC_BIC  CAMP ALIMENTOS COM E DISTR LTDA         075315333001423ATACADAO DISTRIBUICAO COMERCIO E I      QNL 01 ST L NORTE A/E 03 QD RESID AREA BBRASILIA                                70000000DF478090000102853760001064097   23042014009BRASILIA            2006201400000000000326077CC                                                                                                                                                                                                                                                                                                                                                                                           305005-19     000020
1007421068952COBR_CAUC_BIC  CAMP ALIMENTOS COM E DISTR LTDA         075315333001423ATACADAO DISTRIBUICAO COMERCIO E I      QNL 01 ST L NORTE A/E 03 QD RESID AREA BBRASILIA                                70000000DF478090000202853778001064098   23042014007BRASILIA            1106201400000000000276488CC                                                                                                                                                                                                                                                                                                                                                                                           305005-20     000021
1007421068952COBR_CAUC_BIC  CAMP ALIMENTOS COM E DISTR LTDA         075315333001423ATACADAO DISTRIBUICAO COMERCIO E I      QNL 01 ST L NORTE A/E 03 QD RESID AREA BBRASILIA                                70000000DF478090000302853786001064099   23042014007BRASILIA            1206201400000000000276488CC                                                                                                                                                                                                                                                                                                                                                                                           305005-21     000022
1007421068952COBR_CAUC_BIC  CAMP ALIMENTOS COM E DISTR LTDA         075315333001423ATACADAO DISTRIBUICAO COMERCIO E I      QNL 01 ST L NORTE A/E 03 QD RESID AREA BBRASILIA                                70000000DF478090000402885572001064612   30042014016BRASILIA            2306201400000000000608253CC                                                                                                                                                                                                                                                                                                                                                                                           305005-22     000023
1007421068952COBR_CAUC_BIC  CAMP ALIMENTOS COM E DISTR LTDA         075315333001423ATACADAO DISTRIBUICAO COMERCIO E I      QNL 01 ST L NORTE A/E 03 QD RESID AREA BBRASILIA                                70000000DF478090000502885564001064613   30042014031BRASILIA            2406201400000000000530962CC                                                                                                                                                                                                                                                                                                                                                                                           305005-23     000024
1007421068952COBR_CAUC_BIC  CAMP ALIMENTOS COM E DISTR LTDA         075315333001423ATACADAO DISTRIBUICAO COMERCIO E I      QNL 01 ST L NORTE A/E 03 QD RESID AREA BBRASILIA                                70000000DF478090000602885581001064614   30042014016BRASILIA            2306201400000000000608253CC                                                                                                                                                                                                                                                                                                                                                                                           305005-24     000025
1007421068952COBR_CAUC_BIC  CAMP ALIMENTOS COM E DISTR LTDA         075315333001423ATACADAO DISTRIBUICAO COMERCIO E I      QNL 01 ST L NORTE A/E 03 QD RESID AREA BBRASILIA                                70000000DF478090000702895152001064874   06052014700BRASILIA            0506201400000000000627340CC                                                                                                                                                                                                                                                                                                                                                                                           305005-25     000026
1007421068952COBR_CAUC_COR  CAMP ALIMENTOS COM E DISTR LTDA         002847540000130ASSIS E BORGES LTDA                     RUA RAIMUNDO FILGUEIRAS,1723            BOA VISTA                               69309160RR4781000001028537430010640132  22042014700BANCO REAL- ABN AMRO1006201400000000000360312CC                                                                                                                                                                                                                                                                                                                                                                                           305005-26     000027
1007421068952COBR_CAUC_COR  CAMP ALIMENTOS COM E DISTR LTDA         002847540000130ASSIS E BORGES LTDA                     RUA RAIMUNDO FILGUEIRAS,1723            BOA VISTA                               69309160RR4781000002028537510010640133  22042014700BANCO REAL- ABN AMRO1706201400000000000360311CC                                                                                                                                                                                                                                                                                                                                                                                           305005-27     000028
1007421068952COBR_CAUC_BIC  CAMP ALIMENTOS COM E DISTR LTDA         052130481000404D´AVO SUPERMERCADO LTDA                 ESTRADA ITAQUERA - GUAIANAZES - 2000    SAO PAULO                               08420000SP478110000102853794001064114   23042014007PAULISTA            1406201400000000000345170CC                                                                                                                                                                                                                                                                                                                                                                                           305005-28     000029
1007421068952COBR_CAUC_BIC  CAMP ALIMENTOS COM E DISTR LTDA         052130481000404D´AVO SUPERMERCADO LTDA                 ESTRADA ITAQUERA - GUAIANAZES - 2000    SAO PAULO                               08420000SP478110000202853808001064117   23042014007PAULISTA            1406201400000000000174260CC                                                                                                                                                                                                                                                                                                                                                                                           305005-29     000030
1007421068952COBR_CAUC_BIC  CAMP ALIMENTOS COM E DISTR LTDA         052130481000404D´AVO SUPERMERCADO LTDA                 ESTRADA ITAQUERA - GUAIANAZES - 2000    SAO PAULO                               08420000SP478110000302853816001064118   23042014007PAULISTA            1406201400000000000284170CC                                                                                                                                                                                                                                                                                                                                                                                           305005-30     000031
1007421068952COBR_CAUC_COR  CAMP ALIMENTOS COM E DISTR LTDA         004082624000156IRMAOS GONCALVES COMERCIO E INDUST      R RICARDO CATANHEDE 814                 JARU                                    76890000RO478120000102933232001065539   20052014700BANCO REAL- ABN AMRO0407201400000000000818241CC                                                                                                                                                                                                                                                                                                                                                                                           305005-31     000032
1049421004706COBR_CAUC_COR  COOPERATIVA AGROINDUSTRIAL SALTO VE     006368045000108FRIAVES IND. DE ALIMENTOS LTDA          LINHA SUSPIRO BR 282 KM,0-INTERIOR      NOVA ERECHIM                            89865000SC4781300001004549415805.A      17052014700BANCO REAL- ABN AMRO1606201400000000002059680CC                                                                                                                                                                                                                                                                                                                                                                                           305005-32     000033
1049421004706COBR_CAUC_COR  COOPERATIVA AGROINDUSTRIAL SALTO VE     006368045000108FRIAVES IND. DE ALIMENTOS LTDA          LINHA SUSPIRO BR 282 KM,0-INTERIOR      NOVA ERECHIM                            89865000SC4781300002004548795805.B      17052014700BANCO REAL- ABN AMRO1906201400000000002059680CC                                                                                                                                                                                                                                                                                                                                                                                           305005-33     000034
1049421004706COBR_CAUC_COR  COOPERATIVA AGROINDUSTRIAL SALTO VE     006368045000108FRIAVES IND. DE ALIMENTOS LTDA          LINHA SUSPIRO BR 282 KM,0-INTERIOR      NOVA ERECHIM                            89865000SC4781300003004549255806.A      17052014700BANCO REAL- ABN AMRO1906201400000000002114560CC                                                                                                                                                                                                                                                                                                                                                                                           305005-34     000035
1049421004706COBR_CAUC_COR  COOPERATIVA AGROINDUSTRIAL SALTO VE     006368045000108FRIAVES IND. DE ALIMENTOS LTDA          LINHA SUSPIRO BR 282 KM,0-INTERIOR      NOVA ERECHIM                            89865000SC4781300004004549335806.B      17052014700BANCO REAL- ABN AMRO1906201400000000002114560CC                                                                                                                                                                                                                                                                                                                                                                                           305005-35     000036
1049421004706COBR_CAUC_COR  COOPERATIVA AGROINDUSTRIAL SALTO VE     006368045000108FRIAVES IND. DE ALIMENTOS LTDA          LINHA SUSPIRO BR 282 KM,0-INTERIOR      NOVA ERECHIM                            89865000SC4781300005004549095812.A      20052014700BANCO REAL- ABN AMRO1906201400000000002077600CC                                                                                                                                                                                                                                                                                                                                                                                           305005-36     000037
1049421004706COBR_CAUC_COR  COOPERATIVA AGROINDUSTRIAL SALTO VE     006368045000108FRIAVES IND. DE ALIMENTOS LTDA          LINHA SUSPIRO BR 282 KM,0-INTERIOR      NOVA ERECHIM                            89865000SC4781300006004549175812.B      20052014700BANCO REAL- ABN AMRO2206201400000000002077600CC                                                                                                                                                                                                                                                                                                                                                                                           305005-37     000038
1049421004706COBR_CAUC_COR  COOPERATIVA AGROINDUSTRIAL SALTO VE     006368045000108FRIAVES IND. DE ALIMENTOS LTDA          LINHA SUSPIRO BR 282 KM,0-INTERIOR      NOVA ERECHIM                            89865000SC4781300007004548875813.A      20052014700BANCO REAL- ABN AMRO1906201400000000002043800CC                                                                                                                                                                                                                                                                                                                                                                                           305005-38     000039
1049421004706COBR_CAUC_COR  COOPERATIVA AGROINDUSTRIAL SALTO VE     006368045000108FRIAVES IND. DE ALIMENTOS LTDA          LINHA SUSPIRO BR 282 KM,0-INTERIOR      NOVA ERECHIM                            89865000SC4781300008004548955813.B      20052014700BANCO REAL- ABN AMRO2206201400000000002043800CC                                                                                                                                                                                                                                                                                                                                                                                           305005-39     000040
1049421004706COBR_CAUC_COR  COOPERATIVA AGROINDUSTRIAL SALTO VE     006368045000108FRIAVES IND. DE ALIMENTOS LTDA          LINHA SUSPIRO BR 282 KM,0-INTERIOR      NOVA ERECHIM                            89865000SC4781300009004550425814        20052014700BANCO REAL- ABN AMRO1906201400000000002396640CC                                                                                                                                                                                                                                                                                                                                                                                           305005-40     000041
1049421004706COBR_CAUC_COR  COOPERATIVA AGROINDUSTRIAL SALTO VE     006368045000108FRIAVES IND. DE ALIMENTOS LTDA          LINHA SUSPIRO BR 282 KM,0-INTERIOR      NOVA ERECHIM                            89865000SC4781300010004545515828        23052014700BANCO REAL- ABN AMRO2206201400000000002471040CC                                                                                                                                                                                                                                                                                                                                                                                           305005-41     000042
1049421004706COBR_CAUC_COR  COOPERATIVA AGROINDUSTRIAL SALTO VE     006368045000108FRIAVES IND. DE ALIMENTOS LTDA          LINHA SUSPIRO BR 282 KM,0-INTERIOR      NOVA ERECHIM                            89865000SC4781300011004545695829.A      23052014700BANCO REAL- ABN AMRO2206201400000000002665850CC                                                                                                                                                                                                                                                                                                                                                                                           305005-42     000043
1049421004706COBR_CAUC_COR  COOPERATIVA AGROINDUSTRIAL SALTO VE     006368045000108FRIAVES IND. DE ALIMENTOS LTDA          LINHA SUSPIRO BR 282 KM,0-INTERIOR      NOVA ERECHIM                            89865000SC4781300012004545775829.B      23052014700BANCO REAL- ABN AMRO2506201400000000002665850CC                                                                                                                                                                                                                                                                                                                                                                                           305005-43     000044
1049421004706COBR_CAUC_COR  COOPERATIVA AGROINDUSTRIAL SALTO VE     006368045000108FRIAVES IND. DE ALIMENTOS LTDA          LINHA SUSPIRO BR 282 KM,0-INTERIOR      NOVA ERECHIM                            89865000SC4781300013004545005830        23052014700BANCO REAL- ABN AMRO2206201400000000002329920CC                                                                                                                                                                                                                                                                                                                                                                                           305005-44     000045
1049421004706COBR_CAUC_COR  COOPERATIVA AGROINDUSTRIAL SALTO VE     006368045000108FRIAVES IND. DE ALIMENTOS LTDA          LINHA SUSPIRO BR 282 KM,0-INTERIOR      NOVA ERECHIM                            89865000SC4781300014004544965836        26052014700BANCO REAL- ABN AMRO2506201400000000002392425CC                                                                                                                                                                                                                                                                                                                                                                                           305005-45     000046
1049421004706COBR_CAUC_COR  COOPERATIVA AGROINDUSTRIAL SALTO VE     006368045000108FRIAVES IND. DE ALIMENTOS LTDA          LINHA SUSPIRO BR 282 KM,0-INTERIOR      NOVA ERECHIM                            89865000SC4781300015004550265837.A      26052014700BANCO REAL- ABN AMRO2506201400000000002175250CC                                                                                                                                                                                                                                                                                                                                                                                           305005-46     000047
1049421004706COBR_CAUC_COR  COOPERATIVA AGROINDUSTRIAL SALTO VE     006368045000108FRIAVES IND. DE ALIMENTOS LTDA          LINHA SUSPIRO BR 282 KM,0-INTERIOR      NOVA ERECHIM                            89865000SC4781300016004550345837.B      26052014700BANCO REAL- ABN AMRO2806201400000000002175250CC                                                                                                                                                                                                                                                                                                                                                                                           305005-47     000048
1049421004706COBR_CAUC_COR  COOPERATIVA AGROINDUSTRIAL SALTO VE     006368045000108FRIAVES IND. DE ALIMENTOS LTDA          LINHA SUSPIRO BR 282 KM,0-INTERIOR      NOVA ERECHIM                            89865000SC4781300017004549685838.A      27052014700BANCO REAL- ABN AMRO2606201400000000003041162CC                                                                                                                                                                                                                                                                                                                                                                                           305005-48     000049
1049421004706COBR_CAUC_COR  COOPERATIVA AGROINDUSTRIAL SALTO VE     006368045000108FRIAVES IND. DE ALIMENTOS LTDA          LINHA SUSPIRO BR 282 KM,0-INTERIOR      NOVA ERECHIM                            89865000SC4781300018004549505838.B      27052014700BANCO REAL- ABN AMRO2906201400000000003041163CC                                                                                                                                                                                                                                                                                                                                                                                           305005-49     000050
1049421004706COBR_CAUC_COR  COOPERATIVA AGROINDUSTRIAL SALTO VE     006368045000108FRIAVES IND. DE ALIMENTOS LTDA          LINHA SUSPIRO BR 282 KM,0-INTERIOR      NOVA ERECHIM                            89865000SC4781300019004549765849        29052014700BANCO REAL- ABN AMRO2806201400000000001840935CC                                                                                                                                                                                                                                                                                                                                                                                           305005-50     000051
1049421004706COBR_CAUC_COR  COOPERATIVA AGROINDUSTRIAL SALTO VE     006368045000108FRIAVES IND. DE ALIMENTOS LTDA          LINHA SUSPIRO BR 282 KM,0-INTERIOR      NOVA ERECHIM                            89865000SC4781300020004549845851        29052014700BANCO REAL- ABN AMRO2806201400000000002310120CC                                                                                                                                                                                                                                                                                                                                                                                           305005-51     000052
1049421004706COBR_CAUC_COR  COOPERATIVA AGROINDUSTRIAL SALTO VE     006368045000108FRIAVES IND. DE ALIMENTOS LTDA          LINHA SUSPIRO BR 282 KM,0-INTERIOR      NOVA ERECHIM                            89865000SC4781300021004550695856.A      31052014700BANCO REAL- ABN AMRO3006201400000000002265123CC                                                                                                                                                                                                                                                                                                                                                                                           305005-52     000053
1049421004706COBR_CAUC_COR  COOPERATIVA AGROINDUSTRIAL SALTO VE     006368045000108FRIAVES IND. DE ALIMENTOS LTDA          LINHA SUSPIRO BR 282 KM,0-INTERIOR      NOVA ERECHIM                            89865000SC4781300022004550775856.B      31052014700BANCO REAL- ABN AMRO0307201400000000002265122CC                                                                                                                                                                                                                                                                                                                                                                                           305005-53     000054
1007421068952COBR_CAUC_COR  CAMP ALIMENTOS COM E DISTR LTDA         004356697000199INDUSTRIA DE CAFE MANAUS LTDA           AVE CASTELO BRANCO 164                  MANAUS                                  69065010AM4781400001028854080010623023  20032014700BANCO REAL- ABN AMRO3006201400000000000122928CC                                                                                                                                                                                                                                                                                                                                                                                           305005-54     000055
1007421068952COBR_CAUC_BIC  CAMP ALIMENTOS COM E DISTR LTDA         015462196000103MERCADINHO PARANA PRIMAVERA LTDA        ESTRADA DO ZIRCONION: 1041              GUARULHOS                               07145000SP478150000102933283001065536   20052014007PAULISTA            1706201400000000000124534CC                                                                                                                                                                                                                                                                                                                                                                                           305005-55     000056
1007421068952COBR_CAUC_BIC  CAMP ALIMENTOS COM E DISTR LTDA         017504181000196SUPERMERCADO PARANA JANDAIA LTDA        SUPERMERCADO PARANA JANDAIA LTDA        CARAPICUIBA                             06330000SP478160000102933267001065534   20052014007PAULISTA            1706201400000000000165408CC                                                                                                                                                                                                                                                                                                                                                                                           305005-56     000057
1007421068952COBR_CAUC_BIC  CAMP ALIMENTOS COM E DISTR LTDA         050525146000129SUPERMERCADO PARANA CARAPICUIBA LT      AV INOCENCIO SERAFICO, 1894             CARAPICUIBA                             06380021SP478170000102933275001065535   20052014007PAULISTA            1606201400000000000167030CC                                                                                                                                                                                                                                                                                                                                                                                           305005-57     000058
1007421068952COBR_CAUC_BIC  CAMP ALIMENTOS COM E DISTR LTDA         056302953000169MERCADINHO PARANA OSASCO LTDA.          PRACA DICRAN ECHREFIAN, 12              OSASCO                                  06210010SP478180000102933259001065532   20052014007PAULISTA            1706201400000000000173416CC                                                                                                                                                                                                                                                                                                                                                                                           305005-58     000059
1007421068952COBR_CAUC_BIC  CAMP ALIMENTOS COM E DISTR LTDA         006000794000170SUPERMERCADO SANTOS LUZ LTDA            R MAGALI WESSEL 25                      ITAPEVI                                 06660750SP478190000102933241001065531   20052014007PAULISTA            1606201400000000000192048CC                                                                                                                                                                                                                                                                                                                                                                                           305005-59     000060
1007421068952COBR_CAUC_BIC  CAMP ALIMENTOS COM E DISTR LTDA         001767082000167EMPORIO LGB DIST DE PROD ALIMENTIC      AVENIDA SALLUM 1039                     SAO CARLOS                              13574040SP478200000102849835001064008   22042014022RIBEIRAO PRETO      0606201400000000000271040CC                                                                                                                                                                                                                                                                                                                                                                                           305005-60     000061
1007421068952COBR_CAUC_BIC  CAMP ALIMENTOS COM E DISTR LTDA         020096998000187COML AMARAL DE PROD ALIMENT EIRELI      R DR ALVARO GUIAO, 276                  SOROCABA                                18025120SP4782100001029151450010652681  12052014007PAULISTA            0906201400000000000148815CC                                                                                                                                                                                                                                                                                                                                                                                           305005-61     000062
1007421068952COBR_CAUC_BIC  CAMP ALIMENTOS COM E DISTR LTDA         020096998000187COML AMARAL DE PROD ALIMENT EIRELI      R DR ALVARO GUIAO, 276                  SOROCABA                                18025120SP4782100002029151530010652682  12052014007PAULISTA            1606201400000000000148815CC                                                                                                                                                                                                                                                                                                                                                                                           305005-62     000063
1007421068952COBR_CAUC_BIC  CAMP ALIMENTOS COM E DISTR LTDA         066825670000155KUCHOS DISTRIB DE PRODUTOS ALIMENT      RUA QUIRINO DOS SANTOS, 122 130 140     SAO PAULO                               01141020SP4782200001028854240010645641  30042014007PAULISTA            0906201400000000000147050CC                                                                                                                                                                                                                                                                                                                                                                                           305005-63     000064
1007421068952COBR_CAUC_BIC  CAMP ALIMENTOS COM E DISTR LTDA         066825670000155KUCHOS DISTRIB DE PRODUTOS ALIMENT      RUA QUIRINO DOS SANTOS, 122 130 140     SAO PAULO                               01141020SP4782200002028854320010645642  30042014007PAULISTA            1606201400000000000147050CC                                                                                                                                                                                                                                                                                                                                                                                           305005-64     000065
1007421068952COBR_CAUC_BIC  CAMP ALIMENTOS COM E DISTR LTDA         066825670000155KUCHOS DISTRIB DE PRODUTOS ALIMENT      RUA QUIRINO DOS SANTOS, 122 130 140     SAO PAULO                               01141020SP4782200003028854410010645643  30042014007PAULISTA            1906201400000000000147050CC                                                                                                                                                                                                                                                                                                                                                                                           305005-65     000066
1007421068952COBR_CAUC_BIC  CAMP ALIMENTOS COM E DISTR LTDA         061116828000102CALVO-COM E IMPORTACAO LT               AV RIO DAS PEDRAS, 2118                 SAO PAULO                               03432100SP478230000102915111001065270   13052014007PAULISTA            0107201400000000000155400CC                                                                                                                                                                                                                                                                                                                                                                                           305005-66     000067
1007421068952COBR_CAUC_BIC  CAMP ALIMENTOS COM E DISTR LTDA         061116828000102CALVO-COM E IMPORTACAO LT               AV RIO DAS PEDRAS, 2118                 SAO PAULO                               03432100SP478230000202915129001065271   13052014007PAULISTA            0107201400000000000328500CC                                                                                                                                                                                                                                                                                                                                                                                           305005-67     000068
1006441006860COBR_CAUC_BIC  MONT GRANITOS S/A                       001945808000104ADMINISTRADORA CAIOCA DE SHOPPING       BC. ARMANDO, DO,909                     RIO DE JANEIRO                          21210000RJ4782400001099029843920        03062014014RIO DE JANEIRO      0307201400000000011905866CC                                                                                                                                                                                                                                                                                                                                                                                           305007-1      000069
1046421001109COBR_CAUC_BIC  C-PACK CREATIVE PACKAGING S/A           001615814006487UNILEVER BRASIL INDUSTRIAL LTDA         AV FCO MATARAZZO, 1500 10§              SAO PAULO                               05001200SP478250000102413241006112101   31052014007PAULISTA            2809201400000000010164345CC                                                                                                                                                                                                                                                                                                                                                                                           305007-2      000070
1050421007970COBR_CAUC_COR  TRANSGLOBAL NORTE TRANSPORTES LTDA      010456016001643SHELL BRASIL PETROLEO LTDA              ROD. BR 316,0                           ANANINDEUA                              67030000PA47826000010000083243598       02062014900BRADESCO S/A        3006201400000000014685565CC                                                                                                                                                                                                                                                                                                                                                                                           305007-3      000071
1021421017050COBR_CAUC_BIC  STAR DISTR PROD FARMACEUTICOS LTDA      061585865073701RAIA DROGASIL S/A                       RUA PATAXOS , 1412                      EMBU                                    06833073SP4782700001000020510000336801  02062014007PAULISTA            1606201400000000010092496CC                                                                                                                                                                                                                                                                                                                                                                                           305007-4      000072
1022421000067DIR_CREDIT     LEAO ENGENHARIA S/A                     045371820000128PREFEITURA MUNICIPAL DE SERTAOZINHO     RUA APRIGIO DE ARAUJO, N 837            SERTAOZINHO                             14160030SP4783100001                                                                                                                                          012511839           121220120000023352412/12      02062014000404Execução de obras de alargamento do canal existente do Córrego Sul.Reservatório de Retenção e Parque Linear Urbano. Executados através do módulo Ae módulo B conforme anexos do Edital.                                                         004810550000127305007-5      000073
1016421013250DIR_CREDIT     INSOL INTE.DO BRASIL IND E COM S/A      007322382000119BSBIOS IND. E COM.BIODIESEL SUL BRASIL  ESTRADA DA FRUTEIRA SN LT 212A/212B     MARIALVA                                86990000PR4783800001                                                                                                                                          012461130           200720130000024679SN          20032014000403industrialização , esmagamento , beneficiamento e moagem de feijão desoja a granel, visando a extração de óleo de soja bruto degomado e farelo de soja a serem realizados em sua unidade de esmagamento em Maringá/PR.                          004440724000107305007-6      000074
1046421001443COBR_CAUC_COR  COSTAO DO SANTINHO TUR E LAZER LTDA     010696657000199MATCH SERVICOS DE EVENTOS               AV.DAS AMERICAS,3500-BL01-SL.619/0      RIO DE JANEIRO                          22640102RJ478390000100014269209840      03062014900BRADESCO S/A        2306201400000000014279831CC                                                                                                                                                                                                                                                                                                                                                                                           305008-1      000075
1007421013325COBR_CAUC_COR  SANTA CRUZ FOMENTO COMERCIAL LTDA       011385302000141NAVETRON IMPORTACAO E COM. DE TECN      Rua Coramandel, 41                      São Paulo                               05088010SP47848000010276980717333-F     21032014900BRADESCO S/A        1106201400000000005236645CC                                                                                                                                                                                                                                                                                                                                                                                           305008-2      000076
1007421013325COBR_CAUC_COR  SANTA CRUZ FOMENTO COMERCIAL LTDA       011385302000141NAVETRON IMPORTACAO E COM. DE TECN      Rua Coramandel, 41                      São Paulo                               05088010SP47848000020290367817502-E     05052013900BRADESCO S/A        0508201400000000004724331CC                                                                                                                                                                                                                                                                                                                                                                                           305008-3      000077
1007421013325COBR_CAUC_COR  SANTA CRUZ FOMENTO COMERCIAL LTDA       011385302000141NAVETRON IMPORTACAO E COM. DE TECN      Rua Coramandel, 41                      São Paulo                               05088010SP47848000030276981517502-H     21032014900BRADESCO S/A        1806201400000000004724331CC                                                                                                                                                                                                                                                                                                                                                                                           305008-4      000078
1007421013325COBR_CAUC_COR  SANTA CRUZ FOMENTO COMERCIAL LTDA       011385302000141NAVETRON IMPORTACAO E COM. DE TECN      Rua Coramandel, 41                      São Paulo                               05088010SP47848000040293104318217 -C    05052014900BRADESCO S/A        1809201400000000004808034CC                                                                                                                                                                                                                                                                                                                                                                                           305008-5      000079
1007421013325COBR_CAUC_COR  SANTA CRUZ FOMENTO COMERCIAL LTDA       011385302000141NAVETRON IMPORTACAO E COM. DE TECN      Rua Coramandel, 41                      São Paulo                               05088010SP47848000050275533418716-A.    14032014900BRADESCO S/A        2006201400000000003023217CC                                                                                                                                                                                                                                                                                                                                                                                           305008-6      000080
1007421013325COBR_CAUC_COR  SANTA CRUZ FOMENTO COMERCIAL LTDA       011385302000141NAVETRON IMPORTACAO E COM. DE TECN      Rua Coramandel, 41                      São Paulo                               05088010SP47848000060293105118716-C     05052014900BRADESCO S/A        1109201400000000003023217CC                                                                                                                                                                                                                                                                                                                                                                                           305008-7      000081
1007421013325COBR_CAUC_COR  SANTA CRUZ FOMENTO COMERCIAL LTDA       011385302000141NAVETRON IMPORTACAO E COM. DE TECN      Rua Coramandel, 41                      São Paulo                               05088010SP47848000070290368618716-D     05052014900BRADESCO S/A        2307201400000000003023217CC                                                                                                                                                                                                                                                                                                                                                                                           305008-8      000082
1007421013325COBR_CAUC_COR  SANTA CRUZ FOMENTO COMERCIAL LTDA       011385302000141NAVETRON IMPORTACAO E COM. DE TECN      Rua Coramandel, 41                      São Paulo                               05088010SP47848000080275532618716-E     14032014900BRADESCO S/A        0807201400000000003023216CC                                                                                                                                                                                                                                                                                                                                                                                           305008-9      000083
1007421013325COBR_CAUC_COR  SANTA CRUZ FOMENTO COMERCIAL LTDA       003216455000137NASCAR RODAS LTDA                       RUAFLOR DE MACIEIRA 30                  BELO HORIZONTE                          30810450MG47849000010289102510111-7     05052014900BRADESCO S/A        2808201400000000001002951CC                                                                                                                                                                                                                                                                                                                                                                                           305008-10     000084
1007421013325COBR_CAUC_COR  SANTA CRUZ FOMENTO COMERCIAL LTDA       003216455000137NASCAR RODAS LTDA                       RUAFLOR DE MACIEIRA 30                  BELO HORIZONTE                          30810450MG47849000020279961710077-3     01042014900BRADESCO S/A        0906201400000000001167188CC                                                                                                                                                                                                                                                                                                                                                                                           305008-11     000085
1007421013325COBR_CAUC_COR  SANTA CRUZ FOMENTO COMERCIAL LTDA       003216455000137NASCAR RODAS LTDA                       RUAFLOR DE MACIEIRA 30                  BELO HORIZONTE                          30810450MG47849000030279435610077-4     01042014900BRADESCO S/A        2706201400000000001167188CC                                                                                                                                                                                                                                                                                                                                                                                           305008-12     000086
1007421013325COBR_CAUC_COR  SANTA CRUZ FOMENTO COMERCIAL LTDA       003216455000137NASCAR RODAS LTDA                       RUAFLOR DE MACIEIRA 30                  BELO HORIZONTE                          30810450MG47849000040279436410077-5     01042014900BRADESCO S/A        1507201400000000001167188CC                                                                                                                                                                                                                                                                                                                                                                                           305008-13     000087
1007421013325COBR_CAUC_COR  SANTA CRUZ FOMENTO COMERCIAL LTDA       003216455000137NASCAR RODAS LTDA                       RUAFLOR DE MACIEIRA 30                  BELO HORIZONTE                          30810450MG47849000050279437210077-6     01042014900BRADESCO S/A        2907201400000000001167188CC                                                                                                                                                                                                                                                                                                                                                                                           305008-14     000088
1007421013325COBR_CAUC_COR  SANTA CRUZ FOMENTO COMERCIAL LTDA       003216455000137NASCAR RODAS LTDA                       RUAFLOR DE MACIEIRA 30                  BELO HORIZONTE                          30810450MG47849000060288869510077-9     30042014900BRADESCO S/A        1108201400000000001168246CC                                                                                                                                                                                                                                                                                                                                                                                           305008-15     000089
1007421013325COBR_CAUC_COR  SANTA CRUZ FOMENTO COMERCIAL LTDA       003216455000137NASCAR RODAS LTDA                       RUAFLOR DE MACIEIRA 30                  BELO HORIZONTE                          30810450MG47849000070288866110085-8     30042014900BRADESCO S/A        0408201400000000000985716CC                                                                                                                                                                                                                                                                                                                                                                                           305008-16     000090
1007421013325COBR_CAUC_COR  SANTA CRUZ FOMENTO COMERCIAL LTDA       003216455000137NASCAR RODAS LTDA                       RUAFLOR DE MACIEIRA 30                  BELO HORIZONTE                          30810450MG47849000080288868710085-9     30042014900BRADESCO S/A        0608201400000000000986606CC                                                                                                                                                                                                                                                                                                                                                                                           305008-17     000091
1007421013325COBR_CAUC_COR  SANTA CRUZ FOMENTO COMERCIAL LTDA       003216455000137NASCAR RODAS LTDA                       RUAFLOR DE MACIEIRA 30                  BELO HORIZONTE                          30810450MG47849000090288867910089-7     30042014900BRADESCO S/A        0508201400000000000993196CC                                                                                                                                                                                                                                                                                                                                                                                           305008-18     000092
1007421013325COBR_CAUC_COR  SANTA CRUZ FOMENTO COMERCIAL LTDA       003216455000137NASCAR RODAS LTDA                       RUAFLOR DE MACIEIRA 30                  BELO HORIZONTE                          30810450MG47849000100287284510096-1/10  30042014900BRADESCO S/A        2606201400000000000903121CC                                                                                                                                                                                                                                                                                                                                                                                           305008-19     000093
1007421013325COBR_CAUC_COR  SANTA CRUZ FOMENTO COMERCIAL LTDA       003216455000137NASCAR RODAS LTDA                       RUAFLOR DE MACIEIRA 30                  BELO HORIZONTE                          30810450MG47849000110287285310096-2/10  30042014900BRADESCO S/A        1807201400000000000903121CC                                                                                                                                                                                                                                                                                                                                                                                           305008-20     000094
1007421013325COBR_CAUC_COR  SANTA CRUZ FOMENTO COMERCIAL LTDA       003216455000137NASCAR RODAS LTDA                       RUAFLOR DE MACIEIRA 30                  BELO HORIZONTE                          30810450MG47849000120285928810096-6/10  17042014900BRADESCO S/A        1208201400000000000903121CC                                                                                                                                                                                                                                                                                                                                                                                           305008-21     000095
1007421013325COBR_CAUC_COR  SANTA CRUZ FOMENTO COMERCIAL LTDA       003216455000137NASCAR RODAS LTDA                       RUAFLOR DE MACIEIRA 30                  BELO HORIZONTE                          30810450MG47849000130285929610096-7/10  17042014900BRADESCO S/A        1408201400000000000903121CC                                                                                                                                                                                                                                                                                                                                                                                           305008-22     000096
1007421013325COBR_CAUC_COR  SANTA CRUZ FOMENTO COMERCIAL LTDA       003216455000137NASCAR RODAS LTDA                       RUAFLOR DE MACIEIRA 30                  BELO HORIZONTE                          30810450MG47849000140287064810098-5     25042014900BRADESCO S/A        0808201400000000001006648CC                                                                                                                                                                                                                                                                                                                                                                                           305008-23     000097
1007421013325COBR_CAUC_COR  SANTA CRUZ FOMENTO COMERCIAL LTDA       003216455000137NASCAR RODAS LTDA                       RUAFLOR DE MACIEIRA 30                  BELO HORIZONTE                          30810450MG47849000150287065610098-6     25042014900BRADESCO S/A        1508201400000000001006648CC                                                                                                                                                                                                                                                                                                                                                                                           305008-24     000098
1007421013325COBR_CAUC_COR  SANTA CRUZ FOMENTO COMERCIAL LTDA       003216455000137NASCAR RODAS LTDA                       RUAFLOR DE MACIEIRA 30                  BELO HORIZONTE                          30810450MG47849000160287066410098-7     25042014900BRADESCO S/A        2108201400000000001006648CC                                                                                                                                                                                                                                                                                                                                                                                           305008-25     000099
1007421013325COBR_CAUC_COR  SANTA CRUZ FOMENTO COMERCIAL LTDA       003216455000137NASCAR RODAS LTDA                       RUAFLOR DE MACIEIRA 30                  BELO HORIZONTE                          30810450MG47849000170288016310098-8     30042014900BRADESCO S/A        2808201400000000001006655CC                                                                                                                                                                                                                                                                                                                                                                                           305008-26     000100
1007421013325COBR_CAUC_COR  SANTA CRUZ FOMENTO COMERCIAL LTDA       003216455000137NASCAR RODAS LTDA                       RUAFLOR DE MACIEIRA 30                  BELO HORIZONTE                          30810450MG47849000180288865210108-1     30042014900BRADESCO S/A        1707201400000000001401468CC                                                                                                                                                                                                                                                                                                                                                                                           305008-27     000101
1007421013325COBR_CAUC_COR  SANTA CRUZ FOMENTO COMERCIAL LTDA       003216455000137NASCAR RODAS LTDA                       RUAFLOR DE MACIEIRA 30                  BELO HORIZONTE                          30810450MG47849000190288013910108-2     30042014900BRADESCO S/A        2207201400000000001401468CC                                                                                                                                                                                                                                                                                                                                                                                           305008-28     000102
1007421013325COBR_CAUC_COR  SANTA CRUZ FOMENTO COMERCIAL LTDA       003216455000137NASCAR RODAS LTDA                       RUAFLOR DE MACIEIRA 30                  BELO HORIZONTE                          30810450MG47849000200288014710108-3     30042014900BRADESCO S/A        3007201400000000001401468CC                                                                                                                                                                                                                                                                                                                                                                                           305008-29     000103
1007421013325COBR_CAUC_COR  SANTA CRUZ FOMENTO COMERCIAL LTDA       003216455000137NASCAR RODAS LTDA                       RUAFLOR DE MACIEIRA 30                  BELO HORIZONTE                          30810450MG47849000210288015510108-4     30042014900BRADESCO S/A        1308201400000000001401468CC                                                                                                                                                                                                                                                                                                                                                                                           305008-30     000104
1007421013325COBR_CAUC_COR  SANTA CRUZ FOMENTO COMERCIAL LTDA       003216455000137NASCAR RODAS LTDA                       RUAFLOR DE MACIEIRA 30                  BELO HORIZONTE                          30810450MG47849000220287286110108-5     30042014900BRADESCO S/A        1508201400000000001401468CC                                                                                                                                                                                                                                                                                                                                                                                           305008-31     000105
1007421013325COBR_CAUC_COR  SANTA CRUZ FOMENTO COMERCIAL LTDA       003216455000137NASCAR RODAS LTDA                       RUAFLOR DE MACIEIRA 30                  BELO HORIZONTE                          30810450MG47849000230287287010108-6     30042014900BRADESCO S/A        2208201400000000001401468CC                                                                                                                                                                                                                                                                                                                                                                                           305008-32     000106
1007421013325COBR_CAUC_COR  SANTA CRUZ FOMENTO COMERCIAL LTDA       003216455000137NASCAR RODAS LTDA                       RUAFLOR DE MACIEIRA 30                  BELO HORIZONTE                          30810450MG47849000240287288810108-7     30042014900BRADESCO S/A        2708201400000000001405397CC                                                                                                                                                                                                                                                                                                                                                                                           305008-33     000107
1007421013325COBR_CAUC_COR  SANTA CRUZ FOMENTO COMERCIAL LTDA       003216455000137NASCAR RODAS LTDA                       RUAFLOR DE MACIEIRA 30                  BELO HORIZONTE                          30810450MG47849000250290363510111-1     05052014900BRADESCO S/A        1407201400000000001002951CC                                                                                                                                                                                                                                                                                                                                                                                           305008-34     000108
1007421013325COBR_CAUC_COR  SANTA CRUZ FOMENTO COMERCIAL LTDA       003216455000137NASCAR RODAS LTDA                       RUAFLOR DE MACIEIRA 30                  BELO HORIZONTE                          30810450MG47849000260290364310111-2     05052014900BRADESCO S/A        2807201400000000001002951CC                                                                                                                                                                                                                                                                                                                                                                                           305008-35     000109
1007421013325COBR_CAUC_COR  SANTA CRUZ FOMENTO COMERCIAL LTDA       003216455000137NASCAR RODAS LTDA                       RUAFLOR DE MACIEIRA 30                  BELO HORIZONTE                          30810450MG47849000270289101710111-6     05052014900BRADESCO S/A        2608201400000000001002951CC                                                                                                                                                                                                                                                                                                                                                                                           305008-36     000110
1007421013325COBR_CAUC_COR  SANTA CRUZ FOMENTO COMERCIAL LTDA       003216455000137NASCAR RODAS LTDA                       RUAFLOR DE MACIEIRA 30                  BELO HORIZONTE                          30810450MG47849000280289103310111-8     05052014900BRADESCO S/A        0209201400000000001002951CC                                                                                                                                                                                                                                                                                                                                                                                           305008-37     000111
1007421013325COBR_CAUC_COR  SANTA CRUZ FOMENTO COMERCIAL LTDA       003216455000137NASCAR RODAS LTDA                       RUAFLOR DE MACIEIRA 30                  BELO HORIZONTE                          30810450MG47849000290290365110111-9     05052014900BRADESCO S/A        0409201400000000001003862CC                                                                                                                                                                                                                                                                                                                                                                                           305008-38     000112
1007421013325COBR_CAUC_COR  SANTA CRUZ FOMENTO COMERCIAL LTDA       003216455000137NASCAR RODAS LTDA                       RUAFLOR DE MACIEIRA 30                  BELO HORIZONTE                          30810450MG47849000300295737910135-9     22052014900BRADESCO S/A        2509201400000000000284835CC                                                                                                                                                                                                                                                                                                                                                                                           305008-39     000113
1007421013325COBR_CAUC_COR  SANTA CRUZ FOMENTO COMERCIAL LTDA       013317605000152TST COM DE PECAS AUTOMOTIVAS LTDA       RUATAQUARI,478                          BELO HORIZONTE                          31130370MG47850000010271800510057-10    10032014900BRADESCO S/A        0307201400000000000925327CC                                                                                                                                                                                                                                                                                                                                                                                           305008-40     000114
1007421013325COBR_CAUC_COR  SANTA CRUZ FOMENTO COMERCIAL LTDA       013317605000152TST COM DE PECAS AUTOMOTIVAS LTDA       RUATAQUARI,478                          BELO HORIZONTE                          31130370MG47850000020271794710057-7     10032014900BRADESCO S/A        0906201400000000000925324CC                                                                                                                                                                                                                                                                                                                                                                                           305008-41     000115
1007421013325COBR_CAUC_COR  SANTA CRUZ FOMENTO COMERCIAL LTDA       013317605000152TST COM DE PECAS AUTOMOTIVAS LTDA       RUATAQUARI,478                          BELO HORIZONTE                          31130370MG47850000030271795510057-8     10032014900BRADESCO S/A        1806201400000000000925324CC                                                                                                                                                                                                                                                                                                                                                                                           305008-42     000116
1007421013325COBR_CAUC_COR  SANTA CRUZ FOMENTO COMERCIAL LTDA       013317605000152TST COM DE PECAS AUTOMOTIVAS LTDA       RUATAQUARI,478                          BELO HORIZONTE                          31130370MG47850000040271799810057-9     10032014900BRADESCO S/A        2706201400000000000925324CC                                                                                                                                                                                                                                                                                                                                                                                           305008-43     000117
1007421013325COBR_CAUC_COR  SANTA CRUZ FOMENTO COMERCIAL LTDA       013317605000152TST COM DE PECAS AUTOMOTIVAS LTDA       RUATAQUARI,478                          BELO HORIZONTE                          31130370MG47850000050271798010058-7     10032014900BRADESCO S/A        1306201400000000000801823CC                                                                                                                                                                                                                                                                                                                                                                                           305008-44     000118
1007421013325COBR_CAUC_COR  SANTA CRUZ FOMENTO COMERCIAL LTDA       013317605000152TST COM DE PECAS AUTOMOTIVAS LTDA       RUATAQUARI,478                          BELO HORIZONTE                          31130370MG47850000060271801310058-8     10032014900BRADESCO S/A        2406201400000000000801823CC                                                                                                                                                                                                                                                                                                                                                                                           305008-45     000119
1007421013325COBR_CAUC_COR  SANTA CRUZ FOMENTO COMERCIAL LTDA       013317605000152TST COM DE PECAS AUTOMOTIVAS LTDA       RUATAQUARI,478                          BELO HORIZONTE                          31130370MG47850000070271802110058-9     10032014900BRADESCO S/A        0207201400000000000801823CC                                                                                                                                                                                                                                                                                                                                                                                           305008-46     000120
1007421013325COBR_CAUC_COR  SANTA CRUZ FOMENTO COMERCIAL LTDA       013317605000152TST COM DE PECAS AUTOMOTIVAS LTDA       RUATAQUARI,478                          BELO HORIZONTE                          31130370MG47850000080277385510070-07    26032014900BRADESCO S/A        1807201400000000001257439CC                                                                                                                                                                                                                                                                                                                                                                                           305008-47     000121
1007421013325COBR_CAUC_COR  SANTA CRUZ FOMENTO COMERCIAL LTDA       013317605000152TST COM DE PECAS AUTOMOTIVAS LTDA       RUATAQUARI,478                          BELO HORIZONTE                          31130370MG47850000090277386310070-08    26032014900BRADESCO S/A        2507201400000000001257445CC                                                                                                                                                                                                                                                                                                                                                                                           305008-48     000122
1007421013325COBR_CAUC_COR  SANTA CRUZ FOMENTO COMERCIAL LTDA       013317605000152TST COM DE PECAS AUTOMOTIVAS LTDA       RUATAQUARI,478                          BELO HORIZONTE                          31130370MG47850000100279101210071-06    31032014900BRADESCO S/A        3006201400000000001004897CC                                                                                                                                                                                                                                                                                                                                                                                           305008-49     000123
1007421013325COBR_CAUC_COR  SANTA CRUZ FOMENTO COMERCIAL LTDA       013317605000152TST COM DE PECAS AUTOMOTIVAS LTDA       RUATAQUARI,478                          BELO HORIZONTE                          31130370MG47850000110279102110071-08    31032014900BRADESCO S/A        2307201400000000001004902CC                                                                                                                                                                                                                                                                                                                                                                                           305008-50     000124
1007421013325COBR_CAUC_COR  SANTA CRUZ FOMENTO COMERCIAL LTDA       013317605000152TST COM DE PECAS AUTOMOTIVAS LTDA       RUATAQUARI,478                          BELO HORIZONTE                          31130370MG47850000120288864410091-1     30042014900BRADESCO S/A        1606201400000000000981979CC                                                                                                                                                                                                                                                                                                                                                                                           305008-51     000125
1007421013325COBR_CAUC_COR  SANTA CRUZ FOMENTO COMERCIAL LTDA       013317605000152TST COM DE PECAS AUTOMOTIVAS LTDA       RUATAQUARI,478                          BELO HORIZONTE                          31130370MG47850000130288870910091-8     30042014900BRADESCO S/A        1908201400000000000981979CC                                                                                                                                                                                                                                                                                                                                                                                           305008-52     000126
1007421013325COBR_CAUC_COR  SANTA CRUZ FOMENTO COMERCIAL LTDA       013317605000152TST COM DE PECAS AUTOMOTIVAS LTDA       RUATAQUARI,478                          BELO HORIZONTE                          31130370MG47850000140288871710091-9     30042014900BRADESCO S/A        2208201400000000000982868CC                                                                                                                                                                                                                                                                                                                                                                                           305008-53     000127
1007421013325COBR_CAUC_COR  SANTA CRUZ FOMENTO COMERCIAL LTDA       015447934000577PH DISTRIB MULT RODAS LTDA ME           AVENIDASETE 15                          SAO LUIS                                65052650MA47851000010280817910088-2     09042014900BRADESCO S/A        1507201400000000003337245CC                                                                                                                                                                                                                                                                                                                                                                                           305008-54     000128
1007421013325COBR_CAUC_COR  SANTA CRUZ FOMENTO COMERCIAL LTDA       009291916000112PH AUTOMOTIVOS LTDA ME                  RUA CORONEL ALEXANDRINO 778             FORTALEZA                               60420700CE47852000010290366010080-3     30042014900BRADESCO S/A        2807201400000000003497695CC                                                                                                                                                                                                                                                                                                                                                                                           305008-55     000129
1007421013325COBR_CAUC_COR  SANTA CRUZ FOMENTO COMERCIAL LTDA       059179838000307PIRELLI PNEUS LTDA                      AV. GIONANNI BAPTISTA PIRELLI, 871      SANTO ANDRE                             09111340SP4785300001028509068226/1-1    14042014900BRADESCO S/A        1006201400000000003790500CC                                                                                                                                                                                                                                                                                                                                                                                           305008-56     000130
1007421013325COBR_CAUC_COR  SANTA CRUZ FOMENTO COMERCIAL LTDA       020146676000367CIAFAL - COM. E IND. DE ARTEF. DE       RUAWILSON SANTOS, 653                   DIVINOPOLIS                             35502286MG47854000010274741246364-02.   14032014900BRADESCO S/A        1407201400000000004715529CC                                                                                                                                                                                                                                                                                                                                                                                           305008-57     000131
1007421013325COBR_CAUC_COR  SANTA CRUZ FOMENTO COMERCIAL LTDA       003439316003350CONSTRUDECOR S/A                        RUA DOS PATRIOTAS, 1212,.               SAO PAULO                               04207040SP47855000010271807268228E-1/1  10032014900BRADESCO S/A        2406201400000000002465893CC                                                                                                                                                                                                                                                                                                                                                                                           305008-58     000132
1007421013325COBR_CAUC_COR  SANTA CRUZ FOMENTO COMERCIAL LTDA       003439316003350CONSTRUDECOR S/A                        RUA DOS PATRIOTAS, 1212,.               SAO PAULO                               04207040SP47855000020293106068259E-1/1  12032014900BRADESCO S/A        2506201400000000002465893CC                                                                                                                                                                                                                                                                                                                                                                                           305008-59     000133
1007421013325COBR_CAUC_COR  SANTA CRUZ FOMENTO COMERCIAL LTDA       033042730001771CSN CIA SIDERURGICA NA                  RODOVIALUCIO MEIRA BR 393 KM 5,001      VOLTA REDONDA                           27260390RJ4785600001029573612611        23052014900BRADESCO S/A        2508201400000000005000000CC                                                                                                                                                                                                                                                                                                                                                                                           305008-60     000134
1007421013325COBR_CAUC_COR  SANTA CRUZ FOMENTO COMERCIAL LTDA       006837645000593PINTOS LTDA                             AV PROF. VALTER ALENCAR,1674 ZN SUL,.   TERESINA                                64019625PI47857000010278163768992E-2/3  28032014900BRADESCO S/A        0907201400000000000266702CC                                                                                                                                                                                                                                                                                                                                                                                           305008-61     000135
1007421013325COBR_CAUC_COR  SANTA CRUZ FOMENTO COMERCIAL LTDA       006837645000593PINTOS LTDA                             AV PROF. VALTER ALENCAR,1674 ZN SUL,.   TERESINA                                64019625PI47857000020278164568992E-3/3  28032014900BRADESCO S/A        2407201400000000000266702CC                                                                                                                                                                                                                                                                                                                                                                                           305008-62     000136
1007421013325COBR_CAUC_COR  SANTA CRUZ FOMENTO COMERCIAL LTDA       017608707000188ELIANE SILVA DE MELO COMERCIAL DE       R BARAO DE ITAPETININGA 68,.-           SAO PAULO                               01042000SP47858000010287273069547E-2/3  24042014900BRADESCO S/A        2207201400000000000067017CC                                                                                                                                                                                                                                                                                                                                                                                           305008-63     000137
1007421013325COBR_CAUC_COR  SANTA CRUZ FOMENTO COMERCIAL LTDA       017608707000188ELIANE SILVA DE MELO COMERCIAL DE       R BARAO DE ITAPETININGA 68,.-           SAO PAULO                               01042000SP47858000020287075369547E-3/3  24042014900BRADESCO S/A        2108201400000000000067017CC                                                                                                                                                                                                                                                                                                                                                                                           305008-64     000138
1007421013325COBR_CAUC_COR  SANTA CRUZ FOMENTO COMERCIAL LTDA       017608707000188ELIANE SILVA DE MELO COMERCIAL DE       R BARAO DE ITAPETININGA 68,.-           SAO PAULO                               01042000SP47858000030287274869548E-2/3  24042014900BRADESCO S/A        2207201400000000000049007CC                                                                                                                                                                                                                                                                                                                                                                                           305008-65     000139
1007421013325COBR_CAUC_COR  SANTA CRUZ FOMENTO COMERCIAL LTDA       017608707000188ELIANE SILVA DE MELO COMERCIAL DE       R BARAO DE ITAPETININGA 68,.-           SAO PAULO                               01042000SP47858000040287076169548E-3/3  24042014900BRADESCO S/A        2108201400000000000049007CC                                                                                                                                                                                                                                                                                                                                                                                           305008-66     000140
1007421013325COBR_CAUC_COR  SANTA CRUZ FOMENTO COMERCIAL LTDA       017608707000188ELIANE SILVA DE MELO COMERCIAL DE       R BARAO DE ITAPETININGA 68,.-           SAO PAULO                               01042000SP47858000050285933469549E-1/3  24042014900BRADESCO S/A        2206201400000000000104286CC                                                                                                                                                                                                                                                                                                                                                                                           305008-67     000141
1007421013325COBR_CAUC_COR  SANTA CRUZ FOMENTO COMERCIAL LTDA       017608707000188ELIANE SILVA DE MELO COMERCIAL DE       R BARAO DE ITAPETININGA 68,.-           SAO PAULO                               01042000SP47858000060285934269549E-2/3  24042014900BRADESCO S/A        2207201400000000000101218CC                                                                                                                                                                                                                                                                                                                                                                                           305008-68     000142
