0REMESSANOTIFICAÇÃO ELETRONICA        99999999999999Bicbanco S/A                            Avenida Brigadeiro Faria Lima           4.440     2º andar  Itaim Bibi                    São Paulo                     04538132SPBicbanco S/A                                                                    30112012                                                                                                                                                                                                                                                                                                                                                                                                000001
1045421013184DIR_CREDIT     AUTO VIACAO MODELO S A                  032857930000152SETRANSP SIND TRANSP URB ARACAJU        AV TANCREDO NEVES, 2061                 ARACAJU                                 49040490SE3886600001                                                                                                                                          011998971           300820120000022589S/N         16112012000403Serviço de transporte urbano de passageiros de Aracajú-Sergipe.                                                                                                                                                                                 010428943000173207724-1      000002
1016421019267COBR_CAUC_BIC  COBRAZEM AGROINDUSTRIAL LTDA            084874726000496KAEFER AGRO INDUSTRIAL                  ROD BR 467, KM 03,0-CX POSTAL 227       CASCAVEL                                85802970PR3886200001037855620038876-1   08112012016CURITIBA            1112201200000000012750000CC                                                                                                                                                                                                                                                                                                                                                                                           207724-2      000003
1021420930887COBR_CAUC_COR  DEDINI S/A INDUSTRIAS DE BASE           047254396000167J PILON S A AC E ALC                    FAZ SANTA MARIA, CX. P. 19, S N SAO FRANCERQUILHO                               18520000SP388700000106358752197176-2-2  09112012900BRADESCO S/A        1001201300000000013600000CC                                                                                                                                                                                                                                                                                                                                                                                           207733-1      000004
1048421000338COBR_CAUC_COR  FRIGOESTRELA S.A. EM RECUP JUDICIAL     008386287000141BERMAS MARACANAU IND E COM DE COUR      AV CONTORNOS/NDISTRITO INDUSTRIAL       MARACANAU                               61939160CE3887100001031537290001384401  16112012900BRADESCO S/A        1612201200000000030324267CC                                                                                                                                                                                                                                                                                                                                                                                           207733-2      000005
1024420934410COBR_CAUC_BIC  INTERCOOP INT SUIN MED NORTE MT LTD     038711826000131LINCON INDUSTRIA E COMERCIO LTDA        RUA JOSE MARIA DE LACERDA 205,2058      CONTAGEM                                32210120MG38872000010199837990168       13112012019BELO HORIZONTE      1112201200000000017929130CC                                                                                                                                                                                                                                                                                                                                                                                           207733-3      000006
1022421007800COBR_CAUC_COR  LEAO ENGENHARIA S/A                     010140603000142SCIRP PARTICIPACOES LTDA                RUA ANGELINA MAFFEI VITA,200            SAO PAULO                               01455070SP388730000100001138030331/1.1  16112012900BRADESCO S/A        2512201200000000010946757CC                                                                                                                                                                                                                                                                                                                                                                                           207733-4      000007
1038421002945COBR_CAUC_COR  NEOLIDER COM.IMP.E EXP.DE ACOS LTDA     045765914000181CENTRAL ENERGETICA MORENO ACUCAR E      ROD SP 253 KM 160,0-S/N                 LUIS ANTONIO                            14210000SP388750000109930831048073      31102012800UNIBANCO S/A        2012201200000000033715130CC                                                                                                                                                                                                                                                                                                                                                                                           207733-5      000008
1037421008520COBR_CAUC_BIC  OCEANO IND.GRAFICA E EDITORA LTDA       008108543000562TEXTO EDITORES LTDA                     ESTRADA MARICA MARQUES,10-LOTE 03       SAO PAULO                               06529210SP38874000010456910029977       19112012007PAULISTA            1802201300000000010804000CC                                                                                                                                                                                                                                                                                                                                                                                           207733-6      000009
1031421009993COBR_CAUC_BIC  VAMOL INDUSTRIA MOVELEIRA LTDA          084683432017029LOJAS SALFER S/A                        RUA RUI BARBOSA,1300                    JOINVILLE                               89219521SC38876000010511041478717-1/1   03112012032BLUMENAU            1303201300000000013144485CC                                                                                                                                                                                                                                                                                                                                                                                           207733-7      000010
1031421009993COBR_CAUC_BIC  VAMOL INDUSTRIA MOVELEIRA LTDA          084683432017029LOJAS SALFER S/A                        RUA RUI BARBOSA,1300                    JOINVILLE                               89219521SC38876000020511042278470-1/1   30102012032BLUMENAU            1103201300000000012193125CC                                                                                                                                                                                                                                                                                                                                                                                           207733-8      000011
1007421035337COBR_CAUC_BIC  COMERCIAL IMP.E EXP.CANTAREIRA LTDA     027668086000343BOMBONIERE ESTRELA 112 LTDA             R TEIXEIRA RIBEIRO, 265                 RIO DE JANEIRO                          21040241RJ38900000010158058198659-001   19112012014RIO DE JANEIRO      2112201200000000033340700CC                                                                                                                                                                                                                                                                                                                                                                                           207753-1      000012
1043421010006COBR_CAUC_COR  ELFA MEDICAMENTOS LTDA                  009112236000194HOSPITAL NAPOLEAO LAUREANO              RUA CAPITAO JOSE PESSOA, 1140           JOAO PESSOA                             58015170PB389010000100018355000006791   14112012900BRADESCO S/A        1401201300000000011032514CC                                                                                                                                                                                                                                                                                                                                                                                           207753-2      000013
1032421019997COBR_CAUC_BIC  METALURGICA DUQUE S/A                   060736279001846MABE BRASIL ELETRODOMESTICOSLTDA        PQ. INDL BSH CONTINENTALS/N             Hortolândia                             13184970SP38923000010109834005009301DP  25102012021CAMPINAS            2002201300000000000360208CC                                                                                                                                                                                                                                                                                                                                                                                           207753-3      000014
1032421019997COBR_CAUC_BIC  METALURGICA DUQUE S/A                   060736279001846MABE BRASIL ELETRODOMESTICOSLTDA        PQ. INDL BSH CONTINENTALS/N             Hortolândia                             13184970SP38923000020093389004727101DP  15082012021CAMPINAS            1912201200000000000654843CC                                                                                                                                                                                                                                                                                                                                                                                           207753-4      000015
1032421019997COBR_CAUC_BIC  METALURGICA DUQUE S/A                   060736279001846MABE BRASIL ELETRODOMESTICOSLTDA        PQ. INDL BSH CONTINENTALS/N             Hortolândia                             13184970SP38923000030093390304740001DP  20082012021CAMPINAS            1912201200000000000485623CC                                                                                                                                                                                                                                                                                                                                                                                           207753-5      000016
1032421019997COBR_CAUC_BIC  METALURGICA DUQUE S/A                   060736279001846MABE BRASIL ELETRODOMESTICOSLTDA        PQ. INDL BSH CONTINENTALS/N             Hortolândia                             13184970SP38923000040093391104746801DP  21082012021CAMPINAS            1912201200000000000485623CC                                                                                                                                                                                                                                                                                                                                                                                           207753-6      000017
1032421019997COBR_CAUC_BIC  METALURGICA DUQUE S/A                   060736279001846MABE BRASIL ELETRODOMESTICOSLTDA        PQ. INDL BSH CONTINENTALS/N             Hortolândia                             13184970SP38923000050093386504750501DP  22082012021CAMPINAS            2612201200000000001593237CC                                                                                                                                                                                                                                                                                                                                                                                           207753-7      000018
1032421019997COBR_CAUC_BIC  METALURGICA DUQUE S/A                   060736279001846MABE BRASIL ELETRODOMESTICOSLTDA        PQ. INDL BSH CONTINENTALS/N             Hortolândia                             13184970SP38923000060093387304750701DP  22082012021CAMPINAS            2612201200000000000412032CC                                                                                                                                                                                                                                                                                                                                                                                           207753-8      000019
1032421019997COBR_CAUC_BIC  METALURGICA DUQUE S/A                   060736279001846MABE BRASIL ELETRODOMESTICOSLTDA        PQ. INDL BSH CONTINENTALS/N             Hortolândia                             13184970SP38923000070093388104755201DP  23082012021CAMPINAS            2612201200000000001799291CC                                                                                                                                                                                                                                                                                                                                                                                           207753-9      000020
1032421019997COBR_CAUC_BIC  METALURGICA DUQUE S/A                   060736279001846MABE BRASIL ELETRODOMESTICOSLTDA        PQ. INDL BSH CONTINENTALS/N             Hortolândia                             13184970SP38923000080093383104755401DP  23082012021CAMPINAS            2612201200000000000654843CC                                                                                                                                                                                                                                                                                                                                                                                           207753-10     000021
1032421019997COBR_CAUC_BIC  METALURGICA DUQUE S/A                   060736279001846MABE BRASIL ELETRODOMESTICOSLTDA        PQ. INDL BSH CONTINENTALS/N             Hortolândia                             13184970SP38923000090093384904760101DP  25082012021CAMPINAS            2612201200000000002249371CC                                                                                                                                                                                                                                                                                                                                                                                           207753-11     000022
1032421019997COBR_CAUC_BIC  METALURGICA DUQUE S/A                   060736279001846MABE BRASIL ELETRODOMESTICOSLTDA        PQ. INDL BSH CONTINENTALS/N             Hortolândia                             13184970SP38923000100093385704760401DP  25082012021CAMPINAS            2612201200000000001000174CC                                                                                                                                                                                                                                                                                                                                                                                           207753-12     000023
1032421019997COBR_CAUC_BIC  METALURGICA DUQUE S/A                   060736279001846MABE BRASIL ELETRODOMESTICOSLTDA        PQ. INDL BSH CONTINENTALS/N             Hortolândia                             13184970SP38923000110093380604761501DP  27082012021CAMPINAS            2612201200000000000720874CC                                                                                                                                                                                                                                                                                                                                                                                           207753-13     000024
1032421019997COBR_CAUC_BIC  METALURGICA DUQUE S/A                   060736279001846MABE BRASIL ELETRODOMESTICOSLTDA        PQ. INDL BSH CONTINENTALS/N             Hortolândia                             13184970SP38923000120093381404763501DP  27082012021CAMPINAS            2612201200000000001124905CC                                                                                                                                                                                                                                                                                                                                                                                           207753-14     000025
1032421019997COBR_CAUC_BIC  METALURGICA DUQUE S/A                   060736279001846MABE BRASIL ELETRODOMESTICOSLTDA        PQ. INDL BSH CONTINENTALS/N             Hortolândia                             13184970SP38923000130093382204763701DP  27082012021CAMPINAS            2612201200000000001397255CC                                                                                                                                                                                                                                                                                                                                                                                           207753-15     000026
1032421019997COBR_CAUC_BIC  METALURGICA DUQUE S/A                   060736279001846MABE BRASIL ELETRODOMESTICOSLTDA        PQ. INDL BSH CONTINENTALS/N             Hortolândia                             13184970SP38923000140096879104819301DP  10092012021CAMPINAS            0901201300000000001802995CC                                                                                                                                                                                                                                                                                                                                                                                           207753-16     000027
1032421019997COBR_CAUC_BIC  METALURGICA DUQUE S/A                   060736279001846MABE BRASIL ELETRODOMESTICOSLTDA        PQ. INDL BSH CONTINENTALS/N             Hortolândia                             13184970SP38923000150096880404819501DP  10092012021CAMPINAS            0901201300000000001235701CC                                                                                                                                                                                                                                                                                                                                                                                           207753-17     000028
1032421019997COBR_CAUC_BIC  METALURGICA DUQUE S/A                   060736279001846MABE BRASIL ELETRODOMESTICOSLTDA        PQ. INDL BSH CONTINENTALS/N             Hortolândia                             13184970SP38923000160096881204820601DP  11092012021CAMPINAS            0901201300000000000475272CC                                                                                                                                                                                                                                                                                                                                                                                           207753-18     000029
1032421019997COBR_CAUC_BIC  METALURGICA DUQUE S/A                   060736279001846MABE BRASIL ELETRODOMESTICOSLTDA        PQ. INDL BSH CONTINENTALS/N             Hortolândia                             13184970SP38923000170096876604823001DP  11092012021CAMPINAS            0901201300000000002933881CC                                                                                                                                                                                                                                                                                                                                                                                           207753-19     000030
1032421019997COBR_CAUC_BIC  METALURGICA DUQUE S/A                   060736279001846MABE BRASIL ELETRODOMESTICOSLTDA        PQ. INDL BSH CONTINENTALS/N             Hortolândia                             13184970SP38923000180096877404823201DP  11092012021CAMPINAS            0901201300000000000427241CC                                                                                                                                                                                                                                                                                                                                                                                           207753-20     000031
1032421019997COBR_CAUC_BIC  METALURGICA DUQUE S/A                   060736279001846MABE BRASIL ELETRODOMESTICOSLTDA        PQ. INDL BSH CONTINENTALS/N             Hortolândia                             13184970SP38923000190096878204826701DP  12092012021CAMPINAS            1601201300000000002603678CC                                                                                                                                                                                                                                                                                                                                                                                           207753-21     000032
1032421019997COBR_CAUC_BIC  METALURGICA DUQUE S/A                   060736279001846MABE BRASIL ELETRODOMESTICOSLTDA        PQ. INDL BSH CONTINENTALS/N             Hortolândia                             13184970SP38923000200096873104827401DP  12092012021CAMPINAS            1601201300000000000493979CC                                                                                                                                                                                                                                                                                                                                                                                           207753-22     000033
1032421019997COBR_CAUC_BIC  METALURGICA DUQUE S/A                   060736279001846MABE BRASIL ELETRODOMESTICOSLTDA        PQ. INDL BSH CONTINENTALS/N             Hortolândia                             13184970SP38923000210096874004832201DP  13092012021CAMPINAS            1601201300000000000349806CC                                                                                                                                                                                                                                                                                                                                                                                           207753-23     000034
1032421019997COBR_CAUC_BIC  METALURGICA DUQUE S/A                   060736279001846MABE BRASIL ELETRODOMESTICOSLTDA        PQ. INDL BSH CONTINENTALS/N             Hortolândia                             13184970SP38923000220096875804833401DP  14092012021CAMPINAS            1601201300000000000806360CC                                                                                                                                                                                                                                                                                                                                                                                           207753-24     000035
1032421019997COBR_CAUC_BIC  METALURGICA DUQUE S/A                   060736279001846MABE BRASIL ELETRODOMESTICOSLTDA        PQ. INDL BSH CONTINENTALS/N             Hortolândia                             13184970SP38923000230096870704836901DP  14092012021CAMPINAS            1601201300000000000556692CC                                                                                                                                                                                                                                                                                                                                                                                           207753-25     000036
1032421019997COBR_CAUC_BIC  METALURGICA DUQUE S/A                   060736279001846MABE BRASIL ELETRODOMESTICOSLTDA        PQ. INDL BSH CONTINENTALS/N             Hortolândia                             13184970SP38923000240096871504838701DP  15092012021CAMPINAS            1601201300000000002249555CC                                                                                                                                                                                                                                                                                                                                                                                           207753-26     000037
1032421019997COBR_CAUC_BIC  METALURGICA DUQUE S/A                   060736279001846MABE BRASIL ELETRODOMESTICOSLTDA        PQ. INDL BSH CONTINENTALS/N             Hortolândia                             13184970SP38923000250096872304839901DP  17092012021CAMPINAS            1601201300000000000116718CC                                                                                                                                                                                                                                                                                                                                                                                           207753-27     000038
1032421019997COBR_CAUC_BIC  METALURGICA DUQUE S/A                   060736279001846MABE BRASIL ELETRODOMESTICOSLTDA        PQ. INDL BSH CONTINENTALS/N             Hortolândia                             13184970SP38923000260109832304996301DP  22102012021CAMPINAS            2002201300000000000261073CC                                                                                                                                                                                                                                                                                                                                                                                           207753-28     000039
1032421019997COBR_CAUC_BIC  METALURGICA DUQUE S/A                   060736279001846MABE BRASIL ELETRODOMESTICOSLTDA        PQ. INDL BSH CONTINENTALS/N             Hortolândia                             13184970SP38923000270109833105008001DP  24102012021CAMPINAS            2002201300000000000261073CC                                                                                                                                                                                                                                                                                                                                                                                           207753-29     000040
1032421019997COBR_CAUC_BIC  METALURGICA DUQUE S/A                   060736279001846MABE BRASIL ELETRODOMESTICOSLTDA        PQ. INDL BSH CONTINENTALS/N             Hortolândia                             13184970SP38923000280109829305015801DP  26102012021CAMPINAS            2702201300000000000248554CC                                                                                                                                                                                                                                                                                                                                                                                           207753-30     000041
1032421019997COBR_CAUC_BIC  METALURGICA DUQUE S/A                   060736279001846MABE BRASIL ELETRODOMESTICOSLTDA        PQ. INDL BSH CONTINENTALS/N             Hortolândia                             13184970SP38923000290109830705020601DP  26102012021CAMPINAS            2702201300000000001871283CC                                                                                                                                                                                                                                                                                                                                                                                           207753-31     000042
1032421019997COBR_CAUC_BIC  METALURGICA DUQUE S/A                   060736279001846MABE BRASIL ELETRODOMESTICOSLTDA        PQ. INDL BSH CONTINENTALS/N             Hortolândia                             13184970SP38923000300109831505020701DP  26102012021CAMPINAS            2702201300000000000261073CC                                                                                                                                                                                                                                                                                                                                                                                           207753-32     000043
1007421056385COBR_CAUC_COR  TERRA NOVA TRADING S/A                  001397852000550DISAC COMERCIAL LTDA                    AVE 800, ,0-QD.19 MOD 03                SERRA                                   29161389ES388990000100000859TI08381-PB  21112012900BRADESCO S/A        0412201200000000013846150CC                                                                                                                                                                                                                                                                                                                                                                                           207753-33     000044
1016421001333COBR_CAUC_BIC  CONDUSPAR CONDUTORES ELETRICOS LTDA     017155342000345LOJA ELETRICA LTDA                      AV. SANTOS DUMONT, 402                  BELO HORIZONTE                          30111040MG389260000103792020260454      25102012019BELO HORIZONTE      2412201200000000010993550CC                                                                                                                                                                                                                                                                                                                                                                                           207805-1      000045
1021420930887COBR_CAUC_COR  DEDINI S/A INDUSTRIAS DE BASE           007912062000119USINA LAGUNA - ALCOOL E ACUCAR LTD      ROD MS-476, KM 04, S N ZONA RURAL FESTA BATAIPORA                               79760000MS389250000106358833196013-3-3  22112012900BRADESCO S/A        2012201200000000011000000CC                                                                                                                                                                                                                                                                                                                                                                                           207805-2      000046
1020421001490COBR_CAUC_BIC  ELDORADO INDUSTRIAS PLASTICAS LTDA      076189406000126CONDOR SUPER CENTER LTDA                AVENIDA WINSTON CHURCHILL, 2222         CURITIBA                                81150050PR389240000106264828M021806301  22112012016CURITIBA            2412201200000000010794532CC                                                                                                                                                                                                                                                                                                                                                                                           207805-3      000047
1048421000338COBR_CAUC_COR  FRIGOESTRELA S.A. EM RECUP JUDICIAL     008386287000141BERMAS MARACANAU IND E COM DE COUR      AV CONTORNOS/NDISTRITO INDUSTRIAL       MARACANAU                               61939160CE3892700001031742540001389401  21112012900BRADESCO S/A        2112201200000000015733921CC                                                                                                                                                                                                                                                                                                                                                                                           207805-4      000048
1048421000338COBR_CAUC_COR  FRIGOESTRELA S.A. EM RECUP JUDICIAL     008386287000141BERMAS MARACANAU IND E COM DE COUR      AV CONTORNOS/NDISTRITO INDUSTRIAL       MARACANAU                               61939160CE3892700002031742620001389501  21112012900BRADESCO S/A        2112201200000000015235587CC                                                                                                                                                                                                                                                                                                                                                                                           207805-5      000049
1024420934410COBR_CAUC_BIC  INTERCOOP INT SUIN MED NORTE MT LTD     003835761000151COMCARNE COMERCIAL DE CARNE LTDA        AV. GAL. ARTUR,320                      SAO LUIS                                65066320MA38928000010199866290253       15112012042SAO LUIS            1312201200000000017043198CC                                                                                                                                                                                                                                                                                                                                                                                           207805-6      000050
1019421010259COBR_CAUC_COR  L & S INTERBANK FOMENTO LTDA            002874861000124RECUPERADORA SALES GAMA LTDA            AVENIDA HEMATITA, Nº 1019               ITABIRA                                 35903051MG3892900001066181424151        21112012900BRADESCO S/A        1001201300000000011200000CC                                                                                                                                                                                                                                                                                                                                                                                           207805-7      000051
1050421001786COBR_CAUC_COR  SINETEL ENGENHARIA E COMERCIO LTDA      011344100000151LONDRES INCORPORADORA LTDA              JOAO BALBI, SALA 106,167                BELEM                                   66055280PA3894300001000057882197        23112012900BRADESCO S/A        2012201200000000014034350CC                                                                                                                                                                                                                                                                                                                                                                                           207893-1      000052
1045421003766DIR_CREDIT     BIOGRAF S/C LTDA                        013131370000100SAO LUCAS MEDICO HOSPITALAR             AV CEL STANLEY DA SILVEIRA 33           ARACAJU                                 49015400SE3893900001                                                                                                                                          012061612           060520020000006114001         22112012000407Prestação de serviços médicos realizando exames de scan duplex, dopplervascular ultra-som vascular                                                                                                                                              001666646000175207901-1      000053
1020421001857COBR_CAUC_COR  BRASALPLA BRASIL IND DE EMBALAG LTD     008415791000556CERVEJARIA PETROPOLIS DO CENTRO OE      ROD CELSO GARCIA CID,1480 KM 85         CAMBE                                   86185520PR3895900001000035263051710     21112012900BRADESCO S/A        1912201200000000010147689CC                                                                                                                                                                                                                                                                                                                                                                                           207901-2      000054
1044421017947DIR_CREDIT     CENTRAL SEGURANCA DE VALORES LTDA       008234148000100MUNICIPIO DE MACAIBA RN                 AV MONICA DANTAS,34-CENTRO              MACAIBA                                 59280000RN3884600001                                                                                                                                          011936007           011220100000021841S/N         13112012000403serviços de vigilancia humana armada, desarmada e vigilancia eletronica monitorada ininterruptamente para atender as necessidades da administração direta e indireta.                                                                           005312066000130207901-3      000055
1046421001443COBR_CAUC_COR  COSTAO DO SANTINHO TUR E LAZER LTDA     030033823000184COMITE NACIONAL BRAS ENERG ELET         RUA PRAIA DO FLAMENGO,66-SALA 408       RIO DE JANEIRO                          22210903RJ389610000100008579151952      23112012900BRADESCO S/A        0812201200000000014271300CC                                                                                                                                                                                                                                                                                                                                                                                           207901-4      000056
1046421001443COBR_CAUC_COR  COSTAO DO SANTINHO TUR E LAZER LTDA     089848543000177LOJAS COLOMBO S/A COM UTILIDADES        RUA JOSE ACHILES COLOMBO,50             FARROUPILHA                             95180000RS389620000100008587151948      23112012900BRADESCO S/A        0312201200000000025633459CC                                                                                                                                                                                                                                                                                                                                                                                           207901-5      000057
1044421000289DIR_CREDIT     CRISAL CONSTRUCAO ENG E COML. LTDA      008234148000100PM DE MACAIBA                           AV MONICA DANTAS,34                     MACAIBA                                 59000000RN3888100001                                                                                                                                          481017790           160520120000021534TP001/2012  24052012000404EXECUÇÃO DE SERVIÇOS DE NEGENHARIA PARA CONSTRUÇÃO DE 06 PRAÇAS NO MUNICIPIO DE MACAIBA/RN.                                                                                                                                                     000792407000107207901-6      000058
1021420930887COBR_CAUC_COR  DEDINI S/A INDUSTRIAS DE BASE           004165520000296AGROPECUARIA NOVO MILENIO LTDA          ROD TRANSEFONICA KM 6 ANEXO 01 S N VILA MIRASSOL D´OEST                         78280000MT389540000106358906187951-5-5  22112012900BRADESCO S/A        2012201200000000097000000CC                                                                                                                                                                                                                                                                                                                                                                                           207901-7      000059
1021420930887COBR_CAUC_COR  DEDINI S/A INDUSTRIAS DE BASE           044330975002288USINA COLOMBO S A - ACUCAR E ALCOO      EST MUN PALESTINA A PONTES GESTAL PONTALPALESTINA                               15470000SP389550000106358914188993-5-5  06112012900BRADESCO S/A        2012201200000000087500000CC                                                                                                                                                                                                                                                                                                                                                                                           207901-8      000060
1024420934410COBR_CAUC_BIC  INTERCOOP INT SUIN MED NORTE MT LTD     004613751000487CRISTALFRIGO IND COM IMPORTACAO EX      AV DOS ANDRADAS ,2229-STA EFIGENIA      BELO HORIZONTE                          30120010MG38958000010199957090644       23112012019BELO HORIZONTE      2412201200000000013499200CC                                                                                                                                                                                                                                                                                                                                                                                           207901-9      000061
1047421002340COBR_CAUC_BIC  LOREN-SID LTDA                          011596442003427CARVALHO E FERNANDES LTDA               AV. DEP. PAULO FERRAZ,4888              TERESINA                                64078820PI389850000101543365E0345261    25102012041TERESINA            1612201200000000000695168CC                                                                                                                                                                                                                                                                                                                                                                                           207901-10     000062
1047421002340COBR_CAUC_BIC  LOREN-SID LTDA                          011596442003427CARVALHO E FERNANDES LTDA               AV. DEP. PAULO FERRAZ,4888              TERESINA                                64078820PI389850000201543373E0345262    25102012041TERESINA            1501201300000000000695166CC                                                                                                                                                                                                                                                                                                                                                                                           207901-11     000063
1047421002340COBR_CAUC_BIC  LOREN-SID LTDA                          011596442003427CARVALHO E FERNANDES LTDA               AV. DEP. PAULO FERRAZ,4888              TERESINA                                64078820PI389850000301543381E0345263    25102012041TERESINA            1402201300000000000695166CC                                                                                                                                                                                                                                                                                                                                                                                           207901-12     000064
1047421002340COBR_CAUC_BIC  LOREN-SID LTDA                          011596442003427CARVALHO E FERNANDES LTDA               AV. DEP. PAULO FERRAZ,4888              TERESINA                                64078820PI389850000401543390E0345271    25102012041TERESINA            1612201200000000000336134CC                                                                                                                                                                                                                                                                                                                                                                                           207901-13     000065
1047421002340COBR_CAUC_BIC  LOREN-SID LTDA                          011596442003427CARVALHO E FERNANDES LTDA               AV. DEP. PAULO FERRAZ,4888              TERESINA                                64078820PI389850000501543403E0345272    25102012041TERESINA            1501201300000000000336133CC                                                                                                                                                                                                                                                                                                                                                                                           207901-14     000066
1047421002340COBR_CAUC_BIC  LOREN-SID LTDA                          011596442003427CARVALHO E FERNANDES LTDA               AV. DEP. PAULO FERRAZ,4888              TERESINA                                64078820PI389850000601543411E0345273    25102012041TERESINA            1402201300000000000336133CC                                                                                                                                                                                                                                                                                                                                                                                           207901-15     000067
1047421002340COBR_CAUC_BIC  LOREN-SID LTDA                          011596442003427CARVALHO E FERNANDES LTDA               AV. DEP. PAULO FERRAZ,4888              TERESINA                                64078820PI389850000701543420E0345281    25102012041TERESINA            1612201200000000000409500CC                                                                                                                                                                                                                                                                                                                                                                                           207901-16     000068
1047421002340COBR_CAUC_BIC  LOREN-SID LTDA                          011596442003427CARVALHO E FERNANDES LTDA               AV. DEP. PAULO FERRAZ,4888              TERESINA                                64078820PI389850000801543438E0345282    25102012041TERESINA            1501201300000000000409500CC                                                                                                                                                                                                                                                                                                                                                                                           207901-17     000069
1047421002340COBR_CAUC_BIC  LOREN-SID LTDA                          011596442003427CARVALHO E FERNANDES LTDA               AV. DEP. PAULO FERRAZ,4888              TERESINA                                64078820PI389850000901543446E0345283    25102012041TERESINA            1402201300000000000409500CC                                                                                                                                                                                                                                                                                                                                                                                           207901-18     000070
1047421002340COBR_CAUC_BIC  LOREN-SID LTDA                          011596442003427CARVALHO E FERNANDES LTDA               AV. DEP. PAULO FERRAZ,4888              TERESINA                                64078820PI389850001001543454E0346211    25102012900TERESINA            1612201200000000000695168CC                                                                                                                                                                                                                                                                                                                                                                                           207901-19     000071
1047421002340COBR_CAUC_BIC  LOREN-SID LTDA                          011596442003427CARVALHO E FERNANDES LTDA               AV. DEP. PAULO FERRAZ,4888              TERESINA                                64078820PI389850001101543462E0346212    25102012900TERESINA            1501201300000000000695166CC                                                                                                                                                                                                                                                                                                                                                                                           207901-20     000072
1047421002340COBR_CAUC_BIC  LOREN-SID LTDA                          011596442003427CARVALHO E FERNANDES LTDA               AV. DEP. PAULO FERRAZ,4888              TERESINA                                64078820PI389850001201543471E0346213    25102012900TERESINA            1402201300000000000695166CC                                                                                                                                                                                                                                                                                                                                                                                           207901-21     000073
1047421002340COBR_CAUC_BIC  LOREN-SID LTDA                          011596442003427CARVALHO E FERNANDES LTDA               AV. DEP. PAULO FERRAZ,4888              TERESINA                                64078820PI389850001301543489E0346221    25102012900TERESINA            1612201200000000000409500CC                                                                                                                                                                                                                                                                                                                                                                                           207901-22     000074
1047421002340COBR_CAUC_BIC  LOREN-SID LTDA                          011596442003427CARVALHO E FERNANDES LTDA               AV. DEP. PAULO FERRAZ,4888              TERESINA                                64078820PI389850001401543497E0346222    25102012900TERESINA            1501201300000000000409500CC                                                                                                                                                                                                                                                                                                                                                                                           207901-23     000075
1047421002340COBR_CAUC_BIC  LOREN-SID LTDA                          011596442003427CARVALHO E FERNANDES LTDA               AV. DEP. PAULO FERRAZ,4888              TERESINA                                64078820PI389850001501543501E0346223    25102012900TERESINA            1402201300000000000409500CC                                                                                                                                                                                                                                                                                                                                                                                           207901-24     000076
1047421002340COBR_CAUC_BIC  LOREN-SID LTDA                          004920658000687NORTE REFRIGERACAO LTDA                 TRAV SAO PEDRO,165                      BELEM                                   66023570PA389900000101541516E0347123    29102012050BELEM               2303201300000000000073645CC                                                                                                                                                                                                                                                                                                                                                                                           207901-25     000077
1047421002340COBR_CAUC_BIC  LOREN-SID LTDA                          004920658000687NORTE REFRIGERACAO LTDA                 TRAV SAO PEDRO,165                      BELEM                                   66023570PA389900000201542237E0347071    29102012050BELEM               2201201300000000000333951CC                                                                                                                                                                                                                                                                                                                                                                                           207901-26     000078
1047421002340COBR_CAUC_BIC  LOREN-SID LTDA                          004920658000687NORTE REFRIGERACAO LTDA                 TRAV SAO PEDRO,165                      BELEM                                   66023570PA389900000301542245E0347072    29102012050BELEM               2102201300000000000328198CC                                                                                                                                                                                                                                                                                                                                                                                           207901-27     000079
1047421002340COBR_CAUC_BIC  LOREN-SID LTDA                          004920658000687NORTE REFRIGERACAO LTDA                 TRAV SAO PEDRO,165                      BELEM                                   66023570PA389900000401542253E0347073    29102012050BELEM               2303201300000000000328198CC                                                                                                                                                                                                                                                                                                                                                                                           207901-28     000080
1047421002340COBR_CAUC_BIC  LOREN-SID LTDA                          004920658000687NORTE REFRIGERACAO LTDA                 TRAV SAO PEDRO,165                      BELEM                                   66023570PA389900000501542261E0347074    29102012050BELEM               2204201300000000000328198CC                                                                                                                                                                                                                                                                                                                                                                                           207901-29     000081
1047421002340COBR_CAUC_BIC  LOREN-SID LTDA                          004920658000687NORTE REFRIGERACAO LTDA                 TRAV SAO PEDRO,165                      BELEM                                   66023570PA389900000601542270E0347075    29102012050BELEM               2205201300000000000328198CC                                                                                                                                                                                                                                                                                                                                                                                           207901-30     000082
1047421002340COBR_CAUC_BIC  LOREN-SID LTDA                          004920658000687NORTE REFRIGERACAO LTDA                 TRAV SAO PEDRO,165                      BELEM                                   66023570PA389900000701542288E0347076    29102012050BELEM               2106201300000000000328198CC                                                                                                                                                                                                                                                                                                                                                                                           207901-31     000083
1047421002340COBR_CAUC_BIC  LOREN-SID LTDA                          004920658000687NORTE REFRIGERACAO LTDA                 TRAV SAO PEDRO,165                      BELEM                                   66023570PA389900000801542296E0347091    29102012050BELEM               2201201300000000000402120CC                                                                                                                                                                                                                                                                                                                                                                                           207901-32     000084
1047421002340COBR_CAUC_BIC  LOREN-SID LTDA                          004920658000687NORTE REFRIGERACAO LTDA                 TRAV SAO PEDRO,165                      BELEM                                   66023570PA389900000901542300E0347092    29102012050BELEM               2102201300000000000402116CC                                                                                                                                                                                                                                                                                                                                                                                           207901-33     000085
1047421002340COBR_CAUC_BIC  LOREN-SID LTDA                          004920658000687NORTE REFRIGERACAO LTDA                 TRAV SAO PEDRO,165                      BELEM                                   66023570PA389900001001542318E0347093    29102012050BELEM               2303201300000000000402116CC                                                                                                                                                                                                                                                                                                                                                                                           207901-34     000086
1047421002340COBR_CAUC_BIC  LOREN-SID LTDA                          004920658000687NORTE REFRIGERACAO LTDA                 TRAV SAO PEDRO,165                      BELEM                                   66023570PA389900001101542326E0347094    29102012050BELEM               2204201300000000000402116CC                                                                                                                                                                                                                                                                                                                                                                                           207901-35     000087
1047421002340COBR_CAUC_BIC  LOREN-SID LTDA                          004920658000687NORTE REFRIGERACAO LTDA                 TRAV SAO PEDRO,165                      BELEM                                   66023570PA389900001201542334E0347095    29102012050BELEM               2205201300000000000402116CC                                                                                                                                                                                                                                                                                                                                                                                           207901-36     000088
1047421002340COBR_CAUC_BIC  LOREN-SID LTDA                          004920658000687NORTE REFRIGERACAO LTDA                 TRAV SAO PEDRO,165                      BELEM                                   66023570PA389900001301542342E0347096    29102012050BELEM               2106201300000000000402116CC                                                                                                                                                                                                                                                                                                                                                                                           207901-37     000089
1047421002340COBR_CAUC_BIC  LOREN-SID LTDA                          004920658000687NORTE REFRIGERACAO LTDA                 TRAV SAO PEDRO,165                      BELEM                                   66023570PA389900001401542351E0347101    29102012050BELEM               2201201300000000001407200CC                                                                                                                                                                                                                                                                                                                                                                                           207901-38     000090
1047421002340COBR_CAUC_BIC  LOREN-SID LTDA                          004920658000687NORTE REFRIGERACAO LTDA                 TRAV SAO PEDRO,165                      BELEM                                   66023570PA389900001501542369E0347102    29102012050BELEM               2102201300000000001407200CC                                                                                                                                                                                                                                                                                                                                                                                           207901-39     000091
1047421002340COBR_CAUC_BIC  LOREN-SID LTDA                          004920658000687NORTE REFRIGERACAO LTDA                 TRAV SAO PEDRO,165                      BELEM                                   66023570PA389900001601542377E0347103    29102012050BELEM               2303201300000000001407200CC                                                                                                                                                                                                                                                                                                                                                                                           207901-40     000092
1047421002340COBR_CAUC_BIC  LOREN-SID LTDA                          004920658000687NORTE REFRIGERACAO LTDA                 TRAV SAO PEDRO,165                      BELEM                                   66023570PA389900001701542385E0347104    29102012050BELEM               2204201300000000001407200CC                                                                                                                                                                                                                                                                                                                                                                                           207901-41     000093
1047421002340COBR_CAUC_BIC  LOREN-SID LTDA                          004920658000687NORTE REFRIGERACAO LTDA                 TRAV SAO PEDRO,165                      BELEM                                   66023570PA389900001801542393E0347105    29102012050BELEM               2205201300000000001407200CC                                                                                                                                                                                                                                                                                                                                                                                           207901-42     000094
1047421002340COBR_CAUC_BIC  LOREN-SID LTDA                          004920658000687NORTE REFRIGERACAO LTDA                 TRAV SAO PEDRO,165                      BELEM                                   66023570PA389900001901542407E0347106    29102012050BELEM               2106201300000000001407200CC                                                                                                                                                                                                                                                                                                                                                                                           207901-43     000095
1047421002340COBR_CAUC_BIC  LOREN-SID LTDA                          004920658000687NORTE REFRIGERACAO LTDA                 TRAV SAO PEDRO,165                      BELEM                                   66023570PA389900002001542415E0347111    29102012050BELEM               2201201300000000000802410CC                                                                                                                                                                                                                                                                                                                                                                                           207901-44     000096
1047421002340COBR_CAUC_BIC  LOREN-SID LTDA                          004920658000687NORTE REFRIGERACAO LTDA                 TRAV SAO PEDRO,165                      BELEM                                   66023570PA389900002101542423E0347112    29102012050BELEM               2102201300000000000802408CC                                                                                                                                                                                                                                                                                                                                                                                           207901-45     000097
1047421002340COBR_CAUC_BIC  LOREN-SID LTDA                          004920658000687NORTE REFRIGERACAO LTDA                 TRAV SAO PEDRO,165                      BELEM                                   66023570PA389900002201542431E0347113    29102012050BELEM               2303201300000000000802408CC                                                                                                                                                                                                                                                                                                                                                                                           207901-46     000098
1047421002340COBR_CAUC_BIC  LOREN-SID LTDA                          004920658000687NORTE REFRIGERACAO LTDA                 TRAV SAO PEDRO,165                      BELEM                                   66023570PA389900002301542440E0347114    29102012050BELEM               2204201300000000000802408CC                                                                                                                                                                                                                                                                                                                                                                                           207901-47     000099
1047421002340COBR_CAUC_BIC  LOREN-SID LTDA                          004920658000687NORTE REFRIGERACAO LTDA                 TRAV SAO PEDRO,165                      BELEM                                   66023570PA389900002401541478E0347115    29102012050BELEM               2205201300000000000802408CC                                                                                                                                                                                                                                                                                                                                                                                           207901-48     000100
1047421002340COBR_CAUC_BIC  LOREN-SID LTDA                          004920658000687NORTE REFRIGERACAO LTDA                 TRAV SAO PEDRO,165                      BELEM                                   66023570PA389900002501541486E0347116    29102012050BELEM               2106201300000000000802408CC                                                                                                                                                                                                                                                                                                                                                                                           207901-49     000101
1047421002340COBR_CAUC_BIC  LOREN-SID LTDA                          004920658000687NORTE REFRIGERACAO LTDA                 TRAV SAO PEDRO,165                      BELEM                                   66023570PA389900002601541494E0347121    29102012050BELEM               2201201300000000000075691CC                                                                                                                                                                                                                                                                                                                                                                                           207901-50     000102
1047421002340COBR_CAUC_BIC  LOREN-SID LTDA                          004920658000687NORTE REFRIGERACAO LTDA                 TRAV SAO PEDRO,165                      BELEM                                   66023570PA389900002701541508E0347122    29102012050BELEM               2102201300000000000073645CC                                                                                                                                                                                                                                                                                                                                                                                           207901-51     000103
1047421002340COBR_CAUC_BIC  LOREN-SID LTDA                          004920658000687NORTE REFRIGERACAO LTDA                 TRAV SAO PEDRO,165                      BELEM                                   66023570PA389900002801545597E0347124    29102012050BELEM               2204201300000000000073645CC                                                                                                                                                                                                                                                                                                                                                                                           207901-52     000104
1047421002340COBR_CAUC_BIC  LOREN-SID LTDA                          004920658000687NORTE REFRIGERACAO LTDA                 TRAV SAO PEDRO,165                      BELEM                                   66023570PA389900002901541524E0347125    29102012050BELEM               2205201300000000000073645CC                                                                                                                                                                                                                                                                                                                                                                                           207901-53     000105
1047421002340COBR_CAUC_BIC  LOREN-SID LTDA                          004920658000687NORTE REFRIGERACAO LTDA                 TRAV SAO PEDRO,165                      BELEM                                   66023570PA389900003001541532E0347126    29102012050BELEM               2106201300000000000073645CC                                                                                                                                                                                                                                                                                                                                                                                           207901-54     000106
1047421002340COBR_CAUC_BIC  LOREN-SID LTDA                          004920658000687NORTE REFRIGERACAO LTDA                 TRAV SAO PEDRO,165                      BELEM                                   66023570PA389900003101541541E0347131    29102012050BELEM               0401201300000000000272487CC                                                                                                                                                                                                                                                                                                                                                                                           207901-55     000107
1047421002340COBR_CAUC_BIC  LOREN-SID LTDA                          004920658000687NORTE REFRIGERACAO LTDA                 TRAV SAO PEDRO,165                      BELEM                                   66023570PA389900003201541559E0347132    29102012050BELEM               0302201300000000000272250CC                                                                                                                                                                                                                                                                                                                                                                                           207901-56     000108
1047421002340COBR_CAUC_BIC  LOREN-SID LTDA                          004920658000687NORTE REFRIGERACAO LTDA                 TRAV SAO PEDRO,165                      BELEM                                   66023570PA389900003301541567E0347133    29102012050BELEM               0503201300000000000272250CC                                                                                                                                                                                                                                                                                                                                                                                           207901-57     000109
1047421002340COBR_CAUC_BIC  LOREN-SID LTDA                          004920658000687NORTE REFRIGERACAO LTDA                 TRAV SAO PEDRO,165                      BELEM                                   66023570PA389900003401541575E0347134    29102012050BELEM               0404201300000000000272250CC                                                                                                                                                                                                                                                                                                                                                                                           207901-58     000110
1047421002340COBR_CAUC_BIC  LOREN-SID LTDA                          004920658000687NORTE REFRIGERACAO LTDA                 TRAV SAO PEDRO,165                      BELEM                                   66023570PA389900003501541583E0347135    29102012050BELEM               0405201300000000000272250CC                                                                                                                                                                                                                                                                                                                                                                                           207901-59     000111
1047421002340COBR_CAUC_BIC  LOREN-SID LTDA                          076639285002544FERRAGENS NEGRAO COMERCIAL LTDA         R PROF. ALGACYR M MADER,2800            CURITIBA                                81310020PR389890000101544329E0346101    25102012016CURITIBA            1903201300000000000575473CC                                                                                                                                                                                                                                                                                                                                                                                           207901-60     000112
1047421002340COBR_CAUC_BIC  LOREN-SID LTDA                          076639285002544FERRAGENS NEGRAO COMERCIAL LTDA         R PROF. ALGACYR M MADER,2800            CURITIBA                                81310020PR389890000201544205E03445941   25102012016CURITIBA            1903201300000000000805864CC                                                                                                                                                                                                                                                                                                                                                                                           207901-61     000113
1047421002340COBR_CAUC_BIC  LOREN-SID LTDA                          076639285002544FERRAGENS NEGRAO COMERCIAL LTDA         R PROF. ALGACYR M MADER,2800            CURITIBA                                81310020PR389890000301544060E0345801    25102012016CURITIBA            1903201300000000000787818CC                                                                                                                                                                                                                                                                                                                                                                                           207901-62     000114
1047421002340COBR_CAUC_BIC  LOREN-SID LTDA                          076639285002544FERRAGENS NEGRAO COMERCIAL LTDA         R PROF. ALGACYR M MADER,2800            CURITIBA                                81310020PR389890000401544078E0345811    25102012016CURITIBA            1903201300000000000225882CC                                                                                                                                                                                                                                                                                                                                                                                           207901-63     000115
1047421002340COBR_CAUC_BIC  LOREN-SID LTDA                          076639285002544FERRAGENS NEGRAO COMERCIAL LTDA         R PROF. ALGACYR M MADER,2800            CURITIBA                                81310020PR389890000501544086E0345821    25102012016CURITIBA            1903201300000000000687743CC                                                                                                                                                                                                                                                                                                                                                                                           207901-64     000116
1047421002340COBR_CAUC_BIC  LOREN-SID LTDA                          076639285002544FERRAGENS NEGRAO COMERCIAL LTDA         R PROF. ALGACYR M MADER,2800            CURITIBA                                81310020PR389890000601544094E0345831    25102012016CURITIBA            1903201300000000000335661CC                                                                                                                                                                                                                                                                                                                                                                                           207901-65     000117
1047421002340COBR_CAUC_BIC  LOREN-SID LTDA                          076639285002544FERRAGENS NEGRAO COMERCIAL LTDA         R PROF. ALGACYR M MADER,2800            CURITIBA                                81310020PR389890000701544108E0345841    25102012016CURITIBA            1903201300000000000365489CC                                                                                                                                                                                                                                                                                                                                                                                           207901-66     000118
1047421002340COBR_CAUC_BIC  LOREN-SID LTDA                          076639285002544FERRAGENS NEGRAO COMERCIAL LTDA         R PROF. ALGACYR M MADER,2800            CURITIBA                                81310020PR389890000801544116E0345851    25102012016CURITIBA            1903201300000000000505690CC                                                                                                                                                                                                                                                                                                                                                                                           207901-67     000119
1047421002340COBR_CAUC_BIC  LOREN-SID LTDA                          076639285002544FERRAGENS NEGRAO COMERCIAL LTDA         R PROF. ALGACYR M MADER,2800            CURITIBA                                81310020PR389890000901544124E0345861    25102012016CURITIBA            1903201300000000000640325CC                                                                                                                                                                                                                                                                                                                                                                                           207901-68     000120
1047421002340COBR_CAUC_BIC  LOREN-SID LTDA                          076639285002544FERRAGENS NEGRAO COMERCIAL LTDA         R PROF. ALGACYR M MADER,2800            CURITIBA                                81310020PR389890001001544132E0345871    25102012016CURITIBA            1903201300000000000670293CC                                                                                                                                                                                                                                                                                                                                                                                           207901-69     000121
1047421002340COBR_CAUC_BIC  LOREN-SID LTDA                          076639285002544FERRAGENS NEGRAO COMERCIAL LTDA         R PROF. ALGACYR M MADER,2800            CURITIBA                                81310020PR389890001101544141E0345881    25102012016CURITIBA            1903201300000000001120969CC                                                                                                                                                                                                                                                                                                                                                                                           207901-70     000122
1047421002340COBR_CAUC_BIC  LOREN-SID LTDA                          076639285002544FERRAGENS NEGRAO COMERCIAL LTDA         R PROF. ALGACYR M MADER,2800            CURITIBA                                81310020PR389890001201544159E0345891    25102012016CURITIBA            1903201300000000000511904CC                                                                                                                                                                                                                                                                                                                                                                                           207901-71     000123
1047421002340COBR_CAUC_BIC  LOREN-SID LTDA                          076639285002544FERRAGENS NEGRAO COMERCIAL LTDA         R PROF. ALGACYR M MADER,2800            CURITIBA                                81310020PR389890001301544167E0345901    25102012016CURITIBA            1903201300000000000674596CC                                                                                                                                                                                                                                                                                                                                                                                           207901-72     000124
1047421002340COBR_CAUC_BIC  LOREN-SID LTDA                          076639285002544FERRAGENS NEGRAO COMERCIAL LTDA         R PROF. ALGACYR M MADER,2800            CURITIBA                                81310020PR389890001401544175E0345911    25102012016CURITIBA            1903201300000000000073220CC                                                                                                                                                                                                                                                                                                                                                                                           207901-73     000125
1047421002340COBR_CAUC_BIC  LOREN-SID LTDA                          076639285002544FERRAGENS NEGRAO COMERCIAL LTDA         R PROF. ALGACYR M MADER,2800            CURITIBA                                81310020PR389890001501544183E0345921    25102012016CURITIBA            1903201300000000001859946CC                                                                                                                                                                                                                                                                                                                                                                                           207901-74     000126
1047421002340COBR_CAUC_BIC  LOREN-SID LTDA                          076639285002544FERRAGENS NEGRAO COMERCIAL LTDA         R PROF. ALGACYR M MADER,2800            CURITIBA                                81310020PR389890001601544191E0345931    25102012016CURITIBA            1903201300000000000141306CC                                                                                                                                                                                                                                                                                                                                                                                           207901-75     000127
1047421002340COBR_CAUC_BIC  LOREN-SID LTDA                          076639285002544FERRAGENS NEGRAO COMERCIAL LTDA         R PROF. ALGACYR M MADER,2800            CURITIBA                                81310020PR389890001701544213E0345951    25102012016CURITIBA            1903201300000000000353153CC                                                                                                                                                                                                                                                                                                                                                                                           207901-76     000128
1047421002340COBR_CAUC_BIC  LOREN-SID LTDA                          076639285002544FERRAGENS NEGRAO COMERCIAL LTDA         R PROF. ALGACYR M MADER,2800            CURITIBA                                81310020PR389890001801544221E0345961    25102012016CURITIBA            1903201300000000000353150CC                                                                                                                                                                                                                                                                                                                                                                                           207901-77     000129
1047421002340COBR_CAUC_BIC  LOREN-SID LTDA                          076639285002544FERRAGENS NEGRAO COMERCIAL LTDA         R PROF. ALGACYR M MADER,2800            CURITIBA                                81310020PR389890001901544230E0345971    25102012016CURITIBA            1903201300000000000805864CC                                                                                                                                                                                                                                                                                                                                                                                           207901-78     000130
1047421002340COBR_CAUC_BIC  LOREN-SID LTDA                          076639285002544FERRAGENS NEGRAO COMERCIAL LTDA         R PROF. ALGACYR M MADER,2800            CURITIBA                                81310020PR389890002001544248E0345981    25102012016CURITIBA            1903201300000000001309503CC                                                                                                                                                                                                                                                                                                                                                                                           207901-79     000131
1047421002340COBR_CAUC_BIC  LOREN-SID LTDA                          076639285002544FERRAGENS NEGRAO COMERCIAL LTDA         R PROF. ALGACYR M MADER,2800            CURITIBA                                81310020PR389890002101544256E0345991    25102012016CURITIBA            1903201300000000000219456CC                                                                                                                                                                                                                                                                                                                                                                                           207901-80     000132
1047421002340COBR_CAUC_BIC  LOREN-SID LTDA                          076639285002544FERRAGENS NEGRAO COMERCIAL LTDA         R PROF. ALGACYR M MADER,2800            CURITIBA                                81310020PR389890002201544264E0346001    25102012016CURITIBA            1501201300000000000439670CC                                                                                                                                                                                                                                                                                                                                                                                           207901-81     000133
1047421002340COBR_CAUC_BIC  LOREN-SID LTDA                          076639285002544FERRAGENS NEGRAO COMERCIAL LTDA         R PROF. ALGACYR M MADER,2800            CURITIBA                                81310020PR389890002301544272E0346011    25102012016CURITIBA            1903201300000000001222140CC                                                                                                                                                                                                                                                                                                                                                                                           207901-82     000134
1047421002340COBR_CAUC_BIC  LOREN-SID LTDA                          076639285002544FERRAGENS NEGRAO COMERCIAL LTDA         R PROF. ALGACYR M MADER,2800            CURITIBA                                81310020PR389890002401544281E0346021    25102012016CURITIBA            1903201300000000000090997CC                                                                                                                                                                                                                                                                                                                                                                                           207901-83     000135
1047421002340COBR_CAUC_BIC  LOREN-SID LTDA                          076639285002544FERRAGENS NEGRAO COMERCIAL LTDA         R PROF. ALGACYR M MADER,2800            CURITIBA                                81310020PR389890002501544299E0346031    25102012016CURITIBA            1501201300000000000349654CC                                                                                                                                                                                                                                                                                                                                                                                           207901-84     000136
1047421002340COBR_CAUC_BIC  LOREN-SID LTDA                          076639285002544FERRAGENS NEGRAO COMERCIAL LTDA         R PROF. ALGACYR M MADER,2800            CURITIBA                                81310020PR389890002601544302E0346051    25102012016CURITIBA            0103201300000000001266556CC                                                                                                                                                                                                                                                                                                                                                                                           207901-85     000137
1047421002340COBR_CAUC_BIC  LOREN-SID LTDA                          076639285002544FERRAGENS NEGRAO COMERCIAL LTDA         R PROF. ALGACYR M MADER,2800            CURITIBA                                81310020PR389890002701544311E0346091    25102012016CURITIBA            1903201300000000000613308CC                                                                                                                                                                                                                                                                                                                                                                                           207901-86     000138
1047421002340COBR_CAUC_BIC  LOREN-SID LTDA                          076639285002544FERRAGENS NEGRAO COMERCIAL LTDA         R PROF. ALGACYR M MADER,2800            CURITIBA                                81310020PR389890002801544337E0346111    25102012016CURITIBA            1903201300000000000200852CC                                                                                                                                                                                                                                                                                                                                                                                           207901-87     000139
1047421002340COBR_CAUC_BIC  LOREN-SID LTDA                          076639285002544FERRAGENS NEGRAO COMERCIAL LTDA         R PROF. ALGACYR M MADER,2800            CURITIBA                                81310020PR389890002901544345E0346121    25102012016CURITIBA            1903201300000000000573916CC                                                                                                                                                                                                                                                                                                                                                                                           207901-88     000140
1047421002340COBR_CAUC_BIC  LOREN-SID LTDA                          076639285002544FERRAGENS NEGRAO COMERCIAL LTDA         R PROF. ALGACYR M MADER,2800            CURITIBA                                81310020PR389890003001544353E0346301    25102012016CURITIBA            1501201300000000000467212CC                                                                                                                                                                                                                                                                                                                                                                                           207901-89     000141
1047421002340COBR_CAUC_BIC  LOREN-SID LTDA                          011590296001640MAGAZINE LILIANE S.A.                   R STO ANTONIO, 90                       BELEM                                   66816040PA389880000101541290E0345021    25102012050BELEM               0103201300000000001185000CC                                                                                                                                                                                                                                                                                                                                                                                           207901-90     000142
