0REMESSANOTIFICAÇÃO ELETRONICA        99999999999999Bicbanco S/A                            Avenida Brigadeiro Faria Lima           4.440     2º andar  Itaim Bibi                    São Paulo                     04538132SPBicbanco S/A                                                                    06082013                                                                                                                                                                                                                                                                                                                                                                                                000001
1022421007886COBR_CAUC_COR  COOPERCITRUS COOP. DE PROD. RURAIS      000015861809836LUIZ AUGUSTO P. MONGUILOD E OUTRO       AVE CONTORNO,00115                      MONTE CARMELO                           38500000MG434050000100010935000034762   05022013900BRADESCO S/A        0710201300000000010150169CC                                                                                                                                                                                                                                                                                                                                                                                           250343-1      000002
1028421001518COBR_CAUC_COR  GAIA AGRIBUSINESS AGRICOLA LTDA         000037457080082SILVIO ARANTES DE OLIVEIRA              AV MINAS GERAIS,1380                    GOIATUBA                                75600000GO43406000010291412939727       02082013900BRADESCO S/A        0512201300000000016850000CC                                                                                                                                                                                                                                                                                                                                                                                           250343-2      000003
1028421001518COBR_CAUC_COR  GAIA AGRIBUSINESS AGRICOLA LTDA         000037457080082SILVIO ARANTES DE OLIVEIRA              AV MINAS GERAIS,1380                    GOIATUBA                                75600000GO43406000020291413739728       02082013900BRADESCO S/A        0501201400000000016850000CC                                                                                                                                                                                                                                                                                                                                                                                           250343-3      000004
1028421001518COBR_CAUC_COR  GAIA AGRIBUSINESS AGRICOLA LTDA         000094733961120FABIO DANTAS DA COSTA                   RUA RIO GRANDE DO SUL,546               GOIATUBA                                75600000GO43409000010291416139733       02082013900BRADESCO S/A        2001201400000000017532000CC                                                                                                                                                                                                                                                                                                                                                                                           250343-4      000005
1028421001518COBR_CAUC_COR  GAIA AGRIBUSINESS AGRICOLA LTDA         000094733961120FABIO DANTAS DA COSTA                   RUA RIO GRANDE DO SUL,546               GOIATUBA                                75600000GO4340900002029141709473396112  02082013900BRADESCO S/A        1502201400000000017532000CC                                                                                                                                                                                                                                                                                                                                                                                           250343-5      000006
1028421001518COBR_CAUC_COR  GAIA AGRIBUSINESS AGRICOLA LTDA         000062405918153WILLIAM PEREIRA BARBOSA E OUTROS        RUA SAO FRANCI,641-CAIXA POSTAL 14      GOIATUBA                                75600000GO43408000010291414539731       02082013900BRADESCO S/A        1512201300000000017340000CC                                                                                                                                                                                                                                                                                                                                                                                           250343-6      000007
1028421001518COBR_CAUC_COR  GAIA AGRIBUSINESS AGRICOLA LTDA         000062405918153WILLIAM PEREIRA BARBOSA E OUTROS        RUA SAO FRANCI,641-CAIXA POSTAL 14      GOIATUBA                                75600000GO43408000020291415339732       02082013900BRADESCO S/A        2501201400000000017340000CC                                                                                                                                                                                                                                                                                                                                                                                           250343-7      000008
1028421001518COBR_CAUC_COR  GAIA AGRIBUSINESS AGRICOLA LTDA         000048494836153JOSE ADONIZETE DA COSTA                 AV SANTA CATARINA ,180                  GOIATUBA                                75600000GO43407000010291410239729       02082013900BRADESCO S/A        1012201300000000016380000CC                                                                                                                                                                                                                                                                                                                                                                                           250343-8      000009
1028421001518COBR_CAUC_COR  GAIA AGRIBUSINESS AGRICOLA LTDA         000048494836153JOSE ADONIZETE DA COSTA                 AV SANTA CATARINA ,180                  GOIATUBA                                75600000GO43407000020291411139730       02082013900BRADESCO S/A        1001201400000000016380000CC                                                                                                                                                                                                                                                                                                                                                                                           250343-9      000010
1044421012350DIR_CREDIT     PAPI PRONTO SOCORRO                     008380701000105UNIMED NATAL                            RUA MIPIBU, 511 - PETRÓPOLIS            NATAL                                   59020250RN4342200001                                                                                                                                          012326822           260320080000005352001         02082013000404ATENDIMENTO MEDICO/AMBULATORIAL DOS CONVENIADOS A UNIMED/NATAL.                                                                                                                                                                                 008423220000130250343-10     000011
1014421025163DIR_CREDIT     REALMAR DISTRIBUIDORA LTDA              027406222000165DACASA FINANCEIRA S/A - SCFI            AV NOSSA SENHORA DA PENHA 2035          VITORIA                                 29056245ES4343300001                                                                                                                                          012285135           020720040000024113S/NR        25062013051902determinação das normas, condições e obrigações referentes a vinculaçãodo Estabelecimento ao Sistema Dacasa de Cartões de Crédito.                                                                                                              003845717000122250343-11     000012
1017421013146DIR_CREDIT     USINA TAQUARA LTDA                      012718011000190CENTRAL ACUC STO ANTONIO S/A            US SANTO ANTONIO S/N-SãO LUIS QUITUNDE  ALAGOAS                                 57920000AL4344000001                                                                                                                                          011942654           220720130000024692            31072013003901fornecimento de melaço, subproduto da cana-de-açucar. será convertido por álcool anidro.                                                                                                                                                        012217246000107250343-12     000013
9000012                                                                                                                                                                                                                                                                                                                                                                                                                                                                                                                                                                                                                                                                                                               000014
