0REMESSANOTIFICAÇÃO ELETRONICA        99999999999999Bicbanco S/A                            Avenida Brigadeiro Faria Lima           4.440     2º andar  Itaim Bibi                    São Paulo                     04538132SPBicbanco S/A                                                                    09042012                                                                                                                                                                                                                                                                                                                                                                                                000001
1007421031242COBR_CAUC_BIC  GP GUARDA PATRIMONIAL DE S.P. LTDA      001588770000836DIVEO DO BRASIL TELECOMUNICACOES        AVENIDA CECI1850                        BARUERI                                 06460120SP34658000010004715478491       02042012007PAULISTA            0105201200000000014306951CC                                                                                                                                                                                                                                                                                                                                                                                           169919-1      000002
1031420932046COBR_CAUC_BIC  PALMALI INDL.DE ALIMENTOS LTDA          074101569000341AGRICOLA JANDELLE S/A.                  AV ITAMARATY                            ROLANDIA                                86600000PR346590000104980806NE 0346063  30032012031LONDRINA            2506201200000000060000000CC                                                                                                                                                                                                                                                                                                                                                                                           169919-2      000003
1031420932046COBR_CAUC_BIC  PALMALI INDL.DE ALIMENTOS LTDA          074101569000341AGRICOLA JANDELLE S/A.                  AV ITAMARATY                            ROLANDIA                                86600000PR346590000204980814NE 0346064  30032012031LONDRINA            2507201200000000060000000CC                                                                                                                                                                                                                                                                                                                                                                                           169919-3      000004
1003421005364COBR_CAUC_BIC  PESQUEIRA MAGUARY LTDA                  005780031000126IMPERIAL DISTRIBUIDORA LTDA             RODOVIA BR 040 KM 688 PAV ,0-CEASA      CONTAGEM                                32145900MG346600000104092960000003548   30032012019BELO HORIZONTE      2604201200000000011381250CC                                                                                                                                                                                                                                                                                                                                                                                           169919-4      000005
1007421058450COBR_CAUC_BIC  CEDIPRO DISTRIBUIDORA LTDA              025769266000124ARCOM S/A                               RO.AN.VIAR.AYRTON SENNA, 2001           UBERLANDIA                              38414512MG3466100001011665211805-000    30032012028UBERLANDIA          1905201200000000017186068CC                                                                                                                                                                                                                                                                                                                                                                                           169919-5      000006
1008421022487COBR_CAUC_COR  EBP - EMPRESA BRASILEIRA DE PESCADO     033304981000110SUPERMERCADOS MUNDIAL LTDA              RUADONA EMILIA, 2                       RIO DE JANEIRO                          20765110RJ3466200001014974589842/       27032012900BRADESCO S/A        1604201200000000019665000CC                                                                                                                                                                                                                                                                                                                                                                                           169919-6      000007
1046421001281DIR_CREDIT     SUL IMAGEM PROD P/ DIAGNOSTICOS LTD     024134488000299HOSP DAS CLIN DA UF PERNAMBUCO          AV PROF MORAIS REGO S/N                 RECIFE                                  50670901PE3466800001                                                                                                                                          481006816           16082011000001975679/2011     02042012000404Aquisição de equipamentos médicos hospitalares.                                                                                                                                                                                                 003135637000183169919-7      000008
1046421001281DIR_CREDIT     SUL IMAGEM PROD P/ DIAGNOSTICOS LTD     015180714000104UNIVERSIDADE FEDERAL DA BAHIA           RUA AUGUSTO VIANA, S/N - CANELA         SALVADOR                                40110060BA3466900001                                                                                                                                          481006816           16082011000001976228/2011     02042012000404Aquisição de equipamentos médicos e hospitalares                                                                                                                                                                                                003135637000183169919-8      000009
1046421001281DIR_CREDIT     SUL IMAGEM PROD P/ DIAGNOSTICOS LTD     007272636000212HOSP. U. WALTER CANTIDIO DA U.F. CEARA  R CAPITAO FRANCISCO PEDRO 1290 RODOLFO  FORTALEZA                               60430370CE3467000001                                                                                                                                          481006816           16082011000001977129/2011     02042012000404aquisição de equipamentos medicos e hospitalares                                                                                                                                                                                                003135637000183169919-9      000010
1018421019240DIR_CREDIT     ENGEFORT CONSTRUTORA LTDA               021154554000113TRIBUNAL DE JUSTICA DO EST. MINAS GERAISAV AFONSO PENA 1.420 CENTRO             BELO HORIZONTE                          30130002MG3468400001                                                                                                                                          011361313           261120100000017901602/2010    31032011000453obra de construcao e edificacao do predio do novo forum da comerca deuberlandia.//                                                                                                                                                              005280840000179169919-10     000011
1018421021538DIR_CREDIT     ENGEFORT CONSTRUTORA LTDA               000394460009793DELEGACIA DA RECEITA FEDERAL DO BRASIL  RUA LEVINDO LOPES NR 357 ANDAR 6        BELO HORIZONTE                          30140170MG3468500001                                                                                                                                          010972386           18122009000001358612/2009     31052010000453execução de obra total do edifício da futura sede da DRF/BHE na Cidade de Belo Horizonteincluindo a elaboracao do projeto executivo concomitantemen-te com a obra.                                                                              005280840000179169919-11     000012
1007421044581COBR_CAUC_BIC  GRANCARGA TRANSP. E GUINDASTES S/A.     001027335000166WOBBEN WINDPOWER IND.E COM.LTDA.        AV.FERNANDO STECCA,100                  SOROCABA                                18087149SP346860000101167463002172      03042012007PAULISTA            0205201200000000012455315CC                                                                                                                                                                                                                                                                                                                                                                                           169927-1      000013
1007421044581COBR_CAUC_BIC  GRANCARGA TRANSP. E GUINDASTES S/A.     001027335000166WOBBEN WINDPOWER IND.E COM.LTDA.        AV.FERNANDO STECCA,100                  SOROCABA                                18087149SP346860000201167471002173      03042012007PAULISTA            0205201200000000012455315CC                                                                                                                                                                                                                                                                                                                                                                                           169927-2      000014
1007421044581COBR_CAUC_BIC  GRANCARGA TRANSP. E GUINDASTES S/A.     001027335000166WOBBEN WINDPOWER IND.E COM.LTDA.        AV.FERNANDO STECCA,100                  SOROCABA                                18087149SP346860000301167480002174      03042012007PAULISTA            0205201200000000012455315CC                                                                                                                                                                                                                                                                                                                                                                                           169927-3      000015
1038421018922COBR_CAUC_COR  AMEPLAN ASSIST MEDICA PLANEJADA         011031202000117V. METROPOLITANA LTDA                   R. GENARO DE CARVALHO,145               SAO PAULO                               04377220SP34687000010930046242591       03042012900BRADESCO S/A        2504201200000000012200667CC                                                                                                                                                                                                                                                                                                                                                                                           169927-4      000016
1007421035337COBR_CAUC_COR  COML IMP E EXP LA RIOJA LTDA            010319375000172MULTI FORMATO DIST S/A (PTA) (16.0      AV MANOEL JACINTA COELHO JUNIOR, 901    CONTAGEM                                32150245MG34688000010037385087037-001   03042012900BRADESCO S/A        0406201200000000023835000CC                                                                                                                                                                                                                                                                                                                                                                                           169927-5      000017
1007421006183COBR_CAUC_BIC  NITRIFLEX S/A IND E COMERCIO            015179682002243RHODIA POLIAMIDA E ESPECIALIDADES       AV.DOS ESTADOS, 6144                    SANTO ANDRE                             09290520SP347020000101168737001447501   03042012038ABC                 0506201200000000014317777CC                                                                                                                                                                                                                                                                                                                                                                                           169929-1      000018
1007420931444COBR_CAUC_BIC  PLASINCO LTDA                           014197209000100CORDEIRO CABOS ELETRICOS SA             RUAILJIMA,1036                          FERRAZ DE VASCO                         08534000SP34703000010116863019383-1     02042012007PAULISTA            2705201200000000010741234CC                                                                                                                                                                                                                                                                                                                                                                                           169929-2      000019
1007420931444COBR_CAUC_BIC  PLASINCO LTDA                           014197209000100CORDEIRO CABOS ELETRICOS SA             RUAILJIMA,1036                          FERRAZ DE VASCO                         08534000SP34703000020116864819383-2     02042011007PAULISTA            0106201200000000010741234CC                                                                                                                                                                                                                                                                                                                                                                                           169929-3      000020
1007420931444COBR_CAUC_BIC  PLASINCO LTDA                           014197209000100CORDEIRO CABOS ELETRICOS SA             RUAILJIMA,1036                          FERRAZ DE VASCO                         08534000SP34703000030116865619383-3     02042012007PAULISTA            0606201200000000010741234CC                                                                                                                                                                                                                                                                                                                                                                                           169929-4      000021
1007420931444COBR_CAUC_BIC  PLASINCO LTDA                           014197209000100CORDEIRO CABOS ELETRICOS SA             RUAILJIMA,1036                          FERRAZ DE VASCO                         08534000SP34703000040116866419383-4     02042012007PAULISTA            1106201200000000010741234CC                                                                                                                                                                                                                                                                                                                                                                                           169929-5      000022
1007420931444COBR_CAUC_BIC  PLASINCO LTDA                           014197209000100CORDEIRO CABOS ELETRICOS SA             RUAILJIMA,1036                          FERRAZ DE VASCO                         08534000SP34703000050116867219383-5     02042012007PAULISTA            1606201200000000010741234CC                                                                                                                                                                                                                                                                                                                                                                                           169929-6      000023
1007420931444COBR_CAUC_BIC  PLASINCO LTDA                           047090782000160DANEVA MAQ. E COND. EL. LTDA.           RUA VOTUPORANGA,415                     POA                                     08558050SP34704000010116862119379       02042012007PAULISTA            2504201200000000021289950CC                                                                                                                                                                                                                                                                                                                                                                                           169929-7      000024
1032421002555COBR_CAUC_BIC  ZZA SECURITIZADORA S.A.                 053558342001593ANIS RAZUK INDUSTRIA E COM LTD          RUA CAETANO PINTO129                    SAO PAULO                               03041000SP347050000100445810151251011   04042012007PAULISTA            1005201200000000024000000CC                                                                                                                                                                                                                                                                                                                                                                                           169929-8      000025
1003421005364COBR_CAUC_BIC  PESQUEIRA MAGUARY LTDA                  008967872000135COCO BAMBU FRUTOS DO MAR COMERCIO       AV.BEIRA MAR - DE 1141/1142 A,3698      FORTALEZA                               60165121CE3470600001040938342433        04042012003CENTRO              0905201200000000011100000CC                                                                                                                                                                                                                                                                                                                                                                                           169929-9      000026
1024421007416COBR_CAUC_BIC  ATLAS AGROINDUSTRIAL LTDA               083310441005500COOPERATIVA CENTRAL AURORA ALIMENT      LINHA 3 PONTES ROD SCT 480              XANXERE                                 89803400SC34707000010196925521758       03042012024CUIABA              2905201200000000013430000CC                                                                                                                                                                                                                                                                                                                                                                                           169929-10     000027
9000026                                                                                                                                                                                                                                                                                                                                                                                                                                                                                                                                                                                                                                                                                                               000028
