0REMESSANOTIFICAÇÃO ELETRONICA        99999999999999Bicbanco S/A                            Avenida Paulista , 1048 12º andar                           BELA VISTA                    SÃO PAULO                     01310100SPBicbanco S/A                                                                    23042010                                                                                                                                                                                                                                                                                                                                                                                                000001
1008420932455COBR_CAUC_COR  SANTANA TEXTIL S/A                      008402943001477GUARARAPES CONFECCOES S.A               CAIXA POSTAL 05 AGENCIA RIBEIRA         NATAL                                   59010970RN217470000100231322013447*     20042010900BRADESCO S/A        1907201000000000010195852CC                                                                                                                                                                                                                                                                                                                                                                                           95252-1       000002
1019421004658COBR_CAUC_COR  S/A ESTADO DE MINAS                     033041260000164GLOBEX UTILIDADES S A                   TENENTE REBELO 675BR                    RIO DE JANEIRO                          21230075RJ2174800001009573872093839-1   19042010900BRADESCO S/A        1505201000000000012400128CC                                                                                                                                                                                                                                                                                                                                                                                           95252-2       000003
1028421002719COBR_CAUC_COR  SIPCAM ISAGRO BRASIL S/A                007367791000131NANTES E SILVA LTDA                     AV PERIMETRAL SUDESTE, 10265            SORRISO                                 78890000MT217490000102598430DL00001301  11092009900BRADESCO S/A        2805201000000000024067200CC                                                                                                                                                                                                                                                                                                                                                                                           95252-3       000004
1046421000617COBR_CAUC_BIC  INPLAC INDUSTRIA DE PLASTICOS S/A       082638644004161UNIVERSAL LEAF TABACOS LTDA             RODOVIA BR 471 - KM 49 - C.POSTAL 495   SANTA CRUZ DO S                         96835640RS217500000100696386001145807   17042010015PORTO ALEGRE        0106201000000000011534868CC                                                                                                                                                                                                                                                                                                                                                                                           95252-4       000005
1021420930887COBR_CAUC_COR  DEDINI S/A INDUSTRIAS DE BASE           008830263000130FATIMA DO SUL AGRO-ENERGETICA SA A      ROD OTR LINHA DO BARREIRINHO -LTS2 ZON  FATIMA DO SUL                           79700000MS217510000105786041110358-2-3  31032010900BRADESCO S/A        1505201000000000034441000CC                                                                                                                                                                                                                                                                                                                                                                                           95252-5       000006
1021420930887COBR_CAUC_COR  DEDINI S/A INDUSTRIAS DE BASE           008830263000130FATIMA DO SUL AGRO-ENERGETICA SA A      ROD OTR LINHA DO BARREIRINHO -LTS2 ZON  FATIMA DO SUL                           79700000MS217510000205786050110358-2-4  19042010900BRADESCO S/A        1505201000000000037500000CC                                                                                                                                                                                                                                                                                                                                                                                           95252-6       000007
1021420930887COBR_CAUC_COR  DEDINI S/A INDUSTRIAS DE BASE           008830263000130FATIMA DO SUL AGRO-ENERGETICA SA A      ROD OTR LINHA DO BARREIRINHO -LTS2 ZON  FATIMA DO SUL                           79700000MS217510000305786076110358-2-1  19042010900BRADESCO S/A        1506201000000000028500000CC                                                                                                                                                                                                                                                                                                                                                                                           95252-7       000008
1021420930887COBR_CAUC_COR  DEDINI S/A INDUSTRIAS DE BASE           048663421000129USINA SAO MARTINHO S A                  FAZ SAO MARTINHO ZONA RURAL BR          PRADOPOLIS                              14850000SP217520000105786033115767-1-1  19042010900BRADESCO S/A        1105201000000000025483250CC                                                                                                                                                                                                                                                                                                                                                                                           95252-8       000009
1008421003482COBR_CAUC_BIC  METALGRAFICA CEARENSE S/AMECESA         019900000001903CERVJS KAISER BRASIL S/A-PACATUBA       AV. PRES. H. DE A. C. BRANCO 2911       JACAREI                                 12321150SP21753000010793670401037101    20042010007PAULISTA            1805201000000000018614640CC                                                                                                                                                                                                                                                                                                                                                                                           95252-9       000010
1008421003482COBR_CAUC_BIC  METALGRAFICA CEARENSE S/AMECESA         061186888009069SPAL IND. BRASILEIRA DE BEBIDAS S/      AV PRES HUMBERTO A. C. BRANCO,2911      JACAREI                                 12321150SP21754000010793677101028501    15042010007PAULISTA            2005201000000000010954286CC                                                                                                                                                                                                                                                                                                                                                                                           95252-10      000011
1022421002370COBR_CAUC_COR  FRIGOESTRELA S.A.                       000281228000440N & N COMERCIO DE ALIMENTOS LTDA        ROD. REGIS BITTENCOURTS/NKM 294 SA      ITAPECERICA DA                          06882700SP2175500001023434270031666201  19042010900BRADESCO S/A        2105201000000000010428286CC                                                                                                                                                                                                                                                                                                                                                                                           95252-11      000012
1022141001217COBR_CAUC_BIC  BALDIN BIOENERGIA S/A                   001062529000100DULCINI S/A                             ESTR SITIO TABOAO S/N Z RURAL           PIRASSUNUNGA                            13631301SP2175600001038241196811        30032010021CAMPINAS            0706201000000000025000000TD                                                                                                                                                                                                                                                                                                                                                                                           95252-12      000013
1022141001217COBR_CAUC_BIC  BALDIN BIOENERGIA S/A                   001062529000100DULCINI S/A                             ESTR SITIO TABOAO S/N Z RURAL           PIRASSUNUNGA                            13631301SP2175600002038241276811/01     30032010021CAMPINAS            0806201000000000025000000TD                                                                                                                                                                                                                                                                                                                                                                                           95252-13      000014
1022141001217COBR_CAUC_BIC  BALDIN BIOENERGIA S/A                   001062529000100DULCINI S/A                             ESTR SITIO TABOAO S/N Z RURAL           PIRASSUNUNGA                            13631301SP2175600003038241356811/02     30032010021CAMPINAS            0906201000000000025000000TD                                                                                                                                                                                                                                                                                                                                                                                           95252-14      000015
1022141001217COBR_CAUC_BIC  BALDIN BIOENERGIA S/A                   001062529000100DULCINI S/A                             ESTR SITIO TABOAO S/N Z RURAL           PIRASSUNUNGA                            13631301SP2175600004038241436811/03     30032010021CAMPINAS            1006201000000000025000000TD                                                                                                                                                                                                                                                                                                                                                                                           95252-15      000016
1003421013987COBR_CAUC_COR  SCIENTIFIC COM E IMPORTACAO LTDA        008546929000122CARESTREAM DO BRASIL COM.SERV.P.ME      AV.DR.MARCOS PENTEADO,401-PARTE 17      BARUERI                                 06460040SP217570000100003059179         15042010900BRADESCO S/A        1506201000000000011807684CC                                                                                                                                                                                                                                                                                                                                                                                           95252-16      000017
1019421007320COBR_CAUC_COR  ATHOS FARMA SUDESTE S/A                 000100374000189DROG GALANTI DE NOVA IGUACU LTDA        TR ALMERINDA LUCAS DE AZEREDO , 60      NOVA IGUACU                             26210180RJ217580000100234725114466B     17032010900BRADESCO S/A        3105201000000000025183288CC                                                                                                                                                                                                                                                                                                                                                                                           95252-17      000018
1                                                                                  BANCO DO BRASIL S.A                     AVENIDA SÃO JOÃO ,938 ,JARDIM ESPLANADA SÃO JOSÉ DOS CAMPOS                     12242-840SP                                                                                                                                                                                                                                                                                                                                                                                                                                                                                   95260-1       000019
9000018                                                                                                                                                                                                                                                                                                                                                                                                                                                                                                                                                                                                                                                                                                               000020
