0REMESSANOTIFICAÇÃO ELETRONICA        99999999999999Bicbanco S/A                            Avenida Brigadeiro Faria Lima           4.440     2º andar  Itaim Bibi                    São Paulo                     04538132SPBicbanco S/A                                                                    29072014                                                                                                                                                                                                                                                                                                                                                                                                000001
1015421010253COBR_CAUC_COR  MUNDIAL S/A PRODUTOS DE CONSUMO         005103939000286ZAMBONI COMERCIAL LTDA                  ROD BR 116 RIO BAHIA KM 809 7 S NR      ALEM PARAIBA                            36660000MG4857800001013352655800746501  23072014900BRADESCO S/A        2110201400000000032551920CC                                                                                                                                                                                                                                                                                                                                                                                           312476-1      000002
1015421010253COBR_CAUC_BIC  MUNDIAL S/A PRODUTOS DE CONSUMO         082873068000140GENESIO A MENDES E CIA LTDA             EST. BR 471 KM 48 SN                    SANTA CRUZ DO S                         96800000RS4857900001013350015800748901  23072014015PORTO ALEGRE        2208201400000000011911579CC                                                                                                                                                                                                                                                                                                                                                                                           312476-2      000003
1031421012447COBR_CAUC_COR  AGRICOLA JANDELLE S/A                   011224864000103REAL FOODS COMERCIO ATAC DE GEN AL      AVENIDA DAS AMERICAS 8445 SALA 515 E 516RIO DE JANEIRO                          22793081RJ4858000001060045880025029001  22072014900BRADESCO S/A        2108201400000000016005600CC                                                                                                                                                                                                                                                                                                                                                                                           312476-3      000004
1022421007525COBR_CAUC_COR  D. CENTER DISTRIBUIDORA LTDA            049040868000104DROG.NOVO CENTRO LTDA ME                AV.LEONARDO DA VINCI, 1007-A            SAO PAULO                               04313000SP48581000010187152787483205    22072014900BRADESCO S/A        0909201400000000010937134CC                                                                                                                                                                                                                                                                                                                                                                                           312476-4      000005
1018141026092COBR_CAUC_COR  MEDIO NORTE CONST E TERRAPLEN LTDA      001500203000100ACEFER COMERCIO DE SUCATAS LTDA         ROD BR 153,0                            URUACU                                  76400000GO48582000010378585129          23072014900BRADESCO S/A        2209201400000000010295000TD                                                                                                                                                                                                                                                                                                                                                                                           312476-5      000006
1021421017050COBR_CAUC_BIC  STAR DISTR PROD FARMACEUTICOS LTDA      061585865073701RAIA DROGASIL S/A                       RUA PATAXOS , 1412                      EMBU                                    06833073SP4858300001000032600000356201  04072014007PAULISTA            0108201400000000033852326CC                                                                                                                                                                                                                                                                                                                                                                                           312476-6      000007
1021421017352COBR_CAUC_BIC  STAR DISTR PROD FARMACEUTICOS LTDA      061585865073701RAIA DROGASIL S/A                       RUA PATAXOS , 1412                      EMBU                                    06833073SP4858400001000005110000355901  04072014007PAULISTA            0108201400000000015685113CC                                                                                                                                                                                                                                                                                                                                                                                           312476-7      000008
1046421006070DIR_CREDIT     METALURGICA DS LTDA                     060857349000176TRW AUTOMOTIVE LTDA                     VIA ANHANGUERA KM 147                   LIMEIRA                                 13486915SP4859000001                                                                                                                                          012636980           260320070000018698            23072014000404fornecimento de discos e tambores de freio para automóveis.                                                                                                                                                                                     079414868000198312476-8      000009
1007421072259COBR_CAUC_COR  BOMBRIL S/A                             049092398000394COML ESPERANCA ATAC DISTR LTDA          AV JULIA GAIOLLI 600                    GUARULHOS                               07251500SP4861000001031348640998520001  23072014900BRADESCO S/A        1308201400000000010989825CC                                                                                                                                                                                                                                                                                                                                                                                           312999-1      000010
1031421012447COBR_CAUC_COR  AGRICOLA JANDELLE S/A                   004641376007300SUPERMERCADOS BH COMERCIO DE ALIME      AVENIDA GERALDO ROCHA 200               CONTAGEM                                32183054MG4861100001030013240015306101  24072014900BRADESCO S/A        2508201400000000015416880CC                                                                                                                                                                                                                                                                                                                                                                                           312999-2      000011
1018421015651COBR_CAUC_BIC  CMS PRODUTOS MEDICOS LTDA               060765823000130SOCIEDADE BENEF ISRAELITABRAS HOSP      AV. ALBERT EINSTEIN, 627                SAO PAULO                               05652000SP486120000103788231000099036   23072014007PAULISTA            2209201400000000019500000CC                                                                                                                                                                                                                                                                                                                                                                                           312999-3      000012
1031421011181COBR_CAUC_BIC  AGROIND IRMAOS DALLA COSTA LTDA         061270393000148FRIGORIFICO MARBA LTDA                  AV. CEZAR MAGNANI00971                  SAO BERNARDO DO                         09694000SP48613000010542369234836/1     23072014007PAULISTA            0109201400000000016900000CC                                                                                                                                                                                                                                                                                                                                                                                           312999-4      000013
1009421013315COBR_CAUC_COR  BONASA ALIMENTOS S/A                    009587239000427COOPERATIVA MISTA DOS AVICULT. DO       ESTRADA TERESINA UNIAO ZONA LESTE KM 03 TERESINA                                64058305PI486140000100015592000118001   24072014900BRADESCO S/A        1408201400000000011475000CC                                                                                                                                                                                                                                                                                                                                                                                           312999-5      000014
1010421025417DIR_CREDIT     CACHOOL COMERCIO E INDUSTRIA SA         000308337000160SUCDEN DO BRASIL LTDA                   AV PRESIDENTE KUBITSCHEK 1726 23ºANDAR  SAO PAULO                               04543000SP4861700001                                                                                                                                          001262087           060620140000025965010/2 A1 14 25072014003004Contrato de compra e venda de 5.000tm de açucar cristalizado,centrifugaDO,puro e cru de cana de AÇÚCAR(VHP)destinado à exportação, referente à 2014/2015.                                                                                       008470543000184312999-6      000015
9000014                                                                                                                                                                                                                                                                                                                                                                                                                                                                                                                                                                                                                                                                                                               000016
