0REMESSANOTIFICAÇÃO ELETRONICA        99999999999999Bicbanco S/A                            Avenida Brigadeiro Faria Lima           4.440     2º andar  Itaim Bibi                    São Paulo                     04538132SPBicbanco S/A                                                                    26102012                                                                                                                                                                                                                                                                                                                                                                                                000001
1003420935082DIR_CREDIT     PB CONSTRUCOES LTDA                     010260249000351CIA INDUSTRIAL DE CIMENTO APODI S/A     ROD. CE 422, KM 3,5 - SAO JOSE DO MIXIRACAUCAIA                                 61600000CE3827400001                                                                                                                                          011881964           150120120000021239S/N         12062012051902prestação de serviços de edificações de prédios industriais, incluso fundação até a limpeza e entrega final.                                                                                                                                    006017891000175201182-1      000002
1019421013967DIR_CREDIT     ACOPLATION LOCACAO DE AUTOS             041679762000305GPA CONSTRUCAO PESADA E MINERACAO       ROD BR 040 KM 800 NUM.60 BL 02 SALA 34  MATIAS BARBOSA                          36120000MG3829400001                                                                                                                                          011840935           140320120000021344012625-2012 25052012051902locacao de plataformas aereas que serao utilizadas pela gpa construcao pesada e mineracao.                                                                                                                                                      010408025000182201182-2      000003
1047421000771COBR_CAUC_COR  INDUSTRIAS REUNIDAS COLOMBO LTDA        045236791009652COOPERCITRUS COOPERATIVA DE PRODUT      AV. REVERENDO ALVARO SIMOES, 1498       MARILIA                                 17520080SP382970000101522821002245301   10102012900BRADESCO S/A        2510201200000000023700000CC                                                                                                                                                                                                                                                                                                                                                                                           201182-3      000004
1047421000771COBR_CAUC_COR  INDUSTRIAS REUNIDAS COLOMBO LTDA        071320915000122COOPERATIVA DOS PLANTADORES DE CAN      RUA DR. PIU DUFLES, 510 CX. P. 142 / 521SERTAOZINHO                             14160680SP382980000101522317002247301   11102012900BRADESCO S/A        2812201200000000024500000CC                                                                                                                                                                                                                                                                                                                                                                                           201182-4      000005
1031421007850COBR_CAUC_BIC  AGRICOLA JANDELLE S/A                   064275993000197FRANGOGEL DISTRIBUIDORA DE ALIMENT      AVENIDA PERIMETRAL 3851                 BELO HORIZONTE                          30668635MG3829900001050641290009876401  10102012019BELO HORIZONTE      0911201200000000013842357CC                                                                                                                                                                                                                                                                                                                                                                                           201182-5      000006
1023421000065DIR_CREDIT     ENTERPA ENGENHARIA LTDA                 005995766000177PM DE MACAPA                            AV FAB N 840 CENTRO                     MACAPA - AMAPA                          68900453AP3807300001                                                                                                                                          011916432           161220090000011414170/2009-PMM17092012000403contrato de prestação de serviços de colteta e transporte de residuossolidos urbanos alem de outros inerentes a limpeza publica no municipiode macapa                                                                                           047892906000121201186-1      000007
1014420939021COBR_CAUC_BIC  EDITORA O DIA S/A                       010757237000175NOVA CASAS BAHIA S/A                    CONDE FRANCISCO MATARAZZO 100           SAO CAETANO DO                          09520900SP3833000001024812890662442     15102012038ABC                 0511201200000000018973814CC                                                                                                                                                                                                                                                                                                                                                                                           201186-2      000008
1048421002195COBR_CAUC_COR  SERVIMED COMERCIAL LTDA                 006880016000112LIGMED COM DE MEDS LTDA                 AV T2 1820                              GOIANIA                                 74215010GO38331000010009298266313816    11102012900BRADESCO S/A        0111201200000000027385432CC                                                                                                                                                                                                                                                                                                                                                                                           201186-3      000009
1046421007212COBR_CAUC_BIC  MANCHESTER QUIMICA DO BRASIL SA         060561719009503AKZO NOBEL LTDA - MAUA                  AV PAPA JOAO XXIII, 2100                MAUA                                    09370901SP38332000010162054501025411    10102012038ABC                 1112201200000000012564661CC                                                                                                                                                                                                                                                                                                                                                                                           201186-4      000010
1007421034080COBR_CAUC_COR  SIDMEX INTERNACIONAL LTDA               013316091000110GABRISE LTDA EPP                        IVO SILVEIRA,7007-SALA 15               BRUSQUE                                 88355202SC3833300001014958601197.12     15102012800UNIBANCO S/A        0912201200000000017785308CC                                                                                                                                                                                                                                                                                                                                                                                           201186-5      000011
1006441005236COBR_CAUC_COR  F A MENDES ARAGAO ME                    039622121000100GRANITO ZUCCHI LTDA                     AV JACARAIPE,1423-A                     SERRA                                   29175217ES383340000109235384427         11102012800UNIBANCO S/A        1511201200000000010071633CC                                                                                                                                                                                                                                                                                                                                                                                           201186-6      000012
1007421056385COBR_CAUC_COR  TERRA NOVA TRADING S/A                  013859972000188RITRAMA AUTOADESIVOS COMERCIO LTDA      ROD.VICE-PREFEITO HERMENEGILDO T,1      JUNDIAI                                 13213086SP383440000100000492TI08768-PB  16102012900BRADESCO S/A        2210201200000000011628417CC                                                                                                                                                                                                                                                                                                                                                                                           201189-1      000013
1007421031242COBR_CAUC_BIC  GP GUARDA PATRIMONIAL DE S.P. LTDA      062144175000120BANCO PINE S A                          AVDAS NACOES UNIDAS8 501 29E 30         SAO PAULO                               05425070SP38345000010006482285006       15102012007PAULISTA            0111201200000000024162396CC                                                                                                                                                                                                                                                                                                                                                                                           201189-2      000014
1021421015970COBR_CAUC_COR  UNITED MILLS ALIMENTOS LTDA             009338123000101MONA VIE BRASIL COMERCIAL LTDA.         AL IRAE, 634, LOJA TERREO               SAO PAULO                               04075000SP383460000106356954000063782   03102012900BRADESCO S/A        0511201200000000012096248CC                                                                                                                                                                                                                                                                                                                                                                                           201189-3      000015
1048421000338COBR_CAUC_COR  FRIGOESTRELA S.A. EM RECUP JUDICIAL     002886959000100MULT. BEEF COMERCIAL LTDA EPP           AV DOM LUIS DO AMARAL MOUSINHO500       BRODOWSKI                               14340000SP3834700001029339090080640401  15102012900BRADESCO S/A        0911201200000000010129200CC                                                                                                                                                                                                                                                                                                                                                                                           201189-4      000016
1022421007495COBR_CAUC_BIC  TECUMSEH DO BRASIL LTDA                 063699839000180WHIRLPOOL ELETRODOMESTICOS AM SA        AV DAS NACOESUNID,12995-27 ANDAR        SAO PAULO                               04578000SP38348000010441664259586/1     15102012007PAULISTA            1202201300000000028607544CC                                                                                                                                                                                                                                                                                                                                                                                           201189-5      000017
1038421019856COBR_CAUC_BIC  KELPEN OIL BRASIL LTDA                  008833531000177PULCRA ESPECIALIDADES QUIMICAS LTD      RODOVIAPRESIDENTE DUTRA KM 16,SN        JACAREI                                 12335010SP38349000010989558001566001    16102012007PAULISTA            2711201200000000011307699CC                                                                                                                                                                                                                                                                                                                                                                                           201189-6      000018
1007421053971COBR_CAUC_BIC  VIDA ALIMENTOS LTDA                     017159518000175DOMINGOS COSTA INDUSTRIAS ALIMENTI      PC LOUIS ENSCH, 160                     CONTAGEM                                32210050MG3837200001015011510005198001  17102012019BELO HORIZONTE      2411201200000000010036000CC                                                                                                                                                                                                                                                                                                                                                                                           201193-1      000019
1022421007720COBR_CAUC_BIC  JUMIL-JUSTINO DE MORAIS IRMAOS S/A      003752033000186INTER NEW MAQUINAS AGRICOLAS LTDA       AV DR ANTONIO ALVES PASSIG, 791         RIBEIRAO PRETO                          14092590SP383730000104418131125882E.01  15102012022RIBEIRAO PRETO      1211201200000000016000000CC                                                                                                                                                                                                                                                                                                                                                                                           201193-2      000020
1022421007720COBR_CAUC_BIC  JUMIL-JUSTINO DE MORAIS IRMAOS S/A      045236791003450COOPERCITRUS COOPERATIVA DE PRODUT      PRACA BARAO RIO BRANCO, 09              BEBEDOURO                               14700900SP383740000104418114126298E.01  17102012022RIBEIRAO PRETO      0111201200000000012300000CC                                                                                                                                                                                                                                                                                                                                                                                           201193-3      000021
9000020                                                                                                                                                                                                                                                                                                                                                                                                                                                                                                                                                                                                                                                                                                               000022
