0REMESSANOTIFICAÇÃO ELETRONICA        99999999999999Bicbanco S/A                            Avenida Paulista , 1048 12º andar                           BELA VISTA                    SÃO PAULO                     01310100SPBicbanco S/A                                                                    12032010                                                                                                                                                                                                                                                                                                                                                                                                000001
1046421002628COBR_CAUC_BIC  INTELBRAS S/A IND DE TELEC ELET BR      047960950010194MAGAZINE LUIZA S/A                      RUA: DO COMERCIO, 1924                  FRANCA                                  14400660SP208820000100672738DM01526001  29012010022RIBEIRAO PRETO      0204201000000000012200024CC                                                                                                                                                                                                                                                                                                                                                                                           88836-1       000002
1029141009096COBR_CAUC_BIC  CPS BRAZIL TOBACCO IMP E EXP LTDA       088124383000150BRASFUMO LTDA                           AV DAS INDUSTRIAS,130                   VENANCIO AIRES                          95800000RS20883000010917817032          09032010015PORTO ALEGRE        0904201000000000011937039TD                                                                                                                                                                                                                                                                                                                                                                                           88836-2       000003
1022421002370COBR_CAUC_COR  FRIGOESTRELA S.A.                       009535928000307SUPERMERCADO NUTRI SAM LTDA             RUA FIORAVANTE SICCHIERI80              SERTAOZINHO                             14170690SP2088400001019878430029385501  08032010900BRADESCO S/A        0704201000000000011055966CC                                                                                                                                                                                                                                                                                                                                                                                           88836-3       000004
1013141007379COBR_CAUC_COR  ISOREL LOCACAO E SERVICOS LTDA          000860705000189PRODUMAN ENGENHARIA LTDA                1 TV DO BALNEARIO,402 IMBASSAY          DIAS D´AVILA                            42850000BA20885000010396674701435       04032010900BRADESCO S/A        2604201000000000046741102TD                                                                                                                                                                                                                                                                                                                                                                                           88836-4       000005
9000004                                                                                                                                                                                                                                                                                                                                                                                                                                                                                                                                                                                                                                                                                                               000006
