0REMESSANOTIFICAÇÃO ELETRONICA        99999999999999Bicbanco S/A                            Avenida Paulista                        1048      12º andar BELA VISTA                    SÃO PAULO                     01310100SPBicbanco S/A                                                                    09112011                                                                                                                                                                                                                                                                                                                                                                                                000001
1046421001141COBR_CAUC_COR  COQUE SUL BRASILEIRO INDUSTRIA E C      084683374000300TUPY S.A./JLLE                          RUA ALBANO SCHMIDT, 3400                JOINVILLE                               89227901SC317800000101305399000004394   25102011800UNIBANCO S/A        2211201100000000004075500CC                                                                                                                                                                                                                                                                                                                                                                                           151163-1      000002
1046421001141COBR_CAUC_COR  COQUE SUL BRASILEIRO INDUSTRIA E C      084683374000300TUPY S.A./JLLE                          RUA ALBANO SCHMIDT, 3400                JOINVILLE                               89227901SC317800000201305402000004393   25102011800UNIBANCO S/A        2211201100000000004102176CC                                                                                                                                                                                                                                                                                                                                                                                           151163-2      000003
1046421001141COBR_CAUC_COR  COQUE SUL BRASILEIRO INDUSTRIA E C      084683374000300TUPY S.A./JLLE                          RUA ALBANO SCHMIDT, 3400                JOINVILLE                               89227901SC317800000301307618000004408   26102011800UNIBANCO S/A        2311201100000000004687566CC                                                                                                                                                                                                                                                                                                                                                                                           151163-3      000004
1046421001141COBR_CAUC_COR  COQUE SUL BRASILEIRO INDUSTRIA E C      084683374000300TUPY S.A./JLLE                          RUA ALBANO SCHMIDT, 3400                JOINVILLE                               89227901SC317800000401307626000004409   26102011800UNIBANCO S/A        2311201100000000004478604CC                                                                                                                                                                                                                                                                                                                                                                                           151163-4      000005
1046421001141COBR_CAUC_COR  COQUE SUL BRASILEIRO INDUSTRIA E C      084683374000300TUPY S.A./JLLE                          RUA ALBANO SCHMIDT, 3400                JOINVILLE                               89227901SC317800000501313731000004429   01112011800UNIBANCO S/A        2911201100000000004081428CC                                                                                                                                                                                                                                                                                                                                                                                           151163-5      000006
1046421001141COBR_CAUC_COR  COQUE SUL BRASILEIRO INDUSTRIA E C      084683374000300TUPY S.A./JLLE                          RUA ALBANO SCHMIDT, 3400                JOINVILLE                               89227901SC317800000601313740000004430   01112011800UNIBANCO S/A        2911201100000000004330404CC                                                                                                                                                                                                                                                                                                                                                                                           151163-6      000007
1046421001141COBR_CAUC_COR  COQUE SUL BRASILEIRO INDUSTRIA E C      084683374000300TUPY S.A./JLLE                          RUA ALBANO SCHMIDT, 3400                JOINVILLE                               89227901SC317800000701313758000004433   03112011800UNIBANCO S/A        0112201100000000004692012CC                                                                                                                                                                                                                                                                                                                                                                                           151163-7      000008
1046421001141COBR_CAUC_COR  COQUE SUL BRASILEIRO INDUSTRIA E C      084683374000300TUPY S.A./JLLE                          RUA ALBANO SCHMIDT, 3400                JOINVILLE                               89227901SC317800000801313766000004436   03112011800UNIBANCO S/A        0112201100000000004176276CC                                                                                                                                                                                                                                                                                                                                                                                           151163-8      000009
1046421001141COBR_CAUC_COR  COQUE SUL BRASILEIRO INDUSTRIA E C      084683374000300TUPY S.A./JLLE                          RUA ALBANO SCHMIDT, 3400                JOINVILLE                               89227901SC317800000901313774000004437   03112011800UNIBANCO S/A        0112201100000000004099212CC                                                                                                                                                                                                                                                                                                                                                                                           151163-9      000010
1007421054498DIR_CREDIT     LUMEN EMPREENDIMENTOS IMOBILIARIOS      067405936000173PEUGEOT CITROEN DO BRASIL AUTOMOVEIS LTDAV RENATO MONTEIRO, 6901 POLO URB AGRO. PORTO REAL                              27570000RJ3161900001                                                                                                                                          481055745           030520110000018655            14102011000404locação do imóvel pela Locadora à Locatária,em caráter atípico.                                                                                                                                                                                 012298333000128151163-10     000011
1021141012725COBR_CAUC_BIC  MABE BRASIL ELETRODOMESTICOS LTDA       010757237010723NOVA CASA BAHIA S/A                     RODOVIA ANHANGUERA 0, S/N KM52          13203850                                13203850SP3175700001062263680000034686  03112011007PAULISTA            2211201100000000010072961TD                                                                                                                                                                                                                                                                                                                                                                                           151163-11     000012
1021141012725COBR_CAUC_BIC  MABE BRASIL ELETRODOMESTICOS LTDA       010757237010723NOVA CASA BAHIA S/A                     RODOVIA ANHANGUERA 0, S/N KM52          13203850                                13203850SP3175700002062263760000034668  03112011007PAULISTA            2211201100000000010311369TD                                                                                                                                                                                                                                                                                                                                                                                           151163-12     000013
1021141012725COBR_CAUC_BIC  MABE BRASIL ELETRODOMESTICOS LTDA       010757237010723NOVA CASA BAHIA S/A                     RODOVIA ANHANGUERA 0, S/N KM52          13203850                                13203850SP3175700003062263840000034696  03112011007PAULISTA            2211201100000000010311369TD                                                                                                                                                                                                                                                                                                                                                                                           151163-13     000014
1021141012725COBR_CAUC_BIC  MABE BRASIL ELETRODOMESTICOS LTDA       010757237010723NOVA CASA BAHIA S/A                     RODOVIA ANHANGUERA 0, S/N KM52          13203850                                13203850SP3175700004062264140000034701  03112011007PAULISTA            2211201100000000010504099TD                                                                                                                                                                                                                                                                                                                                                                                           151163-14     000015
1021141012725COBR_CAUC_BIC  MABE BRASIL ELETRODOMESTICOS LTDA       010757237010723NOVA CASA BAHIA S/A                     RODOVIA ANHANGUERA 0, S/N KM52          13203850                                13203850SP3175700005062264220000034788  04112011007PAULISTA            2211201100000000010582488TD                                                                                                                                                                                                                                                                                                                                                                                           151163-15     000016
1021141012725COBR_CAUC_BIC  MABE BRASIL ELETRODOMESTICOS LTDA       010757237010723NOVA CASA BAHIA S/A                     RODOVIA ANHANGUERA 0, S/N KM52          13203850                                13203850SP3175700006062263920000034660  03112011014PAULISTA            2211201100000000010337996TD                                                                                                                                                                                                                                                                                                                                                                                           151163-16     000017
1021141012725COBR_CAUC_BIC  MABE BRASIL ELETRODOMESTICOS LTDA       010757237010723NOVA CASA BAHIA S/A                     RODOVIA ANHANGUERA 0, S/N KM52          13203850                                13203850SP3175700007062264060000034698  03112011014PAULISTA            2211201100000000010337996TD                                                                                                                                                                                                                                                                                                                                                                                           151163-17     000018
1021141012725COBR_CAUC_BIC  MABE BRASIL ELETRODOMESTICOS LTDA       010757237010723NOVA CASA BAHIA S/A                     RODOVIA ANHANGUERA 0, S/N KM52          13203850                                13203850SP3175700008062264490000034730  03112011014PAULISTA            2211201100000000011139674TD                                                                                                                                                                                                                                                                                                                                                                                           151163-18     000019
1021141012725COBR_CAUC_BIC  MABE BRASIL ELETRODOMESTICOS LTDA       010757237010723NOVA CASA BAHIA S/A                     RODOVIA ANHANGUERA 0, S/N KM52          13203850                                13203850SP3175700009062264570000034787  04112011014PAULISTA            2211201100000000011416424TD                                                                                                                                                                                                                                                                                                                                                                                           151163-19     000020
1021141012725COBR_CAUC_BIC  MABE BRASIL ELETRODOMESTICOS LTDA       010757237010723NOVA CASA BAHIA S/A                     RODOVIA ANHANGUERA 0, S/N KM52          13203850                                13203850SP3175700010062264650000034828  04112011014PAULISTA            2211201100000000011416424TD                                                                                                                                                                                                                                                                                                                                                                                           151163-20     000021
1021141012725COBR_CAUC_BIC  MABE BRASIL ELETRODOMESTICOS LTDA       010757237010723NOVA CASA BAHIA S/A                     RODOVIA ANHANGUERA 0, S/N KM52          13203850                                13203850SP3175700011062264310000034661  03112011022PAULISTA            2211201100000000010670507TD                                                                                                                                                                                                                                                                                                                                                                                           151163-21     000022
1007421032516COBR_CAUC_BIC  NITRIFLEX SP IND E COM DE BORRACHAS     049327943000201DAY BRASIL S/A                          AV. MASRQUES DE SAO VICENTE, 1213       SAO PAULO                               01139901SP317580000100901571000761701   04112011007PAULISTA            1811201100000000018706275CC                                                                                                                                                                                                                                                                                                                                                                                           151163-22     000023
1044421010977COBR_CAUC_BIC  FEDCO INDUSTRIA E COMERCIO LTDA         006626253012400EMPREENDIMENTOS PAGUE MENOS S/A         R. FRANCISCO CORDEIRO                   FORTALEZA                               60310490CE317590000101368956015669/1.1  25102011003CENTRO              0203201200000000011872937CC                                                                                                                                                                                                                                                                                                                                                                                           151163-23     000024
1045421012005DIR_CREDIT     CONSTRUTORA CUNHA LTDA                  013031257000152CONSTRUTORA CELI LTDA                   AV: GENERAL CALAZANS, 862               ARACAJU                                 49000000SE3176900001                                                                                                                                          011646056           051020110000019981S/N         04112011000402Área de terreno próprio em forma de um polígono irregular, de propriedade da Construtora Cunha Ltda, localizada na EStrada Luzia e Rua Projetada nestaCapital.                                                                                  013170105000130151166-1      000025
1006420932150COBR_CAUC_BIC  FIOTEX INDUSTRIAL S/A                   041196791000154MONTE ALEGRE TEXTIL S/A                 RUA Y-2341                              JOAO PESSOA                             58082025PB3178100001087716900001261901  07112011043JOAO PESSOA         1702201200000000010426637CC                                                                                                                                                                                                                                                                                                                                                                                           151166-2      000026
1006420932150COBR_CAUC_COR  FIOTEX INDUSTRIAL S/A                   054514294000875OLIVEIRA & LOPES LTDA                   AV. MARIA APARECIDA SIRIA1000           IBITINGA                                14940000SP3178200001087718430001258001  03112011800UNIBANCO S/A        0112201100000000011401629CC                                                                                                                                                                                                                                                                                                                                                                                           151166-3      000027
1046421000617COBR_CAUC_BIC  INPLAC INDUSTRIA DE PLASTICOS S/A       004716366000112EMBALAGENS FLEXIVEIS DIADEMA SA         AV FUNDIBEM ,184                        DIADEMA                                 09961390SP317830000101316137001167323   04112011038ABC                 0912201100000000010083360CC                                                                                                                                                                                                                                                                                                                                                                                           151166-4      000028
1007421006183COBR_CAUC_BIC  NITRIFLEX S/A IND E COMERCIO            015179682002243RHODIA POLIAMIDA E ESPECIALIDADES       AV.DOS ESTADOS, 6144                    SANTO ANDRE                             09290520SP317840000100904600001221401   07112011038ABC                 0901201200000000014779709CC                                                                                                                                                                                                                                                                                                                                                                                           151166-5      000029
1031420932046COBR_CAUC_BIC  PALMALI INDL.DE ALIMENTOS LTDA          074101569000341AGRICOLA JANDELLE S/A.                  AV ITAMARATY                            ROLANDIA                                86600000PR317850000104945369NE 0336821  21102011031LONDRINA            1612201100000000036797330CC                                                                                                                                                                                                                                                                                                                                                                                           151166-6      000030
1031420932046COBR_CAUC_BIC  PALMALI INDL.DE ALIMENTOS LTDA          074101569000341AGRICOLA JANDELLE S/A.                  AV ITAMARATY                            ROLANDIA                                86600000PR317850000204945377NE 0337091  26102011031LONDRINA            0301201200000000031788245CC                                                                                                                                                                                                                                                                                                                                                                                           151166-7      000031
1031420932046COBR_CAUC_BIC  PALMALI INDL.DE ALIMENTOS LTDA          074101569000341AGRICOLA JANDELLE S/A.                  AV ITAMARATY                            ROLANDIA                                86600000PR317850000304945385NE 0337491  03112011031LONDRINA            1001201200000000033521284CC                                                                                                                                                                                                                                                                                                                                                                                           151166-8      000032
1031420932046COBR_CAUC_BIC  PALMALI INDL.DE ALIMENTOS LTDA          074101569000341AGRICOLA JANDELLE S/A.                  AV ITAMARATY                            ROLANDIA                                86600000PR317850000404945393NE 0337492  03112011031LONDRINA            1301201200000000033521284CC                                                                                                                                                                                                                                                                                                                                                                                           151166-9      000033
1050421000089COBR_CAUC_BIC  ATIVO ALIMENTOS LTDA                    007172011000106M P F NOVA UNIAO ALIMENTOS LTDA         R BRASILEIRA 85                         GUARULHOS                               07043010SP317860000100292281112893/1    04112011037GUARULHOS           1211201100000000014838131CC                                                                                                                                                                                                                                                                                                                                                                                           151166-10     000034
1048421000354COBR_CAUC_COR  FRIGOL S.A. EM RECUPERACAO JUDICIAL     010452689000149ALIANCA COM E DIST CARNES E DERI L      RUA MARIA GONZAGA 19                    SAO JOAO DE MER                         25535420RJ3178700001002735968532        07112011900BRADESCO S/A        1411201100000000017974590CC                                                                                                                                                                                                                                                                                                                                                                                           151166-11     000035
1046421001443COBR_CAUC_COR  COSTAO DO SANTINHO TUR E LAZER LTDA     088212113001092COMERCIO DE MEDICAMENTOS BRAIR LTD      AV BRASIL LESTE,1190                    PASSO FUNDO                             99010050RS317880000100004549118281      03112011900BRADESCO S/A        1711201100000000021655422CC                                                                                                                                                                                                                                                                                                                                                                                           151166-12     000036
1037421007698COBR_CAUC_BIC  HOSP - LOG COM DE PROD HOSP LTDA        005303775000150CLIN.SANTA BARBARA S/S LTDA             RUA COMENDADOR MIGUEL CALFAT,217        SAO PAULO                               04537080SP3178900001045185810138818 01  01112011007PAULISTA            3011201100000000010369060CC                                                                                                                                                                                                                                                                                                                                                                                           151166-13     000037
1019421012014COBR_CAUC_BIC  MINAS COBRA RECEBIMENTOS E COBRANCA     053606869000221BRASCOPPER CBC BRASILEIRA DE CONDU      RUAURUGUAI, 2050                        RIBEIRAO PRETO                          14075330SP31790000010616993329961-2     07112011022RIBEIRAO PRETO      2212201100000000016978703CC                                                                                                                                                                                                                                                                                                                                                                                           151166-14     000038
1007141046533COBR_CAUC_BIC  HNR EVAPORADORES IMPORT.EXPORT LTDA     060736279001927MABE BRASIL ELETRODOMESTICO LTDA        ROD ITU/SOROCABA-SP S/NºKM54,3          ITU                                     13308909SP3179100001009043245977        07112011007PAULISTA            1012201100000000038448343TD                                                                                                                                                                                                                                                                                                                                                                                           151166-15     000039
1007141046533COBR_CAUC_BIC  HNR EVAPORADORES IMPORT.EXPORT LTDA     060736279001927MABE BRASIL ELETRODOMESTICO LTDA        ROD ITU/SOROCABA-SP S/NºKM54,3          ITU                                     13308909SP3179100002009043325978        07112011007PAULISTA            1812201100000000034504255TD                                                                                                                                                                                                                                                                                                                                                                                           151166-16     000040
1007141046533COBR_CAUC_BIC  HNR EVAPORADORES IMPORT.EXPORT LTDA     060736279001927MABE BRASIL ELETRODOMESTICO LTDA        ROD ITU/SOROCABA-SP S/NºKM54,3          ITU                                     13308909SP3179100003009043415982        07112011007PAULISTA            2512201100000000046719617TD                                                                                                                                                                                                                                                                                                                                                                                           151166-17     000041
1007141046533COBR_CAUC_BIC  HNR EVAPORADORES IMPORT.EXPORT LTDA     060736279001927MABE BRASIL ELETRODOMESTICO LTDA        ROD ITU/SOROCABA-SP S/NºKM54,3          ITU                                     13308909SP3179100004009043595979        07112011007PAULISTA            3112201100000000047538445TD                                                                                                                                                                                                                                                                                                                                                                                           151166-18     000042
1007141046533COBR_CAUC_BIC  HNR EVAPORADORES IMPORT.EXPORT LTDA     060736279001927MABE BRASIL ELETRODOMESTICO LTDA        ROD ITU/SOROCABA-SP S/NºKM54,3          ITU                                     13308909SP3179100005009043675980        07112011007PAULISTA            0801201200000000027398768TD                                                                                                                                                                                                                                                                                                                                                                                           151166-19     000043
1017421002802DIR_CREDIT     LAGINHA AGRO INDUSTRIAL S/A             005805008000220VERTICAL UK DO BRASIL EXP E IMP LTDA    RUA DO SEMINARIO, 199 - 5 ANDAR CJ 52 A SAO PAULO                               01034904SP3179400001                                                                                                                                          010628522           160720090000013872B5047       29072011000430compra e venda de alcool hidratado padrao korea ou hidratado padrao anp- sdr referia-se a antiga consolidação (9504 e 11753), atualmente refere-se exclusivamente ao sdr 9504 - contrato nr b5047.                                              012274379000107151166-20     000044
1013421018168DIR_CREDIT     LEMOSPASSOS AL E TERC SERV ADM LTDA     009193748000122SYENE EMPREEND IMOBILIÁRIO SPE LTDA     AV. TANCREDO NEVES NR 1543 SALA 1002    SALVADOR                                40280021BA3180000001                                                                                                                                          481023447           301120100000017232SYENE RÓTULA07112011000404Fornecimento de refeições, desjejum produção e administração, almoço produção e administração Jantar produção e lanche reforçado.                                                                                                               013530225000100151166-21     000045
1007421000045DIR_CREDIT     GRANCARGA TRANSP. E GUINDASTES S/A.     001027335000166WOBBEN WINDPOWER IND E COM LTDA         AV FERNANDO STECCA, 100                 SOROCABA                                18087149SP3180200001                                                                                                                                          481056539           010320110000018413            07112011000404Locação de guindastes e cessão de mão de obra para execução de serviçosem 45 aerogeradores nos Parques Eólicos Chato I, II e III e transporte de 45 geradores/wec´s entre Sorocaba/Porto de Rio Grande e Santana de Livramento/Rs.              051556223000170151166-22     000046
1019421009536DIR_CREDIT     JORASA EMPREENDIMENTOS LTDA             077221786000100IND E COM EXTRACAO DE AREIA KHOURI LT   AV ALMIRANTE BARROSO, 52 CENTRO         RIO DE JANEIRO                          20031000RJ3181100001                                                                                                                                          011647744           011220080000011871S/N         07112011000403SERVIÇOS GERAIS INDUSTRIAIS, MOVIMENTAÇAO INTERNA DE GRANEIS, SERVIÇOS DE EQUIPAMENTOS , SERVIÇOS DE LAVRA, CARREGAMENTO E BRITAGEM DE ARGILA,ENSACAMENTO , CARREGAMENTO E CONFERÊNCIA DO CARREGAMENTO DE CIMENTO.                              021676960000227151166-23     000047
1018421020787DIR_CREDIT     LAXTRA CONSTRUTORA LTDA ME              002503756000189DERTINS - DEPTO EST ROD EST TOCANTINS   ROD TP 010 - KM 01 LOTE 11 SETOR LESTE  PALMAS                                  77020970TO3181700001                                                                                                                                          011468134           270420100000018763012/2010    16062011000403SERVICOS E OBRAS DE MELHORAMENTOS EM RODOVIAS VICINAIS, INTEGRANTES DO PDRS NO MUNICIPIO DE GOIATINS, NUMA EXTENSAO DE 106,68KM. REFERENTE AO CONTRATO012/2010.                                                                                 038140877000150151166-24     000048
9000047                                                                                                                                                                                                                                                                                                                                                                                                                                                                                                                                                                                                                                                                                                               000049
