0REMESSANOTIFICAÇÃO ELETRONICA        99999999999999Bicbanco S/A                            Avenida Brigadeiro Faria Lima           4.440     2º andar  Itaim Bibi                    São Paulo                     04538132SPBicbanco S/A                                                                    16072012                                                                                                                                                                                                                                                                                                                                                                                                000001
1048421002608DIR_CREDIT     NUTRI HOSPITALAR ALIM. E SERV. LTDA     029178233000160PREFEITURA DO MUNICIPIO DE REZENDE E.R.JRUA AUGUSTO XAVIER DE LIMA, 251         RESENDE                                 27510090RJ3627100001                                                                                                                                          011885416           010220110000021341C.A.N 18/20102072012000403Prestação de serviços de nutrição e dietética em atendimento a Fundaçãohospitalar de Resende, compreendendo preparo, fornecimento e distribuição de refeições e dietas.                                                                         010218086000187183557-1      000002
1007421053971COBR_CAUC_BIC  VIDA ALIMENTOS LTDA                     011457034000126GOOD MEAL COM E TRANSP DE PROD ALI      RUA ARARIPE, 206                        SAO PAULO                               03215010SP3629500001013261030004691201  03072012007PAULISTA            2007201200000000015009300CC                                                                                                                                                                                                                                                                                                                                                                                           183557-2      000003
1013421025334DIR_CREDIT     CACIQUE SERV TRANSP E TURISMO LTDA      007358761000592GERDAU AÇOS LONGOS S.A.                 RODOVIA BR 324,S/N-KM 16                SIMõES FILHO                            43700000BA3630100001                                                                                                                                          481025520           010320110000021002291-2011    04072012000404Prestação de serviços de fretamento para transporte de funcionários da contratante.                                                                                                                                                             002529577000110183557-3      000004
1015421021565DIR_CREDIT     UPRESS LOGISTICA EM TRANSP LTDA         092337732000190TRANSPORTES RODOVIÁRIOS LETSARA LTDA    ROD FEDERAL BR 285, KM 461              IJUÍ                                    98700000RS3630200001                                                                                                                                          011866009           290320120000021560CONTRATOS 0404072012000403prestação de serviços de cargas                                                                                                                                                                                                                 007032746000126183557-4      000005
1013421015746DIR_CREDIT     ZJ MINERACAO E TERRAPLANAGEM LTDA       005673658000269MINERACAO FAZENDA BRASILEIRO S/A        R ITALO ANTONIO DE JESUS ALMEIDA,20     SANTA LUZ                               48880000BA3631300001                                                                                                                                          011843839           021120110000021384MFB-C1-CON.218052012000403Prestação de serviços de movimentação de material - lavra industrial,incluindo fornecimedno de equipamentos, materiais insumos, mão de obra e consu-míveis(exceto diesel)necessários à execução da lavra nas cavas da Mina C1.                  009029442000135183557-5      000006
1021420930887COBR_CAUC_BIC  DEDINI S/A INDUSTRIAS DE BASE           005235484000171BRASTEC TECHNOLOGIES LTDA               R ANTONIO OVIDIO RODRIGUES P I JUNDIAI IJUNDIAI                                 13213180SP36322000010634261937279-1-1   04072012007PAULISTA            2007201200000000029795000CC                                                                                                                                                                                                                                                                                                                                                                                           183558-1      000007
1048421001938COBR_CAUC_COR  SERVIMED COMERCIAL LTDA                 079430682003067FARM E DROG NISSEI LTDA                 R DESEMBAGADOR WESTEPHALEN 3448         CURITIBA                                80220031PR36323000010016185296663415    04072012900BRADESCO S/A        0309201200000000010274740CC                                                                                                                                                                                                                                                                                                                                                                                           183558-2      000008
1016421019267COBR_CAUC_COR  COBRAZEM AGROINDUSTRIAL LTDA            004463344000198COOPERATIVA AGROINDUSTRIAL AGUAS F      AVENIDA ANITA BOARO,,502                AGUAS FRIAS                             89843000SC3632400001034806130007899-1   29062012800UNIBANCO S/A        0808201200000000052500000CC                                                                                                                                                                                                                                                                                                                                                                                           183558-3      000009
1022421007495COBR_CAUC_BIC  TECUMSEH DO BRASIL LTDA                 004821041000108METALFRIO SOLUTIONS SA                  AV ABRAHAO GONCALVESBRAGA,412           SAO PAULO                               04186220SP36325000010435047153901/1     05072012007PAULISTA            0310201200000000012944736CC                                                                                                                                                                                                                                                                                                                                                                                           183558-4      000010
1019421011492COBR_CAUC_BIC  SECULUS DA AMAZONIA IND. E COM. S/A     010464223000597PRIVALIA SERVICOS DE INFORMACAO LT      R PROF ALCEU MAYNARD DE ARAUJO, 689     SAO PAULO                               04726160SP3632600001065015040002415 02  28062012007PAULISTA            2708201200000000010606379CC                                                                                                                                                                                                                                                                                                                                                                                           183558-5      000011
1019421011492COBR_CAUC_BIC  SECULUS DA AMAZONIA IND. E COM. S/A     010464223000597PRIVALIA SERVICOS DE INFORMACAO LT      R PROF ALCEU MAYNARD DE ARAUJO, 689     SAO PAULO                               04726160SP3632600002065015120002415 03  28062012007PAULISTA            2609201200000000010609562CC                                                                                                                                                                                                                                                                                                                                                                                           183558-6      000012
1007421034080COBR_CAUC_BIC  SIDMEX INTERNACIONAL LTDA               012974810000128MOORIM DO BRASIL IMPORTACAO E EXPO      SENADOR CASEMIRO DA ROCHA,50            SAO PAULO                               04047000SP363270000101326740464.12      05072012007PAULISTA            1807201200000000011293583CC                                                                                                                                                                                                                                                                                                                                                                                           183558-7      000013
1038421019856COBR_CAUC_BIC  KELPEN OIL BRASIL LTDA                  047446133000150QUIMATEC PRODUTOS QUIMICOS LTDA         RODOVIA WASHINGTON LUIZ ,0              ARARAQUARA                              14800670SP36328000010972326601409701    04072012022RIBEIRAO PRETO      1807201200000000011767599CC                                                                                                                                                                                                                                                                                                                                                                                           183558-8      000014
1038421019856COBR_CAUC_BIC  KELPEN OIL BRASIL LTDA                  047446133000150QUIMATEC PRODUTOS QUIMICOS LTDA         RODOVIA WASHINGTON LUIZ ,0              ARARAQUARA                              14800670SP36328000020972327401409901    04072012022RIBEIRAO PRETO      1807201200000000011846199CC                                                                                                                                                                                                                                                                                                                                                                                           183558-9      000015
1019421004658COBR_CAUC_COR  S/A ESTADO DE MINAS                     006216994000164NO DE ROSA PRODUCOES LTDA               ALAGOAS 1460 SALA 307 BR                BELO HORIZONTE                          30130160MG3634100001011530611217166-1   06072012900BRADESCO S/A        3007201200000000014000000CC                                                                                                                                                                                                                                                                                                                                                                                           183559-1      000016
1019421004658COBR_CAUC_COR  S/A ESTADO DE MINAS                     017212069000181FEDERACAO DAS INDUSTRIAS DO ESTADO      CONTORNO 4456                           BELO HORIZONTE                          30110028MG3634200001011524981214541-1   30062012900BRADESCO S/A        1307201200000000040000000CC                                                                                                                                                                                                                                                                                                                                                                                           183559-2      000017
1016421001333COBR_CAUC_BIC  CONDUSPAR CONDUTORES ELETRICOS LTDA     017155342000345LOJA ELETRICA LTDA                      AV. SANTOS DUMONT, 402                  BELO HORIZONTE                          30111040MG363430000103480869251718      29062012019BELO HORIZONTE      3007201200000000012206066CC                                                                                                                                                                                                                                                                                                                                                                                           183559-3      000018
1016421001333COBR_CAUC_BIC  CONDUSPAR CONDUTORES ELETRICOS LTDA     017155342000345LOJA ELETRICA LTDA                      AV. SANTOS DUMONT, 402                  BELO HORIZONTE                          30111040MG363430000203480877251718      29062012019BELO HORIZONTE      1308201200000000012206067CC                                                                                                                                                                                                                                                                                                                                                                                           183559-4      000019
1016421019267COBR_CAUC_COR  COBRAZEM AGROINDUSTRIAL LTDA            004463344000198COOPERATIVA AGROINDUSTRIAL AGUAS F      AVENIDA ANITA BOARO,,502                AGUAS FRIAS                             89843000SC3634400001034813260007899-01  29062012800UNIBANCO S/A        0808201200000000052500000CC                                                                                                                                                                                                                                                                                                                                                                                           183559-5      000020
1038421020013COBR_CAUC_BIC  PROBANCO FOMENTO MERCANTIL LTDA         014751800000230INTERAGRO OLEOS E FARELOS LTDA          AV BRAZ OLAIA ACOSTA 727                RIBEIRAO PRETO                          14026040SP363450000109728764799         26032012022RIBEIRAO PRETO      2508201200000000010500000CC                                                                                                                                                                                                                                                                                                                                                                                           183559-6      000021
1044141017580COBR_CAUC_BIC  TELEVISAO NOVOS TEMPOS LTDA             056998982000107BRISTOL MYERS SQUIBB FARMACEUTICA       RUA LEOPOLDO COUTO MAG. JR,758          SAO PAULO                               04542000SP3634600001013927256598/1206   30062012007PAULISTA            2307201200000000013600000TD                                                                                                                                                                                                                                                                                                                                                                                           183559-7      000022
1018440972658COBR_CAUC_COR  IND E COM DE BEBIDAS IMPERIAL S/A       010385998000143SAMPAIO & MORAES LTDA                   ROD BR 136, KM 25                       BENEVIDES                               68795000PA363590000101885077702690-6/1  06072012900BRADESCO S/A        2007201200000000010487834CC                                                                                                                                                                                                                                                                                                                                                                                           183562-1      000023
1018440972658COBR_CAUC_COR  IND E COM DE BEBIDAS IMPERIAL S/A       010385998000143SAMPAIO & MORAES LTDA                   ROD BR 136, KM 25                       BENEVIDES                               68795000PA363590000201885085702690-6/2  06072012900BRADESCO S/A        3007201200000000010487835CC                                                                                                                                                                                                                                                                                                                                                                                           183562-2      000024
1018440972658COBR_CAUC_COR  IND E COM DE BEBIDAS IMPERIAL S/A       010385998000143SAMPAIO & MORAES LTDA                   ROD BR 136, KM 25                       BENEVIDES                               68795000PA363590000301885093702690-6/3  06072012900BRADESCO S/A        0908201200000000010490981CC                                                                                                                                                                                                                                                                                                                                                                                           183562-3      000025
1019421014068COBR_CAUC_COR  RIO BRANCO ALIMENTOS S/A                004641376007300SUPERMERCADOS BH COMERCIO DE            AV GERALDO ROCHA 700                    CONTAGEM                                32183054MG3636000001000470970003872701  07072012900BRADESCO S/A        0408201200000000016894692CC                                                                                                                                                                                                                                                                                                                                                                                           183562-4      000026
1019421010259COBR_CAUC_BIC  L & S INTERBANK FOMENTO LTDA            013466028000160DIRECIONAL PALMEIRA EMP. IMOBILIAR      RUA GRAO PARA - 466 -                   BELO HORIZONTE                          30150340MG3636100001065035310140        05072012019BELO HORIZONTE      0608201200000000010753130CC                                                                                                                                                                                                                                                                                                                                                                                           183562-5      000027
1036421013762DIR_CREDIT     SERTANEJO ALIMENTOS S/A                 001937635000263SONDA SUPERMERCADOS EXP. E IMP. LTDA.   AV. BENJAMIM PEREIRA, 265               SÃO PAULO                               02274000SP3636200001                                                                                                                                          112397700           181220080000010386            27052011000431INCREMENTAR A RELAÇÃO DE PARCERIA ENTRE ARANTES ALIMENTOS LTDA E SONDA SUPERMERCADOS EXP. E IMP. LTDA.                                                                                                                                          004113497000105183562-6      000028
1014421020986DIR_CREDIT     EISA ESTALEIRO ILHA SA                  042278291000124LOG-IN LOGISTICA INTERMODAL S/A         PRAIA DE BOTAFOGO, 501/703-BOTAFOGO     RIO DE JANEIRO                          22250908RJ3639700001                                                                                                                                          011801865           130720090000015902S/Nº        29032012000403Construir,lançar,equipar,montar,testar e entregar 02 navios graneleiros de 80.100 tpb para transporte de bauxita, feitos de aço.( casco EI 510 e 509)                                                                                           000261304000102183562-7      000029
1013421019571DIR_CREDIT     JPNOR ENGENHARIA LTDA                   042150391000170BRASKEM S/A                             RUA ETENO,1561-POLO PETROQUIMICO        CAMAçARI                                42800000BA3640900001                                                                                                                                          481025563           10022010000001798510108/2009  09072012000404Elaboração de projetos conceituais, de engenharia básica, de detalhamento de projeto, de automação, estudos técnicos e estudos de viabilidade.                                                                                                  001531864000100183562-8      000030
1045421011645DIR_CREDIT     JOSE ANGELO DE OLIVEIRA ME              015134695000171VALE POTASSIO NORDESTE S/A              EST SE 206, KM 0CAMPO SANTA BARBARA     ROSARIO DO CATETE                       49760000SE3641900001                                                                                                                                          481012842           1504201100000192427282        09072012000404Prestação de serviços de içamento de cargas a serem executados nas instalações da Vale Potássio Nordeste no Município Rosário do Catete, SE.                                                                                                    001998800000106183562-9      000031
1016421011240DIR_CREDIT     VALE DO TIBAGI SERVICOS FLORESTAIS      005265768000291BRASLUMBER INDUSTRIAS DE MOLDURAS LTDA  RODOVIA DO PAPEL PR 160 KM 19           TELEMACO BORBA                          84262390PR3642000001                                                                                                                                          001081625           010820090000011358SN          26022010003302Prestação de serviços de abastecimento dos secadores.                                                                                                                                                                                           003476643000102183562-10     000032
1032420932087COBR_CAUC_COR  TEXTIL RENAUXVIEW S/A                   084229889000173BRANDILI TEXTIL LTDA                    R QUINTINO BOCAIUVACXP 19 29            APIUNA                                  89135000SC36446000010078842362670/A     09072012900BRADESCO S/A        0110201200000000010495642CC                                                                                                                                                                                                                                                                                                                                                                                           183567-1      000033
9000032                                                                                                                                                                                                                                                                                                                                                                                                                                                                                                                                                                                                                                                                                                               000034
