0REMESSANOTIFICA«√O ELETRONICA        99999999999999Bicbanco S/A                            Avenida Brigadeiro Faria Lima           4.440     2∫ andar  Itaim Bibi                    S„o Paulo                     04538132SPBicbanco S/A                                                                    23042014                                                                                                                                                                                                                                                                                                                                                                                                000001
1007421072259COBR_CAUC_COR  BOMBRIL S/A                             008899849000401SPACE MINAS DISTRIBUIDORA LTDA          R JOAQUIM JOSE 1165                     CONTAGEM                                32013390MG4718400001028349600927733001  31032014900BRADESCO S/A        0505201400000000010009808CC                                                                                                                                                                                                                                                                                                                                                                                           296803-1      000002
1007421072259COBR_CAUC_COR  BOMBRIL S/A                             013495487000172DESTRO BRASIL DISTRIBUICAO LTDA         AV ANDRE COSTA 2002                     JUNDIAI                                 13214730SP4718500001028349010057175001  31032014900BRADESCO S/A        0505201400000000010184790CC                                                                                                                                                                                                                                                                                                                                                                                           296803-2      000003
1031421007010COBR_CAUC_COR  PLANT BEM FERTILIZANTES S.A.            078956968000183COCARI - COOPERATIVA AGROPECUARIA       RUA LORD LOVAT, ,420                    MANDAGUARI                              86975000PR47186000010538398411270/01    15042014900BRADESCO S/A        0205201400000000023460000CC                                                                                                                                                                                                                                                                                                                                                                                           296803-3      000004
1007421065309COBR_CAUC_BIC  OCEANO IND.GRAFICA E EDITORA LTDA       008926473000126SC DROGARIA LTDA                        AV. DR. EPITACIO PESSOA - DE 3,372      SANTOS                                  11030600SP4718700001028319101567        11042014023SANTOS              1005201400000000010617516CC                                                                                                                                                                                                                                                                                                                                                                                           296803-4      000005
1018421005230COBR_CAUC_COR  CENTROALCOOL S/A                        002431337000260PETROBALL DIST DE PETROLEO LTDA         AV.NITEROI C/COPAC QD.4 LTR1/1          SENADOR CANEDO                          75250000GO47188000010367239955204/AB    25102013900BRADESCO S/A        1605201400000000023500020CC                                                                                                                                                                                                                                                                                                                                                                                           296803-5      000006
1021421017050COBR_CAUC_COR  STAR DISTR PROD FARMACEUTICOS LTDA      011830455000150RCX - COMERCIO DE MEDICAMENTOS LTD      RUA PEDRO BORGESN 218                   FORTALEZA                               60055110CE4718900001000000820000001601  11042014900BRADESCO S/A        1105201400000000010440000CC                                                                                                                                                                                                                                                                                                                                                                                           296803-6      000007
1021421017050COBR_CAUC_COR  STAR DISTR PROD FARMACEUTICOS LTDA      061585865073701RAIA DROGASIL S/A                       RUA PATAXOS , 1412                      EMBU                                    06833073SP4719000001000001120000313301  14042014900BRADESCO S/A        0505201400000000021481356CC                                                                                                                                                                                                                                                                                                                                                                                           296803-7      000008
1003421010775COBR_CAUC_COR  NUFARM IND QUIM FARMACEUTICA S/A        024444317000185PLANTEBEM COM E TEC DE PROD AGRIC       AVENIDA CORONEL CLEMENTINO COELHO, 1542 PETROLINA                               56308210PE472040000104381457 004262401  27022014600HSBC BANK BRASIL    0105201400000000011133300CC                                                                                                                                                                                                                                                                                                                                                                                           296804-1      000009
1048421000338COBR_CAUC_COR  FRIGOESTRELA S.A. EM RECUP JUDICIAL     004004586000113ABRAHAO CANDIDO DA SILVA                AVENIDA DESEMBARGADOR TAVORA, 35        CRUZEIRO DO SUL                         69980000AC4720500001079705270110638301  15042014900BRADESCO S/A        1305201400000000014006759CC                                                                                                                                                                                                                                                                                                                                                                                           296804-2      000010
1042141005640COBR_CAUC_BIC  TAC TRANSPORTE E CONSTRUCOES LTDA       007638249000176G SABOYA VIEIRA                         ESTRADA DE RIBAMAR, 01-A KM 02          S„O JOSE DE RIB                         65110000MA472060000103942310652/2014    10042014042SAO LUIS            2006201400000000023000000TD                                                                                                                                                                                                                                                                                                                                                                                           296804-3      000011
1021421015236COBR_CAUC_BIC  AGRARIA INDUSTRIA E COMERCIO LTDA       006228648000104FORT GREEN COMERCIAL AGRICOLA LTDA      AVBRASIL,7351                           MARINGA                                 87050000PR4720700001065541870000023319  15042014016CURITIBA            1305201400000000021329000CC                                                                                                                                                                                                                                                                                                                                                                                           296804-4      000012
1007421055095COBR_CAUC_COR  PLASTER IND COM RESINAS PLAS EIRELI     059104513000195AUTOMETAL S/A                           AV FAGUNDES DE OLIVEIRA,1650            DIADEMA                                 09950300SP472080000100019720040467/A    31032014900BRADESCO S/A        2005201400000000010920000CC                                                                                                                                                                                                                                                                                                                                                                                           296804-5      000013
1048421000338COBR_CAUC_COR  FRIGOESTRELA S.A. EM RECUP JUDICIAL     050947761001871IRMAOS RUSSI LTDA                       RUA LUIS ALLI FARDYN SALA 03, 590       CAJAMAR                                 07750000SP4722900001079765330034787001  16042014900BRADESCO S/A        1705201400000000010578051CC                                                                                                                                                                                                                                                                                                                                                                                           296805-1      000014
1048421003043COBR_CAUC_COR  FRIGOL S.A. EM RECUPERACAO JUDICIAL     000885125000308CAVALCANTE COM E REP DE ALIMENTOS       DIONISIO ALENCAR FILHO.272              FORTALEZA                               60840055CE4723000001000719770000000632  17042014900BRADESCO S/A        2305201400000000012960000CC                                                                                                                                                                                                                                                                                                                                                                                           296805-2      000015
9000014                                                                                                                                                                                                                                                                                                                                                                                                                                                                                                                                                                                                                                                                                                               000016
