0REMESSANOTIFICAÇÃO ELETRONICA        99999999999999Bicbanco S/A                            Avenida Paulista , 1048 12º andar                           BELA VISTA                    SÃO PAULO                     01310100SPBicbanco S/A                                                                    24062010                                                                                                                                                                                                                                                                                                                                                                                                000001
1028421002921COBR_CAUC_COR  FRIGORIFICO MATABOI S/A                 007918552000122CHARQUEADA FRISUL LTDA.                 R TREZE DE MAIO                         OURO FINO                               37570000MG2284600001001573980001905401  17062010900BRADESCO S/A        1707201000000000011017275CC                                                                                                                                                                                                                                                                                                                                                                                           103964-1      000002
1028421002921COBR_CAUC_COR  FRIGORIFICO MATABOI S/A                 076189406000126CONDOR SUPER CENTER LTDA                R. NICOLA PELANDA250                    CURITIBA                                81880000PR2284700001001573800003325901  21062010900BRADESCO S/A        2407201000000000021259652CC                                                                                                                                                                                                                                                                                                                                                                                           103964-2      000003
1024420934410COBR_CAUC_BIC  INTERCOOP INT SUIN MED NORTE MT LTD     001928075002062DMA DISTRIBUIDORA SA                    RODOVIA BR 040, 180 KM 531,180          BELO HORIZONTE                          30855500MG22848000010180590240738       11062010019BELO HORIZONTE      1207201000000000011117552CC                                                                                                                                                                                                                                                                                                                                                                                           103964-3      000004
1024420934410COBR_CAUC_BIC  INTERCOOP INT SUIN MED NORTE MT LTD     010578244000100GP INDUSTRIA SERVICOS E COMERCIO D      RUA MANOEL DUARTE ,167                  SAO GONCALO                             24430500RJ22849000010180585641153       18062010014RIO DE JANEIRO      1607201000000000010750725CC                                                                                                                                                                                                                                                                                                                                                                                           103964-4      000005
1024420934410COBR_CAUC_BIC  INTERCOOP INT SUIN MED NORTE MT LTD     061270393000148FRIGORIFICO MARBA LTDA                  AV CEZAR MAGNANI 971,971                SAO BERNARDO                            09694000SP22850000010180588140632       10062010038ABC                 1207201000000000012957754CC                                                                                                                                                                                                                                                                                                                                                                                           103964-5      000006
1016141008940COBR_CAUC_COR  COOPERATIVA RIO DO PEIXE                083310441000117AURORA S/A                              RUA JOAO MARTINS,219                    CHAPECO                                 89803901SC228510000102792204528446      11062010900BRADESCO S/A        1607201000000000020380800TD                                                                                                                                                                                                                                                                                                                                                                                           103964-6      000007
1046421003861COBR_CAUC_BIC  METALURGICA DS LTDA                     061077327000156SKF DO BRASIL LTDA                      ROD.ANHANGUERA,KM 30                    CAJAMAR                                 07770000SP2285200001007497817076-2/1    17062010007PAULISTA            2107201000000000011618650CC                                                                                                                                                                                                                                                                                                                                                                                           103964-7      000008
1044421011043DIR_CREDIT     ECOCIL-EMPRESA DE CONSTRUCOES CIVIS     009528053000154SPE ECOCIL - SOLAR JOAO E MARILDA       RUA CHILE, 152                          NATAL                                   59000000RN2286800001                                                                                                                                          011014070           1011200900000110260001        21062010000403CONSTRUÇÃO DO CONJUNTO DE EDIFICAÇÕES DENOMINADAS SOLAR JOAO E MARILDA.                                                                                                                                                                         008326548000138103964-8      000009
1044421011043DIR_CREDIT     ECOCIL-EMPRESA DE CONSTRUCOES CIVIS     009142310000115ECOCIL - INCORPORAçõES SPAZZIO SENNA    RUA CHILE,152                           NATAL                                   59000000RN2286900001                                                                                                                                          011014070           100920090000011028001         21062010000403construção do conjunto de edificações denominado spazio senna.                                                                                                                                                                                  008326548000138103964-9      000010
1013421017560DIR_CREDIT     LOCTEX EQUIPAMENTOS SA                  008112678000178RENCO EQUIPAMENTOS S/A                  ESTRADA DO CÔCO                         CAMAÇARI                                42840000BA2287500001                                                                                                                                          011014190           0204201000000136380001/2010   21062010000403INCORPORAÇÃO DE EQUIPAMENTOS SEM OPERADOR PARA SUBLOCAÇÃO.                                                                                                                                                                                      008853005000179103964-10     000011
9000010                                                                                                                                                                                                                                                                                                                                                                                                                                                                                                                                                                                                                                                                                                               000012
