0REMESSANOTIFICAÇÃO ELETRONICA        99999999999999Bicbanco S/A                            Avenida Brigadeiro Faria Lima           4.440     2º andar  Itaim Bibi                    São Paulo                     04538132SPBicbanco S/A                                                                    18112014                                                                                                                                                                                                                                                                                                                                                                                                000001
1017421012786COBR_CAUC_BIC  FABRICA DA PEDRA S.A FIAC.E TECELAG     020628152000140VALADARES TECIDOS LTDA                  RUA GABRIELA DE MELO,111                BELO HORIZONTE                          30390080MG50096000010260071524308-A01   13112014019BELO HORIZONTE      1602201500000000012142572CC                                                                                                                                                                                                                                                                                                                                                                                           333314-1      000002
1020421001652COBR_CAUC_COR  SANTHER FAB PAP STA THEREZINHA S/A      083646984006906A ANGELONI CIA LTDA                     AV DO CENTENARIO 7521                   CRICIUMA                                88815900SC500970000106451105023831601   12112014800UNIBANCO S/A        1712201400000000012686213CC                                                                                                                                                                                                                                                                                                                                                                                           333314-2      000003
1021421017050COBR_CAUC_BIC  STAR DISTR PROD FARMACEUTICOS LTDA      002543945000690ULTRAFARMA SAUDE LTDA 0006              ESTRADA MUNIC DEP EST FRANCISCO FRANCO, SANTA ISABEL                            07500000SP5009800001000070010000429501  12112014007PAULISTA            1012201400000000014170762CC                                                                                                                                                                                                                                                                                                                                                                                           333314-3      000004
1021421017050COBR_CAUC_BIC  STAR DISTR PROD FARMACEUTICOS LTDA      061585865073701RAIA DROGASIL S/A                       RUA PATAXOS , 1412                      EMBU                                    06833073SP5009900001000070100000429601  12112014007PAULISTA            2611201400000000035815279CC                                                                                                                                                                                                                                                                                                                                                                                           333314-4      000005
1021421017050COBR_CAUC_BIC  STAR DISTR PROD FARMACEUTICOS LTDA      061585865073701RAIA DROGASIL S/A                       RUA PATAXOS , 1412                      EMBU                                    06833073SP5009900002000070280000430201  12112014007PAULISTA            2611201400000000021552926CC                                                                                                                                                                                                                                                                                                                                                                                           333314-5      000006
1021421017050COBR_CAUC_BIC  STAR DISTR PROD FARMACEUTICOS LTDA      061585865073701RAIA DROGASIL S/A                       RUA PATAXOS , 1412                      EMBU                                    06833073SP5009900003000070610000430701  13112014007PAULISTA            2711201400000000051742779CC                                                                                                                                                                                                                                                                                                                                                                                           333314-6      000007
1018421012458COBR_CAUC_BIC  WAVE PRODUTOS MEDICOS LTDA              033620899000102HOSPITAL RENAISSANCE LTDA               RUA 9,1551                              GOIANIA                                 74150130GO50106000010387988121402-5     29052014018GOIANIA             2001201500000000000519478CC                                                                                                                                                                                                                                                                                                                                                                                           333314-7      000008
1018421012458COBR_CAUC_BIC  WAVE PRODUTOS MEDICOS LTDA              033620899000102HOSPITAL RENAISSANCE LTDA               RUA 9,1551                              GOIANIA                                 74150130GO50106000020387986421402-3     29052014018GOIANIA             2011201400000000000499434CC                                                                                                                                                                                                                                                                                                                                                                                           333314-8      000009
1018421012458COBR_CAUC_BIC  WAVE PRODUTOS MEDICOS LTDA              033620899000102HOSPITAL RENAISSANCE LTDA               RUA 9,1551                              GOIANIA                                 74150130GO50106000030387987221402-4     29052014018GOIANIA             2012201400000000000509191CC                                                                                                                                                                                                                                                                                                                                                                                           333314-9      000010
1018421012458COBR_CAUC_BIC  WAVE PRODUTOS MEDICOS LTDA              010321128000100VASCULAR COMERCIO DE PRODUTOS MEDI      RUA BOSQUE DA SAUDE,504                 CUIABA                                  78050070MT50107000010391014122449-1     22102014024CUIABA              2011201400000000000745143CC                                                                                                                                                                                                                                                                                                                                                                                           333314-10     000011
1018421012458COBR_CAUC_BIC  WAVE PRODUTOS MEDICOS LTDA              010321128000100VASCULAR COMERCIO DE PRODUTOS MEDI      RUA BOSQUE DA SAUDE,504                 CUIABA                                  78050070MT50107000020391015022449-2     22102014024CUIABA              2012201400000000000745143CC                                                                                                                                                                                                                                                                                                                                                                                           333314-11     000012
1018421012458COBR_CAUC_BIC  WAVE PRODUTOS MEDICOS LTDA              010321128000100VASCULAR COMERCIO DE PRODUTOS MEDI      RUA BOSQUE DA SAUDE,504                 CUIABA                                  78050070MT50107000030391016822449-3     22102014024CUIABA              1901201500000000000745144CC                                                                                                                                                                                                                                                                                                                                                                                           333314-12     000013
1007421069410COBR_CAUC_BIC  FULL COMEX TRADING S/A                  009006813000163INDUSTRIA DE COSMETICOS CARVALHO L      AV.DOS ITALIANOS 196 ESTRADA DO OTAVIANORIO DE JANEIRO                          21510103RJ50108000010329975823663.3     22092014014RIO DE JANEIRO      2111201400000000001353723CC                                                                                                                                                                                                                                                                                                                                                                                           333314-13     000014
1007421069410COBR_CAUC_BIC  FULL COMEX TRADING S/A                  003455486000140MITSUL DISTRIB DE MATS FOTOGRAFICO      AV ALBERTO BINS 907                     PORTO ALEGRE                            90030143RS50109000010341094211424       28102014015PORTO ALEGRE        2302201500000000001904370CC                                                                                                                                                                                                                                                                                                                                                                                           333314-14     000015
1007421069410COBR_CAUC_COR  FULL COMEX TRADING S/A                  007221827000174KATIA REGINA SILVA DE CARVALHO ME       AVENIDA DUBLIM 1040 BARRA CENTRER II - SMANAUS                                  69045200AM50110000010341092611413       28102014700BANCO REAL- ABN AMRO2301201500000000001069634CC                                                                                                                                                                                                                                                                                                                                                                                           333314-15     000016
1007421069410COBR_CAUC_COR  FULL COMEX TRADING S/A                  007221827000174KATIA REGINA SILVA DE CARVALHO ME       AVENIDA DUBLIM 1040 BARRA CENTRER II - SMANAUS                                  69045200AM50110000020341093411414       28102014700BANCO REAL- ABN AMRO2302201500000000001069634CC                                                                                                                                                                                                                                                                                                                                                                                           333314-16     000017
1007421069410COBR_CAUC_BIC  FULL COMEX TRADING S/A                  000896703000140CROMOS MATERIAL DE FOTO E VIDEO LT      AV COMENDADOR FRANCO 5320               CURITIBA                                81560000PR50111000010341090011403       28102014016CURITIBA            2301201500000000001858219CC                                                                                                                                                                                                                                                                                                                                                                                           333314-17     000018
1007421069410COBR_CAUC_BIC  FULL COMEX TRADING S/A                  000896703000140CROMOS MATERIAL DE FOTO E VIDEO LT      AV COMENDADOR FRANCO 5320               CURITIBA                                81560000PR50111000020341091811404       28102014016CURITIBA            2302201500000000001858219CC                                                                                                                                                                                                                                                                                                                                                                                           333314-18     000019
1007421069410COBR_CAUC_BIC  FULL COMEX TRADING S/A                  013167320000182RR LOCACAO DE MAQUINAS E EQUIPAMEN      R CORONEL ALMEIRINDO REHEM 126 SALA 305 SALVADOR                                41820768BA50112000010308925730374.4     23052014013SALVADOR            3011201400000000002000000CC                                                                                                                                                                                                                                                                                                                                                                                           333314-19     000020
1007421069410COBR_CAUC_BIC  FULL COMEX TRADING S/A                  013167320000182RR LOCACAO DE MAQUINAS E EQUIPAMEN      R CORONEL ALMEIRINDO REHEM 126 SALA 305 SALVADOR                                41820768BA50112000020310029330374.5     23052014013SALVADOR            3011201400000000002000000CC                                                                                                                                                                                                                                                                                                                                                                                           333314-20     000021
1007421069410COBR_CAUC_BIC  FULL COMEX TRADING S/A                  001403788000140HEME ISOLANTES TERMICOS E ACUSTICO      SILVILINO MANTOVANINI 182               SAO PAULO                               04925040SP50113000010341089630544.1     30102014007PAULISTA            2911201400000000009026441CC                                                                                                                                                                                                                                                                                                                                                                                           333314-21     000022
1028421000228COBR_CAUC_BIC  UBY AGROQUIMICA LTDA                    037258183000150NUTRIFOL COMERCIAL AGRICOLA LTDA        R. 0236,507                             GOIANIA                                 74535030GO50114000010300316219230D01    28042014018GOIANIA             1012201400000000000175695CC                                                                                                                                                                                                                                                                                                                                                                                           333314-22     000023
1028421000228COBR_CAUC_BIC  UBY AGROQUIMICA LTDA                    037258183000150NUTRIFOL COMERCIAL AGRICOLA LTDA        R. 0236,507                             GOIANIA                                 74535030GO50114000020300317119256D01    30042014018GOIANIA             1012201400000000000081096CC                                                                                                                                                                                                                                                                                                                                                                                           333314-23     000024
1028421000228COBR_CAUC_BIC  UBY AGROQUIMICA LTDA                    037258183000150NUTRIFOL COMERCIAL AGRICOLA LTDA        R. 0236,507                             GOIANIA                                 74535030GO50114000030300333218618D01    28022014018GOIANIA             1012201400000000005822379CC                                                                                                                                                                                                                                                                                                                                                                                           333314-24     000025
1028421000228COBR_CAUC_BIC  UBY AGROQUIMICA LTDA                    037258183000150NUTRIFOL COMERCIAL AGRICOLA LTDA        R. 0236,507                             GOIANIA                                 74535030GO50114000040300334118960D01    26032014018GOIANIA             1012201400000000000200200CC                                                                                                                                                                                                                                                                                                                                                                                           333314-25     000026
1028421000228COBR_CAUC_BIC  UBY AGROQUIMICA LTDA                    037258183000150NUTRIFOL COMERCIAL AGRICOLA LTDA        R. 0236,507                             GOIANIA                                 74535030GO50114000050300335918909D01    22032014018GOIANIA             1012201400000000000112860CC                                                                                                                                                                                                                                                                                                                                                                                           333314-26     000027
1028421000228COBR_CAUC_BIC  UBY AGROQUIMICA LTDA                    037258183000150NUTRIFOL COMERCIAL AGRICOLA LTDA        R. 0236,507                             GOIANIA                                 74535030GO50114000060300336718908D01    22032014018GOIANIA             1012201400000000000255474CC                                                                                                                                                                                                                                                                                                                                                                                           333314-27     000028
1028421000228COBR_CAUC_BIC  UBY AGROQUIMICA LTDA                    037258183000150NUTRIFOL COMERCIAL AGRICOLA LTDA        R. 0236,507                             GOIANIA                                 74535030GO50114000070300337518663D01    06032014018GOIANIA             1012201400000000000120042CC                                                                                                                                                                                                                                                                                                                                                                                           333314-28     000029
1028421000228COBR_CAUC_BIC  UBY AGROQUIMICA LTDA                    037258183000150NUTRIFOL COMERCIAL AGRICOLA LTDA        R. 0236,507                             GOIANIA                                 74535030GO50114000080300338318666D01    06032014018GOIANIA             1012201400000000000054720CC                                                                                                                                                                                                                                                                                                                                                                                           333314-29     000030
1028421000228COBR_CAUC_BIC  UBY AGROQUIMICA LTDA                    037258183000150NUTRIFOL COMERCIAL AGRICOLA LTDA        R. 0236,507                             GOIANIA                                 74535030GO50114000090300339118716D01    10032014018GOIANIA             1012201400000000000025650CC                                                                                                                                                                                                                                                                                                                                                                                           333314-30     000031
1028421000228COBR_CAUC_BIC  UBY AGROQUIMICA LTDA                    037258183000150NUTRIFOL COMERCIAL AGRICOLA LTDA        R. 0236,507                             GOIANIA                                 74535030GO50114000100300340518718D01    10032014018GOIANIA             1012201400000000000292752CC                                                                                                                                                                                                                                                                                                                                                                                           333314-31     000032
1028421000228COBR_CAUC_BIC  UBY AGROQUIMICA LTDA                    037258183000150NUTRIFOL COMERCIAL AGRICOLA LTDA        R. 0236,507                             GOIANIA                                 74535030GO50114000110300341318747D01    12032014018GOIANIA             1012201400000000000051300CC                                                                                                                                                                                                                                                                                                                                                                                           333314-32     000033
1028421000228COBR_CAUC_BIC  UBY AGROQUIMICA LTDA                    037258183000150NUTRIFOL COMERCIAL AGRICOLA LTDA        R. 0236,507                             GOIANIA                                 74535030GO50114000120300342118846D01    18032014018GOIANIA             1012201400000000000201780CC                                                                                                                                                                                                                                                                                                                                                                                           333314-33     000034
1028421000228COBR_CAUC_BIC  UBY AGROQUIMICA LTDA                    037258183000150NUTRIFOL COMERCIAL AGRICOLA LTDA        R. 0236,507                             GOIANIA                                 74535030GO50114000130300343018847D01    18032014018GOIANIA             1012201400000000000995048CC                                                                                                                                                                                                                                                                                                                                                                                           333314-34     000035
1028421000228COBR_CAUC_BIC  UBY AGROQUIMICA LTDA                    037258183000150NUTRIFOL COMERCIAL AGRICOLA LTDA        R. 0236,507                             GOIANIA                                 74535030GO50114000140300344818848D01    18032014018GOIANIA             1012201400000000000080028CC                                                                                                                                                                                                                                                                                                                                                                                           333314-35     000036
1028421000228COBR_CAUC_BIC  UBY AGROQUIMICA LTDA                    037258183000150NUTRIFOL COMERCIAL AGRICOLA LTDA        R. 0236,507                             GOIANIA                                 74535030GO50114000150300345618849D01    18032014018GOIANIA             1012201400000000000160312CC                                                                                                                                                                                                                                                                                                                                                                                           333314-36     000037
1028421000228COBR_CAUC_BIC  UBY AGROQUIMICA LTDA                    037258183000150NUTRIFOL COMERCIAL AGRICOLA LTDA        R. 0236,507                             GOIANIA                                 74535030GO50114000160300346418850D01    18032014018GOIANIA             1012201400000000000166440CC                                                                                                                                                                                                                                                                                                                                                                                           333314-37     000038
1028421000228COBR_CAUC_BIC  UBY AGROQUIMICA LTDA                    037258183000150NUTRIFOL COMERCIAL AGRICOLA LTDA        R. 0236,507                             GOIANIA                                 74535030GO50114000170300347218619D01    28022014018GOIANIA             1012201400000000006830424CC                                                                                                                                                                                                                                                                                                                                                                                           333314-38     000039
1028421000228COBR_CAUC_COR  UBY AGROQUIMICA LTDA                    018528825000149UNIGGEL PROTECAO DE PLANTAS LTDA        QD 112 SUL RUA SR 9 S/N,9               PALMAS                                  77020178TO50115000010300292119236D01    29042014600HSBC BANK BRASIL    3011201400000000000803040CC                                                                                                                                                                                                                                                                                                                                                                                           333314-39     000040
1028421000228COBR_CAUC_COR  UBY AGROQUIMICA LTDA                    018528825000149UNIGGEL PROTECAO DE PLANTAS LTDA        QD 112 SUL RUA SR 9 S/N,9               PALMAS                                  77020178TO50115000020300293019264D01    30042014600HSBC BANK BRASIL    3011201400000000001250000CC                                                                                                                                                                                                                                                                                                                                                                                           333314-40     000041
1028421000228COBR_CAUC_COR  UBY AGROQUIMICA LTDA                    018528825000149UNIGGEL PROTECAO DE PLANTAS LTDA        QD 112 SUL RUA SR 9 S/N,9               PALMAS                                  77020178TO50115000030300294819265D01    30042014600HSBC BANK BRASIL    3011201400000000002175000CC                                                                                                                                                                                                                                                                                                                                                                                           333314-41     000042
1028421000228COBR_CAUC_COR  UBY AGROQUIMICA LTDA                    018528825000149UNIGGEL PROTECAO DE PLANTAS LTDA        QD 112 SUL RUA SR 9 S/N,9               PALMAS                                  77020178TO50115000040300295619267D01    30042014600HSBC BANK BRASIL    3011201400000000000630960CC                                                                                                                                                                                                                                                                                                                                                                                           333314-42     000043
1028421000228COBR_CAUC_COR  UBY AGROQUIMICA LTDA                    018528825000149UNIGGEL PROTECAO DE PLANTAS LTDA        QD 112 SUL RUA SR 9 S/N,9               PALMAS                                  77020178TO50115000050300296419500D01    30052014600HSBC BANK BRASIL    3011201400000000002094000CC                                                                                                                                                                                                                                                                                                                                                                                           333314-43     000044
1028421000228COBR_CAUC_COR  UBY AGROQUIMICA LTDA                    018528825000149UNIGGEL PROTECAO DE PLANTAS LTDA        QD 112 SUL RUA SR 9 S/N,9               PALMAS                                  77020178TO50115000060300297219501D01    30052014600HSBC BANK BRASIL    3011201400000000002760000CC                                                                                                                                                                                                                                                                                                                                                                                           333314-44     000045
1028421000228COBR_CAUC_COR  UBY AGROQUIMICA LTDA                    018528825000149UNIGGEL PROTECAO DE PLANTAS LTDA        QD 112 SUL RUA SR 9 S/N,9               PALMAS                                  77020178TO50115000070300298119601D01    06062014600HSBC BANK BRASIL    3011201400000000000625000CC                                                                                                                                                                                                                                                                                                                                                                                           333314-45     000046
1028421000228COBR_CAUC_COR  UBY AGROQUIMICA LTDA                    018528825000149UNIGGEL PROTECAO DE PLANTAS LTDA        QD 112 SUL RUA SR 9 S/N,9               PALMAS                                  77020178TO50115000080300299919602D01    06062014600HSBC BANK BRASIL    3011201400000000002389000CC                                                                                                                                                                                                                                                                                                                                                                                           333314-46     000047
1028421000228COBR_CAUC_COR  UBY AGROQUIMICA LTDA                    018528825000149UNIGGEL PROTECAO DE PLANTAS LTDA        QD 112 SUL RUA SR 9 S/N,9               PALMAS                                  77020178TO50115000090300300619654D01    13062014600HSBC BANK BRASIL    3011201400000000000344161CC                                                                                                                                                                                                                                                                                                                                                                                           333314-47     000048
1028421000228COBR_CAUC_COR  UBY AGROQUIMICA LTDA                    018528825000149UNIGGEL PROTECAO DE PLANTAS LTDA        QD 112 SUL RUA SR 9 S/N,9               PALMAS                                  77020178TO50115000100300313819696D01    23062014600HSBC BANK BRASIL    3011201400000000003800000CC                                                                                                                                                                                                                                                                                                                                                                                           333314-48     000049
1028421000228COBR_CAUC_COR  UBY AGROQUIMICA LTDA                    018528825000149UNIGGEL PROTECAO DE PLANTAS LTDA        QD 112 SUL RUA SR 9 S/N,9               PALMAS                                  77020178TO50115000110300314619697D01    23062014600HSBC BANK BRASIL    3011201400000000001089839CC                                                                                                                                                                                                                                                                                                                                                                                           333314-49     000050
1028421000228COBR_CAUC_COR  UBY AGROQUIMICA LTDA                    004894685000118REGIONAL COM DE PRODAGROPEC. DE          AV. BRASILIA ,99-COMERCIO              FRUTAL                                  38200000MG50116000010300291317820D01    22012014600HSBC BANK BRASIL    2511201400000000001526000CC                                                                                                                                                                                                                                                                                                                                                                                           333314-50     000051
1028421000228COBR_CAUC_COR  UBY AGROQUIMICA LTDA                    004894685000118REGIONAL COM DE PRODAGROPEC. DE          AV. BRASILIA ,99-COMERCIO              FRUTAL                                  38200000MG50116000020300301419136D01    08042014600HSBC BANK BRASIL    2511201400000000000777600CC                                                                                                                                                                                                                                                                                                                                                                                           333314-51     000052
1028421000228COBR_CAUC_COR  UBY AGROQUIMICA LTDA                    004894685000118REGIONAL COM DE PRODAGROPEC. DE          AV. BRASILIA ,99-COMERCIO              FRUTAL                                  38200000MG50116000030300302219087D01    03042014600HSBC BANK BRASIL    2511201400000000000650000CC                                                                                                                                                                                                                                                                                                                                                                                           333314-52     000053
1028421000228COBR_CAUC_COR  UBY AGROQUIMICA LTDA                    004894685000118REGIONAL COM DE PRODAGROPEC. DE          AV. BRASILIA ,99-COMERCIO              FRUTAL                                  38200000MG50116000040300303117822D01    22012014600HSBC BANK BRASIL    2511201400000000000475200CC                                                                                                                                                                                                                                                                                                                                                                                           333314-53     000054
1028421000228COBR_CAUC_COR  UBY AGROQUIMICA LTDA                    004894685000118REGIONAL COM DE PRODAGROPEC. DE          AV. BRASILIA ,99-COMERCIO              FRUTAL                                  38200000MG50116000050300304917844D01    23012014600HSBC BANK BRASIL    2511201400000000000080400CC                                                                                                                                                                                                                                                                                                                                                                                           333314-54     000055
1028421000228COBR_CAUC_COR  UBY AGROQUIMICA LTDA                    004894685000118REGIONAL COM DE PRODAGROPEC. DE          AV. BRASILIA ,99-COMERCIO              FRUTAL                                  38200000MG50116000060300305717846D01    23012014600HSBC BANK BRASIL    2511201400000000001778600CC                                                                                                                                                                                                                                                                                                                                                                                           333314-55     000056
1028421000228COBR_CAUC_COR  UBY AGROQUIMICA LTDA                    004894685000118REGIONAL COM DE PRODAGROPEC. DE          AV. BRASILIA ,99-COMERCIO              FRUTAL                                  38200000MG50116000070300306517847D01    23012014600HSBC BANK BRASIL    2511201400000000000025920CC                                                                                                                                                                                                                                                                                                                                                                                           333314-56     000057
1028421000228COBR_CAUC_COR  UBY AGROQUIMICA LTDA                    004894685000118REGIONAL COM DE PRODAGROPEC. DE          AV. BRASILIA ,99-COMERCIO              FRUTAL                                  38200000MG50116000080300307317911D01    25012014600HSBC BANK BRASIL    2511201400000000001593000CC                                                                                                                                                                                                                                                                                                                                                                                           333314-57     000058
1028421000228COBR_CAUC_COR  UBY AGROQUIMICA LTDA                    004894685000118REGIONAL COM DE PRODAGROPEC. DE          AV. BRASILIA ,99-COMERCIO              FRUTAL                                  38200000MG50116000090300308118156D01    04022014600HSBC BANK BRASIL    2511201400000000000561600CC                                                                                                                                                                                                                                                                                                                                                                                           333314-58     000059
1028421000228COBR_CAUC_COR  UBY AGROQUIMICA LTDA                    004894685000118REGIONAL COM DE PRODAGROPEC. DE          AV. BRASILIA ,99-COMERCIO              FRUTAL                                  38200000MG50116000100300309018157D01    04022014600HSBC BANK BRASIL    2511201400000000000670000CC                                                                                                                                                                                                                                                                                                                                                                                           333314-59     000060
1028421000228COBR_CAUC_COR  UBY AGROQUIMICA LTDA                    004894685000118REGIONAL COM DE PRODAGROPEC. DE          AV. BRASILIA ,99-COMERCIO              FRUTAL                                  38200000MG50116000110300310318446D01    18022014600HSBC BANK BRASIL    2511201400000000000528000CC                                                                                                                                                                                                                                                                                                                                                                                           333314-60     000061
1028421000228COBR_CAUC_COR  UBY AGROQUIMICA LTDA                    004894685000118REGIONAL COM DE PRODAGROPEC. DE          AV. BRASILIA ,99-COMERCIO              FRUTAL                                  38200000MG50116000120300311118447D01    18022014600HSBC BANK BRASIL    2511201400000000001800000CC                                                                                                                                                                                                                                                                                                                                                                                           333314-61     000062
1028421000228COBR_CAUC_COR  UBY AGROQUIMICA LTDA                    004894685000118REGIONAL COM DE PRODAGROPEC. DE          AV. BRASILIA ,99-COMERCIO              FRUTAL                                  38200000MG50116000130300312018448D01    18022014600HSBC BANK BRASIL    2511201400000000001460000CC                                                                                                                                                                                                                                                                                                                                                                                           333314-62     000063
1028421000228COBR_CAUC_COR  UBY AGROQUIMICA LTDA                    004894685000118REGIONAL COM DE PRODAGROPEC. DE          AV. BRASILIA ,99-COMERCIO              FRUTAL                                  38200000MG50116000140300348115390-I01   31122009900HSBC BANK BRASIL    2511201400000000001080000CC                                                                                                                                                                                                                                                                                                                                                                                           333314-63     000064
1028421000228COBR_CAUC_COR  UBY AGROQUIMICA LTDA                    004894685000118REGIONAL COM DE PRODAGROPEC. DE          AV. BRASILIA ,99-COMERCIO              FRUTAL                                  38200000MG50116000150300349916172-I01   31122009600HSBC BANK BRASIL    2511201400000000001080000CC                                                                                                                                                                                                                                                                                                                                                                                           333314-64     000065
1028421000228COBR_CAUC_COR  UBY AGROQUIMICA LTDA                    004894685000118REGIONAL COM DE PRODAGROPEC. DE          AV. BRASILIA ,99-COMERCIO              FRUTAL                                  38200000MG50116000160300350216550-S01   06112013600HSBC BANK BRASIL    2511201400000000001090000CC                                                                                                                                                                                                                                                                                                                                                                                           333314-65     000066
1028421000228COBR_CAUC_COR  UBY AGROQUIMICA LTDA                    004894685000118REGIONAL COM DE PRODAGROPEC. DE          AV. BRASILIA ,99-COMERCIO              FRUTAL                                  38200000MG50116000170300516515390-I01   21082013900HSBC BANK BRASIL    2511201400000000001080000CC                                                                                                                                                                                                                                                                                                                                                                                           333314-66     000067
1028421000228COBR_CAUC_COR  UBY AGROQUIMICA LTDA                    004894685000118REGIONAL COM DE PRODAGROPEC. DE          AV. BRASILIA ,99-COMERCIO              FRUTAL                                  38200000MG50116000180300517316172-I01   15102013600HSBC BANK BRASIL    2511201400000000000584000CC                                                                                                                                                                                                                                                                                                                                                                                           333314-67     000068
1028421000228COBR_CAUC_COR  UBY AGROQUIMICA LTDA                    004894685000118REGIONAL COM DE PRODAGROPEC. DE          AV. BRASILIA ,99-COMERCIO              FRUTAL                                  38200000MG50116000190307172917000D01    02122013600HSBC BANK BRASIL    2511201400000000001080000CC                                                                                                                                                                                                                                                                                                                                                                                           333314-68     000069
1028421000228COBR_CAUC_COR  UBY AGROQUIMICA LTDA                    004894685000118REGIONAL COM DE PRODAGROPEC. DE          AV. BRASILIA ,99-COMERCIO              FRUTAL                                  38200000MG50116000200300351116550-S02   06112013600HSBC BANK BRASIL    2511201400000000001090000CC                                                                                                                                                                                                                                                                                                                                                                                           333314-69     000070
1028421000228COBR_CAUC_COR  UBY AGROQUIMICA LTDA                    004894685000118REGIONAL COM DE PRODAGROPEC. DE          AV. BRASILIA ,99-COMERCIO              FRUTAL                                  38200000MG50116000210300352916551D01    06112013600HSBC BANK BRASIL    2511201400000000000335000CC                                                                                                                                                                                                                                                                                                                                                                                           333314-70     000071
1028421000228COBR_CAUC_COR  UBY AGROQUIMICA LTDA                    004894685000118REGIONAL COM DE PRODAGROPEC. DE          AV. BRASILIA ,99-COMERCIO              FRUTAL                                  38200000MG50116000220300353716710-S01   18112013600HSBC BANK BRASIL    2511201400000000000876000CC                                                                                                                                                                                                                                                                                                                                                                                           333314-71     000072
1028421000228COBR_CAUC_BIC  UBY AGROQUIMICA LTDA                    081584278000155COOPERATIVA AGROINDUSTRIAL COPAGRI      RUA 9 DE AGOSTO,700-COOPERATIVA         MARECHAL C.ROND                         85960000PR50117000010300318919117D01    04042014016CURITIBA            1512201400000000002657000CC                                                                                                                                                                                                                                                                                                                                                                                           333314-72     000073
1028421000228COBR_CAUC_BIC  UBY AGROQUIMICA LTDA                    081584278000155COOPERATIVA AGROINDUSTRIAL COPAGRI      RUA 9 DE AGOSTO,700-COOPERATIVA         MARECHAL C.ROND                         85960000PR50117000020300319719179D01    12042014016CURITIBA            1512201400000000001962600CC                                                                                                                                                                                                                                                                                                                                                                                           333314-73     000074
1028421000228COBR_CAUC_COR  UBY AGROQUIMICA LTDA                    015611266000148PIV OESTE SISTEMAS DE IRRIGACAO EI      PR 488 ESQ CEU AZUL 1,488-COMERCIO      SANTA HELENA                            85892000PR50118000010300371518467D01    19022014900BRADESCO S/A        2811201400000000003567000CC                                                                                                                                                                                                                                                                                                                                                                                           333314-74     000075
1028421000228COBR_CAUC_COR  UBY AGROQUIMICA LTDA                    015611266000148PIV OESTE SISTEMAS DE IRRIGACAO EI      PR 488 ESQ CEU AZUL 1,488-COMERCIO      SANTA HELENA                            85892000PR50118000020300388018647D01    06032014900BRADESCO S/A        3011201400000000001829940CC                                                                                                                                                                                                                                                                                                                                                                                           333314-75     000076
1028421000228COBR_CAUC_BIC  UBY AGROQUIMICA LTDA                    013161244000106L. ASSI JUNUOR COMERCIO E REPRESEN      RUA FLOR DO CAMPO Q 30 LOTE 33,33       PARAGOMINAS                             68625970PA50119000010307049821484D01    28102014050BELEM               2212201400000000007125207CC                                                                                                                                                                                                                                                                                                                                                                                           333314-76     000077
1028421000228COBR_CAUC_BIC  UBY AGROQUIMICA LTDA                    013161244000106L. ASSI JUNUOR COMERCIO E REPRESEN      RUA FLOR DO CAMPO Q 30 LOTE 33,33       PARAGOMINAS                             68625970PA50119000020307050121492D01    29102014050BELEM               2212201400000000000107250CC                                                                                                                                                                                                                                                                                                                                                                                           333314-77     000078
1028421000228COBR_CAUC_BIC  UBY AGROQUIMICA LTDA                    079114450003342COCAMAR COOPERATIVA AGROINDUSTRIAL      EST.OSWALDO DE MORAES,1000-LOTE 11      MARINGA                                 87065590PR50120000010300315417455D01    06012014016CURITIBA            1012201400000000011491997CC                                                                                                                                                                                                                                                                                                                                                                                           333314-78     000079
1046141001273COBR_DESC_COR  SUL IMAG PROD P/DIAGNOSTICOS EIRELI     015260849000171PERY P NETO C & COLUNA LTDA-ME          R 3,2557                                JALES                                   15700006SP501210000102470016110147--5   21072014700BANCO REAL- ABN AMRO2111201400000000001873705TD                                                                                                                                                                                                                                                                                                                                                                                           333314-79     000080
1046141001273COBR_DESC_COR  SUL IMAG PROD P/DIAGNOSTICOS EIRELI     015260849000171PERY P NETO C & COLUNA LTDA-ME          R 3,2557                                JALES                                   15700006SP501210000202470059110147--6   21072014700BANCO REAL- ABN AMRO2112201400000000001873705TD                                                                                                                                                                                                                                                                                                                                                                                           333314-80     000081
1046141001273COBR_DESC_COR  SUL IMAG PROD P/DIAGNOSTICOS EIRELI     015260849000171PERY P NETO C & COLUNA LTDA-ME          R 3,2557                                JALES                                   15700006SP501210000302470121110147--7   21072014700BANCO REAL- ABN AMRO2101201500000000001873705TD                                                                                                                                                                                                                                                                                                                                                                                           333314-81     000082
1046141001273COBR_DESC_BIC  SUL IMAG PROD P/DIAGNOSTICOS EIRELI     073380073000120CEPEM CENTRO DE PESQ DA MULHER LTD      R BARAO DE LUCENA,67 - 71               RIO DE JANEIRO                          22260020RJ5012200001024701307932//8     24062014014RIO DE JANEIRO      2401201500000000006315600TD                                                                                                                                                                                                                                                                                                                                                                                           333314-82     000083
1046141001273COBR_DESC_COR  SUL IMAG PROD P/DIAGNOSTICOS EIRELI     018314696000196 IMED IMAGENS MEDICAS LTDA - ME         R VASCO DA GAMA,349                     GUANAMBI                                46430000BA50123000010256256572/1        09062014700BANCO REAL- ABN AMRO0105201500000000007200000TD                                                                                                                                                                                                                                                                                                                                                                                           333314-83     000084
1046141001273COBR_DESC_BIC  SUL IMAG PROD P/DIAGNOSTICOS EIRELI     045796554000185SALOMAO E ZOPPI SERV MED E PARTIC       AV CARINAS,635                          SAO PAULO                               04086001SP501240000102470008110111--4   18072014007PAULISTA            1811201400000000006750000TD                                                                                                                                                                                                                                                                                                                                                                                           333314-84     000085
1046141001273COBR_DESC_BIC  SUL IMAG PROD P/DIAGNOSTICOS EIRELI     045796554000185SALOMAO E ZOPPI SERV MED E PARTIC       AV CARINAS,635                          SAO PAULO                               04086001SP501240000202470041110111--5   18072014007PAULISTA            1812201400000000006750000TD                                                                                                                                                                                                                                                                                                                                                                                           333314-85     000086
1046141001273COBR_DESC_BIC  SUL IMAG PROD P/DIAGNOSTICOS EIRELI     045796554000185SALOMAO E ZOPPI SERV MED E PARTIC       AV CARINAS,635                          SAO PAULO                               04086001SP501240000302470113110111--6   18072014007PAULISTA            1801201500000000006750000TD                                                                                                                                                                                                                                                                                                                                                                                           333314-86     000087
1046421007603COBR_CAUC_BIC  SUL IMAG PROD P/DIAGNOSTICOS EIRELI     073380073000120CEPEM CENTRO DE PESQ DA MULHER LTD      R BARAO DE LUCENA,67 - 71               RIO DE JANEIRO                          22260020RJ5012500001024368887932//7     24062014014RIO DE JANEIRO      2412201400000000006315600CC                                                                                                                                                                                                                                                                                                                                                                                           333314-87     000088
1046421007603COBR_CAUC_COR  SUL IMAG PROD P/DIAGNOSTICOS EIRELI     018314696000196 IMED IMAGENS MEDICAS LTDA - ME         R VASCO DA GAMA,349                     GUANAMBI                                46430000BA501260000102417646172//6      09062014700BANCO REAL- ABN AMRO0112201400000000007200000CC                                                                                                                                                                                                                                                                                                                                                                                           333314-88     000089
1046421007603COBR_CAUC_COR  SUL IMAG PROD P/DIAGNOSTICOS EIRELI     003658528000140CENTRO DE ULTRASONOGRAFIA E DIAG.       AV. ALMIRANTE TAMANDARE,2854            SANTANA DO LIVR                         97574210RS5012700001025723581118997//8  18092014700BANCO REAL- ABN AMRO1105201500000000008975000CC                                                                                                                                                                                                                                                                                                                                                                                           333314-89     000090
1046421007603COBR_CAUC_COR  SUL IMAG PROD P/DIAGNOSTICOS EIRELI     010421215000130VICOSA SERV MEDICOS POR IMAGEM LTD      PRACA DO ROSARIO,3 - 3 ANDAR            VICOSA                                  36570000MG50128000010241766219422--5    09052014700BANCO REAL- ABN AMRO0612201400000000004557143CC                                                                                                                                                                                                                                                                                                                                                                                           333314-90     000091
1046421007603COBR_CAUC_COR  SUL IMAG PROD P/DIAGNOSTICOS EIRELI     010421215000130VICOSA SERV MEDICOS POR IMAGEM LTD      PRACA DO ROSARIO,3 - 3 ANDAR            VICOSA                                  36570000MG50128000020257232319422--3    09052014700BANCO REAL- ABN AMRO0605201500000000004557143CC                                                                                                                                                                                                                                                                                                                                                                                           333314-91     000092
1046421007603COBR_CAUC_COR  SUL IMAG PROD P/DIAGNOSTICOS EIRELI     048815708000127INST DE RAD PRES PRUDENTE SS LTDA       RUA DEMOCRATA,254                       PRESIDENTE PRUD                         19050690SP50129000010241765419386--9    06052014700BANCO REAL- ABN AMRO0512201400000000005000000CC                                                                                                                                                                                                                                                                                                                                                                                           333314-92     000093
1046421007603COBR_CAUC_COR  SUL IMAG PROD P/DIAGNOSTICOS EIRELI     048815708000127INST DE RAD PRES PRUDENTE SS LTDA       RUA DEMOCRATA,254                       PRESIDENTE PRUD                         19050690SP50129000020257231519386--14   06052014700BANCO REAL- ABN AMRO0505201500000000005000000CC                                                                                                                                                                                                                                                                                                                                                                                           333314-93     000094
1029421012917COBR_CAUC_COR  GERMANI ALIMENTOS LTDA                  001874166001503MASTER ATS SUPERMERCADOS LTDA           AV TIRADENTES,780                       ERECHIM                                 99700000RS501300000100044359185956-1    14102014900BRADESCO S/A        1811201400000000002793307CC                                                                                                                                                                                                                                                                                                                                                                                           333314-94     000095
1029421012917COBR_CAUC_COR  GERMANI ALIMENTOS LTDA                  001874166001503MASTER ATS SUPERMERCADOS LTDA           AV TIRADENTES,780                       ERECHIM                                 99700000RS501300000200044391186024-1    14102014900BRADESCO S/A        1811201400000000001271992CC                                                                                                                                                                                                                                                                                                                                                                                           333314-95     000096
1029421012917COBR_CAUC_COR  GERMANI ALIMENTOS LTDA                  083648477000105GIASSI E CIA LTDA                       RODOVIA SC 444,0-KM 09                  ICARA                                   88820000SC501310000100044260185846-1    13102014900BRADESCO S/A        2711201400000000000587606CC                                                                                                                                                                                                                                                                                                                                                                                           333314-96     000097
1029421012917COBR_CAUC_COR  GERMANI ALIMENTOS LTDA                  083648477000105GIASSI E CIA LTDA                       RODOVIA SC 444,0-KM 09                  ICARA                                   88820000SC501310000200044278185847-1    13102014900BRADESCO S/A        2711201400000000000371702CC                                                                                                                                                                                                                                                                                                                                                                                           333314-97     000098
1029421012917COBR_CAUC_COR  GERMANI ALIMENTOS LTDA                  083648477000105GIASSI E CIA LTDA                       RODOVIA SC 444,0-KM 09                  ICARA                                   88820000SC501310000300045185187580-1    29102014900BRADESCO S/A        1312201400000000000371854CC                                                                                                                                                                                                                                                                                                                                                                                           333314-98     000099
1029421012917COBR_CAUC_COR  GERMANI ALIMENTOS LTDA                  083648477000105GIASSI E CIA LTDA                       RODOVIA SC 444,0-KM 09                  ICARA                                   88820000SC501310000400045193187635-1    29102014900BRADESCO S/A        1312201400000000000479651CC                                                                                                                                                                                                                                                                                                                                                                                           333314-99     000100
1029421012917COBR_CAUC_COR  GERMANI ALIMENTOS LTDA                  083648477000105GIASSI E CIA LTDA                       RODOVIA SC 444,0-KM 09                  ICARA                                   88820000SC501310000500045207187636-1    29102014900BRADESCO S/A        1312201400000000000494720CC                                                                                                                                                                                                                                                                                                                                                                                           333314-100    000101
1029421012917COBR_CAUC_COR  GERMANI ALIMENTOS LTDA                  083648477000105GIASSI E CIA LTDA                       RODOVIA SC 444,0-KM 09                  ICARA                                   88820000SC501310000600045215187637-1    29102014900BRADESCO S/A        1312201400000000000568407CC                                                                                                                                                                                                                                                                                                                                                                                           333314-101    000102
1029421012917COBR_CAUC_COR  GERMANI ALIMENTOS LTDA                  083648477000105GIASSI E CIA LTDA                       RODOVIA SC 444,0-KM 09                  ICARA                                   88820000SC501310000700044511186088-1    15102014900BRADESCO S/A        2911201400000000000317776CC                                                                                                                                                                                                                                                                                                                                                                                           333314-102    000103
1029421012917COBR_CAUC_COR  GERMANI ALIMENTOS LTDA                  083648477000105GIASSI E CIA LTDA                       RODOVIA SC 444,0-KM 09                  ICARA                                   88820000SC501310000800045649188236-1    04112014900BRADESCO S/A        1912201400000000000036980CC                                                                                                                                                                                                                                                                                                                                                                                           333314-103    000104
1029421012917COBR_CAUC_COR  GERMANI ALIMENTOS LTDA                  083648477000105GIASSI E CIA LTDA                       RODOVIA SC 444,0-KM 09                  ICARA                                   88820000SC501310000900045223187638-1    29102014900BRADESCO S/A        1312201400000000001063394CC                                                                                                                                                                                                                                                                                                                                                                                           333314-104    000105
1029421012917COBR_CAUC_COR  GERMANI ALIMENTOS LTDA                  090341561000147ATACADAO COM. DE GEN. ALIM. LTDA        ROD. RS-118 - DE ROD RS-20 A,10000      GRAVATAI                                94100420RS501320000100044421186181-1    15102014900BRADESCO S/A        1911201400000000001340032CC                                                                                                                                                                                                                                                                                                                                                                                           333314-105    000106
1029421012917COBR_CAUC_COR  GERMANI ALIMENTOS LTDA                  090341561000147ATACADAO COM. DE GEN. ALIM. LTDA        ROD. RS-118 - DE ROD RS-20 A,10000      GRAVATAI                                94100420RS501320000200044821186997-1    22102014900BRADESCO S/A        2611201400000000001494802CC                                                                                                                                                                                                                                                                                                                                                                                           333314-106    000107
1029421012917COBR_CAUC_COR  GERMANI ALIMENTOS LTDA                  090341561000147ATACADAO COM. DE GEN. ALIM. LTDA        ROD. RS-118 - DE ROD RS-20 A,10000      GRAVATAI                                94100420RS501320000300044944187235-1    24102014900BRADESCO S/A        2811201400000000001741560CC                                                                                                                                                                                                                                                                                                                                                                                           333314-107    000108
1029421012917COBR_CAUC_COR  GERMANI ALIMENTOS LTDA                  092028265000116MESASUL COM. E IND. DE ALIM. LTDA       RUA AVENIDA DAS INDUST,1001-SALA A      CACHOEIRINHA                            94930230RS501330000100044642186426-1    17102014900BRADESCO S/A        2111201400000000000777235CC                                                                                                                                                                                                                                                                                                                                                                                           333314-108    000109
1029421012917COBR_CAUC_COR  GERMANI ALIMENTOS LTDA                  092028265000116MESASUL COM. E IND. DE ALIM. LTDA       RUA AVENIDA DAS INDUST,1001-SALA A      CACHOEIRINHA                            94930230RS501330000200044651186625-1    18102014900BRADESCO S/A        2211201400000000000862056CC                                                                                                                                                                                                                                                                                                                                                                                           333314-109    000110
1029421012917COBR_CAUC_COR  GERMANI ALIMENTOS LTDA                  092028265000116MESASUL COM. E IND. DE ALIM. LTDA       RUA AVENIDA DAS INDUST,1001-SALA A      CACHOEIRINHA                            94930230RS501330000300044693186771-1    20102014900BRADESCO S/A        2411201400000000002326572CC                                                                                                                                                                                                                                                                                                                                                                                           333314-110    000111
1029421012917COBR_CAUC_COR  GERMANI ALIMENTOS LTDA                  092028265000116MESASUL COM. E IND. DE ALIM. LTDA       RUA AVENIDA DAS INDUST,1001-SALA A      CACHOEIRINHA                            94930230RS501330000400044529186214-1    15102014900BRADESCO S/A        1911201400000000001799404CC                                                                                                                                                                                                                                                                                                                                                                                           333314-111    000112
1029421012917COBR_CAUC_COR  GERMANI ALIMENTOS LTDA                  092028265000116MESASUL COM. E IND. DE ALIM. LTDA       RUA AVENIDA DAS INDUST,1001-SALA A      CACHOEIRINHA                            94930230RS501330000500045428187808-1    30102014900BRADESCO S/A        0412201400000000002310969CC                                                                                                                                                                                                                                                                                                                                                                                           333314-112    000113
1029421012917COBR_CAUC_COR  GERMANI ALIMENTOS LTDA                  092028265000116MESASUL COM. E IND. DE ALIM. LTDA       RUA AVENIDA DAS INDUST,1001-SALA A      CACHOEIRINHA                            94930230RS501330000600045266187625-1    29102014900BRADESCO S/A        0312201400000000000989441CC                                                                                                                                                                                                                                                                                                                                                                                           333314-113    000114
1029421012917COBR_CAUC_COR  GERMANI ALIMENTOS LTDA                  075315333012115ATACADAO DITRIBUICAO COM E IND LTD      ESTRADA RST 287, 5500,5500              SANTA MARIA                             97060500RS501340000100043719184383-1    29092014900BRADESCO S/A        2011201400000000001634675CC                                                                                                                                                                                                                                                                                                                                                                                           333314-114    000115
1029421012917COBR_CAUC_COR  GERMANI ALIMENTOS LTDA                  075315333012115ATACADAO DITRIBUICAO COM E IND LTD      ESTRADA RST 287, 5500,5500              SANTA MARIA                             97060500RS501340000200043832185097-1    03102014900BRADESCO S/A        2511201400000000000133900CC                                                                                                                                                                                                                                                                                                                                                                                           333314-115    000116
1029421012917COBR_CAUC_COR  GERMANI ALIMENTOS LTDA                  075315333012115ATACADAO DITRIBUICAO COM E IND LTD      ESTRADA RST 287, 5500,5500              SANTA MARIA                             97060500RS501340000300043841185098-1    03102014900BRADESCO S/A        2611201400000000000089267CC                                                                                                                                                                                                                                                                                                                                                                                           333314-116    000117
1029421012917COBR_CAUC_COR  GERMANI ALIMENTOS LTDA                  075315333012115ATACADAO DITRIBUICAO COM E IND LTD      ESTRADA RST 287, 5500,5500              SANTA MARIA                             97060500RS501340000400043867185164-1    04102014900BRADESCO S/A        2611201400000000000223167CC                                                                                                                                                                                                                                                                                                                                                                                           333314-117    000118
1029421012917COBR_CAUC_COR  GERMANI ALIMENTOS LTDA                  075315333012115ATACADAO DITRIBUICAO COM E IND LTD      ESTRADA RST 287, 5500,5500              SANTA MARIA                             97060500RS501340000500044685186705-1    20102014900BRADESCO S/A        1112201400000000000307998CC                                                                                                                                                                                                                                                                                                                                                                                           333314-118    000119
1029421012917COBR_CAUC_COR  GERMANI ALIMENTOS LTDA                  075315333012115ATACADAO DITRIBUICAO COM E IND LTD      ESTRADA RST 287, 5500,5500              SANTA MARIA                             97060500RS501340000600045363187769-1    30102014900BRADESCO S/A        1912201400000000002593849CC                                                                                                                                                                                                                                                                                                                                                                                           333314-119    000120
1029421012917COBR_CAUC_COR  GERMANI ALIMENTOS LTDA                  075315333012115ATACADAO DITRIBUICAO COM E IND LTD      ESTRADA RST 287, 5500,5500              SANTA MARIA                             97060500RS501340000700045371187855-1    31102014900BRADESCO S/A        0201201500000000002095925CC                                                                                                                                                                                                                                                                                                                                                                                           333314-120    000121
1029421012917COBR_CAUC_COR  GERMANI ALIMENTOS LTDA                  075315333012115ATACADAO DITRIBUICAO COM E IND LTD      ESTRADA RST 287, 5500,5500              SANTA MARIA                             97060500RS501340000800045380187856-1    31102014900BRADESCO S/A        0201201500000000000204204CC                                                                                                                                                                                                                                                                                                                                                                                           333314-121    000122
1029421012917COBR_CAUC_COR  GERMANI ALIMENTOS LTDA                  075315333012115ATACADAO DITRIBUICAO COM E IND LTD      ESTRADA RST 287, 5500,5500              SANTA MARIA                             97060500RS501340000900045703187752-1    30102014900BRADESCO S/A        1912201400000000001517843CC                                                                                                                                                                                                                                                                                                                                                                                           333314-122    000123
1029421012917COBR_CAUC_COR  GERMANI ALIMENTOS LTDA                  075315333012115ATACADAO DITRIBUICAO COM E IND LTD      ESTRADA RST 287, 5500,5500              SANTA MARIA                             97060500RS501340001000045312187688-1    30102014900BRADESCO S/A        1912201400000000000306306CC                                                                                                                                                                                                                                                                                                                                                                                           333314-123    000124
1029421012917COBR_CAUC_COR  GERMANI ALIMENTOS LTDA                  075315333012115ATACADAO DITRIBUICAO COM E IND LTD      ESTRADA RST 287, 5500,5500              SANTA MARIA                             97060500RS501340001100045347187753-1    30102014900BRADESCO S/A        0201201500000000001285133CC                                                                                                                                                                                                                                                                                                                                                                                           333314-124    000125
1029421012917COBR_CAUC_COR  GERMANI ALIMENTOS LTDA                  075315333012115ATACADAO DITRIBUICAO COM E IND LTD      ESTRADA RST 287, 5500,5500              SANTA MARIA                             97060500RS501340001200045355187754-1    30102014900BRADESCO S/A        0201201500000000000204204CC                                                                                                                                                                                                                                                                                                                                                                                           333314-125    000126
9000125                                                                                                                                                                                                                                                                                                                                                                                                                                                                                                                                                                                                                                                                                                               000127
