0REMESSANOTIFICAÇÃO ELETRONICA        99999999999999Bicbanco S/A                            Avenida Brigadeiro Faria Lima           4.440     2º andar  Itaim Bibi                    São Paulo                     04538132SPBicbanco S/A                                                                    24032014                                                                                                                                                                                                                                                                                                                                                                                                000001
1007421072259COBR_CAUC_COR  BOMBRIL S/A                             005103939000286ZAMBONI COMERCIAL LTDA                  ROD BR116 RIO BAHIA KM 809,7 S/N        ALEM PARAIBA                            36660000MG4686800001027597630055829001  28022014900BRADESCO S/A        0704201400000000011396963CC                                                                                                                                                                                                                                                                                                                                                                                           291677-1      000002
1031421007010COBR_CAUC_COR  PLANT BEM FERTILIZANTES S.A.            075739086000178SEARA-IND. E COMERCIO DE PRODUTOS       AV 06 DE JUNHO,380                      SERTANOPOLIS                            86170000PR46869000010537248610223       19032014900BRADESCO S/A        2504201400000000032789668CC                                                                                                                                                                                                                                                                                                                                                                                           291677-2      000003
1048421000338COBR_CAUC_COR  FRIGOESTRELA S.A. EM RECUP JUDICIAL     050947761001871IRMAOS RUSSI LTDA                       RUA LUIS ALLI FARDYN SALA 03, 590       CAJAMAR                                 07750000SP4687000001077960210034204601  19032014900BRADESCO S/A        1904201400000000010657406CC                                                                                                                                                                                                                                                                                                                                                                                           291677-3      000004
1048421003043COBR_CAUC_COR  FRIGOL S.A. EM RECUPERACAO JUDICIAL     011831785000322MERCURIO FRIG E EXP DE ALIMENTOS L      PA-150 S/N                              XINGUARA                                68557080PA46871000010007072500000476-1  20032014900BRADESCO S/A        2703201400000000013061361CC                                                                                                                                                                                                                                                                                                                                                                                           291677-4      000005
1007421059295COBR_CAUC_BIC  PARAMOUNT TEXTEIS IND E COM S.A.        010842594000131IND E COM ZERO CINCO EIRELI ME          R BENEDITO CARLOS DE GODOY350 GALPAO 1  AGUAS DE LINDOI                         13940000SP4687200001027554910050206/01  30012014021CAMPINAS            3005201400000000013819319CC                                                                                                                                                                                                                                                                                                                                                                                           291677-5      000006
1018421034869COBR_CAUC_BIC  L ANNO IND E COM DE LATICINIOS LTDA     011596442003427CARVALHO E FERNANDES LTDA               AV DEP PAULO FERRAZ Nº4.888 GALPAO:03   TERESINA                                64078820PI468730000103647921001080      14032014042SAO LUIS            1305201400000000030800000CC                                                                                                                                                                                                                                                                                                                                                                                           291677-6      000007
1018421034869COBR_CAUC_BIC  L ANNO IND E COM DE LATICINIOS LTDA     024150377000195KARNE KEIJO - LOGISTICA INTEGRADA       BR 101 SUL, N° 3700. SALA 101, BARRO    RECIFE                                  50900400PE468740000103647939001096      19032014010RECIFE              2304201400000000024200000CC                                                                                                                                                                                                                                                                                                                                                                                           291677-7      000008
1046421000269COBR_CAUC_COR  POLPA DE MADEIRAS LTDA                  083046656000172MAESTRO DO BRASIL INDUSTRIA METALU      LOC PALMEIRAS BAIXA S/N                 URUSSANGA                               88840000SC46894000010227820439462-1     28012014700BANCO REAL- ABN AMRO3103201400000000000842491CC                                                                                                                                                                                                                                                                                                                                                                                           291677-8      000009
1046421000269COBR_CAUC_COR  POLPA DE MADEIRAS LTDA                  083046656000172MAESTRO DO BRASIL INDUSTRIA METALU      LOC PALMEIRAS BAIXA S/N                 URUSSANGA                               88840000SC46894000020228249039475-1     31012014700BANCO REAL- ABN AMRO0104201400000000000473168CC                                                                                                                                                                                                                                                                                                                                                                                           291677-9      000010
1046421000269COBR_CAUC_COR  POLPA DE MADEIRAS LTDA                  083046656000172MAESTRO DO BRASIL INDUSTRIA METALU      LOC PALMEIRAS BAIXA S/N                 URUSSANGA                               88840000SC46894000030228626639491-1     05022014700BANCO REAL- ABN AMRO0704201400000000000156009CC                                                                                                                                                                                                                                                                                                                                                                                           291677-10     000011
1046421000269COBR_CAUC_COR  POLPA DE MADEIRAS LTDA                  083046656000172MAESTRO DO BRASIL INDUSTRIA METALU      LOC PALMEIRAS BAIXA S/N                 URUSSANGA                               88840000SC46894000040228967239508-1     06022014700BANCO REAL- ABN AMRO1104201400000000000314169CC                                                                                                                                                                                                                                                                                                                                                                                           291677-11     000012
1046421000269COBR_CAUC_COR  POLPA DE MADEIRAS LTDA                  082984287000104IRMAOS FISCHER SA IND E COM             ROD.ANTONIO HEIL 5600 KM23              BRUSQUE                                 88352502SC46895000010228883839495-1     05022014700BANCO REAL- ABN AMRO2403201400000000000462392CC                                                                                                                                                                                                                                                                                                                                                                                           291677-12     000013
1046421000269COBR_CAUC_COR  POLPA DE MADEIRAS LTDA                  082984287000104IRMAOS FISCHER SA IND E COM             ROD.ANTONIO HEIL 5600 KM23              BRUSQUE                                 88352502SC46895000020228971139506-1     06022014700BANCO REAL- ABN AMRO0704201400000000000557405CC                                                                                                                                                                                                                                                                                                                                                                                           291677-13     000014
1046421000269COBR_CAUC_COR  POLPA DE MADEIRAS LTDA                  082984287000104IRMAOS FISCHER SA IND E COM             ROD.ANTONIO HEIL 5600 KM23              BRUSQUE                                 88352502SC46895000030228979639502-1     06022014700BANCO REAL- ABN AMRO2803201400000000000477480CC                                                                                                                                                                                                                                                                                                                                                                                           291677-14     000015
1046421000269COBR_CAUC_COR  POLPA DE MADEIRAS LTDA                  085325868000114IBMF INDUSTRIA DE MATERIAIS PARA C      RUA VERINO FORTUNATO COAN 576 CXP 203   BRACO DO NORTE                          88750000SC46896000010228254639477-1     31012014700BANCO REAL- ABN AMRO2503201400000000000144432CC                                                                                                                                                                                                                                                                                                                                                                                           291677-15     000016
1046421000269COBR_CAUC_COR  POLPA DE MADEIRAS LTDA                  085325868000114IBMF INDUSTRIA DE MATERIAIS PARA C      RUA VERINO FORTUNATO COAN 576 CXP 203   BRACO DO NORTE                          88750000SC46896000020228886239493-1     05022014700BANCO REAL- ABN AMRO2803201400000000001042856CC                                                                                                                                                                                                                                                                                                                                                                                           291677-16     000017
1046421000269COBR_CAUC_BIC  POLPA DE MADEIRAS LTDA                  079416459000120PAMPLONA ELETROMETALURGICA LTDA         R CARLOS ALBERTO PAMPLONA 170           BLUMENAU                                89032520SC46897000010227822139461-1     28012014046FLORIANOPOLIS       2403201400000000000253709CC                                                                                                                                                                                                                                                                                                                                                                                           291677-17     000018
1046421000269COBR_CAUC_BIC  POLPA DE MADEIRAS LTDA                  079416459000120PAMPLONA ELETROMETALURGICA LTDA         R CARLOS ALBERTO PAMPLONA 170           BLUMENAU                                89032520SC46897000020228884639494-2     05022014046FLORIANOPOLIS       2104201400000000000131211CC                                                                                                                                                                                                                                                                                                                                                                                           291677-18     000019
1046421000269COBR_CAUC_BIC  POLPA DE MADEIRAS LTDA                  079416459000120PAMPLONA ELETROMETALURGICA LTDA         R CARLOS ALBERTO PAMPLONA 170           BLUMENAU                                89032520SC46897000030228885439494-1     05022014046FLORIANOPOLIS       0104201400000000000131211CC                                                                                                                                                                                                                                                                                                                                                                                           291677-19     000020
1046421000269COBR_CAUC_BIC  POLPA DE MADEIRAS LTDA                  079416459000120PAMPLONA ELETROMETALURGICA LTDA         R CARLOS ALBERTO PAMPLONA 170           BLUMENAU                                89032520SC46897000040227821239461-2     28012014046FLORIANOPOLIS       1404201400000000000253709CC                                                                                                                                                                                                                                                                                                                                                                                           291677-20     000021
1046421000269COBR_CAUC_BIC  POLPA DE MADEIRAS LTDA                  096738216000128SABAO IMPERIAL LTDA                     R JACY PORTO 828                        SAO LEOPOLDO                            93025120RS46898000010228881139498-1     05022014015PORTO ALEGRE        2403201400000000000460871CC                                                                                                                                                                                                                                                                                                                                                                                           291677-21     000022
1046421000269COBR_CAUC_BIC  POLPA DE MADEIRAS LTDA                  096738216000128SABAO IMPERIAL LTDA                     R JACY PORTO 828                        SAO LEOPOLDO                            93025120RS46898000020228978839503-1     06022014015PORTO ALEGRE        2603201400000000000230888CC                                                                                                                                                                                                                                                                                                                                                                                           291677-22     000023
1046421000269COBR_CAUC_COR  POLPA DE MADEIRAS LTDA                  005217938000262FRANGOS MONTANARI INDUSTRIA E COME      RUA CORONEU LICA RAMOS, 266             LAGES                                   88508320SC46899000010228968139507-3     06022014700BANCO REAL- ABN AMRO0704201400000000000202500CC                                                                                                                                                                                                                                                                                                                                                                                           291677-23     000024
1046421000269COBR_CAUC_COR  POLPA DE MADEIRAS LTDA                  005217938000262FRANGOS MONTANARI INDUSTRIA E COME      RUA CORONEU LICA RAMOS, 266             LAGES                                   88508320SC46899000020228969939507-2     06022014700BANCO REAL- ABN AMRO3103201400000000000202500CC                                                                                                                                                                                                                                                                                                                                                                                           291677-24     000025
1046421000269COBR_CAUC_COR  POLPA DE MADEIRAS LTDA                  005217938000262FRANGOS MONTANARI INDUSTRIA E COME      RUA CORONEU LICA RAMOS, 266             LAGES                                   88508320SC46899000030228970239507-1     06022014700BANCO REAL- ABN AMRO2403201400000000000202500CC                                                                                                                                                                                                                                                                                                                                                                                           291677-25     000026
1046421000269COBR_CAUC_COR  POLPA DE MADEIRAS LTDA                  004369102000130VITALE PARTICIPACOES E EMPREEDIMEN      BR 282 KM 225 SN                        LAGES                                   88502970SC46900000010228972939505-3     06022014700BANCO REAL- ABN AMRO0204201400000000000180800CC                                                                                                                                                                                                                                                                                                                                                                                           291677-26     000027
1046421000269COBR_CAUC_COR  POLPA DE MADEIRAS LTDA                  004369102000130VITALE PARTICIPACOES E EMPREEDIMEN      BR 282 KM 225 SN                        LAGES                                   88502970SC46900000020228973739505-2     06022014700BANCO REAL- ABN AMRO2603201400000000000180800CC                                                                                                                                                                                                                                                                                                                                                                                           291677-27     000028
1046421000269COBR_CAUC_COR  POLPA DE MADEIRAS LTDA                  082134073000130FRANGOS MORGANA ABATE DE AVES LTDA      R SERTAOZINHO DO ARIRIU, S/N            PALHOCA                                 88135600SC46901000010228975339504-3     06022014700BANCO REAL- ABN AMRO2603201400000000000224250CC                                                                                                                                                                                                                                                                                                                                                                                           291677-28     000029
9000028                                                                                                                                                                                                                                                                                                                                                                                                                                                                                                                                                                                                                                                                                                               000030
