0REMESSANOTIFICAÇÃO ELETRONICA        99999999999999Bicbanco S/A                            Avenida Paulista                        1048      12º andar BELA VISTA                    SÃO PAULO                     01310100SPBicbanco S/A                                                                    06092011                                                                                                                                                                                                                                                                                                                                                                                                000001
1046421005287DIR_CREDIT     GEOMAIS GEOTECNOLOGIA LTDA              083102269000106PM DE SAO FRANCISCO DO SUL              PçA GETULIO VARGAS 01                   SAO FRANCISCO DO SUL                    89240000SC2993400001                                                                                                                                          481005356           060520100000016893            14012011000404Fornecimento de produtos e serviços de levantamento cadastral, implantação e treinamento de sistema de informações geográficas (SIG) aplicado ao cadastro imobiliário, logradouros e plano diretor.                                             009391371000116143513-1      000002
1007421006183COBR_CAUC_COR  NITRIFLEX S/A IND E COMERCIO            036193845000198TERMOLITE INDUSTRIA E COMERCIO LTD      ESTR BELFORD ROXO, 1800                 BELFORD ROXO                            26110260RJ299900000100761299001110501   31082011800UNIBANCO S/A        1409201100000000028761057CC                                                                                                                                                                                                                                                                                                                                                                                           143513-2      000003
1007421006183COBR_CAUC_BIC  NITRIFLEX S/A IND E COMERCIO            036193928000187TEADIT IND. E COMERCIO LTDA.            AV.PASTOR MARTIN LUTHER KING JR, 8939   RIO DE JANEIRO                          21530012RJ299910000100761281001110601   31082011014RIO DE JANEIRO      1509201100000000032287511CC                                                                                                                                                                                                                                                                                                                                                                                           143513-3      000004
1007421053971COBR_CAUC_BIC  VIDA ALIMENTOS LTDA                     004064643000150NOVO MILENIO COMERCIAL LTDA             R DO BUCOLISMO, 81BOX T-48              SAO PAULO                               03008040SP2999200001007640510003322202  31082011007PAULISTA            1509201100000000010325333CC                                                                                                                                                                                                                                                                                                                                                                                           143513-4      000005
1014420939021COBR_CAUC_BIC  EDITORA O DIA S/A                       033747288000111FEDER.EMPR.TRANSP.RODOV.LESTE M.BR      RUA DA ASSEMBLEIA 10 39 A/C. SR.ED      RIO DE JANEIRO                          20119900RJ2999300001023566540607610     31082011014RIO DE JANEIRO      1509201100000000013964916CC                                                                                                                                                                                                                                                                                                                                                                                           143513-5      000006
1007421017118COBR_CAUC_BIC  NILPEL IND E COM DE PAPEIS LTDA         035402759000185BIMBO DO BRASIL LTDA                    RUA ERICO VERISSIMO, Nº 342             SÃO PAULO                               05560900SP299940000100762104NFE-35940-  30082011007PAULISTA            1410201100000000023520000CC                                                                                                                                                                                                                                                                                                                                                                                           143513-6      000007
1007421034080COBR_CAUC_COR  SIDMEX INTERNACIONAL LTDA               010658548000187MODAS CALLY COMERCIO E CONFECCAO L      ANTONIO HEIL,635-LOJA 77                BRUSQUE                                 88352500SC299950000100763739324.11-2    31082011900BRADESCO S/A        0510201100000000012197106CC                                                                                                                                                                                                                                                                                                                                                                                           143513-7      000008
1008421018382DIR_CREDIT     CAPTAR SERVICOS TECNICOS LTDA           000394460045404DELEGACIA DA RECEITA FEDERAL DO BRASIL  RUA LUIS COELHO,197                     SAO PAULO                               59000000SP2999700001                                                                                                                                          011285905           01112005000001239018/2005     18012011000403CONTRATAÇÃO ESPECIALIZADA PARA PRESTAÇÃO DE SERVIÇOS TERCEIRIZADOS CONTINUADOS DO SEGUINTES PONTOS DE TRABALHO:30 POSTOS DE SECRETARIA NIVEL MEDIO,80 POSTOS DE RECEPCIONISTAS E 32 POSTOS MENSAGEIROS.                                         002590700000109143513-8      000009
1008421018382DIR_CREDIT     CAPTAR SERVICOS TECNICOS LTDA           000394460045404DELEGACIA DA RECEITA FEDERAL DO BRASIL  RUA LUIS COELHO,197                     SAO PAULO                               59000000SP2999800001                                                                                                                                          481023440           01112005000001239018/2005     22062011000404CONTRATAÇÃO ESPECIALIZADA PARA PRESTAÇÃO DE SERVIÇOS TERCEIRIZADOS CONTINUADOS DO SEGUINTES PONTOS DE TRABALHO:30 POSTOS DE SECRETARIA NIVEL MEDIO,80 POSTOS DE RECEPCIONISTAS E 32 POSTOS MENSAGEIROS.                                         002590700000109143513-9      000010
1008421019281DIR_CREDIT     CAPTAR SERVICOS TECNICOS LTDA           005424487000153JUSTICA FEDERAL DE PRIMEIRA INSTANCIA CEPRAÇA MURILO BORGES,01                  FORTALEZA                               60035210CE2999900001                                                                                                                                          011426754           15022008000001266306/2008     06052011000403A PRESTAÇÃO DE SERVIÇOS CONTINUADOS DE LIMPEZA,ASSEIO E CONSERVAÇÃO PREDIAL E DEMAIS SERVIÇOS AUXILIARES A SEREM PRESTADOS NOS IMÓVEIS DA SEÇÃO JUDICIARIA DO CEARÁ.                                                                            002590700000109143513-10     000011
1008421019281DIR_CREDIT     CAPTAR SERVICOS TECNICOS LTDA           005424487000153JUSTICA FEDERAL DE PRIMEIRA INSTANCIA CEPRAÇA MURILO BORGES,01                  FORTALEZA                               60035210CE3000000001                                                                                                                                          481023459           15022008000001266306/2008     24062011000404A PRESTAÇÃO DE SERVIÇOS CONTINUADOS DE LIMPEZA,ASSEIO E CONSERVAÇÃO PREDIAL E DEMAIS SERVIÇOS AUXILIARES A SEREM PRESTADOS NOS IMÓVEIS DA SEÇÃO JUDICIARIA DO CEARÁ.                                                                            002590700000109143513-11     000012
1028421007486DIR_CREDIT     WEBROOM SOLUCOES INTERATIVAS LTDA       004123616000100BROOKFIELD MB EMPREENDIMENTOS IMOB. SA  AV T-9, 1423 - SETOR BUENO              GOIANIA                                 74215020GO2996500001                                                                                                                                          481007504           230520110000019527S/N         29082011000404Serviços de mídia.                                                                                                                                                                                                                              004043336000192143678-1      000013
1018421029172DIR_CREDIT     BARSIL CONSTRUCOES E COMERCIO LTDA      071476527001883CONSTRUTORA TENDA S.A                   RUA SETE S/N Q 06 L 29 CENTRO           GOIANIA                                 74375150GO2997000001                                                                                                                                          011501123           010220110000018908            30082011000403EXECUCAO DOS SERVICOS DE CONSTRUCAO CIVIL DO RESIDENCIAL DENOMINADO PARQUE GREEN VILLAGE DUO EM APERECIDA GOIANIA-GO                                                                                                                            001540806000135143678-2      000014
1003421010775COBR_CAUC_COR  NUFARM IND QUIM FARMACEUTICA S/A        001792003000178AGROLINE COM DE PRODUTOS VETERINAR      RUA QUATORZE DE JULHO, 575              CAMPO GRANDE                            79004390MS300010000104017275 001791502  30062011800UNIBANCO S/A        3003201200000000011286000CC                                                                                                                                                                                                                                                                                                                                                                                           143678-3      000015
1003421010775COBR_CAUC_COR  NUFARM IND QUIM FARMACEUTICA S/A        001792003000178AGROLINE COM DE PRODUTOS VETERINAR      RUA QUATORZE DE JULHO, 575              CAMPO GRANDE                            79004390MS300010000204017283 001792402  30062011800UNIBANCO S/A        3003201200000000011286000CC                                                                                                                                                                                                                                                                                                                                                                                           143678-4      000016
1003421010775COBR_CAUC_BIC  NUFARM IND QUIM FARMACEUTICA S/A        005554364000137SIGMA AGROPECUARIA LTDA.                AVENIDA MIGUEL SUTIL, 10040             CUIABA                                  78040365MT300020000104017755 001875502  24072011024CUIABA              3003201200000000011286000CC                                                                                                                                                                                                                                                                                                                                                                                           143678-5      000017
1003421010775COBR_CAUC_BIC  NUFARM IND QUIM FARMACEUTICA S/A        005554364000137SIGMA AGROPECUARIA LTDA.                AVENIDA MIGUEL SUTIL, 10040             CUIABA                                  78040365MT300020000204017763 001875702  24072011024CUIABA              3003201200000000011286000CC                                                                                                                                                                                                                                                                                                                                                                                           143678-6      000018
1003421010775COBR_CAUC_COR  NUFARM IND QUIM FARMACEUTICA S/A        010943866000190PRECILIANO E LOPES LTDA ME              AV DJALMA DUTRA, 2091                   ALTAMIRA                                68371163PA300030000104017771 001879001  24072011600HSBC BANK BRASIL    2003201200000000011286000CC                                                                                                                                                                                                                                                                                                                                                                                           143678-7      000019
1003421010775COBR_CAUC_COR  NUFARM IND QUIM FARMACEUTICA S/A        022881858000145HILGERT E CIA LTDA                      AV. MARECHAL RONDON, 1327               JI-PARANA                               78961390RO300040000104017291 001793801  30062011800UNIBANCO S/A        3003201200000000011628000CC                                                                                                                                                                                                                                                                                                                                                                                           143678-8      000020
1003421010775COBR_CAUC_COR  NUFARM IND QUIM FARMACEUTICA S/A        022881858000145HILGERT E CIA LTDA                      AV. MARECHAL RONDON, 1327               JI-PARANA                               78961390RO300040000204017305 001794001  30062011800UNIBANCO S/A        3003201200000000011628000CC                                                                                                                                                                                                                                                                                                                                                                                           143678-9      000021
1003421010775COBR_CAUC_COR  NUFARM IND QUIM FARMACEUTICA S/A        022881858000145HILGERT E CIA LTDA                      AV. MARECHAL RONDON, 1327               JI-PARANA                               78961390RO300040000304017313 001794201  30062011800UNIBANCO S/A        3003201200000000011628000CC                                                                                                                                                                                                                                                                                                                                                                                           143678-10     000022
1019421004658COBR_CAUC_COR  S/A ESTADO DE MINAS                     033000118000179TELEMAR NORTE LESTE S A                 R GENERAL POLIDORO 99 1.AND-A C AU      RIO DE JANEIRO                          22280004RJ300050000101125750549858-1    31082011900BRADESCO S/A        1510201100000000013200000CC                                                                                                                                                                                                                                                                                                                                                                                           143678-11     000023
1016421019267COBR_CAUC_COR  COBRAZEM AGROINDUSTRIAL LTDA            002489004000100GLOBOSUINOS AGROPECUARIA S/A            RUA MATE LARANJEIRAS,0                  TOLEDO                                  85907150PR3000600001031668380000544-01  01092011800UNIBANCO S/A        0410201100000000026325000CC                                                                                                                                                                                                                                                                                                                                                                                           143678-12     000024
1016421019267COBR_CAUC_COR  COBRAZEM AGROINDUSTRIAL LTDA            002489004000100GLOBOSUINOS AGROPECUARIA S/A            RUA MATE LARANJEIRAS,0                  TOLEDO                                  85907150PR3000600002031668970000543-01  01092011800UNIBANCO S/A        0410201100000000026325000CC                                                                                                                                                                                                                                                                                                                                                                                           143678-13     000025
1016421018104COBR_CAUC_COR  METALGRAFICA TRIVISAN S/A               002921346000158ANJO QUIMICA DO BRASIL LTDA             RODOVIA SC.447 KM-2,0                   CRICIUMA                                88817440SC3000800001031306986044/2      27072011600HSBC BANK BRASIL    2809201100000000001642695CC                                                                                                                                                                                                                                                                                                                                                                                           143678-14     000026
1016421018104COBR_CAUC_COR  METALGRAFICA TRIVISAN S/A               002921346000158ANJO QUIMICA DO BRASIL LTDA             RODOVIA SC.447 KM-2,0                   CRICIUMA                                88817440SC3000800002031377576100/2      29072011600HSBC BANK BRASIL    2809201100000000000919657CC                                                                                                                                                                                                                                                                                                                                                                                           143678-15     000027
1016421018104COBR_CAUC_COR  METALGRAFICA TRIVISAN S/A               002921346000158ANJO QUIMICA DO BRASIL LTDA             RODOVIA SC.447 KM-2,0                   CRICIUMA                                88817440SC3000800003031377736102/2      29072011600HSBC BANK BRASIL    2809201100000000000093132CC                                                                                                                                                                                                                                                                                                                                                                                           143678-16     000028
1016421018104COBR_CAUC_COR  METALGRAFICA TRIVISAN S/A               002921346000158ANJO QUIMICA DO BRASIL LTDA             RODOVIA SC.447 KM-2,0                   CRICIUMA                                88817440SC3000800004031590176396/1      22082011600HSBC BANK BRASIL    2609201100000000001752655CC                                                                                                                                                                                                                                                                                                                                                                                           143678-17     000029
1016421018104COBR_CAUC_COR  METALGRAFICA TRIVISAN S/A               002921346000158ANJO QUIMICA DO BRASIL LTDA             RODOVIA SC.447 KM-2,0                   CRICIUMA                                88817440SC3000800005031590256396/2      22082011600HSBC BANK BRASIL    0310201100000000001752654CC                                                                                                                                                                                                                                                                                                                                                                                           143678-18     000030
1016421018104COBR_CAUC_COR  METALGRAFICA TRIVISAN S/A               002921346000158ANJO QUIMICA DO BRASIL LTDA             RODOVIA SC.447 KM-2,0                   CRICIUMA                                88817440SC3000800006031590336426/1      24082011600HSBC BANK BRASIL    2809201100000000001316404CC                                                                                                                                                                                                                                                                                                                                                                                           143678-19     000031
1016421018104COBR_CAUC_COR  METALGRAFICA TRIVISAN S/A               002921346000158ANJO QUIMICA DO BRASIL LTDA             RODOVIA SC.447 KM-2,0                   CRICIUMA                                88817440SC3000800007031590416426/2      24082011600HSBC BANK BRASIL    0510201100000000001316404CC                                                                                                                                                                                                                                                                                                                                                                                           143678-20     000032
1016421018104COBR_CAUC_BIC  METALGRAFICA TRIVISAN S/A               001675793000101HUTCHINSON DO BRASIL S/A                RUA AUREA TAVARES,580-480/580           TABOAO DA SERRA                         06765902SP3000900001031235605909        18072011007PAULISTA            1609201100000000002303997CC                                                                                                                                                                                                                                                                                                                                                                                           143678-21     000033
1016421018104COBR_CAUC_BIC  METALGRAFICA TRIVISAN S/A               001675793000101HUTCHINSON DO BRASIL S/A                RUA AUREA TAVARES,580-480/580           TABOAO DA SERRA                         06765902SP3000900002031263645968        21072011007PAULISTA            1909201100000000003396594CC                                                                                                                                                                                                                                                                                                                                                                                           143678-22     000034
1016421018104COBR_CAUC_BIC  METALGRAFICA TRIVISAN S/A               001675793000101HUTCHINSON DO BRASIL S/A                RUA AUREA TAVARES,580-480/580           TABOAO DA SERRA                         06765902SP3000900003031511486354        18082011007PAULISTA            1710201100000000001020320CC                                                                                                                                                                                                                                                                                                                                                                                           143678-23     000035
1016421018104COBR_CAUC_BIC  METALGRAFICA TRIVISAN S/A               001675793000101HUTCHINSON DO BRASIL S/A                RUA AUREA TAVARES,580-480/580           TABOAO DA SERRA                         06765902SP3000900004031589916378        20082011007PAULISTA            1910201100000000003091063CC                                                                                                                                                                                                                                                                                                                                                                                           143678-24     000036
1016421018104COBR_CAUC_BIC  METALGRAFICA TRIVISAN S/A               001675793000101HUTCHINSON DO BRASIL S/A                RUA AUREA TAVARES,580-480/580           TABOAO DA SERRA                         06765902SP3000900005031590096381        20082011007PAULISTA            1910201100000000002794990CC                                                                                                                                                                                                                                                                                                                                                                                           143678-25     000037
9000036                                                                                                                                                                                                                                                                                                                                                                                                                                                                                                                                                                                                                                                                                                               000038
