0REMESSANOTIFICAÇÃO ELETRONICA        99999999999999Bicbanco S/A                            Avenida Paulista                        1048      12º andar BELA VISTA                    SÃO PAULO                     01310100SPBicbanco S/A                                                                    23032011                                                                                                                                                                                                                                                                                                                                                                                                000001
1003421010775COBR_CAUC_COR  NUFARM IND QUIM FARMACEUTICA S/A        003718848000149RURAL TECNICA PRODUTOS AGROPECUARI      R. RIO VERDE 505,                       JATAI                                   75800093GO268390000103918597 000769401  23072010600HSBC BANK BRASIL    3005201100000000010489525CC                                                                                                                                                                                                                                                                                                                                                                                           125619-1      000002
1003421010775COBR_CAUC_COR  NUFARM IND QUIM FARMACEUTICA S/A        003718848000149RURAL TECNICA PRODUTOS AGROPECUARI      R. RIO VERDE 505,                       JATAI                                   75800093GO268390000203918708 000794201  28072010600HSBC BANK BRASIL    3005201100000000018000000CC                                                                                                                                                                                                                                                                                                                                                                                           125619-2      000003
1003421010775COBR_CAUC_COR  NUFARM IND QUIM FARMACEUTICA S/A        094106747000172MARASCA COM. DE CEREAIS LTDA            BR 377 KM 01                            CRUZ ALTA                               98035210RS268400000103918678 000790001  27072010900BRADESCO S/A        3005201100000000087000000CC                                                                                                                                                                                                                                                                                                                                                                                           125619-3      000004
1003421010775COBR_CAUC_COR  NUFARM IND QUIM FARMACEUTICA S/A        094106747000172MARASCA COM. DE CEREAIS LTDA            BR 377 KM 01                            CRUZ ALTA                               98035210RS268400000203918686 000790201  27072010900BRADESCO S/A        3005201100000000029000000CC                                                                                                                                                                                                                                                                                                                                                                                           125619-4      000005
1007420931444COBR_CAUC_COR  PLASINCO LTDA                           002554135000124ACOME DO BRASIL LTDA                    RUA VEREADOR FRANCOIS ABIB,400          IRATI                                   84500000PR26841000010044370011213-B     17032011900BRADESCO S/A        1604201100000000028076832CC                                                                                                                                                                                                                                                                                                                                                                                           125619-5      000006
1007420931444COBR_CAUC_COR  PLASINCO LTDA                           002554135000124ACOME DO BRASIL LTDA                    RUA VEREADOR FRANCOIS ABIB,400          IRATI                                   84500000PR26841000020044371811213-A     17032011900BRADESCO S/A        1604201100000000028076832CC                                                                                                                                                                                                                                                                                                                                                                                           125619-6      000007
1048421000613COBR_CAUC_BIC  TRIANGULO ALIMENTOS LTDA                070940994005928PANDURATA ALIMENTOS LTDA                R ENDRES                                GUARULHOS                               07043000SP2684200001003088020001806146  21032011037GUARULHOS           0405201100000000010225000CC                                                                                                                                                                                                                                                                                                                                                                                           125619-7      000008
1048421000613COBR_CAUC_BIC  TRIANGULO ALIMENTOS LTDA                070940994005928PANDURATA ALIMENTOS LTDA                R ENDRES                                GUARULHOS                               07043000SP2684200002003088110001806160  21032011037GUARULHOS           0405201100000000010225000CC                                                                                                                                                                                                                                                                                                                                                                                           125619-8      000009
1007421049451COBR_CAUC_COR  RIGOR ALIMENTOS LTDA                    001928075002062DMA DISTRIBUIDORA SA                    ROD BR 040, 180 KM 531                  BELO HORIZONTE                          30855500MG268430000100006482103552      18032011900BRADESCO S/A        1504201100000000013095000CC                                                                                                                                                                                                                                                                                                                                                                                           125619-9      000010
1037421007698COBR_CAUC_BIC  HOSP - LOG COM DE PROD HOSP LTDA        008389832000234SP DISTRIBUIDORA DE VACINAS E MED       AV AYRTON SENNA, 4701 SL 215/217        RIO DE JANEIRO                          22775004RJ2684400001044570850102162 01  17032011014RIO DE JANEIRO      1605201100000000012567375CC                                                                                                                                                                                                                                                                                                                                                                                           125619-10     000011
1037421007698COBR_CAUC_BIC  HOSP - LOG COM DE PROD HOSP LTDA        008389832000234SP DISTRIBUIDORA DE VACINAS E MED       AV AYRTON SENNA, 4701 SL 215/217        RIO DE JANEIRO                          22775004RJ2684400002044578160102055 01  16032011014RIO DE JANEIRO      1505201100000000013880517CC                                                                                                                                                                                                                                                                                                                                                                                           125619-11     000012
1037421007698COBR_CAUC_BIC  HOSP - LOG COM DE PROD HOSP LTDA        008389832000234SP DISTRIBUIDORA DE VACINAS E MED       AV AYRTON SENNA, 4701 SL 215/217        RIO DE JANEIRO                          22775004RJ2684400003044579560102239 01  17032011014RIO DE JANEIRO      1605201100000000010727500CC                                                                                                                                                                                                                                                                                                                                                                                           125619-12     000013
1037421007698COBR_CAUC_BIC  HOSP - LOG COM DE PROD HOSP LTDA        008389832000234SP DISTRIBUIDORA DE VACINAS E MED       AV AYRTON SENNA, 4701 SL 215/217        RIO DE JANEIRO                          22775004RJ2684400004044631910101929 01  15032011014RIO DE JANEIRO      1405201100000000012090640CC                                                                                                                                                                                                                                                                                                                                                                                           125619-13     000014
1037421007698COBR_CAUC_BIC  HOSP - LOG COM DE PROD HOSP LTDA        076498013000102HOSP.NOSSA SENHORA DO PILAR S/A         AV DESEMBARGADOR HUGO SIMAS 322         CURITIBA                                80520250PR2684500001044603450102529 01  18032011016CURITIBA            0606201100000000063532002CC                                                                                                                                                                                                                                                                                                                                                                                           125619-14     000015
1037421007698COBR_CAUC_BIC  HOSP - LOG COM DE PROD HOSP LTDA        076498013000102HOSP.NOSSA SENHORA DO PILAR S/A         AV DESEMBARGADOR HUGO SIMAS 322         CURITIBA                                80520250PR2684500002044623810102322 01  17032011016CURITIBA            1006201100000000014412283CC                                                                                                                                                                                                                                                                                                                                                                                           125619-15     000016
9000015                                                                                                                                                                                                                                                                                                                                                                                                                                                                                                                                                                                                                                                                                                               000017
