0REMESSANOTIFICAÇÃO ELETRONICA        99999999999999Bicbanco S/A                            Avenida Paulista                        1048      12º andar BELA VISTA                    SÃO PAULO                     01310100SPBicbanco S/A                                                                    23112010                                                                                                                                                                                                                                                                                                                                                                                                000001
1021420930887COBR_CAUC_COR  DEDINI S/A INDUSTRIAS DE BASE           008657268000102USINA RIO PARDO LTDA                    FAZ S PEDRO SP 280 ROD C BRANCO KM260 ENCERQUEIRA CESAR                         18760000SP250960000105979877128929-6-6  19112010900BRADESCO S/A        1503201100000000011000000CC                                                                                                                                                                                                                                                                                                                                                                                           116224-1      000002
1021420930887COBR_CAUC_COR  DEDINI S/A INDUSTRIAS DE BASE           016617789000164AGROPEU AGRO INDUSTRIAL DE POMPEU       ROD MG 060 ZONA RURAL BR                POMPEU                                  35640000MG250970000105979851132156-5-5  19112010900BRADESCO S/A        0803201100000000020000000CC                                                                                                                                                                                                                                                                                                                                                                                           116224-2      000003
1015420931819COBR_CAUC_COR  COOPERATIVA TRITICOLA ERECHIM LTDA      083310441000117COOPERATIVA CENTRAL OESTE CATARINE      RUA JOAO MARTINS, 219 D                 CHAPECO                                 89803901SC2509800001007803971           12112010900BRADESCO S/A        0701201100000000022000000CC                                                                                                                                                                                                                                                                                                                                                                                           116224-3      000004
1015420931819COBR_CAUC_COR  COOPERATIVA TRITICOLA ERECHIM LTDA      083310441000117COOPERATIVA CENTRAL OESTE CATARINE      RUA JOAO MARTINS, 219 D                 CHAPECO                                 89803901SC2509800002007804274           12112010900BRADESCO S/A        0701201100000000017025000CC                                                                                                                                                                                                                                                                                                                                                                                           116224-4      000005
1008421006830COBR_CAUC_COR  NORTEX INDUSTRIA E COMERCIO S/A         004034233000166PETROPOLIS TECIDOS LTDA                 AV LOURIVAL JOSE SILVA 762 APETROPLIS   CARUARU                                 55030200PE250990000100337261000545*     18112010900BRADESCO S/A        2802201100000000032541925CC                                                                                                                                                                                                                                                                                                                                                                                           116224-5      000006
1008421006830COBR_CAUC_COR  NORTEX INDUSTRIA E COMERCIO S/A         004034233000166PETROPOLIS TECIDOS LTDA                 AV LOURIVAL JOSE SILVA 762 APETROPLIS   CARUARU                                 55030200PE250990000200337279000546*     18112010900BRADESCO S/A        2802201100000000032522165CC                                                                                                                                                                                                                                                                                                                                                                                           116224-6      000007
1022421004755COBR_CAUC_COR  FRIGOL S.A. EM RECUPERACAO JUDICIAL     010142068000169FRIGOMIX INDUSTRIA E COM DE CARNES      RUA AYRTON SENNA DA SILVA, 820          ITAGUAI                                 23810760RJ2510000001000915524847        19112010900BRADESCO S/A        2611201000000000018059389CC                                                                                                                                                                                                                                                                                                                                                                                           116224-7      000008
1007421035337COBR_CAUC_COR  COML IMP E EXP LA RIOJA LTDA            003310865000738ALCAMP COML LTDA                        AV COMENDADOR ALADINO SELMI, 4840       CAMPINAS                                13069096SP25101000010028214544897       17112010900BRADESCO S/A        2801201100000000010800000CC                                                                                                                                                                                                                                                                                                                                                                                           116224-8      000009
1007421034080COBR_CAUC_BIC  SIDMEX INTERNACIONAL LTDA               027093558001359MILLS ESTRUTURAS E SERVICOS DE ENG      RUA HUMBERTO CAMPOS,271                 OSASCO                                  06126280SP251020000100230862319         19112010007PAULISTA            3011201000000000010058543CC                                                                                                                                                                                                                                                                                                                                                                                           116224-9      000010
1007421034080COBR_CAUC_BIC  SIDMEX INTERNACIONAL LTDA               027093558001359MILLS ESTRUTURAS E SERVICOS DE ENG      RUA HUMBERTO CAMPOS,271                 OSASCO                                  06126280SP251020000200230871320         19112010007PAULISTA            3011201000000000011359895CC                                                                                                                                                                                                                                                                                                                                                                                           116224-10     000011
1007421034080COBR_CAUC_BIC  SIDMEX INTERNACIONAL LTDA               027093558001359MILLS ESTRUTURAS E SERVICOS DE ENG      RUA HUMBERTO CAMPOS,271                 OSASCO                                  06126280SP251020000300230889321         19112010007PAULISTA            3011201000000000011359895CC                                                                                                                                                                                                                                                                                                                                                                                           116224-11     000012
9000011                                                                                                                                                                                                                                                                                                                                                                                                                                                                                                                                                                                                                                                                                                               000013
