0REMESSANOTIFICAÇÃO ELETRONICA        99999999999999Bicbanco S/A                            Avenida Paulista                        1048      12º andar BELA VISTA                    SÃO PAULO                     01310100SPBicbanco S/A                                                                    05112010                                                                                                                                                                                                                                                                                                                                                                                                000001
1014421012444COBR_CAUC_COR  HOTEIS OTHON S/A.                       007575651000310VRG LINHAS AEREAS S A                   PCA SEN SALGADO FILHO S N SALA 02       RIO DE JANEIRO                          20021971RJ2488500001000601711200491501  03112010900BRADESCO S/A        2711201000000000027714000CC                                                                                                                                                                                                                                                                                                                                                                                           114970-1      000002
1015421010253COBR_CAUC_BIC  MUNDIAL S/A PRODUTOS DE CONSUMO         025769266000124ARCOM S A                               ANEL VIARIO AYRTON SENA BR 365 050 2001 UBERLANDIA                              38414512MG2488600001007762501450313401  03112010028UBERLANDIA          1001201100000000012393934CC                                                                                                                                                                                                                                                                                                                                                                                           114970-2      000003
1032421002555COBR_CAUC_BIC  ZZA SECURITIZADORA S.A.                 096662168006415DREBES & CIA LTDA                       RUA 14 DE JULHO, 160                    SAO JERONIMO                            96700000RS2488700001085681630117070101  30102010015PORTO ALEGRE        1901201100000000011753760CC                                                                                                                                                                                                                                                                                                                                                                                           114970-3      000004
1032421002555COBR_CAUC_BIC  ZZA SECURITIZADORA S.A.                 096662168006415DREBES & CIA LTDA                       RUA 14 DE JULHO, 160                    SAO JERONIMO                            96700000RS2488700002085681710117070201  30102010015PORTO ALEGRE        1901201100000000011753760CC                                                                                                                                                                                                                                                                                                                                                                                           114970-4      000005
1014421018213COBR_CAUC_COR  POWERTECH COMERCIAL LTDA.               009277504001795COMPANHIA BRASILEIRA DE LOCACOES        RUA PARQUE INDUSTRIAL,389               BOA VISTA                               69315218RR248880000100015931001463-B    13102010900BRADESCO S/A        3011201000000000015233300CC                                                                                                                                                                                                                                                                                                                                                                                           114970-5      000006
1014421018213COBR_CAUC_COR  POWERTECH COMERCIAL LTDA.               009277504001795COMPANHIA BRASILEIRA DE LOCACOES        RUA PARQUE INDUSTRIAL,389               BOA VISTA                               69315218RR248880000200015957001463-C    13102010900BRADESCO S/A        3012201000000000015233400CC                                                                                                                                                                                                                                                                                                                                                                                           114970-6      000007
9000006                                                                                                                                                                                                                                                                                                                                                                                                                                                                                                                                                                                                                                                                                                               000008
