0REMESSANOTIFICAÇÃO ELETRONICA        99999999999999Bicbanco S/A                            Avenida Paulista , 1048 12º andar                           BELA VISTA                    SÃO PAULO                     01310100SPBicbanco S/A                                                                    26052010                                                                                                                                                                                                                                                                                                                                                                                                000001
1018421016232COBR_CAUC_COR  LEITBOM S/A                             023643315003097DANONE LTDA                             RUA ANTONIO BORTOLAN 163                POCOS DE CALDAS                         37704397MG2228600001010460320019686001  29042010900BRADESCO S/A        0207201000000000012046320CC                                                                                                                                                                                                                                                                                                                                                                                           100874-1      000002
1018421016232COBR_CAUC_COR  LEITBOM S/A                             023643315003097DANONE LTDA                             RUA ANTONIO BORTOLAN 163                POCOS DE CALDAS                         37704397MG2228600002010460410019713001  29042010900BRADESCO S/A        0207201000000000011907000CC                                                                                                                                                                                                                                                                                                                                                                                           100874-2      000003
1018421016232COBR_CAUC_COR  LEITBOM S/A                             023643315003097DANONE LTDA                             RUA ANTONIO BORTOLAN 163                POCOS DE CALDAS                         37704397MG2228600003010460590019808001  30042010900BRADESCO S/A        0207201000000000012046320CC                                                                                                                                                                                                                                                                                                                                                                                           100874-3      000004
1018421016232COBR_CAUC_COR  LEITBOM S/A                             023643315003097DANONE LTDA                             RUA ANTONIO BORTOLAN 163                POCOS DE CALDAS                         37704397MG2228600004010460670020746001  15052010900BRADESCO S/A        0207201000000000013003200CC                                                                                                                                                                                                                                                                                                                                                                                           100874-4      000005
1018421016232COBR_CAUC_COR  LEITBOM S/A                             023643315003097DANONE LTDA                             RUA ANTONIO BORTOLAN 163                POCOS DE CALDAS                         37704397MG2228600005016948910019779001  30042010900BRADESCO S/A        0207201000000000012742920CC                                                                                                                                                                                                                                                                                                                                                                                           100874-5      000006
1028421002921COBR_CAUC_COR  FRIGORIFICO MATABOI S/A                 076189406000126CONDOR SUPER CENTER LTDA                R. NICOLA PELANDA250                    CURITIBA                                81880000PR2228700001001392760001733701  17052010900BRADESCO S/A        1906201000000000010749373CC                                                                                                                                                                                                                                                                                                                                                                                           100874-6      000007
1028421002921COBR_CAUC_COR  FRIGORIFICO MATABOI S/A                 076189406000126CONDOR SUPER CENTER LTDA                R. NICOLA PELANDA250                    CURITIBA                                81880000PR2228700002001392840001739401  18052010900BRADESCO S/A        2006201000000000012630399CC                                                                                                                                                                                                                                                                                                                                                                                           100874-7      000008
1007421035337COBR_CAUC_COR  COML IMP E EXP LA RIOJA LTDA            001928075006483D M A DIST SA CARGA SECA                R HIBISMO GL 2, 210                     CONTAGEM                                32145000MG22288000010022613030307       19052010900BRADESCO S/A        0507201000000000023559859CC                                                                                                                                                                                                                                                                                                                                                                                           100874-8      000009
1029140511987COBR_CAUC_BIC  BRASFUMO IND BRAS DE FUMOS S/A          005648120000385TABACUM INTERAM.COM.EXP.DE FUMOS L      ROD RSC 287, S/N                        VENANCIO AIRES                          95800000RS2230400001092047316031        20052010015PORTO ALEGRE        1808201000000000010195800TD                                                                                                                                                                                                                                                                                                                                                                                           101156-1      000010
1024420934410COBR_CAUC_BIC  INTERCOOP INT SUIN MED NORTE MT LTD     044885291002838LOPESCO INDUSTRIA DE SUBPRODUTOS A      AV. MUNICIPAL ANTONIO LOPES N ,603      TATUI                                   18273303SP22305000010179833739331       18052010021CAMPINAS            0806201000000000010103600CC                                                                                                                                                                                                                                                                                                                                                                                           101156-2      000011
1038421000764COBR_CAUC_BIC  METROPOLITAN LOGIST COMERCIAL LTDA      061068276002816UNILEVER BRASIL LTDA                    AV JOSE LUIZ MAZZALI, 450 , PARTE       LOUVEIRA                                13290000SP223060000108724978517         20052010007PAULISTA            0706201000000000017387748CC                                                                                                                                                                                                                                                                                                                                                                                           101156-3      000012
1038421000764COBR_CAUC_BIC  METROPOLITAN LOGIST COMERCIAL LTDA      061068276002816UNILEVER BRASIL LTDA                    AV JOSE LUIZ MAZZALI, 450 , PARTE       LOUVEIRA                                13290000SP223060000208724986518         20052010007PAULISTA            0706201000000000018622744CC                                                                                                                                                                                                                                                                                                                                                                                           101156-4      000013
1016141008940COBR_CAUC_COR  COOPERATIVA RIO DO PEIXE                083310441000117AURORA S/A                              RUA JOAO MARTINS,219                    CHAPECO                                 89803901SC223070000102769423524208      15052010900BRADESCO S/A        0806201000000000022251525TD                                                                                                                                                                                                                                                                                                                                                                                           101156-5      000014
1016141008940COBR_CAUC_COR  COOPERATIVA RIO DO PEIXE                083310441000117AURORA S/A                              RUA JOAO MARTINS,219                    CHAPECO                                 89803901SC223070000202769474524199      15052010900BRADESCO S/A        1406201000000000012100059TD                                                                                                                                                                                                                                                                                                                                                                                           101156-6      000015
1042141002650COBR_CAUC_BIC  MAXXIMO SERV DE MONT E CONST LTDA       003715415000130J W ENGENHARIA MANT. INDUSTRIAL LT      AV. EMILIANO MACIEIRA KM 9              SAO LUIS                                65095602MA22308000010133977201/10       11052010042SAO LUIS            0309201000000000023100000TD                                                                                                                                                                                                                                                                                                                                                                                           101156-7      000016
1043421006742COBR_CAUC_BIC  DATA BRASIL PESQ OPINIAO PUBLICA LT     005575916000193SEC DE COMUNICAÇÃO DO ESTADO DA PA      RUA AFONSO CELSO, 1629                  SÃO PAULO                               04119000SP2233700001005339850216/10-A   12042010043JOAO PESSOA         1007201000000000016000000CC                                                                                                                                                                                                                                                                                                                                                                                           101156-8      000017
9000016                                                                                                                                                                                                                                                                                                                                                                                                                                                                                                                                                                                                                                                                                                               000018
