0REMESSANOTIFICAÇÃO ELETRONICA        99999999999999Bicbanco S/A                            Avenida Brigadeiro Faria Lima           4.440     2º andar  Itaim Bibi                    São Paulo                     04538132SPBicbanco S/A                                                                    13032012                                                                                                                                                                                                                                                                                                                                                                                                000001
1007421031242COBR_CAUC_BIC  GP GUARDA PATRIMONIAL DE S.P. LTDA      056998982000107BRISTOL MYERSSQUIBB FARMACEUTICA        RUA CARLOS GOMESN924                    SAO PAULO                               04743903SP34237000010004229277417       06032012007PAULISTA            0504201200000000016324739CC                                                                                                                                                                                                                                                                                                                                                                                           166288-1      000002
1031421007893COBR_CAUC_COR  DIPLOMATA S/AINDL. E COMERCIAL          027751320000130CCB CENTRAL DE COMPRAS DO BRASIL L       RUA PROJETADA A QUADRA 1               CARIACICA                               29152500ES3425700001049696320007247-01  31012012800UNIBANCO S/A        2103201200000000001599840CC                                                                                                                                                                                                                                                                                                                                                                                           166288-2      000003
1031421007893COBR_CAUC_BIC  DIPLOMATA S/AINDL. E COMERCIAL          001333984000195SEGALAS ALIMENTOS LTDA                  BR 470 N 4292                           BLUMENAU                                89070200SC3425800001049699770292878-01  01022012032BLUMENAU            2203201200000000005670000CC                                                                                                                                                                                                                                                                                                                                                                                           166288-3      000004
1031421007893COBR_CAUC_COR  DIPLOMATA S/AINDL. E COMERCIAL          006292922000791COOPERATIVA AGROINDUSTRIAL SALTO V      AV TUPI 100                             PATO BRANCO                             85506000PR3425900001049699510017879-02  31012012800UNIBANCO S/A        2803201200000000004755000CC                                                                                                                                                                                                                                                                                                                                                                                           166288-4      000005
1031421007893COBR_CAUC_COR  DIPLOMATA S/AINDL. E COMERCIAL          006292922000791COOPERATIVA AGROINDUSTRIAL SALTO V      AV TUPI 100                             PATO BRANCO                             85506000PR3425900002049699000017879-03  31012012800UNIBANCO S/A        0404201200000000004755000CC                                                                                                                                                                                                                                                                                                                                                                                           166288-5      000006
1031421007893COBR_CAUC_COR  DIPLOMATA S/AINDL. E COMERCIAL          006292922000791COOPERATIVA AGROINDUSTRIAL SALTO V      AV TUPI 100                             PATO BRANCO                             85506000PR3425900003049699180017879-04  31012012800UNIBANCO S/A        0404201200000000004755000CC                                                                                                                                                                                                                                                                                                                                                                                           166288-6      000007
1031421007893COBR_CAUC_BIC  DIPLOMATA S/AINDL. E COMERCIAL          097191902000194CONSERVAS ODERICH S/A                   RUA ODERICH,807                         SAO SEBASTIAO D                         95760000RS3426000001049696080292397-01  30012012015PORTO ALEGRE        1603201200000000001890000CC                                                                                                                                                                                                                                                                                                                                                                                           166288-7      000008
1031421007893COBR_CAUC_BIC  DIPLOMATA S/AINDL. E COMERCIAL          097191902000194CONSERVAS ODERICH S/A                   RUA ODERICH,807                         SAO SEBASTIAO D                         95760000RS3426000002049695940292398-01  30012012015PORTO ALEGRE        1503201200000000001890000CC                                                                                                                                                                                                                                                                                                                                                                                           166288-8      000009
1031421007893COBR_CAUC_BIC  DIPLOMATA S/AINDL. E COMERCIAL          097191902000194CONSERVAS ODERICH S/A                   RUA ODERICH,807                         SAO SEBASTIAO D                         95760000RS3426000003049695860292399-01  30012012015PORTO ALEGRE        1503201200000000001890000CC                                                                                                                                                                                                                                                                                                                                                                                           166288-9      000010
1031421007893COBR_CAUC_BIC  DIPLOMATA S/AINDL. E COMERCIAL          097191902000194CONSERVAS ODERICH S/A                   RUA ODERICH,807                         SAO SEBASTIAO D                         95760000RS3426000004049695780292404-01  30012012015PORTO ALEGRE        1903201200000000001890000CC                                                                                                                                                                                                                                                                                                                                                                                           166288-10     000011
1031421007893COBR_CAUC_BIC  DIPLOMATA S/AINDL. E COMERCIAL          097191902000194CONSERVAS ODERICH S/A                   RUA ODERICH,807                         SAO SEBASTIAO D                         95760000RS3426000005049696750292405-01  30012012015PORTO ALEGRE        1903201200000000001890000CC                                                                                                                                                                                                                                                                                                                                                                                           166288-11     000012
1031421007893COBR_CAUC_BIC  DIPLOMATA S/AINDL. E COMERCIAL          097191902000194CONSERVAS ODERICH S/A                   RUA ODERICH,807                         SAO SEBASTIAO D                         95760000RS3426000006049696830292406-01  30012012015PORTO ALEGRE        1603201200000000001890000CC                                                                                                                                                                                                                                                                                                                                                                                           166288-12     000013
1031421007893COBR_CAUC_BIC  DIPLOMATA S/AINDL. E COMERCIAL          097191902000194CONSERVAS ODERICH S/A                   RUA ODERICH,807                         SAO SEBASTIAO D                         95760000RS3426000007049696910292410-01  30012012015PORTO ALEGRE        2103201200000000001890000CC                                                                                                                                                                                                                                                                                                                                                                                           166288-13     000014
1031421007893COBR_CAUC_BIC  DIPLOMATA S/AINDL. E COMERCIAL          097191902000194CONSERVAS ODERICH S/A                   RUA ODERICH,807                         SAO SEBASTIAO D                         95760000RS3426000008049697050292411-01  30012012015PORTO ALEGRE        1603201200000000001890000CC                                                                                                                                                                                                                                                                                                                                                                                           166288-14     000015
1031421007893COBR_CAUC_BIC  DIPLOMATA S/AINDL. E COMERCIAL          097191902000194CONSERVAS ODERICH S/A                   RUA ODERICH,807                         SAO SEBASTIAO D                         95760000RS3426000009049697130292412-01  30012012015PORTO ALEGRE        1603201200000000001890000CC                                                                                                                                                                                                                                                                                                                                                                                           166288-15     000016
1031421007893COBR_CAUC_BIC  DIPLOMATA S/AINDL. E COMERCIAL          097191902000194CONSERVAS ODERICH S/A                   RUA ODERICH,807                         SAO SEBASTIAO D                         95760000RS3426000010049697300292420-01  30012012015PORTO ALEGRE        2103201200000000001890000CC                                                                                                                                                                                                                                                                                                                                                                                           166288-16     000017
1031421007893COBR_CAUC_BIC  DIPLOMATA S/AINDL. E COMERCIAL          097191902000194CONSERVAS ODERICH S/A                   RUA ODERICH,807                         SAO SEBASTIAO D                         95760000RS3426000011049697480292567-01  31012012015PORTO ALEGRE        1503201200000000001890000CC                                                                                                                                                                                                                                                                                                                                                                                           166288-17     000018
1031421007893COBR_CAUC_BIC  DIPLOMATA S/AINDL. E COMERCIAL          097191902000194CONSERVAS ODERICH S/A                   RUA ODERICH,807                         SAO SEBASTIAO D                         95760000RS3426000012049697560292568-01  31012012015PORTO ALEGRE        1503201200000000001890000CC                                                                                                                                                                                                                                                                                                                                                                                           166288-18     000019
1031421007893COBR_CAUC_COR  DIPLOMATA S/AINDL. E COMERCIAL          012252218000112COMERCIO DE LATICINIOS E FRIOS SAO      RUA SAO BENEDITO - CIDADE DE DEUS 368   MANAUS                                  69099000AM3426100001049734940025931-01  16022012800UNIBANCO S/A        2803201200000000006581880CC                                                                                                                                                                                                                                                                                                                                                                                           166288-19     000020
1031421007893COBR_CAUC_COR  DIPLOMATA S/AINDL. E COMERCIAL          012252218000112COMERCIO DE LATICINIOS E FRIOS SAO      RUA SAO BENEDITO - CIDADE DE DEUS 368   MANAUS                                  69099000AM3426100002049734860025932-01  16022012800UNIBANCO S/A        2803201200000000006581880CC                                                                                                                                                                                                                                                                                                                                                                                           166288-20     000021
1031421007893COBR_CAUC_COR  DIPLOMATA S/AINDL. E COMERCIAL          012252218000112COMERCIO DE LATICINIOS E FRIOS SAO      RUA SAO BENEDITO - CIDADE DE DEUS 368   MANAUS                                  69099000AM3426100003049734780025933-01  16022012800UNIBANCO S/A        2903201200000000006581880CC                                                                                                                                                                                                                                                                                                                                                                                           166288-21     000022
1031421007893COBR_CAUC_COR  DIPLOMATA S/AINDL. E COMERCIAL          012252218000112COMERCIO DE LATICINIOS E FRIOS SAO      RUA SAO BENEDITO - CIDADE DE DEUS 368   MANAUS                                  69099000AM3426100004049735240025934-01  16022012800UNIBANCO S/A        2903201200000000006581880CC                                                                                                                                                                                                                                                                                                                                                                                           166288-22     000023
1010421019891DIR_CREDIT     CIDADE TRANSPORTES LTDA                 003128979000176DISTR.EQUADOR DE PRODUTOS DE PETROLEO   RUA PAJURA 895 VILA BURITI              MANAUS                                  69075840AM3370000001                                                                                                                                          011325898           260420070000015968_001/2007   15042011000403TRANSPORTE VIA FLUVIAL COMBUSTIVEL(GASOLINA, ALCOOL E DIESEL) EM CARRETAS TANQUE.                                                                                                                                                               006151511000190166293-1      000024
1009421006459DIR_CREDIT     CTIS TECNOLOGIA S/A                     026994558006830ADVOCACIA GERAL DA UNIãO                SETOR IND GRAFICAS QUADRA 6 LOTE 800    BRASILIA                                70610460DF3399500001                                                                                                                                          011677206           050920110000020214045/2011    05012012000453Prestação de serviços especializados em Tecnologia da Informação (TI)ma área de manutenção de sistemas de informação, de acordo com o planejamentoe em apoio ao Departamento de Tecnologia da Informação (DTI) da AGU.                          001644731000132166293-2      000025
1024420934542DIR_CREDIT     HOSPITAL DE MED ESPECIALIZADA LTDA      005794356000168INSTITUTO ASSIST SAUDE SERV ESTADO MT   AV RUBENS DE MENDONçA, 343              CUIABá                                  78005170MT3414900001                                                                                                                                          011409685           221220050000016216CONTRATO PJ/28022012000403prestação de serviços de saúde para atendimento médico-hospitalar_aosbeneficiários da contratante.                                                                                                                                              070524145000177166293-3      000026
1013000000000DIR_CREDIT     IBERKON INVEST CONST INCOR INV LTDA     005948431000106SUCAB-SUPER.DE CONSTRUçõES ADM DA BAHIA 3A. AVENIDA, 390-PLATAFORMA VI-CAB      SALVADOR                                41745005BA3416400001                                                                                                                                          481024567           170520100000020302052/2010    29022012000404Construçaõ de 04 (quatro) unidades de Pronto Atendimento - Lote 02 nos Municípios de Salvador - R. Direita do Saboeiro, s/n e Feira de Santana, Complexo Hospitalar Lopes Rodrigues e Clériston Andrade.                                        008150640000190166293-4      000027
1013000000000DIR_CREDIT     IBERKON INVEST CONST INCOR INV LTDA     005948431000106SUCAB-SUPER.DE CONSTRUçõES ADM DA BAHIA 3A. AVENIDA, 390-PLATAFORMA VI-CAB      SALVADOR                                41745005BA3416500001                                                                                                                                          481024575           170520100000020302052/2010    29022012000404Construçaõ de 04 (quatro) unidades de Pronto Atendimento - Lote 02 nos Municípios de Salvador - R. Direita do Saboeiro, s/n e Feira de Santana, Complexo Hospitalar Lopes Rodrigues e Clériston Andrade.                                        008150640000190166293-5      000028
1021420930887COBR_CAUC_COR  DEDINI S/A INDUSTRIAS DE BASE           012733937000155TRIUNFO AGROINDUSTRIAL LTDA             VILA USINA TRIUNFO S N USINA TRIUNFO BR BOCA DA MATA                            57680000AL342620000106304041174772-3-3  08032012900BRADESCO S/A        0806201200000000017040161CC                                                                                                                                                                                                                                                                                                                                                                                           166293-6      000029
1021420930887COBR_CAUC_COR  DEDINI S/A INDUSTRIAS DE BASE           012733937000155TRIUNFO AGROINDUSTRIAL LTDA             VILA USINA TRIUNFO S N USINA TRIUNFO BR BOCA DA MATA                            57680000AL342620000206304059174772-4-4  08032012900BRADESCO S/A        0607201200000000017040161CC                                                                                                                                                                                                                                                                                                                                                                                           166293-7      000030
1021420930887COBR_CAUC_COR  DEDINI S/A INDUSTRIAS DE BASE           012733937000155TRIUNFO AGROINDUSTRIAL LTDA             VILA USINA TRIUNFO S N USINA TRIUNFO BR BOCA DA MATA                            57680000AL342620000306304067174772-1-1  08032012900BRADESCO S/A        0504201200000000017040161CC                                                                                                                                                                                                                                                                                                                                                                                           166293-8      000031
1021420930887COBR_CAUC_COR  DEDINI S/A INDUSTRIAS DE BASE           012733937000155TRIUNFO AGROINDUSTRIAL LTDA             VILA USINA TRIUNFO S N USINA TRIUNFO BR BOCA DA MATA                            57680000AL342620000406304075174772-2-2  08032012900BRADESCO S/A        0405201200000000017040161CC                                                                                                                                                                                                                                                                                                                                                                                           166293-9      000032
1031421007010COBR_CAUC_BIC  PLANT BEM FERTILIZANTES S.A.            000452633000130CAMPAGRO INSUMOS AGRICOLAS LTDA         AV. IRMAOS PEREIRA, ,251                CAMPO MOURAO                            87301010PR34263000010497624850281A07-4  08032012016CURITIBA            3007201200000000014838880CC                                                                                                                                                                                                                                                                                                                                                                                           166293-10     000033
1031421007010COBR_CAUC_BIC  PLANT BEM FERTILIZANTES S.A.            079035275000110AGRICOLA MK LTDA                        AV. GETULIO VA,242-ESQ. COM JOAO M      JANDAIA DO SUL                          86900000PR34264000010497626451037A11-2  08032012016CURITIBA            3005201200000000014809123CC                                                                                                                                                                                                                                                                                                                                                                                           166293-11     000034
1031421007010COBR_CAUC_BIC  PLANT BEM FERTILIZANTES S.A.            079038097000181BELAGRICOLA COM E REP DE PRODUTOS       AV BANDEIRANTES,809                     LONDRINA                                86010020PR34265000010497625650740A618   08032012031LONDRINA            2809201200000000015052500CC                                                                                                                                                                                                                                                                                                                                                                                           166293-12     000035
1031421007010COBR_CAUC_BIC  PLANT BEM FERTILIZANTES S.A.            079206231000106SOUZA & FAVORETTO LTDA                  RUA LUIZ CARLOS ZANI, ,299              IBIPORA                                 86200000PR34266000010497627250197A864   08032012031LONDRINA            2809201200000000013377000CC                                                                                                                                                                                                                                                                                                                                                                                           166293-13     000036
1                           DIPLOMATA S/A INDL. E COMERCIAL                        CSW IMPORTAÇÃO E EXPORTAÇÃO DE GRÃOS LTDAAv. Historiador Rubens de Mendonça, 1856 – loja 11 – Edif. Office TowerCuiabá                                  78050-000MT                                                                                                                                                                                                                                                                                                                                                                                                                                                                                   166404-1      000037
1                           DIPLOMATA S/A INDL. E COMERCIAL                        OLAM AGROMERCANTIL LTDA                 Rua Roberto Castela, 169                Assis                                   19814-460SP                                                                                                                                                                                                                                                                                                                                                                                                                                                                                   166404-2      000038
1                           DIPLOMATA S/A INDL. E COMERCIAL                        COOPERATIVA CENTRAL AURORA ALIMENTOS    Rua João Martins, 219 D                 Chapecó                                 89803-040SC                                                                                                                                                                                                                                                                                                                                                                                                                                                                                   166415-1      000039
9000038                                                                                                                                                                                                                                                                                                                                                                                                                                                                                                                                                                                                                                                                                                               000040
