0REMESSANOTIFICAÇÃO ELETRONICA        99999999999999Bicbanco S/A                            Avenida Paulista , 1048 12º andar                           BELA VISTA                    SÃO PAULO                     01310100SPBicbanco S/A                                                                    01062010                                                                                                                                                                                                                                                                                                                                                                                                000001
1028421002921COBR_CAUC_COR  FRIGORIFICO MATABOI S/A                 004557157000335PREZUNIC COMERCIAL LTDA                 R DO ALPISTE 568                        RIO DE JANEIRO                          21011010RJ2236700001001419470009611101  22052010900BRADESCO S/A        2106201000000000020798702CC                                                                                                                                                                                                                                                                                                                                                                                           101793-1      000002
1028421002921COBR_CAUC_COR  FRIGORIFICO MATABOI S/A                 004557157000335PREZUNIC COMERCIAL LTDA                 R DO ALPISTE 568                        RIO DE JANEIRO                          21011010RJ2236700002001419550009611401  22052010900BRADESCO S/A        2106201000000000020792153CC                                                                                                                                                                                                                                                                                                                                                                                           101793-2      000003
1028421002921COBR_CAUC_COR  FRIGORIFICO MATABOI S/A                 004557157000335PREZUNIC COMERCIAL LTDA                 R DO ALPISTE 568                        RIO DE JANEIRO                          21011010RJ2236700003001419800009648001  24052010900BRADESCO S/A        2306201000000000035616990CC                                                                                                                                                                                                                                                                                                                                                                                           101793-3      000004
1009420930764COBR_CAUC_BIC  S/A CORREIO BRAZILIENSE                 006102961000193SIND.NAC.EMP. TELEFONIA E SERVICOS      AV.PASTEUR, 383 URCA BR                 RIO DE JANEIRO                          22290240RJ223680000101328403386103-1    25052010014RIO DE JANEIRO      3005201000000000015678000CC                                                                                                                                                                                                                                                                                                                                                                                           101793-4      000005
1007420931444COBR_CAUC_BIC  PLASINCO LTDA                           053606869000140BRASCOPPER CBC BRASILEIRA DE CONDU      R. URUGUAI,2050-TANQUINHO               RIBEIRAO PRETO                          14075330SP2236900001098857485142-A      26052010022RIBEIRAO PRETO      2206201000000000019377900CC                                                                                                                                                                                                                                                                                                                                                                                           101793-5      000006
1007420931444COBR_CAUC_BIC  PLASINCO LTDA                           053606869000140BRASCOPPER CBC BRASILEIRA DE CONDU      R. URUGUAI,2050-TANQUINHO               RIBEIRAO PRETO                          14075330SP2236900002098857815141-A      26052010022RIBEIRAO PRETO      2206201000000000020748600CC                                                                                                                                                                                                                                                                                                                                                                                           101793-6      000007
1007420931444COBR_CAUC_BIC  PLASINCO LTDA                           053606869000140BRASCOPPER CBC BRASILEIRA DE CONDU      R. URUGUAI,2050-TANQUINHO               RIBEIRAO PRETO                          14075330SP2236900003098857995146-A      26052010022RIBEIRAO PRETO      2306201000000000020736000CC                                                                                                                                                                                                                                                                                                                                                                                           101793-7      000008
1007421035264COBR_CAUC_BIC  ALLIED ADVANCED TECHNOLOGIES LTDA       089237911000140MADEIREIRA HERVAL LTDA                  AVENIDA IRINEU BECKER 202               DOIS IRMAOS                             93950000RS22370000010988773200073361 B  04052010015PORTO ALEGRE        0208201000000000010019262CC                                                                                                                                                                                                                                                                                                                                                                                           101793-8      000009
1003421013987COBR_CAUC_COR  SCIENTIFIC COM E IMPORTACAO LTDA        003517055000161EXCELSIOR MED LTDA                      AV MINISTRO MARCOS FREIRE,1416          OLINDA                                  53040010PE2237100001000036792003        24052010900BRADESCO S/A        0407201000000000019520000CC                                                                                                                                                                                                                                                                                                                                                                                           101793-9      000010
1007421035337COBR_CAUC_COR  COML IMP E EXP LA RIOJA LTDA            004387661000172MALBEC BRASIL COML IMP EXP LTDA         R VISCONDE DE PARNAIBA, 1110            SAO PAULO                               03044000SP22372000010023133830825       25052010900BRADESCO S/A        2306201000000000010308009CC                                                                                                                                                                                                                                                                                                                                                                                           101793-10     000011
1028421002719COBR_CAUC_BIC  SIPCAM ISAGRO BRASIL S/A                002974733000152DVA AGRO DO BRASIL-COM IMP EXP INS      R. DR. PAULO CASTRO PUPO NOGUEIRA, 90   CAMPINAS                                13092104SP223960000102611070DC00261901  20052010021CAMPINAS            3007201000000000039754800CC                                                                                                                                                                                                                                                                                                                                                                                           101794-1      000012
1007420931444COBR_CAUC_BIC  PLASINCO LTDA                           053606869000140BRASCOPPER CBC BRASILEIRA DE CONDU      R. URUGUAI,2050                         RIBEIRAO PRETO                          14075330SP2239700001098883305173-A      27052010022RIBEIRAO PRETO      2406201000000000020748600CC                                                                                                                                                                                                                                                                                                                                                                                           101794-2      000013
1007420931444COBR_CAUC_COR  PLASINCO LTDA                           066007857000141WIREX CABLE S/A                         ESTR. JACAREI /STA. BRA,0-PREDIO A      SANTA BRANCA                            12380000SP2239800001098883055163-A      26052010900BRADESCO S/A        2606201000000000043975000CC                                                                                                                                                                                                                                                                                                                                                                                           101794-3      000014
1022421002370COBR_CAUC_COR  FRIGOESTRELA S.A.                       009104182000115MINERVA DAWN FARMS IND. E COM. PRO      AVENIDA ANTONIO MANCO BERNARDESS/N      BARRETOS                                14781545SP2239900001025990900033810101  26052010900BRADESCO S/A        1606201000000000014726960CC                                                                                                                                                                                                                                                                                                                                                                                           101794-4      000015
1007421035264COBR_CAUC_COR  ALLIED ADVANCED TECHNOLOGIES LTDA       004565289000570BENCHIMOL IRMAO & CIA LTDA - MANAU      RUA MIRANDA LEAO, 41                    MANAUS                                  69005901AM22400000010988888700074591 A  05052010900BRADESCO S/A        0407201000000000019405530CC                                                                                                                                                                                                                                                                                                                                                                                           101794-5      000016
1007421035264COBR_CAUC_COR  ALLIED ADVANCED TECHNOLOGIES LTDA       004565289000570BENCHIMOL IRMAO & CIA LTDA - MANAU      RUA MIRANDA LEAO, 41                    MANAUS                                  69005901AM22400000020988889500074951 A  05052010900BRADESCO S/A        0407201000000000027784539CC                                                                                                                                                                                                                                                                                                                                                                                           101794-6      000017
1007421035264COBR_CAUC_BIC  ALLIED ADVANCED TECHNOLOGIES LTDA       004900392000449MAX AGP COMUNICACOES LTDA               RUA DA QUITANDA, 79                     RIO DE JANEIRO                          20091005RJ22401000010988968900079801 A  11052010014RIO DE JANEIRO      0908201000000000016707066CC                                                                                                                                                                                                                                                                                                                                                                                           101794-7      000018
1007421035264COBR_CAUC_BIC  ALLIED ADVANCED TECHNOLOGIES LTDA       010190392000152GTX TELECOM COMERCIO DE TELEFONIA       RUA VERGUEIRO, 2949-19 ANDAR CJ 191     SAO PAULO                               04101300SP22402000010988897600075211 A  06052010007PAULISTA            0408201000000000014613084CC                                                                                                                                                                                                                                                                                                                                                                                           101794-8      000019
1007421035264COBR_CAUC_COR  ALLIED ADVANCED TECHNOLOGIES LTDA       026404731000196ELETROZEMA LTDA                         AV JOSÉ ANANIAS AGUIAR, 5005            Araxa                                   38184200MG22403000010988955700078901 A  11052010900BRADESCO S/A        1007201000000000020930000CC                                                                                                                                                                                                                                                                                                                                                                                           101794-9      000020
1007421035264COBR_CAUC_BIC  ALLIED ADVANCED TECHNOLOGIES LTDA       078614278000227COMERCIAL DE MOVEIS BRASILIA LTDA       RUA SANTA CATARINA, 194                 LONDRINA                                86010210PR22404000010988946800078431 A  10052010031LONDRINA            0907201000000000018034483CC                                                                                                                                                                                                                                                                                                                                                                                           101794-10     000021
1043421001724DIR_CREDIT     CONSERV CONST E SERV LTDA               012272084000100CIA ENERGETICA DE ALAGOAS - CEAL        AV FERNANDES LIMA,3349 - FAROL          MACEIO                                  57057000AL2241200001                                                                                                                                          481006935           130820080000008419159/2008    26052010000404Prestação de serviços técnico-comerciais em Unidades consumidoras de energia elétrica atendidas em média e baixa tensão, na área de abrangência da gerência comercial do Oeste da Ceal.                                                         005219643000144101795-1      000022
1024420934410COBR_CAUC_BIC  INTERCOOP INT SUIN MED NORTE MT LTD     038711826000131LINCON INDUSTRIA E COMERCIO LTDA        RUA JOSE MARIA DE LACERDA 205,2058      CONTAGEM                                32210120MG22420000010179967839566       21052010019BELO HORIZONTE      1106201000000000013733405CC                                                                                                                                                                                                                                                                                                                                                                                           101795-2      000023
1024420934410COBR_CAUC_BIC  INTERCOOP INT SUIN MED NORTE MT LTD     044077378000169COPROSUL COMERCIO IMPORTACAO E EXP      RUA LEONOR FER,1949-VILA GUILHERME      SAO PAULO                               02052020SP22421000010179968639479       20052010007PAULISTA            2406201000000000011859930CC                                                                                                                                                                                                                                                                                                                                                                                           101795-3      000024
1024420934410COBR_CAUC_BIC  INTERCOOP INT SUIN MED NORTE MT LTD     061270393000148FRIGORIFICO MARBA LTDA                  AV CEZAR MAGNANI 971,971                SAO BERNARDO                            09694000SP22422000010179976739691       25052010038ABC                 2406201000000000015758279CC                                                                                                                                                                                                                                                                                                                                                                                           101795-4      000025
1007421035264COBR_CAUC_BIC  ALLIED ADVANCED TECHNOLOGIES LTDA       033068883000201SOCIEDADE COMERCIAL E IMPORTADORA       RUA VICTOR CIVITA, 77 BL.1 2 ANDAR      RIO DE JANEIRO                          22775906RJ22423000010989167500076091 A  06052010014RIO DE JANEIRO      1507201000000000025359151CC                                                                                                                                                                                                                                                                                                                                                                                           101795-5      000026
1007421035264COBR_CAUC_BIC  ALLIED ADVANCED TECHNOLOGIES LTDA       033068883000201SOCIEDADE COMERCIAL E IMPORTADORA       RUA VICTOR CIVITA, 77 BL.1 2 ANDAR      RIO DE JANEIRO                          22775906RJ22423000020989169100077651 A  10052010014RIO DE JANEIRO      1907201000000000018042000CC                                                                                                                                                                                                                                                                                                                                                                                           101795-6      000027
1016141008940COBR_CAUC_COR  COOPERATIVA RIO DO PEIXE                083310441000117AURORA S/A                              RUA JOAO MARTINS,219                    CHAPECO                                 89803901SC224240000102775881524931      19052010900BRADESCO S/A        1806201000000000011317548TD                                                                                                                                                                                                                                                                                                                                                                                           101795-7      000028
1016141008940COBR_CAUC_COR  COOPERATIVA RIO DO PEIXE                083310441000117AURORA S/A                              RUA JOAO MARTINS,219                    CHAPECO                                 89803901SC224240000202775890524929      19052010900BRADESCO S/A        2106201000000000025212180TD                                                                                                                                                                                                                                                                                                                                                                                           101795-8      000029
1007421035337COBR_CAUC_COR  COML IMP E EXP LA RIOJA LTDA            001928075002062D M A DIST SA (PERECIVEIS)              ROD BR 040 KM 531, 180                  BELO HORIZONTE                          30855500MG22425000010023282231083       27052010900BRADESCO S/A        1207201000000000021500430CC                                                                                                                                                                                                                                                                                                                                                                                           101795-9      000030
1019421002850DIR_CREDIT     SEMPRE VIVA MIN. CONST. TRANSP. LT      040164964001595ANGLOGOLD ASHANTI BRASIL MINERACAO LTDA OTR MINA CORREGO DO SITIO S/N           SANTA BARBARA                           35960000MG2242700001                                                                                                                                          481010433           010720090000009950            27052010000404Prestação de serviço de terraplenagem, remoçao e transporte de minerio dentro das instalaçoes da contratante.                                                                                                                                   018299370000137101795-10     000031
1013421015223DIR_CREDIT     CACO DE TELHA PROD EVENTOS LTDA         033200056000149LOJAS RIACHUELO S.A                     RUA LEAO XIII Nº 500 JARDIM SAO BENTO   SAO PAULO                               02526000BA2245300001                                                                                                                                          010803370           141220090000011219            30042010000403prestação de serviços da contratada mediante a disponibilização da artista anuente nos periodos indicadosno contrato sujeito as retriçoes estabelecidas neste contrato com concessao do direito do uso de imagem e som de voz                   000829821000135101795-11     000032
1013421015223DIR_CREDIT     CACO DE TELHA PROD EVENTOS LTDA         033200056000149LOJAS RIACHUELO S.A                     RUA LEAO XIII Nº 500 JARDIM SAO BENTO   SAO PAULO                               02526000BA2245400001                                                                                                                                          010803370           141220090000011219            30042010000403prestação de serviços da contratada mediante a disponibilização da artista anuente nos periodos indicadosno contrato sujeito as retriçoes estabelecidas neste contrato com concessao do direito do uso de imagem e som de voz                   000829821000135101795-12     000033
9000032                                                                                                                                                                                                                                                                                                                                                                                                                                                                                                                                                                                                                                                                                                               000034
