0REMESSANOTIFICAÇÃO ELETRONICA        99999999999999Bicbanco S/A                            Avenida Paulista , 1048 12º andar                           BELA VISTA                    SÃO PAULO                     01310100SPBicbanco S/A                                                                    10052010                                                                                                                                                                                                                                                                                                                                                                                                000001
1021420930887COBR_CAUC_COR  DEDINI S/A INDUSTRIAS DE BASE           005643160000172ENERGETICA SERRANOPOLIS LTDA            ROD GO 184, KM 65 ZONA RURAL BR         SERRANOPOLIS                            75820000GO21813000010578895897684-9-1-  23042010900BRADESCO S/A        2005201000000000020000000CC                                                                                                                                                                                                                                                                                                                                                                                           96200-1       000002
1007421016006COBR_CAUC_BIC  ONCOMED FARMACEUTICA LTDA               060552098000111SOC. BRAS.JAP.BEN.STA CRUZ-HOSP.ST      R. SANTA CRUZ, 398 IS ENT 0             SAO PAULO                               04122000SP218140000109823041605932      26042010007PAULISTA            3006201000000000012882030CC                                                                                                                                                                                                                                                                                                                                                                                           96200-2       000003
1018421016232COBR_CAUC_COR  LEITBOM S/A                             064308299000129INTERCONTINENTAL COM DE ALIM LTDA       ROD PRESIDENTE DUTRA 1957               SAO JOAO DE MER                         25515230RJ2194200001010451760001408001  30042010900BRADESCO S/A        2805201000000000020400000CC                                                                                                                                                                                                                                                                                                                                                                                           97594-1       000004
1028421002921COBR_CAUC_COR  FRIGORIFICO MATABOI S/A                 007918552000122CHARQUEADA FRISUL LTDA.                 R TREZE DE MAIO                         OURO FINO                               37570000MG2194300001001289590009203001  30042010900BRADESCO S/A        3005201000000000010909073CC                                                                                                                                                                                                                                                                                                                                                                                           97594-2       000005
1028421002921COBR_CAUC_COR  FRIGORIFICO MATABOI S/A                 007918552000122CHARQUEADA FRISUL LTDA.                 R TREZE DE MAIO                         OURO FINO                               37570000MG2194300002001289750001653601  30042010900BRADESCO S/A        3005201000000000010337352CC                                                                                                                                                                                                                                                                                                                                                                                           97594-3       000006
1021420930887COBR_CAUC_COR  DEDINI S/A INDUSTRIAS DE BASE           002859452000230VALE DO VERDAO S A ACUCAR E ALCOOL      LOC FAZENDA BAESSA ZONA RURAL BR        TURVELANDIA                             75970000GO219440000105792459110540-1-1  03052010900BRADESCO S/A        2405201000000000024166458CC                                                                                                                                                                                                                                                                                                                                                                                           97594-4       000007
1021420930887COBR_CAUC_COR  DEDINI S/A INDUSTRIAS DE BASE           008830263000130FATIMA DO SUL AGRO-ENERGETICA SA A      ROD OTR LINHA DO BARREIRINHO -LTS2 ZON  FATIMA DO SUL                           79700000MS219450000105792505110358-2-1  19042010900BRADESCO S/A        1506201000000000027750000CC                                                                                                                                                                                                                                                                                                                                                                                           97594-5       000008
1014421011391COBR_CAUC_BIC  CENTRAL NACIONAL DE PRODUCOES LTDA      002415583000147IGREJA MUNDIAL DO PODER DE DEUS         RUA CARNEIRO LEAO, 439                  SAO PAULO                               03015000SP2194600001042094031391/A      30042010014RIO DE JANEIRO      3006201000000000050000000CC                                                                                                                                                                                                                                                                                                                                                                                           97594-6       000009
1007421031242COBR_CAUC_COR  GP GUARDA PATRIMONIAL DE S.P. LTDA      009278170000107ASSOC. DOA PARTICIP. COMPLEXO FAZE      ESTRADA MUNICIPAL PFZ, 373              PORTO FELIZ                             18540000SP21947000010030066653146       03052010900BRADESCO S/A        0206201000000000013131360CC                                                                                                                                                                                                                                                                                                                                                                                           97594-7       000010
1022141001217COBR_CAUC_BIC  BALDIN BIOENERGIA S/A                   001062529000100DULCINI S/A                             ESTR SITIO TABOAO S/N Z RURAL           PIRASSUNUNGA                            13631301SP2194800001038317196811/16     30032010021CAMPINAS            2906201000000000025000000TD                                                                                                                                                                                                                                                                                                                                                                                           97594-8       000011
1022141001217COBR_CAUC_BIC  BALDIN BIOENERGIA S/A                   001062529000100DULCINI S/A                             ESTR SITIO TABOAO S/N Z RURAL           PIRASSUNUNGA                            13631301SP2194800002038317276811/17     30032010021CAMPINAS            3006201000000000025000000TD                                                                                                                                                                                                                                                                                                                                                                                           97594-9       000012
1022141001217COBR_CAUC_BIC  BALDIN BIOENERGIA S/A                   001062529000100DULCINI S/A                             ESTR SITIO TABOAO S/N Z RURAL           PIRASSUNUNGA                            13631301SP2194800003038317356811/18     30032010021CAMPINAS            0107201000000000025000000TD                                                                                                                                                                                                                                                                                                                                                                                           97594-10      000013
1022141001217COBR_CAUC_BIC  BALDIN BIOENERGIA S/A                   001062529000100DULCINI S/A                             ESTR SITIO TABOAO S/N Z RURAL           PIRASSUNUNGA                            13631301SP2194800004038317436811/19     30032010021CAMPINAS            0207201000000000025000000TD                                                                                                                                                                                                                                                                                                                                                                                           97594-11      000014
1007421016006COBR_CAUC_BIC  ONCOMED FARMACEUTICA LTDA               060552098000111SOC. BRAS.JAP.BEN.STA CRUZ-HOSP.ST      R. SANTA CRUZ, 398 IS ENT 0             SAO PAULO                               04122000SP2194900001098338372100961     03052010007PAULISTA            0207201000000000015203695CC                                                                                                                                                                                                                                                                                                                                                                                           97594-12      000015
1024421006347COBR_CAUC_COR  DIBOX-DIST DE PROD ALIM BROKER LTDA     004225695000241E J TONIAZZO & CIA LTDA                 RUA CRISTOVAO COLOMBO, 315              VARZEA GRANDE                           78125630MT219500000105731393 121257/01  31032010900BRADESCO S/A        2308201000000000001829271CC                                                                                                                                                                                                                                                                                                                                                                                           97594-13      000016
1024421006347COBR_CAUC_COR  DIBOX-DIST DE PROD ALIM BROKER LTDA     004225695000241E J TONIAZZO & CIA LTDA                 RUA CRISTOVAO COLOMBO, 315              VARZEA GRANDE                           78125630MT219500000205731407 121257/02  31032010900BRADESCO S/A        3008201000000000001829216CC                                                                                                                                                                                                                                                                                                                                                                                           97594-14      000017
1024421006347COBR_CAUC_COR  DIBOX-DIST DE PROD ALIM BROKER LTDA     004225695000241E J TONIAZZO & CIA LTDA                 RUA CRISTOVAO COLOMBO, 315              VARZEA GRANDE                           78125630MT219500000305731415 121257/03  31032010900BRADESCO S/A        0609201000000000001829218CC                                                                                                                                                                                                                                                                                                                                                                                           97594-15      000018
1024421006347COBR_CAUC_COR  DIBOX-DIST DE PROD ALIM BROKER LTDA     004225695000241E J TONIAZZO & CIA LTDA                 RUA CRISTOVAO COLOMBO, 315              VARZEA GRANDE                           78125630MT219500000405731482 121260/01  31032010900BRADESCO S/A        2006201000000000001089536CC                                                                                                                                                                                                                                                                                                                                                                                           97594-16      000019
1024421006347COBR_CAUC_COR  DIBOX-DIST DE PROD ALIM BROKER LTDA     004225695000241E J TONIAZZO & CIA LTDA                 RUA CRISTOVAO COLOMBO, 315              VARZEA GRANDE                           78125630MT219500000505731491 121260/02  31032010900BRADESCO S/A        2806201000000000001089503CC                                                                                                                                                                                                                                                                                                                                                                                           97594-17      000020
1024421006347COBR_CAUC_COR  DIBOX-DIST DE PROD ALIM BROKER LTDA     004225695000241E J TONIAZZO & CIA LTDA                 RUA CRISTOVAO COLOMBO, 315              VARZEA GRANDE                           78125630MT219500000605731504 121260/03  31032010900BRADESCO S/A        0507201000000000001089505CC                                                                                                                                                                                                                                                                                                                                                                                           97594-18      000021
1024421006347COBR_CAUC_COR  DIBOX-DIST DE PROD ALIM BROKER LTDA     004225695000241E J TONIAZZO & CIA LTDA                 RUA CRISTOVAO COLOMBO, 315              VARZEA GRANDE                           78125630MT219500000705731512 121261/01  31032010900BRADESCO S/A        1207201000000000001126340CC                                                                                                                                                                                                                                                                                                                                                                                           97594-19      000022
1024421006347COBR_CAUC_COR  DIBOX-DIST DE PROD ALIM BROKER LTDA     004225695000241E J TONIAZZO & CIA LTDA                 RUA CRISTOVAO COLOMBO, 315              VARZEA GRANDE                           78125630MT219500000805731521 121261/02  31032010900BRADESCO S/A        1907201000000000001126306CC                                                                                                                                                                                                                                                                                                                                                                                           97594-20      000023
1024421006347COBR_CAUC_COR  DIBOX-DIST DE PROD ALIM BROKER LTDA     004225695000241E J TONIAZZO & CIA LTDA                 RUA CRISTOVAO COLOMBO, 315              VARZEA GRANDE                           78125630MT219500000905731539 121261/03  31032010900BRADESCO S/A        2607201000000000001126308CC                                                                                                                                                                                                                                                                                                                                                                                           97594-21      000024
1024421006347COBR_CAUC_COR  DIBOX-DIST DE PROD ALIM BROKER LTDA     004225695000241E J TONIAZZO & CIA LTDA                 RUA CRISTOVAO COLOMBO, 315              VARZEA GRANDE                           78125630MT219500001005731814 121270/01  31032010900BRADESCO S/A        0208201000000000001177349CC                                                                                                                                                                                                                                                                                                                                                                                           97594-22      000025
1024421006347COBR_CAUC_COR  DIBOX-DIST DE PROD ALIM BROKER LTDA     004225695000241E J TONIAZZO & CIA LTDA                 RUA CRISTOVAO COLOMBO, 315              VARZEA GRANDE                           78125630MT219500001105731822 121270/02  31032010900BRADESCO S/A        0908201000000000001177314CC                                                                                                                                                                                                                                                                                                                                                                                           97594-23      000026
1024421006347COBR_CAUC_COR  DIBOX-DIST DE PROD ALIM BROKER LTDA     004225695000241E J TONIAZZO & CIA LTDA                 RUA CRISTOVAO COLOMBO, 315              VARZEA GRANDE                           78125630MT219500001205731831 121270/03  31032010900BRADESCO S/A        1608201000000000001177316CC                                                                                                                                                                                                                                                                                                                                                                                           97594-24      000027
1024421006347COBR_CAUC_COR  DIBOX-DIST DE PROD ALIM BROKER LTDA     004225695000241E J TONIAZZO & CIA LTDA                 RUA CRISTOVAO COLOMBO, 315              VARZEA GRANDE                           78125630MT219500001305731849 121272/01  31032010900BRADESCO S/A        2308201000000000001586949CC                                                                                                                                                                                                                                                                                                                                                                                           97594-25      000028
1024421006347COBR_CAUC_COR  DIBOX-DIST DE PROD ALIM BROKER LTDA     004225695000241E J TONIAZZO & CIA LTDA                 RUA CRISTOVAO COLOMBO, 315              VARZEA GRANDE                           78125630MT219500001405731857 121272/02  31032010900BRADESCO S/A        1309201000000000001586902CC                                                                                                                                                                                                                                                                                                                                                                                           97594-26      000029
1024421006347COBR_CAUC_COR  DIBOX-DIST DE PROD ALIM BROKER LTDA     004225695000241E J TONIAZZO & CIA LTDA                 RUA CRISTOVAO COLOMBO, 315              VARZEA GRANDE                           78125630MT219500001505731865 121272/03  31032010900BRADESCO S/A        2009201000000000001586903CC                                                                                                                                                                                                                                                                                                                                                                                           97594-27      000030
1024421006347COBR_CAUC_COR  DIBOX-DIST DE PROD ALIM BROKER LTDA     004225695000241E J TONIAZZO & CIA LTDA                 RUA CRISTOVAO COLOMBO, 315              VARZEA GRANDE                           78125630MT219500001605731903 121277/01  31032010900BRADESCO S/A        2709201000000000001052214CC                                                                                                                                                                                                                                                                                                                                                                                           97594-28      000031
1024421006347COBR_CAUC_COR  DIBOX-DIST DE PROD ALIM BROKER LTDA     004225695000241E J TONIAZZO & CIA LTDA                 RUA CRISTOVAO COLOMBO, 315              VARZEA GRANDE                           78125630MT219500001705731911 121277/02  31032010900BRADESCO S/A        1110201000000000001052182CC                                                                                                                                                                                                                                                                                                                                                                                           97594-29      000032
1024421006347COBR_CAUC_COR  DIBOX-DIST DE PROD ALIM BROKER LTDA     004225695000241E J TONIAZZO & CIA LTDA                 RUA CRISTOVAO COLOMBO, 315              VARZEA GRANDE                           78125630MT219500001805731920 121277/03  31032010900BRADESCO S/A        0410201000000000001052184CC                                                                                                                                                                                                                                                                                                                                                                                           97594-30      000033
1024421006347COBR_CAUC_COR  DIBOX-DIST DE PROD ALIM BROKER LTDA     004225695000241E J TONIAZZO & CIA LTDA                 RUA CRISTOVAO COLOMBO, 315              VARZEA GRANDE                           78125630MT219500001905731938 121275/01  31032010900BRADESCO S/A        0507201000000000000667896CC                                                                                                                                                                                                                                                                                                                                                                                           97594-31      000034
1024421006347COBR_CAUC_COR  DIBOX-DIST DE PROD ALIM BROKER LTDA     004225695000241E J TONIAZZO & CIA LTDA                 RUA CRISTOVAO COLOMBO, 315              VARZEA GRANDE                           78125630MT219500002005731946 121275/02  31032010900BRADESCO S/A        2709201000000000000667876CC                                                                                                                                                                                                                                                                                                                                                                                           97594-32      000035
1024421006347COBR_CAUC_COR  DIBOX-DIST DE PROD ALIM BROKER LTDA     004225695000241E J TONIAZZO & CIA LTDA                 RUA CRISTOVAO COLOMBO, 315              VARZEA GRANDE                           78125630MT219500002105731954 121275/03  31032010900BRADESCO S/A        0410201000000000000667877CC                                                                                                                                                                                                                                                                                                                                                                                           97594-33      000036
1024421006347COBR_CAUC_COR  DIBOX-DIST DE PROD ALIM BROKER LTDA     004225695000241E J TONIAZZO & CIA LTDA                 RUA CRISTOVAO COLOMBO, 315              VARZEA GRANDE                           78125630MT219500002205731997 121274/01  31032010900BRADESCO S/A        1309201000000000000533761CC                                                                                                                                                                                                                                                                                                                                                                                           97594-34      000037
1024421006347COBR_CAUC_COR  DIBOX-DIST DE PROD ALIM BROKER LTDA     004225695000241E J TONIAZZO & CIA LTDA                 RUA CRISTOVAO COLOMBO, 315              VARZEA GRANDE                           78125630MT219500002305732004 121274/02  31032010900BRADESCO S/A        2009201000000000000533744CC                                                                                                                                                                                                                                                                                                                                                                                           97594-35      000038
1024421006347COBR_CAUC_COR  DIBOX-DIST DE PROD ALIM BROKER LTDA     004225695000241E J TONIAZZO & CIA LTDA                 RUA CRISTOVAO COLOMBO, 315              VARZEA GRANDE                           78125630MT219500002405732021 121276/01  31032010900BRADESCO S/A        2009201000000000000896363CC                                                                                                                                                                                                                                                                                                                                                                                           97594-36      000039
1024421006347COBR_CAUC_COR  DIBOX-DIST DE PROD ALIM BROKER LTDA     004225695000241E J TONIAZZO & CIA LTDA                 RUA CRISTOVAO COLOMBO, 315              VARZEA GRANDE                           78125630MT219500002505732039 121276/02  31032010900BRADESCO S/A        2709201000000000000896337CC                                                                                                                                                                                                                                                                                                                                                                                           97594-37      000040
1024421006347COBR_CAUC_COR  DIBOX-DIST DE PROD ALIM BROKER LTDA     004225695000241E J TONIAZZO & CIA LTDA                 RUA CRISTOVAO COLOMBO, 315              VARZEA GRANDE                           78125630MT219500002605732047 121276/03  31032010900BRADESCO S/A        0410201000000000000896338CC                                                                                                                                                                                                                                                                                                                                                                                           97594-38      000041
1024421006347COBR_CAUC_COR  DIBOX-DIST DE PROD ALIM BROKER LTDA     004225695000241E J TONIAZZO & CIA LTDA                 RUA CRISTOVAO COLOMBO, 315              VARZEA GRANDE                           78125630MT219510000105804064 121274/01  31032010900BRADESCO S/A        1110201000000000000533746CC                                                                                                                                                                                                                                                                                                                                                                                           97594-39      000042
1024421006347COBR_CAUC_COR  DIBOX-DIST DE PROD ALIM BROKER LTDA     004225695000241E J TONIAZZO & CIA LTDA                 RUA CRISTOVAO COLOMBO, 315              VARZEA GRANDE                           78125630MT219510000205731423 121256/01  31032010900BRADESCO S/A        0208201000000000000966577CC                                                                                                                                                                                                                                                                                                                                                                                           97594-40      000043
1024421006347COBR_CAUC_COR  DIBOX-DIST DE PROD ALIM BROKER LTDA     004225695000241E J TONIAZZO & CIA LTDA                 RUA CRISTOVAO COLOMBO, 315              VARZEA GRANDE                           78125630MT219510000305731431 121256/02  31032010900BRADESCO S/A        0908201000000000000966548CC                                                                                                                                                                                                                                                                                                                                                                                           97594-41      000044
1024421006347COBR_CAUC_COR  DIBOX-DIST DE PROD ALIM BROKER LTDA     004225695000241E J TONIAZZO & CIA LTDA                 RUA CRISTOVAO COLOMBO, 315              VARZEA GRANDE                           78125630MT219510000405731440 121256/03  31032010900BRADESCO S/A        1608201000000000000966549CC                                                                                                                                                                                                                                                                                                                                                                                           97594-42      000045
1024421006347COBR_CAUC_COR  DIBOX-DIST DE PROD ALIM BROKER LTDA     004225695000241E J TONIAZZO & CIA LTDA                 RUA CRISTOVAO COLOMBO, 315              VARZEA GRANDE                           78125630MT219510000505731458 121259/01  31032010900BRADESCO S/A        2006201000000000000434612CC                                                                                                                                                                                                                                                                                                                                                                                           97594-43      000046
1024421006347COBR_CAUC_COR  DIBOX-DIST DE PROD ALIM BROKER LTDA     004225695000241E J TONIAZZO & CIA LTDA                 RUA CRISTOVAO COLOMBO, 315              VARZEA GRANDE                           78125630MT219510000605731466 121259/02  31032010900BRADESCO S/A        2806201000000000000434599CC                                                                                                                                                                                                                                                                                                                                                                                           97594-44      000047
1024421006347COBR_CAUC_COR  DIBOX-DIST DE PROD ALIM BROKER LTDA     004225695000241E J TONIAZZO & CIA LTDA                 RUA CRISTOVAO COLOMBO, 315              VARZEA GRANDE                           78125630MT219510000705731474 121259/03  31032010900BRADESCO S/A        0507201000000000000434600CC                                                                                                                                                                                                                                                                                                                                                                                           97594-45      000048
1024421006347COBR_CAUC_COR  DIBOX-DIST DE PROD ALIM BROKER LTDA     004225695000241E J TONIAZZO & CIA LTDA                 RUA CRISTOVAO COLOMBO, 315              VARZEA GRANDE                           78125630MT219510000805731547 121258/01  31032010900BRADESCO S/A        2006201000000000000416140CC                                                                                                                                                                                                                                                                                                                                                                                           97594-46      000049
1024421006347COBR_CAUC_COR  DIBOX-DIST DE PROD ALIM BROKER LTDA     004225695000241E J TONIAZZO & CIA LTDA                 RUA CRISTOVAO COLOMBO, 315              VARZEA GRANDE                           78125630MT219510000905731563 121258/03  31032010900BRADESCO S/A        0507201000000000000416129CC                                                                                                                                                                                                                                                                                                                                                                                           97594-47      000050
1024421006347COBR_CAUC_COR  DIBOX-DIST DE PROD ALIM BROKER LTDA     004225695000241E J TONIAZZO & CIA LTDA                 RUA CRISTOVAO COLOMBO, 315              VARZEA GRANDE                           78125630MT219510001005731571 121262/01  31032010900BRADESCO S/A        1207201000000000001146148CC                                                                                                                                                                                                                                                                                                                                                                                           97594-48      000051
1024421006347COBR_CAUC_COR  DIBOX-DIST DE PROD ALIM BROKER LTDA     004225695000241E J TONIAZZO & CIA LTDA                 RUA CRISTOVAO COLOMBO, 315              VARZEA GRANDE                           78125630MT219510001105731580 121262/02  31032010900BRADESCO S/A        1907201000000000001146114CC                                                                                                                                                                                                                                                                                                                                                                                           97594-49      000052
1024421006347COBR_CAUC_COR  DIBOX-DIST DE PROD ALIM BROKER LTDA     004225695000241E J TONIAZZO & CIA LTDA                 RUA CRISTOVAO COLOMBO, 315              VARZEA GRANDE                           78125630MT219510001205731598 121262/03  31032010900BRADESCO S/A        2607201000000000001146115CC                                                                                                                                                                                                                                                                                                                                                                                           97594-50      000053
1024421006347COBR_CAUC_COR  DIBOX-DIST DE PROD ALIM BROKER LTDA     004225695000241E J TONIAZZO & CIA LTDA                 RUA CRISTOVAO COLOMBO, 315              VARZEA GRANDE                           78125630MT219510001305731601 121264/01  31032010900BRADESCO S/A        0208201000000000001402516CC                                                                                                                                                                                                                                                                                                                                                                                           97594-51      000054
1024421006347COBR_CAUC_COR  DIBOX-DIST DE PROD ALIM BROKER LTDA     004225695000241E J TONIAZZO & CIA LTDA                 RUA CRISTOVAO COLOMBO, 315              VARZEA GRANDE                           78125630MT219510001405731610 121264/02  31032010900BRADESCO S/A        0908201000000000001402473CC                                                                                                                                                                                                                                                                                                                                                                                           97594-52      000055
1024421006347COBR_CAUC_COR  DIBOX-DIST DE PROD ALIM BROKER LTDA     004225695000241E J TONIAZZO & CIA LTDA                 RUA CRISTOVAO COLOMBO, 315              VARZEA GRANDE                           78125630MT219510001505731628 121264/03  31032010900BRADESCO S/A        1608201000000000001402475CC                                                                                                                                                                                                                                                                                                                                                                                           97594-53      000056
1024421006347COBR_CAUC_COR  DIBOX-DIST DE PROD ALIM BROKER LTDA     004225695000241E J TONIAZZO & CIA LTDA                 RUA CRISTOVAO COLOMBO, 315              VARZEA GRANDE                           78125630MT219510001605731636 121263/01  31032010900BRADESCO S/A        1207201000000000000877199CC                                                                                                                                                                                                                                                                                                                                                                                           97594-54      000057
1024421006347COBR_CAUC_COR  DIBOX-DIST DE PROD ALIM BROKER LTDA     004225695000241E J TONIAZZO & CIA LTDA                 RUA CRISTOVAO COLOMBO, 315              VARZEA GRANDE                           78125630MT219510001705731644 121263/02  31032010900BRADESCO S/A        1907201000000000000877173CC                                                                                                                                                                                                                                                                                                                                                                                           97594-55      000058
1024421006347COBR_CAUC_COR  DIBOX-DIST DE PROD ALIM BROKER LTDA     004225695000241E J TONIAZZO & CIA LTDA                 RUA CRISTOVAO COLOMBO, 315              VARZEA GRANDE                           78125630MT219510001805731652 121263/03  31032010900BRADESCO S/A        2607201000000000000877174CC                                                                                                                                                                                                                                                                                                                                                                                           97594-56      000059
1024421006347COBR_CAUC_COR  DIBOX-DIST DE PROD ALIM BROKER LTDA     004225695000241E J TONIAZZO & CIA LTDA                 RUA CRISTOVAO COLOMBO, 315              VARZEA GRANDE                           78125630MT219510001905731750 121269/01  31032010900BRADESCO S/A        2006201000000000000453592CC                                                                                                                                                                                                                                                                                                                                                                                           97594-57      000060
1024421006347COBR_CAUC_COR  DIBOX-DIST DE PROD ALIM BROKER LTDA     004225695000241E J TONIAZZO & CIA LTDA                 RUA CRISTOVAO COLOMBO, 315              VARZEA GRANDE                           78125630MT219510002005731768 121269/02  31032010900BRADESCO S/A        2806201000000000000453578CC                                                                                                                                                                                                                                                                                                                                                                                           97594-58      000061
1024421006347COBR_CAUC_COR  DIBOX-DIST DE PROD ALIM BROKER LTDA     004225695000241E J TONIAZZO & CIA LTDA                 RUA CRISTOVAO COLOMBO, 315              VARZEA GRANDE                           78125630MT219510002105731776 121269/03  31032010900BRADESCO S/A        0507201000000000000453580CC                                                                                                                                                                                                                                                                                                                                                                                           97594-59      000062
1024421006347COBR_CAUC_COR  DIBOX-DIST DE PROD ALIM BROKER LTDA     004225695000241E J TONIAZZO & CIA LTDA                 RUA CRISTOVAO COLOMBO, 315              VARZEA GRANDE                           78125630MT219510002205731784 121268/01  31032010900BRADESCO S/A        2006201000000000000189303CC                                                                                                                                                                                                                                                                                                                                                                                           97594-60      000063
1024421006347COBR_CAUC_COR  DIBOX-DIST DE PROD ALIM BROKER LTDA     004225695000241E J TONIAZZO & CIA LTDA                 RUA CRISTOVAO COLOMBO, 315              VARZEA GRANDE                           78125630MT219510002305731792 121268/02  31032010900BRADESCO S/A        2806201000000000000189298CC                                                                                                                                                                                                                                                                                                                                                                                           97594-61      000064
1024421006347COBR_CAUC_COR  DIBOX-DIST DE PROD ALIM BROKER LTDA     004225695000241E J TONIAZZO & CIA LTDA                 RUA CRISTOVAO COLOMBO, 315              VARZEA GRANDE                           78125630MT219510002405731806 121268/03  31032010900BRADESCO S/A        0507201000000000000189299CC                                                                                                                                                                                                                                                                                                                                                                                           97594-62      000065
1024421006347COBR_CAUC_COR  DIBOX-DIST DE PROD ALIM BROKER LTDA     004225695000241E J TONIAZZO & CIA LTDA                 RUA CRISTOVAO COLOMBO, 315              VARZEA GRANDE                           78125630MT219510002505731873 121271/01  31032010900BRADESCO S/A        3008201000000000001194265CC                                                                                                                                                                                                                                                                                                                                                                                           97594-63      000066
1024421006347COBR_CAUC_COR  DIBOX-DIST DE PROD ALIM BROKER LTDA     004225695000241E J TONIAZZO & CIA LTDA                 RUA CRISTOVAO COLOMBO, 315              VARZEA GRANDE                           78125630MT219510002605731881 121271/02  31032010900BRADESCO S/A        0609201000000000001194229CC                                                                                                                                                                                                                                                                                                                                                                                           97594-64      000067
1024421006347COBR_CAUC_COR  DIBOX-DIST DE PROD ALIM BROKER LTDA     004225695000241E J TONIAZZO & CIA LTDA                 RUA CRISTOVAO COLOMBO, 315              VARZEA GRANDE                           78125630MT219510002705731890 121271/03  31032010900BRADESCO S/A        1309201000000000001194230CC                                                                                                                                                                                                                                                                                                                                                                                           97594-65      000068
1024421006347COBR_CAUC_COR  DIBOX-DIST DE PROD ALIM BROKER LTDA     004225695000241E J TONIAZZO & CIA LTDA                 RUA CRISTOVAO COLOMBO, 315              VARZEA GRANDE                           78125630MT219510002805731962 121273/01  31032010900BRADESCO S/A        0609201000000000000311138CC                                                                                                                                                                                                                                                                                                                                                                                           97594-66      000069
1024421006347COBR_CAUC_COR  DIBOX-DIST DE PROD ALIM BROKER LTDA     004225695000241E J TONIAZZO & CIA LTDA                 RUA CRISTOVAO COLOMBO, 315              VARZEA GRANDE                           78125630MT219510002905731971 121273/02  31032010900BRADESCO S/A        2009201000000000000311128CC                                                                                                                                                                                                                                                                                                                                                                                           97594-67      000070
1024421006347COBR_CAUC_COR  DIBOX-DIST DE PROD ALIM BROKER LTDA     004225695000241E J TONIAZZO & CIA LTDA                 RUA CRISTOVAO COLOMBO, 315              VARZEA GRANDE                           78125630MT219510003005731989 121273/03  31032010900BRADESCO S/A        2709201000000000000311130CC                                                                                                                                                                                                                                                                                                                                                                                           97594-68      000071
1024421006347COBR_CAUC_COR  DIBOX-DIST DE PROD ALIM BROKER LTDA     004225695000241E J TONIAZZO & CIA LTDA                 RUA CRISTOVAO COLOMBO, 315              VARZEA GRANDE                           78125630MT219510003105804056 121258/01  31032010900BRADESCO S/A        1110201000000000000416127CC                                                                                                                                                                                                                                                                                                                                                                                           97594-69      000072
1024421006347COBR_CAUC_COR  DIBOX-DIST DE PROD ALIM BROKER LTDA     004225695000241E J TONIAZZO & CIA LTDA                 RUA CRISTOVAO COLOMBO, 315              VARZEA GRANDE                           78125630MT219510003205879650 128776/01  30042010900BRADESCO S/A        3105201000000000000730059CC                                                                                                                                                                                                                                                                                                                                                                                           97594-70      000073
1024421006347COBR_CAUC_COR  DIBOX-DIST DE PROD ALIM BROKER LTDA     004225695000241E J TONIAZZO & CIA LTDA                 RUA CRISTOVAO COLOMBO, 315              VARZEA GRANDE                           78125630MT219510003305879668 128776/02  30042010900BRADESCO S/A        0706201000000000000730038CC                                                                                                                                                                                                                                                                                                                                                                                           97594-71      000074
1024421006347COBR_CAUC_COR  DIBOX-DIST DE PROD ALIM BROKER LTDA     004225695000241E J TONIAZZO & CIA LTDA                 RUA CRISTOVAO COLOMBO, 315              VARZEA GRANDE                           78125630MT219510003405879676 128776/03  30042010900BRADESCO S/A        1406201000000000000730039CC                                                                                                                                                                                                                                                                                                                                                                                           97594-72      000075
1024421006347COBR_CAUC_COR  DIBOX-DIST DE PROD ALIM BROKER LTDA     004225695000241E J TONIAZZO & CIA LTDA                 RUA CRISTOVAO COLOMBO, 315              VARZEA GRANDE                           78125630MT219510003505879684 128777/01  30042010900BRADESCO S/A        3105201000000000000833367CC                                                                                                                                                                                                                                                                                                                                                                                           97594-73      000076
1024421006347COBR_CAUC_COR  DIBOX-DIST DE PROD ALIM BROKER LTDA     004225695000241E J TONIAZZO & CIA LTDA                 RUA CRISTOVAO COLOMBO, 315              VARZEA GRANDE                           78125630MT219510003605879692 128777/02  30042010900BRADESCO S/A        0706201000000000000833342CC                                                                                                                                                                                                                                                                                                                                                                                           97594-74      000077
1024421006347COBR_CAUC_COR  DIBOX-DIST DE PROD ALIM BROKER LTDA     004225695000241E J TONIAZZO & CIA LTDA                 RUA CRISTOVAO COLOMBO, 315              VARZEA GRANDE                           78125630MT219510003705879706 128777/03  30042010900BRADESCO S/A        1406201000000000000833343CC                                                                                                                                                                                                                                                                                                                                                                                           97594-75      000078
1024421006347COBR_CAUC_COR  DIBOX-DIST DE PROD ALIM BROKER LTDA     004225695000241E J TONIAZZO & CIA LTDA                 RUA CRISTOVAO COLOMBO, 315              VARZEA GRANDE                           78125630MT219510003805879714 128778/01  30042010900BRADESCO S/A        3105201000000000003742692CC                                                                                                                                                                                                                                                                                                                                                                                           97594-76      000079
1024421006347COBR_CAUC_COR  DIBOX-DIST DE PROD ALIM BROKER LTDA     004225695000241E J TONIAZZO & CIA LTDA                 RUA CRISTOVAO COLOMBO, 315              VARZEA GRANDE                           78125630MT219510003905879722 128778/02  30042010900BRADESCO S/A        0706201000000000003742580CC                                                                                                                                                                                                                                                                                                                                                                                           97594-77      000080
1024421006347COBR_CAUC_COR  DIBOX-DIST DE PROD ALIM BROKER LTDA     004225695000241E J TONIAZZO & CIA LTDA                 RUA CRISTOVAO COLOMBO, 315              VARZEA GRANDE                           78125630MT219510004005879731 128778/03  30042010900BRADESCO S/A        1406201000000000003742582CC                                                                                                                                                                                                                                                                                                                                                                                           97594-78      000081
1021420930887COBR_CAUC_COR  DEDINI S/A INDUSTRIAS DE BASE           043619832001760BRANCO PERES ACUCAR E ALCOOL SA         ROD DR PLACIDO ROCHA LAGOA SECA BR      ADAMANTINA                              17800000SP219520000105792980232-1-1     29042010600HSBC BANK BRASIL    2005201000000000010488500CC                                                                                                                                                                                                                                                                                                                                                                                           97799-1       000082
1037420933912COBR_CAUC_BIC  COPPER 100 IND. COM. LTDA               089463822000627LUPATECH S/A                            R.DALTON LAHM DOS REIS 201- CX.P 1215   CAXIAS DO SUL                           95112090RS2195300001043787623841/1      30042010029CAXIAS DO SUL       1706201000000000013718600CC                                                                                                                                                                                                                                                                                                                                                                                           97799-2       000083
1019421004658COBR_CAUC_COR  S/A ESTADO DE MINAS                     020125225000181VILA DA SERRA EMPREEND IMOB LTDA        ALAMEDA DA SERRA 1021 311               NOVA LIMA                               34000000MG2197400001009657542103272-1   30042010900BRADESCO S/A        1505201000000000030000000CC                                                                                                                                                                                                                                                                                                                                                                                           98046-1       000084
1014421012444COBR_CAUC_COR  HOTEIS OTHON S/A.                       007575651000310VRG LINHAS AEREAS S A                   PCA SEN SALGADO FILHO S N SALA 02       RIO DE JANEIRO                          20021971RJ2197500001000600061200206101  05052010900BRADESCO S/A        2705201000000000028582000CC                                                                                                                                                                                                                                                                                                                                                                                           98046-2       000085
1029420932214COBR_CAUC_COR  BERTOL S/A IND COM E EXP                077752293006129COOPERATIVA AGROINDUSTRIAL LAR          AV BRASILIA, 1220 CXP:080               MEDIANEIRA                              85884000PR219760000109196267E110036431  29042010900BRADESCO S/A        1907201000000000012000000CC                                                                                                                                                                                                                                                                                                                                                                                           98046-3       000086
1008421003482COBR_CAUC_BIC  METALGRAFICA CEARENSE S/AMECESA         006272199000193CIA MARANHENSE DE REFRIGERANTES         RODOVIA MÁRIO ANDREAZZA, N.º 1.800      VARZEA GRANDE                           78110798MT21977000010795226201062901    04052010024CUIABA              0106201000000000011487567CC                                                                                                                                                                                                                                                                                                                                                                                           98046-4       000087
1029140511987COBR_CAUC_BIC  BRASFUMO IND BRAS DE FUMOS S/A          005648120000385TABACUM INTERAMERICAN COM.E EXP.DE      ROD RSC 287, SN                         VENANCIO AIRES                          95800000RS219780000109196216000005620   04052010015PORTO ALEGRE        0208201000000000015516000TD                                                                                                                                                                                                                                                                                                                                                                                           98046-5       000088
1018421015244COBR_CAUC_BIC  PRODUBON NUTRICAO ANIMAL LTDA           000015481468891GERALDO DE OLIVEIRA VALLIM E OUTRO      PRAÇA CORONEL JOAQUIM CANDIDO N50       SAO JOAO DA BOA                         13870149SP2197900001016513276176/1      30042010021CAMPINAS            3009201000000000014310000CC                                                                                                                                                                                                                                                                                                                                                                                           98046-6       000089
1013421005732DIR_CREDIT     INFORMATIVA DISTR. DE IMPR. LTDA        015257819000106EMPRESA GRÁFICA DA BAHIA - EGBA         RUA MELLO MORAIS FILHO NR 189 FAZENDA G SALVADOR                                40352000BA2199300001                                                                                                                                          481016912           130720070000002969CONTRATO 09/04052010000404CONTRATO DE PRESTAÇÃO DE SERVIÇOS DE DISTRIBUIÇÃO, ENCADERNAÇÃO E COMERCIALIZAÇÃO DE JORNAIS, LIVROS, REVISTAS E OUTROS SERVIÇOS CORRELATOS, CONTRATO NR 009/2007                                                                               00781769100016098046-7       000090
1023421005148DIR_CREDIT     BANDEIRANTES DRAGAGEM E CONSTR.LTD      044837524000107COMP.DOCAS DO EST.SAO PAULO - CODESP    AV. CONS.RODRIGUES ALVES S/N            SANTOS                                  11015900SP2199100001                                                                                                                                          010899046           150120090000011022CONTRATO DP/04052010000403serviços de dragagem de manutenção profundidade dos berços de atraçãodo porto de santos utilizando criterio medição in situ                                                                                                                     04452060900016798271-1       000091
1021420930887COBR_CAUC_COR  DEDINI S/A INDUSTRIAS DE BASE           008830263000130FATIMA DO SUL AGRO-ENERGETICA SA A      ROD OTR LINHA DO BARREIRINHO -LTS2 ZON  FATIMA DO SUL                           79700000MS220120000105798015110358-2-2  31032010900BRADESCO S/A        1506201000000000034427000CC                                                                                                                                                                                                                                                                                                                                                                                           98271-2       000092
1016421011053COBR_CAUC_COR  FRIMESA COOPERATIVA CENTRAL             076189406000126CONDOR SUPER CENTER LTDA                EST DO GANCHINHO,690 RODOVIA CONTORNO SUCURITIBA                                81930160PR220130000102757662151747-1    05052010900BRADESCO S/A        0406201000000000013429356CC                                                                                                                                                                                                                                                                                                                                                                                           98271-3       000093
1022141001217COBR_CAUC_BIC  BALDIN BIOENERGIA S/A                   001062529000100DULCINI S/A                             ESTR SITIO TABOAO S/N Z RURAL           PIRASSUNUNGA                            13631301SP2201400001038371726811/08     30032010021CAMPINAS            1706201000000000025000000TD                                                                                                                                                                                                                                                                                                                                                                                           98271-4       000094
1022141001217COBR_CAUC_BIC  BALDIN BIOENERGIA S/A                   001062529000100DULCINI S/A                             ESTR SITIO TABOAO S/N Z RURAL           PIRASSUNUNGA                            13631301SP2201400002038371816811/09     30032010021CAMPINAS            1806201000000000025000000TD                                                                                                                                                                                                                                                                                                                                                                                           98271-5       000095
1022141001217COBR_CAUC_BIC  BALDIN BIOENERGIA S/A                   001062529000100DULCINI S/A                             ESTR SITIO TABOAO S/N Z RURAL           PIRASSUNUNGA                            13631301SP2201400003038371996811/10     30032010021CAMPINAS            2106201000000000025000000TD                                                                                                                                                                                                                                                                                                                                                                                           98271-6       000096
1022141001217COBR_CAUC_BIC  BALDIN BIOENERGIA S/A                   001062529000100DULCINI S/A                             ESTR SITIO TABOAO S/N Z RURAL           PIRASSUNUNGA                            13631301SP2201400004038372026811/11     30032010021CAMPINAS            2206201000000000025000000TD                                                                                                                                                                                                                                                                                                                                                                                           98271-7       000097
1022141001217COBR_CAUC_BIC  BALDIN BIOENERGIA S/A                   001062529000100DULCINI S/A                             ESTR SITIO TABOAO S/N Z RURAL           PIRASSUNUNGA                            13631301SP2201400005038372116811/12     30032010021CAMPINAS            2306201000000000025000000TD                                                                                                                                                                                                                                                                                                                                                                                           98271-8       000098
1022141001217COBR_CAUC_BIC  BALDIN BIOENERGIA S/A                   001062529000100DULCINI S/A                             ESTR SITIO TABOAO S/N Z RURAL           PIRASSUNUNGA                            13631301SP2201400006038372296811/13     30032010021CAMPINAS            2406201000000000025000000TD                                                                                                                                                                                                                                                                                                                                                                                           98271-9       000099
1022141001217COBR_CAUC_BIC  BALDIN BIOENERGIA S/A                   001062529000100DULCINI S/A                             ESTR SITIO TABOAO S/N Z RURAL           PIRASSUNUNGA                            13631301SP2201400007038372376811/14     30032010021CAMPINAS            2506201000000000025000000TD                                                                                                                                                                                                                                                                                                                                                                                           98271-10      000100
1022141001217COBR_CAUC_BIC  BALDIN BIOENERGIA S/A                   001062529000100DULCINI S/A                             ESTR SITIO TABOAO S/N Z RURAL           PIRASSUNUNGA                            13631301SP2201400008038372456811/15     30032010021CAMPINAS            2806201000000000025000000TD                                                                                                                                                                                                                                                                                                                                                                                           98271-11      000101
1017421010350DIR_CREDIT     LUIZ SOARES PINTO                       012718011001081CENTRAL ACUC STO ANTONIO FILIAL CAMARAGIRUA BARAO DE JARAGUá 195, JARAGUá       MACEIó                                  57000000AL2201600001                                                                                                                                          010953024           080420100000013064            05052010000403fornecimento de 8000 (oito mil) toneladas de cana de açúcar a ser cultivada no imóvel rural denominado fazenda recanto, localizado no município de matriz de camaragibe, pendente de corte para a safra 2010/2011.                              00594725400005398271-12      000102
1036420932373DIR_CREDIT     SAUDE ABC SERVICOS MEDICO HOSP LTDA     043202472000130UNIMED PAULISTANA SOC.COOPER.DE TRAB.MEDAV. BRIGADEIRO LUIS ANTONIO, 487        SÃO PAULO                               01318000SP2202000001                                                                                                                                          481015842           011220070000011949001         05052010000404O CONTRATADO PRESTARÁ AOS BENEFICIÁRIOS DA CONTRATANTE ATENDIMENTO MÉDICO HOSPITALAR.                                                                                                                                                           00417849000017198271-13      000103
1018421020760DIR_CREDIT     GOIAS VERDE ALIMENTOS LTDA              000588458000103FUGINI ALIMENTOS LTDA                   AV FUGITA N 1000 JARDIM NOVO PARAISO    MONTE ALTO                              15910000SP2202800001                                                                                                                                          010949570           261120090000013154S/N         05052010000403fornecimento pela goias verde alimentos ltda de crushed de tomate 8,0 mm para fins industriais da safra de 2010.                                                                                                                                02486674100011898271-14      000104
1022421004852DIR_CREDIT     TONON BIOENERGIA S/A                    007733867000103BAUCHE ENERGY BRASIL TRADING S/A        AV. BRIGADEIRO FARIA LIMA, 201 CONJ 151 SãO PAULO                               05426001SP2203300001                                                                                                                                          010908146           091220090000012662LP09-116    31032010017002fornecimento de etanol etilico anidro, produzido de cana de açúcar oumelaço - safra 2010/2011, 2011/2012, 2012/2013 - padrão europa en 15376                                                                                                    00791423000010598271-15      000105
1043421003948DIR_CREDIT     LINEAR ENG E EMPREEN LTDA               005055128000176UNIVERSIDADE FEDERAL DE CAMPINA GRANDE  AV APRIGIO VELOSO 882                   CAMPINA GRANDE                          58109000PB2203500001                                                                                                                                          010958434           221220090000012006UFCG/PRA 11705052010000403construção e recuperação da cerca de contorno do Campus de Campina Grande/PB.                                                                                                                                                                   00169834100014598271-16      000106
1043421003948DIR_CREDIT     LINEAR ENG E EMPREEN LTDA               005055128000176UNIVERSIDADE FEDERAL DE CAMPINA GRANDE  AV APRIGIO VELOSO 882                   CAMPINA GRANDE                          58109000PB2203600001                                                                                                                                          010958434           221220090000012006UFCG/PRA 11705052010000403construção e recuperação da cerca de contorno do Campus de Campina Grande/PB.                                                                                                                                                                   00169834100014598271-17      000107
9000106                                                                                                                                                                                                                                                                                                                                                                                                                                                                                                                                                                                                                                                                                                               000108
