0REMESSANOTIFICAÇÃO ELETRONICA        99999999999999Bicbanco S/A                            Avenida Paulista , 1048 12º andar                           BELA VISTA                    SÃO PAULO                     01310100SPBicbanco S/A                                                                    06082010                                                                                                                                                                                                                                                                                                                                                                                                000001
1028421002921COBR_CAUC_COR  FRIGORIFICO MATABOI S/A                 004557157000335PREZUNIC COMERCIAL LTDA                 R DO ALPISTE 568                        RIO DE JANEIRO                          21011010RJ2236700001001419470009611101  22052010900BRADESCO S/A        2106201000000000020798702CC                                                                                                                                                                                                                                                                                                                                                                                           101793-1      000002
1028421002921COBR_CAUC_COR  FRIGORIFICO MATABOI S/A                 004557157000335PREZUNIC COMERCIAL LTDA                 R DO ALPISTE 568                        RIO DE JANEIRO                          21011010RJ2236700002001419550009611401  22052010900BRADESCO S/A        2106201000000000020792153CC                                                                                                                                                                                                                                                                                                                                                                                           101793-2      000003
1028421002921COBR_CAUC_COR  FRIGORIFICO MATABOI S/A                 004557157000335PREZUNIC COMERCIAL LTDA                 R DO ALPISTE 568                        RIO DE JANEIRO                          21011010RJ2236700003001419800009648001  24052010900BRADESCO S/A        2306201000000000035616990CC                                                                                                                                                                                                                                                                                                                                                                                           101793-3      000004
1009420930764COBR_CAUC_BIC  S/A CORREIO BRAZILIENSE                 006102961000193SIND.NAC.EMP. TELEFONIA E SERVICOS      AV.PASTEUR, 383 URCA BR                 RIO DE JANEIRO                          22290240RJ223680000101328403386103-1    25052010014RIO DE JANEIRO      3005201000000000015678000CC                                                                                                                                                                                                                                                                                                                                                                                           101793-4      000005
1007420931444COBR_CAUC_BIC  PLASINCO LTDA                           053606869000140BRASCOPPER CBC BRASILEIRA DE CONDU      R. URUGUAI,2050-TANQUINHO               RIBEIRAO PRETO                          14075330SP2236900001098857485142-A      26052010022RIBEIRAO PRETO      2206201000000000019377900CC                                                                                                                                                                                                                                                                                                                                                                                           101793-5      000006
1007420931444COBR_CAUC_BIC  PLASINCO LTDA                           053606869000140BRASCOPPER CBC BRASILEIRA DE CONDU      R. URUGUAI,2050-TANQUINHO               RIBEIRAO PRETO                          14075330SP2236900002098857815141-A      26052010022RIBEIRAO PRETO      2206201000000000020748600CC                                                                                                                                                                                                                                                                                                                                                                                           101793-6      000007
1007420931444COBR_CAUC_BIC  PLASINCO LTDA                           053606869000140BRASCOPPER CBC BRASILEIRA DE CONDU      R. URUGUAI,2050-TANQUINHO               RIBEIRAO PRETO                          14075330SP2236900003098857995146-A      26052010022RIBEIRAO PRETO      2306201000000000020736000CC                                                                                                                                                                                                                                                                                                                                                                                           101793-7      000008
1007421035264COBR_CAUC_BIC  ALLIED ADVANCED TECHNOLOGIES LTDA       089237911000140MADEIREIRA HERVAL LTDA                  AVENIDA IRINEU BECKER 202               DOIS IRMAOS                             93950000RS22370000010988773200073361 B  04052010015PORTO ALEGRE        0208201000000000010019262CC                                                                                                                                                                                                                                                                                                                                                                                           101793-8      000009
1003421013987COBR_CAUC_COR  SCIENTIFIC COM E IMPORTACAO LTDA        003517055000161EXCELSIOR MED LTDA                      AV MINISTRO MARCOS FREIRE,1416          OLINDA                                  53040010PE2237100001000036792003        24052010900BRADESCO S/A        0407201000000000019520000CC                                                                                                                                                                                                                                                                                                                                                                                           101793-9      000010
1007421035337COBR_CAUC_COR  COML IMP E EXP LA RIOJA LTDA            004387661000172MALBEC BRASIL COML IMP EXP LTDA         R VISCONDE DE PARNAIBA, 1110            SAO PAULO                               03044000SP22372000010023133830825       25052010900BRADESCO S/A        2306201000000000010308009CC                                                                                                                                                                                                                                                                                                                                                                                           101793-10     000011
1028421002719COBR_CAUC_BIC  SIPCAM ISAGRO BRASIL S/A                002974733000152DVA AGRO DO BRASIL-COM IMP EXP INS      R. DR. PAULO CASTRO PUPO NOGUEIRA, 90   CAMPINAS                                13092104SP223960000102611070DC00261901  20052010021CAMPINAS            3007201000000000039754800CC                                                                                                                                                                                                                                                                                                                                                                                           101794-1      000012
1007420931444COBR_CAUC_BIC  PLASINCO LTDA                           053606869000140BRASCOPPER CBC BRASILEIRA DE CONDU      R. URUGUAI,2050                         RIBEIRAO PRETO                          14075330SP2239700001098883305173-A      27052010022RIBEIRAO PRETO      2406201000000000020748600CC                                                                                                                                                                                                                                                                                                                                                                                           101794-2      000013
1007420931444COBR_CAUC_COR  PLASINCO LTDA                           066007857000141WIREX CABLE S/A                         ESTR. JACAREI /STA. BRA,0-PREDIO A      SANTA BRANCA                            12380000SP2239800001098883055163-A      26052010900BRADESCO S/A        2606201000000000043975000CC                                                                                                                                                                                                                                                                                                                                                                                           101794-3      000014
1022421002370COBR_CAUC_COR  FRIGOESTRELA S.A.                       009104182000115MINERVA DAWN FARMS IND. E COM. PRO      AVENIDA ANTONIO MANCO BERNARDESS/N      BARRETOS                                14781545SP2239900001025990900033810101  26052010900BRADESCO S/A        1606201000000000014726960CC                                                                                                                                                                                                                                                                                                                                                                                           101794-4      000015
1007421035264COBR_CAUC_COR  ALLIED ADVANCED TECHNOLOGIES LTDA       004565289000570BENCHIMOL IRMAO & CIA LTDA - MANAU      RUA MIRANDA LEAO, 41                    MANAUS                                  69005901AM22400000010988888700074591 A  05052010900BRADESCO S/A        0407201000000000019405530CC                                                                                                                                                                                                                                                                                                                                                                                           101794-5      000016
1007421035264COBR_CAUC_COR  ALLIED ADVANCED TECHNOLOGIES LTDA       004565289000570BENCHIMOL IRMAO & CIA LTDA - MANAU      RUA MIRANDA LEAO, 41                    MANAUS                                  69005901AM22400000020988889500074951 A  05052010900BRADESCO S/A        0407201000000000027784539CC                                                                                                                                                                                                                                                                                                                                                                                           101794-6      000017
1007421035264COBR_CAUC_BIC  ALLIED ADVANCED TECHNOLOGIES LTDA       004900392000449MAX AGP COMUNICACOES LTDA               RUA DA QUITANDA, 79                     RIO DE JANEIRO                          20091005RJ22401000010988968900079801 A  11052010014RIO DE JANEIRO      0908201000000000016707066CC                                                                                                                                                                                                                                                                                                                                                                                           101794-7      000018
1007421035264COBR_CAUC_BIC  ALLIED ADVANCED TECHNOLOGIES LTDA       010190392000152GTX TELECOM COMERCIO DE TELEFONIA       RUA VERGUEIRO, 2949-19 ANDAR CJ 191     SAO PAULO                               04101300SP22402000010988897600075211 A  06052010007PAULISTA            0408201000000000014613084CC                                                                                                                                                                                                                                                                                                                                                                                           101794-8      000019
1007421035264COBR_CAUC_COR  ALLIED ADVANCED TECHNOLOGIES LTDA       026404731000196ELETROZEMA LTDA                         AV JOSÉ ANANIAS AGUIAR, 5005            Araxa                                   38184200MG22403000010988955700078901 A  11052010900BRADESCO S/A        1007201000000000020930000CC                                                                                                                                                                                                                                                                                                                                                                                           101794-9      000020
1007421035264COBR_CAUC_BIC  ALLIED ADVANCED TECHNOLOGIES LTDA       078614278000227COMERCIAL DE MOVEIS BRASILIA LTDA       RUA SANTA CATARINA, 194                 LONDRINA                                86010210PR22404000010988946800078431 A  10052010031LONDRINA            0907201000000000018034483CC                                                                                                                                                                                                                                                                                                                                                                                           101794-10     000021
1043421001724DIR_CREDIT     CONSERV CONST E SERV LTDA               012272084000100CIA ENERGETICA DE ALAGOAS - CEAL        AV FERNANDES LIMA,3349 - FAROL          MACEIO                                  57057000AL2241200001                                                                                                                                          481006935           130820080000008419159/2008    26052010000404Prestação de serviços técnico-comerciais em Unidades consumidoras de energia elétrica atendidas em média e baixa tensão, na área de abrangência da gerência comercial do Oeste da Ceal.                                                         005219643000144101795-1      000022
1024420934410COBR_CAUC_BIC  INTERCOOP INT SUIN MED NORTE MT LTD     038711826000131LINCON INDUSTRIA E COMERCIO LTDA        RUA JOSE MARIA DE LACERDA 205,2058      CONTAGEM                                32210120MG22420000010179967839566       21052010019BELO HORIZONTE      1106201000000000013733405CC                                                                                                                                                                                                                                                                                                                                                                                           101795-2      000023
1024420934410COBR_CAUC_BIC  INTERCOOP INT SUIN MED NORTE MT LTD     044077378000169COPROSUL COMERCIO IMPORTACAO E EXP      RUA LEONOR FER,1949-VILA GUILHERME      SAO PAULO                               02052020SP22421000010179968639479       20052010007PAULISTA            2406201000000000011859930CC                                                                                                                                                                                                                                                                                                                                                                                           101795-3      000024
1024420934410COBR_CAUC_BIC  INTERCOOP INT SUIN MED NORTE MT LTD     061270393000148FRIGORIFICO MARBA LTDA                  AV CEZAR MAGNANI 971,971                SAO BERNARDO                            09694000SP22422000010179976739691       25052010038ABC                 2406201000000000015758279CC                                                                                                                                                                                                                                                                                                                                                                                           101795-4      000025
1007421035264COBR_CAUC_BIC  ALLIED ADVANCED TECHNOLOGIES LTDA       033068883000201SOCIEDADE COMERCIAL E IMPORTADORA       RUA VICTOR CIVITA, 77 BL.1 2 ANDAR      RIO DE JANEIRO                          22775906RJ22423000010989167500076091 A  06052010014RIO DE JANEIRO      1507201000000000025359151CC                                                                                                                                                                                                                                                                                                                                                                                           101795-5      000026
1007421035264COBR_CAUC_BIC  ALLIED ADVANCED TECHNOLOGIES LTDA       033068883000201SOCIEDADE COMERCIAL E IMPORTADORA       RUA VICTOR CIVITA, 77 BL.1 2 ANDAR      RIO DE JANEIRO                          22775906RJ22423000020989169100077651 A  10052010014RIO DE JANEIRO      1907201000000000018042000CC                                                                                                                                                                                                                                                                                                                                                                                           101795-6      000027
1016141008940COBR_CAUC_COR  COOPERATIVA RIO DO PEIXE                083310441000117AURORA S/A                              RUA JOAO MARTINS,219                    CHAPECO                                 89803901SC224240000102775881524931      19052010900BRADESCO S/A        1806201000000000011317548TD                                                                                                                                                                                                                                                                                                                                                                                           101795-7      000028
1016141008940COBR_CAUC_COR  COOPERATIVA RIO DO PEIXE                083310441000117AURORA S/A                              RUA JOAO MARTINS,219                    CHAPECO                                 89803901SC224240000202775890524929      19052010900BRADESCO S/A        2106201000000000025212180TD                                                                                                                                                                                                                                                                                                                                                                                           101795-8      000029
1007421035337COBR_CAUC_COR  COML IMP E EXP LA RIOJA LTDA            001928075002062D M A DIST SA (PERECIVEIS)              ROD BR 040 KM 531, 180                  BELO HORIZONTE                          30855500MG22425000010023282231083       27052010900BRADESCO S/A        1207201000000000021500430CC                                                                                                                                                                                                                                                                                                                                                                                           101795-9      000030
1019421002850DIR_CREDIT     SEMPRE VIVA MIN. CONST. TRANSP. LT      040164964001595ANGLOGOLD ASHANTI BRASIL MINERACAO LTDA OTR MINA CORREGO DO SITIO S/N           SANTA BARBARA                           35960000MG2242700001                                                                                                                                          481010433           010720090000009950            27052010000404Prestação de serviço de terraplenagem, remoçao e transporte de minerio dentro das instalaçoes da contratante.                                                                                                                                   018299370000137101795-10     000031
1013421015223DIR_CREDIT     CACO DE TELHA PROD EVENTOS LTDA         033200056000149LOJAS RIACHUELO S.A                     RUA LEAO XIII Nº 500 JARDIM SAO BENTO   SAO PAULO                               02526000BA2245300001                                                                                                                                          010803370           141220090000011219            30042010000403prestação de serviços da contratada mediante a disponibilização da artista anuente nos periodos indicadosno contrato sujeito as retriçoes estabelecidas neste contrato com concessao do direito do uso de imagem e som de voz                   000829821000135101795-11     000032
1013421015223DIR_CREDIT     CACO DE TELHA PROD EVENTOS LTDA         033200056000149LOJAS RIACHUELO S.A                     RUA LEAO XIII Nº 500 JARDIM SAO BENTO   SAO PAULO                               02526000BA2245400001                                                                                                                                          010803370           141220090000011219            30042010000403prestação de serviços da contratada mediante a disponibilização da artista anuente nos periodos indicadosno contrato sujeito as retriçoes estabelecidas neste contrato com concessao do direito do uso de imagem e som de voz                   000829821000135101795-12     000033
1032421016114DIR_CREDIT     DOUAT COMPANHIA TEXTIL                  046523056000121PREFEITURA MUNICIPAL DE SUZANO          RUA BAREL, 501                          SUZANO                                  08675000SP2253000001                                                                                                                                          010956626           040120100000013169103/2009    01062010000404Aquisição de kits de uniformes escolares através da ata de registro de preços 002/2010                                                                                                                                                          082610726000100102383-1      000034
1014421016636COBR_CAUC_BIC  BELNORTE PRODUTOS DE BELEZA LTDA        070089974000179COMERCIAL VITA NORTE LTDA               ROD BR-101 SUL KM 73 Nø 4505 GALPAO A   RECIFE                                  50900400PE2255500001042311910090826     01062010010RECIFE              0407201000000000011900886CC                                                                                                                                                                                                                                                                                                                                                                                           102383-2      000035
1003421013987COBR_CAUC_COR  SCIENTIFIC COM E IMPORTACAO LTDA        008546929000122CARESTREAM DO BRASIL COM.SERV.P.ME      AV.DR.MARCOS PENTEADO,401-PARTE 17      BARUERI                                 06460040SP225560000100003831204         29052010900BRADESCO S/A        2807201000000000013008753CC                                                                                                                                                                                                                                                                                                                                                                                           102383-3      000036
1038421000764COBR_CAUC_BIC  METROPOLITAN LOGIST COMERCIAL LTDA      061068276002816UNILEVER BRASIL LTDA                    AV JOSE LUIZ MAZZALI, 450 , PARTE       LOUVEIRA                                13290000SP225570000108746661562         04062010007PAULISTA            2106201000000000015650600CC                                                                                                                                                                                                                                                                                                                                                                                           102383-4      000037
1038421000764COBR_CAUC_BIC  METROPOLITAN LOGIST COMERCIAL LTDA      061068276002816UNILEVER BRASIL LTDA                    AV JOSE LUIZ MAZZALI, 450 , PARTE       LOUVEIRA                                13290000SP225570000208746670563         04062010007PAULISTA            2106201000000000014729400CC                                                                                                                                                                                                                                                                                                                                                                                           102383-5      000038
1016141008940COBR_CAUC_COR  COOPERATIVA RIO DO PEIXE                083310441000117AURORA S/A                              RUA JOAO MARTINS,219                    CHAPECO                                 89803901SC225580000102782489526157      27052010900BRADESCO S/A        2106201000000000024979802TD                                                                                                                                                                                                                                                                                                                                                                                           102383-6      000039
1016141008940COBR_CAUC_COR  COOPERATIVA RIO DO PEIXE                083310441000117AURORA S/A                              RUA JOAO MARTINS,219                    CHAPECO                                 89803901SC225580000202782497526445      28052010900BRADESCO S/A        2206201000000000030548957TD                                                                                                                                                                                                                                                                                                                                                                                           102383-7      000040
1016141008940COBR_CAUC_COR  COOPERATIVA RIO DO PEIXE                083310441000117AURORA S/A                              RUA JOAO MARTINS,219                    CHAPECO                                 89803901SC225580000302782501526161      27052010900BRADESCO S/A        2306201000000000031908592TD                                                                                                                                                                                                                                                                                                                                                                                           102383-8      000041
1016141008940COBR_CAUC_COR  COOPERATIVA RIO DO PEIXE                083310441000117AURORA S/A                              RUA JOAO MARTINS,219                    CHAPECO                                 89803901SC225580000402782519526731      31052010900BRADESCO S/A        2406201000000000020559988TD                                                                                                                                                                                                                                                                                                                                                                                           102383-9      000042
1016141008940COBR_CAUC_COR  COOPERATIVA RIO DO PEIXE                083310441000117AURORA S/A                              RUA JOAO MARTINS,219                    CHAPECO                                 89803901SC225580000502782535526747      31052010900BRADESCO S/A        2506201000000000030749230TD                                                                                                                                                                                                                                                                                                                                                                                           102383-10     000043
1018421016232COBR_CAUC_COR  LEITBOM S/A                             004180523000118CARVALHO ATACADO DE ALIM LTDA           AV DEP PAULO FERRAZ 4888                TERESINA                                64078820PI2325000001010460830002412001  28062010900BRADESCO S/A        1208201000000000030600000CC                                                                                                                                                                                                                                                                                                                                                                                           106041-1      000044
1018421016232COBR_CAUC_COR  LEITBOM S/A                             004180523000118CARVALHO ATACADO DE ALIM LTDA           AV DEP PAULO FERRAZ 4888                TERESINA                                64078820PI2325000002010460910002429001  29062010900BRADESCO S/A        1308201000000000030600000CC                                                                                                                                                                                                                                                                                                                                                                                           106041-2      000045
1018421016232COBR_CAUC_COR  LEITBOM S/A                             004180523000118CARVALHO ATACADO DE ALIM LTDA           AV DEP PAULO FERRAZ 4888                TERESINA                                64078820PI2325000003010461050002431001  29062010900BRADESCO S/A        1308201000000000030600000CC                                                                                                                                                                                                                                                                                                                                                                                           106041-3      000046
1018421016232COBR_CAUC_COR  LEITBOM S/A                             004180523000118CARVALHO ATACADO DE ALIM LTDA           AV DEP PAULO FERRAZ 4888                TERESINA                                64078820PI2325000004010461130002432001  29062010900BRADESCO S/A        1308201000000000030600000CC                                                                                                                                                                                                                                                                                                                                                                                           106041-4      000047
1018421016232COBR_CAUC_COR  LEITBOM S/A                             004180523000118CARVALHO ATACADO DE ALIM LTDA           AV DEP PAULO FERRAZ 4888                TERESINA                                64078820PI2325000005010461210002479001  30062010900BRADESCO S/A        1408201000000000030600000CC                                                                                                                                                                                                                                                                                                                                                                                           106041-5      000048
1021420930887COBR_CAUC_COR  DEDINI S/A INDUSTRIAS DE BASE           048295562001108USINA ALTO ALEGRE S A - ACUCAR E A      LOC FAZENDA ALTA FLORESTA AMELIOPOLIS BRPRESIDENTE PRUD                         19140000SP232510000105860659122406-1-1  13072010600HSBC BANK BRASIL    3008201000000000061001250CC                                                                                                                                                                                                                                                                                                                                                                                           106041-6      000049
1021420930887COBR_CAUC_COR  DEDINI S/A INDUSTRIAS DE BASE           048295562001108USINA ALTO ALEGRE S A - ACUCAR E A      LOC FAZENDA ALTA FLORESTA AMELIOPOLIS BRPRESIDENTE PRUD                         19140000SP232510000205860667122382-1-1  13072010900HSBC BANK BRASIL    3008201000000000036395370CC                                                                                                                                                                                                                                                                                                                                                                                           106041-7      000050
1037420933912COBR_CAUC_BIC  COPPER 100 IND. COM. LTDA               006166794000225DIMEX DISTRIBUIDORA DE MATERIAL EL      RUA PADRE LEOPOLDO MERTENS,606          BELO HORIZONTE                          31255200MG2325200001043984965159/2      13072010019BELO HORIZONTE      1109201000000000022110575CC                                                                                                                                                                                                                                                                                                                                                                                           106041-8      000051
1019421007320COBR_CAUC_COR  ATHOS FARMA SUDESTE S/A                 042225938000150CSB DROGARIAS S A                       R MARIA SOARES SENDAS , 335             SAO JOAO DE MER                         25575825RJ232530000100240598127218A     25102007900BRADESCO S/A        2010201000000000022340055CC                                                                                                                                                                                                                                                                                                                                                                                           106041-9      000052
1019421007320COBR_CAUC_COR  ATHOS FARMA SUDESTE S/A                 042225938000150CSB DROGARIAS S A                       R MARIA SOARES SENDAS , 335             SAO JOAO DE MER                         25575825RJ232530000200240610208619A     26122007900BRADESCO S/A        2010201000000000037103912CC                                                                                                                                                                                                                                                                                                                                                                                           106041-10     000053
1037420933912COBR_CAUC_BIC  COPPER 100 IND. COM. LTDA               089463822000627LUPATECH S/A                            R.DALTON LAHM DOS REIS 201- CX.P 1215   CAXIAS DO SUL                           95112090RS2328200001043986915200/1      15072010029CAXIAS DO SUL       2908201000000000011273040CC                                                                                                                                                                                                                                                                                                                                                                                           106165-1      000054
1024420934410COBR_CAUC_BIC  INTERCOOP INT SUIN MED NORTE MT LTD     010578244000100GP INDUSTRIA SERVICOS E COMERCIO D      RUA MANOEL DUARTE ,167                  SAO GONCALO                             24430500RJ23283000010181174142108       06072010014RIO DE JANEIRO      0308201000000000010827167CC                                                                                                                                                                                                                                                                                                                                                                                           106165-2      000055
1014421014420COBR_CAUC_BIC  RADIO ARCA LTDA                         029737103000110SEBRAE RJ-SERV.APOIO PEQ.E M.EMP.D      RUA SANTA LUZIA, 685 SLS.603/618/7      RIO DE JANEIRO                          20011001RJ2328400001000524020003226     15072010014RIO DE JANEIRO      1509201000000000020296000CC                                                                                                                                                                                                                                                                                                                                                                                           106165-3      000056
1038421000764COBR_CAUC_BIC  METROPOLITAN LOGIST COMERCIAL LTDA      061068276002816UNILEVER BRASIL LTDA                    AV JOSE LUIZ MAZZALI, 450 , PARTE       LOUVEIRA                                13290000SP23285000010881452735458       15072010007PAULISTA            2808201000000000011756349CC                                                                                                                                                                                                                                                                                                                                                                                           106165-4      000057
1038421000764COBR_CAUC_BIC  METROPOLITAN LOGIST COMERCIAL LTDA      061068276002816UNILEVER BRASIL LTDA                    AV JOSE LUIZ MAZZALI, 450 , PARTE       LOUVEIRA                                13290000SP23285000020881453535459       15072010007PAULISTA            2808201000000000010567115CC                                                                                                                                                                                                                                                                                                                                                                                           106165-5      000058
1041421007050DIR_CREDIT     E R DE SOUSA MESSIAS                    007257868000110R R CONSTRUçOES LTDA                    AV. PEDRO ALMEIDA,60 BALON CENTER S-13  TERESINA                                64052280PI2331700001                                                                                                                                          011036279           260420100000013629035/2009    14072010000403contrataçao desub-empreitada para execuçao dos serviços de construçaode 200 unidades habitacionais,na cidade de teresina, localidade arvore verde.                                                                                              005012867000180106165-6      000059
1041421007050DIR_CREDIT     E R DE SOUSA MESSIAS                    007257868000110R R CONSTRUçOES LTDA                    AV. PEDRO ALMEIDA,60 BALON CENTER S-13  TERESINA                                64052280PI2331800001                                                                                                                                          011036279           260420100000013629035/2009    14072010000403contrataçao desub-empreitada para execuçao dos serviços de construçaode 200 unidades habitacionais,na cidade de teresina, localidade arvore verde.                                                                                              005012867000180106165-7      000060
1038421000764COBR_CAUC_BIC  METROPOLITAN LOGIST COMERCIAL LTDA      061068276002816UNILEVER BRASIL LTDA                    AV JOSE LUIZ MAZZALI, 450 , PARTE       LOUVEIRA                                13290000SP2332000001088145513531        06072010007PAULISTA            2008201000000000000258651CC                                                                                                                                                                                                                                                                                                                                                                                           106165-8      000061
1038421000764COBR_CAUC_BIC  METROPOLITAN LOGIST COMERCIAL LTDA      061068276002816UNILEVER BRASIL LTDA                    AV JOSE LUIZ MAZZALI, 450 , PARTE       LOUVEIRA                                13290000SP2332000002087470813443        04062010007PAULISTA            1807201000000000000376188CC                                                                                                                                                                                                                                                                                                                                                                                           106165-9      000062
1038421000764COBR_CAUC_BIC  METROPOLITAN LOGIST COMERCIAL LTDA      061068276002816UNILEVER BRASIL LTDA                    AV JOSE LUIZ MAZZALI, 450 , PARTE       LOUVEIRA                                13290000SP2332000003087471023446        04062010007PAULISTA            1807201000000000000282394CC                                                                                                                                                                                                                                                                                                                                                                                           106165-10     000063
1038421000764COBR_CAUC_BIC  METROPOLITAN LOGIST COMERCIAL LTDA      061068276002816UNILEVER BRASIL LTDA                    AV JOSE LUIZ MAZZALI, 450 , PARTE       LOUVEIRA                                13290000SP2332000004087471113451        04062010007PAULISTA            1807201000000000002429208CC                                                                                                                                                                                                                                                                                                                                                                                           106165-11     000064
1038421000764COBR_CAUC_BIC  METROPOLITAN LOGIST COMERCIAL LTDA      061068276002816UNILEVER BRASIL LTDA                    AV JOSE LUIZ MAZZALI, 450 , PARTE       LOUVEIRA                                13290000SP2332000005087471293442        04062010007PAULISTA            1807201000000000001969483CC                                                                                                                                                                                                                                                                                                                                                                                           106165-12     000065
1038421000764COBR_CAUC_BIC  METROPOLITAN LOGIST COMERCIAL LTDA      061068276002816UNILEVER BRASIL LTDA                    AV JOSE LUIZ MAZZALI, 450 , PARTE       LOUVEIRA                                13290000SP2332000006087471613444        04062010007PAULISTA            1807201000000000001234367CC                                                                                                                                                                                                                                                                                                                                                                                           106165-13     000066
1038421000764COBR_CAUC_BIC  METROPOLITAN LOGIST COMERCIAL LTDA      061068276002816UNILEVER BRASIL LTDA                    AV JOSE LUIZ MAZZALI, 450 , PARTE       LOUVEIRA                                13290000SP2332000007087471703441        04062010007PAULISTA            1807201000000000001682206CC                                                                                                                                                                                                                                                                                                                                                                                           106165-14     000067
1038421000764COBR_CAUC_BIC  METROPOLITAN LOGIST COMERCIAL LTDA      061068276002816UNILEVER BRASIL LTDA                    AV JOSE LUIZ MAZZALI, 450 , PARTE       LOUVEIRA                                13290000SP2332000008087471963447        04062010007PAULISTA            1807201000000000000130464CC                                                                                                                                                                                                                                                                                                                                                                                           106165-15     000068
1038421000764COBR_CAUC_BIC  METROPOLITAN LOGIST COMERCIAL LTDA      061068276002816UNILEVER BRASIL LTDA                    AV JOSE LUIZ MAZZALI, 450 , PARTE       LOUVEIRA                                13290000SP2332000009087472003450        04062010007PAULISTA            1807201000000000000075711CC                                                                                                                                                                                                                                                                                                                                                                                           106165-16     000069
1038421000764COBR_CAUC_BIC  METROPOLITAN LOGIST COMERCIAL LTDA      061068276002816UNILEVER BRASIL LTDA                    AV JOSE LUIZ MAZZALI, 450 , PARTE       LOUVEIRA                                13290000SP2332000010087472183445        04062010007PAULISTA            1807201000000000000220503CC                                                                                                                                                                                                                                                                                                                                                                                           106165-17     000070
1038421000764COBR_CAUC_BIC  METROPOLITAN LOGIST COMERCIAL LTDA      061068276002816UNILEVER BRASIL LTDA                    AV JOSE LUIZ MAZZALI, 450 , PARTE       LOUVEIRA                                13290000SP2332000011087613423465        10062010007PAULISTA            2407201000000000000135151CC                                                                                                                                                                                                                                                                                                                                                                                           106165-18     000071
1038421000764COBR_CAUC_BIC  METROPOLITAN LOGIST COMERCIAL LTDA      061068276002816UNILEVER BRASIL LTDA                    AV JOSE LUIZ MAZZALI, 450 , PARTE       LOUVEIRA                                13290000SP2332000012087613513476        14062010007PAULISTA            2807201000000000007051432CC                                                                                                                                                                                                                                                                                                                                                                                           106165-19     000072
1038421000764COBR_CAUC_BIC  METROPOLITAN LOGIST COMERCIAL LTDA      061068276002816UNILEVER BRASIL LTDA                    AV JOSE LUIZ MAZZALI, 450 , PARTE       LOUVEIRA                                13290000SP2332000013087613693477        14062010007PAULISTA            2807201000000000000262314CC                                                                                                                                                                                                                                                                                                                                                                                           106165-20     000073
1038421000764COBR_CAUC_BIC  METROPOLITAN LOGIST COMERCIAL LTDA      061068276002816UNILEVER BRASIL LTDA                    AV JOSE LUIZ MAZZALI, 450 , PARTE       LOUVEIRA                                13290000SP2332000014087731623466        10062010007PAULISTA            2407201000000000000620826CC                                                                                                                                                                                                                                                                                                                                                                                           106165-21     000074
1038421000764COBR_CAUC_BIC  METROPOLITAN LOGIST COMERCIAL LTDA      061068276002816UNILEVER BRASIL LTDA                    AV JOSE LUIZ MAZZALI, 450 , PARTE       LOUVEIRA                                13290000SP2332000015087731713469        10062010007PAULISTA            2407201000000000006043569CC                                                                                                                                                                                                                                                                                                                                                                                           106165-22     000075
1038421000764COBR_CAUC_BIC  METROPOLITAN LOGIST COMERCIAL LTDA      061068276002816UNILEVER BRASIL LTDA                    AV JOSE LUIZ MAZZALI, 450 , PARTE       LOUVEIRA                                13290000SP2332000016087731893461        10062010007PAULISTA            2407201000000000000728070CC                                                                                                                                                                                                                                                                                                                                                                                           106165-23     000076
1038421000764COBR_CAUC_BIC  METROPOLITAN LOGIST COMERCIAL LTDA      061068276002816UNILEVER BRASIL LTDA                    AV JOSE LUIZ MAZZALI, 450 , PARTE       LOUVEIRA                                13290000SP2332000017087731973471        10062010007PAULISTA            2407201000000000002726175CC                                                                                                                                                                                                                                                                                                                                                                                           106165-24     000077
1038421000764COBR_CAUC_BIC  METROPOLITAN LOGIST COMERCIAL LTDA      061068276002816UNILEVER BRASIL LTDA                    AV JOSE LUIZ MAZZALI, 450 , PARTE       LOUVEIRA                                13290000SP2332000018088025533517        30062010007PAULISTA            1408201000000000000082398CC                                                                                                                                                                                                                                                                                                                                                                                           106165-25     000078
1038421000764COBR_CAUC_BIC  METROPOLITAN LOGIST COMERCIAL LTDA      061068276002816UNILEVER BRASIL LTDA                    AV JOSE LUIZ MAZZALI, 450 , PARTE       LOUVEIRA                                13290000SP2332000019088025613526        01072010007PAULISTA            1508201000000000005504258CC                                                                                                                                                                                                                                                                                                                                                                                           106165-26     000079
1038421000764COBR_CAUC_BIC  METROPOLITAN LOGIST COMERCIAL LTDA      061068276002816UNILEVER BRASIL LTDA                    AV JOSE LUIZ MAZZALI, 450 , PARTE       LOUVEIRA                                13290000SP2332000020088025703527        01072010007PAULISTA            1508201000000000005158394CC                                                                                                                                                                                                                                                                                                                                                                                           106165-27     000080
1038421000764COBR_CAUC_BIC  METROPOLITAN LOGIST COMERCIAL LTDA      061068276002816UNILEVER BRASIL LTDA                    AV JOSE LUIZ MAZZALI, 450 , PARTE       LOUVEIRA                                13290000SP2332000021088025883518        30062010007PAULISTA            1408201000000000007755748CC                                                                                                                                                                                                                                                                                                                                                                                           106165-28     000081
1038421000764COBR_CAUC_BIC  METROPOLITAN LOGIST COMERCIAL LTDA      061068276002816UNILEVER BRASIL LTDA                    AV JOSE LUIZ MAZZALI, 450 , PARTE       LOUVEIRA                                13290000SP2332000022088025963519        30062010007PAULISTA            1408201000000000007915718CC                                                                                                                                                                                                                                                                                                                                                                                           106165-29     000082
1038421000764COBR_CAUC_BIC  METROPOLITAN LOGIST COMERCIAL LTDA      061068276002816UNILEVER BRASIL LTDA                    AV JOSE LUIZ MAZZALI, 450 , PARTE       LOUVEIRA                                13290000SP233200002308804025618         05072010007PAULISTA            1908201000000000007799913CC                                                                                                                                                                                                                                                                                                                                                                                           106165-30     000083
1038421000764COBR_CAUC_BIC  METROPOLITAN LOGIST COMERCIAL LTDA      061068276002816UNILEVER BRASIL LTDA                    AV JOSE LUIZ MAZZALI, 450 , PARTE       LOUVEIRA                                13290000SP233200002408804050617         05072010007PAULISTA            1908201000000000009899810CC                                                                                                                                                                                                                                                                                                                                                                                           106165-31     000084
1038421000764COBR_CAUC_BIC  METROPOLITAN LOGIST COMERCIAL LTDA      061068276002816UNILEVER BRASIL LTDA                    AV JOSE LUIZ MAZZALI, 450 , PARTE       LOUVEIRA                                13290000SP233200002508806028609         07072010007PAULISTA            1508201000000000005140100CC                                                                                                                                                                                                                                                                                                                                                                                           106165-32     000085
1038421000764COBR_CAUC_BIC  METROPOLITAN LOGIST COMERCIAL LTDA      061068276002816UNILEVER BRASIL LTDA                    AV JOSE LUIZ MAZZALI, 450 , PARTE       LOUVEIRA                                13290000SP2332000026088145433530        06072010007PAULISTA            2008201000000000000305506CC                                                                                                                                                                                                                                                                                                                                                                                           106165-33     000086
1038421000764COBR_CAUC_BIC  METROPOLITAN LOGIST COMERCIAL LTDA      061068276002816UNILEVER BRASIL LTDA                    AV JOSE LUIZ MAZZALI, 450 , PARTE       LOUVEIRA                                13290000SP2332000027088145603529        05072010007PAULISTA            1908201000000000000591237CC                                                                                                                                                                                                                                                                                                                                                                                           106165-34     000087
1046141003497COBR_DESC_COR  BIOCHAMM CALDEIRAS E EQUIP IND LTDA     075655720000194SEPAC SERRADOS PASTA E CELULOSE LT      RUA MARECHAL DEODORO 950 CJ404          CURITIBA                                80060100PR233210000100756338082010      24062010900BRADESCO S/A        1508201000000000063000000TD                                                                                                                                                                                                                                                                                                                                                                                           106165-35     000088
1014421012444COBR_CAUC_COR  HOTEIS OTHON S/A.                       007575651000310VRG LINHAS AEREAS S A                   PCA SEN SALGADO FILHO S N SALA 02       RIO DE JANEIRO                          20021971RJ2356600001000600811200338401  03082010900BRADESCO S/A        2708201000000000026691000CC                                                                                                                                                                                                                                                                                                                                                                                           107951-1      000089
1021420930887COBR_CAUC_BIC  DEDINI S/A INDUSTRIAS DE BASE           015527906003666LDC BIOENERGIA S.A.                     EST VICINAL JOSE DE SOUZA QUEIROZ F ZONALEME                                    13610970SP23567000010587280116947-1-1   02082010021CAMPINAS            2308201000000000011550000CC                                                                                                                                                                                                                                                                                                                                                                                           107951-2      000090
1007421031242COBR_CAUC_COR  GP GUARDA PATRIMONIAL DE S.P. LTDA      056998982000107BRISTOL MYERSSQUIBB FARMACEUTICA        RUA CARLOS GOMESN924                    SAO PAULO                               04743903SP23568000010002233056491       02082010900BRADESCO S/A        0209201000000000010017357CC                                                                                                                                                                                                                                                                                                                                                                                           107951-3      000091
1007421040063COBR_CAUC_BIC  TUBERFIL IND. E COM. DE TUBOS LTDA      005392663000112EUSKALDUNA TECN. E MANUT.INDL.LTDA      RUA ALBERTO GUIZZO 614                  INDAIATUBA                              13347402SP235690000100021864004987001   26072010021CAMPINAS            0909201000000000012755820CC                                                                                                                                                                                                                                                                                                                                                                                           107951-4      000092
1014421018213COBR_CAUC_COR  POWERTECH COMERCIAL LTDA.               022797070000155J.F. DE OLIVEIRA NAVEGACAO LTDA         AV PRESIDENTE KENNED,1850-2O ANDAR      MANAUS                                  69074000AM235700000100010301000375      31072010900BRADESCO S/A        2808201000000000014000000CC                                                                                                                                                                                                                                                                                                                                                                                           107951-5      000093
9000092                                                                                                                                                                                                                                                                                                                                                                                                                                                                                                                                                                                                                                                                                                               000094
