0REMESSANOTIFICAÇÃO ELETRONICA        99999999999999Bicbanco S/A                            Avenida Paulista , 1048 12º andar                           BELA VISTA                    SÃO PAULO                     01310100SPBicbanco S/A                                                                    22042010                                                                                                                                                                                                                                                                                                                                                                                                000001
1022421004305COBR_CAUC_BIC  COOP.AGRIC.REGIAO DE ORLANDIA           000016391379807NELTON PAULO GUARNIERI                  PRACA DOM PEDRO II NR 382               IPUA                                    14610000SP2164800001038211610020001250  15042010022RIBEIRAO PRETO      2905201000000000017424000CC                                                                                                                                                                                                                                                                                                                                                                                           94424-1       000002
1037420933912COBR_CAUC_COR  COPPER 100 IND. COM. LTDA               075339051000141DOCOL METAIS SANITARIOS LTDA.           R.VISCONDE DE MAUA 67                   JOINVILLE                               89204500SC2164900001043738173554/1      15042010600HSBC BANK BRASIL    1407201000000000023720000CC                                                                                                                                                                                                                                                                                                                                                                                           94424-2       000003
1029421001656COBR_CAUC_BIC  FOCA EQUIPAMENTOS AUTOMOTIVOS LTDA      016701716000156FIAT AUTOMOVEIS S/A                     RODOV.FERNAO DIAS BR 381 KM 429,0       BETIM                                   32536000MG2165000001091903822661        08042010019BELO HORIZONTE      1006201000000000013000000CC                                                                                                                                                                                                                                                                                                                                                                                           94424-3       000004
1036421014416COBR_CAUC_COR  RONTAN ELETRO METALURGICA LTDA          016701716000156FIAT AUTOMOVEIS S.A. 65401              RUA FERNAO DIASBR381 KM429              BETIM                                   32560460MG216510000105694631040038-1    05042010900BRADESCO S/A        0705201000000000099394425CC                                                                                                                                                                                                                                                                                                                                                                                           94424-4       000005
1029141009096COBR_CAUC_BIC  CPS BRAZIL TOBACCO IMP E EXP LTDA       088124383000150BRASFUMO LTDA                           AV DAS INDUSTRIAS,130                   VENANCIO AIRES                          95800000RS2165200001091888924794N       15042010015PORTO ALEGRE        2405201000000000020000000TD                                                                                                                                                                                                                                                                                                                                                                                           94424-5       000006
1029141009096COBR_CAUC_BIC  CPS BRAZIL TOBACCO IMP E EXP LTDA       088124383000150BRASFUMO LTDA                           AV DAS INDUSTRIAS,130                   VENANCIO AIRES                          95800000RS21652000020918898132N         15042010015PORTO ALEGRE        2505201000000000011937039TD                                                                                                                                                                                                                                                                                                                                                                                           94424-6       000007
1007421016006COBR_CAUC_BIC  ONCOMED FARMACEUTICA LTDA               060552098000111SOC. BRAS.JAP.BEN.STA CRUZ-HOSP.ST      R. SANTA CRUZ, 398 IS ENT 0             SAO PAULO                               04122000SP2165300001098078012099181     15042010007PAULISTA            1406201000000000016190041CC                                                                                                                                                                                                                                                                                                                                                                                           94424-7       000008
1007421009131COBR_CAUC_BIC  KASINSKI FABRICADORA DE VEIC LTDA       010548031000305MOTOSHOW COMERCIO DE MOTOS LTD          AV HEITOR DIAS 293                      SALVADOR                                40313042BA216540000109807283F01004761   08042010013SALVADOR            3105201000000000010858027CC                                                                                                                                                                                                                                                                                                                                                                                           94424-8       000009
1037421004192COBR_CAUC_BIC  IBT IND. BRASILEIRA DE TELEVISORES      098102924001680DELTASUL UTILIDADES LTDA                AV PRESIDENTE CASTELO BRANCO,1025       STA CRUZ DO SUL                         96835666RS2169200001043751270692/4-A    15042010015PORTO ALEGRE        1407201000000000012720000CC                                                                                                                                                                                                                                                                                                                                                                                           94647-1       000010
1028421002921COBR_CAUC_COR  FRIGORIFICO MATABOI S/A                 004557157000335PREZUNIC COMERCIAL LTDA                 R DO ALPISTE 568                        RIO DE JANEIRO                          21011010RJ2169300001001177610001572101  15042010900BRADESCO S/A        1505201000000000024736791CC                                                                                                                                                                                                                                                                                                                                                                                           94647-2       000011
1014421012444COBR_CAUC_COR  HOTEIS OTHON S/A.                       007575651000310VRG LINHAS AEREAS S A                   PCA SEN SALGADO FILHO S N SALA 02       RIO DE JANEIRO                          20021971RJ2169400001000599971200175301  16042010900BRADESCO S/A        1705201000000000025048000CC                                                                                                                                                                                                                                                                                                                                                                                           94647-3       000012
1016421006424COBR_CAUC_COR  BOUTIN FERTILIZANTES LTDA               082069113000370DISTRIB PITANGUEIRAS PROD AGROP LT      GOV PARIGOT DE SOUZA ,160               ARAPOTI                                 84990000PR2169500001027371147221        13042010600HSBC BANK BRASIL    3010201000000000011175000CC                                                                                                                                                                                                                                                                                                                                                                                           94647-4       000013
1038421000764COBR_CAUC_BIC  METROPOLITAN LOGIST COMERCIAL LTDA      061068276002816UNILEVER BRASIL LTDA                    AV. JOSE LUIZ MAZZALI 450               LOUVEIRA                                13290000SP216960000108672285286145      14032010007PAULISTA            2805201000000000024815314CC                                                                                                                                                                                                                                                                                                                                                                                           94647-5       000014
1007421009131COBR_CAUC_COR  KASINSKI FABRICADORA DE VEIC LTDA       010289151000165MOTO NAUER COMERCIO DE MOTOS L          RUA NOEMIA GODINHO BITTENCOURT, 34      ITAPERUNA                               28300000RJ216970000109812040F01004658   31032010900BRADESCO S/A        3105201000000000013382944CC                                                                                                                                                                                                                                                                                                                                                                                           94647-6       000015
1021420930887COBR_CAUC_COR  DEDINI S/A INDUSTRIAS DE BASE           018054379000188DASA DEST DE ALCOOL SERRA DOS AIMO      ROD MARGEM DA BR 418 ZONA RURAL BR      SERRA DOS AIMOR                         39868000MG217430000105785967114477-2-2  31032010900BRADESCO S/A        3006201000000000025250000CC                                                                                                                                                                                                                                                                                                                                                                                           95042-1       000016
1036421014416COBR_CAUC_COR  RONTAN ELETRO METALURGICA LTDA          016701716000156FIAT AUTOMOVEIS S.A. 65401              RUA FERNAO DIASBR381 KM429              BETIM                                   32560460MG217440000105695653040269-1    06042010900BRADESCO S/A        1305201000000000079515540CC                                                                                                                                                                                                                                                                                                                                                                                           95042-2       000017
1007421009131COBR_CAUC_BIC  KASINSKI FABRICADORA DE VEIC LTDA       010548031000305MOTOSHOW COMERCIO DE MOTOS LTD          AV HEITOR DIAS 293                      SALVADOR                                40313042BA217450000109813143F01004761   08042010013SALVADOR            3105201000000000010858027CC                                                                                                                                                                                                                                                                                                                                                                                           95042-3       000018
1019421007320COBR_CAUC_COR  ATHOS FARMA SUDESTE S/A                 000100374000189DROG GALANTI DE NOVA IGUACU LTDA        TR ALMERINDA LUCAS DE AZEREDO , 60      NOVA IGUACU                             26210180RJ217460000100234717114466A     17032010900BRADESCO S/A        1605201000000000025183749CC                                                                                                                                                                                                                                                                                                                                                                                           95042-4       000019
1019421007320COBR_CAUC_COR  ATHOS FARMA SUDESTE S/A                 000100374000189DROG GALANTI DE NOVA IGUACU LTDA        TR ALMERINDA LUCAS DE AZEREDO , 60      NOVA IGUACU                             26210180RJ217460000200234733114466C     17032010900BRADESCO S/A        1506201000000000025183288CC                                                                                                                                                                                                                                                                                                                                                                                           95042-5       000020
9000019                                                                                                                                                                                                                                                                                                                                                                                                                                                                                                                                                                                                                                                                                                               000021
