0REMESSANOTIFICAÇÃO ELETRONICA        99999999999999Bicbanco S/A                            Avenida Paulista                        1048      12º andar BELA VISTA                    SÃO PAULO                     01310100SPBicbanco S/A                                                                    01042011                                                                                                                                                                                                                                                                                                                                                                                                000001
1046421000617COBR_CAUC_COR  INPLAC INDUSTRIA DE PLASTICOS S/A       087456562000637JOSAPAR JOAQUIM OLIVEIRA S/A PARTI      BR 116 KM 512, NUMERO 4001              PELOTAS                                 96070560RS269680000101084627001158898   26032011600HSBC BANK BRASIL    2504201100000000015177705CC                                                                                                                                                                                                                                                                                                                                                                                           126512-1      000002
1021420930887COBR_CAUC_BIC  DEDINI S/A INDUSTRIAS DE BASE           012229415000200S A USINA CORURIPE ACUCAR E ALCOOL      POV CAMACARI CAMACARI BR                CORURIPE                                57020030AL269690000106141079143254-4-4  29032011017MACEIO              2406201100000000021400000CC                                                                                                                                                                                                                                                                                                                                                                                           126512-2      000003
1021420930887COBR_CAUC_COR  DEDINI S/A INDUSTRIAS DE BASE           047038088000102SERMATEC IND E MONT LTDA                ROD. ARMANDO DE SALLES OLIVEIRA S.INDUSTSERTAOZINHO                             14160750SP269700000106141061145692-2-2  25032011900BRADESCO S/A        1305201100000000012920126CC                                                                                                                                                                                                                                                                                                                                                                                           126512-3      000004
1032421000854COBR_CAUC_BIC  METALURGICA IANY IND E COM LTDA         076639285000177FERRAGENS NEGRAO COMERCIAL LTDA         RUA PROFESSOR ALGACYR MUNHOZ MADER, 2800CURITIBA - PR                           81310020PR26971000010915873211939-1/1   28032011016CURITIBA            1205201100000000010599772CC                                                                                                                                                                                                                                                                                                                                                                                           126512-4      000005
1048141000168COBR_CAUC_BIC  BALDIN BIOENERGIA S/A                   001062529000100DULCINI S.A.                            ESTRADA SITIO TABOAO, S/N               PIRASSUNUNGA                            13631301SP26972000010031104812319/01    14032011021CAMPINAS            2305201100000000025000000TD                                                                                                                                                                                                                                                                                                                                                                                           126512-5      000006
1048141000168COBR_CAUC_BIC  BALDIN BIOENERGIA S/A                   001062529000100DULCINI S.A.                            ESTRADA SITIO TABOAO, S/N               PIRASSUNUNGA                            13631301SP26972000020031105612319/02    14032011021CAMPINAS            2405201100000000025000000TD                                                                                                                                                                                                                                                                                                                                                                                           126512-6      000007
1048141000168COBR_CAUC_BIC  BALDIN BIOENERGIA S/A                   001062529000100DULCINI S.A.                            ESTRADA SITIO TABOAO, S/N               PIRASSUNUNGA                            13631301SP26972000030031106412319/03    14032011021CAMPINAS            2505201100000000025000000TD                                                                                                                                                                                                                                                                                                                                                                                           126512-7      000008
1048141000168COBR_CAUC_BIC  BALDIN BIOENERGIA S/A                   001062529000100DULCINI S.A.                            ESTRADA SITIO TABOAO, S/N               PIRASSUNUNGA                            13631301SP26972000040031107212319/04    14032011021CAMPINAS            2605201100000000025000000TD                                                                                                                                                                                                                                                                                                                                                                                           126512-8      000009
1036421016893COBR_CAUC_COR  TECAL ALUMINIO DA AMAZONIA LTDA         004012043000148SHOWA DO BRASIL LTDA                    RUA RIO QUIXITO                         MANAUS                                  69075830AM2697300001057757620000023690  25032011900BRADESCO S/A        2404201100000000011211557CC                                                                                                                                                                                                                                                                                                                                                                                           126512-9      000010
1046421000145COBR_CAUC_BIC  KOMLOG IMPORTACAO LTDA                  093015006001438COMPANHIA ZAFFARI COMERCIO E INDUS      AV. PLINIO BRASIL MILANO, 1000 5º ANDAR PORTO ALEGRE                            90520000RS269740000101083680001967-     24032011015PORTO ALEGRE        0305201100000000014689462CC                                                                                                                                                                                                                                                                                                                                                                                           126512-10     000011
9000010                                                                                                                                                                                                                                                                                                                                                                                                                                                                                                                                                                                                                                                                                                               000012
