0REMESSANOTIFICAÇÃO ELETRONICA        99999999999999Bicbanco S/A                            Avenida Paulista , 1048 12º andar                           BELA VISTA                    SÃO PAULO                     01310100SPBicbanco S/A                                                                    28052010                                                                                                                                                                                                                                                                                                                                                                                                000001
1046421000617COBR_CAUC_BIC  INPLAC INDUSTRIA DE PLASTICOS S/A       082638644004161UNIVERSAL LEAF TABACOS LTDA             RODOVIA BR 471 - KM 49 - C.POSTAL 495   SANTA CRUZ DO S                         96835640RS218150000100702220001145842   19042010015PORTO ALEGRE        0306201000000000013024788CC                                                                                                                                                                                                                                                                                                                                                                                           96528-1       000002
1021420930887COBR_CAUC_COR  DEDINI S/A INDUSTRIAS DE BASE           008830263000130FATIMA DO SUL AGRO-ENERGETICA SA A      ROD OTR LINHA DO BARREIRINHO -LTS2 ZON  FATIMA DO SUL                           79700000MS218160000105790561110358-2-1  19042010900BRADESCO S/A        1506201000000000028500000CC                                                                                                                                                                                                                                                                                                                                                                                           96528-2       000003
1008421006830COBR_CAUC_COR  NORTEX INDUSTRIA E COMERCIO S/A         075284224000171INDUSTRIA TEXTIL APUCARANA LTDA         R BELA VISTA 99 CX POSTAL 303           APUCARANA                               86802330PR218170000100232825034428      23042010900BRADESCO S/A        2308201000000000011554100CC                                                                                                                                                                                                                                                                                                                                                                                           96528-3       000004
1003421013987COBR_CAUC_COR  SCIENTIFIC COM E IMPORTACAO LTDA        002560878000107HOSPITAL ANCHIETA LTDA                  AREA ESPECIAL 8/9/10 S/N,0              BRASILIA                                72115700DF2181800001000036611878/1      23042010900BRADESCO S/A        1006201000000000010200000CC                                                                                                                                                                                                                                                                                                                                                                                           96528-4       000005
1016421000809COBR_CAUC_BIC  LOGIKA DISTRIBUIDORA COSMETICOS LTD     025769266000124ARCOM S/A                               ANEL VIARIO AYRTON SENNA, 2001          UBERLANDIA                              38414512MG2181900001027479000041135/01  19042010028UBERLANDIA          2106201000000000015552600CC                                                                                                                                                                                                                                                                                                                                                                                           96528-5       000006
1016421000809COBR_CAUC_BIC  LOGIKA DISTRIBUIDORA COSMETICOS LTD     025769266000124ARCOM S/A                               ANEL VIARIO AYRTON SENNA, 2001          UBERLANDIA                              38414512MG2181900002027479180041165/01  20042010028UBERLANDIA          2106201000000000016905000CC                                                                                                                                                                                                                                                                                                                                                                                           96528-6       000007
1016421000809COBR_CAUC_BIC  LOGIKA DISTRIBUIDORA COSMETICOS LTD     025769266000124ARCOM S/A                               ANEL VIARIO AYRTON SENNA, 2001          UBERLANDIA                              38414512MG2181900003027479340041220/01  23042010028UBERLANDIA          2806201000000000020962200CC                                                                                                                                                                                                                                                                                                                                                                                           96528-7       000008
1016421000809COBR_CAUC_BIC  LOGIKA DISTRIBUIDORA COSMETICOS LTD     025769266000124ARCOM S/A                               ANEL VIARIO AYRTON SENNA, 2001          UBERLANDIA                              38414512MG2181900004027479420041222/01  23042010028UBERLANDIA          2806201000000000013754832CC                                                                                                                                                                                                                                                                                                                                                                                           96528-8       000009
1016421000809COBR_CAUC_BIC  LOGIKA DISTRIBUIDORA COSMETICOS LTD     025769266000124ARCOM S/A                               ANEL VIARIO AYRTON SENNA, 2001          UBERLANDIA                              38414512MG2181900005027479510041223/01  23042010028UBERLANDIA          2806201000000000016905000CC                                                                                                                                                                                                                                                                                                                                                                                           96528-9       000010
1016421000809COBR_CAUC_BIC  LOGIKA DISTRIBUIDORA COSMETICOS LTD     025769266000124ARCOM S/A                               ANEL VIARIO AYRTON SENNA, 2001          UBERLANDIA                              38414512MG2181900006027479690040936/01  12042010028UBERLANDIA          1406201000000000016228800CC                                                                                                                                                                                                                                                                                                                                                                                           96528-10      000011
1016421000809COBR_CAUC_BIC  LOGIKA DISTRIBUIDORA COSMETICOS LTD     025769266000124ARCOM S/A                               ANEL VIARIO AYRTON SENNA, 2001          UBERLANDIA                              38414512MG2181900007027479770041072/01  16042010028UBERLANDIA          2106201000000000016228800CC                                                                                                                                                                                                                                                                                                                                                                                           96528-11      000012
1016421000809COBR_CAUC_BIC  LOGIKA DISTRIBUIDORA COSMETICOS LTD     025769266000124ARCOM S/A                               ANEL VIARIO AYRTON SENNA, 2001          UBERLANDIA                              38414512MG2181900008027479850041133/01  19042010028UBERLANDIA          2106201000000000017764572CC                                                                                                                                                                                                                                                                                                                                                                                           96528-12      000013
1013421016041COBR_CAUC_BIC  CMT IND E COM DE MOVEIS LTDA            006324922000211OAS EMPREENDIMENTO S.A                  AV.PROF.MAGALHAES NET,1752-14ANDAR      SALVADOR                                41810012BA218200000103977994PED.1641    27042010013SALVADOR            2005201000000000019061251CC                                                                                                                                                                                                                                                                                                                                                                                           96528-13      000014
1023420932134DIR_CREDIT     TERMAQ TERRAPL.CONST.CIVIL ESC.LTDA     046177523000109PM DE SãO VICENTE                       RUA FREI GASPAR 384                     SAO VICENTE                             11310090SP2183000001                                                                                                                                          010944734           220320100000012710CONFISS DIVI26042010000403serviços publicos de coleta de lixo e outros serviços de limpeza urbanajunto à Prefeitura Municipal de São Vicente.                                                                                                                             04995713700012896585-1       000015
1028421002921COBR_CAUC_COR  FRIGORIFICO MATABOI S/A                 007918552000122CHARQUEADA FRISUL LTDA.                 R TREZE DE MAIO                         OURO FINO                               37570000MG2185200001001261820002823801  27042010900BRADESCO S/A        2705201000000000011600323CC                                                                                                                                                                                                                                                                                                                                                                                           96585-2       000016
1036421014416COBR_CAUC_COR  RONTAN ELETRO METALURGICA LTDA          016701716000156FIAT AUTOMOVEIS S.A. 65401              RUA FERNAO DIASBR381 KM429              BETIM                                   32560460MG218530000105701017042668-1    23042010900BRADESCO S/A        1006201000000000119273340CC                                                                                                                                                                                                                                                                                                                                                                                           96585-3       000017
1036421014416COBR_CAUC_COR  RONTAN ELETRO METALURGICA LTDA          016701716000156FIAT AUTOMOVEIS S.A. 65401              RUA FERNAO DIASBR381 KM429              BETIM                                   32560460MG218530000205701025042667-1    23042010900BRADESCO S/A        1006201000000000119273340CC                                                                                                                                                                                                                                                                                                                                                                                           96585-4       000018
1036421014416COBR_CAUC_COR  RONTAN ELETRO METALURGICA LTDA          016701716000156FIAT AUTOMOVEIS S.A. 65401              RUA FERNAO DIASBR381 KM429              BETIM                                   32560460MG218530000305701033040274-1    06042010900BRADESCO S/A        1006201000000000079515540CC                                                                                                                                                                                                                                                                                                                                                                                           96585-5       000019
1019421006545DIR_CREDIT     MINERACAO CORUMBA LTDA.                 017469701000177ARCELORMITTAL BRASIL S/A                AV CARANDAI 1115 24 ANDAR               BELO HTE                                30000000MG2186100001                                                                                                                                          010945148           010220080000005279            27042010003901FORNECIMENTO DE 174.000 TONELADAS DE CAL VIRGEM INDUSTRIAL                                                                                                                                                                                      00191899000010496585-6       000020
1018421019436COBR_CAUC_COR  ALVICTO OZORES NOGUEIRA E CIA LTDA      072589294000140NELY TRANSPORTES DE BRASILIA LTDA       STRC SUL TRECHO I CJ A LT 09,0          BRASILIA                                71200010DF219160000100000373039165 2    17032010900BRADESCO S/A        1705201000000000002092408CC                                                                                                                                                                                                                                                                                                                                                                                           96929-1       000021
1018421019436COBR_CAUC_COR  ALVICTO OZORES NOGUEIRA E CIA LTDA      072589294000140NELY TRANSPORTES DE BRASILIA LTDA       STRC SUL TRECHO I CJ A LT 09,0          BRASILIA                                71200010DF219160000200000381039165 3    17032010900BRADESCO S/A        1706201000000000002092408CC                                                                                                                                                                                                                                                                                                                                                                                           96929-2       000022
1018421019436COBR_CAUC_COR  ALVICTO OZORES NOGUEIRA E CIA LTDA      072589294000140NELY TRANSPORTES DE BRASILIA LTDA       STRC SUL TRECHO I CJ A LT 09,0          BRASILIA                                71200010DF219160000300000390039165 4    17032010900BRADESCO S/A        1707201000000000002092408CC                                                                                                                                                                                                                                                                                                                                                                                           96929-3       000023
1018421019436COBR_CAUC_COR  ALVICTO OZORES NOGUEIRA E CIA LTDA      072589294000140NELY TRANSPORTES DE BRASILIA LTDA       STRC SUL TRECHO I CJ A LT 09,0          BRASILIA                                71200010DF219160000400000403039165 5    17032010900BRADESCO S/A        1708201000000000002092408CC                                                                                                                                                                                                                                                                                                                                                                                           96929-4       000024
1018421019436COBR_CAUC_COR  ALVICTO OZORES NOGUEIRA E CIA LTDA      072589294000140NELY TRANSPORTES DE BRASILIA LTDA       STRC SUL TRECHO I CJ A LT 09,0          BRASILIA                                71200010DF219160000500000411039165 6    17032010900BRADESCO S/A        1709201000000000002092408CC                                                                                                                                                                                                                                                                                                                                                                                           96929-5       000025
1018421019436COBR_CAUC_COR  ALVICTO OZORES NOGUEIRA E CIA LTDA      072589294000140NELY TRANSPORTES DE BRASILIA LTDA       STRC SUL TRECHO I CJ A LT 09,0          BRASILIA                                71200010DF219160000600000446039164 3    17032010900BRADESCO S/A        1706201000000000002730770CC                                                                                                                                                                                                                                                                                                                                                                                           96929-6       000026
1018421019436COBR_CAUC_COR  ALVICTO OZORES NOGUEIRA E CIA LTDA      072589294000140NELY TRANSPORTES DE BRASILIA LTDA       STRC SUL TRECHO I CJ A LT 09,0          BRASILIA                                71200010DF219160000700000454039164 4    17032010900BRADESCO S/A        1707201000000000002730770CC                                                                                                                                                                                                                                                                                                                                                                                           96929-7       000027
1018421019436COBR_CAUC_COR  ALVICTO OZORES NOGUEIRA E CIA LTDA      072589294000140NELY TRANSPORTES DE BRASILIA LTDA       STRC SUL TRECHO I CJ A LT 09,0          BRASILIA                                71200010DF219160000800000462039164 5    17032010900BRADESCO S/A        1708201000000000002730770CC                                                                                                                                                                                                                                                                                                                                                                                           96929-8       000028
1018421019436COBR_CAUC_COR  ALVICTO OZORES NOGUEIRA E CIA LTDA      072589294000140NELY TRANSPORTES DE BRASILIA LTDA       STRC SUL TRECHO I CJ A LT 09,0          BRASILIA                                71200010DF219160000900000471039164 6    17032010900BRADESCO S/A        1709201000000000002730770CC                                                                                                                                                                                                                                                                                                                                                                                           96929-9       000029
1018421019436COBR_CAUC_COR  ALVICTO OZORES NOGUEIRA E CIA LTDA      072589294000140NELY TRANSPORTES DE BRASILIA LTDA       STRC SUL TRECHO I CJ A LT 09,0          BRASILIA                                71200010DF219160001000000497039164 2    17032010900BRADESCO S/A        1705201000000000002730770CC                                                                                                                                                                                                                                                                                                                                                                                           96929-10      000030
1018421016232COBR_CAUC_COR  LEITBOM S/A                             004180523000118CARVALHO ATACADO DE ALIM LTDA           AV DEP PAULO FERRAZ 4888                TERESINA                                64078820PI2188600001016398070019583001  28042010900BRADESCO S/A        1206201000000000034200000CC                                                                                                                                                                                                                                                                                                                                                                                           96929-11      000031
1008420935268COBR_CAUC_COR  SANTANA TEXTIL MATO GROSSO S/A          007728342000171B76 INDUSTRIA E COMERCIO DE ROUPAS      RUA COIMBRA 61                          SAO PAULO                               03052030SP218870000100234470141493*     28042010900BRADESCO S/A        2806201000000000011939700CC                                                                                                                                                                                                                                                                                                                                                                                           96929-12      000032
1007421036503COBR_CAUC_BIC  DVA AGRO DO BRASIL IMP. EXP. LTDA       023361306000764SIPCAM ISAGRO BRASIL S/A                ROD DE ACESSO A VIA ANHANGUERA 999B     IGARAPAVA                               14540000SP2188800001098284260000004411  29052009022RIBEIRAO PRETO      3005201000000000010575600CC                                                                                                                                                                                                                                                                                                                                                                                           96929-13      000033
1007421036503COBR_CAUC_BIC  DVA AGRO DO BRASIL IMP. EXP. LTDA       023361306000764SIPCAM ISAGRO BRASIL S/A                ROD DE ACESSO A VIA ANHANGUERA 999B     IGARAPAVA                               14540000SP2188800002098284340000004412  29052009022RIBEIRAO PRETO      3005201000000000010575600CC                                                                                                                                                                                                                                                                                                                                                                                           96929-14      000034
1007421036503COBR_CAUC_BIC  DVA AGRO DO BRASIL IMP. EXP. LTDA       023361306000764SIPCAM ISAGRO BRASIL S/A                ROD DE ACESSO A VIA ANHANGUERA 999B     IGARAPAVA                               14540000SP2188800003098284420000004413  29052009022RIBEIRAO PRETO      3005201000000000010575600CC                                                                                                                                                                                                                                                                                                                                                                                           96929-15      000035
1018421016232COBR_CAUC_COR  LEITBOM S/A                             004180523000118CARVALHO ATACADO DE ALIM LTDA           AV DEP PAULO FERRAZ 4888                TERESINA                                64078820PI2191700001010450610019741001  30042010900BRADESCO S/A        1406201000000000032680000CC                                                                                                                                                                                                                                                                                                                                                                                           97323-1       000036
1018421016232COBR_CAUC_COR  LEITBOM S/A                             004895751000174Y YAMADA SA COM E IND .                 RUA SENADOR MANOEL BARATA 400           BELEM                                   66015020PA2191800001010438820000636001  29042010900BRADESCO S/A        0306201000000000011520000CC                                                                                                                                                                                                                                                                                                                                                                                           97323-2       000037
1028421002921COBR_CAUC_COR  FRIGORIFICO MATABOI S/A                 007918552000122CHARQUEADA FRISUL LTDA.                 R TREZE DE MAIO                         OURO FINO                               37570000MG2191900001001285330001646701  29042010900BRADESCO S/A        2905201000000000010223715CC                                                                                                                                                                                                                                                                                                                                                                                           97323-3       000038
1021420930887COBR_CAUC_COR  DEDINI S/A INDUSTRIAS DE BASE           047254396000167J PILON S A AC E ALC                    FAZ SANTA MARIA SAO FRANCISCO BR        CERQUILHO                               18520000SP219200000105791657106951-5-5  27042010900BRADESCO S/A        1705201000000000011500000CC                                                                                                                                                                                                                                                                                                                                                                                           97323-4       000039
1014420939021COBR_CAUC_BIC  EDITORA O DIA S/A                       033041260000164GLOBEX UTILIDADES SA                    AV. TENENTE REBELO, 675                 RIO DE JANEIRO                          21241460RJ2192100001022088330536239     30042010014RIO DE JANEIRO      1505201000000000010904000CC                                                                                                                                                                                                                                                                                                                                                                                           97323-5       000040
1014421016202COBR_CAUC_COR  EMPRESA BRAS DE SOLDA ELETRICA S/A      010838616000190CONSORCIO INTERCOM                      RUA FELIPE SCHMIDT, 241                 MAFRA                                   89300000SC2192200001042081131 002416    29032010900BRADESCO S/A        3005201000000000013450560CC                                                                                                                                                                                                                                                                                                                                                                                           97323-6       000041
1014421016202COBR_CAUC_COR  EMPRESA BRAS DE SOLDA ELETRICA S/A      010838616000190CONSORCIO INTERCOM                      RUA FELIPE SCHMIDT, 241                 MAFRA                                   89300000SC2192200002042081301 002564    16042010900BRADESCO S/A        3005201000000000010087920CC                                                                                                                                                                                                                                                                                                                                                                                           97323-7       000042
1014421016202COBR_CAUC_COR  EMPRESA BRAS DE SOLDA ELETRICA S/A      010838616000190CONSORCIO INTERCOM                      RUA FELIPE SCHMIDT, 241                 MAFRA                                   89300000SC2192200003042081481 002444    01042010900BRADESCO S/A        3005201000000000010087920CC                                                                                                                                                                                                                                                                                                                                                                                           97323-8       000043
1014421016202COBR_CAUC_COR  EMPRESA BRAS DE SOLDA ELETRICA S/A      010838616000190CONSORCIO INTERCOM                      RUA FELIPE SCHMIDT, 241                 MAFRA                                   89300000SC2192200004042081561 002442    01042010900BRADESCO S/A        3005201000000000013450560CC                                                                                                                                                                                                                                                                                                                                                                                           97323-9       000044
1014421016202COBR_CAUC_COR  EMPRESA BRAS DE SOLDA ELETRICA S/A      010838616000190CONSORCIO INTERCOM                      RUA FELIPE SCHMIDT, 241                 MAFRA                                   89300000SC2192200005042081641 002424    30032010900BRADESCO S/A        3005201000000000013450560CC                                                                                                                                                                                                                                                                                                                                                                                           97323-10      000045
1014421016202COBR_CAUC_COR  EMPRESA BRAS DE SOLDA ELETRICA S/A      010838616000190CONSORCIO INTERCOM                      RUA FELIPE SCHMIDT, 241                 MAFRA                                   89300000SC2192200006042081721 002418    29032010900BRADESCO S/A        3005201000000000013450560CC                                                                                                                                                                                                                                                                                                                                                                                           97323-11      000046
1014421016202COBR_CAUC_COR  EMPRESA BRAS DE SOLDA ELETRICA S/A      010838616000190CONSORCIO INTERCOM                      RUA FELIPE SCHMIDT, 241                 MAFRA                                   89300000SC2192200007042081811 002552    15042010900BRADESCO S/A        3005201000000000013860696CC                                                                                                                                                                                                                                                                                                                                                                                           97323-12      000047
1014421016202COBR_CAUC_COR  EMPRESA BRAS DE SOLDA ELETRICA S/A      010838616000190CONSORCIO INTERCOM                      RUA FELIPE SCHMIDT, 241                 MAFRA                                   89300000SC2192200008042081991 002550    15042010900BRADESCO S/A        3005201000000000013122000CC                                                                                                                                                                                                                                                                                                                                                                                           97323-13      000048
1014421016202COBR_CAUC_COR  EMPRESA BRAS DE SOLDA ELETRICA S/A      010838616000190CONSORCIO INTERCOM                      RUA FELIPE SCHMIDT, 241                 MAFRA                                   89300000SC2192200009042082021 002548    14042010900BRADESCO S/A        3005201000000000013122000CC                                                                                                                                                                                                                                                                                                                                                                                           97323-14      000049
1014421016202COBR_CAUC_COR  EMPRESA BRAS DE SOLDA ELETRICA S/A      010838616000190CONSORCIO INTERCOM                      RUA FELIPE SCHMIDT, 241                 MAFRA                                   89300000SC2192200010042082111 002448    01042010900BRADESCO S/A        3005201000000000010087920CC                                                                                                                                                                                                                                                                                                                                                                                           97323-15      000050
1014421016202COBR_CAUC_COR  EMPRESA BRAS DE SOLDA ELETRICA S/A      010838616000190CONSORCIO INTERCOM                      RUA FELIPE SCHMIDT, 241                 MAFRA                                   89300000SC2192200011042082291 002446    01042010900BRADESCO S/A        3005201000000000010087920CC                                                                                                                                                                                                                                                                                                                                                                                           97323-16      000051
1013141007379COBR_CAUC_COR  ISOREL LOCACAO E SERVICOS LTDA          000860705000189PRODUMAN ENGENHARIA LTDA                1 TV DO BALNEARIO,402 IMBASSAY          DIAS D´AVILA                            42850000BA21923000010397892301566       30042010900BRADESCO S/A        2606201000000000020538352TD                                                                                                                                                                                                                                                                                                                                                                                           97323-17      000052
1043421004596DIR_CREDIT     SISTEMA DE ASSIST SOCIAL E DE SAUDE     008707473000135UNIMED CAMPINA GRANDE                   RUA CLAYTON ISMAEL,40, JD TÁVORA        CAMPINA GRANDE                          58102279PB2193100001                                                                                                                                          010907309           311020060000012620            29042010000403PRESTAÇÃO DE SERVIÇOS DE ASSISTENCIA MÉDICA-HOSPITALAR E APOIO DIAGNOSTICO E TERAPIA NAS ESPECIALIDADES E EM REGIME DE ATENDIMENTO DETERMINADO.                                                                                                 00767895000011997323-18      000053
1018421017190DIR_CREDIT     FUAD RASSI ENG IND E COM LTDA           013018171000190COMPANHIA DE SANEAMENTO DE SERGIPE-DESO RUA CAMPO DO BRITO,NR.331,PRAIA 13 JULHOARACAJU                                 49020380SE2229100001                                                                                                                                          010968109           070520100000013403059/2010    19052010000403EXECUÇÃO DE OBRAS E SERVIÇOS PARA IMPLANTAÇÃO DOS SISTEMAS DE ESGOTAMENTOS SANITARIOS E DRENAGEM PLUVIAL NAS LOCALIDADES DO BAIRRO STA MARIA,CONJ ANTONIO CARLOS VALADARES,CONJ PADRE PEDRO,INVASAO TERRA DURA,INVASãO STA MARIA.               001701309000171101308-1      000054
1005421000131DIR_CREDIT     POLICLINICA DE JUAZEIRO LTDA            063554067000198HAP VIDA ASSISTENCIA MEDICA LTDA        AV HERACLITO GRAçA N 406                FORTALEZA                               63000000CE2229500001                                                                                                                                          010968627           011220030000013273            19052010000403a contratada compromete-se a prestar serviços medicos e hospitalares, nas especialidades e conforme descriminado em anexo I aosbeneficiariso dos planos de assistencia à saude comercializados pela contratante                                 007578636000164101308-2      000055
1006421005473DIR_CREDIT     IGC EMPREEND IMOBILIARIOS LTDA          013009717000146BANCO DO ESTADO DE SERGIPE S/A - BANESE RUA F, Nº 31 - D.I.A - INACIO BARBOSA   ARACAJU                                 49040780SE2231600001                                                                                                                                          481009100           160920090000010882            20052010000404REALIZAÇÃO DE SERVIÇOS TECNICOS NO IMOVEL TOMBADO PELO ESTADO DE SERGI-PE, LOCALIZADO NA AV IVO DO PRADO, 398, CENTRO, NESTA CIDADE DE ARACAJU, COM AEREA DE REFORMA E RESTAURAÇÃO 1.730,49 M, CONSTRUÇAO 712,19 M E URBANIZAÇÃO.               005263842000150101308-3      000056
1043421006882DIR_CREDIT     COINPA CONST E IND PREM PB LTDA         008806721000103SECRETARIA DE DESENVOLVIMENTO URBANO    RUA DIOGENES CHIANCA,177 BLOCO B        JOAO PESSOA                             58053000PB2232500001                                                                                                                                          010967700           24032010000001317702/2010     20052010000403Execução das obras de construção da praça costa e silva em joão pessoa/pb.                                                                                                                                                                      007323388000100101308-4      000057
1003421009025DIR_CREDIT     CONSORCIO PWE & GRANITO                 007625932000179SERVICO AUTONOMO DE AGUA E ESGOTO - SAAEAV DOM AURELIANO MATOS, 1400            LIMOEIRO DO NORTE                       62930000CE2232700001                                                                                                                                          481014762           090620080000006721016/2008 LIM20052010000404EXECUÇÃO DE OBRAS E SERVIÇOS PARA IMPLANTAÇÃO DA 1ª ETAPA DO SISTEMA DE ESGOTAMENTO SANITÁRIO DO MUNICÍPIO DE LIMOEIRO DO NORTE-CE.                                                                                                             009434029000156101308-5      000058
1044421010527DIR_CREDIT     PINCOL PREMOLDADOS IND E COM LTDA       006840748000189CEPISA - CIA ENERGéTICA DO PIAUI        AV MARANHAO, 759                        TERESINA                                59000000RN2233500001                                                                                                                                          481011945           280120100000012155002/2010    20052010000404contratação de empresa de eng. para levantamento de dados, elaboração de propostas de projetos executivos e execução de obras de eletrificação rural no estado do PI, com fornecimento integral de materiais.                                   010724474000130101308-6      000059
1008420935268COBR_CAUC_COR  SANTANA TEXTIL MATO GROSSO S/A          009048102000151LIBELULA IND E COM TEXTIL LTDA          RUA ALMIRANTE BARROSO 619               SAO PAULO                               03025001SP223380000100268161142173*     21052010900BRADESCO S/A        0406201000000000010016784CC                                                                                                                                                                                                                                                                                                                                                                                           101308-7      000060
1015421008640COBR_CAUC_COR  LABORATORIO AVAMILLER DE COSMETICO      050306471000109ETILUX INDUSTRIA E COM LTDA             AV. AMADEU POLI 940                     SAO PAULO                               02188020SP2233900001006946612394 D      30042010900BRADESCO S/A        1508201000000000011159089CC                                                                                                                                                                                                                                                                                                                                                                                           101308-8      000061
1022141001217COBR_CAUC_BIC  BALDIN BIOENERGIA S/A                   001062529000100DULCINI S/A                             ESTR SITIO TABOAO S/N Z RURAL           PIRASSUNUNGA                            13631301SP2234000001038703407546/01     14052010021CAMPINAS            1907201000000000025000000TD                                                                                                                                                                                                                                                                                                                                                                                           101308-9      000062
1022141001217COBR_CAUC_BIC  BALDIN BIOENERGIA S/A                   001062529000100DULCINI S/A                             ESTR SITIO TABOAO S/N Z RURAL           PIRASSUNUNGA                            13631301SP2234000002038703587546/02     14052010021CAMPINAS            2007201000000000025000000TD                                                                                                                                                                                                                                                                                                                                                                                           101308-10     000063
1022141001217COBR_CAUC_BIC  BALDIN BIOENERGIA S/A                   001062529000100DULCINI S/A                             ESTR SITIO TABOAO S/N Z RURAL           PIRASSUNUNGA                            13631301SP2234000003038703667546/03     14052010021CAMPINAS            2107201000000000025000000TD                                                                                                                                                                                                                                                                                                                                                                                           101308-11     000064
1022141001217COBR_CAUC_BIC  BALDIN BIOENERGIA S/A                   001062529000100DULCINI S/A                             ESTR SITIO TABOAO S/N Z RURAL           PIRASSUNUNGA                            13631301SP2234000004038703747546/04     14052010021CAMPINAS            2207201000000000025000000TD                                                                                                                                                                                                                                                                                                                                                                                           101308-12     000065
1009421001996COBR_CAUC_COR  MEDICAL SHOP PROD.HOSPITALARES LTDA     000106435000115HOSPITAL SANTA LUZIA                    AV W3 SUL QD716 BL E,0                  BRASILIA                                70390903DF22341000010004040640410/1     21052010900BRADESCO S/A        0507201000000000010021185CC                                                                                                                                                                                                                                                                                                                                                                                           101308-13     000066
1016421000655DIR_CREDIT     INSOL INTE.DO BRASIL IND E COM S/A      080443823000554AVEPAR - AVES DO PARQUE LTDA            ROD SC 480 KM 94 - LINHA TRES PONTES    XANXERE                                 89820000SC2234200001                                                                                                                                          481014214           3003201000000128200091/2010   05042010000404AQUISIÇÃO DE 240 TONELADAS DE FARELO DE SOJA PELETIZADO A GRANEL, A r$ 495,00 A TONELADA. VALOR TOTALS: R$ 118.800,00 ( CENTO E DEZOITO MIL E OITOCENTOS REAIS).                                                                                004440724000107101308-14     000067
1029140511987COBR_CAUC_BIC  BRASFUMO IND BRAS DE FUMOS S/A          005648120000385TABACUM INTERAMERICAN COM.E EXP.DE      ROD RSC 287, SN                         VENANCIO AIRES                          95800000RS223430000109205339000006108   24052010015PORTO ALEGRE        2308201000000000014763600TD                                                                                                                                                                                                                                                                                                                                                                                           101351-1      000068
1024420934410COBR_CAUC_BIC  INTERCOOP INT SUIN MED NORTE MT LTD     038711826000131LINCON INDUSTRIA E COMERCIO LTDA        RUA JOSE MARIA DE LACERDA 205,2058      CONTAGEM                                32210120MG22344000010179887639562       21052010019BELO HORIZONTE      1106201000000000012350881CC                                                                                                                                                                                                                                                                                                                                                                                           101351-2      000069
1007421024386COBR_CAUC_BIC  TRES EDITORIAL LTDA                     042498600000171SUBSECRETARIA DE COMUNICACAO SOCIA      RUA VISCONDE DE PIRAJA ,351             RIO DE JANEIRO                          22410003RJ223450000109882561019142-A    24052010014RIO DE JANEIRO      3006201000000000060000000CC                                                                                                                                                                                                                                                                                                                                                                                           101351-3      000070
1006421008642COBR_CAUC_BIC  MSC INCORPORACAO E ADM DE IMOV LTD      000018671667200JURANDIR FERRO DO LAGO FILHO            AV DO VALE, 10                          SAO LUIS                                65075820MA2234600001079409190000120000  20072006042SAO LUIS            1506201000000000015890877CC                                                                                                                                                                                                                                                                                                                                                                                           101351-4      000071
1041421002333DIR_CREDIT     CONSTRUMAX IND. E COM. LTDA             006517387000134UNIVERSIDADE FEDERAL DO PIAUI - UFPI    CAMPUS MINISTRO PETRONIO PORTELA        TERESINA                                64000000PI2235700001                                                                                                                                          481006858           04112009000001110883/2009     24052010000404EXECUCAO DOS SERVICOS DE SEGUNDA ETAPA DO PROJETO REUNINOCENTRODEDE TECNOLOGIA - CONSTRUCAO DOS BLOCOS S2 E S4, PASSARELAS E LIGACOES DOS BLOCOSREFORMA E INFRAESTRUTURA, NO CAMPUS MINISTRO PETRONIO PORTELA EM TERESINA-PI.                   005619581000168101351-5      000072
1018421018790DIR_CREDIT     JRC ASSEIO E CONSERVACAO LTDA           025086034000171COMP.ENERGIA ELETRICA EST.TOCANTINS-CELT104 NORTE,CONJ IV,LT.12-A,CENTRO        PALMAS                                  77006032TO2236500001                                                                                                                                          010872594           061020090000011997SCTR 055/20017032010000403SERVIÇOS DE MAO DE OBRA,SERVIÇOS DE LIMPEZA NAS AREAS INTERNAS,SERVIÇOS DE JARDINAGEM,SERVIÇOS DE COPEIRA,SERVIÇOS DE PORTARIA , SERVIÇOS DE RECEPCIONISTA.                                                                                     003485383000204101351-6      000073
1044421008824DIR_CREDIT     CG CONSTRUCOES CIVIS LTDA               008170862000174PM DE PARNAMIRIM                        CENTRO                                  PARNAMIRIM                              59150000RN2236600001                                                                                                                                          481010566           281220070000009002204/2007    02022010000404construção da escola municipal de jardim blumenal, parnamirim/rn.                                                                                                                                                                               004227510000157101351-7      000074
9000073                                                                                                                                                                                                                                                                                                                                                                                                                                                                                                                                                                                                                                                                                                               000075
