0REMESSANOTIFICAÇÃO ELETRONICA        99999999999999Bicbanco S/A                            Avenida Paulista                        1048      12º andar BELA VISTA                    SÃO PAULO                     01310100SPBicbanco S/A                                                                    22032011                                                                                                                                                                                                                                                                                                                                                                                                000001
1021420930887COBR_CAUC_COR  DEDINI S/A INDUSTRIAS DE BASE           012217832000224INDUSTRIAL PORTO RICO S A               FAZ SAO JOSE CAMPO ALEGRE BR            CAMPO ALEGRE                            57250000AL267970000106139198143431-4-4  01032011900BRADESCO S/A        3105201100000000015583960CC                                                                                                                                                                                                                                                                                                                                                                                           125315-1      000002
1007421027229COBR_CAUC_COR  ARFRIO S/A ARM GERAIS FRIGORIFICO       002279324000136GDC ALIMENTOS S/A                       RUA EUGENIO PEZZINI,500                 ITAJAI                                  88311000SC2679800001000210319437        17032011900BRADESCO S/A        3003201100000000018185567CC                                                                                                                                                                                                                                                                                                                                                                                           125315-2      000003
1007421027229COBR_CAUC_COR  ARFRIO S/A ARM GERAIS FRIGORIFICO       043816719000531FERRERO DO BRASIL INDUSTRIA DOCEIR      VIA ANHANGUERA,0-GALPAO: 28             SAO PAULO                               05112000SP26799000010002102315048       17032011900BRADESCO S/A        1604201100000000019298304CC                                                                                                                                                                                                                                                                                                                                                                                           125315-3      000004
1007420931444COBR_CAUC_BIC  PLASINCO LTDA                           061413282000143LORENZETTI S/A INDUSTRIA BRASILEIR      AV. PRESIDENTE WILSON,1230              SAO PAULO                               03107901SP26800000010044055711184-A     16032011007PAULISTA            1304201100000000022815241CC                                                                                                                                                                                                                                                                                                                                                                                           125315-4      000005
1007420931444COBR_CAUC_BIC  PLASINCO LTDA                           061413282000143LORENZETTI S/A INDUSTRIA BRASILEIR      AV. PRESIDENTE WILSON,1230              SAO PAULO                               03107901SP26800000020044056511186-A     16032011007PAULISTA            1304201100000000020421127CC                                                                                                                                                                                                                                                                                                                                                                                           125315-5      000006
1016421000833COBR_CAUC_BIC  SPERAFICO AGROINDUSTRIAL LTDA           005547514000185SOLAE DO BRASIL IND COM ALIMENTOS       RODOVIA BR 116 PARADA NR35              ESTEIO                                  93270000RS2680100001030433290003144-01  14032011015PORTO ALEGRE        1304201100000000010350791CC                                                                                                                                                                                                                                                                                                                                                                                           125315-6      000007
1036421016893COBR_CAUC_COR  TECAL ALUMINIO DA AMAZONIA LTDA         004012043000148SHOWA DO BRASIL LTDA                    RUA RIO QUIXITO                         MANAUS                                  69075830AM2680200001057733360000023331  16032011900BRADESCO S/A        1504201100000000010933141CC                                                                                                                                                                                                                                                                                                                                                                                           125315-7      000008
1044421010977COBR_CAUC_BIC  FEDCO INDUSTRIA E COMERCIO LTDA         061585865000151DROGASIL S/A                            AV.CORIFEU DE AZEVEDO MARQUES,3097      SAO PAULO                               05339900SP26803000010134692812434/1.1   09032011007PAULISTA            0205201100000000017403701CC                                                                                                                                                                                                                                                                                                                                                                                           125315-8      000009
9000008                                                                                                                                                                                                                                                                                                                                                                                                                                                                                                                                                                                                                                                                                                               000010
