0REMESSANOTIFICAÇÃO ELETRONICA        99999999999999Bicbanco S/A                            Avenida Paulista                        1048      12º andar BELA VISTA                    SÃO PAULO                     01310100SPBicbanco S/A                                                                    22092011                                                                                                                                                                                                                                                                                                                                                                                                000001
1048421000338COBR_CAUC_COR  FRIGOESTRELA S.A. EM RECUP JUDICIAL     050947761001871IRMAOS RUSSI LTDA                       RUA LUIS ALLI FARDYN590SALA 03          CAJAMAR                                 07750000SP3074400001014490780000009101  18092011900BRADESCO S/A        2410201100000000011398871CC                                                                                                                                                                                                                                                                                                                                                                                           145571-1      000002
1010421008539COBR_CAUC_COR  EXITO IMPORTADORA E EXPORTADORA S/A     009163764000172BHARAT VEICULOS LTDA                    AVENIDA VITORIA 2967                    VITORIA                                 29046020ES3074500001001110761211        16092011900BRADESCO S/A        2610201100000000014500000CC                                                                                                                                                                                                                                                                                                                                                                                           145571-2      000003
1010421008539COBR_CAUC_COR  EXITO IMPORTADORA E EXPORTADORA S/A     009163764000172BHARAT VEICULOS LTDA                    AVENIDA VITORIA 2967                    VITORIA                                 29046020ES3074500002001110921213        16092011900BRADESCO S/A        2610201100000000014500000CC                                                                                                                                                                                                                                                                                                                                                                                           145571-3      000004
9000003                                                                                                                                                                                                                                                                                                                                                                                                                                                                                                                                                                                                                                                                                                               000005
