0REMESSANOTIFICAÇÃO ELETRONICA        99999999999999Bicbanco S/A                            Avenida Paulista , 1048 12º andar                           BELA VISTA                    SÃO PAULO                     01310100SPBicbanco S/A                                                                    22062010                                                                                                                                                                                                                                                                                                                                                                                                000001
1032421001141DIR_CREDIT     ENGEPLAN TERRAP SANEAM E URB LTDA       083102764000115PREFEITURA MUNICIPAL DE TIMBO           AV. GETULIO VARGAS, 816                 TIMBO                                   89120000SC2275900001                                                                                                                                          011002545           0202201000000139052010/37     15062010000404Execução de obras e serviços de drenagem e pavimentação asfáltica.                                                                                                                                                                              083897504000183103644-1      000002
1044421000289DIR_CREDIT     CRISAL CONSTRUCAO ENG E COML. LTDA      008079402000135PREFEITURA MUNICIPAL DE SAO G DO AMARANTRUA ALEXANDRE CAVALCANTI,S/N            SAO GONCALO DO AMARA                    59000000RN2276800001                                                                                                                                          481012470           261020090000012631590/2009    15062010000404execução de obra de construção do centro de comercialização de sao gonçalo do amarante/rn.                                                                                                                                                      000792407000107103644-2      000003
1028421002921COBR_CAUC_COR  FRIGORIFICO MATABOI S/A                 076189406000126CONDOR SUPER CENTER LTDA                R. NICOLA PELANDA250                    CURITIBA                                81880000PR2278000001001534730010070701  15062010900BRADESCO S/A        1807201000000000014164327CC                                                                                                                                                                                                                                                                                                                                                                                           103644-3      000004
1028421002921COBR_CAUC_COR  FRIGORIFICO MATABOI S/A                 083648477000610GIASSI & CIA LTDA                       VL SAO JOSE SN                          ICARA                                   88820000SC2278100001001538810010075901  16062010900BRADESCO S/A        2106201000000000017698320CC                                                                                                                                                                                                                                                                                                                                                                                           103644-4      000005
1014421012444COBR_CAUC_COR  HOTEIS OTHON S/A.                       007575651000310VRG LINHAS AEREAS S A                   PCA SEN SALGADO FILHO S N SALA 02       RIO DE JANEIRO                          20021971RJ2278200001000600491200268901  17062010900BRADESCO S/A        1707201000000000023467000CC                                                                                                                                                                                                                                                                                                                                                                                           103644-5      000006
1044421010977COBR_CAUC_BIC  FEDCO INDUSTRIA E COMERCIO LTDA         061585865000151DROGASIL S/A                            AV.CORIFEU DE AZEVEDO MARQUES,3097      SAO PAULO                               05339900SP227830000101256511008130      04062010007PAULISTA            2807201000000000019944697CC                                                                                                                                                                                                                                                                                                                                                                                           103644-6      000007
1013421015223DIR_CREDIT     CACO DE TELHA PROD EVENTOS LTDA         033200056000149LOJAS RIACHUELO S.A                     RUA LEAO XIII Nº 500 JARDIM SAO BENTO   SAO PAULO                               02526000BA2281100001                                                                                                                                          010803370           011120090000011181            30042010000403É definida como sendo a logomarca e nome Ivete Sangalo e seus atributos,assim como as marcas ivete sangalo associadas aos produtos licenciados.                                                                                                 000829821000135103644-7      000008
9000007                                                                                                                                                                                                                                                                                                                                                                                                                                                                                                                                                                                                                                                                                                               000009
