0REMESSANOTIFICAÇÃO ELETRONICA        99999999999999Bicbanco S/A                            Avenida Brigadeiro Faria Lima           4.440     2º andar  Itaim Bibi                    São Paulo                     04538132SPBicbanco S/A                                                                    17062014                                                                                                                                                                                                                                                                                                                                                                                                000001
1007421060269COBR_CAUC_COR  CAMBUCI S/A                             007027366000101VR COMERCIO DE CALCADOS LTDA - EPP      RUA REPUBLICA DO LIBANO, 28             TRES CORACOES                           37410000MG481620000103001597DM25520701  04062014700BANCO REAL- ABN AMRO0608201400000000013539636CC                                                                                                                                                                                                                                                                                                                                                                                           306109-1      000002
1007421056385COBR_CAUC_COR  TERRA NOVA TRADING S/A                  047410238001805EUROMOBILE INTERIORES S/A               RODOVIA SC 486-ANTONIO ,1001-KM 01      ITAJAI                                  88316001SC481630000100002142NF27126     11062014900BRADESCO S/A        0409201400000000031775157CC                                                                                                                                                                                                                                                                                                                                                                                           306109-2      000003
1048421000338COBR_CAUC_COR  FRIGOESTRELA S.A. EM RECUP JUDICIAL     088148259000125INDUSTRIA DE PELES MINUANO LTDA         AV CAPIVARA, 1645                       LINDOLFO COLLOR                         93940000RS4816400001082776550112952301  10062014900BRADESCO S/A        0807201400000000027476281CC                                                                                                                                                                                                                                                                                                                                                                                           306109-3      000004
1021421017050COBR_CAUC_BIC  STAR DISTR PROD FARMACEUTICOS LTDA      061585865073701RAIA DROGASIL S/A                       RUA PATAXOS , 1412                      EMBU                                    06833073SP4816500001000023010000340501  10062014007PAULISTA            2406201400000000040878206CC                                                                                                                                                                                                                                                                                                                                                                                           306109-4      000005
1021421017050COBR_CAUC_BIC  STAR DISTR PROD FARMACEUTICOS LTDA      061585865073701RAIA DROGASIL S/A                       RUA PATAXOS , 1412                      EMBU                                    06833073SP4816500002000023100000340601  10062014007PAULISTA            2406201400000000016234451CC                                                                                                                                                                                                                                                                                                                                                                                           306109-5      000006
1021421017050COBR_CAUC_BIC  STAR DISTR PROD FARMACEUTICOS LTDA      061585865073701RAIA DROGASIL S/A                       RUA PATAXOS , 1412                      EMBU                                    06833073SP4816500003000023280000340401  10062014007PAULISTA            2406201400000000016455999CC                                                                                                                                                                                                                                                                                                                                                                                           306109-6      000007
1021421017050COBR_CAUC_BIC  STAR DISTR PROD FARMACEUTICOS LTDA      061585865073701RAIA DROGASIL S/A                       RUA PATAXOS , 1412                      EMBU                                    06833073SP4816500004000023360000341001  11062014007PAULISTA            2506201400000000016298820CC                                                                                                                                                                                                                                                                                                                                                                                           306109-7      000008
1021421017050COBR_CAUC_BIC  STAR DISTR PROD FARMACEUTICOS LTDA      061585865073701RAIA DROGASIL S/A                       RUA PATAXOS , 1412                      EMBU                                    06833073SP4816500005000023440000340801  11062014007PAULISTA            2506201400000000041556426CC                                                                                                                                                                                                                                                                                                                                                                                           306109-8      000009
1021421017050COBR_CAUC_BIC  STAR DISTR PROD FARMACEUTICOS LTDA      061585865073701RAIA DROGASIL S/A                       RUA PATAXOS , 1412                      EMBU                                    06833073SP4816500006000023520000340901  11062014007PAULISTA            2506201400000000010992631CC                                                                                                                                                                                                                                                                                                                                                                                           306109-9      000010
1007421013325COBR_CAUC_COR  SANTA CRUZ FOMENTO COMERCIAL LTDA       004557061000105                                        R XV DE NOVEMBRO                        NITEROI                                 24020125RJ481910000102720298964/A       28022014900BRADESCO S/A        2306201400000000023500000CC                                                                                                                                                                                                                                                                                                                                                                                           306110-1      000011
9000010                                                                                                                                                                                                                                                                                                                                                                                                                                                                                                                                                                                                                                                                                                               000012
