0REMESSANOTIFICAÇÃO ELETRONICA        99999999999999Bicbanco S/A                            Avenida Paulista , 1048 12º andar                           BELA VISTA                    SÃO PAULO                     01310100SPBicbanco S/A                                                                    22032010                                                                                                                                                                                                                                                                                                                                                                                                000001
1009420930764COBR_CAUC_BIC  S/A CORREIO BRAZILIENSE                 000913443000173RENAULT DO BRASIL S A                   AV. RENAULT, 1300 BORDA DO CAMPO BR     SAO JOSE DOS PI                         83070900PR210430000101323355380420-1    15032010016CURITIBA            3003201000000000011087482CC                                                                                                                                                                                                                                                                                                                                                                                           90110-1       000002
1021420930887COBR_CAUC_BIC  DEDINI S/A INDUSTRIAS DE BASE           000261304000102EISA ESTAL ILHA S A                     PRAIA DO ROSA ILHA GOVERNADOR BR        RIO DE JANEIRO                          21920140RJ21044000010575289910914-2-2   16032010014RIO DE JANEIRO      2603201000000000014196250CC                                                                                                                                                                                                                                                                                                                                                                                           90110-2       000003
1036421014416COBR_CAUC_COR  RONTAN ELETRO METALURGICA LTDA          016701716000156FIAT AUTOMOVEIS S.A. 65401              RUA FERNAO DIASBR381 KM429              BETIM                                   32560460MG210450000105685712037199-1    11032010900BRADESCO S/A        1404201000000000099394425CC                                                                                                                                                                                                                                                                                                                                                                                           90110-3       000004
1007420934397COBR_CAUC_BIC  LINEA PARANA MADEIRAS LTDA              009358816000247FIT PALLADIUM EMPREEND IMOB. LTDA       AV SETE DE SETEMBRO 4064                CURITIBA                                80250210PR2104600001097526831390        12032010016CURITIBA            1504201000000000014163362CC                                                                                                                                                                                                                                                                                                                                                                                           90110-4       000005
1042141000037COBR_CAUC_BIC  COBRACO SERVICOS E MONTAGENS LTDA       008043748000183CONSORCIO DE ENG.MEC.ELET E CIVIL       ROD. BR 135 KM 14                       SAO LUIS                                65099110MA21047000010117392103/10       11032010042SAO LUIS            2606201000000000031000000TD                                                                                                                                                                                                                                                                                                                                                                                           90110-5       000006
1042141000037COBR_CAUC_BIC  COBRACO SERVICOS E MONTAGENS LTDA       008043748000183CONSORCIO DE ENG.MEC.ELET E CIVIL       ROD. BR 135 KM 14                       SAO LUIS                                65099110MA21047000020117393904/10       11032010042SAO LUIS            1307201000000000034000000TD                                                                                                                                                                                                                                                                                                                                                                                           90110-6       000007
1014421008439COBR_CAUC_BIC  TV OMEGA LTDA                           040306326000166Associação Vitoria em Cristo            Estrada do Guerenguê - 1851             RiodeJaneiro                            22713001RJ210480000104182807390110      17032010014RIO DE JANEIRO      3008201000000000030000000CC                                                                                                                                                                                                                                                                                                                                                                                           90110-7       000008
1014421008439COBR_CAUC_BIC  TV OMEGA LTDA                           040306326000166Associação Vitoria em Cristo            Estrada do Guerenguê - 1851             RiodeJaneiro                            22713001RJ210480000204182866390111      17032010014RIO DE JANEIRO      2308201000000000030000000CC                                                                                                                                                                                                                                                                                                                                                                                           90110-8       000009
9000008                                                                                                                                                                                                                                                                                                                                                                                                                                                                                                                                                                                                                                                                                                               000010
