0REMESSANOTIFICAÇÃO ELETRONICA        99999999999999Bicbanco S/A                            Avenida Paulista                        1048      12º andar BELA VISTA                    SÃO PAULO                     01310100SPBicbanco S/A                                                                    03082011                                                                                                                                                                                                                                                                                                                                                                                                000001
1046421000617COBR_CAUC_BIC  INPLAC INDUSTRIA DE PLASTICOS S/A       004716366000112EMBALAGENS FLEXIVEIS DIADEMA SA         AV FUNDIBEM ,184                        DIADEMA                                 09961390SP293750000101214474001163558   29072011038ABC                 0209201100000000010170477CC                                                                                                                                                                                                                                                                                                                                                                                           139600-1      000002
1007421006183COBR_CAUC_BIC  NITRIFLEX S/A IND E COMERCIO            036193928000187TEADIT IND. E COMERCIO LTDA.            AV.PASTOR MARTIN LUTHER KING JR, 8939   RIO DE JANEIRO                          21530012RJ293760000100706221001065501   29072011014RIO DE JANEIRO      1508201100000000031499990CC                                                                                                                                                                                                                                                                                                                                                                                           139600-2      000003
1008421003482COBR_CAUC_BIC  METALGRAFICA CEARENSE S/AMECESA         023814940000110UBERLANDIA REFRESCOS LTDA-UBERLAND      RUA TEREZINHA SEGADAES, 45              UBERLANDIA                              38405212MG29377000010840407202035101    29072011028UBERLANDIA          2608201100000000010274400CC                                                                                                                                                                                                                                                                                                                                                                                           139600-3      000004
1031420932046COBR_CAUC_BIC  PALMALI INDL.DE ALIMENTOS LTDA          097191902000194CONSERVAS ODERICH SA                    RUA ODERICH,807                         SAO SEBASTIAO D                         95760000RS2937800001049045067877        29072011015PORTO ALEGRE        2908201100000000010500000CC                                                                                                                                                                                                                                                                                                                                                                                           139600-4      000005
1014420939021COBR_CAUC_BIC  EDITORA O DIA S/A                       003848688000152SERVICO NAC.DE APREND.INDULTRIAL S      GRACA ARANHA 1 - 5 ANDAR SALA 502       RIO DE JANEIRO                          20030002RJ2937900001023514150602924     29072011014RIO DE JANEIRO      0109201100000000014400000CC                                                                                                                                                                                                                                                                                                                                                                                           139600-5      000006
1014420939021COBR_CAUC_BIC  EDITORA O DIA S/A                       010757237000175NOVA CASAS BAHIA S/A                    CONDE FRANCISCO MATARAZZO 100           SAO CAETANO DO                          09520900SP2938000001023522500603152     31072011038ABC                 2008201100000000026758896CC                                                                                                                                                                                                                                                                                                                                                                                           139600-6      000007
1016421019267COBR_CAUC_COR  COBRAZEM AGROINDUSTRIAL LTDA            084874726000496KAEFER AGRO INDUSTRIAL                  RUA MATE LARANJEIRAS,0                  TOLEDO                                  85900000PR2938100001031342860000188-01  25072011800UNIBANCO S/A        2408201100000000049950000CC                                                                                                                                                                                                                                                                                                                                                                                           139600-7      000008
1014421021575COBR_CAUC_COR  CESBRA QUIMICA S/A                      084684455006951TIGRE S A TUBOS E CONEXOES              RUA DOS BOROROS,84                      JOINVILLE                               89239290SC2938200001044676910006353/01  01082011600HSBC BANK BRASIL    0109201100000000011456000CC                                                                                                                                                                                                                                                                                                                                                                                           139600-8      000009
1028421001348DIR_CREDIT     ELETROSOM S/A                           062421979000129BANCO GE CAPITAL SA                     AV 9 DE JULHO, 5229, 11 ANDAR           SAO PAULO                               01406200SP2938900001                                                                                                                                          010724523           080620040000010310            27102009000453financiamento de compra dos produtos vendidos pela Rede Eletrosom.                                                                                                                                                                              022164990000136139600-9      000010
1018421019169COBR_CAUC_BIC  INDUSTRIA E COMERCIO AUTO REIS LTDA     009537827000103TNB TRANSPORTES LTDA                    ROD BR 376 NR 3045                      SAO JOSE DOS PI                         83015000PR29397000010223798239550/04E   30042011016CURITIBA            2808201100000000000106750CC                                                                                                                                                                                                                                                                                                                                                                                           139600-10     000011
1018421019169COBR_CAUC_BIC  INDUSTRIA E COMERCIO AUTO REIS LTDA     001226759000150MARCELO COIMBRA ME                      AV VICENTE J PARISE N849                TAQUARITINGA                            15900000SP29398000010223839339474/04E   30042011022RIBEIRAO PRETO      2808201100000000000107500CC                                                                                                                                                                                                                                                                                                                                                                                           139600-11     000012
1018421019169COBR_CAUC_BIC  INDUSTRIA E COMERCIO AUTO REIS LTDA     004531909000127ESCAVA TRATORES PECAS E SERVICOS L      RUA DR ALVARO CAMARGO N2495 GP3         BELO HORIZONTE                          31565312MG29399000010229375148477/03E   07062011019BELO HORIZONTE      0509201100000000000108333CC                                                                                                                                                                                                                                                                                                                                                                                           139600-12     000013
1018421019169COBR_CAUC_COR  INDUSTRIA E COMERCIO AUTO REIS LTDA     000908095000146QUINTINO E ANDRADE LTDA                 RUA RUI BARBOSA N313                    PADRE BERNARDO                          73700000GO29400000010223044938746/04E   27042011900BRADESCO S/A        2508201100000000000108751CC                                                                                                                                                                                                                                                                                                                                                                                           139600-13     000014
1018421019169COBR_CAUC_COR  INDUSTRIA E COMERCIO AUTO REIS LTDA     041823089000173RETIFICA NSA SENHORA DO CARMO IND.      R.JOSE V.MELO ,265                      ARCOS                                   35588000MG29401000010227299144377/03E   23052011900BRADESCO S/A        2108201100000000000112844CC                                                                                                                                                                                                                                                                                                                                                                                           139600-14     000015
1018421019169COBR_CAUC_BIC  INDUSTRIA E COMERCIO AUTO REIS LTDA     005278032000177PATRICIA MARIA XAVIER TEODORO EPP       RUA POVOA VARZIM N535                   BELO HORIZONTE                          31340060MG29402000010224478440119/04E   03052011019BELO HORIZONTE      3108201100000000000113300CC                                                                                                                                                                                                                                                                                                                                                                                           139600-15     000016
1018421019169COBR_CAUC_BIC  INDUSTRIA E COMERCIO AUTO REIS LTDA     007372303000184ABELARDO SANTOS & CIA LTDA              R DR ANTONIO DINO NR 37                 SAO LUIS                                65030490MA29403000010223007438838/04E   27042011042SAO LUIS            2508201100000000000115001CC                                                                                                                                                                                                                                                                                                                                                                                           139600-16     000017
1018421019169COBR_CAUC_BIC  INDUSTRIA E COMERCIO AUTO REIS LTDA     006975261000103RETINORTE RETIFICA NORTE LTDA EPP       AV.JOSE A.AZEVEDO,459                   CAMPOS DOS GOYT                         28025496RJ29404000010223113538721/04E   27042011014RIO DE JANEIRO      2508201100000000000119617CC                                                                                                                                                                                                                                                                                                                                                                                           139600-17     000018
1018421019169COBR_CAUC_COR  INDUSTRIA E COMERCIO AUTO REIS LTDA     002508492000156JOSE SAMPAIO FERNANDES                  RUA BR242 KM486 SN                      IBOTIRAMA                               47520000BA29405000010223076738479/04E   27042011900BRADESCO S/A        2508201100000000000122500CC                                                                                                                                                                                                                                                                                                                                                                                           139600-18     000019
1018421019169COBR_CAUC_BIC  INDUSTRIA E COMERCIO AUTO REIS LTDA     005785873000170ODILON AUTO PECAS LTDA                  AV ABILIO MACHADO N4284                 CONTAGEM                                32110010MG29406000010224474140083/04E   03052011019BELO HORIZONTE      3108201100000000000131300CC                                                                                                                                                                                                                                                                                                                                                                                           139600-19     000020
1018421019169COBR_CAUC_COR  INDUSTRIA E COMERCIO AUTO REIS LTDA     003264824000167EROCI AUTO PECAS LTDA                   FOLHA 27 QD. 20 LT. 21                  MARABA                                  68509290PA29407000010223055438804/04E   27042011600HSBC BANK BRASIL    2508201100000000000135002CC                                                                                                                                                                                                                                                                                                                                                                                           139600-20     000021
1018421019169COBR_CAUC_BIC  INDUSTRIA E COMERCIO AUTO REIS LTDA     032516544000105NAFIL AUTO PECAS LTDA                   AV PRESBITERIANA N464                   VOLTA REDONDA                           27281510RJ29408000010223025238658/04E   27042011014RIO DE JANEIRO      2508201100000000000135204CC                                                                                                                                                                                                                                                                                                                                                                                           139600-21     000022
1018421019169COBR_CAUC_COR  INDUSTRIA E COMERCIO AUTO REIS LTDA     004547155000101AUTO ROYAL LTDA.                        AV.JOSE R.DE JESUS,120                  CARUARU                                 55024000PE29409000010223711739617/04E   30042011600HSBC BANK BRASIL    2808201100000000000138654CC                                                                                                                                                                                                                                                                                                                                                                                           139600-22     000023
1018421019169COBR_CAUC_COR  INDUSTRIA E COMERCIO AUTO REIS LTDA     006225580000100RETIFICA MUNDIAL DE BARRETOS LTDA       RUA 30 NR 140                           BARRETOS                                14780615SP29410000010223107138794/04E   27042011600HSBC BANK BRASIL    2508201100000000000140700CC                                                                                                                                                                                                                                                                                                                                                                                           139600-23     000024
1018421019169COBR_CAUC_BIC  INDUSTRIA E COMERCIO AUTO REIS LTDA     000012249645191ANTONIO CARLOS MACHADO E SILVA          PCA GAL JOAQUIM XAVIER CURADO N100      GOIANIA                                 74075270GO29411000010222947538700/04E   27042011018GOIANIA             2508201100000000000141250CC                                                                                                                                                                                                                                                                                                                                                                                           139600-24     000025
1018421019169COBR_CAUC_BIC  INDUSTRIA E COMERCIO AUTO REIS LTDA     007223417000162A.L.S DE ALENCAR COMERCIO               AV BARAO GURGUEIA 3920                  TERESINA                                64018500PI29412000010223000738764/05E   27042011041TERESINA            1008201100000000000154501CC                                                                                                                                                                                                                                                                                                                                                                                           139600-25     000026
1018421019169COBR_CAUC_COR  INDUSTRIA E COMERCIO AUTO REIS LTDA     065339822000147AUTO PECAS SAO LUCAS LTDA               RUA CEL VIDAL N455                      JUIZ DE FORA                            36080080MG29413000010222896738903/04E   27042011600HSBC BANK BRASIL    2508201100000000000157000CC                                                                                                                                                                                                                                                                                                                                                                                           139600-26     000027
1018421019169COBR_CAUC_COR  INDUSTRIA E COMERCIO AUTO REIS LTDA     082563339000160MANOEL SALVATO PEREIRA                  R.ANTONIO BERTONCINI,401                ARARANGUA                               88900000SC29414000010223322739145/04E   28042011900BRADESCO S/A        2608201100000000000175000CC                                                                                                                                                                                                                                                                                                                                                                                           139600-27     000028
1018421019169COBR_CAUC_BIC  INDUSTRIA E COMERCIO AUTO REIS LTDA     001608488000954HOHL MAQUINAS AGRICOLAS LTDA.           R DOS MISSIONARIOS NR 81                GOIANIA                                 74430360GO29415000010231411151462/02E   17062011018GOIANIA             1608201100000000000101297CC                                                                                                                                                                                                                                                                                                                                                                                           139600-28     000029
1018421019169COBR_CAUC_BIC  INDUSTRIA E COMERCIO AUTO REIS LTDA     001608488000954HOHL MAQUINAS AGRICOLAS LTDA.           R DOS MISSIONARIOS NR 81                GOIANIA                                 74430360GO29415000020231413851462/03E   17062011018GOIANIA             1509201100000000000101297CC                                                                                                                                                                                                                                                                                                                                                                                           139600-29     000030
1018421019169COBR_CAUC_COR  INDUSTRIA E COMERCIO AUTO REIS LTDA     003929152000161RETIFICA PONTUAL LTDA ME                AV ZEZINHO HORACIO N800                 MONTES CLAROS                           39402669MG29416000010222904138815/05E   27042011600HSBC BANK BRASIL    2508201100000000000102400CC                                                                                                                                                                                                                                                                                                                                                                                           139600-30     000031
1018421019169COBR_CAUC_COR  INDUSTRIA E COMERCIO AUTO REIS LTDA     003929152000161RETIFICA PONTUAL LTDA ME                AV ZEZINHO HORACIO N800                 MONTES CLAROS                           39402669MG29416000020222906838815/04E   27042011600HSBC BANK BRASIL    1008201100000000000102400CC                                                                                                                                                                                                                                                                                                                                                                                           139600-31     000032
1018421019169COBR_CAUC_COR  INDUSTRIA E COMERCIO AUTO REIS LTDA     003439423000109MILVOLTS PECAS LTDA. ME                 RUA GUANABARA N97                       IMPERATRIZ                              65903380MA29417000010229060347933/02E   06062011600HSBC BANK BRASIL    0508201100000000000103815CC                                                                                                                                                                                                                                                                                                                                                                                           139600-32     000033
1018421019169COBR_CAUC_COR  INDUSTRIA E COMERCIO AUTO REIS LTDA     003439423000109MILVOLTS PECAS LTDA. ME                 RUA GUANABARA N97                       IMPERATRIZ                              65903380MA29417000020229061147933/03E   06062011600HSBC BANK BRASIL    0409201100000000000103815CC                                                                                                                                                                                                                                                                                                                                                                                           139600-33     000034
1018421019169COBR_CAUC_COR  INDUSTRIA E COMERCIO AUTO REIS LTDA     070965991000122AUTO MELOPECAS LTDA.                    R 7 SETEMBRO,3059                       GOVERNADOR VALA                         35010173MG29418000010229403048060/02E   07062011600HSBC BANK BRASIL    0608201100000000000104500CC                                                                                                                                                                                                                                                                                                                                                                                           139600-34     000035
1018421019169COBR_CAUC_COR  INDUSTRIA E COMERCIO AUTO REIS LTDA     070965991000122AUTO MELOPECAS LTDA.                    R 7 SETEMBRO,3059                       GOVERNADOR VALA                         35010173MG29418000020229404848060/03E   07062011600HSBC BANK BRASIL    0509201100000000000104500CC                                                                                                                                                                                                                                                                                                                                                                                           139600-35     000036
1018421019169COBR_CAUC_BIC  INDUSTRIA E COMERCIO AUTO REIS LTDA     057622326000178RETIFICADORA DE MOTORES SUZANO LTD      RUA CARLOS R FARIAS N25                 SUZANO                                  08610110SP29419000010223613739393/04E   29042011007PAULISTA            2708201100000000000210500CC                                                                                                                                                                                                                                                                                                                                                                                           139600-36     000037
1018421019169COBR_CAUC_BIC  INDUSTRIA E COMERCIO AUTO REIS LTDA     002494005000143EMPREEDIMENTOS EDUCACIONAIS DIAS L      R AMELIO QD 6 LT 2/3/11/12              GOIANIA                                 74333150GO29420000010231450251507/03E   17062011018GOIANIA             1509201100000000000106666CC                                                                                                                                                                                                                                                                                                                                                                                           139600-37     000038
1018421019169COBR_CAUC_BIC  INDUSTRIA E COMERCIO AUTO REIS LTDA     002494005000143EMPREEDIMENTOS EDUCACIONAIS DIAS L      R AMELIO QD 6 LT 2/3/11/12              GOIANIA                                 74333150GO29420000020231451151507/02E   17062011018GOIANIA             1608201100000000000106666CC                                                                                                                                                                                                                                                                                                                                                                                           139600-38     000039
1018421019169COBR_CAUC_COR  INDUSTRIA E COMERCIO AUTO REIS LTDA     004272208000110ADILSON AUTO PECAS ARACATUBA LTDA       RUA MARCILIO DIAS N401                  ARACATUBA                               16050190SP29421000010222934338268/04E   27042011600HSBC BANK BRASIL    2508201100000000000218001CC                                                                                                                                                                                                                                                                                                                                                                                           139600-39     000040
1018421019169COBR_CAUC_COR  INDUSTRIA E COMERCIO AUTO REIS LTDA     001920694000148FIORETUR TRANSPORTE E TURISMO LTDA      RUA 02 C/AV BRASIL N3 CXP30             SAO SIMAO                               75890000GO29422000010231401451395/02E   17062011900BRADESCO S/A        1608201100000000000114267CC                                                                                                                                                                                                                                                                                                                                                                                           139600-40     000041
1018421019169COBR_CAUC_COR  INDUSTRIA E COMERCIO AUTO REIS LTDA     001920694000148FIORETUR TRANSPORTE E TURISMO LTDA      RUA 02 C/AV BRASIL N3 CXP30             SAO SIMAO                               75890000GO29422000020231402251395/03E   17062011900BRADESCO S/A        1509201100000000000114267CC                                                                                                                                                                                                                                                                                                                                                                                           139600-41     000042
1018421019169COBR_CAUC_COR  INDUSTRIA E COMERCIO AUTO REIS LTDA     007306147000153GREGORIO AUTO PECAS LTDA - ME           AV TANC A NEVES N2363                   CORONEL FABRICI                         35170055MG29423000010223538639611/04E   30042011900BRADESCO S/A        2808201100000000000235000CC                                                                                                                                                                                                                                                                                                                                                                                           139600-42     000043
1018421019169COBR_CAUC_COR  INDUSTRIA E COMERCIO AUTO REIS LTDA     005970936000169PRATIADO COMERCIO DE PECAS E MECAN      AV IDEMAR RIEDI N9346 SL1/2             SORRISO                                 78890000MT29424000010223038438860/04E   27042011600HSBC BANK BRASIL    2508201100000000000251400CC                                                                                                                                                                                                                                                                                                                                                                                           139600-43     000044
1018421019169COBR_CAUC_COR  INDUSTRIA E COMERCIO AUTO REIS LTDA     034748137001201DISTRIBUIDORA DE AUTO PECAS RONDOB      RUA MAL RONDON L URBANO N457 Q62 S      OURO PRETO DO O                         76920000RO29425000010223390139183/06E   28042011600HSBC BANK BRASIL    1108201100000000000126571CC                                                                                                                                                                                                                                                                                                                                                                                           139600-44     000045
1018421019169COBR_CAUC_COR  INDUSTRIA E COMERCIO AUTO REIS LTDA     034748137001201DISTRIBUIDORA DE AUTO PECAS RONDOB      RUA MAL RONDON L URBANO N457 Q62 S      OURO PRETO DO O                         76920000RO29425000020223392839183/07E   28042011600HSBC BANK BRASIL    2608201100000000000126571CC                                                                                                                                                                                                                                                                                                                                                                                           139600-45     000046
1018421019169COBR_CAUC_COR  INDUSTRIA E COMERCIO AUTO REIS LTDA     005167800000115FAVARINI MOTORES LTDA EPP               R.SILVIO FAVARINI,10                    FORMIGA                                 35570000MG29426000010227292344650/04E   23052011600HSBC BANK BRASIL    2009201100000000000135000CC                                                                                                                                                                                                                                                                                                                                                                                           139600-46     000047
1018421019169COBR_CAUC_COR  INDUSTRIA E COMERCIO AUTO REIS LTDA     005167800000115FAVARINI MOTORES LTDA EPP               R.SILVIO FAVARINI,10                    FORMIGA                                 35570000MG29426000020227294044650/03E   23052011600HSBC BANK BRASIL    2108201100000000000135000CC                                                                                                                                                                                                                                                                                                                                                                                           139600-47     000048
1018421019169COBR_CAUC_BIC  INDUSTRIA E COMERCIO AUTO REIS LTDA     004205230000148N E N PECAS E SERVICOS LTDA ME          AV NORTE,5795 TERREO                    RECIFE                                  52070660PE29427000010222995538652/04E   27042011010RECIFE              2508201100000000000277877CC                                                                                                                                                                                                                                                                                                                                                                                           139600-48     000049
1018421019169COBR_CAUC_BIC  INDUSTRIA E COMERCIO AUTO REIS LTDA     065076846000150PORTO DE AREIA UNIAO LTDA-EPP           AV HOMERO NIGRO N951                    AMERICO BRASILI                         14820000SP29428000010229073548134/03E   06062011022RIBEIRAO PRETO      0409201100000000000170962CC                                                                                                                                                                                                                                                                                                                                                                                           139600-49     000050
1018421019169COBR_CAUC_BIC  INDUSTRIA E COMERCIO AUTO REIS LTDA     065076846000150PORTO DE AREIA UNIAO LTDA-EPP           AV HOMERO NIGRO N951                    AMERICO BRASILI                         14820000SP29428000020229074348134/02E   06062011022RIBEIRAO PRETO      0508201100000000000170962CC                                                                                                                                                                                                                                                                                                                                                                                           139600-50     000051
1018421019169COBR_CAUC_COR  INDUSTRIA E COMERCIO AUTO REIS LTDA     004204556000150UNIARCOS PECAS E ACESSORIOS LTDA        ROD BR354 KM476 N20                     ARCOS                                   35588000MG29429000010230470150497/03E   14062011900BRADESCO S/A        1209201100000000000124150CC                                                                                                                                                                                                                                                                                                                                                                                           139600-51     000052
1018421019169COBR_CAUC_COR  INDUSTRIA E COMERCIO AUTO REIS LTDA     004204556000150UNIARCOS PECAS E ACESSORIOS LTDA        ROD BR354 KM476 N20                     ARCOS                                   35588000MG29429000020230472850497/04E   14062011900BRADESCO S/A        2709201100000000000124150CC                                                                                                                                                                                                                                                                                                                                                                                           139600-52     000053
1018421019169COBR_CAUC_COR  INDUSTRIA E COMERCIO AUTO REIS LTDA     004204556000150UNIARCOS PECAS E ACESSORIOS LTDA        ROD BR354 KM476 N20                     ARCOS                                   35588000MG29429000030230473650497/02E   14062011900BRADESCO S/A        1308201100000000000124150CC                                                                                                                                                                                                                                                                                                                                                                                           139600-53     000054
1018421019169COBR_CAUC_COR  INDUSTRIA E COMERCIO AUTO REIS LTDA     000341968000181RETIFICA DE MOTORES GRW LTDA            R RIO G. DO SUL ESQ. RIO BRANCO         CRISTALINA                              73850000GO29430000010223094538642/04E   27042011900BRADESCO S/A        2508201100000000000119000CC                                                                                                                                                                                                                                                                                                                                                                                           139600-54     000055
1018421019169COBR_CAUC_COR  INDUSTRIA E COMERCIO AUTO REIS LTDA     000341968000181RETIFICA DE MOTORES GRW LTDA            R RIO G. DO SUL ESQ. RIO BRANCO         CRISTALINA                              73850000GO29430000020229090548136/02E   06062011900BRADESCO S/A        0508201100000000000131343CC                                                                                                                                                                                                                                                                                                                                                                                           139600-55     000056
1018421019169COBR_CAUC_COR  INDUSTRIA E COMERCIO AUTO REIS LTDA     000341968000181RETIFICA DE MOTORES GRW LTDA            R RIO G. DO SUL ESQ. RIO BRANCO         CRISTALINA                              73850000GO29430000030229091348136/03E   06062011900BRADESCO S/A        0409201100000000000131343CC                                                                                                                                                                                                                                                                                                                                                                                           139600-56     000057
1018421019169COBR_CAUC_COR  INDUSTRIA E COMERCIO AUTO REIS LTDA     010754176000192UNIAO AUTO PECAS LTDA. ME               AV INGLATERRA N82                       PARAUAPEBAS                             68515000PA29431000010229504447912/03E   07062011900BRADESCO S/A        0509201100000000000127269CC                                                                                                                                                                                                                                                                                                                                                                                           139600-57     000058
1018421019169COBR_CAUC_COR  INDUSTRIA E COMERCIO AUTO REIS LTDA     010754176000192UNIAO AUTO PECAS LTDA. ME               AV INGLATERRA N82                       PARAUAPEBAS                             68515000PA29431000020229506147912/02E   07062011900BRADESCO S/A        0608201100000000000127269CC                                                                                                                                                                                                                                                                                                                                                                                           139600-58     000059
1018421019169COBR_CAUC_COR  INDUSTRIA E COMERCIO AUTO REIS LTDA     010754176000192UNIAO AUTO PECAS LTDA. ME               AV INGLATERRA N82                       PARAUAPEBAS                             68515000PA29431000030229507947912/04E   07062011900BRADESCO S/A        0510201100000000000127269CC                                                                                                                                                                                                                                                                                                                                                                                           139600-59     000060
1018421019169COBR_CAUC_COR  INDUSTRIA E COMERCIO AUTO REIS LTDA     005824688000148ABREU & GOMES LTDA                      AV.TRANSBRASILIANA,1125                 PARAISO DO TOCA                         77600000TO29432000010229099946870/04E   06062011600HSBC BANK BRASIL    0410201100000000000158501CC                                                                                                                                                                                                                                                                                                                                                                                           139600-60     000061
1018421019169COBR_CAUC_COR  INDUSTRIA E COMERCIO AUTO REIS LTDA     005824688000148ABREU & GOMES LTDA                      AV.TRANSBRASILIANA,1125                 PARAISO DO TOCA                         77600000TO29432000020229100646870/02E   06062011600HSBC BANK BRASIL    0508201100000000000158501CC                                                                                                                                                                                                                                                                                                                                                                                           139600-61     000062
1018421019169COBR_CAUC_COR  INDUSTRIA E COMERCIO AUTO REIS LTDA     005824688000148ABREU & GOMES LTDA                      AV.TRANSBRASILIANA,1125                 PARAISO DO TOCA                         77600000TO29432000030229102246870/03E   06062011600HSBC BANK BRASIL    0409201100000000000158501CC                                                                                                                                                                                                                                                                                                                                                                                           139600-62     000063
1018421019169COBR_CAUC_BIC  INDUSTRIA E COMERCIO AUTO REIS LTDA     069309706000136F N A TRANSPORTES LTDA                  CXP 1351                                PIRACICABA                              13405971SP29433000010229458748203/03E   07062011021CAMPINAS            0509201100000000000175009CC                                                                                                                                                                                                                                                                                                                                                                                           139600-63     000064
1018421019169COBR_CAUC_BIC  INDUSTRIA E COMERCIO AUTO REIS LTDA     069309706000136F N A TRANSPORTES LTDA                  CXP 1351                                PIRACICABA                              13405971SP29433000020229459548203/02E   07062011021CAMPINAS            0608201100000000000175009CC                                                                                                                                                                                                                                                                                                                                                                                           139600-64     000065
1018421019169COBR_CAUC_BIC  INDUSTRIA E COMERCIO AUTO REIS LTDA     069309706000136F N A TRANSPORTES LTDA                  CXP 1351                                PIRACICABA                              13405971SP29433000030229537148203/04E   07062011021CAMPINAS            0510201100000000000175009CC                                                                                                                                                                                                                                                                                                                                                                                           139600-65     000066
1018421019169COBR_CAUC_COR  INDUSTRIA E COMERCIO AUTO REIS LTDA     006218581000119HIDROPAR PROD.E SERVICOS AUTOMOTIV      AV ANGELO A.GASPARETTO,179              CHAPADAO DO SUL                         79560000MS29434000010223818139649/04E   30042011600HSBC BANK BRASIL    2808201100000000000186750CC                                                                                                                                                                                                                                                                                                                                                                                           139600-66     000067
1018421019169COBR_CAUC_COR  INDUSTRIA E COMERCIO AUTO REIS LTDA     006218581000119HIDROPAR PROD.E SERVICOS AUTOMOTIV      AV ANGELO A.GASPARETTO,179              CHAPADAO DO SUL                         79560000MS29434000020231408151644/03E   17062011600HSBC BANK BRASIL    1509201100000000000123386CC                                                                                                                                                                                                                                                                                                                                                                                           139600-67     000068
1018421019169COBR_CAUC_COR  INDUSTRIA E COMERCIO AUTO REIS LTDA     006218581000119HIDROPAR PROD.E SERVICOS AUTOMOTIV      AV ANGELO A.GASPARETTO,179              CHAPADAO DO SUL                         79560000MS29434000030231409051644/04E   17062011600HSBC BANK BRASIL    1510201100000000000123386CC                                                                                                                                                                                                                                                                                                                                                                                           139600-68     000069
1018421019169COBR_CAUC_COR  INDUSTRIA E COMERCIO AUTO REIS LTDA     006218581000119HIDROPAR PROD.E SERVICOS AUTOMOTIV      AV ANGELO A.GASPARETTO,179              CHAPADAO DO SUL                         79560000MS29434000040231410351644/02E   17062011600HSBC BANK BRASIL    1608201100000000000123386CC                                                                                                                                                                                                                                                                                                                                                                                           139600-69     000070
1018421019169COBR_CAUC_COR  INDUSTRIA E COMERCIO AUTO REIS LTDA     000852299000102RETIFICA MONTES CLAROS LTDA             DEP PLINIO RIBEIRO, 2121                MONTES CLAROS                           39401474MG29435000010225233741444/03E   09052011600HSBC BANK BRASIL    0708201100000000000243333CC                                                                                                                                                                                                                                                                                                                                                                                           139600-70     000071
1018421019169COBR_CAUC_COR  INDUSTRIA E COMERCIO AUTO REIS LTDA     000852299000102RETIFICA MONTES CLAROS LTDA             DEP PLINIO RIBEIRO, 2121                MONTES CLAROS                           39401474MG29435000020229388248490/03E   07062011600HSBC BANK BRASIL    0509201100000000000114250CC                                                                                                                                                                                                                                                                                                                                                                                           139600-71     000072
1018421019169COBR_CAUC_COR  INDUSTRIA E COMERCIO AUTO REIS LTDA     000852299000102RETIFICA MONTES CLAROS LTDA             DEP PLINIO RIBEIRO, 2121                MONTES CLAROS                           39401474MG29435000030229390448490/02E   07062011600HSBC BANK BRASIL    0608201100000000000114250CC                                                                                                                                                                                                                                                                                                                                                                                           139600-72     000073
1018421019169COBR_CAUC_COR  INDUSTRIA E COMERCIO AUTO REIS LTDA     000852299000102RETIFICA MONTES CLAROS LTDA             DEP PLINIO RIBEIRO, 2121                MONTES CLAROS                           39401474MG29435000040229391248490/04E   07062011600HSBC BANK BRASIL    2009201100000000000114250CC                                                                                                                                                                                                                                                                                                                                                                                           139600-73     000074
1018421019169COBR_CAUC_COR  INDUSTRIA E COMERCIO AUTO REIS LTDA     041781352000109GUADALAJARA TURBO DIESEL LTDA ME        AV MARIA C AMORIM 90                    ARCOS                                   35588000MG29436000010229381548466/03E   07062011900BRADESCO S/A        0509201100000000000195500CC                                                                                                                                                                                                                                                                                                                                                                                           139600-74     000075
1018421019169COBR_CAUC_COR  INDUSTRIA E COMERCIO AUTO REIS LTDA     041781352000109GUADALAJARA TURBO DIESEL LTDA ME        AV MARIA C AMORIM 90                    ARCOS                                   35588000MG29436000020229382348466/04E   07062011900BRADESCO S/A        0510201100000000000195500CC                                                                                                                                                                                                                                                                                                                                                                                           139600-75     000076
1018421019169COBR_CAUC_COR  INDUSTRIA E COMERCIO AUTO REIS LTDA     041781352000109GUADALAJARA TURBO DIESEL LTDA ME        AV MARIA C AMORIM 90                    ARCOS                                   35588000MG29436000030229384048466/02E   07062011900BRADESCO S/A        0608201100000000000195500CC                                                                                                                                                                                                                                                                                                                                                                                           139600-76     000077
1018421019169COBR_CAUC_COR  INDUSTRIA E COMERCIO AUTO REIS LTDA     010600342000104RETIMAQ RETIFICA DE MOT PROD E SER      R BRASIL N1136                          CHAPADAO DO SUL                         79560000MS29437000010225110141224/03E   09052011600HSBC BANK BRASIL    0708201100000000000191625CC                                                                                                                                                                                                                                                                                                                                                                                           139600-77     000078
1018421019169COBR_CAUC_COR  INDUSTRIA E COMERCIO AUTO REIS LTDA     010600342000104RETIMAQ RETIFICA DE MOT PROD E SER      R BRASIL N1136                          CHAPADAO DO SUL                         79560000MS29437000020225112841367/03E   09052011600HSBC BANK BRASIL    0708201100000000000102833CC                                                                                                                                                                                                                                                                                                                                                                                           139600-78     000079
1018421019169COBR_CAUC_COR  INDUSTRIA E COMERCIO AUTO REIS LTDA     010600342000104RETIMAQ RETIFICA DE MOT PROD E SER      R BRASIL N1136                          CHAPADAO DO SUL                         79560000MS29437000030225113641224/04E   09052011600HSBC BANK BRASIL    0609201100000000000191625CC                                                                                                                                                                                                                                                                                                                                                                                           139600-79     000080
1018421019169COBR_CAUC_COR  INDUSTRIA E COMERCIO AUTO REIS LTDA     010600342000104RETIMAQ RETIFICA DE MOT PROD E SER      R BRASIL N1136                          CHAPADAO DO SUL                         79560000MS29437000040229162648000/02E   06062011600HSBC BANK BRASIL    0508201100000000000122009CC                                                                                                                                                                                                                                                                                                                                                                                           139600-80     000081
1018421019169COBR_CAUC_COR  INDUSTRIA E COMERCIO AUTO REIS LTDA     010600342000104RETIMAQ RETIFICA DE MOT PROD E SER      R BRASIL N1136                          CHAPADAO DO SUL                         79560000MS29437000050229163448000/03E   06062011600HSBC BANK BRASIL    0409201100000000000122009CC                                                                                                                                                                                                                                                                                                                                                                                           139600-81     000082
1018421019169COBR_CAUC_COR  INDUSTRIA E COMERCIO AUTO REIS LTDA     000007079884624SAMUEL ANDRADE BATISTA                  AV DR.PAULO ROSA N307                   UBERABA                                 38040090MG29438000010234098855842/04E   06072011600HSBC BANK BRASIL    0311201100000000000258001CC                                                                                                                                                                                                                                                                                                                                                                                           139600-82     000083
1018421019169COBR_CAUC_COR  INDUSTRIA E COMERCIO AUTO REIS LTDA     000007079884624SAMUEL ANDRADE BATISTA                  AV DR.PAULO ROSA N307                   UBERABA                                 38040090MG29438000020234099655842/03E   06072011600HSBC BANK BRASIL    0410201100000000000258001CC                                                                                                                                                                                                                                                                                                                                                                                           139600-83     000084
1018421019169COBR_CAUC_COR  INDUSTRIA E COMERCIO AUTO REIS LTDA     000007079884624SAMUEL ANDRADE BATISTA                  AV DR.PAULO ROSA N307                   UBERABA                                 38040090MG29438000030234100355842/02E   06072011600HSBC BANK BRASIL    0409201100000000000258001CC                                                                                                                                                                                                                                                                                                                                                                                           139600-84     000085
1018421019169COBR_CAUC_COR  INDUSTRIA E COMERCIO AUTO REIS LTDA     000007079884624SAMUEL ANDRADE BATISTA                  AV DR.PAULO ROSA N307                   UBERABA                                 38040090MG29438000040234101155842/01E   06072011600HSBC BANK BRASIL    0508201100000000000257998CC                                                                                                                                                                                                                                                                                                                                                                                           139600-85     000086
1018421019169COBR_CAUC_COR  INDUSTRIA E COMERCIO AUTO REIS LTDA     001000924000150MAIKINIKI DIST.DE AUTO PECAS LTDA       RUA DAS NACOES,121                      BELFORD ROXO                            26120200RJ29439000010223648039534/04E   29042011900BRADESCO S/A        2708201100000000001545426CC                                                                                                                                                                                                                                                                                                                                                                                           139600-86     000087
1018421019169COBR_CAUC_COR  INDUSTRIA E COMERCIO AUTO REIS LTDA     001000924000150MAIKINIKI DIST.DE AUTO PECAS LTDA       RUA DAS NACOES,121                      BELFORD ROXO                            26120200RJ29439000020223650139534/05E   29042011900BRADESCO S/A        2609201100000000001545426CC                                                                                                                                                                                                                                                                                                                                                                                           139600-87     000088
1016421017027DIR_CREDIT     SERVICOS E TRANSPORTES SOLEVANTE LT     056643018000247EUCATEX S/A IND E COM                   AV JUCELINO KUBTSCHEK, 1830 V. OLIMPIA  SAO PAULO                               04543900SP2944000001                                                                                                                                          001114931           010720090000015709SN          10112010001213Prestação de serviços de mão de obra e equipamentos próprios, serviços de recepção, armazenamento e movimentação de toras, resíduos e cavacos de madeira.                                                                                       077513513000120139600-88     000089
9000088                                                                                                                                                                                                                                                                                                                                                                                                                                                                                                                                                                                                                                                                                                               000090
