0REMESSANOTIFICAÇÃO ELETRONICA        99999999999999Bicbanco S/A                            Avenida Brigadeiro Faria Lima           4.440     2º andar  Itaim Bibi                    São Paulo                     04538132SPBicbanco S/A                                                                    09022015                                                                                                                                                                                                                                                                                                                                                                                                000001
1028421001518COBR_CAUC_COR  GAIA AGRIBUSINESS AGRICOLA LTDA         000013370952149ALAER LUIZ MARQUES                      RUA MARANHAO ,791                       GOIATUBA                                75600000GO50590000010314564163820       19012015600HSBC BANK BRASIL    2507201500000000023259600CC                                                                                                                                                                                                                                                                                                                                                                                           344394-1      000002
1010421024356COBR_CAUC_COR  DIST EQUADOR DE PROD PETROLEO LTDA      001362266000147TRANSGLOBAL SERVICOS LTDA               AV ABIURANA, 2351                       MANAUS                                  69075010AM506080000100131956141011-001  04022015900BRADESCO S/A        1902201500000000017500000CC                                                                                                                                                                                                                                                                                                                                                                                           345484-1      000003
1014421025163DIR_CREDIT     REALMAR DISTRIBUIDORA LTDA              027406222000165DACASA FINANCEIRA S/A - SCFI            AV NOSSA SENHORA DA PENHA 2035          VITORIA                                 29056245ES5058300001                                                                                                                                          012707200           020720040000024113S/NR        27012015000403Filiação do estabelecimento ao sistema Dacasa de cartões de crédito.                                                                                                                                                                            003845717000122345487-1      000004
1046421006070DIR_CREDIT     METALURGICA DS LTDA                     060857349000176TRW AUTOMOTIVE LTDA                     VIA ANHANGUERA KM 147                   LIMEIRA                                 13486915SP5059100001                                                                                                                                          012737213           260320070000018698            30012015000404fornecimento de discos e tambores de freio para automóveis.                                                                                                                                                                                     079414868000198345487-2      000005
1046421006070DIR_CREDIT     METALURGICA DS LTDA                     060857349000176TRW AUTOMOTIVE LTDA                     VIA ANHANGUERA KM 147                   LIMEIRA                                 13486915SP5060700001                                                                                                                                          012738376           260320070000018698            03022015000404fornecimento de discos e tambores de freio para automóveis.                                                                                                                                                                                     079414868000198345487-3      000006
1016421019267COBR_CAUC_BIC  COBRAZEM AGROINDUSTRIAL LTDA            084874726000496KAEFER AGRO INDUSTRIAL                  ROD BR 467, KM 03,0-CX POSTAL 227       CASCAVEL                                85802970PR5061400001049321430069485-1   03022015016CURITIBA            0503201500000000055550000CC                                                                                                                                                                                                                                                                                                                                                                                           345487-4      000007
1022421007525COBR_CAUC_COR  D. CENTER DISTRIBUIDORA LTDA            079430682000122FCIA E DROG NISSEI S A                  R XV DE NOVEMBRO, 123 LJ02              CURITIBA                                80020310PR50615000010261639310023399    29012015900BRADESCO S/A        2904201500000000036570934CC                                                                                                                                                                                                                                                                                                                                                                                           345487-5      000008
1049421004706COBR_CAUC_COR  COOPERATIVA AGROINDUSTRIAL SALTO VE     000029614996900AURI SCHOELER                           LINHA SEDE CAPELA ,0                    ITAPIRANGA                              89896000SC50616000010047940523029.2A    18122014700BANCO REAL- ABN AMRO1003201500000000027375000CC                                                                                                                                                                                                                                                                                                                                                                                           345487-6      000009
1049421004706COBR_CAUC_COR  COOPERATIVA AGROINDUSTRIAL SALTO VE     000029614996900AURI SCHOELER                           LINHA SEDE CAPELA ,0                    ITAPIRANGA                              89896000SC50616000020047941323029.1B    18122014700BANCO REAL- ABN AMRO2302201500000000027375000CC                                                                                                                                                                                                                                                                                                                                                                                           345487-7      000010
1049421004706COBR_CAUC_COR  COOPERATIVA AGROINDUSTRIAL SALTO VE     000029614996900AURI SCHOELER                           LINHA SEDE CAPELA ,0                    ITAPIRANGA                              89896000SC50616000030047942123029.1A    18122014700BANCO REAL- ABN AMRO2002201500000000027375000CC                                                                                                                                                                                                                                                                                                                                                                                           345487-8      000011
1021421017050COBR_CAUC_BIC  STAR DISTR PROD FARMACEUTICOS LTDA      010877246000108DISLAB COMERCIAL FARMACEUTICA LTDA      RUA GENERAL AUGUSTO SOARES DOS SANTOS, 2RIBEIRAO PRETO                          14095240SP5061700001000100290000490501  04022015022RIBEIRAO PRETO      0504201500000000017947101CC                                                                                                                                                                                                                                                                                                                                                                                           345487-9      000012
1021421017050COBR_CAUC_BIC  STAR DISTR PROD FARMACEUTICOS LTDA      061585865073701RAIA DROGASIL S/A                       RUA PATAXOS , 1412                      EMBU                                    06833073SP5061800001000101180000491301  05022015007PAULISTA            1902201500000000046850739CC                                                                                                                                                                                                                                                                                                                                                                                           345487-10     000013
1041421009753DIR_CREDIT     B CIRILO ALBINO & CIA LTDA              062895230000113CREDI SHOP                              AV FREI SERAFIM, 2648                   TERESINA-PI                             64001020PI5062400001                                                                                                                                          012655126           300420130000024153            26082014051902repasse de valores decorrentes de transações realizadas com o Cartão CREDI SHOP.                                                                                                                                                                063347397000102345487-11     000014
9000013                                                                                                                                                                                                                                                                                                                                                                                                                                                                                                                                                                                                                                                                                                               000015
