0REMESSANOTIFICAÇÃO ELETRONICA        99999999999999Bicbanco S/A                            Avenida Brigadeiro Faria Lima           4.440     2º andar  Itaim Bibi                    São Paulo                     04538132SPBicbanco S/A                                                                    03092014                                                                                                                                                                                                                                                                                                                                                                                                000001
1031421012447COBR_CAUC_COR  AGRICOLA JANDELLE S/A                   004641376007300SUPERMERCADOS BH COMERCIO DE ALIME      AVENIDA GERALDO ROCHA 200               CONTAGEM                                32183054MG4894800001030016420015547401  27082014900BRADESCO S/A        2609201400000000011137708CC                                                                                                                                                                                                                                                                                                                                                                                           318998-1      000002
1028421001518COBR_CAUC_COR  GAIA AGRIBUSINESS AGRICOLA LTDA         000064140130130VINICIUS VIEIRA LOPES                   RUA RIO NEGRO,196-CXA POSTAL 26         GOIATUBA                                75600000GO48949000010303640155551       27082014600HSBC BANK BRASIL    2012201400000000011932000CC                                                                                                                                                                                                                                                                                                                                                                                           318998-2      000003
1028421001518COBR_CAUC_COR  GAIA AGRIBUSINESS AGRICOLA LTDA         000082255210134CRISTIANO LOPES ARANTES                 RUA URUGUAI,85                          ITUMBIARA                               75503970GO48950000010303641955550       27082014800UNIBANCO S/A        2512201400000000019586000CC                                                                                                                                                                                                                                                                                                                                                                                           318998-3      000004
1021421017352COBR_CAUC_BIC  STAR DISTR PROD FARMACEUTICOS LTDA      061585865073701RAIA DROGASIL S/A                       RUA PATAXOS , 1412                      EMBU                                    06833073SP4895100001000007320000385601  25082014007PAULISTA            0809201400000000029003937CC                                                                                                                                                                                                                                                                                                                                                                                           318998-4      000005
1021421017352COBR_CAUC_BIC  STAR DISTR PROD FARMACEUTICOS LTDA      061585865073701RAIA DROGASIL S/A                       RUA PATAXOS , 1412                      EMBU                                    06833073SP4895100002000007590000386301  25082014007PAULISTA            0809201400000000016230448CC                                                                                                                                                                                                                                                                                                                                                                                           318998-5      000006
1013421025768DIR_CREDIT     GD ENGENHARIA LTDA                      013927819000140PREF MUNICIPAL DE LAURO DE FREITAS      PÇA JOÃO TIAGO DOS SANTOS,S/N           LAURO DE FREITAS                        42700000BA4896400001                                                                                                                                          012651194           290820120000025648230/2012    27082014000404Execução de obras,serviço de Pavimentação de vias localizadas nos bair-ros Jambeiro, Capiarara, Jaiba E Areia Branca, denominado Poligonal I, no âmbi-to do Programa Pró Tranporte, no Município de Lauro de Freitas-BA.                        014994156000140318998-6      000007
1013421025768DIR_CREDIT     GD ENGENHARIA LTDA                      013927819000140PREF MUNICIPAL DE LAURO DE FREITAS      PÇA JOÃO TIAGO DOS SANTOS, S/N          LAURO DE FREITAS                        42700000BA4896500001                                                                                                                                          012651194           030920120000025654231/2012    27082014000404Execução de obra de construção do modelo da PEC para implantação do Complexo da Praça dos Esportes e da Cultura no Município de Lauro de Freitas-BA.                                                                                            014994156000140318998-7      000008
1013421025768DIR_CREDIT     GD ENGENHARIA LTDA                      013927819000140PREF MUNICIPAL DE LAURO DE FREITAS      PÇA JOÃO TIAGO DOS SANTOS, S/N          LAURO DE FREITAS                        42700000BA4896600001                                                                                                                                          012651194           051120120000025656275/2012    27082014000404Execução de serviços de obras das poligonais I e III(Lote 01), poligonais V, VI e IX ( Lote 02) e poligonais IV, XI e XII (Lote 03), no município de Lauro de Freitas.                                                                          014994156000140318998-8      000009
1041421009753DIR_CREDIT     B CIRILO ALBINO & CIA LTDA              062895230000113CREDI SHOP                              AV FREI SERAFIM, 2648                   TERESINA-PI                             64001020PI4894700001                                                                                                                                          012655126           300420130000024153            26082014000403repasse de valores decorrentes de transações realizadas com o Cartão CREDI SHOP.                                                                                                                                                                063347397000102319696-1      000010
1017421013995COBR_CAUC_BIC  COOP DE C AGROPEC E IND PINDORAMA       014366491000101ALCOOMAX COMERCIO DE ALCOOL AGUARD      RUA RUBENS FRANCISCO DIAS, 209          FEIRA DE SANTAN                         44059370AL4897000001025982814942/1      06082014017MACEIO              0310201400000000015015000CC                                                                                                                                                                                                                                                                                                                                                                                           319696-2      000011
1048421000338COBR_CAUC_COR  FRIGOESTRELA S.A. EM RECUP JUDICIAL     023439441001323ARMAZEM MATEUS S.A.                     AV ENGENHEIRO EMILIANO MACIEIRA DE      SAO LUIS                                65095602MA4897100001085955250116328201  27082014900BRADESCO S/A        2609201400000000017852250CC                                                                                                                                                                                                                                                                                                                                                                                           319696-3      000012
1046141000986COBR_CAUC_COR  COOPERATIVA DE EXTRACAO DE CARVAO M     083163576000105CARBONIFERA BELLUNO LTDA                ESTRADA GERAL RIO FIORITA,10            SIDEROPOLIS                             88860000SC4897200001024913315657-1/1    20082014700BANCO REAL- ABN AMRO2509201400000000100500000TD                                                                                                                                                                                                                                                                                                                                                                                           319696-4      000013
1021421017050COBR_CAUC_BIC  STAR DISTR PROD FARMACEUTICOS LTDA      061549259000180DROGARIA ONOFRE LTDA                    PRACA DA SE , 170                       SAO PAULO                               01001000SP4897300001000044440000387601  27082014007PAULISTA            0110201400000000022584452CC                                                                                                                                                                                                                                                                                                                                                                                           319696-5      000014
1023420932134DIR_CREDIT     TERMAQ TERRAPL.CONST.CIVIL ESC.LTDA     046177531000155PM DE PRAIA GRANDE                      AV PRESIDENTE KENNEDY 9000              PRAIA GRANDE                            11704900SP4897700001                                                                                                                                          012660920           081120100000017560126/10      26082014003901Execução de obras e serviços de engenharia visando a urbanização daavenida Presidente Kennedy, a Rua Gilberto Fouad Beck até a divisa do Municípiode Mongaguá.                                                                                  049957137000128319696-6      000015
1023420932134DIR_CREDIT     TERMAQ TERRAPL.CONST.CIVIL ESC.LTDA     047492806000108PREFEITURA MUNICIPAL DE CUBATÃO         PRAÇA DOS EMANCIPADORES S/N CENTRO      CUBATÃO                                 11510900SP4897800001                                                                                                                                          012571030           120420110000022255ADM 101/201128082014000404Execução de serviços de drenagem, pavimentação e acessibilidade em ruasdos bairros Centro, Vila Nova, Jardim Casqueiro, Vila Natal, Vila Esperança, Fabril, Pinheiro do Miranda, Caraguatá, Cotas,Vila dos Pescadores e Vl.São José             049957137000128319696-7      000016
1023420932134DIR_CREDIT     TERMAQ TERRAPL.CONST.CIVIL ESC.LTDA     046177531000155PREFEITURA MUNICIPAL DE PRAIA GRANDE    AV: PRESIDENTE KENNEDY N9000 VILA MIRIM PRAIA GRNADE                            11704900SP4897900001                                                                                                                                          012660920           091220110000022476246/11      26082014003901Locação de caminhões e máquinas com fornecimento de mão de obra ecombustível por hora produtiva, oriundo de procedimento licitatório modalidade Pregão 135/11, Registro de Preços no Processo 25.834/2011.                                      049957137000128319696-8      000017
1046421006070DIR_CREDIT     METALURGICA DS LTDA                     060857349000176TRW AUTOMOTIVE LTDA                     VIA ANHANGUERA KM 147                   LIMEIRA                                 13486915SP4899000001                                                                                                                                          012662787           260320070000018698            28082014000404fornecimento de discos e tambores de freio para automóveis.                                                                                                                                                                                     079414868000198319696-9      000018
1021420930887COBR_CAUC_COR  DEDINI S/A INDUSTRIAS DE BASE           043619832001760BRANCO PERES ACUCAR E ALCOOL SA         ROD DR PLACIDO ROCHA KM 19,6 S N LAGOA SADAMANTINA                              17800000SP489920000106589193265129-4-4  28082014900BRADESCO S/A        3011201400000000011956258CC                                                                                                                                                                                                                                                                                                                                                                                           319697-1      000019
1015421010253COBR_CAUC_COR  MUNDIAL S/A PRODUTOS DE CONSUMO         066471517000177DPC DISTRIBUIDOR ATACADISTA S A         AV. AUREA CARLOS LEITE DE MATOS KM1,8 S CARATINGA                               35303136MG4899300001013572345800978301  28082014900BRADESCO S/A        2611201400000000018144000CC                                                                                                                                                                                                                                                                                                                                                                                           319697-2      000020
1007421072259COBR_CAUC_COR  BOMBRIL S/A                             008899849000401SPACE MINAS DISTRIBUIDORA LTDA          R JOAQUIM JOSE 1165                     CONTAGEM                                32013390MG4899400001032347451020085001  29082014900BRADESCO S/A        1909201400000000010009808CC                                                                                                                                                                                                                                                                                                                                                                                           319697-3      000021
1007421072259COBR_CAUC_COR  BOMBRIL S/A                             008899849000401SPACE MINAS DISTRIBUIDORA LTDA          R JOAQUIM JOSE 1165                     CONTAGEM                                32013390MG4899400002032347531020088001  29082014900BRADESCO S/A        1909201400000000010009808CC                                                                                                                                                                                                                                                                                                                                                                                           319697-4      000022
1007421072259COBR_CAUC_COR  BOMBRIL S/A                             011354833000177DISTR DE ALIMENTOS LEGACY LTDA ME       R NOE DE ANUNCIACAO PRADO 467           ITAUNA                                  35681296MG4899500001032346990062613001  28082014900BRADESCO S/A        1809201400000000010803531CC                                                                                                                                                                                                                                                                                                                                                                                           319697-5      000023
1007421065899COBR_CAUC_BIC  FORCE ONE IND E COM DE METAIS PLAST     001376079000112JOHNSON CONTROLS PS DO BRASIL LTDA      AV INDEPENDENCIA,2757                   SOROCABA                                18103000SP48996000010323342112053       27082014007PAULISTA            0212201400000000017690282CC                                                                                                                                                                                                                                                                                                                                                                                           319697-6      000024
1021421017050COBR_CAUC_BIC  STAR DISTR PROD FARMACEUTICOS LTDA      061585865073701RAIA DROGASIL S/A                       RUA PATAXOS , 1412                      EMBU                                    06833073SP4899700001000044950000388301  28082014007PAULISTA            2710201400000000015178876CC                                                                                                                                                                                                                                                                                                                                                                                           319697-7      000025
1021421017050COBR_CAUC_BIC  STAR DISTR PROD FARMACEUTICOS LTDA      061585865073701RAIA DROGASIL S/A                       RUA PATAXOS , 1412                      EMBU                                    06833073SP4899700002000045500000387801  27082014007PAULISTA            1009201400000000042026861CC                                                                                                                                                                                                                                                                                                                                                                                           319697-8      000026
1021421017050COBR_CAUC_BIC  STAR DISTR PROD FARMACEUTICOS LTDA      061585865073701RAIA DROGASIL S/A                       RUA PATAXOS , 1412                      EMBU                                    06833073SP4899700003000045920000389701  28082014007PAULISTA            1109201400000000012499355CC                                                                                                                                                                                                                                                                                                                                                                                           319697-9      000027
1021421017050COBR_CAUC_BIC  STAR DISTR PROD FARMACEUTICOS LTDA      061585865073701RAIA DROGASIL S/A                       RUA PATAXOS , 1412                      EMBU                                    06833073SP4899700004000046220000390001  29082014007PAULISTA            2810201400000000027699325CC                                                                                                                                                                                                                                                                                                                                                                                           319697-10     000028
1019421004658COBR_CAUC_COR  S/A ESTADO DE MINAS                     073312076000126SINDICATO I EXTRATIVAS O M P D P P      BERNARDO GUIMARAES 63 3 ANDAR           BELO HORIZONTE                          30140080MG4901600001013195892487362-1   31082014900BRADESCO S/A        3009201400000000012500000CC                                                                                                                                                                                                                                                                                                                                                                                           319778-1      000029
1021420930887COBR_CAUC_COR  DEDINI S/A INDUSTRIAS DE BASE           053009825000133USINA ALTA MOGIANA S A - ACUCAR E       ROD FABIO TALARICO, KM 89, S N ZONA RURASAO JOAQUIM DA                          14600000SP49017000010658922337424-2-2   29082014900BRADESCO S/A        1909201400000000010283091CC                                                                                                                                                                                                                                                                                                                                                                                           319778-2      000030
1018421034826COBR_CAUC_BIC  LACEL LATICINIOS CERES LTDA             023439441001323ARMAZEM MATEUS LTDA                     AV ENG.EMILIANO MACIEIRA, 5 - DEPOSITO  SAO LUIS                                65095602MA490180000103824130034783      29082014042SAO LUIS            0310201400000000013901100CC                                                                                                                                                                                                                                                                                                                                                                                           319778-3      000031
1048421002195COBR_CAUC_COR  SERVIMED COMERCIAL LTDA                 006161357000138CONDE NETO & CIA LTDA                   R CARAVELAS 65                          SAO JOSE DOS CA                         12238170SP49019000010223023112556423    29082014900BRADESCO S/A        1010201400000000014646226CC                                                                                                                                                                                                                                                                                                                                                                                           319778-4      000032
1050421000089COBR_CAUC_BIC  ATIVO ALIMENTOS EXP E IMP EIRELI        011596442003427CARVALHO E FERNANDES LTDA               AVE DEPUTADO PAULO FERRAZ 4888          TERESINA                                64078820PI490200000100603979270688/1    31082014042SAO LUIS            3009201400000000021082274CC                                                                                                                                                                                                                                                                                                                                                                                           319778-5      000033
9000032                                                                                                                                                                                                                                                                                                                                                                                                                                                                                                                                                                                                                                                                                                               000034
