0REMESSANOTIFICAÇÃO ELETRONICA        99999999999999Bicbanco S/A                            Avenida Brigadeiro Faria Lima           4.440     2º andar  Itaim Bibi                    São Paulo                     04538132SPBicbanco S/A                                                                    18032014                                                                                                                                                                                                                                                                                                                                                                                                000001
1048421000338COBR_CAUC_COR  FRIGOESTRELA S.A. EM RECUP JUDICIAL     050947761001871IRMAOS RUSSI LTDA                       RUA LUIS ALLI FARDYN SALA 03, 590       CAJAMAR                                 07750000SP4676300001077510780034066101  12032014900BRADESCO S/A        1204201400000000010137646CC                                                                                                                                                                                                                                                                                                                                                                                           290179-1      000002
1050421000089COBR_CAUC_BIC  ATIVO ALIMENTOS EXP E IMP EIRELI        008029696000352ESTIVAS NOVO PRADO LTDA                 AV VINTE DE JANEIRO 958                 RECIFE                                  51130120PE467640000100555648241983/1    12032014010RECIFE              1104201400000000021151900CC                                                                                                                                                                                                                                                                                                                                                                                           290179-2      000003
1015421021867COBR_CAUC_COR  COTRIJUI COOP AGROP & INDUSTRIAL        012464051000153BASTO MESQUITA DISTRIBUICAO E LOGI      RODOVIA BR 316 S/N                      BACABAL                                 65700970MA467650000100292139185015-1    12032014900BRADESCO S/A        1403201400000000013515000CC                                                                                                                                                                                                                                                                                                                                                                                           290179-3      000004
1007421067298COBR_CAUC_BIC  ATHENEE COMERCIO IMP E EXP LTDA         029744778000197IGREJA UNIVERSAL DO REINO DE DEUS       AV. JOAO DIAS,1800                      SAO PAULO                               04724002SP467660000100002142003431      06032014007PAULISTA            3004201400000000028004244CC                                                                                                                                                                                                                                                                                                                                                                                           290179-4      000005
1036421018985COBR_CAUC_BIC  PEEQFLEX INDUSTRIA E COMERCIO LTDA      073410326000837CERVEJARIA PETROPOLIS S/A               Rod Celso Garcia Cid, 1440Km 85         CAMBE                                   86185520PR4676700001059983466028087-01  13032014016CURITIBA            1004201400000000017577295CC                                                                                                                                                                                                                                                                                                                                                                                           290179-5      000006
1018421034869COBR_CAUC_COR  L ANNO IND E COM DE LATICINIOS LTDA     009040746000284DFB DIST D PROD FRIOS ALIMENTICIOS      RUA MARGINAL, 3 QUADRA J                PETROLINA                               56308460PE4676800001036291240010421     25022014600HSBC BANK BRASIL    2503201400000000010406333CC                                                                                                                                                                                                                                                                                                                                                                                           290179-6      000007
1018421034869COBR_CAUC_COR  L ANNO IND E COM DE LATICINIOS LTDA     009040746000284DFB DIST D PROD FRIOS ALIMENTICIOS      RUA MARGINAL, 3 QUADRA J                PETROLINA                               56308460PE4676800002036291320010421     25022014600HSBC BANK BRASIL    2503201400000000010406333CC                                                                                                                                                                                                                                                                                                                                                                                           290179-7      000008
1044421017920DIR_CREDIT     DHOSP DISTRIBUIDORA HOSPITALAR          012200259000165SEC ESTADO DE SAUDE - SESAU - ALAGOAS   RUA DUQUE DE CAXIAS,978                 CENTRO-MACEIO                           57036540AL4677700001                                                                                                                                          012514564           111220130000025526190/2013    06032014000404fornecimento de medicamentos destinados à Secretaria de Estado da Saúde                                                                                                                                                                         008076127000104290179-8      000009
1028421002921COBR_CAUC_COR  MATABOI ALIMENTOS S/A - EM REC.JUD.     010915021000190TOP ALTO PARTICIPACOES E COMERCIO       EST SAO JOAO CAXIAS PARTE, 99           SAO JOAO DE MER                         25515420RJ4677800001005462200038448501  13032014900BRADESCO S/A        1603201400000000022824541CC                                                                                                                                                                                                                                                                                                                                                                                           290357-1      000010
1028421002921COBR_CAUC_COR  MATABOI ALIMENTOS S/A - EM REC.JUD.     017745613000150SUPERMERCADO BAHAMAS LTDA               ROD BR-040KM, 780                       JUIZ DE FORA                            36092005MG4677900001005462030038448201  13032014900BRADESCO S/A        1204201400000000039668778CC                                                                                                                                                                                                                                                                                                                                                                                           290357-2      000011
1015421022340COBR_CAUC_COR  BORRACHAS VIPAL SA                      012931405000122INDUSTRIA DE PNEUS FREEDOM LTDA         AVENIDA AEROCLUBE, 1643                 CAMPINA GRANDE                          58411370PB467800000101239142047446601   11032014800UNIBANCO S/A        2603201400000000013958393CC                                                                                                                                                                                                                                                                                                                                                                                           290357-3      000012
1048421002195COBR_CAUC_COR  SERVIMED COMERCIAL LTDA                 025102146001493IRMAOS MATTAR E CIA LTDA                RUA ADIB CADAH 443                      TEOFILO OTONI                           37704429MG46781000010160340941810921    12032014900BRADESCO S/A        0904201400000000010117690CC                                                                                                                                                                                                                                                                                                                                                                                           290357-4      000013
1046421001109COBR_CAUC_BIC  C-PACK CREATIVE PACKAGING S/A           018459628000115BAYER S/A                               RUA DOMINGOS JORGE, 1.100               SAO PAULO                               04779900SP467820000102322335005803201   07032014007PAULISTA            1604201400000000012280100CC                                                                                                                                                                                                                                                                                                                                                                                           290357-5      000014
1031421011181COBR_CAUC_BIC  AGROIND IRMAOS DALLA COSTA LTDA         007427095000173MHM DISTRIBUIDORA DE ALIMENTOS LTD      RUA OLIMPIA DE CAMPOS00088              SAO GONCALO                             24756660RJ46783000010537191932020/1     13032014014RIO DE JANEIRO      1004201400000000015795000CC                                                                                                                                                                                                                                                                                                                                                                                           290357-6      000015
1015421019927COBR_CAUC_BIC  BELSUL IND. E COM DE MAT. PRIMAS LT     008748013000155COMPOLIMEROS IND E IMPORT DE PLAST      RUA DR LUIZ CARLOS,78                   SAO PAULO                               03405100SP46784000010123842110390-01    14032014007PAULISTA            1104201400000000014238000CC                                                                                                                                                                                                                                                                                                                                                                                           290357-7      000016
1015421019927COBR_CAUC_BIC  BELSUL IND. E COM DE MAT. PRIMAS LT     060822079000168TWILTEX INDUSTRIAS TEXTEIS LTDA         AV JOAO PAULO,555                       EMBU                                    06818902SP46785000010123844810373-01    13032014007PAULISTA            2004201400000000010846377CC                                                                                                                                                                                                                                                                                                                                                                                           290357-8      000017
1007421059295COBR_CAUC_BIC  PARAMOUNT TEXTEIS IND E COM S.A.        047100110010909VIA VENETO ROUPAS LT                    AV OCTALLES MARCONDES FERREIRA 390 GAL ASAO PAULO                               04696010SP4678600001027284260051521/01  14032014007PAULISTA            1504201400000000023489079CC                                                                                                                                                                                                                                                                                                                                                                                           290357-9      000018
1007421059295COBR_CAUC_BIC  PARAMOUNT TEXTEIS IND E COM S.A.        047100110010909VIA VENETO ROUPAS LT                    AV OCTALLES MARCONDES FERREIRA 390 GAL ASAO PAULO                               04696010SP4678600002027284340051521/02  14032014007PAULISTA            1505201400000000023489078CC                                                                                                                                                                                                                                                                                                                                                                                           290357-10     000019
9000018                                                                                                                                                                                                                                                                                                                                                                                                                                                                                                                                                                                                                                                                                                               000020
