0REMESSANOTIFICAÇÃO ELETRONICA        99999999999999Bicbanco S/A                            Avenida Brigadeiro Faria Lima           4.440     2º andar  Itaim Bibi                    São Paulo                     04538132SPBicbanco S/A                                                                    23102014                                                                                                                                                                                                                                                                                                                                                                                                000001
1050421000089COBR_CAUC_BIC  ATIVO ALIMENTOS EXP E IMP EIRELI        011596442003427CARVALHO E FERNANDES LTDA               AVE DEPUTADO PAULO FERRAZ 4888          TERESINA                                64078820PI499310000100616493279014/1    17102014042SAO LUIS            1611201400000000016823529CC                                                                                                                                                                                                                                                                                                                                                                                           329073-1      000002
1007421035337COBR_CAUC_COR  COMERCIAL IMP.E EXP.CANTAREIRA LTDA     002105874000139REDE SUPER LTDA                         EST BR 392, 4399                        SANTA MARIA                             97070160RS499320000103369471122067001   17102014700BANCO REAL- ABN AMRO1411201400000000010146765CC                                                                                                                                                                                                                                                                                                                                                                                           329073-2      000003
1007421035337COBR_CAUC_BIC  COMERCIAL IMP.E EXP.CANTAREIRA LTDA     006222792000125NOVA COQUEIRO DE ALIMENTOS LTDA         AV BRASIL, 19001                        RIO DE JANEIRO                          21530000RJ499330000103369454122056001   17102014014RIO DE JANEIRO      1411201400000000018500370CC                                                                                                                                                                                                                                                                                                                                                                                           329073-3      000004
1028421001518COBR_CAUC_COR  GAIA AGRIBUSINESS AGRICOLA LTDA         000054778751191FABIO FERNANDES DA SILVA E OUTROS       RUA TEFE,840                            GOIATUBA                                75600000GO49934000010307011156986       17102014600HSBC BANK BRASIL    1812201400000000016380000CC                                                                                                                                                                                                                                                                                                                                                                                           329073-4      000005
1043421010006COBR_CAUC_COR  ELFA MEDICAMENTOS LTDA                  060961968000106FUNDACAO ANTONIO PRUDENTE               RUA PROFESSOR ANTONIO PRUDENTE          SAO PAULO                               01509010SP499350000100120125000064144   17102014900BRADESCO S/A        1612201400000000016376004CC                                                                                                                                                                                                                                                                                                                                                                                           329073-5      000006
1046421006070DIR_CREDIT     METALURGICA DS LTDA                     060857349000176TRW AUTOMOTIVE LTDA                     VIA ANHANGUERA KM 147                   LIMEIRA                                 13486915SP4993800001                                                                                                                                          012694743           260320070000018698            20102014000404fornecimento de discos e tambores de freio para automóveis.                                                                                                                                                                                     079414868000198329162-1      000007
1007421076122COBR_CAUC_COR  BMC HYUNDAI S.A                         012802557000125DESTAQUE TERRAPLENAGEM LTDA             RUA GUAIRA,1774                         CACOAL                                  76967482RO49939000010337567503043435E   24072014700BANCO REAL- ABN AMRO1502201500000000011200000CC                                                                                                                                                                                                                                                                                                                                                                                           329162-2      000008
1007421076122COBR_CAUC_COR  BMC HYUNDAI S.A                         012802557000125DESTAQUE TERRAPLENAGEM LTDA             RUA GUAIRA,1774                         CACOAL                                  76967482RO49939000020337568303043435J   24072014700BANCO REAL- ABN AMRO1507201500000000011200000CC                                                                                                                                                                                                                                                                                                                                                                                           329162-3      000009
1007421076122COBR_CAUC_COR  BMC HYUNDAI S.A                         012802557000125DESTAQUE TERRAPLENAGEM LTDA             RUA GUAIRA,1774                         CACOAL                                  76967482RO49939000030337569103043435H   24072014700BANCO REAL- ABN AMRO1505201500000000011200000CC                                                                                                                                                                                                                                                                                                                                                                                           329162-4      000010
1007421076122COBR_CAUC_COR  BMC HYUNDAI S.A                         012802557000125DESTAQUE TERRAPLENAGEM LTDA             RUA GUAIRA,1774                         CACOAL                                  76967482RO49939000040337570503043435I   24072014700BANCO REAL- ABN AMRO1506201500000000011200000CC                                                                                                                                                                                                                                                                                                                                                                                           329162-5      000011
1007421076122COBR_CAUC_COR  BMC HYUNDAI S.A                         012802557000125DESTAQUE TERRAPLENAGEM LTDA             RUA GUAIRA,1774                         CACOAL                                  76967482RO49939000050337571303043435G   24072014700BANCO REAL- ABN AMRO1504201500000000011200000CC                                                                                                                                                                                                                                                                                                                                                                                           329162-6      000012
1007421076122COBR_CAUC_COR  BMC HYUNDAI S.A                         012802557000125DESTAQUE TERRAPLENAGEM LTDA             RUA GUAIRA,1774                         CACOAL                                  76967482RO49939000060337572103043435F   24072014700BANCO REAL- ABN AMRO1503201500000000011200000CC                                                                                                                                                                                                                                                                                                                                                                                           329162-7      000013
1007421076122COBR_CAUC_COR  BMC HYUNDAI S.A                         012802557000125DESTAQUE TERRAPLENAGEM LTDA             RUA GUAIRA,1774                         CACOAL                                  76967482RO49939000070337573003043435B   24072014700BANCO REAL- ABN AMRO1511201400000000011200000CC                                                                                                                                                                                                                                                                                                                                                                                           329162-8      000014
1007421076122COBR_CAUC_COR  BMC HYUNDAI S.A                         012802557000125DESTAQUE TERRAPLENAGEM LTDA             RUA GUAIRA,1774                         CACOAL                                  76967482RO49939000080337574803043435C   24072014700BANCO REAL- ABN AMRO1512201400000000029636000CC                                                                                                                                                                                                                                                                                                                                                                                           329162-9      000015
1007421076122COBR_CAUC_COR  BMC HYUNDAI S.A                         012802557000125DESTAQUE TERRAPLENAGEM LTDA             RUA GUAIRA,1774                         CACOAL                                  76967482RO49939000090337575603043435D   24072014700BANCO REAL- ABN AMRO1501201500000000011200000CC                                                                                                                                                                                                                                                                                                                                                                                           329162-10     000016
1007421076122COBR_CAUC_COR  BMC HYUNDAI S.A                         012802557000125DESTAQUE TERRAPLENAGEM LTDA             RUA GUAIRA,1774                         CACOAL                                  76967482RO49939000100337576403043435L   24072014700BANCO REAL- ABN AMRO1508201500000000011200000CC                                                                                                                                                                                                                                                                                                                                                                                           329162-11     000017
1021421017050COBR_CAUC_BIC  STAR DISTR PROD FARMACEUTICOS LTDA      054375647003738DROGAL FARMACEUTICA LTDA                AVENIDA DR.CASSIO PASCHOAL PADOVANI,1910PIRACICABA                              13420355SP4994000001000060300000412301  17102014021CAMPINAS            1411201400000000012805679CC                                                                                                                                                                                                                                                                                                                                                                                           329162-12     000018
1021421017050COBR_CAUC_BIC  STAR DISTR PROD FARMACEUTICOS LTDA      061585865000151RAIA DROGASIL S/A                       AVENIDA CORIFEU DE AZEVEDO MARQUES, 3097SAO PAULO                               05339000SP4994100001000060810000413601  20102014007PAULISTA            0311201400000000018038877CC                                                                                                                                                                                                                                                                                                                                                                                           329162-13     000019
1021421017050COBR_CAUC_BIC  STAR DISTR PROD FARMACEUTICOS LTDA      061585865000151RAIA DROGASIL S/A                       AVENIDA CORIFEU DE AZEVEDO MARQUES, 3097SAO PAULO                               05339000SP4994100002000061110000414101  20102014007PAULISTA            0311201400000000037055320CC                                                                                                                                                                                                                                                                                                                                                                                           329162-14     000020
1021421017050COBR_CAUC_BIC  STAR DISTR PROD FARMACEUTICOS LTDA      061585865000151RAIA DROGASIL S/A                       AVENIDA CORIFEU DE AZEVEDO MARQUES, 3097SAO PAULO                               05339000SP4994100003000061610000415201  20102014007PAULISTA            0311201400000000015515633CC                                                                                                                                                                                                                                                                                                                                                                                           329162-15     000021
1021421017050COBR_CAUC_BIC  STAR DISTR PROD FARMACEUTICOS LTDA      061585865000151RAIA DROGASIL S/A                       AVENIDA CORIFEU DE AZEVEDO MARQUES, 3097SAO PAULO                               05339000SP4994100004000061960000413901  20102014007PAULISTA            0311201400000000022512424CC                                                                                                                                                                                                                                                                                                                                                                                           329162-16     000022
1021421017050COBR_CAUC_BIC  STAR DISTR PROD FARMACEUTICOS LTDA      061585865000151RAIA DROGASIL S/A                       AVENIDA CORIFEU DE AZEVEDO MARQUES, 3097SAO PAULO                               05339000SP4994100005000060720000413501  20102014022PAULISTA            0311201400000000011856516CC                                                                                                                                                                                                                                                                                                                                                                                           329162-17     000023
1046421006070DIR_CREDIT     METALURGICA DS LTDA                     060857349000176TRW AUTOMOTIVE LTDA                     VIA ANHANGUERA KM 147                   LIMEIRA                                 13486915SP4994300001                                                                                                                                          012695464           260320070000018698            21102014000404fornecimento de discos e tambores de freio para automóveis.                                                                                                                                                                                     079414868000198329162-18     000024
9000023                                                                                                                                                                                                                                                                                                                                                                                                                                                                                                                                                                                                                                                                                                               000025
