0REMESSANOTIFICAÇÃO ELETRONICA        99999999999999Bicbanco S/A                            Avenida Paulista                        1048      12º andar BELA VISTA                    SÃO PAULO                     01310100SPBicbanco S/A                                                                    15102010                                                                                                                                                                                                                                                                                                                                                                                                000001
1016420932333COBR_CAUC_BIC  COCELPA CIA DE CEL PAPEL DO PR          042564807000105CSN CIMENTOS S/A                        ROD BR 393 LUCIO MEIRA KM 5001 PARTE    VOLTA REDONDA                           27260390RJ2462100001028988860001567-01  11102010014RIO DE JANEIRO      1011201000000000010644977CC                                                                                                                                                                                                                                                                                                                                                                                           113528-1      000002
1016420932333COBR_CAUC_BIC  COCELPA CIA DE CEL PAPEL DO PR          042564807000105CSN CIMENTOS S/A                        ROD BR 393 LUCIO MEIRA KM 5001 PARTE    VOLTA REDONDA                           27260390RJ2462100002028989160001573-01  11102010014RIO DE JANEIRO      1011201000000000010644977CC                                                                                                                                                                                                                                                                                                                                                                                           113528-2      000003
1007421045057COBR_CAUC_COR  CENTRO MANUF.DO ACO LTDA                017500224000246USIMINAS MECANICA S/A. - USIMEC.        RUA 01, 2000                            IPATINGA                                35160900MG246220000100138354 13817/1    11102010900BRADESCO S/A        3011201000000000010355625CC                                                                                                                                                                                                                                                                                                                                                                                           113528-3      000004
1007421045057COBR_CAUC_COR  CENTRO MANUF.DO ACO LTDA                017500224000246USIMINAS MECANICA S/A. - USIMEC.        RUA 01, 2000                            IPATINGA                                35160900MG246220000200138362 13813/1    11102010900BRADESCO S/A        3011201000000000011669396CC                                                                                                                                                                                                                                                                                                                                                                                           113528-4      000005
1017140510065COBR_DESC_COR  COOP DE C AGROPEC E IND PINDORAMA       041080722000180DISLUB COMBUSTIVEIS LTDA                AVENIDA PORTUARIA, S/N                  IPOJUCA                                 55590000PE24623000010250435074947/1     30072010900BRADESCO S/A        2710201000000000012510000TD                                                                                                                                                                                                                                                                                                                                                                                           113528-5      000006
1017140510065COBR_DESC_COR  COOP DE C AGROPEC E IND PINDORAMA       041080722000180DISLUB COMBUSTIVEIS LTDA                AVENIDA PORTUARIA, S/N                  IPOJUCA                                 55590000PE24623000020250436874957/2     30072010010BRADESCO S/A        1211201000000000012510000TD                                                                                                                                                                                                                                                                                                                                                                                           113528-6      000007
1017140510065COBR_DESC_COR  COOP DE C AGROPEC E IND PINDORAMA       041080722000180DISLUB COMBUSTIVEIS LTDA                AVENIDA PORTUARIA, S/N                  IPOJUCA                                 55590000PE24623000030250437674947/2     30072010900BRADESCO S/A        2711201000000000012510000TD                                                                                                                                                                                                                                                                                                                                                                                           113528-7      000008
1017421007294COBR_CAUC_COR  COOP DE C AGROPEC E IND PINDORAMA       002909530000182FEDERAL DISTRIBUIDORA DE PETROLEO       AVE PORTUARIA, S/N SUAPE                IPOJUCA                                 55590000PE24624000010249563672255/5     05052010900BRADESCO S/A        3010201000000000020000008CC                                                                                                                                                                                                                                                                                                                                                                                           113528-8      000009
1017421007294COBR_CAUC_COR  COOP DE C AGROPEC E IND PINDORAMA       002909530000182FEDERAL DISTRIBUIDORA DE PETROLEO       AVE PORTUARIA, S/N SUAPE                IPOJUCA                                 55590000PE24624000020249564472255/4     05052010900BRADESCO S/A        2010201000000000020000008CC                                                                                                                                                                                                                                                                                                                                                                                           113528-9      000010
9000009                                                                                                                                                                                                                                                                                                                                                                                                                                                                                                                                                                                                                                                                                                               000011
