0REMESSANOTIFICAÇÃO ELETRONICA        99999999999999Bicbanco S/A                            Avenida Paulista , 1048 12º andar                           BELA VISTA                    SÃO PAULO                     01310100SPBicbanco S/A                                                                    19082010                                                                                                                                                                                                                                                                                                                                                                                                000001
1028421002719COBR_CAUC_COR  SIPCAM ISAGRO BRASIL S/A                004111785000120NOVA SERRANA LTDA                       RUA GREGORIO CRUZ N. 210                SAO JOAQUIM                             88600000SC237340000102634851DC00233601  11082010900BRADESCO S/A        3005201100000000020230560CC                                                                                                                                                                                                                                                                                                                                                                                           109011-1      000002
1021420930887COBR_CAUC_BIC  DEDINI S/A INDUSTRIAS DE BASE           075717355000286USINA DE ACUCAR SANTA TEREZINHA LT      AV MARCELO MESSIAS BUSIQUIA PQ INDUSTRIAMARINGA                                 87065006PR237350000105875842122127-3-3  09082010016CURITIBA            2010201000000000028829012CC                                                                                                                                                                                                                                                                                                                                                                                           109011-2      000003
1032420934675COBR_CAUC_COR  ELIANE S/A REVESTIMENTOS CERAMICOS      002598162000107UCL ASSOC.DE ENSINO SUPERIOR UNIFI      AV LOURIVAL NUNES, 181                  SERRA                                   29164050ES237360000108179558DPL029855A  13082010900BRADESCO S/A        0609201000000000011812875CC                                                                                                                                                                                                                                                                                                                                                                                           109011-3      000004
1015421001432COBR_CAUC_BIC  CAMAQUA ALIMENTOS S.A.                  004003705000113AMERICA DO SUL DISTR.DE ALIM.LTDA       ROD.BR 116 KM 4 7000                    FORTALEZA                               60862764CE2373700001007411972014224B    12082010003CENTRO              2109201000000000012750425CC                                                                                                                                                                                                                                                                                                                                                                                           109011-4      000005
1015421001432COBR_CAUC_BIC  CAMAQUA ALIMENTOS S.A.                  004003705000113AMERICA DO SUL DISTR.DE ALIM.LTDA       ROD.BR 116 KM 4 7000                    FORTALEZA                               60862764CE2373700002007412012014224C    12082010003CENTRO              2309201000000000012750425CC                                                                                                                                                                                                                                                                                                                                                                                           109011-5      000006
1007421043836DIR_CREDIT     PROENG CONSTRUTORA E COMERCIO LTDA      045709912000175PM DE VIRADOURO                         Pç MAJOR MANOEL JOAQUIM 349             VIRADOURO                               14740000SP2374900001                                                                                                                                          481043895           101220090000014478170/09      20072010000404Execução de obras e serviços de engenharia                                                                                                                                                                                                      069292852000104109011-6      000007
1028421002719COBR_CAUC_COR  SIPCAM ISAGRO BRASIL S/A                076106301000247COMERCIAL SUL PARANA S/A AGRO PECU      AV. DR. JOSE ERMIRIO DE MORAES N. 1909  ITAPEVA                                 18400510SP237500000102550135DC00008201  11092009900BRADESCO S/A        3009201000000000007217000CC                                                                                                                                                                                                                                                                                                                                                                                           109011-7      000008
1028421002719COBR_CAUC_COR  SIPCAM ISAGRO BRASIL S/A                076106301000247COMERCIAL SUL PARANA S/A AGRO PECU      AV. DR. JOSE ERMIRIO DE MORAES N. 1909  ITAPEVA                                 18400510SP237500000202550143DC00060701  07102009900BRADESCO S/A        3009201000000000008144400CC                                                                                                                                                                                                                                                                                                                                                                                           109011-8      000009
1028421002719COBR_CAUC_COR  SIPCAM ISAGRO BRASIL S/A                007393042000189AGROSEMENTES COM REPRES PROD AGRIC      RUA JOSE MANOEL VILELA, 501             JATAI                                   75800008GO237510000102596593DC00102801  23122009900BRADESCO S/A        3009201000000000027059970CC                                                                                                                                                                                                                                                                                                                                                                                           109011-9      000010
1028421002719COBR_CAUC_COR  SIPCAM ISAGRO BRASIL S/A                005295663000102AGROGENE COM PROD AGRICOLAS LTDA        R. MINAS GERAIS, 74                     JATAI                                   75800087GO237520000102550747DC00145501  29102009900BRADESCO S/A        3008201000000000016999990CC                                                                                                                                                                                                                                                                                                                                                                                           109011-10     000011
1028421002719COBR_CAUC_COR  SIPCAM ISAGRO BRASIL S/A                005295663000102AGROGENE COM PROD AGRICOLAS LTDA        R. MINAS GERAIS, 74                     JATAI                                   75800087GO237520000202596577DC00103001  23122009900BRADESCO S/A        3009201000000000014893185CC                                                                                                                                                                                                                                                                                                                                                                                           109011-11     000012
1028421002719COBR_CAUC_COR  SIPCAM ISAGRO BRASIL S/A                007367791000131NANTES E SILVA LTDA                     AV PERIMETRAL SUDESTE, 10265            SORRISO                                 78890000MT237530000102549935DL00030001  30092009900BRADESCO S/A        3009201000000000032292000CC                                                                                                                                                                                                                                                                                                                                                                                           109011-12     000013
1028421002719COBR_CAUC_COR  SIPCAM ISAGRO BRASIL S/A                004338559000187OBJETIVA AGRICOLA LTDA                  AV. PERIMETRAL SUDESTE, 10655           SORRISO                                 78890000MT237540000102573046DL04342401  30052009900BRADESCO S/A        3009201000000000028571140CC                                                                                                                                                                                                                                                                                                                                                                                           109011-13     000014
1028421002719COBR_CAUC_COR  SIPCAM ISAGRO BRASIL S/A                004338559000187OBJETIVA AGRICOLA LTDA                  AV. PERIMETRAL SUDESTE, 10655           SORRISO                                 78890000MT237540000202607668DL00144701  24022010900BRADESCO S/A        3009201000000000005588800CC                                                                                                                                                                                                                                                                                                                                                                                           109011-14     000015
1028421002719COBR_CAUC_BIC  SIPCAM ISAGRO BRASIL S/A                009241196000180JSM COMERCIO E REPR. PROD.AGROPEC       AV. SEGISMUNDO PEREIRA N. 3099          UBERLANDIA                              38408170MG237550000102635041DC00188701  31052010028UBERLANDIA          3005201100000000013018000CC                                                                                                                                                                                                                                                                                                                                                                                           109097-1      000016
1028421002719COBR_CAUC_COR  SIPCAM ISAGRO BRASIL S/A                037882560000127PAULO AFONSO VIEIRA - ME                RODOVIA GO 320, KM 01 S/N               GOIATUBA                                75600000GO237560000102635050DC00192501  31052010900BRADESCO S/A        3005201100000000015978750CC                                                                                                                                                                                                                                                                                                                                                                                           109097-2      000017
1032420932087COBR_CAUC_BIC  TEXTIL RENAUXVIEW S/A                   085120939000495DUDALINA S A                            BR 470KM 50 7109 CXP 1154               BLUMENAU                                89072000SC23757000010818305919489/A     30072010032BLUMENAU            1910201000000000010148206CC                                                                                                                                                                                                                                                                                                                                                                                           109097-3      000018
1021420930887COBR_CAUC_BIC  DEDINI S/A INDUSTRIAS DE BASE           053009825000133USINA ALTA MOGIANA S A - ACUCAR E       FAZ SANTANA ZONA RURAL BR               SAO JOAQUIM DA                          14600000SP23758000010588916917250-2-2   13082010022RIBEIRAO PRETO      0309201000000000013416039CC                                                                                                                                                                                                                                                                                                                                                                                           109097-4      000019
1044421012082COBR_CAUC_COR  SERHS BRASIL EMPREEND. TURISTICOS       024896979000196BANCORBRAS VIAGENS E TURISMO LTDA       SCS, QUADRA 04, BLOCO A, EDISRAEL PINH  BRASILIA                                70304914DF23759000010000341518255       13082010900BRADESCO S/A        0209201000000000012520748CC                                                                                                                                                                                                                                                                                                                                                                                           109097-5      000020
9000019                                                                                                                                                                                                                                                                                                                                                                                                                                                                                                                                                                                                                                                                                                               000021
