0REMESSANOTIFICAÇÃO ELETRONICA        99999999999999Bicbanco S/A                            Avenida Brigadeiro Faria Lima           4.440     2º andar  Itaim Bibi                    São Paulo                     04538132SPBicbanco S/A                                                                    27032013                                                                                                                                                                                                                                                                                                                                                                                                000001
1020421002020COBR_CAUC_COR  GRABER SISTEMAS DE SEGURANCA LTDA       003480244000107CONDOMINIO ORDINARIO DO NOVO S          AV PRESIDENTE KENNEDY, 1500 - JD PRESIDERIBEIRAO PRETO                          14096350SP407500000100003739000005056A  04032013900BRADESCO S/A        1103201300000000016282359CC                                                                                                                                                                                                                                                                                                                                                                                           228574-1      000002
1020421002020COBR_CAUC_COR  GRABER SISTEMAS DE SEGURANCA LTDA       003480244000107CONDOMINIO ORDINARIO DO NOVO S          AV PRESIDENTE KENNEDY, 1500 - JD PRESIDERIBEIRAO PRETO                          14096350SP407500000200003747000005056B  04032013900BRADESCO S/A        2003201300000000011094544CC                                                                                                                                                                                                                                                                                                                                                                                           228574-2      000003
1020421002020COBR_CAUC_COR  GRABER SISTEMAS DE SEGURANCA LTDA       010588595000363MEDLEY COMERCIAL E LOGISTICA L          R ESTACIO DE SA, 1490 - JD SANTA GENEBRACAMPINAS                                13080010SP407510000100004395000005010   01032013900BRADESCO S/A        0104201300000000013902340CC                                                                                                                                                                                                                                                                                                                                                                                           228574-3      000004
1046421007255COBR_CAUC_BIC  MAESTRO DO BRASIL IND METALUR LTDA      076635689001245O.V.D. IMPORTADORA E DISTRIBUIDORA      AV JOAO BETTEGA,,2876                   CURITIBA - PR                           81070900PR40752000010180555327233-1/1   04032013016CURITIBA            0304201300000000012471972CC                                                                                                                                                                                                                                                                                                                                                                                           228574-4      000005
1028421002921COBR_CAUC_COR  MATABOI ALIMENTOS S/A - EM REC.JUD.     010915021000190TOP ALTO PARTICIPACOES E COMERCIO       EST SAO JOAO CAXIAS99PARTE              SAO JOAO DE MER                         25515420RJ4074800001002759270029986901  05032013900BRADESCO S/A        1203201300000000010755043CC                                                                                                                                                                                                                                                                                                                                                                                           228574-5      000006
1028421002921COBR_CAUC_COR  MATABOI ALIMENTOS S/A - EM REC.JUD.     017745613000150SUPERMERCADO BAHAMAS LTDA               ROD BR-040 780KM                        JUIZ DE FORA                            36092005MG4074900001002759860029983701  05032013900BRADESCO S/A        0404201300000000015312523CC                                                                                                                                                                                                                                                                                                                                                                                           228574-6      000007
1007421055095COBR_CAUC_COR  PLASTER IND COM RESINAS PLAS EIRELI     004168163000139BELLS IND COM PLAST METAIS LTDA         RUA ANTONIO GENTIL,606                  COLOMBO                                 83412030PR407530000100011206031710/A    05032013900BRADESCO S/A        2203201300000000013765500CC                                                                                                                                                                                                                                                                                                                                                                                           228574-7      000008
1024420934410COBR_CAUC_BIC  INTERCOOP INT SUIN MED NORTE MT LTD     004613751000487CRISTALFRIGO IND COM IMPORTACAO EX      AV DOS ANDRADAS ,2229-STA EFIGENIA      BELO HORIZONTE                          30120010MG40782000010200944195690       06032013019BELO HORIZONTE      0304201300000000013467293CC                                                                                                                                                                                                                                                                                                                                                                                           228576-1      000009
1028421002921COBR_CAUC_COR  MATABOI ALIMENTOS S/A - EM REC.JUD.     004641376007300SUPERMERCADOS BH COMERCIO DE ALIME      AVGERALDO ROCHA700                      CONTAGEM                                32183054MG4077900001002760010030018701  06032013900BRADESCO S/A        0304201300000000016913228CC                                                                                                                                                                                                                                                                                                                                                                                           228576-2      000010
1007421055095COBR_CAUC_COR  PLASTER IND COM RESINAS PLAS EIRELI     005038737000117CERANTOLA DO BRASIL IND COM LTDA        RODOVIA BRAZ FORTUNATO,S/N-KM 02        BARIRI                                  17250000SP407830000100011303031782/A    06032013900BRADESCO S/A        1603201300000000016170000CC                                                                                                                                                                                                                                                                                                                                                                                           228576-3      000011
1009420930764COBR_CAUC_BIC  S/A CORREIO BRAZILIENSE                 006056990000166JOSE CELSO GONTIJO ENGENHARIA S A       EQS 114 115 CONJUNTO A BLOCO 1 A SUL 41 BRASILIA                                70377400DF407800000101396565455853-1    06032013009BRASILIA            1504201300000000014300938CC                                                                                                                                                                                                                                                                                                                                                                                           228576-4      000012
1048421002195COBR_CAUC_COR  SERVIMED COMERCIAL LTDA                 017256512002917DROG ARAUJO SA                          AV APIO CARDOSO 100                     CONTAGEM                                32371615MG40781000010051624378372917    06032013900BRADESCO S/A        0605201300000000061009376CC                                                                                                                                                                                                                                                                                                                                                                                           228576-5      000013
1006421012283COBR_CAUC_BIC  AERIS IND E COM DE E G DE ENERG S/A     008146882000100SUZLON ENERGIAEOLICA DO BRASIL LTD      AV SENADOR VIRGILIO TAVORA 195          FORTALEZA                               60170250CE408070000109421188494         05032013006BEZERRA             1904201300000000061675127CC                                                                                                                                                                                                                                                                                                                                                                                           228578-1      000014
1006421012283COBR_CAUC_BIC  AERIS IND E COM DE E G DE ENERG S/A     008146882000100SUZLON ENERGIAEOLICA DO BRASIL LTD      AV SENADOR VIRGILIO TAVORA 195          FORTALEZA                               60170250CE408070000209421196495         05032013006BEZERRA             1904201300000000061675127CC                                                                                                                                                                                                                                                                                                                                                                                           228578-2      000015
1006421012283COBR_CAUC_BIC  AERIS IND E COM DE E G DE ENERG S/A     008146882000100SUZLON ENERGIAEOLICA DO BRASIL LTD      AV SENADOR VIRGILIO TAVORA 195          FORTALEZA                               60170250CE408070000309421200496         05032013006BEZERRA             1904201300000000061675127CC                                                                                                                                                                                                                                                                                                                                                                                           228578-3      000016
1046421001443COBR_CAUC_COR  COSTAO DO SANTINHO TUR E LAZER LTDA     057443319000109TIVOLITUR VIAGENS E TURISMO LTDA        AV PAULISTA ,2202-2 ANDAR               SAO PAULO                               01310300SP408060000100009818161484      07032013900BRADESCO S/A        2603201300000000018378406CC                                                                                                                                                                                                                                                                                                                                                                                           228578-4      000017
1007421031242COBR_CAUC_BIC  GP GUARDA PATRIMONIAL DE S.P. LTDA      062144175000120BANCO PINE S A                          AVDAS NACOES UNIDAS8 501 29E 30         SAO PAULO                               05425070SP40803000010007620190274       07032013007PAULISTA            0104201300000000026284312CC                                                                                                                                                                                                                                                                                                                                                                                           228578-5      000018
1007421031242COBR_CAUC_BIC  GP GUARDA PATRIMONIAL DE S.P. LTDA      000007618080860JOSE OSWALDO RIBEIRO DE MENDONCA        RUA CRISTOVAO DINIZ67                   SAO PAULO                               01426020SP40804000010007635990312       07032013007PAULISTA            0104201300000000012751477CC                                                                                                                                                                                                                                                                                                                                                                                           228578-6      000019
1006420933059COBR_CAUC_BIC  IMARF BENEFICIAMENTO DE GRANITOS LT     000475251000122PAULO OCTAVIO INVESTIMENTOS IMOBIL      SCN QUADRA 01,125                       BRASILIA                                70711900DF4080500001094211533111        08032013009BRASILIA            0504201300000000010801736CC                                                                                                                                                                                                                                                                                                                                                                                           228578-7      000020
1016421008591COBR_CAUC_BIC  GLOBOAVES SAO PAULO AGROAVICOLA LTD     061752739000144FRIGORIFICO PRIETO LTDA                 AV VER JOAQUIM P BARBOSA,777            CAJAMAR                                 07760000SP408370000103930902126148      07032013021CAMPINAS            0604201300000000013372425CC                                                                                                                                                                                                                                                                                                                                                                                           228579-1      000021
1016421008591COBR_CAUC_COR  GLOBOAVES SAO PAULO AGROAVICOLA LTD     077863223006229C VALE - COOPERATIVA AGROINDL           AV INDEPENDENCIA,2347                   PALOTINA                                85950000PR408380000103930961081828      04032013900BRADESCO S/A        0104201300000000025833500CC                                                                                                                                                                                                                                                                                                                                                                                           228579-2      000022
1013421004388DIR_CREDIT     SOCIALIZA EMPREEND SERV MANUT LTDA.     014504377000192SECRETARIA DE JUSTICA E DIREITOS HUMANOSQUARTA AVENIDA, PLATAFORMA 06, 1 ANDAR  SALVADOR                                40301155BA4085400001                                                                                                                                          481026357           150920060000001195029/SJDH/20012112012000404Serviços de completa operacionalização do conjunto penal de Itabuna-PE e suas dependências.                                                                                                                                                     040614547000100228579-3      000023
1013421004388DIR_CREDIT     SOCIALIZA EMPREEND SERV MANUT LTDA.     014504377000192SECRETARIA DE JUSTICA E DIREITOS HUMANOSQUARTA AVENIDA, PLATAFORMA 06, 1 ANDAR  SALVADOR                                40301155BA4085500001                                                                                                                                          481026845           150920060000001195029/SJDH/20007022013000404Serviços de completa operacionalização do conjunto penal de Itabuna-PE e suas dependências.                                                                                                                                                     040614547000100228579-4      000024
1036421019213COBR_CAUC_COR  COTONIFICIO DE ANDIRA S/A               010474553000130MALHAS MENEGOTTI IND TEXTIL LTDA        R.JOAQUIM FRCO DE PAULA, 4850 PREDIO    JARAGUA DO SUL                          89254710SC40857000010593344901151801    09032013800UNIBANCO S/A        0804201300000000010527385CC                                                                                                                                                                                                                                                                                                                                                                                           228581-1      000025
1008420934067COBR_CAUC_BIC  EMPRESA JORNALISTICA O POVO S/A         007206816000115M DIAS BRANCO S/A INDUSTRIA E COME      R ALCINO GUANABARA,25 18º ANDAR         RIO DE JANEIRO                          20031130RJ40856000010885345417542       11032013014RIO DE JANEIRO      1004201300000000017366616CC                                                                                                                                                                                                                                                                                                                                                                                           228581-2      000026
1016421013250COBR_CAUC_COR  INSOL INTE.DO BRASIL IND E COM S/A      044022424000556TRIANGULO ALIMENTOS LTDA                AV JOSE DE BARROS RIBEIRO,168           ITAPOLIS                                14900000SP4087400001039309707587        01032013800UNIBANCO S/A        0104201300000000007617960CC                                                                                                                                                                                                                                                                                                                                                                                           228581-3      000027
1016421013250COBR_CAUC_COR  INSOL INTE.DO BRASIL IND E COM S/A      044022424000556TRIANGULO ALIMENTOS LTDA                AV JOSE DE BARROS RIBEIRO,168           ITAPOLIS                                14900000SP4087400002039309887591        01032013800UNIBANCO S/A        0104201300000000007635600CC                                                                                                                                                                                                                                                                                                                                                                                           228581-4      000028
1016421013250COBR_CAUC_COR  INSOL INTE.DO BRASIL IND E COM S/A      044022424000556TRIANGULO ALIMENTOS LTDA                AV JOSE DE BARROS RIBEIRO,168           ITAPOLIS                                14900000SP4087400003039309967595        01032013800UNIBANCO S/A        0104201300000000009248400CC                                                                                                                                                                                                                                                                                                                                                                                           228581-5      000029
1016421013250COBR_CAUC_COR  INSOL INTE.DO BRASIL IND E COM S/A      044022424000556TRIANGULO ALIMENTOS LTDA                AV JOSE DE BARROS RIBEIRO,168           ITAPOLIS                                14900000SP4087400004039310037598        01032013800UNIBANCO S/A        0204201300000000008981280CC                                                                                                                                                                                                                                                                                                                                                                                           228581-6      000030
1016421013250COBR_CAUC_COR  INSOL INTE.DO BRASIL IND E COM S/A      044022424000556TRIANGULO ALIMENTOS LTDA                AV JOSE DE BARROS RIBEIRO,168           ITAPOLIS                                14900000SP4087400005039310117629        06032013800UNIBANCO S/A        0504201300000000006310080CC                                                                                                                                                                                                                                                                                                                                                                                           228581-7      000031
1016421013250COBR_CAUC_COR  INSOL INTE.DO BRASIL IND E COM S/A      044022424000556TRIANGULO ALIMENTOS LTDA                AV JOSE DE BARROS RIBEIRO,168           ITAPOLIS                                14900000SP4087400006039310207633        06032013800UNIBANCO S/A        0504201300000000007575120CC                                                                                                                                                                                                                                                                                                                                                                                           228581-8      000032
1016421013250COBR_CAUC_COR  INSOL INTE.DO BRASIL IND E COM S/A      044022424000556TRIANGULO ALIMENTOS LTDA                AV JOSE DE BARROS RIBEIRO,168           ITAPOLIS                                14900000SP4087400007039310387662        08032013800UNIBANCO S/A        0804201300000000008913240CC                                                                                                                                                                                                                                                                                                                                                                                           228581-9      000033
1018421018863COBR_CAUC_COR  PIVOT EQUIPAMENTOS AGRI E IRRI LTDA     000094458278649GALBA VIEIRA CORDEIRO JUNIOR            RUA MACHADO DE ASSIS, 25 -              PARACATU                                38600000MG4085800001000011089170 3      08032013900BRADESCO S/A        3006201300000000017000000CC                                                                                                                                                                                                                                                                                                                                                                                           228581-10     000034
1018421018863COBR_CAUC_COR  PIVOT EQUIPAMENTOS AGRI E IRRI LTDA     000094458278649GALBA VIEIRA CORDEIRO JUNIOR            RUA MACHADO DE ASSIS, 25 -              PARACATU                                38600000MG4085800002000011169170 4      08032013900BRADESCO S/A        3007201300000000017000000CC                                                                                                                                                                                                                                                                                                                                                                                           228581-11     000035
9000034                                                                                                                                                                                                                                                                                                                                                                                                                                                                                                                                                                                                                                                                                                               000036
