0REMESSANOTIFICAÇÃO ELETRONICA        99999999999999Bicbanco S/A                            Avenida Brigadeiro Faria Lima           4.440     2º andar  Itaim Bibi                    São Paulo                     04538132SPBicbanco S/A                                                                    27082012                                                                                                                                                                                                                                                                                                                                                                                                000001
1048421000095COBR_CAUC_BIC  ACUMULADORES AJAX LTDA                  000769104000165MERCANTIL DE BATERIAS SERGIPE LTDA      RUA ELIZEU DOS SANTOS 350               ARACAJU                                 49072230SE373700002000592063024238903   27072012045ARACAJU             2611201200000000000048662CC                                                                                                                                                                                                                                                                                                                                                                                           190601-200    000002
1048421000095COBR_CAUC_BIC  ACUMULADORES AJAX LTDA                  000769104000165MERCANTIL DE BATERIAS SERGIPE LTDA      RUA ELIZEU DOS SANTOS 350               ARACAJU                                 49072230SE373700002100592161024239001   27072012045ARACAJU             2509201200000000000269937CC                                                                                                                                                                                                                                                                                                                                                                                           190601-201    000003
1048421000095COBR_CAUC_BIC  ACUMULADORES AJAX LTDA                  000769104000165MERCANTIL DE BATERIAS SERGIPE LTDA      RUA ELIZEU DOS SANTOS 350               ARACAJU                                 49072230SE373700002200592179024239002   27072012045ARACAJU             2510201200000000000269937CC                                                                                                                                                                                                                                                                                                                                                                                           190601-202    000004
1048421000095COBR_CAUC_BIC  ACUMULADORES AJAX LTDA                  000769104000165MERCANTIL DE BATERIAS SERGIPE LTDA      RUA ELIZEU DOS SANTOS 350               ARACAJU                                 49072230SE373700002300592187024239003   27072012045ARACAJU             2611201200000000000270017CC                                                                                                                                                                                                                                                                                                                                                                                           190601-203    000005
1048421000095COBR_CAUC_COR  ACUMULADORES AJAX LTDA                  008528576000138R & J COMERCIO DE BATERIAS LTDA         AV AMARALINA 1320                       FEIRA DE SANTAN                         44028186BA373710000100595631024138903   06082012600HSBC BANK BRASIL    0611201200000000003895673CC                                                                                                                                                                                                                                                                                                                                                                                           190601-204    000006
1048421000095COBR_CAUC_COR  ACUMULADORES AJAX LTDA                  008528576000138R & J COMERCIO DE BATERIAS LTDA         AV AMARALINA 1320                       FEIRA DE SANTAN                         44028186BA373710000200595640024142504   06082012600HSBC BANK BRASIL    1411201200000000004704561CC                                                                                                                                                                                                                                                                                                                                                                                           190601-205    000007
1048421000095COBR_CAUC_BIC  ACUMULADORES AJAX LTDA                  000133779000113GIJAX COMERCIAL LTDA EPP                RUA JOSE BONIFACIO 665                  FRANCA                                  14405110SP37372000010059561500267261    03082012022RIBEIRAO PRETO      0510201200000000004808947CC                                                                                                                                                                                                                                                                                                                                                                                           190601-206    000008
1048421000095COBR_CAUC_BIC  ACUMULADORES AJAX LTDA                  000133779000113GIJAX COMERCIAL LTDA EPP                RUA JOSE BONIFACIO 665                  FRANCA                                  14405110SP37372000020059562300267754    03082012022RIBEIRAO PRETO      1411201200000000003845629CC                                                                                                                                                                                                                                                                                                                                                                                           190601-207    000009
1048421000095COBR_CAUC_BIC  ACUMULADORES AJAX LTDA                  014549574000128BETAJAX SUL BATERIAS LTDA ME            RUA GERALDO RODRIGUES SANCHES 100       SAO JOSE DO RIO                         15061395SP373730000100571350024089202   23062012047AGENCIA RIO PRETO   0409201200000000000050823CC                                                                                                                                                                                                                                                                                                                                                                                           190601-208    000010
1048421000095COBR_CAUC_BIC  ACUMULADORES AJAX LTDA                  014549574000128BETAJAX SUL BATERIAS LTDA ME            RUA GERALDO RODRIGUES SANCHES 100       SAO JOSE DO RIO                         15061395SP373730000200570426002580803   21062012047AGENCIA RIO PRETO   0409201200000000000112699CC                                                                                                                                                                                                                                                                                                                                                                                           190601-209    000011
1048421000095COBR_CAUC_BIC  ACUMULADORES AJAX LTDA                  014549574000128BETAJAX SUL BATERIAS LTDA ME            RUA GERALDO RODRIGUES SANCHES 100       SAO JOSE DO RIO                         15061395SP373730000300570434002580804   21062012047AGENCIA RIO PRETO   1909201200000000000112699CC                                                                                                                                                                                                                                                                                                                                                                                           190601-210    000012
1048421000095COBR_CAUC_BIC  ACUMULADORES AJAX LTDA                  014549574000128BETAJAX SUL BATERIAS LTDA ME            RUA GERALDO RODRIGUES SANCHES 100       SAO JOSE DO RIO                         15061395SP373730000400570442002580805   21062012047AGENCIA RIO PRETO   0410201200000000000112699CC                                                                                                                                                                                                                                                                                                                                                                                           190601-211    000013
1048421000095COBR_CAUC_BIC  ACUMULADORES AJAX LTDA                  014549574000128BETAJAX SUL BATERIAS LTDA ME            RUA GERALDO RODRIGUES SANCHES 100       SAO JOSE DO RIO                         15061395SP373730000500570451002580806   21062012047AGENCIA RIO PRETO   1910201200000000000112699CC                                                                                                                                                                                                                                                                                                                                                                                           190601-212    000014
1048421000095COBR_CAUC_BIC  ACUMULADORES AJAX LTDA                  014549574000128BETAJAX SUL BATERIAS LTDA ME            RUA GERALDO RODRIGUES SANCHES 100       SAO JOSE DO RIO                         15061395SP373730000600569541002580903   21062012047AGENCIA RIO PRETO   0409201200000000000108762CC                                                                                                                                                                                                                                                                                                                                                                                           190601-213    000015
1048421000095COBR_CAUC_BIC  ACUMULADORES AJAX LTDA                  014549574000128BETAJAX SUL BATERIAS LTDA ME            RUA GERALDO RODRIGUES SANCHES 100       SAO JOSE DO RIO                         15061395SP373730000700569550002580904   21062012047AGENCIA RIO PRETO   1909201200000000000108762CC                                                                                                                                                                                                                                                                                                                                                                                           190601-214    000016
1048421000095COBR_CAUC_BIC  ACUMULADORES AJAX LTDA                  014549574000128BETAJAX SUL BATERIAS LTDA ME            RUA GERALDO RODRIGUES SANCHES 100       SAO JOSE DO RIO                         15061395SP373730000800569568002580905   21062012047AGENCIA RIO PRETO   0410201200000000000108762CC                                                                                                                                                                                                                                                                                                                                                                                           190601-215    000017
1048421000095COBR_CAUC_BIC  ACUMULADORES AJAX LTDA                  014549574000128BETAJAX SUL BATERIAS LTDA ME            RUA GERALDO RODRIGUES SANCHES 100       SAO JOSE DO RIO                         15061395SP373730000900569576002580906   21062012047AGENCIA RIO PRETO   1910201200000000000108762CC                                                                                                                                                                                                                                                                                                                                                                                           190601-216    000018
1048421000095COBR_CAUC_BIC  ACUMULADORES AJAX LTDA                  014549574000128BETAJAX SUL BATERIAS LTDA ME            RUA GERALDO RODRIGUES SANCHES 100       SAO JOSE DO RIO                         15061395SP373730001000571147002584303   23062012047AGENCIA RIO PRETO   0409201200000000000071437CC                                                                                                                                                                                                                                                                                                                                                                                           190601-217    000019
1048421000095COBR_CAUC_BIC  ACUMULADORES AJAX LTDA                  014549574000128BETAJAX SUL BATERIAS LTDA ME            RUA GERALDO RODRIGUES SANCHES 100       SAO JOSE DO RIO                         15061395SP373730001100571139002584304   23062012047AGENCIA RIO PRETO   1909201200000000000071437CC                                                                                                                                                                                                                                                                                                                                                                                           190601-218    000020
1048421000095COBR_CAUC_BIC  ACUMULADORES AJAX LTDA                  014549574000128BETAJAX SUL BATERIAS LTDA ME            RUA GERALDO RODRIGUES SANCHES 100       SAO JOSE DO RIO                         15061395SP373730001200569258024081802   21062012047AGENCIA RIO PRETO   0409201200000000001914144CC                                                                                                                                                                                                                                                                                                                                                                                           190601-219    000021
1048421000095COBR_CAUC_BIC  ACUMULADORES AJAX LTDA                  014549574000128BETAJAX SUL BATERIAS LTDA ME            RUA GERALDO RODRIGUES SANCHES 100       SAO JOSE DO RIO                         15061395SP373730001300569266024081803   21062012047AGENCIA RIO PRETO   1909201200000000001914144CC                                                                                                                                                                                                                                                                                                                                                                                           190601-220    000022
1048421000095COBR_CAUC_BIC  ACUMULADORES AJAX LTDA                  014549574000128BETAJAX SUL BATERIAS LTDA ME            RUA GERALDO RODRIGUES SANCHES 100       SAO JOSE DO RIO                         15061395SP373730001400569274024081804   21062012047AGENCIA RIO PRETO   0410201200000000001914144CC                                                                                                                                                                                                                                                                                                                                                                                           190601-221    000023
1048421000095COBR_CAUC_BIC  ACUMULADORES AJAX LTDA                  014549574000128BETAJAX SUL BATERIAS LTDA ME            RUA GERALDO RODRIGUES SANCHES 100       SAO JOSE DO RIO                         15061395SP373730001500569282024081805   21062012047AGENCIA RIO PRETO   1910201200000000001914144CC                                                                                                                                                                                                                                                                                                                                                                                           190601-222    000024
1048421000095COBR_CAUC_BIC  ACUMULADORES AJAX LTDA                  014549574000128BETAJAX SUL BATERIAS LTDA ME            RUA GERALDO RODRIGUES SANCHES 100       SAO JOSE DO RIO                         15061395SP373730001600570019024082102   21062012047AGENCIA RIO PRETO   0409201200000000000082047CC                                                                                                                                                                                                                                                                                                                                                                                           190601-223    000025
1048421000095COBR_CAUC_BIC  ACUMULADORES AJAX LTDA                  014549574000128BETAJAX SUL BATERIAS LTDA ME            RUA GERALDO RODRIGUES SANCHES 100       SAO JOSE DO RIO                         15061395SP373730001700570027024082103   21062012047AGENCIA RIO PRETO   1909201200000000000082047CC                                                                                                                                                                                                                                                                                                                                                                                           190601-224    000026
1048421000095COBR_CAUC_BIC  ACUMULADORES AJAX LTDA                  014549574000128BETAJAX SUL BATERIAS LTDA ME            RUA GERALDO RODRIGUES SANCHES 100       SAO JOSE DO RIO                         15061395SP373730001800570035024082104   21062012047AGENCIA RIO PRETO   0410201200000000000082047CC                                                                                                                                                                                                                                                                                                                                                                                           190601-225    000027
1048421000095COBR_CAUC_BIC  ACUMULADORES AJAX LTDA                  014549574000128BETAJAX SUL BATERIAS LTDA ME            RUA GERALDO RODRIGUES SANCHES 100       SAO JOSE DO RIO                         15061395SP373730001900570043024082105   21062012047AGENCIA RIO PRETO   1910201200000000000082047CC                                                                                                                                                                                                                                                                                                                                                                                           190601-226    000028
1048421000095COBR_CAUC_BIC  ACUMULADORES AJAX LTDA                  014549574000128BETAJAX SUL BATERIAS LTDA ME            RUA GERALDO RODRIGUES SANCHES 100       SAO JOSE DO RIO                         15061395SP373730002000569967024082202   21062012047AGENCIA RIO PRETO   0409201200000000000077388CC                                                                                                                                                                                                                                                                                                                                                                                           190601-227    000029
1048421000095COBR_CAUC_BIC  ACUMULADORES AJAX LTDA                  014549574000128BETAJAX SUL BATERIAS LTDA ME            RUA GERALDO RODRIGUES SANCHES 100       SAO JOSE DO RIO                         15061395SP373730002100569975024082203   21062012047AGENCIA RIO PRETO   1909201200000000000077388CC                                                                                                                                                                                                                                                                                                                                                                                           190601-228    000030
1048421000095COBR_CAUC_BIC  ACUMULADORES AJAX LTDA                  014549574000128BETAJAX SUL BATERIAS LTDA ME            RUA GERALDO RODRIGUES SANCHES 100       SAO JOSE DO RIO                         15061395SP373730002200569983024082204   21062012047AGENCIA RIO PRETO   0410201200000000000077388CC                                                                                                                                                                                                                                                                                                                                                                                           190601-229    000031
1048421000095COBR_CAUC_BIC  ACUMULADORES AJAX LTDA                  014549574000128BETAJAX SUL BATERIAS LTDA ME            RUA GERALDO RODRIGUES SANCHES 100       SAO JOSE DO RIO                         15061395SP373730002300569991024082205   21062012047AGENCIA RIO PRETO   1910201200000000000077388CC                                                                                                                                                                                                                                                                                                                                                                                           190601-230    000032
1048421000095COBR_CAUC_BIC  ACUMULADORES AJAX LTDA                  014549574000128BETAJAX SUL BATERIAS LTDA ME            RUA GERALDO RODRIGUES SANCHES 100       SAO JOSE DO RIO                         15061395SP373730002400571333024089102   23062012047AGENCIA RIO PRETO   0409201200000000000064922CC                                                                                                                                                                                                                                                                                                                                                                                           190601-231    000033
1048421000095COBR_CAUC_BIC  ACUMULADORES AJAX LTDA                  014549574000128BETAJAX SUL BATERIAS LTDA ME            RUA GERALDO RODRIGUES SANCHES 100       SAO JOSE DO RIO                         15061395SP373730002500571325024089103   23062012047AGENCIA RIO PRETO   1909201200000000000064922CC                                                                                                                                                                                                                                                                                                                                                                                           190601-232    000034
1048421000095COBR_CAUC_BIC  ACUMULADORES AJAX LTDA                  014549574000128BETAJAX SUL BATERIAS LTDA ME            RUA GERALDO RODRIGUES SANCHES 100       SAO JOSE DO RIO                         15061395SP373730002600573280024089104   23062012047AGENCIA RIO PRETO   0410201200000000000064922CC                                                                                                                                                                                                                                                                                                                                                                                           190601-233    000035
1048421000095COBR_CAUC_BIC  ACUMULADORES AJAX LTDA                  014549574000128BETAJAX SUL BATERIAS LTDA ME            RUA GERALDO RODRIGUES SANCHES 100       SAO JOSE DO RIO                         15061395SP373730002700573298024089105   23062012047AGENCIA RIO PRETO   1910201200000000000064922CC                                                                                                                                                                                                                                                                                                                                                                                           190601-234    000036
1048421000095COBR_CAUC_BIC  ACUMULADORES AJAX LTDA                  014549574000128BETAJAX SUL BATERIAS LTDA ME            RUA GERALDO RODRIGUES SANCHES 100       SAO JOSE DO RIO                         15061395SP373730002800573255024089203   23062012047AGENCIA RIO PRETO   1909201200000000000050823CC                                                                                                                                                                                                                                                                                                                                                                                           190601-235    000037
1048421000095COBR_CAUC_BIC  ACUMULADORES AJAX LTDA                  014549574000128BETAJAX SUL BATERIAS LTDA ME            RUA GERALDO RODRIGUES SANCHES 100       SAO JOSE DO RIO                         15061395SP373730002900573263024089204   23062012047AGENCIA RIO PRETO   0410201200000000000050823CC                                                                                                                                                                                                                                                                                                                                                                                           190601-236    000038
1048421000095COBR_CAUC_BIC  ACUMULADORES AJAX LTDA                  014549574000128BETAJAX SUL BATERIAS LTDA ME            RUA GERALDO RODRIGUES SANCHES 100       SAO JOSE DO RIO                         15061395SP373730003000573271024089205   23062012047AGENCIA RIO PRETO   1910201200000000000050823CC                                                                                                                                                                                                                                                                                                                                                                                           190601-237    000039
1048421000095COBR_CAUC_BIC  ACUMULADORES AJAX LTDA                  010447097000139VIVAZ DISTRIBUICAO DE PECAS LTDA        RUA PEDRO ALVES DE ANDRADE N.280        JOAO PESSOA                             58053024PB373740000100573638002551906   26062012043JOAO PESSOA         2808201200000000000855543CC                                                                                                                                                                                                                                                                                                                                                                                           190601-238    000040
1048421000095COBR_CAUC_BIC  ACUMULADORES AJAX LTDA                  010447097000139VIVAZ DISTRIBUICAO DE PECAS LTDA        RUA PEDRO ALVES DE ANDRADE N.280        JOAO PESSOA                             58053024PB373740000200573646002551907   26062012043JOAO PESSOA         0409201200000000000855543CC                                                                                                                                                                                                                                                                                                                                                                                           190601-239    000041
1048421000095COBR_CAUC_BIC  ACUMULADORES AJAX LTDA                  010447097000139VIVAZ DISTRIBUICAO DE PECAS LTDA        RUA PEDRO ALVES DE ANDRADE N.280        JOAO PESSOA                             58053024PB373740000300573654002551908   26062012043JOAO PESSOA         1109201200000000000855543CC                                                                                                                                                                                                                                                                                                                                                                                           190601-240    000042
1048421000095COBR_CAUC_BIC  ACUMULADORES AJAX LTDA                  010447097000139VIVAZ DISTRIBUICAO DE PECAS LTDA        RUA PEDRO ALVES DE ANDRADE N.280        JOAO PESSOA                             58053024PB373740000400573662002551909   26062012043JOAO PESSOA         1809201200000000000855543CC                                                                                                                                                                                                                                                                                                                                                                                           190601-241    000043
1048421000095COBR_CAUC_BIC  ACUMULADORES AJAX LTDA                  010447097000139VIVAZ DISTRIBUICAO DE PECAS LTDA        RUA PEDRO ALVES DE ANDRADE N.280        JOAO PESSOA                             58053024PB37374000050057256900255190A   26062012043JOAO PESSOA         2509201200000000000855543CC                                                                                                                                                                                                                                                                                                                                                                                           190601-242    000044
1048421000095COBR_CAUC_BIC  ACUMULADORES AJAX LTDA                  010447097000139VIVAZ DISTRIBUICAO DE PECAS LTDA        RUA PEDRO ALVES DE ANDRADE N.280        JOAO PESSOA                             58053024PB37374000060057257700255190B   26062012043JOAO PESSOA         0210201200000000000855543CC                                                                                                                                                                                                                                                                                                                                                                                           190601-243    000045
1048421000095COBR_CAUC_BIC  ACUMULADORES AJAX LTDA                  010447097000139VIVAZ DISTRIBUICAO DE PECAS LTDA        RUA PEDRO ALVES DE ANDRADE N.280        JOAO PESSOA                             58053024PB373740000700573719002552006   26062012043JOAO PESSOA         2808201200000000000198168CC                                                                                                                                                                                                                                                                                                                                                                                           190601-244    000046
1048421000095COBR_CAUC_BIC  ACUMULADORES AJAX LTDA                  010447097000139VIVAZ DISTRIBUICAO DE PECAS LTDA        RUA PEDRO ALVES DE ANDRADE N.280        JOAO PESSOA                             58053024PB373740000800573727002552007   26062012043JOAO PESSOA         0409201200000000000198168CC                                                                                                                                                                                                                                                                                                                                                                                           190601-245    000047
1048421000095COBR_CAUC_BIC  ACUMULADORES AJAX LTDA                  010447097000139VIVAZ DISTRIBUICAO DE PECAS LTDA        RUA PEDRO ALVES DE ANDRADE N.280        JOAO PESSOA                             58053024PB373740000900573581002552008   26062012043JOAO PESSOA         1109201200000000000198168CC                                                                                                                                                                                                                                                                                                                                                                                           190601-246    000048
1048421000095COBR_CAUC_BIC  ACUMULADORES AJAX LTDA                  010447097000139VIVAZ DISTRIBUICAO DE PECAS LTDA        RUA PEDRO ALVES DE ANDRADE N.280        JOAO PESSOA                             58053024PB373740001000573735002552009   26062012043JOAO PESSOA         1809201200000000000198168CC                                                                                                                                                                                                                                                                                                                                                                                           190601-247    000049
1048421000095COBR_CAUC_BIC  ACUMULADORES AJAX LTDA                  010447097000139VIVAZ DISTRIBUICAO DE PECAS LTDA        RUA PEDRO ALVES DE ANDRADE N.280        JOAO PESSOA                             58053024PB37374000110057258500255200A   26062012043JOAO PESSOA         2509201200000000000198168CC                                                                                                                                                                                                                                                                                                                                                                                           190601-248    000050
1048421000095COBR_CAUC_BIC  ACUMULADORES AJAX LTDA                  010447097000139VIVAZ DISTRIBUICAO DE PECAS LTDA        RUA PEDRO ALVES DE ANDRADE N.280        JOAO PESSOA                             58053024PB37374000120057259300255200B   26062012043JOAO PESSOA         0210201200000000000198168CC                                                                                                                                                                                                                                                                                                                                                                                           190601-249    000051
1048421000095COBR_CAUC_BIC  ACUMULADORES AJAX LTDA                  010447097000139VIVAZ DISTRIBUICAO DE PECAS LTDA        RUA PEDRO ALVES DE ANDRADE N.280        JOAO PESSOA                             58053024PB373740001300572691024033806   26062012043JOAO PESSOA         2808201200000000000616697CC                                                                                                                                                                                                                                                                                                                                                                                           190601-250    000052
1048421000095COBR_CAUC_BIC  ACUMULADORES AJAX LTDA                  010447097000139VIVAZ DISTRIBUICAO DE PECAS LTDA        RUA PEDRO ALVES DE ANDRADE N.280        JOAO PESSOA                             58053024PB373740001400572704024033807   26062012043JOAO PESSOA         0409201200000000000616697CC                                                                                                                                                                                                                                                                                                                                                                                           190601-251    000053
1048421000095COBR_CAUC_BIC  ACUMULADORES AJAX LTDA                  010447097000139VIVAZ DISTRIBUICAO DE PECAS LTDA        RUA PEDRO ALVES DE ANDRADE N.280        JOAO PESSOA                             58053024PB373740001500572712024033808   26062012043JOAO PESSOA         1109201200000000000616697CC                                                                                                                                                                                                                                                                                                                                                                                           190601-252    000054
1048421000095COBR_CAUC_BIC  ACUMULADORES AJAX LTDA                  010447097000139VIVAZ DISTRIBUICAO DE PECAS LTDA        RUA PEDRO ALVES DE ANDRADE N.280        JOAO PESSOA                             58053024PB373740001600572721024033809   26062012043JOAO PESSOA         1809201200000000000616697CC                                                                                                                                                                                                                                                                                                                                                                                           190601-253    000055
1048421000095COBR_CAUC_BIC  ACUMULADORES AJAX LTDA                  010447097000139VIVAZ DISTRIBUICAO DE PECAS LTDA        RUA PEDRO ALVES DE ANDRADE N.280        JOAO PESSOA                             58053024PB37374000170057273902403380A   26062012043JOAO PESSOA         2509201200000000000616697CC                                                                                                                                                                                                                                                                                                                                                                                           190601-254    000056
1048421000095COBR_CAUC_BIC  ACUMULADORES AJAX LTDA                  010447097000139VIVAZ DISTRIBUICAO DE PECAS LTDA        RUA PEDRO ALVES DE ANDRADE N.280        JOAO PESSOA                             58053024PB37374000180057274702403380B   26062012043JOAO PESSOA         0210201200000000000616697CC                                                                                                                                                                                                                                                                                                                                                                                           190601-255    000057
1048421000095COBR_CAUC_BIC  ACUMULADORES AJAX LTDA                  010447097000139VIVAZ DISTRIBUICAO DE PECAS LTDA        RUA PEDRO ALVES DE ANDRADE N.280        JOAO PESSOA                             58053024PB373740001900572798024033906   26062012043JOAO PESSOA         2808201200000000000141000CC                                                                                                                                                                                                                                                                                                                                                                                           190601-256    000058
1048421000095COBR_CAUC_BIC  ACUMULADORES AJAX LTDA                  010447097000139VIVAZ DISTRIBUICAO DE PECAS LTDA        RUA PEDRO ALVES DE ANDRADE N.280        JOAO PESSOA                             58053024PB373740002000572801024033907   26062012043JOAO PESSOA         0409201200000000000141000CC                                                                                                                                                                                                                                                                                                                                                                                           190601-257    000059
1048421000095COBR_CAUC_BIC  ACUMULADORES AJAX LTDA                  010447097000139VIVAZ DISTRIBUICAO DE PECAS LTDA        RUA PEDRO ALVES DE ANDRADE N.280        JOAO PESSOA                             58053024PB373740002100572810024033908   26062012043JOAO PESSOA         1109201200000000000141000CC                                                                                                                                                                                                                                                                                                                                                                                           190601-258    000060
1048421000095COBR_CAUC_BIC  ACUMULADORES AJAX LTDA                  010447097000139VIVAZ DISTRIBUICAO DE PECAS LTDA        RUA PEDRO ALVES DE ANDRADE N.280        JOAO PESSOA                             58053024PB373740002200572828024033909   26062012043JOAO PESSOA         1809201200000000000141000CC                                                                                                                                                                                                                                                                                                                                                                                           190601-259    000061
1048421000095COBR_CAUC_BIC  ACUMULADORES AJAX LTDA                  010447097000139VIVAZ DISTRIBUICAO DE PECAS LTDA        RUA PEDRO ALVES DE ANDRADE N.280        JOAO PESSOA                             58053024PB37374000230057283602403390A   26062012043JOAO PESSOA         2509201200000000000141000CC                                                                                                                                                                                                                                                                                                                                                                                           190601-260    000062
1048421000095COBR_CAUC_BIC  ACUMULADORES AJAX LTDA                  010447097000139VIVAZ DISTRIBUICAO DE PECAS LTDA        RUA PEDRO ALVES DE ANDRADE N.280        JOAO PESSOA                             58053024PB37374000240057284402403390B   26062012043JOAO PESSOA         0210201200000000000141000CC                                                                                                                                                                                                                                                                                                                                                                                           190601-261    000063
1048421000095COBR_CAUC_BIC  ACUMULADORES AJAX LTDA                  010447097000139VIVAZ DISTRIBUICAO DE PECAS LTDA        RUA PEDRO ALVES DE ANDRADE N.280        JOAO PESSOA                             58053024PB373740002500595607024253006   31072012043JOAO PESSOA         1911201200000000000881434CC                                                                                                                                                                                                                                                                                                                                                                                           190601-262    000064
1048421000095COBR_CAUC_BIC  ACUMULADORES AJAX LTDA                  011506258000180CARBAX COMERCIAL LTDA ME                R VIANA DO CASTELO N. 765               BELO HORIZONTE                          31255160MG373750000100593353002683503   03082012019BELO HORIZONTE      0611201200000000005311746CC                                                                                                                                                                                                                                                                                                                                                                                           190601-263    000065
1048421000095COBR_CAUC_BIC  ACUMULADORES AJAX LTDA                  011506258000180CARBAX COMERCIAL LTDA ME                R VIANA DO CASTELO N. 765               BELO HORIZONTE                          31255160MG373750000200593892002693303   06082012019BELO HORIZONTE      1710201200000000001089995CC                                                                                                                                                                                                                                                                                                                                                                                           190601-264    000066
1048421000095COBR_CAUC_BIC  ACUMULADORES AJAX LTDA                  011506258000180CARBAX COMERCIAL LTDA ME                R VIANA DO CASTELO N. 765               BELO HORIZONTE                          31255160MG373750000300593957002694602   07082012019BELO HORIZONTE      0810201200000000000438653CC                                                                                                                                                                                                                                                                                                                                                                                           190601-265    000067
1048421000095COBR_CAUC_BIC  ACUMULADORES AJAX LTDA                  011506258000180CARBAX COMERCIAL LTDA ME                R VIANA DO CASTELO N. 765               BELO HORIZONTE                          31255160MG373750000400593973002694603   07082012019BELO HORIZONTE      1810201200000000000438653CC                                                                                                                                                                                                                                                                                                                                                                                           190601-266    000068
1048421000095COBR_CAUC_BIC  ACUMULADORES AJAX LTDA                  011506258000180CARBAX COMERCIAL LTDA ME                R VIANA DO CASTELO N. 765               BELO HORIZONTE                          31255160MG373750000500593949002694702   07082012019BELO HORIZONTE      0810201200000000000260296CC                                                                                                                                                                                                                                                                                                                                                                                           190601-267    000069
1048421000095COBR_CAUC_BIC  ACUMULADORES AJAX LTDA                  011506258000180CARBAX COMERCIAL LTDA ME                R VIANA DO CASTELO N. 765               BELO HORIZONTE                          31255160MG373750000600597367002711101   14082012019BELO HORIZONTE      1509201200000000000496919CC                                                                                                                                                                                                                                                                                                                                                                                           190601-268    000070
1048421000095COBR_CAUC_BIC  ACUMULADORES AJAX LTDA                  011506258000180CARBAX COMERCIAL LTDA ME                R VIANA DO CASTELO N. 765               BELO HORIZONTE                          31255160MG373750000700597383002711701   14082012019BELO HORIZONTE      1509201200000000000184213CC                                                                                                                                                                                                                                                                                                                                                                                           190601-269    000071
1048421000095COBR_CAUC_BIC  ACUMULADORES AJAX LTDA                  011506258000180CARBAX COMERCIAL LTDA ME                R VIANA DO CASTELO N. 765               BELO HORIZONTE                          31255160MG373750000800597375002711801   14082012019BELO HORIZONTE      1509201200000000000111653CC                                                                                                                                                                                                                                                                                                                                                                                           190601-270    000072
1048421000095COBR_CAUC_BIC  ACUMULADORES AJAX LTDA                  011506258000180CARBAX COMERCIAL LTDA ME                R VIANA DO CASTELO N. 765               BELO HORIZONTE                          31255160MG373750000900597391002712001   14082012019BELO HORIZONTE      1509201200000000000183180CC                                                                                                                                                                                                                                                                                                                                                                                           190601-271    000073
1048421000095COBR_CAUC_BIC  ACUMULADORES AJAX LTDA                  011506258000180CARBAX COMERCIAL LTDA ME                R VIANA DO CASTELO N. 765               BELO HORIZONTE                          31255160MG373750001000578796024044402   13062012019BELO HORIZONTE      2708201200000000000929853CC                                                                                                                                                                                                                                                                                                                                                                                           190601-272    000074
1048421000095COBR_CAUC_BIC  ACUMULADORES AJAX LTDA                  011506258000180CARBAX COMERCIAL LTDA ME                R VIANA DO CASTELO N. 765               BELO HORIZONTE                          31255160MG373750001100578826024064901   19062012019BELO HORIZONTE      2308201200000000000938189CC                                                                                                                                                                                                                                                                                                                                                                                           190601-273    000075
1048421000095COBR_CAUC_BIC  ACUMULADORES AJAX LTDA                  011506258000180CARBAX COMERCIAL LTDA ME                R VIANA DO CASTELO N. 765               BELO HORIZONTE                          31255160MG373750001200578893024079301   21062012019BELO HORIZONTE      2708201200000000000239682CC                                                                                                                                                                                                                                                                                                                                                                                           190601-274    000076
1048421000095COBR_CAUC_BIC  ACUMULADORES AJAX LTDA                  011506258000180CARBAX COMERCIAL LTDA ME                R VIANA DO CASTELO N. 765               BELO HORIZONTE                          31255160MG373750001300578958024079402   21062012019BELO HORIZONTE      0409201200000000000021250CC                                                                                                                                                                                                                                                                                                                                                                                           190601-275    000077
1048421000095COBR_CAUC_BIC  ACUMULADORES AJAX LTDA                  011506258000180CARBAX COMERCIAL LTDA ME                R VIANA DO CASTELO N. 765               BELO HORIZONTE                          31255160MG373750001400578907024079502   21062012019BELO HORIZONTE      0409201200000000000011299CC                                                                                                                                                                                                                                                                                                                                                                                           190601-276    000078
1048421000095COBR_CAUC_BIC  ACUMULADORES AJAX LTDA                  011506258000180CARBAX COMERCIAL LTDA ME                R VIANA DO CASTELO N. 765               BELO HORIZONTE                          31255160MG373750001500578842024080401   21062012019BELO HORIZONTE      2708201200000000000235266CC                                                                                                                                                                                                                                                                                                                                                                                           190601-277    000079
1048421000095COBR_CAUC_BIC  ACUMULADORES AJAX LTDA                  011506258000180CARBAX COMERCIAL LTDA ME                R VIANA DO CASTELO N. 765               BELO HORIZONTE                          31255160MG373750001600578851024080402   21062012019BELO HORIZONTE      0409201200000000000235266CC                                                                                                                                                                                                                                                                                                                                                                                           190601-278    000080
1048421000095COBR_CAUC_BIC  ACUMULADORES AJAX LTDA                  011506258000180CARBAX COMERCIAL LTDA ME                R VIANA DO CASTELO N. 765               BELO HORIZONTE                          31255160MG373750001700578915024080501   21062012019BELO HORIZONTE      2708201200000000000137018CC                                                                                                                                                                                                                                                                                                                                                                                           190601-279    000081
1048421000095COBR_CAUC_BIC  ACUMULADORES AJAX LTDA                  011506258000180CARBAX COMERCIAL LTDA ME                R VIANA DO CASTELO N. 765               BELO HORIZONTE                          31255160MG373750001800578923024080502   21062012019BELO HORIZONTE      0409201200000000000137018CC                                                                                                                                                                                                                                                                                                                                                                                           190601-280    000082
1048421000095COBR_CAUC_BIC  ACUMULADORES AJAX LTDA                  011506258000180CARBAX COMERCIAL LTDA ME                R VIANA DO CASTELO N. 765               BELO HORIZONTE                          31255160MG373750001900578940024080602   21062012019BELO HORIZONTE      0409201200000000000072853CC                                                                                                                                                                                                                                                                                                                                                                                           190601-281    000083
1048421000095COBR_CAUC_BIC  ACUMULADORES AJAX LTDA                  011506258000180CARBAX COMERCIAL LTDA ME                R VIANA DO CASTELO N. 765               BELO HORIZONTE                          31255160MG373750002000579113024101901   26062012019BELO HORIZONTE      3008201200000000000067003CC                                                                                                                                                                                                                                                                                                                                                                                           190601-282    000084
1048421000095COBR_CAUC_BIC  ACUMULADORES AJAX LTDA                  011506258000180CARBAX COMERCIAL LTDA ME                R VIANA DO CASTELO N. 765               BELO HORIZONTE                          31255160MG373750002100593361024266303   03082012019BELO HORIZONTE      0811201200000000003576984CC                                                                                                                                                                                                                                                                                                                                                                                           190601-283    000085
1048421000095COBR_CAUC_BIC  ACUMULADORES AJAX LTDA                  005437649000198ORTSA COMERCIO DE BATERIAS LIMITAD      RUA ZELIA RAMOS DA COSTA 80             SAO PAULO                               03440020SP373760000100573743023664405   26032012007PAULISTA            1309201200000000000030256CC                                                                                                                                                                                                                                                                                                                                                                                           190601-284    000086
1048421000095COBR_CAUC_BIC  ACUMULADORES AJAX LTDA                  005437649000198ORTSA COMERCIO DE BATERIAS LIMITAD      RUA ZELIA RAMOS DA COSTA 80             SAO PAULO                               03440020SP373760000200573344024092602   26062012007PAULISTA            1409201200000000000790338CC                                                                                                                                                                                                                                                                                                                                                                                           190601-285    000087
1048421000095COBR_CAUC_BIC  ACUMULADORES AJAX LTDA                  005437649000198ORTSA COMERCIO DE BATERIAS LIMITAD      RUA ZELIA RAMOS DA COSTA 80             SAO PAULO                               03440020SP373760000300573352024092603   26062012007PAULISTA            1510201200000000000790338CC                                                                                                                                                                                                                                                                                                                                                                                           190601-286    000088
1048421000095COBR_CAUC_BIC  ACUMULADORES AJAX LTDA                  005437649000198ORTSA COMERCIO DE BATERIAS LIMITAD      RUA ZELIA RAMOS DA COSTA 80             SAO PAULO                               03440020SP373760000400586853024092604   26062012007PAULISTA            1311201200000000000790338CC                                                                                                                                                                                                                                                                                                                                                                                           190601-287    000089
1048421000095COBR_CAUC_BIC  ACUMULADORES AJAX LTDA                  005437649000198ORTSA COMERCIO DE BATERIAS LIMITAD      RUA ZELIA RAMOS DA COSTA 80             SAO PAULO                               03440020SP373760000500573379024092803   26062012007PAULISTA            1510201200000000000033340CC                                                                                                                                                                                                                                                                                                                                                                                           190601-288    000090
1048421000095COBR_CAUC_BIC  ACUMULADORES AJAX LTDA                  005437649000198ORTSA COMERCIO DE BATERIAS LIMITAD      RUA ZELIA RAMOS DA COSTA 80             SAO PAULO                               03440020SP373760000600573310024092902   26062012007PAULISTA            1009201200000000000200914CC                                                                                                                                                                                                                                                                                                                                                                                           190601-289    000091
1048421000095COBR_CAUC_BIC  ACUMULADORES AJAX LTDA                  005437649000198ORTSA COMERCIO DE BATERIAS LIMITAD      RUA ZELIA RAMOS DA COSTA 80             SAO PAULO                               03440020SP373760000700573328024092903   26062012007PAULISTA            0910201200000000000200974CC                                                                                                                                                                                                                                                                                                                                                                                           190601-290    000092
1048421000095COBR_CAUC_BIC  ACUMULADORES AJAX LTDA                  005437649000198ORTSA COMERCIO DE BATERIAS LIMITAD      RUA ZELIA RAMOS DA COSTA 80             SAO PAULO                               03440020SP373760000800574421024098002   26062012007PAULISTA            1409201200000000002682192CC                                                                                                                                                                                                                                                                                                                                                                                           190601-291    000093
1048421000095COBR_CAUC_BIC  ACUMULADORES AJAX LTDA                  005437649000198ORTSA COMERCIO DE BATERIAS LIMITAD      RUA ZELIA RAMOS DA COSTA 80             SAO PAULO                               03440020SP373760000900575070024098102   26062012007PAULISTA            1409201200000000000038362CC                                                                                                                                                                                                                                                                                                                                                                                           190601-292    000094
1048421000095COBR_CAUC_BIC  ACUMULADORES AJAX LTDA                  005437649000198ORTSA COMERCIO DE BATERIAS LIMITAD      RUA ZELIA RAMOS DA COSTA 80             SAO PAULO                               03440020SP373760001000575088024098103   26062012007PAULISTA            1510201200000000000038362CC                                                                                                                                                                                                                                                                                                                                                                                           190601-293    000095
1048421000095COBR_CAUC_BIC  ACUMULADORES AJAX LTDA                  005437649000198ORTSA COMERCIO DE BATERIAS LIMITAD      RUA ZELIA RAMOS DA COSTA 80             SAO PAULO                               03440020SP373760001100574405024098202   26062012007PAULISTA            1409201200000000005187684CC                                                                                                                                                                                                                                                                                                                                                                                           190601-294    000096
1048421000095COBR_CAUC_BIC  ACUMULADORES AJAX LTDA                  005437649000198ORTSA COMERCIO DE BATERIAS LIMITAD      RUA ZELIA RAMOS DA COSTA 80             SAO PAULO                               03440020SP373760001200574413024098203   26062012007PAULISTA            1510201200000000005187684CC                                                                                                                                                                                                                                                                                                                                                                                           190601-295    000097
1048421000095COBR_CAUC_BIC  ACUMULADORES AJAX LTDA                  005437649000198ORTSA COMERCIO DE BATERIAS LIMITAD      RUA ZELIA RAMOS DA COSTA 80             SAO PAULO                               03440020SP373760001300586861024098504   26062012007PAULISTA            1311201200000000001149698CC                                                                                                                                                                                                                                                                                                                                                                                           190601-296    000098
1048421000095COBR_CAUC_BIC  ACUMULADORES AJAX LTDA                  005437649000198ORTSA COMERCIO DE BATERIAS LIMITAD      RUA ZELIA RAMOS DA COSTA 80             SAO PAULO                               03440020SP373760001400575118024098602   26062012007PAULISTA            1409201200000000000010576CC                                                                                                                                                                                                                                                                                                                                                                                           190601-297    000099
1048421000095COBR_CAUC_BIC  ACUMULADORES AJAX LTDA                  005437649000198ORTSA COMERCIO DE BATERIAS LIMITAD      RUA ZELIA RAMOS DA COSTA 80             SAO PAULO                               03440020SP373760001500575126024098603   26062012007PAULISTA            1510201200000000000010576CC                                                                                                                                                                                                                                                                                                                                                                                           190601-298    000100
1048421000095COBR_CAUC_BIC  ACUMULADORES AJAX LTDA                  005437649000198ORTSA COMERCIO DE BATERIAS LIMITAD      RUA ZELIA RAMOS DA COSTA 80             SAO PAULO                               03440020SP373760001600575096024098702   26062012007PAULISTA            1409201200000000000192819CC                                                                                                                                                                                                                                                                                                                                                                                           190601-299    000101
1048421000095COBR_CAUC_BIC  ACUMULADORES AJAX LTDA                  005437649000198ORTSA COMERCIO DE BATERIAS LIMITAD      RUA ZELIA RAMOS DA COSTA 80             SAO PAULO                               03440020SP373760001700575100024098703   26062012007PAULISTA            1510201200000000000192819CC                                                                                                                                                                                                                                                                                                                                                                                           190601-300    000102
1048421000095COBR_CAUC_BIC  ACUMULADORES AJAX LTDA                  005437649000198ORTSA COMERCIO DE BATERIAS LIMITAD      RUA ZELIA RAMOS DA COSTA 80             SAO PAULO                               03440020SP373760001800575134024098802   26062012007PAULISTA            1409201200000000000024077CC                                                                                                                                                                                                                                                                                                                                                                                           190601-301    000103
1048421000095COBR_CAUC_BIC  ACUMULADORES AJAX LTDA                  005437649000198ORTSA COMERCIO DE BATERIAS LIMITAD      RUA ZELIA RAMOS DA COSTA 80             SAO PAULO                               03440020SP373760001900575142024098803   26062012007PAULISTA            1510201200000000000024077CC                                                                                                                                                                                                                                                                                                                                                                                           190601-302    000104
1048421000095COBR_CAUC_BIC  ACUMULADORES AJAX LTDA                  009488908000160BETAJAX BATERIAS LTDA                   RUA GERALDO RODRIGUES SANCHES 100       SAO JOSE DO RIO                         15061395SP373770000100567166002529901   18062012047AGENCIA RIO PRETO   0209201200000000004969795CC                                                                                                                                                                                                                                                                                                                                                                                           190601-303    000105
1048421000095COBR_CAUC_BIC  ACUMULADORES AJAX LTDA                  009488908000160BETAJAX BATERIAS LTDA                   RUA GERALDO RODRIGUES SANCHES 100       SAO JOSE DO RIO                         15061395SP373770000200580685002742703   10072012047AGENCIA RIO PRETO   2610201200000000003911575CC                                                                                                                                                                                                                                                                                                                                                                                           190601-304    000106
1048421000095COBR_CAUC_BIC  ACUMULADORES AJAX LTDA                  009488908000160BETAJAX BATERIAS LTDA                   RUA GERALDO RODRIGUES SANCHES 100       SAO JOSE DO RIO                         15061395SP373770000300580693002744303   10072012047AGENCIA RIO PRETO   2510201200000000003245691CC                                                                                                                                                                                                                                                                                                                                                                                           190601-305    000107
1048421000095COBR_CAUC_BIC  ACUMULADORES AJAX LTDA                  009488908000160BETAJAX BATERIAS LTDA                   RUA GERALDO RODRIGUES SANCHES 100       SAO JOSE DO RIO                         15061395SP373770000400595658003312102   13082012047AGENCIA RIO PRETO   1910201200000000003655910CC                                                                                                                                                                                                                                                                                                                                                                                           190601-306    000108
1048421000095COBR_CAUC_BIC  ACUMULADORES AJAX LTDA                  009488908000160BETAJAX BATERIAS LTDA                   RUA GERALDO RODRIGUES SANCHES 100       SAO JOSE DO RIO                         15061395SP373770000500571465024087901   22062012047AGENCIA RIO PRETO   2509201200000000000190700CC                                                                                                                                                                                                                                                                                                                                                                                           190601-307    000109
1048421000095COBR_CAUC_BIC  ACUMULADORES AJAX LTDA                  009488908000160BETAJAX BATERIAS LTDA                   RUA GERALDO RODRIGUES SANCHES 100       SAO JOSE DO RIO                         15061395SP373770000600574472024100502   26062012047AGENCIA RIO PRETO   0409201200000000002337582CC                                                                                                                                                                                                                                                                                                                                                                                           190601-308    000110
1048421000095COBR_CAUC_BIC  ACUMULADORES AJAX LTDA                  009488908000160BETAJAX BATERIAS LTDA                   RUA GERALDO RODRIGUES SANCHES 100       SAO JOSE DO RIO                         15061395SP373770000700574481024100503   26062012047AGENCIA RIO PRETO   1909201200000000002337582CC                                                                                                                                                                                                                                                                                                                                                                                           190601-309    000111
1048421000095COBR_CAUC_BIC  ACUMULADORES AJAX LTDA                  009488908000160BETAJAX BATERIAS LTDA                   RUA GERALDO RODRIGUES SANCHES 100       SAO JOSE DO RIO                         15061395SP373770000800573921024100505   26062012047AGENCIA RIO PRETO   1910201200000000002337582CC                                                                                                                                                                                                                                                                                                                                                                                           190601-310    000112
1048421000095COBR_CAUC_BIC  ACUMULADORES AJAX LTDA                  009488908000160BETAJAX BATERIAS LTDA                   RUA GERALDO RODRIGUES SANCHES 100       SAO JOSE DO RIO                         15061395SP373770000900573778024100605   26062012047AGENCIA RIO PRETO   1910201200000000000087194CC                                                                                                                                                                                                                                                                                                                                                                                           190601-311    000113
1048421000095COBR_CAUC_COR  ACUMULADORES AJAX LTDA                  001564185000120COMERCIAL AMAJAX VITORIA LTDA           RUA BURARAMA 40                         VILA VELHA                              29111270ES373780000100589771002875501   20072012900BRADESCO S/A        1809201200000000005352407CC                                                                                                                                                                                                                                                                                                                                                                                           190601-312    000114
1048421000095COBR_CAUC_COR  ACUMULADORES AJAX LTDA                  001564185000120COMERCIAL AMAJAX VITORIA LTDA           RUA BURARAMA 40                         VILA VELHA                              29111270ES373780000200589780002875502   20072012900BRADESCO S/A        0910201200000000005352407CC                                                                                                                                                                                                                                                                                                                                                                                           190601-313    000115
1048421000095COBR_CAUC_COR  ACUMULADORES AJAX LTDA                  001564185000120COMERCIAL AMAJAX VITORIA LTDA           RUA BURARAMA 40                         VILA VELHA                              29111270ES373780000300589798002875503   20072012900BRADESCO S/A        1910201200000000005352407CC                                                                                                                                                                                                                                                                                                                                                                                           190601-314    000116
1048421000095COBR_CAUC_COR  ACUMULADORES AJAX LTDA                  001564185000120COMERCIAL AMAJAX VITORIA LTDA           RUA BURARAMA 40                         VILA VELHA                              29111270ES373780000400589682002951201   19072012900BRADESCO S/A        1309201200000000004255781CC                                                                                                                                                                                                                                                                                                                                                                                           190601-315    000117
1048421000095COBR_CAUC_COR  ACUMULADORES AJAX LTDA                  001564185000120COMERCIAL AMAJAX VITORIA LTDA           RUA BURARAMA 40                         VILA VELHA                              29111270ES373780000500589755002975402   20072012900BRADESCO S/A        1109201200000000005801791CC                                                                                                                                                                                                                                                                                                                                                                                           190601-316    000118
1048421000095COBR_CAUC_COR  ACUMULADORES AJAX LTDA                  001564185000120COMERCIAL AMAJAX VITORIA LTDA           RUA BURARAMA 40                         VILA VELHA                              29111270ES373780000600589763002975403   20072012900BRADESCO S/A        2009201200000000005801791CC                                                                                                                                                                                                                                                                                                                                                                                           190601-317    000119
1048421000095COBR_CAUC_COR  ACUMULADORES AJAX LTDA                  001564185000120COMERCIAL AMAJAX VITORIA LTDA           RUA BURARAMA 40                         VILA VELHA                              29111270ES373780000700591342003120303   27072012900BRADESCO S/A        2410201200000000004512615CC                                                                                                                                                                                                                                                                                                                                                                                           190601-318    000120
1048421000095COBR_CAUC_COR  ACUMULADORES AJAX LTDA                  001564185000120COMERCIAL AMAJAX VITORIA LTDA           RUA BURARAMA 40                         VILA VELHA                              29111270ES373780000800591300024228902   26072012900BRADESCO S/A        2510201200000000000254300CC                                                                                                                                                                                                                                                                                                                                                                                           190601-319    000121
1048421000095COBR_CAUC_COR  ACUMULADORES AJAX LTDA                  001564185000120COMERCIAL AMAJAX VITORIA LTDA           RUA BURARAMA 40                         VILA VELHA                              29111270ES373780000900591296024229402   26072012900BRADESCO S/A        2510201200000000000381000CC                                                                                                                                                                                                                                                                                                                                                                                           190601-320    000122
1048421000095COBR_CAUC_COR  ACUMULADORES AJAX LTDA                  001564185000120COMERCIAL AMAJAX VITORIA LTDA           RUA BURARAMA 40                         VILA VELHA                              29111270ES3737800010005913182542601     24072012900BRADESCO S/A        1610201200000000001312544CC                                                                                                                                                                                                                                                                                                                                                                                           190601-321    000123
1048421000095COBR_CAUC_COR  ACUMULADORES AJAX LTDA                  001564185000120COMERCIAL AMAJAX VITORIA LTDA           RUA BURARAMA 40                         VILA VELHA                              29111270ES3737800011005913342563301     24072012900BRADESCO S/A        1610201200000000000155858CC                                                                                                                                                                                                                                                                                                                                                                                           190601-322    000124
1048421000095COBR_CAUC_COR  ACUMULADORES AJAX LTDA                  001564185000120COMERCIAL AMAJAX VITORIA LTDA           RUA BURARAMA 40                         VILA VELHA                              29111270ES3737800012005913262589501     24072012900BRADESCO S/A        1610201200000000000119668CC                                                                                                                                                                                                                                                                                                                                                                                           190601-323    000125
1048421000095COBR_CAUC_BIC  ACUMULADORES AJAX LTDA                  000610882000107MARCON COMERCIO DE BATERIAS LTDA        RUA GERALDO RODRIGUES SANCHES 100       SAO JOSE DO RIO                         15061395SP373790000100571066024075603   21062012047AGENCIA RIO PRETO   1909201200000000000406179CC                                                                                                                                                                                                                                                                                                                                                                                           190601-324    000126
1048421000095COBR_CAUC_BIC  ACUMULADORES AJAX LTDA                  000610882000107MARCON COMERCIO DE BATERIAS LTDA        RUA GERALDO RODRIGUES SANCHES 100       SAO JOSE DO RIO                         15061395SP373790000200567182002563901   19062012047AGENCIA RIO PRETO   0109201200000000004583129CC                                                                                                                                                                                                                                                                                                                                                                                           190601-325    000127
1048421000095COBR_CAUC_BIC  ACUMULADORES AJAX LTDA                  000610882000107MARCON COMERCIO DE BATERIAS LTDA        RUA GERALDO RODRIGUES SANCHES 100       SAO JOSE DO RIO                         15061395SP373790000300567174002563902   19062012047AGENCIA RIO PRETO   0509201200000000004583129CC                                                                                                                                                                                                                                                                                                                                                                                           190601-326    000128
1048421000095COBR_CAUC_BIC  ACUMULADORES AJAX LTDA                  000610882000107MARCON COMERCIO DE BATERIAS LTDA        RUA GERALDO RODRIGUES SANCHES 100       SAO JOSE DO RIO                         15061395SP373790000400571694002577203   21062012047AGENCIA RIO PRETO   0409201200000000000764051CC                                                                                                                                                                                                                                                                                                                                                                                           190601-327    000129
1048421000095COBR_CAUC_BIC  ACUMULADORES AJAX LTDA                  000610882000107MARCON COMERCIO DE BATERIAS LTDA        RUA GERALDO RODRIGUES SANCHES 100       SAO JOSE DO RIO                         15061395SP373790000500571686002577204   21062012047AGENCIA RIO PRETO   1909201200000000000764051CC                                                                                                                                                                                                                                                                                                                                                                                           190601-328    000130
1048421000095COBR_CAUC_BIC  ACUMULADORES AJAX LTDA                  000610882000107MARCON COMERCIO DE BATERIAS LTDA        RUA GERALDO RODRIGUES SANCHES 100       SAO JOSE DO RIO                         15061395SP373790000600571678002577206   21062012047AGENCIA RIO PRETO   1910201200000000000764051CC                                                                                                                                                                                                                                                                                                                                                                                           190601-329    000131
1048421000095COBR_CAUC_BIC  ACUMULADORES AJAX LTDA                  000610882000107MARCON COMERCIO DE BATERIAS LTDA        RUA GERALDO RODRIGUES SANCHES 100       SAO JOSE DO RIO                         15061395SP373790000700571201002583803   22062012047AGENCIA RIO PRETO   0409201200000000000669093CC                                                                                                                                                                                                                                                                                                                                                                                           190601-330    000132
1048421000095COBR_CAUC_BIC  ACUMULADORES AJAX LTDA                  000610882000107MARCON COMERCIO DE BATERIAS LTDA        RUA GERALDO RODRIGUES SANCHES 100       SAO JOSE DO RIO                         15061395SP373790000800571198002583804   22062012047AGENCIA RIO PRETO   1909201200000000000669093CC                                                                                                                                                                                                                                                                                                                                                                                           190601-331    000133
1048421000095COBR_CAUC_BIC  ACUMULADORES AJAX LTDA                  000610882000107MARCON COMERCIO DE BATERIAS LTDA        RUA GERALDO RODRIGUES SANCHES 100       SAO JOSE DO RIO                         15061395SP373790000900571180002583805   22062012047AGENCIA RIO PRETO   0410201200000000000669093CC                                                                                                                                                                                                                                                                                                                                                                                           190601-332    000134
1048421000095COBR_CAUC_BIC  ACUMULADORES AJAX LTDA                  000610882000107MARCON COMERCIO DE BATERIAS LTDA        RUA GERALDO RODRIGUES SANCHES 100       SAO JOSE DO RIO                         15061395SP373790001000571171002583806   22062012047AGENCIA RIO PRETO   1910201200000000000669093CC                                                                                                                                                                                                                                                                                                                                                                                           190601-333    000135
1048421000095COBR_CAUC_BIC  ACUMULADORES AJAX LTDA                  000610882000107MARCON COMERCIO DE BATERIAS LTDA        RUA GERALDO RODRIGUES SANCHES 100       SAO JOSE DO RIO                         15061395SP373790001100575525002590303   26062012047AGENCIA RIO PRETO   0409201200000000000059874CC                                                                                                                                                                                                                                                                                                                                                                                           190601-334    000136
1048421000095COBR_CAUC_BIC  ACUMULADORES AJAX LTDA                  000610882000107MARCON COMERCIO DE BATERIAS LTDA        RUA GERALDO RODRIGUES SANCHES 100       SAO JOSE DO RIO                         15061395SP373790001200575533002590304   26062012047AGENCIA RIO PRETO   1909201200000000000059874CC                                                                                                                                                                                                                                                                                                                                                                                           190601-335    000137
1048421000095COBR_CAUC_BIC  ACUMULADORES AJAX LTDA                  000610882000107MARCON COMERCIO DE BATERIAS LTDA        RUA GERALDO RODRIGUES SANCHES 100       SAO JOSE DO RIO                         15061395SP373790001300575541002590305   26062012047AGENCIA RIO PRETO   0410201200000000000059874CC                                                                                                                                                                                                                                                                                                                                                                                           190601-336    000138
1048421000095COBR_CAUC_BIC  ACUMULADORES AJAX LTDA                  000610882000107MARCON COMERCIO DE BATERIAS LTDA        RUA GERALDO RODRIGUES SANCHES 100       SAO JOSE DO RIO                         15061395SP373790001400575550002590306   26062012047AGENCIA RIO PRETO   1910201200000000000059874CC                                                                                                                                                                                                                                                                                                                                                                                           190601-337    000139
1048421000095COBR_CAUC_BIC  ACUMULADORES AJAX LTDA                  000610882000107MARCON COMERCIO DE BATERIAS LTDA        RUA GERALDO RODRIGUES SANCHES 100       SAO JOSE DO RIO                         15061395SP373790001500575461002591303   26062012047AGENCIA RIO PRETO   0409201200000000000067164CC                                                                                                                                                                                                                                                                                                                                                                                           190601-338    000140
1048421000095COBR_CAUC_BIC  ACUMULADORES AJAX LTDA                  000610882000107MARCON COMERCIO DE BATERIAS LTDA        RUA GERALDO RODRIGUES SANCHES 100       SAO JOSE DO RIO                         15061395SP373790001600575479002591304   26062012047AGENCIA RIO PRETO   1909201200000000000067164CC                                                                                                                                                                                                                                                                                                                                                                                           190601-339    000141
1048421000095COBR_CAUC_BIC  ACUMULADORES AJAX LTDA                  000610882000107MARCON COMERCIO DE BATERIAS LTDA        RUA GERALDO RODRIGUES SANCHES 100       SAO JOSE DO RIO                         15061395SP373790001700575487002591305   26062012047AGENCIA RIO PRETO   0410201200000000000067164CC                                                                                                                                                                                                                                                                                                                                                                                           190601-340    000142
