0REMESSANOTIFICAÇÃO ELETRONICA        99999999999999Bicbanco S/A                            Avenida Brigadeiro Faria Lima           4.440     2º andar  Itaim Bibi                    São Paulo                     04538132SPBicbanco S/A                                                                    27072012                                                                                                                                                                                                                                                                                                                                                                                                000001
1048421000338COBR_CAUC_COR  FRIGOESTRELA S.A. EM RECUP JUDICIAL     008386287000141BERMAS MARACANAU IND E COM DE COUR      AV CONTORNOS/NDISTRITO INDUSTRIAL       MARACANAU                               61939160CE3654100001024008970001235501  13072012900BRADESCO S/A        1208201200000000028819210CC                                                                                                                                                                                                                                                                                                                                                                                           185350-1      000002
1007421032516COBR_CAUC_BIC  NITRIFLEX SP IND E COM DE BORRACHAS     050937564000123CORREIAS MERCURIO SA INDUSTRIA E C      RUA JOSE SPINA, 10                      JUNDIAI                                 13210780SP365420000101340653001100101   13072012007PAULISTA            1708201200000000014444291CC                                                                                                                                                                                                                                                                                                                                                                                           185350-2      000003
1021421015910COBR_CAUC_BIC  ZERO COM E DIST PROD DE TELEC LTDA      047960950010194MAGAZINE LUIZA S A                      RUA DO COMERCIO,1924                    FRANCA SP                               14400660SP365430000106344824000004099   20062012022RIBEIRAO PRETO      0409201200000000014520000CC                                                                                                                                                                                                                                                                                                                                                                                           185350-3      000004
1021421015910COBR_CAUC_BIC  ZERO COM E DIST PROD DE TELEC LTDA      047960950010194MAGAZINE LUIZA S A                      RUA DO COMERCIO,1924                    FRANCA SP                               14400660SP365430000206344859000004098   20062012022RIBEIRAO PRETO      0209201200000000023100000CC                                                                                                                                                                                                                                                                                                                                                                                           185350-4      000005
1021421015910COBR_CAUC_BIC  ZERO COM E DIST PROD DE TELEC LTDA      047960950010194MAGAZINE LUIZA S A                      RUA DO COMERCIO,1924                    FRANCA SP                               14400660SP365430000306344867000004103   20062012022RIBEIRAO PRETO      0309201200000000011220000CC                                                                                                                                                                                                                                                                                                                                                                                           185350-5      000006
1021421015910COBR_CAUC_BIC  ZERO COM E DIST PROD DE TELEC LTDA      047960950010194MAGAZINE LUIZA S A                      RUA DO COMERCIO,1924                    FRANCA SP                               14400660SP365430000406344875000003966   01062012022RIBEIRAO PRETO      2709201200000000020665500CC                                                                                                                                                                                                                                                                                                                                                                                           185350-6      000007
1021421015910COBR_CAUC_BIC  ZERO COM E DIST PROD DE TELEC LTDA      047960950010194MAGAZINE LUIZA S A                      RUA DO COMERCIO,1924                    FRANCA SP                               14400660SP365430000506344883000003967   01062012022RIBEIRAO PRETO      0109201200000000024507600CC                                                                                                                                                                                                                                                                                                                                                                                           185350-7      000008
1021421015910COBR_CAUC_BIC  ZERO COM E DIST PROD DE TELEC LTDA      047960950010194MAGAZINE LUIZA S A                      RUA DO COMERCIO,1924                    FRANCA SP                               14400660SP365430000606344891000004100   20062012022RIBEIRAO PRETO      0109201200000000039600000CC                                                                                                                                                                                                                                                                                                                                                                                           185350-8      000009
1021421015910COBR_CAUC_BIC  ZERO COM E DIST PROD DE TELEC LTDA      047960950010194MAGAZINE LUIZA S A                      RUA DO COMERCIO,1924                    FRANCA SP                               14400660SP365430000706344905000004101   20062012022RIBEIRAO PRETO      0109201200000000025080000CC                                                                                                                                                                                                                                                                                                                                                                                           185350-9      000010
1021421015830COBR_CAUC_COR  ATIBAIA ALIMENTOS ABATED AVES LTDA      002895198000144SUPERMERCADO ALTA ROTACAO LTDA          RUA NARUMI NAKAYAMA, 29                 EMBU                                    06816250SP365550000100006714000177126   04072012900BRADESCO S/A        2507201200000000000606600CC                                                                                                                                                                                                                                                                                                                                                                                           185350-10     000011
1021421015830COBR_CAUC_COR  ATIBAIA ALIMENTOS ABATED AVES LTDA      067758169000186MEQSO FRANGO COMERCIO DE PRODUTOS       RUA CARMELA NANO,36                     JUNDIAI                                 13211710SP365560000100006129000177067   03072012900BRADESCO S/A        3107201200000000000650000CC                                                                                                                                                                                                                                                                                                                                                                                           185350-11     000012
1021421015830COBR_CAUC_COR  ATIBAIA ALIMENTOS ABATED AVES LTDA      039553144000100NAOMI COMERCIO DE ALIMENTOS LTDA        AVENIDA ANTONIO DE ALMEIDA, N.1477      VOLTA REDONDA                           27330041RJ365570000100005971000177052   03072012900BRADESCO S/A        3107201200000000000126000CC                                                                                                                                                                                                                                                                                                                                                                                           185350-12     000013
1021421015830COBR_CAUC_COR  ATIBAIA ALIMENTOS ABATED AVES LTDA      039553144000100NAOMI COMERCIO DE ALIMENTOS LTDA        AVENIDA ANTONIO DE ALMEIDA, N.1477      VOLTA REDONDA                           27330041RJ365570000200006005000177055   03072012900BRADESCO S/A        3107201200000000000096000CC                                                                                                                                                                                                                                                                                                                                                                                           185350-13     000014
1021421015830COBR_CAUC_COR  ATIBAIA ALIMENTOS ABATED AVES LTDA      039553144000100NAOMI COMERCIO DE ALIMENTOS LTDA        AVENIDA ANTONIO DE ALMEIDA, N.1477      VOLTA REDONDA                           27330041RJ365570000300006013000177056   03072012900BRADESCO S/A        3107201200000000000126000CC                                                                                                                                                                                                                                                                                                                                                                                           185350-14     000015
1021421015830COBR_CAUC_COR  ATIBAIA ALIMENTOS ABATED AVES LTDA      039553144000100NAOMI COMERCIO DE ALIMENTOS LTDA        AVENIDA ANTONIO DE ALMEIDA, N.1477      VOLTA REDONDA                           27330041RJ365570000400006030000177058   03072012900BRADESCO S/A        3107201200000000000156000CC                                                                                                                                                                                                                                                                                                                                                                                           185350-15     000016
1021421015830COBR_CAUC_COR  ATIBAIA ALIMENTOS ABATED AVES LTDA      039553144000100NAOMI COMERCIO DE ALIMENTOS LTDA        AVENIDA ANTONIO DE ALMEIDA, N.1477      VOLTA REDONDA                           27330041RJ365570000500006277000177083   04072012900BRADESCO S/A        0108201200000000000026100CC                                                                                                                                                                                                                                                                                                                                                                                           185350-16     000017
1021421015830COBR_CAUC_COR  ATIBAIA ALIMENTOS ABATED AVES LTDA      039553144000100NAOMI COMERCIO DE ALIMENTOS LTDA        AVENIDA ANTONIO DE ALMEIDA, N.1477      VOLTA REDONDA                           27330041RJ365570000600006307000177086   04072012900BRADESCO S/A        0108201200000000000053700CC                                                                                                                                                                                                                                                                                                                                                                                           185350-17     000018
1021421015830COBR_CAUC_COR  ATIBAIA ALIMENTOS ABATED AVES LTDA      039553144000100NAOMI COMERCIO DE ALIMENTOS LTDA        AVENIDA ANTONIO DE ALMEIDA, N.1477      VOLTA REDONDA                           27330041RJ365570000700006323000177088   04072012900BRADESCO S/A        0108201200000000000067800CC                                                                                                                                                                                                                                                                                                                                                                                           185350-18     000019
1021421015830COBR_CAUC_COR  ATIBAIA ALIMENTOS ABATED AVES LTDA      001845252000184SUPERMERCADO J J J X LTDA               EST PRES JUSCELINO KUBISTCHECK 2985     GUARULHOS                               07252000SP365580000100005394000176050   28062012900BRADESCO S/A        0208201200000000000664000CC                                                                                                                                                                                                                                                                                                                                                                                           185350-19     000020
1021421015830COBR_CAUC_COR  ATIBAIA ALIMENTOS ABATED AVES LTDA      058044090000100FRANGUEX GENEROS ALIMENTICIOS LTDA      AV JAGUARE, 1500                        SAO PAULO                               05346000SP365590000100005009000176009   28062012900BRADESCO S/A        1907201200000000000675000CC                                                                                                                                                                                                                                                                                                                                                                                           185350-20     000021
1021421015830COBR_CAUC_COR  ATIBAIA ALIMENTOS ABATED AVES LTDA      071779813000250SUPERMERCADO X LTDA                     AVENIDA ANTONIO MASSA, 300              POA                                     08550350SP365600000100003782000175885   28062012900BRADESCO S/A        0208201200000000000235750CC                                                                                                                                                                                                                                                                                                                                                                                           185350-21     000022
1021421015830COBR_CAUC_COR  ATIBAIA ALIMENTOS ABATED AVES LTDA      071779813000250SUPERMERCADO X LTDA                     AVENIDA ANTONIO MASSA, 300              POA                                     08550350SP365600000200005408000176051   28062012900BRADESCO S/A        0208201200000000000480050CC                                                                                                                                                                                                                                                                                                                                                                                           185350-22     000023
1021421015830COBR_CAUC_COR  ATIBAIA ALIMENTOS ABATED AVES LTDA      068954742000190MINI MERCADO E PADARIA PONTOBOM LT      R. DA AGUA CHATA,245                    ITAQUAQUECETUBA                         08576020SP365610000100005416000176052   28062012900BRADESCO S/A        0208201200000000000729000CC                                                                                                                                                                                                                                                                                                                                                                                           185350-23     000024
1021421015830COBR_CAUC_COR  ATIBAIA ALIMENTOS ABATED AVES LTDA      007569651000650SUPERMERCADO NACOES UNIDAS LTDA         AV YERVANT KISSAJIKIAN,1918             SAO PAULO                               04428000SP365620000100003634000175870   28062012900BRADESCO S/A        0208201200000000000224600CC                                                                                                                                                                                                                                                                                                                                                                                           185350-24     000025
1021421015830COBR_CAUC_COR  ATIBAIA ALIMENTOS ABATED AVES LTDA      007569651000650SUPERMERCADO NACOES UNIDAS LTDA         AV YERVANT KISSAJIKIAN,1918             SAO PAULO                               04428000SP365620000200004827000175990   28062012900BRADESCO S/A        0208201200000000000249400CC                                                                                                                                                                                                                                                                                                                                                                                           185350-25     000026
1021421015830COBR_CAUC_COR  ATIBAIA ALIMENTOS ABATED AVES LTDA      007569651000650SUPERMERCADO NACOES UNIDAS LTDA         AV YERVANT KISSAJIKIAN,1918             SAO PAULO                               04428000SP365620000300006404000177096   04072012900BRADESCO S/A        0808201200000000000064640CC                                                                                                                                                                                                                                                                                                                                                                                           185350-26     000027
1021421015830COBR_CAUC_COR  ATIBAIA ALIMENTOS ABATED AVES LTDA      007569651000650SUPERMERCADO NACOES UNIDAS LTDA         AV YERVANT KISSAJIKIAN,1918             SAO PAULO                               04428000SP365620000400006447000177100   04072012900BRADESCO S/A        0808201200000000000256020CC                                                                                                                                                                                                                                                                                                                                                                                           185350-27     000028
1021421015830COBR_CAUC_COR  ATIBAIA ALIMENTOS ABATED AVES LTDA      059635318000191ALTA DISTRIBUIDORA DE AVES LTDA         RUA LUIZ GONZAGA, 435                   LOUVEIRA                                13290000SP365630000100005157000176025   28062012900BRADESCO S/A        1907201200000000000873222CC                                                                                                                                                                                                                                                                                                                                                                                           185350-28     000029
1021421015830COBR_CAUC_COR  ATIBAIA ALIMENTOS ABATED AVES LTDA      009436733000229SUPERMERCADO AKI TUDO LTDA              AV DA MOENDA VELHA , 308                SAO PAULO                               05880330SP365640000100004321000175940   28062012900BRADESCO S/A        0208201200000000000140400CC                                                                                                                                                                                                                                                                                                                                                                                           185350-29     000030
1021421015830COBR_CAUC_COR  ATIBAIA ALIMENTOS ABATED AVES LTDA      009436733000229SUPERMERCADO AKI TUDO LTDA              AV DA MOENDA VELHA , 308                SAO PAULO                               05880330SP365640000200006668000177122   04072012900BRADESCO S/A        0808201200000000000929700CC                                                                                                                                                                                                                                                                                                                                                                                           185350-30     000031
1021421015830COBR_CAUC_COR  ATIBAIA ALIMENTOS ABATED AVES LTDA      006341293000408A MAIS SUPERMERCADOS LTDA               RUA CANEDOS , 100                       SAO PAULO                               02252010SP365650000100003481000175855   27062012900BRADESCO S/A        0108201200000000000031200CC                                                                                                                                                                                                                                                                                                                                                                                           185350-31     000032
1021421015830COBR_CAUC_COR  ATIBAIA ALIMENTOS ABATED AVES LTDA      006341293000408A MAIS SUPERMERCADOS LTDA               RUA CANEDOS , 100                       SAO PAULO                               02252010SP365650000200005327000176043   28062012900BRADESCO S/A        0208201200000000000258800CC                                                                                                                                                                                                                                                                                                                                                                                           185350-32     000033
1021421015830COBR_CAUC_COR  ATIBAIA ALIMENTOS ABATED AVES LTDA      006341293000408A MAIS SUPERMERCADOS LTDA               RUA CANEDOS , 100                       SAO PAULO                               02252010SP365650000300005572000176068   28062012900BRADESCO S/A        0208201200000000000205400CC                                                                                                                                                                                                                                                                                                                                                                                           185350-33     000034
1021421015830COBR_CAUC_COR  ATIBAIA ALIMENTOS ABATED AVES LTDA      006341293000408A MAIS SUPERMERCADOS LTDA               RUA CANEDOS , 100                       SAO PAULO                               02252010SP365650000400006421000177098   04072012900BRADESCO S/A        0808201200000000000399820CC                                                                                                                                                                                                                                                                                                                                                                                           185350-34     000035
1021421015830COBR_CAUC_COR  ATIBAIA ALIMENTOS ABATED AVES LTDA      006341293000408A MAIS SUPERMERCADOS LTDA               RUA CANEDOS , 100                       SAO PAULO                               02252010SP365650000500007711000177228   04072012900BRADESCO S/A        0808201200000000000073700CC                                                                                                                                                                                                                                                                                                                                                                                           185350-35     000036
1021421015830COBR_CAUC_COR  ATIBAIA ALIMENTOS ABATED AVES LTDA      006341293000408A MAIS SUPERMERCADOS LTDA               RUA CANEDOS , 100                       SAO PAULO                               02252010SP365650000600007729000177229   04072012900BRADESCO S/A        0808201200000000000107420CC                                                                                                                                                                                                                                                                                                                                                                                           185350-36     000037
1021421015830COBR_CAUC_COR  ATIBAIA ALIMENTOS ABATED AVES LTDA      048124457001106SUPERMERCADO RIVIERA LTDA               ESTRADA DO ALVARENGA, 1694              SAO PAULO                               04467000SP365660000100003928000175900   28062012900BRADESCO S/A        0208201200000000000259200CC                                                                                                                                                                                                                                                                                                                                                                                           185350-37     000038
1021421015830COBR_CAUC_COR  ATIBAIA ALIMENTOS ABATED AVES LTDA      048124457001106SUPERMERCADO RIVIERA LTDA               ESTRADA DO ALVARENGA, 1694              SAO PAULO                               04467000SP365660000200004169000175924   28062012900BRADESCO S/A        0208201200000000000122200CC                                                                                                                                                                                                                                                                                                                                                                                           185350-38     000039
1021421015830COBR_CAUC_COR  ATIBAIA ALIMENTOS ABATED AVES LTDA      048124457001106SUPERMERCADO RIVIERA LTDA               ESTRADA DO ALVARENGA, 1694              SAO PAULO                               04467000SP365660000300004266000175934   28062012900BRADESCO S/A        0208201200000000000221400CC                                                                                                                                                                                                                                                                                                                                                                                           185350-39     000040
1021421015830COBR_CAUC_COR  ATIBAIA ALIMENTOS ABATED AVES LTDA      048124457001106SUPERMERCADO RIVIERA LTDA               ESTRADA DO ALVARENGA, 1694              SAO PAULO                               04467000SP365660000400005378000176048   28062012900BRADESCO S/A        0208201200000000000066600CC                                                                                                                                                                                                                                                                                                                                                                                           185350-40     000041
1021421015830COBR_CAUC_COR  ATIBAIA ALIMENTOS ABATED AVES LTDA      048124457001106SUPERMERCADO RIVIERA LTDA               ESTRADA DO ALVARENGA, 1694              SAO PAULO                               04467000SP365660000500006676000177123   04072012900BRADESCO S/A        0808201200000000000097580CC                                                                                                                                                                                                                                                                                                                                                                                           185350-41     000042
1021421015830COBR_CAUC_COR  ATIBAIA ALIMENTOS ABATED AVES LTDA      048124457001106SUPERMERCADO RIVIERA LTDA               ESTRADA DO ALVARENGA, 1694              SAO PAULO                               04467000SP365660000600007117000177167   04072012900BRADESCO S/A        0808201200000000000114440CC                                                                                                                                                                                                                                                                                                                                                                                           185350-42     000043
1021421015830COBR_CAUC_COR  ATIBAIA ALIMENTOS ABATED AVES LTDA      048124457001106SUPERMERCADO RIVIERA LTDA               ESTRADA DO ALVARENGA, 1694              SAO PAULO                               04467000SP365660000700007630000177219   04072012900BRADESCO S/A        0808201200000000000227430CC                                                                                                                                                                                                                                                                                                                                                                                           185350-43     000044
1021421015830COBR_CAUC_COR  ATIBAIA ALIMENTOS ABATED AVES LTDA      005789313000607ENXUTO SUPERMERCADOS LTDA               RUA MONTE CASTELO, 289                  COSMOPOLIS                              13150000SP365670000100004053000175913   28062012900BRADESCO S/A        2607201200000000000476700CC                                                                                                                                                                                                                                                                                                                                                                                           185350-44     000045
1021421015830COBR_CAUC_COR  ATIBAIA ALIMENTOS ABATED AVES LTDA      005789313000607ENXUTO SUPERMERCADOS LTDA               RUA MONTE CASTELO, 289                  COSMOPOLIS                              13150000SP365670000200004568000175964   28062012900BRADESCO S/A        2607201200000000000353200CC                                                                                                                                                                                                                                                                                                                                                                                           185350-45     000046
1021421015830COBR_CAUC_COR  ATIBAIA ALIMENTOS ABATED AVES LTDA      005789313000607ENXUTO SUPERMERCADOS LTDA               RUA MONTE CASTELO, 289                  COSMOPOLIS                              13150000SP365670000300004576000175965   28062012900BRADESCO S/A        2607201200000000000116800CC                                                                                                                                                                                                                                                                                                                                                                                           185350-46     000047
1021421015830COBR_CAUC_COR  ATIBAIA ALIMENTOS ABATED AVES LTDA      005789313000607ENXUTO SUPERMERCADOS LTDA               RUA MONTE CASTELO, 289                  COSMOPOLIS                              13150000SP365670000400004622000175970   28062012900BRADESCO S/A        2607201200000000000237900CC                                                                                                                                                                                                                                                                                                                                                                                           185350-47     000048
1021421015830COBR_CAUC_COR  ATIBAIA ALIMENTOS ABATED AVES LTDA      071100432000546CENTRAL COML E IMPORTADORA LTDA         AV AFONSO PENA 622                      SANTOS                                  11020002SP365680000100004495000175957   28062012900BRADESCO S/A        2607201200000000001029000CC                                                                                                                                                                                                                                                                                                                                                                                           185350-48     000049
1021421015830COBR_CAUC_COR  ATIBAIA ALIMENTOS ABATED AVES LTDA      071100432000546CENTRAL COML E IMPORTADORA LTDA         AV AFONSO PENA 622                      SANTOS                                  11020002SP365680000200006161000177072   04072012900BRADESCO S/A        2507201200000000000185400CC                                                                                                                                                                                                                                                                                                                                                                                           185350-49     000050
1021421015830COBR_CAUC_COR  ATIBAIA ALIMENTOS ABATED AVES LTDA      007945562000157JOSE AUGUSTO DE MORAES PESSAMILIO       RUA MANOEL RODRIGUES, S/N               ITAPETININGA                            18217000SP365690000106341728000001143   27062012900BRADESCO S/A        2507201200000000002948400CC                                                                                                                                                                                                                                                                                                                                                                                           185350-50     000051
1016421016276DIR_CREDIT     CONSORCIO GAISSLER-DOS ARROYOS          076417005000186PM DE CURITIBA                          AV CANDIDO DE ABREU 815                 CURITIBA                                80530908PR3657000001                                                                                                                                          011872269           18052010000001468418966       31052012000403Execução de obras de infra estrutura das vias Fredolin Wolf / SaturninoMiranda / Domingos Antônio Moro / São Salvador, no trecho entre as Ruas Manoel Ribas e Nilo Peçanha.                                                                     012309038000120185350-51     000052
1007421044581COBR_CAUC_BIC  GRANCARGA TRANSP. E GUINDASTES S/A.     001027335000166WOBBEN WINDPOWER IND.E COM.LTDA.        AV.FERNANDO STECCA,100                  SOROCABA                                18087149SP365710000101341994002339      16072012007PAULISTA            2009201200000000076820093CC                                                                                                                                                                                                                                                                                                                                                                                           185352-1      000053
1022421007495COBR_CAUC_BIC  TECUMSEH DO BRASIL LTDA                 002948030000230ESMALTEC SA                             AV PARQUE OESTE ,2130                   MARACANAU                               61939120CE36572000010435387054433/1     16072012003CENTRO              2408201200000000017066847CC                                                                                                                                                                                                                                                                                                                                                                                           185352-2      000054
1007421043100COBR_CAUC_COR  MACROPORT INTERNACIONAL LTDA            013197889000271LEICHT SAO PAULO MOVEIS PLANEJADOS      R ATALYDES MOREIRA DE SOUZA,1046        SERRA                                   29168055ES365730000101341986410011      13072012800UNIBANCO S/A        1008201200000000018075064CC                                                                                                                                                                                                                                                                                                                                                                                           185352-3      000055
1021421015910COBR_CAUC_BIC  ZERO COM E DIST PROD DE TELEC LTDA      033068883000201SOCIEDADE COMERCIAL E IMP HERMES S      RUA VICTOR CIVITA,77 BL 01 ED 6.2 2AND  RIO DE JANEIRRJ                         22775905RJ365740000106345880000004077   18062012014RIO DE JANEIRO      3009201200000000027317700CC                                                                                                                                                                                                                                                                                                                                                                                           185352-4      000056
1014421023721COBR_CAUC_BIC  VML COMERCIAL IMP E EXP LTDA            060776788000154QUIRIOS PRODUTOS QUIMICOS S.A.          ARNALDO,388                             BARUERI                                 06415110SP36575000010453515711264       16072012007PAULISTA            2008201200000000017500000CC                                                                                                                                                                                                                                                                                                                                                                                           185352-5      000057
1014421018876DIR_CREDIT     ENGUIA GEN CE LTDA                      008467115000100CEEE-D - CIA ESTAD DE DISTR ENERGIA ELETJOAQUIM PORTO VILLANOVA,201             JARDIM CARVALHO                         91410400RS3637100001                                                                                                                                          010913384           1002200600000121502108/2005-1614062012000403FORNECIMENTO DE ENERGIA.                                                                                                                                                                                                                        004735629000130185353-1      000058
1014421018876DIR_CREDIT     ENGUIA GEN CE LTDA                      008467115000100CEEE-D - CIA ESTAD DE DISTR ENERGIA ELETJOAQUIM PORTO VILLANOVA,201             JARDIM CARVALHO                         91410400RS3637200001                                                                                                                                          011115635           1002200600000121502108/2005-1614062012000403FORNECIMENTO DE ENERGIA.                                                                                                                                                                                                                        004735629000130185353-2      000059
1014421018876DIR_CREDIT     ENGUIA GEN CE LTDA                      008336783000190CELESC DISTRIBUICAO S/A                 ITAMARATI,160 ITACORUBI                 FLORIANOPOLIS                           88034900SC3637300001                                                                                                                                          010913384           0101200800000121542107/2005   14062012000403FORNECIMENTO DE ENERGIA                                                                                                                                                                                                                         004735629000130185353-3      000060
1014421018876DIR_CREDIT     ENGUIA GEN CE LTDA                      008336783000190CELESC DISTRIBUICAO S/A                 ITAMARATI,160 ITACORUBI                 FLORIANOPOLIS                           88034900SC3637400001                                                                                                                                          011115635           0101200800000121542107/2005   14062012000403FORNECIMENTO DE ENERGIA                                                                                                                                                                                                                         004735629000130185353-4      000061
1014421018876DIR_CREDIT     ENGUIA GEN CE LTDA                      008336783000190CELESC DISTRIBUICAO S/A                 ITAMARATI,160 ITACORUBI                 FLORIANOPOLIS                           88034900SC3637500001                                                                                                                                          011536843           0101200800000121542107/2005   14062012000403FORNECIMENTO DE ENERGIA                                                                                                                                                                                                                         004735629000130185353-5      000062
1014421018876DIR_CREDIT     ENGUIA GEN CE LTDA                      004895728000180CELPA - CENTRAIS ELETRICAS DO PARA S/A  RUA AUGUSTO MONTENEGRO, 8150-COQUEIRO   BELEM                                   66823010PA3637800001                                                                                                                                          011635655           1002200600000121982130/2005-1614062012000403FORNECIMENTO DE ENERGIA.                                                                                                                                                                                                                        004735629000130185353-6      000063
1014421018876DIR_CREDIT     ENGUIA GEN CE LTDA                      004895728000180CELPA - CENTRAIS ELETRICAS DO PARA S/A  RUA AUGUSTO MONTENEGRO, 8150-COQUEIRO   BELEM                                   66823010PA3637900001                                                                                                                                          011708458           1002200600000121982130/2005-1614062012000403FORNECIMENTO DE ENERGIA.                                                                                                                                                                                                                        004735629000130185353-7      000064
1014421018876DIR_CREDIT     ENGUIA GEN CE LTDA                      010835932000108CELPE - CIA ENERGETICA DE PERNAMBUCO    JOAO DE BARROS, 111 BOA VISTA           RECIFE                                  50050902PE3638000001                                                                                                                                          011635655           1003200600000122022117/2005-1614062012000403fornecimento de energia.                                                                                                                                                                                                                        004735629000130185353-8      000065
1014421018876DIR_CREDIT     ENGUIA GEN CE LTDA                      010835932000108CELPE - CIA ENERGETICA DE PERNAMBUCO    JOAO DE BARROS, 111 BOA VISTA           RECIFE                                  50050902PE3638100001                                                                                                                                          011708458           1003200600000122022117/2005-1614062012000403fornecimento de energia.                                                                                                                                                                                                                        004735629000130185353-9      000066
1014421018876DIR_CREDIT     ENGUIA GEN CE LTDA                      015139629000194COELBA - CIA ELETRICIDADE EST DA BAHIA  RUA EDGARD SANTOS , 300 CABULA VI       SALVADOR                                41181900BA3638200001                                                                                                                                          011635655           1002200600000122362110/2005-1614062012000403fornecimento de energia                                                                                                                                                                                                                         004735629000130185353-10     000067
1014421018876DIR_CREDIT     ENGUIA GEN CE LTDA                      015139629000194COELBA - CIA ELETRICIDADE EST DA BAHIA  RUA EDGARD SANTOS , 300 CABULA VI       SALVADOR                                41181900BA3638300001                                                                                                                                          011708458           1002200600000122362110/2005-1614062012000403fornecimento de energia                                                                                                                                                                                                                         004735629000130185353-11     000068
1014421018876DIR_CREDIT     ENGUIA GEN CE LTDA                      007047251000170CIA ENERGETICA DO CEARA - COELCE        RUA PADRE VALDEVINO, 150 JOAQUIM TAVORA FORTALEZA                               60135040CE3638400001                                                                                                                                          010913384           0101200800000122402119/2005   14062012000403FORNECIMENTO DE ENERGIA                                                                                                                                                                                                                         004735629000130185353-12     000069
1014421018876DIR_CREDIT     ENGUIA GEN CE LTDA                      061695227000193ELETROPAULO METROP ELETRIC SAO PAULO S/ARUA LOURENçO MARQUES, 158 - VILA OLIMPIASAO PAULO                               04547100SP3638500001                                                                                                                                          010913384           0101200800000122432114/2005   14062012000403FORNECIMENTO DE ENERGIA.                                                                                                                                                                                                                        004735629000130185353-13     000070
1014421018876DIR_CREDIT     ENGUIA GEN CE LTDA                      061695227000193ELETROPAULO METROP ELETRIC SAO PAULO S/ARUA LOURENçO MARQUES, 158 - VILA OLIMPIASAO PAULO                               04547100SP3638600001                                                                                                                                          011115635           0101200800000122432114/2005   14062012000403FORNECIMENTO DE ENERGIA.                                                                                                                                                                                                                        004735629000130185353-14     000071
1014421018876DIR_CREDIT     ENGUIA GEN CE LTDA                      004368898000106COPEL DISTRIBUICAO S/A                  JOSE IZIDORO BIAZETTRO, 158 MOSSUNGUE   CURITIBA                                81200240PR3638700001                                                                                                                                          011115635           1003200600000122592106/2005-1614062012000403fornecimento de energia,                                                                                                                                                                                                                        004735629000130185353-15     000072
1014421018876DIR_CREDIT     ENGUIA GEN CE LTDA                      008324196000181COSERN-CIA ENERGETICA DO RIO GDE DO NORTMERMOZ, 150 CENTRO                      NATAL                                   59025250RN3638800001                                                                                                                                          011635655           1003200600000122662131/2005-1614062012000403fornecimento de enrgia                                                                                                                                                                                                                          004735629000130185353-16     000073
1014421018876DIR_CREDIT     ENGUIA GEN CE LTDA                      008324196000181COSERN-CIA ENERGETICA DO RIO GDE DO NORTMERMOZ, 150 CENTRO                      NATAL                                   59025250RN3638900001                                                                                                                                          011708458           1003200600000122662131/2005-1614062012000403fornecimento de enrgia                                                                                                                                                                                                                          004735629000130185353-17     000074
1014421018876DIR_CREDIT     ENGUIA GEN CE LTDA                      004172213000151COMPANHIA PIRATININGA DE FORCA E LUZ    CAMPINAS MOGI MIRIM KM 2, 1755/JDIM SANTCAMPINAS                                13088900SP3639000001                                                                                                                                          011708458           1003200800000122822096/2005-1614062012000403FORNECIMENTO DE ENERGIA.                                                                                                                                                                                                                        004735629000130185353-18     000075
1014421018892DIR_CREDIT     ENGUIA GEN PI LTDA                      033050071000158AMPLA ENERGIA E SERVICOS S/A            RUA LEONI,01 SAO DOMINGOS               NITEROI                                 21201205RJ3639800001                                                                                                                                          011115660           0101200800000121182153/2005   08092010000403FORNECIMENTO DE ENERGIA                                                                                                                                                                                                                         004735623000163185353-19     000076
1014421018892DIR_CREDIT     ENGUIA GEN PI LTDA                      033050071000158AMPLA ENERGIA E SERVICOS S/A            RUA LEONI,01 SAO DOMINGOS               NITEROI                                 21201205RJ3639900001                                                                                                                                          010913422           0101200800000121182153/2005   14042010000453FORNECIMENTO DE ENERGIA                                                                                                                                                                                                                         004735623000163185353-20     000077
1014421018892DIR_CREDIT     ENGUIA GEN PI LTDA                      008467115000100CEEE-D - CIA ESTAD DE DISTR ENERGIA ELETJOAQUIM PORTO VILLA NOVA , 201          JARDIM CARVALHO                         91410400RS3640000001                                                                                                                                          011115660           1003200600000121512135/2005-1608092010000403PRESTAÇAO DE SERVIÇOS                                                                                                                                                                                                                           004735623000163185353-21     000078
1014421018892DIR_CREDIT     ENGUIA GEN PI LTDA                      008336783000190CELESC DISTRIBUICAO S/A                 ITAMARATI,160 ITACORUBI                 FLORIANOPOLES                           88034900SC3640100001                                                                                                                                          011115660           0101200800000121572134/2005   08092010000403FORNECIMENTO DE ENERGIA                                                                                                                                                                                                                         004735623000163185353-22     000079
1014421018892DIR_CREDIT     ENGUIA GEN PI LTDA                      008336783000190CELESC DISTRIBUICAO S/A                 ITAMARATI,160 ITACORUBI                 FLORIANOPOLES                           88034900SC3640200001                                                                                                                                          010913422           0101200800000121572134/2005   14042010000453FORNECIMENTO DE ENERGIA                                                                                                                                                                                                                         004735623000163185353-23     000080
1014421018892DIR_CREDIT     ENGUIA GEN PI LTDA                      001543032000104CELG DISTRIBUICAO S/A - CELG D          RUA 2, QUADRA A 37 - JARDIM GOIAS       GOIANIA                                 74805180GO3640300001                                                                                                                                          011115660           0101200800000121952140/2005   08092010000403FORNECIMENto de energia.                                                                                                                                                                                                                        004735623000163185353-24     000081
1014421018892DIR_CREDIT     ENGUIA GEN PI LTDA                      001543032000104CELG DISTRIBUICAO S/A - CELG D          RUA 2, QUADRA A 37 - JARDIM GOIAS       GOIANIA                                 74805180GO3640400001                                                                                                                                          010913422           0101200800000121952140/2005   14042010000453FORNECIMENto de energia.                                                                                                                                                                                                                        004735623000163185353-25     000082
1014421018892DIR_CREDIT     ENGUIA GEN PI LTDA                      061695227000193ELETROPAULO METROP ELETRIC SAO PAULO S/ARUA LOURENCO MARQUES, 158 - VILA OLIMPIASAO PAULO                               04547100SP3640500001                                                                                                                                          011115660           0101200800000122452141/2005   08092010000403FORNECIMENTO DE ENERGIA.                                                                                                                                                                                                                        004735623000163185353-26     000083
1014421018892DIR_CREDIT     ENGUIA GEN PI LTDA                      061695227000193ELETROPAULO METROP ELETRIC SAO PAULO S/ARUA LOURENCO MARQUES, 158 - VILA OLIMPIASAO PAULO                               04547100SP3640600001                                                                                                                                          010913422           0101200800000122452141/2005   14042010000453FORNECIMENTO DE ENERGIA.                                                                                                                                                                                                                        004735623000163185353-27     000084
1014421018892DIR_CREDIT     ENGUIA GEN PI LTDA                      033050196000188CIA PAULISTA DE FORCA E LUZ - CPFL      CAMPINAS MOGI MIRIM KM 2,1755 JARD SANT CAMPINAS                                13088900SP3640700001                                                                                                                                          010913422           0101200800000122862155/2005   14042010000453fornecimento de energia                                                                                                                                                                                                                         004735623000163185353-28     000085
1014421018841DIR_CREDIT     ENGUIA GEN BA LTDA                      002016440000162AES-SUL DISTRIBUIDORA GAUCHA DE ENERGIA RUA DONA LAURA                          PORTO ALEGREE                           90430090RS3642100001                                                                                                                                          010913260           0101200800000119212088/2005- 123052011000403TEM POR OBJETO ESTABELECER OS TEMOS E AS CONDIÇOES DE COMERCIALIZAÇAOPELO COMPRADOR, NA MODALIDADE DISPONIBILIDADE , DE ENERGIA ELETRICA PROVENIENTEDA USINA, CONFORME OS MONTANTES DE ENERGIA CONTRATA E POTENCIA ASSOCIADA INDICA             004735625000152185353-29     000086
1014421018841DIR_CREDIT     ENGUIA GEN BA LTDA                      008467115000100CEEE-D - CIA ESTAD DE DISTR ENERGIA ELET JOAQUIM PORTO VILLANOVA 201_JARD CARVALJARDIM CARVALHO                         91040400RS3642200001                                                                                                                                          010913260           1003200600000121492081/2005   23052011000403FORNECIMENTO DE ENERGIA                                                                                                                                                                                                                         004735625000152185353-30     000087
1014421018841DIR_CREDIT     ENGUIA GEN BA LTDA                      008336783000190CELESC DISTRIBUICAO S/A                 ITAMARATI, 160__ITACORUBI               FLORIANOPOLIS                           88034900SC3642300001                                                                                                                                          010913260           0101200800000121532080/2005   23052011000403FORNECIMENTO DE ENERGIA                                                                                                                                                                                                                         004735625000152185353-31     000088
1014421018841DIR_CREDIT     ENGUIA GEN BA LTDA                      008336783000190CELESC DISTRIBUICAO S/A                 ITAMARATI, 160__ITACORUBI               FLORIANOPOLIS                           88034900SC3642400001                                                                                                                                          011111680           0101200800000121532080/2005   03092010000453FORNECIMENTO DE ENERGIA                                                                                                                                                                                                                         004735625000152185353-32     000089
1014421018841DIR_CREDIT     ENGUIA GEN BA LTDA                      004895728000180CELPA - CENTRAIS ELETRICAS DO PARA S/A  RUA AUGUSTO MONTENEGRO, 8150-COQUEIRO   BELEM                                   66823010PA3642700001                                                                                                                                          011111680           1003200600000121972103/2005   03092010000453FORNECIMENTO DE ENERGIA.                                                                                                                                                                                                                        004735625000152185353-33     000090
1014421018841DIR_CREDIT     ENGUIA GEN BA LTDA                      061695227000193ELETROPAULO METROP ELETRIC SAO PAULO S/ARUA LOURENÇO MARQUES, 158 - VILA OLIMPIASAO PAULO                               04547100SP3642800001                                                                                                                                          010913260           0101200800000122332087/2005   23052011000403FORNECIMENTO DE ENERGIA.                                                                                                                                                                                                                        004735625000152185353-34     000091
1014421018841DIR_CREDIT     ENGUIA GEN BA LTDA                      061695227000193ELETROPAULO METROP ELETRIC SAO PAULO S/ARUA LOURENÇO MARQUES, 158 - VILA OLIMPIASAO PAULO                               04547100SP3642900001                                                                                                                                          011111680           0101200800000122332087/2005   03092010000453FORNECIMENTO DE ENERGIA.                                                                                                                                                                                                                        004735625000152185353-35     000092
1014421018841DIR_CREDIT     ENGUIA GEN BA LTDA                      007047251000170CIA ENERGETICA DO CEARA - COELCE        RUA PADRE VALDEVINO, 150 JOAQUIM TAVORA FORTALEZA                               60135040CE3643000001                                                                                                                                          011369459           1003200600000122392092/2005   25032011000401FORNECIMENTO DE ENERGIA                                                                                                                                                                                                                         004735625000152185353-36     000093
1042421001580DIR_CREDIT     CENTRO DE OLHOS DE SAO LUIS LTDA        005760293000129SECRET. DE SAUDE MUNICIPAL DE SAO LUIS  RUA DP.RAIMUNDO V DA SILVA 2000 CENTRO  SAO LUIS                                65025901MA3654700001                                                                                                                                          481012724           100220110000018375            09022012000404Prestação de serviços médicos na área oftalmológica em caráter comple -metnar à Rede SUS.                                                                                                                                                       000071178000123185353-37     000094
1029421000242DIR_CREDIT     COOP TRITICOLA SANANDUVA LTDA           088587357000169COOPERATIVA SANTA CLARA LTDA            RUA JULIO DE CASTILHOS,35                CARLOS BARBOSA                         95185000RS3658100001                                                                                                                                          011921345           010720110000001812029/SN      17072012000403fornecimento de leite in natura, granel, resfriado.                                                                                                                                                                                             095323986000147185353-38     000095
1013421015746DIR_CREDIT     ZJ MINERACAO E TERRAPLANAGEM LTDA       005673658000269MINERACAO FAZENDA BRASILEIRO S/A        R ITALO ANTONIO DE JESUS ALMEIDA,20     SANTA LUZ                               48880000BA3660000001                                                                                                                                          481025598           021120110000021384MFB-C1-CON.217072012000404Prestação de serviços de movimentação de material - lavra industrial,incluindo fornecimedno de equipamentos, materiais insumos, mão de obra e consu-míveis(exceto diesel)necessários à execução da lavra nas cavas da Mina C1.                  009029442000135185353-39     000096
1013421015746DIR_CREDIT     ZJ MINERACAO E TERRAPLANAGEM LTDA       005673658000269MINERACAO FAZENDA BRASILEIRO S/A        R ITALO ANTONIO DE JESUS ALMEIDA,20     SANTA LUZ                               48880000BA3660100001                                                                                                                                          011926041           021120110000021384MFB-C1-CON.217072012000403Prestação de serviços de movimentação de material - lavra industrial,incluindo fornecimedno de equipamentos, materiais insumos, mão de obra e consu-míveis(exceto diesel)necessários à execução da lavra nas cavas da Mina C1.                  009029442000135185353-40     000097
1008420932455COBR_CAUC_COR  SANTANA TEXTIL S/A                      078876950005300CIA HERING                              RUA HERMANN HERING 1790                 BLUMENAU                                89010900SC366030000100510183081581*     06072012900BRADESCO S/A        0511201200000000012955477CC                                                                                                                                                                                                                                                                                                                                                                                           185353-41     000098
1038421019619COBR_CAUC_BIC  TOME EQUIPAMENTOS E TRANSPORTES S.A     008528337000188WIND POWER ENERGIA S/A                  ESTR.TDR KM 3,3 1724                    CABO DE SANTO A                         54590000PE3660400001097418332305        23022012038ABC                 0208201200000000120820508CC                                                                                                                                                                                                                                                                                                                                                                                           185353-42     000099
1038421018922COBR_CAUC_COR  AMEPLAN ASSIST MEDICA PLANEJADA         011031202000117MOBIBRASIL TRANSPORTE URBANO LTDA       R. GENARO DE CARVALHO,145               SAO PAULO                               04377220SP36605000010977010844366       17072012900BRADESCO S/A        2507201200000000012372508CC                                                                                                                                                                                                                                                                                                                                                                                           185353-43     000100
1007421034080COBR_CAUC_BIC  SIDMEX INTERNACIONAL LTDA               002976966000194CONFECCOES U2 LTDA.                     PROFESSOR CESARE LOMBROSO,178           SAO PAULO                               01122021SP366060000101343172624.12      18072012007PAULISTA            3107201200000000017369284CC                                                                                                                                                                                                                                                                                                                                                                                           185353-44     000101
1038421014650COBR_CAUC_BIC  PROAROMA IND E COM LTDA                 056370364000118RICLAN S.A.                             AV. PRESIDENTE KENNEDY, 754             RIO CLARO                               13501900SP3660700001097417956779        17072012021CAMPINAS            1408201200000000012103000CC                                                                                                                                                                                                                                                                                                                                                                                           185353-45     000102
1029421018109DIR_CREDIT     GIOVELLI & CIA LTDA                     091830836000179OLFAR S/A ALIMENTO E ENERGIA            BR 153 KM 53                            ERECHIM                                 99700000RS3661700001                                                                                                                                          011911803           290320120000021593001/2013    18072012017002FORNECIMENTO DE DOIS MILHOES DE QUILOS DE SOJA SAFRA 2012/2013                                                                                                                                                                                  090455866000180185353-46     000103
1045421005424DIR_CREDIT     SAO LUCAS MEDICO HOSPITALAR LTDA        013360276000122UNIMED SERGIPE - COOP DE TRAB MEDICO    RUA SOCORRO 100_ SAO JOSE               ARACAJU                                 49015300SE3661800001                                                                                                                                          001191373           01052003000000852505/2003     13072012001211Contrato de prestação de serviços hospitalares aos beneficiários dos planos de saúde operacionalizados pela contratante.                                                                                                                        013131370000100185353-47     000104
1029421007930DIR_CREDIT     COOP AGRICOLA MISTA OURENSE LTDA        011051859000146NESTLE SUL ALIMENTOS E BEBIDAS LTDA     RUA EMPRESARIO AGENELLO SENGER S/N      CARAZINHO                               99500000RS3663000001                                                                                                                                          011637230           310720090000020321            03112011000424fornecimento de leite                                                                                                                                                                                                                           096704127000160185353-48     000105
1019421010909DIR_CREDIT     ALERT SERVICOS DE LICENCIAMENTO DE      002385669000174FIOTEC - FUND P/DESENV CIENT E TEC SAUDEAV BRASIL, 4036                         MANGUINHOS                              21040361RJ3663300001                                                                                                                                          011290781           300820100000015981CTO DE LICEN16042012000403FORNECIMENTO DE SERVIÇOS DE LICENCIAMENTO DE USO E DE ENGENHARIA DE IMPLEMENTAÇÃO PARA O SOFTWARE ALERT.                                                                                                                                        009239118000141185353-49     000106
1019421010909DIR_CREDIT     ALERT SERVICOS DE LICENCIAMENTO DE      002385669000174FIOTEC - FUND P/DESENV CIENT E TEC SAUDEAV BRASIL, 4036                         MANGUINHOS                              21040361RJ3663400001                                                                                                                                          011290781           300820100000015983            16042012000403FORNECIMENTO DE SERVIÇOS DE LICENCIAMENTO DE USO E DE ENGENHARIA DE IMPLEMENTAÇÃO PARA O SOFWARE ALERT.                                                                                                                                         009239118000141185353-50     000107
9000106                                                                                                                                                                                                                                                                                                                                                                                                                                                                                                                                                                                                                                                                                                               000108
