0REMESSANOTIFICA«√O ELETRONICA        99999999999999Bicbanco S/A                            Avenida Paulista                        1048      12∫ andar BELA VISTA                    S√O PAULO                     01310100SPBicbanco S/A                                                                    28112011                                                                                                                                                                                                                                                                                                                                                                                                000001
1007421049451COBR_CAUC_COR  RIGOR ALIMENTOS LTDA                    008030363003288SUPERMERCADO NORDESTAO LTDA             ESTR. DE JAPECANGA, SN                  PARNAMIRIN                              59144390RN32021000010006165311 011816   17112011900BRADESCO S/A        2212201100000000010886400CC                                                                                                                                                                                                                                                                                                                                                                                           152890-1      000002
1007421032516COBR_CAUC_BIC  NITRIFLEX SP IND E COM DE BORRACHAS     050937564000123CORREIAS MERCURIO SA INDUSTRIA E C      RUA JOSE SPINA, 10                      JUNDIAI                                 13210780SP320220000100923591000775701   17112011007PAULISTA            2212201100000000014194390CC                                                                                                                                                                                                                                                                                                                                                                                           152890-2      000003
1021420930887COBR_CAUC_BIC  DEDINI S/A INDUSTRIAS DE BASE           075717355000286USINA DE ACUCAR SANTA TEREZINHA LT      AV MARCELO MESSIAS BUSIQUIA 847 PQ INDUSMARINGA                                 87065006PR320540000106232996152983-8-8  18102011016CURITIBA            2003201200000000012990975CC                                                                                                                                                                                                                                                                                                                                                                                           152892-1      000004
1021420930887COBR_CAUC_BIC  DEDINI S/A INDUSTRIAS DE BASE           075717355000286USINA DE ACUCAR SANTA TEREZINHA LT      AV MARCELO MESSIAS BUSIQUIA 847 PQ INDUSMARINGA                                 87065006PR320540000206233020152984-8-8  18102011016CURITIBA            2003201200000000011081170CC                                                                                                                                                                                                                                                                                                                                                                                           152892-2      000005
1021420930887COBR_CAUC_BIC  DEDINI S/A INDUSTRIAS DE BASE           075717355000286USINA DE ACUCAR SANTA TEREZINHA LT      AV MARCELO MESSIAS BUSIQUIA 847 PQ INDUSMARINGA                                 87065006PR320540000306233038152837-8-8  18102011016CURITIBA            2003201200000000013286410CC                                                                                                                                                                                                                                                                                                                                                                                           152892-3      000006
1050421000089COBR_CAUC_BIC  ATIVO ALIMENTOS LTDA                    010364949000124CAMPINAS ATACADISTA DE CARNESDER        ESTRADA VELHA CAMPINASMONTE MOR 1211    CAMPINAS                                13012970SP320550000100296057114441/1    18112011021CAMPINAS            1612201100000000031977948CC                                                                                                                                                                                                                                                                                                                                                                                           152892-4      000007
1007421049451COBR_CAUC_COR  RIGOR ALIMENTOS LTDA                    017745613000150SUPERMERCADO BAHAMAS LTDA               ROD. BR 040, 780 KM                     JUIZ DE FORA                            36092005MG32056000010006184011 011909   18112011900BRADESCO S/A        1812201100000000011214042CC                                                                                                                                                                                                                                                                                                                                                                                           152892-5      000008
1019421010259COBR_CAUC_BIC  L&S FOMENTO MERCANTIL                   004126524000184VIC LOGISTICA LTDA                      AV. HELENA DE VASCONCELOS COSTA, 1365   CONTAGEM                                32371685MG3205700001061873890001-4      17112011019BELO HORIZONTE      1003201200000000013000000CC                                                                                                                                                                                                                                                                                                                                                                                           152892-6      000009
1024420934410COBR_CAUC_BIC  INTERCOOP INT SUIN MED NORTE MT LTD     004641376007300SUPERMERCADOS BH COMERCIO DE ALIME      AV. AMERICO VESPUCIO ,1271              BELO HORIZONTE                          31230250MG32092000010194169569301       16112011019BELO HORIZONTE      1612201100000000014676745CC                                                                                                                                                                                                                                                                                                                                                                                           153062-1      000010
1021141012725COBR_CAUC_BIC  MABE BRASIL ELETRODOMESTICOS LTDA       047960950003902MAGAZINE LUIZA S/A                      RUA DO COMÈRCIO 1.924                   FRANCA                                  14400660SP3209300001062373860000037410  21112011022RIBEIRAO PRETO      1912201100000000012656785TD                                                                                                                                                                                                                                                                                                                                                                                           153062-2      000011
1021141012725COBR_CAUC_BIC  MABE BRASIL ELETRODOMESTICOS LTDA       056642960000100LOJAS CEM S/A                           ROD.ENG.ERMENIO OLIVE 0, KM 46 S/N      SALTO                                   13329900SP3209400001062370920000064348  21112011021CAMPINAS            1212201100000000011239247TD                                                                                                                                                                                                                                                                                                                                                                                           153062-3      000012
1016421019267COBR_CAUC_BIC  COBRAZEM AGROINDUSTRIAL LTDA            084874726000496KAEFER AGRO INDUSTRIAL                  ROD BR 467, KM 03,SN-CX POSTAL 227      CASCAVEL                                85802970PR3209500001032418560000972-01  04112011016CURITIBA            0812201100000000025425000CC                                                                                                                                                                                                                                                                                                                                                                                           153062-4      000013
1007421017940COBR_CAUC_COR  QUIRIOS PRODUTOS QUIMICOS S/A           043206069000189COMERCIO E IND.MATSUDA IMP.E E          ROD.RAPOSO TAVARES, SP 270 KM 575       ALVARES MACHADO                         19160000SP3209600001009293010009719 01  21112011900BRADESCO S/A        2112201100000000015982036CC                                                                                                                                                                                                                                                                                                                                                                                           153062-5      000014
1047421000402COBR_CAUC_BIC  TRANSPORTADORA JOVERNO LTDA             006059962000100USINA ITAPAGIPE ACUCAR E ALCOOL LT      AV. JOHN DALTO,301-LOTE 2 - TERREO      CAMPINAS                                13069330SP3212100001011668211297        16112011021CAMPINAS            0201201200000000003098000CC                                                                                                                                                                                                                                                                                                                                                                                           153062-6      000015
1047421000402COBR_CAUC_BIC  TRANSPORTADORA JOVERNO LTDA             006059962000100USINA ITAPAGIPE ACUCAR E ALCOOL LT      AV. JOHN DALTO,301-LOTE 2 - TERREO      CAMPINAS                                13069330SP3212100002011668551299        16112011021CAMPINAS            0901201200000000003269000CC                                                                                                                                                                                                                                                                                                                                                                                           153062-7      000016
1047421000402COBR_CAUC_BIC  TRANSPORTADORA JOVERNO LTDA             007398533000112USINA GUARIROBA LTDA                    AV. JOHN DALTO,301-LOTE 02- TERREO      CAMPINAS                                13069330SP3212200001011293561208        18102011021CAMPINAS            0512201100000000003523800CC                                                                                                                                                                                                                                                                                                                                                                                           153062-8      000017
1047421000402COBR_CAUC_BIC  TRANSPORTADORA JOVERNO LTDA             007398533000112USINA GUARIROBA LTDA                    AV. JOHN DALTO,301-LOTE 02- TERREO      CAMPINAS                                13069330SP3212200002011444791260        01112011021CAMPINAS            1912201100000000003270400CC                                                                                                                                                                                                                                                                                                                                                                                           153062-9      000018
1047421000402COBR_CAUC_BIC  TRANSPORTADORA JOVERNO LTDA             007455944000100USINA FRUTAL ACUCAR E ALCOOL S/A        AV. JOHN DALTON,,301-LOTE 2-TERREO      CAMPINAS                                13069330SP3212300001011280661201        18102011021CAMPINAS            0512201100000000006635000CC                                                                                                                                                                                                                                                                                                                                                                                           153062-10     000019
1047421000402COBR_CAUC_BIC  TRANSPORTADORA JOVERNO LTDA             007455944000100USINA FRUTAL ACUCAR E ALCOOL S/A        AV. JOHN DALTON,,301-LOTE 2-TERREO      CAMPINAS                                13069330SP3212300002011442231237        28102011021CAMPINAS            1212201100000000005439000CC                                                                                                                                                                                                                                                                                                                                                                                           153062-11     000020
1047421000402COBR_CAUC_BIC  TRANSPORTADORA JOVERNO LTDA             007455944000100USINA FRUTAL ACUCAR E ALCOOL S/A        AV. JOHN DALTON,,301-LOTE 2-TERREO      CAMPINAS                                13069330SP3212300003011444871258        01112011021CAMPINAS            1912201100000000007133000CC                                                                                                                                                                                                                                                                                                                                                                                           153062-12     000021
1008420932455COBR_CAUC_COR  SANTANA TEXTIL S/A                      078876950005300CIA HERING                              RUA HERMANN HERING 1790                 BLUMENAU                                89010900SC321240000100495389065105*     23112011900BRADESCO S/A        2203201200000000016191889CC                                                                                                                                                                                                                                                                                                                                                                                           153250-1      000022
1031421007893COBR_CAUC_BIC  DIPLOMATA S/AINDL. E COMERCIAL          011367731000196JBR COMERCIO IMP E EXP LTDA             R URBANO DUARTE 779                     SAO PAULO                               02523000SP3212500001049494700015680-05  23112011007PAULISTA            1701201200000000012360000CC                                                                                                                                                                                                                                                                                                                                                                                           153250-2      000023
1031421007893COBR_CAUC_BIC  DIPLOMATA S/AINDL. E COMERCIAL          011367731000196JBR COMERCIO IMP E EXP LTDA             R URBANO DUARTE 779                     SAO PAULO                               02523000SP3212500002049494880015680-04  23112011007PAULISTA            1601201200000000012360000CC                                                                                                                                                                                                                                                                                                                                                                                           153250-3      000024
1031421007893COBR_CAUC_BIC  DIPLOMATA S/AINDL. E COMERCIAL          011367731000196JBR COMERCIO IMP E EXP LTDA             R URBANO DUARTE 779                     SAO PAULO                               02523000SP3212500003049494960015680-03  23112011007PAULISTA            1301201200000000012360000CC                                                                                                                                                                                                                                                                                                                                                                                           153250-4      000025
1031421007893COBR_CAUC_BIC  DIPLOMATA S/AINDL. E COMERCIAL          011367731000196JBR COMERCIO IMP E EXP LTDA             R URBANO DUARTE 779                     SAO PAULO                               02523000SP3212500004049495000015680-02  23112011007PAULISTA            1201201200000000012360000CC                                                                                                                                                                                                                                                                                                                                                                                           153250-5      000026
1031421007893COBR_CAUC_BIC  DIPLOMATA S/AINDL. E COMERCIAL          011367731000196JBR COMERCIO IMP E EXP LTDA             R URBANO DUARTE 779                     SAO PAULO                               02523000SP3212500005049495180015680-01  23112011007PAULISTA            1101201200000000012360000CC                                                                                                                                                                                                                                                                                                                                                                                           153250-6      000027
1007421049451COBR_CAUC_COR  RIGOR ALIMENTOS LTDA                    012714378000136XPY DISTRIBUIDORA DE ALIMENTOS LTD      AV. SANTOS DUMONT, 8011 ESP 10 GP 0 CENTLAURO DE FREITA                         42700000BA32126000010006231511 012142   23112011900BRADESCO S/A        0312201100000000010800000CC                                                                                                                                                                                                                                                                                                                                                                                           153250-7      000028
1047421000402COBR_CAUC_BIC  TRANSPORTADORA JOVERNO LTDA             049972326000170USINA MOEMA ACUCAR E ALCOOL LTDA        AV. JOHN DALTO,301-BL B-CJ 11BA16B      CAMPINAS                                13069330SP3214300001011280581202        18102011021CAMPINAS            0512201100000000008397000CC                                                                                                                                                                                                                                                                                                                                                                                           153250-8      000029
1047421000402COBR_CAUC_BIC  TRANSPORTADORA JOVERNO LTDA             049972326000170USINA MOEMA ACUCAR E ALCOOL LTDA        AV. JOHN DALTO,301-BL B-CJ 11BA16B      CAMPINAS                                13069330SP3214300002011442151236        28102011021CAMPINAS            1212201100000000008308100CC                                                                                                                                                                                                                                                                                                                                                                                           153250-9      000030
1047421000402COBR_CAUC_BIC  TRANSPORTADORA JOVERNO LTDA             049972326000170USINA MOEMA ACUCAR E ALCOOL LTDA        AV. JOHN DALTO,301-BL B-CJ 11BA16B      CAMPINAS                                13069330SP3214300003011444611259        01112011021CAMPINAS            1912201100000000008421800CC                                                                                                                                                                                                                                                                                                                                                                                           153250-10     000031
1047421000402COBR_CAUC_BIC  TRANSPORTADORA JOVERNO LTDA             049972326000170USINA MOEMA ACUCAR E ALCOOL LTDA        AV. JOHN DALTO,301-BL B-CJ 11BA16B      CAMPINAS                                13069330SP3214300004011668121296        16112011021CAMPINAS            0201201200000000006254000CC                                                                                                                                                                                                                                                                                                                                                                                           153250-11     000032
1047421000402COBR_CAUC_BIC  TRANSPORTADORA JOVERNO LTDA             049972326000170USINA MOEMA ACUCAR E ALCOOL LTDA        AV. JOHN DALTO,301-BL B-CJ 11BA16B      CAMPINAS                                13069330SP3214300005011668391296B       16112011021CAMPINAS            0201201200000000002659000CC                                                                                                                                                                                                                                                                                                                                                                                           153250-12     000033
1047421000402COBR_CAUC_BIC  TRANSPORTADORA JOVERNO LTDA             049972326000170USINA MOEMA ACUCAR E ALCOOL LTDA        AV. JOHN DALTO,301-BL B-CJ 11BA16B      CAMPINAS                                13069330SP3214300006011668471298        16112011021CAMPINAS            0901201200000000007432000CC                                                                                                                                                                                                                                                                                                                                                                                           153250-13     000034
9000033                                                                                                                                                                                                                                                                                                                                                                                                                                                                                                                                                                                                                                                                                                               000035
