0REMESSANOTIFICAÇÃO ELETRONICA        99999999999999Bicbanco S/A                            Avenida Brigadeiro Faria Lima           4.440     2º andar  Itaim Bibi                    São Paulo                     04538132SPBicbanco S/A                                                                    11022014                                                                                                                                                                                                                                                                                                                                                                                                000001
1009421012831COBR_CAUC_COR  ASA ALIMENTOS S/A                       007387853000177GRANJA SALOME LTDA                      ROD. BR-262KM 0                         BOM DESPACHO                            35600000MG4632200001001496610046918     05022014900BRADESCO S/A        0503201400000000012600000CC                                                                                                                                                                                                                                                                                                                                                                                           284244-1      000002
1018420932820COBR_CAUC_COR  ADUBOS ARAGUAIA IND. E COM. LTDA        010903299000148BASE AGRICOLA COM DE PROD AGRIC LT      RUA SAID ABDALLA QD 05 LT 23 105        JATAI                                   75800001GO4632300001036000110001245401  24012014900BRADESCO S/A        3008201400000000010715136CC                                                                                                                                                                                                                                                                                                                                                                                           284244-2      000003
1018420932820COBR_CAUC_COR  ADUBOS ARAGUAIA IND. E COM. LTDA        000001562071173JONES LUIZ HEEMANN                      AV CENTRAL SETOR A 515                  QUERENCIA                               78643000MT4632400001036001510003452101  24012014800UNIBANCO S/A        2908201400000000016661655CC                                                                                                                                                                                                                                                                                                                                                                                           284244-3      000004
1028421011386COBR_CAUC_COR  POLICARD SYSTEMS E SERVICOS S/A         002510563000155EMPRESA DE TRANSPORTES COSTA VERDE      R MARIA ISABEL DOS SANTOS, 130          LAURO DE FREITA                         42700000BA463250000102983121215674      03022014900BRADESCO S/A        1803201400000000017340384CC                                                                                                                                                                                                                                                                                                                                                                                           284244-4      000005
1028421011386COBR_CAUC_COR  POLICARD SYSTEMS E SERVICOS S/A         013809986000197CONSORCIO MENDES JUNIOR SCHAHIN         AV TANCREDO NEVES, SN - 0               FOZ DO IGUACU                           85867970PR463260000102983155215954      03022014900BRADESCO S/A        2102201400000000013105800CC                                                                                                                                                                                                                                                                                                                                                                                           284244-5      000006
1028421011386COBR_CAUC_COR  POLICARD SYSTEMS E SERVICOS S/A         092688415000118SOCIEDADE DE ONIBUS PORTO ALEGRE L      RUA DOS MAIAS, 773                      PORTO ALEGRE                            91170200RS463270000102983171215851      03022014900BRADESCO S/A        1802201400000000032469840CC                                                                                                                                                                                                                                                                                                                                                                                           284244-6      000007
1028421011386COBR_CAUC_COR  POLICARD SYSTEMS E SERVICOS S/A         092697093000173TRANSPORTES COLETIVOS TREVO S/A         R CORONEL MASSOT, 1402                  PORTO ALEGRE                            91910530RS463280000102983180215894      03022014900BRADESCO S/A        1802201400000000011460672CC                                                                                                                                                                                                                                                                                                                                                                                           284244-7      000008
1028421011386COBR_CAUC_COR  POLICARD SYSTEMS E SERVICOS S/A         093315000000161RESTINGA TRANSPORTES COLETIVOS LTD      R ANT ONOFRE DA SILVEIRA, 50            PORTO ALEGRE                            91790510RS463290000102983201215900      03022014900BRADESCO S/A        1802201400000000014513384CC                                                                                                                                                                                                                                                                                                                                                                                           284244-8      000009
1046421001443COBR_CAUC_COR  COSTAO DO SANTINHO TUR E LAZER LTDA     001127357000106SAS INSTITUTE BRASIL LTDA               PRACA JOAO DURAN ALONSO,34-8 ANDAR      SAO PAULO                               04571070SP463300000100013408199962      01022014900BRADESCO S/A        2102201400000000024970631CC                                                                                                                                                                                                                                                                                                                                                                                           284244-9      000010
1007421068847COBR_CAUC_BIC  PROAROMA IND E COM LTDA                 056370364000118RICLAN S.A.                             AV. PRESIDENTE KENNEDY, 754             RIO CLARO                               13501900SP46331000010264045611073       31012014021CAMPINAS            2802201400000000010520250CC                                                                                                                                                                                                                                                                                                                                                                                           284244-10     000011
1031421011181COBR_CAUC_BIC  AGROIND IRMAOS DALLA COSTA LTDA         053045266000389JAD ZOGUEIB E CIA LTDA                  RUA INACIO CONCEICAO VIEIRA25-75        BAURU                                   17048011SP46332000010535815731180/1     04022014022RIBEIRAO PRETO      2502201400000000010871820CC                                                                                                                                                                                                                                                                                                                                                                                           284244-11     000012
1007421055095COBR_CAUC_COR  PLASTER IND COM RESINAS PLAS EIRELI     045420726000111TEXTIL ITAJA LTDA                       RUA PROJETADA II,75                     SALTO DE PIRAPO                         18160000SP463330000100018057039286/A    04022014900BRADESCO S/A        0503201400000000017902500CC                                                                                                                                                                                                                                                                                                                                                                                           284244-12     000013
1048421003043COBR_CAUC_COR  FRIGOL S.A. EM RECUPERACAO JUDICIAL     013373017000306FRIGORIFICO BIG BOI LTDA                ROD PR 323, KM 03 S/N                   PAICANDU                                87140000PR46334000010006635300000252-1  04022014900BRADESCO S/A        1102201400000000010400130CC                                                                                                                                                                                                                                                                                                                                                                                           284244-13     000014
1007421056385COBR_CAUC_COR  TERRA NOVA TRADING S/A                  011636871000112NORTON AGUIAR LABANES                   R. CLAUDIO SOARES, ,72-CONJ 1315        SAO PAULO                               05422030SP463550000100001740NEGNORTON3  06022014900BRADESCO S/A        1003201400000000020000000CC                                                                                                                                                                                                                                                                                                                                                                                           284245-1      000015
1029421018494COBR_CAUC_COR  PRO SALUTE SERVICOS PARA SAUDE LTDA     088611264000122INTRAL S A IND DE MATERIAIS ELETRI      TRAV. RIO GRANDE , 130                  CAXIAS DO SUL                           95098750RS4635600001001017940144326.A   04022014900BRADESCO S/A        1003201400000000010773851CC                                                                                                                                                                                                                                                                                                                                                                                           284245-2      000016
1029421018494COBR_CAUC_COR  PRO SALUTE SERVICOS PARA SAUDE LTDA     090467424000153VIACAO SANTA TEREZA DE CAXIAS DO S      RUA JULIO CALEGARI, 940                 CAXIAS DO SUL                           95095230RS4635700001001018160144392.A   04022014900BRADESCO S/A        1802201400000000025292875CC                                                                                                                                                                                                                                                                                                                                                                                           284245-3      000017
1029421018494COBR_CAUC_COR  PRO SALUTE SERVICOS PARA SAUDE LTDA     093785822000106SAN MARINO ONIBUS LTDA                  IRMAO GILDO SCHIAVO, 110                CAXIAS DO SUL                           95058510RS4635800001001018080144373.A   04022014900BRADESCO S/A        2002201400000000018972611CC                                                                                                                                                                                                                                                                                                                                                                                           284245-4      000018
1048421000338COBR_CAUC_COR  FRIGOESTRELA S.A. EM RECUP JUDICIAL     050947761001871IRMAOS RUSSI LTDA                       RUA LUIS ALLI FARDYN SALA 03, 590       CAJAMAR                                 07750000SP4635900001075642510033323801  05022014900BRADESCO S/A        0803201400000000010967985CC                                                                                                                                                                                                                                                                                                                                                                                           284245-5      000019
1031421011181COBR_CAUC_BIC  AGROIND IRMAOS DALLA COSTA LTDA         013364572000100CRISTHA FOODS ALIMENTOS LTDA            R MARIA GONZAGA00019                    SAO JOAO DE MER                         25535482RJ46360000010535821131234/1     05022014014RIO DE JANEIRO      0503201400000000010282500CC                                                                                                                                                                                                                                                                                                                                                                                           284245-6      000020
1046421006070DIR_CREDIT     METALURGICA DS LTDA                     060857349000176TRW AUTOMOTIVE LTDA                     VIA ANHANGUERA KM 147                   LIMEIRA                                 13486915SP4634400001                                                                                                                                          012497387           260320070000018698            05022014017002fornecimento de discos e tambores de freio para automoveis                                                                                                                                                                                      079414868000198284320-1      000021
1007421060269COBR_CAUC_BIC  CAMBUCI S/A                             057489403000163A ESPORTIVA COMERCIAL LTDA              RUA SILVEIRAS, 468                      SANTO ANDRE                             09071100SP463700000102649801DM23131601  06022014007PAULISTA            0606201400000000013487568CC                                                                                                                                                                                                                                                                                                                                                                                           284320-2      000022
1019421004658COBR_CAUC_COR  S/A ESTADO DE MINAS                     060894730000105USINAS SIDERURGICAS MINAS GERAIS S      PROFESSOR JOSE VIEIRA DE MENDONCA 3011  BELO HORIZONTE                          31310260MG4637100001012816382196271-1   06022014900BRADESCO S/A        1503201400000000080000000CC                                                                                                                                                                                                                                                                                                                                                                                           284320-3      000023
1028421011386COBR_CAUC_COR  POLICARD SYSTEMS E SERVICOS S/A         004113174000111PARA SEGURANCA LTDA                     R TRIUNVIRATO, 571                      BELEM                                   66020655PA463720000102983422217360      07022014900BRADESCO S/A        2702201400000000020736545CC                                                                                                                                                                                                                                                                                                                                                                                           284320-4      000024
1028421011386COBR_CAUC_COR  POLICARD SYSTEMS E SERVICOS S/A         015752934000157PUMA SERVIçOS DE VIG. E TRANSP DE       TV. MAURITI, 2123                       BELEM                                   66087680PA463730000102983457217410      07022014900BRADESCO S/A        2403201400000000024938213CC                                                                                                                                                                                                                                                                                                                                                                                           284320-5      000025
1044421012350DIR_CREDIT     PAPI PRONTO SOCORRO                     008380701000105UNIMED NATAL                            RUA MIPIBU, 511 - PETRÓPOLIS            NATAL                                   59020250RN4638700001                                                                                                                                          012497767           260320080000005352001         05022014000404atendimento médico ambulatorial dos conveniados da UNIMED                                                                                                                                                                                       008423220000130284320-6      000026
9000025                                                                                                                                                                                                                                                                                                                                                                                                                                                                                                                                                                                                                                                                                                               000027
