0REMESSANOTIFICAÇÃO ELETRONICA        99999999999999Bicbanco S/A                            Avenida Brigadeiro Faria Lima           4.440     2º andar  Itaim Bibi                    São Paulo                     04538132SPBicbanco S/A                                                                    02102014                                                                                                                                                                                                                                                                                                                                                                                                000001
1021420930887COBR_CAUC_COR  DEDINI S/A INDUSTRIAS DE BASE           047254396000167J PILON S A AC E ALC                    FAZ SANTA MARIA, CX. P. 19, S N SAO FRANCERQUILHO                               18520000SP498080000106591651264912-1-1  25092014900BRADESCO S/A        1510201400000000010787879CC                                                                                                                                                                                                                                                                                                                                                                                           325008-1      000002
1016421009571COBR_CAUC_BIC  IMPORTADORA DE FRUTAS LA VIOLETERA      006314327000203JC DIST LOGISTICA IMP EXP PROD IND      RUA 1 QD1 LOTE 2 S/N                    APARECIDA DE GO                         74980970GO4980900001046289160011268001  23092014018GOIANIA             2110201400000000013431028CC                                                                                                                                                                                                                                                                                                                                                                                           325008-2      000003
1016421009571COBR_CAUC_BIC  IMPORTADORA DE FRUTAS LA VIOLETERA      006314327000203JC DIST LOGISTICA IMP EXP PROD IND      RUA 1 QD1 LOTE 2 S/N                    APARECIDA DE GO                         74980970GO4980900002046289240011381001  24092014018GOIANIA             2210201400000000014388480CC                                                                                                                                                                                                                                                                                                                                                                                           325008-3      000004
1018420932820COBR_CAUC_COR  ADUBOS ARAGUAIA IND. E COM. LTDA        000034137319120VONALDO ANTONIO DE MORAIS               RUA 2 4                                 SILVANIA                                75180000GO4981000001038810520001590701  25092014900BRADESCO S/A        2804201500000000032077800CC                                                                                                                                                                                                                                                                                                                                                                                           325008-4      000005
1046421001109COBR_CAUC_BIC  C-PACK CREATIVE PACKAGING S/A           001615814006487UNILEVER BRASIL INDUSTRIAL LTDA         AV FCO MATARAZZO, 1500 10§              SAO PAULO                               05001200SP498110000102513998006531601   22092014007PAULISTA            2001201500000000011616395CC                                                                                                                                                                                                                                                                                                                                                                                           325008-5      000006
1018421030529COBR_CAUC_COR  CREDIMAIS FOMENTO MERCANTIL LTDA        026564534000215MIKA DA AMAZONIA ALIMENTOS LTDA         ROD ARQUITETO HELDER CENDIA, KM 4,7 MT 0CUIABA                                  78048150MT4981200001038819155849/01     25092014900BRADESCO S/A        2210201400000000010866350CC                                                                                                                                                                                                                                                                                                                                                                                           325008-6      000007
1007421072259COBR_CAUC_COR  BOMBRIL S/A                             005139469000120DIN CENTRO OESTE LTDA                   AV WILSON TAVARES RIBEIRO 800           CONTAGEM                                32183680MG4981400001033110220062810001  30082014900BRADESCO S/A        2310201400000000010488370CC                                                                                                                                                                                                                                                                                                                                                                                           325263-1      000008
1041421002694COBR_CAUC_COR  MEGA FIOS LTDA                          006699029000190CANOPUS CONSTRUCOES LTDA                AV. COLARES MOREIRA 1 QUADRA 46         SAO LUIS                                65075441MA49815000010073721636975 11    25092014900BRADESCO S/A        2310201400000000012717697CC                                                                                                                                                                                                                                                                                                                                                                                           325263-2      000009
1021421017050COBR_CAUC_BIC  STAR DISTR PROD FARMACEUTICOS LTDA      061585865073701RAIA DROGASIL S/A                       RUA PATAXOS , 1412                      EMBU                                    06833073SP4981600001000055210000406201  26092014007PAULISTA            1010201400000000012483783CC                                                                                                                                                                                                                                                                                                                                                                                           325263-3      000010
1021421017050COBR_CAUC_BIC  STAR DISTR PROD FARMACEUTICOS LTDA      061585865073701RAIA DROGASIL S/A                       RUA PATAXOS , 1412                      EMBU                                    06833073SP4981600002000055300000406301  26092014007PAULISTA            1010201400000000071831228CC                                                                                                                                                                                                                                                                                                                                                                                           325263-4      000011
1021421017050COBR_CAUC_BIC  STAR DISTR PROD FARMACEUTICOS LTDA      061585865073701RAIA DROGASIL S/A                       RUA PATAXOS , 1412                      EMBU                                    06833073SP4981600003000055480000406401  26092014007PAULISTA            1010201400000000015175105CC                                                                                                                                                                                                                                                                                                                                                                                           325263-5      000012
1019421004658COBR_CAUC_COR  S/A ESTADO DE MINAS                     073312076000126SINDICATO I EXTRATIVAS O M P D P P      BERNARDO GUIMARAES 63 3 ANDAR           BELO HORIZONTE                          30140080MG4981900001013244342521313-1   29092014900BRADESCO S/A        3010201400000000012500000CC                                                                                                                                                                                                                                                                                                                                                                                           325390-1      000013
1046421001109COBR_CAUC_BIC  C-PACK CREATIVE PACKAGING S/A           000190373000172IND E COM DE COSMETICOS NATURA LTD      ALAMEDA JURUA, 253                      BARUERI                                 06455010SP498200000102516393006485301   09092014007PAULISTA            2410201400000000015058524CC                                                                                                                                                                                                                                                                                                                                                                                           325390-2      000014
1031421011181COBR_CAUC_BIC  AGROIND IRMAOS DALLA COSTA LTDA         011224864000103REAL FOODS COMERCIO ATAC DE GEN AL      AV AMERICAS, DAS SALA 1109 00844        RIO DE JANEIRO                          22793081RJ49821000010544466514909/1     22092014014RIO DE JANEIRO      2210201400000000016839900CC                                                                                                                                                                                                                                                                                                                                                                                           325390-3      000015
1018141026092COBR_CAUC_COR  MEDIO NORTE CONST E TERRAPLEN LTDA      001500203000100ACEFER COMERCIO DE SUCATAS LTDA         ROD BR 153,0                            URUACU                                  76400000GO49822000010388440039          30092014900BRADESCO S/A        0112201400000000010960000TD                                                                                                                                                                                                                                                                                                                                                                                           325390-4      000016
1007421055095COBR_CAUC_COR  PLASTER COM DE RESINAS PLAST EIRELI     013583323000105BASELL POLIOLEFINAS LTDA                AV JULIO DE PAULACLARO,687-Q A          PINDAMONHANGABA                         12441400SP498230000100023182044065/A    29092014900BRADESCO S/A        0611201400000000017942820CC                                                                                                                                                                                                                                                                                                                                                                                           325390-5      000017
1021421017050COBR_CAUC_BIC  STAR DISTR PROD FARMACEUTICOS LTDA      061585865073701RAIA DROGASIL S/A                       RUA PATAXOS , 1412                      EMBU                                    06833073SP4982400001000055640000407201  30092014007PAULISTA            2110201400000000022348897CC                                                                                                                                                                                                                                                                                                                                                                                           325390-6      000018
1021421017050COBR_CAUC_BIC  STAR DISTR PROD FARMACEUTICOS LTDA      061585865073701RAIA DROGASIL S/A                       RUA PATAXOS , 1412                      EMBU                                    06833073SP4982400002000055810000407401  30092014007PAULISTA            2110201400000000011105106CC                                                                                                                                                                                                                                                                                                                                                                                           325390-7      000019
9000018                                                                                                                                                                                                                                                                                                                                                                                                                                                                                                                                                                                                                                                                                                               000020
