0REMESSANOTIFICAÇÃO ELETRONICA        99999999999999Bicbanco S/A                            Avenida Paulista , 1048 12º andar                           BELA VISTA                    SÃO PAULO                     01310100SPBicbanco S/A                                                                    16032010                                                                                                                                                                                                                                                                                                                                                                                                000001
1018421016232COBR_CAUC_COR  LEITBOM S/A                             022229207000175PASTIFICIO SANTA AMALIA SA              ROD BR 267 SN                           MACHADO                                 37750000MG2090500001010330460000145001  09032010900BRADESCO S/A        2004201000000000015225000CC                                                                                                                                                                                                                                                                                                                                                                                           89202-1       000002
1031140501169COBR_CAUC_BIC  COROL COOPERATIVA AGROINDUSTRIAL        065396699000520NAUMANN GEEP COMERCIAL E EXPORTADO      R REINALDO MASSI, 20 SL 06              ROLANDIA                                86600000PR2090600001046627076871        09032010031LONDRINA            3103201000000000014822500TD                                                                                                                                                                                                                                                                                                                                                                                           89202-2       000003
1007421024386COBR_CAUC_BIC  TRES EDITORIAL LTDA                     002808708000107CIA BEBIDAS DAS AMERICAS - AMBEV        AV. BRIG. LUIS ANTONIO ,4980            SAO PAULO                               01402002SP209070000109742041018498-A    08032010007PAULISTA            0105201000000000052200000CC                                                                                                                                                                                                                                                                                                                                                                                           89202-3       000004
1007421024386COBR_CAUC_BIC  TRES EDITORIAL LTDA                     002808708000107CIA BEBIDAS DAS AMERICAS - AMBEV        AV. BRIG. LUIS ANTONIO ,4980            SAO PAULO                               01402002SP209070000209742068018501-A    08032010007PAULISTA            0104201000000000048000000CC                                                                                                                                                                                                                                                                                                                                                                                           89202-4       000005
1016141008940COBR_CAUC_BIC  COOPERATIVA RIO DO PEIXE                083310441003302COOPERATIVA OESTE CENTRAL CATARINE      RUA BARAO DO RIO BRANCO 1272E           CHAPECO                                 89800000SP209080000102700318512640/01   25022010007PAULISTA            3103201000000000010054054TD                                                                                                                                                                                                                                                                                                                                                                                           89202-5       000006
1016141008940COBR_CAUC_BIC  COOPERATIVA RIO DO PEIXE                083310441003302COOPERATIVA OESTE CENTRAL CATARINE      RUA BARAO DO RIO BRANCO 1272E           CHAPECO                                 89800000SP209080000202700334512981/01   01032010007PAULISTA            0104201000000000012924089TD                                                                                                                                                                                                                                                                                                                                                                                           89202-6       000007
1016141008940COBR_CAUC_BIC  COOPERATIVA RIO DO PEIXE                083310441003302COOPERATIVA OESTE CENTRAL CATARINE      RUA BARAO DO RIO BRANCO 1272E           CHAPECO                                 89800000SP209080000302700326512985/01   01032010900PAULISTA            0104201000000000014365179TD                                                                                                                                                                                                                                                                                                                                                                                           89202-7       000008
1016141008940COBR_CAUC_BIC  COOPERATIVA RIO DO PEIXE                083310441003302COOPERATIVA OESTE CENTRAL CATARINE      RUA BARAO DO RIO BRANCO 1272E           CHAPECO                                 89800000SP209080000402700369512988/01   01032010900PAULISTA            0204201000000000012384652TD                                                                                                                                                                                                                                                                                                                                                                                           89202-8       000009
1018421013411DIR_CREDIT     INDUSTRIA NACIONAL DE ASFALTOS S/A      015211519000196DERBA-DPTO INFRA-EST.TRANSP.DA BAHIA    AV.LUIZ VIANA FILHO,CENTRO ADM DA BAHIA SALVADOR                                41745900BA2089600001                                                                                                                                          010864265           081220090000011799DERBA CF011-09032010000403CONTRATO DE FORNECIMENTO COM TRANSPORTE DOS SEGUINTES PRODUTOS:EMULSAO RM IC - 8.800TON. / EMULSAO RR2C - 1.000 / EMULSAO ASFALTICA RL 1C - 2.350.                                                                                              00335417600013089480-1       000010
1013421015746DIR_CREDIT     ZJ TRANSPORTES E SERVICOS LTDA          042509257000202MINERAçãO CARIBA S/A - OXIDADO          FAZENDA CARAIBA S/N                     JAGUARARI                               48967000BA2090400001                                                                                                                                          010870050           131020090000011859COPOX/0225/009032010000403prestação de serviços, carregamento e empilhamento de minerio oxidado.                                                                                                                                                                          00902944200013589480-2       000011
1014421008188COBR_CAUC_COR  YARA ALIMENTOS LTDA                     068310408000101TRADAL BRAZIL COMERCIO IMPORTACOES      AV CARDEAL SANTIAGO LUIZ COPELO, 2      SAO PAULO                               05308000SP2093200001005305251179001     23022010900BRADESCO S/A        1603201000000000014645000CC                                                                                                                                                                                                                                                                                                                                                                                           89480-3       000012
1029141009096COBR_CAUC_BIC  CPS BRAZIL TOBACCO IMP E EXP LTDA       088124383000150BRASFUMO LTDA                           AV DAS INDUSTRIAS,130                   VENANCIO AIRES                          95800000RS2093300001091792144794        10032010015PORTO ALEGRE        0704201000000000020000000TD                                                                                                                                                                                                                                                                                                                                                                                           89480-4       000013
1016420933828COBR_CAUC_BIC  PENINSULA INTERNATIONAL LTDA            097518765000150KGM COMERCIO E REP DE PROD AGROP L      AV 10 DE DEZEMBRO 6878                  LONDRINA                                86046140PR20934000010270159412226EP6    01032010031LONDRINA            3009201000000000014047600CC                                                                                                                                                                                                                                                                                                                                                                                           89480-5       000014
1016420933828COBR_CAUC_COR  PENINSULA INTERNATIONAL LTDA            000043115799934PAULO MOCELLIN E OUTRA                  AV DOS UIRAPURUSN 353W                  DIAMANTINO                              78450000MT20935000010270164111269       11022010900BRADESCO S/A        3008201000000000010443999CC                                                                                                                                                                                                                                                                                                                                                                                           89480-6       000015
1022141001217COBR_CAUC_BIC  BALDIN BIOENERGIA S/A                   001062529002499DULCINI SA                              ESTR SITIO TABOAO S/N ZONA RUR          PIRASSUNUNGA                            13631301SP2093600001037949706702        08032010021CAMPINAS            1405201000000000025000000TD                                                                                                                                                                                                                                                                                                                                                                                           89480-7       000016
1022141001217COBR_CAUC_BIC  BALDIN BIOENERGIA S/A                   001062529002499DULCINI SA                              ESTR SITIO TABOAO S/N ZONA RUR          PIRASSUNUNGA                            13631301SP2093600002037949886702/01     08032010021CAMPINAS            1705201000000000025000000TD                                                                                                                                                                                                                                                                                                                                                                                           89480-8       000017
1022141001217COBR_CAUC_BIC  BALDIN BIOENERGIA S/A                   001062529002499DULCINI SA                              ESTR SITIO TABOAO S/N ZONA RUR          PIRASSUNUNGA                            13631301SP2093600003037949966702/02     08032010021CAMPINAS            1805201000000000025000000TD                                                                                                                                                                                                                                                                                                                                                                                           89480-9       000018
1022141001217COBR_CAUC_BIC  BALDIN BIOENERGIA S/A                   001062529002499DULCINI SA                              ESTR SITIO TABOAO S/N ZONA RUR          PIRASSUNUNGA                            13631301SP2093600004037950036702/03     08032010021CAMPINAS            1905201000000000025000000TD                                                                                                                                                                                                                                                                                                                                                                                           89480-10      000019
9000018                                                                                                                                                                                                                                                                                                                                                                                                                                                                                                                                                                                                                                                                                                               000020
