0REMESSANOTIFICAÇÃO ELETRONICA        99999999999999Bicbanco S/A                            Avenida Brigadeiro Faria Lima           4.440     2º andar  Itaim Bibi                    São Paulo                     04538132SPBicbanco S/A                                                                    13082013                                                                                                                                                                                                                                                                                                                                                                                                000001
1015421022340COBR_CAUC_BIC  BORRACHAS VIPAL SA                      060681038000107RENOBRAS RENOV. BRASILEIRA PN LTDA      ESTR DR CICERO B MORAIS, 311            BARUERI                                 06407000SP434950000101092834011486401   07082013007PAULISTA            2208201300000000024956175CC                                                                                                                                                                                                                                                                                                                                                                                           251535-1      000002
1007421061990COBR_CAUC_BIC  BRASIL MAQUINAS E EQUIP PESADOS S/A     000252409000103TERCON TERRAPLENAGEM CONST.LTDA         RODOVIA RS 332,1260-KM 101              ENCANTADO                               95960000RS4350400001021482093567A       29072013015PORTO ALEGRE        2608201300000000012666800CC                                                                                                                                                                                                                                                                                                                                                                                           251535-2      000003
1007421061990COBR_CAUC_BIC  BRASIL MAQUINAS E EQUIP PESADOS S/A     000252409000103TERCON TERRAPLENAGEM CONST.LTDA         RODOVIA RS 332,1260-KM 101              ENCANTADO                               95960000RS4350400002021482173567B       29072013015PORTO ALEGRE        2609201300000000012666600CC                                                                                                                                                                                                                                                                                                                                                                                           251535-3      000004
1007421061990COBR_CAUC_BIC  BRASIL MAQUINAS E EQUIP PESADOS S/A     000252409000103TERCON TERRAPLENAGEM CONST.LTDA         RODOVIA RS 332,1260-KM 101              ENCANTADO                               95960000RS4350400003021482253567C       29072013015PORTO ALEGRE        2610201300000000012666600CC                                                                                                                                                                                                                                                                                                                                                                                           251535-4      000005
1007421061990COBR_CAUC_BIC  BRASIL MAQUINAS E EQUIP PESADOS S/A     004810550000127LEAO ENGENHARIA S.A.                    AVENIDA PRESIDENTE VARGAS,2121          RIBEIRAO PRETO                          14020260SP43505000010214844612568A      06082012022RIBEIRAO PRETO      1509201300000000010285714CC                                                                                                                                                                                                                                                                                                                                                                                           251535-5      000006
1007421061990COBR_CAUC_BIC  BRASIL MAQUINAS E EQUIP PESADOS S/A     004810550000127LEAO ENGENHARIA S.A.                    AVENIDA PRESIDENTE VARGAS,2121          RIBEIRAO PRETO                          14020260SP43505000020214845412568B      06082012022RIBEIRAO PRETO      1510201300000000010285714CC                                                                                                                                                                                                                                                                                                                                                                                           251535-6      000007
1007421061990COBR_CAUC_BIC  BRASIL MAQUINAS E EQUIP PESADOS S/A     004810550000127LEAO ENGENHARIA S.A.                    AVENIDA PRESIDENTE VARGAS,2121          RIBEIRAO PRETO                          14020260SP43505000030214846212568C      06082012022RIBEIRAO PRETO      1511201300000000010285714CC                                                                                                                                                                                                                                                                                                                                                                                           251535-7      000008
1007421061990COBR_CAUC_BIC  BRASIL MAQUINAS E EQUIP PESADOS S/A     004810550000127LEAO ENGENHARIA S.A.                    AVENIDA PRESIDENTE VARGAS,2121          RIBEIRAO PRETO                          14020260SP43505000040214847112568D      06082012022RIBEIRAO PRETO      1512201300000000010285714CC                                                                                                                                                                                                                                                                                                                                                                                           251535-8      000009
1007421061990COBR_CAUC_BIC  BRASIL MAQUINAS E EQUIP PESADOS S/A     004810550000127LEAO ENGENHARIA S.A.                    AVENIDA PRESIDENTE VARGAS,2121          RIBEIRAO PRETO                          14020260SP43505000050214848912568E      06082012022RIBEIRAO PRETO      1501201400000000010285714CC                                                                                                                                                                                                                                                                                                                                                                                           251535-9      000010
1007421061990COBR_CAUC_BIC  BRASIL MAQUINAS E EQUIP PESADOS S/A     004810550000127LEAO ENGENHARIA S.A.                    AVENIDA PRESIDENTE VARGAS,2121          RIBEIRAO PRETO                          14020260SP43505000060214849712568F      06082012022RIBEIRAO PRETO      1502201400000000010285715CC                                                                                                                                                                                                                                                                                                                                                                                           251535-10     000011
1007421061990COBR_CAUC_BIC  BRASIL MAQUINAS E EQUIP PESADOS S/A     004810550000127LEAO ENGENHARIA S.A.                    AVENIDA PRESIDENTE VARGAS,2121          RIBEIRAO PRETO                          14020260SP43505000070214850112568G      06082012022RIBEIRAO PRETO      1503201400000000010285715CC                                                                                                                                                                                                                                                                                                                                                                                           251535-11     000012
1015421021867COBR_CAUC_COR  COTRIJUI COOP AGROP & INDUSTRIAL        008474030000141MEDEIROS FRIOS E CONGELADOS LTDA-       RUA DIAS CARNEIRO 1977                  BACABAL                                 65700000MA435020000100049676156578-1    07082013900BRADESCO S/A        1408201300000000013058000CC                                                                                                                                                                                                                                                                                                                                                                                           251535-12     000013
1021420930887COBR_CAUC_BIC  DEDINI S/A INDUSTRIAS DE BASE           075717355000286USINA DE ACUCAR SANTA TEREZINHA LT      AV MARCELO MESSIAS BUSIQUIA 847 PQ INDUSMARINGA                                 87065006PR434960000106424771227318-1-1  08082013016CURITIBA            3008201300000000030000000CC                                                                                                                                                                                                                                                                                                                                                                                           251535-13     000014
1021420930887COBR_CAUC_BIC  DEDINI S/A INDUSTRIAS DE BASE           075717355000286USINA DE ACUCAR SANTA TEREZINHA LT      AV MARCELO MESSIAS BUSIQUIA 847 PQ INDUSMARINGA                                 87065006PR434960000206424801227318-2-2  08082013016CURITIBA            3009201300000000030000000CC                                                                                                                                                                                                                                                                                                                                                                                           251535-14     000015
1021420930887COBR_CAUC_BIC  DEDINI S/A INDUSTRIAS DE BASE           075717355000286USINA DE ACUCAR SANTA TEREZINHA LT      AV MARCELO MESSIAS BUSIQUIA 847 PQ INDUSMARINGA                                 87065006PR434960000306424810227318-3-3  08082013016CURITIBA            3010201300000000022500000CC                                                                                                                                                                                                                                                                                                                                                                                           251535-15     000016
1016421009571COBR_CAUC_BIC  IMPORTADORA DE FRUTAS LA VIOLETERA      001644931000608A.S.E. DISTRIBUICAO LTDA                RUA SARGENTE EICLIDES, 110              ANAPOLIS                                75130390GO4349700001040918740025015001  06082013018GOIANIA             0309201300000000010920548CC                                                                                                                                                                                                                                                                                                                                                                                           251535-16     000017
1007421065309COBR_CAUC_BIC  OCEANO IND.GRAFICA E EDITORA LTDA       062270186000156PRECOLANDIA COMERCIALLTDA               AV. ALVARO RAMOS,2178                   SAO PAULO                               03330000SP43501000010214851945600-A     30072013007PAULISTA            3008201300000000013911295CC                                                                                                                                                                                                                                                                                                                                                                                           251535-17     000018
1036421018985COBR_CAUC_COR  PEEQFLEX INDUSTRIA E COMERCIO LTDA      073410326000837CERVEJARIA PETROPOLIS S/A               Rod Celso Garcia Cid, 1440Km 85         CAMBE                                   86185520PR4350300001059658636023728-01  07082013800UNIBANCO S/A        0409201300000000013024653CC                                                                                                                                                                                                                                                                                                                                                                                           251535-18     000019
1007421055095COBR_CAUC_COR  PLASTER IND COM RESINAS PLAS EIRELI     045420726000111TEXTIL ITAJA LTDA                       RUA PROJETADA II,75                     SALTO DE PIRAPO                         18160000SP435060000100015244035385/A    07082013900BRADESCO S/A        0709201300000000017036250CC                                                                                                                                                                                                                                                                                                                                                                                           251535-19     000020
1029421018494COBR_CAUC_BIC  PRO SALUTE SERVICOS PARA SAUDE LTDA     088611264000122INTRAL S A IND DE MATERIAIS ELETRI      TRAV. RIO GRANDE , 130                  CAXIAS DO SUL                           95098750RS4349800001000008660135211.A   02082013015PORTO ALEGRE        1009201300000000010067321CC                                                                                                                                                                                                                                                                                                                                                                                           251535-20     000021
1029421018494COBR_CAUC_BIC  PRO SALUTE SERVICOS PARA SAUDE LTDA     093785822000106SAN MARINO ONIBUS E IMPLEMENTOS LT      IRMAO GILDO SCHIAVO, 110                CAXIAS DO SUL                           95058510RS4350000001000008400135258.A   02082013015PORTO ALEGRE        2008201300000000021704296CC                                                                                                                                                                                                                                                                                                                                                                                           251535-21     000022
1029421018494COBR_CAUC_BIC  PRO SALUTE SERVICOS PARA SAUDE LTDA     090467424000153VIACAO SANTA TEREZA DE CAXIAS DO S      RUA JULIO CALEGARI, 940                 CAXIAS DO SUL                           95095230RS4349900001000008580135277.A   02082013015PORTO ALEGRE        1808201300000000023079286CC                                                                                                                                                                                                                                                                                                                                                                                           251535-22     000023
1021420930887COBR_CAUC_COR  DEDINI S/A INDUSTRIAS DE BASE           077264224000135USINA DE ACUCAR E ALCOOL GOIOERE L      ROD. PR 180, KM 174 ZONA RURAL BR       MOREIRA SALES                           87370000PR435220000106425395217139-6-2  26072013900BRADESCO S/A        2011201300000000014166000CC                                                                                                                                                                                                                                                                                                                                                                                           251547-1      000024
1021420930887COBR_CAUC_COR  DEDINI S/A INDUSTRIAS DE BASE           077264224000135USINA DE ACUCAR E ALCOOL GOIOERE L      ROD. PR 180, KM 174 ZONA RURAL BR       MOREIRA SALES                           87370000PR435220000206425409217139-6-6  17072013900BRADESCO S/A        2011201300000000074166000CC                                                                                                                                                                                                                                                                                                                                                                                           251547-2      000025
1048421000338COBR_CAUC_COR  FRIGOESTRELA S.A. EM RECUP JUDICIAL     023439441001323ARMAZEM MATEUS S.A.                     AV ENGENHEIRO EMILIANO MACIEIRA5DE      SAO LUIS                                65095602MA4352400001056418100097358801  08082013900BRADESCO S/A        0709201300000000010321395CC                                                                                                                                                                                                                                                                                                                                                                                           251547-3      000026
1031421010207COBR_CAUC_COR  ITAMARATY INDUSTRIA E COMERCIO S/A      005997742000408UNIMARKA DISTRIBUIDORA S/A              ROD. CONEGO JOAO B. GUILHERME,S/N       COLATINA                                29705720ES43525000010529265260055       08082013800UNIBANCO S/A        1609201300000000011067830CC                                                                                                                                                                                                                                                                                                                                                                                           251547-4      000027
1028421002921COBR_CAUC_COR  MATABOI ALIMENTOS S/A - EM REC.JUD.     007575612000151INDUSTRIA DE CARNES NELORE LTDA         AVANSELMO ALVES DOS SANTOS1450A         UBERLANDIA                              38408150MG4352100001004062660001548001  08082013900BRADESCO S/A        1308201300000000010454217CC                                                                                                                                                                                                                                                                                                                                                                                           251547-5      000028
1021421015970COBR_CAUC_COR  UNITED MILLS ALIMENTOS LTDA             075315333000109ATACADAO DISTRIBUICAO COM. E INDUS      AV MOVAN DIAS DE FIGUEIREDO, 6169       SAO PAULO                               02170901SP435230000106425425000077293   02082013900BRADESCO S/A        3110201300000000016189022CC                                                                                                                                                                                                                                                                                                                                                                                           251547-6      000029
1021421015970COBR_CAUC_COR  UNITED MILLS ALIMENTOS LTDA             075315333000109ATACADAO DISTRIBUICAO COM. E INDUS      AV MOVAN DIAS DE FIGUEIREDO, 6169       SAO PAULO                               02170901SP435230000206425433000077294   02082013900BRADESCO S/A        3110201300000000013598778CC                                                                                                                                                                                                                                                                                                                                                                                           251547-7      000030
9000029                                                                                                                                                                                                                                                                                                                                                                                                                                                                                                                                                                                                                                                                                                               000031
