0REMESSANOTIFICAÇÃO ELETRONICA        99999999999999Bicbanco S/A                            Avenida Brigadeiro Faria Lima           4.440     2º andar  Itaim Bibi                    São Paulo                     04538132SPBicbanco S/A                                                                    06032012                                                                                                                                                                                                                                                                                                                                                                                                000001
1031420932046COBR_CAUC_BIC  PALMALI INDL.DE ALIMENTOS LTDA          074101569000341AGRICOLA JANDELLE S/A.                  AV ITAMARATY                            ROLANDIA                                86600000PR341710000104975152NE 0344541  01032012031LONDRINA            0304201200000000050000000CC                                                                                                                                                                                                                                                                                                                                                                                           165545-1      000002
1031420932046COBR_CAUC_BIC  PALMALI INDL.DE ALIMENTOS LTDA          074101569000341AGRICOLA JANDELLE S/A.                  AV ITAMARATY                            ROLANDIA                                86600000PR341710000204975161NE 0344542  01032012031LONDRINA            0305201200000000050000000CC                                                                                                                                                                                                                                                                                                                                                                                           165545-2      000003
1031420932046COBR_CAUC_BIC  PALMALI INDL.DE ALIMENTOS LTDA          074101569000341AGRICOLA JANDELLE S/A.                  AV ITAMARATY                            ROLANDIA                                86600000PR341710000304975179NE 0344543  01032012031LONDRINA            0306201200000000050000000CC                                                                                                                                                                                                                                                                                                                                                                                           165545-3      000004
1007421057233COBR_CAUC_BIC  FULL COMEX IMP E EXP LTDA               013974830000161CONTERRANEA COMERCIO DE MAQUINAS E      RODOVIA BR 116 KM 04,,9000,             FORTALEZA                               60864012CE3417200001011184032894.2      29022012003CENTRO              1505201200000000011523766CC                                                                                                                                                                                                                                                                                                                                                                                           165545-4      000005
1007421057233COBR_CAUC_BIC  FULL COMEX IMP E EXP LTDA               013974830000161CONTERRANEA COMERCIO DE MAQUINAS E      RODOVIA BR 116 KM 04,,9000,             FORTALEZA                               60864012CE3417200002011184112891.2      29022012003CENTRO              1505201200000000010707711CC                                                                                                                                                                                                                                                                                                                                                                                           165545-5      000006
1007421057233COBR_CAUC_BIC  FULL COMEX IMP E EXP LTDA               013974830000161CONTERRANEA COMERCIO DE MAQUINAS E      RODOVIA BR 116 KM 04,,9000,             FORTALEZA                               60864012CE3417200003011184202891.4      29022012003CENTRO              2306201200000000012690706CC                                                                                                                                                                                                                                                                                                                                                                                           165545-6      000007
1019421002647COBR_CAUC_BIC  TRANSPORTES PARGON LTDA                 017156035000117DIMAP LTDA                              RUA AMERICO SANTIAGO PIACENZA,750       CONTAGEM                                32010030MG341860000106349494302376      08022012019BELO HORIZONTE      2004201200000000001400000CC                                                                                                                                                                                                                                                                                                                                                                                           165545-7      000008
1019421002647COBR_CAUC_BIC  TRANSPORTES PARGON LTDA                 017156035000117DIMAP LTDA                              RUA AMERICO SANTIAGO PIACENZA,750       CONTAGEM                                32010030MG341860000206309450301863      29122011019BELO HORIZONTE      0603201200000000001100000CC                                                                                                                                                                                                                                                                                                                                                                                           165545-8      000009
1019421002647COBR_CAUC_BIC  TRANSPORTES PARGON LTDA                 017156035000117DIMAP LTDA                              RUA AMERICO SANTIAGO PIACENZA,750       CONTAGEM                                32010030MG341860000306309506301873      02012012019BELO HORIZONTE      0803201200000000001200000CC                                                                                                                                                                                                                                                                                                                                                                                           165545-9      000010
1019421002647COBR_CAUC_BIC  TRANSPORTES PARGON LTDA                 017156035000117DIMAP LTDA                              RUA AMERICO SANTIAGO PIACENZA,750       CONTAGEM                                32010030MG341860000406309514301874      02012012019BELO HORIZONTE      0803201200000000001100000CC                                                                                                                                                                                                                                                                                                                                                                                           165545-10     000011
1019421002647COBR_CAUC_BIC  TRANSPORTES PARGON LTDA                 017156035000117DIMAP LTDA                              RUA AMERICO SANTIAGO PIACENZA,750       CONTAGEM                                32010030MG341860000506310032301881      03012012019BELO HORIZONTE      0903201200000000001200000CC                                                                                                                                                                                                                                                                                                                                                                                           165545-11     000012
1019421002647COBR_CAUC_BIC  TRANSPORTES PARGON LTDA                 017156035000117DIMAP LTDA                              RUA AMERICO SANTIAGO PIACENZA,750       CONTAGEM                                32010030MG341860000606318629301888      04012012019BELO HORIZONTE      1203201200000000001200000CC                                                                                                                                                                                                                                                                                                                                                                                           165545-12     000013
1019421002647COBR_CAUC_BIC  TRANSPORTES PARGON LTDA                 017156035000117DIMAP LTDA                              RUA AMERICO SANTIAGO PIACENZA,750       CONTAGEM                                32010030MG341860000706318661301897      05012012019BELO HORIZONTE      1303201200000000000700000CC                                                                                                                                                                                                                                                                                                                                                                                           165545-13     000014
1019421002647COBR_CAUC_BIC  TRANSPORTES PARGON LTDA                 017156035000117DIMAP LTDA                              RUA AMERICO SANTIAGO PIACENZA,750       CONTAGEM                                32010030MG341860000806318718301901      06012012019BELO HORIZONTE      1503201200000000001400000CC                                                                                                                                                                                                                                                                                                                                                                                           165545-14     000015
1019421002647COBR_CAUC_BIC  TRANSPORTES PARGON LTDA                 017156035000117DIMAP LTDA                              RUA AMERICO SANTIAGO PIACENZA,750       CONTAGEM                                32010030MG341860000906318751301921      09012012019BELO HORIZONTE      1903201200000000000700000CC                                                                                                                                                                                                                                                                                                                                                                                           165545-15     000016
1019421002647COBR_CAUC_BIC  TRANSPORTES PARGON LTDA                 017156035000117DIMAP LTDA                              RUA AMERICO SANTIAGO PIACENZA,750       CONTAGEM                                32010030MG341860001006318823301945      10012012019BELO HORIZONTE      2003201200000000001400000CC                                                                                                                                                                                                                                                                                                                                                                                           165545-16     000017
1019421002647COBR_CAUC_BIC  TRANSPORTES PARGON LTDA                 017156035000117DIMAP LTDA                              RUA AMERICO SANTIAGO PIACENZA,750       CONTAGEM                                32010030MG341860001106320283301962      11012012019BELO HORIZONTE      2103201200000000001200000CC                                                                                                                                                                                                                                                                                                                                                                                           165545-17     000018
1019421002647COBR_CAUC_BIC  TRANSPORTES PARGON LTDA                 017156035000117DIMAP LTDA                              RUA AMERICO SANTIAGO PIACENZA,750       CONTAGEM                                32010030MG341860001206320453301972      12012012019BELO HORIZONTE      2203201200000000001200000CC                                                                                                                                                                                                                                                                                                                                                                                           165545-18     000019
1019421002647COBR_CAUC_BIC  TRANSPORTES PARGON LTDA                 017156035000117DIMAP LTDA                              RUA AMERICO SANTIAGO PIACENZA,750       CONTAGEM                                32010030MG341860001306321077301984      13012012019BELO HORIZONTE      2303201200000000001100000CC                                                                                                                                                                                                                                                                                                                                                                                           165545-19     000020
1019421002647COBR_CAUC_BIC  TRANSPORTES PARGON LTDA                 017156035000117DIMAP LTDA                              RUA AMERICO SANTIAGO PIACENZA,750       CONTAGEM                                32010030MG341860001406332613301993      16012012019BELO HORIZONTE      2603201200000000001200000CC                                                                                                                                                                                                                                                                                                                                                                                           165545-20     000021
1019421002647COBR_CAUC_BIC  TRANSPORTES PARGON LTDA                 017156035000117DIMAP LTDA                              RUA AMERICO SANTIAGO PIACENZA,750       CONTAGEM                                32010030MG341860001506333075302046      18012012019BELO HORIZONTE      2803201200000000000800000CC                                                                                                                                                                                                                                                                                                                                                                                           165545-21     000022
1019421002647COBR_CAUC_BIC  TRANSPORTES PARGON LTDA                 017156035000117DIMAP LTDA                              RUA AMERICO SANTIAGO PIACENZA,750       CONTAGEM                                32010030MG341860001606333121302079      19012012019BELO HORIZONTE      2903201200000000000600000CC                                                                                                                                                                                                                                                                                                                                                                                           165545-22     000023
1019421002647COBR_CAUC_BIC  TRANSPORTES PARGON LTDA                 017156035000117DIMAP LTDA                              RUA AMERICO SANTIAGO PIACENZA,750       CONTAGEM                                32010030MG341860001706333172302085      20012012019BELO HORIZONTE      3003201200000000000900000CC                                                                                                                                                                                                                                                                                                                                                                                           165545-23     000024
1019421002647COBR_CAUC_BIC  TRANSPORTES PARGON LTDA                 017156035000117DIMAP LTDA                              RUA AMERICO SANTIAGO PIACENZA,750       CONTAGEM                                32010030MG341860001806333229302123      23012012019BELO HORIZONTE      0204201200000000000700000CC                                                                                                                                                                                                                                                                                                                                                                                           165545-24     000025
1019421002647COBR_CAUC_BIC  TRANSPORTES PARGON LTDA                 017156035000117DIMAP LTDA                              RUA AMERICO SANTIAGO PIACENZA,750       CONTAGEM                                32010030MG341860001906333288302146      24012012019BELO HORIZONTE      0304201200000000000800000CC                                                                                                                                                                                                                                                                                                                                                                                           165545-25     000026
1019421002647COBR_CAUC_BIC  TRANSPORTES PARGON LTDA                 017156035000117DIMAP LTDA                              RUA AMERICO SANTIAGO PIACENZA,750       CONTAGEM                                32010030MG341860002006342708302176      25012012019BELO HORIZONTE      0404201200000000000800000CC                                                                                                                                                                                                                                                                                                                                                                                           165545-26     000027
1019421002647COBR_CAUC_BIC  TRANSPORTES PARGON LTDA                 017156035000117DIMAP LTDA                              RUA AMERICO SANTIAGO PIACENZA,750       CONTAGEM                                32010030MG341860002106342732302191      26012012019BELO HORIZONTE      0504201200000000000900000CC                                                                                                                                                                                                                                                                                                                                                                                           165545-27     000028
1019421002647COBR_CAUC_BIC  TRANSPORTES PARGON LTDA                 017156035000117DIMAP LTDA                              RUA AMERICO SANTIAGO PIACENZA,750       CONTAGEM                                32010030MG341860002206346428302231      30012012019BELO HORIZONTE      1004201200000000000700000CC                                                                                                                                                                                                                                                                                                                                                                                           165545-28     000029
1019421002647COBR_CAUC_BIC  TRANSPORTES PARGON LTDA                 017156035000117DIMAP LTDA                              RUA AMERICO SANTIAGO PIACENZA,750       CONTAGEM                                32010030MG341860002306347041302247      31012012019BELO HORIZONTE      1104201200000000001000000CC                                                                                                                                                                                                                                                                                                                                                                                           165545-29     000030
1019421002647COBR_CAUC_BIC  TRANSPORTES PARGON LTDA                 017156035000117DIMAP LTDA                              RUA AMERICO SANTIAGO PIACENZA,750       CONTAGEM                                32010030MG341860002406348218302283      02022012019BELO HORIZONTE      1604201200000000001300000CC                                                                                                                                                                                                                                                                                                                                                                                           165545-30     000031
1019421002647COBR_CAUC_BIC  TRANSPORTES PARGON LTDA                 017156035000117DIMAP LTDA                              RUA AMERICO SANTIAGO PIACENZA,750       CONTAGEM                                32010030MG341860002506348269302300      03022012019BELO HORIZONTE      1704201200000000001500000CC                                                                                                                                                                                                                                                                                                                                                                                           165545-31     000032
1019421002647COBR_CAUC_BIC  TRANSPORTES PARGON LTDA                 017156035000117DIMAP LTDA                              RUA AMERICO SANTIAGO PIACENZA,750       CONTAGEM                                32010030MG341860002606348293302331      06022012019BELO HORIZONTE      1804201200000000000900000CC                                                                                                                                                                                                                                                                                                                                                                                           165545-32     000033
1019421002647COBR_CAUC_BIC  TRANSPORTES PARGON LTDA                 017156035000117DIMAP LTDA                              RUA AMERICO SANTIAGO PIACENZA,750       CONTAGEM                                32010030MG341860002706348790302356      07022012019BELO HORIZONTE      1904201200000000001000000CC                                                                                                                                                                                                                                                                                                                                                                                           165545-33     000034
1019421002647COBR_CAUC_BIC  TRANSPORTES PARGON LTDA                 017156035000117DIMAP LTDA                              RUA AMERICO SANTIAGO PIACENZA,750       CONTAGEM                                32010030MG341860002806349591302415      09022012019BELO HORIZONTE      2304201200000000001000000CC                                                                                                                                                                                                                                                                                                                                                                                           165545-34     000035
1019421002647COBR_CAUC_BIC  TRANSPORTES PARGON LTDA                 017156035000117DIMAP LTDA                              RUA AMERICO SANTIAGO PIACENZA,750       CONTAGEM                                32010030MG341860002906349605302416      09022012019BELO HORIZONTE      2404201200000000000900000CC                                                                                                                                                                                                                                                                                                                                                                                           165545-35     000036
1019421002647COBR_CAUC_BIC  TRANSPORTES PARGON LTDA                 017156035000117DIMAP LTDA                              RUA AMERICO SANTIAGO PIACENZA,750       CONTAGEM                                32010030MG341860003006349648302434      10022012019BELO HORIZONTE      2404201200000000001100000CC                                                                                                                                                                                                                                                                                                                                                                                           165545-36     000037
1019421002647COBR_CAUC_BIC  TRANSPORTES PARGON LTDA                 017156035000117DIMAP LTDA                              RUA AMERICO SANTIAGO PIACENZA,750       CONTAGEM                                32010030MG341860003106359848302459      13022012019BELO HORIZONTE      2504201200000000001400000CC                                                                                                                                                                                                                                                                                                                                                                                           165545-37     000038
1019421002647COBR_CAUC_BIC  TRANSPORTES PARGON LTDA                 017156035000117DIMAP LTDA                              RUA AMERICO SANTIAGO PIACENZA,750       CONTAGEM                                32010030MG341860003206360803302475      14022012019BELO HORIZONTE      2604201200000000001500000CC                                                                                                                                                                                                                                                                                                                                                                                           165545-38     000039
1019421002647COBR_CAUC_BIC  TRANSPORTES PARGON LTDA                 017156035000117DIMAP LTDA                              RUA AMERICO SANTIAGO PIACENZA,750       CONTAGEM                                32010030MG341860003306360846302511      15022012019BELO HORIZONTE      3004201200000000001400000CC                                                                                                                                                                                                                                                                                                                                                                                           165545-39     000040
1019421002647COBR_CAUC_BIC  TRANSPORTES PARGON LTDA                 017156035000117DIMAP LTDA                              RUA AMERICO SANTIAGO PIACENZA,750       CONTAGEM                                32010030MG341860003406360897302528      16022012019BELO HORIZONTE      0205201200000000001100000CC                                                                                                                                                                                                                                                                                                                                                                                           165545-40     000041
1019421002647COBR_CAUC_BIC  TRANSPORTES PARGON LTDA                 017156035000117DIMAP LTDA                              RUA AMERICO SANTIAGO PIACENZA,750       CONTAGEM                                32010030MG341860003506361125302586      22022012019BELO HORIZONTE      0305201200000000001100000CC                                                                                                                                                                                                                                                                                                                                                                                           165545-41     000042
1019421002647COBR_CAUC_BIC  TRANSPORTES PARGON LTDA                 017156035000117DIMAP LTDA                              RUA AMERICO SANTIAGO PIACENZA,750       CONTAGEM                                32010030MG341860003606361150302591      23022012019BELO HORIZONTE      0405201200000000000900000CC                                                                                                                                                                                                                                                                                                                                                                                           165545-42     000043
1019421002647COBR_CAUC_BIC  TRANSPORTES PARGON LTDA                 017156035000117DIMAP LTDA                              RUA AMERICO SANTIAGO PIACENZA,750       CONTAGEM                                32010030MG341860003706361168302592      23022012019BELO HORIZONTE      0405201200000000001000000CC                                                                                                                                                                                                                                                                                                                                                                                           165545-43     000044
1019421002647COBR_CAUC_BIC  TRANSPORTES PARGON LTDA                 017156035000117DIMAP LTDA                              RUA AMERICO SANTIAGO PIACENZA,750       CONTAGEM                                32010030MG341860003806364001302613      24022012019BELO HORIZONTE      0705201200000000001200000CC                                                                                                                                                                                                                                                                                                                                                                                           165545-44     000045
1019421002647COBR_CAUC_BIC  TRANSPORTES PARGON LTDA                 017156035000117DIMAP LTDA                              RUA AMERICO SANTIAGO PIACENZA,750       CONTAGEM                                32010030MG341860003906372526302684      29022012019BELO HORIZONTE      0905201200000000000800000CC                                                                                                                                                                                                                                                                                                                                                                                           165545-45     000046
1019421002647COBR_CAUC_BIC  TRANSPORTES PARGON LTDA                 017156035000117DIMAP LTDA                              RUA AMERICO SANTIAGO PIACENZA,750       CONTAGEM                                32010030MG341860004006372569302701      01032012019BELO HORIZONTE      1105201200000000000800000CC                                                                                                                                                                                                                                                                                                                                                                                           165545-46     000047
9000046                                                                                                                                                                                                                                                                                                                                                                                                                                                                                                                                                                                                                                                                                                               000048
