0REMESSANOTIFICAÇÃO ELETRONICA        99999999999999Bicbanco S/A                            Avenida Paulista                        1048      12º andar BELA VISTA                    SÃO PAULO                     01310100SPBicbanco S/A                                                                    03112011                                                                                                                                                                                                                                                                                                                                                                                                000001
1016420933933COBR_CAUC_COR  ANGELO CAMILOTTI & CIA LTDA             027179753000910DLD COMERCIO VAREJISTA LDA              RUA DOMINGOS DADALTO ,33                CARIACICA                               29150527ES3160300001032191177498-1      27102011900BRADESCO S/A        1212201100000000010047000CC                                                                                                                                                                                                                                                                                                                                                                                           150213-1      000002
1021141012725COBR_CAUC_BIC  MABE BRASIL ELETRODOMESTICOS LTDA       056642960000100LOJAS CEM S/A                           ROD.ENG.ERMENIO OLIVE 0, KM 46 S/N      SALTO                                   13329900SP3162000001062232960000059536  27102011021CAMPINAS            1611201100000000013471939TD                                                                                                                                                                                                                                                                                                                                                                                           150351-1      000003
1021141012725COBR_CAUC_BIC  MABE BRASIL ELETRODOMESTICOS LTDA       056642960000100LOJAS CEM S/A                           ROD.ENG.ERMENIO OLIVE 0, KM 46 S/N      SALTO                                   13329900SP3162000002062233000000059538  27102011021CAMPINAS            1611201100000000013471939TD                                                                                                                                                                                                                                                                                                                                                                                           150351-2      000004
1021141012725COBR_CAUC_BIC  MABE BRASIL ELETRODOMESTICOS LTDA       056642960000100LOJAS CEM S/A                           ROD.ENG.ERMENIO OLIVE 0, KM 46 S/N      SALTO                                   13329900SP3162000003062233180000059542  27102011021CAMPINAS            1611201100000000013471939TD                                                                                                                                                                                                                                                                                                                                                                                           150351-3      000005
1021141012725COBR_CAUC_BIC  MABE BRASIL ELETRODOMESTICOS LTDA       056642960000100LOJAS CEM S/A                           ROD.ENG.ERMENIO OLIVE 0, KM 46 S/N      SALTO                                   13329900SP3162000004062233260000059543  27102011021CAMPINAS            1611201100000000013471939TD                                                                                                                                                                                                                                                                                                                                                                                           150351-4      000006
1021141012725COBR_CAUC_BIC  MABE BRASIL ELETRODOMESTICOS LTDA       056642960000100LOJAS CEM S/A                           ROD.ENG.ERMENIO OLIVE 0, KM 46 S/N      SALTO                                   13329900SP3162000005062233340000059544  27102011021CAMPINAS            1611201100000000013471939TD                                                                                                                                                                                                                                                                                                                                                                                           150351-5      000007
1021141012725COBR_CAUC_BIC  MABE BRASIL ELETRODOMESTICOS LTDA       056642960000100LOJAS CEM S/A                           ROD.ENG.ERMENIO OLIVE 0, KM 46 S/N      SALTO                                   13329900SP3162000006062233420000059557  27102011021CAMPINAS            1611201100000000013471939TD                                                                                                                                                                                                                                                                                                                                                                                           150351-6      000008
1021141012725COBR_CAUC_BIC  MABE BRASIL ELETRODOMESTICOS LTDA       056642960000100LOJAS CEM S/A                           ROD.ENG.ERMENIO OLIVE 0, KM 46 S/N      SALTO                                   13329900SP3162000007062233510000059636  28102011021CAMPINAS            1611201100000000013471939TD                                                                                                                                                                                                                                                                                                                                                                                           150351-7      000009
1021141012725COBR_CAUC_BIC  MABE BRASIL ELETRODOMESTICOS LTDA       056642960000100LOJAS CEM S/A                           ROD.ENG.ERMENIO OLIVE 0, KM 46 S/N      SALTO                                   13329900SP3162000008062233690000059637  28102011021CAMPINAS            1611201100000000013471939TD                                                                                                                                                                                                                                                                                                                                                                                           150351-8      000010
1018421005230COBR_CAUC_COR  CENTROALCOOL S/A                        002368373000226NAKI DISTRIBUIDORA DE COMBUSTIVEIS      RUA JC 19                               SENADOR CANEDO                          75250000GO31621000010249091237950/AA    28102011800UNIBANCO S/A        2304201200000000040000000CC                                                                                                                                                                                                                                                                                                                                                                                           150351-9      000011
1018421005230COBR_CAUC_COR  CENTROALCOOL S/A                        002368373000226NAKI DISTRIBUIDORA DE COMBUSTIVEIS      RUA JC 19                               SENADOR CANEDO                          75250000GO31621000020249092137950/AB    28102011800UNIBANCO S/A        3004201200000000040000000CC                                                                                                                                                                                                                                                                                                                                                                                           150351-10     000012
1018421005230COBR_CAUC_COR  CENTROALCOOL S/A                        002368373000226NAKI DISTRIBUIDORA DE COMBUSTIVEIS      RUA JC 19                               SENADOR CANEDO                          75250000GO31621000030249093937950/AC    28102011800UNIBANCO S/A        0705201200000000040000000CC                                                                                                                                                                                                                                                                                                                                                                                           150351-11     000013
1018421005230COBR_CAUC_COR  CENTROALCOOL S/A                        002368373000226NAKI DISTRIBUIDORA DE COMBUSTIVEIS      RUA JC 19                               SENADOR CANEDO                          75250000GO31621000040249094737950/AD    28102011800UNIBANCO S/A        1405201200000000040000000CC                                                                                                                                                                                                                                                                                                                                                                                           150351-12     000014
1018421005230COBR_CAUC_COR  CENTROALCOOL S/A                        002368373000226NAKI DISTRIBUIDORA DE COMBUSTIVEIS      RUA JC 19                               SENADOR CANEDO                          75250000GO31621000050249095537950/AE    28102011800UNIBANCO S/A        2105201200000000040000000CC                                                                                                                                                                                                                                                                                                                                                                                           150351-13     000015
1016421000809COBR_CAUC_BIC  LOGIKA DISTRIBUIDORA COSMETICOS LTD     025769266000124ARCOM S/A                               ANEL VIARIO AYRTON SENNA, 2001          UBERLANDIA                              38414512MG3162200001032204330008097/01  28092011028UBERLANDIA          2811201100000000014200200CC                                                                                                                                                                                                                                                                                                                                                                                           150351-14     000016
1016421000809COBR_CAUC_BIC  LOGIKA DISTRIBUIDORA COSMETICOS LTD     025769266000124ARCOM S/A                               ANEL VIARIO AYRTON SENNA, 2001          UBERLANDIA                              38414512MG3162200002032204410009034/01  26102011028UBERLANDIA          2612201100000000019609800CC                                                                                                                                                                                                                                                                                                                                                                                           150351-15     000017
1016421000809COBR_CAUC_BIC  LOGIKA DISTRIBUIDORA COSMETICOS LTD     025769266000124ARCOM S/A                               ANEL VIARIO AYRTON SENNA, 2001          UBERLANDIA                              38414512MG3162200003032204500009167/01  27102011028UBERLANDIA          2612201100000000013524000CC                                                                                                                                                                                                                                                                                                                                                                                           150351-16     000018
1046421001443COBR_CAUC_COR  COSTAO DO SANTINHO TUR E LAZER LTDA     081015158000137PRIMEIRO MUNDO AGENTE DE VIAGENS L      R. ANGELO DIAS,207-SALA 52              BLUMENAU                                89010020SC316230000100004310117569      27102011900BRADESCO S/A        1711201100000000019461355CC                                                                                                                                                                                                                                                                                                                                                                                           150351-17     000019
1007421034080COBR_CAUC_BIC  SIDMEX INTERNACIONAL LTDA               045145075000107SANTO ANDRE DISTRIBUIDORA INDUSTRI      RUA CAIUBI ,60                          SANTO ANDRE                             09185610SP316240000100889872376.11      27102011038ABC                 1011201100000000011498288CC                                                                                                                                                                                                                                                                                                                                                                                           150351-18     000020
1016421019291COBR_CAUC_BIC  ITESA LTDA                              041757527000495EATON LTDA                              RUA CLARK 2061                          VALINHOS                                13279400SP31625000010322050616724       27102011021CAMPINAS            2811201100000000039048200CC                                                                                                                                                                                                                                                                                                                                                                                           150351-19     000021
1028481006214DIR_CREDIT     ARAGUAIA ENGENHARIA LTDA                025769548000121DMAE - DEPTO MUNICIPAL DE AGUA E ESGOTO RUA MARTINESIA 245                      UBERLANDIA                              38400606MG3008600001                                                                                                                                          011257406           181220090000011538158/2009    21122010000453execução das obras da 2º etapa da estação de tratamento de esgoto denominada ETE Uberabinha e do Interceptor de Esgoto denominado Interceptor do Córrego do Oleo, compreendendo pré operãção e operação.                                        019465574000163150352-1      000022
1028481006214DIR_CREDIT     ARAGUAIA ENGENHARIA LTDA                025769548000121DMAE - DEPTO MUNICIPAL DE AGUA E ESGOTO RUA MARTINESIA 245                      UBERLANDIA                              38400606MG3008700001                                                                                                                                          010833055           181220090000011538158/2009    03052010000403execução das obras da 2º etapa da estação de tratamento de esgoto denominada ETE Uberabinha e do Interceptor de Esgoto denominado Interceptor do Córrego do Oleo, compreendendo pré operãção e operação.                                        019465574000163150352-2      000023
1028481006214DIR_CREDIT     ARAGUAIA ENGENHARIA LTDA                025769548000121DMAE - DEPTO MUNICIPAL DE AGUA E ESGOTO RUA MARTINéSIA, 245 - APARECIDA         UBERLâNDIA                              38400606MG3008800001                                                                                                                                          011284330           2406201000000170500068/2010   21012011000403Contratação de empresa especializada em engenharia para ampliação da capacidade de reservação e distribuição de água.                                                                                                                           019465574000163150352-3      000024
1036421015412COBR_CAUC_BIC  IPERFOR INDUSTRIAL LTDA                 061497947000144CIP CIA INDL DE PECAS                   AV.MONTEIRO LOBATO,2487                 GUARULHOS                               07190000SP31645000010582195151232       31102011037GUARULHOS           0212201100000000010496278CC                                                                                                                                                                                                                                                                                                                                                                                           150352-4      000025
1014420939021COBR_CAUC_BIC  EDITORA O DIA S/A                       033130543000182CASAS GUANABARA COMESTIVEIS LTDA        DA AGUA BRANCA,3400                     RIO DE JANEIRO                          21720161RJ3164600001023730870616606     31102011014RIO DE JANEIRO      1511201100000000025354605CC                                                                                                                                                                                                                                                                                                                                                                                           150352-5      000026
1021141012725COBR_CAUC_BIC  MABE BRASIL ELETRODOMESTICOS LTDA       056642960000100LOJAS CEM S/A                           ROD.ENG.ERMENIO OLIVE 0, KM 46 S/N      SALTO                                   13329900SP3164700001062256470000055025  06102011021CAMPINAS            1111201100000000013471939TD                                                                                                                                                                                                                                                                                                                                                                                           150352-6      000027
1021141012725COBR_CAUC_BIC  MABE BRASIL ELETRODOMESTICOS LTDA       056642960000100LOJAS CEM S/A                           ROD.ENG.ERMENIO OLIVE 0, KM 46 S/N      SALTO                                   13329900SP3164700002062256630000055027  06102011021CAMPINAS            1111201100000000013183255TD                                                                                                                                                                                                                                                                                                                                                                                           150352-7      000028
1007421035337COBR_CAUC_COR  COML IMP E EXP LA RIOJA LTDA            008081791000133OURO AZUL DIST E IMP DE PROD ALIM       AV LAURITA ORTEGA MARI, 144             TABOAO DA SERRA                         06766360SP31648000010035560673365-001   27102011900BRADESCO S/A        2911201100000000014746174CC                                                                                                                                                                                                                                                                                                                                                                                           150352-8      000029
1016421019291COBR_CAUC_BIC  ITESA LTDA                              054625819002893EATON LTDA                              RUA CLARK N2061                         VALINHOS                                13279400SP31649000010322289416724       27102011021CAMPINAS            2811201100000000039048200CC                                                                                                                                                                                                                                                                                                                                                                                           150352-9      000030
1028441002110DIR_CREDIT     ARAGUAIA ENGENHARIA LTDA                025769548000121DMAE - DEPTO MUNICIPAL DE AGUA E ESGOTO  RUA MARTINESIA 245                     UBERLANDIA                              38400606MG3169900001                                                                                                                                          011393067           2406201000000146330067/2010   11042011000403ampliação da capacidade de tratamento de água da ETA Renato de Freitas "Sucupira".                                                                                                                                                              019465574000163150352-10     000031
1028441002110DIR_CREDIT     ARAGUAIA ENGENHARIA LTDA                025769548000121DMAE - DEPTO MUNICIPAL DE AGUA E ESGOTO  RUA MARTINESIA 245                     UBERLANDIA                              38400606MG3170000001                                                                                                                                          011507550           2406201000000146330067/2010   06072011000403ampliação da capacidade de tratamento de água da ETA Renato de Freitas "Sucupira".                                                                                                                                                              019465574000163150352-11     000032
1028441002110DIR_CREDIT     ARAGUAIA ENGENHARIA LTDA                025769548000121DMAE - DEPTO MUNICIPAL DE AGUA E ESGOTO  RUA MARTINESIA 245                     UBERLANDIA                              38400606MG3170100001                                                                                                                                          011598734           2406201000000146330067/2010   27092011000403ampliação da capacidade de tratamento de água da ETA Renato de Freitas "Sucupira".                                                                                                                                                              019465574000163150352-12     000033
1028441002110DIR_CREDIT     ARAGUAIA ENGENHARIA LTDA                025769548000121DMAE - DEPTO MUNICIPAL DE AGUA E ESGOTO RUA MARTINESIA 245                      UBERLANDIA                              38400606MG3170200001                                                                                                                                          010986277           181220090000011538158/2009    27052010000403execução das obras da 2º etapa da estação de tratamento de esgoto denominada ETE Uberabinha e do Interceptor de Esgoto denominado Interceptor do Córrego do Oleo, compreendendo pré operãção e operação.                                        019465574000163150352-13     000034
1028441002110DIR_CREDIT     ARAGUAIA ENGENHARIA LTDA                025769548000121DMAE - DEPTO MUNICIPAL DE AGUA E ESGOTO RUA MARTINESIA 245                      UBERLANDIA                              38400606MG3170300001                                                                                                                                          011103026           181220090000011538158/2009    27082010000453execução das obras da 2º etapa da estação de tratamento de esgoto denominada ETE Uberabinha e do Interceptor de Esgoto denominado Interceptor do Córrego do Oleo, compreendendo pré operãção e operação.                                        019465574000163150352-14     000035
9000034                                                                                                                                                                                                                                                                                                                                                                                                                                                                                                                                                                                                                                                                                                               000036
