0REMESSANOTIFICAÇÃO ELETRONICA        99999999999999Bicbanco S/A                            Avenida Paulista                        1048      12º andar BELA VISTA                    SÃO PAULO                     01310100SPBicbanco S/A                                                                    29032011                                                                                                                                                                                                                                                                                                                                                                                                000001
1                                                                   67.139.600/0002-97NEONEFRO NEFR. E CLINICA MÉDICA                                                 Atibaia                                         SP                                                                     R$2.262.000,00 - R$ 1.840,84 (custas) + R$ 150,00 (serviços) = R$ 1.990,84                                                              1130303                                                                                                                                                                                                                                                                                                                        125229-1      000002
1                                                                   55.856.710/0001-00ASSOC. DE PROT. E ASS. MATER E INFÂNCIA DE  REGISTRO                                        Registro                                        SP                                                                     R$1.550.000,00 - R$ 248,86 (custas) + R$ 150,00 (serviços) = R$ 398,86                                                              1130952                                                                                                                                                                                                                                                                                                                        125229-2      000003
1008421006830COBR_CAUC_COR  NORTEX INDUSTRIA E COMERCIO S/A         007728342000171B76 INDUSTRIA E COMERCIO DE ROUPAS      RUA COIMBRA 61                          SAO PAULO                               03052030SP268470000100386539002037*     21032011900BRADESCO S/A        1407201100000000010854177CC                                                                                                                                                                                                                                                                                                                                                                                           125722-1      000004
1032421000854COBR_CAUC_BIC  METALURGICA IANY IND E COM LTDA         076639285000177FERRAGENS NEGRAO COMERCIAL LTDA         RUA PROFESSOR ALGACYR MUNHOZ MADER, 2800CURITIBA - PR                           81310020PR26848000010913886311681-1/1   18032011016CURITIBA            0605201100000000010852777CC                                                                                                                                                                                                                                                                                                                                                                                           125722-2      000005
1046421000048COBR_CAUC_BIC  SBDE SOC BRAS DE EMB E DESC LTDA        064904295000456CAMIL ALIMENTOS S/A                     RUA FORTUNATO FERRAZ, 1001/1141         SAO PAULO                               05093000SP2684900001010757840002075001  18032011007PAULISTA            0605201100000000010908863CC                                                                                                                                                                                                                                                                                                                                                                                           125722-3      000006
1016421000833COBR_CAUC_COR  SPERAFICO AGROINDUSTRIAL LTDA           002489004000100GLOBOSUINOS AGROPECUARIA S/A            RUA MATE LARANJEIRAS Nº 0               TOLEDO                                  85907150PR2685000001030456820018190-01  14032011800UNIBANCO S/A        1404201100000000033900000CC                                                                                                                                                                                                                                                                                                                                                                                           125722-4      000007
1042421007031DIR_CREDIT     URGMED SISTEMA DE URG E EMERGE LTDA     007142821000101UNIMED DE SAO LUIS - COOP DE TRAB MEDICOAV GETULIO VARGAS 1863 MONTE CASTELO    SAO LUIS                                65000000MA2687900001                                                                                                                                          010916115           130120030000012466            07042010000403atendimento medico de urgencia e emergencia pre hospitalar e inter hospitalar terrestre                                                                                                                                                         004690222000134125722-5      000008
1042421007031DIR_CREDIT     URGMED SISTEMA DE URG E EMERGE LTDA     007142821000101UNIMED DE SAO LUIS - COOP DE TRAB MEDICOAV GETULIO VARGAS 1863 MONTE CASTELO    SAO LUIS                                65000000MA2688000001                                                                                                                                          010916115           130120030000012466            07042010000403atendimento medico de urgencia e emergencia pre hospitalar e inter hospitalar terrestre                                                                                                                                                         004690222000134125722-6      000009
1007420931444COBR_CAUC_COR  PLASINCO LTDA                           002554135000124ACOME DO BRASIL LTDA                    RUA VEREADOR FRANCOIS ABIB,400          IRATI                                   84500000PR26881000010044862111283-A     22032011600HSBC BANK BRASIL    2104201100000000027883710CC                                                                                                                                                                                                                                                                                                                                                                                           125861-1      000010
1008420935268COBR_CAUC_COR  SANTANA TEXTIL MATO GROSSO S/A          002944599000147COSTA RICA MALHAS E CONFECCOES LTD      RUA ARCENIO GOMES DA SILVA 104 QD 02 LT CAMBE                                   86183758PR268820000100390072150987*     22032011900BRADESCO S/A        0804201100000000033077814CC                                                                                                                                                                                                                                                                                                                                                                                           125861-2      000011
1008420935268COBR_CAUC_COR  SANTANA TEXTIL MATO GROSSO S/A          002944599000147COSTA RICA MALHAS E CONFECCOES LTD      RUA ARCENIO GOMES DA SILVA 104 QD 02 LT CAMBE                                   86183758PR268820000200390081150988*     22032011900BRADESCO S/A        0804201100000000032205754CC                                                                                                                                                                                                                                                                                                                                                                                           125861-3      000012
1008420935268COBR_CAUC_COR  SANTANA TEXTIL MATO GROSSO S/A          002944599000147COSTA RICA MALHAS E CONFECCOES LTD      RUA ARCENIO GOMES DA SILVA 104 QD 02 LT CAMBE                                   86183758PR268820000300390099150989*     22032011900BRADESCO S/A        0804201100000000032208876CC                                                                                                                                                                                                                                                                                                                                                                                           125861-4      000013
1008420935268COBR_CAUC_COR  SANTANA TEXTIL MATO GROSSO S/A          002944599000147COSTA RICA MALHAS E CONFECCOES LTD      RUA ARCENIO GOMES DA SILVA 104 QD 02 LT CAMBE                                   86183758PR268820000400390102150990*     22032011900BRADESCO S/A        0804201100000000032221350CC                                                                                                                                                                                                                                                                                                                                                                                           125861-5      000014
1014421021575COBR_CAUC_BIC  CESBRA QUIMICA S/A                      009259736000153COOPERATIVA METALURGICA DE RONDONI      RODOVIA PRESIDENTE DUTRA KM 26,102      BARRA MANSA                             27338000RJ2688300001043851980005408/03  23032011014RIO DE JANEIRO      1507201100000000010997500CC                                                                                                                                                                                                                                                                                                                                                                                           125861-6      000015
1014421021575COBR_CAUC_BIC  CESBRA QUIMICA S/A                      009259736000153COOPERATIVA METALURGICA DE RONDONI      RODOVIA PRESIDENTE DUTRA KM 26,102      BARRA MANSA                             27338000RJ2688300002043852100005408/02  23032011014RIO DE JANEIRO      1506201100000000010997500CC                                                                                                                                                                                                                                                                                                                                                                                           125861-7      000016
1014421021575COBR_CAUC_BIC  CESBRA QUIMICA S/A                      009259736000153COOPERATIVA METALURGICA DE RONDONI      RODOVIA PRESIDENTE DUTRA KM 26,102      BARRA MANSA                             27338000RJ2688300003043851800005408/01  23032011900RIO DE JANEIRO      2205201100000000010997500CC                                                                                                                                                                                                                                                                                                                                                                                           125861-8      000017
1014421021575COBR_CAUC_BIC  CESBRA QUIMICA S/A                      033337122021396IPIRANGA PRODUTOS DE PETROLEO S/A       AV PRESIDENTE ANTONIO CARLOS A,810      DUQUE DE CAXIAS                         25215180RJ2688400001043852010005406/01  23032011014RIO DE JANEIRO      0204201100000000011336090CC                                                                                                                                                                                                                                                                                                                                                                                           125861-9      000018
1014421021575COBR_CAUC_BIC  CESBRA QUIMICA S/A                      033453598001014SHELL BRASIL LTDA                       AVENIDA PRESIDENTE ANTONIO CAR,600      DUQUE DE CAXIAS                         25215180RJ2688500001043852610005401/01  23032011014RIO DE JANEIRO      0404201100000000010376665CC                                                                                                                                                                                                                                                                                                                                                                                           125861-10     000019
1013421013905DIR_CREDIT     CACO DE TELHA PROD EVENTOS LTDA         089850341001212GRENDENE S/A                            AV PEDRO GRENDENE                       FARROUPILHA                             95180000BA2691100001                                                                                                                                          011322480           300920100000017337            09032011000403UTILIZAÇÃO DO NOME DA ARTISTA IVETE SANGALO NA LINHA DE PRODUTOS DENOMINADA LINHA GRENDHA BY IVETE SANGALO.                                                                                                                                     000829821000135125861-11     000020
1                           CRUZEIRO ESPORTE CLUBE                                 SANTOS FUTEBOL CLUBE                    R PRINCEZA ISABEL S/N                   Santos                                  11075-501 SP                                                                                                                                                                                                                                                                                                                                                                                                                                                                                   125964-1      000021
1046421000617COBR_CAUC_BIC  INPLAC INDUSTRIA DE PLASTICOS S/A       073674202000273FERTILIZANTES DO NORDESTE LTDA          RUA: DR. ASCANIO PEIXOTO, 100           RECIFE                                  50030290PE269120000101079551001158716   22032011010RECIFE              1104201100000000020701223CC                                                                                                                                                                                                                                                                                                                                                                                           126006-1      000022
1021420930887COBR_CAUC_BIC  DEDINI S/A INDUSTRIAS DE BASE           012229415000200S A USINA CORURIPE ACUCAR E ALCOOL      POV CAMACARI CAMACARI BR                CORURIPE                                57020030AL269130000106140447143254-3-3  04032011017MACEIO              2705201100000000021128775CC                                                                                                                                                                                                                                                                                                                                                                                           126006-2      000023
1021420930887COBR_CAUC_COR  DEDINI S/A INDUSTRIAS DE BASE           012229753000152COOP DE COLONIZACAO AGRO PECUARIA       VILA COLONIA PINDORAMA PINDORAMA BR     CORURIPE                                57300070AL269140000106140544143889-6-6  24032011600HSBC BANK BRASIL    1507201100000000017500000CC                                                                                                                                                                                                                                                                                                                                                                                           126006-3      000024
1021420930887COBR_CAUC_COR  DEDINI S/A INDUSTRIAS DE BASE           012265245000120USINAS REUNIDAS SERESTA SA              FAZENDA SAO MATHEUS ZONA RURAL BR       TEOTONIO VILELA                         57300070AL269150000106140536144481-2-2  24032011600HSBC BANK BRASIL    2504201100000000021809100CC                                                                                                                                                                                                                                                                                                                                                                                           126006-4      000025
1016421008591COBR_CAUC_COR  GLOBOAVES SAO PAULO AGROAVICOLA LTD     027497684000135FRISA FRIGORIFICO RIO DOCE              R FIORAVANTE ROSSI,4000                 COLATINA                                29704700ES269160000103049149032486      21032011900BRADESCO S/A        1804201100000000012609000CC                                                                                                                                                                                                                                                                                                                                                                                           126006-5      000026
1013421018435DIR_CREDIT     FROYLAN ENG. PROJ. E COMERCIO LTDA.     002210303000164SECRETARIA DE ESTADO DA INFRAESTRUTURA  RUA DO SOL Nº 290 - CENTRO              MACEIO                                  57020150AL2693700001                                                                                                                                          481018893           130920100000015578070/2010    14102010000404execução de obras e serviços de reconstruçao e recuperaçao de rodovias,estradas vicinais, vias urbanas e pontes nos municípios de joaquim gomes,matrizdo camaragibe, jundiá e jacuipe.                                                          000502393000131126006-6      000027
1013421018435DIR_CREDIT     FROYLAN ENG. PROJ. E COMERCIO LTDA.     002210303000164SECRETARIA DE ESTADO DA INFRAESTRUTURA  RUA DO SOL Nº 290 - CENTRO              MACEIO                                  57020150AL2693800001                                                                                                                                          481019113           130920100000015578070/2010    05112010000404execução de obras e serviços de reconstruçao e recuperaçao de rodovias,estradas vicinais, vias urbanas e pontes nos municípios de joaquim gomes,matrizdo camaragibe, jundiá e jacuipe.                                                          000502393000131126006-7      000028
1019421001128DIR_CREDIT     CRUZEIRO ESPORTE CLUBE                  058196684000129SANTOS FUTEBOL CLUBE                    R PRINCEZA ISABEL S/N                   SANTOS                                  11075501SP2693900001                                                                                                                                          011340908           010120110000017736C02190      03032011000403Cessão temporária dos direitos federativos do ATLETA,que faz o Cruzeiroao Santos,e, ainda, cessão definitiva de 50% dos direitos econômicos do ATLETA,que faz o Cruzeiro ao Santos e a Teisa, na proporção estabelecida no contrato.            017241878000111126006-8      000029
1047421000232COBR_CAUC_BIC  JOFER EMBALAGENS LTDA.                  000190373000172IND. E COM. DE COSMETICOS NATURA L      LAMEDA JURUA, 253                       BARUERI                                 06455010SP2694000001006454230018154     25032011007PAULISTA            0806201100000000113705840CC                                                                                                                                                                                                                                                                                                                                                                                           126160-1      000030
1048421000613COBR_CAUC_BIC  TRIANGULO ALIMENTOS LTDA                044242287000131SIOL ALIMENTOS LTDA                     FCO. DE MELLO PALHETA, 327              BARUERI                                 06410120SP2694100001003100760001807820  24032011007PAULISTA            1105201100000000024700000CC                                                                                                                                                                                                                                                                                                                                                                                           126160-2      000031
1029421015746COBR_CAUC_BIC  DITALIA MOVEIS INDUSTRIAL LTDA          059291534020788CASAS BAHIA COML LTDA-F200              AV CONDE FRANCISCO MATARAZZO,100        SAO CAETANO DO                          09520100SP269420000109430375002127101   24032011038ABC                 0605201100000000010043250CC                                                                                                                                                                                                                                                                                                                                                                                           126160-3      000032
1046421001443COBR_CAUC_COR  COSTAO DO SANTINHO TUR E LAZER LTDA     002332375000184TREVISO AGENCIA DE VIAGENS E TURIS      AVENIDA CANDIDO DE ABR,526-SALA 12      CURITIBA                                80530905PR26943000010000211291870       23032011900BRADESCO S/A        1104201100000000021792222CC                                                                                                                                                                                                                                                                                                                                                                                           126160-4      000033
1014421021575COBR_CAUC_BIC  CESBRA QUIMICA S/A                      047419270000103REHAU INDUSTRIAL LTDA                   RUA TOMAS SEPE,55                       COTIA                                   06711270SP2694400001043871740005343/01  25032011007PAULISTA            3004201100000000011984000CC                                                                                                                                                                                                                                                                                                                                                                                           126160-5      000034
1020421000109DIR_CREDIT     PROCARTA SERVICOS DE INFORMATICA LT     002449992000164VIVO S/A                                AV HIGIENOPOLIS 1365                    CENTRO                                  86015010PR2696200001                                                                                                                                          010989704           0104200900000135714100076086  02062010000403Impressão a laser de dados variáveis, inserção, encarte acabamento,preparação para postagem de faturas e tratamento de documentos devilvidos pela ECT e outros documentos.                                                                      065699704000140126160-6      000035
1020421000109DIR_CREDIT     PROCARTA SERVICOS DE INFORMATICA LT     009464032000112MIDWAY                                  R. LEÃO XIII - 500 TÉRREO ANEXO A       CENTRO                                  02526900SP2696300001                                                                                                                                          010989704           010720090000013569            02062010000403Impressão eletronica de documentos e serviços de acabamento correlatos na forma de prestação de serviços                                                                                                                                        065699704000140126160-7      000036
1020421000109DIR_CREDIT     PROCARTA SERVICOS DE INFORMATICA LT     002328280000197ELEKTRO ELETRECIDADE E SERVICOS S/A     ARY ANTENOR DE SOUZA 321                JD NOVA AMÉRICA                         13053024SP2696400001                                                                                                                                          010989704           2002200900000135524400002050  02062010000403Serviços de impressão de faturas de energia elétrica dos clientes da Elektro e de documentos auxiliares, bem como o gerenciamento de tais serviços eo fornecimento de todo o equipamento e todos os insumos necessários                         065699704000140126160-8      000037
9000036                                                                                                                                                                                                                                                                                                                                                                                                                                                                                                                                                                                                                                                                                                               000038
