0REMESSANOTIFICAÇÃO ELETRONICA        99999999999999Bicbanco S/A                            Avenida Paulista , 1048 12º andar                           BELA VISTA                    SÃO PAULO                     01310100SPBicbanco S/A                                                                    05042010                                                                                                                                                                                                                                                                                                                                                                                                000001
1028421002921COBR_CAUC_COR  FRIGORIFICO MATABOI S/A                 083648477000610GIASSI & CIA LTDA                       VL SAO JOSE SN                          ICARA                                   88820000SC2127200001001084430008605401  27032010900BRADESCO S/A        0104201000000000011007094CC                                                                                                                                                                                                                                                                                                                                                                                           91869-1       000002
1021420930887COBR_CAUC_BIC  DEDINI S/A INDUSTRIAS DE BASE           002216876000286ANDRITZ HYDRO INEPAR DO BRASIL SA       RODOVIA MANOEL DE ABREU ZONA RURAL BR   ARARAQUARA                              14801970SP21273000010575870611184-1-1   26032010022RIBEIRAO PRETO      2304201000000000016839536CC                                                                                                                                                                                                                                                                                                                                                                                           91869-2       000003
1014421011391COBR_CAUC_BIC  CENTRAL NACIONAL DE PRODUCOES LTDA      002415583000147IGREJA MUNDIAL DO PODER DE DEUS         RUA CARNEIRO LEAO, 439                  SAO PAULO                               03015000SP2127400001041863061290/A      12022010007PAULISTA            3004201000000000050000000CC                                                                                                                                                                                                                                                                                                                                                                                           91869-3       000004
1046421002628COBR_CAUC_BIC  INTELBRAS S/A IND DE TELEC ELET BR      006862627010010CLAUDINO S.A-LOJAS DE DEPARTAM          R. JOAO CABRAL,607N                     TERESINA                                64000030PI212750000100684418DM06144701  12032010041TERESINA            1006201000000000013549100CC                                                                                                                                                                                                                                                                                                                                                                                           91869-4       000005
1022421002370COBR_CAUC_COR  FRIGOESTRELA S.A.                       010452689000149ALIANCA COM. E DIST. DE CARN. E DE      R MARIA GONZAGA19                       SAO JOAO DE MER                         25535420RJ2127600001021545600001451301  27032010900BRADESCO S/A        2404201000000000013569790CC                                                                                                                                                                                                                                                                                                                                                                                           91869-5       000006
1014421014420COBR_CAUC_BIC  RADIO ARCA LTDA                         007481349000131POSTO DE COMBUSTIVEL CONFORTACO LT      ROD. DOS METALURGICOS,941               RIO DE JANEIRO                          20011001RJ2127700001000476890002647     29032010014RIO DE JANEIRO      1204201000000000011000000CC                                                                                                                                                                                                                                                                                                                                                                                           91869-6       000007
1006421008642COBR_CAUC_BIC  MSC INCORPORACAO E ADM DE IMOV LTD      000018671667200JURANDIR FERRO DO LAGO FILHO            AV DO VALE, 10                          SAO LUIS                                65075820MA2127800001078294060000120000  20072006042SAO LUIS            3004201000000000013769534CC                                                                                                                                                                                                                                                                                                                                                                                           91869-7       000008
1008421005590COBR_CAUC_BIC  MM MONTEIRO PESCA EXPORTACAO LTDA       033304981001949SUPERMERCADOS MUNDIAL LTDA              AV ITAOCA,2600                          RIO DE JANEIRO                          21061020RJ2127900001079166067654        27032010014RIO DE JANEIRO      1004201000000000024700410CC                                                                                                                                                                                                                                                                                                                                                                                           91869-8       000009
1007421035337COBR_CAUC_COR  COML IMP E EXP LA RIOJA LTDA            007244026000205SF DIST DE ALIM LTDA                    ROD BR 101 KM 15, 0                     PEDRO CANARIO                           29970000ES21280000010021309725723       26032010900BRADESCO S/A        2505201000000000013300266CC                                                                                                                                                                                                                                                                                                                                                                                           91869-9       000010
1028421002921COBR_CAUC_COR  FRIGORIFICO MATABOI S/A                 007918552000122CHARQUEADA FRISUL LTDA.                 R TREZE DE MAIO                         OURO FINO                               37570000MG2129500001001104130008599401  27032010900BRADESCO S/A        2604201000000000014090325CC                                                                                                                                                                                                                                                                                                                                                                                           92054-1       000011
1031420933085COBR_CAUC_BIC  COROL COOPERATIVA AGROINDUSTRIAL        074101569001070AGRICOLA JANDELE S/A                    AV ITAMARATY 2020                       ROLANDIA                                86600000PR21296000010466493939433/2009  23032010031LONDRINA            1204201000000000030000000CC                                                                                                                                                                                                                                                                                                                                                                                           92054-2       000012
1008421003482COBR_CAUC_BIC  METALGRAFICA CEARENSE S/AMECESA         007196033002141NORSA REFRIGERANTES LTDA-MARACANAU      AV,SANTOS DUMONT, 1789                  FORTALEZA                               60150160CE21297000010791846300991701    29032010003CENTRO              2704201000000000011322814CC                                                                                                                                                                                                                                                                                                                                                                                           92054-3       000013
1015421002781COBR_CAUC_BIC  INDUSTRIAL HAHN FERRABRAZ LTDA          009446344000101PRINCIPAL FORM SYSTEM COM E SERV P      RUA PINHEIROS 1149 CJ 1                 SAO PAULO                               05422012SP2129800001006400302161/       29032010007PAULISTA            2604201000000000013200422CC                                                                                                                                                                                                                                                                                                                                                                                           92054-4       000014
1014421008188COBR_CAUC_COR  YARA ALIMENTOS LTDA                     007705530000184MIXTER ATACADO E VAREJO DE GENEROS      AV JUREMA, 1065                         GUARULHOS                               07244000SP2129900001005485307594001     29032010900BRADESCO S/A        1805201000000000011857500CC                                                                                                                                                                                                                                                                                                                                                                                           92054-5       000015
1014421008188COBR_CAUC_COR  YARA ALIMENTOS LTDA                     007705530000184MIXTER ATACADO E VAREJO DE GENEROS      AV JUREMA, 1065                         GUARULHOS                               07244000SP2129900002005488827618001     29032010900BRADESCO S/A        1805201000000000011700000CC                                                                                                                                                                                                                                                                                                                                                                                           92054-6       000016
1022421002370COBR_CAUC_COR  FRIGOESTRELA S.A.                       000281228000440N & N COMERCIO DE ALIMENTOS LTDA        ROD. REGIS BITTENCOURTS/NKM 294 SA      ITAPECERICA DA                          06882700SP2130000001021595370030500501  29032010900BRADESCO S/A        3004201000000000015535576CC                                                                                                                                                                                                                                                                                                                                                                                           92054-7       000017
1003421006000COBR_CAUC_BIC  DCA DISTRIB CEAR DE ALIMENTOS LTDA      000954394000117VULCABRAS DO NORDESTE S/A               AV. PRESIDENTE CASTELO BRANCO,6847      HORIZONTE                               62880000CE2130100001036658424568        29032010003CENTRO              0405201000000000016112180CC                                                                                                                                                                                                                                                                                                                                                                                           92054-8       000018
1043141000965COBR_CAUC_BIC  CONSTRUCT CONS IND COM REP E PRE LT     004895728000180CENTRAIS ELÉTRICAS DO PARÁ - CELPA      ROD AUGUSTO MONTENEGRO KM 8,5           BELÉM                                   66823020PA2130200001005243740299        26032010043JOAO PESSOA         2606201000000000016751500TD                                                                                                                                                                                                                                                                                                                                                                                           92054-9       000019
1007421034080COBR_CAUC_BIC  SIDMEX INTERNACIONAL LTDA               050707322000143CONFECCOES DE ROUPAS SEIKI LTDA.        RUA MILLER ,306                         SAO PAULO                               03011010SP213030000109777546179309      29032010007PAULISTA            2807201000000000022320000CC                                                                                                                                                                                                                                                                                                                                                                                           92054-10      000020
1038421008358COBR_CAUC_COR  MYATECH IND COM E SERV DE INFORM LT     064282601020142RICARDO ELETRO DIVINOPOLIS LTDA         RUA UM, 60, GALPAO GERALDO ROCHA 1400   CONTAGEM                                32113500MG213040000100057140001758/1/M  29032010900BRADESCO S/A        2805201000000000012093742CC                                                                                                                                                                                                                                                                                                                                                                                           92054-11      000021
1006421007689DIR_CREDIT     CCB-CONS C B EMP IMOBILIARIOS LTDA      008839563000180GREEN PARADISE 4 EMPREEN.IMOB.LTDA      RUA DR. JOSé LOURENçO, 870-SALA 502     FORTALEZA                               60115280CE2131600001                                                                                                                                          010892279           190120090000010371            30032010000403construção de unidades residenciais na av. moreira de souza, 50-parquelândia                                                                                                                                                                    02349271300011592054-12      000022
1042421001416DIR_CREDIT     PAVETEC CONSTRUCOES LTDA                006424618000165PREFEITURA MUNICIPAL DE TIMBIRAS/MA     RUA JOSE ANTONIO FRANCIS S/N            TIMBIRAS                                65420000MA2132300001                                                                                                                                          010914562           25022010000001273502/2010     30032010000403REALIZAÇÃO DE SERVIÇOS DE PAVIMENTAÇÃO ASFÁLTICA EM VIAS URBANAS DOMUNICÍPIO DE TIMBIRAS/MA.                                                                                                                                                    00793246500012092054-13      000023
1042421001416DIR_CREDIT     PAVETEC CONSTRUCOES LTDA                006424618000165PREFEITURA MUNICIPAL DE TIMBIRAS/MA     RUA JOSE ANTONIO FRANCIS S/N            TIMBIRAS                                65420000MA2132400001                                                                                                                                          010913337           25022010000001273701/2010     30032010000403serviços de melhoramento de estradas vicinais do município DE TIMBIRAS/MA.                                                                                                                                                                      00793246500012092054-14      000024
1024421005430DIR_CREDIT     BIG COM SERV DE PAPELARIA E INF         003533064000146PM DE CUIABA                            PRAçA ALENCASTRO, 158                   CUIABA MT                               78005580MT2133400001                                                                                                                                          481006564           241120080000009137043/2008    30032010000404registro de preços p futura e eventual aquisição de materiais deconsumoe permanente: peças p veículos, caminhões e máquinas, pneus e câmaras de ar p veículos, caminhões e m´uinas, material de pintura, construção e ferragens.                00623940600010892054-15      000025
1018421016232COBR_CAUC_COR  LEITBOM S/A                             011319429000162C C DA CUNHA LOBAO                      R TENENTE ANT CORREIA DA SILVA 620      TIMON                                   65636640MA2134200001010391330017819001  30032010900BRADESCO S/A        1304201000000000011345455CC                                                                                                                                                                                                                                                                                                                                                                                           92217-1       000026
1028421002921COBR_CAUC_COR  FRIGORIFICO MATABOI S/A                 004557157000335PREZUNIC COMERCIAL LTDA                 R DO ALPISTE 568                        RIO DE JANEIRO                          21011010RJ2134300001001104560008648401  30032010900BRADESCO S/A        2904201000000000023696864CC                                                                                                                                                                                                                                                                                                                                                                                           92217-2       000027
1021420930887COBR_CAUC_BIC  DEDINI S/A INDUSTRIAS DE BASE           002216876000286ANDRITZ HYDRO INEPAR DO BRASIL SA       RODOVIA MANOEL DE ABREU ZONA RURAL BR   ARARAQUARA                              14801970SP21344000010576078611276-5-5   30032010022RIBEIRAO PRETO      1304201000000000021548866CC                                                                                                                                                                                                                                                                                                                                                                                           92217-3       000028
1021420930887COBR_CAUC_COR  DEDINI S/A INDUSTRIAS DE BASE           018054379000188DASA DEST DE ALCOOL SERRA DOS AIMO      ROD MARGEM DA BR 418 ZONA RURAL BR      SERRA DOS AIMOR                         39868000MG213450000105760883114477-2-2  31032010900BRADESCO S/A        3006201000000000025250000CC                                                                                                                                                                                                                                                                                                                                                                                           92217-4       000029
1014421008188COBR_CAUC_COR  YARA ALIMENTOS LTDA                     007705530000184MIXTER ATACADO E VAREJO DE GENEROS      AV JUREMA, 1065                         GUARULHOS                               07244000SP2134600001005519647726001     30032010900BRADESCO S/A        1905201000000000018375000CC                                                                                                                                                                                                                                                                                                                                                                                           92217-5       000030
1022421002370COBR_CAUC_COR  FRIGOESTRELA S.A.                       008410451000109PRODUTORA DE CHARQUE SOROCABA LTDA      EST. DOM JOSE MELHADO CAMPOS390         SOROCABA                                18087315SP2134700001021908330030689901  30032010900BRADESCO S/A        2404201000000000012507738CC                                                                                                                                                                                                                                                                                                                                                                                           92217-6       000031
1007421035264COBR_CAUC_COR  ALLIED ADVANCED TECHNOLOGIES LTDA       004565289000570BENCHIMOL IRMAO & CIA LTDA - MANAU      RUA MIRANDA LEAO, 41                    MANAUS                                  69005901AM21348000010977909300030211 A  25032010900BRADESCO S/A        2405201000000000011782598CC                                                                                                                                                                                                                                                                                                                                                                                           92217-7       000032
1043421006637COBR_CAUC_BIC  TELEVISAO CABO BRANCO LTDA              003114093000173SEC DE ESTADO DE COMUNICAÇÃO INST-      AV JOÃO DA MATA, S/N                    JOAO PESSOA                             58040020PB21349000010052540119073       29032010043JOAO PESSOA         3004201000000000040863520CC                                                                                                                                                                                                                                                                                                                                                                                           92217-8       000033
1007421000045COBR_CAUC_BIC  GRANCARGA TRANSP. E GUINDASTES S/A.     001027335000328WOBBEN WINDPOWER IND COM LTDA           RUA SÃO PAULO, 1750                     FORTALEZA                               60030101CE2135000001097781435001        30032010003CENTRO              2904201000000000027000000CC                                                                                                                                                                                                                                                                                                                                                                                           92217-9       000034
1007420934451COBR_CAUC_COR  VICARI IND COM DE MADEIRAS LTDA         043854116005089CEVA LOGISTICS LTDA.(DIADEMA)           AV.FAGUNDES DE OLIVEIRA, 1580           DIADEMA                                 09950300SP213510000109777996056100 A    29032010900BRADESCO S/A        0105201000000000012748000CC                                                                                                                                                                                                                                                                                                                                                                                           92217-10      000035
1019141006723COBR_CAUC_BIC  BRAIN TECNOLOGIA LTDA                   009551765000194MULTINER OLEO E GAS SA                  AV ALMIRANTE BARROSO,52/19ANDA          RIO DE JANEIRO                          20031000RJ2135200001052840972009.17-C   07012010014RIO DE JANEIRO      1504201000000000011459062TD                                                                                                                                                                                                                                                                                                                                                                                           92217-11      000036
1007421016006COBR_CAUC_BIC  ONCOMED FARMACEUTICA LTDA               060552098000111SOC. BRAS.JAP.BEN.STA CRUZ-HOSP.ST      R. SANTA CRUZ, 398 IS ENT 0             SAO PAULO                               04122000SP213530000109778968240593      31032010007PAULISTA            3105201000000000020382002CC                                                                                                                                                                                                                                                                                                                                                                                           92217-12      000037
1046421002911COBR_CAUC_COR  COOPERATIVA DE EXTRACAO DE CARVAO M     083163576000105CARBONIFERA BELLUNO LTDA                ROD. SC 445 KM 05,0                     CRICIUMA                                88810300SC2135400001006864298852/1      29032010600HSBC BANK BRASIL    2405201000000000037500000CC                                                                                                                                                                                                                                                                                                                                                                                           92217-13      000038
1046421002911COBR_CAUC_COR  COOPERATIVA DE EXTRACAO DE CARVAO M     083163576000105CARBONIFERA BELLUNO LTDA                ROD. SC 445 KM 05,0                     CRICIUMA                                88810300SC2135400002006864378852/2      29032010600HSBC BANK BRASIL    2506201000000000037500000CC                                                                                                                                                                                                                                                                                                                                                                                           92217-14      000039
1046421002911COBR_CAUC_COR  COOPERATIVA DE EXTRACAO DE CARVAO M     083163576000105CARBONIFERA BELLUNO LTDA                ROD. SC 445 KM 05,0                     CRICIUMA                                88810300SC2135400003006864458852/3      29032010600HSBC BANK BRASIL    2707201000000000037500000CC                                                                                                                                                                                                                                                                                                                                                                                           92217-15      000040
1046421002911COBR_CAUC_COR  COOPERATIVA DE EXTRACAO DE CARVAO M     083163576000105CARBONIFERA BELLUNO LTDA                ROD. SC 445 KM 05,0                     CRICIUMA                                88810300SC2135400004006864538852/4      29032010600HSBC BANK BRASIL    2708201000000000037500000CC                                                                                                                                                                                                                                                                                                                                                                                           92217-16      000041
9000040                                                                                                                                                                                                                                                                                                                                                                                                                                                                                                                                                                                                                                                                                                               000042
