0REMESSANOTIFICAÇÃO ELETRONICA        99999999999999Bicbanco S/A                            Avenida Brigadeiro Faria Lima           4.440     2º andar  Itaim Bibi                    São Paulo                     04538132SPBicbanco S/A                                                                    31072013                                                                                                                                                                                                                                                                                                                                                                                                000001
1046421006399DIR_CREDIT     CARBONIFERA CRICIUMA S/A                002474103000208TRACTEBEL ENERGIA S/A                   AVENIDA PAULO SANTOS MELLO, S/NR        CAPIVARI DE BAIXO                       88745000SC4281700001                                                                                                                                          012287684           011220100000020197DGT.NAJL.05.28062013000404compra de carvão mineral tipo CE 4500.                                                                                                                                                                                                          083647909000163248951-1      000002
1046421001443COBR_CAUC_COR  COSTAO DO SANTINHO TUR E LAZER LTDA     002167320000166FLYTOUR BUSSINES TRAVEL VIAGENS E       AV. JURUA,641-CENTRO EMPRESAR           BARUERI                                 06455010SP427870000100010816280613      28062013900BRADESCO S/A        1907201300000000012888024CC                                                                                                                                                                                                                                                                                                                                                                                           248951-2      000003
1010421024356COBR_CAUC_COR  DIST EQUADOR DE PROD PETROLEO LTDA      007283719000207VESTING SERVICOS E OBRAS DE DRAGAG      AV CAMPO SALES, 3200                    PORTO VELHO                             76801246RO42788000010003456065661       27062013900BRADESCO S/A        1007201300000000080000201CC                                                                                                                                                                                                                                                                                                                                                                                           248951-3      000004
1016421008591COBR_CAUC_BIC  GLOBOAVES SAO PAULO AGROAVICOLA LTD     083044016000980TYSON DO BRASIL ALIMENTOS LTDA          ROD BR 487 ESTR BOIADEIRA KM 185,0      CAMPO MOURAO                            87305380PR427890000104059172093780      26062013016CURITIBA            2407201300000000011362000CC                                                                                                                                                                                                                                                                                                                                                                                           248951-4      000005
1018421034826COBR_CAUC_BIC  LACEL LATICINIOS CERES LTDA             011596442003427CARVALHO E FERNANDES LTDA               AV DEP PAULO FERRAZ Nº4.888 GALPAO:03   TERESINA                                64078820PI427840000103300904004139      27062013041TERESINA            2608201300000000034720000CC                                                                                                                                                                                                                                                                                                                                                                                           248951-5      000006
1007421063594COBR_CAUC_BIC  MELHORAMENTOS FLORESTAL LTDA            044145845001627MELHORAMENTOS CMPC LTDA.                R. TITO ,479                            SAO PAULO                               05051000SP427850000102023074000000039   28062013007PAULISTA            2907201300000000034351849CC                                                                                                                                                                                                                                                                                                                                                                                           248951-6      000007
1046421006070DIR_CREDIT     METALURGICA DS LTDA                     060857349000176TRW AUTOMOTIVE LTDA                     VIA ANHANGUERA KM 147                   LIMEIRA                                 13486915SP4281000001                                                                                                                                          012287765           260320070000018698            28062013017002fornecimento de discos e tambores de freio para automoveis                                                                                                                                                                                      079414868000198248951-7      000008
1036421018985COBR_CAUC_COR  PEEQFLEX INDUSTRIA E COMERCIO LTDA      073410326000837CERVEJARIA PETROPOLIS S/A               Rod Celso Garcia Cid, 1440Km 85         CAMBE                                   86185520PR4279000001059600636022908-01  27062013800UNIBANCO S/A        2507201300000000012181511CC                                                                                                                                                                                                                                                                                                                                                                                           248951-8      000009
1007421061559COBR_CAUC_BIC  PLASCAR IND DE COMP PLAST LTDA          016701716000156FIAT AUTOMOVEIS S/A                     RUA SENADOR MILTON CAMPOS,175 - 4ANDAR  NOVA LIMA                               34000000MG4278600001020230400182351 01  26062013019BELO HORIZONTE      2508201300000000082883500CC                                                                                                                                                                                                                                                                                                                                                                                           248951-9      000010
1007421061559COBR_CAUC_BIC  PLASCAR IND DE COMP PLAST LTDA          016701716000156FIAT AUTOMOVEIS S/A                     RUA SENADOR MILTON CAMPOS,175 - 4ANDAR  NOVA LIMA                               34000000MG4278600002020230580182352 01  26062013019BELO HORIZONTE      2108201300000000010871527CC                                                                                                                                                                                                                                                                                                                                                                                           248951-10     000011
1007421061559COBR_CAUC_BIC  PLASCAR IND DE COMP PLAST LTDA          016701716000156FIAT AUTOMOVEIS S/A                     RUA SENADOR MILTON CAMPOS,175 - 4ANDAR  NOVA LIMA                               34000000MG4278600003020230660182358 01  26062013019BELO HORIZONTE      2308201300000000025102238CC                                                                                                                                                                                                                                                                                                                                                                                           248951-11     000012
1006421010990COBR_CAUC_BIC  CAMERON CONSTRUTORA S/A                 010390965000191SHOPPING CENTER JUAZEIRO LTDA EPP       AV HUMBERTO BEZERRA, 1800               JUAZEIRO                                63020600CE42821000010956849948          14062013005JUAZEIRO            1509201300000000018731956CC                                                                                                                                                                                                                                                                                                                                                                                           248952-1      000013
1014421000268COBR_CAUC_COR  DOARBELLEZA PRODUTOS DE BELEZA LTD      066471517000177DPC DISTRIBUIDOR ATACADISTA S/A         RODOVIA MG 329 KMZ                      CARATINGA                               35303136MG4281900001045739030048996     28062013900BRADESCO S/A        0109201300000000013737184CC                                                                                                                                                                                                                                                                                                                                                                                           248952-2      000014
1014421000268COBR_CAUC_COR  DOARBELLEZA PRODUTOS DE BELEZA LTD      066471517000177DPC DISTRIBUIDOR ATACADISTA S/A         RODOVIA MG 329 KMZ                      CARATINGA                               35303136MG4281900002045739110049000     28062013900BRADESCO S/A        0109201300000000013049419CC                                                                                                                                                                                                                                                                                                                                                                                           248952-3      000015
1048421003043COBR_CAUC_COR  FRIGOL S.A. EM RECUPERACAO JUDICIAL     005699871000169FRIGOTIL FRIGORIFICO DE TIMON S/A       ROD TIMON/PRESIDENTE DUTRA BR S/N       TIMON                                   18681030MA4282200001000308210023781-01  01072013900BRADESCO S/A        0807201300000000020384260CC                                                                                                                                                                                                                                                                                                                                                                                           248952-4      000016
1018421032858COBR_CAUC_COR  PIVOT EQUIPAMENTOS AGRI E IRRI LTDA     000082410771815LUSENRIQUE QUINTAL                      AV LAURO CORREA DA SILVA, 3233 -        LIMEIRA                                 13481631SP42820000010000241418748 2     19062013900BRADESCO S/A        1508201300000000026150000CC                                                                                                                                                                                                                                                                                                                                                                                           248952-5      000017
1019421014637COBR_CAUC_COR  SOCIEDADE RADIO E TV ALTEROSA SA        006111334000119INTRALOT DO BRASIL COM EQUIP E          AV DO CONTORNO,6500-7 ANDAR             BELO HORIZONTE                          30110044MG42818000010001067361528       30062013900BRADESCO S/A        1507201300000000018230866CC                                                                                                                                                                                                                                                                                                                                                                                           248952-6      000018
1007421053971COBR_CAUC_COR  VIDA ALIMENTOS LTDA                     032669608000108BISCOITOS SAO BENEDITO IND COM LTD      RUA DA CONCEICAO, S/N CASA              SANTO ANTONIO D                         44573490BA42848000010191249500061676A   22052013800UNIBANCO S/A        0307201300000000001493250CC                                                                                                                                                                                                                                                                                                                                                                                           248952-7      000019
1007421053971COBR_CAUC_COR  VIDA ALIMENTOS LTDA                     032669608000108BISCOITOS SAO BENEDITO IND COM LTD      RUA DA CONCEICAO, S/N CASA              SANTO ANTONIO D                         44573490BA42848000020191250900061676B   22052013800UNIBANCO S/A        1007201300000000001493250CC                                                                                                                                                                                                                                                                                                                                                                                           248952-8      000020
1007421053971COBR_CAUC_COR  VIDA ALIMENTOS LTDA                     032669608000108BISCOITOS SAO BENEDITO IND COM LTD      RUA DA CONCEICAO, S/N CASA              SANTO ANTONIO D                         44573490BA42848000030191251700061676C   22052013800UNIBANCO S/A        1707201300000000001538500CC                                                                                                                                                                                                                                                                                                                                                                                           248952-9      000021
1018420932820COBR_CAUC_BIC  ADUBOS ARAGUAIA IND. E COM. LTDA        053311361005265COOP DOS AGRIC DA REG DE ORLANDIA       RUA SEIS 1676                           ORLANDIA                                14620000SP4285100001033037170008541801  25062013022RIBEIRAO PRETO      0408201300000000019372386CC                                                                                                                                                                                                                                                                                                                                                                                           249061-1      000022
1018420932820COBR_CAUC_COR  ADUBOS ARAGUAIA IND. E COM. LTDA        000019973667972PEDRO BONETTI                           RODOVIA MARG ESQ ROD BR 158 15 S N      AGUA BOA                                78635000MT4285300001033038650002965201  01072013800UNIBANCO S/A        3007201300000000037739435CC                                                                                                                                                                                                                                                                                                                                                                                           249061-2      000023
1018420932820COBR_CAUC_COR  ADUBOS ARAGUAIA IND. E COM. LTDA        000019077262172FELEMON DOS REIS CALCADO                RUA GETULIO VARGAS N(O)759 S/N          CRISTALINA                              73850000GO4285200001033038810002951601  25062013900BRADESCO S/A        3009201300000000048000000CC                                                                                                                                                                                                                                                                                                                                                                                           249061-3      000024
1007421067336COBR_CAUC_COR  AMEPLAN ASSIST MEDICA PLANEJADA         011031202000117MOBIBRASIL TRANSPORTE URBANO LTDA       R. GENARO DE CARVALHO,145               SAO PAULO                               04377220SP42858000010000037951240       01072013900BRADESCO S/A        2507201300000000014190130CC                                                                                                                                                                                                                                                                                                                                                                                           249061-4      000025
1010421024356COBR_CAUC_COR  DIST EQUADOR DE PROD PETROLEO LTDA      000940665000185AUTO POSTO AMAZONMINAS LTDA - ME        AV MINAS GERAIS, 747                    BOA VISTA                               69305660RR42859000010003507898315       01072013900BRADESCO S/A        0807201300000000011868000CC                                                                                                                                                                                                                                                                                                                                                                                           249061-5      000026
1014420939021COBR_CAUC_BIC  EDITORA O DIA S/A                       002449992000164VIVO S/AA/C F.LOPES PUBL.               HIGIENOPOLIS,1365                       RIO DE JANEIRO                          20011001RJ4285400001025335050689810     30062013014RIO DE JANEIRO      3007201300000000015755270CC                                                                                                                                                                                                                                                                                                                                                                                           249061-6      000027
1014420939021COBR_CAUC_BIC  EDITORA O DIA S/A                       033747288000111FEDER.EMPR.TRANSP.RODOV.LESTE M.BR      RUA DA ASSEMBLEIA 10 39 A/C. SR.ED      RIO DE JANEIRO                          20119900RJ4285600001025340050691588     30062013014RIO DE JANEIRO      3007201300000000012800000CC                                                                                                                                                                                                                                                                                                                                                                                           249061-7      000028
1014420939021COBR_CAUC_BIC  EDITORA O DIA S/A                       033041260065290VIA VAREJO S/A                          PREFEITO DULCIDIO CARDOSO, 2000         RIO DE JANEIRO                          22640085RJ4285500001025337420690011     30062013014RIO DE JANEIRO      0508201300000000029063503CC                                                                                                                                                                                                                                                                                                                                                                                           249061-8      000029
1018421018863COBR_CAUC_COR  PIVOT EQUIPAMENTOS AGRI E IRRI LTDA     000082410771815LUSENRIQUE QUINTAL                      AV LAURO CORREA DA SILVA, 3233 -        LIMEIRA                                 13481631SP42857000010000416618748 3     19062013900BRADESCO S/A        1509201300000000026150000CC                                                                                                                                                                                                                                                                                                                                                                                           249061-9      000030
1019421004658COBR_CAUC_COR  S/A ESTADO DE MINAS                     016978907000160ETG GLOBAL INVESTIMENTOS LTDA           NACOES UNIDAS 12995 10 ANDAR            SAO PAULO                               04578911SP4284900001012485251863647-1   30062013900BRADESCO S/A        3007201300000000010093824CC                                                                                                                                                                                                                                                                                                                                                                                           249061-10     000031
1019421004658COBR_CAUC_COR  S/A ESTADO DE MINAS                     016978907000160ETG GLOBAL INVESTIMENTOS LTDA           NACOES UNIDAS 12995 10 ANDAR            SAO PAULO                               04578911SP4284900002012487201863652-1   30062013900BRADESCO S/A        3007201300000000030281480CC                                                                                                                                                                                                                                                                                                                                                                                           249061-11     000032
1009420930764COBR_CAUC_BIC  SA CORREIO BRAZILIENSE                  009109567001902LA HOTELS EMPREENDIMENTOS 1 LTDA        SHTN NORTE 01 CONJUNTO 1BBLOCO C ASA NORBRASILIA                                70800200DF4285000001014028081732-1      30062013009BRASILIA            1507201300000000034000000CC                                                                                                                                                                                                                                                                                                                                                                                           249061-12     000033
1046421003438COBR_CAUC_BIC  BRASCOLA LTDA - EM RECUP.JUDICIAL       017359233000188TECIDOS E ARMARINHOS MIGUEL BARTOL      V MUNICIPAL MANOEL JACINTO COELHO JR, 10CONTAGEM                                32150245MG428730000101996103035921/     28062013019BELO HORIZONTE      2207201300000000012414815CC                                                                                                                                                                                                                                                                                                                                                                                           249062-1      000034
1010421023481DIR_CREDIT     HOSPITAL DE AVILA LTDA                  004171205000190VIVA PLANOS DE SAUDE LTDA               AV.DR.JOSE A.MOREIRA, 1251 - CASA CAIADAOLINDA                                  53130410PE4283400001                                                                                                                                          012287116           010320100000020792S/N         28062013000401Prestação de serviços de assistência médico-hospitalar.                                                                                                                                                                                         035716166000193249062-2      000035
1019421004658COBR_CAUC_COR  S/A ESTADO DE MINAS                     004164616000159TNL PCS S A                             JANGADEIROS 48 7 ANDAR                  RIO DE JANEIRO                          20090010RJ4287200001012487621863688-1   30062013900BRADESCO S/A        1508201300000000013200000CC                                                                                                                                                                                                                                                                                                                                                                                           249062-3      000036
1050421001700DIR_CREDIT     SINETEL ENG E COM LTDA                  000190373000768IND E COM DE COSMETICOS NATURA LTDA     ROD AUG MEIRA FILHO KM 3 N3920 FZ ELDORABENEVIDES                               68795000PA4286100001                                                                                                                                          012283104           061120120000022985001/2012    02072013000404execução de obras de construção civil, instalações e demais avenças. contrato 001/2012                                                                                                                                                          004883542000100249062-4      000037
1018421018863COBR_CAUC_COR  PIVOT EQUIPAMENTOS AGRI E IRRI LTDA     000062173022687ANTONIO GERALDO MESQUITA E OUTROS       RUA ARLINDO GOMES BRANQUINHO, 635 -     UNAI                                    38610000MG42900000010000447610531 2     03072013900BRADESCO S/A        3008201300000000016000000CC                                                                                                                                                                                                                                                                                                                                                                                           249063-1      000038
9000037                                                                                                                                                                                                                                                                                                                                                                                                                                                                                                                                                                                                                                                                                                               000039
