0REMESSANOTIFICAÇÃO ELETRONICA        99999999999999Bicbanco S/A                            Avenida Brigadeiro Faria Lima           4.440     2º andar  Itaim Bibi                    São Paulo                     04538132SPBicbanco S/A                                                                    03122014                                                                                                                                                                                                                                                                                                                                                                                                000001
1018421033102DIR_CREDIT     PAULO E MAIA SUPERMERCADOS LTDA         069034668000156SODEXHO PASS DO BRASIL SERV LTDA        AV SANTO AMARON 48 6 ANDAR - ITAIMBIBI  SAO PAULO                               04506000SP5022300001                                                                                                                                          012695495           010920120000022551            28112014000403comercialização de produtos através do cartão Sodexho.                                                                                                                                                                                          000370197000150335646-1      000002
1007421072259COBR_CAUC_COR  BOMBRIL S/A                             004641376003828SUPERMERCADOS BH COM DE ALIM LTDA       AV GERALDO ROCHA 200                    CONTAGEM                                32183054MG5022600001034797990066433001  29112014900BRADESCO S/A        2012201400000000010803531CC                                                                                                                                                                                                                                                                                                                                                                                           335648-1      000003
1007421072259COBR_CAUC_COR  BOMBRIL S/A                             008450457000100EPOCA COM DISTR PROD ALIM IND LTDA      VER JOAQUIM COSTA AV GLP2 1405          CONTAGEM                                32150240MG5022700001034799850066472001  29112014900BRADESCO S/A        2012201400000000010803531CC                                                                                                                                                                                                                                                                                                                                                                                           335648-2      000004
1022421008149COBR_CAUC_COR  PASSAREDO T. AEREOS LTDA-EM REC.JUD     010760260000119CVC BRASIL OPERADORA E AGENCIA DE       RUA GERTRUDES DE LIMA,53-CJ 52          SANTO ANDRE                             09020000SP502280000100018669118168      30112014900BRADESCO S/A        1512201400000000020351632CC                                                                                                                                                                                                                                                                                                                                                                                           335648-3      000005
1049421004706COBR_CAUC_COR  COOPERATIVA AGROINDUSTRIAL SALTO VE     085782878000340PAMPLONA ALIMENTOS S/A                  RU A JOSINO MONTEIRO,2-CENTRO           ESTACAO                                 99930000RS50229000010047345822561       24112014700BANCO REAL- ABN AMRO2612201400000000011635152CC                                                                                                                                                                                                                                                                                                                                                                                           335648-4      000006
1049421004706COBR_CAUC_COR  COOPERATIVA AGROINDUSTRIAL SALTO VE     085782878000340PAMPLONA ALIMENTOS S/A                  RU A JOSINO MONTEIRO,2-CENTRO           ESTACAO                                 99930000RS5022900002004734669691        24112014700BANCO REAL- ABN AMRO2512201400000000010310663CC                                                                                                                                                                                                                                                                                                                                                                                           335648-5      000007
1046421008677COBR_CAUC_BIC  KMA FABRICACAO E COM DE APAR DE REF     003656804000808CARAJAS MATERIAL DE CONSTRUCAO LTD      R PROGETADA, 155SALA E                  JOOO PESSOA                             58075010PB502300000102605507028628-     12112014043JOAO PESSOA         0403201500000000012050000CC                                                                                                                                                                                                                                                                                                                                                                                           335648-6      000008
1046421008677COBR_CAUC_BIC  KMA FABRICACAO E COM DE APAR DE REF     010280765000690TUMELERO MATERIAIS DE CONSTRUCAO S      AV SERTORIO, 9700                       PORTO ALEGRE                            91130720RS502310000102605906028884-     18112014015PORTO ALEGRE        1003201500000000013800000CC                                                                                                                                                                                                                                                                                                                                                                                           335648-7      000009
1046421008677COBR_CAUC_COR  KMA FABRICACAO E COM DE APAR DE REF     061502324000546REFRIGELO CLIMATIZACAO DE AMBIENTE      AV RUI BARBOSA, 2797                    ASSIS                                   19800002SP502320000102605761028061-     31102014600HSBC BANK BRASIL    0901201500000000022440000CC                                                                                                                                                                                                                                                                                                                                                                                           335648-8      000010
1046421008677COBR_CAUC_BIC  KMA FABRICACAO E COM DE APAR DE REF     086184074001627EUGENIO RAULINO KOERICH SA COMERCI      RUA DEODORO, 190                        FLORIANOPOLIS                           88010020SC502330000102605710028414-     10112014046FLORIANOPOLIS       1003201500000000017600000CC                                                                                                                                                                                                                                                                                                                                                                                           335648-9      000011
1021421017050COBR_CAUC_BIC  STAR DISTR PROD FARMACEUTICOS LTDA      061585865073701RAIA DROGASIL S/A                       RUA PATAXOS , 1412                      EMBU                                    06833073SP5023400001000077290000440201  27112014007PAULISTA            2601201500000000039645745CC                                                                                                                                                                                                                                                                                                                                                                                           335648-10     000012
1021421017050COBR_CAUC_BIC  STAR DISTR PROD FARMACEUTICOS LTDA      061585865073701RAIA DROGASIL S/A                       RUA PATAXOS , 1412                      EMBU                                    06833073SP5023400002000077700000441601  30112014007PAULISTA            2901201500000000049600432CC                                                                                                                                                                                                                                                                                                                                                                                           335648-11     000013
1021421017050COBR_CAUC_BIC  STAR DISTR PROD FARMACEUTICOS LTDA      061585865073701RAIA DROGASIL S/A                       RUA PATAXOS , 1412                      EMBU                                    06833073SP5023400003000077960000441801  30112014007PAULISTA            2901201500000000016647398CC                                                                                                                                                                                                                                                                                                                                                                                           335648-12     000014
1021421017050COBR_CAUC_BIC  STAR DISTR PROD FARMACEUTICOS LTDA      061585865073701RAIA DROGASIL S/A                       RUA PATAXOS , 1412                      EMBU                                    06833073SP5023400004000078260000442101  30112014022PAULISTA            2901201500000000012297619CC                                                                                                                                                                                                                                                                                                                                                                                           335648-13     000015
9000014                                                                                                                                                                                                                                                                                                                                                                                                                                                                                                                                                                                                                                                                                                               000016
