0REMESSANOTIFICAÇÃO ELETRONICA        99999999999999Bicbanco S/A                            Avenida Brigadeiro Faria Lima           4.440     2º andar  Itaim Bibi                    São Paulo                     04538132SPBicbanco S/A                                                                    01042013                                                                                                                                                                                                                                                                                                                                                                                                000001
1018421005230COBR_CAUC_BIC  CENTROALCOOL S/A                        004930779000103SR DISTRIBUIDORA DE PETROLEO LTDA       AV.NITEROI C/COPACABANA Q4 LR1          SENADOR CANEDO                          75250000GO40879000010311940145685/AA    12032013018GOIANIA             2106201300000000028750000CC                                                                                                                                                                                                                                                                                                                                                                                           228821-1      000002
1018421005230COBR_CAUC_BIC  CENTROALCOOL S/A                        004930779000103SR DISTRIBUIDORA DE PETROLEO LTDA       AV.NITEROI C/COPACABANA Q4 LR1          SENADOR CANEDO                          75250000GO40879000020311941045685/AB    12032013018GOIANIA             2207201300000000028750000CC                                                                                                                                                                                                                                                                                                                                                                                           228821-2      000003
1006441000781COBR_CAUC_BIC  IMARF BENEFICIAMENTO DE GRANITOS LT     000475251000122PAULO OCTAVIO INVESTIMENTOS IMOBIL      SCN QUADRA 01,125                       BRASILIA                                70711900DF4087700001094313373130        13032013009BRASILIA            1004201300000000010658502CC                                                                                                                                                                                                                                                                                                                                                                                           228821-3      000004
1046421008006COBR_CAUC_COR  LINK COMERCIAL IMP. E EXP. LTDA         081303463000124TEXTIL FARBE LTDA                       RUA DR BLUMENAU , 7625 -                INDAIAL                                 89130000SC408800000101814650104911-1/1  12032013800UNIBANCO S/A        2803201300000000028077952CC                                                                                                                                                                                                                                                                                                                                                                                           228821-4      000005
1028421002921COBR_CAUC_COR  MATABOI ALIMENTOS S/A - EM REC.JUD.     004641376007300SUPERMERCADOS BH COMERCIO DE ALIME      AVGERALDO ROCHA700                      CONTAGEM                                32183054MG4087600001002762060030143501  12032013900BRADESCO S/A        0904201300000000017615107CC                                                                                                                                                                                                                                                                                                                                                                                           228821-5      000006
1019421004658COBR_CAUC_COR  S/A ESTADO DE MINAS                     016589137000163SERV APOIO AS MICRO E PEQ EMP DE M      AV. BARAO HOMEM DE MELO 329             BELO HORIZONTE                          30431285MG4087500001012165181669443-1   11032013900BRADESCO S/A        3003201300000000011699251CC                                                                                                                                                                                                                                                                                                                                                                                           228821-6      000007
1048421002195COBR_CAUC_COR  SERVIMED COMERCIAL LTDA                 017256512002917DROG ARAUJO SA                          AV APIO CARDOSO 100                     CONTAGEM                                32371615MG40878000010052000384071817    12032013900BRADESCO S/A        0705201300000000010057551CC                                                                                                                                                                                                                                                                                                                                                                                           228821-7      000008
1045421009799DIR_CREDIT     IMPERIAL CONSTRUTORA E EMP. LTDA        015616691000120NASSAL-NASCIMENTO E SALES CONSTRUCAO LTDRUA ACRE, 2116                          ARACAJU                                 49080010SE4072300001                                                                                                                                          012160106           210220130000023668S/NR        04032013000402compra e venda dos lotes 03 referente a matrícula 5225 e 04 referentea matrícula 5226, integrantes do loteamento Alamedas da Barra, localizado no município de Barra dos Coqueiros, em Sergipe.                                                 004951284000152228824-1      000009
1037421008961COBR_CAUC_BIC  INTERMODAL BRASIL LOGISTICA LTDA        059275792008991GENERAL MOTORS DO BRASIL LTDA           R.JOAO PESSOA,714                       SAO CAETANO DO                          09520000SP40894000010460216669748       06032013038ABC                 2304201300000000016504138CC                                                                                                                                                                                                                                                                                                                                                                                           228824-2      000010
1037421008961COBR_CAUC_BIC  INTERMODAL BRASIL LOGISTICA LTDA        059275792008991GENERAL MOTORS DO BRASIL LTDA           R.JOAO PESSOA,714                       SAO CAETANO DO                          09520000SP40894000020460217470060       13032013038ABC                 3004201300000000014106359CC                                                                                                                                                                                                                                                                                                                                                                                           228824-3      000011
1017421013340DIR_CREDIT     LIMPEL LIMPEZA URBANA LTDA              015339921000150SLEA SAO LUIZ ENGENHARIA AMBIENTAL S/A  RUA DOZE, 01, LOTE 1, QD G DIST INDUST  SAO LUIZ                                65090260MA4076200001                                                                                                                                          481013479           05052012000002260673.040.1005/06032013000404locação de equipamentos, conforme anexo 1.                                                                                                                                                                                                      002499321000108228824-4      000012
1019421014068COBR_CAUC_COR  RIO BRANCO ALIMENTOS S/A                001928075002062DMA DISTRIBUIDORA S/A                   ROD BR 040 KM 531 180                   BELO HORIZONTE                          30855500MG4089300001012922730163325201  14032013900BRADESCO S/A        1304201300000000010616051CC                                                                                                                                                                                                                                                                                                                                                                                           228824-5      000013
1016421019909COBR_CAUC_BIC  TROMBINI EMBALAGENS S/A                 061064929004670DU PONT DO BRASIL S A                   ROD.DF 250 - KM 20 S N PLANALTINA       BRASILIA                                70079900DF40895000010393638218629-1     13032013009BRASILIA            0704201300000000011848048CC                                                                                                                                                                                                                                                                                                                                                                                           228824-6      000014
1015421021565DIR_CREDIT     UPRESS LOGISTICA EM TRANSP LTDA         092337732000190TRANSPORTES RODOVIÁRIOS LETSARA LTDA    ROD FEDERAL BR 285, KM 461              IJUÍ                                    98700000RS4076400001                                                                                                                                          012160045           290320120000021560CONTRATOS 0406032013000403Prestação de serviços de cargas.                                                                                                                                                                                                                007032746000126228824-7      000015
1041421009567DIR_CREDIT     CARVALHO E FERNANDES LTDA               062895230000113CREDI SHOP                              AV FREI SERAFIM, 2648                   TERESINA-PI                             64001020PI4089900001                                                                                                                                          012152540           070220130000023587            14032013000403créditos provenientes de vendas de mercadorias nas Lojas do Carvalho e Fernandes LTDA, através do cartão Credi Shop S/A.                                                                                                                        011596442000169228862-1      000016
1022421006723DIR_CREDIT     FERRARI AGROINDUSTRIA S/A               061149589000189COOP.DE PRODS DE CANA-DE-AÇÚCAR,AÇ E ALCAV. PAULISTA, 287 2. ANDAR              SãO PAULO                               01311000SP4090000001                                                                                                                                          012123464           040520090000015973DEJR-2770/2001022013017002Repasse pela COOPERATIVA de 6% do saldo líquido credor da contamovimento disponibilidade da USINA, no período compreendido entre 16/11/2011 até 30/11/2012 e 3% entre 01/12/2012 até 30/11/2012.                                                054846951000105228862-2      000017
1046421000145COBR_CAUC_BIC  KOMLOG IMPORTACAO LTDA                  093015006001438COMPANHIA ZAFFARI COMERCIO E INDUS      AV. PLINIO BRASIL MILANO, 1000 5º ANDAR PORTO ALEGRE                            90520000RS409120000101816148007775-     06032013015PORTO ALEGRE        1004201300000000021283990CC                                                                                                                                                                                                                                                                                                                                                                                           228862-3      000018
1018421034834COBR_CAUC_BIC  LACEL LATICINIOS CERES LTDA             004180523000118CARVALHO ATACADO DE ALIMENTOS LTDA      AV DEPUTADO PAULO FERRAZ, 4888          TERESINA                                64076130PI409080000103124294022713      14032013041TERESINA            1305201300000000013365000CC                                                                                                                                                                                                                                                                                                                                                                                           228862-4      000019
1018421034834COBR_CAUC_BIC  LACEL LATICINIOS CERES LTDA             011596442004237CARVALHO & FERNANDES LTDA               AV.DEPUTADO PAULO FERRAZ, 4888 GALPAO 04TERESINA                                64078820PI409090000103124308022708      14032013041TERESINA            1305201300000000021000000CC                                                                                                                                                                                                                                                                                                                                                                                           228862-5      000020
1016421004260COBR_CAUC_COR  RODOLATINA LOGISTICA S/A                011673228000169NAVITRUCKS COMERCIO E CAMINHOES LT      RODOVIA BR-116 ,19470                   CURITIBA                                83006970PR4092600001000687201799        15012013900BRADESCO S/A        0204201300000000003000000CC                                                                                                                                                                                                                                                                                                                                                                                           228862-6      000021
1016421004260COBR_CAUC_COR  RODOLATINA LOGISTICA S/A                011673228000169NAVITRUCKS COMERCIO E CAMINHOES LT      RODOVIA BR-116 ,19470                   CURITIBA                                83006970PR4092600002000689591954        01022013900BRADESCO S/A        1903201300000000002136296CC                                                                                                                                                                                                                                                                                                                                                                                           228862-7      000022
1016421004260COBR_CAUC_COR  RODOLATINA LOGISTICA S/A                011673228000169NAVITRUCKS COMERCIO E CAMINHOES LT      RODOVIA BR-116 ,19470                   CURITIBA                                83006970PR4092600003000689671955        01022013900BRADESCO S/A        2103201300000000001899410CC                                                                                                                                                                                                                                                                                                                                                                                           228862-8      000023
1016421004260COBR_CAUC_COR  RODOLATINA LOGISTICA S/A                011673228000169NAVITRUCKS COMERCIO E CAMINHOES LT      RODOVIA BR-116 ,19470                   CURITIBA                                83006970PR4092600004000689751956        01022013900BRADESCO S/A        0404201300000000001374900CC                                                                                                                                                                                                                                                                                                                                                                                           228862-9      000024
1016421004260COBR_CAUC_COR  RODOLATINA LOGISTICA S/A                011673228000169NAVITRUCKS COMERCIO E CAMINHOES LT      RODOVIA BR-116 ,19470                   CURITIBA                                83006970PR4092600005000689831957        04022013900BRADESCO S/A        0604201300000000001385743CC                                                                                                                                                                                                                                                                                                                                                                                           228862-10     000025
1016421004260COBR_CAUC_COR  RODOLATINA LOGISTICA S/A                011673228000169NAVITRUCKS COMERCIO E CAMINHOES LT      RODOVIA BR-116 ,19470                   CURITIBA                                83006970PR4092600006000689911958        01022013900BRADESCO S/A        0804201300000000001624436CC                                                                                                                                                                                                                                                                                                                                                                                           228862-11     000026
1016421004260COBR_CAUC_COR  RODOLATINA LOGISTICA S/A                011673228000169NAVITRUCKS COMERCIO E CAMINHOES LT      RODOVIA BR-116 ,19470                   CURITIBA                                83006970PR4092600007000690681978        04022013900BRADESCO S/A        1004201300000000001909017CC                                                                                                                                                                                                                                                                                                                                                                                           228862-12     000027
1016421004260COBR_CAUC_COR  RODOLATINA LOGISTICA S/A                011673228000169NAVITRUCKS COMERCIO E CAMINHOES LT      RODOVIA BR-116 ,19470                   CURITIBA                                83006970PR4092600008000690761979        04022013900BRADESCO S/A        1204201300000000001363847CC                                                                                                                                                                                                                                                                                                                                                                                           228862-13     000028
1016421004260COBR_CAUC_COR  RODOLATINA LOGISTICA S/A                012467616000156KUHNEN TRANSPORTES LTDA                 RUA PREFEITO SAMUEL MILEO 763           CURITIBA                                81920110PR4092800001000687541793        15012013900BRADESCO S/A        2103201300000000001602456CC                                                                                                                                                                                                                                                                                                                                                                                           228862-14     000029
1016421004260COBR_CAUC_COR  RODOLATINA LOGISTICA S/A                012467616000156KUHNEN TRANSPORTES LTDA                 RUA PREFEITO SAMUEL MILEO 763           CURITIBA                                81920110PR4092800002000688431943        01022013900BRADESCO S/A        1903201300000000002088345CC                                                                                                                                                                                                                                                                                                                                                                                           228862-15     000030
1016421004260COBR_CAUC_COR  RODOLATINA LOGISTICA S/A                012467616000156KUHNEN TRANSPORTES LTDA                 RUA PREFEITO SAMUEL MILEO 763           CURITIBA                                81920110PR4092800003000688511944        01022013900BRADESCO S/A        2103201300000000001347922CC                                                                                                                                                                                                                                                                                                                                                                                           228862-16     000031
1016421004260COBR_CAUC_COR  RODOLATINA LOGISTICA S/A                012467616000156KUHNEN TRANSPORTES LTDA                 RUA PREFEITO SAMUEL MILEO 763           CURITIBA                                81920110PR4092800004000688601945        01022013900BRADESCO S/A        0404201300000000002025102CC                                                                                                                                                                                                                                                                                                                                                                                           228862-17     000032
1016421004260COBR_CAUC_COR  RODOLATINA LOGISTICA S/A                012467616000156KUHNEN TRANSPORTES LTDA                 RUA PREFEITO SAMUEL MILEO 763           CURITIBA                                81920110PR4092800005000688781946        01022013900BRADESCO S/A        0604201300000000001881237CC                                                                                                                                                                                                                                                                                                                                                                                           228862-18     000033
1016421004260COBR_CAUC_COR  RODOLATINA LOGISTICA S/A                012467616000156KUHNEN TRANSPORTES LTDA                 RUA PREFEITO SAMUEL MILEO 763           CURITIBA                                81920110PR4092800006000688861947        01022013900BRADESCO S/A        0804201300000000001923174CC                                                                                                                                                                                                                                                                                                                                                                                           228862-19     000034
1016421004260COBR_CAUC_COR  RODOLATINA LOGISTICA S/A                012467616000156KUHNEN TRANSPORTES LTDA                 RUA PREFEITO SAMUEL MILEO 763           CURITIBA                                81920110PR4092800007000688941948        01022013900BRADESCO S/A        0804201300000000001701862CC                                                                                                                                                                                                                                                                                                                                                                                           228862-20     000035
1016421004260COBR_CAUC_COR  RODOLATINA LOGISTICA S/A                012467616000156KUHNEN TRANSPORTES LTDA                 RUA PREFEITO SAMUEL MILEO 763           CURITIBA                                81920110PR4092800008000690091972        04022013900BRADESCO S/A        1004201300000000001474508CC                                                                                                                                                                                                                                                                                                                                                                                           228862-21     000036
1016421004260COBR_CAUC_COR  RODOLATINA LOGISTICA S/A                012467616000156KUHNEN TRANSPORTES LTDA                 RUA PREFEITO SAMUEL MILEO 763           CURITIBA                                81920110PR4092800009000690171973        04022013900BRADESCO S/A        1204201300000000001910690CC                                                                                                                                                                                                                                                                                                                                                                                           228862-22     000037
1016421004260COBR_CAUC_COR  RODOLATINA LOGISTICA S/A                012467616000156KUHNEN TRANSPORTES LTDA                 RUA PREFEITO SAMUEL MILEO 763           CURITIBA                                81920110PR4092800010000690251974        04022013900BRADESCO S/A        1404201300000000001613855CC                                                                                                                                                                                                                                                                                                                                                                                           228862-23     000038
1016421004260COBR_CAUC_COR  RODOLATINA LOGISTICA S/A                012467616000156KUHNEN TRANSPORTES LTDA                 RUA PREFEITO SAMUEL MILEO 763           CURITIBA                                81920110PR4092800011000690922140/F      04032013900BRADESCO S/A        1704201300000000001027049CC                                                                                                                                                                                                                                                                                                                                                                                           228862-24     000039
1016421004260COBR_CAUC_COR  RODOLATINA LOGISTICA S/A                012467616000156KUHNEN TRANSPORTES LTDA                 RUA PREFEITO SAMUEL MILEO 763           CURITIBA                                81920110PR4092800012000691142180        08032013900BRADESCO S/A        1804201300000000001094543CC                                                                                                                                                                                                                                                                                                                                                                                           228862-25     000040
1016421004260COBR_CAUC_COR  RODOLATINA LOGISTICA S/A                004793342000167AMERILOG LOG PART E EMPREE LTDA         R ESTEVAO BAYAO 226 APTO 161            CURITIBA                                80240260PR4092700001000689081949        01022013900BRADESCO S/A        1903201300000000002414464CC                                                                                                                                                                                                                                                                                                                                                                                           228862-26     000041
1016421004260COBR_CAUC_COR  RODOLATINA LOGISTICA S/A                004793342000167AMERILOG LOG PART E EMPREE LTDA         R ESTEVAO BAYAO 226 APTO 161            CURITIBA                                80240260PR4092700002000689161950        01022013900BRADESCO S/A        2103201300000000002433847CC                                                                                                                                                                                                                                                                                                                                                                                           228862-27     000042
1016421004260COBR_CAUC_COR  RODOLATINA LOGISTICA S/A                004793342000167AMERILOG LOG PART E EMPREE LTDA         R ESTEVAO BAYAO 226 APTO 161            CURITIBA                                80240260PR4092700003000689241951        01022013900BRADESCO S/A        0404201300000000002867642CC                                                                                                                                                                                                                                                                                                                                                                                           228862-28     000043
1016421004260COBR_CAUC_COR  RODOLATINA LOGISTICA S/A                004793342000167AMERILOG LOG PART E EMPREE LTDA         R ESTEVAO BAYAO 226 APTO 161            CURITIBA                                80240260PR4092700004000689321952        01022013900BRADESCO S/A        0604201300000000001458400CC                                                                                                                                                                                                                                                                                                                                                                                           228862-29     000044
1016421004260COBR_CAUC_COR  RODOLATINA LOGISTICA S/A                004793342000167AMERILOG LOG PART E EMPREE LTDA         R ESTEVAO BAYAO 226 APTO 161            CURITIBA                                80240260PR4092700005000689411953        01022013900BRADESCO S/A        0804201300000000001470885CC                                                                                                                                                                                                                                                                                                                                                                                           228862-30     000045
1016421004260COBR_CAUC_COR  RODOLATINA LOGISTICA S/A                004793342000167AMERILOG LOG PART E EMPREE LTDA         R ESTEVAO BAYAO 226 APTO 161            CURITIBA                                80240260PR4092700006000690331975        04022013900BRADESCO S/A        1004201300000000001587287CC                                                                                                                                                                                                                                                                                                                                                                                           228862-31     000046
1016421004260COBR_CAUC_COR  RODOLATINA LOGISTICA S/A                004793342000167AMERILOG LOG PART E EMPREE LTDA         R ESTEVAO BAYAO 226 APTO 161            CURITIBA                                80240260PR4092700007000690411976        04022013900BRADESCO S/A        1204201300000000001576963CC                                                                                                                                                                                                                                                                                                                                                                                           228862-32     000047
1016421004260COBR_CAUC_COR  RODOLATINA LOGISTICA S/A                004793342000167AMERILOG LOG PART E EMPREE LTDA         R ESTEVAO BAYAO 226 APTO 161            CURITIBA                                80240260PR4092700008000690501977        04022013900BRADESCO S/A        1404201300000000001611355CC                                                                                                                                                                                                                                                                                                                                                                                           228862-33     000048
1016421004260COBR_CAUC_COR  RODOLATINA LOGISTICA S/A                004793342000167AMERILOG LOG PART E EMPREE LTDA         R ESTEVAO BAYAO 226 APTO 161            CURITIBA                                80240260PR4092700009000690842139/F      04032013900BRADESCO S/A        1704201300000000001630219CC                                                                                                                                                                                                                                                                                                                                                                                           228862-34     000049
1016421004260COBR_CAUC_COR  RODOLATINA LOGISTICA S/A                004793342000167AMERILOG LOG PART E EMPREE LTDA         R ESTEVAO BAYAO 226 APTO 161            CURITIBA                                80240260PR4092700010000691062179        08032013900BRADESCO S/A        1804201300000000001022874CC                                                                                                                                                                                                                                                                                                                                                                                           228862-35     000050
1008421026911COBR_CAUC_COR  SANTANA TEXTIL S/A                      011146466000116FLORIPA IND E COM DE ROUPAS LTDA        ESTRADA DO MARGARCA 109 LOJA D          RIO DE JANEIRO                          23035380RJ409060000100575889174817*     14032013900BRADESCO S/A        1206201300000000010646286CC                                                                                                                                                                                                                                                                                                                                                                                           228862-36     000051
1008421026911COBR_CAUC_COR  SANTANA TEXTIL S/A                      064565385000117BIVIK CONFECCOES LTDA                   RUA DA JUTA S/N                         SAO PAULO                               03010010SP409070000100575251101827*     14032013900BRADESCO S/A        2904201300000000010170589CC                                                                                                                                                                                                                                                                                                                                                                                           228862-37     000052
1007421034080COBR_CAUC_BIC  SIDMEX INTERNACIONAL LTDA               011898766000151INNOVATTO COMERCIO, IMPORTACAO E E      CASA, DOS,4285                          SAO BERNARDO DO                         09840000SP409130000101776958139912      14032013038ABC                 0204201300000000016777000CC                                                                                                                                                                                                                                                                                                                                                                                           228862-38     000053
1031421009993COBR_CAUC_BIC  VAMOL INDUSTRIA MOVELEIRA LTDA          007105743001651POLO DO ELETRO COMERCIAL DE MOVEIS      CENTRAL 3,401                           MARACANAU                               61901410CE40910000010519923789525-1/1   14032013003CENTRO              1504201300000000010858942CC                                                                                                                                                                                                                                                                                                                                                                                           228862-39     000054
1031421009993COBR_CAUC_COR  VAMOL INDUSTRIA MOVELEIRA LTDA          030689848000130LOJAS SIPOLATTI IND. COM. LTDA          RUA JOAO SIPOLATTI,1                    CARIACICA                               29141152ES40911000010519924589502-1/1   14032013800UNIBANCO S/A        0805201300000000010887547CC                                                                                                                                                                                                                                                                                                                                                                                           228862-40     000055
1043421002054DIR_CREDIT     VIJAI ELETRICA DO BRASIL LTDA           015139629000194COELBA - CIA ELETRICIDADE EST DA BAHIA  AVENIDA EDGAR SANTOS, 300-NARANDIBA     SALVADOR                                41181900BA4092900001                                                                                                                                          002200212           0204201200000214984600023884  28022013013801Trata-se de fornecimento dos materiais descritos na tabela do contrato 1.1, onde temos diversos tipos de transformadores.                                                                                                                       008268683000174228862-41     000056
1043421002054DIR_CREDIT     VIJAI ELETRICA DO BRASIL LTDA           015139629000194COELBA - CIA ELETRICIDADE EST DA BAHIA  AVENIDA EDGAR SANTOS, 300-NARANDIBA     SALVADOR                                41181900BA4093300001                                                                                                                                          481011416           0204201200000214984600023884  27022013000404Trata-se de fornecimento dos materiais descritos na tabela do contrato 1.1, onde temos diversos tipos de transformadores.                                                                                                                       008268683000174228862-42     000057
1043421002054DIR_CREDIT     VIJAI ELETRICA DO BRASIL LTDA           015139629000194COELBA - CIA ELETRICIDADE EST DA BAHIA  AVENIDA EDGAR SANTOS, 300-NARANDIBA     SALVADOR                                41181900BA4093200001                                                                                                                                          481011122           0204201200000214984600023884  21112012000404Trata-se de fornecimento dos materiais descritos na tabela do contrato 1.1, onde temos diversos tipos de transformadores.                                                                                                                       008268683000174228862-43     000058
1043421002054DIR_CREDIT     VIJAI ELETRICA DO BRASIL LTDA           015139629000194COELBA - CIA ELETRICIDADE EST DA BAHIA  AVENIDA EDGAR SANTOS, 300-NARANDIBA     SALVADOR                                41181900BA4093100001                                                                                                                                          002360212           0204201200000214984600023884  28022013013801Trata-se de fornecimento dos materiais descritos na tabela do contrato 1.1, onde temos diversos tipos de transformadores.                                                                                                                       008268683000174228862-44     000059
1043421002054DIR_CREDIT     VIJAI ELETRICA DO BRASIL LTDA           015139629000194COELBA - CIA ELETRICIDADE EST DA BAHIA  AVENIDA EDGAR SANTOS, 300-NARANDIBA     SALVADOR                                41181900BA4093000001                                                                                                                                          002260212           0204201200000214984600023884  28022013013801Trata-se de fornecimento dos materiais descritos na tabela do contrato 1.1, onde temos diversos tipos de transformadores.                                                                                                                       008268683000174228862-45     000060
1008421022487COBR_CAUC_COR  EBP - EMPRESA BRASILEIRA DE PESCADO     033304981000110SUPERMERCADOS MUNDIAL LTDA              RUADONA EMILIA, 2                       RIO DE JANEIRO                          20765110RJ4093600001015838510017754/    14032013900BRADESCO S/A        0304201300000000030625000CC                                                                                                                                                                                                                                                                                                                                                                                           228997-1      000061
1014420939021COBR_CAUC_BIC  EDITORA O DIA S/A                       060444437000146LIGHT SERV DE ELETRICIDADE S/A          AV.MAL FLORIANO 168 CENTRO CULTURA      RIO DE JANEIRO                          20080002RJ4093400001025170460678589     28022013014RIO DE JANEIRO      3003201300000000011681856CC                                                                                                                                                                                                                                                                                                                                                                                           228997-2      000062
1031421010495COBR_CAUC_COR  FOREMAN CONFECCOES LTDA                 007296319000317WBR INDUSTRIA E COMERCIO DE VESTUA      RUA UM, 271, QD.02 LT 11                SERRA                                   29168020ES409350000105200791021588/01   16032013900BRADESCO S/A        2406201300000000013215381CC                                                                                                                                                                                                                                                                                                                                                                                           228997-3      000063
1050421000089COBR_CAUC_COR  ATIVO ALIMENTOS EXP E IMP EIRELI        027497684000135FRISA FRIGORIFICO RIO DOCE SA           R FIORAVANTE ROSSI 4000                 COLATINA                                29704700ES409520000100435669182597/1    18032013800UNIBANCO S/A        1504201300000000011009000CC                                                                                                                                                                                                                                                                                                                                                                                           228998-1      000064
1038421011812COBR_CAUC_BIC  ENERGY COML IMPORT E EXPORT LTDA        009363567000105PREMIX BRASIL RESINAS LTDA              AL ARAGUAIA,2044                        BARUERI                                 06455000SP409510000100051036002648      11032013007PAULISTA            2504201300000000010675689CC                                                                                                                                                                                                                                                                                                                                                                                           228998-2      000065
1038421011812COBR_CAUC_BIC  ENERGY COML IMPORT E EXPORT LTDA        009363567000105PREMIX BRASIL RESINAS LTDA              AL ARAGUAIA,2044                        BARUERI                                 06455000SP409510000200051044002649      11032013007PAULISTA            2504201300000000010675689CC                                                                                                                                                                                                                                                                                                                                                                                           228998-3      000066
1038421011812COBR_CAUC_BIC  ENERGY COML IMPORT E EXPORT LTDA        009363567000105PREMIX BRASIL RESINAS LTDA              AL ARAGUAIA,2044                        BARUERI                                 06455000SP409510000300051052002650      12032013007PAULISTA            2604201300000000011178045CC                                                                                                                                                                                                                                                                                                                                                                                           228998-4      000067
1038421011812COBR_CAUC_BIC  ENERGY COML IMPORT E EXPORT LTDA        009363567000105PREMIX BRASIL RESINAS LTDA              AL ARAGUAIA,2044                        BARUERI                                 06455000SP409510000400051061002651      12032013007PAULISTA            2604201300000000011178045CC                                                                                                                                                                                                                                                                                                                                                                                           228998-5      000068
1017421012921DIR_CREDIT     AFRANIO DE ANDRADE JATOBA               012282034000600USINA CAETÉ S/A- UNIDADE CACHOEIRA      ZONA RURAL, S/N                         MACEIÓ                                  57000000AL4086100001                                                                                                                                          012165244           070620110000021966UC-0291/007 12032013000403Compra e venda de 20.000 toneladas de cana-de-açucar - safras em cadaano safra (safras 2012/2013 e 2013/2014) - total de 40.000 toneladas.                                                                                                      003572784000053229000-1      000069
1047421002030DIR_CREDIT     ALCOAZUL S/A - ACUCAR E ALCOOL          061149589000189COOP.DE PRODS DE CANA-DE-AçúCAR,Aç E ALCAV. PAULISTA, 287, 3 ANDAR              SAO PAULO                               01311000SP4081200001                                                                                                                                          012169866           231120100000020222DEJR-4198/2008032013017002repasse pela COOPERATIVA de 8% do saldo líquido credor da contamovimento disponibilidade da USINA, no período de 30/01/2012 até 30/07/2014.                                                                                                     044776409000170229000-2      000070
1010421024410COBR_CAUC_BIC  ARARIPE TEXTIL S/A ARTESA               055608202000102KAKAO CONFECCOES E COM LTDA             R DR ODOM C DE F FERRAZ,915             SAO PAULO                               05121000SP4097200001042143413388        19032013007PAULISTA            2706201300000000010525336CC                                                                                                                                                                                                                                                                                                                                                                                           229000-3      000071
1045421003766DIR_CREDIT     BIOGRAF S/C LTDA                        013131370000100SAO LUCAS MEDICO HOSPITALAR             AV CEL STANLEY DA SILVEIRA 33           ARACAJU                                 49015400SE4086400001                                                                                                                                          012172147           060520020000006114001         12032013000407Prestação de serviços médicos realizando exames de scan duplex, dopplervascular ultra-som vascular                                                                                                                                              001666646000175229000-4      000072
1020421001857COBR_CAUC_COR  BRASALPLA BRASIL IND DE EMBALAG LTD     008415791000556CERVEJARIA PETROPOLIS DO CENTRO OE      ROD CELSO GARCIA CID,1480 KM 85         CAMBE                                   86185520PR4096800001000062233055462     19032013900BRADESCO S/A        1604201300000000010753234CC                                                                                                                                                                                                                                                                                                                                                                                           229000-5      000073
1020421001857COBR_CAUC_COR  BRASALPLA BRASIL IND DE EMBALAG LTD     008415791000556CERVEJARIA PETROPOLIS DO CENTRO OE      ROD CELSO GARCIA CID,1480 KM 85         CAMBE                                   86185520PR4096800002063054943055366     15032013900BRADESCO S/A        1204201300000000010291155CC                                                                                                                                                                                                                                                                                                                                                                                           229000-6      000074
1020421001857COBR_CAUC_COR  BRASALPLA BRASIL IND DE EMBALAG LTD     008415791000556CERVEJARIA PETROPOLIS DO CENTRO OE      ROD CELSO GARCIA CID,1480 KM 85         CAMBE                                   86185520PR4096800003063055413055375     15032013900BRADESCO S/A        1204201300000000010291155CC                                                                                                                                                                                                                                                                                                                                                                                           229000-7      000075
1047421001980DIR_CREDIT     DESTILARIA GENERALCO S/A                061149589000189COOP.DE PRODS DE CANA-DE-AÇÚCAR,AÇ E ALCAV. PAULISTA,287, 3 ANADAR              SAO PAULO                               01311000SP4078800001                                                                                                                                          012169912           231120100000020221DEJR-4194/2007032013017002repasse pela COOPERATIVA de 6% do saldo líquido credor da contamovimento disponibilidade da USINA no período de 01/01/12 até 30/07/14.                                                                                                          044845915000173229000-8      000076
1036421019760DIR_CREDIT     ED PLANETA DEAGOSTINI DO BRASIL LTD     028322873000130FC COMERCIAL E DISTRIBUIDORA S/A        DR KENKITI SHIMOMOTO, 1678 - SALA A     OSASCO                                  06045390SP4083500001                                                                                                                                          012154301           230520110000022012S/N         08032013000403contrato de compra e venda de publicações, em regime de consignação de mercadorias para revenda à terceiros,bancas de jornais e revistas e em pontosalternativos.                                                                               001713870000170229000-9      000077
1006441005236COBR_CAUC_BIC  F A MENDES ARAGAO ME                    000475251000122PAULO OCTAVIO INVESTIMENTOS             SCN, QD 1 ,125                          BRASILIA                                70711900DF4097000001094409723169        20032013009BRASILIA            1704201300000000010801736CC                                                                                                                                                                                                                                                                                                                                                                                           229000-10     000078
1010421024313DIR_CREDIT     INDUSTRIA E CONST VAO LIVRE S/A         010710987000191CONSORCIO RNEST O. C. EDIFICAÇÕES       ROD.PE 60, KM 10 - COMPLEXO SUAPE       IPOJUCA                                 55592972PE4095600001                                                                                                                                          012167218           270820120000023141252-12-PJ   18032013000401Fabricação e montagem de estruturas metálicas para prédios administrativos da Refinaria do Nordeste Abreu e Lima - Rnest, abrangendo as áreas de con- trole de acesso, portaria, garagem coberta, almoxarifados e predio das oficinas           013264891000135229000-11     000079
1013421019571DIR_CREDIT     JPNOR ENGENHARIA LTDA                   042150391000170BRASKEM S/A                             RUA ETENO,1561-POLO PETROQUIMICO        CAMAçARI                                42800000BA4082700001                                                                                                                                          481027086           10022010000001798510108/2009  08032013000404Elaboração de projetos conceituais, de engenharia básica, de detalhamento de projeto, de automação, estudos técnicos e estudos de viabilidade.                                                                                                  001531864000100229000-12     000080
1013421019571DIR_CREDIT     JPNOR ENGENHARIA LTDA                   009017802000260BRASKEM QPAR S/A                        AV PRESIDENTE COSTA E SILVA,400         SANTO ANDRE                             09270000SP4082900001                                                                                                                                          481027086           10022010000001986010108       08032013000404Elaboração de projetos conceituais, de engenharia básica, de detalha-mento de projeto, de automação, estudos técnicos e estudos de viabilidade.                                                                                                 001531864000100229000-13     000081
1013421019571DIR_CREDIT     JPNOR ENGENHARIA LTDA                   001202799000242RIO POLIMEROS S.A.                      RUA MARUMBI, 1001-CAMPOS ELISEOS        DUQUE DE CAXIAS                         25070235RJ4082800001                                                                                                                                          481027086           10022010000001985910108       08032013000404Elaboração de projetos conceituais, de engenharia básica, de detalha-mento de projeto, de automação, estudos técnicos e estudos de viabilidade.                                                                                                 001531864000100229000-14     000082
1046421000145COBR_CAUC_BIC  KOMLOG IMPORTACAO LTDA                  093015006001438COMPANHIA ZAFFARI COMERCIO E INDUS      AV. PLINIO BRASIL MILANO, 1000 5º ANDAR PORTO ALEGRE                            90520000RS409690000101821192007828-     14032013015PORTO ALEGRE        1804201300000000021184800CC                                                                                                                                                                                                                                                                                                                                                                                           229000-15     000083
1007421043100COBR_CAUC_COR  MACROPORT INTERNACIONAL LTDA            009250330000100QUANTY COM INTERNACIONAL LTDA           RUA FRANCISCO SOUZA DOS S,3-SL 121      SERRA                                   29164153ES40971000010178864600004983-A  19032013900BRADESCO S/A        2005201300000000013290586CC                                                                                                                                                                                                                                                                                                                                                                                           229000-16     000084
1046421006070DIR_CREDIT     METALURGICA DS LTDA                     060857349000176TRW AUTOMOTIVE LTDA                     VIA ANHANGUERA KM 147                   LIMEIRA                                 13486915SP4079300001                                                                                                                                          012167360           260320070000018698            07032013017002fornecimento de discos e tambores de freio para automoveis                                                                                                                                                                                      079414868000198229000-17     000085
1044421012694DIR_CREDIT     NATAL HOSPITAL CENTER S/A               003716044000100ASL - ASSISTENCIA A SAUDE LTDA          RUA JUNDIAI, 644                        NATAL                                   59020120RN4084400001                                                                                                                                          481018460           250620020000013755S/N         11032013000404prestar serviços aos beneficiários da contratante, atraves de seu corpo clinico e, responsabilidade de sua diretoria clinica, os serviços de assisten-cia médico- hospitalar contatados através de profissionais da área no rn.                 002109397000180229000-18     000086
1006420932613DIR_CREDIT     NIVEL CONSTRUCOES LTDA                  008805453000105MB ENGENHARIA SPE 004 S/A               AV SENADOR VIRGILIO TAVORA 1500-ALDEOTA FORTALEZA                               60170220CE4088500001                                                                                                                                          012174217           301120100000016589S/N         13032013000401GERENCIAR E EXECUTAR AS OBRAS DE CONSTRUÇAO DO EMPREENDIMENTO THE ONETOWER SITUADO A AV SENADOR VIRGILIO TAVORA 1500 - ALDEOTA - FORTALEZA (CE), ON-DE A INCORPORAÇÃO É DE INTEIRA RESPONSABILIDADE DE BROOKFIELD INCORP S/A.                   002960450000151229000-19     000087
1008421002710DIR_CREDIT     OCS MIN E EMPREENDIMENTOS LTDA          034230979005418SUPERMIX CONCRETO S/A                   R PROF. JOSE VIEIRA DE MENDONçA, 1121   BELO HORIZONTE                          31310260MG4091900001                                                                                                                                          481028566           100120070000012817            15032013000404fornecimento de material produzido pela OCS-Mineração e EmpreendimentosLtda,a saber Brita 19mm,Brita 9,5mm e areia grossa de Brita,todos fornecidos e oferecidos em forma de tonelada.                                                          007323439000102229000-20     000088
1031421007850COBR_CAUC_BIC  AGRICOLA JANDELLE S/A                   010265737000190MAXIMO S ALIMENTOS LTDA                 RUA SOTERO DOS REIS 31                  RIO DE JANEIRO                          20270200RJ4099200001052022970022310701  21032013014RIO DE JANEIRO      2004201300000000010560000CC                                                                                                                                                                                                                                                                                                                                                                                           229013-1      000089
1029421019016DIR_CREDIT     COZINHA INDUSTRIAL FRAIBURGO LTDA       052311529009690FISCHER S/A AGROINDUSTRIA               ROD SC 453 KM 24,6                      FRAIBURGO                               89580000SC4100700001                                                                                                                                          012167873           130420120000023162            21032013000403Fornecimento exclusivo de refeições para todos os empregados e/ou auto-rizados da CONTRATANTE, incluindo todos os insumos necessários para o preparodas refeições e respectiva mão-de-obra especializada.                                       083139089000107229013-2      000090
1048421000338COBR_CAUC_COR  FRIGOESTRELA S.A. EM RECUP JUDICIAL     023439441001323ARMAZEM MATEUS S.A.                     AV ENGENHEIRO EMILIANO MACIEIRA5DE      SAO LUIS                                65095602MA4099300001040763290089547901  20032013900BRADESCO S/A        1904201300000000013363987CC                                                                                                                                                                                                                                                                                                                                                                                           229013-3      000091
1048421000338COBR_CAUC_COR  FRIGOESTRELA S.A. EM RECUP JUDICIAL     050947761001871IRMAOS RUSSI LTDA                       RUA LUIS ALLI FARDYN590SALA 03          CAJAMAR                                 07750000SP4099400001040804580089563401  20032013900BRADESCO S/A        2204201300000000010038262CC                                                                                                                                                                                                                                                                                                                                                                                           229013-4      000092
1018421034834COBR_CAUC_BIC  LACEL LATICINIOS CERES LTDA             023439441001323ARMAZEM MATEUS LTDA                     AV ENG.EMILIANO MACIEIRA, 5 - DEPOSITO  SAO LUIS                                65095602MA409910000103131851022831      20032013042SAO LUIS            1904201300000000011823600CC                                                                                                                                                                                                                                                                                                                                                                                           229013-5      000093
1046421004914DIR_CREDIT     MR EMPREENDIMENTOS S A                  002474103000119TRACTEBEL ENERGIA S/A                   RUA PASCHOAL APOSTOLO PITSICA, Nº 5064  FLORIANOPOLIS                           88025255SC4097700001                                                                                                                                          012184052           300920100000015875            20032013000403Contraprestação pela ocupação e uso do imóvel Centro Empresarial JoséCarlos Daux,situado na Rua Pascoal Apostolo Pitsica s/n, Bairro Agronomica,Florianópolis/SC.                                                                               004031314000102229013-6      000094
1038421002945COBR_CAUC_COR  NEOLIDER COM.IMP.E EXP.DE ACOS LTDA     097837181002433DURATEX S/A                             ROD RAPOSO TAVARES,,SN- KM 172,1        ITAPETININGA                            18203340SP409950000100052156051618/     15032013800UNIBANCO S/A        1204201300000000011951226CC                                                                                                                                                                                                                                                                                                                                                                                           229013-7      000095
1038421002945COBR_CAUC_COR  NEOLIDER COM.IMP.E EXP.DE ACOS LTDA     097837181002433DURATEX S/A                             ROD RAPOSO TAVARES,,SN- KM 172,1        ITAPETININGA                            18203340SP409950000200052172051623/     15032013800UNIBANCO S/A        1204201300000000011623500CC                                                                                                                                                                                                                                                                                                                                                                                           229013-8      000096
1018421035326DIR_CREDIT     SOLO TERRAPLENAGEM PAV E CONST LTDA     002083764000113GAE CONSTRUCAO E COMERCIO LTDA          RUA 31 NR150 JARDIM GOIAS               GOIANIA                                 74805340GO4100900001                                                                                                                                          012177117           0111201200000238042012.60354  21032013000403locação de máquinas,veículos e equipamentos.                                                                                                                                                                                                    015199164000167229013-9      000097
1045421013192DIR_CREDIT     YEX GESTAO DE SERVICOS LTDA             013131370000100SÃO LUCAS MÉDICO HOSPITALAR LTDA        AV CORONEL STANLEY DA SILVEIRA, 33      ARACAJU                                 49000000SE4100400001                                                                                                                                          481013679           241120060000021898001/06      21032013000404Prestação de serviços de lavagem, higienização e tratamento de roupashospitalares, constando de lençóis, fronhas, toalhas, uniformes, camposcirúrgicos e outras provenientes do próprio hospital.                                               007689816000113229013-10     000098
1047421001875DIR_CREDIT     CONSTRUCOES METALICAS ICEC LTDA         017227422000105GERDAU ACOMINAS S.A                     ROD MG 443, KM 7                        OURO BRANCO                             36420000MG4103900001                                                                                                                                          001214827           1209201200000226854600136310  21032013003003elaboração de projetos,fabricação,fornecimento e montagem do Prédio da linha de laminação de planos-Laminador Plate, laminador acabador e linha depreparação de placas da Usina Presidente Arthur Bernardes, em Ouro Branco/MG.                 004858299000413229014-1      000099
1047421001875DIR_CREDIT     CONSTRUCOES METALICAS ICEC LTDA         017227422000105GERDAU ACOMINAS S.A                     ROD MG 443, KM 7                        OURO BRANCO                             36420000MG4104000001                                                                                                                                          001216511           1209201200000226854600136310  21032013003003elaboração de projetos,fabricação,fornecimento e montagem do Prédio da linha de laminação de planos-Laminador Plate, laminador acabador e linha depreparação de placas da Usina Presidente Arthur Bernardes, em Ouro Branco/MG.                 004858299000413229014-2      000100
1018421030529COBR_CAUC_BIC  CREDIMAIS FOMENTO MERCANTIL LTDA        026564534000215MIKA DA AMAZONIA ALIMENTOS LTDA         ROD ARQUITETO HELDER CENDIA             CUIABA                                  78048150MT4101500001031349581867        21032013024CUIABA              2805201300000000014743240CC                                                                                                                                                                                                                                                                                                                                                                                           229014-3      000101
1018421030529COBR_CAUC_BIC  CREDIMAIS FOMENTO MERCANTIL LTDA        026564534000215MIKA DA AMAZONIA ALIMENTOS LTDA         ROD ARQUITETO HELDER CENDIA             CUIABA                                  78048150MT4101500002031349661868        21032013024CUIABA              2905201300000000015116780CC                                                                                                                                                                                                                                                                                                                                                                                           229014-4      000102
1024420934410COBR_CAUC_BIC  INTERCOOP INT SUIN MED NORTE MT LTD     004613751000487CRISTALFRIGO IND COM IMPORTACAO EX      AV DOS ANDRADAS ,2229-STA EFIGENIA      BELO HORIZONTE                          30120010MG41012000010201088196127       14032013019BELO HORIZONTE      1504201300000000013007016CC                                                                                                                                                                                                                                                                                                                                                                                           229014-5      000103
1024420934410COBR_CAUC_BIC  INTERCOOP INT SUIN MED NORTE MT LTD     059281857000170CARDEAL INDUSTRIA E COMERCIO DE AL      R. VINTE E OITO DE JUL,25 -25 A 29      SAO CAETANO DO                          09520610SP41013000010201089096333       20032013038ABC                 1604201300000000017382797CC                                                                                                                                                                                                                                                                                                                                                                                           229014-6      000104
1022421007720COBR_CAUC_COR  JUMIL-JUSTINO DE MORAIS IRMAOS S/A      000005651327681DANILO JULIO GATTO                      RUA DJALMA TORRES - SL-404, 251         UNAI                                    38610000MG410140000104515284147085E.02  22032013800UNIBANCO S/A        2006201300000000010890000CC                                                                                                                                                                                                                                                                                                                                                                                           229014-7      000105
1028421002921COBR_CAUC_COR  MATABOI ALIMENTOS S/A - EM REC.JUD.     004641376007300SUPERMERCADOS BH COMERCIO DE ALIME      AVGERALDO ROCHA700                      CONTAGEM                                32183054MG4101000001002794180030346901  21032013900BRADESCO S/A        1804201300000000016820907CC                                                                                                                                                                                                                                                                                                                                                                                           229014-8      000106
1028421002921COBR_CAUC_COR  MATABOI ALIMENTOS S/A - EM REC.JUD.     017745613000150SUPERMERCADO BAHAMAS LTDA               ROD BR-040 780KM                        JUIZ DE FORA                            36092005MG4101100001002831130030356701  21032013900BRADESCO S/A        2004201300000000016307624CC                                                                                                                                                                                                                                                                                                                                                                                           229014-9      000107
1038421011812COBR_CAUC_BIC  ENERGY COML IMPORT E EXPORT LTDA        009363567000105PREMIX BRASIL RESINAS LTDA              AL ARAGUAIA,2044                        BARUERI                                 06455000SP4104500001000630932651_A      12032013007PAULISTA            2604201300000000010836598CC                                                                                                                                                                                                                                                                                                                                                                                           229015-1      000108
1038421011812COBR_CAUC_BIC  ENERGY COML IMPORT E EXPORT LTDA        009363567000105PREMIX BRASIL RESINAS LTDA              AL ARAGUAIA,2044                        BARUERI                                 06455000SP4104500002000631072650_A      12032013007PAULISTA            2604201300000000010836598CC                                                                                                                                                                                                                                                                                                                                                                                           229015-2      000109
1038421011812COBR_CAUC_BIC  ENERGY COML IMPORT E EXPORT LTDA        009363567000105PREMIX BRASIL RESINAS LTDA              AL ARAGUAIA,2044                        BARUERI                                 06455000SP4104500003000631152649_A      11032013007PAULISTA            2504201300000000010675688CC                                                                                                                                                                                                                                                                                                                                                                                           229015-3      000110
1038421011812COBR_CAUC_BIC  ENERGY COML IMPORT E EXPORT LTDA        009363567000105PREMIX BRASIL RESINAS LTDA              AL ARAGUAIA,2044                        BARUERI                                 06455000SP4104500004000631312648_A      11032013007PAULISTA            2504201300000000010675688CC                                                                                                                                                                                                                                                                                                                                                                                           229015-4      000111
1038421020897COBR_CAUC_BIC  ENERGY COML IMPORT E EXPORT LTDA        009363567000105PREMIX BRASIL RESINAS LTDA              AL ARAGUAIA,2044                        BARUERI                                 06455000SP4104600001000632042573-A      04032013007PAULISTA            1804201300000000011403507CC                                                                                                                                                                                                                                                                                                                                                                                           229015-5      000112
1038421020897COBR_CAUC_BIC  ENERGY COML IMPORT E EXPORT LTDA        009363567000105PREMIX BRASIL RESINAS LTDA              AL ARAGUAIA,2044                        BARUERI                                 06455000SP4104600002000632122572-A      04032013007PAULISTA            1804201300000000011403507CC                                                                                                                                                                                                                                                                                                                                                                                           229015-6      000113
1038421020897COBR_CAUC_BIC  ENERGY COML IMPORT E EXPORT LTDA        009363567000105PREMIX BRASIL RESINAS LTDA              AL ARAGUAIA,2044                        BARUERI                                 06455000SP4104600003000632212565-A      01032013007PAULISTA            1504201300000000011361114CC                                                                                                                                                                                                                                                                                                                                                                                           229015-7      000114
1038421020897COBR_CAUC_BIC  ENERGY COML IMPORT E EXPORT LTDA        009363567000105PREMIX BRASIL RESINAS LTDA              AL ARAGUAIA,2044                        BARUERI                                 06455000SP4104600004000632392564-A      01032013007PAULISTA            1504201300000000011361114CC                                                                                                                                                                                                                                                                                                                                                                                           229015-8      000115
1038421020897COBR_CAUC_BIC  ENERGY COML IMPORT E EXPORT LTDA        009363567000105PREMIX BRASIL RESINAS LTDA              AL ARAGUAIA,2044                        BARUERI                                 06455000SP4104600005000632472563-A      01032013007PAULISTA            1504201300000000011361114CC                                                                                                                                                                                                                                                                                                                                                                                           229015-9      000116
1013421019571DIR_CREDIT     JPNOR ENGENHARIA LTDA                   042150391000170BRASKEM S/A                             RUA ETENO,1561-POLO PETROQUIMICO        CAMAçARI                                42800000BA4106300001                                                                                                                                          481027159           10022010000001798510108/2009  25032013000404Elaboração de projetos conceituais, de engenharia básica, de detalhamento de projeto, de automação, estudos técnicos e estudos de viabilidade.                                                                                                  001531864000100229015-10     000117
1013421019571DIR_CREDIT     JPNOR ENGENHARIA LTDA                   009017802000260BRASKEM QPAR S/A                        AV PRESIDENTE COSTA E SILVA,400         SANTO ANDRE                             09270000SP4106400001                                                                                                                                          481027159           10022010000001986010108       25032013000404Elaboração de projetos conceituais, de engenharia básica, de detalha-mento de projeto, de automação, estudos técnicos e estudos de viabilidade.                                                                                                 001531864000100229015-11     000118
1016421021083COBR_CAUC_BIC  PLUMA AGRO AVICOLA LTDA                 085070068000280GONCALVES E TORTOLLA                    RUA TAMOIO,0                            INDIANOPOLIS                            87210000PR41047000010395057161250       22032013016CURITIBA            2004201300000000010746840CC                                                                                                                                                                                                                                                                                                                                                                                           229015-12     000119
1029421015592DIR_CREDIT     CEDI SERVICOS POR IMAGENS LTDA          073717639000166PRO SALUTE SERVICOS PARA SAUDE LTDA     RUA FEIJO JR, 778                       CAXIAS DO SUL                           95034160RS4108600001                                                                                                                                          012191146           290220120000020844            26032013000403prestacao de serviços na especialidade de diagnóstico por imagem reali zando exames de radiologia e ultrassonografia pela contratada aos beneficiáriosintegrantes dos planos privados de assistência e saúde.                                   004227190000135229017-1      000120
1019421003040DIR_CREDIT     ERNANI GOMES BRANDAO                    041657081000184EMPRESA TRANSP E TRANSITO BH SA BHTRANS RUA ENGENHEIRO CARLOS GOULART, 900      BELO HORIZONTE                          30455700MG4108800001                                                                                                                                          000959974           260720010000002009            30082010003307PERMISSAO PARA EXECUCAO DO SERVICO PUBLICO DE TRANSPORTE SUPLEMENTAR DEPASSAGEIROS NO MUNICIPIO DE BELO HORIZONTE - STSP                                                                                                                        296180536000087229017-2      000121
1020421002020COBR_CAUC_COR  GRABER SISTEMAS DE SEGURANCA LTDA       003480244000107CONDOMINIO ORDINARIO DO NOVO S          AV PRESIDENTE KENNEDY, 1500 - JD PRESIDERIBEIRAO PRETO                          14096350SP410760000100005073000005154A  25032013900BRADESCO S/A        0604201300000000016239189CC                                                                                                                                                                                                                                                                                                                                                                                           229017-3      000122
1020421002020COBR_CAUC_COR  GRABER SISTEMAS DE SEGURANCA LTDA       003480244000107CONDOMINIO ORDINARIO DO NOVO S          AV PRESIDENTE KENNEDY, 1500 - JD PRESIDERIBEIRAO PRETO                          14096350SP410760000200005081000005154B  25032013900BRADESCO S/A        2004201300000000011065128CC                                                                                                                                                                                                                                                                                                                                                                                           229017-4      000123
1019421010259COBR_CAUC_BIC  L & S INTERBANK FOMENTO LTDA            002615943000154ORTENG SPE PROJETOS E MONTAGENS LT      R ARARAQUARA 175                        CONTAGEM                                32372020MG41079000010670112115707-3     26032013019BELO HORIZONTE      2605201300000000012804958CC                                                                                                                                                                                                                                                                                                                                                                                           229017-5      000124
1038421002945COBR_CAUC_BIC  NEOLIDER COM.IMP.E EXP.DE ACOS LTDA     060882628001323CONFAB INDUSTRIAL SA                    R DR GONZAGA,SN                         PINDAMONHANGABA                         12440900SP410770000100066076051846/     26032013007PAULISTA            2504201300000000014104818CC                                                                                                                                                                                                                                                                                                                                                                                           229017-6      000125
1007421032516COBR_CAUC_BIC  NITRIFLEX SP IND E COM DE BORRACHAS     000026910000143SWEETMIX IND COM IMP EXP LTDA           ALAMEDA CACAPAVA, 60                    SOROCABA                                18085250SP410780000101799460001424401   25032013007PAULISTA            0605201300000000011860108CC                                                                                                                                                                                                                                                                                                                                                                                           229017-7      000126
1007421032516COBR_CAUC_BIC  NITRIFLEX SP IND E COM DE BORRACHAS     000026910000143SWEETMIX IND COM IMP EXP LTDA           ALAMEDA CACAPAVA, 60                    SOROCABA                                18085250SP410780000201799478001424402   25032013007PAULISTA            1305201300000000011860108CC                                                                                                                                                                                                                                                                                                                                                                                           229017-8      000127
1009140510846COBR_CAUC_BIC  SA CORREIO BRAZILIENSE                  000584755000180VIA ENGENHARIA S/A                      SIA TRECHO 03 LOTES 1705/1715           GUARA                                   71200030DF410740000106798262456580      25032013009BRASILIA            3004201300000000073000000TD                                                                                                                                                                                                                                                                                                                                                                                           229017-9      000128
1009140510846COBR_CAUC_BIC  SA CORREIO BRAZILIENSE                  017262213010319CONSTRUTORA ANDRADE GUTIERREZ S/A       SHIS QL 14 CONJ 08 CASA 17              LAGO SUL                                71640085DF410750000106798254456581      25032013009BRASILIA            3004201300000000073619213TD                                                                                                                                                                                                                                                                                                                                                                                           229017-10     000129
1036420930044DIR_CREDIT     USINAS ITAMARATI S/A                    003559491000101INDUSTRIA E COMERCIO DE BEBIDAS MDM LTDAR RAIMUNDO CANTUÁRIA 7761               PORTO VELHO                             76824629RO4108100001                                                                                                                                          011803438           010320120000021034            20032013000403Venda pela Promitente Vendedora a Compromissária Compradora de 7.200 toneladas métricas líquidas de açúcar cristal da safra 2013/2014 acondicionadosem sacos de polipropíleno com 50 Kg de capacidade cada.                                     015009178000170229017-11     000130
9000129                                                                                                                                                                                                                                                                                                                                                                                                                                                                                                                                                                                                                                                                                                               000131
