0REMESSANOTIFICAÇÃO ELETRONICA        99999999999999Bicbanco S/A                            Avenida Brigadeiro Faria Lima           4.440     2º andar  Itaim Bibi                    São Paulo                     04538132SPBicbanco S/A                                                                    29052013                                                                                                                                                                                                                                                                                                                                                                                                000001
1029141008057COBR_CAUC_BIC  COMERCIAL DE TABACOS MICHELON LTDA      005648120000385TABACUM INTERAMERICAN COM. EXP. FU      EST. RST 287 S/N KM 78,1,0              VENANCIO AIRES                          95800000RS42163000010995862121999/540A  21052013015PORTO ALEGRE        2608201300000000014474195TD                                                                                                                                                                                                                                                                                                                                                                                           238770-1      000002
1029141008057COBR_CAUC_BIC  COMERCIAL DE TABACOS MICHELON LTDA      005648120000385TABACUM INTERAMERICAN COM. EXP. FU      EST. RST 287 S/N KM 78,1,0              VENANCIO AIRES                          95800000RS42163000020995863922048/541A  21052013015PORTO ALEGRE        2808201300000000014475780TD                                                                                                                                                                                                                                                                                                                                                                                           238770-2      000003
1019421010259COBR_CAUC_COR  L & S INTERBANK FOMENTO LTDA            061156568002720CONSTRAN S.A. CONSTRUCOES E COMERC      AV. DO LAGO, O QD 13                    SAO SIMAO                               75890000GO4216400001067275880002-4      24042013900BRADESCO S/A        0906201300000000015977177CC                                                                                                                                                                                                                                                                                                                                                                                           238770-3      000004
1046421006020COBR_CAUC_BIC  RUELL IMPORTACAO E EXPORTACAO LTDA      004744781000341ADM COM. DE ROUPAS LTDA                 ALAMEDA STO AMARO,326                   SAO PAULO                               04745001SP4216200001019360971802/01     16052013007PAULISTA            1308201300000000010919670CC                                                                                                                                                                                                                                                                                                                                                                                           238770-4      000005
1046421006020COBR_CAUC_BIC  RUELL IMPORTACAO E EXPORTACAO LTDA      004744781000341ADM COM. DE ROUPAS LTDA                 ALAMEDA STO AMARO,326                   SAO PAULO                               04745001SP4216200002019361601802/05     16052013007PAULISTA            1312201300000000010919666CC                                                                                                                                                                                                                                                                                                                                                                                           238770-5      000006
1046421006020COBR_CAUC_BIC  RUELL IMPORTACAO E EXPORTACAO LTDA      004744781000341ADM COM. DE ROUPAS LTDA                 ALAMEDA STO AMARO,326                   SAO PAULO                               04745001SP4216200003019362081802/04     16052013007PAULISTA            1311201300000000010919666CC                                                                                                                                                                                                                                                                                                                                                                                           238770-6      000007
1046421006020COBR_CAUC_BIC  RUELL IMPORTACAO E EXPORTACAO LTDA      004744781000341ADM COM. DE ROUPAS LTDA                 ALAMEDA STO AMARO,326                   SAO PAULO                               04745001SP4216200004019362161802/03     16052013007PAULISTA            1310201300000000010919666CC                                                                                                                                                                                                                                                                                                                                                                                           238770-7      000008
1046421006020COBR_CAUC_BIC  RUELL IMPORTACAO E EXPORTACAO LTDA      004744781000341ADM COM. DE ROUPAS LTDA                 ALAMEDA STO AMARO,326                   SAO PAULO                               04745001SP4216200005019362241802/02     16052013007PAULISTA            1309201300000000010919666CC                                                                                                                                                                                                                                                                                                                                                                                           238770-8      000009
1048421000095COBR_CAUC_COR  ACUMULADORES AJAX LTDA                  008528576000138R & J COMERCIO DE BATERIAS LTDA         AV AMARALINA 1320                       FEIRA DE SANTAN                         44028186BA422010000100664854024174316   12032013600HSBC BANK BRASIL    3001201400000000002214094CC                                                                                                                                                                                                                                                                                                                                                                                           238771-1      000010
1048421000095COBR_CAUC_COR  ACUMULADORES AJAX LTDA                  000594953000125COMERCIAL AMAJAX LTDA.                  AV. JK , 2820                           GOVERNADOR VALA                         35045250MG422060000100664862024293717   12032013600HSBC BANK BRASIL    2202201400000000003322707CC                                                                                                                                                                                                                                                                                                                                                                                           238771-2      000011
1048421000095COBR_CAUC_COR  ACUMULADORES AJAX LTDA                  000594953000125COMERCIAL AMAJAX LTDA.                  AV. JK , 2820                           GOVERNADOR VALA                         35045250MG422060000200664871024293718   12032013600HSBC BANK BRASIL    2203201400000000010000000CC                                                                                                                                                                                                                                                                                                                                                                                           238771-3      000012
1048421000095COBR_CAUC_BIC  ACUMULADORES AJAX LTDA                  010353610000122ECOMBAT COM DE BATERIAS LTDA            TRV CAPITAO EUFRASIN DE ANDRADE N. 1024 CASTANHAL                               68743610PA422050000100664803025155003   02052013050BELEM               3011201300000000002085229CC                                                                                                                                                                                                                                                                                                                                                                                           238771-4      000013
1048421000095COBR_CAUC_BIC  ACUMULADORES AJAX LTDA                  010353610000122ECOMBAT COM DE BATERIAS LTDA            TRV CAPITAO EUFRASIN DE ANDRADE N. 1024 CASTANHAL                               68743610PA422050000200664811025155004   02052013050BELEM               3012201300000000002085229CC                                                                                                                                                                                                                                                                                                                                                                                           238771-5      000014
1048421000095COBR_CAUC_BIC  ACUMULADORES AJAX LTDA                  010353610000122ECOMBAT COM DE BATERIAS LTDA            TRV CAPITAO EUFRASIN DE ANDRADE N. 1024 CASTANHAL                               68743610PA422050000300664820025155005   02052013050BELEM               3001201400000000002085229CC                                                                                                                                                                                                                                                                                                                                                                                           238771-6      000015
1048421000095COBR_CAUC_BIC  ACUMULADORES AJAX LTDA                  010353610000122ECOMBAT COM DE BATERIAS LTDA            TRV CAPITAO EUFRASIN DE ANDRADE N. 1024 CASTANHAL                               68743610PA422050000400664838025155006   02052013050BELEM               2802201400000000002085229CC                                                                                                                                                                                                                                                                                                                                                                                           238771-7      000016
1048421000095COBR_CAUC_BIC  ACUMULADORES AJAX LTDA                  007400193000117J G MONTEIRO DA SILVA ME                RODOVIA TRANSAMAZONICA S N KM 1,5 LOTE 4MARABA                                  68502700PA42204000010066490125156407    02052013050BELEM               3011201300000000001927052CC                                                                                                                                                                                                                                                                                                                                                                                           238771-8      000017
1048421000095COBR_CAUC_BIC  ACUMULADORES AJAX LTDA                  007400193000117J G MONTEIRO DA SILVA ME                RODOVIA TRANSAMAZONICA S N KM 1,5 LOTE 4MARABA                                  68502700PA42204000020066489725156408    02052013050BELEM               3012201300000000001927052CC                                                                                                                                                                                                                                                                                                                                                                                           238771-9      000018
1048421000095COBR_CAUC_BIC  ACUMULADORES AJAX LTDA                  007400193000117J G MONTEIRO DA SILVA ME                RODOVIA TRANSAMAZONICA S N KM 1,5 LOTE 4MARABA                                  68502700PA42204000030066491925156409    02052013050BELEM               3001201400000000001927052CC                                                                                                                                                                                                                                                                                                                                                                                           238771-10     000019
1048421000095COBR_CAUC_BIC  ACUMULADORES AJAX LTDA                  014549574000128BETAJAX SUL BATERIAS LTDA ME            RUA GERALDO RODRIGUES SANCHES 100       SAO JOSE DO RIO                         15061395SP422030000100664846024559415   17102012022RIBEIRAO PRETO      1512201300000000004959254CC                                                                                                                                                                                                                                                                                                                                                                                           238771-11     000020
1048421000095COBR_CAUC_COR  ACUMULADORES AJAX LTDA                  001564185000120COMERCIAL AMAJAX VITORIA LTDA           RUA BURARAMA 40                         VILA VELHA                              29111270ES422020000100664889024410316   12032013600HSBC BANK BRASIL    2201201400000000003697742CC                                                                                                                                                                                                                                                                                                                                                                                           238771-12     000021
1050421000089COBR_CAUC_BIC  ATIVO ALIMENTOS EXP E IMP EIRELI        028664456000337SUPERMERCADO CRISTAL LTDA               RUA ANTONIO JOSE BITTENCOURT 429        RIO DE JANEIRO                          26535000RJ421800000100454566192874/1    21052013014RIO DE JANEIRO      0706201300000000027038049CC                                                                                                                                                                                                                                                                                                                                                                                           238771-13     000022
1032420934675COBR_CAUC_BIC  ELIANE S/A REVESTIMENTOS CERAMICOS      010551329000285CCP MAGNOLIA EMPREENDIMENTOS IMOBI      AV DAS AMERICAS, 3500 BLOCO 1 SALA 408  RIO DE JANEIRO                          22640102RJ421780000101793960DPL204846A  21052013014RIO DE JANEIRO      1207201300000000018630225CC                                                                                                                                                                                                                                                                                                                                                                                           238771-14     000023
1024421008781COBR_CAUC_COR  GRUPAL AGROINDUSTRIAL S.A               002797149000179COOPERATIVA AGROPECUARIA SUL            R THOME DE SOUZA, 464                   XANXERE                                 89820000SC42179000010201576017432       22052013600HSBC BANK BRASIL    2206201300000000027000000CC                                                                                                                                                                                                                                                                                                                                                                                           238771-15     000024
1028421002921COBR_CAUC_COR  MATABOI ALIMENTOS S/A - EM REC.JUD.     017745613000150SUPERMERCADO BAHAMAS LTDA               ROD BR-040 780KM                        JUIZ DE FORA                            36092005MG4217700001003444310031724001  21052013900BRADESCO S/A        2006201300000000022903481CC                                                                                                                                                                                                                                                                                                                                                                                           238771-16     000025
1028421002921COBR_CAUC_COR  MATABOI ALIMENTOS S/A - EM REC.JUD.     017745613000150SUPERMERCADO BAHAMAS LTDA               ROD BR-040 780KM                        JUIZ DE FORA                            36092005MG4217700002003444490031724901  21052013900BRADESCO S/A        2006201300000000014171414CC                                                                                                                                                                                                                                                                                                                                                                                           238771-17     000026
1028421002921COBR_CAUC_COR  MATABOI ALIMENTOS S/A - EM REC.JUD.     017745613000150SUPERMERCADO BAHAMAS LTDA               ROD BR-040 780KM                        JUIZ DE FORA                            36092005MG4217700003003445460009996001  21052013900BRADESCO S/A        2006201300000000024719597CC                                                                                                                                                                                                                                                                                                                                                                                           238771-18     000027
1046421006020COBR_CAUC_BIC  RUELL IMPORTACAO E EXPORTACAO LTDA      004744781000341ADM COM. DE ROUPAS LTDA                 ALAMEDA STO AMARO,326                   SAO PAULO                               04745001SP4218100001019381711516/09     20112012007PAULISTA            1910201300000000012666033CC                                                                                                                                                                                                                                                                                                                                                                                           238771-19     000028
1019421004658COBR_CAUC_COR  S/A ESTADO DE MINAS                     006981180000116CEMIG DISTRIBUICAO SA                   AV BARBACENA 1200                       BELO HORIZONTE                          30190131MG4217600001012322891784901-1   21052013900BRADESCO S/A        1506201300000000027314712CC                                                                                                                                                                                                                                                                                                                                                                                           238771-20     000029
1046421001443COBR_CAUC_COR  COSTAO DO SANTINHO TUR E LAZER LTDA     066580168000121ROKA MARKETING E EVENTOS LTDA           PC. CHARLES MILLER,96                   SAO PAULO                               01234010SP422080000100010603170233      22052013900BRADESCO S/A        1206201300000000016295850CC                                                                                                                                                                                                                                                                                                                                                                                           238772-1      000030
1020421001385COBR_CAUC_COR  METALURGICA QUASAR LTDA                 016701716000156FIAT AUTOMOVEIS SA ARGENTINA 162        AV CONTORNO, 3455                       BETIM                                   32669900MG422070000106325801192491      17052013900BRADESCO S/A        2106201300000000010255909CC                                                                                                                                                                                                                                                                                                                                                                                           238772-2      000031
1046421001443COBR_CAUC_COR  COSTAO DO SANTINHO TUR E LAZER LTDA     079303384000171OPERADORA DE VIAGENS ACORIANA           RUA DOM JAIME CAMARA,106                FLORIANOPOLIS                           88015120SC42224000010001063824052013    23052013900BRADESCO S/A        1206201300000000016500000CC                                                                                                                                                                                                                                                                                                                                                                                           238773-1      000032
1016421008591COBR_CAUC_BIC  GLOBOAVES SAO PAULO AGROAVICOLA LTD     083044016000980TYSON DO BRASIL ALIMENTOS LTDA          ROD BR 487 ESTR BOIADEIRA KM 185,0      CAMPO MOURAO                            87305380PR422250000104023933090267      23052013016CURITIBA            2006201300000000010038420CC                                                                                                                                                                                                                                                                                                                                                                                           238773-2      000033
1046421006887COBR_CAUC_COR  A. NUNES & CIA LTDA                     004448914000251BARRICHELLO TRANSPORTES LTDA EPP        AV N SRA DO AM,231-SOBRE LOJA SL 3      RIO BRANCO DO S                         83540000PR422770000100001507127121      16052013900BRADESCO S/A        0706201300000000000839835CC                                                                                                                                                                                                                                                                                                                                                                                           238775-1      000034
1046421006887COBR_CAUC_COR  A. NUNES & CIA LTDA                     012588555000185CARLOS FLOR PESCADOS LTDA               AV GETULIO VARGAS,728                   LAGUNA                                  88790000SC4230000001000009007032        18042013900BRADESCO S/A        0306201300000000001567520CC                                                                                                                                                                                                                                                                                                                                                                                           238775-2      000035
1046421006887COBR_CAUC_COR  A. NUNES & CIA LTDA                     012588555000185CARLOS FLOR PESCADOS LTDA               AV GETULIO VARGAS,728                   LAGUNA                                  88790000SC423000000200001442126977/1    13052013900BRADESCO S/A        1006201300000000003135040CC                                                                                                                                                                                                                                                                                                                                                                                           238775-3      000036
1046421006887COBR_CAUC_COR  A. NUNES & CIA LTDA                     012588555000185CARLOS FLOR PESCADOS LTDA               AV GETULIO VARGAS,728                   LAGUNA                                  88790000SC423000000300001451126977/2    13052013900BRADESCO S/A        1306201300000000003135040CC                                                                                                                                                                                                                                                                                                                                                                                           238775-4      000037
1046421006887COBR_CAUC_COR  A. NUNES & CIA LTDA                     000027855483888RODRIGO CORDEIRO                        RUA ORLANDO FERREIRA,5957               NAVEGANTES                              88385000SC4229900001000010607134        30042013900BRADESCO S/A        1506201300000000001910400CC                                                                                                                                                                                                                                                                                                                                                                                           238775-5      000038
1046421006887COBR_CAUC_COR  A. NUNES & CIA LTDA                     000027855483888RODRIGO CORDEIRO                        RUA ORLANDO FERREIRA,5957               NAVEGANTES                              88385000SC4229900002000013027150        10052013900BRADESCO S/A        2006201300000000002292480CC                                                                                                                                                                                                                                                                                                                                                                                           238775-6      000039
1046421006887COBR_CAUC_COR  A. NUNES & CIA LTDA                     000027855483888RODRIGO CORDEIRO                        RUA ORLANDO FERREIRA,5957               NAVEGANTES                              88385000SC4229900003000013115709        10052013900BRADESCO S/A        1606201300000000002483520CC                                                                                                                                                                                                                                                                                                                                                                                           238775-7      000040
1046421006887COBR_CAUC_COR  A. NUNES & CIA LTDA                     085142446000103EVERTON TRANSPORTES LTDA                RUA IVO SHEL,0                          TREZE DE MAIO                           88710000SC422980000100001485127122      16052013900BRADESCO S/A        2006201300000000005428594CC                                                                                                                                                                                                                                                                                                                                                                                           238775-8      000041
1046421006887COBR_CAUC_COR  A. NUNES & CIA LTDA                     014589261001418SULNORTE SERV MARIT LTDA                RUA ZALONY,160                          RIO GRANDE                              96200070RS422970000100001078126563      30042013900BRADESCO S/A        1406201300000000004180000CC                                                                                                                                                                                                                                                                                                                                                                                           238775-9      000042
1046421006887COBR_CAUC_COR  A. NUNES & CIA LTDA                     000091471192920DAURIZETE MANOEL CARDOSO                RUA ALFREDO JOAO KREIC,154              PENHA                                   88375000SC4229600001000010517089        22042013900BRADESCO S/A        0206201300000000002020500CC                                                                                                                                                                                                                                                                                                                                                                                           238775-10     000043
1046421006887COBR_CAUC_COR  A. NUNES & CIA LTDA                     000091471192920DAURIZETE MANOEL CARDOSO                RUA ALFREDO JOAO KREIC,154              PENHA                                   88375000SC4229600002000015157223        16052013900BRADESCO S/A        2806201300000000001796000CC                                                                                                                                                                                                                                                                                                                                                                                           238775-11     000044
1046421006887COBR_CAUC_COR  A. NUNES & CIA LTDA                     000097209449868CLAUDIO ROBERTO LEARDINI                RUA ANIBAL GAYA,1075                    NAVEGANTES                              88375000SC4229500001000013887166        10052013900BRADESCO S/A        2506201300000000003420720CC                                                                                                                                                                                                                                                                                                                                                                                           238775-12     000045
1046421006887COBR_CAUC_COR  A. NUNES & CIA LTDA                     009350944000163CAIS DO ATLANTICO IND. COMERCIO DE      AV. GETULIO VARGAS,681                  LAGUNA                                  88790000SC4229400001000010867122        30042013900BRADESCO S/A        1106201300000000002321000CC                                                                                                                                                                                                                                                                                                                                                                                           238775-13     000046
1046421006887COBR_CAUC_COR  A. NUNES & CIA LTDA                     009350944000163CAIS DO ATLANTICO IND. COMERCIO DE      AV. GETULIO VARGAS,681                  LAGUNA                                  88790000SC42294000020000140023658       13052013900BRADESCO S/A        2006201300000000001055000CC                                                                                                                                                                                                                                                                                                                                                                                           238775-14     000047
1046421006887COBR_CAUC_COR  A. NUNES & CIA LTDA                     000045984662949JOSUE LOTE AMORIM                       RUA ESTER REBELLO NARCISO,145           NAVEGANTES                              88375000SC4229300001000013297183        10052013900BRADESCO S/A        0906201300000000002702560CC                                                                                                                                                                                                                                                                                                                                                                                           238775-15     000048
1046421006887COBR_CAUC_COR  A. NUNES & CIA LTDA                     000045984662949JOSUE LOTE AMORIM                       RUA ESTER REBELLO NARCISO,145           NAVEGANTES                              88375000SC4229300002000013377197        10052013900BRADESCO S/A        1306201300000000000619021CC                                                                                                                                                                                                                                                                                                                                                                                           238775-16     000049
1046421006887COBR_CAUC_COR  A. NUNES & CIA LTDA                     078613486000120LAGOPESCA IND& COM DE PESCADOS L        RUA GIOCONDO TASSO,404                  LAGUNA                                  88790000SC422920000100001183126945/1    09052013900BRADESCO S/A        0306201300000000000414375CC                                                                                                                                                                                                                                                                                                                                                                                           238775-17     000050
1046421006887COBR_CAUC_COR  A. NUNES & CIA LTDA                     078613486000120LAGOPESCA IND& COM DE PESCADOS L        RUA GIOCONDO TASSO,404                  LAGUNA                                  88790000SC422920000200001191126945/2    09052013900BRADESCO S/A        0406201300000000000414375CC                                                                                                                                                                                                                                                                                                                                                                                           238775-18     000051
1046421006887COBR_CAUC_COR  A. NUNES & CIA LTDA                     078613486000120LAGOPESCA IND& COM DE PESCADOS L        RUA GIOCONDO TASSO,404                  LAGUNA                                  88790000SC422920000300001205126945/3    09052013900BRADESCO S/A        0506201300000000000414375CC                                                                                                                                                                                                                                                                                                                                                                                           238775-19     000052
1046421006887COBR_CAUC_COR  A. NUNES & CIA LTDA                     078613486000120LAGOPESCA IND& COM DE PESCADOS L        RUA GIOCONDO TASSO,404                  LAGUNA                                  88790000SC422920000400001213126945/4    09052013900BRADESCO S/A        0606201300000000000414375CC                                                                                                                                                                                                                                                                                                                                                                                           238775-20     000053
1046421006887COBR_CAUC_COR  A. NUNES & CIA LTDA                     078613486000120LAGOPESCA IND& COM DE PESCADOS L        RUA GIOCONDO TASSO,404                  LAGUNA                                  88790000SC422920000500001221126945/5    09052013900BRADESCO S/A        0706201300000000000414375CC                                                                                                                                                                                                                                                                                                                                                                                           238775-21     000054
1046421006887COBR_CAUC_COR  A. NUNES & CIA LTDA                     078613486000120LAGOPESCA IND& COM DE PESCADOS L        RUA GIOCONDO TASSO,404                  LAGUNA                                  88790000SC422920000600001230126945/6    09052013900BRADESCO S/A        0806201300000000000414375CC                                                                                                                                                                                                                                                                                                                                                                                           238775-22     000055
1046421006887COBR_CAUC_COR  A. NUNES & CIA LTDA                     078613486000120LAGOPESCA IND& COM DE PESCADOS L        RUA GIOCONDO TASSO,404                  LAGUNA                                  88790000SC422920000700001248126945/7    09052013900BRADESCO S/A        1106201300000000000414375CC                                                                                                                                                                                                                                                                                                                                                                                           238775-23     000056
1046421006887COBR_CAUC_COR  A. NUNES & CIA LTDA                     078613486000120LAGOPESCA IND& COM DE PESCADOS L        RUA GIOCONDO TASSO,404                  LAGUNA                                  88790000SC422920000800001256126945/8    09052013900BRADESCO S/A        1206201300000000000414375CC                                                                                                                                                                                                                                                                                                                                                                                           238775-24     000057
1046421006887COBR_CAUC_COR  A. NUNES & CIA LTDA                     000015867382834SERGIO ANTONIO PAGLIOTTO                RUA TEODORO LINO REGIS,1415             ITAJAI                                  88311320SC4229100001000014697165        13052013900BRADESCO S/A        1906201300000000003112640CC                                                                                                                                                                                                                                                                                                                                                                                           238775-25     000058
1046421006887COBR_CAUC_COR  A. NUNES & CIA LTDA                     000082398550915EVANILDO MIGUEL DE JESUS                RUA JULIA DA COSTA FLORES,151           PENHA                                   88385000SC4229000001000009346897        18042013900BRADESCO S/A        0206201300000000001752000CC                                                                                                                                                                                                                                                                                                                                                                                           238775-26     000059
1046421006887COBR_CAUC_COR  A. NUNES & CIA LTDA                     000082398550915EVANILDO MIGUEL DE JESUS                RUA JULIA DA COSTA FLORES,151           PENHA                                   88385000SC4229000002000013967207        13052013900BRADESCO S/A        2506201300000000001204500CC                                                                                                                                                                                                                                                                                                                                                                                           238775-27     000060
1046421006887COBR_CAUC_COR  A. NUNES & CIA LTDA                     000034498370953ANTONIO CARLOS DINIZ MONN               RUA ADOLFO KUGNER ,108                  TUBARAO                                 88303301SC422890000100001094126683      30042013900BRADESCO S/A        0506201300000000000965200CC                                                                                                                                                                                                                                                                                                                                                                                           238775-28     000061
1046421006887COBR_CAUC_COR  A. NUNES & CIA LTDA                     000034498370953ANTONIO CARLOS DINIZ MONN               RUA ADOLFO KUGNER ,108                  TUBARAO                                 88303301SC422890000200001493127123      16052013900BRADESCO S/A        2006201300000000001930400CC                                                                                                                                                                                                                                                                                                                                                                                           238775-29     000062
1046421006887COBR_CAUC_COR  A. NUNES & CIA LTDA                     000044059612987MIGUEL TEODOMIRO SANTOS                 RUA JOSE QUIRINO,435                    ITAJAI                                  88305060SC4228800001000010357101        22042013900BRADESCO S/A        0506201300000000001462800CC                                                                                                                                                                                                                                                                                                                                                                                           238775-30     000063
1046421006887COBR_CAUC_COR  A. NUNES & CIA LTDA                     000044059612987MIGUEL TEODOMIRO SANTOS                 RUA JOSE QUIRINO,435                    ITAJAI                                  88305060SC4228800002000014267211        13052013900BRADESCO S/A        2606201300000000001170240CC                                                                                                                                                                                                                                                                                                                                                                                           238775-31     000064
1046421006887COBR_CAUC_COR  A. NUNES & CIA LTDA                     086694056000109J GONCALVES COM. DE PESCADOS LTDA       R. DOS NAVEGANTES,88                    FLORIANOPOLIS                           88705170SC422870000100001281126946      09052013900BRADESCO S/A        0806201300000000001176240CC                                                                                                                                                                                                                                                                                                                                                                                           238775-32     000065
1046421006887COBR_CAUC_COR  A. NUNES & CIA LTDA                     086694056000109J GONCALVES COM. DE PESCADOS LTDA       R. DOS NAVEGANTES,88                    FLORIANOPOLIS                           88705170SC422870000200001299126947      09052013900BRADESCO S/A        0806201300000000001372280CC                                                                                                                                                                                                                                                                                                                                                                                           238775-33     000066
1046421006887COBR_CAUC_COR  A. NUNES & CIA LTDA                     000030954215915PEDRO PEREIRA                           AV. ITAPOCOROY,2260                     PENHA                                   88385000SC4228600001000013537191        10052013900BRADESCO S/A        2206201300000000002111340CC                                                                                                                                                                                                                                                                                                                                                                                           238775-34     000067
1046421006887COBR_CAUC_COR  A. NUNES & CIA LTDA                     000060805994904ALAILSON TEOFILO ROCHA                  QUINTA AVENIDA,54                       BALN CAMBORIU                           88330123SC4228500001000014187212        13052013900BRADESCO S/A        2806201300000000001945400CC                                                                                                                                                                                                                                                                                                                                                                                           238775-35     000068
1046421006887COBR_CAUC_COR  A. NUNES & CIA LTDA                     000000414860993MARCELO MIGUEL DE SOUZA                 RUA JULIA DA COSTA FLORES,411           NAVEGANTES                              88385000SC4228400001000010437094        22042013900BRADESCO S/A        0306201300000000001895500CC                                                                                                                                                                                                                                                                                                                                                                                           238775-36     000069
1046421006887COBR_CAUC_COR  A. NUNES & CIA LTDA                     000084673478991IVAN REGIS                              RUA DEP NILTON KUCKER,108               NAVEGANTES                              88385000SC4228300001000009266891        18042013900BRADESCO S/A        0106201300000000001621078CC                                                                                                                                                                                                                                                                                                                                                                                           238775-37     000070
1046421006887COBR_CAUC_COR  A. NUNES & CIA LTDA                     086448941000108DELUPO COMERCIO DE FERRAM MAQ LTDA      AV MARECHAL DEODORO,311                 TUBARAO                                 88701010SC422820000100001434126892      13052013900BRADESCO S/A        0706201300000000001612477CC                                                                                                                                                                                                                                                                                                                                                                                           238775-38     000071
1046421006887COBR_CAUC_COR  A. NUNES & CIA LTDA                     000024877310959WILSON JOSE CORDEIRO                    AV ITAPOCOROI,1736                      PENHA                                   88385000SC4228100001000013617189        10052013900BRADESCO S/A        2306201300000000001528511CC                                                                                                                                                                                                                                                                                                                                                                                           238775-39     000072
1046421006887COBR_CAUC_COR  A. NUNES & CIA LTDA                     000001972000950JOAO DORVAL BENTO                       ESTRADA GERAL SANTA LIDIA,5100          PENHA                                   88385000SC4228000001000011167133        30042013900BRADESCO S/A        1106201300000000001473860CC                                                                                                                                                                                                                                                                                                                                                                                           238775-40     000073
1046421006887COBR_CAUC_COR  A. NUNES & CIA LTDA                     000029145880972MIGUEL PRAXEDES DE SOUZA                RUA JULIA DA COSTA FLORES,444           PENHA                                   88385000SC4227900001000013707149        10052013900BRADESCO S/A        1606201300000000001462800CC                                                                                                                                                                                                                                                                                                                                                                                           238775-41     000074
1046421006887COBR_CAUC_COR  A. NUNES & CIA LTDA                     004381959000256JOAO DA COSTA ARAUJO                    RUA SAO LUIZ,127-SALA 01                TUBARAO                                 88705190SC422780000100001477127120      16052013900BRADESCO S/A        0706201300000000001228716CC                                                                                                                                                                                                                                                                                                                                                                                           238775-42     000075
1048421000095COBR_CAUC_BIC  ACUMULADORES AJAX LTDA                  011488469000138LONDRIJAX BATERIAS LTDA ME              ROD CELSO GARCIA CID 335                LONDRINA                                86066230PR422710000100665834025597706   23052013031LONDRINA            2208201300000000000006663CC                                                                                                                                                                                                                                                                                                                                                                                           238775-43     000076
1048421000095COBR_CAUC_BIC  ACUMULADORES AJAX LTDA                  011488469000138LONDRIJAX BATERIAS LTDA ME              ROD CELSO GARCIA CID 335                LONDRINA                                86066230PR422710000200665435025394602   04042013031LONDRINA            1806201300000000001462785CC                                                                                                                                                                                                                                                                                                                                                                                           238775-44     000077
1048421000095COBR_CAUC_BIC  ACUMULADORES AJAX LTDA                  011488469000138LONDRIJAX BATERIAS LTDA ME              ROD CELSO GARCIA CID 335                LONDRINA                                86066230PR422710000300665451025574701   16052013031LONDRINA            1406201300000000001011748CC                                                                                                                                                                                                                                                                                                                                                                                           238775-45     000078
1048421000095COBR_CAUC_BIC  ACUMULADORES AJAX LTDA                  011488469000138LONDRIJAX BATERIAS LTDA ME              ROD CELSO GARCIA CID 335                LONDRINA                                86066230PR422710000400665591003318104   23052013031LONDRINA            2207201300000000000174915CC                                                                                                                                                                                                                                                                                                                                                                                           238775-46     000079
1048421000095COBR_CAUC_BIC  ACUMULADORES AJAX LTDA                  011488469000138LONDRIJAX BATERIAS LTDA ME              ROD CELSO GARCIA CID 335                LONDRINA                                86066230PR422710000500665605003323501   23052013031LONDRINA            1506201300000000001150618CC                                                                                                                                                                                                                                                                                                                                                                                           238775-47     000080
1048421000095COBR_CAUC_BIC  ACUMULADORES AJAX LTDA                  011488469000138LONDRIJAX BATERIAS LTDA ME              ROD CELSO GARCIA CID 335                LONDRINA                                86066230PR422710000600665613003323502   23052013031LONDRINA            0807201300000000000721528CC                                                                                                                                                                                                                                                                                                                                                                                           238775-48     000081
1048421000095COBR_CAUC_BIC  ACUMULADORES AJAX LTDA                  011488469000138LONDRIJAX BATERIAS LTDA ME              ROD CELSO GARCIA CID 335                LONDRINA                                86066230PR422710000700665621003323607   23052013031LONDRINA            2208201300000000000009364CC                                                                                                                                                                                                                                                                                                                                                                                           238775-49     000082
1048421000095COBR_CAUC_BIC  ACUMULADORES AJAX LTDA                  011488469000138LONDRIJAX BATERIAS LTDA ME              ROD CELSO GARCIA CID 335                LONDRINA                                86066230PR422710000800665630003323503   23052013031LONDRINA            1107201300000000000721528CC                                                                                                                                                                                                                                                                                                                                                                                           238775-50     000083
1048421000095COBR_CAUC_BIC  ACUMULADORES AJAX LTDA                  011488469000138LONDRIJAX BATERIAS LTDA ME              ROD CELSO GARCIA CID 335                LONDRINA                                86066230PR422710000900665648003323504   23052013031LONDRINA            2307201300000000000721528CC                                                                                                                                                                                                                                                                                                                                                                                           238775-51     000084
1048421000095COBR_CAUC_BIC  ACUMULADORES AJAX LTDA                  011488469000138LONDRIJAX BATERIAS LTDA ME              ROD CELSO GARCIA CID 335                LONDRINA                                86066230PR422710001000665656003323505   23052013031LONDRINA            0208201300000000000721528CC                                                                                                                                                                                                                                                                                                                                                                                           238775-52     000085
1048421000095COBR_CAUC_BIC  ACUMULADORES AJAX LTDA                  011488469000138LONDRIJAX BATERIAS LTDA ME              ROD CELSO GARCIA CID 335                LONDRINA                                86066230PR422710001100665664003323506   23052013031LONDRINA            1208201300000000000721528CC                                                                                                                                                                                                                                                                                                                                                                                           238775-53     000086
1048421000095COBR_CAUC_BIC  ACUMULADORES AJAX LTDA                  011488469000138LONDRIJAX BATERIAS LTDA ME              ROD CELSO GARCIA CID 335                LONDRINA                                86066230PR422710001200665672003323507   23052013031LONDRINA            2208201300000000000721528CC                                                                                                                                                                                                                                                                                                                                                                                           238775-54     000087
1048421000095COBR_CAUC_BIC  ACUMULADORES AJAX LTDA                  011488469000138LONDRIJAX BATERIAS LTDA ME              ROD CELSO GARCIA CID 335                LONDRINA                                86066230PR422710001300665681003323508   23052013031LONDRINA            0309201300000000000721528CC                                                                                                                                                                                                                                                                                                                                                                                           238775-55     000088
1048421000095COBR_CAUC_BIC  ACUMULADORES AJAX LTDA                  011488469000138LONDRIJAX BATERIAS LTDA ME              ROD CELSO GARCIA CID 335                LONDRINA                                86066230PR422710001400665699003323509   23052013031LONDRINA            1109201300000000000721531CC                                                                                                                                                                                                                                                                                                                                                                                           238775-56     000089
1048421000095COBR_CAUC_BIC  ACUMULADORES AJAX LTDA                  011488469000138LONDRIJAX BATERIAS LTDA ME              ROD CELSO GARCIA CID 335                LONDRINA                                86066230PR422710001500665702003310208   23052013031LONDRINA            1707201300000000001121509CC                                                                                                                                                                                                                                                                                                                                                                                           238775-57     000090
1048421000095COBR_CAUC_BIC  ACUMULADORES AJAX LTDA                  011488469000138LONDRIJAX BATERIAS LTDA ME              ROD CELSO GARCIA CID 335                LONDRINA                                86066230PR422710001600665711003323602   23052013031LONDRINA            0807201300000000000009364CC                                                                                                                                                                                                                                                                                                                                                                                           238775-58     000091
1048421000095COBR_CAUC_BIC  ACUMULADORES AJAX LTDA                  011488469000138LONDRIJAX BATERIAS LTDA ME              ROD CELSO GARCIA CID 335                LONDRINA                                86066230PR422710001700665729003323603   23052013031LONDRINA            1107201300000000000009364CC                                                                                                                                                                                                                                                                                                                                                                                           238775-59     000092
1048421000095COBR_CAUC_BIC  ACUMULADORES AJAX LTDA                  011488469000138LONDRIJAX BATERIAS LTDA ME              ROD CELSO GARCIA CID 335                LONDRINA                                86066230PR422710001800665737003323604   23052013031LONDRINA            2307201300000000000009364CC                                                                                                                                                                                                                                                                                                                                                                                           238775-60     000093
1048421000095COBR_CAUC_BIC  ACUMULADORES AJAX LTDA                  011488469000138LONDRIJAX BATERIAS LTDA ME              ROD CELSO GARCIA CID 335                LONDRINA                                86066230PR422710001900665745003323605   23052013031LONDRINA            0208201300000000000009364CC                                                                                                                                                                                                                                                                                                                                                                                           238775-61     000094
1048421000095COBR_CAUC_BIC  ACUMULADORES AJAX LTDA                  011488469000138LONDRIJAX BATERIAS LTDA ME              ROD CELSO GARCIA CID 335                LONDRINA                                86066230PR422710002000665753003323606   23052013031LONDRINA            1208201300000000000009364CC                                                                                                                                                                                                                                                                                                                                                                                           238775-62     000095
1048421000095COBR_CAUC_BIC  ACUMULADORES AJAX LTDA                  011488469000138LONDRIJAX BATERIAS LTDA ME              ROD CELSO GARCIA CID 335                LONDRINA                                86066230PR422710002100665761003323608   23052013031LONDRINA            0309201300000000000009364CC                                                                                                                                                                                                                                                                                                                                                                                           238775-63     000096
1048421000095COBR_CAUC_BIC  ACUMULADORES AJAX LTDA                  011488469000138LONDRIJAX BATERIAS LTDA ME              ROD CELSO GARCIA CID 335                LONDRINA                                86066230PR422710002200665770003323609   23052013031LONDRINA            1109201300000000000009367CC                                                                                                                                                                                                                                                                                                                                                                                           238775-64     000097
1048421000095COBR_CAUC_BIC  ACUMULADORES AJAX LTDA                  011488469000138LONDRIJAX BATERIAS LTDA ME              ROD CELSO GARCIA CID 335                LONDRINA                                86066230PR422710002300665788025597701   23052013031LONDRINA            0807201300000000000006663CC                                                                                                                                                                                                                                                                                                                                                                                           238775-65     000098
1048421000095COBR_CAUC_BIC  ACUMULADORES AJAX LTDA                  011488469000138LONDRIJAX BATERIAS LTDA ME              ROD CELSO GARCIA CID 335                LONDRINA                                86066230PR422710002400665796025597702   23052013031LONDRINA            1107201300000000000006663CC                                                                                                                                                                                                                                                                                                                                                                                           238775-66     000099
1048421000095COBR_CAUC_BIC  ACUMULADORES AJAX LTDA                  011488469000138LONDRIJAX BATERIAS LTDA ME              ROD CELSO GARCIA CID 335                LONDRINA                                86066230PR422710002500665800025597703   23052013031LONDRINA            2307201300000000000006663CC                                                                                                                                                                                                                                                                                                                                                                                           238775-67     000100
1048421000095COBR_CAUC_BIC  ACUMULADORES AJAX LTDA                  011488469000138LONDRIJAX BATERIAS LTDA ME              ROD CELSO GARCIA CID 335                LONDRINA                                86066230PR422710002600665818025597704   23052013031LONDRINA            0208201300000000000006663CC                                                                                                                                                                                                                                                                                                                                                                                           238775-68     000101
1048421000095COBR_CAUC_BIC  ACUMULADORES AJAX LTDA                  011488469000138LONDRIJAX BATERIAS LTDA ME              ROD CELSO GARCIA CID 335                LONDRINA                                86066230PR422710002700665826025597705   23052013031LONDRINA            1208201300000000000006663CC                                                                                                                                                                                                                                                                                                                                                                                           238775-69     000102
1048421000095COBR_CAUC_BIC  ACUMULADORES AJAX LTDA                  011488469000138LONDRIJAX BATERIAS LTDA ME              ROD CELSO GARCIA CID 335                LONDRINA                                86066230PR422710002800665842025597707   23052013031LONDRINA            0309201300000000000006663CC                                                                                                                                                                                                                                                                                                                                                                                           238775-70     000103
1048421000095COBR_CAUC_BIC  ACUMULADORES AJAX LTDA                  011488469000138LONDRIJAX BATERIAS LTDA ME              ROD CELSO GARCIA CID 335                LONDRINA                                86066230PR422710002900665851025597708   23052013031LONDRINA            1109201300000000000006663CC                                                                                                                                                                                                                                                                                                                                                                                           238775-71     000104
1048421000095COBR_CAUC_BIC  ACUMULADORES AJAX LTDA                  011488469000138LONDRIJAX BATERIAS LTDA ME              ROD CELSO GARCIA CID 335                LONDRINA                                86066230PR422710003000665869025576505   23052013031LONDRINA            1706201300000000000797888CC                                                                                                                                                                                                                                                                                                                                                                                           238775-72     000105
1048421000095COBR_CAUC_BIC  ACUMULADORES AJAX LTDA                  011488469000138LONDRIJAX BATERIAS LTDA ME              ROD CELSO GARCIA CID 335                LONDRINA                                86066230PR422710003100665877025576405   23052013031LONDRINA            1706201300000000000993885CC                                                                                                                                                                                                                                                                                                                                                                                           238775-73     000106
1048421000095COBR_CAUC_BIC  ACUMULADORES AJAX LTDA                  011488469000138LONDRIJAX BATERIAS LTDA ME              ROD CELSO GARCIA CID 335                LONDRINA                                86066230PR422710003200665885025597501   23052013031LONDRINA            2207201300000000000471950CC                                                                                                                                                                                                                                                                                                                                                                                           238775-74     000107
1048421000095COBR_CAUC_BIC  ACUMULADORES AJAX LTDA                  011488469000138LONDRIJAX BATERIAS LTDA ME              ROD CELSO GARCIA CID 335                LONDRINA                                86066230PR422710003300665893025597502   23052013031LONDRINA            2108201300000000000471950CC                                                                                                                                                                                                                                                                                                                                                                                           238775-75     000108
1048421000095COBR_CAUC_BIC  ACUMULADORES AJAX LTDA                  011488469000138LONDRIJAX BATERIAS LTDA ME              ROD CELSO GARCIA CID 335                LONDRINA                                86066230PR422710003400665907025597601   23052013031LONDRINA            0807201300000000000536064CC                                                                                                                                                                                                                                                                                                                                                                                           238775-76     000109
1048421000095COBR_CAUC_BIC  ACUMULADORES AJAX LTDA                  011488469000138LONDRIJAX BATERIAS LTDA ME              ROD CELSO GARCIA CID 335                LONDRINA                                86066230PR422710003500665915025597602   23052013031LONDRINA            1107201300000000000536064CC                                                                                                                                                                                                                                                                                                                                                                                           238775-77     000110
1048421000095COBR_CAUC_BIC  ACUMULADORES AJAX LTDA                  011488469000138LONDRIJAX BATERIAS LTDA ME              ROD CELSO GARCIA CID 335                LONDRINA                                86066230PR422710003600665923025597603   23052013031LONDRINA            2307201300000000000536064CC                                                                                                                                                                                                                                                                                                                                                                                           238775-78     000111
1048421000095COBR_CAUC_BIC  ACUMULADORES AJAX LTDA                  011488469000138LONDRIJAX BATERIAS LTDA ME              ROD CELSO GARCIA CID 335                LONDRINA                                86066230PR422710003700665931025597604   23052013031LONDRINA            0208201300000000000536064CC                                                                                                                                                                                                                                                                                                                                                                                           238775-79     000112
1048421000095COBR_CAUC_BIC  ACUMULADORES AJAX LTDA                  011488469000138LONDRIJAX BATERIAS LTDA ME              ROD CELSO GARCIA CID 335                LONDRINA                                86066230PR422710003800665940025597605   23052013031LONDRINA            1208201300000000000536064CC                                                                                                                                                                                                                                                                                                                                                                                           238775-80     000113
1048421000095COBR_CAUC_BIC  ACUMULADORES AJAX LTDA                  011488469000138LONDRIJAX BATERIAS LTDA ME              ROD CELSO GARCIA CID 335                LONDRINA                                86066230PR422710003900665958025597606   23052013031LONDRINA            2208201300000000000536064CC                                                                                                                                                                                                                                                                                                                                                                                           238775-81     000114
1048421000095COBR_CAUC_BIC  ACUMULADORES AJAX LTDA                  011488469000138LONDRIJAX BATERIAS LTDA ME              ROD CELSO GARCIA CID 335                LONDRINA                                86066230PR422710004000665966025597607   23052013031LONDRINA            0309201300000000000536064CC                                                                                                                                                                                                                                                                                                                                                                                           238775-82     000115
1048421000095COBR_CAUC_BIC  ACUMULADORES AJAX LTDA                  011488469000138LONDRIJAX BATERIAS LTDA ME              ROD CELSO GARCIA CID 335                LONDRINA                                86066230PR422710004100665974025597608   23052013031LONDRINA            1109201300000000000536062CC                                                                                                                                                                                                                                                                                                                                                                                           238775-83     000116
1048421000095COBR_CAUC_BIC  ACUMULADORES AJAX LTDA                  011488469000138LONDRIJAX BATERIAS LTDA ME              ROD CELSO GARCIA CID 335                LONDRINA                                86066230PR422710004200665982025576305   23052013031LONDRINA            1706201300000000000197760CC                                                                                                                                                                                                                                                                                                                                                                                           238775-84     000117
1048421000095COBR_CAUC_BIC  ACUMULADORES AJAX LTDA                  011488469000138LONDRIJAX BATERIAS LTDA ME              ROD CELSO GARCIA CID 335                LONDRINA                                86066230PR422710004300665991025576205   23052013031LONDRINA            1706201300000000000360720CC                                                                                                                                                                                                                                                                                                                                                                                           238775-85     000118
1048421000095COBR_CAUC_BIC  ACUMULADORES AJAX LTDA                  011488469000138LONDRIJAX BATERIAS LTDA ME              ROD CELSO GARCIA CID 335                LONDRINA                                86066230PR422710004400666008025592703   23052013031LONDRINA            2006201300000000000152100CC                                                                                                                                                                                                                                                                                                                                                                                           238775-86     000119
1048421000095COBR_CAUC_BIC  ACUMULADORES AJAX LTDA                  011488469000138LONDRIJAX BATERIAS LTDA ME              ROD CELSO GARCIA CID 335                LONDRINA                                86066230PR422710004500666016025592704   23052013031LONDRINA            2207201300000000000152100CC                                                                                                                                                                                                                                                                                                                                                                                           238775-87     000120
1048421000095COBR_CAUC_BIC  ACUMULADORES AJAX LTDA                  011488469000138LONDRIJAX BATERIAS LTDA ME              ROD CELSO GARCIA CID 335                LONDRINA                                86066230PR422710004600666024025592604   23052013031LONDRINA            2207201300000000000013482CC                                                                                                                                                                                                                                                                                                                                                                                           238775-88     000121
1048421000095COBR_CAUC_BIC  ACUMULADORES AJAX LTDA                  011488469000138LONDRIJAX BATERIAS LTDA ME              ROD CELSO GARCIA CID 335                LONDRINA                                86066230PR422710004700666032025592603   23052013031LONDRINA            2006201300000000000013482CC                                                                                                                                                                                                                                                                                                                                                                                           238775-89     000122
1048421000095COBR_CAUC_BIC  ACUMULADORES AJAX LTDA                  011488469000138LONDRIJAX BATERIAS LTDA ME              ROD CELSO GARCIA CID 335                LONDRINA                                86066230PR422710004800666041003310107   23052013031LONDRINA            1706201300000000000251366CC                                                                                                                                                                                                                                                                                                                                                                                           238775-90     000123
1048421000095COBR_CAUC_BIC  ACUMULADORES AJAX LTDA                  011488469000138LONDRIJAX BATERIAS LTDA ME              ROD CELSO GARCIA CID 335                LONDRINA                                86066230PR422710004900666059003318103   23052013031LONDRINA            2006201300000000000174915CC                                                                                                                                                                                                                                                                                                                                                                                           238775-91     000124
1048421000095COBR_CAUC_BIC  ACUMULADORES AJAX LTDA                  011488469000138LONDRIJAX BATERIAS LTDA ME              ROD CELSO GARCIA CID 335                LONDRINA                                86066230PR422710005000666067003310106   23052013031LONDRINA            1506201300000000000124781CC                                                                                                                                                                                                                                                                                                                                                                                           238775-92     000125
1048421000095COBR_CAUC_BIC  ACUMULADORES AJAX LTDA                  011488469000138LONDRIJAX BATERIAS LTDA ME              ROD CELSO GARCIA CID 335                LONDRINA                                86066230PR422710005100666075003310206   23052013031LONDRINA            1506201300000000000630996CC                                                                                                                                                                                                                                                                                                                                                                                           238775-93     000126
1048421000095COBR_CAUC_BIC  ACUMULADORES AJAX LTDA                  011488469000138LONDRIJAX BATERIAS LTDA ME              ROD CELSO GARCIA CID 335                LONDRINA                                86066230PR422710005200666083003310207   23052013031LONDRINA            1706201300000000001121509CC                                                                                                                                                                                                                                                                                                                                                                                           238775-94     000127
1048421000095COBR_CAUC_BIC  ACUMULADORES AJAX LTDA                  011488469000138LONDRIJAX BATERIAS LTDA ME              ROD CELSO GARCIA CID 335                LONDRINA                                86066230PR422710005300666091003310209   23052013031LONDRINA            1408201300000000001121509CC                                                                                                                                                                                                                                                                                                                                                                                           238775-95     000128
1048421000095COBR_CAUC_BIC  ACUMULADORES AJAX LTDA                  000006468792860KHALED FARACHE                          IRMAOS PILA N. 261 LOJA                 SAO PAULO                               02309000SP422740000100665460025577401   17052013007PAULISTA            0807201300000000000170373CC                                                                                                                                                                                                                                                                                                                                                                                           238775-96     000129
1048421000095COBR_CAUC_BIC  ACUMULADORES AJAX LTDA                  000006468792860KHALED FARACHE                          IRMAOS PILA N. 261 LOJA                 SAO PAULO                               02309000SP422740000200665478025577402   17052013007PAULISTA            0508201300000000000170373CC                                                                                                                                                                                                                                                                                                                                                                                           238775-97     000130
1048421000095COBR_CAUC_BIC  ACUMULADORES AJAX LTDA                  000006468792860KHALED FARACHE                          IRMAOS PILA N. 261 LOJA                 SAO PAULO                               02309000SP422740000300665486025577403   17052013007PAULISTA            2608201300000000000170373CC                                                                                                                                                                                                                                                                                                                                                                                           238775-98     000131
1048421000095COBR_CAUC_BIC  ACUMULADORES AJAX LTDA                  006123166000181GPS PRODUTOS DE SEGURANCA LTDA ME       RUA ANTONIO ALVES 15-75                 BAURU                                   17015331SP422730000100665427025595004   22052013022RIBEIRAO PRETO      0508201300000000000090186CC                                                                                                                                                                                                                                                                                                                                                                                           238775-99     000132
1048421000095COBR_CAUC_BIC  ACUMULADORES AJAX LTDA                  006123166000181GPS PRODUTOS DE SEGURANCA LTDA ME       RUA ANTONIO ALVES 15-75                 BAURU                                   17015331SP422730000200665494025595002   22052013022RIBEIRAO PRETO      0807201300000000000090188CC                                                                                                                                                                                                                                                                                                                                                                                           238775-100    000133
1048421000095COBR_CAUC_BIC  ACUMULADORES AJAX LTDA                  006123166000181GPS PRODUTOS DE SEGURANCA LTDA ME       RUA ANTONIO ALVES 15-75                 BAURU                                   17015331SP422730000300665508025595003   22052013022RIBEIRAO PRETO      2207201300000000000090188CC                                                                                                                                                                                                                                                                                                                                                                                           238775-101    000134
1048421000095COBR_CAUC_BIC  ACUMULADORES AJAX LTDA                  014493541000103PAULO CESAR MADUREIRA FILHO - ME        RUA ELZA FELIPPINI, 5-73                BAURU                                   17047170SP422720000100665443025555803   10052013022RIBEIRAO PRETO      0808201300000000000228398CC                                                                                                                                                                                                                                                                                                                                                                                           238775-102    000135
1007421034217DIR_CREDIT     AGRISUL AGRICOLA LTDA                   008056257000177USINA CERRADAO LTDA                     RODOVIA MG 255 KM 30                    FRUTAL                                  38200000MG4225700001                                                                                                                                          106818270           2706200900000098741           18112011000430FORNECIMENTO DE 239.893 TONELADAS DE CANA-DE-AÇUCAR COMPROMETENDO SE A FORNECER TODA A CANA PRODUZIDA DURANTE A SAFRA 2009/10, SENDO NUMA CADENCIA DE 1.200 TONELADAS/DIA, INICIO 01/07 A 15/12/09 E 01/04 A 30/05/2010.                        004773159000108238775-103    000136
1021420930887COBR_CAUC_COR  DEDINI S/A INDUSTRIAS DE BASE           004165520000296AGROPECUARIA NOVO MILENIO LTDA          ROD TRANSEFONICA KM 6 ANEXO 01 S N VILA MIRASSOL D´OEST                         78280000MT422370000106403529214898-5-5  29042013900BRADESCO S/A        1509201300000000015000000CC                                                                                                                                                                                                                                                                                                                                                                                           238775-104    000137
1022421010720COBR_CAUC_COR  GUERRA E GUERRA TRANSPORTES LTDA        019537471000161U.S.A. USINA SANTO ANGELO LTDA          FAZ SAO CRISTOVAO S/N,0                 PIRAJUBA                                38210000MG42240000010000058100200272    27052013800UNIBANCO S/A        0306201300000000011979450CC                                                                                                                                                                                                                                                                                                                                                                                           238775-105    000138
1032421025628DIR_CREDIT     INTEGRA TECNOLOGIA LTDA                 014284430000197FUNDO MATERIAIS, PUBL.IMPRESSOS OFICIAISRODOVIA SC 401 KM 5 - Nº4600 - BLOCO 2  FLORIANOPOLIS                           88032000SC4227600001                                                                                                                                          011981985           100120110000021137043/2010    20092012000403Fornecimento de serviço de telefonia corporativa IP para o Governo doEstado de Santa Catarina incluindo manutenção, equipamentos e infra-estruturade acordo com as especificações técnicas.                                                     074088618000191238775-106    000139
1007421062369DIR_CREDIT     LP ADMINISTRADORA DE BENS LTDA          092228410000102OMNI S/A.CRéDITO,FINANCIAMENTO E INVEST.RUA PARAIBA, 330 16º ANDAR              BELO HORIZONTE                          30130140MG4223600001                                                                                                                                          012074243           081220100000023190            19122012051902Acordo operacional através do qual o BANCO SEMEAR se dispôs a financiartotal ou parcialmente, na modalidade de CDC, os clientes indicados pelaComercial Zena, na compra de produtos/serviços por ela comercializados.                           010480029000252238775-107    000140
1046421006070DIR_CREDIT     METALURGICA DS LTDA                     060857349000176TRW AUTOMOTIVE LTDA                     VIA ANHANGUERA KM 147                   LIMEIRA                                 13486915SP4223400001                                                                                                                                          012250829           260320070000018698            24052013017002fornecimento de discos e tambores de freio para automoveis                                                                                                                                                                                      079414868000198238775-108    000141
1008421002710DIR_CREDIT     OCS MIN E EMPREENDIMENTOS LTDA          034230979005418SUPERMIX CONCRETO S/A                   R PROF. JOSE VIEIRA DE MENDONçA, 1121   BELO HORIZONTE                          31310260MG4216700001                                                                                                                                          481029104           100120070000012817            21052013000404fornecimento de material produzido pela OCS-Mineração e EmpreendimentosLtda,a saber Brita 19mm,Brita 9,5mm e areia grossa de Brita,todos fornecidos e oferecidos em forma de tonelada.                                                          007323439000102238775-109    000142
