0REMESSANOTIFICAÇÃO ELETRONICA        99999999999999Bicbanco S/A                            Avenida Paulista                        1048      12º andar BELA VISTA                    SÃO PAULO                     01310100SPBicbanco S/A                                                                    29102010                                                                                                                                                                                                                                                                                                                                                                                                000001
1007421043461DIR_CREDIT     REMOCENTER REMOCOES E SERV MEDICOS      027174093000127PM DA SERRA                             PR PEDRO FEU ROSA, 01                   SERRA                                   99999999ES2478300001                                                                                                                                          481046550           031220090000013880613/2009    25102010000404contratação de empresa especializada em serviços de atendimento ao nivel pre-hospitalar-aph movel e remoção.                                                                                                                                    008243988000393114561-1      000002
1028421002921COBR_CAUC_COR  FRIGORIFICO MATABOI S/A                 067945071054734GRAN SAPORE BR BRASIL S.A.              Rua Sao Luiz do Paraitinga53            CAMPINAS                                13040002SP2478700001002186050012506001  20102010900BRADESCO S/A        1911201000000000018257552CC                                                                                                                                                                                                                                                                                                                                                                                           114561-2      000003
1014420939021COBR_CAUC_BIC  EDITORA O DIA S/A                       033130543000182CASAS GUANABARA COMESTIVEIS LTDA        DA AGUA BRANCA,3400                     RIO DE JANEIRO                          21720161RJ2478800001022885940562730     25102010014RIO DE JANEIRO      1511201000000000024464000CC                                                                                                                                                                                                                                                                                                                                                                                           114561-3      000004
1007421035264COBR_CAUC_BIC  ALLIED ADVANCED TECHNOLOGIES LTDA       009358108000206PONTOFRIO.COM COMERCIO ELETRONICO       RUA GOMES DE CARVALHO, 1609 / 1617      SAO PAULO                               04547006SP247890000100173265000025610A  18102010007PAULISTA            2512201000000000024900000CC                                                                                                                                                                                                                                                                                                                                                                                           114561-4      000005
1022421004755COBR_CAUC_COR  FRIGOL S.A. em recuperacao judicial     011294453000194RIOFRIO MAIS ALIMENTOS                  ESTRADA SAO JOAO CAXIAS.30              SAO JOAO DE MER                         25585021RJ2479000001000642374657-01     27102010900BRADESCO S/A        2311201000000000017864543CC                                                                                                                                                                                                                                                                                                                                                                                           114561-5      000006
9000005                                                                                                                                                                                                                                                                                                                                                                                                                                                                                                                                                                                                                                                                                                               000007
