0REMESSANOTIFICAÇÃO ELETRONICA        99999999999999Bicbanco S/A                            Avenida Paulista                        1048      12º andar BELA VISTA                    SÃO PAULO                     01310100SPBicbanco S/A                                                                    01022011                                                                                                                                                                                                                                                                                                                                                                                                000001
1028421002719COBR_CAUC_COR  SIPCAM ISAGRO BRASIL S/A                003716882000184CASA FERTIL LTDA                        AV PRESIDENTE VARGAS, 3.200 - B         RIO VERDE                               75905310GO260460000102694633DL00192401  31052010900BRADESCO S/A        3005201100000000018749975CC                                                                                                                                                                                                                                                                                                                                                                                           121241-1      000002
1028421002719COBR_CAUC_COR  SIPCAM ISAGRO BRASIL S/A                005933009000179AGRO MS COM. E REP. DE PROD. AGROP      AV WEIMAR GONCALVES TORRES,5150         DOURADOS                                79833021MS260470000102694366DC00381301  22122010900BRADESCO S/A        0905201100000000013500001CC                                                                                                                                                                                                                                                                                                                                                                                           121241-2      000003
1028421002719COBR_CAUC_COR  SIPCAM ISAGRO BRASIL S/A                007268430000138GIMISSON JOSE RIBEIRO E CIA LTDA        AV DOS CAFEICULTORES 120 B, 0           RIO PARANAIBA                           38810000MG260480000102694498DC00362801  30112010900BRADESCO S/A        2805201100000000021390192CC                                                                                                                                                                                                                                                                                                                                                                                           121241-3      000004
1021420930887COBR_CAUC_COR  DEDINI S/A INDUSTRIAS DE BASE           002896264000109CENTROALCOOL S A                        ROD INHUMAS A ANAPOLIS ZONA RURAL BR    INHUMAS                                 75400000GO260490000106106435130707-1-1  24012011600HSBC BANK BRASIL    3105201100000000016000000CC                                                                                                                                                                                                                                                                                                                                                                                           121241-4      000005
1014421016679COBR_CAUC_BIC  LUZBELLA PRODUTOS DE BELEZA LTDA        002782071000623MEGAFORT DIST IMP EXPORTACAO LTDA       AV WILSON TAVARES RIBEIRO 1651 G LUC 01 CONTAGEM                                32183680MG2605000001043599280001250     26012011019BELO HORIZONTE      1403201100000000017195592CC                                                                                                                                                                                                                                                                                                                                                                                           121241-5      000006
1037421007442COBR_CAUC_BIC  SILFLEX I. C. PROD. PLAST LTDA          010315670000150KOKUS COM E DIST DE AUT E PECAS LT      AV JOAO PAULO I ,1616                   SAO PAULO                               02842280SP2607500001044465212793C       20012011007PAULISTA            1903201100000000000969462CC                                                                                                                                                                                                                                                                                                                                                                                           121241-6      000007
1037421007442COBR_CAUC_BIC  SILFLEX I. C. PROD. PLAST LTDA          010315670000150KOKUS COM E DIST DE AUT E PECAS LT      AV JOAO PAULO I ,1616                   SAO PAULO                               02842280SP2607500002044465392793B       20012011007PAULISTA            0303201100000000000969462CC                                                                                                                                                                                                                                                                                                                                                                                           121241-7      000008
1037421007442COBR_CAUC_BIC  SILFLEX I. C. PROD. PLAST LTDA          010315670000150KOKUS COM E DIST DE AUT E PECAS LT      AV JOAO PAULO I ,1616                   SAO PAULO                               02842280SP2607500003044465472793A       20012011007PAULISTA            2402201100000000000969462CC                                                                                                                                                                                                                                                                                                                                                                                           121241-8      000009
1037421007442COBR_CAUC_BIC  SILFLEX I. C. PROD. PLAST LTDA          010315670000150KOKUS COM E DIST DE AUT E PECAS LT      AV JOAO PAULO I ,1616                   SAO PAULO                               02842280SP2607500004044466012793E       20012011007PAULISTA            2904201100000000000969462CC                                                                                                                                                                                                                                                                                                                                                                                           121241-9      000010
1037421007442COBR_CAUC_BIC  SILFLEX I. C. PROD. PLAST LTDA          010315670000150KOKUS COM E DIST DE AUT E PECAS LT      AV JOAO PAULO I ,1616                   SAO PAULO                               02842280SP2607500005044466102793D       20012011007PAULISTA            1404201100000000000969462CC                                                                                                                                                                                                                                                                                                                                                                                           121241-10     000011
1037421007442COBR_CAUC_BIC  SILFLEX I. C. PROD. PLAST LTDA          010340193000183M.R.D TRANSP E COM LTDA                 AV ELISIO TEIXEIRA LEITE,2229           SAO PAULO                               02801000SP2607600001044465552794D       20012011007PAULISTA            2904201100000000001496524CC                                                                                                                                                                                                                                                                                                                                                                                           121241-11     000012
1037421007442COBR_CAUC_BIC  SILFLEX I. C. PROD. PLAST LTDA          010340193000183M.R.D TRANSP E COM LTDA                 AV ELISIO TEIXEIRA LEITE,2229           SAO PAULO                               02801000SP2607600002044465632794E       20012011007PAULISTA            1905201100000000001496524CC                                                                                                                                                                                                                                                                                                                                                                                           121241-12     000013
1037421007442COBR_CAUC_BIC  SILFLEX I. C. PROD. PLAST LTDA          010340193000183M.R.D TRANSP E COM LTDA                 AV ELISIO TEIXEIRA LEITE,2229           SAO PAULO                               02801000SP2607600003044465712794C       20012011007PAULISTA            0904201100000000001496524CC                                                                                                                                                                                                                                                                                                                                                                                           121241-13     000014
1037421007442COBR_CAUC_BIC  SILFLEX I. C. PROD. PLAST LTDA          010340193000183M.R.D TRANSP E COM LTDA                 AV ELISIO TEIXEIRA LEITE,2229           SAO PAULO                               02801000SP2607600004044465802794B       20012011007PAULISTA            2003201100000000001496524CC                                                                                                                                                                                                                                                                                                                                                                                           121241-14     000015
1037421007442COBR_CAUC_BIC  SILFLEX I. C. PROD. PLAST LTDA          010340193000183M.R.D TRANSP E COM LTDA                 AV ELISIO TEIXEIRA LEITE,2229           SAO PAULO                               02801000SP2607600005044465982794A       20012011007PAULISTA            2802201100000000001496524CC                                                                                                                                                                                                                                                                                                                                                                                           121241-15     000016
1037421007442COBR_CAUC_BIC  SILFLEX I. C. PROD. PLAST LTDA          010407046000183FERMAQ COM AVALIACOES NEGOCIOS LTD      R PARANA,130                            SAO PAULO                               03041010SP2607700001044464662771A       19012011007PAULISTA            1502201100000000001485375CC                                                                                                                                                                                                                                                                                                                                                                                           121241-16     000017
1037421007442COBR_CAUC_BIC  SILFLEX I. C. PROD. PLAST LTDA          010407046000183FERMAQ COM AVALIACOES NEGOCIOS LTD      R PARANA,130                            SAO PAULO                               03041010SP2607700002044464742771B       19012011007PAULISTA            2202201100000000001485375CC                                                                                                                                                                                                                                                                                                                                                                                           121241-17     000018
1037421007442COBR_CAUC_BIC  SILFLEX I. C. PROD. PLAST LTDA          010407046000183FERMAQ COM AVALIACOES NEGOCIOS LTD      R PARANA,130                            SAO PAULO                               03041010SP2607700003044464822771C       19012011007PAULISTA            0103201100000000001485375CC                                                                                                                                                                                                                                                                                                                                                                                           121241-18     000019
1037421007442COBR_CAUC_BIC  SILFLEX I. C. PROD. PLAST LTDA          010407046000183FERMAQ COM AVALIACOES NEGOCIOS LTD      R PARANA,130                            SAO PAULO                               03041010SP2607700004044464912771D       19012011007PAULISTA            0803201100000000001485375CC                                                                                                                                                                                                                                                                                                                                                                                           121241-19     000020
1037421007442COBR_CAUC_BIC  SILFLEX I. C. PROD. PLAST LTDA          010407046000183FERMAQ COM AVALIACOES NEGOCIOS LTD      R PARANA,130                            SAO PAULO                               03041010SP2607700005044465042771E       19012011007PAULISTA            1503201100000000001485375CC                                                                                                                                                                                                                                                                                                                                                                                           121241-20     000021
1037421007442COBR_CAUC_BIC  SILFLEX I. C. PROD. PLAST LTDA          010407046000183FERMAQ COM AVALIACOES NEGOCIOS LTD      R PARANA,130                            SAO PAULO                               03041010SP2607700006044465122771F       19012011007PAULISTA            1903201100000000001485375CC                                                                                                                                                                                                                                                                                                                                                                                           121241-21     000022
1028421002921COBR_CAUC_COR  FRIGORIFICO MATABOI S/A                 000281228000440N&N COMERCIO DE ALIMENTOS LTDA          ROD REGIS BITTENCOURTKM 294 SALA 0      ITAPECERICA DA                          06850700SP2607800001002474270014264601  27012011900BRADESCO S/A        2602201100000000019030342CC                                                                                                                                                                                                                                                                                                                                                                                           121244-1      000023
1021420930887COBR_CAUC_COR  DEDINI S/A INDUSTRIAS DE BASE           051096477000153PIONEIROS BIOENERGIA S A                FAZ SANTA MARIA DA MATA ZONA RURAL BR   SUD MENUCCI                             15360000SP260790000106106800133209-5-5  27012011600HSBC BANK BRASIL    1305201100000000012107808CC                                                                                                                                                                                                                                                                                                                                                                                           121244-2      000024
1006441000781COBR_CAUC_BIC  IMARF GRANITOS S/A                      009015646000117SCIALPHA PARTICIPACOES LTDA             ALAMEDA RIO NE,111-ALPAHAVILLE IND      BARUERI                                 06454000SP260800000108318189408-1/1     07012011007PAULISTA            1002201100000000015106000CC                                                                                                                                                                                                                                                                                                                                                                                           121244-3      000025
1007421035264COBR_CAUC_COR  ALLIED ADVANCED TECHNOLOGIES LTDA       009268517014786F S VASCONCELOS E CIA LTDA              ROD BR 230 - KM 12                      CABEDELO                                58310000PB260810000100361711000038271A  26012011900BRADESCO S/A        2703201100000000017395224CC                                                                                                                                                                                                                                                                                                                                                                                           121244-4      000026
1029421007441COBR_CAUC_BIC  CTS EXPORTADORA DE FUMOS LTDA           009136885000125UNICRUZ TABACOS LTDA                    RUA ERNESTO WILD,2300                   VERA CRUZ                               96880000RS2608200001093874889087-1      15012011015PORTO ALEGRE        2705201100000000017000000CC                                                                                                                                                                                                                                                                                                                                                                                           121244-5      000027
1044421009510DIR_CREDIT     TRATORLINK COM. E SERV. LTDA.           024370371000123INSTITUTO FEDERAL DE EDUC. CIENCIA -IFRNAV SENADOR SALGADO FILHO,TIROL          NATAL                                   59000000RN2611300001                                                                                                                                          481014944           270820090000010331135/2009-CON28012011000404execução dos serviços no campus de joao camara ,contante dolote 03, conforme edital de concorrencia 04/2008.                                                                                                                                    004519135000119121244-6      000028
9000027                                                                                                                                                                                                                                                                                                                                                                                                                                                                                                                                                                                                                                                                                                               000029
