0REMESSANOTIFICAÇÃO ELETRONICA        99999999999999Bicbanco S/A                            Avenida Brigadeiro Faria Lima           4.440     2º andar  Itaim Bibi                    São Paulo                     04538132SPBicbanco S/A                                                                    25032013                                                                                                                                                                                                                                                                                                                                                                                                000001
1031421007850COBR_CAUC_BIC  AGRICOLA JANDELLE S/A                   010319375000172MULTI FORMATO DISTRIBUIDORA SOCIED      AVENIDA MANOEL JACINTO COELHO JUNIOR 901CONTAGEM                                32150245MG4068500001051857320011140701  01032013019BELO HORIZONTE      1004201300000000017029537CC                                                                                                                                                                                                                                                                                                                                                                                           227772-1      000002
1021420930887COBR_CAUC_BIC  DEDINI S/A INDUSTRIAS DE BASE           075717355001177USINA DE ACUCAR SANTA TEREZINHA LT      AV MARCELO MESSIAS BUSIQUIA 847 PQ INDUSMARINGA                                 87065006PR406830000106382297188771-8-8  25022013016CURITIBA            3003201300000000015758942CC                                                                                                                                                                                                                                                                                                                                                                                           227772-2      000003
1021420930887COBR_CAUC_BIC  DEDINI S/A INDUSTRIAS DE BASE           075717355001177USINA DE ACUCAR SANTA TEREZINHA LT      AV MARCELO MESSIAS BUSIQUIA 847 PQ INDUSMARINGA                                 87065006PR406830000206382335188352-8-8  25022013016CURITIBA            3003201300000000025367451CC                                                                                                                                                                                                                                                                                                                                                                                           227772-3      000004
1021420930887COBR_CAUC_BIC  DEDINI S/A INDUSTRIAS DE BASE           075717355001177USINA DE ACUCAR SANTA TEREZINHA LT      AV MARCELO MESSIAS BUSIQUIA 847 PQ INDUSMARINGA                                 87065006PR406830000306382378188612-8-8  25022013016CURITIBA            3003201300000000020565725CC                                                                                                                                                                                                                                                                                                                                                                                           227772-4      000005
1021420930887COBR_CAUC_BIC  DEDINI S/A INDUSTRIAS DE BASE           075717355001177USINA DE ACUCAR SANTA TEREZINHA LT      AV MARCELO MESSIAS BUSIQUIA 847 PQ INDUSMARINGA                                 87065006PR406830000406382416189295-8-8  25022013016CURITIBA            3003201300000000016193952CC                                                                                                                                                                                                                                                                                                                                                                                           227772-5      000006
1021420930887COBR_CAUC_BIC  DEDINI S/A INDUSTRIAS DE BASE           075717355001177USINA DE ACUCAR SANTA TEREZINHA LT      AV MARCELO MESSIAS BUSIQUIA 847 PQ INDUSMARINGA                                 87065006PR406830000506382424188231-8-8  25022013016CURITIBA            3003201300000000013653133CC                                                                                                                                                                                                                                                                                                                                                                                           227772-6      000007
1008421022487COBR_CAUC_COR  EBP - EMPRESA BRASILEIRA DE PESCADO     033304981000110SUPERMERCADOS MUNDIAL LTDA              RUADONA EMILIA, 2                       RIO DE JANEIRO                          20765110RJ406880000101578491000017435/  28022013900BRADESCO S/A        2003201300000000031850000CC                                                                                                                                                                                                                                                                                                                                                                                           227772-7      000008
1008421022487COBR_CAUC_COR  EBP - EMPRESA BRASILEIRA DE PESCADO     033304981000110SUPERMERCADOS MUNDIAL LTDA              RUADONA EMILIA, 2                       RIO DE JANEIRO                          20765110RJ406880000201578521000017447/  28022013900BRADESCO S/A        2903201300000000040435200CC                                                                                                                                                                                                                                                                                                                                                                                           227772-8      000009
1008421022487COBR_CAUC_COR  EBP - EMPRESA BRASILEIRA DE PESCADO     033381286000151SUPER MERCADO ZONA SUL S/A              RUA COMANDANTE VERGUEIRO DA CRUZ, 226   RIO DE JANEIRO                          21021020RJ406890000101578733000017449/  28022013900BRADESCO S/A        2903201300000000020150000CC                                                                                                                                                                                                                                                                                                                                                                                           227772-9      000010
1047421000232COBR_CAUC_BIC  JOFER EMBALAGENS LTDA.                  000190373000172IND. E COM. DE COSMETICOS NATURA L      RODOVIA ANHANGUERA,KM 30,5              CAJAMAR                                 07750000SP406800000101615421004049501   28022013007PAULISTA            2905201300000000011580408CC                                                                                                                                                                                                                                                                                                                                                                                           227772-10     000011
1028421002921COBR_CAUC_COR  MATABOI ALIMENTOS S/A - EM REC.JUD.     003481212000126FRIGORIFICO CAMBUI LTDA                 EST MUNICIPAL SNCX. POSTAL 59           CAMBUI                                  37600000MG4068100001002644370029874801  28022013900BRADESCO S/A        2103201300000000010328267CC                                                                                                                                                                                                                                                                                                                                                                                           227772-11     000012
1028421002921COBR_CAUC_COR  MATABOI ALIMENTOS S/A - EM REC.JUD.     004641376007300SUPERMERCADOS BH COMERCIO DE ALIME      AVGERALDO ROCHA700                      CONTAGEM                                32183054MG4068200001002685810029879601  28022013900BRADESCO S/A        2803201300000000012563547CC                                                                                                                                                                                                                                                                                                                                                                                           227772-12     000013
1028421002921COBR_CAUC_COR  MATABOI ALIMENTOS S/A - EM REC.JUD.     004641376007300SUPERMERCADOS BH COMERCIO DE ALIME      AVGERALDO ROCHA700                      CONTAGEM                                32183054MG4068200002002708010029900701  28022013900BRADESCO S/A        2803201300000000012442543CC                                                                                                                                                                                                                                                                                                                                                                                           227772-13     000014
1031421010312COBR_CAUC_BIC  PADO S/A - INDL.COML E IMPORTADORA      017359233000188TECIDOS E ARMARINHOS MIGUEL             VIA. MUN. MANOEL JACINTO COELHO S/N     CONTAGEM                                32060514MG4068400001051865420017684501  27022013019BELO HORIZONTE      0904201300000000016560601CC                                                                                                                                                                                                                                                                                                                                                                                           227772-14     000015
1019421014068COBR_CAUC_COR  RIO BRANCO ALIMENTOS S/A                001928075002062DMA DISTRIBUIDORA S/A                   ROD BR 040 KM 531 180                   BELO HORIZONTE                          30855500MG4068600001012279780161905401  01032013900BRADESCO S/A        3103201300000000010464993CC                                                                                                                                                                                                                                                                                                                                                                                           227772-15     000016
1007421034080COBR_CAUC_BIC  SIDMEX INTERNACIONAL LTDA               011898766000151INNOVATTO COMERCIO, IMPORTACAO E E      CASA, DOS,4285                          SAO BERNARDO DO                         09840000SP406870000101751971000194      28022013038ABC                 1303201300000000016788239CC                                                                                                                                                                                                                                                                                                                                                                                           227772-16     000017
1047421002243COBR_CAUC_BIC  ARGE LTDA                               010331096000124NORDESTE PARTICIPACOES S/A              R. ARQUIMEDES PEREIRA LIMA, 1000        CUIABµ                                  78060160MT4071300001016165160031598     27022013024CUIABA              0707201300000000010247200CC                                                                                                                                                                                                                                                                                                                                                                                           227775-1      000018
1050421000089COBR_CAUC_BIC  ATIVO ALIMENTOS EXP E IMP EIRELI        036525319000188SUPERMERCADOS FEIRA NOVA LTDA           AV MENDES DE OLIVEIRA 108               SAO JOAO DE MER                         25540000RJ407120000100432198180086/1    02032013014RIO DE JANEIRO      0104201300000000012145610CC                                                                                                                                                                                                                                                                                                                                                                                           227775-2      000019
1016421019267COBR_CAUC_BIC  COBRAZEM AGROINDUSTRIAL LTDA            084874726000658KAEFER AGRO INDUSTRIAL LTDA             ROD PR 467 KM 03 -N 0,0                 CASCAVEL                                85802970PR4071100001039253050009184-1   28022013016CURITIBA            0204201300000000027150000CC                                                                                                                                                                                                                                                                                                                                                                                           227775-3      000020
1016421019267COBR_CAUC_BIC  COBRAZEM AGROINDUSTRIAL LTDA            084874726000658KAEFER AGRO INDUSTRIAL LTDA             ROD PR 467 KM 03 -N 0,0                 CASCAVEL                                85802970PR4071100002039253210040956-1   19022013016CURITIBA            2003201300000000010750000CC                                                                                                                                                                                                                                                                                                                                                                                           227775-4      000021
1016421019267COBR_CAUC_BIC  COBRAZEM AGROINDUSTRIAL LTDA            084874726000658KAEFER AGRO INDUSTRIAL LTDA             ROD PR 467 KM 03 -N 0,0                 CASCAVEL                                85802970PR4071100003039253300040956-2   19022013016CURITIBA            2103201300000000010750000CC                                                                                                                                                                                                                                                                                                                                                                                           227775-5      000022
1016421019267COBR_CAUC_BIC  COBRAZEM AGROINDUSTRIAL LTDA            084874726000658KAEFER AGRO INDUSTRIAL LTDA             ROD PR 467 KM 03 -N 0,0                 CASCAVEL                                85802970PR4071100004039253480041115-1   21022013016CURITIBA            2603201300000000021750000CC                                                                                                                                                                                                                                                                                                                                                                                           227775-6      000023
1016421019267COBR_CAUC_BIC  COBRAZEM AGROINDUSTRIAL LTDA            084874726000658KAEFER AGRO INDUSTRIAL LTDA             ROD PR 467 KM 03 -N 0,0                 CASCAVEL                                85802970PR4071100005039253560041272-1   25022013016CURITIBA            2703201300000000012975000CC                                                                                                                                                                                                                                                                                                                                                                                           227775-7      000024
1016421019267COBR_CAUC_BIC  COBRAZEM AGROINDUSTRIAL LTDA            084874726000658KAEFER AGRO INDUSTRIAL LTDA             ROD PR 467 KM 03 -N 0,0                 CASCAVEL                                85802970PR4071100006039253640041273-1   25022013016CURITIBA            2703201300000000012975000CC                                                                                                                                                                                                                                                                                                                                                                                           227775-8      000025
1032420934675COBR_CAUC_BIC  ELIANE S/A REVESTIMENTOS CERAMICOS      012687734000170GP4 EMPREENDIMENTOS IMOBILIARIOS L      ST SHCN CL QD 106 BLOCO A LO, 24 PARTE 0BRASILIA                                70742510DF407100000101463404NDP004173A  04032013009BRASILIA            2003201300000000010000482CC                                                                                                                                                                                                                                                                                                                                                                                           227775-9      000026
1019421004658COBR_CAUC_COR  S/A ESTADO DE MINAS                     004164616000159TNL PCS S A                             JANGADEIROS 48 7 ANDAR                  RIO DE JANEIRO                          20090010RJ4070900001012159451655154-1   28022013900BRADESCO S/A        1504201300000000013200000CC                                                                                                                                                                                                                                                                                                                                                                                           227775-10     000027
1037421008490COBR_CAUC_BIC  EDITORA ESCALA LTDA                     001183613000174EDIOURO PUBLICACOES DE PASST.E MUL      RUA NOVA JERUSALEM ,,345                RIO DE JANEIRO                          21042235RJ407460000104587221007136/1    18012013014RIO DE JANEIRO      2003201300000000010000000CC                                                                                                                                                                                                                                                                                                                                                                                           227777-1      000028
1037421008490COBR_CAUC_BIC  EDITORA ESCALA LTDA                     056529217000148COMERCIO DE APARAS PRIMOS DE RIO C      RODOVIA WASHINGTON LUIZ ,191-KM 63      RIO DE CLARO                            13500970SP407470000104587205005333/2    18012013021CAMPINAS            2803201300000000005000000CC                                                                                                                                                                                                                                                                                                                                                                                           227777-2      000029
1037421008490COBR_CAUC_BIC  EDITORA ESCALA LTDA                     056529217000148COMERCIO DE APARAS PRIMOS DE RIO C      RODOVIA WASHINGTON LUIZ ,191-KM 63      RIO DE CLARO                            13500970SP407470000204587337005333/3    18012013021CAMPINAS            2804201300000000005000000CC                                                                                                                                                                                                                                                                                                                                                                                           227777-3      000030
1047421000771COBR_CAUC_BIC  INDUSTRIAS REUNIDAS COLOMBO LTDA        045236791000868COOPERCITRUS COOPERATIVA DE PRODUT      PRACA BARAO DO RIO BRANCO 9             BEBEDOURO                               14700129SP407280000101617016002545401   04032013022RIBEIRAO PRETO      0304201300000000013690000CC                                                                                                                                                                                                                                                                                                                                                                                           227777-4      000031
1047421000771COBR_CAUC_BIC  INDUSTRIAS REUNIDAS COLOMBO LTDA        045236791000868COOPERCITRUS COOPERATIVA DE PRODUT      PRACA BARAO DO RIO BRANCO 9             BEBEDOURO                               14700129SP407280000201617008002541801   01032013900RIBEIRAO PRETO      2103201300000000013690000CC                                                                                                                                                                                                                                                                                                                                                                                           227777-5      000032
1050421001786COBR_CAUC_COR  SINETEL ENGENHARIA E COMERCIO LTDA      011344100000151LONDRES INCORPORADORA LTDA              JOAO BALBI, SALA 106,167                BELEM                                   66055280PA4072900001000086552551        05032013900BRADESCO S/A        2503201300000000011773350CC                                                                                                                                                                                                                                                                                                                                                                                           227777-6      000033
9000032                                                                                                                                                                                                                                                                                                                                                                                                                                                                                                                                                                                                                                                                                                               000034
