0REMESSANOTIFICAÇÃO ELETRONICA        99999999999999Bicbanco S/A                            Avenida Paulista , 1048 12º andar                           BELA VISTA                    SÃO PAULO                     01310100SPBicbanco S/A                                                                    27042010                                                                                                                                                                                                                                                                                                                                                                                                000001
1018421016232COBR_CAUC_COR  LEITBOM S/A                             004180523000118CARVALHO ATACADO DE ALIM LTDA           AV DEP PAULO FERRAZ 4888                TERESINA                                64078820PI2178300001010395080019056001  22042010900BRADESCO S/A        0606201000000000034200000CC                                                                                                                                                                                                                                                                                                                                                                                           95717-1       000002
1038421000829COBR_CAUC_BIC  ATHENEE COMERCIO IMP E EXP LTDA         001545826000107GAFISA S/A                              AV DAS NACOES UNIDAS,8501-19 ANDAR      SAO PAULO                               05425070SP217840000100014238103845      22042010007PAULISTA            0506201000000000015600000CC                                                                                                                                                                                                                                                                                                                                                                                           95717-2       000003
1037420933912COBR_CAUC_BIC  COPPER 100 IND. COM. LTDA               089463822000627LUPATECH S/A                            R.DALTON LAHM DOS REIS 201- CX.P 1215   CAXIAS DO SUL                           95112090RS2178500001043761743687/1      23042010029CAXIAS DO SUL       0706201000000000014493500CC                                                                                                                                                                                                                                                                                                                                                                                           95946-1       000004
1007421031242COBR_CAUC_COR  GP GUARDA PATRIMONIAL DE S.P. LTDA      010739781000194COND. SHOPPING CIDADE JARDIM            RUA AMAURI, 255                         SAO PAULO                               01448000SP21786000010002020553023/1     20042010900BRADESCO S/A        0705201000000000013974537CC                                                                                                                                                                                                                                                                                                                                                                                           95946-2       000005
1022421002370COBR_CAUC_COR  FRIGOESTRELA S.A.                       000281228000440N & N COMERCIO DE ALIMENTOS LTDA        ROD. REGIS BITTENCOURTS/NKM 294 SA      ITAPECERICA DA                          06882700SP2178700001023748450031889001  22042010900BRADESCO S/A        2405201000000000012167646CC                                                                                                                                                                                                                                                                                                                                                                                           95946-3       000006
1016141008940COBR_CAUC_COR  COOPERATIVA RIO DO PEIXE                083310441000117AURORA S/A                              RUA JOAO MARTINS,219                    CHAPECO                                 89803901SC217880000102741782519438      13042010900BRADESCO S/A        1005201000000000022298109TD                                                                                                                                                                                                                                                                                                                                                                                           95946-4       000007
1016141008940COBR_CAUC_COR  COOPERATIVA RIO DO PEIXE                083310441000117AURORA S/A                              RUA JOAO MARTINS,219                    CHAPECO                                 89803901SC217880000202741791519436      13042010900BRADESCO S/A        1105201000000000019718209TD                                                                                                                                                                                                                                                                                                                                                                                           95946-5       000008
1016141008940COBR_CAUC_COR  COOPERATIVA RIO DO PEIXE                083310441000117AURORA S/A                              RUA JOAO MARTINS,219                    CHAPECO                                 89803901SC217880000302741871519434      13042010900BRADESCO S/A        1405201000000000011263523TD                                                                                                                                                                                                                                                                                                                                                                                           95946-6       000009
1016141008940COBR_CAUC_COR  COOPERATIVA RIO DO PEIXE                083310441000117AURORA S/A                              RUA JOAO MARTINS,219                    CHAPECO                                 89803901SC217880000402741880519439      13042010900BRADESCO S/A        1405201000000000011507443TD                                                                                                                                                                                                                                                                                                                                                                                           95946-7       000010
1016141008940COBR_CAUC_COR  COOPERATIVA RIO DO PEIXE                083310441000117AURORA S/A                              RUA JOAO MARTINS,219                    CHAPECO                                 89803901SC217880000502741901519290      12042010900BRADESCO S/A        1705201000000000019871280TD                                                                                                                                                                                                                                                                                                                                                                                           95946-8       000011
1007421016006COBR_CAUC_BIC  ONCOMED FARMACEUTICA LTDA               060552098000111SOC. BRAS.JAP.BEN.STA CRUZ-HOSP.ST      R. SANTA CRUZ, 398 IS ENT 0             SAO PAULO                               04122000SP2178900001098196562099721     22042010007PAULISTA            2106201000000000013100208CC                                                                                                                                                                                                                                                                                                                                                                                           95946-9       000012
9000011                                                                                                                                                                                                                                                                                                                                                                                                                                                                                                                                                                                                                                                                                                               000013
