0REMESSANOTIFICAÇÃO ELETRONICA        99999999999999Bicbanco S/A                            Avenida Paulista                        1048      12º andar BELA VISTA                    SÃO PAULO                     01310100SPBicbanco S/A                                                                    09092011                                                                                                                                                                                                                                                                                                                                                                                                000001
1044421009073DIR_CREDIT     ESTRUTURAL EDIFICACOES E PROJETOS L     008274821000128SECRETARIA DE ESTADO DO DESENV. ECONOMICRUA LUCIA VIVEIROS,S/N                  NATAL                                   59000000RN2996400001                                                                                                                                          481016912           300920100000018961080/2010    29082011000404construção do centro vocacional tecnológico têxtil do seridó em caicó/rn.                                                                                                                                                                       004201519000199143952-1      000002
1015421010253COBR_CAUC_BIC  MUNDIAL S/A PRODUTOS DE CONSUMO         050306471000796ETILUX INDUSTRIA E COMERCIO LTDA        RUA AMADEU POLI 940                     SAO PAULO                               02188020SP3001600001008888565100315101  05092011007PAULISTA            3112201100000000010362404CC                                                                                                                                                                                                                                                                                                                                                                                           143952-2      000003
1014421017616COBR_CAUC_BIC  GPC QUIMICA S/A                         043588060000180VERQUIMICA IND E COM DE PROD Q          AV.MARTINS JUNIOR,2000                  GUARULHOS                               07142000SP3001700001044759280011514     05092011037GUARULHOS           1909201100000000025887000CC                                                                                                                                                                                                                                                                                                                                                                                           143952-3      000004
1006441000781COBR_CAUC_BIC  IMARF GRANITOS S/A                      007669400000133SP AZIONE GESTAO E PARTICIPACOES L      AV. CRISTIANO MACHADO ,11957            BELO HORIZONTE                          31765000MG3001800001086759761003-1/1    30082011019BELO HORIZONTE      2909201100000000015687100CC                                                                                                                                                                                                                                                                                                                                                                                           143952-4      000005
1022421006073COBR_CAUC_BIC  BAMBOZZI SOLDAS LTDA                    076639285000177FERRAGENS NEGRAO COMERCIAL LTDA         RUA PROF ALGACYR M MADER ,2800          CURITIBA                                81310020PR30019000010426629226372/A     06092011016CURITIBA            0412201100000000011300000CC                                                                                                                                                                                                                                                                                                                                                                                           143952-5      000006
1019421010259COBR_CAUC_BIC  L&S FOMENTO MERCANTIL                   000921821000160SER SISTEMAENERGETICOS RENOVAVEI        AV N S DO CARMO 1650 LJ 46              BELO HORIZONTE                          30330000MG3002000001061061170082        05092011019BELO HORIZONTE      2010201100000000025000000CC                                                                                                                                                                                                                                                                                                                                                                                           143952-6      000007
1007421050689COBR_CAUC_BIC  CRIA SIM PRODUTOS DE HIGIENE LTDA       002505657000136DISJOI S/A DISTR. E LOGIST.             AV CRUZEIRO, 750                        CACHOEIRINHA                            94930615RS30021000010077604170254       31082011015PORTO ALEGRE        2809201100000000011015694CC                                                                                                                                                                                                                                                                                                                                                                                           143952-7      000008
9000007                                                                                                                                                                                                                                                                                                                                                                                                                                                                                                                                                                                                                                                                                                               000009
