0REMESSANOTIFICAÇÃO ELETRONICA        99999999999999Bicbanco S/A                            Avenida Brigadeiro Faria Lima           4.440     2º andar  Itaim Bibi                    São Paulo                     04538132SPBicbanco S/A                                                                    02062014                                                                                                                                                                                                                                                                                                                                                                                                000001
1015421022340COBR_CAUC_BIC  BORRACHAS VIPAL SA                      008832031000110VEYANCE TECHNOLOGIES BR.PRODS.ENG.      RUA MORAES MIGUEL, 180                  SAO PAULO                               03021200SP477220000101293953049200101   26052014007PAULISTA            0107201400000000018865594CC                                                                                                                                                                                                                                                                                                                                                                                           303248-1      000002
1015421022340COBR_CAUC_COR  BORRACHAS VIPAL SA                      012931405000122INDUSTRIA DE PNEUS FREEDOM LTDA         AVENIDA AEROCLUBE, 1643                 CAMPINA GRANDE                          58411370PB477230000101293503049185601   26052014600HSBC BANK BRASIL    2006201400000000015100914CC                                                                                                                                                                                                                                                                                                                                                                                           303248-2      000003
1016421009571COBR_CAUC_BIC  IMPORTADORA DE FRUTAS LA VIOLETERA      010912900000240RIO VERMELHO DISTRIBUICAO DE ALIME      ROD BR 153 KM 52 S/N QUADRA 0 LOTE 16   ANAPOLIS                                75045190GO4772400001045140660029886801  27052014018GOIANIA             0807201400000000013499425CC                                                                                                                                                                                                                                                                                                                                                                                           303248-3      000004
1006441000781COBR_CAUC_COR  IMARF BENEFICIAMENTO DE GRANITOS LT     001945808000104ADMINISTRADORA CARIOCA DE SHOPPING      BC. ARMANDO, DO,909                     RIO DE JANEIRO                          21210000RJ4772500001099004343864        28052014600HSBC BANK BRASIL    2506201400000000010369517CC                                                                                                                                                                                                                                                                                                                                                                                           303248-4      000005
1016421009571COBR_CAUC_BIC  IMPORTADORA DE FRUTAS LA VIOLETERA      004641376003828SUPERMERCADOS BH COMERCIO DE ALIME      AVENIDA GERALDO ROCHA 200               CONTAGEM                                32183054MG4773600001045168670029880501  27052014019BELO HORIZONTE      0807201400000000018865892CC                                                                                                                                                                                                                                                                                                                                                                                           303529-1      000006
1048421000338COBR_CAUC_COR  FRIGOESTRELA S.A. EM RECUP JUDICIAL     023439441001323ARMAZEM MATEUS S.A.                     AV ENGENHEIRO EMILIANO MACIEIRA DE      SAO LUIS                                65095602MA4773700001081830730112359601  28052014900BRADESCO S/A        2706201400000000012582166CC                                                                                                                                                                                                                                                                                                                                                                                           303529-2      000007
1048421000338COBR_CAUC_COR  FRIGOESTRELA S.A. EM RECUP JUDICIAL     023439441001323ARMAZEM MATEUS S.A.                     AV ENGENHEIRO EMILIANO MACIEIRA DE      SAO LUIS                                65095602MA4773700002081839870112371401  28052014900BRADESCO S/A        2706201400000000011827500CC                                                                                                                                                                                                                                                                                                                                                                                           303529-3      000008
1021421017050COBR_CAUC_BIC  STAR DISTR PROD FARMACEUTICOS LTDA      061549259000180DROGARIA ONOFRE LTDA                    PRACA DA SE , 170                       SAO PAULO                               01001000SP4773800001000014960000329201  26052014007PAULISTA            0207201400000000011550585CC                                                                                                                                                                                                                                                                                                                                                                                           303529-4      000009
1021421017050COBR_CAUC_BIC  STAR DISTR PROD FARMACEUTICOS LTDA      061585865000151RAIA DROGASIL S/A                       AVENIDA CORIFEU DE AZEVEDO MARQUES, 3097SAO PAULO                               05339000SP4773900001000015260000329801  27052014007PAULISTA            1006201400000000014392124CC                                                                                                                                                                                                                                                                                                                                                                                           303529-5      000010
1021421017050COBR_CAUC_BIC  STAR DISTR PROD FARMACEUTICOS LTDA      061585865000151RAIA DROGASIL S/A                       AVENIDA CORIFEU DE AZEVEDO MARQUES, 3097SAO PAULO                               05339000SP4773900002000015340000330101  28052014007PAULISTA            1207201400000000016498822CC                                                                                                                                                                                                                                                                                                                                                                                           303529-6      000011
1021421017050COBR_CAUC_BIC  STAR DISTR PROD FARMACEUTICOS LTDA      061585865000151RAIA DROGASIL S/A                       AVENIDA CORIFEU DE AZEVEDO MARQUES, 3097SAO PAULO                               05339000SP4773900003000016310000331001  28052014007PAULISTA            1207201400000000010983243CC                                                                                                                                                                                                                                                                                                                                                                                           303529-7      000012
1021421017050COBR_CAUC_BIC  STAR DISTR PROD FARMACEUTICOS LTDA      061585865000151RAIA DROGASIL S/A                       AVENIDA CORIFEU DE AZEVEDO MARQUES, 3097SAO PAULO                               05339000SP4773900004000016400000331201  28052014007PAULISTA            1207201400000000012894592CC                                                                                                                                                                                                                                                                                                                                                                                           303529-8      000013
1021421017050COBR_CAUC_BIC  STAR DISTR PROD FARMACEUTICOS LTDA      061585865000151RAIA DROGASIL S/A                       AVENIDA CORIFEU DE AZEVEDO MARQUES, 3097SAO PAULO                               05339000SP4773900005000015000000329901  27052014022PAULISTA            1006201400000000010756583CC                                                                                                                                                                                                                                                                                                                                                                                           303529-9      000014
1018421005230COBR_CAUC_COR  CENTROALCOOL S/A                        004930779000103SR DISTRIBUIDORA DE PETROLEO LTDA       AV PROGURESSO SN QD 1 LT 3 SALA 2       SENADOR CANEDO                          75250000GO47756000010353581252410/AB    11122013800UNIBANCO S/A        2106201400000000015000000CC                                                                                                                                                                                                                                                                                                                                                                                           303529-10     000015
1018421005230COBR_CAUC_COR  CENTROALCOOL S/A                        004930779000103SR DISTRIBUIDORA DE PETROLEO LTDA       AV PROGURESSO SN QD 1 LT 3 SALA 2       SENADOR CANEDO                          75250000GO47756000020353582152410/AC    11122013800UNIBANCO S/A        2107201400000000015000000CC                                                                                                                                                                                                                                                                                                                                                                                           303529-11     000016
1018421005230COBR_CAUC_COR  CENTROALCOOL S/A                        004930779000103SR DISTRIBUIDORA DE PETROLEO LTDA       AV PROGURESSO SN QD 1 LT 3 SALA 2       SENADOR CANEDO                          75250000GO47756000030353583952410/AD    11122013800UNIBANCO S/A        2108201400000000015000000CC                                                                                                                                                                                                                                                                                                                                                                                           303529-12     000017
1018421005230COBR_CAUC_COR  CENTROALCOOL S/A                        004930779000103SR DISTRIBUIDORA DE PETROLEO LTDA       AV PROGURESSO SN QD 1 LT 3 SALA 2       SENADOR CANEDO                          75250000GO47756000040353584752410/AE    11122013800UNIBANCO S/A        2109201400000000015000000CC                                                                                                                                                                                                                                                                                                                                                                                           303529-13     000018
1046421008936COBR_CAUC_COR  MG ELETRO COM IMP E EXP LTDA            000325400000177CEQUIPEL INDUSTRIADEMOVEIS E C          AVENIDA RUI BARBOSA 2980,2980           SAO JOSE DOS PI                         83055320PR477570000100006410NF 13742/1  22052014900BRADESCO S/A        2107201400000000002500042CC                                                                                                                                                                                                                                                                                                                                                                                           303529-14     000019
1046421008936COBR_CAUC_COR  MG ELETRO COM IMP E EXP LTDA            000325400000177CEQUIPEL INDUSTRIADEMOVEIS E C          AVENIDA RUI BARBOSA 2980,2980           SAO JOSE DOS PI                         83055320PR477570000200006428NF 13742/2  22052014900BRADESCO S/A        2008201400000000002500040CC                                                                                                                                                                                                                                                                                                                                                                                           303529-15     000020
1046421008936COBR_CAUC_COR  MG ELETRO COM IMP E EXP LTDA            000325400000177CEQUIPEL INDUSTRIADEMOVEIS E C          AVENIDA RUI BARBOSA 2980,2980           SAO JOSE DOS PI                         83055320PR477570000300006436NF 13742/3  22052014900BRADESCO S/A        1909201400000000002500040CC                                                                                                                                                                                                                                                                                                                                                                                           303529-16     000021
1046421008936COBR_CAUC_COR  MG ELETRO COM IMP E EXP LTDA            000325400000177CEQUIPEL INDUSTRIADEMOVEIS E C          AVENIDA RUI BARBOSA 2980,2980           SAO JOSE DOS PI                         83055320PR477570000400006380NF 13743/1  22052014900BRADESCO S/A        2107201400000000002334500CC                                                                                                                                                                                                                                                                                                                                                                                           303529-17     000022
1046421008936COBR_CAUC_COR  MG ELETRO COM IMP E EXP LTDA            000325400000177CEQUIPEL INDUSTRIADEMOVEIS E C          AVENIDA RUI BARBOSA 2980,2980           SAO JOSE DOS PI                         83055320PR477570000500006398NF 13743/2  22052014900BRADESCO S/A        2008201400000000002334500CC                                                                                                                                                                                                                                                                                                                                                                                           303529-18     000023
1046421008936COBR_CAUC_COR  MG ELETRO COM IMP E EXP LTDA            000325400000177CEQUIPEL INDUSTRIADEMOVEIS E C          AVENIDA RUI BARBOSA 2980,2980           SAO JOSE DOS PI                         83055320PR477570000600006401NF 13743/3  22052014900BRADESCO S/A        1909201400000000002334500CC                                                                                                                                                                                                                                                                                                                                                                                           303529-19     000024
9000023                                                                                                                                                                                                                                                                                                                                                                                                                                                                                                                                                                                                                                                                                                               000025
