0REMESSANOTIFICAÇÃO ELETRONICA        99999999999999Bicbanco S/A                            Avenida Paulista                        1048      12º andar BELA VISTA                    SÃO PAULO                     01310100SPBicbanco S/A                                                                    16122011                                                                                                                                                                                                                                                                                                                                                                                                000001
1021420930887COBR_CAUC_COR  DEDINI S/A INDUSTRIAS DE BASE           051990778000126ACUCAR E ALCOOL OSWALDO R MENDONCA      RUA FAZ S JOSE DA GLORIA RURAL BR       GUAIRA                                  14790000SP325310000106261961161953-7-7  01122011900BRADESCO S/A        3004201200000000012032491CC                                                                                                                                                                                                                                                                                                                                                                                           155833-1      000002
1007420931444COBR_CAUC_BIC  PLASINCO LTDA                           047090782000160DANEVA MAQ. E COND. EL. LTDA.           RUA VOTUPORANGA,415                     POA                                     08558050SP32532000010097426817018       12122011007PAULISTA            0201201200000000018967055CC                                                                                                                                                                                                                                                                                                                                                                                           155833-2      000003
1007420931444COBR_CAUC_BIC  PLASINCO LTDA                           061413282000143LORENZETTI S/A INDUSTRIA BRASILEIR      AV. PRESIDENTE WILSON,1230              SAO PAULO                               03107901SP32533000010097427617024       12122011007PAULISTA            0901201200000000016879500CC                                                                                                                                                                                                                                                                                                                                                                                           155833-3      000004
1024420934410COBR_CAUC_BIC  INTERCOOP INT SUIN MED NORTE MT LTD     004613751000487CRISTALFRIGO IND COM IMPORTACAO EX      AV DOS ANDRADAS ,2229-STA EFIGENIA      BELO HORIZONTE                          30120010MG32534000010194723570326       03122011019BELO HORIZONTE      0501201200000000011815801CC                                                                                                                                                                                                                                                                                                                                                                                           155833-4      000005
9000004                                                                                                                                                                                                                                                                                                                                                                                                                                                                                                                                                                                                                                                                                                               000006
