0REMESSANOTIFICAÇÃO ELETRONICA        99999999999999Bicbanco S/A                            Avenida Brigadeiro Faria Lima           4.440     2º andar  Itaim Bibi                    São Paulo                     04538132SPBicbanco S/A                                                                    02072014                                                                                                                                                                                                                                                                                                                                                                                                000001
1019421004658COBR_CAUC_COR  S/A ESTADO DE MINAS                     033657248000189BNDES-BANCO NAC DESENV ECON SOCIAL      REPUBLICA DO CHILE 100                  RIO DE JANEIRO                          20031917RJ4831100001012977712397365-1   27062014900BRADESCO S/A        1507201400000000010237306CC                                                                                                                                                                                                                                                                                                                                                                                           308514-1      000002
1031421012447COBR_CAUC_COR  AGRICOLA JANDELLE S/A                   001693848000297VERDINI MEIRELES REPRESENTACOES LT      AVENIDA BRASIL 12980 RUA DO FEIJAO 530  RIO DE JANEIRO                          21012350RJ4831200001060040570024886901  27062014900BRADESCO S/A        2507201400000000017186400CC                                                                                                                                                                                                                                                                                                                                                                                           308514-2      000003
1048421000338COBR_CAUC_COR  FRIGOESTRELA S.A. EM RECUP JUDICIAL     023439441001323ARMAZEM MATEUS S.A.                     AV ENGENHEIRO EMILIANO MACIEIRA DE      SAO LUIS                                65095602MA4831300001083373050113702601  28062014900BRADESCO S/A        2807201400000000016325745CC                                                                                                                                                                                                                                                                                                                                                                                           308514-3      000004
1031421011181COBR_CAUC_BIC  AGROIND IRMAOS DALLA COSTA LTDA         064308299000129INTERCONTINENTAL COMERCIO DE ALIME      ROD PRESIDENTE DUTRA 01957              SAO JOAO DE MER                         25515230RJ48314000010541662934200/1     27062014014RIO DE JANEIRO      2507201400000000016200000CC                                                                                                                                                                                                                                                                                                                                                                                           308514-4      000005
1021421017050COBR_CAUC_BIC  STAR DISTR PROD FARMACEUTICOS LTDA      061585865000151RAIA DROGASIL S/A                       AVENIDA CORIFEU DE AZEVEDO MARQUES, 3097SAO PAULO                               05339000SP4831500001000026710000350201  30062014007PAULISTA            2107201400000000027000722CC                                                                                                                                                                                                                                                                                                                                                                                           308514-5      000006
1021421017050COBR_CAUC_BIC  STAR DISTR PROD FARMACEUTICOS LTDA      061585865000151RAIA DROGASIL S/A                       AVENIDA CORIFEU DE AZEVEDO MARQUES, 3097SAO PAULO                               05339000SP4831500002000027510000351101  30062014007PAULISTA            2107201400000000052401991CC                                                                                                                                                                                                                                                                                                                                                                                           308514-6      000007
1021421017050COBR_CAUC_BIC  STAR DISTR PROD FARMACEUTICOS LTDA      061585865000151RAIA DROGASIL S/A                       AVENIDA CORIFEU DE AZEVEDO MARQUES, 3097SAO PAULO                               05339000SP4831500003000027780000351001  30062014007PAULISTA            2107201400000000010510241CC                                                                                                                                                                                                                                                                                                                                                                                           308514-7      000008
1021421017050COBR_CAUC_BIC  STAR DISTR PROD FARMACEUTICOS LTDA      061585865000151RAIA DROGASIL S/A                       AVENIDA CORIFEU DE AZEVEDO MARQUES, 3097SAO PAULO                               05339000SP4831500004000027940000351501  30062014007PAULISTA            2107201400000000018266514CC                                                                                                                                                                                                                                                                                                                                                                                           308514-8      000009
1021421017050COBR_CAUC_BIC  STAR DISTR PROD FARMACEUTICOS LTDA      061585865000151RAIA DROGASIL S/A                       AVENIDA CORIFEU DE AZEVEDO MARQUES, 3097SAO PAULO                               05339000SP4831500005000028080000351801  30062014022PAULISTA            2107201400000000024154036CC                                                                                                                                                                                                                                                                                                                                                                                           308514-9      000010
9000009                                                                                                                                                                                                                                                                                                                                                                                                                                                                                                                                                                                                                                                                                                               000011
