0REMESSANOTIFICAÇÃO ELETRONICA        99999999999999Bicbanco S/A                            Avenida Paulista                        1048      12º andar BELA VISTA                    SÃO PAULO                     01310100SPBicbanco S/A                                                                    18082011                                                                                                                                                                                                                                                                                                                                                                                                000001
1014421011391COBR_CAUC_BIC  CENTRAL NACIONAL DE PRODUCOES LTDA      002415583000147IGREJA MUNDIAL DO PODER DE DEUS         R.CARNEIRO DE LEAO, 439                 SAO PAULO                               03015000SP2961500001044694215002/A      05082011007PAULISTA            1311201100000000050000000CC                                                                                                                                                                                                                                                                                                                                                                                           141281-1      000002
1048421000354COBR_CAUC_COR  FRIGOL S.A. EM RECUPERACAO JUDICIAL     010452689000149ALIANCA COM E DIST CARNES E DERI L      RUA MARIA GONZAGA 19                    SAO JOAO DE MER                         25535420RJ2961600001002073567594        15082011900BRADESCO S/A        1808201100000000021061242CC                                                                                                                                                                                                                                                                                                                                                                                           141281-2      000003
1037421007698COBR_CAUC_BIC  HOSP - LOG COM DE PROD HOSP LTDA        056998982000107BRISTOL MYERS SQUIBB FARMACEUTICA       R.CARLOS GOMES, 924                     SAO PAULO                               04743903SP2961700001045022340123914 01  04082011007PAULISTA            0211201100000000025995312CC                                                                                                                                                                                                                                                                                                                                                                                           141281-3      000004
9000003                                                                                                                                                                                                                                                                                                                                                                                                                                                                                                                                                                                                                                                                                                               000005
