0REMESSANOTIFICAÇÃO ELETRONICA        99999999999999Bicbanco S/A                            Avenida Paulista                        1048      12º andar BELA VISTA                    SÃO PAULO                     01310100SPBicbanco S/A                                                                    22112011                                                                                                                                                                                                                                                                                                                                                                                                000001
1014420939021COBR_CAUC_BIC  EDITORA O DIA S/A                       033130543000182CASAS GUANABARA COMESTIVEIS LTDA        DA AGUA BRANCA,3400                     RIO DE JANEIRO                          21720161RJ3197400001023755780618914     15112011014RIO DE JANEIRO      3011201100000000010794304CC                                                                                                                                                                                                                                                                                                                                                                                           152354-1      000002
1024420934410COBR_CAUC_BIC  INTERCOOP INT SUIN MED NORTE MT LTD     004613751000487CRISTALFRIGO IND COM IMPORTACAO EX      AV DOS ANDRADAS ,2229-STA EFIGENIA      BELO HORIZONTE                          30120010MG31975000010194039768838       09112011019BELO HORIZONTE      1112201100000000010682153CC                                                                                                                                                                                                                                                                                                                                                                                           152354-2      000003
1038421011812COBR_CAUC_BIC  ENERGY COML IMPORT E EXPORT LTDA        009363567000105PREMIX BRASIL RESINAS                   ALAMEDA ARAGU,2044-CJ703A705TORRE2      SAO PAULO                               06455000SP319760000109473511706         16112011007PAULISTA            0912201100000000011412972CC                                                                                                                                                                                                                                                                                                                                                                                           152354-3      000004
1038421011812COBR_CAUC_BIC  ENERGY COML IMPORT E EXPORT LTDA        009363567000105PREMIX BRASIL RESINAS                   ALAMEDA ARAGU,2044-CJ703A705TORRE2      SAO PAULO                               06455000SP319760000209473529707         16112011007PAULISTA            0912201100000000011412972CC                                                                                                                                                                                                                                                                                                                                                                                           152354-4      000005
1038421011812COBR_CAUC_BIC  ENERGY COML IMPORT E EXPORT LTDA        009363567000105PREMIX BRASIL RESINAS                   ALAMEDA ARAGU,2044-CJ703A705TORRE2      SAO PAULO                               06455000SP319760000309473537708         16112011007PAULISTA            0912201100000000011633074CC                                                                                                                                                                                                                                                                                                                                                                                           152354-5      000006
1038421011812COBR_CAUC_BIC  ENERGY COML IMPORT E EXPORT LTDA        009363567000105PREMIX BRASIL RESINAS                   ALAMEDA ARAGU,2044-CJ703A705TORRE2      SAO PAULO                               06455000SP319760000409473545709         16112011007PAULISTA            0912201100000000011931785CC                                                                                                                                                                                                                                                                                                                                                                                           152354-6      000007
1007421032516COBR_CAUC_BIC  NITRIFLEX SP IND E COM DE BORRACHAS     051938702000151AGEL-ANEIS GAXETAS EQUIPAMENTOS LT      AV PIRAMBOIA, 1580                      BARUERI                                 06465060SP319770000100917728000773301   16112011007PAULISTA            3011201100000000010521673CC                                                                                                                                                                                                                                                                                                                                                                                           152354-7      000008
1044421010977COBR_CAUC_BIC  FEDCO INDUSTRIA E COMERCIO LTDA         006626253012400EMPREENDIMENTOS PAGUE MENOS S/A         R. FRANCISCO CORDEIRO                   FORTALEZA                               60310490CE319780000101370853015818/1.1  07112011003CENTRO              1503201200000000027525736CC                                                                                                                                                                                                                                                                                                                                                                                           152354-8      000009
1032420932087COBR_CAUC_COR  TEXTIL RENAUXVIEW S/A                   084229889000173BRANDILI TEXTIL LTDA                    R QUINTINO BOCAIUVACXP 19 29            APIUNA                                  89135000SC31991000010003561151279/A     16112011900BRADESCO S/A        2202201200000000014634599CC                                                                                                                                                                                                                                                                                                                                                                                           152357-1      000010
1021420930887COBR_CAUC_COR  DEDINI S/A INDUSTRIAS DE BASE           009075242000119EBER BIO ENERGIA E AGRICULTURA LTD      ROD BR 070 ZONA RURAL BR                MONTES CLAROS D                         76255000GO319920000106232881162694-4-4  01112011900BRADESCO S/A        0102201200000000092000000CC                                                                                                                                                                                                                                                                                                                                                                                           152357-2      000011
1021420930887COBR_CAUC_COR  DEDINI S/A INDUSTRIAS DE BASE           044373108000103COCAL COMERCIO INDUSTRIA CANAA ACU      PQ INDUSTRIAL DR CAMILO C DE MAGALH SAO PARAGUACU PAULI                         19700000SP319930000106232872165013-1-1  16112011900BRADESCO S/A        1201201200000000022604500CC                                                                                                                                                                                                                                                                                                                                                                                           152357-3      000012
1031421007893COBR_CAUC_COR  DIPLOMATA S/AINDL. E COMERCIAL          083310441004708COOPERATIVA CENTRAL OESTE CATARINE      ROD BR 158 SN                           CUNHA PORA                              89890000SC3199400001049483840015493-06  17112011800UNIBANCO S/A        1612201100000000010500000CC                                                                                                                                                                                                                                                                                                                                                                                           152357-4      000013
1031421007893COBR_CAUC_COR  DIPLOMATA S/AINDL. E COMERCIAL          083310441004708COOPERATIVA CENTRAL OESTE CATARINE      ROD BR 158 SN                           CUNHA PORA                              89890000SC3199400002049483920015493-05  17112011800UNIBANCO S/A        1612201100000000010500000CC                                                                                                                                                                                                                                                                                                                                                                                           152357-5      000014
1031421007893COBR_CAUC_COR  DIPLOMATA S/AINDL. E COMERCIAL          083310441004708COOPERATIVA CENTRAL OESTE CATARINE      ROD BR 158 SN                           CUNHA PORA                              89890000SC3199400003049484060015493-04  17112011800UNIBANCO S/A        1612201100000000010500000CC                                                                                                                                                                                                                                                                                                                                                                                           152357-6      000015
1031421007893COBR_CAUC_COR  DIPLOMATA S/AINDL. E COMERCIAL          083310441004708COOPERATIVA CENTRAL OESTE CATARINE      ROD BR 158 SN                           CUNHA PORA                              89890000SC3199400004049484140015493-03  17112011800UNIBANCO S/A        1512201100000000010500000CC                                                                                                                                                                                                                                                                                                                                                                                           152357-7      000016
1031421007893COBR_CAUC_COR  DIPLOMATA S/AINDL. E COMERCIAL          083310441004708COOPERATIVA CENTRAL OESTE CATARINE      ROD BR 158 SN                           CUNHA PORA                              89890000SC3199400005049484220015493-02  17112011800UNIBANCO S/A        1512201100000000010500000CC                                                                                                                                                                                                                                                                                                                                                                                           152357-8      000017
1031421007893COBR_CAUC_COR  DIPLOMATA S/AINDL. E COMERCIAL          083310441004708COOPERATIVA CENTRAL OESTE CATARINE      ROD BR 158 SN                           CUNHA PORA                              89890000SC3199400006049484310015493-01  17112011800UNIBANCO S/A        1512201100000000010500000CC                                                                                                                                                                                                                                                                                                                                                                                           152357-9      000018
1                           CFO ENGENHARIA LTDA                                    VIARONDON CONCESSIONÁRIA DE RODOVIA S/A Rua Argemiro Sandoval, nº 30            Lins                                    16400-000SP                                                                                                                                                                                                                                                                                                                                                                                                                                                                                   152550-1      000019
9000018                                                                                                                                                                                                                                                                                                                                                                                                                                                                                                                                                                                                                                                                                                               000020
