0REMESSANOTIFICAÇÃO ELETRONICA        99999999999999Bicbanco S/A                            Avenida Paulista                        1048      12º andar BELA VISTA                    SÃO PAULO                     01310100SPBicbanco S/A                                                                    12112010                                                                                                                                                                                                                                                                                                                                                                                                000001
1007420931444COBR_CAUC_BIC  PLASINCO LTDA                           047090782000160DANEVA MAQ. E COND. EL. LTDA.           RUA VOTUPORANGA,415                     POA                                     08558050SP2494100001001938018775        08112010007PAULISTA            2911201000000000027802324CC                                                                                                                                                                                                                                                                                                                                                                                           115436-1      000002
1007420931444COBR_CAUC_BIC  PLASINCO LTDA                           053606869000221BRASCOPPER CBC BRASILEIRA DE COND       RUA URUGUAI,2050                        RIBEIRAO PRETO                          14075330SP2494200001001937978786-A      09112010022RIBEIRAO PRETO      0712201000000000045690282CC                                                                                                                                                                                                                                                                                                                                                                                           115436-2      000003
1007420931444COBR_CAUC_COR  PLASINCO LTDA                           066007857000141WIREX CABLE S/A                         ESTR. JACAREI /STA. BRA,0-PREDIO A      SANTA BRANCA                            12380000SP2494300001001938198763-A      08112010900BRADESCO S/A        0812201000000000033152518CC                                                                                                                                                                                                                                                                                                                                                                                           115436-3      000004
1032421000854COBR_CAUC_COR  METALURGICA IANY IND E COM LTDA         076639285000339FERRAGENS NEGRAO COMERCIAL LTDA.-       RUA PROF. ALGACYR M. MADER,, 2800       CURITIBA - PR                           81310020PR2494400001085941729038-1/1    04112010900BRADESCO S/A        1912201000000000010356902CC                                                                                                                                                                                                                                                                                                                                                                                           115436-4      000005
1032421000854COBR_CAUC_COR  METALURGICA IANY IND E COM LTDA         076639285000339FERRAGENS NEGRAO COMERCIAL LTDA.-       RUA PROF. ALGACYR M. MADER,, 2800       CURITIBA - PR                           81310020PR2494400002085941819040-1/1    04112010900BRADESCO S/A        1912201000000000010822800CC                                                                                                                                                                                                                                                                                                                                                                                           115436-5      000006
1022141001217COBR_CAUC_BIC  BALDIN BIOENERGIA S/A                   001062529000100DULCINI S/A                             ESTR SITIO TABOAO S/N                   PIRASSUNUNGA                            13631301SP24945000010406101111591/01    05112010021CAMPINAS            1301201100000000025000000TD                                                                                                                                                                                                                                                                                                                                                                                           115436-6      000007
1022141001217COBR_CAUC_BIC  BALDIN BIOENERGIA S/A                   001062529000100DULCINI S/A                             ESTR SITIO TABOAO S/N                   PIRASSUNUNGA                            13631301SP24945000020406102011591/02    05112010021CAMPINAS            1401201100000000025000000TD                                                                                                                                                                                                                                                                                                                                                                                           115436-7      000008
1022141001217COBR_CAUC_BIC  BALDIN BIOENERGIA S/A                   001062529000100DULCINI S/A                             ESTR SITIO TABOAO S/N                   PIRASSUNUNGA                            13631301SP24945000030406103811591/03    05112010021CAMPINAS            1701201100000000025000000TD                                                                                                                                                                                                                                                                                                                                                                                           115436-8      000009
1022141001217COBR_CAUC_BIC  BALDIN BIOENERGIA S/A                   001062529000100DULCINI S/A                             ESTR SITIO TABOAO S/N                   PIRASSUNUNGA                            13631301SP24945000040406104611591/04    05112010021CAMPINAS            1801201100000000025000000TD                                                                                                                                                                                                                                                                                                                                                                                           115436-9      000010
1022141001217COBR_CAUC_BIC  BALDIN BIOENERGIA S/A                   001062529000100DULCINI S/A                             ESTR SITIO TABOAO S/N                   PIRASSUNUNGA                            13631301SP24945000050406105411591/05    05112010021CAMPINAS            1901201100000000025000000TD                                                                                                                                                                                                                                                                                                                                                                                           115436-10     000011
1022141001217COBR_CAUC_BIC  BALDIN BIOENERGIA S/A                   001062529000100DULCINI S/A                             ESTR SITIO TABOAO S/N                   PIRASSUNUNGA                            13631301SP24945000060406106211591/06    05112010021CAMPINAS            2001201100000000025000000TD                                                                                                                                                                                                                                                                                                                                                                                           115436-11     000012
1022141001217COBR_CAUC_BIC  BALDIN BIOENERGIA S/A                   001062529000100DULCINI S/A                             ESTR SITIO TABOAO S/N                   PIRASSUNUNGA                            13631301SP24945000070406107111591/07    05112010021CAMPINAS            2101201100000000025000000TD                                                                                                                                                                                                                                                                                                                                                                                           115436-12     000013
1022141001217COBR_CAUC_BIC  BALDIN BIOENERGIA S/A                   001062529000100DULCINI S/A                             ESTR SITIO TABOAO S/N                   PIRASSUNUNGA                            13631301SP24945000080406108911591/08    05112010021CAMPINAS            2401201100000000025000000TD                                                                                                                                                                                                                                                                                                                                                                                           115436-13     000014
1022421004755COBR_CAUC_COR  FRIGOL S.A. EM RECUPERACAO JUDICIAL     003721769000278MASTERBOI LTDA                          RECUPERACAO, DA - 7380                  RECIFE                                  52291000PE2494600001000746234720        08112010900BRADESCO S/A        1611201000000000012482416CC                                                                                                                                                                                                                                                                                                                                                                                           115436-14     000015
1044421010977COBR_CAUC_BIC  FEDCO INDUSTRIA E COMERCIO LTDA         006626253012400EMPREENDIMENTOS PAGUE MENOS S/A         RUA SENADOR POMPEU,1520                 FORTALEZA                               60025000CE24947000010132107110208/1.1   25102010003CENTRO              0102201100000000011912803CC                                                                                                                                                                                                                                                                                                                                                                                           115436-15     000016
1044421010977COBR_CAUC_BIC  FEDCO INDUSTRIA E COMERCIO LTDA         006626253012400EMPREENDIMENTOS PAGUE MENOS S/A         RUA SENADOR POMPEU,1520                 FORTALEZA                               60025000CE24947000020132108910359/1.1   29102010003CENTRO              0502201100000000017162469CC                                                                                                                                                                                                                                                                                                                                                                                           115436-16     000017
1044421010977COBR_CAUC_BIC  FEDCO INDUSTRIA E COMERCIO LTDA         061585865000151DROGASIL S/A                            AV.CORIFEU DE AZEVEDO MARQUES,3097      SAO PAULO                               05339900SP24948000010132104610269/1.1   26102010007PAULISTA            1912201000000000017745925CC                                                                                                                                                                                                                                                                                                                                                                                           115436-17     000018
1014420000000DIR_CREDIT     EISA ESTALEIRO ILHA SA                  042278291000124LOG-IN LOGISTICA INTERMODAL S/A         PRAIA DE BOTAFOGO, 501/703-BOTAFOGO     RIO DE JANEIRO                          22250040RJ2495600001                                                                                                                                          011183487           130720090000015902S/Nº        08112010000403CONTRUIR,LANCAR,EQUIPAQR,MONTAR,TESTAR E ENTREGAR 02 NAVIOS GRANELEIROSDE 80.100 TPB PARA TRANSPORTES DE BAUXITA, FEITOS DE AÇO.                                                                                                                000261304000102115436-18     000019
9000018                                                                                                                                                                                                                                                                                                                                                                                                                                                                                                                                                                                                                                                                                                               000020
