0REMESSANOTIFICA«√O ELETRONICA        99999999999999Bicbanco S/A                            Avenida Paulista                        1048      12∫ andar BELA VISTA                    S√O PAULO                     01310100SPBicbanco S/A                                                                    17062011                                                                                                                                                                                                                                                                                                                                                                                                000001
1021420930887COBR_CAUC_COR  DEDINI S/A INDUSTRIAS DE BASE           007079511000190M G POLIMEROS BRASIL S.A.               RODOVIA PE 060 ENG MASSANG TDR SUL PORTOIPOJUCA                                 55590000PE28176000010616364111-1-1      09062011900BRADESCO S/A        3006201100000000025208138CC                                                                                                                                                                                                                                                                                                                                                                                           134198-1      000002
1021420930887COBR_CAUC_BIC  DEDINI S/A INDUSTRIAS DE BASE           057663932000131INTERUNION COMERCIO INTERNACIONAL       AVGUADALAJARA LAGOINHA BR               RIBEIRAO PRETO                          14095380SP281770000106163706148555-2-2  03052011022RIBEIRAO PRETO      2806201100000000017542740CC                                                                                                                                                                                                                                                                                                                                                                                           134198-2      000003
1037421007698COBR_CAUC_BIC  HOSP - LOG COM DE PROD HOSP LTDA        029435005002687ESHO EMPRESA DE SERV.HOSPITALARES       R: MARTINIANO DE CARVALHO, 741 SL.319   SAO PAULO                               01321001SP2817800001044878550115589 01  13062011007PAULISTA            1208201100000000012919358CC                                                                                                                                                                                                                                                                                                                                                                                           134198-3      000004
1021420930887COBR_CAUC_COR  DEDINI S/A INDUSTRIAS DE BASE           049972326000170USINA MOEMA ACUCAR E ALCOOL LTDA        FAZENDA MOEMA ZONA RURAL BR             ORINDIUVA                               15480000SP281790000106164079132070-5-5  30032011900BRADESCO S/A        3006201100000000010534886CC                                                                                                                                                                                                                                                                                                                                                                                           134200-1      000005
1031421007850COBR_CAUC_COR  AGRICOLA JANDELLE S/A                   017745613000150SUPERMERCADO BAHAMAS LTDA               AVENIDA DOARDINO LONGO 669              JUIZ DE FORA                            36085050MG2818000001048829610018427101  11062011800UNIBANCO S/A        1107201100000000011907000CC                                                                                                                                                                                                                                                                                                                                                                                           134200-2      000006
1048421000354COBR_CAUC_COR  FRIGOL S.A. EM RECUPERACAO JUDICIAL     009259067000110COMPANHIA BONSMARA BEEF                 RUA JOAQUIM FLORIANO, 1144              SAO PAULO                               04534003SP281810000100132577210057-1    13062011900BRADESCO S/A        0407201100000000017278412CC                                                                                                                                                                                                                                                                                                                                                                                           134200-3      000007
1014421021575COBR_CAUC_BIC  CESBRA QUIMICA S/A                      004182260000186BIOVERDE IND E COM DE BIOCOMBUSTIV      RUA IRMAOS ALBERNAZ ,600                TAUBATE                                 12050190SP2818200001044397780006018/01  14062011007PAULISTA            2806201100000000011422306CC                                                                                                                                                                                                                                                                                                                                                                                           134200-4      000008
1007421053076COBR_CAUC_COR  WORLD TRACTOR COML IMP LTDA             033042730001348CIA SIDERURGICA NACIONAL/MIN CASA       MIN CASA DE PEDRA S/N∫                  CONGONHAS                               36415000MG2818300001006324811224        13062011800UNIBANCO S/A        1007201100000000049989000CC                                                                                                                                                                                                                                                                                                                                                                                           134200-5      000009
1019421012049DIR_CREDIT     A. R. G. LTDA                           008310839000138LLX SUDESTE OPERACOES PROTUARIAS LTDA   PR DO FLAMENGO 66 ANDAR 13 PARTE        RIO DE JANEIRO                          22210903RJ2819900001                                                                                                                                          011348178           011220100000017789S/N         04032011017002EXECU«√O DAS OBRAS DO PROJETO PORTO SUDESTE COMPREENDENDO OBRASDE INFRA-ESTRUTURA DO CENTRO ADMINISTRATIVO, CONSTRU«√O DAS BASES DE EQUIPAMENTO DE CASAS DE TRANSFERENCIA DO PATIO E ETC.                                                       020520862000152134200-6      000010
1019421012049DIR_CREDIT     A. R. G. LTDA                           008310839000138LLX SUDESTE OPERACOES PROTUARIAS LTDA   PR DO FLAMENGO 66 ANDAR 13 PARTE        RIO DE JANEIRO                          22210903RJ2820000001                                                                                                                                          011427060           011220100000017789S/N         13062011017002EXECU«√O DAS OBRAS DO PROJETO PORTO SUDESTE COMPREENDENDO OBRASDE INFRA-ESTRUTURA DO CENTRO ADMINISTRATIVO, CONSTRU«√O DAS BASES DE EQUIPAMENTO DE CASAS DE TRANSFERENCIA DO PATIO E ETC.                                                       020520862000152134200-7      000011
1022421006561DIR_CREDIT     INFRAPAR PARTICIPACOES S/A              011241730000109MOTA-ENGIL, ENGENHARIA E CONSTRUCAO S/A RUA PEDROSO DE MORAES, 1553, CJ 82      S„O PAULO                               05419001SP2820100001                                                                                                                                          011306352           301220100000017100            07062011000407contrato de investimento                                                                                                                                                                                                                        011241730000109134200-8      000012
9000011                                                                                                                                                                                                                                                                                                                                                                                                                                                                                                                                                                                                                                                                                                               000013
