0REMESSANOTIFICAÇÃO ELETRONICA        99999999999999Bicbanco S/A                            Avenida Paulista                        1048      12º andar BELA VISTA                    SÃO PAULO                     01310100SPBicbanco S/A                                                                    24092010                                                                                                                                                                                                                                                                                                                                                                                                000001
1015420931819COBR_CAUC_COR  COOPERATIVA TRITICOLA ERECHIM LTDA      083310441000117AURORA - COOP.CENTRAL OESTE CATARI      RUA JOAO MARTINS,219D                   CHAPECO                                 89803901SC2432700001007581381           10092010900BRADESCO S/A        0811201000000000022000000CC                                                                                                                                                                                                                                                                                                                                                                                           112122-1      000002
1015420931819COBR_CAUC_COR  COOPERATIVA TRITICOLA ERECHIM LTDA      083310441000117AURORA - COOP.CENTRAL OESTE CATARI      RUA JOAO MARTINS,219D                   CHAPECO                                 89803901SC2432700002007581624           10092010900BRADESCO S/A        0811201000000000017025000CC                                                                                                                                                                                                                                                                                                                                                                                           112122-2      000003
1007421035337COBR_CAUC_COR  COML IMP E EXP LA RIOJA LTDA            003310865000738ALCAMP COML LTDA                        AV COMENDADOR ALADINO SELMI, 4840       CAMPINAS                                13069096SP24328000010026277238874       21092010900BRADESCO S/A        1501201100000000026400000CC                                                                                                                                                                                                                                                                                                                                                                                           112122-3      000004
1043141007013COBR_CAUC_BIC  COMPANHIA USINA SAO JOAO                010422007000155PREDILETA DISTRIBUIDORA DE ALIMENT      SAN JUAN, 285                           JOAO PESSOA                             58000000PB2432900001005748199809/A      20092010043JOAO PESSOA         1010201000000000012500000TD                                                                                                                                                                                                                                                                                                                                                                                           112122-4      000005
1043141007013COBR_CAUC_BIC  COMPANHIA USINA SAO JOAO                010422007000155PREDILETA DISTRIBUIDORA DE ALIMENT      SAN JUAN, 285                           JOAO PESSOA                             58000000PB2432900002005748519809/B      20092010043JOAO PESSOA         2110201000000000012500000TD                                                                                                                                                                                                                                                                                                                                                                                           112122-5      000006
1043141007013COBR_CAUC_BIC  COMPANHIA USINA SAO JOAO                010422007000155PREDILETA DISTRIBUIDORA DE ALIMENT      SAN JUAN, 285                           JOAO PESSOA                             58000000PB2432900003005748789809/C      20092010043JOAO PESSOA         2810201000000000012500000TD                                                                                                                                                                                                                                                                                                                                                                                           112122-6      000007
1042141002650COBR_CAUC_BIC  MAXXIMO SERV DE MONT E CONST LTDA       004487870000198COBRACO SERV E MONT LTDA                ROD BR 135 KM 17                        SAO LUIS                                65000000MA243300000101655836119         09092010042SAO LUIS            1611201000000000022500000TD                                                                                                                                                                                                                                                                                                                                                                                           112122-7      000008
1042141005640COBR_CAUC_BIC  TAC TRANSPORTE E CONSTRUCOES LTDA       007073042000100EDECONSIL CONST E LOC LTDA              AV JOSE SARNEY 500                      SAO LUIS                                65000000MA243310000101655844373/10-1    09092010042SAO LUIS            1011201000000000015000000TD                                                                                                                                                                                                                                                                                                                                                                                           112122-8      000009
9000008                                                                                                                                                                                                                                                                                                                                                                                                                                                                                                                                                                                                                                                                                                               000010
