0REMESSANOTIFICAÇÃO ELETRONICA        99999999999999Bicbanco S/A                            Avenida Brigadeiro Faria Lima           4.440     2º andar  Itaim Bibi                    São Paulo                     04538132SPBicbanco S/A                                                                    23092014                                                                                                                                                                                                                                                                                                                                                                                                000001
1046421006070DIR_CREDIT     METALURGICA DS LTDA                     060857349000176TRW AUTOMOTIVE LTDA                     VIA ANHANGUERA KM 147                   LIMEIRA                                 13486915SP4914700001                                                                                                                                          012675293           260320070000018698            16092014000404fornecimento de discos e tambores de freio para automóveis.                                                                                                                                                                                     079414868000198323608-1      000002
1023421008678DIR_CREDIT     AUTO VIACAO A B C LTDA                  007096200000139CMT-CONSÓRCIO METROPOLITANO DE TRANSPORTAVENIDA REBOUÇAS Nº1368 JARDIM PAULISTA SÃO PAULO                               05402100SP4916400001                                                                                                                                          012518791           020320090000024370            05032014051902VENDA DE PASSAGENS E RESPECTIVOS BILHETES E TODAS AS DEMAIS OPERAÇÕESCOMPREENDIDAS NO "SISTEMA" DA CMT, DESTACANDO A MARCA "BOM-BILHETE ÔNIBUS METROPOLITANO",CADASTOS E OUTROS ATIVOS, MATERIAIS E IMATERIAIS NA OPERAÇÃO.                     059153569000130323608-2      000003
1017421012786COBR_CAUC_BIC  FABRICA DA PEDRA S.A FIAC.E TECELAG     000886257000788ATMOSFERA GESTAO E HIGIENIZACAO DE      R. ANTONIO PIVABARRANQUEIROS, ,S/N      JUNDIAI                                 13212000SP49192000010259885123462-A01   19092014007PAULISTA            2212201400000000013405540CC                                                                                                                                                                                                                                                                                                                                                                                           323608-3      000004
1019421004658COBR_CAUC_COR  S/A ESTADO DE MINAS                     016705345000180SINDICATO DAS EMP.TRANSP.PASSAG.MG      AIMORES 2152BR                          BELO HORIZONTE                          30140072MG4919300001013229202511944-1   19092014900BRADESCO S/A        0311201400000000015000000CC                                                                                                                                                                                                                                                                                                                                                                                           323608-4      000005
1008421022487COBR_CAUC_COR  EBP - EMPRESA BRASILEIRA DE PESCADO     033381286000151SUPER MERCADO ZONA SUL S/A              RUA COMANDANTE VERGUEIRO DA CRUZ, 226   RIO DE JANEIRO                          21021020RJ4919400001018035910029147/    19092014900BRADESCO S/A        2310201400000000011718000CC                                                                                                                                                                                                                                                                                                                                                                                           323608-5      000006
1050421002855COBR_CAUC_COR  C F SANTOS COM DE ALIMENTOS LTDA        004899316000118IMIFARMA PRODUTOS FARMAC. E COSMET      TV QUINTINO BOCAIUVA 381,381            BELEM                                   66053240PA491950000100001120406675      19092014900BRADESCO S/A        1810201400000000010299010CC                                                                                                                                                                                                                                                                                                                                                                                           323608-6      000007
1046421006070DIR_CREDIT     METALURGICA DS LTDA                     060857349000176TRW AUTOMOTIVE LTDA                     VIA ANHANGUERA KM 147                   LIMEIRA                                 13486915SP4919900001                                                                                                                                          012677784           260320070000018698            19092014000404fornecimento de discos e tambores de freio para automóveis.                                                                                                                                                                                     079414868000198323608-7      000008
1015421021867COBR_CAUC_COR  COTRIJUI COOP AGROP & INDUSTRIAL        000491913000158JAIR DA SILVA MERCEARIA                 RUA MARCIONILIO SARAIVA DA FONSECA 727  SAO JERONIMO                            96700000RS492000000103184841107253-1    04092014900BRADESCO S/A        2509201400000000000015630CC                                                                                                                                                                                                                                                                                                                                                                                           323608-8      000009
1015421021867COBR_CAUC_COR  COTRIJUI COOP AGROP & INDUSTRIAL        012366468000183NATURASUL IND E COM ALIMENTOS           RUA LIBERIA 363                         NOVO HAMBURGO                           93348390RS492010000103179813111519-3    25082014900BRADESCO S/A        2909201400000000000005250CC                                                                                                                                                                                                                                                                                                                                                                                           323608-9      000010
1015421021867COBR_CAUC_COR  COTRIJUI COOP AGROP & INDUSTRIAL        012366468000183NATURASUL IND E COM ALIMENTOS           RUA LIBERIA 363                         NOVO HAMBURGO                           93348390RS492010000203183217107069-2    02092014900BRADESCO S/A        0111201400000000000010500CC                                                                                                                                                                                                                                                                                                                                                                                           323608-10     000011
1015421021867COBR_CAUC_COR  COTRIJUI COOP AGROP & INDUSTRIAL        050575109000125MAK BAR LTDA ME                         AV. DR.ADHEMAR P.BARROS 109             SAO PAULO                               03454070SP492020000106422476160856-1    15092014900BRADESCO S/A        2909201400000000000015840CC                                                                                                                                                                                                                                                                                                                                                                                           323608-11     000012
1015421021867COBR_CAUC_COR  COTRIJUI COOP AGROP & INDUSTRIAL        011316810000178MARIA ROSECLEIDE M. F. ROCHA LANCH      RUA JOAO AUGUSTO SILVEIRA (VILA SOARES) SAO BERNARDO DO                         09851715SP492030000106421046160713-1    15092014900BRADESCO S/A        2909201400000000000015840CC                                                                                                                                                                                                                                                                                                                                                                                           323608-12     000013
1015421021867COBR_CAUC_COR  COTRIJUI COOP AGROP & INDUSTRIAL        018495058000119NUTRIBENNE REFEICOES LTDA - ME          AV. PENHA DE FRANCA 796                 SAO PAULO                               03606000SP492040000106423197160932-1    16092014900BRADESCO S/A        3009201400000000000015840CC                                                                                                                                                                                                                                                                                                                                                                                           323608-13     000014
1015421021867COBR_CAUC_COR  COTRIJUI COOP AGROP & INDUSTRIAL        012261839000162TORRES REFEICOES CORPORATIVAS LTDA      RUA GLAUCO ANTONIO GALLI,               GUARULHOS                               07076010SP492050000106425092161126-1    17092014900BRADESCO S/A        2409201400000000000015840CC                                                                                                                                                                                                                                                                                                                                                                                           323608-14     000015
1015421021867COBR_CAUC_COR  COTRIJUI COOP AGROP & INDUSTRIAL        005725762000179SIDNEI JOSE DA SILVA ALVES              AVENIDA BRASIL AQUINO PEDROSO 707       CACHOEIRINHA                            94930700RS492060000103187841107607-1    10092014900BRADESCO S/A        2409201400000000000015857CC                                                                                                                                                                                                                                                                                                                                                                                           323608-15     000016
1015421021867COBR_CAUC_COR  COTRIJUI COOP AGROP & INDUSTRIAL        059386144000170BAR E LANCHES SILVEIRAS LT-ME           R DR. EDMUR WITAKER 299                 SAO PAULO                               03963060SP492070000106420848160691-1    12092014900BRADESCO S/A        2809201400000000000015859CC                                                                                                                                                                                                                                                                                                                                                                                           323608-16     000017
1015421021867COBR_CAUC_COR  COTRIJUI COOP AGROP & INDUSTRIAL        005952492000139MICRO LANCHES LTDA                      RUA.LIMA E SILVA LJ 7 426               NOVO HAMBURGO                           93510030RS492080000103186411107447-1    09092014900BRADESCO S/A        2309201400000000000015900CC                                                                                                                                                                                                                                                                                                                                                                                           323608-17     000018
1015421021867COBR_CAUC_COR  COTRIJUI COOP AGROP & INDUSTRIAL        053358289000181EMPORIO ALBESTRELA LTDA-ME              R MONTE NEGRO 66                        OSASCO                                  06126030SP492090000106424975161114-1    17092014900BRADESCO S/A        2409201400000000000015930CC                                                                                                                                                                                                                                                                                                                                                                                           323608-18     000019
1015421021867COBR_CAUC_COR  COTRIJUI COOP AGROP & INDUSTRIAL        009093583000117SALIZANDRA OLIVEIRA BARBOSA             17 DE SETEMBRO 411                      SANTANA DA BOA                          96590000RS492100000100448198202566-1    01092014900BRADESCO S/A        2909201400000000000016167CC                                                                                                                                                                                                                                                                                                                                                                                           323608-19     000020
1015421021867COBR_CAUC_COR  COTRIJUI COOP AGROP & INDUSTRIAL        011235244000170LANCHES TCHAN DOIS LTDA ME              R OTAVIO TARQUINO DE SOUZA,225          SAO PAULO                               04613000SP492110000106422620160871-1    15092014900BRADESCO S/A        2909201400000000000016186CC                                                                                                                                                                                                                                                                                                                                                                                           323608-20     000021
1015421021867COBR_CAUC_COR  COTRIJUI COOP AGROP & INDUSTRIAL        043811546000135O CACHORRAO BAR E LANCHES LTDA          AV. JABAQUARA 2213                      SAO PAULO                               04045003SP492120000106416794160245-1    09092014900BRADESCO S/A        2309201400000000000016186CC                                                                                                                                                                                                                                                                                                                                                                                           323608-21     000022
1015421021867COBR_CAUC_COR  COTRIJUI COOP AGROP & INDUSTRIAL        047205927000121LANCHONETE PAMPLONA LTDA                RUA PAMPLONA 735                        SAO PAULO                               01405000SP492130000106420520160659-1    12092014900BRADESCO S/A        2809201400000000000016495CC                                                                                                                                                                                                                                                                                                                                                                                           323608-22     000023
1015421021867COBR_CAUC_COR  COTRIJUI COOP AGROP & INDUSTRIAL        053343687000124PANIF. E CONF. TOM E JERRY LTD          AV DR. JOSE ARTUR NOVA 205              SAO PAULO                               08090000SP492140000106421089160717-1    15092014900BRADESCO S/A        2909201400000000000016534CC                                                                                                                                                                                                                                                                                                                                                                                           323608-23     000024
1015421021867COBR_CAUC_COR  COTRIJUI COOP AGROP & INDUSTRIAL        045845690000118BAR E LANCHES ANDRADE OSASCO L          R MARIA QUINTINA DOS SANTOS 803         OSASCO                                  06122190SP492150000106424967161113-1    17092014900BRADESCO S/A        2409201400000000000016550CC                                                                                                                                                                                                                                                                                                                                                                                           323608-24     000025
1015421021867COBR_CAUC_COR  COTRIJUI COOP AGROP & INDUSTRIAL        053550992000197BAR E LANCHES MARY DOG LT ME            RUA GUARAU 77                           SAO PAULO                               04052000SP492160000106418177160402-1    10092014900BRADESCO S/A        2409201400000000000016740CC                                                                                                                                                                                                                                                                                                                                                                                           323608-25     000026
1015421021867COBR_CAUC_COR  COTRIJUI COOP AGROP & INDUSTRIAL        010533811000101RESTAURANTE ANDREIS LTDA                R. MISSIONARIOS 62                      SAO PAULO                               04729000SP492170000106423537160966-1    16092014900BRADESCO S/A        3009201400000000000016848CC                                                                                                                                                                                                                                                                                                                                                                                           323608-26     000027
1015421021867COBR_CAUC_COR  COTRIJUI COOP AGROP & INDUSTRIAL        009557149000140RESTAURANTE QUINTAL DAS ERVAS GAST      RUA DA MOOCA                            SAO PAULO                               03103003SP492180000106424118161024-1    16092014900BRADESCO S/A        3009201400000000000016848CC                                                                                                                                                                                                                                                                                                                                                                                           323608-27     000028
1015421021867COBR_CAUC_COR  COTRIJUI COOP AGROP & INDUSTRIAL        008849779000126LANCH.RAINHA DA PAULO EIRO LT           R PAULO EIRO 315                        SAO PAULO                               04752010SP492190000106426340161261-1    18092014900BRADESCO S/A        0210201400000000000016919CC                                                                                                                                                                                                                                                                                                                                                                                           323608-28     000029
1015421021867COBR_CAUC_COR  COTRIJUI COOP AGROP & INDUSTRIAL        011263715000153SELANIRA MORAIS DE O RASQUIM            RUA JOVIANO ALVES 1                     BUTIA                                   96750000RS492200000103186810107487-1    09092014900BRADESCO S/A        2309201400000000000007360CC                                                                                                                                                                                                                                                                                                                                                                                           323608-29     000030
1015421021867COBR_CAUC_COR  COTRIJUI COOP AGROP & INDUSTRIAL        007638275000102AMARAL E PELLENZ REPRESENTACOES CO      RUA ELAINE JUCHEN SELISTRE 330          PORTO ALEGRE                            91788110RS492210000103187921107620-1    11092014900BRADESCO S/A        2509201400000000000009493CC                                                                                                                                                                                                                                                                                                                                                                                           323608-30     000031
1015421021867COBR_CAUC_COR  COTRIJUI COOP AGROP & INDUSTRIAL        050257773000126PANIF.CONF. BELFORT LTDA                R. PROF.GUILHERME B.SABINO 1225         SAO PAULO                               04678002SP492220000106424819161098-1    17092014900BRADESCO S/A        2409201400000000000009700CC                                                                                                                                                                                                                                                                                                                                                                                           323608-31     000032
1015421021867COBR_CAUC_COR  COTRIJUI COOP AGROP & INDUSTRIAL        069017358000123BAR E MERC. LEINATO LTDA-ME             AV. ITABERABA, 4702                     SAO PAULO                               02739000SP492230000106420881160697-1    15092014900BRADESCO S/A        2909201400000000000010000CC                                                                                                                                                                                                                                                                                                                                                                                           323608-32     000033
1015421021867COBR_CAUC_COR  COTRIJUI COOP AGROP & INDUSTRIAL        012552885000110EULER FRANCIS BERNARDES ME              RUA BARAO DE TATUI 266                  SAO PAULO                               01226030SP492240000106422964160908-1    16092014900BRADESCO S/A        3009201400000000000010000CC                                                                                                                                                                                                                                                                                                                                                                                           323608-33     000034
1015421021867COBR_CAUC_COR  COTRIJUI COOP AGROP & INDUSTRIAL        087263513000173JOSE VILSON MACHADO                     EST BR 290 1                            ELDORADO DO SUL                         92990000RS492250000103187727107593-1    10092014900BRADESCO S/A        2409201400000000000010119CC                                                                                                                                                                                                                                                                                                                                                                                           323608-34     000035
1015421021867COBR_CAUC_COR  COTRIJUI COOP AGROP & INDUSTRIAL        064997190000146M.POMBAL PAES E DOCES LTDA              AV BARREIRA GRANDE 2661                 SAO PAULO                               03916000SP492260000106422361160845-1    15092014900BRADESCO S/A        2909201400000000000010368CC                                                                                                                                                                                                                                                                                                                                                                                           323608-35     000036
1015421021867COBR_CAUC_COR  COTRIJUI COOP AGROP & INDUSTRIAL        020227893000110COMERCIO DE CARNES ONZE DE JUNHO L      AVENIDA ONZE DE JUNHO 944               SAO PAULO                               04041003SP492270000106418215160406-1    10092014900BRADESCO S/A        2409201400000000000010485CC                                                                                                                                                                                                                                                                                                                                                                                           323608-36     000037
1015421021867COBR_CAUC_COR  COTRIJUI COOP AGROP & INDUSTRIAL        043784669000124PAD. E CONF. OKINAWA LTDA               AV.WALDEMAR CARLOS PEREIRA 524          SAO PAULO                               03521010SP492280000106421208160729-1    15092014900BRADESCO S/A        2909201400000000000010500CC                                                                                                                                                                                                                                                                                                                                                                                           323608-37     000038
1015421021867COBR_CAUC_COR  COTRIJUI COOP AGROP & INDUSTRIAL        017503726000140CLAIR TEREZINHA DIAS DA SILVA ABEC      ROD BR 386 KM 388 - COXILHA VELHA S/N   TRIUNFO                                 95840000RS492290000103187409107550-1    10092014900BRADESCO S/A        2409201400000000000010600CC                                                                                                                                                                                                                                                                                                                                                                                           323608-38     000039
1015421021867COBR_CAUC_COR  COTRIJUI COOP AGROP & INDUSTRIAL        006968961000170KYM PROD ALIMENT LTDA                   AVENIDABELO FERREIRA 541                TRIUNFO                                 95840000RS492300000103187352107545-1    10092014900BRADESCO S/A        2409201400000000000010600CC                                                                                                                                                                                                                                                                                                                                                                                           323608-39     000040
1015421021867COBR_CAUC_COR  COTRIJUI COOP AGROP & INDUSTRIAL        007669143000130SUPERMERCADO GILBERTO SIMONE            R BOM JESUS 880                         CAMPO BOM                               93700000RS492310000103186194107427-1    09092014900BRADESCO S/A        2309201400000000000010600CC                                                                                                                                                                                                                                                                                                                                                                                           323608-40     000041
1015421021867COBR_CAUC_COR  COTRIJUI COOP AGROP & INDUSTRIAL        003780570000130THEREZINHA BANCHI ME                    AV NOVA INDEPENDENCIA, 795              SAO PAULO                               04570001SP492320000106426064161233-1    18092014900BRADESCO S/A        2509201400000000000010650CC                                                                                                                                                                                                                                                                                                                                                                                           323608-41     000042
1015421021867COBR_CAUC_COR  COTRIJUI COOP AGROP & INDUSTRIAL        001778319000105ALENCAR B RESTAURANTE E LANCHONETE      RUA SAO SEVERO                          SAO PAULO                               03666000SP492330000106423162160929-1    16092014900BRADESCO S/A        2309201400000000000010954CC                                                                                                                                                                                                                                                                                                                                                                                           323608-42     000043
1015421021867COBR_CAUC_COR  COTRIJUI COOP AGROP & INDUSTRIAL        008908001000140RICARDO HAUPENTHAL APIARIOS             RUA ALBION 111                          PORTO ALEGRE                            91530010RS492340000103182172106928-1    29082014900BRADESCO S/A        2609201400000000000011200CC                                                                                                                                                                                                                                                                                                                                                                                           323608-43     000044
1015421021867COBR_CAUC_COR  COTRIJUI COOP AGROP & INDUSTRIAL        014575210000112BAR E LANCHES JABC LTDA ME              RUA DR. COSTA VALENTE 162               SAO PAULO                               03052000SP492350000106419394160534-1    11092014900BRADESCO S/A        2509201400000000000011500CC                                                                                                                                                                                                                                                                                                                                                                                           323608-44     000045
1015421021867COBR_CAUC_COR  COTRIJUI COOP AGROP & INDUSTRIAL        017331494000190LANCHONETE NOVA FAGUNDES LTDA ME        AVENIDA FAGUNDES FILHO 725              SAO PAULO                               04304011SP492360000106422417160850-1    15092014900BRADESCO S/A        2909201400000000000011500CC                                                                                                                                                                                                                                                                                                                                                                                           323608-45     000046
1015421021867COBR_CAUC_COR  COTRIJUI COOP AGROP & INDUSTRIAL        003228332000116ZONA CENTRO BAR E REST. LTDA            AV VIEIRA DE CARVALHO 10                SAO PAULO                               01210010SP492370000106422981160910-1    16092014900BRADESCO S/A        2309201400000000000011500CC                                                                                                                                                                                                                                                                                                                                                                                           323608-46     000047
1015421021867COBR_CAUC_COR  COTRIJUI COOP AGROP & INDUSTRIAL        003446057000107SUPER 10 COM. CARNES E MERC. LT.        RUA ANGELO ALBERTO NESTI 83             OSASCO                                  06053060SP492380000106424983161115-1    17092014900BRADESCO S/A        0110201400000000000011600CC                                                                                                                                                                                                                                                                                                                                                                                           323608-47     000048
1015421021867COBR_CAUC_COR  COTRIJUI COOP AGROP & INDUSTRIAL        000333816000137KIN S REFEICOES CASEIRAS LTDA - ME      RUA SENADOR FEL MULLER                  TABOAO DA SERRA                         06754000SP492390000106421798160788-1    15092014900BRADESCO S/A        2909201400000000000011700CC                                                                                                                                                                                                                                                                                                                                                                                           323608-48     000049
1015421021867COBR_CAUC_COR  COTRIJUI COOP AGROP & INDUSTRIAL        007523594000164J M MUELLER                             RUA ALBINO MOMBERGER 18                 NOVO HAMBURGO                           93546670RS492400000103186208107428-1    09092014900BRADESCO S/A        2309201400000000000011800CC                                                                                                                                                                                                                                                                                                                                                                                           323608-49     000050
1015421021867COBR_CAUC_COR  COTRIJUI COOP AGROP & INDUSTRIAL        088938329000149KARIMEX COMPONENES ELETRONICOS LTD      RUA AMERICO BRASILIENSE                 SAO PAULO                               04715004SP492410000106422263160835-1    15092014900BRADESCO S/A        2909201400000000000011900CC                                                                                                                                                                                                                                                                                                                                                                                           323608-50     000051
1015421021867COBR_CAUC_COR  COTRIJUI COOP AGROP & INDUSTRIAL        097196687000114ECONOMIZE AGORA MERCADO LTDA            R.PRESIDENTE KENNEDY 1039               SAPIRANGA                               93800000RS492420000103183284107076-1    02092014900BRADESCO S/A        2309201400000000000011960CC                                                                                                                                                                                                                                                                                                                                                                                           323608-51     000052
1015421021867COBR_CAUC_COR  COTRIJUI COOP AGROP & INDUSTRIAL        013057984000199JF BAR DA VILA LTDA - ME                RUA JOAQUIM FLORIANO                    SAO PAULO                               04534012SP492430000106426099161236-1    18092014900BRADESCO S/A        2509201400000000000011990CC                                                                                                                                                                                                                                                                                                                                                                                           323608-52     000053
1015421021867COBR_CAUC_COR  COTRIJUI COOP AGROP & INDUSTRIAL        044899284000175PANIF.FLOR DAS VILAS BARUERI L          AV CAPITAO FRANCISCO CEZAR 01           BARUERI                                 06415000SP492440000106421411160750-1    15092014900BRADESCO S/A        2909201400000000000011990CC                                                                                                                                                                                                                                                                                                                                                                                           323608-53     000054
1015421021867COBR_CAUC_COR  COTRIJUI COOP AGROP & INDUSTRIAL        096376140000138ALAI`S LANCHES LTDA                     R SAO SEBASTIAO 35                      SAO PAULO                               04144060SP492450000106423227160935-1    16092014900BRADESCO S/A        2309201400000000000012003CC                                                                                                                                                                                                                                                                                                                                                                                           323608-54     000055
1015421021867COBR_CAUC_COR  COTRIJUI COOP AGROP & INDUSTRIAL        072794316000103PANIFICADORA E CONF.GOLIVER LT          R ANTONIO DIAS MOURA 666                SAO PAULO                               08180380SP492460000106421127160721-1    15092014900BRADESCO S/A        2909201400000000000012163CC                                                                                                                                                                                                                                                                                                                                                                                           323608-55     000056
1015421021867COBR_CAUC_COR  COTRIJUI COOP AGROP & INDUSTRIAL        000482447000144LEANDRO ANGELO CAMPIOL ME               RUA BENTO GONCALVES 1915                ESTEIO                                  93265350RS492470000103186305107436-1    09092014900BRADESCO S/A        2309201400000000000012250CC                                                                                                                                                                                                                                                                                                                                                                                           323608-56     000057
1015421021867COBR_CAUC_COR  COTRIJUI COOP AGROP & INDUSTRIAL        052820198000153LANCHONETE MOON SHINE LTDA              RUA CUBATAO 57                          SAO PAULO                               04013040SP492480000106426251161252-1    18092014900BRADESCO S/A        0210201400000000000012483CC                                                                                                                                                                                                                                                                                                                                                                                           323608-57     000058
1015421021867COBR_CAUC_COR  COTRIJUI COOP AGROP & INDUSTRIAL        010625193000120E D N BARBOSA REST E PAST LTDA          R. JOSE BONIFACIO 1560                  DIADEMA                                 09980150SP492490000106425319161148-1    17092014900BRADESCO S/A        2409201400000000000012500CC                                                                                                                                                                                                                                                                                                                                                                                           323608-58     000059
1015421021867COBR_CAUC_COR  COTRIJUI COOP AGROP & INDUSTRIAL        013461018000132MERCADO E MERCEARIA PORTO SEGURO L      AVENIDA PROFESSOR ALIPIO DE BARROS      SAO PAULO                               08180000SP492500000106420317160640-1    12092014900BRADESCO S/A        2809201400000000000012500CC                                                                                                                                                                                                                                                                                                                                                                                           323608-59     000060
1015421021867COBR_CAUC_COR  COTRIJUI COOP AGROP & INDUSTRIAL        095443479000147IRINEU ROESCH                           RUA GASPAR SILVEIRA MARTINS 1021        SANTA CRUZ DO S                         96825000RS492510000103187069107516-1    10092014900BRADESCO S/A        2409201400000000000012700CC                                                                                                                                                                                                                                                                                                                                                                                           323608-60     000061
1015421021867COBR_CAUC_COR  COTRIJUI COOP AGROP & INDUSTRIAL        004502045000115SILVIA JAQUELINE ORLAND BORGES          RUA JORGE CRISOSTOMO DA COSTA 80        GRAVATAI                                94150140RS492520000103186747107479-1    09092014900BRADESCO S/A        2309201400000000000012800CC                                                                                                                                                                                                                                                                                                                                                                                           323608-61     000062
1015421021867COBR_CAUC_COR  COTRIJUI COOP AGROP & INDUSTRIAL        013218013000183MARIA DA PAIXAO RAMOS MIRANDA ACOU      RUA PINOGUACU                           SAO PAULO                               03925050SP492530000106417235160299-1    09092014900BRADESCO S/A        2309201400000000000013069CC                                                                                                                                                                                                                                                                                                                                                                                           323608-62     000063
1015421021867COBR_CAUC_COR  COTRIJUI COOP AGROP & INDUSTRIAL        054083084000101CASA LAN. NOVA PRINCESINHA LTD          R DR.GENTIL LEITE MARTINS 92            SAO PAULO                               04648001SP492540000106423626160975-1    16092014900BRADESCO S/A        2309201400000000000013115CC                                                                                                                                                                                                                                                                                                                                                                                           323608-63     000064
1015421021867COBR_CAUC_COR  COTRIJUI COOP AGROP & INDUSTRIAL        013078327000128M. H. O. RESTAURANTE LTDA - ME          RUA AURORA                              SAO PAULO                               01209003SP492550000106422000160809-1    15092014900BRADESCO S/A        2909201400000000000013115CC                                                                                                                                                                                                                                                                                                                                                                                           323608-64     000065
1015421021867COBR_CAUC_COR  COTRIJUI COOP AGROP & INDUSTRIAL        016820140000146RONALDO DA SILVA DAGOSTIM-RONALDO       AV MAUA 390                             BUTIA                                   96750000RS492560000103187662107584-1    10092014900BRADESCO S/A        0110201400000000000013140CC                                                                                                                                                                                                                                                                                                                                                                                           323608-65     000066
1015421021867COBR_CAUC_COR  COTRIJUI COOP AGROP & INDUSTRIAL        013782604000189M C DE OLIVEIRA SANTOS RESTAURENTE      AVENIDA PIRES DO RIO                    SAO PAULO                               08240005SP492570000106420325160641-1    12092014900BRADESCO S/A        2809201400000000000013272CC                                                                                                                                                                                                                                                                                                                                                                                           323608-66     000067
1015421021867COBR_CAUC_COR  COTRIJUI COOP AGROP & INDUSTRIAL        017252238000107ADILSON FERREIRA DE MELO ACOUGUE -      RUA BOM JESUS DA PENHA 409              SAO PAULO                               08441330SP492580000106424703161087-1    17092014900BRADESCO S/A        0110201400000000000013351CC                                                                                                                                                                                                                                                                                                                                                                                           323608-67     000068
1015421021867COBR_CAUC_COR  COTRIJUI COOP AGROP & INDUSTRIAL        008657337000188SUPERMERCADO FLAQUER LTDA EPP           AV. SENADOR FLAQUER 862                 SAO BERNARDO DO                         09725443SP492590000106426706166393-1    18092014900BRADESCO S/A        2509201400000000000013356CC                                                                                                                                                                                                                                                                                                                                                                                           323608-68     000069
1015421021867COBR_CAUC_COR  COTRIJUI COOP AGROP & INDUSTRIAL        019106791000167EVANDRO LOUZADA DA SILVA                RUA SANTA TEREZINHA 10                  CHARQUEADAS                             96745000RS492600000103187620107576-1    10092014900BRADESCO S/A        2409201400000000000013539CC                                                                                                                                                                                                                                                                                                                                                                                           323608-69     000070
1015421021867COBR_CAUC_COR  COTRIJUI COOP AGROP & INDUSTRIAL        001536350000130CASA DE CARNES MARACANA LTDA            RUA BERNARDINO DE CAMPOS 36             SANTO ANDRE                             09015010SP492610000106416611160237-1    09092014900BRADESCO S/A        2309201400000000000013577CC                                                                                                                                                                                                                                                                                                                                                                                           323608-70     000071
1015421021867COBR_CAUC_COR  COTRIJUI COOP AGROP & INDUSTRIAL        019385181000140MARIA CLARICE ANTUNES                   AVENIDA PATOS 1236                      GUARULHOS                               07222010SP492620000106425122161129-1    17092014900BRADESCO S/A        2409201400000000000013577CC                                                                                                                                                                                                                                                                                                                                                                                           323608-71     000072
1015421021867COBR_CAUC_COR  COTRIJUI COOP AGROP & INDUSTRIAL        015579458000114PINGO DOCE REST. ELANCHONETE LTD        AV. GUILHERME GIORGE 107                SAO PAULO                               03422000SP492630000106419912160586-1    11092014900BRADESCO S/A        2509201400000000000013577CC                                                                                                                                                                                                                                                                                                                                                                                           323608-72     000073
1015421021867COBR_CAUC_COR  COTRIJUI COOP AGROP & INDUSTRIAL        020133794000179RAIMUNDA NEUZA MORAES DE SOUZA          RUA TANQUINHO 32                        GUARULHOS                               07172390SP492640000106426498161276-1    18092014900BRADESCO S/A        2509201400000000000013577CC                                                                                                                                                                                                                                                                                                                                                                                           323608-73     000074
1015421021867COBR_CAUC_COR  COTRIJUI COOP AGROP & INDUSTRIAL        008199898000180ESTRELA DA BORGES LANCHONETE LTDA       RUA MARSELHESA                          SAO PAULO                               04020060SP492650000106426269161253-1    18092014900BRADESCO S/A        0210201400000000000013604CC                                                                                                                                                                                                                                                                                                                                                                                           323608-74     000075
1015421021867COBR_CAUC_COR  COTRIJUI COOP AGROP & INDUSTRIAL        010882797000151PAES E DOCES FORNARIA IPIRANGA          RUA COSTA AGUIAR 701                    SAO PAULO                               04204000SP492660000106421496160758-1    15092014900BRADESCO S/A        2909201400000000000013604CC                                                                                                                                                                                                                                                                                                                                                                                           323608-75     000076
1015421021867COBR_CAUC_COR  COTRIJUI COOP AGROP & INDUSTRIAL        004597875000173MARLENE WADENPHULAZEREDO                RUA SANTA MARIA 238                     TRIUNFO                                 95840000RS492670000103187379107547-1    10092014900BRADESCO S/A        2409201400000000000013710CC                                                                                                                                                                                                                                                                                                                                                                                           323608-76     000077
1015421021867COBR_CAUC_COR  COTRIJUI COOP AGROP & INDUSTRIAL        090241969000147KAPPAUN E MULLER LTDA                   RUA DOM PEDRO II 846                    SANTA CRUZ DO S                         96845450RS492680000103187051107515-1    10092014900BRADESCO S/A        2409201400000000000013800CC                                                                                                                                                                                                                                                                                                                                                                                           323608-77     000078
1015421021867COBR_CAUC_COR  COTRIJUI COOP AGROP & INDUSTRIAL        004866647000151A.J. CONSOLACAO PAES E DOCES L          RUA DA CONSOLACAO 2728                  SAO PAULO                               01416000SP492690000106424461161063-1    17092014900BRADESCO S/A        0110201400000000000013900CC                                                                                                                                                                                                                                                                                                                                                                                           323608-78     000079
1015421021867COBR_CAUC_COR  COTRIJUI COOP AGROP & INDUSTRIAL        047630868000139BAR CASA DO NORTE BILL MELAO            AV LUIZ PIRES DE MINAS 315              SAO PAULO                               03933070SP492700000106426935161320-1    18092014900BRADESCO S/A        0210201400000000000013900CC                                                                                                                                                                                                                                                                                                                                                                                           323608-79     000080
1015421021867COBR_CAUC_COR  COTRIJUI COOP AGROP & INDUSTRIAL        065059719000143CHAMARIZ LANCH. E REST. LTDA            AVENIDAJAMARIS 980                      SAO PAULO                               04078002SP492710000106423391160952-1    16092014900BRADESCO S/A        3009201400000000000013900CC                                                                                                                                                                                                                                                                                                                                                                                           323608-80     000081
1015421021867COBR_CAUC_COR  COTRIJUI COOP AGROP & INDUSTRIAL        061123469000102CHURRASCARIA ROUXINOL LTDA              AVENIDAROUXINOL 818                     SAO PAULO                               04516001SP492720000106422212160830-1    15092014900BRADESCO S/A        2909201400000000000013900CC                                                                                                                                                                                                                                                                                                                                                                                           323608-81     000082
1015421021867COBR_CAUC_COR  COTRIJUI COOP AGROP & INDUSTRIAL        002426467000123DALDON E DALDON LTDA                    AV PERNAMBUCO 1026                      PORTO ALEGRE                            90240001RS492730000103187832107605-1    10092014900BRADESCO S/A        2409201400000000000013900CC                                                                                                                                                                                                                                                                                                                                                                                           323608-82     000083
1015421021867COBR_CAUC_COR  COTRIJUI COOP AGROP & INDUSTRIAL        012111913000164FABIANE LONGARAI GARCIA                 RUA ROBERTO CARDOSO 265                 BUTIA                                   96750000RS492740000103187719107592-1    10092014900BRADESCO S/A        2409201400000000000013900CC                                                                                                                                                                                                                                                                                                                                                                                           323608-83     000084
1015421021867COBR_CAUC_COR  COTRIJUI COOP AGROP & INDUSTRIAL        090184961000196IRIS TEREZINHA DOS S. SOUZA             RUA CAIBOATE 411                        PORTO ALEGRE                            91570510RS492750000103187573107570-1    10092014900BRADESCO S/A        2409201400000000000013900CC                                                                                                                                                                                                                                                                                                                                                                                           323608-84     000085
1015421021867COBR_CAUC_COR  COTRIJUI COOP AGROP & INDUSTRIAL        061528493000121LANCH.MOEMA CHIC LTDA                   PCA N.SRA APARECIDA, 113 113            SAO PAULO                               04075010SP492760000106422123160821-1    15092014900BRADESCO S/A        2909201400000000000013900CC                                                                                                                                                                                                                                                                                                                                                                                           323608-85     000086
1015421021867COBR_CAUC_COR  COTRIJUI COOP AGROP & INDUSTRIAL        005127094000188LANCHONETE EIB LTDA ME                  ALAMEDA NHAMBIQUARAS 799                SAO PAULO                               04090011SP492770000106422131160822-1    15092014900BRADESCO S/A        2909201400000000000013900CC                                                                                                                                                                                                                                                                                                                                                                                           323608-86     000087
1015421021867COBR_CAUC_COR  COTRIJUI COOP AGROP & INDUSTRIAL        053352050000102PAES D.BEIJA FLOR DO ITAIM LTDA         R. SALVADOR CARDOSO 10                  SAO PAULO                               04533050SP492780000106422191160828-1    15092014900BRADESCO S/A        2909201400000000000013900CC                                                                                                                                                                                                                                                                                                                                                                                           323608-87     000088
1015421021867COBR_CAUC_COR  COTRIJUI COOP AGROP & INDUSTRIAL        046282448000146PAN.CONF. R. DO IMPERADOR LTDA          AV. LUIZ PIRES DE MINAS 703             SAO PAULO                               03933070SP492790000106422379160846-1    15092014900BRADESCO S/A        2909201400000000000013900CC                                                                                                                                                                                                                                                                                                                                                                                           323608-88     000089
1015421021867COBR_CAUC_COR  COTRIJUI COOP AGROP & INDUSTRIAL        047890926000163PANIFICADORA BOM VIZINHO LTDA           R. PROFESOR PAULO MANGABEIRA ALBERNAZ 20SAO PAULO                               04405030SP492800000106423618160974-1    16092014900BRADESCO S/A        3009201400000000000013900CC                                                                                                                                                                                                                                                                                                                                                                                           323608-89     000090
1015421021867COBR_CAUC_COR  COTRIJUI COOP AGROP & INDUSTRIAL        003195322000121RESTAURANTE 1010 BRANCO LTDA            R IGUATEMI 500                          SAO PAULO                               01451010SP492810000106421674160776-1    15092014900BRADESCO S/A        2909201400000000000013900CC                                                                                                                                                                                                                                                                                                                                                                                           323608-90     000091
1015421021867COBR_CAUC_COR  COTRIJUI COOP AGROP & INDUSTRIAL        007287847000148RESTAURANTE TSURU LTDA ME               RUA VERGUEIRO                           SAO PAULO                               04102001SP492820000106426188161245-1    18092014900BRADESCO S/A        0210201400000000000013900CC                                                                                                                                                                                                                                                                                                                                                                                           323608-91     000092
1015421021867COBR_CAUC_COR  COTRIJUI COOP AGROP & INDUSTRIAL        009103180000101VILAREIJO BAR GRILL LTDA EPP            RUA BIANCHI BERTOLDI 68                 SAO PAULO                               05422070SP492830000106426048161231-1    18092014900BRADESCO S/A        0210201400000000000013900CC                                                                                                                                                                                                                                                                                                                                                                                           323608-92     000093
1015421021867COBR_CAUC_COR  COTRIJUI COOP AGROP & INDUSTRIAL        046814422000100PANIF. CONF. BOA VIAGEM LTDA            R MARIO ROSSI 12                        SAO BERNARDO DO                         09725430SP492840000106426692161296-1    18092014900BRADESCO S/A        2509201400000000000013924CC                                                                                                                                                                                                                                                                                                                                                                                           323608-93     000094
1015421021867COBR_CAUC_COR  COTRIJUI COOP AGROP & INDUSTRIAL        009366636000126RESTAURANTE NOVA HADDOCK LTDA EPP       RUA HADDOCK LOBO 179                    SAO PAULO                               01414001SP492850000106420708160677-1    12092014900BRADESCO S/A        2809201400000000000013969CC                                                                                                                                                                                                                                                                                                                                                                                           323608-94     000095
1015421021867COBR_CAUC_COR  COTRIJUI COOP AGROP & INDUSTRIAL        047348123000181BAR E LANCHES BOM CLIMA LTDA            AV. TIRADENTES, 3445                    GUARULHOS                               07090000SP492860000106423791160992-1    16092014900BRADESCO S/A        2309201400000000000014000CC                                                                                                                                                                                                                                                                                                                                                                                           323608-95     000096
1015421021867COBR_CAUC_COR  COTRIJUI COOP AGROP & INDUSTRIAL        006538023000130CASA DE FRIOS ESTRELA DA BAHIA LTD      AVENIDA NOSSA SENHORA DOS NAVEGANTES 103DIADEMA                                 09972260SP492870000106417685160353-1    10092014900BRADESCO S/A        2409201400000000000014000CC                                                                                                                                                                                                                                                                                                                                                                                           323608-96     000097
1015421021867COBR_CAUC_COR  COTRIJUI COOP AGROP & INDUSTRIAL        003992649000124FIA E FILO RESTAURANTE LT-ME            RUA NATAL 624                           SAO PAULO                               03186030SP492880000106419416160536-1    11092014900BRADESCO S/A        2509201400000000000014000CC                                                                                                                                                                                                                                                                                                                                                                                           323608-97     000098
1015421021867COBR_CAUC_COR  COTRIJUI COOP AGROP & INDUSTRIAL        046292330000107PANIFICADORA JD 9 DE JULHO LTD          AV ANDRE DE ALMEIDA 1275                SAO PAULO                               03950000SP492890000106418410160426-1    10092014900BRADESCO S/A        2409201400000000000014489CC                                                                                                                                                                                                                                                                                                                                                                                           323608-98     000099
1015421021867COBR_CAUC_COR  COTRIJUI COOP AGROP & INDUSTRIAL        068117134000120PANIFICADORA NOVA GUAXUPE LTDA          R. JOAO RAMALHO 409                     DIADEMA                                 09961220SP492900000106423987161011-1    16092014900BRADESCO S/A        2309201400000000000014489CC                                                                                                                                                                                                                                                                                                                                                                                           323608-99     000100
1015421021867COBR_CAUC_COR  COTRIJUI COOP AGROP & INDUSTRIAL        088019013000153MILAO TURIS HOTEL                       AV ASSIS BRASIL 7675                    PORTO ALEGRE                            91140001RS492910000103186798107485-1    09092014900BRADESCO S/A        2309201400000000000014512CC                                                                                                                                                                                                                                                                                                                                                                                           323608-100    000101
1015421021867COBR_CAUC_COR  COTRIJUI COOP AGROP & INDUSTRIAL        007705838000120MORUMBI CHIC LANCHONETE LTDA ME         AV. MORUMBI 8784                        SAO PAULO                               04703002SP492920000106424827161099-1    17092014900BRADESCO S/A        2409201400000000000014655CC                                                                                                                                                                                                                                                                                                                                                                                           323608-101    000102
1015421021867COBR_CAUC_COR  COTRIJUI COOP AGROP & INDUSTRIAL        010668425000127JULIO P. DE F. COSTA - ME               R. PROF. AHEMAR A. PRADO 838            SAO PAULO                               03945010SP492930000106424274161040-1    16092014900BRADESCO S/A        3009201400000000000014719CC                                                                                                                                                                                                                                                                                                                                                                                           323608-102    000103
1015421021867COBR_CAUC_COR  COTRIJUI COOP AGROP & INDUSTRIAL        018334779000147MARIA ROSEANE DE LIMA                   RUA CARAMURU 1515                       SAO PAULO                               04138002SP492940000106426145161241-1    18092014900BRADESCO S/A        2509201400000000000014827CC                                                                                                                                                                                                                                                                                                                                                                                           323608-103    000104
1015421021867COBR_CAUC_COR  COTRIJUI COOP AGROP & INDUSTRIAL        004540500000177GELSON CIROLINI                         RJULIO DIAS DE SOUZA 375                SANTA MARIA                             97032220RS492950000100461283203980-1    15092014900BRADESCO S/A        1310201400000000000014906CC                                                                                                                                                                                                                                                                                                                                                                                           323608-104    000105
1015421021867COBR_CAUC_COR  COTRIJUI COOP AGROP & INDUSTRIAL        094742632000174COMERCIAL DE ALIM. ROTH LTDA            AVENIDA DEPUTADO EUCLIDES KLIMANN 221   SANTA CRUZ DO S                         96840010RS492960000103186917107501-1    10092014900BRADESCO S/A        2409201400000000000015000CC                                                                                                                                                                                                                                                                                                                                                                                           323608-105    000106
1015421021867COBR_CAUC_COR  COTRIJUI COOP AGROP & INDUSTRIAL        065943680000122BAR E MERC LANCH THEIS LTDA             R ANGELO BUNIOTO 224                    SAO PAULO                               03975070SP492970000106420155160610-1    11092014900BRADESCO S/A        0210201400000000000015282CC                                                                                                                                                                                                                                                                                                                                                                                           323608-106    000107
1015421021867COBR_CAUC_COR  COTRIJUI COOP AGROP & INDUSTRIAL        090105677000187PESSI E DEMARCHI SUPERMERCADO LTDA      BENJAMIN CONSTANT 3362                  LAJEADO                                 95900000RS492980000103183608107112-1    03092014900BRADESCO S/A        2409201400000000000015390CC                                                                                                                                                                                                                                                                                                                                                                                           323608-107    000108
1015421021867COBR_CAUC_COR  COTRIJUI COOP AGROP & INDUSTRIAL        003688511000136ADELAIDE RAPAKI PRIMA                   EST RINCAO DOS PINHEIROS S/N            TRIUNFO                                 95840000RS492990000103187344107544-1    10092014900BRADESCO S/A        2409201400000000000015395CC                                                                                                                                                                                                                                                                                                                                                                                           323608-108    000109
1015421021867COBR_CAUC_COR  COTRIJUI COOP AGROP & INDUSTRIAL        058370628000169ROTISSERIA RIO GRANDE LTDA ME           R. RIO GRANDE 398                       SAO PAULO                               04018001SP493000000106426242161251-1    18092014900BRADESCO S/A        0210201400000000000016986CC                                                                                                                                                                                                                                                                                                                                                                                           323608-109    000110
1015421021867COBR_CAUC_COR  COTRIJUI COOP AGROP & INDUSTRIAL        062838271000178LARFE COM. GENEROS ALIMEN. LTD          RUA XIRIRICA 1086                       SAO PAULO                               03428000SP493010000106425530161170-1    17092014900BRADESCO S/A        0110201400000000000017072CC                                                                                                                                                                                                                                                                                                                                                                                           323608-110    000111
1015421021867COBR_CAUC_COR  COTRIJUI COOP AGROP & INDUSTRIAL        003112724000115CLAUDIO LEITE SILVA BARUERI ME          R SEIKITI NAKAYAMA 06                   BARUERI                                 06413010SP493020000106421445160753-1    15092014900BRADESCO S/A        2909201400000000000017104CC                                                                                                                                                                                                                                                                                                                                                                                           323608-111    000112
1015421021867COBR_CAUC_COR  COTRIJUI COOP AGROP & INDUSTRIAL        003190662000160MARLETE FELICIANO SANTOS VEIGA          R. SAO FAUSTINO 26                      SAO BERNARDO DO                         09820240SP493030000106426684161295-1    18092014900BRADESCO S/A        2509201400000000000017120CC                                                                                                                                                                                                                                                                                                                                                                                           323608-112    000113
1015421021867COBR_CAUC_COR  COTRIJUI COOP AGROP & INDUSTRIAL        005249170000128CHURRASCARIA BRASIL LTDA                RUA ARACA 637                           CANOAS                                  92310030RS493040000103187824107604-1    10092014900BRADESCO S/A        2409201400000000000017153CC                                                                                                                                                                                                                                                                                                                                                                                           323608-113    000114
1015421021867COBR_CAUC_COR  COTRIJUI COOP AGROP & INDUSTRIAL        018596276000140MARIA L. SILVA DOS SANTOS ACOUGUE       RUA JOAO AUGUSTO SILVEIRA 250           SAO BERNARDO DO                         09851715SP493050000106423979161010-1    16092014900BRADESCO S/A        2309201400000000000017167CC                                                                                                                                                                                                                                                                                                                                                                                           323608-114    000115
1015421021867COBR_CAUC_COR  COTRIJUI COOP AGROP & INDUSTRIAL        008143095000104LANCHES MILLENNIUM II P.E.LTME          R PAULO EIRO 278                        SAO PAULO                               04752010SP493060000106426315161258-1    18092014900BRADESCO S/A        2509201400000000000017168CC                                                                                                                                                                                                                                                                                                                                                                                           323608-115    000116
1015421021867COBR_CAUC_COR  COTRIJUI COOP AGROP & INDUSTRIAL        010198567000178KATIUSCIA DAIANE KIRSCH                 RUA PAISSANDU 477                       SANTA MARIA                             97020600RS493070000100449542202703-1    01092014900BRADESCO S/A        2909201400000000000017296CC                                                                                                                                                                                                                                                                                                                                                                                           323608-116    000117
1015421021867COBR_CAUC_COR  COTRIJUI COOP AGROP & INDUSTRIAL        019935560000166JOSE MAURICIO DE ALMEIRA PEREIRA        RUA SANTO ANTONIO 2                     CARAPICUIBA                             06317010SP493080000106424941161111-1    17092014900BRADESCO S/A        2409201400000000000017495CC                                                                                                                                                                                                                                                                                                                                                                                           323608-117    000118
1015421021867COBR_CAUC_COR  COTRIJUI COOP AGROP & INDUSTRIAL        096583562000184MDF CAFE EXPRESSO LTDA                  RENATO PAES DE BARROS                   SAO PAULO                               04530000SP493090000106424398161056-1    17092014900BRADESCO S/A        0110201400000000000017593CC                                                                                                                                                                                                                                                                                                                                                                                           323608-118    000119
1015421021867COBR_CAUC_COR  COTRIJUI COOP AGROP & INDUSTRIAL        010937883000114CLEUTO FIGUEIRA DA SILVA                RUA PROJETADA A 319                     GUAIBA                                  92500000RS493100000103187255107534-1    10092014900BRADESCO S/A        2409201400000000000017700CC                                                                                                                                                                                                                                                                                                                                                                                           323608-119    000120
1015421021867COBR_CAUC_COR  COTRIJUI COOP AGROP & INDUSTRIAL        000467767000125CHAWAL RESTAURANTE LTDA                 RUA JOAO T MACHADO                      OSASCO                                  06023000SP493110000106422549160863-1    15092014900BRADESCO S/A        2909201400000000000017800CC                                                                                                                                                                                                                                                                                                                                                                                           323608-120    000121
1015421021867COBR_CAUC_COR  COTRIJUI COOP AGROP & INDUSTRIAL        090573882000177MINI MERCADO SAO LUCAS LTDA             RUA ERNESTO ZEUNE 215                   PORTO ALEGRE                            91751320RS493120000103186585107464-1    09092014900BRADESCO S/A        2309201400000000000017800CC                                                                                                                                                                                                                                                                                                                                                                                           323608-121    000122
1015421021867COBR_CAUC_COR  COTRIJUI COOP AGROP & INDUSTRIAL        011956078000109NFC - RESTAURANTE LTDA - ME             AVENIDA INTERLAGOS                      SAO PAULO                               04661200SP493130000106421992160808-1    15092014900BRADESCO S/A        2909201400000000000017961CC                                                                                                                                                                                                                                                                                                                                                                                           323608-122    000123
1015421021867COBR_CAUC_COR  COTRIJUI COOP AGROP & INDUSTRIAL        016986646000120DIRCEA DOS SANTOS ISLABAO               AV TIRADENTES 146                       PEDRO OSORIO                            96360000RS493140000100448503202595-3    01092014900BRADESCO S/A        2909201400000000000018063CC                                                                                                                                                                                                                                                                                                                                                                                           323608-123    000124
1015421021867COBR_CAUC_COR  COTRIJUI COOP AGROP & INDUSTRIAL        003488412000100PAES E DOCES FONSECA LTDA               AV MATEO BEI 1674                       SAO PAULO                               03949100SP493150000106420082160603-1    11092014900BRADESCO S/A        2509201400000000000018128CC                                                                                                                                                                                                                                                                                                                                                                                           323608-124    000125
1015421021867COBR_CAUC_COR  COTRIJUI COOP AGROP & INDUSTRIAL        065025314000194VILU COM.COMEST. E DERIVADOS            AVENIDA LEAO MACHADO 100                SAO PAULO                               05328020SP493160000106416654160263-1    09092014900BRADESCO S/A        2309201400000000000018200CC                                                                                                                                                                                                                                                                                                                                                                                           323608-125    000126
1015421021867COBR_CAUC_COR  COTRIJUI COOP AGROP & INDUSTRIAL        050570894000123BAR E EMPORIO GULART LTDA-ME            RUA CEZAR PENA RAMOS 1533               SAO PAULO                               02563001SP493170000106423014160913-1    16092014900BRADESCO S/A        3009201400000000000018288CC                                                                                                                                                                                                                                                                                                                                                                                           323608-126    000127
1015421021867COBR_CAUC_COR  COTRIJUI COOP AGROP & INDUSTRIAL        009129679000198C.C.E ROT.BOIADEIRO DO VALE LT          AVENIDA BARREIRA GRANDE 2047            SAO PAULO                               03916000SP493180000106424258161038-1    16092014900BRADESCO S/A        3009201400000000000018288CC                                                                                                                                                                                                                                                                                                                                                                                           323608-127    000128
1015421021867COBR_CAUC_COR  COTRIJUI COOP AGROP & INDUSTRIAL        049484017000150CASA DE CARNES E MERCEARIA KAPRIXO      R PEDRO SOARES ANDRADE, 208             SAO PAULO                               08021040SP493190000106418541160486-1    11092014900BRADESCO S/A        2509201400000000000018288CC                                                                                                                                                                                                                                                                                                                                                                                           323608-128    000129
1015421021867COBR_CAUC_COR  COTRIJUI COOP AGROP & INDUSTRIAL        046262796000151MERCEARIA BORTOLIM LTDA                 AL. DOS PIRATINIS 1083                  SAO PAULO                               04065053SP493200000106416859160251-1    09092014900BRADESCO S/A        2309201400000000000018288CC                                                                                                                                                                                                                                                                                                                                                                                           323608-129    000130
1015421021867COBR_CAUC_COR  COTRIJUI COOP AGROP & INDUSTRIAL        066041583000107KI SANDUBA LTDA ME                      AVENIDA MOEMA 161                       SAO PAULO                               04077020SP493210000106422140160823-1    15092014900BRADESCO S/A        2909201400000000000018348CC                                                                                                                                                                                                                                                                                                                                                                                           323608-130    000131
1015421021867COBR_CAUC_COR  COTRIJUI COOP AGROP & INDUSTRIAL        047885553000132CASA CARNES PRESIDENTE LTDA             RUA DOS RADIALISTAS, 10                 SAO PAULO                               05121030SP493220000106420911160700-1    15092014900BRADESCO S/A        2909201400000000000018400CC                                                                                                                                                                                                                                                                                                                                                                                           323608-131    000132
1015421021867COBR_CAUC_COR  COTRIJUI COOP AGROP & INDUSTRIAL        043046937000100PAES DOCES IRMAOS FONSECA LTDA          AV INCONFIDENCIA MINEIRA 1312           SAO PAULO                               03911000SP493230000106426951166418-1    18092014900BRADESCO S/A        0210201400000000000018485CC                                                                                                                                                                                                                                                                                                                                                                                           323608-132    000133
1015421021867COBR_CAUC_COR  COTRIJUI COOP AGROP & INDUSTRIAL        006969872000149CENTER CARNES NOBRE MONTTANA LTDA       RUA DO CORREGO                          SAO PAULO                               03420000SP493240000106425459161162-1    17092014900BRADESCO S/A        2409201400000000000018493CC                                                                                                                                                                                                                                                                                                                                                                                           323608-133    000134
1015421021867COBR_CAUC_COR  COTRIJUI COOP AGROP & INDUSTRIAL        073170797000149CENTER CARNES VALE DO DOURO             R GAL. ARGOLO 661                       SAO PAULO                               03350110SP493250000106421143160723-1    15092014900BRADESCO S/A        2909201400000000000018493CC                                                                                                                                                                                                                                                                                                                                                                                           323608-134    000135
1015421021867COBR_CAUC_COR  COTRIJUI COOP AGROP & INDUSTRIAL        009093870000127BISTRO GRILL LTDA EPP                   R SANTA VIRGINIA 248                    SAO PAULO                               03084000SP493260000106421470160756-1    15092014900BRADESCO S/A        2909201400000000000018600CC                                                                                                                                                                                                                                                                                                                                                                                           323608-135    000136
1015421021867COBR_CAUC_COR  COTRIJUI COOP AGROP & INDUSTRIAL        001321517000145CELSO NOBORU SHINOHARA - ME             RUA SANTA ROSA JUNIOR 283               SAO PAULO                               05579011SP493270000106423413160954-1    16092014900BRADESCO S/A        3009201400000000000018600CC                                                                                                                                                                                                                                                                                                                                                                                           323608-136    000137
1015421021867COBR_CAUC_COR  COTRIJUI COOP AGROP & INDUSTRIAL        043369198000198LANCHES GUAREMA LTDA                    RUADAS FIANDEIRAS 347                   SAO PAULO                               04545002SP493280000106421631160772-1    15092014900BRADESCO S/A        2909201400000000000018625CC                                                                                                                                                                                                                                                                                                                                                                                           323608-137    000138
1015421021867COBR_CAUC_COR  COTRIJUI COOP AGROP & INDUSTRIAL        047326368000108WAGNER DE JESUS ME                      A DR.ADEMAR PEREIRA BARROS 132          SAO PAULO                               03454070SP493290000106422778160886-1    15092014900BRADESCO S/A        2909201400000000000018675CC                                                                                                                                                                                                                                                                                                                                                                                           323608-138    000139
1015421021867COBR_CAUC_COR  COTRIJUI COOP AGROP & INDUSTRIAL        013975801000114KERLIN ALINE SCHIMITZ                   RUA SAO CAETANO 23                      SAO LEOPOLDO                            93010090RS493300000103186470107453-1    09092014900BRADESCO S/A        2309201400000000000018750CC                                                                                                                                                                                                                                                                                                                                                                                           323608-139    000140
1015421021867COBR_CAUC_COR  COTRIJUI COOP AGROP & INDUSTRIAL        008836137000192BAR E RESTAURANTE PEDRA FURADA LTD      RUA DONA SANTA VELOSO                   SAO PAULO                               02050000SP493310000106424576161074-1    17092014900BRADESCO S/A        2409201400000000000018800CC                                                                                                                                                                                                                                                                                                                                                                                           323608-140    000141
1015421021867COBR_CAUC_COR  COTRIJUI COOP AGROP & INDUSTRIAL        074372731000102DELIKATESSE PAES E DOCES LTDA           R JOSE NEVES 585                        SAO PAULO                               04650141SP493320000106423596160972-1    16092014900BRADESCO S/A        2309201400000000000019000CC                                                                                                                                                                                                                                                                                                                                                                                           323608-141    000142
