0REMESSANOTIFICAÇÃO ELETRONICA        99999999999999Bicbanco S/A                            Avenida Brigadeiro Faria Lima           4.440     2º andar  Itaim Bibi                    São Paulo                     04538132SPBicbanco S/A                                                                    06122012                                                                                                                                                                                                                                                                                                                                                                                                000001
1009421007668DIR_CREDIT     ATP TECNOLOGIA E PRODUTOS S/A           013660104000174AGIPLAN FINANCEIRA S/A                  RUA MOSTARDEIRO 322, CONJ 1101 E 1102   PORTO ALEGRE                            90430000RS3901900001                                                                                                                                          012070399           17052011000002307004/2011     28112012000403Prestação de serviços de digitalização de contratos, formalística e conciliação de arquivo lógico com o físico, guarda das imagens e físico com a dis-ponibilidade das imagens na web.                                                          038059846000170208922-1      000002
1050421002855COBR_CAUC_COR  C F SANTOS COM DE ALIMENTOS LTDA        004899316000118IMIFARMA PRODUTOS FARMAC. E COSMET      TV QUINTINO BOCAIUVA 381,381            BELEM                                   66053240PA391370000100000182111662      03122012900BRADESCO S/A        1201201300000000015331100CC                                                                                                                                                                                                                                                                                                                                                                                           208922-2      000003
1021420930887COBR_CAUC_BIC  DEDINI S/A INDUSTRIAS DE BASE           075717355001177USINA DE ACUCAR SANTA TEREZINHA LT      AV MARCELO MESSIAS BUSIQUIA 847 PQ INDUSMARINGA                                 87065006PR391290000106359864188771-5-5  29112012016CURITIBA            3012201200000000015758942CC                                                                                                                                                                                                                                                                                                                                                                                           208922-3      000004
1021420930887COBR_CAUC_BIC  DEDINI S/A INDUSTRIAS DE BASE           075717355001177USINA DE ACUCAR SANTA TEREZINHA LT      AV MARCELO MESSIAS BUSIQUIA 847 PQ INDUSMARINGA                                 87065006PR391290000206359881188354-5-5  29112012016CURITIBA            3012201200000000013708746CC                                                                                                                                                                                                                                                                                                                                                                                           208922-4      000005
1021420930887COBR_CAUC_BIC  DEDINI S/A INDUSTRIAS DE BASE           075717355001177USINA DE ACUCAR SANTA TEREZINHA LT      AV MARCELO MESSIAS BUSIQUIA 847 PQ INDUSMARINGA                                 87065006PR391290000306359911188352-5-5  29112012016CURITIBA            3012201200000000025367451CC                                                                                                                                                                                                                                                                                                                                                                                           208922-5      000006
1021420930887COBR_CAUC_BIC  DEDINI S/A INDUSTRIAS DE BASE           075717355001177USINA DE ACUCAR SANTA TEREZINHA LT      AV MARCELO MESSIAS BUSIQUIA 847 PQ INDUSMARINGA                                 87065006PR391290000406359945188612-5-5  29112012016CURITIBA            3012201200000000020565725CC                                                                                                                                                                                                                                                                                                                                                                                           208922-6      000007
1021420930887COBR_CAUC_BIC  DEDINI S/A INDUSTRIAS DE BASE           075717355001177USINA DE ACUCAR SANTA TEREZINHA LT      AV MARCELO MESSIAS BUSIQUIA 847 PQ INDUSMARINGA                                 87065006PR391290000506359988189295-5-5  29112012016CURITIBA            3012201200000000016193952CC                                                                                                                                                                                                                                                                                                                                                                                           208922-7      000008
1021420930887COBR_CAUC_BIC  DEDINI S/A INDUSTRIAS DE BASE           075717355001177USINA DE ACUCAR SANTA TEREZINHA LT      AV MARCELO MESSIAS BUSIQUIA 847 PQ INDUSMARINGA                                 87065006PR391290000606359996188231-5-5  29112012016CURITIBA            3012201200000000013653133CC                                                                                                                                                                                                                                                                                                                                                                                           208922-8      000009
1044421014794DIR_CREDIT     DROGUISTAS POTIGUARES REUNIDAS LTDA     007224991000135NAZARIA DISTRIBUIDORA DE PRODUTOS       AV BR 116, 3569 - KM 13 - MESSEJANA     NATAL                                   60842395RN3912500001                                                                                                                                          011655989           010620110000018862S/N         29112012000403LOCAÇÃO DE PRÉDIO COMERCIAL LOCALIZADO NA RUA DOS CAICÓS, 1620 - BAIRRODE ALECRIM - NATAL - RIO GRANDE DO NORTE.                                                                                                                                008401564000148208922-9      000010
1013421026390DIR_CREDIT     ECONOMICO AGRO PASTORIL INDL S/A        015191786000149VANÁDIO DE MARACÁS S.A.                 FAZENDA PATRICIO , KM 21 RDV MUNICIPAL  MARACÁS                                 45360000BA3915600001                                                                                                                                          012054170           300520110000022975            30112012000403servidão mineira de solo para fins de aproveitamento econômico dajazida do mineral vanádio e de outras ocorrências minerais que futuramente possam ser economicamente viáveis.                                                                  013963640000149208922-10     000011
1014420939021COBR_CAUC_BIC  EDITORA O DIA S/A                       011198242000158OSX CONSTRUCAO NAVAL S/A                DOM JAIME CAMARA 1703                   RIO DE JANEIRO                          20011001RJ3913200001024978510668147     30112012014RIO DE JANEIRO      1512201200000000023702000CC                                                                                                                                                                                                                                                                                                                                                                                           208922-11     000012
1014421018876DIR_CREDIT     ENGUIA GEN CE LTDA                      002328280000197ELEKTRO ELETRICIDADE E SERVIçOS S/A     RUA ARY ANTENOR DE SOUZA, 321/JDIM N AMECAMPINAS                                13053024SP3908100001                                                                                                                                          012067073           1003200600000122532085/2005-1629112012000401FORNECIMENTO DE ENERGIA.                                                                                                                                                                                                                        004735629000130208922-12     000013
1048421000338COBR_CAUC_COR  FRIGOESTRELA S.A. EM RECUP JUDICIAL     050947761001871IRMAOS RUSSI LTDA                       RUA LUIS ALLI FARDYN590SALA 03          CAJAMAR                                 07750000SP3913400001032812980024075201  02122012900BRADESCO S/A        0701201300000000010159106CC                                                                                                                                                                                                                                                                                                                                                                                           208922-13     000014
1016421009571COBR_CAUC_BIC  IMPORTADORA DE FRUTAS LA VIOLETERA      001644931000608A.S.E. DISTRIBUICAO LTDA                RUA SARGENTE EICLIDES, 110              ANAPOLIS                                75130390GO3913000001038443480021704701  29112012018GOIANIA             2712201200000000011231466CC                                                                                                                                                                                                                                                                                                                                                                                           208922-14     000015
1016421009571COBR_CAUC_BIC  IMPORTADORA DE FRUTAS LA VIOLETERA      002782071000623MEGAFORT DISTRIBUIDORA IMP. E EXPO      AV WILSON T RIBEIRO 1651 GP LUC 01      CONTAGEM                                32183680MG3913100001038443300021702901  29112012019BELO HORIZONTE      1001201300000000015964490CC                                                                                                                                                                                                                                                                                                                                                                                           208922-15     000016
1024420934410COBR_CAUC_BIC  INTERCOOP INT SUIN MED NORTE MT LTD     016559614000148SOBERANO INDUSTRIA E COMERCIO DE A      R. MANUEL DUARTE,167                    SAO GONCALO                             24430500RJ39135000010200049590389       21112012014RIO DE JANEIRO      1912201200000000012613200CC                                                                                                                                                                                                                                                                                                                                                                                           208922-16     000017
1023421008147DIR_CREDIT     ISO HOSPITAL DIA S/A                    058229691000180UNIMED DE SANTOS                        AV: ANA COSTA 430                       SAO PAULO                               11060002SP3915700001                                                                                                                                          012015560           220820120000022764            29112012000403Atendimento aos beneficiários da UNIMED DE SANTOS nas dependências daISO, compreendendo as especialidades de cirurgias e radioterapia.                                                                                                          002861413000196208922-17     000018
1022421007720COBR_CAUC_BIC  JUMIL-JUSTINO DE MORAIS IRMAOS S/A      081584278002441COOPERATIVA AGROINDUSTRIAL COPAGRI      AV 09 DE AGOSTO - CXP-192, 700          MARECHAL CANDID                         85960000PR391360000104453874133717E.01  30112012016CURITIBA            2012201200000000011300000CC                                                                                                                                                                                                                                                                                                                                                                                           208922-18     000019
1017421013340DIR_CREDIT     LIMPEL LIMPEZA URBANA LTDA              015339921000150SLEA SAO LUIZ ENGENHARIA AMBIENTAL S/A  RUA DOZE, 01, LOTE 1, QD G DIST INDUST  SAO LUIZ                                65090260MA3910700001                                                                                                                                          481013398           05052012000002260673.040.1005/30112012000404locação de equipamentos, conforme anexo 1.                                                                                                                                                                                                      002499321000108208922-19     000020
1037421008880COBR_CAUC_BIC  METALURGICA ONCE LTDA                   042365296001085KION S. A. F. E. A. LTDA                ROD. ENG. ERMENIO DE OLIV PENTEA,0      INDAIATUBA                              13341756SP39155000010457594124070       28112012021CAMPINAS            2501201300000000000901911CC                                                                                                                                                                                                                                                                                                                                                                                           208922-20     000021
1037421008880COBR_CAUC_BIC  METALURGICA ONCE LTDA                   042365296001085KION S. A. F. E. A. LTDA                ROD. ENG. ERMENIO DE OLIV PENTEA,0      INDAIATUBA                              13341756SP39155000020457461823975       23112012021CAMPINAS            2112201200000000000026051CC                                                                                                                                                                                                                                                                                                                                                                                           208922-21     000022
1037421008880COBR_CAUC_BIC  METALURGICA ONCE LTDA                   042365296001085KION S. A. F. E. A. LTDA                ROD. ENG. ERMENIO DE OLIV PENTEA,0      INDAIATUBA                              13341756SP39155000030457464223997       26112012021CAMPINAS            2112201200000000000901911CC                                                                                                                                                                                                                                                                                                                                                                                           208922-22     000023
1037421008880COBR_CAUC_BIC  METALURGICA ONCE LTDA                   042365296001085KION S. A. F. E. A. LTDA                ROD. ENG. ERMENIO DE OLIV PENTEA,0      INDAIATUBA                              13341756SP39155000040457465123996       26112012021CAMPINAS            2112201200000000000901911CC                                                                                                                                                                                                                                                                                                                                                                                           208922-23     000024
1037421008880COBR_CAUC_BIC  METALURGICA ONCE LTDA                   042365296001085KION S. A. F. E. A. LTDA                ROD. ENG. ERMENIO DE OLIV PENTEA,0      INDAIATUBA                              13341756SP39155000050457466923995       26112012021CAMPINAS            2112201200000000000901911CC                                                                                                                                                                                                                                                                                                                                                                                           208922-24     000025
1037421008880COBR_CAUC_BIC  METALURGICA ONCE LTDA                   042365296001085KION S. A. F. E. A. LTDA                ROD. ENG. ERMENIO DE OLIV PENTEA,0      INDAIATUBA                              13341756SP39155000060457467723994       26112012021CAMPINAS            2112201200000000000825754CC                                                                                                                                                                                                                                                                                                                                                                                           208922-25     000026
1037421008880COBR_CAUC_BIC  METALURGICA ONCE LTDA                   042365296001085KION S. A. F. E. A. LTDA                ROD. ENG. ERMENIO DE OLIV PENTEA,0      INDAIATUBA                              13341756SP39155000070457468523993       26112012021CAMPINAS            2112201200000000000825754CC                                                                                                                                                                                                                                                                                                                                                                                           208922-26     000027
1037421008880COBR_CAUC_BIC  METALURGICA ONCE LTDA                   042365296001085KION S. A. F. E. A. LTDA                ROD. ENG. ERMENIO DE OLIV PENTEA,0      INDAIATUBA                              13341756SP39155000080457469323992       26112012021CAMPINAS            2112201200000000000825754CC                                                                                                                                                                                                                                                                                                                                                                                           208922-27     000028
1037421008880COBR_CAUC_BIC  METALURGICA ONCE LTDA                   042365296001085KION S. A. F. E. A. LTDA                ROD. ENG. ERMENIO DE OLIV PENTEA,0      INDAIATUBA                              13341756SP39155000090457470723991       26112012021CAMPINAS            2112201200000000000985723CC                                                                                                                                                                                                                                                                                                                                                                                           208922-28     000029
1037421008880COBR_CAUC_BIC  METALURGICA ONCE LTDA                   042365296001085KION S. A. F. E. A. LTDA                ROD. ENG. ERMENIO DE OLIV PENTEA,0      INDAIATUBA                              13341756SP39155000100457471523990       26112012021CAMPINAS            2112201200000000000985723CC                                                                                                                                                                                                                                                                                                                                                                                           208922-29     000030
1037421008880COBR_CAUC_BIC  METALURGICA ONCE LTDA                   042365296001085KION S. A. F. E. A. LTDA                ROD. ENG. ERMENIO DE OLIV PENTEA,0      INDAIATUBA                              13341756SP39155000110457472323989       26112012021CAMPINAS            2112201200000000000492862CC                                                                                                                                                                                                                                                                                                                                                                                           208922-30     000031
1037421008880COBR_CAUC_BIC  METALURGICA ONCE LTDA                   042365296001085KION S. A. F. E. A. LTDA                ROD. ENG. ERMENIO DE OLIV PENTEA,0      INDAIATUBA                              13341756SP39155000120457473123988       26112012021CAMPINAS            2112201200000000000492862CC                                                                                                                                                                                                                                                                                                                                                                                           208922-31     000032
1037421008880COBR_CAUC_BIC  METALURGICA ONCE LTDA                   042365296001085KION S. A. F. E. A. LTDA                ROD. ENG. ERMENIO DE OLIV PENTEA,0      INDAIATUBA                              13341756SP39155000130457474023978       23112012021CAMPINAS            2112201200000000000005594CC                                                                                                                                                                                                                                                                                                                                                                                           208922-32     000033
1037421008880COBR_CAUC_BIC  METALURGICA ONCE LTDA                   042365296001085KION S. A. F. E. A. LTDA                ROD. ENG. ERMENIO DE OLIV PENTEA,0      INDAIATUBA                              13341756SP39155000140457577124050       27112012021CAMPINAS            2512201200000000000443410CC                                                                                                                                                                                                                                                                                                                                                                                           208922-33     000034
1037421008880COBR_CAUC_BIC  METALURGICA ONCE LTDA                   042365296001085KION S. A. F. E. A. LTDA                ROD. ENG. ERMENIO DE OLIV PENTEA,0      INDAIATUBA                              13341756SP39155000150457578924059       27112012021CAMPINAS            2512201200000000000124709CC                                                                                                                                                                                                                                                                                                                                                                                           208922-34     000035
1037421008880COBR_CAUC_BIC  METALURGICA ONCE LTDA                   042365296001085KION S. A. F. E. A. LTDA                ROD. ENG. ERMENIO DE OLIV PENTEA,0      INDAIATUBA                              13341756SP39155000160457579724058       27112012021CAMPINAS            2512201200000000000124709CC                                                                                                                                                                                                                                                                                                                                                                                           208922-35     000036
1037421008880COBR_CAUC_BIC  METALURGICA ONCE LTDA                   042365296001085KION S. A. F. E. A. LTDA                ROD. ENG. ERMENIO DE OLIV PENTEA,0      INDAIATUBA                              13341756SP39155000170457580124057       27112012021CAMPINAS            2512201200000000000376320CC                                                                                                                                                                                                                                                                                                                                                                                           208922-36     000037
1037421008880COBR_CAUC_BIC  METALURGICA ONCE LTDA                   042365296001085KION S. A. F. E. A. LTDA                ROD. ENG. ERMENIO DE OLIV PENTEA,0      INDAIATUBA                              13341756SP39155000180457581924056       27112012021CAMPINAS            2512201200000000000376320CC                                                                                                                                                                                                                                                                                                                                                                                           208922-37     000038
1037421008880COBR_CAUC_BIC  METALURGICA ONCE LTDA                   042365296001085KION S. A. F. E. A. LTDA                ROD. ENG. ERMENIO DE OLIV PENTEA,0      INDAIATUBA                              13341756SP39155000190457582724053       27112012021CAMPINAS            2512201200000000000427282CC                                                                                                                                                                                                                                                                                                                                                                                           208922-38     000039
1037421008880COBR_CAUC_BIC  METALURGICA ONCE LTDA                   042365296001085KION S. A. F. E. A. LTDA                ROD. ENG. ERMENIO DE OLIV PENTEA,0      INDAIATUBA                              13341756SP39155000200457583524052       27112012021CAMPINAS            2512201200000000000330792CC                                                                                                                                                                                                                                                                                                                                                                                           208922-39     000040
1037421008880COBR_CAUC_BIC  METALURGICA ONCE LTDA                   042365296001085KION S. A. F. E. A. LTDA                ROD. ENG. ERMENIO DE OLIV PENTEA,0      INDAIATUBA                              13341756SP39155000210457584324051       27112012021CAMPINAS            2512201200000000000443410CC                                                                                                                                                                                                                                                                                                                                                                                           208922-40     000041
1037421008880COBR_CAUC_BIC  METALURGICA ONCE LTDA                   042365296001085KION S. A. F. E. A. LTDA                ROD. ENG. ERMENIO DE OLIV PENTEA,0      INDAIATUBA                              13341756SP39155000220457585124055       27112012021CAMPINAS            2512201200000000000150756CC                                                                                                                                                                                                                                                                                                                                                                                           208922-41     000042
1037421008880COBR_CAUC_BIC  METALURGICA ONCE LTDA                   042365296001085KION S. A. F. E. A. LTDA                ROD. ENG. ERMENIO DE OLIV PENTEA,0      INDAIATUBA                              13341756SP39155000230457586024003       26112012021CAMPINAS            2901201300000000000901911CC                                                                                                                                                                                                                                                                                                                                                                                           208922-42     000043
1037421008880COBR_CAUC_BIC  METALURGICA ONCE LTDA                   042365296001085KION S. A. F. E. A. LTDA                ROD. ENG. ERMENIO DE OLIV PENTEA,0      INDAIATUBA                              13341756SP39155000240457590824066       28112012021CAMPINAS            2812201200000000000901911CC                                                                                                                                                                                                                                                                                                                                                                                           208922-43     000044
1037421008880COBR_CAUC_BIC  METALURGICA ONCE LTDA                   042365296001085KION S. A. F. E. A. LTDA                ROD. ENG. ERMENIO DE OLIV PENTEA,0      INDAIATUBA                              13341756SP39155000250457591624067       28112012021CAMPINAS            0401201300000000000901911CC                                                                                                                                                                                                                                                                                                                                                                                           208922-44     000045
1037421008880COBR_CAUC_BIC  METALURGICA ONCE LTDA                   042365296001085KION S. A. F. E. A. LTDA                ROD. ENG. ERMENIO DE OLIV PENTEA,0      INDAIATUBA                              13341756SP39155000260457592424068       28112012021CAMPINAS            1101201300000000000901911CC                                                                                                                                                                                                                                                                                                                                                                                           208922-45     000046
1037421008880COBR_CAUC_BIC  METALURGICA ONCE LTDA                   042365296001085KION S. A. F. E. A. LTDA                ROD. ENG. ERMENIO DE OLIV PENTEA,0      INDAIATUBA                              13341756SP39155000270457593224069       28112012021CAMPINAS            1801201300000000000901911CC                                                                                                                                                                                                                                                                                                                                                                                           208922-46     000047
1037421008880COBR_CAUC_BIC  METALURGICA ONCE LTDA                   042365296001085KION S. A. F. E. A. LTDA                ROD. ENG. ERMENIO DE OLIV PENTEA,0      INDAIATUBA                              13341756SP39155000280457738224164       30112012021CAMPINAS            1102201300000000000224123CC                                                                                                                                                                                                                                                                                                                                                                                           208922-47     000048
1037421008880COBR_CAUC_BIC  METALURGICA ONCE LTDA                   042365296001085KION S. A. F. E. A. LTDA                ROD. ENG. ERMENIO DE OLIV PENTEA,0      INDAIATUBA                              13341756SP39155000290457595924071       28112012021CAMPINAS            0102201300000000000601274CC                                                                                                                                                                                                                                                                                                                                                                                           208922-48     000049
1037421008880COBR_CAUC_BIC  METALURGICA ONCE LTDA                   042365296001085KION S. A. F. E. A. LTDA                ROD. ENG. ERMENIO DE OLIV PENTEA,0      INDAIATUBA                              13341756SP39155000300457596724072       28112012021CAMPINAS            0102201300000000000601274CC                                                                                                                                                                                                                                                                                                                                                                                           208922-49     000050
1037421008880COBR_CAUC_BIC  METALURGICA ONCE LTDA                   042365296001085KION S. A. F. E. A. LTDA                ROD. ENG. ERMENIO DE OLIV PENTEA,0      INDAIATUBA                              13341756SP39155000310457629724096       29112012021CAMPINAS            0102201300000000000825754CC                                                                                                                                                                                                                                                                                                                                                                                           208922-50     000051
1037421008880COBR_CAUC_BIC  METALURGICA ONCE LTDA                   042365296001085KION S. A. F. E. A. LTDA                ROD. ENG. ERMENIO DE OLIV PENTEA,0      INDAIATUBA                              13341756SP39155000320457630124095       29112012021CAMPINAS            3101201300000000000825754CC                                                                                                                                                                                                                                                                                                                                                                                           208922-51     000052
1037421008880COBR_CAUC_BIC  METALURGICA ONCE LTDA                   042365296001085KION S. A. F. E. A. LTDA                ROD. ENG. ERMENIO DE OLIV PENTEA,0      INDAIATUBA                              13341756SP39155000330457631924094       29112012021CAMPINAS            3001201300000000000825754CC                                                                                                                                                                                                                                                                                                                                                                                           208922-52     000053
1037421008880COBR_CAUC_BIC  METALURGICA ONCE LTDA                   042365296001085KION S. A. F. E. A. LTDA                ROD. ENG. ERMENIO DE OLIV PENTEA,0      INDAIATUBA                              13341756SP39155000340457632724103       29112012021CAMPINAS            0802201300000000000901911CC                                                                                                                                                                                                                                                                                                                                                                                           208922-53     000054
1037421008880COBR_CAUC_BIC  METALURGICA ONCE LTDA                   042365296001085KION S. A. F. E. A. LTDA                ROD. ENG. ERMENIO DE OLIV PENTEA,0      INDAIATUBA                              13341756SP39155000350457633524081       28112012021CAMPINAS            1912201200000000000133509CC                                                                                                                                                                                                                                                                                                                                                                                           208922-54     000055
1037421008880COBR_CAUC_BIC  METALURGICA ONCE LTDA                   042365296001085KION S. A. F. E. A. LTDA                ROD. ENG. ERMENIO DE OLIV PENTEA,0      INDAIATUBA                              13341756SP39155000360457634324102       29112012021CAMPINAS            0702201300000000000901911CC                                                                                                                                                                                                                                                                                                                                                                                           208922-55     000056
1037421008880COBR_CAUC_BIC  METALURGICA ONCE LTDA                   042365296001085KION S. A. F. E. A. LTDA                ROD. ENG. ERMENIO DE OLIV PENTEA,0      INDAIATUBA                              13341756SP39155000370457635124101       29112012021CAMPINAS            0602201300000000000901911CC                                                                                                                                                                                                                                                                                                                                                                                           208922-56     000057
1037421008880COBR_CAUC_BIC  METALURGICA ONCE LTDA                   042365296001085KION S. A. F. E. A. LTDA                ROD. ENG. ERMENIO DE OLIV PENTEA,0      INDAIATUBA                              13341756SP39155000380457636024100       29112012021CAMPINAS            0502201300000000000901911CC                                                                                                                                                                                                                                                                                                                                                                                           208922-57     000058
1037421008880COBR_CAUC_BIC  METALURGICA ONCE LTDA                   042365296001085KION S. A. F. E. A. LTDA                ROD. ENG. ERMENIO DE OLIV PENTEA,0      INDAIATUBA                              13341756SP39155000390457637824099       29112012021CAMPINAS            0402201300000000000901911CC                                                                                                                                                                                                                                                                                                                                                                                           208922-58     000059
1037421008880COBR_CAUC_BIC  METALURGICA ONCE LTDA                   042365296001085KION S. A. F. E. A. LTDA                ROD. ENG. ERMENIO DE OLIV PENTEA,0      INDAIATUBA                              13341756SP39155000400457638624097       29112012021CAMPINAS            0402201300000000000825754CC                                                                                                                                                                                                                                                                                                                                                                                           208922-59     000060
1037421008880COBR_CAUC_BIC  METALURGICA ONCE LTDA                   042365296001085KION S. A. F. E. A. LTDA                ROD. ENG. ERMENIO DE OLIV PENTEA,0      INDAIATUBA                              13341756SP39155000410457707224136       30112012021CAMPINAS            0502201300000000000825754CC                                                                                                                                                                                                                                                                                                                                                                                           208922-60     000061
1037421008880COBR_CAUC_BIC  METALURGICA ONCE LTDA                   042365296001085KION S. A. F. E. A. LTDA                ROD. ENG. ERMENIO DE OLIV PENTEA,0      INDAIATUBA                              13341756SP39155000420457715324167       30112012021CAMPINAS            0301201300000000000235620CC                                                                                                                                                                                                                                                                                                                                                                                           208922-61     000062
1037421008880COBR_CAUC_BIC  METALURGICA ONCE LTDA                   042365296001085KION S. A. F. E. A. LTDA                ROD. ENG. ERMENIO DE OLIV PENTEA,0      INDAIATUBA                              13341756SP39155000430457726924166       30112012021CAMPINAS            0101201300000000000235620CC                                                                                                                                                                                                                                                                                                                                                                                           208922-62     000063
1037421008880COBR_CAUC_BIC  METALURGICA ONCE LTDA                   042365296001085KION S. A. F. E. A. LTDA                ROD. ENG. ERMENIO DE OLIV PENTEA,0      INDAIATUBA                              13341756SP39155000440457727724165       30112012021CAMPINAS            1602201300000000000261476CC                                                                                                                                                                                                                                                                                                                                                                                           208922-63     000064
1037421008880COBR_CAUC_BIC  METALURGICA ONCE LTDA                   042365296001085KION S. A. F. E. A. LTDA                ROD. ENG. ERMENIO DE OLIV PENTEA,0      INDAIATUBA                              13341756SP39155000450457728524154       30112012021CAMPINAS            1202201300000000000825754CC                                                                                                                                                                                                                                                                                                                                                                                           208922-64     000065
1037421008880COBR_CAUC_BIC  METALURGICA ONCE LTDA                   042365296001085KION S. A. F. E. A. LTDA                ROD. ENG. ERMENIO DE OLIV PENTEA,0      INDAIATUBA                              13341756SP39155000460457729324153       30112012021CAMPINAS            1102201300000000000825754CC                                                                                                                                                                                                                                                                                                                                                                                           208922-65     000066
1037421008880COBR_CAUC_BIC  METALURGICA ONCE LTDA                   042365296001085KION S. A. F. E. A. LTDA                ROD. ENG. ERMENIO DE OLIV PENTEA,0      INDAIATUBA                              13341756SP39155000470457730724142       30112012021CAMPINAS            1302201300000000000901911CC                                                                                                                                                                                                                                                                                                                                                                                           208922-66     000067
1037421008880COBR_CAUC_BIC  METALURGICA ONCE LTDA                   042365296001085KION S. A. F. E. A. LTDA                ROD. ENG. ERMENIO DE OLIV PENTEA,0      INDAIATUBA                              13341756SP39155000480457731524141       30112012021CAMPINAS            1202201300000000000601274CC                                                                                                                                                                                                                                                                                                                                                                                           208922-67     000068
1037421008880COBR_CAUC_BIC  METALURGICA ONCE LTDA                   042365296001085KION S. A. F. E. A. LTDA                ROD. ENG. ERMENIO DE OLIV PENTEA,0      INDAIATUBA                              13341756SP39155000490457732324140       30112012021CAMPINAS            1102201300000000000601274CC                                                                                                                                                                                                                                                                                                                                                                                           208922-68     000069
1037421008880COBR_CAUC_BIC  METALURGICA ONCE LTDA                   042365296001085KION S. A. F. E. A. LTDA                ROD. ENG. ERMENIO DE OLIV PENTEA,0      INDAIATUBA                              13341756SP39155000500457733124139       30112012021CAMPINAS            0802201300000000000825754CC                                                                                                                                                                                                                                                                                                                                                                                           208922-69     000070
1037421008880COBR_CAUC_BIC  METALURGICA ONCE LTDA                   042365296001085KION S. A. F. E. A. LTDA                ROD. ENG. ERMENIO DE OLIV PENTEA,0      INDAIATUBA                              13341756SP39155000510457734024138       30112012021CAMPINAS            0702201300000000000825754CC                                                                                                                                                                                                                                                                                                                                                                                           208922-70     000071
1037421008880COBR_CAUC_BIC  METALURGICA ONCE LTDA                   042365296001085KION S. A. F. E. A. LTDA                ROD. ENG. ERMENIO DE OLIV PENTEA,0      INDAIATUBA                              13341756SP39155000520457735824137       30112012021CAMPINAS            0602201300000000000825754CC                                                                                                                                                                                                                                                                                                                                                                                           208922-71     000072
1037421008880COBR_CAUC_BIC  METALURGICA ONCE LTDA                   042365296001085KION S. A. F. E. A. LTDA                ROD. ENG. ERMENIO DE OLIV PENTEA,0      INDAIATUBA                              13341756SP39155000530457736624155       30112012021CAMPINAS            1302201300000000000825754CC                                                                                                                                                                                                                                                                                                                                                                                           208922-72     000073
1037421008880COBR_CAUC_BIC  METALURGICA ONCE LTDA                   042365296001085KION S. A. F. E. A. LTDA                ROD. ENG. ERMENIO DE OLIV PENTEA,0      INDAIATUBA                              13341756SP39155000540457737424156       30112012021CAMPINAS            0702201300000000000125118CC                                                                                                                                                                                                                                                                                                                                                                                           208922-73     000074
1037421008880COBR_CAUC_BIC  METALURGICA ONCE LTDA                   042365296001085KION S. A. F. E. A. LTDA                ROD. ENG. ERMENIO DE OLIV PENTEA,0      INDAIATUBA                              13341756SP39155000550457739124163       30112012021CAMPINAS            0902201300000000000189907CC                                                                                                                                                                                                                                                                                                                                                                                           208922-74     000075
1037421008880COBR_CAUC_BIC  METALURGICA ONCE LTDA                   042365296001085KION S. A. F. E. A. LTDA                ROD. ENG. ERMENIO DE OLIV PENTEA,0      INDAIATUBA                              13341756SP39155000560457740424162       30112012021CAMPINAS            0702201300000000000178038CC                                                                                                                                                                                                                                                                                                                                                                                           208922-75     000076
1037421008880COBR_CAUC_BIC  METALURGICA ONCE LTDA                   042365296001085KION S. A. F. E. A. LTDA                ROD. ENG. ERMENIO DE OLIV PENTEA,0      INDAIATUBA                              13341756SP39155000570457741224161       30112012021CAMPINAS            1702201300000000000148000CC                                                                                                                                                                                                                                                                                                                                                                                           208922-76     000077
1037421008880COBR_CAUC_BIC  METALURGICA ONCE LTDA                   042365296001085KION S. A. F. E. A. LTDA                ROD. ENG. ERMENIO DE OLIV PENTEA,0      INDAIATUBA                              13341756SP39155000580457742124160       30112012021CAMPINAS            1802201300000000000123333CC                                                                                                                                                                                                                                                                                                                                                                                           208922-77     000078
1037421008880COBR_CAUC_BIC  METALURGICA ONCE LTDA                   042365296001085KION S. A. F. E. A. LTDA                ROD. ENG. ERMENIO DE OLIV PENTEA,0      INDAIATUBA                              13341756SP39155000590457743924159       30112012021CAMPINAS            1602201300000000000125118CC                                                                                                                                                                                                                                                                                                                                                                                           208922-78     000079
1037421008880COBR_CAUC_BIC  METALURGICA ONCE LTDA                   042365296001085KION S. A. F. E. A. LTDA                ROD. ENG. ERMENIO DE OLIV PENTEA,0      INDAIATUBA                              13341756SP39155000600457744724158       30112012021CAMPINAS            1002201300000000000125118CC                                                                                                                                                                                                                                                                                                                                                                                           208922-79     000080
1037421008880COBR_CAUC_BIC  METALURGICA ONCE LTDA                   042365296001085KION S. A. F. E. A. LTDA                ROD. ENG. ERMENIO DE OLIV PENTEA,0      INDAIATUBA                              13341756SP39155000610457745524157       30112012021CAMPINAS            0902201300000000000125118CC                                                                                                                                                                                                                                                                                                                                                                                           208922-80     000081
1037421008880COBR_CAUC_BIC  METALURGICA ONCE LTDA                   042365296001085KION S. A. F. E. A. LTDA                ROD. ENG. ERMENIO DE OLIV PENTEA,0      INDAIATUBA                              13341756SP39155000620457811724179       03122012021CAMPINAS            1402201300000000000825754CC                                                                                                                                                                                                                                                                                                                                                                                           208922-81     000082
1037421008880COBR_CAUC_BIC  METALURGICA ONCE LTDA                   042365296001085KION S. A. F. E. A. LTDA                ROD. ENG. ERMENIO DE OLIV PENTEA,0      INDAIATUBA                              13341756SP39155000630457812524180       03122012021CAMPINAS            1502201300000000000825754CC                                                                                                                                                                                                                                                                                                                                                                                           208922-82     000083
1037421008880COBR_CAUC_BIC  METALURGICA ONCE LTDA                   042365296001085KION S. A. F. E. A. LTDA                ROD. ENG. ERMENIO DE OLIV PENTEA,0      INDAIATUBA                              13341756SP39155000640457813324189       03122012021CAMPINAS            2002201300000000000601274CC                                                                                                                                                                                                                                                                                                                                                                                           208922-83     000084
1037421008880COBR_CAUC_BIC  METALURGICA ONCE LTDA                   042365296001085KION S. A. F. E. A. LTDA                ROD. ENG. ERMENIO DE OLIV PENTEA,0      INDAIATUBA                              13341756SP39155000650457814124186       03122012021CAMPINAS            1902201300000000000601274CC                                                                                                                                                                                                                                                                                                                                                                                           208922-84     000085
1037421008880COBR_CAUC_BIC  METALURGICA ONCE LTDA                   042365296001085KION S. A. F. E. A. LTDA                ROD. ENG. ERMENIO DE OLIV PENTEA,0      INDAIATUBA                              13341756SP39155000660457815024185       03122012021CAMPINAS            1602201300000000000601274CC                                                                                                                                                                                                                                                                                                                                                                                           208922-85     000086
1037421008880COBR_CAUC_BIC  METALURGICA ONCE LTDA                   042365296001085KION S. A. F. E. A. LTDA                ROD. ENG. ERMENIO DE OLIV PENTEA,0      INDAIATUBA                              13341756SP39155000670457816824184       03122012021CAMPINAS            1502201300000000000901911CC                                                                                                                                                                                                                                                                                                                                                                                           208922-86     000087
1037421008880COBR_CAUC_BIC  METALURGICA ONCE LTDA                   042365296001085KION S. A. F. E. A. LTDA                ROD. ENG. ERMENIO DE OLIV PENTEA,0      INDAIATUBA                              13341756SP39155000680457817624183       03122012021CAMPINAS            1402201300000000000901911CC                                                                                                                                                                                                                                                                                                                                                                                           208922-87     000088
1037421008880COBR_CAUC_BIC  METALURGICA ONCE LTDA                   042365296001085KION S. A. F. E. A. LTDA                ROD. ENG. ERMENIO DE OLIV PENTEA,0      INDAIATUBA                              13341756SP39155000690457818424182       03122012021CAMPINAS            1902201300000000000550502CC                                                                                                                                                                                                                                                                                                                                                                                           208922-88     000089
1037421008880COBR_CAUC_BIC  METALURGICA ONCE LTDA                   042365296001085KION S. A. F. E. A. LTDA                ROD. ENG. ERMENIO DE OLIV PENTEA,0      INDAIATUBA                              13341756SP39155000700457819224181       03122012021CAMPINAS            1602201300000000000550502CC                                                                                                                                                                                                                                                                                                                                                                                           208922-89     000090
1037421008880COBR_CAUC_BIC  METALURGICA ONCE LTDA                   042365296001085KION S. A. F. E. A. LTDA                ROD. ENG. ERMENIO DE OLIV PENTEA,0      INDAIATUBA                              13341756SP39155000710457820624188       03122012021CAMPINAS            2002201300000000000550502CC                                                                                                                                                                                                                                                                                                                                                                                           208922-90     000091
1046421007654DIR_CREDIT     ORSI LOGISTICA S/A                      060435351002109DOW BRASIL S.A                          ESTRADA JOSE MARCELINO, N 2240-SALSEIROSITAJAI                                  88311300SC3908200001                                                                                                                                          012009072           140520120000022713            29112012000403prestação de serviços de receptação,conferência,movimentação,conservação,controle de estoque e gerencimento de produtos.                                                                                                                        013872662000101208922-91     000092
1021421015970COBR_CAUC_COR  UNITED MILLS ALIMENTOS LTDA             075315333000109ATACADAO DISTRIBUICAO COM. E INDUS      AV MOVAN DIAS DE FIGUEIREDO, 6169       SAO PAULO                               02170901SP391330000106360170000066582   01122012900BRADESCO S/A        0903201300000000016915278CC                                                                                                                                                                                                                                                                                                                                                                                           208922-92     000093
9000092                                                                                                                                                                                                                                                                                                                                                                                                                                                                                                                                                                                                                                                                                                               000094
