0REMESSANOTIFICAÇÃO ELETRONICA        99999999999999Bicbanco S/A                            Avenida Paulista , 1048 12º andar                           BELA VISTA                    SÃO PAULO                     01310100SPBicbanco S/A                                                                    24052010                                                                                                                                                                                                                                                                                                                                                                                                000001
1021420930887COBR_CAUC_COR  DEDINI S/A INDUSTRIAS DE BASE           008830263000130FATIMA DO SUL AGRO-ENERGETICA SA A      ROD OTR LINHA DO BARREIRINHO -LTS2 ZON  FATIMA DO SUL                           79700000MS222570000105801792110358-4-3  19052010900BRADESCO S/A        1507201000000000028500000CC                                                                                                                                                                                                                                                                                                                                                                                           100444-1      000002
1021420930887COBR_CAUC_COR  DEDINI S/A INDUSTRIAS DE BASE           008830263000130FATIMA DO SUL AGRO-ENERGETICA SA A      ROD OTR LINHA DO BARREIRINHO -LTS2 ZON  FATIMA DO SUL                           79700000MS222570000205801806110358-4-4  19052010900BRADESCO S/A        1507201000000000028500000CC                                                                                                                                                                                                                                                                                                                                                                                           100444-2      000003
1021420930887COBR_CAUC_COR  DEDINI S/A INDUSTRIAS DE BASE           008830263000130FATIMA DO SUL AGRO-ENERGETICA SA A      ROD OTR LINHA DO BARREIRINHO -LTS2 ZON  FATIMA DO SUL                           79700000MS222570000305801814110358-4-2  19052010900BRADESCO S/A        1507201000000000027750000CC                                                                                                                                                                                                                                                                                                                                                                                           100444-3      000004
1021420930887COBR_CAUC_COR  DEDINI S/A INDUSTRIAS DE BASE           008830263000130FATIMA DO SUL AGRO-ENERGETICA SA A      ROD OTR LINHA DO BARREIRINHO -LTS2 ZON  FATIMA DO SUL                           79700000MS222570000405801822110358-4-6  19052010900BRADESCO S/A        1507201000000000021875000CC                                                                                                                                                                                                                                                                                                                                                                                           100444-4      000005
1022421003945COBR_CAUC_COR  COOP.CAFEIC. E CITRIC.DE SAO PAULO      000002162936852AUGUSTO JORGE CURY                      RUA JOAO SILVEIRA 00475                 COLINA                                  14770000SP222580000103858960079007637A  13052010900BRADESCO S/A        1307201000000000014400000CC                                                                                                                                                                                                                                                                                                                                                                                           100444-5      000006
1022421003945COBR_CAUC_COR  COOP.CAFEIC. E CITRIC.DE SAO PAULO      000087061686804SERGIO ANTONIO BRIDI                    AVE JOAO TOMAIN 00050                   PLANURA                                 38220000MG222590000103858986083005213A  04052010900BRADESCO S/A        0507201000000000012150000CC                                                                                                                                                                                                                                                                                                                                                                                           100444-6      000007
1029421001656COBR_CAUC_BIC  FOCA EQUIPAMENTOS AUTOMOTIVOS LTDA      002358255000156BOM SINAL INDUSTRIA E COMERCIO LTD      AV.JOSE BERNARDINO, KM 2,5,0            BARBALHA                                63180000CE2226000001092041383023A       18052010005JUAZEIRO            2206201000000000013816000CC                                                                                                                                                                                                                                                                                                                                                                                           100444-7      000008
1022421002370COBR_CAUC_COR  FRIGOESTRELA S.A.                       009104182000115MINERVA DAWN FARMS IND. E COM. PRO      AVENIDA ANTONIO MANCO BERNARDESS/N      BARRETOS                                14781545SP2226100001025471540033361901  18052010900BRADESCO S/A        0806201000000000014578005CC                                                                                                                                                                                                                                                                                                                                                                                           100444-8      000009
1014421016202COBR_CAUC_COR  EMPRESA BRAS DE SOLDA ELETRICA S/A      010838616000190CONSORCIO INTERCOM                      RUA FELIPE SCHMIDT, 241                 MAFRA                                   89300000SC2226200001042228171 002382    23032010900BRADESCO S/A        0706201000000000018912000CC                                                                                                                                                                                                                                                                                                                                                                                           100444-9      000010
1014421016202COBR_CAUC_COR  EMPRESA BRAS DE SOLDA ELETRICA S/A      010838616000190CONSORCIO INTERCOM                      RUA FELIPE SCHMIDT, 241                 MAFRA                                   89300000SC2226200002042228251 002384    23032010900BRADESCO S/A        0706201000000000018912000CC                                                                                                                                                                                                                                                                                                                                                                                           100444-10     000011
1014421016202COBR_CAUC_COR  EMPRESA BRAS DE SOLDA ELETRICA S/A      010838616000190CONSORCIO INTERCOM                      RUA FELIPE SCHMIDT, 241                 MAFRA                                   89300000SC2226200003042228331 002386    23032010900BRADESCO S/A        0706201000000000018912000CC                                                                                                                                                                                                                                                                                                                                                                                           100444-11     000012
9000011                                                                                                                                                                                                                                                                                                                                                                                                                                                                                                                                                                                                                                                                                                               000013
