0REMESSANOTIFICAÇÃO ELETRONICA        99999999999999Bicbanco S/A                            Avenida Brigadeiro Faria Lima           4.440     2º andar  Itaim Bibi                    São Paulo                     04538132SPBicbanco S/A                                                                    19112014                                                                                                                                                                                                                                                                                                                                                                                                000001
1007421077480COBR_CAUC_BIC  KOFAR IND COM DE PROD METALUG LTDA      018842730000448CONSORCIO PRO - INFANCIA BRASIL -       RUAALFREDO MAIA, 517,517-2 ANDAR        SAO PAULO                               01106010SP501350000103453994000091074   17112014007PAULISTA            1201201500000000010649283CC                                                                                                                                                                                                                                                                                                                                                                                           333574-1      000002
1007421068790COBR_CAUC_BIC  FERAL METALURGICA LTDA                  020661938000160GOMES TRANSPORTES E CONSTRUCOES LT      RUA BRASILIA,S/N QD 85 LT 0             ANAPOLIS                                75064430GO50138000010331474972692S1-04  11092014018GOIANIA             0901201500000000002231810CC                                                                                                                                                                                                                                                                                                                                                                                           333574-2      000003
1007421068790COBR_CAUC_COR  FERAL METALURGICA LTDA                  002600159000172J G RAMOS SERRALHERIA                   RUA GETULIO VARGAS,228                  HUMAITA                                 69800000AM50139000010327626071419S1-04  05082014900BRADESCO S/A        1312201400000000002537250CC                                                                                                                                                                                                                                                                                                                                                                                           333574-3      000004
1007421068790COBR_CAUC_BIC  FERAL METALURGICA LTDA                  060457728000179FABRICA DE GAIOLAS MONACO LTDA          RUA MEDEIROS FURTADO,340                SAO PAULO                               03365010SP50140000010337135173403S1-02  30092014007PAULISTA            2111201400000000000237825CC                                                                                                                                                                                                                                                                                                                                                                                           333574-4      000005
1007421068790COBR_CAUC_BIC  FERAL METALURGICA LTDA                  060457728000179FABRICA DE GAIOLAS MONACO LTDA          RUA MEDEIROS FURTADO,340                SAO PAULO                               03365010SP50140000020337136073403S1-03  30092014007PAULISTA            2811201400000000000237825CC                                                                                                                                                                                                                                                                                                                                                                                           333574-5      000006
1007421068790COBR_CAUC_BIC  FERAL METALURGICA LTDA                  060457728000179FABRICA DE GAIOLAS MONACO LTDA          RUA MEDEIROS FURTADO,340                SAO PAULO                               03365010SP50140000030337137873403S1-04  30092014007PAULISTA            0512201400000000000237825CC                                                                                                                                                                                                                                                                                                                                                                                           333574-6      000007
1007421068790COBR_CAUC_BIC  FERAL METALURGICA LTDA                  060457728000179FABRICA DE GAIOLAS MONACO LTDA          RUA MEDEIROS FURTADO,340                SAO PAULO                               03365010SP50140000040337139473404S1-02  30092014007PAULISTA            2411201400000000000237825CC                                                                                                                                                                                                                                                                                                                                                                                           333574-7      000008
1007421068790COBR_CAUC_BIC  FERAL METALURGICA LTDA                  060457728000179FABRICA DE GAIOLAS MONACO LTDA          RUA MEDEIROS FURTADO,340                SAO PAULO                               03365010SP50140000050337140873404S1-03  30092014007PAULISTA            0112201400000000000237825CC                                                                                                                                                                                                                                                                                                                                                                                           333574-8      000009
1007421068790COBR_CAUC_BIC  FERAL METALURGICA LTDA                  060457728000179FABRICA DE GAIOLAS MONACO LTDA          RUA MEDEIROS FURTADO,340                SAO PAULO                               03365010SP50140000060337141673404S1-04  30092014007PAULISTA            0812201400000000000237825CC                                                                                                                                                                                                                                                                                                                                                                                           333574-9      000010
1007421068790COBR_CAUC_BIC  FERAL METALURGICA LTDA                  060457728000179FABRICA DE GAIOLAS MONACO LTDA          RUA MEDEIROS FURTADO,340                SAO PAULO                               03365010SP50140000070337143273405S1-02  30092014007PAULISTA            2411201400000000000039638CC                                                                                                                                                                                                                                                                                                                                                                                           333574-10     000011
1007421068790COBR_CAUC_BIC  FERAL METALURGICA LTDA                  060457728000179FABRICA DE GAIOLAS MONACO LTDA          RUA MEDEIROS FURTADO,340                SAO PAULO                               03365010SP50140000080337144173405S1-03  30092014007PAULISTA            0112201400000000000039638CC                                                                                                                                                                                                                                                                                                                                                                                           333574-11     000012
1007421068790COBR_CAUC_BIC  FERAL METALURGICA LTDA                  060457728000179FABRICA DE GAIOLAS MONACO LTDA          RUA MEDEIROS FURTADO,340                SAO PAULO                               03365010SP50140000090337145973405S1-04  30092014007PAULISTA            0812201400000000000039636CC                                                                                                                                                                                                                                                                                                                                                                                           333574-12     000013
1007421068790COBR_CAUC_BIC  FERAL METALURGICA LTDA                  060457728000179FABRICA DE GAIOLAS MONACO LTDA          RUA MEDEIROS FURTADO,340                SAO PAULO                               03365010SP50140000100341024173402S1-01  30092014007PAULISTA            2711201400000000000248063CC                                                                                                                                                                                                                                                                                                                                                                                           333574-13     000014
1007421068790COBR_CAUC_BIC  FERAL METALURGICA LTDA                  060457728000179FABRICA DE GAIOLAS MONACO LTDA          RUA MEDEIROS FURTADO,340                SAO PAULO                               03365010SP50140000110341025073402S1-02  30092014007PAULISTA            0412201400000000000248063CC                                                                                                                                                                                                                                                                                                                                                                                           333574-14     000015
1007421068790COBR_CAUC_BIC  FERAL METALURGICA LTDA                  060457728000179FABRICA DE GAIOLAS MONACO LTDA          RUA MEDEIROS FURTADO,340                SAO PAULO                               03365010SP50140000120341026873402S1-03  30092014007PAULISTA            1112201400000000000248063CC                                                                                                                                                                                                                                                                                                                                                                                           333574-15     000016
1007421068790COBR_CAUC_BIC  FERAL METALURGICA LTDA                  060457728000179FABRICA DE GAIOLAS MONACO LTDA          RUA MEDEIROS FURTADO,340                SAO PAULO                               03365010SP50140000130341027673402S1-04  30092014007PAULISTA            1812201400000000000248061CC                                                                                                                                                                                                                                                                                                                                                                                           333574-16     000017
1007421068790COBR_CAUC_COR  FERAL METALURGICA LTDA                  017095221000193TABAJARA COMERCIO DE FERRAGENS LTD      AVENIDA CENTRAL,10                      CARIACICA                               29154492ES50141000010338275273592S1-03  06102014700BANCO REAL- ABN AMRO0112201400000000003127210CC                                                                                                                                                                                                                                                                                                                                                                                           333574-17     000018
1007421068790COBR_CAUC_COR  FERAL METALURGICA LTDA                  008954579000133N G ENGENHARIA LTDA EPP                 RUA DOMINGOS DINARDI,46                 CAMPO BELO                              37270000MG50142000010343379974396S1-01  31102014700BANCO REAL- ABN AMRO3012201400000000003599640CC                                                                                                                                                                                                                                                                                                                                                                                           333574-18     000019
1007421068790COBR_CAUC_BIC  FERAL METALURGICA LTDA                  000481703000189ANDRADE VIEIRA EMPREENDIMENTOS IMO      AVENIDA JOSE FARIA DA ROC,2232 SL 17    CONTAGEM                                32315040MG50143000010344793574416S1-01  31102014019BELO HORIZONTE      0301201500000000005040000CC                                                                                                                                                                                                                                                                                                                                                                                           333574-19     000020
1007421068790COBR_CAUC_COR  FERAL METALURGICA LTDA                  019063306000115PLANETA COMERCIO DE FERRAGENS LTDA      ROD BR 101 NORTE CONTORNO,7             CARIACICA                               29156780ES50144000010322786271952S1-05  21082014700BANCO REAL- ABN AMRO2911201400000000001810434CC                                                                                                                                                                                                                                                                                                                                                                                           333574-20     000021
1007421068790COBR_CAUC_COR  FERAL METALURGICA LTDA                  019063306000115PLANETA COMERCIO DE FERRAGENS LTDA      ROD BR 101 NORTE CONTORNO,7             CARIACICA                               29156780ES50144000020335329973303S1-03  29092014700BANCO REAL- ABN AMRO2811201400000000003192677CC                                                                                                                                                                                                                                                                                                                                                                                           333574-21     000022
1007421068790COBR_CAUC_COR  FERAL METALURGICA LTDA                  019063306000115PLANETA COMERCIO DE FERRAGENS LTDA      ROD BR 101 NORTE CONTORNO,7             CARIACICA                               29156780ES50144000030337176973958S1-03  17102014700BANCO REAL- ABN AMRO1212201400000000002847340CC                                                                                                                                                                                                                                                                                                                                                                                           333574-22     000023
1007421068790COBR_CAUC_COR  FERAL METALURGICA LTDA                  019063306000115PLANETA COMERCIO DE FERRAGENS LTDA      ROD BR 101 NORTE CONTORNO,7             CARIACICA                               29156780ES50144000040343371374213S1-02  28102014700BANCO REAL- ABN AMRO1312201400000000001860993CC                                                                                                                                                                                                                                                                                                                                                                                           333574-23     000024
1007421068790COBR_CAUC_COR  FERAL METALURGICA LTDA                  019063306000115PLANETA COMERCIO DE FERRAGENS LTDA      ROD BR 101 NORTE CONTORNO,7             CARIACICA                               29156780ES50144000050343372174213S1-03  28102014700BANCO REAL- ABN AMRO2812201400000000001860993CC                                                                                                                                                                                                                                                                                                                                                                                           333574-24     000025
9000024                                                                                                                                                                                                                                                                                                                                                                                                                                                                                                                                                                                                                                                                                                               000026
