0REMESSANOTIFICAÇÃO ELETRONICA        99999999999999Bicbanco S/A                            Avenida Paulista                        1048      12º andar BELA VISTA                    SÃO PAULO                     01310100SPBicbanco S/A                                                                    28012011                                                                                                                                                                                                                                                                                                                                                                                                000001
1007420931444COBR_CAUC_BIC  PLASINCO LTDA                           062134150000145COPPER 100 INDUSTRIA E COM. LTDA.       R. SANTANA DE IPANEMA,692               GUARULHOS                               07220010SP26000000010035642410087-A     24012011037GUARULHOS           1802201100000000010120000CC                                                                                                                                                                                                                                                                                                                                                                                           120955-1      000002
1008421006830COBR_CAUC_COR  NORTEX INDUSTRIA E COMERCIO S/A         005514925000174J.F & FILHOS TECIDOS LTDA               RUA BARAO DE CARUARU 125                CARUARU                                 55018370PE260010000100359574001386*     24012011900BRADESCO S/A        2504201100000000014232038CC                                                                                                                                                                                                                                                                                                                                                                                           120955-2      000003
1032421000854COBR_CAUC_COR  METALURGICA IANY IND E COM LTDA         019166917000199EMBRASIL EMPRESA BRASILEIRA DISTRI      RODOVIA BR-040,KM-517, S/N              RIBEIRAO DAS NE                         33823310MG26002000010889554710387-1/1   24012011900BRADESCO S/A        0103201100000000011686760CC                                                                                                                                                                                                                                                                                                                                                                                           120955-3      000004
1031421007850COBR_CAUC_BIC  AGRICOLA JANDELLE S/A                   001928075002062DMA DISTRIBUIDORA S/A                   RODOVIA BR 040 KM 531 NR 180            BELO HORIZONTE                          30855500MG2600300001048298900000367499  25012011019BELO HORIZONTE      2402201100000000010217592CC                                                                                                                                                                                                                                                                                                                                                                                           120955-4      000005
1031421007850COBR_CAUC_BIC  AGRICOLA JANDELLE S/A                   004641376007300SUPERMERCADOS BH COMERCIO DE ALIME      AVENIDA GERALDO ROCHA 200               CONTAGEM                                32183054MG2600400001048299200000367484  24012011019BELO HORIZONTE      2102201100000000012474000CC                                                                                                                                                                                                                                                                                                                                                                                           120955-5      000006
1031421007850COBR_CAUC_BIC  AGRICOLA JANDELLE S/A                   038711826000131LINCON INDUSTRIA E COMERCIO LTDA        RUA JOSE MARIA DE LACERDA 2058          CONTAGEM                                32210120MG2600500001048299030000367505  25012011019BELO HORIZONTE      1502201100000000012716493CC                                                                                                                                                                                                                                                                                                                                                                                           120955-6      000007
1022421004755COBR_CAUC_COR  FRIGOL S.A. EM RECUPERACAO JUDICIAL     012246718000222AVAY IND COM E EXPORTACAO DE CARNE      LOG CHACARA AVAY                        NATIVIDADE                              28380000RJ2600600001001734785576        25012011900BRADESCO S/A        1702201100000000012545379CC                                                                                                                                                                                                                                                                                                                                                                                           120955-7      000008
1022421004755COBR_CAUC_COR  FRIGOL S.A. EM RECUPERACAO JUDICIAL     031487473004933HORTIGIL HORTIFRUTI S A                 AVENIDA BRASIL, 19001 CEASA PAV 13 08,10RIO DE JANEIRO                          21530000RJ2600700001001734275592        25012011900BRADESCO S/A        2102201100000000014033666CC                                                                                                                                                                                                                                                                                                                                                                                           120955-8      000009
1031421007850COBR_CAUC_BIC  AGRICOLA JANDELLE S/A                   024444127000672IRMAOS BRETAS FILHOS E CIA LTDA         RUA DOIS 100                            CONTAGEM                                32113320MG2604300001048307820000367594  26012011019BELO HORIZONTE      0703201100000000010732662CC                                                                                                                                                                                                                                                                                                                                                                                           120957-1      000010
1048141000168COBR_CAUC_BIC  BALDIN BIOENERGIA S/A                   001062529000100DULCINI SA                              ESTRADA SITIO TABOAO, S/N               PIRASSUNUNGA                            13631301SP26044000010028733312003/03    26012011021CAMPINAS            1603201100000000025000000TD                                                                                                                                                                                                                                                                                                                                                                                           120957-2      000011
1048141000168COBR_CAUC_BIC  BALDIN BIOENERGIA S/A                   001062529000100DULCINI SA                              ESTRADA SITIO TABOAO, S/N               PIRASSUNUNGA                            13631301SP26044000020028734112003/04    26012011021CAMPINAS            1703201100000000025000000TD                                                                                                                                                                                                                                                                                                                                                                                           120957-3      000012
1048141000168COBR_CAUC_BIC  BALDIN BIOENERGIA S/A                   001062529000100DULCINI SA                              ESTRADA SITIO TABOAO, S/N               PIRASSUNUNGA                            13631301SP26044000030028735012003/05    26012011021CAMPINAS            1803201100000000025000000TD                                                                                                                                                                                                                                                                                                                                                                                           120957-4      000013
1048141000168COBR_CAUC_BIC  BALDIN BIOENERGIA S/A                   001062529000100DULCINI SA                              ESTRADA SITIO TABOAO, S/N               PIRASSUNUNGA                            13631301SP26044000040028736812003/06    26012011021CAMPINAS            2103201100000000025000000TD                                                                                                                                                                                                                                                                                                                                                                                           120957-5      000014
1007421040063COBR_CAUC_BIC  TUBERFIL IND. E COM. DE TUBOS LTDA      061074514000500PIRES DO RIO - CITEP COMERCIO           R: FELIPE CAMARAO 559                   SAO CAETANO DO                          09550150SP260450000100358788006182001   29122010038ABC                 1202201100000000020057311CC                                                                                                                                                                                                                                                                                                                                                                                           120957-6      000015
1007421040063COBR_CAUC_BIC  TUBERFIL IND. E COM. DE TUBOS LTDA      061074514000500PIRES DO RIO - CITEP COMERCIO           R: FELIPE CAMARAO 559                   SAO CAETANO DO                          09550150SP260450000200358796006187001   29122010038ABC                 1202201100000000024103171CC                                                                                                                                                                                                                                                                                                                                                                                           120957-7      000016
9000015                                                                                                                                                                                                                                                                                                                                                                                                                                                                                                                                                                                                                                                                                                               000017
