0REMESSANOTIFICAÇÃO ELETRONICA        99999999999999Bicbanco S/A                            Avenida Paulista                        1048      12º andar BELA VISTA                    SÃO PAULO                     01310100SPBicbanco S/A                                                                    11082011                                                                                                                                                                                                                                                                                                                                                                                                000001
1038421011812COBR_CAUC_BIC  ENERGY COML IMPORT E EXPORT LTDA        009363567000520PREMIX BRASIL RESINAS LTDA              AV DAS NACOES UNIDAS 3000               OSASCO                                  06233200SP295250000109390780425         05082011007PAULISTA            0409201100000000012669415CC                                                                                                                                                                                                                                                                                                                                                                                           140351-1      000002
1038421011812COBR_CAUC_BIC  ENERGY COML IMPORT E EXPORT LTDA        009363567000520PREMIX BRASIL RESINAS LTDA              AV DAS NACOES UNIDAS 3000               OSASCO                                  06233200SP295250000209390798426         05082011007PAULISTA            0409201100000000012669415CC                                                                                                                                                                                                                                                                                                                                                                                           140351-2      000003
1038421011812COBR_CAUC_BIC  ENERGY COML IMPORT E EXPORT LTDA        009363567000520PREMIX BRASIL RESINAS LTDA              AV DAS NACOES UNIDAS 3000               OSASCO                                  06233200SP295250000309390801427         05082011007PAULISTA            0409201100000000012669415CC                                                                                                                                                                                                                                                                                                                                                                                           140351-3      000004
1038421011812COBR_CAUC_BIC  ENERGY COML IMPORT E EXPORT LTDA        009363567000520PREMIX BRASIL RESINAS LTDA              AV DAS NACOES UNIDAS 3000               OSASCO                                  06233200SP295250000409390810428         05082011007PAULISTA            0409201100000000012669415CC                                                                                                                                                                                                                                                                                                                                                                                           140351-4      000005
1038421011812COBR_CAUC_BIC  ENERGY COML IMPORT E EXPORT LTDA        009363567000520PREMIX BRASIL RESINAS LTDA              AV DAS NACOES UNIDAS 3000               OSASCO                                  06233200SP295250000509390828429         05082011007PAULISTA            0409201100000000012669415CC                                                                                                                                                                                                                                                                                                                                                                                           140351-5      000006
1038421011812COBR_CAUC_BIC  ENERGY COML IMPORT E EXPORT LTDA        009363567000520PREMIX BRASIL RESINAS LTDA              AV DAS NACOES UNIDAS 3000               OSASCO                                  06233200SP295250000609390836430         05082011007PAULISTA            0409201100000000012669415CC                                                                                                                                                                                                                                                                                                                                                                                           140351-6      000007
1038421011812COBR_CAUC_BIC  ENERGY COML IMPORT E EXPORT LTDA        009363567000520PREMIX BRASIL RESINAS LTDA              AV DAS NACOES UNIDAS 3000               OSASCO                                  06233200SP295250000709390844431         05082011007PAULISTA            0409201100000000011517650CC                                                                                                                                                                                                                                                                                                                                                                                           140351-7      000008
1038421011812COBR_CAUC_BIC  ENERGY COML IMPORT E EXPORT LTDA        009363567000520PREMIX BRASIL RESINAS LTDA              AV DAS NACOES UNIDAS 3000               OSASCO                                  06233200SP295250000809390852432         05082011007PAULISTA            0409201100000000011517650CC                                                                                                                                                                                                                                                                                                                                                                                           140351-8      000009
1038421011812COBR_CAUC_BIC  ENERGY COML IMPORT E EXPORT LTDA        009363567000520PREMIX BRASIL RESINAS LTDA              AV DAS NACOES UNIDAS 3000               OSASCO                                  06233200SP295250000909390861433         05082011007PAULISTA            0409201100000000011517650CC                                                                                                                                                                                                                                                                                                                                                                                           140351-9      000010
1003421008916DIR_CREDIT     CONSTRUTORA BETA S/A                    009769035000164CIA PE DE SANEAMENTO COMPESA            AVENIDA CRUZ CABUGÁ, 1387 SANTO AMARO   RECIPE                                  50040000PE2953700001                                                                                                                                          481017125           140520080000006707CT.OS.08.0.021062011000404Execução pelo regime de empreitada por preços unitários, das obras e serviços de IMPLANTAÇÃO DO SISTEMA DE ESGOTAMENTO SANITÁRIO DO RECIFE -PEPROGRAMA PROEST.                                                                                  007205073000169140351-10     000011
9000010                                                                                                                                                                                                                                                                                                                                                                                                                                                                                                                                                                                                                                                                                                               000012
