0REMESSANOTIFICAÇÃO ELETRONICA        99999999999999Bicbanco S/A                            Avenida Paulista                        1048      12º andar BELA VISTA                    SÃO PAULO                     01310100SPBicbanco S/A                                                                    26072011                                                                                                                                                                                                                                                                                                                                                                                                000001
1024421007416COBR_CAUC_BIC  ATLAS AGROINDUSTRIAL LTDA               083310441000117COOPERATIVA CENTRAL OESTE CATARINE      R JOAO MARTINS 219                      CHAPECO                                 89803400SC29147000010191021826256       21072011024CUIABA              2510201100000000015500000CC                                                                                                                                                                                                                                                                                                                                                                                           138292-1      000002
1024421007416COBR_CAUC_BIC  ATLAS AGROINDUSTRIAL LTDA               083310441000117COOPERATIVA CENTRAL OESTE CATARINE      R JOAO MARTINS 219                      CHAPECO                                 89803400SC29147000020191022626257       21072011024CUIABA              2510201100000000015500000CC                                                                                                                                                                                                                                                                                                                                                                                           138292-2      000003
1029421000625DIR_CREDIT     COOP AGRICOLA MISTA IBIRAIARAS LTDA     098248644002737CAMERA AGROALIMENTOS S/A                RS 344 KM 39,50                         SANTA ROSA                              98900000RS2915300001                                                                                                                                          481016510           2006201100000191742006 2/11   21072011000404fornecimento de soja em grao                                                                                                                                                                                                                    091061036000130138292-3      000004
1007421017118DIR_CREDIT     NILPEL IND E COM DE PAPEIS LTDA         001446396000249CPW BRASIL LTDA                         RUA CAPITãO AIRTON ARAUJO, S/Nº         CAçAPAVA                                01000000SP2915600001                                                                                                                                          011522650           071220100000016688S/Nº        21072011000424Fornecimento de embalagens (caixas)dos produtos da Nestlé.                                                                                                                                                                                      059261388000127138292-4      000005
1044421005221DIR_CREDIT     CNG CONSTRUTORA NOBREGA GOMES LTDA      070162904000107COOPERATIVA HABITACIONAL DOS SERV. E TRARUA JOAO PESSOA,74 - CIDADE ALTA        NATAL                                   59025500RN2916100001                                                                                                                                          011526852           121220060000019090S/N         21072011000416construção de um empreendimento habitacional denominado " residencialesplanada dos jardins II, iv e v" em parnamirim/rn.                                                                                                                        040766917000116138292-5      000006
1013421021991DIR_CREDIT     NUCLEO DE MEDICINA DA BAHIA LTDA        013323274000163PLANSERV                                SECRETRAIA DE ADMINISTRAçãO 2ª AV.N.200 SALVADOR                                40000000BA2917100001                                                                                                                                          481022181           010220100000018760            20072011000404prestação de serviços prestados aos beneficiários do planserv.                                                                                                                                                                                  009367238000205138292-6      000007
1029421000625DIR_CREDIT     COOP AGRICOLA MISTA IBIRAIARAS LTDA     098248644002737CAMERA AGROALIMENTOS S/A                RS 344 KM 39,50 SALA 2                  SANTA ROSA                              98900000RS2917200001                                                                                                                                          481016510           2006201100000191752006 3/11   21072011000404fornecimento de soja em grao                                                                                                                                                                                                                    091061036000130138292-7      000008
1015421015123COBR_CAUC_COR  JOSCIL EQUIPAMENTOS PARA CEREAIS LT     004211052000400JL COM CEREAIS GRAOS LTDA               EST RS 223 KM 52,SN                     IBIRUBA                                 98200000RS291730000100862580NFE5414/3   20062011900BRADESCO S/A        1010201100000000003050000CC                                                                                                                                                                                                                                                                                                                                                                                           138292-8      000009
1041421003160DIR_CREDIT     RECONCRET RECUPARACAO E CONST LTDA      006553531000198SEINFRA/PI                              AV. PEDRO FREITAS S/N CENTRO ADM.BL-G 1ATERESINA                                64018000PI2917400001                                                                                                                                          481008109           150120100000012929007/2010    25052011000404Serviços de recuperação do dique do Parque Aquático Potycabana emTeresina-PI.                                                                                                                                                                   003584650000110138292-9      000010
9000009                                                                                                                                                                                                                                                                                                                                                                                                                                                                                                                                                                                                                                                                                                               000011
