0REMESSANOTIFICAÇÃO ELETRONICA        99999999999999Bicbanco S/A                            Avenida Brigadeiro Faria Lima           4.440     2º andar  Itaim Bibi                    São Paulo                     04538132SPBicbanco S/A                                                                    09102013                                                                                                                                                                                                                                                                                                                                                                                                000001
1048421000338COBR_CAUC_COR  FRIGOESTRELA S.A. EM RECUP JUDICIAL     050947761001871IRMAOS RUSSI LTDA                       RUA LUIS ALLI FARDYN SALA 03, 590       CAJAMAR                                 07750000SP4467100001063108250030736001  06102013900BRADESCO S/A        1111201300000000010201200CC                                                                                                                                                                                                                                                                                                                                                                                           262044-1      000002
1007421031242COBR_CAUC_BIC  GP GUARDA PATRIMONIAL DE S.P. LTDA      062144175000120BANCO PINE S A                          AVDAS NACOES UNIDAS8 501 29E 30         SAO PAULO                               05425070SP44669000010009164197641       07102013007PAULISTA            0111201300000000028198736CC                                                                                                                                                                                                                                                                                                                                                                                           262044-2      000003
1018421032351COBR_CAUC_COR  NAVE INDUSTRIAL EIRELI - ME             004709589000152E C QUARESMA VARIEDADES                 RUA CEL.MESSIAS MELO 413                BATALHA                                 79670000PI4470600001033293338161-3B     20062013900BRADESCO S/A        1310201300000000000110999CC                                                                                                                                                                                                                                                                                                                                                                                           262044-3      000004
1018421032351COBR_CAUC_COR  NAVE INDUSTRIAL EIRELI - ME             004709589000152E C QUARESMA VARIEDADES                 RUA CEL.MESSIAS MELO 413                BATALHA                                 79670000PI4470600002033293418161-4B     20062013900BRADESCO S/A        1211201300000000000110999CC                                                                                                                                                                                                                                                                                                                                                                                           262044-4      000005
1018421032351COBR_CAUC_COR  NAVE INDUSTRIAL EIRELI - ME             012473916000148IRENE GOMES DOS SANTOS                  R EGIDIO MACHADO N181                   AGUA BOA                                39790000MG44726000010338857710285-2B    12082013800UNIBANCO S/A        1910201300000000000070977CC                                                                                                                                                                                                                                                                                                                                                                                           262044-5      000006
1018421032351COBR_CAUC_COR  NAVE INDUSTRIAL EIRELI - ME             012473916000148IRENE GOMES DOS SANTOS                  R EGIDIO MACHADO N181                   AGUA BOA                                39790000MG44726000020338858510285-3B    12082013800UNIBANCO S/A        1811201300000000000070977CC                                                                                                                                                                                                                                                                                                                                                                                           262044-6      000007
1018421032351COBR_CAUC_COR  NAVE INDUSTRIAL EIRELI - ME             012473916000148IRENE GOMES DOS SANTOS                  R EGIDIO MACHADO N181                   AGUA BOA                                39790000MG44726000030338859310285-4B    12082013800UNIBANCO S/A        1812201300000000000070977CC                                                                                                                                                                                                                                                                                                                                                                                           262044-7      000008
1018421032351COBR_CAUC_COR  NAVE INDUSTRIAL EIRELI - ME             012473916000148IRENE GOMES DOS SANTOS                  R EGIDIO MACHADO N181                   AGUA BOA                                39790000MG44726000040338860710285-5A    12082013800UNIBANCO S/A        1701201400000000000054837CC                                                                                                                                                                                                                                                                                                                                                                                           262044-8      000009
1018421032351COBR_CAUC_COR  NAVE INDUSTRIAL EIRELI - ME             011531960000102GIANNI RODRIGUES DA SILVA WANDERLE      RUA SAO NICOLAU N.397                   ARAPIRACA                               57313090AL4472500001031515006569-5A     01042013800UNIBANCO S/A        2210201300000000000016776CC                                                                                                                                                                                                                                                                                                                                                                                           262044-9      000010
1018421032351COBR_CAUC_COR  NAVE INDUSTRIAL EIRELI - ME             011531960000102GIANNI RODRIGUES DA SILVA WANDERLE      RUA SAO NICOLAU N.397                   ARAPIRACA                               57313090AL4472500002032982336966-5      22042013800UNIBANCO S/A        1111201300000000000089374CC                                                                                                                                                                                                                                                                                                                                                                                           262044-10     000011
1018421032351COBR_CAUC_COR  NAVE INDUSTRIAL EIRELI - ME             011531960000102GIANNI RODRIGUES DA SILVA WANDERLE      RUA SAO NICOLAU N.397                   ARAPIRACA                               57313090AL4472500003031706446966-5A     22042013800UNIBANCO S/A        2210201300000000000089374CC                                                                                                                                                                                                                                                                                                                                                                                           262044-11     000012
1018421032351COBR_CAUC_COR  NAVE INDUSTRIAL EIRELI - ME             041260209000171V.G.ROCHA ME                            AV CANDIDO ALEIXO 45 (MODA MANIA)       OEIRAS                                  64500000PI4472400001031706616975-5A     22042013800UNIBANCO S/A        1711201300000000000056620CC                                                                                                                                                                                                                                                                                                                                                                                           262044-12     000013
1018421032351COBR_CAUC_COR  NAVE INDUSTRIAL EIRELI - ME             041260209000171V.G.ROCHA ME                            AV CANDIDO ALEIXO 45 (MODA MANIA)       OEIRAS                                  64500000PI4472400002031706957006-4B     23042013800UNIBANCO S/A        0211201300000000000071080CC                                                                                                                                                                                                                                                                                                                                                                                           262044-13     000014
1018421032351COBR_CAUC_COR  NAVE INDUSTRIAL EIRELI - ME             041260209000171V.G.ROCHA ME                            AV CANDIDO ALEIXO 45 (MODA MANIA)       OEIRAS                                  64500000PI4472400003031707097006-5A     23042013800UNIBANCO S/A        0212201300000000000054914CC                                                                                                                                                                                                                                                                                                                                                                                           262044-14     000015
1018421032351COBR_CAUC_COR  NAVE INDUSTRIAL EIRELI - ME             001039523000104M.DE FATIMA GOMES CONFECCOES ME         R.ROMEU MARTINS-GALERIA,BOX 17/18       CANINDE                                 62700000CE4472300001032637077696-3A     27052013900BRADESCO S/A        2311201300000000000095301CC                                                                                                                                                                                                                                                                                                                                                                                           262044-15     000016
1018421032351COBR_CAUC_COR  NAVE INDUSTRIAL EIRELI - ME             001039523000104M.DE FATIMA GOMES CONFECCOES ME         R.ROMEU MARTINS-GALERIA,BOX 17/18       CANINDE                                 62700000CE4472300002032637157696-4B     27052013900BRADESCO S/A        2312201300000000000061673CC                                                                                                                                                                                                                                                                                                                                                                                           262044-16     000017
1018421032351COBR_CAUC_COR  NAVE INDUSTRIAL EIRELI - ME             007486953000150ROSA M. SODRE - BOUTIQUE                RUA DOCE ALFA LJ6-D                     ANGRA DOS REIS                          23914185RJ4472200001031514966568-5A     01042013800UNIBANCO S/A        1710201300000000000044247CC                                                                                                                                                                                                                                                                                                                                                                                           262044-17     000018
1018421032351COBR_CAUC_COR  NAVE INDUSTRIAL EIRELI - ME             007486953000150ROSA M. SODRE - BOUTIQUE                RUA DOCE ALFA LJ6-D                     ANGRA DOS REIS                          23914185RJ4472200002031706286965-4B     22042013800UNIBANCO S/A        0711201300000000000058976CC                                                                                                                                                                                                                                                                                                                                                                                           262044-18     000019
1018421032351COBR_CAUC_COR  NAVE INDUSTRIAL EIRELI - ME             007486953000150ROSA M. SODRE - BOUTIQUE                RUA DOCE ALFA LJ6-D                     ANGRA DOS REIS                          23914185RJ4472200003031706366965-5A     22042013800UNIBANCO S/A        0712201300000000000045562CC                                                                                                                                                                                                                                                                                                                                                                                           262044-19     000020
1018421032351COBR_CAUC_COR  NAVE INDUSTRIAL EIRELI - ME             086678745000120SILDA MARIA DA SILVA ME                 RUA OLARIA N.64LJ01                     IPABA                                   35198000MG4472100001031707507012-3A     23042013800UNIBANCO S/A        1810201300000000000086866CC                                                                                                                                                                                                                                                                                                                                                                                           262044-20     000021
1018421032351COBR_CAUC_COR  NAVE INDUSTRIAL EIRELI - ME             086678745000120SILDA MARIA DA SILVA ME                 RUA OLARIA N.64LJ01                     IPABA                                   35198000MG4472100002031707687012-4B     23042013800UNIBANCO S/A        1711201300000000000056218CC                                                                                                                                                                                                                                                                                                                                                                                           262044-21     000022
1018421032351COBR_CAUC_COR  NAVE INDUSTRIAL EIRELI - ME             014527207000123GEORGINA RODRIGUES GOMES BRITO          RUA JOAO DOS SANTOS N.679               CANTO DO BURITI                         64890000PI4472000001031706877005-5A     23042013900BRADESCO S/A        1711201300000000000040215CC                                                                                                                                                                                                                                                                                                                                                                                           262044-22     000023
1018421032351COBR_CAUC_COR  NAVE INDUSTRIAL EIRELI - ME             014527207000123GEORGINA RODRIGUES GOMES BRITO          RUA JOAO DOS SANTOS N.679               CANTO DO BURITI                         64890000PI4472000002031707177008-4B     23042013900BRADESCO S/A        0711201300000000000056411CC                                                                                                                                                                                                                                                                                                                                                                                           262044-23     000024
1018421032351COBR_CAUC_COR  NAVE INDUSTRIAL EIRELI - ME             014527207000123GEORGINA RODRIGUES GOMES BRITO          RUA JOAO DOS SANTOS N.679               CANTO DO BURITI                         64890000PI4472000003031707257008-5A     23042013900BRADESCO S/A        0712201300000000000043586CC                                                                                                                                                                                                                                                                                                                                                                                           262044-24     000025
1018421032351COBR_CAUC_COR  NAVE INDUSTRIAL EIRELI - ME             005489045000195E.DE OLIVEIRA SILVA PRESENTES           AV.ALEORLANDO RAMOS N-08                URBANO SANTOS                           65530000MA4471900001032635887580-5A     21052013900BRADESCO S/A        1212201300000000000060650CC                                                                                                                                                                                                                                                                                                                                                                                           262044-25     000026
1018421032351COBR_CAUC_COR  NAVE INDUSTRIAL EIRELI - ME             005489045000195E.DE OLIVEIRA SILVA PRESENTES           AV.ALEORLANDO RAMOS N-08                URBANO SANTOS                           65530000MA4471900002032636697618-5A     23052013900BRADESCO S/A        2212201300000000000030410CC                                                                                                                                                                                                                                                                                                                                                                                           262044-26     000027
1018421032351COBR_CAUC_COR  NAVE INDUSTRIAL EIRELI - ME             005489045000195E.DE OLIVEIRA SILVA PRESENTES           AV.ALEORLANDO RAMOS N-08                URBANO SANTOS                           65530000MA4471900003032636857623-5A     23052013900BRADESCO S/A        2212201300000000000042419CC                                                                                                                                                                                                                                                                                                                                                                                           262044-27     000028
1018421032351COBR_CAUC_BIC  NAVE INDUSTRIAL EIRELI - ME             002469480000160NELINHO CONFECCOES LTDA                 R DAS AURORAS S/N QD 11 LT 20 CERRADO IIGOIANIA                                 74435280GO4471800001032418437363-4B     08052013018GOIANIA             2910201300000000000196630CC                                                                                                                                                                                                                                                                                                                                                                                           262044-28     000029
1018421032351COBR_CAUC_BIC  NAVE INDUSTRIAL EIRELI - ME             002469480000160NELINHO CONFECCOES LTDA                 R DAS AURORAS S/N QD 11 LT 20 CERRADO IIGOIANIA                                 74435280GO4471800002032985278193-1      26062013018GOIANIA             1710201300000000000133507CC                                                                                                                                                                                                                                                                                                                                                                                           262044-29     000030
1018421032351COBR_CAUC_BIC  NAVE INDUSTRIAL EIRELI - ME             002469480000160NELINHO CONFECCOES LTDA                 R DAS AURORAS S/N QD 11 LT 20 CERRADO IIGOIANIA                                 74435280GO4471800003032985358193-2      26062013018GOIANIA             0111201300000000000133507CC                                                                                                                                                                                                                                                                                                                                                                                           262044-30     000031
1018421032351COBR_CAUC_BIC  NAVE INDUSTRIAL EIRELI - ME             002469480000160NELINHO CONFECCOES LTDA                 R DAS AURORAS S/N QD 11 LT 20 CERRADO IIGOIANIA                                 74435280GO4471800004032985438193-3      26062013018GOIANIA             1411201300000000000133507CC                                                                                                                                                                                                                                                                                                                                                                                           262044-31     000032
1018421032351COBR_CAUC_BIC  NAVE INDUSTRIAL EIRELI - ME             002469480000160NELINHO CONFECCOES LTDA                 R DAS AURORAS S/N QD 11 LT 20 CERRADO IIGOIANIA                                 74435280GO4471800005032985518193-4      26062013018GOIANIA             2711201300000000000133507CC                                                                                                                                                                                                                                                                                                                                                                                           262044-32     000033
1018421032351COBR_CAUC_BIC  NAVE INDUSTRIAL EIRELI - ME             002469480000160NELINHO CONFECCOES LTDA                 R DAS AURORAS S/N QD 11 LT 20 CERRADO IIGOIANIA                                 74435280GO4471800006032985608193-5      26062013018GOIANIA             1012201300000000000133507CC                                                                                                                                                                                                                                                                                                                                                                                           262044-33     000034
1018421032351COBR_CAUC_BIC  NAVE INDUSTRIAL EIRELI - ME             002469480000160NELINHO CONFECCOES LTDA                 R DAS AURORAS S/N QD 11 LT 20 CERRADO IIGOIANIA                                 74435280GO4471800007032985788193-6      26062013018GOIANIA             2212201300000000000133507CC                                                                                                                                                                                                                                                                                                                                                                                           262044-34     000035
1018421032351COBR_CAUC_BIC  NAVE INDUSTRIAL EIRELI - ME             014869365000161FENIX CONFECCOES ASSESSORIA             R RIO FORMOSO Q4 LT31                   GOIANIA                                 74464115GO4471700001032985948180-1      26062013018GOIANIA             2010201300000000000189534CC                                                                                                                                                                                                                                                                                                                                                                                           262044-35     000036
1018421032351COBR_CAUC_BIC  NAVE INDUSTRIAL EIRELI - ME             014869365000161FENIX CONFECCOES ASSESSORIA             R RIO FORMOSO Q4 LT31                   GOIANIA                                 74464115GO4471700002032986088180-2      26062013018GOIANIA             0411201300000000000189534CC                                                                                                                                                                                                                                                                                                                                                                                           262044-36     000037
1018421032351COBR_CAUC_BIC  NAVE INDUSTRIAL EIRELI - ME             014869365000161FENIX CONFECCOES ASSESSORIA             R RIO FORMOSO Q4 LT31                   GOIANIA                                 74464115GO4471700003032986168180-3      26062013018GOIANIA             1911201300000000000189534CC                                                                                                                                                                                                                                                                                                                                                                                           262044-37     000038
1018421032351COBR_CAUC_BIC  NAVE INDUSTRIAL EIRELI - ME             014869365000161FENIX CONFECCOES ASSESSORIA             R RIO FORMOSO Q4 LT31                   GOIANIA                                 74464115GO4471700004032986248180-4      26062013018GOIANIA             0412201300000000000189534CC                                                                                                                                                                                                                                                                                                                                                                                           262044-38     000039
1018421032351COBR_CAUC_BIC  NAVE INDUSTRIAL EIRELI - ME             014869365000161FENIX CONFECCOES ASSESSORIA             R RIO FORMOSO Q4 LT31                   GOIANIA                                 74464115GO4471700005032986328180-5      26062013018GOIANIA             1912201300000000000189534CC                                                                                                                                                                                                                                                                                                                                                                                           262044-39     000040
1018421032351COBR_CAUC_BIC  NAVE INDUSTRIAL EIRELI - ME             002643646000112SENIOR CONFECCOES E TER. LTDA           R RIO FORMOSOQ4 LT31                    GOIANIA                                 74464115GO4471600001032983498149-1      26062013018GOIANIA             2010201300000000000180914CC                                                                                                                                                                                                                                                                                                                                                                                           262044-40     000041
1018421032351COBR_CAUC_BIC  NAVE INDUSTRIAL EIRELI - ME             002643646000112SENIOR CONFECCOES E TER. LTDA           R RIO FORMOSOQ4 LT31                    GOIANIA                                 74464115GO4471600002032983578149-2      26062013018GOIANIA             0411201300000000000180914CC                                                                                                                                                                                                                                                                                                                                                                                           262044-41     000042
1018421032351COBR_CAUC_BIC  NAVE INDUSTRIAL EIRELI - ME             002643646000112SENIOR CONFECCOES E TER. LTDA           R RIO FORMOSOQ4 LT31                    GOIANIA                                 74464115GO4471600003032983658149-3      26062013018GOIANIA             1911201300000000000180914CC                                                                                                                                                                                                                                                                                                                                                                                           262044-42     000043
1018421032351COBR_CAUC_BIC  NAVE INDUSTRIAL EIRELI - ME             002643646000112SENIOR CONFECCOES E TER. LTDA           R RIO FORMOSOQ4 LT31                    GOIANIA                                 74464115GO4471600004032983738149-4      26062013018GOIANIA             0412201300000000000180914CC                                                                                                                                                                                                                                                                                                                                                                                           262044-43     000044
1018421032351COBR_CAUC_BIC  NAVE INDUSTRIAL EIRELI - ME             002643646000112SENIOR CONFECCOES E TER. LTDA           R RIO FORMOSOQ4 LT31                    GOIANIA                                 74464115GO4471600005032983818149-5      26062013018GOIANIA             1912201300000000000180914CC                                                                                                                                                                                                                                                                                                                                                                                           262044-44     000045
1018421032351COBR_CAUC_BIC  NAVE INDUSTRIAL EIRELI - ME             000033614105172MARIA AMINADABIS P.LEAO CONFECCOES      RUA SC-27 Q.21 LT.26                    GOIANIA                                 74474033GO4471500001033368109350-1      26072013018GOIANIA             1611201300000000000143627CC                                                                                                                                                                                                                                                                                                                                                                                           262044-45     000046
1018421032351COBR_CAUC_BIC  NAVE INDUSTRIAL EIRELI - ME             000033614105172MARIA AMINADABIS P.LEAO CONFECCOES      RUA SC-27 Q.21 LT.26                    GOIANIA                                 74474033GO4471500002033368289350-2      26072013018GOIANIA             0112201300000000000143627CC                                                                                                                                                                                                                                                                                                                                                                                           262044-46     000047
1018421032351COBR_CAUC_BIC  NAVE INDUSTRIAL EIRELI - ME             000033614105172MARIA AMINADABIS P.LEAO CONFECCOES      RUA SC-27 Q.21 LT.26                    GOIANIA                                 74474033GO4471500003033368369350-3      26072013018GOIANIA             1412201300000000000143627CC                                                                                                                                                                                                                                                                                                                                                                                           262044-47     000048
1018421032351COBR_CAUC_BIC  NAVE INDUSTRIAL EIRELI - ME             000033614105172MARIA AMINADABIS P.LEAO CONFECCOES      RUA SC-27 Q.21 LT.26                    GOIANIA                                 74474033GO4471500004033368449350-4      26072013018GOIANIA             2712201300000000000143627CC                                                                                                                                                                                                                                                                                                                                                                                           262044-48     000049
1018421032351COBR_CAUC_BIC  NAVE INDUSTRIAL EIRELI - ME             000033614105172MARIA AMINADABIS P.LEAO CONFECCOES      RUA SC-27 Q.21 LT.26                    GOIANIA                                 74474033GO4471500005033368529350-5      26072013018GOIANIA             0901201400000000000143627CC                                                                                                                                                                                                                                                                                                                                                                                           262044-49     000050
1018421032351COBR_CAUC_BIC  NAVE INDUSTRIAL EIRELI - ME             000033614105172MARIA AMINADABIS P.LEAO CONFECCOES      RUA SC-27 Q.21 LT.26                    GOIANIA                                 74474033GO4471500006033368619350-6      26072013018GOIANIA             2101201400000000000143629CC                                                                                                                                                                                                                                                                                                                                                                                           262044-50     000051
1018421032351COBR_CAUC_COR  NAVE INDUSTRIAL EIRELI - ME             006338428000125SANTA INES CALCADOS LTDA-ME             RUA DO COMERCIO, 372                    SANTA INES                              65300000MA4471400001031514296328-3A     22032013800UNIBANCO S/A        0212201300000000000169800CC                                                                                                                                                                                                                                                                                                                                                                                           262044-51     000052
1018421032351COBR_CAUC_COR  NAVE INDUSTRIAL EIRELI - ME             006338428000125SANTA INES CALCADOS LTDA-ME             RUA DO COMERCIO, 372                    SANTA INES                              65300000MA4471400002031634016574-2B     01042013800UNIBANCO S/A        1510201300000000000156842CC                                                                                                                                                                                                                                                                                                                                                                                           262044-52     000053
1018421032351COBR_CAUC_COR  NAVE INDUSTRIAL EIRELI - ME             006338428000125SANTA INES CALCADOS LTDA-ME             RUA DO COMERCIO, 372                    SANTA INES                              65300000MA4471400003031705556574-4B     01042013800UNIBANCO S/A        1412201300000000000156841CC                                                                                                                                                                                                                                                                                                                                                                                           262044-53     000054
1018421032351COBR_CAUC_COR  NAVE INDUSTRIAL EIRELI - ME             006338428000125SANTA INES CALCADOS LTDA-ME             RUA DO COMERCIO, 372                    SANTA INES                              65300000MA4471400004031635166826-1B     12042013800UNIBANCO S/A        1310201300000000000178245CC                                                                                                                                                                                                                                                                                                                                                                                           262044-54     000055
1018421032351COBR_CAUC_COR  NAVE INDUSTRIAL EIRELI - ME             006338428000125SANTA INES CALCADOS LTDA-ME             RUA DO COMERCIO, 372                    SANTA INES                              65300000MA4471400005032982256826-4B     12042013800UNIBANCO S/A        1101201400000000000178243CC                                                                                                                                                                                                                                                                                                                                                                                           262044-55     000056
1018421032351COBR_CAUC_BIC  NAVE INDUSTRIAL EIRELI - ME             005977761000111S.F.CHAVES                              AV.WALDOMIRO R OLIVEIRA Q9 LT20         GOIANIA                                 74484700GO4471300001032986418181-1      26062013018GOIANIA             1910201300000000000148468CC                                                                                                                                                                                                                                                                                                                                                                                           262044-56     000057
1018421032351COBR_CAUC_BIC  NAVE INDUSTRIAL EIRELI - ME             005977761000111S.F.CHAVES                              AV.WALDOMIRO R OLIVEIRA Q9 LT20         GOIANIA                                 74484700GO4471300002032986598181-2      26062013018GOIANIA             0111201300000000000148468CC                                                                                                                                                                                                                                                                                                                                                                                           262044-57     000058
1018421032351COBR_CAUC_BIC  NAVE INDUSTRIAL EIRELI - ME             005977761000111S.F.CHAVES                              AV.WALDOMIRO R OLIVEIRA Q9 LT20         GOIANIA                                 74484700GO4471300003032986678181-3      26062013018GOIANIA             1411201300000000000148468CC                                                                                                                                                                                                                                                                                                                                                                                           262044-58     000059
1018421032351COBR_CAUC_BIC  NAVE INDUSTRIAL EIRELI - ME             005977761000111S.F.CHAVES                              AV.WALDOMIRO R OLIVEIRA Q9 LT20         GOIANIA                                 74484700GO4471300004032986758181-4      26062013018GOIANIA             2711201300000000000148468CC                                                                                                                                                                                                                                                                                                                                                                                           262044-59     000060
1018421032351COBR_CAUC_BIC  NAVE INDUSTRIAL EIRELI - ME             005977761000111S.F.CHAVES                              AV.WALDOMIRO R OLIVEIRA Q9 LT20         GOIANIA                                 74484700GO4471300005032986838181-5      26062013018GOIANIA             1012201300000000000148468CC                                                                                                                                                                                                                                                                                                                                                                                           262044-60     000061
1018421032351COBR_CAUC_BIC  NAVE INDUSTRIAL EIRELI - ME             005883488000166COMERCIAL ARROIOS COMERCIO ATA E R      RUA VF31 Q35 L08                        GOIANIA                                 74473270GO4471200001032987308125-1      26062013018GOIANIA             3010201300000000000128471CC                                                                                                                                                                                                                                                                                                                                                                                           262044-61     000062
1018421032351COBR_CAUC_BIC  NAVE INDUSTRIAL EIRELI - ME             005883488000166COMERCIAL ARROIOS COMERCIO ATA E R      RUA VF31 Q35 L08                        GOIANIA                                 74473270GO4471200002032987488125-2      26062013018GOIANIA             1011201300000000000128471CC                                                                                                                                                                                                                                                                                                                                                                                           262044-62     000063
1018421032351COBR_CAUC_BIC  NAVE INDUSTRIAL EIRELI - ME             005883488000166COMERCIAL ARROIOS COMERCIO ATA E R      RUA VF31 Q35 L08                        GOIANIA                                 74473270GO4471200003032987568125-3      26062013018GOIANIA             2411201300000000000128471CC                                                                                                                                                                                                                                                                                                                                                                                           262044-63     000064
1018421032351COBR_CAUC_BIC  NAVE INDUSTRIAL EIRELI - ME             005883488000166COMERCIAL ARROIOS COMERCIO ATA E R      RUA VF31 Q35 L08                        GOIANIA                                 74473270GO4471200004032987648125-4      26062013018GOIANIA             0412201300000000000128471CC                                                                                                                                                                                                                                                                                                                                                                                           262044-64     000065
1018421032351COBR_CAUC_BIC  NAVE INDUSTRIAL EIRELI - ME             005883488000166COMERCIAL ARROIOS COMERCIO ATA E R      RUA VF31 Q35 L08                        GOIANIA                                 74473270GO4471200005032987728125-5      26062013018GOIANIA             1912201300000000000128471CC                                                                                                                                                                                                                                                                                                                                                                                           262044-65     000066
1018421032351COBR_CAUC_COR  NAVE INDUSTRIAL EIRELI - ME             009399277000103ELINA MARIA BERNARDES FERREIRA - M      RUA QUINZE DE NOVEMBRO N.837            CAMPESTRE                               37730000MG4471100001032638217723-3B     27052013800UNIBANCO S/A        1810201300000000000187723CC                                                                                                                                                                                                                                                                                                                                                                                           262044-66     000067
1018421032351COBR_CAUC_COR  NAVE INDUSTRIAL EIRELI - ME             009399277000103ELINA MARIA BERNARDES FERREIRA - M      RUA QUINZE DE NOVEMBRO N.837            CAMPESTRE                               37730000MG4471100002032638397723-4B     27052013800UNIBANCO S/A        1711201300000000000187723CC                                                                                                                                                                                                                                                                                                                                                                                           262044-67     000068
1018421032351COBR_CAUC_COR  NAVE INDUSTRIAL EIRELI - ME             009399277000103ELINA MARIA BERNARDES FERREIRA - M      RUA QUINZE DE NOVEMBRO N.837            CAMPESTRE                               37730000MG4471100003032638477723-5A     27052013800UNIBANCO S/A        1712201300000000000145051CC                                                                                                                                                                                                                                                                                                                                                                                           262044-68     000069
1018421032351COBR_CAUC_COR  NAVE INDUSTRIAL EIRELI - ME             013826937000162ELZA APARECIDA PANICHI                  RUA BATISTA MARTINS N.135               SAO MANOEL                              18650000SP4471000001033529719951-2B     05082013800UNIBANCO S/A        1410201300000000000121934CC                                                                                                                                                                                                                                                                                                                                                                                           262044-69     000070
1018421032351COBR_CAUC_COR  NAVE INDUSTRIAL EIRELI - ME             013826937000162ELZA APARECIDA PANICHI                  RUA BATISTA MARTINS N.135               SAO MANOEL                              18650000SP4471000002033529809951-3A     05082013800UNIBANCO S/A        1311201300000000000188452CC                                                                                                                                                                                                                                                                                                                                                                                           262044-70     000071
1018421032351COBR_CAUC_COR  NAVE INDUSTRIAL EIRELI - ME             009321508000166MARIA ELISANGELA SANTOS DA CRUZ RE      RUA BRAZ DO AMARAL S/N                  PARIPIRANGA                             48430000BA4470900001032987136000-1      05032013900BRADESCO S/A        2910201300000000000128944CC                                                                                                                                                                                                                                                                                                                                                                                           262044-71     000072
1018421032351COBR_CAUC_COR  NAVE INDUSTRIAL EIRELI - ME             009321508000166MARIA ELISANGELA SANTOS DA CRUZ RE      RUA BRAZ DO AMARAL S/N                  PARIPIRANGA                             48430000BA4470900002032987216000-2      05032013900BRADESCO S/A        2811201300000000000166898CC                                                                                                                                                                                                                                                                                                                                                                                           262044-72     000073
1018421032351COBR_CAUC_BIC  NAVE INDUSTRIAL EIRELI - ME             007261999000171NACIONAL COM.CONF. LTDA                 RUA SC14 Q07 L07                        GOIANIA                                 74474017GO4470800001033366919186-4B     22072013018GOIANIA             2812201300000000000160875CC                                                                                                                                                                                                                                                                                                                                                                                           262044-73     000074
1018421032351COBR_CAUC_BIC  NAVE INDUSTRIAL EIRELI - ME             007261999000171NACIONAL COM.CONF. LTDA                 RUA SC14 Q07 L07                        GOIANIA                                 74474017GO4470800002033367049186-5A     22072013018GOIANIA             1201201400000000000124274CC                                                                                                                                                                                                                                                                                                                                                                                           262044-74     000075
1018421032351COBR_CAUC_COR  NAVE INDUSTRIAL EIRELI - ME             026582619000145LOJA DE ROUPAS ESTRELA DALVA LTDA       AV.UIRAPURUS N§.169 N                   NOVA MUTUM                              78450000MT4470700001033528159945-2B     05082013800UNIBANCO S/A        1510201300000000000136544CC                                                                                                                                                                                                                                                                                                                                                                                           262044-75     000076
1018421032351COBR_CAUC_COR  NAVE INDUSTRIAL EIRELI - ME             026582619000145LOJA DE ROUPAS ESTRELA DALVA LTDA       AV.UIRAPURUS N§.169 N                   NOVA MUTUM                              78450000MT4470700002033528239945-3B     05082013800UNIBANCO S/A        1411201300000000000136544CC                                                                                                                                                                                                                                                                                                                                                                                           262044-76     000077
1021421015970COBR_CAUC_COR  UNITED MILLS ALIMENTOS LTDA             025757840000124PEIXOTO COM IND SERV E TRANSP LTDA      AVENIDA JOSE ANDRAUS GASSANI, 6000      UBERLANDIA                              38402324MG446700000106455511000079882   02102013900BRADESCO S/A        1712201300000000015911136CC                                                                                                                                                                                                                                                                                                                                                                                           262044-77     000078
9000077                                                                                                                                                                                                                                                                                                                                                                                                                                                                                                                                                                                                                                                                                                               000079
