0REMESSANOTIFICAÇÃO ELETRONICA        99999999999999Bicbanco S/A                            Avenida Brigadeiro Faria Lima           4.440     2º andar  Itaim Bibi                    São Paulo                     04538132SPBicbanco S/A                                                                    29012014                                                                                                                                                                                                                                                                                                                                                                                                000001
1007421064990COBR_CAUC_COR  CBS IND IMP EXP LTDA                    070940994005251PANDURATA ALIMENTOS LTDA                RUA JOSE ANTONIO PEREIRA PASSO,899      EXTREMA                                 37640000MG46162000010261314954491/U     23012014700BANCO REAL- ABN AMRO0904201400000000011172900CC                                                                                                                                                                                                                                                                                                                                                                                           281569-1      000002
1018420932820COBR_CAUC_COR  ADUBOS ARAGUAIA IND. E COM. LTDA        000099523400100HUGO RAFAEL COELHO BORGES               ROD GO 237 KM 55 SN                     NIQUELANDIA                             76420000GO4617400001035918360009982401  22012014900BRADESCO S/A        3005201400000000019269862CC                                                                                                                                                                                                                                                                                                                                                                                           281570-1      000003
1043421010111COBR_CAUC_COR  ATACADAO DE EST. E CER.RIO DO PEIXE     002696867000159SUPER MIX COMERCIO DE PRODUTOS DE       RUA AMADOR BUENO149                     SAO PAULO                               04752005SP46175000010024396123642562Z   27012014900BRADESCO S/A        2602201400000000010560000CC                                                                                                                                                                                                                                                                                                                                                                                           281570-2      000004
1043421010111COBR_CAUC_COR  ATACADAO DE EST. E CER.RIO DO PEIXE     002696867000159SUPER MIX COMERCIO DE PRODUTOS DE       RUA AMADOR BUENO149                     SAO PAULO                               04752005SP46175000020024397923642563Z   27012014900BRADESCO S/A        2602201400000000010560000CC                                                                                                                                                                                                                                                                                                                                                                                           281570-3      000005
1043421010111COBR_CAUC_COR  ATACADAO DE EST. E CER.RIO DO PEIXE     002696867000159SUPER MIX COMERCIO DE PRODUTOS DE       RUA AMADOR BUENO149                     SAO PAULO                               04752005SP46175000030024398723642564Z   27012014900BRADESCO S/A        2602201400000000010560000CC                                                                                                                                                                                                                                                                                                                                                                                           281570-4      000006
1043421010111COBR_CAUC_COR  ATACADAO DE EST. E CER.RIO DO PEIXE     002696867000159SUPER MIX COMERCIO DE PRODUTOS DE       RUA AMADOR BUENO149                     SAO PAULO                               04752005SP46175000040024399523642565Z   27012014900BRADESCO S/A        2602201400000000010560000CC                                                                                                                                                                                                                                                                                                                                                                                           281570-5      000007
1043421010111COBR_CAUC_COR  ATACADAO DE EST. E CER.RIO DO PEIXE     002696867000159SUPER MIX COMERCIO DE PRODUTOS DE       RUA AMADOR BUENO149                     SAO PAULO                               04752005SP46175000050024400223642566Z   27012014900BRADESCO S/A        2602201400000000010560000CC                                                                                                                                                                                                                                                                                                                                                                                           281570-6      000008
1043421010111COBR_CAUC_COR  ATACADAO DE EST. E CER.RIO DO PEIXE     002696867000159SUPER MIX COMERCIO DE PRODUTOS DE       RUA AMADOR BUENO149                     SAO PAULO                               04752005SP46175000060024401123642567Z   27012014900BRADESCO S/A        2602201400000000010560000CC                                                                                                                                                                                                                                                                                                                                                                                           281570-7      000009
9000008                                                                                                                                                                                                                                                                                                                                                                                                                                                                                                                                                                                                                                                                                                               000010
