0REMESSANOTIFICAÇÃO ELETRONICA        99999999999999Bicbanco S/A                            Avenida Paulista                        1048      12º andar BELA VISTA                    SÃO PAULO                     01310100SPBicbanco S/A                                                                    25112010                                                                                                                                                                                                                                                                                                                                                                                                000001
1003421007502DIR_CREDIT     CONSTRUTORES ASSOCIADOS LTDA            004887055000116CIA DE HAB. DO ESTADO DO PARA - COHAB/PAPASSAGEM GAMA MALCHER 361               PARA                                    66630505PA2508000001                                                                                                                                          011210512           26022008000000517202/2008     17112010000401EXECUCAO DE OBRAS DE URBANIZACAO, SANEAMENTO E HABITACAO DO PROGRAMA DEACELERACAO DO CRESCIMENTO - PAC                                                                                                                                          005303995000183116445-1      000002
1046421000617COBR_CAUC_BIC  INPLAC INDUSTRIA DE PLASTICOS S/A       004716366000112EMBALAGENS FLEXIVEIS DIADEMA SA         AV FUNDIBEM ,184                        DIADEMA                                 09961390SP251310000100915061001154185   19112010038ABC                 2412201000000000010152062CC                                                                                                                                                                                                                                                                                                                                                                                           116445-2      000003
1007420931444COBR_CAUC_BIC  PLASINCO LTDA                           047090782000160DANEVA MAQ. E COND. EL. LTDA.           RUA VOTUPORANGA,415                     POA                                     08558050SP2513200001002360719036-A      22112010007PAULISTA            1312201000000000021628742CC                                                                                                                                                                                                                                                                                                                                                                                           116445-3      000004
1007420931444COBR_CAUC_BIC  PLASINCO LTDA                           053606869000221BRASCOPPER CBC BRASILEIRA DE COND       RUA URUGUAI,2050                        RIBEIRAO PRETO                          14075330SP2513300001002360899019-A      19112010022RIBEIRAO PRETO      1712201000000000010597680CC                                                                                                                                                                                                                                                                                                                                                                                           116445-4      000005
1022421005301COBR_CAUC_BIC  IOD - ALIMENTOS LTDA                    007814533000156BIOCAPITAL PARTICIPACOES S.A.           RUA PAMPLONA, 1018 - 4º ANDAR           SAO PAULO                               01405001SP2513400001040717180001753254  14112010007PAULISTA            2212201000000000023500000CC                                                                                                                                                                                                                                                                                                                                                                                           116445-5      000006
1024420934410COBR_CAUC_BIC  INTERCOOP INT SUIN MED NORTE MT LTD     001928075009822DMA DISTRIBUIDORA S A                   RODOVIA BR 040 180 KM 531,180           BELO HORIZONTE                          30855500MG25135000010184432149027       10112010019BELO HORIZONTE      1012201000000000013288744CC                                                                                                                                                                                                                                                                                                                                                                                           116445-6      000007
1022421004755COBR_CAUC_COR  FRIGOL S.A. EM RECUPERACAO JUDICIAL     004449150000138FRIPAR INDUSTRIA E COMERCIO DE CAR      AV PRES. RANIERI MAZZILI, 1022          NATAL                                   59074185RN2513600001000947644879        23112010900BRADESCO S/A        2911201000000000011110028CC                                                                                                                                                                                                                                                                                                                                                                                           116445-7      000008
1022421004755COBR_CAUC_COR  FRIGOL S.A. EM RECUPERACAO JUDICIAL     004623921000161COMERCIO DE CARNES PADRE CICERO LT      R: PHILARETTE CARNEIRO NOBRELACERDA, 158RECIFE                                  50770120PE2513700001000947134852        23112010900BRADESCO S/A        2611201000000000018028667CC                                                                                                                                                                                                                                                                                                                                                                                           116445-8      000009
1022421004755COBR_CAUC_COR  FRIGOL S.A. EM RECUPERACAO JUDICIAL     004623921000161COMERCIO DE CARNES PADRE CICERO LT      R: PHILARETTE CARNEIRO NOBRELACERDA, 158RECIFE                                  50770120PE2513700002000947214853        23112010900BRADESCO S/A        2611201000000000018436579CC                                                                                                                                                                                                                                                                                                                                                                                           116445-9      000010
1022421004755COBR_CAUC_COR  FRIGOL S.A. EM RECUPERACAO JUDICIAL     004623921000161COMERCIO DE CARNES PADRE CICERO LT      R: PHILARETTE CARNEIRO NOBRELACERDA, 158RECIFE                                  50770120PE2513700003000947484858        23112010900BRADESCO S/A        2911201000000000018923863CC                                                                                                                                                                                                                                                                                                                                                                                           116445-10     000011
1022421004755COBR_CAUC_COR  FRIGOL S.A. EM RECUPERACAO JUDICIAL     010142068000169FRIGOMIX INDUSTRIA E COM DE CARNES      RUA AYRTON SENNA DA SILVA, 820          ITAGUAI                                 23810760RJ2513800001000947054857        23112010900BRADESCO S/A        2611201000000000017344136CC                                                                                                                                                                                                                                                                                                                                                                                           116445-11     000012
1042141000037COBR_CAUC_BIC  COBRACO SERVICOS E MONTAGENS LTDA       008675637000190CEMEC CONST ENG ELET E MOTAGENS LT      RU 01 QD A KM 08                        SAO LUIS                                65099110MA25139000010180634684/10       19112010042SAO LUIS            1403201100000000047300000TD                                                                                                                                                                                                                                                                                                                                                                                           116445-12     000013
1014421008439COBR_CAUC_BIC  TV OMEGA LTDA                           012069667000120Clube Urbano Serviços Digitais Ltd      Av. Brigadeiro Faria Lima - 16º a1478   SãoPaulo                                01452002SP251400000104322315497252      19112010007PAULISTA            1501201100000000011994660CC                                                                                                                                                                                                                                                                                                                                                                                           116445-13     000014
9000013                                                                                                                                                                                                                                                                                                                                                                                                                                                                                                                                                                                                                                                                                                               000015
