0REMESSANOTIFICAÇÃO ELETRONICA        99999999999999Bicbanco S/A                            Avenida Brigadeiro Faria Lima           4.440     2º andar  Itaim Bibi                    São Paulo                     04538132SPBicbanco S/A                                                                    16012015                                                                                                                                                                                                                                                                                                                                                                                                000001
1046421006070DIR_CREDIT     METALURGICA DS LTDA                     060857349000176TRW AUTOMOTIVE LTDA                     VIA ANHANGUERA KM 147                   LIMEIRA                                 13486915SP5031100001                                                                                                                                          012720094           260320070000018698            11122014000404fornecimento de discos e tambores de freio para automóveis.                                                                                                                                                                                     079414868000198341025-1      000002
1014421025163DIR_CREDIT     REALMAR DISTRIBUIDORA LTDA              027406222000165DACASA FINANCEIRA S/A - SCFI            AV NOSSA SENHORA DA PENHA 2035          VITORIA                                 29056245ES5034000001                                                                                                                                          012596424           020720040000024113S/NR        09062014051902Determinação das normas, condições e obrigações referentes a vinculaçãodo Estabelecimento ao Sistema Dacasa de Cartões de Crédito.                                                                                                              003845717000122341025-2      000003
1046421006399DIR_CREDIT     CARBONIFERA CRICIUMA S/A                002474103000208TRACTEBEL ENERGIA S/A                   AVENIDA PAULO SANTOS MELLO, S/NR        CAPIVARI DE BAIXO                       88745000SC5039500001                                                                                                                                          012720361           011220100000020197DGT.NAJL.05.17122014000403compra de carvão mineral tipo CE 4500.                                                                                                                                                                                                          083647909000163341025-3      000004
1046421006070DIR_CREDIT     METALURGICA DS LTDA                     060857349000176TRW AUTOMOTIVE LTDA                     VIA ANHANGUERA KM 147                   LIMEIRA                                 13486915SP5040600001                                                                                                                                          012723727           260320070000018698            22122014000404fornecimento de discos e tambores de freio para automóveis.                                                                                                                                                                                     079414868000198341025-4      000005
1022421003783DIR_CREDIT     VIRGOLINO DE OLIVEIRA S/A AC E ALC      061149589000189COOP.DE PRODS DE CANA-DE-AçúCAR,Aç E ALCAV. PAULISTA, 287 - 3 ANDAR             SÃO PAULO                               01311000SP5040900001                                                                                                                                          126529731           010420090000010064DEJR-7084/2018122014001709Repasse pela COOPERATIVA de 1,5% do saldo líquido credor da contamovimento disponibilidade da USINA, no período de 30/10/12 até 04/11/15, 5,7%no período de 15/04/13 até 30/01/15 e 6,70% no período de 01/05/15 até 31/12/15                   049911589000179341025-5      000006
1022421005590DIR_CREDIT     ACUCAREIRA VIRGOLINO DE OLIVEIRA S/     061149589000189COOP.DE PRODS DE CANA-DE-AÇÚCAR,AÇ E ALCAV PAULISTA, 287, 3 ANDAR               SãO PAULO                               01311000SP5041100001                                                                                                                                          126529729           010420100000014706DEJR-7083/2018122014001709Repasse pela COOPERATIVA de 3,5% do saldo líquido credor da contamovimento disponibilidade da USINA, no período de 30/10/12 até 04/11/15, 11,50%no período de 15/04/13 até 30/01/15 e 11,4% no período de 01/05/15 até 31/12/15                 007024792000264341025-6      000007
1046421006070DIR_CREDIT     METALURGICA DS LTDA                     060857349000176TRW AUTOMOTIVE LTDA                     VIA ANHANGUERA KM 147                   LIMEIRA                                 13486915SP5043800001                                                                                                                                          012725320           260320070000018698            29122014000404fornecimento de discos e tambores de freio para automóveis.                                                                                                                                                                                     079414868000198341025-7      000008
1024420933562DIR_CREDIT     GLOBAL ENERGIA ELETRICA S/A             003467321000199CENTRAIS ELETRICAS MATOGROSSENSES S/A   RUA MANOEL DOS SANTOS COIMBRA_184       CUIABA                                  78015285MT5044800001                                                                                                                                          012725270           0109200100000006391712/AJU/20030122014000415COMPRA E VENDA DE ENERGIA ELETRICA FORNECIDA PELA SUPRIDORA AS INSTALA-COES DA COMPRADORA,TENDO COMO PONTO DE ENTREGA A SUBESTACAO DE CAMPO NOVO DO PARECIS,ONDE ENTRARA EM OPERACAO COMERCIAL A INSTALACAO DE PRODUCAO PCH BARUITO.            036948016000178341025-8      000009
1007421034080COBR_CAUC_BIC  SIDMEX INTERNACIONAL LTDA               012765929000190TEXTIL WOK TOKI LTDA EPP                JOSE PAULINO,691-3 ANDAR SALA 16        SAO PAULO                               01120001SP5045700001035535651144141     30122014007PAULISTA            1602201500000000013050000CC                                                                                                                                                                                                                                                                                                                                                                                           341025-9      000010
1022421008149COBR_CAUC_COR  PASSAREDO T. AEREOS LTDA-EM REC.JUD     010760260000119CVC BRASIL OPERADORA E AGENCIA DE       RUA GERTRUDES DE LIMA,53-CJ 52          SANTO ANDRE                             09020000SP504580000100018936118967      31122014900BRADESCO S/A        1401201500000000015441547CC                                                                                                                                                                                                                                                                                                                                                                                           341025-10     000011
1046421006070DIR_CREDIT     METALURGICA DS LTDA                     060857349000176TRW AUTOMOTIVE LTDA                     VIA ANHANGUERA KM 147                   LIMEIRA                                 13486915SP5046100001                                                                                                                                          012726572           260320070000018698            02012015000404fornecimento de discos e tambores de freio para automóveis.                                                                                                                                                                                     079414868000198341025-11     000012
1007421076122COBR_CAUC_COR  BMC HYUNDAI S.A                         012802557000125DESTAQUE TERRAPLENAGEM LTDA             RUA GUAIRA,1774                         CACOAL                                  76967482RO50462000010337567503043435E   24072014700BANCO REAL- ABN AMRO1502201500000000011200000CC                                                                                                                                                                                                                                                                                                                                                                                           341025-12     000013
1007421076122COBR_CAUC_COR  BMC HYUNDAI S.A                         012802557000125DESTAQUE TERRAPLENAGEM LTDA             RUA GUAIRA,1774                         CACOAL                                  76967482RO50462000020337569103043435H   24072014700BANCO REAL- ABN AMRO1505201500000000011200000CC                                                                                                                                                                                                                                                                                                                                                                                           341025-13     000014
1007421076122COBR_CAUC_COR  BMC HYUNDAI S.A                         012802557000125DESTAQUE TERRAPLENAGEM LTDA             RUA GUAIRA,1774                         CACOAL                                  76967482RO50462000030337571303043435G   24072014700BANCO REAL- ABN AMRO1504201500000000011200000CC                                                                                                                                                                                                                                                                                                                                                                                           341025-14     000015
1007421076122COBR_CAUC_COR  BMC HYUNDAI S.A                         012802557000125DESTAQUE TERRAPLENAGEM LTDA             RUA GUAIRA,1774                         CACOAL                                  76967482RO50462000040337572103043435F   24072014700BANCO REAL- ABN AMRO1503201500000000011200000CC                                                                                                                                                                                                                                                                                                                                                                                           341025-15     000016
1007421076122COBR_CAUC_COR  BMC HYUNDAI S.A                         012802557000125DESTAQUE TERRAPLENAGEM LTDA             RUA GUAIRA,1774                         CACOAL                                  76967482RO50462000050337575603043435D   24072014700BANCO REAL- ABN AMRO1501201500000000011200000CC                                                                                                                                                                                                                                                                                                                                                                                           341025-16     000017
1048421000338COBR_CAUC_COR  FRIGOESTRELA S AEM RECUP JUDICIAL       008070362000160NS ALIMENTOS LTDA                       R MANOEL JOAQUIM DE GOIS, 236           SAO PAULO                               05160100SP5046300001090022340091578101  04012015900BRADESCO S/A        1801201500000000011123012CC                                                                                                                                                                                                                                                                                                                                                                                           341027-1      000018
1007421006183COBR_CAUC_BIC  NITRIFLEX S/A IND E COMERCIO            062143847000182DACARTO BENVIC LTDA.                    ESTRADA DA ALPINA, 59                   OSASCO                                  06278903SP504650000103558583002768901   05012015007PAULISTA            0902201500000000013734480CC                                                                                                                                                                                                                                                                                                                                                                                           341261-1      000019
1007421072259COBR_CAUC_COR  BOMBRIL S/A                             007633671000139REAL COMERCIO DE MIUDEZAS LTDA          ROD BR-040 KM 688 S/N, P 03 LJ05        CONTAGEM                                32145900MG5046600001035600810067645001  29122014900BRADESCO S/A        1901201500000000010803531CC                                                                                                                                                                                                                                                                                                                                                                                           341261-2      000020
1007421055095COBR_CAUC_COR  PLASTER COM DE RESINAS PLAST EIRELI     001892570000104COEXPAN BRASIL EMBALAGENS LTDA          ROD DOM GABRIEL PAULINO BUENO ,100      JUNDIAI                                 13201970SP504670000100024464045956/A    05012015900BRADESCO S/A        0303201500000000019375125CC                                                                                                                                                                                                                                                                                                                                                                                           341261-3      000021
1021421017050COBR_CAUC_BIC  STAR DISTR PROD FARMACEUTICOS LTDA      061585865073701RAIA DROGASIL S/A                       RUA PATAXOS , 1412                      EMBU                                    06833073SP5046800001000088900000465701  06012015007PAULISTA            0703201500000000012032742CC                                                                                                                                                                                                                                                                                                                                                                                           341261-4      000022
1021421017050COBR_CAUC_BIC  STAR DISTR PROD FARMACEUTICOS LTDA      061585865073701RAIA DROGASIL S/A                       RUA PATAXOS , 1412                      EMBU                                    06833073SP5046800002000090390000467701  06012015007PAULISTA            2001201500000000044064149CC                                                                                                                                                                                                                                                                                                                                                                                           341261-5      000023
1021421017050COBR_CAUC_BIC  STAR DISTR PROD FARMACEUTICOS LTDA      061585865073701RAIA DROGASIL S/A                       RUA PATAXOS , 1412                      EMBU                                    06833073SP5046800003000090470000467801  06012015007PAULISTA            2001201500000000020935832CC                                                                                                                                                                                                                                                                                                                                                                                           341261-6      000024
1021421017050COBR_CAUC_BIC  STAR DISTR PROD FARMACEUTICOS LTDA      061585865073701RAIA DROGASIL S/A                       RUA PATAXOS , 1412                      EMBU                                    06833073SP5047100001000090800000468201  06012015007PAULISTA            2001201500000000014947411CC                                                                                                                                                                                                                                                                                                                                                                                           341262-1      000025
1021421017050COBR_CAUC_BIC  STAR DISTR PROD FARMACEUTICOS LTDA      061585865073701RAIA DROGASIL S/A                       RUA PATAXOS , 1412                      EMBU                                    06833073SP5047100002000091100000468501  06012015007PAULISTA            0703201500000000018832597CC                                                                                                                                                                                                                                                                                                                                                                                           341262-2      000026
1007421034080COBR_CAUC_BIC  SIDMEX INTERNACIONAL LTDA               001414471000109PROCOMEX CONSULTORIA EM NEG. INT.       TAMANDARE,1029-CONJ 107                 SAO PAULO                               01525001SP504740000103566853040414      08012015007PAULISTA            2301201500000000010501416CC                                                                                                                                                                                                                                                                                                                                                                                           341265-1      000027
1007421034080COBR_CAUC_BIC  SIDMEX INTERNACIONAL LTDA               012765929000190TEXTIL WOK TOKI LTDA EPP                JOSE PAULINO,691-3 ANDAR SALA 16        SAO PAULO                               01120001SP5047500001035668371144142     08012015007PAULISTA            1602201500000000011958888CC                                                                                                                                                                                                                                                                                                                                                                                           341265-2      000028
1007421055095COBR_CAUC_COR  PLASTER COM DE RESINAS PLAST EIRELI     054423017000180MASSUCATO INDUSTRIA E COMERCIO LTD      RUA RUI ILDEFONSO MARTINS LISB,430      CAMPINAS                                13082020SP504760000100024472045898/A    18122014900BRADESCO S/A        2701201500000000010286719CC                                                                                                                                                                                                                                                                                                                                                                                           341265-3      000029
1008421022819COBR_CAUC_COR  SM FOMENTO COMERCIAL LTDA               000376507000144ABF ENGENHARIA SERVICOS E COMERCIO      R JOSE FERRAO 34                        PAULISTA                                53433630PE504910000100105386627         12012015900BRADESCO S/A        2501201500000000010809255CC                                                                                                                                                                                                                                                                                                                                                                                           341271-1      000030
1020421001652COBR_CAUC_COR  SANTHER FAB PAP STA THEREZINHA S/A      013338712000167MARTINS & BRUCHMAM MARTINS LTDA         ROD MT 320, KM 32, SN GALPAO A          COLIDER                                 78500000MT504920000106460341058132801   11012015600HSBC BANK BRASIL    1602201500000000013503392CC                                                                                                                                                                                                                                                                                                                                                                                           341271-2      000031
1048421000338COBR_CAUC_COR  FRIGOESTRELA S AEM RECUP JUDICIAL       004107954000159INTERMEZZO COM. DE PROD. GOURMET S      RUA OLIMPIO PORTUGAL, 148               SAO PAULO                               03112010SP5049300001090151400121881401  09012015900BRADESCO S/A        0302201500000000010145641CC                                                                                                                                                                                                                                                                                                                                                                                           341271-3      000032
1048421000338COBR_CAUC_COR  FRIGOESTRELA S AEM RECUP JUDICIAL       049254634000160NUTRIPLUS ALIMENTACAO E TECNOLOGIA      RUA SICILIA, 168                        SALTO                                   13321390SP5049400001090155310121886601  10012015900BRADESCO S/A        0402201500000000021159913CC                                                                                                                                                                                                                                                                                                                                                                                           341271-4      000033
1015421022340COBR_CAUC_BIC  BORRACHAS VIPAL SA                      017854038000124N D CANELLO                             RUA FORROMECO, 125 SALA 02              BOM PRINCIPIO                           95765000RS504980000101397490054148701   12012015015PORTO ALEGRE        2704201500000000012902274CC                                                                                                                                                                                                                                                                                                                                                                                           341273-1      000034
1022421008149COBR_CAUC_COR  PASSAREDO T. AEREOS LTDA-EM REC.JUD     010760260000119CVC BRASIL OPERADORA E AGENCIA DE       RUA GERTRUDES DE LIMA,53-CJ 52          SANTO ANDRE                             09020000SP504990000100019037119178      10012015900BRADESCO S/A        2301201500000000021277740CC                                                                                                                                                                                                                                                                                                                                                                                           341273-2      000035
9000034                                                                                                                                                                                                                                                                                                                                                                                                                                                                                                                                                                                                                                                                                                               000036
