0REMESSANOTIFICAÇÃO ELETRONICA        99999999999999Bicbanco S/A                            Avenida Paulista                        1048      12º andar BELA VISTA                    SÃO PAULO                     01310100SPBicbanco S/A                                                                    24112010                                                                                                                                                                                                                                                                                                                                                                                                000001
1022421005905DIR_CREDIT     BAMBOZZI SOLDAS LTDA                    001323168000109PORTOSERRA ESTRUTURAS E ESQUADRIAS METALRUA VICTORIO UMBERTO ZOTTIS, 102        NOVA BASSANO                            95340000RS2508900001                                                                                                                                          011208016           190820100000016264            17112010000404pac protocolada - caixa economica federal                                                                                                                                                                                                       003868938000116116334-1      000002
1010421019891DIR_CREDIT     CIDADE TRANSPORTES LTDA                 003128979000176DISTR.EQUADOR DE PRODUTOS DE PETROLEO   RUA PAJURA 895 VILA BURITI              MANAUS                                  69072065AM2512200001                                                                                                                                          011185069           260420070000015968_001/2007   18112010000403TRANSPORTE VIA FLUVIAL COMBUSTIVEL(GASOLINA, ALCOOL E DIESEL) EM CARRETAS TANQUE.                                                                                                                                                               006151511000190116334-2      000003
1028421002921COBR_CAUC_COR  FRIGORIFICO MATABOI S/A                 004557157000335PREZUNIC COMERCIAL LTDA                 R DO ALPISTE 568                        RIO DE JANEIRO                          21011010RJ2512500001002231290012964201  19112010900BRADESCO S/A        1912201000000000019106426CC                                                                                                                                                                                                                                                                                                                                                                                           116334-3      000004
1021420930887COBR_CAUC_BIC  DEDINI S/A INDUSTRIAS DE BASE           075717355001177USINA DE ACUCAR SANTA TEREZINHA LT      AV MARCELO MESSIAS BUSIQUIA PQ INDUSTRIAMARINGA                                 87065006PR251260000105979991123787-8-8  19112010016CURITIBA            2003201100000000028955560CC                                                                                                                                                                                                                                                                                                                                                                                           116334-4      000005
1021420930887COBR_CAUC_BIC  DEDINI S/A INDUSTRIAS DE BASE           075717355001177USINA DE ACUCAR SANTA TEREZINHA LT      AV MARCELO MESSIAS BUSIQUIA PQ INDUSTRIAMARINGA                                 87065006PR251260000205980000123628-8-8  19112010016CURITIBA            2003201100000000021758640CC                                                                                                                                                                                                                                                                                                                                                                                           116334-5      000006
1020421000710COBR_CAUC_COR  ART SERVICES SOLUCOESLOGISTICA SA       084046101037194BUNGE ALIMENTOS S/A                     AV ALEXANDRE MACKENZIE,166              SAO PAULO                               05322900SP251270000100000179004777      29102010900BRADESCO S/A        3011201000000000000215131CC                                                                                                                                                                                                                                                                                                                                                                                           116334-6      000007
1020421000710COBR_CAUC_COR  ART SERVICES SOLUCOESLOGISTICA SA       084046101037194BUNGE ALIMENTOS S/A                     AV ALEXANDRE MACKENZIE,166              SAO PAULO                               05322900SP251270000200000187004775      29102010900BRADESCO S/A        3011201000000000000199879CC                                                                                                                                                                                                                                                                                                                                                                                           116334-7      000008
1020421000710COBR_CAUC_COR  ART SERVICES SOLUCOESLOGISTICA SA       001615814000799UNILEVER BRASIL ALIM LTDA               AV JUSCELINO KUBITSCHEK,1309            SAO PAULO                               04543011SP251280000100000012003461      30062010900BRADESCO S/A        0112201000000000019748619CC                                                                                                                                                                                                                                                                                                                                                                                           116334-8      000009
1020421000710COBR_CAUC_COR  ART SERVICES SOLUCOESLOGISTICA SA       001615814000799UNILEVER BRASIL ALIM LTDA               AV JUSCELINO KUBITSCHEK,1309            SAO PAULO                               04543011SP251280000200000021003462      30062010900BRADESCO S/A        0112201000000000019748619CC                                                                                                                                                                                                                                                                                                                                                                                           116334-9      000010
1020421000710COBR_CAUC_COR  ART SERVICES SOLUCOESLOGISTICA SA       001615814000799UNILEVER BRASIL ALIM LTDA               AV JUSCELINO KUBITSCHEK,1309            SAO PAULO                               04543011SP251280000300000217004749      28102010900BRADESCO S/A        0112201000000000001407920CC                                                                                                                                                                                                                                                                                                                                                                                           116334-10     000011
1020421000710COBR_CAUC_COR  ART SERVICES SOLUCOESLOGISTICA SA       001615814000799UNILEVER BRASIL ALIM LTDA               AV JUSCELINO KUBITSCHEK,1309            SAO PAULO                               04543011SP251280000400000225004748      28102010900BRADESCO S/A        0112201000000000000430000CC                                                                                                                                                                                                                                                                                                                                                                                           116334-11     000012
1020421000710COBR_CAUC_COR  ART SERVICES SOLUCOESLOGISTICA SA       001615814000799UNILEVER BRASIL ALIM LTDA               AV JUSCELINO KUBITSCHEK,1309            SAO PAULO                               04543011SP251280000500000233004739      27102010900BRADESCO S/A        3011201000000000006000000CC                                                                                                                                                                                                                                                                                                                                                                                           116334-12     000013
1020421000710COBR_CAUC_COR  ART SERVICES SOLUCOESLOGISTICA SA       001615814000799UNILEVER BRASIL ALIM LTDA               AV JUSCELINO KUBITSCHEK,1309            SAO PAULO                               04543011SP251280000600000268004693      26102010900BRADESCO S/A        2911201000000000004500000CC                                                                                                                                                                                                                                                                                                                                                                                           116334-13     000014
1020421000710COBR_CAUC_COR  ART SERVICES SOLUCOESLOGISTICA SA       001615814000799UNILEVER BRASIL ALIM LTDA               AV JUSCELINO KUBITSCHEK,1309            SAO PAULO                               04543011SP251280000700000276004613      20102010900BRADESCO S/A        2511201000000000003605945CC                                                                                                                                                                                                                                                                                                                                                                                           116334-14     000015
1020421000710COBR_CAUC_COR  ART SERVICES SOLUCOESLOGISTICA SA       001615814000799UNILEVER BRASIL ALIM LTDA               AV JUSCELINO KUBITSCHEK,1309            SAO PAULO                               04543011SP251280000800000284004612      20102010900BRADESCO S/A        2511201000000000007356159CC                                                                                                                                                                                                                                                                                                                                                                                           116334-15     000016
1020421000710COBR_CAUC_COR  ART SERVICES SOLUCOESLOGISTICA SA       061068276029501UNILEVER BRASIL LTDA                    AV PRES JUSCELINO KUBITSCHEK,1309       SAO PAULO                               04543011SP251290000100000381004683      26102010900BRADESCO S/A        2711201000000000001562906CC                                                                                                                                                                                                                                                                                                                                                                                           116334-16     000017
1020421000710COBR_CAUC_COR  ART SERVICES SOLUCOESLOGISTICA SA       061068276029501UNILEVER BRASIL LTDA                    AV PRES JUSCELINO KUBITSCHEK,1309       SAO PAULO                               04543011SP251290000200000411004673      26102010900BRADESCO S/A        2711201000000000000512353CC                                                                                                                                                                                                                                                                                                                                                                                           116334-17     000018
1020421000710COBR_CAUC_COR  ART SERVICES SOLUCOESLOGISTICA SA       061068276029501UNILEVER BRASIL LTDA                    AV PRES JUSCELINO KUBITSCHEK,1309       SAO PAULO                               04543011SP251290000300000420004672      26102010900BRADESCO S/A        2711201000000000001000000CC                                                                                                                                                                                                                                                                                                                                                                                           116334-18     000019
1020421000710COBR_CAUC_COR  ART SERVICES SOLUCOESLOGISTICA SA       061068276029501UNILEVER BRASIL LTDA                    AV PRES JUSCELINO KUBITSCHEK,1309       SAO PAULO                               04543011SP251290000400000438004670      26102010900BRADESCO S/A        2711201000000000000463749CC                                                                                                                                                                                                                                                                                                                                                                                           116334-19     000020
1020421000710COBR_CAUC_COR  ART SERVICES SOLUCOESLOGISTICA SA       061068276029501UNILEVER BRASIL LTDA                    AV PRES JUSCELINO KUBITSCHEK,1309       SAO PAULO                               04543011SP251290000500000446004666      26102010900BRADESCO S/A        2711201000000000000974613CC                                                                                                                                                                                                                                                                                                                                                                                           116334-20     000021
1020421000710COBR_CAUC_COR  ART SERVICES SOLUCOESLOGISTICA SA       061068276029501UNILEVER BRASIL LTDA                    AV PRES JUSCELINO KUBITSCHEK,1309       SAO PAULO                               04543011SP251290000600000471004906      12112010900BRADESCO S/A        1102201100000000001194678CC                                                                                                                                                                                                                                                                                                                                                                                           116334-21     000022
1020421000710COBR_CAUC_COR  ART SERVICES SOLUCOESLOGISTICA SA       061068276029501UNILEVER BRASIL LTDA                    AV PRES JUSCELINO KUBITSCHEK,1309       SAO PAULO                               04543011SP251290000700000489004888      11112010900BRADESCO S/A        1102201100000000000836460CC                                                                                                                                                                                                                                                                                                                                                                                           116334-22     000023
1020421000710COBR_CAUC_COR  ART SERVICES SOLUCOESLOGISTICA SA       046389383000132BDF NIVEA LTDA                          RUA ALEXANDRE DUMAS,1711-6 E07A         SAO PAULO                               04717004SP251300000100000080004713      27102010900BRADESCO S/A        2611201000000000000112540CC                                                                                                                                                                                                                                                                                                                                                                                           116334-23     000024
1020421000710COBR_CAUC_COR  ART SERVICES SOLUCOESLOGISTICA SA       046389383000132BDF NIVEA LTDA                          RUA ALEXANDRE DUMAS,1711-6 E07A         SAO PAULO                               04717004SP251300000200000098004712      27102010900BRADESCO S/A        2611201000000000000122630CC                                                                                                                                                                                                                                                                                                                                                                                           116334-24     000025
1020421000710COBR_CAUC_COR  ART SERVICES SOLUCOESLOGISTICA SA       046389383000132BDF NIVEA LTDA                          RUA ALEXANDRE DUMAS,1711-6 E07A         SAO PAULO                               04717004SP251300000300000101004711      27102010900BRADESCO S/A        2611201000000000000042019CC                                                                                                                                                                                                                                                                                                                                                                                           116334-25     000026
1020421000710COBR_CAUC_COR  ART SERVICES SOLUCOESLOGISTICA SA       046389383000132BDF NIVEA LTDA                          RUA ALEXANDRE DUMAS,1711-6 E07A         SAO PAULO                               04717004SP251300000400000110004710      27102010900BRADESCO S/A        2611201000000000000980946CC                                                                                                                                                                                                                                                                                                                                                                                           116334-26     000027
1020421000710COBR_CAUC_COR  ART SERVICES SOLUCOESLOGISTICA SA       046389383000132BDF NIVEA LTDA                          RUA ALEXANDRE DUMAS,1711-6 E07A         SAO PAULO                               04717004SP251300000500000128004709      27102010900BRADESCO S/A        2611201000000000002979037CC                                                                                                                                                                                                                                                                                                                                                                                           116334-27     000028
9000027                                                                                                                                                                                                                                                                                                                                                                                                                                                                                                                                                                                                                                                                                                               000029
