0REMESSANOTIFICAÇÃO ELETRONICA        99999999999999Bicbanco S/A                            Avenida Paulista                        1048      12º andar BELA VISTA                    SÃO PAULO                     01310100SPBicbanco S/A                                                                    05042011                                                                                                                                                                                                                                                                                                                                                                                                000001
1028421002921COBR_CAUC_COR  MATABOI ALIMENTOS S/A                   056794852001639GOOD BOM SUPERMERCADOS LTDA             R JOSE VEDOVATTO 1900                   SUMARE                                  13181680SP2709000001002613730015288201  17032011900BRADESCO S/A        1604201100000000000193380CC                                                                                                                                                                                                                                                                                                                                                                                           126988-1      000002
1028421002921COBR_CAUC_COR  MATABOI ALIMENTOS S/A                   056794852001639GOOD BOM SUPERMERCADOS LTDA             R JOSE VEDOVATTO 1900                   SUMARE                                  13181680SP2709000002002614620015289301  17032011900BRADESCO S/A        1604201100000000000152640CC                                                                                                                                                                                                                                                                                                                                                                                           126988-2      000003
1028421002921COBR_CAUC_COR  MATABOI ALIMENTOS S/A                   056794852001639GOOD BOM SUPERMERCADOS LTDA             R JOSE VEDOVATTO 1900                   SUMARE                                  13181680SP2709000003002614710015289401  17032011900BRADESCO S/A        1604201100000000000537706CC                                                                                                                                                                                                                                                                                                                                                                                           126988-3      000004
1028421002921COBR_CAUC_COR  MATABOI ALIMENTOS S/A                   056794852001639GOOD BOM SUPERMERCADOS LTDA             R JOSE VEDOVATTO 1900                   SUMARE                                  13181680SP2709000004002616590000899901  19032011900BRADESCO S/A        1804201100000000001827247CC                                                                                                                                                                                                                                                                                                                                                                                           126988-4      000005
1028421002921COBR_CAUC_COR  MATABOI ALIMENTOS S/A                   056794852001639GOOD BOM SUPERMERCADOS LTDA             R JOSE VEDOVATTO 1900                   SUMARE                                  13181680SP2709000005002616670000900001  19032011900BRADESCO S/A        1804201100000000002260142CC                                                                                                                                                                                                                                                                                                                                                                                           126988-5      000006
1028421002921COBR_CAUC_COR  MATABOI ALIMENTOS S/A                   056794852001639GOOD BOM SUPERMERCADOS LTDA             R JOSE VEDOVATTO 1900                   SUMARE                                  13181680SP2709000006002617130000900201  19032011900BRADESCO S/A        1804201100000000003830316CC                                                                                                                                                                                                                                                                                                                                                                                           126988-6      000007
1009420930764COBR_CAUC_BIC  S/A CORREIO BRAZILIENSE                 095431995000151SINDICATO INTERESTADUAL DA INDUSTR      RUA GALVAO COSTA 415 CENTRO             SANTA CRUZ DO S                         96810170RS270610000101346975408788-1    31032011015PORTO ALEGRE        1504201100000000011044800CC                                                                                                                                                                                                                                                                                                                                                                                           126988-7      000008
1021420930887COBR_CAUC_COR  DEDINI S/A INDUSTRIAS DE BASE           006315338002324NOBLE BRASIL SA                         EST V STS 50 ANTONIO ABREU DO VALLE ZONASEBASTIANOPOLIS                         15180000SP27062000010614215620732-2-2   31032011800UNIBANCO S/A        1604201100000000013500000CC                                                                                                                                                                                                                                                                                                                                                                                           126988-8      000009
1015420933854COBR_CAUC_BIC  MUNDIAL S/A PRODUTOS DE CONSUMO         050306471000109ETILUX INDUSTRIA E COMERCIO LTDA        RUA AMADEU POLI 940                     SAO PAULO                               02188020SP2706300001008313741500003801  31032011007PAULISTA            2805201100000000012137082CC                                                                                                                                                                                                                                                                                                                                                                                           126988-9      000010
1015420933854COBR_CAUC_BIC  MUNDIAL S/A PRODUTOS DE CONSUMO         050306471000109ETILUX INDUSTRIA E COMERCIO LTDA        RUA AMADEU POLI 940                     SAO PAULO                               02188020SP2706300002008313821500003802  31032011007PAULISTA            0406201100000000012137082CC                                                                                                                                                                                                                                                                                                                                                                                           126988-10     000011
1018421010323COBR_CAUC_BIC  PRODUBON NUTRICAO ANIMAL LTDA           000003265182827MARCELO MENDES DE OLIVEIRA              T 38 N 684 APT 600 ED SAO PATRICK       GOIANIA                                 74223042GO27064000010219117617977/1     31032011018GOIANIA             2708201100000000019260000CC                                                                                                                                                                                                                                                                                                                                                                                           126988-11     000012
1018421010323COBR_CAUC_BIC  PRODUBON NUTRICAO ANIMAL LTDA           000015481468891GERALDO DE OLIVEIRA VALLIM E OUTRO      PRAÇA CORONEL JOAQUIM CANDIDO N50       SAO JOAO DA BOA                         13870149SP27065000010219114117845/1     30032011021CAMPINAS            2708201100000000023175000CC                                                                                                                                                                                                                                                                                                                                                                                           126988-12     000013
1042141005640COBR_CAUC_BIC  TAC TRANSPORTE E CONSTRUCOES LTDA       007073042000100EDECONSIL CONSTRUCOES E LOC LTDA        AV JOSE SARNEY, 500                     SAO LUIS                                65055300MA270660000102087963396         30032011042SAO LUIS            1006201100000000015000000TD                                                                                                                                                                                                                                                                                                                                                                                           126988-13     000014
1008421020123DIR_CREDIT     CAPTAR SERVICOS TECNICOS LTDA           042498659000160SECRETARIA DE ESTADO DE EDUCACAO DO RJ  AV NILO PECANHA, 175 5 ANDAR            RIO DE JANEIRO                          20020100RJ2709100001                                                                                                                                          011187512           26082010000001546867/10       03112010000403contratacao de empresa para a prestacao de servicos de interpretacao de lingua brasileira de sinais.                                                                                                                                            002590700000109126988-14     000015
9000014                                                                                                                                                                                                                                                                                                                                                                                                                                                                                                                                                                                                                                                                                                               000016
