0REMESSANOTIFICAÇÃO ELETRONICA        99999999999999Bicbanco S/A                            Avenida Paulista , 1048 12º andar                           BELA VISTA                    SÃO PAULO                     01310100SPBicbanco S/A                                                                    12082010                                                                                                                                                                                                                                                                                                                                                                                                000001
1028421002921COBR_CAUC_COR  FRIGORIFICO MATABOI S/A                 085782878000189FRIGORIFICO RIOSULENSE S/A              ROD. BR 470 KM 150 CAIXA POSTAL 26      RIO DO SUL                              89160000SC2364500001001916510011115201  07082010900BRADESCO S/A        0609201000000000015675114CC                                                                                                                                                                                                                                                                                                                                                                                           108477-1      000002
1021420930887COBR_CAUC_COR  DEDINI S/A INDUSTRIAS DE BASE           002334471000323USINA SAO TOME SA                       ROD PR 492, KM 47 ZONA RURAL BR         RONDON                                  87800000PR236460000105874315123769-2-2  09082010600HSBC BANK BRASIL    2009201000000000023330536CC                                                                                                                                                                                                                                                                                                                                                                                           108477-2      000003
1021420930887COBR_CAUC_BIC  DEDINI S/A INDUSTRIAS DE BASE           075717355000448USINA DE ACUCAR SANTA TEREZINHA LT      AV MARCELO MESSIAS BUSIQUIA PQ INDUSTRIAMARINGA                                 87065006PR236470000105874307123628-2-2  09082010016CURITIBA            2009201000000000023711244CC                                                                                                                                                                                                                                                                                                                                                                                           108477-3      000004
1016420932333COBR_CAUC_BIC  COCELPA CIA DE CEL PAPEL DO PR          042564807000105CSN CIMENTOS S/A                        ROD BR 393 LUCIO MEIRA KM 5001 PARTE    VOLTA REDONDA                           27260390RJ2364800001028303600001047-01  06082010014RIO DE JANEIRO      0309201000000000010785093CC                                                                                                                                                                                                                                                                                                                                                                                           108477-4      000005
1021421009694DIR_CREDIT     PRIME ENGENHARIA E CONSTRUCAO LTDA      044660272000193PREFEITURA MUN DE CORDEIROPOLIS         PRACA FRANCISCO ORLANDO STOCCO, 35      CORDEIROPOLIS                           13490970SP2362200001                                                                                                                                          011074501           240820090000014853092/2009(01604082010000407EXECUCAO DE OBRAS E SERVICOS DE ENGENHARIA, C/FORNECIMENTO DE MAO DE OBRA, PARA CONSTRUCAO DE AREA DE LAZER E PARQUES NO JARDIM ELDORADO, NA CIDADE DE CORDEIROPOLIS.                                                                           007124892000181108605-1      000006
1028421002921COBR_CAUC_COR  FRIGORIFICO MATABOI S/A                 010319375000172MULTI FORMATO DISTRIBUIDORA SOCIED      CAMPINA VERDE 901                       CONTAGEM                                32150245MG2364900001001918630011122201  09082010900BRADESCO S/A        2308201000000000014297637CC                                                                                                                                                                                                                                                                                                                                                                                           108605-2      000007
1021420930887COBR_CAUC_BIC  DEDINI S/A INDUSTRIAS DE BASE           075717355000286USINA DE ACUCAR SANTA TEREZINHA LT      AV MARCELO MESSIAS BUSIQUIA PQ INDUSTRIAMARINGA                                 87065006PR236500000105874463122127-2-2  09082010016CURITIBA            2009201000000000028829012CC                                                                                                                                                                                                                                                                                                                                                                                           108605-3      000008
1014421011391COBR_CAUC_BIC  CENTRAL NACIONAL DE PRODUCOES LTDA      002415583000147IGREJA MUNDIAL DO PODER DE DEUS         RUA CARNEIRO LEAO, 439                  SAO PAULO                               03015000SP2365100001042714011590/A      23072010014RIO DE JANEIRO      3011201000000000050000000CC                                                                                                                                                                                                                                                                                                                                                                                           108605-4      000009
1016421013250COBR_CAUC_BIC  INSOL INTE.DO BRASIL IND E COM S/A      002399654000165VIDA ALIMENTOS LTDA                     RUA DOS PATRIOTAS,1382                  SAO PAULO                               04207901SP236520000102832516009         10082010007PAULISTA            1609201000000000028500000CC                                                                                                                                                                                                                                                                                                                                                                                           108605-5      000010
1042141002650COBR_CAUC_BIC  MAXXIMO SERV DE MONT E CONST LTDA       004487870000198COBRACO SERV E MONT LTDA                ROD BR 135 KM 17                        SAO LUIS                                65000000MA236530000101531266112         09082010042SAO LUIS            2510201000000000012000000TD                                                                                                                                                                                                                                                                                                                                                                                           108605-6      000011
1007421038778COBR_CAUC_BIC  CONSTRAN S/A CONSTRUCOES E COMERCIO     042150664000187VALEC ENG. CONSTR. E FERROVIAS S/A      AV.MARECHAL FLORIANO,45-2º E 3º ANDAR   RIO DE JANEIRO                          20080003RJ236730000100000018832-A       30072010014RIO DE JANEIRO      1908201000000000278889938CC                                                                                                                                                                                                                                                                                                                                                                                           108605-7      000012
1007421038778COBR_CAUC_BIC  CONSTRAN S/A CONSTRUCOES E COMERCIO     042150664000187VALEC ENG. CONSTR. E FERROVIAS S/A      AV.MARECHAL FLORIANO,45-2º E 3º ANDAR   RIO DE JANEIRO                          20080003RJ236730000200000026833-A       30072010014RIO DE JANEIRO      1908201000000000511604176CC                                                                                                                                                                                                                                                                                                                                                                                           108605-8      000013
1007421038778COBR_CAUC_BIC  CONSTRAN S/A CONSTRUCOES E COMERCIO     042150664000187VALEC ENG. CONSTR. E FERROVIAS S/A      AV.MARECHAL FLORIANO,45-2º E 3º ANDAR   RIO DE JANEIRO                          20080003RJ236730000300000034834-A       30072010014RIO DE JANEIRO      1908201000000000163450684CC                                                                                                                                                                                                                                                                                                                                                                                           108605-9      000014
1007421038778COBR_CAUC_BIC  CONSTRAN S/A CONSTRUCOES E COMERCIO     042150664000187VALEC ENG. CONSTR. E FERROVIAS S/A      AV.MARECHAL FLORIANO,45-2º E 3º ANDAR   RIO DE JANEIRO                          20080003RJ236730000400000042835-A       30072010014RIO DE JANEIRO      1908201000000000307908612CC                                                                                                                                                                                                                                                                                                                                                                                           108605-10     000015
1015421007120DIR_CREDIT     TRANSCONTINENTAL LOGISTICA S/A          016590234001490AREZZO INDUSTRIA E COMERCIO LTDA        RUA SAPIRANGA, 304 SALA 102             CAMPO BOM                               93700000RS2367400001                                                                                                                                          010975157           200720040000013257SN          11062010000403CONTRATO DE COLETA, TRANSPORTE E ENTREGA DE PRODUTOS.                                                                                                                                                                                           087951448000179108605-11     000016
9000015                                                                                                                                                                                                                                                                                                                                                                                                                                                                                                                                                                                                                                                                                                               000017
