0REMESSANOTIFICAÇÃO ELETRONICA        99999999999999Tarraf Administradora de Consórcios LtdaAv. Alberto Andaló                      3942                Vila Redentora                São José do Rio Preto         15015000SPTarraf Administradora de Consórcios Ltda                                        13122012                                                                                                                                                                                                                                                                                                                                                                                                000001
1                                                                                  A DE J F MORAES COMERCIO                AV JERONIMO DE ALBUQUERQUE, 53          SAO LUIS                                65071750MA  107         1070                                           23102012                   COHAFUMA                                                                                                                                                                                                                                                                                                                                                                                   210547-1      00000213122012
1                                                                                  A DE J F MORAES COMERCIO                AV JERONIMO DE ALBUQUERQUE, 53          SAO LUIS                                65071750MA  107         1070                                           20112012                   COHAFUMA                                                                                                                                                                                                                                                                                                                                                                                   210547-2      00000313122012
1                                                                                  M J EMPREENDIMENTOS LTDA                AV GOMES DE SOUZA, 346                  ITAPECURO MIRIM                         65000000MA  255         1071                                           23102012                   CENTRO                                                                                                                                                                                                                                                                                                                                                                                     210547-3      00000413122012
1                                                                                  M J EMPREENDIMENTOS LTDA                AV GOMES DE SOUZA, 346                  ITAPECURO MIRIM                         65000000MA  255         1071                                           20112012                   CENTRO                                                                                                                                                                                                                                                                                                                                                                                     210547-4      00000513122012
1                                                                                  REMERSON SILVA VIEIRA                   R CASTANHEIRA, 434                      JOAO MONLEVADE                          35931208MG  154         1074                                           23102012                   SION                                                                                                                                                                                                                                                                                                                                                                                       210547-5      00000613122012
1                                                                                  REMERSON SILVA VIEIRA                   R CASTANHEIRA, 434                      JOAO MONLEVADE                          35931208MG  154         1074                                           20112012                   SION                                                                                                                                                                                                                                                                                                                                                                                       210547-6      00000713122012
1                                                                                  ADILSON GALDINO EPP                     AV BOA VISTA, 1945                      AVANHANDAVA                             16360000SP  043         1075                                           23102012                   JD NOVA AVANHANDAVA                                                                                                                                                                                                                                                                                                                                                                        210547-7      00000813122012
1                                                                                  ADILSON GALDINO EPP                     AV BOA VISTA, 1945                      AVANHANDAVA                             16360000SP  043         1075                                           20112012                   JD NOVA AVANHANDAVA                                                                                                                                                                                                                                                                                                                                                                        210547-8      00000913122012
1                                                                                  WESLEY FERREIRA                         RUA DOMINGOS DE MORAES, 85              PRESIDENTE PRUDENTE                     19013180SP  069         1075                                           23102012                   JARDIM BELA DARIA                                                                                                                                                                                                                                                                                                                                                                          210547-9      00001013122012
1                                                                                  WESLEY FERREIRA                         RUA DOMINGOS DE MORAES, 85              PRESIDENTE PRUDENTE                     19013180SP  069         1075                                           20112012                   JARDIM BELA DARIA                                                                                                                                                                                                                                                                                                                                                                          210547-10     00001113122012
1                                                                                  DANIEL SANTOS                           R PROFESSORA ELZA MISTILIDES BECHARA, 3871MIRASSOL                                15130000SP  189         1076                                           23102012                   JD ALVORADA                                                                                                                                                                                                                                                                                                                                                                                210547-11     00001213122012
1                                                                                  DANIEL SANTOS                           R PROFESSORA ELZA MISTILIDES BECHARA, 3871MIRASSOL                                15130000SP  189         1076                                           20112012                   JD ALVORADA                                                                                                                                                                                                                                                                                                                                                                                210547-12     00001313122012
1                                                                                  EDUARDO FERREIRA CUNHA                  RUA FRANCISCO CRIPA, 3684               MIRASSOL                                15130000SP  162         1078                                           23102012                   REGISSOL                                                                                                                                                                                                                                                                                                                                                                                   210547-13     00001413122012
1                                                                                  EDUARDO FERREIRA CUNHA                  RUA FRANCISCO CRIPA, 3684               MIRASSOL                                15130000SP  162         1078                                           20112012                   REGISSOL                                                                                                                                                                                                                                                                                                                                                                                   210547-14     00001513122012
1                                                                                  PAULO HENRIQUE MEDEIROS DUCATTI         RUA NOVE DE JULHO, 087                  ONDA VERDE                              15450000SP  178         1079                                           23102012                   CENTRO                                                                                                                                                                                                                                                                                                                                                                                     210547-15     00001613122012
1                                                                                  PAULO HENRIQUE MEDEIROS DUCATTI         RUA NOVE DE JULHO, 087                  ONDA VERDE                              15450000SP  178         1079                                           20112012                   CENTRO                                                                                                                                                                                                                                                                                                                                                                                     210547-16     00001713122012
1                                                                                  ANTONIO MARQUES SILVA JUNIOR            AV RIO DE JANEIRO, 144                  FRUTAL                                  38200000MG  080         1081                                           23102012                   CENTRO                                                                                                                                                                                                                                                                                                                                                                                     210547-17     00001813122012
1                                                                                  ANTONIO MARQUES SILVA JUNIOR            AV RIO DE JANEIRO, 144                  FRUTAL                                  38200000MG  080         1081                                           20112012                   CENTRO                                                                                                                                                                                                                                                                                                                                                                                     210547-18     00001913122012
1                                                                                  REINALDO PEREIRA COSTA                  R DAS SAMAMBAIAS, 488                   MIRASSOL                                15130000SP  187         4205                                           23102012                   VALE DO SOL                                                                                                                                                                                                                                                                                                                                                                                210547-19     00002013122012
1                                                                                  REINALDO PEREIRA COSTA                  R DAS SAMAMBAIAS, 488                   MIRASSOL                                15130000SP  187         4205                                           20112012                   VALE DO SOL                                                                                                                                                                                                                                                                                                                                                                                210547-20     00002113122012
1                                                                                  ALEX JOSE LIMA                          AV SAO JOAQUIM DO TRIANGULO, 158        ESTRELA DA BARRA                        38294000MG  070         4208                                           23102012                   CENTRO                                                                                                                                                                                                                                                                                                                                                                                     210547-21     00002213122012
1                                                                                  ALEX JOSE LIMA                          AV SAO JOAQUIM DO TRIANGULO, 158        ESTRELA DA BARRA                        38294000MG  070         4208                                           20112012                   CENTRO                                                                                                                                                                                                                                                                                                                                                                                     210547-22     00002313122012
1                                                                                  WENDERSON ARRUDA SILVA                  R EDUARDO REGIANI, 3030                 VOTUPORANGA                             15501196SP  224         4208                                           23102012                   SAO JOAO                                                                                                                                                                                                                                                                                                                                                                                   210547-23     00002413122012
1                                                                                  WENDERSON ARRUDA SILVA                  R EDUARDO REGIANI, 3030                 VOTUPORANGA                             15501196SP  224         4208                                           20112012                   SAO JOAO                                                                                                                                                                                                                                                                                                                                                                                   210547-24     00002513122012
1                                                                                  RENAN CESAR FERREIRA MARIANO            TRAVESSA GARDENIA, 83                   ITURAMA                                 38280000MG  080         4209                                           23102012                   CESP                                                                                                                                                                                                                                                                                                                                                                                       210547-25     00002613122012
1                                                                                  RENAN CESAR FERREIRA MARIANO            TRAVESSA GARDENIA, 83                   ITURAMA                                 38280000MG  080         4209                                           20112012                   CESP                                                                                                                                                                                                                                                                                                                                                                                       210547-26     00002713122012
1                                                                                  RENATA CRISTINA CARNEIRO BUSO           RUA FREI FREDERICO CUROTOLO, 3649       MIRASSOL                                15130000SP  112         4211                                           23102012                   FLAMBOYANT                                                                                                                                                                                                                                                                                                                                                                                 210547-27     00002813122012
1                                                                                  RENATA CRISTINA CARNEIRO BUSO           RUA FREI FREDERICO CUROTOLO, 3649       MIRASSOL                                15130000SP  112         4211                                           20112012                   FLAMBOYANT                                                                                                                                                                                                                                                                                                                                                                                 210547-28     00002913122012
1                                                                                  SILVANO RIBEIRO GASPARINI               RUA VITOR WANDERLEY JUNIOR, 130         ITURAMA                                 38280000MG  353         4211                                           23102012                   NEWTON CARDOSO                                                                                                                                                                                                                                                                                                                                                                             210547-29     00003013122012
1                                                                                  SILVANO RIBEIRO GASPARINI               RUA VITOR WANDERLEY JUNIOR, 130         ITURAMA                                 38280000MG  353         4211                                           20112012                   NEWTON CARDOSO                                                                                                                                                                                                                                                                                                                                                                             210547-30     00003113122012
1                                                                                  MESSIAS NUNES CONCEICAO                 R LUIZ ANTONIO DA SILVEIRA, 1542        SAO JOSE DO RIO PRETO                   15025020SP  014         4212                                           23102012                   BOA VISTA                                                                                                                                                                                                                                                                                                                                                                                  210547-31     00003213122012
1                                                                                  MESSIAS NUNES CONCEICAO                 R LUIZ ANTONIO DA SILVEIRA, 1542        SAO JOSE DO RIO PRETO                   15025020SP  014         4212                                           20112012                   BOA VISTA                                                                                                                                                                                                                                                                                                                                                                                  210547-32     00003313122012
1                                                                                  IVO RAMOS SILVA                         AV JUSCELINO KUBITSCHECK, 747 APTO 151  LONDRINA                                86020000PR  070         4212                                           23102012                   CENTRO                                                                                                                                                                                                                                                                                                                                                                                     210547-33     00003413122012
1                                                                                  IVO RAMOS SILVA                         AV JUSCELINO KUBITSCHECK, 747 APTO 151  LONDRINA                                86020000PR  070         4212                                           20112012                   CENTRO                                                                                                                                                                                                                                                                                                                                                                                     210547-34     00003513122012
1                                                                                  TAMIRIS SANTOS NASCIMENTO               AV BENJAMIN LOT, 256                    BIRIGUI                                 16200000SP  092         4214                                           23102012                   JOAO CREVELARO                                                                                                                                                                                                                                                                                                                                                                             210547-35     00003613122012
1                                                                                  TAMIRIS SANTOS NASCIMENTO               AV BENJAMIN LOT, 256                    BIRIGUI                                 16200000SP  092         4214                                           20112012                   JOAO CREVELARO                                                                                                                                                                                                                                                                                                                                                                             210547-36     00003713122012
1                                                                                  DIEGO ALVES VICENTINI                   R AURORA, 1074                          BIRIGUI                                 16200263SP  160         4214                                           23102012                   JD PEROLA                                                                                                                                                                                                                                                                                                                                                                                  210547-37     00003813122012
1                                                                                  DIEGO ALVES VICENTINI                   R AURORA, 1074                          BIRIGUI                                 16200263SP  160         4214                                           20112012                   JD PEROLA                                                                                                                                                                                                                                                                                                                                                                                  210547-38     00003913122012
1                                                                                  MARIA TERESA SILVA                      R PASCOAL MOREIRA CABRAL, 698           CAMBE                                   86187040PR  065         4215                                           21092012                   JARDIM RIVIERA                                                                                                                                                                                                                                                                                                                                                                             210547-39     00004013122012
1                                                                                  MARIA TERESA SILVA                      R PASCOAL MOREIRA CABRAL, 698           CAMBE                                   86187040PR  065         4215                                           20112012                   JARDIM RIVIERA                                                                                                                                                                                                                                                                                                                                                                             210547-40     00004113122012
1                                                                                  JOSE MARIA GONCALVES CANEIRA            R ERNESTO TEDESCHI, 1146                MIRASSOL                                15130000SP  076         4215                                           23102012                   SANTA CLAUDIA                                                                                                                                                                                                                                                                                                                                                                              210547-41     00004213122012
1                                                                                  JOSE MARIA GONCALVES CANEIRA            R ERNESTO TEDESCHI, 1146                MIRASSOL                                15130000SP  076         4215                                           20112012                   SANTA CLAUDIA                                                                                                                                                                                                                                                                                                                                                                              210547-42     00004313122012
1                                                                                  JOSE MARIA GONCALVES CANEIRA            R ERNESTO TEDESCHI, 1146                MIRASSOL                                15130000SP  118         4215                                           23102012                   SANTA CLAUDIA                                                                                                                                                                                                                                                                                                                                                                              210547-43     00004413122012
1                                                                                  JOSE MARIA GONCALVES CANEIRA            R ERNESTO TEDESCHI, 1146                MIRASSOL                                15130000SP  118         4215                                           20112012                   SANTA CLAUDIA                                                                                                                                                                                                                                                                                                                                                                              210547-44     00004513122012
1                                                                                  LARA GABRIELA CARNEIRO BUSO             RUA FREI FREDERICO CUROTOLO, 3649       MIRASSOL                                15130000SP  166         4215                                           23102012                   FLAMBOYAN                                                                                                                                                                                                                                                                                                                                                                                  210547-45     00004613122012
1                                                                                  LARA GABRIELA CARNEIRO BUSO             RUA FREI FREDERICO CUROTOLO, 3649       MIRASSOL                                15130000SP  166         4215                                           20112012                   FLAMBOYAN                                                                                                                                                                                                                                                                                                                                                                                  210547-46     00004713122012
1                                                                                  JOSE MARIA GONCALVES CANEIRA            R ERNESTO TEDESCHI, 1146                MIRASSOL                                15130000SP  175         4215                                           23102012                   SANTA CLAUDIA                                                                                                                                                                                                                                                                                                                                                                              210547-47     00004813122012
1                                                                                  JOSE MARIA GONCALVES CANEIRA            R ERNESTO TEDESCHI, 1146                MIRASSOL                                15130000SP  175         4215                                           20112012                   SANTA CLAUDIA                                                                                                                                                                                                                                                                                                                                                                              210547-48     00004913122012
1                                                                                  JOSE BENEDITO INACIO                    R FLAMINGO-CHILENO, 185                 ARAPONGAS                               86709660PR  181         4215                                           23102012                   CASA FAMILIA ARAPONGAS IV                                                                                                                                                                                                                                                                                                                                                                  210547-49     00005013122012
1                                                                                  JOSE BENEDITO INACIO                    R FLAMINGO-CHILENO, 185                 ARAPONGAS                               86709660PR  181         4215                                           20112012                   CASA FAMILIA ARAPONGAS IV                                                                                                                                                                                                                                                                                                                                                                  210547-50     00005113122012
1                                                                                  JOSE MARIA GONCALVES CANEIRA            R ERNESTO TEDESCHI, 1146                MIRASSOL                                15130000SP  367         4215                                           23102012                   SANTA CLAUDIA                                                                                                                                                                                                                                                                                                                                                                              210547-51     00005213122012
1                                                                                  JOSE MARIA GONCALVES CANEIRA            R ERNESTO TEDESCHI, 1146                MIRASSOL                                15130000SP  367         4215                                           20112012                   SANTA CLAUDIA                                                                                                                                                                                                                                                                                                                                                                              210547-52     00005313122012
1                                                                                  MARIA ROSARIO FATIMA CARVALHO            R PANAMA, 3716                         VOTUPORANGA                             15500000SP  376         4215                                           23102012                   VL AMERICA                                                                                                                                                                                                                                                                                                                                                                                 210547-53     00005413122012
1                                                                                  MARIA ROSARIO FATIMA CARVALHO            R PANAMA, 3716                         VOTUPORANGA                             15500000SP  376         4215                                           20112012                   VL AMERICA                                                                                                                                                                                                                                                                                                                                                                                 210547-54     00005513122012
1                                                                                  SOLANGE FERNANDES ARAUJO                AV TOLEDO MALTA, 732 CASA 13            MATAO                                   15990130SP  444         4215                                           23102012                   CENTRO-COND.VITORIA REGIA                                                                                                                                                                                                                                                                                                                                                                  210547-55     00005613122012
1                                                                                  SOLANGE FERNANDES ARAUJO                AV TOLEDO MALTA, 732 CASA 13            MATAO                                   15990130SP  444         4215                                           20112012                   CENTRO-COND.VITORIA REGIA                                                                                                                                                                                                                                                                                                                                                                  210547-56     00005713122012
1                                                                                  SOLANGE FERNANDES ARAUJO                AV TOLEDO MALTA, 732 CASA 13            MATAO                                   15990130SP  446         4215                                           23102012                   CENTRO-COND.VITORIA REGIA                                                                                                                                                                                                                                                                                                                                                                  210547-57     00005813122012
1                                                                                  SOLANGE FERNANDES ARAUJO                AV TOLEDO MALTA, 732 CASA 13            MATAO                                   15990130SP  446         4215                                           20112012                   CENTRO-COND.VITORIA REGIA                                                                                                                                                                                                                                                                                                                                                                  210547-58     00005913122012
1                                                                                  EDVALDO ANTONIO LOPES                   AV FERNANDO FELICIO, 1197               COSMORAMA                               15530000SP  012         4217                                           23102012                   SAN FERNANDO                                                                                                                                                                                                                                                                                                                                                                               210547-59     00006013122012
1                                                                                  EDVALDO ANTONIO LOPES                   AV FERNANDO FELICIO, 1197               COSMORAMA                               15530000SP  012         4217                                           20112012                   SAN FERNANDO                                                                                                                                                                                                                                                                                                                                                                               210547-60     00006113122012
1                                                                                  LUCAS MARINI RODRIGUES                  R JOSE CAETANO DE FREITAS, 70           SAO JOSE DO RIO PRETO                   15084240SP  088         4217                                           23102012                   JARDIM URANO                                                                                                                                                                                                                                                                                                                                                                               210547-61     00006213122012
1                                                                                  LUCAS MARINI RODRIGUES                  R JOSE CAETANO DE FREITAS, 70           SAO JOSE DO RIO PRETO                   15084240SP  088         4217                                           20112012                   JARDIM URANO                                                                                                                                                                                                                                                                                                                                                                               210547-62     00006313122012
1                                                                                  ANTONIO LUIZ RINALDI MANO               R NERCIO MANJAPANI, 1860                BIRIGUI                                 16200000SP  416         4217                                           23102012                   BOSQUE DA SAUDE                                                                                                                                                                                                                                                                                                                                                                            210547-63     00006413122012
1                                                                                  ANTONIO LUIZ RINALDI MANO               R NERCIO MANJAPANI, 1860                BIRIGUI                                 16200000SP  416         4217                                           20112012                   BOSQUE DA SAUDE                                                                                                                                                                                                                                                                                                                                                                            210547-64     00006513122012
1                                                                                  LUAN BARBOSA GARCIA                     AVENIDA SEBASTIAO DE ALMEIDA AMAZONAS, 1950MIRASSOL                                15130000SP  465         4217                                           23102012                   VILA MOREIRA                                                                                                                                                                                                                                                                                                                                                                               210547-65     00006613122012
1                                                                                  LUAN BARBOSA GARCIA                     AVENIDA SEBASTIAO DE ALMEIDA AMAZONAS, 1950MIRASSOL                                15130000SP  465         4217                                           20112012                   VILA MOREIRA                                                                                                                                                                                                                                                                                                                                                                               210547-66     00006713122012
1                                                                                  JAQUELINE SANTANA GARCIA                AV ALBERTINA REISSER, 116               PENAPOLIS                               16300000SP  498         4217                                           23102012                   VL FORMOSA                                                                                                                                                                                                                                                                                                                                                                                 210547-67     00006813122012
1                                                                                  JAQUELINE SANTANA GARCIA                AV ALBERTINA REISSER, 116               PENAPOLIS                               16300000SP  498         4217                                           20112012                   VL FORMOSA                                                                                                                                                                                                                                                                                                                                                                                 210547-68     00006913122012
1                                                                                  AILTON CARLOS MADUREIRA                 R MATO GROSSO, 4956                     VOTUPORANGA                             15505185SP  001         4219                                           23102012                   VALE DO SOL                                                                                                                                                                                                                                                                                                                                                                                210547-69     00007013122012
1                                                                                  AILTON CARLOS MADUREIRA                 R MATO GROSSO, 4956                     VOTUPORANGA                             15505185SP  001         4219                                           20112012                   VALE DO SOL                                                                                                                                                                                                                                                                                                                                                                                210547-70     00007113122012
1                                                                                  ADELSON MARCUSSO LUCCA                  AV CAVALIM, 848                         VALENTIM GENTIL                         15520000SP  011         4219                                           23102012                   CENTRO                                                                                                                                                                                                                                                                                                                                                                                     210547-71     00007213122012
1                                                                                  ADELSON MARCUSSO LUCCA                  AV CAVALIM, 848                         VALENTIM GENTIL                         15520000SP  011         4219                                           20112012                   CENTRO                                                                                                                                                                                                                                                                                                                                                                                     210547-72     00007313122012
1                                                                                  RAFAEL ROGERIO ROCAFA                   AV PRESIDENTE CASTELO BRANCO, 163       FERNANDOPOLIS                           15600000SP  032         4220                                           21092012                   COESTER                                                                                                                                                                                                                                                                                                                                                                                    210547-73     00007413122012
1                                                                                  RAFAEL ROGERIO ROCAFA                   AV PRESIDENTE CASTELO BRANCO, 163       FERNANDOPOLIS                           15600000SP  032         4220                                           20112012                   COESTER                                                                                                                                                                                                                                                                                                                                                                                    210547-74     00007513122012
1                                                                                  RAFAEL ROGERIO ROCAFA                   AV PRESIDENTE CASTELO BRANCO, 163       FERNANDOPOLIS                           15600000SP  033         4220                                           21092012                   COESTER                                                                                                                                                                                                                                                                                                                                                                                    210547-75     00007613122012
1                                                                                  RAFAEL ROGERIO ROCAFA                   AV PRESIDENTE CASTELO BRANCO, 163       FERNANDOPOLIS                           15600000SP  033         4220                                           20112012                   COESTER                                                                                                                                                                                                                                                                                                                                                                                    210547-76     00007713122012
1                                                                                  IVONE APARECIDA SOUZA PEREIRA           R MINAS GERAIS, 2160                    VOTUPORANGA                             15501205SP  027         4221                                           23102012                   SAO JOAO                                                                                                                                                                                                                                                                                                                                                                                   210547-77     00007813122012
1                                                                                  IVONE APARECIDA SOUZA PEREIRA           R MINAS GERAIS, 2160                    VOTUPORANGA                             15501205SP  027         4221                                           20112012                   SAO JOAO                                                                                                                                                                                                                                                                                                                                                                                   210547-78     00007913122012
1                                                                                  HELENA MARILDA SILVA                    R SANTA RITA DO PASSA 4, 279            CATANDUVA                               15805080SP  001         4222                                           23102012                   JARDIM DO BOSQUE                                                                                                                                                                                                                                                                                                                                                                           210547-79     00008013122012
1                                                                                  HELENA MARILDA SILVA                    R SANTA RITA DO PASSA 4, 279            CATANDUVA                               15805080SP  001         4222                                           20112012                   JARDIM DO BOSQUE                                                                                                                                                                                                                                                                                                                                                                           210547-80     00008113122012
1                                                                                  CAMILA CASSEMIRO SANTOS SOUZA           R FRANCISCO MARTINS ROMERO, 370         PROMISSAO                               16370000SP  002         4222                                           21092012                   CENTRO                                                                                                                                                                                                                                                                                                                                                                                     210547-81     00008213122012
1                                                                                  CAMILA CASSEMIRO SANTOS SOUZA           R FRANCISCO MARTINS ROMERO, 370         PROMISSAO                               16370000SP  002         4222                                           20112012                   CENTRO                                                                                                                                                                                                                                                                                                                                                                                     210547-82     00008313122012
1                                                                                  TATIANI NASCIMENTO ORIAS                R GUARANI, 2389                         BIRIGUI                                 16202033SP  367         4222                                           23102012                   JD SAO BRAZ                                                                                                                                                                                                                                                                                                                                                                                210547-83     00008413122012
1                                                                                  TATIANI NASCIMENTO ORIAS                R GUARANI, 2389                         BIRIGUI                                 16202033SP  367         4222                                           20112012                   JD SAO BRAZ                                                                                                                                                                                                                                                                                                                                                                                210547-84     00008513122012
1                                                                                  ILDENEA OLIVEIRA TASSONI                AV FORTUNATO ERNESTO VETORASSO, 1109    SAO JOSE DO RIO PRETO                   15040000SP  022         4223                                           23102012                   JARDIM VETORASSO                                                                                                                                                                                                                                                                                                                                                                           210547-85     00008613122012
1                                                                                  ILDENEA OLIVEIRA TASSONI                AV FORTUNATO ERNESTO VETORASSO, 1109    SAO JOSE DO RIO PRETO                   15040000SP  022         4223                                           20112012                   JARDIM VETORASSO                                                                                                                                                                                                                                                                                                                                                                           210547-86     00008713122012
1                                                                                  ILDENEA OLIVEIRA TASSONI                AV FORTUNATO ERNESTO VETORASSO, 1109    SAO JOSE DO RIO PRETO                   15040000SP  023         4223                                           23102012                   JARDIM VETORASSO                                                                                                                                                                                                                                                                                                                                                                           210547-87     00008813122012
1                                                                                  ILDENEA OLIVEIRA TASSONI                AV FORTUNATO ERNESTO VETORASSO, 1109    SAO JOSE DO RIO PRETO                   15040000SP  023         4223                                           20112012                   JARDIM VETORASSO                                                                                                                                                                                                                                                                                                                                                                           210547-88     00008913122012
1                                                                                  ILDENEA OLIVEIRA TASSONI                AV FORTUNATO ERNESTO VETORASSO, 1109    SAO JOSE DO RIO PRETO                   15040000SP  024         4223                                           23102012                   JARDIM VETORASSO                                                                                                                                                                                                                                                                                                                                                                           210547-89     00009013122012
1                                                                                  ILDENEA OLIVEIRA TASSONI                AV FORTUNATO ERNESTO VETORASSO, 1109    SAO JOSE DO RIO PRETO                   15040000SP  024         4223                                           20112012                   JARDIM VETORASSO                                                                                                                                                                                                                                                                                                                                                                           210547-90     00009113122012
1                                                                                  ILDENEA OLIVEIRA TASSONI                AV FORTUNATO ERNESTO VETORASSO, 1109    SAO JOSE DO RIO PRETO                   15040000SP  025         4223                                           23102012                   JARDIM VETORASSO                                                                                                                                                                                                                                                                                                                                                                           210547-91     00009213122012
1                                                                                  ILDENEA OLIVEIRA TASSONI                AV FORTUNATO ERNESTO VETORASSO, 1109    SAO JOSE DO RIO PRETO                   15040000SP  025         4223                                           20112012                   JARDIM VETORASSO                                                                                                                                                                                                                                                                                                                                                                           210547-92     00009313122012
1                                                                                  ILDENEA OLIVEIRA TASSONI                AV FORTUNATO ERNESTO VETORASSO, 1109    SAO JOSE DO RIO PRETO                   15040000SP  026         4223                                           23102012                   JARDIM VETORASSO                                                                                                                                                                                                                                                                                                                                                                           210547-93     00009413122012
1                                                                                  ILDENEA OLIVEIRA TASSONI                AV FORTUNATO ERNESTO VETORASSO, 1109    SAO JOSE DO RIO PRETO                   15040000SP  026         4223                                           20112012                   JARDIM VETORASSO                                                                                                                                                                                                                                                                                                                                                                           210547-94     00009513122012
1                                                                                  ILDENEA OLIVEIRA TASSONI                AV FORTUNATO ERNESTO VETORASSO, 1109    SAO JOSE DO RIO PRETO                   15040000SP  027         4223                                           23102012                   JARDIM VETORASSO                                                                                                                                                                                                                                                                                                                                                                           210547-95     00009613122012
1                                                                                  ILDENEA OLIVEIRA TASSONI                AV FORTUNATO ERNESTO VETORASSO, 1109    SAO JOSE DO RIO PRETO                   15040000SP  027         4223                                           20112012                   JARDIM VETORASSO                                                                                                                                                                                                                                                                                                                                                                           210547-96     00009713122012
1                                                                                  DEVAIR JOAQUIM PEREIRA                  RUA CARLOS GOMES, 664                   SAO JOAO DAS DUAS PONTES                15640000SP  013         4224                                           21092012                   CENTRO                                                                                                                                                                                                                                                                                                                                                                                     210547-97     00009813122012
1                                                                                  DEVAIR JOAQUIM PEREIRA                  RUA CARLOS GOMES, 664                   SAO JOAO DAS DUAS PONTES                15640000SP  013         4224                                           20112012                   CENTRO                                                                                                                                                                                                                                                                                                                                                                                     210547-98     00009913122012
1                                                                                  BRUNA NAIARA SALVINI PEREIRA            R PASCHOAL MEGA, 2486                   VOTUPORANGA                             15501451SP  009         4225                                           23102012                   JARDIM DAS PALMEIRAS I                                                                                                                                                                                                                                                                                                                                                                     210547-99     00010013122012
1                                                                                  BRUNA NAIARA SALVINI PEREIRA            R PASCHOAL MEGA, 2486                   VOTUPORANGA                             15501451SP  009         4225                                           20112012                   JARDIM DAS PALMEIRAS I                                                                                                                                                                                                                                                                                                                                                                     210547-100    00010113122012
1                                                                                  MARIA LOURDES BORDIN                    R CARDOSO, 2167                         VOTUPORANGA                             15502016SP  032         4226                                           23102012                   CECAP II                                                                                                                                                                                                                                                                                                                                                                                   210547-101    00010213122012
1                                                                                  MARIA LOURDES BORDIN                    R CARDOSO, 2167                         VOTUPORANGA                             15502016SP  032         4226                                           20112012                   CECAP II                                                                                                                                                                                                                                                                                                                                                                                   210547-102    00010313122012
1                                                                                  MARIA LOURDES BORDIN                    R CARDOSO, 2167                         VOTUPORANGA                             15502016SP  033         4226                                           23102012                   CECAP II                                                                                                                                                                                                                                                                                                                                                                                   210547-103    00010413122012
1                                                                                  MARIA LOURDES BORDIN                    R CARDOSO, 2167                         VOTUPORANGA                             15502016SP  033         4226                                           20112012                   CECAP II                                                                                                                                                                                                                                                                                                                                                                                   210547-104    00010513122012
1                                                                                  EDISON OLIVEIRA SOUZA JUNIOR            AV JOSE FRANCISCO DOS SANTOS, 41        FERNANDOPOLIS                           15600000SP  037         4226                                           23102012                   BRASILANDIA                                                                                                                                                                                                                                                                                                                                                                                210547-105    00010613122012
1                                                                                  EDISON OLIVEIRA SOUZA JUNIOR            AV JOSE FRANCISCO DOS SANTOS, 41        FERNANDOPOLIS                           15600000SP  037         4226                                           20112012                   BRASILANDIA                                                                                                                                                                                                                                                                                                                                                                                210547-106    00010713122012
1                                                                                  EDISON OLIVEIRA SOUZA JUNIOR            AV JOSE FRANCISCO DOS SANTOS, 41        FERNANDOPOLIS                           15600000SP  038         4226                                           23102012                   BRASILANDIA                                                                                                                                                                                                                                                                                                                                                                                210547-107    00010813122012
1                                                                                  EDISON OLIVEIRA SOUZA JUNIOR            AV JOSE FRANCISCO DOS SANTOS, 41        FERNANDOPOLIS                           15600000SP  038         4226                                           20112012                   BRASILANDIA                                                                                                                                                                                                                                                                                                                                                                                210547-108    00010913122012
1                                                                                  MANOEL FRANCISCO SILVA                  R LAFAYETTE JOSE SPINOLA (ZUZA), 2227   SAO JOSE DO RIO PRETO                   15081130SP  083         4226                                           23102012                   RESIDENCIAL CIDADE JARDIM                                                                                                                                                                                                                                                                                                                                                                  210547-109    00011013122012
1                                                                                  MANOEL FRANCISCO SILVA                  R LAFAYETTE JOSE SPINOLA (ZUZA), 2227   SAO JOSE DO RIO PRETO                   15081130SP  083         4226                                           20112012                   RESIDENCIAL CIDADE JARDIM                                                                                                                                                                                                                                                                                                                                                                  210547-110    00011113122012
1                                                                                  MANOEL FRANCISCO SILVA                  R LAFAYETTE JOSE SPINOLA (ZUZA), 2227   SAO JOSE DO RIO PRETO                   15081130SP  100         4226                                           23102012                   RESIDENCIAL CIDADE JARDIM                                                                                                                                                                                                                                                                                                                                                                  210547-111    00011213122012
1                                                                                  MANOEL FRANCISCO SILVA                  R LAFAYETTE JOSE SPINOLA (ZUZA), 2227   SAO JOSE DO RIO PRETO                   15081130SP  100         4226                                           20112012                   RESIDENCIAL CIDADE JARDIM                                                                                                                                                                                                                                                                                                                                                                  210547-112    00011313122012
1                                                                                  DALMO LOPES SANTOS                      R JOSE PRETTI, 66                       PARISI                                  15525000SP  113         4228                                           23102012                   CENTRO                                                                                                                                                                                                                                                                                                                                                                                     210547-113    00011413122012
1                                                                                  DALMO LOPES SANTOS                      R JOSE PRETTI, 66                       PARISI                                  15525000SP  113         4228                                           20112012                   CENTRO                                                                                                                                                                                                                                                                                                                                                                                     210547-114    00011513122012
1                                                                                  LUCAS CABRAL SOUZA                      AV CATARINA MARTINS LOPES, 6133         VOTUPORANGA                             15505050SP  104         4229                                           23102012                   BOM CLIMA                                                                                                                                                                                                                                                                                                                                                                                  210547-115    00011613122012
1                                                                                  LUCAS CABRAL SOUZA                      AV CATARINA MARTINS LOPES, 6133         VOTUPORANGA                             15505050SP  104         4229                                           20112012                   BOM CLIMA                                                                                                                                                                                                                                                                                                                                                                                  210547-116    00011713122012
1                                                                                  MARCOS ALVES ANDRADE                    R FRANCISCO VALERA, 113                 BIRIGUI                                 16202110SP  197         4230                                           23102012                   CJ R NOVA CANAA                                                                                                                                                                                                                                                                                                                                                                            210547-117    00011813122012
1                                                                                  MARCOS ALVES ANDRADE                    R FRANCISCO VALERA, 113                 BIRIGUI                                 16202110SP  197         4230                                           20112012                   CJ R NOVA CANAA                                                                                                                                                                                                                                                                                                                                                                            210547-118    00011913122012
1                                                                                  CLEITON OLIVER JESUS SANTOS             RUA DIOGO FRANCISCO DE CARVALHO, 32     ARACATUBA                               16058707SP  253         4230                                           23102012                   ATLANTICO                                                                                                                                                                                                                                                                                                                                                                                  210547-119    00012013122012
1                                                                                  CLEITON OLIVER JESUS SANTOS             RUA DIOGO FRANCISCO DE CARVALHO, 32     ARACATUBA                               16058707SP  253         4230                                           20112012                   ATLANTICO                                                                                                                                                                                                                                                                                                                                                                                  210547-120    00012113122012
1                                                                                  ZILDA CASSIA FERREIRA                   R SAO PAULO, 3327                       VOTUPORANGA                             15500010SP  020         4231                                           23102012                   PATRIMONIO NOVO                                                                                                                                                                                                                                                                                                                                                                            210547-121    00012213122012
1                                                                                  ZILDA CASSIA FERREIRA                   R SAO PAULO, 3327                       VOTUPORANGA                             15500010SP  020         4231                                           20112012                   PATRIMONIO NOVO                                                                                                                                                                                                                                                                                                                                                                            210547-122    00012313122012
1                                                                                  ODMILSON LUIZ LIMA                      R OSVALDO FARINA, 362                   FERNANDOPOLIS                           15600000SP  046         4231                                           23102012                   COHAB CRIS I                                                                                                                                                                                                                                                                                                                                                                               210547-123    00012413122012
1                                                                                  ODMILSON LUIZ LIMA                      R OSVALDO FARINA, 362                   FERNANDOPOLIS                           15600000SP  046         4231                                           20112012                   COHAB CRIS I                                                                                                                                                                                                                                                                                                                                                                               210547-124    00012513122012
1                                                                                  LEIDA CRISTINA SILVA ME                 AV MALAQUIAS, 238                       RIOLANDIA                               15495000SP  087         4231                                           21082012                   CENTRO                                                                                                                                                                                                                                                                                                                                                                                     210547-125    00012613122012
1                                                                                  LEIDA CRISTINA SILVA ME                 AV MALAQUIAS, 238                       RIOLANDIA                               15495000SP  087         4231                                           20112012                   CENTRO                                                                                                                                                                                                                                                                                                                                                                                     210547-126    00012713122012
1                                                                                  LUCIANA OLIVEIRA                        R SANTA PAULA, 3211 CASA 01             SAO JOSE DO RIO PRETO                   15043320SP  007         4893                                           23102012                   ELDORADO                                                                                                                                                                                                                                                                                                                                                                                   210547-127    00012813122012
1                                                                                  LUCIANA OLIVEIRA                        R SANTA PAULA, 3211 CASA 01             SAO JOSE DO RIO PRETO                   15043320SP  007         4893                                           21112012                   ELDORADO                                                                                                                                                                                                                                                                                                                                                                                   210547-128    00012913122012
1                                                                                  CIBELE FERNANDA MARRUBIO                R OSVALDO CRUZ, 2767                    MIRASSOL                                15130000SP  014         6098                                           23102012                   SANTA CASA                                                                                                                                                                                                                                                                                                                                                                                 210547-129    00013013122012
1                                                                                  CIBELE FERNANDA MARRUBIO                R OSVALDO CRUZ, 2767                    MIRASSOL                                15130000SP  014         6098                                           20112012                   SANTA CASA                                                                                                                                                                                                                                                                                                                                                                                 210547-130    00013113122012
1                                                                                  RONALDO ANTONIO SOUZA JUNIOR            RUA JOSE PADUA DINIZ, 487               ITURAMA                                 38280000MG  125         6098                                           23102012                   N S DE FATIMA                                                                                                                                                                                                                                                                                                                                                                              210547-131    00013213122012
1                                                                                  RONALDO ANTONIO SOUZA JUNIOR            RUA JOSE PADUA DINIZ, 487               ITURAMA                                 38280000MG  125         6098                                           20112012                   N S DE FATIMA                                                                                                                                                                                                                                                                                                                                                                              210547-132    00013313122012
1                                                                                  ZITO ALVES JESUS                        R ROSA MANZAN, 358 CS 1                 UBERABA                                 38067220MG  213         6098                                           23102012                   FABRICIO                                                                                                                                                                                                                                                                                                                                                                                   210547-133    00013413122012
1                                                                                  ZITO ALVES JESUS                        R ROSA MANZAN, 358 CS 1                 UBERABA                                 38067220MG  213         6098                                           20112012                   FABRICIO                                                                                                                                                                                                                                                                                                                                                                                   210547-134    00013513122012
1                                                                                  FABIO ALESANDRO SANCHES RIBEIRO         AV BRASIL, 398                          BALSAMO                                 15140000SP  026         6099                                           21092012                   CENTRO                                                                                                                                                                                                                                                                                                                                                                                     210547-135    00013613122012
1                                                                                  FABIO ALESANDRO SANCHES RIBEIRO         AV BRASIL, 398                          BALSAMO                                 15140000SP  026         6099                                           20112012                   CENTRO                                                                                                                                                                                                                                                                                                                                                                                     210547-136    00013713122012
1                                                                                  CARLOS ALBERTO LAUER                    AV CAMPOS MAIA, 1688                    MIRASSOL                                15130000SP  092         6099                                           23102012                   SAO BERNARDO                                                                                                                                                                                                                                                                                                                                                                               210547-137    00013813122012
1                                                                                  CARLOS ALBERTO LAUER                    AV CAMPOS MAIA, 1688                    MIRASSOL                                15130000SP  092         6099                                           20112012                   SAO BERNARDO                                                                                                                                                                                                                                                                                                                                                                               210547-138    00013913122012
1                                                                                  SERGIO INACIO BARCELOS                  AV. ASSILVIO GELIO, 475                 ITURAMA                                 38280000MG  171         6099                                           21092012                   ITALIA                                                                                                                                                                                                                                                                                                                                                                                     210547-139    00014013122012
1                                                                                  SERGIO INACIO BARCELOS                  AV. ASSILVIO GELIO, 475                 ITURAMA                                 38280000MG  171         6099                                           20112012                   ITALIA                                                                                                                                                                                                                                                                                                                                                                                     210547-140    00014113122012
