0REMESSANOTIFICAÇÃO ELETRONICA        99999999999999Bicbanco S/A                            Avenida Brigadeiro Faria Lima           4.440     2º andar  Itaim Bibi                    São Paulo                     04538132SPBicbanco S/A                                                                    24072014                                                                                                                                                                                                                                                                                                                                                                                                000001
1016421009571COBR_CAUC_BIC  IMPORTADORA DE FRUTAS LA VIOLETERA      002782071000623MEGAFORT DISTRIBUIDORA IMP. E EXPO      AV WILSON T RIBEIRO 1651                CONTAGEM                                32183680MG4853700001045728480003407001  14072014019BELO HORIZONTE      2508201400000000013451728CC                                                                                                                                                                                                                                                                                                                                                                                           312091-1      000002
1016421009571COBR_CAUC_BIC  IMPORTADORA DE FRUTAS LA VIOLETERA      004641376003828SUPERMERCADOS BH COMERCIO DE ALIME      AVENIDA GERALDO ROCHA 200               CONTAGEM                                32183054MG4853800001045728300003080001  10072014019BELO HORIZONTE      2108201400000000010210407CC                                                                                                                                                                                                                                                                                                                                                                                           312091-2      000003
1016421009571COBR_CAUC_BIC  IMPORTADORA DE FRUTAS LA VIOLETERA      010912900000240RIO VERMELHO DISTRIBUICAO DE ALIME      ROD BR 153 KM 52 S/N                    ANAPOLIS                                75045190GO4853900001045728640003381001  14072014018GOIANIA             2508201400000000013177800CC                                                                                                                                                                                                                                                                                                                                                                                           312091-3      000004
1016421009571COBR_CAUC_BIC  IMPORTADORA DE FRUTAS LA VIOLETERA      010912900000240RIO VERMELHO DISTRIBUICAO DE ALIME      ROD BR 153 KM 52 S/N                    ANAPOLIS                                75045190GO4853900002045728720003425001  14072014018GOIANIA             2508201400000000013646746CC                                                                                                                                                                                                                                                                                                                                                                                           312091-4      000005
1016421009571COBR_CAUC_BIC  IMPORTADORA DE FRUTAS LA VIOLETERA      011596442004237CARVALHO E FERNANDES LTDA               AV DEPUTADO PAULO FERRAZ 4888           TERESINA                                64078820PI4854000001045728560003431001  14072014042SAO LUIS            1209201400000000014490005CC                                                                                                                                                                                                                                                                                                                                                                                           312091-5      000006
1016421009571COBR_CAUC_BIC  IMPORTADORA DE FRUTAS LA VIOLETERA      049319411001105MARTIN BROWER COMERCIO TRANSPORTES      RUA MAKITA BRASIL 201                   SAO BERNARDO DO                         09852080SP4854100001045728810001050001  09072014007PAULISTA            0608201400000000011187280CC                                                                                                                                                                                                                                                                                                                                                                                           312091-6      000007
1048421002195COBR_CAUC_COR  SERVIMED COMERCIAL LTDA                 006161357000138CONDE NETO & CIA LTDA                   R CARAVELAS 65                          SAO JOSE DOS CA                         12238170SP48542000010215068868017822    18072014900BRADESCO S/A        2908201400000000017899622CC                                                                                                                                                                                                                                                                                                                                                                                           312091-7      000008
1048421002195COBR_CAUC_COR  SERVIMED COMERCIAL LTDA                 006161357000138CONDE NETO & CIA LTDA                   R CARAVELAS 65                          SAO JOSE DOS CA                         12238170SP48542000020215130768089122    18072014900BRADESCO S/A        2908201400000000011895472CC                                                                                                                                                                                                                                                                                                                                                                                           312091-8      000009
1048421000338COBR_CAUC_COR  FRIGOESTRELA S.A. EM RECUP JUDICIAL     060398914000931MIDORI ATLANTICA BRASIL INDUSTRIAL      AV. ANTONIO VERONESE TERREO, 1007       PENAPOLIS                               16300000SP4854300001084394850114625801  18072014900BRADESCO S/A        2507201400000000025543361CC                                                                                                                                                                                                                                                                                                                                                                                           312091-9      000010
1048421000338COBR_CAUC_COR  FRIGOESTRELA S.A. EM RECUP JUDICIAL     060398914000931MIDORI ATLANTICA BRASIL INDUSTRIAL      AV. ANTONIO VERONESE TERREO, 1007       PENAPOLIS                               16300000SP4854300002084395660114629401  18072014900BRADESCO S/A        2507201400000000025562722CC                                                                                                                                                                                                                                                                                                                                                                                           312091-10     000011
1049421001570COBR_CAUC_COR  MASTER AGROINDUSTRIAL LTDA              006173113000337FRIGODARIO COMERCIAL E LOGISTICA L       AV ANTONIO MARIO DE AZEVEDO, 3710      NOVA FRIBURGO                           28630310RJ4854400001003769160004830001  19072014900BRADESCO S/A        1808201400000000012887400CC                                                                                                                                                                                                                                                                                                                                                                                           312091-11     000012
1021421017050COBR_CAUC_BIC  STAR DISTR PROD FARMACEUTICOS LTDA      061585865073701RAIA DROGASIL S/A                       RUA PATAXOS , 1412                      EMBU                                    06833073SP4854500001000031380000362101  18072014007PAULISTA            0108201400000000028851624CC                                                                                                                                                                                                                                                                                                                                                                                           312091-12     000013
1021421017050COBR_CAUC_BIC  STAR DISTR PROD FARMACEUTICOS LTDA      061585865073701RAIA DROGASIL S/A                       RUA PATAXOS , 1412                      EMBU                                    06833073SP4854500002000031970000362901  18072014007PAULISTA            0108201400000000029875723CC                                                                                                                                                                                                                                                                                                                                                                                           312091-13     000014
1021421017050COBR_CAUC_BIC  STAR DISTR PROD FARMACEUTICOS LTDA      061585865073701RAIA DROGASIL S/A                       RUA PATAXOS , 1412                      EMBU                                    06833073SP4854500003000032010000363001  18072014007PAULISTA            0108201400000000021376444CC                                                                                                                                                                                                                                                                                                                                                                                           312091-14     000015
1048421000338COBR_CAUC_COR  FRIGOESTRELA S.A. EM RECUP JUDICIAL     060494416001530PAGUE MENOS COM.DE PROD.ALIMENTCIO      RUA ANCHIETA GALPAO No1599 GALPAO       NOVA ODESSA                             13460000SP4855400001084487350114663001  21072014900BRADESCO S/A        1808201400000000012133927CC                                                                                                                                                                                                                                                                                                                                                                                           312278-1      000016
1031421011181COBR_CAUC_BIC  AGROIND IRMAOS DALLA COSTA LTDA         033304981000110SUPERMERCADOS MUNDIAL LTDA              R DONA EMILIA ENT AV ITAOCA02532        RIO DE JANEIRO                          20765110RJ48555000010542299867/1        21072014014RIO DE JANEIRO      1808201400000000014280000CC                                                                                                                                                                                                                                                                                                                                                                                           312278-2      000017
1008421022487COBR_CAUC_COR  EBP - EMPRESA BRASILEIRA DE PESCADO     009060964005916PIMENTA VERDE ALIMENTOS LTDA            RUA AGOSTINO TOGNERI N421 PARTE B       SAO PAULO                               04690090SP4855600001017810240027699/    19072014900BRADESCO S/A        1708201400000000010696384CC                                                                                                                                                                                                                                                                                                                                                                                           312278-3      000018
1008421022487COBR_CAUC_COR  EBP - EMPRESA BRASILEIRA DE PESCADO     033381286000151SUPER MERCADO ZONA SUL S/A              RUA COMANDANTE VERGUEIRO DA CRUZ, 226   RIO DE JANEIRO                          21021020RJ4855700001017809400027691/    18072014900BRADESCO S/A        2108201400000000010275000CC                                                                                                                                                                                                                                                                                                                                                                                           312278-4      000019
1046421007816DIR_CREDIT     MELQUIOR SCHLICKMANN                    000041573951900MILTON SCHLICKMANN                      AV ALMIRANTE TAMANDARÉ 808              TAMBAÚ                                  58039010PB4856700001                                                                                                                                          012626934           01012010000002277142200331234 22072014000403transferência, mediante cessão onerosa (venda à prazo) integral de quotas de Capital da SBDE - Sociedade Brasileira de Embalagens e DescartáveisLtda                                                                                            665321759000000312278-5      000020
1023421001967DIR_CREDIT     SIND DOS ESTIV STOS S V GJA CUBATAO     000945425000173ORGAO DE GESTAO DE MAO DE OBRA - OGMO   AV. CONSELHEIRO NéBIAS, 255             SANTOS                                  11015003SP4856800001                                                                                                                                          012621037           270220080000005031            22072014000403Repasse de contribuição sindical dos estivadores.                                                                                                                                                                                               058200700000100312278-6      000021
1023421001967DIR_CREDIT     SIND DOS ESTIV STOS S V GJA CUBATAO     000945425000173ORGAO DE GESTAO DE MAO DE OBRA - OGMO   AV CONSELHEIRO NEBIAS 255               SANTOS                                  11015003SP4856900001                                                                                                                                          012621037           200920110000019727            22072014000403Repasse da mensalidade sindical dos trabalhadores utilizados peloContratante, denominado cartão de câmbio.                                                                                                                                      058200700000100312278-7      000022
1023421001967DIR_CREDIT     SIND DOS ESTIV STOS S V GJA CUBATAO     001505291000132SM OPERADORA PORTUARIA LTDA             RUA 28 DE SETEMBRO Nº130                SANTOS                                  11015110SP4857000001                                                                                                                                          012621037           010320110000020899            22072014000403Repasse mensal de 2%, sobre a remuneração mensal,paga aos trabalhadoresutilizados pela Empresa, para formação do Fundo de Programas Sociais,nos termosdo Acordo Coletivo firmado pelas partes.                                                  058200700000100312278-8      000023
1046421006070DIR_CREDIT     METALURGICA DS LTDA                     060857349000176TRW AUTOMOTIVE LTDA                     VIA ANHANGUERA KM 147                   LIMEIRA                                 13486915SP4857100001                                                                                                                                          012635224           260320070000018698            21072014000404fornecimento de discos e tambores de freio para automóveis.                                                                                                                                                                                     079414868000198312278-9      000024
1046421007808DIR_CREDIT     SOULPACK SA                             000025234650944MARIO SCHLICKMANN                       AV MONS FREDERICO TOMBROCK 99           SãO LUDGERO                             88730000SC4857300001                                                                                                                                          012626829           01012010000002276742200331234 22072014000403transferência, mediante cessão onerosa (venda à prazo) integral dasquotas de capital da SBDE - Sociedade Brasileira de Embalagens e DescartáveisLtda.                                                                                           415765519000020312278-10     000025
1046421007816DIR_CREDIT     SOULPACK SA                             000043591400700MARCELO SCHLICKMANN                     RUA FELIPE SCHLICKMANN 55               SÃO LUDGERO                             88730000SC4857400001                                                                                                                                          012626934           01102010000002277242200331234 22072014000403transferência, mediante cessão onerosa (venda à prazo) integral da quotas de Capital da SBDE - Sociedade Brasileira de Embalagens e DescartáveisLtda.                                                                                           665321759000000312278-11     000026
1046421007794DIR_CREDIT     SOULPACK SA                             000041573951900MILTON SCHLICKMANN                      AV TAMANDARÉ 808                        TAMBAÚ                                  58039010PB4857500001                                                                                                                                          012626870           01102010000002277342200331234 22072014000403transferência, mediante cessão onerosa (venda à prazo) integral dasquotas de Capital da SBDE - Sociedade Brasileira de Embalagens e DescartáveisLtda                                                                                            665322569000000312278-12     000027
9000026                                                                                                                                                                                                                                                                                                                                                                                                                                                                                                                                                                                                                                                                                                               000028
