0REMESSANOTIFICAÇÃO ELETRONICA        99999999999999Bicbanco S/A                            Avenida Brigadeiro Faria Lima           4.440     2º andar  Itaim Bibi                    São Paulo                     04538132SPBicbanco S/A                                                                    24112014                                                                                                                                                                                                                                                                                                                                                                                                000001
1050421007970COBR_CAUC_COR  TRANSGLOBAL NORTE TRANSPORTES LTDA      010456016001643SHELL BRASIL PETROLEO LTDA              ROD. BR 316,0                           ANANINDEUA                              67030000PA50150000010000279750066       18112014900BRADESCO S/A        2212201400000000013450144CC                                                                                                                                                                                                                                                                                                                                                                                           334161-1      000002
1046421008936COBR_CAUC_COR  MG ELETRO COM IMP E EXP LTDA            001711005000608PANORAMA MATERIAIS DE CONSTRUCAO L      AV COSTA E SILVA,3300                   FOZ DO IGUACU                           85863000PR50157000010000990715106-1/2   22102014900BRADESCO S/A        1612201400000000003356400CC                                                                                                                                                                                                                                                                                                                                                                                           334161-2      000003
1046421008936COBR_CAUC_COR  MG ELETRO COM IMP E EXP LTDA            001711005000608PANORAMA MATERIAIS DE CONSTRUCAO L      AV COSTA E SILVA,3300                   FOZ DO IGUACU                           85863000PR50157000020000991515106-2/2   22102014900BRADESCO S/A        1501201500000000003356400CC                                                                                                                                                                                                                                                                                                                                                                                           334161-3      000004
1046421008936COBR_CAUC_COR  MG ELETRO COM IMP E EXP LTDA            000325400000177CEQUIPEL IND. MOV COM. EQUIP GERAI      AV RUI BARBOSA,2980                     SJ DOS PINHAIS                          83055320PR50158000010000727114450-2/5   12082014900BRADESCO S/A        0712201400000000002127792CC                                                                                                                                                                                                                                                                                                                                                                                           334161-4      000005
1046421008936COBR_CAUC_COR  MG ELETRO COM IMP E EXP LTDA            000325400000177CEQUIPEL IND. MOV COM. EQUIP GERAI      AV RUI BARBOSA,2980                     SJ DOS PINHAIS                          83055320PR50158000020000729714450-4/5   12082014900BRADESCO S/A        1012201400000000002127792CC                                                                                                                                                                                                                                                                                                                                                                                           334161-5      000006
1046421008936COBR_CAUC_COR  MG ELETRO COM IMP E EXP LTDA            000325400000177CEQUIPEL IND. MOV COM. EQUIP GERAI      AV RUI BARBOSA,2980                     SJ DOS PINHAIS                          83055320PR50158000030000731914450-5/5   12082014900BRADESCO S/A        0901201500000000002127792CC                                                                                                                                                                                                                                                                                                                                                                                           334161-6      000007
1046421008936COBR_CAUC_COR  MG ELETRO COM IMP E EXP LTDA            000325400000177CEQUIPEL IND. MOV COM. EQUIP GERAI      AV RUI BARBOSA,2980                     SJ DOS PINHAIS                          83055320PR50158000040000733514491-2/2   19082014900BRADESCO S/A        2211201400000000000002876CC                                                                                                                                                                                                                                                                                                                                                                                           334161-7      000008
1046421008936COBR_CAUC_COR  MG ELETRO COM IMP E EXP LTDA            005019424004613MANICA ELETRO COM DE MOVEIS E ELET      AV. SANTA CATARINA,71                   CORBELIA                                85420000PR50159000010000962114821-1/2   01102014900BRADESCO S/A        0401201500000000003362500CC                                                                                                                                                                                                                                                                                                                                                                                           334161-8      000009
1046421008936COBR_CAUC_COR  MG ELETRO COM IMP E EXP LTDA            004309094000217GE MAGAZINE LTDA                        ROD BR KM 27,5 ,0                       PRESID OLEGARIO                         38750000MG50160000010000764514582-1/1   04092014900BRADESCO S/A        1812201400000000001679400CC                                                                                                                                                                                                                                                                                                                                                                                           334161-9      000010
1046421006399DIR_CREDIT     CARBONIFERA CRICIUMA S/A                002474103000208TRACTEBEL ENERGIA S/A                   AVENIDA PAULO SANTOS MELLO, S/NR        CAPIVARI DE BAIXO                       88745000SC5009200001                                                                                                                                          012705109           011220100000020197DGT.NAJL.05.13112014000403compra de carvão mineral tipo CE 4500.                                                                                                                                                                                                          083647909000163334164-1      000011
1029421019016DIR_CREDIT     COZINHA INDUSTRIAL FRAIBURGO LTDA       052311529009690FISCHER S/A AGROINDUSTRIA               ROD SC 453 KM 24,6                      FRAIBURGO                               89580000SC5009300001                                                                                                                                          012473389           130420120000023162            27012014051902Fornecimento exclusivo de refeições para todos os empregados e/ou auto-rizados da CONTRATANTE, incluindo todos os insumos necessários para o preparodas refeições e respectiva mão-de-obra especializada.                                       083139089000107334164-2      000012
1029421021428DIR_CREDIT     COOP TRITICOLA SANANDUVA LTDA           083310441002918COOP CENTRAL AURORA ALIMENTOS           MARG ROD BR 282 KM 582                  PINHALZINHO                             89870000RS5010200001                                                                                                                                          012701772           281020140000026327            14112014000403Fornecimento de leite "in natura".                                                                                                                                                                                                              095323986000147334164-3      000013
1046421006070DIR_CREDIT     METALURGICA DS LTDA                     060857349000176TRW AUTOMOTIVE LTDA                     VIA ANHANGUERA KM 147                   LIMEIRA                                 13486915SP5013700001                                                                                                                                          012707934           260320070000018698            17112014000404fornecimento de discos e tambores de freio para automóveis.                                                                                                                                                                                     079414868000198334164-4      000014
1007421068766DIR_CREDIT     CRK INFORMATICA LTDA                    061146577000109BANCO BCN BARCLAYS S/A                  AV.BRIGADEIRO FARIA LIMA,4.440 - 12ºAND.ITAIM BIBI                              04538132SP5015400001                                                                                                                                          012542190           010919970000021471            17112014000403Cessão de licença de uso de software e aplicativo crk.                                                                                                                                                                                          054931530000182334164-5      000015
1016421009571COBR_CAUC_BIC  IMPORTADORA DE FRUTAS LA VIOLETERA      002782071000461MEGAFORT DISTRIBUIDORA IMP E EXP L      V EX ANEL VIARIO 0                      APARECIDA DE GO                         74985240GO5016100001048504810018589001  14112014018GOIANIA             2612201400000000014589605CC                                                                                                                                                                                                                                                                                                                                                                                           334164-6      000016
1016421009571COBR_CAUC_BIC  IMPORTADORA DE FRUTAS LA VIOLETERA      002782071000461MEGAFORT DISTRIBUIDORA IMP E EXP L      V EX ANEL VIARIO 0                      APARECIDA DE GO                         74985240GO5016100002048505110017963001  11112014019GOIANIA             2312201400000000010199497CC                                                                                                                                                                                                                                                                                                                                                                                           334164-7      000017
1016421009571COBR_CAUC_BIC  IMPORTADORA DE FRUTAS LA VIOLETERA      004641376003828SUPERMERCADOS BH COMERCIO DE ALIME      AVENIDA GERALDO ROCHA 200               CONTAGEM                                32183054MG5016200001048505030018305001  12112014019BELO HORIZONTE      2412201400000000012165503CC                                                                                                                                                                                                                                                                                                                                                                                           334164-8      000018
1016421009571COBR_CAUC_BIC  IMPORTADORA DE FRUTAS LA VIOLETERA      005054671001554LIDER COMERCIO E INDUSTRIA LTDA         RUA PARIQUIS 1120                       BELEM                                   66033590PA5016300001048504140019057001  18112014050BELEM               3012201400000000014910000CC                                                                                                                                                                                                                                                                                                                                                                                           334164-9      000019
1016421009571COBR_CAUC_BIC  IMPORTADORA DE FRUTAS LA VIOLETERA      037259223000269NOVA AMAZONAS IND COM IMPORTACAO D      JK TRECHO 1 S/N                         BRASILIA                                70310500DF5016400001048504220018257001  12112014009BRASILIA            1012201400000000012688653CC                                                                                                                                                                                                                                                                                                                                                                                           334164-10     000020
1031421011181COBR_CAUC_BIC  AGROIND IRMAOS DALLA COSTA LTDA         011596442003427CARVALHO E FERNANDES LTDA               AV DEPUTADO PAULO FERRAZ 04888          TERESINA                                64078820PI5016500001054627105794/1      01112014042SAO LUIS            0112201400000000016466695CC                                                                                                                                                                                                                                                                                                                                                                                           334164-11     000021
1021421017050COBR_CAUC_BIC  STAR DISTR PROD FARMACEUTICOS LTDA      046054219000174SOLFARMA COMERCIO DE PRODUTOS FARM      AVENIDA BELMIRO DIAS BAPTISTA , 778     BEBEDOURO                               14711130SP5016600001000072810000434301  19112014022RIBEIRAO PRETO      2412201400000000015771726CC                                                                                                                                                                                                                                                                                                                                                                                           334164-12     000022
1021421017050COBR_CAUC_BIC  STAR DISTR PROD FARMACEUTICOS LTDA      061585865000151RAIA DROGASIL S/A                       AVENIDA CORIFEU DE AZEVEDO MARQUES, 3097SAO PAULO                               05339000SP5016700001000071170000433001  17112014007PAULISTA            1601201500000000023625322CC                                                                                                                                                                                                                                                                                                                                                                                           334164-13     000023
1021421017050COBR_CAUC_BIC  STAR DISTR PROD FARMACEUTICOS LTDA      061585865000151RAIA DROGASIL S/A                       AVENIDA CORIFEU DE AZEVEDO MARQUES, 3097SAO PAULO                               05339000SP5016700002000073200000434701  19112014007PAULISTA            0312201400000000015856695CC                                                                                                                                                                                                                                                                                                                                                                                           334164-14     000024
1021421017050COBR_CAUC_BIC  STAR DISTR PROD FARMACEUTICOS LTDA      061585865000151RAIA DROGASIL S/A                       AVENIDA CORIFEU DE AZEVEDO MARQUES, 3097SAO PAULO                               05339000SP5016700003000071760000596701  17112014018PAULISTA            0812201400000000010581929CC                                                                                                                                                                                                                                                                                                                                                                                           334164-15     000025
1046421006070DIR_CREDIT     METALURGICA DS LTDA                     060857349000176TRW AUTOMOTIVE LTDA                     VIA ANHANGUERA KM 147                   LIMEIRA                                 13486915SP5017000001                                                                                                                                          012709210           260320070000018698            19112014000404fornecimento de discos e tambores de freio para automóveis.                                                                                                                                                                                     079414868000198334164-16     000026
1048421002195COBR_CAUC_COR  SERVIMED COMERCIAL LTDA                 006161357000138CONDE NETO & CIA LTDA                   R CARAVELAS 65                          SAO JOSE DOS CA                         17047310SP501710000102523468887824      19112014900BRADESCO S/A        1901201500000000012433194CC                                                                                                                                                                                                                                                                                                                                                                                           334166-1      000027
1048421000338COBR_CAUC_COR  FRIGOESTRELA S AEM RECUP JUDICIAL       050947761001871IRMAOS RUSSI LTDA                       RUA LUIS ALLI FARDYN SALA 03, 590       CAJAMAR                                 07750000SP5017200001088809120038841501  19112014900BRADESCO S/A        2412201400000000011680116CC                                                                                                                                                                                                                                                                                                                                                                                           334166-2      000028
9000027                                                                                                                                                                                                                                                                                                                                                                                                                                                                                                                                                                                                                                                                                                               000029
