0REMESSANOTIFICAÇÃO ELETRONICA        99999999999999Bicbanco S/A                            Avenida Paulista , 1048 12º andar                           BELA VISTA                    SÃO PAULO                     01310100SPBicbanco S/A                                                                    29062010                                                                                                                                                                                                                                                                                                                                                                                                000001
1029421001656COBR_CAUC_BIC  EUROAR SISTEMAS AUTOMOTIVOS LTDA        016701716000156FIAT AUTOMOVEIS S/A                     RODOV.FERNAO DIAS BR 381 KM 429,0       BETIM                                   32536000MG22943000010922510103406D      23062010019BELO HORIZONTE      1108201000000000013000000CC                                                                                                                                                                                                                                                                                                                                                                                           104347-1      000002
1007421040063COBR_CAUC_BIC  TUBERFIL IND. E COM. DE TUBOS LTDA      060608866000101ACOS VIC LTDA                           AV. PRESIDENTE WILSON 5445              SAO PAULO                               04220905SP229440000109956661015035001   24062010007PAULISTA            0508201000000000010553335CC                                                                                                                                                                                                                                                                                                                                                                                           104347-2      000003
1008421005590COBR_CAUC_COR  MM MONTEIRO PESCA EXPORTACAO LTDA       071815229000122GREAT FOOD P.DE ALIMENTICIOS LTDA       RUA DOS ESTUDANTES,377                  COTIA                                   06707050SP229450000108010783209 A       25062010900BRADESCO S/A        2507201000000000011666667CC                                                                                                                                                                                                                                                                                                                                                                                           104347-3      000004
1008421005590COBR_CAUC_COR  MM MONTEIRO PESCA EXPORTACAO LTDA       071815229000122GREAT FOOD P.DE ALIMENTICIOS LTDA       RUA DOS ESTUDANTES,377                  COTIA                                   06707050SP229450000208010791209 B       25062010900BRADESCO S/A        0908201000000000011666667CC                                                                                                                                                                                                                                                                                                                                                                                           104347-4      000005
1008421005590COBR_CAUC_COR  MM MONTEIRO PESCA EXPORTACAO LTDA       071815229000122GREAT FOOD P.DE ALIMENTICIOS LTDA       RUA DOS ESTUDANTES,377                  COTIA                                   06707050SP229450000308010805209 C       25062010900BRADESCO S/A        2408201000000000011666666CC                                                                                                                                                                                                                                                                                                                                                                                           104347-5      000006
1007421009131COBR_CAUC_COR  KASINSKI FABRICADORA DE VEIC LTDA       009495840000147MIL MOTOS COMERCIAL DE MOTOS E          RUA CORONEL RANGEL, 195/203             SOBRAL                                  62010130CE229460000109956246F010064311  23062010900BRADESCO S/A        2009201000000000010836359CC                                                                                                                                                                                                                                                                                                                                                                                           104347-6      000007
9000006                                                                                                                                                                                                                                                                                                                                                                                                                                                                                                                                                                                                                                                                                                               000008
