0REMESSANOTIFICAÇÃO ELETRONICA        99999999999999Bicbanco S/A                            Avenida Brigadeiro Faria Lima           4.440     2º andar  Itaim Bibi                    São Paulo                     04538132SPBicbanco S/A                                                                    23012015                                                                                                                                                                                                                                                                                                                                                                                                000001
1050421000089COBR_CAUC_BIC  ATIVO ALIMENTOS EXP E IMP EIRELI        013364572000100CRISTHA FOODS ALIMENTOS LTDA            R MARIA GONZAGA 19                      SAO JOAO DE MER                         25535482RJ505150000100630747292938/1    16012015014RIO DE JANEIRO      1502201500000000024523678CC                                                                                                                                                                                                                                                                                                                                                                                           341930-1      000002
1032421033965COBR_CAUC_BIC  TUPER S/A                               008070508012184RAIZEN ENERGIA S.A                      ACESSO B. COSTA PINTO, S/N AREA 1       PIRACICABA                              13411900SP5052100001032024380020763 01  19012015021CAMPINAS            0203201500000000011846356CC                                                                                                                                                                                                                                                                                                                                                                                           342411-1      000003
1048421002195COBR_CAUC_COR  SERVIMED COMERCIAL LTDA                 007433653000103MACER DISTR LTDA                        AV CORONEL NOGUEIRA PADILHA 605         SOROCABA                                17047310SP50522000010257299063488324    16012015900BRADESCO S/A        2002201500000000014186739CC                                                                                                                                                                                                                                                                                                                                                                                           342411-2      000004
1036421020394COBR_CAUC_BIC  LAGROTTA AZZURRA IND COM CONF LTDA      054801535000433CENTRO METROPOLITANO DE COSMETICOS      AV.LAURO DE GUDMAO S,200-LT.2 QD.B      GUARULHOS                               07140010SP505260000106029207580193-3    04122014007PAULISTA            1203201500000000000220633CC                                                                                                                                                                                                                                                                                                                                                                                           342411-3      000005
1036421020394COBR_CAUC_BIC  LAGROTTA AZZURRA IND COM CONF LTDA      054801535000433CENTRO METROPOLITANO DE COSMETICOS      AV.LAURO DE GUDMAO S,200-LT.2 QD.B      GUARULHOS                               07140010SP505260000206029215580193-2    04122014007PAULISTA            2502201500000000000220633CC                                                                                                                                                                                                                                                                                                                                                                                           342411-4      000006
1036421020394COBR_CAUC_BIC  LAGROTTA AZZURRA IND COM CONF LTDA      054801535000433CENTRO METROPOLITANO DE COSMETICOS      AV.LAURO DE GUDMAO S,200-LT.2 QD.B      GUARULHOS                               07140010SP505260000306029444580196-3    04122014007PAULISTA            1203201500000000001052800CC                                                                                                                                                                                                                                                                                                                                                                                           342411-5      000007
1036421020394COBR_CAUC_BIC  LAGROTTA AZZURRA IND COM CONF LTDA      054801535000433CENTRO METROPOLITANO DE COSMETICOS      AV.LAURO DE GUDMAO S,200-LT.2 QD.B      GUARULHOS                               07140010SP505260000406029452580196-2    04122014007PAULISTA            2502201500000000001052800CC                                                                                                                                                                                                                                                                                                                                                                                           342411-6      000008
1036421020394COBR_CAUC_BIC  LAGROTTA AZZURRA IND COM CONF LTDA      054801535000433CENTRO METROPOLITANO DE COSMETICOS      AV.LAURO DE GUDMAO S,200-LT.2 QD.B      GUARULHOS                               07140010SP505260000506029461580196-1    04122014007PAULISTA            1002201500000000001052800CC                                                                                                                                                                                                                                                                                                                                                                                           342411-7      000009
1036421020394COBR_CAUC_BIC  LAGROTTA AZZURRA IND COM CONF LTDA      054801535000433CENTRO METROPOLITANO DE COSMETICOS      AV.LAURO DE GUDMAO S,200-LT.2 QD.B      GUARULHOS                               07140010SP505260000606029479580194-3    04122014007PAULISTA            1203201500000000000176500CC                                                                                                                                                                                                                                                                                                                                                                                           342411-8      000010
1036421020394COBR_CAUC_BIC  LAGROTTA AZZURRA IND COM CONF LTDA      054801535000433CENTRO METROPOLITANO DE COSMETICOS      AV.LAURO DE GUDMAO S,200-LT.2 QD.B      GUARULHOS                               07140010SP505260000706029487580194-2    04122014007PAULISTA            2502201500000000000176500CC                                                                                                                                                                                                                                                                                                                                                                                           342411-9      000011
1036421020394COBR_CAUC_BIC  LAGROTTA AZZURRA IND COM CONF LTDA      054801535000433CENTRO METROPOLITANO DE COSMETICOS      AV.LAURO DE GUDMAO S,200-LT.2 QD.B      GUARULHOS                               07140010SP505260000806029495580194-1    04122014007PAULISTA            1002201500000000000176500CC                                                                                                                                                                                                                                                                                                                                                                                           342411-10     000012
1036421020394COBR_CAUC_BIC  LAGROTTA AZZURRA IND COM CONF LTDA      054801535000433CENTRO METROPOLITANO DE COSMETICOS      AV.LAURO DE GUDMAO S,200-LT.2 QD.B      GUARULHOS                               07140010SP505260000906029509580193-1.   04122014007PAULISTA            1002201500000000000220634CC                                                                                                                                                                                                                                                                                                                                                                                           342411-11     000013
1036421020394COBR_CAUC_BIC  LAGROTTA AZZURRA IND COM CONF LTDA      054801535000433CENTRO METROPOLITANO DE COSMETICOS      AV.LAURO DE GUDMAO S,200-LT.2 QD.B      GUARULHOS                               07140010SP505260001006029738580234-1    08122014007PAULISTA            1402201500000000000544000CC                                                                                                                                                                                                                                                                                                                                                                                           342411-12     000014
1036421020394COBR_CAUC_BIC  LAGROTTA AZZURRA IND COM CONF LTDA      054801535000433CENTRO METROPOLITANO DE COSMETICOS      AV.LAURO DE GUDMAO S,200-LT.2 QD.B      GUARULHOS                               07140010SP505260001106029746580234-2    08122014007PAULISTA            0103201500000000000544000CC                                                                                                                                                                                                                                                                                                                                                                                           342411-13     000015
1036421020394COBR_CAUC_BIC  LAGROTTA AZZURRA IND COM CONF LTDA      054801535000433CENTRO METROPOLITANO DE COSMETICOS      AV.LAURO DE GUDMAO S,200-LT.2 QD.B      GUARULHOS                               07140010SP505260001206029754580234-3    08122014007PAULISTA            1603201500000000000544000CC                                                                                                                                                                                                                                                                                                                                                                                           342411-14     000016
1036421020394COBR_CAUC_BIC  LAGROTTA AZZURRA IND COM CONF LTDA      054801535000433CENTRO METROPOLITANO DE COSMETICOS      AV.LAURO DE GUDMAO S,200-LT.2 QD.B      GUARULHOS                               07140010SP505260001306031201580588-3    29122014007PAULISTA            2203201500000000000354380CC                                                                                                                                                                                                                                                                                                                                                                                           342411-15     000017
1036421020394COBR_CAUC_BIC  LAGROTTA AZZURRA IND COM CONF LTDA      054801535000433CENTRO METROPOLITANO DE COSMETICOS      AV.LAURO DE GUDMAO S,200-LT.2 QD.B      GUARULHOS                               07140010SP505260001406031210580588-2    29122014007PAULISTA            0703201500000000000354380CC                                                                                                                                                                                                                                                                                                                                                                                           342411-16     000018
1036421020394COBR_CAUC_BIC  LAGROTTA AZZURRA IND COM CONF LTDA      054801535000433CENTRO METROPOLITANO DE COSMETICOS      AV.LAURO DE GUDMAO S,200-LT.2 QD.B      GUARULHOS                               07140010SP505260001506031228580588-1    29122014007PAULISTA            2002201500000000000354380CC                                                                                                                                                                                                                                                                                                                                                                                           342411-17     000019
1036421020394COBR_CAUC_BIC  LAGROTTA AZZURRA IND COM CONF LTDA      001005728000764LABOR IMPORT COMERCIAL IMPORT EXPO      ALAMEDA TOCANTINS,755                   BARUERI                                 06455020SP505270000106031821580671-1    05012015007PAULISTA            0403201500000000001895236CC                                                                                                                                                                                                                                                                                                                                                                                           342411-18     000020
1036421020394COBR_CAUC_BIC  LAGROTTA AZZURRA IND COM CONF LTDA      001005728000764LABOR IMPORT COMERCIAL IMPORT EXPO      ALAMEDA TOCANTINS,755                   BARUERI                                 06455020SP505270000206031830580671-2    05012015007PAULISTA            1403201500000000001269000CC                                                                                                                                                                                                                                                                                                                                                                                           342411-19     000021
1036421020394COBR_CAUC_BIC  LAGROTTA AZZURRA IND COM CONF LTDA      001005728000764LABOR IMPORT COMERCIAL IMPORT EXPO      ALAMEDA TOCANTINS,755                   BARUERI                                 06455020SP505270000306031848580671-3    05012015007PAULISTA            2403201500000000001269000CC                                                                                                                                                                                                                                                                                                                                                                                           342411-20     000022
1036421020394COBR_CAUC_BIC  LAGROTTA AZZURRA IND COM CONF LTDA      001005728000764LABOR IMPORT COMERCIAL IMPORT EXPO      ALAMEDA TOCANTINS,755                   BARUERI                                 06455020SP505270000406031856580671-4    05012015007PAULISTA            0304201500000000001269000CC                                                                                                                                                                                                                                                                                                                                                                                           342411-21     000023
1036421020394COBR_CAUC_BIC  LAGROTTA AZZURRA IND COM CONF LTDA      013751952000199DALEPEL COM.DE EMBALAGENS LTDA          RUA ARLINDO GREGORIO BARBEITAS ,20      CPOS.GOYTACAZES                         28080195RJ505280000106029991580380-5    11122014014RIO DE JANEIRO      1303201500000000000133000CC                                                                                                                                                                                                                                                                                                                                                                                           342411-22     000024
1036421020394COBR_CAUC_BIC  LAGROTTA AZZURRA IND COM CONF LTDA      013751952000199DALEPEL COM.DE EMBALAGENS LTDA          RUA ARLINDO GREGORIO BARBEITAS ,20      CPOS.GOYTACAZES                         28080195RJ505280000206030001580380-4    11122014014RIO DE JANEIRO      0303201500000000000133000CC                                                                                                                                                                                                                                                                                                                                                                                           342411-23     000025
1036421020394COBR_CAUC_BIC  LAGROTTA AZZURRA IND COM CONF LTDA      013751952000199DALEPEL COM.DE EMBALAGENS LTDA          RUA ARLINDO GREGORIO BARBEITAS ,20      CPOS.GOYTACAZES                         28080195RJ505280000306030094580380-1    11122014014RIO DE JANEIRO      0102201500000000000133000CC                                                                                                                                                                                                                                                                                                                                                                                           342411-24     000026
1036421020394COBR_CAUC_BIC  LAGROTTA AZZURRA IND COM CONF LTDA      013751952000199DALEPEL COM.DE EMBALAGENS LTDA          RUA ARLINDO GREGORIO BARBEITAS ,20      CPOS.GOYTACAZES                         28080195RJ505280000406030108580380-2    11122014014RIO DE JANEIRO      1102201500000000000133000CC                                                                                                                                                                                                                                                                                                                                                                                           342411-25     000027
1036421020394COBR_CAUC_BIC  LAGROTTA AZZURRA IND COM CONF LTDA      013751952000199DALEPEL COM.DE EMBALAGENS LTDA          RUA ARLINDO GREGORIO BARBEITAS ,20      CPOS.GOYTACAZES                         28080195RJ505280000506030116580381-3    11122014014RIO DE JANEIRO      2102201500000000000133000CC                                                                                                                                                                                                                                                                                                                                                                                           342411-26     000028
1036421020394COBR_CAUC_BIC  LAGROTTA AZZURRA IND COM CONF LTDA      013751952000199DALEPEL COM.DE EMBALAGENS LTDA          RUA ARLINDO GREGORIO BARBEITAS ,20      CPOS.GOYTACAZES                         28080195RJ505280000606031732580641-5    02012015014RIO DE JANEIRO      0504201500000000000438000CC                                                                                                                                                                                                                                                                                                                                                                                           342411-27     000029
1036421020394COBR_CAUC_BIC  LAGROTTA AZZURRA IND COM CONF LTDA      013751952000199DALEPEL COM.DE EMBALAGENS LTDA          RUA ARLINDO GREGORIO BARBEITAS ,20      CPOS.GOYTACAZES                         28080195RJ505280000706031741580641-4    02012015014RIO DE JANEIRO      2603201500000000000438000CC                                                                                                                                                                                                                                                                                                                                                                                           342411-28     000030
1036421020394COBR_CAUC_BIC  LAGROTTA AZZURRA IND COM CONF LTDA      013751952000199DALEPEL COM.DE EMBALAGENS LTDA          RUA ARLINDO GREGORIO BARBEITAS ,20      CPOS.GOYTACAZES                         28080195RJ505280000806031759580641-3    02012015014RIO DE JANEIRO      1603201500000000000438000CC                                                                                                                                                                                                                                                                                                                                                                                           342411-29     000031
1036421020394COBR_CAUC_BIC  LAGROTTA AZZURRA IND COM CONF LTDA      013751952000199DALEPEL COM.DE EMBALAGENS LTDA          RUA ARLINDO GREGORIO BARBEITAS ,20      CPOS.GOYTACAZES                         28080195RJ505280000906031767580641-2    02012015014RIO DE JANEIRO      0603201500000000000438000CC                                                                                                                                                                                                                                                                                                                                                                                           342411-30     000032
1036421020394COBR_CAUC_BIC  LAGROTTA AZZURRA IND COM CONF LTDA      013751952000199DALEPEL COM.DE EMBALAGENS LTDA          RUA ARLINDO GREGORIO BARBEITAS ,20      CPOS.GOYTACAZES                         28080195RJ505280001006031775580641-1    02012015014RIO DE JANEIRO      2402201500000000000438000CC                                                                                                                                                                                                                                                                                                                                                                                           342411-31     000033
1036421020394COBR_CAUC_BIC  LAGROTTA AZZURRA IND COM CONF LTDA      005054671001554LIDER COM.E INDUSTRIA LTDA              ROD.AUGUSTO MONTENEGRO KM 8,0           BELEM                                   66833000PA505290000106030507580532-2    18122014050BELEM               0302201500000000000311250CC                                                                                                                                                                                                                                                                                                                                                                                           342411-32     000034
1036421020394COBR_CAUC_BIC  LAGROTTA AZZURRA IND COM CONF LTDA      005054671001554LIDER COM.E INDUSTRIA LTDA              ROD.AUGUSTO MONTENEGRO KM 8,0           BELEM                                   66833000PA505290000206030515580532-3    18122014050BELEM               1002201500000000000311250CC                                                                                                                                                                                                                                                                                                                                                                                           342411-33     000035
1036421020394COBR_CAUC_BIC  LAGROTTA AZZURRA IND COM CONF LTDA      005054671001554LIDER COM.E INDUSTRIA LTDA              ROD.AUGUSTO MONTENEGRO KM 8,0           BELEM                                   66833000PA505290000306030523580532-4    18122014050BELEM               1702201500000000000311250CC                                                                                                                                                                                                                                                                                                                                                                                           342411-34     000036
1036421020394COBR_CAUC_BIC  LAGROTTA AZZURRA IND COM CONF LTDA      005054671001554LIDER COM.E INDUSTRIA LTDA              ROD.AUGUSTO MONTENEGRO KM 8,0           BELEM                                   66833000PA505290000406030531580535-1    18122014050BELEM               2701201500000000000334686CC                                                                                                                                                                                                                                                                                                                                                                                           342411-35     000037
1036421020394COBR_CAUC_BIC  LAGROTTA AZZURRA IND COM CONF LTDA      005054671001554LIDER COM.E INDUSTRIA LTDA              ROD.AUGUSTO MONTENEGRO KM 8,0           BELEM                                   66833000PA505290000506030540580532-1    18122014050BELEM               2701201500000000000311250CC                                                                                                                                                                                                                                                                                                                                                                                           342411-36     000038
1036421020394COBR_CAUC_BIC  LAGROTTA AZZURRA IND COM CONF LTDA      005054671001554LIDER COM.E INDUSTRIA LTDA              ROD.AUGUSTO MONTENEGRO KM 8,0           BELEM                                   66833000PA505290000606030558580535-4    18122014050BELEM               1702201500000000000334688CC                                                                                                                                                                                                                                                                                                                                                                                           342411-37     000039
1036421020394COBR_CAUC_BIC  LAGROTTA AZZURRA IND COM CONF LTDA      005054671001554LIDER COM.E INDUSTRIA LTDA              ROD.AUGUSTO MONTENEGRO KM 8,0           BELEM                                   66833000PA505290000706030566580535-3    18122014050BELEM               1002201500000000000334688CC                                                                                                                                                                                                                                                                                                                                                                                           342411-38     000040
1036421020394COBR_CAUC_BIC  LAGROTTA AZZURRA IND COM CONF LTDA      005054671001554LIDER COM.E INDUSTRIA LTDA              ROD.AUGUSTO MONTENEGRO KM 8,0           BELEM                                   66833000PA505290000806030574580535-2    18122014050BELEM               0302201500000000000334688CC                                                                                                                                                                                                                                                                                                                                                                                           342411-39     000041
1036421020394COBR_CAUC_BIC  LAGROTTA AZZURRA IND COM CONF LTDA      001505662000186EMPRESA BRASILEIRA DE COSMETICOS L      AV.MORVAN DIAS DE FIGUEIREDO,2875       SAO PAULO                               02063000SP505300000106026275579214-3    05112014007PAULISTA            2301201500000000000273861CC                                                                                                                                                                                                                                                                                                                                                                                           342411-40     000042
1036421020394COBR_CAUC_BIC  LAGROTTA AZZURRA IND COM CONF LTDA      001505662000186EMPRESA BRASILEIRA DE COSMETICOS L      AV.MORVAN DIAS DE FIGUEIREDO,2875       SAO PAULO                               02063000SP505300000206029223580190-1    04122014007PAULISTA            0802201500000000000762768CC                                                                                                                                                                                                                                                                                                                                                                                           342411-41     000043
1036421020394COBR_CAUC_BIC  LAGROTTA AZZURRA IND COM CONF LTDA      001505662000186EMPRESA BRASILEIRA DE COSMETICOS L      AV.MORVAN DIAS DE FIGUEIREDO,2875       SAO PAULO                               02063000SP505300000306029231580190-2    04122014007PAULISTA            2302201500000000000762769CC                                                                                                                                                                                                                                                                                                                                                                                           342411-42     000044
1036421020394COBR_CAUC_BIC  LAGROTTA AZZURRA IND COM CONF LTDA      001505662000186EMPRESA BRASILEIRA DE COSMETICOS L      AV.MORVAN DIAS DE FIGUEIREDO,2875       SAO PAULO                               02063000SP505300000406029240580190-3    04122014007PAULISTA            1003201500000000000762769CC                                                                                                                                                                                                                                                                                                                                                                                           342411-43     000045
1036421020394COBR_CAUC_BIC  LAGROTTA AZZURRA IND COM CONF LTDA      007570682000206SOLMAR DISTRIB.DE ALIMENTOS LTDA        RUA VITAL BRASIL,2740                   FORTALEZA                               60541490CE505310000106031651580643-1    02012015003CENTRO              1902201500000000000759500CC                                                                                                                                                                                                                                                                                                                                                                                           342411-44     000046
1036421020394COBR_CAUC_BIC  LAGROTTA AZZURRA IND COM CONF LTDA      007570682000206SOLMAR DISTRIB.DE ALIMENTOS LTDA        RUA VITAL BRASIL,2740                   FORTALEZA                               60541490CE505310000206031678580642-1    02012015003CENTRO              1902201500000000000434000CC                                                                                                                                                                                                                                                                                                                                                                                           342411-45     000047
1036421020394COBR_CAUC_BIC  LAGROTTA AZZURRA IND COM CONF LTDA      007570682000206SOLMAR DISTRIB.DE ALIMENTOS LTDA        RUA VITAL BRASIL,2740                   FORTALEZA                               60541490CE505310000306031686580644-1    02012015003CENTRO              1902201500000000000651000CC                                                                                                                                                                                                                                                                                                                                                                                           342411-46     000048
1036421020394COBR_CAUC_BIC  LAGROTTA AZZURRA IND COM CONF LTDA      007570682000206SOLMAR DISTRIB.DE ALIMENTOS LTDA        RUA VITAL BRASIL,2740                   FORTALEZA                               60541490CE505310000406031660580645-1    02012015003CENTRO              1902201500000000000542500CC                                                                                                                                                                                                                                                                                                                                                                                           342411-47     000049
1036421020394COBR_CAUC_BIC  LAGROTTA AZZURRA IND COM CONF LTDA      007248371000136SIX DO BRASIL EQUIPS.PROT.INDIV.LT      RUA: SAO WENCESLAU,352                  SAO PAULO                               04316070SP505320000106029029580181-1    02122014007PAULISTA            0502201500000000000490000CC                                                                                                                                                                                                                                                                                                                                                                                           342411-48     000050
1036421020394COBR_CAUC_BIC  LAGROTTA AZZURRA IND COM CONF LTDA      007248371000136SIX DO BRASIL EQUIPS.PROT.INDIV.LT      RUA: SAO WENCESLAU,352                  SAO PAULO                               04316070SP505320000206029045580182-1    02122014007PAULISTA            0502201500000000000275125CC                                                                                                                                                                                                                                                                                                                                                                                           342411-49     000051
1036421020394COBR_CAUC_BIC  LAGROTTA AZZURRA IND COM CONF LTDA      007248371000136SIX DO BRASIL EQUIPS.PROT.INDIV.LT      RUA: SAO WENCESLAU,352                  SAO PAULO                               04316070SP505320000306029177580182-2    02122014007PAULISTA            2002201500000000000275125CC                                                                                                                                                                                                                                                                                                                                                                                           342411-50     000052
1036421020394COBR_CAUC_BIC  LAGROTTA AZZURRA IND COM CONF LTDA      007248371000136SIX DO BRASIL EQUIPS.PROT.INDIV.LT      RUA: SAO WENCESLAU,352                  SAO PAULO                               04316070SP505320000406029037580181-2    02122014007PAULISTA            2002201500000000000490000CC                                                                                                                                                                                                                                                                                                                                                                                           342411-51     000053
1036421020394COBR_CAUC_BIC  LAGROTTA AZZURRA IND COM CONF LTDA      007248371000136SIX DO BRASIL EQUIPS.PROT.INDIV.LT      RUA: SAO WENCESLAU,352                  SAO PAULO                               04316070SP505320000506030752580550-2    18122014007PAULISTA            1602201500000000000262500CC                                                                                                                                                                                                                                                                                                                                                                                           342411-52     000054
1036421020394COBR_CAUC_BIC  LAGROTTA AZZURRA IND COM CONF LTDA      007248371000136SIX DO BRASIL EQUIPS.PROT.INDIV.LT      RUA: SAO WENCESLAU,352                  SAO PAULO                               04316070SP505320000606030761580550-1    18122014007PAULISTA            0102201500000000000262500CC                                                                                                                                                                                                                                                                                                                                                                                           342411-53     000055
1036421020394COBR_CAUC_BIC  LAGROTTA AZZURRA IND COM CONF LTDA      007248371000136SIX DO BRASIL EQUIPS.PROT.INDIV.LT      RUA: SAO WENCESLAU,352                  SAO PAULO                               04316070SP505320000706030779580551-1    18122014007PAULISTA            0102201500000000000019600CC                                                                                                                                                                                                                                                                                                                                                                                           342411-54     000056
1036421020394COBR_CAUC_COR  LAGROTTA AZZURRA IND COM CONF LTDA      009200303000122PLASMEDIC COM DE MAT P USO MEDICO       AV. MAURICIO CARDOSO,706                ERECHIM                                 99700000RS505330000106028855580046-4    02122014600HSBC BANK BRASIL    2301201500000000000216000CC                                                                                                                                                                                                                                                                                                                                                                                           342411-55     000057
1036421020394COBR_CAUC_COR  LAGROTTA AZZURRA IND COM CONF LTDA      009200303000122PLASMEDIC COM DE MAT P USO MEDICO       AV. MAURICIO CARDOSO,706                ERECHIM                                 99700000RS505330000206028944570046-5    02122014600HSBC BANK BRASIL    3001201500000000000216000CC                                                                                                                                                                                                                                                                                                                                                                                           342411-56     000058
1036421020394COBR_CAUC_COR  LAGROTTA AZZURRA IND COM CONF LTDA      009200303000122PLASMEDIC COM DE MAT P USO MEDICO       AV. MAURICIO CARDOSO,706                ERECHIM                                 99700000RS505330000306030671580529-3    18122014600HSBC BANK BRASIL    2002201500000000000405000CC                                                                                                                                                                                                                                                                                                                                                                                           342411-57     000059
1036421020394COBR_CAUC_COR  LAGROTTA AZZURRA IND COM CONF LTDA      009200303000122PLASMEDIC COM DE MAT P USO MEDICO       AV. MAURICIO CARDOSO,706                ERECHIM                                 99700000RS505330000406030680580529-2    18122014600HSBC BANK BRASIL    1302201500000000000405000CC                                                                                                                                                                                                                                                                                                                                                                                           342411-58     000060
1036421020394COBR_CAUC_COR  LAGROTTA AZZURRA IND COM CONF LTDA      009200303000122PLASMEDIC COM DE MAT P USO MEDICO       AV. MAURICIO CARDOSO,706                ERECHIM                                 99700000RS505330000506030698580529-1    18122014600HSBC BANK BRASIL    0602201500000000000405000CC                                                                                                                                                                                                                                                                                                                                                                                           342411-59     000061
1036421020394COBR_CAUC_COR  LAGROTTA AZZURRA IND COM CONF LTDA      009200303000122PLASMEDIC COM DE MAT P USO MEDICO       AV. MAURICIO CARDOSO,706                ERECHIM                                 99700000RS505330000606030701580529-4    18122014600HSBC BANK BRASIL    2702201500000000000405000CC                                                                                                                                                                                                                                                                                                                                                                                           342411-60     000062
1036421020394COBR_CAUC_BIC  LAGROTTA AZZURRA IND COM CONF LTDA      0035733300001641000 MARCAS LTDA                        RUA RETIRO,114                          SAO PAULO                               03073005SP505340000106030329580539-1    18122014007PAULISTA            2901201500000000000650000CC                                                                                                                                                                                                                                                                                                                                                                                           342411-61     000063
1036421020394COBR_CAUC_BIC  LAGROTTA AZZURRA IND COM CONF LTDA      0035733300001641000 MARCAS LTDA                        RUA RETIRO,114                          SAO PAULO                               03073005SP505340000206030337580539-2    18122014007PAULISTA            0502201500000000000650000CC                                                                                                                                                                                                                                                                                                                                                                                           342411-62     000064
1036421020394COBR_CAUC_BIC  LAGROTTA AZZURRA IND COM CONF LTDA      0035733300001641000 MARCAS LTDA                        RUA RETIRO,114                          SAO PAULO                               03073005SP505340000306030345580539-3    18122014007PAULISTA            1202201500000000000650000CC                                                                                                                                                                                                                                                                                                                                                                                           342411-63     000065
1036421020394COBR_CAUC_BIC  LAGROTTA AZZURRA IND COM CONF LTDA      018527224000111MERCANTIL SANTA PAULA LTDA              RUA DA ALFANDEGA,415                    SAO PAULO                               03006030SP505350000106029088580171-2    02122014007PAULISTA            2601201500000000000141250CC                                                                                                                                                                                                                                                                                                                                                                                           342411-64     000066
1036421020394COBR_CAUC_BIC  LAGROTTA AZZURRA IND COM CONF LTDA      018527224000111MERCANTIL SANTA PAULA LTDA              RUA DA ALFANDEGA,415                    SAO PAULO                               03006030SP505350000206029096580171-3    02122014007PAULISTA            0202201500000000000141250CC                                                                                                                                                                                                                                                                                                                                                                                           342411-65     000067
1036421020394COBR_CAUC_BIC  LAGROTTA AZZURRA IND COM CONF LTDA      018527224000111MERCANTIL SANTA PAULA LTDA              RUA DA ALFANDEGA,415                    SAO PAULO                               03006030SP505350000306029100580171-4    02122014007PAULISTA            0902201500000000000141250CC                                                                                                                                                                                                                                                                                                                                                                                           342411-66     000068
1036421020394COBR_CAUC_BIC  LAGROTTA AZZURRA IND COM CONF LTDA      018527224000111MERCANTIL SANTA PAULA LTDA              RUA DA ALFANDEGA,415                    SAO PAULO                               03006030SP505350000406029126580172-2    02122014007PAULISTA            2601201500000000000166250CC                                                                                                                                                                                                                                                                                                                                                                                           342411-67     000069
1036421020394COBR_CAUC_BIC  LAGROTTA AZZURRA IND COM CONF LTDA      018527224000111MERCANTIL SANTA PAULA LTDA              RUA DA ALFANDEGA,415                    SAO PAULO                               03006030SP505350000506029134580172-3    02122014007PAULISTA            0202201500000000000166250CC                                                                                                                                                                                                                                                                                                                                                                                           342411-68     000070
1036421020394COBR_CAUC_BIC  LAGROTTA AZZURRA IND COM CONF LTDA      018527224000111MERCANTIL SANTA PAULA LTDA              RUA DA ALFANDEGA,415                    SAO PAULO                               03006030SP505350000606031511580500-1    29122014007PAULISTA            0202201500000000000282500CC                                                                                                                                                                                                                                                                                                                                                                                           342411-69     000071
1036421020394COBR_CAUC_BIC  LAGROTTA AZZURRA IND COM CONF LTDA      018527224000111MERCANTIL SANTA PAULA LTDA              RUA DA ALFANDEGA,415                    SAO PAULO                               03006030SP505350000706031520580500-2    29122014007PAULISTA            0902201500000000000282500CC                                                                                                                                                                                                                                                                                                                                                                                           342411-70     000072
1036421020394COBR_CAUC_BIC  LAGROTTA AZZURRA IND COM CONF LTDA      018527224000111MERCANTIL SANTA PAULA LTDA              RUA DA ALFANDEGA,415                    SAO PAULO                               03006030SP505350000806031538580500-3    29122014007PAULISTA            1602201500000000000282500CC                                                                                                                                                                                                                                                                                                                                                                                           342411-71     000073
1036421020394COBR_CAUC_BIC  LAGROTTA AZZURRA IND COM CONF LTDA      018527224000111MERCANTIL SANTA PAULA LTDA              RUA DA ALFANDEGA,415                    SAO PAULO                               03006030SP505350000906031546580500-4    29122014007PAULISTA            2302201500000000000282500CC                                                                                                                                                                                                                                                                                                                                                                                           342411-72     000074
1036421020394COBR_CAUC_BIC  LAGROTTA AZZURRA IND COM CONF LTDA      013430234000110AUGUSTO PAPALEO MENA                    RUA ABAGIBA,717                         SAO PAULO                               04294000SP505360000106030965580587-1    22122014007PAULISTA            2401201500000000000222000CC                                                                                                                                                                                                                                                                                                                                                                                           342411-73     000075
1036421020394COBR_CAUC_BIC  LAGROTTA AZZURRA IND COM CONF LTDA      013430234000110AUGUSTO PAPALEO MENA                    RUA ABAGIBA,717                         SAO PAULO                               04294000SP505360000206031015580587-3    22122014007PAULISTA            0702201500000000000222000CC                                                                                                                                                                                                                                                                                                                                                                                           342411-74     000076
1036421020394COBR_CAUC_BIC  LAGROTTA AZZURRA IND COM CONF LTDA      013430234000110AUGUSTO PAPALEO MENA                    RUA ABAGIBA,717                         SAO PAULO                               04294000SP505360000306031023580587-2    22122014007PAULISTA            3101201500000000000222000CC                                                                                                                                                                                                                                                                                                                                                                                           342411-75     000077
1036421020394COBR_CAUC_BIC  LAGROTTA AZZURRA IND COM CONF LTDA      013430234000110AUGUSTO PAPALEO MENA                    RUA ABAGIBA,717                         SAO PAULO                               04294000SP505360000406031694580638-1    02012015007PAULISTA            2302201500000000000721500CC                                                                                                                                                                                                                                                                                                                                                                                           342411-76     000078
1036421020394COBR_CAUC_BIC  LAGROTTA AZZURRA IND COM CONF LTDA      005868574001090COMERCIAL ZARAGOZA IMP.EXP.LTDA         AV. DOM PEDRO I,6707                    TAUBATE                                 12091000SP505370000106031708580635-1    02012015007PAULISTA            0703201500000000000450810CC                                                                                                                                                                                                                                                                                                                                                                                           342411-77     000079
1036421020394COBR_CAUC_BIC  LAGROTTA AZZURRA IND COM CONF LTDA      005868574001090COMERCIAL ZARAGOZA IMP.EXP.LTDA         AV. DOM PEDRO I,6707                    TAUBATE                                 12091000SP505370000206031716580635-2    02012015007PAULISTA            2203201500000000000450810CC                                                                                                                                                                                                                                                                                                                                                                                           342411-78     000080
1036421020394COBR_CAUC_BIC  LAGROTTA AZZURRA IND COM CONF LTDA      005868574001090COMERCIAL ZARAGOZA IMP.EXP.LTDA         AV. DOM PEDRO I,6707                    TAUBATE                                 12091000SP505370000306031724580635-3    02012015007PAULISTA            0604201500000000000450810CC                                                                                                                                                                                                                                                                                                                                                                                           342411-79     000081
1036421020394COBR_CAUC_BIC  LAGROTTA AZZURRA IND COM CONF LTDA      017866888000142J GOBBO DISTRIB.PROD.EQUIPS.ODONTO      RUA MOURA AZEVEDO,308-CJ. 201           PORTO ALEGRE                            90230150RS505380000106030876580559-2    19122014015PORTO ALEGRE        2301201500000000000388125CC                                                                                                                                                                                                                                                                                                                                                                                           342411-80     000082
1036421020394COBR_CAUC_BIC  LAGROTTA AZZURRA IND COM CONF LTDA      017866888000142J GOBBO DISTRIB.PROD.EQUIPS.ODONTO      RUA MOURA AZEVEDO,308-CJ. 201           PORTO ALEGRE                            90230150RS505380000206030892580559-4    19122014015PORTO ALEGRE        1302201500000000000388125CC                                                                                                                                                                                                                                                                                                                                                                                           342411-81     000083
1036421020394COBR_CAUC_BIC  LAGROTTA AZZURRA IND COM CONF LTDA      017866888000142J GOBBO DISTRIB.PROD.EQUIPS.ODONTO      RUA MOURA AZEVEDO,308-CJ. 201           PORTO ALEGRE                            90230150RS505380000306030884580559-3    19122014015PORTO ALEGRE        3001201500000000000388125CC                                                                                                                                                                                                                                                                                                                                                                                           342411-82     000084
1036421020394COBR_CAUC_BIC  LAGROTTA AZZURRA IND COM CONF LTDA      017498163000149DISTRIBUIDORA TRIANGULO LTDA            RUA SANTA QUITERIA ,634                 BELO HORIZONTE                          30710460MG505390000106030981580581-3    22122014019BELO HORIZONTE      1502201500000000000386503CC                                                                                                                                                                                                                                                                                                                                                                                           342411-83     000085
1036421020394COBR_CAUC_BIC  LAGROTTA AZZURRA IND COM CONF LTDA      017498163000149DISTRIBUIDORA TRIANGULO LTDA            RUA SANTA QUITERIA ,634                 BELO HORIZONTE                          30710460MG505390000206030990580581-2    22122014019BELO HORIZONTE      0802201500000000000386503CC                                                                                                                                                                                                                                                                                                                                                                                           342411-84     000086
1036421020394COBR_CAUC_BIC  LAGROTTA AZZURRA IND COM CONF LTDA      017498163000149DISTRIBUIDORA TRIANGULO LTDA            RUA SANTA QUITERIA ,634                 BELO HORIZONTE                          30710460MG505390000306031007580581-1    22122014019BELO HORIZONTE      0102201500000000000386502CC                                                                                                                                                                                                                                                                                                                                                                                           342411-85     000087
1036421020394COBR_CAUC_BIC  LAGROTTA AZZURRA IND COM CONF LTDA      003895156000176ISABELA REIS LUCHETA ACESSORIOS ME      RUA MONSENHOR SIQUEIRA,557              RIBEIRAO PRETO                          14085310SP505400000106030442580553-1    18122014022RIBEIRAO PRETO      1402201500000000000264600CC                                                                                                                                                                                                                                                                                                                                                                                           342411-86     000088
1036421020394COBR_CAUC_BIC  LAGROTTA AZZURRA IND COM CONF LTDA      003895156000176ISABELA REIS LUCHETA ACESSORIOS ME      RUA MONSENHOR SIQUEIRA,557              RIBEIRAO PRETO                          14085310SP505400000206030451580553-2    18122014022RIBEIRAO PRETO      0103201500000000000264600CC                                                                                                                                                                                                                                                                                                                                                                                           342411-87     000089
1036421020394COBR_CAUC_BIC  LAGROTTA AZZURRA IND COM CONF LTDA      003895156000176ISABELA REIS LUCHETA ACESSORIOS ME      RUA MONSENHOR SIQUEIRA,557              RIBEIRAO PRETO                          14085310SP505400000306030477580553-3    18122014022RIBEIRAO PRETO      1603201500000000000264600CC                                                                                                                                                                                                                                                                                                                                                                                           342411-88     000090
1036421020394COBR_CAUC_BIC  LAGROTTA AZZURRA IND COM CONF LTDA      003895156000176ISABELA REIS LUCHETA ACESSORIOS ME      RUA MONSENHOR SIQUEIRA,557              RIBEIRAO PRETO                          14085310SP505400000406030485580553-4    18122014022RIBEIRAO PRETO      2603201500000000000264600CC                                                                                                                                                                                                                                                                                                                                                                                           342411-89     000091
1036421020394COBR_CAUC_BIC  LAGROTTA AZZURRA IND COM CONF LTDA      010347424000180J.C MELO DOS SANTOS                     RUA SERGIO LUIZ PESSOA BRAGA,5743       MACEIO                                  57048025AL505410000106031465580514-1    29122014017MACEIO              2501201500000000000426800CC                                                                                                                                                                                                                                                                                                                                                                                           342411-90     000092
1036421020394COBR_CAUC_BIC  LAGROTTA AZZURRA IND COM CONF LTDA      010347424000180J.C MELO DOS SANTOS                     RUA SERGIO LUIZ PESSOA BRAGA,5743       MACEIO                                  57048025AL505410000206031473580514-2    29122014017MACEIO              0102201500000000000426800CC                                                                                                                                                                                                                                                                                                                                                                                           342411-91     000093
1036421020394COBR_CAUC_BIC  LAGROTTA AZZURRA IND COM CONF LTDA      004707391000130J E S FONSECA COMERCIO LTDA             R. NOVE (JULIA SEFFER),59               ANANINDEUA                              67020470PA505420000106029282580098-2    04122014050BELEM               2201201500000000000282500CC                                                                                                                                                                                                                                                                                                                                                                                           342411-92     000094
1036421020394COBR_CAUC_BIC  LAGROTTA AZZURRA IND COM CONF LTDA      004707391000130J E S FONSECA COMERCIO LTDA             R. NOVE (JULIA SEFFER),59               ANANINDEUA                              67020470PA505420000206029291580098-3    04122014050BELEM               2901201500000000000282500CC                                                                                                                                                                                                                                                                                                                                                                                           342411-93     000095
1036421020394COBR_CAUC_BIC  LAGROTTA AZZURRA IND COM CONF LTDA      004707391000130J E S FONSECA COMERCIO LTDA             R. NOVE (JULIA SEFFER),59               ANANINDEUA                              67020470PA505420000306029304580098-4    04122014050BELEM               0502201500000000000282500CC                                                                                                                                                                                                                                                                                                                                                                                           342411-94     000096
1036421020394COBR_CAUC_COR  LAGROTTA AZZURRA IND COM CONF LTDA      083215830000163COMERCIO E REPRESENTACOES BELLATO       AV.LUIZ DE CAMOES,1140                  LAGES                                   88520000SC505430000106028472580185-2    02122014600HSBC BANK BRASIL    2601201500000000000267835CC                                                                                                                                                                                                                                                                                                                                                                                           342411-95     000097
1036421020394COBR_CAUC_BIC  LAGROTTA AZZURRA IND COM CONF LTDA      024933293000128TECIDOS E EMBALAGENS LUCENA LTDA M      QDA 06 CONJUNTO I LT 20 LJ A S,S/N      BRASILIA                                73320030DF505440000106031082580592-1    22122014009BRASILIA            0102201500000000000144843CC                                                                                                                                                                                                                                                                                                                                                                                           342411-96     000098
1036421020394COBR_CAUC_BIC  LAGROTTA AZZURRA IND COM CONF LTDA      024933293000128TECIDOS E EMBALAGENS LUCENA LTDA M      QDA 06 CONJUNTO I LT 20 LJ A S,S/N      BRASILIA                                73320030DF505440000206031091580592-2    23122014009BRASILIA            0802201500000000000144844CC                                                                                                                                                                                                                                                                                                                                                                                           342411-97     000099
1036421020394COBR_CAUC_BIC  LAGROTTA AZZURRA IND COM CONF LTDA      009158369000100HS MACHADO EQUIPAMENTOS DE SEGURAN      AV MARECHAL CASTELO BRANCO,457          ARUJA                                   07400000SP505450000106029975580210-2    11122014007PAULISTA            2601201500000000000296250CC                                                                                                                                                                                                                                                                                                                                                                                           342411-98     000100
1036421020394COBR_CAUC_COR  LAGROTTA AZZURRA IND COM CONF LTDA      025113317000165CASA ALADIM LTDA                        AV.CEL.MARIO CORDEIRO,314               TEOFILO OTONI                           39801457MG505460000106031171580613-1    29122014800UNIBANCO S/A        2301201500000000000107100CC                                                                                                                                                                                                                                                                                                                                                                                           342411-99     000101
1036421020394COBR_CAUC_COR  LAGROTTA AZZURRA IND COM CONF LTDA      025113317000165CASA ALADIM LTDA                        AV.CEL.MARIO CORDEIRO,314               TEOFILO OTONI                           39801457MG505460000206031180580613-2    29122014800UNIBANCO S/A        0702201500000000000107100CC                                                                                                                                                                                                                                                                                                                                                                                           342411-100    000102
1036421020394COBR_CAUC_COR  LAGROTTA AZZURRA IND COM CONF LTDA      025113317000165CASA ALADIM LTDA                        AV.CEL.MARIO CORDEIRO,314               TEOFILO OTONI                           39801457MG505460000306031198580613-3    29122014800UNIBANCO S/A        2202201500000000000107100CC                                                                                                                                                                                                                                                                                                                                                                                           342411-101    000103
1036421020394COBR_CAUC_BIC  LAGROTTA AZZURRA IND COM CONF LTDA      027653799000171EIA TRANSPORTE E DISTRIBUICAO LTDA      AV. BRASIL,19001-LJ.3 TRECHO M/N        RIO DE JANEIRO                          21530000RJ505470000106031309580300-3    29122014014RIO DE JANEIRO      0302201500000000000090469CC                                                                                                                                                                                                                                                                                                                                                                                           342411-102    000104
1036421020394COBR_CAUC_BIC  LAGROTTA AZZURRA IND COM CONF LTDA      027653799000171EIA TRANSPORTE E DISTRIBUICAO LTDA      AV. BRASIL,19001-LJ.3 TRECHO M/N        RIO DE JANEIRO                          21530000RJ505470000206031317580300-2    29122014014RIO DE JANEIRO      2701201500000000000090469CC                                                                                                                                                                                                                                                                                                                                                                                           342411-103    000105
1036421020394COBR_CAUC_BIC  LAGROTTA AZZURRA IND COM CONF LTDA      027653799000171EIA TRANSPORTE E DISTRIBUICAO LTDA      AV. BRASIL,19001-LJ.3 TRECHO M/N        RIO DE JANEIRO                          21530000RJ505470000306031333580297-3    29122014014RIO DE JANEIRO      0302201500000000000083160CC                                                                                                                                                                                                                                                                                                                                                                                           342411-104    000106
1036421020394COBR_CAUC_BIC  LAGROTTA AZZURRA IND COM CONF LTDA      027653799000171EIA TRANSPORTE E DISTRIBUICAO LTDA      AV. BRASIL,19001-LJ.3 TRECHO M/N        RIO DE JANEIRO                          21530000RJ505470000406031341580297-2    29122014014RIO DE JANEIRO      2701201500000000000083160CC                                                                                                                                                                                                                                                                                                                                                                                           342411-105    000107
1036421020394COBR_CAUC_BIC  LAGROTTA AZZURRA IND COM CONF LTDA      012059278000113HABIATAR COMERCIO E SERVICOS DE MA      AV. SAO PAULO,1329                      MOGI DAS CRUZES                         08790150SP505480000106029916580377-2    11122014007PAULISTA            3001201500000000000178967CC                                                                                                                                                                                                                                                                                                                                                                                           342411-106    000108
1036421020394COBR_CAUC_BIC  LAGROTTA AZZURRA IND COM CONF LTDA      012059278000113HABIATAR COMERCIO E SERVICOS DE MA      AV. SAO PAULO,1329                      MOGI DAS CRUZES                         08790150SP505480000206029924580377-3    11122014007PAULISTA            2801201500000000000178967CC                                                                                                                                                                                                                                                                                                                                                                                           342411-107    000109
1036421020394COBR_CAUC_BIC  LAGROTTA AZZURRA IND COM CONF LTDA      008377205000100ARMARINHO FACIL LTDA                    RUA PROF.VIRGINIO DE CAMPOS,268         MACEIO                                  57055710AL505490000106029592580161-2    08122014017MACEIO              2601201500000000000181500CC                                                                                                                                                                                                                                                                                                                                                                                           342411-108    000110
1036421020394COBR_CAUC_BIC  LAGROTTA AZZURRA IND COM CONF LTDA      008377205000100ARMARINHO FACIL LTDA                    RUA PROF.VIRGINIO DE CAMPOS,268         MACEIO                                  57055710AL505490000206029606580161-3    08122014017MACEIO              0202201500000000000181500CC                                                                                                                                                                                                                                                                                                                                                                                           342411-109    000111
1036421020394COBR_CAUC_BIC  LAGROTTA AZZURRA IND COM CONF LTDA      013887818000110BGVR COM.PRODS.PLASTICOS E MERC.EM      RUA DR.QUIRINO,1875                     CAMPINAS                                13015082SP505500000106029622580273-2    08122014021CAMPINAS            0302201500000000000181800CC                                                                                                                                                                                                                                                                                                                                                                                           342411-110    000112
1036421020394COBR_CAUC_BIC  LAGROTTA AZZURRA IND COM CONF LTDA      013887818000110BGVR COM.PRODS.PLASTICOS E MERC.EM      RUA DR.QUIRINO,1875                     CAMPINAS                                13015082SP505500000206029631580273-1    08122014021CAMPINAS            2401201500000000000181800CC                                                                                                                                                                                                                                                                                                                                                                                           342411-111    000113
1036421020394COBR_CAUC_BIC  LAGROTTA AZZURRA IND COM CONF LTDA      004806276000112FUTURA COMERCIAL DISTRIBUIDORA LTD      RUA GERINO SO,1695-COND.E.LIT.NORT      LAURO D FREITAS                         42700000BA505510000106028421580087-2    02122014013SALVADOR            2201201500000000000137500CC                                                                                                                                                                                                                                                                                                                                                                                           342411-112    000114
1036421020394COBR_CAUC_BIC  LAGROTTA AZZURRA IND COM CONF LTDA      004806276000112FUTURA COMERCIAL DISTRIBUIDORA LTD      RUA GERINO SO,1695-COND.E.LIT.NORT      LAURO D FREITAS                         42700000BA5055100002060284305800873     02122014013SALVADOR            2901201500000000000137500CC                                                                                                                                                                                                                                                                                                                                                                                           342411-113    000115
1036421020394COBR_CAUC_BIC  LAGROTTA AZZURRA IND COM CONF LTDA      004806276000112FUTURA COMERCIAL DISTRIBUIDORA LTD      RUA GERINO SO,1695-COND.E.LIT.NORT      LAURO D FREITAS                         42700000BA505510000306028448580087-4    02122014013SALVADOR            0502201500000000000137500CC                                                                                                                                                                                                                                                                                                                                                                                           342411-114    000116
1036421020394COBR_CAUC_BIC  LAGROTTA AZZURRA IND COM CONF LTDA      012283646000102QUALIPLASTIC COMERCIO DE EMBALAGEN      RUA SOJA,75                             RIO DE JANEIRO                          21011000RJ505520000106028987580104-2    02122014014RIO DE JANEIRO      2201201500000000000105000CC                                                                                                                                                                                                                                                                                                                                                                                           342411-115    000117
1036421020394COBR_CAUC_BIC  LAGROTTA AZZURRA IND COM CONF LTDA      012283646000102QUALIPLASTIC COMERCIO DE EMBALAGEN      RUA SOJA,75                             RIO DE JANEIRO                          21011000RJ505520000206028995580104-3    02122014014RIO DE JANEIRO      2901201500000000000105000CC                                                                                                                                                                                                                                                                                                                                                                                           342411-116    000118
1036421020394COBR_CAUC_BIC  LAGROTTA AZZURRA IND COM CONF LTDA      012283646000102QUALIPLASTIC COMERCIO DE EMBALAGEN      RUA SOJA,75                             RIO DE JANEIRO                          21011000RJ505520000306029002580104-4    02122014014RIO DE JANEIRO      0502201500000000000105000CC                                                                                                                                                                                                                                                                                                                                                                                           342411-117    000119
1036421020394COBR_CAUC_BIC  LAGROTTA AZZURRA IND COM CONF LTDA      012283646000102QUALIPLASTIC COMERCIO DE EMBALAGEN      RUA SOJA,75                             RIO DE JANEIRO                          21011000RJ505520000406029011580104-5    02122014014RIO DE JANEIRO      1202201500000000000105000CC                                                                                                                                                                                                                                                                                                                                                                                           342411-118    000120
1036421020394COBR_CAUC_BIC  LAGROTTA AZZURRA IND COM CONF LTDA      003648918000130A. R. VARIEDADES LTDA-ME                AV. GUAXENDUBA,144                      SAO LUIS                                65015560MA505530000106028057580128-2    02122014042SAO LUIS            2401201500000000000215072CC                                                                                                                                                                                                                                                                                                                                                                                           342411-119    000121
1036421020394COBR_CAUC_BIC  LAGROTTA AZZURRA IND COM CONF LTDA      003648918000130A. R. VARIEDADES LTDA-ME                AV. GUAXENDUBA,144                      SAO LUIS                                65015560MA505530000206028065580128-3    02122014042SAO LUIS            0302201500000000000215072CC                                                                                                                                                                                                                                                                                                                                                                                           342411-120    000122
1036421020394COBR_CAUC_BIC  LAGROTTA AZZURRA IND COM CONF LTDA      007686940000125COMERCIAL SAN MARIANA LTDA ME           RUA GENERAL CAMISAO,283-TERREO          CUIABA                                  78015130MT505540000106031261580594-2    29122014024CUIABA              0302201500000000000077340CC                                                                                                                                                                                                                                                                                                                                                                                           342411-121    000123
1036421020394COBR_CAUC_BIC  LAGROTTA AZZURRA IND COM CONF LTDA      007686940000125COMERCIAL SAN MARIANA LTDA ME           RUA GENERAL CAMISAO,283-TERREO          CUIABA                                  78015130MT505540000206031279580594-1    29122014024CUIABA              2701201500000000000077340CC                                                                                                                                                                                                                                                                                                                                                                                           342411-122    000124
1036421020394COBR_CAUC_BIC  LAGROTTA AZZURRA IND COM CONF LTDA      007686940000125COMERCIAL SAN MARIANA LTDA ME           RUA GENERAL CAMISAO,283-TERREO          CUIABA                                  78015130MT505540000306031287580487-1    29122014024CUIABA              2701201500000000000290420CC                                                                                                                                                                                                                                                                                                                                                                                           342411-123    000125
1036421020394COBR_CAUC_BIC  LAGROTTA AZZURRA IND COM CONF LTDA      004877474000177DOMINGOS ANTONIO MORAIS FERREIRA C      EST DO CAMPO LIMPO,4436                 SAO PAULIO                              05787000SP505550000106028243580097-4    02122014007PAULISTA            0502201500000000000148724CC                                                                                                                                                                                                                                                                                                                                                                                           342411-124    000126
1036421020394COBR_CAUC_BIC  LAGROTTA AZZURRA IND COM CONF LTDA      004877474000177DOMINGOS ANTONIO MORAIS FERREIRA C      EST DO CAMPO LIMPO,4436                 SAO PAULIO                              05787000SP505550000206028251580097-3    02122014007PAULISTA            2901201500000000000148724CC                                                                                                                                                                                                                                                                                                                                                                                           342411-125    000127
1036421020394COBR_CAUC_BIC  LAGROTTA AZZURRA IND COM CONF LTDA      004877474000177DOMINGOS ANTONIO MORAIS FERREIRA C      EST DO CAMPO LIMPO,4436                 SAO PAULIO                              05787000SP505550000306028260580097-2    02122014007PAULISTA            2201201500000000000148724CC                                                                                                                                                                                                                                                                                                                                                                                           342411-126    000128
1036421020394COBR_CAUC_BIC  LAGROTTA AZZURRA IND COM CONF LTDA      010509801000130EMBALIMP COM.DE LIMPEZA E DESCARTA      RUA VALDIR ROBERTO DE CAMARGO,639       INDAIATUBA                              13347030SP505560000106029983580387-1    11122014021CAMPINAS            3101201500000000000268456CC                                                                                                                                                                                                                                                                                                                                                                                           342411-127    000129
1036421020394COBR_CAUC_BIC  LAGROTTA AZZURRA IND COM CONF LTDA      010509801000130EMBALIMP COM.DE LIMPEZA E DESCARTA      RUA VALDIR ROBERTO DE CAMARGO,639       INDAIATUBA                              13347030SP505560000206030841580572-1    19122014021CAMPINAS            0602201500000000000201500CC                                                                                                                                                                                                                                                                                                                                                                                           342411-128    000130
1036421020394COBR_CAUC_BIC  LAGROTTA AZZURRA IND COM CONF LTDA      057076556000189COBEQUI COM.DE BORRACHAS E EQUIPTO      RUA DUQUE DE CAXIAS,63                  BARUERI                                 06401010SP505570000106030361580524-1    18122014007PAULISTA            2701201500000000000086734CC                                                                                                                                                                                                                                                                                                                                                                                           342411-129    000131
1036421020394COBR_CAUC_BIC  LAGROTTA AZZURRA IND COM CONF LTDA      057076556000189COBEQUI COM.DE BORRACHAS E EQUIPTO      RUA DUQUE DE CAXIAS,63                  BARUERI                                 06401010SP505570000206030370580524-3    18122014007PAULISTA            1002201500000000000086733CC                                                                                                                                                                                                                                                                                                                                                                                           342411-130    000132
1036421020394COBR_CAUC_BIC  LAGROTTA AZZURRA IND COM CONF LTDA      057076556000189COBEQUI COM.DE BORRACHAS E EQUIPTO      RUA DUQUE DE CAXIAS,63                  BARUERI                                 06401010SP505570000306030388580524-2    18122014007PAULISTA            0302201500000000000086733CC                                                                                                                                                                                                                                                                                                                                                                                           342411-131    000133
1036421020394COBR_CAUC_BIC  LAGROTTA AZZURRA IND COM CONF LTDA      057076556000189COBEQUI COM.DE BORRACHAS E EQUIPTO      RUA DUQUE DE CAXIAS,63                  BARUERI                                 06401010SP505570000406031236580115-1    29122014007PAULISTA            2201201500000000000079334CC                                                                                                                                                                                                                                                                                                                                                                                           342411-132    000134
1036421020394COBR_CAUC_BIC  LAGROTTA AZZURRA IND COM CONF LTDA      057076556000189COBEQUI COM.DE BORRACHAS E EQUIPTO      RUA DUQUE DE CAXIAS,63                  BARUERI                                 06401010SP505570000506031244580115-2    29122014007PAULISTA            2901201500000000000079333CC                                                                                                                                                                                                                                                                                                                                                                                           342411-133    000135
1036421020394COBR_CAUC_BIC  LAGROTTA AZZURRA IND COM CONF LTDA      057076556000189COBEQUI COM.DE BORRACHAS E EQUIPTO      RUA DUQUE DE CAXIAS,63                  BARUERI                                 06401010SP505570000606031252580115-3    29122014007PAULISTA            0502201500000000000079333CC                                                                                                                                                                                                                                                                                                                                                                                           342411-134    000136
1036421020394COBR_CAUC_COR  LAGROTTA AZZURRA IND COM CONF LTDA      034693747000194N F MATOS COMERCIAL                     RUA CEL.ALEXANDRINO,594                 RIO BRANCO                              69909730AC505580000106029070580085-4    02122014600HSBC BANK BRASIL    1202201500000000000133763CC                                                                                                                                                                                                                                                                                                                                                                                           342411-135    000137
1036421020394COBR_CAUC_COR  LAGROTTA AZZURRA IND COM CONF LTDA      034693747000194N F MATOS COMERCIAL                     RUA CEL.ALEXANDRINO,594                 RIO BRANCO                              69909730AC505580000206029142580085-1    02122014600HSBC BANK BRASIL    2201201500000000000133761CC                                                                                                                                                                                                                                                                                                                                                                                           342411-136    000138
1036421020394COBR_CAUC_COR  LAGROTTA AZZURRA IND COM CONF LTDA      034693747000194N F MATOS COMERCIAL                     RUA CEL.ALEXANDRINO,594                 RIO BRANCO                              69909730AC505580000306029151580085-2    02122014600HSBC BANK BRASIL    2901201500000000000133763CC                                                                                                                                                                                                                                                                                                                                                                                           342411-137    000139
1036421020394COBR_CAUC_COR  LAGROTTA AZZURRA IND COM CONF LTDA      034693747000194N F MATOS COMERCIAL                     RUA CEL.ALEXANDRINO,594                 RIO BRANCO                              69909730AC505580000406029169580085-3    02122014600HSBC BANK BRASIL    0502201500000000000133763CC                                                                                                                                                                                                                                                                                                                                                                                           342411-138    000140
1036421020394COBR_CAUC_BIC  LAGROTTA AZZURRA IND COM CONF LTDA      010349885000273OCEAN PRODS.HOSPITALARES LTDA           RUA CONS.CANDIDO DE OLIVEIRA ,130       SAO PAULO                               05093010SP505590000106028758580187-4    02122014007PAULISTA            0302201500000000000148750CC                                                                                                                                                                                                                                                                                                                                                                                           342411-139    000141
1036421020394COBR_CAUC_BIC  LAGROTTA AZZURRA IND COM CONF LTDA      010349885000273OCEAN PRODS.HOSPITALARES LTDA           RUA CONS.CANDIDO DE OLIVEIRA ,130       SAO PAULO                               05093010SP505590000206028766580187-3    02122014007PAULISTA            2401201500000000000148750CC                                                                                                                                                                                                                                                                                                                                                                                           342411-140    000142
