0REMESSANOTIFICAÇÃO ELETRONICA        99999999999999Bicbanco S/A                            Avenida Paulista                        1048      12º andar BELA VISTA                    SÃO PAULO                     01310100SPBicbanco S/A                                                                    17022011                                                                                                                                                                                                                                                                                                                                                                                                000001
1019421004658COBR_CAUC_COR  S/A ESTADO DE MINAS                     017184037000110BANCO MERCANTIL DO BRASIL S A           R RIO DE JANEIRO 654                    BELO HORIZONTE                          30160912MG26334000010106277474562-1     15022011900BRADESCO S/A        0203201100000000022165229CC                                                                                                                                                                                                                                                                                                                                                                                           122818-1      000002
1021420930887COBR_CAUC_BIC  DEDINI S/A INDUSTRIAS DE BASE           009325874000193COMPANHIA BRASILEIRA DE BEBIDAS PR      AV. ENGº DOMINGOS FERREIRA, BOA VIAGEM  RECIFE                                  51020031PE26335000010611917190745-2-3-  10022011010RECIFE              0103201100000000012995969CC                                                                                                                                                                                                                                                                                                                                                                                           122818-2      000003
1021420930887COBR_CAUC_BIC  DEDINI S/A INDUSTRIAS DE BASE           009325874000193COMPANHIA BRASILEIRA DE BEBIDAS PR      AV. ENGº DOMINGOS FERREIRA, BOA VIAGEM  RECIFE                                  51020031PE26335000020611918990745-3-3   10022011010RECIFE              0103201100000000026713940CC                                                                                                                                                                                                                                                                                                                                                                                           122818-3      000004
1007420931444COBR_CAUC_BIC  PLASINCO LTDA                           062134150000145COPPER 100 INDUSTRIA E COM. LTDA.       R. SANTANA DE IPANEMA,692               GUARULHOS                               07220010SP26336000010038574210500-A     11022011037GUARULHOS           1803201100000000011336820CC                                                                                                                                                                                                                                                                                                                                                                                           122818-4      000005
1007420931444COBR_CAUC_BIC  PLASINCO LTDA                           062134150000145COPPER 100 INDUSTRIA E COM. LTDA.       R. SANTANA DE IPANEMA,692               GUARULHOS                               07220010SP26336000020038575110499-A     11022011037GUARULHOS           1503201100000000011312790CC                                                                                                                                                                                                                                                                                                                                                                                           122818-5      000006
1007420931444COBR_CAUC_BIC  PLASINCO LTDA                           062134150000145COPPER 100 INDUSTRIA E COM. LTDA.       R. SANTANA DE IPANEMA,692               GUARULHOS                               07220010SP26336000030038576910486-A     11022011037GUARULHOS           0803201100000000011392000CC                                                                                                                                                                                                                                                                                                                                                                                           122818-6      000007
1007420931444COBR_CAUC_BIC  PLASINCO LTDA                           067635003000172CONDLIGHT IND. E COM. COND. ELETR.      RUA BAQUIA,54                           SAO PAULO                               03443000SP26337000010038585810518-A     14022011007PAULISTA            1403201100000000023267500CC                                                                                                                                                                                                                                                                                                                                                                                           122818-7      000008
1014421016636COBR_CAUC_BIC  BELNORTE PRODUTOS DE BELEZA LTDA        025769266000124ARCOM S/A                               ROD ANEL VIARIO AYRTON SENNA 2001,2001  UBERLANDIA                              38414512MG2633800001043716180004428     02022011028UBERLANDIA          2103201100000000013362300CC                                                                                                                                                                                                                                                                                                                                                                                           122818-8      000009
1048141000168COBR_CAUC_BIC  BALDIN BIOENERGIA S/A                   001062529000100DULCINI S.A.                            ESTRADA SITIO TABOAO S/N                PIRASSUNUNGA                            13631301SP26339000010029218312189/01    07022011021CAMPINAS            1204201100000000025000000TD                                                                                                                                                                                                                                                                                                                                                                                           122818-9      000010
1048141000168COBR_CAUC_BIC  BALDIN BIOENERGIA S/A                   001062529000100DULCINI S.A.                            ESTRADA SITIO TABOAO S/N                PIRASSUNUNGA                            13631301SP26339000020029219112189/02    07022011021CAMPINAS            1304201100000000025000000TD                                                                                                                                                                                                                                                                                                                                                                                           122818-10     000011
1048141000168COBR_CAUC_BIC  BALDIN BIOENERGIA S/A                   001062529000100DULCINI S.A.                            ESTRADA SITIO TABOAO S/N                PIRASSUNUNGA                            13631301SP26339000030029220512189/03    07022011021CAMPINAS            1404201100000000025000000TD                                                                                                                                                                                                                                                                                                                                                                                           122818-11     000012
1048141000168COBR_CAUC_BIC  BALDIN BIOENERGIA S/A                   001062529000100DULCINI S.A.                            ESTRADA SITIO TABOAO S/N                PIRASSUNUNGA                            13631301SP26339000040029221312189/04    07022011021CAMPINAS            1504201100000000025000000TD                                                                                                                                                                                                                                                                                                                                                                                           122818-12     000013
9000012                                                                                                                                                                                                                                                                                                                                                                                                                                                                                                                                                                                                                                                                                                               000014
