0REMESSANOTIFICAÇÃO ELETRONICA        99999999999999Bicbanco S/A                            Avenida Paulista                        1048      12º andar BELA VISTA                    SÃO PAULO                     01310100SPBicbanco S/A                                                                    14042011                                                                                                                                                                                                                                                                                                                                                                                                000001
1029420933644COBR_CAUC_COR  DHB COMPONENTES AUTOMOTIVOS S/A         002162259000407MWM INTERNATIONAL MOTORES               AV GUILHERME SCHELL- PREDIO 1016        CANOAS                                  92420000RS2720700001094441550008092201  12042011900BRADESCO S/A        1205201100000000011801166CC                                                                                                                                                                                                                                                                                                                                                                                           127942-1      000002
1014420939021COBR_CAUC_BIC  EDITORA O DIA S/A                       033747288000111FEDER.EMPR.TRANSP.RODOV.LESTE M.BR      RUA DA ASSEMBLEIA 10 39 A/C. SR.ED      RIO DE JANEIRO                          20119900RJ2720800001023289950587738     07042011014RIO DE JANEIRO      1505201100000000013969420CC                                                                                                                                                                                                                                                                                                                                                                                           127942-2      000003
1016421000833COBR_CAUC_BIC  SPERAFICO AGROINDUSTRIAL LTDA           084874726000658KAEFER AGRO INDUSTRIAL LTDA             RODOVIA BR 467 KM 03                    CASCAVEL                                85802970PR2720900001030604610003284-1   07042011016CURITIBA            1005201100000000017400000CC                                                                                                                                                                                                                                                                                                                                                                                           127942-3      000004
1031421004908DIR_CREDIT     PASCO TRANSPORTES LTDA                  081264897000243IVAICANA AGROPECUARIA LTDA              ROD BR 153 KM 247,3 MARGEM DIR RIO GRANDFRONTEIRA                               38230000MG2723400001                                                                                                                                          010161430           010420080000005832CPLE372/200804062008000403LOCACAO DE EQUIPAMENTOS AGRÍCOLAS.                                                                                                                                                                                                              007645167000159127942-4      000005
9000004                                                                                                                                                                                                                                                                                                                                                                                                                                                                                                                                                                                                                                                                                                               000006
