0REMESSANOTIFICAÇÃO ELETRONICA        99999999999999Bicbanco S/A                            Avenida Paulista                        1048      12º andar BELA VISTA                    SÃO PAULO                     01310100SPBicbanco S/A                                                                    13092010                                                                                                                                                                                                                                                                                                                                                                                                000001
1021420930887COBR_CAUC_BIC  DEDINI S/A INDUSTRIAS DE BASE           075717355000529USINA DE ACUCAR SANTA TEREZINHA LT      AV MARCELO MESSIAS BUSIQUIA PQ INDUSTRIAMARINGA                                 87065006PR240690000105899652122383-5-5  20082010016CURITIBA            2012201000000000015816257CC                                                                                                                                                                                                                                                                                                                                                                                           110963-1      000002
1021420930887COBR_CAUC_BIC  DEDINI S/A INDUSTRIAS DE BASE           075717355000529USINA DE ACUCAR SANTA TEREZINHA LT      AV MARCELO MESSIAS BUSIQUIA PQ INDUSTRIAMARINGA                                 87065006PR240690000205899661122127-5-5  20082010016CURITIBA            2012201000000000028829012CC                                                                                                                                                                                                                                                                                                                                                                                           110963-2      000003
1021420930887COBR_CAUC_BIC  DEDINI S/A INDUSTRIAS DE BASE           075717355000529USINA DE ACUCAR SANTA TEREZINHA LT      AV MARCELO MESSIAS BUSIQUIA PQ INDUSTRIAMARINGA                                 87065006PR240690000305899679123670-5-5  20082010016CURITIBA            2012201000000000016895423CC                                                                                                                                                                                                                                                                                                                                                                                           110963-3      000004
1022421004755COBR_CAUC_COR  FRIGOL S.A.                             010142068000169FRIGOMIX INDUSTRIA E COM DE CARNES      RUA AYRTON SENNA DA SILVA, 820          ITAGUAI                                 23810760RJ2407000001000235144302        09092010900BRADESCO S/A        1609201000000000014720291CC                                                                                                                                                                                                                                                                                                                                                                                           110963-4      000005
1013141007379COBR_CAUC_COR  ISOREL LOCACAO E SERVICOS LTDA          000860705000189PRODUMAN ENGENHARIA LTDA                1 TV DO BALNEARIO,402 IMBASSAY          DIAS D´AVILA                            42850000BA24071000010400575901811       01092010900BRADESCO S/A        0110201000000000017841458TD                                                                                                                                                                                                                                                                                                                                                                                           110963-5      000006
1046421003772COBR_CAUC_BIC  INDUSTRIAL PAGE LTDA                    090347840000118THYSSENKRUPP ELEVADORES S.A.            RUA SANTA MARIA, 1000                   GUAIBA                                  92500000RS2410300001008087111054/01     03092010015PORTO ALEGRE        2609201000000000002206794CC                                                                                                                                                                                                                                                                                                                                                                                           110963-6      000007
1046421003772COBR_CAUC_BIC  INDUSTRIAL PAGE LTDA                    090347840000118THYSSENKRUPP ELEVADORES S.A.            RUA SANTA MARIA, 1000                   GUAIBA                                  92500000RS2410300002008087451180/01     03092010015PORTO ALEGRE        0210201000000000002623638CC                                                                                                                                                                                                                                                                                                                                                                                           110963-7      000008
9000007                                                                                                                                                                                                                                                                                                                                                                                                                                                                                                                                                                                                                                                                                                               000009
