0REMESSANOTIFICAÇÃO ELETRONICA        99999999999999Bicbanco S/A                            Avenida Paulista , 1048 12º andar                           BELA VISTA                    SÃO PAULO                     01310100SPBicbanco S/A                                                                    16042010                                                                                                                                                                                                                                                                                                                                                                                                000001
1021420930887COBR_CAUC_COR  DEDINI S/A INDUSTRIAS DE BASE           047524632000118USINA SANTA ISABEL LTDA                 FAZENDA TRES PONTES TRES PONTES BR      NOVO HORIZONTE                          14960000SP21536000010576875274478-1-3-  28012008900BRADESCO S/A        3108201000000000034052700CC                                                                                                                                                                                                                                                                                                                                                                                           93517-1       000002
1022421003945COBR_CAUC_BIC  COOP.CAFEIC. E CITRIC.DE SAO PAULO      008104691000185JF CITRUS AGROPECUARIA LTDA.            RUA CEL.CANDIDO PROCOPIO DE OLIVEI      BEBEDOURO                               14711114SP215370000103810932002401475   08042010022RIBEIRAO PRETO      1003201100000000016045000CC                                                                                                                                                                                                                                                                                                                                                                                           93517-2       000003
1015420933854COBR_CAUC_BIC  MUNDIAL S/A PRODUTOS DE CONSUMO         050306471000109ETILUX INDUSTRIA E COMERCIO LTDA        RUA AMADEU POLI, 940 940                SAO PAULO                               02188020SP2153800001006559241506529703  06042010007PAULISTA            0608201000000000010605392CC                                                                                                                                                                                                                                                                                                                                                                                           93517-3       000004
1037420933912COBR_CAUC_COR  COPPER 100 IND. COM. LTDA               021581509000145ELSTER MEDICAO DE AGUA S/A              AV LINCOLN ALVES DO SANTOS,944          BELO HORIZONTE                          39404005MG2153900001043717763245/1      26032010900BRADESCO S/A        2006201000000000017500000CC                                                                                                                                                                                                                                                                                                                                                                                           93517-4       000005
1022421002370COBR_CAUC_COR  FRIGOESTRELA S.A.                       000281228000440N & N COMERCIO DE ALIMENTOS LTDA        ROD. REGIS BITTENCOURTS/NKM 294 SA      ITAPECERICA DA                          06882700SP2154000001022601650031105201  08042010900BRADESCO S/A        1105201000000000011190022CC                                                                                                                                                                                                                                                                                                                                                                                           93517-5       000006
1003421013987COBR_CAUC_COR  SCIENTIFIC COM E IMPORTACAO LTDA        008546929000122CARESTREAM DO BRASIL COM.SERV.P.ME      AV.DR.MARCOS PENTEADO,401-PARTE 17      BARUERI                                 06460040SP215410000100002745167         23032010900BRADESCO S/A        2205201000000000012901960CC                                                                                                                                                                                                                                                                                                                                                                                           93517-6       000007
1007421009131COBR_CAUC_BIC  KASINSKI FABRICADORA DE VEIC LTDA       010548031000305MOTOSHOW COMERCIO DE MOTOS LTD          AV HEITOR DIAS 293                      SALVADOR                                40313042BA215420000109797156F01004761   08042010013SALVADOR            3105201000000000010858027CC                                                                                                                                                                                                                                                                                                                                                                                           93517-7       000008
1042141000037COBR_CAUC_BIC  COBRACO SERVICOS E MONTAGENS LTDA       008675637000190CEMEC CONS ENG ELET E MONT LTDA         RUA 1 QD A LT 1 KM 08                   SAO LUIS                                65099110MA21543000010117606701/10       07042010042SAO LUIS            0408201000000000037700000TD                                                                                                                                                                                                                                                                                                                                                                                           93517-8       000009
1042141004776COBR_CAUC_BIC  PIRIPIRI CONSTRUCOES LTDA               005504696000107CBM CONST E COM LTDA                    R DAS PATATIVAS N 1 QD 03               SAO LUIS                                65077220MA2154400001011760752151/2010   08042010042SAO LUIS            1005201000000000014500000TD                                                                                                                                                                                                                                                                                                                                                                                           93517-9       000010
1016421012963DIR_CREDIT     A.C. COMERCIAL IMPORT E EXPORT LTDA     076189406000126CONDOR SUPER CENTER LTDA                R DEPUTADO PINHEIRO JUNIOR              CURITIBA                                81930000PR2156900001                                                                                                                                          010923811           22122006000001114701151       08042010000403fornecimento de gêneros alimentícios                                                                                                                                                                                                            07226278500018193517-10      000011
1021420930887COBR_CAUC_COR  DEDINI S/A INDUSTRIAS DE BASE           002859452000230VALE DO VERDAO S A ACUCAR E ALCOOL      LOC FAZENDA BAESSA ZONA RURAL BR        TURVELANDIA                             75970000GO215770000105769015107329-7-7  29122009900BRADESCO S/A        2405201000000000013910104CC                                                                                                                                                                                                                                                                                                                                                                                           93785-1       000012
1022421002370COBR_CAUC_COR  FRIGOESTRELA S.A.                       003508278000162SZR EMPRES.INDL.EXP.SUBPROD.BOVINO      RUA SALDANHA MARINHO - SL.252815SA      SAO JOSE DO RIO                         15010100SP2157800001022842850031224101  09042010900BRADESCO S/A        1905201000000000010602059CC                                                                                                                                                                                                                                                                                                                                                                                           93785-2       000013
1022141001217COBR_CAUC_BIC  BALDIN BIOENERGIA S/A                   001062529000100DULCINI S/A                             ESTR SITIO TABOAO S/N Z RURAL           PIRASSUNUNGA                            13631301SP2157900001038132316811/04     30032010021CAMPINAS            1106201000000000025000000TD                                                                                                                                                                                                                                                                                                                                                                                           93785-3       000014
1022141001217COBR_CAUC_BIC  BALDIN BIOENERGIA S/A                   001062529000100DULCINI S/A                             ESTR SITIO TABOAO S/N Z RURAL           PIRASSUNUNGA                            13631301SP2157900002038132496811/05     30032010021CAMPINAS            1406201000000000025000000TD                                                                                                                                                                                                                                                                                                                                                                                           93785-4       000015
1022141001217COBR_CAUC_BIC  BALDIN BIOENERGIA S/A                   001062529000100DULCINI S/A                             ESTR SITIO TABOAO S/N Z RURAL           PIRASSUNUNGA                            13631301SP2157900003038132576811/06     30032010021CAMPINAS            1506201000000000025000000TD                                                                                                                                                                                                                                                                                                                                                                                           93785-5       000016
1022141001217COBR_CAUC_BIC  BALDIN BIOENERGIA S/A                   001062529000100DULCINI S/A                             ESTR SITIO TABOAO S/N Z RURAL           PIRASSUNUNGA                            13631301SP2157900004038132656811/07     30032010021CAMPINAS            1606201000000000025000000TD                                                                                                                                                                                                                                                                                                                                                                                           93785-6       000017
1022421002370COBR_CAUC_COR  FRIGOESTRELA S.A.                       000281228000440N & N COMERCIO DE ALIMENTOS LTDA        ROD. REGIS BITTENCOURTS/NKM 294 SA      ITAPECERICA DA                          06882700SP2158000001022953760031263301  12042010900BRADESCO S/A        1405201000000000013393013CC                                                                                                                                                                                                                                                                                                                                                                                           94046-1       000018
1037421003994COBR_CAUC_COR  DOX COM. DE VALVULAS CONEXOES INSTR     009608547000220AGT COM VAREGISTA DE EQUIP E MAT C      RODOVIA BA 523. KM04                    CANDEIAS                                43970970BA215810000104373451001786      25032010900BRADESCO S/A        3004201000000000017113980CC                                                                                                                                                                                                                                                                                                                                                                                           94046-2       000019
9000018                                                                                                                                                                                                                                                                                                                                                                                                                                                                                                                                                                                                                                                                                                               000020
