0REMESSANOTIFICAÇÃO ELETRONICA        99999999999999Bicbanco S/A                            Avenida Brigadeiro Faria Lima           4.440     2º andar  Itaim Bibi                    São Paulo                     04538132SPBicbanco S/A                                                                    27032014                                                                                                                                                                                                                                                                                                                                                                                                000001
1008421029015DIR_CREDIT     G B S ENGENHARIA LTDA                   033541368000116COMP HIDRO ELET DO S. FRANCISCO - CHESF RUA DELMIRO GOUVEIA,333 SAN MARTIN      RECIFE                                  50761901CE4679800001                                                                                                                                          012436869           301120120000023416CTNI-922012014032014000404Execução dos serviços de obras civis e montagam eletromecânica com aplicação de materiais relativos à construção da Subestação Teixeira de Freitas230/138 KV.                                                                                   035554591000204292053-1      000002
1007420933005DIR_CREDIT     COMPANHIA BRAS DE ACUCAR E ALCOOL       005242560000176USINA VERTENTE LTDA                     ROD. ASSIS CHATEAUBRIAND,SN KM 155      OLIMPIA                                 15400000SP4681600001                                                                                                                                          012528230           20102011000001998221/10       12032014003901fornecimento de cana em pé.                                                                                                                                                                                                                     002995097000145292053-2      000003
1046421006070DIR_CREDIT     METALURGICA DS LTDA                     060857349000176TRW AUTOMOTIVE LTDA                     VIA ANHANGUERA KM 147                   LIMEIRA                                 13486915SP4682900001                                                                                                                                          012530228           260320070000018698            17032014017002fornecimento de discos e tambores de freio para automoveis                                                                                                                                                                                      079414868000198292053-3      000004
1016000000000DIR_CREDIT     KONRAD CURITIBA COM DE CAMINHOES LT     060746948000112BANCO BRADESCO S/A                      RUA CIDADE DE DEUS SN                   OSASCO                                  90000000SP4683100001                                                                                                                                          012530400           310120140000025611PACS DIVERSO17032014000404PACS DIVERSOS PROVENEINTE DO BANCO BRADESCO                                                                                                                                                                                                     008482610000180292053-4      000005
1023421008678DIR_CREDIT     AUTO VIACAO A.B.C LTDA                  007096200000139CMT-CONSÓRCIO METROPOLITANO DE TRANSPORTAVENIDA REBOUÇAS Nº1368 JARDIM PAULISTA SÃO PAULO                               05402100SP4684200001                                                                                                                                          012530686           020320090000024370            18032014000403VENDA DE PASSAGENS E RESPECTIVOS BILHETES E TODAS AS DEMAIS OPERAÇÕESCOMPREENDIDAS NO "SISTEMA" DA CMT, DESTACANDO A MARCA "BOM-BILHETE ÔNIBUS METROPOLITANO",CADASTOS E OUTROS ATIVOS, MATERIAIS E IMATERIAIS NA OPERAÇÃO.                     059153569000130292053-5      000006
1021421016003DIR_CREDIT     USINA ACUCAREIRA ESTER S/A              058551326000197INDUSTRIA DE BEBIDAS PIRASSUNUNGA LTDA  RODOVIA ANHANGUERA, KM 210              PIRASSUNUNGA                            13630000SP4684400001                                                                                                                                          012514360           010220140000025534001/2014    18032014017002compra e venda de destilado alcoólico simples de cana.                                                                                                                                                                                          060892098000160292053-6      000007
1008421029015DIR_CREDIT     G B S ENGENHARIA LTDA                   033541368000116COMP HIDRO ELET DO S. FRANCISCO - CHESF RUA DELMIRO GOUVEIA,333 SAN MARTIN      RECIFE                                  50761901CE4684700001                                                                                                                                          012380383           301120120000023416CTNI-922012014032014000403Execução dos serviços de obras civis e montagam eletromecânica com aplicação de materiais relativos à construção da Subestação Teixeira de Freitas230/138 KV.                                                                                   035554591000204292053-7      000008
1008421029015DIR_CREDIT     G B S ENGENHARIA LTDA                   033541368000116COMP HIDRO ELET DO S. FRANCISCO - CHESF RUA DELMIRO GOUVEIA,333 SAN MARTIN      RECIFE                                  50761901CE4684800001                                                                                                                                          012380510           301120120000023416CTNI-922012014032014000403Execução dos serviços de obras civis e montagam eletromecânica com aplicação de materiais relativos à construção da Subestação Teixeira de Freitas230/138 KV.                                                                                   035554591000204292053-8      000009
1044421012350DIR_CREDIT     PAPI PRONTO SOCORRO                     008380701000105UNIMED NATAL                            RUA MIPIBU, 511 - PETRÓPOLIS            NATAL                                   59020250RN4686100001                                                                                                                                          012520637           260320080000005352001         19032014000404atendimento médico ambulatorial dos conveniados da UNIMED                                                                                                                                                                                       008423220000130292053-9      000010
1036421016893COBR_CAUC_COR  TECAL ALUMINIO DA AMAZONIA LTDA         004012043000148SHOWA DO BRASIL LTDA                    RUA RIO QUIXITO                         MANAUS                                  69075830AM4690200001060003140000057676  20032014900BRADESCO S/A        1904201400000000023056346CC                                                                                                                                                                                                                                                                                                                                                                                           292053-10     000011
1022421007525COBR_CAUC_COR  D. CENTER DISTRIBUIDORA LTDA            007868718000143ALESSANDRA FARIAS DE OLIVEIRA ME        R.LOURENCO DE ALMEIDA, 601              SAO PAULO                               04508000SP46903000010151500374869905    20032014900BRADESCO S/A        1905201400000000014544138CC                                                                                                                                                                                                                                                                                                                                                                                           292053-11     000012
1019421010259COBR_CAUC_BIC  L & S INTERBANK FOMENTO LTDA            004744781000341ADM COMERCIO DE ROUPASLTDA              ALAMEDASTO AMARO, 326/330               SAO PAULO                               04745001SP4690400001068491012256-5      20032014007PAULISTA            2104201400000000014648267CC                                                                                                                                                                                                                                                                                                                                                                                           292053-12     000013
1048421003043COBR_CAUC_COR  FRIGOL S.A. EM RECUPERACAO JUDICIAL     006128996000100ATIVO ALIMENTOSEXP. E IMP. LTDA         RODOVIA CASTANHAL - INHANGAPI, S/N KM 04CASTANHAL                               68745040PA46905000010007073300034273-1  21032014900BRADESCO S/A        3103201400000000020620675CC                                                                                                                                                                                                                                                                                                                                                                                           292053-13     000014
1007421072259COBR_CAUC_COR  BOMBRIL S/A                             002782071000380MEGAFORT DISTRIB IMP E EXP LTDA         AV WILSON TAVARES RIBEIR 1651, LUC1     CONTAGEM                                32183680MG4691700001027655180055811001  28022014900BRADESCO S/A        1104201400000000010009808CC                                                                                                                                                                                                                                                                                                                                                                                           292406-1      000015
1018421034834COBR_CAUC_COR  LACEL LATICINIOS CERES LTDA             001238035000126INDUSTRIA DE SORVETES E DERIVADOS       AV GOV NILO COLELHO DIST IND QD B LT 5K ABREU E LIMA                            53520810PE4691800001036499820312961     21032014700BANCO REAL- ABN AMRO1804201400000000016470000CC                                                                                                                                                                                                                                                                                                                                                                                           292406-2      000016
1018421034834COBR_CAUC_COR  LACEL LATICINIOS CERES LTDA             001238035000126INDUSTRIA DE SORVETES E DERIVADOS       AV GOV NILO COLELHO DIST IND QD B LT 5K ABREU E LIMA                            53520810PE4691800002036499910312962     21032014700BANCO REAL- ABN AMRO2504201400000000016470000CC                                                                                                                                                                                                                                                                                                                                                                                           292406-3      000017
1036421016893COBR_CAUC_COR  TECAL ALUMINIO DA AMAZONIA LTDA         004012043000148SHOWA DO BRASIL LTDA                    RUA RIO QUIXITO                         MANAUS                                  69075830AM4691900001060004110000057687  21032014900BRADESCO S/A        2004201400000000013049113CC                                                                                                                                                                                                                                                                                                                                                                                           292406-4      000018
1036421016893COBR_CAUC_COR  TECAL ALUMINIO DA AMAZONIA LTDA         004012043000148SHOWA DO BRASIL LTDA                    RUA RIO QUIXITO                         MANAUS                                  69075830AM4691900002060004200000057684  21032014900BRADESCO S/A        2004201400000000022617056CC                                                                                                                                                                                                                                                                                                                                                                                           292406-5      000019
1007421065309COBR_CAUC_BIC  OCEANO IND.GRAFICA E EDITORA LTDA       008926473000126SC DROGARIA LTDA                        AV. DR. EPITACIO PESSOA - DE 3,372      SANTOS                                  11030600SP4692000001027623731535        13032014023SANTOS              1104201400000000012910312CC                                                                                                                                                                                                                                                                                                                                                                                           292406-6      000020
1007421065309COBR_CAUC_BIC  OCEANO IND.GRAFICA E EDITORA LTDA       042179671000101DART DO BRASIL IND E COM LTDA           ESTRADA DA ILHA,870                     RIO DE JANEIRO                          23020230RJ46921000010276238159930       17032014014RIO DE JANEIRO      1504201400000000019859316CC                                                                                                                                                                                                                                                                                                                                                                                           292406-7      000021
1003141005437COBR_CAUC_COR  CAMERINO IND E COM DE MOVEIS LTDA       014318014000162CONSORCIO MARQUISE-NORMATEL             ROD MG-10 KM 09 SN                      CONFINS                                 33500900MG4692200001043738703150/03     11122013900BRADESCO S/A        2005201400000000015000000TD                                                                                                                                                                                                                                                                                                                                                                                           292406-8      000022
1046421000145COBR_CAUC_COR  KOMLOG IMPORTACAO LTDA                  061502324000546REFRIGELO CLIMATIZACAO DE AMBIENTE      AV RUI BARBOSA, 2797                    ASSIS                                   19800002SP469310000102335518060115-002  21032014700BANCO REAL- ABN AMRO2004201400000000040507250CC                                                                                                                                                                                                                                                                                                                                                                                           292408-1      000023
1046421000145COBR_CAUC_COR  KOMLOG IMPORTACAO LTDA                  061502324000546REFRIGELO CLIMATIZACAO DE AMBIENTE      AV RUI BARBOSA, 2797                    ASSIS                                   19800002SP469310000202335526060115-003  21032014700BANCO REAL- ABN AMRO2005201400000000040507250CC                                                                                                                                                                                                                                                                                                                                                                                           292408-2      000024
1007421068839COBR_CAUC_BIC  KELPEN OIL BRASIL LTDA                  008833531000177PULCRA ESPECIALIDADES QUIMICAS LTD      RODOVIAPRESIDENTE DUTRA KM 161,0        JACAREI                                 12335010SP4693200001027687112259201     25032014007PAULISTA            0605201400000000011452129CC                                                                                                                                                                                                                                                                                                                                                                                           292408-3      000025
9000024                                                                                                                                                                                                                                                                                                                                                                                                                                                                                                                                                                                                                                                                                                               000026
