0REMESSANOTIFICAÇÃO ELETRONICA        99999999999999Bicbanco S/A                            Avenida Brigadeiro Faria Lima           4.440     2º andar  Itaim Bibi                    São Paulo                     04538132SPBicbanco S/A                                                                    27062013                                                                                                                                                                                                                                                                                                                                                                                                000001
1031421007850COBR_CAUC_COR  AGRICOLA JANDELLE S/A                   038711826000131LINCON INDUSTRIA E COMERCIO LTDA        RUA JOSE MARIA DE LACERDA 2058          CONTAGEM                                32210120MG4261800001052740690012084101  17062013900BRADESCO S/A        1707201300000000014616000CC                                                                                                                                                                                                                                                                                                                                                                                           243348-1      000002
1036421020033COBR_CAUC_COR  ARFRIO S/A ARM GERAIS FRIGORIFICO       027881408002977SUPERMERCADOS VIANENSE LTDA (FILIA      AV DE ACESSO,0                          RIO DE JANEIRO                          26373270RJ426160000100000142000087      17062013900BRADESCO S/A        2506201300000000011901618CC                                                                                                                                                                                                                                                                                                                                                                                           243348-2      000003
1045421003766DIR_CREDIT     BIOGRAF S/C LTDA                        013131370000100SAO LUCAS MEDICO HOSPITALAR             AV CEL STANLEY DA SILVEIRA 33           ARACAJU                                 49015400SE4262900001                                                                                                                                          012276015           060520020000006114001         18062013000403Prestação de serviços médicos realizando exames de scan duplex, dopplervascular ultra-som vascular                                                                                                                                              001666646000175243348-3      000004
1046421007255COBR_CAUC_COR  MAESTRO DO BRASIL IND METALUR LTDA      019166917000199EMBRASIL EMPRESA BRASILEIRA DISTRI      RODOVIA BR-040,KM-517,S/N               RIBEIRAO DAS NE                         33823310MG42617000010197432129653-1/1   17062013800UNIBANCO S/A        1608201300000000012311470CC                                                                                                                                                                                                                                                                                                                                                                                           243348-4      000005
1014421008439DIR_CREDIT     TV OMEGA LTDA                           030902803000100IGREJA INTERNACIONAL DA GRACA DE DEUS   ESR DOS BANDEIRANTES, 1000              TAQUARA                                 22710112RJ4263100001                                                                                                                                          481025252           280920090000010207            18062013000404CONTRATO DE CESSAO ONEROSA DE ESPAÇO TELEVISIVO E PRESTAÇÃO DE SERVIÇOS CONEXOS                                                                                                                                                                 002131538000322243348-5      000006
1014421008439DIR_CREDIT     TV OMEGA LTDA                           030902803000100IGREJA INTERNACIONAL DA GRACA DE DEUS   EST DOS BANDEIRANTES, 1000              TAQUARA                                 22710112RJ4263400001                                                                                                                                          012278821           010420100000012859            18062013000407Cessão onerosa de espaço televisivo,ref. programação a ser veiculada e exibida por todas as emissoras da rede tv!, de segunda a sexta-feira,c/duração de 3h e 30 min,c/início às 5h e término às 8h e 30min.                                    002131538000322243348-6      000007
1014421008439DIR_CREDIT     TV OMEGA LTDA                           030902803000100IGREJA INTERNACIONAL DA GRACA DE DEUS   EST DOS BANDEIRANTES, 1000              TAQUARA                                 22710112RJ4263300001                                                                                                                                          481025252           010420100000012859            18062013000404Cessão onerosa de espaço televisivo,ref. programação a ser veiculada e exibida por todas as emissoras da rede tv!, de segunda a sexta-feira,c/duração de 3h e 30 min,c/início às 5h e término às 8h e 30min.                                    002131538000322243348-7      000008
1014421008439DIR_CREDIT     TV OMEGA LTDA                           030902803000100IGREJA INTERNACIONAL DA GRACA DE DEUS   ESR DOS BANDEIRANTES, 1000              TAQUARA                                 22710112RJ4263200001                                                                                                                                          012278821           280920090000010207            18062013000407CONTRATO DE CESSAO ONEROSA DE ESPAÇO TELEVISIVO E PRESTAÇÃO DE SERVIÇOS CONEXOS                                                                                                                                                                 002131538000322243348-8      000009
1028421002921COBR_CAUC_COR  MATABOI ALIMENTOS S/A - EM REC.JUD.     007918552000122CHARQUEADA FRISUL LTDA.                 R13 DE MAIO2720                         OURO FINO                               37570000MG4263900001003691580001495701  18062013900BRADESCO S/A        1807201300000000011797027CC                                                                                                                                                                                                                                                                                                                                                                                           243349-1      000010
1007421055095COBR_CAUC_COR  PLASTER IND COM RESINAS PLAS EIRELI     001625072000197TOPACK DO BRASIL LTDA                   AV PROJETADA,3615                       AMERICANA                               13475000SP426400000100013357034112/A    18062013900BRADESCO S/A        1008201300000000013903312CC                                                                                                                                                                                                                                                                                                                                                                                           243349-2      000011
1007421061990COBR_CAUC_COR  BRASIL MAQUINAS E EQUIP PESADOS S/A     004199896000130ARAGUAIA FLORESTAL LTDA - EPP           R ANTONIO EDU VIEIRA,157                LAGES                                   88508300SC4265700001019957062932A       13062013800UNIBANCO S/A        2507201300000000013000000CC                                                                                                                                                                                                                                                                                                                                                                                           243350-1      000012
1007421061990COBR_CAUC_COR  BRASIL MAQUINAS E EQUIP PESADOS S/A     004199896000130ARAGUAIA FLORESTAL LTDA - EPP           R ANTONIO EDU VIEIRA,157                LAGES                                   88508300SC4265700002019957142916A       12062013800UNIBANCO S/A        2507201300000000013000000CC                                                                                                                                                                                                                                                                                                                                                                                           243350-2      000013
1007421061990COBR_CAUC_COR  BRASIL MAQUINAS E EQUIP PESADOS S/A     035959352000153PEPAR TERRAPLENAGEM LTDA                RODOVIA DO SOL,0-S/N                    ANCHIETA                                29230000ES4266000001019966482889A       10062013800UNIBANCO S/A        1009201300000000013500000CC                                                                                                                                                                                                                                                                                                                                                                                           243350-3      000014
1007421061990COBR_CAUC_COR  BRASIL MAQUINAS E EQUIP PESADOS S/A     028154862000198A MADEIRA INDUSTRIA E COMERCIO          RUA JOSE ALEXANDRE BU,300-SALA 610      VITORIA                                 29050545ES4265900001019958972926B       13062013800UNIBANCO S/A        1108201300000000010500000CC                                                                                                                                                                                                                                                                                                                                                                                           243350-4      000015
1007421061990COBR_CAUC_COR  BRASIL MAQUINAS E EQUIP PESADOS S/A     028154862000198A MADEIRA INDUSTRIA E COMERCIO          RUA JOSE ALEXANDRE BU,300-SALA 610      VITORIA                                 29050545ES4265900002019959012926A       13062013800UNIBANCO S/A        1107201300000000010500000CC                                                                                                                                                                                                                                                                                                                                                                                           243350-5      000016
1007421061990COBR_CAUC_BIC  BRASIL MAQUINAS E EQUIP PESADOS S/A     012998776000121TIKA CONSTRUCOES E LOCACOES             AV ASSIS CHATEUBRIAND,2030              GOIANIA                                 74130012GO4265800001019954552544F       13052013018GOIANIA             2510201300000000019200000CC                                                                                                                                                                                                                                                                                                                                                                                           243350-6      000017
1007421061990COBR_CAUC_BIC  BRASIL MAQUINAS E EQUIP PESADOS S/A     012998776000121TIKA CONSTRUCOES E LOCACOES             AV ASSIS CHATEUBRIAND,2030              GOIANIA                                 74130012GO4265800002019954632543F       13052013018GOIANIA             2510201300000000019200000CC                                                                                                                                                                                                                                                                                                                                                                                           243350-7      000018
1046421001443COBR_CAUC_COR  COSTAO DO SANTINHO TUR E LAZER LTDA     034143495000120SOCIEDADE BRASILEIRA DE ANALISES        RUA VICENTE LICINIO,99                  RIO DE JANEIRO                          20270902RJ4265600001000107351089        20062013900BRADESCO S/A        0507201300000000017303201CC                                                                                                                                                                                                                                                                                                                                                                                           243350-8      000019
1046421001443COBR_CAUC_COR  COSTAO DO SANTINHO TUR E LAZER LTDA     034143495000120SOCIEDADE BRASILEIRA DE ANALISES        RUA VICENTE LICINIO,99                  RIO DE JANEIRO                          20270902RJ4265600002000107431089-1      20062013900BRADESCO S/A        2507201300000000017303201CC                                                                                                                                                                                                                                                                                                                                                                                           243350-9      000020
1018421009112COBR_CAUC_BIC  PLASTFORM INDUSTRIA E COMERCIO LTDA     007199805000155GRANDE MOINHO CEARENSE SA               AV. VICENTE DE CASTRO, 6043             FORTALEZA                               60182640CE426550000103290623024652/     20062013003CENTRO              3007201300000000011449680CC                                                                                                                                                                                                                                                                                                                                                                                           243350-10     000021
1018421016313DIR_CREDIT     SERRA NEGRA LOGISTICA LTDA              015104599000180SAMA S.A - MINERACOES ASSOCIADAS        MINA CANA BRAVA                         MINACU                                  76450000GO4264300001                                                                                                                                          012266535           040520090000009686            19062013000403locação de 13 caminhões VOLVO 6X4 e uma escavadeira                                                                                                                                                                                             010732172000103243350-11     000022
1016421019267COBR_CAUC_BIC  COBRAZEM AGROINDUSTRIAL LTDA            084874726000658KAEFER AGRO INDUSTRIAL LTDA             ROD PR 467 KM 03 -N 0,0                 CASCAVEL                                85802970PR4268000001040502810010443-1   20062013016CURITIBA            1907201300000000013750000CC                                                                                                                                                                                                                                                                                                                                                                                           243351-1      000023
1016421019267COBR_CAUC_BIC  COBRAZEM AGROINDUSTRIAL LTDA            084874726000658KAEFER AGRO INDUSTRIAL LTDA             ROD PR 467 KM 03 -N 0,0                 CASCAVEL                                85802970PR4268000002040502990045762-1   20062013016CURITIBA            2307201300000000019240000CC                                                                                                                                                                                                                                                                                                                                                                                           243351-2      000024
1010421024356COBR_CAUC_COR  DIST EQUADOR DE PROD PETROLEO LTDA      000940665000185AUTO POSTO AMAZONMINAS LTDA - ME        AV MINAS GERAIS, 747                    BOA VISTA                               69305660RR42681000010003341597623       21062013900BRADESCO S/A        2806201300000000011868000CC                                                                                                                                                                                                                                                                                                                                                                                           243351-3      000025
1018421032858COBR_CAUC_COR  PIVOT EQUIPAMENTOS AGRI E IRRI LTDA     000001690616806JOAO EMILIO ROCHETO                     ROD BR 453 KM 258 CX POSTAL 21, S/N -   PERDIZES                                38170000MG42679000010000236818709 2     17062013900BRADESCO S/A        1707201300000000011400000CC                                                                                                                                                                                                                                                                                                                                                                                           243351-4      000026
1009421012831COBR_CAUC_COR  ASA ALIMENTOS S/A                       009587239000427COOPERATIVA MISTA DOS AVICULT. DO       ESTRADA TERESINA UNIAO ZONA LESTE       TERESINA                                64058305PI4270000001001461230040052     20062013900BRADESCO S/A        1107201300000000010342080CC                                                                                                                                                                                                                                                                                                                                                                                           243352-1      000027
1050421000089COBR_CAUC_BIC  ATIVO ALIMENTOS EXP E IMP EIRELI        010364949000124CAMPINAS ATACADISTA DE CARNESDER        ESTRADA VELHA CAMPINASMONTE MOR 1211    CAMPINAS                                13012970SP427020000100469920198247/1    22062013021CAMPINAS            2007201300000000024646644CC                                                                                                                                                                                                                                                                                                                                                                                           243352-2      000028
1007421069410COBR_CAUC_COR  FULL COMEX TRADING S/A                  014887496000171CELSA DO BRASIL COMERCIO DE ELETRO      JOSE PEREIRA LIBERATO,525,              ITAJAI                                  88304401SC427030000102004380363.21      21062013800UNIBANCO S/A        0508201300000000026700000CC                                                                                                                                                                                                                                                                                                                                                                                           243352-3      000029
1018421034826COBR_CAUC_BIC  LACEL LATICINIOS CERES LTDA             011596442004237CARVALHO & FERNANDES LTDA               AV.DEPUTADO PAULO FERRAZ, 4888 GALPAO 04TERESINA                                64078820PI427010000103294157024936      20062013041TERESINA            1908201300000000023220000CC                                                                                                                                                                                                                                                                                                                                                                                           243352-4      000030
9000029                                                                                                                                                                                                                                                                                                                                                                                                                                                                                                                                                                                                                                                                                                               000031
