0REMESSANOTIFICAÇÃO ELETRONICA        99999999999999Bicbanco S/A                            Avenida Paulista                        1048      12º andar BELA VISTA                    SÃO PAULO                     01310100SPBicbanco S/A                                                                    25042011                                                                                                                                                                                                                                                                                                                                                                                                000001
1044421015863DIR_CREDIT     TECNART ENGENHARIA COM IND LTDA         012365064000175JB & ATAF INCORPORADORA                 RUA COBRE,18                            NATAL                                   59000000RN2727800001                                                                                                                                          011397890           310120110000018234S/N         14042011000403construção de obra por administração do conjunto de edificações denominado residencial ponta do mar.                                                                                                                                            008565046000160128593-1      000002
1019421004658COBR_CAUC_COR  S/A ESTADO DE MINAS                     059104422005704VOLKSWAGEN DO BRASIL IND DE VEIC A      ESTRADA MARGINAL VIA ANCHIETA 0 KM      SAO BERNANDO DO                         09823901SP272830000101082325196494-1    18042011900BRADESCO S/A        1805201100000000010674720CC                                                                                                                                                                                                                                                                                                                                                                                           128593-2      000003
1007420931444COBR_CAUC_BIC  PLASINCO LTDA                           044603447000120AMPHENOL TFC DO BRASIL LTDA.            ROD. GOV. PER. BARROS,340-KM 121.5      CAMPINAS                                13098300SP27284000010050838111753-A     18042011021CAMPINAS            1805201100000000016129100CC                                                                                                                                                                                                                                                                                                                                                                                           128593-3      000004
1036421016893COBR_CAUC_COR  TECAL ALUMINIO DA AMAZONIA LTDA         004012043000148SHOWA DO BRASIL LTDA                    RUA RIO QUIXITO                         MANAUS                                  69075830AM2728500001057802860000024589  15042011900BRADESCO S/A        1505201100000000010200602CC                                                                                                                                                                                                                                                                                                                                                                                           128593-4      000005
1016421000809COBR_CAUC_BIC  LOGIKA DISTRIBUIDORA COSMETICOS LTD     025769266000124ARCOM S/A                               ANEL VIARIO AYRTON SENNA, 2001          UBERLANDIA                              38414512MG2728600001030645210004202/01  17042011028UBERLANDIA          2006201100000000010800000CC                                                                                                                                                                                                                                                                                                                                                                                           128593-5      000006
9000005                                                                                                                                                                                                                                                                                                                                                                                                                                                                                                                                                                                                                                                                                                               000007
