0REMESSANOTIFICAÇÃO ELETRONICA        99999999999999Bicbanco S/A                            Avenida Brigadeiro Faria Lima           4.440     2º andar  Itaim Bibi                    São Paulo                     04538132SPBicbanco S/A                                                                    31082012                                                                                                                                                                                                                                                                                                                                                                                                000001
1013421025466DIR_CREDIT     HOSPITAL JAAR ANDRADE LTDA              003658432000182GEAP FUND. DE SEGURIDADE SOCIAL         SHC-AO SUL EA 02/08,LTE 05,C.EMP TERRAÇOBRASILIA                                70660900DF3733000001                                                                                                                                          011883350           170420120000022204400008642   20082012000403PRESTACAO DE SERVICOS MEDICOA HOSPITALARES AOS BENEFICIARIOS DA GEAP                                                                                                                                                                            097397848000138191321-1      000002
1007421056385DIR_CREDIT     TERRA NOVA TRADING S/A                  010306996000111EUROCRAFT IND COM EXP                   R AVELINO SOARES RODRIGUES 455          VARGEM GDE PAULISTA                     06730970SP3738800001                                                                                                                                          001010012           200620120000021847            02072012001903contrato de compra de motores de barcos " ferreti "por encomenda                                                                                                                                                                                039828926000105191321-2      000003
1047421001310COBR_CAUC_COR  CAMPEZINA IND COM DE ALIMENTOS LTDA     007408983000149SEIJI TAKATA                            AVENIDA ANTONIO DA SILVA NUNES, No 837  BIRIGUI                                 16201158SP37400000010146328100055748-1  02082012800UNIBANCO S/A        0309201200000000000053789CC                                                                                                                                                                                                                                                                                                                                                                                           191321-3      000004
1047421001310COBR_CAUC_COR  CAMPEZINA IND COM DE ALIMENTOS LTDA     062443643000167GREGORIO JORDAO - GUARARAPES            AVENIDA MARECHAL FLORIANO, 1016         GUARARAPES                              16700000SP37401000010146329900055742-1  02082012800UNIBANCO S/A        0309201200000000000092950CC                                                                                                                                                                                                                                                                                                                                                                                           191321-4      000005
1047421001310COBR_CAUC_COR  CAMPEZINA IND COM DE ALIMENTOS LTDA     006147560000150COMERCIAL BIRIGUI DE ALIMENTOS LTD      RUA DAS TULIPAS, 436                    BIRIGUI                                 16203175SP37402000010146330200055740-1  02082012800UNIBANCO S/A        0309201200000000000110378CC                                                                                                                                                                                                                                                                                                                                                                                           191321-5      000006
1047421001310COBR_CAUC_COR  CAMPEZINA IND COM DE ALIMENTOS LTDA     014691527000114FREITAS & SOARES SUPERMERCADOS LTD      ALAMEDA DAS HORTENCIA 346               CERQUEIRA CESAR                         18760000SP37403000010146334500055754-1  03082012800UNIBANCO S/A        0509201200000000000196801CC                                                                                                                                                                                                                                                                                                                                                                                           191321-6      000007
1047421001310COBR_CAUC_COR  CAMPEZINA IND COM DE ALIMENTOS LTDA     004085355000181SUPERMERCADO SOLIAS LTDA                AVENIDA GUILHERME ARRUDA CASTANHO, N 455BERNARDINO DE C                         18960000SP37404000010146337000055753-1  03082012800UNIBANCO S/A        2908201200000000000065613CC                                                                                                                                                                                                                                                                                                                                                                                           191321-7      000008
1047421001310COBR_CAUC_COR  CAMPEZINA IND COM DE ALIMENTOS LTDA     004085355000181SUPERMERCADO SOLIAS LTDA                AVENIDA GUILHERME ARRUDA CASTANHO, N 455BERNARDINO DE C                         18960000SP37404000020146336100055753-2  03082012800UNIBANCO S/A        0509201200000000000065594CC                                                                                                                                                                                                                                                                                                                                                                                           191321-8      000009
1047421001310COBR_CAUC_COR  CAMPEZINA IND COM DE ALIMENTOS LTDA     004085355000181SUPERMERCADO SOLIAS LTDA                AVENIDA GUILHERME ARRUDA CASTANHO, N 455BERNARDINO DE C                         18960000SP37404000030146335300055753-3  03082012800UNIBANCO S/A        1209201200000000000065594CC                                                                                                                                                                                                                                                                                                                                                                                           191321-9      000010
1047421001310COBR_CAUC_COR  CAMPEZINA IND COM DE ALIMENTOS LTDA     049542707000119SUPERMERCADO ITAIENSE LTDA              AV SANTO ANTONIO 946                    ITAI                                    18730000SP37405000010146333700055755-1  03082012800UNIBANCO S/A        2908201200000000000439611CC                                                                                                                                                                                                                                                                                                                                                                                           191321-10     000011
1047421001310COBR_CAUC_COR  CAMPEZINA IND COM DE ALIMENTOS LTDA     049542707000119SUPERMERCADO ITAIENSE LTDA              AV SANTO ANTONIO 946                    ITAI                                    18730000SP37405000020146332900055755-2  03082012800UNIBANCO S/A        0509201200000000000439479CC                                                                                                                                                                                                                                                                                                                                                                                           191321-11     000012
1047421001310COBR_CAUC_COR  CAMPEZINA IND COM DE ALIMENTOS LTDA     049542707000119SUPERMERCADO ITAIENSE LTDA              AV SANTO ANTONIO 946                    ITAI                                    18730000SP37405000030146331100055755-3  03082012800UNIBANCO S/A        1209201200000000000439480CC                                                                                                                                                                                                                                                                                                                                                                                           191321-12     000013
1047421001310COBR_CAUC_BIC  CAMPEZINA IND COM DE ALIMENTOS LTDA     010285566000160COMERCIAL DE ALIMENTOS GRANDE GIRO      ROD ENG RENE BENEDITO DA SILVA 668      ITAPEVI                                 06683000SP37406000010146183100055716-1  02082012007PAULISTA            2708201200000000000699976CC                                                                                                                                                                                                                                                                                                                                                                                           191321-13     000014
1047421001310COBR_CAUC_BIC  CAMPEZINA IND COM DE ALIMENTOS LTDA     010285566000160COMERCIAL DE ALIMENTOS GRANDE GIRO      ROD ENG RENE BENEDITO DA SILVA 668      ITAPEVI                                 06683000SP37406000020146182200055716-2  02082012007PAULISTA            0309201200000000000699766CC                                                                                                                                                                                                                                                                                                                                                                                           191321-14     000015
1047421001310COBR_CAUC_BIC  CAMPEZINA IND COM DE ALIMENTOS LTDA     010285566000160COMERCIAL DE ALIMENTOS GRANDE GIRO      ROD ENG RENE BENEDITO DA SILVA 668      ITAPEVI                                 06683000SP37406000030146181400055716-3  02082012007PAULISTA            1009201200000000000699767CC                                                                                                                                                                                                                                                                                                                                                                                           191321-15     000016
1047421001310COBR_CAUC_BIC  CAMPEZINA IND COM DE ALIMENTOS LTDA     005162753000117COMBAL ALIMENTOS LTDA                   RUA FLORIANO PEIXOTO, N 855             SANTA BARBARA D                         13450211SP37407000010146212800055423-1  31072012021CAMPINAS            2908201200000000000700908CC                                                                                                                                                                                                                                                                                                                                                                                           191321-16     000017
1047421001310COBR_CAUC_BIC  CAMPEZINA IND COM DE ALIMENTOS LTDA     005162753000117COMBAL ALIMENTOS LTDA                   RUA FLORIANO PEIXOTO, N 855             SANTA BARBARA D                         13450211SP37407000020146211000055423-2  31072012021CAMPINAS            0509201200000000000700698CC                                                                                                                                                                                                                                                                                                                                                                                           191321-17     000018
1047421001310COBR_CAUC_BIC  CAMPEZINA IND COM DE ALIMENTOS LTDA     005162753000117COMBAL ALIMENTOS LTDA                   RUA FLORIANO PEIXOTO, N 855             SANTA BARBARA D                         13450211SP37407000030146210100055423-3  31072012021CAMPINAS            1209201200000000000700698CC                                                                                                                                                                                                                                                                                                                                                                                           191321-18     000019
1047421001310COBR_CAUC_BIC  CAMPEZINA IND COM DE ALIMENTOS LTDA     003755209000315R&E CAMPO LIMPO CIAL DE ALIMENTOS       SANTOS DUMONT 1071                      GUARUJA                                 11460003SP37408000010146190300055710-1  02082012023SANTOS              0609201200000000002112549CC                                                                                                                                                                                                                                                                                                                                                                                           191321-19     000020
1047421001310COBR_CAUC_COR  CAMPEZINA IND COM DE ALIMENTOS LTDA     049313802000140ROLIM DE FREITAS & CIA LTDA             RUA JOSE JUNI 75                        IBIUNA                                  18150000SP37409000010146338800055752-1  03082012800UNIBANCO S/A        0509201200000000002138363CC                                                                                                                                                                                                                                                                                                                                                                                           191321-20     000021
1047421001310COBR_CAUC_BIC  CAMPEZINA IND COM DE ALIMENTOS LTDA     002895198000497SUPERMERCADO ALTA ROTACAO LTDA          INICENCIO SERAFICO 4180                 CARAPICUIBA                             06343410SP37410000010146186500055715-1  02082012007PAULISTA            2708201200000000000699976CC                                                                                                                                                                                                                                                                                                                                                                                           191321-21     000022
1047421001310COBR_CAUC_BIC  CAMPEZINA IND COM DE ALIMENTOS LTDA     002895198000497SUPERMERCADO ALTA ROTACAO LTDA          INICENCIO SERAFICO 4180                 CARAPICUIBA                             06343410SP37410000020146185700055715-2  02082012007PAULISTA            0309201200000000000699766CC                                                                                                                                                                                                                                                                                                                                                                                           191321-22     000023
1047421001310COBR_CAUC_BIC  CAMPEZINA IND COM DE ALIMENTOS LTDA     002895198000497SUPERMERCADO ALTA ROTACAO LTDA          INICENCIO SERAFICO 4180                 CARAPICUIBA                             06343410SP37410000030146184900055715-3  02082012007PAULISTA            1009201200000000000699767CC                                                                                                                                                                                                                                                                                                                                                                                           191321-23     000024
1047421001310COBR_CAUC_BIC  CAMPEZINA IND COM DE ALIMENTOS LTDA     002895198000497SUPERMERCADO ALTA ROTACAO LTDA          INICENCIO SERAFICO 4180                 CARAPICUIBA                             06343410SP37410000040146180600055717-1  02082012007PAULISTA            2908201200000000000699976CC                                                                                                                                                                                                                                                                                                                                                                                           191321-24     000025
1047421001310COBR_CAUC_BIC  CAMPEZINA IND COM DE ALIMENTOS LTDA     002895198000497SUPERMERCADO ALTA ROTACAO LTDA          INICENCIO SERAFICO 4180                 CARAPICUIBA                             06343410SP37410000050146179200055717-2  02082012007PAULISTA            0509201200000000000699766CC                                                                                                                                                                                                                                                                                                                                                                                           191321-25     000026
1047421001310COBR_CAUC_BIC  CAMPEZINA IND COM DE ALIMENTOS LTDA     002895198000497SUPERMERCADO ALTA ROTACAO LTDA          INICENCIO SERAFICO 4180                 CARAPICUIBA                             06343410SP37410000060146178400055717-3  02082012007PAULISTA            1209201200000000000699767CC                                                                                                                                                                                                                                                                                                                                                                                           191321-26     000027
1047421001310COBR_CAUC_BIC  CAMPEZINA IND COM DE ALIMENTOS LTDA     002895198000497SUPERMERCADO ALTA ROTACAO LTDA          INICENCIO SERAFICO 4180                 CARAPICUIBA                             06343410SP37410000070146177600055723-1  02082012007PAULISTA            3108201200000000000699976CC                                                                                                                                                                                                                                                                                                                                                                                           191321-27     000028
1047421001310COBR_CAUC_BIC  CAMPEZINA IND COM DE ALIMENTOS LTDA     002895198000497SUPERMERCADO ALTA ROTACAO LTDA          INICENCIO SERAFICO 4180                 CARAPICUIBA                             06343410SP37410000080146176800055723-2  02082012007PAULISTA            1009201200000000000699766CC                                                                                                                                                                                                                                                                                                                                                                                           191321-28     000029
1047421001310COBR_CAUC_BIC  CAMPEZINA IND COM DE ALIMENTOS LTDA     002895198000497SUPERMERCADO ALTA ROTACAO LTDA          INICENCIO SERAFICO 4180                 CARAPICUIBA                             06343410SP37410000090146175000055723-3  02082012007PAULISTA            1409201200000000000699767CC                                                                                                                                                                                                                                                                                                                                                                                           191321-29     000030
1047421001310COBR_CAUC_COR  CAMPEZINA IND COM DE ALIMENTOS LTDA     071004881000167BIOLAC IND. ALIMENTICIA LTDA            RUA RIACHUELO, No 1.111                 MONTE CARMELO                           38500000MG37411000010146214400055108-1  26072012800UNIBANCO S/A        1809201200000000003282500CC                                                                                                                                                                                                                                                                                                                                                                                           191321-30     000031
1047421001310COBR_CAUC_COR  CAMPEZINA IND COM DE ALIMENTOS LTDA     071004881000167BIOLAC IND. ALIMENTICIA LTDA            RUA RIACHUELO, No 1.111                 MONTE CARMELO                           38500000MG37411000020146213600055109-1  26072012800UNIBANCO S/A        1909201200000000003282500CC                                                                                                                                                                                                                                                                                                                                                                                           191321-31     000032
1047421001310COBR_CAUC_COR  CAMPEZINA IND COM DE ALIMENTOS LTDA     002642301000144ABV COM E REPRES DE ALIMENTOS LTDA      RUA BOA VISTA, 974                      AVANHANDAVA                             16360000SP37412000010146339600054902-1  23072012800UNIBANCO S/A        2708201200000000002031250CC                                                                                                                                                                                                                                                                                                                                                                                           191321-32     000033
1047421001310COBR_CAUC_COR  CAMPEZINA IND COM DE ALIMENTOS LTDA     002642301000144ABV COM E REPRES DE ALIMENTOS LTDA      RUA BOA VISTA, 974                      AVANHANDAVA                             16360000SP37412000020146174100055676-1  01082012800UNIBANCO S/A        1309201200000000001034460CC                                                                                                                                                                                                                                                                                                                                                                                           191321-33     000034
1047421001310COBR_CAUC_COR  CAMPEZINA IND COM DE ALIMENTOS LTDA     002642301000144ABV COM E REPRES DE ALIMENTOS LTDA      RUA BOA VISTA, 974                      AVANHANDAVA                             16360000SP37412000030146173300055676-2  01082012800UNIBANCO S/A        1309201200000000001034460CC                                                                                                                                                                                                                                                                                                                                                                                           191321-34     000035
1047421001310COBR_CAUC_COR  CAMPEZINA IND COM DE ALIMENTOS LTDA     002642301000144ABV COM E REPRES DE ALIMENTOS LTDA      RUA BOA VISTA, 974                      AVANHANDAVA                             16360000SP37412000040146172500055677-1  01082012800UNIBANCO S/A        1409201200000000001034460CC                                                                                                                                                                                                                                                                                                                                                                                           191321-35     000036
1047421001310COBR_CAUC_COR  CAMPEZINA IND COM DE ALIMENTOS LTDA     002642301000144ABV COM E REPRES DE ALIMENTOS LTDA      RUA BOA VISTA, 974                      AVANHANDAVA                             16360000SP37412000050146171700055677-2  01082012800UNIBANCO S/A        1409201200000000001034460CC                                                                                                                                                                                                                                                                                                                                                                                           191321-36     000037
1047421001310COBR_CAUC_COR  CAMPEZINA IND COM DE ALIMENTOS LTDA     002642301000144ABV COM E REPRES DE ALIMENTOS LTDA      RUA BOA VISTA, 974                      AVANHANDAVA                             16360000SP37412000060146170900055678-1  01082012800UNIBANCO S/A        1709201200000000001034460CC                                                                                                                                                                                                                                                                                                                                                                                           191321-37     000038
1047421001310COBR_CAUC_COR  CAMPEZINA IND COM DE ALIMENTOS LTDA     002642301000144ABV COM E REPRES DE ALIMENTOS LTDA      RUA BOA VISTA, 974                      AVANHANDAVA                             16360000SP37412000070146169500055678-2  01082012800UNIBANCO S/A        1709201200000000001034460CC                                                                                                                                                                                                                                                                                                                                                                                           191321-38     000039
1047421001310COBR_CAUC_BIC  CAMPEZINA IND COM DE ALIMENTOS LTDA     007074521000132COMPASSOS COMERCIO E REPRES DE ALI      RUA VOLUNTARIOS DA FRANCA, No 1.878     FRANCA                                  14400490SP37413000010146168700055684-1  01082012022RIBEIRAO PRETO      2609201200000000002068920CC                                                                                                                                                                                                                                                                                                                                                                                           191321-39     000040
1047421001310COBR_CAUC_BIC  CAMPEZINA IND COM DE ALIMENTOS LTDA     007074521000132COMPASSOS COMERCIO E REPRES DE ALI      RUA VOLUNTARIOS DA FRANCA, No 1.878     FRANCA                                  14400490SP37413000020146167900055685-1  01082012022RIBEIRAO PRETO      2709201200000000002071440CC                                                                                                                                                                                                                                                                                                                                                                                           191321-40     000041
1047421001310COBR_CAUC_BIC  CAMPEZINA IND COM DE ALIMENTOS LTDA     007074521000132COMPASSOS COMERCIO E REPRES DE ALI      RUA VOLUNTARIOS DA FRANCA, No 1.878     FRANCA                                  14400490SP37413000030146166100055686-1  01082012022RIBEIRAO PRETO      2709201200000000002071440CC                                                                                                                                                                                                                                                                                                                                                                                           191321-41     000042
1047421001310COBR_CAUC_BIC  CAMPEZINA IND COM DE ALIMENTOS LTDA     007074521000132COMPASSOS COMERCIO E REPRES DE ALI      RUA VOLUNTARIOS DA FRANCA, No 1.878     FRANCA                                  14400490SP37413000040146165200055687-1  01082012022RIBEIRAO PRETO      2809201200000000002071440CC                                                                                                                                                                                                                                                                                                                                                                                           191321-42     000043
1047421001310COBR_CAUC_BIC  CAMPEZINA IND COM DE ALIMENTOS LTDA     007074521000132COMPASSOS COMERCIO E REPRES DE ALI      RUA VOLUNTARIOS DA FRANCA, No 1.878     FRANCA                                  14400490SP37413000050146163600055688-1  01082012022RIBEIRAO PRETO      2809201200000000002071440CC                                                                                                                                                                                                                                                                                                                                                                                           191321-43     000044
1047421001310COBR_CAUC_BIC  CAMPEZINA IND COM DE ALIMENTOS LTDA     007074521000132COMPASSOS COMERCIO E REPRES DE ALI      RUA VOLUNTARIOS DA FRANCA, No 1.878     FRANCA                                  14400490SP37413000060146164400055689-1  01082012022RIBEIRAO PRETO      2809201200000000002071440CC                                                                                                                                                                                                                                                                                                                                                                                           191321-44     000045
1047421001310COBR_CAUC_BIC  CAMPEZINA IND COM DE ALIMENTOS LTDA     007074521000132COMPASSOS COMERCIO E REPRES DE ALI      RUA VOLUNTARIOS DA FRANCA, No 1.878     FRANCA                                  14400490SP37413000070146195400055732-1  02082012022RIBEIRAO PRETO      1409201200000000002068920CC                                                                                                                                                                                                                                                                                                                                                                                           191321-45     000046
1047421001310COBR_CAUC_BIC  CAMPEZINA IND COM DE ALIMENTOS LTDA     007074521000132COMPASSOS COMERCIO E REPRES DE ALI      RUA VOLUNTARIOS DA FRANCA, No 1.878     FRANCA                                  14400490SP37413000080146194600055733-1  02082012022RIBEIRAO PRETO      1409201200000000002068920CC                                                                                                                                                                                                                                                                                                                                                                                           191321-46     000047
1047421001310COBR_CAUC_BIC  CAMPEZINA IND COM DE ALIMENTOS LTDA     007074521000132COMPASSOS COMERCIO E REPRES DE ALI      RUA VOLUNTARIOS DA FRANCA, No 1.878     FRANCA                                  14400490SP37413000090146193800055734-1  02082012022RIBEIRAO PRETO      1909201200000000002068920CC                                                                                                                                                                                                                                                                                                                                                                                           191321-47     000048
1047421001310COBR_CAUC_BIC  CAMPEZINA IND COM DE ALIMENTOS LTDA     007074521000132COMPASSOS COMERCIO E REPRES DE ALI      RUA VOLUNTARIOS DA FRANCA, No 1.878     FRANCA                                  14400490SP37413000100146192000055735-1  02082012022RIBEIRAO PRETO      1909201200000000002068920CC                                                                                                                                                                                                                                                                                                                                                                                           191321-48     000049
1047421001310COBR_CAUC_BIC  CAMPEZINA IND COM DE ALIMENTOS LTDA     007074521000132COMPASSOS COMERCIO E REPRES DE ALI      RUA VOLUNTARIOS DA FRANCA, No 1.878     FRANCA                                  14400490SP37413000110146191100055736-1  02082012022RIBEIRAO PRETO      2609201200000000002068920CC                                                                                                                                                                                                                                                                                                                                                                                           191321-49     000050
1047421001310COBR_CAUC_BIC  CAMPEZINA IND COM DE ALIMENTOS LTDA     043235985000651CATRICALA & CIA LTDA - LJ 6             RUA JOAO BASSITT, No 600                SAO JOSE DO RIO                         15075110SP37414000010146204700055520-1  31072012047AGENCIA RIO PRETO   1209201200000000001036782CC                                                                                                                                                                                                                                                                                                                                                                                           191321-50     000051
1047421001310COBR_CAUC_BIC  CAMPEZINA IND COM DE ALIMENTOS LTDA     043235985000651CATRICALA & CIA LTDA - LJ 6             RUA JOAO BASSITT, No 600                SAO JOSE DO RIO                         15075110SP37414000020146203900055521-1  31072012047AGENCIA RIO PRETO   1709201200000000002073563CC                                                                                                                                                                                                                                                                                                                                                                                           191321-51     000052
1047421001310COBR_CAUC_BIC  CAMPEZINA IND COM DE ALIMENTOS LTDA     043235985000651CATRICALA & CIA LTDA - LJ 6             RUA JOAO BASSITT, No 600                SAO JOSE DO RIO                         15075110SP37414000030146202100055522-1  31072012047AGENCIA RIO PRETO   1709201200000000002073563CC                                                                                                                                                                                                                                                                                                                                                                                           191321-52     000053
1047421001310COBR_CAUC_BIC  CAMPEZINA IND COM DE ALIMENTOS LTDA     043235985000651CATRICALA & CIA LTDA - LJ 6             RUA JOAO BASSITT, No 600                SAO JOSE DO RIO                         15075110SP37414000040146201200055523-1  31072012047AGENCIA RIO PRETO   1709201200000000002073563CC                                                                                                                                                                                                                                                                                                                                                                                           191321-53     000054
1047421001310COBR_CAUC_BIC  CAMPEZINA IND COM DE ALIMENTOS LTDA     043235985000651CATRICALA & CIA LTDA - LJ 6             RUA JOAO BASSITT, No 600                SAO JOSE DO RIO                         15075110SP37414000050146209800055524-1  31072012047AGENCIA RIO PRETO   2409201200000000002073563CC                                                                                                                                                                                                                                                                                                                                                                                           191321-54     000055
1047421001310COBR_CAUC_BIC  CAMPEZINA IND COM DE ALIMENTOS LTDA     043235985000651CATRICALA & CIA LTDA - LJ 6             RUA JOAO BASSITT, No 600                SAO JOSE DO RIO                         15075110SP37414000060146208000055525-1  31072012047AGENCIA RIO PRETO   2409201200000000001036782CC                                                                                                                                                                                                                                                                                                                                                                                           191321-55     000056
1047421001310COBR_CAUC_BIC  CAMPEZINA IND COM DE ALIMENTOS LTDA     043235985000651CATRICALA & CIA LTDA - LJ 6             RUA JOAO BASSITT, No 600                SAO JOSE DO RIO                         15075110SP37414000070146207100055526-1  31072012047AGENCIA RIO PRETO   2409201200000000002073563CC                                                                                                                                                                                                                                                                                                                                                                                           191321-56     000057
1047421001310COBR_CAUC_BIC  CAMPEZINA IND COM DE ALIMENTOS LTDA     043235985000651CATRICALA & CIA LTDA - LJ 6             RUA JOAO BASSITT, No 600                SAO JOSE DO RIO                         15075110SP37414000080146206300055527-1  31072012047AGENCIA RIO PRETO   2409201200000000001036782CC                                                                                                                                                                                                                                                                                                                                                                                           191321-57     000058
1047421001310COBR_CAUC_BIC  CAMPEZINA IND COM DE ALIMENTOS LTDA     043235985000651CATRICALA & CIA LTDA - LJ 6             RUA JOAO BASSITT, No 600                SAO JOSE DO RIO                         15075110SP37414000090146205500055528-1  31072012047AGENCIA RIO PRETO   2409201200000000002073563CC                                                                                                                                                                                                                                                                                                                                                                                           191321-58     000059
1047421001310COBR_CAUC_BIC  CAMPEZINA IND COM DE ALIMENTOS LTDA     043235985000651CATRICALA & CIA LTDA - LJ 6             RUA JOAO BASSITT, No 600                SAO JOSE DO RIO                         15075110SP37414000100146200400055530-1  31072012047AGENCIA RIO PRETO   0110201200000000001036782CC                                                                                                                                                                                                                                                                                                                                                                                           191321-59     000060
1047421001310COBR_CAUC_BIC  CAMPEZINA IND COM DE ALIMENTOS LTDA     043235985000651CATRICALA & CIA LTDA - LJ 6             RUA JOAO BASSITT, No 600                SAO JOSE DO RIO                         15075110SP37414000110146199700055531-1  31072012047AGENCIA RIO PRETO   0110201200000000002073563CC                                                                                                                                                                                                                                                                                                                                                                                           191321-60     000061
1047421001310COBR_CAUC_BIC  CAMPEZINA IND COM DE ALIMENTOS LTDA     043235985000651CATRICALA & CIA LTDA - LJ 6             RUA JOAO BASSITT, No 600                SAO JOSE DO RIO                         15075110SP37414000120146198900055532-1  31072012047AGENCIA RIO PRETO   0110201200000000002073563CC                                                                                                                                                                                                                                                                                                                                                                                           191321-61     000062
1047421001310COBR_CAUC_BIC  CAMPEZINA IND COM DE ALIMENTOS LTDA     043235985000651CATRICALA & CIA LTDA - LJ 6             RUA JOAO BASSITT, No 600                SAO JOSE DO RIO                         15075110SP37414000130146197100055533-1  31072012047AGENCIA RIO PRETO   0110201200000000001036782CC                                                                                                                                                                                                                                                                                                                                                                                           191321-62     000063
1047421001310COBR_CAUC_BIC  CAMPEZINA IND COM DE ALIMENTOS LTDA     043235985000651CATRICALA & CIA LTDA - LJ 6             RUA JOAO BASSITT, No 600                SAO JOSE DO RIO                         15075110SP37414000140146196200055726-1  02082012047AGENCIA RIO PRETO   1409201200000000002073563CC                                                                                                                                                                                                                                                                                                                                                                                           191321-63     000064
1007420931444COBR_CAUC_BIC  PLASINCO LTDA                           047090782000160DANEVA MAQ. E COND. EL. LTDA.           RUA VOTUPORANGA,415                     POA                                     08558050SP37415000010141259022407       21082012007PAULISTA            1109201200000000021550458CC                                                                                                                                                                                                                                                                                                                                                                                           191332-1      000065
1031421009837COBR_CAUC_BIC  DIPLOMATA S/AINDL. E COMERCIAL          039543806000161CENTRO SUL COM. ATACADISTA DE CARN      RUA MONSENHOR RAEDER,28                 NITEROI                                 24110814RJ3741600001050281220338445-01  23082012014RIO DE JANEIRO      2809201200000000011475000CC                                                                                                                                                                                                                                                                                                                                                                                           191332-2      000066
1048421000338COBR_CAUC_COR  FRIGOESTRELA S.A. EM RECUP JUDICIAL     050947761001871IRMAOS RUSSI LTDA                       RUA LUIS ALLI FARDYN590SALA 03          CAJAMAR                                 07750000SP3741700001025969880021850001  22082012900BRADESCO S/A        2709201200000000012767238CC                                                                                                                                                                                                                                                                                                                                                                                           191332-3      000067
1024420934410COBR_CAUC_BIC  INTERCOOP INT SUIN MED NORTE MT LTD     001928075002062DMA DISTRIBUIDORA SA                    RODOVIA BR 040, 180 KM 531,180          BELO HORIZONTE                          30855500MG37418000010198927285222       20082012019BELO HORIZONTE      2009201200000000018852999CC                                                                                                                                                                                                                                                                                                                                                                                           191332-4      000068
1018141000433COBR_CAUC_COR  SAN LORENZO AGROINDUSTRIAL LTDA         044022424000556TRIANGULO ALIMENTOS LTDA                AV JOSE DE BARROS RIBEIRO, 168          OSASCO                                  14900000SP3741900001028724414797/2012   11082012900BRADESCO S/A        0309201200000000010495100TD                                                                                                                                                                                                                                                                                                                                                                                           191332-5      000069
1046421001443COBR_CAUC_COR  COSTAO DO SANTINHO TUR E LAZER LTDA     003984807000102INSTITUTO EMPREENDEDOR ENDEAVOR BR      RUA QUATA,300-4 ANDAR                   SAO PAULO                               04546042SP37420000010000687822082012-1  22082012900BRADESCO S/A        1011201200000000013033547CC                                                                                                                                                                                                                                                                                                                                                                                           191332-6      000070
1018421015651COBR_CAUC_BIC  CMS PRODUTOS MEDICOS LTDA               007580502000188ANGIOGRAFIA E HEMODINAMICA VERA CR      AV. ANDRADE NEVES, 402                  CAMPINAS                                13013160SP374210000102872521000054918   22082012021CAMPINAS            1710201200000000010609600CC                                                                                                                                                                                                                                                                                                                                                                                           191332-7      000071
1006441005236COBR_CAUC_BIC  F A MENDES ARAGAO ME                    012383792000290DEGAS EMPREENDIMENTOS E PARTICIPAC      AV. ANDRADAS, ,3000                     BELO HORIZONTE                          30260070MG374220000109151873382         21082012019BELO HORIZONTE      1809201200000000039479064CC                                                                                                                                                                                                                                                                                                                                                                                           191332-8      000072
1006441005236COBR_CAUC_BIC  F A MENDES ARAGAO ME                    012383792000290DEGAS EMPREENDIMENTOS E PARTICIPAC      AV. ANDRADAS, ,3000                     BELO HORIZONTE                          30260070MG374220000209151881381         21082012019BELO HORIZONTE      1809201200000000020009880CC                                                                                                                                                                                                                                                                                                                                                                                           191332-9      000073
1008421002710DIR_CREDIT     OCS MIN E EMPREENDIMENTOS LTDA          034230979005418SUPERMIX CONCRETO S/A                   R PROF. JOSE VIEIRA DE MENDONçA, 1121   BELO HORIZONTE                          31310260MG3739000001                                                                                                                                          481026873           100120070000012817            22082012000404fornecimento de material produzido pela OCS-Mineração e EmpreendimentosLtda,a saber Brita 19mm,Brita 9,5mm e areia grossa de Brita,todos fornecidos e oferecidos em forma de tonelada.                                                          007323439000102191361-1      000074
1013421019571DIR_CREDIT     JPNOR ENGENHARIA LTDA                   042150391000170BRASKEM S/A                             RUA ETENO,1561-POLO PETROQUIMICO        CAMAçARI                                42800000BA3742900001                                                                                                                                          481025814           10022010000001798510108/2009  23082012000404Elaboração de projetos conceituais, de engenharia básica, de detalhamento de projeto, de automação, estudos técnicos e estudos de viabilidade.                                                                                                  001531864000100191361-2      000075
1021420930887COBR_CAUC_BIC  DEDINI S/A INDUSTRIAS DE BASE           075717355001177USINA DE ACUCAR SANTA TEREZINHA LT      AV MARCELO MESSIAS BUSIQUIA 847 PQ INDUSMARINGA                                 87065006PR374380000106353092188771-1-1  22082012016CURITIBA            3008201200000000019698677CC                                                                                                                                                                                                                                                                                                                                                                                           191361-3      000076
1021420930887COBR_CAUC_BIC  DEDINI S/A INDUSTRIAS DE BASE           075717355001177USINA DE ACUCAR SANTA TEREZINHA LT      AV MARCELO MESSIAS BUSIQUIA 847 PQ INDUSMARINGA                                 87065006PR374380000206353114188354-1-1  21082012016CURITIBA            3008201200000000017135932CC                                                                                                                                                                                                                                                                                                                                                                                           191361-4      000077
1021420930887COBR_CAUC_BIC  DEDINI S/A INDUSTRIAS DE BASE           075717355001177USINA DE ACUCAR SANTA TEREZINHA LT      AV MARCELO MESSIAS BUSIQUIA 847 PQ INDUSMARINGA                                 87065006PR374380000306353131188011-1-1  20082012016CURITIBA            3008201200000000011199712CC                                                                                                                                                                                                                                                                                                                                                                                           191361-5      000078
1021420930887COBR_CAUC_BIC  DEDINI S/A INDUSTRIAS DE BASE           075717355001177USINA DE ACUCAR SANTA TEREZINHA LT      AV MARCELO MESSIAS BUSIQUIA 847 PQ INDUSMARINGA                                 87065006PR374380000406353157188352-1-1  20082012016CURITIBA            3008201200000000031709314CC                                                                                                                                                                                                                                                                                                                                                                                           191361-6      000079
1021420930887COBR_CAUC_BIC  DEDINI S/A INDUSTRIAS DE BASE           075717355001177USINA DE ACUCAR SANTA TEREZINHA LT      AV MARCELO MESSIAS BUSIQUIA 847 PQ INDUSMARINGA                                 87065006PR374380000506353190189295-1-1  20082012016CURITIBA            3008201200000000020242440CC                                                                                                                                                                                                                                                                                                                                                                                           191361-7      000080
1021420930887COBR_CAUC_BIC  DEDINI S/A INDUSTRIAS DE BASE           075717355001177USINA DE ACUCAR SANTA TEREZINHA LT      AV MARCELO MESSIAS BUSIQUIA 847 PQ INDUSMARINGA                                 87065006PR374380000606353211188231-1-1  20082012016CURITIBA            3008201200000000017066416CC                                                                                                                                                                                                                                                                                                                                                                                           191361-8      000081
1022421007886COBR_CAUC_COR  COOPERCITRUS COOP. DE PROD. RURAIS      055859656000156SEMENTES ESPERANCA COM.IMP.EXP.LTD      RUA ANTONIO GUERREIRO,00050             JABOTICABAL                             14876270SP374390000100000921019031467   22082012900BRADESCO S/A        1505201300000000031437016CC                                                                                                                                                                                                                                                                                                                                                                                           191361-9      000082
1016421006424COBR_CAUC_COR  BOUTIN FERTILIZANTES LTDA               007113113000142SOLOS E IND E COM DE FERTILIZANTES      ROD BR 376 ,115-KM 115,5                IVINHEMA                                79740000MS37440000010366444727954       23082012800UNIBANCO S/A        1902201300000000011181400CC                                                                                                                                                                                                                                                                                                                                                                                           191361-10     000083
1016421006424COBR_CAUC_COR  BOUTIN FERTILIZANTES LTDA               007113113000142SOLOS E IND E COM DE FERTILIZANTES      ROD BR 376 ,115-KM 115,5                IVINHEMA                                79740000MS37440000020366445527956       23082012800UNIBANCO S/A        1902201300000000013216400CC                                                                                                                                                                                                                                                                                                                                                                                           191361-11     000084
1048421001938COBR_CAUC_COR  SERVIMED COMERCIAL LTDA                 006880016000112LIGMED COM DE MEDS LTDA                 AV T2 1820                              GOIANIA                                 74215010GO37441000010019193031718416    23082012900BRADESCO S/A        2009201200000000017021094CC                                                                                                                                                                                                                                                                                                                                                                                           191361-12     000085
1038421011812COBR_CAUC_BIC  ENERGY COML IMPORT E EXPORT LTDA        009363567000105PREMIX BRASIL RESINAS LTDA              AL ARAGUAIA,2044                        BARUERI                                 06455000SP374420000109812595001597      22082012007PAULISTA            0610201200000000014139787CC                                                                                                                                                                                                                                                                                                                                                                                           191361-13     000086
1038421011812COBR_CAUC_BIC  ENERGY COML IMPORT E EXPORT LTDA        009363567000105PREMIX BRASIL RESINAS LTDA              AL ARAGUAIA,2044                        BARUERI                                 06455000SP374420000209812609001598      22082012007PAULISTA            0610201200000000013833504CC                                                                                                                                                                                                                                                                                                                                                                                           191361-14     000087
1038421011812COBR_CAUC_BIC  ENERGY COML IMPORT E EXPORT LTDA        009363567000105PREMIX BRASIL RESINAS LTDA              AL ARAGUAIA,2044                        BARUERI                                 06455000SP374420000309812617001599      22082012007PAULISTA            0610201200000000013986646CC                                                                                                                                                                                                                                                                                                                                                                                           191361-15     000088
1038421011812COBR_CAUC_BIC  ENERGY COML IMPORT E EXPORT LTDA        009363567000105PREMIX BRASIL RESINAS LTDA              AL ARAGUAIA,2044                        BARUERI                                 06455000SP374420000409812625001600      22082012007PAULISTA            0610201200000000013986646CC                                                                                                                                                                                                                                                                                                                                                                                           191361-16     000089
1038421011812COBR_CAUC_BIC  ENERGY COML IMPORT E EXPORT LTDA        009363567000105PREMIX BRASIL RESINAS LTDA              AL ARAGUAIA,2044                        BARUERI                                 06455000SP374420000509812633001601      22082012007PAULISTA            0610201200000000013833505CC                                                                                                                                                                                                                                                                                                                                                                                           191361-17     000090
1038421011812COBR_CAUC_BIC  ENERGY COML IMPORT E EXPORT LTDA        009363567000105PREMIX BRASIL RESINAS LTDA              AL ARAGUAIA,2044                        BARUERI                                 06455000SP374420000609812641001602      22082012007PAULISTA            0610201200000000013833505CC                                                                                                                                                                                                                                                                                                                                                                                           191361-18     000091
1038421011812COBR_CAUC_BIC  ENERGY COML IMPORT E EXPORT LTDA        009363567000105PREMIX BRASIL RESINAS LTDA              AL ARAGUAIA,2044                        BARUERI                                 06455000SP374420000709812650001603      22082012007PAULISTA            0610201200000000013833505CC                                                                                                                                                                                                                                                                                                                                                                                           191361-19     000092
1038421011812COBR_CAUC_BIC  ENERGY COML IMPORT E EXPORT LTDA        009363567000105PREMIX BRASIL RESINAS LTDA              AL ARAGUAIA,2044                        BARUERI                                 06455000SP374420000809812668001604      22082012007PAULISTA            0610201200000000013833505CC                                                                                                                                                                                                                                                                                                                                                                                           191361-20     000093
1018421008680COBR_CAUC_BIC  CMS PRODUTOS MEDICOS LTDA               046009718000140HOSPITAL VERA CRUZ S A                  AV ANDRADE NEVES,402                    CAMPINAS                                13013900SP374430000102873170000055064   23082012021CAMPINAS            1810201200000000010609600CC                                                                                                                                                                                                                                                                                                                                                                                           191361-21     000094
1048421000613COBR_CAUC_BIC  TRIANGULO ALIMENTOS LTDA                016417331000161VETERAN COMERCIO DE ALIMENTOS E GO      AV.MARECHAL FIUZA DE CASTRO, 228 - SL 03SAO PAULO                               05596000SP374690000100591148043879-1    24072012007PAULISTA            3008201200000000001641063CC                                                                                                                                                                                                                                                                                                                                                                                           191361-22     000095
1048421000613COBR_CAUC_BIC  TRIANGULO ALIMENTOS LTDA                016417331000161VETERAN COMERCIO DE ALIMENTOS E GO      AV.MARECHAL FIUZA DE CASTRO, 228 - SL 03SAO PAULO                               05596000SP374690000200591156043879-2    24072012007PAULISTA            0609201200000000001641063CC                                                                                                                                                                                                                                                                                                                                                                                           191361-23     000096
1048421000613COBR_CAUC_BIC  TRIANGULO ALIMENTOS LTDA                016417331000161VETERAN COMERCIO DE ALIMENTOS E GO      AV.MARECHAL FIUZA DE CASTRO, 228 - SL 03SAO PAULO                               05596000SP374690000300593043044326-2    30072012007PAULISTA            0309201200000000003149125CC                                                                                                                                                                                                                                                                                                                                                                                           191361-24     000097
1048421000613COBR_CAUC_BIC  TRIANGULO ALIMENTOS LTDA                016417331000161VETERAN COMERCIO DE ALIMENTOS E GO      AV.MARECHAL FIUZA DE CASTRO, 228 - SL 03SAO PAULO                               05596000SP374690000400594112044327-1    30072012007PAULISTA            2808201200000000003164875CC                                                                                                                                                                                                                                                                                                                                                                                           191361-25     000098
1048421000613COBR_CAUC_BIC  TRIANGULO ALIMENTOS LTDA                016417331000161VETERAN COMERCIO DE ALIMENTOS E GO      AV.MARECHAL FIUZA DE CASTRO, 228 - SL 03SAO PAULO                               05596000SP374690000500594121044327-2    30072012007PAULISTA            0409201200000000003164875CC                                                                                                                                                                                                                                                                                                                                                                                           191361-26     000099
1048421000613COBR_CAUC_BIC  TRIANGULO ALIMENTOS LTDA                016417331000161VETERAN COMERCIO DE ALIMENTOS E GO      AV.MARECHAL FIUZA DE CASTRO, 228 - SL 03SAO PAULO                               05596000SP374690000600594767044547-1    02082012007PAULISTA            0509201200000000003167500CC                                                                                                                                                                                                                                                                                                                                                                                           191361-27     000100
1048421000613COBR_CAUC_BIC  TRIANGULO ALIMENTOS LTDA                016417331000161VETERAN COMERCIO DE ALIMENTOS E GO      AV.MARECHAL FIUZA DE CASTRO, 228 - SL 03SAO PAULO                               05596000SP374690000700594775044547-2    02082012007PAULISTA            1209201200000000003167500CC                                                                                                                                                                                                                                                                                                                                                                                           191361-28     000101
1048421000613COBR_CAUC_BIC  TRIANGULO ALIMENTOS LTDA                016417331000161VETERAN COMERCIO DE ALIMENTOS E GO      AV.MARECHAL FIUZA DE CASTRO, 228 - SL 03SAO PAULO                               05596000SP374690000800594805044555-1    02082012007PAULISTA            0609201200000000003194625CC                                                                                                                                                                                                                                                                                                                                                                                           191361-29     000102
1048421000613COBR_CAUC_BIC  TRIANGULO ALIMENTOS LTDA                016417331000161VETERAN COMERCIO DE ALIMENTOS E GO      AV.MARECHAL FIUZA DE CASTRO, 228 - SL 03SAO PAULO                               05596000SP374690000900594813044555-2    02082012007PAULISTA            1309201200000000003194625CC                                                                                                                                                                                                                                                                                                                                                                                           191361-30     000103
1048421000613COBR_CAUC_COR  TRIANGULO ALIMENTOS LTDA                013940074000150S T COMERCIO E DISTRIBUIDORA DE AL      RUA GRAVATA, 36                         ILHA DE ITAMARA                         53900000PE374700000100590885042889-2    12072012900BRADESCO S/A        3108201200000000002466200CC                                                                                                                                                                                                                                                                                                                                                                                           191361-31     000104
1048421000613COBR_CAUC_COR  TRIANGULO ALIMENTOS LTDA                013940074000150S T COMERCIO E DISTRIBUIDORA DE AL      RUA GRAVATA, 36                         ILHA DE ITAMARA                         53900000PE374700000200590893042889-3    12072012900BRADESCO S/A        0609201200000000002466200CC                                                                                                                                                                                                                                                                                                                                                                                           191361-32     000105
1048421000613COBR_CAUC_COR  TRIANGULO ALIMENTOS LTDA                013940074000150S T COMERCIO E DISTRIBUIDORA DE AL      RUA GRAVATA, 36                         ILHA DE ITAMARA                         53900000PE374700000300590907042889-4    12072012900BRADESCO S/A        1409201200000000002466200CC                                                                                                                                                                                                                                                                                                                                                                                           191361-33     000106
1048421000613COBR_CAUC_COR  TRIANGULO ALIMENTOS LTDA                013940074000150S T COMERCIO E DISTRIBUIDORA DE AL      RUA GRAVATA, 36                         ILHA DE ITAMARA                         53900000PE374700000400590915042889-5    12072012900BRADESCO S/A        2109201200000000002466200CC                                                                                                                                                                                                                                                                                                                                                                                           191361-34     000107
1048421000613COBR_CAUC_COR  TRIANGULO ALIMENTOS LTDA                013940074000150S T COMERCIO E DISTRIBUIDORA DE AL      RUA GRAVATA, 36                         ILHA DE ITAMARA                         53900000PE374700000500591369043487-3    19072012900BRADESCO S/A        1009201200000000003111000CC                                                                                                                                                                                                                                                                                                                                                                                           191361-35     000108
1048421000613COBR_CAUC_COR  TRIANGULO ALIMENTOS LTDA                013940074000150S T COMERCIO E DISTRIBUIDORA DE AL      RUA GRAVATA, 36                         ILHA DE ITAMARA                         53900000PE374700000600592322044325-1    30072012900BRADESCO S/A        0409201200000000003082750CC                                                                                                                                                                                                                                                                                                                                                                                           191361-36     000109
1048421000613COBR_CAUC_COR  TRIANGULO ALIMENTOS LTDA                013940074000150S T COMERCIO E DISTRIBUIDORA DE AL      RUA GRAVATA, 36                         ILHA DE ITAMARA                         53900000PE374700000700592331044325-2    30072012900BRADESCO S/A        1109201200000000003082750CC                                                                                                                                                                                                                                                                                                                                                                                           191361-37     000110
1048421000613COBR_CAUC_COR  TRIANGULO ALIMENTOS LTDA                013940074000150S T COMERCIO E DISTRIBUIDORA DE AL      RUA GRAVATA, 36                         ILHA DE ITAMARA                         53900000PE374700000800592349044325-3    30072012900BRADESCO S/A        1809201200000000003082750CC                                                                                                                                                                                                                                                                                                                                                                                           191361-38     000111
1048421000613COBR_CAUC_COR  TRIANGULO ALIMENTOS LTDA                013940074000150S T COMERCIO E DISTRIBUIDORA DE AL      RUA GRAVATA, 36                         ILHA DE ITAMARA                         53900000PE374700000900592357044325-4    30072012900BRADESCO S/A        2509201200000000003082750CC                                                                                                                                                                                                                                                                                                                                                                                           191361-39     000112
1048421000613COBR_CAUC_COR  TRIANGULO ALIMENTOS LTDA                013940074000150S T COMERCIO E DISTRIBUIDORA DE AL      RUA GRAVATA, 36                         ILHA DE ITAMARA                         53900000PE374700001000594155044998-1    08082012900BRADESCO S/A        1209201200000000003082750CC                                                                                                                                                                                                                                                                                                                                                                                           191361-40     000113
1048421000613COBR_CAUC_COR  TRIANGULO ALIMENTOS LTDA                013940074000150S T COMERCIO E DISTRIBUIDORA DE AL      RUA GRAVATA, 36                         ILHA DE ITAMARA                         53900000PE374700001100594163044998-2    08082012900BRADESCO S/A        1909201200000000003082750CC                                                                                                                                                                                                                                                                                                                                                                                           191361-41     000114
1048421000613COBR_CAUC_COR  TRIANGULO ALIMENTOS LTDA                013940074000150S T COMERCIO E DISTRIBUIDORA DE AL      RUA GRAVATA, 36                         ILHA DE ITAMARA                         53900000PE374700001200594171044998-3    08082012900BRADESCO S/A        2609201200000000003082750CC                                                                                                                                                                                                                                                                                                                                                                                           191361-42     000115
1048421000613COBR_CAUC_COR  TRIANGULO ALIMENTOS LTDA                013940074000150S T COMERCIO E DISTRIBUIDORA DE AL      RUA GRAVATA, 36                         ILHA DE ITAMARA                         53900000PE374700001300594180044998-4    08082012900BRADESCO S/A        0310201200000000003082750CC                                                                                                                                                                                                                                                                                                                                                                                           191361-43     000116
1048421000613COBR_CAUC_COR  TRIANGULO ALIMENTOS LTDA                014674708000132ROMA -COMERCIO DE OLEOS E GORDUR        RUA CORONEL JOSE BRAS, 1637             MARILIA                                 17502010SP374720000100590818042669-3    10072012900BRADESCO S/A        2808201200000000002190197CC                                                                                                                                                                                                                                                                                                                                                                                           191361-44     000117
1048421000613COBR_CAUC_COR  TRIANGULO ALIMENTOS LTDA                014674708000132ROMA -COMERCIO DE OLEOS E GORDUR        RUA CORONEL JOSE BRAS, 1637             MARILIA                                 17502010SP374720000200591377043758-1    23072012900BRADESCO S/A        0409201200000000003167500CC                                                                                                                                                                                                                                                                                                                                                                                           191361-45     000118
1048421000613COBR_CAUC_COR  TRIANGULO ALIMENTOS LTDA                014674708000132ROMA -COMERCIO DE OLEOS E GORDUR        RUA CORONEL JOSE BRAS, 1637             MARILIA                                 17502010SP374720000300591385043758-2    23072012900BRADESCO S/A        1109201200000000003167500CC                                                                                                                                                                                                                                                                                                                                                                                           191361-46     000119
1048421000613COBR_CAUC_COR  TRIANGULO ALIMENTOS LTDA                014674708000132ROMA -COMERCIO DE OLEOS E GORDUR        RUA CORONEL JOSE BRAS, 1637             MARILIA                                 17502010SP374720000400594287044292-1    30072012900BRADESCO S/A        0509201200000000003150875CC                                                                                                                                                                                                                                                                                                                                                                                           191361-47     000120
1048421000613COBR_CAUC_COR  TRIANGULO ALIMENTOS LTDA                014674708000132ROMA -COMERCIO DE OLEOS E GORDUR        RUA CORONEL JOSE BRAS, 1637             MARILIA                                 17502010SP374720000500594295044292-2    30072012900BRADESCO S/A        1209201200000000003150875CC                                                                                                                                                                                                                                                                                                                                                                                           191361-48     000121
1048421000613COBR_CAUC_COR  TRIANGULO ALIMENTOS LTDA                014674708000132ROMA -COMERCIO DE OLEOS E GORDUR        RUA CORONEL JOSE BRAS, 1637             MARILIA                                 17502010SP374720000600594732044545-1    02082012900BRADESCO S/A        1109201200000000006440000CC                                                                                                                                                                                                                                                                                                                                                                                           191361-49     000122
1048421000613COBR_CAUC_COR  TRIANGULO ALIMENTOS LTDA                014674708000132ROMA -COMERCIO DE OLEOS E GORDUR        RUA CORONEL JOSE BRAS, 1637             MARILIA                                 17502010SP374720000700594864044559-1    02082012900BRADESCO S/A        1309201200000000003253250CC                                                                                                                                                                                                                                                                                                                                                                                           191361-50     000123
1048421000613COBR_CAUC_COR  TRIANGULO ALIMENTOS LTDA                014674708000132ROMA -COMERCIO DE OLEOS E GORDUR        RUA CORONEL JOSE BRAS, 1637             MARILIA                                 17502010SP374720000800594872044559-2    02082012900BRADESCO S/A        2009201200000000003253250CC                                                                                                                                                                                                                                                                                                                                                                                           191361-51     000124
1048421000613COBR_CAUC_COR  TRIANGULO ALIMENTOS LTDA                014674708000132ROMA -COMERCIO DE OLEOS E GORDUR        RUA CORONEL JOSE BRAS, 1637             MARILIA                                 17502010SP374720000900597022044566-1    02082012900BRADESCO S/A        1209201200000000003277750CC                                                                                                                                                                                                                                                                                                                                                                                           191361-52     000125
1048421000613COBR_CAUC_COR  TRIANGULO ALIMENTOS LTDA                014674708000132ROMA -COMERCIO DE OLEOS E GORDUR        RUA CORONEL JOSE BRAS, 1637             MARILIA                                 17502010SP374720001000597031044566-2    02082012900BRADESCO S/A        1909201200000000003277750CC                                                                                                                                                                                                                                                                                                                                                                                           191361-53     000126
1048421000613COBR_CAUC_COR  TRIANGULO ALIMENTOS LTDA                014674708000132ROMA -COMERCIO DE OLEOS E GORDUR        RUA CORONEL JOSE BRAS, 1637             MARILIA                                 17502010SP374720001100597049044577-1    02082012900BRADESCO S/A        1309201200000000003247125CC                                                                                                                                                                                                                                                                                                                                                                                           191361-54     000127
1048421000613COBR_CAUC_COR  TRIANGULO ALIMENTOS LTDA                014674708000132ROMA -COMERCIO DE OLEOS E GORDUR        RUA CORONEL JOSE BRAS, 1637             MARILIA                                 17502010SP374720001200597057044577-2    02082012900BRADESCO S/A        2009201200000000003247125CC                                                                                                                                                                                                                                                                                                                                                                                           191361-55     000128
1048421000613COBR_CAUC_COR  TRIANGULO ALIMENTOS LTDA                014674708000132ROMA -COMERCIO DE OLEOS E GORDUR        RUA CORONEL JOSE BRAS, 1637             MARILIA                                 17502010SP374720001300599947044977-1    08082012900BRADESCO S/A        2009201200000000002100420CC                                                                                                                                                                                                                                                                                                                                                                                           191361-56     000129
1048421000613COBR_CAUC_COR  TRIANGULO ALIMENTOS LTDA                014674708000132ROMA -COMERCIO DE OLEOS E GORDUR        RUA CORONEL JOSE BRAS, 1637             MARILIA                                 17502010SP374720001400599955044977-2    08082012900BRADESCO S/A        2709201200000000002099790CC                                                                                                                                                                                                                                                                                                                                                                                           191361-57     000130
1048421000613COBR_CAUC_COR  TRIANGULO ALIMENTOS LTDA                014674708000132ROMA -COMERCIO DE OLEOS E GORDUR        RUA CORONEL JOSE BRAS, 1637             MARILIA                                 17502010SP374720001500599963044977-3    08082012900BRADESCO S/A        0410201200000000002099790CC                                                                                                                                                                                                                                                                                                                                                                                           191361-58     000131
1048421000613COBR_CAUC_COR  TRIANGULO ALIMENTOS LTDA                014674708000132ROMA -COMERCIO DE OLEOS E GORDUR        RUA CORONEL JOSE BRAS, 1637             MARILIA                                 17502010SP374720001600600961044984-1    08082012900BRADESCO S/A        1809201200000000003245375CC                                                                                                                                                                                                                                                                                                                                                                                           191361-59     000132
1048421000613COBR_CAUC_COR  TRIANGULO ALIMENTOS LTDA                014674708000132ROMA -COMERCIO DE OLEOS E GORDUR        RUA CORONEL JOSE BRAS, 1637             MARILIA                                 17502010SP374720001700600970044984-2    08082012900BRADESCO S/A        2509201200000000003245375CC                                                                                                                                                                                                                                                                                                                                                                                           191361-60     000133
1048421000613COBR_CAUC_BIC  TRIANGULO ALIMENTOS LTDA                008778562000172RACINE DO BRASIL PRODUTOS ALIMENTI      R GUANABARA, 296                        SANTANA DE PARN                         06529220SP374730000100591431043882-2    24072012007PAULISTA            2908201200000000004484552CC                                                                                                                                                                                                                                                                                                                                                                                           191361-61     000134
1048421000613COBR_CAUC_BIC  TRIANGULO ALIMENTOS LTDA                008778562000172RACINE DO BRASIL PRODUTOS ALIMENTI      R GUANABARA, 296                        SANTANA DE PARN                         06529220SP374730000200591440043882-3    24072012007PAULISTA            0509201200000000004484551CC                                                                                                                                                                                                                                                                                                                                                                                           191361-62     000135
1048421000613COBR_CAUC_BIC  TRIANGULO ALIMENTOS LTDA                008778562000172RACINE DO BRASIL PRODUTOS ALIMENTI      R GUANABARA, 296                        SANTANA DE PARN                         06529220SP374730000300591458044001-1    25072012007PAULISTA            0909201200000000005058000CC                                                                                                                                                                                                                                                                                                                                                                                           191361-63     000136
1048421000613COBR_CAUC_BIC  TRIANGULO ALIMENTOS LTDA                008778562000172RACINE DO BRASIL PRODUTOS ALIMENTI      R GUANABARA, 296                        SANTANA DE PARN                         06529220SP374730000400593230044088-1    26072012007PAULISTA            3008201200000000004404047CC                                                                                                                                                                                                                                                                                                                                                                                           191361-64     000137
1048421000613COBR_CAUC_BIC  TRIANGULO ALIMENTOS LTDA                008778562000172RACINE DO BRASIL PRODUTOS ALIMENTI      R GUANABARA, 296                        SANTANA DE PARN                         06529220SP374730000500593248044088-2    26072012007PAULISTA            0609201200000000004402726CC                                                                                                                                                                                                                                                                                                                                                                                           191361-65     000138
1048421000613COBR_CAUC_BIC  TRIANGULO ALIMENTOS LTDA                008778562000172RACINE DO BRASIL PRODUTOS ALIMENTI      R GUANABARA, 296                        SANTANA DE PARN                         06529220SP374730000600593256044088-3    26072012007PAULISTA            1309201200000000004402727CC                                                                                                                                                                                                                                                                                                                                                                                           191361-66     000139
1048421000613COBR_CAUC_BIC  TRIANGULO ALIMENTOS LTDA                008778562000172RACINE DO BRASIL PRODUTOS ALIMENTI      R GUANABARA, 296                        SANTANA DE PARN                         06529220SP374730000700593981044513-1    01082012007PAULISTA            0309201200000000004575915CC                                                                                                                                                                                                                                                                                                                                                                                           191361-67     000140
1048421000613COBR_CAUC_BIC  TRIANGULO ALIMENTOS LTDA                008778562000172RACINE DO BRASIL PRODUTOS ALIMENTI      R GUANABARA, 296                        SANTANA DE PARN                         06529220SP374730000800593990044513-2    01082012007PAULISTA            1009201200000000004574543CC                                                                                                                                                                                                                                                                                                                                                                                           191361-68     000141
1048421000613COBR_CAUC_BIC  TRIANGULO ALIMENTOS LTDA                008778562000172RACINE DO BRASIL PRODUTOS ALIMENTI      R GUANABARA, 296                        SANTANA DE PARN                         06529220SP374730000900594007044513-3    01082012007PAULISTA            1709201200000000004574542CC                                                                                                                                                                                                                                                                                                                                                                                           191361-69     000142
