0REMESSANOTIFICAÇÃO ELETRONICA        99999999999999Bicbanco S/A                            Avenida Paulista , 1048 12º andar                           BELA VISTA                    SÃO PAULO                     01310100SPBicbanco S/A                                                                    04082010                                                                                                                                                                                                                                                                                                                                                                                                000001
1019141006553COBR_CAUC_BIC  ORTENG EQUIPAMENTOS E SISTEMAS LTDA     009276819000150CONSORCIO NOVO CENPES                   PRAIA DO BOTAFOGO 440 19 ANDAR          RIO DE JANEIRO                          22250040RJ23558000010531922228024/11    05072010014RIO DE JANEIRO      1608201000000000187378208TD                                                                                                                                                                                                                                                                                                                                                                                           107842-1      000002
1019141006553COBR_CAUC_BIC  ORTENG EQUIPAMENTOS E SISTEMAS LTDA     009276819000150CONSORCIO NOVO CENPES                   PRAIA DO BOTAFOGO 440 19 ANDAR          RIO DE JANEIRO                          22250040RJ23558000020531923128024/12    05072010014RIO DE JANEIRO      1608201000000000156957469TD                                                                                                                                                                                                                                                                                                                                                                                           107842-2      000003
1019141006553COBR_CAUC_BIC  ORTENG EQUIPAMENTOS E SISTEMAS LTDA     009276819000150CONSORCIO NOVO CENPES                   PRAIA DO BOTAFOGO 440 19 ANDAR          RIO DE JANEIRO                          22250040RJ23558000030531924928024/13    05072010014RIO DE JANEIRO      1608201000000000134203040TD                                                                                                                                                                                                                                                                                                                                                                                           107842-3      000004
1019141006553COBR_CAUC_BIC  ORTENG EQUIPAMENTOS E SISTEMAS LTDA     009276819000150CONSORCIO NOVO CENPES                   PRAIA DO BOTAFOGO 440 19 ANDAR          RIO DE JANEIRO                          22250040RJ23558000040531925728024/13A   05072010014RIO DE JANEIRO      1608201000000000047433851TD                                                                                                                                                                                                                                                                                                                                                                                           107842-4      000005
1019141006553COBR_CAUC_BIC  ORTENG EQUIPAMENTOS E SISTEMAS LTDA     009276819000150CONSORCIO NOVO CENPES                   PRAIA DO BOTAFOGO 440 19 ANDAR          RIO DE JANEIRO                          22250040RJ23558000050531926528024/13B   05072010014RIO DE JANEIRO      1608201000000000020021140TD                                                                                                                                                                                                                                                                                                                                                                                           107842-5      000006
1019141006553COBR_CAUC_BIC  ORTENG EQUIPAMENTOS E SISTEMAS LTDA     009276819000150CONSORCIO NOVO CENPES                   PRAIA DO BOTAFOGO 440 19 ANDAR          RIO DE JANEIRO                          22250040RJ23558000060531927328024/15A   05072010014RIO DE JANEIRO      1608201000000000132226432TD                                                                                                                                                                                                                                                                                                                                                                                           107842-6      000007
1019141006553COBR_CAUC_BIC  ORTENG EQUIPAMENTOS E SISTEMAS LTDA     009276819000150CONSORCIO NOVO CENPES                   PRAIA DO BOTAFOGO 440 19 ANDAR          RIO DE JANEIRO                          22250040RJ23558000070531928128025/12    05072010014RIO DE JANEIRO      1608201000000000036839748TD                                                                                                                                                                                                                                                                                                                                                                                           107842-7      000008
1019141006553COBR_CAUC_BIC  ORTENG EQUIPAMENTOS E SISTEMAS LTDA     009276819000150CONSORCIO NOVO CENPES                   PRAIA DO BOTAFOGO 440 19 ANDAR          RIO DE JANEIRO                          22250040RJ23558000080531929028025/13    05072010014RIO DE JANEIRO      1608201000000000039769630TD                                                                                                                                                                                                                                                                                                                                                                                           107842-8      000009
1019141006553COBR_CAUC_BIC  ORTENG EQUIPAMENTOS E SISTEMAS LTDA     009276819000150CONSORCIO NOVO CENPES                   PRAIA DO BOTAFOGO 440 19 ANDAR          RIO DE JANEIRO                          22250040RJ23558000090531930328025/14A   05072010014RIO DE JANEIRO      1608201000000000026388287TD                                                                                                                                                                                                                                                                                                                                                                                           107842-9      000010
1019141006553COBR_CAUC_BIC  ORTENG EQUIPAMENTOS E SISTEMAS LTDA     009276819000150CONSORCIO NOVO CENPES                   PRAIA DO BOTAFOGO 440 19 ANDAR          RIO DE JANEIRO                          22250040RJ23558000100531932028024/15B   05072010014RIO DE JANEIRO      1608201000000000022333308TD                                                                                                                                                                                                                                                                                                                                                                                           107842-10     000011
1028421002921COBR_CAUC_COR  FRIGORIFICO MATABOI S/A                 005654938000149SUPERMERCADO VERAN DE POA LTDA          AV VINTE E SEIS DE MARCO 187            POA                                     08562140SP2355900001001863630003634401  30072010900BRADESCO S/A        2008201000000000011408460CC                                                                                                                                                                                                                                                                                                                                                                                           107842-11     000012
1028421002921COBR_CAUC_COR  FRIGORIFICO MATABOI S/A                 085782878000189FRIGORIFICO RIOSULENSE S/A              ROD. BR 470 KM 150 CAIXA POSTAL 26      RIO DO SUL                              89160000SC2356000001001871490010959001  30072010900BRADESCO S/A        2908201000000000015395490CC                                                                                                                                                                                                                                                                                                                                                                                           107842-12     000013
1046421000617COBR_CAUC_BIC  INPLAC INDUSTRIA DE PLASTICOS S/A       004716366000112EMBALAGENS FLEXIVEIS DIADEMA SA         AV FUNDIBEM ,184                        DIADEMA                                 09961390SP235610000100780859001149959   31072010038ABC                 0309201000000000010514328CC                                                                                                                                                                                                                                                                                                                                                                                           107842-13     000014
1038420935263COBR_CAUC_COR  MERCANTE TUBOS E ACOS LTDA              020860656000191FRANCOFER PRODUTOS SIDERURGICO          AV MONTEIRO LOBATO NR 40                IPATINGA                                35162394MG2356200001088476201635501     27072010600HSBC BANK BRASIL    2608201000000000014404677CC                                                                                                                                                                                                                                                                                                                                                                                           107842-14     000015
1038420935263COBR_CAUC_BIC  MERCANTE TUBOS E ACOS LTDA              041757527000142AETHRA SISTEMAS AUTOM. S.A.             RUA CAROLINA 51                         BETIM                                   32686190MG2356300001088473011648101     30072010019BELO HORIZONTE      1309201000000000012889555CC                                                                                                                                                                                                                                                                                                                                                                                           107842-15     000016
1021420930887COBR_CAUC_BIC  DEDINI S/A INDUSTRIAS DE BASE           053009825000133USINA ALTA MOGIANA S A - ACUCAR E       FAZ SANTANA ZONA RURAL BR               SAO JOAQUIM DA                          14600000SP23564000010587229112617-2-2   30072010022RIBEIRAO PRETO      2008201000000000010204808CC                                                                                                                                                                                                                                                                                                                                                                                           107842-16     000017
1021420930887COBR_CAUC_COR  DEDINI S/A INDUSTRIAS DE BASE           080539612000862COOP AGROP DOS CAFEICULTORES DE PO      ROD.JOAO LUNARDELLI PR-170BR            FLORESTOPOLIS                           86165000PR235650000105872304122463-4-4  30072010900BRADESCO S/A        3011201000000000021215253CC                                                                                                                                                                                                                                                                                                                                                                                           107842-17     000018
9000017                                                                                                                                                                                                                                                                                                                                                                                                                                                                                                                                                                                                                                                                                                               000019
