0REMESSANOTIFICAÇÃO ELETRONICA        99999999999999Bicbanco S/A                            Avenida Brigadeiro Faria Lima           4.440     2º andar  Itaim Bibi                    São Paulo                     04538132SPBicbanco S/A                                                                    22052012                                                                                                                                                                                                                                                                                                                                                                                                000001
1007421027229COBR_CAUC_COR  ARFRIO S/A ARM GERAIS FRIGORIFICO       002279324000136GDC ALIMENTOS S/A                       RUA EUGENIO PEZZINI,500                 ITAJAI                                  88311000SC354240000100030081000052      16052012900BRADESCO S/A        2505201200000000010002062CC                                                                                                                                                                                                                                                                                                                                                                                           175705-1      000002
1046421001443COBR_CAUC_COR  COSTAO DO SANTINHO TUR E LAZER LTDA     013025489000106CENTRAL DE EVENTOS CONSULTORIA EMP      ALAMEDA MADEIRA,44-LOJA 35              BARUERI                                 06454010SP354250000100005731136383-U    11052012900BRADESCO S/A        3105201200000000132203255CC                                                                                                                                                                                                                                                                                                                                                                                           175705-2      000003
1046421001443COBR_CAUC_COR  COSTAO DO SANTINHO TUR E LAZER LTDA     028152684001561BBTUR VIAGENS E TURISMO LTDA            RUA COMENDADOR ARAUJO,143-14 ANDAR      CURITIBA                                80420900PR354260000100005758136716-U    14052012900BRADESCO S/A        1106201200000000043972328CC                                                                                                                                                                                                                                                                                                                                                                                           175705-3      000004
1018421002967DIR_CREDIT     RENTAL FROTA DIST. E LOGISTICA LTDA     015111297000130EMPRESA EDITORA A TARDE S/A             R PROF MILTON CAYRES DE BRITO, 204      SALVADOR                                41820570BA3543000001                                                                                                                                          001180981           260720070000002401S/Nº        11052012003306Prestação serviços diários e ininterruptos de distribuição do Diário Jornal à Tarde utilizando veículos e mão de obra própria.                                                                                                                  097415681000190175705-4      000005
1046421006070DIR_CREDIT     METALURGICA DS LTDA                     060857349000176TRW AUTOMOTIVE LTDA                     VIA ANHANGUERA KM 147                   LIMEIRA                                 13486915SP3543700001                                                                                                                                          011859102           260320070000018698            16052012017002fornecimento de discos e tambores de freio para automoveis                                                                                                                                                                                      079414868000198175705-5      000006
1021000000000DIR_CREDIT     BUENO CAFE COM E EXPORTACAO LTDA        000009502742834JOAO FARIA DA SILVA                     AV. ADORVANO JOSé VALLIN Nº 875 A       SãO JOãO DA BOA VIST                    13877770SP3544300001                                                                                                                                          011844129           190920110000021503S/N         16052012017002Cessão de 10% ou seja 100% das cotas de capital social integralizadaspelo cedente na empresa Terra Forte Exp.e Imp. de Café Ltda;Grande Leste Exp.e Imp.de Café Ltda e Campo Verde Armazéns Gerais Ltda.                                        063466308000090175705-6      000007
1047421000933COBR_CAUC_COR  AQUECEDOR SOLAR TRANSSEN LTDA           002792640000107MARCOS ANTONIO ALVES PISCINAS           AV. DAS EMBAUBAS, 1836                  SINOP                                   78550110MT354440000101284271000033362E  07022012900BRADESCO S/A        1607201200000000000162198CC                                                                                                                                                                                                                                                                                                                                                                                           175705-7      000008
1047421000933COBR_CAUC_COR  AQUECEDOR SOLAR TRANSSEN LTDA           002792640000107MARCOS ANTONIO ALVES PISCINAS           AV. DAS EMBAUBAS, 1836                  SINOP                                   78550110MT354440000201284289000033518E  10022012900BRADESCO S/A        1607201200000000000010800CC                                                                                                                                                                                                                                                                                                                                                                                           175705-8      000009
1047421000933COBR_CAUC_COR  AQUECEDOR SOLAR TRANSSEN LTDA           002792640000107MARCOS ANTONIO ALVES PISCINAS           AV. DAS EMBAUBAS, 1836                  SINOP                                   78550110MT354440000301284297000033956D  27022012900BRADESCO S/A        0907201200000000000163314CC                                                                                                                                                                                                                                                                                                                                                                                           175705-9      000010
1047421000933COBR_CAUC_COR  AQUECEDOR SOLAR TRANSSEN LTDA           011077660000197R2 EMPREENDIMENTOS LTDA                 RUA 1926, 626                           BALNEARIO CAMBO                         88330428SC354450000101284700000030695G  22112011900BRADESCO S/A        1207201200000000000171495CC                                                                                                                                                                                                                                                                                                                                                                                           175705-10     000011
1047421000933COBR_CAUC_COR  AQUECEDOR SOLAR TRANSSEN LTDA           011077660000197R2 EMPREENDIMENTOS LTDA                 RUA 1926, 626                           BALNEARIO CAMBO                         88330428SC354450000201284718000030695H  22112011900BRADESCO S/A        1308201200000000000171495CC                                                                                                                                                                                                                                                                                                                                                                                           175705-11     000012
1047421000933COBR_CAUC_COR  AQUECEDOR SOLAR TRANSSEN LTDA           000005504353874SAMUEL CESAR JARDIM                     RUA JOAO GALO, 2316                     BIRIGUI                                 16200381SP354460000101354279000033638F  15022012900BRADESCO S/A        1008201200000000000125000CC                                                                                                                                                                                                                                                                                                                                                                                           175705-12     000013
1047421000933COBR_CAUC_COR  AQUECEDOR SOLAR TRANSSEN LTDA           000005504353874SAMUEL CESAR JARDIM                     RUA JOAO GALO, 2316                     BIRIGUI                                 16200381SP354460000201354287000033638G  15022012900BRADESCO S/A        1009201200000000000125000CC                                                                                                                                                                                                                                                                                                                                                                                           175705-13     000014
1047421000933COBR_CAUC_COR  AQUECEDOR SOLAR TRANSSEN LTDA           000005504353874SAMUEL CESAR JARDIM                     RUA JOAO GALO, 2316                     BIRIGUI                                 16200381SP354460000301354295000033638H  15022012900BRADESCO S/A        1010201200000000000125000CC                                                                                                                                                                                                                                                                                                                                                                                           175705-14     000015
1047421000933COBR_CAUC_BIC  AQUECEDOR SOLAR TRANSSEN LTDA           007737233000110SANVEL HOTEIS E POUSADAS LTDA           RUA URBANO NETO, 121                     ARACAJU                                49035190SE354470000101284564000025051E  17022012045ARACAJU             1607201200000000000400001CC                                                                                                                                                                                                                                                                                                                                                                                           175705-15     000016
1047421000933COBR_CAUC_COR  AQUECEDOR SOLAR TRANSSEN LTDA           007590836000132FERRAZ POCO PROJETOS E CONST.L          CAMPO SALLES,97 CJ-63                   ARACATUBA                               16010000SP354480000101354317000035084E  28032012900BRADESCO S/A        3007201200000000000204002CC                                                                                                                                                                                                                                                                                                                                                                                           175705-16     000017
1047421000933COBR_CAUC_COR  AQUECEDOR SOLAR TRANSSEN LTDA           007590836000132FERRAZ POCO PROJETOS E CONST.L          CAMPO SALLES,97 CJ-63                   ARACATUBA                               16010000SP354480000201354325000035084F  28032012900BRADESCO S/A        2808201200000000000204002CC                                                                                                                                                                                                                                                                                                                                                                                           175705-17     000018
1047421000933COBR_CAUC_COR  AQUECEDOR SOLAR TRANSSEN LTDA           007590836000132FERRAZ POCO PROJETOS E CONST.L          CAMPO SALLES,97 CJ-63                   ARACATUBA                               16010000SP354480000301354333000035084G  28032012900BRADESCO S/A        2809201200000000000204002CC                                                                                                                                                                                                                                                                                                                                                                                           175705-18     000019
1047421000933COBR_CAUC_COR  AQUECEDOR SOLAR TRANSSEN LTDA           000013553405864FLAVIO MAMBREU MENEZES                  RUA RIBEIRO DE BARROS, 519              BIRIGUI                                 16200071SP354490000101284211000033440F  09022012900BRADESCO S/A        3007201200000000000748640CC                                                                                                                                                                                                                                                                                                                                                                                           175705-19     000020
1047421000933COBR_CAUC_COR  AQUECEDOR SOLAR TRANSSEN LTDA           000013553405864FLAVIO MAMBREU MENEZES                  RUA RIBEIRO DE BARROS, 519              BIRIGUI                                 16200071SP354490000201284220000033441F  09022012900BRADESCO S/A        3007201200000000000001619CC                                                                                                                                                                                                                                                                                                                                                                                           175705-20     000021
1047421000933COBR_CAUC_BIC  AQUECEDOR SOLAR TRANSSEN LTDA           039542220000182ENGEPOM EQUIPAMENTOS PARA REFR          RUA LAURA DE ARAUJO, 118 SALA 201       RIO DE JANEIRO                          20211170RJ354500000101360651000035769A  20042012014RIO DE JANEIRO      2505201200000000000766667CC                                                                                                                                                                                                                                                                                                                                                                                           175705-21     000022
1047421000933COBR_CAUC_BIC  AQUECEDOR SOLAR TRANSSEN LTDA           039542220000182ENGEPOM EQUIPAMENTOS PARA REFR          RUA LAURA DE ARAUJO, 118 SALA 201       RIO DE JANEIRO                          20211170RJ354500000201360660000035769B  20042012014RIO DE JANEIRO      2506201200000000000766667CC                                                                                                                                                                                                                                                                                                                                                                                           175705-22     000023
1047421000933COBR_CAUC_BIC  AQUECEDOR SOLAR TRANSSEN LTDA           039542220000182ENGEPOM EQUIPAMENTOS PARA REFR          RUA LAURA DE ARAUJO, 118 SALA 201       RIO DE JANEIRO                          20211170RJ354500000301360678000035769C  20042012014RIO DE JANEIRO      2407201200000000000766666CC                                                                                                                                                                                                                                                                                                                                                                                           175705-23     000024
1047421000933COBR_CAUC_BIC  AQUECEDOR SOLAR TRANSSEN LTDA           011910437000189JG DE OLIVEIRA E CIA LTDA - ME          LADEIRA DR GERALDO MELO, 161            MACEIO                                  57051240AL354510000101361011000035178C  30032012017MACEIO              1207201200000000000052500CC                                                                                                                                                                                                                                                                                                                                                                                           175705-24     000025
1047421000933COBR_CAUC_BIC  AQUECEDOR SOLAR TRANSSEN LTDA           011910437000189JG DE OLIVEIRA E CIA LTDA - ME          LADEIRA DR GERALDO MELO, 161            MACEIO                                  57051240AL354510000201360694000034555A  15032012017MACEIO              2205201200000000000099667CC                                                                                                                                                                                                                                                                                                                                                                                           175705-25     000026
1047421000933COBR_CAUC_BIC  AQUECEDOR SOLAR TRANSSEN LTDA           011910437000189JG DE OLIVEIRA E CIA LTDA - ME          LADEIRA DR GERALDO MELO, 161            MACEIO                                  57051240AL354510000301360708000034555B  15032012017MACEIO              1306201200000000000099667CC                                                                                                                                                                                                                                                                                                                                                                                           175705-26     000027
1047421000933COBR_CAUC_BIC  AQUECEDOR SOLAR TRANSSEN LTDA           011910437000189JG DE OLIVEIRA E CIA LTDA - ME          LADEIRA DR GERALDO MELO, 161            MACEIO                                  57051240AL354510000401360716000034555C  15032012017MACEIO              1307201200000000000099666CC                                                                                                                                                                                                                                                                                                                                                                                           175705-27     000028
1047421000933COBR_CAUC_BIC  AQUECEDOR SOLAR TRANSSEN LTDA           011910437000189JG DE OLIVEIRA E CIA LTDA - ME          LADEIRA DR GERALDO MELO, 161            MACEIO                                  57051240AL354510000501360724000034556A  15032012017MACEIO              2205201200000000000442267CC                                                                                                                                                                                                                                                                                                                                                                                           175705-28     000029
1047421000933COBR_CAUC_BIC  AQUECEDOR SOLAR TRANSSEN LTDA           011910437000189JG DE OLIVEIRA E CIA LTDA - ME          LADEIRA DR GERALDO MELO, 161            MACEIO                                  57051240AL354510000601360732000034556B  15032012017MACEIO              1306201200000000000442267CC                                                                                                                                                                                                                                                                                                                                                                                           175705-29     000030
1047421000933COBR_CAUC_BIC  AQUECEDOR SOLAR TRANSSEN LTDA           011910437000189JG DE OLIVEIRA E CIA LTDA - ME          LADEIRA DR GERALDO MELO, 161            MACEIO                                  57051240AL354510000701360741000034556C  15032012017MACEIO              1307201200000000000442266CC                                                                                                                                                                                                                                                                                                                                                                                           175705-30     000031
1047421000933COBR_CAUC_BIC  AQUECEDOR SOLAR TRANSSEN LTDA           011910437000189JG DE OLIVEIRA E CIA LTDA - ME          LADEIRA DR GERALDO MELO, 161            MACEIO                                  57051240AL354510000801360767000035090B  28032012017MACEIO              2805201200000000000035133CC                                                                                                                                                                                                                                                                                                                                                                                           175705-31     000032
1047421000933COBR_CAUC_BIC  AQUECEDOR SOLAR TRANSSEN LTDA           011910437000189JG DE OLIVEIRA E CIA LTDA - ME          LADEIRA DR GERALDO MELO, 161            MACEIO                                  57051240AL354510000901360775000035090C  28032012017MACEIO              2706201200000000000035134CC                                                                                                                                                                                                                                                                                                                                                                                           175705-32     000033
1047421000933COBR_CAUC_BIC  AQUECEDOR SOLAR TRANSSEN LTDA           011910437000189JG DE OLIVEIRA E CIA LTDA - ME          LADEIRA DR GERALDO MELO, 161            MACEIO                                  57051240AL354510001001360791000035104B  28032012017MACEIO              2805201200000000000094500CC                                                                                                                                                                                                                                                                                                                                                                                           175705-33     000034
1047421000933COBR_CAUC_BIC  AQUECEDOR SOLAR TRANSSEN LTDA           011910437000189JG DE OLIVEIRA E CIA LTDA - ME          LADEIRA DR GERALDO MELO, 161            MACEIO                                  57051240AL354510001101360805000035104C  28032012017MACEIO              2706201200000000000094500CC                                                                                                                                                                                                                                                                                                                                                                                           175705-34     000035
1047421000933COBR_CAUC_BIC  AQUECEDOR SOLAR TRANSSEN LTDA           011910437000189JG DE OLIVEIRA E CIA LTDA - ME          LADEIRA DR GERALDO MELO, 161            MACEIO                                  57051240AL354510001201360821000035105B  28032012017MACEIO              2805201200000000000020933CC                                                                                                                                                                                                                                                                                                                                                                                           175705-35     000036
1047421000933COBR_CAUC_BIC  AQUECEDOR SOLAR TRANSSEN LTDA           011910437000189JG DE OLIVEIRA E CIA LTDA - ME          LADEIRA DR GERALDO MELO, 161            MACEIO                                  57051240AL354510001301360830000035105C  28032012017MACEIO              2706201200000000000020934CC                                                                                                                                                                                                                                                                                                                                                                                           175705-36     000037
1047421000933COBR_CAUC_BIC  AQUECEDOR SOLAR TRANSSEN LTDA           011910437000189JG DE OLIVEIRA E CIA LTDA - ME          LADEIRA DR GERALDO MELO, 161            MACEIO                                  57051240AL354510001401360856000035106B  28032012017MACEIO              2805201200000000000064200CC                                                                                                                                                                                                                                                                                                                                                                                           175705-37     000038
1047421000933COBR_CAUC_BIC  AQUECEDOR SOLAR TRANSSEN LTDA           011910437000189JG DE OLIVEIRA E CIA LTDA - ME          LADEIRA DR GERALDO MELO, 161            MACEIO                                  57051240AL354510001501360864000035106C  28032012017MACEIO              2706201200000000000064200CC                                                                                                                                                                                                                                                                                                                                                                                           175705-38     000039
1047421000933COBR_CAUC_BIC  AQUECEDOR SOLAR TRANSSEN LTDA           011910437000189JG DE OLIVEIRA E CIA LTDA - ME          LADEIRA DR GERALDO MELO, 161            MACEIO                                  57051240AL354510001601360881000035108B  28032012017MACEIO              2805201200000000000039333CC                                                                                                                                                                                                                                                                                                                                                                                           175705-39     000040
1047421000933COBR_CAUC_BIC  AQUECEDOR SOLAR TRANSSEN LTDA           011910437000189JG DE OLIVEIRA E CIA LTDA - ME          LADEIRA DR GERALDO MELO, 161            MACEIO                                  57051240AL354510001701360899000035108C  28032012017MACEIO              2706201200000000000039334CC                                                                                                                                                                                                                                                                                                                                                                                           175705-40     000041
1047421000933COBR_CAUC_BIC  AQUECEDOR SOLAR TRANSSEN LTDA           011910437000189JG DE OLIVEIRA E CIA LTDA - ME          LADEIRA DR GERALDO MELO, 161            MACEIO                                  57051240AL354510001801360911000035170B  30032012017MACEIO              0406201200000000000269100CC                                                                                                                                                                                                                                                                                                                                                                                           175705-41     000042
1047421000933COBR_CAUC_BIC  AQUECEDOR SOLAR TRANSSEN LTDA           011910437000189JG DE OLIVEIRA E CIA LTDA - ME          LADEIRA DR GERALDO MELO, 161            MACEIO                                  57051240AL354510001901360929000035170C  30032012017MACEIO              0407201200000000000269100CC                                                                                                                                                                                                                                                                                                                                                                                           175705-42     000043
1047421000933COBR_CAUC_BIC  AQUECEDOR SOLAR TRANSSEN LTDA           011910437000189JG DE OLIVEIRA E CIA LTDA - ME          LADEIRA DR GERALDO MELO, 161            MACEIO                                  57051240AL354510002001360937000035176A  30032012017MACEIO              2205201200000000000104000CC                                                                                                                                                                                                                                                                                                                                                                                           175705-43     000044
1047421000933COBR_CAUC_BIC  AQUECEDOR SOLAR TRANSSEN LTDA           011910437000189JG DE OLIVEIRA E CIA LTDA - ME          LADEIRA DR GERALDO MELO, 161            MACEIO                                  57051240AL354510002101360945000035176B  30032012017MACEIO              1206201200000000000104000CC                                                                                                                                                                                                                                                                                                                                                                                           175705-44     000045
1047421000933COBR_CAUC_BIC  AQUECEDOR SOLAR TRANSSEN LTDA           011910437000189JG DE OLIVEIRA E CIA LTDA - ME          LADEIRA DR GERALDO MELO, 161            MACEIO                                  57051240AL354510002201360953000035176C  30032012017MACEIO              1207201200000000000104000CC                                                                                                                                                                                                                                                                                                                                                                                           175705-45     000046
1047421000933COBR_CAUC_BIC  AQUECEDOR SOLAR TRANSSEN LTDA           011910437000189JG DE OLIVEIRA E CIA LTDA - ME          LADEIRA DR GERALDO MELO, 161            MACEIO                                  57051240AL354510002301360961000035177A  30032012017MACEIO              2205201200000000000104000CC                                                                                                                                                                                                                                                                                                                                                                                           175705-46     000047
1047421000933COBR_CAUC_BIC  AQUECEDOR SOLAR TRANSSEN LTDA           011910437000189JG DE OLIVEIRA E CIA LTDA - ME          LADEIRA DR GERALDO MELO, 161            MACEIO                                  57051240AL354510002401360970000035177B  30032012017MACEIO              1206201200000000000104000CC                                                                                                                                                                                                                                                                                                                                                                                           175705-47     000048
1047421000933COBR_CAUC_BIC  AQUECEDOR SOLAR TRANSSEN LTDA           011910437000189JG DE OLIVEIRA E CIA LTDA - ME          LADEIRA DR GERALDO MELO, 161            MACEIO                                  57051240AL354510002501360988000035177C  30032012017MACEIO              1207201200000000000104000CC                                                                                                                                                                                                                                                                                                                                                                                           175705-48     000049
1047421000933COBR_CAUC_BIC  AQUECEDOR SOLAR TRANSSEN LTDA           011910437000189JG DE OLIVEIRA E CIA LTDA - ME          LADEIRA DR GERALDO MELO, 161            MACEIO                                  57051240AL354510002601360996000035178A  30032012017MACEIO              2205201200000000000052500CC                                                                                                                                                                                                                                                                                                                                                                                           175705-49     000050
1047421000933COBR_CAUC_BIC  AQUECEDOR SOLAR TRANSSEN LTDA           011910437000189JG DE OLIVEIRA E CIA LTDA - ME          LADEIRA DR GERALDO MELO, 161            MACEIO                                  57051240AL354510002701361003000035178B  30032012017MACEIO              1206201200000000000052500CC                                                                                                                                                                                                                                                                                                                                                                                           175705-50     000051
1047421000933COBR_CAUC_BIC  AQUECEDOR SOLAR TRANSSEN LTDA           011910437000189JG DE OLIVEIRA E CIA LTDA - ME          LADEIRA DR GERALDO MELO, 161            MACEIO                                  57051240AL354510002801361020000035369A  05042012017MACEIO              2105201200000000000039800CC                                                                                                                                                                                                                                                                                                                                                                                           175705-51     000052
1047421000933COBR_CAUC_BIC  AQUECEDOR SOLAR TRANSSEN LTDA           011910437000189JG DE OLIVEIRA E CIA LTDA - ME          LADEIRA DR GERALDO MELO, 161            MACEIO                                  57051240AL354510002901361038000035369B  05042012017MACEIO              1906201200000000000039800CC                                                                                                                                                                                                                                                                                                                                                                                           175705-52     000053
1047421000933COBR_CAUC_BIC  AQUECEDOR SOLAR TRANSSEN LTDA           011910437000189JG DE OLIVEIRA E CIA LTDA - ME          LADEIRA DR GERALDO MELO, 161            MACEIO                                  57051240AL354510003001361046000035369C  05042012017MACEIO              1907201200000000000039800CC                                                                                                                                                                                                                                                                                                                                                                                           175705-53     000054
1047421000933COBR_CAUC_BIC  AQUECEDOR SOLAR TRANSSEN LTDA           009401379000116HABIARTE BARC PDG C.DE MADRI I          RUA GALILEU GALILEI, 1800 - ANDAR 10º   RIBEIRAO PRETO                          14020620SP354520000101360589000035523B  11042012022RIBEIRAO PRETO      1806201200000000000084667CC                                                                                                                                                                                                                                                                                                                                                                                           175705-54     000055
1047421000933COBR_CAUC_BIC  AQUECEDOR SOLAR TRANSSEN LTDA           009401379000116HABIARTE BARC PDG C.DE MADRI I          RUA GALILEU GALILEI, 1800 - ANDAR 10º   RIBEIRAO PRETO                          14020620SP354520000201360597000035523C  11042012022RIBEIRAO PRETO      1707201200000000000084666CC                                                                                                                                                                                                                                                                                                                                                                                           175705-55     000056
1047421000933COBR_CAUC_BIC  AQUECEDOR SOLAR TRANSSEN LTDA           009401379000116HABIARTE BARC PDG C.DE MADRI I          RUA GALILEU GALILEI, 1800 - ANDAR 10º   RIBEIRAO PRETO                          14020620SP354520000301360619000035654B  17042012022RIBEIRAO PRETO      1806201200000000003810000CC                                                                                                                                                                                                                                                                                                                                                                                           175705-56     000057
1047421000933COBR_CAUC_BIC  AQUECEDOR SOLAR TRANSSEN LTDA           009401379000116HABIARTE BARC PDG C.DE MADRI I          RUA GALILEU GALILEI, 1800 - ANDAR 10º   RIBEIRAO PRETO                          14020620SP354520000401360627000035654C  17042012022RIBEIRAO PRETO      1707201200000000003810000CC                                                                                                                                                                                                                                                                                                                                                                                           175705-57     000058
1047421000933COBR_CAUC_BIC  AQUECEDOR SOLAR TRANSSEN LTDA           009401379000116HABIARTE BARC PDG C.DE MADRI I          RUA GALILEU GALILEI, 1800 - ANDAR 10º   RIBEIRAO PRETO                          14020620SP354530000101360571000035523A  11042012022RIBEIRAO PRETO      1805201200000000000084667CC                                                                                                                                                                                                                                                                                                                                                                                           175705-58     000059
1047421000933COBR_CAUC_BIC  AQUECEDOR SOLAR TRANSSEN LTDA           009401379000116HABIARTE BARC PDG C.DE MADRI I          RUA GALILEU GALILEI, 1800 - ANDAR 10º   RIBEIRAO PRETO                          14020620SP354530000201360601000035654A  17042012022RIBEIRAO PRETO      1805201200000000003810000CC                                                                                                                                                                                                                                                                                                                                                                                           175705-59     000060
1007420931444COBR_CAUC_BIC  PLASINCO LTDA                           061413282000143LORENZETTI S/A INDUSTRIA BRASILEIR      AV. PRESIDENTE WILSON,1230              SAO PAULO                               03107901SP35454000010124359320248       16052012007PAULISTA            1306201200000000016530192CC                                                                                                                                                                                                                                                                                                                                                                                           175710-1      000061
1021141012725COBR_CAUC_BIC  MABE BRASIL ELETRODOMESTICOS LTDA       047960950003902MAGAZINE LUIZA S/A                      RUA DO COMéRCIO 1.924                   FRANCA                                  14400660SP3545500001063315870000735071  16052012022RIBEIRAO PRETO      1307201200000000010040509TD                                                                                                                                                                                                                                                                                                                                                                                           175710-2      000062
1018421002967DIR_CREDIT     RENTAL FROTA DIST. E LOGISTICA LTDA     015111297000130EMPRESA EDITORA A TARDE S/A             R PROF MILTON CAYRES DE BRITO, 204      SALVADOR                                41820570BA3545900001                                                                                                                                          011817740           260720070000002401S/Nº        17052012000403Prestação serviços diários e ininterruptos de distribuição do Diário Jornal à Tarde utilizando veículos e mão de obra própria.                                                                                                                  097415681000190175710-3      000063
9000062                                                                                                                                                                                                                                                                                                                                                                                                                                                                                                                                                                                                                                                                                                               000064
