0REMESSANOTIFICAÇÃO ELETRONICA        99999999999999Bicbanco S/A                            Avenida Brigadeiro Faria Lima           4.440     2º andar  Itaim Bibi                    São Paulo                     04538132SPBicbanco S/A                                                                    27022014                                                                                                                                                                                                                                                                                                                                                                                                000001
1048421000338COBR_CAUC_COR  FRIGOESTRELA S.A. EM RECUP JUDICIAL     023439441001323ARMAZEM MATEUS S.A.                     AV ENGENHEIRO EMILIANO MACIEIRA DE      SAO LUIS                                65095602MA4654100001076340040108054701  21022014900BRADESCO S/A        2303201400000000010294800CC                                                                                                                                                                                                                                                                                                                                                                                           287526-1      000002
1007421065309COBR_CAUC_BIC  OCEANO IND.GRAFICA E EDITORA LTDA       042179671000101DART DO BRASIL IND E COM LTDA           ESTRADA DA ILHA,870                     RIO DE JANEIRO                          23020230RJ46542000010268595658370       24022014014RIO DE JANEIRO      2503201400000000018292620CC                                                                                                                                                                                                                                                                                                                                                                                           287526-2      000003
1007421068847COBR_CAUC_BIC  PROAROMA IND E COM LTDA                 056370364000118RICLAN S.A.                             AV. PRESIDENTE KENNEDY, 754             RIO CLARO                               13501900SP46543000010268685511205       21022014021CAMPINAS            2103201400000000010625875CC                                                                                                                                                                                                                                                                                                                                                                                           287526-3      000004
1018421034397COBR_CAUC_COR  MISSIONEIRA COM E REP AGROP LTDA        000077380045091ADILSON JOSE DE MARCHI                  R.PROF.CARLOS A.WOLNEY, 255 CENTRO      DIANIPOLIS                              77300000TO46546000010349555116358/01    04012013700BANCO REAL- ABN AMRO3004201400000000026208000CC                                                                                                                                                                                                                                                                                                                                                                                           287526-4      000005
1018421034397COBR_CAUC_COR  MISSIONEIRA COM E REP AGROP LTDA        000077380045091ADILSON JOSE DE MARCHI                  R.PROF.CARLOS A.WOLNEY, 255 CENTRO      DIANIPOLIS                              77300000TO46546000020349556019668/01    28102013700BANCO REAL- ABN AMRO3004201400000000012433800CC                                                                                                                                                                                                                                                                                                                                                                                           287526-5      000006
1018421034397COBR_CAUC_COR  MISSIONEIRA COM E REP AGROP LTDA        000095281819020LEANDRO KOHN                            RUA PERNANMBUCO , SN Q 75L23            LUIS EDUARDO MA                         47850000BA46547000010349554319902/01    12112013900BRADESCO S/A        3005201400000000002518500CC                                                                                                                                                                                                                                                                                                                                                                                           287526-6      000007
1018421034397COBR_CAUC_COR  MISSIONEIRA COM E REP AGROP LTDA        000044460376091IRINEU JOSE VICCINI                     R.DORIVAL CAYMI , SN Q 95LT 11          LUIS EDUARDO MA                         47850000BA46548000010349558619773/01    01112013900BRADESCO S/A        3005201400000000002787600CC                                                                                                                                                                                                                                                                                                                                                                                           287526-7      000008
1018421034397COBR_CAUC_COR  MISSIONEIRA COM E REP AGROP LTDA        000044460376091IRINEU JOSE VICCINI                     R.DORIVAL CAYMI , SN Q 95LT 11          LUIS EDUARDO MA                         47850000BA46548000020349559419907/01    12112013900BRADESCO S/A        3005201400000000023632500CC                                                                                                                                                                                                                                                                                                                                                                                           287526-8      000009
1018421005230COBR_CAUC_BIC  CENTROALCOOL S/A                        015606178000239TERRA FORTE AGRONEGOCIO LTDA            AV.QUEIROZ FILHO, 1700 BL B CS20 SL2    SAO PAULO                               05319000SP46549000010360474152419/AA    06022014007PAULISTA            1205201400000000026000000CC                                                                                                                                                                                                                                                                                                                                                                                           287526-9      000010
1018421005230COBR_CAUC_BIC  CENTROALCOOL S/A                        015606178000239TERRA FORTE AGRONEGOCIO LTDA            AV.QUEIROZ FILHO, 1700 BL B CS20 SL2    SAO PAULO                               05319000SP46549000020360475052419/AB    06022014007PAULISTA            0406201400000000026000000CC                                                                                                                                                                                                                                                                                                                                                                                           287526-10     000011
1048421002195COBR_CAUC_COR  SERVIMED COMERCIAL LTDA                 025102146001493IRMAOS MATTAR E CIA LTDA                RUA ADIB CADAH 443                      TEOFILO OTONI                           37704429MG46550000010148903724903221    21022014900BRADESCO S/A        1803201400000000017087215CC                                                                                                                                                                                                                                                                                                                                                                                           287611-1      000012
1046421001443COBR_CAUC_COR  COSTAO DO SANTINHO TUR E LAZER LTDA     051780468000187JANSSEN CILAG FARMACEUTICA LTDA         RUA GERIVATIBA,207-8A A 11A ANDAR       SAO PAULO                               05501900SP46551000010001346725022014    25022014900BRADESCO S/A        1503201400000000080000000CC                                                                                                                                                                                                                                                                                                                                                                                           287611-2      000013
1007421061931COBR_CAUC_COR  EBF VAZ INDUSTRIA E COMERCIO LTDA       002513526000109CICLO CAIRU LTDA                        R Cairu 601                             Pimenta Bueno                           76970000RO46552000010269162000044491/1  24022014900BRADESCO S/A        2504201400000000014409775CC                                                                                                                                                                                                                                                                                                                                                                                           287611-3      000014
1007421034080COBR_CAUC_BIC  SIDMEX INTERNACIONAL LTDA               050607514000188KORECOM MODAS LTDA.                     JOSE PAULINO,664-666                    SAO PAULO                               01120000SP46553000010268722391113       25022014007PAULISTA            2004201400000000022719774CC                                                                                                                                                                                                                                                                                                                                                                                           287611-4      000015
9000014                                                                                                                                                                                                                                                                                                                                                                                                                                                                                                                                                                                                                                                                                                               000016
