0REMESSANOTIFICAÇÃO ELETRONICA        99999999999999Bicbanco S/A                            Avenida Brigadeiro Faria Lima           4.440     2º andar  Itaim Bibi                    São Paulo                     04538132SPBicbanco S/A                                                                    27082012                                                                                                                                                                                                                                                                                                                                                                                                000001
1021420930887COBR_CAUC_COR  DEDINI S/A INDUSTRIAS DE BASE           048295562001450USINA ALTO ALEGRE S A - ACUCAR E A      RUA JOSE LEITE, 40 JD BONGIOVANI BR     PRESIDENTE PRUD                         19050910SP37250000010635068926389-2-2   15082012900BRADESCO S/A        3008201200000000012079600CC                                                                                                                                                                                                                                                                                                                                                                                           190573-1      000002
1021420930887COBR_CAUC_COR  DEDINI S/A INDUSTRIAS DE BASE           060329174000124US AC S MANOEL S A                      FAZENDA BOA VISTA, S N ZONA RURAL BR    SAO MANUEL                              18650000SP372510000106350701189094-1-1  16082012900BRADESCO S/A        3108201200000000033896550CC                                                                                                                                                                                                                                                                                                                                                                                           190573-2      000003
1022421007720COBR_CAUC_COR  JUMIL-JUSTINO DE MORAIS IRMAOS S/A      007974888000102JOAO EMILIO ROCHETO E OUTROS            CX POSTAL, 21                           PERDIZES                                38170000MG372520000104376349116196E.01  17082012800UNIBANCO S/A        0709201200000000017415800CC                                                                                                                                                                                                                                                                                                                                                                                           190573-3      000004
1022421007720COBR_CAUC_BIC  JUMIL-JUSTINO DE MORAIS IRMAOS S/A      008551535000324AKIRA YOCHIDA                           RUA ORLANDIA, APTO-11, 796              RIBEIRAO PRETO                          14090240SP372530000104376381116148E.01  17082012022RIBEIRAO PRETO      0109201200000000012200000CC                                                                                                                                                                                                                                                                                                                                                                                           190573-4      000005
1003421013987COBR_CAUC_COR  SCIENTIFIC COM E IMPORTACAO LTDA        041338310000106CEDIU-CENTRO DE DIAG ULTRASONOGRAF      RUA PADRE CICERO,774                    JUAZEIRO DO NOR                         63010020CE37254000010002786112503       17082012900BRADESCO S/A        3008201200000000011600000CC                                                                                                                                                                                                                                                                                                                                                                                           190573-5      000006
1014421008439COBR_CAUC_BIC  TV OMEGA LTDA                           009137895000266Kawasaki Motores do Brasil Ltda         Alameda Santos - 9º andar771            SãoPaulo                                01419001SP37255000010453927600012901    17082012007PAULISTA            1509201200000000013603200CC                                                                                                                                                                                                                                                                                                                                                                                           190573-6      000007
1007421043100COBR_CAUC_BIC  MACROPORT INTERNACIONAL LTDA            067854034000114WYDA IND DE EMBALAGENS LTDA             ALAMEDA WYDA, ,109                      SOROCABA                                18086600SP3725600001014031243179        15082012007PAULISTA            0509201200000000020509902CC                                                                                                                                                                                                                                                                                                                                                                                           190573-7      000008
1007420938457DIR_CREDIT     RADIO E TV BANDEIRANTES LTDA            030902803000100IGREJA INTERNACIONAL DA GRAçA DE DEUS   ESTRADA DOS BANDEIRANTES, 1000          RIO DE JANEIRO                          22710571RJ3725700001                                                                                                                                          011947235           010120120000021328            17082012000403c1rato de cessão de horário para veiculação de programa deprodução independente. contratante "r.r.soares"                                                                                                                                       060509239000113190573-8      000009
1015421021743DIR_CREDIT     CENTRO CLINICO GAUCHO LTDA              000773639000100DIVERSOS CONVENIADOS - PF               CEL FREDERICO LINK, 25                  PORTO ALEGRE                            90035010RS3726200001                                                                                                                                          011950200           090720120000021986DIVERSOS CON16082012000403CONVENIOS DE PLANOS DE SAÚDE.                                                                                                                                                                                                                   093956837000190190573-9      000010
1014421018841DIR_CREDIT     ENGUIA GEN BA LTDA                      061695227000193ELETROPAULO METROP ELETRIC SAO PAULO S/AAV DR MARCOS PENTEADO DE ULHOA RODR,939 LJ I E II BARUERI                       06460040SP3726800001                                                                                                                                          010913260           0101200800000122332087/2005   23052011000403FORNECIMENTO DE ENERGIA.                                                                                                                                                                                                                        004735625000152190573-10     000011
1014421018876DIR_CREDIT     ENGUIA GEN CE LTDA                      061695227000193ELETROPAULO METROP ELETRIC SAO PAULO S/AAV DR MARCOS PENTEADO ULHOA RODR, 939   LJ I E II BARUERI                       06460040SP3726900001                                                                                                                                          010913384           0101200800000122432114/2005   14062012000403FORNECIMENTO DE ENERGIA.                                                                                                                                                                                                                        004735629000130190573-11     000012
1014421018876DIR_CREDIT     ENGUIA GEN CE LTDA                      061695227000193ELETROPAULO METROP ELETRIC SAO PAULO S/AAV DR MARCOS PENTEADO ULHOA RODR, 939   LJ I E II BARUERI                       06460040SP3727000001                                                                                                                                          010913384           0101200800000122432114/2005   14062012000403FORNECIMENTO DE ENERGIA.                                                                                                                                                                                                                        004735629000130190573-12     000013
1014421018892DIR_CREDIT     ENGUIA GEN PI LTDA                      061695227000193ELETROPAULO METROP ELETRIC SAO PAULO S/AAV DR MARCOS PENTEADO DE ULHOA RODR,939 LJ I E II BARUERI                       06460040SP3727200001                                                                                                                                          011115660           0101200800000122452141/2005   08092010000403FORNECIMENTO DE ENERGIA.                                                                                                                                                                                                                        004735623000163190573-13     000014
1014421018892DIR_CREDIT     ENGUIA GEN PI LTDA                      061695227000193ELETROPAULO METROP ELETRIC SAO PAULO S/AAV DR MARCOS PENTEADO DE ULHOA RODR,939 LJ I E II BARUERI                       06460040SP3727300001                                                                                                                                          011115660           0101200800000122452141/2005   08092010000403FORNECIMENTO DE ENERGIA.                                                                                                                                                                                                                        004735623000163190573-14     000015
1007420938457DIR_CREDIT     RADIO E TV BANDEIRANTES LTDA            030902803000100IGREJA INTERNACIONAL DA GRAçA DE DEUS   ESTRADA DOS BANDEIRANTES, 1000          RIO DE JANEIRO                          22710571RJ3727400001                                                                                                                                          011947235           010120120000021328            17082012000403c1rato de cessão de horário para veiculação de programa deprodução independente. contratante "r.r.soares"                                                                                                                                       060509239000113190573-15     000016
1044421000297DIR_CREDIT     DOIS A ENGENHARIA E TECNOLOGIA LTDA     008282865000108DER - DEPTO DE ESTRADAS E RODAGEM       AV SENADOR SALGADO FILHO,1808           NATAL                                   59056000RN3720800001                                                                                                                                          011649687           030520100000015084009/2010-PJ 25112011051902execução das obras do 3 progarama de recosntrução de eixos e acessos rodoviários, pertencentes à malha viária estadual, integrantes do lote 3 do edital de licitação 025/2009.                                                                  003092799000181190576-1      000017
1022421000067DIR_CREDIT     ATIVAADM ADMIN.PATRIMONIAL LTDA         009336431000106AUTOPISTA REGIS BITTENCOURT S.A         ROD. SP 139, 226 - SãO NICOLAU          REGISTRO                                11900000SP3721400001                                                                                                                                          011900327           010320120000021691DSU-OBR 040415082012000403implantação de trevo em desnivel do km 326+800, municipio de juquitiba/sp, rodovia regis bittencourt, br-116, trecho são paulo-curitiba, com fornecimento de material                                                                           004810550000127190576-2      000018
1019141010810COBR_CAUC_BIC  LIGAS DE ALUMINIO S/A LIASA             061409892000335CIA BRASILEIRA DE ALUMINIO              ROD.CTBA.RIO BRANCO PR092,1303          CURITIBA                                82130570PR3727500001065406230000148-01  23072012016CURITIBA            0309201200000000014429448TD                                                                                                                                                                                                                                                                                                                                                                                           190576-3      000019
1019141010810COBR_CAUC_BIC  LIGAS DE ALUMINIO S/A LIASA             061409892000335CIA BRASILEIRA DE ALUMINIO              ROD.CTBA.RIO BRANCO PR092,1303          CURITIBA                                82130570PR3727500002065407210016932-01  06082012016CURITIBA            1709201200000000014429448TD                                                                                                                                                                                                                                                                                                                                                                                           190576-4      000020
1024420934410COBR_CAUC_BIC  INTERCOOP INT SUIN MED NORTE MT LTD     061270393000148FRIGORIFICO MARBA LTDA                  AV CEZAR MAGNANI 971,971                SAO BERNARDO                            09694000SP37276000010198842084833       11082012038ABC                 1809201200000000013378145CC                                                                                                                                                                                                                                                                                                                                                                                           190576-5      000021
1038421018922COBR_CAUC_COR  AMEPLAN ASSIST MEDICA PLANEJADA         011031202000117MOBIBRASIL TRANSPORTE URBANO LTDA       R. GENARO DE CARVALHO,145               SAO PAULO                               04377220SP37277000010999572044890       20082012900BRADESCO S/A        2509201200000000013126246CC                                                                                                                                                                                                                                                                                                                                                                                           190576-6      000022
1038421011812COBR_CAUC_BIC  ENERGY COML IMPORT E EXPORT LTDA        009363567000105PREMIX BRASIL RESINAS LTDA              AL ARAGUAIA,2044                        BARUERI                                 06455000SP372780000109808253001213      17072012007PAULISTA            3108201200000000012148951CC                                                                                                                                                                                                                                                                                                                                                                                           190576-7      000023
1038421011812COBR_CAUC_BIC  ENERGY COML IMPORT E EXPORT LTDA        009363567000105PREMIX BRASIL RESINAS LTDA              AL ARAGUAIA,2044                        BARUERI                                 06455000SP372780000209808261001214      17072012007PAULISTA            3108201200000000012212060CC                                                                                                                                                                                                                                                                                                                                                                                           190576-8      000024
1038421011812COBR_CAUC_BIC  ENERGY COML IMPORT E EXPORT LTDA        009363567000105PREMIX BRASIL RESINAS LTDA              AL ARAGUAIA,2044                        BARUERI                                 06455000SP372780000309808270001228      18072012007PAULISTA            3108201200000000012290552CC                                                                                                                                                                                                                                                                                                                                                                                           190576-9      000025
1038421011812COBR_CAUC_BIC  ENERGY COML IMPORT E EXPORT LTDA        009363567000105PREMIX BRASIL RESINAS LTDA              AL ARAGUAIA,2044                        BARUERI                                 06455000SP372780000409808288001229      18072012007PAULISTA            3108201200000000011907719CC                                                                                                                                                                                                                                                                                                                                                                                           190576-10     000026
1038421011812COBR_CAUC_BIC  ENERGY COML IMPORT E EXPORT LTDA        009363567000105PREMIX BRASIL RESINAS LTDA              AL ARAGUAIA,2044                        BARUERI                                 06455000SP372780000509808296001230      19072012007PAULISTA            3108201200000000012261321CC                                                                                                                                                                                                                                                                                                                                                                                           190576-11     000027
1038421011812COBR_CAUC_BIC  ENERGY COML IMPORT E EXPORT LTDA        009363567000105PREMIX BRASIL RESINAS LTDA              AL ARAGUAIA,2044                        BARUERI                                 06455000SP372780000609808300001231      19072012007PAULISTA            3108201200000000012108188CC                                                                                                                                                                                                                                                                                                                                                                                           190576-12     000028
1050421000089COBR_CAUC_COR  ATIVO ALIMENTOS LTDA                    007164263000185KADAO INDUSTRIA DE ALIMENTOS LTDA       ROD GO 206 KM 01 0                      CACU                                    75813000GO372790000100373434149308/1    18082012900BRADESCO S/A        0809201200000000015151410CC                                                                                                                                                                                                                                                                                                                                                                                           190576-13     000029
1038421002945COBR_CAUC_BIC  NEOLIDER COM.IMP.E EXP.DE ACOS LTDA     061182440000100GEA WESTFALIA SEPARATOR DO BRASIL       AV MERCEDES BENZ 679 EDIF 4D2 - 1*      CAMPINAS                                13054750SP372800000109807842045850/01   10082012021CAMPINAS            2409201200000000010356337CC                                                                                                                                                                                                                                                                                                                                                                                           190576-14     000030
1014421023721COBR_CAUC_BIC  VML COMERCIAL IMP E EXP LTDA            060776788000154QUIRIOS PRODUTOS QUIMICOS S.A.          ARNALDO,388                             BARUERI                                 06415110SP3728100001045396244262        20082012007PAULISTA            1609201200000000017500000CC                                                                                                                                                                                                                                                                                                                                                                                           190576-15     000031
1006420932613DIR_CREDIT     NIVEL CONSTRUCOES LTDA                  008805453000105MB ENGENHARIA SPE 004 S/A               AV SENADOR VIRGILIO TAVORA 1500-ALDEOTA FORTALEZA                               60170220CE3728600001                                                                                                                                          011961690           301120100000016589S/N         20082012000401GERENCIAR E EXECUTAR AS OBRAS DE CONSTRUÇAO DO EMPREENDIMENTO THE ONETOWER SITUADO A AV SENADOR VIRGILIO TAVORA 1500 - ALDEOTA - FORTALEZA (CE), ON-DE A INCORPORAÇÃO É DE INTEIRA RESPONSABILIDADE DE BROOKFIELD INCORP S/A.                   002960450000151190576-16     000032
9000031                                                                                                                                                                                                                                                                                                                                                                                                                                                                                                                                                                                                                                                                                                               000033
