0REMESSANOTIFICAÇÃO ELETRONICA        99999999999999Bicbanco S/A                            Avenida Brigadeiro Faria Lima           4.440     2º andar  Itaim Bibi                    São Paulo                     04538132SPBicbanco S/A                                                                    29052014                                                                                                                                                                                                                                                                                                                                                                                                000001
1009421012831COBR_CAUC_COR  ASA ALIMENTOS S/A                       007209331000185REGINA AGROINDUSTRIAL S/A               ESTRADA DO AQUIRAZ,801                  FORTALEZA                               60840970CE4767900001001517980050309     24052014900BRADESCO S/A        2106201400000000013188600CC                                                                                                                                                                                                                                                                                                                                                                                           302899-1      000002
1007421072259COBR_CAUC_COR  BOMBRIL S/A                             002782071000623MEGAFORT DISTRIB IMP E EXP LTDA         AV WILSON TAVARES RIBEIR 1651, LUC1     CONTAGEM                                32183680MG4768000001029466870000018001  30042014900BRADESCO S/A        0906201400000000010803531CC                                                                                                                                                                                                                                                                                                                                                                                           302899-2      000003
1016421008591COBR_CAUC_BIC  GLOBOAVES SAO PAULO AGROAVICOLA LTD     083044016000980TYSON DO BRASIL ALIMENTOS LTDA          ROD BR 487 ESTR BOIADEIRA KM 185,0      CAMPO MOURAO                            87305380PR476810000104509071127559      23052014016CURITIBA            2006201400000000010584000CC                                                                                                                                                                                                                                                                                                                                                                                           302899-3      000004
1008421022487COBR_CAUC_COR  EBP - EMPRESA BRASILEIRA DE PESCADO     033381286000151SUPER MERCADO ZONA SUL S/A              RUA COMANDANTE VERGUEIRO DA CRUZ, 226   RIO DE JANEIRO                          21021020RJ4768200001017619960026515/    23052014900BRADESCO S/A        2606201400000000016000000CC                                                                                                                                                                                                                                                                                                                                                                                           302899-4      000005
1021421017050COBR_CAUC_BIC  STAR DISTR PROD FARMACEUTICOS LTDA      061585865000151RAIA DROGASIL S/A                       AVENIDA CORIFEU DE AZEVEDO MARQUES, 3097SAO PAULO                               05339000SP4768300001000014370000328601  25052014007PAULISTA            1506201400000000016902819CC                                                                                                                                                                                                                                                                                                                                                                                           302899-5      000006
1021421017050COBR_CAUC_BIC  STAR DISTR PROD FARMACEUTICOS LTDA      061585865000151RAIA DROGASIL S/A                       AVENIDA CORIFEU DE AZEVEDO MARQUES, 3097SAO PAULO                               05339000SP4768300002000014450000328801  25052014007PAULISTA            1506201400000000040960904CC                                                                                                                                                                                                                                                                                                                                                                                           302899-6      000007
1007421061990COBR_CAUC_COR  BRASIL MAQUINAS E EQUIP PESADOS S/A     010877219000127EXITO SERVICOS FLORESTAIS               R BENJAMIN CONSTANT,334                 LAGES                                   88501110SC4769500001027726209423C       27022014700BANCO REAL- ABN AMRO1006201400000000002645000CC                                                                                                                                                                                                                                                                                                                                                                                           302899-7      000008
1007421061990COBR_CAUC_COR  BRASIL MAQUINAS E EQUIP PESADOS S/A     010877219000127EXITO SERVICOS FLORESTAIS               R BENJAMIN CONSTANT,334                 LAGES                                   88501110SC4769500002027726389423D       27022014700BANCO REAL- ABN AMRO1007201400000000002645000CC                                                                                                                                                                                                                                                                                                                                                                                           302899-8      000009
1007421061990COBR_CAUC_COR  BRASIL MAQUINAS E EQUIP PESADOS S/A     010877219000127EXITO SERVICOS FLORESTAIS               R BENJAMIN CONSTANT,334                 LAGES                                   88501110SC4769500003027726469423E       27022014700BANCO REAL- ABN AMRO1008201400000000002645000CC                                                                                                                                                                                                                                                                                                                                                                                           302899-9      000010
1007421061990COBR_CAUC_COR  BRASIL MAQUINAS E EQUIP PESADOS S/A     010877219000127EXITO SERVICOS FLORESTAIS               R BENJAMIN CONSTANT,334                 LAGES                                   88501110SC4769500004027726549423F       27022014700BANCO REAL- ABN AMRO1009201400000000002645000CC                                                                                                                                                                                                                                                                                                                                                                                           302899-10     000011
1007421061990COBR_CAUC_COR  BRASIL MAQUINAS E EQUIP PESADOS S/A     010877219000127EXITO SERVICOS FLORESTAIS               R BENJAMIN CONSTANT,334                 LAGES                                   88501110SC4769500005027726629423G       27022014700BANCO REAL- ABN AMRO1010201400000000002645000CC                                                                                                                                                                                                                                                                                                                                                                                           302899-11     000012
1007421061990COBR_CAUC_COR  BRASIL MAQUINAS E EQUIP PESADOS S/A     010877219000127EXITO SERVICOS FLORESTAIS               R BENJAMIN CONSTANT,334                 LAGES                                   88501110SC4769500006027726719423H       27022014700BANCO REAL- ABN AMRO1011201400000000002645000CC                                                                                                                                                                                                                                                                                                                                                                                           302899-12     000013
1007421061990COBR_CAUC_COR  BRASIL MAQUINAS E EQUIP PESADOS S/A     000063179245115REGILEIDE DE MORAES LEITE               AV BANDEIRANTES,49                      NIQUELANDIA                             76420000GO4769600001027727788702D       07022014700BANCO REAL- ABN AMRO1006201400000000002270803CC                                                                                                                                                                                                                                                                                                                                                                                           302899-13     000014
1007421061990COBR_CAUC_COR  BRASIL MAQUINAS E EQUIP PESADOS S/A     000063179245115REGILEIDE DE MORAES LEITE               AV BANDEIRANTES,49                      NIQUELANDIA                             76420000GO4769600002027727868702E       07022014700BANCO REAL- ABN AMRO1007201400000000002270803CC                                                                                                                                                                                                                                                                                                                                                                                           302899-14     000015
1007421061990COBR_CAUC_COR  BRASIL MAQUINAS E EQUIP PESADOS S/A     000063179245115REGILEIDE DE MORAES LEITE               AV BANDEIRANTES,49                      NIQUELANDIA                             76420000GO4769600003027727948702F       07022014700BANCO REAL- ABN AMRO1008201400000000002270803CC                                                                                                                                                                                                                                                                                                                                                                                           302899-15     000016
1007421061990COBR_CAUC_COR  BRASIL MAQUINAS E EQUIP PESADOS S/A     000063179245115REGILEIDE DE MORAES LEITE               AV BANDEIRANTES,49                      NIQUELANDIA                             76420000GO4769600004027728088702G       07022014700BANCO REAL- ABN AMRO1009201400000000002270803CC                                                                                                                                                                                                                                                                                                                                                                                           302899-16     000017
1007421061990COBR_CAUC_COR  BRASIL MAQUINAS E EQUIP PESADOS S/A     000063179245115REGILEIDE DE MORAES LEITE               AV BANDEIRANTES,49                      NIQUELANDIA                             76420000GO4769600005027728168702H       07022014700BANCO REAL- ABN AMRO1010201400000000002270803CC                                                                                                                                                                                                                                                                                                                                                                                           302899-17     000018
1007421061990COBR_CAUC_COR  BRASIL MAQUINAS E EQUIP PESADOS S/A     000063179245115REGILEIDE DE MORAES LEITE               AV BANDEIRANTES,49                      NIQUELANDIA                             76420000GO4769600006027728248702I       07022014700BANCO REAL- ABN AMRO1011201400000000002270803CC                                                                                                                                                                                                                                                                                                                                                                                           302899-18     000019
1007421061990COBR_CAUC_COR  BRASIL MAQUINAS E EQUIP PESADOS S/A     000063179245115REGILEIDE DE MORAES LEITE               AV BANDEIRANTES,49                      NIQUELANDIA                             76420000GO4769600007027728328702J       07022014700BANCO REAL- ABN AMRO1012201400000000002270803CC                                                                                                                                                                                                                                                                                                                                                                                           302899-19     000020
1007421061990COBR_CAUC_COR  BRASIL MAQUINAS E EQUIP PESADOS S/A     000063179245115REGILEIDE DE MORAES LEITE               AV BANDEIRANTES,49                      NIQUELANDIA                             76420000GO4769600008027728418702K       07022014700BANCO REAL- ABN AMRO1001201500000000002270803CC                                                                                                                                                                                                                                                                                                                                                                                           302899-20     000021
1007421061990COBR_CAUC_COR  BRASIL MAQUINAS E EQUIP PESADOS S/A     000063179245115REGILEIDE DE MORAES LEITE               AV BANDEIRANTES,49                      NIQUELANDIA                             76420000GO4769600009027723288702L       07022014700BANCO REAL- ABN AMRO1002201500000000002270803CC                                                                                                                                                                                                                                                                                                                                                                                           302899-21     000022
1007421061990COBR_CAUC_COR  BRASIL MAQUINAS E EQUIP PESADOS S/A     000063179245115REGILEIDE DE MORAES LEITE               AV BANDEIRANTES,49                      NIQUELANDIA                             76420000GO4769600010027727518702M       07022014700BANCO REAL- ABN AMRO1003201500000000002270803CC                                                                                                                                                                                                                                                                                                                                                                                           302899-22     000023
1007421061990COBR_CAUC_COR  BRASIL MAQUINAS E EQUIP PESADOS S/A     000063179245115REGILEIDE DE MORAES LEITE               AV BANDEIRANTES,49                      NIQUELANDIA                             76420000GO4769600011027727438702N       07022014700BANCO REAL- ABN AMRO1004201500000000002270803CC                                                                                                                                                                                                                                                                                                                                                                                           302899-23     000024
1007421076122COBR_CAUC_BIC  BMC HYUNDAI S.A                         012127886000118F ANDREIS NETO                          EST ICA POC,0-S/N                       ALTO PARAISO                            87528000PR47697000010288640410375B      28032014016CURITIBA            3005201400000000003000000CC                                                                                                                                                                                                                                                                                                                                                                                           302899-24     000025
1007421076122COBR_CAUC_BIC  BMC HYUNDAI S.A                         012127886000118F ANDREIS NETO                          EST ICA POC,0-S/N                       ALTO PARAISO                            87528000PR47697000020288641210375C      28032014016CURITIBA            3006201400000000003000000CC                                                                                                                                                                                                                                                                                                                                                                                           302899-25     000026
1007421076122COBR_CAUC_BIC  BMC HYUNDAI S.A                         012127886000118F ANDREIS NETO                          EST ICA POC,0-S/N                       ALTO PARAISO                            87528000PR47697000030288657910375D      28032014016CURITIBA            3007201400000000003000000CC                                                                                                                                                                                                                                                                                                                                                                                           302899-26     000027
1007421076122COBR_CAUC_BIC  BMC HYUNDAI S.A                         012127886000118F ANDREIS NETO                          EST ICA POC,0-S/N                       ALTO PARAISO                            87528000PR47697000040288658710375E      28032014016CURITIBA            3008201400000000003000000CC                                                                                                                                                                                                                                                                                                                                                                                           302899-27     000028
1007421076122COBR_CAUC_BIC  BMC HYUNDAI S.A                         012127886000118F ANDREIS NETO                          EST ICA POC,0-S/N                       ALTO PARAISO                            87528000PR47697000050288659510375F      28032014016CURITIBA            3009201400000000003000000CC                                                                                                                                                                                                                                                                                                                                                                                           302899-28     000029
1007421076122COBR_CAUC_BIC  BMC HYUNDAI S.A                         012127886000118F ANDREIS NETO                          EST ICA POC,0-S/N                       ALTO PARAISO                            87528000PR47697000060288660910375G      28032014016CURITIBA            3010201400000000003000000CC                                                                                                                                                                                                                                                                                                                                                                                           302899-29     000030
1007421076122COBR_CAUC_BIC  BMC HYUNDAI S.A                         012127886000118F ANDREIS NETO                          EST ICA POC,0-S/N                       ALTO PARAISO                            87528000PR47697000070288661710375H      28032014016CURITIBA            3011201400000000003000000CC                                                                                                                                                                                                                                                                                                                                                                                           302899-30     000031
1007421076122COBR_CAUC_BIC  BMC HYUNDAI S.A                         012127886000118F ANDREIS NETO                          EST ICA POC,0-S/N                       ALTO PARAISO                            87528000PR47697000080288662510375I      28032014016CURITIBA            3012201400000000003000000CC                                                                                                                                                                                                                                                                                                                                                                                           302899-31     000032
1007421076122COBR_CAUC_BIC  BMC HYUNDAI S.A                         012127886000118F ANDREIS NETO                          EST ICA POC,0-S/N                       ALTO PARAISO                            87528000PR47697000090288663310375J      28032014016CURITIBA            3001201500000000003000000CC                                                                                                                                                                                                                                                                                                                                                                                           302899-32     000033
1007421076122COBR_CAUC_COR  BMC HYUNDAI S.A                         000302168000151EROMAQ REPRESENTACOES LTDA - ME         R ESPIRITO SANTO,143-SALA 104           SERRA                                   29161123ES4769800001028863911097B       08042014700BANCO REAL- ABN AMRO0707201400000000009742931CC                                                                                                                                                                                                                                                                                                                                                                                           302899-33     000034
1007421076122COBR_CAUC_COR  BMC HYUNDAI S.A                         000302168000151EROMAQ REPRESENTACOES LTDA - ME         R ESPIRITO SANTO,143-SALA 104           SERRA                                   29161123ES476980000202886463879B        26032014700BANCO REAL- ABN AMRO2306201400000000005333300CC                                                                                                                                                                                                                                                                                                                                                                                           302899-34     000035
1007421076122COBR_CAUC_COR  BMC HYUNDAI S.A                         000302168000151EROMAQ REPRESENTACOES LTDA - ME         R ESPIRITO SANTO,143-SALA 104           SERRA                                   29161123ES476980000302886501879C        26032014700BANCO REAL- ABN AMRO2307201400000000005333300CC                                                                                                                                                                                                                                                                                                                                                                                           302899-35     000036
1007421076122COBR_CAUC_COR  BMC HYUNDAI S.A                         000302168000151EROMAQ REPRESENTACOES LTDA - ME         R ESPIRITO SANTO,143-SALA 104           SERRA                                   29161123ES476980000402886439880B        26032014700BANCO REAL- ABN AMRO2306201400000000006666600CC                                                                                                                                                                                                                                                                                                                                                                                           302899-36     000037
1007421076122COBR_CAUC_COR  BMC HYUNDAI S.A                         000302168000151EROMAQ REPRESENTACOES LTDA - ME         R ESPIRITO SANTO,143-SALA 104           SERRA                                   29161123ES476980000502886421880C        26032014700BANCO REAL- ABN AMRO2307201400000000006666600CC                                                                                                                                                                                                                                                                                                                                                                                           302899-37     000038
1007421076122COBR_CAUC_COR  BMC HYUNDAI S.A                         015783338000134S A L - MINERACAO LTDA                  FAZ BANANAL SN,0                        RUBELITA                                39565000MG47699000010288722210470B      31032014700BANCO REAL- ABN AMRO0506201400000000010000000CC                                                                                                                                                                                                                                                                                                                                                                                           302899-38     000039
1007421076122COBR_CAUC_COR  BMC HYUNDAI S.A                         015783338000134S A L - MINERACAO LTDA                  FAZ BANANAL SN,0                        RUBELITA                                39565000MG47699000020288721410470C      31032014700BANCO REAL- ABN AMRO0507201400000000010000000CC                                                                                                                                                                                                                                                                                                                                                                                           302899-39     000040
1007421076122COBR_CAUC_COR  BMC HYUNDAI S.A                         015783338000134S A L - MINERACAO LTDA                  FAZ BANANAL SN,0                        RUBELITA                                39565000MG47699000030288720610470D      31032014700BANCO REAL- ABN AMRO0508201400000000010000000CC                                                                                                                                                                                                                                                                                                                                                                                           302899-40     000041
1007421076122COBR_CAUC_COR  BMC HYUNDAI S.A                         015783338000134S A L - MINERACAO LTDA                  FAZ BANANAL SN,0                        RUBELITA                                39565000MG47699000040288719210470E      31032014700BANCO REAL- ABN AMRO0509201400000000010000000CC                                                                                                                                                                                                                                                                                                                                                                                           302899-41     000042
1007421076122COBR_CAUC_COR  BMC HYUNDAI S.A                         007323388000100COINPA - CONSTRUTORA E                  LOT BR 230,11034-KM 12                  CABEDELO                                58310000PB47700000010288687110527B      01042014700BANCO REAL- ABN AMRO0506201400000000003412500CC                                                                                                                                                                                                                                                                                                                                                                                           302899-42     000043
1007421076122COBR_CAUC_COR  BMC HYUNDAI S.A                         007323388000100COINPA - CONSTRUTORA E                  LOT BR 230,11034-KM 12                  CABEDELO                                58310000PB47700000020288654410527C      01042014700BANCO REAL- ABN AMRO0507201400000000003412500CC                                                                                                                                                                                                                                                                                                                                                                                           302899-43     000044
1007421076122COBR_CAUC_COR  BMC HYUNDAI S.A                         007323388000100COINPA - CONSTRUTORA E                  LOT BR 230,11034-KM 12                  CABEDELO                                58310000PB47700000030288655210527D      01042014700BANCO REAL- ABN AMRO0508201400000000003412500CC                                                                                                                                                                                                                                                                                                                                                                                           302899-44     000045
1007421076122COBR_CAUC_BIC  BMC HYUNDAI S.A                         096861075000136BARRA S CONSTRUCAO, PROJETOS E SER      EST DE PIRAJA,50                        SALVADOR                                41290000BA477010000102886536951B        31032014013SALVADOR            3005201400000000002588230CC                                                                                                                                                                                                                                                                                                                                                                                           302899-45     000046
1007421076122COBR_CAUC_BIC  BMC HYUNDAI S.A                         096861075000136BARRA S CONSTRUCAO, PROJETOS E SER      EST DE PIRAJA,50                        SALVADOR                                41290000BA477010000202886901951C        31032014013SALVADOR            3006201400000000002588230CC                                                                                                                                                                                                                                                                                                                                                                                           302899-46     000047
1007421076122COBR_CAUC_BIC  BMC HYUNDAI S.A                         096861075000136BARRA S CONSTRUCAO, PROJETOS E SER      EST DE PIRAJA,50                        SALVADOR                                41290000BA477010000302886919951D        31032014013SALVADOR            3007201400000000002588230CC                                                                                                                                                                                                                                                                                                                                                                                           302899-47     000048
1007421076122COBR_CAUC_BIC  BMC HYUNDAI S.A                         096861075000136BARRA S CONSTRUCAO, PROJETOS E SER      EST DE PIRAJA,50                        SALVADOR                                41290000BA477010000402886927951E        31032014013SALVADOR            3008201400000000002588230CC                                                                                                                                                                                                                                                                                                                                                                                           302899-48     000049
1007421076122COBR_CAUC_BIC  BMC HYUNDAI S.A                         096861075000136BARRA S CONSTRUCAO, PROJETOS E SER      EST DE PIRAJA,50                        SALVADOR                                41290000BA477010000502886935951F        31032014013SALVADOR            3009201400000000002588230CC                                                                                                                                                                                                                                                                                                                                                                                           302899-49     000050
1007421076122COBR_CAUC_COR  BMC HYUNDAI S.A                         009001380000153J. A. PITOL OBRAS TERRAPLENAGEM -       AV SERIEMA,2910-LOTE 10 QUADRAS         RONDONOPOLIS                            78750130MT47702000010288672257C         27032014700BANCO REAL- ABN AMRO3006201400000000001720833CC                                                                                                                                                                                                                                                                                                                                                                                           302899-50     000051
1007421076122COBR_CAUC_COR  BMC HYUNDAI S.A                         009001380000153J. A. PITOL OBRAS TERRAPLENAGEM -       AV SERIEMA,2910-LOTE 10 QUADRAS         RONDONOPOLIS                            78750130MT47702000020288673157D         27032014700BANCO REAL- ABN AMRO3007201400000000001720833CC                                                                                                                                                                                                                                                                                                                                                                                           302899-51     000052
1007421076122COBR_CAUC_COR  BMC HYUNDAI S.A                         009001380000153J. A. PITOL OBRAS TERRAPLENAGEM -       AV SERIEMA,2910-LOTE 10 QUADRAS         RONDONOPOLIS                            78750130MT47702000030288674957E         27032014700BANCO REAL- ABN AMRO3008201400000000001720833CC                                                                                                                                                                                                                                                                                                                                                                                           302899-52     000053
1007421076122COBR_CAUC_COR  BMC HYUNDAI S.A                         009001380000153J. A. PITOL OBRAS TERRAPLENAGEM -       AV SERIEMA,2910-LOTE 10 QUADRAS         RONDONOPOLIS                            78750130MT47702000040288675757F         27032014700BANCO REAL- ABN AMRO3009201400000000001720833CC                                                                                                                                                                                                                                                                                                                                                                                           302899-53     000054
1007421076122COBR_CAUC_COR  BMC HYUNDAI S.A                         009001380000153J. A. PITOL OBRAS TERRAPLENAGEM -       AV SERIEMA,2910-LOTE 10 QUADRAS         RONDONOPOLIS                            78750130MT47702000050288599857G         27032014700BANCO REAL- ABN AMRO3010201400000000001720833CC                                                                                                                                                                                                                                                                                                                                                                                           302899-54     000055
1007421076122COBR_CAUC_COR  BMC HYUNDAI S.A                         009001380000153J. A. PITOL OBRAS TERRAPLENAGEM -       AV SERIEMA,2910-LOTE 10 QUADRAS         RONDONOPOLIS                            78750130MT47702000060288600557H         27032014700BANCO REAL- ABN AMRO3011201400000000001720833CC                                                                                                                                                                                                                                                                                                                                                                                           302899-55     000056
1007421076122COBR_CAUC_COR  BMC HYUNDAI S.A                         009001380000153J. A. PITOL OBRAS TERRAPLENAGEM -       AV SERIEMA,2910-LOTE 10 QUADRAS         RONDONOPOLIS                            78750130MT47702000070288601357I         27032014700BANCO REAL- ABN AMRO3012201400000000001720833CC                                                                                                                                                                                                                                                                                                                                                                                           302899-56     000057
1007421076122COBR_CAUC_COR  BMC HYUNDAI S.A                         009001380000153J. A. PITOL OBRAS TERRAPLENAGEM -       AV SERIEMA,2910-LOTE 10 QUADRAS         RONDONOPOLIS                            78750130MT47702000080288602157J         27032014700BANCO REAL- ABN AMRO3001201500000000001720833CC                                                                                                                                                                                                                                                                                                                                                                                           302899-57     000058
1007421076122COBR_CAUC_COR  BMC HYUNDAI S.A                         009001380000153J. A. PITOL OBRAS TERRAPLENAGEM -       AV SERIEMA,2910-LOTE 10 QUADRAS         RONDONOPOLIS                            78750130MT47702000090288603057K         27032014700BANCO REAL- ABN AMRO2802201500000000001720833CC                                                                                                                                                                                                                                                                                                                                                                                           302899-58     000059
1007421076122COBR_CAUC_COR  BMC HYUNDAI S.A                         009001380000153J. A. PITOL OBRAS TERRAPLENAGEM -       AV SERIEMA,2910-LOTE 10 QUADRAS         RONDONOPOLIS                            78750130MT47702000100288620057L         27032014700BANCO REAL- ABN AMRO2803201500000000001720833CC                                                                                                                                                                                                                                                                                                                                                                                           302899-59     000060
1007421076122COBR_CAUC_COR  BMC HYUNDAI S.A                         016715547000103W. DOURADO SERVICOS E                   R NOSSA SENHORA DO BOM REMEDIO,575       ITAITUBA                               68180380PA4770300001028871849883F       17032014900BRADESCO S/A        0510201400000000002267790CC                                                                                                                                                                                                                                                                                                                                                                                           302899-60     000061
1007421076122COBR_CAUC_COR  BMC HYUNDAI S.A                         016715547000103W. DOURADO SERVICOS E                   R NOSSA SENHORA DO BOM REMEDIO,575       ITAITUBA                               68180380PA4770300002028871769883G       17032014900BRADESCO S/A        0511201400000000002267790CC                                                                                                                                                                                                                                                                                                                                                                                           302899-61     000062
1007421076122COBR_CAUC_COR  BMC HYUNDAI S.A                         016715547000103W. DOURADO SERVICOS E                   R NOSSA SENHORA DO BOM REMEDIO,575       ITAITUBA                               68180380PA4770300003028871689883H       17032014900BRADESCO S/A        0512201400000000002267790CC                                                                                                                                                                                                                                                                                                                                                                                           302899-62     000063
1007421076122COBR_CAUC_COR  BMC HYUNDAI S.A                         016715547000103W. DOURADO SERVICOS E                   R NOSSA SENHORA DO BOM REMEDIO,575       ITAITUBA                               68180380PA4770300004028871509883I       17032014900BRADESCO S/A        0501201500000000002267790CC                                                                                                                                                                                                                                                                                                                                                                                           302899-63     000064
1007421076122COBR_CAUC_COR  BMC HYUNDAI S.A                         016715547000103W. DOURADO SERVICOS E                   R NOSSA SENHORA DO BOM REMEDIO,575       ITAITUBA                               68180380PA4770300005028871419883J       17032014900BRADESCO S/A        0502201500000000002267790CC                                                                                                                                                                                                                                                                                                                                                                                           302899-64     000065
1007421076122COBR_CAUC_COR  BMC HYUNDAI S.A                         016715547000103W. DOURADO SERVICOS E                   R NOSSA SENHORA DO BOM REMEDIO,575       ITAITUBA                               68180380PA4770300006028871339883K       17032014900BRADESCO S/A        0503201500000000002267790CC                                                                                                                                                                                                                                                                                                                                                                                           302899-65     000066
1007421076122COBR_CAUC_COR  BMC HYUNDAI S.A                         016715547000103W. DOURADO SERVICOS E                   R NOSSA SENHORA DO BOM REMEDIO,575       ITAITUBA                               68180380PA4770300007028871259883L       17032014900BRADESCO S/A        0504201500000000002267790CC                                                                                                                                                                                                                                                                                                                                                                                           302899-66     000067
1007421076122COBR_CAUC_COR  BMC HYUNDAI S.A                         016715547000103W. DOURADO SERVICOS E                   R NOSSA SENHORA DO BOM REMEDIO,575       ITAITUBA                               68180380PA4770300008028869609883M       17032014900BRADESCO S/A        0505201500000000002267790CC                                                                                                                                                                                                                                                                                                                                                                                           302899-67     000068
1007421076122COBR_CAUC_BIC  BMC HYUNDAI S.A                         014418703000149HORTIPLAN AGRICULTURA E TERRAPLANA      NUC NUCLEO RURAL TABATINGA CHA,107      BRASILIA                                73390100DF47704000010288591210468B      31032014009BRASILIA            3005201400000000002761574CC                                                                                                                                                                                                                                                                                                                                                                                           302899-68     000069
1007421076122COBR_CAUC_BIC  BMC HYUNDAI S.A                         014418703000149HORTIPLAN AGRICULTURA E TERRAPLANA      NUC NUCLEO RURAL TABATINGA CHA,107      BRASILIA                                73390100DF47704000020288592110468C      31032014009BRASILIA            3006201400000000002761574CC                                                                                                                                                                                                                                                                                                                                                                                           302899-69     000070
1007421076122COBR_CAUC_BIC  BMC HYUNDAI S.A                         014418703000149HORTIPLAN AGRICULTURA E TERRAPLANA      NUC NUCLEO RURAL TABATINGA CHA,107      BRASILIA                                73390100DF47704000030288593910468D      31032014009BRASILIA            3007201400000000002761574CC                                                                                                                                                                                                                                                                                                                                                                                           302899-70     000071
1007421076122COBR_CAUC_BIC  BMC HYUNDAI S.A                         014418703000149HORTIPLAN AGRICULTURA E TERRAPLANA      NUC NUCLEO RURAL TABATINGA CHA,107      BRASILIA                                73390100DF47704000040288594710468E      31032014009BRASILIA            3008201400000000002761574CC                                                                                                                                                                                                                                                                                                                                                                                           302899-71     000072
1007421076122COBR_CAUC_BIC  BMC HYUNDAI S.A                         014418703000149HORTIPLAN AGRICULTURA E TERRAPLANA      NUC NUCLEO RURAL TABATINGA CHA,107      BRASILIA                                73390100DF47704000050288595510468F      31032014009BRASILIA            3009201400000000002761574CC                                                                                                                                                                                                                                                                                                                                                                                           302899-72     000073
1007421076122COBR_CAUC_BIC  BMC HYUNDAI S.A                         014418703000149HORTIPLAN AGRICULTURA E TERRAPLANA      NUC NUCLEO RURAL TABATINGA CHA,107      BRASILIA                                73390100DF47704000060288596310468G      31032014009BRASILIA            3010201400000000002761574CC                                                                                                                                                                                                                                                                                                                                                                                           302899-73     000074
1007421076122COBR_CAUC_BIC  BMC HYUNDAI S.A                         014418703000149HORTIPLAN AGRICULTURA E TERRAPLANA      NUC NUCLEO RURAL TABATINGA CHA,107      BRASILIA                                73390100DF47704000070288597110468H      31032014009BRASILIA            3011201400000000002761574CC                                                                                                                                                                                                                                                                                                                                                                                           302899-74     000075
1007421076122COBR_CAUC_BIC  BMC HYUNDAI S.A                         014418703000149HORTIPLAN AGRICULTURA E TERRAPLANA      NUC NUCLEO RURAL TABATINGA CHA,107      BRASILIA                                73390100DF47704000080288598010468I      31032014009BRASILIA            3012201400000000002761574CC                                                                                                                                                                                                                                                                                                                                                                                           302899-75     000076
1007421076122COBR_CAUC_BIC  BMC HYUNDAI S.A                         014418703000149HORTIPLAN AGRICULTURA E TERRAPLANA      NUC NUCLEO RURAL TABATINGA CHA,107      BRASILIA                                73390100DF47704000090288664110468J      31032014009BRASILIA            3001201500000000002761574CC                                                                                                                                                                                                                                                                                                                                                                                           302899-76     000077
1008421029015DIR_CREDIT     G B S ENGENHARIA LTDA                   033541368000116COMP HIDRO ELET DO S. FRANCISCO - CHESF RUA DELMIRO GOUVEIA,333 SAN MARTIN      RECIFE                                  50761901CE4766900001                                                                                                                                          012591082           301120120000023416CTNI-922012023052014000404Execução dos serviços de obras civis e montagam eletromecânica com aplicação de materiais relativos à construção da Subestação Teixeira de Freitas230/138 KV.                                                                                   035554591000204303008-1      000078
1046421010531COBR_CAUC_COR  CECRISA REVESTIMENTOS CERAMICOS         003752385000131CARTA GOIAS INDUSTRIA E COMERCIO D      RUA VISCONDE DE SEPETIBA SL 1411,935    NITEROI                                 24020206RJ4770500001024052571771266     19032014600HSBC BANK BRASIL    2008201400000000020000000CC                                                                                                                                                                                                                                                                                                                                                                                           303008-2      000079
1048421002195COBR_CAUC_COR  SERVIMED COMERCIAL LTDA                 003803500000150COOP DE USUARIOS DE ASSIT MEDI          R INDEPENDENCIA 4004                    SAO JOSE DO RIO                         15084110SP47706000010198628615082222    26052014900BRADESCO S/A        2507201400000000019030024CC                                                                                                                                                                                                                                                                                                                                                                                           303008-3      000080
1018421034869COBR_CAUC_BIC  L ANNO IND E COM DE LATICINIOS LTDA     011596442003427CARVALHO E FERNANDES LTDA               AV DEP PAULO FERRAZ Nº4.888 GALPAO:03   TERESINA                                64078820PI477070000103739698001266      26052014042SAO LUIS            2507201400000000033320000CC                                                                                                                                                                                                                                                                                                                                                                                           303008-4      000081
1018421007055DIR_CREDIT     CONSTRUTORA CAIAPO LTDA                 003520933000106AGENCIA GOIANA DE TRANSP E OBRAS PUBLICAAV GOV JOSE LUDOVICO DE ALMEIDA NR. 20  GOIANIA                                 74775013GO4771500001                                                                                                                                          012589768           260420130000025905083-2013    27052014000404Execução dos serviços de pavimentação asfaltica da Rodovia GO-050, Trecho:entr.GO-220(MOntividiu)/inicio do perímetro urbano de Jatai,e sub-trcho Rio Doce,início do perímetro urbano de Jatai-GO.                                              000237518000143303008-5      000082
1010421025719DIR_CREDIT     ABF-ENGENHARIA SERVICOS E COM.LTDA      007757799000104SANEAR                                  RUA LUIZ GUIMARAES, 207 CASA POçO DA PANRECIFE                                  52061160PE4771800001                                                                                                                                          012518983           300920130000025536009/2013    27052014000403execução de obra e serviço de implantaçao do sistema de esgotamento, pavimentação e drenagem nas unidades do proest imbiribeira e boa viagem.                                                                                                   000376507000144303008-6      000083
1006421013611DIR_CREDIT     TM CONSTRUCOES LTDA                     012396924000138CAPACITATO EDUCACIONAL LTDA             AV BEZERRA DE MENEZES, 100 FARIAS BRITO FORTALEZA                               60325000CE4772100001                                                                                                                                          012538073           050820130000025197S/N         23042014000403locação do imóvel localizado na Avenida Bezerra de Menezes, nr 100,Lojas 01 e 42 e Mezanino Lojas 43 a 53.                                                                                                                                      003747989000190303008-7      000084
9000083                                                                                                                                                                                                                                                                                                                                                                                                                                                                                                                                                                                                                                                                                                               000085
