0REMESSANOTIFICA«√O ELETRONICA        99999999999999Bicbanco S/A                            Avenida Paulista                        1048      12∫ andar BELA VISTA                    S√O PAULO                     01310100SPBicbanco S/A                                                                    19042011                                                                                                                                                                                                                                                                                                                                                                                                000001
1047421000232COBR_CAUC_BIC  JOFER EMBALAGENS LTDA.                  000190373000172IND. E COM. DE COSMETICOS NATURA L      LAMEDA JURUA, 253                       BARUERI                                 06455010SP2726600001006908610018851     15042011007PAULISTA            2906201100000000182964995CC                                                                                                                                                                                                                                                                                                                                                                                           128353-1      000002
1006421003160COBR_CAUC_BIC  MONT GRANITOS S/A                       006862627000138CLAUDINO S/A LOJAS DE DEPARTAMENTO      R. JOAO CABRAL ,607                     TERESINA                                64000030PI272670000108449399629-2/2     14042011041TERESINA            1205201100000000017570068CC                                                                                                                                                                                                                                                                                                                                                                                           128353-2      000003
1046421000048COBR_CAUC_BIC  SBDE SOC BRAS DE EMB E DESC LTDA        002808708005834COMPANHIA DE BEBIDAS DAS AMERICAS       RUA JOAO URSULO, 1620                   CAMACARI                                42800000BA2726800001011081010001555601  09042011013SALVADOR            0108201100000000015882682CC                                                                                                                                                                                                                                                                                                                                                                                           128353-3      000004
1007421017118COBR_CAUC_BIC  NILPEL IND E COM DE PAPEIS LTDA         000190373000172INDUSTRIA E COMERCIO DE COSMETICOS      AV FRANCISCO MATARAZZO 1500 ED NEW YO   S„O PAULO                               05001100SP272690000100506850NFE3-25631  14042011007PAULISTA            0806201100000000013464062CC                                                                                                                                                                                                                                                                                                                                                                                           128353-4      000005
1048141000168COBR_CAUC_BIC  BALDIN BIOENERGIA S/A                   001062529000100DULCINI S.A.                            ESTRADA SITIO TABOAO, S/N               PIRASSUNUNGA                            13631301SP27270000010033686512319/05    14032011021CAMPINAS            2006201100000000025000000TD                                                                                                                                                                                                                                                                                                                                                                                           128353-5      000006
1048141000168COBR_CAUC_BIC  BALDIN BIOENERGIA S/A                   001062529000100DULCINI S.A.                            ESTRADA SITIO TABOAO, S/N               PIRASSUNUNGA                            13631301SP27270000020033687312319/06    14032011021CAMPINAS            2106201100000000025000000TD                                                                                                                                                                                                                                                                                                                                                                                           128353-6      000007
1048141000168COBR_CAUC_BIC  BALDIN BIOENERGIA S/A                   001062529000100DULCINI S.A.                            ESTRADA SITIO TABOAO, S/N               PIRASSUNUNGA                            13631301SP27270000030033688112319/07    14032011021CAMPINAS            2806201100000000025000000TD                                                                                                                                                                                                                                                                                                                                                                                           128353-7      000008
1048141000168COBR_CAUC_BIC  BALDIN BIOENERGIA S/A                   001062529000100DULCINI S.A.                            ESTRADA SITIO TABOAO, S/N               PIRASSUNUNGA                            13631301SP27270000040033689012319/08    14032011021CAMPINAS            2906201100000000025000000TD                                                                                                                                                                                                                                                                                                                                                                                           128353-8      000009
1048141000168COBR_CAUC_BIC  BALDIN BIOENERGIA S/A                   001062529000100DULCINI S.A.                            ESTRADA SITIO TABOAO, S/N               PIRASSUNUNGA                            13631301SP27270000050033690312319/09    14032011021CAMPINAS            3006201100000000025000000TD                                                                                                                                                                                                                                                                                                                                                                                           128353-9      000010
1048141000168COBR_CAUC_BIC  BALDIN BIOENERGIA S/A                   001062529000100DULCINI S.A.                            ESTRADA SITIO TABOAO, S/N               PIRASSUNUNGA                            13631301SP27270000060033691112319/10    14032011021CAMPINAS            0107201100000000025000000TD                                                                                                                                                                                                                                                                                                                                                                                           128353-10     000011
9000010                                                                                                                                                                                                                                                                                                                                                                                                                                                                                                                                                                                                                                                                                                               000012
