0REMESSANOTIFICAÇÃO ELETRONICA        99999999999999Bicbanco S/A                            Avenida Paulista                        1048      12º andar BELA VISTA                    SÃO PAULO                     01310100SPBicbanco S/A                                                                    24022011                                                                                                                                                                                                                                                                                                                                                                                                000001
1032420932303COBR_CAUC_BIC  TEKA TECELAGEM KUEHNRICH S/A            076189406000126CONDOR SUPER CENTER LTDA                AV.WINSTON CHURCHILL,2222               CURITIBA                                81150050PR2645500001090081960118414901  21022011016CURITIBA            0305201100000000010180224CC                                                                                                                                                                                                                                                                                                                                                                                           123328-1      000002
1021420930887COBR_CAUC_COR  DEDINI S/A INDUSTRIAS DE BASE           048295562001965USINA ALTO ALEGRE S A - ACUCAR E A      ROD JOAO LUNARDELLI PR 170 ZONA RURAL BRFLORESTOPOLIS                           86165000PR264560000106124484122463-6-6  21022011900BRADESCO S/A        2803201100000000014305070CC                                                                                                                                                                                                                                                                                                                                                                                           123328-2      000003
1042141002650COBR_CAUC_BIC  MAXXIMO SERV DE MONT E CONST LTDA       004487870000198COBRACO SERV MONT LTDA                  R 135 KM 17                             SAO LUIS                                65000000MA264570000102019526135         17022011042SAO LUIS            1505201100000000019000000TD                                                                                                                                                                                                                                                                                                                                                                                           123328-3      000004
9000003                                                                                                                                                                                                                                                                                                                                                                                                                                                                                                                                                                                                                                                                                                               000005
