0REMESSANOTIFICAÇÃO ELETRONICA        99999999999999Bicbanco S/A                            Avenida Paulista                        1048      12º andar BELA VISTA                    SÃO PAULO                     01310100SPBicbanco S/A                                                                    02122010                                                                                                                                                                                                                                                                                                                                                                                                000001
1029421011376COBR_CAUC_BIC  VOGES METALURGIA LTDA                   062515952000103NS-IND DE AP MEDICOS LTDA               RUA FRANCISCO P DE TOLEDO 437           SAO PAULO                               04185150SP2523600001093348990111597001  30112010007PAULISTA            1801201100000000010044054CC                                                                                                                                                                                                                                                                                                                                                                                           116984-1      000002
1017421007294COBR_CAUC_COR  COOP DE C AGROPEC E IND PINDORAMA       040925711000191M S REPRESENTACOES LTDA                 AVDOM ANTONIO BRANDAO                   ALAGOAS                                 57051190AL25237000010000106778363/1     29112010900BRADESCO S/A        2812201000000000059997000CC                                                                                                                                                                                                                                                                                                                                                                                           116984-2      000003
1024420934410COBR_CAUC_COR  INTERCOOP INT SUIN MED NORTE MT LTD     000763832000160FRIGORIFICO INDUSTRIAL VALE DO IPI      RODOVIA MG 826 KM 02, PONTE NO,826      PONTE NOVA                              35430970MG25238000010184643949766       23112010900BRADESCO S/A        2112201000000000013322122CC                                                                                                                                                                                                                                                                                                                                                                                           116984-3      000004
1024420934410COBR_CAUC_BIC  INTERCOOP INT SUIN MED NORTE MT LTD     010578244000100GP INDUSTRIA SERVICOS E COMERCIO D      RUA MANOEL DUARTE ,167                  SAO GONCALO                             24430500RJ25239000010184641249670       20112010014RIO DE JANEIRO      1812201000000000013364529CC                                                                                                                                                                                                                                                                                                                                                                                           116984-4      000005
1021421003858COBR_CAUC_COR  ALCAMP COMERCIAL LTDA                   033009911001887SOUZA CRUZ S/A                          AV.CDA ELIZABETH ROBIANO,1880           SAO PAULO                               03074000SP252400000103118181F033862/ 1  12112010900BRADESCO S/A        3012201000000000014276875CC                                                                                                                                                                                                                                                                                                                                                                                           116984-5      000006
1021421003858COBR_CAUC_COR  ALCAMP COMERCIAL LTDA                   033009911001887SOUZA CRUZ S/A                          AV.CDA ELIZABETH ROBIANO,1880           SAO PAULO                               03074000SP252400000203118190F033863/ 1  12112010900BRADESCO S/A        3012201000000000011292200CC                                                                                                                                                                                                                                                                                                                                                                                           116984-6      000007
1047421000534COBR_CAUC_BIC  INDUSTRIA QUIMICA KIMBERLIT LTDA        076082320000108MACROFERTIL INDUSTRIA E COMERCIO D      RODOVIA DO CAFÉ 435BR 376 KM 103        Ponta Grossa                            84043450PR252410000100340231004281/02   18112010016CURITIBA            1701201100000000013200105CC                                                                                                                                                                                                                                                                                                                                                                                           116984-7      000008
1022421004755COBR_CAUC_COR  FRIGOL S.A. EM RECUPERACAO JUDICIAL     006990440000110FREEZER CARNES E LATICINIOS LTDA        R: PROF. AURELIANO DE MEDEIRO FILHO, 250NATAL                                   59072550RN2524200001001035774958        30112010900BRADESCO S/A        2712201000000000021972507CC                                                                                                                                                                                                                                                                                                                                                                                           116984-8      000009
1017421006204COBR_CAUC_COR  USINA TAQUARA LTDA                      011699378000737COMPANHIA ALCOOLQUIMICA NACIONAL        ENGENHO CACHOEIRA                       VITORIA DE SANT                         55602970PE2524300001025220562968/1      26112010900BRADESCO S/A        0701201100000000014000000CC                                                                                                                                                                                                                                                                                                                                                                                           116984-9      000010
1017421006204COBR_CAUC_COR  USINA TAQUARA LTDA                      011699378000737COMPANHIA ALCOOLQUIMICA NACIONAL        ENGENHO CACHOEIRA                       VITORIA DE SANT                         55602970PE2524300002025220642968/2      26112010900BRADESCO S/A        1401201100000000014000000CC                                                                                                                                                                                                                                                                                                                                                                                           116984-10     000011
1017421006204COBR_CAUC_COR  USINA TAQUARA LTDA                      011699378000737COMPANHIA ALCOOLQUIMICA NACIONAL        ENGENHO CACHOEIRA                       VITORIA DE SANT                         55602970PE2524300003025220722968/3      26112010900BRADESCO S/A        2101201100000000014000000CC                                                                                                                                                                                                                                                                                                                                                                                           116984-11     000012
1017421006204COBR_CAUC_COR  USINA TAQUARA LTDA                      011699378000737COMPANHIA ALCOOLQUIMICA NACIONAL        ENGENHO CACHOEIRA                       VITORIA DE SANT                         55602970PE2524300004025220812968/4      26112010900BRADESCO S/A        2801201100000000014000000CC                                                                                                                                                                                                                                                                                                                                                                                           116984-12     000013
9000012                                                                                                                                                                                                                                                                                                                                                                                                                                                                                                                                                                                                                                                                                                               000014
