0REMESSANOTIFICAÇÃO ELETRONICA        99999999999999Bicbanco S/A                            Avenida Brigadeiro Faria Lima           4.440     2º andar  Itaim Bibi                    São Paulo                     04538132SPBicbanco S/A                                                                    28022013                                                                                                                                                                                                                                                                                                                                                                                                000001
1009421012831COBR_CAUC_COR  ASA ALIMENTOS S/A                       000014053655870JOSE IVALDO DOS SANTOS                  SITIO QUEIMADINHA SN                    SAO BENTO DO UN                         55370000PE4058700001001450200036930     22022013900BRADESCO S/A        1503201300000000000367920CC                                                                                                                                                                                                                                                                                                                                                                                           224040-1      000002
1009421012831COBR_CAUC_COR  ASA ALIMENTOS S/A                       034122432000197AVICOLA BARREIRA LTDA                   RUA AYMORE 355                          BARREIRAS                               47804060BA4059200001001445380002987     30012013900BRADESCO S/A        2702201300000000003087120CC                                                                                                                                                                                                                                                                                                                                                                                           224040-2      000003
1009421012831COBR_CAUC_COR  ASA ALIMENTOS S/A                       034122432000197AVICOLA BARREIRA LTDA                   RUA AYMORE 355                          BARREIRAS                               47804060BA4059200002001445460002988     31012013900BRADESCO S/A        2802201300000000002903865CC                                                                                                                                                                                                                                                                                                                                                                                           224040-3      000004
1009421012831COBR_CAUC_COR  ASA ALIMENTOS S/A                       034122432000197AVICOLA BARREIRA LTDA                   RUA AYMORE 355                          BARREIRAS                               47804060BA4059200003001445540002989     31012013900BRADESCO S/A        2802201300000000002903865CC                                                                                                                                                                                                                                                                                                                                                                                           224040-4      000005
1009421012831COBR_CAUC_COR  ASA ALIMENTOS S/A                       034122432000197AVICOLA BARREIRA LTDA                   RUA AYMORE 355                          BARREIRAS                               47804060BA4059200004001445620002990     01022013900BRADESCO S/A        0303201300000000003150390CC                                                                                                                                                                                                                                                                                                                                                                                           224040-5      000006
1009421012831COBR_CAUC_COR  ASA ALIMENTOS S/A                       034122432000197AVICOLA BARREIRA LTDA                   RUA AYMORE 355                          BARREIRAS                               47804060BA4059200005001448720003006     21022013900BRADESCO S/A        1303201300000000000152043CC                                                                                                                                                                                                                                                                                                                                                                                           224040-6      000007
1009421012831COBR_CAUC_COR  ASA ALIMENTOS S/A                       034122432000197AVICOLA BARREIRA LTDA                   RUA AYMORE 355                          BARREIRAS                               47804060BA4059200006001451010003007     22022013900BRADESCO S/A        2403201300000000003197700CC                                                                                                                                                                                                                                                                                                                                                                                           224040-7      000008
1009421012831COBR_CAUC_COR  ASA ALIMENTOS S/A                       034122432000197AVICOLA BARREIRA LTDA                   RUA AYMORE 355                          BARREIRAS                               47804060BA4059200007001451190003008     22022013900BRADESCO S/A        2403201300000000003197700CC                                                                                                                                                                                                                                                                                                                                                                                           224040-8      000009
1009421012831COBR_CAUC_COR  ASA ALIMENTOS S/A                       010818793000104ABATEDORA AVICOLA SANTA VITORIA LT      ROD GO 476, SN KM 16                    MORRINHOS                               75650000GO4059100001001450970001929     22022013900BRADESCO S/A        2203201300000000004284000CC                                                                                                                                                                                                                                                                                                                                                                                           224040-9      000010
1009421012831COBR_CAUC_COR  ASA ALIMENTOS S/A                       000058531572720BENEDITO ZIMBRAO DA SILVA               ESTRADA TORRAO DE OUTRO, SN             SAO JOSE DO VAL                         25780000RJ4059000001001447590036893     20022013900BRADESCO S/A        2703201300000000003520000CC                                                                                                                                                                                                                                                                                                                                                                                           224040-10     000011
1009421012831COBR_CAUC_COR  ASA ALIMENTOS S/A                       007131912000141GONZALES CRIACAO DE AVES E SUINOS       AV THEODORO LAZARINI NR 336             PIRANGI                                 15820000SP4058900001001447910036907     21022013900BRADESCO S/A        2802201300000000003030000CC                                                                                                                                                                                                                                                                                                                                                                                           224040-11     000012
1009421012831COBR_CAUC_COR  ASA ALIMENTOS S/A                       000025367323634FLAVIO JOSE DE ABREU DAVID              CAIXA POSTAL 155                        PARA DE MINAS                           35660013MG4058800001001449700036918     21022013900BRADESCO S/A        2802201300000000001552376CC                                                                                                                                                                                                                                                                                                                                                                                           224040-12     000013
1009421013315COBR_CAUC_COR  ASA NORTE ALIMENTOS LTDA                011095627000190A S M NETO COMERCIO - ME                AV GENERAL ARTUR CARVALHO NR 10         SAO JOSE DE RIB                         65110000MA405820000100006542004416901   15022013900BRADESCO S/A        0203201300000000002362320CC                                                                                                                                                                                                                                                                                                                                                                                           224040-13     000014
1009421013315COBR_CAUC_COR  ASA NORTE ALIMENTOS LTDA                011095627000190A S M NETO COMERCIO - ME                AV GENERAL ARTUR CARVALHO NR 10         SAO JOSE DE RIB                         65110000MA405820000200006631004429401   19022013900BRADESCO S/A        0103201300000000002067030CC                                                                                                                                                                                                                                                                                                                                                                                           224040-14     000015
1009421013315COBR_CAUC_COR  ASA NORTE ALIMENTOS LTDA                011095627000190A S M NETO COMERCIO - ME                AV GENERAL ARTUR CARVALHO NR 10         SAO JOSE DE RIB                         65110000MA405820000300006674004444901   23022013900BRADESCO S/A        1003201300000000002362320CC                                                                                                                                                                                                                                                                                                                                                                                           224040-15     000016
1009421013315COBR_CAUC_COR  ASA NORTE ALIMENTOS LTDA                003707118000142ABATEDOURO SOLON LTDA                   RUA CONSELHEIRO FURTADO S/N             BENEVIDES                               68795000PA405840000100006437004405401   13022013900BRADESCO S/A        0603201300000000002362320CC                                                                                                                                                                                                                                                                                                                                                                                           224040-16     000017
1009421013315COBR_CAUC_COR  ASA NORTE ALIMENTOS LTDA                003707118000142ABATEDOURO SOLON LTDA                   RUA CONSELHEIRO FURTADO S/N             BENEVIDES                               68795000PA405840000200006445004405501   13022013900BRADESCO S/A        0603201300000000002362320CC                                                                                                                                                                                                                                                                                                                                                                                           224040-17     000018
1009421013315COBR_CAUC_COR  ASA NORTE ALIMENTOS LTDA                003707118000142ABATEDOURO SOLON LTDA                   RUA CONSELHEIRO FURTADO S/N             BENEVIDES                               68795000PA405840000300006453004405601   13022013900BRADESCO S/A        0603201300000000002362320CC                                                                                                                                                                                                                                                                                                                                                                                           224040-18     000019
1009421013315COBR_CAUC_COR  ASA NORTE ALIMENTOS LTDA                003707118000142ABATEDOURO SOLON LTDA                   RUA CONSELHEIRO FURTADO S/N             BENEVIDES                               68795000PA405840000400006461004405701   13022013900BRADESCO S/A        0603201300000000002362320CC                                                                                                                                                                                                                                                                                                                                                                                           224040-19     000020
1009421013315COBR_CAUC_COR  ASA NORTE ALIMENTOS LTDA                003707118000142ABATEDOURO SOLON LTDA                   RUA CONSELHEIRO FURTADO S/N             BENEVIDES                               68795000PA405840000500006488004410301   14022013900BRADESCO S/A        0703201300000000002067030CC                                                                                                                                                                                                                                                                                                                                                                                           224040-20     000021
1009421013315COBR_CAUC_COR  ASA NORTE ALIMENTOS LTDA                003707118000142ABATEDOURO SOLON LTDA                   RUA CONSELHEIRO FURTADO S/N             BENEVIDES                               68795000PA405840000600006496004410401   14022013900BRADESCO S/A        0703201300000000002067030CC                                                                                                                                                                                                                                                                                                                                                                                           224040-21     000022
1009421013315COBR_CAUC_COR  ASA NORTE ALIMENTOS LTDA                003707118000142ABATEDOURO SOLON LTDA                   RUA CONSELHEIRO FURTADO S/N             BENEVIDES                               68795000PA405840000700006500004410501   14022013900BRADESCO S/A        0703201300000000002067030CC                                                                                                                                                                                                                                                                                                                                                                                           224040-22     000023
1009421013315COBR_CAUC_COR  ASA NORTE ALIMENTOS LTDA                003707118000142ABATEDOURO SOLON LTDA                   RUA CONSELHEIRO FURTADO S/N             BENEVIDES                               68795000PA405840000800006569004421001   16022013900BRADESCO S/A        0903201300000000002466540CC                                                                                                                                                                                                                                                                                                                                                                                           224040-23     000024
1009421013315COBR_CAUC_COR  ASA NORTE ALIMENTOS LTDA                003707118000142ABATEDOURO SOLON LTDA                   RUA CONSELHEIRO FURTADO S/N             BENEVIDES                               68795000PA405840000900006593004420501   16022013900BRADESCO S/A        0903201300000000002223360CC                                                                                                                                                                                                                                                                                                                                                                                           224040-24     000025
1009421013315COBR_CAUC_COR  ASA NORTE ALIMENTOS LTDA                007008973000116CARAJAS ALIMENTOS COMERCIO LTDA         ROD TRANSAMAZONICA S/N KM 02,12         MARABA                                  68507000PA405830000100006470004404901   13022013900BRADESCO S/A        2802201300000000002362320CC                                                                                                                                                                                                                                                                                                                                                                                           224040-25     000026
1009421013315COBR_CAUC_COR  ASA NORTE ALIMENTOS LTDA                007008973000116CARAJAS ALIMENTOS COMERCIO LTDA         ROD TRANSAMAZONICA S/N KM 02,12         MARABA                                  68507000PA405830000200006577004421101   16022013900BRADESCO S/A        0303201300000000002362320CC                                                                                                                                                                                                                                                                                                                                                                                           224040-26     000027
1009421013315COBR_CAUC_COR  ASA NORTE ALIMENTOS LTDA                007008973000116CARAJAS ALIMENTOS COMERCIO LTDA         ROD TRANSAMAZONICA S/N KM 02,12         MARABA                                  68507000PA405830000300006607004424901   18022013900BRADESCO S/A        0503201300000000002067030CC                                                                                                                                                                                                                                                                                                                                                                                           224040-27     000028
1009421013315COBR_CAUC_COR  ASA NORTE ALIMENTOS LTDA                007008973000116CARAJAS ALIMENTOS COMERCIO LTDA         ROD TRANSAMAZONICA S/N KM 02,12         MARABA                                  68507000PA405830000400006640004435901   20022013900BRADESCO S/A        0703201300000000002362320CC                                                                                                                                                                                                                                                                                                                                                                                           224040-28     000029
1050421000089COBR_CAUC_COR  ATIVO ALIMENTOS EXP E IMP EIRELI        027497684000135FRISA FRIGORIFICO RIO DOCE SA           R FIORAVANTE ROSSI 4000                 COLATINA                                29704700ES405630000100430390178874/1    23022013800UNIBANCO S/A        2303201300000000011182990CC                                                                                                                                                                                                                                                                                                                                                                                           224040-29     000030
1007421034667DIR_CREDIT     CONSTRUTORA GOMES LOURENCO S/A          045780087000103PM DE VARZEA PAULISTA                   AV FERNAO DIAS PAES LEME,284            VARZEA PAULISTA                         13220005SP4058600001                                                                                                                                          011864682           20072009000002125781/2009     17012013000403prestacao de servicos de limpeza urbana e manejo de residuos solidos ou servicos de coleta manual,coleta conteinerizada,operacao de transbordo,transporte e destinacao final de residuos solidos urbanos e de servicos de saude.                061069050000110224040-30     000031
1013421015410DIR_CREDIT     CONSTRUTORA LJA LTDA                    005055041000107SEURB-SEC.MUNIC.URBANISMO - PM DE BELEM AV. GOV.JOSÉ MALCHER NR 1622,NAZARÉ     BELÉM                                   66060230PA4058500001                                                                                                                                          011429986           180620080000011459015-2008-SEU09082011000422Urbanização da Bacia do Paracuri-Programa de Aceleração do Crescimento Consoante Concorrência Pública Nº008/2007 - CPL/PMB/SEURB, tipo MENOR PREÇO.                                                                                             001560379000157224040-31     000032
1022421007720COBR_CAUC_BIC  JUMIL-JUSTINO DE MORAIS IRMAOS S/A      079114450003342COCAMAR COOPERATIVA AGROINDUSTRIAL      ESTR OSWALDO M CORREA, LT-11, 1000      MARINGA                                 87065240PR405620000104500431142683E.01  22022013016CURITIBA            2203201300000000012480000CC                                                                                                                                                                                                                                                                                                                                                                                           224040-32     000033
1046421007255COBR_CAUC_COR  MAESTRO DO BRASIL IND METALUR LTDA      019166917000199EMBRASIL EMPRESA BRASILEIRA DISTRI      RODOVIA BR-040,KM-517,S/N               RIBEIRAO DAS NE                         33823310MG40561000010178641927014-1/1   19022013800UNIBANCO S/A        2603201300000000012651516CC                                                                                                                                                                                                                                                                                                                                                                                           224040-33     000034
9000033                                                                                                                                                                                                                                                                                                                                                                                                                                                                                                                                                                                                                                                                                                               000035
