0REMESSANOTIFICAÇÃO ELETRONICA        99999999999999Bicbanco S/A                            Avenida Paulista                        1048      12º andar BELA VISTA                    SÃO PAULO                     01310100SPBicbanco S/A                                                                    07102011                                                                                                                                                                                                                                                                                                                                                                                                000001
1031420932046COBR_CAUC_BIC  PALMALI INDL.DE ALIMENTOS LTDA          003802108000196CENTROESTE CARNES E DERIVADOS LTDA      ESTRADA DO CAPAO BONITO 1183            GUARULHOS                               07263010SP3114000001049312610000940601  03102011037GUARULHOS           0211201100000000011640000CC                                                                                                                                                                                                                                                                                                                                                                                           147318-1      000002
1016421019267COBR_CAUC_COR  COBRAZEM AGROINDUSTRIAL LTDA            002489004000100GLOBOSUINOS AGROPECUARIA S/A            RUA MATE LARANJEIRAS,0                  TOLEDO                                  85907150PR3114100001031974820000725-01  22092011800UNIBANCO S/A        2510201100000000029025000CC                                                                                                                                                                                                                                                                                                                                                                                           147318-2      000003
1007421050581COBR_CAUC_BIC  CDA COMERCIO INDUSTRIA DE METAIS LT     009160428000176MB ENGENHARIA SPE 070 S/A               AV T 9 1423 ESQ. T-33                   GOIANIA                                 74215020GO3115300001008148640255420103  23092011018GOIANIA             2110201100000000020517120CC                                                                                                                                                                                                                                                                                                                                                                                           147318-3      000004
1007421050581COBR_CAUC_BIC  CDA COMERCIO INDUSTRIA DE METAIS LT     009160428000176MB ENGENHARIA SPE 070 S/A               AV T 9 1423 ESQ. T-33                   GOIANIA                                 74215020GO3115300002008148720255420203  23092011018GOIANIA             1811201100000000020517120CC                                                                                                                                                                                                                                                                                                                                                                                           147318-4      000005
1007421050581COBR_CAUC_BIC  CDA COMERCIO INDUSTRIA DE METAIS LT     009160428000176MB ENGENHARIA SPE 070 S/A               AV T 9 1423 ESQ. T-33                   GOIANIA                                 74215020GO3115300003008194410255420303  23092011018GOIANIA             1612201100000000020517120CC                                                                                                                                                                                                                                                                                                                                                                                           147318-5      000006
1007421050581COBR_CAUC_BIC  CDA COMERCIO INDUSTRIA DE METAIS LT     009160428000176MB ENGENHARIA SPE 070 S/A               AV T 9 1423 ESQ. T-33                   GOIANIA                                 74215020GO3115300004008194590255430103  23092011018GOIANIA             2110201100000000021237454CC                                                                                                                                                                                                                                                                                                                                                                                           147318-6      000007
1007421050581COBR_CAUC_BIC  CDA COMERCIO INDUSTRIA DE METAIS LT     009160428000176MB ENGENHARIA SPE 070 S/A               AV T 9 1423 ESQ. T-33                   GOIANIA                                 74215020GO3115300005008194670255430203  23092011018GOIANIA             1811201100000000021237453CC                                                                                                                                                                                                                                                                                                                                                                                           147318-7      000008
1007421050581COBR_CAUC_BIC  CDA COMERCIO INDUSTRIA DE METAIS LT     009160428000176MB ENGENHARIA SPE 070 S/A               AV T 9 1423 ESQ. T-33                   GOIANIA                                 74215020GO3115300006008194750255430303  23092011018GOIANIA             1612201100000000021237453CC                                                                                                                                                                                                                                                                                                                                                                                           147318-8      000009
9000008                                                                                                                                                                                                                                                                                                                                                                                                                                                                                                                                                                                                                                                                                                               000010
