0REMESSANOTIFICAÇÃO ELETRONICA        99999999999999Tarraf Administradora de Consórcios LtdaAv. Alberto Andaló                      3942                Vila Redentora                São José do Rio Preto         15015000SPTarraf Administradora de Consórcios Ltda                                        07112013                                                                                                                                                                                                                                                                                                                                                                                                000001
1                                                                                  ADRIANO RAIMUNDO SIQUEIRA               R JERUSALEM RHUL, 65  APTO 102 BL 1     LONDRINA                                86050520PR  289         1070                                           23092013                   GLEBA PALHANO                                                                                                                                                                                                                                                                                                                                                                              267695-1      00000207112013
1                                                                                  ADRIANO RAIMUNDO SIQUEIRA               R JERUSALEM RHUL, 65  APTO 102 BL 1     LONDRINA                                86050520PR  289         1070                                           22102013                   GLEBA PALHANO                                                                                                                                                                                                                                                                                                                                                                              267695-2      00000307112013
1                                                                                  ANTONIO CASTELO TEIXEIRA FILHO          R VINTE E SEIS DE AGOSTO, 1626          CAMPO GRANDE                            79005030MS  013         1074                                           23092013                   AMAMBAI                                                                                                                                                                                                                                                                                                                                                                                    267695-3      00000407112013
1                                                                                  ANTONIO CASTELO TEIXEIRA FILHO          R VINTE E SEIS DE AGOSTO, 1626          CAMPO GRANDE                            79005030MS  013         1074                                           22102013                   AMAMBAI                                                                                                                                                                                                                                                                                                                                                                                    267695-4      00000507112013
1                                                                                  JILSON CHAVES SOUZA                     RUA PROF NINALIA DE IUNA FREIRE BARBOSA, S/N QD 38 LOTE 39JOAO PESSOA                             58000000PB  194         1074                                           23092013                   PORTAL DO SOL                                                                                                                                                                                                                                                                                                                                                                              267695-5      00000607112013
1                                                                                  JILSON CHAVES SOUZA                     RUA PROF NINALIA DE IUNA FREIRE BARBOSA, S/N QD 38 LOTE 39JOAO PESSOA                             58000000PB  194         1074                                           22102013                   PORTAL DO SOL                                                                                                                                                                                                                                                                                                                                                                              267695-6      00000707112013
1                                                                                  FABIANA MOREIRA PEDROSA P CARVALHO      AV BERNARDO VIEIRA DE MELO, 600 APTO 1601JABOATAO DOS GUARARAPES                 54400000PE  027         1075                                           23092013                   PIEDADE                                                                                                                                                                                                                                                                                                                                                                                    267695-7      00000807112013
1                                                                                  FABIANA MOREIRA PEDROSA P CARVALHO      AV BERNARDO VIEIRA DE MELO, 600 APTO 1601JABOATAO DOS GUARARAPES                 54400000PE  027         1075                                           22102013                   PIEDADE                                                                                                                                                                                                                                                                                                                                                                                    267695-8      00000907112013
1                                                                                  ELETRO CABINES PROD SERVICOS LTDA       R WALTER PEREIRA, 875                   LONDRINA                                86072400PR  032         1076                                           20082013                   PR IND CACIQUE                                                                                                                                                                                                                                                                                                                                                                             267695-9      00001007112013
1                                                                                  ELETRO CABINES PROD SERVICOS LTDA       R WALTER PEREIRA, 875                   LONDRINA                                86072400PR  032         1076                                           23092013                   PR IND CACIQUE                                                                                                                                                                                                                                                                                                                                                                             267695-10     00001107112013
1                                                                                  ELETRO CABINES PROD SERVICOS LTDA       R WALTER PEREIRA, 875                   LONDRINA                                86072400PR  032         1076                                           22102013                   PR IND CACIQUE                                                                                                                                                                                                                                                                                                                                                                             267695-11     00001207112013
1                                                                                  DELTA CONSTRUCOES LTDA                  R VINTE E TRES, 14 B QD 21              SAO LUIS                                65072720MA  034         1076                                           23092013                   COHAJAP                                                                                                                                                                                                                                                                                                                                                                                    267695-12     00001307112013
1                                                                                  DELTA CONSTRUCOES LTDA                  R VINTE E TRES, 14 B QD 21              SAO LUIS                                65072720MA  034         1076                                           22102013                   COHAJAP                                                                                                                                                                                                                                                                                                                                                                                    267695-13     00001407112013
1                                                                                  L C RIO PRETO TERRAPLANAGEM LTDA        R MARECHAL DEODORO, 3096 8 ANDAR SALA 83SAO JOSE DO RIO PRETO                   15010070SP  071         1077                                           23092013                   CENTRO                                                                                                                                                                                                                                                                                                                                                                                     267695-14     00001507112013
1                                                                                  L C RIO PRETO TERRAPLANAGEM LTDA        R MARECHAL DEODORO, 3096 8 ANDAR SALA 83SAO JOSE DO RIO PRETO                   15010070SP  071         1077                                           22102013                   CENTRO                                                                                                                                                                                                                                                                                                                                                                                     267695-15     00001607112013
1                                                                                  ELETRO CABINES PROD SERVICOS LTDA       R WALTER PEREIRA, 875                   LONDRINA                                86072400PR  135         1077                                           23092013                   PR IND CACIQUE                                                                                                                                                                                                                                                                                                                                                                             267695-16     00001707112013
1                                                                                  ELETRO CABINES PROD SERVICOS LTDA       R WALTER PEREIRA, 875                   LONDRINA                                86072400PR  135         1077                                           22102013                   PR IND CACIQUE                                                                                                                                                                                                                                                                                                                                                                             267695-17     00001807112013
1                                                                                  EDUARDO FERREIRA CUNHA                  RUA FRANCISCO CRIPA, 3684               MIRASSOL                                15130000SP  162         1078                                           23092013                   REGISSOL                                                                                                                                                                                                                                                                                                                                                                                   267695-18     00001907112013
1                                                                                  EDUARDO FERREIRA CUNHA                  RUA FRANCISCO CRIPA, 3684               MIRASSOL                                15130000SP  162         1078                                           22102013                   REGISSOL                                                                                                                                                                                                                                                                                                                                                                                   267695-19     00002007112013
1                                                                                  LINS SILVA LTDA                         AVENIDA CONTORNO NORTE QD 38, 02        SAO LUIS                                65054740MA  175         1078                                           23092013                   COMATRAC IV                                                                                                                                                                                                                                                                                                                                                                                267695-20     00002107112013
1                                                                                  LINS SILVA LTDA                         AVENIDA CONTORNO NORTE QD 38, 02        SAO LUIS                                65054740MA  175         1078                                           22102013                   COMATRAC IV                                                                                                                                                                                                                                                                                                                                                                                267695-21     00002207112013
1                                                                                  JOAO GONCALVES SOUZA                    RUA MANOEL CARLOS F FERRAZ, 457         ADOLFO                                  15230000SP  086         1079                                           23092013                   JD PRIMAVERA                                                                                                                                                                                                                                                                                                                                                                               267695-22     00002307112013
1                                                                                  JOAO GONCALVES SOUZA                    RUA MANOEL CARLOS F FERRAZ, 457         ADOLFO                                  15230000SP  086         1079                                           22102013                   JD PRIMAVERA                                                                                                                                                                                                                                                                                                                                                                               267695-23     00002407112013
1                                                                                  MDX TRANSPORTES LTDA EPP                ROD BR-135 KM 6,5 SALA 09, S/N          SAO LUIS                                65095602MA  288         1079                                           23092013                   MARACANA                                                                                                                                                                                                                                                                                                                                                                                   267695-24     00002507112013
1                                                                                  MDX TRANSPORTES LTDA EPP                ROD BR-135 KM 6,5 SALA 09, S/N          SAO LUIS                                65095602MA  288         1079                                           22102013                   MARACANA                                                                                                                                                                                                                                                                                                                                                                                   267695-25     00002607112013
1                                                                                  JOICE FERNANDA OLIVEIRA                 RUA SAO SEBASTIAO, 2759                 MIRASSOL                                15130000SP  047         4211                                           23092013                   CENTRO                                                                                                                                                                                                                                                                                                                                                                                     267695-26     00002707112013
1                                                                                  JOICE FERNANDA OLIVEIRA                 RUA SAO SEBASTIAO, 2759                 MIRASSOL                                15130000SP  047         4211                                           22102013                   CENTRO                                                                                                                                                                                                                                                                                                                                                                                     267695-27     00002807112013
1                                                                                  SILVA HONORATO TRANSPORTES LTDA ME      AV TRANSCONTINENTAL, 6664               GIPARANA                                76907296RO  128         4211                                           23092013                   SAO BERNARDO                                                                                                                                                                                                                                                                                                                                                                               267695-28     00002907112013
1                                                                                  SILVA HONORATO TRANSPORTES LTDA ME      AV TRANSCONTINENTAL, 6664               GIPARANA                                76907296RO  128         4211                                           22102013                   SAO BERNARDO                                                                                                                                                                                                                                                                                                                                                                               267695-29     00003007112013
1                                                                                  GUILHERME CAMARGO ANDRADE               RUA LEONEL ROMANO DA SILVA, 233         FARTURA                                 18870000SP  378         4211                                           23092013                   JARDIM PARAISO                                                                                                                                                                                                                                                                                                                                                                             267695-30     00003107112013
1                                                                                  GUILHERME CAMARGO ANDRADE               RUA LEONEL ROMANO DA SILVA, 233         FARTURA                                 18870000SP  378         4211                                           22102013                   JARDIM PARAISO                                                                                                                                                                                                                                                                                                                                                                             267695-31     00003207112013
1                                                                                  FLAVIO ALVES GODOY                      RUA JOAO FURLAN, 419                    URUPES                                  15850000SP  227         4212                                           23092013                   BOA VISTA                                                                                                                                                                                                                                                                                                                                                                                  267695-32     00003307112013
1                                                                                  FLAVIO ALVES GODOY                      RUA JOAO FURLAN, 419                    URUPES                                  15850000SP  227         4212                                           22102013                   BOA VISTA                                                                                                                                                                                                                                                                                                                                                                                  267695-33     00003407112013
1                                                                                  EDUARDO SANTOS CORREIA                  R MIGUEL ANDREO, 2265                   VOTUPORANGA                             15501453SP  342         4213                                           23092013                   JARDIM DAS PALMEIRAS I                                                                                                                                                                                                                                                                                                                                                                     267695-34     00003507112013
1                                                                                  EDUARDO SANTOS CORREIA                  R MIGUEL ANDREO, 2265                   VOTUPORANGA                             15501453SP  342         4213                                           22102013                   JARDIM DAS PALMEIRAS I                                                                                                                                                                                                                                                                                                                                                                     267695-35     00003607112013
1                                                                                  ANTONIO ASCENCAO FERREIRA               RUA SANTA TEREZA, 110                   BARAO DE COCAIS                         35970000MG  415         4213                                           23092013                   SAO BENEDITO                                                                                                                                                                                                                                                                                                                                                                               267695-36     00003707112013
1                                                                                  ANTONIO ASCENCAO FERREIRA               RUA SANTA TEREZA, 110                   BARAO DE COCAIS                         35970000MG  415         4213                                           22102013                   SAO BENEDITO                                                                                                                                                                                                                                                                                                                                                                               267695-37     00003807112013
1                                                                                  RENATO GONCALVES BRITO                  R GERALDO ZIRONDI, 689                  CATANDUVA                               15802285SP  127         4214                                           23092013                   JARDIM RESIDENCIAL DIOLFE                                                                                                                                                                                                                                                                                                                                                                  267695-38     00003907112013
1                                                                                  RENATO GONCALVES BRITO                  R GERALDO ZIRONDI, 689                  CATANDUVA                               15802285SP  127         4214                                           22102013                   JARDIM RESIDENCIAL DIOLFE                                                                                                                                                                                                                                                                                                                                                                  267695-39     00004007112013
1                                                                                  AMANDA CRISTIANE LEITE SOUZA            AV CAMPINA VERDE, 555                   ITURAMA                                 38280000MG  224         4214                                           23092013                   CENTRO                                                                                                                                                                                                                                                                                                                                                                                     267695-40     00004107112013
1                                                                                  AMANDA CRISTIANE LEITE SOUZA            AV CAMPINA VERDE, 555                   ITURAMA                                 38280000MG  224         4214                                           22102013                   CENTRO                                                                                                                                                                                                                                                                                                                                                                                     267695-41     00004207112013
1                                                                                  ADRIANO BATISTA SILVA                   RUA CARLOS ANTUNES MAMED, 180           FRONTEIRA                               38230000MG  259         4214                                           23092013                   COHAB 1                                                                                                                                                                                                                                                                                                                                                                                    267695-42     00004307112013
1                                                                                  ADRIANO BATISTA SILVA                   RUA CARLOS ANTUNES MAMED, 180           FRONTEIRA                               38230000MG  259         4214                                           22102013                   COHAB 1                                                                                                                                                                                                                                                                                                                                                                                    267695-43     00004407112013
1                                                                                  KELLY BARBOSA BRITO                     R JUSTINO PEREIRA DOS SANTOS, 220       BURITAMA                                15290000SP  281         4214                                           23092013                   COHAB 5                                                                                                                                                                                                                                                                                                                                                                                    267695-44     00004507112013
1                                                                                  KELLY BARBOSA BRITO                     R JUSTINO PEREIRA DOS SANTOS, 220       BURITAMA                                15290000SP  281         4214                                           22102013                   COHAB 5                                                                                                                                                                                                                                                                                                                                                                                    267695-45     00004607112013
1                                                                                  EDERSON LEITE FERREIRA                  RUA TIMBORE, 366                        CARDOSO                                 15570000SP  063         4215                                           23092013                   VILA NOVA                                                                                                                                                                                                                                                                                                                                                                                  267695-46     00004707112013
1                                                                                  EDERSON LEITE FERREIRA                  RUA TIMBORE, 366                        CARDOSO                                 15570000SP  063         4215                                           22102013                   VILA NOVA                                                                                                                                                                                                                                                                                                                                                                                  267695-47     00004807112013
1                                                                                  CRISTIANO SANTOS                        RUA ALAMEDA FRANCA, 10                  COROADOS                                16260000SP  277         4215                                           23092013                   RES GRANVILLE                                                                                                                                                                                                                                                                                                                                                                              267695-48     00004907112013
1                                                                                  CRISTIANO SANTOS                        RUA ALAMEDA FRANCA, 10                  COROADOS                                16260000SP  277         4215                                           22102013                   RES GRANVILLE                                                                                                                                                                                                                                                                                                                                                                              267695-49     00005007112013
1                                                                                  MARCIA REGINA OLIVEIRA                  RUA ENCARNAÇÃO MORENO VERSUTINI, 50     TANABI                                  15170000SP  460         4215                                           23092013                   JD CENTENARIO                                                                                                                                                                                                                                                                                                                                                                              267695-50     00005107112013
1                                                                                  MARCIA REGINA OLIVEIRA                  RUA ENCARNAÇÃO MORENO VERSUTINI, 50     TANABI                                  15170000SP  460         4215                                           22102013                   JD CENTENARIO                                                                                                                                                                                                                                                                                                                                                                              267695-51     00005207112013
1                                                                                  HELIO GABRIEL SILVA                     RUA PROF APARECIDA SIGNORELLI, 251 FUNDOSFRUTAL                                  38200000MG  073         4217                                           23092013                   JD DAS LAARNJEIRAS                                                                                                                                                                                                                                                                                                                                                                         267695-52     00005307112013
1                                                                                  HELIO GABRIEL SILVA                     RUA PROF APARECIDA SIGNORELLI, 251 FUNDOSFRUTAL                                  38200000MG  073         4217                                           22102013                   JD DAS LAARNJEIRAS                                                                                                                                                                                                                                                                                                                                                                         267695-53     00005407112013
1                                                                                  ADRIANO BATISTA SILVA                   RUA CARLOS ANTUNES MAMED, 180           FRONTEIRA                               38230000MG  129         4217                                           23092013                   COHAB 1                                                                                                                                                                                                                                                                                                                                                                                    267695-54     00005507112013
1                                                                                  ADRIANO BATISTA SILVA                   RUA CARLOS ANTUNES MAMED, 180           FRONTEIRA                               38230000MG  129         4217                                           22102013                   COHAB 1                                                                                                                                                                                                                                                                                                                                                                                    267695-55     00005607112013
1                                                                                  MAURO ANDRE PEREIRA FERRAREZI           RUA FLORIDA, 136                        BIRIGUI                                 16200796SP  195         4217                                           23092013                   SANTO ANTONIO                                                                                                                                                                                                                                                                                                                                                                              267695-56     00005707112013
1                                                                                  MAURO ANDRE PEREIRA FERRAREZI           RUA FLORIDA, 136                        BIRIGUI                                 16200796SP  195         4217                                           22102013                   SANTO ANTONIO                                                                                                                                                                                                                                                                                                                                                                              267695-57     00005807112013
1                                                                                  LUCAS FERRO SABIONI                     AVENIDA RIO GRANDE, 1028                PROMISSAO                               16370000SP  243         4217                                           23092013                   CENTRO                                                                                                                                                                                                                                                                                                                                                                                     267695-58     00005907112013
1                                                                                  LUCAS FERRO SABIONI                     AVENIDA RIO GRANDE, 1028                PROMISSAO                               16370000SP  243         4217                                           22102013                   CENTRO                                                                                                                                                                                                                                                                                                                                                                                     267695-59     00006007112013
1                                                                                  VANISLEY BESSA VIEIRA                   RUA PAES LEME, 340                      FRUTAL                                  38200000MG  251         4217                                           23092013                   XV NOVEMBRO                                                                                                                                                                                                                                                                                                                                                                                267695-60     00006107112013
1                                                                                  VANISLEY BESSA VIEIRA                   RUA PAES LEME, 340                      FRUTAL                                  38200000MG  251         4217                                           22102013                   XV NOVEMBRO                                                                                                                                                                                                                                                                                                                                                                                267695-61     00006207112013
1                                                                                  MARIA APARECIDA DAMETO PERES            R Sitio Duas Barras,CX Postal 114, cx114 CX POSTAL 114BIRIGUI                                 16200970SP  353         4217                                           23092013                   DUAS BARRAS                                                                                                                                                                                                                                                                                                                                                                                267695-62     00006307112013
1                                                                                  MARIA APARECIDA DAMETO PERES            R Sitio Duas Barras,CX Postal 114, cx114 CX POSTAL 114BIRIGUI                                 16200970SP  353         4217                                           22102013                   DUAS BARRAS                                                                                                                                                                                                                                                                                                                                                                                267695-63     00006407112013
1                                                                                  ROGERIO FEROLDI BRASILEIRO              RUA PRESCILIANO PINTO DE ALMEIDA, 568   BURITAMA                                15290000SP  368         4217                                           23092013                   CENTRO                                                                                                                                                                                                                                                                                                                                                                                     267695-64     00006507112013
1                                                                                  ROGERIO FEROLDI BRASILEIRO              RUA PRESCILIANO PINTO DE ALMEIDA, 568   BURITAMA                                15290000SP  368         4217                                           22102013                   CENTRO                                                                                                                                                                                                                                                                                                                                                                                     267695-65     00006607112013
1                                                                                  DIELI EUDOXIO DIAS                      R DONATTO PERROTTI, 72                  BIRIGUI                                 16202103SP  412         4217                                           23092013                   RECANTO VERDE                                                                                                                                                                                                                                                                                                                                                                              267695-66     00006707112013
1                                                                                  DIELI EUDOXIO DIAS                      R DONATTO PERROTTI, 72                  BIRIGUI                                 16202103SP  412         4217                                           22102013                   RECANTO VERDE                                                                                                                                                                                                                                                                                                                                                                              267695-67     00006807112013
1                                                                                  MARCOS ROBERTO REIS                     RUA JOSE CASTILHO SOBRINHO, 829         GLICERIO                                16270000SP  417         4217                                           23092013                   CENTRO                                                                                                                                                                                                                                                                                                                                                                                     267695-68     00006907112013
1                                                                                  MARCOS ROBERTO REIS                     RUA JOSE CASTILHO SOBRINHO, 829         GLICERIO                                16270000SP  417         4217                                           22102013                   CENTRO                                                                                                                                                                                                                                                                                                                                                                                     267695-69     00007007112013
1                                                                                  GILBERTO MORA                           RUA 16, 2551                            JALES                                   15700000SP  146         4222                                           23092013                   CENTRO                                                                                                                                                                                                                                                                                                                                                                                     267695-70     00007107112013
1                                                                                  GILBERTO MORA                           RUA 16, 2551                            JALES                                   15700000SP  146         4222                                           22102013                   CENTRO                                                                                                                                                                                                                                                                                                                                                                                     267695-71     00007207112013
1                                                                                  FERNANDO LUIZ CASSALHO                  RUA RUBIAO JUNIOR, 1522                 BURITAMA                                15290000SP  152         4222                                           23092013                   ALVORADA                                                                                                                                                                                                                                                                                                                                                                                   267695-72     00007307112013
1                                                                                  FERNANDO LUIZ CASSALHO                  RUA RUBIAO JUNIOR, 1522                 BURITAMA                                15290000SP  152         4222                                           22102013                   ALVORADA                                                                                                                                                                                                                                                                                                                                                                                   267695-73     00007407112013
1                                                                                  ADRIANO BATISTA SILVA                   RUA CARLOS ANTUNES MAMED, 180           FRONTEIRA                               38230000MG  173         4222                                           23092013                   COHAB 1                                                                                                                                                                                                                                                                                                                                                                                    267695-74     00007507112013
1                                                                                  ADRIANO BATISTA SILVA                   RUA CARLOS ANTUNES MAMED, 180           FRONTEIRA                               38230000MG  173         4222                                           22102013                   COHAB 1                                                                                                                                                                                                                                                                                                                                                                                    267695-75     00007607112013
1                                                                                  MAURO ANDRE PEREIRA FERRAREZI           RUA FLORIDA, 136                        BIRIGUI                                 16200796SP  189         4222                                           23092013                   SANTO ANTONIO                                                                                                                                                                                                                                                                                                                                                                              267695-76     00007707112013
1                                                                                  MAURO ANDRE PEREIRA FERRAREZI           RUA FLORIDA, 136                        BIRIGUI                                 16200796SP  189         4222                                           22102013                   SANTO ANTONIO                                                                                                                                                                                                                                                                                                                                                                              267695-77     00007807112013
1                                                                                  CAMILA FERNANDA SANCHES ALVES           R PROFESSORA MARINHA DO NASCIMENTO BE, 1815SAO JOSE DO RIO PRETO                   15081020SP  245         4222                                           23092013                   RESIDENCIAL CIDADE JARDIM                                                                                                                                                                                                                                                                                                                                                                  267695-78     00007907112013
1                                                                                  CAMILA FERNANDA SANCHES ALVES           R PROFESSORA MARINHA DO NASCIMENTO BE, 1815SAO JOSE DO RIO PRETO                   15081020SP  245         4222                                           22102013                   RESIDENCIAL CIDADE JARDIM                                                                                                                                                                                                                                                                                                                                                                  267695-79     00008007112013
1                                                                                  LINDALVA MARIA QUEIROZ                  RUA OSORIO HILARIO PONTES, 760 FUNDOS   BIRIGUI                                 16204377SP  474         4222                                           23092013                   TOSELAR                                                                                                                                                                                                                                                                                                                                                                                    267695-80     00008107112013
1                                                                                  LINDALVA MARIA QUEIROZ                  RUA OSORIO HILARIO PONTES, 760 FUNDOS   BIRIGUI                                 16204377SP  474         4222                                           22102013                   TOSELAR                                                                                                                                                                                                                                                                                                                                                                                    267695-81     00008207112013
1                                                                                  LIDER BICICLETAS FERNANDOPOLIS LTDA     R PERNAMBUCO, 1681                      FERNANDOPOLIS                           15600000SP  043         4223                                           23092013                   VILA APARECIDA                                                                                                                                                                                                                                                                                                                                                                             267695-82     00008307112013
1                                                                                  LIDER BICICLETAS FERNANDOPOLIS LTDA     R PERNAMBUCO, 1681                      FERNANDOPOLIS                           15600000SP  043         4223                                           22102013                   VILA APARECIDA                                                                                                                                                                                                                                                                                                                                                                             267695-83     00008407112013
1                                                                                  LIDER BICICLETAS FERNANDOPOLIS LTDA     R PERNAMBUCO, 1681                      FERNANDOPOLIS                           15600000SP  016         4225                                           23092013                   VILA APARECIDA                                                                                                                                                                                                                                                                                                                                                                             267695-84     00008507112013
1                                                                                  LIDER BICICLETAS FERNANDOPOLIS LTDA     R PERNAMBUCO, 1681                      FERNANDOPOLIS                           15600000SP  016         4225                                           22102013                   VILA APARECIDA                                                                                                                                                                                                                                                                                                                                                                             267695-85     00008607112013
1                                                                                  LIDER BICICLETAS FERNANDOPOLIS LTDA     R PERNAMBUCO, 1681                      FERNANDOPOLIS                           15600000SP  017         4225                                           23092013                   VILA APARECIDA                                                                                                                                                                                                                                                                                                                                                                             267695-86     00008707112013
1                                                                                  LIDER BICICLETAS FERNANDOPOLIS LTDA     R PERNAMBUCO, 1681                      FERNANDOPOLIS                           15600000SP  017         4225                                           22102013                   VILA APARECIDA                                                                                                                                                                                                                                                                                                                                                                             267695-87     00008807112013
1                                                                                  FLAVIA BATISTA NASCIMENTO               AV DOS BANDEIRANTES, 1809               OUROESTE                                15685000SP  022         4226                                           23092013                   CENTRO                                                                                                                                                                                                                                                                                                                                                                                     267695-88     00008907112013
1                                                                                  FLAVIA BATISTA NASCIMENTO               AV DOS BANDEIRANTES, 1809               OUROESTE                                15685000SP  022         4226                                           22102013                   CENTRO                                                                                                                                                                                                                                                                                                                                                                                     267695-89     00009007112013
1                                                                                  EDISON OLIVEIRA SOUZA JUNIOR            AV JOSE FRANCISCO DOS SANTOS, 41        FERNANDOPOLIS                           15600000SP  037         4226                                           23092013                   BRASILANDIA                                                                                                                                                                                                                                                                                                                                                                                267695-90     00009107112013
1                                                                                  EDISON OLIVEIRA SOUZA JUNIOR            AV JOSE FRANCISCO DOS SANTOS, 41        FERNANDOPOLIS                           15600000SP  037         4226                                           22102013                   BRASILANDIA                                                                                                                                                                                                                                                                                                                                                                                267695-91     00009207112013
1                                                                                  EDISON OLIVEIRA SOUZA JUNIOR            AV JOSE FRANCISCO DOS SANTOS, 41        FERNANDOPOLIS                           15600000SP  038         4226                                           23092013                   BRASILANDIA                                                                                                                                                                                                                                                                                                                                                                                267695-92     00009307112013
1                                                                                  EDISON OLIVEIRA SOUZA JUNIOR            AV JOSE FRANCISCO DOS SANTOS, 41        FERNANDOPOLIS                           15600000SP  038         4226                                           22102013                   BRASILANDIA                                                                                                                                                                                                                                                                                                                                                                                267695-93     00009407112013
1                                                                                  MANOEL FRANCISCO SILVA                  R LAFAYETTE JOSE SPINOLA (ZUZA), 2227   SAO JOSE DO RIO PRETO                   15081130SP  083         4226                                           23092013                   RESIDENCIAL CIDADE JARDIM                                                                                                                                                                                                                                                                                                                                                                  267695-94     00009507112013
1                                                                                  MANOEL FRANCISCO SILVA                  R LAFAYETTE JOSE SPINOLA (ZUZA), 2227   SAO JOSE DO RIO PRETO                   15081130SP  083         4226                                           22102013                   RESIDENCIAL CIDADE JARDIM                                                                                                                                                                                                                                                                                                                                                                  267695-95     00009607112013
1                                                                                  MANOEL FRANCISCO SILVA                  R LAFAYETTE JOSE SPINOLA (ZUZA), 2227   SAO JOSE DO RIO PRETO                   15081130SP  100         4226                                           23092013                   RESIDENCIAL CIDADE JARDIM                                                                                                                                                                                                                                                                                                                                                                  267695-96     00009707112013
1                                                                                  MANOEL FRANCISCO SILVA                  R LAFAYETTE JOSE SPINOLA (ZUZA), 2227   SAO JOSE DO RIO PRETO                   15081130SP  100         4226                                           22102013                   RESIDENCIAL CIDADE JARDIM                                                                                                                                                                                                                                                                                                                                                                  267695-97     00009807112013
1                                                                                  LIDER BICICLETAS FERNANDOPOLIS LTDA     R PERNAMBUCO, 1681                      FERNANDOPOLIS                           15600000SP  106         4227                                           23092013                   VILA APARECIDA                                                                                                                                                                                                                                                                                                                                                                             267695-98     00009907112013
1                                                                                  LIDER BICICLETAS FERNANDOPOLIS LTDA     R PERNAMBUCO, 1681                      FERNANDOPOLIS                           15600000SP  106         4227                                           22102013                   VILA APARECIDA                                                                                                                                                                                                                                                                                                                                                                             267695-99     00010007112013
1                                                                                  LIDER BICICLETAS FERNANDOPOLIS LTDA     R PERNAMBUCO, 1681                      FERNANDOPOLIS                           15600000SP  107         4227                                           23092013                   VILA APARECIDA                                                                                                                                                                                                                                                                                                                                                                             267695-100    00010107112013
1                                                                                  LIDER BICICLETAS FERNANDOPOLIS LTDA     R PERNAMBUCO, 1681                      FERNANDOPOLIS                           15600000SP  107         4227                                           22102013                   VILA APARECIDA                                                                                                                                                                                                                                                                                                                                                                             267695-101    00010207112013
1                                                                                  EDSON JESUS MORETI                      R JOAO CRUZ OLIVERA, 2604               VOTUPORANGA                             15505005SP  010         4228                                           23092013                   JARDIM BOM CLIMA                                                                                                                                                                                                                                                                                                                                                                           267695-102    00010307112013
1                                                                                  EDSON JESUS MORETI                      R JOAO CRUZ OLIVERA, 2604               VOTUPORANGA                             15505005SP  010         4228                                           22102013                   JARDIM BOM CLIMA                                                                                                                                                                                                                                                                                                                                                                           267695-103    00010407112013
1                                                                                  CRISTINA AYDAR ARANTES                  R DOMINGOS FURINI, 3  QD 14 B           INDIAPORA                               15690000SP  117         4228                                           23092013                   CENTRO                                                                                                                                                                                                                                                                                                                                                                                     267695-104    00010507112013
1                                                                                  CRISTINA AYDAR ARANTES                  R DOMINGOS FURINI, 3  QD 14 B           INDIAPORA                               15690000SP  117         4228                                           22102013                   CENTRO                                                                                                                                                                                                                                                                                                                                                                                     267695-105    00010607112013
1                                                                                  LIDER BICICLETAS FERNANDOPOLIS LTDA     R PERNAMBUCO, 1681                      FERNANDOPOLIS                           15600000SP  150         4228                                           23092013                   VILA APARECIDA                                                                                                                                                                                                                                                                                                                                                                             267695-106    00010707112013
1                                                                                  LIDER BICICLETAS FERNANDOPOLIS LTDA     R PERNAMBUCO, 1681                      FERNANDOPOLIS                           15600000SP  150         4228                                           22102013                   VILA APARECIDA                                                                                                                                                                                                                                                                                                                                                                             267695-107    00010807112013
1                                                                                  ELAINE REGINA AMARAL                    R SEBASTIAO DE LIMA BRAGA, 3524         VOTUPORANGA                             15503045SP  008         4229                                           23092013                   COLINAS                                                                                                                                                                                                                                                                                                                                                                                    267695-108    00010907112013
1                                                                                  ELAINE REGINA AMARAL                    R SEBASTIAO DE LIMA BRAGA, 3524         VOTUPORANGA                             15503045SP  008         4229                                           22102013                   COLINAS                                                                                                                                                                                                                                                                                                                                                                                    267695-109    00011007112013
1                                                                                  A RODRIGUES TRANSPORTES LTDA ME         R TRES FRONTEIRAS, 3281                 SAO JOSE DO RIO PRETO                   15043070SP  014         4229                                           23092013                   ELDORADO                                                                                                                                                                                                                                                                                                                                                                                   267695-110    00011107112013
1                                                                                  A RODRIGUES TRANSPORTES LTDA ME         R TRES FRONTEIRAS, 3281                 SAO JOSE DO RIO PRETO                   15043070SP  014         4229                                           22102013                   ELDORADO                                                                                                                                                                                                                                                                                                                                                                                   267695-111    00011207112013
1                                                                                  IVONE FALAVINHA RIBEIRO                 R LEANDRO TEIXEIRA MACHADO, 225         BIRIGUI                                 16202057SP  065         4229                                           23092013                   JARDIM SAO BRAZ                                                                                                                                                                                                                                                                                                                                                                            267695-112    00011307112013
1                                                                                  IVONE FALAVINHA RIBEIRO                 R LEANDRO TEIXEIRA MACHADO, 225         BIRIGUI                                 16202057SP  065         4229                                           22102013                   JARDIM SAO BRAZ                                                                                                                                                                                                                                                                                                                                                                            267695-113    00011407112013
1                                                                                  LUCAS CABRAL SOUZA                      AV CATARINA MARTINS LOPES, 6133         VOTUPORANGA                             15505050SP  104         4229                                           23092013                   BOM CLIMA                                                                                                                                                                                                                                                                                                                                                                                  267695-114    00011507112013
1                                                                                  LUCAS CABRAL SOUZA                      AV CATARINA MARTINS LOPES, 6133         VOTUPORANGA                             15505050SP  104         4229                                           22102013                   BOM CLIMA                                                                                                                                                                                                                                                                                                                                                                                  267695-115    00011607112013
1                                                                                  ANDERSON SOUZA BRAGHIN                  RUA FIORENTINA BABETO CAPUANO, 217      BIRIGUI                                 16200000SP  125         4229                                           23092013                   JD DO TREVO                                                                                                                                                                                                                                                                                                                                                                                267695-116    00011707112013
1                                                                                  ANDERSON SOUZA BRAGHIN                  RUA FIORENTINA BABETO CAPUANO, 217      BIRIGUI                                 16200000SP  125         4229                                           22102013                   JD DO TREVO                                                                                                                                                                                                                                                                                                                                                                                267695-117    00011807112013
1                                                                                  ANDERSON SOUZA BRAGHIN                  RUA FIORENTINA BABETO CAPUANO, 217      BIRIGUI                                 16200000SP  126         4229                                           23092013                   JD DO TREVO                                                                                                                                                                                                                                                                                                                                                                                267695-118    00011907112013
1                                                                                  ANDERSON SOUZA BRAGHIN                  RUA FIORENTINA BABETO CAPUANO, 217      BIRIGUI                                 16200000SP  126         4229                                           22102013                   JD DO TREVO                                                                                                                                                                                                                                                                                                                                                                                267695-119    00012007112013
1                                                                                  SIDNEI JOSE SILVA                       RUA MATHEUS JOSE GUERRA, 96             SAO JOSE DO RIO PRETO                   15015553SP  152         4229                                           23092013                   GARCIA II                                                                                                                                                                                                                                                                                                                                                                                  267695-120    00012107112013
1                                                                                  SIDNEI JOSE SILVA                       RUA MATHEUS JOSE GUERRA, 96             SAO JOSE DO RIO PRETO                   15015553SP  152         4229                                           22102013                   GARCIA II                                                                                                                                                                                                                                                                                                                                                                                  267695-121    00012207112013
1                                                                                  REGINA CELIA SANTOS NERIS               RUA DAS HORTENCIAS, 202                 GLICERIO                                16270000SP  209         4230                                           23092013                   CENTRO                                                                                                                                                                                                                                                                                                                                                                                     267695-122    00012307112013
1                                                                                  REGINA CELIA SANTOS NERIS               RUA DAS HORTENCIAS, 202                 GLICERIO                                16270000SP  209         4230                                           22102013                   CENTRO                                                                                                                                                                                                                                                                                                                                                                                     267695-123    00012407112013
1                                                                                  LEANDRO MARTINS SANTOS                  AV NOVE, 1110                           RIOLANDIA                               15495000SP  342         4230                                           23092013                   CENTRO                                                                                                                                                                                                                                                                                                                                                                                     267695-124    00012507112013
1                                                                                  LEANDRO MARTINS SANTOS                  AV NOVE, 1110                           RIOLANDIA                               15495000SP  342         4230                                           22102013                   CENTRO                                                                                                                                                                                                                                                                                                                                                                                     267695-125    00012607112013
1                                                                                  IRACEMA RITA COSTA                      RUA HUGO CANEVARI, 5248                 PEREIRA BARRETO                         15370000SP  372         4230                                           23092013                   COLINAS TIETE                                                                                                                                                                                                                                                                                                                                                                              267695-126    00012707112013
1                                                                                  IRACEMA RITA COSTA                      RUA HUGO CANEVARI, 5248                 PEREIRA BARRETO                         15370000SP  372         4230                                           22102013                   COLINAS TIETE                                                                                                                                                                                                                                                                                                                                                                              267695-127    00012807112013
1                                                                                  MATHEUS HENRIQUE DAVID                  RUA OLIMPIO JOSE DA SILVA, 85           PINDORAMA                               15830000SP  486         4230                                           23092013                   RESID GEOVANA                                                                                                                                                                                                                                                                                                                                                                              267695-128    00012907112013
1                                                                                  MATHEUS HENRIQUE DAVID                  RUA OLIMPIO JOSE DA SILVA, 85           PINDORAMA                               15830000SP  486         4230                                           22102013                   RESID GEOVANA                                                                                                                                                                                                                                                                                                                                                                              267695-129    00013007112013
1                                                                                  LEANDRO MARTINS BARBOSA                 R ANTONIO BELCHIOR DA SILVEIRA, 375     NHANDEARA                               15190000SP  017         4231                                           23092013                   CENTRO                                                                                                                                                                                                                                                                                                                                                                                     267695-130    00013107112013
1                                                                                  LEANDRO MARTINS BARBOSA                 R ANTONIO BELCHIOR DA SILVEIRA, 375     NHANDEARA                               15190000SP  017         4231                                           22102013                   CENTRO                                                                                                                                                                                                                                                                                                                                                                                     267695-131    00013207112013
1                                                                                  LEANDRO MARTINS BARBOSA                 R ANTONIO BELCHIOR DA SILVEIRA, 375     NHANDEARA                               15190000SP  018         4231                                           23092013                   CENTRO                                                                                                                                                                                                                                                                                                                                                                                     267695-132    00013307112013
1                                                                                  LEANDRO MARTINS BARBOSA                 R ANTONIO BELCHIOR DA SILVEIRA, 375     NHANDEARA                               15190000SP  018         4231                                           22102013                   CENTRO                                                                                                                                                                                                                                                                                                                                                                                     267695-133    00013407112013
1                                                                                  JOSE CARLOS RODRIGUES CRUZ              RUA ANTONIO DA CRUZ, 575                PEDRANOPOLIS                            15630000SP  084         4231                                           23092013                   CENTRO                                                                                                                                                                                                                                                                                                                                                                                     267695-134    00013507112013
1                                                                                  JOSE CARLOS RODRIGUES CRUZ              RUA ANTONIO DA CRUZ, 575                PEDRANOPOLIS                            15630000SP  084         4231                                           22102013                   CENTRO                                                                                                                                                                                                                                                                                                                                                                                     267695-135    00013607112013
1                                                                                  ALVARO ANGELO SCATENA                   AV DOS PIONEIROS, CASA 16, 580          SUMARE                                  13175668SP  111         4231                                           23092013                   COND. ANGELICAS                                                                                                                                                                                                                                                                                                                                                                            267695-136    00013707112013
1                                                                                  ALVARO ANGELO SCATENA                   AV DOS PIONEIROS, CASA 16, 580          SUMARE                                  13175668SP  111         4231                                           22102013                   COND. ANGELICAS                                                                                                                                                                                                                                                                                                                                                                            267695-137    00013807112013
1                                                                                  ALVARO ANGELO SCATENA                   AV DOS PIONEIROS, CASA 16, 580          SUMARE                                  13175668SP  112         4231                                           23092013                   COND. ANGELICAS                                                                                                                                                                                                                                                                                                                                                                            267695-138    00013907112013
1                                                                                  ALVARO ANGELO SCATENA                   AV DOS PIONEIROS, CASA 16, 580          SUMARE                                  13175668SP  112         4231                                           22102013                   COND. ANGELICAS                                                                                                                                                                                                                                                                                                                                                                            267695-139    00014007112013
