0REMESSANOTIFICAÇÃO ELETRONICA        99999999999999Bicbanco S/A                            Avenida Paulista , 1048 12º andar                           BELA VISTA                    SÃO PAULO                     01310100SPBicbanco S/A                                                                    28062010                                                                                                                                                                                                                                                                                                                                                                                                000001
1028421002921COBR_CAUC_COR  FRIGORIFICO MATABOI S/A                 076189406000126CONDOR SUPER CENTER LTDA                R. NICOLA PELANDA250                    CURITIBA                                81880000PR2291100001001596840001938401  23062010900BRADESCO S/A        2307201000000000010213300CC                                                                                                                                                                                                                                                                                                                                                                                           104256-1      000002
1032420934675COBR_CAUC_BIC  ELIANE S/A REVESTIMENTOS CERAMICOS      034375501000174PARAGUACU ENG LTDA                      AV JURACI MAGALHOES JUNIOR, 500 4 ANDAR SALVADOR                                41940060BA229120000107978325DPL026077A  24062010013SALVADOR            1208201000000000018565120CC                                                                                                                                                                                                                                                                                                                                                                                           104256-2      000003
1037420933912COBR_CAUC_BIC  COPPER 100 IND. COM. LTDA               089463822000627LUPATECH S/A                            R.DALTON LAHM DOS REIS 201- CX.P 1215   CAXIAS DO SUL                           95112090RS2291300001043926924832/1      23062010029CAXIAS DO SUL       0708201000000000015139250CC                                                                                                                                                                                                                                                                                                                                                                                           104256-3      000004
1029140511987COBR_CAUC_BIC  BRASFUMO IND BRAS DE FUMOS S/A          005648120000385TABACUM INTERAMERICAN COM.E EXP.DE      ROD RSC 287, SN                         VENANCIO AIRES                          95800000RS229140000109224414000006676   22062010015PORTO ALEGRE        2009201000000000013700000TD                                                                                                                                                                                                                                                                                                                                                                                           104256-4      000005
1003421013987COBR_CAUC_COR  SCIENTIFIC COM E IMPORTACAO LTDA        005868278000280UNIMED DE FORTALEZA COOPERATIVA DE      AV.VISCONDE DO RIO BRANCO,4000          FORTALEZA                               60440216CE2291500001000041012190U       23062010900BRADESCO S/A        2307201000000000019760000CC                                                                                                                                                                                                                                                                                                                                                                                           104256-5      000006
9000005                                                                                                                                                                                                                                                                                                                                                                                                                                                                                                                                                                                                                                                                                                               000007
