0REMESSANOTIFICAÇÃO ELETRONICA        99999999999999Bicbanco S/A                            Avenida Brigadeiro Faria Lima           4.440     2º andar  Itaim Bibi                    São Paulo                     04538132SPBicbanco S/A                                                                    02102012                                                                                                                                                                                                                                                                                                                                                                                                000001
1032421001141DIR_CREDIT     ENGEPLAN TERRAP SANEAM E URB LTDA       083102764000115PM DE TIMBO                             AV. GETULIO VARGAS, 700                 TIMBO                                   89120000SC3794700001                                                                                                                                          011872930           0201201200000205452012/01     21092012000404Execução da obra de Construção do Binário de Acesso a Cidade, ligando aRua Sete de Setembro com a Rua Blumenaus por intermédio de ponte.                                                                                                        083897504000183196756-1      000002
1024420934410COBR_CAUC_BIC  INTERCOOP INT SUIN MED NORTE MT LTD     004613751000487CRISTALFRIGO IND COM IMPORTACAO EX      AV DOS ANDRADAS ,2229-STA EFIGENIA      BELO HORIZONTE                          30120010MG37965000010199135887095       19092012019BELO HORIZONTE      2210201200000000010849444CC                                                                                                                                                                                                                                                                                                                                                                                           196756-2      000003
1022421007800COBR_CAUC_COR  LEAO ENGENHARIA S/A                     083646984008518A. ANGELONI & CIA LTDA                  AV. CENTENARIO,7521                     MARINGA                                 88815900PR379660000100000352008807/1.1  24092012900BRADESCO S/A        2610201200000000016247661CC                                                                                                                                                                                                                                                                                                                                                                                           196756-3      000004
1046421002474COBR_CAUC_COR  MACROMAQ EQUIPAMENTOS LTDA              092791243000294CELULOSE IRANI S A                      BR 153 KM 47,S/N - CXP 87               VARGEM BONITA                           89675000SC3796700001015933782521CL01    21092012800UNIBANCO S/A        1510201200000000011310305CC                                                                                                                                                                                                                                                                                                                                                                                           196756-4      000005
1007421032516COBR_CAUC_BIC  NITRIFLEX SP IND E COM DE BORRACHAS     000026910000143SWEETMIX IND COM IMP EXP LTDA           ALAMEDA CACAPAVA, 60                    SOROCABA                                18085250SP379680000101466282001194201   21092012007PAULISTA            0211201200000000021145186CC                                                                                                                                                                                                                                                                                                                                                                                           196756-5      000006
1007421032516COBR_CAUC_BIC  NITRIFLEX SP IND E COM DE BORRACHAS     049327943000201DAY BRASIL S/A                          AV. MASRQUES DE SAO VICENTE, 1213       SAO PAULO                               01139901SP379690000101466274001194701   21092012007PAULISTA            1611201200000000016614627CC                                                                                                                                                                                                                                                                                                                                                                                           196756-6      000007
1047421001310COBR_CAUC_BIC  CAMPEZINA IND COM DE ALIMENTOS LTDA     067785931000113MIELE COMERCIAL DE ALIMENTOS LT-L       AV TANCREDO NEVES 1042                  VARGEM GRANDE P                         06730000SP37992000010151105600059795-3  14092012007PAULISTA            2210201200000000000365870CC                                                                                                                                                                                                                                                                                                                                                                                           196756-7      000008
1047421001310COBR_CAUC_BIC  CAMPEZINA IND COM DE ALIMENTOS LTDA     067785931000113MIELE COMERCIAL DE ALIMENTOS LT-L       AV TANCREDO NEVES 1042                  VARGEM GRANDE P                         06730000SP37992000020151107200059795-2  14092012007PAULISTA            1510201200000000000365871CC                                                                                                                                                                                                                                                                                                                                                                                           196756-8      000009
1047421001310COBR_CAUC_BIC  CAMPEZINA IND COM DE ALIMENTOS LTDA     067785931000113MIELE COMERCIAL DE ALIMENTOS LT-L       AV TANCREDO NEVES 1042                  VARGEM GRANDE P                         06730000SP37992000030151108100059795-1  14092012007PAULISTA            0810201200000000000365981CC                                                                                                                                                                                                                                                                                                                                                                                           196756-9      000010
1047421001310COBR_CAUC_BIC  CAMPEZINA IND COM DE ALIMENTOS LTDA     054562889000120MINI MERCADO TOK LEVE LTDA-L 119-R      RUA DOUTOR SILVIO D BERTACCHI 963       SAO PAULO                               05625001SP37993000010151102100059796-3  14092012007PAULISTA            2210201200000000000365870CC                                                                                                                                                                                                                                                                                                                                                                                           196756-10     000011
1047421001310COBR_CAUC_BIC  CAMPEZINA IND COM DE ALIMENTOS LTDA     054562889000120MINI MERCADO TOK LEVE LTDA-L 119-R      RUA DOUTOR SILVIO D BERTACCHI 963       SAO PAULO                               05625001SP37993000020151103000059796-2  14092012007PAULISTA            1510201200000000000365871CC                                                                                                                                                                                                                                                                                                                                                                                           196756-11     000012
1047421001310COBR_CAUC_BIC  CAMPEZINA IND COM DE ALIMENTOS LTDA     054562889000120MINI MERCADO TOK LEVE LTDA-L 119-R      RUA DOUTOR SILVIO D BERTACCHI 963       SAO PAULO                               05625001SP37993000030151104800059796-1  14092012007PAULISTA            0810201200000000000365981CC                                                                                                                                                                                                                                                                                                                                                                                           196756-12     000013
1047421001310COBR_CAUC_BIC  CAMPEZINA IND COM DE ALIMENTOS LTDA     067937136000101SUPERMERCADO MIZOBUCHI LT LJ 61- R      RUA VICENTE LEPORACE 35                 TABOAO DA SERRA                         06786000SP37994000010151106400059791-1  14092012007PAULISTA            0810201200000000000731961CC                                                                                                                                                                                                                                                                                                                                                                                           196756-13     000014
1047421001310COBR_CAUC_BIC  CAMPEZINA IND COM DE ALIMENTOS LTDA     067937136000101SUPERMERCADO MIZOBUCHI LT LJ 61- R      RUA VICENTE LEPORACE 35                 TABOAO DA SERRA                         06786000SP37994000020151109900059791-3  14092012007PAULISTA            2210201200000000000731742CC                                                                                                                                                                                                                                                                                                                                                                                           196756-14     000015
1047421001310COBR_CAUC_BIC  CAMPEZINA IND COM DE ALIMENTOS LTDA     067937136000101SUPERMERCADO MIZOBUCHI LT LJ 61- R      RUA VICENTE LEPORACE 35                 TABOAO DA SERRA                         06786000SP37994000030151110200059791-2  14092012007PAULISTA            1510201200000000000731741CC                                                                                                                                                                                                                                                                                                                                                                                           196756-15     000016
1007421006183COBR_CAUC_BIC  NITRIFLEX S/A IND E COMERCIO            015179682002243RHODIA POLIAMIDA E ESPECIALIDADES       AV.DOS ESTADOS, 6144                    SANTO ANDRE                             09290520SP379950000101467254001716901   24092012038ABC                 2611201200000000013330170CC                                                                                                                                                                                                                                                                                                                                                                                           196764-1      000017
1038421018922COBR_CAUC_COR  AMEPLAN ASSIST MEDICA PLANEJADA         011031202000117MOBIBRASIL TRANSPORTE URBANO LTDA       R. GENARO DE CARVALHO,145               SAO PAULO                               04377220SP37996000010036832345447       24092012900BRADESCO S/A        2510201200000000012980476CC                                                                                                                                                                                                                                                                                                                                                                                           196764-2      000018
1018421009783COBR_CAUC_COR  EMBALO EMBALAGENS LOGICAS LTDA          015009178000170USINA ITAMARATI S/A                     FAZ GUANABARA ,0                        NOVA OLIMPIA                            78370000MT379970000102909484038682      24092012800UNIBANCO S/A        2310201200000000013903423CC                                                                                                                                                                                                                                                                                                                                                                                           196764-3      000019
1019421013860COBR_CAUC_BIC  FERROSIDER METALMECANICA LTDA.          003400080000160VOITH HYDRO LTDA                        RUA FRIEDRICH VON VOITH,825             SAO PAULO                               02995000SP37998000010657733126002526-1  25092012007PAULISTA            1411201200000000013825146CC                                                                                                                                                                                                                                                                                                                                                                                           196764-4      000020
1019421013860COBR_CAUC_BIC  FERROSIDER METALMECANICA LTDA.          003400080000160VOITH HYDRO LTDA                        RUA FRIEDRICH VON VOITH,825             SAO PAULO                               02995000SP37998000020657734926002522-1  25092012007PAULISTA            0711201200000000016472575CC                                                                                                                                                                                                                                                                                                                                                                                           196764-5      000021
1019421013860COBR_CAUC_BIC  FERROSIDER METALMECANICA LTDA.          003400080000160VOITH HYDRO LTDA                        RUA FRIEDRICH VON VOITH,825             SAO PAULO                               02995000SP37998000030657735726002524-1  25092012007PAULISTA            1411201200000000013882512CC                                                                                                                                                                                                                                                                                                                                                                                           196764-6      000022
1019421013860COBR_CAUC_BIC  FERROSIDER METALMECANICA LTDA.          003400080000160VOITH HYDRO LTDA                        RUA FRIEDRICH VON VOITH,825             SAO PAULO                               02995000SP37998000040657736526002527-1  25092012007PAULISTA            1411201200000000015287973CC                                                                                                                                                                                                                                                                                                                                                                                           196764-7      000023
1019421013860COBR_CAUC_BIC  FERROSIDER METALMECANICA LTDA.          003400080000160VOITH HYDRO LTDA                        RUA FRIEDRICH VON VOITH,825             SAO PAULO                               02995000SP37998000050657737326002529-1  25092012007PAULISTA            1411201200000000013756307CC                                                                                                                                                                                                                                                                                                                                                                                           196764-8      000024
1037421008368COBR_CAUC_BIC  LOCOMOTIVA IND. E COM. DE TEXTEIS       065576811000180TATU LONAS COMERCIAL LTDA               R,21 DE ABRIL,253-                      SAO PAULO (SP)                          03047000SP379990000104550280000047057   24092012007PAULISTA            2210201200000000010857798CC                                                                                                                                                                                                                                                                                                                                                                                           196764-9      000025
1032421021185DIR_CREDIT     TRANSVILLE TRANSPORTES E SERV. LTDA     082640558000104KARSTEN S/A                             RUA JOHANN KARSTEN, 260                 BLUMENAU                                89074700SC3801200001                                                                                                                                          011888268           150720100000017592            28062012051902Prestação de serviços de Transporte e Outras Avenças, dentro das neces-sidades da CONTRATANTE, sem caráter de exclusividade, para coleta, transferência e entrega de PRODUTOS de sua fabricação ou comercialização.                             082604042000104196764-10     000026
9000025                                                                                                                                                                                                                                                                                                                                                                                                                                                                                                                                                                                                                                                                                                               000027
