0REMESSANOTIFICAÇÃO ELETRONICA        99999999999999Bicbanco S/A                            Avenida Paulista                        1048      12º andar BELA VISTA                    SÃO PAULO                     01310100SPBicbanco S/A                                                                    15092010                                                                                                                                                                                                                                                                                                                                                                                                000001
1031420932046COBR_CAUC_BIC  PALMALI INDL.DE ALIMENTOS LTDA          074101569000341AGRICOLA JANDELLE S/A.                  AV ITAMARATY                            ROLANDIA                                86600000PR241520000104746501NE 0309961  10092010031LONDRINA            0910201000000000025000000CC                                                                                                                                                                                                                                                                                                                                                                                           111259-1      000002
1031420932046COBR_CAUC_BIC  PALMALI INDL.DE ALIMENTOS LTDA          074101569000341AGRICOLA JANDELLE S/A.                  AV ITAMARATY                            ROLANDIA                                86600000PR241520000204746510NE 0309962  10092010031LONDRINA            0911201000000000025000000CC                                                                                                                                                                                                                                                                                                                                                                                           111259-2      000003
1031420932046COBR_CAUC_BIC  PALMALI INDL.DE ALIMENTOS LTDA          074101569000341AGRICOLA JANDELLE S/A.                  AV ITAMARATY                            ROLANDIA                                86600000PR241520000304746528NE 0309971  10092010031LONDRINA            0912201000000000025000000CC                                                                                                                                                                                                                                                                                                                                                                                           111259-3      000004
1031420932046COBR_CAUC_BIC  PALMALI INDL.DE ALIMENTOS LTDA          074101569000341AGRICOLA JANDELLE S/A.                  AV ITAMARATY                            ROLANDIA                                86600000PR241520000404746536NE 0309991  10092010031LONDRINA            0912201000000000025000000CC                                                                                                                                                                                                                                                                                                                                                                                           111259-4      000005
1031420932046COBR_CAUC_BIC  PALMALI INDL.DE ALIMENTOS LTDA          074101569000341AGRICOLA JANDELLE S/A.                  AV ITAMARATY                            ROLANDIA                                86600000PR241520000504746544NE 0310001  10092010031LONDRINA            0910201000000000025000000CC                                                                                                                                                                                                                                                                                                                                                                                           111259-5      000006
1031420932046COBR_CAUC_BIC  PALMALI INDL.DE ALIMENTOS LTDA          074101569000341AGRICOLA JANDELLE S/A.                  AV ITAMARATY                            ROLANDIA                                86600000PR241520000604746552NE 0310002  10092010031LONDRINA            0911201000000000025000000CC                                                                                                                                                                                                                                                                                                                                                                                           111259-6      000007
1003421013987COBR_CAUC_COR  SCIENTIFIC COM E IMPORTACAO LTDA        008546929000122CARESTREAM DO BRASIL COM.SERV.P.ME      AV.DR.MARCOS PENTEADO,401-PARTE 17      BARUERI                                 06460040SP2415300001000123250000283     10092010900BRADESCO S/A        1011201000000000012173538CC                                                                                                                                                                                                                                                                                                                                                                                           111259-7      000008
9000007                                                                                                                                                                                                                                                                                                                                                                                                                                                                                                                                                                                                                                                                                                               000009
