0REMESSANOTIFICAÇÃO ELETRONICA        99999999999999Bicbanco S/A                            Avenida Brigadeiro Faria Lima           4.440     2º andar  Itaim Bibi                    São Paulo                     04538132SPBicbanco S/A                                                                    06112014                                                                                                                                                                                                                                                                                                                                                                                                000001
1010421023970COBR_CAUC_COR  RECIFE MERCANTIL DE ALIMENTOS LTDA      008962656000105PADARIA E CONFEITARIA DIPLOMATA LT      AVENIDA CONSELHEIRO AGUIAR 2154         RECIFE                                  51111010PE500050000100395031007131961   31102014900BRADESCO S/A        0112201400000000016946796CC                                                                                                                                                                                                                                                                                                                                                                                           331516-1      000002
1003421013987COBR_CAUC_COR  SCIENTIFIC COM E IMPORTACAO LTDA        000029372000140GE HEALTHCARE DO BRASIL COM E SER       AV DAS NACOES UNIDAS,8501               SAO PAULO                               05425070SP5000600001001156041133        31102014900BRADESCO S/A        1512201400000000024045662CC                                                                                                                                                                                                                                                                                                                                                                                           331516-2      000003
1031421011181COBR_CAUC_BIC  AGROIND IRMAOS DALLA COSTA LTDA         032296378003609CEREAIS BRAMIL LTDA                     RUA SANTO ANTONIO00059                  TRES RIOS                               25804970RJ5000700001054529784541/1      11102014014RIO DE JANEIRO      1511201400000000020252711CC                                                                                                                                                                                                                                                                                                                                                                                           331516-3      000004
1031421011181COBR_CAUC_COR  AGROIND IRMAOS DALLA COSTA LTDA         062527619000106ROYAL CANIN DO BRASIL INDUSTRIA E       RUA JOAO AUGUSTO CIRELLI 00210          DESCALVADO                              13690000SP50008000010545299415593/1     07102014800UNIBANCO S/A        1611201400000000013488000CC                                                                                                                                                                                                                                                                                                                                                                                           331516-4      000005
1029421000242COBR_CAUC_COR  COOP TRITICOLA SANANDUVA LTDA           000043562353049PEDRO JACOB BIAZUS                      RUA GENERAL FLORES DA CUNHA,107         SANANDUVA                               99840000RS5001400001001395383101132     31032014700BANCO REAL- ABN AMRO1011201400000000003750000CC                                                                                                                                                                                                                                                                                                                                                                                           331516-5      000006
1029421000242COBR_CAUC_COR  COOP TRITICOLA SANANDUVA LTDA           000097289930053FRANCIANO BENETTI                       RUA 20 DE SETEMBRO,309                  ESMERALDA                               95380000RS5001500001001395463001132     05042014700BANCO REAL- ABN AMRO1011201400000000004700000CC                                                                                                                                                                                                                                                                                                                                                                                           331516-6      000007
1029421000242COBR_CAUC_COR  COOP TRITICOLA SANANDUVA LTDA           000060596619049VOLMIR BENETTI                          BOM CONSELHO,1                          SANANDUVA                               99840000RS500160000100139503260514      26052014700BANCO REAL- ABN AMRO1012201400000000005300000CC                                                                                                                                                                                                                                                                                                                                                                                           331516-7      000008
1029421000242COBR_CAUC_COR  COOP TRITICOLA SANANDUVA LTDA           000024669733087DENIS ANTONIO GOLIN                     RUA 14 DE JULHO,344                     SANANDUVA                               99840000RS50017000010013952068641       03042014700BANCO REAL- ABN AMRO1011201400000000006250000CC                                                                                                                                                                                                                                                                                                                                                                                           331516-8      000009
1029421000242COBR_CAUC_COR  COOP TRITICOLA SANANDUVA LTDA           000046420819091AMARILDO SPIRONELLO                     RUA ANGELA RAYMUNDI,34                  SANANDUVA                               99840000RS50018000010013951150514       05052014700BANCO REAL- ABN AMRO1012201400000000006700000CC                                                                                                                                                                                                                                                                                                                                                                                           331516-9      000010
1006441007565COBR_CAUC_BIC  EURO ELET COM DE MAT ELET LTDA - ME     013169652000104BS DESIGN EMPREEND IMOBILIARIO LTD      R. DES. LEITE ALBUQUE,635-SALA 802      FORTALEZA                               60150150CE500190000100052180049-01      17102014003CENTRO              2811201400000000000250412CC                                                                                                                                                                                                                                                                                                                                                                                           331516-10     000011
1006441007565COBR_CAUC_BIC  EURO ELET COM DE MAT ELET LTDA - ME     009301487000117PORTAL DAS DUNAS EMPREENDIMENTOS I      AV SANTOS DUMONT,7785                   FORTALEZA                               60191156CE5002000001099546314839-02     29072014003CENTRO              2711201400000000000060591CC                                                                                                                                                                                                                                                                                                                                                                                           331516-11     000012
1006441007565COBR_CAUC_BIC  EURO ELET COM DE MAT ELET LTDA - ME     009301487000117PORTAL DAS DUNAS EMPREENDIMENTOS I      AV SANTOS DUMONT,7785                   FORTALEZA                               60191156CE5002000002099546404840-01     29072014003CENTRO              2711201400000000000700657CC                                                                                                                                                                                                                                                                                                                                                                                           331516-12     000013
1006441007565COBR_CAUC_BIC  EURO ELET COM DE MAT ELET LTDA - ME     009301487000117PORTAL DAS DUNAS EMPREENDIMENTOS I      AV SANTOS DUMONT,7785                   FORTALEZA                               60191156CE5002000003099602834841-02     31072014003CENTRO              2911201400000000000153013CC                                                                                                                                                                                                                                                                                                                                                                                           331516-13     000014
1006441007565COBR_CAUC_BIC  EURO ELET COM DE MAT ELET LTDA - ME     011951677000121LAZULI EMPREENDIMENTO IMOBILIARIO       R. JOAQUIM NABUCO ,505                  FORTALEZA                               60125120CE5002100001000152331407G-02    09092014003CENTRO              3011201400000000000052484CC                                                                                                                                                                                                                                                                                                                                                                                           331516-14     000015
1006441007565COBR_CAUC_BIC  EURO ELET COM DE MAT ELET LTDA - ME     011951677000121LAZULI EMPREENDIMENTO IMOBILIARIO       R. JOAQUIM NABUCO ,505                  FORTALEZA                               60125120CE5002100002000152501407F-02    09092014003CENTRO              3011201400000000000015410CC                                                                                                                                                                                                                                                                                                                                                                                           331516-15     000016
1006441007565COBR_CAUC_BIC  EURO ELET COM DE MAT ELET LTDA - ME     011951677000121LAZULI EMPREENDIMENTO IMOBILIARIO       R. JOAQUIM NABUCO ,505                  FORTALEZA                               60125120CE5002100003000152761407E-02    09092014003CENTRO              3011201400000000000083621CC                                                                                                                                                                                                                                                                                                                                                                                           331516-16     000017
1006441007565COBR_CAUC_BIC  EURO ELET COM DE MAT ELET LTDA - ME     011951677000121LAZULI EMPREENDIMENTO IMOBILIARIO       R. JOAQUIM NABUCO ,505                  FORTALEZA                               60125120CE5002100004000152921407D-02    09092014003CENTRO              3011201400000000001027992CC                                                                                                                                                                                                                                                                                                                                                                                           331516-17     000018
1006441007565COBR_CAUC_BIC  EURO ELET COM DE MAT ELET LTDA - ME     011951677000121LAZULI EMPREENDIMENTO IMOBILIARIO       R. JOAQUIM NABUCO ,505                  FORTALEZA                               60125120CE5002100005000153141407C-02    09092014003CENTRO              3011201400000000000102535CC                                                                                                                                                                                                                                                                                                                                                                                           331516-18     000019
1006441007565COBR_CAUC_BIC  EURO ELET COM DE MAT ELET LTDA - ME     011951677000121LAZULI EMPREENDIMENTO IMOBILIARIO       R. JOAQUIM NABUCO ,505                  FORTALEZA                               60125120CE5002100006000153311407B-02    09092014003CENTRO              3011201400000000000030432CC                                                                                                                                                                                                                                                                                                                                                                                           331516-19     000020
1006441007565COBR_CAUC_BIC  EURO ELET COM DE MAT ELET LTDA - ME     011951677000121LAZULI EMPREENDIMENTO IMOBILIARIO       R. JOAQUIM NABUCO ,505                  FORTALEZA                               60125120CE5002100007000153571407A-02    09092014003CENTRO              3011201400000000000157140CC                                                                                                                                                                                                                                                                                                                                                                                           331516-20     000021
1006441007565COBR_CAUC_BIC  EURO ELET COM DE MAT ELET LTDA - ME     011951677000121LAZULI EMPREENDIMENTO IMOBILIARIO       R. JOAQUIM NABUCO ,505                  FORTALEZA                               60125120CE5002100008000153651407H-02    09092014003CENTRO              3011201400000000000019697CC                                                                                                                                                                                                                                                                                                                                                                                           331516-21     000022
1007421065309COBR_CAUC_BIC  OCEANO IND.GRAFICA E EDITORA LTDA       008108543000139LEYA EDITORA LTDA                       R. DES. PAULO PASSALACQUA,86            SAO PAULO                               01248010SP50022000010341688685446/4     28102014007PAULISTA            2812201400000000021373582CC                                                                                                                                                                                                                                                                                                                                                                                           331523-1      000023
1010421024356COBR_CAUC_COR  DIST EQUADOR DE PROD PETROLEO LTDA      001362266000147TRANSGLOBAL SERVICOS LTDA               AV ABIURANA, 2351                       MANAUS                                  69075010AM500230000100111416133905-001  04112014900BRADESCO S/A        1911201400000000015575000CC                                                                                                                                                                                                                                                                                                                                                                                           331523-2      000024
1046141000986COBR_CAUC_COR  COOPERATIVA DE EXTRACAO DE CARVAO M     083163576000105CARBONIFERA BELLUNO LTDA                ESTRADA GERAL RIO FIORITA,10            SIDEROPOLIS                             88860000SC5002400001025573086005-1/1    28102014700BANCO REAL- ABN AMRO0601201500000000053333340TD                                                                                                                                                                                                                                                                                                                                                                                           331523-3      000025
1046141000986COBR_CAUC_COR  COOPERATIVA DE EXTRACAO DE CARVAO M     083163576000105CARBONIFERA BELLUNO LTDA                ESTRADA GERAL RIO FIORITA,10            SIDEROPOLIS                             88860000SC5002400002025573166005-1/2    28102014700BANCO REAL- ABN AMRO0701201500000000053333340TD                                                                                                                                                                                                                                                                                                                                                                                           331523-4      000026
1022421008149COBR_CAUC_COR  PASSAREDO T. AEREOS LTDA-EM REC.JUD     010760260000119CVC BRASIL OPERADORA E AGENCIA DE       RUA GERTRUDES DE LIMA,53-CJ 52          SANTO ANDRE                             09020000SP500250000100018391117300      31102014900BRADESCO S/A        1311201400000000025077326CC                                                                                                                                                                                                                                                                                                                                                                                           331523-5      000027
1018421034958DIR_CREDIT     VIACAO REUNIDAS LTDA                    033638032000176SIND EMP DE TRANSP COL URB PASSAG GOIÂNIAV DR IRANY ALVES FERREIRA, 298         GOIANIA                                 74465539GO5002600001                                                                                                                                          012698524           25032008000002349101/2007     04112014000401Adesão à bilhetagem eletrônica denominada "SIT-PASS - Sistema inteligente de tarifação de passagens" derivada do Contrato de Concessão nº 02/2008 paraexploração e operação dos serviços do LOTE Nº 03 - Concorrência 01/2007.                  001231646000142331523-6      000028
1046421006070DIR_CREDIT     METALURGICA DS LTDA                     060857349000176TRW AUTOMOTIVE LTDA                     VIA ANHANGUERA KM 147                   LIMEIRA                                 13486915SP5002800001                                                                                                                                          012701669           260320070000018698            04112014000404fornecimento de discos e tambores de freio para automóveis.                                                                                                                                                                                     079414868000198331523-7      000029
9000028                                                                                                                                                                                                                                                                                                                                                                                                                                                                                                                                                                                                                                                                                                               000030
