0REMESSANOTIFICAÇÃO ELETRONICA        99999999999999Bicbanco S/A                            Avenida Brigadeiro Faria Lima           4.440     2º andar  Itaim Bibi                    São Paulo                     04538132SPBicbanco S/A                                                                    05122014                                                                                                                                                                                                                                                                                                                                                                                                000001
1046421006070DIR_CREDIT     METALURGICA DS LTDA                     060857349000176TRW AUTOMOTIVE LTDA                     VIA ANHANGUERA KM 147                   LIMEIRA                                 13486915SP5023800001                                                                                                                                          012714159           260320070000018698            01122014000404fornecimento de discos e tambores de freio para automóveis.                                                                                                                                                                                     079414868000198336050-1      000002
1022421004852DIR_CREDIT     TONON BIOENERGIA S A                    001452651000185TAURUS DISTRIBUIDORA DE PETROLEO LTDA   ROD BR 163 KM 267 Q 50 LTE 22           DOURADOS                                79804970MS5023900001                                                                                                                                          012711650           17032014000002632408/2014(233/01122014017002Venda mensal de 500,0 M³ de Etanol Etílico Anidro Carburante durante o período de 01/05/2014 até 30/04/2014.                                                                                                                                    007914230000377336050-2      000003
1019421004658COBR_CAUC_COR  S/A ESTADO DE MINAS                     073312076000126SINDICATO I EXTRATIVAS O M P D P P      BERNARDO GUIMARAES 63 3 ANDAR           BELO HORIZONTE                          30140080MG5024300001013430642603934-1   30112014900BRADESCO S/A        3012201400000000011650000CC                                                                                                                                                                                                                                                                                                                                                                                           336050-3      000004
1009420930764COBR_CAUC_BIC  S/A CORREIO BRAZILIENSE                 073312076000126SINDICATO I EXTRATIVAS O M P D P P      R BERNARDO GUIMARAES 63 FUNCIONARIOS    BELO HORIZONTE                          30140080MG50244000010142920030293-1     30112014019BELO HORIZONTE      3012201400000000011904782CC                                                                                                                                                                                                                                                                                                                                                                                           336050-4      000005
1007421080049COBR_CAUC_COR  CASA FLORA LTDA                         000069957000194PORTO A PORTO COM IMP EXP LTDA          AVENIDA NOSSA SENHORA APARECIDA, 381    CURITIBA                                80440000PR502450000100001693000009211   06112014900BRADESCO S/A        3112201400000000019591765CC                                                                                                                                                                                                                                                                                                                                                                                           336050-5      000006
1007421080049COBR_CAUC_COR  CASA FLORA LTDA                         000069957000194PORTO A PORTO COM IMP EXP LTDA          AVENIDA NOSSA SENHORA APARECIDA, 381    CURITIBA                                80440000PR502450000200001707000009212   06112014900BRADESCO S/A        1001201500000000019591763CC                                                                                                                                                                                                                                                                                                                                                                                           336050-6      000007
1050421001492COBR_CAUC_COR  M J NOVAES DE LIMA & CIA LTDA           050719061000181COUROQUIMICA COUROS E ACABAMENTOS       AV ALBERTO PULICANO,3730                FRANCA                                  14406100SP50246000010000315714/6503A    01122014900BRADESCO S/A        3112201400000000012720374CC                                                                                                                                                                                                                                                                                                                                                                                           336050-7      000008
1031421011181COBR_CAUC_BIC  AGROIND IRMAOS DALLA COSTA LTDA         001920177000845COMERCIAL MILANO BRASIL LTDA            EST NOGUEIRAS00206                      DUQUE DE CAXIAS                         25230115RJ502470000105464372777/1       22112014014RIO DE JANEIRO      2012201400000000011449256CC                                                                                                                                                                                                                                                                                                                                                                                           336050-8      000009
1031421011181COBR_CAUC_COR  AGROIND IRMAOS DALLA COSTA LTDA         021005582000179NOGUEIRA RIVELLI IRMAOS LTDA            ROD BR 040 KM 700 CAIXA POSTAL 2700000  BARBACENA                               36205666MG50248000010546439918280/1     28112014600HSBC BANK BRASIL    1612201400000000018480000CC                                                                                                                                                                                                                                                                                                                                                                                           336050-9      000010
1031421011181COBR_CAUC_BIC  AGROIND IRMAOS DALLA COSTA LTDA         064308299000129INTERCONTINENTAL COMERCIO DE ALIME      ROD PRESIDENTE DUTRA 01957              SAO JOAO DE MER                         25515230RJ50249000010546438117854/1     20112014014RIO DE JANEIRO      1812201400000000017374500CC                                                                                                                                                                                                                                                                                                                                                                                           336050-10     000011
1046421006070DIR_CREDIT     METALURGICA DS LTDA                     060857349000176TRW AUTOMOTIVE LTDA                     VIA ANHANGUERA KM 147                   LIMEIRA                                 13486915SP5025100001                                                                                                                                          012714850           260320070000018698            02122014000404fornecimento de discos e tambores de freio para automóveis.                                                                                                                                                                                     079414868000198336050-11     000012
1022421004852DIR_CREDIT     TONON BIOENERGIA S A                    033337122000127IPIRANGA PRODUTOS DE PETRóLEO S/A       FAZENDA BOM RETIRO, S/N,ZONA RURAL      MARACAJU MS                             79150000MS5025300001                                                                                                                                          012711650           010520140000026331            01122014017002fornecimento de 24 mil m3 de etanol anidro ao longo de 12 meses;                                                                                                                                                                                007914230000105336050-12     000013
1050421000089COBR_CAUC_COR  ATIVO ALIMENTOS EXP E IMP EIRELI        027497684000135FRISA FRIGORIFICO RIO DOCE SA           R FIORAVANTE ROSSI 4000                 COLATINA                                29704700ES502540000100624429285552/1    02122014600HSBC BANK BRASIL    3012201400000000011228300CC                                                                                                                                                                                                                                                                                                                                                                                           336053-1      000014
1046421001443COBR_CAUC_COR  COSTAO DO SANTINHO TUR E LAZER LTDA     089848543000177LOJAS COLOMBO S/A COM UTILIDADES        RUA JOSE ACHILES COLOMBO,50             FARROUPILHA                             95180000RS502550000100016261239297      02122014900BRADESCO S/A        1812201400000000013630672CC                                                                                                                                                                                                                                                                                                                                                                                           336053-2      000015
9000014                                                                                                                                                                                                                                                                                                                                                                                                                                                                                                                                                                                                                                                                                                               000016
