0REMESSANOTIFICAÇÃO ELETRONICA        99999999999999Bicbanco S/A                            Avenida Paulista                        1048      12º andar BELA VISTA                    SÃO PAULO                     01310100SPBicbanco S/A                                                                    30032011                                                                                                                                                                                                                                                                                                                                                                                                000001
1021420930887COBR_CAUC_COR  DEDINI S/A INDUSTRIAS DE BASE           047038088000102SERMATEC IND E MONT LTDA                ROD. ARMANDO DE SALLES OLIVEIRA S.INDUSTSERTAOZINHO                             14160750SP269650000106140722145692-1-1  25032011900BRADESCO S/A        1204201100000000012920126CC                                                                                                                                                                                                                                                                                                                                                                                           126360-1      000002
1047421000534COBR_CAUC_COR  INDUSTRIA QUIMICA KIMBERLIT LTDA        003797765000192JARAGUA BAHIA MAQUINAS E IMPLEMENT      RODOVIA BR 242 KM 94S/N                 Luís Eduardo Ma                         47850000BA269660000100648252004293/01   18112010900BRADESCO S/A        3005201100000000013677957CC                                                                                                                                                                                                                                                                                                                                                                                           126360-2      000003
1047421000534COBR_CAUC_COR  INDUSTRIA QUIMICA KIMBERLIT LTDA        008725150000174A.S.COMERCIO DE PRODUTOS AGRICOLAS      RUA JUSCELINO KUBITS1870 QUADRA 81 LOTE Luís Eduardo Ma                         47850000BA269670000100648287003765/01   30092010900BRADESCO S/A        3005201100000000016218800CC                                                                                                                                                                                                                                                                                                                                                                                           126360-3      000004
9000003                                                                                                                                                                                                                                                                                                                                                                                                                                                                                                                                                                                                                                                                                                               000005
