0REMESSANOTIFICAÇÃO ELETRONICA        99999999999999Bicbanco S/A                            Avenida Brigadeiro Faria Lima           4.440     2º andar  Itaim Bibi                    São Paulo                     04538132SPBicbanco S/A                                                                    21102014                                                                                                                                                                                                                                                                                                                                                                                                000001
1046421006070DIR_CREDIT     METALURGICA DS LTDA                     060857349000176TRW AUTOMOTIVE LTDA                     VIA ANHANGUERA KM 147                   LIMEIRA                                 13486915SP4991800001                                                                                                                                          012692872           260320070000018698            15102014000404fornecimento de discos e tambores de freio para automóveis.                                                                                                                                                                                     079414868000198328510-1      000002
1048421002195COBR_CAUC_COR  SERVIMED COMERCIAL LTDA                 011059197000312MEDCOMERCE DELIVERY DE MEDS E           AV CASTELO BRANCO 945                   GOIANIA                                 75510360GO49921000010240139763109423    15102014900BRADESCO S/A        1911201400000000054274439CC                                                                                                                                                                                                                                                                                                                                                                                           328510-2      000003
1007421035337COBR_CAUC_BIC  COMERCIAL IMP.E EXP.CANTAREIRA LTDA     004445927000196RMOURA COMERCIO DE CEREAIS LTDA.        R PROFESSOR EURIPEDES SIMOES DE PAULA, 5SAO PAULO                               03006010SP499220000103363774121860001   14102014007PAULISTA            2411201400000000012800000CC                                                                                                                                                                                                                                                                                                                                                                                           328510-3      000004
1007421035337COBR_CAUC_BIC  COMERCIAL IMP.E EXP.CANTAREIRA LTDA     004641376007300 SUPERMERCADOS BH COMERCIO DE ALIM      AV GERALDO ROCHA, 700                   CONTAGEM                                32183054MG499230000103363766121871001   14102014019BELO HORIZONTE      2811201400000000011700000CC                                                                                                                                                                                                                                                                                                                                                                                           328510-4      000005
1046421007603COBR_CAUC_COR  SUL IMAG PROD P/DIAGNOSTICOS EIRELI     090797606000192ULTRASSOM SERVICOS EIRELI               R DOMINGOS DE ALMEIDA,SL201             URUGUAIANA                              97500009RS4992600001025403081120119//F  03102014700BANCO REAL- ABN AMRO1011201400000000012500000CC                                                                                                                                                                                                                                                                                                                                                                                           328666-1      000006
1050421002855COBR_CAUC_COR  C F SANTOS COM DE ALIMENTOS LTDA        004899316000118IMIFARMA PRODUTOS FARMAC. E COSMET      TV QUINTINO BOCAIUVA 381,381            BELEM                                   66053240PA499270000100001171412699      17102014900BRADESCO S/A        1411201400000000013764510CC                                                                                                                                                                                                                                                                                                                                                                                           328666-2      000007
1021421017050COBR_CAUC_BIC  STAR DISTR PROD FARMACEUTICOS LTDA      061585865000151RAIA DROGASIL S/A                       AVENIDA CORIFEU DE AZEVEDO MARQUES, 3097SAO PAULO                               05339000SP4992800001000057000000409301  17102014007PAULISTA            3110201400000000014618070CC                                                                                                                                                                                                                                                                                                                                                                                           328666-3      000008
1021421017050COBR_CAUC_BIC  STAR DISTR PROD FARMACEUTICOS LTDA      061585865000151RAIA DROGASIL S/A                       AVENIDA CORIFEU DE AZEVEDO MARQUES, 3097SAO PAULO                               05339000SP4992800002000057260000409501  17102014007PAULISTA            3110201400000000011297554CC                                                                                                                                                                                                                                                                                                                                                                                           328666-4      000009
1021421017050COBR_CAUC_BIC  STAR DISTR PROD FARMACEUTICOS LTDA      061585865000151RAIA DROGASIL S/A                       AVENIDA CORIFEU DE AZEVEDO MARQUES, 3097SAO PAULO                               05339000SP4992800003000057930000410301  17102014007PAULISTA            3110201400000000070401863CC                                                                                                                                                                                                                                                                                                                                                                                           328666-5      000010
1021421017050COBR_CAUC_BIC  STAR DISTR PROD FARMACEUTICOS LTDA      061585865000151RAIA DROGASIL S/A                       AVENIDA CORIFEU DE AZEVEDO MARQUES, 3097SAO PAULO                               05339000SP4992800004000058230000410501  17102014007PAULISTA            3110201400000000032854364CC                                                                                                                                                                                                                                                                                                                                                                                           328666-6      000011
1021421017050COBR_CAUC_BIC  STAR DISTR PROD FARMACEUTICOS LTDA      061585865000151RAIA DROGASIL S/A                       AVENIDA CORIFEU DE AZEVEDO MARQUES, 3097SAO PAULO                               05339000SP4992800005000059470000411401  17102014007PAULISTA            3110201400000000016253815CC                                                                                                                                                                                                                                                                                                                                                                                           328666-7      000012
1021421017050COBR_CAUC_BIC  STAR DISTR PROD FARMACEUTICOS LTDA      061585865000151RAIA DROGASIL S/A                       AVENIDA CORIFEU DE AZEVEDO MARQUES, 3097SAO PAULO                               05339000SP4992800006000059550000411501  17102014007PAULISTA            3110201400000000021953501CC                                                                                                                                                                                                                                                                                                                                                                                           328666-8      000013
1021421017050COBR_CAUC_BIC  STAR DISTR PROD FARMACEUTICOS LTDA      061585865000151RAIA DROGASIL S/A                       AVENIDA CORIFEU DE AZEVEDO MARQUES, 3097SAO PAULO                               05339000SP4992800007000060130000412101  17102014007PAULISTA            3110201400000000031500426CC                                                                                                                                                                                                                                                                                                                                                                                           328666-9      000014
1021421017050COBR_CAUC_BIC  STAR DISTR PROD FARMACEUTICOS LTDA      061585865000151RAIA DROGASIL S/A                       AVENIDA CORIFEU DE AZEVEDO MARQUES, 3097SAO PAULO                               05339000SP4992800008000058150000409701  17102014022PAULISTA            3110201400000000014357740CC                                                                                                                                                                                                                                                                                                                                                                                           328666-10     000015
9000014                                                                                                                                                                                                                                                                                                                                                                                                                                                                                                                                                                                                                                                                                                               000016
