0REMESSANOTIFICAÇÃO ELETRONICA        99999999999999Bicbanco S/A                            Avenida Brigadeiro Faria Lima           4.440     2º andar  Itaim Bibi                    São Paulo                     04538132SPBicbanco S/A                                                                    10092013                                                                                                                                                                                                                                                                                                                                                                                                000001
1018421034834COBR_CAUC_BIC  LACEL LATICINIOS CERES LTDA             023439441001323ARMAZEM MATEUS LTDA                     AV ENG.EMILIANO MACIEIRA, 5 - DEPOSITO  SAO LUIS                                65095602MA439550000103396049004409      02092013042SAO LUIS            3009201300000000039200000CC                                                                                                                                                                                                                                                                                                                                                                                           256568-1      000002
1009421012831COBR_CAUC_COR  ASA ALIMENTOS S/A                       009587239000427COOPERATIVA MISTA DOS AVICULT. DO       ESTRADA TERESINA UNIAO ZONA LESTE       TERESINA                                64058305PI4398300001001469050042192     05092013900BRADESCO S/A        2609201300000000010750320CC                                                                                                                                                                                                                                                                                                                                                                                           256576-1      000003
1046421007085COBR_CAUC_BIC  H.F.SISTEMAS DE FREIO LTDA              011509676000121AUTO NORTE DISTRIBUIDORA DE PECAS       R PROFESSOR NESTOR BEZERRA, N266C.U.C   RECIFE                                  50950150PE439870000102092917016150      05092013010RECIFE              1912201300000000015577569CC                                                                                                                                                                                                                                                                                                                                                                                           256576-2      000004
1046421007085COBR_CAUC_BIC  H.F.SISTEMAS DE FREIO LTDA              011509676000121AUTO NORTE DISTRIBUIDORA DE PECAS       R PROFESSOR NESTOR BEZERRA, N266C.U.C   RECIFE                                  50950150PE439870000202092895016134      05092013013RECIFE              1912201300000000015053984CC                                                                                                                                                                                                                                                                                                                                                                                           256576-3      000005
1016421001058COBR_CAUC_COR  MONTANA INDUSTRIA DE MAQUINAS SA        008204291000141COMERCIAL AGRICOLA POSSOBON LTDA        RUA PAULO ROEPKE,602                    RESTINGA SECA                           97200000RS4398400001041193290043024/01  29082013900BRADESCO S/A        2810201300000000016300000CC                                                                                                                                                                                                                                                                                                                                                                                           256576-4      000006
1022421009730COBR_CAUC_COR  SIMISA SIMIONI METALURGICA LTDA         005461642000101SIMEX SIMIONI IMPORTADORA E EXPORT      MARG ANTONIO W.MARTINELLI 3013          SERTAOZINHO                             14175360SP43985000010461863640719/01    21082013600HSBC BANK BRASIL    2510201300000000022197555CC                                                                                                                                                                                                                                                                                                                                                                                           256576-5      000007
1022421009730COBR_CAUC_COR  SIMISA SIMIONI METALURGICA LTDA         005461642000101SIMEX SIMIONI IMPORTADORA E EXPORT      MARG ANTONIO W.MARTINELLI 3013          SERTAOZINHO                             14175360SP43985000020461864440705/01    30082013600HSBC BANK BRASIL    2811201300000000030769193CC                                                                                                                                                                                                                                                                                                                                                                                           256576-6      000008
1022421009730COBR_CAUC_BIC  SIMISA SIMIONI METALURGICA LTDA         033390170001312APERAM INOX AMERICA DO SUL SA           AV JOAO PINHEIRO, 580                   BELO HORIZONTE                          30130180MG43986000010461862858954/04    22082013019BELO HORIZONTE      1010201300000000019000000CC                                                                                                                                                                                                                                                                                                                                                                                           256576-7      000009
1048421003043COBR_CAUC_COR  FRIGOL S.A. EM RECUPERACAO JUDICIAL     016647607000106FORCE MEAT COM. DIST. CARNES E DER      MARIA GONZAGA 460                       SAO JOAO DE MER                         25535482RJ4401900001000449110000026821  06092013900BRADESCO S/A        1309201300000000010069619CC                                                                                                                                                                                                                                                                                                                                                                                           256584-1      000010
1028421001518COBR_CAUC_COR  GAIA AGRIBUSINESS AGRICOLA LTDA         000048494836153JOSE ADONIZETE DA COSTA                 AV SANTA CATARINA 180 SAO FRANCISCO     GOIATUBA                                75600000GO44035000010291105739419       19072013900BRADESCO S/A        1001201400000000011500000CC                                                                                                                                                                                                                                                                                                                                                                                           256584-2      000011
1028421001518COBR_CAUC_COR  GAIA AGRIBUSINESS AGRICOLA LTDA         000048494836153JOSE ADONIZETE DA COSTA                 AV SANTA CATARINA 180 SAO FRANCISCO     GOIATUBA                                75600000GO44036000010291410239729       02082013900BRADESCO S/A        1012201300000000016380000CC                                                                                                                                                                                                                                                                                                                                                                                           256584-3      000012
1028421001518COBR_CAUC_COR  GAIA AGRIBUSINESS AGRICOLA LTDA         000048494836153JOSE ADONIZETE DA COSTA                 AV SANTA CATARINA 180 SAO FRANCISCO     GOIATUBA                                75600000GO44036000020291411139730       02082013900BRADESCO S/A        1001201400000000016380000CC                                                                                                                                                                                                                                                                                                                                                                                           256584-4      000013
1046421006658COBR_CAUC_COR  TRANSPORTES DALCOQUIO LTDA              013463913000358V-BIODIESEL LTDA                        RODOVIARIA BR 122-0-BAIRRO-ZONA RURAL   IRAQUARA                                46980000BA4401800001000168141301045717  30082013900BRADESCO S/A        3009201300000000010058243CC                                                                                                                                                                                                                                                                                                                                                                                           256584-5      000014
1046421006658COBR_CAUC_COR  TRANSPORTES DALCOQUIO LTDA              013463913000358V-BIODIESEL LTDA                        RODOVIARIA BR 122-0-BAIRRO-ZONA RURAL   IRAQUARA                                46980000BA4401800002000168221301045716  30082013900BRADESCO S/A        3009201300000000010231131CC                                                                                                                                                                                                                                                                                                                                                                                           256584-6      000015
9000014                                                                                                                                                                                                                                                                                                                                                                                                                                                                                                                                                                                                                                                                                                               000016
