0REMESSANOTIFICAÇÃO ELETRONICA        99999999999999Bicbanco S/A                            Avenida Brigadeiro Faria Lima           4.440     2º andar  Itaim Bibi                    São Paulo                     04538132SPBicbanco S/A                                                                    09102014                                                                                                                                                                                                                                                                                                                                                                                                000001
1049421004706COBR_CAUC_COR  COOPERATIVA AGROINDUSTRIAL SALTO VE     085782878000340PAMPLONA ALIMENTOS S/A                  RU A JOSINO MONTEIRO,2-CENTRO           ESTACAO                                 99930000RS49874000010046848921358       19092014700BANCO REAL- ABN AMRO2210201400000000010032410CC                                                                                                                                                                                                                                                                                                                                                                                           326720-1      000002
1018421034770COBR_CAUC_COR  PETROPOLIS IND PROD DE LIMPEZA LTDA     013463913000358OLEOPLAN NORDESTE IND.DE BIODIESEL      ROD.BR-122 KM-32                        IRAQUARA                                46980000BA498750000100043269001186651   06102014900BRADESCO S/A        2710201400000000010574860CC                                                                                                                                                                                                                                                                                                                                                                                           326720-2      000003
1016420933933COBR_CAUC_COR  ANGELO CAMILOTTI & CIA LTDA             005781940000189SEBASTIANA MARIA BARBOSA DE JESUS-      RUA RUY BARBOSA ,5                      SENHOR D BONFIM                         48970000BA49884000010459874074483-2     20082014900BRADESCO S/A        0111201400000000000108617CC                                                                                                                                                                                                                                                                                                                                                                                           326720-3      000004
1016420933933COBR_CAUC_COR  ANGELO CAMILOTTI & CIA LTDA             005781940000189SEBASTIANA MARIA BARBOSA DE JESUS-      RUA RUY BARBOSA ,5                      SENHOR D BONFIM                         48970000BA49884000020459873174483-1     20082014900BRADESCO S/A        1810201400000000000108617CC                                                                                                                                                                                                                                                                                                                                                                                           326720-4      000005
1016420933933COBR_CAUC_COR  ANGELO CAMILOTTI & CIA LTDA             010326220000163JOSE ROGERIO GALVAO DA SILVA - ME       TRAVESSA 07 DE SETEMBRO,28              CAMPO FORMOSO                           44790000BA49885000010459870774485-1     20082014900BRADESCO S/A        1810201400000000000128250CC                                                                                                                                                                                                                                                                                                                                                                                           326720-5      000006
1016420933933COBR_CAUC_COR  ANGELO CAMILOTTI & CIA LTDA             010326220000163JOSE ROGERIO GALVAO DA SILVA - ME       TRAVESSA 07 DE SETEMBRO,28              CAMPO FORMOSO                           44790000BA49885000020459871574485-2     19082014900BRADESCO S/A        0111201400000000000128250CC                                                                                                                                                                                                                                                                                                                                                                                           326720-6      000007
1016420933933COBR_CAUC_COR  ANGELO CAMILOTTI & CIA LTDA             010326220000163JOSE ROGERIO GALVAO DA SILVA - ME       TRAVESSA 07 DE SETEMBRO,28              CAMPO FORMOSO                           44790000BA49885000030459872374485-3     19082014900BRADESCO S/A        1511201400000000000128250CC                                                                                                                                                                                                                                                                                                                                                                                           326720-7      000008
1016420933933COBR_CAUC_COR  ANGELO CAMILOTTI & CIA LTDA             001042476000239SBS EMPREEND. LTDA                      RUA ITAPOLIS ,205                       CAMPO GRANDE                            79041280MS49886000010458479074400-2     05082014900BRADESCO S/A        1810201400000000000912933CC                                                                                                                                                                                                                                                                                                                                                                                           326720-8      000009
1016420933933COBR_CAUC_COR  ANGELO CAMILOTTI & CIA LTDA             008943135000100PORTAS E ACESSORIOS NOROESTE LTDA       AV DEP. HEITOR DE ALENCAR FUR,6059      PARANAVAI                               87706000PR49887000010455786574190-2     02072014900BRADESCO S/A        2710201400000000001343280CC                                                                                                                                                                                                                                                                                                                                                                                           326720-9      000010
9000009                                                                                                                                                                                                                                                                                                                                                                                                                                                                                                                                                                                                                                                                                                               000011
