0REMESSANOTIFICAÇÃO ELETRONICA        99999999999999Bicbanco S/A                            Avenida Paulista , 1048 12º andar                           BELA VISTA                    SÃO PAULO                     01310100SPBicbanco S/A                                                                    07062010                                                                                                                                                                                                                                                                                                                                                                                                000001
1032420933490COBR_CAUC_COR  CECRISA REVESTIMENTOS CERAMICOS         008799578000161API-SPE08-PLANEJ E DESEN DE EM          AV SETE DE SETEMBRO, CJ 2201,4698       CURITIBA                                80240000PR224620000107872080VP00423704  31052010900BRADESCO S/A        0511201000000000014411032CC                                                                                                                                                                                                                                                                                                                                                                                           102100-1      000002
1029140511987COBR_CAUC_BIC  BRASFUMO IND BRAS DE FUMOS S/A          033876145000100ALLIANCE ONE BRASIL EXPORTADORA DE      RUA THOMAZ GONZAGA, 666                 VERA CRUZ                               96880000RS224630000109208354240610      01062010015PORTO ALEGRE        2406201000000000099272462TD                                                                                                                                                                                                                                                                                                                                                                                           102100-2      000003
1014421011391COBR_CAUC_BIC  CENTRAL NACIONAL DE PRODUCOES LTDA      002415583000147IGREJA MUNDIAL DO PODER DE DEUS         RUA CARNEIRO LEAO, 439                  SAO PAULO                               03015000SP2246400001042294391490/A      31052010014RIO DE JANEIRO      3107201000000000050000000CC                                                                                                                                                                                                                                                                                                                                                                                           102100-3      000004
1014421011391COBR_CAUC_BIC  CENTRAL NACIONAL DE PRODUCOES LTDA      002415583000147IGREJA MUNDIAL DO PODER DE DEUS         RUA CARNEIRO LEAO, 439                  SAO PAULO                               03015000SP2246400002042294471491/A      31052010014RIO DE JANEIRO      3108201000000000050000000CC                                                                                                                                                                                                                                                                                                                                                                                           102100-4      000005
1029421009916COBR_CAUC_BIC  EXPORTADORA BOM RETIRO LTDA             093973329000110IND E COM DE PRODUTOS DE LIMPEZA G      RUA GENERAL DALTRO FILHO,26             ARROIO DO MEIO                          95940000RS224650000109211258002111 A    21052010015PORTO ALEGRE        1406201000000000010560000CC                                                                                                                                                                                                                                                                                                                                                                                           102100-5      000006
1014420939021COBR_CAUC_BIC  EDITORA O DIA S/A                       002182621000169LOCANTY COM. SERVICOS LTDA              FERREIRA VIANA 389                      RIO DE JANEIRO                          20011001RJ2246600001022412110542605     31052010014RIO DE JANEIRO      3007201000000000011000000CC                                                                                                                                                                                                                                                                                                                                                                                           102100-6      000007
1038421000764COBR_CAUC_BIC  METROPOLITAN LOGIST COMERCIAL LTDA      061068276002816UNILEVER BRASIL LTDA                    AV JOSE LUIZ MAZZALI, 450 , PARTE       LOUVEIRA                                13290000SP2246700001087434413424        28052010007PAULISTA            1107201000000000010226942CC                                                                                                                                                                                                                                                                                                                                                                                           102100-7      000008
1008421005590COBR_CAUC_BIC  MM MONTEIRO PESCA EXPORTACAO LTDA       033304981001949SUPERMERCADOS MUNDIAL LTDA              AV ITAOCA,2600                          RIO DE JANEIRO                          21061020RJ22468000010798626482          27052010014RIO DE JANEIRO      1506201000000000022576680CC                                                                                                                                                                                                                                                                                                                                                                                           102100-8      000009
1023421000065DIR_CREDIT     ENTERPA ENGENHARIA LTDA                 005995766000177PM DE MACAPA                            AV FAB N 840 CENTRO                     MACAPA - AMAPA                          68900453AP2247000001                                                                                                                                          010990280           161220090000011414170/2009-PMM31052010000403contrato de prestação de serviços de colteta e transporte de residuossolidos urbanos alem de outros inerentes a limpeza publica no municipiode macapa                                                                                           047892906000121102100-9      000010
1014421013734DIR_CREDIT     EMISSAO ENGENHARIA E CONSTRUCOES LT     029138286000158PREFEITURA MUNICIPAL DE NILOPOLIS       AV.MIRANDELA 401                        NILOPOLIS                               26520530RJ2250600001                                                                                                                                          481016512           020220100000013782013/10      08072009000404serviços de varrição,coleta domiciliar e hospitalar,bem como transbordocom o fornecimento de todos os insumos,mão de obra e equipamentos necessarios /conforme especificações contidas no projeto básico.                                       039110879000160102100-10     000011
1024421004069DIR_CREDIT     CUIABANO SANEAMENTO E OBRAS DE ENGE     003533064000146PM DE CUIABA                            PRAçA ALENCASTRO, 158                   CUIABA                                  78005580MT2250700001                                                                                                                                          481006963           17042008000000623720/2008     31052010000404EXECUCAO DE OBRAS DE IMPLANTACAO DO SISTEMA DE ESGOTAMENTO SANITARIO-SUB-BACIAS 14b E 15 - PAC LOTE 03.                                                                                                                                         009602397000166102100-11     000012
1024421004069DIR_CREDIT     CUIABANO SANEAMENTO E OBRAS DE ENGE     003533064000146PM DE CUIABA                            PRAçA ALENCASTRO, 158                   CUIABA                                  78005580MT2250800001                                                                                                                                          481006963           170420080000006239019/2008    31052010000404Execução das obras de implantação de Abastecimento de Água - PAC - LOTE01.                                                                                                                                                                      009602397000166102100-12     000013
1021421010471DIR_CREDIT     ALFALIX AMBIENTAL LTDA                  044780609000104PM DE BARRETOS                          RUA 30Nº 564 - CENTRO                   BARRETOS                                14781545SP2252100001                                                                                                                                          010992876           05102009000001111169/06       31052010000407PRESTAR SERVIÇOS RELATIVOS A LIMPEZA PUBLICA NO MUNICIPIO DE BARRETOS.                                                                                                                                                                          009685747000103102100-13     000014
1028421004096DIR_CREDIT     BIOLAC INDUSTRIA ALIMENTICIA LTDA       056073307000843BEL SA                                  AV RUI BARBOSA, 987 - CENTRO            HERCULANDIA                             17650000SP2252200001                                                                                                                                          481004955           011220090000011045            31052010000404fornecimento de leite in natura.                                                                                                                                                                                                                071004881000167102100-14     000015
1019421004658COBR_CAUC_COR  S/A ESTADO DE MINAS                     033000118000179TELEMAR NORTE LESTE S A                 R GENERAL POLIDORO 99 4º AND.           RIO DE JANEIRO                          20210031RJ2252600001009757092119484-1   31052010900BRADESCO S/A        1507201000000000013200000CC                                                                                                                                                                                                                                                                                                                                                                                           102216-1      000016
1014421012444COBR_CAUC_COR  HOTEIS OTHON S/A.                       007575651000310VRG LINHAS AEREAS S A                   PCA SEN SALGADO FILHO S N SALA 02       RIO DE JANEIRO                          20021971RJ2252700001000600311200248901  02062010900BRADESCO S/A        2706201000000000027063000CC                                                                                                                                                                                                                                                                                                                                                                                           102216-2      000017
1029141009096COBR_CAUC_BIC  CPS BRAZIL TOBACCO IMP E EXP LTDA       088124383000150BRASFUMO LTDA                           AV DAS INDUSTRIAS,130                   VENANCIO AIRES                          95800000RS2252800001092124596191        02062010015PORTO ALEGRE        0407201000000000010137235TD                                                                                                                                                                                                                                                                                                                                                                                           102216-3      000018
1014420939021COBR_CAUC_BIC  EDITORA O DIA S/A                       011140086000174EMPRESA JORNALISTICA ECONOMICO S.A      AV DAS NACOES UNIDAS, 11633 8 ANDA      SAO PAULO                               04578901SP2252900001022412700542617     31052010007PAULISTA            3006201000000000014151405CC                                                                                                                                                                                                                                                                                                                                                                                           102216-4      000019
1018421020760DIR_CREDIT     GOIAS VERDE ALIMENTOS LTDA              000588458000103FUGINI ALIMENTOS LTDA                   AV FUGITA N 1000 JARDIM NOVO PARAISO    MONTE ALTO                              15910000SP2254000001                                                                                                                                          010972823           261120090000013154S/N         31052010000403fornecimento pela goias verde alimentos ltda de crushed de tomate 8,0 mm para fins industriais da safra de 2010.                                                                                                                                024866741000118102216-5      000020
9000019                                                                                                                                                                                                                                                                                                                                                                                                                                                                                                                                                                                                                                                                                                               000021
