0REMESSANOTIFICAÇÃO ELETRONICA        99999999999999Bicbanco S/A                            Avenida Brigadeiro Faria Lima           4.440     2º andar  Itaim Bibi                    São Paulo                     04538132SPBicbanco S/A                                                                    31032015                                                                                                                                                                                                                                                                                                                                                                                                000001
1020421001652COBR_CAUC_BIC  SANTHER FAB PAP STA THEREZINHA S/A      023577851000105DONIZETE DISTRIBUIDORA DE ALIMENTO      RUA GREGORIO DONIZETE FREIRE,88         FORTALEZA                               60870790CE508260000106467605059573701   22032015003CENTRO              0405201500000000012161018CC                                                                                                                                                                                                                                                                                                                                                                                           353809-3      000002
1048421002195COBR_CAUC_COR  SERVIMED COMERCIAL LTDA                 025102146001493IRMAOS MATTAR E CIA LTDA                RUA ADIB CADAH 443                      TEOFILO OTONI                           37704429MG50827000010262728029856825    20032015900BRADESCO S/A        1905201500000000011071928CC                                                                                                                                                                                                                                                                                                                                                                                           353809-4      000003
1031421011181COBR_CAUC_COR  AGROIND IRMAOS DALLA COSTA LTDA         005415585000396ATACADO FERNANDES GEN ALIM IMP EXP      RUA ALEXANDRE DE CASTRO00188            CORUMBA                                 79302030MS50828000010548138222671/1     20032015600HSBC BANK BRASIL    1004201500000000010917360CC                                                                                                                                                                                                                                                                                                                                                                                           353809-5      000004
1022421008149COBR_CAUC_COR  PASSAREDO T AEREOS S/A - EM REC JUD     010760260000119CVC BRASIL OPERADORA E AGENCIA DE       RUA GERTRUDES DE LIMA,53-CJ 52          SANTO ANDRE                             09020000SP508290000100019941121073      20032015900BRADESCO S/A        0304201500000000028402651CC                                                                                                                                                                                                                                                                                                                                                                                           353809-6      000005
1021421017050COBR_CAUC_BIC  STAR DISTR PROD FARMACEUTICOS LTDA      061585865000151RAIA DROGASIL S/A                       AVENIDA CORIFEU DE AZEVEDO MARQUES, 3097SAO PAULO                               05339000SP5083000001000120560000535801  19032015007PAULISTA            0204201500000000012923937CC                                                                                                                                                                                                                                                                                                                                                                                           353809-7      000006
1028421009810COBR_CAUC_BIC  VALLEE S/A                              043588045000131ZOETIS INDUSTRIA DE PROD VETER LTD      RUA LUIS FERNANDO RODRIGUEZ 1701-VILA BOCAMPINAS                                13064270SP5083200001031881112035883022  24032015021CAMPINAS            0704201500000000090101250CC                                                                                                                                                                                                                                                                                                                                                                                           353815-1      000007
1020421001652COBR_CAUC_COR  SANTHER FAB PAP STA THEREZINHA S/A      066471517000177DPC DISTRIBUIDOR ATACADISTA S/A         RODOVIA MG 329 KM 2,0                   CARATINGA                               35432078MG508330000106467711026876401   21032015800UNIBANCO S/A        0405201500000000015877620CC                                                                                                                                                                                                                                                                                                                                                                                           353815-2      000008
1041421009753DIR_CREDIT     B CIRILO ALBINO & CIA LTDA              062895230000113CREDI SHOP                              AV FREI SERAFIM, 2648                   TERESINA-PI                             64001020PI5077000001                                                                                                                                          012748078           300420130000024153            17032015000403repasse de valores decorrentes de transações realizadas com o Cartão CREDI SHOP.                                                                                                                                                                063347397000102353816-1      000009
1046421006070DIR_CREDIT     METALURGICA DS LTDA                     060857349000176TRW AUTOMOTIVE LTDA                     VIA ANHANGUERA KM 147                   LIMEIRA                                 13486915SP5077100001                                                                                                                                          012752999           260320070000018698            17032015000404fornecimento de discos e tambores de freio para automóveis.                                                                                                                                                                                     079414868000198353816-2      000010
1046421006070DIR_CREDIT     METALURGICA DS LTDA                     060857349000176TRW AUTOMOTIVE LTDA                     VIA ANHANGUERA KM 147                   LIMEIRA                                 13486915SP5082000001                                                                                                                                          012753510           260320070000018698            19032015000404fornecimento de discos e tambores de freio para automóveis.                                                                                                                                                                                     079414868000198353816-3      000011
1046421006070DIR_CREDIT     METALURGICA DS LTDA                     060857349000176TRW AUTOMOTIVE LTDA                     VIA ANHANGUERA KM 147                   LIMEIRA                                 13486915SP5083400001                                                                                                                                          012754711           260320070000018698            24032015000404fornecimento de discos e tambores de freio para automóveis.                                                                                                                                                                                     079414868000198353816-4      000012
1016421000809COBR_CAUC_BIC  LOGIKA DIST DE COSMETICOS LTDA          013495487000172DESTRO BRASIL DISTRIBUICAO LTDA         AVENIDA ANDRE COSTA 2002                JUNDIAI                                 13214730SP5083500001049639440010395/01  25032015007PAULISTA            2405201500000000017511624CC                                                                                                                                                                                                                                                                                                                                                                                           353820-1      000013
9000012                                                                                                                                                                                                                                                                                                                                                                                                                                                                                                                                                                                                                                                                                                               000014
