0REMESSANOTIFICAÇÃO ELETRONICA        99999999999999Bicbanco S/A                            Avenida Paulista                        1048      12º andar BELA VISTA                    SÃO PAULO                     01310100SPBicbanco S/A                                                                    22102010                                                                                                                                                                                                                                                                                                                                                                                                000001
1028421002921COBR_CAUC_COR  FRIGORIFICO MATABOI S/A                 005650877000141ROMANELLI COMERCIO DE CARNES LTDA       VIA RAMON00314                          SAO LOURENCO                            37470000MG2469700001002168910012474201  19102010900BRADESCO S/A        1311201000000000012549927CC                                                                                                                                                                                                                                                                                                                                                                                           114044-1      000002
1021420930887COBR_CAUC_COR  DEDINI S/A INDUSTRIAS DE BASE           016617789000164AGROPEU AGRO INDUSTRIAL DE POMPEU       ROD MG 060 ZONA RURAL BR                POMPEU                                  35640000MG246980000105937023132156-1-1  18102010900BRADESCO S/A        0811201000000000020000000CC                                                                                                                                                                                                                                                                                                                                                                                           114044-2      000003
1021420930887COBR_CAUC_COR  DEDINI S/A INDUSTRIAS DE BASE           016617789000164AGROPEU AGRO INDUSTRIAL DE POMPEU       ROD MG 060 ZONA RURAL BR                POMPEU                                  35640000MG246980000205937074132156-2-2  18102010900BRADESCO S/A        0812201000000000020000000CC                                                                                                                                                                                                                                                                                                                                                                                           114044-3      000004
1021420930887COBR_CAUC_COR  DEDINI S/A INDUSTRIAS DE BASE           051990778000126ACUCAR E ALCOOL OSWALDO R MENDONCA      RUA FAZ S JOSE DA GLORIA RURAL BR       GUAIRA                                  14790000SP246990000105937066130488-2-2  30092010900BRADESCO S/A        2811201000000000013181087CC                                                                                                                                                                                                                                                                                                                                                                                           114044-4      000005
1008421003482COBR_CAUC_BIC  METALGRAFICA CEARENSE S/AMECESA         007196033002141NORSA REFRIGERANTES LTDA-MARACANAU      AV,SANTOS DUMONT, 1789                  FORTALEZA                               60150160CE24700000010813180701410801    19102010003CENTRO              1611201000000000015333498CC                                                                                                                                                                                                                                                                                                                                                                                           114044-5      000006
1016420932333COBR_CAUC_BIC  COCELPA CIA DE CEL PAPEL DO PR          042564807000105CSN CIMENTOS S/A                        ROD BR 393 LUCIO MEIRA KM 5001 PARTE    VOLTA REDONDA                           27260390RJ2470100001029082110001662-01  19102010014RIO DE JANEIRO      2011201000000000010644977CC                                                                                                                                                                                                                                                                                                                                                                                           114044-6      000007
1016141000701COBR_CAUC_BIC  SPERAFICO AGROINDUSTRIAL LTDA           005920123000911GRANULE EXPORTADORA E IMPORTADORA       ROD DOS IMIGRANTES KM2,3 SN             CUIABA                                  78098970MT24702000010290814813/10       19102010024CUIABA              2011201000000000030000000TD                                                                                                                                                                                                                                                                                                                                                                                           114044-7      000008
1029421008006COBR_CAUC_COR  COML DE TABACOS SANTA CRUZ BR LTDA      008751352000190AMERICAN BLEND IMP EXP IND COM DE       AV ERNESTO LOPES,564                    COIMBRA                                 36550000MG24703000010930248211014-4     21072010900BRADESCO S/A        1002201100000000021517650CC                                                                                                                                                                                                                                                                                                                                                                                           114044-8      000009
9000008                                                                                                                                                                                                                                                                                                                                                                                                                                                                                                                                                                                                                                                                                                               000010
