0REMESSANOTIFICAÇÃO ELETRONICA        99999999999999Bicbanco S/A                            Avenida Paulista                        1048      12º andar BELA VISTA                    SÃO PAULO                     01310100SPBicbanco S/A                                                                    02032011                                                                                                                                                                                                                                                                                                                                                                                                000001
1031420932046COBR_CAUC_BIC  PALMALI INDL.DE ALIMENTOS LTDA          074101569000341AGRICOLA JANDELLE S/A.                  AV ITAMARATY                            ROLANDIA                                86600000PR265500000104845721NE 0321831  25022011031LONDRINA            2003201100000000050000000CC                                                                                                                                                                                                                                                                                                                                                                                           123896-1      000002
1031420932046COBR_CAUC_BIC  PALMALI INDL.DE ALIMENTOS LTDA          074101569000341AGRICOLA JANDELLE S/A.                  AV ITAMARATY                            ROLANDIA                                86600000PR265500000204845739NE 0321832  25022011031LONDRINA            2004201100000000050000000CC                                                                                                                                                                                                                                                                                                                                                                                           123896-2      000003
1031420932046COBR_CAUC_BIC  PALMALI INDL.DE ALIMENTOS LTDA          074101569000341AGRICOLA JANDELLE S/A.                  AV ITAMARATY                            ROLANDIA                                86600000PR265500000304845747NE 0321833  25022011031LONDRINA            2005201100000000050000000CC                                                                                                                                                                                                                                                                                                                                                                                           123896-3      000004
1031420932046COBR_CAUC_BIC  PALMALI INDL.DE ALIMENTOS LTDA          074101569000341AGRICOLA JANDELLE S/A.                  AV ITAMARATY                            ROLANDIA                                86600000PR265500000404845755NE 0321834  25022011031LONDRINA            2006201100000000050000000CC                                                                                                                                                                                                                                                                                                                                                                                           123896-4      000005
1046421004272COBR_CAUC_BIC  TUTTI BABY IND E COM ART INFANTIS       000325400000177IND DE MOVEIS CEQUIPEL PARANA LTDA      AVENIDA RUI BARBOSA,2980                SAO JOSE DOS PI                         83055320PR26551000010104281901365555-0  24022011016CURITIBA            1004201100000000015277500CC                                                                                                                                                                                                                                                                                                                                                                                           123896-5      000006
9000005                                                                                                                                                                                                                                                                                                                                                                                                                                                                                                                                                                                                                                                                                                               000007
