0REMESSANOTIFICAÇÃO ELETRONICA        99999999999999Bicbanco S/A                            Avenida Brigadeiro Faria Lima           4.440     2º andar  Itaim Bibi                    São Paulo                     04538132SPBicbanco S/A                                                                    11042012                                                                                                                                                                                                                                                                                                                                                                                                000001
1007421058434DIR_CREDIT     BIO ENERGIAS COMERC DE ENERGIA LTDA     007298835000119COENERGY COMERCIALIZADORA DE ENERGIA    RUA PEQUITITA 215                       SP                                      04552060SP3469900001                                                                                                                                          001179807           0101201200000209900002/2012   23032012003002contrato de compra e venda de energia convencional a ser disponibilizada pela vendedora a compradora, para atendimento da compradora conforme montantes definidos no anexo I do contrato.                                                       009571846000156170226-1      000002
1029420932648DIR_CREDIT     PRATO FEITO ALIMENTACAO E SERVICOS      082638644000174UNIVERSAL LEAF TABACOS LTDA             BR 471 KM 129,8 DISTRITO INDUSTRIAL     SANTA CRUZ DO SUL                       96835642RS3471200001                                                                                                                                          011812996           230120070000000795S/N         04042012000403FORNECIMENTO DE REFEICOES COLETIVAS                                                                                                                                                                                                             094161122000103170226-2      000003
1029420932648DIR_CREDIT     PRATO FEITO ALIMENTACAO E SERVICOS      000350387000106A.T.C ASSOCIATED TOBACCO COMPANY BR LTDABR 471 KM 32 - DISTRITO INDUSTRIAL      SANTA CRUZ DO SUL                       96835640RS3471300001                                                                                                                                          011812996           201220010000000796S/N         04042012000403FORNECIMENTO DE REFEICOES COLETIVAS                                                                                                                                                                                                             094161122000103170226-3      000004
1029420932648DIR_CREDIT     PRATO FEITO ALIMENTACAO E SERVICOS      095422218000140METALURGICA MOR S/A                     BR 471 KM 132                           SANTA CRUZ DO SUL                       96835642RS3471400001                                                                                                                                          011812996           010919980000000810S/N         04042012000403FORNECIMENTO DE REFEICOES COLETIVAS                                                                                                                                                                                                             094161122000103170226-4      000005
1029421007549DIR_CREDIT     PRATO FEITO ALIMENTACAO E SERVICOS      033876145002749ALLIANCE ONE BRASIL EXP DE TABACOS      BR 471 KM 48                            SANTA CRUZ DO SUL                       96835640RS3471500001                                                                                                                                          011812996           170219970000000824SN          04042012000403FORNECIMENTO DE REFEICOES COLETIVAS                                                                                                                                                                                                             094161122000103170226-5      000006
1008421022819COBR_CAUC_COR  SM FOMENTO COMERCIAL LTDA               007825404000163BRUNO LUCCHETTI DO BRASIL MINERACA      AV FCO LACERDA DE AGUIAR 10             CACHOEIRO DE IT                         29303300ES347260000100002706428/B       05042012900BRADESCO S/A        0805201200000000015000000CC                                                                                                                                                                                                                                                                                                                                                                                           170226-6      000007
1048421000613COBR_CAUC_BIC  TRIANGULO ALIMENTOS LTDA                024150377000195KARNE KEIJO - LOGISTICA INTEGRADA       ROD BR 101 SUL                          RECIFE                                  50900400PE347270000100517941035605-1    04042012010RECIFE              1405201200000000010335600CC                                                                                                                                                                                                                                                                                                                                                                                           170226-7      000008
1050421000089COBR_CAUC_BIC  ATIVO ALIMENTOS LTDA                    011596442003427CARVALHO E FERNANDES LTDA               AVE DEPUTADO PAULO FERRAZ 4888          TERESINA                                64078820PI347280000100323062130050/1    04042012041TERESINA            0405201200000000015818529CC                                                                                                                                                                                                                                                                                                                                                                                           170226-8      000009
1050421000089COBR_CAUC_COR  ATIVO ALIMENTOS LTDA                    027497684000135FRISA FRIGORIFICO RIO DOCE SA           R FIORAVANTE ROSSI 4000                 COLATINA                                29704700ES347290000100323054130035/1    04042012800UNIBANCO S/A        0205201200000000011444944CC                                                                                                                                                                                                                                                                                                                                                                                           170226-9      000010
1036421018985COBR_CAUC_BIC  PEEQFLEX INDUSTRIA E COMERCIO LTDA      005161069000544BRAINFARMA INDUSTRIA QUIMICA E FAR      Avenida Presidente Juscelino Kubitsche  SAO PAULO                               04593900SP3473000001058573016015271-01  04042012007PAULISTA            0208201200000000013577064CC                                                                                                                                                                                                                                                                                                                                                                                           170226-10     000011
1042141005772COBR_CAUC_BIC  HIDROSONDA LTDA                         007073042000100EDECONSIL CONSTRUCOES E LOCACOES L      R JOSE SARNEY N 500 TIRIRICAL           SAO LUIS                                65085470MA347310000102856363582         02042012042SAO LUIS            1705201200000000040000000TD                                                                                                                                                                                                                                                                                                                                                                                           170226-11     000012
1042141005772COBR_CAUC_BIC  HIDROSONDA LTDA                         007073042000100EDECONSIL CONSTRUCOES E LOCACOES L      R JOSE SARNEY N 500 TIRIRICAL           SAO LUIS                                65085470MA347310000202856371582-1       02042012042SAO LUIS            0207201200000000040000000TD                                                                                                                                                                                                                                                                                                                                                                                           170226-12     000013
9000012                                                                                                                                                                                                                                                                                                                                                                                                                                                                                                                                                                                                                                                                                                               000014
