0REMESSANOTIFICAÇÃO ELETRONICA        99999999999999Bicbanco S/A                            Avenida Brigadeiro Faria Lima           4.440     2º andar  Itaim Bibi                    São Paulo                     04538132SPBicbanco S/A                                                                    09092014                                                                                                                                                                                                                                                                                                                                                                                                000001
1046421010531COBR_CAUC_COR  CECRISA REVESTIMENTOS CERAMICOS         003798990000143LABESLABES CONSULTORIA E EMPREEN        AV DAS AMERICAS SL506,8445              RIO DE JANEIRO                          22793081RJ49040000010249466761551       01092014600HSBC BANK BRASIL    3009201400000000012031287CC                                                                                                                                                                                                                                                                                                                                                                                           320413-1      000002
1046421010531COBR_CAUC_COR  CECRISA REVESTIMENTOS CERAMICOS         003798990000143LABESLABES CONSULTORIA E EMPREEN        AV DAS AMERICAS SL506,8445              RIO DE JANEIRO                          22793081RJ49040000020249467561553       01092014600HSBC BANK BRASIL    3011201400000000012031287CC                                                                                                                                                                                                                                                                                                                                                                                           320413-2      000003
1003421013987COBR_CAUC_COR  SCIENTIFIC COM E IMPORTACAO LTDA        000029372000140GE HC DO BRASIL COM. SERV. EQUIP M      AV DAS NACOES UNIDAS,8501               SAO PAULO                               05425070SP4904100001001137501097        01092014900BRADESCO S/A        1510201400000000022790336CC                                                                                                                                                                                                                                                                                                                                                                                           320413-3      000004
1003421013987COBR_CAUC_COR  SCIENTIFIC COM E IMPORTACAO LTDA        008546929000122CARESTREAM DO BRASIL COM.SERV.P.ME      AV.DR.MARCOS PENTEADO,401-PARTE 17      BARUERI                                 06460040SP4904200001001137841100        01092014900BRADESCO S/A        0110201400000000011157631CC                                                                                                                                                                                                                                                                                                                                                                                           320413-4      000005
1046421006070DIR_CREDIT     METALURGICA DS LTDA                     060857349000176TRW AUTOMOTIVE LTDA                     VIA ANHANGUERA KM 147                   LIMEIRA                                 13486915SP4904600001                                                                                                                                          012666197           260320070000018698            03092014000404fornecimento de discos e tambores de freio para automóveis.                                                                                                                                                                                     079414868000198320413-5      000006
1007421061990COBR_CAUC_BIC  BRASIL MAQUINAS E EQUIP PESADOS S/A     000752423000249CUNZOLO MAQUINAS E EQUIPAMENTOS         RUA SALVIANO JOSE DA ,300-GALPAO 1      SAO JOSE DOS CA                         12238573SP49050000010233646316997L      19092013007PAULISTA            1009201400000000005229167CC                                                                                                                                                                                                                                                                                                                                                                                           320413-6      000007
1007421061990COBR_CAUC_BIC  BRASIL MAQUINAS E EQUIP PESADOS S/A     000752423000249CUNZOLO MAQUINAS E EQUIPAMENTOS         RUA SALVIANO JOSE DA ,300-GALPAO 1      SAO JOSE DOS CA                         12238573SP49050000020233647116997M      19092013007PAULISTA            1010201400000000005229167CC                                                                                                                                                                                                                                                                                                                                                                                           320413-7      000008
1007421061990COBR_CAUC_COR  BRASIL MAQUINAS E EQUIP PESADOS S/A     016542525000199MLR MINERACAO E COMERCIO DE AREIA       R OTILIO FURTADO ,1500-SALA 02          CANELINHA                               88230000SC49051000010313757017714O      27022014700BANCO REAL- ABN AMRO0305201500000000001498887CC                                                                                                                                                                                                                                                                                                                                                                                           320413-8      000009
1007421061990COBR_CAUC_COR  BRASIL MAQUINAS E EQUIP PESADOS S/A     016542525000199MLR MINERACAO E COMERCIO DE AREIA       R OTILIO FURTADO ,1500-SALA 02          CANELINHA                               88230000SC49051000020311838917714H      27022014700BANCO REAL- ABN AMRO0310201400000000001498887CC                                                                                                                                                                                                                                                                                                                                                                                           320413-9      000010
1007421061990COBR_CAUC_COR  BRASIL MAQUINAS E EQUIP PESADOS S/A     016542525000199MLR MINERACAO E COMERCIO DE AREIA       R OTILIO FURTADO ,1500-SALA 02          CANELINHA                               88230000SC49051000030313760017714I      27022014700BANCO REAL- ABN AMRO0311201400000000001498887CC                                                                                                                                                                                                                                                                                                                                                                                           320413-10     000011
1007421061990COBR_CAUC_COR  BRASIL MAQUINAS E EQUIP PESADOS S/A     016542525000199MLR MINERACAO E COMERCIO DE AREIA       R OTILIO FURTADO ,1500-SALA 02          CANELINHA                               88230000SC49051000040313759617714J      27022014700BANCO REAL- ABN AMRO0312201400000000001498887CC                                                                                                                                                                                                                                                                                                                                                                                           320413-11     000012
1007421061990COBR_CAUC_COR  BRASIL MAQUINAS E EQUIP PESADOS S/A     016542525000199MLR MINERACAO E COMERCIO DE AREIA       R OTILIO FURTADO ,1500-SALA 02          CANELINHA                               88230000SC49051000050313813417714L      27022014700BANCO REAL- ABN AMRO0302201500000000001498887CC                                                                                                                                                                                                                                                                                                                                                                                           320413-12     000013
1007421061990COBR_CAUC_COR  BRASIL MAQUINAS E EQUIP PESADOS S/A     016542525000199MLR MINERACAO E COMERCIO DE AREIA       R OTILIO FURTADO ,1500-SALA 02          CANELINHA                               88230000SC49051000060313758817714K      27022014700BANCO REAL- ABN AMRO0301201500000000001498887CC                                                                                                                                                                                                                                                                                                                                                                                           320413-13     000014
1007421061990COBR_CAUC_COR  BRASIL MAQUINAS E EQUIP PESADOS S/A     016542525000199MLR MINERACAO E COMERCIO DE AREIA       R OTILIO FURTADO ,1500-SALA 02          CANELINHA                               88230000SC49051000070313761817714H      27022014700BANCO REAL- ABN AMRO0310201400000000001498887CC                                                                                                                                                                                                                                                                                                                                                                                           320413-14     000015
1007421061990COBR_CAUC_COR  BRASIL MAQUINAS E EQUIP PESADOS S/A     016542525000199MLR MINERACAO E COMERCIO DE AREIA       R OTILIO FURTADO ,1500-SALA 02          CANELINHA                               88230000SC49051000080313756117714N      27022014700BANCO REAL- ABN AMRO0304201500000000001498887CC                                                                                                                                                                                                                                                                                                                                                                                           320413-15     000016
1007421061990COBR_CAUC_COR  BRASIL MAQUINAS E EQUIP PESADOS S/A     016542525000199MLR MINERACAO E COMERCIO DE AREIA       R OTILIO FURTADO ,1500-SALA 02          CANELINHA                               88230000SC49051000090313755317714M      27022014700BANCO REAL- ABN AMRO0303201500000000001498887CC                                                                                                                                                                                                                                                                                                                                                                                           320413-16     000017
1007421061990COBR_CAUC_COR  BRASIL MAQUINAS E EQUIP PESADOS S/A     014414461000115DOURADAO BRITAS E CONCRETOS LTDA        ROD. RAPOSO TAVARES,0-KM 341            IPAUSSU                                 18950000SP49052000010259921913566.67X   11102012700BANCO REAL- ABN AMRO1111201400000000001135451CC                                                                                                                                                                                                                                                                                                                                                                                           320413-17     000018
1007421061990COBR_CAUC_COR  BRASIL MAQUINAS E EQUIP PESADOS S/A     014414461000115DOURADAO BRITAS E CONCRETOS LTDA        ROD. RAPOSO TAVARES,0-KM 341            IPAUSSU                                 18950000SP49052000020324142313566 /AC   11102012700BANCO REAL- ABN AMRO1102201500000000001135451CC                                                                                                                                                                                                                                                                                                                                                                                           320413-18     000019
1007421061990COBR_CAUC_COR  BRASIL MAQUINAS E EQUIP PESADOS S/A     014414461000115DOURADAO BRITAS E CONCRETOS LTDA        ROD. RAPOSO TAVARES,0-KM 341            IPAUSSU                                 18950000SP49052000030259955313566.67Y   11102012700BANCO REAL- ABN AMRO1112201400000000001135451CC                                                                                                                                                                                                                                                                                                                                                                                           320413-19     000020
1007421061990COBR_CAUC_COR  BRASIL MAQUINAS E EQUIP PESADOS S/A     014414461000115DOURADAO BRITAS E CONCRETOS LTDA        ROD. RAPOSO TAVARES,0-KM 341            IPAUSSU                                 18950000SP49052000040259919713566.67Z   11102012700BANCO REAL- ABN AMRO1101201500000000001135451CC                                                                                                                                                                                                                                                                                                                                                                                           320413-20     000021
1007421061990COBR_CAUC_COR  BRASIL MAQUINAS E EQUIP PESADOS S/A     014414461000115DOURADAO BRITAS E CONCRETOS LTDA        ROD. RAPOSO TAVARES,0-KM 341            IPAUSSU                                 18950000SP49052000050259922713566.67V   11102012700BANCO REAL- ABN AMRO1109201400000000001135451CC                                                                                                                                                                                                                                                                                                                                                                                           320413-21     000022
1007421061990COBR_CAUC_COR  BRASIL MAQUINAS E EQUIP PESADOS S/A     014414461000115DOURADAO BRITAS E CONCRETOS LTDA        ROD. RAPOSO TAVARES,0-KM 341            IPAUSSU                                 18950000SP49052000060259920113566.67W   11102012700BANCO REAL- ABN AMRO1110201400000000001135451CC                                                                                                                                                                                                                                                                                                                                                                                           320413-22     000023
1007421061990COBR_CAUC_COR  BRASIL MAQUINAS E EQUIP PESADOS S/A     014414461000115DOURADAO BRITAS E CONCRETOS LTDA        ROD. RAPOSO TAVARES,0-KM 341            IPAUSSU                                 18950000SP49052000070324146613566 /AG   11102012700BANCO REAL- ABN AMRO1106201500000000001135451CC                                                                                                                                                                                                                                                                                                                                                                                           320413-23     000024
1007421061990COBR_CAUC_COR  BRASIL MAQUINAS E EQUIP PESADOS S/A     014414461000115DOURADAO BRITAS E CONCRETOS LTDA        ROD. RAPOSO TAVARES,0-KM 341            IPAUSSU                                 18950000SP49052000080324147413566 /AH   11102012700BANCO REAL- ABN AMRO1107201500000000001135451CC                                                                                                                                                                                                                                                                                                                                                                                           320413-24     000025
1007421061990COBR_CAUC_COR  BRASIL MAQUINAS E EQUIP PESADOS S/A     014414461000115DOURADAO BRITAS E CONCRETOS LTDA        ROD. RAPOSO TAVARES,0-KM 341            IPAUSSU                                 18950000SP49052000090324168713566 /AI   11102012700BANCO REAL- ABN AMRO1108201500000000001135451CC                                                                                                                                                                                                                                                                                                                                                                                           320413-25     000026
1007421061990COBR_CAUC_COR  BRASIL MAQUINAS E EQUIP PESADOS S/A     014414461000115DOURADAO BRITAS E CONCRETOS LTDA        ROD. RAPOSO TAVARES,0-KM 341            IPAUSSU                                 18950000SP49052000100324143113566 /AD   11102012700BANCO REAL- ABN AMRO1103201500000000001135451CC                                                                                                                                                                                                                                                                                                                                                                                           320413-26     000027
1007421061990COBR_CAUC_COR  BRASIL MAQUINAS E EQUIP PESADOS S/A     014414461000115DOURADAO BRITAS E CONCRETOS LTDA        ROD. RAPOSO TAVARES,0-KM 341            IPAUSSU                                 18950000SP49052000110324144013566 /AE   11102012700BANCO REAL- ABN AMRO1104201500000000001135451CC                                                                                                                                                                                                                                                                                                                                                                                           320413-27     000028
1007421061990COBR_CAUC_COR  BRASIL MAQUINAS E EQUIP PESADOS S/A     014414461000115DOURADAO BRITAS E CONCRETOS LTDA        ROD. RAPOSO TAVARES,0-KM 341            IPAUSSU                                 18950000SP49052000120324145813566 /AF   11102012700BANCO REAL- ABN AMRO1105201500000000001135451CC                                                                                                                                                                                                                                                                                                                                                                                           320413-28     000029
1007421061990COBR_CAUC_COR  BRASIL MAQUINAS E EQUIP PESADOS S/A     017023635000107OLIVIA DOS SANTOS - ME                  AV ALTAMIRANDO ,421-ANDAR 2 SL 202      SIMOES FILHO                            43700000BA490530000103238368360D        18072014700BANCO REAL- ABN AMRO2511201400000000000767100CC                                                                                                                                                                                                                                                                                                                                                                                           320413-29     000030
1007421061990COBR_CAUC_COR  BRASIL MAQUINAS E EQUIP PESADOS S/A     017023635000107OLIVIA DOS SANTOS - ME                  AV ALTAMIRANDO ,421-ANDAR 2 SL 202      SIMOES FILHO                            43700000BA490530000203238996360E        18072014700BANCO REAL- ABN AMRO2512201400000000000767100CC                                                                                                                                                                                                                                                                                                                                                                                           320413-30     000031
1007421061990COBR_CAUC_COR  BRASIL MAQUINAS E EQUIP PESADOS S/A     017023635000107OLIVIA DOS SANTOS - ME                  AV ALTAMIRANDO ,421-ANDAR 2 SL 202      SIMOES FILHO                            43700000BA490530000303239011360G        18072014700BANCO REAL- ABN AMRO2502201500000000000767100CC                                                                                                                                                                                                                                                                                                                                                                                           320413-31     000032
1007421061990COBR_CAUC_COR  BRASIL MAQUINAS E EQUIP PESADOS S/A     017023635000107OLIVIA DOS SANTOS - ME                  AV ALTAMIRANDO ,421-ANDAR 2 SL 202      SIMOES FILHO                            43700000BA490530000403239020360H        18072014700BANCO REAL- ABN AMRO2503201500000000000767100CC                                                                                                                                                                                                                                                                                                                                                                                           320413-32     000033
1007421061990COBR_CAUC_COR  BRASIL MAQUINAS E EQUIP PESADOS S/A     017023635000107OLIVIA DOS SANTOS - ME                  AV ALTAMIRANDO ,421-ANDAR 2 SL 202      SIMOES FILHO                            43700000BA490530000503239038360I        18072014700BANCO REAL- ABN AMRO2504201500000000000767100CC                                                                                                                                                                                                                                                                                                                                                                                           320413-33     000034
1007421061990COBR_CAUC_COR  BRASIL MAQUINAS E EQUIP PESADOS S/A     017023635000107OLIVIA DOS SANTOS - ME                  AV ALTAMIRANDO ,421-ANDAR 2 SL 202      SIMOES FILHO                            43700000BA490530000603238309363D        22072014700BANCO REAL- ABN AMRO2511201400000000000767100CC                                                                                                                                                                                                                                                                                                                                                                                           320413-34     000035
1007421061990COBR_CAUC_COR  BRASIL MAQUINAS E EQUIP PESADOS S/A     017023635000107OLIVIA DOS SANTOS - ME                  AV ALTAMIRANDO ,421-ANDAR 2 SL 202      SIMOES FILHO                            43700000BA490530000703238325363F        22072014700BANCO REAL- ABN AMRO2501201500000000000767100CC                                                                                                                                                                                                                                                                                                                                                                                           320413-35     000036
1007421061990COBR_CAUC_COR  BRASIL MAQUINAS E EQUIP PESADOS S/A     017023635000107OLIVIA DOS SANTOS - ME                  AV ALTAMIRANDO ,421-ANDAR 2 SL 202      SIMOES FILHO                            43700000BA490530000803238333363G        22072014700BANCO REAL- ABN AMRO2502201500000000000767100CC                                                                                                                                                                                                                                                                                                                                                                                           320413-36     000037
1007421061990COBR_CAUC_COR  BRASIL MAQUINAS E EQUIP PESADOS S/A     017023635000107OLIVIA DOS SANTOS - ME                  AV ALTAMIRANDO ,421-ANDAR 2 SL 202      SIMOES FILHO                            43700000BA490530000903238341363H        22072014700BANCO REAL- ABN AMRO2503201500000000000767100CC                                                                                                                                                                                                                                                                                                                                                                                           320413-37     000038
1007421061990COBR_CAUC_COR  BRASIL MAQUINAS E EQUIP PESADOS S/A     017023635000107OLIVIA DOS SANTOS - ME                  AV ALTAMIRANDO ,421-ANDAR 2 SL 202      SIMOES FILHO                            43700000BA490530001003238384360B        18072014700BANCO REAL- ABN AMRO2509201400000000000767100CC                                                                                                                                                                                                                                                                                                                                                                                           320413-38     000039
1007421061990COBR_CAUC_COR  BRASIL MAQUINAS E EQUIP PESADOS S/A     017023635000107OLIVIA DOS SANTOS - ME                  AV ALTAMIRANDO ,421-ANDAR 2 SL 202      SIMOES FILHO                            43700000BA490530001103238538363J        22072014700BANCO REAL- ABN AMRO2505201500000000000767100CC                                                                                                                                                                                                                                                                                                                                                                                           320413-39     000040
1007421061990COBR_CAUC_COR  BRASIL MAQUINAS E EQUIP PESADOS S/A     017023635000107OLIVIA DOS SANTOS - ME                  AV ALTAMIRANDO ,421-ANDAR 2 SL 202      SIMOES FILHO                            43700000BA490530001203238350363I        22072014700BANCO REAL- ABN AMRO2504201500000000000767100CC                                                                                                                                                                                                                                                                                                                                                                                           320413-40     000041
1007421061990COBR_CAUC_COR  BRASIL MAQUINAS E EQUIP PESADOS S/A     017023635000107OLIVIA DOS SANTOS - ME                  AV ALTAMIRANDO ,421-ANDAR 2 SL 202      SIMOES FILHO                            43700000BA490530001303238317363E        22072014700BANCO REAL- ABN AMRO2512201400000000000767100CC                                                                                                                                                                                                                                                                                                                                                                                           320413-41     000042
1007421061990COBR_CAUC_COR  BRASIL MAQUINAS E EQUIP PESADOS S/A     017023635000107OLIVIA DOS SANTOS - ME                  AV ALTAMIRANDO ,421-ANDAR 2 SL 202      SIMOES FILHO                            43700000BA490530001403239003360F        18072014700BANCO REAL- ABN AMRO2501201500000000000767100CC                                                                                                                                                                                                                                                                                                                                                                                           320413-42     000043
1007421061990COBR_CAUC_COR  BRASIL MAQUINAS E EQUIP PESADOS S/A     017023635000107OLIVIA DOS SANTOS - ME                  AV ALTAMIRANDO ,421-ANDAR 2 SL 202      SIMOES FILHO                            43700000BA490530001503238287363B        22072014700BANCO REAL- ABN AMRO2509201400000000000767100CC                                                                                                                                                                                                                                                                                                                                                                                           320413-43     000044
1007421061990COBR_CAUC_COR  BRASIL MAQUINAS E EQUIP PESADOS S/A     017023635000107OLIVIA DOS SANTOS - ME                  AV ALTAMIRANDO ,421-ANDAR 2 SL 202      SIMOES FILHO                            43700000BA490530001603238376360C        18072014700BANCO REAL- ABN AMRO2510201400000000000767100CC                                                                                                                                                                                                                                                                                                                                                                                           320413-44     000045
1007421061990COBR_CAUC_COR  BRASIL MAQUINAS E EQUIP PESADOS S/A     017023635000107OLIVIA DOS SANTOS - ME                  AV ALTAMIRANDO ,421-ANDAR 2 SL 202      SIMOES FILHO                            43700000BA490530001703238295363C        22072014700BANCO REAL- ABN AMRO2510201400000000000767100CC                                                                                                                                                                                                                                                                                                                                                                                           320413-45     000046
1007421061990COBR_CAUC_COR  BRASIL MAQUINAS E EQUIP PESADOS S/A     017023635000107OLIVIA DOS SANTOS - ME                  AV ALTAMIRANDO ,421-ANDAR 2 SL 202      SIMOES FILHO                            43700000BA490530001803239046360J        18072014700BANCO REAL- ABN AMRO2505201500000000000767100CC                                                                                                                                                                                                                                                                                                                                                                                           320413-46     000047
1007421061990COBR_CAUC_BIC  BRASIL MAQUINAS E EQUIP PESADOS S/A     000299904000160DIMENSIONAL ENGENHARIA LTDA             RUA SETE DE SETEMBRO,98-SALA 605        RIO DE JANEIRO                          20050002RJ4905400001027732279493H       28022014014RIO DE JANEIRO      1410201400000000003500000CC                                                                                                                                                                                                                                                                                                                                                                                           320413-47     000048
1007421061990COBR_CAUC_BIC  BRASIL MAQUINAS E EQUIP PESADOS S/A     000299904000160DIMENSIONAL ENGENHARIA LTDA             RUA SETE DE SETEMBRO,98-SALA 605        RIO DE JANEIRO                          20050002RJ4905400002027723369493I       28022014014RIO DE JANEIRO      1411201400000000003500000CC                                                                                                                                                                                                                                                                                                                                                                                           320413-48     000049
1007421061990COBR_CAUC_BIC  BRASIL MAQUINAS E EQUIP PESADOS S/A     000299904000160DIMENSIONAL ENGENHARIA LTDA             RUA SETE DE SETEMBRO,98-SALA 605        RIO DE JANEIRO                          20050002RJ4905400003027724769493J       28022014014RIO DE JANEIRO      1412201400000000003500000CC                                                                                                                                                                                                                                                                                                                                                                                           320413-49     000050
1007421061990COBR_CAUC_BIC  BRASIL MAQUINAS E EQUIP PESADOS S/A     000299904000160DIMENSIONAL ENGENHARIA LTDA             RUA SETE DE SETEMBRO,98-SALA 605        RIO DE JANEIRO                          20050002RJ4905400004027730819493G       28022014014RIO DE JANEIRO      1409201400000000003500000CC                                                                                                                                                                                                                                                                                                                                                                                           320413-50     000051
1007421061990COBR_CAUC_BIC  BRASIL MAQUINAS E EQUIP PESADOS S/A     002303294000156CLIO SERVICOS DE BOMB DE CONCRETO       AV JOSE JOAQUIM SEABRA,439-LOJA 04      SALVADOR                                40025000BA490560000103238473140H        31012014013SALVADOR            2803201500000000000178722CC                                                                                                                                                                                                                                                                                                                                                                                           320413-51     000052
1007421061990COBR_CAUC_BIC  BRASIL MAQUINAS E EQUIP PESADOS S/A     002303294000156CLIO SERVICOS DE BOMB DE CONCRETO       AV JOSE JOAQUIM SEABRA,439-LOJA 04      SALVADOR                                40025000BA490560000203238414140B        31012014013SALVADOR            2809201400000000000178722CC                                                                                                                                                                                                                                                                                                                                                                                           320413-52     000053
1007421061990COBR_CAUC_BIC  BRASIL MAQUINAS E EQUIP PESADOS S/A     002303294000156CLIO SERVICOS DE BOMB DE CONCRETO       AV JOSE JOAQUIM SEABRA,439-LOJA 04      SALVADOR                                40025000BA490560000303238503140K        31012014013SALVADOR            2806201500000000000178722CC                                                                                                                                                                                                                                                                                                                                                                                           320413-53     000054
1007421061990COBR_CAUC_BIC  BRASIL MAQUINAS E EQUIP PESADOS S/A     002303294000156CLIO SERVICOS DE BOMB DE CONCRETO       AV JOSE JOAQUIM SEABRA,439-LOJA 04      SALVADOR                                40025000BA490560000403238449140E        31012014013SALVADOR            2812201400000000000178722CC                                                                                                                                                                                                                                                                                                                                                                                           320413-54     000055
1007421061990COBR_CAUC_BIC  BRASIL MAQUINAS E EQUIP PESADOS S/A     002303294000156CLIO SERVICOS DE BOMB DE CONCRETO       AV JOSE JOAQUIM SEABRA,439-LOJA 04      SALVADOR                                40025000BA490560000502663618139C        31012014013SALVADOR            2811201400000000002015325CC                                                                                                                                                                                                                                                                                                                                                                                           320413-55     000056
1007421061990COBR_CAUC_BIC  BRASIL MAQUINAS E EQUIP PESADOS S/A     002303294000156CLIO SERVICOS DE BOMB DE CONCRETO       AV JOSE JOAQUIM SEABRA,439-LOJA 04      SALVADOR                                40025000BA490560000602663634139A        31012014013SALVADOR            2809201400000000002017925CC                                                                                                                                                                                                                                                                                                                                                                                           320413-56     000057
1007421061990COBR_CAUC_BIC  BRASIL MAQUINAS E EQUIP PESADOS S/A     002303294000156CLIO SERVICOS DE BOMB DE CONCRETO       AV JOSE JOAQUIM SEABRA,439-LOJA 04      SALVADOR                                40025000BA490560000703238457140F        31012014013SALVADOR            2801201500000000000178722CC                                                                                                                                                                                                                                                                                                                                                                                           320413-57     000058
1007421061990COBR_CAUC_BIC  BRASIL MAQUINAS E EQUIP PESADOS S/A     002303294000156CLIO SERVICOS DE BOMB DE CONCRETO       AV JOSE JOAQUIM SEABRA,439-LOJA 04      SALVADOR                                40025000BA490560000802663529139H        31012014013SALVADOR            2804201500000000002015325CC                                                                                                                                                                                                                                                                                                                                                                                           320413-58     000059
1007421061990COBR_CAUC_BIC  BRASIL MAQUINAS E EQUIP PESADOS S/A     002303294000156CLIO SERVICOS DE BOMB DE CONCRETO       AV JOSE JOAQUIM SEABRA,439-LOJA 04      SALVADOR                                40025000BA490560000902663596139E        31012014013SALVADOR            2801201500000000002015325CC                                                                                                                                                                                                                                                                                                                                                                                           320413-59     000060
1007421061990COBR_CAUC_BIC  BRASIL MAQUINAS E EQUIP PESADOS S/A     002303294000156CLIO SERVICOS DE BOMB DE CONCRETO       AV JOSE JOAQUIM SEABRA,439-LOJA 04      SALVADOR                                40025000BA490560001002663626139B        31012014013SALVADOR            2810201400000000002015325CC                                                                                                                                                                                                                                                                                                                                                                                           320413-60     000061
1007421061990COBR_CAUC_BIC  BRASIL MAQUINAS E EQUIP PESADOS S/A     002303294000156CLIO SERVICOS DE BOMB DE CONCRETO       AV JOSE JOAQUIM SEABRA,439-LOJA 04      SALVADOR                                40025000BA490560001102663570139G        31012014013SALVADOR            2803201500000000002015325CC                                                                                                                                                                                                                                                                                                                                                                                           320413-61     000062
1007421061990COBR_CAUC_BIC  BRASIL MAQUINAS E EQUIP PESADOS S/A     002303294000156CLIO SERVICOS DE BOMB DE CONCRETO       AV JOSE JOAQUIM SEABRA,439-LOJA 04      SALVADOR                                40025000BA490560001202663588139F        31012014013SALVADOR            2802201500000000002015325CC                                                                                                                                                                                                                                                                                                                                                                                           320413-62     000063
1007421061990COBR_CAUC_BIC  BRASIL MAQUINAS E EQUIP PESADOS S/A     002303294000156CLIO SERVICOS DE BOMB DE CONCRETO       AV JOSE JOAQUIM SEABRA,439-LOJA 04      SALVADOR                                40025000BA490560001302663600139D        31012014013SALVADOR            2812201400000000002015325CC                                                                                                                                                                                                                                                                                                                                                                                           320413-63     000064
1007421061990COBR_CAUC_BIC  BRASIL MAQUINAS E EQUIP PESADOS S/A     002303294000156CLIO SERVICOS DE BOMB DE CONCRETO       AV JOSE JOAQUIM SEABRA,439-LOJA 04      SALVADOR                                40025000BA490560001403238511140L        31012014013SALVADOR            2807201500000000000178722CC                                                                                                                                                                                                                                                                                                                                                                                           320413-64     000065
1007421061990COBR_CAUC_BIC  BRASIL MAQUINAS E EQUIP PESADOS S/A     002303294000156CLIO SERVICOS DE BOMB DE CONCRETO       AV JOSE JOAQUIM SEABRA,439-LOJA 04      SALVADOR                                40025000BA490560001503238422140C        31012014013SALVADOR            2810201400000000000178722CC                                                                                                                                                                                                                                                                                                                                                                                           320413-65     000066
1007421061990COBR_CAUC_BIC  BRASIL MAQUINAS E EQUIP PESADOS S/A     002303294000156CLIO SERVICOS DE BOMB DE CONCRETO       AV JOSE JOAQUIM SEABRA,439-LOJA 04      SALVADOR                                40025000BA490560001603238520140M        31012014013SALVADOR            2808201500000000000178722CC                                                                                                                                                                                                                                                                                                                                                                                           320413-66     000067
1007421061990COBR_CAUC_BIC  BRASIL MAQUINAS E EQUIP PESADOS S/A     002303294000156CLIO SERVICOS DE BOMB DE CONCRETO       AV JOSE JOAQUIM SEABRA,439-LOJA 04      SALVADOR                                40025000BA490560001703238431140D        31012014013SALVADOR            2811201400000000000178722CC                                                                                                                                                                                                                                                                                                                                                                                           320413-67     000068
1007421061990COBR_CAUC_BIC  BRASIL MAQUINAS E EQUIP PESADOS S/A     002303294000156CLIO SERVICOS DE BOMB DE CONCRETO       AV JOSE JOAQUIM SEABRA,439-LOJA 04      SALVADOR                                40025000BA490560001803238465140G        31012014013SALVADOR            2802201500000000000178722CC                                                                                                                                                                                                                                                                                                                                                                                           320413-68     000069
1007421061990COBR_CAUC_BIC  BRASIL MAQUINAS E EQUIP PESADOS S/A     002303294000156CLIO SERVICOS DE BOMB DE CONCRETO       AV JOSE JOAQUIM SEABRA,439-LOJA 04      SALVADOR                                40025000BA490560001903238481140I        31012014013SALVADOR            2804201500000000000178722CC                                                                                                                                                                                                                                                                                                                                                                                           320413-69     000070
1007421061990COBR_CAUC_BIC  BRASIL MAQUINAS E EQUIP PESADOS S/A     002303294000156CLIO SERVICOS DE BOMB DE CONCRETO       AV JOSE JOAQUIM SEABRA,439-LOJA 04      SALVADOR                                40025000BA490560002003238490140J        31012014013SALVADOR            2805201500000000000178722CC                                                                                                                                                                                                                                                                                                                                                                                           320413-70     000071
1007421061990COBR_CAUC_BIC  BRASIL MAQUINAS E EQUIP PESADOS S/A     002303294000156CLIO SERVICOS DE BOMB DE CONCRETO       AV JOSE JOAQUIM SEABRA,439-LOJA 04      SALVADOR                                40025000BA490560002102663537139I        31012014013SALVADOR            2805201500000000002015325CC                                                                                                                                                                                                                                                                                                                                                                                           320413-71     000072
1007421061990COBR_CAUC_COR  BRASIL MAQUINAS E EQUIP PESADOS S/A     002691177000107ERIVALDO AUGUSTO SILVA - EPP            RODOVIA BR-104 ATE KM 65,0              CARUARU                                 55014170PE49057000010324151213993S      22112012700BANCO REAL- ABN AMRO3010201400000000000800421CC                                                                                                                                                                                                                                                                                                                                                                                           320413-72     000073
1007421061990COBR_CAUC_COR  BRASIL MAQUINAS E EQUIP PESADOS S/A     002691177000107ERIVALDO AUGUSTO SILVA - EPP            RODOVIA BR-104 ATE KM 65,0              CARUARU                                 55014170PE49057000020324130013993R      22112012700BANCO REAL- ABN AMRO3009201400000000000800421CC                                                                                                                                                                                                                                                                                                                                                                                           320413-73     000074
1007421061990COBR_CAUC_COR  BRASIL MAQUINAS E EQUIP PESADOS S/A     002691177000107ERIVALDO AUGUSTO SILVA - EPP            RODOVIA BR-104 ATE KM 65,0              CARUARU                                 55014170PE49057000030324158013993AA     22112012700BANCO REAL- ABN AMRO3005201500000000000800421CC                                                                                                                                                                                                                                                                                                                                                                                           320413-74     000075
1007421061990COBR_CAUC_COR  BRASIL MAQUINAS E EQUIP PESADOS S/A     002691177000107ERIVALDO AUGUSTO SILVA - EPP            RODOVIA BR-104 ATE KM 65,0              CARUARU                                 55014170PE49057000040324162817412O      08102013700BANCO REAL- ABN AMRO1003201500000000000812660CC                                                                                                                                                                                                                                                                                                                                                                                           320413-75     000076
1007421061990COBR_CAUC_COR  BRASIL MAQUINAS E EQUIP PESADOS S/A     002691177000107ERIVALDO AUGUSTO SILVA - EPP            RODOVIA BR-104 ATE KM 65,0              CARUARU                                 55014170PE49057000050324167917412T      08102013700BANCO REAL- ABN AMRO1008201500000000000812660CC                                                                                                                                                                                                                                                                                                                                                                                           320413-76     000077
1007421061990COBR_CAUC_COR  BRASIL MAQUINAS E EQUIP PESADOS S/A     002691177000107ERIVALDO AUGUSTO SILVA - EPP            RODOVIA BR-104 ATE KM 65,0              CARUARU                                 55014170PE49057000060252772217412M      08102013700BANCO REAL- ABN AMRO1012201400000000000812660CC                                                                                                                                                                                                                                                                                                                                                                                           320413-77     000078
1007421061990COBR_CAUC_COR  BRASIL MAQUINAS E EQUIP PESADOS S/A     002691177000107ERIVALDO AUGUSTO SILVA - EPP            RODOVIA BR-104 ATE KM 65,0              CARUARU                                 55014170PE49057000070324153913993U      22112012700BANCO REAL- ABN AMRO3012201400000000000800421CC                                                                                                                                                                                                                                                                                                                                                                                           320413-78     000079
1007421061990COBR_CAUC_COR  BRASIL MAQUINAS E EQUIP PESADOS S/A     002691177000107ERIVALDO AUGUSTO SILVA - EPP            RODOVIA BR-104 ATE KM 65,0              CARUARU                                 55014170PE49057000080324155513993X      22112012700BANCO REAL- ABN AMRO2802201500000000000800421CC                                                                                                                                                                                                                                                                                                                                                                                           320413-79     000080
1007421061990COBR_CAUC_COR  BRASIL MAQUINAS E EQUIP PESADOS S/A     002691177000107ERIVALDO AUGUSTO SILVA - EPP            RODOVIA BR-104 ATE KM 65,0              CARUARU                                 55014170PE49057000090252768417412N      08102013700BANCO REAL- ABN AMRO1001201500000000000812660CC                                                                                                                                                                                                                                                                                                                                                                                           320413-80     000081
1007421061990COBR_CAUC_COR  BRASIL MAQUINAS E EQUIP PESADOS S/A     002691177000107ERIVALDO AUGUSTO SILVA - EPP            RODOVIA BR-104 ATE KM 65,0              CARUARU                                 55014170PE49057000100323335813993T      22112012700BANCO REAL- ABN AMRO3011201400000000000800421CC                                                                                                                                                                                                                                                                                                                                                                                           320413-81     000082
1007421061990COBR_CAUC_COR  BRASIL MAQUINAS E EQUIP PESADOS S/A     002691177000107ERIVALDO AUGUSTO SILVA - EPP            RODOVIA BR-104 ATE KM 65,0              CARUARU                                 55014170PE49057000110324159813993AB     22112012700BANCO REAL- ABN AMRO3006201500000000000800421CC                                                                                                                                                                                                                                                                                                                                                                                           320413-82     000083
1007421061990COBR_CAUC_COR  BRASIL MAQUINAS E EQUIP PESADOS S/A     002691177000107ERIVALDO AUGUSTO SILVA - EPP            RODOVIA BR-104 ATE KM 65,0              CARUARU                                 55014170PE49057000120324160113993AC     22112012700BANCO REAL- ABN AMRO3007201500000000000800421CC                                                                                                                                                                                                                                                                                                                                                                                           320413-83     000084
1007421061990COBR_CAUC_COR  BRASIL MAQUINAS E EQUIP PESADOS S/A     002691177000107ERIVALDO AUGUSTO SILVA - EPP            RODOVIA BR-104 ATE KM 65,0              CARUARU                                 55014170PE49057000130324163617412P      08102013700BANCO REAL- ABN AMRO1004201500000000000812660CC                                                                                                                                                                                                                                                                                                                                                                                           320413-84     000085
1007421061990COBR_CAUC_COR  BRASIL MAQUINAS E EQUIP PESADOS S/A     002691177000107ERIVALDO AUGUSTO SILVA - EPP            RODOVIA BR-104 ATE KM 65,0              CARUARU                                 55014170PE49057000140252775717412J      08102013700BANCO REAL- ABN AMRO1009201400000000000812660CC                                                                                                                                                                                                                                                                                                                                                                                           320413-85     000086
1007421061990COBR_CAUC_COR  BRASIL MAQUINAS E EQUIP PESADOS S/A     002691177000107ERIVALDO AUGUSTO SILVA - EPP            RODOVIA BR-104 ATE KM 65,0              CARUARU                                 55014170PE49057000150323330713993R      22112012700BANCO REAL- ABN AMRO3009201400000000000800421CC                                                                                                                                                                                                                                                                                                                                                                                           320413-86     000087
1007421061990COBR_CAUC_COR  BRASIL MAQUINAS E EQUIP PESADOS S/A     002691177000107ERIVALDO AUGUSTO SILVA - EPP            RODOVIA BR-104 ATE KM 65,0              CARUARU                                 55014170PE49057000160324166117412S      08102013700BANCO REAL- ABN AMRO1007201500000000000812660CC                                                                                                                                                                                                                                                                                                                                                                                           320413-87     000088
1007421061990COBR_CAUC_COR  BRASIL MAQUINAS E EQUIP PESADOS S/A     002691177000107ERIVALDO AUGUSTO SILVA - EPP            RODOVIA BR-104 ATE KM 65,0              CARUARU                                 55014170PE49057000170324157113993Z      22112012700BANCO REAL- ABN AMRO3004201500000000000800421CC                                                                                                                                                                                                                                                                                                                                                                                           320413-88     000089
1007421061990COBR_CAUC_COR  BRASIL MAQUINAS E EQUIP PESADOS S/A     002691177000107ERIVALDO AUGUSTO SILVA - EPP            RODOVIA BR-104 ATE KM 65,0              CARUARU                                 55014170PE49057000180252774917412K      08102013700BANCO REAL- ABN AMRO1010201400000000000812660CC                                                                                                                                                                                                                                                                                                                                                                                           320413-89     000090
1007421061990COBR_CAUC_COR  BRASIL MAQUINAS E EQUIP PESADOS S/A     002691177000107ERIVALDO AUGUSTO SILVA - EPP            RODOVIA BR-104 ATE KM 65,0              CARUARU                                 55014170PE49057000190324152113993T      22112012700BANCO REAL- ABN AMRO3011201400000000000800421CC                                                                                                                                                                                                                                                                                                                                                                                           320413-90     000091
1007421061990COBR_CAUC_COR  BRASIL MAQUINAS E EQUIP PESADOS S/A     002691177000107ERIVALDO AUGUSTO SILVA - EPP            RODOVIA BR-104 ATE KM 65,0              CARUARU                                 55014170PE49057000200324154713993V      22112012700BANCO REAL- ABN AMRO3001201500000000000800421CC                                                                                                                                                                                                                                                                                                                                                                                           320413-91     000092
1007421061990COBR_CAUC_COR  BRASIL MAQUINAS E EQUIP PESADOS S/A     002691177000107ERIVALDO AUGUSTO SILVA - EPP            RODOVIA BR-104 ATE KM 65,0              CARUARU                                 55014170PE49057000210323334013993S      22112012700BANCO REAL- ABN AMRO3010201400000000000800421CC                                                                                                                                                                                                                                                                                                                                                                                           320413-92     000093
1007421061990COBR_CAUC_COR  BRASIL MAQUINAS E EQUIP PESADOS S/A     002691177000107ERIVALDO AUGUSTO SILVA - EPP            RODOVIA BR-104 ATE KM 65,0              CARUARU                                 55014170PE49057000220324161017412N      08102013700BANCO REAL- ABN AMRO1002201500000000000812660CC                                                                                                                                                                                                                                                                                                                                                                                           320413-93     000094
1007421061990COBR_CAUC_COR  BRASIL MAQUINAS E EQUIP PESADOS S/A     002691177000107ERIVALDO AUGUSTO SILVA - EPP            RODOVIA BR-104 ATE KM 65,0              CARUARU                                 55014170PE49057000230324164417412Q      08102013700BANCO REAL- ABN AMRO1005201500000000000812660CC                                                                                                                                                                                                                                                                                                                                                                                           320413-94     000095
1007421061990COBR_CAUC_COR  BRASIL MAQUINAS E EQUIP PESADOS S/A     002691177000107ERIVALDO AUGUSTO SILVA - EPP            RODOVIA BR-104 ATE KM 65,0              CARUARU                                 55014170PE49057000240252773117412L      08102013700BANCO REAL- ABN AMRO1011201400000000000812660CC                                                                                                                                                                                                                                                                                                                                                                                           320413-95     000096
1007421061990COBR_CAUC_COR  BRASIL MAQUINAS E EQUIP PESADOS S/A     002691177000107ERIVALDO AUGUSTO SILVA - EPP            RODOVIA BR-104 ATE KM 65,0              CARUARU                                 55014170PE49057000250324156313993Y      22112012700BANCO REAL- ABN AMRO3003201500000000000800421CC                                                                                                                                                                                                                                                                                                                                                                                           320413-96     000097
1007421061990COBR_CAUC_COR  BRASIL MAQUINAS E EQUIP PESADOS S/A     002691177000107ERIVALDO AUGUSTO SILVA - EPP            RODOVIA BR-104 ATE KM 65,0              CARUARU                                 55014170PE49057000260324165217412R      08102013700BANCO REAL- ABN AMRO1006201500000000000812660CC                                                                                                                                                                                                                                                                                                                                                                                           320413-97     000098
1007421061990COBR_CAUC_BIC  BRASIL MAQUINAS E EQUIP PESADOS S/A     050546480000169ENGETERRA ENGENHARIA E TERRAPLENAG      AVENIDA ELISEU DE ALMEIDA,1820          SAO PAULO                               05533000SP4905800001032333316748/D      26062014007PAULISTA            0512201400000000002111338CC                                                                                                                                                                                                                                                                                                                                                                                           320413-98     000099
1007421061990COBR_CAUC_BIC  BRASIL MAQUINAS E EQUIP PESADOS S/A     050546480000169ENGETERRA ENGENHARIA E TERRAPLENAG      AVENIDA ELISEU DE ALMEIDA,1820          SAO PAULO                               05533000SP4905800002032413856748/G      26062014007PAULISTA            0503201500000000002111338CC                                                                                                                                                                                                                                                                                                                                                                                           320413-99     000100
1007421061990COBR_CAUC_BIC  BRASIL MAQUINAS E EQUIP PESADOS S/A     050546480000169ENGETERRA ENGENHARIA E TERRAPLENAG      AVENIDA ELISEU DE ALMEIDA,1820          SAO PAULO                               05533000SP4905800003032414076748/I      26062014007PAULISTA            0505201500000000002111338CC                                                                                                                                                                                                                                                                                                                                                                                           320413-100    000101
1007421061990COBR_CAUC_BIC  BRASIL MAQUINAS E EQUIP PESADOS S/A     050546480000169ENGETERRA ENGENHARIA E TERRAPLENAG      AVENIDA ELISEU DE ALMEIDA,1820          SAO PAULO                               05533000SP4905800004032413776748/F      26062014007PAULISTA            0502201500000000002111338CC                                                                                                                                                                                                                                                                                                                                                                                           320413-101    000102
1007421061990COBR_CAUC_BIC  BRASIL MAQUINAS E EQUIP PESADOS S/A     050546480000169ENGETERRA ENGENHARIA E TERRAPLENAG      AVENIDA ELISEU DE ALMEIDA,1820          SAO PAULO                               05533000SP4905800005032413346748/B      26062014007PAULISTA            0510201400000000002111338CC                                                                                                                                                                                                                                                                                                                                                                                           320413-102    000103
1007421061990COBR_CAUC_BIC  BRASIL MAQUINAS E EQUIP PESADOS S/A     050546480000169ENGETERRA ENGENHARIA E TERRAPLENAG      AVENIDA ELISEU DE ALMEIDA,1820          SAO PAULO                               05533000SP4905800006032413516748/D      26062014007PAULISTA            0512201400000000002111338CC                                                                                                                                                                                                                                                                                                                                                                                           320413-103    000104
1007421061990COBR_CAUC_BIC  BRASIL MAQUINAS E EQUIP PESADOS S/A     050546480000169ENGETERRA ENGENHARIA E TERRAPLENAG      AVENIDA ELISEU DE ALMEIDA,1820          SAO PAULO                               05533000SP4905800007032413696748/E      26062014007PAULISTA            0501201500000000002111338CC                                                                                                                                                                                                                                                                                                                                                                                           320413-104    000105
1007421061990COBR_CAUC_BIC  BRASIL MAQUINAS E EQUIP PESADOS S/A     050546480000169ENGETERRA ENGENHARIA E TERRAPLENAG      AVENIDA ELISEU DE ALMEIDA,1820          SAO PAULO                               05533000SP4905800008032414156748/J      26062014007PAULISTA            0506201500000000002111338CC                                                                                                                                                                                                                                                                                                                                                                                           320413-105    000106
1007421061990COBR_CAUC_BIC  BRASIL MAQUINAS E EQUIP PESADOS S/A     050546480000169ENGETERRA ENGENHARIA E TERRAPLENAG      AVENIDA ELISEU DE ALMEIDA,1820          SAO PAULO                               05533000SP4905800009032333156748/B      26062014007PAULISTA            0510201400000000002111338CC                                                                                                                                                                                                                                                                                                                                                                                           320413-106    000107
1007421061990COBR_CAUC_BIC  BRASIL MAQUINAS E EQUIP PESADOS S/A     050546480000169ENGETERRA ENGENHARIA E TERRAPLENAG      AVENIDA ELISEU DE ALMEIDA,1820          SAO PAULO                               05533000SP4905800010032413426748/C      26062014007PAULISTA            0511201400000000002111338CC                                                                                                                                                                                                                                                                                                                                                                                           320413-107    000108
1007421061990COBR_CAUC_BIC  BRASIL MAQUINAS E EQUIP PESADOS S/A     050546480000169ENGETERRA ENGENHARIA E TERRAPLENAG      AVENIDA ELISEU DE ALMEIDA,1820          SAO PAULO                               05533000SP4905800011032333236748/C      26062014007PAULISTA            0511201400000000002111338CC                                                                                                                                                                                                                                                                                                                                                                                           320413-108    000109
1007421061990COBR_CAUC_BIC  BRASIL MAQUINAS E EQUIP PESADOS S/A     050546480000169ENGETERRA ENGENHARIA E TERRAPLENAG      AVENIDA ELISEU DE ALMEIDA,1820          SAO PAULO                               05533000SP4905800012032413936748/H      26062014007PAULISTA            0504201500000000002111338CC                                                                                                                                                                                                                                                                                                                                                                                           320413-109    000110
1007421061990COBR_CAUC_COR  BRASIL MAQUINAS E EQUIP PESADOS S/A     008528222000193BRITAGRAN BRITAS E GRANITOS MINERA      ROD GO-222 KM 5,5 - MARGEM D,0-S/N      NOVA VENEZA                             75470000GO49059000010324131817060H      30092013700BANCO REAL- ABN AMRO3010201400000000008888800CC                                                                                                                                                                                                                                                                                                                                                                                           320413-110    000111
1007421061990COBR_CAUC_COR  BRASIL MAQUINAS E EQUIP PESADOS S/A     008528222000193BRITAGRAN BRITAS E GRANITOS MINERA      ROD GO-222 KM 5,5 - MARGEM D,0-S/N      NOVA VENEZA                             75470000GO49059000020324148217060G      30092013700BANCO REAL- ABN AMRO3009201400000000008888800CC                                                                                                                                                                                                                                                                                                                                                                                           320413-111    000112
1007421061990COBR_CAUC_COR  BRASIL MAQUINAS E EQUIP PESADOS S/A     008528222000193BRITAGRAN BRITAS E GRANITOS MINERA      ROD GO-222 KM 5,5 - MARGEM D,0-S/N      NOVA VENEZA                             75470000GO49059000030324132617060I      30092013700BANCO REAL- ABN AMRO3011201400000000008888800CC                                                                                                                                                                                                                                                                                                                                                                                           320413-112    000113
1007421061990COBR_CAUC_BIC  BRASIL MAQUINAS E EQUIP PESADOS S/A     013682324000107CS RENTAL LTDA                          RUA QUATA,325                           SAO PAULO                               04546042SP49060000010323868616823V      26082013007PAULISTA            1507201500000000001308500CC                                                                                                                                                                                                                                                                                                                                                                                           320413-113    000114
1007421061990COBR_CAUC_BIC  BRASIL MAQUINAS E EQUIP PESADOS S/A     013682324000107CS RENTAL LTDA                          RUA QUATA,325                           SAO PAULO                               04546042SP49060000020323929117718H      28022014007PAULISTA            2511201400000000001218095CC                                                                                                                                                                                                                                                                                                                                                                                           320413-114    000115
1007421061990COBR_CAUC_BIC  BRASIL MAQUINAS E EQUIP PESADOS S/A     013682324000107CS RENTAL LTDA                          RUA QUATA,325                           SAO PAULO                               04546042SP49060000030240253915399.619L  30092013007PAULISTA            3010201400000000001227091CC                                                                                                                                                                                                                                                                                                                                                                                           320413-115    000116
1007421061990COBR_CAUC_BIC  BRASIL MAQUINAS E EQUIP PESADOS S/A     013682324000107CS RENTAL LTDA                          RUA QUATA,325                           SAO PAULO                               04546042SP49060000040323864316823R      26082013007PAULISTA            1503201500000000001308500CC                                                                                                                                                                                                                                                                                                                                                                                           320413-116    000117
1007421061990COBR_CAUC_BIC  BRASIL MAQUINAS E EQUIP PESADOS S/A     013682324000107CS RENTAL LTDA                          RUA QUATA,325                           SAO PAULO                               04546042SP49060000050323924117438Q      31102013007PAULISTA            2805201500000000000930312CC                                                                                                                                                                                                                                                                                                                                                                                           320413-117    000118
1007421061990COBR_CAUC_BIC  BRASIL MAQUINAS E EQUIP PESADOS S/A     013682324000107CS RENTAL LTDA                          RUA QUATA,325                           SAO PAULO                               04546042SP49060000060323867816823U      26082013007PAULISTA            1506201500000000001308500CC                                                                                                                                                                                                                                                                                                                                                                                           320413-118    000119
1007421061990COBR_CAUC_BIC  BRASIL MAQUINAS E EQUIP PESADOS S/A     013682324000107CS RENTAL LTDA                          RUA QUATA,325                           SAO PAULO                               04546042SP49060000070323869417718M      28022014007PAULISTA            2504201500000000001218095CC                                                                                                                                                                                                                                                                                                                                                                                           320413-119    000120
1007421061990COBR_CAUC_BIC  BRASIL MAQUINAS E EQUIP PESADOS S/A     013682324000107CS RENTAL LTDA                          RUA QUATA,325                           SAO PAULO                               04546042SP49060000080323932116823X      26082013007PAULISTA            1508201500000000001308500CC                                                                                                                                                                                                                                                                                                                                                                                           320413-120    000121
1007421061990COBR_CAUC_BIC  BRASIL MAQUINAS E EQUIP PESADOS S/A     013682324000107CS RENTAL LTDA                          RUA QUATA,325                           SAO PAULO                               04546042SP49060000090323855417718N      28022014007PAULISTA            2505201500000000001218095CC                                                                                                                                                                                                                                                                                                                                                                                           320413-121    000122
1007421061990COBR_CAUC_BIC  BRASIL MAQUINAS E EQUIP PESADOS S/A     013682324000107CS RENTAL LTDA                          RUA QUATA,325                           SAO PAULO                               04546042SP49060000100323871617718K      28022014007PAULISTA            2502201500000000001218095CC                                                                                                                                                                                                                                                                                                                                                                                           320413-122    000123
1007421061990COBR_CAUC_BIC  BRASIL MAQUINAS E EQUIP PESADOS S/A     013682324000107CS RENTAL LTDA                          RUA QUATA,325                           SAO PAULO                               04546042SP49060000110323872417438K      31102013007PAULISTA            2811201400000000000930312CC                                                                                                                                                                                                                                                                                                                                                                                           320413-123    000124
1007421061990COBR_CAUC_BIC  BRASIL MAQUINAS E EQUIP PESADOS S/A     013682324000107CS RENTAL LTDA                          RUA QUATA,325                           SAO PAULO                               04546042SP49060000120323931317718J      28022014007PAULISTA            2501201500000000001218095CC                                                                                                                                                                                                                                                                                                                                                                                           320413-124    000125
1007421061990COBR_CAUC_BIC  BRASIL MAQUINAS E EQUIP PESADOS S/A     013682324000107CS RENTAL LTDA                          RUA QUATA,325                           SAO PAULO                               04546042SP49060000130323863516823Q      26082013007PAULISTA            1502201500000000001308500CC                                                                                                                                                                                                                                                                                                                                                                                           320413-125    000126
1007421061990COBR_CAUC_BIC  BRASIL MAQUINAS E EQUIP PESADOS S/A     013682324000107CS RENTAL LTDA                          RUA QUATA,325                           SAO PAULO                               04546042SP49060000140233635816823L      26082013007PAULISTA            1509201400000000001308500CC                                                                                                                                                                                                                                                                                                                                                                                           320413-126    000127
1007421061990COBR_CAUC_BIC  BRASIL MAQUINAS E EQUIP PESADOS S/A     013682324000107CS RENTAL LTDA                          RUA QUATA,325                           SAO PAULO                               04546042SP49060000150323858917718Q      28022014007PAULISTA            2508201500000000001218095CC                                                                                                                                                                                                                                                                                                                                                                                           320413-127    000128
1007421061990COBR_CAUC_BIC  BRASIL MAQUINAS E EQUIP PESADOS S/A     013682324000107CS RENTAL LTDA                          RUA QUATA,325                           SAO PAULO                               04546042SP49060000160323862716823P      26082013007PAULISTA            1501201500000000001308500CC                                                                                                                                                                                                                                                                                                                                                                                           320413-128    000129
1007421061990COBR_CAUC_BIC  BRASIL MAQUINAS E EQUIP PESADOS S/A     013682324000107CS RENTAL LTDA                          RUA QUATA,325                           SAO PAULO                               04546042SP49060000170240252115399.619K  30092013007PAULISTA            3009201400000000001227091CC                                                                                                                                                                                                                                                                                                                                                                                           320413-129    000130
1007421061990COBR_CAUC_BIC  BRASIL MAQUINAS E EQUIP PESADOS S/A     013682324000107CS RENTAL LTDA                          RUA QUATA,325                           SAO PAULO                               04546042SP49060000180323854617438J      31102013007PAULISTA            2810201400000000000930312CC                                                                                                                                                                                                                                                                                                                                                                                           320413-130    000131
1007421061990COBR_CAUC_BIC  BRASIL MAQUINAS E EQUIP PESADOS S/A     013682324000107CS RENTAL LTDA                          RUA QUATA,325                           SAO PAULO                               04546042SP49060000190323922417438O      31102013007PAULISTA            2803201500000000000930312CC                                                                                                                                                                                                                                                                                                                                                                                           320413-131    000132
1007421061990COBR_CAUC_BIC  BRASIL MAQUINAS E EQUIP PESADOS S/A     013682324000107CS RENTAL LTDA                          RUA QUATA,325                           SAO PAULO                               04546042SP49060000200323870817718L      28022014007PAULISTA            2503201500000000001218095CC                                                                                                                                                                                                                                                                                                                                                                                           320413-132    000133
1007421061990COBR_CAUC_BIC  BRASIL MAQUINAS E EQUIP PESADOS S/A     013682324000107CS RENTAL LTDA                          RUA QUATA,325                           SAO PAULO                               04546042SP49060000210323930517718I      28022014007PAULISTA            2512201400000000001218095CC                                                                                                                                                                                                                                                                                                                                                                                           320413-133    000134
1007421061990COBR_CAUC_BIC  BRASIL MAQUINAS E EQUIP PESADOS S/A     013682324000107CS RENTAL LTDA                          RUA QUATA,325                           SAO PAULO                               04546042SP49060000220323856217718O      28022014007PAULISTA            2506201500000000001218095CC                                                                                                                                                                                                                                                                                                                                                                                           320413-134    000135
1007421061990COBR_CAUC_BIC  BRASIL MAQUINAS E EQUIP PESADOS S/A     013682324000107CS RENTAL LTDA                          RUA QUATA,325                           SAO PAULO                               04546042SP49060000230323860116823N      26082013007PAULISTA            1511201400000000001308500CC                                                                                                                                                                                                                                                                                                                                                                                           320413-135    000136
1007421061990COBR_CAUC_BIC  BRASIL MAQUINAS E EQUIP PESADOS S/A     013682324000107CS RENTAL LTDA                          RUA QUATA,325                           SAO PAULO                               04546042SP49060000240323921617438N      31102013007PAULISTA            2802201500000000000930312CC                                                                                                                                                                                                                                                                                                                                                                                           320413-136    000137
1007421061990COBR_CAUC_BIC  BRASIL MAQUINAS E EQUIP PESADOS S/A     013682324000107CS RENTAL LTDA                          RUA QUATA,325                           SAO PAULO                               04546042SP49060000250323866016823T      26082013007PAULISTA            1505201500000000001308500CC                                                                                                                                                                                                                                                                                                                                                                                           320413-137    000138
1007421061990COBR_CAUC_BIC  BRASIL MAQUINAS E EQUIP PESADOS S/A     013682324000107CS RENTAL LTDA                          RUA QUATA,325                           SAO PAULO                               04546042SP49060000260323925917438R      31102013007PAULISTA            2806201500000000000930312CC                                                                                                                                                                                                                                                                                                                                                                                           320413-138    000139
1007421061990COBR_CAUC_BIC  BRASIL MAQUINAS E EQUIP PESADOS S/A     013682324000107CS RENTAL LTDA                          RUA QUATA,325                           SAO PAULO                               04546042SP49060000270323926717438S      31102013007PAULISTA            2807201500000000000930312CC                                                                                                                                                                                                                                                                                                                                                                                           320413-139    000140
1007421061990COBR_CAUC_BIC  BRASIL MAQUINAS E EQUIP PESADOS S/A     013682324000107CS RENTAL LTDA                          RUA QUATA,325                           SAO PAULO                               04546042SP49060000280323857117718P      28022014007PAULISTA            2507201500000000001218095CC                                                                                                                                                                                                                                                                                                                                                                                           320413-140    000141
1007421061990COBR_CAUC_BIC  BRASIL MAQUINAS E EQUIP PESADOS S/A     013682324000107CS RENTAL LTDA                          RUA QUATA,325                           SAO PAULO                               04546042SP49060000290323865116823S      26082013007PAULISTA            1504201500000000001308500CC                                                                                                                                                                                                                                                                                                                                                                                           320413-141    000142
