0REMESSANOTIFICAÇÃO ELETRONICA        99999999999999Tarraf Administradora de Consórcios LtdaAv. Alberto Andaló                      3942                Vila Redentora                São José do Rio Preto         15015000SPTarraf Administradora de Consórcios Ltda                                        11112013                                                                                                                                                                                                                                                                                                                                                                                                000001
1                                                                                  ADRIANO RAIMUNDO SIQUEIRA               R JERUSALEM RHUL, 65  APTO 102 BL 1     LONDRINA                                86050520PR  289         1070                                           23092013                   GLEBA PALHANO                                                                                                                                                                                                                                                                                                                                                                              268247-1      00000211112013
1                                                                                  ADRIANO RAIMUNDO SIQUEIRA               R JERUSALEM RHUL, 65  APTO 102 BL 1     LONDRINA                                86050520PR  289         1070                                           22102013                   GLEBA PALHANO                                                                                                                                                                                                                                                                                                                                                                              268247-2      00000311112013
1                                                                                  ANTONIO CASTELO TEIXEIRA FILHO          R VINTE E SEIS DE AGOSTO, 1626          CAMPO GRANDE                            79005030MS  013         1074                                           23092013                   AMAMBAI                                                                                                                                                                                                                                                                                                                                                                                    268247-3      00000411112013
1                                                                                  ANTONIO CASTELO TEIXEIRA FILHO          R VINTE E SEIS DE AGOSTO, 1626          CAMPO GRANDE                            79005030MS  013         1074                                           22102013                   AMAMBAI                                                                                                                                                                                                                                                                                                                                                                                    268247-4      00000511112013
1                                                                                  JILSON CHAVES SOUZA                     RUA PROF NINALIA DE IUNA FREIRE BARBOSA, S/N QD 38 LOTE 39JOAO PESSOA                             58000000PB  194         1074                                           23092013                   PORTAL DO SOL                                                                                                                                                                                                                                                                                                                                                                              268247-5      00000611112013
1                                                                                  JILSON CHAVES SOUZA                     RUA PROF NINALIA DE IUNA FREIRE BARBOSA, S/N QD 38 LOTE 39JOAO PESSOA                             58000000PB  194         1074                                           22102013                   PORTAL DO SOL                                                                                                                                                                                                                                                                                                                                                                              268247-6      00000711112013
1                                                                                  FABIANA MOREIRA PEDROSA P CARVALHO      AV BERNARDO VIEIRA DE MELO, 600 APTO 1601JABOATAO DOS GUARARAPES                 54400000PE  027         1075                                           23092013                   PIEDADE                                                                                                                                                                                                                                                                                                                                                                                    268247-7      00000811112013
1                                                                                  FABIANA MOREIRA PEDROSA P CARVALHO      AV BERNARDO VIEIRA DE MELO, 600 APTO 1601JABOATAO DOS GUARARAPES                 54400000PE  027         1075                                           22102013                   PIEDADE                                                                                                                                                                                                                                                                                                                                                                                    268247-8      00000911112013
1                                                                                  ELETRO CABINES PROD SERVICOS LTDA       R WALTER PEREIRA, 875                   LONDRINA                                86072400PR  032         1076                                           20082013                   PR IND CACIQUE                                                                                                                                                                                                                                                                                                                                                                             268247-9      00001011112013
1                                                                                  ELETRO CABINES PROD SERVICOS LTDA       R WALTER PEREIRA, 875                   LONDRINA                                86072400PR  032         1076                                           23092013                   PR IND CACIQUE                                                                                                                                                                                                                                                                                                                                                                             268247-10     00001111112013
1                                                                                  ELETRO CABINES PROD SERVICOS LTDA       R WALTER PEREIRA, 875                   LONDRINA                                86072400PR  032         1076                                           22102013                   PR IND CACIQUE                                                                                                                                                                                                                                                                                                                                                                             268247-11     00001211112013
1                                                                                  DELTA CONSTRUCOES LTDA                  R VINTE E TRES, 14 B QD 21              SAO LUIS                                65072720MA  034         1076                                           23092013                   COHAJAP                                                                                                                                                                                                                                                                                                                                                                                    268247-12     00001311112013
1                                                                                  DELTA CONSTRUCOES LTDA                  R VINTE E TRES, 14 B QD 21              SAO LUIS                                65072720MA  034         1076                                           22102013                   COHAJAP                                                                                                                                                                                                                                                                                                                                                                                    268247-13     00001411112013
1                                                                                  L C RIO PRETO TERRAPLANAGEM LTDA        R MARECHAL DEODORO, 3096 8 ANDAR SALA 83SAO JOSE DO RIO PRETO                   15010070SP  071         1077                                           23092013                   CENTRO                                                                                                                                                                                                                                                                                                                                                                                     268247-14     00001511112013
1                                                                                  L C RIO PRETO TERRAPLANAGEM LTDA        R MARECHAL DEODORO, 3096 8 ANDAR SALA 83SAO JOSE DO RIO PRETO                   15010070SP  071         1077                                           22102013                   CENTRO                                                                                                                                                                                                                                                                                                                                                                                     268247-15     00001611112013
1                                                                                  ELETRO CABINES PROD SERVICOS LTDA       R WALTER PEREIRA, 875                   LONDRINA                                86072400PR  135         1077                                           23092013                   PR IND CACIQUE                                                                                                                                                                                                                                                                                                                                                                             268247-16     00001711112013
1                                                                                  ELETRO CABINES PROD SERVICOS LTDA       R WALTER PEREIRA, 875                   LONDRINA                                86072400PR  135         1077                                           22102013                   PR IND CACIQUE                                                                                                                                                                                                                                                                                                                                                                             268247-17     00001811112013
1                                                                                  EDUARDO FERREIRA CUNHA                  RUA FRANCISCO CRIPA, 3684               MIRASSOL                                15130000SP  162         1078                                           23092013                   REGISSOL                                                                                                                                                                                                                                                                                                                                                                                   268247-18     00001911112013
1                                                                                  EDUARDO FERREIRA CUNHA                  RUA FRANCISCO CRIPA, 3684               MIRASSOL                                15130000SP  162         1078                                           22102013                   REGISSOL                                                                                                                                                                                                                                                                                                                                                                                   268247-19     00002011112013
1                                                                                  LINS SILVA LTDA                         AVENIDA CONTORNO NORTE QD 38, 02        SAO LUIS                                65054740MA  175         1078                                           23092013                   COMATRAC IV                                                                                                                                                                                                                                                                                                                                                                                268247-20     00002111112013
1                                                                                  LINS SILVA LTDA                         AVENIDA CONTORNO NORTE QD 38, 02        SAO LUIS                                65054740MA  175         1078                                           22102013                   COMATRAC IV                                                                                                                                                                                                                                                                                                                                                                                268247-21     00002211112013
1                                                                                  JOAO GONCALVES SOUZA                    RUA MANOEL CARLOS F FERRAZ, 457         ADOLFO                                  15230000SP  086         1079                                           23092013                   JD PRIMAVERA                                                                                                                                                                                                                                                                                                                                                                               268247-22     00002311112013
1                                                                                  JOAO GONCALVES SOUZA                    RUA MANOEL CARLOS F FERRAZ, 457         ADOLFO                                  15230000SP  086         1079                                           22102013                   JD PRIMAVERA                                                                                                                                                                                                                                                                                                                                                                               268247-23     00002411112013
1                                                                                  MDX TRANSPORTES LTDA EPP                ROD BR-135 KM 6,5 SALA 09, S/N          SAO LUIS                                65095602MA  288         1079                                           23092013                   MARACANA                                                                                                                                                                                                                                                                                                                                                                                   268247-24     00002511112013
1                                                                                  MDX TRANSPORTES LTDA EPP                ROD BR-135 KM 6,5 SALA 09, S/N          SAO LUIS                                65095602MA  288         1079                                           22102013                   MARACANA                                                                                                                                                                                                                                                                                                                                                                                   268247-25     00002611112013
1                                                                                  JOICE FERNANDA OLIVEIRA                 RUA SAO SEBASTIAO, 2759                 MIRASSOL                                15130000SP  047         4211                                           23092013                   CENTRO                                                                                                                                                                                                                                                                                                                                                                                     268247-26     00002711112013
1                                                                                  JOICE FERNANDA OLIVEIRA                 RUA SAO SEBASTIAO, 2759                 MIRASSOL                                15130000SP  047         4211                                           22102013                   CENTRO                                                                                                                                                                                                                                                                                                                                                                                     268247-27     00002811112013
1                                                                                  SILVA HONORATO TRANSPORTES LTDA ME      AV TRANSCONTINENTAL, 6664               GIPARANA                                76907296RO  128         4211                                           23092013                   SAO BERNARDO                                                                                                                                                                                                                                                                                                                                                                               268247-28     00002911112013
1                                                                                  SILVA HONORATO TRANSPORTES LTDA ME      AV TRANSCONTINENTAL, 6664               GIPARANA                                76907296RO  128         4211                                           22102013                   SAO BERNARDO                                                                                                                                                                                                                                                                                                                                                                               268247-29     00003011112013
1                                                                                  GUILHERME CAMARGO ANDRADE               RUA LEONEL ROMANO DA SILVA, 233         FARTURA                                 18870000SP  378         4211                                           23092013                   JARDIM PARAISO                                                                                                                                                                                                                                                                                                                                                                             268247-30     00003111112013
1                                                                                  GUILHERME CAMARGO ANDRADE               RUA LEONEL ROMANO DA SILVA, 233         FARTURA                                 18870000SP  378         4211                                           22102013                   JARDIM PARAISO                                                                                                                                                                                                                                                                                                                                                                             268247-31     00003211112013
1                                                                                  FLAVIO ALVES GODOY                      RUA JOAO FURLAN, 419                    URUPES                                  15850000SP  227         4212                                           23092013                   BOA VISTA                                                                                                                                                                                                                                                                                                                                                                                  268247-32     00003311112013
1                                                                                  FLAVIO ALVES GODOY                      RUA JOAO FURLAN, 419                    URUPES                                  15850000SP  227         4212                                           22102013                   BOA VISTA                                                                                                                                                                                                                                                                                                                                                                                  268247-33     00003411112013
1                                                                                  EDUARDO SANTOS CORREIA                  R MIGUEL ANDREO, 2265                   VOTUPORANGA                             15501453SP  342         4213                                           23092013                   JARDIM DAS PALMEIRAS I                                                                                                                                                                                                                                                                                                                                                                     268247-34     00003511112013
1                                                                                  EDUARDO SANTOS CORREIA                  R MIGUEL ANDREO, 2265                   VOTUPORANGA                             15501453SP  342         4213                                           22102013                   JARDIM DAS PALMEIRAS I                                                                                                                                                                                                                                                                                                                                                                     268247-35     00003611112013
1                                                                                  ANTONIO ASCENCAO FERREIRA               RUA SANTA TEREZA, 110                   BARAO DE COCAIS                         35970000MG  415         4213                                           23092013                   SAO BENEDITO                                                                                                                                                                                                                                                                                                                                                                               268247-36     00003711112013
1                                                                                  ANTONIO ASCENCAO FERREIRA               RUA SANTA TEREZA, 110                   BARAO DE COCAIS                         35970000MG  415         4213                                           22102013                   SAO BENEDITO                                                                                                                                                                                                                                                                                                                                                                               268247-37     00003811112013
1                                                                                  RENATO GONCALVES BRITO                  R GERALDO ZIRONDI, 689                  CATANDUVA                               15802285SP  127         4214                                           23092013                   JARDIM RESIDENCIAL DIOLFE                                                                                                                                                                                                                                                                                                                                                                  268247-38     00003911112013
1                                                                                  RENATO GONCALVES BRITO                  R GERALDO ZIRONDI, 689                  CATANDUVA                               15802285SP  127         4214                                           22102013                   JARDIM RESIDENCIAL DIOLFE                                                                                                                                                                                                                                                                                                                                                                  268247-39     00004011112013
1                                                                                  AMANDA CRISTIANE LEITE SOUZA            AV CAMPINA VERDE, 555                   ITURAMA                                 38280000MG  224         4214                                           23092013                   CENTRO                                                                                                                                                                                                                                                                                                                                                                                     268247-40     00004111112013
1                                                                                  AMANDA CRISTIANE LEITE SOUZA            AV CAMPINA VERDE, 555                   ITURAMA                                 38280000MG  224         4214                                           22102013                   CENTRO                                                                                                                                                                                                                                                                                                                                                                                     268247-41     00004211112013
1                                                                                  ADRIANO BATISTA SILVA                   RUA CARLOS ANTUNES MAMED, 180           FRONTEIRA                               38230000MG  259         4214                                           23092013                   COHAB 1                                                                                                                                                                                                                                                                                                                                                                                    268247-42     00004311112013
1                                                                                  ADRIANO BATISTA SILVA                   RUA CARLOS ANTUNES MAMED, 180           FRONTEIRA                               38230000MG  259         4214                                           22102013                   COHAB 1                                                                                                                                                                                                                                                                                                                                                                                    268247-43     00004411112013
1                                                                                  KELLY BARBOSA BRITO                     R JUSTINO PEREIRA DOS SANTOS, 220       BURITAMA                                15290000SP  281         4214                                           23092013                   COHAB 5                                                                                                                                                                                                                                                                                                                                                                                    268247-44     00004511112013
1                                                                                  KELLY BARBOSA BRITO                     R JUSTINO PEREIRA DOS SANTOS, 220       BURITAMA                                15290000SP  281         4214                                           22102013                   COHAB 5                                                                                                                                                                                                                                                                                                                                                                                    268247-45     00004611112013
1                                                                                  EDERSON LEITE FERREIRA                  RUA TIMBORE, 366                        CARDOSO                                 15570000SP  063         4215                                           23092013                   VILA NOVA                                                                                                                                                                                                                                                                                                                                                                                  268247-46     00004711112013
1                                                                                  EDERSON LEITE FERREIRA                  RUA TIMBORE, 366                        CARDOSO                                 15570000SP  063         4215                                           22102013                   VILA NOVA                                                                                                                                                                                                                                                                                                                                                                                  268247-47     00004811112013
1                                                                                  CRISTIANO SANTOS                        RUA ALAMEDA FRANCA, 10                  COROADOS                                16260000SP  277         4215                                           23092013                   RES GRANVILLE                                                                                                                                                                                                                                                                                                                                                                              268247-48     00004911112013
1                                                                                  CRISTIANO SANTOS                        RUA ALAMEDA FRANCA, 10                  COROADOS                                16260000SP  277         4215                                           22102013                   RES GRANVILLE                                                                                                                                                                                                                                                                                                                                                                              268247-49     00005011112013
1                                                                                  MARCIA REGINA OLIVEIRA                  RUA ENCARNAÇÃO MORENO VERSUTINI, 50     TANABI                                  15170000SP  460         4215                                           23092013                   JD CENTENARIO                                                                                                                                                                                                                                                                                                                                                                              268247-50     00005111112013
1                                                                                  MARCIA REGINA OLIVEIRA                  RUA ENCARNAÇÃO MORENO VERSUTINI, 50     TANABI                                  15170000SP  460         4215                                           22102013                   JD CENTENARIO                                                                                                                                                                                                                                                                                                                                                                              268247-51     00005211112013
1                                                                                  HELIO GABRIEL SILVA                     RUA PROF APARECIDA SIGNORELLI, 251 FUNDOSFRUTAL                                  38200000MG  073         4217                                           23092013                   JD DAS LAARNJEIRAS                                                                                                                                                                                                                                                                                                                                                                         268247-52     00005311112013
1                                                                                  HELIO GABRIEL SILVA                     RUA PROF APARECIDA SIGNORELLI, 251 FUNDOSFRUTAL                                  38200000MG  073         4217                                           22102013                   JD DAS LAARNJEIRAS                                                                                                                                                                                                                                                                                                                                                                         268247-53     00005411112013
1                                                                                  ADRIANO BATISTA SILVA                   RUA CARLOS ANTUNES MAMED, 180           FRONTEIRA                               38230000MG  129         4217                                           23092013                   COHAB 1                                                                                                                                                                                                                                                                                                                                                                                    268247-54     00005511112013
1                                                                                  ADRIANO BATISTA SILVA                   RUA CARLOS ANTUNES MAMED, 180           FRONTEIRA                               38230000MG  129         4217                                           22102013                   COHAB 1                                                                                                                                                                                                                                                                                                                                                                                    268247-55     00005611112013
1                                                                                  MAURO ANDRE PEREIRA FERRAREZI           RUA FLORIDA, 136                        BIRIGUI                                 16200796SP  195         4217                                           23092013                   SANTO ANTONIO                                                                                                                                                                                                                                                                                                                                                                              268247-56     00005711112013
1                                                                                  MAURO ANDRE PEREIRA FERRAREZI           RUA FLORIDA, 136                        BIRIGUI                                 16200796SP  195         4217                                           22102013                   SANTO ANTONIO                                                                                                                                                                                                                                                                                                                                                                              268247-57     00005811112013
1                                                                                  LUCAS FERRO SABIONI                     AVENIDA RIO GRANDE, 1028                PROMISSAO                               16370000SP  243         4217                                           23092013                   CENTRO                                                                                                                                                                                                                                                                                                                                                                                     268247-58     00005911112013
1                                                                                  LUCAS FERRO SABIONI                     AVENIDA RIO GRANDE, 1028                PROMISSAO                               16370000SP  243         4217                                           22102013                   CENTRO                                                                                                                                                                                                                                                                                                                                                                                     268247-59     00006011112013
1                                                                                  VANISLEY BESSA VIEIRA                   RUA PAES LEME, 340                      FRUTAL                                  38200000MG  251         4217                                           23092013                   XV NOVEMBRO                                                                                                                                                                                                                                                                                                                                                                                268247-60     00006111112013
1                                                                                  VANISLEY BESSA VIEIRA                   RUA PAES LEME, 340                      FRUTAL                                  38200000MG  251         4217                                           22102013                   XV NOVEMBRO                                                                                                                                                                                                                                                                                                                                                                                268247-61     00006211112013
1                                                                                  MARIA APARECIDA DAMETO PERES            R Sitio Duas Barras,CX Postal 114, cx114 CX POSTAL 114BIRIGUI                                 16200970SP  353         4217                                           23092013                   DUAS BARRAS                                                                                                                                                                                                                                                                                                                                                                                268247-62     00006311112013
1                                                                                  MARIA APARECIDA DAMETO PERES            R Sitio Duas Barras,CX Postal 114, cx114 CX POSTAL 114BIRIGUI                                 16200970SP  353         4217                                           22102013                   DUAS BARRAS                                                                                                                                                                                                                                                                                                                                                                                268247-63     00006411112013
1                                                                                  ROGERIO FEROLDI BRASILEIRO              RUA PRESCILIANO PINTO DE ALMEIDA, 568   BURITAMA                                15290000SP  368         4217                                           23092013                   CENTRO                                                                                                                                                                                                                                                                                                                                                                                     268247-64     00006511112013
1                                                                                  ROGERIO FEROLDI BRASILEIRO              RUA PRESCILIANO PINTO DE ALMEIDA, 568   BURITAMA                                15290000SP  368         4217                                           22102013                   CENTRO                                                                                                                                                                                                                                                                                                                                                                                     268247-65     00006611112013
1                                                                                  DIELI EUDOXIO DIAS                      R DONATTO PERROTTI, 72                  BIRIGUI                                 16202103SP  412         4217                                           23092013                   RECANTO VERDE                                                                                                                                                                                                                                                                                                                                                                              268247-66     00006711112013
1                                                                                  DIELI EUDOXIO DIAS                      R DONATTO PERROTTI, 72                  BIRIGUI                                 16202103SP  412         4217                                           22102013                   RECANTO VERDE                                                                                                                                                                                                                                                                                                                                                                              268247-67     00006811112013
1                                                                                  MARCOS ROBERTO REIS                     RUA JOSE CASTILHO SOBRINHO, 829         GLICERIO                                16270000SP  417         4217                                           23092013                   CENTRO                                                                                                                                                                                                                                                                                                                                                                                     268247-68     00006911112013
1                                                                                  MARCOS ROBERTO REIS                     RUA JOSE CASTILHO SOBRINHO, 829         GLICERIO                                16270000SP  417         4217                                           22102013                   CENTRO                                                                                                                                                                                                                                                                                                                                                                                     268247-69     00007011112013
1                                                                                  GILBERTO MORA                           RUA 16, 2551                            JALES                                   15700000SP  146         4222                                           23092013                   CENTRO                                                                                                                                                                                                                                                                                                                                                                                     268247-70     00007111112013
1                                                                                  GILBERTO MORA                           RUA 16, 2551                            JALES                                   15700000SP  146         4222                                           22102013                   CENTRO                                                                                                                                                                                                                                                                                                                                                                                     268247-71     00007211112013
1                                                                                  FERNANDO LUIZ CASSALHO                  RUA RUBIAO JUNIOR, 1522                 BURITAMA                                15290000SP  152         4222                                           23092013                   ALVORADA                                                                                                                                                                                                                                                                                                                                                                                   268247-72     00007311112013
1                                                                                  FERNANDO LUIZ CASSALHO                  RUA RUBIAO JUNIOR, 1522                 BURITAMA                                15290000SP  152         4222                                           22102013                   ALVORADA                                                                                                                                                                                                                                                                                                                                                                                   268247-73     00007411112013
1                                                                                  ADRIANO BATISTA SILVA                   RUA CARLOS ANTUNES MAMED, 180           FRONTEIRA                               38230000MG  173         4222                                           23092013                   COHAB 1                                                                                                                                                                                                                                                                                                                                                                                    268247-74     00007511112013
1                                                                                  ADRIANO BATISTA SILVA                   RUA CARLOS ANTUNES MAMED, 180           FRONTEIRA                               38230000MG  173         4222                                           22102013                   COHAB 1                                                                                                                                                                                                                                                                                                                                                                                    268247-75     00007611112013
1                                                                                  MAURO ANDRE PEREIRA FERRAREZI           RUA FLORIDA, 136                        BIRIGUI                                 16200796SP  189         4222                                           23092013                   SANTO ANTONIO                                                                                                                                                                                                                                                                                                                                                                              268247-76     00007711112013
1                                                                                  MAURO ANDRE PEREIRA FERRAREZI           RUA FLORIDA, 136                        BIRIGUI                                 16200796SP  189         4222                                           22102013                   SANTO ANTONIO                                                                                                                                                                                                                                                                                                                                                                              268247-77     00007811112013
1                                                                                  CAMILA FERNANDA SANCHES ALVES           R PROFESSORA MARINHA DO NASCIMENTO BE, 1815SAO JOSE DO RIO PRETO                   15081020SP  245         4222                                           23092013                   RESIDENCIAL CIDADE JARDIM                                                                                                                                                                                                                                                                                                                                                                  268247-78     00007911112013
1                                                                                  CAMILA FERNANDA SANCHES ALVES           R PROFESSORA MARINHA DO NASCIMENTO BE, 1815SAO JOSE DO RIO PRETO                   15081020SP  245         4222                                           22102013                   RESIDENCIAL CIDADE JARDIM                                                                                                                                                                                                                                                                                                                                                                  268247-79     00008011112013
1                                                                                  LINDALVA MARIA QUEIROZ                  RUA OSORIO HILARIO PONTES, 760 FUNDOS   BIRIGUI                                 16204377SP  474         4222                                           23092013                   TOSELAR                                                                                                                                                                                                                                                                                                                                                                                    268247-80     00008111112013
1                                                                                  LINDALVA MARIA QUEIROZ                  RUA OSORIO HILARIO PONTES, 760 FUNDOS   BIRIGUI                                 16204377SP  474         4222                                           22102013                   TOSELAR                                                                                                                                                                                                                                                                                                                                                                                    268247-81     00008211112013
1                                                                                  LIDER BICICLETAS FERNANDOPOLIS LTDA     R PERNAMBUCO, 1681                      FERNANDOPOLIS                           15600000SP  043         4223                                           23092013                   VILA APARECIDA                                                                                                                                                                                                                                                                                                                                                                             268247-82     00008311112013
1                                                                                  LIDER BICICLETAS FERNANDOPOLIS LTDA     R PERNAMBUCO, 1681                      FERNANDOPOLIS                           15600000SP  043         4223                                           22102013                   VILA APARECIDA                                                                                                                                                                                                                                                                                                                                                                             268247-83     00008411112013
1                                                                                  LIDER BICICLETAS FERNANDOPOLIS LTDA     R PERNAMBUCO, 1681                      FERNANDOPOLIS                           15600000SP  016         4225                                           23092013                   VILA APARECIDA                                                                                                                                                                                                                                                                                                                                                                             268247-84     00008511112013
1                                                                                  LIDER BICICLETAS FERNANDOPOLIS LTDA     R PERNAMBUCO, 1681                      FERNANDOPOLIS                           15600000SP  016         4225                                           22102013                   VILA APARECIDA                                                                                                                                                                                                                                                                                                                                                                             268247-85     00008611112013
1                                                                                  LIDER BICICLETAS FERNANDOPOLIS LTDA     R PERNAMBUCO, 1681                      FERNANDOPOLIS                           15600000SP  017         4225                                           23092013                   VILA APARECIDA                                                                                                                                                                                                                                                                                                                                                                             268247-86     00008711112013
1                                                                                  LIDER BICICLETAS FERNANDOPOLIS LTDA     R PERNAMBUCO, 1681                      FERNANDOPOLIS                           15600000SP  017         4225                                           22102013                   VILA APARECIDA                                                                                                                                                                                                                                                                                                                                                                             268247-87     00008811112013
1                                                                                  FLAVIA BATISTA NASCIMENTO               AV DOS BANDEIRANTES, 1809               OUROESTE                                15685000SP  022         4226                                           23092013                   CENTRO                                                                                                                                                                                                                                                                                                                                                                                     268247-88     00008911112013
1                                                                                  FLAVIA BATISTA NASCIMENTO               AV DOS BANDEIRANTES, 1809               OUROESTE                                15685000SP  022         4226                                           22102013                   CENTRO                                                                                                                                                                                                                                                                                                                                                                                     268247-89     00009011112013
1                                                                                  EDISON OLIVEIRA SOUZA JUNIOR            AV JOSE FRANCISCO DOS SANTOS, 41        FERNANDOPOLIS                           15600000SP  037         4226                                           23092013                   BRASILANDIA                                                                                                                                                                                                                                                                                                                                                                                268247-90     00009111112013
1                                                                                  EDISON OLIVEIRA SOUZA JUNIOR            AV JOSE FRANCISCO DOS SANTOS, 41        FERNANDOPOLIS                           15600000SP  037         4226                                           22102013                   BRASILANDIA                                                                                                                                                                                                                                                                                                                                                                                268247-91     00009211112013
1                                                                                  EDISON OLIVEIRA SOUZA JUNIOR            AV JOSE FRANCISCO DOS SANTOS, 41        FERNANDOPOLIS                           15600000SP  038         4226                                           23092013                   BRASILANDIA                                                                                                                                                                                                                                                                                                                                                                                268247-92     00009311112013
1                                                                                  EDISON OLIVEIRA SOUZA JUNIOR            AV JOSE FRANCISCO DOS SANTOS, 41        FERNANDOPOLIS                           15600000SP  038         4226                                           22102013                   BRASILANDIA                                                                                                                                                                                                                                                                                                                                                                                268247-93     00009411112013
1                                                                                  MANOEL FRANCISCO SILVA                  R LAFAYETTE JOSE SPINOLA (ZUZA), 2227   SAO JOSE DO RIO PRETO                   15081130SP  083         4226                                           23092013                   RESIDENCIAL CIDADE JARDIM                                                                                                                                                                                                                                                                                                                                                                  268247-94     00009511112013
1                                                                                  MANOEL FRANCISCO SILVA                  R LAFAYETTE JOSE SPINOLA (ZUZA), 2227   SAO JOSE DO RIO PRETO                   15081130SP  083         4226                                           22102013                   RESIDENCIAL CIDADE JARDIM                                                                                                                                                                                                                                                                                                                                                                  268247-95     00009611112013
1                                                                                  MANOEL FRANCISCO SILVA                  R LAFAYETTE JOSE SPINOLA (ZUZA), 2227   SAO JOSE DO RIO PRETO                   15081130SP  100         4226                                           23092013                   RESIDENCIAL CIDADE JARDIM                                                                                                                                                                                                                                                                                                                                                                  268247-96     00009711112013
1                                                                                  MANOEL FRANCISCO SILVA                  R LAFAYETTE JOSE SPINOLA (ZUZA), 2227   SAO JOSE DO RIO PRETO                   15081130SP  100         4226                                           22102013                   RESIDENCIAL CIDADE JARDIM                                                                                                                                                                                                                                                                                                                                                                  268247-97     00009811112013
1                                                                                  LIDER BICICLETAS FERNANDOPOLIS LTDA     R PERNAMBUCO, 1681                      FERNANDOPOLIS                           15600000SP  106         4227                                           23092013                   VILA APARECIDA                                                                                                                                                                                                                                                                                                                                                                             268247-98     00009911112013
1                                                                                  LIDER BICICLETAS FERNANDOPOLIS LTDA     R PERNAMBUCO, 1681                      FERNANDOPOLIS                           15600000SP  106         4227                                           22102013                   VILA APARECIDA                                                                                                                                                                                                                                                                                                                                                                             268247-99     00010011112013
1                                                                                  LIDER BICICLETAS FERNANDOPOLIS LTDA     R PERNAMBUCO, 1681                      FERNANDOPOLIS                           15600000SP  107         4227                                           23092013                   VILA APARECIDA                                                                                                                                                                                                                                                                                                                                                                             268247-100    00010111112013
1                                                                                  LIDER BICICLETAS FERNANDOPOLIS LTDA     R PERNAMBUCO, 1681                      FERNANDOPOLIS                           15600000SP  107         4227                                           22102013                   VILA APARECIDA                                                                                                                                                                                                                                                                                                                                                                             268247-101    00010211112013
1                                                                                  EDSON JESUS MORETI                      R JOAO CRUZ OLIVERA, 2604               VOTUPORANGA                             15505005SP  010         4228                                           23092013                   JARDIM BOM CLIMA                                                                                                                                                                                                                                                                                                                                                                           268247-102    00010311112013
1                                                                                  EDSON JESUS MORETI                      R JOAO CRUZ OLIVERA, 2604               VOTUPORANGA                             15505005SP  010         4228                                           22102013                   JARDIM BOM CLIMA                                                                                                                                                                                                                                                                                                                                                                           268247-103    00010411112013
1                                                                                  CRISTINA AYDAR ARANTES                  R DOMINGOS FURINI, 3  QD 14 B           INDIAPORA                               15690000SP  117         4228                                           23092013                   CENTRO                                                                                                                                                                                                                                                                                                                                                                                     268247-104    00010511112013
1                                                                                  CRISTINA AYDAR ARANTES                  R DOMINGOS FURINI, 3  QD 14 B           INDIAPORA                               15690000SP  117         4228                                           22102013                   CENTRO                                                                                                                                                                                                                                                                                                                                                                                     268247-105    00010611112013
1                                                                                  LIDER BICICLETAS FERNANDOPOLIS LTDA     R PERNAMBUCO, 1681                      FERNANDOPOLIS                           15600000SP  150         4228                                           23092013                   VILA APARECIDA                                                                                                                                                                                                                                                                                                                                                                             268247-106    00010711112013
1                                                                                  LIDER BICICLETAS FERNANDOPOLIS LTDA     R PERNAMBUCO, 1681                      FERNANDOPOLIS                           15600000SP  150         4228                                           22102013                   VILA APARECIDA                                                                                                                                                                                                                                                                                                                                                                             268247-107    00010811112013
1                                                                                  ELAINE REGINA AMARAL                    R SEBASTIAO DE LIMA BRAGA, 3524         VOTUPORANGA                             15503045SP  008         4229                                           23092013                   COLINAS                                                                                                                                                                                                                                                                                                                                                                                    268247-108    00010911112013
1                                                                                  ELAINE REGINA AMARAL                    R SEBASTIAO DE LIMA BRAGA, 3524         VOTUPORANGA                             15503045SP  008         4229                                           22102013                   COLINAS                                                                                                                                                                                                                                                                                                                                                                                    268247-109    00011011112013
1                                                                                  A RODRIGUES TRANSPORTES LTDA ME         R TRES FRONTEIRAS, 3281                 SAO JOSE DO RIO PRETO                   15043070SP  014         4229                                           23092013                   ELDORADO                                                                                                                                                                                                                                                                                                                                                                                   268247-110    00011111112013
1                                                                                  A RODRIGUES TRANSPORTES LTDA ME         R TRES FRONTEIRAS, 3281                 SAO JOSE DO RIO PRETO                   15043070SP  014         4229                                           22102013                   ELDORADO                                                                                                                                                                                                                                                                                                                                                                                   268247-111    00011211112013
1                                                                                  IVONE FALAVINHA RIBEIRO                 R LEANDRO TEIXEIRA MACHADO, 225         BIRIGUI                                 16202057SP  065         4229                                           23092013                   JARDIM SAO BRAZ                                                                                                                                                                                                                                                                                                                                                                            268247-112    00011311112013
1                                                                                  IVONE FALAVINHA RIBEIRO                 R LEANDRO TEIXEIRA MACHADO, 225         BIRIGUI                                 16202057SP  065         4229                                           22102013                   JARDIM SAO BRAZ                                                                                                                                                                                                                                                                                                                                                                            268247-113    00011411112013
1                                                                                  LUCAS CABRAL SOUZA                      AV CATARINA MARTINS LOPES, 6133         VOTUPORANGA                             15505050SP  104         4229                                           23092013                   BOM CLIMA                                                                                                                                                                                                                                                                                                                                                                                  268247-114    00011511112013
1                                                                                  LUCAS CABRAL SOUZA                      AV CATARINA MARTINS LOPES, 6133         VOTUPORANGA                             15505050SP  104         4229                                           22102013                   BOM CLIMA                                                                                                                                                                                                                                                                                                                                                                                  268247-115    00011611112013
1                                                                                  ANDERSON SOUZA BRAGHIN                  RUA FIORENTINA BABETO CAPUANO, 217      BIRIGUI                                 16200000SP  125         4229                                           23092013                   JD DO TREVO                                                                                                                                                                                                                                                                                                                                                                                268247-116    00011711112013
1                                                                                  ANDERSON SOUZA BRAGHIN                  RUA FIORENTINA BABETO CAPUANO, 217      BIRIGUI                                 16200000SP  125         4229                                           22102013                   JD DO TREVO                                                                                                                                                                                                                                                                                                                                                                                268247-117    00011811112013
1                                                                                  ANDERSON SOUZA BRAGHIN                  RUA FIORENTINA BABETO CAPUANO, 217      BIRIGUI                                 16200000SP  126         4229                                           23092013                   JD DO TREVO                                                                                                                                                                                                                                                                                                                                                                                268247-118    00011911112013
1                                                                                  ANDERSON SOUZA BRAGHIN                  RUA FIORENTINA BABETO CAPUANO, 217      BIRIGUI                                 16200000SP  126         4229                                           22102013                   JD DO TREVO                                                                                                                                                                                                                                                                                                                                                                                268247-119    00012011112013
1                                                                                  SIDNEI JOSE SILVA                       RUA MATHEUS JOSE GUERRA, 96             SAO JOSE DO RIO PRETO                   15015553SP  152         4229                                           23092013                   GARCIA II                                                                                                                                                                                                                                                                                                                                                                                  268247-120    00012111112013
1                                                                                  SIDNEI JOSE SILVA                       RUA MATHEUS JOSE GUERRA, 96             SAO JOSE DO RIO PRETO                   15015553SP  152         4229                                           22102013                   GARCIA II                                                                                                                                                                                                                                                                                                                                                                                  268247-121    00012211112013
1                                                                                  REGINA CELIA SANTOS NERIS               RUA DAS HORTENCIAS, 202                 GLICERIO                                16270000SP  209         4230                                           23092013                   CENTRO                                                                                                                                                                                                                                                                                                                                                                                     268247-122    00012311112013
1                                                                                  REGINA CELIA SANTOS NERIS               RUA DAS HORTENCIAS, 202                 GLICERIO                                16270000SP  209         4230                                           22102013                   CENTRO                                                                                                                                                                                                                                                                                                                                                                                     268247-123    00012411112013
1                                                                                  LEANDRO MARTINS SANTOS                  AV NOVE, 1110                           RIOLANDIA                               15495000SP  342         4230                                           23092013                   CENTRO                                                                                                                                                                                                                                                                                                                                                                                     268247-124    00012511112013
1                                                                                  LEANDRO MARTINS SANTOS                  AV NOVE, 1110                           RIOLANDIA                               15495000SP  342         4230                                           22102013                   CENTRO                                                                                                                                                                                                                                                                                                                                                                                     268247-125    00012611112013
1                                                                                  IRACEMA RITA COSTA                      RUA HUGO CANEVARI, 5248                 PEREIRA BARRETO                         15370000SP  372         4230                                           23092013                   COLINAS TIETE                                                                                                                                                                                                                                                                                                                                                                              268247-126    00012711112013
1                                                                                  IRACEMA RITA COSTA                      RUA HUGO CANEVARI, 5248                 PEREIRA BARRETO                         15370000SP  372         4230                                           22102013                   COLINAS TIETE                                                                                                                                                                                                                                                                                                                                                                              268247-127    00012811112013
1                                                                                  MATHEUS HENRIQUE DAVID                  RUA OLIMPIO JOSE DA SILVA, 85           PINDORAMA                               15830000SP  486         4230                                           23092013                   RESID GEOVANA                                                                                                                                                                                                                                                                                                                                                                              268247-128    00012911112013
1                                                                                  MATHEUS HENRIQUE DAVID                  RUA OLIMPIO JOSE DA SILVA, 85           PINDORAMA                               15830000SP  486         4230                                           22102013                   RESID GEOVANA                                                                                                                                                                                                                                                                                                                                                                              268247-129    00013011112013
1                                                                                  LEANDRO MARTINS BARBOSA                 R ANTONIO BELCHIOR DA SILVEIRA, 375     NHANDEARA                               15190000SP  017         4231                                           23092013                   CENTRO                                                                                                                                                                                                                                                                                                                                                                                     268247-130    00013111112013
1                                                                                  LEANDRO MARTINS BARBOSA                 R ANTONIO BELCHIOR DA SILVEIRA, 375     NHANDEARA                               15190000SP  017         4231                                           22102013                   CENTRO                                                                                                                                                                                                                                                                                                                                                                                     268247-131    00013211112013
1                                                                                  LEANDRO MARTINS BARBOSA                 R ANTONIO BELCHIOR DA SILVEIRA, 375     NHANDEARA                               15190000SP  018         4231                                           23092013                   CENTRO                                                                                                                                                                                                                                                                                                                                                                                     268247-132    00013311112013
1                                                                                  LEANDRO MARTINS BARBOSA                 R ANTONIO BELCHIOR DA SILVEIRA, 375     NHANDEARA                               15190000SP  018         4231                                           22102013                   CENTRO                                                                                                                                                                                                                                                                                                                                                                                     268247-133    00013411112013
1                                                                                  JOSE CARLOS RODRIGUES CRUZ              RUA ANTONIO DA CRUZ, 575                PEDRANOPOLIS                            15630000SP  084         4231                                           23092013                   CENTRO                                                                                                                                                                                                                                                                                                                                                                                     268247-134    00013511112013
1                                                                                  JOSE CARLOS RODRIGUES CRUZ              RUA ANTONIO DA CRUZ, 575                PEDRANOPOLIS                            15630000SP  084         4231                                           22102013                   CENTRO                                                                                                                                                                                                                                                                                                                                                                                     268247-135    00013611112013
1                                                                                  ALVARO ANGELO SCATENA                   AV DOS PIONEIROS, CASA 16, 580          SUMARE                                  13175668SP  111         4231                                           23092013                   COND. ANGELICAS                                                                                                                                                                                                                                                                                                                                                                            268247-136    00013711112013
1                                                                                  ALVARO ANGELO SCATENA                   AV DOS PIONEIROS, CASA 16, 580          SUMARE                                  13175668SP  111         4231                                           22102013                   COND. ANGELICAS                                                                                                                                                                                                                                                                                                                                                                            268247-137    00013811112013
1                                                                                  ALVARO ANGELO SCATENA                   AV DOS PIONEIROS, CASA 16, 580          SUMARE                                  13175668SP  112         4231                                           23092013                   COND. ANGELICAS                                                                                                                                                                                                                                                                                                                                                                            268247-138    00013911112013
1                                                                                  ALVARO ANGELO SCATENA                   AV DOS PIONEIROS, CASA 16, 580          SUMARE                                  13175668SP  112         4231                                           22102013                   COND. ANGELICAS                                                                                                                                                                                                                                                                                                                                                                            268247-139    00014011112013
