0REMESSANOTIFICAÇÃO ELETRONICA        99999999999999Bicbanco S/A                            Avenida Brigadeiro Faria Lima           4.440     2º andar  Itaim Bibi                    São Paulo                     04538132SPBicbanco S/A                                                                    01082013                                                                                                                                                                                                                                                                                                                                                                                                000001
1028421001518COBR_CAUC_COR  GAIA AGRIBUSINESS AGRICOLA LTDA         000002322134104RAFAEL LOPES MAGNOS                     RUA 213,117                             MORRINHOS                               75650000GO42928000010290475135785       05032013800UNIBANCO S/A        2509201300000000011989263CC                                                                                                                                                                                                                                                                                                                                                                                           249161-1      000002
1028421001518COBR_CAUC_COR  GAIA AGRIBUSINESS AGRICOLA LTDA         000094733961120FABIO DANTAS DA COSTA                   RUA RIO GRANDE DO SUL,546               GOIATUBA                                75600000GO42930000010290477839133       05072013900BRADESCO S/A        2512201300000000012000000CC                                                                                                                                                                                                                                                                                                                                                                                           249161-2      000003
1028421001518COBR_CAUC_COR  GAIA AGRIBUSINESS AGRICOLA LTDA         000082255210134CRISTIANO LOPES ARANTES                 RUA URUGUAI,85                          ITUMBIARA                               75503970GO42929000010290476039134       05072013800UNIBANCO S/A        3012201300000000012000000CC                                                                                                                                                                                                                                                                                                                                                                                           249161-3      000004
1013421019571DIR_CREDIT     JPNOR ENGENHARIA LTDA                   001202799000242RIO POLIMEROS S.A.                      RUA MARUMBI, 1001-CAMPOS ELISEOS        DUQUE DE CAXIAS                         25070235RJ4293700001                                                                                                                                          012296564           10022010000001985910108       05072013000404Elaboração de projetos conceituais, de engenharia básica, de detalha-mento de projeto, de automação, estudos técnicos e estudos de viabilidade.                                                                                                 001531864000100249161-4      000005
1007421059872DIR_CREDIT     LP ADMINISTRADORA DE BENS LTDA          053558342000198ANIS RAZUK IND E COM LTDA               R.MINISTRO FIRMINO WHITAKER,63 - BRáS   SãO PAULOS                              03012020SP4292200001                                                                                                                                          012015808           280320120000022768            08102012000403locação de imovel situado em CAJAMAR/SP - Galpão 13 sito a Rodovia Edgar Máximo Zambotto, Setor dos Paes - Parte - 2 - Gleba 2.                                                                                                                 006193516000186249161-5      000006
1044421012350DIR_CREDIT     PAPI PRONTO SOCORRO                     008380701000105UNIMED NATAL                            RUA MIPIBU, 511 - PETRÓPOLIS            NATAL                                   59020250RN4291100001                                                                                                                                          012291280           260320080000005352001         04072013000404ATENDIMENTO MEDICO/AMBULATORIAL DOS CONVENIADOS A UNIMED/NATAL.                                                                                                                                                                                 008423220000130249161-6      000007
1046421001443COBR_CAUC_COR  COSTAO DO SANTINHO TUR E LAZER LTDA     002932074000604HYPERMARCAS S/A                         AV. PRESIDENTE KUBITSCHECK,1830         SAO PAULO                               04543900SP42959000010001107308072013    08072013900BRADESCO S/A        2607201300000000025000000CC                                                                                                                                                                                                                                                                                                                                                                                           249164-1      000008
1008421022487COBR_CAUC_COR  EBP - EMPRESA BRASILEIRA DE PESCADO     033304981000110SUPERMERCADOS MUNDIAL LTDA              RUADONA EMILIA, 2                       RIO DE JANEIRO                          20765110RJ4296100001016275300019837/    27062013900BRADESCO S/A        1707201300000000031050000CC                                                                                                                                                                                                                                                                                                                                                                                           249164-2      000009
1016421008591COBR_CAUC_BIC  GLOBOAVES SAO PAULO AGROAVICOLA LTD     083044016000980TYSON DO BRASIL ALIMENTOS LTDA          ROD BR 487 ESTR BOIADEIRA KM 185,0      CAMPO MOURAO                            87305380PR429600000104066691094513      04072013016CURITIBA            0108201300000000010963000CC                                                                                                                                                                                                                                                                                                                                                                                           249164-3      000010
1028421002921COBR_CAUC_COR  MATABOI ALIMENTOS S/A - EM REC.JUD.     016559614000148SOBERANO INDUSTRIA E COMERCIO DE A      RUA MANUEL DUARTE167GALPAO PARTE G      SAO GONCALO                             24430500RJ4295400001003850480010504001  05072013900BRADESCO S/A        0208201300000000015549548CC                                                                                                                                                                                                                                                                                                                                                                                           249164-4      000011
1029421018494COBR_CAUC_BIC  PRO SALUTE SERVICOS PARA SAUDE LTDA     088611264000122INTRAL S A IND DE MATERIAIS ELETRI      TRAV. RIO GRANDE , 130                  CAXIAS DO SUL                           95098750RS4295600001099866240133693.A   03072013029CAXIAS DO SUL       1008201300000000010148249CC                                                                                                                                                                                                                                                                                                                                                                                           249164-5      000012
1029421018494COBR_CAUC_BIC  PRO SALUTE SERVICOS PARA SAUDE LTDA     093785822000106SAN MARINO ONIBUS E IMPLEMENTOS LT      IRMAO GILDO SCHIAVO, 110                CAXIAS DO SUL                           95058510RS4295800001099866410133740.A   03072013029CAXIAS DO SUL       2007201300000000018130349CC                                                                                                                                                                                                                                                                                                                                                                                           249164-6      000013
1029421018494COBR_CAUC_BIC  PRO SALUTE SERVICOS PARA SAUDE LTDA     090467424000153VIACAO SANTA TEREZA DE CAXIAS DO S      RUA JULIO CALEGARI, 940                 CAXIAS DO SUL                           95095230RS4295700001099866590133759.A   03072013029CAXIAS DO SUL       1807201300000000022987994CC                                                                                                                                                                                                                                                                                                                                                                                           249164-7      000014
1009420930764COBR_CAUC_BIC  SA CORREIO BRAZILIENSE                  027865757002571GLOBO COMUNICACAO E PARTICIPACOES       SRTVN Q 701 CONJ. A ED TV GLOBO ASANOR  BRASILIA                                70719901DF4295500001014029812003-1      08072013009BRASILIA            3007201300000000012765480CC                                                                                                                                                                                                                                                                                                                                                                                           249164-8      000015
1007421069410COBR_CAUC_BIC  FULL COMEX TRADING S/A                  002065011000185CYNTHRON COMERCIAL IMPORTADORA E S      RUA DO ROCIO,423,C.J 1                  SAO PAULO                               04552000SP429770000102055715865.1       08072013007PAULISTA            2607201300000000014996600CC                                                                                                                                                                                                                                                                                                                                                                                           249170-1      000016
1029421012917COBR_CAUC_COR  GERMANI ALIMENTOS LTDA                  090341561000147ATACADAO COM. DE GEN. ALIM. LTDA        RODOVIA RS 118,10000                    GRAVATAI                                94100000RS429740000100029058136684-1    28062013900BRADESCO S/A        1508201300000000025000000CC                                                                                                                                                                                                                                                                                                                                                                                           249170-2      000017
1016421023809COBR_CAUC_BIC  IBEMA COMPANHIA BRASILEIRA DE PAPEL     043336056000124IND.COM.GRAF.CONSELHEIRO LTDA           RUA CANTIGA INGENUA,99                  SAO PAULO                               04184065SP429750000104071148179396.1    09072013007PAULISTA            2507201300000000011101105CC                                                                                                                                                                                                                                                                                                                                                                                           249170-3      000018
1029421018320COBR_CAUC_BIC  MOVEIS K1 LTDA                          089848543000177LOJAS COLOMBO SA COM. DE UTILID. D      R. JOSE ACHILLES COLOMBO, 50            FARROUPILHA                             95180000RS429730000109986918331652-128  08072013029CAXIAS DO SUL       1609201300000000010008329CC                                                                                                                                                                                                                                                                                                                                                                                           249170-4      000019
1018421018863COBR_CAUC_COR  PIVOT EQUIPAMENTOS AGRI E IRRI LTDA     089096457001127SLC AGRICOLAS S/A                       ROD GO 436 KM 60, S/N - FAZENDA PAMPLONACRISTALINA                              73850000GO429760000100004841332 2       09072013900BRADESCO S/A        1609201300000000013632499CC                                                                                                                                                                                                                                                                                                                                                                                           249170-5      000020
1010421024410COBR_CAUC_COR  ARARIPE TEXTIL S/A ARTESA               000490926000102JO LEVER CONFECCOES LTDA                RUA FRANCISCO STINGHER,149              JARAGUA DO SUL                          89260010SC4303000001042196453563-C      31052013900BRADESCO S/A        1908201300000000002200624CC                                                                                                                                                                                                                                                                                                                                                                                           249172-1      000021
1010421024410COBR_CAUC_COR  ARARIPE TEXTIL S/A ARTESA               004685278000109CRISTIANE S DAL FORNO & CIA LTDA        R 25 DE JULHO,2088                      PANAMBI                                 98280000RS4303200001042147913435-B      27032013900BRADESCO S/A        2407201300000000004110699CC                                                                                                                                                                                                                                                                                                                                                                                           249172-2      000022
1010421024410COBR_CAUC_COR  ARARIPE TEXTIL S/A ARTESA               007410591000114MARCO TEXTIL IND COM ART DO VEST L      R FRANCISCO SCHMITZ,S/N                 LUIZ ALVES                              89115000SC4303100001042196533566-C      31052013900BRADESCO S/A        0909201300000000002404578CC                                                                                                                                                                                                                                                                                                                                                                                           249172-3      000023
1009421012831COBR_CAUC_COR  ASA ALIMENTOS S/A                       007387853000177GRANJA SALOME LTDA                      ROD. BR-262KM 0                         BOM DESPACHO                            35600000MG4299200001001466110040636     10072013900BRADESCO S/A        0708201300000000012600000CC                                                                                                                                                                                                                                                                                                                                                                                           249172-4      000024
1010421024275COBR_CAUC_COR  COMPANHIA TEXTIL PE DE SERRA            072285547000191KARLACHE IND E COM TEXTIL LTDA          R JOAO CARLOS STEIN N 382,382           JARAGUA DO SUL                          89253350SC4302500001042193194586-A      28052013900BRADESCO S/A        1608201300000000000706360CC                                                                                                                                                                                                                                                                                                                                                                                           249172-5      000025
1010421024275COBR_CAUC_BIC  COMPANHIA TEXTIL PE DE SERRA            078644424000186LULI IND E COM DE CONFECCOES LTDA       R ENGENHEIRO UDO DEEKE,600-SL 01        BLUMENAU                                89065100SC4302900001042173834468-C      06052013032BLUMENAU            2308201300000000002553046CC                                                                                                                                                                                                                                                                                                                                                                                           249172-6      000026
1010421024275COBR_CAUC_BIC  COMPANHIA TEXTIL PE DE SERRA            078644424000186LULI IND E COM DE CONFECCOES LTDA       R ENGENHEIRO UDO DEEKE,600-SL 01        BLUMENAU                                89065100SC4302900002042173914468-D      06052013032BLUMENAU            2808201300000000002553046CC                                                                                                                                                                                                                                                                                                                                                                                           249172-7      000027
1010421024275COBR_CAUC_COR  COMPANHIA TEXTIL PE DE SERRA            004107329000107RIO MALHAS IND TEXTIL LTDA              TV PE FRAGA ,40-SALA 1                  PETROLINA                               56304281PE4302800001042174484474-A      07052013900BRADESCO S/A        2607201300000000002190191CC                                                                                                                                                                                                                                                                                                                                                                                           249172-8      000028
1010421024275COBR_CAUC_COR  COMPANHIA TEXTIL PE DE SERRA            004107329000107RIO MALHAS IND TEXTIL LTDA              TV PE FRAGA ,40-SALA 1                  PETROLINA                               56304281PE4302800002042174564474-B      07052013900BRADESCO S/A        0508201300000000002190191CC                                                                                                                                                                                                                                                                                                                                                                                           249172-9      000029
1010421024275COBR_CAUC_COR  COMPANHIA TEXTIL PE DE SERRA            085371136000160UCATEX UNIAO CATARINENSE TEXTIL LT      RUA 1 DE MAIO,330-UNIDADE A             LAURENTINO                              89170000SC4302700001042150204330-C      03042013900BRADESCO S/A        2207201300000000002144306CC                                                                                                                                                                                                                                                                                                                                                                                           249172-10     000030
1010421024275COBR_CAUC_COR  COMPANHIA TEXTIL PE DE SERRA            085371136000160UCATEX UNIAO CATARINENSE TEXTIL LT      RUA 1 DE MAIO,330-UNIDADE A             LAURENTINO                              89170000SC4302700002042150384330-D      03042013900BRADESCO S/A        0108201300000000002144306CC                                                                                                                                                                                                                                                                                                                                                                                           249172-11     000031
1010421024275COBR_CAUC_COR  COMPANHIA TEXTIL PE DE SERRA            004340373000162EDROMANIA IND E COM LTDA ME             R EDGAR VON BUETTNER ,865-GALPAO        BRUSQUE                                 88355350SC4302600001042174054469-C      06052013900BRADESCO S/A        0908201300000000001728488CC                                                                                                                                                                                                                                                                                                                                                                                           249172-12     000032
1028421004126DIR_CREDIT     ENSEL ENGENHARIA SERVICOS ESP LTDA      002983428000127CEMIG TELECOMUNICACOES SA - CEMIGTELECOMR DOS INCONFIDENTES, 1051               BELO HORIZONTE                          30140120MG4303300001                                                                                                                                          012121931           020620100000014514CT-026/10   31012013000403Serviços de engenharia de manutençao para os diversos segmentos compõema rede de telecomunicações da CEMIG, envolvendo a execução de serviços deengenharia de manutenção preventiva e corretiva leve e pesada.                                  024052888000174249172-13     000033
1016421023809COBR_CAUC_BIC  IBEMA COMPANHIA BRASILEIRA DE PAPEL     043336056000124IND.COM.GRAF.CONSELHEIRO LTDA           RUA CANTIGA INGENUA,99                  SAO PAULO                               04184065SP429930000104072608179421.1    09072013007PAULISTA            2507201300000000011432481CC                                                                                                                                                                                                                                                                                                                                                                                           249172-14     000034
1010421024879COBR_CAUC_BIC  INDUSTRIA DE MALHAS JABOATAO LTDA       011486192000104LIVIA CARLAS GONCALVES DOS SANTOS-      AV VASCO DA GAMA,101                    SALVADOR                                40230731BA4300800001042187117155-A      16052013013SALVADOR            1207201300000000000074853CC                                                                                                                                                                                                                                                                                                                                                                                           249172-15     000035
1010421024879COBR_CAUC_COR  INDUSTRIA DE MALHAS JABOATAO LTDA       014200948000103MIDIA FORTE ARTIGO DO VESTUARIO LT      ROD PE 35,8500                          ITAPISSUMA                              53700000PE4302400001042196967225-B      04062013900BRADESCO S/A        3007201300000000000563156CC                                                                                                                                                                                                                                                                                                                                                                                           249172-16     000036
1010421024879COBR_CAUC_COR  INDUSTRIA DE MALHAS JABOATAO LTDA       014200948000103MIDIA FORTE ARTIGO DO VESTUARIO LT      ROD PE 35,8500                          ITAPISSUMA                              53700000PE4302400002042197007225-C      04062013900BRADESCO S/A        2908201300000000000563156CC                                                                                                                                                                                                                                                                                                                                                                                           249172-17     000037
1010421024879COBR_CAUC_COR  INDUSTRIA DE MALHAS JABOATAO LTDA       014200948000103MIDIA FORTE ARTIGO DO VESTUARIO LT      ROD PE 35,8500                          ITAPISSUMA                              53700000PE4302400003042197187225-D      04062013900BRADESCO S/A        3009201300000000000563154CC                                                                                                                                                                                                                                                                                                                                                                                           249172-18     000038
1010421024879COBR_CAUC_BIC  INDUSTRIA DE MALHAS JABOATAO LTDA       004917296000837AVIL TEXTIL LTDA                        RUA DO LIVRAMENTO,1                     RECIFE                                  50020570PE4302300001042195727194-B      31052013010RECIFE              2307201300000000000526486CC                                                                                                                                                                                                                                                                                                                                                                                           249172-19     000039
1010421024879COBR_CAUC_BIC  INDUSTRIA DE MALHAS JABOATAO LTDA       004917296000837AVIL TEXTIL LTDA                        RUA DO LIVRAMENTO,1                     RECIFE                                  50020570PE4302300002042195647194-C      31052013010RECIFE              2208201300000000000526486CC                                                                                                                                                                                                                                                                                                                                                                                           249172-20     000040
1010421024879COBR_CAUC_BIC  INDUSTRIA DE MALHAS JABOATAO LTDA       004917296000837AVIL TEXTIL LTDA                        RUA DO LIVRAMENTO,1                     RECIFE                                  50020570PE4302300003042195567194-D      31052013010RECIFE              2309201300000000000526487CC                                                                                                                                                                                                                                                                                                                                                                                           249172-21     000041
1010421024879COBR_CAUC_COR  INDUSTRIA DE MALHAS JABOATAO LTDA       014178622000119GT TECIDOS E AVIAMENTOS LTDA            PC. CEL PORTO ,145                      CARUARU                                 55006030PE4302200001042197347233-B      04062013900BRADESCO S/A        3007201300000000000301048CC                                                                                                                                                                                                                                                                                                                                                                                           249172-22     000042
1010421024879COBR_CAUC_COR  INDUSTRIA DE MALHAS JABOATAO LTDA       014178622000119GT TECIDOS E AVIAMENTOS LTDA            PC. CEL PORTO ,145                      CARUARU                                 55006030PE4302200002042197427233-C      04062013900BRADESCO S/A        2908201300000000000301048CC                                                                                                                                                                                                                                                                                                                                                                                           249172-23     000043
1010421024879COBR_CAUC_COR  INDUSTRIA DE MALHAS JABOATAO LTDA       014178622000119GT TECIDOS E AVIAMENTOS LTDA            PC. CEL PORTO ,145                      CARUARU                                 55006030PE4302200003042197517233-D      04062013900BRADESCO S/A        3009201300000000000301048CC                                                                                                                                                                                                                                                                                                                                                                                           249172-24     000044
1010421024879COBR_CAUC_BIC  INDUSTRIA DE MALHAS JABOATAO LTDA       013587119000154VERUSSIA CARLA R DE FARIAS ME           AV DR LUIZ ANTONIO,7339                 PARNAMIRIM                              59155001RN4302100001042175117128-B      07052013044NATAL               0508201300000000000334473CC                                                                                                                                                                                                                                                                                                                                                                                           249172-25     000045
1010421024879COBR_CAUC_BIC  INDUSTRIA DE MALHAS JABOATAO LTDA       013587119000154VERUSSIA CARLA R DE FARIAS ME           AV DR LUIZ ANTONIO,7339                 PARNAMIRIM                              59155001RN4302100002042175297128-C      07052013044NATAL               0309201300000000000334474CC                                                                                                                                                                                                                                                                                                                                                                                           249172-26     000046
1010421024879COBR_CAUC_COR  INDUSTRIA DE MALHAS JABOATAO LTDA       017465465000110LANUSA E SOUZA COM.DE TECIDOS LTDA      AVENIDA VERA CRUZ,536                   CARUARU                                 55008000PE4302000001042186907109-B      16052013900BRADESCO S/A        2507201300000000000658240CC                                                                                                                                                                                                                                                                                                                                                                                           249172-27     000047
1010421024879COBR_CAUC_COR  INDUSTRIA DE MALHAS JABOATAO LTDA       013593627000145G FAUSTINA DE ALCANTARA ME              R CAP PEDROSA,551                       SANTA CRUZ DO C                         55190000PE4301900001042167197073-C      25042013900BRADESCO S/A        2407201300000000000428882CC                                                                                                                                                                                                                                                                                                                                                                                           249172-28     000048
1010421024879COBR_CAUC_COR  INDUSTRIA DE MALHAS JABOATAO LTDA       002904202000193J R RODRIGUES DA SILVA ME               R JOSE EPIFANIO DE ARAUJO PEREIR,1      LIMOEIRO                                55700000PE4301800001042195307203-B      31052013900BRADESCO S/A        1207201300000000000099327CC                                                                                                                                                                                                                                                                                                                                                                                           249172-29     000049
1010421024879COBR_CAUC_COR  INDUSTRIA DE MALHAS JABOATAO LTDA       002904202000193J R RODRIGUES DA SILVA ME               R JOSE EPIFANIO DE ARAUJO PEREIR,1      LIMOEIRO                                55700000PE4301800002042195217203-C      31052013900BRADESCO S/A        2907201300000000000099327CC                                                                                                                                                                                                                                                                                                                                                                                           249172-30     000050
1010421024879COBR_CAUC_COR  INDUSTRIA DE MALHAS JABOATAO LTDA       002904202000193J R RODRIGUES DA SILVA ME               R JOSE EPIFANIO DE ARAUJO PEREIR,1      LIMOEIRO                                55700000PE4301800003042195137203-D      31052013900BRADESCO S/A        1208201300000000000099327CC                                                                                                                                                                                                                                                                                                                                                                                           249172-31     000051
1010421024879COBR_CAUC_COR  INDUSTRIA DE MALHAS JABOATAO LTDA       002904202000193J R RODRIGUES DA SILVA ME               R JOSE EPIFANIO DE ARAUJO PEREIR,1      LIMOEIRO                                55700000PE4301800004042195057203-E      31052013900BRADESCO S/A        2608201300000000000099326CC                                                                                                                                                                                                                                                                                                                                                                                           249172-32     000052
1010421024879COBR_CAUC_BIC  INDUSTRIA DE MALHAS JABOATAO LTDA       035711241000123DAM CONFECCOES INDUSTRIA E COMERCI      AV. SAO PAULO,974                       RECIFE                                  50910250PE4301700001042194837207-B      31052013010RECIFE              2907201300000000000186265CC                                                                                                                                                                                                                                                                                                                                                                                           249172-33     000053
1010421024879COBR_CAUC_BIC  INDUSTRIA DE MALHAS JABOATAO LTDA       035711241000123DAM CONFECCOES INDUSTRIA E COMERCI      AV. SAO PAULO,974                       RECIFE                                  50910250PE4301700002042194757207-C      31052013010RECIFE              2708201300000000000186264CC                                                                                                                                                                                                                                                                                                                                                                                           249172-34     000054
1010421024879COBR_CAUC_COR  INDUSTRIA DE MALHAS JABOATAO LTDA       005757693000185CREUSA BARBOSA DA SILVA ME              RUA SENADOR QUINTINO,4565               FEIRA D.SANTANA                         44094220BA4301600001042190097178-B      21052013900BRADESCO S/A        1907201300000000000172222CC                                                                                                                                                                                                                                                                                                                                                                                           249172-35     000055
1010421024879COBR_CAUC_COR  INDUSTRIA DE MALHAS JABOATAO LTDA       005757693000185CREUSA BARBOSA DA SILVA ME              RUA SENADOR QUINTINO,4565               FEIRA D.SANTANA                         44094220BA4301600002042190177178-C      21052013900BRADESCO S/A        1908201300000000000172223CC                                                                                                                                                                                                                                                                                                                                                                                           249172-36     000056
1010421024879COBR_CAUC_BIC  INDUSTRIA DE MALHAS JABOATAO LTDA       004896900000110CRUZEIRO DO SUL COMERCIO LTDA           RUA DAS CALCADAS,232                    RECIFE                                  50020290PE4301500001042167517070-C      25042013010RECIFE              2407201300000000000104930CC                                                                                                                                                                                                                                                                                                                                                                                           249172-37     000057
1010421024879COBR_CAUC_BIC  INDUSTRIA DE MALHAS JABOATAO LTDA       004896900000110CRUZEIRO DO SUL COMERCIO LTDA           RUA DAS CALCADAS,232                    RECIFE                                  50020290PE4301500002042167437070-D      25042013010RECIFE              2308201300000000000104930CC                                                                                                                                                                                                                                                                                                                                                                                           249172-38     000058
1010421024879COBR_CAUC_BIC  INDUSTRIA DE MALHAS JABOATAO LTDA       004896900000110CRUZEIRO DO SUL COMERCIO LTDA           RUA DAS CALCADAS,232                    RECIFE                                  50020290PE4301500003042189757177-B      21052013010RECIFE              1907201300000000000061326CC                                                                                                                                                                                                                                                                                                                                                                                           249172-39     000059
1010421024879COBR_CAUC_BIC  INDUSTRIA DE MALHAS JABOATAO LTDA       004896900000110CRUZEIRO DO SUL COMERCIO LTDA           RUA DAS CALCADAS,232                    RECIFE                                  50020290PE4301500004042189837177-C      21052013010RECIFE              1908201300000000000061326CC                                                                                                                                                                                                                                                                                                                                                                                           249172-40     000060
1010421024879COBR_CAUC_COR  INDUSTRIA DE MALHAS JABOATAO LTDA       008157292000182JACKSON MURIER PACIFICO VIEIRA ME       RUA JOAO FREIRAS REZENDE,750            PIRIPIRI                                64260000PI4301400001042145206914-D      22032013900BRADESCO S/A        1907201300000000000174522CC                                                                                                                                                                                                                                                                                                                                                                                           249172-41     000061
1010421024879COBR_CAUC_BIC  INDUSTRIA DE MALHAS JABOATAO LTDA       007468274000159CARMEN LUCIA DOS SANTOS ME              PASSAGEM ALBERTO ENGELHARD,343          BELEM                                   66040520PA4301300001042187037156-C      16052013050BELEM               1208201300000000000169178CC                                                                                                                                                                                                                                                                                                                                                                                           249172-42     000062
1010421024879COBR_CAUC_BIC  INDUSTRIA DE MALHAS JABOATAO LTDA       007421872000172LUCIANA DA SILVA ELIOTERIO VILARIN      RUA JOAO CABRAL,1031                    TERESINA                                64000030PI4301200001042166897067-C      25042013041TERESINA            2407201300000000000159797CC                                                                                                                                                                                                                                                                                                                                                                                           249172-43     000063
1010421024879COBR_CAUC_BIC  INDUSTRIA DE MALHAS JABOATAO LTDA       002254036000127JOSE AUGUSTO CARLOS DE ALMEIDA ME       RUA MOSSORO,422                         NATAL                                   59020090RN4301100001042175457132-C      08052013044NATAL               0508201300000000000129711CC                                                                                                                                                                                                                                                                                                                                                                                           249172-44     000064
1010421024879COBR_CAUC_COR  INDUSTRIA DE MALHAS JABOATAO LTDA       001923897000198ARARIPE MALHAS                          R JOAQUIM TAVORA ,329                   CARUARU                                 55006120PE4301000001042195817219-B      31052013900BRADESCO S/A        1507201300000000000100826CC                                                                                                                                                                                                                                                                                                                                                                                           249172-45     000065
1010421024879COBR_CAUC_BIC  INDUSTRIA DE MALHAS JABOATAO LTDA       002046482000146 COMERCIO E CONFECCOES SANTA HELEN      RUA FRANKLIN TAVORA ,322-/326           RECIFE                                  52040050PE4300900001042158527019-B      16042013010RECIFE              1507201300000000000359978CC                                                                                                                                                                                                                                                                                                                                                                                           249172-46     000066
1010421024879COBR_CAUC_BIC  INDUSTRIA DE MALHAS JABOATAO LTDA       002046482000146 COMERCIO E CONFECCOES SANTA HELEN      RUA FRANKLIN TAVORA ,322-/326           RECIFE                                  52040050PE4300900002042168167068-B      25042013010RECIFE              2407201300000000000318615CC                                                                                                                                                                                                                                                                                                                                                                                           249172-47     000067
1045421009756DIR_CREDIT     CLIMEDI-CLINICA MED.N.E.DIABETE S/S     013360276000122UNIMED SERGIPE - COOP DE TRAB MEDICO    RUA SOCORRO, 100 SAO JOSE               ARACAJU                                 49015300SE4300200001                                                                                                                                          012274187           0711200500000156710021        10072013000403Serviços auxiliares de diagnosticos e terapia aos Beneficiários de Pla-no de Saúde.                                                                                                                                                             013158985000120249205-1      000068
1018421015651COBR_CAUC_BIC  CMS PRODUTOS MEDICOS LTDA               060453024000390ASSOCIACAO DO SANATORIO SIRIO           RUA DESEMBARGADOR ELISEU GUILHERME, 123 SAO PAULO                               04004030SP430370000103316398000073983   26062013007PAULISTA            2608201300000000012920000CC                                                                                                                                                                                                                                                                                                                                                                                           249205-2      000069
1010421024356COBR_CAUC_COR  DIST EQUADOR DE PROD PETROLEO LTDA      010392166000154AUTO POSTO PETRONORTE                   R PEDRO ALDEMAR BANTIN, 1855            BOA VISTA                               69314543RR43036000010003731398929       10072013900BRADESCO S/A        1707201300000000011776000CC                                                                                                                                                                                                                                                                                                                                                                                           249205-3      000070
1007421067492COBR_CAUC_COR  ENERGY COML IMPORT E EXPORT LTDA        009363567000369PREMIX BRASIL RESINAS LTDA              ROD BR 101, KM 117,5,5600-SALA 6        ITAJAI                                  88311601SC4303500001020618639133        28062013800UNIBANCO S/A        1208201300000000117878286CC                                                                                                                                                                                                                                                                                                                                                                                           249205-4      000071
1048421003043COBR_CAUC_COR  FRIGOL S.A. EM RECUPERACAO JUDICIAL     007042642000364FRINENSE ALIMENTOS LTDA                 ZOELO SOLA 44                           ITAPERUNA                               18681030RJ4303800001000325560024320-01  11072013900BRADESCO S/A        1807201300000000011660585CC                                                                                                                                                                                                                                                                                                                                                                                           249205-5      000072
1008421029449COBR_CAUC_BIC  NOVA FIACAO INDUSTRIA TEXTIL LTDA       043248863000195MENEGHEL INDUSTRIA TEXTIL LTDA          AV JOSE MENEGHEL 1701                   AMERICANA                               13478820SP430390000108945456000022/1    05072013021CAMPINAS            2407201300000000016019296CC                                                                                                                                                                                                                                                                                                                                                                                           249205-6      000073
1020421001652COBR_CAUC_BIC  SANTHER FAB PAP STA THEREZINHA S/A      023439441001323ARMAZEM MATEUS LTDA                     AV DANIEL DE LA TOUCHE, 73              SAO LUIS                                65073780MA430340000106338091004612201   10072013042SAO LUIS            2108201300000000010010025CC                                                                                                                                                                                                                                                                                                                                                                                           249205-7      000074
1050421001700DIR_CREDIT     SINETEL ENG E COM LTDA                  000190373000768IND E COM DE COSMETICOS NATURA LTDA     ROD AUG MEIRA FILHO KM 3 N3920 FZ ELDORABENEVIDES                               68795000PA4299400001                                                                                                                                          012304020           061120120000022985001/2012    10072013000404execução de obras de construção civil, instalações e demais avenças. contrato 001/2012                                                                                                                                                          004883542000100249205-8      000075
1008421022487COBR_CAUC_COR  EBP - EMPRESA BRASILEIRA DE PESCADO     033304981000110SUPERMERCADOS MUNDIAL LTDA              RUADONA EMILIA, 2                       RIO DE JANEIRO                          20765110RJ4307200001016286330019926/    29062013900BRADESCO S/A        2207201300000000032130000CC                                                                                                                                                                                                                                                                                                                                                                                           249219-1      000076
1048421003043COBR_CAUC_COR  FRIGOL S.A. EM RECUPERACAO JUDICIAL     000417504000101QUEBRAMAR IND. E COMERCIO DE CARNE      RUA DOUTOR ELOI S/N LOTE 1              SAO JOAO DE MER                         18681030RJ430730000100032742024463-001  15072013900BRADESCO S/A        2207201300000000016722350CC                                                                                                                                                                                                                                                                                                                                                                                           249219-2      000077
1032421019512COBR_CAUC_COR  GEOTESC FUNDACOES LTDA                  007437570000192SEIXAS ENGENHARIA E CONSTRUCOES LT      RUA ALFREDO TROMPOWISKI ,437            ITAJAI                                  88303140SC430710000102013780650.1       12072013900BRADESCO S/A        1809201300000000012666800CC                                                                                                                                                                                                                                                                                                                                                                                           249219-3      000078
1019421010259COBR_CAUC_COR  L & S INTERBANK FOMENTO LTDA            061082004000584MANUFATURA DE BRINQUEDOS ESTRELA S      R. ROUPE TILKIAN, 375 BLO A             ITAPIRA                                 13986000SP4307000001067576900001-2      11072013900BRADESCO S/A        1108201300000000014371990CC                                                                                                                                                                                                                                                                                                                                                                                           249219-4      000079
1006441006860COBR_CAUC_COR  MONT GRANITOS S/A                       007204217000243CALILA ADMINISTRACAO E COMERCIO SA      R. CONSUL ASSAF TRAD,4634               CAMPO GRANDE                            79062200MS430680000109587582895         12072013900BRADESCO S/A        1908201300000000010278278CC                                                                                                                                                                                                                                                                                                                                                                                           249219-5      000080
1007421034080COBR_CAUC_BIC  SIDMEX INTERNACIONAL LTDA               003684434000227DISKPAR LOGISTICA E AUTOMACAO LTDA      LOURENCO BELLOLI,877                    OSASCO                                  06268110SP430690000102066351042813      15072013007PAULISTA            1510201300000000034200000CC                                                                                                                                                                                                                                                                                                                                                                                           249219-6      000081
1007421034080COBR_CAUC_COR  SIDMEX INTERNACIONAL LTDA               000443902000283SINCOM IMPORTACAO E EXPORTACAO LTD      R AMAZONAS DA SILVA 173                 SAO PAULO                               02051000SP43094000010196449510040       11062013900BRADESCO S/A        3008201300000000010655784CC                                                                                                                                                                                                                                                                                                                                                                                           249219-7      000082
1007421034080COBR_CAUC_COR  SIDMEX INTERNACIONAL LTDA               000443902000283SINCOM IMPORTACAO E EXPORTACAO LTD      R AMAZONAS DA SILVA 173                 SAO PAULO                               02051000SP43094000020196450910042       11062013900BRADESCO S/A        3008201300000000011231977CC                                                                                                                                                                                                                                                                                                                                                                                           249219-8      000083
1007421034080COBR_CAUC_COR  SIDMEX INTERNACIONAL LTDA               000443902000283SINCOM IMPORTACAO E EXPORTACAO LTD      R AMAZONAS DA SILVA 173                 SAO PAULO                               02051000SP43093000010195641710036       10062013900BRADESCO S/A        3008201300000000005192752CC                                                                                                                                                                                                                                                                                                                                                                                           249219-9      000084
1007421034080COBR_CAUC_COR  SIDMEX INTERNACIONAL LTDA               000443902000283SINCOM IMPORTACAO E EXPORTACAO LTD      R AMAZONAS DA SILVA 173                 SAO PAULO                               02051000SP43093000020195642510037       10062013900BRADESCO S/A        3008201300000000002557296CC                                                                                                                                                                                                                                                                                                                                                                                           249219-10     000085
1007421034080COBR_CAUC_COR  SIDMEX INTERNACIONAL LTDA               000443902000283SINCOM IMPORTACAO E EXPORTACAO LTD      R AMAZONAS DA SILVA 173                 SAO PAULO                               02051000SP43093000030195643310038       10062013900BRADESCO S/A        3008201300000000002771774CC                                                                                                                                                                                                                                                                                                                                                                                           249219-11     000086
1007421034080COBR_CAUC_COR  SIDMEX INTERNACIONAL LTDA               000443902000283SINCOM IMPORTACAO E EXPORTACAO LTD      R AMAZONAS DA SILVA 173                 SAO PAULO                               02051000SP43093000040195644110039       10062013900BRADESCO S/A        3008201300000000005160758CC                                                                                                                                                                                                                                                                                                                                                                                           249219-12     000087
1007421034080COBR_CAUC_COR  SIDMEX INTERNACIONAL LTDA               000443902000283SINCOM IMPORTACAO E EXPORTACAO LTD      R AMAZONAS DA SILVA 173                 SAO PAULO                               02051000SP43092000010195640910035       10062013900BRADESCO S/A        3008201300000000015664588CC                                                                                                                                                                                                                                                                                                                                                                                           249219-13     000088
1017421013375COBR_CAUC_COR  BMS MICRO NUTRIENTES DO BRASIL LTDA     002414858000390VALE VERDE EMPREENDIMENTOS AGRICOL      ROD. GO ANICUNS/,6-CAIXA POSTAL 06      ANICUNS                                 76170000GO4305400001000002311096B       24052013900BRADESCO S/A        0811201300000000014954598CC                                                                                                                                                                                                                                                                                                                                                                                           249221-1      000089
1007421067492COBR_CAUC_COR  ENERGY COML IMPORT E EXPORT LTDA        009363567000369PREMIX BRASIL RESINAS LTDA              ROD BR 101, KM 117,5,5600-SALA 6        ITAJAI                                  88311601SC430490000102065222009079      24062013800UNIBANCO S/A        0808201300000000097965130CC                                                                                                                                                                                                                                                                                                                                                                                           249221-2      000090
1048421003043COBR_CAUC_COR  FRIGOL S.A. EM RECUPERACAO JUDICIAL     011094490000159F OLIVEIRA NASCIMENTO E CIA LTDA        AL ONZE, 16                             BELEM                                   18681030PA4305200001000325720024370-01  12072013900BRADESCO S/A        3007201300000000012685432CC                                                                                                                                                                                                                                                                                                                                                                                           249221-3      000091
1048421003043COBR_CAUC_COR  FRIGOL S.A. EM RECUPERACAO JUDICIAL     011094490000159F OLIVEIRA NASCIMENTO E CIA LTDA        AL ONZE, 16                             BELEM                                   18681030PA4305200002000325810024371-01  12072013900BRADESCO S/A        3007201300000000011941281CC                                                                                                                                                                                                                                                                                                                                                                                           249221-4      000092
1048421003043COBR_CAUC_COR  FRIGOL S.A. EM RECUPERACAO JUDICIAL     016647607000106FORCE MEAT COM. DIST. CARNES E DER      MARIA GONZAGA 460                       SAO JOAO DE MER                         25535482RJ4305300001000325640024380-01  12072013900BRADESCO S/A        1907201300000000016280153CC                                                                                                                                                                                                                                                                                                                                                                                           249221-5      000093
1016421009571COBR_CAUC_BIC  IMPORTADORA DE FRUTAS LA VIOLETERA      001644931000608A.S.E. DISTRIBUICAO LTDA                RUA SARGENTE EICLIDES, 110              ANAPOLIS                                75130390GO4304700001040736210024627901  08072013018GOIANIA             0508201300000000010405770CC                                                                                                                                                                                                                                                                                                                                                                                           249221-6      000094
1016421009571COBR_CAUC_BIC  IMPORTADORA DE FRUTAS LA VIOLETERA      006204131001220PEROLA DISTRIBUICAO E LOGISTICA LT      ROD BR 060 1035 KM 125                  ANAPOLIS                                75104900GO4304800001040735820024612901  05072013018GOIANIA             0208201300000000010048265CC                                                                                                                                                                                                                                                                                                                                                                                           249221-7      000095
1031421009993COBR_CAUC_COR  VAMOL INDUSTRIA MOVELEIRA LTDA          021545371000129LOJAS EDMIL S/A                         AV. CAPITAO JOAO ALVES PEREIRA,570      ELOI MENDES                             37110000MG43050000010528426997976-1/1   03072013800UNIBANCO S/A        0208201300000000012746250CC                                                                                                                                                                                                                                                                                                                                                                                           249221-8      000096
1031421009993COBR_CAUC_BIC  VAMOL INDUSTRIA MOVELEIRA LTDA          084683432000134LOJAS SALFER S/A                        RUA RUI BARBOSA,1300                    JOINVILLE                               89219521SC43051000010528428598180-1/1   05072013032BLUMENAU            1410201300000000012298341CC                                                                                                                                                                                                                                                                                                                                                                                           249221-9      000097
1007421067492COBR_CAUC_BIC  ENERGY COML IMPORT E EXPORT LTDA        014555032000168REPLAS COMERCIO DE RESINAS PLASTIC      AVENIDA PRESIDENTE WILSON ,5700         SAO PAULO                               04220002SP4309700001020728069229        15072013007PAULISTA            1408201300000000013511876CC                                                                                                                                                                                                                                                                                                                                                                                           249283-1      000098
1007421067492COBR_CAUC_BIC  ENERGY COML IMPORT E EXPORT LTDA        014555032000168REPLAS COMERCIO DE RESINAS PLASTIC      AVENIDA PRESIDENTE WILSON ,5700         SAO PAULO                               04220002SP4309700002020728149240        15072013007PAULISTA            1408201300000000013511876CC                                                                                                                                                                                                                                                                                                                                                                                           249283-2      000099
1007421067492COBR_CAUC_BIC  ENERGY COML IMPORT E EXPORT LTDA        014555032000168REPLAS COMERCIO DE RESINAS PLASTIC      AVENIDA PRESIDENTE WILSON ,5700         SAO PAULO                               04220002SP4309700003020728229239        15072013007PAULISTA            1408201300000000013511876CC                                                                                                                                                                                                                                                                                                                                                                                           249283-3      000100
1007421067492COBR_CAUC_BIC  ENERGY COML IMPORT E EXPORT LTDA        014555032000168REPLAS COMERCIO DE RESINAS PLASTIC      AVENIDA PRESIDENTE WILSON ,5700         SAO PAULO                               04220002SP4309700004020728319238        15072013007PAULISTA            1408201300000000013511876CC                                                                                                                                                                                                                                                                                                                                                                                           249283-4      000101
1007421067492COBR_CAUC_BIC  ENERGY COML IMPORT E EXPORT LTDA        014555032000168REPLAS COMERCIO DE RESINAS PLASTIC      AVENIDA PRESIDENTE WILSON ,5700         SAO PAULO                               04220002SP4309700005020728499237        15072013007PAULISTA            1408201300000000013511876CC                                                                                                                                                                                                                                                                                                                                                                                           249283-5      000102
1007421067492COBR_CAUC_BIC  ENERGY COML IMPORT E EXPORT LTDA        014555032000168REPLAS COMERCIO DE RESINAS PLASTIC      AVENIDA PRESIDENTE WILSON ,5700         SAO PAULO                               04220002SP4309700006020728579236        15072013007PAULISTA            1408201300000000013511876CC                                                                                                                                                                                                                                                                                                                                                                                           249283-6      000103
1007421067492COBR_CAUC_BIC  ENERGY COML IMPORT E EXPORT LTDA        014555032000168REPLAS COMERCIO DE RESINAS PLASTIC      AVENIDA PRESIDENTE WILSON ,5700         SAO PAULO                               04220002SP4309700007020728659235        15072013007PAULISTA            1408201300000000013511876CC                                                                                                                                                                                                                                                                                                                                                                                           249283-7      000104
1007421067492COBR_CAUC_BIC  ENERGY COML IMPORT E EXPORT LTDA        014555032000168REPLAS COMERCIO DE RESINAS PLASTIC      AVENIDA PRESIDENTE WILSON ,5700         SAO PAULO                               04220002SP4309700008020728739234        15072013007PAULISTA            1408201300000000013511876CC                                                                                                                                                                                                                                                                                                                                                                                           249283-8      000105
1007421067492COBR_CAUC_BIC  ENERGY COML IMPORT E EXPORT LTDA        014555032000168REPLAS COMERCIO DE RESINAS PLASTIC      AVENIDA PRESIDENTE WILSON ,5700         SAO PAULO                               04220002SP4309700009020728819232        15072013007PAULISTA            1408201300000000013511876CC                                                                                                                                                                                                                                                                                                                                                                                           249283-9      000106
1007421067492COBR_CAUC_BIC  ENERGY COML IMPORT E EXPORT LTDA        014555032000168REPLAS COMERCIO DE RESINAS PLASTIC      AVENIDA PRESIDENTE WILSON ,5700         SAO PAULO                               04220002SP4309700010020728909231        15072013007PAULISTA            1408201300000000013511876CC                                                                                                                                                                                                                                                                                                                                                                                           249283-10     000107
1007421067492COBR_CAUC_BIC  ENERGY COML IMPORT E EXPORT LTDA        014555032000168REPLAS COMERCIO DE RESINAS PLASTIC      AVENIDA PRESIDENTE WILSON ,5700         SAO PAULO                               04220002SP4309700011020729039230        15072013007PAULISTA            1408201300000000013511876CC                                                                                                                                                                                                                                                                                                                                                                                           249283-11     000108
1007421067492COBR_CAUC_BIC  ENERGY COML IMPORT E EXPORT LTDA        014555032000168REPLAS COMERCIO DE RESINAS PLASTIC      AVENIDA PRESIDENTE WILSON ,5700         SAO PAULO                               04220002SP4309700012020729119233        15072013007PAULISTA            1408201300000000013511876CC                                                                                                                                                                                                                                                                                                                                                                                           249283-12     000109
1028421002921COBR_CAUC_COR  MATABOI ALIMENTOS S/A - EM REC.JUD.     007918552000122CHARQUEADA FRISUL LTDA.                 R13 DE MAIO2720                         OURO FINO                               37570000MG4309500001003911530001521701  15072013900BRADESCO S/A        1408201300000000011939401CC                                                                                                                                                                                                                                                                                                                                                                                           249283-13     000110
1016420933828COBR_CAUC_COR  PENINSULA INTERNATIONAL S/A             002734023001470FIAGRIL LTDA                            R COLONIZADOR ENIO PEPINO 3751          BELO HORIZONTE                          78555000MG4309600001040738172135-2      25062013900BRADESCO S/A        3004201400000000050000000CC                                                                                                                                                                                                                                                                                                                                                                                           249283-14     000111
1016420933828COBR_CAUC_COR  PENINSULA INTERNATIONAL S/A             002734023001470FIAGRIL LTDA                            R COLONIZADOR ENIO PEPINO 3751          BELO HORIZONTE                          78555000MG4309600002040738252135-1      25062013900BRADESCO S/A        3004201400000000050000000CC                                                                                                                                                                                                                                                                                                                                                                                           249283-15     000112
1050421000089COBR_CAUC_BIC  ATIVO ALIMENTOS EXP E IMP EIRELI        003721769000278MASTERBOI LTDA                          AV RECUPERACAO, DA 7380                 RECIFE                                  52291000PE431250000100480478202037/1    16072013010RECIFE              1508201300000000010295128CC                                                                                                                                                                                                                                                                                                                                                                                           249287-1      000113
1020421002020COBR_CAUC_COR  GRABER SISTEMAS DE SEGURANCA LTDA       010588595000363MEDLEY COMERCIAL E LOGISTICA L          R ESTACIO DE SA, 1490 - JD SANTA GENEBRACAMPINAS                                13080010SP4312400001000096640000006108  10072013900BRADESCO S/A        0108201300000000014728245CC                                                                                                                                                                                                                                                                                                                                                                                           249287-2      000114
1007421067719COBR_CAUC_COR  NEOLIDER COM.IMP.E EXP.DE ACOS LTDA     048295562001965USINA ALTO ALEGRE S AACUCAR E AL        R JOSE LEITE,40                         PRESIDENTE PRUD                         19050240SP431260000102078855054526/     16072013800UNIBANCO S/A        3008201300000000013799609CC                                                                                                                                                                                                                                                                                                                                                                                           249287-3      000115
1007421067719COBR_CAUC_COR  NEOLIDER COM.IMP.E EXP.DE ACOS LTDA     048295562001965USINA ALTO ALEGRE S AACUCAR E AL        R JOSE LEITE,40                         PRESIDENTE PRUD                         19050240SP431260000202078880054547/     17072013800UNIBANCO S/A        0209201300000000011088910CC                                                                                                                                                                                                                                                                                                                                                                                           249287-4      000116
1049421001715DIR_CREDIT     B TRANSPORTES LTDA                      059460592000177PIQUETUR PASSAGENS E TURISMO LTDA       AV LUCAS NOGUEIRA GARCEZ 578 JD MAR     SAO BERNARDO DO CAMP                    09750660SP4315900001                                                                                                                                          012298308           091220090000021407            18072013000403Prestação de serviços de transporte de peças automotivas.                                                                                                                                                                                       004353469000165249290-1      000117
1036421019760DIR_CREDIT     ED PLANETA DEAGOSTINI DO BRASIL LTD     028322873000130FC COMERCIAL E DISTRIBUIDORA S/A        DR KENKITI SHIMOMOTO, 1678 - SALA A     OSASCO                                  06045390SP4312200001                                                                                                                                          012280005           230520110000022012S/N         16072013000403contrato de compra e venda de publicações, em regime de consignação de mercadorias para revenda à terceiros,bancas de jornais e revistas e em pontosalternativos.                                                                               001713870000170249290-2      000118
1048421000338COBR_CAUC_COR  FRIGOESTRELA S.A. EM RECUP JUDICIAL     050947761001871IRMAOS RUSSI LTDA                       RUA LUIS ALLI FARDYN590SALA 03          CAJAMAR                                 07750000SP4314100001053735130096106701  17072013900BRADESCO S/A        1908201300000000013245114CC                                                                                                                                                                                                                                                                                                                                                                                           249290-3      000119
1046421006070DIR_CREDIT     METALURGICA DS LTDA                     060857349000176TRW AUTOMOTIVE LTDA                     VIA ANHANGUERA KM 147                   LIMEIRA                                 13486915SP4311800001                                                                                                                                          012306336           260320070000018698            16072013017002fornecimento de discos e tambores de freio para automoveis                                                                                                                                                                                      079414868000198249290-4      000120
1050421001700DIR_CREDIT     SINETEL ENG E COM LTDA                  000190373000768IND E COM DE COSMETICOS NATURA LTDA     ROD AUG MEIRA FILHO KM 3 N3920 FZ ELDORABENEVIDES                               68795000PA4309900001                                                                                                                                          012308972           061120120000022985001/2012    16072013000404execução de obras de construção civil, incluíndo instalações elétricas,instalações hidráulicas e sistema de ar-condicionado, para a nova unidadeindustrial localizada no município de Benevides-PA.                                             004883542000100249290-5      000121
1050421001700DIR_CREDIT     SINETEL ENG E COM LTDA                  000190373000768IND E COM DE COSMETICOS NATURA LTDA     ROD AUG MEIRA FILHO KM 3 N3920 FZ ELDORABENEVIDES                               68795000PA4314200001                                                                                                                                          012312171           061120120000022985001/2012    18072013000404execução de obras de construção civil, incluíndo instalações elétricas,instalações hidráulicas e sistema de ar-condicionado, para a nova unidadeindustrial localizada no município de Benevides-PA.                                             004883542000100249290-6      000122
1014421008439DIR_CREDIT     TV OMEGA LTDA                           030902803000100IGREJA INTERNACIONAL DA GRACA DE DEUS   ESR DOS BANDEIRANTES, 1000              TAQUARA                                 22710112RJ4311300001                                                                                                                                          012309310           280920090000010207            16072013000404CONTRATO DE CESSAO ONEROSA DE ESPAÇO TELEVISIVO E PRESTAÇÃO DE SERVIÇOS CONEXOS                                                                                                                                                                 002131538000322249290-7      000123
1014421008439DIR_CREDIT     TV OMEGA LTDA                           030902803000100IGREJA INTERNACIONAL DA GRACA DE DEUS   EST DOS BANDEIRANTES, 1000              TAQUARA                                 22710112RJ4311600001                                                                                                                                          012309328           010420100000012859            16072013000407Cessão onerosa de espaço televisivo,ref. programação a ser veiculada e exibida por todas as emissoras da rede tv!, de segunda a sexta-feira,c/duração de 3h e 30 min,c/início às 5h e término às 8h e 30min.                                    002131538000322249290-8      000124
1014421008439DIR_CREDIT     TV OMEGA LTDA                           030902803000100IGREJA INTERNACIONAL DA GRACA DE DEUS   EST DOS BANDEIRANTES, 1000              TAQUARA                                 22710112RJ4311500001                                                                                                                                          012309310           010420100000012859            16072013000404Cessão onerosa de espaço televisivo,ref. programação a ser veiculada e exibida por todas as emissoras da rede tv!, de segunda a sexta-feira,c/duração de 3h e 30 min,c/início às 5h e término às 8h e 30min.                                    002131538000322249290-9      000125
1014421008439DIR_CREDIT     TV OMEGA LTDA                           030902803000100IGREJA INTERNACIONAL DA GRACA DE DEUS   ESR DOS BANDEIRANTES, 1000              TAQUARA                                 22710112RJ4311400001                                                                                                                                          012309328           280920090000010207            16072013000407CONTRATO DE CESSAO ONEROSA DE ESPAÇO TELEVISIVO E PRESTAÇÃO DE SERVIÇOS CONEXOS                                                                                                                                                                 002131538000322249290-10     000126
1022421007525COBR_CAUC_COR  D. CENTER DISTRIBUIDORA LTDA            007419390000188FCIA .COM LTDA                          R P16 ESQUINA C/ RUA P5A, 72 QD P69 LT21GOIANIA                                 74210190GO43166000010090515152038105    18072013900BRADESCO S/A        2208201300000000020655682CC                                                                                                                                                                                                                                                                                                                                                                                           249293-1      000127
1018421034834COBR_CAUC_BIC  LACEL LATICINIOS CERES LTDA             007723218000113DN DISTRIBUIDORA E REPRESENTACOES       ROD. BR 316, 1657, KM 09                ANANINDEUA                              67033000PA4316500001033293500256581     18072013050BELEM               2208201300000000010337300CC                                                                                                                                                                                                                                                                                                                                                                                           249293-2      000128
1028421002921COBR_CAUC_COR  MATABOI ALIMENTOS S/A - EM REC.JUD.     010915021000190TOP ALTO PARTICIPACOES E COMERCIO       EST SAO JOAO CAXIAS99PARTE              SAO JOAO DE MER                         25515420RJ4316300001003912770033067101  18072013900BRADESCO S/A        2507201300000000018950350CC                                                                                                                                                                                                                                                                                                                                                                                           249293-3      000129
1007421060307COBR_CAUC_COR  ROTHENBERG COMERCIO DE PERFUMES E C     005753951000317DOTCOM GROUP COMERCIO DE PRESENTES      912 SUL ALEMEDA 07 QL E LTES 5 9 LJ 2   PALMAS                                  77023482TO431670000102082429RR4096950B  02072013800UNIBANCO S/A        1508201300000000011562487CC                                                                                                                                                                                                                                                                                                                                                                                           249293-4      000130
1007421060307COBR_CAUC_COR  ROTHENBERG COMERCIO DE PERFUMES E C     005753951000317DOTCOM GROUP COMERCIO DE PRESENTES      912 SUL ALEMEDA 07 QL E LTES 5 9 LJ 2   PALMAS                                  77023482TO431670000202082437RR4096950C  02072013800UNIBANCO S/A        3008201300000000011562487CC                                                                                                                                                                                                                                                                                                                                                                                           249293-5      000131
1008421022819COBR_CAUC_COR  SM FOMENTO COMERCIAL LTDA               015784771000194CRISTAL REPRESENTACAO DE ACUCAR LT      R TAB JOSE C DANTAS 515                 S JOAO RIO DO P                         58910000PB43164000010002409224.554      18072013900BRADESCO S/A        1609201300000000014500000CC                                                                                                                                                                                                                                                                                                                                                                                           249293-6      000132
1028421001518COBR_CAUC_COR  GAIA AGRIBUSINESS AGRICOLA LTDA         000037457080082SILVIO ARANTES DE OLIVEIRA              AV MINAS GERAIS,1380                    GOIATUBA                                75600000GO43191000010291107339445       22072013900BRADESCO S/A        1501201400000000015232000CC                                                                                                                                                                                                                                                                                                                                                                                           249295-1      000133
1028421001518COBR_CAUC_COR  GAIA AGRIBUSINESS AGRICOLA LTDA         000060707569672ALESSANDRO VILARINHO PRUDENCIO          RUA RIO NEGRO ,1397                     GOIATUBA                                75600000GO43193000010291106539446       22072013900BRADESCO S/A        1801201400000000014860000CC                                                                                                                                                                                                                                                                                                                                                                                           249295-2      000134
1028421001518COBR_CAUC_COR  GAIA AGRIBUSINESS AGRICOLA LTDA         000048494836153JOSE ADONIZETE DA COSTA                 AV SANTA CATARINA ,180                  GOIATUBA                                75600000GO43192000010291105739419       19072013900BRADESCO S/A        1001201400000000011500000CC                                                                                                                                                                                                                                                                                                                                                                                           249295-3      000135
1022421009579COBR_CAUC_BIC  LOREN-SID LTDA                          004920658000172NORTE REFRIGERACAO LTDA                 TRAVESSA SAO PEDRO, 165                 BELEM                                   66023570PA43217000010457807342070       05072013050BELEM               1010201300000000000839746CC                                                                                                                                                                                                                                                                                                                                                                                           249295-4      000136
1022421009579COBR_CAUC_BIC  LOREN-SID LTDA                          004920658000172NORTE REFRIGERACAO LTDA                 TRAVESSA SAO PEDRO, 165                 BELEM                                   66023570PA43217000020457781642022       28062013050BELEM               0310201300000000000763080CC                                                                                                                                                                                                                                                                                                                                                                                           249295-5      000137
1022421009579COBR_CAUC_BIC  LOREN-SID LTDA                          004920658000172NORTE REFRIGERACAO LTDA                 TRAVESSA SAO PEDRO, 165                 BELEM                                   66023570PA43217000030457782442022       28062013050BELEM               0211201300000000000763080CC                                                                                                                                                                                                                                                                                                                                                                                           249295-6      000138
1022421009579COBR_CAUC_BIC  LOREN-SID LTDA                          004920658000172NORTE REFRIGERACAO LTDA                 TRAVESSA SAO PEDRO, 165                 BELEM                                   66023570PA43217000040457851142022       28062013050BELEM               0212201300000000000763080CC                                                                                                                                                                                                                                                                                                                                                                                           249295-7      000139
1022421009579COBR_CAUC_BIC  LOREN-SID LTDA                          004920658000172NORTE REFRIGERACAO LTDA                 TRAVESSA SAO PEDRO, 165                 BELEM                                   66023570PA43217000050457852942022       28062013050BELEM               0101201400000000000763080CC                                                                                                                                                                                                                                                                                                                                                                                           249295-8      000140
1022421009579COBR_CAUC_BIC  LOREN-SID LTDA                          004920658000172NORTE REFRIGERACAO LTDA                 TRAVESSA SAO PEDRO, 165                 BELEM                                   66023570PA43217000060457853742022       28062013050BELEM               3101201400000000000763080CC                                                                                                                                                                                                                                                                                                                                                                                           249295-9      000141
1022421009579COBR_CAUC_BIC  LOREN-SID LTDA                          004920658000172NORTE REFRIGERACAO LTDA                 TRAVESSA SAO PEDRO, 165                 BELEM                                   66023570PA43217000070457854542064       05072013050BELEM               1009201300000000000718242CC                                                                                                                                                                                                                                                                                                                                                                                           249295-10     000142
