0REMESSANOTIFICAÇÃO ELETRONICA        99999999999999Bicbanco S/A                            Avenida Paulista                        1048      12º andar BELA VISTA                    SÃO PAULO                     01310100SPBicbanco S/A                                                                    01122010                                                                                                                                                                                                                                                                                                                                                                                                000001
1022421004755COBR_CAUC_COR  FRIGOL S.A. EM RECUPERACAO JUDICIAL     004449150000138FRIPAR INDUSTRIA E COMERCIO DE CAR      AV PRES. RANIERI MAZZILI, 1022          NATAL                                   59074185RN2523100001001008294955        29112010900BRADESCO S/A        0612201000000000012543206CC                                                                                                                                                                                                                                                                                                                                                                                           116892-1      000002
1028421001518COBR_CAUC_COR  GAIA AGRIBUSINESS AGRICOLA LTDA         000043509819187REGINALDO JOSE COELHO                   RUA OLIVIO A RIBEIRO,68                 ITUMBIARA                               75503970GO2523200001026741012559        24112010900BRADESCO S/A        2005201100000000013382250CC                                                                                                                                                                                                                                                                                                                                                                                           116892-2      000003
1028421001518COBR_CAUC_COR  GAIA AGRIBUSINESS AGRICOLA LTDA         000064140130130VINICIUS VIEIRA LOPES                   RUA TAPAJOS ,712                        GOIATUBA                                75600000GO2523300001026741102562        24112010600HSBC BANK BRASIL    2005201100000000013789008CC                                                                                                                                                                                                                                                                                                                                                                                           116892-3      000004
1028421001518COBR_CAUC_COR  GAIA AGRIBUSINESS AGRICOLA LTDA         000082255210134CRISTIANO LOPES ARANTES                 RUA URUGUAI,85                          ITUMBIARA                               75503970GO2523400001026740802557        24112010900BRADESCO S/A        2005201100000000013569060CC                                                                                                                                                                                                                                                                                                                                                                                           116892-4      000005
1028421001518COBR_CAUC_COR  GAIA AGRIBUSINESS AGRICOLA LTDA         000087074516104ANA PAULA REZENDE VILARINHO PRUDEN      RUA RIO NEGRO,1397                      GOIATUBA                                75600000GO2523500001026740982558        24112010600HSBC BANK BRASIL    2005201100000000014760036CC                                                                                                                                                                                                                                                                                                                                                                                           116892-5      000006
9000005                                                                                                                                                                                                                                                                                                                                                                                                                                                                                                                                                                                                                                                                                                               000007
