0REMESSANOTIFICAÇÃO ELETRONICA        99999999999999Bicbanco S/A                            Avenida Paulista                        1048      12º andar BELA VISTA                    SÃO PAULO                     01310100SPBicbanco S/A                                                                    14072011                                                                                                                                                                                                                                                                                                                                                                                                000001
1016421019267COBR_CAUC_COR  COBRAZEM AGROINDUSTRIAL LTDA            084874726000496KAEFER AGRO INDUSTRIAL                  RUA MATE LARANJEIRAS,0                  TOLEDO                                  85900000PR2896400001031151170000036-01  28062011800UNIBANCO S/A        2807201100000000026750000CC                                                                                                                                                                                                                                                                                                                                                                                           136957-1      000002
1008421005590COBR_CAUC_BIC  MM MONTEIRO PESCA E EXPORTACAO LTDA     008999770000282NUTRIMAR* INDUSTRIA DE PESCADOS LT      AV DOM LUIS,1200-11O ANDAR              FORTALEZA                               60160230CE28983000010838145599 A        06072011003CENTRO              2008201100000000004964000CC                                                                                                                                                                                                                                                                                                                                                                                           136957-2      000003
1008421005590COBR_CAUC_BIC  MM MONTEIRO PESCA E EXPORTACAO LTDA     008999770000282NUTRIMAR* INDUSTRIA DE PESCADOS LT      AV DOM LUIS,1200-11O ANDAR              FORTALEZA                               60160230CE28983000020838146399 B        06072011003CENTRO              0409201100000000004964000CC                                                                                                                                                                                                                                                                                                                                                                                           136957-3      000004
1008421005590COBR_CAUC_BIC  MM MONTEIRO PESCA E EXPORTACAO LTDA     008999770000282NUTRIMAR* INDUSTRIA DE PESCADOS LT      AV DOM LUIS,1200-11O ANDAR              FORTALEZA                               60160230CE28983000030838147199 C        06072011003CENTRO              1909201100000000004964000CC                                                                                                                                                                                                                                                                                                                                                                                           136957-4      000005
1008421005590COBR_CAUC_BIC  MM MONTEIRO PESCA E EXPORTACAO LTDA     008999770000282NUTRIMAR* INDUSTRIA DE PESCADOS LT      AV DOM LUIS,1200-11O ANDAR              FORTALEZA                               60160230CE28983000040838148099 D        06072011003CENTRO              0410201100000000004964000CC                                                                                                                                                                                                                                                                                                                                                                                           136957-5      000006
1008421005590COBR_CAUC_BIC  MM MONTEIRO PESCA E EXPORTACAO LTDA     008999770000282NUTRIMAR* INDUSTRIA DE PESCADOS LT      AV DOM LUIS,1200-11O ANDAR              FORTALEZA                               60160230CE28983000050838149899 E        06072011003CENTRO              1910201100000000004964000CC                                                                                                                                                                                                                                                                                                                                                                                           136957-6      000007
1008421005590COBR_CAUC_BIC  MM MONTEIRO PESCA E EXPORTACAO LTDA     004116659000169COMERCIO DE PESCADOS CINFAES DO DO      RUA COSTA FERREIRA,148-GALPAO 04        RIO DE JANEIRO                          20221240RJ289840000108381382124 A       07072011014RIO DE JANEIRO      0608201100000000004571429CC                                                                                                                                                                                                                                                                                                                                                                                           136957-7      000008
1008421005590COBR_CAUC_BIC  MM MONTEIRO PESCA E EXPORTACAO LTDA     004116659000169COMERCIO DE PESCADOS CINFAES DO DO      RUA COSTA FERREIRA,148-GALPAO 04        RIO DE JANEIRO                          20221240RJ289840000208381391124 B       07072011014RIO DE JANEIRO      1608201100000000004571429CC                                                                                                                                                                                                                                                                                                                                                                                           136957-8      000009
1008421005590COBR_CAUC_BIC  MM MONTEIRO PESCA E EXPORTACAO LTDA     004116659000169COMERCIO DE PESCADOS CINFAES DO DO      RUA COSTA FERREIRA,148-GALPAO 04        RIO DE JANEIRO                          20221240RJ289840000308381404124 C       07072011014RIO DE JANEIRO      2608201100000000004571429CC                                                                                                                                                                                                                                                                                                                                                                                           136957-9      000010
1008421005590COBR_CAUC_BIC  MM MONTEIRO PESCA E EXPORTACAO LTDA     004116659000169COMERCIO DE PESCADOS CINFAES DO DO      RUA COSTA FERREIRA,148-GALPAO 04        RIO DE JANEIRO                          20221240RJ289840000408381412124 D       07072011014RIO DE JANEIRO      0509201100000000004571429CC                                                                                                                                                                                                                                                                                                                                                                                           136957-10     000011
1008421005590COBR_CAUC_BIC  MM MONTEIRO PESCA E EXPORTACAO LTDA     004116659000169COMERCIO DE PESCADOS CINFAES DO DO      RUA COSTA FERREIRA,148-GALPAO 04        RIO DE JANEIRO                          20221240RJ289840000508381421124 E       07072011014RIO DE JANEIRO      1509201100000000004571428CC                                                                                                                                                                                                                                                                                                                                                                                           136957-11     000012
1008421005590COBR_CAUC_BIC  MM MONTEIRO PESCA E EXPORTACAO LTDA     004116659000169COMERCIO DE PESCADOS CINFAES DO DO      RUA COSTA FERREIRA,148-GALPAO 04        RIO DE JANEIRO                          20221240RJ289840000608381439124 F       07072011014RIO DE JANEIRO      2509201100000000004571428CC                                                                                                                                                                                                                                                                                                                                                                                           136957-12     000013
1008421005590COBR_CAUC_BIC  MM MONTEIRO PESCA E EXPORTACAO LTDA     004116659000169COMERCIO DE PESCADOS CINFAES DO DO      RUA COSTA FERREIRA,148-GALPAO 04        RIO DE JANEIRO                          20221240RJ289840000708381447124 G       07072011014RIO DE JANEIRO      0510201100000000004571428CC                                                                                                                                                                                                                                                                                                                                                                                           136957-13     000014
1008421005590COBR_CAUC_COR  MM MONTEIRO PESCA E EXPORTACAO LTDA     008624749000111DE NARDI & PIFFER* LTDA ME              AV JERUSALEM,69                         CARIACICA                               29145620ES289850000108366561DN 3006 A   30062011800UNIBANCO S/A        0708201100000000007457500CC                                                                                                                                                                                                                                                                                                                                                                                           136957-14     000015
1008421005590COBR_CAUC_COR  MM MONTEIRO PESCA E EXPORTACAO LTDA     008624749000111DE NARDI & PIFFER* LTDA ME              AV JERUSALEM,69                         CARIACICA                               29145620ES289850000208366570DN 3006 B   30062011800UNIBANCO S/A        2708201100000000007457500CC                                                                                                                                                                                                                                                                                                                                                                                           136957-15     000016
1008421005590COBR_CAUC_COR  MM MONTEIRO PESCA E EXPORTACAO LTDA     008624749000111DE NARDI & PIFFER* LTDA ME              AV JERUSALEM,69                         CARIACICA                               29145620ES289850000308366588DN 3006 C   30062011800UNIBANCO S/A        1609201100000000007457500CC                                                                                                                                                                                                                                                                                                                                                                                           136957-16     000017
1008421005590COBR_CAUC_COR  MM MONTEIRO PESCA E EXPORTACAO LTDA     008624749000111DE NARDI & PIFFER* LTDA ME              AV JERUSALEM,69                         CARIACICA                               29145620ES289850000408366596DN 3006 D   30062011800UNIBANCO S/A        0610201100000000007457500CC                                                                                                                                                                                                                                                                                                                                                                                           136957-17     000018
1008421005590COBR_CAUC_COR  MM MONTEIRO PESCA E EXPORTACAO LTDA     008624749000111DE NARDI & PIFFER* LTDA ME              AV JERUSALEM,69                         CARIACICA                               29145620ES289850000508377181DN 0607 A   06072011800UNIBANCO S/A        1708201100000000004764900CC                                                                                                                                                                                                                                                                                                                                                                                           136957-18     000019
1008421005590COBR_CAUC_COR  MM MONTEIRO PESCA E EXPORTACAO LTDA     008624749000111DE NARDI & PIFFER* LTDA ME              AV JERUSALEM,69                         CARIACICA                               29145620ES289850000608377199DN 0607 B   06072011800UNIBANCO S/A        0109201100000000004764900CC                                                                                                                                                                                                                                                                                                                                                                                           136957-19     000020
1008421005590COBR_CAUC_COR  MM MONTEIRO PESCA E EXPORTACAO LTDA     008624749000111DE NARDI & PIFFER* LTDA ME              AV JERUSALEM,69                         CARIACICA                               29145620ES289850000708377202DN 0607 C   06072011800UNIBANCO S/A        1609201100000000004764900CC                                                                                                                                                                                                                                                                                                                                                                                           136957-20     000021
1008421005590COBR_CAUC_COR  MM MONTEIRO PESCA E EXPORTACAO LTDA     008624749000111DE NARDI & PIFFER* LTDA ME              AV JERUSALEM,69                         CARIACICA                               29145620ES289850000808377211DN 0607 D   06072011800UNIBANCO S/A        0110201100000000004764900CC                                                                                                                                                                                                                                                                                                                                                                                           136957-21     000022
1008421005590COBR_CAUC_COR  MM MONTEIRO PESCA E EXPORTACAO LTDA     008624749000111DE NARDI & PIFFER* LTDA ME              AV JERUSALEM,69                         CARIACICA                               29145620ES289850000908377229DN 0607 E   06072011800UNIBANCO S/A        1610201100000000004764900CC                                                                                                                                                                                                                                                                                                                                                                                           136957-22     000023
1006420932150COBR_CAUC_COR  FIOTEX INDUSTRIAL S/A                   054514294000875OLIVEIRA & LOPES LTDA                   AV. MARIA APARECIDA SIRIA1000           IBITINGA                                14940000SP2898600001085778260001041801  11072011800UNIBANCO S/A        0308201100000000015122743CC                                                                                                                                                                                                                                                                                                                                                                                           137064-1      000024
1031421007850COBR_CAUC_BIC  AGRICOLA JANDELLE S/A                   003083231000790CEMA CENTRAL MINEIRA ATACADISTA LT      ROD BR 040 KM 688 S/N PAVILHAO 05 CEASA CONTAGEM                                32145900MG2898700001048984760018604001  08072011019BELO HORIZONTE      0808201100000000012539150CC                                                                                                                                                                                                                                                                                                                                                                                           137064-2      000025
1016421000833COBR_CAUC_COR  SPERAFICO AGROINDUSTRIAL LTDA           004463344000198COOPERATIVA AGROINDUSTRIAL AGUAS F      AVENIDA ANITA BOARO,502-CENTRO          AGUAS FRIAS                             89843000SC2898800001031161640004223-01  12072011800UNIBANCO S/A        1108201100000000028000000CC                                                                                                                                                                                                                                                                                                                                                                                           137064-3      000026
1048421000354COBR_CAUC_COR  FRIGOL S.A. EM RECUPERACAO JUDICIAL     007042642000100FRINENSE ALIMENTOS LTDA                 AV ZOELHO SOLA, 44                      ITAPERUNA                               28300000RJ2898900001001728207275        12072011900BRADESCO S/A        1907201100000000012666915CC                                                                                                                                                                                                                                                                                                                                                                                           137064-4      000027
9000026                                                                                                                                                                                                                                                                                                                                                                                                                                                                                                                                                                                                                                                                                                               000028
