0REMESSANOTIFICAÇÃO ELETRONICA        99999999999999Bicbanco S/A                            Avenida Brigadeiro Faria Lima           4.440     2º andar  Itaim Bibi                    São Paulo                     04538132SPBicbanco S/A                                                                    19122012                                                                                                                                                                                                                                                                                                                                                                                                000001
1031421007850COBR_CAUC_BIC  AGRICOLA JANDELLE S/A                   011224864000103REAL FOODS COMERCIO ATAC DE GEN AL      AVENIDA DAS AMERICAS 8445 SALA 1109     RIO DE JANEIRO                          22793081RJ3929700001051381570021764501  11122012014RIO DE JANEIRO      0801201300000000016070400CC                                                                                                                                                                                                                                                                                                                                                                                           211626-1      000002
1046421001443COBR_CAUC_COR  COSTAO DO SANTINHO TUR E LAZER LTDA     004041933000188PHILIP MORRIS BRASIL IND COMERCIO       AVENIDA JOAO GUALBERTO,241              CURITIBA                                80030000PR39299000010000892712122012    12122012900BRADESCO S/A        1712201200000000018934592CC                                                                                                                                                                                                                                                                                                                                                                                           211626-2      000003
1007421009131COBR_CAUC_BIC  CR ZONGSHEN FABRIC. DE VEICULOS S/A     013504205000156MARE MANSA MOTOS LTDA                   AVENIDA PILOTO PEREIRA TIM, 681         PARNAMIRIM                              59146480RN3929800001016181390000170183  27112012044NATAL               2812201200000000016102196CC                                                                                                                                                                                                                                                                                                                                                                                           211626-3      000004
1007421009131COBR_CAUC_BIC  CR ZONGSHEN FABRIC. DE VEICULOS S/A     013504205000156MARE MANSA MOTOS LTDA                   AVENIDA PILOTO PEREIRA TIM, 681         PARNAMIRIM                              59146480RN3929800002016181210000170191  27112012800NATAL               2812201200000000016102196CC                                                                                                                                                                                                                                                                                                                                                                                           211626-4      000005
1007421009131COBR_CAUC_BIC  CR ZONGSHEN FABRIC. DE VEICULOS S/A     013504205000156MARE MANSA MOTOS LTDA                   AVENIDA PILOTO PEREIRA TIM, 681         PARNAMIRIM                              59146480RN3929800003016183090000170827  30112012800NATAL               3112201200000000010627449CC                                                                                                                                                                                                                                                                                                                                                                                           211626-5      000006
1007421009131COBR_CAUC_BIC  CR ZONGSHEN FABRIC. DE VEICULOS S/A     013504205000156MARE MANSA MOTOS LTDA                   AVENIDA PILOTO PEREIRA TIM, 681         PARNAMIRIM                              59146480RN3929800004016183170000170828  30112012800NATAL               3112201200000000016102196CC                                                                                                                                                                                                                                                                                                                                                                                           211626-6      000007
1020421001717COBR_CAUC_BIC  H-BUSTER DA AMAZONIA IND COM LTDA       047960950003902MAGAZINE LUIZA S/A - CD050              RUA DO COMERCIO,1924                    FRANCA                                  14400660SP393020000106273622021858.1/1  07122012022RIBEIRAO PRETO      2203201300000000029475000CC                                                                                                                                                                                                                                                                                                                                                                                           211626-7      000008
1020421001717COBR_CAUC_BIC  H-BUSTER DA AMAZONIA IND COM LTDA       047960950003902MAGAZINE LUIZA S/A - CD050              RUA DO COMERCIO,1924                    FRANCA                                  14400660SP393020000206273631021859.1/1  07122012022RIBEIRAO PRETO      2203201300000000029475000CC                                                                                                                                                                                                                                                                                                                                                                                           211626-8      000009
1020421001717COBR_CAUC_BIC  H-BUSTER DA AMAZONIA IND COM LTDA       047960950003902MAGAZINE LUIZA S/A - CD050              RUA DO COMERCIO,1924                    FRANCA                                  14400660SP393020000306273649021860.1/1  07122012022RIBEIRAO PRETO      2203201300000000029475000CC                                                                                                                                                                                                                                                                                                                                                                                           211626-9      000010
1020421001717COBR_CAUC_BIC  H-BUSTER DA AMAZONIA IND COM LTDA       047960950003902MAGAZINE LUIZA S/A - CD050              RUA DO COMERCIO,1924                    FRANCA                                  14400660SP393020000406273665021862.1/1  07122012022RIBEIRAO PRETO      2803201300000000029475000CC                                                                                                                                                                                                                                                                                                                                                                                           211626-10     000011
1020421001717COBR_CAUC_BIC  H-BUSTER DA AMAZONIA IND COM LTDA       047960950003902MAGAZINE LUIZA S/A - CD050              RUA DO COMERCIO,1924                    FRANCA                                  14400660SP393020000506273673021863.1/1  07122012022RIBEIRAO PRETO      2803201300000000029475000CC                                                                                                                                                                                                                                                                                                                                                                                           211626-11     000012
1020421001717COBR_CAUC_BIC  H-BUSTER DA AMAZONIA IND COM LTDA       047960950003902MAGAZINE LUIZA S/A - CD050              RUA DO COMERCIO,1924                    FRANCA                                  14400660SP393020000606273681021864.1/1  07122012022RIBEIRAO PRETO      2803201300000000023580000CC                                                                                                                                                                                                                                                                                                                                                                                           211626-12     000013
1020421001717COBR_CAUC_BIC  H-BUSTER DA AMAZONIA IND COM LTDA       047960950003902MAGAZINE LUIZA S/A - CD050              RUA DO COMERCIO,1924                    FRANCA                                  14400660SP393020000706273690021865.1/1  07122012022RIBEIRAO PRETO      2803201300000000029475000CC                                                                                                                                                                                                                                                                                                                                                                                           211626-13     000014
1020421001717COBR_CAUC_BIC  H-BUSTER DA AMAZONIA IND COM LTDA       047960950003902MAGAZINE LUIZA S/A - CD050              RUA DO COMERCIO,1924                    FRANCA                                  14400660SP393020000806273703021866.1/1  07122012022RIBEIRAO PRETO      2803201300000000029475000CC                                                                                                                                                                                                                                                                                                                                                                                           211626-14     000015
1020421001717COBR_CAUC_BIC  H-BUSTER DA AMAZONIA IND COM LTDA       047960950003902MAGAZINE LUIZA S/A - CD050              RUA DO COMERCIO,1924                    FRANCA                                  14400660SP393020000906273711021867.1/1  07122012022RIBEIRAO PRETO      2803201300000000017685000CC                                                                                                                                                                                                                                                                                                                                                                                           211626-15     000016
1020421001717COBR_CAUC_BIC  H-BUSTER DA AMAZONIA IND COM LTDA       047960950003902MAGAZINE LUIZA S/A - CD050              RUA DO COMERCIO,1924                    FRANCA                                  14400660SP393020001006273720021929.1/1  10122012022RIBEIRAO PRETO      1803201300000000030320000CC                                                                                                                                                                                                                                                                                                                                                                                           211626-16     000017
1020421001717COBR_CAUC_BIC  H-BUSTER DA AMAZONIA IND COM LTDA       047960950003902MAGAZINE LUIZA S/A - CD050              RUA DO COMERCIO,1924                    FRANCA                                  14400660SP393020001106273738021930.1/1  10122012022RIBEIRAO PRETO      1803201300000000030320000CC                                                                                                                                                                                                                                                                                                                                                                                           211626-17     000018
1020421001717COBR_CAUC_BIC  H-BUSTER DA AMAZONIA IND COM LTDA       047960950003902MAGAZINE LUIZA S/A - CD050              RUA DO COMERCIO,1924                    FRANCA                                  14400660SP393020001206273746021931.1/1  10122012022RIBEIRAO PRETO      1803201300000000028804000CC                                                                                                                                                                                                                                                                                                                                                                                           211626-18     000019
1020421001717COBR_CAUC_BIC  H-BUSTER DA AMAZONIA IND COM LTDA       047960950003902MAGAZINE LUIZA S/A - CD050              RUA DO COMERCIO,1924                    FRANCA                                  14400660SP393020001306273754021932.1/1  10122012022RIBEIRAO PRETO      1803201300000000028804000CC                                                                                                                                                                                                                                                                                                                                                                                           211626-19     000020
1020421001717COBR_CAUC_BIC  H-BUSTER DA AMAZONIA IND COM LTDA       047960950003902MAGAZINE LUIZA S/A - CD050              RUA DO COMERCIO,1924                    FRANCA                                  14400660SP393020001406273771021934.1/1  10122012022RIBEIRAO PRETO      1803201300000000030320000CC                                                                                                                                                                                                                                                                                                                                                                                           211626-20     000021
1020421001717COBR_CAUC_BIC  H-BUSTER DA AMAZONIA IND COM LTDA       047960950003902MAGAZINE LUIZA S/A - CD050              RUA DO COMERCIO,1924                    FRANCA                                  14400660SP393020001506273789021935.1/1  10122012022RIBEIRAO PRETO      2503201300000000028804000CC                                                                                                                                                                                                                                                                                                                                                                                           211626-21     000022
1020421001717COBR_CAUC_BIC  H-BUSTER DA AMAZONIA IND COM LTDA       047960950003902MAGAZINE LUIZA S/A - CD050              RUA DO COMERCIO,1924                    FRANCA                                  14400660SP393020001606273797021936.1/1  10122012022RIBEIRAO PRETO      2503201300000000028804000CC                                                                                                                                                                                                                                                                                                                                                                                           211626-22     000023
1020421001717COBR_CAUC_BIC  H-BUSTER DA AMAZONIA IND COM LTDA       047960950003902MAGAZINE LUIZA S/A - CD050              RUA DO COMERCIO,1924                    FRANCA                                  14400660SP393020001706273801021937.1/1  10122012022RIBEIRAO PRETO      2503201300000000018192000CC                                                                                                                                                                                                                                                                                                                                                                                           211626-23     000024
1020421001717COBR_CAUC_BIC  H-BUSTER DA AMAZONIA IND COM LTDA       047960950003902MAGAZINE LUIZA S/A - CD050              RUA DO COMERCIO,1924                    FRANCA                                  14400660SP393020001806273819021939.1/1  10122012022RIBEIRAO PRETO      2503201300000000030320000CC                                                                                                                                                                                                                                                                                                                                                                                           211626-24     000025
1020421001717COBR_CAUC_BIC  H-BUSTER DA AMAZONIA IND COM LTDA       047960950003902MAGAZINE LUIZA S/A - CD050              RUA DO COMERCIO,1924                    FRANCA                                  14400660SP393020001906273827021940.1/1  10122012022RIBEIRAO PRETO      0104201300000000030320000CC                                                                                                                                                                                                                                                                                                                                                                                           211626-25     000026
1020421001717COBR_CAUC_BIC  H-BUSTER DA AMAZONIA IND COM LTDA       047960950003902MAGAZINE LUIZA S/A - CD050              RUA DO COMERCIO,1924                    FRANCA                                  14400660SP393020002006273835021941.1/1  10122012022RIBEIRAO PRETO      0104201300000000015160000CC                                                                                                                                                                                                                                                                                                                                                                                           211626-26     000027
1020421001717COBR_CAUC_BIC  H-BUSTER DA AMAZONIA IND COM LTDA       047960950003902MAGAZINE LUIZA S/A - CD050              RUA DO COMERCIO,1924                    FRANCA                                  14400660SP393020002106273843021942.1/1  10122012022RIBEIRAO PRETO      1803201300000000030320000CC                                                                                                                                                                                                                                                                                                                                                                                           211626-27     000028
1020421001717COBR_CAUC_BIC  H-BUSTER DA AMAZONIA IND COM LTDA       047960950003902MAGAZINE LUIZA S/A - CD050              RUA DO COMERCIO,1924                    FRANCA                                  14400660SP393020002206273851021943.1/1  10122012022RIBEIRAO PRETO      1803201300000000030320000CC                                                                                                                                                                                                                                                                                                                                                                                           211626-28     000029
1020421001717COBR_CAUC_BIC  H-BUSTER DA AMAZONIA IND COM LTDA       047960950003902MAGAZINE LUIZA S/A - CD050              RUA DO COMERCIO,1924                    FRANCA                                  14400660SP393020002306273860021944.1/1  10122012022RIBEIRAO PRETO      1803201300000000028804000CC                                                                                                                                                                                                                                                                                                                                                                                           211626-29     000030
1020421001717COBR_CAUC_BIC  H-BUSTER DA AMAZONIA IND COM LTDA       047960950003902MAGAZINE LUIZA S/A - CD050              RUA DO COMERCIO,1924                    FRANCA                                  14400660SP393020002406273886021946.1/1  10122012022RIBEIRAO PRETO      2503201300000000030320000CC                                                                                                                                                                                                                                                                                                                                                                                           211626-30     000031
1020421001717COBR_CAUC_BIC  H-BUSTER DA AMAZONIA IND COM LTDA       047960950003902MAGAZINE LUIZA S/A - CD050              RUA DO COMERCIO,1924                    FRANCA                                  14400660SP393020002506273894021947.1/1  10122012022RIBEIRAO PRETO      2503201300000000030320000CC                                                                                                                                                                                                                                                                                                                                                                                           211626-31     000032
1020421001717COBR_CAUC_BIC  H-BUSTER DA AMAZONIA IND COM LTDA       047960950003902MAGAZINE LUIZA S/A - CD050              RUA DO COMERCIO,1924                    FRANCA                                  14400660SP393020002606273908021948.1/1  10122012022RIBEIRAO PRETO      2503201300000000028804000CC                                                                                                                                                                                                                                                                                                                                                                                           211626-32     000033
1020421001717COBR_CAUC_BIC  H-BUSTER DA AMAZONIA IND COM LTDA       047960950003902MAGAZINE LUIZA S/A - CD050              RUA DO COMERCIO,1924                    FRANCA                                  14400660SP393020002706273916021949.1/1  10122012022RIBEIRAO PRETO      2503201300000000024256000CC                                                                                                                                                                                                                                                                                                                                                                                           211626-33     000034
1020421001717COBR_CAUC_BIC  H-BUSTER DA AMAZONIA IND COM LTDA       047960950003902MAGAZINE LUIZA S/A - CD050              RUA DO COMERCIO,1924                    FRANCA                                  14400660SP393020002806273924021950.1/1  10122012022RIBEIRAO PRETO      2503201300000000030320000CC                                                                                                                                                                                                                                                                                                                                                                                           211626-34     000035
1020421001717COBR_CAUC_BIC  H-BUSTER DA AMAZONIA IND COM LTDA       047960950003902MAGAZINE LUIZA S/A - CD050              RUA DO COMERCIO,1924                    FRANCA                                  14400660SP393020002906273932021951.1/1  10122012022RIBEIRAO PRETO      0104201300000000030320000CC                                                                                                                                                                                                                                                                                                                                                                                           211626-35     000036
1020421001717COBR_CAUC_BIC  H-BUSTER DA AMAZONIA IND COM LTDA       047960950003902MAGAZINE LUIZA S/A - CD050              RUA DO COMERCIO,1924                    FRANCA                                  14400660SP393020003006273941021952.1/1  10122012022RIBEIRAO PRETO      0104201300000000030320000CC                                                                                                                                                                                                                                                                                                                                                                                           211626-36     000037
1020421001717COBR_CAUC_BIC  H-BUSTER DA AMAZONIA IND COM LTDA       047960950003902MAGAZINE LUIZA S/A - CD050              RUA DO COMERCIO,1924                    FRANCA                                  14400660SP393020003106273959021953.1/1  10122012022RIBEIRAO PRETO      0104201300000000030320000CC                                                                                                                                                                                                                                                                                                                                                                                           211626-37     000038
1020421001717COBR_CAUC_BIC  H-BUSTER DA AMAZONIA IND COM LTDA       047960950003902MAGAZINE LUIZA S/A - CD050              RUA DO COMERCIO,1924                    FRANCA                                  14400660SP393020003206273967021954.1/1  10122012022RIBEIRAO PRETO      0104201300000000028804000CC                                                                                                                                                                                                                                                                                                                                                                                           211626-38     000039
1020421001717COBR_CAUC_BIC  H-BUSTER DA AMAZONIA IND COM LTDA       047960950003902MAGAZINE LUIZA S/A - CD050              RUA DO COMERCIO,1924                    FRANCA                                  14400660SP393020003306273975021955.1/1  10122012022RIBEIRAO PRETO      0104201300000000028804000CC                                                                                                                                                                                                                                                                                                                                                                                           211626-39     000040
1020421001717COBR_CAUC_BIC  H-BUSTER DA AMAZONIA IND COM LTDA       047960950003902MAGAZINE LUIZA S/A - CD050              RUA DO COMERCIO,1924                    FRANCA                                  14400660SP393020003406273983021956.1/1  10122012022RIBEIRAO PRETO      0104201300000000028804000CC                                                                                                                                                                                                                                                                                                                                                                                           211626-40     000041
1020421001717COBR_CAUC_BIC  H-BUSTER DA AMAZONIA IND COM LTDA       047960950003902MAGAZINE LUIZA S/A - CD050              RUA DO COMERCIO,1924                    FRANCA                                  14400660SP393020003506273991021957.1/1  10122012022RIBEIRAO PRETO      0104201300000000028804000CC                                                                                                                                                                                                                                                                                                                                                                                           211626-41     000042
1036421018985COBR_CAUC_BIC  PEEQFLEX INDUSTRIA E COMERCIO LTDA      075904383000636COAMO AGROINDUSTRIAL COOPERATIVA        Rua Fioravante Joao Ferri, 99           CAMPO MOURAO                            87308445PR3930100001059095486019397-01  11122012016CURITIBA            1101201300000000011092480CC                                                                                                                                                                                                                                                                                                                                                                                           211626-42     000043
1046421006020COBR_CAUC_BIC  RUELL IMPORTACAO E EXPORTACAO LTDA      004744781000341ADM COM. DE ROUPAS LTDA                 ALAMEDA STO AMARO,326                   SAO PAULO                               04745001SP3930000001017036611516/06     12122012007PAULISTA            1907201300000000012666033CC                                                                                                                                                                                                                                                                                                                                                                                           211626-43     000044
1046421006020COBR_CAUC_BIC  RUELL IMPORTACAO E EXPORTACAO LTDA      004744781000341ADM COM. DE ROUPAS LTDA                 ALAMEDA STO AMARO,326                   SAO PAULO                               04745001SP3930000002017037181516/07     12122012007PAULISTA            1908201300000000012666033CC                                                                                                                                                                                                                                                                                                                                                                                           211626-44     000045
9000044                                                                                                                                                                                                                                                                                                                                                                                                                                                                                                                                                                                                                                                                                                               000046
