0REMESSANOTIFICAÇÃO ELETRONICA        99999999999999Bicbanco S/A                            Avenida Brigadeiro Faria Lima           4.440     2º andar  Itaim Bibi                    São Paulo                     04538132SPBicbanco S/A                                                                    25022013                                                                                                                                                                                                                                                                                                                                                                                                000001
1024140518611COBR_CAUC_BIC  BIMETAL INDUSTRIA METALURGICA LTDA      059225698000196ZOPONE ENGENHARIA E COMERCIO LTDA       AV RODRIGUES ALVES, 34-53               BAURU                                   17030000SP404980000102008101003/2012    19022013048AGENCIA BAURU       1903201300000000041630211TD                                                                                                                                                                                                                                                                                                                                                                                           223204-1      000002
1038421011812COBR_CAUC_BIC  ENERGY COML IMPORT E EXPORT LTDA        014555032000168REPLAS COMERCIO DE RESINAS PLASTIC      AVENIDA PRESIDENTE WILSON ,5700         SAO PAULO                               04220002SP405000000100024888002488      18022013007PAULISTA            2003201300000000011566958CC                                                                                                                                                                                                                                                                                                                                                                                           223204-2      000003
1038421011812COBR_CAUC_BIC  ENERGY COML IMPORT E EXPORT LTDA        014555032000168REPLAS COMERCIO DE RESINAS PLASTIC      AVENIDA PRESIDENTE WILSON ,5700         SAO PAULO                               04220002SP405000000200024896002489      18022013007PAULISTA            2003201300000000011566958CC                                                                                                                                                                                                                                                                                                                                                                                           223204-3      000004
1038421011812COBR_CAUC_BIC  ENERGY COML IMPORT E EXPORT LTDA        014555032000168REPLAS COMERCIO DE RESINAS PLASTIC      AVENIDA PRESIDENTE WILSON ,5700         SAO PAULO                               04220002SP405000000300024900002490      18022013007PAULISTA            2003201300000000011566958CC                                                                                                                                                                                                                                                                                                                                                                                           223204-4      000005
1038421011812COBR_CAUC_BIC  ENERGY COML IMPORT E EXPORT LTDA        014555032000168REPLAS COMERCIO DE RESINAS PLASTIC      AVENIDA PRESIDENTE WILSON ,5700         SAO PAULO                               04220002SP405000000400024918002491      18022013007PAULISTA            2003201300000000011566958CC                                                                                                                                                                                                                                                                                                                                                                                           223204-5      000006
1038421011812COBR_CAUC_BIC  ENERGY COML IMPORT E EXPORT LTDA        014555032000168REPLAS COMERCIO DE RESINAS PLASTIC      AVENIDA PRESIDENTE WILSON ,5700         SAO PAULO                               04220002SP405000000500024926002492      18022013007PAULISTA            2003201300000000011566958CC                                                                                                                                                                                                                                                                                                                                                                                           223204-6      000007
1038421011812COBR_CAUC_BIC  ENERGY COML IMPORT E EXPORT LTDA        014555032000168REPLAS COMERCIO DE RESINAS PLASTIC      AVENIDA PRESIDENTE WILSON ,5700         SAO PAULO                               04220002SP405000000600024934002487      18022013007PAULISTA            2003201300000000011566958CC                                                                                                                                                                                                                                                                                                                                                                                           223204-7      000008
1024420934410COBR_CAUC_BIC  INTERCOOP INT SUIN MED NORTE MT LTD     004613751000487CRISTALFRIGO IND COM IMPORTACAO EX      AV DOS ANDRADAS ,2229-STA EFIGENIA      BELO HORIZONTE                          30120010MG40499000010200811994946       20022013019BELO HORIZONTE      2003201300000000013733367CC                                                                                                                                                                                                                                                                                                                                                                                           223204-8      000009
9000008                                                                                                                                                                                                                                                                                                                                                                                                                                                                                                                                                                                                                                                                                                               000010
