0REMESSANOTIFICA«√O ELETRONICA        99999999999999Bicbanco S/A                            Avenida Brigadeiro Faria Lima           4.440     2∫ andar  Itaim Bibi                    S„o Paulo                     04538132SPBicbanco S/A                                                                    22022013                                                                                                                                                                                                                                                                                                                                                                                                000001
1050421000089COBR_CAUC_BIC  ATIVO ALIMENTOS EXP E IMP EIRELI        011596442003427CARVALHO E FERNANDES LTDA               AVE DEPUTADO PAULO FERRAZ 4888          TERESINA                                64078820PI404040000100427291177707/1    16022013041TERESINA            1803201300000000015197165CC                                                                                                                                                                                                                                                                                                                                                                                           222788-1      000002
1046421007255COBR_CAUC_BIC  MAESTRO DO BRASIL IND METALUR LTDA      076639285000924FERRAGENS NEGRAO COMERCIAL LTDA         R. PROFESSOR ALGACYR M. MADER,,2800     CURITIBA - PR                           81310020PR40403000010177856426981-1/1   18022013016CURITIBA            1904201300000000010577733CC                                                                                                                                                                                                                                                                                                                                                                                           222788-2      000003
1049421001570COBR_CAUC_COR  MASTER AGROINDUSTRIAL LTDA              006173113000256FRIGODARIO COMERCIAL E LOGISTICA L       AV ANTONIO MARIO DE AZEVEDO, 3710      NOVA FRIBURGO                           28630310RJ4040500001003508950002627501  16022013900BRADESCO S/A        1803201300000000013881768CC                                                                                                                                                                                                                                                                                                                                                                                           222788-3      000004
1049421001570COBR_CAUC_COR  MASTER AGROINDUSTRIAL LTDA              061752739000144FRIGORIFICO PRIETO LTDA                 AV VER JOAQUIM P BARBOSA, 777           CAJAMAR                                 07750000SP4040600001003508790002627101  16022013900BRADESCO S/A        1803201300000000013365744CC                                                                                                                                                                                                                                                                                                                                                                                           222788-4      000005
1018420932820COBR_CAUC_COR  ADUBOS ARAGUAIA IND. E COM. LTDA        000007250127810CIRO PROCOPIO JUNIOR                    AV. JOSE MARIA VIEIRA 495               CATALAO                                 75700000GO4047400001030958040002778901  18022013800UNIBANCO S/A        3004201300000000010089450CC                                                                                                                                                                                                                                                                                                                                                                                           222996-1      000006
1006421012739COBR_CAUC_BIC  CTZ TOWER INDUSTRIA E COMERCIO LTDA     008146882000100SUZLON ENERGIAEOLICA DO BRASIL LTD      AV SENADOR VIRGILIO TAVORA 195          FORTALEZA                               60170250CE40481000010939925589          05122012006BEZERRA             2003201300000000077700000CC                                                                                                                                                                                                                                                                                                                                                                                           222996-2      000007
1032420934675COBR_CAUC_BIC  ELIANE S/A REVESTIMENTOS CERAMICOS      011250485000198TS PORT CORPORATE DESENVOLVIMENTO       AV RIO DE JANEIRO, 345 E 407            RIO DE JANEIRO                          20931675RJ404720000101402138DPL099547A  19022013014RIO DE JANEIRO      2904201300000000019076577CC                                                                                                                                                                                                                                                                                                                                                                                           222996-3      000008
1032420934675COBR_CAUC_BIC  ELIANE S/A REVESTIMENTOS CERAMICOS      011250485000198TS PORT CORPORATE DESENVOLVIMENTO       AV RIO DE JANEIRO, 345 E 407            RIO DE JANEIRO                          20931675RJ404720000201402146DPL099547B  19022013014RIO DE JANEIRO      2705201300000000019076576CC                                                                                                                                                                                                                                                                                                                                                                                           222996-4      000009
1019421013860COBR_CAUC_BIC  FERROSIDER METALMECANICA LTDA.          003400080000160VOITH HYDRO LTDA                        RUA FRIEDRICH VON VOITH,825             SAO PAULO                               02995000SP40479000010667368226003351-1  14022013007PAULISTA            0805201300000000032780474CC                                                                                                                                                                                                                                                                                                                                                                                           222996-5      000010
1019421013860COBR_CAUC_BIC  FERROSIDER METALMECANICA LTDA.          003400080000160VOITH HYDRO LTDA                        RUA FRIEDRICH VON VOITH,825             SAO PAULO                               02995000SP40479000020667369126003350-1  14022013007PAULISTA            0805201300000000031682914CC                                                                                                                                                                                                                                                                                                                                                                                           222996-6      000011
1019421013860COBR_CAUC_BIC  FERROSIDER METALMECANICA LTDA.          003400080000160VOITH HYDRO LTDA                        RUA FRIEDRICH VON VOITH,825             SAO PAULO                               02995000SP40479000030667370426003346-1  14022013007PAULISTA            0105201300000000032121938CC                                                                                                                                                                                                                                                                                                                                                                                           222996-7      000012
1019421013860COBR_CAUC_BIC  FERROSIDER METALMECANICA LTDA.          003400080000160VOITH HYDRO LTDA                        RUA FRIEDRICH VON VOITH,825             SAO PAULO                               02995000SP40479000040667371226003343-1  14022013007PAULISTA            2404201300000000032926816CC                                                                                                                                                                                                                                                                                                                                                                                           222996-8      000013
1019421013860COBR_CAUC_BIC  FERROSIDER METALMECANICA LTDA.          003400080000160VOITH HYDRO LTDA                        RUA FRIEDRICH VON VOITH,825             SAO PAULO                               02995000SP40479000050667372126003342-1  14022013007PAULISTA            2404201300000000031829255CC                                                                                                                                                                                                                                                                                                                                                                                           222996-9      000014
1019421013860COBR_CAUC_BIC  FERROSIDER METALMECANICA LTDA.          003400080000160VOITH HYDRO LTDA                        RUA FRIEDRICH VON VOITH,825             SAO PAULO                               02995000SP40479000060667373926003341-1  14022013007PAULISTA            2404201300000000033658523CC                                                                                                                                                                                                                                                                                                                                                                                           222996-10     000015
1019421013860COBR_CAUC_BIC  FERROSIDER METALMECANICA LTDA.          003400080000160VOITH HYDRO LTDA                        RUA FRIEDRICH VON VOITH,825             SAO PAULO                               02995000SP40479000070667374726003347-1  14022013007PAULISTA            0105201300000000031317060CC                                                                                                                                                                                                                                                                                                                                                                                           222996-11     000016
1037421008961COBR_CAUC_BIC  INTERMODAL BRASIL LOGISTICA LTDA        059275792008991GENERAL MOTORS DO BRASIL LTDA           R.JOAO PESSOA,714                       SAO CAETANO DO                          09520000SP40480000010459635268379       06022013038ABC                 2603201300000000013426585CC                                                                                                                                                                                                                                                                                                                                                                                           222996-12     000017
1037421008961COBR_CAUC_BIC  INTERMODAL BRASIL LOGISTICA LTDA        059275792008991GENERAL MOTORS DO BRASIL LTDA           R.JOAO PESSOA,714                       SAO CAETANO DO                          09520000SP40480000020459637968022       30012013038ABC                 1903201300000000017976656CC                                                                                                                                                                                                                                                                                                                                                                                           222996-13     000018
1037421008961COBR_CAUC_BIC  INTERMODAL BRASIL LOGISTICA LTDA        059275792008991GENERAL MOTORS DO BRASIL LTDA           R.JOAO PESSOA,714                       SAO CAETANO DO                          09520000SP40480000030459640967792       23012013038ABC                 1203201300000000017280430CC                                                                                                                                                                                                                                                                                                                                                                                           222996-14     000019
1018421034826COBR_CAUC_BIC  LACEL LATICINIOS CERES LTDA             011596442003427CARVALHO E FERNANDES LTDA               AV DEP PAULO FERRAZ N∫4.888 GALPAO:03   TERESINA                                64078820PI404730000103096401003546      06022013041TERESINA            0804201300000000026600000CC                                                                                                                                                                                                                                                                                                                                                                                           222996-15     000020
1018421034826COBR_CAUC_BIC  LACEL LATICINIOS CERES LTDA             011596442003427CARVALHO E FERNANDES LTDA               AV DEP PAULO FERRAZ N∫4.888 GALPAO:03   TERESINA                                64078820PI404730000203096410003549      06022013041TERESINA            1204201300000000026600000CC                                                                                                                                                                                                                                                                                                                                                                                           222996-16     000021
1018421034826COBR_CAUC_BIC  LACEL LATICINIOS CERES LTDA             011596442003427CARVALHO E FERNANDES LTDA               AV DEP PAULO FERRAZ N∫4.888 GALPAO:03   TERESINA                                64078820PI404730000303096428003593      16022013041TERESINA            0205201300000000024510000CC                                                                                                                                                                                                                                                                                                                                                                                           222996-17     000022
1021421012733COBR_CAUC_BIC  MABE BRASIL ELETRODOMESTICOS LTDA       009358108000710NOVA PONTOCOM COMERCIO ELETRONICO       RUA GOMES DE CARVALHO, 1609             S„O PAULO                               04547006SP4047700001063717410000988854  28012013007PAULISTA            1904201300000000012246030CC                                                                                                                                                                                                                                                                                                                                                                                           222996-18     000023
1021421012733COBR_CAUC_BIC  MABE BRASIL ELETRODOMESTICOS LTDA       009358108000710NOVA PONTOCOM COMERCIO ELETRONICO       RUA GOMES DE CARVALHO, 1609             S„O PAULO                               04547006SP4047700002063720540000983719  23012013007PAULISTA            1204201300000000010068782CC                                                                                                                                                                                                                                                                                                                                                                                           222996-19     000024
1021421012733COBR_CAUC_BIC  MABE BRASIL ELETRODOMESTICOS LTDA       009358108000710NOVA PONTOCOM COMERCIO ELETRONICO       RUA GOMES DE CARVALHO, 1609             S„O PAULO                               04547006SP4047700003063720890000985452  24012013007PAULISTA            1204201300000000010745410CC                                                                                                                                                                                                                                                                                                                                                                                           222996-20     000025
1020421001652COBR_CAUC_BIC  SANTHER FAB PAP STA THEREZINHA S/A      004641376003828SUPERMERCADOS BH COM DE ALIMENTOS       AV GERALDO ROCHA, 200                   CONTAGEM                                32183054MG404750000106295260044704901   11022013019BELO HORIZONTE      1803201300000000010833460CC                                                                                                                                                                                                                                                                                                                                                                                           222996-21     000026
1020421001652COBR_CAUC_COR  SANTHER FAB PAP STA THEREZINHA S/A      066471517000924DPC DISTRIBUIDOR ATACADISTA S/A         RODOVIA MG 329 KM 1,8                   CARATINGA                               35303136MG404760000106295278044854901   17022013800UNIBANCO S/A        0104201300000000012468849CC                                                                                                                                                                                                                                                                                                                                                                                           222996-22     000027
1031421009993COBR_CAUC_BIC  VAMOL INDUSTRIA MOVELEIRA LTDA          007105743001651POLO DO ELETRO COMERCIAL DE MOVEIS      CENTRAL 3,401                           MARACANAU                               61901410CE40478000010517889287258-1/1   15022013003CENTRO              1803201300000000010505225CC                                                                                                                                                                                                                                                                                                                                                                                           222996-23     000028
9000027                                                                                                                                                                                                                                                                                                                                                                                                                                                                                                                                                                                                                                                                                                               000029
