0REMESSANOTIFICAÇÃO ELETRONICA        99999999999999Bicbanco S/A                            Avenida Brigadeiro Faria Lima           4.440     2º andar  Itaim Bibi                    São Paulo                     04538132SPBicbanco S/A                                                                    22072014                                                                                                                                                                                                                                                                                                                                                                                                000001
1046421004914DIR_CREDIT     MR EMPREENDIMENTOS S A                  002474103000119TRACTEBEL ENERGIA S/A                   RUA PASCHOAL APOSTOLO PITSICA, Nº 5064  FLORIANOPOLIS                           88025255SC4846500001                                                                                                                                          012184052           300920100000015875            14072014000403Contraprestação pela ocupação e uso do imóvel Centro Empresarial JoséCarlos Daux,situado na Rua Pascoal Apostolo Pitsica s/n, Bairro Agronomica,Florianópolis/SC.                                                                               004031314000102311242-1      000002
1046421006070DIR_CREDIT     METALURGICA DS LTDA                     060857349000176TRW AUTOMOTIVE LTDA                     VIA ANHANGUERA KM 147                   LIMEIRA                                 13486915SP4846600001                                                                                                                                          012630591           260320070000018698            14072014000404fornecimento de discos e tambores de freio para automóveis.                                                                                                                                                                                     079414868000198311242-2      000003
1007421072259COBR_CAUC_COR  BOMBRIL S/A                             005139469000120DIN CENTRO OESTE LTDA                   AV WILSON TAVARES RIBEIRO 800           CONTAGEM                                32183680MG4847100001031073010060445001  30062014900BRADESCO S/A        0608201400000000010488370CC                                                                                                                                                                                                                                                                                                                                                                                           311242-3      000004
1048421000338COBR_CAUC_COR  FRIGOESTRELA S.A. EM RECUP JUDICIAL     088148259000125INDUSTRIA DE PELES MINUANO LTDA         AV CAPIVARA, 1645                       LINDOLFO COLLOR                         93940000RS4847200001084225740114327901  14072014900BRADESCO S/A        1108201400000000030155258CC                                                                                                                                                                                                                                                                                                                                                                                           311242-4      000005
1008421029449COBR_CAUC_COR  NOVA FIACAO INDUSTRIA TEXTIL LTDA       010831642000196FABRICA DE PEDRA S/A                    AV PRESIDENTE CASTELO BRANCO,60         DELMIRO GOUVEIA                         57480000AL484730000109148541986/1       14072014900BRADESCO S/A        1308201400000000014322118CC                                                                                                                                                                                                                                                                                                                                                                                           311242-5      000006
1031421012447COBR_CAUC_COR  AGRICOLA JANDELLE S/A                   001928075002062DMA DISTRIBUIDORA S/A                   RODOVIA BR 040 KM 531 180               BELO HORIZONTE                          30855500MG4848300001030011890015227701  15072014900BRADESCO S/A        1408201400000000013403915CC                                                                                                                                                                                                                                                                                                                                                                                           311245-1      000007
1050421000089COBR_CAUC_COR  ATIVO ALIMENTOS EXP E IMP EIRELI        027497684000135FRISA FRIGORIFICO RIO DOCE SA           R FIORAVANTE ROSSI 4000                 COLATINA                                29704700ES484840000100593191262309/1    15072014600HSBC BANK BRASIL    1208201400000000014788500CC                                                                                                                                                                                                                                                                                                                                                                                           311245-2      000008
1021421017050COBR_CAUC_BIC  STAR DISTR PROD FARMACEUTICOS LTDA      061585865073701RAIA DROGASIL S/A                       RUA PATAXOS , 1412                      EMBU                                    06833073SP4848500001000030810000359101  11072014007PAULISTA            2507201400000000017957623CC                                                                                                                                                                                                                                                                                                                                                                                           311245-3      000009
1021421017352COBR_CAUC_BIC  STAR DISTR PROD FARMACEUTICOS LTDA      061585865073701RAIA DROGASIL S/A                       RUA PATAXOS , 1412                      EMBU                                    06833073SP4848600001000004650000360801  16072014007PAULISTA            3007201400000000020802049CC                                                                                                                                                                                                                                                                                                                                                                                           311245-4      000010
1031421007010COBR_CAUC_COR  PLANT BEM FERTILIZANTES S.A.            075739086000178SEARA-IND. E COMERCIO DE PRODUTOS       AV 06 DE JUNHO,380                      SERTANOPOLIS                            86170000PR48498000010542077414318/01    17072014600HSBC BANK BRASIL    0508201400000000024806242CC                                                                                                                                                                                                                                                                                                                                                                                           311815-1      000011
1031421007010COBR_CAUC_COR  PLANT BEM FERTILIZANTES S.A.            075739086000178SEARA-IND. E COMERCIO DE PRODUTOS       AV 06 DE JUNHO,380                      SERTANOPOLIS                            86170000PR48498000020542078214319/01    17072014600HSBC BANK BRASIL    0508201400000000024806242CC                                                                                                                                                                                                                                                                                                                                                                                           311815-2      000012
1031421007010COBR_CAUC_COR  PLANT BEM FERTILIZANTES S.A.            075739086000178SEARA-IND. E COMERCIO DE PRODUTOS       AV 06 DE JUNHO,380                      SERTANOPOLIS                            86170000PR48498000030542079114320/01    17072014600HSBC BANK BRASIL    0508201400000000023924656CC                                                                                                                                                                                                                                                                                                                                                                                           311815-3      000013
1022421009153COBR_CAUC_BIC  INDUSTRIAS REUNIDAS COLOMBO LTDA        000057629501072LEOMAR CENCI                            S.A AN QUADRA 01 LOTE,380               BRASILIA                                70632100DF484990000104742990004125401   15072014009BRASILIA            1310201400000000011000000CC                                                                                                                                                                                                                                                                                                                                                                                           311815-4      000014
1031421012447COBR_CAUC_COR  AGRICOLA JANDELLE S/A                   001928075002062DMA DISTRIBUIDORA S/A                   RODOVIA BR 040 KM 531 180               BELO HORIZONTE                          30855500MG4850000001030012780015240401  16072014900BRADESCO S/A        1508201400000000011748666CC                                                                                                                                                                                                                                                                                                                                                                                           311815-5      000015
1007421065309COBR_CAUC_BIC  OCEANO IND.GRAFICA E EDITORA LTDA       042179671000101DART DO BRASIL IND E COM LTDA           ESTRADA DA ILHA,870                     RIO DE JANEIRO                          23020230RJ48501000010311245368122       17072014014RIO DE JANEIRO      3107201400000000018443214CC                                                                                                                                                                                                                                                                                                                                                                                           311815-6      000016
1007421043100COBR_CAUC_BIC  MACROPORT INTERNACIONAL LTDA            012829633000196VERA CRUZ IMPORTACAO E EXPORTACAO       R. D,555-SALA 1                         CUIABA                                  78098300MT485020000103112275000144      17072014024CUIABA              3108201400000000014650000CC                                                                                                                                                                                                                                                                                                                                                                                           311815-7      000017
1007421043100COBR_CAUC_BIC  MACROPORT INTERNACIONAL LTDA            012829633000196VERA CRUZ IMPORTACAO E EXPORTACAO       R. D,555-SALA 1                         CUIABA                                  78098300MT485020000203112283000144      17072014024CUIABA              2509201400000000014650000CC                                                                                                                                                                                                                                                                                                                                                                                           311815-8      000018
1021421017050COBR_CAUC_BIC  STAR DISTR PROD FARMACEUTICOS LTDA      061585865073701RAIA DROGASIL S/A                       RUA PATAXOS , 1412                      EMBU                                    06833073SP4850300001000031030000361801  16072014007PAULISTA            3007201400000000026141731CC                                                                                                                                                                                                                                                                                                                                                                                           311815-9      000019
1021421017050COBR_CAUC_BIC  STAR DISTR PROD FARMACEUTICOS LTDA      061585865073701RAIA DROGASIL S/A                       RUA PATAXOS , 1412                      EMBU                                    06833073SP4850300002000031200000362001  16072014007PAULISTA            3007201400000000012114815CC                                                                                                                                                                                                                                                                                                                                                                                           311815-10     000020
1021421017050COBR_CAUC_BIC  STAR DISTR PROD FARMACEUTICOS LTDA      061585865073701RAIA DROGASIL S/A                       RUA PATAXOS , 1412                      EMBU                                    06833073SP4850300003000031110000361901  16072014022PAULISTA            3007201400000000014691935CC                                                                                                                                                                                                                                                                                                                                                                                           311815-11     000021
1021421017352COBR_CAUC_BIC  STAR DISTR PROD FARMACEUTICOS LTDA      061585865073701RAIA DROGASIL S/A                       RUA PATAXOS , 1412                      EMBU                                    06833073SP4850400001000005030000361701  16072014007PAULISTA            3007201400000000030476489CC                                                                                                                                                                                                                                                                                                                                                                                           311815-12     000022
1021421017050COBR_CAUC_BIC  STAR DISTR PROD FARMACEUTICOS LTDA      061585865073701RAIA DROGASIL S/A                       AVENIDA CORIFEU DE AZEVEDO MARQUES 3097 SAO PAULO                               05339000SP4852000001000028320000352401  30062014007PAULISTA            2908201400000000033729226CC                                                                                                                                                                                                                                                                                                                                                                                           311815-13     000023
1021421017050COBR_CAUC_BIC  STAR DISTR PROD FARMACEUTICOS LTDA      061585865073701RAIA DROGASIL S/A                       AVENIDA CORIFEU DE AZEVEDO MARQUES 3097 SAO PAULO                               05339000SP4852000002000028590000352601  30062014007PAULISTA            2908201400000000018228800CC                                                                                                                                                                                                                                                                                                                                                                                           311815-14     000024
1021421017050COBR_CAUC_BIC  STAR DISTR PROD FARMACEUTICOS LTDA      061585865073701RAIA DROGASIL S/A                       AVENIDA CORIFEU DE AZEVEDO MARQUES 3097 SAO PAULO                               05339000SP4852000003000028670000352701  30062014007PAULISTA            2908201400000000019791409CC                                                                                                                                                                                                                                                                                                                                                                                           311815-15     000025
1022421010879DIR_CREDIT     SOLESA SOLUCOES ESTRUTURAIS S/A         011200595000145ESTALEIRO JURONG ARACRUZ LTDA           RUA JOãO GERONSO, NR 5 - BARRA DO SAHY  ARACRUZ                                 29198046ES4851000001                                                                                                                                          001232085           111120130000025221            18062014003004construção dos prédios do vestuário, refeitório e ambulatório - Aracruz-ES.                                                                                                                                                                     004207677000156311818-1      000026
1022421010879DIR_CREDIT     SOLESA SOLUCOES ESTRUTURAIS S/A         011200595000145ESTALEIRO JURONG ARACRUZ LTDA           ROD. ES-010, KM 56 - BARRA SAHY         ARACRUZ                                 29198025ES4851100001                                                                                                                                          001232085           131220130000025607            18062014003004serviços de escavação (movimentação de terras), concreto, aço econtrole tecnológico para bases de fundação do prédio da Cidade de Aracruz-ES.                                                                                                   004207677000156311818-2      000027
1008421002710DIR_CREDIT     OCS MIN E EMPREENDIMENTOS LTDA          034230979005418SUPERMIX CONCRETO S/A                   R PROF. JOSE VIEIRA DE MENDONçA, 1121   BELO HORIZONTE                          31310260MG4851200001                                                                                                                                          012631416           100120070000012817            17072014000404fornecimento de material produzido pela OCS-Mineração e EmpreendimentosLtda,a saber Brita 19mm,Brita 9,5mm e areia grossa de Brita,todos fornecidos e oferecidos em forma de tonelada.                                                          007323439000102311818-3      000028
1044421000297DIR_CREDIT     DOIS A ENGENHARIA E TECNOLOGIA LTDA     008282865000108DER - DEPTO DE ESTRADAS E RODAGEM       AV SENADOR SALGADO FILHO,1808           NATAL                                   59056000RN4851300001                                                                                                                                          012629973           030520100000015084009/2010-PJ 17072014000404execução das obras do 3 progarama de recosntrução de eixos e acessos rodoviários, pertencentes à malha viária estadual, integrantes do lote 3 do edital de licitação 025/2009.                                                                  003092799000181311818-4      000029
1046421006070DIR_CREDIT     METALURGICA DS LTDA                     060857349000176TRW AUTOMOTIVE LTDA                     VIA ANHANGUERA KM 147                   LIMEIRA                                 13486915SP4851500001                                                                                                                                          012633710           260320070000018698            17072014000404fornecimento de discos e tambores de freio para automóveis.                                                                                                                                                                                     079414868000198311818-5      000030
1031421007010COBR_CAUC_COR  PLANT BEM FERTILIZANTES S.A.            078956968000183COCARI - COOPERATIVA AGROPECUARIA       RUA LORD LOVAT, ,420                    MANDAGUARI                              86975000PR4852100001054208805807/01     18072014600HSBC BANK BRASIL    3009201400000000010744800CC                                                                                                                                                                                                                                                                                                                                                                                           311818-6      000031
1031421007010COBR_CAUC_COR  PLANT BEM FERTILIZANTES S.A.            078956968000183COCARI - COOPERATIVA AGROPECUARIA       RUA LORD LOVAT, ,420                    MANDAGUARI                              86975000PR4852100002054208985808/01     18072014600HSBC BANK BRASIL    3009201400000000010656000CC                                                                                                                                                                                                                                                                                                                                                                                           311818-7      000032
1050421001492COBR_CAUC_COR  M J NOVAES DE LIMA & CIA LTDA           088148259000125INDUSTRIA DE PELES MINUANO LTDA         AV CAPIVARA 1645,1645                   LINDOLFO COLLOR                         93950000RS48522000010000288614/6042B    18072014900BRADESCO S/A        3108201400000000010031022CC                                                                                                                                                                                                                                                                                                                                                                                           311818-8      000033
1046421008006COBR_CAUC_COR  LINK COMERCIAL IMP. E EXP. LTDA         008228549000140AN INDUSTRIA TEXTIL LTDA                R MANOEL FRANCISCO DA COSTA, 1800 -     JARAGUA DO SUL                          89257000SC485230000102454932174788-1/1  18072014700BANCO REAL- ABN AMRO1508201400000000010133434CC                                                                                                                                                                                                                                                                                                                                                                                           311818-9      000034
1009421013315COBR_CAUC_COR  BONASA ALIMENTOS S/A                    009587239000427COOPERATIVA MISTA DOS AVICULT. DO       ESTRADA TERESINA UNIAO ZONA LESTE KM 03 TERESINA                                64058305PI485240000100014634000097001   17072014900BRADESCO S/A        0708201400000000011475000CC                                                                                                                                                                                                                                                                                                                                                                                           311818-10     000035
1022421010879DIR_CREDIT     SOLESA SOLUCOES ESTRUTURAIS S/A         011200595000145ESTALEIRO JURONG ARACRUZ LTDA           AV. RIO BRANCO, 108 - 27º AND - CENTRO  RIO DE JANEIRO                          20040001RJ4852600001                                                                                                                                          001246206           131220130000025607            18072014003004serviços de escavação (movimentação de terras), concreto, aço econtrole tecnológico para bases de fundação do prédio da Cidade de Aracruz-ES.                                                                                                   004207677000156311818-11     000036
9000035                                                                                                                                                                                                                                                                                                                                                                                                                                                                                                                                                                                                                                                                                                               000037
