0REMESSANOTIFICAÇÃO ELETRONICA        99999999999999Bicbanco S/A                            Avenida Paulista                        1048      12º andar BELA VISTA                    SÃO PAULO                     01310100SPBicbanco S/A                                                                    23022011                                                                                                                                                                                                                                                                                                                                                                                                000001
1018421016232COBR_CAUC_COR  LBR - LACTEOS BRASIL S/A                004180523000118CARVALHO ATACADO DE ALIM LTDA           AV DEP PAULO FERRAZ 4888                TERESINA                                64078820PI2645100001010548920004495001  18022011900BRADESCO S/A        0404201100000000038250000CC                                                                                                                                                                                                                                                                                                                                                                                           123236-1      000002
1021420930887COBR_CAUC_COR  DEDINI S/A INDUSTRIAS DE BASE           048295562001450USINA ALTO ALEGRE S A - ACUCAR E A      FAZ JUNQUEIRA DIST ALTO ALEGRE BR       COLORADO                                86690000PR264520000106124328122607-6-6  21022011900BRADESCO S/A        2003201100000000027515240CC                                                                                                                                                                                                                                                                                                                                                                                           123236-2      000003
1021420930887COBR_CAUC_COR  DEDINI S/A INDUSTRIAS DE BASE           048295562001450USINA ALTO ALEGRE S A - ACUCAR E A      FAZ JUNQUEIRA DIST ALTO ALEGRE BR       COLORADO                                86690000PR264520000206124336122406-6-6  21022011900BRADESCO S/A        2003201100000000020333750CC                                                                                                                                                                                                                                                                                                                                                                                           123236-3      000004
1021420930887COBR_CAUC_COR  DEDINI S/A INDUSTRIAS DE BASE           048295562001450USINA ALTO ALEGRE S A - ACUCAR E A      FAZ JUNQUEIRA DIST ALTO ALEGRE BR       COLORADO                                86690000PR264520000306124344122382-6-6  21022011900BRADESCO S/A        2003201100000000012131790CC                                                                                                                                                                                                                                                                                                                                                                                           123236-4      000005
1031421007850COBR_CAUC_BIC  AGRICOLA JANDELLE S/A                   001928075002062DMA DISTRIBUIDORA S/A                   RODOVIA BR 040 KM 531 NR 180            BELO HORIZONTE                          30855500MG2645300001048447750000369833  18022011019BELO HORIZONTE      2103201100000000012483900CC                                                                                                                                                                                                                                                                                                                                                                                           123236-5      000006
1031421007850COBR_CAUC_BIC  AGRICOLA JANDELLE S/A                   038711826000131LINCON INDUSTRIA E COMERCIO LTDA        RUA JOSE MARIA DE LACERDA 2058          CONTAGEM                                32210120MG2645400001048447830000369865  19022011019BELO HORIZONTE      1403201100000000012150000CC                                                                                                                                                                                                                                                                                                                                                                                           123236-6      000007
9000006                                                                                                                                                                                                                                                                                                                                                                                                                                                                                                                                                                                                                                                                                                               000008
