0REMESSANOTIFICAÇÃO ELETRONICA        99999999999999Bicbanco S/A                            Avenida Brigadeiro Faria Lima           4.440     2º andar  Itaim Bibi                    São Paulo                     04538132SPBicbanco S/A                                                                    13112013                                                                                                                                                                                                                                                                                                                                                                                                000001
1007421072259COBR_CAUC_COR  BOMBRIL S/A                             005103939000286ZAMBONI COMERCIAL LTDA                  ROD BR116 RIO BAHIA KM 809,7 S/N        ALEM PARAIBA                            36660000MG4516700001024141710051529001  31102013900BRADESCO S/A        2811201300000000011396963CC                                                                                                                                                                                                                                                                                                                                                                                           268645-1      000002
1007421072259COBR_CAUC_COR  BOMBRIL S/A                             008899849000401SPACE MINAS DISTRIBUIDORA LTDA          AV PRESIDENTE TANCRE 1090, GALPAO A     IUNA                                    29390000ES4516900001024142860837319001  31102013900BRADESCO S/A        2111201300000000010009808CC                                                                                                                                                                                                                                                                                                                                                                                           268645-2      000003
1007421072259COBR_CAUC_COR  BOMBRIL S/A                             007633671000139REAL COMERCIO DE MIUDEZAS LTDA          ROD BR-040 KM 688 S/N, P 03 LJ05        CONTAGEM                                32145900MG4516800001024142510051609001  31102013900BRADESCO S/A        2811201300000000010803531CC                                                                                                                                                                                                                                                                                                                                                                                           268645-3      000004
1022421007525COBR_CAUC_COR  D. CENTER DISTRIBUIDORA LTDA            002543945000690ULTRAFARMA SAUDE LTDA                   ESTR MUN DEP EST FRANCISCO FRANCO 1363  SANTA ISABEL                            07500000SP4517000001011754667167316     07112013900BRADESCO S/A        1912201300000000010501338CC                                                                                                                                                                                                                                                                                                                                                                                           268645-4      000005
1022421007525COBR_CAUC_COR  D. CENTER DISTRIBUIDORA LTDA            013048432000114COML DE ALIMENTOS ESTHAMPA LTDA         ROD BR 040 KM 688, SN PAVH 8 LJ 13 14 27CONTAGEM                                32145900MG45171000010117461324393206    07112013900BRADESCO S/A        1411201300000000019511003CC                                                                                                                                                                                                                                                                                                                                                                                           268645-5      000006
1017421002802DIR_CREDIT     LAGINHA AGRO INDUSTRIAL S/A             033453598000123RAIZEN COMBUSTIVEIS S/A                 AV DAS AMERICAS 4200 BLOCO 5            RIO DE JANEIRO                          22640102RJ4506700001                                                                                                                                          012416697           090820120000022261            01112013000401Fornecimento de 80.000(oitenta mil) metros cúbicos de álcool anidro carburante Padrão ANP, NAS SAFRAS 2012/2012 e 2013/2014.                                                                                                                    012274379000107268645-6      000007
1007421072259COBR_CAUC_COR  BOMBRIL S/A                             013495487000172DESTRO BRASIL DISTRIBUICAO LTDA         AV ANDRE COSTA 2002                     JUNDIAI                                 13214730SP4519200001024186050051537001  31102013900BRADESCO S/A        0612201300000000010184790CC                                                                                                                                                                                                                                                                                                                                                                                           268647-1      000008
1007421072259COBR_CAUC_COR  BOMBRIL S/A                             013495487000172DESTRO BRASIL DISTRIBUICAO LTDA         AV ANDRE COSTA 2002                     JUNDIAI                                 13214730SP4519200002024186130051539001  31102013900BRADESCO S/A        0612201300000000010184790CC                                                                                                                                                                                                                                                                                                                                                                                           268647-2      000009
1007420933899DIR_CREDIT     EMPARSANCO S/A                          046523239000147PREFEITURA DO MUNICIPIO DE SBCAMPO      PRACA SAMUEL SABATINI 50 CENTRO         SBCAMPO                                 09750001SP4520300001                                                                                                                                          012134761           220620120000023512101/2012    14102013000403Execução de obra de canalização de trecho do Córrego Saracantan, localizado nos bairros Baeta Neves e Nova Petrólis, com início na Rua Princesa Maria Amélia e término na Av. Amazona.                                                          056473317000108268647-3      000010
1007420933899DIR_CREDIT     EMPARSANCO S/A                          046523239000147PREFEITURA DO MUNICIPIO DE SBCAMPO      PRACA SAMUEL SABATINI 50 CENTRO         SBCAMPO                                 09750001SP4520400001                                                                                                                                          011778568           220620120000023512101/2012    15102013000403Execução de obra de canalização de trecho do Córrego Saracantan, localizado nos bairros Baeta Neves e Nova Petrólis, com início na Rua Princesa Maria Amélia e término na Av. Amazona.                                                          056473317000108268647-4      000011
1048421003043COBR_CAUC_COR  FRIGOL S.A. EM RECUPERACAO JUDICIAL     067620377000114MINERVA.S.A                             AV.ANTONIO MANSO BERNARDES,S/N          BARRETOS                                14781545SP4519500001000555050000029235  11112013900BRADESCO S/A        1811201300000000022344465CC                                                                                                                                                                                                                                                                                                                                                                                           268647-5      000012
1020421002020COBR_CAUC_COR  GRABER SISTEMAS DE SEGURANCA LTDA       010588595000363MEDLEY COMERCIAL E LOGISTICA L          R ESTACIO DE SA, 1490 - JD SANTA GENEBRACAMPINAS                                13080010SP4519300001000131730000006750  08112013900BRADESCO S/A        0112201300000000013218646CC                                                                                                                                                                                                                                                                                                                                                                                           268647-6      000013
1016421001058COBR_CAUC_BIC  MONTANA INDUSTRIA DE MAQUINAS SA        015808430000101BAVARIA MULTIMARCAS AGR LTDA - ME       AV NOSSA SENHORA DE FATIMA,665          CORN PROCOPIO                           86300000PR4520500001041694310009008/03  18102013016CURITIBA            1601201400000000000166000CC                                                                                                                                                                                                                                                                                                                                                                                           268647-7      000014
1016421001058COBR_CAUC_BIC  MONTANA INDUSTRIA DE MAQUINAS SA        015808430000101BAVARIA MULTIMARCAS AGR LTDA - ME       AV NOSSA SENHORA DE FATIMA,665          CORN PROCOPIO                           86300000PR4520500002041693930009008/04  18102013016CURITIBA            1702201400000000000166000CC                                                                                                                                                                                                                                                                                                                                                                                           268647-8      000015
1016421001058COBR_CAUC_BIC  MONTANA INDUSTRIA DE MAQUINAS SA        015808430000101BAVARIA MULTIMARCAS AGR LTDA - ME       AV NOSSA SENHORA DE FATIMA,665          CORN PROCOPIO                           86300000PR4520500003041531360044014/04  25092013016CURITIBA            2301201400000000000417500CC                                                                                                                                                                                                                                                                                                                                                                                           268647-9      000016
1016421001058COBR_CAUC_BIC  MONTANA INDUSTRIA DE MAQUINAS SA        015808430000101BAVARIA MULTIMARCAS AGR LTDA - ME       AV NOSSA SENHORA DE FATIMA,665          CORN PROCOPIO                           86300000PR4520500004041691560045078/02  18102013016CURITIBA            1712201300000000000417500CC                                                                                                                                                                                                                                                                                                                                                                                           268647-10     000017
1016421001058COBR_CAUC_BIC  MONTANA INDUSTRIA DE MAQUINAS SA        015808430000101BAVARIA MULTIMARCAS AGR LTDA - ME       AV NOSSA SENHORA DE FATIMA,665          CORN PROCOPIO                           86300000PR4520500005041694230045078/03  18102013016CURITIBA            1601201400000000000417500CC                                                                                                                                                                                                                                                                                                                                                                                           268647-11     000018
1016421001058COBR_CAUC_BIC  MONTANA INDUSTRIA DE MAQUINAS SA        015808430000101BAVARIA MULTIMARCAS AGR LTDA - ME       AV NOSSA SENHORA DE FATIMA,665          CORN PROCOPIO                           86300000PR4520500006041694070045078/04  18102013016CURITIBA            1702201400000000000417500CC                                                                                                                                                                                                                                                                                                                                                                                           268647-12     000019
1016421001058COBR_CAUC_BIC  MONTANA INDUSTRIA DE MAQUINAS SA        015808430000101BAVARIA MULTIMARCAS AGR LTDA - ME       AV NOSSA SENHORA DE FATIMA,665          CORN PROCOPIO                           86300000PR4520500007041691640045087/01  18102013016CURITIBA            1811201300000000000417500CC                                                                                                                                                                                                                                                                                                                                                                                           268647-13     000020
1016421001058COBR_CAUC_BIC  MONTANA INDUSTRIA DE MAQUINAS SA        015808430000101BAVARIA MULTIMARCAS AGR LTDA - ME       AV NOSSA SENHORA DE FATIMA,665          CORN PROCOPIO                           86300000PR4520500008041694580045087/02  18102013016CURITIBA            1712201300000000000417500CC                                                                                                                                                                                                                                                                                                                                                                                           268647-14     000021
1016421001058COBR_CAUC_BIC  MONTANA INDUSTRIA DE MAQUINAS SA        015808430000101BAVARIA MULTIMARCAS AGR LTDA - ME       AV NOSSA SENHORA DE FATIMA,665          CORN PROCOPIO                           86300000PR4520500009041694400045087/03  18102013016CURITIBA            1601201400000000000417500CC                                                                                                                                                                                                                                                                                                                                                                                           268647-15     000022
1016421001058COBR_CAUC_BIC  MONTANA INDUSTRIA DE MAQUINAS SA        015808430000101BAVARIA MULTIMARCAS AGR LTDA - ME       AV NOSSA SENHORA DE FATIMA,665          CORN PROCOPIO                           86300000PR4520500010041694150045087/04  18102013016CURITIBA            1702201400000000000417500CC                                                                                                                                                                                                                                                                                                                                                                                           268647-16     000023
1016421001058COBR_CAUC_COR  MONTANA INDUSTRIA DE MAQUINAS SA        003193202000195UDO VENZKE                              AV FERNANDO OSORIO,8432                 PELOTAS                                 96065000RS4523800001041002450042437/03  15082013800UNIBANCO S/A        1311201300000000001000000CC                                                                                                                                                                                                                                                                                                                                                                                           268647-17     000024
1016421001058COBR_CAUC_COR  MONTANA INDUSTRIA DE MAQUINAS SA        003193202000195UDO VENZKE                              AV FERNANDO OSORIO,8432                 PELOTAS                                 96065000RS4523800002041529710042437/04  15082013800UNIBANCO S/A        1312201300000000001000000CC                                                                                                                                                                                                                                                                                                                                                                                           268647-18     000025
1016421001058COBR_CAUC_COR  MONTANA INDUSTRIA DE MAQUINAS SA        003193202000195UDO VENZKE                              AV FERNANDO OSORIO,8432                 PELOTAS                                 96065000RS4523800003041693770042917/01  28082013800UNIBANCO S/A        2701201400000000001550000CC                                                                                                                                                                                                                                                                                                                                                                                           268647-19     000026
1016421001058COBR_CAUC_BIC  MONTANA INDUSTRIA DE MAQUINAS SA        008667712000170MAQUISOLO TRATORES LTDA                 RUA SENADOR FLAVIO CARVALHO ,980-.      PONTA GROSSA                            84070460PR4523700001040897640040014/05  17062013016CURITIBA            0212201300000000001147566CC                                                                                                                                                                                                                                                                                                                                                                                           268647-20     000027
1016421001058COBR_CAUC_BIC  MONTANA INDUSTRIA DE MAQUINAS SA        008667712000170MAQUISOLO TRATORES LTDA                 RUA SENADOR FLAVIO CARVALHO ,980-.      PONTA GROSSA                            84070460PR4523700002040830310040591/05  28062013016CURITIBA            2511201300000000001412310CC                                                                                                                                                                                                                                                                                                                                                                                           268647-21     000028
1016421001058COBR_CAUC_BIC  MONTANA INDUSTRIA DE MAQUINAS SA        008667712000170MAQUISOLO TRATORES LTDA                 RUA SENADOR FLAVIO CARVALHO ,980-.      PONTA GROSSA                            84070460PR4523700003041512730042661/02  22082013016CURITIBA            2511201300000000000233333CC                                                                                                                                                                                                                                                                                                                                                                                           268647-22     000029
1016421001058COBR_CAUC_BIC  MONTANA INDUSTRIA DE MAQUINAS SA        008667712000170MAQUISOLO TRATORES LTDA                 RUA SENADOR FLAVIO CARVALHO ,980-.      PONTA GROSSA                            84070460PR4523700004041135410043040/03  20082013016CURITIBA            2811201300000000000290000CC                                                                                                                                                                                                                                                                                                                                                                                           268647-23     000030
1016421001058COBR_CAUC_BIC  MONTANA INDUSTRIA DE MAQUINAS SA        008667712000170MAQUISOLO TRATORES LTDA                 RUA SENADOR FLAVIO CARVALHO ,980-.      PONTA GROSSA                            84070460PR4523700005041512900043877/02  23092013016CURITIBA            2211201300000000000151329CC                                                                                                                                                                                                                                                                                                                                                                                           268647-24     000031
1016421001058COBR_CAUC_BIC  MONTANA INDUSTRIA DE MAQUINAS SA        008667712000170MAQUISOLO TRATORES LTDA                 RUA SENADOR FLAVIO CARVALHO ,980-.      PONTA GROSSA                            84070460PR4523700006041512810044140/02  26092013016CURITIBA            2511201300000000000099711CC                                                                                                                                                                                                                                                                                                                                                                                           268647-25     000032
1016421001058COBR_CAUC_COR  MONTANA INDUSTRIA DE MAQUINAS SA        087313128000193JOSE ALFREDO BOLZAN                     RUA PREF ERVANDIL REGHELIN,400          JAGUARI                                 97760000RS4523600001041531100044552/02  02102013900BRADESCO S/A        2111201300000000001075000CC                                                                                                                                                                                                                                                                                                                                                                                           268647-26     000033
1016421001058COBR_CAUC_COR  MONTANA INDUSTRIA DE MAQUINAS SA        087313128000193JOSE ALFREDO BOLZAN                     RUA PREF ERVANDIL REGHELIN,400          JAGUARI                                 97760000RS4523600002041531790044552/03  02102013900BRADESCO S/A        1612201300000000001075000CC                                                                                                                                                                                                                                                                                                                                                                                           268647-27     000034
1016421001058COBR_CAUC_COR  MONTANA INDUSTRIA DE MAQUINAS SA        087313128000193JOSE ALFREDO BOLZAN                     RUA PREF ERVANDIL REGHELIN,400          JAGUARI                                 97760000RS4523600003041531610044552/04  02102013900BRADESCO S/A        1001201400000000001075000CC                                                                                                                                                                                                                                                                                                                                                                                           268647-28     000035
1016421001058COBR_CAUC_COR  MONTANA INDUSTRIA DE MAQUINAS SA        000014607093904NELSO BEDIN                             BR 163 KM 739,S/N                       SORRISO                                 78890000MT4523500001041511090044439/01  01102013900BRADESCO S/A        2812201300000000003200000CC                                                                                                                                                                                                                                                                                                                                                                                           268647-29     000036
1016421001058COBR_CAUC_BIC  MONTANA INDUSTRIA DE MAQUINAS SA        003946067000292KWS MELHORAMENTO E SEMENTES LTDA        RUA MIGUEL DRANKA,S/N                   CAMPO LARGO                             83601970PR4523400001041870810009142/01  30102013016CURITIBA            1612201300000000002871795CC                                                                                                                                                                                                                                                                                                                                                                                           268647-30     000037
1016421001058COBR_CAUC_COR  MONTANA INDUSTRIA DE MAQUINAS SA        005292833000197AGRICOLA BALSAS LTDA                    BR 230 QUADRA 40 LOTE 04,99             BALSAS                                  65800000MA4523300001041001720042441/03  16082013900BRADESCO S/A        1411201300000000000390078CC                                                                                                                                                                                                                                                                                                                                                                                           268647-31     000038
1016421001058COBR_CAUC_COR  MONTANA INDUSTRIA DE MAQUINAS SA        005292833000197AGRICOLA BALSAS LTDA                    BR 230 QUADRA 40 LOTE 04,99             BALSAS                                  65800000MA4523300002041693260043841/05  20092013900BRADESCO S/A        1702201400000000000670000CC                                                                                                                                                                                                                                                                                                                                                                                           268647-32     000039
1016421001058COBR_CAUC_COR  MONTANA INDUSTRIA DE MAQUINAS SA        005292833000197AGRICOLA BALSAS LTDA                    BR 230 QUADRA 40 LOTE 04,99             BALSAS                                  65800000MA4523300003041509190043940/02  24092013900BRADESCO S/A        2511201300000000000101129CC                                                                                                                                                                                                                                                                                                                                                                                           268647-33     000040
1016421001058COBR_CAUC_COR  MONTANA INDUSTRIA DE MAQUINAS SA        005292833000197AGRICOLA BALSAS LTDA                    BR 230 QUADRA 40 LOTE 04,99             BALSAS                                  65800000MA4523300004041509010044313/02  30092013900BRADESCO S/A        2911201300000000000180878CC                                                                                                                                                                                                                                                                                                                                                                                           268647-34     000041
1016421001058COBR_CAUC_COR  MONTANA INDUSTRIA DE MAQUINAS SA        005292833000197AGRICOLA BALSAS LTDA                    BR 230 QUADRA 40 LOTE 04,99             BALSAS                                  65800000MA4523300005041508970044536/02  02102013900BRADESCO S/A        0212201300000000000171705CC                                                                                                                                                                                                                                                                                                                                                                                           268647-35     000042
1016421001058COBR_CAUC_COR  MONTANA INDUSTRIA DE MAQUINAS SA        005292833000197AGRICOLA BALSAS LTDA                    BR 230 QUADRA 40 LOTE 04,99             BALSAS                                  65800000MA4523300006041508890044536/03  02102013900BRADESCO S/A        3112201300000000000171757CC                                                                                                                                                                                                                                                                                                                                                                                           268647-36     000043
1016421001058COBR_CAUC_COR  MONTANA INDUSTRIA DE MAQUINAS SA        005292833000197AGRICOLA BALSAS LTDA                    BR 230 QUADRA 40 LOTE 04,99             BALSAS                                  65800000MA4523300007041768110045298/02  24102013900BRADESCO S/A        2312201300000000000074666CC                                                                                                                                                                                                                                                                                                                                                                                           268647-37     000044
1016421001058COBR_CAUC_COR  MONTANA INDUSTRIA DE MAQUINAS SA        005292833000197AGRICOLA BALSAS LTDA                    BR 230 QUADRA 40 LOTE 04,99             BALSAS                                  65800000MA4523300008041767990045298/03  24102013900BRADESCO S/A        2201201400000000000074687CC                                                                                                                                                                                                                                                                                                                                                                                           268647-38     000045
1016421001058COBR_CAUC_COR  MONTANA INDUSTRIA DE MAQUINAS SA        005292833000197AGRICOLA BALSAS LTDA                    BR 230 QUADRA 40 LOTE 04,99             BALSAS                                  65800000MA4523300009041768370045299/01  24102013900BRADESCO S/A        2511201300000000000209906CC                                                                                                                                                                                                                                                                                                                                                                                           268647-39     000046
1016421001058COBR_CAUC_COR  MONTANA INDUSTRIA DE MAQUINAS SA        005292833000197AGRICOLA BALSAS LTDA                    BR 230 QUADRA 40 LOTE 04,99             BALSAS                                  65800000MA4523300010041768290045299/02  24102013900BRADESCO S/A        2312201300000000000144055CC                                                                                                                                                                                                                                                                                                                                                                                           268647-40     000047
1016421001058COBR_CAUC_COR  MONTANA INDUSTRIA DE MAQUINAS SA        005292833000197AGRICOLA BALSAS LTDA                    BR 230 QUADRA 40 LOTE 04,99             BALSAS                                  65800000MA4523300011041767810045299/03  24102013900BRADESCO S/A        2201201400000000000144098CC                                                                                                                                                                                                                                                                                                                                                                                           268647-41     000048
1016421001058COBR_CAUC_COR  MONTANA INDUSTRIA DE MAQUINAS SA        005292833000197AGRICOLA BALSAS LTDA                    BR 230 QUADRA 40 LOTE 04,99             BALSAS                                  65800000MA4523300012041768020045354/02  24102013900BRADESCO S/A        2312201300000000000107617CC                                                                                                                                                                                                                                                                                                                                                                                           268647-42     000049
1016421001058COBR_CAUC_COR  MONTANA INDUSTRIA DE MAQUINAS SA        005292833000197AGRICOLA BALSAS LTDA                    BR 230 QUADRA 40 LOTE 04,99             BALSAS                                  65800000MA4523300013041858950045641/02  30102013900BRADESCO S/A        3012201300000000000208495CC                                                                                                                                                                                                                                                                                                                                                                                           268647-43     000050
1016421001058COBR_CAUC_COR  MONTANA INDUSTRIA DE MAQUINAS SA        005292833000197AGRICOLA BALSAS LTDA                    BR 230 QUADRA 40 LOTE 04,99             BALSAS                                  65800000MA4523300014041859090045641/03  30102013900BRADESCO S/A        2801201400000000000208558CC                                                                                                                                                                                                                                                                                                                                                                                           268647-44     000051
1016421001058COBR_CAUC_BIC  MONTANA INDUSTRIA DE MAQUINAS SA        014644584000142BUGIO TRATORES LTDA                     AV SAO PEDRO,130                        CHAPECO                                 89801300SC4523200001041870900045727/01  31102013046FLORIANOPOLIS       0212201300000000002700000CC                                                                                                                                                                                                                                                                                                                                                                                           268647-45     000052
1016421001058COBR_CAUC_BIC  MONTANA INDUSTRIA DE MAQUINAS SA        003629048000151BONI IMACREL IMPLEMENTOS AGR LTDA       RUA NOVA ERECHIN,99                     CHAPECO                                 89801000SC4523100001041857710045679/01  31102013046FLORIANOPOLIS       0212201300000000002433090CC                                                                                                                                                                                                                                                                                                                                                                                           268647-46     000053
1016421001058COBR_CAUC_COR  MONTANA INDUSTRIA DE MAQUINAS SA        007421228000102AGROTIERRAS COM DE INSUMOS AGROPES      VILA HIPICA,45                          DOM PEDRITO                             96450000RS4523000001041527920044463/03  01102013900BRADESCO S/A        3012201300000000002354270CC                                                                                                                                                                                                                                                                                                                                                                                           268647-47     000054
1016421001058COBR_CAUC_COR  MONTANA INDUSTRIA DE MAQUINAS SA        014491557000187EDUARDO TOMAZ DE JESUS                  RUA NAGIB RODRIGUES DE ALMEIDA,515      ITAPEVA                                 18400970SP4522900001041692530044882/01  14102013800UNIBANCO S/A        1311201300000000002323101CC                                                                                                                                                                                                                                                                                                                                                                                           268647-48     000055
1016421001058COBR_CAUC_COR  MONTANA INDUSTRIA DE MAQUINAS SA        010427149000105JPH COMERCIO E MANUTENCOES AGRICOL      ROD. FRANCISCO ALVES NEGRAO,1057        TAQUARIVAI                              18425000SP4522800001041693180044608/03  07102013800UNIBANCO S/A        0402201400000000001967060CC                                                                                                                                                                                                                                                                                                                                                                                           268647-49     000056
1016421001058COBR_CAUC_COR  MONTANA INDUSTRIA DE MAQUINAS SA        008594771000166IMPLEMAQ IMPLEMENTOS E MAQUINAS AG      AV PERIMENTRAL SUDESTE,10207            SORRISO                                 78890000MT4522700001041530800040329/05  23082013900BRADESCO S/A        2101201400000000001702542CC                                                                                                                                                                                                                                                                                                                                                                                           268647-50     000057
1016421001058COBR_CAUC_BIC  MONTANA INDUSTRIA DE MAQUINAS SA        004041036000174BERTOCHIO & CIA LTDA                    AV PRESIDENTE VARGAS,1220               ROLANDIA                                86600000PR4522600001041528810040785/07  04072013031LONDRINA            3001201400000000000818750CC                                                                                                                                                                                                                                                                                                                                                                                           268647-51     000058
1016421001058COBR_CAUC_BIC  MONTANA INDUSTRIA DE MAQUINAS SA        004041036000174BERTOCHIO & CIA LTDA                    AV PRESIDENTE VARGAS,1220               ROLANDIA                                86600000PR4522600002041766670045291/01  24102013031LONDRINA            2511201300000000000790000CC                                                                                                                                                                                                                                                                                                                                                                                           268647-52     000059
1016421001058COBR_CAUC_COR  MONTANA INDUSTRIA DE MAQUINAS SA        001563351000173TRIAMA NORTE TRATORES IMP AGR LTDA      AV. DEP. PLINIO RIBEIRO,937             MONTES CLARO                            39401474MG4522500001041857630009140/02  30102013800UNIBANCO S/A        2801201400000000001600000CC                                                                                                                                                                                                                                                                                                                                                                                           268647-53     000060
1016421001058COBR_CAUC_COR  MONTANA INDUSTRIA DE MAQUINAS SA        011041914000117JURASKI E NAROK LTDA - ME               RUA ULISSES FARIA,1407                  S MATEUS DO SUL                         83900000PR4522400001041871380009170/01  31102013900BRADESCO S/A        1612201300000000000968603CC                                                                                                                                                                                                                                                                                                                                                                                           268647-54     000061
1016421001058COBR_CAUC_COR  MONTANA INDUSTRIA DE MAQUINAS SA        011041914000117JURASKI E NAROK LTDA - ME               RUA ULISSES FARIA,1407                  S MATEUS DO SUL                         83900000PR4522400002041693000043342/04  10092013900BRADESCO S/A        1702201400000000000517500CC                                                                                                                                                                                                                                                                                                                                                                                           268647-55     000062
1016421001058COBR_CAUC_BIC  MONTANA INDUSTRIA DE MAQUINAS SA        004779255000155IMPLEAGRO LTDA                          ROD. RS 130 KM73 LOJA 01, 130,0         LAJEADO                                 95900000RS4522300001041691720008577/03  10092013015PORTO ALEGRE        1702201400000000000730000CC                                                                                                                                                                                                                                                                                                                                                                                           268647-56     000063
1016421001058COBR_CAUC_BIC  MONTANA INDUSTRIA DE MAQUINAS SA        004779255000155IMPLEAGRO LTDA                          ROD. RS 130 KM73 LOJA 01, 130,0         LAJEADO                                 95900000RS4522300002041512490008778/02  27092013015PORTO ALEGRE        1811201300000000000729927CC                                                                                                                                                                                                                                                                                                                                                                                           268647-57     000064
1016421001058COBR_CAUC_COR  MONTANA INDUSTRIA DE MAQUINAS SA        073393704000145BERGMANN & CIA LTDA                     AV CEL NONO CENTENO,375                 S LOURENCO SUL                          96170000RS4522200001041530980042708/03  23082013900BRADESCO S/A        2111201300000000001239514CC                                                                                                                                                                                                                                                                                                                                                                                           268647-58     000065
1016421001058COBR_CAUC_COR  MONTANA INDUSTRIA DE MAQUINAS SA        005908277000130AGROMAQ LTDA                            RUA 03 LOTE07, QUADRA 24,0              CRISTALINA                              73850000GO4522100001041858280045606/01  30102013900BRADESCO S/A        2711201300000000000066990CC                                                                                                                                                                                                                                                                                                                                                                                           268647-59     000066
1016421001058COBR_CAUC_COR  MONTANA INDUSTRIA DE MAQUINAS SA        005908277000130AGROMAQ LTDA                            RUA 03 LOTE07, QUADRA 24,0              CRISTALINA                              73850000GO4522100002041858360045640/01  30102013900BRADESCO S/A        2911201300000000000496859CC                                                                                                                                                                                                                                                                                                                                                                                           268647-60     000067
1016421001058COBR_CAUC_COR  MONTANA INDUSTRIA DE MAQUINAS SA        005908277000130AGROMAQ LTDA                            RUA 03 LOTE07, QUADRA 24,0              CRISTALINA                              73850000GO4522100003041858440045640/02  30102013900BRADESCO S/A        3012201300000000000335925CC                                                                                                                                                                                                                                                                                                                                                                                           268647-61     000068
1016421001058COBR_CAUC_COR  MONTANA INDUSTRIA DE MAQUINAS SA        005908277000130AGROMAQ LTDA                            RUA 03 LOTE07, QUADRA 24,0              CRISTALINA                              73850000GO4522100004041859760045640/03  30102013900BRADESCO S/A        2801201400000000000336026CC                                                                                                                                                                                                                                                                                                                                                                                           268647-62     000069
1016421001058COBR_CAUC_COR  MONTANA INDUSTRIA DE MAQUINAS SA        010823317000181JP REPRESSENTACOES E COM DE MAQUIN      RUA DORVALINO DOS SANTOS,1625           SIDROLANDIA                             79170000MS4522000001040898020039162/06  28052013900BRADESCO S/A        2511201300000000000616420CC                                                                                                                                                                                                                                                                                                                                                                                           268647-63     000070
1016421001058COBR_CAUC_COR  MONTANA INDUSTRIA DE MAQUINAS SA        010823317000181JP REPRESSENTACOES E COM DE MAQUIN      RUA DORVALINO DOS SANTOS,1625           SIDROLANDIA                             79170000MS4522000002041508200039162/07  28052013900BRADESCO S/A        2412201300000000000616420CC                                                                                                                                                                                                                                                                                                                                                                                           268647-64     000071
1016421001058COBR_CAUC_COR  MONTANA INDUSTRIA DE MAQUINAS SA        085025427000105PRODUTECNICA COM E REPR DE PROD         AV GETULIO VARGAS 559,559               PITANGA                                 85200000PR4521900001040830570035460/09  27022013900BRADESCO S/A        2511201300000000000230000CC                                                                                                                                                                                                                                                                                                                                                                                           268647-65     000072
1016421001058COBR_CAUC_COR  MONTANA INDUSTRIA DE MAQUINAS SA        085025427000105PRODUTECNICA COM E REPR DE PROD         AV GETULIO VARGAS 559,559               PITANGA                                 85200000PR4521900002041531870038717/06  15052013900BRADESCO S/A        3012201300000000001000000CC                                                                                                                                                                                                                                                                                                                                                                                           268647-66     000073
1016421001058COBR_CAUC_COR  MONTANA INDUSTRIA DE MAQUINAS SA        013806854000101SIMOAGRO - MAQUINAS AGRICOLAS LTDA      ROD PARIGOT DE SOUZA PR 092 KM,220      ARAPOTI                                 84990000PR4521800001041134280043020/01  29082013900BRADESCO S/A        1712201300000000005600000CC                                                                                                                                                                                                                                                                                                                                                                                           268647-67     000074
1016421001058COBR_CAUC_COR  MONTANA INDUSTRIA DE MAQUINAS SA        013806854000101SIMOAGRO - MAQUINAS AGRICOLAS LTDA      ROD PARIGOT DE SOUZA PR 092 KM,220      ARAPOTI                                 84990000PR4521800002041134360043034/01  30082013900BRADESCO S/A        1712201300000000005600000CC                                                                                                                                                                                                                                                                                                                                                                                           268647-68     000075
1016421001058COBR_CAUC_COR  MONTANA INDUSTRIA DE MAQUINAS SA        013806854000101SIMOAGRO - MAQUINAS AGRICOLAS LTDA      ROD PARIGOT DE SOUZA PR 092 KM,220      ARAPOTI                                 84990000PR4521800003041871200045572/01  29102013900BRADESCO S/A        2602201400000000006250000CC                                                                                                                                                                                                                                                                                                                                                                                           268647-69     000076
1016421001058COBR_CAUC_BIC  MONTANA INDUSTRIA DE MAQUINAS SA        092028224000391SOTRIMA AGRICOLA LTDA                   RS 122 KM 1,5,0                         CAXIAS DO SUL                           95043730RS4521700001041693850008980/02  17102013015PORTO ALEGRE        1212201300000000000864000CC                                                                                                                                                                                                                                                                                                                                                                                           268647-70     000077
1016421001058COBR_CAUC_BIC  MONTANA INDUSTRIA DE MAQUINAS SA        092028224000391SOTRIMA AGRICOLA LTDA                   RS 122 KM 1,5,0                         CAXIAS DO SUL                           95043730RS4521700002041871110009190/01  31102013015PORTO ALEGRE        3012201300000000001613350CC                                                                                                                                                                                                                                                                                                                                                                                           268647-71     000078
1016421001058COBR_CAUC_BIC  MONTANA INDUSTRIA DE MAQUINAS SA        092028224000391SOTRIMA AGRICOLA LTDA                   RS 122 KM 1,5,0                         CAXIAS DO SUL                           95043730RS4521700003041531520042707/02  23082013015PORTO ALEGRE        2312201300000000001800000CC                                                                                                                                                                                                                                                                                                                                                                                           268647-72     000079
1016421001058COBR_CAUC_BIC  MONTANA INDUSTRIA DE MAQUINAS SA        092028224000391SOTRIMA AGRICOLA LTDA                   RS 122 KM 1,5,0                         CAXIAS DO SUL                           95043730RS4521700004041509940043303/02  09092013015PORTO ALEGRE        0912201300000000004039150CC                                                                                                                                                                                                                                                                                                                                                                                           268647-73     000080
1016421001058COBR_CAUC_COR  MONTANA INDUSTRIA DE MAQUINAS SA        002228367000192HWILL PECAS PARA TRATORES LTDA          RUA CAETANO COSTA,725                   CANOINHAS                               89460000SC4521600001040829480035333/08  26032013800UNIBANCO S/A        2411201300000000000577500CC                                                                                                                                                                                                                                                                                                                                                                                           268647-74     000081
1016421001058COBR_CAUC_COR  MONTANA INDUSTRIA DE MAQUINAS SA        002228367000192HWILL PECAS PARA TRATORES LTDA          RUA CAETANO COSTA,725                   CANOINHAS                               89460000SC4521600002041509860035333/09  26032013900UNIBANCO S/A        2412201300000000000577500CC                                                                                                                                                                                                                                                                                                                                                                                           268647-75     000082
1016421001058COBR_CAUC_COR  MONTANA INDUSTRIA DE MAQUINAS SA        002228367000192HWILL PECAS PARA TRATORES LTDA          RUA CAETANO COSTA,725                   CANOINHAS                               89460000SC4521600003041857800035333/OB  26032013900UNIBANCO S/A        2402201400000000000577500CC                                                                                                                                                                                                                                                                                                                                                                                           268647-76     000083
1016421001058COBR_CAUC_COR  MONTANA INDUSTRIA DE MAQUINAS SA        002228367000192HWILL PECAS PARA TRATORES LTDA          RUA CAETANO COSTA,725                   CANOINHAS                               89460000SC4521600004041857980045215/05  22102013900UNIBANCO S/A        2402201400000000001215000CC                                                                                                                                                                                                                                                                                                                                                                                           268647-77     000084
1016421001058COBR_CAUC_COR  MONTANA INDUSTRIA DE MAQUINAS SA        002228367000192HWILL PECAS PARA TRATORES LTDA          RUA CAETANO COSTA,725                   CANOINHAS                               89460000SC4521600005041767050045225/02  22102013900UNIBANCO S/A        1112201300000000001215000CC                                                                                                                                                                                                                                                                                                                                                                                           268647-78     000085
1016421001058COBR_CAUC_COR  MONTANA INDUSTRIA DE MAQUINAS SA        002228367000192HWILL PECAS PARA TRATORES LTDA          RUA CAETANO COSTA,725                   CANOINHAS                               89460000SC4521600006041766910045225/03  22102013900UNIBANCO S/A        0601201400000000001215000CC                                                                                                                                                                                                                                                                                                                                                                                           268647-79     000086
1016421001058COBR_CAUC_COR  MONTANA INDUSTRIA DE MAQUINAS SA        002228367000192HWILL PECAS PARA TRATORES LTDA          RUA CAETANO COSTA,725                   CANOINHAS                               89460000SC4521600007041858010045225/05  22102013900UNIBANCO S/A        2402201400000000001215000CC                                                                                                                                                                                                                                                                                                                                                                                           268647-80     000087
1016421001058COBR_CAUC_COR  MONTANA INDUSTRIA DE MAQUINAS SA        000038472104168IVANDRO BARCHET                         ROD BR 070 KM 270 MAIS 25 KM,S/N        ZONA RURAL                              78800000MT4521500001041527170043829/02  20092013800UNIBANCO S/A        2011201300000000006500000CC                                                                                                                                                                                                                                                                                                                                                                                           268647-81     000088
1016421001058COBR_CAUC_COR  MONTANA INDUSTRIA DE MAQUINAS SA        010465152000113DW COMERCIO E REPRESENTACAO DE MAQ      RUA FREI SILVIO ,41-.                   IMBUIA                                  88440000SC4521400001041135760007942/04  30072013800UNIBANCO S/A        1612201300000000000156667CC                                                                                                                                                                                                                                                                                                                                                                                           268647-82     000089
1016421001058COBR_CAUC_COR  MONTANA INDUSTRIA DE MAQUINAS SA        010465152000113DW COMERCIO E REPRESENTACAO DE MAQ      RUA FREI SILVIO ,41-.                   IMBUIA                                  88440000SC4521400002041693510007942/06  30072013800UNIBANCO S/A        1702201400000000000156665CC                                                                                                                                                                                                                                                                                                                                                                                           268647-83     000090
1016421001058COBR_CAUC_COR  MONTANA INDUSTRIA DE MAQUINAS SA        010465152000113DW COMERCIO E REPRESENTACAO DE MAQ      RUA FREI SILVIO ,41-.                   IMBUIA                                  88440000SC4521400003041693690007943/06  30072013800UNIBANCO S/A        1702201400000000000288335CC                                                                                                                                                                                                                                                                                                                                                                                           268647-84     000091
1016421001058COBR_CAUC_COR  MONTANA INDUSTRIA DE MAQUINAS SA        010465152000113DW COMERCIO E REPRESENTACAO DE MAQ      RUA FREI SILVIO ,41-.                   IMBUIA                                  88440000SC4521400004041693340008024/06  01082013800UNIBANCO S/A        1702201400000000000313335CC                                                                                                                                                                                                                                                                                                                                                                                           268647-85     000092
1016421001058COBR_CAUC_COR  MONTANA INDUSTRIA DE MAQUINAS SA        010465152000113DW COMERCIO E REPRESENTACAO DE MAQ      RUA FREI SILVIO ,41-.                   IMBUIA                                  88440000SC4521400005041693420008025/06  01082013800UNIBANCO S/A        1702201400000000000156665CC                                                                                                                                                                                                                                                                                                                                                                                           268647-86     000093
1016421001058COBR_CAUC_COR  MONTANA INDUSTRIA DE MAQUINAS SA        010465152000113DW COMERCIO E REPRESENTACAO DE MAQ      RUA FREI SILVIO ,41-.                   IMBUIA                                  88440000SC4521400006041530630044535/02  02102013800UNIBANCO S/A        0212201300000000001039891CC                                                                                                                                                                                                                                                                                                                                                                                           268647-87     000094
1016421001058COBR_CAUC_COR  MONTANA INDUSTRIA DE MAQUINAS SA        010465152000113DW COMERCIO E REPRESENTACAO DE MAQ      RUA FREI SILVIO ,41-.                   IMBUIA                                  88440000SC4521400007041510610044535/03  02102013800UNIBANCO S/A        3112201300000000001039891CC                                                                                                                                                                                                                                                                                                                                                                                           268647-88     000095
1016421001058COBR_CAUC_COR  MONTANA INDUSTRIA DE MAQUINAS SA        010465152000113DW COMERCIO E REPRESENTACAO DE MAQ      RUA FREI SILVIO ,41-.                   IMBUIA                                  88440000SC4521400008041530550044535/04  02102013800UNIBANCO S/A        3001201400000000001039891CC                                                                                                                                                                                                                                                                                                                                                                                           268647-89     000096
1016421001058COBR_CAUC_COR  MONTANA INDUSTRIA DE MAQUINAS SA        010465152000113DW COMERCIO E REPRESENTACAO DE MAQ      RUA FREI SILVIO ,41-.                   IMBUIA                                  88440000SC4521400009041871620044535/05  02102013800UNIBANCO S/A        0303201400000000001039891CC                                                                                                                                                                                                                                                                                                                                                                                           268647-90     000097
1016421001058COBR_CAUC_COR  MONTANA INDUSTRIA DE MAQUINAS SA        010465152000113DW COMERCIO E REPRESENTACAO DE MAQ      RUA FREI SILVIO ,41-.                   IMBUIA                                  88440000SC4521400010041768450044898/01  14102013800UNIBANCO S/A        1311201300000000001214872CC                                                                                                                                                                                                                                                                                                                                                                                           268647-91     000098
1016421001058COBR_CAUC_COR  MONTANA INDUSTRIA DE MAQUINAS SA        007334738000134ARAUJO & ARAUJO SIST. ELET DE MONI      ROD PARIGOT DE SOUZA,S/N                ARAPOTI                                 84990000PR4521300001041859410045543/01  29102013900BRADESCO S/A        2701201400000000006250000CC                                                                                                                                                                                                                                                                                                                                                                                           268647-92     000099
1016421001058COBR_CAUC_COR  MONTANA INDUSTRIA DE MAQUINAS SA        007884300000120MECANICA ROHR LTDA - ME                 RODOVIA SC 472,0                        SAO JOAO OESTE                          89897000SC4521200001041871540045740/01  31102013800UNIBANCO S/A        2011201300000000006000000CC                                                                                                                                                                                                                                                                                                                                                                                           268647-93     000100
1016421001058COBR_CAUC_COR  MONTANA INDUSTRIA DE MAQUINAS SA        015674145000145M BRUM MAQUINAS E IMPL AGRICOLAS L      R 333,120                               VILHENA                                 76980000RO4521100001041871030009160/01  31102013900BRADESCO S/A        0212201300000000003800000CC                                                                                                                                                                                                                                                                                                                                                                                           268647-94     000101
1016421001058COBR_CAUC_COR  MONTANA INDUSTRIA DE MAQUINAS SA        015674145000145M BRUM MAQUINAS E IMPL AGRICOLAS L      R 333,120                               VILHENA                                 76980000RO4521100002041529540044357/02  30092013900BRADESCO S/A        2911201300000000000726594CC                                                                                                                                                                                                                                                                                                                                                                                           268647-95     000102
1016421001058COBR_CAUC_COR  MONTANA INDUSTRIA DE MAQUINAS SA        015674145000145M BRUM MAQUINAS E IMPL AGRICOLAS L      R 333,120                               VILHENA                                 76980000RO4521100003041529460044357/03  30092013900BRADESCO S/A        3012201300000000000726812CC                                                                                                                                                                                                                                                                                                                                                                                           268647-96     000103
1016421001058COBR_CAUC_COR  MONTANA INDUSTRIA DE MAQUINAS SA        088746763000127AGROPEC GIRUA LTDA                      AV PRES CASTELO BRANCO,334              GIRUA                                   98870000RS4521000001041508380043435/05  11092013800UNIBANCO S/A        3001201400000000004525000CC                                                                                                                                                                                                                                                                                                                                                                                           268647-97     000104
1016421001058COBR_CAUC_COR  MONTANA INDUSTRIA DE MAQUINAS SA        088746763000127AGROPEC GIRUA LTDA                      AV PRES CASTELO BRANCO,334              GIRUA                                   98870000RS4521000002041530210044455/02  01102013800UNIBANCO S/A        2611201300000000000450000CC                                                                                                                                                                                                                                                                                                                                                                                           268647-98     000105
1016421001058COBR_CAUC_BIC  MONTANA INDUSTRIA DE MAQUINAS SA        061064929002708DU PONT DO BRASIL S/A                   EST TOLEDO-NOVO SOBRADINHO,S/N          TOLEDO                                  85925000PR4520900001041528140008569/01  10092013016CURITIBA            2012201300000000004893600CC                                                                                                                                                                                                                                                                                                                                                                                           268647-99     000106
1016421001058COBR_CAUC_BIC  MONTANA INDUSTRIA DE MAQUINAS SA        086434933000102UNIPARTS COMERCIAL AGRICOLA LTDA        AV PAULO ROBERTO CUNHA DOS SA,3495      UBERLANDIA                              38402266MG4520800001041000160041596/04  25072013028UBERLANDIA          2211201300000000000045019CC                                                                                                                                                                                                                                                                                                                                                                                           268647-100    000107
1016421001058COBR_CAUC_BIC  MONTANA INDUSTRIA DE MAQUINAS SA        086434933000102UNIPARTS COMERCIAL AGRICOLA LTDA        AV PAULO ROBERTO CUNHA DOS SA,3495      UBERLANDIA                              38402266MG4520800002041531010041598/04  25072013028UBERLANDIA          2211201300000000001800848CC                                                                                                                                                                                                                                                                                                                                                                                           268647-101    000108
1016421001058COBR_CAUC_BIC  MONTANA INDUSTRIA DE MAQUINAS SA        086434933000102UNIPARTS COMERCIAL AGRICOLA LTDA        AV PAULO ROBERTO CUNHA DOS SA,3495      UBERLANDIA                              38402266MG4520800003040831620041652/04  26072013028UBERLANDIA          2511201300000000001528556CC                                                                                                                                                                                                                                                                                                                                                                                           268647-102    000109
1016421001058COBR_CAUC_BIC  MONTANA INDUSTRIA DE MAQUINAS SA        086434933000102UNIPARTS COMERCIAL AGRICOLA LTDA        AV PAULO ROBERTO CUNHA DOS SA,3495      UBERLANDIA                              38402266MG4520800004041000240042148/04  06082013028UBERLANDIA          0412201300000000000772500CC                                                                                                                                                                                                                                                                                                                                                                                           268647-103    000110
1016421001058COBR_CAUC_COR  MONTANA INDUSTRIA DE MAQUINAS SA        018384435000142AGRO SOLO MAQUINAS E IMPL AGRICOLA      RUA DEMETRIO LORENZ,367                 SAO CARLOS                              89885000SC4520700001041527840043975/02  24092013800UNIBANCO S/A        2511201300000000001125000CC                                                                                                                                                                                                                                                                                                                                                                                           268647-104    000111
1016421001058COBR_CAUC_COR  MONTANA INDUSTRIA DE MAQUINAS SA        018384435000142AGRO SOLO MAQUINAS E IMPL AGRICOLA      RUA DEMETRIO LORENZ,367                 SAO CARLOS                              89885000SC4520700002041527760043975/03  24092013800UNIBANCO S/A        2312201300000000001125000CC                                                                                                                                                                                                                                                                                                                                                                                           268647-105    000112
1016421001058COBR_CAUC_COR  MONTANA INDUSTRIA DE MAQUINAS SA        018384435000142AGRO SOLO MAQUINAS E IMPL AGRICOLA      RUA DEMETRIO LORENZ,367                 SAO CARLOS                              89885000SC4520700003041858520044511/01  02102013800UNIBANCO S/A        2802201400000000001700000CC                                                                                                                                                                                                                                                                                                                                                                                           268647-106    000113
1016421001058COBR_CAUC_COR  MONTANA INDUSTRIA DE MAQUINAS SA        023405160001600COOP AGRO PEC DE PATROCIONIO            AV DOM JOSE COIMBRA,2200                PATROCINIO                              38740000MG4520600001041527680008322/05  27082013800UNIBANCO S/A        2401201400000000001765960CC                                                                                                                                                                                                                                                                                                                                                                                           268647-107    000114
1016421001058COBR_CAUC_COR  MONTANA INDUSTRIA DE MAQUINAS SA        023405160001600COOP AGRO PEC DE PATROCIONIO            AV DOM JOSE COIMBRA,2200                PATROCINIO                              38740000MG4520600002041527500043017/06  29082013800UNIBANCO S/A        2901201400000000000958335CC                                                                                                                                                                                                                                                                                                                                                                                           268647-108    000115
1016421001058COBR_CAUC_COR  MONTANA INDUSTRIA DE MAQUINAS SA        023405160001600COOP AGRO PEC DE PATROCIONIO            AV DOM JOSE COIMBRA,2200                PATROCINIO                              38740000MG4520600003041527410043021/06  29082013800UNIBANCO S/A        2901201400000000000958335CC                                                                                                                                                                                                                                                                                                                                                                                           268647-109    000116
1007421073611COBR_CAUC_BIC  VALE GRANDE IND E COM DE ALIMENTOS      014841272000129TRADEX COMPANY COMERCIO IMP E EXP       TABAPUA 665                             SAO PAULO                               04533012SP45194000010241911300056506-1  27092013007PAULISTA            1812201300000000027091938CC                                                                                                                                                                                                                                                                                                                                                                                           268647-110    000117
9000116                                                                                                                                                                                                                                                                                                                                                                                                                                                                                                                                                                                                                                                                                                               000118
