0REMESSANOTIFICAÇÃO ELETRONICA        99999999999999Bicbanco S/A                            Avenida Brigadeiro Faria Lima           4.440     2º andar  Itaim Bibi                    São Paulo                     04538132SPBicbanco S/A                                                                    07012015                                                                                                                                                                                                                                                                                                                                                                                                000001
1032420932087COBR_CAUC_BIC  TEXTIL RENAUXVIEW S/A                   013138107000142CONF FERRAZ LTDA                        . R SANTA RITA 236                      SAO PAULO                               03026030SP503850000103177905116721/001  18122014007PAULISTA            0801201500000000010717125CC                                                                                                                                                                                                                                                                                                                                                                                           339165-1      000002
1013421028180COBR_CAUC_BIC  CATA TECIDOS E EMB INDUSTRIA LTDA       020736198000183JR COMM COMERCIO DE TERMOPLASTICOS      RUA PELOTAS,233 CJ 42                   SAO PAULO                               04012000SP503860000104275411000032336   18122014007PAULISTA            0902201500000000015468800CC                                                                                                                                                                                                                                                                                                                                                                                           339165-2      000003
1048421002195COBR_CAUC_COR  SERVIMED COMERCIAL LTDA                 025102146001493IRMAOS MATTAR E CIA LTDA                RUA ADIB CADAH 443                      TEOFILO OTONI                           37704429MG50387000010255144532729524    16122014900BRADESCO S/A        2701201500000000015695528CC                                                                                                                                                                                                                                                                                                                                                                                           339165-3      000004
1003421013987COBR_CAUC_COR  SCIENTIFIC COM E IMPORTACAO LTDA        010544698000160ULTRAIMAGEM LTDA ME                     R. GARDENIA,710-SL 501                  TERESINA                                64049200PI50388000010011777112682       18122014900BRADESCO S/A        1901201500000000010640000CC                                                                                                                                                                                                                                                                                                                                                                                           339165-4      000005
1050421000089COBR_CAUC_BIC  ATIVO ALIMENTOS EXP E IMP EIRELI        011596442003427CARVALHO E FERNANDES LTDA               AVE DEPUTADO PAULO FERRAZ 4888          TERESINA                                64078820PI503890000100627860287943/1    17122014042SAO LUIS            1601201500000000021133263CC                                                                                                                                                                                                                                                                                                                                                                                           339165-5      000006
1021421017050COBR_CAUC_BIC  STAR DISTR PROD FARMACEUTICOS LTDA      061585865073701RAIA DROGASIL S/A                       RUA PATAXOS , 1412                      EMBU                                    06833073SP5039000001000081640000452701  16122014007PAULISTA            3012201400000000040162036CC                                                                                                                                                                                                                                                                                                                                                                                           339165-6      000007
1021421017050COBR_CAUC_BIC  STAR DISTR PROD FARMACEUTICOS LTDA      061585865073701RAIA DROGASIL S/A                       RUA PATAXOS , 1412                      EMBU                                    06833073SP5039000002000083340000617801  17122014018PAULISTA            0701201500000000017841163CC                                                                                                                                                                                                                                                                                                                                                                                           339165-7      000008
1                                                                                                                                                                                                                                                                                                                                                                                                                                                                                                                                                                                                                                                                                                       339166-1      000009
1028421009810COBR_CAUC_COR  VALLEE S/A                              001963040000100SOUBHIA E CIA LTDA                      R JORNALISTA BELIZARIO LIMA 104-VL GLORICAMPO GRANDE                            79004270MS5040300001031072193131144013  22122014600HSBC BANK BRASIL    1302201500000000013899997CC                                                                                                                                                                                                                                                                                                                                                                                           339178-1      000010
1022421008149COBR_CAUC_COR  PASSAREDO T. AEREOS LTDA-EM REC.JUD     010760260000119CVC BRASIL OPERADORA E AGENCIA DE       RUA GERTRUDES DE LIMA,53-CJ 52          SANTO ANDRE                             09020000SP504040000100018855118726      20122014900BRADESCO S/A        0501201500000000015322041CC                                                                                                                                                                                                                                                                                                                                                                                           339178-2      000011
1021421017050COBR_CAUC_BIC  STAR DISTR PROD FARMACEUTICOS LTDA      061585865073701RAIA DROGASIL S/A                       RUA PATAXOS , 1412                      EMBU                                    06833073SP5040500001000085390000457901  19122014007PAULISTA            0201201500000000010174442CC                                                                                                                                                                                                                                                                                                                                                                                           339178-3      000012
1021421017050COBR_CAUC_BIC  STAR DISTR PROD FARMACEUTICOS LTDA      061585865073701RAIA DROGASIL S/A                       RUA PATAXOS , 1412                      EMBU                                    06833073SP5040500002000085470000458901  19122014007PAULISTA            0201201500000000027213035CC                                                                                                                                                                                                                                                                                                                                                                                           339178-4      000013
1021421017050COBR_CAUC_BIC  STAR DISTR PROD FARMACEUTICOS LTDA      061585865073701RAIA DROGASIL S/A                       RUA PATAXOS , 1412                      EMBU                                    06833073SP5040500003000085800000458501  19122014007PAULISTA            0201201500000000017453138CC                                                                                                                                                                                                                                                                                                                                                                                           339178-5      000014
1021421017050COBR_CAUC_BIC  STAR DISTR PROD FARMACEUTICOS LTDA      061585865073701RAIA DROGASIL S/A                       RUA PATAXOS , 1412                      EMBU                                    06833073SP5040500004000086100000458101  19122014007PAULISTA            0201201500000000014730920CC                                                                                                                                                                                                                                                                                                                                                                                           339178-6      000015
1021421017050COBR_CAUC_BIC  STAR DISTR PROD FARMACEUTICOS LTDA      061585865073701RAIA DROGASIL S/A                       RUA PATAXOS , 1412                      EMBU                                    06833073SP5040500005000086520000459101  19122014022PAULISTA            0201201500000000015851851CC                                                                                                                                                                                                                                                                                                                                                                                           339178-7      000016
1048421002195COBR_CAUC_COR  SERVIMED COMERCIAL LTDA                 025102146001493IRMAOS MATTAR E CIA LTDA                RUA ADIB CADAH 443                      TEOFILO OTONI                           37704429MG50407000010255621837463424    18122014900BRADESCO S/A        2901201500000000014229837CC                                                                                                                                                                                                                                                                                                                                                                                           339180-1      000017
1050421000089COBR_CAUC_COR  ATIVO ALIMENTOS EXP E IMP EIRELI        027497684000135FRISA FRIGORIFICO RIO DOCE SA           R FIORAVANTE ROSSI 4000                 COLATINA                                29704700ES504080000100627941288691/1    22122014600HSBC BANK BRASIL    1901201500000000016545000CC                                                                                                                                                                                                                                                                                                                                                                                           339180-2      000018
1018421034834COBR_CAUC_BIC  LACEL LATICINIOS CERES LTDA             075315333013863ATACADAO DISTRIBUICAO COM. IND. LT      AV. MORVAN DIAS DE FIGUEREDO N° 6169 VILANANINDEUA                              67030007PA504120000103936345006058      23122014050BELEM               0602201500000000014300000CC                                                                                                                                                                                                                                                                                                                                                                                           339182-1      000019
1013421028180COBR_CAUC_BIC  CATA TECIDOS E EMB INDUSTRIA LTDA       014267717000109PENINSULA NORTE FERTILIZANTES S/A       AV ENG EMILIANO MACIEIRA,12 BR153 KM12,6SAO LUIS                                65095603MA504130000104275527007367      23122014042SAO LUIS            2303201500000000013875000CC                                                                                                                                                                                                                                                                                                                                                                                           339182-2      000020
1013421028180COBR_CAUC_BIC  CATA TECIDOS E EMB INDUSTRIA LTDA       020736198000183JR COMM COMERCIO DE TERMOPLASTICOS      RUA PELOTAS,233 CJ 42                   SAO PAULO                               04012000SP504140000104275594000032337   18122014007PAULISTA            0902201500000000015468800CC                                                                                                                                                                                                                                                                                                                                                                                           339182-3      000021
1021420930887COBR_CAUC_COR  DEDINI S/A INDUSTRIAS DE BASE           047254396000167J PILON S A AC E ALC                    FAZ SANTA MARIA, CX. P. 19, S N S N     CERQUILHO                               18520000SP504280000106599199264912-7-7  18122014900BRADESCO S/A        1504201500000000010787878CC                                                                                                                                                                                                                                                                                                                                                                                           339197-1      000022
1016421024090COBR_CAUC_COR  FRESNOMAQ IND DE MAQUINAS S/A           007105743001651POLO DO ELETRO COMERCIAL DE MOVEIS      AV DOM LINO, 996                        RUSSAS                                  62900000CE5042900001049134080008899     22122014900BRADESCO S/A        0103201500000000010236000CC                                                                                                                                                                                                                                                                                                                                                                                           339197-2      000023
1031421011181COBR_CAUC_COR  AGROIND IRMAOS DALLA COSTA LTDA         003083231000790CEMA CENTRAL MINEIRA ATACADISTA LT      ROD BR-040 KM 51500750                  RIBEIRAO DAS NE                         33825160MG5043000001054682542761/1      20122014800UNIBANCO S/A        1901201500000000011532354CC                                                                                                                                                                                                                                                                                                                                                                                           339197-3      000024
1019421004658COBR_CAUC_COR  S/A ESTADO DE MINAS                     019791581000155CIA DE DESENV ECONOMICO DE MG-CODE      MANAUS 467                              BELO HORIZONTE                          30150350MG5043900001013463062633865-1   29122014900BRADESCO S/A        1501201500000000029030400CC                                                                                                                                                                                                                                                                                                                                                                                           339202-1      000025
1019421004658COBR_CAUC_COR  S/A ESTADO DE MINAS                     073312076000126SINDICATO I EXTRATIVAS O M P D P P      BERNARDO GUIMARAES 63 3 ANDAR           BELO HORIZONTE                          30140080MG5044000001013462762633862-1   29122014900BRADESCO S/A        3001201500000000011650000CC                                                                                                                                                                                                                                                                                                                                                                                           339202-2      000026
1032421026020COBR_CAUC_BIC  KARSTEN S/A                             066934555001514GVR HOME IND COM DE ENXOVAIS LTDA       RUA PROFSANTIAGO DANTAS,260             SAO PAULO                               05690010SP5044100001031879190421394B01  02122014007PAULISTA            3003201500000000024151184CC                                                                                                                                                                                                                                                                                                                                                                                           339202-3      000027
1028421009810COBR_CAUC_BIC  VALLEE S/A                              007954091000496INTERVET DO BRASIL VETERINARIA LTD      RUA EDGAR MARCHIORI 255-DISTRITO INDUSTRVINHEDO                                 13280000SP5044200001031148192034865022  30122014007PAULISTA            2801201500000000089581200CC                                                                                                                                                                                                                                                                                                                                                                                           339202-4      000028
1028421001518COBR_CAUC_COR  GAIA AGRIBUSINESS AGRICOLA LTDA         000064140130130VINICIUS VIEIRA LOPES                   RUA RIO NEGRO,196-CXA POSTAL 26         GOIATUBA                                75600000GO50443000010311479762534       30122014600HSBC BANK BRASIL    1004201500000000012420000CC                                                                                                                                                                                                                                                                                                                                                                                           339202-5      000029
1031421011181COBR_CAUC_BIC  AGROIND IRMAOS DALLA COSTA LTDA         010887961000113MAYARA COMERCIO DE GENEROS ALIMENT      AV NELORE00200                          CABO FRIO                               28910420RJ5044400001054685483086/1      29122014014RIO DE JANEIRO      1201201500000000010290103CC                                                                                                                                                                                                                                                                                                                                                                                           339202-6      000030
1049421004706COBR_CAUC_COR  COOPERATIVA AGROINDUSTRIAL SALTO VE     000029614996900AURI SCHOELER                           LINHA SEDE CAPELA ,0                    ITAPIRANGA                              89896000SC50445000010047602323029       18122014700BANCO REAL- ABN AMRO2002201500000000054750000CC                                                                                                                                                                                                                                                                                                                                                                                           339202-7      000031
1021421017050COBR_CAUC_BIC  STAR DISTR PROD FARMACEUTICOS LTDA      010877246000108DISLAB DISTRIBUIDORA DE PRODUTOS F      RUA GENERAL AUGUSTO SOARES DOS SANTOS, 2RIBEIRAO PRETO                          14095240SP5044600001000088060000464901  29122014022RIBEIRAO PRETO      2702201500000000028500000CC                                                                                                                                                                                                                                                                                                                                                                                           339202-8      000032
1021421017050COBR_CAUC_BIC  STAR DISTR PROD FARMACEUTICOS LTDA      010877246000108DISLAB DISTRIBUIDORA DE PRODUTOS F      RUA GENERAL AUGUSTO SOARES DOS SANTOS, 2RIBEIRAO PRETO                          14095240SP5044600002000088220000465001  29122014022RIBEIRAO PRETO      2702201500000000028500000CC                                                                                                                                                                                                                                                                                                                                                                                           339202-9      000033
1021421017050COBR_CAUC_BIC  STAR DISTR PROD FARMACEUTICOS LTDA      061585865000151RAIA DROGASIL S/A                       AVENIDA CORIFEU DE AZEVEDO MARQUES, 3097SAO PAULO                               05339000SP5044700001000087170000463901  28122014007PAULISTA            1101201500000000011430703CC                                                                                                                                                                                                                                                                                                                                                                                           339202-10     000034
1021421017050COBR_CAUC_BIC  STAR DISTR PROD FARMACEUTICOS LTDA      061585865000151RAIA DROGASIL S/A                       AVENIDA CORIFEU DE AZEVEDO MARQUES, 3097SAO PAULO                               05339000SP5044700002000086950000625501  28122014018PAULISTA            1801201500000000010316536CC                                                                                                                                                                                                                                                                                                                                                                                           339202-11     000035
9000034                                                                                                                                                                                                                                                                                                                                                                                                                                                                                                                                                                                                                                                                                                               000036
