0REMESSANOTIFICAÇÃO ELETRONICA        99999999999999Bicbanco S/A                            Avenida Brigadeiro Faria Lima           4.440     2º andar  Itaim Bibi                    São Paulo                     04538132SPBicbanco S/A                                                                    09042014                                                                                                                                                                                                                                                                                                                                                                                                000001
1009421012831COBR_CAUC_COR  ASA ALIMENTOS S/A                       009587239000427COOPERATIVA MISTA DOS AVICULT. DO       ESTRADA TERESINA UNIAO ZONA LESTE       TERESINA                                64058305PI4705300001001498230048590     03042014900BRADESCO S/A        2404201400000000010800000CC                                                                                                                                                                                                                                                                                                                                                                                           294333-1      000002
1048421003043COBR_CAUC_COR  FRIGOL S.A. EM RECUPERACAO JUDICIAL     010700821000194RAIMUNDO NONATO BANDEIRA E SILVA        RUA BELA VISTA, 05                      NATAL                                   59060190RN47054000010007130600034795-1  03042014900BRADESCO S/A        0805201400000000012616290CC                                                                                                                                                                                                                                                                                                                                                                                           294333-2      000003
1015421022340COBR_CAUC_BIC  BORRACHAS VIPAL SA                      008832031000110VEYANCE TECHNOLOGIES BR.PRODS.ENG.      RUA MORAES MIGUEL, 180                  SAO PAULO                               03021200SP470680000101248494048003401   01042014007PAULISTA            1605201400000000014278639CC                                                                                                                                                                                                                                                                                                                                                                                           294723-1      000004
1015421022340COBR_CAUC_BIC  BORRACHAS VIPAL SA                      008832031000110VEYANCE TECHNOLOGIES BR.PRODS.ENG.      RUA MORAES MIGUEL, 180                  SAO PAULO                               03021200SP470680000201248605048004701   02042014007PAULISTA            1605201400000000014270911CC                                                                                                                                                                                                                                                                                                                                                                                           294723-2      000005
1015421022340COBR_CAUC_BIC  BORRACHAS VIPAL SA                      008832031000110VEYANCE TECHNOLOGIES BR.PRODS.ENG.      RUA MORAES MIGUEL, 180                  SAO PAULO                               03021200SP470680000301249407048029501   02042014007PAULISTA            1605201400000000014255842CC                                                                                                                                                                                                                                                                                                                                                                                           294723-3      000006
1015421022340COBR_CAUC_BIC  BORRACHAS VIPAL SA                      008832031000110VEYANCE TECHNOLOGIES BR.PRODS.ENG.      RUA MORAES MIGUEL, 180                  SAO PAULO                               03021200SP470680000401250154048030401   02042014007PAULISTA            1605201400000000014097804CC                                                                                                                                                                                                                                                                                                                                                                                           294723-4      000007
1029421018494COBR_CAUC_COR  PRO SALUTE SERVICOS PARA SAUDE LTDA     088611264000122INTRAL S A IND DE MATERIAIS ELETRI      TRAV. RIO GRANDE , 130                  CAXIAS DO SUL                           95098750RS4706900001001202250147344.A   02042014900BRADESCO S/A        1005201400000000010637241CC                                                                                                                                                                                                                                                                                                                                                                                           294723-5      000008
1029421018494COBR_CAUC_COR  PRO SALUTE SERVICOS PARA SAUDE LTDA     093785822000106SAN MARINO ONIBUS LTDA                  IRMAO GILDO SCHIAVO, 110                CAXIAS DO SUL                           95058510RS4707000001001202170147391.A   02042014900BRADESCO S/A        2004201400000000018524886CC                                                                                                                                                                                                                                                                                                                                                                                           294723-6      000009
1007421035337COBR_CAUC_BIC  COMERCIAL IMP.E EXP.CANTAREIRA LTDA     012557936000105CASA PETRUS DOCES E SALGADOS LTDA       R DA CARIOCA, 14 , LOJA C JIRAU         RIO DE JANEIRO                          20050000RJ470710000102799820115738001   27032014014RIO DE JANEIRO      1804201400000000050325000CC                                                                                                                                                                                                                                                                                                                                                                                           294723-7      000010
1007421034080COBR_CAUC_BIC  SIDMEX INTERNACIONAL LTDA               013586587000104HF DO BRASIL IMP. E COM. DE POLIME      NELLY PELLEGRINO,463                    SAO CAETANO DO                          09580140SP470720000102799731026414      04042014007PAULISTA            2107201400000000021956088CC                                                                                                                                                                                                                                                                                                                                                                                           294723-8      000011
1007421077480COBR_CAUC_COR  KOFAR IND COM DE PROD METALUG LTDA      018842730000367CONSORCIO PRO INFANCIA BRASIL PIB       R BELARMINO FERNANDES MAGALHAES,25      BOA VISTA                               69313485RR470730000102800526000081919   04042014700BANCO REAL- ABN AMRO0105201400000000010401856CC                                                                                                                                                                                                                                                                                                                                                                                           294723-9      000012
1016421019909COBR_CAUC_BIC  TROMBINI EMBALAGENS S/A                 006538082000109ROUSSELOT GELATINAS DO BRASIL LTDA      RUA SANTO AGOSTINHO 280 ARCADAS         AMPARO                                  13908000SP47074000010443997825471-1     03042014021CAMPINAS            1505201400000000014697345CC                                                                                                                                                                                                                                                                                                                                                                                           294723-10     000013
1003421010775COBR_CAUC_COR  NUFARM IND QUIM FARMACEUTICA S/A        043001981005082COOPERATIVA AGRICOLA MISTA DE ADAM      RUA CHUJIRO MATSUDA, 25                 ADAMANTINA                              17800000SP470900000104379304 002698901  24032014600HSBC BANK BRASIL    2304201400000000030600000CC                                                                                                                                                                                                                                                                                                                                                                                           294880-1      000014
1009421012831COBR_CAUC_COR  ASA ALIMENTOS S/A                       007209331000185REGINA AGROINDUSTRIAL S/A               ESTRADA DO AQUIRAZ,801                  FORTALEZA                               60840970CE4709100001001503250048687     05042014900BRADESCO S/A        0305201400000000012412800CC                                                                                                                                                                                                                                                                                                                                                                                           294880-2      000015
1009421012831COBR_CAUC_COR  ASA ALIMENTOS S/A                       000083809899615VALDIR VAGNER FERREIRA E OUTROS         ROD BR 262, SN KM 426                   IGARATINGA                              35695000MG4709200001001500660048636     04042014900BRADESCO S/A        0904201400000000010382580CC                                                                                                                                                                                                                                                                                                                                                                                           294880-3      000016
1019421010410COBR_CAUC_BIC  MADSON ELETROMETALURGICA LTDA           001120364000178WG ELETRO S.A.                          R ARQUIMEDES P LIMA 1000                CUIABA                                  78060260MT470930000106852005243132/P01  03042014024CUIABA              0108201400000000017634396CC                                                                                                                                                                                                                                                                                                                                                                                           294880-4      000017
1007421075894COBR_CAUC_COR  INTELCAV CARTOES LTDA                   069034668000156SODEXO PASS DO BRASIL SERVS E COM       ALAMEDA ARAGUAIA 1142                   BARUERI                                 06455000SP4709400001028046886025-A      05042014700BANCO REAL- ABN AMRO2504201400000000024842616CC                                                                                                                                                                                                                                                                                                                                                                                           294880-5      000018
1007421075894COBR_CAUC_COR  INTELCAV CARTOES LTDA                   069034668000156SODEXO PASS DO BRASIL SERVS E COM       ALAMEDA ARAGUAIA 1142                   BARUERI                                 06455000SP4709400002028046966024-A      05042014700BANCO REAL- ABN AMRO2504201400000000014100022CC                                                                                                                                                                                                                                                                                                                                                                                           294880-6      000019
1016421023299COBR_CAUC_BIC  SIDERQUIMICA IND COM PROD QUIM S/A      085347284000140BENVETEX TÊXTIL LTDA                    RUA DR BLUMENAU 2799 GALPÃO 01          INDAIAL                                 89130000SC470950000104443690172799-1    28022014046FLORIANOPOLIS       2904201400000000012525000CC                                                                                                                                                                                                                                                                                                                                                                                           294880-7      000020
1046421001443COBR_CAUC_COR  COSTAO DO SANTINHO TUR E LAZER LTDA     043940618000144ELI LILLY DO BRASIL LTDA                AVENIDA MORUMBI,8264                    SAO PAULO                               04703002SP470960000100013611208120      03042014900BRADESCO S/A        2404201400000000019907543CC                                                                                                                                                                                                                                                                                                                                                                                           294880-8      000021
1010421024356COBR_CAUC_COR  DIST EQUADOR DE PROD PETROLEO LTDA      011338257000174NAVEGACAO UNIDAS TAPAJOS LTDA           AV DOUTOR FREITAS, 2408 , SALA 201 B    BELEM                                   66087810PA47097000010007247041801       07042014900BRADESCO S/A        1704201400000000024000000CC                                                                                                                                                                                                                                                                                                                                                                                           294880-9      000022
1016421008591COBR_CAUC_BIC  GLOBOAVES SAO PAULO AGROAVICOLA LTD     083044016000980TYSON DO BRASIL ALIMENTOS LTDA          ROD BR 487 ESTR BOIADEIRA KM 185,0      CAMPO MOURAO                            87305380PR470980000104441590121730      01042014016CURITIBA            3004201400000000010584000CC                                                                                                                                                                                                                                                                                                                                                                                           294880-10     000023
1048421003043COBR_CAUC_COR  FRIGOL S.A. EM RECUPERACAO JUDICIAL     008029696000352ESTIVAS NOVO PRADO LTDA                 VINTE DE JANEIRO 958                    RECIFE                                  51130120PE47099000010007138100000576-1  05042014900BRADESCO S/A        1404201400000000020997515CC                                                                                                                                                                                                                                                                                                                                                                                           294880-11     000024
9000023                                                                                                                                                                                                                                                                                                                                                                                                                                                                                                                                                                                                                                                                                                               000025
