0REMESSANOTIFICAÇÃO ELETRONICA        99999999999999Bicbanco S/A                            Avenida Paulista , 1048 12º andar                           BELA VISTA                    SÃO PAULO                     01310100SPBicbanco S/A                                                                    06042010                                                                                                                                                                                                                                                                                                                                                                                                000001
1021420930887COBR_CAUC_COR  DEDINI S/A INDUSTRIAS DE BASE           009094632000217USINA MONTE ALEGRE SA                   FAZENDA MONTE ALEGRE SN MONTE ALEGRE BR MAMANGUAPE                              58280000PB214020000105762941113980-3-3  09032010900BRADESCO S/A        1505201000000000014000000CC                                                                                                                                                                                                                                                                                                                                                                                           92330-1       000002
1021420930887COBR_CAUC_COR  DEDINI S/A INDUSTRIAS DE BASE           012733937000155TRIUNFO AGROINDUSTRIAL LTDA             VILA USINA TRIUNFO USINA TRIUNFO BR     BOCA DA MATA                            57680000AL214030000105762681115822-3-3  01042010900BRADESCO S/A        1806201000000000012405707CC                                                                                                                                                                                                                                                                                                                                                                                           92330-2       000003
1014421011391COBR_CAUC_BIC  CENTRAL NACIONAL DE PRODUCOES LTDA      002415583000147IGREJA MUNDIAL DO PODER DE DEUS         RUA CARNEIRO LEAO, 439                  SAO PAULO                               03015000SP2140400001041892081390/A      01042010007PAULISTA            3105201000000000050000000CC                                                                                                                                                                                                                                                                                                                                                                                           92330-3       000004
1024420934410COBR_CAUC_BIC  INTERCOOP INT SUIN MED NORTE MT LTD     061270393000148FRIGORIFICO MARBA LTDA                  AV CEZAR MAGNANI 971,971                SAO BERNARDO                            09694000SP21405000010179032836760       30032010038ABC                 2904201000000000014033859CC                                                                                                                                                                                                                                                                                                                                                                                           92330-4       000005
9000004                                                                                                                                                                                                                                                                                                                                                                                                                                                                                                                                                                                                                                                                                                               000006
