0REMESSANOTIFICAÇÃO ELETRONICA        99999999999999Bicbanco S/A                            Avenida Paulista                        1048      12º andar BELA VISTA                    SÃO PAULO                     01310100SPBicbanco S/A                                                                    16092010                                                                                                                                                                                                                                                                                                                                                                                                000001
1028421002719COBR_CAUC_BIC  SIPCAM ISAGRO BRASIL S/A                000009753799845JOAO FERNANDO GABRIEL TAQUES            RUA MAJOR OTAVIO NOVAIS,398             PIRAI DO SUL                            84165230PR241860000102646426CT03351003  15102008016CURITIBA            3006201100000000034455788CC                                                                                                                                                                                                                                                                                                                                                                                           111380-1      000002
1021420930887COBR_CAUC_COR  DEDINI S/A INDUSTRIAS DE BASE           013642699000135AGRO INDVALE S FRANCISCO S A AGR        FAZENDA MASSAYO ZONA RURAL BR           JUAZEIRO                                48903970BA241820000105901797128390-3-3  14092010900BRADESCO S/A        1011201000000000010536500CC                                                                                                                                                                                                                                                                                                                                                                                           111380-2      000003
1021420930887COBR_CAUC_COR  DEDINI S/A INDUSTRIAS DE BASE           037216363000250ENERGETICA SANTA HELENA LTDA            ROD MS 134, KM 25 RURAL BR              NOVA ANDRADINA                          79750000MS241830000105901851128567-2-2  14092010600HSBC BANK BRASIL    2511201000000000015113349CC                                                                                                                                                                                                                                                                                                                                                                                           111380-3      000004
1022141001217COBR_CAUC_BIC  BALDIN BIOENERGIA S/A                   001062529000100DULCINI S/A                             ESTR SITIO TABOAO S/N                   PIRASSUNUNGA                            13631301SP2418400001040115119944/04     11082010021CAMPINAS            1810201000000000025000000TD                                                                                                                                                                                                                                                                                                                                                                                           111380-4      000005
1022141001217COBR_CAUC_BIC  BALDIN BIOENERGIA S/A                   001062529000100DULCINI S/A                             ESTR SITIO TABOAO S/N                   PIRASSUNUNGA                            13631301SP2418400002040115299944/05     11082010021CAMPINAS            1910201000000000025000000TD                                                                                                                                                                                                                                                                                                                                                                                           111380-5      000006
1022141001217COBR_CAUC_BIC  BALDIN BIOENERGIA S/A                   001062529000100DULCINI S/A                             ESTR SITIO TABOAO S/N                   PIRASSUNUNGA                            13631301SP2418400003040115379944/06     11082010021CAMPINAS            2010201000000000025000000TD                                                                                                                                                                                                                                                                                                                                                                                           111380-6      000007
1022141001217COBR_CAUC_BIC  BALDIN BIOENERGIA S/A                   001062529000100DULCINI S/A                             ESTR SITIO TABOAO S/N                   PIRASSUNUNGA                            13631301SP2418400004040115459944/07     11082010021CAMPINAS            2110201000000000025000000TD                                                                                                                                                                                                                                                                                                                                                                                           111380-7      000008
1022141001217COBR_CAUC_BIC  BALDIN BIOENERGIA S/A                   001062529000100DULCINI S/A                             ESTR SITIO TABOAO S/N                   PIRASSUNUNGA                            13631301SP2418400005040115539944/08     11082010021CAMPINAS            2210201000000000025000000TD                                                                                                                                                                                                                                                                                                                                                                                           111380-8      000009
1022141001217COBR_CAUC_BIC  BALDIN BIOENERGIA S/A                   001062529000100DULCINI S/A                             ESTR SITIO TABOAO S/N                   PIRASSUNUNGA                            13631301SP2418400006040115619944/09     11082010021CAMPINAS            2510201000000000025000000TD                                                                                                                                                                                                                                                                                                                                                                                           111380-9      000010
1022141001217COBR_CAUC_BIC  BALDIN BIOENERGIA S/A                   001062529000100DULCINI S/A                             ESTR SITIO TABOAO S/N                   PIRASSUNUNGA                            13631301SP2418400007040115709944/10     11082010021CAMPINAS            2610201000000000025000000TD                                                                                                                                                                                                                                                                                                                                                                                           111380-10     000011
1022141001217COBR_CAUC_BIC  BALDIN BIOENERGIA S/A                   001062529000100DULCINI S/A                             ESTR SITIO TABOAO S/N                   PIRASSUNUNGA                            13631301SP2418400008040115889944/11     11082010021CAMPINAS            2710201000000000025000000TD                                                                                                                                                                                                                                                                                                                                                                                           111380-11     000012
1008421005590COBR_CAUC_BIC  MM MONTEIRO PESCA EXPORTACAO LTDA       033304981001949SUPERMERCADOS MUNDIAL LTDA              AV ITAOCA,2600                          RIO DE JANEIRO                          21061020RJ241850000108096181547         11092010014RIO DE JANEIRO      2809201000000000012600000CC                                                                                                                                                                                                                                                                                                                                                                                           111380-12     000013
1020421000109DIR_CREDIT     PROCARTA SERVICOS DE INFORMATICA LT     002449992000164VIVO S/A                                AV HIGIENOPOLIS 1365                    CENTRO                                  86015010PR2418700001                                                                                                                                          010989704           0104200900000135714100076086  02062010000403Impressão a laser de dados variáveis, inserção, encarte acabamento,preparação para postagem de faturas e tratamento de documentos devilvidos pela ECT e outros documentos.                                                                      065699704000140111380-13     000014
1020421000109DIR_CREDIT     PROCARTA SERVICOS DE INFORMATICA LT     002449992000164VIVO S/A                                AV HIGIENOPOLIS 1365                    CENTRO                                  86015010PR2418800001                                                                                                                                          011091450           0104200900000135714100076086  24082010000403Impressão a laser de dados variáveis, inserção, encarte acabamento,preparação para postagem de faturas e tratamento de documentos devilvidos pela ECT e outros documentos.                                                                      065699704000140111380-14     000015
9000014                                                                                                                                                                                                                                                                                                                                                                                                                                                                                                                                                                                                                                                                                                               000016
