0REMESSANOTIFICAÇÃO ELETRONICA        99999999999999Bicbanco S/A                            Avenida Brigadeiro Faria Lima           4.440     2º andar  Itaim Bibi                    São Paulo                     04538132SPBicbanco S/A                                                                    12052014                                                                                                                                                                                                                                                                                                                                                                                                000001
1009421012831COBR_CAUC_COR  ASA ALIMENTOS S/A                       009587239000427COOPERATIVA MISTA DOS AVICULT. DO       ESTRADA TERESINA UNIAO ZONA LESTE       TERESINA                                64058305PI4746600001001508130049715     08052014900BRADESCO S/A        2905201400000000011475000CC                                                                                                                                                                                                                                                                                                                                                                                           299857-1      000002
1007421072259COBR_CAUC_COR  BOMBRIL S/A                             047079496000790MARANHAO DISTRIBUICAO S.A.              R ANUAR PACHA 400                       CATANDUVA                               15800670SP4746700001029000160058086001  30042014900BRADESCO S/A        0206201400000000010174395CC                                                                                                                                                                                                                                                                                                                                                                                           299857-2      000003
1029421018494COBR_CAUC_COR  PRO SALUTE SERVICOS PARA SAUDE LTDA     088611264000122INTRAL S A IND DE MATERIAIS ELETRI      TRAV. RIO GRANDE , 130                  CAXIAS DO SUL                           95098750RS4746800001001295240148851.A   05052014900BRADESCO S/A        1006201400000000010728631CC                                                                                                                                                                                                                                                                                                                                                                                           299857-3      000004
1029421018494COBR_CAUC_COR  PRO SALUTE SERVICOS PARA SAUDE LTDA     093785822000106SAN MARINO ONIBUS LTDA                  IRMAO GILDO SCHIAVO, 110                CAXIAS DO SUL                           95058510RS4746900001001295320148898.A   05052014900BRADESCO S/A        2005201400000000018350414CC                                                                                                                                                                                                                                                                                                                                                                                           299857-4      000005
1007421065309COBR_CAUC_BIC  OCEANO IND.GRAFICA E EDITORA LTDA       042179671000101DART DO BRASIL IND E COM LTDA           ESTRADA DA ILHA,870                     RIO DE JANEIRO                          23020230RJ47470000010289894163512       08052014014RIO DE JANEIRO      0606201400000000019832520CC                                                                                                                                                                                                                                                                                                                                                                                           299857-5      000006
1050421000089COBR_CAUC_COR  ATIVO ALIMENTOS EXP E IMP EIRELI        023069198000327M A SILVA E SILVA LTDA                  RUA JOVINO DINDA 2884                   MACAPA                                  68900160AP474710000100569410250477/1    07052014900BRADESCO S/A        0606201400000000010282528CC                                                                                                                                                                                                                                                                                                                                                                                           299857-6      000007
1007421067298COBR_CAUC_BIC  ATHENEE COMERCIO IMP E EXP LTDA         029744778000197IGREJA UNIVERSAL DO REINO DE DEUS       AV. JOAO DIAS,1800                      SAO PAULO                               04724002SP474720000100002550108557      07052014007PAULISTA            3006201400000000019426775CC                                                                                                                                                                                                                                                                                                                                                                                           299857-7      000008
1048421003043COBR_CAUC_COR  FRIGOL S.A. EM RECUPERACAO JUDICIAL     000417504000101QUEBRAMAR IND. E COMERCIO DE CARNE      RUA DOUTOR ELOI S/N LOTE 1              SAO JOAO DE MER                         25535481RJ47473000010007290600035869-1  08052014900BRADESCO S/A        0906201400000000020029836CC                                                                                                                                                                                                                                                                                                                                                                                           299857-8      000009
1048421003043COBR_CAUC_COR  FRIGOL S.A. EM RECUPERACAO JUDICIAL     006009651000129BARRA COMERCIAL DE CARNES LTDA          FRANCISCO SA, 7540                      FORTALEZA                               60310003CE4747400001000729310000000739  08052014900BRADESCO S/A        2305201400000000013465280CC                                                                                                                                                                                                                                                                                                                                                                                           299857-9      000010
1048421003043COBR_CAUC_COR  FRIGOL S.A. EM RECUPERACAO JUDICIAL     007715769000135AKI CARNES COMERCIO LTDA                RUA SILVESTRE AGOSTINHO SALES 248       JABOATAO DOS GU                         54355700PE4747500001000729220000000738  08052014900BRADESCO S/A        2305201400000000018206453CC                                                                                                                                                                                                                                                                                                                                                                                           299857-10     000011
1016420933828COBR_CAUC_COR  PENINSULA INTERNATIONAL S/A             002734023001470FIAGRIL LTDA                            R COLONIZADOR ENIO PEPINO 3751          BELO HORIZONTE                          78555000MG4749700001040738172135-2      25062013900BRADESCO S/A        3006201400000000050000000CC                                                                                                                                                                                                                                                                                                                                                                                           299857-11     000012
1016420933828COBR_CAUC_COR  PENINSULA INTERNATIONAL S/A             002734023001470FIAGRIL LTDA                            R COLONIZADOR ENIO PEPINO 3751          BELO HORIZONTE                          78555000MG4749700002040738252135-1      25062013900BRADESCO S/A        3006201400000000050000000CC                                                                                                                                                                                                                                                                                                                                                                                           299857-12     000013
1046421008936COBR_CAUC_COR  MG ELETRO COM IMP E EXP LTDA            000325400000177CEQUIPEL INDUSTRIADEMOVEIS E C          AVENIDA RUI BARBOSA 2980,2980           SAO JOSE DOS PI                         83055320PR47498000010000595213525/1     30042014900BRADESCO S/A        2906201400000000002500042CC                                                                                                                                                                                                                                                                                                                                                                                           299857-13     000014
1046421008936COBR_CAUC_COR  MG ELETRO COM IMP E EXP LTDA            000325400000177CEQUIPEL INDUSTRIADEMOVEIS E C          AVENIDA RUI BARBOSA 2980,2980           SAO JOSE DOS PI                         83055320PR47498000020000596113525/2     30042014900BRADESCO S/A        2907201400000000002500040CC                                                                                                                                                                                                                                                                                                                                                                                           299857-14     000015
1046421008936COBR_CAUC_COR  MG ELETRO COM IMP E EXP LTDA            000325400000177CEQUIPEL INDUSTRIADEMOVEIS E C          AVENIDA RUI BARBOSA 2980,2980           SAO JOSE DOS PI                         83055320PR47498000030000597913525/3     30042014900BRADESCO S/A        2808201400000000002500040CC                                                                                                                                                                                                                                                                                                                                                                                           299857-15     000016
1046421008936COBR_CAUC_COR  MG ELETRO COM IMP E EXP LTDA            000325400000177CEQUIPEL INDUSTRIADEMOVEIS E C          AVENIDA RUI BARBOSA 2980,2980           SAO JOSE DOS PI                         83055320PR47498000040000598713526/1     30042014900BRADESCO S/A        2906201400000000002334500CC                                                                                                                                                                                                                                                                                                                                                                                           299857-16     000017
1046421008936COBR_CAUC_COR  MG ELETRO COM IMP E EXP LTDA            000325400000177CEQUIPEL INDUSTRIADEMOVEIS E C          AVENIDA RUI BARBOSA 2980,2980           SAO JOSE DOS PI                         83055320PR47498000050000599513526/2     30042014900BRADESCO S/A        2907201400000000002334500CC                                                                                                                                                                                                                                                                                                                                                                                           299857-17     000018
1046421008936COBR_CAUC_COR  MG ELETRO COM IMP E EXP LTDA            000325400000177CEQUIPEL INDUSTRIADEMOVEIS E C          AVENIDA RUI BARBOSA 2980,2980           SAO JOSE DOS PI                         83055320PR47498000060000600213526/3     30042014900BRADESCO S/A        2808201400000000002334500CC                                                                                                                                                                                                                                                                                                                                                                                           299857-18     000019
1046421008936COBR_CAUC_COR  MG ELETRO COM IMP E EXP LTDA            000325400000177CEQUIPEL INDUSTRIADEMOVEIS E C          AVENIDA RUI BARBOSA 2980,2980           SAO JOSE DOS PI                         83055320PR474980000700005413NF 13432/1  14042014900BRADESCO S/A        1307201400000000001219780CC                                                                                                                                                                                                                                                                                                                                                                                           299857-19     000020
1046421008936COBR_CAUC_COR  MG ELETRO COM IMP E EXP LTDA            000325400000177CEQUIPEL INDUSTRIADEMOVEIS E C          AVENIDA RUI BARBOSA 2980,2980           SAO JOSE DOS PI                         83055320PR474980000800005421NF 13432/2  14042014900BRADESCO S/A        1208201400000000001219780CC                                                                                                                                                                                                                                                                                                                                                                                           299857-20     000021
1007421077706DIR_CREDIT     NATIV FOODS LTDA                        000063960000109WALMART BRASIL LTDA                     AV. TUCUNARé, 125                       BARUERI                                 06460020SP4749900001                                                                                                                                          012531571           091020130000025558            18032014000403Fornecimento de pescados.                                                                                                                                                                                                                       015012014000100299857-21     000022
1007421077706DIR_CREDIT     NATIV FOODS LTDA                        047508411000156COMPANHIA BRASILEIRA DE DISTRIBUICAO    ROD. ANHANGUERA, KM 17,8                OSASCO                                  06278000SP4750000001                                                                                                                                          012531571           040320100000025566            18032014000403Fornecimento de pesacados.                                                                                                                                                                                                                      015012014000100299857-22     000023
9000022                                                                                                                                                                                                                                                                                                                                                                                                                                                                                                                                                                                                                                                                                                               000024
