0REMESSANOTIFICAÇÃO ELETRONICA        99999999999999Bicbanco S/A                            Avenida Brigadeiro Faria Lima           4.440     2º andar  Itaim Bibi                    São Paulo                     04538132SPBicbanco S/A                                                                    08112013                                                                                                                                                                                                                                                                                                                                                                                                000001
1007421072259COBR_CAUC_COR  BOMBRIL S/A                             002782071000380MEGAFORT DISTRIB IMP E EXP LTDA         AV WILSON TAVARES RIBEIR 1651, LUC1     CONTAGEM                                32183680MG4508300001023999450051465001  30102013900BRADESCO S/A        2011201300000000010009808CC                                                                                                                                                                                                                                                                                                                                                                                           267443-1      000002
1007421072259COBR_CAUC_COR  BOMBRIL S/A                             005383639000117DISTR CHOK - PET DE FRANCA LTDA         R HEITOR VILA LOBOS 1093                FRANCA                                  14409409SP4508400001024001530832417001  25102013900BRADESCO S/A        2911201300000000010009808CC                                                                                                                                                                                                                                                                                                                                                                                           267443-2      000003
1021420930887COBR_CAUC_COR  DEDINI S/A INDUSTRIAS DE BASE           007930999000206BAMBUI BIOENERGIA S.A.                  ROD MG 827 KM BAMBUI MEDEIROS BR        BAMBUI                                  38900000MG450810000106471591235705-1-1  01112013900BRADESCO S/A        1512201300000000012009641CC                                                                                                                                                                                                                                                                                                                                                                                           267443-3      000004
1021420930887COBR_CAUC_COR  DEDINI S/A INDUSTRIAS DE BASE           061068342000138PRENSAS SCHULER SA                      AV FAGUNDES DE OLIVEIRA, 1515 PIRAPORINHDIADEMA                                 09950904SP45082000010647153243139-01-1  01112013900BRADESCO S/A        2911201300000000015224000CC                                                                                                                                                                                                                                                                                                                                                                                           267443-4      000005
1008421022487COBR_CAUC_COR  EBP - EMPRESA BRASILEIRA DE PESCADO     033304981000110SUPERMERCADOS MUNDIAL LTDA              RUADONA EMILIA, 2                       RIO DE JANEIRO                          20765110RJ4508800001016801210022605/    31102013900BRADESCO S/A        1412201300000000035235000CC                                                                                                                                                                                                                                                                                                                                                                                           267443-5      000006
1008421022487COBR_CAUC_COR  EBP - EMPRESA BRASILEIRA DE PESCADO     033381286000151SUPER MERCADO ZONA SUL S/A              RUA COMANDANTE VERGUEIRO DA CRUZ, 226   RIO DE JANEIRO                          21021020RJ4508900001016803170022624/    31102013900BRADESCO S/A        0412201300000000011655000CC                                                                                                                                                                                                                                                                                                                                                                                           267443-6      000007
1043421003018COBR_CAUC_COR  FELINTO INDUSTRIA E COMERCIO LTDA       052034139000150MARILAN ALIMENTOS S/A                   AV JOSE DE GRANDE,,518-/642             MARILIA                                 17519903SP45087000010077693420433-A     04112013800UNIBANCO S/A        2412201300000000010940850CC                                                                                                                                                                                                                                                                                                                                                                                           267443-7      000008
1048421003043COBR_CAUC_COR  FRIGOL S.A. EM RECUPERACAO JUDICIAL     001437139000160D L SOSINHO & CIA LTDA ME               VERA CRUZ 63                            ANANINDEUA                              67030775PA4509000001000540880000028991  04112013900BRADESCO S/A        1111201300000000011335797CC                                                                                                                                                                                                                                                                                                                                                                                           267443-8      000009
1048421003043COBR_CAUC_COR  FRIGOL S.A. EM RECUPERACAO JUDICIAL     067620377000114MINERVA.S.A                             AV.ANTONIO MANSO BERNARDES,S/N          BARRETOS                                14781545SP4509100001000540960000028993  04112013900BRADESCO S/A        0412201300000000017547262CC                                                                                                                                                                                                                                                                                                                                                                                           267443-9      000010
1019421004658COBR_CAUC_COR  S/A ESTADO DE MINAS                     003471344000177CAOA MONTADORA DE VEICULOS SA           R11 SN FAZ BARREIRO DO MEIO             ANAPOLIS                                75133590GO4508000001012705712053736-1   31102013900BRADESCO S/A        3011201300000000010934976CC                                                                                                                                                                                                                                                                                                                                                                                           267443-10     000011
1007421073611COBR_CAUC_BIC  VALE GRANDE IND E COM DE ALIMENTOS      007753705000200COMERCIO DE CARNES FUTURA GERACAO       AVENIDA MANOEL DE CAMARGO SAMPAIO 565   SOROCABA                                18071195SP45086000010240022600057808-1  02112013007PAULISTA            2711201300000000032451711CC                                                                                                                                                                                                                                                                                                                                                                                           267443-11     000012
1028421009810COBR_CAUC_COR  VALLEE S/A                              001963040000363SOUBHIA E CIA LTDA                      R JORNALISTA BELIZARIO LIMA 104-VL GLORICAMPO GRANDE                            79004270MS4508500001029383113093186013  04112013800UNIBANCO S/A        2612201300000000010745528CC                                                                                                                                                                                                                                                                                                                                                                                           267443-12     000013
1007421065309COBR_CAUC_BIC  OCEANO IND.GRAFICA E EDITORA LTDA       015103047016232SANTANA S/A DROGARIAS FARMACIAS         R. GOMES DE CARVALHO - DE 155,1629      SAO PAULO                               04547006SP4511000001024036911331        31102013007PAULISTA            2911201300000000014430720CC                                                                                                                                                                                                                                                                                                                                                                                           267696-1      000014
1007421072259COBR_CAUC_COR  BOMBRIL S/A                             005383639000117DISTR CHOK - PET DE FRANCA LTDA         R HEITOR VILA LOBOS 1093                FRANCA                                  14409409SP4512800001024088800837386001  31102013900BRADESCO S/A        0512201300000000010009808CC                                                                                                                                                                                                                                                                                                                                                                                           267918-1      000015
1007421072259COBR_CAUC_COR  BOMBRIL S/A                             049092398000394COML ESPERANCA ATAC DISTR LTDA          AV JULIA GAIOLLI 600                    GUARULHOS                               07251500SP4513000001024087400836463001  31102013900BRADESCO S/A        2111201300000000010989825CC                                                                                                                                                                                                                                                                                                                                                                                           267918-2      000016
1007421072259COBR_CAUC_COR  BOMBRIL S/A                             013495487000172DESTRO BRASIL DISTRIBUICAO LTDA         AV ANDRE COSTA 2002                     JUNDIAI                                 13214730SP4512900001024088980051534001  31102013900BRADESCO S/A        0612201300000000010184790CC                                                                                                                                                                                                                                                                                                                                                                                           267918-3      000017
1007421072259COBR_CAUC_COR  BOMBRIL S/A                             013495487000172DESTRO BRASIL DISTRIBUICAO LTDA         AV ANDRE COSTA 2002                     JUNDIAI                                 13214730SP4512900002024089010051535001  31102013900BRADESCO S/A        0612201300000000010184790CC                                                                                                                                                                                                                                                                                                                                                                                           267918-4      000018
1021420930887COBR_CAUC_COR  DEDINI S/A INDUSTRIAS DE BASE           004165520000296AGROPECUARIA NOVO MILENIO LTDA          ROD TRANSEFONICA KM 6 ANEXO 01 S N VILA MIRASSOL D´OEST                         78280000MT451260000106473276236482-1-1  04112013900BRADESCO S/A        3011201300000000032000000CC                                                                                                                                                                                                                                                                                                                                                                                           267918-5      000019
1021420930887COBR_CAUC_COR  DEDINI S/A INDUSTRIAS DE BASE           007930999000206BAMBUI BIOENERGIA S.A.                  ROD MG 827 KM BAMBUI MEDEIROS BR        BAMBUI                                  38900000MG451270000106473306235705-2-2  01112013900BRADESCO S/A        1501201400000000012009641CC                                                                                                                                                                                                                                                                                                                                                                                           267918-6      000020
1016421008591COBR_CAUC_COR  GLOBOAVES SAO PAULO AGROAVICOLA LTD     004240370001129MERCANTILNOVA ERA LTDA                  AV AUTAZ MIRIM ,9058                    MANAUS                                  69088245AM451320000104190911087563      05112013800UNIBANCO S/A        0312201300000000010503024CC                                                                                                                                                                                                                                                                                                                                                                                           267918-7      000021
1016421008591COBR_CAUC_COR  GLOBOAVES SAO PAULO AGROAVICOLA LTD     004240370001129MERCANTILNOVA ERA LTDA                  AV AUTAZ MIRIM ,9058                    MANAUS                                  69088245AM451320000204190937087195      30102013800UNIBANCO S/A        2711201300000000010503024CC                                                                                                                                                                                                                                                                                                                                                                                           267918-8      000022
1029421018320COBR_CAUC_BIC  MOVEIS K1 LTDA                          056642960000100LOJAS CEM S/A                           ROD ENG ERMINIO OLIV PENTEADO, s/n km 46SALTO                                   13329903SP451310000100067065379341-128  04112013021CAMPINAS            2811201300000000010893375CC                                                                                                                                                                                                                                                                                                                                                                                           267918-9      000023
9000022                                                                                                                                                                                                                                                                                                                                                                                                                                                                                                                                                                                                                                                                                                               000024
