0REMESSANOTIFICAÇÃO ELETRONICA        99999999999999Bicbanco S/A                            Avenida Brigadeiro Faria Lima           4.440     2º andar  Itaim Bibi                    São Paulo                     04538132SPBicbanco S/A                                                                    04092013                                                                                                                                                                                                                                                                                                                                                                                                000001
1046421001443COBR_CAUC_COR  COSTAO DO SANTINHO TUR E LAZER LTDA     000480633000144RENASE AGENCIA DE VIAGENS E TURISM      R. CHILON,344                           SAO PAULO                               04552030SP438020000100011448179945      28082013900BRADESCO S/A        1609201300000000026380077CC                                                                                                                                                                                                                                                                                                                                                                                           255609-1      000002
1028421001518COBR_CAUC_COR  GAIA AGRIBUSINESS AGRICOLA LTDA         000041890124168JOAO QUIRINO DA SILVA                   RUA RUI BARBOSA,826                     PONTALINA                               75620000GO43803000010291759440444       29082013900BRADESCO S/A        2502201400000000019280000CC                                                                                                                                                                                                                                                                                                                                                                                           255609-2      000003
1022421026823DIR_CREDIT     IBA AGROINDUSTRIAL LTDA                 007459492000127DESTILARIA VALE DO PARACATU AGROENERGIA ROD LMG 680 KM 26 CX POSTAL 271         PARACATU                                38600000MG4381700001                                                                                                                                          001114338           101020100000017282            26062013001210a locadora aluga para locataria as maquinas descritas no instrumento particular de contrato de locação de maquinas agricolas.                                                                                                                   006997187000126255609-3      000004
1022421026823DIR_CREDIT     IBA AGROINDUSTRIAL LTDA                 007459492000127DESTILARIA VALE DO PARACATU AGROENERGIA ROD LMG 680 KM 26 CX POSTAL 271         PARACATU                                38600000MG4382100001                                                                                                                                          001114325           101020100000017282            26062013001210a locadora aluga para locataria as maquinas descritas no instrumento particular de contrato de locação de maquinas agricolas.                                                                                                                   006997187000126255609-4      000005
1022421026823DIR_CREDIT     IBA AGROINDUSTRIAL LTDA                 007459492000127DESTILARIA VALE DO PARACATU AGROENERGIA ROD LMG 680 KM 26 CX POSTAL 271         PARACATU                                38600000MG4381800001                                                                                                                                          001114319           101020100000017282            26062013001213a locadora aluga para locataria as maquinas descritas no instrumento particular de contrato de locação de maquinas agricolas.                                                                                                                   006997187000126255609-5      000006
1022421009579COBR_CAUC_BIC  LOREN-SID LTDA                          032919896000101COMERCIAL DE VENTILADORES LTDA          C.N.F 01-LOTE 5/08 LOJA 1               TAGUATINGA NORT                         72125515DF43822000010457796442061       04072013009BRASILIA            0909201300000000000126150CC                                                                                                                                                                                                                                                                                                                                                                                           255609-6      000007
1022421009579COBR_CAUC_BIC  LOREN-SID LTDA                          032919896000101COMERCIAL DE VENTILADORES LTDA          C.N.F 01-LOTE 5/08 LOJA 1               TAGUATINGA NORT                         72125515DF43822000020457797242061       04072013009BRASILIA            0910201300000000000126150CC                                                                                                                                                                                                                                                                                                                                                                                           255609-7      000008
1022421009579COBR_CAUC_BIC  LOREN-SID LTDA                          032919896000101COMERCIAL DE VENTILADORES LTDA          C.N.F 01-LOTE 5/08 LOJA 1               TAGUATINGA NORT                         72125515DF43822000030457798142061       04072013009BRASILIA            0811201300000000000126150CC                                                                                                                                                                                                                                                                                                                                                                                           255609-8      000009
1022421009579COBR_CAUC_BIC  LOREN-SID LTDA                          032919896000101COMERCIAL DE VENTILADORES LTDA          C.N.F 01-LOTE 5/08 LOJA 1               TAGUATINGA NORT                         72125515DF43822000040457799942061       04072013009BRASILIA            0812201300000000000126150CC                                                                                                                                                                                                                                                                                                                                                                                           255609-9      000010
1022421009579COBR_CAUC_COR  LOREN-SID LTDA                          002292663000152SANTA IZABEL MOV. E ELET. LTDA          RUA CORONEL SA, S/N                     STA IZABEL DO P                         68790000PA43833000010457811142031       28062013900BRADESCO S/A        0310201300000000000404558CC                                                                                                                                                                                                                                                                                                                                                                                           255609-10     000011
1022421009579COBR_CAUC_COR  LOREN-SID LTDA                          002282152000230CONCORDIA MOVEIS E ELETRO LTDA          RUA CORONEL SA, S/N                     SANTA IZABEL DO                         68790000PA43832000010457728042007       28062013900BRADESCO S/A        0310201300000000000404558CC                                                                                                                                                                                                                                                                                                                                                                                           255609-11     000012
1022421009579COBR_CAUC_COR  LOREN-SID LTDA                          002280707000124TOME-ACU MOVEIS E ELET. LTDA            RUA JOAO COELHO, S/N                    STA IZABEL DO P                         68790000PA43831000010457822742030       28062013900BRADESCO S/A        0310201300000000000404480CC                                                                                                                                                                                                                                                                                                                                                                                           255609-12     000013
1022421009579COBR_CAUC_BIC  LOREN-SID LTDA                          010645495000160M. SOUZA DA GAMA - ME                   RUA CEL. LOURENCO BORGES, 2146          BREVES                                  68800000PA43830000010457769742016       28062013050BELEM               0309201300000000000168588CC                                                                                                                                                                                                                                                                                                                                                                                           255609-13     000014
1022421009579COBR_CAUC_BIC  LOREN-SID LTDA                          010645495000160M. SOUZA DA GAMA - ME                   RUA CEL. LOURENCO BORGES, 2146          BREVES                                  68800000PA43830000020457770142016       28062013050BELEM               0310201300000000000168586CC                                                                                                                                                                                                                                                                                                                                                                                           255609-14     000015
1022421009579COBR_CAUC_BIC  LOREN-SID LTDA                          010645495000160M. SOUZA DA GAMA - ME                   RUA CEL. LOURENCO BORGES, 2146          BREVES                                  68800000PA43830000030457771942016       28062013050BELEM               0211201300000000000168586CC                                                                                                                                                                                                                                                                                                                                                                                           255609-15     000016
1022421009579COBR_CAUC_BIC  LOREN-SID LTDA                          010645495000160M. SOUZA DA GAMA - ME                   RUA CEL. LOURENCO BORGES, 2146          BREVES                                  68800000PA43830000040457772742016       28062013050BELEM               0212201300000000000168586CC                                                                                                                                                                                                                                                                                                                                                                                           255609-16     000017
1022421009579COBR_CAUC_COR  LOREN-SID LTDA                          002282194000271BENEVIDES MOVEIS E ELETRO LTDA          RUA CORONEL SA, S/N                     STA IZABEL DO P                         68790000PA43829000010457718242009       28062013900BRADESCO S/A        0310201300000000000404558CC                                                                                                                                                                                                                                                                                                                                                                                           255609-17     000018
1022421009579COBR_CAUC_COR  LOREN-SID LTDA                          002282194000271BENEVIDES MOVEIS E ELETRO LTDA          RUA CORONEL SA, S/N                     STA IZABEL DO P                         68790000PA43829000020457719142011       28062013900BRADESCO S/A        0310201300000000000404558CC                                                                                                                                                                                                                                                                                                                                                                                           255609-18     000019
1022421009579COBR_CAUC_BIC  LOREN-SID LTDA                          001746105000157ELETROPIMBO COM. E SERVICO LTDA         AV. MAGALHAES BARATA 1192               CASTANHAL                               68740060PA43828000010457738742014       28062013050BELEM               0309201300000000000259870CC                                                                                                                                                                                                                                                                                                                                                                                           255609-19     000020
1022421009579COBR_CAUC_BIC  LOREN-SID LTDA                          001746105000157ELETROPIMBO COM. E SERVICO LTDA         AV. MAGALHAES BARATA 1192               CASTANHAL                               68740060PA43828000020457739542014       28062013050BELEM               0310201300000000000258834CC                                                                                                                                                                                                                                                                                                                                                                                           255609-20     000021
1022421009579COBR_CAUC_BIC  LOREN-SID LTDA                          001746105000157ELETROPIMBO COM. E SERVICO LTDA         AV. MAGALHAES BARATA 1192               CASTANHAL                               68740060PA43828000030457740942014       28062013050BELEM               0211201300000000000258834CC                                                                                                                                                                                                                                                                                                                                                                                           255609-21     000022
1022421009579COBR_CAUC_COR  LOREN-SID LTDA                          007227502000107CARRA E MAFFEI LTDA-ME                  RUA MARECHAL RONDON,65                  CAMPO GRANDE                            79008000MS43827000010457727142006       28062013900BRADESCO S/A        2609201300000000000096980CC                                                                                                                                                                                                                                                                                                                                                                                           255609-22     000023
1022421009579COBR_CAUC_COR  LOREN-SID LTDA                          007227502000107CARRA E MAFFEI LTDA-ME                  RUA MARECHAL RONDON,65                  CAMPO GRANDE                            79008000MS43827000020457783242006       28062013900BRADESCO S/A        2610201300000000000096980CC                                                                                                                                                                                                                                                                                                                                                                                           255609-23     000024
1022421009579COBR_CAUC_BIC  LOREN-SID LTDA                          001963780000138MACROVENDA SOLUCOES EM VENT. LTDA       RUA DO HIPODROMO, 628/632               SAO PAULO                               03051000SP43826000010457773542058       04072013007PAULISTA            0909201300000000000070825CC                                                                                                                                                                                                                                                                                                                                                                                           255609-24     000025
1022421009579COBR_CAUC_BIC  LOREN-SID LTDA                          001963780000138MACROVENDA SOLUCOES EM VENT. LTDA       RUA DO HIPODROMO, 628/632               SAO PAULO                               03051000SP43826000020457774342058       04072013007PAULISTA            0910201300000000000057226CC                                                                                                                                                                                                                                                                                                                                                                                           255609-25     000026
1022421009579COBR_CAUC_BIC  LOREN-SID LTDA                          001963780000138MACROVENDA SOLUCOES EM VENT. LTDA       RUA DO HIPODROMO, 628/632               SAO PAULO                               03051000SP43826000030457775142058       04072013007PAULISTA            0811201300000000000057226CC                                                                                                                                                                                                                                                                                                                                                                                           255609-26     000027
1022421009579COBR_CAUC_COR  LOREN-SID LTDA                          044878981000140COIMMA COM.IND.SAO CRISTOVAO LTDA.      ROD.COMTE.JOAO RIBEIRO DE BARROS KM 646 DRACENA                                 17900000SP43825000010457791342092       05072013900BRADESCO S/A        1009201300000000000081340CC                                                                                                                                                                                                                                                                                                                                                                                           255609-27     000028
1022421009579COBR_CAUC_COR  LOREN-SID LTDA                          044878981000140COIMMA COM.IND.SAO CRISTOVAO LTDA.      ROD.COMTE.JOAO RIBEIRO DE BARROS KM 646 DRACENA                                 17900000SP43825000020457792142092       05072013900BRADESCO S/A        1010201300000000000081340CC                                                                                                                                                                                                                                                                                                                                                                                           255609-28     000029
1022421009579COBR_CAUC_BIC  LOREN-SID LTDA                          037405842000133CAMARA FRIA COM.MANUT.ASSIST.TEC.L      AV.PERIMETRAL NORTE,7625                GOIANIA                                 74573260GO43824000010457721242077       05072013018GOIANIA             1009201300000000000069786CC                                                                                                                                                                                                                                                                                                                                                                                           255609-29     000030
1022421009579COBR_CAUC_BIC  LOREN-SID LTDA                          037405842000133CAMARA FRIA COM.MANUT.ASSIST.TEC.L      AV.PERIMETRAL NORTE,7625                GOIANIA                                 74573260GO43824000020457722142077       05072013018GOIANIA             1010201300000000000069786CC                                                                                                                                                                                                                                                                                                                                                                                           255609-30     000031
1022421009579COBR_CAUC_COR  LOREN-SID LTDA                          007227592000128G.A. VIANA IND. COMERC. EPP             AV.DOS PINHEIROS N. 1006                SANTA FE DO SUL                         15775000SP43823000010457746842076       05072013900BRADESCO S/A        1009201300000000000208740CC                                                                                                                                                                                                                                                                                                                                                                                           255609-31     000032
1046421006070DIR_CREDIT     METALURGICA DS LTDA                     060857349000176TRW AUTOMOTIVE LTDA                     VIA ANHANGUERA KM 147                   LIMEIRA                                 13486915SP4381300001                                                                                                                                          012352672           260320070000018698            29082013017002fornecimento de discos e tambores de freio para automoveis                                                                                                                                                                                      079414868000198255609-32     000033
1015421021867COBR_CAUC_COR  COTRIJUI COOP AGROP & INDUSTRIAL        008797179000161DSG DISTRIB. DE ALIMENTOS LTDA          SALATIEL MARQUES FONTES, 695            SOUSA                                   58806410PB438400000100077351159870-1    29082013900BRADESCO S/A        0509201300000000011120000CC                                                                                                                                                                                                                                                                                                                                                                                           255620-1      000034
1021420930887COBR_CAUC_BIC  DEDINI S/A INDUSTRIAS DE BASE           075717355001177USINA DE ACUCAR SANTA TEREZINHA LT      AV MARCELO MESSIAS BUSIQUIA 847 PQ INDUSMARINGA                                 87065006PR438360000106431999228301-2-2  29082013016CURITIBA            3009201300000000016477532CC                                                                                                                                                                                                                                                                                                                                                                                           255620-2      000035
1021420930887COBR_CAUC_BIC  DEDINI S/A INDUSTRIAS DE BASE           075717355001177USINA DE ACUCAR SANTA TEREZINHA LT      AV MARCELO MESSIAS BUSIQUIA 847 PQ INDUSMARINGA                                 87065006PR438360000206432006228300-2-2  29082013016CURITIBA            3009201300000000014856866CC                                                                                                                                                                                                                                                                                                                                                                                           255620-3      000036
1021420930887COBR_CAUC_BIC  DEDINI S/A INDUSTRIAS DE BASE           075717355001177USINA DE ACUCAR SANTA TEREZINHA LT      AV MARCELO MESSIAS BUSIQUIA 847 PQ INDUSMARINGA                                 87065006PR438360000306432031228241-2-2  29082013016CURITIBA            3009201300000000010602131CC                                                                                                                                                                                                                                                                                                                                                                                           255620-4      000037
1021420930887COBR_CAUC_BIC  DEDINI S/A INDUSTRIAS DE BASE           075717355001177USINA DE ACUCAR SANTA TEREZINHA LT      AV MARCELO MESSIAS BUSIQUIA 847 PQ INDUSMARINGA                                 87065006PR438360000406432090228243-2-2  29082013016CURITIBA            3009201300000000022820005CC                                                                                                                                                                                                                                                                                                                                                                                           255620-5      000038
1016421001058COBR_CAUC_COR  MONTANA INDUSTRIA DE MAQUINAS SA        008204291000141COMERCIAL AGRICOLA POSSOBON LTDA        RUA PAULO ROEPKE,602                    RESTINGA SECA                           97200000RS4383700001041134010043024/02  29082013900BRADESCO S/A        2711201300000000016300000CC                                                                                                                                                                                                                                                                                                                                                                                           255620-6      000039
1016421001058COBR_CAUC_COR  MONTANA INDUSTRIA DE MAQUINAS SA        000051879727072CARLOS GOMES ABREU JUNIOR               BOCAVERA,S/N                            TUPANCIRETA                             98170000RS4383900001041134790042918/01  28082013800UNIBANCO S/A        2709201300000000016000000CC                                                                                                                                                                                                                                                                                                                                                                                           255620-7      000040
1016421001058COBR_CAUC_BIC  MONTANA INDUSTRIA DE MAQUINAS SA        016883638000158W W LONDRINA MAQ AGRICOLAS LTDA         RUA CLISTENES,38                        LONDRINA                                86025630PR4383800001041134440042943/01  28082013031LONDRINA            2709201300000000026100000CC                                                                                                                                                                                                                                                                                                                                                                                           255620-8      000041
1019421004658COBR_CAUC_COR  S/A ESTADO DE MINAS                     005818921000180BOEING BRASIL SERVICOS TECNICOS AE      AV. BRIGADEIRO FARIA LIMA 3729 4 ANDAR CSAO PAULO                               04538905SP4383400001012572901958328-1   30082013900BRADESCO S/A        1509201300000000010724688CC                                                                                                                                                                                                                                                                                                                                                                                           255620-9      000042
1019421004658COBR_CAUC_COR  S/A ESTADO DE MINAS                     019791581000155CIA DE DESENV ECONOMICO DE MG-CODE      MANAUS 467                              BELO HORIZONTE                          30150350MG4383500001012566331958375-1   30082013900BRADESCO S/A        1509201300000000031138037CC                                                                                                                                                                                                                                                                                                                                                                                           255620-10     000043
1022421010097COBR_CAUC_COR  TRIANGULO ALIMENTOS LTDA                014162266000145RPM DISTRIBUIDORA DE ALIMENTOS E L      R J. ALBERTO BRAZAO FERR. 103 GALP M E QPAULISTA                                53413235PE438610000104610449070461-2    06082013800UNIBANCO S/A        1709201300000000005688750CC                                                                                                                                                                                                                                                                                                                                                                                           255620-11     000044
1022421010097COBR_CAUC_COR  TRIANGULO ALIMENTOS LTDA                014162266000145RPM DISTRIBUIDORA DE ALIMENTOS E L      R J. ALBERTO BRAZAO FERR. 103 GALP M E QPAULISTA                                53413235PE438610000204610457070659-2    09082013800UNIBANCO S/A        2009201300000000001059375CC                                                                                                                                                                                                                                                                                                                                                                                           255620-12     000045
1022421010097COBR_CAUC_COR  TRIANGULO ALIMENTOS LTDA                014162266000145RPM DISTRIBUIDORA DE ALIMENTOS E L      R J. ALBERTO BRAZAO FERR. 103 GALP M E QPAULISTA                                53413235PE438610000304610465070659-3    09082013800UNIBANCO S/A        2709201300000000001059375CC                                                                                                                                                                                                                                                                                                                                                                                           255620-13     000046
1022421010097COBR_CAUC_COR  TRIANGULO ALIMENTOS LTDA                014162266000145RPM DISTRIBUIDORA DE ALIMENTOS E L      R J. ALBERTO BRAZAO FERR. 103 GALP M E QPAULISTA                                53413235PE438610000404610473070659-4    09082013800UNIBANCO S/A        0410201300000000001059375CC                                                                                                                                                                                                                                                                                                                                                                                           255620-14     000047
1022421010097COBR_CAUC_COR  TRIANGULO ALIMENTOS LTDA                014162266000145RPM DISTRIBUIDORA DE ALIMENTOS E L      R J. ALBERTO BRAZAO FERR. 103 GALP M E QPAULISTA                                53413235PE438610000504610481070660-2    09082013800UNIBANCO S/A        2009201300000000004237500CC                                                                                                                                                                                                                                                                                                                                                                                           255620-15     000048
1022421010097COBR_CAUC_COR  TRIANGULO ALIMENTOS LTDA                014162266000145RPM DISTRIBUIDORA DE ALIMENTOS E L      R J. ALBERTO BRAZAO FERR. 103 GALP M E QPAULISTA                                53413235PE438610000604610490071179-1    16082013800UNIBANCO S/A        2009201300000000004465500CC                                                                                                                                                                                                                                                                                                                                                                                           255620-16     000049
1022421010097COBR_CAUC_COR  TRIANGULO ALIMENTOS LTDA                014162266000145RPM DISTRIBUIDORA DE ALIMENTOS E L      R J. ALBERTO BRAZAO FERR. 103 GALP M E QPAULISTA                                53413235PE438610000704610503071179-2    16082013800UNIBANCO S/A        2709201300000000004465500CC                                                                                                                                                                                                                                                                                                                                                                                           255620-17     000050
1022421010097COBR_CAUC_COR  TRIANGULO ALIMENTOS LTDA                014162266000145RPM DISTRIBUIDORA DE ALIMENTOS E L      R J. ALBERTO BRAZAO FERR. 103 GALP M E QPAULISTA                                53413235PE438610000804610511071180-1    16082013800UNIBANCO S/A        2009201300000000000320200CC                                                                                                                                                                                                                                                                                                                                                                                           255620-18     000051
1022421010097COBR_CAUC_COR  TRIANGULO ALIMENTOS LTDA                014162266000145RPM DISTRIBUIDORA DE ALIMENTOS E L      R J. ALBERTO BRAZAO FERR. 103 GALP M E QPAULISTA                                53413235PE438610000904610520071180-2    16082013800UNIBANCO S/A        2709201300000000000320200CC                                                                                                                                                                                                                                                                                                                                                                                           255620-19     000052
1022421010097COBR_CAUC_COR  TRIANGULO ALIMENTOS LTDA                014162266000145RPM DISTRIBUIDORA DE ALIMENTOS E L      R J. ALBERTO BRAZAO FERR. 103 GALP M E QPAULISTA                                53413235PE438610001004610538071332-1    17082013800UNIBANCO S/A        2109201300000000003672500CC                                                                                                                                                                                                                                                                                                                                                                                           255620-20     000053
1022421010097COBR_CAUC_COR  TRIANGULO ALIMENTOS LTDA                014162266000145RPM DISTRIBUIDORA DE ALIMENTOS E L      R J. ALBERTO BRAZAO FERR. 103 GALP M E QPAULISTA                                53413235PE438610001104610546071332-2    17082013800UNIBANCO S/A        2809201300000000003672500CC                                                                                                                                                                                                                                                                                                                                                                                           255620-21     000054
1022421010097COBR_CAUC_COR  TRIANGULO ALIMENTOS LTDA                014162266000145RPM DISTRIBUIDORA DE ALIMENTOS E L      R J. ALBERTO BRAZAO FERR. 103 GALP M E QPAULISTA                                53413235PE438610001204610554071333-1    17082013800UNIBANCO S/A        2109201300000000000776875CC                                                                                                                                                                                                                                                                                                                                                                                           255620-22     000055
1022421010097COBR_CAUC_COR  TRIANGULO ALIMENTOS LTDA                014162266000145RPM DISTRIBUIDORA DE ALIMENTOS E L      R J. ALBERTO BRAZAO FERR. 103 GALP M E QPAULISTA                                53413235PE438610001304610562071333-2    17082013800UNIBANCO S/A        2809201300000000000776875CC                                                                                                                                                                                                                                                                                                                                                                                           255620-23     000056
1022421010097COBR_CAUC_COR  TRIANGULO ALIMENTOS LTDA                014162266000145RPM DISTRIBUIDORA DE ALIMENTOS E L      R J. ALBERTO BRAZAO FERR. 103 GALP M E QPAULISTA                                53413235PE438610001404610571071333-3    17082013800UNIBANCO S/A        0510201300000000000776875CC                                                                                                                                                                                                                                                                                                                                                                                           255620-24     000057
1022421010097COBR_CAUC_COR  TRIANGULO ALIMENTOS LTDA                014162266000145RPM DISTRIBUIDORA DE ALIMENTOS E L      R J. ALBERTO BRAZAO FERR. 103 GALP M E QPAULISTA                                53413235PE438610001504610589071333-4    17082013800UNIBANCO S/A        1210201300000000000776875CC                                                                                                                                                                                                                                                                                                                                                                                           255620-25     000058
1022421010097COBR_CAUC_COR  TRIANGULO ALIMENTOS LTDA                014162266000145RPM DISTRIBUIDORA DE ALIMENTOS E L      R J. ALBERTO BRAZAO FERR. 103 GALP M E QPAULISTA                                53413235PE438610001604610597071666-1    23082013800UNIBANCO S/A        2909201300000000000218725CC                                                                                                                                                                                                                                                                                                                                                                                           255620-26     000059
1022421010097COBR_CAUC_COR  TRIANGULO ALIMENTOS LTDA                014162266000145RPM DISTRIBUIDORA DE ALIMENTOS E L      R J. ALBERTO BRAZAO FERR. 103 GALP M E QPAULISTA                                53413235PE438610001704610601071666-2    23082013800UNIBANCO S/A        0610201300000000000218725CC                                                                                                                                                                                                                                                                                                                                                                                           255620-27     000060
1022421010097COBR_CAUC_COR  TRIANGULO ALIMENTOS LTDA                014162266000145RPM DISTRIBUIDORA DE ALIMENTOS E L      R J. ALBERTO BRAZAO FERR. 103 GALP M E QPAULISTA                                53413235PE438610001804610619071667-1    23082013800UNIBANCO S/A        2909201300000000005577660CC                                                                                                                                                                                                                                                                                                                                                                                           255620-28     000061
1022421010097COBR_CAUC_COR  TRIANGULO ALIMENTOS LTDA                014162266000145RPM DISTRIBUIDORA DE ALIMENTOS E L      R J. ALBERTO BRAZAO FERR. 103 GALP M E QPAULISTA                                53413235PE438610001904610627071667-2    23082013800UNIBANCO S/A        0610201300000000005577660CC                                                                                                                                                                                                                                                                                                                                                                                           255620-29     000062
1022421010097COBR_CAUC_COR  TRIANGULO ALIMENTOS LTDA                014162266000145RPM DISTRIBUIDORA DE ALIMENTOS E L      R J. ALBERTO BRAZAO FERR. 103 GALP M E QPAULISTA                                53413235PE438610002004610635071829-1    24082013800UNIBANCO S/A        2809201300000000006356250CC                                                                                                                                                                                                                                                                                                                                                                                           255620-30     000063
1022421010097COBR_CAUC_COR  TRIANGULO ALIMENTOS LTDA                014162266000145RPM DISTRIBUIDORA DE ALIMENTOS E L      R J. ALBERTO BRAZAO FERR. 103 GALP M E QPAULISTA                                53413235PE438610002104610643071829-2    24082013800UNIBANCO S/A        0510201300000000006356250CC                                                                                                                                                                                                                                                                                                                                                                                           255620-31     000064
1046421001443COBR_CAUC_COR  COSTAO DO SANTINHO TUR E LAZER LTDA     092754738000162LOJAS RENNER S.A.                       AV. JOAQUIM PORTO VILLANOVA,401         PORTO ALEGRE                            91410400RS4386900001000114641736        30082013900BRADESCO S/A        2009201300000000029085918CC                                                                                                                                                                                                                                                                                                                                                                                           255627-1      000065
1021420930887COBR_CAUC_BIC  DEDINI S/A INDUSTRIAS DE BASE           075717355000367USINA DE ACUCAR SANTA TEREZINHA LT      AV MARCELO MESSIAS BUSIQUIA 847 PQ INDUSMARINGA                                 87065006PR438630000106434432228243-3-3  30082013016CURITIBA            3110201300000000022820005CC                                                                                                                                                                                                                                                                                                                                                                                           255627-2      000066
1014420939021COBR_CAUC_BIC  EDITORA O DIA S/A                       010554856000162SAERJ SUPERMERCADOS ASSOC. ESTADO       RUA DA CEVADA 93 SALA 508               RIO DE JANEIRO                          21011080RJ4386500001025365710696068     16082013014RIO DE JANEIRO      2009201300000000011500000CC                                                                                                                                                                                                                                                                                                                                                                                           255627-3      000067
1014420939021COBR_CAUC_BIC  EDITORA O DIA S/A                       033041260065290VIA VAREJO S/A                          PREFEITO DULCIDIO CARDOSO, 2000         RIO DE JANEIRO                          22640085RJ4386600001025369540696388     31082013014RIO DE JANEIRO      1509201300000000016127350CC                                                                                                                                                                                                                                                                                                                                                                                           255627-4      000068
1043421010006COBR_CAUC_COR  ELFA MEDICAMENTOS LTDA                  009219138000401UNIMED-RIO EMPREENDIMENTOS MEDICOS      R PINHEIRO GUIMARAES, 66                RIO DE JANEIRO                          22281080RJ438710000100048165000025273   30082013900BRADESCO S/A        3009201300000000019270500CC                                                                                                                                                                                                                                                                                                                                                                                           255627-5      000069
1041421001930DIR_CREDIT     GVE ENGENHARIA LTDA                     006840748000189COMPANHIA ENERGETICA DO PIAUI S/A CEPISAAV. MARANHÃO 759/SUL - CENTRO           TERESINA                                64001010PI4384900001                                                                                                                                          012286066           010420110000018432031/2011    30082013000404execução de serviços de manutenção de emergência - plantão 24 hrs dosserv.de manutenção preventiva dos serv. de poda de árvores en redes de média tensão e de baixa tensão urbana e rural.                                                      008562111000101255627-6      000070
1031421010118COBR_CAUC_COR  IRMOL INDUSTRIAS REUNIDAS DE MOVEIS     017619560000121ILZA LUCIA DE MELO CASTRO - ME          RUA MATO DENTRO, 175                    CAETE                                   35970000MG4389800001052792900136691 01  29062013800UNIBANCO S/A        1909201300000000000274511CC                                                                                                                                                                                                                                                                                                                                                                                           255627-7      000071
1031421010118COBR_CAUC_COR  IRMOL INDUSTRIAS REUNIDAS DE MOVEIS     017619560000121ILZA LUCIA DE MELO CASTRO - ME          RUA MATO DENTRO, 175                    CAETE                                   35970000MG4389800002052793710136691 02  29062013800UNIBANCO S/A        2110201300000000000261439CC                                                                                                                                                                                                                                                                                                                                                                                           255627-8      000072
1031421010118COBR_CAUC_BIC  IRMOL INDUSTRIAS REUNIDAS DE MOVEIS     004171410000156OSVALDO LOPES MASCULI ME                AVENIDA LUCIANO DE BONA, 2465 LOJA 02   PERUIBE                                 11750000SP4393600001052302660126760 03  24042013023SANTOS              1409201300000000000039099CC                                                                                                                                                                                                                                                                                                                                                                                           255627-9      000073
1031421010118COBR_CAUC_BIC  IRMOL INDUSTRIAS REUNIDAS DE MOVEIS     004171410000156OSVALDO LOPES MASCULI ME                AVENIDA LUCIANO DE BONA, 2465 LOJA 02   PERUIBE                                 11750000SP4393600002052906840141598 01  31072013800SANTOS              2410201300000000000058348CC                                                                                                                                                                                                                                                                                                                                                                                           255627-10     000074
1031421010118COBR_CAUC_BIC  IRMOL INDUSTRIAS REUNIDAS DE MOVEIS     004171410000156OSVALDO LOPES MASCULI ME                AVENIDA LUCIANO DE BONA, 2465 LOJA 02   PERUIBE                                 11750000SP4393600003052906920141599 02  31072013800SANTOS              2410201300000000000033423CC                                                                                                                                                                                                                                                                                                                                                                                           255627-11     000075
1031421010118COBR_CAUC_COR  IRMOL INDUSTRIAS REUNIDAS DE MOVEIS     017086383000165DAUBERMANN E BORGES LTDA-ME             AV. SAO FRANCISCO DA SILVA, 225         MAMBORE                                 87340000PR4393500001052905790141601 03  31072013900BRADESCO S/A        1410201300000000000098836CC                                                                                                                                                                                                                                                                                                                                                                                           255627-12     000076
1031421010118COBR_CAUC_COR  IRMOL INDUSTRIAS REUNIDAS DE MOVEIS     017086383000165DAUBERMANN E BORGES LTDA-ME             AV. SAO FRANCISCO DA SILVA, 225         MAMBORE                                 87340000PR4393500002052905870141608 03  31072013900BRADESCO S/A        1410201300000000000090563CC                                                                                                                                                                                                                                                                                                                                                                                           255627-13     000077
1031421010118COBR_CAUC_COR  IRMOL INDUSTRIAS REUNIDAS DE MOVEIS     015494676000156HADDAD COMERCIO DE MOVEIS LTDA          RUA JOAO B. ANTUNES, 23                 SALTO DE PIRAPO                         18160000SP4393400001052905950141589 02  31072013800UNIBANCO S/A        1410201300000000000078518CC                                                                                                                                                                                                                                                                                                                                                                                           255627-14     000078
1031421010118COBR_CAUC_COR  IRMOL INDUSTRIAS REUNIDAS DE MOVEIS     015494676000156HADDAD COMERCIO DE MOVEIS LTDA          RUA JOAO B. ANTUNES, 23                 SALTO DE PIRAPO                         18160000SP4393400002052907810141589 03  31072013800UNIBANCO S/A        2910201300000000000078518CC                                                                                                                                                                                                                                                                                                                                                                                           255627-15     000079
1031421010118COBR_CAUC_COR  IRMOL INDUSTRIAS REUNIDAS DE MOVEIS     000731031000112MAGAZINE HADDAD LTDA.                   RUA JOAO TEIXEIRA DO ESPIR.SANTO,120    SALTO DE PIRAPO                         18160000SP4393300001052906170141593 02  31072013800UNIBANCO S/A        1410201300000000000070058CC                                                                                                                                                                                                                                                                                                                                                                                           255627-16     000080
1031421010118COBR_CAUC_COR  IRMOL INDUSTRIAS REUNIDAS DE MOVEIS     000731031000112MAGAZINE HADDAD LTDA.                   RUA JOAO TEIXEIRA DO ESPIR.SANTO,120    SALTO DE PIRAPO                         18160000SP4393300002052908110141593 03  31072013800UNIBANCO S/A        2910201300000000000070058CC                                                                                                                                                                                                                                                                                                                                                                                           255627-17     000081
1031421010118COBR_CAUC_COR  IRMOL INDUSTRIAS REUNIDAS DE MOVEIS     031760408000438SILVESTRE MOVEIS LTDA.- ME              AV. PRES. FLORENTINO AVIDOS, 149 LJ 1,2,VITORIA                                 29025140ES4393200001052800770136584 04  29062013800UNIBANCO S/A        2110201300000000000037960CC                                                                                                                                                                                                                                                                                                                                                                                           255627-18     000082
1031421010118COBR_CAUC_COR  IRMOL INDUSTRIAS REUNIDAS DE MOVEIS     031760408000438SILVESTRE MOVEIS LTDA.- ME              AV. PRES. FLORENTINO AVIDOS, 149 LJ 1,2,VITORIA                                 29025140ES4393200002052800850136585 04  29062013800UNIBANCO S/A        2110201300000000000068526CC                                                                                                                                                                                                                                                                                                                                                                                           255627-19     000083
1031421010118COBR_CAUC_COR  IRMOL INDUSTRIAS REUNIDAS DE MOVEIS     031760408000438SILVESTRE MOVEIS LTDA.- ME              AV. PRES. FLORENTINO AVIDOS, 149 LJ 1,2,VITORIA                                 29025140ES4393200003052800930136586 04  29062013800UNIBANCO S/A        2110201300000000000031572CC                                                                                                                                                                                                                                                                                                                                                                                           255627-20     000084
1031421010118COBR_CAUC_COR  IRMOL INDUSTRIAS REUNIDAS DE MOVEIS     004718437000205ELEGANCE MOVEIS E DECORACOES L          AV. PRES. FLORENTINO AVIDOS, 363        VITORIA                                 29020040ES4393100001052800420136580 04  29062013800UNIBANCO S/A        2110201300000000000037960CC                                                                                                                                                                                                                                                                                                                                                                                           255627-21     000085
1031421010118COBR_CAUC_COR  IRMOL INDUSTRIAS REUNIDAS DE MOVEIS     004718437000205ELEGANCE MOVEIS E DECORACOES L          AV. PRES. FLORENTINO AVIDOS, 363        VITORIA                                 29020040ES4393100002052800510136582 04  29062013800UNIBANCO S/A        2110201300000000000068334CC                                                                                                                                                                                                                                                                                                                                                                                           255627-22     000086
1031421010118COBR_CAUC_COR  IRMOL INDUSTRIAS REUNIDAS DE MOVEIS     004718437000205ELEGANCE MOVEIS E DECORACOES L          AV. PRES. FLORENTINO AVIDOS, 363        VITORIA                                 29020040ES4393100003052800690136583 04  29062013800UNIBANCO S/A        2110201300000000000031572CC                                                                                                                                                                                                                                                                                                                                                                                           255627-23     000087
1031421010118COBR_CAUC_BIC  IRMOL INDUSTRIAS REUNIDAS DE MOVEIS     014055516000300MOBLI COMERCIO VAREJISTA LTDA.          AV. OLIVIO RONCOLETTA, 465 GALP 2,4,6,8 JUNDIAI                                 13214306SP4393000001052741660133760 01  13062013007PAULISTA            1209201300000000000070048CC                                                                                                                                                                                                                                                                                                                                                                                           255627-24     000088
1031421010118COBR_CAUC_BIC  IRMOL INDUSTRIAS REUNIDAS DE MOVEIS     014055516000300MOBLI COMERCIO VAREJISTA LTDA.          AV. OLIVIO RONCOLETTA, 465 GALP 2,4,6,8 JUNDIAI                                 13214306SP4393000002052741740133763 01  13062013007PAULISTA            1209201300000000000023900CC                                                                                                                                                                                                                                                                                                                                                                                           255627-25     000089
1031421010118COBR_CAUC_BIC  IRMOL INDUSTRIAS REUNIDAS DE MOVEIS     014055516000300MOBLI COMERCIO VAREJISTA LTDA.          AV. OLIVIO RONCOLETTA, 465 GALP 2,4,6,8 JUNDIAI                                 13214306SP4393000003052741820133764 01  13062013007PAULISTA            1209201300000000000011950CC                                                                                                                                                                                                                                                                                                                                                                                           255627-26     000090
1031421010118COBR_CAUC_BIC  IRMOL INDUSTRIAS REUNIDAS DE MOVEIS     014055516000300MOBLI COMERCIO VAREJISTA LTDA.          AV. OLIVIO RONCOLETTA, 465 GALP 2,4,6,8 JUNDIAI                                 13214306SP4393000004052741910133766 01  13062013007PAULISTA            1209201300000000000031896CC                                                                                                                                                                                                                                                                                                                                                                                           255627-27     000091
1031421010118COBR_CAUC_COR  IRMOL INDUSTRIAS REUNIDAS DE MOVEIS     003815624000155COMERCIO DE MOVEIS RM LTDA.- M          AV. PRUDENTE DE MORAIS, 1089            UBERABA                                 38026250MG4392900001052907220141509 02  30072013800UNIBANCO S/A        2910201300000000000083477CC                                                                                                                                                                                                                                                                                                                                                                                           255627-28     000092
1031421010118COBR_CAUC_COR  IRMOL INDUSTRIAS REUNIDAS DE MOVEIS     003815624000155COMERCIO DE MOVEIS RM LTDA.- M          AV. PRUDENTE DE MORAIS, 1089            UBERABA                                 38026250MG4392900002052907310141510 02  30072013800UNIBANCO S/A        2910201300000000000049532CC                                                                                                                                                                                                                                                                                                                                                                                           255627-29     000093
1031421010118COBR_CAUC_COR  IRMOL INDUSTRIAS REUNIDAS DE MOVEIS     013992067000100CASA 20 COMERCIO DE MOVEIS LTD          RUA LANDULFO ALVES, 20                  ITUBERA                                 45435000BA4392800001052215690125713 03  17042013900BRADESCO S/A        1009201300000000000040413CC                                                                                                                                                                                                                                                                                                                                                                                           255627-30     000094
1031421010118COBR_CAUC_COR  IRMOL INDUSTRIAS REUNIDAS DE MOVEIS     013992067000100CASA 20 COMERCIO DE MOVEIS LTD          RUA LANDULFO ALVES, 20                  ITUBERA                                 45435000BA4392800002052215770125714 03  17042013900BRADESCO S/A        1009201300000000000053156CC                                                                                                                                                                                                                                                                                                                                                                                           255627-31     000095
1031421010118COBR_CAUC_COR  IRMOL INDUSTRIAS REUNIDAS DE MOVEIS     013992067000100CASA 20 COMERCIO DE MOVEIS LTD          RUA LANDULFO ALVES, 20                  ITUBERA                                 45435000BA4392800003052742550134417 03  17062013900BRADESCO S/A        1510201300000000000038980CC                                                                                                                                                                                                                                                                                                                                                                                           255627-32     000096
1031421010118COBR_CAUC_COR  IRMOL INDUSTRIAS REUNIDAS DE MOVEIS     008720370000105MEGA FEIRAO DOS COLCHOES LTDA-          AVENIDA CENTRAL, 478                    SERRA                                   29162000ES4392700001052800180136302 02  28062013800UNIBANCO S/A        3010201300000000000078590CC                                                                                                                                                                                                                                                                                                                                                                                           255627-33     000097
1031421010118COBR_CAUC_COR  IRMOL INDUSTRIAS REUNIDAS DE MOVEIS     008720370000105MEGA FEIRAO DOS COLCHOES LTDA-          AVENIDA CENTRAL, 478                    SERRA                                   29162000ES4392700002052801150136302 03  28062013800UNIBANCO S/A        2811201300000000000078590CC                                                                                                                                                                                                                                                                                                                                                                                           255627-34     000098
1031421010118COBR_CAUC_COR  IRMOL INDUSTRIAS REUNIDAS DE MOVEIS     008720370000105MEGA FEIRAO DOS COLCHOES LTDA-          AVENIDA CENTRAL, 478                    SERRA                                   29162000ES4392700003052800260136304 02  28062013800UNIBANCO S/A        3010201300000000000078590CC                                                                                                                                                                                                                                                                                                                                                                                           255627-35     000099
1031421010118COBR_CAUC_COR  IRMOL INDUSTRIAS REUNIDAS DE MOVEIS     008720370000105MEGA FEIRAO DOS COLCHOES LTDA-          AVENIDA CENTRAL, 478                    SERRA                                   29162000ES4392700004052801230136304 03  28062013800UNIBANCO S/A        2811201300000000000078590CC                                                                                                                                                                                                                                                                                                                                                                                           255627-36     000100
1031421010118COBR_CAUC_COR  IRMOL INDUSTRIAS REUNIDAS DE MOVEIS     008720370000105MEGA FEIRAO DOS COLCHOES LTDA-          AVENIDA CENTRAL, 478                    SERRA                                   29162000ES4392700005052800340136305 02  28062013800UNIBANCO S/A        3010201300000000000078590CC                                                                                                                                                                                                                                                                                                                                                                                           255627-37     000101
1031421010118COBR_CAUC_COR  IRMOL INDUSTRIAS REUNIDAS DE MOVEIS     008720370000105MEGA FEIRAO DOS COLCHOES LTDA-          AVENIDA CENTRAL, 478                    SERRA                                   29162000ES4392700006052801310136305 03  28062013800UNIBANCO S/A        2811201300000000000078590CC                                                                                                                                                                                                                                                                                                                                                                                           255627-38     000102
1031421010118COBR_CAUC_COR  IRMOL INDUSTRIAS REUNIDAS DE MOVEIS     010230308001310MARIO B. FILHO                          RUA CORONEL ANTONIO VICTOR, 25 SALA C   GARANHUNS                               55295270PE4392600001052906760141697 02  31072013900BRADESCO S/A        2110201300000000000482923CC                                                                                                                                                                                                                                                                                                                                                                                           255627-39     000103
1031421010118COBR_CAUC_BIC  IRMOL INDUSTRIAS REUNIDAS DE MOVEIS     0144415040001513L COMERCIO DE MOVEIS E ELETRO          QD 03, CONJUNTO H LOTE 01 L 01 ARAPOANGABRASILIA                                73370100DF4392500001052756510134630 02  18062013009BRASILIA            1809201300000000000282870CC                                                                                                                                                                                                                                                                                                                                                                                           255627-40     000104
1031421010118COBR_CAUC_COR  IRMOL INDUSTRIAS REUNIDAS DE MOVEIS     008720370000105MEGA FEIRAO DOS COLCHOES LTDA-          AVENIDA CENTRAL, 478                    SERRA                                   29162000ES4392400001052801070136301 03  28062013800UNIBANCO S/A        2811201300000000000282615CC                                                                                                                                                                                                                                                                                                                                                                                           255627-41     000105
1031421010118COBR_CAUC_COR  IRMOL INDUSTRIAS REUNIDAS DE MOVEIS     008036511000175P. R. RAMOS CARDOSO E CIA. LTD          RUA TEN. CORONEL CARDOSO, 467           CAMPOS DOS GOYT                         28010801RJ4392300001052907060141569 02  31072013800UNIBANCO S/A        2810201300000000000262490CC                                                                                                                                                                                                                                                                                                                                                                                           255627-42     000106
1031421010118COBR_CAUC_COR  IRMOL INDUSTRIAS REUNIDAS DE MOVEIS     007861356000169CORREIA E BUENO LTDA.                   1106 SUL AVENIDA LO 27,S/N LOTE 30 SL 01PALMAS                                  77024054TO4392200001052793200136265 02  28062013800UNIBANCO S/A        0410201300000000000257061CC                                                                                                                                                                                                                                                                                                                                                                                           255627-43     000107
1031421010118COBR_CAUC_COR  IRMOL INDUSTRIAS REUNIDAS DE MOVEIS     000898453000187FLORACY RIBEIRO P. LUZ - ME             AVENIDA PROFESSOR JOAO MENEZES, SN      SAO RAIMUNDO NO                         64770000PI4392100001052793380136716 01  29062013800UNIBANCO S/A        0410201300000000000214014CC                                                                                                                                                                                                                                                                                                                                                                                           255627-44     000108
1031421010118COBR_CAUC_COR  IRMOL INDUSTRIAS REUNIDAS DE MOVEIS     000237726000142CARMELITO MAGAZINE LTDA.- EPP           AVENIDA JOAO ALVES MARTINS, 604         IBOTIRAMA                               47520000BA4392000001052742470134416 03  17062013900BRADESCO S/A        1510201300000000000199839CC                                                                                                                                                                                                                                                                                                                                                                                           255627-45     000109
1031421010118COBR_CAUC_COR  IRMOL INDUSTRIAS REUNIDAS DE MOVEIS     014275686000138ELIEL R DA SILVA - ME                   RUA VISCONDE DE PORTO ALEGRE, 76        CABO DE SANTO A                         54505480PE4391900001052907650141498 02  30072013800UNIBANCO S/A        2910201300000000000191995CC                                                                                                                                                                                                                                                                                                                                                                                           255627-46     000110
1031421010118COBR_CAUC_BIC  IRMOL INDUSTRIAS REUNIDAS DE MOVEIS     003186674000110YNOUE E PEREIRA LTDA. - ME              RUA DOS EXPEDICIONARIOS, 84             PINDAMONHANGABA                         12400000SP4391800001052778660135527 02  25062013007PAULISTA            1809201300000000000173853CC                                                                                                                                                                                                                                                                                                                                                                                           255627-47     000111
1031421010118COBR_CAUC_COR  IRMOL INDUSTRIAS REUNIDAS DE MOVEIS     016699791000120LOJAS FARIAS COMERCIO DE MOVEI          RUA BARAO GEREMOABO, 48                 ARACI                                   48760000BA4391700001052216580125707 03  17042013900BRADESCO S/A        0509201300000000000159210CC                                                                                                                                                                                                                                                                                                                                                                                           255627-48     000112
1031421010118COBR_CAUC_COR  IRMOL INDUSTRIAS REUNIDAS DE MOVEIS     038667887000149TOPA TUDO LTDA.                         AV. JOAO XXIII, 1460                    UBERABA                                 38045100MG4391600001052908380141513 02  30072013800UNIBANCO S/A        2910201300000000000138234CC                                                                                                                                                                                                                                                                                                                                                                                           255627-49     000113
1031421010118COBR_CAUC_COR  IRMOL INDUSTRIAS REUNIDAS DE MOVEIS     012998538000116JL BEDIN COM. DE MOV. E ELETRO          AVENIDA IRAI, 996                       PINHAIS                                 83321000PR4391500001052799580137418 02  02072013800UNIBANCO S/A        1809201300000000000132012CC                                                                                                                                                                                                                                                                                                                                                                                           255627-50     000114
1031421010118COBR_CAUC_COR  IRMOL INDUSTRIAS REUNIDAS DE MOVEIS     001329092000110VALQUIRIA LEVANDOSKI TAMPAROVS          AV OZY MENDONCA DE LIMA, 930            SAO MATEUS DO S                         83900000PR4391400001052743280134563 04  17062013900BRADESCO S/A        1510201300000000000129660CC                                                                                                                                                                                                                                                                                                                                                                                           255627-51     000115
1031421010118COBR_CAUC_COR  IRMOL INDUSTRIAS REUNIDAS DE MOVEIS     005871541000109PROJAC-COM. DE ARMARIOS, COZIN          AVENIDA GETULIO VARGAS, 190             FEIRA DE SANTAN                         44001192BA4391300001052743100134407 03  17062013800UNIBANCO S/A        1510201300000000000129048CC                                                                                                                                                                                                                                                                                                                                                                                           255627-52     000116
1031421010118COBR_CAUC_BIC  IRMOL INDUSTRIAS REUNIDAS DE MOVEIS     011829792000128C. SABINO GOMES E CIALTDA- M            AVENIDA PROJETADA A, 07                 CUIABA                                  78056022MT4391200001052742390134414 04  17062013024CUIABA              1510201300000000000125895CC                                                                                                                                                                                                                                                                                                                                                                                           255627-53     000117
1031421010118COBR_CAUC_COR  IRMOL INDUSTRIAS REUNIDAS DE MOVEIS     001235943000166SILVANIA RODRIGUES DE OLIVEIRA          AV.MARIO ANDREAZA, 500                  IBATIBA                                 29395000ES4391100001052488070132026 03  29052013800UNIBANCO S/A        1309201300000000000124120CC                                                                                                                                                                                                                                                                                                                                                                                           255627-54     000118
1031421010118COBR_CAUC_COR  IRMOL INDUSTRIAS REUNIDAS DE MOVEIS     010715961000136JOSE MARCONE DA MOTA OLIVEIRA-          RUA BARAO DO RIO BRANCO, 74             CONCEICAO DO CO                         48730000BA4391000001052216400125708 03  17042013800UNIBANCO S/A        0809201300000000000123667CC                                                                                                                                                                                                                                                                                                                                                                                           255627-55     000119
1031421010118COBR_CAUC_COR  IRMOL INDUSTRIAS REUNIDAS DE MOVEIS     014426109000108DR RODRIGUES MIRANDA DE IBIRAT          RUA BEIRA RIO , 06 C                    IBIRATAIA                               45580000BA4390900001052742630134418 03  17062013900BRADESCO S/A        1510201300000000000122900CC                                                                                                                                                                                                                                                                                                                                                                                           255627-56     000120
1031421010118COBR_CAUC_COR  IRMOL INDUSTRIAS REUNIDAS DE MOVEIS     017086383000165DAUBERMANN E BORGES LTDA-ME             AV. SAO FRANCISCO DA SILVA, 225         MAMBORE                                 87340000PR4390800001052905610141600 03  31072013900BRADESCO S/A        1410201300000000000113202CC                                                                                                                                                                                                                                                                                                                                                                                           255627-57     000121
1031421010118COBR_CAUC_COR  IRMOL INDUSTRIAS REUNIDAS DE MOVEIS     000977265000144MDL PEREIRA E CIA LTDA - EPP            RUA RUI CORTES, 184                     ECOPORANGA                              29850000ES4390700001052487930131935 03  29052013800UNIBANCO S/A        1309201300000000000102762CC                                                                                                                                                                                                                                                                                                                                                                                           255627-58     000122
1031421010118COBR_CAUC_COR  IRMOL INDUSTRIAS REUNIDAS DE MOVEIS     077941490000155GAZIN IND. E COM. DE MOV. E EL          RODOVIA PR 82 KM 01 BLOCO 1, SN         DOURADINA                               87485000PR4390600001052487690132034 01  29052013800UNIBANCO S/A        1109201300000000000629940CC                                                                                                                                                                                                                                                                                                                                                                                           255627-59     000123
1031421010118COBR_CAUC_COR  IRMOL INDUSTRIAS REUNIDAS DE MOVEIS     077941490000155GAZIN IND. E COM. DE MOV. E EL          RODOVIA PR 82 KM 01 BLOCO 1, SN         DOURADINA                               87485000PR4390600002052487850132045 01  29052013800UNIBANCO S/A        1309201300000000001056723CC                                                                                                                                                                                                                                                                                                                                                                                           255627-60     000124
1031421010118COBR_CAUC_COR  IRMOL INDUSTRIAS REUNIDAS DE MOVEIS     077941490000155GAZIN IND. E COM. DE MOV. E EL          RODOVIA PR 82 KM 01 BLOCO 1, SN         DOURADINA                               87485000PR4390600003052756690132766 01  31052013800UNIBANCO S/A        0310201300000000003208612CC                                                                                                                                                                                                                                                                                                                                                                                           255627-61     000125
1031421010118COBR_CAUC_COR  IRMOL INDUSTRIAS REUNIDAS DE MOVEIS     077941490000155GAZIN IND. E COM. DE MOV. E EL          RODOVIA PR 82 KM 01 BLOCO 1, SN         DOURADINA                               87485000PR4390600004052756770132768 01  31052013800UNIBANCO S/A        0310201300000000001152682CC                                                                                                                                                                                                                                                                                                                                                                                           255627-62     000126
1031421010118COBR_CAUC_COR  IRMOL INDUSTRIAS REUNIDAS DE MOVEIS     077941490000155GAZIN IND. E COM. DE MOV. E EL          RODOVIA PR 82 KM 01 BLOCO 1, SN         DOURADINA                               87485000PR4390600005052742120132769 01  31052013800UNIBANCO S/A        0310201300000000001030950CC                                                                                                                                                                                                                                                                                                                                                                                           255627-63     000127
1031421010118COBR_CAUC_COR  IRMOL INDUSTRIAS REUNIDAS DE MOVEIS     077941490000155GAZIN IND. E COM. DE MOV. E EL          RODOVIA PR 82 KM 01 BLOCO 1, SN         DOURADINA                               87485000PR4390600006052742210132770 01  31052013800UNIBANCO S/A        0310201300000000005256695CC                                                                                                                                                                                                                                                                                                                                                                                           255627-64     000128
1031421010118COBR_CAUC_COR  IRMOL INDUSTRIAS REUNIDAS DE MOVEIS     077941490000155GAZIN IND. E COM. DE MOV. E EL          RODOVIA PR 82 KM 01 BLOCO 1, SN         DOURADINA                               87485000PR4390600007052778740135435 01  25062013800UNIBANCO S/A        1110201300000000000419960CC                                                                                                                                                                                                                                                                                                                                                                                           255627-65     000129
1031421010118COBR_CAUC_COR  IRMOL INDUSTRIAS REUNIDAS DE MOVEIS     077941490000155GAZIN IND. E COM. DE MOV. E EL          RODOVIA PR 82 KM 01 BLOCO 1, SN         DOURADINA                               87485000PR4390600008052786330135446 01  25062013800UNIBANCO S/A        2310201300000000001654030CC                                                                                                                                                                                                                                                                                                                                                                                           255627-66     000130
1031421010118COBR_CAUC_COR  IRMOL INDUSTRIAS REUNIDAS DE MOVEIS     077941490000155GAZIN IND. E COM. DE MOV. E EL          RODOVIA PR 82 KM 01 BLOCO 1, SN         DOURADINA                               87485000PR4390600009052923510141995 01  31072013900UNIBANCO S/A        0412201300000000001061878CC                                                                                                                                                                                                                                                                                                                                                                                           255627-67     000131
1031421010118COBR_CAUC_COR  IRMOL INDUSTRIAS REUNIDAS DE MOVEIS     031743818002252LOJAS SIMONETTI LTDA.                   RUA CARLOS CASTRO, 245                  PINHEIROS                               29980000ES4390500001052751890134307 01  14062013900BRADESCO S/A        2309201300000000001686740CC                                                                                                                                                                                                                                                                                                                                                                                           255627-68     000132
1031421010118COBR_CAUC_COR  IRMOL INDUSTRIAS REUNIDAS DE MOVEIS     031743818002252LOJAS SIMONETTI LTDA.                   RUA CARLOS CASTRO, 245                  PINHEIROS                               29980000ES4390500002052923420142243 01  02082013900BRADESCO S/A        1811201300000000001559440CC                                                                                                                                                                                                                                                                                                                                                                                           255627-69     000133
1031421010118COBR_CAUC_COR  IRMOL INDUSTRIAS REUNIDAS DE MOVEIS     007221618000120NOVA CRUZ COMERCIO DE MOVEIS L          RUA 15 DE NOVEMBRO, 66                  NOVA CRUZ                               59200000RN4390400001052792650136600 01  29062013900BRADESCO S/A        0409201300000000000922346CC                                                                                                                                                                                                                                                                                                                                                                                           255627-70     000134
1031421010118COBR_CAUC_COR  IRMOL INDUSTRIAS REUNIDAS DE MOVEIS     007221618000120NOVA CRUZ COMERCIO DE MOVEIS L          RUA 15 DE NOVEMBRO, 66                  NOVA CRUZ                               59200000RN4390400002052792730136601 01  29062013800BRADESCO S/A        0409201300000000000922346CC                                                                                                                                                                                                                                                                                                                                                                                           255627-71     000135
1031421010118COBR_CAUC_COR  IRMOL INDUSTRIAS REUNIDAS DE MOVEIS     004765117000117ALICE R. DE SOUZA E CIA. LTDA.          RUA IBITIBA SN QUADRA 03                LUIS EDUARDO MA                         47850000BA4390300001052792490136603 01  29062013800UNIBANCO S/A        0409201300000000000257161CC                                                                                                                                                                                                                                                                                                                                                                                           255627-72     000136
1031421010118COBR_CAUC_COR  IRMOL INDUSTRIAS REUNIDAS DE MOVEIS     004765117000117ALICE R. DE SOUZA E CIA. LTDA.          RUA IBITIBA SN QUADRA 03                LUIS EDUARDO MA                         47850000BA4390300002052793030136603 02  29062013800UNIBANCO S/A        0410201300000000000228588CC                                                                                                                                                                                                                                                                                                                                                                                           255627-73     000137
1031421010118COBR_CAUC_COR  IRMOL INDUSTRIAS REUNIDAS DE MOVEIS     004765117000117ALICE R. DE SOUZA E CIA. LTDA.          RUA IBITIBA SN QUADRA 03                LUIS EDUARDO MA                         47850000BA4390300003052792570136604 01  29062013800UNIBANCO S/A        0409201300000000000386815CC                                                                                                                                                                                                                                                                                                                                                                                           255627-74     000138
1031421010118COBR_CAUC_COR  IRMOL INDUSTRIAS REUNIDAS DE MOVEIS     004765117000117ALICE R. DE SOUZA E CIA. LTDA.          RUA IBITIBA SN QUADRA 03                LUIS EDUARDO MA                         47850000BA4390300004052793110136604 02  29062013800UNIBANCO S/A        0410201300000000000343836CC                                                                                                                                                                                                                                                                                                                                                                                           255627-75     000139
1031421010118COBR_CAUC_BIC  IRMOL INDUSTRIAS REUNIDAS DE MOVEIS     004967111000122COMERCIAL SAO JORGE COM. IMP.E          RUA MATHIAS CARDOSO,737                 PORTO FERREIRA                          13660000SP4390200001052799660137413 01  02072013022RIBEIRAO PRETO      3009201300000000000679151CC                                                                                                                                                                                                                                                                                                                                                                                           255627-76     000140
1031421010118COBR_CAUC_BIC  IRMOL INDUSTRIAS REUNIDAS DE MOVEIS     004967111000122COMERCIAL SAO JORGE COM. IMP.E          RUA MATHIAS CARDOSO,737                 PORTO FERREIRA                          13660000SP4390200002052799400137416 01  02072013022RIBEIRAO PRETO      1309201300000000000438837CC                                                                                                                                                                                                                                                                                                                                                                                           255627-77     000141
1031421010118COBR_CAUC_BIC  IRMOL INDUSTRIAS REUNIDAS DE MOVEIS     002729537000112SONHOMEU COMERCIO COLCHOES LTD          RUA PROF. NINA STOCCO, 1006             SAO PAULO                               05767001SP4390100001052792810136656 01  29062013007PAULISTA            0409201300000000000483119CC                                                                                                                                                                                                                                                                                                                                                                                           255627-78     000142
