0REMESSANOTIFICAÇÃO ELETRONICA        99999999999999Bicbanco S/A                            Avenida Brigadeiro Faria Lima           4.440     2º andar  Itaim Bibi                    São Paulo                     04538132SPBicbanco S/A                                                                    21082013                                                                                                                                                                                                                                                                                                                                                                                                000001
1009421012831COBR_CAUC_COR  ASA ALIMENTOS S/A                       009587239000427COOPERATIVA MISTA DOS AVICULT. DO       ESTRADA TERESINA UNIAO ZONA LESTE       TERESINA                                64058305PI4361800001001468080041551     15082013900BRADESCO S/A        0509201300000000010750320CC                                                                                                                                                                                                                                                                                                                                                                                           253012-1      000002
1014420939021COBR_CAUC_BIC  EDITORA O DIA S/A                       033041260065290VIA VAREJO S/A                          PREFEITO DULCIDIO CARDOSO, 2000         RIO DE JANEIRO                          22640085RJ4362100001025359580694591     15082013014RIO DE JANEIRO      0509201300000000014925625CC                                                                                                                                                                                                                                                                                                                                                                                           253012-2      000003
1014420939021COBR_CAUC_BIC  EDITORA O DIA S/A                       033747288000111FEDER.EMPR.TRANSP.RODOV.LESTE M.BR      RUA DA ASSEMBLEIA 10 39 A/C. SR.ED      RIO DE JANEIRO                          20119900RJ4362200001025355830694337     31072013014RIO DE JANEIRO      3008201300000000011848848CC                                                                                                                                                                                                                                                                                                                                                                                           253012-3      000004
1043421010006COBR_CAUC_COR  ELFA MEDICAMENTOS LTDA                  000521814000171GNOCCATO & GNOCCATO LTDA.               RUA SAMUEL KRUSCHIN, 395                SANTA MARIA                             97020670RS436230000100043376000053224   14082013900BRADESCO S/A        1309201300000000010562644CC                                                                                                                                                                                                                                                                                                                                                                                           253012-4      000005
1019421004658COBR_CAUC_COR  S/A ESTADO DE MINAS                     003471344000177CAOA MONTADORA DE VEICULOS SA           R11 SN FAZ BARREIRO DO MEIO             ANAPOLIS                                75133590GO4361900001012512321929514-1   14082013900BRADESCO S/A        3008201300000000010934976CC                                                                                                                                                                                                                                                                                                                                                                                           253012-5      000006
1019421004658COBR_CAUC_COR  S/A ESTADO DE MINAS                     017184037000110BANCO MERCANTIL DO BRASIL S A           RIO DE JANEIRO 654 3 ANDAR              BELO HORIZONTE                          30160912MG4362000001012513131929520-1   14082013900BRADESCO S/A        3008201300000000025265261CC                                                                                                                                                                                                                                                                                                                                                                                           253012-6      000007
1007421067492COBR_CAUC_COR  ENERGY COML IMPORT E EXPORT LTDA        009363567000369PREMIX BRASIL RESINAS LTDA              ROD BR 101, KM 117,5,5600-SALA 6        ITAJAI                                  88311601SC4364200001021734419485        13082013800UNIBANCO S/A        1209201300000000039774701CC                                                                                                                                                                                                                                                                                                                                                                                           253027-1      000008
1007421067492COBR_CAUC_COR  ENERGY COML IMPORT E EXPORT LTDA        009363567000369PREMIX BRASIL RESINAS LTDA              ROD BR 101, KM 117,5,5600-SALA 6        ITAJAI                                  88311601SC4364200002021734599486        13082013800UNIBANCO S/A        1209201300000000025318404CC                                                                                                                                                                                                                                                                                                                                                                                           253027-2      000009
1007421067492COBR_CAUC_COR  ENERGY COML IMPORT E EXPORT LTDA        009363567000369PREMIX BRASIL RESINAS LTDA              ROD BR 101, KM 117,5,5600-SALA 6        ITAJAI                                  88311601SC4364200003021734679502        14082013800UNIBANCO S/A        1309201300000000052036513CC                                                                                                                                                                                                                                                                                                                                                                                           253027-3      000010
1046421000617COBR_CAUC_COR  INPLAC INDUSTRIA DE PLASTICOS S/A       002314366000403ORICA SERVICOS DE MINERACAO LTDA        AV.MANTIQUEIRA,317 - BAIRRO VIA CRISTINALORENA                                  12611030SP436410000102063909001190678   16082013800UNIBANCO S/A        3009201300000000010384684CC                                                                                                                                                                                                                                                                                                                                                                                           253027-4      000011
1007421043100COBR_CAUC_BIC  MACROPORT INTERNACIONAL LTDA            057398729000185MONTECARLO DISTRIBUIDORA DE AUTO P      R. AMADEU,660                           SAO PAULO                               02064050SP436430000102172533465711      15082013007PAULISTA            3008201300000000012894152CC                                                                                                                                                                                                                                                                                                                                                                                           253027-5      000012
1028421002921COBR_CAUC_COR  MATABOI ALIMENTOS S/A - EM REC.JUD.     010198974000347PLENA ALIMENTOS LTDA                    RUA UM100                               CONTAGEM                                32250000MG4364000001004066730001555801  15082013900BRADESCO S/A        2208201300000000014537130CC                                                                                                                                                                                                                                                                                                                                                                                           253027-6      000013
1014421008439DIR_CREDIT     TV OMEGA LTDA                           030902803000100IGREJA INTERNACIONAL DA GRACA DE DEUS   ESR DOS BANDEIRANTES, 1000              TAQUARA                                 22710112RJ4360800001                                                                                                                                          141008536           280920090000010207            14082013000703CONTRATO DE CESSAO ONEROSA DE ESPAÇO TELEVISIVO E PRESTAÇÃO DE SERVIÇOS CONEXOS                                                                                                                                                                 002131538000322253027-7      000014
1014421008439DIR_CREDIT     TV OMEGA LTDA                           030902803000100IGREJA INTERNACIONAL DA GRACA DE DEUS   ESR DOS BANDEIRANTES, 1000              TAQUARA                                 22710112RJ4365400001                                                                                                                                          012342155           280920090000010207            16082013000407CONTRATO DE CESSAO ONEROSA DE ESPAÇO TELEVISIVO E PRESTAÇÃO DE SERVIÇOS CONEXOS                                                                                                                                                                 002131538000322253027-8      000015
1014421008439DIR_CREDIT     TV OMEGA LTDA                           030902803000100IGREJA INTERNACIONAL DA GRACA DE DEUS   ESR DOS BANDEIRANTES, 1000              TAQUARA                                 22710112RJ4365300001                                                                                                                                          012342147           280920090000010207            16082013000404CONTRATO DE CESSAO ONEROSA DE ESPAÇO TELEVISIVO E PRESTAÇÃO DE SERVIÇOS CONEXOS                                                                                                                                                                 002131538000322253027-9      000016
1029420931684DIR_CREDIT     VINHEDOS REFEICOES COLETIVAS LTDA       088610191000154MUNDIAL S/A PRODUTOS DE CONSUMO         RUA CINCINATO BRAGA,340 CJ 81 E 82      SAO PAULO                               04103000SP4364700001                                                                                                                                          012268203           010920090000024373S/N         16082013000403fornecimento de refeições para funcionários e pessoas por elaautorizadas dentro das dependências da empresa                                                                                                                                     093805018000141253027-10     000017
1029420931684DIR_CREDIT     VINHEDOS REFEICOES COLETIVAS LTDA       089850341001212GRENDENE S/A                            AVENIDA PEDRO GRENDENE,131              FARROUPILHA                             95180000RS4364800001                                                                                                                                          012268203           010820080000024379S/N         16082013000403FORNECIMENTO DE REFEIÇÕES PARA FUNCIONÁRIOS E PESSOAS POR ELAAUTORIZADAS DENTRO DAS DEPENDÊNCIAS DA EMPRESA.                                                                                                                                    093805018000141253027-11     000018
1047421002243COBR_CAUC_BIC  ARGE LTDA                               001120364000178WG ELETRO S/A                           RUA ARQUEMEDES PEREIRA LIMA, 1000       CUIABµ                                  78060160MT4367700001016418120033289     29042013024CUIABA              2609201300000000002993560CC                                                                                                                                                                                                                                                                                                                                                                                           253034-1      000019
1050421000089COBR_CAUC_BIC  ATIVO ALIMENTOS EXP E IMP EIRELI        028664456000337SUPERMERCADO CRISTAL LTDA               RUA ANTONIO JOSE BITTENCOURT 429        RIO DE JANEIRO                          26535000RJ436620000100490201207512/1    17082013014RIO DE JANEIRO      0109201300000000024662288CC                                                                                                                                                                                                                                                                                                                                                                                           253034-2      000020
1018421031649COBR_CAUC_COR  DISTRIBUIDORA BRASILEIRA DE ASFALTO     000237518000143CONSTRUTORA CAIAPO LTDA                 AVE SAO FRANCISCO,271                   GOIANIA                                 74670010GO43663000010000103528603       18062013900BRADESCO S/A        1609201300000000011297148CC                                                                                                                                                                                                                                                                                                                                                                                           253034-3      000021
1018421031649COBR_CAUC_COR  DISTRIBUIDORA BRASILEIRA DE ASFALTO     000237518000143CONSTRUTORA CAIAPO LTDA                 AVE SAO FRANCISCO,271                   GOIANIA                                 74670010GO43663000020000104328647       19062013900BRADESCO S/A        1709201300000000010037354CC                                                                                                                                                                                                                                                                                                                                                                                           253034-4      000022
1018421031649COBR_CAUC_COR  DISTRIBUIDORA BRASILEIRA DE ASFALTO     026631473000180ETICA CONSTRUTORA LTDA                  RUA C 238,281                           GOIANIA                                 74290150GO43665000010000129919680       18072013900BRADESCO S/A        1610201300000000011675429CC                                                                                                                                                                                                                                                                                                                                                                                           253034-5      000023
1018421031649COBR_CAUC_COR  DISTRIBUIDORA BRASILEIRA DE ASFALTO     026631473000180ETICA CONSTRUTORA LTDA                  RUA C 238,281                           GOIANIA                                 74290150GO43665000020000132929782       21072013900BRADESCO S/A        1910201300000000010213633CC                                                                                                                                                                                                                                                                                                                                                                                           253034-6      000024
1018421031649COBR_CAUC_COR  DISTRIBUIDORA BRASILEIRA DE ASFALTO     026631473000180ETICA CONSTRUTORA LTDA                  RUA C 238,281                           GOIANIA                                 74290150GO43665000030000133729827       22072013900BRADESCO S/A        2010201300000000010193732CC                                                                                                                                                                                                                                                                                                                                                                                           253034-7      000025
1018421031649COBR_CAUC_COR  DISTRIBUIDORA BRASILEIRA DE ASFALTO     017629974000131CONSORCIO GOIAS/GAE                     RUA 32 ,420-QD A11 LT 24                GOIANIA                                 74805260GO43664000010000141830193       01082013900BRADESCO S/A        3010201300000000014677929CC                                                                                                                                                                                                                                                                                                                                                                                           253034-8      000026
1018421031649COBR_CAUC_COR  DISTRIBUIDORA BRASILEIRA DE ASFALTO     017629974000131CONSORCIO GOIAS/GAE                     RUA 32 ,420-QD A11 LT 24                GOIANIA                                 74805260GO43664000020000144230371       06082013900BRADESCO S/A        0411201300000000021933923CC                                                                                                                                                                                                                                                                                                                                                                                           253034-9      000027
1018421031649COBR_CAUC_COR  DISTRIBUIDORA BRASILEIRA DE ASFALTO     017629974000131CONSORCIO GOIAS/GAE                     RUA 32 ,420-QD A11 LT 24                GOIANIA                                 74805260GO43664000030000146930468       08082013900BRADESCO S/A        0611201300000000013746720CC                                                                                                                                                                                                                                                                                                                                                                                           253034-10     000028
1028421002921COBR_CAUC_COR  MATABOI ALIMENTOS S/A - EM REC.JUD.     065791980000648RODOPA INDUSTRIA E COMERCIO DE ALI      VL SANTA RITA DE CASSIA SN              CASSILANDIA                             79540000MS4366100001004067540001557001  16082013900BRADESCO S/A        2308201300000000011266039CC                                                                                                                                                                                                                                                                                                                                                                                           253034-11     000029
1028421002921COBR_CAUC_COR  MATABOI ALIMENTOS S/A - EM REC.JUD.     065791980000648RODOPA INDUSTRIA E COMERCIO DE ALI      VL SANTA RITA DE CASSIA SN              CASSILANDIA                             79540000MS4366100002004068600001558001  17082013900BRADESCO S/A        2408201300000000015283778CC                                                                                                                                                                                                                                                                                                                                                                                           253034-12     000030
9000029                                                                                                                                                                                                                                                                                                                                                                                                                                                                                                                                                                                                                                                                                                               000031
