0REMESSANOTIFICAÇÃO ELETRONICA        99999999999999Bicbanco S/A                            Avenida Brigadeiro Faria Lima           4.440     2º andar  Itaim Bibi                    São Paulo                     04538132SPBicbanco S/A                                                                    04092014                                                                                                                                                                                                                                                                                                                                                                                                000001
1010421023481DIR_CREDIT     HOSPITAL DE AVILA LTDA                  004171205000190VIVA PLANOS DE SAUDE LTDA               AV.DR.JOSE A.MOREIRA, 1251 - CASA CAIADAOLINDA                                  53130410PE4900900001                                                                                                                                          012556940           010320100000020792S/N         29082014000401Prestação de serviços de assistência médico-hospitalar.                                                                                                                                                                                         035716166000193320020-1      000002
1016421009571COBR_CAUC_BIC  IMPORTADORA DE FRUTAS LA VIOLETERA      006314327000203JC DIST LOGISTICA IMP EXP PROD IND      RUA 1 QD1 LOTE 2 S/N                    APARECIDA DE GO                         74980970GO4902600001046101110008551001  29082014018GOIANIA             2609201400000000012832180CC                                                                                                                                                                                                                                                                                                                                                                                           320020-2      000003
1016421009571COBR_CAUC_BIC  IMPORTADORA DE FRUTAS LA VIOLETERA      007728073000224REDE BRASIL DISTRIBUICAO E LOGISTI      AV UNIVERSITARIA 3680                   ANAPOLIS                                75024050GO4902700001046101380008430001  28082014018GOIANIA             0910201400000000010501774CC                                                                                                                                                                                                                                                                                                                                                                                           320020-3      000004
1016421009571COBR_CAUC_BIC  IMPORTADORA DE FRUTAS LA VIOLETERA      010912900000240RIO VERMELHO DISTRIBUICAO DE ALIME      ROD BR 153 KM 52 S/N                    ANAPOLIS                                75045190GO4902800001046101540008128001  26082014018GOIANIA             0710201400000000014472900CC                                                                                                                                                                                                                                                                                                                                                                                           320020-4      000005
1016421009571COBR_CAUC_BIC  IMPORTADORA DE FRUTAS LA VIOLETERA      010912900000240RIO VERMELHO DISTRIBUICAO DE ALIME      ROD BR 153 KM 52 S/N                    ANAPOLIS                                75045190GO4902800002046101620008241001  27082014018GOIANIA             0810201400000000012827030CC                                                                                                                                                                                                                                                                                                                                                                                           320020-5      000006
1016421009571COBR_CAUC_COR  IMPORTADORA DE FRUTAS LA VIOLETERA      012023966003149BONANZA SUPERMERCADOS LTDA              AV CLETO CAMPELO 36 SETOR FINANCEIR     CARUARU                                 55012340PE4902900001046101030008332001  27082014700BANCO REAL- ABN AMRO0810201400000000011637740CC                                                                                                                                                                                                                                                                                                                                                                                           320020-6      000007
1018421034826COBR_CAUC_BIC  LACEL LATICINIOS CERES LTDA             023439441001323ARMAZEM MATEUS LTDA                     AV ENG.EMILIANO MACIEIRA, 5 - DEPOSITO  SAO LUIS                                65095602MA490300000103825128005687      01092014042SAO LUIS            2909201400000000010744800CC                                                                                                                                                                                                                                                                                                                                                                                           320020-7      000008
1018421034834COBR_CAUC_BIC  LACEL LATICINIOS CERES LTDA             023439441001323ARMAZEM MATEUS LTDA                     AV ENG.EMILIANO MACIEIRA, 5 - DEPOSITO  SAO LUIS                                65095602MA490310000103825136034813      01092014042SAO LUIS            0610201400000000013244000CC                                                                                                                                                                                                                                                                                                                                                                                           320020-8      000009
1016421024090COBR_CAUC_BIC  FRESNOMAQ IND DE MAQUINAS S/A           047960950057239MAGAZINE LUIZA S/A                      RUA DO COMERCIO 1924                    FRANCA                                  14400660SP4903200001046103750098932     20082014022RIBEIRAO PRETO      0211201400000000018040711CC                                                                                                                                                                                                                                                                                                                                                                                           320020-9      000010
1021421017050COBR_CAUC_BIC  STAR DISTR PROD FARMACEUTICOS LTDA      061549259000180DROGARIA ONOFRE LTDA                    PRACA DA SE , 170                       SAO PAULO                               01001000SP4903300001000047030000390601  29082014007PAULISTA            0310201400000000021543273CC                                                                                                                                                                                                                                                                                                                                                                                           320020-10     000011
1021421017050COBR_CAUC_BIC  STAR DISTR PROD FARMACEUTICOS LTDA      061585865000151RAIA DROGASIL S/A                       AVENIDA CORIFEU DE AZEVEDO MARQUES, 3097SAO PAULO                               05339000SP4903400001000047540000391301  29082014007PAULISTA            1209201400000000018435609CC                                                                                                                                                                                                                                                                                                                                                                                           320020-11     000012
1021421017050COBR_CAUC_BIC  STAR DISTR PROD FARMACEUTICOS LTDA      061585865000151RAIA DROGASIL S/A                       AVENIDA CORIFEU DE AZEVEDO MARQUES, 3097SAO PAULO                               05339000SP4903400002000047710000391501  29082014007PAULISTA            1209201400000000028602656CC                                                                                                                                                                                                                                                                                                                                                                                           320020-12     000013
1021421017050COBR_CAUC_BIC  STAR DISTR PROD FARMACEUTICOS LTDA      061585865000151RAIA DROGASIL S/A                       AVENIDA CORIFEU DE AZEVEDO MARQUES, 3097SAO PAULO                               05339000SP4903400003000048430000392101  01092014007PAULISTA            1509201400000000027409529CC                                                                                                                                                                                                                                                                                                                                                                                           320020-13     000014
1021421017050COBR_CAUC_BIC  STAR DISTR PROD FARMACEUTICOS LTDA      061585865000151RAIA DROGASIL S/A                       AVENIDA CORIFEU DE AZEVEDO MARQUES, 3097SAO PAULO                               05339000SP4903400004000047970000391701  29082014022PAULISTA            1209201400000000017966525CC                                                                                                                                                                                                                                                                                                                                                                                           320020-14     000015
1020421001962DIR_CREDIT     CONSTRUTORA HUDSON LTDA                 007722779000106FUNDACAO UNIV FEDERAL DO ABC            RUA SANTA ADELIA, 166                   SANTO ANDRE                             09171686SP4903900001                                                                                                                                          012597943           16122013000002541189/2013     02092014000404execução de obras para conclusão do sistema viário, drenagem,fechamento de divisa e contenção e pórtico da entrada principal, proteção ao intemperismo de acessos e vãos em edificações do CAMPUS SBC da UFABC.                                 057133456000147320020-15     000016
9000015                                                                                                                                                                                                                                                                                                                                                                                                                                                                                                                                                                                                                                                                                                               000017
