0REMESSANOTIFICAÇÃO ELETRONICA        99999999999999Bicbanco S/A                            Avenida Brigadeiro Faria Lima           4.440     2º andar  Itaim Bibi                    São Paulo                     04538132SPBicbanco S/A                                                                    09102012                                                                                                                                                                                                                                                                                                                                                                                                000001
1038421019619COBR_CAUC_COR  TOME EQUIPAMENTOS E TRANSPORTES S.A     008528337000188WIND POWER ENERGIA S/A                  EST.TRONCO DIST.RODOV.KM 3,3            SALVADOR                                54590000BA38066000010987049831249/A     08082012900BRADESCO S/A        2612201200000000025451610CC                                                                                                                                                                                                                                                                                                                                                                                           198179-1      000002
1038421019619COBR_CAUC_COR  TOME EQUIPAMENTOS E TRANSPORTES S.A     008528337000188WIND POWER ENERGIA S/A                  EST.TRONCO DIST.RODOV.KM 3,3            SALVADOR                                54590000BA38066000020987050131258/A     08082012900BRADESCO S/A        2612201200000000050903220CC                                                                                                                                                                                                                                                                                                                                                                                           198179-2      000003
1038421019619COBR_CAUC_COR  TOME EQUIPAMENTOS E TRANSPORTES S.A     008528337000188WIND POWER ENERGIA S/A                  EST.TRONCO DIST.RODOV.KM 3,3            SALVADOR                                54590000BA38066000030987051031260/A     21082012900BRADESCO S/A        2612201200000000025451610CC                                                                                                                                                                                                                                                                                                                                                                                           198179-3      000004
1038421019619COBR_CAUC_COR  TOME EQUIPAMENTOS E TRANSPORTES S.A     008528337000188WIND POWER ENERGIA S/A                  EST.TRONCO DIST.RODOV.KM 3,3            SALVADOR                                54590000BA38066000040987052831290/A     21082012900BRADESCO S/A        2612201200000000044311823CC                                                                                                                                                                                                                                                                                                                                                                                           198179-4      000005
1038421019619COBR_CAUC_COR  TOME EQUIPAMENTOS E TRANSPORTES S.A     008528337000188WIND POWER ENERGIA S/A                  EST.TRONCO DIST.RODOV.KM 3,3            SALVADOR                                54590000BA38066000050987054431299/A     29082012900BRADESCO S/A        2612201200000000018860213CC                                                                                                                                                                                                                                                                                                                                                                                           198179-5      000006
1038421019619COBR_CAUC_COR  TOME EQUIPAMENTOS E TRANSPORTES S.A     008528337000188WIND POWER ENERGIA S/A                  EST.TRONCO DIST.RODOV.KM 3,3            SALVADOR                                54590000BA38066000060987055231300/A     31082012900BRADESCO S/A        2612201200000000025451610CC                                                                                                                                                                                                                                                                                                                                                                                           198179-6      000007
1038421019619COBR_CAUC_COR  TOME EQUIPAMENTOS E TRANSPORTES S.A     008528337000188WIND POWER ENERGIA S/A                  EST.TRONCO DIST.RODOV.KM 3,3            SALVADOR                                54590000BA38066000070987056131307/A     31082012900BRADESCO S/A        2612201200000000032043007CC                                                                                                                                                                                                                                                                                                                                                                                           198179-7      000008
1038421019619COBR_CAUC_COR  TOME EQUIPAMENTOS E TRANSPORTES S.A     008528337000188WIND POWER ENERGIA S/A                  EST.TRONCO DIST.RODOV.KM 3,3            SALVADOR                                54590000BA38066000080987057931308/A     31082012900BRADESCO S/A        2612201200000000018860213CC                                                                                                                                                                                                                                                                                                                                                                                           198179-8      000009
1016421001333COBR_CAUC_COR  CONDUSPAR CONDUTORES ELETRICOS LTDA     014568575000110C V HILGERT MAQUINAS E IMPLEMENTOS      AV MARECHAL RONDON, 1327                JI-PARANA                               76900101RO380670000103717991258095      24092012600HSBC BANK BRASIL    0511201200000000011647525CC                                                                                                                                                                                                                                                                                                                                                                                           198179-9      000010
1016421001333COBR_CAUC_COR  CONDUSPAR CONDUTORES ELETRICOS LTDA     014568575000110C V HILGERT MAQUINAS E IMPLEMENTOS      AV MARECHAL RONDON, 1327                JI-PARANA                               76900101RO380670000203718008258095      24092012600HSBC BANK BRASIL    1211201200000000011647525CC                                                                                                                                                                                                                                                                                                                                                                                           198179-10     000011
1016421001333COBR_CAUC_COR  CONDUSPAR CONDUTORES ELETRICOS LTDA     014568575000110C V HILGERT MAQUINAS E IMPLEMENTOS      AV MARECHAL RONDON, 1327                JI-PARANA                               76900101RO380670000303718016258096      24092012600HSBC BANK BRASIL    2910201200000000011673225CC                                                                                                                                                                                                                                                                                                                                                                                           198179-11     000012
1016421001333COBR_CAUC_COR  CONDUSPAR CONDUTORES ELETRICOS LTDA     014568575000110C V HILGERT MAQUINAS E IMPLEMENTOS      AV MARECHAL RONDON, 1327                JI-PARANA                               76900101RO380670000403718024258096      24092012600HSBC BANK BRASIL    0511201200000000011673225CC                                                                                                                                                                                                                                                                                                                                                                                           198179-12     000013
1016421001333COBR_CAUC_COR  CONDUSPAR CONDUTORES ELETRICOS LTDA     014568575000110C V HILGERT MAQUINAS E IMPLEMENTOS      AV MARECHAL RONDON, 1327                JI-PARANA                               76900101RO380670000503718032258096      24092012600HSBC BANK BRASIL    1211201200000000011673225CC                                                                                                                                                                                                                                                                                                                                                                                           198179-13     000014
1031421009896COBR_CAUC_COR  LATICINIOS LATCO LTDA                   003418509000147OCEANICA COMERCIO GENEROS ALIMENT.      RODOVIA PR 323 KM 310 LOTE 14           UMUARAMA                                87507013PR380680000101000592113477/1    27092012900BRADESCO S/A        0410201200000000011636845CC                                                                                                                                                                                                                                                                                                                                                                                           198179-14     000015
1031421009896COBR_CAUC_COR  LATICINIOS LATCO LTDA                   003418509000147OCEANICA COMERCIO GENEROS ALIMENT.      RODOVIA PR 323 KM 310 LOTE 14           UMUARAMA                                87507013PR380680000201000886113516/1    27092012900BRADESCO S/A        0410201200000000010744897CC                                                                                                                                                                                                                                                                                                                                                                                           198179-15     000016
1018421031207COBR_CAUC_BIC  CEREAL COM EXP REP AGROPECUARIA LTD     002918654000124CENTRO OESTE RACOES S/A                 VIA VP 6 LOTE E,0                       ANAPOLIS                                75133600GO38069000010291309173908       27092012018GOIANIA             2010201200000000023400000CC                                                                                                                                                                                                                                                                                                                                                                                           198179-16     000017
1016421000809COBR_CAUC_COR  LOGIKA DISTRIBUIDORA COSMETICOS LTD     005997742000408UNIMARKA DISTRIBIDORA S/A               ROD CONEGO JOAO BATISTA GUILHERME - KM19COLATINA                                29705100ES3807000001037176300026986/01  27092012900BRADESCO S/A        2611201200000000028003320CC                                                                                                                                                                                                                                                                                                                                                                                           198179-17     000018
1016421000809COBR_CAUC_COR  LOGIKA DISTRIBUIDORA COSMETICOS LTD     082873068000140GENESIO A MENDES & CIA LTDA             AV PATROCINIO LIMA, 310                 TUBARAO                                 88704410SC3807100001037176210026985/01  27092012900BRADESCO S/A        1111201200000000014998344CC                                                                                                                                                                                                                                                                                                                                                                                           198179-18     000019
1020421001857COBR_CAUC_COR  BRASALPLA BRASIL IND DE EMBALAG LTD     060409075002953NESTLE BRASIL LTD                       ROD MARECHAL RONDON, KM 531             ARACATUBA                               16021900SP3807200001000011593049878     20092012900BRADESCO S/A        1911201200000000010766002CC                                                                                                                                                                                                                                                                                                                                                                                           198179-19     000020
1017421012786COBR_CAUC_BIC  FABRICA DA PEDRA S.A FIAC.E TECELAG     000886257000788ATMOSFERA GESTAO E HIGIENIZACA          R. A.PIVABARRANQUEIROS, CHAC.AEROPORTO  JUNDIAI                                 13212000SP38092000010257836111344-A01   29092012007PAULISTA            2812201200000000018618036CC                                                                                                                                                                                                                                                                                                                                                                                           198184-1      000021
1016421009571COBR_CAUC_BIC  IMPORTADORA DE FRUTAS LA VIOLETERA      004641376003828SUPERMERCADOS BH COMERCIO DE ALIME      AVENIDA GERALDO ROCHA 200               CONTAGEM                                32183054MG3809300001037201000020543501  29092012019BELO HORIZONTE      1011201200000000013102104CC                                                                                                                                                                                                                                                                                                                                                                                           198184-2      000022
1007420931444COBR_CAUC_BIC  PLASINCO LTDA                           044603447000120AMPHENOL TFC DO BRASIL LTDA.            ROD. GOV. PER. BARROS,340-KM 121.5      CAMPINAS                                13098300SP38094000010147694623314       28092012021CAMPINAS            2610201200000000012227145CC                                                                                                                                                                                                                                                                                                                                                                                           198184-3      000023
1031421007850COBR_CAUC_COR  AGRICOLA JANDELLE S/A                   005169759000116TUDOBOM COMERCIAL LTDA                  AVENIDA JOSE FRANCISCO DOMINGOS 359     CORONEL FABRICI                         35170348MG3809500001050527160009771001  28092012800UNIBANCO S/A        0111201200000000012276397CC                                                                                                                                                                                                                                                                                                                                                                                           198184-4      000024
1014420939021COBR_CAUC_BIC  EDITORA O DIA S/A                       010757237000175NOVA CASA BAHIA S/A.                    CONDE FRANCISCO MATARAZZO 100           SAO CAETANO DO                          09520900SP3809600001024776130660435     30092012038ABC                 2010201200000000015270249CC                                                                                                                                                                                                                                                                                                                                                                                           198184-5      000025
1048421001938COBR_CAUC_COR  SERVIMED COMERCIAL LTDA                 006880016000112LIGMED COM DE MEDS LTDA                 AV T2 1820                              GOIANIA                                 74215010GO38097000010030193056759516    28092012900BRADESCO S/A        0510201200000000012420882CC                                                                                                                                                                                                                                                                                                                                                                                           198184-6      000026
1008421002710DIR_CREDIT     OCS MIN E EMPREENDIMENTOS LTDA          034230979005418SUPERMIX CONCRETO S/A                   R PROF. JOSE VIEIRA DE MENDONçA, 1121   BELO HORIZONTE                          31310260MG3807900001                                                                                                                                          481027284           100120070000012817            28092012000404fornecimento de material produzido pela OCS-Mineração e EmpreendimentosLtda,a saber Brita 19mm,Brita 9,5mm e areia grossa de Brita,todos fornecidos e oferecidos em forma de tonelada.                                                          007323439000102198187-1      000027
1017421013332DIR_CREDIT     CONTRATO CONSTRUC E AVALIACOES LTDA     008247240000105KOLMAT DO BRASIL LTDA-EPP               AV ALMIRANTE ALVARO CALHEIROS, 1120     MACEIO                                  57035558AL3808500001                                                                                                                                          012000270           191020110000021896            28092012000412Administrar a Execução das Obras Civis de Construção do Complexo Turís-tico denominado "MAGIA HOTEL SUITE RESORT" composto pelo APART HOTEL 5 Terre e pelo ECO RESORT 6 Stelle .                                                                001180024000132198187-2      000028
1041421000462DIR_CREDIT     JET RADIODIFUSAO LTDA                   060628369000175RADIO E TELEVISAO RECORD LTDA           RUA DA VARZEA, Nº 240/250               BARRA FUNDA                             01140080SP3810000001                                                                                                                                          011993273           0108201200000225351209/2012   28092012000403retransmissão com exclusividade da programação nacional da RÁDIO E TELEVELISÃO RECORD S/A .                                                                                                                                                     007714595000196198187-3      000029
1016421012386DIR_CREDIT     FEDERACAO ESPIRITA DO PARANA            075118406000172OPET ORG PARANAENSE DE ENSINO TECNICO LTAV PRESIDENTE GETULIO VARGAS, 892       CURITIBA                                80230030PR3810600001                                                                                                                                          011979403           010719980000015807SN          01102012000403A CEDENTE FEDERACAO ESPIRITA CEDEU A EXPLORAÇÃO DA ATIVIDADE ESCOLAR REGULAR E EM PLENO FUNCIONAMENTO, TRANSFERINDO A CESSIONARIA TODOS OS DIREITOS E PRERROGATIVAS CORRESPONDENBTES AO ENSINO ESCOLAR ORA MINISTRADO PELO COLEGIO              076544741000103198187-4      000030
1016421012386DIR_CREDIT     FEDERACAO ESPIRITA DO PARANA            008781382000140ITECNE INST TEC EDUC DE CURITIBA        RUA ALBERTO DE OLIVEIRA 19              CURITIBA                                82820490PR3810700001                                                                                                                                          011979403           010620120000022457SN          01102012000403Locação de imóvel não residencial, localizado à Alameda Cabral, 27 - prédio contendo 840 m².                                                                                                                                                    076544741000103198187-5      000031
1016421012386DIR_CREDIT     FEDERACAO ESPIRITA DO PARANA            000040481182934WINSTON CEZAR BASSO                     ALAMEDA CABRAL, 27                      CURITIBA                                80101010PR3810800001                                                                                                                                          011979403           010320120000022458SN          01102012000403Locação de imóvel não residencial situado à Alameda Cabral, 27 - lojacontendo 354 m².                                                                                                                                                           076544741000103198187-6      000032
1019421014386DIR_CREDIT     MGPX EMPREENDIMENTOS E PARTICIPS        002359572000197ANGLO FERROUS MINAS RIO MINERACAO S/A   PRAIA DO FLAMENGO 66/2º AND / SALA 1    RIO DE JANEIRO                          22210030RJ3811400001                                                                                                                                          011952580           300620100000022334N/C         28092012000403aluguel de 05 pavimentos do 8º ao 12º andares do edificio century tower de area de 900 m2s cada andar e 18 vagas de garagem para cada andar, localiza-do à rua maria luiza santiago 200 bairro sta lucia em belo horizonte/mg.                  009566436000117198187-7      000033
1019421014386DIR_CREDIT     MGPX EMPREENDIMENTOS E PARTICIPS        017155730000164CEMIG.                                  AV BARBACENA 1200                       BELO HORIZONTE                          30190131MG3811500001                                                                                                                                          011952580           140120100000022344N/C         28092012000403locacao de sete andares comerciais (conjs: 301,302,501,801,802,901,902,1001,1002,1101,1102,1201,1202),E SUAS RESPECTIVAS VAGAS DE GARAGEM DE IMOVEL COMERCIAL DENOMINADO EDIFICIO MINERVA SITUADO A RUA DOS AIMORES 3000 EM BELO HTE.           009566436000117198187-8      000034
1019421014386DIR_CREDIT     MGPX EMPREENDIMENTOS E PARTICIPS        006981176000158CEMIG GERACAO E TRANSMISSAO S/A         AV BARBACENA 1200                       BELO HORIZONTE                          30190131MG3811600001                                                                                                                                          011952580           140120100000022345N/C         28092012000403LOCACAO DE SETE ANDARES COMERCIAIS(CONJS:301,302,501,801,802,901,902,1001,1002,1101,1102,1201,1202), E SUAS RSPECTIVAS VAGAS DE GARAGE DE IMOVEL CO-MERCIAL DENOMINADO EDIFICIO MINERVA SITUADO A RUA DOS AIMORES 3000 EM BELO HTE.             009566436000117198187-9      000035
1019421014386DIR_CREDIT     MGPX EMPREENDIMENTOS E PARTICIPS        006981180000116CEMIG DISTRIBUICAO S/A                  AV BARBACENA 1200                       BELO HORIZONTE                          30190131MG3811700001                                                                                                                                          011952580           140120100000022346N/A         28092012000403LOCACAO DE SETE ANDARES COMERCIAIS(CONJS:301,302,501,801,802,901,902,1001,1002,1101,1102,1201,1202)E SUAS RESPECTIVAS VAGAS DE GARAGEM DE IMOVEL COMERCIAL DENOMINADO EDIFICIO MINERVA SITUADO A RUA DOS AIMORES 3000 EM BELO HTE.              009566436000117198187-10     000036
1021420930887COBR_CAUC_BIC  DEDINI S/A INDUSTRIAS DE BASE           075717355001177USINA DE ACUCAR SANTA TEREZINHA LT      AV MARCELO MESSIAS BUSIQUIA 847 PQ INDUSMARINGA                                 87065006PR381180000106354757188771-3-3  01102012016CURITIBA            3010201200000000019698677CC                                                                                                                                                                                                                                                                                                                                                                                           198187-11     000037
1021420930887COBR_CAUC_BIC  DEDINI S/A INDUSTRIAS DE BASE           075717355001177USINA DE ACUCAR SANTA TEREZINHA LT      AV MARCELO MESSIAS BUSIQUIA 847 PQ INDUSMARINGA                                 87065006PR381180000206354773188354-3-3  01102012016CURITIBA            3010201200000000017135932CC                                                                                                                                                                                                                                                                                                                                                                                           198187-12     000038
1021420930887COBR_CAUC_BIC  DEDINI S/A INDUSTRIAS DE BASE           075717355001177USINA DE ACUCAR SANTA TEREZINHA LT      AV MARCELO MESSIAS BUSIQUIA 847 PQ INDUSMARINGA                                 87065006PR381180000306354803188011-3-3  01102012016CURITIBA            3010201200000000011199712CC                                                                                                                                                                                                                                                                                                                                                                                           198187-13     000039
1021420930887COBR_CAUC_BIC  DEDINI S/A INDUSTRIAS DE BASE           075717355001177USINA DE ACUCAR SANTA TEREZINHA LT      AV MARCELO MESSIAS BUSIQUIA 847 PQ INDUSMARINGA                                 87065006PR381180000406354846189295-3-3  01102012016CURITIBA            3010201200000000020242440CC                                                                                                                                                                                                                                                                                                                                                                                           198187-14     000040
1021420930887COBR_CAUC_BIC  DEDINI S/A INDUSTRIAS DE BASE           075717355001177USINA DE ACUCAR SANTA TEREZINHA LT      AV MARCELO MESSIAS BUSIQUIA 847 PQ INDUSMARINGA                                 87065006PR381180000506354854188231-3-3  01102012016CURITIBA            3010201200000000017066416CC                                                                                                                                                                                                                                                                                                                                                                                           198187-15     000041
1007421031242COBR_CAUC_BIC  GP GUARDA PATRIMONIAL DE S.P. LTDA      000007618080860JOSE OSWALDO RIBEIRO DE MENDONCA        RUA CRISTOVAO DINIZ67                   SAO PAULO                               01426020SP38119000010006358384373       01102012007PAULISTA            0111201200000000011068990CC                                                                                                                                                                                                                                                                                                                                                                                           198187-16     000042
1031421007850COBR_CAUC_BIC  AGRICOLA JANDELLE S/A                   001928075002062DMA DISTRIBUIDORA S/A                   RODOVIA BR 040 KM 531 NR 180            BELO HORIZONTE                          30855500MG3812000001050538950009800501  02102012019BELO HORIZONTE      0111201200000000011888683CC                                                                                                                                                                                                                                                                                                                                                                                           198187-17     000043
1031421007850COBR_CAUC_BIC  AGRICOLA JANDELLE S/A                   072200637000132RIOJA INDUSTRIA E COMERCIO DE ALIM      RUA DA CEVADA 110                       RIO DE JANEIRO                          21011080RJ3812100001050537980021409701  01102012014RIO DE JANEIRO      2910201200000000012720000CC                                                                                                                                                                                                                                                                                                                                                                                           198187-18     000044
1019421010259COBR_CAUC_BIC  L & S INTERBANK FOMENTO LTDA            016624611009873EMPRESA GONTIJO DE TRANSPORTES LIM      R. PROF.JOSE VIEIRA DE MENDONCA, 475    BELO HORIZONTE                          31310260MG38122000010657896518761       01102012019BELO HORIZONTE      1710201200000000021595301CC                                                                                                                                                                                                                                                                                                                                                                                           198187-19     000045
1016421011878DIR_CREDIT     COMPASA DO BRASIL DIST DER PET LTD      000880446000158COMPANHIA DE CONCESSÃO ROD JUIZ DE FORA ROD WASHINGTON LUIZ, 13892 - KM 111     DUQUE DE CAXIAS                         25070235RJ3812400001                                                                                                                                          481024074           200320120000021230ENG-CO-009/202102012000404Prestação de serviços de recuperação do pavimento flexível, em trechos descontínuos, ao longo de 180 Km da Rodovia BR-040.                                                                                                                      001382022000126198187-20     000046
1021421011958DIR_CREDIT     USINA CAROLO S/A ACUCAR E ALCOOL        023314594000100ALESAT COMBUSTIVEIS S/A                 R. MANOEL DE CASTRO, 1170               NATAL                                   59064010RN3812500001                                                                                                                                          012009045           2210201000000160732010.US.000802102012000407Venda do volume semanal de 135m³ de ETANOL ANIDRO COMBUSTÍVEL,destinadoao mercado interno,produzido na Safra 2011/2012 e 2012/2013.                                                                                                             055109474000168198187-21     000047
1036421013576DIR_CREDIT     BIOFAST MEDICINA E SAUDE LTDA           060975174000100ASSOC.DE BENEF.E FILANTROPIA S.CRISTOVAORUA TERENAS, 161/207                    SÃO PAULO                               03128010SP3813900001                                                                                                                                          012000029           010620080000010627            02102012000403PRESTAÇÃO DE SERVIÇOS DE DIAGNÓSTICOS EM ANÁLISES CLÍNICAS, ANATOMIA E OUTRAS AVENÇAS.                                                                                                                                                          006137183000178198187-22     000048
9000047                                                                                                                                                                                                                                                                                                                                                                                                                                                                                                                                                                                                                                                                                                               000049
