0REMESSANOTIFICAÇÃO ELETRONICA        99999999999999Bicbanco S/A                            Avenida Brigadeiro Faria Lima           4.440     2º andar  Itaim Bibi                    São Paulo                     04538132SPBicbanco S/A                                                                    30052012                                                                                                                                                                                                                                                                                                                                                                                                000001
1038421019619COBR_CAUC_BIC  TOME EQUIPAMENTOS E TRANSPORTES S.A     008528337000188WIND POWER ENERGIA S/A                  ESTR.TDR KM 3,3 1724                    CABO DE SANTO A                         54590000PE3555400001096366572305        23052012038ABC                 1007201200000000119612397CC                                                                                                                                                                                                                                                                                                                                                                                           177060-1      000002
1009420930764COBR_CAUC_BIC  S/A CORREIO BRAZILIENSE                 006056990000166JOSE CELSO GONTIJO ENGENHARIA S A       EQS 114 115 CONJUNTO A BLOCO 1 A SUL 41 BRASILIA                                70377400DF355550000101377170437966-1    22052012009BRASILIA            0106201200000000016800761CC                                                                                                                                                                                                                                                                                                                                                                                           177060-2      000003
1021420930887COBR_CAUC_BIC  DEDINI S/A INDUSTRIAS DE BASE           007083656000750SANDVIK MINING AND CONSTRUCTION DO      AVENIDA DAS NACOES, 2880 DI PROF JOSE VMVESPASIANO                              33200000MG35556000010633282631665-1-1   22052012019BELO HORIZONTE      1906201200000000020700000CC                                                                                                                                                                                                                                                                                                                                                                                           177060-3      000004
1021420930887COBR_CAUC_COR  DEDINI S/A INDUSTRIAS DE BASE           051466860002957SAO MARTINHO S A                        USINA IRACEMA, S N IRACEMAPOLIS BR      IRACEMAPOLIS                            13495000SP355570000106332851176429-4-4  22052012900BRADESCO S/A        2008201200000000013290120CC                                                                                                                                                                                                                                                                                                                                                                                           177060-4      000005
1021420930887COBR_CAUC_BIC  DEDINI S/A INDUSTRIAS DE BASE           061068342000138PRENSAS SCHULER SA                      AV FAGUNDES DE OLIVEIRA, 1515 PIRAPORINHDIADEMA                                 09950904SP35558000010633279631684-1-1   23052012038ABC                 1106201200000000010534300CC                                                                                                                                                                                                                                                                                                                                                                                           177060-5      000006
1021420930887COBR_CAUC_BIC  DEDINI S/A INDUSTRIAS DE BASE           061068342000138PRENSAS SCHULER SA                      AV FAGUNDES DE OLIVEIRA, 1515 PIRAPORINHDIADEMA                                 09950904SP35558000020633280031683-1-1   23052012038ABC                 1106201200000000010594900CC                                                                                                                                                                                                                                                                                                                                                                                           177060-6      000007
1007421053971COBR_CAUC_BIC  VIDA ALIMENTOS LTDA                     011457034000126GOOD MEAL COM E TRANSP DE PROD ALI      RUA ARARIPE, 206                        SAO PAULO                               03215010SP3555900001012537340004486301  23052012007PAULISTA            1506201200000000018037500CC                                                                                                                                                                                                                                                                                                                                                                                           177060-7      000008
1032421016971COBR_CAUC_BIC  METALURGICA RIOSULENSE S.A              068869767000195SERRAF DIST. PECAS P/MOTORES LTDA       AV. JOSE DE BRITO DE FREITAS, 132       SAO PAULO                               02552000SP3556000001006109773078456U    23052012007PAULISTA            2507201200000000011205890CC                                                                                                                                                                                                                                                                                                                                                                                           177060-8      000009
1038421019856COBR_CAUC_BIC  KELPEN OIL BRASIL LTDA                  043218296000124PETROCOQUE S/A IND E COMERCIO           R.C.DOMENICO RANGONI SP55 KM26          CUBATAO                                 11573000SP355610000109636690013630-01   23052012023SANTOS              0706201200000000010923270CC                                                                                                                                                                                                                                                                                                                                                                                           177060-9      000010
1007421053076COBR_CAUC_BIC  WORLD TRACTOR COML IMP LTDA             033042730001348CIA SIDERURGICA NACIONAL                RUA ENG FRANCISCO PITTA BRITTO,138      SAO PAULO                               04753900SP3556200001012536702483        24052012007PAULISTA            2007201200000000030738723CC                                                                                                                                                                                                                                                                                                                                                                                           177060-10     000011
1017421012956DIR_CREDIT     RONALDO LOPES DE ALBUQUERQUE SARMEN     012718011000190CENTRAL ACUC STO ANTONIO                USINA SANTO ANTONIO ZONA RURAL          SAO LUIZ DO QUITUNDE                    57920000AL3557400001                                                                                                                                          011850717           270320120000021348            24052012000403FORNECIMENTO DE UMA MÉDIA DE 24000 (VINTE E QUATRO MIL) TONELADAS DE CANA DE ACUCAR, PRODUZIDAS NO IMOVEL RURAL DENOMINADO FAZENDA SANTA JUSTINA 1, SAFRA 2012/2013.                                                                            076229374000087177060-11     000012
1017000000000DIR_CREDIT     JULIO DE OMENA NOGUEIRA                 012718011000190CENTRAL AçUCAREIRA SANTO ANTONIO S/A    USINA SANTO ANTONIO S/N ZONA RURAL      SAO LUIZ DO QUITUNDE                    57000000AL3557600001                                                                                                                                          011862626           270320120000021469            24052012000403FORNECIMENTO DE TODO O CONTINGENTE PRODUZIDOS NO IMOVEL RURAL DENOMINADO FAZENDA BUENOS AIRES, PENDENTE DE CORTE NA SAFRA 2012/2013.                                                                                                            008722914000056177062-1      000013
1021420930887COBR_CAUC_COR  DEDINI S/A INDUSTRIAS DE BASE           051466860000156SAO MARTINHO S A                        FAZENDA SAO MARTINHO S N ZONA RURAL BR  PRADOPOLIS                              14850000SP355800000106332885176428-4-4  22052012900BRADESCO S/A        2008201200000000040743330CC                                                                                                                                                                                                                                                                                                                                                                                           177062-2      000014
1003441000362COBR_CAUC_BIC  PESQUEIRA MAGUARY LTDA                  033381286000151SUPER MERCADO ZONA SUL S/A              RUA COMANDANTE VERGUEIRO DA CR,226      RIO DE JANEIRO                          21021020RJ355810000104113304000002490   25052012014RIO DE JANEIRO      1107201200000000010720000CC                                                                                                                                                                                                                                                                                                                                                                                           177062-3      000015
1022421006723DIR_CREDIT     FERRARI AGROINDUSTRIA S/A               061149589000189COPERSUCAR                              AV. PAULISTA, 287 2. ANDAR              SãO PAULO                               01311000SP3558500001                                                                                                                                          011841754           040520090000015973DEJR-2770/2025052012017002repasse pela Coopersucar de 6% do saldo líquido credor da contamovimento disponibilidade da USINA, no período compreendido entre 16/11/2011 até 30/11/2012 e 3% entre 01/12/2012 até 30/11/2012.                                                054846951000105177062-4      000016
1045421008814DIR_CREDIT     CLINICA RENASCENCA S/A                  013360276000122UNIMED SERGIPE - COOP DE TRAB MEDICO    RUA SOCORRO, 100                        ARACAJU                                 49015300SE3559200001                                                                                                                                          481012524           010520030000013101SEM NUMERO  25052012000404Serviços hospitalares.                                                                                                                                                                                                                          013175690000161177062-5      000017
1019421013967DIR_CREDIT     ACOPLATION LOCACAO DE AUTOS             041679762000305GPA CONSTRUCAO PESADA E MINERACAO       ROD BR 040 KM 800 NUM.60 BL 02 SALA 34  MATIAS BARBOSA                          36120000MG3559500001                                                                                                                                          011840935           140320120000021344012625-2012 25052012000403locacao de plataformas aereas que serao utilizadas pela gpa construcao pesada e mineracao.                                                                                                                                                      010408025000182177062-6      000018
1007421049419COBR_CAUC_BIC  UNIPAC EMBALAGENS LTDA                  014798555000135IRIS MARIA TELHADA GARCIA - EPP         RUA JOSE PAOLONE,80                     SAO CAETANO DO                          09521370SP355980000101165177001033391   30032012038ABC                 2905201200000000000126546CC                                                                                                                                                                                                                                                                                                                                                                                           177062-7      000019
1007421049419COBR_CAUC_BIC  UNIPAC EMBALAGENS LTDA                  014798555000135IRIS MARIA TELHADA GARCIA - EPP         RUA JOSE PAOLONE,80                     SAO CAETANO DO                          09521370SP355980000201185127001033474   11042012038ABC                 1006201200000000000223123CC                                                                                                                                                                                                                                                                                                                                                                                           177062-8      000020
1007421049419COBR_CAUC_COR  UNIPAC EMBALAGENS LTDA                  083310441003302COOPERATIVA CENTRAL AURORA ALIMENT      RUA JOAO MARTINS,219                    CHAPECO                                 89803901SC355990000101200720001033537   26042012800UNIBANCO S/A        0506201200000000000600345CC                                                                                                                                                                                                                                                                                                                                                                                           177062-9      000021
1007421049419COBR_CAUC_COR  UNIPAC EMBALAGENS LTDA                  009104182000115MINERVADAWN FARMS IND COMPROTE          RUA JOAO RIBEIRO NASCIMENTO,355 CH      BARRETOS                                14781530SP356000000101200789001033523C  23042012800UNIBANCO S/A        0406201200000000000612429CC                                                                                                                                                                                                                                                                                                                                                                                           177062-10     000022
1007421049419COBR_CAUC_BIC  UNIPAC EMBALAGENS LTDA                  002332686000739KERRY DO BRASIL LTDA.                   AV MERCEDES BENZ,460                    CAMPINAS                                13054750SP356010000101204661001033548A  02052012021CAMPINAS            0106201200000000000362320CC                                                                                                                                                                                                                                                                                                                                                                                           177062-11     000023
1007421049419COBR_CAUC_BIC  UNIPAC EMBALAGENS LTDA                  002332686000739KERRY DO BRASIL LTDA.                   AV MERCEDES BENZ,460                    CAMPINAS                                13054750SP356010000201204679001033548B  02052012021CAMPINAS            1606201200000000000362320CC                                                                                                                                                                                                                                                                                                                                                                                           177062-12     000024
1007421049419COBR_CAUC_BIC  UNIPAC EMBALAGENS LTDA                  002332686000739KERRY DO BRASIL LTDA.                   AV MERCEDES BENZ,460                    CAMPINAS                                13054750SP356010000301204687001033548C  02052012021CAMPINAS            0107201200000000000362320CC                                                                                                                                                                                                                                                                                                                                                                                           177062-13     000025
1007421049419COBR_CAUC_BIC  UNIPAC EMBALAGENS LTDA                  071597298000107FLORA PLAST IND. DE EMBALAGENS LTD      RUA 01, 454                             PAULINIA                                13140000SP356020000101200746001033545C  27042012021CAMPINAS            0106201200000000000576450CC                                                                                                                                                                                                                                                                                                                                                                                           177062-14     000026
1007421049419COBR_CAUC_BIC  UNIPAC EMBALAGENS LTDA                  071597298000107FLORA PLAST IND. DE EMBALAGENS LTD      RUA 01, 454                             PAULINIA                                13140000SP356020000201200754001033545D  27042012021CAMPINAS            0806201200000000000576450CC                                                                                                                                                                                                                                                                                                                                                                                           177062-15     000027
1007421049419COBR_CAUC_BIC  UNIPAC EMBALAGENS LTDA                  008142803000435NOVA MIX INDL. E COML. DE ALIMENTO      R. MARTINHO DE CAMPOS,222               SAO PAULO                               05093050SP356030000101204695001033536   25042012007PAULISTA            0906201200000000001487712CC                                                                                                                                                                                                                                                                                                                                                                                           177062-16     000028
1007421049419COBR_CAUC_COR  UNIPAC EMBALAGENS LTDA                  025853672000170KARAMBI ALIMENTOS LTDA                  RODOVIA BR 135 KM59                     ITACARAMBI                              39470000MG356040000101204652001033553   03052012800UNIBANCO S/A        3105201200000000001530195CC                                                                                                                                                                                                                                                                                                                                                                                           177062-17     000029
1007421049419COBR_CAUC_COR  UNIPAC EMBALAGENS LTDA                  090726506010995COTRIJUI - COOPERATIVA AGROPECUARI      RUA VICENTE FERRER PRADO S/N            SAO LUIZ GONZAG                         97800000RS356050000101181709001033390B  30032012800UNIBANCO S/A        0406201200000000000836272CC                                                                                                                                                                                                                                                                                                                                                                                           177062-18     000030
1007421049419COBR_CAUC_COR  UNIPAC EMBALAGENS LTDA                  090726506010995COTRIJUI - COOPERATIVA AGROPECUARI      RUA VICENTE FERRER PRADO S/N            SAO LUIZ GONZAG                         97800000RS356050000201181717001033390C  30032012800UNIBANCO S/A        1106201200000000000836273CC                                                                                                                                                                                                                                                                                                                                                                                           177062-19     000031
1007421049419COBR_CAUC_COR  UNIPAC EMBALAGENS LTDA                  090726506010995COTRIJUI - COOPERATIVA AGROPECUARI      RUA VICENTE FERRER PRADO S/N            SAO LUIZ GONZAG                         97800000RS356050000301185089001033417B  03042012800UNIBANCO S/A        0806201200000000000421032CC                                                                                                                                                                                                                                                                                                                                                                                           177062-20     000032
1007421049419COBR_CAUC_COR  UNIPAC EMBALAGENS LTDA                  090726506010995COTRIJUI - COOPERATIVA AGROPECUARI      RUA VICENTE FERRER PRADO S/N            SAO LUIZ GONZAG                         97800000RS356050000401185097001033417C  03042012800UNIBANCO S/A        1506201200000000000421032CC                                                                                                                                                                                                                                                                                                                                                                                           177062-21     000033
1041421008587COBR_CAUC_BIC  ININGA INDUSTRIA E COMERCIO LTDA        015314644000121MERCANTIL COMETA LTDA - ME              RUA PROF ALUIZIO MARTINS 73 -           SANTAREM                                68015760PA356060000100643327001037      17052012050BELEM               2107201200000000002240000CC                                                                                                                                                                                                                                                                                                                                                                                           177062-22     000034
1041421008587COBR_CAUC_COR  ININGA INDUSTRIA E COMERCIO LTDA        013030520000199FRANCO E BELO COM DE PROD ALIMENTI      RUA COSME FERREIRA, 7317                OSASCO                                  69083000SP356070000100643335001038      17052012900BRADESCO S/A        1107201200000000002437500CC                                                                                                                                                                                                                                                                                                                                                                                           177062-23     000035
1041421008587COBR_CAUC_BIC  ININGA INDUSTRIA E COMERCIO LTDA        009007466000193D. ROCHA & CIA LTDA - ME                RUA PROF ALUIZIO MARTINS 73             SANTAREM                                68015760PA356080000100643319001039      17052012050BELEM               0107201200000000002400000CC                                                                                                                                                                                                                                                                                                                                                                                           177062-24     000036
1041421008587COBR_CAUC_BIC  ININGA INDUSTRIA E COMERCIO LTDA        009007466000193D. ROCHA & CIA LTDA - ME                RUA PROF ALUIZIO MARTINS 73             SANTAREM                                68015760PA356080000200631418552-D       21032012050BELEM               2905201200000000000536250CC                                                                                                                                                                                                                                                                                                                                                                                           177062-25     000037
9000036                                                                                                                                                                                                                                                                                                                                                                                                                                                                                                                                                                                                                                                                                                               000038
