0REMESSANOTIFICAÇÃO ELETRONICA        99999999999999Bicbanco S/A                            Avenida Paulista                        1048      12º andar BELA VISTA                    SÃO PAULO                     01310100SPBicbanco S/A                                                                    13102011                                                                                                                                                                                                                                                                                                                                                                                                000001
1045421006676COBR_CAUC_BIC  FRUTEB S/A.                             075315333000370ATACADAO - DISTRIBUICAO COM. E IND      AV. MORVAN DIAS DE FIGUEIREDO, 6169     SAO PAULO                               02170000SP3126300037007928890015964/01  01092011007PAULISTA            0111201100000000000523800CC                                                                                                                                                                                                                                                                                                                                                                                           147870-97     000002
1045421006676COBR_CAUC_BIC  FRUTEB S/A.                             075315333000370ATACADAO - DISTRIBUICAO COM. E IND      AV. MORVAN DIAS DE FIGUEIREDO, 6169     SAO PAULO                               02170000SP3126300038007928970015969/01  01092011007PAULISTA            0111201100000000000523800CC                                                                                                                                                                                                                                                                                                                                                                                           147870-98     000003
1045421006676COBR_CAUC_BIC  FRUTEB S/A.                             075315333000370ATACADAO - DISTRIBUICAO COM. E IND      AV. MORVAN DIAS DE FIGUEIREDO, 6169     SAO PAULO                               02170000SP3126300039007929010015981/01  05092011007PAULISTA            1411201100000000002144000CC                                                                                                                                                                                                                                                                                                                                                                                           147870-99     000004
1045421006676COBR_CAUC_BIC  FRUTEB S/A.                             075315333000370ATACADAO - DISTRIBUICAO COM. E IND      AV. MORVAN DIAS DE FIGUEIREDO, 6169     SAO PAULO                               02170000SP3126300040007961830016193/01  14092011015PAULISTA            1411201100000000000185580CC                                                                                                                                                                                                                                                                                                                                                                                           147870-100    000005
1045421006676COBR_CAUC_BIC  FRUTEB S/A.                             075315333000370ATACADAO - DISTRIBUICAO COM. E IND      AV. MORVAN DIAS DE FIGUEIREDO, 6169     SAO PAULO                               02170000SP3126300041007961910016194/01  14092011016PAULISTA            1411201100000000000185580CC                                                                                                                                                                                                                                                                                                                                                                                           147870-101    000006
1045421006676COBR_CAUC_BIC  FRUTEB S/A.                             075315333000370ATACADAO - DISTRIBUICAO COM. E IND      AV. MORVAN DIAS DE FIGUEIREDO, 6169     SAO PAULO                               02170000SP3126300042007962050016195/01  14092011900PAULISTA            1411201100000000000185580CC                                                                                                                                                                                                                                                                                                                                                                                           147870-102    000007
1045421006676COBR_CAUC_BIC  FRUTEB S/A.                             075315333000370ATACADAO - DISTRIBUICAO COM. E IND      AV. MORVAN DIAS DE FIGUEIREDO, 6169     SAO PAULO                               02170000SP3126300043007994090016512/01  27092011007PAULISTA            2811201100000000004345200CC                                                                                                                                                                                                                                                                                                                                                                                           147870-103    000008
9000007                                                                                                                                                                                                                                                                                                                                                                                                                                                                                                                                                                                                                                                                                                               000009
