0REMESSANOTIFICAÇÃO ELETRONICA        99999999999999Bicbanco S/A                            Avenida Paulista                        1048      12º andar BELA VISTA                    SÃO PAULO                     01310100SPBicbanco S/A                                                                    17092010                                                                                                                                                                                                                                                                                                                                                                                                000001
1038421012398COBR_CAUC_BIC  METROPOLITAN TRANSPORTS S/A             042318949006387COBRA TECNOLOGIA S.A                    AV CECI, 1900                           BARUERI                                 06460120SP2418900001089121625705        27082010007PAULISTA            1510201000000000013022763CC                                                                                                                                                                                                                                                                                                                                                                                           111520-1      000002
1021420930887COBR_CAUC_COR  DEDINI S/A INDUSTRIAS DE BASE           002334471000323USINA DE ACUCAR SANTA TEREZINHA LT      ROD PR 492, KM 47 ZONA RURAL BR         RONDON                                  87800000PR241900000105902661123769-5-5  20082010600HSBC BANK BRASIL    2012201000000000023330536CC                                                                                                                                                                                                                                                                                                                                                                                           111520-2      000003
1021420930887COBR_CAUC_COR  DEDINI S/A INDUSTRIAS DE BASE           002334471000323USINA DE ACUCAR SANTA TEREZINHA LT      ROD PR 492, KM 47 ZONA RURAL BR         RONDON                                  87800000PR241900000205902653123787-5-5  20082010900HSBC BANK BRASIL    2012201000000000035632738CC                                                                                                                                                                                                                                                                                                                                                                                           111520-3      000004
1021420930887COBR_CAUC_COR  DEDINI S/A INDUSTRIAS DE BASE           005500757000168COOP AGROINDL DO EST RIO DE JANEIR      ESTRADA DO ACUCAR GOYTACAZES BR         CAMPOS DOS GOYT                         28110000RJ241910000105902564126574-3-3  24082010600HSBC BANK BRASIL    1611201000000000011856191CC                                                                                                                                                                                                                                                                                                                                                                                           111520-4      000005
1021420930887COBR_CAUC_COR  DEDINI S/A INDUSTRIAS DE BASE           005500757000168COOP AGROINDL DO EST RIO DE JANEIR      ESTRADA DO ACUCAR GOYTACAZES BR         CAMPOS DOS GOYT                         28110000RJ241910000205902602126574-4-4  24082010600HSBC BANK BRASIL    1512201000000000011856191CC                                                                                                                                                                                                                                                                                                                                                                                           111520-5      000006
1021420930887COBR_CAUC_COR  DEDINI S/A INDUSTRIAS DE BASE           005928246000141COPLASA ACUCAR E ALCOOL LTDA            EST VICINAL GOV.MARIO COVAS FAZ CACOS COPLANALTO                                15260000SP241920000105902556125592-3-3  18082010900BRADESCO S/A        3010201000000000070000000CC                                                                                                                                                                                                                                                                                                                                                                                           111520-6      000007
1021420930887COBR_CAUC_COR  DEDINI S/A INDUSTRIAS DE BASE           013642699000135AGRO INDVALE S FRANCISCO S A AGR        FAZENDA MASSAYO ZONA RURAL BR           JUAZEIRO                                48903970BA241930000105902599128390-4-4  14092010900BRADESCO S/A        1012201000000000010536501CC                                                                                                                                                                                                                                                                                                                                                                                           111520-7      000008
1021420930887COBR_CAUC_COR  DEDINI S/A INDUSTRIAS DE BASE           047254396000167J PILON S A AC E ALC                    FAZ SANTA MARIA SAO FRANCISCO BR        CERQUILHO                               18520000SP241940000105902572128716-1-1  15092010900BRADESCO S/A        2010201000000000010750000CC                                                                                                                                                                                                                                                                                                                                                                                           111520-8      000009
1021420930887COBR_CAUC_COR  DEDINI S/A INDUSTRIAS DE BASE           047254396000167J PILON S A AC E ALC                    FAZ SANTA MARIA SAO FRANCISCO BR        CERQUILHO                               18520000SP241940000205902581128716-2-2  15092010900BRADESCO S/A        2011201000000000010750000CC                                                                                                                                                                                                                                                                                                                                                                                           111520-9      000010
1021420930887COBR_CAUC_COR  DEDINI S/A INDUSTRIAS DE BASE           048295562001108USINA ALTO ALEGRE S A - ACUCAR E A      LOC FAZENDA ALTA FLORESTA AMELIOPOLIS BRPRESIDENTE PRUD                         19140000SP241950000105902637122406-5-5  30082010600HSBC BANK BRASIL    3012201000000000020105370CC                                                                                                                                                                                                                                                                                                                                                                                           111520-10     000011
1021420930887COBR_CAUC_COR  DEDINI S/A INDUSTRIAS DE BASE           048295562001108USINA ALTO ALEGRE S A - ACUCAR E A      LOC FAZENDA ALTA FLORESTA AMELIOPOLIS BRPRESIDENTE PRUD                         19140000SP241950000205902629122607-5-5  30082010900HSBC BANK BRASIL    3012201000000000027354513CC                                                                                                                                                                                                                                                                                                                                                                                           111520-11     000012
1021420930887COBR_CAUC_COR  DEDINI S/A INDUSTRIAS DE BASE           048295562001108USINA ALTO ALEGRE S A - ACUCAR E A      LOC FAZENDA ALTA FLORESTA AMELIOPOLIS BRPRESIDENTE PRUD                         19140000SP241950000305902645122382-5-5  30082010900HSBC BANK BRASIL    3012201000000000011943052CC                                                                                                                                                                                                                                                                                                                                                                                           111520-12     000013
1021420930887COBR_CAUC_BIC  DEDINI S/A INDUSTRIAS DE BASE           075717355000871USINA DE ACUCAR SANTA TEREZINHA LT      AV MARCELO MESSIAS BUSIQUIA PQ INDUSTRIAMARINGA                                 87065006PR241960000105902611123590-5-5  20082010016CURITIBA            2012201000000000018115637CC                                                                                                                                                                                                                                                                                                                                                                                           111520-13     000014
1022421003945COBR_CAUC_COR  COOP.CAFEIC. E CITRIC.DE SAO PAULO      000015326841851ANTONIO MARCOS ZANON E OUTROS           SITIO SAO BOM JESUS                     ITAJOBI                                 15840000SP241970000104012932029146213A  14092010900BRADESCO S/A        2210201000000000011431400CC                                                                                                                                                                                                                                                                                                                                                                                           111520-14     000015
1016420932333COBR_CAUC_BIC  COCELPA CIA DE CEL PAPEL DO PR          042564807000105CSN CIMENTOS S/A                        ROD BR 393 LUCIO MEIRA KM 5001 PARTE    VOLTA REDONDA                           27260390RJ2419800001028702560001325-01  10092010014RIO DE JANEIRO      0810201000000000010785093CC                                                                                                                                                                                                                                                                                                                                                                                           111520-15     000016
1007421035264COBR_CAUC_COR  ALLIED ADVANCED TECHNOLOGIES LTDA       004565289000570BENCHIMOL IRMAO & CIA LTDA - MANAU      RUA MIRANDA LEAO, 41                    MANAUS                                  69005901AM241990000100096554000021241A  14092010900BRADESCO S/A        1311201000000000017964435CC                                                                                                                                                                                                                                                                                                                                                                                           111520-16     000017
1007421035264COBR_CAUC_COR  ALLIED ADVANCED TECHNOLOGIES LTDA       004565289000570BENCHIMOL IRMAO & CIA LTDA - MANAU      RUA MIRANDA LEAO, 41                    MANAUS                                  69005901AM241990000200096562000021242A  14092010900BRADESCO S/A        1311201000000000023144083CC                                                                                                                                                                                                                                                                                                                                                                                           111520-17     000018
1007421035264COBR_CAUC_COR  ALLIED ADVANCED TECHNOLOGIES LTDA       004565289000570BENCHIMOL IRMAO & CIA LTDA - MANAU      RUA MIRANDA LEAO, 41                    MANAUS                                  69005901AM241990000300096571000021243A  14092010900BRADESCO S/A        1311201000000000016553340CC                                                                                                                                                                                                                                                                                                                                                                                           111520-18     000019
1007421035264COBR_CAUC_BIC  ALLIED ADVANCED TECHNOLOGIES LTDA       009358108000206PONTOFRIO.COM COMERCIO ELETRONICO       RUA GOMES DE CARVALHO, 1609 / 1617      SAO PAULO                               04547006SP242000000100096368000020852A  09092010007PAULISTA            0811201000000000025770000CC                                                                                                                                                                                                                                                                                                                                                                                           111520-19     000020
1007421035264COBR_CAUC_BIC  ALLIED ADVANCED TECHNOLOGIES LTDA       043559079000602SUPERMERCADOS BERGAMINI LTDA            AV LUIS STAMATIS, 431                   SAO PAULO                               02260000SP242010000100096481000021188A  14092010007PAULISTA            1311201000000000019340500CC                                                                                                                                                                                                                                                                                                                                                                                           111520-20     000021
1007421040063COBR_CAUC_BIC  TUBERFIL IND. E COM. DE TUBOS LTDA      049058654000165FLEXFORM IND METALURGICA LTDA           AV PAPA JOAO PAULO I 1849               GUARULHOS                               07170350SP242020000100096953019534001   14092010037GUARULHOS           1111201000000000010493557CC                                                                                                                                                                                                                                                                                                                                                                                           111520-21     000022
1042141000037COBR_CAUC_BIC  COBRACO SERVICOS E MONTAGENS LTDA       003715415000130J W ENG E MANUT INDL LTDA               AV EMILIANO MACIEIRA KM 9               SAO LUIS                                65000000MA2420300001016090012121        10092010042SAO LUIS            0301201100000000045000000TD                                                                                                                                                                                                                                                                                                                                                                                           111520-22     000023
1038421008358COBR_CAUC_COR  MYATECH IND COM E SERV DE INFORM LT     064282601020142RICARDO ELETRO DIVINOPOLIS LTDA         RUA UM, 60, GALPAO GERALDO ROCHA 1400   CONTAGEM                                32113500MG242040000100069067003476/1/M  14092010900BRADESCO S/A        1311201000000000015914570CC                                                                                                                                                                                                                                                                                                                                                                                           111520-23     000024
1018421017760COBR_CAUC_COR  RURAL RIO PRODUTOS AGRICOLAS LTDA       000001905805187ANASTACIO VICENTE DO PRADO              RUA ODELIO CAMPOS,110                   RIO VERDE                               75901670GO2420500001000005351273        14092010900BRADESCO S/A        2012201000000000029842522CC                                                                                                                                                                                                                                                                                                                                                                                           111520-24     000025
9000024                                                                                                                                                                                                                                                                                                                                                                                                                                                                                                                                                                                                                                                                                                               000026
