0REMESSANOTIFICAÇÃO ELETRONICA        99999999999999Bicbanco S/A                            Avenida Paulista                        1048      12º andar BELA VISTA                    SÃO PAULO                     01310100SPBicbanco S/A                                                                    15122010                                                                                                                                                                                                                                                                                                                                                                                                000001
1003421013987COBR_CAUC_COR  SCIENTIFIC COM E IMPORTACAO LTDA        010867687000110CLIN ORTO E TRAUM DE NATAL LTDA         AV JUVENAL LAMARTINE ,979               NATAL                                   59022020RN254360000100020531838         10122010900BRADESCO S/A        0901201100000000015000000CC                                                                                                                                                                                                                                                                                                                                                                                           118068-1      000002
1008421005590COBR_CAUC_BIC  MM MONTEIRO PESCA E EXPORTACAO LTDA     033304981001949SUPERMERCADOS MUNDIAL LTDA              AV ITAOCA,2600                          RIO DE JANEIRO                          21061020RJ2543700001081804921312 A      13122010014RIO DE JANEIRO      2812201000000000010680000CC                                                                                                                                                                                                                                                                                                                                                                                           118068-2      000003
1008421005590COBR_CAUC_BIC  MM MONTEIRO PESCA E EXPORTACAO LTDA     033304981001949SUPERMERCADOS MUNDIAL LTDA              AV ITAOCA,2600                          RIO DE JANEIRO                          21061020RJ2543700002081805061312 B      13122010014RIO DE JANEIRO      0301201100000000010680000CC                                                                                                                                                                                                                                                                                                                                                                                           118068-3      000004
1007421009131COBR_CAUC_COR  CR ZONGSHEN FABRIC. DE VEICULOS S/A     012334909000165PLANETA MOTOS LTDA                      RUA HILDEMAR MAIA 2183                  MACAPA                                  68902870AP254380000100276153F01009882   25112010900BRADESCO S/A        2401201100000000017801472CC                                                                                                                                                                                                                                                                                                                                                                                           118068-4      000005
1007421009131COBR_CAUC_COR  CR ZONGSHEN FABRIC. DE VEICULOS S/A     012334909000165PLANETA MOTOS LTDA                      RUA HILDEMAR MAIA 2183                  MACAPA                                  68902870AP254380000200276161F01009883   25112010900BRADESCO S/A        2401201100000000010519083CC                                                                                                                                                                                                                                                                                                                                                                                           118068-5      000006
1007421009131COBR_CAUC_COR  CR ZONGSHEN FABRIC. DE VEICULOS S/A     035604479000150FIGUEIREDO MOTOS LTDA – ME              AV DA INTEGRACAO 1330 A                 PETROLINA                               56308340PE254390000100275611F01010061   30112010900BRADESCO S/A        3101201100000000029592449CC                                                                                                                                                                                                                                                                                                                                                                                           118068-6      000007
1010421014083COBR_CAUC_COR  INTERNATIONAL COMMODITY TRADE S/A       002909530000182FEDERAL DISTRIBUIDORA DE PETROLEO       AV. PORTUARIA,SN                        IPOJUCA                                 55590000PE254400000104098716003988/2.2  03122010900BRADESCO S/A        2812201000000000038400000CC                                                                                                                                                                                                                                                                                                                                                                                           118068-7      000008
1010421014083COBR_CAUC_COR  INTERNATIONAL COMMODITY TRADE S/A       002909530000182FEDERAL DISTRIBUIDORA DE PETROLEO       AV. PORTUARIA,SN                        IPOJUCA                                 55590000PE254400000204098724003988/1.2  03122010900BRADESCO S/A        2712201000000000038400000CC                                                                                                                                                                                                                                                                                                                                                                                           118068-8      000009
1018141006024COBR_CAUC_BIC  ACRESUL INDUSTRIA E COMERCIO LTDA       000045420610191FLAVIO CAMILO DE OLIVEIRA               RUA BR FRANCA Q 13,35 L 16              GOIANIA                                 74430080GO254410000102037967001         22112010018GOIANIA             0603201100000000017452040TD                                                                                                                                                                                                                                                                                                                                                                                           118068-9      000010
9000009                                                                                                                                                                                                                                                                                                                                                                                                                                                                                                                                                                                                                                                                                                               000011
