0REMESSANOTIFICAÇÃO ELETRONICA        99999999999999Bicbanco S/A                            Avenida Paulista                        1048      12º andar BELA VISTA                    SÃO PAULO                     01310100SPBicbanco S/A                                                                    20052011                                                                                                                                                                                                                                                                                                                                                                                                000001
1016421001333COBR_CAUC_BIC  CONDUSPAR CONDUTORES ELETRICOS LTDA     091693531000162ASSOCIACAO PRO ENSI SUP EM NOVO HA      ROD RS 239, 2755                        NOVO HAMBURGO                           93352000RS277650000103076693225995      12052011015PORTO ALEGRE        0906201100000000010963680CC                                                                                                                                                                                                                                                                                                                                                                                           131326-1      000002
1037421007060COBR_CAUC_BIC  CONGR FILHAS N S STELLA MARIS           074466137000172UNIMED GUARULHOS COOPERATIVA DE TR      RUA TABAJARA,642                        GUARULHOS                               07111120SP2776600001044730728270        29042011037GUARULHOS           2006201100000000046759813CC                                                                                                                                                                                                                                                                                                                                                                                           131326-2      000003
1014421021575COBR_CAUC_BIC  CESBRA QUIMICA S/A                      004182260000186BIOVERDE IND E COM DE BIOCOMBUSTIV      RUA IRMAOS ALBERNAZ ,600                TAUBATE                                 12050190SP2776700001044221580005796/01  18052011007PAULISTA            0206201100000000011360062CC                                                                                                                                                                                                                                                                                                                                                                                           131326-3      000004
1014421021575COBR_CAUC_BIC  CESBRA QUIMICA S/A                      033453598001014SHELL BRASIL LTDA                       AVENIDA PRESIDENTE ANTONIO CAR,600      DUQUE DE CAXIAS                         25215180RJ2776800001044221660005794/01  18052011014RIO DE JANEIRO      0206201100000000011421046CC                                                                                                                                                                                                                                                                                                                                                                                           131326-4      000005
1010421019271DIR_CREDIT     HOSPITAL SANTA TERESINHA LTDA           003658432000182GEAP - FUNDACAO DE SEGURIDADE SOCIAL    RUA CAP JOSE DA LUZ, 190 DALA 101 COELHORECIFE                                  50070540PE2778300001                                                                                                                                          011281246           1105201000000170361500003835  14012011000403PRESTAÇÃO DE SERVIÇO AMBULATORIAL E HOSPITALAR                                                                                                                                                                                                  009192486000181131326-5      000006
1023421004974DIR_CREDIT     PRAIATERRA CONSTRUTORA LTDA.            046177523000109PM DE SAO VICENTE                       RUA FREI GASPAR 384                     SAO VICENTE                             11310900SP2778400001                                                                                                                                          011225766           090820100000016520157/10      01122010000403Construção do Centro Vocacional Tecnológico Tripulantes do Futuro (CVT)para atender ao Convênio com o Ministério da Ciência e Tecnologia.                                                                                                       064038979000170131326-6      000007
9000006                                                                                                                                                                                                                                                                                                                                                                                                                                                                                                                                                                                                                                                                                                               000008
