0REMESSANOTIFICAÇÃO ELETRONICA        99999999999999Bicbanco S/A                            Avenida Brigadeiro Faria Lima           4.440     2º andar  Itaim Bibi                    São Paulo                     04538132SPBicbanco S/A                                                                    14032014                                                                                                                                                                                                                                                                                                                                                                                                000001
1020421002020COBR_CAUC_COR  GRABER SISTEMAS DE SEGURANCA LTDA       010588595000363MEDLEY COMERCIAL E LOGISTICA L          R ESTACIO DE SA, 1490 - JD SANTA GENEBRACAMPINAS                                13080010SP4674100001000156130000007479  10032014900BRADESCO S/A        0104201400000000014914867CC                                                                                                                                                                                                                                                                                                                                                                                           289831-1      000002
1007421013325COBR_CAUC_COR  SANTA CRUZ FOMENTO COMERCIAL LTDA       004557061000105COMBOIO OFFICER LOGISTIC LTDA           RUAQUINZE DE NOVEMBRO, 94 SALA 505      NITEROI                                 24020125RJ467420000102720298964/A       28022014900BRADESCO S/A        2505201400000000023500000CC                                                                                                                                                                                                                                                                                                                                                                                           289831-2      000003
1007421075894COBR_CAUC_COR  INTELCAV CARTOES LTDA                   069034668000156SODEXO PASS DO BRASIL SERVS E COM       ALAMEDA ARAGUAIA 1142                   BARUERI                                 06455000SP4674300001027228785870A1-A    11032014700BANCO REAL- ABN AMRO2803201400000000037274769CC                                                                                                                                                                                                                                                                                                                                                                                           289831-3      000004
1007421075894COBR_CAUC_COR  INTELCAV CARTOES LTDA                   069034668000156SODEXO PASS DO BRASIL SERVS E COM       ALAMEDA ARAGUAIA 1142                   BARUERI                                 06455000SP4674300002027228865869-A      11032014700BANCO REAL- ABN AMRO2803201400000000024075550CC                                                                                                                                                                                                                                                                                                                                                                                           289831-4      000005
1046421000145COBR_CAUC_BIC  KOMLOG IMPORTACAO LTDA                  076189406000126CONDOR SUPER CENTER LTDA                EST DO GANCHINHO, 690 ROD CONTORNO SUL  CURITIBA                                81930165PR467440000102319938011346-     26022014016CURITIBA            0704201400000000015700420CC                                                                                                                                                                                                                                                                                                                                                                                           289831-5      000006
1046421000145COBR_CAUC_COR  KOMLOG IMPORTACAO LTDA                  083646984006906A. ANGELONI & CIA. LTDA                 ROD BR 101 KM 156, SN                   PORTO BELO                              88210000SC467450000102319903011359-     27022014700BANCO REAL- ABN AMRO2903201400000000018695970CC                                                                                                                                                                                                                                                                                                                                                                                           289831-6      000007
1022421007525COBR_CAUC_COR  D. CENTER DISTRIBUIDORA LTDA            002543945000690ULTRAFARMA SAUDE LTDA                   ESTR MUN DEP EST FRANCISCO FRANCO 1363  SANTA ISABEL                            07500000SP46746000010134806988437715    11032014900BRADESCO S/A        1205201400000000010181632CC                                                                                                                                                                                                                                                                                                                                                                                           289831-7      000008
1022421007525COBR_CAUC_COR  D. CENTER DISTRIBUIDORA LTDA            002543945000690ULTRAFARMA SAUDE LTDA                   ESTR MUN DEP EST FRANCISCO FRANCO 1363  SANTA ISABEL                            07500000SP46746000020134807788437815    11032014900BRADESCO S/A        1205201400000000017243137CC                                                                                                                                                                                                                                                                                                                                                                                           289831-8      000009
1048421003043COBR_CAUC_COR  FRIGOL S.A. EM RECUPERACAO JUDICIAL     052645009001125FRIGOESTRELA S.A EM RECUPERACAO JU       S/N                                    ESTRELA D´OESTE                         15650000SP46747000010006991300033886-1  08032014900BRADESCO S/A        1703201400000000018047277CC                                                                                                                                                                                                                                                                                                                                                                                           289831-9      000010
9000009                                                                                                                                                                                                                                                                                                                                                                                                                                                                                                                                                                                                                                                                                                               000011
