0REMESSANOTIFICAÇÃO ELETRONICA        99999999999999Bicbanco S/A                            Avenida Paulista , 1048 12º andar                           BELA VISTA                    SÃO PAULO                     01310100SPBicbanco S/A                                                                    25032010                                                                                                                                                                                                                                                                                                                                                                                                000001
1008421003482COBR_CAUC_COR  METALGRAFICA CEARENSE S/AMECESA         008715757000173REFRESCOS GUARARAPES LTDA-JABOATAO      BR 101 SUL-KM 15,5 - ATT. C. A PAGAR    JABOATAO DOS GU                         54325650PE21127000010791025000965301    16032010900BRADESCO S/A        1304201000000000012570775CC                                                                                                                                                                                                                                                                                                                                                                                           90743-1       000002
1008421003482COBR_CAUC_BIC  METALGRAFICA CEARENSE S/AMECESA         061186888009069SPAL IND. BRASILEIRA DE BEBIDAS S/      AV PRES HUMBERTO A. C. BRANCO,2911      JACAREI                                 12321150SP21128000010791026800969201    17032010007PAULISTA            2104201000000000013710823CC                                                                                                                                                                                                                                                                                                                                                                                           90743-2       000003
1022421002370COBR_CAUC_COR  FRIGOESTRELA S.A.                       008410451000109PRODUTORA DE CHARQUE SOROCABA LTDA      EST. DOM JOSE MELHADO CAMPOS390         SOROCABA                                18087315SP2112900001021016440030113301  20032010900BRADESCO S/A        0904201000000000012179046CC                                                                                                                                                                                                                                                                                                                                                                                           90743-3       000004
1007421024386COBR_CAUC_BIC  TRES EDITORIAL LTDA                     015102288032386CONSTRUTORA NORBERTO ODEBRECHT S/A      AV NACOES UNIDAS ,8501-32O AND          SAO PAULO                               05425070SP211300000109762115018606-A    22032010007PAULISTA            3103201000000000012860000CC                                                                                                                                                                                                                                                                                                                                                                                           90743-4       000005
1003441000362COBR_CAUC_BIC  PESQUEIRA MAGUARY LTDA                  033381286000151SUPERMERCADO ZONA SUL S/A               R. COM. VERGUEIRO DA CRUZ,266           RIO DE JANEIRO                          21021020RJ21131000010365615132748       19032010014RIO DE JANEIRO      2204201000000000011634200CC                                                                                                                                                                                                                                                                                                                                                                                           90743-5       000006
1016141008940COBR_CAUC_COR  COOPERATIVA RIO DO PEIXE                083310441002241COOPER CENTRAL OESTE CATARINENSE        RUA AURY LUIZ BODANESE SN               CHAPECO                                 89809849SC211320000102710348514505/01   11032010900BRADESCO S/A        0904201000000000012230227TD                                                                                                                                                                                                                                                                                                                                                                                           90743-6       000007
1016141008940COBR_CAUC_COR  COOPERATIVA RIO DO PEIXE                083310441002241COOPER CENTRAL OESTE CATARINENSE        RUA AURY LUIZ BODANESE SN               CHAPECO                                 89809849SC211320000202710682515077/01   16032010900BRADESCO S/A        2004201000000000018852240TD                                                                                                                                                                                                                                                                                                                                                                                           90743-7       000008
1007421016006COBR_CAUC_BIC  ONCOMED FARMACEUTICA LTDA               060552098000111SOC. BRAS.JAP.BEN.STA CRUZ-HOSP.ST      R. SANTA CRUZ, 398 IS ENT 0             SAO PAULO                               04122000SP2113300001097620692096971     22032010007PAULISTA            2105201000000000017701534CC                                                                                                                                                                                                                                                                                                                                                                                           90743-8       000009
1041421002694COBR_CAUC_COR  MEGA FIOS LTDA                          012272084000100COMPANHIA ENERGETICA DE ALAGOAS-CE      FERNANDES LIMA, 3349 3349               MACEIO                                  57057000AL2113400001000035143194 11     20032010900BRADESCO S/A        1904201000000000032680000CC                                                                                                                                                                                                                                                                                                                                                                                           90743-9       000010
9000009                                                                                                                                                                                                                                                                                                                                                                                                                                                                                                                                                                                                                                                                                                               000011
