0REMESSANOTIFICAÇÃO ELETRONICA        99999999999999Bicbanco S/A                            Avenida Brigadeiro Faria Lima           4.440     2º andar  Itaim Bibi                    São Paulo                     04538132SPBicbanco S/A                                                                    05022013                                                                                                                                                                                                                                                                                                                                                                                                000001
1007421061990COBR_CAUC_BIC  BRASIL MAQUINAS E EQUIP PESADOS S/A     005158344000147CHB LOCACOES SERV.E COMERCIO LTDA       RUA CHICO PONTES,1066                   SAO PAULO                               02067002SP3988400001016877511464/B      28122012007PAULISTA            3004201300000000022111766CC                                                                                                                                                                                                                                                                                                                                                                                           219585-1      000002
1007421061990COBR_CAUC_BIC  BRASIL MAQUINAS E EQUIP PESADOS S/A     005158344000147CHB LOCACOES SERV.E COMERCIO LTDA       RUA CHICO PONTES,1066                   SAO PAULO                               02067002SP3988400002016878151464/D      28122012007PAULISTA            3006201300000000022111767CC                                                                                                                                                                                                                                                                                                                                                                                           219585-2      000003
1007421061990COBR_CAUC_BIC  BRASIL MAQUINAS E EQUIP PESADOS S/A     005158344000147CHB LOCACOES SERV.E COMERCIO LTDA       RUA CHICO PONTES,1066                   SAO PAULO                               02067002SP3988400003016878231464/C      28122012007PAULISTA            3005201300000000022111766CC                                                                                                                                                                                                                                                                                                                                                                                           219585-3      000004
1007421061990COBR_CAUC_BIC  BRASIL MAQUINAS E EQUIP PESADOS S/A     005158344000147CHB LOCACOES SERV.E COMERCIO LTDA       RUA CHICO PONTES,1066                   SAO PAULO                               02067002SP3988400004016878311464/A      28122012007PAULISTA            3003201300000000022111766CC                                                                                                                                                                                                                                                                                                                                                                                           219585-4      000005
1007421061990COBR_CAUC_BIC  BRASIL MAQUINAS E EQUIP PESADOS S/A     053712535000909ESCAD RENTAL - LOCADORA DE EQUIP P      PROJETADA,108                           RIO DE JANEIRO                          25213187RJ39885000010168780752A         13072012014RIO DE JANEIRO      1304201300000000025500000CC                                                                                                                                                                                                                                                                                                                                                                                           219585-5      000006
1014420939021COBR_CAUC_BIC  EDITORA O DIA S/A                       043283811002365KALUNGA COM. E IND. GRAFICA             RUA DA MOOCA 766 1 ANDAR                RIO DE JANEIRO                          20011001RJ3988300001025090600674157     23012013014RIO DE JANEIRO      1502201300000000012000000CC                                                                                                                                                                                                                                                                                                                                                                                           219585-6      000007
1013421025466DIR_CREDIT     HOSPITAL JAAR ANDRADE LTDA              003658432000182GEAP FUND. DE SEGURIDADE SOCIAL         SHC-AO SUL EA 02/08,LTE 05,C.EMP TERRAÇOBRASILIA                                70660900DF3990500001                                                                                                                                          012106269           170420120000022204400008642   23012013000403PRESTACAO DE SERVICOS MEDICOS HOSPITALARES AOS BENEFICIARIOS DA GEAP                                                                                                                                                                            097397848000138219585-7      000008
1008421022819COBR_CAUC_COR  SM FOMENTO COMERCIAL LTDA               015784771000194CRISTAL REPRESENTACAO DE ACUCAR LT      R TAB JOSE C DANTAS 515                 S JOAO RIO DO P                         58910000PB39882000010001318023.570/B    22012013900BRADESCO S/A        1502201300000000014500000CC                                                                                                                                                                                                                                                                                                                                                                                           219585-8      000009
1044421008891DIR_CREDIT     VENNEZA LOCADORA DE VEICULOS LTDA       008348971000139PM DE MOSSORO                           AV ALBERTO MARANHAO1751                 MOSSORO                                 59610000RN3982900001                                                                                                                                          481018370           070420090000008975PREGÃO 020/218012013000404Prestação de serviço de locação de veículos, com e sem motoristas, paraapoio as unidades integrantes da Administração Pública Municipal direta eindireta, administradas pela Secretaria Municipal e Gestão de Pessoas.                          005399818000142219585-9      000010
1007421059112DIR_CREDIT     SODECOIN - SOC. DES. CONCRETO IND.      020520862000152CONSORCIO ARG CIVIL POR - PORTO SUDESTE AVENIDA RAJA GABAGLIA 1255_14 ANDAR     BELO HORIZONTE                          30380435BH3991700001                                                                                                                                          481061338           090220120000020876            16082012000404Execução de fundações especiais com estacas SCAC para as bases dos sta ker reclaimer do Pátio EL+6.                                                                                                                                             024398620000199219591-1      000011
1007421059112DIR_CREDIT     SODECOIN - SOC. DES. CONCRETO IND.      020520862000152CONSORCIO ARG CIVIL POR - PORTO SUDESTE AVENIDA RAJA GABAGLIA 1255_14 ANDAR     BELO HORIZONTE                          30380435BH3991800001                                                                                                                                          481063683           090220120000020876            17012013000404Execução de fundações especiais com estacas SCAC para as bases dos sta ker reclaimer do Pátio EL+6.                                                                                                                                             024398620000199219591-2      000012
1016421006424COBR_CAUC_COR  BOUTIN FERTILIZANTES LTDA               002355341000105SAFRAS INSUMOS AGRICOLAS                ESTRADA PARA CONTRY CLUB,0              DOIZ VIZINHOS                           85660000PR39943000010388366132237       28012013800UNIBANCO S/A        3005201300000000010143000CC                                                                                                                                                                                                                                                                                                                                                                                           219593-1      000013
1016421006424COBR_CAUC_COR  BOUTIN FERTILIZANTES LTDA               002355341000105SAFRAS INSUMOS AGRICOLAS                ESTRADA PARA CONTRY CLUB,0              DOIZ VIZINHOS                           85660000PR39943000020388367032238       28012013800UNIBANCO S/A        3005201300000000010384000CC                                                                                                                                                                                                                                                                                                                                                                                           219593-2      000014
1021420930887COBR_CAUC_COR  DEDINI S/A INDUSTRIAS DE BASE           015043391000107COOPERATIVA AGR PROD CANA CAMPO NO      RODOVIA BR364 KM 864 ZONA RURAL BR      CAMPO NOVO DE P                         78360000MT39942000010636603828637-3-3   16012013900BRADESCO S/A        1703201300000000011400000CC                                                                                                                                                                                                                                                                                                                                                                                           219593-3      000015
1020421001717COBR_CAUC_BIC  H-BUSTER DA AMAZONIA IND COM LTDA       013481309015629RN COMERCIO VAREJISTA S.A.              RUA HIBISCO,210                         CONTAGEM                                32150210MG399490000106288697022082.1/1  14122012019BELO HORIZONTE      1302201300000000055564000CC                                                                                                                                                                                                                                                                                                                                                                                           219593-4      000016
1047421000534COBR_CAUC_BIC  INDUSTRIA QUIMICA KIMBERLIT LTDA        002208767000721FERTILIZANTES ALIANCA LTDA              PARAISO AS MARGENS DA BR153KM 1290 SN   APARECIDA DE GO                         74984300GO399450000101589446118232      28012013018GOIANIA             3004201300000000023395404CC                                                                                                                                                                                                                                                                                                                                                                                           219593-5      000017
1047421000534COBR_CAUC_COR  INDUSTRIA QUIMICA KIMBERLIT LTDA        091787176000190COXILHA INDDE FERTILIZANTES E CORR      JULIO DE CASTILHOS 890                  TAPEJARA                                99950000RS399460000101589454118253      28012013900BRADESCO S/A        3006201300000000020136000CC                                                                                                                                                                                                                                                                                                                                                                                           219593-6      000018
1038421020080COBR_CAUC_COR  JM IND E COM DE ARTEFATOS DE METAIS     006931598000119NOVA INJECAO LTDA - ME                  MARIA JOSE RODRIGUES,1365               C.LIMPO PAULIST                         13236000SP399570000100003066101701      28012013800UNIBANCO S/A        2304201300000000004427800CC                                                                                                                                                                                                                                                                                                                                                                                           219593-7      000019
1038421020080COBR_CAUC_COR  JM IND E COM DE ARTEFATOS DE METAIS     006931598000119NOVA INJECAO LTDA - ME                  MARIA JOSE RODRIGUES,1365               C.LIMPO PAULIST                         13236000SP399570000200003074102301      28012013800UNIBANCO S/A        2504201300000000005386265CC                                                                                                                                                                                                                                                                                                                                                                                           219593-8      000020
1038421020080COBR_CAUC_COR  JM IND E COM DE ARTEFATOS DE METAIS     006931598000119NOVA INJECAO LTDA - ME                  MARIA JOSE RODRIGUES,1365               C.LIMPO PAULIST                         13236000SP399570000300003082102401      28012013800UNIBANCO S/A        2504201300000000005200000CC                                                                                                                                                                                                                                                                                                                                                                                           219593-9      000021
1038421020080COBR_CAUC_COR  JM IND E COM DE ARTEFATOS DE METAIS     006931598000119NOVA INJECAO LTDA - ME                  MARIA JOSE RODRIGUES,1365               C.LIMPO PAULIST                         13236000SP39957000040997171595901       27122012800UNIBANCO S/A        1803201300000000003052400CC                                                                                                                                                                                                                                                                                                                                                                                           219593-10     000022
1038421020080COBR_CAUC_COR  JM IND E COM DE ARTEFATOS DE METAIS     006931598000119NOVA INJECAO LTDA - ME                  MARIA JOSE RODRIGUES,1365               C.LIMPO PAULIST                         13236000SP39957000050999184898101       16012013800UNIBANCO S/A        1004201300000000006500000CC                                                                                                                                                                                                                                                                                                                                                                                           219593-11     000023
1038421020080COBR_CAUC_COR  JM IND E COM DE ARTEFATOS DE METAIS     006931598000119NOVA INJECAO LTDA - ME                  MARIA JOSE RODRIGUES,1365               C.LIMPO PAULIST                         13236000SP39957000060999185698201       16012013800UNIBANCO S/A        1004201300000000003250000CC                                                                                                                                                                                                                                                                                                                                                                                           219593-12     000024
1038421020080COBR_CAUC_COR  JM IND E COM DE ARTEFATOS DE METAIS     006931598000119NOVA INJECAO LTDA - ME                  MARIA JOSE RODRIGUES,1365               C.LIMPO PAULIST                         13236000SP39957000070999186497601       16012013800UNIBANCO S/A        0704201300000000003606105CC                                                                                                                                                                                                                                                                                                                                                                                           219593-13     000025
1038421020080COBR_CAUC_COR  JM IND E COM DE ARTEFATOS DE METAIS     006931598000119NOVA INJECAO LTDA - ME                  MARIA JOSE RODRIGUES,1365               C.LIMPO PAULIST                         13236000SP39957000080999187296501       16012013800UNIBANCO S/A        0204201300000000004883840CC                                                                                                                                                                                                                                                                                                                                                                                           219593-14     000026
1038421020080COBR_CAUC_COR  JM IND E COM DE ARTEFATOS DE METAIS     006931598000119NOVA INJECAO LTDA - ME                  MARIA JOSE RODRIGUES,1365               C.LIMPO PAULIST                         13236000SP399570000909991881567101      16012013800UNIBANCO S/A        0904201300000000003950000CC                                                                                                                                                                                                                                                                                                                                                                                           219593-15     000027
1046421007255COBR_CAUC_COR  MAESTRO DO BRASIL IND METALUR LTDA      019166917000199EMBRASIL EMPRESA BRASILEIRA DISTRI      RODOVIA BR-040,KM-517,S/N               RIBEIRAO DAS NE                         33823310MG39944000010175472026553-1/1   28012013800UNIBANCO S/A        0204201300000000012216364CC                                                                                                                                                                                                                                                                                                                                                                                           219593-16     000028
1007421063594COBR_CAUC_BIC  MELHORAMENTOS FLORESTAL LTDA            060856077000947PAPIRUS INDUSTRIA DE PAPEL S/A          VIA ANHANGUERA KM 130 SITIO DA BARRA    LIMEIRA                                 13480970SP399470000101696369000020821   22012013021CAMPINAS            0803201300000000040265624CC                                                                                                                                                                                                                                                                                                                                                                                           219593-17     000029
1007421063594COBR_CAUC_COR  MELHORAMENTOS FLORESTAL LTDA            080228885000543IBEMA COMPANHIA BRASILEIRA DE PAPE      LOC. FAXINAL DA BOA VISTA,SN            TURVO                                   85150000PR399480000101696067000020779   21012013900BRADESCO S/A        0703201300000000014613450CC                                                                                                                                                                                                                                                                                                                                                                                           219593-18     000030
1006421012658COBR_CAUC_BIC  MERCURIUS ENGENHARIA S/A.               011647008000160NOVA EOLICA LAGOA SECA S/A              AV WASINGTON SOARES 55 SL 308           ACARAU                                  60811341CE399560000109352208480         25102012006BEZERRA             2703201300000000093964288CC                                                                                                                                                                                                                                                                                                                                                                                           219593-19     000031
1014421008439DIR_CREDIT     TV OMEGA LTDA                           030902803000100IGREJA INTERNACIONAL DA GRACA DE DEUS   ESR DOS BANDEIRANTES, 1000              TAQUARA                                 22710112RJ3995100001                                                                                                                                          011758188           280920090000010207            15022012051902CONTRATO DE CESSAO ONEROSA DE ESPAÇO TELEVISIVO E PRESTAÇÃO DE SERVIÇOS CONEXOS                                                                                                                                                                 002131538000322219593-20     000032
1014421008439DIR_CREDIT     TV OMEGA LTDA                           030902803000100IGREJA INTERNACIONAL DA GRACA DE DEUS   EST DOS BANDEIRANTES, 1000              TAQUARA                                 22710112RJ3995200001                                                                                                                                          011758188           010420100000012859            15022012051902Cessão onerosa de espaço televisivo,ref. programação a ser veiculada e exibida por todas as emissoras da rede tv!, de segunda a sexta-feira,c/duração de 3h e 30 min,c/início às 5h e término às 8h e 30min.                                    002131538000322219593-21     000033
1046421001443COBR_CAUC_COR  COSTAO DO SANTINHO TUR E LAZER LTDA     010760260000119CVC BRASIL OPERADORA E AGENCIA DE       RUA GERTRUDES DE LI,53-4OA - SL 43      SANTO ANDRE                             09020000SP399580000100009451290120132   29012013900BRADESCO S/A        1802201300000000017174895CC                                                                                                                                                                                                                                                                                                                                                                                           219603-1      000034
1044421014794DIR_CREDIT     DROGUISTAS POTIGUARES REUNIDAS LTDA     007224991000135NAZARIA DISTRIBUIDORA DE PRODUTOS       AV BR 116, 3569 - KM 13 - MESSEJANA     NATAL                                   60842395RN3997500001                                                                                                                                          012069153           010620110000018862S/N         29112012000403LOCAÇÃO DE PRÉDIO COMERCIAL LOCALIZADO NA RUA DOS CAICÓS, 1620 - BAIRRODE ALECRIM - NATAL - RIO GRANDE DO NORTE.                                                                                                                                008401564000148219603-2      000035
1044421014794DIR_CREDIT     DROGUISTAS POTIGUARES REUNIDAS LTDA     011828725000199EMPREENDIMENTOS GLOBO LTDA              RUA DOS CAICOS, 1614                    NATAL                                   59037700RN3997600001                                                                                                                                          012069153           010620110000018863S/N         29112012000403alugueis de imoveis.                                                                                                                                                                                                                            008401564000148219603-3      000036
1037421008325DIR_CREDIT     NEWPOWER SISTEMAS DE ENERGIA S/A        042365296000194KION SOUTH AMERICA FABR EQUIPAMENTOS    RUA SILVA VALE, 765 BAIRRO DE CAVALCANTERIO DE JANEIRO                          22000000RJ3996400001                                                                                                                                          481009166           19032007000002176019032007    29012013000404Fornecimento, mediante pedido escrito da Revendedora à Fabricante, debaterias tracionárias para uso em empilhadeiras elétricas, do tipo chumbo-ácidacom placas positivas tubulares, com padrão de qualidade das atuais baterias.                003171752000103219603-4      000037
1007421061290COBR_CAUC_BIC  ROYAL QUIMICA LTDA                      056558703000194BENTOMAR IND. E COM. DE MINERIOS L      R: SR. EDGAR MAGALHAES DE NORONHA, 563  SAO PAULO                               03480000SP399590000101699368005350      23012013007PAULISTA            2403201300000000012895250CC                                                                                                                                                                                                                                                                                                                                                                                           219603-5      000038
1038421021036COBR_CAUC_BIC  ADELCO SISTEMAS DE ENERGIA LTDA         051594950000122NM ENGENHARIA E CONSTRUCOES LTDA        AV. VALENTIM GENTIL,498                 SAO PAULO                               05506070SP4001400001099661345689-D      17122012007PAULISTA            0403201300000000000752744CC                                                                                                                                                                                                                                                                                                                                                                                           220041-1      000039
1038421021036COBR_CAUC_BIC  ADELCO SISTEMAS DE ENERGIA LTDA         051594950000122NM ENGENHARIA E CONSTRUCOES LTDA        AV. VALENTIM GENTIL,498                 SAO PAULO                               05506070SP4001400002099661775689-C      17122012007PAULISTA            1502201300000000004892861CC                                                                                                                                                                                                                                                                                                                                                                                           220041-2      000040
1050421000089COBR_CAUC_COR  ATIVO ALIMENTOS EXP E IMP EIRELI        027497684000135FRISA FRIGORIFICO RIO DOCE SA           R FIORAVANTE ROSSI 4000                 COLATINA                                29704700ES399900000100422206174723/1    29012013800UNIBANCO S/A        2602201300000000010980000CC                                                                                                                                                                                                                                                                                                                                                                                           220041-3      000041
1015421018785COBR_CAUC_BIC  CALIENDO METALURGIA GRAVACOES LTDA      059105999000348WHIRLPOOL S.A URC                       AV DAS NACOES UNIDAS,12995              SAO PAULO                               04578000SP39989000010100197914230-01    29012013007PAULISTA            0104201300000000014690699CC                                                                                                                                                                                                                                                                                                                                                                                           220041-4      000042
1021420930887COBR_CAUC_COR  DEDINI S/A INDUSTRIAS DE BASE           004165520000296AGROPECUARIA NOVO MILENIO LTDA          ROD TRANSEFONICA KM 6 ANEXO 01 S N VILA MIRASSOL D´OEST                         78280000MT399860000106367654187951-8-8  30012013900BRADESCO S/A        2003201300000000048500000CC                                                                                                                                                                                                                                                                                                                                                                                           220041-5      000043
1014421022121DIR_CREDIT     EXPRESSO ANDRESSA LOGISTICA LTDA        017227422000105GERDAU AçOMINAS                         RODOVIA MG 443 - KM 7                   MINAS GERAIS                            36420000MG4000000001                                                                                                                                          012105510           020920120000023261LE 20120015 30012013000403Prestação de serviços de transporte rodoviário de produtos siderúrgicosfabricados e comercializados pela GERDAU AÇOMINAS, através de veículos própriosou de terceiros.                                                                          002766015000514220041-6      000044
1028421001518COBR_CAUC_COR  GAIA AGRIBUSINESS AGRICOLA LTDA         000037457080082SILVIO ARANTES DE OLIVEIRA              AV MINAS GERAIS,1380                    GOIATUBA                                75600000GO39991000010284577133934       30012013900BRADESCO S/A        2007201300000000013890000CC                                                                                                                                                                                                                                                                                                                                                                                           220041-7      000045
1006420933059COBR_CAUC_BIC  IMARF BENEFICIAMENTO DE GRANITOS LT     000475251000122PAULO OCTAVIO INVESTIMENTOS IMOBIL      SCN QUADRA 01,125                       BRASILIA                                70711900DF3998700001093676982949        30012013009BRASILIA            2702201300000000010715382CC                                                                                                                                                                                                                                                                                                                                                                                           220041-8      000046
1019421010259COBR_CAUC_COR  L & S INTERBANK FOMENTO LTDA            019368927000107EXPRESSO NEPOMUCENO S/A                 RALCIDIS THOMAS DA SILVA 15             LAVRAS                                  37200000MG399920000106666457703029895   30012013900BRADESCO S/A        1502201300000000012224720CC                                                                                                                                                                                                                                                                                                                                                                                           220041-9      000047
1019421014068COBR_CAUC_COR  RIO BRANCO ALIMENTOS S/A                001928075002062DMA DISTRIBUIDORA S/A                   ROD BR 040 KM 531 180                   BELO HORIZONTE                          30855500MG3998800001010520430158405101  29012013900BRADESCO S/A        2802201300000000014806729CC                                                                                                                                                                                                                                                                                                                                                                                           220041-10     000048
1007421061290COBR_CAUC_BIC  ROYAL QUIMICA LTDA                      056558703000194BENTOMAR IND. E COM. DE MINERIOS L      R: SR. EDGAR MAGALHAES DE NORONHA, 563  SAO PAULO                               03480000SP399940000101706437005449      29012013007PAULISTA            3003201300000000012573855CC                                                                                                                                                                                                                                                                                                                                                                                           220041-11     000049
1009420930764COBR_CAUC_BIC  S/A CORREIO BRAZILIENSE                 073312076000126SINDICATO I EXTRATIVAS O M P D P P      R BERNARDO GUIMARAES 63 FUNCIONARIOS    BELO HORIZONTE                          30140080MG399850000101394538453512-1    29012013019BELO HORIZONTE      2802201300000000011904782CC                                                                                                                                                                                                                                                                                                                                                                                           220041-12     000050
1016421019909COBR_CAUC_COR  TROMBINI EMBALAGENS S/A                 088933114001611CCGL-COOPERATIVA CENTRAL GAUCHA LT      RS 342 KM 149 S N ZONA RURAL            CRUZ ALTA                               98005970RS39993000010388556717885-1     28012013900BRADESCO S/A        2502201300000000014673477CC                                                                                                                                                                                                                                                                                                                                                                                           220041-13     000051
1047421002243COBR_CAUC_BIC  ARGE LTDA                               013481309019535RN COMERCIO VAREJISTA S/A               RUA UM, 60 GALPAO ANEXO AV G            CONTAGEM                                32113500MG4001700001015952680029903     15012013019BELO HORIZONTE      0705201300000000012600154CC                                                                                                                                                                                                                                                                                                                                                                                           220048-1      000052
1024140518611COBR_CAUC_BIC  BIMETAL INDUSTRIA METALURGICA LTDA      059225698000196ZOPONE ENGENHARIA E COMERCIO LTDA       AV RODRIGUES ALVES, 34-53               BAURU                                   17030000SP400160000102006108003/2012    22012013048AGENCIA BAURU       1802201300000000026200000TD                                                                                                                                                                                                                                                                                                                                                                                           220048-2      000053
1046421006399DIR_CREDIT     CARBONIFERA CRICIUMA S/A                002474103000208TRACTEBEL ENERGIA S/A                   AVENIDA PAULO SANTOS MELLO, S/NR        CAPIVARI DE BAIXO                       88745000SC4003300001                                                                                                                                          481008185           011220100000020197DGT.NAJL.05.31012013000404compra de carvão mineral tipo CE 4500.                                                                                                                                                                                                          083647909000163220048-3      000054
1021420930887COBR_CAUC_BIC  DEDINI S/A INDUSTRIAS DE BASE           075717355001177USINA DE ACUCAR SANTA TEREZINHA LT      AV MARCELO MESSIAS BUSIQUIA 847 PQ INDUSMARINGA                                 87065006PR400150000106368502188771-7-7  29012013016CURITIBA            2802201300000000015758942CC                                                                                                                                                                                                                                                                                                                                                                                           220048-4      000055
1021420930887COBR_CAUC_BIC  DEDINI S/A INDUSTRIAS DE BASE           075717355001177USINA DE ACUCAR SANTA TEREZINHA LT      AV MARCELO MESSIAS BUSIQUIA 847 PQ INDUSMARINGA                                 87065006PR400150000206368529188354-7-7  29012013016CURITIBA            2802201300000000013708746CC                                                                                                                                                                                                                                                                                                                                                                                           220048-5      000056
1021420930887COBR_CAUC_BIC  DEDINI S/A INDUSTRIAS DE BASE           075717355001177USINA DE ACUCAR SANTA TEREZINHA LT      AV MARCELO MESSIAS BUSIQUIA 847 PQ INDUSMARINGA                                 87065006PR400150000306368561188352-7-7  29012013016CURITIBA            2802201300000000025367451CC                                                                                                                                                                                                                                                                                                                                                                                           220048-6      000057
1021420930887COBR_CAUC_BIC  DEDINI S/A INDUSTRIAS DE BASE           075717355001177USINA DE ACUCAR SANTA TEREZINHA LT      AV MARCELO MESSIAS BUSIQUIA 847 PQ INDUSMARINGA                                 87065006PR400150000406368588188612-7-7  29012013016CURITIBA            2802201300000000020565725CC                                                                                                                                                                                                                                                                                                                                                                                           220048-7      000058
1021420930887COBR_CAUC_BIC  DEDINI S/A INDUSTRIAS DE BASE           075717355001177USINA DE ACUCAR SANTA TEREZINHA LT      AV MARCELO MESSIAS BUSIQUIA 847 PQ INDUSMARINGA                                 87065006PR400150000506368626189295-7-7  29012013016CURITIBA            2802201300000000016193952CC                                                                                                                                                                                                                                                                                                                                                                                           220048-8      000059
1021420930887COBR_CAUC_BIC  DEDINI S/A INDUSTRIAS DE BASE           075717355001177USINA DE ACUCAR SANTA TEREZINHA LT      AV MARCELO MESSIAS BUSIQUIA 847 PQ INDUSMARINGA                                 87065006PR400150000606368634188231-7-7  29012013016CURITIBA            2802201300000000013653133CC                                                                                                                                                                                                                                                                                                                                                                                           220048-9      000060
1008421002710DIR_CREDIT     OCS MIN E EMPREENDIMENTOS LTDA          034230979005418SUPERMIX CONCRETO S/A                   R PROF. JOSE VIEIRA DE MENDONçA, 1121   BELO HORIZONTE                          31310260MG4002200001                                                                                                                                          481028191           100120070000012817            31012013000404fornecimento de material produzido pela OCS-Mineração e EmpreendimentosLtda,a saber Brita 19mm,Brita 9,5mm e areia grossa de Brita,todos fornecidos e oferecidos em forma de tonelada.                                                          007323439000102220048-10     000061
1016421021083COBR_CAUC_COR  PLUMA AGRO AVICOLA LTDA                 083310441004619COOPERATIVA CENTRAL AURORA ALIMENT      SC 467 KM 13,0-VILA CERES               ABELARDO LUZ                            89830000SC40034000010387534157591       11012013900BRADESCO S/A        2702201300000000001993640CC                                                                                                                                                                                                                                                                                                                                                                                           220048-11     000062
1016421021083COBR_CAUC_BIC  PLUMA AGRO AVICOLA LTDA                 085070068000280GONCALVES E TORTOLLA                    RUA TAMOIO,0                            INDIANOPOLIS                            87210000PR40037000010388005157795       16012013016CURITIBA            1302201300000000009452040CC                                                                                                                                                                                                                                                                                                                                                                                           220048-12     000063
1016421021083COBR_CAUC_BIC  PLUMA AGRO AVICOLA LTDA                 085070068000280GONCALVES E TORTOLLA                    RUA TAMOIO,0                            INDIANOPOLIS                            87210000PR40037000020388017457882       17012013016CURITIBA            1402201300000000009452040CC                                                                                                                                                                                                                                                                                                                                                                                           220048-13     000064
1016421021083COBR_CAUC_BIC  PLUMA AGRO AVICOLA LTDA                 075729038000441ABATEDOURO COROAVES LTDA                ROD PR 467 KM 4                         PRES. CASTELO B                         87180000PR40036000010387670357749       15012013016CURITIBA            1202201300000000005104080CC                                                                                                                                                                                                                                                                                                                                                                                           220048-14     000065
1016421021083COBR_CAUC_COR  PLUMA AGRO AVICOLA LTDA                 077863223006229C-VALE COOP. AGROINDUSTRIAL             LOTES RURAIS N 66 E 68 LINHA ST FE      PALOTINA                                85950000PR40035000010388091357993       19012013900BRADESCO S/A        1902201300000000004275000CC                                                                                                                                                                                                                                                                                                                                                                                           220048-15     000066
1038421019619DIR_CREDIT     TOME ENGENHARIA S/A                     061575775000856TECHINT ENGª E CONSTRUçãO S/A           RUA PONTA DO POçO, S/Nº - PONTAL DO PR  PARANá                                  83255000PR4002700001                                                                                                                                          012130693           01102012000002343001140912    31012013000403Locação de equipamentos descritos no Adendo, que faz parte integrantedo Contrato.                                                                                                                                                               044384832000124220048-16     000067
1014421008439DIR_CREDIT     TV OMEGA LTDA                           030902803000100IGREJA INTERNACIONAL DA GRACA DE DEUS   ESR DOS BANDEIRANTES, 1000              TAQUARA                                 22710112RJ4002300001                                                                                                                                          012130140           280920090000010207            31012013000403CONTRATO DE CESSAO ONEROSA DE ESPAÇO TELEVISIVO E PRESTAÇÃO DE SERVIÇOS CONEXOS                                                                                                                                                                 002131538000322220048-17     000068
1014421008439DIR_CREDIT     TV OMEGA LTDA                           030902803000100IGREJA INTERNACIONAL DA GRACA DE DEUS   EST DOS BANDEIRANTES, 1000              TAQUARA                                 22710112RJ4002400001                                                                                                                                          012130140           010420100000012859            31012013000403Cessão onerosa de espaço televisivo,ref. programação a ser veiculada e exibida por todas as emissoras da rede tv!, de segunda a sexta-feira,c/duração de 3h e 30 min,c/início às 5h e término às 8h e 30min.                                    002131538000322220048-18     000069
1007421032516COBR_CAUC_BIC  NITRIFLEX SP IND E COM DE BORRACHAS     060860681000432SABO IND.COM.DE AUTOPECAS LTDA.         RUA MATTHEO FORTE, 216                  SAO PAULO                               05038160SP400390000101710680001359701   31012013007PAULISTA            2802201300000000012081914CC                                                                                                                                                                                                                                                                                                                                                                                           220291-1      000070
1019421004658COBR_CAUC_COR  S/A ESTADO DE MINAS                     000721183000134CONFEDERACAO NAC DO TRANSPORTE          SASQD1 0 BLOCO J EDIFICIO CNT 13 A      BRASILIA                                70070944DF4003800001012121051605869-1   31012013900BRADESCO S/A        1502201300000000025000000CC                                                                                                                                                                                                                                                                                                                                                                                           220291-2      000071
9000070                                                                                                                                                                                                                                                                                                                                                                                                                                                                                                                                                                                                                                                                                                               000072
