0REMESSANOTIFICAÇÃO ELETRONICA        99999999999999Bicbanco S/A                            Avenida Paulista , 1048 12º andar                           BELA VISTA                    SÃO PAULO                     01310100SPBicbanco S/A                                                                    26032010                                                                                                                                                                                                                                                                                                                                                                                                000001
1036421014416COBR_CAUC_COR  RONTAN ELETRO METALURGICA LTDA          016701716000156FIAT AUTOMOVEIS S.A. 65401              RUA FERNAO DIASBR381 KM429              BETIM                                   32560460MG211840000105688657038268-1    19032010900BRADESCO S/A        1904201000000000136188000CC                                                                                                                                                                                                                                                                                                                                                                                           90998-1       000002
1024420934410COBR_CAUC_BIC  INTERCOOP INT SUIN MED NORTE MT LTD     010578244000100GP INDUSTRIA SERVICOS E COMERCIO D      RUA MANOEL DUARTE ,167                  SAO GONCALO                             24430500RJ21185000010178914136301       22032010014RIO DE JANEIRO      1904201000000000012643853CC                                                                                                                                                                                                                                                                                                                                                                                           90998-2       000003
1007421024386COBR_CAUC_BIC  TRES EDITORIAL LTDA                     042150391003510BRASKEM S/A                             R. NOVO HORIZONTE,78                    SAO PAULO                               01244020SP211860000109766030018607-A    22032010007PAULISTA            3103201000000000030000000CC                                                                                                                                                                                                                                                                                                                                                                                           90998-3       000004
1007421035337COBR_CAUC_COR  COML IMP E EXP LA RIOJA LTDA            007399636002060ALIANCA ATAC SUP SA PTA 160002          R SANTIAGO BALLESTEROS, 680             CONTAGEM                                32010050MG21187000010020846825154       23032010900BRADESCO S/A        2405201000000000017050000CC                                                                                                                                                                                                                                                                                                                                                                                           90998-4       000005
1042141000240COBR_CAUC_BIC  J W ENG E MANUTENCAO INDUSTRIAL LTD     004487870000198COBRACO SERV E MONT LTDA                ROD BR 135 KM 17                        SAO LUIS                                65000000MA2118800001011745011           23032010042SAO LUIS            2205201000000000028900000TD                                                                                                                                                                                                                                                                                                                                                                                           90998-5       000006
9000005                                                                                                                                                                                                                                                                                                                                                                                                                                                                                                                                                                                                                                                                                                               000007
