0REMESSANOTIFICAÇÃO ELETRONICA        99999999999999Bicbanco S/A                            Avenida Brigadeiro Faria Lima           4.440     2º andar  Itaim Bibi                    São Paulo                     04538132SPBicbanco S/A                                                                    06032014                                                                                                                                                                                                                                                                                                                                                                                                000001
1036421016893COBR_CAUC_COR  TECAL ALUMINIO DA AMAZONIA LTDA         002672357000141FCC DO BRASIL LTDA                      RUA MOGNO                               MANAUS                                  69075170AM4657100001059956650000057363  24022014900BRADESCO S/A        1003201400000000020077850CC                                                                                                                                                                                                                                                                                                                                                                                           287902-1      000002
1018421034869COBR_CAUC_COR  L ANNO IND E COM DE LATICINIOS LTDA     009040746000284DFB DIST D PROD FRIOS ALIMENTICIOS      RUA MARGINAL, 3 QUADRA J                PETROLINA                               56308422PE4657200001036176310010421     25022014900BRADESCO S/A        2503201400000000010406333CC                                                                                                                                                                                                                                                                                                                                                                                           287902-2      000003
1015421022340COBR_CAUC_BIC  BORRACHAS VIPAL SA                      050937564000123CORREIAS MERCURIO S/A-INDUSTRIA CO      R. JOSE ESPINA, 10CAIXA POSTAL 282      JUNDIAI                                 13210780SP465830000101231249047159001   25022014007PAULISTA            0804201400000000016696476CC                                                                                                                                                                                                                                                                                                                                                                                           288129-1      000004
1015421022340COBR_CAUC_COR  BORRACHAS VIPAL SA                      081374845000149F. M. PNEUS LTDA                        AV. MARAVILHA, 833 - CX                 MARAVILHA                               89874000SC465840000101231303047161001   25022014800UNIBANCO S/A        2703201400000000010287544CC                                                                                                                                                                                                                                                                                                                                                                                           288129-2      000005
1015421022340COBR_CAUC_COR  BORRACHAS VIPAL SA                      081374845000149F. M. PNEUS LTDA                        AV. MARAVILHA, 833 - CX                 MARAVILHA                               89874000SC465840000201231311047161002   25022014800UNIBANCO S/A        2604201400000000010284458CC                                                                                                                                                                                                                                                                                                                                                                                           288129-3      000006
1015421022340COBR_CAUC_COR  BORRACHAS VIPAL SA                      081374845000149F. M. PNEUS LTDA                        AV. MARAVILHA, 833 - CX                 MARAVILHA                               89874000SC465840000301231320047161003   25022014800UNIBANCO S/A        2605201400000000010284459CC                                                                                                                                                                                                                                                                                                                                                                                           288129-4      000007
1007421072259COBR_CAUC_COR  BOMBRIL S/A                             047079496000102MARANHAO DISTRIBUICAO S.A.              R ANUAR PACHA 400                       CATANDUVA                               15800670SP4658500001027005640055622001  25022014900BRADESCO S/A        3103201400000000010174395CC                                                                                                                                                                                                                                                                                                                                                                                           288129-5      000008
1036421016893COBR_CAUC_COR  TECAL ALUMINIO DA AMAZONIA LTDA         004012043000148SHOWA DO BRASIL LTDA                    RUA RIO QUIXITO                         MANAUS                                  69075830AM4658600001059960500000057087  14022014900BRADESCO S/A        1603201400000000015293036CC                                                                                                                                                                                                                                                                                                                                                                                           288129-6      000009
1046421007085COBR_CAUC_BIC  H.F.SISTEMAS DE FREIO LTDA              025630302001146REAL MOTO PECAS LTDA                    AV VASCONCELOS COSTA, N 1431            UBERLANDIA                              38400452MG465870000102309291019888      27022014028UBERLANDIA          1204201400000000010736722CC                                                                                                                                                                                                                                                                                                                                                                                           288129-7      000010
1016421024090COBR_CAUC_COR  FRESNOMAQ IND DE MAQUINAS S/A           039800339001260COMERCIAL SUPERAUDIO LTDA               ROD ES 010, S NKM 08GALPAO 01           SERRA                                   29164231ES4658800001043947450091749     26022014800UNIBANCO S/A        1806201400000000010394960CC                                                                                                                                                                                                                                                                                                                                                                                           288244-1      000011
1018141026092COBR_CAUC_COR  MEDIO NORTE CONST E TERRAPLEN LTDA      001500203000100ACEFER COMERCIO DE SUCATAS LTDA         ROD BR 153,0                            URUACU                                  76400000GO46589000010361971427          28022014900BRADESCO S/A        2804201400000000010780000TD                                                                                                                                                                                                                                                                                                                                                                                           288244-2      000012
9000011                                                                                                                                                                                                                                                                                                                                                                                                                                                                                                                                                                                                                                                                                                               000013
