0REMESSANOTIFICAÇÃO ELETRONICA        99999999999999Bicbanco S/A                            Avenida Paulista                        1048      12º andar BELA VISTA                    SÃO PAULO                     01310100SPBicbanco S/A                                                                    13092011                                                                                                                                                                                                                                                                                                                                                                                                000001
1031421007893COBR_CAUC_COR  DIPLOMATA S/AINDL. E COMERCIAL          005907238000119ICEPORTTERM FRIGORÍFICO DE NAVEG        RUA ANIBAL GAYA 707                     NAVEGANTES                              88375000SC3003000001049220670126575-01  06092011800UNIBANCO S/A        0610201100000000013335894CC                                                                                                                                                                                                                                                                                                                                                                                           144338-1      000002
1031421007893COBR_CAUC_COR  DIPLOMATA S/AINDL. E COMERCIAL          006696990000120SHOW DISTRIBUIDORA PRODUTOS ALIMEN      AV EUDES SCHERRER DE SOUZA 2001         SERRA                                   29162173ES3003100001049220830005629-01  08092011800UNIBANCO S/A        1410201100000000013140000CC                                                                                                                                                                                                                                                                                                                                                                                           144338-2      000003
1032421000854COBR_CAUC_BIC  METALURGICA IANY IND E COM LTDA         076639285000762FERRAGENS NEGRAO COMERCIAL LTDA         RUA PROF. ALGACYR M. MADER, 2800        CURITIBA - PR                           81310020PR30032000010979236916140-1/1   08092011016CURITIBA            2310201100000000012306900CC                                                                                                                                                                                                                                                                                                                                                                                           144338-3      000004
9000003                                                                                                                                                                                                                                                                                                                                                                                                                                                                                                                                                                                                                                                                                                               000005
