0REMESSANOTIFICAÇÃO ELETRONICA        99999999999999Bicbanco S/A                            Avenida Paulista                        1048      12º andar BELA VISTA                    SÃO PAULO                     01310100SPBicbanco S/A                                                                    23092011                                                                                                                                                                                                                                                                                                                                                                                                000001
1021420930887COBR_CAUC_COR  DEDINI S/A INDUSTRIAS DE BASE           044330975000153USINA COLOMBO S A - ACUCAR E ALCOO      RUA BELA VISTA MOREIRA, S/Nº BR         ARIRANHA                                15960000SP307720000106190363157757-3-3  24082011900BRADESCO S/A        2010201100000000085460000CC                                                                                                                                                                                                                                                                                                                                                                                           145748-1      000002
1021420930887COBR_CAUC_COR  DEDINI S/A INDUSTRIAS DE BASE           044330975000153USINA COLOMBO S A - ACUCAR E ALCOO      RUA BELA VISTA MOREIRA, S/Nº BR         ARIRANHA                                15960000SP307720000206190371157757-4-4  24082011900BRADESCO S/A        2111201100000000084000000CC                                                                                                                                                                                                                                                                                                                                                                                           145748-2      000003
1016421019267COBR_CAUC_COR  COBRAZEM AGROINDUSTRIAL LTDA            084874726000496KAEFER AGRO INDUSTRIAL                  RUA MATE LARANJEIRAS,0                  TOLEDO                                  85900000PR3077300001031815350000649-01  15092011800UNIBANCO S/A        1810201100000000027900000CC                                                                                                                                                                                                                                                                                                                                                                                           145748-3      000004
1016421019267COBR_CAUC_COR  COBRAZEM AGROINDUSTRIAL LTDA            084874726000496KAEFER AGRO INDUSTRIAL                  RUA MATE LARANJEIRAS,0                  TOLEDO                                  85900000PR3077300002031815430000650-01  15092011800UNIBANCO S/A        1810201100000000027900000CC                                                                                                                                                                                                                                                                                                                                                                                           145748-4      000005
1007421031242COBR_CAUC_COR  GP GUARDA PATRIMONIAL DE S.P. LTDA      002543945000185ULTRAFARMA SAUDE LTDA EPP               AV JABAQUARA1546                        SAO PAULO                               04046300SP30801000010001341171122       08092011900BRADESCO S/A        0310201100000000002047678CC                                                                                                                                                                                                                                                                                                                                                                                           145748-5      000006
1007421031242COBR_CAUC_COR  GP GUARDA PATRIMONIAL DE S.P. LTDA      002543945000185ULTRAFARMA SAUDE LTDA EPP               AV JABAQUARA1546                        SAO PAULO                               04046300SP30801000020001342071123       08092011900BRADESCO S/A        0310201100000000002941947CC                                                                                                                                                                                                                                                                                                                                                                                           145748-6      000007
1007421031242COBR_CAUC_COR  GP GUARDA PATRIMONIAL DE S.P. LTDA      002543945000185ULTRAFARMA SAUDE LTDA EPP               AV JABAQUARA1546                        SAO PAULO                               04046300SP30801000030001343871124       08092011900BRADESCO S/A        0310201100000000002755365CC                                                                                                                                                                                                                                                                                                                                                                                           145748-7      000008
1007421031242COBR_CAUC_COR  GP GUARDA PATRIMONIAL DE S.P. LTDA      002543945000185ULTRAFARMA SAUDE LTDA EPP               AV JABAQUARA1546                        SAO PAULO                               04046300SP30801000040001344671125       08092011900BRADESCO S/A        0310201100000000002970123CC                                                                                                                                                                                                                                                                                                                                                                                           145748-8      000009
1007421031242COBR_CAUC_COR  GP GUARDA PATRIMONIAL DE S.P. LTDA      002543945000185ULTRAFARMA SAUDE LTDA EPP               AV JABAQUARA1546                        SAO PAULO                               04046300SP30801000050001346271127       08092011900BRADESCO S/A        0310201100000000003684004CC                                                                                                                                                                                                                                                                                                                                                                                           145748-9      000010
1022421003600COBR_CAUC_BIC  BRASCOPPER CBC BRAS.CONDUTORES LTDA     007192303000100SPARTACO INDUSTRIA E COM. DE METAI      RUA ALEGRIA, 135, 151                   SAO PAULO                               03043010SP308020000104274732044211-1    21092011007PAULISTA            0211201100000000010326000CC                                                                                                                                                                                                                                                                                                                                                                                           145817-1      000011
1046421001443COBR_CAUC_COR  COSTAO DO SANTINHO TUR E LAZER LTDA     066822537000145WALHATUR VIAGENS E TURISMO S/A          AV. S. LUIS,50-7 ANDAR                  SAO PAULO                               01046000SP308210000100004123111056      15092011900BRADESCO S/A        0410201100000000033339034CC                                                                                                                                                                                                                                                                                                                                                                                           145817-2      000012
9000011                                                                                                                                                                                                                                                                                                                                                                                                                                                                                                                                                                                                                                                                                                               000013
