0REMESSANOTIFICAÇÃO ELETRONICA        99999999999999Bicbanco S/A                            Avenida Paulista                        1048      12º andar BELA VISTA                    SÃO PAULO                     01310100SPBicbanco S/A                                                                    20092011                                                                                                                                                                                                                                                                                                                                                                                                000001
1031421007850COBR_CAUC_COR  AGRICOLA JANDELLE S/A                   017745613000150SUPERMERCADO BAHAMAS LTDA               RODOVIA BR 040 780                      JUIZ DE FORA                            36092005MG3067300001049237720019026901  13092011800UNIBANCO S/A        1310201100000000010673100CC                                                                                                                                                                                                                                                                                                                                                                                           145170-1      000002
1048421000354COBR_CAUC_COR  FRIGOL S.A. EM RECUPERACAO JUDICIAL     003721769000278MASTERBOI LTDA                          RECUPERACAO, DA - 7380                  RECIFE                                  52291000PE3067400001002360467900        14092011900BRADESCO S/A        1310201100000000017636291CC                                                                                                                                                                                                                                                                                                                                                                                           145170-2      000003
1021141014612COBR_CAUC_COR  SPBIO IND COM BIODIESEL OLEOS VEG L     008797152000179BIOSEP COMPLEXO DOS LAGOS - ENERGI      ESTRADA CTP 050, KM 1,1-KM              TRES PONTAS                             37190000MG3067500001061893654047B       12072011900BRADESCO S/A        0311201100000000028976000TD                                                                                                                                                                                                                                                                                                                                                                                           145170-3      000004
1003421007502DIR_CREDIT     CONSTRUTORES ASSOCIADOS LTDA            004887055000116CIA DE HAB. DO ESTADO DO PARA - COHAB/PAPASSAGEM GAMA MALCHER 361               PARA                                    66613115PA3069000001                                                                                                                                          011451676           26022008000000517202/2008     12092011000407EXECUCAO DE OBRAS DE URBANIZACAO, SANEAMENTO E HABITACAO DO PROGRAMA DEACELERACAO DO CRESCIMENTO - PAC                                                                                                                                          005303995000183145170-4      000005
1031421007893COBR_CAUC_COR  DIPLOMATA S/AINDL. E COMERCIAL          009479630000165OLAM AGROMERCANTIL LTDA                 SMITH VASCONCELOS, 312                  ASSIS                                   19814010SP3069100001049239850013667-01  15092011800UNIBANCO S/A        1910201100000000011125000CC                                                                                                                                                                                                                                                                                                                                                                                           145171-1      000006
1031421007893COBR_CAUC_COR  DIPLOMATA S/AINDL. E COMERCIAL          009479630000165OLAM AGROMERCANTIL LTDA                 SMITH VASCONCELOS, 312                  ASSIS                                   19814010SP3069100002049239930013667-02  15092011800UNIBANCO S/A        1910201100000000011125000CC                                                                                                                                                                                                                                                                                                                                                                                           145171-2      000007
1031421007893COBR_CAUC_COR  DIPLOMATA S/AINDL. E COMERCIAL          009479630000165OLAM AGROMERCANTIL LTDA                 SMITH VASCONCELOS, 312                  ASSIS                                   19814010SP3069100003049240010013667-03  15092011800UNIBANCO S/A        2010201100000000011125000CC                                                                                                                                                                                                                                                                                                                                                                                           145171-3      000008
1031421007893COBR_CAUC_COR  DIPLOMATA S/AINDL. E COMERCIAL          009479630000165OLAM AGROMERCANTIL LTDA                 SMITH VASCONCELOS, 312                  ASSIS                                   19814010SP3069100004049240190013667-04  15092011800UNIBANCO S/A        2010201100000000011125000CC                                                                                                                                                                                                                                                                                                                                                                                           145171-4      000009
1016421008591COBR_CAUC_BIC  GLOBOAVES SAO PAULO AGROAVICOLA LTD     085070068000280GONCALVES E TORTOLA LTDA                RUA TAMOIO ,0                           INDIANAPOLIS                            87210000PR306920000103177724028742      13092011016CURITIBA            1110201100000000010326190CC                                                                                                                                                                                                                                                                                                                                                                                           145171-5      000010
1047421000232COBR_CAUC_BIC  JOFER EMBALAGENS LTDA.                  000190373000172IND. E COM. DE COSMETICOS NATURA L      LAMEDA JURUA, 253                       BARUERI                                 06455010SP3072100001010609920024372     16092011007PAULISTA            3011201100000000103026278CC                                                                                                                                                                                                                                                                                                                                                                                           145285-1      000011
1006441006860COBR_CAUC_COR  MONT GRANITOS S/A                       008719815000218LGR RIO BRANCO EMPREENDIMENTOS          AV BRASIL,303-303                       RIO BRANCO                              69908060AC3072200001086930361070-1/1    15092011900BRADESCO S/A        1310201100000000012000000CC                                                                                                                                                                                                                                                                                                                                                                                           145285-2      000012
1007421049060COBR_CAUC_BIC  MERCOSUL COMERCIAL E INDL LTDA          006067345000149LV DISTRIBUIDORA DE MATERIAIS LTDA      R GAL SILVESTRE ROCHA 133               NITEROI                                 24220170RJ3072300001007972341976611     16042011014RIO DE JANEIRO      1411201100000000016557220CC                                                                                                                                                                                                                                                                                                                                                                                           145285-3      000013
1007421049060COBR_CAUC_BIC  MERCOSUL COMERCIAL E INDL LTDA          006067345000149LV DISTRIBUIDORA DE MATERIAIS LTDA      R GAL SILVESTRE ROCHA 133               NITEROI                                 24220170RJ3072300002007972421990711     16042011014RIO DE JANEIRO      1811201100000000010412240CC                                                                                                                                                                                                                                                                                                                                                                                           145285-4      000014
1007421049060COBR_CAUC_BIC  MERCOSUL COMERCIAL E INDL LTDA          006067345000149LV DISTRIBUIDORA DE MATERIAIS LTDA      R GAL SILVESTRE ROCHA 133               NITEROI                                 24220170RJ3072300003007972511927811     25032011014RIO DE JANEIRO      2211201100000000038797224CC                                                                                                                                                                                                                                                                                                                                                                                           145285-5      000015
1007421049060COBR_CAUC_BIC  MERCOSUL COMERCIAL E INDL LTDA          006067345000149LV DISTRIBUIDORA DE MATERIAIS LTDA      R GAL SILVESTRE ROCHA 133               NITEROI                                 24220170RJ3072300004007972691927511     25032011014RIO DE JANEIRO      2211201100000000017171130CC                                                                                                                                                                                                                                                                                                                                                                                           145285-6      000016
1007421049060COBR_CAUC_BIC  MERCOSUL COMERCIAL E INDL LTDA          006067345000149LV DISTRIBUIDORA DE MATERIAIS LTDA      R GAL SILVESTRE ROCHA 133               NITEROI                                 24220170RJ3072300005007972771927711     25032011014RIO DE JANEIRO      2211201100000000035112177CC                                                                                                                                                                                                                                                                                                                                                                                           145285-7      000017
1044421011043DIR_CREDIT     ECOCIL-EMPRESA DE CONSTRUCOES CIVIS     009528053000154SPE ECOCIL - SOLAR JOAO E MARILDA       RUA CHILE, 152                          NATAL                                   59012250RN3074200001                                                                                                                                          011014070           1011200900000110260001        31012011000403CONSTRUÇÃO DO CONJUNTO DE EDIFICAÇÕES DENOMINADAS SOLAR JOAO E MARILDA.                                                                                                                                                                         008326548000138145285-8      000018
1044421011043DIR_CREDIT     ECOCIL-EMPRESA DE CONSTRUCOES CIVIS     009142310000115ECOCIL - INCORPORACOES SPAZZIO SENNA    RUA CHILE,152                           NATAL                                   59012250RN3074300001                                                                                                                                          011014070           100920090000011028001         31012011000403construção do conjunto de edificações denominado spazio senna.                                                                                                                                                                                  008326548000138145285-9      000019
9000018                                                                                                                                                                                                                                                                                                                                                                                                                                                                                                                                                                                                                                                                                                               000020
