0RETORNONOTIFICACAO ELETRONICA        01042010OCOR                                            000001
100002104400260963220320100026096322032010FR584529915BR  000000104201090110-2                 000002
100002104800260967220320100026096722032010FR584529955BR  000000104201090110-7                 000003
100002106600262553240320100026255324032010FR584546445BR  000000104201090340-6                 000004
100002106700262554240320100026255424032010FR584546454BR  000000104201090340-7                 000005
100002106800262555240320100026255524032010FR584546468BR  000080104201090340-8                 000006
100002109800262559240320100026255924032010FR584546508BR  000000104201090343-3                 000007
100002112700263400250320100026340025032010FR584554858BR  000000104201090743-1                 000008
100002112800263401250320100026340125032010FR584554861BR  000000104201090743-2                 000009
100002113000263403250320100026340325032010FR584554889BR  000000104201090743-4                 000010
100002113100263404250320100026340425032010FR584554892BR  000000104201090743-5                 000011
100002113200263405250320100026340525032010FR584554901BR  000000104201090743-6                 000012
100002113300263406250320100026340625032010FR584554915BR  000000104201090743-8                 000013
100002117900263987260320100026398726032010FR584561394BR  000000104201090882-1                 000014
100002118000263988260320100026398826032010FR584561403BR  000000104201090882-2                 000015
100002118100263989260320100026398926032010FR584561417BR  000000104201090882-3                 000016
100002118200263990260320100026399026032010FR584561425BR  000000104201090882-4                 000017
100002118300263991260320100026399126032010FR584561434BR  000000104201090882-5                 000018
9000017                                                                                       000019
