0RETORNONOTIFICACAO ELETRONICA        25032011OCOR                                            000001
100002649900482319280220110048231928022011RL893873107BR  0000025032011123486-4    000000002000000002
100002650000482320280220110048232028022011RL893873115BR  0000025032011123486-5    000000002000000003
100002650100482321280220110048232128022011RL893873124BR  0000025032011123486-6    000000002000000004
100002650400483040010320110048304001032011RL893879422BR  0000025032011123609-3    000000002000000005
100002651000483044010320110048304401032011RL893879467BR  0000025032011123609-8    000000002000000006
100002652600483498020320110048349802032011RL893883020BR  0000025032011123766-12   000000002000000007
100002654500483499020320110048349902032011RL893883033BR  0000025032011123766-13   000000002000000008
100002654700483501020320110048350102032011RL893883055BR  0000725032011123766-28   000000002000000009
100002654800483502020320110048350202032011RL893883064BR  0000025032011123766-41   000000002000000010
100002655100484320030320110048432003032011RL893890958BR  0000025032011123896-5    000000002000000011
100002655500488314140320110048831414032011RL893927397BR  0000025032011124338-22   000000002000000012
100002651300488322140320110048832214032011RL893927471BR  0000025032011124339-7    000000002000000013
100002662300488345140320110048834514032011RL893927701BR  0000025032011124340-7    000000002000000014
9000013                                                                                       000015
