0RETORNONOTIFICACAO ELETRONICA        04102010OCOR                                            000001
100002419000391688200920100039168820092010RL793232485BR  0000004102010111520-2    000000002000000002
100002419400391692200920100039169220092010RL793232525BR  0000004102010111520-8    000000002000000003
100002429100394195230920100039419523092010RL793257487BR  0000004102010111888-11   000000002000000004
9000003                                                                                       000005
