0RETORNONOTIFICACAO ELETRONICA        13082010OCOR                                            000001
100002340500311591290720100031159129072010RL751323636BR  0000013082010106821-1    000000002000000002
100002334300311592290720100031159229072010RL751323640BR  0000013082010106952-1    000000002000000003
100002342500311596290720100031159629072010RL751323684BR  0000013082010106952-5    000000002000000004
100002342600311597290720100031159729072010RL751323698BR  0000013082010106952-6    000000002000000005
100002343300311599290720100031159929072010RL751323715BR  0000013082010106952-8    000000002000000006
100002344500311600290720100031160029072010RL751323724BR  0000013082010106952-9    000000002000000007
100002344600311601290720100031160129072010RL751323738BR  0000013082010107083-1    000000002000000008
100002344700311602290720100031160229072010RL751323741BR  0000513082010107083-2    000000002000000009
100002344900311604290720100031160429072010RL751323769BR  0000013082010107083-8    000000002000000010
100002345100312196300720100031219630072010RL751329687BR  0000813082010107241-1    000000002000000011
100002345300312198300720100031219830072010RL751329700BR  0000013082010107241-4    000000002000000012
100002345500312200300720100031220030072010RL751329727BR  0000013082010107241-6    000000002000000013
100002348100312203300720100031220330072010RL751329758BR  0000013082010107395-1    000000002000000014
100002348400312206300720100031220630072010RL751329789BR  0000013082010107395-4    000000002000000015
100002348500312207300720100031220730072010RL751329792BR  0000013082010107395-5    000000002000000016
100002348700312209300720100031220930072010RL751329815BR  0000013082010107395-7    000000002000000017
9000016                                                                                       000018
