0RETORNONOTIFICACAO ELETRONICA        07062010OCOR                                            000001
100002156900282967210520100028296721052010RL705238065BR  000010706201093517-10    000000002000000002
100002157700282968210520100028296821052010RL705238079BR  000000706201093785-1     000000002000000003
100002169500282983210520100028298321052010RL705238224BR  000000706201094647-4     000000002000000004
9000003                                                                                       000005
