0RETORNONOTIFICACAO ELETRONICA        22032011OCOR                                            000001
100002639000478655220220110047865522022011RL893839128BR  0000022032011122942-4    000000002000000002
100002659600488332140320110048833214032011RL893927573BR  0000022032011124339-17   000000002000000003
100002660000488336140320110048833614032011RL893927613BR  0000022032011124339-21   000000002000000004
100002660200488338140320110048833814032011RL893927635BR  0000022032011124339-24   000000002000000005
100002660300488339140320110048833914032011RL893927644BR  0000022032011124340-1    000000002000000006
100002665300488353140320110048835314032011RL893927785BR  0000022032011124341-5    000000002000000007
100002668600488361140320110048836114032011RL893927865BR  0000222032011124601-6    000000002000000008
9000007                                                                                       000009
