0RETORNONOTIFICACAO ELETRONICA        10032011OCOR                                            000001
100002626600474390140220110047439014022011RL893803415BR  0000010032011122238-2    000000002000000002
100002615700475030150220110047503015022011RL893809055BR  0000010032011122348-4    000000002000000003
100002630000475037150220110047503715022011RL893809126BR  0000010032011122348-12   000000002000000004
100002631800476302170220110047630217022011RL893820360BR  0000010032011122595-6    000000002000000005
100002636000477932210220110047793221022011RL893832323BR  0000010032011122872-1    000000002000000006
100002636100477933210220110047793321022011RL893832337BR  0000010032011122872-2    000000002000000007
100002636200477934210220110047793421022011RL893832345BR  0000010032011122872-3    000000002000000008
100002636300477935210220110047793521022011RL893832354BR  0000010032011122872-5    000000002000000009
100002638700478652220220110047865222022011RL893839091BR  0000010032011122942-1    000000002000000010
100002638800478653220220110047865322022011RL893839105BR  0000010032011122942-2    000000002000000011
100002638900478654220220110047865422022011RL893839114BR  0002310032011122942-3    000000002000000012
100002641400478656220220110047865622022011RL893839131BR  0000010032011122942-6    000000002000000013
100002641500478657220220110047865722022011RL893839145BR  0000910032011122942-7    000000002000000014
100002641600478658220220110047865822022011RL893839159BR  0000010032011122942-8    000000002000000015
100002641700478953230220110047895323022011RL893841489BR  0000010032011123086-1    000000002000000016
100002641800478954230220110047895423022011RL893841492BR  0000010032011123086-3    000000002000000017
100002641900478955230220110047895523022011RL893841501BR  0000010032011123086-5    000000002000000018
100002645100480954240220110048095424022011RL893860236BR  0000010032011123236-1    000000002000000019
100002645200480955240220110048095524022011RL893860240BR  0000010032011123236-2    000000002000000020
100002645300480956240220110048095624022011RL893860253BR  0000010032011123236-5    000000002000000021
100002645400480957240220110048095724022011RL893860267BR  0000010032011123236-6    000000002000000022
100002645500481361250220110048136125022011RL893864119BR  0000010032011123328-1    000000002000000023
100002645600481362250220110048136225022011RL893864122BR  0000010032011123328-2    000000002000000024
100002645700481363250220110048136325022011RL893864136BR  0000010032011123328-3    000000002000000025
9000024                                                                                       000026
