0RETORNONOTIFICACAO ELETRONICA        02072010OCOR                                            000001
100002274500293321210620100029332121062010RL724405070BR  0000002072010103500-1    000000002000000002
100002278000294199220620100029419922062010RL724412994BR  0000002072010103644-3    000000002000000003
100002278200294201220620100029420122062010RL724413014BR  0000002072010103644-5    000000002000000004
100002281200294406230620100029440623062010RL724415063BR  0000002072010103757-1    000000002000000005
100002281300294407230620100029440723062010RL724415077BR  0000002072010103757-4    000000002000000006
100002281400294408230620100029440823062010RL724415085BR  0000002072010103757-5    000000002000000007
100002284300294409230620100029440923062010RL724415094BR  0000002072010103757-6    000000002000000008
100002284400294413230620100029441323062010RL724415134BR  0000002072010103872-4    000000002000000009
100002284500294414230620100029441423062010RL724415148BR  0000002072010103872-5    000000002000000010
100002284600295184240620100029518424062010RL724422841BR  0000002072010103964-1    000000002000000011
100002284700295185240620100029518524062010RL724422855BR  0000002072010103964-2    000000002000000012
100002284800295186240620100029518624062010RL724422869BR  0000002072010103964-3    000000002000000013
100002285000295188240620100029518824062010RL724422886BR  0000002072010103964-5    000000002000000014
100002285100295189240620100029518924062010RL724422890BR  0000002072010103964-6    000000002000000015
100002286800295191240620100029519124062010RL724422912BR  0000002072010103964-8    000000002000000016
100002286900295192240620100029519224062010RL724422926BR  0000002072010103964-9    000000002000000017
100002287500295193240620100029519324062010RL724422930BR  0000702072010103964-10   000000002000000018
100002286100295593250620100029559325062010RL724426945BR  0000002072010104160-1    000000002000000019
100002287100295594250620100029559425062010RL724426959BR  0000002072010104160-2    000000002000000020
100002288200295597250620100029559725062010RL724426980BR  0000002072010104160-5    000000002000000021
100002288300295598250620100029559825062010RL724426993BR  0000002072010104160-6    000000002000000022
9000021                                                                                       000023
