0RETORNONOTIFICACAO ELETRONICA        05042010OCOR                                            000001
100002104700260966220320100026096622032010FR584529941BR  000000504201090110-5                 000002
100002110000262561240320100026256124032010FR584546525BR  000000504201090343-7                 000003
100002118400265017290320100026501729032010FR584571635BR  000000504201090998-1                 000004
100002118800265021290320100026502129032010FR584571670BR  000000504201090998-5                 000005
100002117600265870300320100026587030032010FR584580169BR  000000504201091423-4                 000006
100002119300265871300320100026587130032010FR584580172BR  000000504201091423-5                 000007
100002119400265872300320100026587230032010FR584580186BR  000000504201091423-6                 000008
100002124900265882300320100026588230032010FR584580288BR  000000504201091423-23                000009
9000008                                                                                       000010
