0RETORNONOTIFICACAO ELETRONICA        19052010OCOR                                            000001
100002181400277825100520100027782510052010RL696163755BR  000001905201096200-2     000000002000000002
100002194600277830100520100027783010052010RL696163809BR  000001905201097594-6     000000002000000003
100002195000277834100520100027783410052010RL696163843BR  000001905201097594-13    000000002000000004
100002195100277835100520100027783510052010RL696163857BR  000001905201097594-39    000000002000000005
100002197700277841100520100027784110052010RL696163914BR  000001905201098046-4     000000002000000006
9000005                                                                                       000007
