0RETORNONOTIFICACAO ELETRONICA        06072010OCOR                                            000001
100002274100293086180620100029308618062010RL724402728BR  0000006072010103354-7    000000002000000002
100002274200293087180620100029308718062010RL724402731BR  0000006072010103354-8    000000002000000003
100002274300293088180620100029308818062010RL724402745BR  0000006072010103354-9    000000002000000004
100002274400293089180620100029308918062010RL724402759BR  0000006072010103354-10   000000002000000005
100002275900294197220620100029419722062010RL724412977BR  0000006072010103644-1    000000002000000006
100002278100294200220620100029420022062010RL724413005BR  0000006072010103644-4    000000002000000007
100002281100294203220620100029420322062010RL724427013BR  0000006072010103644-7    000000002000000008
100002281800294410230620100029441023062010RL724415103BR  0000006072010103872-1    000000002000000009
100002282100294411230620100029441123062010RL724415117BR  0000006072010103872-2    000000002000000010
100002285200295190240620100029519024062010RL724422909BR  0000006072010103964-7    000000002000000011
100002288000295595250620100029559525062010RL724426962BR  0000006072010104160-3    000000002000000012
100002288100295596250620100029559625062010RL724426976BR  0000006072010104160-4    000000002000000013
100002291100296372290620100029637229062010RL724434685BR  0000006072010104256-1    000000002000000014
100002291200296373290620100029637329062010RL724434694BR  0000006072010104256-2    000000002000000015
100002294300296879290620100029687929062010RL724439405BR  0000006072010104347-1    000000002000000016
100002294400296880290620100029688029062010RL724439419BR  0000006072010104347-2    000000002000000017
100002296600297774010720100029777401072010RL751186405BR  0000006072010104670-3    000000002000000018
9000017                                                                                       000019
