0RETORNONOTIFICACAO ELETRONICA        08092010OCOR                                            000001
100002368700381322240820100038132224082010RL793128350BR  0000008092010109468-3    000000002000000002
100002388700385375300820100038537530082010RL793168813BR  0000008092010109867-8    000000002000000003
100002388800385376300820100038537630082010RL793168827BR  0001208092010109867-9    000000002000000004
9000003                                                                                       000005
