0RETORNONOTIFICACAO ELETRONICA        01032011OCOR                                            000001
100002614900475027150220110047502715022011RL893809024BR  0000001032011122348-1    000000002000000002
100002618500475032150220110047503215022011RL893809072BR  0000001032011122348-6    000000002000000003
100002631700476301170220110047630117022011RL893820356BR  0000001032011122595-4    000000002000000004
100002633200476304170220110047630417022011RL893820387BR  0000501032011122596-1    000000002000000005
100002633300476305170220110047630517022011RL893820395BR  0000001032011122596-2    000000002000000006
100002633400477092180220110047709218022011RL893823975BR  0000001032011122818-1    000000002000000007
100002633600477094180220110047709418022011RL893823998BR  0000001032011122818-4    000000002000000008
100002633700477095180220110047709518022011RL893824004BR  0000001032011122818-7    000000002000000009
100002633800477096180220110047709618022011RL893824018BR  0000001032011122818-8    000000002000000010
100002633900477097180220110047709718022011RL893824021BR  0000001032011122818-9    000000002000000011
9000010                                                                                       000012
