0RETORNONOTIFICACAO ELETRONICA        04062010OCOR                                            000001
100002153600282958210520100028295821052010RL705237970BR  000000406201093517-1     000000002000000002
100002153700282959210520100028295921052010RL705237983BR  000000406201093517-2     000000002000000003
100002157800282969210520100028296921052010RL705238082BR  000000406201093785-2     000000002000000004
100002164800282973210520100028297321052010RL705238122BR  000000406201094424-1     000000002000000005
100002220400283007210520100028300721052010RL705238462BR  0000004062010100204-24   000000002000000006
100002225400283027210520100028302721052010RL705238666BR  0000704062010100204-203  000000002000000007
100002174700284591250520100028459125052010RL705254244BR  000000406201095252-1     000000002000000008
100002174800284592250520100028459225052010RL705254258BR  000000406201095252-2     000000002000000009
100002175000284594250520100028459425052010RL705254275BR  000000406201095252-4     000000002000000010
100002175100284595250520100028459525052010RL705254289BR  000080406201095252-5     000000002000000011
100002175200284596250520100028459625052010RL705254292BR  000000406201095252-8     000000002000000012
100002225700284603250520100028460325052010RL705254363BR  0000804062010100444-1    000000002000000013
100002225800284604250520100028460425052010RL705254377BR  0000004062010100444-5    000000002000000014
100002226100284607250520100028460725052010RL705254403BR  0000004062010100444-8    000000002000000015
100002226200284608250520100028460825052010RL705254417BR  0000004062010100444-9    000000002000000016
100002228600285821270520100028582127052010RL705266477BR  0000004062010100874-1    000000002000000017
100002228700285822270520100028582227052010RL705266485BR  0000004062010100874-6    000000002000000018
100002228800285823270520100028582327052010RL705266494BR  0000004062010100874-8    000000002000000019
100002230400285824270520100028582427052010RL705266503BR  0000004062010101156-1    000000002000000020
100002230500285825270520100028582527052010RL705266517BR  0000004062010101156-2    000000002000000021
100002230600285826270520100028582627052010RL705266525BR  0000004062010101156-3    000000002000000022
100002230700285827270520100028582727052010RL705266534BR  0000004062010101156-5    000000002000000023
100002230800285828270520100028582827052010RL705266548BR  0000004062010101156-7    000000002000000024
9000023                                                                                       000025
