0RETORNONOTIFICACAO ELETRONICA        27072010OCOR                                            000001
100002309000301344080720100030134408072010RL751221478BR  0002327072010105281-3    000000002000000002
100002316500304230160720100030423016072010RL751250151BR  0000027072010105798-1    000000002000000003
100002320900304234160720100030423416072010RL751250196BR  0000027072010105798-5    000000002000000004
100002321400304239160720100030423916072010RL751250240BR  0000027072010105798-19   000000002000000005
9000004                                                                                       000006
