0RETORNONOTIFICACAO ELETRONICA        29062010OCOR                                            000001
100002262500292329150620100029232915062010RL724394536BR  0000029062010102978-3    000000002000000002
100002272200292853170620100029285317062010RL724399670BR  0000029062010103220-8    000000002000000003
100002273700293082180620100029308218062010RL724402688BR  0000029062010103354-3    000000002000000004
100002273800293083180620100029308318062010RL724402691BR  0000029062010103354-4    000000002000000005
100002273900293084180620100029308418062010RL724402705BR  0000029062010103354-5    000000002000000006
100002274000293085180620100029308518062010RL724402714BR  0000029062010103354-6    000000002000000007
100002274900293325210620100029332521062010RL724405110BR  0000029062010103500-8    000000002000000008
100002275000293326210620100029332621062010RL724405123BR  0000029062010103500-9    000000002000000009
100002275200293328210620100029332821062010RL724405145BR  0000029062010103500-18   000000002000000010
9000009                                                                                       000011
