0RETORNONOTIFICACAO ELETRONICA        01072010OCOR                                            000001
100002270200292848170620100029284817062010RL724399621BR  0000001072010103220-3    000000002000000002
100002272100292852170620100029285217062010RL724399666BR  0000001072010103220-7    000000002000000003
100002272500293081180620100029308118062010RL724402674BR  0001230062010103354-2    000000002000000004
100002274600293322210620100029332221062010RL724405083BR  0000001072010103500-3    000000002000000005
100002274700293323210620100029332321062010RL724405097BR  0000001072010103500-5    000000002000000006
100002274800293324210620100029332421062010RL724405106BR  0000001072010103500-6    000000002000000007
100002278300294202220620100029420222062010RL724413028BR  0000001072010103644-6    000000002000000008
9000007                                                                                       000009
