0RETORNONOTIFICACAO ELETRONICA        21032011OCOR                                            000001
100002650300483039010320110048303901032011RL893879419BR  0000021032011123609-2    000000002000000002
100002652500483497020320110048349702032011RL893883016BR  0000021032011123766-10   000000002000000003
100002655000484319030320110048431903032011RL893890944BR  0000021032011123896-1    000000002000000004
100002628200488294140320110048829414032011RL893927193BR  0000021032011124338-2    000000002000000005
100002632800488298140320110048829814032011RL893927233BR  0000021032011124338-6    000000002000000006
100002635000488302140320110048830214032011RL893927278BR  0000021032011124338-10   000000002000000007
100002646600488316140320110048831614032011RL893927410BR  0000021032011124339-1    000000002000000008
9000007                                                                                       000009
