0RETORNONOTIFICACAO ELETRONICA        25082010OCOR                                            000001
100002356900316673110820100031667311082010RL751375063BR  0000025082010107951-4    000000002000000002
100002351900316676110820100031667611082010RL751375094BR  0000025082010108209-2    000000002000000003
100002360200316679110820100031667911082010RL751375125BR  0000025082010108209-5    000000002000000004
100002355700316852110820100031685211082010RL751376850BR  0002325082010107695-55   000000002000000005
100002364700317363130820100031736313082010RL751381951BR  0000825082010108477-3    000000002000000006
100002365000317367130820100031736713082010RL751381996BR  0000825082010108605-3    000000002000000007
100002367500318008160820100031800816082010RL793094903BR  0000025082010108710-1    000000002000000008
100002371100318018160820100031801816082010RL793095002BR  0000025082010108887-1    000000002000000009
100002371300318020160820100031802016082010RL793095020BR  0000025082010108887-5    000000002000000010
100002373400319123190820100031912319082010RL793106442BR  0000025082010109011-1    000000002000000011
100002373500319124190820100031912419082010RL793106456BR  0000025082010109011-2    000000002000000012
100002373600319125190820100031912519082010RL793106460BR  0000025082010109011-3    000000002000000013
100002373700319126190820100031912619082010RL793106473BR  0000025082010109011-4    000000002000000014
100002375000319128190820100031912819082010RL793106495BR  0000025082010109011-7    000000002000000015
100002375100319129190820100031912919082010RL793106500BR  0000025082010109011-9    000000002000000016
100002375200319130190820100031913019082010RL793106513BR  0000025082010109011-10   000000002000000017
100002375500319133190820100031913319082010RL793106544BR  0000025082010109097-1    000000002000000018
100002375700319135190820100031913519082010RL793106561BR  0000025082010109097-3    000000002000000019
100002375900319137190820100031913719082010RL793106589BR  0000025082010109097-5    000000002000000020
100002376800319529200820100031952920082010RL793110464BR  0000025082010109213-18   000000002000000021
100002376900319530200820100031953020082010RL793110478BR  0000025082010109213-19   000000002000000022
100002377000319531200820100031953120082010RL793110481BR  0000025082010109213-22   000000002000000023
100002377100319532200820100031953220082010RL793110495BR  0000025082010109213-23   000000002000000024
9000023                                                                                       000025
