0RETORNONOTIFICACAO ELETRONICA        05032010OCOR                                            000001
100002039500243153220220100024315322022010FR584347303BR  000000503201086452-5                 000002
100002043100243157220220100024315722022010FR584347348BR  000000503201086454-2                 000003
100002058500246565250220100024656525022010FR584382089BR  000000503201086815-5                 000004
9000003                                                                                       000005
