0RETORNONOTIFICACAO ELETRONICA        24032011OCOR                                            000001
100002640200488305140320110048830514032011RL893927304BR  0000024032011124338-13   000000002000000002
100002653500488323140320110048832314032011RL893927485BR  0000024032011124339-8    000000002000000003
100002654400488325140320110048832514032011RL893927508BR  0000024032011124339-10   000000002000000004
100002655900488326140320110048832614032011RL893927511BR  0000024032011124339-11   000000002000000005
100002659800488334140320110048833414032011RL893927595BR  0000024032011124339-19   000000002000000006
100002661100488341140320110048834114032011RL893927661BR  0000024032011124340-3    000000002000000007
100002665100488351140320110048835114032011RL893927763BR  0000024032011124341-3    000000002000000008
100002668300488358140320110048835814032011RL893927834BR  0000024032011124443-5    000000002000000009
9000008                                                                                       000010
