0RETORNONOTIFICACAO ELETRONICA        25052010OCOR                                            000001
100002205300281254140520100028125414052010RL696200210BR  000232505201098872-2     000000002000000002
100002205400281255140520100028125514052010RL696200223BR  000002505201098872-3     000000002000000003
100002208100281258140520100028125814052010RL696200254BR  000002505201098872-6     000000002000000004
100002208900281260140520100028126014052010RL696200271BR  000002505201098872-8     000000002000000005
100002209000281261140520100028126114052010RL696200285BR  000082505201098872-9     000000002000000006
100002209100281263140520100028126314052010RL696200308BR  000002505201098906-2     000000002000000007
100002209200281264140520100028126414052010RL696200311BR  000002505201098906-3     000000002000000008
9000007                                                                                       000009
