0RETORNONOTIFICACAO ELETRONICA        30082010OCOR                                            000001
100002325100316648110820100031664811082010RL751374814BR  0000030082010106041-6    000000002000000002
100002354900316677110820100031667711082010RL751375103BR  0000030082010108209-3    000000002000000003
100002367900318012160820100031801216082010RL793094948BR  0002330082010108710-6    000000002000000004
100002374900319127190820100031912719082010RL793106487BR  0000030082010109011-6    000000002000000005
100002375300319131190820100031913119082010RL793106527BR  0000030082010109011-12   000000002000000006
100002375400319132190820100031913219082010RL793106535BR  0000030082010109011-13   000000002000000007
100002375600319134190820100031913419082010RL793106558BR  0000030082010109097-2    000000002000000008
100002375800319136190820100031913619082010RL793106575BR  0000030082010109097-4    000000002000000009
100002376100319522200820100031952220082010RL793110393BR  0000030082010109213-3    000000002000000010
100002376200319523200820100031952320082010RL793110402BR  0000030082010109213-4    000000002000000011
100002376600319527200820100031952720082010RL793110447BR  0000030082010109213-15   000000002000000012
100002376700319528200820100031952820082010RL793110455BR  0000530082010109213-16   000000002000000013
100002377200319533200820100031953320082010RL793110504BR  0000030082010109213-24   000000002000000014
100002377300319534200820100031953420082010RL793110518BR  0000030082010109213-27   000000002000000015
9000014                                                                                       000016
