0RETORNONOTIFICACAO ELETRONICA        18032011OCOR                                            000001
100002650200483038010320110048303801032011RL893879405BR  0000018032011123609-1    000000002000000002
100002650600483042010320110048304201032011RL893879440BR  0000018032011123609-5    000000002000000003
100002652000483046010320110048304601032011RL893879484BR  0000018032011123609-10   000000002000000004
100002652400483496020320110048349602032011RL893883002BR  0000018032011123766-9    000000002000000005
100002654600483500020320110048350002032011RL893883047BR  0000018032011123766-18   000000002000000006
9000005                                                                                       000007
