0RETORNONOTIFICACAO ELETRONICA        18052010OCOR                                            000001
100002194800277832100520100027783210052010RL696163826BR  000001805201097594-8     000000002000000002
100002197800277842100520100027784210052010RL696163928BR  000121805201098046-5     000000002000000003
100002199300277844100520100027784410052010RL696163945BR  000001805201098046-7     000000002000000004
100002199100277845100520100027784510052010RL696163959BR  000001805201098271-1     000000002000000005
100002201400277848100520100027784810052010RL696163980BR  000001805201098271-4     000000002000000006
100002202000277850100520100027785010052010RL696164000BR  000001805201098271-13    000000002000000007
9000006                                                                                       000008
