0RETORNONOTIFICACAO ELETRONICA        29032011OCOR                                            000001
100002633000488299140320110048829914032011RL893927247BR  0000029032011124338-7    000000002000000002
100002634000488300140320110048830014032011RL893927255BR  0000029032011124338-8    000000002000000003
100002658400488329140320110048832914032011RL893927542BR  0000029032011124339-14   000000002000000004
100002658500488330140320110048833014032011RL893927556BR  0000029032011124339-15   000000002000000005
100002658600488331140320110048833114032011RL893927560BR  0000029032011124339-16   000000002000000006
100002664500488347140320110048834714032011RL893927729BR  0002329032011124340-9    000000002000000007
100002664900488349140320110048834914032011RL893927746BR  0000029032011124341-1    000000002000000008
100002665000488350140320110048835014032011RL893927750BR  0000029032011124341-2    000000002000000009
100002665500489848160320110048984816032011RL893938752BR  0000029032011124747-4    000000002000000010
100002667200489851160320110048985116032011RL893938783BR  0000029032011124747-7    000000002000000011
100002667300489852160320110048985216032011RL893938797BR  0000029032011124747-8    000000002000000012
100002672000490943180320110049094318032011RL893947913BR  0000029032011124919-1    000000002000000013
100002672100490944180320110049094418032011RL893947927BR  0000029032011124919-2    000000002000000014
100002672400490947180320110049094718032011RL893947958BR  0000029032011124919-5    000000002000000015
100002672500490948180320110049094818032011RL893947961BR  0000029032011124919-6    000000002000000016
100002669900490951180320110049095118032011RL893947992BR  0000029032011125064-3    000000002000000017
100002672600490954180320110049095418032011RL893948026BR  0000029032011125064-6    000000002000000018
100002672800490956180320110049095618032011RL893948043BR  0000029032011125064-11   000000002000000019
100002680000492770220320110049277022032011RL893965421BR  0000029032011125315-4    000000002000000020
9000019                                                                                       000021
