0RETORNONOTIFICACAO ELETRONICA        23032011OCOR                                            000001
100002635200488303140320110048830314032011RL893927281BR  0000023032011124338-11   000000002000000002
100002655400488313140320110048831314032011RL893927383BR  0000023032011124338-21   000000002000000003
100002647900488318140320110048831814032011RL893927437BR  0000023032011124339-3    000000002000000004
100002658100488328140320110048832814032011RL893927539BR  0000023032011124339-13   000000002000000005
100002660100488337140320110048833714032011RL893927627BR  0000023032011124339-23   000000002000000006
100002661000488340140320110048834014032011RL893927658BR  0000023032011124340-2    000000002000000007
100002661200488342140320110048834214032011RL893927675BR  0000023032011124340-4    000000002000000008
9000007                                                                                       000009
