0RETORNONOTIFICACAO ELETRONICA        17032011OCOR                                            000001
100002650700483043010320110048304301032011RL893879453BR  0000517032011123609-6    000000002000000002
100002651900483045010320110048304501032011RL893879475BR  0000017032011123609-9    000000002000000003
100002652200483494020320110048349402032011RL893882982BR  0000017032011123766-1    000000002000000004
100002652300483495020320110048349502032011RL893882996BR  0000017032011123766-5    000000002000000005
100002654900483503020320110048350302032011RL893883078BR  0000717032011123766-57   000000002000000006
9000005                                                                                       000007
