0RETORNONOTIFICACAO ELETRONICA        17062010OCOR                                            000001
100002245700288136020620100028813602062010RL724352814BR  0000017062010101943-3    000000002000000002
100002246200290457080620100029045708062010RL724375850BR  0000017062010102100-1    000000002000000003
100002246300290458080620100029045808062010RL724375863BR  0000017062010102100-2    000000002000000004
100002246400290459080620100029045908062010RL724375877BR  0000017062010102100-3    000000002000000005
100002246500290460080620100029046008062010RL724375885BR  0000017062010102100-5    000000002000000006
100002246600290461080620100029046108062010RL724375894BR  0000217062010102100-6    000000002000000007
100002246700290462080620100029046208062010RL724375903BR  0000017062010102100-7    000000002000000008
100002246800290463080620100029046308062010RL724375917BR  0000017062010102100-8    000000002000000009
100002247000290464080620100029046408062010RL724375925BR  0000017062010102100-9    000000002000000010
100002250600290465080620100029046508062010RL724375934BR  0000017062010102100-10   000000002000000011
100002250700290466080620100029046608062010RL724375948BR  0000017062010102100-11   000000002000000012
100002250800290467080620100029046708062010RL724375951BR  0000017062010102100-12   000000002000000013
100002252100290468080620100029046808062010RL724375965BR  0000017062010102100-13   000000002000000014
100002252700290471080620100029047108062010RL724375996BR  0000017062010102216-2    000000002000000015
100002252800290472080620100029047208062010RL724376002BR  0000017062010102216-3    000000002000000016
100002252900290473080620100029047308062010RL724376016BR  0000017062010102216-4    000000002000000017
100002254000290474080620100029047408062010RL724376020BR  0000017062010102216-5    000000002000000018
100002256400291558110620100029155811062010RL724386821BR  0000017062010102714-7    000000002000000019
100002256800291561110620100029156111062010RL724386852BR  0000017062010102714-10   000000002000000020
100002258200291563110620100029156311062010RL724386870BR  0000017062010102714-12   000000002000000021
100002258300291564110620100029156411062010RL724386883BR  0000017062010102714-13   000000002000000022
9000021                                                                                       000023
