0RETORNONOTIFICACAO ELETRONICA        01062010OCOR                                            000001
100002194400277828100520100027782810052010RL696163786BR  000002805201097594-4     000000002000000002
100002208800281259140520100028125914052010RL696200268BR  000002805201098872-7     000000002000000003
100002204900281262140520100028126214052010RL696200299BR  000000106201098906-1     000000002000000004
100002211300282202180520100028220218052010RL696210340BR  000002805201099312-2     000000002000000005
100002213400282203180520100028220318052010RL696210353BR  000002805201099534-1     000000002000000006
100002213500282204180520100028220418052010RL696210367BR  000080106201099534-2     000000002000000007
100002213600282205180520100028220518052010RL696210375BR  000000106201099534-3     000000002000000008
100002216600282924200520100028292420052010RL705237657BR  0000028052010100169-1    000000002000000009
100002216700282925200520100028292520052010RL705237665BR  0000028052010100169-2    000000002000000010
100002216800282926200520100028292620052010RL705237674BR  0000001062010100169-3    000000002000000011
100002216900282927200520100028292720052010RL705237688BR  0000028052010100169-4    000000002000000012
100002217000282928200520100028292820052010RL705237691BR  0000028052010100169-6    000000002000000013
100002217100282929200520100028292920052010RL705237705BR  0000028052010100169-7    000000002000000014
100002217200282930200520100028293020052010RL705237714BR  0000001062010100169-8    000000002000000015
100002217300282931200520100028293120052010RL705237728BR  0000001062010100169-9    000000002000000016
100002219100282934200520100028293420052010RL705237759BR  0000001062010100171-1    000000002000000017
100002219200282935200520100028293520052010RL705237762BR  0000028052010100171-2    000000002000000018
100002219300282936200520100028293620052010RL705237776BR  0000028052010100171-3    000000002000000019
100002219500282938200520100028293820052010RL705237793BR  0000028052010100171-5    000000002000000020
100002219600282939200520100028293920052010RL705237802BR  0000028052010100171-6    000000002000000021
100002219800282941200520100028294120052010RL705237820BR  0000028052010100171-8    000000002000000022
100002101800282957210520100028295721052010RL705237966BR  000002805201090014-11    000000002000000023
100002153900282961210520100028296121052010RL705238003BR  000002805201093517-4     000000002000000024
100002154000282962210520100028296221052010RL705238017BR  000000106201093517-5     000000002000000025
100002154100282963210520100028296321052010RL705238025BR  000000106201093517-6     000000002000000026
100002154300282965210520100028296521052010RL705238048BR  000002805201093517-8     000000002000000027
100002154400282966210520100028296621052010RL705238051BR  000002805201093517-9     000000002000000028
100002157900282970210520100028297021052010RL705238096BR  000002805201093785-3     000000002000000029
100002158000282971210520100028297121052010RL705238105BR  000000106201094046-1     000000002000000030
100002164900282974210520100028297421052010RL705238136BR  000002805201094424-2     000000002000000031
100002165000282975210520100028297521052010RL705238140BR  000002805201094424-3     000000002000000032
100002165100282976210520100028297621052010RL705238153BR  000002805201094424-4     000000002000000033
100002165200282977210520100028297721052010RL705238167BR  000000106201094424-5     000000002000000034
100002165300282978210520100028297821052010RL705238175BR  000000106201094424-7     000000002000000035
100002169200282980210520100028298021052010RL705238198BR  000002805201094647-1     000000002000000036
100002169300282981210520100028298121052010RL705238207BR  000002805201094647-2     000000002000000037
100002169400282982210520100028298221052010RL705238215BR  000002805201094647-3     000000002000000038
100002169600282984210520100028298421052010RL705238238BR  000002805201094647-5     000000002000000039
100002169700282985210520100028298521052010RL705238241BR  000000106201094647-6     000000002000000040
100002174300282986210520100028298621052010RL705238255BR  000002805201095042-1     000000002000000041
100002174400282987210520100028298721052010RL705238269BR  000002805201095042-2     000000002000000042
100002174600282989210520100028298921052010RL705238286BR  000002805201095042-4     000000002000000043
100002093600282992210520100028299221052010RL705238312BR  000002805201089480-8     000000002000000044
100002212700282993210520100028299321052010RL705238326BR  0000028052010100204-1    000000002000000045
100002212800282994210520100028299421052010RL705238330BR  0000501062010100204-2    000000002000000046
100002213100282995210520100028299521052010RL705238343BR  0000001062010100204-3    000000002000000047
100002214200282997210520100028299721052010RL705238365BR  0000028052010100204-5    000000002000000048
100002214400282998210520100028299821052010RL705238374BR  0000028052010100204-6    000000002000000049
100002216200282999210520100028299921052010RL705238388BR  0000028052010100204-7    000000002000000050
100002216300283000210520100028300021052010RL705238391BR  0000028052010100204-8    000000002000000051
100002218000283001210520100028300121052010RL705238405BR  0000001062010100204-9    000000002000000052
100002219900283002210520100028300221052010RL705238414BR  0000028052010100204-10   000000002000000053
100002220000283003210520100028300321052010RL705238428BR  0000028052010100204-20   000000002000000054
100002220100283004210520100028300421052010RL705238431BR  0000001062010100204-21   000000002000000055
100002220300283006210520100028300621052010RL705238459BR  0000001062010100204-23   000000002000000056
100002220500283008210520100028300821052010RL705238476BR  0000001062010100204-25   000000002000000057
100002221500283010210520100028301021052010RL705238493BR  0000001062010100204-27   000000002000000058
100002221700283011210520100028301121052010RL705238502BR  0000101062010100204-28   000000002000000059
100002222300283012210520100028301221052010RL705238516BR  0000028052010100204-29   000000002000000060
100002224100283014210520100028301421052010RL705238533BR  0000028052010100204-31   000000002000000061
100002224300283016210520100028301621052010RL705238555BR  0000028052010100204-55   000000002000000062
100002224400283017210520100028301721052010RL705238564BR  0000028052010100204-67   000000002000000063
100002224500283018210520100028301821052010RL705238578BR  0000028052010100204-79   000000002000000064
100002224600283019210520100028301921052010RL705238581BR  0000028052010100204-91   000000002000000065
100002224700283020210520100028302021052010RL705238595BR  0000028052010100204-107  000000002000000066
100002224800283021210520100028302121052010RL705238604BR  0000028052010100204-119  000000002000000067
100002224900283022210520100028302221052010RL705238618BR  0000028052010100204-131  000000002000000068
100002225000283023210520100028302321052010RL705238621BR  0000028052010100204-143  000000002000000069
100002225100283024210520100028302421052010RL705238635BR  0000028052010100204-155  000000002000000070
100002225200283025210520100028302521052010RL705238649BR  0000028052010100204-171  000000002000000071
100002225300283026210520100028302621052010RL705238652BR  0000028052010100204-187  000000002000000072
100002225500283028210520100028302821052010RL705238670BR  0000028052010100204-215  000000002000000073
100002225600283029210520100028302921052010RL705238683BR  0000028052010100204-219  000000002000000074
100002175300284597250520100028459725052010RL705254301BR  000000106201095252-9     000000002000000075
100002175400284598250520100028459825052010RL705254315BR  000000106201095252-10    000000002000000076
100002175500284599250520100028459925052010RL705254329BR  000000106201095252-11    000000002000000077
100002175600284600250520100028460025052010RL705254332BR  000000106201095252-12    000000002000000078
100002175700284601250520100028460125052010RL705254346BR  000000106201095252-16    000000002000000079
100002175800284602250520100028460225052010RL705254350BR  000000106201095252-17    000000002000000080
9000079                                                                                       000081

