0RETORNONOTIFICACAO ELETRONICA        24052010OCOR                                            000001
100002194500277829100520100027782910052010RL696163790BR  000082405201097594-5     000000002000000002
100002201200277846100520100027784610052010RL696163962BR  000082405201098271-2     000000002000000003
100002204000280917130520100028091713052010RL696196427BR  000082405201098459-1     000000002000000004
100002204100280918130520100028091813052010RL696196435BR  000002405201098459-2     000000002000000005
100002204200280919130520100028091913052010RL696196444BR  000002405201098459-3     000000002000000006
100002204300280920130520100028092013052010RL696196458BR  000002405201098459-5     000000002000000007
100002204400280921130520100028092113052010RL696196461BR  000002405201098459-7     000000002000000008
100002205200281253140520100028125314052010RL696200206BR  000002405201098872-1     000000002000000009
100002207300281256140520100028125614052010RL696200237BR  000002405201098872-4     000000002000000010
100002207500281257140520100028125714052010RL696200245BR  000002405201098872-5     000000002000000011
100002209300281265140520100028126514052010RL696200325BR  000002405201098906-4     000000002000000012
100002209900281266140520100028126614052010RL696200339BR  000002405201098906-5     000000002000000013
9000012                                                                                       000014

