0RETORNONOTIFICACAO ELETRONICA        09042010OCOR                                            000001
100002112900263402250320100026340225032010FR584554875BR  000000904201090743-3                 000002
100002120800265875300320100026587530032010FR584580212BR  000000904201091423-12                000003
100002120900265876300320100026587630032010FR584580226BR  000000904201091423-13                000004
9000003                                                                                       000005
