0RETORNONOTIFICACAO ELETRONICA        24062010OCOR                                            000001
100002252600290470080620100029047008062010RL724375982BR  0000024062010102216-1    000000002000000002
100002258400292323150620100029232315062010RL724394479BR  0000024062010102801-1    000000002000000003
100002258500292324150620100029232415062010RL724394482BR  0000024062010102801-2    000000002000000004
100002258600292325150620100029232515062010RL724394496BR  0002324062010102801-5    000000002000000005
100002258700292326150620100029232615062010RL724394505BR  0000024062010102801-6    000000002000000006
100002262300292327150620100029232715062010RL724394519BR  0002324062010102978-1    000000002000000007
100002262400292328150620100029232815062010RL724394522BR  0000024062010102978-2    000000002000000008
100002262600292330150620100029233015062010RL724394540BR  0000024062010102978-6    000000002000000009
100002262700292331150620100029233115062010RL724394553BR  0000524062010102978-9    000000002000000010
100002262800292332150620100029233215062010RL724394567BR  0000024062010102978-10   000000002000000011
100002262900292333150620100029233315062010RL724394575BR  0000524062010102978-11   000000002000000012
100002263000292334150620100029233415062010RL724394584BR  0000024062010102978-12   000000002000000013
100002263100292335150620100029233515062010RL724394598BR  0000524062010102978-13   000000002000000014
100002266300292337150620100029233715062010RL724394615BR  0000024062010103119-2    000000002000000015
100002266400292338150620100029233815062010RL724394624BR  0000024062010103119-3    000000002000000016
100002267700292339150620100029233915062010RL724394638BR  0000024062010103119-4    000000002000000017
100002267800292340150620100029234015062010RL724394641BR  0000024062010103119-5    000000002000000018
100002271800292341150620100029234115062010RL724394655BR  0000024062010103119-6    000000002000000019
100002259800292846170620100029284617062010RL724399604BR  0000024062010103220-1    000000002000000020
100002260000292847170620100029284717062010RL724399618BR  0000024062010103220-2    000000002000000021
100002270800292849170620100029284917062010RL724399635BR  0000024062010103220-4    000000002000000022
100002271900292850170620100029285017062010RL724399649BR  0000024062010103220-5    000000002000000023
100002272000292851170620100029285117062010RL724399652BR  0000024062010103220-6    000000002000000024
100002272300293080180620100029308018062010RL724402665BR  0000024062010103354-1    000000002000000025
9000024                                                                                       000026
