0RETORNONOTIFICACAO ELETRONICA        28032011OCOR                                            000001
100002630900488296140320110048829614032011RL893927216BR  0000028032011124338-4    000000002000000002
100002647200488317140320110048831714032011RL893927423BR  0000028032011124339-2    000000002000000003
100002659700488333140320110048833314032011RL893927587BR  0000028032011124339-18   000000002000000004
100002661800488343140320110048834314032011RL893927689BR  0000028032011124340-5    000000002000000005
100002664800488348140320110048834814032011RL893927732BR  0000028032011124340-10   000000002000000006
100002665200488352140320110048835214032011RL893927777BR  0000028032011124341-4    000000002000000007
100002665400488354140320110048835414032011RL893927794BR  0000028032011124341-6    000000002000000008
100002668200488357140320110048835714032011RL893927825BR  0002328032011124443-2    000000002000000009
100002668500488360140320110048836014032011RL893927851BR  0000028032011124601-2    000000002000000010
100002665800489849160320110048984916032011RL893938766BR  0002328032011124747-5    000000002000000011
100002665900489850160320110048985016032011RL893938770BR  0002328032011124747-6    000000002000000012
100002667500489853160320110048985316032011RL893938806BR  0000028032011124747-9    000000002000000013
100002670600489855160320110048985516032011RL893938823BR  0000028032011124747-11   000000002000000014
100002672300490946180320110049094618032011RL893947944BR  0000028032011124919-4    000000002000000015
9000014                                                                                       000016
