0RETORNONOTIFICACAO ELETRONICA        15072010OCOR                                            000001
100002298800300171060720100030017106072010RL751209843BR  0000015072010104778-1    000000002000000002
100002299800300172060720100030017206072010RL751209857BR  0000015072010104778-2    000000002000000003
100002299900300173060720100030017306072010RL751209865BR  0000015072010104778-3    000000002000000004
100002300000300174060720100030017406072010RL751209874BR  0000015072010104778-4    000000002000000005
100002302300300175060720100030017506072010RL751209888BR  0000015072010104778-5    000000002000000006
100002302400300176060720100030017606072010RL751209891BR  0000015072010104778-6    000000002000000007
100002302600300178060720100030017806072010RL751209914BR  0000015072010104869-2    000000002000000008
100002302700300179060720100030017906072010RL751209928BR  0000015072010104869-3    000000002000000009
100002303000300182060720100030018206072010RL751209959BR  0000015072010104869-6    000000002000000010
100002305500300185060720100030018506072010RL751209980BR  0000015072010104869-10   000000002000000011
100002305600300186060720100030018606072010RL751209993BR  0000215072010104869-11   000000002000000012
100002305700300999070720100030099907072010RL751218125BR  0000015072010105011-1    000000002000000013
100002305900301001070720100030100107072010RL751218142BR  0000015072010105011-3    000000002000000014
100002306000301002070720100030100207072010RL751218156BR  0000015072010105011-4    000000002000000015
100002308700301004070720100030100407072010RL751218173BR  0000015072010105152-2    000000002000000016
100002308800301005070720100030100507072010RL751218187BR  0000015072010105152-10   000000002000000017
100002308900301006070720100030100607072010RL751218195BR  0000015072010105152-12   000000002000000018
100002301800301342080720100030134208072010RL751221455BR  0000015072010105281-1    000000002000000019
100002304900301343080720100030134308072010RL751221464BR  0000015072010105281-2    000000002000000020
100002309200301346080720100030134608072010RL751221495BR  0000015072010105281-5    000000002000000021
9000020                                                                                       000022
