0RETORNONOTIFICACAO ELETRONICA        22072010OCOR                                            000001
100002301300303207130720100030320713072010RL751240021BR  0000022072010105493-1    000000002000000002
100002302000303208130720100030320813072010RL751240035BR  0000022072010105493-2    000000002000000003
100002302200303209130720100030320913072010RL751240049BR  0000022072010105493-3    000000002000000004
100002304000303210130720100030321013072010RL751240052BR  0000022072010105493-4    000000002000000005
100002307000303211130720100030321113072010RL751240066BR  0000022072010105493-5    000000002000000006
100002308000303212130720100030321213072010RL751240070BR  0000022072010105493-6    000000002000000007
100002311300303213130720100030321313072010RL751240083BR  0000022072010105493-7    000000002000000008
100002311400303214130720100030321413072010RL751240097BR  0000022072010105493-9    000000002000000009
100002313000303215130720100030321513072010RL751240106BR  0000022072010105493-10   000000002000000010
100002311600303216130720100030321613072010RL751240110BR  0000022072010105495-1    000000002000000011
100002312200303217130720100030321713072010RL751240123BR  0000022072010105495-2    000000002000000012
100002312300303218130720100030321813072010RL751240137BR  0000022072010105495-3    000000002000000013
100002315100303219130720100030321913072010RL751240145BR  0000022072010105495-4    000000002000000014
100002316200303221130720100030322113072010RL751240168BR  0000022072010105495-6    000000002000000015
100002318300303222130720100030322213072010RL751240171BR  0000022072010105648-1    000000002000000016
100002320500303223130720100030322313072010RL751240185BR  0002322072010105648-2    000000002000000017
100002320600303224130720100030322413072010RL751240199BR  0000022072010105648-5    000000002000000018
100002320700303225130720100030322513072010RL751240208BR  0000022072010105648-6    000000002000000019
100002318100304231160720100030423116072010RL751250165BR  0000022072010105798-2    000000002000000020
100002320800304233160720100030423316072010RL751250182BR  0000022072010105798-4    000000002000000021
100002321100304236160720100030423616072010RL751250219BR  0000022072010105798-7    000000002000000022
100002321200304237160720100030423716072010RL751250222BR  0000022072010105798-8    000000002000000023
100002321600304241160720100030424116072010RL751250267BR  0000022072010105798-22   000000002000000024
100002321700304242160720100030424216072010RL751250275BR  0000022072010105933-1    000000002000000025
9000024                                                                                       000026
