0RETORNONOTIFICACAO ELETRONICA        17092010OCOR                                            000001
100002400800389653100920100038965310092010RL793212239BR  0000017092010110611-4    000000002000000002
100002401000389655100920100038965510092010RL793212256BR  0000017092010110611-6    000000002000000003
100002401100389656100920100038965610092010RL793212260BR  0000017092010110611-7    000000002000000004
100002401200389657100920100038965710092010RL793212273BR  0000017092010110611-8    000000002000000005
100002401300389658100920100038965810092010RL793212287BR  0000017092010110611-11   000000002000000006
100002403700389660100920100038966010092010RL793212300BR  0000117092010110611-13   000000002000000007
100002403800389661100920100038966110092010RL793212313BR  0000117092010110611-14   000000002000000008
100002403900389662100920100038966210092010RL793212327BR  0000117092010110611-15   000000002000000009
100002404000389663100920100038966310092010RL793212335BR  0000017092010110611-16   000000002000000010
100002404200389665100920100038966510092010RL793212358BR  0000017092010110612-1    000000002000000011
100002404400389667100920100038966710092010RL793212375BR  0000017092010110612-5    000000002000000012
100002404600389669100920100038966910092010RL793212392BR  0000017092010110612-7    000000002000000013
100002404700389670100920100038967010092010RL793212401BR  0000017092010110612-8    000000002000000014
9000013                                                                                       000015
