0RETORNONOTIFICACAO ELETRONICA        10062010OCOR                                            000001
100002181600287174310520100028717431052010RL705279997BR  000081006201096528-2     000000002000000002
100002181700287175310520100028717531052010RL705280006BR  000001006201096528-3     000000002000000003
100002188600287184310520100028718431052010RL705280099BR  000001006201096929-11    000000002000000004
100002191700287187310520100028718731052010RL705280125BR  000001006201097323-1     000000002000000005
100002191800287188310520100028718831052010RL705280139BR  000001006201097323-2     000000002000000006
100002192200287192310520100028719231052010RL705280173BR  000001006201097323-6     000000002000000007
100002192300287193310520100028719331052010RL705280187BR  000001006201097323-17    000000002000000008
100002193100287194310520100028719431052010RL705280195BR  000001006201097323-18    000000002000000009
100002229100287195310520100028719531052010RL705280200BR  0000010062010101308-1    000000002000000010
100002234000287203310520100028720331052010RL705280289BR  0000010062010101308-9    000000002000000011
100002235700287210310520100028721031052010RL705280350BR  0000010062010101351-5    000000002000000012
100002245500288134020620100028813402062010RL724352791BR  0000010062010101943-1    000000002000000013
100002245800288137020620100028813702062010RL724352828BR  0000010062010101943-5    000000002000000014
100002245900288138020620100028813802062010RL724352831BR  0000010062010101943-6    000000002000000015
100002246000288139020620100028813902062010RL724352845BR  0000010062010101943-7    000000002000000016
9000015                                                                                       000017
