0RETORNONOTIFICACAO ELETRONICA        08062010OCOR                                            000001
100002214100282996210520100028299621052010RL705238357BR  0000008062010100204-4    000000002000000002
100002174900284593250520100028459325052010RL705254261BR  000000806201095252-3     000000002000000003
100002225900284605250520100028460525052010RL705254385BR  0000008062010100444-6    000000002000000004
100002233700285829270520100028582927052010RL705266551BR  0000508062010101156-8    000000002000000005
100002181500287173310520100028717331052010RL705279983BR  000000806201096528-1     000000002000000006
100002181800287176310520100028717631052010RL705280010BR  000000806201096528-4     000000002000000007
100002181900287177310520100028717731052010RL705280023BR  000000806201096528-5     000000002000000008
100002182000287178310520100028717831052010RL705280037BR  000000806201096528-13    000000002000000009
100002183000287179310520100028717931052010RL705280045BR  000000806201096585-1     000000002000000010
100002185200287180310520100028718031052010RL705280054BR  000000806201096585-2     000000002000000011
100002185300287181310520100028718131052010RL705280068BR  000000806201096585-3     000000002000000012
100002186100287182310520100028718231052010RL705280071BR  000000806201096585-6     000000002000000013
100002191600287183310520100028718331052010RL705280085BR  000000806201096929-1     000000002000000014
100002188700287185310520100028718531052010RL705280108BR  000000806201096929-12    000000002000000015
100002188800287186310520100028718631052010RL705280111BR  000000806201096929-13    000000002000000016
100002191900287189310520100028718931052010RL705280142BR  000000806201097323-3     000000002000000017
100002192000287190310520100028719031052010RL705280156BR  000000806201097323-4     000000002000000018
100002192100287191310520100028719131052010RL705280160BR  000000806201097323-5     000000002000000019
100002229500287196310520100028719631052010RL705280213BR  0000008062010101308-2    000000002000000020
100002231600287197310520100028719731052010RL705280227BR  0000008062010101308-3    000000002000000021
100002233800287201310520100028720131052010RL705280261BR  0000008062010101308-7    000000002000000022
100002233900287202310520100028720231052010RL705280275BR  0000008062010101308-8    000000002000000023
100002234100287204310520100028720431052010RL705280292BR  0000008062010101308-13   000000002000000024
100002234300287206310520100028720631052010RL705280315BR  0000808062010101351-1    000000002000000025
100002234400287207310520100028720731052010RL705280329BR  0000008062010101351-2    000000002000000026
100002234500287208310520100028720831052010RL705280332BR  0002308062010101351-3    000000002000000027
100002236500287211310520100028721131052010RL705280363BR  0000008062010101351-6    000000002000000028
100002236600287212310520100028721231052010RL705280377BR  0000008062010101351-7    000000002000000029
100002245600288135020620100028813502062010RL724352805BR  0000008062010101943-2    000000002000000030
9000029                                                                                       000031
