0RETORNONOTIFICACAO ELETRONICA        21052010OCOR                                            000001
100002194200277826100520100027782610052010RL696163769BR  000002105201097594-1     000000002000000002
100002194300277827100520100027782710052010RL696163772BR  000002105201097594-2     000000002000000003
100002194700277831100520100027783110052010RL696163812BR  000002105201097594-7     000000002000000004
100002195200277836100520100027783610052010RL696163865BR  000002105201097799-1     000000002000000005
100002195300277837100520100027783710052010RL696163874BR  000002105201097799-2     000000002000000006
100002197400277838100520100027783810052010RL696163888BR  000002105201098046-1     000000002000000007
100002197500277839100520100027783910052010RL696163891BR  000002105201098046-2     000000002000000008
100002197600277840100520100027784010052010RL696163905BR  000002105201098046-3     000000002000000009
100002197900277843100520100027784310052010RL696163931BR  000002105201098046-6     000000002000000010
100002201300277847100520100027784710052010RL696163976BR  000002105201098271-3     000000002000000011
100002202800277851100520100027785110052010RL696164013BR  000002105201098271-14    000000002000000012
100002203300277852100520100027785210052010RL696164027BR  000002105201098271-15    000000002000000013
100002203500277853100520100027785310052010RL696164035BR  000002105201098271-16    000000002000000014
100002203600277854100520100027785410052010RL696164044BR  000002105201098271-17    000000002000000015
9000014                                                                                       000016
