0RETORNONOTIFICACAO ELETRONICA        31052010OCOR                                            000001
100002181300277824100520100027782410052010RL696163741BR  000003105201096200-1     000000002000000002
100002211200282201180520100028220118052010RL696210336BR  000003105201099312-1     000000002000000003
100002217400282932200520100028293220052010RL705237731BR  0000031052010100169-10   000000002000000004
100002217500282933200520100028293320052010RL705237745BR  0000031052010100169-11   000000002000000005
100002219400282937200520100028293720052010RL705237780BR  0000031052010100171-4    000000002000000006
100002219700282940200520100028294020052010RL705237816BR  0000031052010100171-7    000000002000000007
100002153800282960210520100028296021052010RL705237997BR  000003105201093517-3     000000002000000008
100002154200282964210520100028296421052010RL705238034BR  000003105201093517-7     000000002000000009
100002165400282979210520100028297921052010RL705238184BR  000003105201094424-8     000000002000000010
100002174500282988210520100028298821052010RL705238272BR  000003105201095042-3     000000002000000011
100002090700282990210520100028299021052010RL705238290BR  000003105201089202-4     000000002000000012
100002090800282991210520100028299121052010RL705238309BR  000083105201089202-6     000000002000000013
100002220600283009210520100028300921052010RL705238480BR  0000031052010100204-26   000000002000000014
100002223000283013210520100028301321052010RL705238520BR  0000031052010100204-30   000000002000000015
100002224200283015210520100028301521052010RL705238547BR  0000031052010100204-43   000000002000000016
9000015                                                                                       000017
