0RETORNONOTIFICACAO ELETRONICA        02092011OCOR                                            000001
100002963500598760230820110059876023082011RM948233896BR  0000002092011141794-5    000000002000000002
100002963700598762230820110059876223082011RM948233919BR  0001202092011141794-7    000000002000000003
100002964900598768230820110059876823082011JL014569171BR  0000002092011141794-13   000000002000000004
100002963300598770230820110059877023082011JL014569199BR  0000002092011141798-2    000000002000000005
100002965000598771230820110059877123082011RM948233953BR  0000002092011141798-3    000000002000000006
100002965100598772230820110059877223082011RM948233967BR  0000002092011141798-4    000000002000000007
100002965200598773230820110059877323082011RM948233975BR  0000002092011141798-5    000000002000000008
100002965400598775230820110059877523082011RM948233998BR  0000202092011141798-7    000000002000000009
100002959000613096260820110061309626082011JL014571921BR  0000002092011142149-1    000000002000000010
100002967400613097260820110061309726082011JL014571935BR  0000001092011142149-2    000000002000000011
100002968900613098260820110061309826082011JL014571949BR  0000002092011142149-3    000000002000000012
100002969000613099260820110061309926082011RM948300216BR  0000002092011142149-4    000000002000000013
100002976000613102260820110061310226082011RM948300233BR  0000002092011142150-1    000000002000000014
100002977100613106260820110061310626082011RM948300278BR  0000002092011142150-5    000000002000000015
100002977500613107260820110061310726082011RM948300281BR  0000002092011142150-6    000000002000000016
100002979400613917290820110061391729082011RM948307979BR  0000002092011142344-3    000000002000000017
9000016                                                                                       000018
