0RETORNONOTIFICACAO ELETRONICA        19052011OCOR                                            000001
100002744200529522050520110052952205052011RL964076505BR  0000019052011129591-4    000000002000000002
100002745500533307100520110053330710052011RL964110842BR  0000019052011129792-1    000000002000000003
100002746700533309100520110053330910052011RL964110860BR  0000519052011129792-3    000000002000000004
100002746800533310100520110053331010052011RL964110873BR  0000019052011129792-4    000000002000000005
100002743500533311100520110053331110052011RL964110887BR  0000019052011129955-1    000000002000000006
100002747100533312100520110053331210052011RL964110895BR  0000019052011129955-2    000000002000000007
100002747200533313100520110053331310052011RL964110900BR  0000019052011129955-3    000000002000000008
100002747600533314100520110053331410052011RL964110913BR  0000019052011129955-4    000000002000000009
100002747700533315100520110053331510052011RL964110927BR  0000019052011129955-5    000000002000000010
100002747800533316100520110053331610052011RL964110935BR  0000019052011129955-6    000000002000000011
100002748500533318100520110053331810052011RL964110958BR  0000019052011129955-8    000000002000000012
100002748600533319100520110053331910052011RL964110961BR  0000019052011129955-9    000000002000000013
100002748700533320100520110053332010052011RL964110975BR  0000019052011129955-10   000000002000000014
100002748800533321100520110053332110052011RL964110989BR  0000019052011129955-11   000000002000000015
100002748900533322100520110053332210052011RL964110992BR  0000019052011129955-12   000000002000000016
100002749000533323100520110053332310052011RL964111009BR  0000019052011129955-13   000000002000000017
100002750400533324100520110053332410052011RL964111012BR  0000019052011129955-14   000000002000000018
100002751900534330100520110053433010052011RL964123007BR  0000019052011130021-3    000000002000000019
100002752100534331100520110053433110052011RL964123015BR  0000019052011130021-4    000000002000000020
100002752600534332100520110053433210052011RL964123024BR  0000019052011130021-5    000000002000000021
100002754400534336100520110053433610052011RL964123069BR  0000019052011130021-9    000000002000000022
100002754500534337100520110053433710052011RL964123072BR  0000019052011130021-10   000000002000000023
100002755100534340100520110053434010052011RL964123109BR  0000019052011130021-13   000000002000000024
9000023                                                                                       000025
