0RETORNONOTIFICACAO ELETRONICA        20062011OCOR                                            000001
100002793600547944010620110054794401062011JL014261955BR  0000020062011132384-142  000000002000000002
100002784800551816060620110055181606062011JL014299315BR  0000020062011132965-5    000000002000000003
100002785600551817060620110055181706062011JL014299324BR  0000020062011132965-6    000000002000000004
100002802500553223090620110055322309062011JL014311952BR  0000020062011133261-10   000000002000000005
100002805800553238090620110055323809062011JL014312105BR  0000020062011133266-21   000000002000000006
100002809000554896140620110055489614062011JL014328428BR  0000020062011133662-7    000000002000000007
9000006                                                                                       000008
