0RETORNONOTIFICACAO ELETRONICA        22072011OCOR                                            000001
100002887900577808130720110057780813072011RM923804694BR  0000022072011136737-1    000000002000000002
100002893800577821130720110057782113072011RM923804822BR  0000022072011136779-10   000000002000000003
100002896200577822130720110057782213072011JL014545515BR  0000222072011136779-12   000000002000000004
100002898300578647140720110057864714072011JL014545847BR  0000022072011136957-2    000000002000000005
100002898600578650140720110057865014072011RM923812302BR  0000022072011137064-1    000000002000000006
100002891400579328180720110057932818072011JL014548358BR  0000022072011137242-8    000000002000000007
9000006                                                                                       000008
