0RETORNONOTIFICACAO ELETRONICA        05072011OCOR                                            000001
100002799800553218090620110055321809062011JL014311904BR  0000005072011133261-5    000000002000000002
100002808200554893140620110055489314062011JL014328391BR  0000005072011133662-4    000000002000000003
100002820500558732210620110055873221062011JL014364677BR  0000005072011134459-2    000000002000000004
100002820700558734210620110055873421062011JL014364694BR  0000905072011134459-6    000000002000000005
100002821100558737210620110055873721062011JL014364725BR  0000005072011134459-13   000000002000000006
100002822300558743210620110055874321062011JL014364782BR  0000005072011134461-3    000000002000000007
100002822500558745210620110055874521062011JL014364805BR  0000005072011134461-5    000000002000000008
100002822700558747210620110055874721062011JL014364822BR  0000005072011134461-7    000000002000000009
100002825400558750210620110055875021062011JL014364853BR  0000005072011134461-15   000000002000000010
100002825700558753210620110055875321062011JL014364884BR  0000005072011134461-37   000000002000000011
100002826000558754210620110055875421062011JL014364898BR  0000005072011134461-41   000000002000000012
9000011                                                                                       000013
