0RETORNONOTIFICACAO ELETRONICA        06052011OCOR                                            000001
100002609100473047080220110047304708022011RL893791147BR  0000006052011121892-5    000000002000000002
100002673400490962180320110049096218032011RL963909327BR  0000006052011125064-17   000000002000000003
100002689700503918040420110050391804042011RL963837863BR  0000006052011126825-21   000000002000000004
100002706400505552060420110050555206042011RL963852256BR  0000006052011126988-11   000000002000000005
100002706600505554060420110050555406042011RL963852273BR  0000006052011126988-13   000000002000000006
100002709100505555060420110050555506042011RL963852287BR  0000006052011126988-14   000000002000000007
100002697800507277070420110050727707042011RL963868830BR  0000006052011127186-4    000000002000000008
100002709300507288070420110050728807042011RL963868945BR  0000006052011127186-15   000000002000000009
100002693300507485070420110050748507042011RL963870864BR  0000006052011127349-5    000000002000000010
100002717400510115140420110051011514042011RL963894018BR  0000006052011127826-3    000000002000000011
100002719800510123140420110051012314042011RL963894097BR  0000006052011127826-13   000000002000000012
100002720100510125140420110051012514042011RL963894110BR  0000006052011127826-15   000000002000000013
100002721400511649180420110051164918042011RL963907799BR  0000006052011128216-1    000000002000000014
100002725100511656180420110051165618042011RL963907860BR  0000006052011128216-8    000000002000000015
100002725700511659180420110051165918042011RL963907895BR  0000006052011128216-11   000000002000000016
100002726300511662180420110051166218042011RL963907927BR  0000006052011128216-14   000000002000000017
100002727000512433200420110051243320042011RL963914667BR  0000006052011128353-5    000000002000000018
100002728900520877270420110052087727042011RL963994775BR  0000006052011128703-6    000000002000000019
100002729000520878270420110052087827042011RL963994784BR  0000006052011128703-7    000000002000000020
100002734600520886270420110052088627042011RL963994869BR  0000006052011128822-9    000000002000000021
9000020                                                                                       000022
