0RETORNONOTIFICACAO ELETRONICA        01062011OCOR                                            000001
100002770800538254190520110053825419052011RL964157133BR  0000001062011130962-2    000000002000000002
100002771900541485240520110054148524052011RL964187665BR  0000001062011131588-1    000000002000000003
100002778500541486240520110054148624052011RL964187679BR  0000001062011131588-2    000000002000000004
9000003                                                                                       000005
