0RETORNONOTIFICACAO ELETRONICA        26072011OCOR                                            000001
100002890000579324180720110057932418072011JL014548313BR  0000026072011137242-4    000000002000000002
100002905700581296210720110058129621072011RM923832956BR  0000026072011137487-2    000000002000000003
100002905800581297210720110058129721072011RM923832960BR  0000026072011137487-4    000000002000000004
9000003                                                                                       000005
