0RETORNONOTIFICACAO ELETRONICA        13092011OCOR                                            000001
100002809600554897140620110055489714062011RM948214631BR  0000013092011133662-8    000000002000000002
100002979700613918290820110061391829082011RM948307982BR  0000013092011142344-4    000000002000000003
100002996600616086010920110061608601092011RM948326686BR  0000713092011142820-4    000000002000000004
100002987400616694020920110061669402092011RM948331607BR  0000013092011143116-1    000000002000000005
100002992900616706020920110061670602092011RM948331655BR  0000013092011143116-13   000000002000000006
100002998000618081050920110061808105092011RM948344764BR  0000013092011143202-1    000000002000000007
100002998200618083050920110061808305092011RM948344781BR  0000013092011143202-3    000000002000000008
100002998300618084050920110061808405092011RM948344795BR  0000013092011143202-4    000000002000000009
100002999100621278080920110062127808092011RM948373893BR  0000013092011143513-3    000000002000000010
100002999200621279080920110062127908092011RM948373902BR  0000013092011143513-4    000000002000000011
100002999400621281080920110062128108092011RM948373920BR  0000013092011143513-6    000000002000000012
100002999800621284080920110062128408092011RM948373955BR  0000013092011143513-9    000000002000000013
100003000500621293080920110062129308092011RM948374015BR  0000013092011143678-11   000000002000000014
9000013                                                                                       000015
