0RETORNONOTIFICACAO ELETRONICA        18052011OCOR                                            000001
100002703300527483030520110052748303052011RL964057798BR  0000818052011127503-5    000000002000000002
100002744600529526050520110052952605052011RL964076545BR  0002318052011129591-10   000000002000000003
100002746000531467060520110053146706052011RL964094760BR  0000018052011129734-6    000000002000000004
100002746100531468060520110053146806052011RL964094773BR  0000018052011129734-7    000000002000000005
100002746500531469060520110053146906052011RL964094787BR  0000118052011129734-8    000000002000000006
9000005                                                                                       000007
