0RETORNONOTIFICACAO ELETRONICA        15062011OCOR                                            000001
100002790000547901010620110054790101062011JL014261522BR  0000015062011132384-1    000000002000000002
100002791300547921010620110054792101062011JL014261726BR  0000015062011132384-87   000000002000000003
100002792300547931010620110054793101062011JL014261828BR  0000015062011132384-126  000000002000000004
100002793800547946010620110054794601062011JL014261978BR  0000015062011132384-146  000000002000000005
100002786300551818060620110055181806062011JL014299338BR  0000015062011132965-7    000000002000000006
100002797100551823060620110055182306062011JL014299386BR  0000015062011132965-12   000000002000000007
100002783000553213090620110055321309062011JL014311855BR  0000015062011132965-1    000000002000000008
100002797000553214090620110055321409062011JL014311864BR  0000015062011133261-1    000000002000000009
100002798900553215090620110055321509062011JL014311878BR  0000015062011133261-2    000000002000000010
100002799700553217090620110055321709062011JL014311895BR  0000015062011133261-4    000000002000000011
100002800600553219090620110055321909062011JL014311918BR  0000015062011133261-6    000000002000000012
100002801700553222090620110055322209062011JL014311949BR  0000015062011133261-9    000000002000000013
100002804900553229090620110055322909062011JL014312017BR  0000015062011133266-5    000000002000000014
100002805100553231090620110055323109062011JL014312034BR  0000015062011133266-11   000000002000000015
100002805200553232090620110055323209062011JL014312048BR  0000015062011133266-12   000000002000000016
100002805300553233090620110055323309062011JL014312051BR  0000015062011133266-15   000000002000000017
100002805500553235090620110055323509062011JL014312079BR  0000015062011133266-17   000000002000000018
100002805600553236090620110055323609062011JL014312082BR  0000115062011133266-19   000000002000000019
9000018                                                                                       000020
