0RETORNONOTIFICACAO ELETRONICA        28062011OCOR                                            000001
100002806800554883140620110055488314062011JL014328290BR  0000028062011133660-8    000000002000000002
100002807600554887140620110055488714062011JL014328330BR  0000028062011133660-16   000000002000000003
100002817600557358200620110055735820062011JL014351744BR  0000028062011134198-1    000000002000000004
100002820600558733210620110055873321062011JL014364685BR  0000028062011134459-5    000000002000000005
100002820800558735210620110055873521062011JL014364703BR  0000028062011134459-10   000000002000000006
100002820900558736210620110055873621062011JL014364717BR  0000028062011134459-11   000000002000000007
100002821400558738210620110055873821062011JL014364734BR  0000028062011134459-14   000000002000000008
100002821600558739210620110055873921062011JL014364748BR  0000028062011134459-15   000000002000000009
100002821900558740210620110055874021062011JL014364751BR  0000028062011134459-16   000000002000000010
100002822200558742210620110055874221062011JL014364779BR  0000028062011134461-2    000000002000000011
100002822400558744210620110055874421062011JL014364796BR  0000028062011134461-4    000000002000000012
100002822600558746210620110055874621062011JL014364819BR  0000028062011134461-6    000000002000000013
100002825300558749210620110055874921062011JL014364840BR  0000028062011134461-11   000000002000000014
100002825500558751210620110055875121062011JL014364867BR  0000028062011134461-21   000000002000000015
100002825600558752210620110055875221062011JL014364875BR  0000028062011134461-31   000000002000000016
9000015                                                                                       000017
