0RETORNONOTIFICACAO ELETRONICA        13012011OCOR                                            000001
100002551100439905221220100043990522122010RL847913489BR  0000813012011118399-6    000000002000000002
100002550100446813030120110044681303012011RL893546977BR  0000012012011118797-3    000000002000000003
100002551700446816030120110044681603012011RL893547005BR  0002313012011118797-6    000000002000000004
100002552700446821030120110044682103012011RL893547059BR  0000013012011118797-11   000000002000000005
100002567800446831030120110044683103012011RL893547155BR  0000112012011118797-26   000000002000000006
9000005                                                                                       000007
