0RETORNONOTIFICACAO ELETRONICA        23082011OCOR                                            000001
100002943100591814040820110059181404082011JL014557672BR  0001223082011139600-57   000000002000000002
100002952500593961110820110059396111082011RM923795365BR  0000723082011140351-1    000000002000000003
100002954300594541120820110059454112082011RM923800383BR  0000023082011140617-6    000000002000000004
100002948300595148160820110059514816082011JL014563457BR  0000023082011140762-1    000000002000000005
100002949600595149160820110059514916082011JL014563465BR  0000023082011140762-2    000000002000000006
100002957200595156160820110059515616082011JL014563488BR  0000023082011140762-11   000000002000000007
100002959800596293170820110059629317082011RM948214322BR  0000023082011141084-1    000000002000000008
100002961500597053180820110059705318082011RM948218956BR  0000023082011141281-1    000000002000000009
100002961600597054180820110059705418082011RM948218960BR  0000023082011141281-2    000000002000000010
100002961700597055180820110059705518082011RM948218973BR  0000023082011141281-3    000000002000000011
9000010                                                                                       000012
