0RETORNONOTIFICACAO ELETRONICA        26042011OCOR                                            000001
100002678600503905040420110050390504042011RL963837735BR  0000026042011126825-8    000000002000000002
100002678700503906040420110050390604042011RL963837744BR  0000026042011126825-9    000000002000000003
100002680500503907040420110050390704042011RL963837758BR  0000026042011126825-10   000000002000000004
100002682700503911040420110050391104042011RL963837792BR  0000026042011126825-14   000000002000000005
100002690700503921040420110050392104042011RL963837894BR  0000026042011126825-24   000000002000000006
100002706200505550060420110050555006042011RL963852239BR  0000026042011126988-8    000000002000000007
100002695300507487070420110050748707042011RL963870881BR  0000026042011127349-7    000000002000000008
100002698200507489070420110050748907042011RL963870904BR  0000026042011127349-9    000000002000000009
100002699100507490070420110050749007042011RL963870918BR  0000026042011127349-10   000000002000000010
100002699500507493070420110050749307042011RL963870949BR  0000026042011127349-13   000000002000000011
100002709700507496070420110050749607042011RL963870970BR  0000026042011127349-16   000000002000000012
100002709800507497070420110050749707042011RL963870983BR  0000026042011127349-18   000000002000000013
100002709900507498070420110050749807042011RL963870997BR  0000026042011127349-19   000000002000000014
100002708600508231110420110050823111042011RL963877425BR  0000526042011127617-21   000000002000000015
100002711200508232110420110050823211042011RL963877434BR  0000026042011127617-22   000000002000000016
100002714900508234110420110050823411042011RL963877451BR  0000026042011127617-25   000000002000000017
100002717800510116140420110051011614042011RL963894021BR  0000026042011127826-4    000000002000000018
100002718000510118140420110051011814042011RL963894049BR  0000026042011127826-7    000000002000000019
100002718900510121140420110051012114042011RL963894070BR  0000026042011127826-11   000000002000000020
100002720500510127140420110051012714042011RL963894137BR  0000026042011127827-7    000000002000000021
100002723500511025150420110051102515042011RL963902142BR  0000026042011128062-1    000000002000000022
100002723700511027150420110051102715042011RL963902160BR  0000026042011128062-5    000000002000000023
100002724400511655180420110051165518042011RL963907856BR  0000026042011128216-7    000000002000000024
9000023                                                                                       000025
