0RETORNONOTIFICACAO ELETRONICA        08102010OCOR                                            000001
100002423200397020290920100039702029092010RL793285678BR  0000008102010112437-2    000000002000000002
100002423100397835011020100039783501102010RL793293802BR  0000008102010112554-1    000000002000000003
100002431300397837011020100039783701102010RL793293820BR  0000008102010112554-3    000000002000000004
100002440900397846011020100039784601102010RL793293918BR  0000008102010112554-13   000000002000000005
100002441000397847011020100039784701102010RL793293921BR  0000008102010112554-14   000000002000000006
100002441100397848011020100039784801102010RL793293935BR  0000008102010112554-15   000000002000000007
9000006                                                                                       000008
