0RETORNONOTIFICACAO ELETRONICA        07122010OCOR                                            000001
100002433200397838011020100039783801102010RL847820186BR  0000007122010112554-4    000000002000000002
100002438800397840011020100039784001102010RL847820190BR  0000007122010112554-6    000000002000000003
100002506600429452231120100042945223112010RL847811034BR  0002307122010116140-2    000000002000000004
100002504900429472231120100042947223112010RL847811238BR  0000007122010115820-14   000000002000000005
100002503800429476231120100042947623112010RL847811272BR  0002307122010115909-3    000000002000000006
100002505600429483231120100042948323112010RL847811343BR  0000007122010115909-12   000000002000000007
100002510000430069241120100043006924112010RL847817195BR  0000007122010116224-7    000000002000000008
100002513800430856261120100043085626112010RL847825705BR  0000007122010116445-11   000000002000000009
100002509400431053291120100043105329112010RL847827670BR  0000007122010116554-1    000000002000000010
100002510800431054291120100043105429112010RL847827683BR  0000007122010116554-2    000000002000000011
100002511100431055291120100043105529112010RL847827697BR  0000007122010116554-3    000000002000000012
100002515800431058291120100043105829112010RL847827723BR  0000007122010116554-6    000000002000000013
100002516700431059291120100043105929112010RL847827737BR  0000507122010116554-7    000000002000000014
100002517100431060291120100043106029112010RL847827745BR  0000007122010116554-8    000000002000000015
100002517200431061291120100043106129112010RL847827754BR  0000007122010116554-9    000000002000000016
100002517500431064291120100043106429112010RL847827785BR  0000007122010116554-12   000000002000000017
100002517600431065291120100043106529112010RL847827799BR  0000007122010116554-13   000000002000000018
100002518100431066291120100043106629112010RL847827808BR  0000007122010116554-14   000000002000000019
100002518200431067291120100043106729112010RL847827811BR  0000007122010116554-15   000000002000000020
100002518300431068291120100043106829112010RL847827825BR  0000007122010116554-16   000000002000000021
100002518400431069291120100043106929112010RL847827839BR  0000007122010116554-17   000000002000000022
100002518500431070291120100043107029112010RL847827842BR  0000107122010116554-18   000000002000000023
100002518600431071291120100043107129112010RL847827856BR  0000007122010116554-19   000000002000000024
100002508100432786301120100043278630112010RL847845007BR  0000107122010116662-1    000000002000000025
100002515900432789301120100043278930112010RL847845038BR  0000007122010116662-4    000000002000000026
100002519400432790301120100043279030112010RL847845041BR  0000107122010116662-5    000000002000000027
100002519900432791301120100043279130112010RL847845055BR  0000007122010116662-6    000000002000000028
100002520000432792301120100043279230112010RL847845069BR  0000007122010116662-7    000000002000000029
100002520100432793301120100043279330112010RL847845072BR  0000007122010116662-8    000000002000000030
100002521100432794301120100043279430112010RL847845086BR  0000007122010116662-9    000000002000000031
100002521900432798301120100043279830112010RL847845126BR  0000007122010116662-16   000000002000000032
9000031                                                                                       000033
