0RETORNONOTIFICACAO ELETRONICA        04052011OCOR                                            000001
100002580400455634210120110045563421012011RL963909300BR  0000004052011120285-1    000000002000000002
100002676700491292210320110049129221032011RL963909335BR  0000004052011125197-1    000000002000000003
100002692800507481070420110050748107042011RL963870820BR  0000004052011127349-1    000000002000000004
100002699200507491070420110050749107042011RL963870921BR  0000004052011127349-11   000000002000000005
100002715700508236110420110050823611042011RL963877479BR  0000004052011127617-28   000000002000000006
100002715800508237110420110050823711042011RL963877482BR  0000004052011127617-29   000000002000000007
100002718200510120140420110051012014042011RL963894066BR  0000004052011127826-9    000000002000000008
100002719700510122140420110051012214042011RL963894083BR  0000004052011127826-12   000000002000000009
100002720900510781150420110051078115042011RL963899837BR  0000004052011127942-3    000000002000000010
100002724300511654180420110051165418042011RL963907842BR  0000004052011128216-6    000000002000000011
100002726600512429200420110051242920042011RL963914622BR  0000004052011128353-1    000000002000000012
9000011                                                                                       000013
