0RETORNONOTIFICACAO ELETRONICA        02082011OCOR                                            000001
100002895900579331180720110057933118072011RM923816176BR  0000002082011137242-11   000000002000000002
100002915300585592260720110058559226072011RM923726586BR  0000002082011138292-3    000000002000000003
100002917200585596260720110058559626072011RM923726609BR  0000002082011138292-7    000000002000000004
100002917600587479280720110058747928072011RM923742941BR  0000002082011138527-2    000000002000000005
9000004                                                                                       000006
