0RETORNONOTIFICACAO ELETRONICA        20052011OCOR                                            000001
100002755400535200120520110053520012052011RL964130263BR  0000020052011130234-1    000000002000000002
100002755500535201120520110053520112052011RL964130277BR  0000020052011130234-2    000000002000000003
100002755700535202120520110053520212052011RL964130285BR  0000020052011130234-3    000000002000000004
100002755800535203120520110053520312052011RL964130294BR  0000020052011130234-4    000000002000000005
100002755900535204120520110053520412052011RL964130303BR  0000020052011130234-5    000000002000000006
100002756000535205120520110053520512052011RL964130317BR  0000020052011130234-6    000000002000000007
9000006                                                                                       000008
