0RETORNONOTIFICACAO ELETRONICA        05112010OCOR                                            000001
100002460700403167191020100040316719102010RL793348259BR  0000005112010113627-2    000000002000000002
100002463900404216201020100040421620102010RL793358741BR  0000005112010113727-2    000000002000000003
100002465100404217201020100040421720102010RL793358755BR  0000005112010113727-3    000000002000000004
100002465200404218201020100040421820102010RL793358769BR  0000005112010113727-4    000000002000000005
100002468500415631261020100041563126102010RL847672916BR  0000005112010114132-1    000000002000000006
100002469400415637261020100041563726102010RL847672978BR  0000005112010114132-7    000000002000000007
100002471700415639261020100041563926102010RL847672995BR  0000005112010114132-9    000000002000000008
100002472100415643261020100041564326102010RL847673032BR  0000005112010114132-13   000000002000000009
100002472200415644261020100041564426102010RL847673046BR  0000005112010114132-14   000000002000000010
100002473000415648261020100041564826102010RL847673085BR  0000005112010114132-18   000000002000000011
100002473100415649261020100041564926102010RL847673094BR  0000005112010114132-19   000000002000000012
9000011                                                                                       000013
