0RETORNONOTIFICACAO ELETRONICA        07062011OCOR                                            000001
100002785300547894010620110054789401062011JL014261451BR  0000007062011132213-1    000000002000000002
100002787600547903010620110054790301062011JL014261540BR  0000007062011132384-6    000000002000000003
100002787800547905010620110054790501062011JL014261567BR  0000007062011132384-10   000000002000000004
100002787900547906010620110054790601062011JL014261575BR  0000007062011132384-11   000000002000000005
100002788000547907010620110054790701062011JL014261584BR  0000007062011132384-12   000000002000000006
100002788100547908010620110054790801062011JL014261598BR  0000007062011132384-14   000000002000000007
100002790300547911010620110054791101062011JL014261624BR  0000007062011132384-27   000000002000000008
100002791400547922010620110054792201062011JL014261730BR  0000007062011132384-93   000000002000000009
100002792600547934010620110054793401062011JL014261859BR  0000007062011132384-129  000000002000000010
100002794000547948010620110054794801062011JL014261995BR  0000007062011132384-150  000000002000000011
100002794200547950010620110054795001062011JL014262015BR  0000007062011132535-2    000000002000000012
100002794400547952010620110054795201062011JL014262032BR  0000007062011132535-6    000000002000000013
100002790300548126010620110054812601062011JL014263262BR  0000007062011132384-48   000000002000000014
9000013                                                                                       000015
