0RETORNONOTIFICACAO ELETRONICA        12072011OCOR                                            000001
100002827300569683040720110056968304072011JL014470675BR  0000512072011135396-1    000000002000000002
100002827400569684040720110056968404072011JL014470684BR  0000212072011135396-2    000000002000000003
100002828800569687040720110056968704072011JL014470715BR  0000012072011135396-5    000000002000000004
100002832100569692040720110056969204072011JL014470769BR  0000012072011135396-10   000000002000000005
100002832300569694040720110056969404072011JL014470786BR  0000012072011135396-12   000000002000000006
100002832400569695040720110056969504072011JL014470790BR  0000012072011135396-14   000000002000000007
100002833800569698040720110056969804072011JL014470826BR  0000012072011135396-18   000000002000000008
100002832900569700040720110056970004072011JL014470843BR  0000012072011135401-2    000000002000000009
100002836200569707040720110056970704072011JL014470914BR  0000012072011135404-6    000000002000000010
100002836900569714040720110056971404072011JL014470980BR  0002312072011135404-14   000000002000000011
100002837700569723040720110056972304072011JL014471075BR  0000012072011135406-9    000000002000000012
100002840000569726040720110056972604072011JL014471101BR  0000012072011135695-1    000000002000000013
100002840200569728040720110056972804072011JL014471129BR  0000012072011135695-3    000000002000000014
100002840300569729040720110056972904072011JL014471132BR  0000212072011135695-4    000000002000000015
100002843400569735040720110056973504072011JL014471194BR  0000012072011135717-1    000000002000000016
100002843500569736040720110056973604072011JL014471203BR  0000012072011135717-3    000000002000000017
100002844700572871050720110057287105072011JL014501832BR  0000012072011135910-1    000000002000000018
100002845000572874050720110057287405072011JL014501863BR  0000012072011135910-4    000000002000000019
100002845100572875050720110057287505072011JL014501877BR  0000012072011135910-5    000000002000000020
100002850300572877050720110057287705072011JL014501894BR  0000012072011135910-7    000000002000000021
100002850500572879050720110057287905072011JL014501917BR  0002312072011135910-21   000000002000000022
100002850700572881050720110057288105072011JL014501934BR  0000012072011135910-30   000000002000000023
100002850800572882050720110057288205072011JL014501948BR  0000112072011135910-39   000000002000000024
100002851000572884050720110057288405072011JL014501965BR  0000012072011135910-61   000000002000000025
100002841400574296070720110057429607072011JL014514822BR  0000012072011136047-7    000000002000000026
100002857600574307070720110057430707072011JL014514938BR  0000012072011136047-18   000000002000000027
100002858300574312070720110057431207072011JL014514986BR  0000012072011136161-1    000000002000000028
9000027                                                                                       000029
