0RETORNONOTIFICACAO ELETRONICA        18042011OCOR                                            000001
100002700900507280070420110050728007042011RL963868865BR  0000018042011127186-7    000000002000000002
100002701300507284070420110050728407042011RL963868905BR  0000018042011127186-11   000000002000000003
100002693600507486070420110050748607042011RL963870878BR  0000018042011127349-6    000000002000000004
100002699900507494070420110050749407042011RL963870952BR  0000018042011127349-14   000000002000000005
100002710000507499070420110050749907042011RL963871003BR  0000818042011127349-21   000000002000000006
100002710300507502070420110050750207042011RL963871034BR  0000018042011127349-25   000000002000000007
9000006                                                                                       000008
