0RETORNONOTIFICACAO ELETRONICA        14062011OCOR                                            000001
100002783500546342300520110054634230052011JL014246295BR  0000814062011132077-3    000000002000000002
100002785200546343300520110054634330052011JL014246304BR  0000014062011132077-4    000000002000000003
100002791100547919010620110054791901062011JL014261709BR  0000014062011132384-72   000000002000000004
100002791600547924010620110054792401062011JL014261757BR  0000014062011132384-100  000000002000000005
100002791900547927010620110054792701062011JL014261788BR  0000014062011132384-113  000000002000000006
100002792200547930010620110054793001062011JL014261814BR  0000014062011132384-125  000000002000000007
100002792700547935010620110054793501062011JL014261862BR  0000014062011132384-130  000000002000000008
100002798000551811060620110055181106062011JL014299267BR  0000014062011132961-3    000000002000000009
100002783200551813060620110055181306062011JL014299284BR  0000014062011132965-2    000000002000000010
100002783600551814060620110055181406062011JL014299298BR  0000014062011132965-3    000000002000000011
100002784200551815060620110055181506062011JL014299307BR  0000014062011132965-4    000000002000000012
100002802700551827060620110055182706062011JL014299426BR  0000014062011132965-16   000000002000000013
9000012                                                                                       000014
