0RETORNONOTIFICACAO ELETRONICA        19012011OCOR                                            000001
100002520500432927011220100043292701122010RL893549576BR  0000019012011116771-4    000000002000000002
100002572700449784100120110044978410012011RL893572800BR  0000019012011119253-2    000000002000000003
100002572900449786100120110044978610012011RL893572827BR  0000019012011119253-5    000000002000000004
100002554800449787100120110044978710012011RL893572835BR  0000519012011119255-1    000000002000000005
100002554900449788100120110044978810012011RL893572844BR  0000519012011119255-2    000000002000000006
100002555200449790100120110044979010012011RL893572861BR  0000019012011119255-4    000000002000000007
100002558300449791100120110044979110012011RL893572875BR  0000019012011119255-5    000000002000000008
100002559000449794100120110044979410012011RL893572901BR  0000019012011119255-8    000000002000000009
100002559400449795100120110044979510012011RL893572915BR  0000019012011119255-9    000000002000000010
100002561300449797100120110044979710012011RL893572932BR  0000019012011119255-11   000000002000000011
100002562800449800100120110044980010012011RL893572963BR  0000019012011119255-14   000000002000000012
100002562900449801100120110044980110012011RL893572977BR  0000019012011119255-15   000000002000000013
100002575700449802100120110044980210012011RL893572985BR  0000019012011119257-1    000000002000000014
100002575900449804100120110044980410012011RL893573005BR  0000019012011119258-1    000000002000000015
100002576000449805100120110044980510012011RL893573014BR  0000019012011119258-2    000000002000000016
100002576100449806100120110044980610012011RL893573028BR  0000019012011119258-3    000000002000000017
100002576200449807100120110044980710012011RL893573031BR  0000019012011119258-5    000000002000000018
100002579700450800120120110045080012012011RL893582081BR  0000019012011119559-2    000000002000000019
100002579800450801120120110045080112012011RL893582095BR  0000019012011119559-5    000000002000000020
100002579900450802120120110045080212012011RL893582104BR  0000019012011119559-6    000000002000000021
100002580000450803120120110045080312012011RL893582118BR  0000019012011119559-7    000000002000000022
100002580100450804120120110045080412012011RL893582121BR  0000219012011119559-8    000000002000000023
100002580200450805120120110045080512012011RL893582135BR  0000019012011119559-9    000000002000000024
100002580300450806120120110045080612012011RL893582149BR  0000019012011119559-10   000000002000000025
9000024                                                                                       000026
