0RETORNONOTIFICACAO ELETRONICA        10112010OCOR                                            000001
100002470100412204251020100041220425102010RL847638680BR  0000010112010114044-6    000000002000000002
100002478800421114011120100042111401112010RL847727800BR  0000010112010114561-3    000000002000000003
100002478900421115011120100042111501112010RL847727813BR  0000010112010114561-4    000000002000000004
100002479000421116011120100042111601112010RL847727827BR  0000010112010114561-5    000000002000000005
100002479700423372041120100042337204112010RL847750366BR  0000010112010114701-1    000000002000000006
100002481400423380041120100042338004112010RL847750445BR  0000010112010114701-9    000000002000000007
100002485300423396041120100042339604112010RL847750600BR  0000010112010114702-6    000000002000000008
100002488000423405041120100042340504112010RL847750692BR  0000010112010114861-8    000000002000000009
100002488400423409041120100042340904112010RL847750732BR  0000010112010114861-12   000000002000000010
9000009                                                                                       000011
