0RETORNONOTIFICACAO ELETRONICA        04082011OCOR                                            000001
100002914700585591260720110058559126072011RM923726572BR  0000004082011138292-1    000000002000000002
100002917500587478280720110058747828072011RM923742938BR  0000004082011138527-1    000000002000000003
100002919700587809290720110058780929072011RM923745483BR  0000004082011138694-1    000000002000000004
100002920200587811290720110058781129072011RM923745497BR  0000004082011138821-2    000000002000000005
100002921700587812290720110058781229072011RM923745506BR  0000004082011138821-3    000000002000000006
100002923500587817290720110058781729072011RM923745554BR  0000004082011138821-14   000000002000000007
9000006                                                                                       000008
