0RETORNONOTIFICACAO ELETRONICA        04012011OCOR                                            000001
100002546600438867201220100043886720122010RL847903739BR  0000004012011118264-2    000000002000000002
100002547300438874201220100043887420122010RL847903800BR  0000804012011118264-9    000000002000000003
100002551300439907221220100043990722122010RL847913501BR  0000804012011118399-8    000000002000000004
100002554300440696231220100044069623122010RL847921587BR  0000004012011118534-7    000000002000000005
100002554400440771231220100044077123122010RL847922335BR  0000004012011118575-1    000000002000000006
100002559800443261281220100044326128122010RL893513355BR  0000004012011118681-2    000000002000000007
100002559900443262281220100044326228122010RL893513364BR  0000004012011118681-3    000000002000000008
9000007                                                                                       000009
