0RETORNONOTIFICACAO ELETRONICA        19042011OCOR                                            000001
100002693900502010300320110050201030032011RL963820409BR  0000019042011126006-8    000000002000000002
100002706100505549060420110050554906042011RL963852225BR  0000019042011126988-7    000000002000000003
100002691800507274070420110050727407042011RL963868809BR  0000019042011127186-1    000000002000000004
100002700800507279070420110050727907042011RL963868857BR  0000019042011127186-6    000000002000000005
100002709200507287070420110050728707042011RL963868931BR  0000019042011127186-14   000000002000000006
100002709500507290070420110050729007042011RL963868962BR  0000019042011127186-18   000000002000000007
100002693000507482070420110050748207042011RL963870833BR  0000019042011127349-2    000000002000000008
100002693100507483070420110050748307042011RL963870847BR  0000019042011127349-3    000000002000000009
100002693200507484070420110050748407042011RL963870855BR  0000019042011127349-4    000000002000000010
100002698100507488070420110050748807042011RL963870895BR  0000019042011127349-8    000000002000000011
100002700700507495070420110050749507042011RL963870966BR  0000019042011127349-15   000000002000000012
100002710100507500070420110050750007042011RL963871017BR  0000019042011127349-22   000000002000000013
9000012                                                                                       000014
