0RETORNONOTIFICACAO ELETRONICA        23052011OCOR                                            000001
100002756200536640160520110053664016052011RL964143240BR  0000023052011130382-2    000000002000000002
100002759700536642160520110053664216052011RL964143267BR  0000023052011130731-2    000000002000000003
100002759900536644160520110053664416052011RL964143284BR  0000023052011130731-6    000000002000000004
100002763100536657160520110053665716052011RL964143412BR  0000023052011130731-24   000000002000000005
100002764200536668160520110053666816052011RL964143528BR  0000023052011130731-37   000000002000000006
100002764300536669160520110053666916052011RL964143531BR  0000023052011130731-39   000000002000000007
100002764900536675160520110053667516052011RL964143593BR  0000023052011130731-51   000000002000000008
100002765000536676160520110053667616052011RL964143602BR  0000023052011130731-53   000000002000000009
100002765800536684160520110053668416052011RL964143681BR  0000023052011130731-79   000000002000000010
100002767000536694160520110053669416052011RL964143783BR  0000023052011130731-109  000000002000000011
100002767600536699160520110053669916052011RL964143837BR  0000023052011130731-118  000000002000000012
100002768500536708160520110053670816052011RL964143925BR  0000023052011130731-138  000000002000000013
100002769000536711160520110053671116052011RL964143956BR  0000023052011130731-152  000000002000000014
100002770400536719160520110053671916052011RL964144038BR  0000023052011130731-227  000000002000000015
100002770500536720160520110053672016052011RL964144041BR  0000023052011130731-230  000000002000000016
9000015                                                                                       000017
