0RETORNONOTIFICACAO ELETRONICA        11042011OCOR                                            000001
100002555100449789100120110044978910012011RL893953539BR  0000011042011119255-3    000000002000000002
100002644600488310140320110048831014032011RL893927352BR  0002311042011124338-18   000000002000000003
100002676800491293210320110049129321032011RL893951011BR  0000011042011125197-3    000000002000000004
100002683900497737240320110049773724032011RL955668329BR  0000011042011125619-1    000000002000000005
100002684400498249250320110049824925032011RL955673329BR  0000011042011125619-11   000000002000000006
100002684700501991300320110050199130032011RL963820219BR  0000011042011125722-1    000000002000000007
100002684800501992300320110050199230032011RL963820222BR  0000011042011125722-2    000000002000000008
100002684900501993300320110050199330032011RL963820236BR  0000011042011125722-3    000000002000000009
100002685000501994300320110050199430032011RL963820240BR  0000011042011125722-4    000000002000000010
100002688200501998300320110050199830032011RL963820284BR  0000011042011125861-2    000000002000000011
100002688300501999300320110050199930032011RL963820298BR  0000211042011125861-6    000000002000000012
100002688400502000300320110050200030032011RL963820307BR  0000011042011125861-9    000000002000000013
100002688500502001300320110050200130032011RL963820315BR  0000011042011125861-10   000000002000000014
100002691200502003300320110050200330032011RL963820338BR  0000011042011126006-1    000000002000000015
100002691400502005300320110050200530032011RL963820355BR  0000011042011126006-3    000000002000000016
100002691500502006300320110050200630032011RL963820369BR  0000011042011126006-4    000000002000000017
100002691600502007300320110050200730032011RL963820372BR  0000011042011126006-5    000000002000000018
100002694000502011300320110050201130032011RL963820412BR  0000011042011126160-1    000000002000000019
100002694100502012300320110050201230032011RL963820426BR  0000011042011126160-2    000000002000000020
100002694300502014300320110050201430032011RL963820443BR  0000011042011126160-4    000000002000000021
100002694400502015300320110050201530032011RL963820457BR  0000011042011126160-5    000000002000000022
100002696200502016300320110050201630032011RL963820465BR  0000511042011126160-6    000000002000000023
100002696300502017300320110050201730032011RL963820474BR  0000511042011126160-7    000000002000000024
100002696400502018300320110050201830032011RL963820488BR  0000011042011126160-8    000000002000000025
100002696500502167300320110050216730032011RL963821979BR  0000011042011126360-1    000000002000000026
100002696600502168300320110050216830032011RL963821982BR  0000011042011126360-2    000000002000000027
100002696700502169300320110050216930032011RL963821996BR  0000011042011126360-3    000000002000000028
100002688200502565310320110050256531032011RL963825732BR  0000011042011125861-3    000000002000000029
100002688300502566310320110050256631032011RL963825746BR  0000211042011125861-7    000000002000000030
100002696800502942010420110050294201042011RL963828597BR  0000011042011126512-1    000000002000000031
100002696900502943010420110050294301042011RL963828606BR  0000011042011126512-2    000000002000000032
100002697000502944010420110050294401042011RL963828610BR  0000011042011126512-3    000000002000000033
100002697100502945010420110050294501042011RL963828623BR  0000011042011126512-4    000000002000000034
100002697200502946010420110050294601042011RL963828637BR  0000011042011126512-5    000000002000000035
100002697300502947010420110050294701042011RL963828645BR  0000011042011126512-9    000000002000000036
100002697400502948010420110050294801042011RL963828654BR  0000011042011126512-10   000000002000000037
100002671500503894040420110050389404042011RL963837625BR  0000011042011126648-1    000000002000000038
100002678100503895040420110050389504042011RL963837639BR  0000011042011126648-2    000000002000000039
100002700400503896040420110050389604042011RL963837642BR  0000011042011126648-3    000000002000000040
100002700500503897040420110050389704042011RL963837656BR  0000011042011126648-4    000000002000000041
100002671200503898040420110050389804042011RL963837660BR  0000011042011126825-1    000000002000000042
100002674100503900040420110050390004042011RL963837687BR  0000011042011126825-3    000000002000000043
100002674200503901040420110050390104042011RL963837695BR  0000011042011126825-4    000000002000000044
100002674600503902040420110050390204042011RL963837700BR  0000011042011126825-5    000000002000000045
100002674700503903040420110050390304042011RL963837713BR  0000011042011126825-6    000000002000000046
100002675200503904040420110050390404042011RL963837727BR  0000011042011126825-7    000000002000000047
100002681100503908040420110050390804042011RL963837761BR  0000011042011126825-11   000000002000000048
100002681400503909040420110050390904042011RL963837775BR  0000111042011126825-12   000000002000000049
100002681500503910040420110050391004042011RL963837789BR  0000111042011126825-13   000000002000000050
100002685300503912040420110050391204042011RL963837801BR  0000011042011126825-15   000000002000000051
100002685700503913040420110050391304042011RL963837815BR  0000011042011126825-16   000000002000000052
100002686700503914040420110050391404042011RL963837829BR  0000011042011126825-17   000000002000000053
100002687200503915040420110050391504042011RL963837832BR  0000011042011126825-18   000000002000000054
100002687700503916040420110050391604042011RL963837846BR  0002311042011126825-19   000000002000000055
100002689100503917040420110050391704042011RL963837850BR  0000011042011126825-20   000000002000000056
100002689900503919040420110050391904042011RL963837877BR  0000011042011126825-22   000000002000000057
100002690300503920040420110050392004042011RL963837885BR  0000011042011126825-23   000000002000000058
100002691000503922040420110050392204042011RL963837903BR  0000011042011126825-25   000000002000000059
100002703400503923040420110050392304042011RL963837917BR  0000011042011126825-26   000000002000000060
100002703500503924040420110050392404042011RL963837925BR  0000011042011126825-27   000000002000000061
100002703600503925040420110050392504042011RL963837934BR  0000011042011126825-28   000000002000000062
100002703700503926040420110050392604042011RL963837948BR  0000011042011126825-29   000000002000000063
100002703800503927040420110050392704042011RL963837951BR  0000011042011126825-30   000000002000000064
100002703900503928040420110050392804042011RL963837965BR  0000111042011126825-31   000000002000000065
9000064                                                                                       000066
