0RETORNONOTIFICACAO ELETRONICA        18112010OCOR                                            000001
100002483200423389041120100042338904112010RL847750539BR  0000018112010114701-20   000000002000000002
100002484100423398041120100042339804112010RL847750627BR  0002318112010114861-1    000000002000000003
100002485100423400041120100042340004112010RL847750644BR  0000018112010114861-3    000000002000000004
9000003                                                                                       000005
