0RETORNONOTIFICACAO ELETRONICA        22062011OCOR                                            000001
100002799000553216090620110055321609062011JL014311881BR  0000022062011133261-3    000000002000000002
100002806900554884140620110055488414062011JL014328309BR  0000122062011133660-9    000000002000000003
100002807200554890140620110055489014062011JL014328365BR  0000022062011133662-1    000000002000000004
100002812400555633150620110055563315062011JL014335361BR  0000022062011133805-6    000000002000000005
100002812700555636150620110055563615062011JL014335392BR  0002322062011133805-10   000000002000000006
100002812800555637150620110055563715062011JL014335401BR  0000022062011133805-11   000000002000000007
100002813900556511160620110055651116062011JL014343805BR  0000022062011133979-8    000000002000000008
100002815800556517160620110055651716062011JL014343867BR  0000022062011133979-14   000000002000000009
100002817000556520160620110055652016062011JL014343898BR  0000022062011133979-17   000000002000000010
9000009                                                                                       000011
