0RETORNONOTIFICACAO ELETRONICA        24082011OCOR                                            000001
100002955600595151160820110059515116082011RM948204991BR  0000024082011140762-4    000000002000000002
100002955700595152160820110059515216082011RM948205008BR  0000024082011140762-5    000000002000000003
100002955900595154160820110059515416082011RM948205025BR  0000024082011140762-7    000000002000000004
100002956000595155160820110059515516082011RM948205039BR  0000024082011140762-9    000000002000000005
100002957800595157160820110059515716082011RM948205042BR  0000024082011140762-12   000000002000000006
100002957900595158160820110059515816082011RM948205056BR  0000024082011140762-13   000000002000000007
100002958000595159160820110059515916082011RM948205060BR  0000024082011140762-14   000000002000000008
100002958100595160160820110059516016082011RM948205073BR  0000024082011140762-15   000000002000000009
100002938600595161160820110059516116082011RM948205087BR  0000024082011140966-1    000000002000000010
100002958200595162160820110059516216082011RM948205095BR  0000024082011140966-2    000000002000000011
100002958300595163160820110059516316082011RM948205100BR  0000024082011140966-3    000000002000000012
100002958400595164160820110059516416082011RM948205113BR  0000024082011140966-4    000000002000000013
9000012                                                                                       000014
