0RETORNONOTIFICACAO ELETRONICA        13052011OCOR                                            000001
100002728600513874260420110051387426042011RL963927277BR  0000013052011128593-5    000000002000000002
100002731600520882270420110052088227042011RL963994824BR  0000013052011128822-2    000000002000000003
100002731900520885270420110052088527042011RL963994855BR  0000013052011128822-7    000000002000000004
100002735000521093270420110052109327042011RL963996935BR  0000013052011128929-10   000000002000000005
100002733600523184290420110052318429042011RL964017153BR  0000113052011129032-1    000000002000000006
100002733800523186290420110052318629042011RL964017175BR  0000013052011129032-3    000000002000000007
100002737400523194290420110052319429042011RL964017255BR  0000813052011129032-11   000000002000000008
100002737400523426290420110052342629042011RL964019579BR  0000813052011129032-27   000000002000000009
100002737500524617020520110052461702052011RL964030424BR  0000013052011129224-1    000000002000000010
100002737600524618020520110052461802052011RL964030438BR  0000013052011129224-4    000000002000000011
100002737700524619020520110052461902052011RL964030441BR  0000013052011129224-5    000000002000000012
100002740200524620020520110052462002052011RL964030455BR  0000013052011129224-7    000000002000000013
100002740300524621020520110052462102052011RL964030469BR  0000013052011129224-8    000000002000000014
100002740400524622020520110052462202052011RL964030472BR  0000013052011129224-9    000000002000000015
100002736600527460030520110052746003052011RL964057563BR  0000013052011129266-1    000000002000000016
100002737200527461030520110052746103052011RL964057577BR  0000013052011129266-2    000000002000000017
100002738000527462030520110052746203052011RL964057585BR  0000013052011129266-3    000000002000000018
100002739000527463030520110052746303052011RL964057594BR  0000013052011129266-4    000000002000000019
100002739100527464030520110052746403052011RL964057603BR  0000013052011129266-5    000000002000000020
100002739200527465030520110052746503052011RL964057617BR  0000013052011129266-6    000000002000000021
100002739800527466030520110052746603052011RL964057625BR  0000013052011129266-7    000000002000000022
100002740500527467030520110052746703052011RL964057634BR  0000013052011129266-8    000000002000000023
100002740600527468030520110052746803052011RL964057648BR  0000013052011129266-9    000000002000000024
100002740700527469030520110052746903052011RL964057651BR  0000013052011129266-13   000000002000000025
100002740800527470030520110052747003052011RL964057665BR  0000013052011129266-14   000000002000000026
100002741100527471030520110052747103052011RL964057679BR  0000013052011129266-15   000000002000000027
100002741400527472030520110052747203052011RL964057682BR  0000113052011129266-16   000000002000000028
100002741800527473030520110052747303052011RL964057696BR  0000013052011129266-17   000000002000000029
100002742200527475030520110052747503052011RL964057719BR  0000013052011129266-19   000000002000000030
100002742300527476030520110052747603052011RL964057722BR  0000513052011129266-20   000000002000000031
100002742500527477030520110052747703052011RL964057736BR  0000013052011129266-21   000000002000000032
100002743000527478030520110052747803052011RL964057740BR  0000013052011129266-22   000000002000000033
100002698600527479030520110052747903052011RL964057753BR  0000513052011127503-1    000000002000000034
100002699800527480030520110052748003052011RL964057767BR  0000013052011127503-2    000000002000000035
100002702900527481030520110052748103052011RL964057775BR  0000013052011127503-3    000000002000000036
100002703100527482030520110052748203052011RL964057784BR  0000013052011127503-4    000000002000000037
100002704200527484030520110052748403052011RL964057807BR  0000013052011127503-6    000000002000000038
100002704700527485030520110052748503052011RL964057815BR  0000013052011127503-7    000000002000000039
100002705400527487030520110052748703052011RL964057838BR  0000013052011127503-9    000000002000000040
100002708500527488030520110052748803052011RL964057841BR  0000013052011127503-10   000000002000000041
100002711300527489030520110052748903052011RL964057855BR  0000013052011127503-11   000000002000000042
100002711500527490030520110052749003052011RL964057869BR  0000013052011127503-12   000000002000000043
100002711700527492030520110052749203052011RL964057886BR  0000013052011127503-14   000000002000000044
100002711800527493030520110052749303052011RL964057890BR  0000013052011127503-15   000000002000000045
100002712100527494030520110052749403052011RL964057909BR  0000013052011127503-16   000000002000000046
100002713500527495030520110052749503052011RL964057912BR  0000013052011127503-17   000000002000000047
100002713600527496030520110052749603052011RL964057926BR  0000013052011127503-18   000000002000000048
100002714700527497030520110052749703052011RL964057930BR  0000013052011127503-19   000000002000000049
100002743100529082040520110052908204052011RL964072755BR  0000013052011129440-1    000000002000000050
100002743200529083040520110052908304052011RL964072764BR  0000013052011129440-2    000000002000000051
100002743300529084040520110052908404052011RL964072778BR  0000013052011129440-3    000000002000000052
100002743600529085040520110052908504052011RL964072781BR  0000013052011129440-4    000000002000000053
100002744100529521050520110052952105052011RL964076491BR  0000013052011129591-1    000000002000000054
100002744400529524050520110052952405052011RL964076528BR  0000013052011129591-7    000000002000000055
100002744500529525050520110052952505052011RL964076531BR  0000013052011129591-8    000000002000000056
100002744700529527050520110052952705052011RL964076559BR  0000013052011129591-16   000000002000000057
9000056                                                                                       000058
