0RETORNONOTIFICACAO ELETRONICA        16122010OCOR                                            000001
100002521800432797301120100043279730112010RL847845112BR  0000516122010116662-12   000000002000000002
100002520300432925011220100043292501122010RL847846532BR  0000116122010116771-2    000000002000000003
100002520400432926011220100043292601122010RL847846546BR  0000116122010116771-3    000000002000000004
100002523900435028031220100043502803122010RL847867532BR  0000016122010116984-4    000000002000000005
100002527100435920071220100043592007122010RL847876450BR  0000016122010117106-5    000000002000000006
100002525500435923071220100043592307122010RL847876485BR  0000016122010117210-1    000000002000000007
100002528500435924071220100043592407122010RL847876494BR  0000016122010117210-2    000000002000000008
100002529500435925071220100043592507122010RL847876503BR  0000016122010117210-3    000000002000000009
100002524600436290091220100043629009122010RL847880159BR  0000016122010117354-1    000000002000000010
100002525300436291091220100043629109122010RL847880162BR  0000016122010117354-2    000000002000000011
100002525900436292091220100043629209122010RL847880176BR  0000016122010117354-3    000000002000000012
100002526000436293091220100043629309122010RL847880180BR  0000016122010117354-4    000000002000000013
100002526100436294091220100043629409122010RL847880193BR  0000016122010117354-5    000000002000000014
100002528000436295091220100043629509122010RL847880202BR  0000016122010117354-6    000000002000000015
100002529600436296091220100043629609122010RL847880216BR  0000016122010117354-7    000000002000000016
100002533800436297091220100043629709122010RL847880220BR  0000016122010117354-8    000000002000000017
100002533900436298091220100043629809122010RL847880233BR  0000016122010117354-9    000000002000000018
100002534000436299091220100043629909122010RL847880247BR  0000016122010117354-10   000000002000000019
100002534100436300091220100043630009122010RL847880255BR  0000016122010117354-11   000000002000000020
100002534200436301091220100043630109122010RL847880264BR  0000016122010117354-13   000000002000000021
100002536000436431091220100043643109122010RL847881551BR  0000016122010117456-2    000000002000000022
100002536200436433091220100043643309122010RL847881579BR  0000016122010117456-4    000000002000000023
100002536300436434091220100043643409122010RL847881582BR  0000016122010117456-6    000000002000000024
100002536300436454091220100043645409122010RL847881790BR  0000016122010117456-36   000000002000000025
100002536300436455091220100043645509122010RL847881809BR  0000016122010117456-66   000000002000000026
100002536300436456091220100043645609122010RL847881812BR  0000016122010117456-96   000000002000000027
9000026                                                                                       000028
