0RETORNONOTIFICACAO ELETRONICA        10022011OCOR                                            000001
100002531700435937071220100043593707122010RL893644926BR  0000010022011117210-17   000000002000000002
100002566000455621210120110045562121012011RL893627463BR  0000010022011120284-5    000000002000000003
100002581800455649210120110045564921012011RL893627741BR  0000010022011120288-2    000000002000000004
100002596000457922240120110045792224012011RL893648415BR  0000010022011120357-5    000000002000000005
9000004                                                                                       000006
