0RETORNONOTIFICACAO ELETRONICA        08062011OCOR                                            000001
100002687900501995300320110050199530032011RL964125793BR  0000008062011125722-5    000000002000000002
100002688000501996300320110050199630032011RL964125802BR  0000008062011125722-6    000000002000000003
100002779500544838260520110054483826052011JL014232044BR  0000008062011131795-15   000000002000000004
100002781900544856260520110054485626052011JL014232225BR  0000008062011131926-11   000000002000000005
9000004                                                                                       000006
