0RETORNONOTIFICACAO ELETRONICA        13102010OCOR                                            000001
100002390500396456280920100039645628092010RL793280052BR  0000013102010110365-7    000000002000000002
100002417700397010290920100039701029092010RL793285576BR  0000013102010112352-4    000000002000000003
100002439900397018290920100039701829092010RL793285655BR  0000013102010112352-12   000000002000000004
100002440700397844011020100039784401102010RL793293895BR  0002313102010112554-11   000000002000000005
100002445500398802051020100039880205102010RL793304315BR  0000013102010112792-10   000000002000000006
100002445600398803051020100039880305102010RL793304329BR  0000013102010112792-18   000000002000000007
9000006                                                                                       000008
