0RETORNONOTIFICACAO ELETRONICA        01092010OCOR                                            000001
100002372800381325240820100038132524082010RL793128385BR  0000001092010109468-6    000000002000000002
100002373300381326240820100038132624082010RL793128394BR  0000001092010109468-7    000000002000000003
100002374700381327240820100038132724082010RL793128403BR  0000001092010109468-8    000000002000000004
100002380900381330240820100038133024082010RL793128434BR  0000001092010109468-11   000000002000000005
9000004                                                                                       000006
