0RETORNONOTIFICACAO ELETRONICA        18072011OCOR                                            000001
100002835700569706040720110056970604072011JL014470905BR  0000018072011135404-5    000000002000000002
100002842300569733040720110056973304072011JL014471177BR  0000818072011135695-21   000000002000000003
100002870500574311070720110057431107072011JL014514972BR  0000018072011136047-22   000000002000000004
100002872500576108110720110057610811072011JL014532534BR  0000018072011136356-1    000000002000000005
9000004                                                                                       000006
