0RETORNONOTIFICACAO ELETRONICA        30032011OCOR                                            000001
100002626500488293140320110048829314032011RL893927180BR  0000030032011124338-1    000000002000000002
100002628300488295140320110048829514032011RL893927202BR  0000030032011124338-3    000000002000000003
100002631200488297140320110048829714032011RL893927220BR  0000030032011124338-5    000000002000000004
100002634700488301140320110048830114032011RL893927264BR  0000030032011124338-9    000000002000000005
100002638200488304140320110048830414032011RL893927295BR  0000030032011124338-12   000000002000000006
100002640300488306140320110048830614032011RL893927318BR  0000030032011124338-14   000000002000000007
100002644400488308140320110048830814032011RL893927335BR  0000030032011124338-16   000000002000000008
100002644500488309140320110048830914032011RL893927349BR  0000030032011124338-17   000000002000000009
100002655200488311140320110048831114032011RL893927366BR  0000030032011124338-19   000000002000000010
100002655300488312140320110048831214032011RL893927370BR  0000030032011124338-20   000000002000000011
100002655600488315140320110048831514032011RL893927406BR  0000030032011124338-23   000000002000000012
100002648000488319140320110048831914032011RL893927445BR  0000030032011124339-4    000000002000000013
100002648400488320140320110048832014032011RL893927454BR  0000030032011124339-5    000000002000000014
100002651200488321140320110048832114032011RL893927468BR  0000030032011124339-6    000000002000000015
100002654200488324140320110048832414032011RL893927499BR  0000030032011124339-9    000000002000000016
100002657600488327140320110048832714032011RL893927525BR  0000030032011124339-12   000000002000000017
100002659900488335140320110048833514032011RL893927600BR  0000030032011124339-20   000000002000000018
100002662200488344140320110048834414032011RL893927692BR  0000030032011124340-6    000000002000000019
100002662400488346140320110048834614032011RL893927715BR  0000030032011124340-8    000000002000000020
100002668000488355140320110048835514032011RL893927803BR  0002330032011124341-7    000000002000000021
100002668100488356140320110048835614032011RL893927817BR  0000030032011124443-1    000000002000000022
100002668400488359140320110048835914032011RL893927848BR  0000030032011124601-1    000000002000000023
100002659200489845160320110048984516032011RL893938721BR  0000030032011124747-1    000000002000000024
100002661900489846160320110048984616032011RL893938735BR  0000030032011124747-2    000000002000000025
100002664300489847160320110048984716032011RL893938749BR  0000030032011124747-3    000000002000000026
100002670500489854160320110048985416032011RL893938810BR  0000030032011124747-10   000000002000000027
100002670700489856160320110048985616032011RL893938837BR  0000030032011124747-12   000000002000000028
100002670800489857160320110048985716032011RL893938845BR  0000030032011124747-13   000000002000000029
100002672200490945180320110049094518032011RL893947935BR  0000030032011124919-3    000000002000000030
100002669700490949180320110049094918032011RL893947975BR  0000030032011125064-1    000000002000000031
100002669800490950180320110049095018032011RL893947989BR  0000030032011125064-2    000000002000000032
100002670000490952180320110049095218032011RL893948009BR  0000030032011125064-4    000000002000000033
100002670100490953180320110049095318032011RL893948012BR  0000030032011125064-5    000000002000000034
100002672700490955180320110049095518032011RL893948030BR  0000030032011125064-7    000000002000000035
100002672900490957180320110049095718032011RL893948057BR  0000030032011125064-12   000000002000000036
100002673000490958180320110049095818032011RL893948065BR  0000030032011125064-13   000000002000000037
100002673100490959180320110049095918032011RL893948074BR  0000030032011125064-14   000000002000000038
100002673200490960180320110049096018032011RL893948088BR  0000030032011125064-15   000000002000000039
100002673300490961180320110049096118032011RL893948091BR  0000130032011125064-16   000000002000000040
100002676900491294210320110049129421032011RL893951025BR  0000030032011125197-4    000000002000000041
100002677100491296210320110049129621032011RL893951042BR  0000030032011125197-6    000000002000000042
100002677200491297210320110049129721032011RL893951056BR  0000830032011125197-7    000000002000000043
100002677300491298210320110049129821032011RL893951060BR  0000030032011125197-8    000000002000000044
100002677400491299210320110049129921032011RL893951073BR  0000030032011125197-9    000000002000000045
100002677500491300210320110049130021032011RL893951087BR  0000030032011125197-10   000000002000000046
100002677600491301210320110049130121032011RL893951095BR  0000030032011125197-11   000000002000000047
100002677700491302210320110049130221032011RL893951100BR  0000030032011125197-12   000000002000000048
100002677800491303210320110049130321032011RL893951113BR  0000030032011125197-13   000000002000000049
100002679700492767220320110049276722032011RL893965395BR  0000030032011125315-1    000000002000000050
100002679800492768220320110049276822032011RL893965404BR  0000030032011125315-2    000000002000000051
100002679900492769220320110049276922032011RL893965418BR  0000030032011125315-3    000000002000000052
100002680100492771220320110049277122032011RL893965435BR  0000030032011125315-6    000000002000000053
100002680200492772220320110049277222032011RL893965449BR  0000030032011125315-7    000000002000000054
100002680300492773220320110049277322032011RL893965452BR  0000030032011125315-8    000000002000000055
100002684200497740240320110049774024032011RL955668350BR  0000030032011125619-7    000000002000000056
100002684300497741240320110049774124032011RL955668363BR  0000030032011125619-9    000000002000000057
100002684400497742240320110049774224032011RL955668377BR  0000030032011125619-10   000000002000000058
9000057                                                                                       000059
