0RETORNONOTIFICACAO ELETRONICA        22112010OCOR                                            000001
100002488500425070081120100042507008112010RL847767335BR  0000022112010114970-1    000000002000000002
100002488600425071081120100042507108112010RL847767344BR  0000022112010114970-2    000000002000000003
100002488700425072081120100042507208112010RL847767358BR  0000022112010114970-3    000000002000000004
100002488800425073081120100042507308112010RL847767361BR  0000222112010114970-5    000000002000000005
9000004                                                                                       000006
