0RETORNONOTIFICACAO ELETRONICA        08112010OCOR                                            000001
100002396000396448280920100039644828092010RL793359150BR  0000008112010110257-6    000000002000000002
100002473700416985271020100041698527102010RL847686455BR  0000008112010114234-1    000000002000000003
100002476300418034281020100041803428102010RL847697008BR  0000008112010114343-12   000000002000000004
9000003                                                                                       000005
