0RETORNONOTIFICACAO ELETRONICA        05092011OCOR                                            000001
100002979100613915290820110061391529082011RM948307951BR  0000005092011142344-1    000000002000000002
100002979200613916290820110061391629082011RM948307965BR  0000005092011142344-2    000000002000000003
100002980800613919290820110061391929082011RM948307996BR  0000005092011142344-5    000000002000000004
100002981800613920290820110061392029082011RM948308002BR  0000505092011142344-6    000000002000000005
100002983300613923290820110061392329082011RM948308020BR  0000005092011142344-9    000000002000000006
100002983400613924290820110061392429082011RM948308033BR  0000005092011142344-10   000000002000000007
100002983600613925290820110061392529082011RM948308047BR  0000005092011142344-11   000000002000000008
100002983700613926290820110061392629082011RM948308055BR  0000005092011142344-12   000000002000000009
100002985100615380300820110061538030082011RM948320873BR  0000005092011142570-6    000000002000000010
100002985200615381300820110061538130082011RM948320887BR  0000005092011142570-7    000000002000000011
100002986600615382300820110061538230082011RM948320895BR  0000505092011142570-8    000000002000000012
100002994200615384300820110061538430082011RM948320913BR  0000005092011142570-10   000000002000000013
100002994300615385300820110061538530082011RM948320927BR  0000005092011142570-11   000000002000000014
100002994400615386300820110061538630082011RM948320935BR  0000005092011142570-12   000000002000000015
9000014                                                                                       000016
