0RETORNONOTIFICACAO ELETRONICA        06062011OCOR                                            000001
100002773700539368200520110053936820052011RL964167881BR  0000006062011131237-3    000000002000000002
100002776000539370200520110053937020052011RL964167904BR  0000006062011131237-13   000000002000000003
100002778700541488240520110054148824052011RL964187696BR  0000006062011131588-4    000000002000000004
100002761100544825260520110054482526052011JL014231914BR  0000006062011131795-2    000000002000000005
100002771100544829260520110054482926052011JL014231959BR  0000006062011131795-6    000000002000000006
100002772000544830260520110054483026052011JL014231962BR  0000006062011131795-7    000000002000000007
100002775000544837260520110054483726052011JL014232035BR  0000006062011131795-14   000000002000000008
100002779600544839260520110054483926052011JL014232058BR  0000006062011131795-16   000000002000000009
100002782600544863260520110054486326052011JL014232296BR  0000006062011131926-18   000000002000000010
100002782700546340300520110054634030052011JL014246278BR  0000006062011132077-1    000000002000000011
9000010                                                                                       000012

