0RETORNONOTIFICACAO ELETRONICA        14102010OCOR                                            000001
100002432900395516270920100039551627092010RL793270660BR  0000014102010112122-4    000000002000000002
100002358400396450280920100039645028092010RL793279995BR  0000014102010110365-1    000000002000000003
100002442100398795051020100039879505102010RL793304244BR  0000014102010112701-1    000000002000000004
100002442200398796051020100039879605102010RL793304258BR  0000014102010112701-2    000000002000000005
100002445100398798051020100039879805102010RL793304275BR  0000014102010112792-5    000000002000000006
100002445300398800051020100039880005102010RL793304292BR  0000014102010112792-8    000000002000000007
100002445400398801051020100039880105102010RL793304301BR  0000014102010112792-9    000000002000000008
100002435400400411071020100040041107102010RL793320406BR  0000014102010112886-1    000000002000000009
100002435500400412071020100040041207102010RL793320410BR  0000014102010112886-2    000000002000000010
100002435600400413071020100040041307102010RL793320423BR  0000014102010112886-3    000000002000000011
100002435700400414071020100040041407102010RL793320437BR  0000014102010112886-4    000000002000000012
100002435800400415071020100040041507102010RL793320445BR  0000014102010112886-5    000000002000000013
100002449000400429071020100040042907102010RL793320587BR  0000014102010112886-20   000000002000000014
100002451400400436071020100040043607102010RL793320658BR  0000014102010112978-12   000000002000000015
100002451500400437071020100040043707102010RL793320661BR  0000014102010112978-13   000000002000000016
9000015                                                                                       000017
