0RETORNONOTIFICACAO ELETRONICA        03122010OCOR                                            000001
100002438900397841011020100039784101102010RL847820209BR  0000003122010112554-7    000000002000000002
100002439000397842011020100039784201102010RL847820212BR  0000003122010112554-8    000000002000000003
100002498400428351171120100042835117112010RL847800147BR  0000003122010115654-3    000000002000000004
100002500700428359171120100042835917112010RL847800221BR  0000003122010115654-11   000000002000000005
100002506000428917221120100042891722112010RL847805793BR  0000003122010116030-6    000000002000000006
100002506400429451231120100042945123112010RL847811025BR  0000003122010116140-1    000000002000000007
100002507400429453231120100042945323112010RL847811048BR  0000003122010116140-3    000000002000000008
100002507800429457231120100042945723112010RL847811082BR  0000803122010116140-7    000000002000000009
100002504800429471231120100042947123112010RL847811224BR  0000003122010115820-11   000000002000000010
100002505000429473231120100042947323112010RL847811241BR  0000003122010115820-16   000000002000000011
100002503600429474231120100042947423112010RL847811255BR  0000003122010115909-1    000000002000000012
100002503700429475231120100042947523112010RL847811269BR  0000003122010115909-2    000000002000000013
100002505100429478231120100042947823112010RL847811290BR  0000003122010115909-5    000000002000000014
100002505400429481231120100042948123112010RL847811326BR  0000003122010115909-8    000000002000000015
100002509600430065241120100043006524112010RL847817156BR  0000003122010116224-1    000000002000000016
100002509800430067241120100043006724112010RL847817173BR  0000003122010116224-3    000000002000000017
100002510100430070241120100043007024112010RL847817200BR  0000003122010116224-8    000000002000000018
100002508900430323251120100043032325112010RL847819735BR  0000003122010116334-1    000000002000000019
100002512200430324251120100043032425112010RL847819744BR  0000003122010116334-2    000000002000000020
100002512500430325251120100043032525112010RL847819758BR  0000003122010116334-3    000000002000000021
100002512600430326251120100043032625112010RL847819761BR  0000003122010116334-4    000000002000000022
100002512700430327251120100043032725112010RL847819775BR  0000003122010116334-6    000000002000000023
100002508000430848261120100043084826112010RL847825625BR  0000003122010116445-1    000000002000000024
100002513100430849261120100043084926112010RL847825634BR  0000003122010116445-2    000000002000000025
100002513200430850261120100043085026112010RL847825648BR  0000003122010116445-3    000000002000000026
100002513300430851261120100043085126112010RL847825651BR  0000003122010116445-4    000000002000000027
100002513400430852261120100043085226112010RL847825665BR  0000003122010116445-5    000000002000000028
100002513500430853261120100043085326112010RL847825679BR  0000003122010116445-6    000000002000000029
100002513700430855261120100043085526112010RL847825696BR  0000003122010116445-8    000000002000000030
100002513900430857261120100043085726112010RL847825719BR  0000003122010116445-12   000000002000000031
100002514000430858261120100043085826112010RL847825722BR  0000003122010116445-13   000000002000000032
100002519300431074291120100043107429112010RL847827887BR  0000003122010116554-22   000000002000000033
9000032                                                                                       000034
