0RETORNONOTIFICACAO ELETRONICA        30052011OCOR                                            000001
100002776500540134230520110054013423052011RL964175049BR  0000030052011131326-1    000000002000000002
100002776600540135230520110054013523052011RL964175052BR  0000030052011131326-2    000000002000000003
100002776800540137230520110054013723052011RL964175070BR  0000030052011131326-4    000000002000000004
100002778300540138230520110054013823052011RL964175083BR  0000030052011131326-5    000000002000000005
100002778400540139230520110054013923052011RL964175097BR  0000030052011131326-6    000000002000000006
100002778600541487240520110054148724052011RL964187682BR  0000030052011131588-3    000000002000000007
9000006                                                                                       000008
