0RETORNONOTIFICACAO ELETRONICA        01072011OCOR                                            000001
100002806700554882140620110055488214062011JL014328286BR  0000001072011133660-7    000000002000000002
100002818600558731210620110055873121062011JL014364663BR  0000001072011134459-1    000000002000000003
100002814000558741210620110055874121062011JL014364765BR  0000001072011134461-1    000000002000000004
100002825200558748210620110055874821062011JL014364836BR  0000001072011134461-8    000000002000000005
9000004                                                                                       000006
