0RETORNONOTIFICACAO ELETRONICA        16082011OCOR                                            000001
100002897300579333180720110057933318072011RM923816180BR  0000016082011137242-13   000000002000000002
100002897400579334180720110057933418072011RM923816193BR  0000016082011137242-14   000000002000000003
100002897500579335180720110057933518072011RM923816202BR  0000016082011137242-15   000000002000000004
100002941700591800040820110059180004082011JL014557655BR  0000016082011139600-32   000000002000000005
100002945700592476080820110059247608082011JL014558298BR  0000016082011139769-10   000000002000000006
100002934500593229090820110059322909082011JL014560084BR  0000016082011140035-1    000000002000000007
100002946400593236090820110059323609082011JL014560115BR  0000016082011140035-8    000000002000000008
100002950800593657100820110059365710082011JL014561310BR  0000016082011140294-7    000000002000000009
100002951100593660100820110059366010082011JL014561337BR  0000016082011140294-10   000000002000000010
100002951500593664100820110059366410082011JL014561354BR  0000016082011140294-14   000000002000000011
100002952000593669100820110059366910082011JL014561371BR  0000116082011140294-19   000000002000000012
100002952100593670100820110059367010082011JL014561385BR  0000116082011140294-20   000000002000000013
100002952200593671100820110059367110082011JL014561399BR  0000016082011140294-21   000000002000000014
9000013                                                                                       000015
