0RETORNONOTIFICACAO ELETRONICA        21072011OCOR                                            000001
100002776100539371200520110053937120052011JL014517188BR  0000021072011131237-19   000000002000000002
100002829800569699040720110056969904072011JL014470830BR  0000021072011135401-1    000000002000000003
100002888000577809130720110057780913072011RM923804703BR  0000021072011136737-2    000000002000000004
100002888100577810130720110057781013072011RM923804717BR  0000021072011136737-3    000000002000000005
100002888200577811130720110057781113072011RM923804725BR  0000021072011136737-7    000000002000000006
100002888300577812130720110057781213072011RM923804734BR  0000021072011136737-8    000000002000000007
100002888400577813130720110057781313072011RM923804748BR  0000521072011136737-10   000000002000000008
100002893100577814130720110057781413072011RM923804751BR  0000021072011136779-1    000000002000000009
100002893200577815130720110057781513072011RM923804765BR  0000021072011136779-2    000000002000000010
100002893300577816130720110057781613072011RM923804779BR  0000021072011136779-3    000000002000000011
100002893400577817130720110057781713072011RM923804782BR  0000021072011136779-6    000000002000000012
100002893500577818130720110057781813072011RM923804796BR  0000021072011136779-7    000000002000000013
100002893600577819130720110057781913072011RM923804805BR  0000021072011136779-8    000000002000000014
100002893700577820130720110057782013072011RM923804819BR  0000021072011136779-9    000000002000000015
100002896400578646140720110057864614072011RM923812276BR  0000021072011136957-1    000000002000000016
100002898400578648140720110057864814072011RM923812280BR  0000021072011136957-7    000000002000000017
100002898500578649140720110057864914072011RM923812293BR  0000021072011136957-14   000000002000000018
100002898700578651140720110057865114072011RM923812316BR  0000021072011137064-2    000000002000000019
100002898900578653140720110057865314072011RM923812333BR  0000021072011137064-4    000000002000000020
9000019                                                                                       000021
