0RETORNONOTIFICACAO ELETRONICA        12082011OCOR                                            000001
100002918600589844020820110058984402082011JL014555481BR  0000012082011139026-1    000000002000000002
100002920800589845020820110058984502082011JL014555495BR  0000012082011139026-2    000000002000000003
100002930100589850020820110058985002082011JL014555521BR  0000012082011139026-7    000000002000000004
100002933800591315030820110059131503082011JL014557244BR  0000012082011139242-8    000000002000000005
100002934200591318030820110059131803082011JL014557258BR  0000012082011139311-2    000000002000000006
100002935400591321030820110059132103082011JL014557261BR  0000012082011139311-5    000000002000000007
100002940300591786040820110059178604082011JL014557607BR  0000012082011139600-16   000000002000000008
100002940500591788040820110059178804082011JL014557615BR  0002312082011139600-18   000000002000000009
100002940900591792040820110059179204082011JL014557638BR  0000012082011139600-22   000000002000000010
100002941200591795040820110059179504082011JL014557641BR  0000012082011139600-25   000000002000000011
100002942700591810040820110059181004082011JL014557669BR  0000012082011139600-48   000000002000000012
9000011                                                                                       000013
