0RETORNONOTIFICACAO ELETRONICA        21022011OCOR                                            000001
100002564400455618210120110045561821012011RL893627432BR  0000021022011120284-2    000000002000000002
100002565600455620210120110045562021012011RL893627450BR  0000021022011120284-4    000000002000000003
100002595900457921240120110045792124012011RL893648401BR  0000021022011120357-4    000000002000000004
100002611300468478010220110046847801022011RL893747925BR  0000021022011121244-6    000000002000000005
100002612100471623040220110047162304022011RL893778477BR  0000021022011121518-1    000000002000000006
100002612300471625040220110047162504022011RL893778494BR  0000021022011121518-3    000000002000000007
100002612600471628040220110047162804022011RL893778525BR  0000021022011121518-8    000000002000000008
100002618900473037080220110047303708022011RL893791045BR  0000021022011121769-1    000000002000000009
100002619000473038080220110047303808022011RL893791059BR  0000021022011121769-2    000000002000000010
100002619200473040080220110047304008022011RL893791076BR  0000021022011121769-4    000000002000000011
100002619300473041080220110047304108022011RL893791080BR  0000021022011121769-5    000000002000000012
100002602600473043080220110047304308022011RL893791102BR  0000021022011121892-1    000000002000000013
100002603900473044080220110047304408022011RL893791116BR  0000021022011121892-2    000000002000000014
100002606000473045080220110047304508022011RL893791120BR  0000021022011121892-3    000000002000000015
100002620600473048080220110047304808022011RL893791155BR  0000021022011121892-6    000000002000000016
100002620700473049080220110047304908022011RL893791164BR  0000021022011121892-7    000000002000000017
100002620900473051080220110047305108022011RL893791181BR  0000021022011121892-12   000000002000000018
100002621000473052080220110047305208022011RL893791195BR  0000021022011121892-13   000000002000000019
100002621100473053080220110047305308022011RL893791204BR  0000021022011121892-14   000000002000000020
100002621300473055080220110047305508022011RL893791221BR  0000021022011121892-16   000000002000000021
100002603800473733100220110047373310022011RL893797405BR  0000021022011121992-1    000000002000000022
100002605200473734100220110047373410022011RL893797414BR  0000021022011121992-2    000000002000000023
100002607000473735100220110047373510022011RL893797428BR  0000021022011121992-3    000000002000000024
100002607300473736100220110047373610022011RL893797431BR  0000021022011121992-4    000000002000000025
100002610800473737100220110047373710022011RL893797445BR  0000021022011121992-5    000000002000000026
100002613100473738100220110047373810022011RL893797459BR  0000021022011121992-6    000000002000000027
100002613900473740100220110047374010022011RL893797476BR  0002321022011121992-8    000000002000000028
100002614000473741100220110047374110022011RL893797480BR  0000021022011121992-9    000000002000000029
100002624000473743100220110047374310022011RL893797502BR  0000021022011121992-11   000000002000000030
100002624100473744100220110047374410022011RL893797516BR  0000021022011121992-15   000000002000000031
100002624200473745100220110047374510022011RL893797520BR  0000021022011121992-16   000000002000000032
100002615200473855110220110047385511022011RL893798573BR  0000021022011122115-1    000000002000000033
100002617600473856110220110047385611022011RL893798587BR  0000021022011122115-2    000000002000000034
100002619500473857110220110047385711022011RL893798595BR  0000021022011122115-3    000000002000000035
100002624300473858110220110047385811022011RL893798600BR  0000021022011122115-4    000000002000000036
100002624400473859110220110047385911022011RL893798613BR  0000021022011122115-5    000000002000000037
100002624500473860110220110047386011022011RL893798627BR  0000021022011122115-6    000000002000000038
100002624600473861110220110047386111022011RL893798635BR  0000021022011122115-7    000000002000000039
100002629900475036150220110047503615022011RL893809112BR  0000221022011122348-10   000000002000000040
9000039                                                                                       000041
