0RETORNONOTIFICACAO ELETRONICA        09062011OCOR                                            000001
100002782800546341300520110054634130052011JL014246281BR  0000009062011132077-2    000000002000000002
100002795200550632030620110055063203062011JL014287842BR  0000009062011132648-1    000000002000000003
100002795400550634030620110055063403062011JL014287860BR  0000009062011132648-4    000000002000000004
100002795500550635030620110055063503062011JL014287873BR  0000009062011132648-5    000000002000000005
100002795900550639030620110055063903062011JL014287913BR  0000009062011132789-3    000000002000000006
100002796000550640030620110055064003062011JL014287927BR  0000009062011132789-4    000000002000000007
9000006                                                                                       000008
