0RETORNONOTIFICACAO ELETRONICA        05082011OCOR                                            000001
100002908300584092250720110058409225072011JL014550714BR  0000005082011138230-2    000000002000000002
100002914200584098250720110058409825072011JL014550745BR  0000005082011138230-8    000000002000000003
100002917900587810290720110058781029072011JL014553928BR  0000005082011138821-1    000000002000000004
100002921900587814290720110058781429072011RM923745523BR  0000005082011138821-11   000000002000000005
100002922000587815290720110058781529072011RM923745537BR  0000005082011138821-12   000000002000000006
9000005                                                                                       000007
