0RETORNONOTIFICACAO ELETRONICA        22082011OCOR                                            000001
100002940700591790040820110059179004082011JL014557624BR  0000022082011139600-20   000000002000000002
100002942000591803040820110059180304082011RM923779779BR  0000022082011139600-37   000000002000000003
100002944100592471080820110059247108082011RM923785363BR  0000022082011139769-1    000000002000000004
100002946100593234090820110059323409082011JL014560107BR  0000022082011140035-6    000000002000000005
100002950700593656100820110059365610082011JL014561306BR  0000022082011140294-6    000000002000000006
100002951300593662100820110059366210082011JL014561345BR  0000022082011140294-12   000000002000000007
100002951900593668100820110059366810082011JL014561368BR  0000022082011140294-18   000000002000000008
100002953800594536120820110059453612082011RM923800335BR  0000022082011140617-1    000000002000000009
100002953900594537120820110059453712082011RM923800349BR  0000022082011140617-2    000000002000000010
100002954100594539120820110059453912082011RM923800366BR  0000022082011140617-4    000000002000000011
100002954200594540120820110059454012082011RM923800370BR  0000022082011140617-5    000000002000000012
100002955500595150160820110059515016082011JL014563474BR  0000022082011140762-3    000000002000000013
9000012                                                                                       000014
