0RETORNONOTIFICACAO ELETRONICA        13062011OCOR                                            000001
100002791500547923010620110054792301062011JL014261743BR  0000013062011132384-97   000000002000000002
100002791700547925010620110054792501062011JL014261765BR  0000013062011132384-106  000000002000000003
100002793700547945010620110054794501062011JL014261964BR  0000013062011132384-144  000000002000000004
100002793900547947010620110054794701062011JL014261981BR  0000013062011132384-149  000000002000000005
100002795600550636030620110055063603062011JL014287887BR  0002313062011132648-6    000000002000000006
100002796200550642030620110055064203062011JL014287944BR  0000013062011132789-6    000000002000000007
100002798100551812060620110055181206062011JL014299275BR  0000013062011132961-4    000000002000000008
100002788700551819060620110055181906062011JL014299341BR  0000013062011132965-8    000000002000000009
100002789200551820060620110055182006062011JL014299355BR  0000013062011132965-9    000000002000000010
100002789300551821060620110055182106062011JL014299369BR  0000013062011132965-10   000000002000000011
100002789500551822060620110055182206062011JL014299372BR  0000013062011132965-11   000000002000000012
100002797300551824060620110055182406062011JL014299390BR  0000013062011132965-13   000000002000000013
100002797400551825060620110055182506062011JL014299409BR  0000013062011132965-14   000000002000000014
100002801100551826060620110055182606062011JL014299412BR  0000013062011132965-15   000000002000000015
9000014                                                                                       000016
