0RETORNONOTIFICACAO ELETRONICA        10062011OCOR                                            000001
100002785400547895010620110054789501062011JL014261465BR  0000010062011132213-2    000000002000000002
100002785500547896010620110054789601062011JL014261479BR  0000010062011132213-3    000000002000000003
100002787100547897010620110054789701062011JL014261482BR  0000010062011132213-4    000000002000000004
100002787300547899010620110054789901062011JL014261505BR  0000010062011132213-6    000000002000000005
100002787400547900010620110054790001062011JL014261519BR  0000010062011132213-7    000000002000000006
100002787500547902010620110054790201062011JL014261536BR  0000010062011132384-5    000000002000000007
100002787700547904010620110054790401062011JL014261553BR  0000010062011132384-7    000000002000000008
100002790100547909010620110054790901062011JL014261607BR  0000010062011132384-15   000000002000000009
100002790200547910010620110054791001062011JL014261615BR  0000010062011132384-19   000000002000000010
100002790400547912010620110054791201062011JL014261638BR  0000010062011132384-58   000000002000000011
100002790500547913010620110054791301062011JL014261641BR  0000010062011132384-61   000000002000000012
100002790600547914010620110054791401062011JL014261655BR  0000010062011132384-62   000000002000000013
100002790800547916010620110054791601062011JL014261672BR  0000010062011132384-65   000000002000000014
100002790900547917010620110054791701062011JL014261686BR  0000010062011132384-67   000000002000000015
100002791000547918010620110054791801062011JL014261690BR  0000010062011132384-70   000000002000000016
100002791200547920010620110054792001062011JL014261712BR  0000010062011132384-78   000000002000000017
100002791800547926010620110054792601062011JL014261774BR  0000010062011132384-110  000000002000000018
100002792000547928010620110054792801062011JL014261791BR  0000010062011132384-116  000000002000000019
100002792100547929010620110054792901062011JL014261805BR  0000010062011132384-124  000000002000000020
100002792400547932010620110054793201062011JL014261831BR  0000010062011132384-127  000000002000000021
100002792500547933010620110054793301062011JL014261845BR  0000010062011132384-128  000000002000000022
100002792800547936010620110054793601062011JL014261876BR  0000010062011132384-131  000000002000000023
100002792900547937010620110054793701062011JL014261880BR  0000010062011132384-132  000000002000000024
100002793000547938010620110054793801062011JL014261893BR  0000010062011132384-134  000000002000000025
100002793100547939010620110054793901062011JL014261902BR  0000010062011132384-135  000000002000000026
100002793200547940010620110054794001062011JL014261916BR  0000010062011132384-137  000000002000000027
100002793300547941010620110054794101062011JL014261920BR  0000010062011132384-138  000000002000000028
100002793400547942010620110054794201062011JL014261933BR  0000010062011132384-139  000000002000000029
100002793500547943010620110054794301062011JL014261947BR  0000010062011132384-140  000000002000000030
100002794100547949010620110054794901062011JL014262001BR  0000010062011132535-1    000000002000000031
100002794300547951010620110054795101062011JL014262029BR  0000010062011132535-3    000000002000000032
100002795300550633030620110055063303062011JL014287856BR  0001210062011132648-2    000000002000000033
100002795700550637030620110055063703062011JL014287895BR  0000010062011132789-1    000000002000000034
100002795800550638030620110055063803062011JL014287900BR  0001210062011132789-2    000000002000000035
100002796100550641030620110055064103062011JL014287935BR  0000010062011132789-5    000000002000000036
9000035                                                                                       000037
