0RETORNONOTIFICACAO ELETRONICA        25012011OCOR                                            000001
100002549100446812030120110044681203012011RL893546963BR  0000025012011118797-2    000000002000000002
100002572600449783100120110044978310012011RL893572795BR  0000025012011119253-1    000000002000000003
100002558500449792100120110044979210012011RL893572889BR  0000025012011119255-6    000000002000000004
100002560300449796100120110044979610012011RL893572929BR  0000025012011119255-10   000000002000000005
100002562400449798100120110044979810012011RL893572946BR  0000025012011119255-12   000000002000000006
100002562500449799100120110044979910012011RL893572950BR  0000025012011119255-13   000000002000000007
100002578400450798120120110045079812012011RL893582064BR  0000025012011119556-1    000000002000000008
100002579600450799120120110045079912012011RL893582078BR  0000025012011119559-1    000000002000000009
100002582800451410140120110045141014012011RL893587013BR  0000025012011119816-1    000000002000000010
100002582900451411140120110045141114012011RL893587027BR  0000025012011119816-2    000000002000000011
100002583100451413140120110045141314012011RL893587044BR  0000025012011119816-4    000000002000000012
100002583200451414140120110045141414012011RL893587058BR  0000025012011119818-1    000000002000000013
100002583300451415140120110045141514012011RL893587061BR  0000025012011119818-2    000000002000000014
100002583400451416140120110045141614012011RL893587075BR  0000025012011119818-6    000000002000000015
9000014                                                                                       000016
