0RETORNONOTIFICACAO ELETRONICA        24062011OCOR                                            000001
100002806500554880140620110055488014062011JL014328269BR  0000124062011133660-4    000000002000000002
100002809500554889140620110055488914062011JL014328357BR  0000024062011133660-18   000000002000000003
100002812300555632150620110055563215062011JL014335358BR  0000024062011133805-3    000000002000000004
100002811200556507160620110055650716062011JL014343765BR  0000024062011133979-4    000000002000000005
100002813600556509160620110055650916062011JL014343782BR  0000024062011133979-6    000000002000000006
100002815300556515160620110055651516062011JL014343840BR  0000024062011133979-12   000000002000000007
9000006                                                                                       000008
