0RETORNONOTIFICACAO ELETRONICA        17082011OCOR                                            000001
100002921800587813290720110058781329072011RM923745510BR  0000017082011138821-9    000000002000000002
100002929900589848020820110058984802082011RM923763411BR  0000017082011139026-5    000000002000000003
100002930200589851020820110058985102082011RM923763425BR  0000017082011139026-8    000000002000000004
100002933200591309030820110059130903082011RM923775825BR  0000017082011139242-1    000000002000000005
100002933300591310030820110059131003082011RM923775834BR  0000017082011139242-2    000000002000000006
100002933400591311030820110059131103082011RM923775848BR  0000017082011139242-4    000000002000000007
100002933500591312030820110059131203082011RM923775851BR  0000017082011139242-5    000000002000000008
100002933600591313030820110059131303082011RM923775865BR  0000017082011139242-6    000000002000000009
100002933700591314030820110059131403082011RM923775879BR  0000017082011139242-7    000000002000000010
100002933900591316030820110059131603082011RM923775882BR  0002317082011139242-9    000000002000000011
100002916500591317030820110059131703082011RM923775896BR  0000017082011139311-1    000000002000000012
100002935200591319030820110059131903082011RM923775905BR  0000017082011139311-3    000000002000000013
100002935300591320030820110059132003082011RM923775919BR  0000017082011139311-4    000000002000000014
100002937500591771040820110059177104082011RM923779513BR  0000017082011139600-1    000000002000000015
100002937600591772040820110059177204082011RM923779527BR  0000017082011139600-2    000000002000000016
100002937700591773040820110059177304082011RM923779535BR  0000017082011139600-3    000000002000000017
100002937800591774040820110059177404082011RM923779544BR  0000017082011139600-4    000000002000000018
100002937900591775040820110059177504082011RM923779558BR  0000017082011139600-5    000000002000000019
100002938000591776040820110059177604082011RM923779561BR  0000017082011139600-6    000000002000000020
100002938100591777040820110059177704082011RM923779575BR  0000017082011139600-7    000000002000000021
100002938200591778040820110059177804082011RM923779589BR  0000017082011139600-8    000000002000000022
100002938900591779040820110059177904082011RM923779592BR  0000117082011139600-9    000000002000000023
100002939700591780040820110059178004082011RM923779601BR  0000017082011139600-10   000000002000000024
100002939800591781040820110059178104082011RM923779615BR  0000017082011139600-11   000000002000000025
100002939900591782040820110059178204082011RM923779629BR  0000017082011139600-12   000000002000000026
100002940000591783040820110059178304082011RM923779632BR  0000017082011139600-13   000000002000000027
100002940100591784040820110059178404082011RM923779646BR  0000017082011139600-14   000000002000000028
100002940200591785040820110059178504082011RM923779650BR  0000017082011139600-15   000000002000000029
100002940400591787040820110059178704082011RM923779663BR  0000017082011139600-17   000000002000000030
100002940600591789040820110059178904082011RM923779677BR  0000017082011139600-19   000000002000000031
100002940800591791040820110059179104082011RM923779685BR  0000017082011139600-21   000000002000000032
100002941000591793040820110059179304082011RM923779694BR  0000017082011139600-23   000000002000000033
100002941100591794040820110059179404082011RM923779703BR  0000017082011139600-24   000000002000000034
100002941300591796040820110059179604082011RM923779717BR  0000017082011139600-26   000000002000000035
100002941400591797040820110059179704082011RM923779725BR  0000017082011139600-27   000000002000000036
100002941500591798040820110059179804082011RM923779734BR  0000017082011139600-28   000000002000000037
100002941600591799040820110059179904082011RM923779748BR  0000017082011139600-30   000000002000000038
100002941800591801040820110059180104082011RM923779751BR  0000017082011139600-34   000000002000000039
100002941900591802040820110059180204082011RM923779765BR  0000017082011139600-36   000000002000000040
100002942100591804040820110059180404082011RM923779782BR  0000017082011139600-39   000000002000000041
100002942200591805040820110059180504082011RM923779796BR  0000017082011139600-40   000000002000000042
100002942300591806040820110059180604082011RM923779805BR  0000017082011139600-42   000000002000000043
100002942400591807040820110059180704082011RM923779819BR  0000017082011139600-43   000000002000000044
100002942500591808040820110059180804082011RM923779822BR  0000017082011139600-44   000000002000000045
100002942600591809040820110059180904082011RM923779836BR  0000017082011139600-46   000000002000000046
100002942800591811040820110059181104082011RM923779840BR  0000017082011139600-49   000000002000000047
100002942900591812040820110059181204082011RM923779853BR  0000017082011139600-51   000000002000000048
100002943000591813040820110059181304082011RM923779867BR  0000017082011139600-54   000000002000000049
100002943200591815040820110059181504082011RM923779875BR  0000017082011139600-60   000000002000000050
100002943300591816040820110059181604082011RM923779884BR  0000017082011139600-63   000000002000000051
100002943400591817040820110059181704082011RM923779898BR  0000017082011139600-66   000000002000000052
100002943500591818040820110059181804082011RM923779907BR  0000017082011139600-70   000000002000000053
100002943600591819040820110059181904082011RM923779915BR  0000017082011139600-74   000000002000000054
100002943700591820040820110059182004082011RM923779924BR  0000017082011139600-77   000000002000000055
100002943800591821040820110059182104082011RM923779938BR  0000017082011139600-82   000000002000000056
100002943900591822040820110059182204082011RM923779941BR  0000017082011139600-86   000000002000000057
100002944000591823040820110059182304082011RM923779955BR  0000017082011139600-88   000000002000000058
100002944200592472080820110059247208082011RM923785377BR  0000017082011139769-4    000000002000000059
100002944300592473080820110059247308082011RM923785385BR  0000017082011139769-5    000000002000000060
100002944500592475080820110059247508082011RM923785394BR  0000017082011139769-9    000000002000000061
100002945800593231090820110059323109082011RM923790479BR  0000017082011140035-3    000000002000000062
100002945900593232090820110059323209082011RM923790482BR  0000017082011140035-4    000000002000000063
100002946000593233090820110059323309082011RM923790496BR  0000017082011140035-5    000000002000000064
100002946200593235090820110059323509082011RM923790505BR  0000017082011140035-7    000000002000000065
100002947000593237090820110059323709082011RM923790519BR  0000017082011140035-9    000000002000000066
100002947100593238090820110059323809082011RM923790522BR  0000017082011140041-1    000000002000000067
100002947200593239090820110059323909082011RM923790536BR  0000017082011140041-2    000000002000000068
100002947300593240090820110059324009082011RM923790540BR  0000017082011140041-3    000000002000000069
100002947400593241090820110059324109082011RM923790553BR  0000017082011140041-4    000000002000000070
100002948800593242090820110059324209082011RM923790567BR  0000017082011140041-5    000000002000000071
100002948900593651100820110059365110082011RM923793095BR  0000017082011140294-1    000000002000000072
100002949000593652100820110059365210082011RM923793104BR  0000017082011140294-2    000000002000000073
100002949100593653100820110059365310082011RM923793118BR  0000017082011140294-3    000000002000000074
100002950500593654100820110059365410082011RM923793121BR  0000017082011140294-4    000000002000000075
100002950600593655100820110059365510082011JL014561297BR  0000017082011140294-5    000000002000000076
100002950900593658100820110059365810082011JL014561323BR  0000017082011140294-8    000000002000000077
100002951000593659100820110059365910082011RM923793135BR  0000017082011140294-9    000000002000000078
100002951200593661100820110059366110082011RM923793149BR  0000017082011140294-11   000000002000000079
100002951400593663100820110059366310082011RM923793152BR  0000017082011140294-13   000000002000000080
100002951600593665100820110059366510082011RM923793166BR  0000017082011140294-15   000000002000000081
100002951700593666100820110059366610082011RM923793170BR  0000017082011140294-16   000000002000000082
100002951800593667100820110059366710082011RM923793183BR  0000017082011140294-17   000000002000000083
100002952300593672100820110059367210082011RM923793197BR  0000017082011140294-22   000000002000000084
100002952400593673100820110059367310082011RM923793206BR  0000017082011140294-23   000000002000000085
100002953700593962110820110059396211082011JL014561840BR  0000017082011140351-10   000000002000000086
9000085                                                                                       000087
