0RETORNONOTIFICACAO ELETRONICA        16052011OCOR                                            000001
100002711600527491030520110052749103052011RL964057872BR  0000516052011127503-13   000000002000000002
100002744900531462060520110053146206052011RL964094711BR  0000116052011129734-1    000000002000000003
100002745000531463060520110053146306052011RL964094725BR  0000016052011129734-2    000000002000000004
100002745100531464060520110053146406052011RL964094739BR  0000016052011129734-3    000000002000000005
100002745200531465060520110053146506052011RL964094742BR  0000016052011129734-4    000000002000000006
100002745300531466060520110053146606052011RL964094756BR  0000016052011129734-5    000000002000000007
9000006                                                                                       000008
