0RETORNONOTIFICACAO ELETRONICA        25082011OCOR                                            000001
100002442100398795051020100039879505102010RM948224789BR  0000025082011112701-1    000000002000000002
100002923200587816290720110058781629072011RM923745545BR  0000925082011138821-13   000000002000000003
100002954000594538120820110059453812082011RM923800352BR  0001225082011140617-3    000000002000000004
100002955800595153160820110059515316082011RM948205011BR  0000025082011140762-6    000000002000000005
100002959900596294170820110059629417082011RM948214336BR  0000025082011141084-2    000000002000000006
9000005                                                                                       000007
