0RETORNONOTIFICACAO ELETRONICA        17062011OCOR                                            000001
100002748200533317100520110053331710052011JL014318023BR  0000017062011129955-7    000000002000000002
100002754300534335100520110053433510052011JL014318037BR  0000017062011130021-8    000000002000000003
100002787200547898010620110054789801062011JL014261496BR  0000017062011132213-5    000000002000000004
100002790700547915010620110054791501062011JL014261669BR  0000717062011132384-64   000000002000000005
100002797800553211090620110055321109062011JL014311833BR  0000017062011132961-1    000000002000000006
100002804600553226090620110055322609062011JL014311983BR  0000017062011133266-2    000000002000000007
100002806000553240090620110055324009062011JL014312122BR  0000017062011133266-28   000000002000000008
9000007                                                                                       000009
