0RETORNONOTIFICACAO ELETRONICA        29092010OCOR                                            000001
100002319100304232160720100030423216072010RL793209478BR  0000029092010105798-3    000000002000000002
100002370800318015160820100031801516082010RL793209504BR  0000029092010108710-9    000000002000000003
100002400600389651100920100038965110092010RL793212211BR  0000029092010110611-1    000000002000000004
100002400700389652100920100038965210092010RL793212225BR  0000028092010110611-3    000000002000000005
100002400900389654100920100038965410092010RL793212242BR  0000028092010110611-5    000000002000000006
100002404100389664100920100038966410092010RL793212344BR  0000029092010110611-26   000000002000000007
100002404300389666100920100038966610092010RL793212361BR  0000028092010110612-2    000000002000000008
100002404500389668100920100038966810092010RL793212389BR  0000028092010110612-6    000000002000000009
100002404100389682100920100038968210092010RL793212525BR  0000029092010110611-50   000000002000000010
100002406900390282140920100039028214092010RL793218506BR  0000028092010110963-1    000000002000000011
100002407000390283140920100039028314092010RL793218510BR  0000029092010110963-4    000000002000000012
100002407100390284140920100039028414092010RL793218523BR  0000028092010110963-5    000000002000000013
100002410100390737150920100039073715092010RL793223041BR  0000029092010111131-3    000000002000000014
100002410500390739150920100039073915092010RL793223069BR  0000029092010111131-5    000000002000000015
100002410600390740150920100039074015092010RL793223072BR  0000029092010111131-6    000000002000000016
100002410700390741150920100039074115092010RL793223086BR  0001229092010111131-7    000000002000000017
100002410900390743150920100039074315092010RL793223109BR  0000029092010111131-9    000000002000000018
100002411000390744150920100039074415092010RL793223112BR  0000029092010111131-15   000000002000000019
100002411100390745150920100039074515092010RL793223126BR  0000029092010111131-16   000000002000000020
100002411200390746150920100039074615092010RL793223130BR  0000029092010111131-17   000000002000000021
100002411400390748150920100039074815092010RL793223157BR  0000029092010111131-19   000000002000000022
100002413100390749150920100039074915092010RL793223165BR  0000029092010111131-20   000000002000000023
100002418600391531170920100039153117092010RL793230918BR  0001229092010111380-1    000000002000000024
100002418200391532170920100039153217092010RL793230921BR  0000029092010111380-2    000000002000000025
100002418400391534170920100039153417092010RL793230949BR  0000029092010111380-4    000000002000000026
100002418700391536170920100039153617092010RL793230966BR  0000229092010111380-13   000000002000000027
100002418800391537170920100039153717092010RL793230970BR  0000229092010111380-14   000000002000000028
100002418900391687200920100039168720092010RL793232471BR  0000029092010111520-1    000000002000000029
100002420000391698200920100039169820092010RL793232587BR  0000029092010111520-19   000000002000000030
100002420100391699200920100039169920092010RL793232595BR  0000029092010111520-20   000000002000000031
100002420200391700200920100039170020092010RL793232600BR  0000029092010111520-21   000000002000000032
100002415300392180210920100039218021092010RL793237350BR  0000029092010111259-7    000000002000000033
100002425300392193210920100039219321092010RL793237482BR  0000029092010111628-18   000000002000000034
100002425500392195210920100039219521092010RL793237505BR  0000029092010111628-22   000000002000000035
100002425600392196210920100039219621092010RL793237519BR  0000029092010111628-23   000000002000000036
100002425700392197210920100039219721092010RL793237522BR  0000029092010111628-25   000000002000000037
100002426100392201210920100039220121092010RL793237567BR  0000029092010111628-35   000000002000000038
100002426300392203210920100039220321092010RL793237584BR  0000029092010111628-38   000000002000000039
9000038                                                                                       000040
