0RETORNONOTIFICACAO ELETRONICA        02022011OCOR                                            000001
100002569200455623210120110045562321012011RL893627485BR  0000002022011120284-7    000000002000000002
100002573800455626210120110045562621012011RL893627517BR  0000002022011120284-10   000000002000000003
100002585100455633210120110045563321012011RL893627582BR  0000002022011120284-17   000000002000000004
100002580800455636210120110045563621012011RL893627619BR  0000002022011120285-3    000000002000000005
100002586700455642210120110045564221012011RL893627675BR  0000002022011120285-14   000000002000000006
100002586800455643210120110045564321012011RL893627684BR  0000002022011120285-15   000000002000000007
100002589900455644210120110045564421012011RL893627698BR  0000002022011120286-1    000000002000000008
100002581700455648210120110045564821012011RL893627738BR  0000002022011120288-1    000000002000000009
100002592700455654210120110045565421012011RL893627790BR  0000002022011120288-7    000000002000000010
100002592800455655210120110045565521012011RL893627809BR  0000002022011120288-8    000000002000000011
100002593100455658210120110045565821012011RL893627830BR  0000002022011120289-5    000000002000000012
9000011                                                                                       000013
