0RETORNONOTIFICACAO ELETRONICA        08082011OCOR                                            000001
100002916100585594260720110058559426072011JL014551706BR  0000008082011138292-5    000000002000000002
100002919400587480280720110058748028072011JL014553477BR  0000008082011138527-3    000000002000000003
100002919500587481280720110058748128072011JL014553485BR  0000008082011138527-4    000000002000000004
100002919600587482280720110058748228072011JL014553494BR  0000008082011138527-5    000000002000000005
100002923300589846020820110058984602082011JL014555504BR  0000008082011139026-3    000000002000000006
100002929800589847020820110058984702082011RM923763408BR  0000008082011139026-4    000000002000000007
100002933100589852020820110058985202082011JL014555535BR  0000008082011139026-9    000000002000000008
9000007                                                                                       000009
