0RETORNONOTIFICACAO ELETRONICA        14092011OCOR                                            000001
100002834300569715040720110056971504072011JL014564829BR  0000014092011135406-1    000000002000000002
100002840900574292070720110057429207072011JL014564846BR  0000014092011136047-3    000000002000000003
100002870400574310070720110057431007072011JL014564801BR  0000014092011136047-21   000000002000000004
100002999000621277080920110062127708092011RM948373880BR  0000014092011143513-2    000000002000000005
100002996500621287080920110062128708092011RM948373964BR  0000014092011143678-1    000000002000000006
100003000100621289080920110062128908092011RM948373981BR  0000014092011143678-3    000000002000000007
100003000800621295080920110062129508092011RM948374032BR  0000014092011143678-14   000000002000000008
100003000900621296080920110062129608092011RM948374046BR  0000014092011143678-21   000000002000000009
100003001100622811090920110062281109092011RM948388120BR  0000014092011143798-2    000000002000000010
9000009                                                                                       000011
