0RETORNONOTIFICACAO ELETRONICA        26052011OCOR                                            000001
100002746300533308100520110053330810052011RL964110856BR  0000026052011129792-2    000000002000000002
100002751800534329100520110053432910052011RL964122995BR  0000026052011130021-1    000000002000000003
100002754700534338100520110053433810052011RL964123086BR  0000026052011130021-11   000000002000000004
100002754800534339100520110053433910052011RL964123090BR  0000026052011130021-12   000000002000000005
100002756100536639160520110053663916052011RL964143236BR  0000026052011130382-1    000000002000000006
100002759600536641160520110053664116052011RL964143253BR  0000026052011130731-1    000000002000000007
100002759800536643160520110053664316052011RL964143275BR  0000026052011130731-3    000000002000000008
100002760000536645160520110053664516052011RL964143298BR  0000026052011130731-7    000000002000000009
100002760100536646160520110053664616052011RL964143307BR  0000026052011130731-8    000000002000000010
100002762200536648160520110053664816052011RL964143324BR  0002326052011130731-13   000000002000000011
100002762300536649160520110053664916052011RL964143338BR  0002326052011130731-14   000000002000000012
100002762400536650160520110053665016052011RL964143341BR  0000026052011130731-15   000000002000000013
100002762600536652160520110053665216052011RL964143369BR  0000026052011130731-17   000000002000000014
100002762700536653160520110053665316052011RL964143372BR  0000026052011130731-20   000000002000000015
100002762800536654160520110053665416052011RL964143386BR  0000026052011130731-21   000000002000000016
100002763000536656160520110053665616052011RL964143409BR  0000026052011130731-23   000000002000000017
100002763200536658160520110053665816052011RL964143426BR  0000026052011130731-25   000000002000000018
100002763400536660160520110053666016052011RL964143443BR  0000026052011130731-28   000000002000000019
100002763500536661160520110053666116052011RL964143457BR  0000026052011130731-29   000000002000000020
100002763600536662160520110053666216052011RL964143465BR  0000026052011130731-30   000000002000000021
100002763700536663160520110053666316052011RL964143474BR  0000026052011130731-32   000000002000000022
100002763900536665160520110053666516052011RL964143491BR  0000026052011130731-34   000000002000000023
100002764000536666160520110053666616052011RL964143505BR  0000026052011130731-35   000000002000000024
100002764100536667160520110053666716052011RL964143514BR  0000026052011130731-36   000000002000000025
100002764400536670160520110053667016052011RL964143545BR  0000026052011130731-40   000000002000000026
100002764500536671160520110053667116052011RL964143559BR  0000026052011130731-42   000000002000000027
100002764600536672160520110053667216052011RL964143562BR  0000026052011130731-43   000000002000000028
100002764700536673160520110053667316052011RL964143576BR  0000026052011130731-44   000000002000000029
100002764800536674160520110053667416052011RL964143580BR  0000026052011130731-47   000000002000000030
100002765100536677160520110053667716052011RL964143616BR  0000026052011130731-54   000000002000000031
100002765200536678160520110053667816052011RL964143620BR  0000026052011130731-56   000000002000000032
100002765300536679160520110053667916052011RL964143633BR  0000026052011130731-59   000000002000000033
100002765400536680160520110053668016052011RL964143647BR  0000026052011130731-62   000000002000000034
100002765500536681160520110053668116052011RL964143655BR  0000026052011130731-68   000000002000000035
100002765600536682160520110053668216052011RL964143664BR  0000026052011130731-74   000000002000000036
100002765700536683160520110053668316052011RL964143678BR  0000026052011130731-77   000000002000000037
100002765900536685160520110053668516052011RL964143695BR  0000026052011130731-81   000000002000000038
100002766000536686160520110053668616052011RL964143704BR  0000026052011130731-82   000000002000000039
100002766300536687160520110053668716052011RL964143718BR  0000026052011130731-84   000000002000000040
100002766400536688160520110053668816052011RL964143721BR  0000026052011130731-86   000000002000000041
100002766500536689160520110053668916052011RL964143735BR  0000026052011130731-89   000000002000000042
100002766600536690160520110053669016052011RL964143749BR  0000026052011130731-92   000000002000000043
100002766700536691160520110053669116052011RL964143752BR  0000026052011130731-98   000000002000000044
100002766800536692160520110053669216052011RL964143766BR  0000026052011130731-104  000000002000000045
100002766900536693160520110053669316052011RL964143770BR  0000026052011130731-107  000000002000000046
100002767100536695160520110053669516052011RL964143797BR  0000026052011130731-111  000000002000000047
100002767200536696160520110053669616052011RL964143806BR  0000026052011130731-112  000000002000000048
100002767400536697160520110053669716052011RL964143810BR  0000026052011130731-114  000000002000000049
100002767500536698160520110053669816052011RL964143823BR  0000026052011130731-116  000000002000000050
100002767700536700160520110053670016052011RL964143845BR  0000026052011130731-119  000000002000000051
100002767800536701160520110053670116052011RL964143854BR  0000026052011130731-122  000000002000000052
100002767900536702160520110053670216052011RL964143868BR  0000726052011130731-125  000000002000000053
100002768000536703160520110053670316052011RL964143871BR  0000026052011130731-128  000000002000000054
100002768100536704160520110053670416052011RL964143885BR  0000026052011130731-131  000000002000000055
100002768200536705160520110053670516052011RL964143899BR  0000026052011130731-133  000000002000000056
100002768300536706160520110053670616052011RL964143908BR  0000026052011130731-134  000000002000000057
100002768400536707160520110053670716052011RL964143911BR  0000026052011130731-136  000000002000000058
100002768600536709160520110053670916052011RL964143939BR  0000026052011130731-146  000000002000000059
100002768700536710160520110053671016052011RL964143942BR  0000026052011130731-151  000000002000000060
100002769100536712160520110053671216052011RL964143960BR  0000026052011130731-155  000000002000000061
100002769200536713160520110053671316052011RL964143973BR  0000026052011130731-158  000000002000000062
100002769700536714160520110053671416052011RL964143987BR  0000026052011130731-175  000000002000000063
100002769800536715160520110053671516052011RL964143995BR  0000026052011130731-187  000000002000000064
100002769900536716160520110053671616052011RL964144007BR  0000026052011130731-198  000000002000000065
100002770200536717160520110053671716052011RL964144015BR  0000026052011130731-206  000000002000000066
100002770300536718160520110053671816052011RL964144024BR  0000026052011130731-218  000000002000000067
100002770600536721160520110053672116052011RL964144055BR  0000526052011130731-233  000000002000000068
100002773400539365200520110053936520052011RL964167855BR  0000026052011131148-1    000000002000000069
9000068                                                                                       000070
