0RETORNONOTIFICACAO ELETRONICA        20102010OCOR                                            000001
100002455900400803111020100040080311102010RL793324646BR  0000020102010113173-1    000000002000000002
100002458300401236131020100040123613102010RL793328974BR  0002320102010113266-4    000000002000000003
100002458400401237131020100040123713102010RL793328988BR  0000020102010113266-34   000000002000000004
100002458500401238131020100040123813102010RL793328991BR  0000020102010113266-55   000000002000000005
100002458400401239131020100040123913102010RL793329008BR  0000020102010113266-8    000000002000000006
100002443600401834141020100040183414102010RL793334935BR  0000020102010113358-3    000000002000000007
100002446700401835141020100040183514102010RL793334949BR  0000020102010113358-4    000000002000000008
100002459000401840141020100040184014102010RL793334997BR  0000020102010113358-9    000000002000000009
9000008                                                                                       000010
