0RETORNONOTIFICACAO ELETRONICA        15042011OCOR                                            000001
100002691100502002300320110050200230032011RL963820324BR  0000015042011125861-11   000000002000000002
100002706300505551060420110050555106042011RL963852242BR  0000015042011126988-9    000000002000000003
100002697900507278070420110050727807042011RL963868843BR  0000015042011127186-5    000000002000000004
100002701000507281070420110050728107042011RL963868874BR  0000015042011127186-8    000000002000000005
100002699300507492070420110050749207042011RL963870935BR  0000015042011127349-12   000000002000000006
100002710200507501070420110050750107042011RL963871025BR  0000015042011127349-24   000000002000000007
9000006                                                                                       000008
