0RETORNONOTIFICACAO ELETRONICA        13072011OCOR                                            000001
100002824100564663240620110056466324062011JL014423083BR  0000013072011134783-1    000000002000000002
100002824700564665240620110056466524062011JL014423106BR  0000013072011134783-3    000000002000000003
100002827500569685040720110056968504072011JL014470698BR  0000013072011135396-3    000000002000000004
100002827600569686040720110056968604072011JL014470707BR  0000013072011135396-4    000000002000000005
100002829700569688040720110056968804072011JL014470724BR  0000013072011135396-6    000000002000000006
100002829900569689040720110056968904072011JL014470738BR  0000013072011135396-7    000000002000000007
100002830600569690040720110056969004072011JL014470741BR  0000513072011135396-8    000000002000000008
100002830900569691040720110056969104072011JL014470755BR  0000013072011135396-9    000000002000000009
100002832200569693040720110056969304072011JL014470772BR  0000013072011135396-11   000000002000000010
100002832700569696040720110056969604072011JL014470809BR  0000013072011135396-15   000000002000000011
100002833600569697040720110056969704072011JL014470812BR  0000013072011135396-16   000000002000000012
100002833000569704040720110056970404072011JL014470888BR  0000013072011135404-3    000000002000000013
100002836300569708040720110056970804072011JL014470928BR  0000013072011135404-8    000000002000000014
100002836400569709040720110056970904072011JL014470931BR  0000013072011135404-9    000000002000000015
100002836500569710040720110056971004072011JL014470945BR  0000013072011135404-10   000000002000000016
100002836600569711040720110056971104072011JL014470959BR  0000013072011135404-11   000000002000000017
100002836700569712040720110056971204072011JL014470962BR  0002313072011135404-12   000000002000000018
100002836800569713040720110056971304072011JL014470976BR  0000013072011135404-13   000000002000000019
100002837000569716040720110056971604072011JL014471000BR  0000013072011135406-2    000000002000000020
100002837100569717040720110056971704072011JL014471013BR  0000013072011135406-3    000000002000000021
100002837200569718040720110056971804072011JL014471027BR  0000013072011135406-4    000000002000000022
100002837300569719040720110056971904072011JL014471035BR  0000013072011135406-5    000000002000000023
100002837400569720040720110056972004072011JL014471044BR  0000013072011135406-6    000000002000000024
100002837500569721040720110056972104072011JL014471058BR  0000013072011135406-7    000000002000000025
100002837600569722040720110056972204072011JL014471061BR  0000013072011135406-8    000000002000000026
100002839000569724040720110056972404072011JL014471089BR  0000013072011135406-10   000000002000000027
100002839900569725040720110056972504072011JL014471092BR  0000013072011135406-11   000000002000000028
100002840100569727040720110056972704072011JL014471115BR  0000013072011135695-2    000000002000000029
100002840400569730040720110056973004072011JL014471146BR  0000013072011135695-5    000000002000000030
100002841800569732040720110056973204072011JL014471163BR  0000013072011135695-20   000000002000000031
100002843200569734040720110056973404072011JL014471185BR  0000013072011135695-22   000000002000000032
100002843600569737040720110056973704072011JL014471217BR  0000013072011135717-4    000000002000000033
100002835200574291070720110057429107072011JL014514779BR  0000013072011136047-2    000000002000000034
100002841100574293070720110057429307072011JL014514796BR  0000013072011136047-4    000000002000000035
100002841300574295070720110057429507072011JL014514819BR  0000013072011136047-6    000000002000000036
100002843900574297070720110057429707072011JL014514836BR  0000113072011136047-8    000000002000000037
100002844100574298070720110057429807072011JL014514840BR  0000013072011136047-9    000000002000000038
100002846000574303070720110057430307072011JL014514898BR  0000013072011136047-14   000000002000000039
100002846500574304070720110057430407072011JL014514907BR  0000013072011136047-15   000000002000000040
100002846800574306070720110057430607072011JL014514924BR  0000013072011136047-17   000000002000000041
100002857700574308070720110057430807072011JL014514941BR  0000013072011136047-19   000000002000000042
100002870600574314070720110057431407072011JL014515006BR  0000213072011136161-3    000000002000000043
100002870700574315070720110057431507072011JL014515010BR  0000913072011136161-5    000000002000000044
100002870800574316070720110057431607072011JL014515023BR  0000013072011136161-9    000000002000000045
9000044                                                                                       000046
