0RETORNONOTIFICACAO ELETRONICA        25072011OCOR                                            000001
100002898800578652140720110057865214072011RM923812320BR  0000025072011137064-3    000000002000000002
100002889500579322180720110057932218072011JL014548295BR  0000025072011137242-2    000000002000000003
100002889700579323180720110057932318072011JL014548300BR  0000025072011137242-3    000000002000000004
100002891000579325180720110057932518072011JL014548327BR  0000025072011137242-5    000000002000000005
100002891100579326180720110057932618072011JL014548335BR  0000025072011137242-6    000000002000000006
100002891200579327180720110057932718072011JL014548344BR  0000025072011137242-7    000000002000000007
100002891900579329180720110057932918072011RM923816159BR  0000025072011137242-9    000000002000000008
100002892000579330180720110057933018072011RM923816162BR  0000025072011137242-10   000000002000000009
100002896900579332180720110057933218072011JL014548361BR  0000025072011137242-12   000000002000000010
100002898000579336180720110057933618072011JL014548375BR  0000025072011137242-16   000000002000000011
100002900100579337180720110057933718072011JL014548389BR  0000025072011137242-17   000000002000000012
100002901200579338180720110057933818072011RM923816216BR  0000025072011137242-18   000000002000000013
100002901300579339180720110057933918072011RM923816220BR  0000025072011137242-20   000000002000000014
9000013                                                                                       000015
