0RETORNONOTIFICACAO ELETRONICA        28122010OCOR                                            000001
100002536400436655131220100043665513122010RL847883800BR  0000028122010117541-1    000000002000000002
100002536500436656131220100043665613122010RL847883813BR  0000028122010117541-2    000000002000000003
100002537300436658131220100043665813122010RL847883835BR  0000028122010117689-2    000000002000000004
100002538200436660131220100043666013122010RL847883858BR  0000028122010117689-4    000000002000000005
100002538300436661131220100043666113122010RL847883861BR  0000028122010117689-5    000000002000000006
100002538400436662131220100043666213122010RL847883875BR  0000828122010117689-6    000000002000000007
100002537700437115141220100043711514122010RL847889250BR  0000028122010117754-1    000000002000000008
100002539800437116141220100043711614122010RL847889263BR  0000028122010117754-2    000000002000000009
100002539900437117141220100043711714122010RL847889277BR  0000028122010117754-3    000000002000000010
100002540000437118141220100043711814122010RL847889285BR  0000028122010117754-4    000000002000000011
100002540100437119141220100043711914122010RL847889294BR  0000028122010117754-5    000000002000000012
100002540200437120141220100043712014122010RL847889303BR  0000028122010117754-7    000000002000000013
100002540300437121141220100043712114122010RL847889317BR  0000028122010117754-8    000000002000000014
100002540400437122141220100043712214122010RL847889325BR  0000828122010117754-9    000000002000000015
100002541900437202151220100043720215122010RL847890125BR  0000028122010117916-1    000000002000000016
100002542000437203151220100043720315122010RL847890139BR  0000028122010117916-2    000000002000000017
100002542100437204151220100043720415122010RL847890142BR  0000028122010117916-4    000000002000000018
100002542200437205151220100043720515122010RL847890156BR  0000028122010117916-5    000000002000000019
100002543500437206151220100043720615122010RL847890160BR  0000028122010117916-6    000000002000000020
100002543600437364161220100043736416122010RL847891735BR  0000028122010118068-1    000000002000000021
100002543700437365161220100043736516122010RL847891749BR  0000028122010118068-2    000000002000000022
100002543800437366161220100043736616122010RL847891752BR  0000028122010118068-4    000000002000000023
100002543900437367161220100043736716122010RL847891766BR  0000028122010118068-6    000000002000000024
100002544000437368161220100043736816122010RL847891770BR  0000028122010118068-7    000000002000000025
100002544100437369161220100043736916122010RL847891783BR  0000028122010118068-9    000000002000000026
100002544200437721171220100043772117122010RL847895238BR  0000028122010118174-1    000000002000000027
100002544300437722171220100043772217122010RL847895241BR  0000028122010118174-2    000000002000000028
100002544400437723171220100043772317122010RL847895255BR  0000028122010118174-4    000000002000000029
100002544500437724171220100043772417122010RL847895269BR  0000028122010118174-5    000000002000000030
100002544600437725171220100043772517122010RL847895272BR  0000028122010118174-6    000000002000000031
100002549200438877201220100043887720122010RL847903835BR  0000028122010118338-1    000000002000000032
100002549700438882201220100043888220122010RL847903889BR  0000028122010118338-6    000000002000000033
100002549800438883201220100043888320122010RL847903892BR  0000028122010118338-7    000000002000000034
9000033                                                                                       000035
