0RETORNONOTIFICACAO ELETRONICA        14092010OCOR                                            000001
100002390400385377300820100038537730082010RL793168835BR  0000014092010109867-10   000000002000000002
100002362600386577020920100038657702092010RL793180814BR  0000014092010108209-7    000000002000000003
100002362900386578020920100038657802092010RL793180828BR  0000014092010108209-11   000000002000000004
100002255700387026030920100038702603092010RL793185309BR  0000014092010102383-5    000000002000000005
100002255800387027030920100038702703092010RL793185312BR  0000014092010102383-7    000000002000000006
9000005                                                                                       000007
