0RETORNONOTIFICACAO ELETRONICA        20052010OCOR                                            000001
100002194900277833100520100027783310052010RL696163830BR  000002005201097594-12    000000002000000002
100002201600277849100520100027784910052010RL696163993BR  000002005201098271-12    000000002000000003
9000002                                                                                       000004