0RETORNONOTIFICACAO ELETRONICA        03022010OCOR                                            000001
100002004000225989250120100022598925012010FR584173134BR  000000302201083689-2                 000002
100002008600230792280120100023079228012010FR584222728BR  000000302201083986-2                 000003
100002009400230795280120100023079528012010FR584222759BR  000000302201083986-5                 000004
100002009500230796280120100023079628012010FR584222762BR  000000302201083986-6                 000005
9000004                                                                                       000006
