0RETORNONOTIFICACAO ELETRONICA        27122010OCOR                                            000001
100002512400432788301120100043278830112010RL847845024BR  0000027122010116662-3    000000002000000002
100002523300434107021220100043410702122010RL847858323BR  0000027122010116892-3    000000002000000003
100002535900436430091220100043643009122010RL847881548BR  0000027122010117456-1    000000002000000004
100002536800436657131220100043665713122010RL847883827BR  0000027122010117689-1    000000002000000005
9000004                                                                                       000006
