0RETORNONOTIFICACAO ELETRONICA        05022010OCOR                                            000001
100002001900224375210120100022437521012010FR584156618BR  000000502201083115-1                 000002
100002004700225992250120100022599225012010FR584173165BR  000000502201083689-5                 000003
100002008100230791280120100023079128012010FR584222714BR  000000502201083986-1                 000004
100002009100230793280120100023079328012010FR584222731BR  000000502201083986-3                 000005
100002009200230794280120100023079428012010FR584222745BR  000000502201083986-4                 000006
9000005                                                                                       000007
