0RETORNONOTIFICACAO ELETRONICA        11062010OCOR                                            000001
100002232500287198310520100028719831052010RL705280235BR  0000011062010101308-4    000000002000000002
100002233500287200310520100028720031052010RL705280258BR  0000011062010101308-6    000000002000000003
100002246100288140020620100028814002062010RL724352859BR  0000011062010101943-8    000000002000000004
9000003                                                                                       000005
