0RETORNONOTIFICACAO ELETRONICA        01022010OCOR                                            000001
100002003600224380210120100022438021012010FR584156666BR  000000102201083115-6                 000002
100002003700225988250120100022598825012010FR584173125BR  000000102201083689-1                 000003
100002004300225990250120100022599025012010FR584173148BR  000000102201083689-3                 000004
100002004600225991250120100022599125012010FR584173151BR  000000102201083689-4                 000005
100002006900225993250120100022599325012010FR584173179BR  000000102201083690-1                 000006
9000005                                                                                       000007
