0RETORNONOTIFICACAO ELETRONICA        03092010OCOR                                            000001
100002376000319521200820100031952120082010RL793110380BR  0000003092010109213-1    000000002000000002
100002376400319525200820100031952520082010RL793110420BR  0000003092010109213-13   000000002000000003
100002376500319526200820100031952620082010RL793110433BR  0000003092010109213-14   000000002000000004
100002367200381321240820100038132124082010RL793128346BR  0000003092010109468-2    000000002000000005
100002368800381323240820100038132324082010RL793128363BR  0000003092010109468-4    000000002000000006
100002370600381324240820100038132424082010RL793128377BR  0000003092010109468-5    000000002000000007
100002380000381328240820100038132824082010RL793128417BR  0000003092010109468-9    000000002000000008
100002380800381329240820100038132924082010RL793128425BR  0000003092010109468-10   000000002000000009
9000008                                                                                       000010
