0RETORNONOTIFICACAO ELETRONICA        05022013REGI                                            000001
100003988400900117050220130090011705022013FA063288314BR  00000        219585-1                000002
100003988500900118050220130090011805022013FA063288328BR  00000        219585-5                000003
100003988300900119050220130090011905022013FA063288331BR  00000        219585-6                000004
100003990500900120050220130090012005022013FA063288345BR  00000        219585-7                000005
100003988200900121050220130090012105022013FA063288359BR  00000        219585-8                000006
100003982900900122050220130090012205022013FA063288362BR  00000        219585-9                000007
100003991700900123050220130090012305022013FA063288376BR  00000        219591-1                000008
100003991800900124050220130090012405022013FA063288380BR  00000        219591-2                000009
100003994300900125050220130090012505022013FA063288393BR  00000        219593-1                000010
100003994200900126050220130090012605022013FA063288402BR  00000        219593-3                000011
100003994900900127050220130090012705022013FA063288416BR  00000        219593-4                000012
100003994500900128050220130090012805022013FA063288420BR  00000        219593-5                000013
100003994600900129050220130090012905022013FA063288433BR  00000        219593-6                000014
100003995700900130050220130090013005022013FA063288447BR  00000        219593-7                000015
100003994400900131050220130090013105022013FA063288455BR  00000        219593-16               000016
100003994700900132050220130090013205022013FA063288464BR  00000        219593-17               000017
100003994800900133050220130090013305022013FA063288478BR  00000        219593-18               000018
100003995600900134050220130090013405022013FA063288481BR  00000        219593-19               000019
100003995100900135050220130090013505022013FA063288495BR  00000        219593-20               000020
100003995200900136050220130090013605022013FA063288504BR  00000        219593-21               000021
100003995800900137050220130090013705022013FA063288518BR  00000        219603-1                000022
100003997500900138050220130090013805022013FA063288521BR  00000        219603-2                000023
100003997600900139050220130090013905022013FA063288535BR  00000        219603-3                000024
100003996400900140050220130090014005022013FA063288549BR  00000        219603-4                000025
100003995900900141050220130090014105022013FA063288552BR  00000        219603-5                000026
100004001400900142050220130090014205022013FA063288566BR  00000        220041-1                000027
100003999000900143050220130090014305022013FA063288570BR  00000        220041-3                000028
100003998900900144050220130090014405022013FA063288583BR  00000        220041-4                000029
100003998600900145050220130090014505022013FA063288597BR  00000        220041-5                000030
100004000000900146050220130090014605022013FA063288606BR  00000        220041-6                000031
100003999100900147050220130090014705022013FA063288610BR  00000        220041-7                000032
100003998700900148050220130090014805022013FA063288623BR  00000        220041-8                000033
100003999200900149050220130090014905022013FA063288637BR  00000        220041-9                000034
100003998800900150050220130090015005022013FA063288645BR  00000        220041-10               000035
100003999400900151050220130090015105022013FA063288654BR  00000        220041-11               000036
100003998500900152050220130090015205022013FA063288668BR  00000        220041-12               000037
100003999300900153050220130090015305022013FA063288671BR  00000        220041-13               000038
100004001700900154050220130090015405022013FA063288685BR  00000        220048-1                000039
100004001600900155050220130090015505022013FA063288699BR  00000        220048-2                000040
100004003300900156050220130090015605022013FA063288708BR  00000        220048-3                000041
100004001500900157050220130090015705022013FA063288711BR  00000        220048-4                000042
100004002200900158050220130090015805022013FA063288725BR  00000        220048-10               000043
100004003400900159050220130090015905022013FA063288739BR  00000        220048-11               000044
100004003700900160050220130090016005022013FA063288742BR  00000        220048-12               000045
100004003600900161050220130090016105022013FA063288756BR  00000        220048-14               000046
100004003500900162050220130090016205022013FA063288760BR  00000        220048-15               000047
100004002700900163050220130090016305022013FA063288773BR  00000        220048-16               000048
100004002300900164050220130090016405022013FA063288787BR  00000        220048-17               000049
100004002400900165050220130090016505022013FA063288795BR  00000        220048-18               000050
100004003900900166050220130090016605022013FA063288800BR  00000        220291-1                000051
100004003800900167050220130090016705022013FA063288813BR  00000        220291-2                000052
9000051                                                                                       000053
