0RETORNONOTIFICACAO ELETRONICA        06052013REGI                                            000001
100000006700951555060520130095155506052013FA105112749BR  00000        234834-1                000002
100000006600951556060520130095155606052013FA105112752BR  00000        234834-4                000003
100000001600951557060520130095155706052013FA105112766BR  00000        234834-7                000004
100000014000951558060520130095155806052013FA105112770BR  00000        234834-10               000005
100000022000951559060520130095155906052013FA105112783BR  00000        234834-13               000006
100000025700951560060520130095156006052013FA105112797BR  00000        234834-16               000007
100000014900951561060520130095156106052013FA105112806BR  00000        234834-19               000008
100000002000951562060520130095156206052013FA105112810BR  00000        234834-22               000009
100000003900951563060520130095156306052013FA105112823BR  00000        234834-25               000010
100000043600951564060520130095156406052013FA105112837BR  00000        234834-28               000011
100000007600951565060520130095156506052013FA105112845BR  00000        234834-31               000012
100000011800951566060520130095156606052013FA105112854BR  00000        234834-34               000013
100000017500951567060520130095156706052013FA105112868BR  00000        234834-37               000014
100000036700951568060520130095156806052013FA105112871BR  00000        234834-40               000015
100000001200951569060520130095156906052013FA105112885BR  00000        234834-43               000016
100000002700951570060520130095157006052013FA105112899BR  00000        234834-46               000017
100000012200951571060520130095157106052013FA105112908BR  00000        234834-49               000018
100000014600951572060520130095157206052013FA105112911BR  00000        234834-52               000019
100000002200951573060520130095157306052013FA105112925BR  00000        234834-55               000020
100000012500951574060520130095157406052013FA105112939BR  00000        234834-58               000021
100000009300951575060520130095157506052013FA105112942BR  00000        234834-61               000022
100000016000951576060520130095157606052013FA105112956BR  00000        234834-64               000023
100000019700951577060520130095157706052013FA105112960BR  00000        234834-67               000024
100000004900951578060520130095157806052013FA105112973BR  00000        234834-70               000025
100000007100951579060520130095157906052013FA105112987BR  00000        234834-73               000026
100000000200951580060520130095158006052013FA105112995BR  00000        234834-76               000027
100000012500951581060520130095158106052013FA105113007BR  00000        234834-79               000028
100000001900951582060520130095158206052013FA105113015BR  00000        234834-82               000029
100000044500951583060520130095158306052013FA105113024BR  00000        234834-85               000030
100000003600951584060520130095158406052013FA105113038BR  00000        234834-88               000031
100000015100951585060520130095158506052013FA105113041BR  00000        234834-91               000032
100000007200951586060520130095158606052013FA105113055BR  00000        234834-94               000033
100000010400951587060520130095158706052013FA105113069BR  00000        234834-97               000034
100000023200951588060520130095158806052013FA105113072BR  00000        234834-100              000035
100000025300951589060520130095158906052013FA105113086BR  00000        234834-103              000036
9000035                                                                                       000037
