0RETORNONOTIFICACAO ELETRONICA        28112012REGI                                            000001
100000029900864393281120120086439328112012FA062948112BR  00000        207017-1                000002
100000003700864394281120120086439428112012FA062948126BR  00000        207019-1                000003
100000021700864395281120120086439528112012FA062948130BR  00000        207020-1                000004
100000018600864396281120120086439628112012FA062948143BR  00000        207021-1                000005
100000017300864397281120120086439728112012FA062948157BR  00000        207141-1                000006
9000005                                                                                       000007
