0RETORNONOTIFICACAO ELETRONICA        26102012REGI                                            000001
100000029500849204261020120084920426102012FA012602498BR  00000        201337-1                000002
100000002200849205261020120084920526102012FA012602507BR  00000        201337-3                000003
100000013700849206261020120084920626102012FA012602515BR  00000        201337-8                000004
100000014500849207261020120084920726102012FA012602524BR  00000        201409-1                000005
9000004                                                                                       000006
