0RETORNONOTIFICACAO ELETRONICA        05092013REGI                                            000001
100000010701030035050920130103003505092013FA159285005BR  00000        255870-1                000002
100000022101030036050920130103003605092013FA159285019BR  00000        255870-3                000003
100000022501030037050920130103003705092013FA159285022BR  00000        255870-5                000004
100000028901030038050920130103003805092013FA159285036BR  00000        255870-7                000005
100000025301030039050920130103003905092013FA159285040BR  00000        255870-9                000006
100000026201030040050920130103004005092013FA159285053BR  00000        255870-11               000007
100000013701030041050920130103004105092013FA159285067BR  00000        255870-13               000008
100000020401030042050920130103004205092013FA159285075BR  00000        255870-15               000009
100000025401030043050920130103004305092013FA159285084BR  00000        255870-17               000010
100000025501030044050920130103004405092013FA159285098BR  00000        255870-19               000011
100000003401030045050920130103004505092013FA159285107BR  00000        255870-21               000012
100000007701030046050920130103004605092013FA159285115BR  00000        255870-23               000013
100000013501030047050920130103004705092013FA159285124BR  00000        255870-25               000014
100000018201030048050920130103004805092013FA159285138BR  00000        255870-27               000015
100000016201030049050920130103004905092013FA159285141BR  00000        255870-29               000016
100000017401030050050920130103005005092013FA159285155BR  00000        255870-31               000017
100000017501030051050920130103005105092013FA159285169BR  00000        255870-33               000018
100000016201030052050920130103005205092013FA159285172BR  00000        255870-35               000019
100000016701030053050920130103005305092013FA159285186BR  00000        255870-37               000020
100000011101030054050920130103005405092013FA159285190BR  00000        255870-39               000021
100000009601030055050920130103005505092013FA159285209BR  00000        255870-41               000022
100000004301030056050920130103005605092013FA159285212BR  00000        255870-43               000023
100000020801030057050920130103005705092013FA159285226BR  00000        255870-45               000024
100000004701030058050920130103005805092013FA159285230BR  00000        255870-47               000025
100000032801030059050920130103005905092013FA159285243BR  00000        255870-49               000026
100000018201030060050920130103006005092013FA159285257BR  00000        255870-51               000027
100000020301030061050920130103006105092013FA159285265BR  00000        255870-53               000028
100000010201030062050920130103006205092013FA159285274BR  00000        255870-55               000029
100000013101030063050920130103006305092013FA159285288BR  00000        255870-58               000030
100000027501030064050920130103006405092013FA159285291BR  00000        255870-60               000031
100000029801030065050920130103006505092013FA159285305BR  00000        255870-62               000032
100000034201030066050920130103006605092013FA159285314BR  00000        255870-64               000033
100000041501030067050920130103006705092013FA159285328BR  00000        255870-66               000034
100000001101030068050920130103006805092013FA159285331BR  00000        255870-68               000035
100000018801030069050920130103006905092013FA159285345BR  00000        255870-70               000036
100000025201030070050920130103007005092013FA159285359BR  00000        255870-72               000037
100000025901030071050920130103007105092013FA159285362BR  00000        255870-74               000038
100000026201030072050920130103007205092013FA159285376BR  00000        255870-76               000039
100000028101030073050920130103007305092013FA159285380BR  00000        255870-78               000040
100000028901030074050920130103007405092013FA159285393BR  00000        255870-80               000041
100000002101030075050920130103007505092013FA159285402BR  00000        255870-82               000042
100000017601030076050920130103007605092013FA159285416BR  00000        255870-84               000043
100000027601030077050920130103007705092013FA159285420BR  00000        255870-86               000044
100000028001030078050920130103007805092013FA159285433BR  00000        255870-88               000045
100000029901030079050920130103007905092013FA159285447BR  00000        255870-90               000046
100000032701030080050920130103008005092013FA159285455BR  00000        255870-92               000047
100000034401030081050920130103008105092013FA159285464BR  00000        255870-94               000048
100000037601030082050920130103008205092013FA159285478BR  00000        255870-96               000049
100000044401030083050920130103008305092013FA159285481BR  00000        255870-98               000050
100000044601030084050920130103008405092013FA159285495BR  00000        255870-100              000051
100000047801030085050920130103008505092013FA159285504BR  00000        255870-102              000052
100000000801030086050920130103008605092013FA159285518BR  00000        255870-104              000053
100000004701030087050920130103008705092013FA159285521BR  00000        255870-106              000054
100000010801030088050920130103008805092013FA159285535BR  00000        255870-108              000055
100000012901030089050920130103008905092013FA159285549BR  00000        255870-110              000056
100000017101030090050920130103009005092013FA159285552BR  00000        255870-112              000057
100000022201030091050920130103009105092013FA159285566BR  00000        255870-115              000058
100000022701030092050920130103009205092013FA159285570BR  00000        255870-117              000059
100000024301030093050920130103009305092013FA159285583BR  00000        255870-119              000060
100000024501030094050920130103009405092013FA159285597BR  00000        255870-121              000061
100000025101030095050920130103009505092013FA159285606BR  00000        255870-123              000062
100000027301030096050920130103009605092013FA159285610BR  00000        255870-125              000063
100000034401030097050920130103009705092013FA159285623BR  00000        255870-128              000064
100000036801030098050920130103009805092013FA159285637BR  00000        255870-130              000065
100000037301030099050920130103009905092013FA159285645BR  00000        255870-133              000066
100000041601030100050920130103010005092013FA159285654BR  00000        255870-135              000067
100000048001030101050920130103010105092013FA159285668BR  00000        255870-137              000068
100000003001030102050920130103010205092013FA159285671BR  00000        255870-139              000069
100000006801030103050920130103010305092013FA159285685BR  00000        255870-141              000070
100000006901030104050920130103010405092013FA159285699BR  00000        255870-143              000071
100000000801030105050920130103010505092013FA159285708BR  00000        255870-145              000072
100000000901030106050920130103010605092013FA159285711BR  00000        255870-148              000073
100000001001030107050920130103010705092013FA159285725BR  00000        255870-151              000074
100000002601030108050920130103010805092013FA159285739BR  00000        255870-154              000075
100000003001030109050920130103010905092013FA159285742BR  00000        255870-156              000076
100000003101030110050920130103011005092013FA159285756BR  00000        255870-158              000077
100000000301030111050920130103011105092013FA159285760BR  00000        255870-160              000078
100000000401030112050920130103011205092013FA159285773BR  00000        255870-162              000079
100000000701030113050920130103011305092013FA159285787BR  00000        255870-165              000080
100000004401030114050920130103011405092013FA159285795BR  00000        255870-167              000081
100000006501030115050920130103011505092013FA159285800BR  00000        255870-169              000082
100000009201030116050920130103011605092013FA159285813BR  00000        255870-171              000083
100000015201030117050920130103011705092013FA159285827BR  00000        255870-173              000084
100000017301030118050920130103011805092013FA159285835BR  00000        255870-175              000085
100000021201030119050920130103011905092013FA159285844BR  00000        255870-177              000086
100000022701030120050920130103012005092013FA159285858BR  00000        255870-179              000087
100000025801030121050920130103012105092013FA159285861BR  00000        255870-181              000088
100000030801030122050920130103012205092013FA159285875BR  00000        255870-183              000089
100000034601030123050920130103012305092013FA159285889BR  00000        255870-185              000090
100000039801030124050920130103012405092013FA159285892BR  00000        255870-187              000091
100000043001030125050920130103012505092013FA159285901BR  00000        255870-189              000092
100000043401030126050920130103012605092013FA159285915BR  00000        255870-191              000093
100000044401030127050920130103012705092013FA159285929BR  00000        255870-193              000094
100000047401030128050920130103012805092013FA159285932BR  00000        255870-195              000095
100000048801030129050920130103012905092013FA159285946BR  00000        255870-197              000096
100000001901030130050920130103013005092013FA159285950BR  00000        255870-199              000097
100000003001030131050920130103013105092013FA159285963BR  00000        255870-201              000098
100000003801030132050920130103013205092013FA159285977BR  00000        255870-203              000099
100000003001030133050920130103013305092013FA159285985BR  00000        255870-205              000100
100000000101030134050920130103013405092013FA159285994BR  00000        255870-207              000101
100000000801030135050920130103013505092013FA159286005BR  00000        255870-210              000102
100000002101030136050920130103013605092013FA159286014BR  00000        255870-212              000103
100000002701030137050920130103013705092013FA159286028BR  00000        255870-214              000104
100000004701030138050920130103013805092013FA159286031BR  00000        255870-217              000105
100000008301030139050920130103013905092013FA159286045BR  00000        255870-219              000106
100000010001030140050920130103014005092013FA159286059BR  00000        255870-221              000107
100000001001030141050920130103014105092013FA159286062BR  00000        255870-223              000108
100000002101030142050920130103014205092013FA159286076BR  00000        255870-225              000109
100000002401030143050920130103014305092013FA159286080BR  00000        255870-227              000110
100000007501030144050920130103014405092013FA159286093BR  00000        255870-230              000111
100000012001030145050920130103014505092013FA159286102BR  00000        255870-232              000112
100000012801030146050920130103014605092013FA159286116BR  00000        255870-234              000113
100000016001030147050920130103014705092013FA159286120BR  00000        255870-236              000114
100000003801030148050920130103014805092013FA159286133BR  00000        255870-238              000115
100000004201030149050920130103014905092013FA159286147BR  00000        255870-241              000116
100000015001030150050920130103015005092013FA159286155BR  00000        255870-243              000117
100000007601030151050920130103015105092013FA159286164BR  00000        255870-245              000118
100000017501030152050920130103015205092013FA159286178BR  00000        255870-247              000119
100000019701030153050920130103015305092013FA159286181BR  00000        255870-249              000120
100000034701030154050920130103015405092013FA159286195BR  00000        255870-252              000121
100000035801030155050920130103015505092013FA159286204BR  00000        255870-254              000122
100000037201030156050920130103015605092013FA159286218BR  00000        255870-256              000123
100000040901030157050920130103015705092013FA159286221BR  00000        255870-258              000124
100000041801030158050920130103015805092013FA159286235BR  00000        255870-260              000125
100000044301030159050920130103015905092013FA159286249BR  00000        255870-262              000126
100000045601030160050920130103016005092013FA159286252BR  00000        255870-264              000127
100000048601030161050920130103016105092013FA159286266BR  00000        255870-266              000128
100000000101030162050920130103016205092013FA159286270BR  00000        255870-268              000129
100000000901030163050920130103016305092013FA159286283BR  00000        255870-270              000130
100000002901030164050920130103016405092013FA159286297BR  00000        255870-272              000131
100000004901030165050920130103016505092013FA159286306BR  00000        255870-274              000132
100000008501030166050920130103016605092013FA159286310BR  00000        255870-276              000133
100000008601030167050920130103016705092013FA159286323BR  00000        255870-278              000134
100000009901030168050920130103016805092013FA159286337BR  00000        255870-280              000135
100000011001030169050920130103016905092013FA159286345BR  00000        255870-282              000136
100000011101030170050920130103017005092013FA159286354BR  00000        255870-284              000137
100000011201030171050920130103017105092013FA159286368BR  00000        255870-287              000138
100000013101030172050920130103017205092013FA159286371BR  00000        255870-290              000139
100000020801030173050920130103017305092013FA159286385BR  00000        255870-292              000140
100000034401030174050920130103017405092013FA159286399BR  00000        255870-294              000141
100000036701030175050920130103017505092013FA159286408BR  00000        255870-296              000142
100000017001030176050920130103017605092013FA159286411BR  00000        255870-298              000143
100000017101030177050920130103017705092013FA159286425BR  00000        255870-300              000144
100000011501030178050920130103017805092013FA159286439BR  00000        255870-302              000145
100000034401030179050920130103017905092013FA159286442BR  00000        255870-304              000146
100000001401030180050920130103018005092013FA159286456BR  00000        255870-306              000147
100000003601030181050920130103018105092013FA159286460BR  00000        255870-308              000148
100000003901030182050920130103018205092013FA159286473BR  00000        255870-310              000149
100000001401030183050920130103018305092013FA159286487BR  00000        255870-312              000150
100000021001030184050920130103018405092013FA159286495BR  00000        255870-314              000151
100000016401030185050920130103018505092013FA159286500BR  00000        255870-316              000152
100000022401030186050920130103018605092013FA159286513BR  00000        255870-318              000153
100000039601030187050920130103018705092013FA159286527BR  00000        255870-320              000154
100000041501030188050920130103018805092013FA159286535BR  00000        255870-322              000155
100000044501030189050920130103018905092013FA159286544BR  00000        255870-324              000156
100000002301030190050920130103019005092013FA159286558BR  00000        255870-327              000157
100000005801030191050920130103019105092013FA159286561BR  00000        255870-329              000158
100000006401030192050920130103019205092013FA159286575BR  00000        255870-331              000159
100000006701030193050920130103019305092013FA159286589BR  00000        255870-333              000160
100000007801030194050920130103019405092013FA159286592BR  00000        255870-335              000161
100000008101030195050920130103019505092013FA159286601BR  00000        255870-337              000162
100000010901030196050920130103019605092013FA159286615BR  00000        255870-339              000163
100000012301030197050920130103019705092013FA159286629BR  00000        255870-342              000164
100000015101030198050920130103019805092013FA159286632BR  00000        255870-345              000165
100000021101030199050920130103019905092013FA159286646BR  00000        255870-348              000166
100000041101030200050920130103020005092013FA159286650BR  00000        255870-351              000167
100000041401030201050920130103020105092013FA159286663BR  00000        255870-353              000168
100000042701030202050920130103020205092013FA159286677BR  00000        255870-355              000169
100000043501030203050920130103020305092013FA159286685BR  00000        255870-357              000170
100000046201030204050920130103020405092013FA159286694BR  00000        255870-360              000171
100000046301030205050920130103020505092013FA159286703BR  00000        255870-362              000172
100000049101030206050920130103020605092013FA159286717BR  00000        255870-364              000173
100000007901030207050920130103020705092013FA159286725BR  00000        255870-366              000174
100000011101030208050920130103020805092013FA159286734BR  00000        255870-368              000175
100000026401030209050920130103020905092013FA159286748BR  00000        255870-370              000176
100000028701030210050920130103021005092013FA159286751BR  00000        255870-372              000177
100000000401030211050920130103021105092013FA159286765BR  00000        255870-374              000178
100000007301030212050920130103021205092013FA159286779BR  00000        255870-377              000179
100000015301030213050920130103021305092013FA159286782BR  00000        255870-379              000180
100000031701030214050920130103021405092013FA159286796BR  00000        255870-381              000181
100000033001030215050920130103021505092013FA159286805BR  00000        255870-384              000182
100000034101030216050920130103021605092013FA159286819BR  00000        255870-386              000183
100000041001030217050920130103021705092013FA159286822BR  00000        255870-388              000184
100000004301030218050920130103021805092013FA159286836BR  00000        255870-390              000185
100000005001030219050920130103021905092013FA159286840BR  00000        255870-392              000186
100000006301030220050920130103022005092013FA159286853BR  00000        255870-394              000187
100000007801030221050920130103022105092013FA159286867BR  00000        255870-397              000188
100000018601030222050920130103022205092013FA159286875BR  00000        255870-399              000189
100000021801030223050920130103022305092013FA159286884BR  00000        255870-401              000190
100000029301030224050920130103022405092013FA159286898BR  00000        255870-403              000191
100000032001030225050920130103022505092013FA159286907BR  00000        255870-405              000192
100000033601030226050920130103022605092013FA159286915BR  00000        255870-407              000193
100000003201030227050920130103022705092013FA159286924BR  00000        255870-409              000194
100000011101030228050920130103022805092013FA159286938BR  00000        255870-411              000195
100000017901030229050920130103022905092013FA159286941BR  00000        255870-414              000196
100000025901030230050920130103023005092013FA159286955BR  00000        255870-417              000197
100000033201030231050920130103023105092013FA159286969BR  00000        255870-420              000198
100000045601030232050920130103023205092013FA159286972BR  00000        255870-422              000199
100000045701030233050920130103023305092013FA159286986BR  00000        255870-424              000200
100000045801030234050920130103023405092013FA159286990BR  00000        255870-426              000201
100000047801030235050920130103023505092013FA159287006BR  00000        255870-428              000202
100000005601030236050920130103023605092013FA159287010BR  00000        255870-430              000203
100000019001030237050920130103023705092013FA159287023BR  00000        255870-432              000204
100000047701030238050920130103023805092013FA159287037BR  00000        255870-435              000205
100000018901030239050920130103023905092013FA159287045BR  00000        255870-437              000206
100000004801030240050920130103024005092013FA159287054BR  00000        255870-439              000207
100000006201030241050920130103024105092013FA159287068BR  00000        255870-441              000208
100000006601030242050920130103024205092013FA159287071BR  00000        255870-443              000209
100000026001030243050920130103024305092013FA159287085BR  00000        255870-445              000210
9000209                                                                                       000211
