0RETORNONOTIFICACAO ELETRONICA        11042012REGI                                            000001
100000041600747589110420120074758911042012FR851897155BR  00000        170041-1                000002
100000006300747590110420120074759011042012FR851897164BR  00000        170110-1                000003
100000003700747591110420120074759111042012FR851897178BR  00000        170112-1                000004
100000011400747592110420120074759211042012FR851897181BR  00000        170112-3                000005
100000018900747593110420120074759311042012FR851897195BR  00000        170112-5                000006
100000014500747594110420120074759411042012FR851897204BR  00000        170112-7                000007
100000017400747595110420120074759511042012FR851897218BR  00000        170112-9                000008
100000001300747596110420120074759611042012FR851897221BR  00000        170112-11               000009
100000019400747597110420120074759711042012FR851897235BR  00000        170112-13               000010
100000025900747598110420120074759811042012FR851897249BR  00000        170112-15               000011
100000028900747599110420120074759911042012FR851897252BR  00000        170112-17               000012
100000003200747600110420120074760011042012FR851897266BR  00000        170112-19               000013
100000019000747601110420120074760111042012FR851897270BR  00000        170112-21               000014
100000016200747602110420120074760211042012FR851897283BR  00000        170112-23               000015
100000017900747603110420120074760311042012FR851897297BR  00000        170112-25               000016
100000000700747604110420120074760411042012FR851897306BR  00000        170112-27               000017
100000008900747605110420120074760511042012FR851897310BR  00000        170113-1                000018
100000009800747606110420120074760611042012FR851897323BR  00000        170113-3                000019
100000009900747607110420120074760711042012FR851897337BR  00000        170113-5                000020
100000002900747608110420120074760811042012FR851897345BR  00000        170113-7                000021
100000023900747609110420120074760911042012FR851897354BR  00000        170113-9                000022
100000026200747610110420120074761011042012FR851897368BR  00000        170113-11               000023
100000001900747611110420120074761111042012FR851897371BR  00000        170113-13               000024
100000009400747612110420120074761211042012FR851897385BR  00000        170113-15               000025
100000016200747613110420120074761311042012FR851897399BR  00000        170113-17               000026
100000017600747614110420120074761411042012FR851897408BR  00000        170113-19               000027
100000026000747615110420120074761511042012FR851897411BR  00000        170113-21               000028
100000027600747616110420120074761611042012FR851897425BR  00000        170113-23               000029
100000033100747617110420120074761711042012FR851897439BR  00000        170113-25               000030
100000042000747618110420120074761811042012FR851897442BR  00000        170113-27               000031
100000044600747619110420120074761911042012FR851897456BR  00000        170113-30               000032
100000046400747620110420120074762011042012FR851897460BR  00000        170113-32               000033
100000046700747621110420120074762111042012FR851897473BR  00000        170113-34               000034
100000005600747622110420120074762211042012FR851897487BR  00000        170113-36               000035
100000021800747623110420120074762311042012FR851897495BR  00000        170113-38               000036
100000023200747624110420120074762411042012FR851897500BR  00000        170113-40               000037
100000034900747625110420120074762511042012FR851897513BR  00000        170113-42               000038
100000047100747626110420120074762611042012FR851897527BR  00000        170113-44               000039
100000001900747627110420120074762711042012FR851897535BR  00000        170113-46               000040
100000012600747628110420120074762811042012FR851897544BR  00000        170113-48               000041
100000022800747629110420120074762911042012FR851897558BR  00000        170113-50               000042
100000009600747630110420120074763011042012FR851897561BR  00000        170113-52               000043
100000040700747631110420120074763111042012FR851897575BR  00000        170113-54               000044
100000040800747632110420120074763211042012FR851897589BR  00000        170113-56               000045
100000017300747633110420120074763311042012FR851897592BR  00000        170115-1                000046
100000017400747634110420120074763411042012FR851897601BR  00000        170115-3                000047
100000017500747635110420120074763511042012FR851897615BR  00000        170115-5                000048
100000010800747636110420120074763611042012FR851897629BR  00000        170115-7                000049
100000026100747637110420120074763711042012FR851897632BR  00000        170115-9                000050
100000031300747638110420120074763811042012FR851897646BR  00000        170115-11               000051
100000035700747639110420120074763911042012FR851897650BR  00000        170115-13               000052
100000040000747640110420120074764011042012FR851897663BR  00000        170115-15               000053
100000022100747641110420120074764111042012FR851897677BR  00000        170115-17               000054
100000001500747642110420120074764211042012FR851897685BR  00000        170115-19               000055
100000021400747643110420120074764311042012FR851897694BR  00000        170115-21               000056
100000021700747644110420120074764411042012FR851897703BR  00000        170115-23               000057
100000024700747645110420120074764511042012FR851897717BR  00000        170115-25               000058
100000007200747646110420120074764611042012FR851897725BR  00000        170115-27               000059
100000007000747647110420120074764711042012FR851897734BR  00000        170115-29               000060
100000011700747648110420120074764811042012FR851897748BR  00000        170115-31               000061
100000013000747649110420120074764911042012FR851897751BR  00000        170115-33               000062
100000006000747650110420120074765011042012FR851897765BR  00000        170115-35               000063
100000010200747651110420120074765111042012FR851897779BR  00000        170115-37               000064
100000027900747652110420120074765211042012FR851897782BR  00000        170115-39               000065
100000029800747653110420120074765311042012FR851897796BR  00000        170115-41               000066
100000043600747654110420120074765411042012FR851897805BR  00000        170115-43               000067
100000012000747655110420120074765511042012FR851897819BR  00000        170115-45               000068
100000025700747656110420120074765611042012FR851897822BR  00000        170115-47               000069
100000003800747657110420120074765711042012FR851897836BR  00000        170115-49               000070
100000007600747658110420120074765811042012FR851897840BR  00000        170115-51               000071
100000011800747659110420120074765911042012FR851897853BR  00000        170115-53               000072
100000017500747660110420120074766011042012FR851897867BR  00000        170115-55               000073
100000025100747661110420120074766111042012FR851897875BR  00000        170115-57               000074
100000026100747662110420120074766211042012FR851897884BR  00000        170115-59               000075
100000028500747663110420120074766311042012FR851897898BR  00000        170115-61               000076
100000030700747664110420120074766411042012FR851897907BR  00000        170115-63               000077
100000036700747665110420120074766511042012FR851897915BR  00000        170115-65               000078
100000003500747666110420120074766611042012FR851897924BR  00000        170115-67               000079
100000004700747667110420120074766711042012FR851897938BR  00000        170115-69               000080
100000022200747668110420120074766811042012FR851897941BR  00000        170115-71               000081
100000033600747669110420120074766911042012FR851897955BR  00000        170115-73               000082
100000035300747670110420120074767011042012FR851897969BR  00000        170115-75               000083
100000037300747671110420120074767111042012FR851897972BR  00000        170115-77               000084
100000000900747672110420120074767211042012FR851897986BR  00000        170115-79               000085
100000001000747673110420120074767311042012FR851897990BR  00000        170115-81               000086
100000000100747674110420120074767411042012FR851898006BR  00000        170115-83               000087
100000006500747675110420120074767511042012FR851898010BR  00000        170115-85               000088
100000008600747676110420120074767611042012FR851898023BR  00000        170115-87               000089
100000026900747677110420120074767711042012FR851898037BR  00000        170115-89               000090
100000029900747678110420120074767811042012FR851898045BR  00000        170115-91               000091
100000041800747679110420120074767911042012FR851898054BR  00000        170115-93               000092
100000001700747680110420120074768011042012FR851898068BR  00000        170115-95               000093
100000002200747681110420120074768111042012FR851898071BR  00000        170115-97               000094
100000002300747682110420120074768211042012FR851898085BR  00000        170115-99               000095
100000002400747683110420120074768311042012FR851898099BR  00000        170115-101              000096
100000002500747684110420120074768411042012FR851898108BR  00000        170115-103              000097
100000002600747685110420120074768511042012FR851898111BR  00000        170115-105              000098
100000002700747686110420120074768611042012FR851898125BR  00000        170115-107              000099
100000001700747687110420120074768711042012FR851898139BR  00000        170115-109              000100
100000000100747688110420120074768811042012FR851898142BR  00000        170115-111              000101
100000000900747689110420120074768911042012FR851898156BR  00000        170115-113              000102
100000001000747690110420120074769011042012FR851898160BR  00000        170115-115              000103
100000001100747691110420120074769111042012FR851898173BR  00000        170115-117              000104
100000001200747692110420120074769211042012FR851898187BR  00000        170115-119              000105
100000001300747693110420120074769311042012FR851898195BR  00000        170115-121              000106
100000004200747694110420120074769411042012FR851898200BR  00000        170115-123              000107
100000001400747695110420120074769511042012FR851898213BR  00000        170115-125              000108
100000002200747696110420120074769611042012FR851898227BR  00000        170115-127              000109
100000003600747697110420120074769711042012FR851898235BR  00000        170115-129              000110
100000007500747698110420120074769811042012FR851898244BR  00000        170115-131              000111
100000015200747699110420120074769911042012FR851898258BR  00000        170115-133              000112
100000016600747700110420120074770011042012FR851898261BR  00000        170115-135              000113
100000004300747701110420120074770111042012FR851898275BR  00000        170115-137              000114
100000001700747702110420120074770211042012FR851898289BR  00000        170115-139              000115
100000004600747703110420120074770311042012FR851898292BR  00000        170115-141              000116
9000115                                                                                       000117
