0RETORNONOTIFICACAO ELETRONICA        05112012REGI                                            000001
100000006300854533051120120085453305112012FA012652888BR  00000        202672-1                000002
100000000600854534051120120085453405112012FA012652891BR  00000        202677-1                000003
100000020200854535051120120085453505112012FA012652905BR  00000        202677-10               000004
100000023500854536051120120085453605112012FA012652914BR  00000        202677-14               000005
9000004                                                                                       000006
