0RETORNONOTIFICACAO ELETRONICA        08102013REGI                                            000001
100000001901050613081020130105061308102013FA159482433BR  00000        261445-1                000002
100000003101050614081020130105061408102013FA159482447BR  00000        261445-3                000003
100000014401050615081020130105061508102013FA159482455BR  00000        261445-5                000004
100000015401050616081020130105061608102013FA159482464BR  00000        261445-7                000005
100000020301050617081020130105061708102013FA159482478BR  00000        261445-9                000006
100000001301050618081020130105061808102013FA159482481BR  00000        261445-11               000007
100000006901050619081020130105061908102013FA159482495BR  00000        261445-13               000008
100000019501050620081020130105062008102013FA159482504BR  00000        261445-15               000009
100000021601050621081020130105062108102013FA159482518BR  00000        261445-17               000010
100000019401050622081020130105062208102013FA159482521BR  00000        261445-19               000011
100000019701050623081020130105062308102013FA159482535BR  00000        261445-21               000012
100000002401050624081020130105062408102013FA159482549BR  00000        261445-23               000013
100000002501050625081020130105062508102013FA159482552BR  00000        261445-25               000014
100000002901050626081020130105062608102013FA159482566BR  00000        261445-27               000015
100000011601050627081020130105062708102013FA159482570BR  00000        261445-29               000016
100000011901050628081020130105062808102013FA159482583BR  00000        261445-31               000017
100000000701050629081020130105062908102013FA159482597BR  00000        261445-33               000018
100000010201050630081020130105063008102013FA159482606BR  00000        261445-35               000019
100000013901050631081020130105063108102013FA159482610BR  00000        261445-37               000020
100000017701050632081020130105063208102013FA159482623BR  00000        261445-39               000021
100000023901050633081020130105063308102013FA159482637BR  00000        261445-41               000022
100000008001050634081020130105063408102013FA159482645BR  00000        261445-43               000023
100000013201050635081020130105063508102013FA159482654BR  00000        261445-45               000024
100000019301050636081020130105063608102013FA159482668BR  00000        261445-47               000025
100000017201050637081020130105063708102013FA159482671BR  00000        261445-49               000026
100000002001050638081020130105063808102013FA159482685BR  00000        261445-51               000027
100000006001050639081020130105063908102013FA159482699BR  00000        261445-53               000028
100000032501050640081020130105064008102013FA159482708BR  00000        261445-55               000029
100000040601050641081020130105064108102013FA159482711BR  00000        261445-57               000030
100000000801050642081020130105064208102013FA159482725BR  00000        261445-59               000031
100000004201050643081020130105064308102013FA159482739BR  00000        261445-61               000032
100000007601050644081020130105064408102013FA159482742BR  00000        261445-63               000033
100000011801050645081020130105064508102013FA159482756BR  00000        261445-65               000034
100000017501050646081020130105064608102013FA159482760BR  00000        261445-67               000035
100000020601050647081020130105064708102013FA159482773BR  00000        261445-69               000036
100000028501050648081020130105064808102013FA159482787BR  00000        261445-71               000037
100000036701050649081020130105064908102013FA159482795BR  00000        261445-73               000038
100000040901050650081020130105065008102013FA159482800BR  00000        261445-75               000039
100000004801050651081020130105065108102013FA159482813BR  00000        261445-78               000040
100000016201050652081020130105065208102013FA159482827BR  00000        261445-80               000041
100000022901050653081020130105065308102013FA159482835BR  00000        261445-82               000042
100000036001050654081020130105065408102013FA159482844BR  00000        261445-84               000043
100000036301050655081020130105065508102013FA159482858BR  00000        261445-86               000044
100000043101050656081020130105065608102013FA159482861BR  00000        261445-88               000045
100000000101050657081020130105065708102013FA159482875BR  00000        261445-90               000046
100000023901050658081020130105065808102013FA159482889BR  00000        261445-92               000047
100000027201050659081020130105065908102013FA159482892BR  00000        261445-94               000048
100000038901050660081020130105066008102013FA159482901BR  00000        261445-96               000049
100000045501050661081020130105066108102013FA159482915BR  00000        261445-98               000050
100000001701050662081020130105066208102013FA159482929BR  00000        261445-100              000051
100000001101050663081020130105066308102013FA159482932BR  00000        261445-102              000052
100000001501050664081020130105066408102013FA159482946BR  00000        261445-104              000053
100000008801050665081020130105066508102013FA159482950BR  00000        261445-106              000054
100000011301050666081020130105066608102013FA159482963BR  00000        261445-108              000055
100000010401050667081020130105066708102013FA159482977BR  00000        261445-110              000056
100000029201050668081020130105066808102013FA159482985BR  00000        261445-112              000057
100000000201050669081020130105066908102013FA159482994BR  00000        261445-114              000058
100000006601050670081020130105067008102013FA159483005BR  00000        261445-116              000059
100000009001050671081020130105067108102013FA159483014BR  00000        261445-118              000060
100000011601050672081020130105067208102013FA159483028BR  00000        261445-120              000061
100000014101050673081020130105067308102013FA159483031BR  00000        261445-122              000062
100000016001050674081020130105067408102013FA159483045BR  00000        261445-124              000063
100000025301050675081020130105067508102013FA159483059BR  00000        261445-126              000064
100000025701050676081020130105067608102013FA159483062BR  00000        261445-128              000065
100000033501050677081020130105067708102013FA159483076BR  00000        261445-130              000066
100000004401050678081020130105067808102013FA159483080BR  00000        261445-132              000067
100000009801050679081020130105067908102013FA159483093BR  00000        261445-134              000068
100000023201050680081020130105068008102013FA159483102BR  00000        261445-136              000069
100000030901050681081020130105068108102013FA159483116BR  00000        261445-138              000070
100000033401050682081020130105068208102013FA159483120BR  00000        261445-140              000071
100000035001050683081020130105068308102013FA159483133BR  00000        261445-142              000072
100000043401050684081020130105068408102013FA159483147BR  00000        261445-144              000073
100000002001050685081020130105068508102013FA159483155BR  00000        261445-146              000074
100000000301050686081020130105068608102013FA159483164BR  00000        261445-148              000075
100000014601050687081020130105068708102013FA159483178BR  00000        261445-150              000076
100000018201050688081020130105068808102013FA159483181BR  00000        261445-152              000077
100000001201050689081020130105068908102013FA159483195BR  00000        261445-154              000078
100000000401050690081020130105069008102013FA159483204BR  00000        261445-156              000079
100000001201050691081020130105069108102013FA159483218BR  00000        261445-158              000080
100000001601050692081020130105069208102013FA159483221BR  00000        261445-160              000081
100000002301050693081020130105069308102013FA159483235BR  00000        261445-162              000082
100000002201050694081020130105069408102013FA159483249BR  00000        261445-164              000083
100000002301050695081020130105069508102013FA159483252BR  00000        261445-166              000084
100000007201050696081020130105069608102013FA159483266BR  00000        261445-168              000085
100000016301050697081020130105069708102013FA159483270BR  00000        261445-170              000086
100000019401050698081020130105069808102013FA159483283BR  00000        261445-172              000087
100000001501050699081020130105069908102013FA159483297BR  00000        261445-174              000088
100000025301050700081020130105070008102013FA159483306BR  00000        261445-176              000089
100000040401050701081020130105070108102013FA159483310BR  00000        261445-178              000090
100000023901050702081020130105070208102013FA159483323BR  00000        261445-180              000091
100000019101050703081020130105070308102013FA159483337BR  00000        261445-182              000092
100000027601050704081020130105070408102013FA159483345BR  00000        261445-184              000093
100000037201050705081020130105070508102013FA159483354BR  00000        261445-186              000094
100000014101050706081020130105070608102013FA159483368BR  00000        261445-188              000095
100000018101050707081020130105070708102013FA159483371BR  00000        261445-190              000096
100000021301050708081020130105070808102013FA159483385BR  00000        261445-192              000097
100000026001050709081020130105070908102013FA159483399BR  00000        261445-194              000098
100000001001050710081020130105071008102013FA159483408BR  00000        261445-196              000099
9000098                                                                                       000100
