0RETORNONOTIFICACAO ELETRONICA        27122012REGI                                            000001
100000002100876345271220120087634527122012FA063060385BR  00000        212603-1                000002
100000017100876346271220120087634627122012FA063060399BR  00000        212603-6                000003
100000015700876347271220120087634727122012FA063060408BR  00000        212869-1                000004
100000006100876348271220120087634827122012FA063060411BR  00000        212869-4                000005
100000022800876349271220120087634927122012FA063060425BR  00000        212869-6                000006
9000005                                                                                       000007
