0RETORNONOTIFICACAO ELETRONICA        08042013REGI                                            000001
100000022100934400080420130093440008042013FA104956885BR  00000        230151-1                000002
100000028500934401080420130093440108042013FA104956899BR  00000        230151-4                000003
100000000100934402080420130093440208042013FA104956908BR  00000        230151-7                000004
100000025300934403080420130093440308042013FA104956911BR  00000        230151-10               000005
100000010400934404080420130093440408042013FA104956925BR  00000        230151-13               000006
100000010600934405080420130093440508042013FA104956939BR  00000        230151-16               000007
100000029800934406080420130093440608042013FA104956942BR  00000        230151-19               000008
100000002600934407080420130093440708042013FA104956956BR  00000        230151-22               000009
100000038900934408080420130093440808042013FA104956960BR  00000        230151-25               000010
100000000100934409080420130093440908042013FA104956973BR  00000        230151-28               000011
100000007600934410080420130093441008042013FA104956987BR  00000        230151-31               000012
100000007700934411080420130093441108042013FA104956995BR  00000        230151-34               000013
100000006500934412080420130093441208042013FA104957007BR  00000        230151-37               000014
100000000900934413080420130093441308042013FA104957015BR  00000        230151-40               000015
100000021700934414080420130093441408042013FA104957024BR  00000        230151-43               000016
100000020100934415080420130093441508042013FA104957038BR  00000        230151-46               000017
100000013200934416080420130093441608042013FA104957041BR  00000        230151-49               000018
100000011500934417080420130093441708042013FA104957055BR  00000        230151-52               000019
100000036200934418080420130093441808042013FA104957069BR  00000        230151-55               000020
100000003900934419080420130093441908042013FA104957072BR  00000        230151-58               000021
100000018200934420080420130093442008042013FA104957086BR  00000        230151-61               000022
100000047700934421080420130093442108042013FA104957090BR  00000        230151-64               000023
100000026000934422080420130093442208042013FA104957109BR  00000        230151-67               000024
9000023                                                                                       000025
