0RETORNONOTIFICACAO ELETRONICA        13032012REGI                                            000001
100000000100730532130320120073053213032012RQ205595491BR  00000        166110-1                000002
100000008300730533130320120073053313032012RQ205595505BR  00000        166110-7                000003
100000003700730534130320120073053413032012RQ205595514BR  00000        166270-1                000004
100000029700730535130320120073053513032012RQ205595528BR  00000        166270-3                000005
100000007800730536130320120073053613032012RQ205595531BR  00000        166270-6                000006
100000013700730537130320120073053713032012RQ205595545BR  00000        166270-8                000007
100000013900730538130320120073053813032012RQ205595559BR  00000        166270-10               000008
100000014600730539130320120073053913032012RQ205595562BR  00000        166270-12               000009
100000037300730540130320120073054013032012RQ205595576BR  00000        166270-14               000010
100000002900730541130320120073054113032012RQ205595580BR  00000        166270-16               000011
100000017200730542130320120073054213032012RQ205595593BR  00000        166270-18               000012
100000017500730543130320120073054313032012RQ205595602BR  00000        166270-20               000013
100000030800730544130320120073054413032012RQ205595616BR  00000        166270-22               000014
100000033400730545130320120073054513032012RQ205595620BR  00000        166270-24               000015
100000033700730546130320120073054613032012RQ205595633BR  00000        166270-27               000016
100000018800730547130320120073054713032012RQ205595647BR  00000        166270-29               000017
100000001000730548130320120073054813032012RQ205595655BR  00000        166270-31               000018
100000009800730549130320120073054913032012RQ205595664BR  00000        166270-33               000019
100000011400730550130320120073055013032012RQ205595678BR  00000        166270-36               000020
100000012100730551130320120073055113032012RQ205595681BR  00000        166270-38               000021
100000013600730552130320120073055213032012RQ205595695BR  00000        166270-40               000022
100000028500730553130320120073055313032012RQ205595704BR  00000        166270-42               000023
100000002100730554130320120073055413032012RQ205595718BR  00000        166270-44               000024
100000003200730555130320120073055513032012RQ205595721BR  00000        166270-47               000025
100000004800730556130320120073055613032012RQ205595735BR  00000        166270-49               000026
100000006800730557130320120073055713032012RQ205595749BR  00000        166270-51               000027
100000007700730558130320120073055813032012RQ205595752BR  00000        166270-53               000028
100000001300730559130320120073055913032012RQ205595766BR  00000        166270-55               000029
100000004100730560130320120073056013032012RQ205595770BR  00000        166270-57               000030
100000010300730561130320120073056113032012RQ205595783BR  00000        166270-59               000031
100000013700730562130320120073056213032012RQ205595797BR  00000        166270-61               000032
100000021700730563130320120073056313032012RQ205595806BR  00000        166270-63               000033
100000022400730564130320120073056413032012RQ205595810BR  00000        166270-66               000034
100000026900730565130320120073056513032012RQ205595823BR  00000        166270-68               000035
100000003300730566130320120073056613032012RQ205595837BR  00000        166270-70               000036
100000005700730567130320120073056713032012RQ205595845BR  00000        166270-73               000037
100000011500730568130320120073056813032012RQ205595854BR  00000        166270-75               000038
100000011900730569130320120073056913032012RQ205595868BR  00000        166270-77               000039
100000017100730570130320120073057013032012RQ205595871BR  00000        166270-79               000040
100000018800730571130320120073057113032012RQ205595885BR  00000        166270-82               000041
100000025000730572130320120073057213032012RQ205595899BR  00000        166270-84               000042
100000012800730573130320120073057313032012RQ205595908BR  00000        166270-86               000043
100000017500730574130320120073057413032012RQ205595911BR  00000        166270-89               000044
100000021900730575130320120073057513032012RQ205595925BR  00000        166270-91               000045
100000034000730576130320120073057613032012RQ205595939BR  00000        166270-93               000046
100000028200730577130320120073057713032012RQ205595942BR  00000        166270-95               000047
100000031500730578130320120073057813032012RQ205595956BR  00000        166270-97               000048
100000026100730579130320120073057913032012RQ205595960BR  00000        166270-99               000049
100000006400730580130320120073058013032012RQ205595973BR  00000        166270-102              000050
100000013200730581130320120073058113032012RQ205595987BR  00000        166270-105              000051
100000018100730582130320120073058213032012RQ205595995BR  00000        166270-107              000052
100000021500730583130320120073058313032012RQ205596007BR  00000        166270-109              000053
100000026700730584130320120073058413032012RQ205596015BR  00000        166270-111              000054
100000030400730585130320120073058513032012RQ205596024BR  00000        166270-113              000055
100000032400730586130320120073058613032012RQ205596038BR  00000        166270-115              000056
100000034900730587130320120073058713032012RQ205596041BR  00000        166270-117              000057
100000041600730588130320120073058813032012RQ205596055BR  00000        166270-119              000058
100000044400730589130320120073058913032012RQ205596069BR  00000        166270-121              000059
100000044600730590130320120073059013032012RQ205596072BR  00000        166270-123              000060
100000047100730591130320120073059113032012RQ205596086BR  00000        166270-125              000061
100000047500730592130320120073059213032012RQ205596090BR  00000        166270-127              000062
100000047800730593130320120073059313032012RQ205596109BR  00000        166270-129              000063
100000007800730594130320120073059413032012RQ205596112BR  00000        166270-131              000064
100000015800730595130320120073059513032012RQ205596126BR  00000        166270-133              000065
100000021000730596130320120073059613032012RQ205596130BR  00000        166270-136              000066
100000029400730597130320120073059713032012RQ205596143BR  00000        166270-139              000067
100000029500730598130320120073059813032012RQ205596157BR  00000        166270-142              000068
100000034400730599130320120073059913032012RQ205596165BR  00000        166270-145              000069
100000043100730600130320120073060013032012RQ205596174BR  00000        166270-148              000070
100000048900730601130320120073060113032012RQ205596188BR  00000        166270-151              000071
100000000100730602130320120073060213032012RQ205596191BR  00000        166270-153              000072
100000000200730603130320120073060313032012RQ205596205BR  00000        166270-155              000073
100000000300730604130320120073060413032012RQ205596214BR  00000        166270-157              000074
100000003300730605130320120073060513032012RQ205596228BR  00000        166270-159              000075
100000003400730606130320120073060613032012RQ205596231BR  00000        166270-161              000076
100000000400730607130320120073060713032012RQ205596245BR  00000        166270-163              000077
100000001300730608130320120073060813032012RQ205596259BR  00000        166270-165              000078
100000001400730609130320120073060913032012RQ205596262BR  00000        166270-167              000079
100000001500730610130320120073061013032012RQ205596276BR  00000        166270-169              000080
100000001100730611130320120073061113032012RQ205596280BR  00000        166270-171              000081
100000001200730612130320120073061213032012RQ205596293BR  00000        166270-173              000082
100000007400730613130320120073061313032012RQ205596302BR  00000        166270-175              000083
100000019700730614130320120073061413032012RQ205596316BR  00000        166270-177              000084
100000039700730615130320120073061513032012RQ205596320BR  00000        166270-179              000085
100000047400730616130320120073061613032012RQ205596333BR  00000        166270-181              000086
100000001300730617130320120073061713032012RQ205596347BR  00000        166270-183              000087
100000000300730618130320120073061813032012RQ205596355BR  00000        166270-185              000088
100000000700730619130320120073061913032012RQ205596364BR  00000        166270-187              000089
100000000100730620130320120073062013032012RQ205596378BR  00000        166270-190              000090
100000001400730621130320120073062113032012RQ205596381BR  00000        166270-192              000091
100000008800730622130320120073062213032012RQ205596395BR  00000        166270-194              000092
100000008900730623130320120073062313032012RQ205596404BR  00000        166270-196              000093
100000009000730624130320120073062413032012RQ205596418BR  00000        166270-198              000094
100000009100730625130320120073062513032012RQ205596421BR  00000        166270-200              000095
100000000800730626130320120073062613032012RQ205596435BR  00000        166270-202              000096
100000003000730627130320120073062713032012RQ205596449BR  00000        166270-204              000097
100000006900730628130320120073062813032012RQ205596452BR  00000        166270-207              000098
100000016500730629130320120073062913032012RQ205596466BR  00000        166270-209              000099
100000006500730630130320120073063013032012RQ205596470BR  00000        166270-211              000100
100000010400730631130320120073063113032012RQ205596483BR  00000        166270-213              000101
100000004400730632130320120073063213032012RQ205596497BR  00000        166270-215              000102
100000007100730633130320120073063313032012RQ205596506BR  00000        166279-1                000103
100000008500730634130320120073063413032012RQ205596510BR  00000        166279-3                000104
100000011300730635130320120073063513032012RQ205596523BR  00000        166279-6                000105
100000004900730636130320120073063613032012RQ205596537BR  00000        166279-8                000106
100000005500730637130320120073063713032012RQ205596545BR  00000        166279-11               000107
100000016600730638130320120073063813032012RQ205596554BR  00000        166279-13               000108
100000018700730639130320120073063913032012RQ205596568BR  00000        166279-15               000109
100000020000730640130320120073064013032012RQ205596571BR  00000        166279-17               000110
100000023100730641130320120073064113032012RQ205596585BR  00000        166279-19               000111
100000024800730642130320120073064213032012RQ205596599BR  00000        166279-21               000112
100000028200730643130320120073064313032012RQ205596608BR  00000        166279-24               000113
100000023500730644130320120073064413032012RQ205596611BR  00000        166279-26               000114
100000033800730645130320120073064513032012RQ205596625BR  00000        166279-29               000115
100000040900730646130320120073064613032012RQ205596639BR  00000        166279-31               000116
100000006700730647130320120073064713032012RQ205596642BR  00000        166279-33               000117
100000012300730648130320120073064813032012RQ205596656BR  00000        166279-35               000118
100000023100730649130320120073064913032012RQ205596660BR  00000        166279-37               000119
100000026300730650130320120073065013032012RQ205596673BR  00000        166279-39               000120
100000042700730651130320120073065113032012RQ205596687BR  00000        166279-41               000121
100000045100730652130320120073065213032012RQ205596695BR  00000        166279-43               000122
100000024400730653130320120073065313032012RQ205596700BR  00000        166279-45               000123
100000006700730654130320120073065413032012RQ205596713BR  00000        166279-48               000124
100000032900730655130320120073065513032012RQ205596727BR  00000        166279-50               000125
100000047200730656130320120073065613032012RQ205596735BR  00000        166279-52               000126
100000019000730657130320120073065713032012RQ205596744BR  00000        166279-54               000127
100000000300730658130320120073065813032012RQ205596758BR  00000        166280-1                000128
100000010700730659130320120073065913032012RQ205596761BR  00000        166280-3                000129
100000014200730660130320120073066013032012RQ205596775BR  00000        166280-5                000130
100000018900730661130320120073066113032012RQ205596789BR  00000        166280-7                000131
100000021800730662130320120073066213032012RQ205596792BR  00000        166280-10               000132
100000026100730663130320120073066313032012RQ205596801BR  00000        166280-12               000133
100000029500730664130320120073066413032012RQ205596815BR  00000        166280-14               000134
100000006900730665130320120073066513032012RQ205596829BR  00000        166280-16               000135
100000007100730666130320120073066613032012RQ205596832BR  00000        166280-20               000136
100000021800730667130320120073066713032012RQ205596846BR  00000        166280-22               000137
100000025500730668130320120073066813032012RQ205596850BR  00000        166280-24               000138
100000028800730669130320120073066913032012RQ205596863BR  00000        166280-26               000139
100000029300730670130320120073067013032012RQ205596877BR  00000        166280-28               000140
100000000600730671130320120073067113032012RQ205596885BR  00000        166280-30               000141
100000002400730672130320120073067213032012RQ205596894BR  00000        166280-34               000142
100000002800730673130320120073067313032012RQ205596903BR  00000        166280-36               000143
100000006700730674130320120073067413032012RQ205596917BR  00000        166280-40               000144
100000015300730675130320120073067513032012RQ205596925BR  00000        166280-43               000145
100000018300730676130320120073067613032012RQ205596934BR  00000        166280-45               000146
100000000900730677130320120073067713032012RQ205596948BR  00000        166280-47               000147
100000004900730678130320120073067813032012RQ205596951BR  00000        166280-51               000148
100000011600730679130320120073067913032012RQ205596965BR  00000        166280-53               000149
100000013700730680130320120073068013032012RQ205596979BR  00000        166280-57               000150
100000019600730681130320120073068113032012RQ205596982BR  00000        166280-59               000151
100000021600730682130320120073068213032012RQ205596996BR  00000        166280-61               000152
100000022700730683130320120073068313032012RQ205597002BR  00000        166280-63               000153
100000003400730684130320120073068413032012RQ205597016BR  00000        166280-65               000154
100000004200730685130320120073068513032012RQ205597020BR  00000        166280-67               000155
100000005700730686130320120073068613032012RQ205597033BR  00000        166280-69               000156
100000018700730687130320120073068713032012RQ205597047BR  00000        166280-71               000157
100000000200730688130320120073068813032012RQ205597055BR  00000        166280-73               000158
100000000700730689130320120073068913032012RQ205597064BR  00000        166280-75               000159
100000001600730690130320120073069013032012RQ205597078BR  00000        166280-77               000160
100000019000730691130320120073069113032012RQ205597081BR  00000        166280-79               000161
100000016300730692130320120073069213032012RQ205597095BR  00000        166280-82               000162
100000001100730693130320120073069313032012RQ205597104BR  00000        166280-84               000163
100000022500730694130320120073069413032012RQ205597118BR  00000        166280-87               000164
9000163                                                                                       000165
