0RETORNONOTIFICACAO ELETRONICA        31072013REGI                                            000001
100000000101007521310720130100752131072013FA136420501BR  00000        249139-1                000002
100000000701007522310720130100752231072013FA136420515BR  00000        249139-3                000003
100000000901007523310720130100752331072013FA136420529BR  00000        249139-5                000004
100000001301007524310720130100752431072013FA136420532BR  00000        249139-8                000005
100000001901007525310720130100752531072013FA136420546BR  00000        249139-10               000006
100000002701007526310720130100752631072013FA136420550BR  00000        249139-12               000007
100000000901007527310720130100752731072013FA136420563BR  00000        249139-14               000008
9000007                                                                                       000009
