0RETORNONOTIFICACAO ELETRONICA        26122013REGI                                            000001
100000025901100713261220130110071326122013FA188313817BR  00000        274940-1                000002
100000020301101460261220130110146026122013FA188315384BR  00000        275041-1                000003
100000026001101461261220130110146126122013FA188315398BR  00000        275041-4                000004
100000024301101462261220130110146226122013FA188315407BR  00000        275041-7                000005
100000016001101463261220130110146326122013FA188315415BR  00000        275041-10               000006
100000019701101464261220130110146426122013FA188315424BR  00000        275041-13               000007
100000010401101465261220130110146526122013FA188315438BR  00000        275041-15               000008
100000014501101466261220130110146626122013FA188315441BR  00000        275041-18               000009
9000008                                                                                       000010
