0RETORNONOTIFICACAO ELETRONICA        17072012REGI                                            000001
100000006000795557170720120079555717072012FR971782968BR  00000        183857-1                000002
100000010500795558170720120079555817072012FR971782971BR  00000        183857-3                000003
100000014200795559170720120079555917072012FR971782985BR  00000        183857-5                000004
100000021800795560170720120079556017072012FR971782999BR  00000        183857-7                000005
100000029500795561170720120079556117072012FR971783005BR  00000        183857-9                000006
100000014500795562170720120079556217072012FR971783019BR  00000        183857-11               000007
100000006700795563170720120079556317072012FR971783022BR  00000        183857-13               000008
100000015300795564170720120079556417072012FR971783036BR  00000        183857-15               000009
100000004900795565170720120079556517072012FR971783040BR  00000        183857-17               000010
100000006900795566170720120079556617072012FR971783053BR  00000        183857-19               000011
100000013700795567170720120079556717072012FR971783067BR  00000        183857-21               000012
100000028200795568170720120079556817072012FR971783075BR  00000        183857-23               000013
100000018700795569170720120079556917072012FR971783084BR  00000        183857-25               000014
100000000700795570170720120079557017072012FR971783098BR  00000        183857-27               000015
100000006300795571170720120079557117072012FR971783107BR  00000        183857-29               000016
100000016300795572170720120079557217072012FR971783115BR  00000        183857-31               000017
100000017500795573170720120079557317072012FR971783124BR  00000        183857-33               000018
100000000700795574170720120079557417072012FR971783138BR  00000        183857-35               000019
100000021500795575170720120079557517072012FR971783141BR  00000        183857-37               000020
100000030800795576170720120079557617072012FR971783155BR  00000        183857-39               000021
100000038300795577170720120079557717072012FR971783169BR  00000        183857-41               000022
100000036000795578170720120079557817072012FR971783172BR  00000        183857-43               000023
100000001000795579170720120079557917072012FR971783186BR  00000        183857-45               000024
100000012100795580170720120079558017072012FR971783190BR  00000        183857-47               000025
100000013200795581170720120079558117072012FR971783209BR  00000        183857-49               000026
100000006400795582170720120079558217072012FR971783212BR  00000        183857-51               000027
100000013700795583170720120079558317072012FR971783226BR  00000        183857-53               000028
100000019800795584170720120079558417072012FR971783230BR  00000        183857-55               000029
100000000200795585170720120079558517072012FR971783243BR  00000        183857-57               000030
100000015300795586170720120079558617072012FR971783257BR  00000        183857-59               000031
100000004300795587170720120079558717072012FR971783265BR  00000        183857-61               000032
100000012000795588170720120079558817072012FR971783274BR  00000        183857-63               000033
100000014700795589170720120079558917072012FR971783288BR  00000        183857-65               000034
100000020200795590170720120079559017072012FR971783291BR  00000        183857-67               000035
100000022700795591170720120079559117072012FR971783305BR  00000        183857-69               000036
100000025000795592170720120079559217072012FR971783314BR  00000        183857-71               000037
100000004700795593170720120079559317072012FR971783328BR  00000        183857-73               000038
100000012800795594170720120079559417072012FR971783331BR  00000        183857-75               000039
100000034000795595170720120079559517072012FR971783345BR  00000        183857-77               000040
100000003200795596170720120079559617072012FR971783359BR  00000        183857-79               000041
100000006500795597170720120079559717072012FR971783362BR  00000        183857-81               000042
100000016600795598170720120079559817072012FR971783376BR  00000        183857-83               000043
100000029600795599170720120079559917072012FR971783380BR  00000        183857-85               000044
100000029900795600170720120079560017072012FR971783393BR  00000        183857-87               000045
100000037100795601170720120079560117072012FR971783402BR  00000        183857-89               000046
100000040900795602170720120079560217072012FR971783416BR  00000        183857-91               000047
100000044400795603170720120079560317072012FR971783420BR  00000        183857-93               000048
100000044600795604170720120079560417072012FR971783433BR  00000        183857-95               000049
100000046900795605170720120079560517072012FR971783447BR  00000        183857-97               000050
100000002100795606170720120079560617072012FR971783455BR  00000        183857-99               000051
100000000100795607170720120079560717072012FR971783464BR  00000        183857-101              000052
100000000200795608170720120079560817072012FR971783478BR  00000        183857-103              000053
100000000300795609170720120079560917072012FR971783481BR  00000        183857-105              000054
100000000400795610170720120079561017072012FR971783495BR  00000        183857-107              000055
100000006500795611170720120079561117072012FR971783504BR  00000        183857-109              000056
100000027200795612170720120079561217072012FR971783518BR  00000        183857-111              000057
100000043900795613170720120079561317072012FR971783521BR  00000        183857-113              000058
100000002400795614170720120079561417072012FR971783535BR  00000        183857-115              000059
100000000200795615170720120079561517072012FR971783549BR  00000        183857-117              000060
100000000300795616170720120079561617072012FR971783552BR  00000        183857-119              000061
100000001000795617170720120079561717072012FR971783566BR  00000        183857-121              000062
100000003200795618170720120079561817072012FR971783570BR  00000        183857-123              000063
100000003300795619170720120079561917072012FR971783583BR  00000        183857-125              000064
100000000900795620170720120079562017072012FR971783597BR  00000        183857-127              000065
100000001000795621170720120079562117072012FR971783606BR  00000        183857-129              000066
100000001100795622170720120079562217072012FR971783610BR  00000        183857-131              000067
100000001200795623170720120079562317072012FR971783623BR  00000        183857-133              000068
100000001300795624170720120079562417072012FR971783637BR  00000        183857-135              000069
100000008800795625170720120079562517072012FR971783645BR  00000        183857-137              000070
100000001400795626170720120079562617072012FR971783654BR  00000        183857-139              000071
100000015200795627170720120079562717072012FR971783668BR  00000        183857-141              000072
100000016000795628170720120079562817072012FR971783671BR  00000        183857-143              000073
100000009900795629170720120079562917072012FR971783685BR  00000        183857-145              000074
100000006100795630170720120079563017072012FR971783699BR  00000        183857-147              000075
100000016600795631170720120079563117072012FR971783708BR  00000        183857-149              000076
100000009200795632170720120079563217072012FR971783711BR  00000        183857-151              000077
100000016200795633170720120079563317072012FR971783725BR  00000        183857-153              000078
100000020200795634170720120079563417072012FR971783739BR  00000        183857-155              000079
100000033100795635170720120079563517072012FR971783742BR  00000        183857-157              000080
100000033800795636170720120079563617072012FR971783756BR  00000        183857-159              000081
100000044600795637170720120079563717072012FR971783760BR  00000        183857-161              000082
100000008200795638170720120079563817072012FR971783773BR  00000        183857-163              000083
100000012300795639170720120079563917072012FR971783787BR  00000        183857-165              000084
100000023100795640170720120079564017072012FR971783795BR  00000        183857-167              000085
100000045100795641170720120079564117072012FR971783800BR  00000        183857-169              000086
100000047300795642170720120079564217072012FR971783813BR  00000        183857-171              000087
100000029700795643170720120079564317072012FR971783827BR  00000        183857-173              000088
100000009400795644170720120079564417072012FR971783835BR  00000        183857-175              000089
100000001900795645170720120079564517072012FR971783844BR  00000        183857-177              000090
100000006300795646170720120079564617072012FR971783858BR  00000        183857-179              000091
100000020300795647170720120079564717072012FR971783861BR  00000        183857-181              000092
9000091                                                                                       000093
