0RETORNONOTIFICACAO ELETRONICA        04032013REGI                                            000001
100000011600913462040320130091346204032013FA104770143BR  00000        224732-1                000002
100000021500913463040320130091346304032013FA104770157BR  00000        224741-1                000003
100000003200913464040320130091346404032013FA104770165BR  00000        224741-6                000004
9000003                                                                                       000005
