0RETORNONOTIFICACAO ELETRONICA        11102011REGI                                            000001
100000002900642616111020110064261611102011RM948970635BR  00000        147624-1                000002
100000004300642617111020110064261711102011RM948970644BR  00000        147624-6                000003
100000027900642618111020110064261811102011RM948970658BR  00000        147624-8                000004
100000036300642619111020110064261911102011RM948970661BR  00000        147624-10               000005
100000038800642620111020110064262011102011RM948970675BR  00000        147624-12               000006
100000039000642621111020110064262111102011RM948970689BR  00000        147624-14               000007
100000041400642622111020110064262211102011RM948970692BR  00000        147624-16               000008
100000009600642623111020110064262311102011RM948970701BR  00000        147624-19               000009
100000014000642624111020110064262411102011RM948970715BR  00000        147624-21               000010
100000018900642625111020110064262511102011RM948970729BR  00000        147624-23               000011
100000022400642626111020110064262611102011RM948970732BR  00000        147624-25               000012
100000024900642627111020110064262711102011RM948970746BR  00000        147624-27               000013
100000033800642628111020110064262811102011RM948970750BR  00000        147624-29               000014
100000000100642629111020110064262911102011RM948970763BR  00000        147624-31               000015
100000004100642630111020110064263011102011RM948970777BR  00000        147624-33               000016
100000013700642631111020110064263111102011RM948970785BR  00000        147624-36               000017
100000013900642632111020110064263211102011RM948970794BR  00000        147624-38               000018
100000014600642633111020110064263311102011RM948970803BR  00000        147624-40               000019
100000017300642634111020110064263411102011RM948970817BR  00000        147624-42               000020
100000017400642635111020110064263511102011RM948970825BR  00000        147624-44               000021
100000017500642636111020110064263611102011RM948970834BR  00000        147624-46               000022
100000018900642637111020110064263711102011RM948970848BR  00000        147624-48               000023
100000036300642638111020110064263811102011RM948970851BR  00000        147624-50               000024
100000002900642639111020110064263911102011RM948970865BR  00000        147624-52               000025
100000012400642640111020110064264011102011RM948970879BR  00000        147624-54               000026
100000026100642641111020110064264111102011JL014584430BR  00000        147624-56               000027
100000027200642642111020110064264211102011RM948970882BR  00000        147624-58               000028
100000030800642643111020110064264311102011RM948970896BR  00000        147624-60               000029
100000031300642644111020110064264411102011RM948970905BR  00000        147624-62               000030
100000033700642645111020110064264511102011RM948970919BR  00000        147624-65               000031
100000038300642646111020110064264611102011RM948970922BR  00000        147624-67               000032
100000018700642647111020110064264711102011RM948970936BR  00000        147624-69               000033
100000018800642648111020110064264811102011RM948970940BR  00000        147624-71               000034
100000022500642649111020110064264911102011RM948970953BR  00000        147624-73               000035
100000024700642650111020110064265011102011RM948970967BR  00000        147624-75               000036
100000027800642651111020110064265111102011RM948970975BR  00000        147624-77               000037
100000040000642652111020110064265211102011RM948970984BR  00000        147624-79               000038
100000006700642653111020110064265311102011RM948970998BR  00000        147624-81               000039
100000022100642654111020110064265411102011RM948971004BR  00000        147624-83               000040
100000002100642655111020110064265511102011RM948971018BR  00000        147624-85               000041
100000004800642656111020110064265611102011RM948971021BR  00000        147624-87               000042
100000006800642657111020110064265711102011RM948971035BR  00000        147624-89               000043
100000007700642658111020110064265811102011RM948971049BR  00000        147624-91               000044
100000022800642659111020110064265911102011RM948971052BR  00000        147624-93               000045
100000003700642660111020110064266011102011RM948971066BR  00000        147624-95               000046
100000007800642661111020110064266111102011RM948971070BR  00000        147624-97               000047
100000011500642662111020110064266211102011RM948971083BR  00000        147624-100              000048
100000013200642663111020110064266311102011RM948971097BR  00000        147624-102              000049
100000019800642664111020110064266411102011RM948971106BR  00000        147624-104              000050
100000021700642665111020110064266511102011RM948971110BR  00000        147624-107              000051
100000022400642666111020110064266611102011RM948971123BR  00000        147624-110              000052
100000026900642667111020110064266711102011RM948971137BR  00000        147624-112              000053
100000002800642668111020110064266811102011RM948971145BR  00000        147624-115              000054
100000003300642669111020110064266911102011RM948971154BR  00000        147624-117              000055
100000008000642670111020110064267011102011RM948971168BR  00000        147624-119              000056
100000017100642671111020110064267111102011RM948971171BR  00000        147624-121              000057
100000028900642672111020110064267211102011RM948971185BR  00000        147624-123              000058
100000000500642673111020110064267311102011RM948971199BR  00000        147624-126              000059
100000008600642674111020110064267411102011RM948971208BR  00000        147624-128              000060
100000017200642675111020110064267511102011RM948971211BR  00000        147624-130              000061
100000017300642676111020110064267611102011RM948971225BR  00000        147624-132              000062
100000031700642677111020110064267711102011RM948971239BR  00000        147624-135              000063
100000037900642678111020110064267811102011RM948971242BR  00000        147624-137              000064
100000006800642679111020110064267911102011RM948971256BR  00000        147624-139              000065
100000013100642680111020110064268011102011RM948971260BR  00000        147624-141              000066
100000027900642681111020110064268111102011RM948971273BR  00000        147624-143              000067
100000030700642682111020110064268211102011RM948971287BR  00000        147624-145              000068
100000031500642683111020110064268311102011RM948971295BR  00000        147624-147              000069
100000032500642684111020110064268411102011RM948971300BR  00000        147624-149              000070
100000040200642685111020110064268511102011RM948971313BR  00000        147624-151              000071
100000045700642686111020110064268611102011RM948971327BR  00000        147624-153              000072
100000047600642687111020110064268711102011RM948971335BR  00000        147624-155              000073
100000000800642688111020110064268811102011RM948971344BR  00000        147624-158              000074
100000013200642689111020110064268911102011RM948971358BR  00000        147624-161              000075
100000006400642690111020110064269011102011RM948971361BR  00000        147624-163              000076
100000006500642691111020110064269111102011RM948971375BR  00000        147624-165              000077
100000007700642692111020110064269211102011RM948971389BR  00000        147624-167              000078
100000016600642693111020110064269311102011RM948971392BR  00000        147624-170              000079
100000021500642694111020110064269411102011RM948971401BR  00000        147624-172              000080
100000029900642695111020110064269511102011RM948971415BR  00000        147624-175              000081
100000047800642696111020110064269611102011RM948971429BR  00000        147624-178              000082
100000004300642697111020110064269711102011RM948971432BR  00000        147624-181              000083
100000001000642698111020110064269811102011RM948971446BR  00000        147624-183              000084
100000025500642699111020110064269911102011RM948971450BR  00000        147624-186              000085
100000027300642700111020110064270011102011RM948971463BR  00000        147624-188              000086
100000032600642701111020110064270111102011JL014584443BR  00000        147624-190              000087
100000034400642702111020110064270211102011RM948971477BR  00000        147624-193              000088
100000041600642703111020110064270311102011RM948971485BR  00000        147624-195              000089
100000043100642704111020110064270411102011RM948971494BR  00000        147624-197              000090
100000044100642705111020110064270511102011RM948971503BR  00000        147624-199              000091
100000046500642706111020110064270611102011RM948971517BR  00000        147624-201              000092
100000004900642707111020110064270711102011RM948971525BR  00000        147624-204              000093
100000001100642708111020110064270811102011RM948971534BR  00000        147624-207              000094
100000001300642709111020110064270911102011RM948971548BR  00000        147624-209              000095
100000001400642710111020110064271011102011RM948971551BR  00000        147624-211              000096
100000001500642711111020110064271111102011RM948971565BR  00000        147624-213              000097
100000001700642712111020110064271211102011RM948971579BR  00000        147624-215              000098
100000012200642713111020110064271311102011RM948971582BR  00000        147624-218              000099
100000019700642714111020110064271411102011RM948971596BR  00000        147624-220              000100
100000026900642715111020110064271511102011RM948971605BR  00000        147624-222              000101
100000033100642716111020110064271611102011RM948971619BR  00000        147624-224              000102
100000045500642717111020110064271711102011RM948971622BR  00000        147624-226              000103
100000000400642718111020110064271811102011RM948971636BR  00000        147624-228              000104
100000000500642719111020110064271911102011RM948971640BR  00000        147624-231              000105
100000000600642720111020110064272011102011RM948971653BR  00000        147624-234              000106
100000000700642721111020110064272111102011RM948971667BR  00000        147624-237              000107
100000001500642722111020110064272211102011RM948971675BR  00000        147624-240              000108
100000002200642723111020110064272311102011RM948971684BR  00000        147624-242              000109
100000002300642724111020110064272411102011RM948971698BR  00000        147624-244              000110
100000002400642725111020110064272511102011RM948971707BR  00000        147624-246              000111
100000002500642726111020110064272611102011RM948971715BR  00000        147624-248              000112
100000002600642727111020110064272711102011RM948971724BR  00000        147624-250              000113
100000002700642728111020110064272811102011RM948971738BR  00000        147624-252              000114
100000001700642729111020110064272911102011RM948971741BR  00000        147624-254              000115
100000002300642730111020110064273011102011RM948971755BR  00000        147624-256              000116
100000002400642731111020110064273111102011RM948971769BR  00000        147624-258              000117
100000003800642732111020110064273211102011RM948971772BR  00000        147624-261              000118
100000000200642733111020110064273311102011RM948971786BR  00000        147624-263              000119
100000000300642734111020110064273411102011RM948971790BR  00000        147624-266              000120
100000000700642735111020110064273511102011RM948971809BR  00000        147624-268              000121
100000000900642736111020110064273611102011RM948971812BR  00000        147624-270              000122
100000001000642737111020110064273711102011RM948971826BR  00000        147624-272              000123
100000000100642738111020110064273811102011RM948971830BR  00000        147624-274              000124
100000003700642739111020110064273911102011RM948971843BR  00000        147624-276              000125
100000008800642740111020110064274011102011RM948971857BR  00000        147624-278              000126
100000008900642741111020110064274111102011RM948971865BR  00000        147624-280              000127
100000009000642742111020110064274211102011RM948971874BR  00000        147624-282              000128
100000009100642743111020110064274311102011RM948971888BR  00000        147624-284              000129
100000002600642744111020110064274411102011RM948971891BR  00000        147624-286              000130
100000006500642745111020110064274511102011RM948971905BR  00000        147624-288              000131
100000010400642746111020110064274611102011RM948971914BR  00000        147624-290              000132
100000000100642747111020110064274711102011RM948971928BR  00000        147624-292              000133
100000010800642748111020110064274811102011RM948971931BR  00000        147625-1                000134
100000011700642749111020110064274911102011RM948971945BR  00000        147625-3                000135
100000008500642750111020110064275011102011RM948971959BR  00000        147625-5                000136
100000008900642751111020110064275111102011RM948971962BR  00000        147625-7                000137
100000017100642752111020110064275211102011RM948971976BR  00000        147625-9                000138
100000028200642753111020110064275311102011RM948971980BR  00000        147625-11               000139
100000002900642754111020110064275411102011RM948971993BR  00000        147625-13               000140
100000006100642755111020110064275511102011RM948972000BR  00000        147625-15               000141
100000010100642756111020110064275611102011RM948972013BR  00000        147625-17               000142
100000018700642757111020110064275711102011JL014584457BR  00000        147625-19               000143
100000020000642758111020110064275811102011RM948972027BR  00000        147625-21               000144
100000009200642759111020110064275911102011RM948972035BR  00000        147625-23               000145
100000023500642760111020110064276011102011RM948972044BR  00000        147625-25               000146
100000029700642761111020110064276111102011RM948972058BR  00000        147625-27               000147
100000033100642762111020110064276211102011RM948972061BR  00000        147625-29               000148
100000038700642763111020110064276311102011RM948972075BR  00000        147625-31               000149
100000042000642764111020110064276411102011RM948972089BR  00000        147625-33               000150
100000046700642765111020110064276511102011RM948972092BR  00000        147625-35               000151
100000007500642766111020110064276611102011RM948972101BR  00000        147625-37               000152
100000021800642767111020110064276711102011RM948972115BR  00000        147625-39               000153
100000049200642768111020110064276811102011RM948972129BR  00000        147625-41               000154
100000024400642769111020110064276911102011RM948972132BR  00000        147625-43               000155
100000031700642770111020110064277011102011RM948972146BR  00000        147625-46               000156
100000040700642771111020110064277111102011RM948972150BR  00000        147625-48               000157
100000040800642772111020110064277211102011RM948972163BR  00000        147625-50               000158
100000012400642773111020110064277311102011RM948972177BR  00000        147625-52               000159
100000041900642774111020110064277411102011RM948972185BR  00000        147625-54               000160
100000002400642775111020110064277511102011RM948972194BR  00000        147626-1                000161
100000006300642776111020110064277611102011RM948972203BR  00000        147626-3                000162
100000006600642777111020110064277711102011RM948972217BR  00000        147627-1                000163
100000011300642778111020110064277811102011RM948972225BR  00000        147627-3                000164
100000015300642779111020110064277911102011RM948972234BR  00000        147627-5                000165
100000003500642780111020110064278011102011RM948972248BR  00000        147627-7                000166
100000021800642781111020110064278111102011RM948972251BR  00000        147627-9                000167
100000026100642782111020110064278211102011JL014584465BR  00000        147627-11               000168
100000000600642783111020110064278311102011RM948972265BR  00000        147627-14               000169
100000004300642784111020110064278411102011JL014584474BR  00000        147627-17               000170
100000005000642785111020110064278511102011RM948972279BR  00000        147627-19               000171
100000007200642786111020110064278611102011RM948972282BR  00000        147627-21               000172
100000011300642787111020110064278711102011RM948972296BR  00000        147627-24               000173
100000012600642788111020110064278811102011RM948972305BR  00000        147627-26               000174
100000014200642789111020110064278911102011RM948972319BR  00000        147627-28               000175
100000014500642790111020110064279011102011RM948972322BR  00000        147627-30               000176
100000015600642791111020110064279111102011RM948972336BR  00000        147627-33               000177
100000017400642792111020110064279211102011RM948972340BR  00000        147627-40               000178
100000024200642793111020110064279311102011JL014584488BR  00000        147627-42               000179
100000025500642794111020110064279411102011JL014584491BR  00000        147627-45               000180
100000015300642795111020110064279511102011RM948972353BR  00000        147627-48               000181
100000015700642796111020110064279611102011RM948972367BR  00000        147627-50               000182
100000017400642797111020110064279711102011RM948972375BR  00000        147627-52               000183
100000025900642798111020110064279811102011JL014584505BR  00000        147627-54               000184
100000028600642799111020110064279911102011RM948972384BR  00000        147627-56               000185
100000004900642800111020110064280011102011RM948972398BR  00000        147627-63               000186
100000009000642801111020110064280111102011RM948972407BR  00000        147627-65               000187
100000009800642802111020110064280211102011RM948972415BR  00000        147627-67               000188
100000019100642803111020110064280311102011RM948972424BR  00000        147627-74               000189
100000020400642804111020110064280411102011RM948972438BR  00000        147627-76               000190
100000020800642805111020110064280511102011JL014584514BR  00000        147627-78               000191
100000021600642806111020110064280611102011RM948972441BR  00000        147627-81               000192
100000025400642807111020110064280711102011RM948972455BR  00000        147627-84               000193
100000025500642808111020110064280811102011RM948972469BR  00000        147627-86               000194
100000000500642809111020110064280911102011JL014584528BR  00000        147627-88               000195
100000002200642810111020110064281011102011RM948972472BR  00000        147627-91               000196
100000017500642811111020110064281111102011JL014584531BR  00000        147627-93               000197
100000000700642812111020110064281211102011RM948972486BR  00000        147627-95               000198
100000002100642813111020110064281311102011JL014584545BR  00000        147627-97               000199
100000005600642814111020110064281411102011JL014584559BR  00000        147627-100              000200
100000009000642815111020110064281511102011RM948972490BR  00000        147627-103              000201
100000017400642816111020110064281611102011RM948972509BR  00000        147627-105              000202
100000019500642817111020110064281711102011JL014584562BR  00000        147627-108              000203
100000044500642818111020110064281811102011RM948972512BR  00000        147757-1                000204
9000203                                                                                       000205
