0RETORNONOTIFICACAO ELETRONICA        01082013REGI                                            000001
100000014001008646010820130100864601082013FA136431305BR  00000        249422-1                000002
100000000201008647010820130100864701082013FA136431314BR  00000        249422-4                000003
100000024301008648010820130100864801082013FA136431328BR  00000        249422-7                000004
9000003                                                                                       000005
