0RETORNONOTIFICACAO ELETRONICA        12122011REGI                                            000001
100000011700687236121220110068723612122011RQ046296085BR  00000        155179-1                000002
100000008500687237121220110068723712122011RQ046296094BR  00000        155179-3                000003
100000017100687238121220110068723812122011RQ046296103BR  00000        155179-5                000004
100000003200687239121220110068723912122011RQ046296117BR  00000        155179-7                000005
100000004900687240121220110068724012122011RQ046296125BR  00000        155179-9                000006
100000008700687241121220110068724112122011RQ046296134BR  00000        155179-13               000007
100000018700687242121220110068724212122011JL014611325BR  00000        155179-15               000008
100000025800687243121220110068724312122011RQ046296148BR  00000        155179-17               000009
100000016200687244121220110068724412122011RQ046296151BR  00000        155179-19               000010
100000020200687245121220110068724512122011RQ046296165BR  00000        155179-21               000011
100000026000687246121220110068724612122011RQ046296179BR  00000        155179-23               000012
100000029700687247121220110068724712122011RQ046296182BR  00000        155179-26               000013
100000043200687248121220110068724812122011RQ046296196BR  00000        155179-28               000014
100000045100687249121220110068724912122011RQ046296205BR  00000        155179-30               000015
100000047600687250121220110068725012122011RQ046296219BR  00000        155179-32               000016
100000049200687251121220110068725112122011RQ046296222BR  00000        155179-34               000017
100000014400687252121220110068725212122011RQ046296236BR  00000        155179-36               000018
100000024400687253121220110068725312122011RQ046296240BR  00000        155179-38               000019
100000030800687254121220110068725412122011RQ046296253BR  00000        155179-41               000020
100000034100687255121220110068725512122011RQ046296267BR  00000        155179-43               000021
100000003700687256121220110068725612122011RQ046296275BR  00000        155181-1                000022
100000025800687257121220110068725712122011RQ046296284BR  00000        155181-3                000023
100000027900687258121220110068725812122011RQ046296298BR  00000        155181-5                000024
100000038800687259121220110068725912122011RQ046296307BR  00000        155181-7                000025
100000039000687260121220110068726012122011RQ046296315BR  00000        155181-10               000026
100000041400687261121220110068726112122011RQ046296324BR  00000        155181-13               000027
100000041900687262121220110068726212122011RQ046296338BR  00000        155181-15               000028
100000042500687263121220110068726312122011RQ046296341BR  00000        155181-17               000029
100000043700687264121220110068726412122011RQ046296355BR  00000        155181-20               000030
100000007800687265121220110068726512122011RQ046296369BR  00000        155181-22               000031
100000009500687266121220110068726612122011RQ046296372BR  00000        155181-24               000032
100000014600687267121220110068726712122011RQ046296386BR  00000        155181-26               000033
100000024900687268121220110068726812122011RQ046296390BR  00000        155181-28               000034
100000030500687269121220110068726912122011RQ046296409BR  00000        155181-31               000035
100000000100687270121220110068727012122011RQ046296412BR  00000        155181-33               000036
100000017300687271121220110068727112122011RQ046296426BR  00000        155181-35               000037
100000017400687272121220110068727212122011RQ046296430BR  00000        155181-37               000038
100000017500687273121220110068727312122011RQ046296443BR  00000        155181-39               000039
100000018900687274121220110068727412122011RQ046296457BR  00000        155181-41               000040
100000026300687275121220110068727512122011RQ046296465BR  00000        155181-43               000041
100000033400687276121220110068727612122011RQ046296474BR  00000        155181-46               000042
100000003600687277121220110068727712122011RQ046296488BR  00000        155181-48               000043
100000018700687278121220110068727812122011RQ046296491BR  00000        155181-50               000044
100000018800687279121220110068727912122011RQ046296505BR  00000        155181-52               000045
100000022500687280121220110068728012122011RQ046296514BR  00000        155181-54               000046
100000040000687281121220110068728112122011RQ046296528BR  00000        155181-57               000047
100000015800687282121220110068728212122011RQ046296531BR  00000        155181-59               000048
100000017900687283121220110068728312122011RQ046296545BR  00000        155181-61               000049
100000022100687284121220110068728412122011RQ046296559BR  00000        155181-63               000050
100000004800687285121220110068728512122011RQ046296562BR  00000        155181-65               000051
100000007700687286121220110068728612122011RQ046296576BR  00000        155181-67               000052
100000003700687287121220110068728712122011RQ046296580BR  00000        155181-70               000053
100000011500687288121220110068728812122011RQ046296593BR  00000        155181-72               000054
100000021700687289121220110068728912122011RQ046296602BR  00000        155181-74               000055
100000023500687290121220110068729012122011RQ046296616BR  00000        155181-76               000056
100000003300687291121220110068729112122011RQ046296620BR  00000        155181-78               000057
100000008000687292121220110068729212122011RQ046296633BR  00000        155181-80               000058
100000011500687293121220110068729312122011RQ046296647BR  00000        155181-82               000059
100000023200687294121220110068729412122011RQ046296655BR  00000        155181-84               000060
100000006800687295121220110068729512122011RQ046296664BR  00000        155181-86               000061
100000025400687296121220110068729612122011RQ046296678BR  00000        155181-88               000062
100000003600687297121220110068729712122011RQ046296681BR  00000        155181-90               000063
100000027900687298121220110068729812122011RQ046296695BR  00000        155181-92               000064
100000030700687299121220110068729912122011RQ046296704BR  00000        155181-94               000065
100000031900687300121220110068730012122011RQ046296718BR  00000        155181-96               000066
100000040200687301121220110068730112122011RQ046296721BR  00000        155181-98               000067
100000043600687302121220110068730212122011RQ046296735BR  00000        155181-100              000068
100000047600687303121220110068730312122011RQ046296749BR  00000        155181-102              000069
100000006400687304121220110068730412122011RQ046296752BR  00000        155181-104              000070
100000008400687305121220110068730512122011RQ046296766BR  00000        155181-106              000071
100000016600687306121220110068730612122011RQ046296770BR  00000        155181-108              000072
100000018700687307121220110068730712122011RQ046296783BR  00000        155181-110              000073
100000026200687308121220110068730812122011RQ046296797BR  00000        155181-112              000074
100000027600687309121220110068730912122011RQ046296806BR  00000        155181-114              000075
100000033100687310121220110068731012122011RQ046296810BR  00000        155181-116              000076
100000041100687311121220110068731112122011RQ046296823BR  00000        155181-118              000077
100000001000687312121220110068731212122011RQ046296837BR  00000        155181-120              000078
100000007800687313121220110068731312122011RQ046296845BR  00000        155181-123              000079
100000015800687314121220110068731412122011RQ046296854BR  00000        155181-125              000080
100000018600687315121220110068731512122011RQ046296868BR  00000        155181-127              000081
100000021000687316121220110068731612122011RQ046296871BR  00000        155181-129              000082
100000027300687317121220110068731712122011RQ046296885BR  00000        155181-131              000083
100000041600687318121220110068731812122011RQ046296899BR  00000        155181-133              000084
100000044100687319121220110068731912122011RQ046296908BR  00000        155181-135              000085
100000048900687320121220110068732012122011RQ046296911BR  00000        155181-137              000086
100000004900687321121220110068732112122011RQ046296925BR  00000        155181-139              000087
100000001100687322121220110068732212122011RQ046296939BR  00000        155181-141              000088
100000001700687323121220110068732312122011RQ046296942BR  00000        155181-143              000089
100000000100687324121220110068732412122011RQ046296956BR  00000        155181-146              000090
100000012200687325121220110068732512122011RQ046296960BR  00000        155181-148              000091
100000013200687326121220110068732612122011RQ046296973BR  00000        155181-150              000092
100000031500687327121220110068732712122011RQ046296987BR  00000        155181-152              000093
100000040900687328121220110068732812122011RQ046296995BR  00000        155181-154              000094
100000042100687329121220110068732912122011RQ046297007BR  00000        155181-156              000095
100000045800687330121220110068733012122011RQ046297015BR  00000        155181-158              000096
100000000100687331121220110068733112122011RQ046297024BR  00000        155181-160              000097
100000000400687332121220110068733212122011RQ046297038BR  00000        155181-162              000098
100000000500687333121220110068733312122011RQ046297041BR  00000        155181-164              000099
100000000600687334121220110068733412122011RQ046297055BR  00000        155181-166              000100
100000000700687335121220110068733512122011RQ046297069BR  00000        155181-168              000101
100000001300687336121220110068733612122011RQ046297072BR  00000        155181-170              000102
100000001400687337121220110068733712122011RQ046297086BR  00000        155181-173              000103
100000002200687338121220110068733812122011RQ046297090BR  00000        155181-176              000104
100000002300687339121220110068733912122011RQ046297109BR  00000        155181-178              000105
100000002400687340121220110068734012122011RQ046297112BR  00000        155181-180              000106
100000002500687341121220110068734112122011RQ046297126BR  00000        155181-182              000107
100000002600687342121220110068734212122011RQ046297130BR  00000        155181-184              000108
100000002700687343121220110068734312122011RQ046297143BR  00000        155181-186              000109
100000003800687344121220110068734412122011RQ046297157BR  00000        155181-188              000110
100000000200687345121220110068734512122011RQ046297165BR  00000        155181-190              000111
100000000300687346121220110068734612122011RQ046297174BR  00000        155181-192              000112
100000000900687347121220110068734712122011RQ046297188BR  00000        155181-195              000113
100000001000687348121220110068734812122011RQ046297191BR  00000        155181-198              000114
100000002200687349121220110068734912122011RQ046297205BR  00000        155181-200              000115
100000007600687350121220110068735012122011RQ046297214BR  00000        155181-202              000116
100000007700687351121220110068735112122011RQ046297228BR  00000        155181-204              000117
100000003700687352121220110068735212122011RQ046297231BR  00000        155181-206              000118
100000000800687353121220110068735312122011RQ046297245BR  00000        155181-208              000119
100000002600687354121220110068735412122011RQ046297259BR  00000        155181-210              000120
100000002900687355121220110068735512122011RQ046297262BR  00000        155181-212              000121
100000003000687356121220110068735612122011RQ046297276BR  00000        155181-214              000122
100000006500687357121220110068735712122011RQ046297280BR  00000        155181-216              000123
100000000300687358121220110068735812122011RQ046297293BR  00000        155186-1                000124
100000001500687359121220110068735912122011RQ046297302BR  00000        155186-5                000125
100000003100687360121220110068736012122011RQ046297316BR  00000        155186-7                000126
100000010700687361121220110068736112122011JL014611339BR  00000        155186-9                000127
100000018500687362121220110068736212122011RQ046297320BR  00000        155186-11               000128
100000018900687363121220110068736312122011RQ046297333BR  00000        155186-13               000129
100000026100687364121220110068736412122011JL014611342BR  00000        155186-16               000130
100000007200687365121220110068736512122011RQ046297347BR  00000        155186-18               000131
100000015800687366121220110068736612122011RQ046297355BR  00000        155186-20               000132
100000025500687367121220110068736712122011JL014611356BR  00000        155186-24               000133
100000000600687368121220110068736812122011RQ046297364BR  00000        155186-26               000134
100000002800687369121220110068736912122011RQ046297378BR  00000        155186-28               000135
100000019400687370121220110068737012122011JL014611360BR  00000        155186-30               000136
100000019900687371121220110068737112122011RQ046297381BR  00000        155186-33               000137
100000029100687372121220110068737212122011JL014611373BR  00000        155186-35               000138
100000000900687373121220110068737312122011RQ046297395BR  00000        155186-39               000139
100000011200687374121220110068737412122011RQ046297404BR  00000        155186-41               000140
100000011600687375121220110068737512122011RQ046297418BR  00000        155186-47               000141
100000019100687376121220110068737612122011RQ046297421BR  00000        155186-50               000142
100000020400687377121220110068737712122011RQ046297435BR  00000        155186-52               000143
100000020800687378121220110068737812122011JL014611387BR  00000        155186-55               000144
100000025400687379121220110068737912122011RQ046297449BR  00000        155186-59               000145
100000025500687380121220110068738012122011RQ046297452BR  00000        155186-61               000146
100000019000687381121220110068738112122011JL014611395BR  00000        155186-63               000147
100000016200687382121220110068738212122011RQ046297466BR  00000        155186-67               000148
100000006300687383121220110068738312122011RQ046297470BR  00000        155187-1                000149
9000148                                                                                       000150
