0RETORNONOTIFICACAO ELETRONICA        10022012REGI                                            000001
100000017300716127100220120071612710022012RQ049776024BR  00000        163058-1                000002
100000017400716128100220120071612810022012RQ049776038BR  00000        163058-3                000003
100000017500716129100220120071612910022012RQ049776041BR  00000        163058-5                000004
100000026300716130100220120071613010022012RQ049776055BR  00000        163058-7                000005
100000031300716131100220120071613110022012RQ049776069BR  00000        163058-9                000006
100000018700716132100220120071613210022012RQ049776072BR  00000        163058-11               000007
100000024400716133100220120071613310022012RQ049776086BR  00000        163058-13               000008
100000026500716134100220120071613410022012RQ049776090BR  00000        163058-15               000009
100000009800716135100220120071613510022012RQ049776109BR  00000        163058-17               000010
100000006800716136100220120071613610022012RQ049776112BR  00000        163058-19               000011
100000026100716137100220120071613710022012RQ049776126BR  00000        163058-21               000012
100000003000716138100220120071613810022012RQ049776130BR  00000        163058-23               000013
100000011500716139100220120071613910022012RQ049776143BR  00000        163058-25               000014
100000015900716140100220120071614010022012RQ049776157BR  00000        163058-27               000015
100000019800716141100220120071614110022012RQ049776165BR  00000        163058-29               000016
100000021700716142100220120071614210022012RQ049776174BR  00000        163058-31               000017
100000022400716143100220120071614310022012RQ049776188BR  00000        163058-33               000018
100000025400716144100220120071614410022012RQ049776191BR  00000        163058-35               000019
100000003300716145100220120071614510022012RQ049776205BR  00000        163058-37               000020
100000008000716146100220120071614610022012RQ049776214BR  00000        163058-39               000021
100000023700716147100220120071614710022012RQ049776228BR  00000        163058-41               000022
100000003100716148100220120071614810022012RQ049776231BR  00000        163058-43               000023
100000013400716149100220120071614910022012RQ049776245BR  00000        163058-45               000024
100000023600716150100220120071615010022012RQ049776259BR  00000        163058-47               000025
100000017300716151100220120071615110022012RQ049776262BR  00000        163058-49               000026
100000035300716152100220120071615210022012RQ049776276BR  00000        163058-51               000027
100000017100716153100220120071615310022012RQ049776280BR  00000        163058-53               000028
100000027900716154100220120071615410022012RQ049776293BR  00000        163058-55               000029
100000040200716155100220120071615510022012RQ049776302BR  00000        163058-57               000030
100000043600716156100220120071615610022012RQ049776316BR  00000        163058-59               000031
100000024900716157100220120071615710022012RQ049776320BR  00000        163058-61               000032
100000026100716158100220120071615810022012RQ049776333BR  00000        163058-63               000033
100000006400716159100220120071615910022012RQ049776347BR  00000        163058-65               000034
100000006500716160100220120071616010022012RQ049776355BR  00000        163058-67               000035
100000007600716161100220120071616110022012RQ049776364BR  00000        163058-69               000036
100000007700716162100220120071616210022012RQ049776378BR  00000        163058-71               000037
100000008400716163100220120071616310022012RQ049776381BR  00000        163058-73               000038
100000011800716164100220120071616410022012RQ049776395BR  00000        163058-75               000039
100000016600716165100220120071616510022012RQ049776404BR  00000        163058-77               000040
100000017500716166100220120071616610022012RQ049776418BR  00000        163058-79               000041
100000027600716167100220120071616710022012RQ049776421BR  00000        163058-81               000042
100000036700716168100220120071616810022012RQ049776435BR  00000        163058-83               000043
100000036900716169100220120071616910022012RQ049776449BR  00000        163058-85               000044
100000040900716170100220120071617010022012RQ049776452BR  00000        163058-87               000045
100000042300716171100220120071617110022012RQ049776466BR  00000        163058-89               000046
100000047500716172100220120071617210022012RQ049776470BR  00000        163058-91               000047
100000002000716173100220120071617310022012RQ049776483BR  00000        163058-93               000048
100000003500716174100220120071617410022012RQ049776497BR  00000        163058-95               000049
100000024900716175100220120071617510022012RQ049776506BR  00000        163058-97               000050
100000027300716176100220120071617610022012RQ049776510BR  00000        163058-99               000051
100000033600716177100220120071617710022012RQ049776523BR  00000        163058-101              000052
100000034400716178100220120071617810022012RQ049776537BR  00000        163058-103              000053
100000043100716179100220120071617910022012RQ049776545BR  00000        163058-105              000054
100000049800716180100220120071618010022012RQ049776554BR  00000        163058-107              000055
100000000900716181100220120071618110022012RQ049776568BR  00000        163058-109              000056
100000001000716182100220120071618210022012RQ049776571BR  00000        163058-111              000057
100000001100716183100220120071618310022012RQ049776585BR  00000        163058-113              000058
100000001200716184100220120071618410022012RQ049776599BR  00000        163058-115              000059
100000001300716185100220120071618510022012RQ049776608BR  00000        163058-117              000060
100000001400716186100220120071618610022012RQ049776611BR  00000        163058-119              000061
100000001500716187100220120071618710022012RQ049776625BR  00000        163058-121              000062
100000001600716188100220120071618810022012RQ049776639BR  00000        163058-123              000063
100000001900716189100220120071618910022012RQ049776642BR  00000        163058-125              000064
100000002000716190100220120071619010022012RQ049776656BR  00000        163058-127              000065
100000000100716191100220120071619110022012RQ049776660BR  00000        163058-129              000066
100000002200716192100220120071619210022012RQ049776673BR  00000        163058-131              000067
100000002600716193100220120071619310022012RQ049776687BR  00000        163058-133              000068
100000003200716194100220120071619410022012RQ049776695BR  00000        163058-135              000069
100000003300716195100220120071619510022012RQ049776700BR  00000        163058-137              000070
100000012400716196100220120071619610022012RQ049776713BR  00000        163058-139              000071
100000042100716197100220120071619710022012RQ049776727BR  00000        163058-141              000072
100000000200716198100220120071619810022012RQ049776735BR  00000        163058-143              000073
100000000400716199100220120071619910022012RQ049776744BR  00000        163058-145              000074
100000000600716200100220120071620010022012RQ049776758BR  00000        163058-147              000075
100000000700716201100220120071620110022012RQ049776761BR  00000        163058-149              000076
100000002200716202100220120071620210022012RQ049776775BR  00000        163058-151              000077
100000002300716203100220120071620310022012RQ049776789BR  00000        163058-153              000078
100000002400716204100220120071620410022012RQ049776792BR  00000        163058-155              000079
100000002500716205100220120071620510022012RQ049776801BR  00000        163058-157              000080
100000002600716206100220120071620610022012RQ049776815BR  00000        163058-159              000081
100000002700716207100220120071620710022012RQ049776829BR  00000        163058-161              000082
100000002400716208100220120071620810022012RQ049776832BR  00000        163058-163              000083
100000000900716209100220120071620910022012RQ049776846BR  00000        163058-165              000084
100000001400716210100220120071621010022012RQ049776850BR  00000        163058-167              000085
100000002600716211100220120071621110022012RQ049776863BR  00000        163058-169              000086
100000002900716212100220120071621210022012RQ049776877BR  00000        163058-171              000087
100000015200716213100220120071621310022012RQ049776885BR  00000        163058-173              000088
100000019800716214100220120071621410022012RQ049776894BR  00000        163058-175              000089
100000001500716215100220120071621510022012RQ049776903BR  00000        163059-1                000090
100000003700716216100220120071621610022012RQ049776917BR  00000        163059-3                000091
100000000600716217100220120071621710022012RQ049776925BR  00000        163059-6                000092
100000011200716218100220120071621810022012RQ049776934BR  00000        163059-10               000093
100000017400716219100220120071621910022012RQ049776948BR  00000        163059-12               000094
100000024200716220100220120071622010022012RQ049776951BR  00000        163059-14               000095
100000024900716221100220120071622110022012RQ049776965BR  00000        163059-16               000096
100000001300716222100220120071622210022012RQ049776979BR  00000        163059-18               000097
100000019400716223100220120071622310022012RQ049776982BR  00000        163059-20               000098
100000019900716224100220120071622410022012RQ049776996BR  00000        163059-23               000099
100000029100716225100220120071622510022012RQ049777002BR  00000        163059-25               000100
100000002700716226100220120071622610022012RQ049777016BR  00000        163059-29               000101
100000006900716227100220120071622710022012RQ049777020BR  00000        163059-31               000102
100000019100716228100220120071622810022012RQ049777033BR  00000        163059-33               000103
100000020400716229100220120071622910022012RQ049777047BR  00000        163059-35               000104
100000020800716230100220120071623010022012RQ049777055BR  00000        163059-38               000105
100000025400716231100220120071623110022012RQ049777064BR  00000        163059-40               000106
100000025500716232100220120071623210022012RQ049777078BR  00000        163059-43               000107
100000005600716233100220120071623310022012RQ049777081BR  00000        163059-46               000108
100000014000716234100220120071623410022012RQ049777095BR  00000        163059-51               000109
100000019000716235100220120071623510022012RQ049777104BR  00000        163059-53               000110
100000002400716236100220120071623610022012RQ049777118BR  00000        163059-57               000111
100000002500716237100220120071623710022012RQ049777121BR  00000        163059-59               000112
100000002900716238100220120071623810022012RQ049777135BR  00000        163059-61               000113
100000016200716239100220120071623910022012RQ049777149BR  00000        163059-63               000114
100000049200716240100220120071624010022012RQ049777152BR  00000        163060-1                000115
100000006300716241100220120071624110022012RQ049777166BR  00000        163061-1                000116
100000009800716242100220120071624210022012RQ049777170BR  00000        163064-1                000117
100000009900716243100220120071624310022012RQ049777183BR  00000        163064-3                000118
100000010000716244100220120071624410022012RQ049777197BR  00000        163064-5                000119
100000017100716245100220120071624510022012RQ049777206BR  00000        163064-7                000120
100000027200716246100220120071624610022012RQ049777210BR  00000        163064-9                000121
100000004200716247100220120071624710022012RQ049777223BR  00000        163064-11               000122
100000006100716248100220120071624810022012RQ049777237BR  00000        163064-13               000123
100000018000716249100220120071624910022012RQ049777245BR  00000        163064-15               000124
100000029800716250100220120071625010022012RQ049777254BR  00000        163064-17               000125
100000001900716251100220120071625110022012RQ049777268BR  00000        163064-19               000126
100000013200716252100220120071625210022012RQ049777271BR  00000        163064-21               000127
100000020200716253100220120071625310022012RQ049777285BR  00000        163064-23               000128
100000026000716254100220120071625410022012RQ049777299BR  00000        163064-25               000129
100000026800716255100220120071625510022012RQ049777308BR  00000        163064-27               000130
100000038700716256100220120071625610022012RQ049777311BR  00000        163064-30               000131
100000044600716257100220120071625710022012RQ049777325BR  00000        163064-31               000132
100000021800716258100220120071625810022012RQ049777339BR  00000        163064-33               000133
100000032500716259100220120071625910022012RQ049777342BR  00000        163064-36               000134
100000041400716260100220120071626010022012RQ049777356BR  00000        163064-38               000135
100000012100716261100220120071626110022012RQ049777360BR  00000        163064-40               000136
100000037200716262100220120071626210022012RQ049777373BR  00000        163064-42               000137
9000136                                                                                       000138
