0RETORNONOTIFICACAO ELETRONICA        06022013REGI                                            000001
100000014200901468060220130090146806022013FA063301404BR  00000        220461-1                000002
100000014600901469060220130090146906022013FA063301418BR  00000        220461-4                000003
100000010200901470060220130090147006022013FA063301421BR  00000        220586-1                000004
9000003                                                                                       000005
