0RETORNONOTIFICACAO ELETRONICA        29012013REGI                                            000001
100000006700895175290120130089517529012013FA063240943BR  00000        218406-1                000002
100000020300895176290120130089517629012013FA063240957BR  00000        218406-4                000003
100000000900895177290120130089517729012013FA063240965BR  00000        218406-7                000004
100000014100895178290120130089517829012013FA063240974BR  00000        218406-10               000005
100000010000895179290120130089517929012013FA063240988BR  00000        218406-13               000006
100000011200895180290120130089518029012013FA063240991BR  00000        218406-16               000007
100000004800895181290120130089518129012013FA063241008BR  00000        218406-19               000008
100000019300895182290120130089518229012013FA063241011BR  00000        218406-22               000009
100000022500895183290120130089518329012013FA063241025BR  00000        218406-25               000010
100000026200895184290120130089518429012013FA063241039BR  00000        218406-28               000011
100000034900895185290120130089518529012013FA063241042BR  00000        218406-31               000012
100000040900895186290120130089518629012013FA063241056BR  00000        218406-34               000013
100000046900895187290120130089518729012013FA063241060BR  00000        218406-37               000014
100000036800895188290120130089518829012013FA063241073BR  00000        218406-40               000015
100000041200895189290120130089518929012013FA063241087BR  00000        218406-43               000016
100000048900895190290120130089519029012013FA063241095BR  00000        218406-46               000017
100000030900895191290120130089519129012013FA063241100BR  00000        218406-49               000018
100000038100895192290120130089519229012013FA063241113BR  00000        218406-52               000019
100000002300895193290120130089519329012013FA063241127BR  00000        218406-55               000020
100000003700895194290120130089519429012013FA063241135BR  00000        218406-58               000021
100000002200895195290120130089519529012013FA063241144BR  00000        218406-61               000022
100000015200895196290120130089519629012013FA063241158BR  00000        218406-64               000023
100000021600895197290120130089519729012013FA063241161BR  00000        218406-67               000024
100000005300895198290120130089519829012013FA063241175BR  00000        218406-70               000025
100000002600895199290120130089519929012013FA063241189BR  00000        218406-73               000026
100000002700895200290120130089520029012013FA063241192BR  00000        218406-76               000027
100000011100895201290120130089520129012013FA063241201BR  00000        218406-79               000028
100000011200895202290120130089520229012013FA063241215BR  00000        218406-82               000029
100000040400895203290120130089520329012013FA063241229BR  00000        218406-85               000030
100000002100895204290120130089520429012013FA063241232BR  00000        218406-88               000031
100000023300895205290120130089520529012013FA063241246BR  00000        218406-91               000032
100000013300895206290120130089520629012013FA063241250BR  00000        218406-94               000033
100000003600895207290120130089520729012013FA063241263BR  00000        218406-97               000034
100000026300895208290120130089520829012013FA063241277BR  00000        218406-100              000035
100000020300895209290120130089520929012013FA063241285BR  00000        218833-1                000036
9000035                                                                                       000037
