0RETORNONOTIFICACAO ELETRONICA        05022014REGI                                            000001
100000020401136236050220140113623605022014FA245832429BR  00000        283189-1                000002
100000025401136237050220140113623705022014FA245832432BR  00000        283189-5                000003
100000025501136238050220140113623805022014FA245832446BR  00000        283189-8                000004
9000003                                                                                       000005
