0RETORNONOTIFICACAO ELETRONICA        06082013REGI                                            000001
100000001301012075060820130101207506082013FA136465088BR  00000        250167-1                000002
100000004301012076060820130101207606082013FA136465091BR  00000        250167-4                000003
100000012501012077060820130101207706082013FA136465105BR  00000        250167-7                000004
100000015001012078060820130101207806082013FA136465114BR  00000        250167-10               000005
100000006401012079060820130101207906082013FA136465128BR  00000        250167-13               000006
100000019901012080060820130101208006082013FA136465131BR  00000        250167-16               000007
100000017701012081060820130101208106082013FA136465145BR  00000        250167-19               000008
100000025701012082060820130101208206082013FA136465159BR  00000        250167-22               000009
100000012001012083060820130101208306082013FA136465162BR  00000        250167-25               000010
100000021901012084060820130101208406082013FA136465176BR  00000        250167-28               000011
100000009501012085060820130101208506082013FA136465180BR  00000        250167-31               000012
100000033001012086060820130101208606082013FA136465193BR  00000        250167-34               000013
100000043601012087060820130101208706082013FA136465202BR  00000        250167-37               000014
100000016001012088060820130101208806082013FA136465216BR  00000        250167-40               000015
100000007601012089060820130101208906082013FA136465220BR  00000        250167-43               000016
100000011801012090060820130101209006082013FA136465233BR  00000        250167-46               000017
100000017501012091060820130101209106082013FA136465247BR  00000        250167-49               000018
100000036701012092060820130101209206082013FA136465255BR  00000        250167-52               000019
100000041201012093060820130101209306082013FA136465264BR  00000        250167-55               000020
100000047301012094060820130101209406082013FA136465278BR  00000        250167-58               000021
100000012201012095060820130101209506082013FA136465281BR  00000        250167-61               000022
100000038201012096060820130101209606082013FA136465295BR  00000        250167-64               000023
100000000701012097060820130101209706082013FA136465304BR  00000        250167-67               000024
100000001301012098060820130101209806082013FA136465318BR  00000        250167-70               000025
100000002201012099060820130101209906082013FA136465321BR  00000        250167-73               000026
100000002701012100060820130101210006082013FA136465335BR  00000        250167-76               000027
100000016601012101060820130101210106082013FA136465349BR  00000        250167-79               000028
100000000801012102060820130101210206082013FA136465352BR  00000        250167-82               000029
100000010401012103060820130101210306082013FA136465366BR  00000        250167-85               000030
100000026301012104060820130101210406082013FA136465370BR  00000        250167-88               000031
100000010401012105060820130101210506082013FA136465383BR  00000        250167-91               000032
100000016101012106060820130101210606082013FA136465397BR  00000        250167-94               000033
100000030901012107060820130101210706082013FA136465406BR  00000        250167-97               000034
100000016101012108060820130101210806082013FA136465410BR  00000        250167-100              000035
100000020601012109060820130101210906082013FA136465423BR  00000        250167-103              000036
100000013201012110060820130101211006082013FA136465437BR  00000        250167-106              000037
100000004601012111060820130101211106082013FA136465445BR  00000        250167-109              000038
100000016301012112060820130101211206082013FA136465454BR  00000        250167-112              000039
100000024101012113060820130101211306082013FA136465468BR  00000        250167-115              000040
100000039401012114060820130101211406082013FA136465471BR  00000        250167-118              000041
100000014501012115060820130101211506082013FA136465485BR  00000        250167-121              000042
100000040401012116060820130101211606082013FA136465499BR  00000        250167-124              000043
100000013201012117060820130101211706082013FA136465508BR  00000        250167-127              000044
100000035801012118060820130101211806082013FA136465511BR  00000        250167-130              000045
100000000501012119060820130101211906082013FA136465525BR  00000        250167-133              000046
100000001901012164060820130101216406082013FA136465975BR  00000        250190-1                000047
100000003101012165060820130101216506082013FA136465984BR  00000        250190-3                000048
100000010501012166060820130101216606082013FA136465998BR  00000        250190-5                000049
100000022901012167060820130101216706082013FA136466004BR  00000        250190-7                000050
100000025501012168060820130101216806082013FA136466018BR  00000        250190-9                000051
100000007201012169060820130101216906082013FA136466021BR  00000        250190-11               000052
100000015401012170060820130101217006082013FA136466035BR  00000        250190-13               000053
100000020301012171060820130101217106082013FA136466049BR  00000        250190-15               000054
100000001301012172060820130101217206082013FA136466052BR  00000        250190-17               000055
100000002701012173060820130101217306082013FA136466066BR  00000        250190-19               000056
100000006901012174060820130101217406082013FA136466070BR  00000        250190-21               000057
100000019501012175060820130101217506082013FA136466083BR  00000        250190-23               000058
100000021601012176060820130101217606082013FA136466097BR  00000        250190-25               000059
100000027601012177060820130101217706082013FA136466106BR  00000        250190-27               000060
100000000801012178060820130101217806082013FA136466110BR  00000        250190-29               000061
100000007101012179060820130101217906082013FA136466123BR  00000        250190-31               000062
100000000701012180060820130101218006082013FA136466137BR  00000        250190-33               000063
100000008601012181060820130101218106082013FA136466145BR  00000        250190-35               000064
100000013901012182060820130101218206082013FA136466154BR  00000        250190-37               000065
100000017801012183060820130101218306082013FA136466168BR  00000        250190-39               000066
100000019501012184060820130101218406082013FA136466171BR  00000        250190-41               000067
100000023901012185060820130101218506082013FA136466185BR  00000        250190-43               000068
100000011701012186060820130101218606082013FA136466199BR  00000        250190-45               000069
100000013201012187060820130101218706082013FA136466208BR  00000        250190-47               000070
9000069                                                                                       000071
