0RETORNONOTIFICACAO ELETRONICA        19092011REGI                                            000001
100000047100626166190920110062616619092011RM948817067BR  00000        145051-1                000002
100000022200626167190920110062616719092011RM948817075BR  00000        145051-24               000003
100000000800626168190920110062616819092011RM948817084BR  00000        145051-43               000004
100000037400626169190920110062616919092011RM948817098BR  00000        145051-47               000005
100000003000626170190920110062617019092011RM948817107BR  00000        145051-57               000006
100000007100626171190920110062617119092011RM948817115BR  00000        145051-65               000007
100000007000626172190920110062617219092011RM948817124BR  00000        145051-75               000008
100000026100626173190920110062617319092011RM948817138BR  00000        145051-79               000009
100000017100626174190920110062617419092011RM948817141BR  00000        145051-85               000010
100000006100626175190920110062617519092011JL014578244BR  00000        145051-97               000011
100000025100626176190920110062617619092011RM948817155BR  00000        145051-114              000012
9000011                                                                                       000013
