0RETORNONOTIFICACAO ELETRONICA        12112013REGI                                            000001
100000028901075755121120130107575512112013FA188076137BR  00000        268247-1                000002
100000001301075756121120130107575612112013FA188076145BR  00000        268247-3                000003
100000003201075757121120130107575712112013FA188076154BR  00000        268247-9                000004
100000003401075758121120130107575812112013FA188076168BR  00000        268247-12               000005
100000007101075759121120130107575912112013FA188076171BR  00000        268247-14               000006
100000013501075760121120130107576012112013FA188076185BR  00000        268247-16               000007
100000016201075761121120130107576112112013FA188076199BR  00000        268247-18               000008
100000017501075762121120130107576212112013FA188076208BR  00000        268247-20               000009
100000008601075763121120130107576312112013FA188076211BR  00000        268247-22               000010
100000028801075764121120130107576412112013FA188076225BR  00000        268247-24               000011
100000004701075765121120130107576512112013FA188076239BR  00000        268247-26               000012
100000012801075766121120130107576612112013FA188076242BR  00000        268247-28               000013
100000037801075767121120130107576712112013FA188076256BR  00000        268247-30               000014
100000022701075768121120130107576812112013FA188076260BR  00000        268247-32               000015
100000034201075769121120130107576912112013FA188076273BR  00000        268247-34               000016
100000041501075770121120130107577012112013FA188076287BR  00000        268247-36               000017
100000012701075771121120130107577112112013FA188076295BR  00000        268247-38               000018
100000022401075772121120130107577212112013FA188076300BR  00000        268247-40               000019
100000025901075773121120130107577312112013FA188076313BR  00000        268247-42               000020
100000028101075774121120130107577412112013FA188076327BR  00000        268247-44               000021
100000006301075775121120130107577512112013FA188076335BR  00000        268247-46               000022
100000027701075776121120130107577612112013FA188076344BR  00000        268247-48               000023
100000046001075777121120130107577712112013FA188076358BR  00000        268247-50               000024
100000012901075778121120130107577812112013FA188076361BR  00000        268247-54               000025
100000019501075779121120130107577912112013FA188076375BR  00000        268247-56               000026
100000024301075780121120130107578012112013FA188076389BR  00000        268247-58               000027
100000025101075781121120130107578112112013FA188076392BR  00000        268247-60               000028
100000036801075782121120130107578212112013FA188076401BR  00000        268247-64               000029
100000041201075783121120130107578312112013FA188076415BR  00000        268247-66               000030
100000041701075784121120130107578412112013FA188076429BR  00000        268247-68               000031
100000014601075785121120130107578512112013FA188076432BR  00000        268247-70               000032
100000015201075786121120130107578612112013FA188076446BR  00000        268247-72               000033
100000017301075787121120130107578712112013FA188076450BR  00000        268247-74               000034
100000018901075788121120130107578812112013FA188076463BR  00000        268247-76               000035
100000047401075789121120130107578912112013FA188076477BR  00000        268247-80               000036
100000004301075790121120130107579012112013FA188076485BR  00000        268247-82               000037
100000001601075791121120130107579112112013FA188076494BR  00000        268247-84               000038
100000001701075792121120130107579212112013FA188076503BR  00000        268247-86               000039
100000002201075793121120130107579312112013FA188076517BR  00000        268247-88               000040
100000003701075794121120130107579412112013FA188076525BR  00000        268247-90               000041
100000003801075795121120130107579512112013FA188076534BR  00000        268247-92               000042
100000008301075796121120130107579612112013FA188076548BR  00000        268247-94               000043
100000010001075797121120130107579712112013FA188076551BR  00000        268247-96               000044
100000010601075798121120130107579812112013FA188076565BR  00000        268247-98               000045
100000010701075799121120130107579912112013FA188076579BR  00000        268247-100              000046
100000001001075800121120130107580012112013FA188076582BR  00000        268247-102              000047
100000011701075801121120130107580112112013FA188076596BR  00000        268247-104              000048
100000015001075802121120130107580212112013FA188076605BR  00000        268247-106              000049
100000000801075803121120130107580312112013FA188076619BR  00000        268247-108              000050
100000001401075804121120130107580412112013FA188076622BR  00000        268247-110              000051
100000006501075805121120130107580512112013FA188076636BR  00000        268247-112              000052
100000010401075806121120130107580612112013FA188076640BR  00000        268247-114              000053
100000012501075807121120130107580712112013FA188076653BR  00000        268247-116              000054
100000012601075808121120130107580812112013FA188076667BR  00000        268247-118              000055
100000015201075809121120130107580912112013FA188076675BR  00000        268247-120              000056
100000020901075810121120130107581012112013FA188076684BR  00000        268247-122              000057
100000034201075811121120130107581112112013FA188076698BR  00000        268247-124              000058
100000037201075812121120130107581212112013FA188076707BR  00000        268247-126              000059
100000048601075813121120130107581312112013FA188076715BR  00000        268247-128              000060
100000001701075814121120130107581412112013FA188076724BR  00000        268247-130              000061
100000001801075815121120130107581512112013FA188076738BR  00000        268247-132              000062
100000008401075816121120130107581612112013FA188076741BR  00000        268247-134              000063
100000011101075817121120130107581712112013FA188076755BR  00000        268247-136              000064
100000011201075818121120130107581812112013FA188076769BR  00000        268247-138              000065
100000034401075819121120130107581912112013FA188076772BR  00000        268247-140              000066
100000016101075820121120130107582012112013FA188076786BR  00000        268247-142              000067
100000028601075821121120130107582112112013FA188076790BR  00000        268247-144              000068
100000001901075822121120130107582212112013FA188076809BR  00000        268247-146              000069
100000002301075823121120130107582312112013FA188076812BR  00000        268247-148              000070
100000003601075824121120130107582412112013FA188076826BR  00000        268247-150              000071
100000000301075825121120130107582512112013FA188076830BR  00000        268247-152              000072
100000023001075826121120130107582612112013FA188076843BR  00000        268247-154              000073
100000006401075827121120130107582712112013FA188076857BR  00000        268247-158              000074
100000007801075828121120130107582812112013FA188076865BR  00000        268247-160              000075
100000010901075829121120130107582912112013FA188076874BR  00000        268247-162              000076
100000021101075830121120130107583012112013FA188076888BR  00000        268247-164              000077
100000027001075831121120130107583112112013FA188076891BR  00000        268247-166              000078
100000046201075832121120130107583212112013FA188076905BR  00000        268247-168              000079
100000046301075833121120130107583312112013FA188076914BR  00000        268247-170              000080
100000027801075834121120130107583412112013FA188076928BR  00000        268247-172              000081
100000009201075835121120130107583512112013FA188076931BR  00000        268247-174              000082
100000015201075836121120130107583612112013FA188076945BR  00000        268247-176              000083
100000015301075837121120130107583712112013FA188076959BR  00000        268247-178              000084
100000005001075838121120130107583812112013FA188076962BR  00000        268247-180              000085
100000021801075839121120130107583912112013FA188076976BR  00000        268247-182              000086
100000017901075840121120130107584012112013FA188076980BR  00000        268247-184              000087
100000045701075841121120130107584112112013FA188076993BR  00000        268247-186              000088
100000001401075842121120130107584212112013FA188077000BR  00000        268247-188              000089
100000037101075843121120130107584312112013FA188077013BR  00000        268247-191              000090
100000047701075844121120130107584412112013FA188077027BR  00000        268247-193              000091
100000000101075845121120130107584512112013FA188077035BR  00000        268247-195              000092
100000004801075846121120130107584612112013FA188077044BR  00000        268247-197              000093
9000092                                                                                       000094
