0RETORNONOTIFICACAO ELETRONICA        15122011REGI                                            000001
100000039000689737151220110068973715122011RQ046319453BR  00000        155181-9                000002
100000003700689738151220110068973815122011RQ046319467BR  00000        155181-69               000003
100000000900689739151220110068973915122011RQ046319475BR  00000        155181-194              000004
100000020800689740151220110068974015122011JL014612665BR  00000        155186-54               000005
100000038900689741151220110068974115122011RQ046319484BR  00000        155648-1                000006
100000017700689742151220110068974215122011RQ046319498BR  00000        155648-4                000007
100000016400689743151220110068974315122011RQ046319507BR  00000        155648-19               000008
100000021400689744151220110068974415122011RQ046319515BR  00000        155648-34               000009
9000008                                                                                       000010
