0RETORNONOTIFICACAO ELETRONICA        21052013REGI                                            000001
100000002900959792210520130095979221052013FA105191242BR  00000        237275-1                000002
100000003700959793210520130095979321052013FA105191256BR  00000        237275-7                000003
100000019000959794210520130095979421052013FA105191260BR  00000        237275-9                000004
9000003                                                                                       000005
