0RETORNONOTIFICACAO ELETRONICA        19112012REGI                                            000001
100000003100859695191120120085969519112012FA062905593BR  00000        205372-1                000002
100000010500859696191120120085969619112012FA062905602BR  00000        205372-3                000003
100000007100859697191120120085969719112012FA062905616BR  00000        205372-5                000004
100000018300859698191120120085969819112012FA062905620BR  00000        205372-7                000005
100000026200859699191120120085969919112012FA062905633BR  00000        205372-9                000006
100000028900859700191120120085970019112012FA062905647BR  00000        205372-11               000007
100000001300859701191120120085970119112012FA062905655BR  00000        205372-13               000008
100000002700859702191120120085970219112012FA062905664BR  00000        205372-15               000009
100000021600859703191120120085970319112012FA062905678BR  00000        205372-17               000010
100000000500859704191120120085970419112012FA062905681BR  00000        205372-19               000011
100000004200859705191120120085970519112012FA062905695BR  00000        205372-21               000012
100000001600859706191120120085970619112012FA062905704BR  00000        205372-23               000013
100000014000859707191120120085970719112012FA062905718BR  00000        205372-25               000014
100000004000859708191120120085970819112012FA062905721BR  00000        205372-27               000015
100000000100859709191120120085970919112012FA062905735BR  00000        205372-29               000016
100000007300859710191120120085971019112012FA062905749BR  00000        205372-31               000017
100000011500859711191120120085971119112012FA062905752BR  00000        205372-33               000018
100000019800859712191120120085971219112012FA062905766BR  00000        205372-36               000019
100000021400859713191120120085971319112012FA062905770BR  00000        205372-38               000020
100000012000859714191120120085971419112012FA062905783BR  00000        205372-40               000021
100000013400859715191120120085971519112012FA062905797BR  00000        205372-42               000022
100000024700859716191120120085971619112012FA062905806BR  00000        205372-44               000023
100000000900859717191120120085971719112012FA062905810BR  00000        205372-46               000024
100000010700859718191120120085971819112012FA062905823BR  00000        205372-48               000025
100000028100859719191120120085971919112012FA062905837BR  00000        205372-50               000026
100000032200859720191120120085972019112012FA062905845BR  00000        205372-52               000027
100000043600859721191120120085972119112012FA062905854BR  00000        205372-54               000028
100000044400859722191120120085972219112012FA062905868BR  00000        205372-56               000029
100000047400859723191120120085972319112012FA062905871BR  00000        205372-58               000030
100000000800859724191120120085972419112012FA062905885BR  00000        205372-60               000031
100000021500859725191120120085972519112012FA062905899BR  00000        205372-62               000032
100000026200859726191120120085972619112012FA062905908BR  00000        205372-64               000033
100000026200859727191120120085972719112012FA062905911BR  00000        205372-65               000034
100000026700859728191120120085972819112012FA062905925BR  00000        205372-66               000035
100000028500859729191120120085972919112012FA062905939BR  00000        205372-68               000036
100000033100859730191120120085973019112012FA062905942BR  00000        205372-70               000037
100000040900859731191120120085973119112012FA062905956BR  00000        205372-72               000038
100000047800859732191120120085973219112012FA062905960BR  00000        205372-74               000039
100000005400859733191120120085973319112012FA062905973BR  00000        205372-76               000040
100000015800859734191120120085973419112012FA062905987BR  00000        205372-78               000041
100000021000859735191120120085973519112012FA062905995BR  00000        205372-80               000042
100000024300859736191120120085973619112012FA062906007BR  00000        205372-82               000043
100000029400859737191120120085973719112012FA062906015BR  00000        205372-84               000044
100000029500859738191120120085973819112012FA062906024BR  00000        205372-86               000045
100000030000859739191120120085973919112012FA062906038BR  00000        205372-88               000046
100000035900859740191120120085974019112012FA062906041BR  00000        205372-90               000047
100000036800859741191120120085974119112012FA062906055BR  00000        205372-92               000048
100000004900859742191120120085974219112012FA062906069BR  00000        205372-94               000049
100000003100859743191120120085974319112012FA062906072BR  00000        205372-96               000050
100000001900859744191120120085974419112012FA062906086BR  00000        205372-98               000051
100000001800859745191120120085974519112012FA062906090BR  00000        205372-100              000052
100000001700859746191120120085974619112012FA062906109BR  00000        205372-102              000053
100000001900859747191120120085974719112012FA062906112BR  00000        205372-104              000054
100000000200859748191120120085974819112012FA062906126BR  00000        205372-106              000055
100000002200859749191120120085974919112012FA062906130BR  00000        205372-109              000056
100000016600859750191120120085975019112012FA062906143BR  00000        205372-111              000057
100000003800859751191120120085975119112012FA062906157BR  00000        205372-113              000058
100000006500859752191120120085975219112012FA062906165BR  00000        205372-115              000059
100000030300859753191120120085975319112012FA062906174BR  00000        205372-117              000060
100000007100859754191120120085975419112012FA062906188BR  00000        205372-119              000061
100000009500859755191120120085975519112012FA062906191BR  00000        205372-121              000062
100000010600859756191120120085975619112012FA062906205BR  00000        205372-123              000063
100000000500859757191120120085975719112012FA062906214BR  00000        205372-125              000064
100000000400859758191120120085975819112012FA062906228BR  00000        205372-127              000065
100000009900859759191120120085975919112012FA062906231BR  00000        205372-129              000066
100000005500859760191120120085976019112012FA062906245BR  00000        205372-131              000067
100000006100859761191120120085976119112012FA062906259BR  00000        205372-133              000068
100000020100859762191120120085976219112012FA062906262BR  00000        205372-135              000069
100000044600859763191120120085976319112012FA062906276BR  00000        205372-137              000070
100000012300859764191120120085976419112012FA062906280BR  00000        205372-139              000071
100000037200859765191120120085976519112012FA062906293BR  00000        205372-141              000072
100000046300859766191120120085976619112012FA062906302BR  00000        205372-143              000073
100000013500859767191120120085976719112012FA062906316BR  00000        205372-145              000074
100000032900859768191120120085976819112012FA062906320BR  00000        205372-147              000075
100000033100859769191120120085976919112012FA062906333BR  00000        205372-149              000076
100000047300859770191120120085977019112012FA062906347BR  00000        205372-151              000077
100000005000859771191120120085977119112012FA062906355BR  00000        205372-153              000078
100000007800859772191120120085977219112012FA062906364BR  00000        205372-155              000079
100000025300859773191120120085977319112012FA062906378BR  00000        205372-157              000080
100000015700859774191120120085977419112012FA062906381BR  00000        205372-159              000081
100000045700859775191120120085977519112012FA062906395BR  00000        205372-161              000082
100000015400859776191120120085977619112012FA062906404BR  00000        205372-163              000083
100000018200859777191120120085977719112012FA062906418BR  00000        205372-165              000084
100000019000859778191120120085977819112012FA062906421BR  00000        205372-167              000085
100000008300859779191120120085977919112012FA062906435BR  00000        205372-169              000086
9000085                                                                                       000087
