0RETORNONOTIFICACAO ELETRONICA        13022014REGI                                            000001
100000001101140346130220140114034613022014FA245869675BR  00000        284884-1                000002
100000039401140347130220140114034713022014FA245869684BR  00000        284885-1                000003
100000024101140348130220140114034813022014FA245869698BR  00000        284885-8                000004
9000003                                                                                       000005
