0RETORNONOTIFICACAO ELETRONICA        18102012REGI                                            000001
100000015700842806181020120084280618102012FA012539849BR  00000        199730-1                000002
100000000100842807181020120084280718102012FA012539852BR  00000        199737-1                000003
100000016700842808181020120084280818102012FA012539866BR  00000        199737-3                000004
100000006700842809181020120084280918102012FA012539870BR  00000        199737-7                000005
100000025300842810181020120084281018102012FA012539883BR  00000        199737-9                000006
100000025900842811181020120084281118102012FA012539897BR  00000        199737-11               000007
100000000900842812181020120084281218102012FA012539906BR  00000        199737-13               000008
100000023100842813181020120084281318102012FA012539910BR  00000        199737-15               000009
100000030000842814181020120084281418102012FA012539923BR  00000        199737-17               000010
100000010600842815181020120084281518102012FA012539937BR  00000        199737-19               000011
100000016200842816181020120084281618102012FA012539945BR  00000        199737-21               000012
100000022100842817181020120084281718102012FA012539954BR  00000        199737-23               000013
100000017800842818181020120084281818102012FA012539968BR  00000        199737-25               000014
100000020900842819181020120084281918102012FA012539971BR  00000        199737-27               000015
100000023800842820181020120084282018102012FA012539985BR  00000        199737-29               000016
100000004700842821181020120084282118102012FA012539999BR  00000        199737-31               000017
100000011200842822181020120084282218102012FA012540008BR  00000        199737-33               000018
100000027900842823181020120084282318102012FA012540011BR  00000        199737-35               000019
100000029800842824181020120084282418102012FA012540025BR  00000        199737-37               000020
100000041500842825181020120084282518102012FA012540039BR  00000        199737-39               000021
100000012000842826181020120084282618102012FA012540042BR  00000        199737-41               000022
100000003000842827181020120084282718102012FA012540056BR  00000        199737-43               000023
100000003800842828181020120084282818102012FA012540060BR  00000        199737-45               000024
100000005900842829181020120084282918102012FA012540073BR  00000        199737-47               000025
100000007600842830181020120084283018102012FA012540087BR  00000        199737-49               000026
100000011800842831181020120084283118102012FA012540095BR  00000        199737-51               000027
100000016600842832181020120084283218102012FA012540100BR  00000        199737-53               000028
100000017500842833181020120084283318102012FA012540113BR  00000        199737-55               000029
100000018100842834181020120084283418102012FA012540127BR  00000        199737-57               000030
100000020800842835181020120084283518102012FA012540135BR  00000        199737-59               000031
100000026100842836181020120084283618102012FA012540144BR  00000        199737-61               000032
100000036700842837181020120084283718102012FA012540158BR  00000        199737-63               000033
100000041100842838181020120084283818102012FA012540161BR  00000        199737-65               000034
100000046900842839181020120084283918102012FA012540175BR  00000        199737-67               000035
100000047500842840181020120084284018102012FA012540189BR  00000        199737-69               000036
100000016200842841181020120084284118102012FA012540192BR  00000        199737-71               000037
100000018600842842181020120084284218102012FA012540201BR  00000        199737-73               000038
100000001900842843181020120084284318102012FA012540215BR  00000        199737-75               000039
100000006900842844181020120084284418102012FA012540229BR  00000        199737-77               000040
100000034600842845181020120084284518102012FA012540232BR  00000        199737-79               000041
100000002200842846181020120084284618102012FA012540246BR  00000        199737-81               000042
100000002300842847181020120084284718102012FA012540250BR  00000        199737-83               000043
100000002400842848181020120084284818102012FA012540263BR  00000        199737-85               000044
100000002500842849181020120084284918102012FA012540277BR  00000        199737-87               000045
100000002600842850181020120084285018102012FA012540285BR  00000        199737-89               000046
100000002700842851181020120084285118102012FA012540294BR  00000        199737-91               000047
100000002600842852181020120084285218102012FA012540303BR  00000        199737-93               000048
100000009300842853181020120084285318102012FA012540317BR  00000        199737-95               000049
100000002000842854181020120084285418102012FA012540325BR  00000        199737-97               000050
100000014600842855181020120084285518102012FA012540334BR  00000        199737-99               000051
100000000900842856181020120084285618102012FA012540348BR  00000        199737-101              000052
100000000200842857181020120084285718102012FA012540351BR  00000        199737-103              000053
100000000500842858181020120084285818102012FA012540365BR  00000        199737-105              000054
100000021300842859181020120084285918102012FA012540379BR  00000        199737-107              000055
100000023000842860181020120084286018102012FA012540382BR  00000        199737-109              000056
100000018700842861181020120084286118102012FA012540396BR  00000        199737-111              000057
100000001900842862181020120084286218102012FA012540405BR  00000        199737-113              000058
100000033100842863181020120084286318102012FA012540419BR  00000        199737-115              000059
100000046400842864181020120084286418102012FA012540422BR  00000        199737-117              000060
100000047500842865181020120084286518102012FA012540436BR  00000        199737-119              000061
100000008200842866181020120084286618102012FA012540440BR  00000        199737-121              000062
100000026300842867181020120084286718102012FA012540453BR  00000        199737-123              000063
100000045100842868181020120084286818102012FA012540467BR  00000        199737-125              000064
100000014200842869181020120084286918102012FA012540475BR  00000        199737-127              000065
100000040700842870181020120084287018102012FA012540484BR  00000        199737-129              000066
100000040800842871181020120084287118102012FA012540498BR  00000        199737-131              000067
100000049400842872181020120084287218102012FA012540507BR  00000        199737-133              000068
100000009400842873181020120084287318102012FA012540515BR  00000        199737-135              000069
100000012800842874181020120084287418102012FA012540524BR  00000        199737-137              000070
100000002000842875181020120084287518102012FA012540538BR  00000        199737-139              000071
9000070                                                                                       000072
