0RETORNONOTIFICACAO ELETRONICA        13122012REGI                                            000001
100000010700872497131220120087249713122012FA063024555BR  00000        210547-1                000002
100000025500872498131220120087249813122012FA063024564BR  00000        210547-3                000003
100000015400872499131220120087249913122012FA063024578BR  00000        210547-5                000004
100000004300872500131220120087250013122012FA063024581BR  00000        210547-7                000005
100000006900872501131220120087250113122012FA063024595BR  00000        210547-9                000006
100000018900872502131220120087250213122012FA063024604BR  00000        210547-11               000007
100000016200872503131220120087250313122012FA063024618BR  00000        210547-13               000008
100000017800872504131220120087250413122012FA063024621BR  00000        210547-15               000009
100000008000872505131220120087250513122012FA063024635BR  00000        210547-17               000010
100000018700872506131220120087250613122012FA063024649BR  00000        210547-19               000011
100000007000872507131220120087250713122012FA063024652BR  00000        210547-21               000012
100000022400872508131220120087250813122012FA063024666BR  00000        210547-23               000013
100000008000872509131220120087250913122012FA063024670BR  00000        210547-25               000014
100000011200872510131220120087251013122012FA063024683BR  00000        210547-27               000015
100000035300872511131220120087251113122012FA063024697BR  00000        210547-29               000016
100000001400872512131220120087251213122012FA063024706BR  00000        210547-31               000017
100000007000872513131220120087251313122012FA063024710BR  00000        210547-33               000018
100000009200872514131220120087251413122012FA063024723BR  00000        210547-35               000019
100000016000872515131220120087251513122012FA063024737BR  00000        210547-37               000020
100000006500872516131220120087251613122012FA063024745BR  00000        210547-39               000021
100000007600872517131220120087251713122012FA063024754BR  00000        210547-41               000022
100000011800872518131220120087251813122012FA063024768BR  00000        210547-43               000023
100000016600872519131220120087251913122012FA063024771BR  00000        210547-45               000024
100000017500872520131220120087252013122012FA063024785BR  00000        210547-47               000025
100000018100872521131220120087252113122012FA063024799BR  00000        210547-49               000026
100000036700872522131220120087252213122012FA063024808BR  00000        210547-51               000027
100000037600872523131220120087252313122012FA063024811BR  00000        210547-53               000028
100000044400872524131220120087252413122012FA063024825BR  00000        210547-55               000029
100000044600872525131220120087252513122012FA063024839BR  00000        210547-57               000030
100000001200872526131220120087252613122012FA063024842BR  00000        210547-59               000031
100000008800872527131220120087252713122012FA063024856BR  00000        210547-61               000032
100000041600872528131220120087252813122012FA063024860BR  00000        210547-63               000033
100000046500872529131220120087252913122012FA063024873BR  00000        210547-65               000034
100000049800872530131220120087253013122012FA063024887BR  00000        210547-67               000035
100000000100872531131220120087253113122012FA063024895BR  00000        210547-69               000036
100000001100872532131220120087253213122012FA063024900BR  00000        210547-71               000037
100000003200872533131220120087253313122012FA063024913BR  00000        210547-73               000038
100000003300872534131220120087253413122012FA063024927BR  00000        210547-75               000039
100000002700872535131220120087253513122012FA063024935BR  00000        210547-77               000040
100000000100872536131220120087253613122012FA063024944BR  00000        210547-79               000041
100000000200872537131220120087253713122012FA063024958BR  00000        210547-81               000042
100000036700872538131220120087253813122012FA063024961BR  00000        210547-83               000043
100000002200872539131220120087253913122012FA063024975BR  00000        210547-85               000044
100000002300872540131220120087254013122012FA063024989BR  00000        210547-87               000045
100000002400872541131220120087254113122012FA063024992BR  00000        210547-89               000046
100000002500872542131220120087254213122012FA063025009BR  00000        210547-91               000047
100000002600872543131220120087254313122012FA063025012BR  00000        210547-93               000048
100000002700872544131220120087254413122012FA063025026BR  00000        210547-95               000049
100000001300872545131220120087254513122012FA063025030BR  00000        210547-97               000050
100000000900872546131220120087254613122012FA063025043BR  00000        210547-99               000051
100000003200872547131220120087254713122012FA063025057BR  00000        210547-101              000052
100000003300872548131220120087254813122012FA063025065BR  00000        210547-103              000053
100000003700872549131220120087254913122012FA063025074BR  00000        210547-105              000054
100000003800872550131220120087255013122012FA063025088BR  00000        210547-107              000055
100000008300872551131220120087255113122012FA063025091BR  00000        210547-109              000056
100000010000872552131220120087255213122012FA063025105BR  00000        210547-111              000057
100000011300872553131220120087255313122012FA063025114BR  00000        210547-113              000058
100000010400872554131220120087255413122012FA063025128BR  00000        210547-115              000059
100000019700872555131220120087255513122012FA063025131BR  00000        210547-117              000060
100000025300872556131220120087255613122012FA063025145BR  00000        210547-119              000061
100000002000872557131220120087255713122012FA063025159BR  00000        210547-121              000062
100000004600872558131220120087255813122012FA063025162BR  00000        210547-123              000063
100000008700872559131220120087255913122012FA063025176BR  00000        210547-125              000064
100000000700872560131220120087256013122012FA063025180BR  00000        210547-127              000065
100000001400872561131220120087256113122012FA063025193BR  00000        210547-129              000066
100000012500872562131220120087256213122012FA063025202BR  00000        210547-131              000067
100000021300872563131220120087256313122012FA063025216BR  00000        210547-133              000068
100000002600872564131220120087256413122012FA063025220BR  00000        210547-135              000069
100000009200872565131220120087256513122012FA063025233BR  00000        210547-137              000070
100000017100872566131220120087256613122012FA063025247BR  00000        210547-139              000071
100000001900872567131220120087256713122012FA063025255BR  00000        210547-141              000072
100000009400872568131220120087256813122012FA063025264BR  00000        210547-143              000073
100000013200872569131220120087256913122012FA063025278BR  00000        210547-145              000074
100000033100872570131220120087257013122012FA063025281BR  00000        210547-147              000075
100000033800872571131220120087257113122012FA063025295BR  00000        210547-149              000076
100000009600872572131220120087257213122012FA063025304BR  00000        210547-151              000077
100000010900872573131220120087257313122012FA063025318BR  00000        210547-153              000078
100000015100872574131220120087257413122012FA063025321BR  00000        210547-155              000079
100000021000872575131220120087257513122012FA063025335BR  00000        210547-157              000080
100000025400872576131220120087257613122012FA063025349BR  00000        210547-159              000081
100000043500872577131220120087257713122012FA063025352BR  00000        210547-161              000082
100000046500872578131220120087257813122012FA063025366BR  00000        210547-163              000083
100000011100872579131220120087257913122012FA063025370BR  00000        210547-165              000084
100000006700872580131220120087258013122012FA063025383BR  00000        210547-167              000085
100000007300872581131220120087258113122012FA063025397BR  00000        210547-169              000086
100000011500872582131220120087258213122012FA063025406BR  00000        210547-171              000087
100000035800872583131220120087258313122012FA063025410BR  00000        210547-173              000088
100000018600872584131220120087258413122012FA063025423BR  00000        210547-175              000089
100000021800872585131220120087258513122012FA063025437BR  00000        210547-177              000090
100000029300872586131220120087258613122012FA063025445BR  00000        210547-179              000091
100000029700872587131220120087258713122012FA063025454BR  00000        210547-181              000092
100000017900872588131220120087258813122012FA063025468BR  00000        210547-183              000093
100000025900872589131220120087258913122012FA063025471BR  00000        210547-185              000094
100000040400872590131220120087259013122012FA063025485BR  00000        210547-187              000095
100000010600872591131220120087259113122012FA063025499BR  00000        210547-189              000096
9000095                                                                                       000097
