0RETORNONOTIFICACAO ELETRONICA        11112011REGI                                            000001
100000003700665085111120110066508511112011JL014598853BR  00000        151485-1                000002
100000006000665086111120110066508611112011JL014598867BR  00000        151485-3                000003
100000011400665087111120110066508711112011RQ047984815BR  00000        151485-5                000004
100000029500665088111120110066508811112011RQ047984829BR  00000        151485-7                000005
100000006700665089111120110066508911112011RQ047984832BR  00000        151485-9                000006
100000019000665090111120110066509011112011RQ047984846BR  00000        151485-11               000007
100000026200665091111120110066509111112011RQ047984850BR  00000        151485-13               000008
100000006900665092111120110066509211112011RQ047984863BR  00000        151485-15               000009
100000013700665093111120110066509311112011RQ047984877BR  00000        151485-17               000010
100000019600665094111120110066509411112011JL014598875BR  00000        151485-19               000011
100000000400665095111120110066509511112011RQ047984885BR  00000        151485-21               000012
100000003200665096111120110066509611112011RQ047984894BR  00000        151485-24               000013
100000003400665097111120110066509711112011JL014598884BR  00000        151485-26               000014
100000005700665098111120110066509811112011RQ047984903BR  00000        151485-28               000015
100000018900665099111120110066509911112011RQ047984917BR  00000        151485-30               000016
100000029700665100111120110066510011112011RQ047984925BR  00000        151488-1                000017
100000032900665101111120110066510111112011RQ047984934BR  00000        151488-4                000018
100000030600665102111120110066510211112011RQ047984948BR  00000        151488-6                000019
100000037300665103111120110066510311112011RQ047984951BR  00000        151488-8                000020
100000006200665104111120110066510411112011RQ047984965BR  00000        151488-10               000021
100000008900665105111120110066510511112011RQ047984979BR  00000        151488-12               000022
100000017500665106111120110066510611112011RQ047984982BR  00000        151488-14               000023
100000026300665107111120110066510711112011RQ047984996BR  00000        151488-16               000024
100000026800665108111120110066510811112011RQ047985002BR  00000        151488-19               000025
100000029800665109111120110066510911112011RQ047985016BR  00000        151488-21               000026
100000002900665110111120110066511011112011RQ047985020BR  00000        151488-23               000027
100000013600665111111120110066511111112011RQ047985033BR  00000        151488-25               000028
100000015800665112111120110066511211112011RQ047985047BR  00000        151488-27               000029
100000000600665113111120110066511311112011RQ047985055BR  00000        151488-29               000030
100000010300665114111120110066511411112011RQ047985064BR  00000        151488-31               000031
100000015600665115111120110066511511112011RQ047985078BR  00000        151488-33               000032
100000011700665116111120110066511611112011RQ047985081BR  00000        151488-35               000033
100000025900665117111120110066511711112011RQ047985095BR  00000        151488-37               000034
100000011200665118111120110066511811112011RQ047985104BR  00000        151488-39               000035
100000017500665119111120110066511911112011RQ047985118BR  00000        151488-41               000036
100000037000665120111120110066512011112011RQ047985121BR  00000        151488-43               000037
100000020300665121111120110066512111112011RQ047985135BR  00000        151488-45               000038
100000022700665122111120110066512211112011RQ047985149BR  00000        151488-47               000039
100000026700665123111120110066512311112011RQ047985152BR  00000        151488-49               000040
100000027100665124111120110066512411112011RQ047985166BR  00000        151488-51               000041
100000026100665125111120110066512511112011RQ047985170BR  00000        151488-53               000042
100000027100665126111120110066512611112011RQ047985183BR  00000        151488-55               000043
100000026100665127111120110066512711112011RQ047985197BR  00000        151488-57               000044
100000028000665128111120110066512811112011RQ047985206BR  00000        151488-59               000045
100000030700665129111120110066512911112011RQ047985210BR  00000        151488-61               000046
100000033200665130111120110066513011112011RQ047985223BR  00000        151488-63               000047
100000034900665131111120110066513111112011RQ047985237BR  00000        151488-65               000048
100000036900665132111120110066513211112011RQ047985245BR  00000        151488-67               000049
100000035300665133111120110066513311112011RQ047985254BR  00000        151488-69               000050
100000049800665134111120110066513411112011RQ047985268BR  00000        151488-71               000051
100000000400665135111120110066513511112011RQ047985271BR  00000        151488-73               000052
100000000500665136111120110066513611112011RQ047985285BR  00000        151488-75               000053
100000000600665137111120110066513711112011RQ047985299BR  00000        151488-77               000054
100000001700665138111120110066513811112011RQ047985308BR  00000        151488-79               000055
100000000500665139111120110066513911112011RQ047985311BR  00000        151488-81               000056
100000000600665140111120110066514011112011RQ047985325BR  00000        151488-83               000057
100000001900665141111120110066514111112011RQ047985339BR  00000        151488-85               000058
100000000100665142111120110066514211112011RQ047985342BR  00000        151488-87               000059
100000008600665143111120110066514311112011RQ047985356BR  00000        151488-89               000060
100000029200665144111120110066514411112011RQ047985360BR  00000        151488-91               000061
100000043000665145111120110066514511112011RQ047985373BR  00000        151488-93               000062
100000045800665146111120110066514611112011RQ047985387BR  00000        151488-95               000063
100000000300665147111120110066514711112011RQ047985395BR  00000        151488-98               000064
100000000600665148111120110066514811112011RQ047985400BR  00000        151488-100              000065
100000002100665149111120110066514911112011RQ047985413BR  00000        151488-102              000066
100000002200665150111120110066515011112011RQ047985427BR  00000        151488-104              000067
100000003000665151111120110066515111112011RQ047985435BR  00000        151488-106              000068
100000007500665152111120110066515211112011RQ047985444BR  00000        151488-108              000069
100000016500665153111120110066515311112011RQ047985458BR  00000        151488-110              000070
100000019000665154111120110066515411112011RQ047985461BR  00000        151490-1                000071
100000007100665155111120110066515511112011RQ047985475BR  00000        151490-3                000072
100000011300665156111120110066515611112011RQ047985489BR  00000        151490-5                000073
100000013800665157111120110066515711112011RQ047985492BR  00000        151490-7                000074
100000014400665158111120110066515811112011RQ047985501BR  00000        151490-9                000075
100000021300665159111120110066515911112011RQ047985515BR  00000        151490-11               000076
100000004300665160111120110066516011112011RQ047985529BR  00000        151490-13               000077
100000013200665161111120110066516111112011RQ047985532BR  00000        151490-15               000078
100000024200665162111120110066516211112011RQ047985546BR  00000        151490-17               000079
100000034800665163111120110066516311112011RQ047985550BR  00000        151490-19               000080
100000040900665164111120110066516411112011RQ047985563BR  00000        151490-21               000081
100000046400665165111120110066516511112011RQ047985577BR  00000        151490-23               000082
100000008200665166111120110066516611112011RQ047985585BR  00000        151490-25               000083
100000032500665167111120110066516711112011RQ047985594BR  00000        151490-27               000084
100000041400665168111120110066516811112011RQ047985603BR  00000        151490-29               000085
100000046100665169111120110066516911112011RQ047985617BR  00000        151490-31               000086
100000001900665170111120110066517011112011RQ047985625BR  00000        151490-33               000087
100000028700665171111120110066517111112011RQ047985634BR  00000        151490-35               000088
100000003600665172111120110066517211112011RQ047985648BR  00000        151490-37               000089
100000006700665173111120110066517311112011RQ047985651BR  00000        151490-39               000090
100000017300665174111120110066517411112011RQ047985665BR  00000        151492-1                000091
100000021100665175111120110066517511112011RQ047985679BR  00000        151492-3                000092
9000091                                                                                       000093
