0RETORNONOTIFICACAO ELETRONICA        23072013REGI                                            000001
100000018100996320230720130099632023072013FA136310934BR  00000        247796-1                000002
100000007100996321230720130099632123072013FA136310948BR  00000        247796-4                000003
100000019000996322230720130099632223072013FA136310951BR  00000        247796-7                000004
100000022800996323230720130099632323072013FA136310965BR  00000        247796-10               000005
100000024400996324230720130099632423072013FA136310979BR  00000        247796-13               000006
9000005                                                                                       000007
