0RETORNONOTIFICACAO ELETRONICA        14022013REGI                                            000001
100000008500902881140220130090288114022013FA063314805BR  00000        221039-1                000002
100000017400902882140220130090288214022013FA063314819BR  00000        221039-6                000003
100000001500903353140220130090335314022013FA063318855BR  00000        221363-1                000004
9000003                                                                                       000005
