0RETORNONOTIFICACAO ELETRONICA        10052012REGI                                            000001
100000007800761272100520120076127210052012FR852033615BR  00000        174163-1                000002
100000037300761273100520120076127310052012FR852033624BR  00000        174163-3                000003
100000010800761274100520120076127410052012FR852033638BR  00000        174163-5                000004
100000030800761275100520120076127510052012FR852033641BR  00000        174163-7                000005
100000033700761276100520120076127610052012FR852033655BR  00000        174163-9                000006
100000038300761277100520120076127710052012FR852033669BR  00000        174163-11               000007
100000018700761278100520120076127810052012FR852033672BR  00000        174163-13               000008
100000036000761279100520120076127910052012FR852033686BR  00000        174163-15               000009
100000011200761280100520120076128010052012FR852033690BR  00000        174163-17               000010
100000013200761281100520120076128110052012FR852033709BR  00000        174163-19               000011
100000010700761282100520120076128210052012FR852033712BR  00000        174163-21               000012
100000018800761283100520120076128310052012FR852033726BR  00000        174163-23               000013
100000003000761284100520120076128410052012FR852033730BR  00000        174163-25               000014
100000021300761285100520120076128510052012FR852033743BR  00000        174163-27               000015
100000021700761286100520120076128610052012FR852033757BR  00000        174163-29               000016
100000022400761287100520120076128710052012FR852033765BR  00000        174163-31               000017
100000026900761288100520120076128810052012FR852033774BR  00000        174163-33               000018
100000008000761289100520120076128910052012FR852033788BR  00000        174163-35               000019
100000021400761290100520120076129010052012FR852033791BR  00000        174163-38               000020
100000027000761291100520120076129110052012FR852033805BR  00000        174163-40               000021
100000034000761292100520120076129210052012FR852033814BR  00000        174163-42               000022
100000035300761293100520120076129310052012FR852033828BR  00000        174163-44               000023
100000037300761294100520120076129410052012FR852033831BR  00000        174163-46               000024
100000029800761295100520120076129510052012FR852033845BR  00000        174163-48               000025
100000006500761296100520120076129610052012FR852033859BR  00000        174163-50               000026
100000016600761297100520120076129710052012FR852033862BR  00000        174163-52               000027
100000021500761298100520120076129810052012FR852033876BR  00000        174163-54               000028
100000044400761299100520120076129910052012FR852033880BR  00000        174163-56               000029
100000045600761300100520120076130010052012FR852033893BR  00000        174163-58               000030
100000047800761301100520120076130110052012FR852033902BR  00000        174163-60               000031
100000049800761302100520120076130210052012FR852033916BR  00000        174163-62               000032
100000050000761303100520120076130310052012FR852033920BR  00000        174163-64               000033
100000007800761304100520120076130410052012FR852033933BR  00000        174163-66               000034
100000029400761305100520120076130510052012FR852033947BR  00000        174163-68               000035
100000029500761306100520120076130610052012FR852033955BR  00000        174163-71               000036
100000000100761307100520120076130710052012FR852033964BR  00000        174163-74               000037
100000000200761308100520120076130810052012FR852033978BR  00000        174163-76               000038
100000000300761309100520120076130910052012FR852033981BR  00000        174163-78               000039
100000001500761310100520120076131010052012FR852033995BR  00000        174163-80               000040
100000001600761311100520120076131110052012FR852034001BR  00000        174163-82               000041
100000001900761312100520120076131210052012FR852034015BR  00000        174163-84               000042
100000002000761313100520120076131310052012FR852034029BR  00000        174163-86               000043
100000000400761314100520120076131410052012FR852034032BR  00000        174163-89               000044
100000001200761315100520120076131510052012FR852034046BR  00000        174163-91               000045
100000001300761316100520120076131610052012FR852034050BR  00000        174163-93               000046
100000001400761317100520120076131710052012FR852034063BR  00000        174163-95               000047
100000001500761318100520120076131810052012FR852034077BR  00000        174163-97               000048
100000000100761319100520120076131910052012FR852034085BR  00000        174163-99               000049
100000022400761320100520120076132010052012FR852034094BR  00000        174163-101              000050
100000025800761321100520120076132110052012FR852034103BR  00000        174163-103              000051
100000045500761322100520120076132210052012FR852034117BR  00000        174163-105              000052
100000000400761323100520120076132310052012FR852034125BR  00000        174163-107              000053
100000000500761324100520120076132410052012FR852034134BR  00000        174163-109              000054
100000000600761325100520120076132510052012FR852034148BR  00000        174163-112              000055
100000000700761326100520120076132610052012FR852034151BR  00000        174163-114              000056
100000002300761327100520120076132710052012FR852034165BR  00000        174163-116              000057
100000001300761328100520120076132810052012FR852034179BR  00000        174163-118              000058
100000002900761329100520120076132910052012FR852034182BR  00000        174163-120              000059
100000012000761330100520120076133010052012FR852034196BR  00000        174163-122              000060
100000012800761331100520120076133110052012FR852034205BR  00000        174163-124              000061
100000010400761332100520120076133210052012FR852034219BR  00000        174163-126              000062
100000009300761333100520120076133310052012FR852034222BR  00000        174163-128              000063
100000002600761334100520120076133410052012FR852034236BR  00000        174163-130              000064
100000002700761335100520120076133510052012FR852034240BR  00000        174163-132              000065
100000004400761336100520120076133610052012FR852034253BR  00000        174163-134              000066
100000020300761337100520120076133710052012FR852034267BR  00000        174164-1                000067
100000021800761338100520120076133810052012FR852034275BR  00000        174166-1                000068
100000029500761339100520120076133910052012FR852034284BR  00000        174166-3                000069
100000028600761340100520120076134010052012FR852034298BR  00000        174166-5                000070
100000000600761341100520120076134110052012FR852034307BR  00000        174166-7                000071
100000002800761342100520120076134210052012FR852034315BR  00000        174166-9                000072
100000006700761343100520120076134310052012FR852034324BR  00000        174166-11               000073
100000015300761344100520120076134410052012FR852034338BR  00000        174166-13               000074
100000015700761345100520120076134510052012FR852034341BR  00000        174166-15               000075
100000018300761346100520120076134610052012FR852034355BR  00000        174166-17               000076
100000027500761347100520120076134710052012FR852034369BR  00000        174166-19               000077
100000000800761348100520120076134810052012FR852034372BR  00000        174166-21               000078
100000000900761349100520120076134910052012FR852034386BR  00000        174166-23               000079
100000004900761350100520120076135010052012FR852034390BR  00000        174166-25               000080
100000006900761351100520120076135110052012FR852034409BR  00000        174166-27               000081
100000011600761352100520120076135210052012FR852034412BR  00000        174166-29               000082
100000013700761353100520120076135310052012FR852034426BR  00000        174166-32               000083
100000021600761354100520120076135410052012FR852034430BR  00000        174166-34               000084
100000004200761355100520120076135510052012FR852034443BR  00000        174166-36               000085
100000007700761356100520120076135610052012FR852034457BR  00000        174166-38               000086
100000018200761357100520120076135710052012FR852034465BR  00000        174166-40               000087
100000000700761358100520120076135810052012FR852034474BR  00000        174166-42               000088
100000010000761359100520120076135910052012FR852034488BR  00000        174166-44               000089
100000016300761360100520120076136010052012FR852034491BR  00000        174166-46               000090
100000017400761361100520120076136110052012FR852034505BR  00000        174166-48               000091
100000005400761362100520120076136210052012FR852034514BR  00000        174168-1                000092
100000005500761363100520120076136310052012FR852034528BR  00000        174168-3                000093
100000006100761364100520120076136410052012FR852034531BR  00000        174168-5                000094
100000009200761365100520120076136510052012FR852034545BR  00000        174168-7                000095
100000018700761366100520120076136610052012FR852034559BR  00000        174168-9                000096
100000008800761367100520120076136710052012FR852034562BR  00000        174168-11               000097
100000038700761368100520120076136810052012FR852034576BR  00000        174168-13               000098
100000003600761369100520120076136910052012FR852034580BR  00000        174168-15               000099
100000008200761370100520120076137010052012FR852034593BR  00000        174168-17               000100
100000045100761371100520120076137110052012FR852034602BR  00000        174168-19               000101
100000009400761372100520120076137210052012FR852034616BR  00000        174168-21               000102
9000101                                                                                       000103
