0RETORNONOTIFICACAO ELETRONICA        07062013REGI                                            000001
100000030300969897070620130096989707062013FA136066182BR  00000        239994-1                000002
100000026700969898070620130096989807062013FA136066196BR  00000        239994-4                000003
100000020300969899070620130096989907062013FA136066205BR  00000        239968-1                000004
100000028600969900070620130096990007062013FA136066219BR  00000        239968-4                000005
100000013500969901070620130096990107062013FA136066222BR  00000        239968-7                000006
100000017900969902070620130096990207062013FA136066236BR  00000        239968-10               000007
9000006                                                                                       000008
