0RETORNONOTIFICACAO ELETRONICA        05072013REGI                                            000001
100000010400985593050720130098559305072013FA136207384BR  00000        244821-1                000002
100000010600985594050720130098559405072013FA136207398BR  00000        244821-4                000003
100000030000985595050720130098559505072013FA136207407BR  00000        244823-1                000004
100000013000985596050720130098559605072013FA136207415BR  00000        244826-1                000005
100000016800985597050720130098559705072013FA136207424BR  00000        244826-4                000006
100000019600985598050720130098559805072013FA136207438BR  00000        244826-7                000007
100000020400985599050720130098559905072013FA136207441BR  00000        244826-10               000008
100000025400985600050720130098560005072013FA136207455BR  00000        244826-13               000009
100000025500985601050720130098560105072013FA136207469BR  00000        244826-16               000010
100000004200985602050720130098560205072013FA136207472BR  00000        244826-19               000011
100000017500985603050720130098560305072013FA136207486BR  00000        244826-22               000012
100000023400985604050720130098560405072013FA136207490BR  00000        244826-25               000013
100000023500985605050720130098560505072013FA136207509BR  00000        244826-28               000014
100000024300985606050720130098560605072013FA136207512BR  00000        244826-31               000015
100000024400985607050720130098560705072013FA136207526BR  00000        244826-34               000016
100000008000985608050720130098560805072013FA136207530BR  00000        244826-37               000017
100000012800985609050720130098560905072013FA136207543BR  00000        244826-40               000018
100000034000985610050720130098561005072013FA136207557BR  00000        244826-43               000019
100000032000985611050720130098561105072013FA136207565BR  00000        244826-46               000020
100000034200985612050720130098561205072013FA136207574BR  00000        244826-49               000021
100000028500985613050720130098561305072013FA136207588BR  00000        244826-55               000022
100000040900985614050720130098561405072013FA136207591BR  00000        244826-61               000023
100000019500985615050720130098561505072013FA136207605BR  00000        244826-67               000024
100000000100985616050720130098561605072013FA136207614BR  00000        244826-76               000025
100000000200985617050720130098561705072013FA136207628BR  00000        244826-79               000026
100000002600985618050720130098561805072013FA136207631BR  00000        244826-82               000027
100000018900985619050720130098561905072013FA136207645BR  00000        244826-85               000028
100000006900985620050720130098562005072013FA136207659BR  00000        244826-88               000029
100000002900985621050720130098562105072013FA136207662BR  00000        244826-91               000030
100000003800985622050720130098562205072013FA136207676BR  00000        244826-94               000031
100000011300985623050720130098562305072013FA136207680BR  00000        244826-97               000032
100000015000985624050720130098562405072013FA136207693BR  00000        244826-100              000033
100000023200985625050720130098562505072013FA136207702BR  00000        244826-103              000034
100000017000985626050720130098562605072013FA136207716BR  00000        244826-106              000035
100000017100985627050720130098562705072013FA136207720BR  00000        244826-109              000036
100000011500985628050720130098562805072013FA136207733BR  00000        244826-112              000037
100000000500985629050720130098562905072013FA136207747BR  00000        244826-115              000038
100000000500985630050720130098563005072013FA136207755BR  00000        244826-118              000039
100000035100985631050720130098563105072013FA136207764BR  00000        244826-121              000040
9000039                                                                                       000041
