0RETORNONOTIFICACAO ELETRONICA        20082012REGI                                            000001
100000016700815164200820120081516420082012FR971977173BR  00000        189079-1                000002
100000020300815165200820120081516520082012FR971977187BR  00000        189079-3                000003
100000002900815166200820120081516620082012FR971977195BR  00000        189079-5                000004
100000015700815167200820120081516720082012FR971977200BR  00000        189079-7                000005
100000025900815168200820120081516820082012FR971977213BR  00000        189079-9                000006
100000002700815169200820120081516920082012FR971977227BR  00000        189079-11               000007
100000012600815170200820120081517020082012FR971977235BR  00000        189079-13               000008
100000021600815171200820120081517120082012FR971977244BR  00000        189079-15               000009
100000014000815172200820120081517220082012FR971977258BR  00000        189079-17               000010
100000019000815173200820120081517320082012FR971977261BR  00000        189079-19               000011
100000009800815174200820120081517420082012FR971977275BR  00000        189079-21               000012
100000016200815175200820120081517520082012FR971977289BR  00000        189079-23               000013
100000002900815176200820120081517620082012FR971977292BR  00000        189079-25               000014
100000033700815177200820120081517720082012FR971977301BR  00000        189079-27               000015
100000018800815178200820120081517820082012FR971977315BR  00000        189079-29               000016
100000011200815179200820120081517920082012FR971977329BR  00000        189079-31               000017
100000022100815180200820120081518020082012FR971977332BR  00000        189079-33               000018
100000011500815181200820120081518120082012FR971977346BR  00000        189079-35               000019
100000025400815182200820120081518220082012FR971977350BR  00000        189079-37               000020
100000010000815183200820120081518320082012FR971977363BR  00000        189079-39               000021
100000004700815184200820120081518420082012FR971977377BR  00000        189079-41               000022
100000011200815185200820120081518520082012FR971977385BR  00000        189079-43               000023
100000005800815186200820120081518620082012FR971977394BR  00000        189079-45               000024
100000003000815187200820120081518720082012FR971977403BR  00000        189079-47               000025
100000003800815188200820120081518820082012FR971977417BR  00000        189079-49               000026
100000005900815189200820120081518920082012FR971977425BR  00000        189079-51               000027
100000016600815190200820120081519020082012FR971977434BR  00000        189079-53               000028
100000018100815191200820120081519120082012FR971977448BR  00000        189079-55               000029
100000028500815192200820120081519220082012FR971977451BR  00000        189079-57               000030
100000024300815193200820120081519320082012FR971977465BR  00000        189079-59               000031
100000027300815194200820120081519420082012FR971977479BR  00000        189079-61               000032
100000001900815195200820120081519520082012FR971977482BR  00000        189079-63               000033
100000045300815196200820120081519620082012FR971977496BR  00000        189079-65               000034
100000002200815197200820120081519720082012FR971977505BR  00000        189079-67               000035
100000002300815198200820120081519820082012FR971977519BR  00000        189079-69               000036
100000002400815199200820120081519920082012FR971977522BR  00000        189079-71               000037
100000002500815200200820120081520020082012FR971977536BR  00000        189079-73               000038
100000002600815201200820120081520120082012FR971977540BR  00000        189079-75               000039
100000002700815202200820120081520220082012FR971977553BR  00000        189079-77               000040
100000004700815203200820120081520320082012FR971977567BR  00000        189079-79               000041
100000006800815204200820120081520420082012FR971977575BR  00000        189079-81               000042
100000000300815205200820120081520520082012FR971977584BR  00000        189079-83               000043
100000000200815206200820120081520620082012FR971977598BR  00000        189079-85               000044
100000003700815207200820120081520720082012FR971977607BR  00000        189079-87               000045
100000003800815208200820120081520820082012FR971977615BR  00000        189079-89               000046
100000002300815209200820120081520920082012FR971977624BR  00000        189079-91               000047
100000003000815210200820120081521020082012FR971977638BR  00000        189079-93               000048
100000029200815211200820120081521120082012FR971977641BR  00000        189079-96               000049
100000002000815212200820120081521220082012FR971977655BR  00000        189079-98               000050
100000014600815213200820120081521320082012FR971977669BR  00000        189079-100              000051
100000012500815214200820120081521420082012FR971977672BR  00000        189079-102              000052
100000009400815215200820120081521520082012FR971977686BR  00000        189079-104              000053
100000017600815216200820120081521620082012FR971977690BR  00000        189079-106              000054
100000047500815217200820120081521720082012FR971977709BR  00000        189079-109              000055
100000021800815218200820120081521820082012FR971977712BR  00000        189079-111              000056
100000022800815219200820120081521920082012FR971977726BR  00000        189079-113              000057
100000040700815220200820120081522020082012FR971977730BR  00000        189079-115              000058
100000040800815221200820120081522120082012FR971977743BR  00000        189079-117              000059
100000015700815222200820120081522220082012FR971977757BR  00000        189079-119              000060
9000059                                                                                       000061
