0RETORNONOTIFICACAO ELETRONICA        09102012REGI                                            000001
100000014200840638091020120084063809102012FA012519305BR  00000        198110-1                000002
100000011600840639091020120084063909102012FA012519314BR  00000        198110-6                000003
100000009800840640091020120084064009102012FA012519328BR  00000        198110-11               000004
100000037100840641091020120084064109102012FA012519331BR  00000        198110-15               000005
100000027600840642091020120084064209102012FA012519345BR  00000        198110-19               000006
100000037200840643091020120084064309102012FA012519359BR  00000        198110-23               000007
9000006                                                                                       000008
