0RETORNONOTIFICACAO ELETRONICA        11072013REGI                                            000001
100000026200989383110720130098938311072013FA136243713BR  00000        245732-1                000002
100000033100989384110720130098938411072013FA136243727BR  00000        245732-4                000003
100000015800989385110720130098938511072013FA136243735BR  00000        245732-7                000004
100000021000989386110720130098938611072013FA136243744BR  00000        245732-10               000005
100000046500989387110720130098938711072013FA136243758BR  00000        245732-13               000006
9000005                                                                                       000007
