0RETORNONOTIFICACAO ELETRONICA        11022014REGI                                            000001
100000043501138902110220140113890211022014FA245856062BR  00000        284302-1                000002
100000026401139196110220140113919611022014FA245858995BR  00000        284335-1                000003
100000026601139197110220140113919711022014FA245859007BR  00000        284335-3                000004
100000015401139198110220140113919811022014FA245859015BR  00000        284335-5                000005
100000016001139199110220140113919911022014FA245859024BR  00000        284335-7                000006
100000002701139200110220140113920011022014FA245859038BR  00000        284335-9                000007
100000010201139201110220140113920111022014FA245859041BR  00000        284335-11               000008
100000010201139202110220140113920211022014FA245859055BR  00000        284335-12               000009
100000013701139203110220140113920311022014FA245859069BR  00000        284335-13               000010
100000015001139204110220140113920411022014FA245859072BR  00000        284335-15               000011
100000009601139205110220140113920511022014FA245859086BR  00000        284335-17               000012
100000017401139206110220140113920611022014FA245859090BR  00000        284335-19               000013
100000028801139207110220140113920711022014FA245859109BR  00000        284335-21               000014
100000008001139208110220140113920811022014FA245859112BR  00000        284335-23               000015
100000011101139209110220140113920911022014FA245859126BR  00000        284335-25               000016
100000004801139252110220140113925211022014FA245859449BR  00000        284365-1                000017
100000006601139253110220140113925311022014FA245859452BR  00000        284365-3                000018
100000009701139254110220140113925411022014FA245859466BR  00000        284365-5                000019
100000026001139255110220140113925511022014FA245859470BR  00000        284365-7                000020
100000000101139834110220140113983411022014FA245865020BR  00000        284446-1                000021
9000020                                                                                       000022
