0RETORNONOTIFICACAO ELETRONICA        10012012REGI                                            000001
100000002400702382100120120070238210012012RQ049637950BR  00000        158098-1                000002
100000021100702383100120120070238310012012RQ049637963BR  00000        158098-3                000003
100000008900702384100120120070238410012012RQ049637977BR  00000        158103-1                000004
100000004300702385100120120070238510012012RQ049637985BR  00000        158103-3                000005
100000005500702386100120120070238610012012RQ049637994BR  00000        158103-5                000006
100000016600702387100120120070238710012012RQ049638005BR  00000        158103-7                000007
100000024800702388100120120070238810012012RQ049638014BR  00000        158103-9                000008
100000029500702389100120120070238910012012RQ049638028BR  00000        158103-11               000009
100000023500702390100120120070239010012012RQ049638031BR  00000        158103-13               000010
100000024200702391100120120070239110012012RQ049638045BR  00000        158103-15               000011
100000033100702392100120120070239210012012RQ049638059BR  00000        158103-17               000012
100000033800702393100120120070239310012012RQ049638062BR  00000        158103-19               000013
100000040900702394100120120070239410012012RQ049638076BR  00000        158103-22               000014
100000042000702395100120120070239510012012RQ049638080BR  00000        158103-24               000015
100000042700702396100120120070239610012012RQ049638093BR  00000        158103-26               000016
100000001900702397100120120070239710012012RQ049638102BR  00000        158103-28               000017
100000031700702398100120120070239810012012RQ049638116BR  00000        158103-30               000018
100000019000702399100120120070239910012012RQ049638120BR  00000        158103-32               000019
100000003000702400100120120070240010012012JL014622098BR  00000        158109-1                000020
100000003500702401100120120070240110012012RQ049638133BR  00000        158109-3                000021
100000021800702402100120120070240210012012RQ049638147BR  00000        158109-6                000022
100000029500702403100120120070240310012012RQ049638155BR  00000        158109-9                000023
100000005000702404100120120070240410012012RQ049638164BR  00000        158109-11               000024
100000011300702405100120120070240510012012RQ049638178BR  00000        158109-13               000025
100000012600702406100120120070240610012012RQ049638181BR  00000        158109-15               000026
100000028600702407100120120070240710012012JL014622107BR  00000        158109-18               000027
100000028800702408100120120070240810012012RQ049638195BR  00000        158109-20               000028
100000002400702409100120120070240910012012RQ049638204BR  00000        158109-22               000029
100000006700702410100120120070241010012012RQ049638218BR  00000        158109-24               000030
100000015300702411100120120070241110012012RQ049638221BR  00000        158109-26               000031
100000015700702412100120120070241210012012RQ049638235BR  00000        158109-28               000032
100000017400702413100120120070241310012012RQ049638249BR  00000        158109-30               000033
100000025400702414100120120070241410012012JL014622115BR  00000        158109-33               000034
100000025900702415100120120070241510012012JL014622124BR  00000        158109-35               000035
100000026200702416100120120070241610012012RQ049638252BR  00000        158109-37               000036
100000000800702417100120120070241710012012JL014622138BR  00000        158109-39               000037
100000004900702418100120120070241810012012RQ049638266BR  00000        158109-41               000038
100000009000702419100120120070241910012012RQ049638270BR  00000        158109-44               000039
100000013700702420100120120070242010012012RQ049638283BR  00000        158109-47               000040
100000021600702421100120120070242110012012RQ049638297BR  00000        158109-49               000041
100000024800702422100120120070242210012012RQ049638306BR  00000        158109-51               000042
100000003200702423100120120070242310012012RQ049638310BR  00000        158109-53               000043
100000005700702424100120120070242410012012RQ049638323BR  00000        158109-55               000044
100000017500702425100120120070242510012012JL014622141BR  00000        158109-57               000045
100000000700702426100120120070242610012012RQ049638337BR  00000        158109-59               000046
100000021400702427100120120070242710012012RQ049638345BR  00000        158113-1                000047
100000037200702428100120120070242810012012RQ049638354BR  00000        158113-3                000048
100000013700702429100120120070242910012012RQ049638368BR  00000        158113-5                000049
100000013900702430100120120070243010012012RQ049638371BR  00000        158113-7                000050
100000037300702431100120120070243110012012RQ049638385BR  00000        158113-9                000051
100000030800702432100120120070243210012012RQ049638399BR  00000        158113-11               000052
100000033700702433100120120070243310012012RQ049638408BR  00000        158113-13               000053
100000011800702434100120120070243410012012RQ049638411BR  00000        158113-15               000054
100000006700702435100120120070243510012012RQ049638425BR  00000        158113-17               000055
100000020600702436100120120070243610012012RQ049638439BR  00000        158113-19               000056
100000002100702437100120120070243710012012RQ049638442BR  00000        158113-21               000057
100000017800702438100120120070243810012012RQ049638456BR  00000        158113-23               000058
100000022800702439100120120070243910012012RQ049638460BR  00000        158113-25               000059
100000025500702440100120120070244010012012RQ049638473BR  00000        158113-27               000060
100000001300702441100120120070244110012012RQ049638487BR  00000        158113-29               000061
100000015600702442100120120070244210012012RQ049638495BR  00000        158113-31               000062
100000021300702443100120120070244310012012RQ049638500BR  00000        158113-33               000063
100000026900702444100120120070244410012012RQ049638513BR  00000        158113-35               000064
100000017100702445100120120070244510012012RQ049638527BR  00000        158113-37               000065
100000028900702446100120120070244610012012RQ049638535BR  00000        158113-39               000066
100000014300702447100120120070244710012012RQ049638544BR  00000        158113-41               000067
100000015700702448100120120070244810012012RQ049638558BR  00000        158113-43               000068
100000017500702449100120120070244910012012RQ049638561BR  00000        158113-45               000069
100000010700702450100120120070245010012012RQ049638575BR  00000        158113-47               000070
100000012800702451100120120070245110012012RQ049638589BR  00000        158113-49               000071
100000017500702452100120120070245210012012RQ049638592BR  00000        158113-51               000072
100000021900702453100120120070245310012012RQ049638601BR  00000        158113-53               000073
100000034000702454100120120070245410012012RQ049638615BR  00000        158113-55               000074
100000005800702455100120120070245510012012RQ049638629BR  00000        158113-57               000075
100000005400702456100120120070245610012012RQ049638632BR  00000        158113-59               000076
100000032200702457100120120070245710012012RQ049638646BR  00000        158113-61               000077
100000041500702458100120120070245810012012RQ049638650BR  00000        158113-63               000078
100000000800702459100120120070245910012012RQ049638663BR  00000        158113-65               000079
100000016000702460100120120070246010012012RQ049638677BR  00000        158113-67               000080
100000016600702461100120120070246110012012RQ049638685BR  00000        158113-69               000081
100000018100702462100120120070246210012012RQ049638694BR  00000        158113-71               000082
100000021500702463100120120070246310012012RQ049638703BR  00000        158113-73               000083
100000026100702464100120120070246410012012RQ049638717BR  00000        158113-75               000084
100000026700702465100120120070246510012012RQ049638725BR  00000        158113-77               000085
100000028500702466100120120070246610012012RQ049638734BR  00000        158113-79               000086
100000029900702467100120120070246710012012RQ049638748BR  00000        158113-81               000087
100000034900702468100120120070246810012012RQ049638751BR  00000        158113-83               000088
100000047800702469100120120070246910012012RQ049638765BR  00000        158113-85               000089
100000002100702470100120120070247010012012RQ049638779BR  00000        158113-87               000090
100000005000702471100120120070247110012012RQ049638782BR  00000        158113-89               000091
100000029400702472100120120070247210012012RQ049638796BR  00000        158113-91               000092
100000029500702473100120120070247310012012RQ049638805BR  00000        158113-93               000093
100000033800702474100120120070247410012012RQ049638819BR  00000        158113-95               000094
100000035300702475100120120070247510012012RQ049638822BR  00000        158113-97               000095
100000000100702476100120120070247610012012RQ049638836BR  00000        158113-99               000096
100000000200702477100120120070247710012012RQ049638840BR  00000        158113-101              000097
100000000300702478100120120070247810012012RQ049638853BR  00000        158113-103              000098
100000000400702479100120120070247910012012RQ049638867BR  00000        158113-105              000099
100000000600702480100120120070248010012012RQ049638875BR  00000        158113-107              000100
100000001200702481100120120070248110012012RQ049638884BR  00000        158113-109              000101
100000006500702482100120120070248210012012RQ049638898BR  00000        158113-111              000102
100000008600702483100120120070248310012012RQ049638907BR  00000        158113-113              000103
100000045500702484100120120070248410012012RQ049638915BR  00000        158113-115              000104
100000047400702485100120120070248510012012RQ049638924BR  00000        158113-117              000105
100000001500702486100120120070248610012012RQ049638938BR  00000        158113-119              000106
100000001200702487100120120070248710012012RQ049638941BR  00000        158113-121              000107
100000001700702488100120120070248810012012RQ049638955BR  00000        158113-123              000108
100000000700702489100120120070248910012012RQ049638969BR  00000        158113-125              000109
100000000100702490100120120070249010012012RQ049638972BR  00000        158113-127              000110
100000000600702491100120120070249110012012RQ049638986BR  00000        158113-129              000111
100000002200702492100120120070249210012012RQ049638990BR  00000        158113-131              000112
100000002300702493100120120070249310012012RQ049639006BR  00000        158113-133              000113
100000003500702494100120120070249410012012RQ049639010BR  00000        158113-135              000114
100000011300702495100120120070249510012012RQ049639023BR  00000        158113-137              000115
100000016500702496100120120070249610012012RQ049639037BR  00000        158113-139              000116
100000015100702497100120120070249710012012RQ049639045BR  00000        158114-1                000117
100000017900702498100120120070249810012012RQ049639054BR  00000        158114-6                000118
100000007500702499100120120070249910012012RQ049639068BR  00000        158114-11               000119
100000000800702500100120120070250010012012RQ049639071BR  00000        158114-17               000120
100000001100702501100120120070250110012012RQ049639085BR  00000        158114-22               000121
9000120                                                                                       000122
