0RETORNONOTIFICACAO ELETRONICA        11032013REGI                                            000001
100000011500917004110320130091700411032013FA104804519BR  00000        225877-1                000002
100000014200917005110320130091700511032013FA104804522BR  00000        225877-4                000003
100000024400917006110320130091700611032013FA104804536BR  00000        225877-7                000004
9000003                                                                                       000005
