0RETORNONOTIFICACAO ELETRONICA        06092013REGI                                            000001
100000011201030510060920130103051006092013FA159289452BR  00000        256002-1                000002
100000003001030511060920130103051106092013FA159289466BR  00000        256002-2                000003
100000002201030512060920130103051206092013FA159289470BR  00000        256002-3                000004
100000002301030513060920130103051306092013FA159289483BR  00000        256002-4                000005
9000004                                                                                       000006
