0RETORNONOTIFICACAO ELETRONICA        17092012REGI                                            000001
100000010500829199170920120082919917092012FA012410918BR  00000        194276-1                000002
100000010700829200170920120082920017092012FA012410921BR  00000        194276-3                000003
100000021800829201170920120082920117092012FA012410935BR  00000        194276-5                000004
100000028500829202170920120082920217092012FA012410949BR  00000        194276-7                000005
100000029500829203170920120082920317092012FA012410952BR  00000        194276-9                000006
100000007100829204170920120082920417092012FA012410966BR  00000        194276-11               000007
100000021800829205170920120082920517092012FA012410970BR  00000        194276-13               000008
100000018300829206170920120082920617092012FA012410983BR  00000        194276-17               000009
100000026200829207170920120082920717092012FA012410997BR  00000        194276-19               000010
100000028900829208170920120082920817092012FA012411003BR  00000        194276-21               000011
100000004900829209170920120082920917092012FA012411017BR  00000        194276-23               000012
100000006900829210170920120082921017092012FA012411025BR  00000        194276-25               000013
100000013700829211170920120082921117092012FA012411034BR  00000        194276-27               000014
100000019600829212170920120082921217092012FA012411048BR  00000        194276-29               000015
100000020800829213170920120082921317092012FA012411051BR  00000        194276-31               000016
100000000700829214170920120082921417092012FA012411065BR  00000        194276-33               000017
100000010000829215170920120082921517092012FA012411079BR  00000        194276-35               000018
100000017500829216170920120082921617092012FA012411082BR  00000        194276-37               000019
100000030800829217170920120082921717092012FA012411096BR  00000        194276-41               000020
100000018700829218170920120082921817092012FA012411105BR  00000        194276-43               000021
100000032200829219170920120082921917092012FA012411119BR  00000        194276-45               000022
100000001000829220170920120082922017092012FA012411122BR  00000        194276-47               000023
100000015800829221170920120082922117092012FA012411136BR  00000        194276-49               000024
100000020600829222170920120082922217092012FA012411140BR  00000        194276-51               000025
100000004800829223170920120082922317092012FA012411153BR  00000        194276-53               000026
100000003000829224170920120082922417092012FA012411167BR  00000        194276-55               000027
100000019800829225170920120082922517092012FA012411175BR  00000        194276-57               000028
100000022400829226170920120082922617092012FA012411184BR  00000        194276-59               000029
100000007200829227170920120082922717092012FA012411198BR  00000        194276-61               000030
100000013000829228170920120082922817092012FA012411207BR  00000        194276-63               000031
100000020500829229170920120082922917092012FA012411215BR  00000        194276-65               000032
100000028200829230170920120082923017092012FA012411224BR  00000        194276-67               000033
100000043600829231170920120082923117092012FA012411238BR  00000        194276-69               000034
100000020600829232170920120082923217092012FA012411241BR  00000        194276-71               000035
100000021500829233170920120082923317092012FA012411255BR  00000        194276-73               000036
100000026700829234170920120082923417092012FA012411269BR  00000        194276-75               000037
100000032700829235170920120082923517092012FA012411272BR  00000        194276-77               000038
100000040900829236170920120082923617092012FA012411286BR  00000        194276-79               000039
100000044400829237170920120082923717092012FA012411290BR  00000        194276-81               000040
100000044600829238170920120082923817092012FA012411309BR  00000        194276-83               000041
100000004700829239170920120082923917092012FA012411312BR  00000        194276-85               000042
100000009100829240170920120082924017092012FA012411326BR  00000        194276-87               000043
100000016400829241170920120082924117092012FA012411330BR  00000        194276-89               000044
100000025500829242170920120082924217092012FA012411343BR  00000        194276-91               000045
100000029400829243170920120082924317092012FA012411357BR  00000        194276-93               000046
100000029500829244170920120082924417092012FA012411365BR  00000        194276-95               000047
100000035900829245170920120082924517092012FA012411374BR  00000        194276-97               000048
100000041600829246170920120082924617092012FA012411388BR  00000        194276-99               000049
100000000100829247170920120082924717092012FA012411391BR  00000        194276-101              000050
100000000200829248170920120082924817092012FA012411405BR  00000        194276-103              000051
100000000300829249170920120082924917092012FA012411414BR  00000        194276-105              000052
100000000400829250170920120082925017092012FA012411428BR  00000        194276-115              000053
100000001300829251170920120082925117092012FA012411431BR  00000        194276-117              000054
100000001400829252170920120082925217092012FA012411445BR  00000        194276-119              000055
100000001500829253170920120082925317092012FA012411459BR  00000        194276-121              000056
100000036700829254170920120082925417092012FA012411462BR  00000        194276-123              000057
100000045500829255170920120082925517092012FA012411476BR  00000        194276-125              000058
100000001300829256170920120082925617092012FA012411480BR  00000        194276-127              000059
100000000200829257170920120082925717092012FA012411493BR  00000        194276-129              000060
100000001100829258170920120082925817092012FA012411502BR  00000        194276-131              000061
100000001300829259170920120082925917092012FA012411516BR  00000        194276-133              000062
100000012000829260170920120082926017092012FA012411520BR  00000        194276-135              000063
100000006500829261170920120082926117092012FA012411533BR  00000        194276-137              000064
100000016800829262170920120082926217092012FA012411547BR  00000        194276-139              000065
100000006500829263170920120082926317092012FA012411555BR  00000        194276-141              000066
100000016000829264170920120082926417092012FA012411564BR  00000        194276-143              000067
100000041800829265170920120082926517092012FA012411578BR  00000        194276-145              000068
100000004400829266170920120082926617092012FA012411581BR  00000        194276-147              000069
100000030100829267170920120082926717092012FA012411595BR  00000        194276-149              000070
100000030200829268170920120082926817092012FA012411604BR  00000        194276-151              000071
100000000400829269170920120082926917092012FA012411618BR  00000        194276-153              000072
100000000200829270170920120082927017092012FA012411621BR  00000        194276-155              000073
100000006100829271170920120082927117092012FA012411635BR  00000        194276-157              000074
100000010100829272170920120082927217092012FA012411649BR  00000        194276-159              000075
100000017100829273170920120082927317092012FA012411652BR  00000        194276-161              000076
100000023900829274170920120082927417092012FA012411666BR  00000        194276-163              000077
100000032600829275170920120082927517092012FA012411670BR  00000        194276-165              000078
100000038700829276170920120082927617092012FA012411683BR  00000        194276-167              000079
100000048000829277170920120082927717092012FA012411697BR  00000        194276-169              000080
100000025100829278170920120082927817092012FA012411706BR  00000        194276-171              000081
100000015300829279170920120082927917092012FA012411710BR  00000        194276-173              000082
100000047200829280170920120082928017092012FA012411723BR  00000        194276-175              000083
100000047300829281170920120082928117092012FA012411737BR  00000        194276-177              000084
100000000200829282170920120082928217092012FA012411745BR  00000        194276-179              000085
100000019000829283170920120082928317092012FA012411754BR  00000        194276-181              000086
100000009400829284170920120082928417092012FA012411768BR  00000        194276-183              000087
100000006300829285170920120082928517092012FA012411771BR  00000        194276-185              000088
100000020300829286170920120082928617092012FA012411785BR  00000        194276-187              000089
9000088                                                                                       000090
