0RETORNONOTIFICACAO ELETRONICA        10012014REGI                                            000001
100000013701116173100120140111617310012014FA188459508BR  00000        277361-1                000002
100000028101116174100120140111617410012014FA188459511BR  00000        277361-3                000003
100000001301116175100120140111617510012014FA188459525BR  00000        277361-5                000004
100000006701116176100120140111617610012014FA188459539BR  00000        277361-7                000005
100000014101116177100120140111617710012014FA188459542BR  00000        277361-9                000006
100000016701116178100120140111617810012014FA188459556BR  00000        277361-11               000007
100000026201116179100120140111617910012014FA188459560BR  00000        277361-13               000008
100000001401116180100120140111618010012014FA188459573BR  00000        277361-15               000009
100000023101116181100120140111618110012014FA188459587BR  00000        277361-17               000010
100000025001116182100120140111618210012014FA188459595BR  00000        277361-19               000011
100000006601116183100120140111618310012014FA188459600BR  00000        277361-21               000012
100000016701116184100120140111618410012014FA188459613BR  00000        277361-23               000013
100000019501116185100120140111618510012014FA188459627BR  00000        277361-25               000014
100000002001116186100120140111618610012014FA188459635BR  00000        277361-27               000015
100000010201116187100120140111618710012014FA188459644BR  00000        277361-29               000016
100000027501116188100120140111618810012014FA188459658BR  00000        277361-31               000017
100000029801116189100120140111618910012014FA188459661BR  00000        277361-33               000018
100000030701116190100120140111619010012014FA188459675BR  00000        277361-35               000019
100000026201116191100120140111619110012014FA188459689BR  00000        277361-37               000020
100000003501116192100120140111619210012014FA188459692BR  00000        277361-39               000021
100000031601116193100120140111619310012014FA188459701BR  00000        277361-41               000022
100000036801116194100120140111619410012014FA188459715BR  00000        277361-43               000023
100000018901116195100120140111619510012014FA188459729BR  00000        277361-45               000024
100000047401116196100120140111619610012014FA188459732BR  00000        277361-47               000025
100000006801116197100120140111619710012014FA188459746BR  00000        277361-49               000026
100000006901116198100120140111619810012014FA188459750BR  00000        277361-51               000027
100000002201116199100120140111619910012014FA188459763BR  00000        277361-53               000028
100000003201116200100120140111620010012014FA188459777BR  00000        277361-55               000029
100000003301116201100120140111620110012014FA188459785BR  00000        277361-57               000030
100000003701116202100120140111620210012014FA188459794BR  00000        277361-59               000031
100000003801116203100120140111620310012014FA188459803BR  00000        277361-61               000032
100000008301116204100120140111620410012014FA188459817BR  00000        277361-63               000033
100000010001116205100120140111620510012014FA188459825BR  00000        277361-65               000034
100000000801116206100120140111620610012014FA188459834BR  00000        277361-67               000035
100000001401116207100120140111620710012014FA188459848BR  00000        277361-69               000036
100000006501116208100120140111620810012014FA188459851BR  00000        277361-71               000037
100000028701116209100120140111620910012014FA188459865BR  00000        277361-73               000038
100000006601116210100120140111621010012014FA188459879BR  00000        277361-75               000039
100000009001116211100120140111621110012014FA188459882BR  00000        277361-77               000040
100000009301116212100120140111621210012014FA188459896BR  00000        277361-79               000041
100000029601116213100120140111621310012014FA188459905BR  00000        277361-81               000042
100000043501116214100120140111621410012014FA188459919BR  00000        277361-83               000043
100000001701116215100120140111621510012014FA188459922BR  00000        277361-85               000044
100000001801116216100120140111621610012014FA188459936BR  00000        277361-87               000045
100000008401116217100120140111621710012014FA188459940BR  00000        277361-89               000046
100000013101116218100120140111621810012014FA188459953BR  00000        277361-91               000047
100000023701116219100120140111621910012014FA188459967BR  00000        277361-93               000048
100000023801116220100120140111622010012014FA188459975BR  00000        277361-95               000049
100000035901116221100120140111622110012014FA188459984BR  00000        277361-97               000050
100000036101116222100120140111622210012014FA188459998BR  00000        277361-99               000051
100000036901116223100120140111622310012014FA188460007BR  00000        277361-101              000052
100000011501116224100120140111622410012014FA188460015BR  00000        277361-103              000053
100000045301116225100120140111622510012014FA188460024BR  00000        277361-105              000054
100000019301116226100120140111622610012014FA188460038BR  00000        277361-107              000055
100000001501116227100120140111622710012014FA188460041BR  00000        277361-110              000056
100000001201116228100120140111622810012014FA188460055BR  00000        277361-112              000057
100000001501116229100120140111622910012014FA188460069BR  00000        277361-114              000058
100000001901116230100120140111623010012014FA188460072BR  00000        277361-116              000059
100000002701116231100120140111623110012014FA188460086BR  00000        277361-118              000060
100000004101116232100120140111623210012014FA188460090BR  00000        277361-120              000061
100000004601116233100120140111623310012014FA188460109BR  00000        277361-122              000062
100000008501116234100120140111623410012014FA188460112BR  00000        277361-124              000063
100000018801116235100120140111623510012014FA188460126BR  00000        277361-126              000064
100000021001116236100120140111623610012014FA188460130BR  00000        277361-128              000065
100000041201116237100120140111623710012014FA188460143BR  00000        277361-130              000066
100000044301116238100120140111623810012014FA188460157BR  00000        277361-132              000067
100000014201116239100120140111623910012014FA188460165BR  00000        277361-134              000068
100000021801116240100120140111624010012014FA188460174BR  00000        277361-136              000069
100000036201116241100120140111624110012014FA188460188BR  00000        277361-138              000070
100000017901116242100120140111624210012014FA188460191BR  00000        277361-140              000071
100000040401116243100120140111624310012014FA188460205BR  00000        277361-142              000072
100000005601116244100120140111624410012014FA188460214BR  00000        277361-144              000073
100000027601116245100120140111624510012014FA188460228BR  00000        277361-146              000074
100000037201116246100120140111624610012014FA188460231BR  00000        277361-148              000075
100000018101116247100120140111624710012014FA188460245BR  00000        277361-150              000076
100000029401116248100120140111624810012014FA188460259BR  00000        277361-152              000077
100000043701116249100120140111624910012014FA188460262BR  00000        277361-156              000078
100000000101116250100120140111625010012014FA188460276BR  00000        277361-158              000079
100000007601116251100120140111625110012014FA188460280BR  00000        277361-160              000080
100000020101116252100120140111625210012014FA188460293BR  00000        277361-162              000081
100000006201116253100120140111625310012014FA188460302BR  00000        277361-164              000082
100000028901116254100120140111625410012014FA188460316BR  00000        277370-1                000083
9000082                                                                                       000084
