0RETORNONOTIFICACAO ELETRONICA        09122013REGI                                            000001
100000010701093743091220130109374309122013FA188247300BR  00000        272729-1                000002
100000022101093744091220130109374409122013FA188247313BR  00000        272729-3                000003
100000022501093745091220130109374509122013FA188247327BR  00000        272729-5                000004
100000022901093746091220130109374609122013FA188247335BR  00000        272729-7                000005
100000025501093747091220130109374709122013FA188247344BR  00000        272729-9                000006
100000002401093748091220130109374809122013FA188247358BR  00000        272729-11               000007
100000015401093749091220130109374909122013FA188247361BR  00000        272729-13               000008
100000004301093750091220130109375009122013FA188247375BR  00000        272729-15               000009
100000013701093751091220130109375109122013FA188247389BR  00000        272729-17               000010
100000027601093752091220130109375209122013FA188247392BR  00000        272729-19               000011
100000001601093753091220130109375309122013FA188247401BR  00000        272729-21               000012
100000019701093754091220130109375409122013FA188247415BR  00000        272729-23               000013
100000019901093755091220130109375509122013FA188247429BR  00000        272729-25               000014
100000010101093756091220130109375609122013FA188247432BR  00000        272729-27               000015
100000010201093757091220130109375709122013FA188247446BR  00000        272729-29               000016
100000013901093758091220130109375809122013FA188247450BR  00000        272729-31               000017
100000020601093759091220130109375909122013FA188247463BR  00000        272729-33               000018
100000022001093760091220130109376009122013FA188247477BR  00000        272729-35               000019
100000022301093761091220130109376109122013FA188247485BR  00000        272729-37               000020
100000023901093762091220130109376209122013FA188247494BR  00000        272729-39               000021
100000025701093763091220130109376309122013FA188247503BR  00000        272729-41               000022
100000011101093764091220130109376409122013FA188247517BR  00000        272729-43               000023
100000017101093765091220130109376509122013FA188247525BR  00000        272729-45               000024
100000007601093766091220130109376609122013FA188247534BR  00000        272729-47               000025
100000011801093767091220130109376709122013FA188247548BR  00000        272729-49               000026
100000017501093768091220130109376809122013FA188247551BR  00000        272729-51               000027
100000028001093769091220130109376909122013FA188247565BR  00000        272729-53               000028
100000036701093770091220130109377009122013FA188247579BR  00000        272729-55               000029
100000049901093771091220130109377109122013FA188247582BR  00000        272729-57               000030
100000018601093772091220130109377209122013FA188247596BR  00000        272729-59               000031
100000022201093773091220130109377309122013FA188247605BR  00000        272729-61               000032
100000007201093774091220130109377409122013FA188247619BR  00000        272729-63               000033
100000012601093775091220130109377509122013FA188247622BR  00000        272729-65               000034
100000034301093776091220130109377609122013FA188247636BR  00000        272729-67               000035
100000043401093777091220130109377709122013FA188247640BR  00000        272729-69               000036
100000004601093778091220130109377809122013FA188247653BR  00000        272729-71               000037
100000000201093779091220130109377909122013FA188247667BR  00000        272729-73               000038
100000000801093780091220130109378009122013FA188247675BR  00000        272729-75               000039
100000001601093781091220130109378109122013FA188247684BR  00000        272729-77               000040
100000008201093782091220130109378209122013FA188247698BR  00000        272729-79               000041
100000007501093783091220130109378309122013FA188247707BR  00000        272729-81               000042
100000011101093784091220130109378409122013FA188247715BR  00000        272729-83               000043
100000016601093785091220130109378509122013FA188247724BR  00000        272729-85               000044
100000003801093786091220130109378609122013FA188247738BR  00000        272729-87               000045
100000018801093787091220130109378709122013FA188247741BR  00000        272729-89               000046
100000035901093788091220130109378809122013FA188247755BR  00000        272729-91               000047
100000040901093789091220130109378909122013FA188247769BR  00000        272729-93               000048
100000002901093790091220130109379009122013FA188247772BR  00000        272729-95               000049
100000004401093791091220130109379109122013FA188247786BR  00000        272729-97               000050
100000009901093792091220130109379209122013FA188247790BR  00000        272729-99               000051
100000035401093793091220130109379309122013FA188247809BR  00000        272729-101              000052
100000043201093794091220130109379409122013FA188247812BR  00000        272729-103              000053
100000008701093795091220130109379509122013FA188247826BR  00000        272729-105              000054
100000014601093796091220130109379609122013FA188247830BR  00000        272729-107              000055
100000001001093797091220130109379709122013FA188247843BR  00000        272729-109              000056
100000000101093798091220130109379809122013FA188247857BR  00000        272729-111              000057
100000003201093799091220130109379909122013FA188247865BR  00000        272729-113              000058
100000022401093800091220130109380009122013FA188247874BR  00000        272729-115              000059
100000012301093801091220130109380109122013FA188247888BR  00000        272729-117              000060
100000015101093802091220130109380209122013FA188247891BR  00000        272729-120              000061
100000026301093803091220130109380309122013FA188247905BR  00000        272729-122              000062
100000037601093804091220130109380409122013FA188247914BR  00000        272729-124              000063
100000046601093805091220130109380509122013FA188247928BR  00000        272729-126              000064
100000008801093806091220130109380609122013FA188247931BR  00000        272729-130              000065
100000020201093807091220130109380709122013FA188247945BR  00000        272729-132              000066
100000028701093808091220130109380809122013FA188247959BR  00000        272729-134              000067
100000007201093809091220130109380909122013FA188247962BR  00000        272729-136              000068
100000010401093810091220130109381009122013FA188247976BR  00000        272729-138              000069
100000022901093811091220130109381109122013FA188247980BR  00000        272729-140              000070
100000027501093812091220130109381209122013FA188247993BR  00000        272729-142              000071
100000004301093813091220130109381309122013FA188248000BR  00000        272729-144              000072
100000006301093814091220130109381409122013FA188248013BR  00000        272729-146              000073
100000025301093815091220130109381509122013FA188248027BR  00000        272729-148              000074
100000011101093816091220130109381609122013FA188248035BR  00000        272729-150              000075
100000021601093817091220130109381709122013FA188248044BR  00000        272729-152              000076
100000026601093818091220130109381809122013FA188248058BR  00000        272729-154              000077
100000036901093819091220130109381909122013FA188248061BR  00000        272729-156              000078
100000049701093820091220130109382009122013FA188248075BR  00000        272729-158              000079
100000000201093821091220130109382109122013FA188248089BR  00000        272729-160              000080
100000004101093822091220130109382209122013FA188248092BR  00000        272729-162              000081
100000046801093823091220130109382309122013FA188248101BR  00000        272729-164              000082
100000015601093824091220130109382409122013FA188248115BR  00000        272729-166              000083
100000018901093825091220130109382509122013FA188248129BR  00000        272729-168              000084
100000019301093826091220130109382609122013FA188248132BR  00000        272729-170              000085
100000001001093827091220130109382709122013FA188248146BR  00000        272729-172              000086
100000033701093828091220130109382809122013FA188248150BR  00000        272729-174              000087
100000020301093829091220130109382909122013FA188248163BR  00000        272729-176              000088
100000048901094370091220130109437009122013FA188250992BR  00000        272831-1                000089
9000088                                                                                       000090
