0RETORNONOTIFICACAO ELETRONICA        03102012REGI                                            000001
100000002900838735031020120083873503102012FA012501477BR  00000        197163-5                000002
100000001500838736031020120083873603102012FA012501485BR  00000        197163-11               000003
100000001600838737031020120083873703102012FA012501494BR  00000        197163-16               000004
100000001900838738031020120083873803102012FA012501503BR  00000        197163-21               000005
100000002000838739031020120083873903102012FA012501517BR  00000        197163-26               000006
100000001900838740031020120083874003102012FA012501525BR  00000        197163-31               000007
9000006                                                                                       000008
