0RETORNONOTIFICACAO ELETRONICA        18112013REGI                                            000001
100000019401078631181120130107863118112013FA188103813BR  00000        268247-5                000002
100000002701078632181120130107863218112013FA188103827BR  00000        268247-7                000003
100000007301078633181120130107863318112013FA188103835BR  00000        268247-52               000004
100000024501078634181120130107863418112013FA188103844BR  00000        268247-78               000005
9000004                                                                                       000006
