0RETORNONOTIFICACAO ELETRONICA        12062012REGI                                            000001
100000001100777710120620120077771012062012FR971605574BR  00000        178509-1                000002
100000021000777918120620120077791812062012FR971607972BR  00000        178622-1                000003
100000017100777919120620120077791912062012FR971607986BR  00000        178622-3                000004
100000001900777920120620120077792012062012FR971607990BR  00000        178622-5                000005
100000046700777921120620120077792112062012FR971608006BR  00000        178622-7                000006
100000048000777922120620120077792212062012FR971608010BR  00000        178622-9                000007
100000021800777923120620120077792312062012FR971608023BR  00000        178622-11               000008
100000049200777924120620120077792412062012FR971608037BR  00000        178622-13               000009
100000001900777925120620120077792512062012FR971608045BR  00000        178622-15               000010
100000006100777926120620120077792612062012FR971608054BR  00000        178622-17               000011
100000024400777927120620120077792712062012FR971608068BR  00000        178622-19               000012
100000019400777928120620120077792812062012FR971608071BR  00000        178622-21               000013
100000040700777929120620120077792912062012FR971608085BR  00000        178622-23               000014
100000040800777930120620120077793012062012FR971608099BR  00000        178622-25               000015
100000010700777931120620120077793112062012FR971608108BR  00000        178623-1                000016
100000025300777932120620120077793212062012FR971608111BR  00000        178623-3                000017
100000007200777933120620120077793312062012FR971608125BR  00000        178623-5                000018
100000015600777934120620120077793412062012FR971608139BR  00000        178623-7                000019
100000025500777935120620120077793512062012FR971608142BR  00000        178623-9                000020
100000002900777936120620120077793612062012FR971608156BR  00000        178623-11               000021
100000015400777937120620120077793712062012FR971608160BR  00000        178623-13               000022
100000020300777938120620120077793812062012FR971608173BR  00000        178623-15               000023
100000028900777939120620120077793912062012FR971608187BR  00000        178623-17               000024
100000001400777940120620120077794012062012FR971608195BR  00000        178623-19               000025
100000019600777941120620120077794112062012FR971608200BR  00000        178623-21               000026
100000021500777942120620120077794212062012FR971608213BR  00000        178623-23               000027
100000003200777943120620120077794312062012FR971608227BR  00000        178623-25               000028
100000019000777944120620120077794412062012FR971608235BR  00000        178623-27               000029
100000001900777945120620120077794512062012FR971608244BR  00000        178624-1                000030
100000006300777946120620120077794612062012FR971608258BR  00000        178624-3                000031
100000001000777947120620120077794712062012FR971608261BR  00000        178627-3                000032
100000002500777948120620120077794812062012FR971608275BR  00000        178627-5                000033
100000006700777949120620120077794912062012FR971608289BR  00000        178627-7                000034
100000011500777950120620120077795012062012FR971608292BR  00000        178627-9                000035
100000020100777951120620120077795112062012FR971608301BR  00000        178627-11               000036
100000025600777952120620120077795212062012FR971608315BR  00000        178627-13               000037
100000010600777953120620120077795312062012FR971608329BR  00000        178627-15               000038
100000009300777954120620120077795412062012FR971608332BR  00000        178627-17               000039
100000013400777955120620120077795512062012FR971608346BR  00000        178627-19               000040
100000020200777956120620120077795612062012FR971608350BR  00000        178627-21               000041
100000017300777957120620120077795712062012FR971608363BR  00000        178627-23               000042
100000021900777958120620120077795812062012FR971608377BR  00000        178627-26               000043
100000027900777959120620120077795912062012FR971608385BR  00000        178627-28               000044
100000031500777960120620120077796012062012FR971608394BR  00000        178627-30               000045
100000032200777961120620120077796112062012FR971608403BR  00000        178627-32               000046
100000000800777962120620120077796212062012FR971608417BR  00000        178627-37               000047
100000012000777963120620120077796312062012FR971608425BR  00000        178627-39               000048
100000016000777964120620120077796412062012FR971608434BR  00000        178627-41               000049
100000003800777965120620120077796512062012FR971608448BR  00000        178627-43               000050
100000007600777966120620120077796612062012FR971608451BR  00000        178627-45               000051
100000011800777967120620120077796712062012FR971608465BR  00000        178627-47               000052
100000017500777968120620120077796812062012FR971608479BR  00000        178627-49               000053
100000018100777969120620120077796912062012FR971608482BR  00000        178627-51               000054
100000026100777970120620120077797012062012FR971608496BR  00000        178627-53               000055
100000026700777971120620120077797112062012FR971608505BR  00000        178627-55               000056
100000028500777972120620120077797212062012FR971608519BR  00000        178627-57               000057
100000029500777973120620120077797312062012FR971608522BR  00000        178627-59               000058
100000032400777974120620120077797412062012FR971608536BR  00000        178627-61               000059
100000033200777975120620120077797512062012FR971608540BR  00000        178627-63               000060
100000036700777976120620120077797612062012FR971608553BR  00000        178627-65               000061
100000037400777977120620120077797712062012FR971608567BR  00000        178627-67               000062
100000040900777978120620120077797812062012FR971608575BR  00000        178627-69               000063
100000047800777979120620120077797912062012FR971608584BR  00000        178627-71               000064
100000006800777980120620120077798012062012FR971608598BR  00000        178627-73               000065
100000018500777981120620120077798112062012FR971608607BR  00000        178627-75               000066
100000024300777982120620120077798212062012FR971608615BR  00000        178627-77               000067
100000027300777983120620120077798312062012FR971608624BR  00000        178627-79               000068
100000049000777984120620120077798412062012FR971608638BR  00000        178627-81               000069
100000014000777985120620120077798512062012FR971608641BR  00000        178627-83               000070
100000036700777986120620120077798612062012FR971608655BR  00000        178627-85               000071
100000039600777987120620120077798712062012FR971608669BR  00000        178627-87               000072
100000047400777988120620120077798812062012FR971608672BR  00000        178627-89               000073
100000001700777989120620120077798912062012FR971608686BR  00000        178627-91               000074
100000000300777990120620120077799012062012FR971608690BR  00000        178627-93               000075
100000000200777991120620120077799112062012FR971608709BR  00000        178627-95               000076
100000000300777992120620120077799212062012FR971608712BR  00000        178627-97               000077
100000008900777993120620120077799312062012FR971608726BR  00000        178627-99               000078
100000009000777994120620120077799412062012FR971608730BR  00000        178627-101              000079
100000009100777995120620120077799512062012FR971608743BR  00000        178627-103              000080
100000002200777996120620120077799612062012FR971608757BR  00000        178627-105              000081
100000003000777997120620120077799712062012FR971608765BR  00000        178627-107              000082
100000006500777998120620120077799812062012FR971608774BR  00000        178627-109              000083
100000010400777999120620120077799912062012FR971608788BR  00000        178627-111              000084
100000002900778033120620120077803312062012FR971608791BR  00000        178627-1                000085
100000047600778034120620120077803412062012FR971608805BR  00000        178627-35               000086
9000085                                                                                       000087
