0RETORNONOTIFICACAO ELETRONICA        05092014OCOR                                            000001
100004882701303874190820140130387419082014FA283434895BR  0000005092014316749-1    000000001950000002
100004885001304987210820140130498721082014FA283442945BR  0000005092014317372-4    000000001950000003
100004892301311243290820140131124329082014FA294429865BR  0000005092014318601-2    000000001950000004
100004892501311245290820140131124529082014FA294429882BR  0000005092014318601-4    000000001950000005
100004897301315440030920140131544003092014FA294460817BR  0000005092014319696-5    000000001789000006
9000005                                                                                       000007
