0RETORNONOTIFICACAO ELETRONICA        09102013OCOR                                            000001
100004445101046174021020130104617402102013FA159440583BR  0000009102013260638-2    000000001950000002
100004444601046178021020130104617802102013FA159440623BR  0000009102013260638-6    000000001950000003
100004446601048747031020130104874703102013FA159465378BR  0000009102013260924-2    000000001950000004
9000003                                                                                       000005
