0RETORNONOTIFICACAO ELETRONICA        07022014OCOR                                            000001
100004619001128960300120140112896030012014FA245761909BR  0000007022014281903-1    000000001950000002
100004623301130409310120140113040931012014FA245775925BR  0000007022014282142-23   000000001950000003
100004612601132418040220140113241804022014FA245794822BR  0000007022014282557-5    000000001950000004
100004619801132434040220140113243404022014FA245794986BR  0000007022014282557-21   000000001950000005
100004623801132439040220140113243904022014FA245795037BR  0000007022014282557-26   000000001950000006
100004625501132441040220140113244104022014FA245795054BR  0000107022014282810-1    000000001950000007
100004625601132442040220140113244204022014FA245795068BR  0000007022014282810-2    000000001950000008
9000007                                                                                       000009
