0RETORNONOTIFICACAO ELETRONICA        11042013OCOR                                            000001
100004087900926673010420130092667301042013FA104896926BR  0000011042013228821-1    000000001950000002
100004086100926708010420130092670801042013FA104897277BR  0000011042013229000-1    000000001950000003
100004095600926716010420130092671601042013FA104897351BR  0000011042013229000-11   000000001950000004
100004084400926723010420130092672301042013FA104897422BR  0000011042013229000-18   000000001950000005
100004110600934354080420130093435408042013FA104956426BR  0000011042013229984-16   000000001950000006
9000005                                                                                       000007
