0RETORNONOTIFICACAO ELETRONICA        10092012OCOR                                            000001
100003725400819454280820120081945428082012FA012316081BR  0000010092012190573-5    000000001950000002
100003720800819465280820120081946528082012FA012316197BR  0000010092012190576-1    000000001950000003
100003728000819472280820120081947228082012FA012316268BR  0000010092012190576-14   000000001950000004
100003730000819475280820120081947528082012FA012316299BR  0000010092012190601-1    000000001950000005
100003733300819484280820120081948428082012FA012316387BR  0000010092012190601-16   000000001950000006
100003733500819486280820120081948628082012FA012316400BR  0000010092012190601-18   000000001950000007
100003733900819490280820120081949028082012FA012316444BR  0000010092012190601-23   000000001950000008
100003734000819491280820120081949128082012FA012316458BR  0000010092012190601-25   000000001950000009
100003734100819492280820120081949228082012FA012316461BR  0000010092012190601-26   000000001950000010
100003734400819495280820120081949528082012FA012316492BR  0000010092012190601-35   000000001950000011
100003734500819496280820120081949628082012FA012316501BR  0000010092012190601-39   000000001950000012
100003734700819498280820120081949828082012FA012316529BR  0000010092012190601-46   000000001950000013
100003735600819507280820120081950728082012FA012316617BR  0000010092012190601-83   000000001950000014
100003735900819510280820120081951028082012FA012316648BR  0000010092012190601-94   000000001950000015
100003736000819511280820120081951128082012FA012316651BR  0000010092012190601-100  000000001950000016
100003736100819512280820120081951228082012FA012316665BR  0000010092012190601-103  000000001950000017
100003736300819514280820120081951428082012FA012316682BR  0000010092012190601-115  000000001950000018
100003736900819520280820120081952028082012FA012316740BR  0000010092012190601-168  000000001950000019
100003737000819521280820120081952128082012FA012316753BR  0000010092012190601-181  000000001950000020
100003737600819527280820120081952728082012FA012316815BR  0000710092012190601-284  000000001950000021
100003738300819534280820120081953428082012FA012316886BR  0000010092012190601-457  000000001950000022
100003738400819535280820120081953528082012FA012316890BR  0000010092012190601-514  000000001950000023
100003738300819830280820120081983028082012FA012319834BR  0000010092012190601-486  000000001950000024
100003738400819831280820120081983128082012FA012319848BR  0000010092012190601-540  000000001950000025
100003738400819832280820120081983228082012FA012319851BR  0000010092012190601-565  000000001950000026
100003733000821837310820120082183731082012FA012339635BR  0000010092012191321-1    000000001950000027
100003738800821838310820120082183831082012FA012339649BR  0000010092012191321-2    000000001950000028
100003740000821839310820120082183931082012FA012339652BR  0000010092012191321-3    000000001950000029
100003740100821840310820120082184031082012FA012339666BR  0000010092012191321-4    000000001950000030
100003740200821841310820120082184131082012FA012339670BR  0000010092012191321-5    000000001950000031
100003740300821842310820120082184231082012FA012339683BR  0000010092012191321-6    000000001950000032
100003740400821843310820120082184331082012FA012339697BR  0000010092012191321-7    000000001950000033
100003740500821844310820120082184431082012FA012339706BR  0000010092012191321-10   000000001950000034
100003740600821845310820120082184531082012FA012339710BR  0000010092012191321-13   000000001950000035
100003740700821846310820120082184631082012FA012339723BR  0000010092012191321-16   000000001950000036
100003740800821847310820120082184731082012FA012339737BR  0000010092012191321-19   000000001950000037
100003740900821848310820120082184831082012FA012339745BR  0000010092012191321-20   000000001950000038
100003741200821851310820120082185131082012FA012339771BR  0000010092012191321-32   000000001950000039
100003741300821852310820120082185231082012FA012339785BR  0000010092012191321-39   000000001950000040
100003741400821853310820120082185331082012FA012339799BR  0000010092012191321-50   000000001950000041
100003741500821854310820120082185431082012FA012339808BR  0000010092012191332-1    000000001950000042
100003741600821855310820120082185531082012FA012339811BR  0000010092012191332-2    000000001950000043
100003741700821856310820120082185631082012FA012339825BR  0000010092012191332-3    000000001950000044
100003741800821857310820120082185731082012FA012339839BR  0000010092012191332-4    000000001950000045
100003741900821858310820120082185831082012FA012339842BR  0000010092012191332-5    000000001950000046
100003742100821860310820120082186031082012FA012339860BR  0000010092012191332-7    000000001950000047
100003742200821861310820120082186131082012FA012339873BR  0000010092012191332-8    000000001950000048
100003742900821863310820120082186331082012FA012339895BR  0000010092012191361-2    000000001950000049
100003743800821864310820120082186431082012FA012339900BR  0000010092012191361-3    000000001950000050
100003743900821865310820120082186531082012FA012339913BR  0000010092012191361-9    000000001950000051
100003744000821866310820120082186631082012FA012339927BR  0000010092012191361-10   000000001950000052
100003744100821867310820120082186731082012FA012339935BR  0000010092012191361-12   000000001950000053
100003744200821868310820120082186831082012FA012339944BR  0000010092012191361-13   000000001950000054
100003744300821869310820120082186931082012FA012339958BR  0000010092012191361-21   000000001950000055
100003747000821871310820120082187131082012FA012339975BR  0001210092012191361-31   000000001950000056
100003747200821872310820120082187231082012FA012339989BR  0000010092012191361-44   000000001950000057
100003747300821873310820120082187331082012FA012339992BR  0000010092012191361-61   000000001950000058
100003747400821874310820120082187431082012FA012340001BR  0000010092012191361-73   000000001950000059
100003747500821875310820120082187531082012FA012340015BR  0000010092012191361-89   000000001950000060
100003747700821877310820120082187731082012FA012340032BR  0000010092012191361-124  000000001950000061
100003748000821879310820120082187931082012FA012340050BR  0000010092012191361-170  000000001950000062
100003748100822003030920120082200303092012FA012341245BR  0000010092012191652-1    000000001950000063
100003748300822005030920120082200503092012FA012341262BR  0000010092012191652-3    000000001950000064
100003750500822013030920120082201303092012FA012341347BR  0000010092012191652-22   000000001950000065
100003750600822014030920120082201403092012FA012341355BR  0000010092012191655-1    000000001950000066
100003750700822015030920120082201503092012FA012341364BR  0000010092012191655-14   000000001950000067
100003754200822017030920120082201703092012FA012341381BR  0000010092012191655-17   000000001950000068
100003754300822018030920120082201803092012FA012341395BR  0000010092012191655-24   000000001950000069
100003754400822019030920120082201903092012FA012341404BR  0000010092012191655-35   000000001950000070
100003751500822022030920120082202203092012FA012341435BR  0000010092012191656-3    000000001950000071
100003754500822023030920120082202303092012FA012341449BR  0000010092012191656-4    000000001950000072
100003754600822024030920120082202403092012FA012341452BR  0000010092012191656-5    000000001950000073
100003757200822031030920120082203103092012FA012341523BR  0000010092012191656-27   000000001950000074
100003757300822032030920120082203203092012FA012341537BR  0000010092012191656-31   000000001950000075
100003757400822033030920120082203303092012FA012341545BR  0000010092012191656-33   000000001950000076
100003757500824974040920120082497404092012FA012370621BR  0000010092012191793-3    000000001950000077
100003757600824975040920120082497504092012FA012370635BR  0000010092012191793-4    000000001950000078
9000077                                                                                       000079
