0RETORNONOTIFICACAO ELETRONICA        12052014OCOR                                            000001
100004718901203865240420140120386524042014FA271025964BR  0000012052014296803-6    000000001950000002
100004724001206600280420140120660028042014FA271048925BR  0000012052014297531-1    000000001950000003
100004736301209429300420140120942930042014FA271070901BR  0000012052014297972-14   000000001950000004
100004737001209436300420140120943630042014FA271070977BR  0000012052014297972-44   000000001950000005
100004737101209437300420140120943730042014FA271070985BR  0000012052014297972-45   000000001950000006
100004714301217906070520140121790607052014FA271144873BR  0000012052014298677-2    000000001950000007
100004728701217913070520140121791307052014FA271144944BR  0000012052014298677-9    000000001950000008
9000007                                                                                       000009
