0RETORNONOTIFICACAO ELETRONICA        08082014OCOR                                            000001
100004851001279750220720140127975022072014FA283264652BR  0000008082014311818-1    000000001950000002
100004851101279751220720140127975122072014FA283264666BR  0000008082014311818-2    000000001950000003
100004858201286222290720140128622229072014FA283311437BR  0000008082014312476-5    000000001950000004
100004865101289806040820140128980604082014FA283336442BR  0000008082014313860-5    000000001950000005
100004866901289814040820140128981404082014FA283336527BR  0000008082014314065-13   000000001950000006
9000005                                                                                       000007
