0RETORNONOTIFICACAO ELETRONICA        11042012OCOR                                            000001
100003418900728601080320120072860108032012RQ205576206BR  0001211042012165821-5    000000002000000002
100003458100743885020420120074388502042012FR851860031BR  0000011042012169112-3    000000002000000003
100003458200743886020420120074388602042012FR851860045BR  0000011042012169112-4    000000002000000004
9000003                                                                                       000005
