0RETORNONOTIFICACAO ELETRONICA        02012012OCOR                                            000001
100003247000687235121220110068723512122011RQ046296077BR  0000102012012155078-6    000000002000000002
100003204000694299281220110069429928122011RQ046362862BR  0000002012012156768-2    000000002000000003
100003204300694301281220110069430128122011RQ046362880BR  0000002012012156768-4    000000002000000004
100003204500694303281220110069430328122011RQ046362902BR  0000002012012156768-6    000000002000000005
100003270900694347281220110069434728122011RQ046363151BR  0000002012012156773-32   000000002000000006
100003273300694349281220110069434928122011RQ046363165BR  0000002012012156776-1    000000002000000007
9000006                                                                                       000008
