0RETORNONOTIFICACAO ELETRONICA        08032013OCOR                                            000001
100004052200909537260220130090953726022013FA104732825BR  0000008032013223538-1    000000001950000002
100004056300910860280220130091086028022013FA104745311BR  0000008032013224040-29   000000001950000003
100004058500910862280220130091086228022013FA104745339BR  0000008032013224040-31   000000001950000004
100004056100910864280220130091086428022013FA104745356BR  0000008032013224040-33   000000001950000005
100004059700913072040320130091307204032013FA104766529BR  0000008032013224444-1    000000001950000006
100004059600913075040320130091307504032013FA104766550BR  0000008032013224444-4    000000001950000007
9000006                                                                                       000008
