0RETORNONOTIFICACAO ELETRONICA        11112014OCOR                                            000001
100004997401362363311020140136236331102014FA294808426BR  0000011112014330269-1    000000001789000002
100004998901362368311020140136236831102014FA294808474BR  0000711112014330617-1    000000001789000003
100004999701369637041120140136963704112014FA294862869BR  0000011112014331065-1    000000001789000004
100005002201372233061120140137223306112014FA294881620BR  0000011112014331523-1    000000001789000005
100005002501372236061120140137223606112014FA294881655BR  0000011112014331523-5    000000001789000006
9000005                                                                                       000007
