0RETORNONOTIFICACAO ELETRONICA        08112012OCOR                                            000001
100003839400851270311020120085127031102012FA012621259BR  0000008112012201971-19   000000001950000002
100003841100851277311020120085127731102012FA012621320BR  0000008112012201980-5    000000001950000003
100003841200851278311020120085127831102012FA012621333BR  0000008112012201980-8    000000001950000004
100003841300851279311020120085127931102012FA012621347BR  0000008112012201980-9    000000001950000005
100003841500851281311020120085128131102012FA012621364BR  0000008112012201980-11   000000001950000006
100003841700851283311020120085128331102012FA012621381BR  0000008112012201980-13   000000001950000007
100003835500851359311020120085135931102012FA012622149BR  0000008112012202192-3    000000001950000008
100003844700851365311020120085136531102012FA012622206BR  0000008112012202192-9    000000001950000009
100003845000851367311020120085136731102012FA012622223BR  0000008112012202192-12   000000001950000010
100003848300851383311020120085138331102012FA012622387BR  0000008112012202194-11   000000001950000011
100003849000851385311020120085138531102012FA012622400BR  0000008112012202194-13   000000001950000012
100003849600851389311020120085138931102012FA012622444BR  0000008112012202229-3    000000001950000013
100003851000851394311020120085139431102012FA012622492BR  0000008112012202282-1    000000001950000014
100003851100851395311020120085139531102012FA012622501BR  0000008112012202282-2    000000001950000015
100003851200851396311020120085139631102012FA012622515BR  0000008112012202282-3    000000001950000016
100003853900851405311020120085140531102012FA012622603BR  0000008112012202291-2    000000001950000017
9000016                                                                                       000018
