0RETORNONOTIFICACAO ELETRONICA        07082012OCOR                                            000001
100003615300788042020720120078804202072012FR971707984BR  0002307082012181509-39   000000001950000002
100003655800799993300720120079999330072012FR971826791BR  0000007082012185350-19   000000001950000003
100003656900800004300720120080000430072012FR971826902BR  0000007082012185350-50   000000001950000004
100003664100801911310720120080191131072012FR971845915BR  0000807082012185787-5    000000001950000005
100003665900801917310720120080191731072012FR971845977BR  0001207082012185787-13   000000001950000006
100003666500801923310720120080192331072012FR971846031BR  0000107082012185787-19   000000001950000007
9000006                                                                                       000008
