0RETORNONOTIFICACAO ELETRONICA        04032015OCOR                                            000001
100005065901440821190220150144082119022015FA318681109BR  0000404032015346876-1    000000001789000002
100005067101441739260220150144173926022015FA318687662BR  0000004032015347750-1    000000001789000003
100005068901441750260220150144175026022015FA318687778BR  0000004032015348237-35   000000001789000004
100005069101441752260220150144175226022015FA318687795BR  0000004032015348237-83   000000001789000005
9000004                                                                                       000006
