0RETORNONOTIFICACAO ELETRONICA        12112013OCOR                                            000001
100004499301066294311020130106629431102013FA159631910BR  0000012112013266428-6    000000001950000002
100004501101069507011120130106950701112013FA188016575BR  0000012112013266711-1    000000001950000003
100004501201069508011120130106950801112013FA188016589BR  0000012112013266711-2    000000001950000004
100004503701072614051120130107261405112013FA188047113BR  0000012112013266972-1    000000001950000005
100004503601072619051120130107261905112013FA188047161BR  0000012112013266972-6    000000001950000006
100004505901072949051120130107294905112013FA188050381BR  0000012112013267235-5    000000001950000007
100004506001072954051120130107295405112013FA188050435BR  0000012112013267235-22   000000001950000008
9000007                                                                                       000009
