0RETORNONOTIFICACAO ELETRONICA        04022013OCOR                                            000001
100003968800895087290120130089508729012013FA063240064BR  0000004022013218284-1    000000001950000002
100003967100895088290120130089508829012013FA063240078BR  0000004022013218284-2    000000001950000003
100003967000895089290120130089508929012013FA063240081BR  0000004022013218284-4    000000001950000004
100003967200895090290120130089509029012013FA063240095BR  0000004022013218284-5    000000001950000005
100003969200895091290120130089509129012013FA063240104BR  0000004022013218286-1    000000001950000006
100003969100895093290120130089509329012013FA063240121BR  0000004022013218286-3    000000001950000007
100003969000895096290120130089509629012013FA063240152BR  0000004022013218286-7    000000001950000008
100003971100895097290120130089509729012013FA063240166BR  0000004022013218288-1    000000001950000009
100003972800895098290120130089509829012013FA063240170BR  0000004022013218290-1    000000001950000010
100003972700895100290120130089510029012013FA063240197BR  0000004022013218290-3    000000001950000011
100003972900895101290120130089510129012013FA063240206BR  0000004022013218290-5    000000001950000012
100003974000895104290120130089510429012013FA063240237BR  0000004022013218293-3    000000001950000013
100003974300895105290120130089510529012013FA063240245BR  0000004022013218293-4    000000001950000014
100003973200895107290120130089510729012013FA063240268BR  0000004022013218293-6    000000001950000015
100003974400895111290120130089511129012013FA063240308BR  0000004022013218293-10   000000001950000016
100003974500895112290120130089511229012013FA063240311BR  0000004022013218293-11   000000001950000017
100003977600895119290120130089511929012013FA063240387BR  0000004022013218297-3    000000001950000018
100003977800895120290120130089512029012013FA063240395BR  0000004022013218297-4    000000001950000019
100003977700895121290120130089512129012013FA063240400BR  0000004022013218297-5    000000001950000020
100003977500895122290120130089512229012013FA063240413BR  0000004022013218297-7    000000001950000021
100003978200895124290120130089512429012013FA063240435BR  0000004022013218297-9    000000001950000022
100003979200895128290120130089512829012013FA063240475BR  0000004022013218301-4    000000001950000023
100003979300895129290120130089512929012013FA063240489BR  0000004022013218301-5    000000001950000024
100003979400895130290120130089513029012013FA063240492BR  0000004022013218301-6    000000001950000025
100003980800895136290120130089513629012013FA063240550BR  0000004022013218301-12   000000001950000026
100003980900895137290120130089513729012013FA063240563BR  0000004022013218301-13   000000001950000027
100003982100895143290120130089514329012013FA063240625BR  0000004022013218303-6    000000001950000028
100003981700895146290120130089514629012013FA063240651BR  0000004022013218303-9    000000001950000029
100003984100895151290120130089515129012013FA063240705BR  0000004022013218304-5    000000001950000030
100003983800895152290120130089515229012013FA063240719BR  0000004022013218304-7    000000001950000031
100003984400895153290120130089515329012013FA063240722BR  0000004022013218304-11   000000001950000032
100003984200895156290120130089515629012013FA063240753BR  0000004022013218304-14   000000001950000033
100003985500895159290120130089515929012013FA063240784BR  0000004022013218305-1    000000001950000034
100003986000895162290120130089516229012013FA063240815BR  0000004022013218305-4    000000001950000035
100003986100895163290120130089516329012013FA063240824BR  0000004022013218305-5    000000001950000036
100003986400895164290120130089516429012013FA063240838BR  0000004022013218305-6    000000001950000037
100003986200895165290120130089516529012013FA063240841BR  0000004022013218305-7    000000001950000038
100003985800895166290120130089516629012013FA063240855BR  0000004022013218305-8    000000001950000039
100003987100895167290120130089516729012013FA063240869BR  0000004022013218305-9    000000001950000040
100003985600895169290120130089516929012013FA063240886BR  0000004022013218305-11   000000001950000041
9000040                                                                                       000042
