0RETORNONOTIFICACAO ELETRONICA        02052014OCOR                                            000001
100004705401193841100420140119384110042014FA270943483BR  0000002052014294333-2    000000001950000002
100004711001197144140420140119714414042014FA270973675BR  0000002052014295349-19   000000001950000003
100004712401197152140420140119715214042014FA270973750BR  0000002052014295350-5    000000001950000004
100004714401201045170420140120104517042014FA271005465BR  0000002052014296021-1    000000001950000005
100004717201201054170420140120105417042014FA271005559BR  0000002052014296104-2    000000001950000006
100004717701201059170420140120105917042014FA271005602BR  0000002052014296104-9    000000001950000007
100004718801203864240420140120386424042014FA271025955BR  0000002052014296803-5    000000001950000008
9000007                                                                                       000009
