0RETORNONOTIFICACAO ELETRONICA        02102013OCOR                                            000001
100004418901037871230920130103787123092013FA159360267BR  0000002102013258386-2    000000001950000002
100004409801039775240920130103977524092013FA159379229BR  0000002102013258721-6    000000001950000003
100004427201041128260920130104112826092013FA159392429BR  0000802102013259163-44   000000001950000004
9000003                                                                                       000005
