0RETORNONOTIFICACAO ELETRONICA        02042014OCOR                                            000001
100004682901179790270320140117979027032014FA270822834BR  0000002042014292053-3    000000001950000002
100004684201179792270320140117979227032014FA270822851BR  0000002042014292053-5    000000001950000003
100004690301179798270320140117979827032014FA270822919BR  0000002042014292053-11   000000001950000004
100004690401179799270320140117979927032014FA270822922BR  0000002042014292053-12   000000001950000005
100004693101179807270320140117980727032014FA270823004BR  0000002042014292408-1    000000001950000006
9000005                                                                                       000007
