0RETORNONOTIFICACAO ELETRONICA        07042015OCOR                                            000001
100005072401447924010420150144792401042015FA318737868BR  0000007042015349793-14   000000001789000002
100005073001447929010420150144792901042015FA318737911BR  0000007042015349797-5    000000001789000003
100005073101447930010420150144793001042015FA318737925BR  0000007042015349797-7    000000001789000004
100005073201447931010420150144793101042015FA318737939BR  0000007042015349797-8    000000001789000005
100005081901447983010420150144798301042015FA318738452BR  0000007042015353799-2    000000001789000006
9000005                                                                                       000007
