0RETORNONOTIFICACAO ELETRONICA        12042013OCOR                                            000001
100004076200926681010420130092668101042013FA104897008BR  0000012042013228824-4    000000001950000002
100004099300926728010420130092672801042013FA104897475BR  0000012042013229013-3    000000001950000003
100004099100926730010420130092673001042013FA104897498BR  0000012042013229013-5    000000001950000004
100004119300934371080420130093437108042013FA104956593BR  0000012042013230109-48   000000001950000005
100004119000934374080420130093437408042013FA104956620BR  0000012042013230109-81   000000001950000006
100004117900934385080420130093438508042013FA104956735BR  0000012042013230109-130  000000001950000007
100004115400934394080420130093439408042013FA104956823BR  0000012042013230109-153  000000001950000008
9000007                                                                                       000009
