0RETORNONOTIFICACAO ELETRONICA        09042013OCOR                                            000001
100004072300926679010420130092667901042013FA104896988BR  0000009042013228824-1    000000001950000002
100004091000926696010420130092669601042013FA104897158BR  0000009042013228862-39   000000001950000003
100004093600926703010420130092670301042013FA104897229BR  0000009042013228997-1    000000001950000004
100004086400926711010420130092671101042013FA104897303BR  0000009042013229000-4    000000001950000005
100004100400926734010420130092673401042013FA104897538BR  0000009042013229013-10   000000001950000006
9000005                                                                                       000007
