0RETORNONOTIFICACAO ELETRONICA        09032012OCOR                                            000001
100003395500722637270220120072263727022012RQ030523655BR  0000509032012164227-5    000000002000000002
100003406500723975290220120072397529022012RQ030537019BR  0000009032012164707-19   000000002000000003
100003406600723976290220120072397629022012RQ030537022BR  0000009032012164707-20   000000002000000004
100003410600726688060320120072668806032012RQ222989176BR  0000009032012165133-3    000000002000000005
100003418600726868060320120072686806032012RQ222990979BR  0000009032012165545-7    000000002000000006
100003418600726869060320120072686906032012RQ222990982BR  0000009032012165545-27   000000002000000007
9000006                                                                                       000008
