0RETORNONOTIFICACAO ELETRONICA        13082014OCOR                                            000001
100004869101289823040820140128982304082014FA283336615BR  0000013082014314065-46   000000001950000002
100004869201289824040820140128982404082014FA283336629BR  0000013082014314065-48   000000001950000003
100004876201295643080820140129564308082014FA283381438BR  0000113082014314993-11   000000001950000004
9000003                                                                                       000005
