0RETORNONOTIFICACAO ELETRONICA        01102014OCOR                                            000001
100004924601331521230920140133152123092014FA294577475BR  0000001102014323608-55   000000001789000002
100004925701331532230920140133153223092014FA294577585BR  0000401102014323608-66   000000001789000003
100004927301331548230920140133154823092014FA294577740BR  0000001102014323608-82   000000001789000004
100004934301331618230920140133161823092014FA294578440BR  0000001102014323608-152  000000001789000005
100004937701331652230920140133165223092014FA294578780BR  0000701102014323608-186  000000001789000006
100004940701331682230920140133168223092014FA294579082BR  0000001102014323608-216  000000001789000007
100004943301331708230920140133170823092014FA294579343BR  0000001102014323608-242  000000001789000008
100004946901331744230920140133174423092014FA294579706BR  0000001102014323608-282  000000001789000009
100004951101331786230920140133178623092014FA294580125BR  0000001102014323608-331  000000001789000010
100004954501331820230920140133182023092014FA294580465BR  0000001102014323608-366  000000001789000011
100004954901331824230920140133182423092014FA294580505BR  0000001102014323608-371  000000001789000012
100004968001331955230920140133195523092014FA294581815BR  0000401102014323608-515  000000001789000013
100004973201332007230920140133200723092014FA294582339BR  0000401102014323608-579  000000001789000014
9000013                                                                                       000015
