0RETORNONOTIFICACAO ELETRONICA        09092013OCOR                                            000001
100004368301018845230820130101884523082013FA159176835BR  0000009092013253296-1    000000001950000002
100004373401026464020920130102646402092013FA159251372BR  0000009092013254496-10   000000001950000003
100004361401026465020920130102646502092013FA159251386BR  0000009092013254496-11   000000001950000004
100004369401026477020920130102647702092013FA159251505BR  0000009092013254497-6    000000001950000005
100004375301026485020920130102648502092013FA159251580BR  0000009092013254497-14   000000001950000006
100004380101027052030920130102705203092013FA159256556BR  0000009092013254899-1    000000001950000007
9000006                                                                                       000008
