0RETORNONOTIFICACAO ELETRONICA        03072014OCOR                                            000001
100004811201249308160620140124930816062014FA283035632BR  0000003072014305579-48   000000001950000002
100004813501249331160620140124933116062014FA283035867BR  0000003072014305579-78   000000001950000003
100004777401252884230620140125288423062014FA283061907BR  0000003072014306555-6    000000001950000004
100004784001252890230620140125289023062014FA283061969BR  0000003072014306555-12   000000001950000005
100004787801252891230620140125289123062014FA283061972BR  0000003072014306555-13   000000001950000006
100004819301252902230620140125290223062014FA283062085BR  0000003072014306555-24   000000001950000007
100004823001254341250620140125434125062014FA283072365BR  0000003072014306823-5    000000001950000008
100004823801254344250620140125434425062014FA283072391BR  0001203072014306823-8    000000001950000009
100004823901254345250620140125434525062014FA283072405BR  0001203072014306823-9    000000001950000010
100004825101257174260620140125717426062014FA283093745BR  0000003072014307280-1    000000001950000011
100004825701257180260620140125718026062014FA283093808BR  0000003072014307383-1    000000001950000012
9000011                                                                                       000013
