0RETORNONOTIFICACAO ELETRONICA        11042014OCOR                                            000001
100004697401188176040420140118817604042014FA270894337BR  0000011042014293722-1    000000001950000002
100004697601188178040420140118817804042014FA270894354BR  0000011042014293722-3    000000001950000003
100004701801188188040420140118818804042014FA270894456BR  0000011042014293758-2    000000001950000004
9000003                                                                                       000005
