0RETORNONOTIFICACAO ELETRONICA        06102014OCOR                                            000001
100004917401330266220920140133026622092014FA294569125BR  0000006102014323347-3    000000001789000002
100004917801330270220920140133027022092014FA294569160BR  0000006102014323347-7    000000001789000003
100004920601331481230920140133148123092014FA294577078BR  0000006102014323608-15   000000001789000004
100004929901331574230920140133157423092014FA294578008BR  0000006102014323608-108  000000001789000005
100004931101331586230920140133158623092014FA294578127BR  0000406102014323608-120  000000001789000006
100004939501331670230920140133167023092014FA294578966BR  0000006102014323608-204  000000001789000007
100004939601331671230920140133167123092014FA294578970BR  0000006102014323608-205  000000001789000008
100004943101331706230920140133170623092014FA294579326BR  0000006102014323608-240  000000001789000009
100004949301331768230920140133176823092014FA294579944BR  0000006102014323608-310  000000001789000010
100004950101331776230920140133177623092014FA294580029BR  0000006102014323608-320  000000001789000011
100004953001331805230920140133180523092014FA294580315BR  0000006102014323608-350  000000001789000012
100004953101331806230920140133180623092014FA294580324BR  0000006102014323608-351  000000001789000013
100004954301331818230920140133181823092014FA294580443BR  0000006102014323608-364  000000001789000014
100004954401331819230920140133181923092014FA294580457BR  0000006102014323608-365  000000001789000015
100004957701331852230920140133185223092014FA294580783BR  0000006102014323608-400  000000001789000016
100004957801331853230920140133185323092014FA294580797BR  0000006102014323608-401  000000001789000017
100004958301331858230920140133185823092014FA294580845BR  0000006102014323608-407  000000001789000018
100004959701331872230920140133187223092014FA294580987BR  0000006102014323608-422  000000001789000019
100004960501331880230920140133188023092014FA294581069BR  0000006102014323608-432  000000001789000020
100004961401331889230920140133188923092014FA294581157BR  0000006102014323608-443  000000001789000021
100004961701331892230920140133189223092014FA294581188BR  0000006102014323608-447  000000001789000022
100004964701331922230920140133192223092014FA294581483BR  0000006102014323608-480  000000001789000023
100004965901331934230920140133193423092014FA294581608BR  0000006102014323608-493  000000001789000024
100004966001331935230920140133193523092014FA294581611BR  0000006102014323608-494  000000001789000025
100004970301331978230920140133197823092014FA294582047BR  0000006102014323608-542  000000001789000026
100004970701331982230920140133198223092014FA294582081BR  0000006102014323608-546  000000001789000027
100004971201331987230920140133198723092014FA294582135BR  0000006102014323608-551  000000001789000028
100004974301332018230920140133201823092014FA294582444BR  0000006102014323608-592  000000001789000029
100004975201332027230920140133202723092014FA294582532BR  0000006102014323608-602  000000001789000030
100004975401332029230920140133202923092014FA294582550BR  0000006102014323608-605  000000001789000031
100004977001332045230920140133204523092014FA294582719BR  0000006102014323608-694  000000001789000032
100004978601333392250920140133339225092014FA294590967BR  0000006102014324131-2    000000001789000033
100004979401335724290920140133572429092014FA294612526BR  0000006102014324399-1    000000001789000034
100004978401335731290920140133573129092014FA294612591BR  0000006102014324659-3    000000001789000035
100004980401335732290920140133573229092014FA294612605BR  0000006102014324659-4    000000001789000036
100004980601335734290920140133573429092014FA294612628BR  0000006102014324659-6    000000001789000037
9000036                                                                                       000038
