0RETORNONOTIFICACAO ELETRONICA        10102014OCOR                                            000001
100004967901331954230920140133195423092014FA294581801BR  0000010102014323608-514  000000001789000002
100004976801332043230920140133204323092014FA294582696BR  0000010102014323608-673  000000001789000003
100004980501335733290920140133573329092014FA294612614BR  0000010102014324659-5    000000001789000004
100004980801342366031020140134236603102014FA294661875BR  0000010102014325008-1    000000001789000005
100004981101342369031020140134236903102014FA294661907BR  0000110102014325008-5    000000001789000006
9000005                                                                                       000007
