0RETORNONOTIFICACAO ELETRONICA        03122014OCOR                                            000001
100005010601382275181120140138227518112014FA318270001BR  0000003122014333314-7    000000001789000002
100005011001382279181120140138227918112014FA318270046BR  0000003122014333314-15   000000001789000003
100005011501382284181120140138228418112014FA318270094BR  0000003122014333314-39   000000001789000004
100005015001385962241120140138596224112014FA318298486BR  0000003122014334161-1    000000001789000005
100005015701385963241120140138596324112014FA318298490BR  0000003122014334161-2    000000001789000006
100005015801385964241120140138596424112014FA318298509BR  0000003122014334161-4    000000001789000007
100005015901385965241120140138596524112014FA318298512BR  0000003122014334161-8    000000001789000008
100005009201385967241120140138596724112014FA318298530BR  0000003122014334164-1    000000001789000009
100005009301385968241120140138596824112014FA318298543BR  0000003122014334164-2    000000001789000010
100005010201385969241120140138596924112014FA318298557BR  0000003122014334164-3    000000001789000011
100005016301385974241120140138597424112014FA318298605BR  0000003122014334164-9    000000001789000012
100005016501385976241120140138597624112014FA318298628BR  0000003122014334164-11   000000001789000013
100005017201385981241120140138598124112014FA318298676BR  0000003122014334166-2    000000001789000014
100005017501390135271120140139013527112014FA318324668BR  0000203122014334341-3    000000001789000015
100005018001390138271120140139013827112014FA318324699BR  0000203122014334740-3    000000001789000016
9000015                                                                                       000017
