0RETORNONOTIFICACAO ELETRONICA        09122014OCOR                                            000001
100005013801383795191120140138379519112014FA318280729BR  0000409122014333574-2    000000001789000002
100005016001385966241120140138596624112014FA318298526BR  0000009122014334161-9    000000001789000003
100005006601390130271120140139013027112014FA318324610BR  0000009122014332614-1    000000001789000004
100005017301390133271120140139013327112014FA318324645BR  0000009122014334341-1    000000001789000005
100005018701390141271120140139014127112014FA318324725BR  0000409122014334742-3    000000001789000006
100005018801390142271120140139014227112014FA318324739BR  0000009122014334742-4    000000001789000007
100005019801392108011220140139210801122014FA318340250BR  0000009122014335165-1    000000001789000008
100005021201392117011220140139211701122014FA318340348BR  0000009122014335165-25   000000001789000009
100005021301392118011220140139211801122014FA318340351BR  0000009122014335165-27   000000001789000010
100005022301396526031220140139652603122014FA318393008BR  0000109122014335646-1    000000001789000011
100005022801396529031220140139652903122014FA318393031BR  0000009122014335648-3    000000001789000012
9000011                                                                                       000013
