0RETORNONOTIFICACAO ELETRONICA        05032013OCOR                                            000001
100004008500902831140220130090283114022013FA063314306BR  0000705032013220921-8    000000001950000002
100004040400907031220220130090703122022013FA063352905BR  0000005032013222788-1    000000001950000003
100004048100907036220220130090703622022013FA063352953BR  0000005032013222996-2    000000001950000004
100004047200907037220220130090703722022013FA063352967BR  0000005032013222996-3    000000001950000005
100004047300907040220220130090704022022013FA063352998BR  0000005032013222996-15   000000001950000006
100004052000909544260220130090954426022013FA104732896BR  0000005032013223538-8    000000001950000007
9000006                                                                                       000008
