0RETORNONOTIFICACAO ELETRONICA        12032013OCOR                                            000001
100004052100909541260220130090954126022013FA104732865BR  0000012032013223538-5    000000001950000002
100004054800910176270220130091017627022013FA104738925BR  0000012032013223790-6    000000001950000003
100004054700910177270220130091017727022013FA104738939BR  0000012032013223790-9    000000001950000004
100004059200910852280220130091085228022013FA104745237BR  0000012032013224040-2    000000001950000005
100004059800913073040320130091307304032013FA104766532BR  0000012032013224444-2    000000001950000006
9000005                                                                                       000007
