0RETORNONOTIFICACAO ELETRONICA        13032014OCOR                                            000001
100004654201153000280220140115300028022014FA245987536BR  0000013032014287526-2    000000001950000002
100004658301158112060320140115811206032014FA246037824BR  0000013032014288129-1    000000001950000003
100004658501158114060320140115811406032014FA246037841BR  0000013032014288129-5    000000001950000004
9000003                                                                                       000005
