0RETORNONOTIFICACAO ELETRONICA        13062014OCOR                                            000001
100004763001232575280520140123257528052014FA271257019BR  0000013062014302577-7    000000001950000002
100004772501237884030620140123788403062014FA271297741BR  0000013062014303248-4    000000001950000003
100004776401240831050620140124083105062014FA282973023BR  0000013062014303951-9    000000001950000004
100004778201240834050620140124083405062014FA282973054BR  0000013062014303951-13   000000001950000005
9000004                                                                                       000006
