0RETORNONOTIFICACAO ELETRONICA        01112012OCOR                                            000001
100003823400842766181020120084276618102012FA012539441BR  0000001112012199703-7    000000001950000002
100003829900849188261020120084918826102012FA012602334BR  0000001112012201182-5    000000001950000003
100003834600849197261020120084919726102012FA012602422BR  0000001112012201189-3    000000001950000004
100003834800849199261020120084919926102012FA012602440BR  0000001112012201189-5    000000001950000005
100003837200849201261020120084920126102012FA012602467BR  0000001112012201193-1    000000001950000006
9000005                                                                                       000007
