0RETORNONOTIFICACAO ELETRONICA        11112013OCOR                                            000001
100004371901024320280820130102432028082013FA159623992BR  0000011112013253994-1    000000001950000002
100004497001065963311020130106596331102013FA159628601BR  0000011112013266185-1    000000001950000003
100004497301065965311020130106596531102013FA159628629BR  0000011112013266185-3    000000001950000004
100004501001066290311020130106629031102013FA159631870BR  0000011112013266428-2    000000001950000005
100004491601066291311020130106629131102013FA159631883BR  0000011112013266428-3    000000001950000006
100004501401069509011120130106950901112013FA188016592BR  0000011112013266711-6    000000001950000007
100004503501072615051120130107261505112013FA188047127BR  0000011112013266972-2    000000001950000008
100004503301072617051120130107261705112013FA188047144BR  0000011112013266972-4    000000001950000009
100004505801072947051120130107294705112013FA188050364BR  0000011112013267235-3    000000001950000010
100004506401072951051120130107295105112013FA188050404BR  0000011112013267235-7    000000001950000011
9000010                                                                                       000012
