0RETORNONOTIFICACAO ELETRONICA        10072014OCOR                                            000001
100004767901233430290520140123343029052014FA271263782BR  0000010072014302899-1    000000001950000002
100004825301257176260620140125717626062014FA283093768BR  0000410072014307280-3    000000001950000003
100004830101260337010720140126033701072014FA283115415BR  0000010072014308210-1    000000001950000004
100004831401264181030720140126418103072014FA283149997BR  0000010072014308514-4    000000001950000005
100004831501264182030720140126418203072014FA283150006BR  0000010072014308514-5    000000001950000006
9000005                                                                                       000007
