0RETORNONOTIFICACAO ELETRONICA        05122014OCOR                                            000001
100005016101385972241120140138597224112014FA318298588BR  0000005122014334164-6    000000001789000002
100005017101385980241120140138598024112014FA318298662BR  0000005122014334166-1    000000001789000003
100005017901390137271120140139013727112014FA318324685BR  0000005122014334740-2    000000001789000004
100005018501390139271120140139013927112014FA318324702BR  0000005122014334742-1    000000001789000005
100005019901392109011220140139210901122014FA318340263BR  0000205122014335165-2    000000001789000006
100005020101392111011220140139211101122014FA318340285BR  0000005122014335165-4    000000001789000007
100005021501392120011220140139212001122014FA318340379BR  0000005122014335165-31   000000001789000008
100005021601392121011220140139212101122014FA318340382BR  0000005122014335165-34   000000001789000009
9000008                                                                                       000010
