0RETORNONOTIFICACAO ELETRONICA        11072014OCOR                                            000001
100004831301264180030720140126418003072014FA283149983BR  0000011072014308514-3    000000001950000002
100004832801266801070720140126680107072014FA283171099BR  0000011072014308943-2    000000001950000003
100004834601266813070720140126681307072014FA283171213BR  0000011072014308943-17   000000001950000004
100004835101266817070720140126681707072014FA283171258BR  0000111072014308945-3    000000001950000005
100004835301266819070720140126681907072014FA283171275BR  0000011072014308945-5    000000001950000006
100004836501266824070720140126682407072014FA283171329BR  0000011072014309121-3    000000001950000007
9000006                                                                                       000008
