0RETORNONOTIFICACAO ELETRONICA        02012014OCOR                                            000001
100004570001098160201220130109816020122013FA188288984BR  0000002012014274360-1    000000001950000002
100004578501100711261220130110071126122013FA188313794BR  0000002012014274949-24   000000001950000003
100004580601102703271220130110270327122013FA188331648BR  0000002012014275191-4    000000001950000004
100004585201102706271220130110270627122013FA188331679BR  0000002012014275195-1    000000001950000005
9000004                                                                                       000006
