0RETORNONOTIFICACAO ELETRONICA        04042014OCOR                                            000001
100004677701174069180320140117406918032014FA246166695BR  0000004042014290179-8    000000001950000002
100004689601177959250320140117795925032014FA270806964BR  0000004042014291677-15   000000001950000003
100004683101179791270320140117979127032014FA270822848BR  0000004042014292053-4    000000001950000004
100004692201179806270320140117980627032014FA270822998BR  0000004042014292406-8    000000001950000005
100004693201179808270320140117980827032014FA270823018BR  0000004042014292408-3    000000001950000006
9000005                                                                                       000007
