0RETORNONOTIFICACAO ELETRONICA        07062013OCOR                                            000001
100004186900957525150520130095752515052013FA105170450BR  0000007062013236353-23   000000001950000002
100004183300957561150520130095756115052013FA105170812BR  0000807062013236353-140  000000001950000003
100004211800961070220520130096107022052013FA105203325BR  0000007062013237187-2    000000001950000004
100004216300966155290520130096615529052013FA136030466BR  0000007062013238770-1    000000001950000005
100004220600966159290520130096615929052013FA136030506BR  0000007062013238771-2    000000001950000006
100004220200966163290520130096616329052013FA136030545BR  0000007062013238771-12   000000001950000007
100004218000966164290520130096616429052013FA136030554BR  0000007062013238771-13   000000001950000008
100004217800966165290520130096616529052013FA136030568BR  0000007062013238771-14   000000001950000009
100004217900966166290520130096616629052013FA136030571BR  0000007062013238771-15   000000001950000010
100004220700966171290520130096617129052013FA136030625BR  0000007062013238772-2    000000001950000011
100004230000966175290520130096617529052013FA136030660BR  0000007062013238775-2    000000001950000012
100004229900966176290520130096617629052013FA136030673BR  0000007062013238775-5    000000001950000013
100004229700966178290520130096617829052013FA136030695BR  0000007062013238775-9    000000001950000014
100004229400966181290520130096618129052013FA136030727BR  0000007062013238775-13   000000001950000015
100004229300966182290520130096618229052013FA136030735BR  0000007062013238775-15   000000001950000016
100004229200966183290520130096618329052013FA136030744BR  0000007062013238775-17   000000001950000017
100004229100966184290520130096618429052013FA136030758BR  0000707062013238775-25   000000001950000018
100004228800966187290520130096618729052013FA136030789BR  0000007062013238775-30   000000001950000019
100004228600966189290520130096618929052013FA136030801BR  0000007062013238775-34   000000001950000020
100004228300966192290520130096619229052013FA136030832BR  0000007062013238775-37   000000001950000021
100004228200966193290520130096619329052013FA136030846BR  0000007062013238775-38   000000001950000022
100004228100966194290520130096619429052013FA136030850BR  0000007062013238775-39   000000001950000023
100004228000966195290520130096619529052013FA136030863BR  0000007062013238775-40   000000001950000024
100004227100966198290520130096619829052013FA136030894BR  0000007062013238775-43   000000001950000025
100004227100966199290520130096619929052013FA136030903BR  0000007062013238775-73   000000001950000026
100004227200966202290520130096620229052013FA136030934BR  0000707062013238775-102  000000001950000027
100004225700966203290520130096620329052013FA136030948BR  0000007062013238775-103  000000001950000028
100004223700966204290520130096620429052013FA136030951BR  0000007062013238775-104  000000001950000029
100004216700966209290520130096620929052013FA136031002BR  0000007062013238775-109  000000001950000030
100004223800966212290520130096621229052013FA136031033BR  0000007062013238775-112  000000001950000031
9000030                                                                                       000032
