0RETORNONOTIFICACAO ELETRONICA        09052013OCOR                                            000001
100004132100948033300420130094803330042013FA105079345BR  0000009052013233982-1    000000001950000002
100004138200948035300420130094803530042013FA105079362BR  0000009052013233983-1    000000001950000003
100004138300948036300420130094803630042013FA105079376BR  0000009052013233983-2    000000001950000004
100004135300948044300420130094804430042013FA105079455BR  0002309052013233983-12   000000001950000005
100004139700948048300420130094804830042013FA105079495BR  0000009052013233986-3    000000001950000006
100004138400948049300420130094804930042013FA105079504BR  0000009052013233986-4    000000001950000007
100004138600948052300420130094805230042013FA105079535BR  0000009052013233986-7    000000001950000008
100004144100948057300420130094805730042013FA105079583BR  0000709052013233990-1    000000001950000009
100004144200948058300420130094805830042013FA105079597BR  0000009052013233990-2    000000001950000010
100004143800948065300420130094806530042013FA105079668BR  0000009052013233990-13   000000001950000011
100004143200948066300420130094806630042013FA105079671BR  0000009052013233990-14   000000001950000012
100004143300948067300420130094806730042013FA105079685BR  0000009052013233990-15   000000001950000013
100004144800948068300420130094806830042013FA105079699BR  0000109052013233990-16   000000001950000014
100004142900948070300420130094807030042013FA105079711BR  0000009052013233990-19   000000001950000015
100004145200948072300420130094807230042013FA105079739BR  0000209052013233990-21   000000001950000016
100004141600948074300420130094807430042013FA105079756BR  0000009052013233990-23   000000001950000017
100004146200948076300420130094807630042013FA105079773BR  0000009052013233990-25   000000001950000018
100004146500948079300420130094807930042013FA105079800BR  0000009052013233991-2    000000001950000019
100004147200948081300420130094808130042013FA105079827BR  0000009052013233993-1    000000001950000020
100004150200948093300420130094809330042013FA105079946BR  0000009052013233994-9    000000001950000021
100004152400948094300420130094809430042013FA105079950BR  0000009052013233994-10   000000001950000022
100004152300948096300420130094809630042013FA105079977BR  0000009052013233994-12   000000001950000023
100004160000948102300420130094810230042013FA105080034BR  0000009052013233997-3    000000001950000024
100004163200948111300420130094811130042013FA105080122BR  0000009052013233999-6    000000001950000025
100004163600948113300420130094811330042013FA105080140BR  0000009052013233999-8    000000001950000026
100004168600948120300420130094812030042013FA105080215BR  0000009052013234000-14   000000001950000027
100004169200948128300420130094812830042013FA105080290BR  0000009052013234002-1    000000001950000028
100004170600948613020520130094861302052013FA105083764BR  0000009052013234084-3    000000001950000029
9000028                                                                                       000030
