0RETORNONOTIFICACAO ELETRONICA        07082013OCOR                                            000001
100004284901007514310720130100751431072013FA136420435BR  0000007082013249061-10   000000001950000002
100004285001007515310720130100751531072013FA136420444BR  0000007082013249061-12   000000001950000003
100004283401007517310720130100751731072013FA136420461BR  0000007082013249062-2    000000001950000004
100004297701008204010820130100820401082013FA136427133BR  0000007082013249170-1    000000001950000005
100004303701008238010820130100823801082013FA136427473BR  0000007082013249205-2    000000001950000006
100004303901008242010820130100824201082013FA136427513BR  0000007082013249205-6    000000001950000007
100004307001008248010820130100824801082013FA136427575BR  0001207082013249219-4    000000001950000008
100004306901008250010820130100825001082013FA136427592BR  0000007082013249219-6    000000001950000009
100004309701008262010820130100826201082013FA136427717BR  0000007082013249283-1    000000001950000010
100004312201008269010820130100826901082013FA136427782BR  0000007082013249290-2    000000001950000011
100004322701008322010820130100832201082013FA136428315BR  0000107082013249313-59   000000001950000012
9000011                                                                                       000013
