0RETORNONOTIFICACAO ELETRONICA        06052013OCOR                                            000001
100004119200934372080420130093437208042013FA104956602BR  0000006052013230109-51   000000001950000002
100004135100948041300420130094804130042013FA105079420BR  0000006052013233983-9    000000001950000003
100004138800948050300420130094805030042013FA105079518BR  0000006052013233986-5    000000001950000004
100004141500948055300420130094805530042013FA105079566BR  0000006052013233988-3    000000001950000005
100004154100948085300420130094808530042013FA105079861BR  0000006052013233994-1    000000001950000006
100004152500948098300420130094809830042013FA105079994BR  0000006052013233994-14   000000001950000007
100004161800948100300420130094810030042013FA105080017BR  0000006052013233997-1    000000001950000008
100004169300948129300420130094812930042013FA105080309BR  0000006052013234002-2    000000001950000009
9000008                                                                                       000010
