0RETORNONOTIFICACAO ELETRONICA        12112012OCOR                                            000001
100003831600851259311020120085125931102012FA012621143BR  0000012112012201971-1    000000001950000002
100003838900851265311020120085126531102012FA012621205BR  0000012112012201971-8    000000001950000003
100003839100851267311020120085126731102012FA012621228BR  0000012112012201971-11   000000001950000004
100003839300851269311020120085126931102012FA012621245BR  0000012112012201971-15   000000001950000005
100003839500851271311020120085127131102012FA012621262BR  0000012112012201971-20   000000001950000006
100003839600851272311020120085127231102012FA012621276BR  0000012112012201971-23   000000001950000007
100003841600851282311020120085128231102012FA012621378BR  0000012112012201980-12   000000001950000008
100003842000851284311020120085128431102012FA012621395BR  0000012112012201980-14   000000001950000009
100003842200851285311020120085128531102012FA012621404BR  0000012112012201980-15   000000001950000010
100003842300851286311020120085128631102012FA012621418BR  0000012112012201980-16   000000001950000011
100003843100851288311020120085128831102012FA012621435BR  0000012112012201988-1    000000001950000012
100003835600851360311020120085136031102012FA012622152BR  0000012112012202192-4    000000001950000013
100003838500851361311020120085136131102012FA012622166BR  0000012112012202192-5    000000001950000014
100003843300851362311020120085136231102012FA012622170BR  0000012112012202192-6    000000001950000015
100003844100851363311020120085136331102012FA012622183BR  0000012112012202192-7    000000001950000016
100003844600851364311020120085136431102012FA012622197BR  0000012112012202192-8    000000001950000017
100003844900851366311020120085136631102012FA012622210BR  0000012112012202192-10   000000001950000018
100003845100851368311020120085136831102012FA012622237BR  0000012112012202192-13   000000001950000019
100003835700851374311020120085137431102012FA012622299BR  0000012112012202194-2    000000001950000020
100003847800851378311020120085137831102012FA012622339BR  0000012112012202194-6    000000001950000021
100003848000851380311020120085138031102012FA012622356BR  0000012112012202194-8    000000001950000022
100003848100851381311020120085138131102012FA012622360BR  0000012112012202194-9    000000001950000023
100003849400851387311020120085138731102012FA012622427BR  0000012112012202229-1    000000001950000024
100003849500851388311020120085138831102012FA012622435BR  0000012112012202229-2    000000001950000025
100003849700851390311020120085139031102012FA012622458BR  0000012112012202229-6    000000001950000026
100003851400851397311020120085139731102012FA012622529BR  0000012112012202282-4    000000001950000027
100003854100851407311020120085140731102012FA012622625BR  0000012112012202291-4    000000001950000028
100003854300851409311020120085140931102012FA012622648BR  0000012112012202291-7    000000001950000029
100003855300851410311020120085141031102012FA012622651BR  0000012112012202291-8    000000001950000030
100003854600854515051120120085451505112012FA012652707BR  0000012112012202648-1    000000001950000031
100003856900854516051120120085451605112012FA012652715BR  0000012112012202648-2    000000001950000032
100003857100854518051120120085451805112012FA012652738BR  0000012112012202648-4    000000001950000033
100003857200854519051120120085451905112012FA012652741BR  0000012112012202648-5    000000001950000034
100003858500854524051120120085452405112012FA012652790BR  0000012112012202648-16   000000001950000035
100003859000854525051120120085452505112012FA012652809BR  0000112112012202648-17   000000001950000036
100003859100854526051120120085452605112012FA012652812BR  0000012112012202648-18   000000001950000037
100003859200854527051120120085452705112012FA012652826BR  0000012112012202648-19   000000001950000038
9000037                                                                                       000039
