0RETORNONOTIFICACAO ELETRONICA        07012014OCOR                                            000001
100004562701100691261220130110069126122013FA188313595BR  0000007012014274949-4    000000001950000002
100004576001100697261220130110069726122013FA188313658BR  0000007012014274949-10   000000001950000003
100004580701102700271220130110270027122013FA188331617BR  0000007012014275191-1    000000001950000004
100004587401107410020120140110741002012014FA188376851BR  0000107012014275582-6    000000001950000005
100004585501107411020120140110741102012014FA188376865BR  0000007012014275582-7    000000001950000006
100004590101107415020120140110741502012014FA188376905BR  0000007012014275587-3    000000001950000007
9000006                                                                                       000008
