0RETORNONOTIFICACAO ELETRONICA        11062012OCOR                                            000001
100003549300770924280520120077092428052012FR971539040BR  0000011062012176428-2    000000001950000002
100003553200770941280520120077094128052012FR971539212BR  0000011062012176435-31   000000001950000003
100003561000772082300520120077208230052012FR971550561BR  0000511062012177064-2    000000001950000004
100003562400772084300520120077208430052012FR971550589BR  0000011062012177064-4    000000001950000005
100003563400772089300520120077208930052012FR971550632BR  0000011062012177064-17   000000001950000006
100003563500772090300520120077209030052012FR971550646BR  0000011062012177064-18   000000001950000007
100003555700772094300520120077209430052012FR971550685BR  0000011062012177060-4    000000001950000008
100003556100772098300520120077209830052012FR971550725BR  0000011062012177060-9    000000001950000009
100003557400772100300520120077210030052012FR971550748BR  0000011062012177060-11   000000001950000010
100003557600772101300520120077210130052012FR971550751BR  0000011062012177062-1    000000001950000011
100003558000772102300520120077210230052012FR971550765BR  0000011062012177062-2    000000001950000012
100003558100772103300520120077210330052012FR971550779BR  0000011062012177062-3    000000001950000013
100003559200772105300520120077210530052012FR971550796BR  0000011062012177062-5    000000001950000014
100003559900772108300520120077210830052012FR971550822BR  0000011062012177062-9    000000001950000015
100003560000772109300520120077210930052012FR971550836BR  0000011062012177062-10   000000001950000016
100003560100772110300520120077211030052012FR971550840BR  0000011062012177062-11   000000001950000017
100003560200772111300520120077211130052012FR971550853BR  0000411062012177062-14   000000001950000018
100003560500772114300520120077211430052012FR971550884BR  0000011062012177062-18   000000001950000019
100003560700772116300520120077211630052012FR971550907BR  0000511062012177062-23   000000001950000020
100003565700773952010620120077395201062012FR971569024BR  0000011062012177438-2    000000001950000021
9000020                                                                                       000022
