0RETORNONOTIFICACAO ELETRONICA        09012012OCOR                                            000001
100003166700660905071120110066090507112011JL014614984BR  0000009012012150625-2    000000002000000002
100003168300660911071120110066091107112011JL014615004BR  0000009012012150625-8    000000002000000003
100003176900663631101120110066363110112011JL014615018BR  0000009012012151166-1    000000002000000004
100003178100663632101120110066363210112011JL014615021BR  0000009012012151166-2    000000002000000005
100003256300691283201220110069128320122011RQ046333835BR  0000009012012156150-77   000000002000000006
100003215700694335281220110069433528122011JL014615741BR  0000009012012156773-20   000000002000000007
100003216700694338281220110069433828122011RQ046363125BR  0000009012012156773-23   000000002000000008
9000007                                                                                       000009
