0RETORNONOTIFICACAO ELETRONICA        06122013OCOR                                            000001
100004535901082296261120130108229626112013FA188137525BR  0000006122013270328-3    000000001950000002
100004537501084523271120130108452327112013FA188159018BR  0000006122013270698-1    000000001950000003
100004535601084525271120130108452527112013FA188159035BR  0000006122013270698-15   000000001950000004
100004537601084527271120130108452727112013FA188159052BR  0000006122013270698-17   000000001950000005
100004534901084530271120130108453027112013FA188159083BR  0000006122013270698-20   000000001950000006
100004536101084531271120130108453127112013FA188159097BR  0000006122013270698-21   000000001950000007
100004530801084532271120130108453227112013FA188159106BR  0000006122013270698-22   000000001950000008
100004531101084533271120130108453327112013FA188159110BR  0000006122013270698-23   000000001950000009
100004531001084534271120130108453427112013FA188159123BR  0000006122013270698-24   000000001950000010
100004530901084535271120130108453527112013FA188159137BR  0000006122013270698-25   000000001950000011
100004539401084537271120130108453727112013FA188159154BR  0000006122013270870-1    000000001950000012
100004539601084540271120130108454027112013FA188159185BR  0000006122013270870-4    000000001950000013
100004544301088149021220130108814902122013FA188191530BR  0000006122013271589-2    000000001950000014
100004544401088150021220130108815002122013FA188191543BR  0000006122013271589-3    000000001950000015
100004546201090271031220130109027103122013FA188214880BR  0000006122013271841-4    000000001950000016
100004519601090286031220130109028603122013FA188215032BR  0000006122013271841-22   000000001950000017
9000016                                                                                       000018
