0RETORNONOTIFICACAO ELETRONICA        13082013OCOR                                            000001
100004278801007492310720130100749231072013FA136420210BR  0000013082013248951-3    000000001950000002
100004285601007511310720130100751131072013FA136420400BR  0000013082013249061-7    000000001950000003
100004292801008190010820130100819001082013FA136426994BR  0000013082013249161-1    000000001950000004
100004303301008218010820130100821801082013FA136427270BR  0000013082013249172-13   000000001950000005
100004302401008221010820130100822101082013FA136427306BR  0000013082013249172-16   000000001950000006
100004301701008228010820130100822801082013FA136427371BR  0000013082013249172-33   000000001950000007
100004301301008232010820130100823201082013FA136427411BR  0000013082013249172-42   000000001950000008
100004301101008234010820130100823401082013FA136427439BR  0000013082013249172-44   000000001950000009
100004307201008245010820130100824501082013FA136427544BR  0000013082013249219-1    000000001950000010
100004321701008286010820130100828601082013FA136427955BR  0000013082013249295-4    000000001950000011
100004318901008299010820130100829901082013FA136428085BR  0000013082013249295-137  000000001950000012
100004324701008320010820130100832001082013FA136428292BR  0000013082013249313-55   000000001950000013
100004326001011942060820130101194206082013FA136463759BR  0000013082013249543-1    000000001950000014
100004326401011945060820130101194506082013FA136463780BR  0000013082013249543-5    000000001950000015
100004328201011955060820130101195506082013FA136463881BR  0000013082013249547-8    000000001950000016
100004338201011958060820130101195806082013FA136463918BR  0000013082013249992-3    000000001950000017
9000016                                                                                       000018
