0RETORNONOTIFICACAO ELETRONICA        06112013OCOR                                            000001
100004487401063925291020130106392529102013FA159608448BR  0000006112013265634-13   000000001950000002
100004487701063926291020130106392629102013FA159608451BR  0000006112013265634-14   000000001950000003
100004487601063927291020130106392729102013FA159608465BR  0000006112013265634-15   000000001950000004
100004487501063928291020130106392829102013FA159608479BR  0000006112013265634-16   000000001950000005
100004495501064639291020130106463929102013FA159615585BR  0000006112013265902-2    000000001950000006
100004495601064642291020130106464229102013FA159615611BR  0000006112013265902-11   000000001950000007
100004497601065964311020130106596431102013FA159628615BR  0000006112013266185-2    000000001950000008
100004497101065969311020130106596931102013FA159628663BR  0000006112013266185-7    000000001950000009
9000008                                                                                       000010
