0RETORNONOTIFICACAO ELETRONICA        03052012OCOR                                            000001
100003488400752635240420120075263524042012FR851947325BR  0000703052012171808-1    000000001950000002
100003488600752637240420120075263724042012FR851947342BR  0000703052012171808-4    000000001950000003
100003491500752657240420120075265724042012FR851947546BR  0000703052012171816-1    000000001950000004
100003493400752666240420120075266624042012FR851947634BR  0000003052012171816-10   000000001950000005
100003496400752670240420120075267024042012FR851947679BR  0000003052012171816-14   000000001950000006
100003496700754272260420120075427226042012FR851963668BR  0000003052012172058-1    000000001950000007
100003496900754273260420120075427326042012FR851963671BR  0000003052012172058-4    000000001950000008
100003497100754275260420120075427526042012FR851963699BR  0000003052012172058-6    000000001950000009
100003499600754277260420120075427726042012FR851963711BR  0000003052012172058-8    000000001950000010
100003500000754281260420120075428126042012FR851963756BR  0000003052012172058-14   000000001950000011
100003500300754284260420120075428426042012FR851963787BR  0000103052012172058-23   000000001950000012
100003500400754285260420120075428526042012FR851963795BR  0000203052012172058-27   000000001950000013
100003500500754286260420120075428626042012FR851963800BR  0000003052012172058-32   000000001950000014
100003500600754287260420120075428726042012FR851963813BR  0000003052012172058-37   000000001950000015
100003500700754288260420120075428826042012FR851963827BR  0000103052012172058-43   000000001950000016
100003500900754290260420120075429026042012FR851963844BR  0000103052012172058-55   000000001950000017
100003501000754291260420120075429126042012FR851963858BR  0000003052012172058-63   000000001950000018
100003501200754293260420120075429326042012FR851963875BR  0000103052012172058-80   000000001950000019
100003501600754615270420120075461527042012FR851967090BR  0000003052012172338-1    000000001950000020
100003501800754617270420120075461727042012FR851967112BR  0000003052012172338-3    000000001950000021
100003504200754620270420120075462027042012FR851967143BR  0000003052012172338-7    000000001950000022
9000021                                                                                       000023
