0RETORNONOTIFICACAO ELETRONICA        10012012OCOR                                            000001
100003211300694322281220110069432228122011JL014615667BR  0000010012012156773-7    000000002000000002
100003214800694330281220110069433028122011JL014615698BR  0000010012012156773-15   000000002000000003
100003215800694336281220110069433628122011JL014615755BR  0000010012012156773-21   000000002000000004
9000003                                                                                       000005
