0RETORNONOTIFICACAO ELETRONICA        11102013OCOR                                            000001
100004428501041115260920130104111526092013FA159392295BR  0000011102013259163-24   000000001950000002
100004428001041120260920130104112026092013FA159392344BR  0000811102013259163-30   000000001950000003
100004421801044349011020130104434901102013FA159423126BR  0000011102013260103-2    000000001950000004
100004447201048751031020130104875103102013FA159465418BR  0000111102013260924-8    000000001950000005
100004447001048757031020130104875703102013FA159465470BR  0000011102013260924-16   000000001950000006
100004449501049338041020130104933804102013FA159471458BR  0000011102013261107-1    000000001950000007
100004449301049339041020130104933904102013FA159471461BR  0000011102013261107-2    000000001950000008
100004449201049340041020130104934004102013FA159471475BR  0000011102013261107-3    000000001950000009
100004451501049342041020130104934204102013FA159471492BR  0000011102013261107-5    000000001950000010
100004459101049344041020130104934404102013FA159471515BR  0000011102013261107-7    000000001950000011
100004455301049382041020130104938204102013FA159471890BR  0000011102013261107-117  000000001950000012
100004454701049388041020130104938804102013FA159471957BR  0000011102013261107-126  000000001950000013
100004453401049401041020130104940104102013FA159472087BR  0000011102013261107-139  000000001950000014
100004461901049420041020130104942004102013FA159472277BR  0000011102013261107-158  000000001950000015
100004461801049421041020130104942104102013FA159472285BR  0000011102013261107-159  000000001950000016
100004460001049439041020130104943904102013FA159472467BR  0000011102013261107-177  000000001950000017
100004459301049446041020130104944604102013FA159472538BR  0000011102013261107-184  000000001950000018
100004462301050402071020130105040207102013FA159478354BR  0000011102013261422-1    000000001950000019
100004465601051243081020130105124308102013FA159488745BR  0000011102013261688-13   000000001950000020
9000019                                                                                       000021
