0RETORNONOTIFICACAO ELETRONICA        06072012OCOR                                            000001
100003602800784377260620120078437726062012FR971671689BR  0000006072012180647-1    000000001950000002
100003605500784385260620120078438526062012FR971671763BR  0000006072012180649-6    000000001950000003
100003607100784393260620120078439326062012FR971671848BR  0000006072012180650-8    000000001950000004
9000003                                                                                       000005
