0RETORNONOTIFICACAO ELETRONICA        13022015OCOR                                            000001
100005056701436223300120150143622330012015FA318644375BR  0000013022015343643-7    000000001789000002
100005058101436230300120150143623030012015FA318644446BR  0000013022015343644-1    000000001789000003
100005058401436870020220150143687002022015FA318648536BR  0000013022015343755-1    000000001789000004
100005061801439843090220150143984309022015FA318674425BR  0000213022015345487-10   000000001789000005
100005060901439845090220150143984509022015FA318674448BR  0000213022015345484-2    000000001789000006
100005062901440090100220150144009010022015FA318676735BR  0000013022015345832-5    000000001789000007
9000006                                                                                       000008
