0RETORNONOTIFICACAO ELETRONICA        05062013OCOR                                            000001
100004174400957500150520130095750015052013FA105170208BR  0000005062013236350-12   000000001950000002
100004177600957507150520130095750715052013FA105170273BR  0000005062013236351-5    000000001950000003
100004177700957508150520130095750815052013FA105170287BR  0000005062013236351-6    000000001950000004
100004186000957534150520130095753415052013FA105170548BR  0000005062013236353-46   000000001950000005
100004185100957543150520130095754315052013FA105170636BR  0000005062013236353-64   000000001950000006
100004183200957562150520130095756215052013FA105170826BR  0000005062013236353-145  000000001950000007
100004210100961069220520130096106922052013FA105203317BR  0000005062013237187-1    000000001950000008
100004216200966157290520130096615729052013FA136030483BR  0000005062013238770-4    000000001950000009
100004220300966162290520130096616229052013FA136030537BR  0000005062013238771-11   000000001950000010
100004217700966167290520130096616729052013FA136030585BR  0000005062013238771-16   000000001950000011
100004218100966168290520130096616829052013FA136030599BR  0000005062013238771-19   000000001950000012
100004220800966170290520130096617029052013FA136030611BR  0000005062013238772-1    000000001950000013
100004228400966191290520130096619129052013FA136030829BR  0000805062013238775-36   000000001950000014
100004227300966201290520130096620129052013FA136030925BR  0000005062013238775-99   000000001950000015
100004223600966207290520130096620729052013FA136030982BR  0000005062013238775-107  000000001950000016
100004216500966210290520130096621029052013FA136031016BR  0000805062013238775-110  000000001950000017
9000016                                                                                       000018
