0RETORNONOTIFICACAO ELETRONICA        05062014OCOR                                            000001
100004766001232582280520140123258228052014FA271257084BR  0000005062014302578-5    000000001950000002
100004768001233431290520140123343129052014FA271263796BR  0000005062014302899-2    000000001950000003
100004768101233432290520140123343229052014FA271263805BR  0000005062014302899-3    000000001950000004
100004768201233433290520140123343329052014FA271263819BR  0000005062014302899-4    000000001950000005
100004769501233435290520140123343529052014FA271263836BR  0000005062014302899-7    000000001950000006
100004769801233438290520140123343829052014FA271263867BR  0000105062014302899-33   000000001950000007
100004770101233441290520140123344129052014FA271263898BR  0000005062014302899-45   000000001950000008
100004766901233445290520140123344529052014FA271263938BR  0000005062014303008-1    000000001950000009
100004770501233446290520140123344629052014FA271263941BR  0000005062014303008-2    000000001950000010
100004770601233447290520140123344729052014FA271263955BR  0000005062014303008-3    000000001950000011
9000010                                                                                       000012
