0RETORNONOTIFICACAO ELETRONICA        11092014OCOR                                            000001
100004894901315430030920140131543003092014FA294460715BR  0000211092014318998-2    000000001789000002
100004897701315441030920140131544103092014FA294460825BR  0000011092014319696-6    000000001789000003
100004897901315443030920140131544303092014FA294460848BR  0000011092014319696-8    000000001789000004
100004899301315446030920140131544603092014FA294460879BR  0000011092014319697-2    000000001789000005
100004899501315448030920140131544803092014FA294460896BR  0000011092014319697-5    000000001789000006
100004902001315455030920140131545503092014FA294460967BR  0000011092014319778-5    000000001789000007
100004903201316724040920140131672404092014FA294468824BR  0000011092014320020-9    000000001789000008
100004903901316727040920140131672704092014FA294468855BR  0000011092014320020-15   000000001789000009
9000008                                                                                       000010
