0RETORNONOTIFICACAO ELETRONICA        04122014OCOR                                            000001
100005007501390131271120140139013127112014FA318324623BR  0000004122014332614-2    000000001789000002
100005007901390132271120140139013227112014FA318324637BR  0000004122014332614-3    000000001789000003
100005017801390136271120140139013627112014FA318324671BR  0000404122014334740-1    000000001789000004
100005018601390140271120140139014027112014FA318324711BR  0000004122014334742-2    000000001789000005
100005019201390143271120140139014327112014FA318324742BR  0000004122014334742-8    000000001789000006
9000005                                                                                       000007
