0RETORNONOTIFICACAO ELETRONICA        13022013OCOR                                            000001
100003973700895103290120130089510329012013FA063240223BR  0000013022013218293-2    000000001950000002
100003984300895148290120130089514829012013FA063240679BR  0001213022013218304-1    000000001950000003
100003988400900117050220130090011705022013FA063288314BR  0000013022013219585-1    000000001950000004
100003995700900130050220130090013005022013FA063288447BR  0000013022013219593-7    000000001950000005
100003995900900141050220130090014105022013FA063288552BR  0000013022013219603-5    000000001950000006
100003999400900151050220130090015105022013FA063288654BR  0000013022013220041-11   000000001950000007
9000006                                                                                       000008
