0RETORNONOTIFICACAO ELETRONICA        12072012OCOR                                            000001
100003598100788006020720120078800602072012FR971707627BR  0000012072012181506-1    000000001950000002
100003598200788007020720120078800702072012FR971707635BR  0000012072012181506-2    000000001950000003
100003608600788016020720120078801602072012FR971707729BR  0000012072012181506-11   000000001950000004
100003608700788017020720120078801702072012FR971707732BR  0000012072012181506-13   000000001950000005
100003610900788024020720120078802402072012FR971707803BR  0000012072012181508-3    000000001950000006
100003599000788051020720120078805102072012FR971708070BR  0000012072012181510-6    000000001950000007
100003599100788052020720120078805202072012FR971708083BR  0000012072012181510-7    000000001950000008
100003616000788060020720120078806002072012FR971708168BR  0000012072012181510-15   000000001950000009
100003626300791565060720120079156506072012FR971743111BR  0000012072012182448-5    000000001950000010
100003628800791574060720120079157406072012FR971743200BR  0000012072012182449-11   000000001950000011
9000010                                                                                       000012
