0RETORNONOTIFICACAO ELETRONICA        03092013OCOR                                            000001
100004361801018373220820130101837322082013FA159172119BR  0000003092013253012-1    000000001950000002
100004362201018375220820130101837522082013FA159172136BR  0000003092013253012-3    000000001950000003
100004362301018376220820130101837622082013FA159172140BR  0000003092013253012-4    000000001950000004
100004361901018377220820130101837722082013FA159172153BR  0000003092013253012-5    000000001950000005
100004362001018378220820130101837822082013FA159172167BR  0000003092013253012-6    000000001950000006
100004364201018379220820130101837922082013FA159172175BR  0000003092013253027-1    000000001950000007
100004360801018383220820130101838322082013FA159172215BR  0000003092013253027-7    000000001950000008
100004365401018384220820130101838422082013FA159172224BR  0000003092013253027-8    000000001950000009
100004365301018385220820130101838522082013FA159172238BR  0000003092013253027-9    000000001950000010
100004366501018391220820130101839122082013FA159172290BR  0000003092013253034-5    000000001950000011
100004366101018393220820130101839322082013FA159172312BR  0000003092013253034-11   000000001950000012
100004368201018846230820130101884623082013FA159176844BR  0000003092013253296-2    000000001950000013
100004367901018850230820130101885023082013FA159176889BR  0000003092013253296-7    000000001950000014
9000013                                                                                       000015
