0RETORNONOTIFICACAO ELETRONICA        09012014OCOR                                            000001
100004587301107406020120140110740602012014FA188376817BR  0000009012014275582-2    000000001950000002
100004579201107407020120140110740702012014FA188376825BR  0000009012014275582-3    000000001950000003
100004581001107408020120140110740802012014FA188376834BR  0000009012014275582-4    000000001950000004
100004590201107416020120140110741602012014FA188376919BR  0000009012014275587-5    000000001950000005
9000004                                                                                       000006
