0RETORNONOTIFICACAO ELETRONICA        01042013OCOR                                            000001
100004062900920126200320130092012620032013FA104833489BR  0000001042013227376-1    000000001950000002
100004062700920128200320130092012820032013FA104833501BR  0000001042013227376-3    000000001950000003
100004062300920130200320130092013020032013FA104833529BR  0000001042013227376-6    000000001950000004
100004062600920131200320130092013120032013FA104833532BR  0000001042013227376-7    000000001950000005
100004064800920136200320130092013620032013FA104833585BR  0000001042013227382-5    000000001950000006
100004065100920138200320130092013820032013FA104833603BR  0000001042013227382-9    000000001950000007
9000006                                                                                       000008
