0RETORNONOTIFICACAO ELETRONICA        10012014OCOR                                            000001
100004552001100698261220130110069826122013FA188313661BR  0000010012014274949-11   000000001950000002
100004580301100699261220130110069926122013FA188313675BR  0000010012014274949-12   000000001950000003
100004581901102704271220130110270427122013FA188331651BR  0000010012014275193-1    000000001950000004
9000003                                                                                       000005
