0RETORNONOTIFICACAO ELETRONICA        09122013OCOR                                            000001
100004541101085571281120130108557128112013FA188169236BR  0000009122013271067-1    000000001950000002
100004541201085573281120130108557328112013FA188169253BR  0000009122013271067-6    000000001950000003
100004542301087637291120130108763729112013FA188186821BR  0000009122013271290-1    000000001950000004
100004536601090276031220130109027603122013FA188214933BR  0000009122013271841-10   000000001950000005
100004545801090287031220130109028703122013FA188215046BR  0000009122013271841-23   000000001950000006
9000005                                                                                       000007
