0RETORNONOTIFICACAO ELETRONICA        11092013OCOR                                            000001
100004369001026463020920130102646302092013FA159251369BR  0000011092013254496-9    000000001950000002
100004355001026467020920130102646702092013FA159251409BR  0000011092013254496-13   000000001950000003
100004355101026468020920130102646802092013FA159251412BR  0000011092013254496-14   000000001950000004
100004353301026479020920130102647902092013FA159251528BR  0000011092013254497-8    000000001950000005
100004369101026480020920130102648002092013FA159251531BR  0000011092013254497-9    000000001950000006
100004376701026481020920130102648102092013FA159251545BR  0000011092013254497-10   000000001950000007
100004380001027054030920130102705403092013FA159256573BR  0000111092013254899-3    000000001950000008
100004380201029913050920130102991305092013FA159283786BR  0000011092013255609-1    000000001950000009
100004382301029929050920130102992905092013FA159283945BR  0000011092013255609-31   000000001950000010
100004381301029930050920130102993005092013FA159283959BR  0000011092013255609-32   000000001950000011
100004383401029936050920130102993605092013FA159284013BR  0000011092013255620-9    000000001950000012
100004386101029938050920130102993805092013FA159284035BR  0000911092013255620-11   000000001950000013
100004386601029942050920130102994205092013FA159284075BR  0000111092013255627-4    000000001950000014
100004393001029952050920130102995205092013FA159284177BR  0000011092013255627-24   000000001950000015
100004390001029982050920130102998205092013FA159284472BR  0000111092013255627-80   000000001950000016
100004389901029983050920130102998305092013FA159284486BR  0000111092013255627-81   000000001950000017
100004386401029984050920130102998405092013FA159284490BR  0000111092013255627-83   000000001950000018
100004387001029987050920130102998705092013FA159284526BR  0000011092013255627-86   000000001950000019
9000018                                                                                       000020
