0RETORNONOTIFICACAO ELETRONICA        07102013OCOR                                            000001
100004420901039773240920130103977324092013FA159379201BR  0000007102013258721-3    000000001950000002
100004423601041103260920130104110326092013FA159392171BR  0001207102013259163-4    000000001950000003
100004423701041104260920130104110426092013FA159392185BR  0000007102013259163-7    000000001950000004
100004426101041105260920130104110526092013FA159392199BR  0000007102013259163-8    000000001950000005
100004429301041107260920130104110726092013FA159392211BR  0000007102013259163-11   000000001950000006
100004429201041108260920130104110826092013FA159392225BR  0000007102013259163-13   000000001950000007
100004429001041110260920130104111026092013FA159392242BR  0000007102013259163-16   000000001950000008
100004428901041111260920130104111126092013FA159392256BR  0001207102013259163-17   000000001950000009
100004428801041112260920130104111226092013FA159392260BR  0000007102013259163-18   000000001950000010
100004428701041113260920130104111326092013FA159392273BR  0000007102013259163-20   000000001950000011
100004428601041114260920130104111426092013FA159392287BR  0000007102013259163-22   000000001950000012
100004428301041117260920130104111726092013FA159392313BR  0000007102013259163-27   000000001950000013
100004428201041118260920130104111826092013FA159392327BR  0000007102013259163-28   000000001950000014
100004428101041119260920130104111926092013FA159392335BR  0000007102013259163-29   000000001950000015
100004427801041122260920130104112226092013FA159392361BR  0000007102013259163-33   000000001950000016
100004427401041126260920130104112626092013FA159392401BR  0000007102013259163-38   000000001950000017
100004427101041129260920130104112926092013FA159392432BR  0000007102013259163-49   000000001950000018
100004426901041131260920130104113126092013FA159392450BR  0000007102013259163-54   000000001950000019
100004426701041133260920130104113326092013FA159392477BR  0000007102013259163-60   000000001950000020
100004426601041134260920130104113426092013FA159392485BR  0000007102013259163-62   000000001950000021
100004426401041136260920130104113626092013FA159392503BR  0000007102013259163-67   000000001950000022
100004426301041137260920130104113726092013FA159392517BR  0002307102013259163-70   000000001950000023
100004426201041138260920130104113826092013FA159392525BR  0000007102013259163-72   000000001950000024
100004423401041140260920130104114026092013FA159392548BR  0000007102013259163-74   000000001950000025
100004429601041141260920130104114126092013FA159392551BR  0000007102013259164-1    000000001950000026
100004432401041143260920130104114326092013FA159392579BR  0000007102013259386-1    000000001950000027
100004433201042932270920130104293227092013FA159397457BR  0000007102013259606-4    000000001950000028
100004436001043132270920130104313227092013FA159412225BR  0000007102013259845-7    000000001950000029
100004431201044348011020130104434801102013FA159423112BR  0000007102013260103-1    000000001950000030
9000029                                                                                       000031
