0RETORNONOTIFICACAO ELETRONICA        05052014OCOR                                            000001
100004718401203860240420140120386024042014FA271025916BR  0000005052014296803-1    000000001950000002
100004718601203862240420140120386224042014FA271025933BR  0000005052014296803-3    000000001950000003
100004720501203868240420140120386824042014FA271025995BR  0000005052014296804-2    000000001950000004
100004720701203870240420140120387024042014FA271026015BR  0000005052014296804-4    000000001950000005
100004724301206603280420140120660328042014FA271048951BR  0000005052014297531-5    000000001950000006
100004724401206604280420140120660428042014FA271048965BR  0000005052014297531-9    000000001950000007
100004724501206605280420140120660528042014FA271048979BR  0000005052014297531-10   000000001950000008
100004728901206606280420140120660628042014FA271048982BR  0000005052014297533-1    000000001950000009
100004729001206607280420140120660728042014FA271048996BR  0000005052014297533-2    000000001950000010
100004729301206610280420140120661028042014FA271049020BR  0000005052014297533-5    000000001950000011
100004729401206611280420140120661128042014FA271049033BR  0000005052014297533-6    000000001950000012
100004729501206612280420140120661228042014FA271049047BR  0000005052014297533-9    000000001950000013
100004726401206613280420140120661328042014FA271049055BR  0000005052014297539-1    000000001950000014
100004726501206614280420140120661428042014FA271049064BR  0000005052014297539-2    000000001950000015
100004726701206616280420140120661628042014FA271049081BR  0000005052014297539-6    000000001950000016
100004726801206617280420140120661728042014FA271049095BR  0000005052014297539-7    000000001950000017
100004735001209426300420140120942630042014FA271070875BR  0000005052014297972-10   000000001950000018
100004736201209428300420140120942830042014FA271070892BR  0000005052014297972-13   000000001950000019
9000018                                                                                       000020
