0RETORNONOTIFICACAO ELETRONICA        09122011OCOR                                            000001
100003164100660904071120110066090407112011JL014592025BR  0000009122011150625-1    000000002000000002
100003167400660907071120110066090707112011JL014592042BR  0000009122011150625-4    000000002000000003
100003167500660908071120110066090807112011JL014592056BR  0000009122011150625-5    000000002000000004
100003199400669880231120110066988023112011RQ046432245BR  0000009122011152357-4    000000002000000005
100003205500672826281120110067282628112011RQ046460621BR  0000009122011152892-4    000000002000000006
100003209500672832281120110067283228112011RQ046460683BR  0000009122011153062-4    000000002000000007
100003212600672839281120110067283928112011JL014602544BR  0000009122011153250-7    000000002000000008
100003214400675116291120110067511629112011RQ046482701BR  0000009122011153475-1    000000002000000009
100003217200675122291120110067512229112011JL014603125BR  0000009122011153475-28   000000002000000010
100003217300675123291120110067512329112011JL014603139BR  0000009122011153475-44   000000002000000011
100003217400679315021220110067931502122011RQ046225190BR  0000009122011153741-1    000000002000000012
100003217500679316021220110067931602122011RQ046225209BR  0000009122011153741-2    000000002000000013
100003217800679319021220110067931902122011RQ046225212BR  0000009122011153741-5    000000002000000014
100003219700679322021220110067932202122011RQ046225226BR  0000009122011153938-1    000000002000000015
100003219800679323021220110067932302122011RQ046225230BR  0000009122011153938-2    000000002000000016
100003219900679324021220110067932402122011RQ046225243BR  0000009122011153938-3    000000002000000017
100003220000679325021220110067932502122011JL014603567BR  0000009122011153938-4    000000002000000018
100003222100679326021220110067932602122011RQ046225257BR  0000009122011153939-1    000000002000000019
100003222200679327021220110067932702122011RQ046225265BR  0000009122011153939-2    000000002000000020
100003222400679329021220110067932902122011RQ046225288BR  0000009122011153939-7    000000002000000021
100003227100679331021220110067933102122011RQ046225305BR  0000009122011153939-13   000000002000000022
100003227200679332021220110067933202122011RQ046225314BR  0000009122011153939-16   000000002000000023
100003227300679333021220110067933302122011RQ046225328BR  0000009122011153939-23   000000002000000024
9000023                                                                                       000025
