0RETORNONOTIFICACAO ELETRONICA        08032012OCOR                                            000001
100003404300723966290220120072396629022012RQ030536923BR  0000708032012164707-5    000000002000000002
100003406100723971290220120072397129022012RQ030536971BR  0000008032012164707-11   000000002000000003
100003406200723972290220120072397229022012RQ030536985BR  0000008032012164707-12   000000002000000004
100003406400723974290220120072397429022012RQ030537005BR  0000008032012164707-18   000000002000000005
100003406700723977290220120072397729022012RQ030537036BR  0000008032012164707-22   000000002000000006
100003406800723978290220120072397829022012RQ030537040BR  0000008032012164707-23   000000002000000007
9000006                                                                                       000008
