0RETORNONOTIFICACAO ELETRONICA        06122012OCOR                                            000001
100003877000864465281120120086446528112012FA062948832BR  0000006122012207251-6    000000001950000002
100003881600864470281120120086447028112012FA062948885BR  0000006122012207252-2    000000001950000003
100003881700864471281120120086447128112012FA062948894BR  0000006122012207252-3    000000001950000004
100003879700864472281120120086447228112012FA062948903BR  0000006122012207252-4    000000001950000005
100003879500864474281120120086447428112012FA062948925BR  0000006122012207252-6    000000001950000006
100003879600864475281120120086447528112012FA062948934BR  0000006122012207252-7    000000001950000007
100003882000864479281120120086447928112012FA062948979BR  0000006122012207253-4    000000001950000008
100003883800864483281120120086448328112012FA062949016BR  0000006122012207255-5    000000001950000009
100003883700864484281120120086448428112012FA062949020BR  0000506122012207255-6    000000001950000010
100003883900864486281120120086448628112012FA062949047BR  0000006122012207255-8    000000001950000011
100003887000865160301120120086516030112012FA062955100BR  0000006122012207733-1    000000001950000012
100003887300865163301120120086516330112012FA062955135BR  0000006122012207733-4    000000001950000013
100003887400865165301120120086516530112012FA062955158BR  0000006122012207733-6    000000001950000014
100003892300865169301120120086516930112012FA062955192BR  0000006122012207753-3    000000001950000015
100003892400865173301120120086517330112012FA062955232BR  0000006122012207805-3    000000001950000016
100003898900865189301120120086518930112012FA062955396BR  0000006122012207901-60   000000001950000017
100003896000865193301120120086519330112012FA062955436BR  0001206122012207901-129  000000001950000018
100003895700865194301120120086519430112012FA062955440BR  0000006122012207901-130  000000001950000019
9000018                                                                                       000020
