0RETORNONOTIFICACAO ELETRONICA        12122011OCOR                                            000001
100003182300665677161120110066567716112011JL014599301BR  0000012122011151595-11   000000002000000002
100003188700666524181120110066652418112011JL014600438BR  0000012122011151965-16   000000002000000003
100003217600679317021220110067931702122011JL014603522BR  0000012122011153741-3    000000002000000004
100003217700679318021220110067931802122011JL014603536BR  0000012122011153741-4    000000002000000005
100003222300679328021220110067932802122011RQ046225274BR  0000012122011153939-3    000000002000000006
100003222500679330021220110067933002122011RQ046225291BR  0000012122011153939-8    000000002000000007
100003227400685130061220110068513006122011RQ046275749BR  0000012122011154511-1    000000002000000008
100003228000685135061220110068513506122011RQ046275797BR  0000012122011154511-6    000000002000000009
100003232200685137061220110068513706122011RQ046275810BR  0000012122011154511-8    000000002000000010
100003232300685138061220110068513806122011RQ046275823BR  0000012122011154511-16   000000002000000011
100003039500685145061220110068514506122011RQ046275899BR  0000012122011154524-1    000000002000000012
100003039600685146061220110068514606122011RQ046275908BR  0000012122011154524-2    000000002000000013
100003039700685147061220110068514706122011RQ046275911BR  0000012122011154524-3    000000002000000014
100003039800685148061220110068514806122011RQ046275925BR  0000012122011154524-4    000000002000000015
100003039900685149061220110068514906122011RQ046275939BR  0000012122011154524-5    000000002000000016
100003040000685150061220110068515006122011RQ046275942BR  0000012122011154524-6    000000002000000017
100003040100685151061220110068515106122011RQ046275956BR  0000012122011154524-7    000000002000000018
100003040200685152061220110068515206122011RQ046275960BR  0000012122011154524-8    000000002000000019
100003040300685153061220110068515306122011RQ046275973BR  0000012122011154524-9    000000002000000020
100003235100685162061220110068516206122011RQ046276041BR  0000012122011154529-6    000000002000000021
100003238800685164061220110068516406122011RQ046276069BR  0000012122011154529-8    000000002000000022
9000021                                                                                       000023
