0RETORNONOTIFICACAO ELETRONICA        13052014OCOR                                            000001
100004737401217903070520140121790307052014FA271144842BR  0000013052014298307-4    000000001950000002
100004707801217905070520140121790507052014FA271144860BR  0000013052014298677-1    000000001950000003
100004732701217920070520140121792007052014FA271145012BR  0000013052014298677-16   000000001950000004
100004738301217921070520140121792107052014FA271145026BR  0000013052014298677-17   000000001950000005
100004738401217922070520140121792207052014FA271145030BR  0000013052014298677-18   000000001950000006
100004738601217924070520140121792407052014FA271145057BR  0000013052014298677-20   000000001950000007
100004738701217925070520140121792507052014FA271145065BR  0000013052014298677-21   000000001950000008
100004739201217926070520140121792607052014FA271145074BR  0000013052014298677-22   000000001950000009
9000008                                                                                       000010
