0RETORNONOTIFICACAO ELETRONICA        13072012OCOR                                            000001
100003604700784381260620120078438126062012FR971671729BR  0000013072012180649-2    000000001950000002
100003608400788014020720120078801402072012FR971707701BR  0000013072012181506-9    000000001950000003
100003610700788022020720120078802202072012FR971707785BR  0000013072012181508-1    000000001950000004
100003612200788028020720120078802802072012FR971707848BR  0000013072012181509-10   000000001950000005
100003612300788029020720120078802902072012FR971707851BR  0000013072012181509-13   000000001950000006
100003616900788063020720120078806302072012FR971708199BR  0000013072012181510-19   000000001950000007
100003617800791536060720120079153606072012FR971742822BR  0000013072012182443-1    000000001950000008
100003617900791537060720120079153706072012FR971742836BR  0000013072012182443-2    000000001950000009
100003618000791538060720120079153806072012FR971742840BR  0000013072012182443-3    000000001950000010
100003618100791539060720120079153906072012FR971742853BR  0000013072012182443-6    000000001950000011
100003618200791540060720120079154006072012FR971742867BR  0000013072012182443-7    000000001950000012
100003619000791541060720120079154106072012FR971742875BR  0000013072012182443-8    000000001950000013
100003624200791548060720120079154806072012FR971742941BR  0000013072012182444-5    000000001950000014
100003624400791550060720120079155006072012FR971742969BR  0000013072012182444-7    000000001950000015
100003625100791557060720120079155706072012FR971743037BR  0000013072012182444-19   000000001950000016
100003625400791560060720120079156006072012FR971743068BR  0000013072012182444-33   000000001950000017
100003625700791563060720120079156306072012FR971743099BR  0000013072012182448-3    000000001950000018
100003627400791568060720120079156806072012FR971743142BR  0000013072012182449-3    000000001950000019
100003627500791569060720120079156906072012FR971743156BR  0000013072012182449-4    000000001950000020
100003628100791571060720120079157106072012FR971743173BR  0000013072012182449-7    000000001950000021
100003629000791576060720120079157606072012FR971743227BR  0000013072012182449-16   000000001950000022
9000021                                                                                       000023
