0RETORNONOTIFICACAO ELETRONICA        12062014OCOR                                            000001
100004743701219280090520140121928009052014FA271156284BR  0000112062014299517-7    000000001950000002
100004769701233437290520140123343729052014FA271263853BR  0000812062014302899-24   000000001950000003
100004773701237886030620140123788603062014FA271297769BR  0000012062014303529-2    000000001950000004
100004775901240826050620140124082605062014FA282972972BR  0000012062014303951-2    000000001950000005
100004776001240827050620140124082705062014FA282972986BR  0000012062014303951-4    000000001950000006
100004778301240835050620140124083505062014FA282973068BR  0000012062014303951-16   000000001950000007
9000006                                                                                       000008
