0RETORNONOTIFICACAO ELETRONICA        01092014OCOR                                            000001
100004886901305554220820140130555422082014FA283447885BR  0000001092014317646-2    000000001950000002
100004889001305563220820140130556322082014FA283447973BR  0000001092014317646-11   000000001950000003
100004889101305564220820140130556422082014FA283447987BR  0000001092014317646-12   000000001950000004
100004889201305565220820140130556522082014FA283447995BR  0000001092014317646-13   000000001950000005
100004889301305566220820140130556622082014FA283448007BR  0000001092014317646-14   000000001950000006
100004889501308631260820140130863126082014FA294413216BR  0000001092014318099-1    000000001950000007
100004889601308632260820140130863226082014FA294413220BR  0000501092014318099-2    000000001950000008
100004891001308635260820140130863526082014FA294413255BR  0000001092014318272-1    000000001950000009
9000008                                                                                       000010
