0RETORNONOTIFICACAO ELETRONICA        05012012OCOR                                            000001
100003263300694296281220110069429628122011RQ046362845BR  0000005012012156767-1    000000002000000002
100003267000694310281220110069431028122011RQ046362964BR  0000005012012156771-2    000000002000000003
100003214900694331281220110069433128122011JL014615707BR  0000005012012156773-16   000000002000000004
100003215000694332281220110069433228122011JL014615715BR  0000005012012156773-17   000000002000000005
100003215100694333281220110069433328122011JL014615724BR  0000005012012156773-18   000000002000000006
100003215500694334281220110069433428122011JL014615738BR  0000005012012156773-19   000000002000000007
100003218700694340281220110069434028122011JL014615772BR  0000005012012156773-25   000000002000000008
100003219100694343281220110069434328122011JL014615809BR  0000005012012156773-28   000000002000000009
100003219200694344281220110069434428122011JL014615812BR  0000005012012156773-29   000000002000000010
9000009                                                                                       000011
