0RETORNONOTIFICACAO ELETRONICA        09082013OCOR                                            000001
100004274701007465300720130100746530072013FA136420033BR  0000009082013248876-3    000000001950000002
100004276201007468300720130100746830072013FA136420064BR  0000009082013248886-1    000000001950000003
100004276001007471300720130100747130072013FA136420095BR  0000009082013248886-5    000000001950000004
100004281701007490310720130100749031072013FA136420197BR  0000009082013248951-1    000000001950000005
100004278601007498310720130100749831072013FA136420271BR  0000009082013248951-9    000000001950000006
100004281801007503310720130100750331072013FA136420325BR  0000009082013248952-6    000000001950000007
100004285201007507310720130100750731072013FA136420360BR  0000009082013249061-3    000000001950000008
100004285501007512310720130100751231072013FA136420413BR  0000109082013249061-8    000000001950000009
100004286101007519310720130100751931072013FA136420489BR  0000009082013249062-4    000000001950000010
100004290001007520310720130100752031072013FA136420492BR  0000009082013249063-1    000000001950000011
100004297401008205010820130100820501082013FA136427147BR  0000009082013249170-2    000000001950000012
100004302601008217010820130100821701082013FA136427266BR  0000009082013249172-12   000000001950000013
100004303501008240010820130100824001082013FA136427495BR  0000009082013249205-4    000000001950000014
100004307101008247010820130100824701082013FA136427561BR  0000009082013249219-3    000000001950000015
100004304901008255010820130100825501082013FA136427646BR  0000009082013249221-2    000000001950000016
100004309601008264010820130100826401082013FA136427734BR  0000009082013249283-14   000000001950000017
100004322401008289010820130100828901082013FA136427986BR  0000009082013249295-45   000000001950000018
100004318601008300010820130100830001082013FA136428099BR  0000009082013249313-1    000000001950000019
100004323101008302010820130100830201082013FA136428111BR  0000009082013249313-3    000000001950000020
100004325301008314010820130100831401082013FA136428235BR  0000009082013249313-35   000000001950000021
100004324501008325010820130100832501082013FA136428346BR  0000009082013249313-62   000000001950000022
9000021                                                                                       000023
