0RETORNONOTIFICACAO ELETRONICA        09022015OCOR                                            000001
100005056801436214300120150143621430012015FA318644287BR  0000009022015342857-1    000000001789000002
100005045901436217300120150143621730012015FA318644313BR  0000009022015343643-1    000000001789000003
100005046901436218300120150143621830012015FA318644327BR  0000009022015343643-2    000000001789000004
100005057601436227300120150143622730012015FA318644415BR  0000009022015343643-11   000000001789000005
100005058801436977020220150143697702022015FA318649602BR  0000009022015344111-3    000000001789000006
9000005                                                                                       000007
