0RETORNONOTIFICACAO ELETRONICA        09112011OCOR                                            000001
100003162000658434031120110065843403112011RQ047920284BR  0000009112011150351-1    000000002000000002
100003162300658437031120110065843703112011RQ047920315BR  0000009112011150351-17   000000002000000003
100003162500658439031120110065843903112011RQ047920338BR  0000009112011150351-19   000000002000000004
100003008600658440031120110065844003112011RQ047920341BR  0000009112011150352-1    000000002000000005
100003008700658441031120110065844103112011RQ047920355BR  0000009112011150352-2    000000002000000006
100003008800658442031120110065844203112011RQ047920369BR  0000009112011150352-3    000000002000000007
100003164700658445031120110065844503112011RQ047920390BR  0000009112011150352-6    000000002000000008
100003164900658447031120110065844703112011RQ047920412BR  0000009112011150352-9    000000002000000009
100003169900658448031120110065844803112011RQ047920426BR  0000009112011150352-10   000000002000000010
100003170000658449031120110065844903112011RQ047920430BR  0000009112011150352-11   000000002000000011
100003170100658450031120110065845003112011RQ047920443BR  0000009112011150352-12   000000002000000012
100003170200658451031120110065845103112011RQ047920457BR  0000009112011150352-13   000000002000000013
100003170300658452031120110065845203112011RQ047920465BR  0000009112011150352-14   000000002000000014
9000013                                                                                       000015
