0RETORNONOTIFICACAO ELETRONICA        12112014OCOR                                            000001
100004997501362364311020140136236431102014FA294808430BR  0000012112014330269-2    000000001789000002
100004997601362365311020140136236531102014FA294808443BR  0000012112014330269-3    000000001789000003
100004997701362366311020140136236631102014FA294808457BR  0000012112014330269-4    000000001789000004
100004999101362370311020140136237031102014FA294808491BR  0000412112014330617-3    000000001789000005
100004999401366359031120140136635903112014FA294845463BR  0000012112014330846-1    000000001789000006
100004999901366361031120140136636103112014FA294845485BR  0000012112014330846-3    000000001789000007
100005000301369639041120140136963904112014FA294862886BR  0000012112014331065-4    000000001789000008
100005001601372227061120140137222706112014FA294881562BR  0001212112014331516-7    000000001789000009
9000008                                                                                       000010
