0RETORNONOTIFICACAO ELETRONICA        03102014OCOR                                            000001
100004911301330264220920140133026422092014FA294569108BR  0000003102014323347-1    000000001789000002
100004917701330269220920140133026922092014FA294569156BR  0000003102014323347-6    000000001789000003
100004919501331473230920140133147323092014FA294576996BR  0000003102014323608-6    000000001789000004
100004921001331485230920140133148523092014FA294577118BR  0000003102014323608-19   000000001789000005
100004922001331495230920140133149523092014FA294577210BR  0000003102014323608-29   000000001789000006
100004923001331505230920140133150523092014FA294577311BR  0000003102014323608-39   000000001789000007
100004925001331525230920140133152523092014FA294577515BR  0000003102014323608-59   000000001789000008
100004925101331526230920140133152623092014FA294577529BR  0000003102014323608-60   000000001789000009
100004925201331527230920140133152723092014FA294577532BR  0000003102014323608-61   000000001789000010
100004925601331531230920140133153123092014FA294577577BR  0000003102014323608-65   000000001789000011
100004926001331535230920140133153523092014FA294577617BR  0000003102014323608-69   000000001789000012
100004926701331542230920140133154223092014FA294577682BR  0000403102014323608-76   000000001789000013
100004926801331543230920140133154323092014FA294577696BR  0000003102014323608-77   000000001789000014
100004927401331549230920140133154923092014FA294577753BR  0000003102014323608-83   000000001789000015
100004929501331570230920140133157023092014FA294577965BR  0000003102014323608-104  000000001789000016
100004929601331571230920140133157123092014FA294577974BR  0000003102014323608-105  000000001789000017
100004929801331573230920140133157323092014FA294577991BR  0000003102014323608-107  000000001789000018
100004930701331582230920140133158223092014FA294578087BR  0000003102014323608-116  000000001789000019
100004933001331605230920140133160523092014FA294578317BR  0000003102014323608-139  000000001789000020
100004933501331610230920140133161023092014FA294578365BR  0000003102014323608-144  000000001789000021
100004935301331628230920140133162823092014FA294578541BR  0000003102014323608-162  000000001789000022
100004941701331692230920140133169223092014FA294579184BR  0000003102014323608-226  000000001789000023
100004942001331695230920140133169523092014FA294579215BR  0000003102014323608-229  000000001789000024
100004942201331697230920140133169723092014FA294579238BR  0000003102014323608-231  000000001789000025
100004942301331698230920140133169823092014FA294579241BR  0000003102014323608-232  000000001789000026
100004942401331699230920140133169923092014FA294579255BR  0000003102014323608-233  000000001789000027
100004943801331713230920140133171323092014FA294579391BR  0000003102014323608-247  000000001789000028
100004944201331717230920140133171723092014FA294579431BR  0000003102014323608-251  000000001789000029
100004947801331753230920140133175323092014FA294579799BR  0000003102014323608-293  000000001789000030
100004947901331754230920140133175423092014FA294579808BR  0000003102014323608-294  000000001789000031
100004948001331755230920140133175523092014FA294579811BR  0000203102014323608-295  000000001789000032
100004949801331773230920140133177323092014FA294579992BR  0000003102014323608-317  000000001789000033
100004951701331792230920140133179223092014FA294580182BR  0000003102014323608-337  000000001789000034
100004952401331799230920140133179923092014FA294580253BR  0000003102014323608-344  000000001789000035
100004952601331801230920140133180123092014FA294580275BR  0000003102014323608-346  000000001789000036
100004953501331810230920140133181023092014FA294580369BR  0000403102014323608-356  000000001789000037
100004953701331812230920140133181223092014FA294580386BR  0000003102014323608-358  000000001789000038
100004953801331813230920140133181323092014FA294580390BR  0000403102014323608-359  000000001789000039
100004953901331814230920140133181423092014FA294580409BR  0000003102014323608-360  000000001789000040
100004954101331816230920140133181623092014FA294580426BR  0000003102014323608-362  000000001789000041
100004955501331830230920140133183023092014FA294580562BR  0000403102014323608-377  000000001789000042
100004955601331831230920140133183123092014FA294580576BR  0000003102014323608-378  000000001789000043
100004955701331832230920140133183223092014FA294580580BR  0000003102014323608-379  000000001789000044
100004956001331835230920140133183523092014FA294580616BR  0000003102014323608-382  000000001789000045
100004956201331837230920140133183723092014FA294580633BR  0000003102014323608-384  000000001789000046
100004958101331856230920140133185623092014FA294580823BR  0000003102014323608-404  000000001789000047
100004959101331866230920140133186623092014FA294580925BR  0000003102014323608-415  000000001789000048
100004959301331868230920140133186823092014FA294580942BR  0000703102014323608-418  000000001789000049
100004960701331882230920140133188223092014FA294581086BR  0001203102014323608-434  000000001789000050
100004960801331883230920140133188323092014FA294581090BR  0000003102014323608-436  000000001789000051
100004961101331886230920140133188623092014FA294581126BR  0000003102014323608-439  000000001789000052
100004961901331894230920140133189423092014FA294581205BR  0000003102014323608-449  000000001789000053
100004962501331900230920140133190023092014FA294581262BR  0000003102014323608-455  000000001789000054
100004963901331914230920140133191423092014FA294581404BR  0000003102014323608-471  000000001789000055
100004964401331919230920140133191923092014FA294581452BR  0000003102014323608-477  000000001789000056
100004964801331923230920140133192323092014FA294581497BR  0000003102014323608-481  000000001789000057
100004965001331925230920140133192523092014FA294581510BR  0000003102014323608-483  000000001789000058
100004966201331937230920140133193723092014FA294581639BR  0000003102014323608-496  000000001789000059
100004967001331945230920140133194523092014FA294581713BR  0000003102014323608-505  000000001789000060
100004967101331946230920140133194623092014FA294581727BR  0000403102014323608-506  000000001789000061
100004967701331952230920140133195223092014FA294581789BR  0000003102014323608-512  000000001789000062
100004968601331961230920140133196123092014FA294581877BR  0000403102014323608-524  000000001789000063
100004969601331971230920140133197123092014FA294581979BR  0000003102014323608-535  000000001789000064
100004971401331989230920140133198923092014FA294582152BR  0000403102014323608-553  000000001789000065
100004974201332017230920140133201723092014FA294582435BR  0000003102014323608-591  000000001789000066
100004974801332023230920140133202323092014FA294582492BR  0001203102014323608-598  000000001789000067
100004976501332040230920140133204023092014FA294582665BR  0000003102014323608-637  000000001789000068
100004976601332041230920140133204123092014FA294582679BR  0000003102014323608-639  000000001789000069
100004977301332048230920140133204823092014FA294582740BR  0000003102014323608-735  000000001789000070
100004977401332049230920140133204923092014FA294582753BR  0000003102014323608-765  000000001789000071
100004977601332051230920140133205123092014FA294582775BR  0000403102014323608-779  000000001789000072
100004977701332052230920140133205223092014FA294582784BR  0000003102014323608-782  000000001789000073
100004978001332055230920140133205523092014FA294582815BR  0000003102014323608-827  000000001789000074
100004918301335729290920140133572929092014FA294612574BR  0000003102014324659-1    000000001789000075
100004978301335730290920140133573029092014FA294612588BR  0000003102014324659-2    000000001789000076
9000075                                                                                       000077
