0RETORNONOTIFICACAO ELETRONICA        06022015OCOR                                            000001
100005035801407335191220140140733519122014FA318465881BR  0000006022015338095-31   000000001789000002
100005034001428070190120150142807019012015FA318595095BR  0000006022015341025-2    000000001789000003
100005046701428084190120150142808419012015FA318595232BR  0000006022015341261-3    000000001789000004
100005049101428090190120150142809019012015FA318595294BR  0000006022015341271-1    000000001789000005
100005049401428093190120150142809319012015FA318595325BR  0000006022015341271-4    000000001789000006
100005051501431013230120150143101323012015FA318612837BR  0000006022015341930-1    000000001789000007
100005052101431014230120150143101423012015FA318612845BR  0000006022015342411-1    000000001789000008
100005052201431015230120150143101523012015FA318612854BR  0000006022015342411-2    000000001789000009
100005052701431017230120150143101723012015FA318612871BR  0000006022015342411-18   000000001789000010
100005052901431019230120150143101923012015FA318612899BR  0000006022015342411-32   000000001789000011
100005053101431021230120150143102123012015FA318612911BR  0000006022015342411-44   000000001789000012
100005054201431032230120150143103223012015FA318613024BR  0000006022015342411-92   000000001789000013
100005054401431034230120150143103423012015FA318613041BR  0000006022015342411-96   000000001789000014
100005054701431037230120150143103723012015FA318613072BR  0000006022015342411-102  000000001789000015
100005055601431046230120150143104623012015FA318613165BR  0000006022015342411-127  000000001789000016
100005057001436216300120150143621630012015FA318644300BR  0000406022015343634-2    000000001789000017
100005047901436219300120150143621930012015FA318644335BR  0000006022015343643-3    000000001789000018
100005050101436220300120150143622030012015FA318644344BR  0000006022015343643-4    000000001789000019
100005050701436221300120150143622130012015FA318644358BR  0000006022015343643-5    000000001789000020
100005051401436222300120150143622230012015FA318644361BR  0000006022015343643-6    000000001789000021
100005057301436224300120150143622430012015FA318644389BR  0000006022015343643-8    000000001789000022
100005058201436231300120150143623130012015FA318644450BR  0000006022015343644-2    000000001789000023
100005058901436978020220150143697802022015FA318649616BR  0000006022015344111-4    000000001789000024
9000023                                                                                       000025
