0RETORNONOTIFICACAO ELETRONICA        12042012OCOR                                            000001
100003456300742243300320120074224330032012FR851843594BR  0000012042012168895-4    000000002000000002
100003460500743894020420120074389402042012FR851860120BR  0000012042012169112-17   000000002000000003
100003461200745395030420120074539503042012FR851875141BR  0000012042012169389-6    000000002000000004
100003463900745403030420120074540303042012FR851875226BR  0000712042012169394-10   000000002000000005
100003464700745405030420120074540503042012FR851875243BR  0002312042012169394-13   000000002000000006
100003468800746476090420120074647609042012FR851886025BR  0000012042012169927-5    000000002000000007
9000006                                                                                       000008
