0RETORNONOTIFICACAO ELETRONICA        08112011OCOR                                            000001
100003162400658438031120110065843803112011RQ047920324BR  0000008112011150351-18   000000002000000002
100003164500658443031120110065844303112011RQ047920372BR  0000008112011150352-4    000000002000000003
100003164800658446031120110065844603112011RQ047920409BR  0000108112011150352-8    000000002000000004
9000003                                                                                       000005
