0RETORNONOTIFICACAO ELETRONICA        06062013OCOR                                            000001
100004217600966169290520130096616929052013FA136030608BR  0000006062013238771-20   000000001950000002
100004222400966172290520130096617229052013FA136030639BR  0000006062013238773-1    000000001950000003
100004222500966173290520130096617329052013FA136030642BR  0000006062013238773-2    000000001950000004
100004229500966180290520130096618029052013FA136030713BR  0000006062013238775-12   000000001950000005
100004229000966185290520130096618529052013FA136030761BR  0000006062013238775-26   000000001950000006
100004227900966196290520130096619629052013FA136030877BR  0000006062013238775-41   000000001950000007
100004227800966197290520130096619729052013FA136030885BR  0000006062013238775-42   000000001950000008
100004224000966205290520130096620529052013FA136030965BR  0000006062013238775-105  000000001950000009
100004227600966206290520130096620629052013FA136030979BR  0000006062013238775-106  000000001950000010
100004223400966208290520130096620829052013FA136030996BR  0000006062013238775-108  000000001950000011
100004217500966213290520130096621329052013FA136031047BR  0000006062013238775-113  000000001950000012
9000011                                                                                       000013
