0RETORNONOTIFICACAO ELETRONICA        06112014OCOR                                            000001
100004995301360895291020140136089529102014FA294799432BR  0000006112014329845-1    000000001789000002
100004995401360896291020140136089629102014FA294799446BR  0000006112014329845-2    000000001789000003
100004995701360897291020140136089729102014FA294799450BR  0000006112014329845-8    000000001789000004
100004996201360906291020140136090629102014FA294799548BR  0000006112014329920-2    000000001789000005
100004996601360910291020140136091029102014FA294799582BR  0000006112014329920-7    000000001789000006
100004997801362367311020140136236731102014FA294808465BR  0000006112014330269-5    000000001789000007
100004999301362372311020140136237231102014FA294808514BR  0000206112014330617-15   000000001789000008
9000007                                                                                       000009
