0RETORNONOTIFICACAO ELETRONICA        04082014OCOR                                            000001
100004847301279737220720140127973722072014FA283264520BR  0000004082014311242-5    000000001950000002
100004853901281068240720140128106824072014FA283274249BR  0000004082014312091-3    000000001950000003
100004854001281069240720140128106924072014FA283274252BR  0000004082014312091-5    000000001950000004
100004855601281077240720140128107724072014FA283274337BR  0000004082014312278-3    000000001950000005
100004857801286218290720140128621829072014FA283311397BR  0000004082014312476-1    000000001950000006
100004858001286220290720140128622029072014FA283311410BR  0000004082014312476-3    000000001950000007
100004858101286221290720140128622129072014FA283311423BR  0000004082014312476-4    000000001950000008
100004859001286225290720140128622529072014FA283311468BR  0000004082014312476-8    000000001950000009
100004861101286227290720140128622729072014FA283311485BR  0000004082014312999-2    000000001950000010
100004861301286229290720140128622929072014FA283311508BR  0000004082014312999-4    000000001950000011
100004861701286231290720140128623129072014FA283311525BR  0000004082014312999-6    000000001950000012
100004862501287590310720140128759031072014FA283318727BR  0000004082014313298-2    000000001950000013
9000012                                                                                       000014
