0RETORNONOTIFICACAO ELETRONICA        07072014OCOR                                            000001
100004793701249146160620140124914616062014FA283034019BR  0000007072014305572-93   000000001950000002
100004796001249169160620140124916916062014FA283034243BR  0000007072014305572-170  000000001950000003
100004823201254343250620140125434325062014FA283072388BR  0000007072014306823-7    000000001950000004
100004825801257181260620140125718126062014FA283093811BR  0000007072014307383-2    000000001950000005
100004826401260321010720140126032101072014FA283115256BR  0000007072014308139-1    000000001950000006
100004826501260322010720140126032201072014FA283115260BR  0000207072014308139-2    000000001950000007
100004827701260324010720140126032401072014FA283115287BR  0000107072014308141-2    000000001950000008
100004827801260325010720140126032501072014FA283115295BR  0000007072014308141-3    000000001950000009
100004827901260326010720140126032601072014FA283115300BR  0000007072014308141-4    000000001950000010
100004828701260329010720140126032901072014FA283115335BR  0000007072014308141-12   000000001950000011
100004829401260330010720140126033001072014FA283115344BR  0000007072014308141-13   000000001950000012
100004829501260331010720140126033101072014FA283115358BR  0000007072014308141-14   000000001950000013
100004829701260333010720140126033301072014FA283115375BR  0000207072014308141-28   000000001950000014
100004829801260334010720140126033401072014FA283115389BR  0000007072014308141-31   000000001950000015
100004829901260335010720140126033501072014FA283115392BR  0000107072014308141-35   000000001950000016
100004830001260336010720140126033601072014FA283115401BR  0000007072014308141-40   000000001950000017
100004830201260338010720140126033801072014FA283115429BR  0000207072014308210-2    000000001950000018
9000017                                                                                       000019
