0RETORNONOTIFICACAO ELETRONICA        04022014OCOR                                            000001
100004611801126224280120140112622428012014FA245734316BR  0000004022014280781-3    000000001950000002
100004615101126229280120140112622928012014FA245734364BR  0000004022014280992-3    000000001950000003
100004616201126918290120140112691829012014FA245741833BR  0000004022014281569-1    000000001950000004
100004622701130403310120140113040331012014FA245775868BR  0000004022014282142-6    000000001950000005
9000004                                                                                       000006
