0RETORNONOTIFICACAO ELETRONICA        03022014OCOR                                            000001
100004610401122613220120140112261322012014FA245701763BR  0000003022014279976-2    000000001950000002
100004615001126228280120140112622828012014FA245734355BR  0000003022014280992-2    000000001950000003
100004617501126920290120140112692029012014FA245741855BR  0000203022014281570-2    000000001950000004
9000003                                                                                       000005
