0RETORNONOTIFICACAO ELETRONICA        01032012OCOR                                            000001
100003362700714288070220120071428807022012RQ049757135BR  0000801032012162034-3    000000002000000002
100003375400716441130220120071644113022012RQ049780562BR  0001201032012162995-2    000000002000000003
100003380700717339140220120071733914022012RQ049788019BR  0000401032012163408-9    000000002000000004
100003386800720182230220120072018223022012RQ030499032BR  0000701032012163844-3    000000002000000005
100003387200720186230220120072018623022012RQ030499077BR  0000001032012163844-8    000000002000000006
100003387500720189230220120072018923022012RQ030499103BR  0000001032012163845-7    000000002000000007
100003384300720192230220120072019223022012RQ030499134BR  0000001032012163573-1    000000002000000008
9000007                                                                                       000009
