0RETORNONOTIFICACAO ELETRONICA        10112011OCOR                                            000001
100003153900652774281020110065277428102011JL014589627BR  0000010112011149637-11   000000002000000002
100003159700653134311020110065313431102011RQ047867867BR  0000010112011149816-9    000000002000000003
100003159800653135311020110065313531102011RQ047867875BR  0000010112011149816-10   000000002000000004
100003159900653136311020110065313631102011RQ047867884BR  0000010112011149816-11   000000002000000005
100003162200658436031120110065843603112011RQ047920307BR  0000010112011150351-14   000000002000000006
9000005                                                                                       000007
