0RETORNONOTIFICACAO ELETRONICA        04092012OCOR                                            000001
100003709900816719220820120081671922082012FR971987520BR  0001204092012189807-13   000000001950000002
100003711800816727220820120081672722082012FR971987604BR  0001204092012189811-6    000000001950000003
100003714500816734220820120081673422082012FR971987670BR  0000204092012189817-9    000000001950000004
100003727600819468280820120081946828082012FA012316223BR  0000004092012190576-5    000000001950000005
100003734800819499280820120081949928082012FA012316532BR  0000704092012190601-53   000000001950000006
100003736800819519280820120081951928082012FA012316736BR  0000904092012190601-167  000000001950000007
100003737100819522280820120081952228082012FA012316767BR  0000904092012190601-204  000000001950000008
100003737200819523280820120081952328082012FA012316775BR  0000904092012190601-206  000000001950000009
9000008                                                                                       000010
