0RETORNONOTIFICACAO ELETRONICA        02062014OCOR                                            000001
100004724201206602280420140120660228042014FA271048948BR  0000002062014297531-3    000000001950000002
100004759201225635220520140122563522052014FA271201275BR  0000002062014301378-10   000000001950000003
100004759301225636220520140122563622052014FA271201289BR  0000002062014301378-11   000000001950000004
100004759401225637220520140122563722052014FA271201292BR  0000002062014301378-12   000000001950000005
100004759501225695220520140122569522052014FA271201831BR  0000002062014301769-1    000000001950000006
100004761101227088260520140122708826052014FA271212131BR  0000002062014302002-1    000000001950000007
100004761201227089260520140122708926052014FA271212145BR  0000002062014302002-4    000000001950000008
100004762601232571280520140123257128052014FA271256971BR  0000002062014302577-2    000000001950000009
100004762701232572280520140123257228052014FA271256985BR  0000002062014302577-3    000000001950000010
100004762901232574280520140123257428052014FA271257005BR  0000002062014302577-5    000000001950000011
100004765601232578280520140123257828052014FA271257040BR  0000002062014302578-1    000000001950000012
100004765901232581280520140123258128052014FA271257075BR  0000102062014302578-4    000000001950000013
100004766201232584280520140123258428052014FA271257107BR  0000002062014302578-7    000000001950000014
100004767801232585280520140123258528052014FA271257115BR  0000002062014302578-14   000000001950000015
100004768301233434290520140123343429052014FA271263822BR  0000002062014302899-5    000000001950000016
9000015                                                                                       000017
