0RETORNONOTIFICACAO ELETRONICA        02122014OCOR                                            000001
100005012701382296181120140138229618112014FA318270219BR  0000002122014333314-89   000000001789000002
100005013401382303181120140138230318112014FA318270284BR  0000002122014333314-114  000000001789000003
100005013701385970241120140138597024112014FA318298565BR  0000002122014334164-4    000000001789000004
100005016201385973241120140138597324112014FA318298591BR  0000002122014334164-8    000000001789000005
100005016401385975241120140138597524112014FA318298614BR  0000002122014334164-10   000000001789000006
100005017001385979241120140138597924112014FA318298659BR  0000002122014334164-16   000000001789000007
100005017401390134271120140139013427112014FA318324654BR  0000002122014334341-2    000000001789000008
9000007                                                                                       000009
