0RETORNONOTIFICACAO ELETRONICA        11122012OCOR                                            000001
100003876000864467281120120086446728112012FA062948850BR  0000011122012207251-8    000000001950000002
100003887100865161301120120086516130112012FA062955113BR  0000011122012207733-2    000000001950000003
100003890100865168301120120086516830112012FA062955189BR  0000011122012207753-2    000000001950000004
100003892700865174301120120086517430112012FA062955246BR  0000011122012207805-4    000000001950000005
100003891400865198301120120086519830112012FA062955484BR  0000011122012207901-135  000000001950000006
100003901300869176051220120086917605122012FA062992907BR  0000011122012208362-1    000000001950000007
100003906300869179051220120086917905122012FA062992938BR  0000111122012208362-11   000000001950000008
100003906200869180051220120086918005122012FA062992941BR  0000011122012208362-14   000000001950000009
100003906100869181051220120086918105122012FA062992955BR  0000011122012208362-15   000000001950000010
100003906000869182051220120086918205122012FA062992969BR  0000011122012208362-16   000000001950000011
100003905700869185051220120086918505122012FA062992990BR  0000011122012208362-30   000000001950000012
100003905100869191051220120086919105122012FA062993054BR  0000011122012208362-53   000000001950000013
100003905000869192051220120086919205122012FA062993068BR  0000011122012208362-55   000000001950000014
100003904900869193051220120086919305122012FA062993071BR  0000011122012208362-56   000000001950000015
100003904800869194051220120086919405122012FA062993085BR  0000011122012208362-57   000000001950000016
100003904700869195051220120086919505122012FA062993099BR  0000011122012208362-58   000000001950000017
100003904400869198051220120086919805122012FA062993125BR  0000011122012208362-61   000000001950000018
100003903600869203051220120086920305122012FA062993173BR  0000011122012208362-96   000000001950000019
100003903000869208051220120086920805122012FA062993227BR  0000011122012208362-105  000000001950000020
100003901000869210051220120086921005122012FA062993244BR  0000011122012208362-107  000000001950000021
100003901100869211051220120086921105122012FA062993258BR  0000011122012208362-108  000000001950000022
100003907000869214051220120086921405122012FA062993289BR  0000011122012208366-5    000000001950000023
100003906600869215051220120086921505122012FA062993292BR  0000011122012208366-7    000000001950000024
100003906500869216051220120086921605122012FA062993301BR  0000011122012208366-8    000000001950000025
100003906700869218051220120086921805122012FA062993329BR  0000011122012208366-10   000000001950000026
100003909600869220051220120086922005122012FA062993346BR  0000011122012208643-1    000000001950000027
100003909700869221051220120086922105122012FA062993350BR  0000011122012208643-2    000000001950000028
100003909500869224051220120086922405122012FA062993385BR  0000011122012208643-6    000000001950000029
100003909400869226051220120086922605122012FA062993403BR  0000011122012208643-8    000000001950000030
100003910000869227051220120086922705122012FA062993417BR  0000011122012208643-9    000000001950000031
100003913400870094061220120087009406122012FA063001682BR  0000011122012208922-13   000000001950000032
100003913300870105061220120087010506122012FA063001798BR  0000011122012208922-92   000000001950000033
9000032                                                                                       000034
