0RETORNONOTIFICACAO ELETRONICA        12092014OCOR                                            000001
100004895001315431030920140131543103092014FA294460729BR  0000012092014318998-3    000000001789000002
100004894701315436030920140131543603092014FA294460777BR  0000012092014319696-1    000000001789000003
100004897101315438030920140131543803092014FA294460794BR  0000012092014319696-3    000000001789000004
100004897801315442030920140131544203092014FA294460834BR  0000012092014319696-7    000000001789000005
100004901801315453030920140131545303092014FA294460940BR  0000012092014319778-3    000000001789000006
100004906001321372090920140132137209092014FA294503424BR  0000012092014320413-113  000000001789000007
100004906001321373090920140132137309092014FA294503438BR  0000012092014320413-143  000000001789000008
100004906601321375090920140132137509092014FA294503455BR  0000012092014320461-2    000000001789000009
100004906701321376090920140132137609092014FA294503469BR  0000012092014320461-3    000000001789000010
100004907601321385090920140132138509092014FA294503557BR  0000012092014320743-9    000000001789000011
100004907701321386090920140132138609092014FA294503565BR  0000012092014320743-10   000000001789000012
9000011                                                                                       000013
