0RETORNONOTIFICACAO ELETRONICA        05112014OCOR                                            000001
100004992101355140211020140135514021102014FA294757260BR  0000005112014328510-2    000000001789000002
100004993901356638231020140135663823102014FA294769149BR  0000705112014329162-2    000000001789000003
100004995801360898291020140136089829102014FA294799463BR  0000005112014329845-13   000000001789000004
100004996101360905291020140136090529102014FA294799534BR  0000005112014329920-1    000000001789000005
100004996501360909291020140136090929102014FA294799579BR  0000005112014329920-6    000000001789000006
100004997201360914291020140136091429102014FA294799622BR  0000005112014329920-11   000000001789000007
100004999001362369311020140136236931102014FA294808488BR  0000105112014330617-2    000000001789000008
9000007                                                                                       000009
