0RETORNONOTIFICACAO ELETRONICA        04102011OCOR                                            000001
100003072200626733210920110062673321092011JL014578536BR  0000004102011145285-2    000000002000000002
100003074400629728220920110062972822092011RM948846908BR  0000004102011145571-1    000000002000000003
100003074500629729220920110062972922092011RM948846911BR  0000004102011145571-2    000000002000000004
100003077200632844260920110063284426092011RM948881065BR  0000004102011145748-1    000000002000000005
100003082100632848260920110063284826092011RM948881105BR  0000004102011145817-2    000000002000000006
100003082300634405270920110063440527092011RM948895064BR  0000004102011145977-5    000000002000000007
100003082400634406270920110063440627092011RM948895078BR  0000004102011145977-6    000000002000000008
100003084100634998280920110063499828092011RM948899565BR  0000004102011146248-1    000000002000000009
100003084400635001280920110063500128092011RM948899596BR  0000004102011146248-5    000000002000000010
9000009                                                                                       000011
