0RETORNONOTIFICACAO ELETRONICA        10092013OCOR                                            000001
100004373501026457020920130102645702092013FA159251307BR  0000010092013254496-3    000000001950000002
100004358601026461020920130102646102092013FA159251341BR  0000010092013254496-7    000000001950000003
100004362601026462020920130102646202092013FA159251355BR  0000010092013254496-8    000000001950000004
100004354801026471020920130102647102092013FA159251443BR  0000010092013254496-17   000000001950000005
100004375201026473020920130102647302092013FA159251465BR  0000010092013254497-2    000000001950000006
100004376901026486020920130102648602092013FA159251593BR  0000010092013254712-1    000000001950000007
100004377001026487020920130102648702092013FA159251602BR  0000010092013254712-2    000000001950000008
100004378001027053030920130102705303092013FA159256560BR  0000010092013254899-2    000000001950000009
100004382601029926050920130102992605092013FA159283914BR  0000010092013255609-24   000000001950000010
100004386801029985050920130102998505092013FA159284509BR  0000010092013255627-84   000000001950000011
9000010                                                                                       000012
