0RETORNONOTIFICACAO ELETRONICA        09042012OCOR                                            000001
100003456400742244300320120074224430032012FR851843603BR  0000009042012168895-5    000000002000000002
100003458000743884020420120074388402042012FR851860028BR  0000009042012169112-1    000000002000000003
100003458300743887020420120074388702042012FR851860059BR  0000009042012169112-5    000000002000000004
100003458400743888020420120074388802042012FR851860062BR  0000009042012169112-11   000000002000000005
100003458500743889020420120074388902042012FR851860076BR  0000009042012169112-12   000000002000000006
100003458600743890020420120074389002042012FR851860080BR  0000009042012169112-13   000000002000000007
100003460400743893020420120074389302042012FR851860116BR  0000009042012169112-16   000000002000000008
100003464600745404030420120074540403042012FR851875230BR  0000009042012169394-12   000000002000000009
9000008                                                                                       000010
