0RETORNONOTIFICACAO ELETRONICA        02102014OCOR                                            000001
100004920001331475230920140133147523092014FA294577016BR  0000002102014323608-8    000000001789000002
100004920801331483230920140133148323092014FA294577095BR  0000002102014323608-17   000000001789000003
100004931001331585230920140133158523092014FA294578113BR  0000402102014323608-119  000000001789000004
100004931401331589230920140133158923092014FA294578158BR  0000002102014323608-123  000000001789000005
100004937901331654230920140133165423092014FA294578802BR  0000702102014323608-188  000000001789000006
100004938301331658230920140133165823092014FA294578847BR  0000002102014323608-192  000000001789000007
100004939101331666230920140133166623092014FA294578921BR  0000402102014323608-200  000000001789000008
100004939401331669230920140133166923092014FA294578952BR  0000002102014323608-203  000000001789000009
100004940001331675230920140133167523092014FA294579017BR  0000402102014323608-209  000000001789000010
100004940801331683230920140133168323092014FA294579096BR  0000002102014323608-217  000000001789000011
100004941501331690230920140133169023092014FA294579167BR  0000002102014323608-224  000000001789000012
100004941601331691230920140133169123092014FA294579175BR  0000002102014323608-225  000000001789000013
100004942601331701230920140133170123092014FA294579272BR  0000002102014323608-235  000000001789000014
100004942701331702230920140133170223092014FA294579286BR  0000002102014323608-236  000000001789000015
100004942801331703230920140133170323092014FA294579290BR  0000002102014323608-237  000000001789000016
100004942901331704230920140133170423092014FA294579309BR  0000002102014323608-238  000000001789000017
100004943001331705230920140133170523092014FA294579312BR  0000002102014323608-239  000000001789000018
100004943601331711230920140133171123092014FA294579374BR  0000402102014323608-245  000000001789000019
100004944701331722230920140133172223092014FA294579480BR  0000002102014323608-257  000000001789000020
100004944801331723230920140133172323092014FA294579493BR  0000002102014323608-258  000000001789000021
100004945001331725230920140133172523092014FA294579516BR  0000002102014323608-260  000000001789000022
100004946001331735230920140133173523092014FA294579618BR  0000002102014323608-273  000000001789000023
100004946201331737230920140133173723092014FA294579635BR  0000002102014323608-275  000000001789000024
100004946501331740230920140133174023092014FA294579666BR  0000002102014323608-278  000000001789000025
100004946601331741230920140133174123092014FA294579670BR  0000002102014323608-279  000000001789000026
100004947001331745230920140133174523092014FA294579710BR  0000002102014323608-283  000000001789000027
100004947101331746230920140133174623092014FA294579723BR  0000002102014323608-284  000000001789000028
100004947501331750230920140133175023092014FA294579768BR  0000002102014323608-289  000000001789000029
100004947701331752230920140133175223092014FA294579785BR  0000702102014323608-292  000000001789000030
100004948301331758230920140133175823092014FA294579842BR  0000002102014323608-298  000000001789000031
100004948401331759230920140133175923092014FA294579856BR  0000002102014323608-299  000000001789000032
100004948601331761230920140133176123092014FA294579873BR  0000002102014323608-302  000000001789000033
100004948701331762230920140133176223092014FA294579887BR  0000002102014323608-303  000000001789000034
100004949701331772230920140133177223092014FA294579989BR  0000702102014323608-316  000000001789000035
100004950301331778230920140133177823092014FA294580046BR  0000002102014323608-322  000000001789000036
100004951001331785230920140133178523092014FA294580117BR  0000502102014323608-330  000000001789000037
100004951201331787230920140133178723092014FA294580134BR  0000002102014323608-332  000000001789000038
100004951401331789230920140133178923092014FA294580151BR  0000002102014323608-334  000000001789000039
100004951601331791230920140133179123092014FA294580179BR  0000002102014323608-336  000000001789000040
100004951801331793230920140133179323092014FA294580196BR  0000002102014323608-338  000000001789000041
100004952101331796230920140133179623092014FA294580222BR  0000002102014323608-341  000000001789000042
100004952201331797230920140133179723092014FA294580236BR  0000002102014323608-342  000000001789000043
100004952501331800230920140133180023092014FA294580267BR  0000002102014323608-345  000000001789000044
100004953201331807230920140133180723092014FA294580338BR  0000002102014323608-352  000000001789000045
100004953401331809230920140133180923092014FA294580355BR  0000002102014323608-355  000000001789000046
100004953601331811230920140133181123092014FA294580372BR  0000002102014323608-357  000000001789000047
100004954201331817230920140133181723092014FA294580430BR  0000002102014323608-363  000000001789000048
100004954701331822230920140133182223092014FA294580488BR  0000702102014323608-369  000000001789000049
100004954801331823230920140133182323092014FA294580491BR  0000702102014323608-370  000000001789000050
100004955101331826230920140133182623092014FA294580528BR  0000002102014323608-373  000000001789000051
100004955201331827230920140133182723092014FA294580531BR  0000002102014323608-374  000000001789000052
100004955901331834230920140133183423092014FA294580602BR  0000002102014323608-381  000000001789000053
100004956101331836230920140133183623092014FA294580620BR  0000002102014323608-383  000000001789000054
100004956301331838230920140133183823092014FA294580647BR  0000002102014323608-385  000000001789000055
100004956401331839230920140133183923092014FA294580655BR  0000002102014323608-386  000000001789000056
100004956601331841230920140133184123092014FA294580678BR  0000002102014323608-388  000000001789000057
100004956701331842230920140133184223092014FA294580681BR  0000002102014323608-389  000000001789000058
100004957101331846230920140133184623092014FA294580721BR  0000002102014323608-393  000000001789000059
100004957301331848230920140133184823092014FA294580749BR  0000002102014323608-396  000000001789000060
100004957601331851230920140133185123092014FA294580770BR  0000002102014323608-399  000000001789000061
100004958401331859230920140133185923092014FA294580854BR  0000002102014323608-408  000000001789000062
100004958601331861230920140133186123092014FA294580871BR  0000002102014323608-410  000000001789000063
100004958701331862230920140133186223092014FA294580885BR  0000002102014323608-411  000000001789000064
100004958801331863230920140133186323092014FA294580899BR  0000002102014323608-412  000000001789000065
100004958901331864230920140133186423092014FA294580908BR  0000002102014323608-413  000000001789000066
100004959001331865230920140133186523092014FA294580911BR  0000002102014323608-414  000000001789000067
100004959401331869230920140133186923092014FA294580956BR  0000002102014323608-419  000000001789000068
100004959501331870230920140133187023092014FA294580960BR  0000002102014323608-420  000000001789000069
100004959801331873230920140133187323092014FA294580995BR  0000002102014323608-423  000000001789000070
100004960201331877230920140133187723092014FA294581038BR  0000002102014323608-427  000000001789000071
100004960301331878230920140133187823092014FA294581041BR  0000002102014323608-429  000000001789000072
100004961001331885230920140133188523092014FA294581112BR  0000002102014323608-438  000000001789000073
100004961301331888230920140133188823092014FA294581143BR  0000002102014323608-442  000000001789000074
100004961801331893230920140133189323092014FA294581191BR  0000002102014323608-448  000000001789000075
100004962001331895230920140133189523092014FA294581214BR  0000002102014323608-450  000000001789000076
100004962201331897230920140133189723092014FA294581231BR  0000002102014323608-452  000000001789000077
100004962401331899230920140133189923092014FA294581259BR  0000002102014323608-454  000000001789000078
100004962601331901230920140133190123092014FA294581276BR  0000002102014323608-456  000000001789000079
100004962701331902230920140133190223092014FA294581280BR  0000002102014323608-457  000000001789000080
100004962901331904230920140133190423092014FA294581302BR  0000002102014323608-460  000000001789000081
100004963001331905230920140133190523092014FA294581316BR  0000002102014323608-461  000000001789000082
100004963101331906230920140133190623092014FA294581320BR  0000002102014323608-462  000000001789000083
100004963201331907230920140133190723092014FA294581333BR  0000002102014323608-463  000000001789000084
100004963601331911230920140133191123092014FA294581378BR  0000002102014323608-468  000000001789000085
100004963701331912230920140133191223092014FA294581381BR  0000002102014323608-469  000000001789000086
100004963801331913230920140133191323092014FA294581395BR  0000002102014323608-470  000000001789000087
100004965101331926230920140133192623092014FA294581523BR  0000002102014323608-484  000000001789000088
100004965501331930230920140133193023092014FA294581568BR  0000002102014323608-488  000000001789000089
100004966101331936230920140133193623092014FA294581625BR  0000002102014323608-495  000000001789000090
100004966301331938230920140133193823092014FA294581642BR  0000702102014323608-497  000000001789000091
100004966501331940230920140133194023092014FA294581660BR  0000002102014323608-500  000000001789000092
100004966601331941230920140133194123092014FA294581673BR  0000002102014323608-501  000000001789000093
100004966901331944230920140133194423092014FA294581700BR  0000002102014323608-504  000000001789000094
100004967501331950230920140133195023092014FA294581761BR  0000002102014323608-510  000000001789000095
100004968101331956230920140133195623092014FA294581829BR  0000002102014323608-517  000000001789000096
100004968401331959230920140133195923092014FA294581850BR  0000002102014323608-522  000000001789000097
100004969001331965230920140133196523092014FA294581917BR  0000002102014323608-528  000000001789000098
100004969101331966230920140133196623092014FA294581925BR  0000002102014323608-529  000000001789000099
100004969801331973230920140133197323092014FA294581996BR  0000002102014323608-537  000000001789000100
100004969901331974230920140133197423092014FA294582002BR  0000002102014323608-538  000000001789000101
100004970001331975230920140133197523092014FA294582016BR  0000002102014323608-539  000000001789000102
100004970101331976230920140133197623092014FA294582020BR  0000002102014323608-540  000000001789000103
100004970601331981230920140133198123092014FA294582078BR  0000002102014323608-545  000000001789000104
100004971001331985230920140133198523092014FA294582118BR  0000002102014323608-549  000000001789000105
100004972201331997230920140133199723092014FA294582237BR  0000002102014323608-566  000000001789000106
100004972301331998230920140133199823092014FA294582245BR  0000702102014323608-567  000000001789000107
100004972401331999230920140133199923092014FA294582254BR  0000002102014323608-568  000000001789000108
100004972501332000230920140133200023092014FA294582268BR  0000002102014323608-569  000000001789000109
100004972801332003230920140133200323092014FA294582299BR  0000002102014323608-573  000000001789000110
100004973101332006230920140133200623092014FA294582325BR  0000002102014323608-578  000000001789000111
100004973701332012230920140133201223092014FA294582387BR  0000002102014323608-585  000000001789000112
100004973801332013230920140133201323092014FA294582395BR  0000002102014323608-586  000000001789000113
100004974001332015230920140133201523092014FA294582413BR  0000002102014323608-588  000000001789000114
100004974101332016230920140133201623092014FA294582427BR  0000002102014323608-589  000000001789000115
100004974401332019230920140133201923092014FA294582458BR  0000002102014323608-593  000000001789000116
100004974601332021230920140133202123092014FA294582475BR  0000002102014323608-595  000000001789000117
100004974901332024230920140133202423092014FA294582501BR  0000002102014323608-599  000000001789000118
100004975101332026230920140133202623092014FA294582529BR  0000002102014323608-601  000000001789000119
100004975301332028230920140133202823092014FA294582546BR  0000002102014323608-603  000000001789000120
100004975901332034230920140133203423092014FA294582603BR  0000002102014323608-610  000000001789000121
100004976301332038230920140133203823092014FA294582648BR  0000002102014323608-631  000000001789000122
100004976401332039230920140133203923092014FA294582651BR  0000002102014323608-634  000000001789000123
100004976701332042230920140133204223092014FA294582682BR  0000002102014323608-666  000000001789000124
100004977101332046230920140133204623092014FA294582722BR  0000002102014323608-709  000000001789000125
100004977201332047230920140133204723092014FA294582736BR  0000002102014323608-720  000000001789000126
100004977501332050230920140133205023092014FA294582767BR  0000202102014323608-776  000000001789000127
100004977801332053230920140133205323092014FA294582798BR  0000202102014323608-806  000000001789000128
100004977901332054230920140133205423092014FA294582807BR  0000002102014323608-810  000000001789000129
100004978501333391250920140133339125092014FA294590953BR  0000002102014324131-1    000000001789000130
100004978701333393250920140133339325092014FA294590975BR  0000002102014324131-3    000000001789000131
9000130                                                                                       000132
