0RETORNONOTIFICACAO ELETRONICA        10052013OCOR                                            000001
100004083500926714010420130092671401042013FA105100405BR  0000010052013229000-9    000000001950000002
100004135500948040300420130094804030042013FA105079416BR  0000010052013233983-7    000000001950000003
100004138700948047300420130094804730042013FA105079481BR  0000010052013233986-2    000000001950000004
100004144400948073300420130094807330042013FA105079742BR  0000010052013233990-22   000000001950000005
100004147900948083300420130094808330042013FA105079844BR  0000010052013233993-3    000000001950000006
100004151500948097300420130094809730042013FA105079985BR  0000010052013233994-13   000000001950000007
100004160100948104300420130094810430042013FA105080051BR  0000010052013233997-5    000000001950000008
100004169100948115300420130094811530042013FA105080167BR  0000010052013234000-2    000000001950000009
100004169000948116300420130094811630042013FA105080175BR  0000010052013234000-8    000000001950000010
100004165400948124300420130094812430042013FA105080255BR  0000010052013234000-18   000000001950000011
100004171800948614020520130094861402052013FA105083778BR  0000810052013234084-5    000000001950000012
9000011                                                                                       000013
