0RETORNONOTIFICACAO ELETRONICA        04022015OCOR                                            000001
100005054001431030230120150143103023012015FA318613007BR  0000004022015342411-86   000000001789000002
100005054601431036230120150143103623012015FA318613069BR  0000004022015342411-99   000000001789000003
100005055801431048230120150143104823012015FA318613188BR  0000004022015342411-135  000000001789000004
100005056901436215300120150143621530012015FA318644295BR  0000004022015343634-1    000000001789000005
9000004                                                                                       000006
