0RETORNONOTIFICACAO ELETRONICA        03122012OCOR                                            000001
100003863400860061211120120086006121112012FA062908705BR  0000003122012205810-5    000000001950000002
100003869700860081211120120086008121112012FA062908904BR  0000003122012205815-5    000000001950000003
100003871500860082211120120086008221112012FA062908918BR  0000003122012205815-6    000000001950000004
100003871800861517231120120086151723112012FA062922424BR  0000003122012206124-2    000000001950000005
100003872000861519231120120086151923112012FA062922441BR  0000003122012206124-6    000000001950000006
100003873000861520231120120086152023112012FA062922455BR  0000003122012206124-7    000000001950000007
100003873800861521231120120086152123112012FA062922469BR  0000003122012206127-1    000000001950000008
100003873900861522231120120086152223112012FA062922472BR  0000003122012206127-2    000000001950000009
100003877700864460281120120086446028112012FA062948789BR  0000003122012207251-1    000000001950000010
100003876900864461281120120086446128112012FA062948792BR  0000003122012207251-2    000000001950000011
100003877600864462281120120086446228112012FA062948801BR  0000003122012207251-3    000000001950000012
100003877900864463281120120086446328112012FA062948815BR  0000003122012207251-4    000000001950000013
100003878000864464281120120086446428112012FA062948829BR  0000003122012207251-5    000000001950000014
100003879400864469281120120086446928112012FA062948877BR  0000003122012207252-1    000000001950000015
100003882300864476281120120086447628112012FA062948948BR  0000003122012207253-1    000000001950000016
100003881800864477281120120086447728112012FA062948951BR  0000003122012207253-2    000000001950000017
100003881900864478281120120086447828112012FA062948965BR  0000003122012207253-3    000000001950000018
100003882100864480281120120086448028112012FA062948982BR  0000003122012207253-6    000000001950000019
100003882200864481281120120086448128112012FA062948996BR  0000003122012207253-8    000000001950000020
100003884100864482281120120086448228112012FA062949002BR  0000003122012207255-1    000000001950000021
100003884300864485281120120086448528112012FA062949033BR  0000003122012207255-7    000000001950000022
100003885200864488281120120086448828112012FA062949064BR  0000003122012207255-10   000000001950000023
100003885800864489281120120086448928112012FA062949078BR  0000003122012207255-11   000000001950000024
100003885700864490281120120086449028112012FA062949081BR  0000003122012207255-12   000000001950000025
100003885600864491281120120086449128112012FA062949095BR  0000003122012207255-13   000000001950000026
100003885500864492281120120086449228112012FA062949104BR  0000003122012207255-14   000000001950000027
100003885400864493281120120086449328112012FA062949118BR  0000003122012207255-15   000000001950000028
100003884200864495281120120086449528112012FA062949135BR  0000003122012207255-17   000000001950000029
9000028                                                                                       000030
