0RETORNONOTIFICACAO ELETRONICA        11022014OCOR                                            000001
100004605001132414040220140113241404022014FA245794782BR  0000011022014282557-1    000000001950000002
100004605301132415040220140113241504022014FA245794796BR  0000111022014282557-2    000000001950000003
100004606701132416040220140113241604022014FA245794805BR  0000011022014282557-3    000000001950000004
100004610001132417040220140113241704022014FA245794819BR  0000011022014282557-4    000000001950000005
100004613801132423040220140113242304022014FA245794875BR  0000011022014282557-10   000000001950000006
100004615901132430040220140113243004022014FA245794941BR  0000011022014282557-17   000000001950000007
100004616701132431040220140113243104022014FA245794955BR  0000011022014282557-18   000000001950000008
100004617801132432040220140113243204022014FA245794969BR  0000011022014282557-19   000000001950000009
100004623701132438040220140113243804022014FA245795023BR  0000011022014282557-25   000000001950000010
100004624401132440040220140113244004022014FA245795045BR  0000011022014282557-27   000000001950000011
100004625701132443040220140113244304022014FA245795071BR  0000011022014282810-3    000000001950000012
100004625801132444040220140113244404022014FA245795085BR  0000011022014282810-4    000000001950000013
9000012                                                                                       000014
