0RETORNONOTIFICACAO ELETRONICA        11122013OCOR                                            000001
100004537201084529271120130108452927112013FA188159070BR  0000011122013270698-19   000000001950000002
100004505401090269031220130109026903122013FA188214862BR  0000011122013271841-2    000000001950000003
100004546001090272031220130109027203122013FA188214893BR  0000011122013271841-5    000000001950000004
100004533701090273031220130109027303122013FA188214902BR  0000011122013271841-6    000000001950000005
100004545601090275031220130109027503122013FA188214920BR  0000011122013271841-8    000000001950000006
100004524101090285031220130109028503122013FA188215029BR  0000011122013271841-21   000000001950000007
100004548401090782041220130109078204122013FA188218285BR  0000011122013272053-5    000000001950000008
100004548501090783041220130109078304122013FA188218294BR  0000011122013272053-6    000000001950000009
9000008                                                                                       000010
