0RETORNONOTIFICACAO ELETRONICA        12092013OCOR                                            000001
100004368801026466020920130102646602092013FA159251390BR  0000812092013254496-12   000000001950000002
100004360101026469020920130102646902092013FA159251426BR  0000012092013254496-15   000000001950000003
100004360201026470020920130102647002092013FA159251430BR  0000012092013254496-16   000000001950000004
100004366601026475020920130102647502092013FA159251488BR  0000012092013254497-4    000000001950000005
100004355501026482020920130102648202092013FA159251559BR  0000812092013254497-11   000000001950000006
100004378701027055030920130102705503092013FA159256587BR  0000012092013254899-4    000000001950000007
100004382201029918050920130102991805092013FA159283830BR  0000012092013255609-6    000000001950000008
100004383801029935050920130102993505092013FA159284000BR  0000012092013255620-8    000000001950000009
100004393601029946050920130102994605092013FA159284115BR  0000012092013255627-9    000000001950000010
100004393301029949050920130102994905092013FA159284146BR  0000012092013255627-16   000000001950000011
100004392601029956050920130102995605092013FA159284217BR  0000012092013255627-39   000000001950000012
100004392501029957050920130102995705092013FA159284225BR  0000012092013255627-40   000000001950000013
100004390101029981050920130102998105092013FA159284469BR  0000012092013255627-78   000000001950000014
9000013                                                                                       000015
