0RETORNONOTIFICACAO ELETRONICA        05032015OCOR                                            000001
100005065301440818190220150144081819022015FA318681072BR  0000005032015346875-1    000000001789000002
100005067401441741260220150144174126022015FA318687680BR  0000005032015348099-1    000000001789000003
100005068701441748260220150144174826022015FA318687755BR  0000005032015348237-13   000000001789000004
9000003                                                                                       000005
