0RETORNONOTIFICACAO ELETRONICA        08052014OCOR                                            000001
100004714801201049170420140120104917042014FA271005505BR  0000008052014296021-5    000000001950000002
100004720401203867240420140120386724042014FA271025981BR  0000008052014296804-1    000000001950000003
100004720601203869240420140120386924042014FA271026001BR  0000008052014296804-3    000000001950000004
100004731601209414300420140120941430042014FA271070756BR  0000008052014297921-3    000000001950000005
100004731701209415300420140120941530042014FA271070760BR  0000008052014297921-4    000000001950000006
100004734001209416300420140120941630042014FA271070773BR  0000008052014297921-16   000000001950000007
100004734101209417300420140120941730042014FA271070787BR  0000008052014297921-18   000000001950000008
100004734401209420300420140120942030042014FA271070813BR  0000008052014297972-3    000000001950000009
100004734501209421300420140120942130042014FA271070827BR  0000008052014297972-4    000000001950000010
100004734701209423300420140120942330042014FA271070844BR  0000008052014297972-7    000000001950000011
100004734801209424300420140120942430042014FA271070858BR  0000008052014297972-8    000000001950000012
100004735101209427300420140120942730042014FA271070889BR  0000008052014297972-11   000000001950000013
100004736501209431300420140120943130042014FA271070929BR  0000008052014297972-16   000000001950000014
100004736801209434300420140120943430042014FA271070950BR  0000008052014297972-23   000000001950000015
9000014                                                                                       000016
