0RETORNONOTIFICACAO ELETRONICA        09112012OCOR                                            000001
100003838400851261311020120085126131102012FA012621165BR  0000009112012201971-3    000000001950000002
100003838700851263311020120085126331102012FA012621188BR  0000009112012201971-5    000000001950000003
100003838800851264311020120085126431102012FA012621191BR  0000009112012201971-6    000000001950000004
100003816700851275311020120085127531102012FA012621302BR  0000009112012201980-2    000000001950000005
100003830100851357311020120085135731102012FA012622121BR  0000009112012202192-1    000000001950000006
100003845200851369311020120085136931102012FA012622245BR  0000009112012202192-14   000000001950000007
100003846000851372311020120085137231102012FA012622271BR  0000009112012202192-19   000000001950000008
100003830000851373311020120085137331102012FA012622285BR  0000009112012202194-1    000000001950000009
100003847900851379311020120085137931102012FA012622342BR  0000009112012202194-7    000000001950000010
100003848200851382311020120085138231102012FA012622373BR  0000009112012202194-10   000000001950000011
100003848900851384311020120085138431102012FA012622395BR  0000009112012202194-12   000000001950000012
100003849200851386311020120085138631102012FA012622413BR  0000009112012202194-14   000000001950000013
100003849800851391311020120085139131102012FA012622461BR  0000009112012202229-7    000000001950000014
100003850500851393311020120085139331102012FA012622489BR  0000009112012202229-27   000000001950000015
100003852600851398311020120085139831102012FA012622532BR  0000009112012202282-5    000000001950000016
100003852700851399311020120085139931102012FA012622546BR  0000009112012202282-6    000000001950000017
100003852800851400311020120085140031102012FA012622550BR  0000009112012202282-7    000000001950000018
100003852900851401311020120085140131102012FA012622563BR  0000009112012202282-8    000000001950000019
100003853000851402311020120085140231102012FA012622577BR  0000009112012202282-9    000000001950000020
100003853100851403311020120085140331102012FA012622585BR  0000009112012202282-10   000000001950000021
100003854200851408311020120085140831102012FA012622634BR  0000009112012202291-5    000000001950000022
100003856600851411311020120085141131102012FA012622665BR  0000009112012202291-9    000000001950000023
100003856700851412311020120085141231102012FA012622679BR  0000009112012202291-10   000000001950000024
100003856800851413311020120085141331102012FA012622682BR  0000009112012202291-13   000000001950000025
9000024                                                                                       000026
