0RETORNONOTIFICACAO ELETRONICA        12082013OCOR                                            000001
100004274601007464300720130100746430072013FA136420020BR  0000012082013248876-1    000000001950000002
100004282101007499310720130100749931072013FA136420285BR  0000012082013248952-1    000000001950000003
100004284801007504310720130100750431072013FA136420339BR  0000012082013248952-7    000000001950000004
100004285901007509310720130100750931072013FA136420387BR  0000012082013249061-5    000000001950000005
100004285401007510310720130100751031072013FA136420395BR  0002312082013249061-6    000000001950000006
100004293701008193010820130100819301082013FA136427028BR  0000012082013249161-4    000000001950000007
100004296001008198010820130100819801082013FA136427076BR  0000012082013249164-3    000000001950000008
100004295401008199010820130100819901082013FA136427080BR  0000012082013249164-4    000000001950000009
100004295601008200010820130100820001082013FA136427093BR  0000012082013249164-5    000000001950000010
100004295801008201010820130100820101082013FA136427102BR  0000012082013249164-6    000000001950000011
100004295701008202010820130100820201082013FA136427116BR  0000012082013249164-7    000000001950000012
100004295501008203010820130100820301082013FA136427120BR  0000012082013249164-8    000000001950000013
100004297301008207010820130100820701082013FA136427164BR  0000012082013249170-4    000000001950000014
100004303001008209010820130100820901082013FA136427181BR  0000012082013249172-1    000000001950000015
100004303201008210010820130100821001082013FA136427195BR  0000012082013249172-2    000000001950000016
100004299201008212010820130100821201082013FA136427218BR  0000012082013249172-4    000000001950000017
100004302501008213010820130100821301082013FA136427221BR  0000012082013249172-5    000000001950000018
100004302901008214010820130100821401082013FA136427235BR  0000012082013249172-6    000000001950000019
100004302701008216010820130100821601082013FA136427252BR  0000012082013249172-10   000000001950000020
100004302001008225010820130100822501082013FA136427345BR  0000712082013249172-27   000000001950000021
100004301801008227010820130100822701082013FA136427368BR  0000212082013249172-29   000000001950000022
100004301401008231010820130100823101082013FA136427408BR  0000012082013249172-41   000000001950000023
100004301201008233010820130100823301082013FA136427425BR  0000712082013249172-43   000000001950000024
100004300201008237010820130100823701082013FA136427460BR  0000012082013249205-1    000000001950000025
100004307301008246010820130100824601082013FA136427558BR  0000012082013249219-2    000000001950000026
100004306801008249010820130100824901082013FA136427589BR  0000012082013249219-5    000000001950000027
100004309401008251010820130100825101082013FA136427601BR  0000012082013249219-7    000000001950000028
100004309301008252010820130100825201082013FA136427615BR  0000012082013249219-9    000000001950000029
100004309201008253010820130100825301082013FA136427629BR  0000012082013249219-13   000000001950000030
100004305301008257010820130100825701082013FA136427663BR  0000012082013249221-5    000000001950000031
100004305001008260010820130100826001082013FA136427694BR  0000012082013249221-8    000000001950000032
100004305101008261010820130100826101082013FA136427703BR  0000012082013249221-9    000000001950000033
100004309501008263010820130100826301082013FA136427725BR  0000012082013249283-13   000000001950000034
100004312601008267010820130100826701082013FA136427765BR  0000012082013249287-3    000000001950000035
100004314101008270010820130100827001082013FA136427796BR  0000012082013249290-3    000000001950000036
100004311801008271010820130100827101082013FA136427805BR  0000012082013249290-4    000000001950000037
100004316301008280010820130100828001082013FA136427898BR  0000012082013249293-3    000000001950000038
100004322301008290010820130100829001082013FA136427990BR  0000012082013249295-46   000000001950000039
100004322201008291010820130100829101082013FA136428006BR  0000012082013249295-56   000000001950000040
100004321801008295010820130100829501082013FA136428045BR  0000012082013249295-127  000000001950000041
100004324401008301010820130100830101082013FA136428108BR  0000012082013249313-2    000000001950000042
100004322801008303010820130100830301082013FA136428125BR  0000012082013249313-4    000000001950000043
100004324201008306010820130100830601082013FA136428156BR  0000012082013249313-7    000000001950000044
100004324601008308010820130100830801082013FA136428173BR  0000012082013249313-9    000000001950000045
100004325801008309010820130100830901082013FA136428187BR  0000012082013249313-12   000000001950000046
100004325101008316010820130100831601082013FA136428258BR  0000012082013249313-39   000000001950000047
100004324801008319010820130100831901082013FA136428289BR  0000012082013249313-52   000000001950000048
100004322901008323010820130100832301082013FA136428329BR  0000012082013249313-60   000000001950000049
100004320201008324010820130100832401082013FA136428332BR  0000012082013249313-61   000000001950000050
100004327901011950060820130101195006082013FA136463833BR  0000012082013249547-3    000000001950000051
100004328301011953060820130101195306082013FA136463864BR  0000012082013249547-6    000000001950000052
100004337001011961060820130101196106082013FA136463949BR  0000012082013249992-7    000000001950000053
9000052                                                                                       000054
