0RETORNONOTIFICACAO ELETRONICA        10042015OCOR                                            000001
100005064601440728190220150144072819022015FA318680179BR  0000010042015346461-9    000000001789000002
100005083201447789310320150144778931032015FA318736876BR  0000010042015353815-1    000000001789000003
100005072601447926010420150144792601042015FA318737885BR  0000010042015349797-2    000000001789000004
100005076901447938010420150144793801042015FA318738007BR  0000010042015353793-1    000000001789000005
100005077301447940010420150144794001042015FA318738024BR  0000010042015353793-6    000000001789000006
100005077501447942010420150144794201042015FA318738041BR  0000010042015353793-8    000000001789000007
100005081201447979010420150144797901042015FA318738418BR  0000010042015353793-120  000000001789000008
9000007                                                                                       000009
