0RETORNONOTIFICACAO ELETRONICA        11062013OCOR                                            000001
100004179800957511150520130095751115052013FA105170313BR  0000011062013236351-10   000000001950000002
100004216100961085220520130096108522052013FA105203475BR  0000011062013237623-8    000000001950000003
100004228900966186290520130096618629052013FA136030775BR  0000011062013238775-28   000000001950000004
9000003                                                                                       000005
