0RETORNONOTIFICACAO ELETRONICA        02012013OCOR                                            000001
100003765400827873130920120082787313092012FA063044820BR  0000002012013193599-21   000000001950000002
100003912500870090061220120087009006122012FA063001648BR  0000002012013208922-9    000000001950000003
100003929600873317181220120087331718122012FA063032089BR  0000102012013211242-3    000000001950000004
100003923400873323181220120087332318122012FA063032146BR  0000002012013211242-12   000000001950000005
100003929700873825191220120087382519122012FA063036939BR  0000002012013211626-1    000000001950000006
100003929900873826191220120087382619122012FA063036942BR  0000002012013211626-2    000000001950000007
100003930100873830191220120087383019122012FA063036987BR  0000002012013211626-42   000000001950000008
100003934100874649201220120087464920122012FA063044705BR  0000002012013211943-1    000000001950000009
100003936600874654201220120087465420122012FA063044759BR  0000002012013211948-1    000000001950000010
100003936700874655201220120087465520122012FA063044762BR  0000002012013211948-2    000000001950000011
100003936800874656201220120087465620122012FA063044776BR  0000002012013211948-3    000000001950000012
100003936900874657201220120087465720122012FA063044780BR  0000002012013211948-4    000000001950000013
100003936500874658201220120087465820122012FA063044793BR  0000002012013211948-5    000000001950000014
100003935700874967211220120087496721122012FA063047667BR  0000002012013212133-4    000000001950000015
100003938700874968211220120087496821122012FA063047675BR  0000002012013212133-5    000000001950000016
100003937600874969211220120087496921122012FA063047684BR  0000002012013212133-6    000000001950000017
100003938100874972211220120087497221122012FA063047715BR  0000002012013212133-9    000000001950000018
100003938900874973211220120087497321122012FA063047724BR  0000002012013212133-10   000000001950000019
100003938200874974211220120087497421122012FA063047738BR  0002302012013212133-11   000000001950000020
100003941500876222271220120087622227122012FA063059427BR  0000002012013212387-2    000000001950000021
9000020                                                                                       000022
