0RETORNONOTIFICACAO ELETRONICA        10062014OCOR                                            000001
100004757901225634220520140122563422052014FA271201261BR  0000410062014301378-9    000000001950000002
100004769901233439290520140123343929052014FA271263875BR  0000810062014302899-38   000000001950000003
100004775601237889030620140123788903062014FA271297790BR  0000110062014303529-10   000000001950000004
9000003                                                                                       000005
