0RETORNONOTIFICACAO ELETRONICA        13022014OCOR                                            000001
100004614001132424040220140113242404022014FA245794884BR  0000013022014282557-11   000000001950000002
100004614101132425040220140113242504022014FA245794898BR  0000013022014282557-12   000000001950000003
100004614301132426040220140113242604022014FA245794907BR  0000013022014282557-13   000000001950000004
100004614401132427040220140113242704022014FA245794915BR  0000013022014282557-14   000000001950000005
100004615401132428040220140113242804022014FA245794924BR  0000013022014282557-15   000000001950000006
100004615501132429040220140113242904022014FA245794938BR  0000013022014282557-16   000000001950000007
100004620201132435040220140113243504022014FA245794990BR  0000013022014282557-22   000000001950000008
100004623501132436040220140113243604022014FA245795006BR  0000013022014282557-23   000000001950000009
100004623601132437040220140113243704022014FA245795010BR  0000013022014282557-24   000000001950000010
100004630901137945070220140113794507022014FA245847468BR  0000013022014283429-8    000000001950000011
100004631001137946070220140113794607022014FA245847471BR  0000013022014283429-9    000000001950000012
9000011                                                                                       000013
