0RETORNONOTIFICACAO ELETRONICA        03122013OCOR                                            000001
100004521501077881141120130107788114112013FA188096511BR  0001203122013268647-81   000000001950000002
100004528901084526271120130108452627112013FA188159049BR  0000003122013270698-16   000000001950000003
100004537401084536271120130108453627112013FA188159145BR  0000003122013270698-26   000000001950000004
100004539501084539271120130108453927112013FA188159171BR  0000003122013270870-3    000000001950000005
100004541001085572281120130108557228112013FA188169240BR  0000003122013271067-5    000000001950000006
9000005                                                                                       000007
