0RETORNONOTIFICACAO ELETRONICA        06062014OCOR                                            000001
100004762501232570280520140123257028052014FA271256968BR  0000006062014302577-1    000000001950000002
100004765701232579280520140123257928052014FA271257053BR  0000006062014302578-2    000000001950000003
100004766101232583280520140123258328052014FA271257098BR  0000006062014302578-6    000000001950000004
100004769601233436290520140123343629052014FA271263840BR  0000506062014302899-13   000000001950000005
100004770001233440290520140123344029052014FA271263884BR  0000006062014302899-42   000000001950000006
100004771801233450290520140123345029052014FA271263986BR  0000006062014303008-6    000000001950000007
100004772201237881030620140123788103062014FA271297715BR  0000006062014303248-1    000000001950000008
100004773801237887030620140123788703062014FA271297772BR  0000006062014303529-4    000000001950000009
9000008                                                                                       000010
