0RETORNONOTIFICACAO ELETRONICA        07032013OCOR                                            000001
100004047400907035220220130090703522022013FA063352940BR  0000007032013222996-1    000000001950000002
100004052400909539260220130090953926022013FA104732848BR  0000007032013223538-3    000000001950000003
100004052500909540260220130090954026022013FA104732851BR  0000007032013223538-4    000000001950000004
100004051800909542260220130090954226022013FA104732879BR  0000007032013223538-6    000000001950000005
100004051900909543260220130090954326022013FA104732882BR  0000007032013223538-7    000000001950000006
100004054300910174270220130091017427022013FA104738908BR  0000007032013223790-2    000000001950000007
100004058700910851280220130091085128022013FA104745223BR  0000807032013224040-1    000000001950000008
100004058900910855280220130091085528022013FA104745268BR  0000007032013224040-11   000000001950000009
100004058600910861280220130091086128022013FA104745325BR  0000007032013224040-30   000000001950000010
9000009                                                                                       000011
