0RETORNONOTIFICACAO ELETRONICA        10122014OCOR                                            000001
100005020001392110011220140139211001122014FA318340277BR  0000010122014335165-3    000000001789000002
100005020901392114011220140139211401122014FA318340317BR  0000010122014335165-15   000000001789000003
100005021401392119011220140139211901122014FA318340365BR  0000010122014335165-30   000000001789000004
9000003                                                                                       000005
