0RETORNONOTIFICACAO ELETRONICA        08102014OCOR                                            000001
100004962301331898230920140133189823092014FA294581245BR  0000008102014323608-453  000000001789000002
100004966701331942230920140133194223092014FA294581687BR  0000008102014323608-502  000000001789000003
100004973601332011230920140133201123092014FA294582373BR  0000008102014323608-584  000000001789000004
100004979801335728290920140133572829092014FA294612565BR  0000008102014324399-5    000000001789000005
9000004                                                                                       000006
