0RETORNONOTIFICACAO ELETRONICA        05092013OCOR                                            000001
100004355701026456020920130102645602092013FA159251298BR  0000005092013254496-2    000000001950000002
100004355601026458020920130102645802092013FA159251315BR  0000005092013254496-4    000000001950000003
100004357301026459020920130102645902092013FA159251324BR  0000005092013254496-5    000000001950000004
100004375601026483020920130102648302092013FA159251562BR  0000005092013254497-12   000000001950000005
9000004                                                                                       000006
