0RETORNONOTIFICACAO ELETRONICA        09042015OCOR                                            000001
100005072101447923010420150144792301042015FA318737854BR  0000009042015349793-13   000000001789000002
100005072501447925010420150144792501042015FA318737871BR  0000009042015349797-1    000000001789000003
100005078101447948010420150144794801042015FA318738109BR  0000009042015353793-37   000000001789000004
100005078201447949010420150144794901042015FA318738112BR  0000009042015353793-40   000000001789000005
100005078701447954010420150144795401042015FA318738165BR  0000409042015353793-55   000000001789000006
100005078901447956010420150144795601042015FA318738188BR  0000009042015353793-62   000000001789000007
100005079801447965010420150144796501042015FA318738276BR  0000409042015353793-91   000000001789000008
100005080501447972010420150144797201042015FA318738347BR  0000409042015353793-108  000000001789000009
100005081801447982010420150144798201042015FA318738449BR  0000009042015353799-1    000000001789000010
100005082401447986010420150144798601042015FA318738483BR  0000009042015353809-1    000000001789000011
9000010                                                                                       000012
