0RETORNONOTIFICACAO ELETRONICA        01082014OCOR                                            000001
100004850201279746220720140127974622072014FA283264618BR  0000201082014311815-7    000000001950000002
100004852401279758220720140127975822072014FA283264737BR  0000001082014311818-10   000000001950000003
100004857301281084240720140128108424072014FA283274408BR  0000001082014312278-10   000000001950000004
100004857401281085240720140128108524072014FA283274411BR  0000001082014312278-11   000000001950000005
100004861001286226290720140128622629072014FA283311471BR  0000001082014312999-1    000000001950000006
100004861201286228290720140128622829072014FA283311499BR  0000001082014312999-3    000000001950000007
9000006                                                                                       000008
