0RETORNONOTIFICACAO ELETRONICA        05072012OCOR                                            000001
100003603000784379260620120078437926062012FR971671701BR  0000005072012180647-3    000000001950000002
100003604400784380260620120078438026062012FR971671715BR  0000005072012180649-1    000000001950000003
100003604800784382260620120078438226062012FR971671732BR  0001205072012180649-3    000000001950000004
100003604900784383260620120078438326062012FR971671746BR  0000005072012180649-4    000000001950000005
100003605000784384260620120078438426062012FR971671750BR  0000005072012180649-5    000000001950000006
100003606700784390260620120078439026062012FR971671817BR  0000005072012180650-1    000000001950000007
100003606800784391260620120078439126062012FR971671825BR  0000005072012180650-2    000000001950000008
100003606900784392260620120078439226062012FR971671834BR  0000005072012180650-7    000000001950000009
100003615200788041020720120078804102072012FR971707975BR  0001205072012181509-36   000000001950000010
100003615500788044020720120078804402072012FR971708004BR  0001205072012181509-46   000000001950000011
9000010                                                                                       000012
