0RETORNONOTIFICACAO ELETRONICA        03112011OCOR                                            000001
100003101800647124191020110064712419102011JL014588238BR  0000003112011148380-1    000000002000000002
100003132400647126191020110064712619102011RQ047809586BR  0000003112011148380-3    000000002000000003
100003134900648162241020110064816224102011RQ047819345BR  0000003112011149067-2    000000002000000004
100003135000648163241020110064816324102011RQ047819359BR  0000003112011149067-3    000000002000000005
100003142900651271261020110065127126102011RQ047850040BR  0000003112011149237-5    000000002000000006
100003149200651273261020110065127326102011RQ047850067BR  0000003112011149237-7    000000002000000007
100003144100651919271020110065191927102011RQ047856379BR  0000003112011149439-1    000000002000000008
100003151100651930271020110065193027102011RQ047856405BR  0000003112011149439-12   000000002000000009
100003151200651931271020110065193127102011RQ047856419BR  0000903112011149439-13   000000002000000010
100003152500651933271020110065193327102011RQ047856422BR  0000003112011149439-15   000000002000000011
100003153300652772281020110065277228102011RQ047864432BR  0000003112011149637-9    000000002000000012
100003155100652779281020110065277928102011RQ047864494BR  0000003112011149637-44   000000002000000013
9000012                                                                                       000014
