0RETORNONOTIFICACAO ELETRONICA        03082012OCOR                                            000001
100003638500800023300720120080002330072012FR971827094BR  0000103082012185353-13   000000001950000002
100003638600800024300720120080002430072012FR971827103BR  0000103082012185353-14   000000001950000003
100003640500800036300720120080003630072012FR971827222BR  0000103082012185353-26   000000001950000004
100003640600800037300720120080003730072012FR971827236BR  0000103082012185353-27   000000001950000005
100003642900800045300720120080004530072012FR971827315BR  0000103082012185353-35   000000001950000006
9000005                                                                                       000007
