0RETORNONOTIFICACAO ELETRONICA        06092013OCOR                                            000001
100004367801018847230820130101884723082013FA159176858BR  0000006092013253296-4    000000001950000002
100004367201026455020920130102645502092013FA159251284BR  0000006092013254496-1    000000001950000003
100004375401026478020920130102647802092013FA159251514BR  0000006092013254497-7    000000001950000004
100004375501026484020920130102648402092013FA159251576BR  0000006092013254497-13   000000001950000005
100004377201026488020920130102648802092013FA159251616BR  0000006092013254712-3    000000001950000006
9000005                                                                                       000007
