0RETORNONOTIFICACAO ELETRONICA        04032013OCOR                                            000001
100004007800905371190220130090537119022013FA063337134BR  0000004032013222107-12   000000001950000002
100004032800905426190220130090542619022013FA063337681BR  0000004032013222108-98   000000001950000003
100004040300907032220220130090703222022013FA063352919BR  0000004032013222788-2    000000001950000004
100004040500907033220220130090703322022013FA063352922BR  0000004032013222788-3    000000001950000005
100004047500907042220220130090704222022013FA063353018BR  0000004032013222996-21   000000001950000006
100004047600907043220220130090704322022013FA063353021BR  0000004032013222996-22   000000001950000007
100004047800907044220220130090704422022013FA063353035BR  0000004032013222996-23   000000001950000008
100004049800907330250220130090733025022013FA063355314BR  0000004032013223204-1    000000001950000009
100004049900907332250220130090733225022013FA063355331BR  0000004032013223204-8    000000001950000010
100004052300909538260220130090953826022013FA104732834BR  0000004032013223538-2    000000001950000011
100004054900910173270220130091017327022013FA104738899BR  0000004032013223790-1    000000001950000012
9000011                                                                                       000013
