0RETORNONOTIFICACAO ELETRONICA        07042014OCOR                                            000001
100004676501174065180320140117406518032014FA246166656BR  0000007042014290179-3    000000001950000002
100004686101179796270320140117979627032014FA270822896BR  0000007042014292053-9    000000001950000003
100004690501179800270320140117980027032014FA270822936BR  0000007042014292053-13   000000001950000004
100004691801179802270320140117980227032014FA270822953BR  0000007042014292406-2    000000001950000005
9000004                                                                                       000006
