0RETORNONOTIFICACAO ELETRONICA        05072013OCOR                                            000001
100004261600981354270620130098135427062013FA136154372BR  0000005072013243348-2    000000001950000002
100004262900981355270620130098135527062013FA136154386BR  0000005072013243348-3    000000001950000003
100004261700981356270620130098135627062013FA136154390BR  0000005072013243348-4    000000001950000004
100004263100981357270620130098135727062013FA136154409BR  0000005072013243348-5    000000001950000005
100004263400981358270620130098135827062013FA136154412BR  0000005072013243348-6    000000001950000006
100004263300981359270620130098135927062013FA136154426BR  0000005072013243348-7    000000001950000007
100004263200981360270620130098136027062013FA136154430BR  0000005072013243348-8    000000001950000008
100004268100981371270620130098137127062013FA136154545BR  0000005072013243351-3    000000001950000009
100004270200981374270620130098137427062013FA136154576BR  0000005072013243352-2    000000001950000010
9000009                                                                                       000011
