0RETORNONOTIFICACAO ELETRONICA        04072013OCOR                                            000001
100004261800981353270620130098135327062013FA136154369BR  0000004072013243348-1    000000001950000002
100004263900981361270620130098136127062013FA136154443BR  0000004072013243349-1    000000001950000003
100004264000981362270620130098136227062013FA136154457BR  0000004072013243349-2    000000001950000004
100004265900981365270620130098136527062013FA136154488BR  0000004072013243350-4    000000001950000005
100004265800981366270620130098136627062013FA136154491BR  0000004072013243350-6    000000001950000006
100004265600981367270620130098136727062013FA136154505BR  0000004072013243350-8    000000001950000007
100004265500981368270620130098136827062013FA136154514BR  0000004072013243350-10   000000001950000008
100004268000981370270620130098137027062013FA136154531BR  0000004072013243351-1    000000001950000009
100004270300981375270620130098137527062013FA136154580BR  0000004072013243352-3    000000001950000010
9000009                                                                                       000011
