0RETORNONOTIFICACAO ELETRONICA        05112012OCOR                                            000001
100003823600842768181020120084276818102012FA012539469BR  0000005112012199703-9    000000001950000002
100003827400849184261020120084918426102012FA012602294BR  0000005112012201182-1    000000001950000003
100003829400849185261020120084918526102012FA012602303BR  0000005112012201182-2    000000001950000004
100003829800849187261020120084918726102012FA012602325BR  0000005112012201182-4    000000001950000005
100003833000849190261020120084919026102012FA012602351BR  0000005112012201186-2    000000001950000006
100003833100849191261020120084919126102012FA012602365BR  0000005112012201186-3    000000001950000007
100003833200849192261020120084919226102012FA012602379BR  0000005112012201186-4    000000001950000008
100003833300849193261020120084919326102012FA012602382BR  0000005112012201186-5    000000001950000009
100003833400849194261020120084919426102012FA012602396BR  0000005112012201186-6    000000001950000010
100003834400849195261020120084919526102012FA012602405BR  0000005112012201189-1    000000001950000011
100003834500849196261020120084919626102012FA012602419BR  0000005112012201189-2    000000001950000012
100003834700849198261020120084919826102012FA012602436BR  0000005112012201189-4    000000001950000013
100003834900849200261020120084920026102012FA012602453BR  0000005112012201189-6    000000001950000014
100003837300849202261020120084920226102012FA012602475BR  0000005112012201193-2    000000001950000015
100003837400849203261020120084920326102012FA012602484BR  0000005112012201193-3    000000001950000016
9000015                                                                                       000017
