0RETORNONOTIFICACAO ELETRONICA        04012012OCOR                                            000001
100003227600685132061220110068513206122011RQ046275766BR  0000804012012154511-3    000000002000000002
100003257400691294201220110069129420122011JL014613595BR  0000004012012156150-92   000000002000000003
100003199800694298281220110069429828122011RQ046362859BR  0000004012012156768-1    000000002000000004
100003204600694304281220110069430428122011RQ046362916BR  0000004012012156768-7    000000002000000005
100003205200694306281220110069430628122011JL014615636BR  0000004012012156768-9    000000002000000006
100003265600694307281220110069430728122011RQ046362933BR  0000004012012156768-10   000000002000000007
100003265700694308281220110069430828122011RQ046362947BR  0000004012012156768-13   000000002000000008
100003267400694314281220110069431428122011RQ046362995BR  0000004012012156771-7    000000002000000009
100003203900694318281220110069431828122011RQ046363032BR  0000004012012156773-3    000000002000000010
100003210200694321281220110069432128122011RQ046363050BR  0000004012012156773-6    000000002000000011
100003211600694323281220110069432328122011JL014615675BR  0000004012012156773-8    000000002000000012
100003211800694324281220110069432428122011RQ046363063BR  0000004012012156773-9    000000002000000013
100003216500694337281220110069433728122011RQ046363117BR  0000004012012156773-22   000000002000000014
100003218600694339281220110069433928122011JL014615769BR  0000004012012156773-24   000000002000000015
100003270800694346281220110069434628122011RQ046363148BR  0000004012012156773-31   000000002000000016
100003273700694353281220110069435328122011RQ046363205BR  0000004012012156776-8    000000002000000017
9000016                                                                                       000018
