0RETORNONOTIFICACAO ELETRONICA        10022014OCOR                                            000001
100004606501121883210120140112188321012014FA188510825BR  0000010022014279709-4    000000001950000002
100004612001126223280120140112622328012014FA245734302BR  0000010022014280781-2    000000001950000003
100004608801126225280120140112622528012014FA245734320BR  0000010022014280782-1    000000001950000004
100004614801126227280120140112622728012014FA245734347BR  0000010022014280992-1    000000001950000005
100004614901126230280120140112623028012014FA245734378BR  0000010022014280992-5    000000001950000006
100004619401128964300120140112896430012014FA245761943BR  0000010022014281903-5    000000001950000007
100004622301130399310120140113039931012014FA245775823BR  0000010022014282142-1    000000001950000008
100004622601130402310120140113040231012014FA245775854BR  0000010022014282142-4    000000001950000009
100004622801130404310120140113040431012014FA245775871BR  0000010022014282142-7    000000001950000010
100004623001130406310120140113040631012014FA245775899BR  0000010022014282142-9    000000001950000011
100004623101130407310120140113040731012014FA245775908BR  0000010022014282142-12   000000001950000012
100004623201130408310120140113040831012014FA245775911BR  0000010022014282142-13   000000001950000013
9000012                                                                                       000014
