0RETORNONOTIFICACAO ELETRONICA        04102012OCOR                                            000001
100003776700833318260920120083331826092012FA012449882BR  0000004102012195791-4    000000001950000002
100003761700833321260920120083332126092012FA012449919BR  0000004102012195796-2    000000001950000003
100003778400833327260920120083332726092012FA012449975BR  0000004102012195796-8    000000001950000004
100003778500833328260920120083332826092012FA012449984BR  0000004102012195796-9    000000001950000005
100003778600833329260920120083332926092012FA012449998BR  0000004102012195796-10   000000001950000006
100003778700833330260920120083333026092012FA012450007BR  0000004102012195796-11   000000001950000007
100003779100833331260920120083333126092012FA012450015BR  0000004102012195796-12   000000001950000008
100003779700833332260920120083333226092012FA012450024BR  0000004102012195796-13   000000001950000009
100003779800833333260920120083333326092012FA012450038BR  0000004102012195796-14   000000001950000010
100003780400833335260920120083333526092012FA012450055BR  0000004102012195798-2    000000001950000011
9000010                                                                                       000012
