0RETORNONOTIFICACAO ELETRONICA        13042012OCOR                                            000001
100003465800746464090420120074646409042012FR851885909BR  0000013042012169919-1    000000002000000002
100003465900746465090420120074646509042012FR851885912BR  0000013042012169919-2    000000002000000003
100003466000746466090420120074646609042012FR851885926BR  0000013042012169919-4    000000002000000004
100003466100746467090420120074646709042012FR851885930BR  0000013042012169919-5    000000002000000005
100003467000746471090420120074647109042012FR851885974BR  0000013042012169919-9    000000002000000006
100003468400746472090420120074647209042012FR851885988BR  0000013042012169919-10   000000002000000007
100003468500746473090420120074647309042012FR851885991BR  0000013042012169919-11   000000002000000008
100003468700746475090420120074647509042012FR851886011BR  0000013042012169927-4    000000002000000009
100003470200746477090420120074647709042012FR851886039BR  0000013042012169929-1    000000002000000010
100003470300746478090420120074647809042012FR851886042BR  0000013042012169929-2    000000002000000011
100003470400746479090420120074647909042012FR851886056BR  0000013042012169929-7    000000002000000012
100003470600746481090420120074648109042012FR851886073BR  0000013042012169929-9    000000002000000013
9000012                                                                                       000014
