0RETORNONOTIFICACAO ELETRONICA        08062012OCOR                                            000001
100003549400770925280520120077092528052012FR971539053BR  0000008062012176428-3    000000001950000002
100003550900770930280520120077093028052012FR971539107BR  0000008062012176435-3    000000001950000003
100003560900772081300520120077208130052012FR971550558BR  0000008062012177064-1    000000001950000004
100003561700772083300520120077208330052012FR971550575BR  0000008062012177064-3    000000001950000005
100003563200772087300520120077208730052012FR971550615BR  0000008062012177064-11   000000001950000006
100003555400772091300520120077209130052012FR971550650BR  0000008062012177060-1    000000001950000007
100003555500772092300520120077209230052012FR971550663BR  0000008062012177060-2    000000001950000008
100003555600772093300520120077209330052012FR971550677BR  0000008062012177060-3    000000001950000009
100003555900772096300520120077209630052012FR971550703BR  0000708062012177060-7    000000001950000010
100003556000772097300520120077209730052012FR971550717BR  0000008062012177060-8    000000001950000011
100003558500772104300520120077210430052012FR971550782BR  0000008062012177062-4    000000001950000012
100003559500772106300520120077210630052012FR971550805BR  0000008062012177062-6    000000001950000013
100003563600773951010620120077395101062012FR971569015BR  0000008062012177438-1    000000001950000014
9000013                                                                                       000015
