0RETORNONOTIFICACAO ELETRONICA        02052012OCOR                                            000001
100003483000751544190420120075154419042012FR851936455BR  0000002052012171365-5    000000001950000002
100003488500752636240420120075263624042012FR851947339BR  0000002052012171808-2    000000001950000003
100003488800752639240420120075263924042012FR851947360BR  0000002052012171808-7    000000001950000004
100003489300752642240420120075264224042012FR851947395BR  0000002052012171808-10   000000001950000005
100003489400752643240420120075264324042012FR851947400BR  0000002052012171808-11   000000001950000006
100003490400752646240420120075264624042012FR851947435BR  0000002052012171808-23   000000001950000007
100003490600752648240420120075264824042012FR851947458BR  0000002052012171808-34   000000001950000008
100003490900752651240420120075265124042012FR851947489BR  0000002052012171808-39   000000001950000009
100003491100752653240420120075265324042012FR851947501BR  0000002052012171808-43   000000001950000010
100003491300752655240420120075265524042012FR851947529BR  0000002052012171808-50   000000001950000011
100003491400752656240420120075265624042012FR851947532BR  0000002052012171808-57   000000001950000012
100003493000752665240420120075266524042012FR851947625BR  0000002052012171816-9    000000001950000013
100003493900752668240420120075266824042012FR851947651BR  0000002052012171816-12   000000001950000014
100003497000754274260420120075427426042012FR851963685BR  0000002052012172058-5    000000001950000015
100003499500754276260420120075427626042012FR851963708BR  0000002052012172058-7    000000001950000016
100003499700754278260420120075427826042012FR851963725BR  0000002052012172058-9    000000001950000017
100003499800754279260420120075427926042012FR851963739BR  0000002052012172058-10   000000001950000018
100003499900754280260420120075428026042012FR851963742BR  0000002052012172058-12   000000001950000019
100003501400754295260420120075429526042012FR851963892BR  0000002052012172058-97   000000001950000020
100003502000754619270420120075461927042012FR851967130BR  0000002052012172338-6    000000001950000021
9000020                                                                                       000022
