0RETORNONOTIFICACAO ELETRONICA        07052013OCOR                                            000001
100004132200948034300420130094803430042013FA105079359BR  0000007052013233982-2    000000001950000002
100004135400948038300420130094803830042013FA105079393BR  0000007052013233983-4    000000001950000003
100004135700948039300420130094803930042013FA105079402BR  0000007052013233983-5    000000001950000004
100004136700948045300420130094804530042013FA105079464BR  0000007052013233983-13   000000001950000005
100004138500948046300420130094804630042013FA105079478BR  0000007052013233986-1    000000001950000006
100004138900948051300420130094805130042013FA105079521BR  0000007052013233986-6    000000001950000007
100004141400948053300420130094805330042013FA105079549BR  0000007052013233988-1    000000001950000008
100004144600948060300420130094806030042013FA105079610BR  0000007052013233990-4    000000001950000009
100004144300948061300420130094806130042013FA105079623BR  0000007052013233990-5    000000001950000010
100004146300948062300420130094806230042013FA105079637BR  0000007052013233990-6    000000001950000011
100004146400948063300420130094806330042013FA105079645BR  0000007052013233990-9    000000001950000012
100004144000948064300420130094806430042013FA105079654BR  0000007052013233990-12   000000001950000013
100004143600948069300420130094806930042013FA105079708BR  0000007052013233990-18   000000001950000014
100004144500948075300420130094807530042013FA105079760BR  0000007052013233990-24   000000001950000015
100004143900948077300420130094807730042013FA105079787BR  0000007052013233990-26   000000001950000016
100004146700948078300420130094807830042013FA105079795BR  0000007052013233991-1    000000001950000017
100004146600948080300420130094808030042013FA105079813BR  0000007052013233991-3    000000001950000018
100004148100948082300420130094808230042013FA105079835BR  0000007052013233993-2    000000001950000019
100004149400948086300420130094808630042013FA105079875BR  0000007052013233994-2    000000001950000020
100004150000948087300420130094808730042013FA105079889BR  0000007052013233994-3    000000001950000021
100004149900948088300420130094808830042013FA105079892BR  0000007052013233994-4    000000001950000022
100004149800948089300420130094808930042013FA105079901BR  0000007052013233994-5    000000001950000023
100004150400948090300420130094809030042013FA105079915BR  0000007052013233994-6    000000001950000024
100004150700948092300420130094809230042013FA105079932BR  0000007052013233994-8    000000001950000025
100004150300948095300420130094809530042013FA105079963BR  0000007052013233994-11   000000001950000026
100004159600948099300420130094809930042013FA105080003BR  0000007052013233995-1    000000001950000027
100004160200948103300420130094810330042013FA105080048BR  0000007052013233997-4    000000001950000028
100004161500948105300420130094810530042013FA105080065BR  0000007052013233997-6    000000001950000029
100004163400948106300420130094810630042013FA105080079BR  0000007052013233999-1    000000001950000030
100004163100948107300420130094810730042013FA105080082BR  0000007052013233999-2    000000001950000031
100004164600948108300420130094810830042013FA105080096BR  0000007052013233999-3    000000001950000032
100004164100948109300420130094810930042013FA105080105BR  0000007052013233999-4    000000001950000033
100004163500948110300420130094811030042013FA105080119BR  0000007052013233999-5    000000001950000034
100004168500948114300420130094811430042013FA105080153BR  0000007052013234000-1    000000001950000035
100004168900948117300420130094811730042013FA105080184BR  0000007052013234000-9    000000001950000036
100004168800948118300420130094811830042013FA105080198BR  0000007052013234000-11   000000001950000037
100004165100948121300420130094812130042013FA105080224BR  0000007052013234000-15   000000001950000038
100004165200948122300420130094812230042013FA105080238BR  0000007052013234000-16   000000001950000039
100004165500948127300420130094812730042013FA105080286BR  0000007052013234000-22   000000001950000040
100004169800948130300420130094813030042013FA105080312BR  0000007052013234002-3    000000001950000041
100004169500948131300420130094813130042013FA105080326BR  0000007052013234002-4    000000001950000042
100004169600948132300420130094813230042013FA105080330BR  0000007052013234002-8    000000001950000043
9000042                                                                                       000044
