0RETORNONOTIFICACAO ELETRONICA        06082012OCOR                                            000001
100003654100799987300720120079998730072012FR971826730BR  0000006082012185350-1    000000001950000002
100003654200799988300720120079998830072012FR971826743BR  0000006082012185350-2    000000001950000003
100003654300799989300720120079998930072012FR971826757BR  0000006082012185350-3    000000001950000004
100003655500799990300720120079999030072012FR971826765BR  0000006082012185350-10   000000001950000005
100003655600799991300720120079999130072012FR971826774BR  0000006082012185350-11   000000001950000006
100003655700799992300720120079999230072012FR971826788BR  0000006082012185350-12   000000001950000007
100003655900799994300720120079999430072012FR971826805BR  0000006082012185350-20   000000001950000008
100003656000799995300720120079999530072012FR971826814BR  0000006082012185350-21   000000001950000009
100003656100799996300720120079999630072012FR971826828BR  0000006082012185350-23   000000001950000010
100003656200799997300720120079999730072012FR971826831BR  0000006082012185350-24   000000001950000011
100003656300799998300720120079999830072012FR971826845BR  0000006082012185350-28   000000001950000012
100003656400799999300720120079999930072012FR971826859BR  0000006082012185350-29   000000001950000013
100003656500800000300720120080000030072012FR971826862BR  0000006082012185350-31   000000001950000014
100003656600800001300720120080000130072012FR971826876BR  0000006082012185350-37   000000001950000015
100003656700800002300720120080000230072012FR971826880BR  0000006082012185350-44   000000001950000016
100003656800800003300720120080000330072012FR971826893BR  0000006082012185350-48   000000001950000017
100003657000800005300720120080000530072012FR971826916BR  0000006082012185350-51   000000001950000018
100003657100800006300720120080000630072012FR971826920BR  0000006082012185352-1    000000001950000019
100003657200800007300720120080000730072012FR971826933BR  0000006082012185352-2    000000001950000020
100003657300800008300720120080000830072012FR971826947BR  0000006082012185352-3    000000001950000021
100003657400800009300720120080000930072012FR971826955BR  0000006082012185352-4    000000001950000022
100003657500800010300720120080001030072012FR971826964BR  0000006082012185352-5    000000001950000023
100003637300800013300720120080001330072012FR971826995BR  0000006082012185353-3    000000001950000024
100003637400800014300720120080001430072012FR971827001BR  0000006082012185353-4    000000001950000025
100003637500800015300720120080001530072012FR971827015BR  0000006082012185353-5    000000001950000026
100003638000800018300720120080001830072012FR971827046BR  0000006082012185353-8    000000001950000027
100003638100800019300720120080001930072012FR971827050BR  0000006082012185353-9    000000001950000028
100003638200800020300720120080002030072012FR971827063BR  0000006082012185353-10   000000001950000029
100003638300800021300720120080002130072012FR971827077BR  0000006082012185353-11   000000001950000030
100003638400800022300720120080002230072012FR971827085BR  0000006082012185353-12   000000001950000031
100003638700800025300720120080002530072012FR971827117BR  0000006082012185353-15   000000001950000032
100003638800800026300720120080002630072012FR971827125BR  0000006082012185353-16   000000001950000033
100003638900800027300720120080002730072012FR971827134BR  0000006082012185353-17   000000001950000034
100003639000800028300720120080002830072012FR971827148BR  0000006082012185353-18   000000001950000035
100003639800800029300720120080002930072012FR971827151BR  0000006082012185353-19   000000001950000036
100003639900800030300720120080003030072012FR971827165BR  0000006082012185353-20   000000001950000037
100003640100800032300720120080003230072012FR971827182BR  0000006082012185353-22   000000001950000038
100003640200800033300720120080003330072012FR971827196BR  0000006082012185353-23   000000001950000039
100003640300800034300720120080003430072012FR971827205BR  0000006082012185353-24   000000001950000040
100003640400800035300720120080003530072012FR971827219BR  0000006082012185353-25   000000001950000041
100003640700800038300720120080003830072012FR971827240BR  0000006082012185353-28   000000001950000042
100003642100800039300720120080003930072012FR971827253BR  0000006082012185353-29   000000001950000043
100003642300800041300720120080004130072012FR971827275BR  0000006082012185353-31   000000001950000044
100003642400800042300720120080004230072012FR971827284BR  0000006082012185353-32   000000001950000045
100003642800800044300720120080004430072012FR971827307BR  0000106082012185353-34   000000001950000046
100003643000800046300720120080004630072012FR971827324BR  0000006082012185353-36   000000001950000047
100003658100800048300720120080004830072012FR971827341BR  0000006082012185353-38   000000001950000048
100003660300800051300720120080005130072012FR971827372BR  0000006082012185353-41   000000001950000049
100003660400800052300720120080005230072012FR971827386BR  0000006082012185353-42   000000001950000050
100003660500800053300720120080005330072012FR971827390BR  0000006082012185353-43   000000001950000051
100003660600800054300720120080005430072012FR971827409BR  0000006082012185353-44   000000001950000052
100003660700800055300720120080005530072012FR971827412BR  0000006082012185353-45   000000001950000053
100003663300800059300720120080005930072012FR971827457BR  0000006082012185353-49   000000001950000054
100003663400800060300720120080006030072012FR971827465BR  0000006082012185353-50   000000001950000055
100003663500801907310720120080190731072012FR971845875BR  0000006082012185787-1    000000001950000056
100003663700801909310720120080190931072012FR971845892BR  0000006082012185787-3    000000001950000057
100003668000801938310720120080193831072012FR971846181BR  0000006082012185794-1    000000001950000058
100003668100801939310720120080193931072012FR971846195BR  0000006082012185794-2    000000001950000059
100003668200801940310720120080194031072012FR971846204BR  0000006082012185794-3    000000001950000060
100003668300801941310720120080194131072012FR971846218BR  0000006082012185794-4    000000001950000061
100003668400801942310720120080194231072012FR971846221BR  0000006082012185794-5    000000001950000062
100003668900801944310720120080194431072012FR971846249BR  0000006082012185794-7    000000001950000063
100003669500801946310720120080194631072012FR971846266BR  0000006082012185794-9    000000001950000064
100003669700801948310720120080194831072012FR971846283BR  0000006082012185794-24   000000001950000065
100003669800801949310720120080194931072012FR971846297BR  0000006082012185794-28   000000001950000066
100003669900801950310720120080195031072012FR971846306BR  0000006082012185794-29   000000001950000067
100003670300801955310720120080195531072012FR971846354BR  0000006082012185796-5    000000001950000068
100003670600801958310720120080195831072012FR971846385BR  0000006082012185796-9    000000001950000069
100003671800801959310720120080195931072012FR971846399BR  0000006082012185796-10   000000001950000070
100003671900801960310720120080196031072012FR971846408BR  0000006082012185796-11   000000001950000071
100003672000801961310720120080196131072012FR971846411BR  0000006082012185799-1    000000001950000072
100003672200801963310720120080196331072012FR971846439BR  0000006082012185799-3    000000001950000073
100003672300801964310720120080196431072012FR971846442BR  0000006082012185799-6    000000001950000074
100003672400801965310720120080196531072012FR971846456BR  0000006082012185799-7    000000001950000075
100003672600801967310720120080196731072012FR971846473BR  0000006082012185799-10   000000001950000076
100003674100801968310720120080196831072012FR971846487BR  0000006082012185799-11   000000001950000077
100003674200801969310720120080196931072012FR971846495BR  0000006082012185799-16   000000001950000078
100003672900801970310720120080197031072012FR971846500BR  0000006082012185804-1    000000001950000079
100003673400801971310720120080197131072012FR971846513BR  0000006082012185804-2    000000001950000080
100003674300801972310720120080197231072012FR971846527BR  0000006082012185804-3    000000001950000081
100003674500801974310720120080197431072012FR971846544BR  0000006082012185804-5    000000001950000082
100003676300801977310720120080197731072012FR971846575BR  0000006082012185804-8    000000001950000083
100003676400801978310720120080197831072012FR971846589BR  0000006082012185809-1    000000001950000084
100003676500801979310720120080197931072012FR971846592BR  0000006082012185809-2    000000001950000085
100003676600801980310720120080198031072012FR971846601BR  0000006082012185809-3    000000001950000086
100003676700801981310720120080198131072012FR971846615BR  0000006082012185809-4    000000001950000087
100003676300802086310720120080208631072012FR971847567BR  0000006082012185804-37   000000001950000088
100003676300802087310720120080208731072012FR971847575BR  0000006082012185804-66   000000001950000089
9000088                                                                                       000090
