0RETORNONOTIFICACAO ELETRONICA        10122012OCOR                                            000001
100003875800864466281120120086446628112012FA062948846BR  0000010122012207251-7    000000001950000002
100003875900864468281120120086446828112012FA062948863BR  0000010122012207251-9    000000001950000003
100003884000864487281120120086448728112012FA062949055BR  0000010122012207255-9    000000001950000004
100003886600865158301120120086515830112012FA062955087BR  0000010122012207724-1    000000001950000005
100003887600865166301120120086516630112012FA062955161BR  0000010122012207733-7    000000001950000006
100003889900865170301120120086517030112012FA062955201BR  0000010122012207753-33   000000001950000007
100003892500865172301120120086517230112012FA062955229BR  0000010122012207805-2    000000001950000008
100003892800865175301120120086517530112012FA062955250BR  0000010122012207805-6    000000001950000009
100003892900865176301120120086517630112012FA062955263BR  0000010122012207805-7    000000001950000010
100003894300865177301120120086517730112012FA062955277BR  0000010122012207893-1    000000001950000011
100003884600865180301120120086518030112012FA062955303BR  0000010122012207901-3    000000001950000012
100003896200865182301120120086518230112012FA062955325BR  0000010122012207901-5    000000001950000013
100003888100865183301120120086518330112012FA062955334BR  0000010122012207901-6    000000001950000014
100003895400865184301120120086518430112012FA062955348BR  0000010122012207901-7    000000001950000015
100003898500865187301120120086518730112012FA062955379BR  0000010122012207901-10   000000001950000016
100003899000865188301120120086518830112012FA062955382BR  0000010122012207901-25   000000001950000017
100003898600865192301120120086519230112012FA062955422BR  0000010122012207901-111  000000001950000018
100003899100865195301120120086519530112012FA062955453BR  0000010122012207901-132  000000001950000019
100003895600865196301120120086519630112012FA062955467BR  0000010122012207901-133  000000001950000020
100003899000865314301120120086531430112012FA062956670BR  0000010122012207901-44   000000001950000021
100003898400869172051220120086917205122012FA062992867BR  0000010122012208359-1    000000001950000022
100003899200869173051220120086917305122012FA062992875BR  0000010122012208359-2    000000001950000023
100003899300869174051220120086917405122012FA062992884BR  0000010122012208359-3    000000001950000024
100003905800869184051220120086918405122012FA062992986BR  0000010122012208362-29   000000001950000025
100003904500869197051220120086919705122012FA062993111BR  0000010122012208362-60   000000001950000026
100003904300869199051220120086919905122012FA062993139BR  0000010122012208362-62   000000001950000027
100003907100869217051220120086921705122012FA062993315BR  0000010122012208366-9    000000001950000028
100003906800869219051220120086921905122012FA062993332BR  0000010122012208366-11   000000001950000029
100003910100869225051220120086922505122012FA062993394BR  0000010122012208643-7    000000001950000030
9000029                                                                                       000031
