0RETORNONOTIFICACAO ELETRONICA        10042014OCOR                                            000001
100004687101177953250320140117795325032014FA270806902BR  0000010042014291677-4    000000001950000002
100004696201188175040420140118817504042014FA270894323BR  0000010042014293067-2    000000001950000003
100004697501188177040420140118817704042014FA270894345BR  0000010042014293722-2    000000001950000004
100004689201188181040420140118818104042014FA270894385BR  0000010042014293727-1    000000001950000005
100004693301188183040420140118818304042014FA270894408BR  0000010042014293727-3    000000001950000006
100004700001188186040420140118818604042014FA270894439BR  0000010042014293727-6    000000001950000007
100004702101188191040420140118819104042014FA270894487BR  0000010042014293758-5    000000001950000008
100004703901189105070420140118910507042014FA270902104BR  0000010042014294068-3    000000001950000009
9000008                                                                                       000010
