0RETORNONOTIFICACAO ELETRONICA        09082012OCOR                                            000001
100003637100800011300720120080001130072012FR971826978BR  0000009082012185353-1    000000001950000002
100003637200800012300720120080001230072012FR971826981BR  0000009082012185353-2    000000001950000003
100003637800800016300720120080001630072012FR971827029BR  0000009082012185353-6    000000001950000004
100003637900800017300720120080001730072012FR971827032BR  0000009082012185353-7    000000001950000005
100003640000800031300720120080003130072012FR971827179BR  0000009082012185353-21   000000001950000006
100003642200800040300720120080004030072012FR971827267BR  0000009082012185353-30   000000001950000007
100003642700800043300720120080004330072012FR971827298BR  0000009082012185353-33   000000001950000008
100003660000800049300720120080004930072012FR971827355BR  0000009082012185353-39   000000001950000009
100003660100800050300720120080005030072012FR971827369BR  0000009082012185353-40   000000001950000010
100003661700800056300720120080005630072012FR971827426BR  0000009082012185353-46   000000001950000011
100003663600801908310720120080190831072012FR971845889BR  0000009082012185787-2    000000001950000012
100003664500801912310720120080191231072012FR971845929BR  0000009082012185787-6    000000001950000013
100003664900801913310720120080191331072012FR971845932BR  0000009082012185787-7    000000001950000014
100003665700801915310720120080191531072012FR971845950BR  0000009082012185787-11   000000001950000015
100003665800801916310720120080191631072012FR971845963BR  0000009082012185787-12   000000001950000016
100003666200801920310720120080192031072012FR971846005BR  0000009082012185787-16   000000001950000017
100003666300801921310720120080192131072012FR971846014BR  0000009082012185787-17   000000001950000018
100003666400801922310720120080192231072012FR971846028BR  0000009082012185787-18   000000001950000019
100003666700801925310720120080192531072012FR971846059BR  0000009082012185787-21   000000001950000020
100003666900801927310720120080192731072012FR971846076BR  0000009082012185787-23   000000001950000021
100003667200801930310720120080193031072012FR971846102BR  0000009082012185787-26   000000001950000022
100003667400801932310720120080193231072012FR971846120BR  0000709082012185787-28   000000001950000023
100003667600801934310720120080193431072012FR971846147BR  0000009082012185787-31   000000001950000024
100003667700801935310720120080193531072012FR971846155BR  0000009082012185787-32   000000001950000025
100003667800801936310720120080193631072012FR971846164BR  0000009082012185787-33   000000001950000026
100003669300801945310720120080194531072012FR971846252BR  0000009082012185794-8    000000001950000027
100003669600801947310720120080194731072012FR971846270BR  0000009082012185794-21   000000001950000028
100003659300801951310720120080195131072012FR971846310BR  0000009082012185796-1    000000001950000029
100003670400801956310720120080195631072012FR971846368BR  0000009082012185796-6    000000001950000030
100003670500801957310720120080195731072012FR971846371BR  0000009082012185796-7    000000001950000031
100003672100801962310720120080196231072012FR971846425BR  0000009082012185799-2    000000001950000032
100003674600801975310720120080197531072012FR971846558BR  0000009082012185804-6    000000001950000033
100003674800801976310720120080197631072012FR971846561BR  0000009082012185804-7    000000001950000034
100003679100802808010820120080280801082012FR971854761BR  0000009082012186101-4    000000001950000035
100003679600802809010820120080280901082012FR971854775BR  0000009082012186101-5    000000001950000036
100003679600802810010820120080281001082012FR971854789BR  0000009082012186101-31   000000001950000037
100003679700802811010820120080281101082012FR971854792BR  0000009082012186101-57   000000001950000038
100003679900802816010820120080281601082012FR971854846BR  0000009082012186101-170  000000001950000039
100003679900802818010820120080281801082012FR971854863BR  0000009082012186101-222  000000001950000040
100003679900802819010820120080281901082012FR971854877BR  0000009082012186101-248  000000001950000041
100003680000802820010820120080282001082012FR971854885BR  0000009082012186101-271  000000001950000042
100003680100802821010820120080282101082012FR971854894BR  0000009082012186101-277  000000001950000043
100003680400802824010820120080282401082012FR971854925BR  0000009082012186101-331  000000001950000044
100003680500802825010820120080282501082012FR971854934BR  0000009082012186101-349  000000001950000045
100003680700802827010820120080282701082012FR971854951BR  0000009082012186101-388  000000001950000046
100003680800802828010820120080282801082012FR971854965BR  0000009082012186101-405  000000001950000047
9000046                                                                                       000048
