0RETORNONOTIFICACAO ELETRONICA        08022013OCOR                                            000001
100003972600895099290120130089509929012013FA063240183BR  0000008022013218290-2    000000001950000002
100003972300895106290120130089510629012013FA063240254BR  0000008022013218293-5    000000001950000003
100003973300895108290120130089510829012013FA063240271BR  0000008022013218293-7    000000001950000004
100003973400895109290120130089510929012013FA063240285BR  0000008022013218293-8    000000001950000005
100003974600895115290120130089511529012013FA063240342BR  0000008022013218293-14   000000001950000006
100003976600895116290120130089511629012013FA063240356BR  0000008022013218294-1    000000001950000007
100003976700895117290120130089511729012013FA063240360BR  0000008022013218294-2    000000001950000008
100003978000895123290120130089512329012013FA063240427BR  0000008022013218297-8    000000001950000009
100003979100895125290120130089512529012013FA063240444BR  0000008022013218301-1    000000001950000010
100003973500895127290120130089512729012013FA063240461BR  0000008022013218301-3    000000001950000011
100003980000895131290120130089513129012013FA063240501BR  0000008022013218301-7    000000001950000012
100003980200895134290120130089513429012013FA063240532BR  0000008022013218301-10   000000001950000013
100003980100895135290120130089513529012013FA063240546BR  0000008022013218301-11   000000001950000014
100003981900895139290120130089513929012013FA063240585BR  0000508022013218303-2    000000001950000015
100003981800895142290120130089514229012013FA063240617BR  0000008022013218303-5    000000001950000016
100003982400895147290120130089514729012013FA063240665BR  0000008022013218303-10   000000001950000017
100003985900895168290120130089516829012013FA063240872BR  0000008022013218305-10   000000001950000018
100003985700895170290120130089517029012013FA063240890BR  0000008022013218305-13   000000001950000019
100003994700900132050220130090013205022013FA063288464BR  0000008022013219593-17   000000001950000020
100003998900900144050220130090014405022013FA063288583BR  0000008022013220041-4    000000001950000021
9000020                                                                                       000022
