0RETORNONOTIFICACAO ELETRONICA        07052014OCOR                                            000001
100004726601206615280420140120661528042014FA271049078BR  0000707052014297539-4    000000001950000002
100004731501209413300420140120941330042014FA271070742BR  0000007052014297921-1    000000001950000003
100004734201209418300420140120941830042014FA271070795BR  0000807052014297972-1    000000001950000004
100004734301209419300420140120941930042014FA271070800BR  0000007052014297972-2    000000001950000005
9000004                                                                                       000006
