0RETORNONOTIFICACAO ELETRONICA        08092014OCOR                                            000001
100004891101308636260820140130863626082014FA294413264BR  0000008092014318272-2    000000001950000002
100004892201311242290820140131124229082014FA294429851BR  0000008092014318601-1    000000001950000003
100004892401311244290820140131124429082014FA294429879BR  0000008092014318601-3    000000001950000004
100004894001311248290820140131124829082014FA294429919BR  0000008092014318848-2    000000001950000005
100004894201311250290820140131125029082014FA294429936BR  0000008092014318848-4    000000001950000006
100004894301311251290820140131125129082014FA294429940BR  0000008092014318848-5    000000001950000007
100004894801315429030920140131542903092014FA294460701BR  0000008092014318998-1    000000001789000008
100004895101315432030920140131543203092014FA294460732BR  0000008092014318998-4    000000001789000009
100004896401315433030920140131543303092014FA294460746BR  0000008092014318998-6    000000001789000010
100004896501315434030920140131543403092014FA294460750BR  0000008092014318998-7    000000001789000011
100004896601315435030920140131543503092014FA294460763BR  0000008092014318998-8    000000001789000012
100004899001315444030920140131544403092014FA294460851BR  0000008092014319696-9    000000001789000013
100004899201315445030920140131544503092014FA294460865BR  0000008092014319697-1    000000001789000014
100004899401315447030920140131544703092014FA294460882BR  0000008092014319697-3    000000001789000015
100004899601315449030920140131544903092014FA294460905BR  0000008092014319697-6    000000001789000016
100004899701315450030920140131545003092014FA294460919BR  0000208092014319697-7    000000001789000017
100004901601315451030920140131545103092014FA294460922BR  0000008092014319778-1    000000001789000018
100004901701315452030920140131545203092014FA294460936BR  0000008092014319778-2    000000001789000019
100004901901315454030920140131545403092014FA294460953BR  0000008092014319778-4    000000001789000020
9000019                                                                                       000021
