0RETORNONOTIFICACAO ELETRONICA        08102012OCOR                                            000001
100003776800833319260920120083331926092012FA012449896BR  0000208102012195791-5    000000001950000002
100003775800833326260920120083332626092012FA012449967BR  0000008102012195796-7    000000001950000003
100003780600833337260920120083333726092012FA012450072BR  0000008102012195798-11   000000001950000004
100003783100834272280920120083427228092012FA012458589BR  0000008102012196317-2    000000001950000005
100003785100834276280920120083427628092012FA012458629BR  0000008102012196317-6    000000001950000006
100003785200834277280920120083427728092012FA012458632BR  0000008102012196320-1    000000001950000007
100003785300834278280920120083427828092012FA012458646BR  0000008102012196320-3    000000001950000008
100003785900834279280920120083427928092012FA012458650BR  0000008102012196322-1    000000001950000009
100003786500834280280920120083428028092012FA012458663BR  0000008102012196322-2    000000001950000010
100003786800834283280920120083428328092012FA012458694BR  0000008102012196322-5    000000001950000011
100003786900834284280920120083428428092012FA012458703BR  0000008102012196322-6    000000001950000012
100003789000834959011020120083495901102012FA012464160BR  0000008102012196609-1    000000001950000013
100003789100834960011020120083496001102012FA012464173BR  0000008102012196609-2    000000001950000014
100003789200834961011020120083496101102012FA012464187BR  0000008102012196609-3    000000001950000015
100003789400834963011020120083496301102012FA012464200BR  0000008102012196609-6    000000001950000016
100003789500834964011020120083496401102012FA012464213BR  0000008102012196609-10   000000001950000017
100003791100834967011020120083496701102012FA012464244BR  0000008102012196609-22   000000001950000018
100003776400834968011020120083496801102012FA012464258BR  0000008102012196614-1    000000001950000019
100003792400834972011020120083497201102012FA012464292BR  0000008102012196637-1    000000001950000020
100003792600834974011020120083497401102012FA012464315BR  0000008102012196637-3    000000001950000021
100003792800834976011020120083497601102012FA012464332BR  0000008102012196637-5    000000001950000022
100003793000834978011020120083497801102012FA012464350BR  0000008102012196637-8    000000001950000023
100003793300834979011020120083497901102012FA012464363BR  0000008102012196637-9    000000001950000024
100003794100834980011020120083498001102012FA012464377BR  0000008102012196641-1    000000001950000025
100003796500838354021020120083835402102012FA012498044BR  0000008102012196756-2    000000001950000026
100003799500838362021020120083836202102012FA012498129BR  0000008102012196764-1    000000001950000027
100003799600838363021020120083836302102012FA012498132BR  0000108102012196764-2    000000001950000028
100003799700838364021020120083836402102012FA012498146BR  0001208102012196764-3    000000001950000029
9000028                                                                                       000030
