0RETORNONOTIFICACAO ELETRONICA        10122013OCOR                                            000001
100004535701082294261120130108229426112013FA188137508BR  0000010122013270328-1    000000001950000002
100004542401087639291120130108763929112013FA188186849BR  0000010122013271290-3    000000001950000003
100004542601087640291120130108764029112013FA188186852BR  0000010122013271290-4    000000001950000004
100004545501090283031220130109028303122013FA188215001BR  0000010122013271841-19   000000001950000005
100004548301090784041220130109078404122013FA188218303BR  0000010122013272053-7    000000001950000006
9000005                                                                                       000007
