0RETORNONOTIFICACAO ELETRONICA        11102012OCOR                                            000001
100003783000834271280920120083427128092012FA012458575BR  0000011102012196317-1    000000001950000002
100003783200834273280920120083427328092012FA012458592BR  0000011102012196317-3    000000001950000003
100003783300834274280920120083427428092012FA012458601BR  0000011102012196317-4    000000001950000004
100003783400834275280920120083427528092012FA012458615BR  0000011102012196317-5    000000001950000005
100003786600834281280920120083428128092012FA012458677BR  0000011102012196322-3    000000001950000006
100003786700834282280920120083428228092012FA012458685BR  0000011102012196322-4    000000001950000007
100003787200834287280920120083428728092012FA012458734BR  0000011102012196322-9    000000001950000008
100003787300834288280920120083428828092012FA012458748BR  0000011102012196322-10   000000001950000009
100003789600834965011020120083496501102012FA012464227BR  0000011102012196609-20   000000001950000010
100003794300834982011020120083498201102012FA012464394BR  0000011102012196641-3    000000001950000011
100003796900838358021020120083835802102012FA012498089BR  0000011102012196756-6    000000001950000012
100003799200838359021020120083835902102012FA012498092BR  0000011102012196756-7    000000001950000013
100003799300838360021020120083836002102012FA012498101BR  0000011102012196756-10   000000001950000014
100003799800838365021020120083836502102012FA012498150BR  0000011102012196764-4    000000001950000015
100003799900838366021020120083836602102012FA012498163BR  0000011102012196764-9    000000001950000016
100003804000839677081020120083967708102012FA012510173BR  0000011102012197387-9    000000001950000017
100003806000839684081020120083968408102012FA012510244BR  0000111102012197387-16   000000001950000018
9000017                                                                                       000019
