0RETORNONOTIFICACAO ELETRONICA        10112014OCOR                                            000001
100004996401360908291020140136090829102014FA294799565BR  0000010112014329920-5    000000001789000002
100004999201362371311020140136237131102014FA294808505BR  0000010112014330617-9    000000001789000003
100004999501366360031120140136636003112014FA294845477BR  0000010112014330846-2    000000001789000004
9000003                                                                                       000005
