0RETORNONOTIFICACAO ELETRONICA        10032014OCOR                                            000001
100004650101145588240220140114558824022014FA245917742BR  0000010032014286543-4    000000001950000002
100004651801145589240220140114558924022014FA245917756BR  0002310032014286543-6    000000001950000003
100004653201148324250220140114832425022014FA245943212BR  0000010032014287107-4    000000001950000004
100004654901153005280220140115300528022014FA245987584BR  0000010032014287526-9    000000001950000005
100004655101153007280220140115300728022014FA245987607BR  0000010032014287611-2    000000001950000006
9000005                                                                                       000007
