0RETORNONOTIFICACAO ELETRONICA        06122011OCOR                                            000001
100003202200672824281120110067282428112011RQ046460604BR  0000006122011152890-2    000000002000000002
100003205400672825281120110067282528112011RQ046460618BR  0000006122011152892-1    000000002000000003
100003205600672827281120110067282728112011RQ046460635BR  0000006122011152892-5    000000002000000004
100003205700672828281120110067282828112011RQ046460649BR  0000006122011152892-6    000000002000000005
100003209200672829281120110067282928112011RQ046460652BR  0000006122011153062-1    000000002000000006
100003209300672830281120110067283028112011RQ046460666BR  0000006122011153062-2    000000002000000007
100003209400672831281120110067283128112011RQ046460670BR  0000006122011153062-3    000000002000000008
100003209600672833281120110067283328112011RQ046460697BR  0000006122011153062-5    000000002000000009
100003212100672834281120110067283428112011RQ046460706BR  0000006122011153062-6    000000002000000010
100003212200672835281120110067283528112011RQ046460710BR  0000006122011153062-8    000000002000000011
100003212300672836281120110067283628112011RQ046460723BR  0000006122011153062-10   000000002000000012
100003212400672837281120110067283728112011RQ046460737BR  0000006122011153250-1    000000002000000013
100003212500672838281120110067283828112011RQ046460745BR  0000006122011153250-2    000000002000000014
100003214300672840281120110067284028112011RQ046460754BR  0000006122011153250-8    000000002000000015
100003214500675117291120110067511729112011RQ046482715BR  0000006122011153475-2    000000002000000016
9000015                                                                                       000017
