0RETORNONOTIFICACAO ELETRONICA        09032015OCOR                                            000001
100005064301440725190220150144072519022015FA318680148BR  0000009032015346461-1    000000001789000002
100005069401442364040320150144236404032015FA318691812BR  0000209032015348445-1    000000001789000003
100005070501442365040320150144236504032015FA318691826BR  0000009032015349005-1    000000001789000004
9000003                                                                                       000005
