0RETORNONOTIFICACAO ELETRONICA        01122014OCOR                                            000001
100005014101383798191120140138379819112014FA318280750BR  0000201122014333574-17   000000001789000002
100005014401383801191120140138380119112014FA318280785BR  0000401122014333574-20   000000001789000003
100005015401385971241120140138597124112014FA318298574BR  0000001122014334164-5    000000001789000004
100005016601385977241120140138597724112014FA318298631BR  0000001122014334164-12   000000001789000005
9000004                                                                                       000006
