0RETORNONOTIFICACAO ELETRONICA        08082013OCOR                                            000001
100004274501007466300720130100746630072013FA136420047BR  0000008082013248876-4    000000001950000002
100004276301007469300720130100746930072013FA136420078BR  0000008082013248886-3    000000001950000003
100004278901007493310720130100749331072013FA136420223BR  0000008082013248951-4    000000001950000004
100004279001007497310720130100749731072013FA136420268BR  0000008082013248951-8    000000001950000005
100004281901007500310720130100750031072013FA136420299BR  0000008082013248952-2    000000001950000006
100004285301007506310720130100750631072013FA136420356BR  0000008082013249061-2    000000001950000007
100004287301007516310720130100751631072013FA136420458BR  0000008082013249062-1    000000001950000008
100004295901008196010820130100819601082013FA136427059BR  0000008082013249164-1    000000001950000009
100004297501008206010820130100820601082013FA136427155BR  0000008082013249170-3    000000001950000010
100004299301008219010820130100821901082013FA136427283BR  0000008082013249172-14   000000001950000011
100004300801008220010820130100822001082013FA136427297BR  0000208082013249172-15   000000001950000012
100004302301008222010820130100822201082013FA136427310BR  0000008082013249172-19   000000001950000013
100004301501008230010820130100823001082013FA136427399BR  0000008082013249172-37   000000001950000014
100004300901008236010820130100823601082013FA136427456BR  0000008082013249172-46   000000001950000015
100004312401008266010820130100826601082013FA136427751BR  0000008082013249287-2    000000001950000016
100004315901008268010820130100826801082013FA136427779BR  0000008082013249290-1    000000001950000017
100004322601008287010820130100828701082013FA136427969BR  0000008082013249295-34   000000001950000018
100004322001008293010820130100829301082013FA136428023BR  0000008082013249295-94   000000001950000019
100004318801008297010820130100829701082013FA136428068BR  0000008082013249295-135  000000001950000020
100004319001008298010820130100829801082013FA136428071BR  0000008082013249295-136  000000001950000021
100004323201008304010820130100830401082013FA136428139BR  0000208082013249313-5    000000001950000022
100004325701008310010820130100831001082013FA136428195BR  0000008082013249313-22   000000001950000023
9000022                                                                                       000024
