0RETORNONOTIFICACAO ELETRONICA        07032014OCOR                                            000001
100004623401130410310120140113041031012014FA245775939BR  0000707032014282142-24   000000001950000002
100004647901145581240220140114558124022014FA245917671BR  0000007032014286542-4    000000001950000003
100004652601148321250220140114832125022014FA245943186BR  0000007032014287107-1    000000001950000004
100004652701148322250220140114832225022014FA245943190BR  0000007032014287107-2    000000001950000005
100004653101148323250220140114832325022014FA245943209BR  0000007032014287107-3    000000001950000006
100004655301153009280220140115300928022014FA245987624BR  0000007032014287611-4    000000001950000007
9000006                                                                                       000008
