0RETORNONOTIFICACAO ELETRONICA        01062012OCOR                                            000001
100003543000767356220520120076735622052012FR971503460BR  0000001062012175705-4    000000001950000002
100003545900767371220520120076737122052012FR971503615BR  0000001062012175710-3    000000001950000003
100003537600768977240520120076897724052012FR971519601BR  0000001062012175960-1    000000001950000004
100003538000768978240520120076897824052012FR971519615BR  0000001062012175960-2    000000001950000005
100003546700768979240520120076897924052012FR971519629BR  0000001062012175960-3    000000001950000006
100003546800768980240520120076898024052012FR971519632BR  0000001062012175960-4    000000001950000007
100003546900768981240520120076898124052012FR971519646BR  0000001062012175960-5    000000001950000008
100003547000768982240520120076898224052012FR971519650BR  0000001062012175960-6    000000001950000009
100003547100768983240520120076898324052012FR971519663BR  0000001062012175960-7    000000001950000010
100003548000768984240520120076898424052012FR971519677BR  0000001062012175960-8    000000001950000011
9000010                                                                                       000012
