0RETORNONOTIFICACAO ELETRONICA        06022014OCOR                                            000001
100004610901122616220120140112261622012014FA245701794BR  0000006022014279976-6    000000001950000002
100004611901126222280120140112622228012014FA245734293BR  0000006022014280781-1    000000001950000003
100004613601126226280120140112622628012014FA245734333BR  0000006022014280782-2    000000001950000004
100004619101128961300120140112896130012014FA245761912BR  0000006022014281903-2    000000001950000005
100004619201128962300120140112896230012014FA245761926BR  0000006022014281903-3    000000001950000006
100004619301128963300120140112896330012014FA245761930BR  0000006022014281903-4    000000001950000007
100004622401130400310120140113040031012014FA245775837BR  0000006022014282142-2    000000001950000008
100004618201132433040220140113243304022014FA245794972BR  0000006022014282557-20   000000001950000009
9000008                                                                                       000010
