0RETORNONOTIFICACAO ELETRONICA        08042013OCOR                                            000001
100004068800923637260320130092363726032013FA104867831BR  0000008042013227772-7    000000001950000002
100004068100923640260320130092364026032013FA104867862BR  0000008042013227772-11   000000001950000003
100004075200925727270320130092572727032013FA104888584BR  0000008042013228574-4    000000001950000004
100004078000925734270320130092573427032013FA104888655BR  0000008042013228576-4    000000001950000005
100004085800925748270320130092574827032013FA104888791BR  0000008042013228581-10   000000001950000006
100004087700926674010420130092667401042013FA104896930BR  0000008042013228821-3    000000001950000007
100004088000926675010420130092667501042013FA104896943BR  0000008042013228821-4    000000001950000008
100004087600926676010420130092667601042013FA104896957BR  0000008042013228821-5    000000001950000009
100004087500926677010420130092667701042013FA104896965BR  0000008042013228821-6    000000001950000010
100004087800926678010420130092667801042013FA104896974BR  0000008042013228821-7    000000001950000011
100004089300926682010420130092668201042013FA104897011BR  0000008042013228824-5    000000001950000012
100004089500926683010420130092668301042013FA104897025BR  0000008042013228824-6    000000001950000013
100004076400926684010420130092668401042013FA104897039BR  0000008042013228824-7    000000001950000014
100004091200926687010420130092668701042013FA104897060BR  0000008042013228862-3    000000001950000015
100004090800926688010420130092668801042013FA104897073BR  0000008042013228862-4    000000001950000016
100004090900926689010420130092668901042013FA104897087BR  0000008042013228862-5    000000001950000017
100004092800926691010420130092669101042013FA104897100BR  0000708042013228862-14   000000001950000018
100004092700926692010420130092669201042013FA104897113BR  0000008042013228862-26   000000001950000019
100004090600926693010420130092669301042013FA104897127BR  0000008042013228862-36   000000001950000020
100004091100926697010420130092669701042013FA104897161BR  0000008042013228862-40   000000001950000021
100004092900926698010420130092669801042013FA104897175BR  0000008042013228862-41   000000001950000022
100004093300926699010420130092669901042013FA104897189BR  0000008042013228862-42   000000001950000023
100004093200926700010420130092670001042013FA104897192BR  0000008042013228862-43   000000001950000024
100004093100926701010420130092670101042013FA104897201BR  0000008042013228862-44   000000001950000025
100004093000926702010420130092670201042013FA104897215BR  0000008042013228862-45   000000001950000026
100004093400926704010420130092670401042013FA104897232BR  0000008042013228997-2    000000001950000027
100004093500926705010420130092670501042013FA104897246BR  0000008042013228997-3    000000001950000028
100004095200926706010420130092670601042013FA104897250BR  0000008042013228998-1    000000001950000029
100004097200926710010420130092671001042013FA104897294BR  0000008042013229000-3    000000001950000030
100004096800926712010420130092671201042013FA104897317BR  0000008042013229000-5    000000001950000031
100004097000926715010420130092671501042013FA104897348BR  0000008042013229000-10   000000001950000032
100004082700926717010420130092671701042013FA104897365BR  0000008042013229000-12   000000001950000033
100004082800926719010420130092671901042013FA104897382BR  0000008042013229000-14   000000001950000034
100004096900926720010420130092672001042013FA104897396BR  0000008042013229000-15   000000001950000035
100004079300926722010420130092672201042013FA104897419BR  0000008042013229000-17   000000001950000036
100004088500926724010420130092672401042013FA104897436BR  0000008042013229000-19   000000001950000037
100004091900926725010420130092672501042013FA104897440BR  0000008042013229000-20   000000001950000038
100004099200926726010420130092672601042013FA104897453BR  0000008042013229013-1    000000001950000039
100004100700926727010420130092672701042013FA104897467BR  0000008042013229013-2    000000001950000040
100004097700926731010420130092673101042013FA104897507BR  0000008042013229013-6    000000001950000041
100004100900926733010420130092673301042013FA104897524BR  0000008042013229013-9    000000001950000042
100004103900926735010420130092673501042013FA104897541BR  0000008042013229014-1    000000001950000043
100004104000926736010420130092673601042013FA104897555BR  0000008042013229014-2    000000001950000044
100004101500926737010420130092673701042013FA104897569BR  0000008042013229014-3    000000001950000045
100004101200926738010420130092673801042013FA104897572BR  0000008042013229014-5    000000001950000046
100004101400926740010420130092674001042013FA104897590BR  0000008042013229014-7    000000001950000047
100004101000926741010420130092674101042013FA104897609BR  0000008042013229014-8    000000001950000048
100004101100926742010420130092674201042013FA104897612BR  0000008042013229014-9    000000001950000049
100004104600926744010420130092674401042013FA104897630BR  0000008042013229015-5    000000001950000050
100004106300926745010420130092674501042013FA104897643BR  0000008042013229015-10   000000001950000051
100004104700926747010420130092674701042013FA104897665BR  0000008042013229015-12   000000001950000052
100004108600926748010420130092674801042013FA104897674BR  0000008042013229017-1    000000001950000053
100004108800926749010420130092674901042013FA104897688BR  0000008042013229017-2    000000001950000054
100004107600926750010420130092675001042013FA104897691BR  0000008042013229017-3    000000001950000055
100004107900926751010420130092675101042013FA104897705BR  0000008042013229017-5    000000001950000056
100004107700926752010420130092675201042013FA104897714BR  0000008042013229017-6    000000001950000057
100004107800926753010420130092675301042013FA104897728BR  0000008042013229017-7    000000001950000058
100004107400926754010420130092675401042013FA104897731BR  0000008042013229017-9    000000001950000059
100004107500926755010420130092675501042013FA104897745BR  0000008042013229017-10   000000001950000060
9000059                                                                                       000061
