0RETORNONOTIFICACAO ELETRONICA        09062014OCOR                                            000001
100004742001219172090520140121917209052014FA271155200BR  0000009062014299091-9    000000001950000002
100004762801232573280520140123257328052014FA271256999BR  0000009062014302577-4    000000001950000003
100004763101232576280520140123257628052014FA271257022BR  0000009062014302577-8    000000001950000004
100004765801232580280520140123258028052014FA271257067BR  0000009062014302578-3    000000001950000005
100004770201233442290520140123344229052014FA271263907BR  0000009062014302899-50   000000001950000006
100004771501233449290520140123344929052014FA271263972BR  0000009062014303008-5    000000001950000007
100004773601237885030620140123788503062014FA271297755BR  0000009062014303529-1    000000001950000008
100004773901237888030620140123788803062014FA271297786BR  0000009062014303529-5    000000001950000009
100004775701237890030620140123789003062014FA271297809BR  0000009062014303529-14   000000001950000010
100004775801240825050620140124082505062014FA282972969BR  0000009062014303951-1    000000001950000011
100004776101240828050620140124082805062014FA282972990BR  0000109062014303951-5    000000001950000012
100004776201240829050620140124082905062014FA282973006BR  0000009062014303951-6    000000001950000013
100004776501240832050620140124083205062014FA282973037BR  0000009062014303951-10   000000001950000014
9000013                                                                                       000015
