0RETORNONOTIFICACAO ELETRONICA        07022013OCOR                                            000001
100003969300895092290120130089509229012013FA063240118BR  0000007022013218286-2    000000001950000002
100003975500895113290120130089511329012013FA063240325BR  0000007022013218293-12   000000001950000003
100003973100895114290120130089511429012013FA063240339BR  0000007022013218293-13   000000001950000004
100003979900895126290120130089512629012013FA063240458BR  0000007022013218301-2    000000001950000005
100003983600895138290120130089513829012013FA063240577BR  0000007022013218303-1    000000001950000006
100003983900895149290120130089514929012013FA063240682BR  0000007022013218304-3    000000001950000007
100003984600895157290120130089515729012013FA063240767BR  0000007022013218304-15   000000001950000008
100003987400895160290120130089516029012013FA063240798BR  0000007022013218305-2    000000001950000009
100003987500895161290120130089516129012013FA063240807BR  0000007022013218305-3    000000001950000010
9000009                                                                                       000011
