0RETORNONOTIFICACAO ELETRONICA        06012014OCOR                                            000001
100004567501096455171220130109645517122013FA188273168BR  0000106012014273947-1    000000001950000002
100004556801100695261220130110069526122013FA188313635BR  0000006012014274949-8    000000001950000003
100004577301100701261220130110070126122013FA188313692BR  0000006012014274949-14   000000001950000004
100004577201100702261220130110070226122013FA188313701BR  0000006012014274949-15   000000001950000005
100004577701100705261220130110070526122013FA188313732BR  0000006012014274949-18   000000001950000006
100004566001100706261220130110070626122013FA188313746BR  0000006012014274949-19   000000001950000007
100004576801100707261220130110070726122013FA188313750BR  0000006012014274949-20   000000001950000008
100004576701100708261220130110070826122013FA188313763BR  0000006012014274949-21   000000001950000009
100004576601100709261220130110070926122013FA188313777BR  0000006012014274949-22   000000001950000010
100004576501100710261220130110071026122013FA188313785BR  0000006012014274949-23   000000001950000011
100004580501102701271220130110270127122013FA188331625BR  0000006012014275191-2    000000001950000012
100004580401102702271220130110270227122013FA188331634BR  0000006012014275191-3    000000001950000013
100004582001102705271220130110270527122013FA188331665BR  0000006012014275193-2    000000001950000014
100004585001102707271220130110270727122013FA188331682BR  0000006012014275195-3    000000001950000015
100004585101102708271220130110270827122013FA188331696BR  0000006012014275195-4    000000001950000016
9000015                                                                                       000017
