0RETORNONOTIFICACAO ELETRONICA        10062013OCOR                                            000001
100004216400966156290520130096615629052013FA136030470BR  0000010062013238770-3    000000001950000002
100004220100966158290520130096615829052013FA136030497BR  0000010062013238771-1    000000001950000003
100004220500966160290520130096616029052013FA136030510BR  0000010062013238771-4    000000001950000004
100004220400966161290520130096616129052013FA136030523BR  0000010062013238771-8    000000001950000005
100004227700966174290520130096617429052013FA136030656BR  0000010062013238775-1    000000001950000006
100004229800966177290520130096617729052013FA136030687BR  0002310062013238775-8    000000001950000007
100004229600966179290520130096617929052013FA136030700BR  0000710062013238775-10   000000001950000008
100004227400966200290520130096620029052013FA136030917BR  0000710062013238775-96   000000001950000009
100004223900966211290520130096621129052013FA136031020BR  0000010062013238775-111  000000001950000010
9000009                                                                                       000011
