0RETORNONOTIFICACAO ELETRONICA        05112013OCOR                                            000001
100004490101058743231020130105874323102013FA159559146BR  0000005112013264830-4    000000001950000002
100004493701060941251020130106094125102013FA159579959BR  0000005112013265321-1    000000001950000003
100004494801063923291020130106392329102013FA159608425BR  0000005112013265634-8    000000001950000004
100004497501065966311020130106596631102013FA159628632BR  0000005112013266185-4    000000001950000005
9000004                                                                                       000006
