0RETORNONOTIFICACAO ELETRONICA        07122012OCOR                                            000001
100003871700861516231120120086151623112012FA062922415BR  0000007122012206124-1    000000001950000002
100003887200865162301120120086516230112012FA062955127BR  0000007122012207733-3    000000001950000003
100003890000865167301120120086516730112012FA062955175BR  0000007122012207753-1    000000001950000004
100003892600865171301120120086517130112012FA062955215BR  0000007122012207805-1    000000001950000005
100003895900865179301120120086517930112012FA062955294BR  0000007122012207901-2    000000001950000006
100003896100865181301120120086518130112012FA062955317BR  0000007122012207901-4    000000001950000007
100003895800865186301120120086518630112012FA062955365BR  0000007122012207901-9    000000001950000008
100003898700865191301120120086519130112012FA062955419BR  0000007122012207901-108  000000001950000009
9000008                                                                                       000010
