0RETORNONOTIFICACAO ELETRONICA        07112011OCOR                                            000001
100003149800651924271020110065192427102011RQ047856382BR  0000007112011149439-6    000000002000000002
100003150700651928271020110065192827102011JL014589264BR  0000007112011149439-10   000000002000000003
100003151700651932271020110065193227102011JL014589278BR  0000007112011149439-14   000000002000000004
100003153200652771281020110065277128102011RQ047864429BR  0000007112011149637-8    000000002000000005
100003155200652780281020110065278028102011RQ047864503BR  0000007112011149637-61   000000002000000006
100003155300653127311020110065312731102011RQ047867819BR  0000007112011149815-1    000000002000000007
100003155400653128311020110065312831102011RQ047867822BR  0000007112011149815-2    000000002000000008
100003157900653129311020110065312931102011RQ047867836BR  0000007112011149816-2    000000002000000009
100003158000653130311020110065313031102011RQ047867840BR  0000007112011149816-3    000000002000000010
100003158100653131311020110065313131102011RQ047867853BR  0000007112011149816-5    000000002000000011
100003158200653132311020110065313231102011JL014589975BR  0000007112011149816-7    000000002000000012
100003158300653133311020110065313331102011JL014589984BR  0000007112011149816-8    000000002000000013
9000012                                                                                       000014
