0RETORNONOTIFICACAO ELETRONICA        04062013OCOR                                            000001
100004117400934369080420130093436908042013FA136028391BR  0000003062013230109-1    000000001950000002
100004214100961080220520130096108022052013FA105203422BR  0000004062013237623-3    000000001950000003
100004213800961082220520130096108222052013FA105203440BR  0000004062013237623-5    000000001950000004
9000003                                                                                       000005
