0RETORNONOTIFICACAO ELETRONICA        07112012OCOR                                            000001
100003839000851266311020120085126631102012FA012621214BR  0000107112012201971-10   000000001950000002
100003841400851280311020120085128031102012FA012621355BR  0000007112012201980-10   000000001950000003
100003845600851370311020120085137031102012FA012622254BR  0000107112012202192-15   000000001950000004
9000003                                                                                       000005
