0RETORNONOTIFICACAO ELETRONICA        03102013OCOR                                            000001
100004420801039776240920130103977624092013FA159379232BR  0000003102013258721-7    000000001950000002
100004422201039777240920130103977724092013FA159379246BR  0000003102013258721-9    000000001950000003
100004423101039778240920130103977824092013FA159379250BR  0000003102013258721-10   000000001950000004
100004427001041130260920130104113026092013FA159392446BR  0000003102013259163-51   000000001950000005
100004426801041132260920130104113226092013FA159392463BR  0000003102013259163-57   000000001950000006
100004423301041139260920130104113926092013FA159392534BR  0000003102013259163-73   000000001950000007
100004432301041144260920130104114426092013FA159392582BR  0000003102013259386-2    000000001950000008
100004436201043127270920130104312727092013FA159412171BR  0000003102013259845-1    000000001950000009
100004435801043128270920130104312827092013FA159412185BR  0000003102013259845-2    000000001950000010
9000009                                                                                       000011
