0RETORNONOTIFICACAO ELETRONICA        01072013OCOR                                            000001
100004247300974963190620130097496319062013FA136107117BR  0000001072013242042-1    000000001950000002
100004244500974967190620130097496719062013FA136107151BR  0000001072013242042-5    000000001950000003
100004244700974968190620130097496819062013FA136107165BR  0000001072013242042-6    000000001950000004
100004244600974969190620130097496919062013FA136107179BR  0000001072013242042-7    000000001950000005
100004241400974973190620130097497319062013FA136107219BR  0000001072013242045-5    000000001950000006
100004246000974976190620130097497619062013FA136107240BR  0000001072013242047-1    000000001950000007
100004246100974978190620130097497819062013FA136107267BR  0000001072013242047-3    000000001950000008
100004253500974984190620130097498419062013FA136107324BR  0000001072013242049-1    000000001950000009
100004255700974991190620130097499119062013FA136107390BR  0000001072013242050-2    000000001950000010
100004259300974995190620130097499519062013FA136107430BR  0000001072013242052-4    000000001950000011
9000010                                                                                       000012
