0RETORNONOTIFICACAO ELETRONICA        12122013OCOR                                            000001
100004544201088148021220130108814802122013FA188191526BR  0000012122013271589-1    000000001950000002
100004545901090270031220130109027003122013FA188214876BR  0000012122013271841-3    000000001950000003
100004547901090279031220130109027903122013FA188214964BR  0000812122013271841-13   000000001950000004
100004525801090282031220130109028203122013FA188214995BR  0000012122013271841-18   000000001950000005
100004519901090284031220130109028403122013FA188215015BR  0000012122013271841-20   000000001950000006
100004548201090781041220130109078104122013FA188218277BR  0000012122013272053-2    000000001950000007
100004551301091709061220130109170906122013FA188227472BR  0000012122013272294-5    000000001950000008
100004551401091710061220130109171006122013FA188227486BR  0000012122013272294-6    000000001950000009
100004553401092060091220130109206009122013FA188230587BR  0000012122013272481-14   000000001950000010
9000009                                                                                       000011
