0RETORNONOTIFICACAO ELETRONICA        01112013OCOR                                            000001
100004485701057296211020130105729621102013FA159545527BR  0000001112013264403-1    000000001950000002
100004490401058741231020130105874123102013FA159559129BR  0000001112013264830-2    000000001950000003
100004484401060114251020130106011425102013FA159571694BR  0000001112013264120-1    000000001950000004
100004484201060115251020130106011525102013FA159571703BR  0000001112013264120-2    000000001950000005
100004492001060937251020130106093725102013FA159579914BR  0000001112013265317-2    000000001950000006
100004491901060939251020130106093925102013FA159579931BR  0000001112013265317-7    000000001950000007
100004492201060940251020130106094025102013FA159579945BR  0000001112013265317-17   000000001950000008
100004493501060942251020130106094225102013FA159579962BR  0000001112013265321-2    000000001950000009
100004493601060944251020130106094425102013FA159579980BR  0000001112013265321-4    000000001950000010
9000009                                                                                       000011
