0RETORNONOTIFICACAO ELETRONICA        03042013OCOR                                            000001
100004068700923644260320130092364426032013FA104867902BR  0000003042013227772-16   000000001950000002
100004074700923651260320130092365126032013FA104867978BR  0001203042013227777-2    000000001950000003
100004075100925726270320130092572627032013FA104888575BR  0000003042013228574-3    000000001950000004
100004078300925733270320130092573327032013FA104888641BR  0000003042013228576-3    000000001950000005
100004080600925737270320130092573727032013FA104888686BR  0000003042013228578-4    000000001950000006
100004080400925739270320130092573927032013FA104888709BR  0000003042013228578-6    000000001950000007
100004083700925741270320130092574127032013FA104888726BR  0000003042013228579-1    000000001950000008
100004087400925747270320130092574727032013FA104888788BR  0000003042013228581-3    000000001950000009
9000008                                                                                       000010
