0RETORNONOTIFICACAO ELETRONICA        06092012OCOR                                            000001
100003727500819467280820120081946728082012FA012316210BR  0000006092012190576-3    000000001950000002
100003730100819476280820120081947628082012FA012316308BR  0000006092012190601-2    000000001950000003
100003730300819478280820120081947828082012FA012316325BR  0000006092012190601-5    000000001950000004
100003735200819503280820120081950328082012FA012316577BR  0000006092012190601-64   000000001950000005
100003736500819516280820120081951628082012FA012316705BR  0000706092012190601-145  000000001950000006
100003741100821850310820120082185031082012FA012339768BR  0000006092012191321-30   000000001950000007
100003739000821862310820120082186231082012FA012339887BR  0000006092012191361-1    000000001950000008
100003746900821870310820120082187031082012FA012339961BR  0000006092012191361-22   000000001950000009
9000008                                                                                       000010
