0RETORNONOTIFICACAO ELETRONICA        12122014OCOR                                            000001
100005011801382287181120140138228718112014FA318270125BR  0000012122014333314-74   000000001789000002
100005020701392112011220140139211201122014FA318340294BR  0000012122014335165-6    000000001789000003
100005020801392113011220140139211301122014FA318340308BR  0000012122014335165-14   000000001789000004
100005021001392115011220140139211501122014FA318340325BR  0000012122014335165-18   000000001789000005
100005022701396528031220140139652803122014FA318393028BR  0000012122014335648-2    000000001789000006
100005023201396533031220140139653303122014FA318393076BR  0000012122014335648-8    000000001789000007
100005023401396535031220140139653503122014FA318393093BR  0000212122014335648-10   000000001789000008
9000007                                                                                       000009
