0RETORNONOTIFICACAO ELETRONICA        04112013OCOR                                            000001
100004458401049351041020130104935104102013FA159471585BR  0000004112013261107-14   000000001950000002
100004490301058742231020130105874223102013FA159559132BR  0000004112013264830-3    000000001950000003
100004484001060118251020130106011825102013FA159571734BR  0000004112013264120-5    000000001950000004
100004492101060936251020130106093625102013FA159579905BR  0000004112013265317-1    000000001950000005
100004493801060943251020130106094325102013FA159579976BR  0000004112013265321-3    000000001950000006
100004493401060945251020130106094525102013FA159579993BR  0000004112013265321-5    000000001950000007
100004495401063917291020130106391729102013FA159608363BR  0000004112013265634-2    000000001950000008
100004491101063918291020130106391829102013FA159608377BR  0000004112013265634-3    000000001950000009
100004494901063920291020130106392029102013FA159608394BR  0000004112013265634-5    000000001950000010
100004494701063924291020130106392429102013FA159608434BR  0000004112013265634-9    000000001950000011
100004495801064640291020130106464029102013FA159615599BR  0000004112013265902-3    000000001950000012
9000011                                                                                       000013
