0RETORNONOTIFICACAO ELETRONICA        06022013OCOR                                            000001
100003969400895094290120130089509429012013FA063240135BR  0002306022013218286-4    000000001950000002
100003972100895102290120130089510229012013FA063240210BR  0000006022013218293-1    000000001950000003
100003980300895133290120130089513329012013FA063240529BR  0000106022013218301-9    000000001950000004
100003984800895154290120130089515429012013FA063240736BR  0000006022013218304-12   000000001950000005
100003985000895158290120130089515829012013FA063240775BR  0000006022013218304-16   000000001950000006
9000005                                                                                       000007
