0RETORNONOTIFICACAO ELETRONICA        09102014OCOR                                            000001
100004907301321382090920140132138209092014FA294503526BR  0000809102014320743-5    000000001789000002
100004976201332037230920140133203723092014FA294582634BR  0001209102014323608-628  000000001789000003
100004979501335725290920140133572529092014FA294612530BR  0000009102014324399-2    000000001789000004
100004979601335726290920140133572629092014FA294612543BR  0000509102014324399-3    000000001789000005
100004979701335727290920140133572729092014FA294612557BR  0000009102014324399-4    000000001789000006
100004981601342373031020140134237303102014FA294661941BR  0000209102014325263-3    000000001789000007
100004982401342379031020140134237903102014FA294662006BR  0000209102014325390-6    000000001789000008
9000007                                                                                       000009
