0RETORNONOTIFICACAO ELETRONICA        08052012OCOR                                            000001
100003502700756637020520120075663702052012FR851987307BR  0000008052012172350-1    000000001950000002
100003504400756642020520120075664202052012FR851987355BR  0000008052012172350-6    000000001950000003
100003504500756643020520120075664302052012FR851987369BR  0000008052012172350-7    000000001950000004
100003505600756645020520120075664502052012FR851987386BR  0000008052012172350-9    000000001950000005
100003506600756647020520120075664702052012FR851987409BR  0000008052012172350-54   000000001950000006
100003502500756648020520120075664802052012FR851987412BR  0000008052012172732-1    000000001950000007
100003506700756649020520120075664902052012FR851987426BR  0000008052012172732-2    000000001950000008
100003506800756650020520120075665002052012FR851987430BR  0000008052012172732-3    000000001950000009
100003506900756651020520120075665102052012FR851987443BR  0000008052012172732-5    000000001950000010
100003508200756653020520120075665302052012FR851987465BR  0000008052012172734-2    000000001950000011
100003508300756654020520120075665402052012FR851987474BR  0000008052012172734-3    000000001950000012
100003508400756655020520120075665502052012FR851987488BR  0000008052012172734-4    000000001950000013
100003508500756656020520120075665602052012FR851987491BR  0000008052012172734-5    000000001950000014
100003508600756657020520120075665702052012FR851987505BR  0000008052012172734-6    000000001950000015
100003508900756659020520120075665902052012FR851987528BR  0000008052012172734-8    000000001950000016
100003509300756660020520120075666002052012FR851987531BR  0000008052012172734-9    000000001950000017
100003509500756662020520120075666202052012FR851987559BR  0000008052012172734-11   000000001950000018
100003510600756665020520120075666502052012FR851987580BR  0000008052012172734-14   000000001950000019
100003506500756705020520120075670502052012FR851987987BR  0000008052012172350-32   000000001950000020
9000019                                                                                       000021
