0RETORNONOTIFICACAO ELETRONICA        05022015OCOR                                            000001
100005052801431018230120150143101823012015FA318612885BR  0000005022015342411-22   000000001789000002
100005053301431023230120150143102323012015FA318612939BR  0000005022015342411-55   000000001789000003
100005056301431053230120150143105323012015FA318613231BR  0000005022015342413-1    000000001789000004
100005057801436229300120150143622930012015FA318644432BR  0000105022015343643-13   000000001789000005
9000004                                                                                       000006
