0RETORNONOTIFICACAO ELETRONICA        02122013OCOR                                            000001
100004460601049433041020130104943304102013FA188113577BR  0000002122013261107-171  000000001950000002
100004516901077847141120130107784714112013FA188096176BR  0000002122013268645-2    000000001950000003
100004527201079646201120130107964620112013FA188113395BR  0002302122013269417-2    000000001950000004
100004532101079997211120130107999721112013FA188115621BR  0001202122013269862-1    000000001950000005
100004445901080005211120130108000521112013FA188115706BR  0000002122013269863-1    000000001950000006
100004534401082290261120130108229026112013FA188137468BR  0000002122013270327-1    000000001950000007
100004534201082291261120130108229126112013FA188137471BR  0000002122013270327-2    000000001950000008
100004534301082292261120130108229226112013FA188137485BR  0000002122013270327-3    000000001950000009
100004535801082295261120130108229526112013FA188137511BR  0000002122013270328-2    000000001950000010
100004537001082297261120130108229726112013FA188137539BR  0000002122013270328-5    000000001950000011
100004537101082298261120130108229826112013FA188137542BR  0000002122013270328-6    000000001950000012
100004536001082299261120130108229926112013FA188137556BR  0002302122013270328-7    000000001950000013
100004539701084538271120130108453827112013FA188159168BR  0000002122013270870-2    000000001950000014
9000013                                                                                       000015
