0RETORNONOTIFICACAO ELETRONICA        04092014OCOR                                            000001
100004886801305553220820140130555322082014FA283447871BR  0000004092014317646-1    000000001950000002
100004890501308633260820140130863326082014FA294413233BR  0000004092014318099-3    000000001950000003
100004890801308634260820140130863426082014FA294413247BR  0000004092014318099-4    000000001950000004
100004892601311246290820140131124629082014FA294429896BR  0000204092014318601-5    000000001950000005
100004893501311247290820140131124729082014FA294429905BR  0000004092014318848-1    000000001950000006
100004894101311249290820140131124929082014FA294429922BR  0000004092014318848-3    000000001950000007
9000006                                                                                       000008
