0RETORNONOTIFICACAO ELETRONICA        03112014OCOR                                            000001
100004993301356634231020140135663423102014FA294769104BR  0000003112014329073-3    000000001789000002
100004993401356635231020140135663523102014FA294769118BR  0000003112014329073-4    000000001789000003
100004994401360894291020140136089429102014FA294799429BR  0000003112014329383-1    000000001789000004
100004995901360900291020140136090029102014FA294799485BR  0000903112014329845-46   000000001789000005
100004995901360901291020140136090129102014FA294799494BR  0000903112014329845-76   000000001789000006
100004995901360902291020140136090229102014FA294799503BR  0000903112014329845-106  000000001789000007
100004996001360903291020140136090329102014FA294799517BR  0000903112014329845-120  000000001789000008
100004996001360904291020140136090429102014FA294799525BR  0000903112014329845-150  000000001789000009
100004996301360907291020140136090729102014FA294799551BR  0000003112014329920-4    000000001789000010
100004996801360912291020140136091229102014FA294799605BR  0000003112014329920-9    000000001789000011
9000010                                                                                       000012
