0RETORNONOTIFICACAO ELETRONICA        05102012OCOR                                            000001
100003776500833316260920120083331626092012FA012449865BR  0000005102012195791-1    000000001950000002
100003776600833317260920120083331726092012FA012449879BR  0000005102012195791-3    000000001950000003
100003761400833320260920120083332026092012FA012449905BR  0000005102012195796-1    000000001950000004
100003772700833324260920120083332426092012FA012449940BR  0000005102012195796-5    000000001950000005
100003775700833325260920120083332526092012FA012449953BR  0000005102012195796-6    000000001950000006
100003782900833338260920120083333826092012FA012450086BR  0000005102012195798-13   000000001950000007
9000006                                                                                       000008
