0RETORNONOTIFICACAO ELETRONICA        03032015OCOR                                            000001
100005063601440723190220150144072319022015FA318680125BR  0000003032015346459-2    000000001789000002
100005064401440726190220150144072619022015FA318680151BR  0000003032015346461-2    000000001789000003
100005064501440727190220150144072719022015FA318680165BR  0000003032015346461-5    000000001789000004
100005068301441745260220150144174526022015FA318687720BR  0000003032015348237-1    000000001789000005
100005069001441751260220150144175126022015FA318687781BR  0000003032015348237-63   000000001789000006
9000005                                                                                       000007
