0RETORNONOTIFICACAO ELETRONICA        03042014OCOR                                            000001
100004678101174073180320140117407318032014FA246166735BR  0000003042014290357-4    000000001950000002
100004681101176487240320140117648724032014FA246186165BR  0000003042014291473-3    000000001950000003
100004686601176498240320140117649824032014FA246186275BR  0000003042014291518-2    000000001950000004
100004686701176499240320140117649924032014FA246186284BR  0000003042014291518-3    000000001950000005
100004689701177960250320140117796025032014FA270806978BR  0000003042014291677-17   000000001950000006
100004679801179788270320140117978827032014FA270822817BR  0000003042014292053-1    000000001950000007
100004684401179793270320140117979327032014FA270822865BR  0000003042014292053-6    000000001950000008
100004684701179794270320140117979427032014FA270822879BR  0000003042014292053-7    000000001950000009
100004684801179795270320140117979527032014FA270822882BR  0000003042014292053-8    000000001950000010
100004690201179797270320140117979727032014FA270822905BR  0000003042014292053-10   000000001950000011
100004691701179801270320140117980127032014FA270822940BR  0000003042014292406-1    000000001950000012
100004691901179803270320140117980327032014FA270822967BR  0000003042014292406-4    000000001950000013
100004692001179804270320140117980427032014FA270822975BR  0000003042014292406-6    000000001950000014
100004692101179805270320140117980527032014FA270822984BR  0000003042014292406-7    000000001950000015
9000014                                                                                       000016
