0RETORNONOTIFICACAO ELETRONICA        07012013OCOR                                            000001
100003937100874660201220120087466020122012FA063044816BR  0000007012013211948-7    000000001950000002
100003941100876223271220120087622327122012FA063059435BR  0000007012013212387-3    000000001950000003
100003941300876224271220120087622427122012FA063059444BR  0000007012013212387-4    000000001950000004
100003941200876225271220120087622527122012FA063059458BR  0000007012013212387-6    000000001950000005
100003941000876226271220120087622627122012FA063059461BR  0000007012013212387-7    000000001950000006
9000005                                                                                       000007
