0RETORNONOTIFICACAO ELETRONICA        08042014OCOR                                            000001
100004681201176488240320140117648824032014FA246186179BR  0000008042014291473-4    000000001950000002
100004683801176493240320140117649324032014FA246186222BR  0000008042014291502-3    000000001950000003
100004687401177956250320140117795625032014FA270806933BR  0000008042014291677-7    000000001950000004
9000003                                                                                       000005
