0RETORNONOTIFICACAO ELETRONICA        04102013OCOR                                            000001
100004415301039774240920130103977424092013FA159379215BR  0000004102013258721-5    000000001950000002
100004422501039779240920130103977924092013FA159379263BR  0000004102013258721-11   000000001950000003
100004422401039780240920130103978024092013FA159379277BR  0000004102013258721-12   000000001950000004
100004423501041102260920130104110226092013FA159392168BR  0000004102013259163-2    000000001950000005
100004428401041116260920130104111626092013FA159392300BR  0000004102013259163-25   000000001950000006
100004427601041124260920130104112426092013FA159392389BR  0001204102013259163-36   000000001950000007
100004427301041127260920130104112726092013FA159392415BR  0000004102013259163-42   000000001950000008
100004429501041142260920130104114226092013FA159392565BR  0000004102013259164-2    000000001950000009
100004433401042930270920130104293027092013FA159397430BR  0000004102013259606-1    000000001950000010
100004433501042931270920130104293127092013FA159397443BR  0000004102013259606-3    000000001950000011
100004435601043133270920130104313327092013FA159412239BR  0000004102013259845-8    000000001950000012
9000011                                                                                       000013
