0RETORNONOTIFICACAO ELETRONICA        04072014OCOR                                            000001
100004779301245689110620140124568911062014FA283008950BR  0000004072014305005-8    000000001950000002
100004795901249168160620140124916816062014FA283034230BR  0000004072014305572-166  000000001950000003
100004802301249232160620140124923216062014FA283034875BR  0000204072014305572-304  000000001950000004
100004802901249238160620140124923816062014FA283034932BR  0000004072014305572-316  000000001950000005
100004822901254340250620140125434025062014FA283072357BR  0001204072014306823-4    000000001950000006
100004825201257175260620140125717526062014FA283093754BR  0000004072014307280-2    000000001950000007
100004825601257179260620140125717926062014FA283093799BR  0000004072014307280-6    000000001950000008
9000007                                                                                       000009
