0RETORNONOTIFICACAO ELETRONICA        11032013OCOR                                            000001
100004054600910178270220130091017827022013FA104738942BR  0000111032013223790-11   000000001950000002
100004054500910179270220130091017927022013FA104738956BR  0000511032013223790-14   000000001950000003
100004059100910853280220130091085328022013FA104745245BR  0000011032013224040-9    000000001950000004
100004058800910856280220130091085628022013FA104745271BR  0000011032013224040-12   000000001950000005
100004058200910857280220130091085728022013FA104745285BR  0000011032013224040-13   000000001950000006
100004058400910858280220130091085828022013FA104745299BR  0000011032013224040-16   000000001950000007
100004056200910863280220130091086328022013FA104745342BR  0000011032013224040-32   000000001950000008
100004059500913074040320130091307404032013FA104766546BR  0000011032013224444-3    000000001950000009
9000008                                                                                       000010
