0RETORNONOTIFICACAO ELETRONICA        07082014OCOR                                            000001
100004857901286219290720140128621929072014FA283311406BR  0000407082014312476-2    000000001950000002
100004861401286230290720140128623029072014FA283311511BR  0000007082014312999-5    000000001950000003
100004862401287589310720140128758931072014FA283318713BR  0000007082014313298-1    000000001950000004
100004862701287591310720140128759131072014FA283318735BR  0000007082014313298-3    000000001950000005
100004863701287594310720140128759431072014FA283318761BR  0000007082014313525-3    000000001950000006
100004863801287595310720140128759531072014FA283318775BR  0000007082014313525-4    000000001950000007
100004863901287596310720140128759631072014FA283318789BR  0000007082014313525-5    000000001950000008
100004866801289813040820140128981304082014FA283336513BR  0000207082014314065-6    000000001950000009
9000008                                                                                       000010
