0RETORNONOTIFICACAO ELETRONICA        05092012OCOR                                            000001
100003730400819479280820120081947928082012FA012316339BR  0000005092012190601-6    000000001950000002
100003735000819501280820120081950128082012FA012316550BR  0000905092012190601-57   000000001950000003
100003738200819533280820120081953328082012FA012316872BR  0000705092012190601-423  000000001950000004
100003738200819829280820120081982928082012FA012319825BR  0000705092012190601-440  000000001950000005
100003742000821859310820120082185931082012FA012339856BR  0000005092012191332-6    000000001950000006
9000005                                                                                       000007
