0RETORNONOTIFICACAO ELETRONICA        08112013OCOR                                            000001
100004452801049407041020130104940704102013FA159472144BR  0000708112013261107-145  000000001950000002
100004495001063916291020130106391629102013FA159608350BR  0000008112013265634-1    000000001950000003
100004486801063919291020130106391929102013FA159608385BR  0000008112013265634-4    000000001950000004
100004491301063921291020130106392129102013FA159608403BR  0000008112013265634-6    000000001950000005
100004488901063922291020130106392229102013FA159608417BR  0000008112013265634-7    000000001950000006
100004495701064638291020130106463829102013FA159615571BR  0000008112013265902-1    000000001950000007
100004495901064641291020130106464129102013FA159615608BR  0000008112013265902-4    000000001950000008
100004497401065968311020130106596831102013FA159628650BR  0000008112013266185-6    000000001950000009
100004499001066292311020130106629231102013FA159631897BR  0000008112013266428-4    000000001950000010
100004499201066293311020130106629331102013FA159631906BR  0000008112013266428-5    000000001950000011
100004499401066295311020130106629531102013FA159631923BR  0000008112013266428-7    000000001950000012
9000011                                                                                       000013
