0RETORNONOTIFICACAO ELETRONICA        04042013OCOR                                            000001
100004068500923635260320130092363526032013FA104867814BR  0000004042013227772-1    000000001950000002
100004068300923636260320130092363626032013FA104867828BR  0000004042013227772-2    000000001950000003
100004068900923638260320130092363826032013FA104867845BR  0000004042013227772-9    000000001950000004
100004068200923641260320130092364126032013FA104867876BR  0000004042013227772-12   000000001950000005
100004068600923643260320130092364326032013FA104867893BR  0000004042013227772-15   000000001950000006
100004071300923645260320130092364526032013FA104867916BR  0000004042013227775-1    000000001950000007
100004071200923646260320130092364626032013FA104867920BR  0000004042013227775-2    000000001950000008
100004071100923647260320130092364726032013FA104867933BR  0000004042013227775-3    000000001950000009
100004074600923650260320130092365026032013FA104867964BR  0000004042013227777-1    000000001950000010
100004072800923652260320130092365226032013FA104867981BR  0000004042013227777-4    000000001950000011
100004072900923653260320130092365326032013FA104867995BR  0000004042013227777-6    000000001950000012
100004075000925725270320130092572527032013FA104888567BR  0000004042013228574-1    000000001950000013
100004074800925728270320130092572827032013FA104888598BR  0000004042013228574-5    000000001950000014
100004075300925730270320130092573027032013FA104888615BR  0000004042013228574-7    000000001950000015
100004078200925731270320130092573127032013FA104888624BR  0000004042013228576-1    000000001950000016
100004077900925732270320130092573227032013FA104888638BR  0000004042013228576-2    000000001950000017
100004078100925735270320130092573527032013FA104888669BR  0000004042013228576-5    000000001950000018
100004080300925738270320130092573827032013FA104888690BR  0000004042013228578-5    000000001950000019
100004083800925742270320130092574227032013FA104888730BR  0000004042013228579-2    000000001950000020
100004085600925746270320130092574627032013FA104888774BR  0000004042013228581-2    000000001950000021
100004090000926686010420130092668601042013FA104897056BR  0000004042013228862-2    000000001950000022
100004081200926709010420130092670901042013FA104897285BR  0000004042013229000-2    000000001950000023
100004078800926713010420130092671301042013FA104897325BR  0000004042013229000-8    000000001950000024
100004097100926721010420130092672101042013FA104897405BR  0000104042013229000-16   000000001950000025
100004099500926732010420130092673201042013FA104897515BR  0000004042013229013-7    000000001950000026
9000025                                                                                       000027
