0RETORNONOTIFICACAO ELETRONICA        07102014OCOR                                            000001
100004949901331774230920140133177423092014FA294580001BR  0000007102014323608-318  000000001789000002
100004968501331960230920140133196023092014FA294581863BR  0000007102014323608-523  000000001789000003
100004968701331962230920140133196223092014FA294581885BR  0000007102014323608-525  000000001789000004
100004968801331963230920140133196323092014FA294581894BR  0000007102014323608-526  000000001789000005
100004968901331964230920140133196423092014FA294581903BR  0000007102014323608-527  000000001789000006
100004975701332032230920140133203223092014FA294582585BR  0000007102014323608-608  000000001789000007
9000006                                                                                       000008
