0RETORNONOTIFICACAO ELETRONICA        10102013OCOR                                            000001
100004442401045119011020130104511901102013FA159430405BR  0000010102013260411-1    000000001950000002
100004440701045122011020130104512201102013FA159430436BR  0000010102013260411-4    000000001950000003
100004441201045123011020130104512301102013FA159430440BR  0000010102013260411-5    000000001950000004
100004441101045124011020130104512401102013FA159430453BR  0000010102013260411-6    000000001950000005
100004441001045125011020130104512501102013FA159430467BR  0000010102013260411-7    000000001950000006
100004440901045126011020130104512601102013FA159430475BR  0000010102013260411-8    000000001950000007
100004440801045127011020130104512701102013FA159430484BR  0000010102013260411-9    000000001950000008
100004442501045128011020130104512801102013FA159430498BR  0000010102013260411-10   000000001950000009
100004444801046173021020130104617302102013FA159440570BR  0000010102013260638-1    000000001950000010
100004445001046176021020130104617602102013FA159440606BR  0000010102013260638-4    000000001950000011
100004446101046179021020130104617902102013FA159440637BR  0000010102013260638-7    000000001950000012
100004446301046180021020130104618002102013FA159440645BR  0000010102013260638-8    000000001950000013
100004446201046181021020130104618102102013FA159440654BR  0000010102013260638-9    000000001950000014
100004447401048746031020130104874603102013FA159465364BR  0000010102013260924-1    000000001950000015
100004447101048750031020130104875003102013FA159465404BR  0000010102013260924-7    000000001950000016
100004452501049410041020130104941004102013FA159472175BR  0000010102013261107-148  000000001950000017
100004452101049414041020130104941404102013FA159472215BR  0000010102013261107-152  000000001950000018
9000017                                                                                       000019
