0RETORNONOTIFICACAO ELETRONICA        06032014OCOR                                            000001
100004642301140944130220140114094413022014FA245875659BR  0000006032014284923-4    000000001950000002
100004644801141902170220140114190217022014FA245884151BR  0000006032014285515-7    000000001950000003
100004647601145578240220140114557824022014FA245917645BR  0000006032014286542-1    000000001950000004
100004647801145580240220140114558024022014FA245917668BR  0000006032014286542-3    000000001950000005
100004648001145582240220140114558224022014FA245917685BR  0000006032014286542-6    000000001950000006
100004649301145583240220140114558324022014FA245917699BR  0000006032014286542-7    000000001950000007
100004649801145585240220140114558524022014FA245917711BR  0000006032014286543-1    000000001950000008
100004649901145586240220140114558624022014FA245917725BR  0000006032014286543-2    000000001950000009
100004650001145587240220140114558724022014FA245917739BR  0000006032014286543-3    000000001950000010
9000009                                                                                       000011
