0RETORNONOTIFICACAO ELETRONICA        10102011OCOR                                            000001
100002944400592474080820110059247408082011JL014580248BR  0000010102011139769-7    000000002000000002
100003089400635752300920110063575230092011RM948905739BR  0000010102011146406-3    000000002000000003
100003003300636693031020110063669303102011RM948913718BR  0000010102011146697-1    000000002000000004
100003070400636695031020110063669503102011RM948913735BR  0000010102011146697-3    000000002000000005
100003070600636696031020110063669603102011JL014581570BR  0000010102011146697-4    000000002000000006
100003070700636697031020110063669703102011JL014581583BR  0000010102011146697-5    000000002000000007
100003070800636698031020110063669803102011JL014581597BR  0000010102011146697-6    000000002000000008
100003070900636699031020110063669903102011JL014581606BR  0000010102011146697-7    000000002000000009
100003098000637616041020110063761604102011RM948923851BR  0000010102011146910-8    000000002000000010
100003103000637623041020110063762304102011RM948923922BR  0000010102011146910-35   000000002000000011
9000010                                                                                       000012
