0RETORNONOTIFICACAO ELETRONICA        06012012OCOR                                            000001
100003168200660910071120110066091007112011JL014614998BR  0000006012012150625-7    000000002000000002
100003257500691295201220110069129520122011RQ046333923BR  0000006012012156150-94   000000002000000003
100003267100694311281220110069431128122011RQ046362978BR  0000006012012156771-3    000000002000000004
100003202800694316281220110069431628122011RQ046363015BR  0000006012012156773-1    000000002000000005
100003202900694317281220110069431728122011RQ046363029BR  0000006012012156773-2    000000002000000006
100003212800694328281220110069432828122011JL014615684BR  0000006012012156773-13   000000002000000007
100003213700694329281220110069432928122011RQ046363103BR  0000006012012156773-14   000000002000000008
100003218900694341281220110069434128122011JL014615786BR  0000006012012156773-26   000000002000000009
100003219000694342281220110069434228122011JL014615790BR  0000006012012156773-27   000000002000000010
100003264500694345281220110069434528122011RQ046363134BR  0000006012012156773-30   000000002000000011
9000010                                                                                       000012
