0REMESSANOTIFICACAO ELETRONICA        99999999999999BICBANCO                                AV. PAULISTA                            1048      12.ANDAR  BELA VISTA                    SAO PAULO                     01310100SP1121739360CORTINHAL                               COORDENADOR                             12072011                                                                                                                                                                                                                                                                                                                                                                                      000001
1016421019267COBR_CAUC_COR  COBRAZEM AGROINDUSTRIAL LTDA            084874726000496KAEFER AGRO INDUSTRIAL                  RUA MATE LARANJEIRAS,0                  TOLEDO                                  85900000PR2896400001031151170000036-01  28062011800UNIBANCO S/A        2807201100000000026750000CC                                                                                                                                                                                                                                                                                                                                                                                                         000002
1008421005590COBR_CAUC_BIC  MM MONTEIRO PESCA E EXPORTACAO LTDA     008999770000282NUTRIMAR* INDUSTRIA DE PESCADOS LT      AV DOM LUIS,1200-11O ANDAR              FORTALEZA                               60160230CE28983000010838145599 A        06072011003CENTRO              2008201100000000004964000CC                                                                                                                                                                                                                                                                                                                                                                                                         000003
1008421005590COBR_CAUC_BIC  MM MONTEIRO PESCA E EXPORTACAO LTDA     008999770000282NUTRIMAR* INDUSTRIA DE PESCADOS LT      AV DOM LUIS,1200-11O ANDAR              FORTALEZA                               60160230CE28983000020838146399 B        06072011003CENTRO              0409201100000000004964000CC                                                                                                                                                                                                                                                                                                                                                                                                         000004
1008421005590COBR_CAUC_BIC  MM MONTEIRO PESCA E EXPORTACAO LTDA     008999770000282NUTRIMAR* INDUSTRIA DE PESCADOS LT      AV DOM LUIS,1200-11O ANDAR              FORTALEZA                               60160230CE28983000030838147199 C        06072011003CENTRO              1909201100000000004964000CC                                                                                                                                                                                                                                                                                                                                                                                                         000005
1008421005590COBR_CAUC_BIC  MM MONTEIRO PESCA E EXPORTACAO LTDA     008999770000282NUTRIMAR* INDUSTRIA DE PESCADOS LT      AV DOM LUIS,1200-11O ANDAR              FORTALEZA                               60160230CE28983000040838148099 D        06072011003CENTRO              0410201100000000004964000CC                                                                                                                                                                                                                                                                                                                                                                                                         000006
1008421005590COBR_CAUC_BIC  MM MONTEIRO PESCA E EXPORTACAO LTDA     008999770000282NUTRIMAR* INDUSTRIA DE PESCADOS LT      AV DOM LUIS,1200-11O ANDAR              FORTALEZA                               60160230CE28983000050838149899 E        06072011003CENTRO              1910201100000000004964000CC                                                                                                                                                                                                                                                                                                                                                                                                         000007
1008421005590COBR_CAUC_BIC  MM MONTEIRO PESCA E EXPORTACAO LTDA     004116659000169COMERCIO DE PESCADOS CINFAES DO DO      RUA COSTA FERREIRA,148-GALPAO 04        RIO DE JANEIRO                          20221240RJ289840000108381382124 A       07072011014RIO DE JANEIRO      0608201100000000004571429CC                                                                                                                                                                                                                                                                                                                                                                                                         000008
1008421005590COBR_CAUC_BIC  MM MONTEIRO PESCA E EXPORTACAO LTDA     004116659000169COMERCIO DE PESCADOS CINFAES DO DO      RUA COSTA FERREIRA,148-GALPAO 04        RIO DE JANEIRO                          20221240RJ289840000208381391124 B       07072011014RIO DE JANEIRO      1608201100000000004571429CC                                                                                                                                                                                                                                                                                                                                                                                                         000009
1008421005590COBR_CAUC_BIC  MM MONTEIRO PESCA E EXPORTACAO LTDA     004116659000169COMERCIO DE PESCADOS CINFAES DO DO      RUA COSTA FERREIRA,148-GALPAO 04        RIO DE JANEIRO                          20221240RJ289840000308381404124 C       07072011014RIO DE JANEIRO      2608201100000000004571429CC                                                                                                                                                                                                                                                                                                                                                                                                         000010
1008421005590COBR_CAUC_BIC  MM MONTEIRO PESCA E EXPORTACAO LTDA     004116659000169COMERCIO DE PESCADOS CINFAES DO DO      RUA COSTA FERREIRA,148-GALPAO 04        RIO DE JANEIRO                          20221240RJ289840000408381412124 D       07072011014RIO DE JANEIRO      0509201100000000004571429CC                                                                                                                                                                                                                                                                                                                                                                                                         000011
1008421005590COBR_CAUC_BIC  MM MONTEIRO PESCA E EXPORTACAO LTDA     004116659000169COMERCIO DE PESCADOS CINFAES DO DO      RUA COSTA FERREIRA,148-GALPAO 04        RIO DE JANEIRO                          20221240RJ289840000508381421124 E       07072011014RIO DE JANEIRO      1509201100000000004571428CC                                                                                                                                                                                                                                                                                                                                                                                                         000012
1008421005590COBR_CAUC_BIC  MM MONTEIRO PESCA E EXPORTACAO LTDA     004116659000169COMERCIO DE PESCADOS CINFAES DO DO      RUA COSTA FERREIRA,148-GALPAO 04        RIO DE JANEIRO                          20221240RJ289840000608381439124 F       07072011014RIO DE JANEIRO      2509201100000000004571428CC                                                                                                                                                                                                                                                                                                                                                                                                         000013
1008421005590COBR_CAUC_BIC  MM MONTEIRO PESCA E EXPORTACAO LTDA     004116659000169COMERCIO DE PESCADOS CINFAES DO DO      RUA COSTA FERREIRA,148-GALPAO 04        RIO DE JANEIRO                          20221240RJ289840000708381447124 G       07072011014RIO DE JANEIRO      0510201100000000004571428CC                                                                                                                                                                                                                                                                                                                                                                                                         000014
1008421005590COBR_CAUC_COR  MM MONTEIRO PESCA E EXPORTACAO LTDA     008624749000111DE NARDI & PIFFER* LTDA ME              AV JERUSALEM,69                         CARIACICA                               29145620ES289850000108366561DN 3006 A   30062011800UNIBANCO S/A        0708201100000000007457500CC                                                                                                                                                                                                                                                                                                                                                                                                         000015
1008421005590COBR_CAUC_COR  MM MONTEIRO PESCA E EXPORTACAO LTDA     008624749000111DE NARDI & PIFFER* LTDA ME              AV JERUSALEM,69                         CARIACICA                               29145620ES289850000208366570DN 3006 B   30062011800UNIBANCO S/A        2708201100000000007457500CC                                                                                                                                                                                                                                                                                                                                                                                                         000016
1008421005590COBR_CAUC_COR  MM MONTEIRO PESCA E EXPORTACAO LTDA     008624749000111DE NARDI & PIFFER* LTDA ME              AV JERUSALEM,69                         CARIACICA                               29145620ES289850000308366588DN 3006 C   30062011800UNIBANCO S/A        1609201100000000007457500CC                                                                                                                                                                                                                                                                                                                                                                                                         000017
1008421005590COBR_CAUC_COR  MM MONTEIRO PESCA E EXPORTACAO LTDA     008624749000111DE NARDI & PIFFER* LTDA ME              AV JERUSALEM,69                         CARIACICA                               29145620ES289850000408366596DN 3006 D   30062011800UNIBANCO S/A        0610201100000000007457500CC                                                                                                                                                                                                                                                                                                                                                                                                         000018
1008421005590COBR_CAUC_COR  MM MONTEIRO PESCA E EXPORTACAO LTDA     008624749000111DE NARDI & PIFFER* LTDA ME              AV JERUSALEM,69                         CARIACICA                               29145620ES289850000508377181DN 0607 A   06072011800UNIBANCO S/A        1708201100000000004764900CC                                                                                                                                                                                                                                                                                                                                                                                                         000019
1008421005590COBR_CAUC_COR  MM MONTEIRO PESCA E EXPORTACAO LTDA     008624749000111DE NARDI & PIFFER* LTDA ME              AV JERUSALEM,69                         CARIACICA                               29145620ES289850000608377199DN 0607 B   06072011800UNIBANCO S/A        0109201100000000004764900CC                                                                                                                                                                                                                                                                                                                                                                                                         000020
1008421005590COBR_CAUC_COR  MM MONTEIRO PESCA E EXPORTACAO LTDA     008624749000111DE NARDI & PIFFER* LTDA ME              AV JERUSALEM,69                         CARIACICA                               29145620ES289850000708377202DN 0607 C   06072011800UNIBANCO S/A        1609201100000000004764900CC                                                                                                                                                                                                                                                                                                                                                                                                         000021
1008421005590COBR_CAUC_COR  MM MONTEIRO PESCA E EXPORTACAO LTDA     008624749000111DE NARDI & PIFFER* LTDA ME              AV JERUSALEM,69                         CARIACICA                               29145620ES289850000808377211DN 0607 D   06072011800UNIBANCO S/A        0110201100000000004764900CC                                                                                                                                                                                                                                                                                                                                                                                                         000022
1008421005590COBR_CAUC_COR  MM MONTEIRO PESCA E EXPORTACAO LTDA     008624749000111DE NARDI & PIFFER* LTDA ME              AV JERUSALEM,69                         CARIACICA                               29145620ES289850000908377229DN 0607 E   06072011800UNIBANCO S/A        1610201100000000004764900CC                                                                                                                                                                                                                                                                                                                                                                                                         000023
9000004                                                                                                                                                                                                                                                                                                                                                                                                                                                                                                                                                                                                                                                                                                               000024
