0REMESSANOTIFICACAO ELETRONICA        99999999999999BICBANCO                                AV. PAULISTA                            1048      12.ANDAR  BELA VISTA                    SAO PAULO                     01310100SP1121739360CORTINHAL                               COORDENADOR                             02072012                                                                                                                                                                                                                                                                                                                                                                                      000001
1020421001229COBR_CAUC_BIC  JARI CELULOSE,PAPEL E EMBALAGENS SA     049912199000385FAB DE PAPEL PAP N SENHORA DA           RUA COMENDADOR FUNABASHI TOKUJI, 170    ITAPIRA                                 13970970SP3621200001062106550028456 01  28062012021CAMPINAS            2708201200000000010221719CC                                                                                                                                                                                                                                                                                                                                                                                                         000002
1007420939011DIR_CREDIT     COMPANHIA BRAS DE ACUCAR E ALCOOL       084046101000193BUNGE ALIMENTOS S/A                     ROD JORGE LACERDA KM 20                 GASPAR                                  89110970SC3621800001                                                                                                                                          011000757           15012008000001346717699 E 211916032011001702CONTRATOS DE EXPORTAÇÃO DE AÇUCAR VHP ENTRE A CBAA E A BUNGE/CEVAL     CONTRATO 17699 EXPORTAÇÃO DE 31000 TONELADAS DE AÇUCAR VHP;                    CONTRATO 21196 EXPORTAÇÃO DE 17315 TONELADAS DE AÇUCAR VHP.                               002995097000145              000003
1007420939011DIR_CREDIT     COMPANHIA BRAS DE ACUCAR E ALCOOL       084046101000193BUNGE ALIMENTOS S/A                     ROD JORGE LACERDA KM 20                 GASPAR                                  89110970SC3621900001                                                                                                                                          011000792           15012008000001346717699 E 211918032011001702CONTRATOS DE EXPORTAÇÃO DE AÇUCAR VHP ENTRE A CBAA E A BUNGE/CEVAL     CONTRATO 17699 EXPORTAÇÃO DE 31000 TONELADAS DE AÇUCAR VHP;                    CONTRATO 21196 EXPORTAÇÃO DE 17315 TONELADAS DE AÇUCAR VHP.                               002995097000145              000004
1021421010471DIR_CREDIT     ALFALIX AMBIENTAL LTDA                  044780609000104PM DE BARRETOS                          RUA 30  Nº 564 - CENTRO                 BARRETOS                                14781545SP3623000001                                                                                                                                          011568822           05102009000001111169/06       29062012000407PRESTAR SERVIÇOS RELATIVOS A LIMPEZA PUBLICA NO MUNICIPIO DE BARRETOS.                                                                                                                                                                          009685747000103              000005
1007421045766COBR_CAUC_BIC  EVER ELETRIC A IND E COM VEIC LTDA      011134510000178AUTOMAIS AUTOMOVEIS  LTDA               AV. GEREMARIO DANTAS,444-LOTE 08        RIO DE JANEIRO                          22740010RJ36242000010131702326422       28062012014RIO DE JANEIRO      3007201200000000001728829CC                                                                                                                                                                                                                                                                                                                                                                                                         000006
1007421045766COBR_CAUC_BIC  EVER ELETRIC A IND E COM VEIC LTDA      002766979000139BALOTTA & BALOTTA LTDA                  AV. RIO DAS PEDRAS,1144                 PIRACICABA                              13420590SP36243000010131704023184       28062012021CAMPINAS            1508201200000000001912177CC                                                                                                                                                                                                                                                                                                                                                                                                         000007
1007421045766COBR_CAUC_BIC  EVER ELETRIC A IND E COM VEIC LTDA      009187267000104BONINA VEICULOS LTDA EPP                AV BARROS REIS,642                      SALVADOR                                40310010BA36244000010131692221886       28062012013SALVADOR            0807201200000000002176869CC                                                                                                                                                                                                                                                                                                                                                                                                         000008
1007421045766COBR_CAUC_BIC  EVER ELETRIC A IND E COM VEIC LTDA      013552871000160AUTO MAIS CABO FRIO COMERCIO E SER      AV. AMERICA CENTRAL,1222                CABO FRIO                               28909581RJ36245000010131703125532       28062012014RIO DE JANEIRO      3007201200000000002248199CC                                                                                                                                                                                                                                                                                                                                                                                                         000009
1007421045766COBR_CAUC_COR  EVER ELETRIC A IND E COM VEIC LTDA      008752869000102FREE LANCE AUTO CENTER LTDA             QUADRA 812 SUL ALAMEDA ,0-LOTE 22A      PALMAS                                  77023120TO36246000010131682524611       28062012800UNIBANCO S/A        2607201200000000002248200CC                                                                                                                                                                                                                                                                                                                                                                                                         000010
1007421045766COBR_CAUC_BIC  EVER ELETRIC A IND E COM VEIC LTDA      013641886000102JOY COMERCIO DE AUTOMOVEIS LTDA         RUA SAO GABRIEL,108                     FORTALEZA                               60135450CE36247000010131683324333       28062012003CENTRO              3007201200000000002248200CC                                                                                                                                                                                                                                                                                                                                                                                                         000011
1007421045766COBR_CAUC_BIC  EVER ELETRIC A IND E COM VEIC LTDA      003130993000104BORBOREMA & FERNANDES VEICULOS LTD      AVENIDA AUTONOMISTAS,1850               OSASCO                                  06010070SP36248000010131691422239       28062012007PAULISTA            0807201200000000002288825CC                                                                                                                                                                                                                                                                                                                                                                                                         000012
1007421045766COBR_CAUC_BIC  EVER ELETRIC A IND E COM VEIC LTDA      007746109000111L C VILA VALQUEIRE VEICULOS AUTOMO      EST INTENDENTE MAGALHAES,920            RIO DE JANEIRO                          21331720RJ36249000010131685025227       28062012014RIO DE JANEIRO      1507201200000000001892664CC                                                                                                                                                                                                                                                                                                                                                                                                         000013
1007421045766COBR_CAUC_BIC  EVER ELETRIC A IND E COM VEIC LTDA      007746109000111L C VILA VALQUEIRE VEICULOS AUTOMO      EST INTENDENTE MAGALHAES,920            RIO DE JANEIRO                          21331720RJ36249000020131684125228       28062012014RIO DE JANEIRO      1507201200000000001892664CC                                                                                                                                                                                                                                                                                                                                                                                                         000014
1007421045766COBR_CAUC_BIC  EVER ELETRIC A IND E COM VEIC LTDA      007746109000111L C VILA VALQUEIRE VEICULOS AUTOMO      EST INTENDENTE MAGALHAES,920            RIO DE JANEIRO                          21331720RJ36249000030131686825252       28062012014RIO DE JANEIRO      1507201200000000002180755CC                                                                                                                                                                                                                                                                                                                                                                                                         000015
1007421045766COBR_CAUC_BIC  EVER ELETRIC A IND E COM VEIC LTDA      007746109000111L C VILA VALQUEIRE VEICULOS AUTOMO      EST INTENDENTE MAGALHAES,920            RIO DE JANEIRO                          21331720RJ36249000040131687625309       28062012014RIO DE JANEIRO      1507201200000000001892664CC                                                                                                                                                                                                                                                                                                                                                                                                         000016
1007421045766COBR_CAUC_COR  EVER ELETRIC A IND E COM VEIC LTDA      010738770000190FARIA & FARIA LTDA                      AVENIDA VITOR,3237- EDIFICIO DAKAR      VITORIA                                 29050765ES36250000010131681723264       28062012800UNIBANCO S/A        3007201200000000002636568CC                                                                                                                                                                                                                                                                                                                                                                                                         000017
1007421045766COBR_CAUC_COR  EVER ELETRIC A IND E COM VEIC LTDA      010738770000190FARIA & FARIA LTDA                      AVENIDA VITOR,3237- EDIFICIO DAKAR      VITORIA                                 29050765ES36250000020131679523266       28062012800UNIBANCO S/A        3007201200000000002636568CC                                                                                                                                                                                                                                                                                                                                                                                                         000018
1007421045766COBR_CAUC_COR  EVER ELETRIC A IND E COM VEIC LTDA      010738770000190FARIA & FARIA LTDA                      AVENIDA VITOR,3237- EDIFICIO DAKAR      VITORIA                                 29050765ES36250000030131680923267       28062012800UNIBANCO S/A        3007201200000000002636568CC                                                                                                                                                                                                                                                                                                                                                                                                         000019
1007421045766COBR_CAUC_BIC  EVER ELETRIC A IND E COM VEIC LTDA      012265832000119AMB COMERCIO DE VEICULOS LTDA           RUA AFONSINA,379                        SAO BERNARDO DO                         09633000SP36251000010131701518695       28062012038ABC                 2007201200000000001838001CC                                                                                                                                                                                                                                                                                                                                                                                                         000020
1007421045766COBR_CAUC_BIC  EVER ELETRIC A IND E COM VEIC LTDA      012265832000119AMB COMERCIO DE VEICULOS LTDA           RUA AFONSINA,379                        SAO BERNARDO DO                         09633000SP36251000020131698123136       28062012038ABC                 1507201200000000002517999CC                                                                                                                                                                                                                                                                                                                                                                                                         000021
1007421045766COBR_CAUC_BIC  EVER ELETRIC A IND E COM VEIC LTDA      012265832000119AMB COMERCIO DE VEICULOS LTDA           RUA AFONSINA,379                        SAO BERNARDO DO                         09633000SP36251000030131699023140       28062012038ABC                 2007201200000000002517999CC                                                                                                                                                                                                                                                                                                                                                                                                         000022
1007421045766COBR_CAUC_BIC  EVER ELETRIC A IND E COM VEIC LTDA      012265832000119AMB COMERCIO DE VEICULOS LTDA           RUA AFONSINA,379                        SAO BERNARDO DO                         09633000SP36251000040131700726227       28062012038ABC                 1507201200000000001769472CC                                                                                                                                                                                                                                                                                                                                                                                                         000023
1007421045766COBR_CAUC_BIC  EVER ELETRIC A IND E COM VEIC LTDA      003107949000183AFV VEICULOS LTDA                       VIA EXPRESSA DE CONTAGEM,7045           CONTAGEM                                32070005MG36252000010131695721642       28062012019BELO HORIZONTE      2907201200000000002584099CC                                                                                                                                                                                                                                                                                                                                                                                                         000024
1007421045766COBR_CAUC_BIC  EVER ELETRIC A IND E COM VEIC LTDA      003107949000183AFV VEICULOS LTDA                       VIA EXPRESSA DE CONTAGEM,7045           CONTAGEM                                32070005MG36252000020131694921760       28062012019BELO HORIZONTE      2907201200000000001836829CC                                                                                                                                                                                                                                                                                                                                                                                                         000025
1007421045766COBR_CAUC_BIC  EVER ELETRIC A IND E COM VEIC LTDA      003107949000183AFV VEICULOS LTDA                       VIA EXPRESSA DE CONTAGEM,7045           CONTAGEM                                32070005MG36252000030131697321768       28062012019BELO HORIZONTE      2907201200000000002668825CC                                                                                                                                                                                                                                                                                                                                                                                                         000026
1007421045766COBR_CAUC_BIC  EVER ELETRIC A IND E COM VEIC LTDA      003107949000183AFV VEICULOS LTDA                       VIA EXPRESSA DE CONTAGEM,7045           CONTAGEM                                32070005MG36252000040131696521770       28062012019BELO HORIZONTE      1007201200000000002668825CC                                                                                                                                                                                                                                                                                                                                                                                                         000027
1007421045766COBR_CAUC_BIC  EVER ELETRIC A IND E COM VEIC LTDA      003107949000183AFV VEICULOS LTDA                       VIA EXPRESSA DE CONTAGEM,7045           CONTAGEM                                32070005MG36252000050131678721773       28062012019BELO HORIZONTE      1007201200000000001836828CC                                                                                                                                                                                                                                                                                                                                                                                                         000028
1007421045766COBR_CAUC_BIC  EVER ELETRIC A IND E COM VEIC LTDA      003107949000183AFV VEICULOS LTDA                       VIA EXPRESSA DE CONTAGEM,7045           CONTAGEM                                32070005MG36252000060131693121774       28062012019BELO HORIZONTE      1007201200000000001836828CC                                                                                                                                                                                                                                                                                                                                                                                                         000029
1007421045766COBR_CAUC_COR  EVER ELETRIC A IND E COM VEIC LTDA      000475208000167PROESTE OURINHOS COM. DE VEICULOS       AV. LUIZ S. RODRIGUES,2751              OURINHOS                                19908095SP36253000010131690622950       28062012800UNIBANCO S/A        2807201200000000004674600CC                                                                                                                                                                                                                                                                                                                                                                                                         000030
1007421045766COBR_CAUC_COR  EVER ELETRIC A IND E COM VEIC LTDA      000475208000167PROESTE OURINHOS COM. DE VEICULOS       AV. LUIZ S. RODRIGUES,2751              OURINHOS                                19908095SP36253000020131689222951       28062012800UNIBANCO S/A        2807201200000000004674600CC                                                                                                                                                                                                                                                                                                                                                                                                         000031
1007421045766COBR_CAUC_COR  EVER ELETRIC A IND E COM VEIC LTDA      000475208000167PROESTE OURINHOS COM. DE VEICULOS       AV. LUIZ S. RODRIGUES,2751              OURINHOS                                19908095SP36253000030131688422952       28062012800UNIBANCO S/A        2807201200000000004674600CC                                                                                                                                                                                                                                                                                                                                                                                                         000032
1007421045766COBR_CAUC_COR  EVER ELETRIC A IND E COM VEIC LTDA      000475208000167PROESTE OURINHOS COM. DE VEICULOS       AV. LUIZ S. RODRIGUES,2751              OURINHOS                                19908095SP36253000040131705824702       28062012800UNIBANCO S/A        1607201200000000002248199CC                                                                                                                                                                                                                                                                                                                                                                                                         000033
1016421019968DIR_CREDIT     CAZAMUSA CONSTRUCAO CIVIL LTDA          076417005000186PM DE CURITIBA                          AV CANDIDO DE ABREU 815                 CENTRO CIVICO                           80530908PR3625400001                                                                                                                                          481023221           01022011000001879319458-1     25052012000404Execução de obras de engenharia para construção do Centro da Juventude Vila Audi-União.                                                                                                                                                         081099277000115              000034
9000017                                                                                                                                                                                                                                                                                                                                                                                                                                                                                                                                                                                                                                                                                                               000035
