0REMESSANOTIFICACAO ELETRONICA        99999999999999BICBANCO                                AV. PAULISTA                            1048      12.ANDAR  BELA VISTA                    SAO PAULO                     01310100SP1121739360CORTINHAL                               COORDENADOR                             27062014                                                                                                                                                                                                                                                                                                                                                                                      000001
1046421006399DIR_CREDIT     CARBONIFERA CRICIUMA S/A                002474103000208TRACTEBEL ENERGIA S/A                   AVENIDA PAULO SANTOS MELLO, S/NR        CAPIVARI DE BAIXO                       88745000SC4827600001                                                                                                                                          001258086           011220100000020197DGT.NAJL.05.25062014003002compra de carvão mineral tipo CE 4500.                                                                                                                                                                                                          083647909000163              000002
1031421011521COBR_CAUC_COR  ARAMOVEIS IND REUN.MOV ESTOFADOS LT     009309578000107ES ATACADO LTDA                         RODOVIA PE 15 0                         PAULISTA                                53401914PE482770000105416416186875-1/1  26062014800UNIBANCO S/A        0807201400000000011231584CC                                                                                                                                                                                                                                                                                                                                                                                                         000003
1007421067719COBR_CAUC_BIC  NEOLIDER COM.IMP.E EXP.DE ACOS LTDA     001867730000157SUPERA INDUSTRIA MECANICA LTDA          R DR ULISSES GUIMARAES,803              MAUA                                    09370825SP482780000103046159063216/     26062014007PAULISTA            2508201400000000015021760CC                                                                                                                                                                                                                                                                                                                                                                                                         000004
1007421035337COBR_CAUC_BIC  COMERCIAL IMP.E EXP.CANTAREIRA LTDA     012557936000105CASA PETRUS DOCES E SALGADOS LTDA       R DA CARIOCA, 14 , LOJA C JIRAU         RIO DE JANEIRO                          20050000RJ482790000103045152118341001   25062014014RIO DE JANEIRO      0608201400000000014904750CC                                                                                                                                                                                                                                                                                                                                                                                                         000005
1010421024356COBR_CAUC_COR  DIST EQUADOR DE PROD PETROLEO LTDA      001146395000106DISTRIBUIDORA DE DERIVADOS DE PETR      AV MANOEL FELIPE, 850                   BOA VISTA                               69311220RR482800000100086535123668      26062014900BRADESCO S/A        0107201400000000015240000CC                                                                                                                                                                                                                                                                                                                                                                                                         000006
1007421061990COBR_CAUC_COR  BRASIL MAQUINAS E EQUIP PESADOS S/A     018795934000122CONSORCIO CONTEK - A. MADEIRA           ROD BR-101 NORTE - KM 260 S/N,0         SERRA                                   29170022ES48281000010304541117800G      28052014700BANCO REAL- ABN AMRO1012201400000000021416600CC                                                                                                                                                                                                                                                                                                                                                                                                         000007
1007421061990COBR_CAUC_COR  BRASIL MAQUINAS E EQUIP PESADOS S/A     018795934000122CONSORCIO CONTEK - A. MADEIRA           ROD BR-101 NORTE - KM 260 S/N,0         SERRA                                   29170022ES48281000020304542017800F      28052014700BANCO REAL- ABN AMRO1011201400000000021416600CC                                                                                                                                                                                                                                                                                                                                                                                                         000008
1007421061990COBR_CAUC_COR  BRASIL MAQUINAS E EQUIP PESADOS S/A     018795934000122CONSORCIO CONTEK - A. MADEIRA           ROD BR-101 NORTE - KM 260 S/N,0         SERRA                                   29170022ES48281000030304543817800E      28052014700BANCO REAL- ABN AMRO1010201400000000021416600CC                                                                                                                                                                                                                                                                                                                                                                                                         000009
1007421061990COBR_CAUC_COR  BRASIL MAQUINAS E EQUIP PESADOS S/A     018795934000122CONSORCIO CONTEK - A. MADEIRA           ROD BR-101 NORTE - KM 260 S/N,0         SERRA                                   29170022ES48281000040304544617800D      28052014700BANCO REAL- ABN AMRO1009201400000000021416600CC                                                                                                                                                                                                                                                                                                                                                                                                         000010
1007421061990COBR_CAUC_COR  BRASIL MAQUINAS E EQUIP PESADOS S/A     018795934000122CONSORCIO CONTEK - A. MADEIRA           ROD BR-101 NORTE - KM 260 S/N,0         SERRA                                   29170022ES48281000050304545417800C      28052014700BANCO REAL- ABN AMRO1008201400000000021416600CC                                                                                                                                                                                                                                                                                                                                                                                                         000011
1007421061990COBR_CAUC_COR  BRASIL MAQUINAS E EQUIP PESADOS S/A     018795934000122CONSORCIO CONTEK - A. MADEIRA           ROD BR-101 NORTE - KM 260 S/N,0         SERRA                                   29170022ES48281000060304546217800B      28052014700BANCO REAL- ABN AMRO1107201400000000021417000CC                                                                                                                                                                                                                                                                                                                                                                                                         000012
1008421002710DIR_CREDIT     OCS MIN E EMPREENDIMENTOS LTDA          034230979005418SUPERMIX CONCRETO S/A                   R PROF. JOSE VIEIRA DE MENDONçA, 1121   BELO HORIZONTE                          31310260MG4828700001                                                                                                                                          012613582           100120070000012817            26062014000404fornecimento de material produzido pela OCS-Mineração e EmpreendimentosLtda,a saber Brita 19mm,Brita 9,5mm e areia grossa de Brita,todos fornecidos e oferecidos em forma de tonelada.                                                          007323439000102              000013
1023421008767DIR_CREDIT     EMPRESA DE TRANSPORTES PUBLIX LTDA      007096200000139CMT-CONSORCIO METROPOLITANO DE TRANSPORTAVENIDA REBOUÇAS Nº1368                 SÃO PAULO                               05402100SP4829400001                                                                                                                                          012615827           020320090000024371            26062014000403venda de passagens e respectivos bilhetes e todas as demais operações  compreendidas no "SISTEMA" da CMT, destacando a marca "BOM-BILHETE ONIBUS METROPOLITANO", cadastro e outros ativos, materiais e imateriais na operação.                  013065309000101              000014
1021421017352COBR_CAUC_BIC  STAR DISTR PROD FARMACEUTICOS LTDA      061585865000151RAIA DROGASIL S/A                       AV. CORIFEU DE AZEVEDO MARQUES 3097     SAO PAULO                               05339900SP4829500001000002790000344501  23062014007PAULISTA            1407201400000000010636679CC                                                                                                                                                                                                                                                                                                                                                                                                         000015
1021421017352COBR_CAUC_BIC  STAR DISTR PROD FARMACEUTICOS LTDA      061585865000151RAIA DROGASIL S/A                       AV. CORIFEU DE AZEVEDO MARQUES 3097     SAO PAULO                               05339900SP4829500002000002870000344601  23062014007PAULISTA            1407201400000000032434688CC                                                                                                                                                                                                                                                                                                                                                                                                         000016
1021421017050COBR_CAUC_BIC  STAR DISTR PROD FARMACEUTICOS LTDA      061585865051309RAIA DROGASIL S/A                       VIA ANHANGUERA  317,5                   RIBEIRAO PRETO                          14097140SP4829600001000024760000345901  24062014022RIBEIRAO PRETO      0807201400000000000764772CC                                                                                                                                                                                                                                                                                                                                                                                                         000017
1021421017050COBR_CAUC_BIC  STAR DISTR PROD FARMACEUTICOS LTDA      061585865051309RAIA DROGASIL S/A                       VIA ANHANGUERA  317,5                   RIBEIRAO PRETO                          14097140SP4829600002000024920000346101  25062014022RIBEIRAO PRETO      0907201400000000004225608CC                                                                                                                                                                                                                                                                                                                                                                                                         000018
1021421017050COBR_CAUC_BIC  STAR DISTR PROD FARMACEUTICOS LTDA      061585865051309RAIA DROGASIL S/A                       VIA ANHANGUERA  317,5                   RIBEIRAO PRETO                          14097140SP4829600003000024330000345301  24062014007RIBEIRAO PRETO      0807201400000000005728424CC                                                                                                                                                                                                                                                                                                                                                                                                         000019
1021421017050COBR_CAUC_BIC  STAR DISTR PROD FARMACEUTICOS LTDA      061585865051309RAIA DROGASIL S/A                       VIA ANHANGUERA  317,5                   RIBEIRAO PRETO                          14097140SP4829600004000015420000330201  28052014007RIBEIRAO PRETO      1207201400000000004699701CC                                                                                                                                                                                                                                                                                                                                                                                                         000020
1021421017050COBR_CAUC_BIC  STAR DISTR PROD FARMACEUTICOS LTDA      061585865051309RAIA DROGASIL S/A                       VIA ANHANGUERA  317,5                   RIBEIRAO PRETO                          14097140SP4829600005000024170000345401  24062014022RIBEIRAO PRETO      0807201400000000004452200CC                                                                                                                                                                                                                                                                                                                                                                                                         000021
1021421017050COBR_CAUC_BIC  STAR DISTR PROD FARMACEUTICOS LTDA      061585865051309RAIA DROGASIL S/A                       VIA ANHANGUERA  317,5                   RIBEIRAO PRETO                          14097140SP4829600006000024680000345801  24062014007RIBEIRAO PRETO      0807201400000000001529544CC                                                                                                                                                                                                                                                                                                                                                                                                         000022
1021421017050COBR_CAUC_BIC  STAR DISTR PROD FARMACEUTICOS LTDA      061585865051309RAIA DROGASIL S/A                       VIA ANHANGUERA  317,5                   RIBEIRAO PRETO                          14097140SP4829600007000016230000331101  28052014007RIBEIRAO PRETO      1207201400000000007112965CC                                                                                                                                                                                                                                                                                                                                                                                                         000023
1021421017050COBR_CAUC_BIC  STAR DISTR PROD FARMACEUTICOS LTDA      061585865051309RAIA DROGASIL S/A                       VIA ANHANGUERA  317,5                   RIBEIRAO PRETO                          14097140SP4829600008000025140000346401  25062014022RIBEIRAO PRETO      0907201400000000001543911CC                                                                                                                                                                                                                                                                                                                                                                                                         000024
1021421017050COBR_CAUC_BIC  STAR DISTR PROD FARMACEUTICOS LTDA      061585865051309RAIA DROGASIL S/A                       VIA ANHANGUERA  317,5                   RIBEIRAO PRETO                          14097140SP4829600009000024250000345501  24062014007RIBEIRAO PRETO      0807201400000000005711742CC                                                                                                                                                                                                                                                                                                                                                                                                         000025
1021421017050COBR_CAUC_BIC  STAR DISTR PROD FARMACEUTICOS LTDA      061585865051309RAIA DROGASIL S/A                       VIA ANHANGUERA  317,5                   RIBEIRAO PRETO                          14097140SP4829600010000025310000346601  25062014022RIBEIRAO PRETO      0907201400000000000705427CC                                                                                                                                                                                                                                                                                                                                                                                                         000026
1021421017050COBR_CAUC_BIC  STAR DISTR PROD FARMACEUTICOS LTDA      061585865051309RAIA DROGASIL S/A                       VIA ANHANGUERA  317,5                   RIBEIRAO PRETO                          14097140SP4829600011000024500000345701  24062014007RIBEIRAO PRETO      0807201400000000001529544CC                                                                                                                                                                                                                                                                                                                                                                                                         000027
1021421017050COBR_CAUC_BIC  STAR DISTR PROD FARMACEUTICOS LTDA      061585865051309RAIA DROGASIL S/A                       VIA ANHANGUERA  317,5                   RIBEIRAO PRETO                          14097140SP4829600012000024840000346201  25062014007RIBEIRAO PRETO      0907201400000000000226592CC                                                                                                                                                                                                                                                                                                                                                                                                         000028
1021421017050COBR_CAUC_BIC  STAR DISTR PROD FARMACEUTICOS LTDA      061585865073701RAIA DROGASIL S/A                       RUA PATAXOS , 1412                      EMBU                                    06833073SP4829700001000015340000330101  28052014007PAULISTA            1207201400000000016498822CC                                                                                                                                                                                                                                                                                                                                                                                                         000029
1021421017050COBR_CAUC_BIC  STAR DISTR PROD FARMACEUTICOS LTDA      061585865073701RAIA DROGASIL S/A                       RUA PATAXOS , 1412                      EMBU                                    06833073SP4829700002000016310000331001  28052014007PAULISTA            1207201400000000010983243CC                                                                                                                                                                                                                                                                                                                                                                                                         000030
1021421017050COBR_CAUC_BIC  STAR DISTR PROD FARMACEUTICOS LTDA      061585865073701RAIA DROGASIL S/A                       RUA PATAXOS , 1412                      EMBU                                    06833073SP4829700003000016400000331201  28052014007PAULISTA            1207201400000000012894592CC                                                                                                                                                                                                                                                                                                                                                                                                         000031
1007421039120COBR_CAUC_BIC  CN AUTO SA                              014070575000195DK COMERCIO DE VEICULOS LTDA            AV SENADOR SARAIVA,748                  CAMPINAS                                13013061SP48298000010282927326198       14042014021CAMPINAS            1307201400000000004500000CC                                                                                                                                                                                                                                                                                                                                                                                                         000032
1007421039120COBR_CAUC_BIC  CN AUTO SA                              014070575000195DK COMERCIO DE VEICULOS LTDA            AV SENADOR SARAIVA,748                  CAMPINAS                                13013061SP48298000020282926526197       14042014021CAMPINAS            1307201400000000004500000CC                                                                                                                                                                                                                                                                                                                                                                                                         000033
1007421039120COBR_CAUC_BIC  CN AUTO SA                              014070575000195DK COMERCIO DE VEICULOS LTDA            AV SENADOR SARAIVA,748                  CAMPINAS                                13013061SP48298000030282924926153       14042014021CAMPINAS            1307201400000000004650000CC                                                                                                                                                                                                                                                                                                                                                                                                         000034
1007421039120COBR_CAUC_BIC  CN AUTO SA                              014070575000195DK COMERCIO DE VEICULOS LTDA            AV SENADOR SARAIVA,748                  CAMPINAS                                13013061SP48298000040282921426150       14042014021CAMPINAS            1307201400000000004500000CC                                                                                                                                                                                                                                                                                                                                                                                                         000035
1007421039120COBR_CAUC_BIC  CN AUTO SA                              011112318000180NOVE NORDESTE VEICULOS LTDA             AV. MAL. MASCARENHAS DE MORAI,1776      RECIFE                                  51170000PE48299000010270230330440       26022014010RECIFE              3006201400000000005450000CC                                                                                                                                                                                                                                                                                                                                                                                                         000036
1007421039120COBR_CAUC_BIC  CN AUTO SA                              011112318000180NOVE NORDESTE VEICULOS LTDA             AV. MAL. MASCARENHAS DE MORAI,1776      RECIFE                                  51170000PE48299000020280249930487       31032014010RECIFE              3006201400000000005450000CC                                                                                                                                                                                                                                                                                                                                                                                                         000037
1007421039120COBR_CAUC_BIC  CN AUTO SA                              011112318000180NOVE NORDESTE VEICULOS LTDA             AV. MAL. MASCARENHAS DE MORAI,1776      RECIFE                                  51170000PE48299000030280248130486       31032014010RECIFE              3006201400000000005450000CC                                                                                                                                                                                                                                                                                                                                                                                                         000038
1007421039120COBR_CAUC_BIC  CN AUTO SA                              011112318000180NOVE NORDESTE VEICULOS LTDA             AV. MAL. MASCARENHAS DE MORAI,1776      RECIFE                                  51170000PE48299000040280250230488       31032014010RECIFE              3006201400000000005450000CC                                                                                                                                                                                                                                                                                                                                                                                                         000039
1007421039120COBR_CAUC_BIC  CN AUTO SA                              011112318000180NOVE NORDESTE VEICULOS LTDA             AV. MAL. MASCARENHAS DE MORAI,1776      RECIFE                                  51170000PE48299000050266674930359       28012014010RECIFE              3007201400000000002300000CC                                                                                                                                                                                                                                                                                                                                                                                                         000040
1007421039120COBR_CAUC_BIC  CN AUTO SA                              010332357000392VEGA MOTORS VEICULOS E MOTOS LTDA.      AV. QD P-82 LT 01 ESQ.C/AV 24,7566      GOIANIA                                 74543010GO48300000010287087726356       28042014018GOIANIA             1008201400000000005200000CC                                                                                                                                                                                                                                                                                                                                                                                                         000041
1007421039120COBR_CAUC_BIC  CN AUTO SA                              010332357000392VEGA MOTORS VEICULOS E MOTOS LTDA.      AV. QD P-82 LT 01 ESQ.C/AV 24,7566      GOIANIA                                 74543010GO48300000020300151126717       30052014018GOIANIA             2808201400000000004650000CC                                                                                                                                                                                                                                                                                                                                                                                                         000042
1007421039120COBR_CAUC_BIC  CN AUTO SA                              010332357000392VEGA MOTORS VEICULOS E MOTOS LTDA.      AV. QD P-82 LT 01 ESQ.C/AV 24,7566      GOIANIA                                 74543010GO48300000030300153826719       30052014018GOIANIA             2808201400000000004650000CC                                                                                                                                                                                                                                                                                                                                                                                                         000043
1007421039120COBR_CAUC_BIC  CN AUTO SA                              010332357000392VEGA MOTORS VEICULOS E MOTOS LTDA.      AV. QD P-82 LT 01 ESQ.C/AV 24,7566      GOIANIA                                 74543010GO48300000040287086926355       28042014018GOIANIA             1008201400000000005200000CC                                                                                                                                                                                                                                                                                                                                                                                                         000044
1007421039120COBR_CAUC_BIC  CN AUTO SA                              010332357000392VEGA MOTORS VEICULOS E MOTOS LTDA.      AV. QD P-82 LT 01 ESQ.C/AV 24,7566      GOIANIA                                 74543010GO48300000050300150326716       30052014018GOIANIA             2808201400000000004650000CC                                                                                                                                                                                                                                                                                                                                                                                                         000045
1007421039120COBR_CAUC_BIC  CN AUTO SA                              010332357000392VEGA MOTORS VEICULOS E MOTOS LTDA.      AV. QD P-82 LT 01 ESQ.C/AV 24,7566      GOIANIA                                 74543010GO48300000060287089326359       28042014018GOIANIA             1008201400000000005200000CC                                                                                                                                                                                                                                                                                                                                                                                                         000046
1007421039120COBR_CAUC_BIC  CN AUTO SA                              010332357000392VEGA MOTORS VEICULOS E MOTOS LTDA.      AV. QD P-82 LT 01 ESQ.C/AV 24,7566      GOIANIA                                 74543010GO48300000070300152026718       30052014018GOIANIA             2808201400000000004650000CC                                                                                                                                                                                                                                                                                                                                                                                                         000047
1007421039120COBR_CAUC_BIC  CN AUTO SA                              010332357000392VEGA MOTORS VEICULOS E MOTOS LTDA.      AV. QD P-82 LT 01 ESQ.C/AV 24,7566      GOIANIA                                 74543010GO48300000080280247225861       31032014018GOIANIA             2906201400000000002390000CC                                                                                                                                                                                                                                                                                                                                                                                                         000048
1007421039120COBR_CAUC_BIC  CN AUTO SA                              010332357000392VEGA MOTORS VEICULOS E MOTOS LTDA.      AV. QD P-82 LT 01 ESQ.C/AV 24,7566      GOIANIA                                 74543010GO48300000090300154626720       30052014018GOIANIA             2808201400000000004650000CC                                                                                                                                                                                                                                                                                                                                                                                                         000049
1007421039120COBR_CAUC_BIC  CN AUTO SA                              010332357000392VEGA MOTORS VEICULOS E MOTOS LTDA.      AV. QD P-82 LT 01 ESQ.C/AV 24,7566      GOIANIA                                 74543010GO48300000100287082626348       28042014018GOIANIA             1008201400000000005290000CC                                                                                                                                                                                                                                                                                                                                                                                                         000050
1007421039120COBR_CAUC_BIC  CN AUTO SA                              010332357000392VEGA MOTORS VEICULOS E MOTOS LTDA.      AV. QD P-82 LT 01 ESQ.C/AV 24,7566      GOIANIA                                 74543010GO48300000110287085126354       28042014018GOIANIA             1008201400000000005200000CC                                                                                                                                                                                                                                                                                                                                                                                                         000051
1007421039120COBR_CAUC_BIC  CN AUTO SA                              010332357000392VEGA MOTORS VEICULOS E MOTOS LTDA.      AV. QD P-82 LT 01 ESQ.C/AV 24,7566      GOIANIA                                 74543010GO48300000120287083426351       28042014018GOIANIA             1008201400000000005290000CC                                                                                                                                                                                                                                                                                                                                                                                                         000052
1007421039120COBR_CAUC_BIC  CN AUTO SA                              010332357000392VEGA MOTORS VEICULOS E MOTOS LTDA.      AV. QD P-82 LT 01 ESQ.C/AV 24,7566      GOIANIA                                 74543010GO48300000130287084226353       28042014018GOIANIA             1008201400000000005200000CC                                                                                                                                                                                                                                                                                                                                                                                                         000053
1007421039120COBR_CAUC_BIC  CN AUTO SA                              010332357000392VEGA MOTORS VEICULOS E MOTOS LTDA.      AV. QD P-82 LT 01 ESQ.C/AV 24,7566      GOIANIA                                 74543010GO48300000140287088526358       28042014018GOIANIA             1008201400000000005200000CC                                                                                                                                                                                                                                                                                                                                                                                                         000054
9000014                                                                                                                                                                                                                                                                                                                                                                                                                                                                                                                                                                                                                                                                                                               000055
