0REMESSANOTIFICACAO ELETRONICA        99999999999999BICBANCO                                AV. PAULISTA                            1048      12.ANDAR  BELA VISTA                    SAO PAULO                     01310100SP1121739360CORTINHAL                               COORDENADOR                             18072014                                                                                                                                                                                                                                                                                                                                                                                      000001
1031421007010COBR_CAUC_COR  PLANT BEM FERTILIZANTES S.A.            075739086000178SEARA-IND. E COMERCIO DE PRODUTOS       AV 06 DE JUNHO,380                      SERTANOPOLIS                            86170000PR48498000010542077414318/01    17072014600HSBC BANK BRASIL    0508201400000000024806242CC                                                                                                                                                                                                                                                                                                                                                                                                         000002
1031421007010COBR_CAUC_COR  PLANT BEM FERTILIZANTES S.A.            075739086000178SEARA-IND. E COMERCIO DE PRODUTOS       AV 06 DE JUNHO,380                      SERTANOPOLIS                            86170000PR48498000020542078214319/01    17072014600HSBC BANK BRASIL    0508201400000000024806242CC                                                                                                                                                                                                                                                                                                                                                                                                         000003
1031421007010COBR_CAUC_COR  PLANT BEM FERTILIZANTES S.A.            075739086000178SEARA-IND. E COMERCIO DE PRODUTOS       AV 06 DE JUNHO,380                      SERTANOPOLIS                            86170000PR48498000030542079114320/01    17072014600HSBC BANK BRASIL    0508201400000000023924656CC                                                                                                                                                                                                                                                                                                                                                                                                         000004
1022421009153COBR_CAUC_BIC  INDUSTRIAS REUNIDAS COLOMBO LTDA        000057629501072LEOMAR CENCI                            S.A AN QUADRA 01 LOTE,380               BRASILIA                                70632100DF484990000104742990004125401   15072014009BRASILIA            1310201400000000011000000CC                                                                                                                                                                                                                                                                                                                                                                                                         000005
1031421012447COBR_CAUC_COR  AGRICOLA JANDELLE S/A                   001928075002062DMA DISTRIBUIDORA S/A                   RODOVIA BR 040 KM 531 180               BELO HORIZONTE                          30855500MG4850000001030012780015240401  16072014900BRADESCO S/A        1508201400000000011748666CC                                                                                                                                                                                                                                                                                                                                                                                                         000006
1007421065309COBR_CAUC_BIC  OCEANO IND.GRAFICA E EDITORA LTDA       042179671000101DART DO BRASIL IND E COM LTDA           ESTRADA DA ILHA,870                     RIO DE JANEIRO                          23020230RJ48501000010311245368122       17072014014RIO DE JANEIRO      3107201400000000018443214CC                                                                                                                                                                                                                                                                                                                                                                                                         000007
1007421043100COBR_CAUC_BIC  MACROPORT INTERNACIONAL LTDA            012829633000196VERA CRUZ IMPORTACAO E EXPORTACAO       R. D,555-SALA 1                         CUIABA                                  78098300MT485020000103112275000144      17072014024CUIABA              3108201400000000014650000CC                                                                                                                                                                                                                                                                                                                                                                                                         000008
1007421043100COBR_CAUC_BIC  MACROPORT INTERNACIONAL LTDA            012829633000196VERA CRUZ IMPORTACAO E EXPORTACAO       R. D,555-SALA 1                         CUIABA                                  78098300MT485020000203112283000144      17072014024CUIABA              2509201400000000014650000CC                                                                                                                                                                                                                                                                                                                                                                                                         000009
1021421017050COBR_CAUC_BIC  STAR DISTR PROD FARMACEUTICOS LTDA      061585865073701RAIA DROGASIL S/A                       RUA PATAXOS , 1412                      EMBU                                    06833073SP4850300001000031030000361801  16072014007PAULISTA            3007201400000000026141731CC                                                                                                                                                                                                                                                                                                                                                                                                         000010
1021421017050COBR_CAUC_BIC  STAR DISTR PROD FARMACEUTICOS LTDA      061585865073701RAIA DROGASIL S/A                       RUA PATAXOS , 1412                      EMBU                                    06833073SP4850300002000031200000362001  16072014007PAULISTA            3007201400000000012114815CC                                                                                                                                                                                                                                                                                                                                                                                                         000011
1021421017050COBR_CAUC_BIC  STAR DISTR PROD FARMACEUTICOS LTDA      061585865073701RAIA DROGASIL S/A                       RUA PATAXOS , 1412                      EMBU                                    06833073SP4850300003000031110000361901  16072014022PAULISTA            3007201400000000014691935CC                                                                                                                                                                                                                                                                                                                                                                                                         000012
1021421017352COBR_CAUC_BIC  STAR DISTR PROD FARMACEUTICOS LTDA      061585865073701RAIA DROGASIL S/A                       RUA PATAXOS , 1412                      EMBU                                    06833073SP4850400001000005030000361701  16072014007PAULISTA            3007201400000000030476489CC                                                                                                                                                                                                                                                                                                                                                                                                         000013
1021421017050COBR_CAUC_BIC  STAR DISTR PROD FARMACEUTICOS LTDA      061585865073701RAIA DROGASIL S/A                       AVENIDA CORIFEU DE AZEVEDO MARQUES 3097 SAO PAULO                               05339000SP4852000001000028320000352401  30062014007PAULISTA            2908201400000000033729226CC                                                                                                                                                                                                                                                                                                                                                                                                         000014
1021421017050COBR_CAUC_BIC  STAR DISTR PROD FARMACEUTICOS LTDA      061585865073701RAIA DROGASIL S/A                       AVENIDA CORIFEU DE AZEVEDO MARQUES 3097 SAO PAULO                               05339000SP4852000002000028590000352601  30062014007PAULISTA            2908201400000000018228800CC                                                                                                                                                                                                                                                                                                                                                                                                         000015
1021421017050COBR_CAUC_BIC  STAR DISTR PROD FARMACEUTICOS LTDA      061585865073701RAIA DROGASIL S/A                       AVENIDA CORIFEU DE AZEVEDO MARQUES 3097 SAO PAULO                               05339000SP4852000003000028670000352701  30062014007PAULISTA            2908201400000000019791409CC                                                                                                                                                                                                                                                                                                                                                                                                         000016
9000008                                                                                                                                                                                                                                                                                                                                                                                                                                                                                                                                                                                                                                                                                                               000017
