0REMESSANOTIFICACAO ELETRONICA        99999999999999BICBANCO                                AV. PAULISTA                            1048      12.ANDAR  BELA VISTA                    SAO PAULO                     01310100SP1121739360CORTINHAL                               COORDENADOR                             18112011                                                                                                                                                                                                                                                                                                                                                                                      000001
1032420932087COBR_CAUC_COR  TEXTIL RENAUXVIEW S/A                   084229889000173BRANDILI TEXTIL LTDA                    R QUINTINO BOCAIUVA  CXP 19 29          APIUNA                                  89135000SC31991000010003561151279/A     16112011900BRADESCO S/A        2202201200000000014634599CC                                                                                                                                                                                                                                                                                                                                                                                                         000002
1021420930887COBR_CAUC_COR  DEDINI S/A INDUSTRIAS DE BASE           009075242000119EBER BIO ENERGIA E AGRICULTURA LTD      ROD BR 070 ZONA RURAL BR                MONTES CLAROS D                         76255000GO319920000106232881162694-4-4  01112011900BRADESCO S/A        0102201200000000092000000CC                                                                                                                                                                                                                                                                                                                                                                                                         000003
1021420930887COBR_CAUC_COR  DEDINI S/A INDUSTRIAS DE BASE           044373108000103COCAL COMERCIO INDUSTRIA CANAA ACU      PQ INDUSTRIAL DR CAMILO C DE MAGALH SAO PARAGUACU PAULI                         19700000SP319930000106232872165013-1-1  16112011900BRADESCO S/A        1201201200000000022604500CC                                                                                                                                                                                                                                                                                                                                                                                                         000004
1031421007893COBR_CAUC_COR  DIPLOMATA S/A  INDL. E COMERCIAL        083310441004708COOPERATIVA CENTRAL OESTE CATARINE      ROD BR 158 SN                           CUNHA PORA                              89890000SC3199400001049483840015493-06  17112011800UNIBANCO S/A        1612201100000000010500000CC                                                                                                                                                                                                                                                                                                                                                                                                         000005
1031421007893COBR_CAUC_COR  DIPLOMATA S/A  INDL. E COMERCIAL        083310441004708COOPERATIVA CENTRAL OESTE CATARINE      ROD BR 158 SN                           CUNHA PORA                              89890000SC3199400002049483920015493-05  17112011800UNIBANCO S/A        1612201100000000010500000CC                                                                                                                                                                                                                                                                                                                                                                                                         000006
1031421007893COBR_CAUC_COR  DIPLOMATA S/A  INDL. E COMERCIAL        083310441004708COOPERATIVA CENTRAL OESTE CATARINE      ROD BR 158 SN                           CUNHA PORA                              89890000SC3199400003049484060015493-04  17112011800UNIBANCO S/A        1612201100000000010500000CC                                                                                                                                                                                                                                                                                                                                                                                                         000007
1031421007893COBR_CAUC_COR  DIPLOMATA S/A  INDL. E COMERCIAL        083310441004708COOPERATIVA CENTRAL OESTE CATARINE      ROD BR 158 SN                           CUNHA PORA                              89890000SC3199400004049484140015493-03  17112011800UNIBANCO S/A        1512201100000000010500000CC                                                                                                                                                                                                                                                                                                                                                                                                         000008
1031421007893COBR_CAUC_COR  DIPLOMATA S/A  INDL. E COMERCIAL        083310441004708COOPERATIVA CENTRAL OESTE CATARINE      ROD BR 158 SN                           CUNHA PORA                              89890000SC3199400005049484220015493-02  17112011800UNIBANCO S/A        1512201100000000010500000CC                                                                                                                                                                                                                                                                                                                                                                                                         000009
1031421007893COBR_CAUC_COR  DIPLOMATA S/A  INDL. E COMERCIAL        083310441004708COOPERATIVA CENTRAL OESTE CATARINE      ROD BR 158 SN                           CUNHA PORA                              89890000SC3199400006049484310015493-01  17112011800UNIBANCO S/A        1512201100000000010500000CC                                                                                                                                                                                                                                                                                                                                                                                                         000010
9000004                                                                                                                                                                                                                                                                                                                                                                                                                                                                                                                                                                                                                                                                                                               000011
