0REMESSANOTIFICACAO ELETRONICA        99999999999999BICBANCO                                AV. PAULISTA                            1048      12.ANDAR  BELA VISTA                    SAO PAULO                     01310100SP1121739360CORTINHAL                               COORDENADOR                             07112012                                                                                                                                                                                                                                                                                                                                                                                      000001
1016421001333COBR_CAUC_COR  CONDUSPAR CONDUTORES ELETRICOS LTDA     089432702000158INTECNIAL S/A                           RUA ALBERTO PARENTI, 1133               ERECHIM                                 99700000RS386850000103769753260597      29102012900BRADESCO S/A        1312201200000000012581836CC                                                                                                                                                                                                                                                                                                                                                                                                         000002
1031421009896COBR_CAUC_COR  LATICINIOS LATCO LTDA                   011052486000128ELOHIM 2009 DISTRIBUIDORA DE PRODU      RUA LUZITANA, S/N LT 13                 SAO GONCALO                             24753360RJ386860000101001149117883/1    05112012900BRADESCO S/A        0412201200000000010777747CC                                                                                                                                                                                                                                                                                                                                                                                                         000003
1019421014068COBR_CAUC_COR  RIO BRANCO ALIMENTOS S/A                004641376007300SUPERMERCADOS BH COMERCIO DE            AV GERALDO ROCHA 700                    CONTAGEM                                32183054MG3868700001005796500001900701  05112012900BRADESCO S/A        0312201200000000012595729CC                                                                                                                                                                                                                                                                                                                                                                                                         000004
1003420935082DIR_CREDIT     PB CONSTRUCOES LTDA                     010260249000351CIA INDUSTRIAL DE CIMENTO APODI S/A     ROD. CE 422, KM 3,5 - SAO JOSE DO MIXIRACAUCAIA                                 61600000CE3869100001                                                                                                                                          012044390           150120120000021239S/N         06112012000403prestação de serviços de edificações de prédios industriais, incluso   fundação até a limpeza e entrega final.                                                                                                                                  006017891000175              000005
1017421013340DIR_CREDIT     LIMPEL LIMPEZA URBANA LTDA              015339921000150SLEA SAO LUIZ ENGENHARIA AMBIENTAL S/A  RUA DOZE, 01, LOTE 1, QD G DIST INDUST  SAO LUIZ                                65090260MA3869700001                                                                                                                                          481013355           05052012000002260673.040.1005/06112012000404locação de equipamentos, conforme anexo 1.                                                                                                                                                                                                      002499321000108              000006
1023421007680DIR_CREDIT     METROPOLITANA DE ENG.E COM. LTDA.       008662837000108SRHE-SECRETARIA REC.HIDRICOS ENERGETICOSAV.CRUZ CABUGA 1111                     RECIFE                                  50020902PE3871500001                                                                                                                                          012040816           090420120000021068003/2012    05112012000402Serviços de dragagem do Rio Beberibe no trecho 6, compreendido entre a ponte Avenida Olinda ate sua foz (entrada do Porto do Recife), localizada no   Município de Refice, na bacia do Rio Beberibe/PE.                                         035539915000154              000007
1007420931444COBR_CAUC_BIC  PLASINCO LTDA                           014197209000100CORDEIRO CABOS ELETRICOS SA             RUA  ILJIMA,1036                        FERRAZ DE VASCO                         08534000SP38716000010145520523010-3     14092012007PAULISTA            1311201200000000006889917CC                                                                                                                                                                                                                                                                                                                                                                                                         000008
1007420931444COBR_CAUC_BIC  PLASINCO LTDA                           014197209000100CORDEIRO CABOS ELETRICOS SA             RUA  ILJIMA,1036                        FERRAZ DE VASCO                         08534000SP38716000020145521323010       14092012007PAULISTA            2811201200000000006889917CC                                                                                                                                                                                                                                                                                                                                                                                                         000009
1007420931444COBR_CAUC_BIC  PLASINCO LTDA                           014197209000100CORDEIRO CABOS ELETRICOS SA             RUA  ILJIMA,1036                        FERRAZ DE VASCO                         08534000SP38716000030146385223163-3     20092012007PAULISTA            1911201200000000007304118CC                                                                                                                                                                                                                                                                                                                                                                                                         000010
1007420931444COBR_CAUC_BIC  PLASINCO LTDA                           014197209000100CORDEIRO CABOS ELETRICOS SA             RUA  ILJIMA,1036                        FERRAZ DE VASCO                         08534000SP38716000040146386123163-4     20092012007PAULISTA            0412201200000000007304118CC                                                                                                                                                                                                                                                                                                                                                                                                         000011
1007420931444COBR_CAUC_BIC  PLASINCO LTDA                           014197209000100CORDEIRO CABOS ELETRICOS SA             RUA  ILJIMA,1036                        FERRAZ DE VASCO                         08534000SP38716000050153349424043-1     30102012007PAULISTA            2911201200000000005523650CC                                                                                                                                                                                                                                                                                                                                                                                                         000012
1007420931444COBR_CAUC_BIC  PLASINCO LTDA                           014197209000100CORDEIRO CABOS ELETRICOS SA             RUA  ILJIMA,1036                        FERRAZ DE VASCO                         08534000SP38716000060153353224044-4     30102012007PAULISTA            1301201300000000005430975CC                                                                                                                                                                                                                                                                                                                                                                                                         000013
1007420931444COBR_CAUC_BIC  PLASINCO LTDA                           014197209000100CORDEIRO CABOS ELETRICOS SA             RUA  ILJIMA,1036                        FERRAZ DE VASCO                         08534000SP38716000070153354124044-3     30102012007PAULISTA            2912201200000000005430975CC                                                                                                                                                                                                                                                                                                                                                                                                         000014
1007420931444COBR_CAUC_BIC  PLASINCO LTDA                           014197209000100CORDEIRO CABOS ELETRICOS SA             RUA  ILJIMA,1036                        FERRAZ DE VASCO                         08534000SP38716000080153355924044-2     30102012007PAULISTA            1412201200000000005430975CC                                                                                                                                                                                                                                                                                                                                                                                                         000015
1007420931444COBR_CAUC_BIC  PLASINCO LTDA                           014197209000100CORDEIRO CABOS ELETRICOS SA             RUA  ILJIMA,1036                        FERRAZ DE VASCO                         08534000SP38716000090153356724044-1     30102012007PAULISTA            2911201200000000005430975CC                                                                                                                                                                                                                                                                                                                                                                                                         000016
1007420931444COBR_CAUC_BIC  PLASINCO LTDA                           014197209000100CORDEIRO CABOS ELETRICOS SA             RUA  ILJIMA,1036                        FERRAZ DE VASCO                         08534000SP38716000100153357524043-4     30102012007PAULISTA            1301201300000000005523650CC                                                                                                                                                                                                                                                                                                                                                                                                         000017
1007420931444COBR_CAUC_BIC  PLASINCO LTDA                           014197209000100CORDEIRO CABOS ELETRICOS SA             RUA  ILJIMA,1036                        FERRAZ DE VASCO                         08534000SP38716000110153358324043-3     30102012007PAULISTA            2912201200000000005523650CC                                                                                                                                                                                                                                                                                                                                                                                                         000018
1007420931444COBR_CAUC_BIC  PLASINCO LTDA                           014197209000100CORDEIRO CABOS ELETRICOS SA             RUA  ILJIMA,1036                        FERRAZ DE VASCO                         08534000SP38716000120153359124043-2     30102012007PAULISTA            1412201200000000005523650CC                                                                                                                                                                                                                                                                                                                                                                                                         000019
9000007                                                                                                                                                                                                                                                                                                                                                                                                                                                                                                                                                                                                                                                                                                               000020
