0REMESSANOTIFICACAO ELETRONICA        99999999999999BICBANCO                                AV. PAULISTA                            1048      12.ANDAR  BELA VISTA                    SAO PAULO                     01310100SP1121739360CORTINHAL                               COORDENADOR                             05052011                                                                                                                                                                                                                                                                                                                                                                                      000001
1014420938530DIR_CREDIT     PREVCOR IPANEMA S/A                     036155208000127GOLDEN CROSS SEGURADORA S/A             RUA MORAIS E SILVA 40                   RIO DE JANEIRO                          20271030RJ2745500001                                                                                                                                          011422833           010720070000011040            29042011000403convenio de referenciamento do hospital com o objetivo de atender e ///prestar serviços medicos e hospitalares aos clientes da golden cross.                                                                                                    033123415000101              000002
1018421026823DIR_CREDIT     IBA AGROINDUSTRIAL LTDA                 007459492000127DESTILARIA VALE DO PARACATU AGROENERGIA ROD LMG 680 KM 26 CX POSTAL 271         PARACATU                                38600000MG2746300001                                                                                                                                          011401730           101020100000017282            02052011000403a locadora aluga para locataria as maquinas descritas no instrumento   particular de contrato de locação de maquinas agricolas.                                                                                                                 006997187000126              000003
1007421031242COBR_CAUC_COR  GP GUARDA PATRIMONIAL DE S.P. LTDA      062225933000134FEDERACAO DAS INDUSTRIAS DO ESTADO      AVENIDA PAULISTA  1971   3 E 4  ANDARES SAO PAULO                               01311300SP27467000010000410266642       03052011900BRADESCO S/A        0306201100000000018236761CC                                                                                                                                                                                                                                                                                                                                                                                                         000004
1013141019695COBR_CAUC_BIC  MIRP ISOLAMENTO TERMICO LTDA            016047680000139TENACE ENGENHARIA E CONSULTORIA LT      R ITABUNA,201 ED COSMOPOLITAN           SALVADOR                                40279700BA2746800001040655652178        29042011013SALVADOR            1006201100000000100000000TD                                                                                                                                                                                                                                                                                                                                                                                                         000005
9000004                                                                                                                                                                                                                                                                                                                                                                                                                                                                                                                                                                                                                                                                                                               000006
