0REMESSANOTIFICACAO ELETRONICA        99999999999999BICBANCO                                AV. PAULISTA                            1048      12.ANDAR  BELA VISTA                    SAO PAULO                     01310100SP1121739360CORTINHAL                               COORDENADOR                             22022012                                                                                                                                                                                                                                                                                                                                                                                      000001
1021420930887COBR_CAUC_COR  DEDINI S/A INDUSTRIAS DE BASE           044373108000103COCAL COMERCIO INDUSTRIA CANAA ACU      PQ INDUSTRIAL DR CAMILO C DE MAGALH SAO PARAGUACU PAULI                         19700000SP339520000106296137165013-2-2  17022012900BRADESCO S/A        1204201200000000067813500CC                                                                                                                                                                                                                                                                                                                                                                                                         000002
1021420930887COBR_CAUC_COR  DEDINI S/A INDUSTRIAS DE BASE           048295562001450USINA ALTO ALEGRE S A - ACUCAR E A      RUA JOSE LEITE, 40 JD BONGIOVANI BR     PRESIDENTE PRUD                         19050910SP339530000106296111164842-4-4  17022012900BRADESCO S/A        0503201200000000012000000CC                                                                                                                                                                                                                                                                                                                                                                                                         000003
1021420930887COBR_CAUC_COR  DEDINI S/A INDUSTRIAS DE BASE           048295562001450USINA ALTO ALEGRE S A - ACUCAR E A      RUA JOSE LEITE, 40 JD BONGIOVANI BR     PRESIDENTE PRUD                         19050910SP339530000206296129164842-5-5  17022012900BRADESCO S/A        2003201200000000012000000CC                                                                                                                                                                                                                                                                                                                                                                                                         000004
1031421007893COBR_CAUC_COR  DIPLOMATA S/A  INDL. E COMERCIAL        005532428000107VOSSKO DO BRASIL                        RUA ACY AVIANO VARELA XAVIER, S/N SN    LAGES                                   88517625SC3395400001049735160296882-01  17022012800UNIBANCO S/A        1904201200000000011700000CC                                                                                                                                                                                                                                                                                                                                                                                                         000005
1031421007893COBR_CAUC_COR  DIPLOMATA S/A  INDL. E COMERCIAL        076994946000182FRANGO SEVA LTDA                        ROD. PR 469 KM 03                       PATO BRAGADO                            85503390PR3395500001049735080149750-04  16022012800UNIBANCO S/A        1204201200000000013117500CC                                                                                                                                                                                                                                                                                                                                                                                                         000006
1016421006424COBR_CAUC_COR  BOUTIN FERTILIZANTES LTDA               001710374000163AGROPECUARIA FIORESE                    R. MARECHAL FLORIANO 340,340            RONCADOR                                87320000PR33956000010332707624654       19012012800UNIBANCO S/A        1507201200000000025200000CC                                                                                                                                                                                                                                                                                                                                                                                                         000007
1021141012725COBR_CAUC_BIC  MABE BRASIL ELETRODOMESTICOS LTDA       010757237010723NOVA CASA BAHIA S/A                     RODOVIA ANHANGUERA 0, S/N KM52          JUNDIAI                                 13208401SP3395700001062956610000054137  16022012007PAULISTA            1203201200000000011607677TD                                                                                                                                                                                                                                                                                                                                                                                                         000008
1021141012725COBR_CAUC_BIC  MABE BRASIL ELETRODOMESTICOS LTDA       010757237010723NOVA CASA BAHIA S/A                     RODOVIA ANHANGUERA 0, S/N KM52          JUNDIAI                                 13208401SP3395700002062956700000054138  16022012007PAULISTA            1203201200000000011607677TD                                                                                                                                                                                                                                                                                                                                                                                                         000009
1021141012725COBR_CAUC_BIC  MABE BRASIL ELETRODOMESTICOS LTDA       010757237010723NOVA CASA BAHIA S/A                     RODOVIA ANHANGUERA 0, S/N KM52          JUNDIAI                                 13208401SP3395700003062957690000642017  16022012007PAULISTA            1203201200000000010381297TD                                                                                                                                                                                                                                                                                                                                                                                                         000010
1021141012725COBR_CAUC_BIC  MABE BRASIL ELETRODOMESTICOS LTDA       010757237010723NOVA CASA BAHIA S/A                     RODOVIA ANHANGUERA 0, S/N KM52          JUNDIAI                                 13208401SP3395700004062957770000641901  16022012007PAULISTA            1203201200000000010566064TD                                                                                                                                                                                                                                                                                                                                                                                                         000011
1021141012725COBR_CAUC_BIC  MABE BRASIL ELETRODOMESTICOS LTDA       010757237010723NOVA CASA BAHIA S/A                     RODOVIA ANHANGUERA 0, S/N KM52          JUNDIAI                                 13208401SP3395700005062957850000642030  16022012007PAULISTA            1203201200000000010566064TD                                                                                                                                                                                                                                                                                                                                                                                                         000012
1021141012725COBR_CAUC_BIC  MABE BRASIL ELETRODOMESTICOS LTDA       010757237010723NOVA CASA BAHIA S/A                     RODOVIA ANHANGUERA 0, S/N KM52          JUNDIAI                                 13208401SP3395700006062957930000642769  17022012007PAULISTA            1203201200000000010846059TD                                                                                                                                                                                                                                                                                                                                                                                                         000013
9000006                                                                                                                                                                                                                                                                                                                                                                                                                                                                                                                                                                                                                                                                                                               000014
