0REMESSANOTIFICACAO ELETRONICA        99999999999999BICBANCO                                AV. PAULISTA                            1048      12.ANDAR  BELA VISTA                    SAO PAULO                     01310100SP1121739360CORTINHAL                               COORDENADOR                             25032014                                                                                                                                                                                                                                                                                                                                                                                      000001
1007421072259COBR_CAUC_COR  BOMBRIL S/A                             002782071000380MEGAFORT DISTRIB IMP E EXP LTDA         AV WILSON TAVARES RIBEIR 1651, LUC1     CONTAGEM                                32183680MG4691700001027655180055811001  28022014900BRADESCO S/A        1104201400000000010009808CC                                                                                                                                                                                                                                                                                                                                                                                                         000002
1018421034834COBR_CAUC_COR  LACEL LATICINIOS CERES LTDA             001238035000126INDUSTRIA DE SORVETES E DERIVADOS       AV GOV NILO COLELHO DIST IND QD B LT 5K ABREU E LIMA                            53520810PE4691800001036499820312961     21032014700BANCO REAL- ABN AMRO1804201400000000016470000CC                                                                                                                                                                                                                                                                                                                                                                                                         000003
1018421034834COBR_CAUC_COR  LACEL LATICINIOS CERES LTDA             001238035000126INDUSTRIA DE SORVETES E DERIVADOS       AV GOV NILO COLELHO DIST IND QD B LT 5K ABREU E LIMA                            53520810PE4691800002036499910312962     21032014700BANCO REAL- ABN AMRO2504201400000000016470000CC                                                                                                                                                                                                                                                                                                                                                                                                         000004
1036421016893COBR_CAUC_COR  TECAL ALUMINIO DA AMAZONIA LTDA         004012043000148SHOWA DO BRASIL LTDA                    RUA RIO QUIXITO                         MANAUS                                  69075830AM4691900001060004110000057687  21032014900BRADESCO S/A        2004201400000000013049113CC                                                                                                                                                                                                                                                                                                                                                                                                         000005
1036421016893COBR_CAUC_COR  TECAL ALUMINIO DA AMAZONIA LTDA         004012043000148SHOWA DO BRASIL LTDA                    RUA RIO QUIXITO                         MANAUS                                  69075830AM4691900002060004200000057684  21032014900BRADESCO S/A        2004201400000000022617056CC                                                                                                                                                                                                                                                                                                                                                                                                         000006
1007421065309COBR_CAUC_BIC  OCEANO IND.GRAFICA E EDITORA LTDA       008926473000126SC DROGARIA LTDA                        AV. DR. EPITACIO PESSOA - DE 3,372      SANTOS                                  11030600SP4692000001027623731535        13032014023SANTOS              1104201400000000012910312CC                                                                                                                                                                                                                                                                                                                                                                                                         000007
1007421065309COBR_CAUC_BIC  OCEANO IND.GRAFICA E EDITORA LTDA       042179671000101DART DO BRASIL IND E COM LTDA           ESTRADA DA ILHA,870                     RIO DE JANEIRO                          23020230RJ46921000010276238159930       17032014014RIO DE JANEIRO      1504201400000000019859316CC                                                                                                                                                                                                                                                                                                                                                                                                         000008
1003141005437COBR_CAUC_COR  CAMERINO IND E COM DE MOVEIS LTDA       014318014000162CONSORCIO MARQUISE-NORMATEL             ROD MG-10 KM 09 SN                      CONFINS                                 33500900MG4692200001043738703150/03     11122013900BRADESCO S/A        2005201400000000015000000TD                                                                                                                                                                                                                                                                                                                                                                                                         000009
9000006                                                                                                                                                                                                                                                                                                                                                                                                                                                                                                                                                                                                                                                                                                               000010
