0REMESSANOTIFICACAO ELETRONICA        99999999999999BICBANCO                                AV. PAULISTA                            1048      12.ANDAR  BELA VISTA                    SAO PAULO                     01310100SP1121739360CORTINHAL                               COORDENADOR                             05112013                                                                                                                                                                                                                                                                                                                                                                                      000001
1007421072259COBR_CAUC_COR  BOMBRIL S/A                             002782071000380MEGAFORT DISTRIB IMP E EXP LTDA         AV WILSON TAVARES RIBEIR 1651, LUC1     CONTAGEM                                32183680MG4508300001023999450051465001  30102013900BRADESCO S/A        2011201300000000010009808CC                                                                                                                                                                                                                                                                                                                                                                                                         000002
1007421072259COBR_CAUC_COR  BOMBRIL S/A                             005383639000117DISTR CHOK - PET DE FRANCA LTDA         R HEITOR VILA LOBOS 1093                FRANCA                                  14409409SP4508400001024001530832417001  25102013900BRADESCO S/A        2911201300000000010009808CC                                                                                                                                                                                                                                                                                                                                                                                                         000003
1021420930887COBR_CAUC_COR  DEDINI S/A INDUSTRIAS DE BASE           007930999000206BAMBUI BIOENERGIA S.A.                  ROD MG 827 KM BAMBUI   MEDEIROS BR      BAMBUI                                  38900000MG450810000106471591235705-1-1  01112013900BRADESCO S/A        1512201300000000012009641CC                                                                                                                                                                                                                                                                                                                                                                                                         000004
1021420930887COBR_CAUC_COR  DEDINI S/A INDUSTRIAS DE BASE           061068342000138PRENSAS SCHULER SA                      AV FAGUNDES DE OLIVEIRA, 1515 PIRAPORINHDIADEMA                                 09950904SP45082000010647153243139-01-1  01112013900BRADESCO S/A        2911201300000000015224000CC                                                                                                                                                                                                                                                                                                                                                                                                         000005
1008421022487COBR_CAUC_COR  EBP - EMPRESA BRASILEIRA DE PESCADO     033304981000110SUPERMERCADOS MUNDIAL LTDA              RUA  DONA EMILIA, 2                     RIO DE JANEIRO                          20765110RJ4508800001016801210022605/    31102013900BRADESCO S/A        1412201300000000035235000CC                                                                                                                                                                                                                                                                                                                                                                                                         000006
1008421022487COBR_CAUC_COR  EBP - EMPRESA BRASILEIRA DE PESCADO     033381286000151SUPER MERCADO ZONA SUL S/A              RUA COMANDANTE VERGUEIRO DA CRUZ, 226   RIO DE JANEIRO                          21021020RJ4508900001016803170022624/    31102013900BRADESCO S/A        0412201300000000011655000CC                                                                                                                                                                                                                                                                                                                                                                                                         000007
1043421003018COBR_CAUC_COR  FELINTO INDUSTRIA E COMERCIO LTDA       052034139000150MARILAN ALIMENTOS S/A                   AV JOSE DE GRANDE,,518-/642             MARILIA                                 17519903SP45087000010077693420433-A     04112013800UNIBANCO S/A        2412201300000000010940850CC                                                                                                                                                                                                                                                                                                                                                                                                         000008
1048421003043COBR_CAUC_COR  FRIGOL S.A. EM RECUPERACAO JUDICIAL     001437139000160D L SOSINHO & CIA LTDA ME               VERA CRUZ 63                            ANANINDEUA                              67030775PA4509000001000540880000028991  04112013900BRADESCO S/A        1111201300000000011335797CC                                                                                                                                                                                                                                                                                                                                                                                                         000009
1048421003043COBR_CAUC_COR  FRIGOL S.A. EM RECUPERACAO JUDICIAL     067620377000114MINERVA.S.A                             AV.ANTONIO MANSO BERNARDES,S/N          BARRETOS                                14781545SP4509100001000540960000028993  04112013900BRADESCO S/A        0412201300000000017547262CC                                                                                                                                                                                                                                                                                                                                                                                                         000010
1019421004658COBR_CAUC_COR  S/A ESTADO DE MINAS                     003471344000177CAOA MONTADORA DE VEICULOS SA           R11 SN FAZ BARREIRO DO MEIO             ANAPOLIS                                75133590GO4508000001012705712053736-1   31102013900BRADESCO S/A        3011201300000000010934976CC                                                                                                                                                                                                                                                                                                                                                                                                         000011
1007421073611COBR_CAUC_BIC  VALE GRANDE IND E COM DE ALIMENTOS      007753705000200COMERCIO DE CARNES FUTURA GERACAO       AVENIDA MANOEL DE CAMARGO SAMPAIO 565   SOROCABA                                18071195SP45086000010240022600057808-1  02112013007PAULISTA            2711201300000000032451711CC                                                                                                                                                                                                                                                                                                                                                                                                         000012
1028421009810COBR_CAUC_COR  VALLEE S/A                              001963040000363SOUBHIA E CIA LTDA                      R JORNALISTA BELIZARIO LIMA 104-VL GLORICAMPO GRANDE                            79004270MS4508500001029383113093186013  04112013800UNIBANCO S/A        2612201300000000010745528CC                                                                                                                                                                                                                                                                                                                                                                                                         000013
9000012                                                                                                                                                                                                                                                                                                                                                                                                                                                                                                                                                                                                                                                                                                               000014
