0REMESSANOTIFICACAO ELETRONICA        99999999999999BICBANCO                                AV. PAULISTA                            1048      12.ANDAR  BELA VISTA                    SAO PAULO                     01310100SP1121739360CORTINHAL                               COORDENADOR                             07022013                                                                                                                                                                                                                                                                                                                                                                                      000001
1050421002855COBR_CAUC_COR  C F SANTOS COM DE ALIMENTOS LTDA        004899316000118IMIFARMA PRODUTOS FARMAC. E COSMET      TV QUINTINO BOCAIUVA 381,381            BELEM                                   66053240PA401120000100000221287362      06022013900BRADESCO S/A        2103201300000000013576770CC                                                                                                                                                                                                                                                                                                                                                                                                         000002
1038420932914COBR_CAUC_BIC  INDS GER DE PARAF INGEPAL LTDA          004532167000154BMB MODE CENTER IND.COM.E SERVIÇOS      R.RENATO MONTEIRO,8005-POLO URB.AGRO.INDPORTO REAL                              27570000RJ4012800001099938750000067766  17012013014RIO DE JANEIRO      1402201300000000000163024CC                                                                                                                                                                                                                                                                                                                                                                                                         000003
1038420932914COBR_CAUC_BIC  INDS GER DE PARAF INGEPAL LTDA          010602108000108SAVA COM.DISTR.E LOG.PEÇAS FIX.MEC      RUA TAMIRIM,08-VILA ALPINA              SAO PAULO                               03204050SP4013500001099896570000067440  18122012007PAULISTA            0204201300000000000566225CC                                                                                                                                                                                                                                                                                                                                                                                                         000004
1038420932914COBR_CAUC_BIC  INDS GER DE PARAF INGEPAL LTDA          010602108000108SAVA COM.DISTR.E LOG.PEÇAS FIX.MEC      RUA TAMIRIM,08-VILA ALPINA              SAO PAULO                               03204050SP4013500002099896650000067440  18122012007PAULISTA            0403201300000000000566225CC                                                                                                                                                                                                                                                                                                                                                                                                         000005
1038420932914COBR_CAUC_BIC  INDS GER DE PARAF INGEPAL LTDA          010602108000108SAVA COM.DISTR.E LOG.PEÇAS FIX.MEC      RUA TAMIRIM,08-VILA ALPINA              SAO PAULO                               03204050SP4013500003099936380000067440  18122012007PAULISTA            1705201300000000000566225CC                                                                                                                                                                                                                                                                                                                                                                                                         000006
1038420932914COBR_CAUC_BIC  INDS GER DE PARAF INGEPAL LTDA          010602108000108SAVA COM.DISTR.E LOG.PEÇAS FIX.MEC      RUA TAMIRIM,08-VILA ALPINA              SAO PAULO                               03204050SP4013500004099936460000067440  18122012007PAULISTA            0205201300000000000566225CC                                                                                                                                                                                                                                                                                                                                                                                                         000007
1038420932914COBR_CAUC_BIC  INDS GER DE PARAF INGEPAL LTDA          010602108000108SAVA COM.DISTR.E LOG.PEÇAS FIX.MEC      RUA TAMIRIM,08-VILA ALPINA              SAO PAULO                               03204050SP4013500005099896730000067444  18122012007PAULISTA            1802201300000000000217067CC                                                                                                                                                                                                                                                                                                                                                                                                         000008
1038420932914COBR_CAUC_BIC  INDS GER DE PARAF INGEPAL LTDA          010602108000108SAVA COM.DISTR.E LOG.PEÇAS FIX.MEC      RUA TAMIRIM,08-VILA ALPINA              SAO PAULO                               03204050SP4013500006099936540000067444  18122012007PAULISTA            1803201300000000000217067CC                                                                                                                                                                                                                                                                                                                                                                                                         000009
1038420932914COBR_CAUC_BIC  INDS GER DE PARAF INGEPAL LTDA          010602108000108SAVA COM.DISTR.E LOG.PEÇAS FIX.MEC      RUA TAMIRIM,08-VILA ALPINA              SAO PAULO                               03204050SP4013500007099771100000067445  18122012007PAULISTA            1802201300000000000383123CC                                                                                                                                                                                                                                                                                                                                                                                                         000010
1038420932914COBR_CAUC_BIC  INDS GER DE PARAF INGEPAL LTDA          010602108000108SAVA COM.DISTR.E LOG.PEÇAS FIX.MEC      RUA TAMIRIM,08-VILA ALPINA              SAO PAULO                               03204050SP4013500008099936620000067445  18122012007PAULISTA            1803201300000000000383123CC                                                                                                                                                                                                                                                                                                                                                                                                         000011
1038420932914COBR_CAUC_BIC  INDS GER DE PARAF INGEPAL LTDA          010602108000108SAVA COM.DISTR.E LOG.PEÇAS FIX.MEC      RUA TAMIRIM,08-VILA ALPINA              SAO PAULO                               03204050SP4013500009099896810000067447  18122012007PAULISTA            0403201300000000001823464CC                                                                                                                                                                                                                                                                                                                                                                                                         000012
1038420932914COBR_CAUC_BIC  INDS GER DE PARAF INGEPAL LTDA          010602108000108SAVA COM.DISTR.E LOG.PEÇAS FIX.MEC      RUA TAMIRIM,08-VILA ALPINA              SAO PAULO                               03204050SP4013500010099896900000067447  18122012007PAULISTA            0204201300000000001823464CC                                                                                                                                                                                                                                                                                                                                                                                                         000013
1038420932914COBR_CAUC_BIC  INDS GER DE PARAF INGEPAL LTDA          010602108000108SAVA COM.DISTR.E LOG.PEÇAS FIX.MEC      RUA TAMIRIM,08-VILA ALPINA              SAO PAULO                               03204050SP4013500011099936710000067447  18122012007PAULISTA            0205201300000000001823464CC                                                                                                                                                                                                                                                                                                                                                                                                         000014
1038420932914COBR_CAUC_BIC  INDS GER DE PARAF INGEPAL LTDA          010602108000108SAVA COM.DISTR.E LOG.PEÇAS FIX.MEC      RUA TAMIRIM,08-VILA ALPINA              SAO PAULO                               03204050SP4013500012099936890000067447  18122012007PAULISTA            1705201300000000001823464CC                                                                                                                                                                                                                                                                                                                                                                                                         000015
1038420932914COBR_CAUC_BIC  INDS GER DE PARAF INGEPAL LTDA          010602108000108SAVA COM.DISTR.E LOG.PEÇAS FIX.MEC      RUA TAMIRIM,08-VILA ALPINA              SAO PAULO                               03204050SP4013500013099937860000067713  15012013007PAULISTA            1402201300000000000042802CC                                                                                                                                                                                                                                                                                                                                                                                                         000016
1038420932914COBR_CAUC_BIC  INDS GER DE PARAF INGEPAL LTDA          010602108000108SAVA COM.DISTR.E LOG.PEÇAS FIX.MEC      RUA TAMIRIM,08-VILA ALPINA              SAO PAULO                               03204050SP4013500014099937940000067713  15012013007PAULISTA            1803201300000000000042803CC                                                                                                                                                                                                                                                                                                                                                                                                         000017
1038420932914COBR_CAUC_BIC  INDS GER DE PARAF INGEPAL LTDA          010602108000108SAVA COM.DISTR.E LOG.PEÇAS FIX.MEC      RUA TAMIRIM,08-VILA ALPINA              SAO PAULO                               03204050SP4013500015099938910000067780  17012013007PAULISTA            1802201300000000000060309CC                                                                                                                                                                                                                                                                                                                                                                                                         000018
1038420932914COBR_CAUC_BIC  INDS GER DE PARAF INGEPAL LTDA          010602108000108SAVA COM.DISTR.E LOG.PEÇAS FIX.MEC      RUA TAMIRIM,08-VILA ALPINA              SAO PAULO                               03204050SP4013500016099939050000067780  17012013007PAULISTA            1803201300000000000060309CC                                                                                                                                                                                                                                                                                                                                                                                                         000019
1038420932914COBR_CAUC_COR  INDS GER DE PARAF INGEPAL LTDA          079131918000120NOMA DO BRASIL LTDA.                    ROD BR 376,Nº336 KM 415-JARDIM IMPERIAL SARANDI                                 87111010PR4013400001099897030000067489  26122012600HSBC BANK BRASIL    1102201300000000000379816CC                                                                                                                                                                                                                                                                                                                                                                                                         000020
1038420932914COBR_CAUC_COR  INDS GER DE PARAF INGEPAL LTDA          079131918000120NOMA DO BRASIL LTDA.                    ROD BR 376,Nº336 KM 415-JARDIM IMPERIAL SARANDI                                 87111010PR4013400002099937190000067611  09012013600HSBC BANK BRASIL    2502201300000000000122752CC                                                                                                                                                                                                                                                                                                                                                                                                         000021
1038420932914COBR_CAUC_COR  INDS GER DE PARAF INGEPAL LTDA          079131918000120NOMA DO BRASIL LTDA.                    ROD BR 376,Nº336 KM 415-JARDIM IMPERIAL SARANDI                                 87111010PR4013400003099937270000067612  09012013600HSBC BANK BRASIL    2502201300000000000505458CC                                                                                                                                                                                                                                                                                                                                                                                                         000022
1038420932914COBR_CAUC_COR  INDS GER DE PARAF INGEPAL LTDA          079131918000120NOMA DO BRASIL LTDA.                    ROD BR 376,Nº336 KM 415-JARDIM IMPERIAL SARANDI                                 87111010PR4013400004099937600000067691  14012013600HSBC BANK BRASIL    2802201300000000001008048CC                                                                                                                                                                                                                                                                                                                                                                                                         000023
1038420932914COBR_CAUC_COR  INDS GER DE PARAF INGEPAL LTDA          079131918000120NOMA DO BRASIL LTDA.                    ROD BR 376,Nº336 KM 415-JARDIM IMPERIAL SARANDI                                 87111010PR4013400005099938830000067772  17012013600HSBC BANK BRASIL    0403201300000000001791776CC                                                                                                                                                                                                                                                                                                                                                                                                         000024
1038420932914COBR_CAUC_BIC  INDS GER DE PARAF INGEPAL LTDA          092327410000160KLL EQUIPAMENTOS PARA TRANSPORTE L      AV.PRES.GETULIO VARGAS,9994-DISTR.INDL. ALVORADA                                94836000RS4013300001099935220000011462  10012013015PORTO ALEGRE        1102201300000000000777062CC                                                                                                                                                                                                                                                                                                                                                                                                         000025
1038420932914COBR_CAUC_BIC  INDS GER DE PARAF INGEPAL LTDA          092327410000160KLL EQUIPAMENTOS PARA TRANSPORTE L      AV.PRES.GETULIO VARGAS,9994-DISTR.INDL. ALVORADA                                94836000RS4013300002099935570000011477  14012013015PORTO ALEGRE        1302201300000000001417553CC                                                                                                                                                                                                                                                                                                                                                                                                         000026
1038420932914COBR_CAUC_BIC  INDS GER DE PARAF INGEPAL LTDA          092327410000160KLL EQUIPAMENTOS PARA TRANSPORTE L      AV.PRES.GETULIO VARGAS,9994-DISTR.INDL. ALVORADA                                94836000RS4013300003099936200000011503  17012013015PORTO ALEGRE        1802201300000000001013813CC                                                                                                                                                                                                                                                                                                                                                                                                         000027
1038420932914COBR_CAUC_BIC  INDS GER DE PARAF INGEPAL LTDA          088665146000601GUERRA IMPLEMENTOS RODOVIÁRIOS LTD      EST.FEDERAL,BR 116,Nº15354-KM 146-DE LAZCAXIAS DO SUL                           95059520RS4013200001099935140000011449  07012013029CAXIAS DO SUL       1402201300000000000112217CC                                                                                                                                                                                                                                                                                                                                                                                                         000028
1038420932914COBR_CAUC_BIC  INDS GER DE PARAF INGEPAL LTDA          088665146000601GUERRA IMPLEMENTOS RODOVIÁRIOS LTD      EST.FEDERAL,BR 116,Nº15354-KM 146-DE LAZCAXIAS DO SUL                           95059520RS4013200002099935310000011467  11012013029CAXIAS DO SUL       1402201300000000000015391CC                                                                                                                                                                                                                                                                                                                                                                                                         000029
1038420932914COBR_CAUC_BIC  INDS GER DE PARAF INGEPAL LTDA          088665146000601GUERRA IMPLEMENTOS RODOVIÁRIOS LTD      EST.FEDERAL,BR 116,Nº15354-KM 146-DE LAZCAXIAS DO SUL                           95059520RS4013200003099935490000011469  11012013029CAXIAS DO SUL       1402201300000000000382495CC                                                                                                                                                                                                                                                                                                                                                                                                         000030
1038420932914COBR_CAUC_BIC  INDS GER DE PARAF INGEPAL LTDA          088665146000601GUERRA IMPLEMENTOS RODOVIÁRIOS LTD      EST.FEDERAL,BR 116,Nº15354-KM 146-DE LAZCAXIAS DO SUL                           95059520RS4013200004099935730000011484  14012013029CAXIAS DO SUL       2102201300000000000156432CC                                                                                                                                                                                                                                                                                                                                                                                                         000031
1038420932914COBR_CAUC_BIC  INDS GER DE PARAF INGEPAL LTDA          088665146000601GUERRA IMPLEMENTOS RODOVIÁRIOS LTD      EST.FEDERAL,BR 116,Nº15354-KM 146-DE LAZCAXIAS DO SUL                           95059520RS4013200005099935810000011485  14012013029CAXIAS DO SUL       2102201300000000000249235CC                                                                                                                                                                                                                                                                                                                                                                                                         000032
1038420932914COBR_CAUC_BIC  INDS GER DE PARAF INGEPAL LTDA          088665146000601GUERRA IMPLEMENTOS RODOVIÁRIOS LTD      EST.FEDERAL,BR 116,Nº15354-KM 146-DE LAZCAXIAS DO SUL                           95059520RS4013200006099935900000011491  15012013029CAXIAS DO SUL       2102201300000000000439543CC                                                                                                                                                                                                                                                                                                                                                                                                         000033
1038420932914COBR_CAUC_BIC  INDS GER DE PARAF INGEPAL LTDA          088665146000601GUERRA IMPLEMENTOS RODOVIÁRIOS LTD      EST.FEDERAL,BR 116,Nº15354-KM 146-DE LAZCAXIAS DO SUL                           95059520RS4013200007099936030000011492  15012013029CAXIAS DO SUL       2102201300000000000010494CC                                                                                                                                                                                                                                                                                                                                                                                                         000034
1038420932914COBR_CAUC_BIC  INDS GER DE PARAF INGEPAL LTDA          088665146000601GUERRA IMPLEMENTOS RODOVIÁRIOS LTD      EST.FEDERAL,BR 116,Nº15354-KM 146-DE LAZCAXIAS DO SUL                           95059520RS4013200008099936110000011500  16012013029CAXIAS DO SUL       2102201300000000001098533CC                                                                                                                                                                                                                                                                                                                                                                                                         000035
1038420932914COBR_CAUC_COR  INDS GER DE PARAF INGEPAL LTDA          055064562000190MÁQUINAS AGRICOLAS JACTO S.A            RUA DR.LUIZ MIRANDA,1650-CENTRO         POMPEIA                                 17580000SP4013100001099938410000067744  16012013900BRADESCO S/A        1502201300000000000064518CC                                                                                                                                                                                                                                                                                                                                                                                                         000036
1038420932914COBR_CAUC_COR  INDS GER DE PARAF INGEPAL LTDA          055064562000190MÁQUINAS AGRICOLAS JACTO S.A            RUA DR.LUIZ MIRANDA,1650-CENTRO         POMPEIA                                 17580000SP4013100002099938590000067746  16012013900BRADESCO S/A        1502201300000000001470153CC                                                                                                                                                                                                                                                                                                                                                                                                         000037
1038420932914COBR_CAUC_BIC  INDS GER DE PARAF INGEPAL LTDA          060862604000179BASSO COMPONENTES AUTOMOTIVOS LTDA      EST.DO JARAGUA,4111-VIA ANHANG.KM 25,5  SAO PAULO                               05276962SP4013000001099937430000067671  11012013007PAULISTA            0802201300000000000524699CC                                                                                                                                                                                                                                                                                                                                                                                                         000038
1038420932914COBR_CAUC_BIC  INDS GER DE PARAF INGEPAL LTDA          088624242000105INSTALADORA SAO MARCOS LTDA             EST BR 116,Nº1155-KM 113-INDUSTRIAL     SAO MARCOS                              95190000RS4012900001099935650000011478  14012013029CAXIAS DO SUL       1102201300000000000264446CC                                                                                                                                                                                                                                                                                                                                                                                                         000039
1016421019909COBR_CAUC_BIC  TROMBINI EMBALAGENS S/A                 006538082000109ROUSSELOT GELATINAS DO BRASIL LTDA      RUA SANTO AGOSTINHO 280 ARCADAS         AMPARO                                  13908000SP40111000010389584818049-1     05022013021CAMPINAS            1903201300000000010846944CC                                                                                                                                                                                                                                                                                                                                                                                                         000040
9000010                                                                                                                                                                                                                                                                                                                                                                                                                                                                                                                                                                                                                                                                                                               000041
