0REMESSANOTIFICACAO ELETRONICA        99999999999999BICBANCO                                AV. PAULISTA                            1048      12.ANDAR  BELA VISTA                    SAO PAULO                     01310100SP1121739360CORTINHAL                               COORDENADOR                             09062014                                                                                                                                                                                                                                                                                                                                                                                      000001
1003421010775COBR_CAUC_COR  NUFARM IND QUIM FARMACEUTICA S/A        001685057000134FERTIBAHIA COM DE PRODUTOS AGROPEC      AVENIDA PRESIDENTE DUTRA, 2399          FEIRA DE SANTAN                         44088455BA478890000104391029 004407001  29052014600HSBC BANK BRASIL    2710201400000000016150000CC                                                                                                                                                                                                                                                                                                                                                                                                         000002
1029421018494COBR_CAUC_COR  PRO SALUTE SERVICOS PARA SAUDE LTDA     088611264000122INTRAL S A IND DE MATERIAIS ELETRI      TRAV. RIO GRANDE , 130                  CAXIAS DO SUL                           95098750RS4789000001001378530150385.A   04062014900BRADESCO S/A        1007201400000000010942299CC                                                                                                                                                                                                                                                                                                                                                                                                         000003
1029421018494COBR_CAUC_COR  PRO SALUTE SERVICOS PARA SAUDE LTDA     093785822000106SAN MARINO ONIBUS LTDA                  IRMAO GILDO SCHIAVO, 110                CAXIAS DO SUL                           95058510RS4789100001001378700150432.A   04062014900BRADESCO S/A        2006201400000000018183881CC                                                                                                                                                                                                                                                                                                                                                                                                         000004
1048421000338COBR_CAUC_COR  FRIGOESTRELA S.A. EM RECUP JUDICIAL     003384037000159MASTROTTO BRASIL S/A                    ROD BR 101 KM 201, S/N                  CACHOEIRA                               44300000BA4789200001082541670112720701  05062014900BRADESCO S/A        0307201400000000031143307CC                                                                                                                                                                                                                                                                                                                                                                                                         000005
1007421063594COBR_CAUC_BIC  MELHORAMENTOS FLORESTAL LTDA            060856077000947PAPIRUS INDUSTRIA DE PAPEL S/A          VIA ANHANGUERA KM 130 SITIO DA BARRA    LIMEIRA                                 13480970SP478930000102995891000034103   06062014021CAMPINAS            2107201400000000020094480CC                                                                                                                                                                                                                                                                                                                                                                                                         000006
9000005                                                                                                                                                                                                                                                                                                                                                                                                                                                                                                                                                                                                                                                                                                               000007
