0REMESSANOTIFICACAO ELETRONICA        99999999999999BICBANCO                                AV. PAULISTA                            1048      12.ANDAR  BELA VISTA                    SAO PAULO                     01310100SP1121739360CORTINHAL                               COORDENADOR                             06022013                                                                                                                                                                                                                                                                                                                                                                                      000001
1038420932914COBR_CAUC_BIC  INDS GER DE PARAF INGEPAL LTDA          059274332000107INDUSTRIA METALPLASTICA IRBAS LTDA      NEUCHATEL363                            SAO BERNARDO DO                         09663020SP4010800001099936970000067518  03012013038ABC                 0702201300000000000113608CC                                                                                                                                                                                                                                                                                                                                                                                                         000002
1038420932914COBR_CAUC_BIC  INDS GER DE PARAF INGEPAL LTDA          059274332000107INDUSTRIA METALPLASTICA IRBAS LTDA      NEUCHATEL363                            SAO BERNARDO DO                         09663020SP4010800002099938160000067731  16012013038ABC                 2002201300000000000218739CC                                                                                                                                                                                                                                                                                                                                                                                                         000003
1038420932914COBR_CAUC_BIC  INDS GER DE PARAF INGEPAL LTDA          002042860000113ALLEVARD MOLAS DO BRASIL LTDA           JOSÉ FABIANO DE CRISTO GURJÃO411        MOGI-MIRIM                              13803705SP4011000001099937510000067676  11012013021CAMPINAS            0802201300000000000630180CC                                                                                                                                                                                                                                                                                                                                                                                                         000004
1038420932914COBR_CAUC_BIC  INDS GER DE PARAF INGEPAL LTDA          002042860000113ALLEVARD MOLAS DO BRASIL LTDA           JOSÉ FABIANO DE CRISTO GURJÃO411        MOGI-MIRIM                              13803705SP4011000002099937780000067699  14012013021CAMPINAS            1102201300000000000222462CC                                                                                                                                                                                                                                                                                                                                                                                                         000005
1038420932914COBR_CAUC_BIC  INDS GER DE PARAF INGEPAL LTDA          002042860000113ALLEVARD MOLAS DO BRASIL LTDA           JOSÉ FABIANO DE CRISTO GURJÃO411        MOGI-MIRIM                              13803705SP4011000003099938240000067741  16012013021CAMPINAS            1302201300000000000371281CC                                                                                                                                                                                                                                                                                                                                                                                                         000006
1038420932914COBR_CAUC_BIC  INDS GER DE PARAF INGEPAL LTDA          002042860000113ALLEVARD MOLAS DO BRASIL LTDA           JOSÉ FABIANO DE CRISTO GURJÃO411        MOGI-MIRIM                              13803705SP4011000004099938320000067742  16012013021CAMPINAS            1302201300000000000581120CC                                                                                                                                                                                                                                                                                                                                                                                                         000007
1038420932914COBR_CAUC_COR  INDS GER DE PARAF INGEPAL LTDA          061156113000175IOCHPE MAXION S/A                       OTHON BARCELLOS83                       CRUZEIRO                                12730900SP4010900001099938080000067718  15012013900BRADESCO S/A        1202201300000000000382983CC                                                                                                                                                                                                                                                                                                                                                                                                         000008
1022421007720COBR_CAUC_COR  JUMIL-JUSTINO DE MORAIS IRMAOS S/A      000079081479172MABIO LUIZ DE MOURA                     RUA 17, SALA 09, 113                    ITUMBIARA                               75532570GO400850000104489071139220E.02  30012013800UNIBANCO S/A        3005201300000000027450000CC                                                                                                                                                                                                                                                                                                                                                                                                         000009
9000004                                                                                                                                                                                                                                                                                                                                                                                                                                                                                                                                                                                                                                                                                                               000010
