0REMESSANOTIFICACAO ELETRONICA        99999999999999BICBANCO                                AV. PAULISTA                            1048      12.ANDAR  BELA VISTA                    SAO PAULO                     01310100SP1121739360CORTINHAL                               COORDENADOR                             08062012                                                                                                                                                                                                                                                                                                                                                                                      000001
1021420930887COBR_CAUC_COR  DEDINI S/A INDUSTRIAS DE BASE           060329174000124US AC S MANOEL S A                      FAZENDA BOA VISTA, S N ZONA RURAL BR    SAO MANUEL                              18650000SP358300000106335655174350-4-4  16052012900BRADESCO S/A        3006201200000000026370000CC                                                                                                                                                                                                                                                                                                                                                                                                         000002
1021420930887COBR_CAUC_COR  DEDINI S/A INDUSTRIAS DE BASE           060329174000124US AC S MANOEL S A                      FAZENDA BOA VISTA, S N ZONA RURAL BR    SAO MANUEL                              18650000SP358300000206335744174350-5-5  05062012900BRADESCO S/A        2507201200000000026370000CC                                                                                                                                                                                                                                                                                                                                                                                                         000003
1021420930887COBR_CAUC_BIC  DEDINI S/A INDUSTRIAS DE BASE           061068342000138PRENSAS SCHULER SA                      AV FAGUNDES DE OLIVEIRA, 1515 PIRAPORINHDIADEMA                                 09950904SP35831000010633564732012-1-1   05062012038ABC                 2206201200000000010685800CC                                                                                                                                                                                                                                                                                                                                                                                                         000004
1007421053971COBR_CAUC_BIC  VIDA ALIMENTOS LTDA                     011457034000126GOOD MEAL COM E TRANSP DE PROD ALI      RUA ARARIPE, 206                        SAO PAULO                               03215010SP3583200001012687740004546901  04062012007PAULISTA            2806201200000000015180000CC                                                                                                                                                                                                                                                                                                                                                                                                         000005
9000003                                                                                                                                                                                                                                                                                                                                                                                                                                                                                                                                                                                                                                                                                                               000006
