0REMESSANOTIFICACAO ELETRONICA        99999999999999BICBANCO                                AV. PAULISTA                            1048      12.ANDAR  BELA VISTA                    SAO PAULO                     01310100SP1121739360CORTINHAL                               COORDENADOR                             18062012                                                                                                                                                                                                                                                                                                                                                                                      000001
1021420930887COBR_CAUC_COR  DEDINI S/A INDUSTRIAS DE BASE           010803815001134USINA PUMATY SA                         FAZENDA PUMATY S N ZONA RURAL ZONA RURALJOAQUIM NABUCO                          55535000PE359750000106336643182013-3-3  12062012900BRADESCO S/A        3010201200000000015173400CC                                                                                                                                                                                                                                                                                                                                                                                                         000002
1021420930887COBR_CAUC_BIC  DEDINI S/A INDUSTRIAS DE BASE           061068342000138PRENSAS SCHULER SA                      AV FAGUNDES DE OLIVEIRA, 1515 PIRAPORINHDIADEMA                                 09950904SP35976000010633642232110-1-1   14062012038ABC                 3006201200000000010524200CC                                                                                                                                                                                                                                                                                                                                                                                                         000003
1038421011812COBR_CAUC_BIC  ENERGY COML IMPORT E EXPORT LTDA        009260011000185MM COMERCIO DE PLASTICOS LTDA           AV. PRESIDENTE WILSON,5700-E            SAO PAULO                               04220001SP3597700001096669048088B       12062012007PAULISTA            1207201200000000030000000CC                                                                                                                                                                                                                                                                                                                                                                                                         000004
1007421034080COBR_CAUC_COR  SIDMEX INTERNACIONAL LTDA               012812360000177CAPRION COMERCIO DE PRODUTOS TEXTE      MINISTRO VICTOR KONDER,840-SALA 01      ITAJAI                                  88301701SP359780000101285563534.12      15062012900BRADESCO S/A        2806201200000000011137526CC                                                                                                                                                                                                                                                                                                                                                                                                         000005
9000004                                                                                                                                                                                                                                                                                                                                                                                                                                                                                                                                                                                                                                                                                                               000006
