0REMESSANOTIFICACAO ELETRONICA        99999999999999BICBANCO                                AV. PAULISTA                            1048      12.ANDAR  BELA VISTA                    SAO PAULO                     01310100SP1121739360CORTINHAL                               COORDENADOR                             27032013                                                                                                                                                                                                                                                                                                                                                                                      000001
1029421015592DIR_CREDIT     CEDI SERVICOS POR IMAGENS LTDA          073717639000166PRO SALUTE SERVICOS PARA SAUDE LTDA     RUA FEIJO JR, 778                       CAXIAS DO SUL                           95034160RS4108600001                                                                                                                                          012191146           290220120000020844            26032013000403prestacao de serviços na especialidade de diagnóstico por imagem reali zando exames de radiologia e ultrassonografia pela contratada aos beneficiáriosintegrantes dos planos privados de assistência e saúde.                                   004227190000135              000002
1019421003040DIR_CREDIT     ERNANI GOMES BRANDAO                    041657081000184EMPRESA TRANSP E TRANSITO BH SA BHTRANS RUA ENGENHEIRO CARLOS GOULART, 900      BELO HORIZONTE                          30455700MG4108800001                                                                                                                                          000959974           260720010000002009            30082010003307PERMISSAO PARA EXECUCAO DO SERVICO PUBLICO DE TRANSPORTE SUPLEMENTAR DEPASSAGEIROS NO MUNICIPIO DE BELO HORIZONTE - STSP                                                                                                                        296180536000087              000003
1020421002020COBR_CAUC_COR  GRABER SISTEMAS DE SEGURANCA LTDA       003480244000107CONDOMINIO ORDINARIO DO NOVO S          AV PRESIDENTE KENNEDY, 1500 - JD PRESIDERIBEIRAO PRETO                          14096350SP410760000100005073000005154A  25032013900BRADESCO S/A        0604201300000000016239189CC                                                                                                                                                                                                                                                                                                                                                                                                         000004
1020421002020COBR_CAUC_COR  GRABER SISTEMAS DE SEGURANCA LTDA       003480244000107CONDOMINIO ORDINARIO DO NOVO S          AV PRESIDENTE KENNEDY, 1500 - JD PRESIDERIBEIRAO PRETO                          14096350SP410760000200005081000005154B  25032013900BRADESCO S/A        2004201300000000011065128CC                                                                                                                                                                                                                                                                                                                                                                                                         000005
1019421010259COBR_CAUC_BIC  L & S INTERBANK FOMENTO LTDA            002615943000154ORTENG SPE PROJETOS E MONTAGENS LT      R ARARAQUARA 175                        CONTAGEM                                32372020MG41079000010670112115707-3     26032013019BELO HORIZONTE      2605201300000000012804958CC                                                                                                                                                                                                                                                                                                                                                                                                         000006
1038421002945COBR_CAUC_BIC  NEOLIDER COM.IMP.E EXP.DE ACOS LTDA     060882628001323CONFAB INDUSTRIAL SA                    R DR GONZAGA,SN                         PINDAMONHANGABA                         12440900SP410770000100066076051846/     26032013007PAULISTA            2504201300000000014104818CC                                                                                                                                                                                                                                                                                                                                                                                                         000007
1007421032516COBR_CAUC_BIC  NITRIFLEX SP IND E COM DE BORRACHAS     000026910000143SWEETMIX IND COM IMP EXP LTDA           ALAMEDA CACAPAVA, 60                    SOROCABA                                18085250SP410780000101799460001424401   25032013007PAULISTA            0605201300000000011860108CC                                                                                                                                                                                                                                                                                                                                                                                                         000008
1007421032516COBR_CAUC_BIC  NITRIFLEX SP IND E COM DE BORRACHAS     000026910000143SWEETMIX IND COM IMP EXP LTDA           ALAMEDA CACAPAVA, 60                    SOROCABA                                18085250SP410780000201799478001424402   25032013007PAULISTA            1305201300000000011860108CC                                                                                                                                                                                                                                                                                                                                                                                                         000009
1009140510846COBR_CAUC_BIC  SA CORREIO BRAZILIENSE                  000584755000180VIA ENGENHARIA S/A                      SIA TRECHO 03 LOTES 1705/1715           GUARA                                   71200030DF410740000106798262456580      25032013009BRASILIA            3004201300000000073000000TD                                                                                                                                                                                                                                                                                                                                                                                                         000010
1009140510846COBR_CAUC_BIC  SA CORREIO BRAZILIENSE                  017262213010319CONSTRUTORA ANDRADE GUTIERREZ S/A       SHIS QL 14 CONJ 08 CASA 17              LAGO SUL                                71640085DF410750000106798254456581      25032013009BRASILIA            3004201300000000073619213TD                                                                                                                                                                                                                                                                                                                                                                                                         000011
1036420930044DIR_CREDIT     USINAS ITAMARATI S/A                    003559491000101INDUSTRIA E COMERCIO DE BEBIDAS MDM LTDAR RAIMUNDO CANTUÁRIA 7761               PORTO VELHO                             76824629RO4108100001                                                                                                                                          011803438           010320120000021034            20032013000403Venda pela Promitente Vendedora a Compromissária Compradora de 7.200   toneladas métricas líquidas de açúcar cristal da safra 2013/2014 acondicionadosem sacos de polipropíleno com 50 Kg de capacidade cada.                                   015009178000170              000012
9000009                                                                                                                                                                                                                                                                                                                                                                                                                                                                                                                                                                                                                                                                                                               000013
