0REMESSANOTIFICACAO ELETRONICA        99999999999999BICBANCO                                AV. PAULISTA                            1048      12.ANDAR  BELA VISTA                    SAO PAULO                     01310100SP1121739360CORTINHAL                               COORDENADOR                             11072011                                                                                                                                                                                                                                                                                                                                                                                      000001
1047421000232COBR_CAUC_BIC  JOFER EMBALAGENS LTDA.                  000190373000172IND. E COM. DE COSMETICOS NATURA L      LAMEDA JURUA, 253                       BARUERI                                 06455010SP2893100001009761790021794     07072011007PAULISTA            2009201100000000032367000CC                                                                                                                                                                                                                                                                                                                                                                                                         000002
1009420930764COBR_CAUC_BIC  S/A CORREIO BRAZILIENSE                 061695227000193ELETROPAULO METROPOLITANA ELETR.SP      R LOURENCO MARQUES 158 VILA OLMPIA      SAO PAULO                               04547100SP289320000101355087416276-1    06072011007PAULISTA            3007201100000000012730973CC                                                                                                                                                                                                                                                                                                                                                                                                         000003
1021420930887COBR_CAUC_COR  DEDINI S/A INDUSTRIAS DE BASE           048295562001450USINA ALTO ALEGRE S A - ACUCAR E A      RUA JOSE LEITE, 40                      PRESIDENTE PRUD                         19050910SP289330000106171466154063-1-1  07072011900BRADESCO S/A        3007201100000000016799316CC                                                                                                                                                                                                                                                                                                                                                                                                         000004
1021420930887COBR_CAUC_COR  DEDINI S/A INDUSTRIAS DE BASE           048295562001450USINA ALTO ALEGRE S A - ACUCAR E A      RUA JOSE LEITE, 40                      PRESIDENTE PRUD                         19050910SP289330000206171491154061-1-1  07072011900BRADESCO S/A        3007201100000000011755644CC                                                                                                                                                                                                                                                                                                                                                                                                         000005
1021420930887COBR_CAUC_COR  DEDINI S/A INDUSTRIAS DE BASE           048295562001450USINA ALTO ALEGRE S A - ACUCAR E A      RUA JOSE LEITE, 40                      PRESIDENTE PRUD                         19050910SP289330000306171504154058-1-1  07072011900BRADESCO S/A        3007201100000000011263848CC                                                                                                                                                                                                                                                                                                                                                                                                         000006
1048421000613COBR_CAUC_BIC  TRIANGULO ALIMENTOS LTDA                004182260000186BIOVERDE INDUSTRIA E COMERCIO DE B      R IRMAOS ALBERNAZ                       TAUBATE                                 12050190SP2893400001003984020001855121  06072011007PAULISTA            1509201100000000019440000CC                                                                                                                                                                                                                                                                                                                                                                                                         000007
1014421011391COBR_CAUC_BIC  CENTRAL NACIONAL DE PRODUCOES LTDA      002415583000147IGREJA MUNDIAL DO PODER DE DEUS         R.CARNEIRO DE LEAO, 439                 SAO PAULO                               03015000SP2893500001044544751522/A      01072011007PAULISTA            1311201100000000050000000CC                                                                                                                                                                                                                                                                                                                                                                                                         000008
1016421006424COBR_CAUC_BIC  BOUTIN FERTILIZANTES LTDA               008188977000196SUL RURAL COM DE INS AGRICOLAS          AV BRASILIA,10000-BOX 20201 2021        LONDRINA                                86031770PR28936000010311462517362       27062011031LONDRINA            3001201200000000028416000CC                                                                                                                                                                                                                                                                                                                                                                                                         000009
1015421019587COBR_CAUC_BIC  SOCIEDADE GERAL DE EMPREITADAS LTDA     088074364000167ICCILA IND E COM E CONSTRUÇÕES IBA      JULIO DE CASTILHOS,448-SALA201          ESTRELA                                 95880000RS2893700001008685701100        04072011015PORTO ALEGRE        0409201100000000034152723CC                                                                                                                                                                                                                                                                                                                                                                                                         000010
1024421007416COBR_CAUC_BIC  ATLAS AGROINDUSTRIAL LTDA               007037802000115BOAV ALIMENTOS LTDA                     EST VICINAL CASA BRANCA KM 8            CASA BRANCA                             13700000SP2893800001019052495559        07072011024CUIABA              1108201100000000010443333CC                                                                                                                                                                                                                                                                                                                                                                                                         000011
1024421007416COBR_CAUC_BIC  ATLAS AGROINDUSTRIAL LTDA               007037802000115BOAV ALIMENTOS LTDA                     EST VICINAL CASA BRANCA KM 8            CASA BRANCA                             13700000SP2893800002019052735562        07072011024CUIABA              1708201100000000010443333CC                                                                                                                                                                                                                                                                                                                                                                                                         000012
1044421011590DIR_CREDIT     JMT SERVICOS E LOCACAO DE MAO DE OB     008109126000100PM DE CURRAIS NOVOS                     PCA DESEMBARGADOR TOMAZ SALUSTINO,90    NATAL                                   59000000RN2896200001                                                                                                                                          001090542           240820090000012577S/N         07052010003307prestação de serviços de locação de veiculos, maquinas e equipamentos, para limpeza urbana e coleta de lixo no municipio de currais novos/rn.                                                                                                   007442731000136              000013
9000009                                                                                                                                                                                                                                                                                                                                                                                                                                                                                                                                                                                                                                                                                                               000014
