0REMESSANOTIFICACAO ELETRONICA        99999999999999BICBANCO                                AV. PAULISTA                            1048      12.ANDAR  BELA VISTA                    SAO PAULO                     01310100SP1121739360CORTINHAL                               COORDENADOR                             12122013                                                                                                                                                                                                                                                                                                                                                                                      000001
1009421012831COBR_CAUC_COR  ASA ALIMENTOS S/A                       076111335000149GRANJA ECONOMICA AVICOLA LTDA           RUA CATANDUVAS, 333                     CARAMBEI                                84145000PR4563200001001493940045210     11122013900BRADESCO S/A        0801201400000000012600000CC                                                                                                                                                                                                                                                                                                                                                                                                         000002
1018421005230COBR_CAUC_COR  CENTROALCOOL S/A                        004930779000103SR DISTRIBUIDORA DE PETROLEO LTDA       AV.NITERIOI C/COPAC Q.04L.R1/1          SENADOR CANEDO                          75250000GO45636000010351709149295/AD    31072013800UNIBANCO S/A        1905201400000000026125000CC                                                                                                                                                                                                                                                                                                                                                                                                         000003
1010421001500COBR_CAUC_COR  FEDERAL DIST DE PETROLEO LTDA           001241994000443TOTAL DISTRIBUIDORA S/A                 V MADRE DE DEUS SN                      SAO FRANCISCO D                         43900000BA45637000010122741844797       11122013900BRADESCO S/A        1712201300000000020306590CC                                                                                                                                                                                                                                                                                                                                                                                                         000004
1048421003043COBR_CAUC_COR  FRIGOL S.A. EM RECUPERACAO JUDICIAL     010700821000194RAIMUNDO NONATO BANDEIRA E SILVA        RUA BELA VISTA, 05                      NATAL                                   59060190RN45640000010006117300030527-1  11122013900BRADESCO S/A        1501201400000000010371942CC                                                                                                                                                                                                                                                                                                                                                                                                         000005
1016421008591COBR_CAUC_BIC  GLOBOAVES SAO PAULO AGROAVICOLA LTD     083044016000980TYSON DO BRASIL ALIMENTOS LTDA          ROD BR 487 ESTR BOIADEIRA KM 185,0      CAMPO MOURAO                            87305380PR456380000104222847111049      10122013016CURITIBA            0701201400000000011681600CC                                                                                                                                                                                                                                                                                                                                                                                                         000006
1028421002921COBR_CAUC_COR  MATABOI ALIMENTOS S/A - EM REC.JUD.     004149637001509ADICAO DISTRIBUICAO EXPRESS LTDA        R  TOMAZ GONZAGA, 263                   DIVINOPOLIS                             35500437MG4563400001004704520036519801  10122013900BRADESCO S/A        0701201400000000032304372CC                                                                                                                                                                                                                                                                                                                                                                                                         000007
1028421002921COBR_CAUC_COR  MATABOI ALIMENTOS S/A - EM REC.JUD.     007757460000108INDUSTRIA DE ALIMENTOS PEDRA PRETA      RUA REGINA BRUM CORREIA , 1435          PORCIUNCULA                             28390000RJ4563500001004694380000286801  10122013900BRADESCO S/A        0701201400000000012131488CC                                                                                                                                                                                                                                                                                                                                                                                                         000008
1007421055095COBR_CAUC_COR  PLASTER IND COM RESINAS PLAS EIRELI     060394723000659DIXIE TOGA S/A                          AV. JAZIEL DE AZEVEDO RIBEIRO,1722      VOTORANTIM                              18112625SP456390000100017611038303/A    10122013900BRADESCO S/A        2901201400000000016159500CC                                                                                                                                                                                                                                                                                                                                                                                                         000009
1028421008601COBR_CAUC_COR  TERRENA AGRONEGOCIOS LTDA               000001314181653OSMAR FERNANDES                         AV. RUI BARBOSA                    1860 PATROCINIO                              38740000MG4563300001029736560007767701  17102013800UNIBANCO S/A        2802201400000000010660000CC                                                                                                                                                                                                                                                                                                                                                                                                         000010
9000009                                                                                                                                                                                                                                                                                                                                                                                                                                                                                                                                                                                                                                                                                                               000011
