0REMESSANOTIFICACAO ELETRONICA        99999999999999BICBANCO                                AV. PAULISTA                            1048      12.ANDAR  BELA VISTA                    SAO PAULO                     01310100SP1121739360CORTINHAL                               COORDENADOR                             02102013                                                                                                                                                                                                                                                                                                                                                                                      000001
1015421021867COBR_CAUC_COR  COTRIJUI COOP AGROP & INDUSTRIAL        008474030000141MEDEIROS FRIOS E CONGELADOS LTDA-       RUA DIAS CARNEIRO 1977                  BACABAL                                 65700000MA444740000100114583164298-1    30092013900BRADESCO S/A        1410201300000000010785000CC                                                                                                                                                                                                                                                                                                                                                                                                         000002
1021420930887COBR_CAUC_COR  DEDINI S/A INDUSTRIAS DE BASE           047254396000167J PILON S A AC E ALC                    FAZ SANTA MARIA, CX. P. 19, S N SAO FRANCERQUILHO                               18520000SP444660000106451973229680-3-3  30092013900BRADESCO S/A        1612201300000000013058813CC                                                                                                                                                                                                                                                                                                                                                                                                         000003
1021420930887COBR_CAUC_COR  DEDINI S/A INDUSTRIAS DE BASE           075717355001177USINA DE ACUCAR SANTA TEREZINHA LT      AV MARCELO MESSIAS BUSIQUIA 847 PQ INDUSMARINGA                                 87065006PR444680000106452015228301-5-5  30092013900BRADESCO S/A        3012201300000000019211835CC                                                                                                                                                                                                                                                                                                                                                                                                         000004
1021420930887COBR_CAUC_COR  DEDINI S/A INDUSTRIAS DE BASE           075717355001177USINA DE ACUCAR SANTA TEREZINHA LT      AV MARCELO MESSIAS BUSIQUIA 847 PQ INDUSMARINGA                                 87065006PR444680000206452023228300-5-5  30092013900BRADESCO S/A        3012201300000000014856866CC                                                                                                                                                                                                                                                                                                                                                                                                         000005
1021420930887COBR_CAUC_COR  DEDINI S/A INDUSTRIAS DE BASE           075717355001177USINA DE ACUCAR SANTA TEREZINHA LT      AV MARCELO MESSIAS BUSIQUIA 847 PQ INDUSMARINGA                                 87065006PR444680000306452058228241-5-5  30092013900BRADESCO S/A        3012201300000000010602131CC                                                                                                                                                                                                                                                                                                                                                                                                         000006
1021420930887COBR_CAUC_COR  DEDINI S/A INDUSTRIAS DE BASE           054846951000105FERRARI AGROINDUSTRIA S A               LOC FAZENDA DA ROCHA, S N RURAL BR      PIRASSUNUNGA                            13631301SP444670000106451965232259-2-2  30092013900BRADESCO S/A        2911201300000000013000000CC                                                                                                                                                                                                                                                                                                                                                                                                         000007
1014420939021COBR_CAUC_COR  EDITORA O DIA S/A                       010554856000162SAERJ SUPERMERCADOS ASSOC. ESTADO       RUA DA CEVADA 93 SALA 508               RIO DE JANEIRO                          21011080RJ4447100001025365980696070     16082013900BRADESCO S/A        2011201300000000011500000CC                                                                                                                                                                                                                                                                                                                                                                                                         000008
1014420939021COBR_CAUC_COR  EDITORA O DIA S/A                       033041260065290VIA VAREJO S/A                          PREFEITO DULCIDIO CARDOSO, 2000         RIO DE JANEIRO                          22640085RJ4447200001025373060700078     30092013900BRADESCO S/A        2010201300000000011425625CC                                                                                                                                                                                                                                                                                                                                                                                                         000009
1048421000338COBR_CAUC_COR  FRIGOESTRELA S.A. EM RECUP JUDICIAL     050947761001871IRMAOS RUSSI LTDA                       RUA LUIS ALLI FARDYN SALA 03, 590       CAJAMAR                                 07750000SP4447300001062381480030600601  30092013900BRADESCO S/A        0511201300000000010543380CC                                                                                                                                                                                                                                                                                                                                                                                                         000010
1028421002921COBR_CAUC_COR  MATABOI ALIMENTOS S/A - EM REC.JUD.     017745613000150SUPERMERCADO BAHAMAS LTDA               ROD BR-040 780KM                        JUIZ DE FORA                            36092005MG4446500001004287580034751501  28092013900BRADESCO S/A        2810201300000000028222814CC                                                                                                                                                                                                                                                                                                                                                                                                         000011
1041421002694COBR_CAUC_COR  MEGA FIOS LTDA                          007049976000440J GONCALVES DOS SANTOS FILHO E CIA      AV. GUJAJARAS 416                       SAO LUIS                                65055285MA44475000010062404728536 13    30092013900BRADESCO S/A        3010201300000000014336425CC                                                                                                                                                                                                                                                                                                                                                                                                         000012
1041421002694COBR_CAUC_COR  MEGA FIOS LTDA                          007049976000440J GONCALVES DOS SANTOS FILHO E CIA      AV. GUJAJARAS 416                       SAO LUIS                                65055285MA44475000020062405528536 23    30092013900BRADESCO S/A        2911201300000000014336425CC                                                                                                                                                                                                                                                                                                                                                                                                         000013
1041421002694COBR_CAUC_COR  MEGA FIOS LTDA                          007049976000440J GONCALVES DOS SANTOS FILHO E CIA      AV. GUJAJARAS 416                       SAO LUIS                                65055285MA44475000030062406328536 33    30092013900BRADESCO S/A        3012201300000000014340725CC                                                                                                                                                                                                                                                                                                                                                                                                         000014
1015421010253COBR_CAUC_BIC  MUNDIAL S/A PRODUTOS DE CONSUMO         050306471000109ETILUX INDUSTRIA E COMERCIO LTDA        RUA AMADEU POLI 940                     SAO PAULO                               02188020SP4446900001011258055600458502  30092013007PAULISTA            2401201400000000010651104CC                                                                                                                                                                                                                                                                                                                                                                                                         000015
1050421001786COBR_CAUC_COR  SINETEL ENGENHARIA E COMERCIO LTDA      010538893000187SERVIMIX TECNOLOGIA E MEIO AMB LTD      RUA DECIMA PRIMEIRA,270                 ANANINDEUA                              67020340PA44476000010001325024458       01102013900BRADESCO S/A        0111201300000000010850985CC                                                                                                                                                                                                                                                                                                                                                                                                         000016
1007421056385COBR_CAUC_COR  TERRA NOVA TRADING S/A                  002756348000139KALEFA INDUSTRIA E COMERCIO DE PES      RUA DAS ARARAS, ,209                    CARAPICUIBA                             06340200SP444700000100001570TS10797-00  01102013900BRADESCO S/A        3010201300000000015437991CC                                                                                                                                                                                                                                                                                                                                                                                                         000017
9000012                                                                                                                                                                                                                                                                                                                                                                                                                                                                                                                                                                                                                                                                                                               000018
