0REMESSANOTIFICACAO ELETRONICA        99999999999999BICBANCO                                AV. PAULISTA                            1048      12.ANDAR  BELA VISTA                    SAO PAULO                     01310100SP1121739360CORTINHAL                               COORDENADOR                             04032013                                                                                                                                                                                                                                                                                                                                                                                      000001
1031421007850COBR_CAUC_BIC  AGRICOLA JANDELLE S/A                   010319375000172MULTI FORMATO DISTRIBUIDORA SOCIED      AVENIDA MANOEL JACINTO COELHO JUNIOR 901CONTAGEM                                32150245MG4068500001051857320011140701  01032013019BELO HORIZONTE      1004201300000000017029537CC                                                                                                                                                                                                                                                                                                                                                                                                         000002
1021420930887COBR_CAUC_BIC  DEDINI S/A INDUSTRIAS DE BASE           075717355001177USINA DE ACUCAR SANTA TEREZINHA LT      AV MARCELO MESSIAS BUSIQUIA 847 PQ INDUSMARINGA                                 87065006PR406830000106382297188771-8-8  25022013016CURITIBA            3003201300000000015758942CC                                                                                                                                                                                                                                                                                                                                                                                                         000003
1021420930887COBR_CAUC_BIC  DEDINI S/A INDUSTRIAS DE BASE           075717355001177USINA DE ACUCAR SANTA TEREZINHA LT      AV MARCELO MESSIAS BUSIQUIA 847 PQ INDUSMARINGA                                 87065006PR406830000206382335188352-8-8  25022013016CURITIBA            3003201300000000025367451CC                                                                                                                                                                                                                                                                                                                                                                                                         000004
1021420930887COBR_CAUC_BIC  DEDINI S/A INDUSTRIAS DE BASE           075717355001177USINA DE ACUCAR SANTA TEREZINHA LT      AV MARCELO MESSIAS BUSIQUIA 847 PQ INDUSMARINGA                                 87065006PR406830000306382378188612-8-8  25022013016CURITIBA            3003201300000000020565725CC                                                                                                                                                                                                                                                                                                                                                                                                         000005
1021420930887COBR_CAUC_BIC  DEDINI S/A INDUSTRIAS DE BASE           075717355001177USINA DE ACUCAR SANTA TEREZINHA LT      AV MARCELO MESSIAS BUSIQUIA 847 PQ INDUSMARINGA                                 87065006PR406830000406382416189295-8-8  25022013016CURITIBA            3003201300000000016193952CC                                                                                                                                                                                                                                                                                                                                                                                                         000006
1021420930887COBR_CAUC_BIC  DEDINI S/A INDUSTRIAS DE BASE           075717355001177USINA DE ACUCAR SANTA TEREZINHA LT      AV MARCELO MESSIAS BUSIQUIA 847 PQ INDUSMARINGA                                 87065006PR406830000506382424188231-8-8  25022013016CURITIBA            3003201300000000013653133CC                                                                                                                                                                                                                                                                                                                                                                                                         000007
1008421022487COBR_CAUC_COR  EBP - EMPRESA BRASILEIRA DE PESCADO     033304981000110SUPERMERCADOS MUNDIAL LTDA              RUA  DONA EMILIA, 2                     RIO DE JANEIRO                          20765110RJ406880000101578491000017435/  28022013900BRADESCO S/A        2003201300000000031850000CC                                                                                                                                                                                                                                                                                                                                                                                                         000008
1008421022487COBR_CAUC_COR  EBP - EMPRESA BRASILEIRA DE PESCADO     033304981000110SUPERMERCADOS MUNDIAL LTDA              RUA  DONA EMILIA, 2                     RIO DE JANEIRO                          20765110RJ406880000201578521000017447/  28022013900BRADESCO S/A        2903201300000000040435200CC                                                                                                                                                                                                                                                                                                                                                                                                         000009
1008421022487COBR_CAUC_COR  EBP - EMPRESA BRASILEIRA DE PESCADO     033381286000151SUPER MERCADO ZONA SUL S/A              RUA COMANDANTE VERGUEIRO DA CRUZ, 226   RIO DE JANEIRO                          21021020RJ406890000101578733000017449/  28022013900BRADESCO S/A        2903201300000000020150000CC                                                                                                                                                                                                                                                                                                                                                                                                         000010
1047421000232COBR_CAUC_BIC  JOFER EMBALAGENS LTDA.                  000190373000172IND. E COM. DE COSMETICOS NATURA L      RODOVIA ANHANGUERA,  KM 30,5            CAJAMAR                                 07750000SP406800000101615421004049501   28022013007PAULISTA            2905201300000000011580408CC                                                                                                                                                                                                                                                                                                                                                                                                         000011
1028421002921COBR_CAUC_COR  MATABOI ALIMENTOS S/A - EM REC.JUD.     003481212000126FRIGORIFICO CAMBUI LTDA                 EST MUNICIPAL SNCX. POSTAL 591028421002921COBR_CAUC_COR  MATABOI ALIMENTOS S/A - EM REC.JUD.     004641376007300SUPERMERCADOS BH COMERCIO DE ALIME      AV  GERALDO ROCHA700                    CONTAGEM                                32183054MG4068200001002685810029879601  28022013900BRADESCO S/A        2803201300000000012563547CC                                                                                                                                                                                                                                                                                                                                                                                                         000013
1028421002921COBR_CAUC_COR  MATABOI ALIMENTOS S/A - EM REC.JUD.     004641376007300SUPERMERCADOS BH COMERCIO DE ALIME      AV  GERALDO ROCHA700                    CONTAGEM                                32183054MG4068200002002708010029900701  28022013900BRADESCO S/A        2803201300000000012442543CC                                                                                                                                                                                                                                                                                                                                                                                                         000014
1031421010312COBR_CAUC_BIC  PADO S/A - INDL.COML E IMPORTADORA      017359233000188TECIDOS E ARMARINHOS MIGUEL             VIA. MUN. MANOEL JACINTO COELHO S/N     CONTAGEM                                32060514MG4068400001051865420017684501  27022013019BELO HORIZONTE      0904201300000000016560601CC                                                                                                                                                                                                                                                                                                                                                                                                         000015
1019421014068COBR_CAUC_COR  RIO BRANCO ALIMENTOS S/A                001928075002062DMA DISTRIBUIDORA S/A                   ROD BR 040 KM 531 180                   BELO HORIZONTE                          30855500MG4068600001012279780161905401  01032013900BRADESCO S/A        3103201300000000010464993CC                                                                                                                                                                                                                                                                                                                                                                                                         000016
1007421034080COBR_CAUC_BIC  SIDMEX INTERNACIONAL LTDA               011898766000151INNOVATTO COMERCIO, IMPORTACAO E E      CASA, DOS,4285                          SAO BERNARDO DO                         09840000SP406870000101751971000194      28022013038ABC                 1303201300000000016788239CC                                                                                                                                                                                                                                                                                                                                                                                                         000017
9000010                                                                                                                                                                                                                                                                                                                                                                                                                                                                                                                                                                                                                                                                                                               000018
