0REMESSANOTIFICACAO ELETRONICA        99999999999999BICBANCO                                AV. PAULISTA                            1048      12.ANDAR  BELA VISTA                    SAO PAULO                     01310100SP1121739360CORTINHAL                               COORDENADOR                             26062014                                                                                                                                                                                                                                                                                                                                                                                      000001
1048421002195COBR_CAUC_COR  SERVIMED COMERCIAL LTDA                 054375647003738DROGAL FARMACEUTICA LTDA                AV DR CASSIO P PADOVANI 1910            PIRACICABA                              13405190SP482640000102099623435613  22  24062014900BRADESCO S/A        2907201400000000024037267CC                                                                                                                                                                                                                                                                                                                                                                                                         000002
1021421017050COBR_CAUC_BIC  STAR DISTR PROD FARMACEUTICOS LTDA      061585865073701RAIA DROGASIL S/A                       RUA PATAXOS , 1412                      EMBU                                    06833073SP4826500001000025060000346301  25062014007PAULISTA            0907201400000000018526937CC                                                                                                                                                                                                                                                                                                                                                                                                         000003
1021421017050COBR_CAUC_BIC  STAR DISTR PROD FARMACEUTICOS LTDA      061585865073701RAIA DROGASIL S/A                       RUA PATAXOS , 1412                      EMBU                                    06833073SP4826500002000025220000346501  25062014007PAULISTA            0907201400000000036244581CC                                                                                                                                                                                                                                                                                                                                                                                                         000004
1021421017050COBR_CAUC_BIC  STAR DISTR PROD FARMACEUTICOS LTDA      061585865073701RAIA DROGASIL S/A                       RUA PATAXOS , 1412                      EMBU                                    06833073SP4826500003000025490000346701  25062014007PAULISTA            0907201400000000011538513CC                                                                                                                                                                                                                                                                                                                                                                                                         000005
9000002                                                                                                                                                                                                                                                                                                                                                                                                                                                                                                                                                                                                                                                                                                               000006
