0REMESSANOTIFICACAO ELETRONICA        99999999999999BICBANCO                                AV. PAULISTA                            1048      12.ANDAR  BELA VISTA                    SAO PAULO                     01310100SP1121739360CORTINHAL                               COORDENADOR                             24092014                                                                                                                                                                                                                                                                                                                                                                                      000001
1016421001333COBR_CAUC_BIC  CONDUSPAR CONDUTORES ELETRICOS LTDA     089530174000170MARCO PROJETOS E CONSTRUCOES LTDA       R DONA LEOPOLDINA 256                   PORTO ALEGRE                            90550130RS4978500001046272603124490001  18092014015PORTO ALEGRE        1810201400000000010537998CC                                                                                                                                                                                                                                                                                                                                                                                                         000002
1048421000338COBR_CAUC_COR  FRIGOESTRELA S A  EM RECUP JUDICIAL     023439441001323ARMAZEM MATEUS S.A.                     AV ENGENHEIRO EMILIANO MACIEIRA DE      SAO LUIS                                65095602MA4978600001086999910117421101  20092014900BRADESCO S/A        2010201400000000017128380CC                                                                                                                                                                                                                                                                                                                                                                                                         000003
1021421017050COBR_CAUC_BIC  STAR DISTR PROD FARMACEUTICOS LTDA      061585865046305RAIA DROGASIL S/A                       AVENIDA ELMAR ARANTES CABRAL LTS 01/06 EAPARECIDA DE GO                         74993535GO4978700001000054160000553201  22092014018GOIANIA             1310201400000000017109678CC                                                                                                                                                                                                                                                                                                                                                                                                         000004
9000003                                                                                                                                                                                                                                                                                                                                                                                                                                                                                                                                                                                                                                                                                                               000005
