0REMESSANOTIFICACAO ELETRONICA        99999999999999BICBANCO                                AV. PAULISTA                            1048      12.ANDAR  BELA VISTA                    SAO PAULO                     01310100SP1121739360CORTINHAL                               COORDENADOR                             04012012                                                                                                                                                                                                                                                                                                                                                                                      000001
1007421027229COBR_CAUC_COR  ARFRIO S/A ARM GERAIS FRIGORIFICO       068090240000168MCCAIN DO BRASIL ALIMENTOS LTDA         R. OLIMPIADAS,100                       SAO PAULO                               04551000SP33144000010002758710785       03012012900BRADESCO S/A        1001201200000000013902369CC                                                                                                                                                                                                                                                                                                                                                                                                         000002
1007421053971COBR_CAUC_BIC  VIDA ALIMENTOS LTDA                     011457034000126GOOD MEAL COM E TRANSP DE PROD ALI      RUA ARARIPE, 206                        SAO PAULO                               03215010SP33145000010100692300038665 2  03012012007PAULISTA            2001201200000000011809000CC                                                                                                                                                                                                                                                                                                                                                                                                         000003
1050421000089COBR_CAUC_COR  ATIVO ALIMENTOS LTDA                    012023966003734BONANZA SUPERMERCADOS LTDA              ROD BR-232 KM137 CAMARAS 03 E 04 S/N 0  CARUARU                                 55034640PE331460000100301638119406/1    02012012800UNIBANCO S/A        0102201200000000016073461CC                                                                                                                                                                                                                                                                                                                                                                                                         000004
1018421008698COBR_CAUC_BIC  SCI-TECH PRODUTOS MEDICOS LTDA          001067064000172INST. MATERNO INFAN. DE MINAS GERA      AV DA SERRA , 499                       NOVA LIMA                               34000000MG331470000102572528000007730   29122011019BELO HORIZONTE      2703201200000000010987500CC                                                                                                                                                                                                                                                                                                                                                                                                         000005
1016421008591COBR_CAUC_BIC  GLOBOAVES SAO PAULO AGROAVICOLA LTD     061752739000144FRIGORIFICO PRIETO LTDA                 AV VER JOAQUIM P BARBOSA,777            CAJAMAR                                 07760000SP331480000103280291074696      30122011021CAMPINAS            2901201200000000011336013CC                                                                                                                                                                                                                                                                                                                                                                                                         000006
1024421007416COBR_CAUC_BIC  ATLAS AGROINDUSTRIAL LTDA               010932276000161BSBIOS MAR IND E COM BIOD SUL BRAS      EST FRUTEIRA LOT 212 A 212 B            MARIALVA                                86990000PR331490000101954053028642      03012012016CURITIBA            1403201200000000012042000CC                                                                                                                                                                                                                                                                                                                                                                                                         000007
1024421007416COBR_CAUC_BIC  ATLAS AGROINDUSTRIAL LTDA               010932276000161BSBIOS MAR IND E COM BIOD SUL BRAS      EST FRUTEIRA LOT 212 A 212 B            MARIALVA                                86990000PR331490000201954061028647      03012012016CURITIBA            1603201200000000012042000CC                                                                                                                                                                                                                                                                                                                                                                                                         000008
1032421020898COBR_CAUC_BIC  CISABRASILE LTDA                        017513235000260ASSOCIACAO MARIO PENNA                  RUA GENTIOS,1350                        BELO HORIZONTE                          30380490MG33150000010017187690007423/0  03012012019BELO HORIZONTE      1901201200000000019189120CC                                                                                                                                                                                                                                                                                                                                                                                                         000009
1050421000445COBR_CAUC_COR  GOIAS SERVICOS DE CONCRETAGEM LTDA      002249970000150LC COSTA ENGENHARIA LTDA                RUA FRANCISCO FERREIRA DA CRU,3700      FAZ. RIO GRANDE                         83820293PR331510000100000441NF 471      03012012900BRADESCO S/A        2901201200000000016359055CC                                                                                                                                                                                                                                                                                                                                                                                                         000010
9000008                                                                                                                                                                                                                                                                                                                                                                                                                                                                                                                                                                                                                                                                                                               000011
