0REMESSANOTIFICACAO ELETRONICA        99999999999999BICBANCO                                AV. PAULISTA                            1048      12.ANDAR  BELA VISTA                    SAO PAULO                     01310100SP1121739360CORTINHAL                               COORDENADOR                             20122011                                                                                                                                                                                                                                                                                                                                                                                      000001
1021420930887COBR_CAUC_BIC  DEDINI S/A INDUSTRIAS DE BASE           061068342000138PRENSAS SCHULER SA                      AV FAGUNDES DE OLIVEIRA PIRAPORINHA BR  DIADEMA                                 09950904SP32633000010626394826524-1-1   16122011038ABC                 0301201200000000010269480CC                                                                                                                                                                                                                                                                                                                                                                                                         000002
1021420930887COBR_CAUC_BIC  DEDINI S/A INDUSTRIAS DE BASE           061068342000138PRENSAS SCHULER SA                      AV FAGUNDES DE OLIVEIRA PIRAPORINHA BR  DIADEMA                                 09950904SP32633000020626395626520-1-1   16122011038ABC                 1301201200000000010863760CC                                                                                                                                                                                                                                                                                                                                                                                                         000003
1050421000089COBR_CAUC_COR  ATIVO ALIMENTOS LTDA                    012023966003734BONANZA SUPERMERCADOS LTDA              ROD BR-232 KM137 CAMARAS 03 E 04 S/N 0  CARUARU                                 55034640PE326340000100298904117678/1    17122011800UNIBANCO S/A        1601201200000000019067914CC                                                                                                                                                                                                                                                                                                                                                                                                         000004
9000002                                                                                                                                                                                                                                                                                                                                                                                                                                                                                                                                                                                                                                                                                                               000005
