0REMESSANOTIFICACAO ELETRONICA        99999999999999BICBANCO                                AV. PAULISTA                            1048      12.ANDAR  BELA VISTA                    SAO PAULO                     01310100SP1121739360CORTINHAL                               COORDENADOR                             29042014                                                                                                                                                                                                                                                                                                                                                                                      000001
1009421012831COBR_CAUC_COR  ASA ALIMENTOS S/A                       000083809899615VALDIR VAGNER FERREIRA E OUTROS         ROD BR 262, SN KM 426                   IGARATINGA                              35695000MG4734200001001506600049325     25042014900BRADESCO S/A        3004201400000000011349986CC                                                                                                                                                                                                                                                                                                                                                                                                         000002
1048421002195COBR_CAUC_COR  SERVIMED COMERCIAL LTDA                 003803500000150COOP DE USUARIOS DE ASSIT MEDI          R INDEPENDENCIA 4004                    SAO JOSE DO RIO                         15084110SP473430000101917144843159  21  25042014900BRADESCO S/A        2406201400000000014799618CC                                                                                                                                                                                                                                                                                                                                                                                                         000003
1046421001443COBR_CAUC_COR  COSTAO DO SANTINHO TUR E LAZER LTDA     010614426000199LUZ FRANQUIAS SA                        RUA AMAZONAS, ,594-3O ANDAR             BARUERI                                 06454070SP473440000100013912210981      24042014900BRADESCO S/A        1205201400000000011019055CC                                                                                                                                                                                                                                                                                                                                                                                                         000004
1028421001518COBR_CAUC_COR  GAIA AGRIBUSINESS AGRICOLA LTDA         000013370626187JOAO DIOGENES RODRIGUES CASTILHO        RUA MARANHAO,935                        GOIATUBA                                75600000GO47345000010299505653721       28042014900BRADESCO S/A        2509201400000000019884000CC                                                                                                                                                                                                                                                                                                                                                                                                         000005
1028421001518COBR_CAUC_COR  GAIA AGRIBUSINESS AGRICOLA LTDA         000013370626187JOAO DIOGENES RODRIGUES CASTILHO        RUA MARANHAO,935                        GOIATUBA                                75600000GO47345000020299506453722       28042014900BRADESCO S/A        2510201400000000020342000CC                                                                                                                                                                                                                                                                                                                                                                                                         000006
1028421001518COBR_CAUC_COR  GAIA AGRIBUSINESS AGRICOLA LTDA         000048494836153JOSE ADONIZETE DA COSTA                 AV SANTA CATARINA ,180                  GOIATUBA                                75600000GO47346000010299507253720       28042014900BRADESCO S/A        2009201400000000029880000CC                                                                                                                                                                                                                                                                                                                                                                                                         000007
1016421008591COBR_CAUC_BIC  GLOBOAVES SAO PAULO AGROAVICOLA LTD     083044016000980TYSON DO BRASIL ALIMENTOS LTDA          ROD BR 487 ESTR BOIADEIRA KM 185,0      CAMPO MOURAO                            87305380PR473470000104474579123303      14042014016CURITIBA            1205201400000000010584000CC                                                                                                                                                                                                                                                                                                                                                                                                         000008
1043421010006COBR_CAUC_COR  ELFA MEDICAMENTOS LTDA                  002864097000106CENTRON CENTRO DE TRATAMENTO ONCOL      PRACA DE BOTAFOGO, 228                  RIO DE JANEIRO                          22250040RJ473480000100088451000046139   28042014900BRADESCO S/A        2706201400000000014253732CC                                                                                                                                                                                                                                                                                                                                                                                                         000009
1017141013367COBR_CAUC_BIC  BMS MICRO NUTRIENTES DO BRASIL LTDA     012282034000286USINA CAETE S/A - MATRIZ                FAZENDA SÃO JOÃO                        SÃO MIGUEL DOS                          57240000AL473490000102594995112-1EA     10042014017MACEIO              3005201400000000014208600TD                                                                                                                                                                                                                                                                                                                                                                                                         000010
1021421017050COBR_CAUC_COR  STAR DISTR PROD FARMACEUTICOS LTDA      046054219000174SOLFARMA COMERCIO DE PRODUTOS FARM      AVENIDA BELMIRO DIAS BAPTISTA , 778     BEBEDOURO                               14711130SP4735000001000004220000315901  25042014900BRADESCO S/A        1605201400000000057538734CC                                                                                                                                                                                                                                                                                                                                                                                                         000011
1021421017050COBR_CAUC_COR  STAR DISTR PROD FARMACEUTICOS LTDA      061585865073701RAIA DROGASIL S/A                       RUA PATAXOS , 1412                      EMBU                                    06833073SP4735100001000004060000315701  25042014900BRADESCO S/A        1605201400000000018125884CC                                                                                                                                                                                                                                                                                                                                                                                                         000012
1021421017050COBR_CAUC_COR  STAR DISTR PROD FARMACEUTICOS LTDA      061585865073701RAIA DROGASIL S/A                       RUA PATAXOS , 1412                      EMBU                                    06833073SP4735100002000004310000316001  25042014900BRADESCO S/A        1605201400000000094470926CC                                                                                                                                                                                                                                                                                                                                                                                                         000013
1046421007123COBR_CAUC_BIC  RIOPACK DISTR PROD P/SUPERM LTDA        013495487000172DESTRO BRASIL DISTRIBUICAO LTDA         AVN.ANDRE COSTA 2002 PREDIO CD PAR.B    JUNDIAI                                 13214730SP4736200001023385840022816     25032014007PAULISTA            2805201400000000005223560CC                                                                                                                                                                                                                                                                                                                                                                                                         000014
1046421007158COBR_CAUC_BIC  ALUMIPACK IMPORTACAO E EXPORTACAO L     083314757000772COMERCIAL CELEIRO LTDA                  RUA LISBOA N.579 D                      CHAPECO                                 89805200SC4736300001023485040054414     01042014046FLORIANOPOLIS       1005201400000000000100011CC                                                                                                                                                                                                                                                                                                                                                                                                         000015
1046421007158COBR_CAUC_BIC  ALUMIPACK IMPORTACAO E EXPORTACAO L     009592881000151EMBALAR CATANDUVA COM DE EMB LTDA       ROD.ALFREDO JORGE ABDO KM 9,5           CATANDUVA                               15816000SP4736400001023485800054448     02042014022RIBEIRAO PRETO      1005201400000000000136372CC                                                                                                                                                                                                                                                                                                                                                                                                         000016
1046421007158COBR_CAUC_BIC  ALUMIPACK IMPORTACAO E EXPORTACAO L     007834794000138CASTELO PACK COM DE EMBALAGENS LTD      AV JAIME VIGNOLI N 1037 BARRACAO 08     PORTO ALEGRE                            90200110RS4736500001023485470054450 01  02042014015PORTO ALEGRE        0905201400000000000099981CC                                                                                                                                                                                                                                                                                                                                                                                                         000017
1046421007158COBR_CAUC_BIC  ALUMIPACK IMPORTACAO E EXPORTACAO L     007834794000138CASTELO PACK COM DE EMBALAGENS LTD      AV JAIME VIGNOLI N 1037 BARRACAO 08     PORTO ALEGRE                            90200110RS4736500002023485550054450 02  02042014015PORTO ALEGRE        1605201400000000000099981CC                                                                                                                                                                                                                                                                                                                                                                                                         000018
1046421007158COBR_CAUC_BIC  ALUMIPACK IMPORTACAO E EXPORTACAO L     007834794000138CASTELO PACK COM DE EMBALAGENS LTD      AV JAIME VIGNOLI N 1037 BARRACAO 08     PORTO ALEGRE                            90200110RS4736500003023485630054450 03  02042014015PORTO ALEGRE        2305201400000000000099981CC                                                                                                                                                                                                                                                                                                                                                                                                         000019
1046421007158COBR_CAUC_BIC  ALUMIPACK IMPORTACAO E EXPORTACAO L     007834794000138CASTELO PACK COM DE EMBALAGENS LTD      AV JAIME VIGNOLI N 1037 BARRACAO 08     PORTO ALEGRE                            90200110RS4736500004023485710054450 04  02042014015PORTO ALEGRE        3005201400000000000099981CC                                                                                                                                                                                                                                                                                                                                                                                                         000020
1046421007158COBR_CAUC_COR  ALUMIPACK IMPORTACAO E EXPORTACAO L     082956160000173SUPERMERCADOS IMPERATRIZ LTDA           AV DARIO DA SILVA MATTOS, 85            PALHOCA                                 88135546SC4736600001023485210054406     01042014700BANCO REAL- ABN AMRO1505201400000000000222075CC                                                                                                                                                                                                                                                                                                                                                                                                         000021
1046421007158COBR_CAUC_COR  ALUMIPACK IMPORTACAO E EXPORTACAO L     082956160000173SUPERMERCADOS IMPERATRIZ LTDA           AV DARIO DA SILVA MATTOS, 85            PALHOCA                                 88135546SC4736600002023485390054417     01042014700BANCO REAL- ABN AMRO2005201400000000000231093CC                                                                                                                                                                                                                                                                                                                                                                                                         000022
1046421007158COBR_CAUC_COR  ALUMIPACK IMPORTACAO E EXPORTACAO L     083648477000105GIASSI & CIA LTDA                       ROD SC 444 KM 09, 9                     ICARA                                   88820000SC4736700001023485120054424     01042014700BANCO REAL- ABN AMRO2005201400000000002491781CC                                                                                                                                                                                                                                                                                                                                                                                                         000023
1046421007158COBR_CAUC_BIC  ALUMIPACK IMPORTACAO E EXPORTACAO L     010520537000136CENTROPACK DIST DE EMBALAGENS -EIR      SB SEE QUADRA 13 LOTE 24                BRASILIA                                73020413DF4736800001023021210052833 02  31012014009BRASILIA            0605201400000000000060433CC                                                                                                                                                                                                                                                                                                                                                                                                         000024
1046421007158COBR_CAUC_BIC  ALUMIPACK IMPORTACAO E EXPORTACAO L     010520537000136CENTROPACK DIST DE EMBALAGENS -EIR      SB SEE QUADRA 13 LOTE 24                BRASILIA                                73020413DF4736800002023021300052833 03  31012014009BRASILIA            2005201400000000000060433CC                                                                                                                                                                                                                                                                                                                                                                                                         000025
1046421007158COBR_CAUC_BIC  ALUMIPACK IMPORTACAO E EXPORTACAO L     010520537000136CENTROPACK DIST DE EMBALAGENS -EIR      SB SEE QUADRA 13 LOTE 24                BRASILIA                                73020413DF4736800003023021480052833 04  31012014009BRASILIA            0506201400000000000060433CC                                                                                                                                                                                                                                                                                                                                                                                                         000026
1046421007158COBR_CAUC_BIC  ALUMIPACK IMPORTACAO E EXPORTACAO L     010520537000136CENTROPACK DIST DE EMBALAGENS -EIR      SB SEE QUADRA 13 LOTE 24                BRASILIA                                73020413DF4736800004023021560052833 05  31012014009BRASILIA            2006201400000000000060431CC                                                                                                                                                                                                                                                                                                                                                                                                         000027
1046421007158COBR_CAUC_BIC  ALUMIPACK IMPORTACAO E EXPORTACAO L     010520537000136CENTROPACK DIST DE EMBALAGENS -EIR      SB SEE QUADRA 13 LOTE 24                BRASILIA                                73020413DF4736800005023021720052837 02  31012014009BRASILIA            0605201400000000000067736CC                                                                                                                                                                                                                                                                                                                                                                                                         000028
1046421007158COBR_CAUC_BIC  ALUMIPACK IMPORTACAO E EXPORTACAO L     010520537000136CENTROPACK DIST DE EMBALAGENS -EIR      SB SEE QUADRA 13 LOTE 24                BRASILIA                                73020413DF4736800006023021810052837 03  31012014009BRASILIA            2105201400000000000067736CC                                                                                                                                                                                                                                                                                                                                                                                                         000029
1046421007158COBR_CAUC_BIC  ALUMIPACK IMPORTACAO E EXPORTACAO L     010520537000136CENTROPACK DIST DE EMBALAGENS -EIR      SB SEE QUADRA 13 LOTE 24                BRASILIA                                73020413DF4736800007023021990052837 04  31012014009BRASILIA            0606201400000000000067736CC                                                                                                                                                                                                                                                                                                                                                                                                         000030
1046421007158COBR_CAUC_BIC  ALUMIPACK IMPORTACAO E EXPORTACAO L     010520537000136CENTROPACK DIST DE EMBALAGENS -EIR      SB SEE QUADRA 13 LOTE 24                BRASILIA                                73020413DF4736800008023022020052837 05  31012014009BRASILIA            2006201400000000000067735CC                                                                                                                                                                                                                                                                                                                                                                                                         000031
1046421007158COBR_CAUC_BIC  ALUMIPACK IMPORTACAO E EXPORTACAO L     010520537000136CENTROPACK DIST DE EMBALAGENS -EIR      SB SEE QUADRA 13 LOTE 24                BRASILIA                                73020413DF4736800009023022110052840 04  31012014009BRASILIA            1006201400000000000062159CC                                                                                                                                                                                                                                                                                                                                                                                                         000032
1046421007158COBR_CAUC_BIC  ALUMIPACK IMPORTACAO E EXPORTACAO L     010520537000136CENTROPACK DIST DE EMBALAGENS -EIR      SB SEE QUADRA 13 LOTE 24                BRASILIA                                73020413DF4736800010023022370052842 02  31012014009BRASILIA            0505201400000000000085164CC                                                                                                                                                                                                                                                                                                                                                                                                         000033
1046421007158COBR_CAUC_BIC  ALUMIPACK IMPORTACAO E EXPORTACAO L     010520537000136CENTROPACK DIST DE EMBALAGENS -EIR      SB SEE QUADRA 13 LOTE 24                BRASILIA                                73020413DF4736800011023022450052842 03  31012014009BRASILIA            2105201400000000000085164CC                                                                                                                                                                                                                                                                                                                                                                                                         000034
1046421007158COBR_CAUC_BIC  ALUMIPACK IMPORTACAO E EXPORTACAO L     010520537000136CENTROPACK DIST DE EMBALAGENS -EIR      SB SEE QUADRA 13 LOTE 24                BRASILIA                                73020413DF4736800012023022530052842 04  31012014009BRASILIA            0606201400000000000085164CC                                                                                                                                                                                                                                                                                                                                                                                                         000035
1046421007158COBR_CAUC_BIC  ALUMIPACK IMPORTACAO E EXPORTACAO L     010520537000136CENTROPACK DIST DE EMBALAGENS -EIR      SB SEE QUADRA 13 LOTE 24                BRASILIA                                73020413DF4736800013023022610052842 05  31012014009BRASILIA            1906201400000000000085166CC                                                                                                                                                                                                                                                                                                                                                                                                         000036
1046421007158COBR_CAUC_BIC  ALUMIPACK IMPORTACAO E EXPORTACAO L     010520537000136CENTROPACK DIST DE EMBALAGENS -EIR      SB SEE QUADRA 13 LOTE 24                BRASILIA                                73020413DF4736800014023022880052846 02  31012014009BRASILIA            0705201400000000000352632CC                                                                                                                                                                                                                                                                                                                                                                                                         000037
1046421007158COBR_CAUC_BIC  ALUMIPACK IMPORTACAO E EXPORTACAO L     010520537000136CENTROPACK DIST DE EMBALAGENS -EIR      SB SEE QUADRA 13 LOTE 24                BRASILIA                                73020413DF4736800015023022960052846 03  31012014009BRASILIA            2105201400000000000352632CC                                                                                                                                                                                                                                                                                                                                                                                                         000038
1046421007158COBR_CAUC_BIC  ALUMIPACK IMPORTACAO E EXPORTACAO L     010520537000136CENTROPACK DIST DE EMBALAGENS -EIR      SB SEE QUADRA 13 LOTE 24                BRASILIA                                73020413DF4736800016023023000052846 04  31012014009BRASILIA            0706201400000000000352632CC                                                                                                                                                                                                                                                                                                                                                                                                         000039
1046421007158COBR_CAUC_BIC  ALUMIPACK IMPORTACAO E EXPORTACAO L     010520537000136CENTROPACK DIST DE EMBALAGENS -EIR      SB SEE QUADRA 13 LOTE 24                BRASILIA                                73020413DF4736800017023023180052846 05  31012014009BRASILIA            1806201400000000000352632CC                                                                                                                                                                                                                                                                                                                                                                                                         000040
1046421007158COBR_CAUC_BIC  ALUMIPACK IMPORTACAO E EXPORTACAO L     010520537000136CENTROPACK DIST DE EMBALAGENS -EIR      SB SEE QUADRA 13 LOTE 24                BRASILIA                                73020413DF4736800018023023420052848 03  31012014009BRASILIA            1905201400000000000154812CC                                                                                                                                                                                                                                                                                                                                                                                                         000041
1046421007158COBR_CAUC_BIC  ALUMIPACK IMPORTACAO E EXPORTACAO L     010520537000136CENTROPACK DIST DE EMBALAGENS -EIR      SB SEE QUADRA 13 LOTE 24                BRASILIA                                73020413DF4736800019023023510052848 04  31012014009BRASILIA            0706201400000000000154812CC                                                                                                                                                                                                                                                                                                                                                                                                         000042
1046421007158COBR_CAUC_COR  ALUMIPACK IMPORTACAO E EXPORTACAO L     082115403000140JOMAE EMBALAGENS LTDA ME                RUA NOSSA SRA APARECIDA N.355           PALHOCA                                 88133400SC4736900001023485980054452 01  02042014700BANCO REAL- ABN AMRO1405201400000000000009046CC                                                                                                                                                                                                                                                                                                                                                                                                         000043
1046421007158COBR_CAUC_COR  ALUMIPACK IMPORTACAO E EXPORTACAO L     082115403000140JOMAE EMBALAGENS LTDA ME                RUA NOSSA SRA APARECIDA N.355           PALHOCA                                 88133400SC4736900002023486010054452 02  02042014700BANCO REAL- ABN AMRO2105201400000000000009046CC                                                                                                                                                                                                                                                                                                                                                                                                         000044
1046421007158COBR_CAUC_COR  ALUMIPACK IMPORTACAO E EXPORTACAO L     007078401000103SUPERMERCADO MILANOSUL LTDA             RUA CONDE DE PORTO ALEGRE N.622         SANTA VITORIA D                         96230000RS4737000001022860370052872 03  04022014700BANCO REAL- ABN AMRO0605201400000000000092138CC                                                                                                                                                                                                                                                                                                                                                                                                         000045
1046421007158COBR_CAUC_COR  ALUMIPACK IMPORTACAO E EXPORTACAO L     004172526000100RSM SUPERMERCADO LTDA                   RUA ITABERABA N.1260 SL                 SAO MIGUEL DO O                         89900000SC4737100001023486280054454 02  02042014700BANCO REAL- ABN AMRO0605201400000000000097938CC                                                                                                                                                                                                                                                                                                                                                                                                         000046
9000020                                                                                                                                                                                                                                                                                                                                                                                                                                                                                                                                                                                                                                                                                                               000047
