0REMESSANOTIFICACAO ELETRONICA        99999999999999BICBANCO                                AV. PAULISTA                            1048      12.ANDAR  BELA VISTA                    SAO PAULO                     01310100SP1121739360CORTINHAL                               COORDENADOR                             01032012                                                                                                                                                                                                                                                                                                                                                                                      000001
1028421002719COBR_CAUC_COR  SIPCAM UPL BRASIL S/A                   043001981002814COOPERATIVA AGRICOLA MISTA DE ADAM      RUA CHUJIRO MATSUDA, 25                 ADAMANTINA                              17800000SP341040000102755756DC01039601  28022012800UNIBANCO S/A        2703201200000000010890012CC                                                                                                                                                                                                                                                                                                                                                                                                         000002
1028421002719COBR_CAUC_BIC  SIPCAM UPL BRASIL S/A                   075263400000199NORTOX S/A                              RODOVIA MELO PEIXOTO, BR369 - KM 197 S/NARAPONGAS                               86700970PR341050000102755764DP01033901  28022012031LONDRINA            2703201200000000016183350CC                                                                                                                                                                                                                                                                                                                                                                                                         000003
1021420930887COBR_CAUC_BIC  DEDINI S/A INDUSTRIAS DE BASE           061068342000138PRENSAS SCHULER SA                      AV FAGUNDES DE OLIVEIRA, 1515 PIRAPORINHDIADEMA                                 09950904SP34106000010630068129335-1-1   24022012038ABC                 2303201200000000012199200CC                                                                                                                                                                                                                                                                                                                                                                                                         000004
1007421053971COBR_CAUC_BIC  VIDA ALIMENTOS LTDA                     011457034000126GOOD MEAL COM E TRANSP DE PROD ALI      RUA ARARIPE, 206                        SAO PAULO                               03215010SP34107000010111182400040904 2  29022012007PAULISTA            1603201200000000020600000CC                                                                                                                                                                                                                                                                                                                                                                                                         000005
1036421018985COBR_CAUC_BIC  PEEQFLEX INDUSTRIA E COMERCIO LTDA      060723061055868YAKULT S/A IND.COM                      Alameda Santos, 771                     SAO PAULO                               01419000SP3410800001058499876014556-01  28022012007PAULISTA            2003201200000000021530153CC                                                                                                                                                                                                                                                                                                                                                                                                         000006
9000005                                                                                                                                                                                                                                                                                                                                                                                                                                                                                                                                                                                                                                                                                                               000007
