0REMESSANOTIFICACAO ELETRONICA        99999999999999BICBANCO                                AV. PAULISTA                            1048      12.ANDAR  BELA VISTA                    SAO PAULO                     01310100SP1121739360CORTINHAL                               COORDENADOR                             27032014                                                                                                                                                                                                                                                                                                                                                                                      000001
1018421034826COBR_CAUC_BIC  LACEL LATICINIOS CERES LTDA             011596442004237CARVALHO & FERNANDES LTDA               AV.DEPUTADO PAULO FERRAZ, 4888 GALPAO 04TERESINA                                64078820PI4695100001036534320314223     26032014042SAO LUIS            0406201400000000016430266CC                                                                                                                                                                                                                                                                                                                                                                                                         000002
1008421022487COBR_CAUC_COR  EBP - EMPRESA BRASILEIRA DE PESCADO     033304981000110SUPERMERCADOS MUNDIAL LTDA              RUA  DONA EMILIA, 2                     RIO DE JANEIRO                          20765110RJ4695200001017395670025432/    25032014900BRADESCO S/A        1404201400000000042660000CC                                                                                                                                                                                                                                                                                                                                                                                                         000003
1007421060307COBR_CAUC_COR  ROTHENBERG COMERCIO DE PERFUMES E C     017325914000206EDEC COM DE PERFUMES E COSMETICOS       AV ACESSO RODOVIARIO SN QD 9 MD 2 E 3   SERRA                                   29161376ES469530000102770627RR4113700   25032014700BANCO REAL- ABN AMRO2306201400000000012460089CC                                                                                                                                                                                                                                                                                                                                                                                                         000004
1007421060307COBR_CAUC_COR  ROTHENBERG COMERCIO DE PERFUMES E C     017325914000206EDEC COM DE PERFUMES E COSMETICOS       AV ACESSO RODOVIARIO SN QD 9 MD 2 E 3   SERRA                                   29161376ES469530000202770635RR4113701   25032014700BANCO REAL- ABN AMRO2306201400000000021599332CC                                                                                                                                                                                                                                                                                                                                                                                                         000005
9000003                                                                                                                                                                                                                                                                                                                                                                                                                                                                                                                                                                                                                                                                                                               000006
