0REMESSANOTIFICACAO ELETRONICA        99999999999999BICBANCO                                AV. PAULISTA                            1048      12.ANDAR  BELA VISTA                    SAO PAULO                     01310100SP1121739360CORTINHAL                               COORDENADOR                             03102013                                                                                                                                                                                                                                                                                                                                                                                      000001
1015421019927COBR_CAUC_BIC  BELSUL IND. E COM DE MAT. PRIMAS LT     045067428000190MADEX IND DE PLASTICOS LTDA             AV ROBERTO GORDON,42                    DIADEMA                                 09990090SP4449500001011284216663/01     30092013007PAULISTA            0411201300000000019704000CC                                                                                                                                                                                                                                                                                                                                                                                                         000002
1046421001443COBR_CAUC_COR  COSTAO DO SANTINHO TUR E LAZER LTDA     049475833000106BIOLAB SANUS FARMACEUTICA LTDA          AV PAULO AYRES,280                      TABOAO DA SERRA                         06767220SP444930000100011677183664      01102013900BRADESCO S/A        2010201300000000012368780CC                                                                                                                                                                                                                                                                                                                                                                                                         000003
1036421015412COBR_CAUC_BIC  IPERFOR INDUSTRIAL LTDA                 054625819002893EATON LTDA - DIV TRANSMISSOES           RUA CLARK,2061                          VALINHOS                                13279400SP44492000010597496086921       02102013021CAMPINAS            1411201300000000010139893CC                                                                                                                                                                                                                                                                                                                                                                                                         000004
1046421000145COBR_CAUC_COR  KOMLOG IMPORTACAO LTDA                  083646984006906A. ANGELONI & CIA. LTDA                 ROD BR 101 KM 156, SN                   PORTO BELO                              88210000SC444940000102123464009664-     20092013900BRADESCO S/A        1810201300000000018293897CC                                                                                                                                                                                                                                                                                                                                                                                                         000005
1016421023191DIR_CREDIT     METALGRAFICA TRIVISAN S/A               014764860000106CCP COMPOSITES E RESINAS DO BRASIL LTDA RUA AUREA TAVARES 480/580               TABOAO DA SERRA                         06765902SP4451500001                                                                                                                                          011583704           170520120000021543SEM CONTRATO01062012000403Fornecimento de latas para armazenamento de tinta.                                                                                                                                                                                              076497981000196              000006
1018421032351COBR_CAUC_COR  NAVE INDUSTRIAL EIRELI - ME             008918337000194NEIDE G.LUNA ME                         PCA CLEMENTINO PROCOPIO 02 TERREO       CAMPINA GRANDE                          58400292PB4459200001031633626404-5A     26032013800UNIBANCO S/A        1510201300000000000133176CC                                                                                                                                                                                                                                                                                                                                                                                                         000007
1018421032351COBR_CAUC_COR  NAVE INDUSTRIAL EIRELI - ME             007620892000172TEIXEIRA LIMA COMERCIO E ARMARINHO      AV GETULIO VARGAS N.210                 PAULO AFONSO                            48601000BA4459100001031633385796-3B     26022013800UNIBANCO S/A        1710201300000000000128414CC                                                                                                                                                                                                                                                                                                                                                                                                         000008
1018421032351COBR_CAUC_COR  NAVE INDUSTRIAL EIRELI - ME             063794671000191J G CONFECCOES LTDA                     AV.CASTELO BRANCO N.18918               CACOAL                                  76963898RO4459000001033366666889-1      16042013900BRADESCO S/A        1811201300000000000125387CC                                                                                                                                                                                                                                                                                                                                                                                                         000009
1018421032351COBR_CAUC_COR  NAVE INDUSTRIAL EIRELI - ME             012085940000100MARIA DE FATIMA DE OLIVEIRA NEVES       R MANOEL JOSE SALOMAO S/N               BARRA DO CORDA                          65950000MA4458900001032414367160-5A     30042013900BRADESCO S/A        2211201300000000000124019CC                                                                                                                                                                                                                                                                                                                                                                                                         000010
1018421032351COBR_CAUC_BIC  NAVE INDUSTRIAL EIRELI - ME             003387245000101H.S.S.AGUIAR ME                         TRAV.DOS MARTIRES N.95                  SANTAREM                                68005540PA4458800001032982767862-5A     03062013050BELEM               2212201300000000000120399CC                                                                                                                                                                                                                                                                                                                                                                                                         000011
1018421032351COBR_CAUC_COR  NAVE INDUSTRIAL EIRELI - ME             012783990000160TORRES CONFECCOES LTDA  ME              RUA FELINTRO SANTOS N.96                GRAJAU                                  65940000MA4458700001032414617267-5A     02052013900BRADESCO S/A        1411201300000000000115787CC                                                                                                                                                                                                                                                                                                                                                                                                         000012
1018421032351COBR_CAUC_COR  NAVE INDUSTRIAL EIRELI - ME             011020503000145IRANILDO PEREIRA ALMEIDA                R ROMEU MARTINS N.909                   CANINDE                                 62700000CE4458600001032982687737-6A     28052013900BRADESCO S/A        1601201400000000000114776CC                                                                                                                                                                                                                                                                                                                                                                                                         000013
1018421032351COBR_CAUC_BIC  NAVE INDUSTRIAL EIRELI - ME             083583690000186R DE A PARENTE - ME                     RUA FLORIANO PEIXOTO 479                SANTAREM                                68005060PA4458500001031276506177-5A     15032013050BELEM               0710201300000000000114603CC                                                                                                                                                                                                                                                                                                                                                                                                         000014
1018421032351COBR_CAUC_COR  NAVE INDUSTRIAL EIRELI - ME             006040146000147CLODOALDO RODRIGUES DOS SANTOS ME       AV.JAMANXIM QD28 LT10                   NOVO PROGRESSO                          68193000PA4458400001031707767013-4B     23042013900BRADESCO S/A        0511201300000000000112607CC                                                                                                                                                                                                                                                                                                                                                                                                         000015
1018421032351COBR_CAUC_COR  NAVE INDUSTRIAL EIRELI - ME             007781474000167R.S.SELLA & CIA.LTDA.                   AV JEQUEITIBAS N.1084                   GUARANTA DO NOR                         78520000MT4458300001031515346651-4B     03042013800UNIBANCO S/A        2310201300000000000111100CC                                                                                                                                                                                                                                                                                                                                                                                                         000016
1018421032351COBR_CAUC_COR  NAVE INDUSTRIAL EIRELI - ME             008776548000130MARIA DA PAZ PEREIRA DE LUCENA CON      R DOUTOR MANOEL BORBA N.85              RIACHO DAS ALMA                         55120000PE4458200001031276256160-5A     14032013900BRADESCO S/A        0710201300000000000105547CC                                                                                                                                                                                                                                                                                                                                                                                                         000017
1018421032351COBR_CAUC_COR  NAVE INDUSTRIAL EIRELI - ME             006376186000164SEBASTIANA GOMES DE SOUZA               PC. CIRILO SABAHT N.02                  IACIARA                                 73920000GO4458100001031705986941-5A     19042013900BRADESCO S/A        0711201300000000000104759CC                                                                                                                                                                                                                                                                                                                                                                                                         000018
1018421032351COBR_CAUC_COR  NAVE INDUSTRIAL EIRELI - ME             012679922000156F.V. SOBRINHO MODAS                     RUA DOS CORRUPIOES N.31                 SANTA QUITERIA                          65540000MA4458000001032636517616-5A     23052013900BRADESCO S/A        1712201300000000000102040CC                                                                                                                                                                                                                                                                                                                                                                                                         000019
1018421032351COBR_CAUC_COR  NAVE INDUSTRIAL EIRELI - ME             013314963000101MARIA MARLETE CORREIA PIMENTEL ME       AV.ANTONIO PENEDO N55                   TUCANO                                  48790000BA4457900001031513816133-5A     13032013900BRADESCO S/A        1710201300000000000101593CC                                                                                                                                                                                                                                                                                                                                                                                                         000020
1018421032351COBR_CAUC_COR  NAVE INDUSTRIAL EIRELI - ME             001118682000102ELIANE DE SOUSA SILVA                   AV.DEYSE SOUSA 200 LOJA PERY PERY       MARACACUME                              65289000MA4457800001031275366108-5A     12032013900BRADESCO S/A        0710201300000000000101237CC                                                                                                                                                                                                                                                                                                                                                                                                         000021
1018421032351COBR_CAUC_BIC  NAVE INDUSTRIAL EIRELI - ME             007646041000107DAFINY CALCADOS E CONFECCOES LTDA       AV.MANGALO N2930 QD11LT64               GOIANIA                                 74474322GO4457700001033528589948-2B     05082013018GOIANIA             0810201300000000000101029CC                                                                                                                                                                                                                                                                                                                                                                                                         000022
1018421032351COBR_CAUC_BIC  NAVE INDUSTRIAL EIRELI - ME             007261999000171NACIONAL COM.CONF. LTDA                 RUA SC14 Q07 L07                        GOIANIA                                 74474017GO44576000010338541101034-1     26082013018GOIANIA             3010201300000000000663452CC                                                                                                                                                                                                                                                                                                                                                                                                         000023
1018421032351COBR_CAUC_BIC  NAVE INDUSTRIAL EIRELI - ME             007261999000171NACIONAL COM.CONF. LTDA                 RUA SC14 Q07 L07                        GOIANIA                                 74474017GO44576000020338542001034-2     26082013018GOIANIA             1011201300000000000663452CC                                                                                                                                                                                                                                                                                                                                                                                                         000024
1018421032351COBR_CAUC_BIC  NAVE INDUSTRIAL EIRELI - ME             007261999000171NACIONAL COM.CONF. LTDA                 RUA SC14 Q07 L07                        GOIANIA                                 74474017GO44576000030338543801034-3     26082013018GOIANIA             1911201300000000000663452CC                                                                                                                                                                                                                                                                                                                                                                                                         000025
1018421032351COBR_CAUC_BIC  NAVE INDUSTRIAL EIRELI - ME             007261999000171NACIONAL COM.CONF. LTDA                 RUA SC14 Q07 L07                        GOIANIA                                 74474017GO44576000040338544601034-4     26082013018GOIANIA             2811201300000000000663452CC                                                                                                                                                                                                                                                                                                                                                                                                         000026
1018421032351COBR_CAUC_BIC  NAVE INDUSTRIAL EIRELI - ME             007261999000171NACIONAL COM.CONF. LTDA                 RUA SC14 Q07 L07                        GOIANIA                                 74474017GO44576000050338545401034-5     26082013018GOIANIA             0612201300000000000663452CC                                                                                                                                                                                                                                                                                                                                                                                                         000027
1018421032351COBR_CAUC_BIC  NAVE INDUSTRIAL EIRELI - ME             007261999000171NACIONAL COM.CONF. LTDA                 RUA SC14 Q07 L07                        GOIANIA                                 74474017GO44576000060335291209606-2     07082013018GOIANIA             0610201300000000000503222CC                                                                                                                                                                                                                                                                                                                                                                                                         000028
1018421032351COBR_CAUC_BIC  NAVE INDUSTRIAL EIRELI - ME             007261999000171NACIONAL COM.CONF. LTDA                 RUA SC14 Q07 L07                        GOIANIA                                 74474017GO44576000070335292109606-3     07082013018GOIANIA             0511201300000000000503222CC                                                                                                                                                                                                                                                                                                                                                                                                         000029
1018421032351COBR_CAUC_BIC  NAVE INDUSTRIAL EIRELI - ME             010272259000145GARMENT COM. CONFECCOES LTDA            RUA JOAO MORELI Q10 LT.30               GOIANIA                                 74394210GO44575000010338535701032-1     26082013018GOIANIA             2710201300000000000575036CC                                                                                                                                                                                                                                                                                                                                                                                                         000030
1018421032351COBR_CAUC_BIC  NAVE INDUSTRIAL EIRELI - ME             010272259000145GARMENT COM. CONFECCOES LTDA            RUA JOAO MORELI Q10 LT.30               GOIANIA                                 74394210GO44575000020338536501032-2     26082013018GOIANIA             0311201300000000000575036CC                                                                                                                                                                                                                                                                                                                                                                                                         000031
1018421032351COBR_CAUC_BIC  NAVE INDUSTRIAL EIRELI - ME             010272259000145GARMENT COM. CONFECCOES LTDA            RUA JOAO MORELI Q10 LT.30               GOIANIA                                 74394210GO44575000030338537301032-3     26082013018GOIANIA             1011201300000000000575036CC                                                                                                                                                                                                                                                                                                                                                                                                         000032
1018421032351COBR_CAUC_BIC  NAVE INDUSTRIAL EIRELI - ME             010272259000145GARMENT COM. CONFECCOES LTDA            RUA JOAO MORELI Q10 LT.30               GOIANIA                                 74394210GO44575000040338538101032-4     26082013018GOIANIA             1811201300000000000575036CC                                                                                                                                                                                                                                                                                                                                                                                                         000033
1018421032351COBR_CAUC_BIC  NAVE INDUSTRIAL EIRELI - ME             010272259000145GARMENT COM. CONFECCOES LTDA            RUA JOAO MORELI Q10 LT.30               GOIANIA                                 74394210GO44575000050338539001032-5     26082013018GOIANIA             2411201300000000000575036CC                                                                                                                                                                                                                                                                                                                                                                                                         000034
1018421032351COBR_CAUC_BIC  NAVE INDUSTRIAL EIRELI - ME             010272259000145GARMENT COM. CONFECCOES LTDA            RUA JOAO MORELI Q10 LT.30               GOIANIA                                 74394210GO44575000060338540301032-6     26082013018GOIANIA             3011201300000000000575036CC                                                                                                                                                                                                                                                                                                                                                                                                         000035
1018421032351COBR_CAUC_BIC  NAVE INDUSTRIAL EIRELI - ME             005517900000124J.B.DE CARVALHO FILHO ME                RUA LAGO 04 Q09 L21                     GOIANIA                                 74461120GO44574000010338852601052-1     27082013018GOIANIA             2810201300000000000281353CC                                                                                                                                                                                                                                                                                                                                                                                                         000036
1018421032351COBR_CAUC_BIC  NAVE INDUSTRIAL EIRELI - ME             005517900000124J.B.DE CARVALHO FILHO ME                RUA LAGO 04 Q09 L21                     GOIANIA                                 74461120GO44574000020338853401052-2     27082013018GOIANIA             0911201300000000000281353CC                                                                                                                                                                                                                                                                                                                                                                                                         000037
1018421032351COBR_CAUC_BIC  NAVE INDUSTRIAL EIRELI - ME             005517900000124J.B.DE CARVALHO FILHO ME                RUA LAGO 04 Q09 L21                     GOIANIA                                 74461120GO44574000030338854201052-3     27082013018GOIANIA             2111201300000000000281353CC                                                                                                                                                                                                                                                                                                                                                                                                         000038
1018421032351COBR_CAUC_BIC  NAVE INDUSTRIAL EIRELI - ME             005517900000124J.B.DE CARVALHO FILHO ME                RUA LAGO 04 Q09 L21                     GOIANIA                                 74461120GO44574000040338855101052-4     27082013018GOIANIA             2911201300000000000281353CC                                                                                                                                                                                                                                                                                                                                                                                                         000039
1018421032351COBR_CAUC_BIC  NAVE INDUSTRIAL EIRELI - ME             005517900000124J.B.DE CARVALHO FILHO ME                RUA LAGO 04 Q09 L21                     GOIANIA                                 74461120GO44574000050338856901052-5     27082013018GOIANIA             1112201300000000000281353CC                                                                                                                                                                                                                                                                                                                                                                                                         000040
1018421032351COBR_CAUC_BIC  NAVE INDUSTRIAL EIRELI - ME             005517900000124J.B.DE CARVALHO FILHO ME                RUA LAGO 04 Q09 L21                     GOIANIA                                 74461120GO4457400006031709717032-2B     24042013018GOIANIA             2110201300000000000305078CC                                                                                                                                                                                                                                                                                                                                                                                                         000041
1018421032351COBR_CAUC_BIC  NAVE INDUSTRIAL EIRELI - ME             005517900000124J.B.DE CARVALHO FILHO ME                RUA LAGO 04 Q09 L21                     GOIANIA                                 74461120GO4457400007031709897032-3A     24042013018GOIANIA             1811201300000000000471306CC                                                                                                                                                                                                                                                                                                                                                                                                         000042
1018421032351COBR_CAUC_BIC  NAVE INDUSTRIAL EIRELI - ME             005517900000124J.B.DE CARVALHO FILHO ME                RUA LAGO 04 Q09 L21                     GOIANIA                                 74461120GO4457400008031709977032-4B     24042013018GOIANIA             1612201300000000000305077CC                                                                                                                                                                                                                                                                                                                                                                                                         000043
1018421032351COBR_CAUC_BIC  NAVE INDUSTRIAL EIRELI - ME             000033614105172MARIA AMINADABIS P.LEAO CONFECCOES      RUA SC-27 Q.21 LT.26                    GOIANIA                                 74474033GO44573000010338861501048-1     27082013018GOIANIA             2810201300000000000312667CC                                                                                                                                                                                                                                                                                                                                                                                                         000044
1018421032351COBR_CAUC_BIC  NAVE INDUSTRIAL EIRELI - ME             000033614105172MARIA AMINADABIS P.LEAO CONFECCOES      RUA SC-27 Q.21 LT.26                    GOIANIA                                 74474033GO44573000020338862301048-2     27082013018GOIANIA             0411201300000000000312667CC                                                                                                                                                                                                                                                                                                                                                                                                         000045
1018421032351COBR_CAUC_BIC  NAVE INDUSTRIAL EIRELI - ME             000033614105172MARIA AMINADABIS P.LEAO CONFECCOES      RUA SC-27 Q.21 LT.26                    GOIANIA                                 74474033GO44573000030338863101048-3     27082013018GOIANIA             1111201300000000000312667CC                                                                                                                                                                                                                                                                                                                                                                                                         000046
1018421032351COBR_CAUC_BIC  NAVE INDUSTRIAL EIRELI - ME             000033614105172MARIA AMINADABIS P.LEAO CONFECCOES      RUA SC-27 Q.21 LT.26                    GOIANIA                                 74474033GO44573000040338864001048-4     27082013018GOIANIA             1911201300000000000312667CC                                                                                                                                                                                                                                                                                                                                                                                                         000047
1018421032351COBR_CAUC_BIC  NAVE INDUSTRIAL EIRELI - ME             000033614105172MARIA AMINADABIS P.LEAO CONFECCOES      RUA SC-27 Q.21 LT.26                    GOIANIA                                 74474033GO44573000050338865801048-5     27082013018GOIANIA             2511201300000000000312667CC                                                                                                                                                                                                                                                                                                                                                                                                         000048
1018421032351COBR_CAUC_BIC  NAVE INDUSTRIAL EIRELI - ME             000033614105172MARIA AMINADABIS P.LEAO CONFECCOES      RUA SC-27 Q.21 LT.26                    GOIANIA                                 74474033GO44573000060338846101048-6     27082013018GOIANIA             0112201300000000000312667CC                                                                                                                                                                                                                                                                                                                                                                                                         000049
1018421032351COBR_CAUC_BIC  NAVE INDUSTRIAL EIRELI - ME             000033614105172MARIA AMINADABIS P.LEAO CONFECCOES      RUA SC-27 Q.21 LT.26                    GOIANIA                                 74474033GO44573000070335294709611-2     07082013018GOIANIA             2410201300000000000288741CC                                                                                                                                                                                                                                                                                                                                                                                                         000050
1018421032351COBR_CAUC_BIC  NAVE INDUSTRIAL EIRELI - ME             000033614105172MARIA AMINADABIS P.LEAO CONFECCOES      RUA SC-27 Q.21 LT.26                    GOIANIA                                 74474033GO44573000080335295509611-3     07082013018GOIANIA             2311201300000000000288741CC                                                                                                                                                                                                                                                                                                                                                                                                         000051
1018421032351COBR_CAUC_BIC  NAVE INDUSTRIAL EIRELI - ME             083355545000148NORTEX CONFECCOES EIRELI EPP            BR-316 KM-01 LOJA-171                   BELEM                                   66645900PA4457200001031514116301-4B     21032013050BELEM               2610201300000000001345500CC                                                                                                                                                                                                                                                                                                                                                                                                         000052
1018421032351COBR_CAUC_BIC  NAVE INDUSTRIAL EIRELI - ME             083355545000148NORTEX CONFECCOES EIRELI EPP            BR-316 KM-01 LOJA-171                   BELEM                                   66645900PA4457200002031705396301-5A     21032013050BELEM               2511201300000000001039500CC                                                                                                                                                                                                                                                                                                                                                                                                         000053
1018421032351COBR_CAUC_BIC  NAVE INDUSTRIAL EIRELI - ME             005977761000111S.F.CHAVES                              RUA J-4 QD51 LT01                       GOIANIA                                 74845480GO44571000010335272609938-2     07082013018GOIANIA             1110201300000000000376105CC                                                                                                                                                                                                                                                                                                                                                                                                         000054
1018421032351COBR_CAUC_BIC  NAVE INDUSTRIAL EIRELI - ME             005977761000111S.F.CHAVES                              RUA J-4 QD51 LT01                       GOIANIA                                 74845480GO44571000020335273409938-3     07082013018GOIANIA             3110201300000000000376105CC                                                                                                                                                                                                                                                                                                                                                                                                         000055
1018421032351COBR_CAUC_BIC  NAVE INDUSTRIAL EIRELI - ME             005977761000111S.F.CHAVES                              RUA J-4 QD51 LT01                       GOIANIA                                 74845480GO4457100003031709387031-2B     24042013018GOIANIA             1410201300000000000240055CC                                                                                                                                                                                                                                                                                                                                                                                                         000056
1018421032351COBR_CAUC_BIC  NAVE INDUSTRIAL EIRELI - ME             005977761000111S.F.CHAVES                              RUA J-4 QD51 LT01                       GOIANIA                                 74845480GO4457100004031709467031-3A     24042013018GOIANIA             1111201300000000000370861CC                                                                                                                                                                                                                                                                                                                                                                                                         000057
1018421032351COBR_CAUC_BIC  NAVE INDUSTRIAL EIRELI - ME             005977761000111S.F.CHAVES                              RUA J-4 QD51 LT01                       GOIANIA                                 74845480GO4457100005031709547031-4B     24042013018GOIANIA             0412201300000000000240053CC                                                                                                                                                                                                                                                                                                                                                                                                         000058
1018421032351COBR_CAUC_BIC  NAVE INDUSTRIAL EIRELI - ME             005977761000111S.F.CHAVES                              RUA J-4 QD51 LT01                       GOIANIA                                 74845480GO4457100006032417547361-3A     08052013018GOIANIA             1410201300000000000406510CC                                                                                                                                                                                                                                                                                                                                                                                                         000059
1018421032351COBR_CAUC_BIC  NAVE INDUSTRIAL EIRELI - ME             005977761000111S.F.CHAVES                              RUA J-4 QD51 LT01                       GOIANIA                                 74845480GO4457100007032417627361-4B     08052013018GOIANIA             0411201300000000000263130CC                                                                                                                                                                                                                                                                                                                                                                                                         000060
1018421032351COBR_CAUC_BIC  NAVE INDUSTRIAL EIRELI - ME             083879882000134ECO JEANS COMERCIO DE CONFECCOES L      TR. PADRE EUTIQUIO, 1078 LJ 346         BELEM                                   66023710PA4457000001031633546358-4B     25032013050BELEM               0211201300000000001108080CC                                                                                                                                                                                                                                                                                                                                                                                                         000061
1018421032351COBR_CAUC_BIC  NAVE INDUSTRIAL EIRELI - ME             083879882000134ECO JEANS COMERCIO DE CONFECCOES L      TR. PADRE EUTIQUIO, 1078 LJ 346         BELEM                                   66023710PA4457000002031705476358-5A     25032013050BELEM               0212201300000000000856080CC                                                                                                                                                                                                                                                                                                                                                                                                         000062
1018421032351COBR_CAUC_BIC  NAVE INDUSTRIAL EIRELI - ME             025133778000108REPRESENTACOES ALBUQUERQUE              RUA X04 Q 14 L 17                       GOIANIA                                 74953050GO4456900001032987818147-1      26062013018GOIANIA             1810201300000000000364751CC                                                                                                                                                                                                                                                                                                                                                                                                         000063
1018421032351COBR_CAUC_BIC  NAVE INDUSTRIAL EIRELI - ME             025133778000108REPRESENTACOES ALBUQUERQUE              RUA X04 Q 14 L 17                       GOIANIA                                 74953050GO4456900002032987998147-2      26062013018GOIANIA             0211201300000000000364751CC                                                                                                                                                                                                                                                                                                                                                                                                         000064
1018421032351COBR_CAUC_BIC  NAVE INDUSTRIAL EIRELI - ME             025133778000108REPRESENTACOES ALBUQUERQUE              RUA X04 Q 14 L 17                       GOIANIA                                 74953050GO4456900003032988028147-3      26062013018GOIANIA             1711201300000000000364751CC                                                                                                                                                                                                                                                                                                                                                                                                         000065
1018421032351COBR_CAUC_BIC  NAVE INDUSTRIAL EIRELI - ME             025133778000108REPRESENTACOES ALBUQUERQUE              RUA X04 Q 14 L 17                       GOIANIA                                 74953050GO4456900004032988118147-4      26062013018GOIANIA             0212201300000000000364751CC                                                                                                                                                                                                                                                                                                                                                                                                         000066
1018421032351COBR_CAUC_BIC  NAVE INDUSTRIAL EIRELI - ME             025133778000108REPRESENTACOES ALBUQUERQUE              RUA X04 Q 14 L 17                       GOIANIA                                 74953050GO4456900005032988298147-5      26062013018GOIANIA             1712201300000000000364751CC                                                                                                                                                                                                                                                                                                                                                                                                         000067
1018421032351COBR_CAUC_BIC  NAVE INDUSTRIAL EIRELI - ME             000082772584100JACY LEITE DA SILVA                     RUA NERES GOMES Q.160 LT. 10            GOIANIA                                 74455367GO445680000103352882010002-2    07082013018GOIANIA             1110201300000000000240380CC                                                                                                                                                                                                                                                                                                                                                                                                         000068
1018421032351COBR_CAUC_BIC  NAVE INDUSTRIAL EIRELI - ME             000082772584100JACY LEITE DA SILVA                     RUA NERES GOMES Q.160 LT. 10            GOIANIA                                 74455367GO445680000203352891010002-3    07082013018GOIANIA             1011201300000000000240380CC                                                                                                                                                                                                                                                                                                                                                                                                         000069
1018421032351COBR_CAUC_BIC  NAVE INDUSTRIAL EIRELI - ME             000082772584100JACY LEITE DA SILVA                     RUA NERES GOMES Q.160 LT. 10            GOIANIA                                 74455367GO44568000030338546201035-1     26082013018GOIANIA             2710201300000000000208286CC                                                                                                                                                                                                                                                                                                                                                                                                         000070
1018421032351COBR_CAUC_BIC  NAVE INDUSTRIAL EIRELI - ME             000082772584100JACY LEITE DA SILVA                     RUA NERES GOMES Q.160 LT. 10            GOIANIA                                 74455367GO44568000040338547101035-2     26082013018GOIANIA             0811201300000000000208286CC                                                                                                                                                                                                                                                                                                                                                                                                         000071
1018421032351COBR_CAUC_BIC  NAVE INDUSTRIAL EIRELI - ME             000082772584100JACY LEITE DA SILVA                     RUA NERES GOMES Q.160 LT. 10            GOIANIA                                 74455367GO44568000050338548901035-3     26082013018GOIANIA             2011201300000000000208286CC                                                                                                                                                                                                                                                                                                                                                                                                         000072
1018421032351COBR_CAUC_BIC  NAVE INDUSTRIAL EIRELI - ME             000082772584100JACY LEITE DA SILVA                     RUA NERES GOMES Q.160 LT. 10            GOIANIA                                 74455367GO44568000060338549701035-4     26082013018GOIANIA             2811201300000000000208286CC                                                                                                                                                                                                                                                                                                                                                                                                         000073
1018421032351COBR_CAUC_BIC  NAVE INDUSTRIAL EIRELI - ME             000082772584100JACY LEITE DA SILVA                     RUA NERES GOMES Q.160 LT. 10            GOIANIA                                 74455367GO44568000070338550101035-5     26082013018GOIANIA             1012201300000000000208286CC                                                                                                                                                                                                                                                                                                                                                                                                         000074
1018421032351COBR_CAUC_BIC  NAVE INDUSTRIAL EIRELI - ME             000082772584100JACY LEITE DA SILVA                     RUA NERES GOMES Q.160 LT. 10            GOIANIA                                 74455367GO44568000080338551901035-6     26082013018GOIANIA             1612201300000000000208286CC                                                                                                                                                                                                                                                                                                                                                                                                         000075
1018421032351COBR_CAUC_BIC  NAVE INDUSTRIAL EIRELI - ME             000001946012181ROSANA CORDEIRO DE REZENDE              RUA SC.14 QD.07 LT.06                   GOIANIA                                 74474017GO4456700001033367639455-1      26072013018GOIANIA             1911201300000000000310521CC                                                                                                                                                                                                                                                                                                                                                                                                         000076
1018421032351COBR_CAUC_BIC  NAVE INDUSTRIAL EIRELI - ME             000001946012181ROSANA CORDEIRO DE REZENDE              RUA SC.14 QD.07 LT.06                   GOIANIA                                 74474017GO4456700002033367719455-2      26072013018GOIANIA             0412201300000000000310521CC                                                                                                                                                                                                                                                                                                                                                                                                         000077
1018421032351COBR_CAUC_BIC  NAVE INDUSTRIAL EIRELI - ME             000001946012181ROSANA CORDEIRO DE REZENDE              RUA SC.14 QD.07 LT.06                   GOIANIA                                 74474017GO4456700003033367809455-3      26072013018GOIANIA             1912201300000000000310521CC                                                                                                                                                                                                                                                                                                                                                                                                         000078
1018421032351COBR_CAUC_BIC  NAVE INDUSTRIAL EIRELI - ME             000001946012181ROSANA CORDEIRO DE REZENDE              RUA SC.14 QD.07 LT.06                   GOIANIA                                 74474017GO4456700004033367989455-4      26072013018GOIANIA             0301201400000000000310521CC                                                                                                                                                                                                                                                                                                                                                                                                         000079
1018421032351COBR_CAUC_BIC  NAVE INDUSTRIAL EIRELI - ME             000001946012181ROSANA CORDEIRO DE REZENDE              RUA SC.14 QD.07 LT.06                   GOIANIA                                 74474017GO4456700005033368019455-5      26072013018GOIANIA             1801201400000000000310521CC                                                                                                                                                                                                                                                                                                                                                                                                         000080
1018421032351COBR_CAUC_BIC  NAVE INDUSTRIAL EIRELI - ME             000056867158153MARCIA REGINA RODRIGUES                 RUA J4 Q51 L01                          GOIANIA                                 74845480GO4456600001032984468179-1      26062013018GOIANIA             1710201300000000000257308CC                                                                                                                                                                                                                                                                                                                                                                                                         000081
1018421032351COBR_CAUC_BIC  NAVE INDUSTRIAL EIRELI - ME             000056867158153MARCIA REGINA RODRIGUES                 RUA J4 Q51 L01                          GOIANIA                                 74845480GO4456600002032984548179-2      26062013018GOIANIA             0111201300000000000257308CC                                                                                                                                                                                                                                                                                                                                                                                                         000082
1018421032351COBR_CAUC_BIC  NAVE INDUSTRIAL EIRELI - ME             000056867158153MARCIA REGINA RODRIGUES                 RUA J4 Q51 L01                          GOIANIA                                 74845480GO4456600003032984628179-3      26062013018GOIANIA             1411201300000000000257308CC                                                                                                                                                                                                                                                                                                                                                                                                         000083
1018421032351COBR_CAUC_BIC  NAVE INDUSTRIAL EIRELI - ME             000056867158153MARCIA REGINA RODRIGUES                 RUA J4 Q51 L01                          GOIANIA                                 74845480GO4456600004032984718179-4      26062013018GOIANIA             2711201300000000000257308CC                                                                                                                                                                                                                                                                                                                                                                                                         000084
1018421032351COBR_CAUC_BIC  NAVE INDUSTRIAL EIRELI - ME             000056867158153MARCIA REGINA RODRIGUES                 RUA J4 Q51 L01                          GOIANIA                                 74845480GO4456600005032984898179-5      26062013018GOIANIA             1012201300000000000257308CC                                                                                                                                                                                                                                                                                                                                                                                                         000085
1018421032351COBR_CAUC_BIC  NAVE INDUSTRIAL EIRELI - ME             000056867158153MARCIA REGINA RODRIGUES                 RUA J4 Q51 L01                          GOIANIA                                 74845480GO4456600006032985868179-6      26062013018GOIANIA             2212201300000000000257308CC                                                                                                                                                                                                                                                                                                                                                                                                         000086
1018421032351COBR_CAUC_BIC  NAVE INDUSTRIAL EIRELI - ME             002469480000160NELINHO CONFECCOES LTDA                 R.DAS AURORAS SN QD 11 LT20 JD CERRADO  GOIANIA                                 74435280GO4456500001031710127033-2B     24042013018GOIANIA             1510201300000000000327430CC                                                                                                                                                                                                                                                                                                                                                                                                         000087
1018421032351COBR_CAUC_BIC  NAVE INDUSTRIAL EIRELI - ME             002469480000160NELINHO CONFECCOES LTDA                 R.DAS AURORAS SN QD 11 LT20 JD CERRADO  GOIANIA                                 74435280GO4456500002031710217033-3A     24042013018GOIANIA             1111201300000000000505860CC                                                                                                                                                                                                                                                                                                                                                                                                         000088
1018421032351COBR_CAUC_BIC  NAVE INDUSTRIAL EIRELI - ME             002469480000160NELINHO CONFECCOES LTDA                 R.DAS AURORAS SN QD 11 LT20 JD CERRADO  GOIANIA                                 74435280GO4456500003031710397033-4B     24042013018GOIANIA             0912201300000000000327430CC                                                                                                                                                                                                                                                                                                                                                                                                         000089
1018421032351COBR_CAUC_BIC  NAVE INDUSTRIAL EIRELI - ME             002469480000160NELINHO CONFECCOES LTDA                 R.DAS AURORAS SN QD 11 LT20 JD CERRADO  GOIANIA                                 74435280GO4456500004032418357363-3A     08052013018GOIANIA             0910201300000000000303760CC                                                                                                                                                                                                                                                                                                                                                                                                         000090
1018421032351COBR_CAUC_BIC  NAVE INDUSTRIAL EIRELI - ME             004918929000155G.V.C.IND.DE CONFECCOES LTDA            R.JOAO FREITAS Q21 L 09 C2              GOIANIA                                 74550140GO44564000010338847001049-1     27082013018GOIANIA             3010201300000000000248785CC                                                                                                                                                                                                                                                                                                                                                                                                         000091
1018421032351COBR_CAUC_BIC  NAVE INDUSTRIAL EIRELI - ME             004918929000155G.V.C.IND.DE CONFECCOES LTDA            R.JOAO FREITAS Q21 L 09 C2              GOIANIA                                 74550140GO44564000020338848801049-2     27082013018GOIANIA             0711201300000000000248785CC                                                                                                                                                                                                                                                                                                                                                                                                         000092
1018421032351COBR_CAUC_BIC  NAVE INDUSTRIAL EIRELI - ME             004918929000155G.V.C.IND.DE CONFECCOES LTDA            R.JOAO FREITAS Q21 L 09 C2              GOIANIA                                 74550140GO44564000030338849601049-3     27082013018GOIANIA             1511201300000000000248785CC                                                                                                                                                                                                                                                                                                                                                                                                         000093
1018421032351COBR_CAUC_BIC  NAVE INDUSTRIAL EIRELI - ME             004918929000155G.V.C.IND.DE CONFECCOES LTDA            R.JOAO FREITAS Q21 L 09 C2              GOIANIA                                 74550140GO44564000040338850001049-4     27082013018GOIANIA             2111201300000000000248785CC                                                                                                                                                                                                                                                                                                                                                                                                         000094
1018421032351COBR_CAUC_BIC  NAVE INDUSTRIAL EIRELI - ME             004918929000155G.V.C.IND.DE CONFECCOES LTDA            R.JOAO FREITAS Q21 L 09 C2              GOIANIA                                 74550140GO44564000050338851801049-5     27082013018GOIANIA             2911201300000000000248785CC                                                                                                                                                                                                                                                                                                                                                                                                         000095
1018421032351COBR_CAUC_BIC  NAVE INDUSTRIAL EIRELI - ME             000002818891124MARCOS AURELIO MEDEIROS LOPES           RUA VF 68 Q53 L15                       GOIANIA                                 74473620GO4456300001031708577029-2B     24042013018GOIANIA             1610201300000000000347210CC                                                                                                                                                                                                                                                                                                                                                                                                         000096
1018421032351COBR_CAUC_BIC  NAVE INDUSTRIAL EIRELI - ME             000002818891124MARCOS AURELIO MEDEIROS LOPES           RUA VF 68 Q53 L15                       GOIANIA                                 74473620GO4456300002031708657029-3A     24042013018GOIANIA             1511201300000000000536420CC                                                                                                                                                                                                                                                                                                                                                                                                         000097
1018421032351COBR_CAUC_BIC  NAVE INDUSTRIAL EIRELI - ME             000002818891124MARCOS AURELIO MEDEIROS LOPES           RUA VF 68 Q53 L15                       GOIANIA                                 74473620GO4456300003031708737029-4B     24042013018GOIANIA             1612201300000000000347210CC                                                                                                                                                                                                                                                                                                                                                                                                         000098
1018421032351COBR_CAUC_BIC  NAVE INDUSTRIAL EIRELI - ME             000030417082134JOSE J.DA S. FILHO CONFECCOES           RUA L14 Q46 LT19                        APARECIDA DE GO                         74950155GO4456200001031708907030-2B     24042013018GOIANIA             1010201300000000000310407CC                                                                                                                                                                                                                                                                                                                                                                                                         000099
1018421032351COBR_CAUC_BIC  NAVE INDUSTRIAL EIRELI - ME             000030417082134JOSE J.DA S. FILHO CONFECCOES           RUA L14 Q46 LT19                        APARECIDA DE GO                         74950155GO4456200002031709037030-3A     24042013018GOIANIA             1411201300000000000479564CC                                                                                                                                                                                                                                                                                                                                                                                                         000100
1018421032351COBR_CAUC_BIC  NAVE INDUSTRIAL EIRELI - ME             000030417082134JOSE J.DA S. FILHO CONFECCOES           RUA L14 Q46 LT19                        APARECIDA DE GO                         74950155GO4456200003031709117030-4B     24042013018GOIANIA             1912201300000000000310406CC                                                                                                                                                                                                                                                                                                                                                                                                         000101
1018421032351COBR_CAUC_BIC  NAVE INDUSTRIAL EIRELI - ME             016838341000170REDENCAO MAGAZINE LTDA                  AV. ARAGUAIA N.2516                     REDENCAO                                68551000PA4456100001031513565985-3B     05032013050BELEM               2210201300000000000668601CC                                                                                                                                                                                                                                                                                                                                                                                                         000102
1018421032351COBR_CAUC_BIC  NAVE INDUSTRIAL EIRELI - ME             016838341000170REDENCAO MAGAZINE LTDA                  AV. ARAGUAIA N.2516                     REDENCAO                                68551000PA4456100002032983148013-3B     10062013050BELEM               2501201400000000000257484CC                                                                                                                                                                                                                                                                                                                                                                                                         000103
1018421032351COBR_CAUC_BIC  NAVE INDUSTRIAL EIRELI - ME             005726969000168POMPIER INDUSTRIA DE CONFECCOES LT      R NERES GOMES S/N QD 160 LT 20 TREMENDAOGOIANIA                                 74455367GO4456000001031708147028-2B     24042013018GOIANIA             1010201300000000000236200CC                                                                                                                                                                                                                                                                                                                                                                                                         000104
1018421032351COBR_CAUC_BIC  NAVE INDUSTRIAL EIRELI - ME             005726969000168POMPIER INDUSTRIA DE CONFECCOES LT      R NERES GOMES S/N QD 160 LT 20 TREMENDAOGOIANIA                                 74455367GO4456000002031708227028-3A     24042013018GOIANIA             0411201300000000000364900CC                                                                                                                                                                                                                                                                                                                                                                                                         000105
1018421032351COBR_CAUC_BIC  NAVE INDUSTRIAL EIRELI - ME             005726969000168POMPIER INDUSTRIA DE CONFECCOES LT      R NERES GOMES S/N QD 160 LT 20 TREMENDAOGOIANIA                                 74455367GO4456000003031708317028-4B     24042013018GOIANIA             2611201300000000000236200CC                                                                                                                                                                                                                                                                                                                                                                                                         000106
1018421032351COBR_CAUC_COR  NAVE INDUSTRIAL EIRELI - ME             015404805000178BLESS CONFECCOES LTDA ME                PC DEP.HENRIQUE PINTO 74                CARUARU                                 55004190PE4455900001031276686181-5A     15032013800UNIBANCO S/A        2410201300000000000414380CC                                                                                                                                                                                                                                                                                                                                                                                                         000107
1018421032351COBR_CAUC_COR  NAVE INDUSTRIAL EIRELI - ME             015404805000178BLESS CONFECCOES LTDA ME                PC DEP.HENRIQUE PINTO 74                CARUARU                                 55004190PE4455900002031277066187-5A     15032013800UNIBANCO S/A        1210201300000000000413412CC                                                                                                                                                                                                                                                                                                                                                                                                         000108
1018421032351COBR_CAUC_BIC  NAVE INDUSTRIAL EIRELI - ME             007697480000130OLDENIRA T. DE SOUZA                    RUA DAS AURORAS N.11 LT.20              GOIANIA                                 74435280GO4455800001033368959456-3      26072013018GOIANIA             1912201300000000000261386CC                                                                                                                                                                                                                                                                                                                                                                                                         000109
1018421032351COBR_CAUC_BIC  NAVE INDUSTRIAL EIRELI - ME             007697480000130OLDENIRA T. DE SOUZA                    RUA DAS AURORAS N.11 LT.20              GOIANIA                                 74435280GO4455800002033369179456-5      26072013018GOIANIA             1601201400000000000261385CC                                                                                                                                                                                                                                                                                                                                                                                                         000110
1018421032351COBR_CAUC_BIC  NAVE INDUSTRIAL EIRELI - ME             007697480000130OLDENIRA T. DE SOUZA                    RUA DAS AURORAS N.11 LT.20              GOIANIA                                 74435280GO4455800003033423999607-3      30072013800GOIANIA             1310201300000000000295341CC                                                                                                                                                                                                                                                                                                                                                                                                         000111
1018421032351COBR_CAUC_COR  NAVE INDUSTRIAL EIRELI - ME             008772403000160MARANHAO CALCADOS LTDA ME               RUA FREDERICO FIGUEIRA N.338            BARRA DO CORDA                          65950000MA4455700001032405297293-2A     03052013900BRADESCO S/A        2611201300000000000730742CC                                                                                                                                                                                                                                                                                                                                                                                                         000112
1018421032351COBR_CAUC_BIC  NAVE INDUSTRIAL EIRELI - ME             000001549592190ABINAEL DE BARROS RIOS                  RUA RUI FORMOSO Q.04 LT.31              GOIANIA                                 74464115GO44556000010335270009703-3     07082013018GOIANIA             2610201300000000000371905CC                                                                                                                                                                                                                                                                                                                                                                                                         000113
1018421032351COBR_CAUC_BIC  NAVE INDUSTRIAL EIRELI - ME             000001549592190ABINAEL DE BARROS RIOS                  RUA RUI FORMOSO Q.04 LT.31              GOIANIA                                 74464115GO4455600002033424299609-3      30072013800GOIANIA             0810201300000000000258794CC                                                                                                                                                                                                                                                                                                                                                                                                         000114
1018421032351COBR_CAUC_BIC  NAVE INDUSTRIAL EIRELI - ME             008345115000120M.M.P DA SILVA                          AV 01, 265 - QD. 12, LT 04              GOIANIA                                 74653050GO4455500001032417977362-3A     08052013018GOIANIA             1110201300000000000376836CC                                                                                                                                                                                                                                                                                                                                                                                                         000115
1018421032351COBR_CAUC_BIC  NAVE INDUSTRIAL EIRELI - ME             008345115000120M.M.P DA SILVA                          AV 01, 265 - QD. 12, LT 04              GOIANIA                                 74653050GO4455500002032418017362-4B     08052013018GOIANIA             3110201300000000000243917CC                                                                                                                                                                                                                                                                                                                                                                                                         000116
1018421032351COBR_CAUC_COR  NAVE INDUSTRIAL EIRELI - ME             063684948000123M E DE MELO RICARDO ME                  RUA CAMBIXE N.13                        MANAUS                                  69085000AM4455400001031275286106-4B     12032013800UNIBANCO S/A        2211201300000000000542849CC                                                                                                                                                                                                                                                                                                                                                                                                         000117
1018421032351COBR_CAUC_COR  NAVE INDUSTRIAL EIRELI - ME             008764323000163ELZO RODRIGUES GARCIA-ME                AV.BRASIL N123                          CAMPO VERDE                             78840000MT44553000010335275110022-2B    06082013800UNIBANCO S/A        0111201300000000000506479CC                                                                                                                                                                                                                                                                                                                                                                                                         000118
1018421032351COBR_CAUC_COR  NAVE INDUSTRIAL EIRELI - ME             003373128000199PEDRO TECIDOS LTDA                      AV.DR HUGO DE MENDOCA,277               ITAITUBA                                68181000PA4455200001032637827703-2A     27052013900BRADESCO S/A        2212201300000000000501806CC                                                                                                                                                                                                                                                                                                                                                                                                         000119
1018421032351COBR_CAUC_COR  NAVE INDUSTRIAL EIRELI - ME             010777302000124MOREIRA MARQUES TECIDOS LTDA ME         R VISCONDE P. SEGURO N.457-ALOJA        FORMOSA                                 73801010GO4455100001032637237698-2A     27052013800UNIBANCO S/A        1512201300000000000251891CC                                                                                                                                                                                                                                                                                                                                                                                                         000120
1018421032351COBR_CAUC_COR  NAVE INDUSTRIAL EIRELI - ME             010777302000124MOREIRA MARQUES TECIDOS LTDA ME         R VISCONDE P. SEGURO N.457-ALOJA        FORMOSA                                 73801010GO4455100002032982507698-3B     27052013800UNIBANCO S/A        1401201400000000000244464CC                                                                                                                                                                                                                                                                                                                                                                                                         000121
1018421032351COBR_CAUC_COR  NAVE INDUSTRIAL EIRELI - ME             003264917000191SALU TECIDOS E CONFECCOES LTDA          AV.JOSE MARCELINO  N. 26                CATALAO                                 75701430GO4455000001032636187612-2A     23052013800UNIBANCO S/A        1212201300000000000243286CC                                                                                                                                                                                                                                                                                                                                                                                                         000122
1018421032351COBR_CAUC_COR  NAVE INDUSTRIAL EIRELI - ME             003264917000191SALU TECIDOS E CONFECCOES LTDA          AV.JOSE MARCELINO  N. 26                CATALAO                                 75701430GO4455000002032982417612-3B     23052013800UNIBANCO S/A        1101201400000000000236152CC                                                                                                                                                                                                                                                                                                                                                                                                         000123
1018421032351COBR_CAUC_COR  NAVE INDUSTRIAL EIRELI - ME             004860082000103TEIXEIRA ALMEIDA REPRESENTACOES         R CICERO DANTAS N103 PONT CENTRAL       FEIRA DE SANTAN                         44075105BA4454900001032415767439-3A     10052013800UNIBANCO S/A        0611201300000000000217539CC                                                                                                                                                                                                                                                                                                                                                                                                         000124
1018421032351COBR_CAUC_COR  NAVE INDUSTRIAL EIRELI - ME             004860082000103TEIXEIRA ALMEIDA REPRESENTACOES         R CICERO DANTAS N103 PONT CENTRAL       FEIRA DE SANTAN                         44075105BA4454900002032415927441-3A     10052013800UNIBANCO S/A        0611201300000000000217539CC                                                                                                                                                                                                                                                                                                                                                                                                         000125
1018421032351COBR_CAUC_COR  NAVE INDUSTRIAL EIRELI - ME             007129840000106JOSIMAR DA S.CAMPOS ME                  R 7 SETEMBRO,N 1776                    ALTAMIRA                                68371000PA4454800001031513485979-3B     05032013800UNIBANCO S/A        2210201300000000000428108CC                                                                                                                                                                                                                                                                                                                                                                                                         000126
1018421032351COBR_CAUC_COR  NAVE INDUSTRIAL EIRELI - ME             000025989681828ADRIANO DINIZ RIBEIRO                   RUA MARIO BIS N.270                     PENAPOLIS                               16300000SP4454700001032416577448-3A     10052013800UNIBANCO S/A        0611201300000000000423178CC                                                                                                                                                                                                                                                                                                                                                                                                         000127
1018421032351COBR_CAUC_COR  NAVE INDUSTRIAL EIRELI - ME             008113982000130COMERCIAL DE CALCADOS DELMIRO LTDA      AV.PRES. CASTELO BRANCO N.73            DELMIRO GOUVEIA                         57480000AL4454600001031515516657-3B     03042013900BRADESCO S/A        2210201300000000000397150CC                                                                                                                                                                                                                                                                                                                                                                                                         000128
1018421032351COBR_CAUC_COR  NAVE INDUSTRIAL EIRELI - ME             008157201000109CALCADOS PETROLANDIA LTDA ME            R.CECILIA DELGADO 62 PARTE II           PETROLANDIA                             56460000PE4454500001031515266647-3B     03042013900BRADESCO S/A        2210201300000000000364147CC                                                                                                                                                                                                                                                                                                                                                                                                         000129
1018421032351COBR_CAUC_COR  NAVE INDUSTRIAL EIRELI - ME             001629423000138I F S SILVA CONFECCOES ME               AV.DOS INGAS N.3935                     SINOP                                   78555024MT4454400001031274126058-5A     08032013900BRADESCO S/A        1210201300000000000345280CC                                                                                                                                                                                                                                                                                                                                                                                                         000130
1018421032351COBR_CAUC_BIC  NAVE INDUSTRIAL EIRELI - ME             004442200000155N.T.DE OLIVEIRA COMERCIO ME             AV.IRURA N 1021                         SANTAREM                                68040110PA4454300001033527859829-3A     01082013050BELEM               1311201300000000000291642CC                                                                                                                                                                                                                                                                                                                                                                                                         000131
1018421032351COBR_CAUC_COR  NAVE INDUSTRIAL EIRELI - ME             006338428000125SANTA INES CALCADOS LTDA-ME             RUA DO COMERCIO, 372                    SANTA INES                              65300000MA4454200001031705636826-3A     12042013800UNIBANCO S/A        1212201300000000000275408CC                                                                                                                                                                                                                                                                                                                                                                                                         000132
1018421032351COBR_CAUC_COR  NAVE INDUSTRIAL EIRELI - ME             015564197000169JOZILEIDE DE ALENCAR DA SILVA           R DECIMA SEGUNDA N 797                  ITAITUBA                                68180190PA4454100001032635967582-5A     21052013900BRADESCO S/A        1712201300000000000271656CC                                                                                                                                                                                                                                                                                                                                                                                                         000133
1018421032351COBR_CAUC_COR  NAVE INDUSTRIAL EIRELI - ME             084039031000146DROGARIA MASTER LTDA                    AV.VILLE ROY N.5002                     BOA VISTA                               69305098RR4454000001032638047709-4B     27052013800UNIBANCO S/A        0212201300000000000260711CC                                                                                                                                                                                                                                                                                                                                                                                                         000134
1018421032351COBR_CAUC_COR  NAVE INDUSTRIAL EIRELI - ME             084125178000159J F DE LACERDA                          RUA 02 N423 SALA 01                     MANAUS                                  69042080AM4453900001031514456492-4B     27032013800UNIBANCO S/A        1710201300000000000258986CC                                                                                                                                                                                                                                                                                                                                                                                                         000135
1018421032351COBR_CAUC_BIC  NAVE INDUSTRIAL EIRELI - ME             026682112000163OSVALDO ARAUJO COM.VAR.DE ARTIGOS       AV RUDA SN Q41A L1 S 4-5                APARECIDA DE GO                         74905760GO4453800001032414797284-5A     03052013018GOIANIA             1211201300000000000249678CC                                                                                                                                                                                                                                                                                                                                                                                                         000136
1018421032351COBR_CAUC_COR  NAVE INDUSTRIAL EIRELI - ME             009216915000103LEONOR TECIDOS LTDA                     R PARAIBA N22 Q57 L22                   LUIS EDUARDO MA                         47850000BA4453700001031515426654-2A     03042013800UNIBANCO S/A        2210201300000000000248941CC                                                                                                                                                                                                                                                                                                                                                                                                         000137
1018421032351COBR_CAUC_BIC  NAVE INDUSTRIAL EIRELI - ME             014869365000161FENIX CONFECCOES ASSESSORIA             R RIO FORMOSO Q4 LT31                   GOIANIA                                 74464115GO4453600001032983228104-4B     17062013018GOIANIA             2311201300000000000245376CC                                                                                                                                                                                                                                                                                                                                                                                                         000138
1018421032351COBR_CAUC_COR  NAVE INDUSTRIAL EIRELI - ME             006976782000185S.M.CENTER MODAS LTDA                   AV GOIAS N. 548                         SAO MIGUEL DO A                         76590000GO4453500001031276336165-3B     14032013900BRADESCO S/A        1210201300000000000233898CC                                                                                                                                                                                                                                                                                                                                                                                                         000139
1018421032351COBR_CAUC_COR  NAVE INDUSTRIAL EIRELI - ME             002778022000102ADELINA OLIVEIRA DA SILVA               AV.DR ANT M.GUIMARES 214                BRUMADO                                 46100000BA4453400001031273155997-5A     05032013800UNIBANCO S/A        1210201300000000000229897CC                                                                                                                                                                                                                                                                                                                                                                                                         000140
1018421032351COBR_CAUC_COR  NAVE INDUSTRIAL EIRELI - ME             005894918000307INACIO CALCADOS E CONFECCOES LTDA       AV. BRASIL  N.391                       JI-PARANA                               76908354RO4453300001032511487480-4A     14052013900BRADESCO S/A        0810201300000000000228832CC                                                                                                                                                                                                                                                                                                                                                                                                         000141
1018421032351COBR_CAUC_COR  NAVE INDUSTRIAL EIRELI - ME             005114428000189KAULHINHA INDUSTRIA E COMERCIO LTD      RUA HUMAITA N.01 LJ01,02,03             CARIACICA                               29151360ES4453200001032414527263-5A     02052013800UNIBANCO S/A        1411201300000000000226392CC                                                                                                                                                                                                                                                                                                                                                                                                         000142
