0REMESSANOTIFICACAO ELETRONICA        99999999999999BICBANCO                                AV. PAULISTA                            1048      12.ANDAR  BELA VISTA                    SAO PAULO                     01310100SP1121739360CORTINHAL                               COORDENADOR                             28022014                                                                                                                                                                                                                                                                                                                                                                                      000001
1015421022340COBR_CAUC_BIC  BORRACHAS VIPAL SA                      050937564000123CORREIAS MERCURIO S/A-INDUSTRIA CO      R. JOSE ESPINA, 10  CAIXA POSTAL 282    JUNDIAI                                 13210780SP465830000101231249047159001   25022014007PAULISTA            0804201400000000016696476CC                                                                                                                                                                                                                                                                                                                                                                                                         000002
1015421022340COBR_CAUC_COR  BORRACHAS VIPAL SA                      081374845000149F. M. PNEUS LTDA                        AV. MARAVILHA, 833 - CX                 MARAVILHA                               89874000SC465840000101231303047161001   25022014800UNIBANCO S/A        2703201400000000010287544CC                                                                                                                                                                                                                                                                                                                                                                                                         000003
1015421022340COBR_CAUC_COR  BORRACHAS VIPAL SA                      081374845000149F. M. PNEUS LTDA                        AV. MARAVILHA, 833 - CX                 MARAVILHA                               89874000SC465840000201231311047161002   25022014800UNIBANCO S/A        2604201400000000010284458CC                                                                                                                                                                                                                                                                                                                                                                                                         000004
1015421022340COBR_CAUC_COR  BORRACHAS VIPAL SA                      081374845000149F. M. PNEUS LTDA                        AV. MARAVILHA, 833 - CX                 MARAVILHA                               89874000SC465840000301231320047161003   25022014800UNIBANCO S/A        2605201400000000010284459CC                                                                                                                                                                                                                                                                                                                                                                                                         000005
1007421072259COBR_CAUC_COR  BOMBRIL S/A                             047079496000102MARANHAO DISTRIBUICAO S.A.              R ANUAR PACHA 400                       CATANDUVA                               15800670SP4658500001027005640055622001  25022014900BRADESCO S/A        3103201400000000010174395CC                                                                                                                                                                                                                                                                                                                                                                                                         000006
1036421016893COBR_CAUC_COR  TECAL ALUMINIO DA AMAZONIA LTDA         004012043000148SHOWA DO BRASIL LTDA                    RUA RIO QUIXITO                         MANAUS                                  69075830AM4658600001059960500000057087  14022014900BRADESCO S/A        1603201400000000015293036CC                                                                                                                                                                                                                                                                                                                                                                                                         000007
1046421007085COBR_CAUC_BIC  H.F.SISTEMAS DE FREIO LTDA              025630302001146REAL MOTO PECAS LTDA                    AV VASCONCELOS COSTA, N 1431            UBERLANDIA                              38400452MG465870000102309291019888      27022014028UBERLANDIA          1204201400000000010736722CC                                                                                                                                                                                                                                                                                                                                                                                                         000008
9000005                                                                                                                                                                                                                                                                                                                                                                                                                                                                                                                                                                                                                                                                                                               000009
