0REMESSANOTIFICACAO ELETRONICA        99999999999999BICBANCO                                AV. PAULISTA                            1048      12.ANDAR  BELA VISTA                    SAO PAULO                     01310100SP1121739360CORTINHAL                               COORDENADOR                             16102012                                                                                                                                                                                                                                                                                                                                                                                      000001
1023421000065DIR_CREDIT     ENTERPA ENGENHARIA LTDA                 005995766000177PM DE MACAPA                            AV FAB N 840 CENTRO                     MACAPA - AMAPA                          68900453AP3807300001                                                                                                                                          011916432           161220090000011414170/2009-PMM17092012000403contrato de prestação de serviços de colteta e transporte de residuos  solidos urbanos alem de outros inerentes a limpeza publica no municipio        de macapa                                                                                 047892906000121              000002
1014420939021COBR_CAUC_BIC  EDITORA O DIA S/A                       010757237000175NOVA CASAS BAHIA S/A                    CONDE FRANCISCO MATARAZZO 100           SAO CAETANO DO                          09520900SP3833000001024812890662442     15102012038ABC                 0511201200000000018973814CC                                                                                                                                                                                                                                                                                                                                                                                                         000003
1048421002195COBR_CAUC_COR  SERVIMED COMERCIAL LTDA                 006880016000112LIGMED COM DE MEDS LTDA                 AV T2 1820                              GOIANIA                                 74215010GO383310000100092982663138  16  11102012900BRADESCO S/A        0111201200000000027385432CC                                                                                                                                                                                                                                                                                                                                                                                                         000004
1046421007212COBR_CAUC_BIC  MANCHESTER QUIMICA DO BRASIL SA         060561719009503AKZO NOBEL LTDA - MAUA                  AV PAPA JOAO XXIII, 2100                MAUA                                    09370901SP38332000010162054501025411    10102012038ABC                 1112201200000000012564661CC                                                                                                                                                                                                                                                                                                                                                                                                         000005
1007421034080COBR_CAUC_COR  SIDMEX INTERNACIONAL LTDA               013316091000110GABRISE LTDA EPP                        IVO SILVEIRA,7007-SALA 15               BRUSQUE                                 88355202SC3833300001014958601197.12     15102012800UNIBANCO S/A        0912201200000000017785308CC                                                                                                                                                                                                                                                                                                                                                                                                         000006
1006441005236COBR_CAUC_COR  F A MENDES ARAGAO ME                    039622121000100GRANITO ZUCCHI LTDA                     AV JACARAIPE,1423-A                     SERRA                                   29175217ES383340000109235384427         11102012800UNIBANCO S/A        1511201200000000010071633CC                                                                                                                                                                                                                                                                                                                                                                                                         000007
9000006                                                                                                                                                                                                                                                                                                                                                                                                                                                                                                                                                                                                                                                                                                               000008
