0REMESSANOTIFICACAO ELETRONICA        99999999999999BICBANCO                                AV. PAULISTA                            1048      12.ANDAR  BELA VISTA                    SAO PAULO                     01310100SP1121739360CORTINHAL                               COORDENADOR                             07122011                                                                                                                                                                                                                                                                                                                                                                                      000001
1019421004658COBR_CAUC_COR  S/A ESTADO DE MINAS                     022196430000163HABITARE CONSTRUTORA E INCORPORADO      AIMORES 2825 BR                         BELO HORIZONTE                          30140073MG324200000101134147766447-1    06122011900BRADESCO S/A        3012201100000000011233484CC                                                                                                                                                                                                                                                                                                                                                                                                         000002
1021420930887COBR_CAUC_BIC  DEDINI S/A INDUSTRIAS DE BASE           061068342000138PRENSAS SCHULER SA                      AV FAGUNDES DE OLIVEIRA PIRAPORINHA BR  DIADEMA                                 09950904SP32421000010625781626089-1-1   02122011038ABC                 3012201100000000010781320CC                                                                                                                                                                                                                                                                                                                                                                                                         000003
1031421007893COBR_CAUC_COR  DIPLOMATA S/A  INDL. E COMERCIAL        091830836000683OLFAR - INDUSTRIA E COMERCIO DE OL      ROD EST BR 153 KM 53 SN                 ERECHIM                                 99700000RS3242200001049543090001036-01  05122011800UNIBANCO S/A        2501201200000000010250000CC                                                                                                                                                                                                                                                                                                                                                                                                         000004
1031421007893COBR_CAUC_COR  DIPLOMATA S/A  INDL. E COMERCIAL        091830836000683OLFAR - INDUSTRIA E COMERCIO DE OL      ROD EST BR 153 KM 53 SN                 ERECHIM                                 99700000RS3242200002049543170001036-02  05122011800UNIBANCO S/A        2501201200000000010250000CC                                                                                                                                                                                                                                                                                                                                                                                                         000005
1031421007893COBR_CAUC_COR  DIPLOMATA S/A  INDL. E COMERCIAL        091830836000683OLFAR - INDUSTRIA E COMERCIO DE OL      ROD EST BR 153 KM 53 SN                 ERECHIM                                 99700000RS3242200003049543250001036-03  05122011800UNIBANCO S/A        2501201200000000010250000CC                                                                                                                                                                                                                                                                                                                                                                                                         000006
1031421007893COBR_CAUC_COR  DIPLOMATA S/A  INDL. E COMERCIAL        091830836000683OLFAR - INDUSTRIA E COMERCIO DE OL      ROD EST BR 153 KM 53 SN                 ERECHIM                                 99700000RS3242200004049543330001036-04  05122011800UNIBANCO S/A        2501201200000000010250000CC                                                                                                                                                                                                                                                                                                                                                                                                         000007
1031421007893COBR_CAUC_COR  DIPLOMATA S/A  INDL. E COMERCIAL        091830836000683OLFAR - INDUSTRIA E COMERCIO DE OL      ROD EST BR 153 KM 53 SN                 ERECHIM                                 99700000RS3242200005049543410001036-05  05122011800UNIBANCO S/A        2501201200000000010250000CC                                                                                                                                                                                                                                                                                                                                                                                                         000008
1015421019587COBR_CAUC_BIC  SOCIEDADE GERAL DE EMPREITADAS LTDA     090063470000197CONPASUL CONSTRUCAO E SERVIÇOS LTD      LINHA SANTA RITA                        ESTRELA                                 95880000RS3242300001009079661129        23112011015PORTO ALEGRE        2102201200000000014192916CC                                                                                                                                                                                                                                                                                                                                                                                                         000009
1031421007850COBR_CAUC_BIC  AGRICOLA JANDELLE S/A                   003083231000528CEMA CENTRAL MINEIRA ATACADISTA LT      ROD BR 040 KM 688 S/N PAVILHAO 05 CEASA CONTAGEM                                32145900MG3242400001049542790006573401  05122011019BELO HORIZONTE      0401201200000000010535271CC                                                                                                                                                                                                                                                                                                                                                                                                         000010
1021141012725COBR_CAUC_BIC  MABE BRASIL ELETRODOMESTICOS LTDA       010757237010723NOVA CASA BAHIA S/A                     RODOVIA ANHANGUERA 0, S/N KM52          JUNDIAI                                 13203850SP3242500001062576890000558056  29112011007PAULISTA            1912201100000000010087680TD                                                                                                                                                                                                                                                                                                                                                                                                         000011
1021141012725COBR_CAUC_BIC  MABE BRASIL ELETRODOMESTICOS LTDA       010757237010723NOVA CASA BAHIA S/A                     RODOVIA ANHANGUERA 0, S/N KM52          JUNDIAI                                 13203850SP3242500002062576970000559486  30112011007PAULISTA            1912201100000000010274220TD                                                                                                                                                                                                                                                                                                                                                                                                         000012
1021141012725COBR_CAUC_BIC  MABE BRASIL ELETRODOMESTICOS LTDA       010757237010723NOVA CASA BAHIA S/A                     RODOVIA ANHANGUERA 0, S/N KM52          JUNDIAI                                 13203850SP3242500003062577010000559491  30112011007PAULISTA            1912201100000000010274220TD                                                                                                                                                                                                                                                                                                                                                                                                         000013
1021141012725COBR_CAUC_BIC  MABE BRASIL ELETRODOMESTICOS LTDA       010757237010723NOVA CASA BAHIA S/A                     RODOVIA ANHANGUERA 0, S/N KM52          JUNDIAI                                 13203850SP3242500004062577190000559492  30112011007PAULISTA            1912201100000000010274220TD                                                                                                                                                                                                                                                                                                                                                                                                         000014
1021141012725COBR_CAUC_BIC  MABE BRASIL ELETRODOMESTICOS LTDA       010757237010723NOVA CASA BAHIA S/A                     RODOVIA ANHANGUERA 0, S/N KM52          JUNDIAI                                 13203850SP3242500005062577270000559497  30112011007PAULISTA            1912201100000000010274220TD                                                                                                                                                                                                                                                                                                                                                                                                         000015
1021141012725COBR_CAUC_BIC  MABE BRASIL ELETRODOMESTICOS LTDA       010757237010723NOVA CASA BAHIA S/A                     RODOVIA ANHANGUERA 0, S/N KM52          JUNDIAI                                 13203850SP3242500006062577350000559498  30112011007PAULISTA            1912201100000000010274220TD                                                                                                                                                                                                                                                                                                                                                                                                         000016
1050421000089COBR_CAUC_BIC  ATIVO ALIMENTOS LTDA                    007172011000106M P F NOVA UNIAO ALIMENTOS LTDA         R BRASILEIRA 85                         GUARULHOS                               07043010SP324260000100297657116199/1    05122011037GUARULHOS           1312201100000000035827365CC                                                                                                                                                                                                                                                                                                                                                                                                         000017
1044421013038DIR_CREDIT     R D C GURGEL                            024519654000194SECRETARIA DE ESTADO DA TRIBUTACAO-SET  LOC CENTRO ADMINISTRATIVO, SN           LAGOA NOVA - NATAL                      59037155RN3244800001                                                                                                                                          011389430           010120110000018175010/2010    30092011000403Locaçãod e 45 (quarenta e cinco) veículos automotores para atender as  necessidades da Secretaria de EStado da Tributação.                                                                                                                      006292496000109              000018
1044421013038DIR_CREDIT     R D C GURGEL                            000375972000160INST NACIONAL COL REFORMA AGRARIA INCRA ED PAL DESENVOLVIMENTO - 18 ANDAR       BRASILIA                                70310500DF3244900001                                                                                                                                          011389430           07102010000001817617.001/10   30092011000403Locação de veículos, para o deslocamento de servidores deste órgão em  serviço na execução de atividades para cumprimento de metas.                                                                                                             006292496000109              000019
1044421004713DIR_CREDIT     KIZO CONSTRUCAO E SERVICO LTDA          008113466000105PM DE LAJES                             RUA RAMIRO PEREIRA DA SILVA,17          LAJES/RN                                59535000RN3245000001                                                                                                                                          011565300           111220090000011266005/2009    28102011000403Execução de serviços de construção de uma creche escola padrão tipo B  FNDE/ME, no Município de Lajes-RN.                                                                                                                                       010704799000150              000020
1044421009073DIR_CREDIT     ESTRUTURAL EDIFICACOES E PROJETOS L     024365710000183UFRN - UNIVERSIDADE FEDERAL DO RN       AV SENADOR SALGADO FILHO, 3000          NATAL                                   59078970RN3245100001                                                                                                                                          481017064           051020100000019754091/2010-UFR27092011000404Construção dos prédios destinados a um bloco de salas de aulas e a um  auditório no Centro de Ensino Superior do Seridó Campus de Caiacó/RN.                                                                                                    004201519000199              000021
1044421009073DIR_CREDIT     ESTRUTURAL EDIFICACOES E PROJETOS L     008274821000128SECRETARIA DE ESTADO DO DESENV. ECONOMICLOC CENTRO ADMINISTRATIVO, BR 101 KM 1  NATAL                                   59037155RN3245200001                                                                                                                                          481016912           300920100000018961080/2010    29082011000404Construção do Centro Vocacional Tecnológico Têxtil do Seridó em Caicó/ RN.                                                                                                                                                                      004201519000199              000022
1044421009073DIR_CREDIT     ESTRUTURAL EDIFICACOES E PROJETOS L     024365710000183UFRN - UNIVERSIDADE FEDERAL DO RN       AV SENADOR SALGADO FILHO, 3000          NATAL                                   59078970RN3245300001                                                                                                                                          481015894           171220100000016938123/2010-UFR29042011000404Ampliação do Departamento de Comunicação Social do CCHLA no Campos Cen-tral da UFRN.                                                                                                                                                            004201519000199              000023
9000013                                                                                                                                                                                                                                                                                                                                                                                                                                                                                                                                                                                                                                                                                                               000024
