0REMESSANOTIFICACAO ELETRONICA        99999999999999BICBANCO                                AV. PAULISTA                            1048      12.ANDAR  BELA VISTA                    SAO PAULO                     01310100SP1121739360CORTINHAL                               COORDENADOR                             04072012                                                                                                                                                                                                                                                                                                                                                                                      000001
1007421044581COBR_CAUC_BIC  GRANCARGA TRANSP. E GUINDASTES S/A.     001027335000166WOBBEN WINDPOWER IND.E COM.LTDA.        AV.FERNANDO STECCA,100                  SOROCABA                                18087149SP362730000101321667002329      02072012007PAULISTA            3108201200000000076415310CC                                                                                                                                                                                                                                                                                                                                                                                                         000002
1007421044581COBR_CAUC_BIC  GRANCARGA TRANSP. E GUINDASTES S/A.     001027335000166WOBBEN WINDPOWER IND.E COM.LTDA.        AV.FERNANDO STECCA,100                  SOROCABA                                18087149SP362730000201321683002328      03072012007PAULISTA            3108201200000000091015118CC                                                                                                                                                                                                                                                                                                                                                                                                         000003
1038421018922COBR_CAUC_COR  AMEPLAN ASSIST MEDICA PLANEJADA         011031202000117V. METROPOLITANA LTDA                   R. GENARO DE CARVALHO,145               SAO PAULO                               04377220SP36274000010976536844139       03072012900BRADESCO S/A        2507201200000000012368542CC                                                                                                                                                                                                                                                                                                                                                                                                         000004
1046421001443COBR_CAUC_COR  COSTAO DO SANTINHO TUR E LAZER LTDA     014158418000136SISTEMAS DE ENSINO UNO LTDA             RUA PADRE ADELINO,758-SALA 01           SAO PAULO                               03303904SP362750000100006185139983      29062012900BRADESCO S/A        1607201200000000060527280CC                                                                                                                                                                                                                                                                                                                                                                                                         000005
1046421001443COBR_CAUC_COR  COSTAO DO SANTINHO TUR E LAZER LTDA     014158418000136SISTEMAS DE ENSINO UNO LTDA             RUA PADRE ADELINO,758-SALA 01           SAO PAULO                               03303904SP362750000200006193139984      03072012900BRADESCO S/A        1607201200000000013580850CC                                                                                                                                                                                                                                                                                                                                                                                                         000006
1016421014516COBR_CAUC_BIC  A.M COMERCIO DE FERRO E ACO LTDA        044013159008010SIEMENS LTDA                            AV. MARGINAL DOIS,281                   JUNDIAI                                 13214535SP36276000010347898831573/1     02072012007PAULISTA            3108201200000000019803737CC                                                                                                                                                                                                                                                                                                                                                                                                         000007
1047421002030DIR_CREDIT     ALCOAZUL S/A - ACUCAR E ALCOOL          061149589000189COPERSUCAR - COOP. PRODUTORES CANA DE ACAV. PAULISTA, 287, 3 ANDAR              SAO PAULO                               01311000SP3628100001                                                                                                                                          011744328           231120100000020222DEJR-4198/2031012012017002repasse pela Copersucar de 8% do saldo líquido credor da conta         movimento disponibilidade da USINA, no período de 30/01/2012 até 30/07/2013.                                                                                             044776409000170              000008
1018421016313DIR_CREDIT     SERRA NEGRA LOGISTICA LTDA              015104599000180SAMA S.A - MINERACOES ASSOCIADAS        MINA CANA BRAVA                         MINACU                                  76450000GO3628500001                                                                                                                                          011905798           040520090000009686            03072012000403locação de 13 caminhões VOLVO 6X4 e uma escavadeira                                                                                                                                                                                             010732172000103              000009
1007421027229COBR_CAUC_COR  ARFRIO S/A ARM GERAIS FRIGORIFICO       003387396000160SAO SALVADOR S/A                        ROD GO 156,0                            ITABERAI                                76630000GO36287000010003087111169       18062012900BRADESCO S/A        1307201200000000000779037CC                                                                                                                                                                                                                                                                                                                                                                                                         000010
1007421027229COBR_CAUC_COR  ARFRIO S/A ARM GERAIS FRIGORIFICO       003387396000160SAO SALVADOR S/A                        ROD GO 156,0                            ITABERAI                                76630000GO36287000020003113411235       02072012900BRADESCO S/A        1507201200000000001494996CC                                                                                                                                                                                                                                                                                                                                                                                                         000011
1007421027229COBR_CAUC_COR  ARFRIO S/A ARM GERAIS FRIGORIFICO       001119157000101MERIDIONAL MEAT IMP E EXP DE ALIM       AV IGUACU,451                           PORTO ALEGRE                            90470430RS36288000010003104511211       02072012900BRADESCO S/A        1007201200000000000650001CC                                                                                                                                                                                                                                                                                                                                                                                                         000012
1007421027229COBR_CAUC_COR  ARFRIO S/A ARM GERAIS FRIGORIFICO       001119157000101MERIDIONAL MEAT IMP E EXP DE ALIM       AV IGUACU,451                           PORTO ALEGRE                            90470430RS36288000020003105311212       02072012900BRADESCO S/A        1007201200000000000748293CC                                                                                                                                                                                                                                                                                                                                                                                                         000013
1007421027229COBR_CAUC_COR  ARFRIO S/A ARM GERAIS FRIGORIFICO       001119157000101MERIDIONAL MEAT IMP E EXP DE ALIM       AV IGUACU,451                           PORTO ALEGRE                            90470430RS36288000030003106111213       02072012900BRADESCO S/A        1007201200000000000126541CC                                                                                                                                                                                                                                                                                                                                                                                                         000014
1007421027229COBR_CAUC_COR  ARFRIO S/A ARM GERAIS FRIGORIFICO       003785585000190FRIGORIFICO MIRANTE DO PARANA LTDA      EST VICINAL PANORAMA A OURO VERD,0      PANORAMA                                17980000SP36289000010003107011214       02072012900BRADESCO S/A        1007201200000000000563481CC                                                                                                                                                                                                                                                                                                                                                                                                         000015
1007421027229COBR_CAUC_COR  ARFRIO S/A ARM GERAIS FRIGORIFICO       003785585000190FRIGORIFICO MIRANTE DO PARANA LTDA      EST VICINAL PANORAMA A OURO VERD,0      PANORAMA                                17980000SP36289000020003108811215       02072012900BRADESCO S/A        1007201200000000001013927CC                                                                                                                                                                                                                                                                                                                                                                                                         000016
1007421027229COBR_CAUC_COR  ARFRIO S/A ARM GERAIS FRIGORIFICO       068090240000168MCCAIN DO BRASIL ALIMENTOS LTDA         R. OLIMPIADAS,100                       SAO PAULO                               04551000SP36290000010003086311159       18062012900BRADESCO S/A        0507201200000000000974885CC                                                                                                                                                                                                                                                                                                                                                                                                         000017
1007421027229COBR_CAUC_COR  ARFRIO S/A ARM GERAIS FRIGORIFICO       068090240000168MCCAIN DO BRASIL ALIMENTOS LTDA         R. OLIMPIADAS,100                       SAO PAULO                               04551000SP36290000020003102911203       02072012900BRADESCO S/A        2007201200000000001243473CC                                                                                                                                                                                                                                                                                                                                                                                                         000018
1007421027229COBR_CAUC_COR  ARFRIO S/A ARM GERAIS FRIGORIFICO       003555338001170HUNTSMAN QUIMICA BRASIL LTDA            AV IBIRAMA,518                          TABOAO DA SERRA                         06785300SP3629100001000311421452        02072012900BRADESCO S/A        1007201200000000002582489CC                                                                                                                                                                                                                                                                                                                                                                                                         000019
1007421027229COBR_CAUC_COR  ARFRIO S/A ARM GERAIS FRIGORIFICO       045050663000159MARIMEX DESPACHOS TRANSPORTES E SE      RUA XAVIER PINHEIRO,23                  SANTOS                                  11015090SP362920000100031169000568      02072012900BRADESCO S/A        3007201200000000002631512CC                                                                                                                                                                                                                                                                                                                                                                                                         000020
1007421027229COBR_CAUC_COR  ARFRIO S/A ARM GERAIS FRIGORIFICO       053084695000101IGLU COMERCIAL IMPOR LTDA               RUA DOS VIAJANTES,327                   MARILIA                                 17520220SP3629300001000312071469        02072012900BRADESCO S/A        1207201200000000003691449CC                                                                                                                                                                                                                                                                                                                                                                                                         000021
1007421027229COBR_CAUC_COR  ARFRIO S/A ARM GERAIS FRIGORIFICO       064904295002904CAMIL ALIMENTOS S/A                     RUA SAO JORGE,95                        SAO GONCALO                             24426395RJ362940000100031193000089      02072012900BRADESCO S/A        1607201200000000004832025CC                                                                                                                                                                                                                                                                                                                                                                                                         000022
9000014                                                                                                                                                                                                                                                                                                                                                                                                                                                                                                                                                                                                                                                                                                               000023
