0REMESSANOTIFICACAO ELETRONICA        99999999999999BICBANCO                                AV. PAULISTA                            1048      12.ANDAR  BELA VISTA                    SAO PAULO                     01310100SP1121739360CORTINHAL                               COORDENADOR                             28102014                                                                                                                                                                                                                                                                                                                                                                                      000001
1048421000338COBR_CAUC_COR  FRIGOESTRELA S A  EM RECUP JUDICIAL     050947761001871IRMAOS RUSSI LTDA                       RUA LUIS ALLI FARDYN SALA 03, 590       CAJAMAR                                 07750000SP4997400001087819570038436701  25102014900BRADESCO S/A        2911201400000000010404170CC                                                                                                                                                                                                                                                                                                                                                                                                         000002
1031421011181COBR_CAUC_COR  AGROIND IRMAOS DALLA COSTA LTDA         003083231000790CEMA CENTRAL MINEIRA ATACADISTA LT      ROD BR-040 KM 515                  00750RIBEIRAO DAS NE                         33825160MG4997500001054520054706/1      15102014800UNIBANCO S/A        1411201400000000011790601CC                                                                                                                                                                                                                                                                                                                                                                                                         000003
1031421011181COBR_CAUC_BIC  AGROIND IRMAOS DALLA COSTA LTDA         064308299000129INTERCONTINENTAL COMERCIO DE ALIME      ROD PRESIDENTE DUTRA               01957SAO JOAO DE MER                         25515230RJ4997600001054520214728/1      16102014014RIO DE JANEIRO      1311201400000000010776268CC                                                                                                                                                                                                                                                                                                                                                                                                         000004
1049421004706COBR_CAUC_COR  COOPERATIVA AGROINDUSTRIAL SALTO VE     085782878000340PAMPLONA ALIMENTOS S/A                  RU A JOSINO MONTEIRO,2-CENTRO           ESTACAO                                 99930000RS49977000010047006821854       16102014700BANCO REAL- ABN AMRO1611201400000000014458146CC                                                                                                                                                                                                                                                                                                                                                                                                         000005
1021421017050COBR_CAUC_BIC  STAR DISTR PROD FARMACEUTICOS LTDA      061585865000151RAIA DROGASIL S/A                       AVENIDA CORIFEU DE AZEVEDO MARQUES, 3097SAO PAULO                               05339000SP4997800001000062340000417501  24102014007PAULISTA            0711201400000000030543907CC                                                                                                                                                                                                                                                                                                                                                                                                         000006
1021421017050COBR_CAUC_BIC  STAR DISTR PROD FARMACEUTICOS LTDA      061585865000151RAIA DROGASIL S/A                       AVENIDA CORIFEU DE AZEVEDO MARQUES, 3097SAO PAULO                               05339000SP4997800002000062930000418101  25102014007PAULISTA            0811201400000000033006110CC                                                                                                                                                                                                                                                                                                                                                                                                         000007
9000005                                                                                                                                                                                                                                                                                                                                                                                                                                                                                                                                                                                                                                                                                                               000008
