0REMESSANOTIFICACAO ELETRONICA        99999999999999BICBANCO                                AV. PAULISTA                            1048      12.ANDAR  BELA VISTA                    SAO PAULO                     01310100SP1121739360CORTINHAL                               COORDENADOR                             14102011                                                                                                                                                                                                                                                                                                                                                                                      000001
1043421005460DIR_CREDIT     LIDER LIMPEZA URBANA LTDA               008498701000104CIA DE SERVICOS URBANOS DE NATAL-URBANA RUA DR MARIO NEGOCIO 2389               NATAL                                   59040000RN3101800001                                                                                                                                          481009675           211220050000004311CONT 065/0A-29092011000404PRESTAÁAO DE SERVIÁOS DE LIMPEZA URBANA DA CIDADE DE NATAL DE ACORDO COM EDITAL 001/2005                                                                                                                                                        010317529000197              000002
1007421049419COBR_CAUC_BIC  UNIPAC EMBALAGENS LTDA                  003092122000143PROTERVAC IND E COM DE EMBALAGENS       AV. DR. RODRIGUES ALVES,82              SAO CAETANO DO                          09520300SP313230000100859981001028134D  30092011038ABC                 2801201200000000015990750CC                                                                                                                                                                                                                                                                                                                                                                                                         000003
1028421001518COBR_CAUC_COR  GAIA AGRIBUSINESS AGRICOLA LTDA         000013468758120JOANA DARC DO PRADO FERREIRA            RUA 01 ,182                             BOM JESUS                               75570000GO31324000010273852512747       10102011800UNIBANCO S/A        0504201200000000020760000CC                                                                                                                                                                                                                                                                                                                                                                                                         000004
1044421010977COBR_CAUC_BIC  FEDCO INDUSTRIA E COMERCIO LTDA         006626253012400EMPREENDIMENTOS PAGUE MENOS S/A         R. FRANCISCO CORDEIRO                   FORTALEZA                               60310490CE313250000101367887015417/1.1  10102011003CENTRO              1701201200000000012421760CC                                                                                                                                                                                                                                                                                                                                                                                                         000005
1015421002463COBR_CAUC_BIC  ON LINE SOC FOMENTO MERCANTIL LTDA      013140310000153ELEGANCE IN LEATHER IND COM COUROS      RUA IPIRANGA, 352                       PORTAO                                  93180000RS3135400001008763190070/J      24062011015PORTO ALEGRE        1910201100000000001602000CC                                                                                                                                                                                                                                                                                                                                                                                                         000006
1015421002463COBR_CAUC_BIC  ON LINE SOC FOMENTO MERCANTIL LTDA      013140310000153ELEGANCE IN LEATHER IND COM COUROS      RUA IPIRANGA, 352                       PORTAO                                  93180000RS3135400002008763270070/K      24062011015PORTO ALEGRE        2910201100000000001602000CC                                                                                                                                                                                                                                                                                                                                                                                                         000007
1015421002463COBR_CAUC_BIC  ON LINE SOC FOMENTO MERCANTIL LTDA      013140310000153ELEGANCE IN LEATHER IND COM COUROS      RUA IPIRANGA, 352                       PORTAO                                  93180000RS3135400003008947910076/11     19072011015PORTO ALEGRE        2311201100000000001253000CC                                                                                                                                                                                                                                                                                                                                                                                                         000008
1015421002463COBR_CAUC_BIC  ON LINE SOC FOMENTO MERCANTIL LTDA      013140310000153ELEGANCE IN LEATHER IND COM COUROS      RUA IPIRANGA, 352                       PORTAO                                  93180000RS3135400004008948050076/12     19072011015PORTO ALEGRE        0312201100000000001253000CC                                                                                                                                                                                                                                                                                                                                                                                                         000009
1015421002463COBR_CAUC_BIC  ON LINE SOC FOMENTO MERCANTIL LTDA      013140310000153ELEGANCE IN LEATHER IND COM COUROS      RUA IPIRANGA, 352                       PORTAO                                  93180000RS3135400005008948130076/13     19072011015PORTO ALEGRE        1312201100000000001253000CC                                                                                                                                                                                                                                                                                                                                                                                                         000010
1015421002463COBR_CAUC_BIC  ON LINE SOC FOMENTO MERCANTIL LTDA      013140310000153ELEGANCE IN LEATHER IND COM COUROS      RUA IPIRANGA, 352                       PORTAO                                  93180000RS3135400006008948210076/14     19072011015PORTO ALEGRE        2312201100000000001253000CC                                                                                                                                                                                                                                                                                                                                                                                                         000011
1015421002463COBR_CAUC_BIC  ON LINE SOC FOMENTO MERCANTIL LTDA      087524609000229GVD INTERNATIONAL TRADING S/A           RS 239, 10555 MODULO 3                  CAMPO BOM                               93700000RS3135500001008960181559/A      16092011015PORTO ALEGRE        1711201100000000000520300CC                                                                                                                                                                                                                                                                                                                                                                                                         000012
1015421002463COBR_CAUC_BIC  ON LINE SOC FOMENTO MERCANTIL LTDA      087524609000229GVD INTERNATIONAL TRADING S/A           RS 239, 10555 MODULO 3                  CAMPO BOM                               93700000RS3135500002008960261559/B      16092011015PORTO ALEGRE        1711201100000000000520300CC                                                                                                                                                                                                                                                                                                                                                                                                         000013
1015421002463COBR_CAUC_BIC  ON LINE SOC FOMENTO MERCANTIL LTDA      087524609000229GVD INTERNATIONAL TRADING S/A           RS 239, 10555 MODULO 3                  CAMPO BOM                               93700000RS3135500003008960341559/C      16092011015PORTO ALEGRE        1711201100000000000520300CC                                                                                                                                                                                                                                                                                                                                                                                                         000014
1015421002463COBR_CAUC_BIC  ON LINE SOC FOMENTO MERCANTIL LTDA      087524609000229GVD INTERNATIONAL TRADING S/A           RS 239, 10555 MODULO 3                  CAMPO BOM                               93700000RS3135500004008960421559/D      16092011015PORTO ALEGRE        1711201100000000000520300CC                                                                                                                                                                                                                                                                                                                                                                                                         000015
1015421002463COBR_CAUC_BIC  ON LINE SOC FOMENTO MERCANTIL LTDA      087524609000229GVD INTERNATIONAL TRADING S/A           RS 239, 10555 MODULO 3                  CAMPO BOM                               93700000RS3135500005008960511559/E      16092011015PORTO ALEGRE        1711201100000000000520300CC                                                                                                                                                                                                                                                                                                                                                                                                         000016
1015421002463COBR_CAUC_BIC  ON LINE SOC FOMENTO MERCANTIL LTDA      087524609000229GVD INTERNATIONAL TRADING S/A           RS 239, 10555 MODULO 3                  CAMPO BOM                               93700000RS3135500006008960691559/F      16092011015PORTO ALEGRE        1711201100000000000520300CC                                                                                                                                                                                                                                                                                                                                                                                                         000017
1015421002463COBR_CAUC_BIC  ON LINE SOC FOMENTO MERCANTIL LTDA      087524609000229GVD INTERNATIONAL TRADING S/A           RS 239, 10555 MODULO 3                  CAMPO BOM                               93700000RS3135500007008964501561/A      22092011015PORTO ALEGRE        1811201100000000000614900CC                                                                                                                                                                                                                                                                                                                                                                                                         000018
1015421002463COBR_CAUC_BIC  ON LINE SOC FOMENTO MERCANTIL LTDA      087524609000229GVD INTERNATIONAL TRADING S/A           RS 239, 10555 MODULO 3                  CAMPO BOM                               93700000RS3135500008008964681561/B      22092011015PORTO ALEGRE        1811201100000000000614900CC                                                                                                                                                                                                                                                                                                                                                                                                         000019
1015421002463COBR_CAUC_BIC  ON LINE SOC FOMENTO MERCANTIL LTDA      087524609000229GVD INTERNATIONAL TRADING S/A           RS 239, 10555 MODULO 3                  CAMPO BOM                               93700000RS3135500009008964761561/C      22092011015PORTO ALEGRE        1811201100000000000614900CC                                                                                                                                                                                                                                                                                                                                                                                                         000020
1015421002463COBR_CAUC_BIC  ON LINE SOC FOMENTO MERCANTIL LTDA      087524609000229GVD INTERNATIONAL TRADING S/A           RS 239, 10555 MODULO 3                  CAMPO BOM                               93700000RS3135500010008964841561/D      22092011015PORTO ALEGRE        1811201100000000000614900CC                                                                                                                                                                                                                                                                                                                                                                                                         000021
1015421002463COBR_CAUC_BIC  ON LINE SOC FOMENTO MERCANTIL LTDA      087524609000229GVD INTERNATIONAL TRADING S/A           RS 239, 10555 MODULO 3                  CAMPO BOM                               93700000RS3135500011008964921561/E      22092011015PORTO ALEGRE        1811201100000000000614900CC                                                                                                                                                                                                                                                                                                                                                                                                         000022
1015421002463COBR_CAUC_BIC  ON LINE SOC FOMENTO MERCANTIL LTDA      087524609000229GVD INTERNATIONAL TRADING S/A           RS 239, 10555 MODULO 3                  CAMPO BOM                               93700000RS3135500012008965061561/F      22092011015PORTO ALEGRE        1811201100000000000614900CC                                                                                                                                                                                                                                                                                                                                                                                                         000023
1015421002463COBR_CAUC_BIC  ON LINE SOC FOMENTO MERCANTIL LTDA      087524609000229GVD INTERNATIONAL TRADING S/A           RS 239, 10555 MODULO 3                  CAMPO BOM                               93700000RS3135500013008967431563/A      23092011015PORTO ALEGRE        1411201100000000001702800CC                                                                                                                                                                                                                                                                                                                                                                                                         000024
1015421002463COBR_CAUC_BIC  ON LINE SOC FOMENTO MERCANTIL LTDA      087524609000229GVD INTERNATIONAL TRADING S/A           RS 239, 10555 MODULO 3                  CAMPO BOM                               93700000RS3135500014008967511564/A      23092011015PORTO ALEGRE        1411201100000000001419000CC                                                                                                                                                                                                                                                                                                                                                                                                         000025
1015421002463COBR_CAUC_BIC  ON LINE SOC FOMENTO MERCANTIL LTDA      010629494000121BOTTO IND METALURGICA LTDA              ROD RS 239 KM 23, 9880                  CAMPO BOM                               93700000RS31356000010089677824248-3     26092011015PORTO ALEGRE        2510201100000000005097200CC                                                                                                                                                                                                                                                                                                                                                                                                         000026
1015421002463COBR_CAUC_BIC  ON LINE SOC FOMENTO MERCANTIL LTDA      010629494000121BOTTO IND METALURGICA LTDA              ROD RS 239 KM 23, 9880                  CAMPO BOM                               93700000RS31356000020089947524509/1     05102011015PORTO ALEGRE        0911201100000000006068160CC                                                                                                                                                                                                                                                                                                                                                                                                         000027
1015421002463COBR_CAUC_BIC  ON LINE SOC FOMENTO MERCANTIL LTDA      006374015000104CN IMPORTADORA DE AUTOPECAS LTDA        RUA  ANGELA RANDON, 15                  CAXIAS DO SUL                           95052050RS31357000010089484823923/2     09092011029CAXIAS DO SUL       0811201100000000006001900CC                                                                                                                                                                                                                                                                                                                                                                                                         000028
1015421002463COBR_CAUC_BIC  ON LINE SOC FOMENTO MERCANTIL LTDA      006374015000104CN IMPORTADORA DE AUTOPECAS LTDA        RUA  ANGELA RANDON, 15                  CAXIAS DO SUL                           95052050RS31357000020089485623923/3     09092011029CAXIAS DO SUL       0812201100000000006001900CC                                                                                                                                                                                                                                                                                                                                                                                                         000029
9000008                                                                                                                                                                                                                                                                                                                                                                                                                                                                                                                                                                                                                                                                                                               000030
