0REMESSANOTIFICACAO ELETRONICA        99999999999999BICBANCO                                AV. PAULISTA                            1048      12.ANDAR  BELA VISTA                    SAO PAULO                     01310100SP1121739360CORTINHAL                               COORDENADOR                             18072013                                                                                                                                                                                                                                                                                                                                                                                      000001
1050421000089COBR_CAUC_BIC  ATIVO ALIMENTOS EXP E IMP EIRELI        003721769000278MASTERBOI LTDA                          AV RECUPERACAO, DA 7380                 RECIFE                                  52291000PE431250000100480478202037/1    16072013010RECIFE              1508201300000000010295128CC                                                                                                                                                                                                                                                                                                                                                                                                         000002
1020421002020COBR_CAUC_COR  GRABER SISTEMAS DE SEGURANCA LTDA       010588595000363MEDLEY COMERCIAL E LOGISTICA L          R ESTACIO DE SA, 1490 - JD SANTA GENEBRACAMPINAS                                13080010SP4312400001000096640000006108  10072013900BRADESCO S/A        0108201300000000014728245CC                                                                                                                                                                                                                                                                                                                                                                                                         000003
1007421067719COBR_CAUC_COR  NEOLIDER COM.IMP.E EXP.DE ACOS LTDA     048295562001965USINA ALTO ALEGRE S A  ACUCAR E AL      R JOSE LEITE,40                         PRESIDENTE PRUD                         19050240SP431260000102078855054526/     16072013800UNIBANCO S/A        3008201300000000013799609CC                                                                                                                                                                                                                                                                                                                                                                                                         000004
1007421067719COBR_CAUC_COR  NEOLIDER COM.IMP.E EXP.DE ACOS LTDA     048295562001965USINA ALTO ALEGRE S A  ACUCAR E AL      R JOSE LEITE,40                         PRESIDENTE PRUD                         19050240SP431260000202078880054547/     17072013800UNIBANCO S/A        0209201300000000011088910CC                                                                                                                                                                                                                                                                                                                                                                                                         000005
9000003                                                                                                                                                                                                                                                                                                                                                                                                                                                                                                                                                                                                                                                                                                               000006
