0REMESSANOTIFICACAO ELETRONICA        99999999999999BICBANCO                                AV. PAULISTA                            1048      12.ANDAR  BELA VISTA                    SAO PAULO                     01310100SP1121739360CORTINHAL                               COORDENADOR                             20112012                                                                                                                                                                                                                                                                                                                                                                                      000001
1021420930887COBR_CAUC_COR  DEDINI S/A INDUSTRIAS DE BASE           047254396000167J PILON S A AC E ALC                    FAZ SANTA MARIA, CX. P. 19, S N SAO FRANCERQUILHO                               18520000SP388700000106358752197176-2-2  09112012900BRADESCO S/A        1001201300000000013600000CC                                                                                                                                                                                                                                                                                                                                                                                                         000002
1048421000338COBR_CAUC_COR  FRIGOESTRELA S.A. EM RECUP JUDICIAL     008386287000141BERMAS MARACANAU IND E COM DE COUR      AV CONTORNOS/NDISTRITO INDUSTRIAL       MARACANAU                               61939160CE3887100001031537290001384401  16112012900BRADESCO S/A        1612201200000000030324267CC                                                                                                                                                                                                                                                                                                                                                                                                         000003
1024420934410COBR_CAUC_BIC  INTERCOOP INT SUIN MED NORTE MT LTD     038711826000131LINCON INDUSTRIA E COMERCIO LTDA        RUA JOSE MARIA DE LACERDA 205,2058      CONTAGEM                                32210120MG38872000010199837990168       13112012019BELO HORIZONTE      1112201200000000017929130CC                                                                                                                                                                                                                                                                                                                                                                                                         000004
1022421007800COBR_CAUC_COR  LEAO ENGENHARIA S/A                     010140603000142SCIRP PARTICIPACOES LTDA                RUA ANGELINA MAFFEI VITA,200            SAO PAULO                               01455070SP388730000100001138030331/1.1  16112012900BRADESCO S/A        2512201200000000010946757CC                                                                                                                                                                                                                                                                                                                                                                                                         000005
1038421002945COBR_CAUC_COR  NEOLIDER COM.IMP.E EXP.DE ACOS LTDA     045765914000181CENTRAL ENERGETICA MORENO ACUCAR E      ROD SP 253 KM 160,0-S/N                 LUIS ANTONIO                            14210000SP388750000109930831048073      31102012800UNIBANCO S/A        2012201200000000033715130CC                                                                                                                                                                                                                                                                                                                                                                                                         000006
1037421008520COBR_CAUC_BIC  OCEANO IND.GRAFICA E EDITORA LTDA       008108543000562TEXTO EDITORES LTDA                     ESTRADA MARICA MARQUES,10-LOTE 03       SAO PAULO                               06529210SP38874000010456910029977       19112012007PAULISTA            1802201300000000010804000CC                                                                                                                                                                                                                                                                                                                                                                                                         000007
1031421009993COBR_CAUC_BIC  VAMOL INDUSTRIA MOVELEIRA LTDA          084683432017029LOJAS SALFER S/A                        RUA RUI BARBOSA,1300                    JOINVILLE                               89219521SC38876000010511041478717-1/1   03112012032BLUMENAU            1303201300000000013144485CC                                                                                                                                                                                                                                                                                                                                                                                                         000008
1031421009993COBR_CAUC_BIC  VAMOL INDUSTRIA MOVELEIRA LTDA          084683432017029LOJAS SALFER S/A                        RUA RUI BARBOSA,1300                    JOINVILLE                               89219521SC38876000020511042278470-1/1   30102012032BLUMENAU            1103201300000000012193125CC                                                                                                                                                                                                                                                                                                                                                                                                         000009
9000007                                                                                                                                                                                                                                                                                                                                                                                                                                                                                                                                                                                                                                                                                                               000010
