0REMESSANOTIFICACAO ELETRONICA        99999999999999BICBANCO                                AV. PAULISTA                            1048      12.ANDAR  BELA VISTA                    SAO PAULO                     01310100SP1121739360CORTINHAL                               COORDENADOR                             08122011                                                                                                                                                                                                                                                                                                                                                                                      000001
1044421004713DIR_CREDIT     KIZO CONSTRUCAO E SERVICO LTDA          008241747000739SEC MUNICIPAL DE SERV URBANOS - SEMURB  PC IRMA VITORIA - S/N - ROCAS           NATAL                                   59010685RN3196800001                                                                                                                                          481016556           121120100000017684006/2010    07072011000404EXECUÇÃO DE OBRAS DE INFRA ESTRUTURA NA PRAÇA MILITAO CHAVES EM NATAL  /RN.                                                                                                                                                                     010704799000150              000002
1043421004766DIR_CREDIT     A3T CONST E INCORP LTDA                 008898124000148PREFEITURA MUNICIPAL DE MAMANGUAPE      RUA DUQUE DE CAXIAS                     MAMANGUAPE                              58280000PB3198600001                                                                                                                                          481009780           28062011000001997700067/2011 -16112011000404execução das obras de terraplanagem e pavimentação em paralelepípedos  de diversas ruas no Município de Mamanguape.                                                                                                                             009047935000106              000003
1019421006847COBR_CAUC_BIC  ESTAMPARIA S/A                          061099834018995ARTHUR LUNDGREN TEC. S. A. PERNAMB      RUA DA CONSOLACAO,2411                  SAO PAULO                               01301000SP3245400001062027610045536/01  30112011007PAULISTA            1403201200000000011689920CC                                                                                                                                                                                                                                                                                                                                                                                                         000004
1050421000461COBR_CAUC_COR  CORRENTAO COMERCIO LTDA                 000015063194672JOAO ANTONIO DE DEUS VIEIRA             AV PARA ,1102                           SAO MIGUEL DO A                         76590000GO324550000100001596NF 44921    07122011900BRADESCO S/A        0503201200000000010400000CC                                                                                                                                                                                                                                                                                                                                                                                                         000005
1050421000461COBR_CAUC_COR  CORRENTAO COMERCIO LTDA                 000015063194672JOAO ANTONIO DE DEUS VIEIRA             AV PARA ,1102                           SAO MIGUEL DO A                         76590000GO324550000200001600NF 44921    07122011900BRADESCO S/A        0504201200000000010400000CC                                                                                                                                                                                                                                                                                                                                                                                                         000006
1032421016114DIR_CREDIT     DOUAT TEXTIL LTDA.                      027150549000119PM DE CARIACICA                         PRAçA MARECHAL DEODORO, S/N - CENTRO    CARIACICA                               29156080ES3247000001                                                                                                                                          011639950           170320110000019613594/2011    31102011000404Aquisição de uniformes escolares para distribuição aos alunos(as) da Rede Municipal de Educação de Cariacica.                                                                                                                                   082610726000100              000007
9000005                                                                                                                                                                                                                                                                                                                                                                                                                                                                                                                                                                                                                                                                                                               000008
