0REMESSANOTIFICACAO ELETRONICA        99999999999999BICBANCO                                AV. PAULISTA                            1048      12.ANDAR  BELA VISTA                    SAO PAULO                     01310100SP1121739360CORTINHAL                               COORDENADOR                             14032014                                                                                                                                                                                                                                                                                                                                                                                      000001
1048421000338COBR_CAUC_COR  FRIGOESTRELA S.A. EM RECUP JUDICIAL     050947761001871IRMAOS RUSSI LTDA                       RUA LUIS ALLI FARDYN SALA 03, 590       CAJAMAR                                 07750000SP4676300001077510780034066101  12032014900BRADESCO S/A        1204201400000000010137646CC                                                                                                                                                                                                                                                                                                                                                                                                         000002
1050421000089COBR_CAUC_BIC  ATIVO ALIMENTOS EXP E IMP EIRELI        008029696000352ESTIVAS NOVO PRADO LTDA                 AV VINTE DE JANEIRO 958                 RECIFE                                  51130120PE467640000100555648241983/1    12032014010RECIFE              1104201400000000021151900CC                                                                                                                                                                                                                                                                                                                                                                                                         000003
1015421021867COBR_CAUC_COR  COTRIJUI COOP AGROP & INDUSTRIAL        012464051000153BASTO MESQUITA DISTRIBUICAO E LOGI      RODOVIA BR 316 S/N                      BACABAL                                 65700970MA467650000100292139185015-1    12032014900BRADESCO S/A        1403201400000000013515000CC                                                                                                                                                                                                                                                                                                                                                                                                         000004
1007421067298COBR_CAUC_BIC  ATHENEE COMERCIO IMP E EXP LTDA         029744778000197IGREJA UNIVERSAL DO REINO DE DEUS       AV. JOAO DIAS,1800                      SAO PAULO                               04724002SP467660000100002142003431      06032014007PAULISTA            3004201400000000028004244CC                                                                                                                                                                                                                                                                                                                                                                                                         000005
1036421018985COBR_CAUC_BIC  PEEQFLEX INDUSTRIA E COMERCIO LTDA      073410326000837CERVEJARIA PETROPOLIS S/A               Rod Celso Garcia Cid, 1440  Km 85       CAMBE                                   86185520PR4676700001059983466028087-01  13032014016CURITIBA            1004201400000000017577295CC                                                                                                                                                                                                                                                                                                                                                                                                         000006
1018421034869COBR_CAUC_COR  L ANNO IND E COM DE LATICINIOS LTDA     009040746000284DFB DIST D PROD FRIOS ALIMENTICIOS      RUA MARGINAL, 3 QUADRA J                PETROLINA                               56308460PE4676800001036291240010421     25022014600HSBC BANK BRASIL    2503201400000000010406333CC                                                                                                                                                                                                                                                                                                                                                                                                         000007
1018421034869COBR_CAUC_COR  L ANNO IND E COM DE LATICINIOS LTDA     009040746000284DFB DIST D PROD FRIOS ALIMENTICIOS      RUA MARGINAL, 3 QUADRA J                PETROLINA                               56308460PE4676800002036291320010421     25022014600HSBC BANK BRASIL    2503201400000000010406333CC                                                                                                                                                                                                                                                                                                                                                                                                         000008
1044421017920DIR_CREDIT     DHOSP DISTRIBUIDORA HOSPITALAR          012200259000165SEC ESTADO DE SAUDE - SESAU - ALAGOAS   RUA DUQUE DE CAXIAS,978                 CENTRO-MACEIO                           57036540AL4677700001                                                                                                                                          012514564           111220130000025526190/2013    06032014000404fornecimento de medicamentos destinados à Secretaria de Estado da Saúde                                                                                                                                                                         008076127000104              000009
9000007                                                                                                                                                                                                                                                                                                                                                                                                                                                                                                                                                                                                                                                                                                               000010
