0REMESSANOTIFICACAO ELETRONICA        99999999999999BICBANCO                                AV. PAULISTA                            1048      12.ANDAR  BELA VISTA                    SAO PAULO                     01310100SP1121739360CORTINHAL                               COORDENADOR                             06092011                                                                                                                                                                                                                                                                                                                                                                                      000001
1021420930887COBR_CAUC_COR  DEDINI S/A INDUSTRIAS DE BASE           048295562001450USINA ALTO ALEGRE S A - ACUCAR E A      RUA JOSE LEITE, 40 JD BONGIOVANI BR     PRESIDENTE PRUD                         19050910SP30010000010618612921076-2-2   02092011900BRADESCO S/A        2009201100000000025242908CC                                                                                                                                                                                                                                                                                                                                                                                                         000002
1021420930887COBR_CAUC_BIC  DEDINI S/A INDUSTRIAS DE BASE           061068342000138PRENSAS SCHULER SA                      AV FAGUNDES DE OLIVEIRA, 1515           DIADEMA                                 09950904SP30011000010618616124271-1-1   02092011038ABC                 3009201100000000012221800CC                                                                                                                                                                                                                                                                                                                                                                                                         000003
1036421016893COBR_CAUC_COR  TECAL ALUMINIO DA AMAZONIA LTDA         004012043000148SHOWA DO BRASIL LTDA                    RUA RIO QUIXITO                         MANAUS                                  69075830AM3001200001058095860000030392  02092011900BRADESCO S/A        0210201100000000011757428CC                                                                                                                                                                                                                                                                                                                                                                                                         000004
9000003                                                                                                                                                                                                                                                                                                                                                                                                                                                                                                                                                                                                                                                                                                               000005
