0REMESSANOTIFICACAO ELETRONICA        99999999999999BICBANCO                                AV. PAULISTA                            1048      12.ANDAR  BELA VISTA                    SAO PAULO                     01310100SP1121739360CORTINHAL                               COORDENADOR                             06082012                                                                                                                                                                                                                                                                                                                                                                                      000001
1021420930887COBR_CAUC_BIC  DEDINI S/A INDUSTRIAS DE BASE           061068342000138PRENSAS SCHULER SA                      AV FAGUNDES DE OLIVEIRA, 1515 PIRAPORINHDIADEMA                                 09950904SP37013000010634969933186-1-1   01082012038ABC                 2008201200000000012177760CC                                                                                                                                                                                                                                                                                                                                                                                                         000002
1006420933059COBR_CAUC_BIC  IMARF BENEFICIAMENTO DE GRANITOS LT     008090481000185CONDOMINIO SHOPPING FEIRA DE SANTA      AV JOAO DURVAL CARNEIRO 3665            FEIRA DE SANTAN                         44052064BA3701400001091249062147/02     24072012006BEZERRA             2309201200000000013999951CC                                                                                                                                                                                                                                                                                                                                                                                                         000003
1036421018985COBR_CAUC_COR  PEEQFLEX INDUSTRIA E COMERCIO LTDA      003861512000130IND. ALIMENTICIA MARATA LTDA.           Br 101, Km 118, S/N  Caixa Postal 03    ITAPORANGA DAJU                         49120000SE3701500001058826236017220-01  30072012800UNIBANCO S/A        2708201200000000013020256CC                                                                                                                                                                                                                                                                                                                                                                                                         000004
1019421010259COBR_CAUC_BIC  L & S INTERBANK FOMENTO LTDA            017193590001948MASCARENHA BARBOSA ROSCOE SA            FAZENDA RIO DO PEIXE SN                 NOVA LIMA                               34000000MG370160000106533201139531      02082012019BELO HORIZONTE      2008201200000000010392165CC                                                                                                                                                                                                                                                                                                                                                                                                         000005
1010421023570DIR_CREDIT     AGRO INDUSTRIAL TABU S.A.               050706019000126CAMPARI DO BRASIL LTDA                  ALAMEDA RIO NEGRO, 585 CJ 62            ALPHAVILLE                              06454000SP3701700001                                                                                                                                          011804710           010920110000021042252         03052012051902FORNECIMENTO DE DESTILADO ALCOOLICO DE CANA                                                                                                                                                                                                     009053646000101              000006
1045421005424DIR_CREDIT     SAO LUCAS MEDICO HOSPITALAR LTDA        013360276000122UNIMED SERGIPE - COOP DE TRAB MEDICO    RUA SOCORRO 100_ SAO JOSE               ARACAJU                                 49015300SE3702300001                                                                                                                                          441009174           01052003000000852505/2003     02082012000101Contrato de prestação de serviços hospitalares aos beneficiários dos   planos de saúde operacionalizados pela contratante.                                                                                                                      013131370000100              000007
1028421001518COBR_CAUC_COR  GAIA AGRIBUSINESS AGRICOLA LTDA         000037457080082SILVIO ARANTES DE OLIVEIRA              AV MINAS GERAIS,1380                    GOIATUBA                                75600000GO37036000010275979422006       26032012800UNIBANCO S/A        1909201200000000007360001CC                                                                                                                                                                                                                                                                                                                                                                                                         000008
1028421001518COBR_CAUC_COR  GAIA AGRIBUSINESS AGRICOLA LTDA         000037457080082SILVIO ARANTES DE OLIVEIRA              AV MINAS GERAIS,1380                    GOIATUBA                                75600000GO37036000020276017222241       30032012800UNIBANCO S/A        2509201200000000008140000CC                                                                                                                                                                                                                                                                                                                                                                                                         000009
1028421001518COBR_CAUC_COR  GAIA AGRIBUSINESS AGRICOLA LTDA         000043509819187REGINALDO JOSE COELHO                   RUA OLIVIO A RIBEIRO,68                 ITUMBIARA                               75503970GO37037000010275977822005       26032012800UNIBANCO S/A        1509201200000000008298004CC                                                                                                                                                                                                                                                                                                                                                                                                         000010
1028421001518COBR_CAUC_COR  GAIA AGRIBUSINESS AGRICOLA LTDA         000043509819187REGINALDO JOSE COELHO                   RUA OLIVIO A RIBEIRO,68                 ITUMBIARA                               75503970GO37037000020276701123294       26042012800UNIBANCO S/A        2210201200000000008125997CC                                                                                                                                                                                                                                                                                                                                                                                                         000011
1028421001518COBR_CAUC_COR  GAIA AGRIBUSINESS AGRICOLA LTDA         000064140130130VINICIUS VIEIRA LOPES                   RUA TAPAJOS ,712                        GOIATUBA                                75600000GO37038000010275975122002       26032012800UNIBANCO S/A        0809201200000000008548000CC                                                                                                                                                                                                                                                                                                                                                                                                         000012
1028421001518COBR_CAUC_COR  GAIA AGRIBUSINESS AGRICOLA LTDA         000064140130130VINICIUS VIEIRA LOPES                   RUA TAPAJOS ,712                        GOIATUBA                                75600000GO37038000020276697923230       25042012800UNIBANCO S/A        1510201200000000008110000CC                                                                                                                                                                                                                                                                                                                                                                                                         000013
1028421001518COBR_CAUC_COR  GAIA AGRIBUSINESS AGRICOLA LTDA         000082255210134CRISTIANO LOPES ARANTES                 RUA URUGUAI,85                          ITUMBIARA                               75503970GO37039000010275980822008       26032012800UNIBANCO S/A        2209201200000000009684007CC                                                                                                                                                                                                                                                                                                                                                                                                         000014
1028421001518COBR_CAUC_COR  GAIA AGRIBUSINESS AGRICOLA LTDA         000082255210134CRISTIANO LOPES ARANTES                 RUA URUGUAI,85                          ITUMBIARA                               75503970GO37039000020276700223295       26042012800UNIBANCO S/A        2210201200000000007892099CC                                                                                                                                                                                                                                                                                                                                                                                                         000015
9000010                                                                                                                                                                                                                                                                                                                                                                                                                                                                                                                                                                                                                                                                                                               000016
