0REMESSANOTIFICACAO ELETRONICA        99999999999999BICBANCO                                AV. PAULISTA                            1048      12.ANDAR  BELA VISTA                    SAO PAULO                     01310100SP1121739360CORTINHAL                               COORDENADOR                             24072014                                                                                                                                                                                                                                                                                                                                                                                      000001
1015421010253COBR_CAUC_COR  MUNDIAL S/A PRODUTOS DE CONSUMO         005103939000286ZAMBONI COMERCIAL LTDA                  ROD BR 116 RIO BAHIA KM 809 7 S NR      ALEM PARAIBA                            36660000MG4857800001013352655800746501  23072014900BRADESCO S/A        2110201400000000032551920CC                                                                                                                                                                                                                                                                                                                                                                                                         000002
1015421010253COBR_CAUC_BIC  MUNDIAL S/A PRODUTOS DE CONSUMO         082873068000140GENESIO A MENDES E CIA LTDA             EST. BR 471 KM 48 SN                    SANTA CRUZ DO S                         96800000RS4857900001013350015800748901  23072014015PORTO ALEGRE        2208201400000000011911579CC                                                                                                                                                                                                                                                                                                                                                                                                         000003
1031421012447COBR_CAUC_COR  AGRICOLA JANDELLE S/A                   011224864000103REAL FOODS COMERCIO ATAC DE GEN AL      AVENIDA DAS AMERICAS 8445 SALA 515 E 516RIO DE JANEIRO                          22793081RJ4858000001060045880025029001  22072014900BRADESCO S/A        2108201400000000016005600CC                                                                                                                                                                                                                                                                                                                                                                                                         000004
1022421007525COBR_CAUC_COR  D. CENTER DISTRIBUIDORA LTDA            049040868000104DROG.NOVO CENTRO LTDA ME                AV.LEONARDO DA VINCI, 1007-A            SAO PAULO                               04313000SP48581000010187152787483205    22072014900BRADESCO S/A        0909201400000000010937134CC                                                                                                                                                                                                                                                                                                                                                                                                         000005
1018141026092COBR_CAUC_COR  MEDIO NORTE CONST E TERRAPLEN LTDA      001500203000100ACEFER COMERCIO DE SUCATAS LTDA         ROD BR 153,0                            URUACU                                  76400000GO48582000010378585129          23072014900BRADESCO S/A        2209201400000000010295000TD                                                                                                                                                                                                                                                                                                                                                                                                         000006
1021421017050COBR_CAUC_BIC  STAR DISTR PROD FARMACEUTICOS LTDA      061585865073701RAIA DROGASIL S/A                       RUA PATAXOS , 1412                      EMBU                                    06833073SP4858300001000032600000356201  04072014007PAULISTA            0108201400000000033852326CC                                                                                                                                                                                                                                                                                                                                                                                                         000007
1021421017352COBR_CAUC_BIC  STAR DISTR PROD FARMACEUTICOS LTDA      061585865073701RAIA DROGASIL S/A                       RUA PATAXOS , 1412                      EMBU                                    06833073SP4858400001000005110000355901  04072014007PAULISTA            0108201400000000015685113CC                                                                                                                                                                                                                                                                                                                                                                                                         000008
1046421006070DIR_CREDIT     METALURGICA DS LTDA                     060857349000176TRW AUTOMOTIVE LTDA                     VIA ANHANGUERA KM 147                   LIMEIRA                                 13486915SP4859000001                                                                                                                                          012636980           260320070000018698            23072014000404fornecimento de discos e tambores de freio para automóveis.                                                                                                                                                                                     079414868000198              000009
9000008                                                                                                                                                                                                                                                                                                                                                                                                                                                                                                                                                                                                                                                                                                               000010
