0REMESSANOTIFICACAO ELETRONICA        99999999999999BICBANCO                                AV. PAULISTA                            1048      12.ANDAR  BELA VISTA                    SAO PAULO                     01310100SP1121739360CORTINHAL                               COORDENADOR                             21092011                                                                                                                                                                                                                                                                                                                                                                                      000001
1021420930887COBR_CAUC_COR  DEDINI S/A INDUSTRIAS DE BASE           044330975000153USINA COLOMBO S A - ACUCAR E ALCOO      RUA BELA VISTA MOREIRA, S/Nº BR         ARIRANHA                                15960000SP307720000106190363157757-3-3  24082011900BRADESCO S/A        2010201100000000085460000CC                                                                                                                                                                                                                                                                                                                                                                                                         000002
1021420930887COBR_CAUC_COR  DEDINI S/A INDUSTRIAS DE BASE           044330975000153USINA COLOMBO S A - ACUCAR E ALCOO      RUA BELA VISTA MOREIRA, S/Nº BR         ARIRANHA                                15960000SP307720000206190371157757-4-4  24082011900BRADESCO S/A        2111201100000000084000000CC                                                                                                                                                                                                                                                                                                                                                                                                         000003
1016421019267COBR_CAUC_COR  COBRAZEM AGROINDUSTRIAL LTDA            084874726000496KAEFER AGRO INDUSTRIAL                  RUA MATE LARANJEIRAS,0                  TOLEDO                                  85900000PR3077300001031815350000649-01  15092011800UNIBANCO S/A        1810201100000000027900000CC                                                                                                                                                                                                                                                                                                                                                                                                         000004
1016421019267COBR_CAUC_COR  COBRAZEM AGROINDUSTRIAL LTDA            084874726000496KAEFER AGRO INDUSTRIAL                  RUA MATE LARANJEIRAS,0                  TOLEDO                                  85900000PR3077300002031815430000650-01  15092011800UNIBANCO S/A        1810201100000000027900000CC                                                                                                                                                                                                                                                                                                                                                                                                         000005
1007421031242COBR_CAUC_COR  GP GUARDA PATRIMONIAL DE S.P. LTDA      002543945000185ULTRAFARMA SAUDE LTDA EPP               AV JABAQUARA  1546                      SAO PAULO                               04046300SP30801000010001341171122       08092011900BRADESCO S/A        0310201100000000002047678CC                                                                                                                                                                                                                                                                                                                                                                                                         000006
1007421031242COBR_CAUC_COR  GP GUARDA PATRIMONIAL DE S.P. LTDA      002543945000185ULTRAFARMA SAUDE LTDA EPP               AV JABAQUARA  1546                      SAO PAULO                               04046300SP30801000020001342071123       08092011900BRADESCO S/A        0310201100000000002941947CC                                                                                                                                                                                                                                                                                                                                                                                                         000007
1007421031242COBR_CAUC_COR  GP GUARDA PATRIMONIAL DE S.P. LTDA      002543945000185ULTRAFARMA SAUDE LTDA EPP               AV JABAQUARA  1546                      SAO PAULO                               04046300SP30801000030001343871124       08092011900BRADESCO S/A        0310201100000000002755365CC                                                                                                                                                                                                                                                                                                                                                                                                         000008
1007421031242COBR_CAUC_COR  GP GUARDA PATRIMONIAL DE S.P. LTDA      002543945000185ULTRAFARMA SAUDE LTDA EPP               AV JABAQUARA  1546                      SAO PAULO                               04046300SP30801000040001344671125       08092011900BRADESCO S/A        0310201100000000002970123CC                                                                                                                                                                                                                                                                                                                                                                                                         000009
1007421031242COBR_CAUC_COR  GP GUARDA PATRIMONIAL DE S.P. LTDA      002543945000185ULTRAFARMA SAUDE LTDA EPP               AV JABAQUARA  1546                      SAO PAULO                               04046300SP30801000050001346271127       08092011900BRADESCO S/A        0310201100000000003684004CC                                                                                                                                                                                                                                                                                                                                                                                                         000010
9000003                                                                                                                                                                                                                                                                                                                                                                                                                                                                                                                                                                                                                                                                                                               000011
