0REMESSANOTIFICACAO ELETRONICA        99999999999999BICBANCO                                AV. PAULISTA                            1048      12.ANDAR  BELA VISTA                    SAO PAULO                     01310100SP1121739360CORTINHAL                               COORDENADOR                             19092011                                                                                                                                                                                                                                                                                                                                                                                      000001
1047421000232COBR_CAUC_BIC  JOFER EMBALAGENS LTDA.                  000190373000172IND. E COM. DE COSMETICOS NATURA L      LAMEDA JURUA, 253                       BARUERI                                 06455010SP3072100001010609920024372     16092011007PAULISTA            3011201100000000103026278CC                                                                                                                                                                                                                                                                                                                                                                                                         000002
1006441006860COBR_CAUC_COR  MONT GRANITOS S/A                       008719815000218LGR RIO BRANCO EMPREENDIMENTOS          AV BRASIL,303-303                       RIO BRANCO                              69908060AC3072200001086930361070-1/1    15092011900BRADESCO S/A        1310201100000000012000000CC                                                                                                                                                                                                                                                                                                                                                                                                         000003
1007421049060COBR_CAUC_BIC  MERCOSUL COMERCIAL E INDL LTDA          006067345000149LV DISTRIBUIDORA DE MATERIAIS LTDA      R GAL SILVESTRE ROCHA 133               NITEROI                                 24220170RJ3072300001007972341976611     16042011014RIO DE JANEIRO      1411201100000000016557220CC                                                                                                                                                                                                                                                                                                                                                                                                         000004
1007421049060COBR_CAUC_BIC  MERCOSUL COMERCIAL E INDL LTDA          006067345000149LV DISTRIBUIDORA DE MATERIAIS LTDA      R GAL SILVESTRE ROCHA 133               NITEROI                                 24220170RJ3072300002007972421990711     16042011014RIO DE JANEIRO      1811201100000000010412240CC                                                                                                                                                                                                                                                                                                                                                                                                         000005
1007421049060COBR_CAUC_BIC  MERCOSUL COMERCIAL E INDL LTDA          006067345000149LV DISTRIBUIDORA DE MATERIAIS LTDA      R GAL SILVESTRE ROCHA 133               NITEROI                                 24220170RJ3072300003007972511927811     25032011014RIO DE JANEIRO      2211201100000000038797224CC                                                                                                                                                                                                                                                                                                                                                                                                         000006
1007421049060COBR_CAUC_BIC  MERCOSUL COMERCIAL E INDL LTDA          006067345000149LV DISTRIBUIDORA DE MATERIAIS LTDA      R GAL SILVESTRE ROCHA 133               NITEROI                                 24220170RJ3072300004007972691927511     25032011014RIO DE JANEIRO      2211201100000000017171130CC                                                                                                                                                                                                                                                                                                                                                                                                         000007
1007421049060COBR_CAUC_BIC  MERCOSUL COMERCIAL E INDL LTDA          006067345000149LV DISTRIBUIDORA DE MATERIAIS LTDA      R GAL SILVESTRE ROCHA 133               NITEROI                                 24220170RJ3072300005007972771927711     25032011014RIO DE JANEIRO      2211201100000000035112177CC                                                                                                                                                                                                                                                                                                                                                                                                         000008
1044421011043DIR_CREDIT     ECOCIL-EMPRESA DE CONSTRUCOES CIVIS     009528053000154SPE ECOCIL - SOLAR JOAO E MARILDA       RUA CHILE, 152                          NATAL                                   59012250RN3074200001                                                                                                                                          011014070           1011200900000110260001        31012011000403CONSTRUÇÃO DO CONJUNTO DE EDIFICAÇÕES DENOMINADAS SOLAR JOAO E MARILDA.                                                                                                                                                                         008326548000138              000009
1044421011043DIR_CREDIT     ECOCIL-EMPRESA DE CONSTRUCOES CIVIS     009142310000115ECOCIL - INCORPORACOES SPAZZIO SENNA    RUA CHILE,152                           NATAL                                   59012250RN3074300001                                                                                                                                          011014070           100920090000011028001         31012011000403construção do conjunto de edificações denominado spazio senna.                                                                                                                                                                                  008326548000138              000010
9000005                                                                                                                                                                                                                                                                                                                                                                                                                                                                                                                                                                                                                                                                                                               000011
