0REMESSANOTIFICACAO ELETRONICA        99999999999999BICBANCO                                AV. PAULISTA                            1048      12.ANDAR  BELA VISTA                    SAO PAULO                     01310100SP1121739360CORTINHAL                               COORDENADOR                             23082012                                                                                                                                                                                                                                                                                                                                                                                      000001
1013421025466DIR_CREDIT     HOSPITAL JAAR ANDRADE LTDA              003658432000182GEAP FUND. DE SEGURIDADE SOCIAL         SHC-AO SUL EA 02/08,LTE 05,C.EMP TERRAÇOBRASILIA                                70660900DF3733000001                                                                                                                                          011883350           170420120000022204400008642   20082012000403PRESTACAO DE SERVICOS MEDICOA HOSPITALARES AOS BENEFICIARIOS DA GEAP                                                                                                                                                                            097397848000138              000002
1007421056385DIR_CREDIT     TERRA NOVA TRADING S/A                  010306996000111EUROCRAFT IND COM EXP                   R AVELINO SOARES RODRIGUES 455          VARGEM GDE PAULISTA                     06730970SP3738800001                                                                                                                                          001010012           200620120000021847            02072012001903contrato de compra de motores de barcos " ferreti "                    por encomenda                                                                                                                                                            039828926000105              000003
1047421001310COBR_CAUC_COR  CAMPEZINA IND COM DE ALIMENTOS LTDA     007408983000149SEIJI TAKATA                            AVENIDA ANTONIO DA SILVA NUNES, No 837  BIRIGUI                                 16201158SP37400000010146328100055748-1  02082012800UNIBANCO S/A        0309201200000000000053789CC                                                                                                                                                                                                                                                                                                                                                                                                         000004
1047421001310COBR_CAUC_COR  CAMPEZINA IND COM DE ALIMENTOS LTDA     062443643000167GREGORIO JORDAO - GUARARAPES            AVENIDA MARECHAL FLORIANO, 1016         GUARARAPES                              16700000SP37401000010146329900055742-1  02082012800UNIBANCO S/A        0309201200000000000092950CC                                                                                                                                                                                                                                                                                                                                                                                                         000005
1047421001310COBR_CAUC_COR  CAMPEZINA IND COM DE ALIMENTOS LTDA     006147560000150COMERCIAL BIRIGUI DE ALIMENTOS LTD      RUA DAS TULIPAS, 436                    BIRIGUI                                 16203175SP37402000010146330200055740-1  02082012800UNIBANCO S/A        0309201200000000000110378CC                                                                                                                                                                                                                                                                                                                                                                                                         000006
1047421001310COBR_CAUC_COR  CAMPEZINA IND COM DE ALIMENTOS LTDA     014691527000114FREITAS & SOARES SUPERMERCADOS LTD      ALAMEDA DAS HORTENCIA 346               CERQUEIRA CESAR                         18760000SP37403000010146334500055754-1  03082012800UNIBANCO S/A        0509201200000000000196801CC                                                                                                                                                                                                                                                                                                                                                                                                         000007
1047421001310COBR_CAUC_COR  CAMPEZINA IND COM DE ALIMENTOS LTDA     004085355000181SUPERMERCADO SOLIAS LTDA                AVENIDA GUILHERME ARRUDA CASTANHO, N 455BERNARDINO DE C                         18960000SP37404000010146337000055753-1  03082012800UNIBANCO S/A        2908201200000000000065613CC                                                                                                                                                                                                                                                                                                                                                                                                         000008
1047421001310COBR_CAUC_COR  CAMPEZINA IND COM DE ALIMENTOS LTDA     004085355000181SUPERMERCADO SOLIAS LTDA                AVENIDA GUILHERME ARRUDA CASTANHO, N 455BERNARDINO DE C                         18960000SP37404000020146336100055753-2  03082012800UNIBANCO S/A        0509201200000000000065594CC                                                                                                                                                                                                                                                                                                                                                                                                         000009
1047421001310COBR_CAUC_COR  CAMPEZINA IND COM DE ALIMENTOS LTDA     004085355000181SUPERMERCADO SOLIAS LTDA                AVENIDA GUILHERME ARRUDA CASTANHO, N 455BERNARDINO DE C                         18960000SP37404000030146335300055753-3  03082012800UNIBANCO S/A        1209201200000000000065594CC                                                                                                                                                                                                                                                                                                                                                                                                         000010
1047421001310COBR_CAUC_COR  CAMPEZINA IND COM DE ALIMENTOS LTDA     049542707000119SUPERMERCADO ITAIENSE LTDA              AV SANTO ANTONIO 946                    ITAI                                    18730000SP37405000010146333700055755-1  03082012800UNIBANCO S/A        2908201200000000000439611CC                                                                                                                                                                                                                                                                                                                                                                                                         000011
1047421001310COBR_CAUC_COR  CAMPEZINA IND COM DE ALIMENTOS LTDA     049542707000119SUPERMERCADO ITAIENSE LTDA              AV SANTO ANTONIO 946                    ITAI                                    18730000SP37405000020146332900055755-2  03082012800UNIBANCO S/A        0509201200000000000439479CC                                                                                                                                                                                                                                                                                                                                                                                                         000012
1047421001310COBR_CAUC_COR  CAMPEZINA IND COM DE ALIMENTOS LTDA     049542707000119SUPERMERCADO ITAIENSE LTDA              AV SANTO ANTONIO 946                    ITAI                                    18730000SP37405000030146331100055755-3  03082012800UNIBANCO S/A        1209201200000000000439480CC                                                                                                                                                                                                                                                                                                                                                                                                         000013
1047421001310COBR_CAUC_BIC  CAMPEZINA IND COM DE ALIMENTOS LTDA     010285566000160COMERCIAL DE ALIMENTOS GRANDE GIRO      ROD ENG RENE BENEDITO DA SILVA 668      ITAPEVI                                 06683000SP37406000010146183100055716-1  02082012007PAULISTA            2708201200000000000699976CC                                                                                                                                                                                                                                                                                                                                                                                                         000014
1047421001310COBR_CAUC_BIC  CAMPEZINA IND COM DE ALIMENTOS LTDA     010285566000160COMERCIAL DE ALIMENTOS GRANDE GIRO      ROD ENG RENE BENEDITO DA SILVA 668      ITAPEVI                                 06683000SP37406000020146182200055716-2  02082012007PAULISTA            0309201200000000000699766CC                                                                                                                                                                                                                                                                                                                                                                                                         000015
1047421001310COBR_CAUC_BIC  CAMPEZINA IND COM DE ALIMENTOS LTDA     010285566000160COMERCIAL DE ALIMENTOS GRANDE GIRO      ROD ENG RENE BENEDITO DA SILVA 668      ITAPEVI                                 06683000SP37406000030146181400055716-3  02082012007PAULISTA            1009201200000000000699767CC                                                                                                                                                                                                                                                                                                                                                                                                         000016
1047421001310COBR_CAUC_BIC  CAMPEZINA IND COM DE ALIMENTOS LTDA     005162753000117COMBAL ALIMENTOS LTDA                   RUA FLORIANO PEIXOTO, N 855             SANTA BARBARA D                         13450211SP37407000010146212800055423-1  31072012021CAMPINAS            2908201200000000000700908CC                                                                                                                                                                                                                                                                                                                                                                                                         000017
1047421001310COBR_CAUC_BIC  CAMPEZINA IND COM DE ALIMENTOS LTDA     005162753000117COMBAL ALIMENTOS LTDA                   RUA FLORIANO PEIXOTO, N 855             SANTA BARBARA D                         13450211SP37407000020146211000055423-2  31072012021CAMPINAS            0509201200000000000700698CC                                                                                                                                                                                                                                                                                                                                                                                                         000018
1047421001310COBR_CAUC_BIC  CAMPEZINA IND COM DE ALIMENTOS LTDA     005162753000117COMBAL ALIMENTOS LTDA                   RUA FLORIANO PEIXOTO, N 855             SANTA BARBARA D                         13450211SP37407000030146210100055423-3  31072012021CAMPINAS            1209201200000000000700698CC                                                                                                                                                                                                                                                                                                                                                                                                         000019
1047421001310COBR_CAUC_BIC  CAMPEZINA IND COM DE ALIMENTOS LTDA     003755209000315R&E CAMPO LIMPO CIAL DE ALIMENTOS       SANTOS DUMONT 1071                      GUARUJA                                 11460003SP37408000010146190300055710-1  02082012023SANTOS              0609201200000000002112549CC                                                                                                                                                                                                                                                                                                                                                                                                         000020
1047421001310COBR_CAUC_COR  CAMPEZINA IND COM DE ALIMENTOS LTDA     049313802000140ROLIM DE FREITAS & CIA LTDA             RUA JOSE JUNI 75                        IBIUNA                                  18150000SP37409000010146338800055752-1  03082012800UNIBANCO S/A        0509201200000000002138363CC                                                                                                                                                                                                                                                                                                                                                                                                         000021
1047421001310COBR_CAUC_BIC  CAMPEZINA IND COM DE ALIMENTOS LTDA     002895198000497SUPERMERCADO ALTA ROTACAO LTDA          INICENCIO SERAFICO 4180                 CARAPICUIBA                             06343410SP37410000010146186500055715-1  02082012007PAULISTA            2708201200000000000699976CC                                                                                                                                                                                                                                                                                                                                                                                                         000022
1047421001310COBR_CAUC_BIC  CAMPEZINA IND COM DE ALIMENTOS LTDA     002895198000497SUPERMERCADO ALTA ROTACAO LTDA          INICENCIO SERAFICO 4180                 CARAPICUIBA                             06343410SP37410000020146185700055715-2  02082012007PAULISTA            0309201200000000000699766CC                                                                                                                                                                                                                                                                                                                                                                                                         000023
1047421001310COBR_CAUC_BIC  CAMPEZINA IND COM DE ALIMENTOS LTDA     002895198000497SUPERMERCADO ALTA ROTACAO LTDA          INICENCIO SERAFICO 4180                 CARAPICUIBA                             06343410SP37410000030146184900055715-3  02082012007PAULISTA            1009201200000000000699767CC                                                                                                                                                                                                                                                                                                                                                                                                         000024
1047421001310COBR_CAUC_BIC  CAMPEZINA IND COM DE ALIMENTOS LTDA     002895198000497SUPERMERCADO ALTA ROTACAO LTDA          INICENCIO SERAFICO 4180                 CARAPICUIBA                             06343410SP37410000040146180600055717-1  02082012007PAULISTA            2908201200000000000699976CC                                                                                                                                                                                                                                                                                                                                                                                                         000025
1047421001310COBR_CAUC_BIC  CAMPEZINA IND COM DE ALIMENTOS LTDA     002895198000497SUPERMERCADO ALTA ROTACAO LTDA          INICENCIO SERAFICO 4180                 CARAPICUIBA                             06343410SP37410000050146179200055717-2  02082012007PAULISTA            0509201200000000000699766CC                                                                                                                                                                                                                                                                                                                                                                                                         000026
1047421001310COBR_CAUC_BIC  CAMPEZINA IND COM DE ALIMENTOS LTDA     002895198000497SUPERMERCADO ALTA ROTACAO LTDA          INICENCIO SERAFICO 4180                 CARAPICUIBA                             06343410SP37410000060146178400055717-3  02082012007PAULISTA            1209201200000000000699767CC                                                                                                                                                                                                                                                                                                                                                                                                         000027
1047421001310COBR_CAUC_BIC  CAMPEZINA IND COM DE ALIMENTOS LTDA     002895198000497SUPERMERCADO ALTA ROTACAO LTDA          INICENCIO SERAFICO 4180                 CARAPICUIBA                             06343410SP37410000070146177600055723-1  02082012007PAULISTA            3108201200000000000699976CC                                                                                                                                                                                                                                                                                                                                                                                                         000028
1047421001310COBR_CAUC_BIC  CAMPEZINA IND COM DE ALIMENTOS LTDA     002895198000497SUPERMERCADO ALTA ROTACAO LTDA          INICENCIO SERAFICO 4180                 CARAPICUIBA                             06343410SP37410000080146176800055723-2  02082012007PAULISTA            1009201200000000000699766CC                                                                                                                                                                                                                                                                                                                                                                                                         000029
1047421001310COBR_CAUC_BIC  CAMPEZINA IND COM DE ALIMENTOS LTDA     002895198000497SUPERMERCADO ALTA ROTACAO LTDA          INICENCIO SERAFICO 4180                 CARAPICUIBA                             06343410SP37410000090146175000055723-3  02082012007PAULISTA            1409201200000000000699767CC                                                                                                                                                                                                                                                                                                                                                                                                         000030
1047421001310COBR_CAUC_COR  CAMPEZINA IND COM DE ALIMENTOS LTDA     071004881000167BIOLAC IND. ALIMENTICIA LTDA            RUA RIACHUELO, No 1.111                 MONTE CARMELO                           38500000MG37411000010146214400055108-1  26072012800UNIBANCO S/A        1809201200000000003282500CC                                                                                                                                                                                                                                                                                                                                                                                                         000031
1047421001310COBR_CAUC_COR  CAMPEZINA IND COM DE ALIMENTOS LTDA     071004881000167BIOLAC IND. ALIMENTICIA LTDA            RUA RIACHUELO, No 1.111                 MONTE CARMELO                           38500000MG37411000020146213600055109-1  26072012800UNIBANCO S/A        1909201200000000003282500CC                                                                                                                                                                                                                                                                                                                                                                                                         000032
1047421001310COBR_CAUC_COR  CAMPEZINA IND COM DE ALIMENTOS LTDA     002642301000144ABV COM E REPRES DE ALIMENTOS LTDA      RUA BOA VISTA, 974                      AVANHANDAVA                             16360000SP37412000010146339600054902-1  23072012800UNIBANCO S/A        2708201200000000002031250CC                                                                                                                                                                                                                                                                                                                                                                                                         000033
1047421001310COBR_CAUC_COR  CAMPEZINA IND COM DE ALIMENTOS LTDA     002642301000144ABV COM E REPRES DE ALIMENTOS LTDA      RUA BOA VISTA, 974                      AVANHANDAVA                             16360000SP37412000020146174100055676-1  01082012800UNIBANCO S/A        1309201200000000001034460CC                                                                                                                                                                                                                                                                                                                                                                                                         000034
1047421001310COBR_CAUC_COR  CAMPEZINA IND COM DE ALIMENTOS LTDA     002642301000144ABV COM E REPRES DE ALIMENTOS LTDA      RUA BOA VISTA, 974                      AVANHANDAVA                             16360000SP37412000030146173300055676-2  01082012800UNIBANCO S/A        1309201200000000001034460CC                                                                                                                                                                                                                                                                                                                                                                                                         000035
1047421001310COBR_CAUC_COR  CAMPEZINA IND COM DE ALIMENTOS LTDA     002642301000144ABV COM E REPRES DE ALIMENTOS LTDA      RUA BOA VISTA, 974                      AVANHANDAVA                             16360000SP37412000040146172500055677-1  01082012800UNIBANCO S/A        1409201200000000001034460CC                                                                                                                                                                                                                                                                                                                                                                                                         000036
1047421001310COBR_CAUC_COR  CAMPEZINA IND COM DE ALIMENTOS LTDA     002642301000144ABV COM E REPRES DE ALIMENTOS LTDA      RUA BOA VISTA, 974                      AVANHANDAVA                             16360000SP37412000050146171700055677-2  01082012800UNIBANCO S/A        1409201200000000001034460CC                                                                                                                                                                                                                                                                                                                                                                                                         000037
1047421001310COBR_CAUC_COR  CAMPEZINA IND COM DE ALIMENTOS LTDA     002642301000144ABV COM E REPRES DE ALIMENTOS LTDA      RUA BOA VISTA, 974                      AVANHANDAVA                             16360000SP37412000060146170900055678-1  01082012800UNIBANCO S/A        1709201200000000001034460CC                                                                                                                                                                                                                                                                                                                                                                                                         000038
1047421001310COBR_CAUC_COR  CAMPEZINA IND COM DE ALIMENTOS LTDA     002642301000144ABV COM E REPRES DE ALIMENTOS LTDA      RUA BOA VISTA, 974                      AVANHANDAVA                             16360000SP37412000070146169500055678-2  01082012800UNIBANCO S/A        1709201200000000001034460CC                                                                                                                                                                                                                                                                                                                                                                                                         000039
1047421001310COBR_CAUC_BIC  CAMPEZINA IND COM DE ALIMENTOS LTDA     007074521000132COMPASSOS COMERCIO E REPRES DE ALI      RUA VOLUNTARIOS DA FRANCA, No 1.878     FRANCA                                  14400490SP37413000010146168700055684-1  01082012022RIBEIRAO PRETO      2609201200000000002068920CC                                                                                                                                                                                                                                                                                                                                                                                                         000040
1047421001310COBR_CAUC_BIC  CAMPEZINA IND COM DE ALIMENTOS LTDA     007074521000132COMPASSOS COMERCIO E REPRES DE ALI      RUA VOLUNTARIOS DA FRANCA, No 1.878     FRANCA                                  14400490SP37413000020146167900055685-1  01082012022RIBEIRAO PRETO      2709201200000000002071440CC                                                                                                                                                                                                                                                                                                                                                                                                         000041
1047421001310COBR_CAUC_BIC  CAMPEZINA IND COM DE ALIMENTOS LTDA     007074521000132COMPASSOS COMERCIO E REPRES DE ALI      RUA VOLUNTARIOS DA FRANCA, No 1.878     FRANCA                                  14400490SP37413000030146166100055686-1  01082012022RIBEIRAO PRETO      2709201200000000002071440CC                                                                                                                                                                                                                                                                                                                                                                                                         000042
1047421001310COBR_CAUC_BIC  CAMPEZINA IND COM DE ALIMENTOS LTDA     007074521000132COMPASSOS COMERCIO E REPRES DE ALI      RUA VOLUNTARIOS DA FRANCA, No 1.878     FRANCA                                  14400490SP37413000040146165200055687-1  01082012022RIBEIRAO PRETO      2809201200000000002071440CC                                                                                                                                                                                                                                                                                                                                                                                                         000043
1047421001310COBR_CAUC_BIC  CAMPEZINA IND COM DE ALIMENTOS LTDA     007074521000132COMPASSOS COMERCIO E REPRES DE ALI      RUA VOLUNTARIOS DA FRANCA, No 1.878     FRANCA                                  14400490SP37413000050146163600055688-1  01082012022RIBEIRAO PRETO      2809201200000000002071440CC                                                                                                                                                                                                                                                                                                                                                                                                         000044
1047421001310COBR_CAUC_BIC  CAMPEZINA IND COM DE ALIMENTOS LTDA     007074521000132COMPASSOS COMERCIO E REPRES DE ALI      RUA VOLUNTARIOS DA FRANCA, No 1.878     FRANCA                                  14400490SP37413000060146164400055689-1  01082012022RIBEIRAO PRETO      2809201200000000002071440CC                                                                                                                                                                                                                                                                                                                                                                                                         000045
1047421001310COBR_CAUC_BIC  CAMPEZINA IND COM DE ALIMENTOS LTDA     007074521000132COMPASSOS COMERCIO E REPRES DE ALI      RUA VOLUNTARIOS DA FRANCA, No 1.878     FRANCA                                  14400490SP37413000070146195400055732-1  02082012022RIBEIRAO PRETO      1409201200000000002068920CC                                                                                                                                                                                                                                                                                                                                                                                                         000046
1047421001310COBR_CAUC_BIC  CAMPEZINA IND COM DE ALIMENTOS LTDA     007074521000132COMPASSOS COMERCIO E REPRES DE ALI      RUA VOLUNTARIOS DA FRANCA, No 1.878     FRANCA                                  14400490SP37413000080146194600055733-1  02082012022RIBEIRAO PRETO      1409201200000000002068920CC                                                                                                                                                                                                                                                                                                                                                                                                         000047
1047421001310COBR_CAUC_BIC  CAMPEZINA IND COM DE ALIMENTOS LTDA     007074521000132COMPASSOS COMERCIO E REPRES DE ALI      RUA VOLUNTARIOS DA FRANCA, No 1.878     FRANCA                                  14400490SP37413000090146193800055734-1  02082012022RIBEIRAO PRETO      1909201200000000002068920CC                                                                                                                                                                                                                                                                                                                                                                                                         000048
1047421001310COBR_CAUC_BIC  CAMPEZINA IND COM DE ALIMENTOS LTDA     007074521000132COMPASSOS COMERCIO E REPRES DE ALI      RUA VOLUNTARIOS DA FRANCA, No 1.878     FRANCA                                  14400490SP37413000100146192000055735-1  02082012022RIBEIRAO PRETO      1909201200000000002068920CC                                                                                                                                                                                                                                                                                                                                                                                                         000049
1047421001310COBR_CAUC_BIC  CAMPEZINA IND COM DE ALIMENTOS LTDA     007074521000132COMPASSOS COMERCIO E REPRES DE ALI      RUA VOLUNTARIOS DA FRANCA, No 1.878     FRANCA                                  14400490SP37413000110146191100055736-1  02082012022RIBEIRAO PRETO      2609201200000000002068920CC                                                                                                                                                                                                                                                                                                                                                                                                         000050
1047421001310COBR_CAUC_BIC  CAMPEZINA IND COM DE ALIMENTOS LTDA     043235985000651CATRICALA & CIA LTDA - LJ 6             RUA JOAO BASSITT, No 600                SAO JOSE DO RIO                         15075110SP37414000010146204700055520-1  31072012047AGENCIA RIO PRETO   1209201200000000001036782CC                                                                                                                                                                                                                                                                                                                                                                                                         000051
1047421001310COBR_CAUC_BIC  CAMPEZINA IND COM DE ALIMENTOS LTDA     043235985000651CATRICALA & CIA LTDA - LJ 6             RUA JOAO BASSITT, No 600                SAO JOSE DO RIO                         15075110SP37414000020146203900055521-1  31072012047AGENCIA RIO PRETO   1709201200000000002073563CC                                                                                                                                                                                                                                                                                                                                                                                                         000052
1047421001310COBR_CAUC_BIC  CAMPEZINA IND COM DE ALIMENTOS LTDA     043235985000651CATRICALA & CIA LTDA - LJ 6             RUA JOAO BASSITT, No 600                SAO JOSE DO RIO                         15075110SP37414000030146202100055522-1  31072012047AGENCIA RIO PRETO   1709201200000000002073563CC                                                                                                                                                                                                                                                                                                                                                                                                         000053
1047421001310COBR_CAUC_BIC  CAMPEZINA IND COM DE ALIMENTOS LTDA     043235985000651CATRICALA & CIA LTDA - LJ 6             RUA JOAO BASSITT, No 600                SAO JOSE DO RIO                         15075110SP37414000040146201200055523-1  31072012047AGENCIA RIO PRETO   1709201200000000002073563CC                                                                                                                                                                                                                                                                                                                                                                                                         000054
1047421001310COBR_CAUC_BIC  CAMPEZINA IND COM DE ALIMENTOS LTDA     043235985000651CATRICALA & CIA LTDA - LJ 6             RUA JOAO BASSITT, No 600                SAO JOSE DO RIO                         15075110SP37414000050146209800055524-1  31072012047AGENCIA RIO PRETO   2409201200000000002073563CC                                                                                                                                                                                                                                                                                                                                                                                                         000055
1047421001310COBR_CAUC_BIC  CAMPEZINA IND COM DE ALIMENTOS LTDA     043235985000651CATRICALA & CIA LTDA - LJ 6             RUA JOAO BASSITT, No 600                SAO JOSE DO RIO                         15075110SP37414000060146208000055525-1  31072012047AGENCIA RIO PRETO   2409201200000000001036782CC                                                                                                                                                                                                                                                                                                                                                                                                         000056
1047421001310COBR_CAUC_BIC  CAMPEZINA IND COM DE ALIMENTOS LTDA     043235985000651CATRICALA & CIA LTDA - LJ 6             RUA JOAO BASSITT, No 600                SAO JOSE DO RIO                         15075110SP37414000070146207100055526-1  31072012047AGENCIA RIO PRETO   2409201200000000002073563CC                                                                                                                                                                                                                                                                                                                                                                                                         000057
1047421001310COBR_CAUC_BIC  CAMPEZINA IND COM DE ALIMENTOS LTDA     043235985000651CATRICALA & CIA LTDA - LJ 6             RUA JOAO BASSITT, No 600                SAO JOSE DO RIO                         15075110SP37414000080146206300055527-1  31072012047AGENCIA RIO PRETO   2409201200000000001036782CC                                                                                                                                                                                                                                                                                                                                                                                                         000058
1047421001310COBR_CAUC_BIC  CAMPEZINA IND COM DE ALIMENTOS LTDA     043235985000651CATRICALA & CIA LTDA - LJ 6             RUA JOAO BASSITT, No 600                SAO JOSE DO RIO                         15075110SP37414000090146205500055528-1  31072012047AGENCIA RIO PRETO   2409201200000000002073563CC                                                                                                                                                                                                                                                                                                                                                                                                         000059
1047421001310COBR_CAUC_BIC  CAMPEZINA IND COM DE ALIMENTOS LTDA     043235985000651CATRICALA & CIA LTDA - LJ 6             RUA JOAO BASSITT, No 600                SAO JOSE DO RIO                         15075110SP37414000100146200400055530-1  31072012047AGENCIA RIO PRETO   0110201200000000001036782CC                                                                                                                                                                                                                                                                                                                                                                                                         000060
1047421001310COBR_CAUC_BIC  CAMPEZINA IND COM DE ALIMENTOS LTDA     043235985000651CATRICALA & CIA LTDA - LJ 6             RUA JOAO BASSITT, No 600                SAO JOSE DO RIO                         15075110SP37414000110146199700055531-1  31072012047AGENCIA RIO PRETO   0110201200000000002073563CC                                                                                                                                                                                                                                                                                                                                                                                                         000061
1047421001310COBR_CAUC_BIC  CAMPEZINA IND COM DE ALIMENTOS LTDA     043235985000651CATRICALA & CIA LTDA - LJ 6             RUA JOAO BASSITT, No 600                SAO JOSE DO RIO                         15075110SP37414000120146198900055532-1  31072012047AGENCIA RIO PRETO   0110201200000000002073563CC                                                                                                                                                                                                                                                                                                                                                                                                         000062
1047421001310COBR_CAUC_BIC  CAMPEZINA IND COM DE ALIMENTOS LTDA     043235985000651CATRICALA & CIA LTDA - LJ 6             RUA JOAO BASSITT, No 600                SAO JOSE DO RIO                         15075110SP37414000130146197100055533-1  31072012047AGENCIA RIO PRETO   0110201200000000001036782CC                                                                                                                                                                                                                                                                                                                                                                                                         000063
1047421001310COBR_CAUC_BIC  CAMPEZINA IND COM DE ALIMENTOS LTDA     043235985000651CATRICALA & CIA LTDA - LJ 6             RUA JOAO BASSITT, No 600                SAO JOSE DO RIO                         15075110SP37414000140146196200055726-1  02082012047AGENCIA RIO PRETO   1409201200000000002073563CC                                                                                                                                                                                                                                                                                                                                                                                                         000064
9000017                                                                                                                                                                                                                                                                                                                                                                                                                                                                                                                                                                                                                                                                                                               000065
