0REMESSANOTIFICACAO ELETRONICA        99999999999999BICBANCO                                AV. PAULISTA                            1048      12.ANDAR  BELA VISTA                    SAO PAULO                     01310100SP1121739360CORTINHAL                               COORDENADOR                             24082011                                                                                                                                                                                                                                                                                                                                                                                      000001
1003421010775COBR_CAUC_BIC  NUFARM IND QUIM FARMACEUTICA S/A        005275800000139MACHADO E SADDI PROD AGROPECUARIOS      AV CASTELO BRANCO, 2107 QD 66 LT 13     GOIANIA                                 74530015GO297760000104011196 001873901  23072011018GOIANIA             3003201200000000013300000CC                                                                                                                                                                                                                                                                                                                                                                                                         000002
1031421007893COBR_CAUC_COR  DIPLOMATA S/A  INDL. E COMERCIAL        005907238000119ICEPORT  TERM FRIGORÍFICO DE NAVEG      RUA ANIBAL GAYA 707                     NAVEGANTES                              88375000SC2977700001049120370252622-01  19082011800UNIBANCO S/A        2909201100000000010307720CC                                                                                                                                                                                                                                                                                                                                                                                                         000003
1031421007893COBR_CAUC_COR  DIPLOMATA S/A  INDL. E COMERCIAL        091830836000179OLFAR - INDUSTRIA E COMERCIO DE OL      BR 153, S/N - KM 53 1                   ERECHIM                                 99700000RS2977800001049119950012970-03  22082011800UNIBANCO S/A        2609201100000000011016000CC                                                                                                                                                                                                                                                                                                                                                                                                         000004
9000003                                                                                                                                                                                                                                                                                                                                                                                                                                                                                                                                                                                                                                                                                                               000005
