0REMESSANOTIFICACAO ELETRONICA        99999999999999BICBANCO                                AV. PAULISTA                            1048      12.ANDAR  BELA VISTA                    SAO PAULO                     01310100SP1121739360CORTINHAL                               COORDENADOR                             05032013                                                                                                                                                                                                                                                                                                                                                                                      000001
1047421002243COBR_CAUC_BIC  ARGE LTDA                               010331096000124NORDESTE PARTICIPACOES S/A              R. ARQUIMEDES PEREIRA LIMA, 1000        CUIABµ                                  78060160MT4071300001016165160031598     27022013024CUIABA              0707201300000000010247200CC                                                                                                                                                                                                                                                                                                                                                                                                         000002
1050421000089COBR_CAUC_BIC  ATIVO ALIMENTOS EXP E IMP EIRELI        036525319000188SUPERMERCADOS FEIRA NOVA LTDA           AV MENDES DE OLIVEIRA 108               SAO JOAO DE MER                         25540000RJ407120000100432198180086/1    02032013014RIO DE JANEIRO      0104201300000000012145610CC                                                                                                                                                                                                                                                                                                                                                                                                         000003
1016421019267COBR_CAUC_BIC  COBRAZEM AGROINDUSTRIAL LTDA            084874726000658KAEFER AGRO INDUSTRIAL LTDA             ROD PR 467 KM 03 -  N 0,0               CASCAVEL                                85802970PR4071100001039253050009184-1   28022013016CURITIBA            0204201300000000027150000CC                                                                                                                                                                                                                                                                                                                                                                                                         000004
1016421019267COBR_CAUC_BIC  COBRAZEM AGROINDUSTRIAL LTDA            084874726000658KAEFER AGRO INDUSTRIAL LTDA             ROD PR 467 KM 03 -  N 0,0               CASCAVEL                                85802970PR4071100002039253210040956-1   19022013016CURITIBA            2003201300000000010750000CC                                                                                                                                                                                                                                                                                                                                                                                                         000005
1016421019267COBR_CAUC_BIC  COBRAZEM AGROINDUSTRIAL LTDA            084874726000658KAEFER AGRO INDUSTRIAL LTDA             ROD PR 467 KM 03 -  N 0,0               CASCAVEL                                85802970PR4071100003039253300040956-2   19022013016CURITIBA            2103201300000000010750000CC                                                                                                                                                                                                                                                                                                                                                                                                         000006
1016421019267COBR_CAUC_BIC  COBRAZEM AGROINDUSTRIAL LTDA            084874726000658KAEFER AGRO INDUSTRIAL LTDA             ROD PR 467 KM 03 -  N 0,0               CASCAVEL                                85802970PR4071100004039253480041115-1   21022013016CURITIBA            2603201300000000021750000CC                                                                                                                                                                                                                                                                                                                                                                                                         000007
1016421019267COBR_CAUC_BIC  COBRAZEM AGROINDUSTRIAL LTDA            084874726000658KAEFER AGRO INDUSTRIAL LTDA             ROD PR 467 KM 03 -  N 0,0               CASCAVEL                                85802970PR4071100005039253560041272-1   25022013016CURITIBA            2703201300000000012975000CC                                                                                                                                                                                                                                                                                                                                                                                                         000008
1016421019267COBR_CAUC_BIC  COBRAZEM AGROINDUSTRIAL LTDA            084874726000658KAEFER AGRO INDUSTRIAL LTDA             ROD PR 467 KM 03 -  N 0,0               CASCAVEL                                85802970PR4071100006039253640041273-1   25022013016CURITIBA            2703201300000000012975000CC                                                                                                                                                                                                                                                                                                                                                                                                         000009
1032420934675COBR_CAUC_BIC  ELIANE S/A REVESTIMENTOS CERAMICOS      012687734000170GP4 EMPREENDIMENTOS IMOBILIARIOS L      ST SHCN CL QD 106 BLOCO A LO, 24 PARTE 0BRASILIA                                70742510DF407100000101463404NDP004173A  04032013009BRASILIA            2003201300000000010000482CC                                                                                                                                                                                                                                                                                                                                                                                                         000010
1019421004658COBR_CAUC_COR  S/A ESTADO DE MINAS                     004164616000159TNL PCS S A                             JANGADEIROS 48 7 ANDAR                  RIO DE JANEIRO                          20090010RJ4070900001012159451655154-1   28022013900BRADESCO S/A        1504201300000000013200000CC                                                                                                                                                                                                                                                                                                                                                                                                         000011
9000005                                                                                                                                                                                                                                                                                                                                                                                                                                                                                                                                                                                                                                                                                                               000012
