0REMESSANOTIFICACAO ELETRONICA        99999999999999BICBANCO                                AV. PAULISTA                            1048      12.ANDAR  BELA VISTA                    SAO PAULO                     01310100SP1121739360CORTINHAL                               COORDENADOR                             27062012                                                                                                                                                                                                                                                                                                                                                                                      000001
1008420932455COBR_CAUC_COR  SANTANA TEXTIL S/A                      078876950005300CIA HERING                              RUA HERMANN HERING 1790                 BLUMENAU                                89010900SC361190000100508189079805*     15062012900BRADESCO S/A        1510201200000000010201820CC                                                                                                                                                                                                                                                                                                                                                                                                         000002
1029141001842COBR_CAUC_BIC  SEMEATO S/A INDUSTRIA E COMERCIO        060850617001795CNH LATIN AMERICA LTDA                  RUA SENADOR MILTON CAMPOS,175           NOVA LIMA                               34000000MG3612000001097252946457        13062012019BELO HORIZONTE      1307201200000000028195879TD                                                                                                                                                                                                                                                                                                                                                                                                         000003
1029141001842COBR_CAUC_BIC  SEMEATO S/A INDUSTRIA E COMERCIO        060850617001795CNH LATIN AMERICA LTDA                  RUA SENADOR MILTON CAMPOS,175           NOVA LIMA                               34000000MG3612000002097253086504        14062012019BELO HORIZONTE      1407201200000000025016431TD                                                                                                                                                                                                                                                                                                                                                                                                         000004
1029141001842COBR_CAUC_BIC  SEMEATO S/A INDUSTRIA E COMERCIO        060850617001795CNH LATIN AMERICA LTDA                  RUA SENADOR MILTON CAMPOS,175           NOVA LIMA                               34000000MG3612000003097253166567        20062012019BELO HORIZONTE      2007201200000000029036830TD                                                                                                                                                                                                                                                                                                                                                                                                         000005
1029141001842COBR_CAUC_BIC  SEMEATO S/A INDUSTRIA E COMERCIO        060850617001795CNH LATIN AMERICA LTDA                  RUA SENADOR MILTON CAMPOS,175           NOVA LIMA                               34000000MG3612000004097253244471        22062012019BELO HORIZONTE      2207201200000000012876880TD                                                                                                                                                                                                                                                                                                                                                                                                         000006
1038421011812COBR_CAUC_BIC  ENERGY COML IMPORT E EXPORT LTDA        009363567000105PREMIX BRASIL RESINAS                   ALAMEDA ARAGU,2044-CJ703A705TORRE2      SAO PAULO                               06455000SP361210000109689793001076      26062012007PAULISTA            0308201200000000012734093CC                                                                                                                                                                                                                                                                                                                                                                                                         000007
1038421011812COBR_CAUC_BIC  ENERGY COML IMPORT E EXPORT LTDA        009363567000105PREMIX BRASIL RESINAS                   ALAMEDA ARAGU,2044-CJ703A705TORRE2      SAO PAULO                               06455000SP361210000209689807001077      26062012007PAULISTA            0308201200000000012734093CC                                                                                                                                                                                                                                                                                                                                                                                                         000008
1038421011812COBR_CAUC_BIC  ENERGY COML IMPORT E EXPORT LTDA        009363567000105PREMIX BRASIL RESINAS                   ALAMEDA ARAGU,2044-CJ703A705TORRE2      SAO PAULO                               06455000SP361210000309689815001078      26062012007PAULISTA            0308201200000000012734093CC                                                                                                                                                                                                                                                                                                                                                                                                         000009
1038421011812COBR_CAUC_BIC  ENERGY COML IMPORT E EXPORT LTDA        009363567000105PREMIX BRASIL RESINAS                   ALAMEDA ARAGU,2044-CJ703A705TORRE2      SAO PAULO                               06455000SP361210000409689823001079      26062012007PAULISTA            0308201200000000012734093CC                                                                                                                                                                                                                                                                                                                                                                                                         000010
1021421015910COBR_CAUC_BIC  ZERO COM E DIST PROD DE TELEC LTDA      001172655001009SUPERMERCADOS MACIEL LTDA               VL DISTR IND,01  AV 03 BR 135 MOD 1 KM 6SAO LUIS     MA                         65099090MA361220000106338301000003950A  01062012042SAO LUIS            0807201200000000011193333CC                                                                                                                                                                                                                                                                                                                                                                                                         000011
1021421015910COBR_CAUC_BIC  ZERO COM E DIST PROD DE TELEC LTDA      001172655001009SUPERMERCADOS MACIEL LTDA               VL DISTR IND,01  AV 03 BR 135 MOD 1 KM 6SAO LUIS     MA                         65099090MA361220000206339154000003950B  01062012042SAO LUIS            0708201200000000011193333CC                                                                                                                                                                                                                                                                                                                                                                                                         000012
1021421015910COBR_CAUC_BIC  ZERO COM E DIST PROD DE TELEC LTDA      001172655001009SUPERMERCADOS MACIEL LTDA               VL DISTR IND,01  AV 03 BR 135 MOD 1 KM 6SAO LUIS     MA                         65099090MA361220000306339162000003950C  01062012042SAO LUIS            0609201200000000011193334CC                                                                                                                                                                                                                                                                                                                                                                                                         000013
1021421015910COBR_CAUC_BIC  ZERO COM E DIST PROD DE TELEC LTDA      006862627010010CLAUDINO S A LOJAS DE DEPARTAMENTO      RUA JOAO CABRAL,607                     TERESINA     PI                         64000030PI361230000106337801000004133   25062012041TERESINA            2309201200000000011234400CC                                                                                                                                                                                                                                                                                                                                                                                                         000014
1021421015910COBR_CAUC_BIC  ZERO COM E DIST PROD DE TELEC LTDA      011114284006528CASA E VIDEO RIO DE JANEIRO SA          R CAROLINA DE ASSIS,451 LAFAYETE FRE 220RIO DE JANEIRRJ                         21555510RJ361240000106338638000003946   01062012014RIO DE JANEIRO      1809201200000000029370000CC                                                                                                                                                                                                                                                                                                                                                                                                         000015
1021421015910COBR_CAUC_BIC  ZERO COM E DIST PROD DE TELEC LTDA      011114284006528CASA E VIDEO RIO DE JANEIRO SA          R CAROLINA DE ASSIS,451 LAFAYETE FRE 220RIO DE JANEIRRJ                         21555510RJ361240000206338646000004052   13062012014RIO DE JANEIRO      1809201200000000011388000CC                                                                                                                                                                                                                                                                                                                                                                                                         000016
1021421015910COBR_CAUC_BIC  ZERO COM E DIST PROD DE TELEC LTDA      011812012000218MOBI TELEFONIA LTDA                     AV TANCREDO NEVES,2915  L1 Q16 SALV SHP SALVADOR     BA                         41820020BA361250000106338000000004145A  25062012013SALVADOR            2408201200000000012497428CC                                                                                                                                                                                                                                                                                                                                                                                                         000017
1021421015910COBR_CAUC_BIC  ZERO COM E DIST PROD DE TELEC LTDA      011812012000218MOBI TELEFONIA LTDA                     AV TANCREDO NEVES,2915  L1 Q16 SALV SHP SALVADOR     BA                         41820020BA361250000206338018000004145B  25062012013SALVADOR            2309201200000000012497428CC                                                                                                                                                                                                                                                                                                                                                                                                         000018
1021421015910COBR_CAUC_BIC  ZERO COM E DIST PROD DE TELEC LTDA      011812012000218MOBI TELEFONIA LTDA                     AV TANCREDO NEVES,2915  L1 Q16 SALV SHP SALVADOR     BA                         41820020BA361250000306338026000004145C  25062012013SALVADOR            2310201200000000012497429CC                                                                                                                                                                                                                                                                                                                                                                                                         000019
1021421015910COBR_CAUC_BIC  ZERO COM E DIST PROD DE TELEC LTDA      011812012000218MOBI TELEFONIA LTDA                     AV TANCREDO NEVES,2915  L1 Q16 SALV SHP SALVADOR     BA                         41820020BA361250000406338069000004131A  25062012900SALVADOR            2408201200000000013169455CC                                                                                                                                                                                                                                                                                                                                                                                                         000020
1021421015910COBR_CAUC_BIC  ZERO COM E DIST PROD DE TELEC LTDA      011812012000218MOBI TELEFONIA LTDA                     AV TANCREDO NEVES,2915  L1 Q16 SALV SHP SALVADOR     BA                         41820020BA361250000506338077000004131B  25062012900SALVADOR            2309201200000000013169455CC                                                                                                                                                                                                                                                                                                                                                                                                         000021
1021421015910COBR_CAUC_BIC  ZERO COM E DIST PROD DE TELEC LTDA      011812012000218MOBI TELEFONIA LTDA                     AV TANCREDO NEVES,2915  L1 Q16 SALV SHP SALVADOR     BA                         41820020BA361250000606338085000004131C  25062012900SALVADOR            2310201200000000013169455CC                                                                                                                                                                                                                                                                                                                                                                                                         000022
1021421015910COBR_CAUC_COR  ZERO COM E DIST PROD DE TELEC LTDA      013481309019535RN COMERCIO VAREJISTA SA                EST AEROPORTO AREMBEPE KM 3,5 MQ D VENDALAURO DE FREIBA                         42700000BA361260000106338557000003914   01062012900BRADESCO S/A        2908201200000000013965000CC                                                                                                                                                                                                                                                                                                                                                                                                         000023
1021421015910COBR_CAUC_COR  ZERO COM E DIST PROD DE TELEC LTDA      013481309019535RN COMERCIO VAREJISTA SA                EST AEROPORTO AREMBEPE KM 3,5 MQ D VENDALAURO DE FREIBA                         42700000BA361260000206339006000004041   12062012900BRADESCO S/A        0409201200000000025404750CC                                                                                                                                                                                                                                                                                                                                                                                                         000024
1021421015910COBR_CAUC_BIC  ZERO COM E DIST PROD DE TELEC LTDA      070120662000180ATACADAO DOS ELETRODOMESTICOS DO N      ROD BR 101,KM 04 GALPAO B NORTE         JOAO PESSOA  PB                         58082000PB361270000106338620000003959   01062012043JOAO PESSOA         3107201200000000015840000CC                                                                                                                                                                                                                                                                                                                                                                                                         000025
1008421022487COBR_CAUC_COR  EBP - EMPRESA BRASILEIRA DE PESCADO     033304981000110SUPERMERCADOS MUNDIAL LTDA              RUA  DONA EMILIA, 2                     RIO DE JANEIRO                          20765110RJ36128000010153876612034/      23062012900BRADESCO S/A        1307201200000000023360400CC                                                                                                                                                                                                                                                                                                                                                                                                         000026
1017421002802DIR_CREDIT     LAGINHA AGRO INDUSTRIAL S/A             005805008000220VERTICAL UK DO BRASIL EXP E IMP LTDA    RUA DO SEMINARIO, 199 - 5 ANDAR CJ 52 A SAO PAULO                               01034904SP3613200001                                                                                                                                          010628611           160720090000013872CONSOLIDADO 29072011000403compra e venda de alcool hidratado padrao korea ou hidratado padrao anp- sdr referia-se a antiga consolidação (9504 e 11753), atualmente refere-se exclusivamente ao sdr 9504 - contrato nr b5047.                                              012274379000107              000027
1017421002802DIR_CREDIT     LAGINHA AGRO INDUSTRIAL S/A             005805008000220VERTICAL UK DO BRASIL EXP E IMP LTDA    RUA DO SEMINARIO, 199 - 5 ANDAR CJ 52 A SAO PAULO                               01034904SP3613300001                                                                                                                                          011779800           160720090000013872CONSOLIDADO 21062012017002compra e venda de alcool hidratado padrao korea ou hidratado padrao anp- sdr referia-se a antiga consolidação (9504 e 11753), atualmente refere-se exclusivamente ao sdr 9504 - contrato nr b5047.                                              012274379000107              000028
1017421002802DIR_CREDIT     LAGINHA AGRO INDUSTRIAL S/A             005805008000220VERTICAL UK DO BRASIL EXP E IMP LTDA    RUA DO SEMINARIO, 199 - 5 ANDAR CJ 52 A SAO PAULO                               01034904SP3613400001                                                                                                                                          011788140           160720090000013872CONSOLIDADO 09032012017002compra e venda de alcool hidratado padrao korea ou hidratado padrao anp- sdr referia-se a antiga consolidação (9504 e 11753), atualmente refere-se exclusivamente ao sdr 9504 - contrato nr b5047.                                              012274379000107              000029
1024421008714COBR_CAUC_COR  AGRO AMAZONIA PRODUTOS AGROPECUARIO     000001339051109LUIZ RONALDO TIRLONI                    AV BRASIL, 644 CENTRO                   RONDONOPOLIS                            78753000MT3614900001019782205981        04022012800UNIBANCO S/A        0509201200000000004428000CC                                                                                                                                                                                                                                                                                                                                                                                                         000030
1024421008714COBR_CAUC_COR  AGRO AMAZONIA PRODUTOS AGROPECUARIO     000001339051109LUIZ RONALDO TIRLONI                    AV BRASIL, 644 CENTRO                   RONDONOPOLIS                            78753000MT3614900002019782115982        04022012800UNIBANCO S/A        0509201200000000002336000CC                                                                                                                                                                                                                                                                                                                                                                                                         000031
1024421008714COBR_CAUC_COR  AGRO AMAZONIA PRODUTOS AGROPECUARIO     000001339051109LUIZ RONALDO TIRLONI                    AV BRASIL, 644 CENTRO                   RONDONOPOLIS                            78753000MT3614900003019782036193        22022012800UNIBANCO S/A        3008201200000000002132000CC                                                                                                                                                                                                                                                                                                                                                                                                         000032
1024421008714COBR_CAUC_COR  AGRO AMAZONIA PRODUTOS AGROPECUARIO     000016027744987ANCENIO VALENTIN ZILIO                  RUA PEDRO GUIMARAES, 1444               OSASCO                                  78700380SP36150000010197818116526       06022012900BRADESCO S/A        3008201200000000006241000CC                                                                                                                                                                                                                                                                                                                                                                                                         000033
1024421008714COBR_CAUC_COR  AGRO AMAZONIA PRODUTOS AGROPECUARIO     000016027744987ANCENIO VALENTIN ZILIO                  RUA PEDRO GUIMARAES, 1444               OSASCO                                  78700380SP36150000020197819016692       10022012900BRADESCO S/A        3008201200000000004650000CC                                                                                                                                                                                                                                                                                                                                                                                                         000034
1024421008714COBR_CAUC_COR  AGRO AMAZONIA PRODUTOS AGROPECUARIO     003472750000235AGROPECUARIA CHAPADA DOS GUIMARAES      R OSVALDO CRUZ 110 6 ANDAR 608          ARACATUBA                               16010040SP36151000010197825416214       24012012800UNIBANCO S/A        3009201200000000008875000CC                                                                                                                                                                                                                                                                                                                                                                                                         000035
1024421008714COBR_CAUC_COR  AGRO AMAZONIA PRODUTOS AGROPECUARIO     003472750000235AGROPECUARIA CHAPADA DOS GUIMARAES      R OSVALDO CRUZ 110 6 ANDAR 608          ARACATUBA                               16010040SP36151000020197826216658       09022012800UNIBANCO S/A        3009201200000000006750000CC                                                                                                                                                                                                                                                                                                                                                                                                         000036
1024421008714COBR_CAUC_COR  AGRO AMAZONIA PRODUTOS AGROPECUARIO     000000215947169ANDREY COSTA BEBER                      ROD BR 163 KM 632 + 8KM A ESQUERDA S/N  NOVA MUTUM                              78450000MT3615200001019781064625        30012012900BRADESCO S/A        2008201200000000004588720CC                                                                                                                                                                                                                                                                                                                                                                                                         000037
1024421008714COBR_CAUC_COR  AGRO AMAZONIA PRODUTOS AGROPECUARIO     000000215947169ANDREY COSTA BEBER                      ROD BR 163 KM 632 + 8KM A ESQUERDA S/N  NOVA MUTUM                              78450000MT3615200002019780924847        08022012900BRADESCO S/A        2008201200000000011036750CC                                                                                                                                                                                                                                                                                                                                                                                                         000038
1024421008714COBR_CAUC_COR  AGRO AMAZONIA PRODUTOS AGROPECUARIO     000000215947169ANDREY COSTA BEBER                      ROD BR 163 KM 632 + 8KM A ESQUERDA S/N  NOVA MUTUM                              78450000MT3615200003019780845209        29022012900BRADESCO S/A        2008201200000000001382780CC                                                                                                                                                                                                                                                                                                                                                                                                         000039
1024421008714COBR_CAUC_COR  AGRO AMAZONIA PRODUTOS AGROPECUARIO     000024557439934PAULO ROBERTO DE SOUZA                  ROD MT 10 KM 60 DITEITA ZON RU          OSASCO                                  78555000SP3615300001019788076185        03022012900BRADESCO S/A        2008201200000000003553500CC                                                                                                                                                                                                                                                                                                                                                                                                         000040
1024421008714COBR_CAUC_COR  AGRO AMAZONIA PRODUTOS AGROPECUARIO     000024557439934PAULO ROBERTO DE SOUZA                  ROD MT 10 KM 60 DITEITA ZON RU          OSASCO                                  78555000SP3615300002019788156223        07022012900BRADESCO S/A        2008201200000000007233820CC                                                                                                                                                                                                                                                                                                                                                                                                         000041
1024421008714COBR_CAUC_COR  AGRO AMAZONIA PRODUTOS AGROPECUARIO     000024557439934PAULO ROBERTO DE SOUZA                  ROD MT 10 KM 60 DITEITA ZON RU          OSASCO                                  78555000SP3615300003019788236574        08032012900BRADESCO S/A        2008201200000000003346500CC                                                                                                                                                                                                                                                                                                                                                                                                         000042
1024421008714COBR_CAUC_COR  AGRO AMAZONIA PRODUTOS AGROPECUARIO     000024557439934PAULO ROBERTO DE SOUZA                  ROD MT 10 KM 60 DITEITA ZON RU          OSASCO                                  78555000SP3615300004019788316716        21032012900BRADESCO S/A        2008201200000000003221700CC                                                                                                                                                                                                                                                                                                                                                                                                         000043
1024421008714COBR_CAUC_COR  AGRO AMAZONIA PRODUTOS AGROPECUARIO     000032594445991CLAUDIO ADALBERTO ROMAGNOLI             RUA SANTO ANDRE 185                     OSASCO                                  78850000SP36154000010197805016430       01022012900BRADESCO S/A        3008201200000000005717958CC                                                                                                                                                                                                                                                                                                                                                                                                         000044
1024421008714COBR_CAUC_COR  AGRO AMAZONIA PRODUTOS AGROPECUARIO     000032594445991CLAUDIO ADALBERTO ROMAGNOLI             RUA SANTO ANDRE 185                     OSASCO                                  78850000SP36154000020197806816672       10022012900BRADESCO S/A        3008201200000000002240025CC                                                                                                                                                                                                                                                                                                                                                                                                         000045
1024421008714COBR_CAUC_COR  AGRO AMAZONIA PRODUTOS AGROPECUARIO     000032594445991CLAUDIO ADALBERTO ROMAGNOLI             RUA SANTO ANDRE 185                     OSASCO                                  78850000SP36154000030197807618567       24052012900BRADESCO S/A        3008201200000000012606300CC                                                                                                                                                                                                                                                                                                                                                                                                         000046
1024421008714COBR_CAUC_COR  AGRO AMAZONIA PRODUTOS AGROPECUARIO     000035133422091VICENTE LUIZ COSTA BEBER                ROD BR 163 KM 622 A ESQUERDA S/N        NOVA MUTUM                              78450000MT3615500001019781574624        30012012900BRADESCO S/A        2008201200000000008085990CC                                                                                                                                                                                                                                                                                                                                                                                                         000047
1024421008714COBR_CAUC_COR  AGRO AMAZONIA PRODUTOS AGROPECUARIO     000035133422091VICENTE LUIZ COSTA BEBER                ROD BR 163 KM 622 A ESQUERDA S/N        NOVA MUTUM                              78450000MT3615500002019781734665        03022012900BRADESCO S/A        2008201200000000009825000CC                                                                                                                                                                                                                                                                                                                                                                                                         000048
1024421008714COBR_CAUC_COR  AGRO AMAZONIA PRODUTOS AGROPECUARIO     000035133422091VICENTE LUIZ COSTA BEBER                ROD BR 163 KM 622 A ESQUERDA S/N        NOVA MUTUM                              78450000MT3615500003019781654753        06022012900BRADESCO S/A        2008201200000000003697200CC                                                                                                                                                                                                                                                                                                                                                                                                         000049
1024421008714COBR_CAUC_COR  AGRO AMAZONIA PRODUTOS AGROPECUARIO     000035133422091VICENTE LUIZ COSTA BEBER                ROD BR 163 KM 622 A ESQUERDA S/N        NOVA MUTUM                              78450000MT3615500004019781495244        01032012900BRADESCO S/A        2008201200000000002100000CC                                                                                                                                                                                                                                                                                                                                                                                                         000050
1014421002783COBR_CAUC_BIC  SUPERPESA CIA TRANSP E INTERMODAIS      060882628001323CONFAB INDUSTRIAL SA                    RUA DR.GONZAGA SN                       PINDAMONHANGABA                         12425190SP361560000104529459005139      11042012007PAULISTA            1507201200000000011543387CC                                                                                                                                                                                                                                                                                                                                                                                                         000051
1014421002783COBR_CAUC_BIC  SUPERPESA CIA TRANSP E INTERMODAIS      060882628001323CONFAB INDUSTRIAL SA                    RUA DR.GONZAGA SN                       PINDAMONHANGABA                         12425190SP361560000204529467005144      05052012007PAULISTA            1507201200000000004568057CC                                                                                                                                                                                                                                                                                                                                                                                                         000052
1014421002783COBR_CAUC_BIC  SUPERPESA CIA TRANSP E INTERMODAIS      060882628001323CONFAB INDUSTRIAL SA                    RUA DR.GONZAGA SN                       PINDAMONHANGABA                         12425190SP361560000304529475005145      09052012007PAULISTA            1507201200000000003359041CC                                                                                                                                                                                                                                                                                                                                                                                                         000053
9000021                                                                                                                                                                                                                                                                                                                                                                                                                                                                                                                                                                                                                                                                                                               000054
