0REMESSANOTIFICACAO ELETRONICA        99999999999999BICBANCO                                AV. PAULISTA                            1048      12.ANDAR  BELA VISTA                    SAO PAULO                     01310100SP1121739360CORTINHAL                               COORDENADOR                             14082014                                                                                                                                                                                                                                                                                                                                                                                      000001
1048421000338COBR_CAUC_COR  FRIGOESTRELA S.A. EM RECUP JUDICIAL     060398914000931MIDORI ATLANTICA BRASIL INDUSTRIAL      AV. ANTONIO VERONESE TERREO, 1007       PENAPOLIS                               16300000SP4882100001085377710115698201  12082014900BRADESCO S/A        1908201400000000017971136CC                                                                                                                                                                                                                                                                                                                                                                                                         000002
1003421013987COBR_CAUC_COR  SCIENTIFIC COM E IMPORTACAO LTDA        000029372000140GE HC DO BRASIL COM. SERV. EQUIP M      AV DAS NACOES UNIDAS,8501               SAO PAULO                               05425070SP4882200001001127451088        12082014900BRADESCO S/A        2708201400000000015016846CC                                                                                                                                                                                                                                                                                                                                                                                                         000003
1043421010006COBR_CAUC_COR  ELFA MEDICAMENTOS LTDA                  012307187000150SANTA CASA DE MISERICORDIA DE MACE      RUA BARAO DE MACEIO, 288                MACEIO                                  57020360AL488230000100108958000056209   12082014900BRADESCO S/A        2110201400000000011556390CC                                                                                                                                                                                                                                                                                                                                                                                                         000004
1021421017352COBR_CAUC_BIC  STAR DISTR PROD FARMACEUTICOS LTDA      061585865000151RAIA DROGASIL S/A                       AVENIDA CORIFEU DE AZEVEDO MARQUES, 3097SAO PAULO                               05339000SP4882400001000006350000378801  12082014007PAULISTA            2608201400000000015518987CC                                                                                                                                                                                                                                                                                                                                                                                                         000005
1021421017352COBR_CAUC_BIC  STAR DISTR PROD FARMACEUTICOS LTDA      061585865000151RAIA DROGASIL S/A                       AVENIDA CORIFEU DE AZEVEDO MARQUES, 3097SAO PAULO                               05339000SP4882400002000006510000379201  12082014007PAULISTA            2608201400000000022326267CC                                                                                                                                                                                                                                                                                                                                                                                                         000006
9000004                                                                                                                                                                                                                                                                                                                                                                                                                                                                                                                                                                                                                                                                                                               000007
