0REMESSANOTIFICACAO ELETRONICA        99999999999999BICBANCO                                AV. PAULISTA                            1048      12.ANDAR  BELA VISTA                    SAO PAULO                     01310100SP1121739360CORTINHAL                               COORDENADOR                             15052012                                                                                                                                                                                                                                                                                                                                                                                      000001
1020421001652COBR_CAUC_COR  SANTHER FAB PAP STA THEREZINHA S/A      066471517000177DPC DISTRIBUIDOR ATACADISTA S/A         RODOVIA MG 329 KM 2,0                   CARATINGA                               35300000MG353830000106186631036137101   12052012800UNIBANCO S/A        2506201200000000010234474CC                                                                                                                                                                                                                                                                                                                                                                                                         000002
1021141012725COBR_CAUC_BIC  MABE BRASIL ELETRODOMESTICOS LTDA       009358108000397NOVA PONTOCOM COMERCIO ELETRONICO       RUA GOMES DE CARVALHO, 1609             SãO PAULO                               04547006SP3538400001063306450000731552  14052012007PAULISTA            2307201200000000012706946TD                                                                                                                                                                                                                                                                                                                                                                                                         000003
1021141012725COBR_CAUC_BIC  MABE BRASIL ELETRODOMESTICOS LTDA       047508411007835CIA.BRASILEIRA DE DISTRIBUICAO          MARG. DIR. TIETE 342                    SAO PAULO                               05118100SP3538500001063304240000107845  11052012007PAULISTA            2007201200000000010240031TD                                                                                                                                                                                                                                                                                                                                                                                                         000004
1050421000089COBR_CAUC_BIC  ATIVO ALIMENTOS LTDA                    011596442003427CARVALHO E FERNANDES LTDA               AVE DEPUTADO PAULO FERRAZ 4888          TERESINA                                64078820PI353860000100333149134177/1    11052012041TERESINA            1006201200000000014226659CC                                                                                                                                                                                                                                                                                                                                                                                                         000005
1014421008439COBR_CAUC_BIC  TV OMEGA LTDA                           060701190000104Itaú Unibanco S/A.                      Av. Brig. Faria Lima - 18º Andar 2277   SãoPaulo                                01452000SP35387000010452147401316701    14052012007PAULISTA            1506201200000000013735008CC                                                                                                                                                                                                                                                                                                                                                                                                         000006
9000005                                                                                                                                                                                                                                                                                                                                                                                                                                                                                                                                                                                                                                                                                                               000007
