0REMESSANOTIFICACAO ELETRONICA        99999999999999BICBANCO                                AV. PAULISTA                            1048      12.ANDAR  BELA VISTA                    SAO PAULO                     01310100SP1121739360CORTINHAL                               COORDENADOR                             06072011                                                                                                                                                                                                                                                                                                                                                                                      000001
1006420932150COBR_CAUC_COR  FIOTEX INDUSTRIAL S/A                   054508031000691BURDAY'S TEXTIL E MODAS LTDA            AV. WILSON PINHEIRO      800  UNID      IBITINGA                                14940000SP2872500001085673410001021001  30062011800UNIBANCO S/A        2809201100000000015917656CC                                                                                                                                                                                                                                                                                                                                                                                                         000002
1007421022022COBR_CAUC_BIC  SOL EMBALAGENS PLASTICAS LTDA.          009486726000150AMT INDUSTRIA E COMERCIO LTDA           AV RADIALISTA JOAO RAMOS, N§ 02586      MARACANAU                               61930360CE2877300001006097136428A!      06062011003CENTRO              0609201100000000006630000CC                                                                                                                                                                                                                                                                                                                                                                                                         000003
1007421022022COBR_CAUC_BIC  SOL EMBALAGENS PLASTICAS LTDA.          009486726000150AMT INDUSTRIA E COMERCIO LTDA           AV RADIALISTA JOAO RAMOS, N§ 02586      MARACANAU                               61930360CE2877300002006097306428B!      06062011003CENTRO              0709201100000000006630000CC                                                                                                                                                                                                                                                                                                                                                                                                         000004
1007421022022COBR_CAUC_BIC  SOL EMBALAGENS PLASTICAS LTDA.          009486726000150AMT INDUSTRIA E COMERCIO LTDA           AV RADIALISTA JOAO RAMOS, N§ 02586      MARACANAU                               61930360CE2877300003006579636593A!      07062011003CENTRO              3008201100000000006435000CC                                                                                                                                                                                                                                                                                                                                                                                                         000005
1007421022022COBR_CAUC_BIC  SOL EMBALAGENS PLASTICAS LTDA.          009486726000150AMT INDUSTRIA E COMERCIO LTDA           AV RADIALISTA JOAO RAMOS, N§ 02586      MARACANAU                               61930360CE2877300004006581116593B!      07062011003CENTRO              0209201100000000006435000CC                                                                                                                                                                                                                                                                                                                                                                                                         000006
9000002                                                                                                                                                                                                                                                                                                                                                                                                                                                                                                                                                                                                                                                                                                               000007
