0REMESSANOTIFICACAO ELETRONICA        99999999999999BICBANCO                                AV. PAULISTA                            1048      12.ANDAR  BELA VISTA                    SAO PAULO                     01310100SP1121739360CORTINHAL                               COORDENADOR                             27092011                                                                                                                                                                                                                                                                                                                                                                                      000001
1009421003875DIR_CREDIT     POLIEDRO INFORMATICA CONSULT. SERV.     007947821000189AGENCIA NACIONAL DE AVIAçãO CIVIL-ANAC  Q SCS QUADRA 9 S/N - EDIF. PARQUE CIDAD BRASILIA-DF                             70308200DF3082500001                                                                                                                                          481012742           251020070000019564053/2007/ANA22092011000404Prestação de serviços técnicos especializados em Tecnologia da Informa-ção (TI) em apoio às atividades meio e fim da Agência Nacional de Aviação Civil(ANAC).                                                                                   002660447000112              000002
1021420930887COBR_CAUC_COR  DEDINI S/A INDUSTRIAS DE BASE           048295562001884USINA ALTO ALEGRE S A - ACUCAR E A      RUA JOSE LEITE, 40 JD BONGIOVANI BR     PRESIDENTE PRUD                         19050910SP30893000010619793721294-2-2   20092011900BRADESCO S/A        1110201100000000010058916CC                                                                                                                                                                                                                                                                                                                                                                                                         000003
1048421000338COBR_CAUC_COR  FRIGOESTRELA S.A. EM RECUP JUDICIAL     050947761001871IRMAOS RUSSI LTDA                       RUA LUIS ALLI FARDYN590SALA 03          CAJAMAR                                 07750000SP3089400001014661930014913401  25092011900BRADESCO S/A        3110201100000000011278372CC                                                                                                                                                                                                                                                                                                                                                                                                         000004
9000003                                                                                                                                                                                                                                                                                                                                                                                                                                                                                                                                                                                                                                                                                                               000005
