0REMESSANOTIFICACAO ELETRONICA        99999999999999BICBANCO                                AV. PAULISTA                            1048      12.ANDAR  BELA VISTA                    SAO PAULO                     01310100SP1121739360CORTINHAL                               COORDENADOR                             04042013                                                                                                                                                                                                                                                                                                                                                                                      000001
1046421001443COBR_CAUC_COR  COSTAO DO SANTINHO TUR E LAZER LTDA     066822537001036WALHATUR VIAGENS E TURISMO LTDA         RUA CALCADA DOS ANTARES,163             SANTANA PARNAIB                         06541065SP412200000100010034164228      02042013900BRADESCO S/A        1204201300000000010373614CC                                                                                                                                                                                                                                                                                                                                                                                                         000002
1048421003043COBR_CAUC_COR  FRIGOL S.A. EM RECUPERACAO JUDICIAL     000360059000190LEDIVALDO BEZZERRA DA SILVA ME          EST DOS REMEDIOS 159                    RECIFE                                  50770120PE4122100001000161010000019972  03042013900BRADESCO S/A        1004201300000000012483825CC                                                                                                                                                                                                                                                                                                                                                                                                         000003
1018421018863COBR_CAUC_COR  PIVOT EQUIPAMENTOS AGRI E IRRI LTDA     000019629798816FABRICIO ALVES BARBOSA                  FAZENDA SAO JOSE, S/N -                 PIRACANJUBA                             75640000GO4121900001000024736985 3      04032013900BRADESCO S/A        1505201300000000025000000CC                                                                                                                                                                                                                                                                                                                                                                                                         000004
1015141021638COBR_CAUC_COR  SERRA MORENA CORRETORA LTDA             095597647000159ANTONIAZZI E CIA LTDA                   RUA ARISTIDES LOBO, 290                 SANTA MARIA                             97010050RS4121800001010205232805        02042013900BRADESCO S/A        3004201300000000083265000TD                                                                                                                                                                                                                                                                                                                                                                                                         000005
9000004                                                                                                                                                                                                                                                                                                                                                                                                                                                                                                                                                                                                                                                                                                               000006
