0REMESSANOTIFICACAO ELETRONICA        99999999999999BICBANCO                                AV. PAULISTA                            1048      12.ANDAR  BELA VISTA                    SAO PAULO                     01310100SP1121739360CORTINHAL                               COORDENADOR                             10052012                                                                                                                                                                                                                                                                                                                                                                                      000001
1018421010323COBR_CAUC_COR  PRODUBON NUTRICAO ANIMAL LTDA           000001866397168CARLOS AIMAR FAVERO                     R RODOLFO TAVARES N446                  GUAPO                                   75350000GO353120000102730531032748/     26042012800UNIBANCO S/A        2408201200000000011760000CC                                                                                                                                                                                                                                                                                                                                                                                                         000002
1018421010323COBR_CAUC_COR  PRODUBON NUTRICAO ANIMAL LTDA           000009461833172JOAO MIGUEL DA SILVA                    R LUIS ANTONIO QD 26 LT 32              ITABERAI                                76630000GO353130000102730841032699/     25042012800UNIBANCO S/A        0409201200000000019350300CC                                                                                                                                                                                                                                                                                                                                                                                                         000003
1018421010323COBR_CAUC_BIC  PRODUBON NUTRICAO ANIMAL LTDA           000015481468891GERALDO DE OLIVEIRA VALLIM E OUTRO      PRACA CORONEL JOAQUIM CANDIDO,50        S J DA BOA VIST                         13870149SP353140000102730794031342/     15032012021CAMPINAS            1108201200000000020988000CC                                                                                                                                                                                                                                                                                                                                                                                                         000004
1019421010259COBR_CAUC_BIC  L & S INTERBANK FOMENTO LTDA            068881150000195PHOENIX IND E COM DE TABACOS LTDA       R. IRINEU JOSE BORDON, 565              SAO PAULO                               05120060SP3531500001064272821109-3      07052012007PAULISTA            2908201200000000015440500CC                                                                                                                                                                                                                                                                                                                                                                                                         000005
9000004                                                                                                                                                                                                                                                                                                                                                                                                                                                                                                                                                                                                                                                                                                               000006
