0REMESSANOTIFICACAO ELETRONICA        99999999999999BICBANCO                                AV. PAULISTA                            1048      12.ANDAR  BELA VISTA                    SAO PAULO                     01310100SP1121739360CORTINHAL                               COORDENADOR                             31012013                                                                                                                                                                                                                                                                                                                                                                                      000001
1038421021036COBR_CAUC_BIC  ADELCO SISTEMAS DE ENERGIA LTDA         051594950000122NM ENGENHARIA E CONSTRUCOES LTDA        AV. VALENTIM GENTIL,498                 SAO PAULO                               05506070SP4001400001099661345689-D      17122012007PAULISTA            0403201300000000000752744CC                                                                                                                                                                                                                                                                                                                                                                                                         000002
1038421021036COBR_CAUC_BIC  ADELCO SISTEMAS DE ENERGIA LTDA         051594950000122NM ENGENHARIA E CONSTRUCOES LTDA        AV. VALENTIM GENTIL,498                 SAO PAULO                               05506070SP4001400002099661775689-C      17122012007PAULISTA            1502201300000000004892861CC                                                                                                                                                                                                                                                                                                                                                                                                         000003
1050421000089COBR_CAUC_COR  ATIVO ALIMENTOS EXP E IMP EIRELI        027497684000135FRISA FRIGORIFICO RIO DOCE SA           R FIORAVANTE ROSSI 4000                 COLATINA                                29704700ES399900000100422206174723/1    29012013800UNIBANCO S/A        2602201300000000010980000CC                                                                                                                                                                                                                                                                                                                                                                                                         000004
1015421018785COBR_CAUC_BIC  CALIENDO METALURGIA GRAVACOES LTDA      059105999000348WHIRLPOOL S.A URC                       AV DAS NACOES UNIDAS,12995              SAO PAULO                               04578000SP39989000010100197914230-01    29012013007PAULISTA            0104201300000000014690699CC                                                                                                                                                                                                                                                                                                                                                                                                         000005
1021420930887COBR_CAUC_COR  DEDINI S/A INDUSTRIAS DE BASE           004165520000296AGROPECUARIA NOVO MILENIO LTDA          ROD TRANSEFONICA KM 6 ANEXO 01 S N VILA MIRASSOL D'OEST                         78280000MT399860000106367654187951-8-8  30012013900BRADESCO S/A        2003201300000000048500000CC                                                                                                                                                                                                                                                                                                                                                                                                         000006
1014421022121DIR_CREDIT     EXPRESSO ANDRESSA LOGISTICA LTDA        017227422000105GERDAU AçOMINAS                         RODOVIA MG 443 - KM 7                   MINAS GERAIS                            36420000MG4000000001                                                                                                                                          012105510           020920120000023261LE 20120015 30012013000403Prestação de serviços de transporte rodoviário de produtos siderúrgicosfabricados e comercializados pela GERDAU AÇOMINAS, através de veículos própriosou de terceiros.                                                                          002766015000514              000007
1028421001518COBR_CAUC_COR  GAIA AGRIBUSINESS AGRICOLA LTDA         000037457080082SILVIO ARANTES DE OLIVEIRA              AV MINAS GERAIS,1380                    GOIATUBA                                75600000GO39991000010284577133934       30012013900BRADESCO S/A        2007201300000000013890000CC                                                                                                                                                                                                                                                                                                                                                                                                         000008
1006420933059COBR_CAUC_BIC  IMARF BENEFICIAMENTO DE GRANITOS LT     000475251000122PAULO OCTAVIO INVESTIMENTOS IMOBIL      SCN QUADRA 01,125                       BRASILIA                                70711900DF3998700001093676982949        30012013009BRASILIA            2702201300000000010715382CC                                                                                                                                                                                                                                                                                                                                                                                                         000009
1019421010259COBR_CAUC_COR  L & S INTERBANK FOMENTO LTDA            019368927000107EXPRESSO NEPOMUCENO S/A                 R  ALCIDIS THOMAS DA SILVA 15           LAVRAS                                  37200000MG399920000106666457703029895   30012013900BRADESCO S/A        1502201300000000012224720CC                                                                                                                                                                                                                                                                                                                                                                                                         000010
1019421014068COBR_CAUC_COR  RIO BRANCO ALIMENTOS S/A                001928075002062DMA DISTRIBUIDORA S/A                   ROD BR 040 KM 531 180                   BELO HORIZONTE                          30855500MG3998800001010520430158405101  29012013900BRADESCO S/A        2802201300000000014806729CC                                                                                                                                                                                                                                                                                                                                                                                                         000011
1007421061290COBR_CAUC_BIC  ROYAL QUIMICA LTDA                      056558703000194BENTOMAR IND. E COM. DE MINERIOS L      R: SR. EDGAR MAGALHAES DE NORONHA, 563  SAO PAULO                               03480000SP399940000101706437005449      29012013007PAULISTA            3003201300000000012573855CC                                                                                                                                                                                                                                                                                                                                                                                                         000012
1009420930764COBR_CAUC_BIC  S/A CORREIO BRAZILIENSE                 073312076000126SINDICATO I EXTRATIVAS O M P D P P      R BERNARDO GUIMARAES 63 FUNCIONARIOS    BELO HORIZONTE                          30140080MG399850000101394538453512-1    29012013019BELO HORIZONTE      2802201300000000011904782CC                                                                                                                                                                                                                                                                                                                                                                                                         000013
1016421019909COBR_CAUC_COR  TROMBINI EMBALAGENS S/A                 088933114001611CCGL-COOPERATIVA CENTRAL GAUCHA LT      RS 342 KM 149 S N ZONA RURAL            CRUZ ALTA                               98005970RS39993000010388556717885-1     28012013900BRADESCO S/A        2502201300000000014673477CC                                                                                                                                                                                                                                                                                                                                                                                                         000014
9000012                                                                                                                                                                                                                                                                                                                                                                                                                                                                                                                                                                                                                                                                                                               000015
