0REMESSANOTIFICACAO ELETRONICA        99999999999999BICBANCO                                AV. PAULISTA                            1048      12.ANDAR  BELA VISTA                    SAO PAULO                     01310100SP1121739360CORTINHAL                               COORDENADOR                             24102014                                                                                                                                                                                                                                                                                                                                                                                      000001
1007421035337COBR_CAUC_BIC  COMERCIAL IMP.E EXP.CANTAREIRA LTDA     013594751000397NOVA GERACAO COMESTIVEIS LTDA           R TEIXEIRA RIBEIRO, 265 , RAMOS         RIO DE JANEIRO                          21040241RJ499530000103379166122234001   22102014014RIO DE JANEIRO      0511201400000000010552500CC                                                                                                                                                                                                                                                                                                                                                                                                         000002
1007421061990COBR_CAUC_COR  BRASIL MAQUINAS E EQUIP PESADOS S/A     000341210000143TFT EMPRESA DE TRANSPORTES LTDA         ROD RS 324 KM 33,0                      PARAI                                   95360000RS49954000010338193417957A      30092014700BANCO REAL- ABN AMRO0711201400000000023333500CC                                                                                                                                                                                                                                                                                                                                                                                                         000003
1007421061990COBR_CAUC_COR  BRASIL MAQUINAS E EQUIP PESADOS S/A     000341210000143TFT EMPRESA DE TRANSPORTES LTDA         ROD RS 324 KM 33,0                      PARAI                                   95360000RS49954000020338194217957B      30092014700BANCO REAL- ABN AMRO3011201400000000023333300CC                                                                                                                                                                                                                                                                                                                                                                                                         000004
1007421061990COBR_CAUC_COR  BRASIL MAQUINAS E EQUIP PESADOS S/A     000341210000143TFT EMPRESA DE TRANSPORTES LTDA         ROD RS 324 KM 33,0                      PARAI                                   95360000RS49954000030338195117957C      30092014700BANCO REAL- ABN AMRO3012201400000000023333300CC                                                                                                                                                                                                                                                                                                                                                                                                         000005
1007421061990COBR_CAUC_COR  BRASIL MAQUINAS E EQUIP PESADOS S/A     000341210000143TFT EMPRESA DE TRANSPORTES LTDA         ROD RS 324 KM 33,0                      PARAI                                   95360000RS49954000040338196917957D      30092014700BANCO REAL- ABN AMRO3001201500000000023333300CC                                                                                                                                                                                                                                                                                                                                                                                                         000006
1007421061990COBR_CAUC_COR  BRASIL MAQUINAS E EQUIP PESADOS S/A     000341210000143TFT EMPRESA DE TRANSPORTES LTDA         ROD RS 324 KM 33,0                      PARAI                                   95360000RS49954000050338197717957E      30092014700BANCO REAL- ABN AMRO2802201500000000023333300CC                                                                                                                                                                                                                                                                                                                                                                                                         000007
1007421061990COBR_CAUC_COR  BRASIL MAQUINAS E EQUIP PESADOS S/A     000341210000143TFT EMPRESA DE TRANSPORTES LTDA         ROD RS 324 KM 33,0                      PARAI                                   95360000RS49954000060338198517957F      30092014700BANCO REAL- ABN AMRO3003201500000000023333300CC                                                                                                                                                                                                                                                                                                                                                                                                         000008
1046421000196COBR_CAUC_COR  FRANCO COM E REPR.LTDA -EM REC.JUD.     000013922902790MARIANE RODRIGUES DOS SANTOS            AV MINISTRO ARI FRANCO, 109             RIO DE JANEIRO                          22862005RJ4995700001003557910249350021  30092014900BRADESCO S/A        0411201400000000000229800CC                                                                                                                                                                                                                                                                                                                                                                                                         000009
1046421000196COBR_CAUC_COR  FRANCO COM E REPR.LTDA -EM REC.JUD.     000013922902790MARIANE RODRIGUES DOS SANTOS            AV MINISTRO ARI FRANCO, 109             RIO DE JANEIRO                          22862005RJ4995700002003558130249350041  30092014900BRADESCO S/A        1811201400000000000229800CC                                                                                                                                                                                                                                                                                                                                                                                                         000010
1046421000196COBR_CAUC_COR  FRANCO COM E REPR.LTDA -EM REC.JUD.     000013922902790MARIANE RODRIGUES DOS SANTOS            AV MINISTRO ARI FRANCO, 109             RIO DE JANEIRO                          22862005RJ4995700003003558210249350051  30092014900BRADESCO S/A        2511201400000000000229800CC                                                                                                                                                                                                                                                                                                                                                                                                         000011
1046421000196COBR_CAUC_COR  FRANCO COM E REPR.LTDA -EM REC.JUD.     000013922902790MARIANE RODRIGUES DOS SANTOS            AV MINISTRO ARI FRANCO, 109             RIO DE JANEIRO                          22862005RJ4995700004003558050249350031  30092014900BRADESCO S/A        1111201400000000000229800CC                                                                                                                                                                                                                                                                                                                                                                                                         000012
1046421000196COBR_CAUC_COR  FRANCO COM E REPR.LTDA -EM REC.JUD.     000013922902790MARIANE RODRIGUES DOS SANTOS            AV MINISTRO ARI FRANCO, 109             RIO DE JANEIRO                          22862005RJ4995700005003557830249350011  30092014900BRADESCO S/A        2810201400000000000229800CC                                                                                                                                                                                                                                                                                                                                                                                                         000013
1046421000196COBR_CAUC_COR  FRANCO COM E REPR.LTDA -EM REC.JUD.     002235318000187UNETVALE SERVICOS E EQUIPAMENTOS L      RUA ANTONIO CHEREM, 35 PISO SUPERI      TIJUCAS                                 88200000SC4995800001003505790243238041  26082014900BRADESCO S/A        2412201400000000001033434CC                                                                                                                                                                                                                                                                                                                                                                                                         000014
1046421000196COBR_CAUC_COR  FRANCO COM E REPR.LTDA -EM REC.JUD.     002235318000187UNETVALE SERVICOS E EQUIPAMENTOS L      RUA ANTONIO CHEREM, 35 PISO SUPERI      TIJUCAS                                 88200000SC4995800002003505520243238021  26082014900BRADESCO S/A        2510201400000000001033434CC                                                                                                                                                                                                                                                                                                                                                                                                         000015
1046421000196COBR_CAUC_COR  FRANCO COM E REPR.LTDA -EM REC.JUD.     002235318000187UNETVALE SERVICOS E EQUIPAMENTOS L      RUA ANTONIO CHEREM, 35 PISO SUPERI      TIJUCAS                                 88200000SC4995800003003505610243238031  26082014900BRADESCO S/A        2411201400000000001033434CC                                                                                                                                                                                                                                                                                                                                                                                                         000016
1046421000196COBR_CAUC_COR  FRANCO COM E REPR.LTDA -EM REC.JUD.     008639772000180APG IND COM E SERVICOS INFORMATICA      R CEL LUIZ JOSE DOS SANTOS, 215         CURITIBA                                81650240PR4995900001003556350248975031  29092014900BRADESCO S/A        2511201400000000000348580CC                                                                                                                                                                                                                                                                                                                                                                                                         000017
1046421000196COBR_CAUC_COR  FRANCO COM E REPR.LTDA -EM REC.JUD.     008639772000180APG IND COM E SERVICOS INFORMATICA      R CEL LUIZ JOSE DOS SANTOS, 215         CURITIBA                                81650240PR4995900002003560030248928041  29092014900BRADESCO S/A        0212201400000000000836700CC                                                                                                                                                                                                                                                                                                                                                                                                         000018
1046421000196COBR_CAUC_COR  FRANCO COM E REPR.LTDA -EM REC.JUD.     008639772000180APG IND COM E SERVICOS INFORMATICA      R CEL LUIZ JOSE DOS SANTOS, 215         CURITIBA                                81650240PR4995900003003542050247069011  17092014900BRADESCO S/A        3010201400000000000141324CC                                                                                                                                                                                                                                                                                                                                                                                                         000019
1046421000196COBR_CAUC_COR  FRANCO COM E REPR.LTDA -EM REC.JUD.     008639772000180APG IND COM E SERVICOS INFORMATICA      R CEL LUIZ JOSE DOS SANTOS, 215         CURITIBA                                81650240PR4995900004003544770247078031  17092014900BRADESCO S/A        1311201400000000000147229CC                                                                                                                                                                                                                                                                                                                                                                                                         000020
1046421000196COBR_CAUC_COR  FRANCO COM E REPR.LTDA -EM REC.JUD.     008639772000180APG IND COM E SERVICOS INFORMATICA      R CEL LUIZ JOSE DOS SANTOS, 215         CURITIBA                                81650240PR4995900005003545070247079011  17092014900BRADESCO S/A        3010201400000000000126971CC                                                                                                                                                                                                                                                                                                                                                                                                         000021
1046421000196COBR_CAUC_COR  FRANCO COM E REPR.LTDA -EM REC.JUD.     008639772000180APG IND COM E SERVICOS INFORMATICA      R CEL LUIZ JOSE DOS SANTOS, 215         CURITIBA                                81650240PR4995900006003545230247079031  17092014900BRADESCO S/A        1311201400000000000126970CC                                                                                                                                                                                                                                                                                                                                                                                                         000022
1046421000196COBR_CAUC_COR  FRANCO COM E REPR.LTDA -EM REC.JUD.     008639772000180APG IND COM E SERVICOS INFORMATICA      R CEL LUIZ JOSE DOS SANTOS, 215         CURITIBA                                81650240PR4995900007003543450247072051  17092014900BRADESCO S/A        2711201400000000000160089CC                                                                                                                                                                                                                                                                                                                                                                                                         000023
1046421000196COBR_CAUC_COR  FRANCO COM E REPR.LTDA -EM REC.JUD.     008639772000180APG IND COM E SERVICOS INFORMATICA      R CEL LUIZ JOSE DOS SANTOS, 215         CURITIBA                                81650240PR4995900008003556190248975011  29092014900BRADESCO S/A        1111201400000000000348580CC                                                                                                                                                                                                                                                                                                                                                                                                         000024
1046421000196COBR_CAUC_COR  FRANCO COM E REPR.LTDA -EM REC.JUD.     008639772000180APG IND COM E SERVICOS INFORMATICA      R CEL LUIZ JOSE DOS SANTOS, 215         CURITIBA                                81650240PR4995900009003546390247083041  17092014900BRADESCO S/A        2011201400000000000161107CC                                                                                                                                                                                                                                                                                                                                                                                                         000025
1046421000196COBR_CAUC_COR  FRANCO COM E REPR.LTDA -EM REC.JUD.     008639772000180APG IND COM E SERVICOS INFORMATICA      R CEL LUIZ JOSE DOS SANTOS, 215         CURITIBA                                81650240PR4995900010003556270248975021  29092014900BRADESCO S/A        1811201400000000000348580CC                                                                                                                                                                                                                                                                                                                                                                                                         000026
1046421000196COBR_CAUC_COR  FRANCO COM E REPR.LTDA -EM REC.JUD.     008639772000180APG IND COM E SERVICOS INFORMATICA      R CEL LUIZ JOSE DOS SANTOS, 215         CURITIBA                                81650240PR4995900011003559700248928011  29092014900BRADESCO S/A        1111201400000000000836700CC                                                                                                                                                                                                                                                                                                                                                                                                         000027
1046421000196COBR_CAUC_COR  FRANCO COM E REPR.LTDA -EM REC.JUD.     008639772000180APG IND COM E SERVICOS INFORMATICA      R CEL LUIZ JOSE DOS SANTOS, 215         CURITIBA                                81650240PR4995900012003493410241640051  18082014900BRADESCO S/A        2810201400000000001119784CC                                                                                                                                                                                                                                                                                                                                                                                                         000028
1046421000196COBR_CAUC_COR  FRANCO COM E REPR.LTDA -EM REC.JUD.     008639772000180APG IND COM E SERVICOS INFORMATICA      R CEL LUIZ JOSE DOS SANTOS, 215         CURITIBA                                81650240PR4995900013003539510247058021  17092014900BRADESCO S/A        0611201400000000000137278CC                                                                                                                                                                                                                                                                                                                                                                                                         000029
1046421000196COBR_CAUC_COR  FRANCO COM E REPR.LTDA -EM REC.JUD.     008639772000180APG IND COM E SERVICOS INFORMATICA      R CEL LUIZ JOSE DOS SANTOS, 215         CURITIBA                                81650240PR4995900014003539850247058051  17092014900BRADESCO S/A        2711201400000000000137278CC                                                                                                                                                                                                                                                                                                                                                                                                         000030
1046421000196COBR_CAUC_COR  FRANCO COM E REPR.LTDA -EM REC.JUD.     008639772000180APG IND COM E SERVICOS INFORMATICA      R CEL LUIZ JOSE DOS SANTOS, 215         CURITIBA                                81650240PR4995900015003540780247065041  17092014900BRADESCO S/A        2011201400000000000153315CC                                                                                                                                                                                                                                                                                                                                                                                                         000031
1046421000196COBR_CAUC_COR  FRANCO COM E REPR.LTDA -EM REC.JUD.     008639772000180APG IND COM E SERVICOS INFORMATICA      R CEL LUIZ JOSE DOS SANTOS, 215         CURITIBA                                81650240PR4995900016003545150247079021  17092014900BRADESCO S/A        0611201400000000000126970CC                                                                                                                                                                                                                                                                                                                                                                                                         000032
1046421000196COBR_CAUC_COR  FRANCO COM E REPR.LTDA -EM REC.JUD.     008639772000180APG IND COM E SERVICOS INFORMATICA      R CEL LUIZ JOSE DOS SANTOS, 215         CURITIBA                                81650240PR4995900017003545740247082031  17092014900BRADESCO S/A        1311201400000000000137422CC                                                                                                                                                                                                                                                                                                                                                                                                         000033
1046421000196COBR_CAUC_COR  FRANCO COM E REPR.LTDA -EM REC.JUD.     008639772000180APG IND COM E SERVICOS INFORMATICA      R CEL LUIZ JOSE DOS SANTOS, 215         CURITIBA                                81650240PR4995900018003559880248928021  29092014900BRADESCO S/A        1811201400000000000836700CC                                                                                                                                                                                                                                                                                                                                                                                                         000034
1046421000196COBR_CAUC_COR  FRANCO COM E REPR.LTDA -EM REC.JUD.     008639772000180APG IND COM E SERVICOS INFORMATICA      R CEL LUIZ JOSE DOS SANTOS, 215         CURITIBA                                81650240PR4995900019003543610247073021  17092014900BRADESCO S/A        0611201400000000000194192CC                                                                                                                                                                                                                                                                                                                                                                                                         000035
1046421000196COBR_CAUC_COR  FRANCO COM E REPR.LTDA -EM REC.JUD.     008639772000180APG IND COM E SERVICOS INFORMATICA      R CEL LUIZ JOSE DOS SANTOS, 215         CURITIBA                                81650240PR4995900020003543700247073031  17092014900BRADESCO S/A        1311201400000000000194192CC                                                                                                                                                                                                                                                                                                                                                                                                         000036
1046421000196COBR_CAUC_COR  FRANCO COM E REPR.LTDA -EM REC.JUD.     008639772000180APG IND COM E SERVICOS INFORMATICA      R CEL LUIZ JOSE DOS SANTOS, 215         CURITIBA                                81650240PR4995900021003553840247910011  22092014900BRADESCO S/A        0411201400000000005002769CC                                                                                                                                                                                                                                                                                                                                                                                                         000037
1046421000196COBR_CAUC_COR  FRANCO COM E REPR.LTDA -EM REC.JUD.     008639772000180APG IND COM E SERVICOS INFORMATICA      R CEL LUIZ JOSE DOS SANTOS, 215         CURITIBA                                81650240PR4995900022003553920248079051  23092014900BRADESCO S/A        0312201400000000004038943CC                                                                                                                                                                                                                                                                                                                                                                                                         000038
1046421000196COBR_CAUC_COR  FRANCO COM E REPR.LTDA -EM REC.JUD.     008639772000180APG IND COM E SERVICOS INFORMATICA      R CEL LUIZ JOSE DOS SANTOS, 215         CURITIBA                                81650240PR4995900023003556940249021041  29092014900BRADESCO S/A        0212201400000000000757750CC                                                                                                                                                                                                                                                                                                                                                                                                         000039
1046421000196COBR_CAUC_COR  FRANCO COM E REPR.LTDA -EM REC.JUD.     008639772000180APG IND COM E SERVICOS INFORMATICA      R CEL LUIZ JOSE DOS SANTOS, 215         CURITIBA                                81650240PR4995900024003557080249021051  29092014900BRADESCO S/A        0912201400000000000757750CC                                                                                                                                                                                                                                                                                                                                                                                                         000040
1046421000196COBR_CAUC_COR  FRANCO COM E REPR.LTDA -EM REC.JUD.     008639772000180APG IND COM E SERVICOS INFORMATICA      R CEL LUIZ JOSE DOS SANTOS, 215         CURITIBA                                81650240PR4995900025003542300247069041  17092014900BRADESCO S/A        2011201400000000000141324CC                                                                                                                                                                                                                                                                                                                                                                                                         000041
1046421000196COBR_CAUC_COR  FRANCO COM E REPR.LTDA -EM REC.JUD.     008639772000180APG IND COM E SERVICOS INFORMATICA      R CEL LUIZ JOSE DOS SANTOS, 215         CURITIBA                                81650240PR4995900026003536240247046031  17092014900BRADESCO S/A        1311201400000000000106525CC                                                                                                                                                                                                                                                                                                                                                                                                         000042
1046421000196COBR_CAUC_COR  FRANCO COM E REPR.LTDA -EM REC.JUD.     008639772000180APG IND COM E SERVICOS INFORMATICA      R CEL LUIZ JOSE DOS SANTOS, 215         CURITIBA                                81650240PR4995900027003545400247079051  17092014900BRADESCO S/A        2711201400000000000126972CC                                                                                                                                                                                                                                                                                                                                                                                                         000043
1046421000196COBR_CAUC_COR  FRANCO COM E REPR.LTDA -EM REC.JUD.     008639772000180APG IND COM E SERVICOS INFORMATICA      R CEL LUIZ JOSE DOS SANTOS, 215         CURITIBA                                81650240PR4995900028003545820247082041  17092014900BRADESCO S/A        2011201400000000000137422CC                                                                                                                                                                                                                                                                                                                                                                                                         000044
1046421000196COBR_CAUC_COR  FRANCO COM E REPR.LTDA -EM REC.JUD.     008639772000180APG IND COM E SERVICOS INFORMATICA      R CEL LUIZ JOSE DOS SANTOS, 215         CURITIBA                                81650240PR4995900029003546470247083051  17092014900BRADESCO S/A        2711201400000000000161109CC                                                                                                                                                                                                                                                                                                                                                                                                         000045
1046421000196COBR_CAUC_COR  FRANCO COM E REPR.LTDA -EM REC.JUD.     008639772000180APG IND COM E SERVICOS INFORMATICA      R CEL LUIZ JOSE DOS SANTOS, 215         CURITIBA                                81650240PR4995900030003542990247070051  17092014900BRADESCO S/A        2711201400000000000137268CC                                                                                                                                                                                                                                                                                                                                                                                                         000046
1046421000196COBR_CAUC_COR  FRANCO COM E REPR.LTDA -EM REC.JUD.     008639772000180APG IND COM E SERVICOS INFORMATICA      R CEL LUIZ JOSE DOS SANTOS, 215         CURITIBA                                81650240PR4995900031003506500243338041  27082014900BRADESCO S/A        3010201400000000000689882CC                                                                                                                                                                                                                                                                                                                                                                                                         000047
1046421000196COBR_CAUC_COR  FRANCO COM E REPR.LTDA -EM REC.JUD.     008639772000180APG IND COM E SERVICOS INFORMATICA      R CEL LUIZ JOSE DOS SANTOS, 215         CURITIBA                                81650240PR4995900032003524820245411051  08092014900BRADESCO S/A        1811201400000000000252120CC                                                                                                                                                                                                                                                                                                                                                                                                         000048
1046421000196COBR_CAUC_COR  FRANCO COM E REPR.LTDA -EM REC.JUD.     008639772000180APG IND COM E SERVICOS INFORMATICA      R CEL LUIZ JOSE DOS SANTOS, 215         CURITIBA                                81650240PR4995900033003527410245574081  09092014900BRADESCO S/A        1211201400000000000463950CC                                                                                                                                                                                                                                                                                                                                                                                                         000049
1046421000196COBR_CAUC_COR  FRANCO COM E REPR.LTDA -EM REC.JUD.     008639772000180APG IND COM E SERVICOS INFORMATICA      R CEL LUIZ JOSE DOS SANTOS, 215         CURITIBA                                81650240PR4995900034003516720243894051  29082014900BRADESCO S/A        0811201400000000000161440CC                                                                                                                                                                                                                                                                                                                                                                                                         000050
1046421000196COBR_CAUC_COR  FRANCO COM E REPR.LTDA -EM REC.JUD.     008639772000180APG IND COM E SERVICOS INFORMATICA      R CEL LUIZ JOSE DOS SANTOS, 215         CURITIBA                                81650240PR4995900035003540350247059051  17092014900BRADESCO S/A        2711201400000000000118804CC                                                                                                                                                                                                                                                                                                                                                                                                         000051
1046421000196COBR_CAUC_COR  FRANCO COM E REPR.LTDA -EM REC.JUD.     008639772000180APG IND COM E SERVICOS INFORMATICA      R CEL LUIZ JOSE DOS SANTOS, 215         CURITIBA                                81650240PR4995900036003542130247069021  17092014900BRADESCO S/A        0611201400000000000141324CC                                                                                                                                                                                                                                                                                                                                                                                                         000052
1046421000196COBR_CAUC_COR  FRANCO COM E REPR.LTDA -EM REC.JUD.     008639772000180APG IND COM E SERVICOS INFORMATICA      R CEL LUIZ JOSE DOS SANTOS, 215         CURITIBA                                81650240PR4995900037003543020247072011  17092014900BRADESCO S/A        3010201400000000000160086CC                                                                                                                                                                                                                                                                                                                                                                                                         000053
1046421000196COBR_CAUC_COR  FRANCO COM E REPR.LTDA -EM REC.JUD.     008639772000180APG IND COM E SERVICOS INFORMATICA      R CEL LUIZ JOSE DOS SANTOS, 215         CURITIBA                                81650240PR4995900038003543530247073011  17092014900BRADESCO S/A        3010201400000000000194190CC                                                                                                                                                                                                                                                                                                                                                                                                         000054
1046421000196COBR_CAUC_COR  FRANCO COM E REPR.LTDA -EM REC.JUD.     008639772000180APG IND COM E SERVICOS INFORMATICA      R CEL LUIZ JOSE DOS SANTOS, 215         CURITIBA                                81650240PR4995900039003556430248975041  29092014900BRADESCO S/A        0212201400000000000348580CC                                                                                                                                                                                                                                                                                                                                                                                                         000055
1046421000196COBR_CAUC_COR  FRANCO COM E REPR.LTDA -EM REC.JUD.     008639772000180APG IND COM E SERVICOS INFORMATICA      R CEL LUIZ JOSE DOS SANTOS, 215         CURITIBA                                81650240PR4995900040003559960248928031  29092014900BRADESCO S/A        2511201400000000000836700CC                                                                                                                                                                                                                                                                                                                                                                                                         000056
1046421000196COBR_CAUC_COR  FRANCO COM E REPR.LTDA -EM REC.JUD.     008639772000180APG IND COM E SERVICOS INFORMATICA      R CEL LUIZ JOSE DOS SANTOS, 215         CURITIBA                                81650240PR4995900041003525120245412031  08092014900BRADESCO S/A        0411201400000000000305930CC                                                                                                                                                                                                                                                                                                                                                                                                         000057
1046421000196COBR_CAUC_COR  FRANCO COM E REPR.LTDA -EM REC.JUD.     008639772000180APG IND COM E SERVICOS INFORMATICA      R CEL LUIZ JOSE DOS SANTOS, 215         CURITIBA                                81650240PR4995900042003540510247065021  17092014900BRADESCO S/A        0611201400000000000153315CC                                                                                                                                                                                                                                                                                                                                                                                                         000058
1046421000196COBR_CAUC_COR  FRANCO COM E REPR.LTDA -EM REC.JUD.     008639772000180APG IND COM E SERVICOS INFORMATICA      R CEL LUIZ JOSE DOS SANTOS, 215         CURITIBA                                81650240PR4995900043003536410247046051  17092014900BRADESCO S/A        2711201400000000000106526CC                                                                                                                                                                                                                                                                                                                                                                                                         000059
1046421000196COBR_CAUC_COR  FRANCO COM E REPR.LTDA -EM REC.JUD.     008639772000180APG IND COM E SERVICOS INFORMATICA      R CEL LUIZ JOSE DOS SANTOS, 215         CURITIBA                                81650240PR4995900044003544850247078041  17092014900BRADESCO S/A        2011201400000000000147229CC                                                                                                                                                                                                                                                                                                                                                                                                         000060
1046421000196COBR_CAUC_COR  FRANCO COM E REPR.LTDA -EM REC.JUD.     008639772000180APG IND COM E SERVICOS INFORMATICA      R CEL LUIZ JOSE DOS SANTOS, 215         CURITIBA                                81650240PR4995900045003545910247082051  17092014900BRADESCO S/A        2711201400000000000137422CC                                                                                                                                                                                                                                                                                                                                                                                                         000061
1046421000196COBR_CAUC_COR  FRANCO COM E REPR.LTDA -EM REC.JUD.     008639772000180APG IND COM E SERVICOS INFORMATICA      R CEL LUIZ JOSE DOS SANTOS, 215         CURITIBA                                81650240PR4995900046003546120247083021  17092014900BRADESCO S/A        0611201400000000000161107CC                                                                                                                                                                                                                                                                                                                                                                                                         000062
1046421000196COBR_CAUC_COR  FRANCO COM E REPR.LTDA -EM REC.JUD.     008639772000180APG IND COM E SERVICOS INFORMATICA      R CEL LUIZ JOSE DOS SANTOS, 215         CURITIBA                                81650240PR4995900047003536320247046041  17092014900BRADESCO S/A        2011201400000000000106525CC                                                                                                                                                                                                                                                                                                                                                                                                         000063
1046421000196COBR_CAUC_COR  FRANCO COM E REPR.LTDA -EM REC.JUD.     008639772000180APG IND COM E SERVICOS INFORMATICA      R CEL LUIZ JOSE DOS SANTOS, 215         CURITIBA                                81650240PR4995900048003543960247073051  17092014900BRADESCO S/A        2711201400000000000194190CC                                                                                                                                                                                                                                                                                                                                                                                                         000064
1046421000196COBR_CAUC_COR  FRANCO COM E REPR.LTDA -EM REC.JUD.     008639772000180APG IND COM E SERVICOS INFORMATICA      R CEL LUIZ JOSE DOS SANTOS, 215         CURITIBA                                81650240PR4995900049003545310247079041  17092014900BRADESCO S/A        2011201400000000000126970CC                                                                                                                                                                                                                                                                                                                                                                                                         000065
1046421000196COBR_CAUC_COR  FRANCO COM E REPR.LTDA -EM REC.JUD.     008639772000180APG IND COM E SERVICOS INFORMATICA      R CEL LUIZ JOSE DOS SANTOS, 215         CURITIBA                                81650240PR4995900050003546040247083011  17092014900BRADESCO S/A        3010201400000000000161105CC                                                                                                                                                                                                                                                                                                                                                                                                         000066
1046421000196COBR_CAUC_COR  FRANCO COM E REPR.LTDA -EM REC.JUD.     008639772000180APG IND COM E SERVICOS INFORMATICA      R CEL LUIZ JOSE DOS SANTOS, 215         CURITIBA                                81650240PR4995900051003542810247070041  17092014900BRADESCO S/A        2011201400000000000137269CC                                                                                                                                                                                                                                                                                                                                                                                                         000067
1046421000196COBR_CAUC_COR  FRANCO COM E REPR.LTDA -EM REC.JUD.     008639772000180APG IND COM E SERVICOS INFORMATICA      R CEL LUIZ JOSE DOS SANTOS, 215         CURITIBA                                81650240PR4995900052003527170245561051  09092014900BRADESCO S/A        0311201400000000000510345CC                                                                                                                                                                                                                                                                                                                                                                                                         000068
1046421000196COBR_CAUC_COR  FRANCO COM E REPR.LTDA -EM REC.JUD.     008639772000180APG IND COM E SERVICOS INFORMATICA      R CEL LUIZ JOSE DOS SANTOS, 215         CURITIBA                                81650240PR4995900053003527680245576081  09092014900BRADESCO S/A        1211201400000000000463950CC                                                                                                                                                                                                                                                                                                                                                                                                         000069
1046421000196COBR_CAUC_COR  FRANCO COM E REPR.LTDA -EM REC.JUD.     008639772000180APG IND COM E SERVICOS INFORMATICA      R CEL LUIZ JOSE DOS SANTOS, 215         CURITIBA                                81650240PR4995900054003516560243894031  29082014900BRADESCO S/A        2510201400000000000161440CC                                                                                                                                                                                                                                                                                                                                                                                                         000070
1046421000196COBR_CAUC_COR  FRANCO COM E REPR.LTDA -EM REC.JUD.     008639772000180APG IND COM E SERVICOS INFORMATICA      R CEL LUIZ JOSE DOS SANTOS, 215         CURITIBA                                81650240PR4995900055003539420247058011  17092014900BRADESCO S/A        3010201400000000000137279CC                                                                                                                                                                                                                                                                                                                                                                                                         000071
1046421000196COBR_CAUC_COR  FRANCO COM E REPR.LTDA -EM REC.JUD.     008639772000180APG IND COM E SERVICOS INFORMATICA      R CEL LUIZ JOSE DOS SANTOS, 215         CURITIBA                                81650240PR4995900056003539930247059011  17092014900BRADESCO S/A        3010201400000000000118806CC                                                                                                                                                                                                                                                                                                                                                                                                         000072
1046421000196COBR_CAUC_COR  FRANCO COM E REPR.LTDA -EM REC.JUD.     008639772000180APG IND COM E SERVICOS INFORMATICA      R CEL LUIZ JOSE DOS SANTOS, 215         CURITIBA                                81650240PR4995900057003540190247059031  17092014900BRADESCO S/A        1311201400000000000118804CC                                                                                                                                                                                                                                                                                                                                                                                                         000073
1046421000196COBR_CAUC_COR  FRANCO COM E REPR.LTDA -EM REC.JUD.     008639772000180APG IND COM E SERVICOS INFORMATICA      R CEL LUIZ JOSE DOS SANTOS, 215         CURITIBA                                81650240PR4995900058003560110248928051  29092014900BRADESCO S/A        0912201400000000000836700CC                                                                                                                                                                                                                                                                                                                                                                                                         000074
1046421000196COBR_CAUC_COR  FRANCO COM E REPR.LTDA -EM REC.JUD.     008639772000180APG IND COM E SERVICOS INFORMATICA      R CEL LUIZ JOSE DOS SANTOS, 215         CURITIBA                                81650240PR4995900059003525040245412021  08092014900BRADESCO S/A        2810201400000000000305930CC                                                                                                                                                                                                                                                                                                                                                                                                         000075
1046421000196COBR_CAUC_COR  FRANCO COM E REPR.LTDA -EM REC.JUD.     008639772000180APG IND COM E SERVICOS INFORMATICA      R CEL LUIZ JOSE DOS SANTOS, 215         CURITIBA                                81650240PR4995900060003540270247059041  17092014900BRADESCO S/A        2011201400000000000118804CC                                                                                                                                                                                                                                                                                                                                                                                                         000076
1046421000196COBR_CAUC_COR  FRANCO COM E REPR.LTDA -EM REC.JUD.     008639772000180APG IND COM E SERVICOS INFORMATICA      R CEL LUIZ JOSE DOS SANTOS, 215         CURITIBA                                81650240PR4995900061003540600247065031  17092014900BRADESCO S/A        1311201400000000000153315CC                                                                                                                                                                                                                                                                                                                                                                                                         000077
1046421000196COBR_CAUC_COR  FRANCO COM E REPR.LTDA -EM REC.JUD.     008639772000180APG IND COM E SERVICOS INFORMATICA      R CEL LUIZ JOSE DOS SANTOS, 215         CURITIBA                                81650240PR4995900062003540860247065051  17092014900BRADESCO S/A        2711201400000000000153316CC                                                                                                                                                                                                                                                                                                                                                                                                         000078
1046421000196COBR_CAUC_COR  FRANCO COM E REPR.LTDA -EM REC.JUD.     008639772000180APG IND COM E SERVICOS INFORMATICA      R CEL LUIZ JOSE DOS SANTOS, 215         CURITIBA                                81650240PR4995900063003543110247072021  17092014900BRADESCO S/A        0611201400000000000160088CC                                                                                                                                                                                                                                                                                                                                                                                                         000079
1046421000196COBR_CAUC_COR  FRANCO COM E REPR.LTDA -EM REC.JUD.     008639772000180APG IND COM E SERVICOS INFORMATICA      R CEL LUIZ JOSE DOS SANTOS, 215         CURITIBA                                81650240PR4995900064003553500247577031  19092014900BRADESCO S/A        1511201400000000000706560CC                                                                                                                                                                                                                                                                                                                                                                                                         000080
1046421000196COBR_CAUC_COR  FRANCO COM E REPR.LTDA -EM REC.JUD.     008639772000180APG IND COM E SERVICOS INFORMATICA      R CEL LUIZ JOSE DOS SANTOS, 215         CURITIBA                                81650240PR4995900065003539690247058031  17092014900BRADESCO S/A        1311201400000000000137278CC                                                                                                                                                                                                                                                                                                                                                                                                         000081
1046421000196COBR_CAUC_COR  FRANCO COM E REPR.LTDA -EM REC.JUD.     008639772000180APG IND COM E SERVICOS INFORMATICA      R CEL LUIZ JOSE DOS SANTOS, 215         CURITIBA                                81650240PR4995900066003536080247046011  17092014900BRADESCO S/A        3010201400000000000106523CC                                                                                                                                                                                                                                                                                                                                                                                                         000082
1046421000196COBR_CAUC_COR  FRANCO COM E REPR.LTDA -EM REC.JUD.     008639772000180APG IND COM E SERVICOS INFORMATICA      R CEL LUIZ JOSE DOS SANTOS, 215         CURITIBA                                81650240PR4995900067003544930247078051  17092014900BRADESCO S/A        2711201400000000000147230CC                                                                                                                                                                                                                                                                                                                                                                                                         000083
1046421000196COBR_CAUC_COR  FRANCO COM E REPR.LTDA -EM REC.JUD.     008639772000180APG IND COM E SERVICOS INFORMATICA      R CEL LUIZ JOSE DOS SANTOS, 215         CURITIBA                                81650240PR4995900068003545580247082011  17092014900BRADESCO S/A        3010201400000000000137424CC                                                                                                                                                                                                                                                                                                                                                                                                         000084
1046421000196COBR_CAUC_COR  FRANCO COM E REPR.LTDA -EM REC.JUD.     008639772000180APG IND COM E SERVICOS INFORMATICA      R CEL LUIZ JOSE DOS SANTOS, 215         CURITIBA                                81650240PR4995900069003545660247082021  17092014900BRADESCO S/A        0611201400000000000137422CC                                                                                                                                                                                                                                                                                                                                                                                                         000085
1046421000196COBR_CAUC_COR  FRANCO COM E REPR.LTDA -EM REC.JUD.     008639772000180APG IND COM E SERVICOS INFORMATICA      R CEL LUIZ JOSE DOS SANTOS, 215         CURITIBA                                81650240PR4995900070003546210247083031  17092014900BRADESCO S/A        1311201400000000000161107CC                                                                                                                                                                                                                                                                                                                                                                                                         000086
1046421000196COBR_CAUC_COR  FRANCO COM E REPR.LTDA -EM REC.JUD.     008639772000180APG IND COM E SERVICOS INFORMATICA      R CEL LUIZ JOSE DOS SANTOS, 215         CURITIBA                                81650240PR4995900071003506680243338051  27082014900BRADESCO S/A        0611201400000000000689882CC                                                                                                                                                                                                                                                                                                                                                                                                         000087
1046421000196COBR_CAUC_COR  FRANCO COM E REPR.LTDA -EM REC.JUD.     008639772000180APG IND COM E SERVICOS INFORMATICA      R CEL LUIZ JOSE DOS SANTOS, 215         CURITIBA                                81650240PR4995900072003522700244783031  03092014900BRADESCO S/A        3010201400000000001058067CC                                                                                                                                                                                                                                                                                                                                                                                                         000088
1046421000196COBR_CAUC_COR  FRANCO COM E REPR.LTDA -EM REC.JUD.     008639772000180APG IND COM E SERVICOS INFORMATICA      R CEL LUIZ JOSE DOS SANTOS, 215         CURITIBA                                81650240PR4995900073003524580245411021  08092014900BRADESCO S/A        2810201400000000000252120CC                                                                                                                                                                                                                                                                                                                                                                                                         000089
1046421000196COBR_CAUC_COR  FRANCO COM E REPR.LTDA -EM REC.JUD.     008639772000180APG IND COM E SERVICOS INFORMATICA      R CEL LUIZ JOSE DOS SANTOS, 215         CURITIBA                                81650240PR4995900074003525210245412041  08092014900BRADESCO S/A        1111201400000000000305930CC                                                                                                                                                                                                                                                                                                                                                                                                         000090
1046421000196COBR_CAUC_COR  FRANCO COM E REPR.LTDA -EM REC.JUD.     008639772000180APG IND COM E SERVICOS INFORMATICA      R CEL LUIZ JOSE DOS SANTOS, 215         CURITIBA                                81650240PR4995900075003525390245412051  08092014900BRADESCO S/A        1811201400000000000305930CC                                                                                                                                                                                                                                                                                                                                                                                                         000091
1046421000196COBR_CAUC_COR  FRANCO COM E REPR.LTDA -EM REC.JUD.     008639772000180APG IND COM E SERVICOS INFORMATICA      R CEL LUIZ JOSE DOS SANTOS, 215         CURITIBA                                81650240PR4995900076003527330245562061  09092014900BRADESCO S/A        0611201400000000000464850CC                                                                                                                                                                                                                                                                                                                                                                                                         000092
1046421000196COBR_CAUC_COR  FRANCO COM E REPR.LTDA -EM REC.JUD.     008639772000180APG IND COM E SERVICOS INFORMATICA      R CEL LUIZ JOSE DOS SANTOS, 215         CURITIBA                                81650240PR4995900077003542720247070031  17092014900BRADESCO S/A        1311201400000000000137269CC                                                                                                                                                                                                                                                                                                                                                                                                         000093
1046421000196COBR_CAUC_COR  FRANCO COM E REPR.LTDA -EM REC.JUD.     008639772000180APG IND COM E SERVICOS INFORMATICA      R CEL LUIZ JOSE DOS SANTOS, 215         CURITIBA                                81650240PR4995900078003536160247046021  17092014900BRADESCO S/A        0611201400000000000106525CC                                                                                                                                                                                                                                                                                                                                                                                                         000094
1046421000196COBR_CAUC_COR  FRANCO COM E REPR.LTDA -EM REC.JUD.     008639772000180APG IND COM E SERVICOS INFORMATICA      R CEL LUIZ JOSE DOS SANTOS, 215         CURITIBA                                81650240PR4995900079003543880247073041  17092014900BRADESCO S/A        2011201400000000000194192CC                                                                                                                                                                                                                                                                                                                                                                                                         000095
1046421000196COBR_CAUC_COR  FRANCO COM E REPR.LTDA -EM REC.JUD.     008639772000180APG IND COM E SERVICOS INFORMATICA      R CEL LUIZ JOSE DOS SANTOS, 215         CURITIBA                                81650240PR4995900080003553250247154031  17092014900BRADESCO S/A        1311201400000000001195900CC                                                                                                                                                                                                                                                                                                                                                                                                         000096
1046421000196COBR_CAUC_COR  FRANCO COM E REPR.LTDA -EM REC.JUD.     008639772000180APG IND COM E SERVICOS INFORMATICA      R CEL LUIZ JOSE DOS SANTOS, 215         CURITIBA                                81650240PR4995900081003553760247577051  19092014900BRADESCO S/A        2911201400000000000706560CC                                                                                                                                                                                                                                                                                                                                                                                                         000097
1046421000196COBR_CAUC_COR  FRANCO COM E REPR.LTDA -EM REC.JUD.     008639772000180APG IND COM E SERVICOS INFORMATICA      R CEL LUIZ JOSE DOS SANTOS, 215         CURITIBA                                81650240PR4995900082003524660245411031  08092014900BRADESCO S/A        0411201400000000000252120CC                                                                                                                                                                                                                                                                                                                                                                                                         000098
1046421000196COBR_CAUC_COR  FRANCO COM E REPR.LTDA -EM REC.JUD.     008639772000180APG IND COM E SERVICOS INFORMATICA      R CEL LUIZ JOSE DOS SANTOS, 215         CURITIBA                                81650240PR4995900083003527500245574091  09092014900BRADESCO S/A        1511201400000000000463950CC                                                                                                                                                                                                                                                                                                                                                                                                         000099
1046421000196COBR_CAUC_COR  FRANCO COM E REPR.LTDA -EM REC.JUD.     008639772000180APG IND COM E SERVICOS INFORMATICA      R CEL LUIZ JOSE DOS SANTOS, 215         CURITIBA                                81650240PR4995900084003539770247058041  17092014900BRADESCO S/A        2011201400000000000137278CC                                                                                                                                                                                                                                                                                                                                                                                                         000100
1046421000196COBR_CAUC_COR  FRANCO COM E REPR.LTDA -EM REC.JUD.     008639772000180APG IND COM E SERVICOS INFORMATICA      R CEL LUIZ JOSE DOS SANTOS, 215         CURITIBA                                81650240PR4995900085003540010247059021  17092014900BRADESCO S/A        0611201400000000000118804CC                                                                                                                                                                                                                                                                                                                                                                                                         000101
1046421000196COBR_CAUC_COR  FRANCO COM E REPR.LTDA -EM REC.JUD.     008639772000180APG IND COM E SERVICOS INFORMATICA      R CEL LUIZ JOSE DOS SANTOS, 215         CURITIBA                                81650240PR4995900086003540430247065011  17092014900BRADESCO S/A        3010201400000000000153313CC                                                                                                                                                                                                                                                                                                                                                                                                         000102
1046421000196COBR_CAUC_COR  FRANCO COM E REPR.LTDA -EM REC.JUD.     008639772000180APG IND COM E SERVICOS INFORMATICA      R CEL LUIZ JOSE DOS SANTOS, 215         CURITIBA                                81650240PR4995900087003542480247069051  17092014900BRADESCO S/A        2711201400000000000141323CC                                                                                                                                                                                                                                                                                                                                                                                                         000103
1046421000196COBR_CAUC_COR  FRANCO COM E REPR.LTDA -EM REC.JUD.     008639772000180APG IND COM E SERVICOS INFORMATICA      R CEL LUIZ JOSE DOS SANTOS, 215         CURITIBA                                81650240PR4995900088003524740245411041  08092014900BRADESCO S/A        1111201400000000000252120CC                                                                                                                                                                                                                                                                                                                                                                                                         000104
1046421000196COBR_CAUC_COR  FRANCO COM E REPR.LTDA -EM REC.JUD.     008639772000180APG IND COM E SERVICOS INFORMATICA      R CEL LUIZ JOSE DOS SANTOS, 215         CURITIBA                                81650240PR4995900089003542560247070011  17092014900BRADESCO S/A        3010201400000000000137270CC                                                                                                                                                                                                                                                                                                                                                                                                         000105
1046421000196COBR_CAUC_COR  FRANCO COM E REPR.LTDA -EM REC.JUD.     008639772000180APG IND COM E SERVICOS INFORMATICA      R CEL LUIZ JOSE DOS SANTOS, 215         CURITIBA                                81650240PR4995900090003553410247154051  17092014900BRADESCO S/A        2711201400000000001195900CC                                                                                                                                                                                                                                                                                                                                                                                                         000106
1046421000196COBR_CAUC_COR  FRANCO COM E REPR.LTDA -EM REC.JUD.     008639772000180APG IND COM E SERVICOS INFORMATICA      R CEL LUIZ JOSE DOS SANTOS, 215         CURITIBA                                81650240PR4995900091003553680247577041  19092014900BRADESCO S/A        2211201400000000000706560CC                                                                                                                                                                                                                                                                                                                                                                                                         000107
1046421000196COBR_CAUC_COR  FRANCO COM E REPR.LTDA -EM REC.JUD.     008639772000180APG IND COM E SERVICOS INFORMATICA      R CEL LUIZ JOSE DOS SANTOS, 215         CURITIBA                                81650240PR4995900092003556860249021031  29092014900BRADESCO S/A        2511201400000000000757750CC                                                                                                                                                                                                                                                                                                                                                                                                         000108
1046421000196COBR_CAUC_COR  FRANCO COM E REPR.LTDA -EM REC.JUD.     008639772000180APG IND COM E SERVICOS INFORMATICA      R CEL LUIZ JOSE DOS SANTOS, 215         CURITIBA                                81650240PR4995900093003543290247072031  17092014900BRADESCO S/A        1311201400000000000160088CC                                                                                                                                                                                                                                                                                                                                                                                                         000109
1046421000196COBR_CAUC_COR  FRANCO COM E REPR.LTDA -EM REC.JUD.     008639772000180APG IND COM E SERVICOS INFORMATICA      R CEL LUIZ JOSE DOS SANTOS, 215         CURITIBA                                81650240PR4995900094003543370247072041  17092014900BRADESCO S/A        2011201400000000000160088CC                                                                                                                                                                                                                                                                                                                                                                                                         000110
1046421000196COBR_CAUC_COR  FRANCO COM E REPR.LTDA -EM REC.JUD.     008639772000180APG IND COM E SERVICOS INFORMATICA      R CEL LUIZ JOSE DOS SANTOS, 215         CURITIBA                                81650240PR4995900095003553330247154041  17092014900BRADESCO S/A        2011201400000000001195900CC                                                                                                                                                                                                                                                                                                                                                                                                         000111
1046421000196COBR_CAUC_COR  FRANCO COM E REPR.LTDA -EM REC.JUD.     008639772000180APG IND COM E SERVICOS INFORMATICA      R CEL LUIZ JOSE DOS SANTOS, 215         CURITIBA                                81650240PR4995900096003556510248975051  29092014900BRADESCO S/A        0912201400000000000348580CC                                                                                                                                                                                                                                                                                                                                                                                                         000112
1046421000196COBR_CAUC_COR  FRANCO COM E REPR.LTDA -EM REC.JUD.     008639772000180APG IND COM E SERVICOS INFORMATICA      R CEL LUIZ JOSE DOS SANTOS, 215         CURITIBA                                81650240PR4995900097003556600249021011  29092014900BRADESCO S/A        1111201400000000000757750CC                                                                                                                                                                                                                                                                                                                                                                                                         000113
1046421000196COBR_CAUC_COR  FRANCO COM E REPR.LTDA -EM REC.JUD.     008639772000180APG IND COM E SERVICOS INFORMATICA      R CEL LUIZ JOSE DOS SANTOS, 215         CURITIBA                                81650240PR4995900098003556780249021021  29092014900BRADESCO S/A        1811201400000000000757750CC                                                                                                                                                                                                                                                                                                                                                                                                         000114
1046421000196COBR_CAUC_COR  FRANCO COM E REPR.LTDA -EM REC.JUD.     008639772000180APG IND COM E SERVICOS INFORMATICA      R CEL LUIZ JOSE DOS SANTOS, 215         CURITIBA                                81650240PR4995900099003527250245562051  09092014900BRADESCO S/A        0311201400000000000464850CC                                                                                                                                                                                                                                                                                                                                                                                                         000115
1046421000196COBR_CAUC_COR  FRANCO COM E REPR.LTDA -EM REC.JUD.     008639772000180APG IND COM E SERVICOS INFORMATICA      R CEL LUIZ JOSE DOS SANTOS, 215         CURITIBA                                81650240PR4995900100003516640243894041  29082014900BRADESCO S/A        0111201400000000000161440CC                                                                                                                                                                                                                                                                                                                                                                                                         000116
1046421000196COBR_CAUC_COR  FRANCO COM E REPR.LTDA -EM REC.JUD.     008639772000180APG IND COM E SERVICOS INFORMATICA      R CEL LUIZ JOSE DOS SANTOS, 215         CURITIBA                                81650240PR4995900101003542210247069031  17092014900BRADESCO S/A        1311201400000000000141324CC                                                                                                                                                                                                                                                                                                                                                                                                         000117
1046421000196COBR_CAUC_COR  FRANCO COM E REPR.LTDA -EM REC.JUD.     008639772000180APG IND COM E SERVICOS INFORMATICA      R CEL LUIZ JOSE DOS SANTOS, 215         CURITIBA                                81650240PR4995900102003542640247070021  17092014900BRADESCO S/A        0611201400000000000137269CC                                                                                                                                                                                                                                                                                                                                                                                                         000118
1046421000196COBR_CAUC_COR  FRANCO COM E REPR.LTDA -EM REC.JUD.     008639772000180APG IND COM E SERVICOS INFORMATICA      R CEL LUIZ JOSE DOS SANTOS, 215         CURITIBA                                81650240PR4995900103003544510247078011  17092014900BRADESCO S/A        3010201400000000000147228CC                                                                                                                                                                                                                                                                                                                                                                                                         000119
1046421000196COBR_CAUC_COR  FRANCO COM E REPR.LTDA -EM REC.JUD.     008639772000180APG IND COM E SERVICOS INFORMATICA      R CEL LUIZ JOSE DOS SANTOS, 215         CURITIBA                                81650240PR4995900104003544690247078021  17092014900BRADESCO S/A        0611201400000000000147229CC                                                                                                                                                                                                                                                                                                                                                                                                         000120
1046421000196COBR_CAUC_COR  FRANCO COM E REPR.LTDA -EM REC.JUD.     008639772000180APG IND COM E SERVICOS INFORMATICA      R CEL LUIZ JOSE DOS SANTOS, 215         CURITIBA                                81650240PR4996000001003546550247084011  17092014900BRADESCO S/A        3010201400000000000088991CC                                                                                                                                                                                                                                                                                                                                                                                                         000121
1046421000196COBR_CAUC_COR  FRANCO COM E REPR.LTDA -EM REC.JUD.     008639772000180APG IND COM E SERVICOS INFORMATICA      R CEL LUIZ JOSE DOS SANTOS, 215         CURITIBA                                81650240PR4996000002003539340247057051  17092014900BRADESCO S/A        2711201400000000000066090CC                                                                                                                                                                                                                                                                                                                                                                                                         000122
1046421000196COBR_CAUC_COR  FRANCO COM E REPR.LTDA -EM REC.JUD.     008639772000180APG IND COM E SERVICOS INFORMATICA      R CEL LUIZ JOSE DOS SANTOS, 215         CURITIBA                                81650240PR4996000003003544180247076021  17092014900BRADESCO S/A        0611201400000000000058353CC                                                                                                                                                                                                                                                                                                                                                                                                         000123
1046421000196COBR_CAUC_COR  FRANCO COM E REPR.LTDA -EM REC.JUD.     008639772000180APG IND COM E SERVICOS INFORMATICA      R CEL LUIZ JOSE DOS SANTOS, 215         CURITIBA                                81650240PR4996000004003544420247076051  17092014900BRADESCO S/A        2711201400000000000058352CC                                                                                                                                                                                                                                                                                                                                                                                                         000124
1046421000196COBR_CAUC_COR  FRANCO COM E REPR.LTDA -EM REC.JUD.     008639772000180APG IND COM E SERVICOS INFORMATICA      R CEL LUIZ JOSE DOS SANTOS, 215         CURITIBA                                81650240PR4996000005003541320247066051  17092014900BRADESCO S/A        2711201400000000000043878CC                                                                                                                                                                                                                                                                                                                                                                                                         000125
1046421000196COBR_CAUC_COR  FRANCO COM E REPR.LTDA -EM REC.JUD.     008639772000180APG IND COM E SERVICOS INFORMATICA      R CEL LUIZ JOSE DOS SANTOS, 215         CURITIBA                                81650240PR4996000006003541590247067021  17092014900BRADESCO S/A        0611201400000000000048872CC                                                                                                                                                                                                                                                                                                                                                                                                         000126
1046421000196COBR_CAUC_COR  FRANCO COM E REPR.LTDA -EM REC.JUD.     008639772000180APG IND COM E SERVICOS INFORMATICA      R CEL LUIZ JOSE DOS SANTOS, 215         CURITIBA                                81650240PR4996000007003541910247068051  17092014900BRADESCO S/A        2711201400000000000077176CC                                                                                                                                                                                                                                                                                                                                                                                                         000127
1046421000196COBR_CAUC_COR  FRANCO COM E REPR.LTDA -EM REC.JUD.     008639772000180APG IND COM E SERVICOS INFORMATICA      R CEL LUIZ JOSE DOS SANTOS, 215         CURITIBA                                81650240PR4996000008003538960247057011  17092014900BRADESCO S/A        3010201400000000000066090CC                                                                                                                                                                                                                                                                                                                                                                                                         000128
1046421000196COBR_CAUC_COR  FRANCO COM E REPR.LTDA -EM REC.JUD.     008639772000180APG IND COM E SERVICOS INFORMATICA      R CEL LUIZ JOSE DOS SANTOS, 215         CURITIBA                                81650240PR4996000009003536590247053011  17092014900BRADESCO S/A        3010201400000000000050044CC                                                                                                                                                                                                                                                                                                                                                                                                         000129
1046421000196COBR_CAUC_COR  FRANCO COM E REPR.LTDA -EM REC.JUD.     008639772000180APG IND COM E SERVICOS INFORMATICA      R CEL LUIZ JOSE DOS SANTOS, 215         CURITIBA                                81650240PR4996000010003536910247053051  17092014900BRADESCO S/A        2711201400000000000050044CC                                                                                                                                                                                                                                                                                                                                                                                                         000130
1046421000196COBR_CAUC_COR  FRANCO COM E REPR.LTDA -EM REC.JUD.     008639772000180APG IND COM E SERVICOS INFORMATICA      R CEL LUIZ JOSE DOS SANTOS, 215         CURITIBA                                81650240PR4996000011003539000247057021  17092014900BRADESCO S/A        0611201400000000000066090CC                                                                                                                                                                                                                                                                                                                                                                                                         000131
1046421000196COBR_CAUC_COR  FRANCO COM E REPR.LTDA -EM REC.JUD.     008639772000180APG IND COM E SERVICOS INFORMATICA      R CEL LUIZ JOSE DOS SANTOS, 215         CURITIBA                                81650240PR4996000012003539180247057031  17092014900BRADESCO S/A        1311201400000000000066090CC                                                                                                                                                                                                                                                                                                                                                                                                         000132
1046421000196COBR_CAUC_COR  FRANCO COM E REPR.LTDA -EM REC.JUD.     008639772000180APG IND COM E SERVICOS INFORMATICA      R CEL LUIZ JOSE DOS SANTOS, 215         CURITIBA                                81650240PR4996000013003541670247067031  17092014900BRADESCO S/A        1311201400000000000048872CC                                                                                                                                                                                                                                                                                                                                                                                                         000133
1046421000196COBR_CAUC_COR  FRANCO COM E REPR.LTDA -EM REC.JUD.     008639772000180APG IND COM E SERVICOS INFORMATICA      R CEL LUIZ JOSE DOS SANTOS, 215         CURITIBA                                81650240PR4996000014003536830247053041  17092014900BRADESCO S/A        2011201400000000000050045CC                                                                                                                                                                                                                                                                                                                                                                                                         000134
1046421000196COBR_CAUC_COR  FRANCO COM E REPR.LTDA -EM REC.JUD.     008639772000180APG IND COM E SERVICOS INFORMATICA      R CEL LUIZ JOSE DOS SANTOS, 215         CURITIBA                                81650240PR4996000015003544260247076031  17092014900BRADESCO S/A        1311201400000000000058353CC                                                                                                                                                                                                                                                                                                                                                                                                         000135
1046421000196COBR_CAUC_COR  FRANCO COM E REPR.LTDA -EM REC.JUD.     008639772000180APG IND COM E SERVICOS INFORMATICA      R CEL LUIZ JOSE DOS SANTOS, 215         CURITIBA                                81650240PR4996000016003546710247084031  17092014900BRADESCO S/A        1311201400000000000088990CC                                                                                                                                                                                                                                                                                                                                                                                                         000136
1046421000196COBR_CAUC_COR  FRANCO COM E REPR.LTDA -EM REC.JUD.     008639772000180APG IND COM E SERVICOS INFORMATICA      R CEL LUIZ JOSE DOS SANTOS, 215         CURITIBA                                81650240PR4996000017003541160247066031  17092014900BRADESCO S/A        1311201400000000000043879CC                                                                                                                                                                                                                                                                                                                                                                                                         000137
1046421000196COBR_CAUC_COR  FRANCO COM E REPR.LTDA -EM REC.JUD.     008639772000180APG IND COM E SERVICOS INFORMATICA      R CEL LUIZ JOSE DOS SANTOS, 215         CURITIBA                                81650240PR4996000018003541750247067041  17092014900BRADESCO S/A        2011201400000000000048872CC                                                                                                                                                                                                                                                                                                                                                                                                         000138
1046421000196COBR_CAUC_COR  FRANCO COM E REPR.LTDA -EM REC.JUD.     008639772000180APG IND COM E SERVICOS INFORMATICA      R CEL LUIZ JOSE DOS SANTOS, 215         CURITIBA                                81650240PR4996000019003536670247053021  17092014900BRADESCO S/A        0611201400000000000050045CC                                                                                                                                                                                                                                                                                                                                                                                                         000139
1046421000196COBR_CAUC_COR  FRANCO COM E REPR.LTDA -EM REC.JUD.     008639772000180APG IND COM E SERVICOS INFORMATICA      R CEL LUIZ JOSE DOS SANTOS, 215         CURITIBA                                81650240PR4996000020003537300247054041  17092014900BRADESCO S/A        2011201400000000000042968CC                                                                                                                                                                                                                                                                                                                                                                                                         000140
1046421000196COBR_CAUC_COR  FRANCO COM E REPR.LTDA -EM REC.JUD.     008639772000180APG IND COM E SERVICOS INFORMATICA      R CEL LUIZ JOSE DOS SANTOS, 215         CURITIBA                                81650240PR4996000021003539260247057041  17092014900BRADESCO S/A        2011201400000000000066090CC                                                                                                                                                                                                                                                                                                                                                                                                         000141
1046421000196COBR_CAUC_COR  FRANCO COM E REPR.LTDA -EM REC.JUD.     008639772000180APG IND COM E SERVICOS INFORMATICA      R CEL LUIZ JOSE DOS SANTOS, 215         CURITIBA                                81650240PR4996000022003546630247084021  17092014900BRADESCO S/A        0611201400000000000088990CC                                                                                                                                                                                                                                                                                                                                                                                                         000142
