0REMESSANOTIFICACAO ELETRONICA        99999999999999BICBANCO                                AV. PAULISTA                            1048      12.ANDAR  BELA VISTA                    SAO PAULO                     01310100SP1121739360CORTINHAL                               COORDENADOR                             17122013                                                                                                                                                                                                                                                                                                                                                                                      000001
1009421012831COBR_CAUC_COR  ASA ALIMENTOS S/A                       007209331000185REGINA AGROINDUSTRIAL S/A               ESTRADA DO AQUIRAZ,  801                FORTALEZA                               60840970CE4570000001001494240045361     14122013900BRADESCO S/A        1101201400000000012412800CC                                                                                                                                                                                                                                                                                                                                                                                                         000002
1046421001443COBR_CAUC_COR  COSTAO DO SANTINHO TUR E LAZER LTDA     083873877000114FIESC FEDERACAO IND SC                  RODOVIA ADMAR GONZAGA,2765              FLORIANOPOLIS                           88034001SC4570400001000126811935573     12122013900BRADESCO S/A        1812201300000000010921544CC                                                                                                                                                                                                                                                                                                                                                                                                         000003
1008421022487COBR_CAUC_COR  EBP - EMPRESA BRASILEIRA DE PESCADO     033304981000110SUPERMERCADOS MUNDIAL LTDA              RUA  DONA EMILIA, 2                     RIO DE JANEIRO                          20765110RJ4570500001016997510023516/    13122013900BRADESCO S/A        2601201400000000034217100CC                                                                                                                                                                                                                                                                                                                                                                                                         000004
1008420934067COBR_CAUC_BIC  EMPRESA JORNALISTICA O POVO S/A         007206816000115M DIAS BRANCO S/A INDUSTRIA E COME      R JOAO CORDEIRO,588                     FORTALEZA                               60110300CE45699000010904656124427       13122013003CENTRO              1501201400000000013893293CC                                                                                                                                                                                                                                                                                                                                                                                                         000005
1048421003043COBR_CAUC_COR  FRIGOL S.A. EM RECUPERACAO JUDICIAL     008360964000152INGU DIST E IMP. DE PROD. ALIMENTI      RUA INGU, 113                           SAO PAULO                               03630040SP45706000010006243900161813-1  18112013900BRADESCO S/A        1812201300000000014832515CC                                                                                                                                                                                                                                                                                                                                                                                                         000006
1046421007085COBR_CAUC_BIC  H.F.SISTEMAS DE FREIO LTDA              011509676000121AUTO NORTE DISTRIBUIDORA DE PECAS       R PROFESSOR NESTOR BEZERRA, N266  C.U.C RECIFE                                  50950150PE457070000102247651018234      16122013010RECIFE              3103201400000000015930654CC                                                                                                                                                                                                                                                                                                                                                                                                         000007
1019421004658COBR_CAUC_COR  S/A ESTADO DE MINAS                     003471344000177CAOA MONTADORA DE VEICULOS SA           R11 SN FAZ BARREIRO DO MEIO             ANAPOLIS                                75133590GO4570100001012740542123246-1   16122013900BRADESCO S/A        3012201300000000010934976CC                                                                                                                                                                                                                                                                                                                                                                                                         000008
1019421014637COBR_CAUC_COR  SOCIEDADE RADIO E TV ALTEROSA SA        006111334000119INTRALOT DO BRASIL COM EQUIP E          AV. DO CONTORNO,6500-7 ANDAR            BELO HORIZONTE                          30110044MG45702000010001738462364       11122013900BRADESCO S/A        1501201400000000018230866CC                                                                                                                                                                                                                                                                                                                                                                                                         000009
1007421073611COBR_CAUC_BIC  VALE GRANDE IND E COM DE ALIMENTOS      011308974000153INDAIATUBA DISTRIBUIDORA DE CARNES      RUA DR SERGIO MARIO ALMEIDA, 410 410    INDAIATUBA                              13348440SP45703000010250973200054830-1  13122013021CAMPINAS            0601201400000000020372476CC                                                                                                                                                                                                                                                                                                                                                                                                         000010
9000009                                                                                                                                                                                                                                                                                                                                                                                                                                                                                                                                                                                                                                                                                                               000011
