0REMESSANOTIFICACAO ELETRONICA        99999999999999BICBANCO                                AV. PAULISTA                            1048      12.ANDAR  BELA VISTA                    SAO PAULO                     01310100SP1121739360CORTINHAL                               COORDENADOR                             16022012                                                                                                                                                                                                                                                                                                                                                                                      000001
1015420931819COBR_CAUC_COR  COOPERATIVA TRITICOLA ERECHIM LTDA      083310441000117COOPERATIVA CENTRAL OESTE CATARINE      RUA JOAO MARTINS, 219 D                 CHAPECO                                 89803901SC33904000010091856960412-1     03022012800UNIBANCO S/A        0604201200000000020072613CC                                                                                                                                                                                                                                                                                                                                                                                                         000002
1015420931819COBR_CAUC_COR  COOPERATIVA TRITICOLA ERECHIM LTDA      083310441000117COOPERATIVA CENTRAL OESTE CATARINE      RUA JOAO MARTINS, 219 D                 CHAPECO                                 89803901SC33904000020091857780512-1     03022012800UNIBANCO S/A        0805201200000000020072613CC                                                                                                                                                                                                                                                                                                                                                                                                         000003
1015420931819COBR_CAUC_COR  COOPERATIVA TRITICOLA ERECHIM LTDA      083310441000117COOPERATIVA CENTRAL OESTE CATARINE      RUA JOAO MARTINS, 219 D                 CHAPECO                                 89803901SC33904000030091858580612-1     03022012800UNIBANCO S/A        0806201200000000020072613CC                                                                                                                                                                                                                                                                                                                                                                                                         000004
1015420931819COBR_CAUC_COR  COOPERATIVA TRITICOLA ERECHIM LTDA      083310441000117COOPERATIVA CENTRAL OESTE CATARINE      RUA JOAO MARTINS, 219 D                 CHAPECO                                 89803901SC33904000040091859360712-1     03022012800UNIBANCO S/A        0607201200000000020072613CC                                                                                                                                                                                                                                                                                                                                                                                                         000005
1015420931819COBR_CAUC_COR  COOPERATIVA TRITICOLA ERECHIM LTDA      083310441000117COOPERATIVA CENTRAL OESTE CATARINE      RUA JOAO MARTINS, 219 D                 CHAPECO                                 89803901SC33904000050091860770812-1     03022012800UNIBANCO S/A        0708201200000000020072613CC                                                                                                                                                                                                                                                                                                                                                                                                         000006
1015420931819COBR_CAUC_COR  COOPERATIVA TRITICOLA ERECHIM LTDA      083310441000117COOPERATIVA CENTRAL OESTE CATARINE      RUA JOAO MARTINS, 219 D                 CHAPECO                                 89803901SC33904000060091861510912-1     03022012800UNIBANCO S/A        1009201200000000020072613CC                                                                                                                                                                                                                                                                                                                                                                                                         000007
1015420931819COBR_CAUC_COR  COOPERATIVA TRITICOLA ERECHIM LTDA      083310441000117COOPERATIVA CENTRAL OESTE CATARINE      RUA JOAO MARTINS, 219 D                 CHAPECO                                 89803901SC33904000070091862351012-1     03022012800UNIBANCO S/A        0510201200000000020072613CC                                                                                                                                                                                                                                                                                                                                                                                                         000008
1015420931819COBR_CAUC_COR  COOPERATIVA TRITICOLA ERECHIM LTDA      083310441000117COOPERATIVA CENTRAL OESTE CATARINE      RUA JOAO MARTINS, 219 D                 CHAPECO                                 89803901SC33904000080091863181112-1     03022012800UNIBANCO S/A        0811201200000000020072613CC                                                                                                                                                                                                                                                                                                                                                                                                         000009
1015420931819COBR_CAUC_COR  COOPERATIVA TRITICOLA ERECHIM LTDA      083310441000117COOPERATIVA CENTRAL OESTE CATARINE      RUA JOAO MARTINS, 219 D                 CHAPECO                                 89803901SC33904000090091864071212-1     03022012800UNIBANCO S/A        0712201200000000020072613CC                                                                                                                                                                                                                                                                                                                                                                                                         000010
1038421011812COBR_CAUC_BIC  ENERGY COML IMPORT E EXPORT LTDA        009363567000105PREMIX BRASIL RESINAS                   ALAMEDA ARAGU,2044-CJ703A705TORRE2      SAO PAULO                               06455000SP3390500001095358267214        07022012007PAULISTA            2303201200000000052542887CC                                                                                                                                                                                                                                                                                                                                                                                                         000011
1038421011812COBR_CAUC_BIC  ENERGY COML IMPORT E EXPORT LTDA        009363567000105PREMIX BRASIL RESINAS                   ALAMEDA ARAGU,2044-CJ703A705TORRE2      SAO PAULO                               06455000SP3390500002095358347273        14022012007PAULISTA            3003201200000000052526253CC                                                                                                                                                                                                                                                                                                                                                                                                         000012
1007421032516COBR_CAUC_BIC  NITRIFLEX SP IND E COM DE BORRACHAS     049327943000201DAY BRASIL S/A                          AV. MASRQUES DE SAO VICENTE, 1213       SAO PAULO                               01139901SP339060000101077979000901001   15022012007PAULISTA            2902201200000000014541152CC                                                                                                                                                                                                                                                                                                                                                                                                         000013
9000003                                                                                                                                                                                                                                                                                                                                                                                                                                                                                                                                                                                                                                                                                                               000014
