0REMESSANOTIFICACAO ELETRONICA        99999999999999BICBANCO                                AV. PAULISTA                            1048      12.ANDAR  BELA VISTA                    SAO PAULO                     01310100SP1121739360CORTINHAL                               COORDENADOR                             20112013                                                                                                                                                                                                                                                                                                                                                                                      000001
1050421000089COBR_CAUC_BIC  ATIVO ALIMENTOS EXP E IMP EIRELI        007357694000168M M INDUSTRIA ALIMENTICIA LTDA          LGA DE SANTO ANTONIO 0                  MACAIBA                                 59280000RN453210000100526800222964/1    18112013044NATAL               1812201300000000019098491CC                                                                                                                                                                                                                                                                                                                                                                                                         000002
1046421001443COBR_CAUC_COR  COSTAO DO SANTINHO TUR E LAZER LTDA     089848543000177LOJAS COLOMBO S/A COM UTILIDADES        RUA JOSE ACHILES COLOMBO,50             FARROUPILHA                             95180000RS45322000010001234719112013    19112013900BRADESCO S/A        2511201300000000027307989CC                                                                                                                                                                                                                                                                                                                                                                                                         000003
1031421009896COBR_CAUC_COR  LATICINIOS LATCO LTDA                   077766608000156FRIGOVEL COMERCIAL DE PRODUTOS FRI      RUA CARLOS CHAGAS, 769                  CASCAVEL                                85816310PR453170000101011071164156/1    18112013900BRADESCO S/A        2511201300000000010672932CC                                                                                                                                                                                                                                                                                                                                                                                                         000004
1049421001570COBR_CAUC_COR  MASTER AGROINDUSTRIAL LTDA              007797729000180DISTRIB. E TRANSP. DE CARNES SUITA      ROD. PARIGOT DFE SOUZA, S/N             JOAQUIM TAVORA                          86455000PR4532400001003682120000277901  18112013900BRADESCO S/A        0912201300000000011480560CC                                                                                                                                                                                                                                                                                                                                                                                                         000005
1020421002462COBR_CAUC_BIC  NORTENE PLASTICOS LTDA                  075904383001012COAMO AGROINDUSTRIAL COOPERATIVA        R FIOVERANTE JOAO FERRI, 99             CAMPO MOURAO                            87308445PR4532000001063696460073044     19112013016CURITIBA            2612201300000000010447285CC                                                                                                                                                                                                                                                                                                                                                                                                         000006
1007421034080COBR_CAUC_BIC  SIDMEX INTERNACIONAL LTDA               010752508000108NYTRON INTERNACIONAL LTDA.              ALAMEDA RIO PRETO,729                   BARUERI                                 06460050SP45323000010243263211910       19112013007PAULISTA            1602201400000000015136851CC                                                                                                                                                                                                                                                                                                                                                                                                         000007
1007421056385COBR_CAUC_COR  TERRA NOVA TRADING S/A                  075308551003808RIBEIRO S A COMERCIO DE PNEUS           RUA RIO PARANAGUA, ,1423                CONTAGEM                                32280300MG453180000100001618TV12516-00  19112013900BRADESCO S/A        2911201300000000029577834CC                                                                                                                                                                                                                                                                                                                                                                                                         000008
1007421073611COBR_CAUC_BIC  VALE GRANDE IND E COM DE ALIMENTOS      011308974000153INDAIATUBA DISTRIBUIDORA DE CARNES      RUA DR SERGIO MARIO ALMEIDA, 410 410    INDAIATUBA                              13348440SP45319000010243865700018770-1  18112013021CAMPINAS            1212201300000000014248267CC                                                                                                                                                                                                                                                                                                                                                                                                         000009
9000008                                                                                                                                                                                                                                                                                                                                                                                                                                                                                                                                                                                                                                                                                                               000010
