0REMESSANOTIFICACAO ELETRONICA        99999999999999BICBANCO                                AV. PAULISTA                            1048      12.ANDAR  BELA VISTA                    SAO PAULO                     01310100SP1121739360CORTINHAL                               COORDENADOR                             04062012                                                                                                                                                                                                                                                                                                                                                                                      000001
1007421006183COBR_CAUC_BIC  NITRIFLEX S/A IND E COMERCIO            036193928000187TEADIT INDUSTRIA E COMERCIO LTDA        AV.PASTOR MARTIN LUTHER KING JR,8939    RIO DE JANEIRO                          21530012RJ357390000101262458001541401   31052012014RIO DE JANEIRO      1806201200000000034387501CC                                                                                                                                                                                                                                                                                                                                                                                                         000002
1007421027229COBR_CAUC_COR  ARFRIO S/A ARM GERAIS FRIGORIFICO       002279324000136GDC ALIMENTOS S/A                       RUA EUGENIO PEZZINI,500                 ITAJAI                                  88311000SC357400000100030570000067      01062012900BRADESCO S/A        2506201200000000021554887CC                                                                                                                                                                                                                                                                                                                                                                                                         000003
1016421006424COBR_CAUC_COR  BOUTIN FERTILIZANTES LTDA               002355341000105SAFRAS INSUMOS AGRICOLAS                ESTRADA PARA CONTRY CLUB,0              DOIZ VIZINHOS                           85660000PR35741000010342827126088       21052012900BRADESCO S/A        3010201200000000036330000CC                                                                                                                                                                                                                                                                                                                                                                                                         000004
1020421001652COBR_CAUC_BIC  SANTHER FAB PAP STA THEREZINHA S/A      023439441000190ARMAZEM MATEUS LTDA                     AV DANIEL DE LA TOUCHE, 73              SAO LUIS                                65073780MA357420000106193971002980701   31052012042SAO LUIS            1207201200000000012496136CC                                                                                                                                                                                                                                                                                                                                                                                                         000005
1029141008057COBR_CAUC_BIC  COMERCIAL DE TABACOS MICHELON LTDA      012046599000183VIRGINIA DO BRASIL TABACOS LTDA         R ALAMEDA DAS HORTENCIAS,525            STA CRUZ DO SUL                         96820066RS35743000010971447117076/451C  23052012015PORTO ALEGRE        2108201200000000012000000TD                                                                                                                                                                                                                                                                                                                                                                                                         000006
1044000000000DIR_CREDIT     TV PONTA NEGRA LTDA                     045039237000114TVSBT-CANAL 4 DE SAO PAULO SA           AV DAS COMUNICAçõES,4 - VILA JARAGUA    SAO PAULO                               06278030SP3575000001                                                                                                                                          011859169           010520110000020993S/N         31052012000403formalização de vínculo jurídico de afiliação entre emissoras de televisao e a definição de direitos e deveres dele decorrentes.                                                                                                                008713653000120              000007
1017000000000DIR_CREDIT     VALDO LAGES DE OMENA                    012607842000195USINA SANTA CLOTILDE S/A                FAZENDA PAU AMARELO, S/N ZONA RURAL     RIO LARGO MACEIO                        57000000AL3575100001                                                                                                                                          011869914           140520120000021527            01062012000403fornecer para a usina durante  a safra 2012/2013 a totalidade das canas-de-açúcar, estimada em 10.000 (dez mil) toneladas, existentes no fundo agrícola fazenda fazendinha.                                                                     700478634000004              000008
1024421007416COBR_CAUC_COR  ATLAS AGROINDUSTRIAL LTDA               004666932000129BONDIO ALIMENTOS S A                    ROD SC 283 KM 03                        CHAPECO                                 89817000SC35754000010197198521916       25042012900BRADESCO S/A        1106201200000000002688000CC                                                                                                                                                                                                                                                                                                                                                                                                         000009
1024421007416COBR_CAUC_COR  ATLAS AGROINDUSTRIAL LTDA               083310441000117COOPERATIVA CENTRAL OESTE CATARINE      R JOAO MARTINS 219                      CHAPECO                                 89803400SC35755000010197200121895       25042012900BRADESCO S/A        1007201200000000008100000CC                                                                                                                                                                                                                                                                                                                                                                                                         000010
1019421006847COBR_CAUC_BIC  ESTAMPARIA S/A                          061099834018995ARTHUR LUNDGREN TEC. S. A. PERNAMB      RUA DA CONSOLACAO,2411                  SAO PAULO                               01301000SP3575600001064477390054083/01  11052012007PAULISTA            1308201200000000000469920CC                                                                                                                                                                                                                                                                                                                                                                                                         000011
1019421006847COBR_CAUC_BIC  ESTAMPARIA S/A                          061099834018995ARTHUR LUNDGREN TEC. S. A. PERNAMB      RUA DA CONSOLACAO,2411                  SAO PAULO                               01301000SP3575600002064470030054085/01  11052012007PAULISTA            1308201200000000000776160CC                                                                                                                                                                                                                                                                                                                                                                                                         000012
1019421006847COBR_CAUC_BIC  ESTAMPARIA S/A                          061099834018995ARTHUR LUNDGREN TEC. S. A. PERNAMB      RUA DA CONSOLACAO,2411                  SAO PAULO                               01301000SP3575600003064471860054087/01  11052012007PAULISTA            1708201200000000001072400CC                                                                                                                                                                                                                                                                                                                                                                                                         000013
1019421006847COBR_CAUC_BIC  ESTAMPARIA S/A                          061099834018995ARTHUR LUNDGREN TEC. S. A. PERNAMB      RUA DA CONSOLACAO,2411                  SAO PAULO                               01301000SP3575600004064471940054088/01  11052012007PAULISTA            1708201200000000001072400CC                                                                                                                                                                                                                                                                                                                                                                                                         000014
1019421006847COBR_CAUC_BIC  ESTAMPARIA S/A                          061099834018995ARTHUR LUNDGREN TEC. S. A. PERNAMB      RUA DA CONSOLACAO,2411                  SAO PAULO                               01301000SP3575600005064472080054089/01  11052012007PAULISTA            1708201200000000001072400CC                                                                                                                                                                                                                                                                                                                                                                                                         000015
9000010                                                                                                                                                                                                                                                                                                                                                                                                                                                                                                                                                                                                                                                                                                               000016
