0REMESSANOTIFICACAO ELETRONICA        99999999999999BICBANCO                                AV. PAULISTA                            1048      12.ANDAR  BELA VISTA                    SAO PAULO                     01310100SP1121739360CORTINHAL                               COORDENADOR                             12082013                                                                                                                                                                                                                                                                                                                                                                                      000001
1021420930887COBR_CAUC_COR  DEDINI S/A INDUSTRIAS DE BASE           077264224000135USINA DE ACUCAR E ALCOOL GOIOERE L      ROD. PR 180, KM 174 ZONA RURAL BR       MOREIRA SALES                           87370000PR435220000106425395217139-6-2  26072013900BRADESCO S/A        2011201300000000014166000CC                                                                                                                                                                                                                                                                                                                                                                                                         000002
1021420930887COBR_CAUC_COR  DEDINI S/A INDUSTRIAS DE BASE           077264224000135USINA DE ACUCAR E ALCOOL GOIOERE L      ROD. PR 180, KM 174 ZONA RURAL BR       MOREIRA SALES                           87370000PR435220000206425409217139-6-6  17072013900BRADESCO S/A        2011201300000000074166000CC                                                                                                                                                                                                                                                                                                                                                                                                         000003
1048421000338COBR_CAUC_COR  FRIGOESTRELA S.A. EM RECUP JUDICIAL     023439441001323ARMAZEM MATEUS S.A.                     AV ENGENHEIRO EMILIANO MACIEIRA5DE      SAO LUIS                                65095602MA4352400001056418100097358801  08082013900BRADESCO S/A        0709201300000000010321395CC                                                                                                                                                                                                                                                                                                                                                                                                         000004
1031421010207COBR_CAUC_COR  ITAMARATY INDUSTRIA E COMERCIO S/A      005997742000408UNIMARKA DISTRIBUIDORA S/A              ROD. CONEGO JOAO B. GUILHERME,S/N       COLATINA                                29705720ES43525000010529265260055       08082013800UNIBANCO S/A        1609201300000000011067830CC                                                                                                                                                                                                                                                                                                                                                                                                         000005
1028421002921COBR_CAUC_COR  MATABOI ALIMENTOS S/A - EM REC.JUD.     007575612000151INDUSTRIA DE CARNES NELORE LTDA         AV  ANSELMO ALVES DOS SANTOS1450A       UBERLANDIA                              38408150MG4352100001004062660001548001  08082013900BRADESCO S/A        1308201300000000010454217CC                                                                                                                                                                                                                                                                                                                                                                                                         000006
1021421015970COBR_CAUC_COR  UNITED MILLS ALIMENTOS LTDA             075315333000109ATACADAO DISTRIBUICAO COM. E INDUS      AV MOVAN DIAS DE FIGUEIREDO, 6169       SAO PAULO                               02170901SP435230000106425425000077293   02082013900BRADESCO S/A        3110201300000000016189022CC                                                                                                                                                                                                                                                                                                                                                                                                         000007
1021421015970COBR_CAUC_COR  UNITED MILLS ALIMENTOS LTDA             075315333000109ATACADAO DISTRIBUICAO COM. E INDUS      AV MOVAN DIAS DE FIGUEIREDO, 6169       SAO PAULO                               02170901SP435230000206425433000077294   02082013900BRADESCO S/A        3110201300000000013598778CC                                                                                                                                                                                                                                                                                                                                                                                                         000008
9000005                                                                                                                                                                                                                                                                                                                                                                                                                                                                                                                                                                                                                                                                                                               000009
