0REMESSANOTIFICACAO ELETRONICA        99999999999999BICBANCO                                AV. PAULISTA                            1048      12.ANDAR  BELA VISTA                    SAO PAULO                     01310100SP1121739360CORTINHAL                               COORDENADOR                             06052014                                                                                                                                                                                                                                                                                                                                                                                      000001
1046421006399DIR_CREDIT     CARBONIFERA CRICIUMA S/A                002474103000208TRACTEBEL ENERGIA S/A                   AVENIDA PAULO SANTOS MELLO, S/NR        CAPIVARI DE BAIXO                       88745000SC4741200001                                                                                                                                          012569469           011220100000020197DGT.NAJL.05.30042014000404compra de carvão mineral tipo CE 4500.                                                                                                                                                                                                          083647909000163              000002
1016421009571COBR_CAUC_BIC  IMPORTADORA DE FRUTAS LA VIOLETERA      004641376003828SUPERMERCADOS BH COMERCIO DE ALIME      AVENIDA GERALDO ROCHA 200               CONTAGEM                                32183054MG4741400001044817960029408901  30042014019BELO HORIZONTE      1106201400000000011502435CC                                                                                                                                                                                                                                                                                                                                                                                                         000003
1007421072259COBR_CAUC_COR  BOMBRIL S/A                             047079496000790MARANHAO DISTRIBUICAO S.A.              R ANUAR PACHA 400                       CATANDUVA                               15800670SP4741500001028905330058088001  30042014900BRADESCO S/A        2105201400000000010174395CC                                                                                                                                                                                                                                                                                                                                                                                                         000004
1048421000338COBR_CAUC_COR  FRIGOESTRELA S.A. EM RECUP JUDICIAL     023439441001323ARMAZEM MATEUS S.A.                     AV ENGENHEIRO EMILIANO MACIEIRA DE      SAO LUIS                                65095602MA4741600001080532510111190101  30042014900BRADESCO S/A        3005201400000000014719664CC                                                                                                                                                                                                                                                                                                                                                                                                         000005
1031421011181COBR_CAUC_BIC  AGROIND IRMAOS DALLA COSTA LTDA         072200637000132RIOJA FRIGORIFICO LTDA.                 RUA DA CEVADA NR. 110 112S.TRIGO11100110RIO DE JANEIRO                          21011080RJ47417000010539122732908/1     03052014014RIO DE JANEIRO      3105201400000000010530000CC                                                                                                                                                                                                                                                                                                                                                                                                         000006
1016421019909COBR_CAUC_BIC  TROMBINI EMBALAGENS S/A                 006538082000290ROUSSELOT GELATINAS DO BRASIL LTDA      RUA SANTO AGOSTINHO 280 ARCADAS         AMPARO                                  13908000SP47418000010448181825957-1     02052014021CAMPINAS            1306201400000000012799674CC                                                                                                                                                                                                                                                                                                                                                                                                         000007
1021421017050COBR_CAUC_COR  STAR DISTR PROD FARMACEUTICOS LTDA      046239901000131ANDORINHA COMERCIO E DISTRIBUICAO       ALAMEDA MARIA TEREZA                    VALINHOS                                13278181SP4741900001000008640000320601  02052014900BRADESCO S/A        0107201400000000025232770CC                                                                                                                                                                                                                                                                                                                                                                                                         000008
1021421017050COBR_CAUC_COR  STAR DISTR PROD FARMACEUTICOS LTDA      046239901000131ANDORINHA COMERCIO E DISTRIBUICAO       ALAMEDA MARIA TEREZA                    VALINHOS                                13278181SP4741900002000008720000320701  02052014900BRADESCO S/A        0107201400000000019545181CC                                                                                                                                                                                                                                                                                                                                                                                                         000009
1021421017050COBR_CAUC_COR  STAR DISTR PROD FARMACEUTICOS LTDA      061585865000151RAIA DROGASIL S/A                       AVENIDA CORIFEU DE AZEVEDO MARQUES, 3097SAO PAULO                               05339000SP4742000001000006510000318401  29042014900BRADESCO S/A        1305201400000000020545922CC                                                                                                                                                                                                                                                                                                                                                                                                         000010
1021421017050COBR_CAUC_COR  STAR DISTR PROD FARMACEUTICOS LTDA      061585865000151RAIA DROGASIL S/A                       AVENIDA CORIFEU DE AZEVEDO MARQUES, 3097SAO PAULO                               05339000SP4742000002000006860000318701  29042014900BRADESCO S/A        2005201400000000016827103CC                                                                                                                                                                                                                                                                                                                                                                                                         000011
1021421017050COBR_CAUC_COR  STAR DISTR PROD FARMACEUTICOS LTDA      061585865000151RAIA DROGASIL S/A                       AVENIDA CORIFEU DE AZEVEDO MARQUES, 3097SAO PAULO                               05339000SP4742000003000007240000319401  30042014900BRADESCO S/A        2105201400000000011279520CC                                                                                                                                                                                                                                                                                                                                                                                                         000012
1021421017050COBR_CAUC_COR  STAR DISTR PROD FARMACEUTICOS LTDA      061585865000151RAIA DROGASIL S/A                       AVENIDA CORIFEU DE AZEVEDO MARQUES, 3097SAO PAULO                               05339000SP4742000004000007590000317501  29042014900BRADESCO S/A        2005201400000000031953741CC                                                                                                                                                                                                                                                                                                                                                                                                         000013
1021421017050COBR_CAUC_COR  STAR DISTR PROD FARMACEUTICOS LTDA      061585865000151RAIA DROGASIL S/A                       AVENIDA CORIFEU DE AZEVEDO MARQUES, 3097SAO PAULO                               05339000SP4742000005000007750000317701  29042014900BRADESCO S/A        2005201400000000032017465CC                                                                                                                                                                                                                                                                                                                                                                                                         000014
1021421017050COBR_CAUC_COR  STAR DISTR PROD FARMACEUTICOS LTDA      061585865000151RAIA DROGASIL S/A                       AVENIDA CORIFEU DE AZEVEDO MARQUES, 3097SAO PAULO                               05339000SP4742000006000007910000319601  30042014900BRADESCO S/A        1405201400000000036465923CC                                                                                                                                                                                                                                                                                                                                                                                                         000015
1021421017050COBR_CAUC_COR  STAR DISTR PROD FARMACEUTICOS LTDA      061585865000151RAIA DROGASIL S/A                       AVENIDA CORIFEU DE AZEVEDO MARQUES, 3097SAO PAULO                               05339000SP4742000007000008210000319801  30042014900BRADESCO S/A        2105201400000000012015302CC                                                                                                                                                                                                                                                                                                                                                                                                         000016
1021421017050COBR_CAUC_COR  STAR DISTR PROD FARMACEUTICOS LTDA      061585865000151RAIA DROGASIL S/A                       AVENIDA CORIFEU DE AZEVEDO MARQUES, 3097SAO PAULO                               05339000SP4742000008000008300000320001  30042014900BRADESCO S/A        2105201400000000019976965CC                                                                                                                                                                                                                                                                                                                                                                                                         000017
9000008                                                                                                                                                                                                                                                                                                                                                                                                                                                                                                                                                                                                                                                                                                               000018
