0REMESSANOTIFICACAO ELETRONICA        99999999999999BICBANCO                                AV. PAULISTA                            1048      12.ANDAR  BELA VISTA                    SAO PAULO                     01310100SP1121739360CORTINHAL                               COORDENADOR                             14032013                                                                                                                                                                                                                                                                                                                                                                                      000001
1018421005230COBR_CAUC_BIC  CENTROALCOOL S/A                        004930779000103SR DISTRIBUIDORA DE PETROLEO LTDA       AV.NITEROI C/COPACABANA Q4 LR1          SENADOR CANEDO                          75250000GO40879000010311940145685/AA    12032013018GOIANIA             2106201300000000028750000CC                                                                                                                                                                                                                                                                                                                                                                                                         000002
1018421005230COBR_CAUC_BIC  CENTROALCOOL S/A                        004930779000103SR DISTRIBUIDORA DE PETROLEO LTDA       AV.NITEROI C/COPACABANA Q4 LR1          SENADOR CANEDO                          75250000GO40879000020311941045685/AB    12032013018GOIANIA             2207201300000000028750000CC                                                                                                                                                                                                                                                                                                                                                                                                         000003
1006441000781COBR_CAUC_BIC  IMARF BENEFICIAMENTO DE GRANITOS LT     000475251000122PAULO OCTAVIO INVESTIMENTOS IMOBIL      SCN QUADRA 01,125                       BRASILIA                                70711900DF4087700001094313373130        13032013009BRASILIA            1004201300000000010658502CC                                                                                                                                                                                                                                                                                                                                                                                                         000004
1046421008006COBR_CAUC_COR  LINK COMERCIAL IMP. E EXP. LTDA         081303463000124TEXTIL FARBE LTDA                       RUA DR BLUMENAU , 7625 -                INDAIAL                                 89130000SC408800000101814650104911-1/1  12032013800UNIBANCO S/A        2803201300000000028077952CC                                                                                                                                                                                                                                                                                                                                                                                                         000005
1028421002921COBR_CAUC_COR  MATABOI ALIMENTOS S/A - EM REC.JUD.     004641376007300SUPERMERCADOS BH COMERCIO DE ALIME      AV  GERALDO ROCHA700                    CONTAGEM                                32183054MG4087600001002762060030143501  12032013900BRADESCO S/A        0904201300000000017615107CC                                                                                                                                                                                                                                                                                                                                                                                                         000006
1019421004658COBR_CAUC_COR  S/A ESTADO DE MINAS                     016589137000163SERV APOIO AS MICRO E PEQ EMP DE M      AV. BARAO HOMEM DE MELO 329             BELO HORIZONTE                          30431285MG4087500001012165181669443-1   11032013900BRADESCO S/A        3003201300000000011699251CC                                                                                                                                                                                                                                                                                                                                                                                                         000007
1048421002195COBR_CAUC_COR  SERVIMED COMERCIAL LTDA                 017256512002917DROG ARAUJO SA                          AV APIO CARDOSO 100                     CONTAGEM                                32371615MG408780000100520003840718  17  12032013900BRADESCO S/A        0705201300000000010057551CC                                                                                                                                                                                                                                                                                                                                                                                                         000008
9000006                                                                                                                                                                                                                                                                                                                                                                                                                                                                                                                                                                                                                                                                                                               000009
