0REMESSANOTIFICACAO ELETRONICA        99999999999999BICBANCO                                AV. PAULISTA                            1048      12.ANDAR  BELA VISTA                    SAO PAULO                     01310100SP1121739360CORTINHAL                               COORDENADOR                             30112012                                                                                                                                                                                                                                                                                                                                                                                      000001
1006421012283COBR_CAUC_BIC  AERIS IND E COM DE E G DE ENERG S/A     008146882000100SUZLON ENERGIA EOLICA DO BRASIL_LT      AV SENADOR VIRGILIO TAVORA 195          FORTALEZA                               60170250CE390720000109291667209         22112012003CENTRO              0901201300000000050635337CC                                                                                                                                                                                                                                                                                                                                                                                                         000002
1006421012283COBR_CAUC_BIC  AERIS IND E COM DE E G DE ENERG S/A     008146882000100SUZLON ENERGIA EOLICA DO BRASIL_LT      AV SENADOR VIRGILIO TAVORA 195          FORTALEZA                               60170250CE390720000209291675221         22112012003CENTRO              2301201300000000050635337CC                                                                                                                                                                                                                                                                                                                                                                                                         000003
1006421012283COBR_CAUC_BIC  AERIS IND E COM DE E G DE ENERG S/A     008146882000100SUZLON ENERGIA EOLICA DO BRASIL_LT      AV SENADOR VIRGILIO TAVORA 195          FORTALEZA                               60170250CE390720000309291683280         22112012003CENTRO              0702201300000000050635337CC                                                                                                                                                                                                                                                                                                                                                                                                         000004
1010421024356COBR_CAUC_COR  DIST EQUADOR DE PROD PETROLEO LTDA      084090125000140O DA C DE A SOARES                      R CORONEL PEDRO DA CUNHA, 405           URUCARA                                 69130000AM39069000010000914084708       28112012900BRADESCO S/A        0112201200000000015000000CC                                                                                                                                                                                                                                                                                                                                                                                                         000005
1037421003994COBR_CAUC_BIC  DOX COM. DE VALVULAS CONEXOES INSTR     001340937002708GALVAO ENGENHARIA S/A                   AVENIDA JOAO ARANHA, 941                PAULINIA                                13140000SP390700000104575991004286      01112012021CAMPINAS            3112201200000000030132000CC                                                                                                                                                                                                                                                                                                                                                                                                         000006
1037421003994COBR_CAUC_BIC  DOX COM. DE VALVULAS CONEXOES INSTR     001340937002708GALVAO ENGENHARIA S/A                   AVENIDA JOAO ARANHA, 941                PAULINIA                                13140000SP390700000204576009004317      08112012021CAMPINAS            0701201300000000015120000CC                                                                                                                                                                                                                                                                                                                                                                                                         000007
1048421000338COBR_CAUC_COR  FRIGOESTRELA S.A. EM RECUP JUDICIAL     050947761001871IRMAOS RUSSI LTDA                       RUA LUIS ALLI FARDYN590SALA 03          CAJAMAR                                 07750000SP3906600001032422920023996501  28112012900BRADESCO S/A        0301201300000000010153828CC                                                                                                                                                                                                                                                                                                                                                                                                         000008
1031421010312COBR_CAUC_BIC  PADO S/A - INDL.COML E IMPORTADORA      052816162000104CENTER FERTIN COM. TINTAS FERGS.        AV. GUARAPIRANGA 117 123 127 141 99     SAO PAULO                               04909025SP3906500001051207970016122901  28112012007PAULISTA            1412201200000000012964715CC                                                                                                                                                                                                                                                                                                                                                                                                         000009
1038421020013COBR_CAUC_BIC  PROBANCO FOMENTO MERCANTIL LTDA         043202951000156RACIONAL ENG                            RUA CHEDID JAFFET 222 3   ANDAR BLOCO D SAO PAULO                               04551065SP390710000109946371000785/AD   28112012007PAULISTA            1501201300000000010612500CC                                                                                                                                                                                                                                                                                                                                                                                                         000010
1019421014068COBR_CAUC_COR  RIO BRANCO ALIMENTOS S/A                004641376007300SUPERMERCADOS BH COMERCIO DE            AV GERALDO ROCHA 700                    CONTAGEM                                32183054MG3906700001007210570352609001  28112012900BRADESCO S/A        2612201200000000010028003CC                                                                                                                                                                                                                                                                                                                                                                                                         000011
1032421002555COBR_CAUC_BIC  ZZA SECURITIZADORA S.A.                 053558342001593ANIS RAZUK INDUSTRIA E COM LTD          RUA CAETANO PINTO  129                  SAO PAULO                               03041000SP390680000101175832174030011   27112012007PAULISTA            1001201300000000012000000CC                                                                                                                                                                                                                                                                                                                                                                                                         000012
9000008                                                                                                                                                                                                                                                                                                                                                                                                                                                                                                                                                                                                                                                                                                               000013
