0REMESSANOTIFICACAO ELETRONICA        99999999999999BICBANCO                                AV. PAULISTA                            1048      12.ANDAR  BELA VISTA                    SAO PAULO                     01310100SP1121739360CORTINHAL                               COORDENADOR                             31072014                                                                                                                                                                                                                                                                                                                                                                                      000001
1022421006650DIR_CREDIT     PASSAREDO T. AEREOS LTDA-EM REC.JUD     007575651000159VRG LINHAS AEREAS S/A                   AV VINTE DE JANEIRO, S/N GALEAO         RIO DE JANEIRO                          21941570RJ4862300001                                                                                                                                          012054810           141220100000018045            26112012000403Transporte de passageiros portadores de contratos de transporte        adquiridos da empresa vendedora e sua respectiva bagagem, em voos regulares e  de reforço da empresa transportadora.                                                     000512777000135              000002
1021420930887COBR_CAUC_COR  DEDINI S/A INDUSTRIAS DE BASE           075717355000367USINA DE ACUCAR SANTA TEREZINHA LT      AV MARCELO MESSIAS BUSIQUIA 847 PQ INDUSMARINGA                                 87065006PR486490000106586771264169-2-2  25072014900BRADESCO S/A        3009201400000000031053436CC                                                                                                                                                                                                                                                                                                                                                                                                         000003
1021420930887COBR_CAUC_COR  DEDINI S/A INDUSTRIAS DE BASE           075717355000367USINA DE ACUCAR SANTA TEREZINHA LT      AV MARCELO MESSIAS BUSIQUIA 847 PQ INDUSMARINGA                                 87065006PR486490000206586780264051-3-3  25072014900BRADESCO S/A        3110201400000000020386877CC                                                                                                                                                                                                                                                                                                                                                                                                         000004
1018421034834COBR_CAUC_BIC  LACEL LATICINIOS CERES LTDA             023439441001323ARMAZEM MATEUS LTDA                     AV ENG.  EMILIANO MACIEIRA, 5 - DEPOSITOSAO LUIS                                65095602MA486500000103790511034123      29072014042SAO LUIS            0209201400000000016915500CC                                                                                                                                                                                                                                                                                                                                                                                                         000005
1019421010259COBR_CAUC_BIC  L & S INTERBANK FOMENTO LTDA            004744781000341ADM COMERCIO DE ROUPAS  LTDA            ALAMEDA  STO AMARO, 326/330             SAO PAULO                               04745001SP4865100001069819212441/02     30072014007PAULISTA            1411201400000000010319400CC                                                                                                                                                                                                                                                                                                                                                                                                         000006
1019421010259COBR_CAUC_BIC  L & S INTERBANK FOMENTO LTDA            004744781000341ADM COMERCIO DE ROUPAS  LTDA            ALAMEDA  STO AMARO, 326/330             SAO PAULO                               04745001SP4865100002069819301965/01     30072014007PAULISTA            1811201400000000012757680CC                                                                                                                                                                                                                                                                                                                                                                                                         000007
1007421060307COBR_CAUC_BIC  ROTHENBERG COMERCIO DE PERFUMES E C     005753951000317DOTCOM GROUP COMERCIO DE PRESENTES      AV DAS AMERICAS 700 BL 8 LJ 317 F       RIO DE JANEIRO                          22640100RJ486520000103148130RR4123105B  29072014014RIO DE JANEIRO      1209201400000000016054926CC                                                                                                                                                                                                                                                                                                                                                                                                         000008
1046421006070DIR_CREDIT     METALURGICA DS LTDA                     060857349000176TRW AUTOMOTIVE LTDA                     VIA ANHANGUERA KM 147                   LIMEIRA                                 13486915SP4866300001                                                                                                                                          012640589           260320070000018698            30072014000404fornecimento de discos e tambores de freio para automóveis.                                                                                                                                                                                     079414868000198              000009
9000006                                                                                                                                                                                                                                                                                                                                                                                                                                                                                                                                                                                                                                                                                                               000010
