0REMESSANOTIFICACAO ELETRONICA        99999999999999BICBANCO                                AV. PAULISTA                            1048      12.ANDAR  BELA VISTA                    SAO PAULO                     01310100SP1121739360CORTINHAL                               COORDENADOR                             27082014                                                                                                                                                                                                                                                                                                                                                                                      000001
1046421006070DIR_CREDIT     METALURGICA DS LTDA                     060857349000176TRW AUTOMOTIVE LTDA                     VIA ANHANGUERA KM 147                   LIMEIRA                                 13486915SP4893500001                                                                                                                                          012659158           260320070000018698            25082014000404fornecimento de discos e tambores de freio para automóveis.                                                                                                                                                                                     079414868000198              000002
1020421001652COBR_CAUC_BIC  SANTHER FAB PAP STA THEREZINHA S/A      017256512002917DROGARIA ARAUJO S A                     R CURITIBA 327                          BELO HORIZONTE                          30170120MG489400000106439792021705601   22082014019BELO HORIZONTE      0310201400000000012950847CC                                                                                                                                                                                                                                                                                                                                                                                                         000003
1046421000145COBR_CAUC_BIC  KOMLOG IMPORTACAO LTDA                  005879152000715BOTTINO MATERIAIS DE CONSTRUCAO LT      EST DO PONTAL, 843                      RIO DE JANEIRO                          22790877RJ489410000102489558142995-     30062014014RIO DE JANEIRO      2312201400000000013678137CC                                                                                                                                                                                                                                                                                                                                                                                                         000004
1031421011181COBR_CAUC_COR  AGROIND IRMAOS DALLA COSTA LTDA         003083231000790CEMA CENTRAL MINEIRA ATACADISTA LT      ROD BR-040 KM 515                  00750RIBEIRAO DAS NE                         33825160MG489420000105437201948/1       09082014800UNIBANCO S/A        0809201400000000011836836CC                                                                                                                                                                                                                                                                                                                                                                                                         000005
1018141026092COBR_CAUC_COR  MEDIO NORTE CONST E TERRAPLEN LTDA      001500203000100ACEFER COMERCIO DE SUCATAS LTDA         ROD BR 153,0                            URUACU                                  76400000GO48943000010382033935          26082014900BRADESCO S/A        2710201400000000010462000TD                                                                                                                                                                                                                                                                                                                                                                                                         000006
9000005                                                                                                                                                                                                                                                                                                                                                                                                                                                                                                                                                                                                                                                                                                               000007
