0REMESSANOTIFICACAO ELETRONICA        99999999999999BICBANCO                                AV. PAULISTA                            1048      12.ANDAR  BELA VISTA                    SAO PAULO                     01310100SP1121739360CORTINHAL                               COORDENADOR                             05082011                                                                                                                                                                                                                                                                                                                                                                                      000001
1019421004658COBR_CAUC_COR  S/A ESTADO DE MINAS                     033068883000120SOC COM E IMPORT HERMES SA              AV.  BRASIL 44228                       RIO DE JANEIRO                          23078001RJ2947100001011221902242897-1   31072011900BRADESCO S/A        0809201100000000015188318CC                                                                                                                                                                                                                                                                                                                                                                                                         000002
1007420931444COBR_CAUC_BIC  PLASINCO LTDA                           061413282003835LORENZETTI INDS. BRASILS. ELETROME      AV. PRESIDENTE WILSON,1230              SAO PAULO                               03107901SP29472000010071410013887       03082011007PAULISTA            3108201100000000020969198CC                                                                                                                                                                                                                                                                                                                                                                                                         000003
1048421000338COBR_CAUC_COR  FRIGOESTRELA S.A. EM RECUP JUDICIAL     050947761001871IRMAOS RUSSI LTDA                       RUA LUIS ALLI FARDYN590SALA 03          CAJAMAR                                 07750000SP2947300001012822620013825601  03082011900BRADESCO S/A        0809201100000000011035575CC                                                                                                                                                                                                                                                                                                                                                                                                         000004
1019421011492COBR_CAUC_BIC  SECULUS DA AMAZONIA IND. E COM. S/A     056642960000100LOJAS CEM SA                            ROD ENG ERMENIO DE OLIVEIRA PENTEADOKM75SALTO                                   13322000SP2947400001060735450127294 01  30072011021CAMPINAS            2711201100000000011877189CC                                                                                                                                                                                                                                                                                                                                                                                                         000005
1015421015123COBR_CAUC_COR  JOSCIL EQUIPAMENTOS PARA CEREAIS LT     091288399000375COOP DOS AGRICULTORES DE CHAPADA L      RUA 1O DE MAIO,20                       CHAPADA                                 99530000RS294880000100875789NFE5574/4   12072011800UNIBANCO S/A        3110201100000000001850000CC                                                                                                                                                                                                                                                                                                                                                                                                         000006
1015421015123COBR_CAUC_COR  JOSCIL EQUIPAMENTOS PARA CEREAIS LT     091288399000375COOP DOS AGRICULTORES DE CHAPADA L      RUA 1O DE MAIO,20                       CHAPADA                                 99530000RS294880000200875797NFE5575/3   12072011800UNIBANCO S/A        0909201100000000005125000CC                                                                                                                                                                                                                                                                                                                                                                                                         000007
1015421015123COBR_CAUC_COR  JOSCIL EQUIPAMENTOS PARA CEREAIS LT     091288399000375COOP DOS AGRICULTORES DE CHAPADA L      RUA 1O DE MAIO,20                       CHAPADA                                 99530000RS294880000300875801NFE5575/4   12072011800UNIBANCO S/A        3110201100000000005125000CC                                                                                                                                                                                                                                                                                                                                                                                                         000008
9000005                                                                                                                                                                                                                                                                                                                                                                                                                                                                                                                                                                                                                                                                                                               000009
