0REMESSANOTIFICACAO ELETRONICA        99999999999999BICBANCO                                AV. PAULISTA                            1048      12.ANDAR  BELA VISTA                    SAO PAULO                     01310100SP1121739360CORTINHAL                               COORDENADOR                             27052011                                                                                                                                                                                                                                                                                                                                                                                      000001
1003421014584COBR_CAUC_COR  DISTRIBUIDORA HELGA COSMETICOS LTDA     005609058000231RAQUEL ALMEIDA MELO TABOSA ME L2        AV SEN CARLOS JEREISSATI 123 B          MARACANAU                               61901010CE279000000100041503001655760Z  23032011900BRADESCO S/A        1006201100000000000289637CC                                                                                                                                                                                                                                                                                                                                                                                                         000002
1003421014584COBR_CAUC_COR  DISTRIBUIDORA HELGA COSMETICOS LTDA     005609058000231RAQUEL ALMEIDA MELO TABOSA ME L2        AV SEN CARLOS JEREISSATI 123 B          MARACANAU                               61901010CE279000000200044243001774260Z  16052011900BRADESCO S/A        0507201100000000003333333CC                                                                                                                                                                                                                                                                                                                                                                                                         000003
1003421014584COBR_CAUC_COR  DISTRIBUIDORA HELGA COSMETICOS LTDA     005609058000231RAQUEL ALMEIDA MELO TABOSA ME L2        AV SEN CARLOS JEREISSATI 123 B          MARACANAU                               61901010CE279000000300044251001774270Z  16052011900BRADESCO S/A        0508201100000000003333333CC                                                                                                                                                                                                                                                                                                                                                                                                         000004
1003421014584COBR_CAUC_COR  DISTRIBUIDORA HELGA COSMETICOS LTDA     005609058000231RAQUEL ALMEIDA MELO TABOSA ME L2        AV SEN CARLOS JEREISSATI 123 B          MARACANAU                               61901010CE279000000400044260001774280Z  16052011900BRADESCO S/A        0509201100000000003333333CC                                                                                                                                                                                                                                                                                                                                                                                                         000005
1046421000617COBR_CAUC_COR  INPLAC INDUSTRIA DE PLASTICOS S/A       002614911000304FERTIPAR SUDESTE ADUBOS CORRET.AGR      RUA: HANS KIESER, 101 - BAIRRO REZENDE  VARGINHA                                37002970MG278750000101151839001161072   25052011800UNIBANCO S/A        2206201100000000013088720CC                                                                                                                                                                                                                                                                                                                                                                                                         000006
1007421006183COBR_CAUC_BIC  NITRIFLEX S/A IND E COMERCIO            015179682002243RHODIA POLIAMIDA E ESPECIALIDADES       AV.DOS ESTADOS, 6144                    SANTO ANDRE                             09290520SP278760000100583510000972601   26052011038ABC                 2807201100000000014278203CC                                                                                                                                                                                                                                                                                                                                                                                                         000007
1032420933490COBR_CAUC_BIC  CECRISA REVESTIMENTOS CERAMICOS         004007367000198NBR EMPREENDIMENTOS LTDA                AV DOS HOLANDESES,200                   SAO LUIS                                65075650MA278770000109407830VP00479102  26052011042SAO LUIS            3006201100000000033828750CC                                                                                                                                                                                                                                                                                                                                                                                                         000008
1032420933490COBR_CAUC_BIC  CECRISA REVESTIMENTOS CERAMICOS         004007367000198NBR EMPREENDIMENTOS LTDA                AV DOS HOLANDESES,200                   SAO LUIS                                65075650MA278770000209407848VP00479103  26052011042SAO LUIS            3007201100000000033828750CC                                                                                                                                                                                                                                                                                                                                                                                                         000009
1032420933490COBR_CAUC_BIC  CECRISA REVESTIMENTOS CERAMICOS         004007367000198NBR EMPREENDIMENTOS LTDA                AV DOS HOLANDESES,200                   SAO LUIS                                65075650MA278770000309407856VP00479104  26052011042SAO LUIS            3008201100000000033828750CC                                                                                                                                                                                                                                                                                                                                                                                                         000010
1007421013325COBR_CAUC_COR  SANTA CRUZ FOMENTO COMERCIAL LTDA       059275792000150GENERAL MOTORS DO BRASIL LTDA           AV. GOIAS 1805                          S.CAETANO SUL                           09550050SP278780000100583609415         26052011900BRADESCO S/A        0607201100000000012235230CC                                                                                                                                                                                                                                                                                                                                                                                                         000011
1014420939021COBR_CAUC_BIC  EDITORA O DIA S/A                       010249700000178VOX DISTRIBUIDORA DE CARTAO TELEFO      HADDOCK LOBO 356 SC                     RIO DE JANEIRO                          20260142RJ2787900001023359320594069     25052011014RIO DE JANEIRO      2007201100000000015295200CC                                                                                                                                                                                                                                                                                                                                                                                                         000012
1048421000354COBR_CAUC_COR  FRIGOL S.A. EM RECUPERACAO JUDICIAL     009259067000110COMPANHIA BONSMARA BEEF                 RUA JOAQUIM FLORIANO, 1144              SAO PAULO                               04534003SP278800000100109290205573-1    26052011900BRADESCO S/A        1506201100000000013686149CC                                                                                                                                                                                                                                                                                                                                                                                                         000013
1048421000354COBR_CAUC_COR  FRIGOL S.A. EM RECUPERACAO JUDICIAL     009259067000110COMPANHIA BONSMARA BEEF                 RUA JOAQUIM FLORIANO, 1144              SAO PAULO                               04534003SP278800000200109320205574-1    26052011900BRADESCO S/A        1506201100000000012482763CC                                                                                                                                                                                                                                                                                                                                                                                                         000014
1019421010259COBR_CAUC_BIC  L&S FOMENTO MERCANTIL                   030018048000198CONSTRUTORA ITAMARACA LTDA              RUA ROSA BRANCA 50                      BHTE                                    30390220MG2788100001059894491258        16052011019BELO HORIZONTE      2007201100000000031695400CC                                                                                                                                                                                                                                                                                                                                                                                                         000015
1003421010775COBR_CAUC_COR  NUFARM IND QUIM FARMACEUTICA S/A        003718848000149RURAL TECNICA PRODUTOS AGROPECUARI      R. RIO VERDE 505,                       JATAI                                   75800093GO279010000103916713 001326301  13102010600HSBC BANK BRASIL    3005201100000000008050000CC                                                                                                                                                                                                                                                                                                                                                                                                         000016
1003421010775COBR_CAUC_COR  NUFARM IND QUIM FARMACEUTICA S/A        003718848000149RURAL TECNICA PRODUTOS AGROPECUARI      R. RIO VERDE 505,                       JATAI                                   75800093GO279010000203918589 000769201  23072010600HSBC BANK BRASIL    3005201100000000004630225CC                                                                                                                                                                                                                                                                                                                                                                                                         000017
1003421010775COBR_CAUC_COR  NUFARM IND QUIM FARMACEUTICA S/A        003718848000149RURAL TECNICA PRODUTOS AGROPECUARI      R. RIO VERDE 505,                       JATAI                                   75800093GO279010000303918601 000769601  23072010600HSBC BANK BRASIL    3005201100000000005615604CC                                                                                                                                                                                                                                                                                                                                                                                                         000018
1003421010775COBR_CAUC_COR  NUFARM IND QUIM FARMACEUTICA S/A        003718848000149RURAL TECNICA PRODUTOS AGROPECUARI      R. RIO VERDE 505,                       JATAI                                   75800093GO279010000403918619 000770201  23072010600HSBC BANK BRASIL    3005201100000000009892182CC                                                                                                                                                                                                                                                                                                                                                                                                         000019
1003421010775COBR_CAUC_COR  NUFARM IND QUIM FARMACEUTICA S/A        010197621000160PORTAL PROD AGROPECUARIOS LTDA ME       AV PRESIDENTE VARGAS 173 SL A           PARAGOMINAS                             68625130PA279020000103916632 001438101  30112010600HSBC BANK BRASIL    3006201100000000008550000CC                                                                                                                                                                                                                                                                                                                                                                                                         000020
1003421010775COBR_CAUC_COR  NUFARM IND QUIM FARMACEUTICA S/A        010197621000160PORTAL PROD AGROPECUARIOS LTDA ME       AV PRESIDENTE VARGAS 173 SL A           PARAGOMINAS                             68625130PA279020000203916705 001315101  08102010600HSBC BANK BRASIL    3006201100000000003235998CC                                                                                                                                                                                                                                                                                                                                                                                                         000021
1003421010775COBR_CAUC_COR  NUFARM IND QUIM FARMACEUTICA S/A        010197621000160PORTAL PROD AGROPECUARIOS LTDA ME       AV PRESIDENTE VARGAS 173 SL A           PARAGOMINAS                             68625130PA279020000303916781 001428905  25112010600HSBC BANK BRASIL    3006201100000000006588528CC                                                                                                                                                                                                                                                                                                                                                                                                         000022
1003421010775COBR_CAUC_COR  NUFARM IND QUIM FARMACEUTICA S/A        010197621000160PORTAL PROD AGROPECUARIOS LTDA ME       AV PRESIDENTE VARGAS 173 SL A           PARAGOMINAS                             68625130PA279020000403916799 001428906  25112010600HSBC BANK BRASIL    3006201100000000005940003CC                                                                                                                                                                                                                                                                                                                                                                                                         000023
1003421010775COBR_CAUC_COR  NUFARM IND QUIM FARMACEUTICA S/A        010197621000160PORTAL PROD AGROPECUARIOS LTDA ME       AV PRESIDENTE VARGAS 173 SL A           PARAGOMINAS                             68625130PA279020000503916802 001433101  29112010600HSBC BANK BRASIL    3006201100000000005680000CC                                                                                                                                                                                                                                                                                                                                                                                                         000024
1003421010775COBR_CAUC_COR  NUFARM IND QUIM FARMACEUTICA S/A        010197621000160PORTAL PROD AGROPECUARIOS LTDA ME       AV PRESIDENTE VARGAS 173 SL A           PARAGOMINAS                             68625130PA279020000603934118 001594201  24022011600HSBC BANK BRASIL    0407201100000000005616000CC                                                                                                                                                                                                                                                                                                                                                                                                         000025
1003421010775COBR_CAUC_COR  NUFARM IND QUIM FARMACEUTICA S/A        010197621000160PORTAL PROD AGROPECUARIOS LTDA ME       AV PRESIDENTE VARGAS 173 SL A           PARAGOMINAS                             68625130PA279020000703938491 001628301  28032011800HSBC BANK BRASIL    2607201100000000002185497CC                                                                                                                                                                                                                                                                                                                                                                                                         000026
1003421010775COBR_CAUC_COR  NUFARM IND QUIM FARMACEUTICA S/A        010197621000160PORTAL PROD AGROPECUARIOS LTDA ME       AV PRESIDENTE VARGAS 173 SL A           PARAGOMINAS                             68625130PA279020000803938555 001664503  27042011800HSBC BANK BRASIL    2607201100000000004825000CC                                                                                                                                                                                                                                                                                                                                                                                                         000027
1003421010775COBR_CAUC_COR  NUFARM IND QUIM FARMACEUTICA S/A        008855199000141EMIS COMERCIO E REPRESENTACOES LTD      RUA LAGO DA PEDRA, 111                  JABOATAO DOS GU                         54335060PE279030000103951551 001656301  15042011800UNIBANCO S/A        1508201100000000001117200CC                                                                                                                                                                                                                                                                                                                                                                                                         000028
1003421010775COBR_CAUC_COR  NUFARM IND QUIM FARMACEUTICA S/A        008855199000141EMIS COMERCIO E REPRESENTACOES LTD      RUA LAGO DA PEDRA, 111                  JABOATAO DOS GU                         54335060PE279030000203934134 001633802  29032011600UNIBANCO S/A        2707201100000000003296000CC                                                                                                                                                                                                                                                                                                                                                                                                         000029
1003421010775COBR_CAUC_COR  NUFARM IND QUIM FARMACEUTICA S/A        008855199000141EMIS COMERCIO E REPRESENTACOES LTD      RUA LAGO DA PEDRA, 111                  JABOATAO DOS GU                         54335060PE279030000303934142 001636903  30032011600UNIBANCO S/A        2807201100000000004992640CC                                                                                                                                                                                                                                                                                                                                                                                                         000030
1003421010775COBR_CAUC_COR  NUFARM IND QUIM FARMACEUTICA S/A        008855199000141EMIS COMERCIO E REPRESENTACOES LTD      RUA LAGO DA PEDRA, 111                  JABOATAO DOS GU                         54335060PE279030000403934151 001637304  30032011600UNIBANCO S/A        2807201100000000004720000CC                                                                                                                                                                                                                                                                                                                                                                                                         000031
1003421010775COBR_CAUC_COR  NUFARM IND QUIM FARMACEUTICA S/A        008855199000141EMIS COMERCIO E REPRESENTACOES LTD      RUA LAGO DA PEDRA, 111                  JABOATAO DOS GU                         54335060PE279030000503934169 001637901  30032011600UNIBANCO S/A        2807201100000000003192000CC                                                                                                                                                                                                                                                                                                                                                                                                         000032
1003421010775COBR_CAUC_COR  NUFARM IND QUIM FARMACEUTICA S/A        008855199000141EMIS COMERCIO E REPRESENTACOES LTD      RUA LAGO DA PEDRA, 111                  JABOATAO DOS GU                         54335060PE279030000603934177 001639301  30032011600UNIBANCO S/A        2807201100000000003150000CC                                                                                                                                                                                                                                                                                                                                                                                                         000033
1003421010775COBR_CAUC_COR  NUFARM IND QUIM FARMACEUTICA S/A        008855199000141EMIS COMERCIO E REPRESENTACOES LTD      RUA LAGO DA PEDRA, 111                  JABOATAO DOS GU                         54335060PE279030000703938504 001636601  29032011800UNIBANCO S/A        2707201100000000002750400CC                                                                                                                                                                                                                                                                                                                                                                                                         000034
1003421010775COBR_CAUC_COR  NUFARM IND QUIM FARMACEUTICA S/A        008855199000141EMIS COMERCIO E REPRESENTACOES LTD      RUA LAGO DA PEDRA, 111                  JABOATAO DOS GU                         54335060PE279030000803938512 001637001  30032011800UNIBANCO S/A        2807201100000000002388000CC                                                                                                                                                                                                                                                                                                                                                                                                         000035
1003421010775COBR_CAUC_COR  NUFARM IND QUIM FARMACEUTICA S/A        008855199000141EMIS COMERCIO E REPRESENTACOES LTD      RUA LAGO DA PEDRA, 111                  JABOATAO DOS GU                         54335060PE279030000903938521 001637302  30032011800UNIBANCO S/A        2807201100000000002757600CC                                                                                                                                                                                                                                                                                                                                                                                                         000036
1003421010775COBR_CAUC_COR  NUFARM IND QUIM FARMACEUTICA S/A        008855199000141EMIS COMERCIO E REPRESENTACOES LTD      RUA LAGO DA PEDRA, 111                  JABOATAO DOS GU                         54335060PE279030001003938539 001639401  30032011800UNIBANCO S/A        2807201100000000002872800CC                                                                                                                                                                                                                                                                                                                                                                                                         000037
1003421010775COBR_CAUC_COR  NUFARM IND QUIM FARMACEUTICA S/A        008855199000141EMIS COMERCIO E REPRESENTACOES LTD      RUA LAGO DA PEDRA, 111                  JABOATAO DOS GU                         54335060PE279030001103943630 001575702  15022011800UNIBANCO S/A        3008201100000000004665000CC                                                                                                                                                                                                                                                                                                                                                                                                         000038
1003421010775COBR_CAUC_COR  NUFARM IND QUIM FARMACEUTICA S/A        008855199000141EMIS COMERCIO E REPRESENTACOES LTD      RUA LAGO DA PEDRA, 111                  JABOATAO DOS GU                         54335060PE279030001203943648 001576701  15022011800UNIBANCO S/A        3008201100000000004266000CC                                                                                                                                                                                                                                                                                                                                                                                                         000039
1003421010775COBR_CAUC_COR  NUFARM IND QUIM FARMACEUTICA S/A        008855199000141EMIS COMERCIO E REPRESENTACOES LTD      RUA LAGO DA PEDRA, 111                  JABOATAO DOS GU                         54335060PE279030001303943745 001577701  16022011800UNIBANCO S/A        3008201100000000004266004CC                                                                                                                                                                                                                                                                                                                                                                                                         000040
1003421010775COBR_CAUC_COR  NUFARM IND QUIM FARMACEUTICA S/A        008855199000141EMIS COMERCIO E REPRESENTACOES LTD      RUA LAGO DA PEDRA, 111                  JABOATAO DOS GU                         54335060PE279030001403950857 001637301  30032011800UNIBANCO S/A        2807201100000000001276000CC                                                                                                                                                                                                                                                                                                                                                                                                         000041
1003421010775COBR_CAUC_COR  NUFARM IND QUIM FARMACEUTICA S/A        008855199000141EMIS COMERCIO E REPRESENTACOES LTD      RUA LAGO DA PEDRA, 111                  JABOATAO DOS GU                         54335060PE279030001503950865 001637303  30032011800UNIBANCO S/A        2807201100000000001285440CC                                                                                                                                                                                                                                                                                                                                                                                                         000042
1003421010775COBR_CAUC_COR  NUFARM IND QUIM FARMACEUTICA S/A        008855199000141EMIS COMERCIO E REPRESENTACOES LTD      RUA LAGO DA PEDRA, 111                  JABOATAO DOS GU                         54335060PE279030001603950873 001637401  30032011800UNIBANCO S/A        2807201100000000001180801CC                                                                                                                                                                                                                                                                                                                                                                                                         000043
1003421010775COBR_CAUC_COR  NUFARM IND QUIM FARMACEUTICA S/A        008855199000141EMIS COMERCIO E REPRESENTACOES LTD      RUA LAGO DA PEDRA, 111                  JABOATAO DOS GU                         54335060PE279030001703950881 001637501  30032011800UNIBANCO S/A        2807201100000000001178400CC                                                                                                                                                                                                                                                                                                                                                                                                         000044
1003421010775COBR_CAUC_COR  NUFARM IND QUIM FARMACEUTICA S/A        008855199000141EMIS COMERCIO E REPRESENTACOES LTD      RUA LAGO DA PEDRA, 111                  JABOATAO DOS GU                         54335060PE279030001803950911 001123301  30032011800UNIBANCO S/A        2807201100000000001370600CC                                                                                                                                                                                                                                                                                                                                                                                                         000045
1003421010775COBR_CAUC_COR  NUFARM IND QUIM FARMACEUTICA S/A        008855199000141EMIS COMERCIO E REPRESENTACOES LTD      RUA LAGO DA PEDRA, 111                  JABOATAO DOS GU                         54335060PE279030001903950920 001552607  04022011800UNIBANCO S/A        3008201100000000001230000CC                                                                                                                                                                                                                                                                                                                                                                                                         000046
1003421010775COBR_CAUC_COR  NUFARM IND QUIM FARMACEUTICA S/A        008855199000141EMIS COMERCIO E REPRESENTACOES LTD      RUA LAGO DA PEDRA, 111                  JABOATAO DOS GU                         54335060PE279030002003950938 001553107  04022011800UNIBANCO S/A        3008201100000000001415000CC                                                                                                                                                                                                                                                                                                                                                                                                         000047
1003421010775COBR_CAUC_COR  NUFARM IND QUIM FARMACEUTICA S/A        008855199000141EMIS COMERCIO E REPRESENTACOES LTD      RUA LAGO DA PEDRA, 111                  JABOATAO DOS GU                         54335060PE279030002103951144 001575701  15022011800UNIBANCO S/A        3008201100000000001422001CC                                                                                                                                                                                                                                                                                                                                                                                                         000048
1003421010775COBR_CAUC_COR  NUFARM IND QUIM FARMACEUTICA S/A        008855199000141EMIS COMERCIO E REPRESENTACOES LTD      RUA LAGO DA PEDRA, 111                  JABOATAO DOS GU                         54335060PE279030002203951152 001575801  15022011800UNIBANCO S/A        3008201100000000001422001CC                                                                                                                                                                                                                                                                                                                                                                                                         000049
1003421010775COBR_CAUC_COR  NUFARM IND QUIM FARMACEUTICA S/A        008855199000141EMIS COMERCIO E REPRESENTACOES LTD      RUA LAGO DA PEDRA, 111                  JABOATAO DOS GU                         54335060PE279030002303951161 001577401  16022011800UNIBANCO S/A        3008201100000000001422001CC                                                                                                                                                                                                                                                                                                                                                                                                         000050
1003421010775COBR_CAUC_COR  NUFARM IND QUIM FARMACEUTICA S/A        008855199000141EMIS COMERCIO E REPRESENTACOES LTD      RUA LAGO DA PEDRA, 111                  JABOATAO DOS GU                         54335060PE279030002403951179 001577501  16022011800UNIBANCO S/A        3008201100000000001017000CC                                                                                                                                                                                                                                                                                                                                                                                                         000051
1003421010775COBR_CAUC_COR  NUFARM IND QUIM FARMACEUTICA S/A        008855199000141EMIS COMERCIO E REPRESENTACOES LTD      RUA LAGO DA PEDRA, 111                  JABOATAO DOS GU                         54335060PE279030002503951187 001581602  17022011800UNIBANCO S/A        0108201100000000001287000CC                                                                                                                                                                                                                                                                                                                                                                                                         000052
1003421010775COBR_CAUC_COR  NUFARM IND QUIM FARMACEUTICA S/A        008855199000141EMIS COMERCIO E REPRESENTACOES LTD      RUA LAGO DA PEDRA, 111                  JABOATAO DOS GU                         54335060PE279030002603951195 001585501  18022011800UNIBANCO S/A        0208201100000000001285000CC                                                                                                                                                                                                                                                                                                                                                                                                         000053
1003421010775COBR_CAUC_COR  NUFARM IND QUIM FARMACEUTICA S/A        008855199000141EMIS COMERCIO E REPRESENTACOES LTD      RUA LAGO DA PEDRA, 111                  JABOATAO DOS GU                         54335060PE279030002703951284 001589101  22022011800UNIBANCO S/A        0108201100000000001474000CC                                                                                                                                                                                                                                                                                                                                                                                                         000054
1003421010775COBR_CAUC_COR  NUFARM IND QUIM FARMACEUTICA S/A        008855199000141EMIS COMERCIO E REPRESENTACOES LTD      RUA LAGO DA PEDRA, 111                  JABOATAO DOS GU                         54335060PE279030002803951390 001683201  12052011800UNIBANCO S/A        0909201100000000001186560CC                                                                                                                                                                                                                                                                                                                                                                                                         000055
1003421010775COBR_CAUC_COR  NUFARM IND QUIM FARMACEUTICA S/A        008855199000141EMIS COMERCIO E REPRESENTACOES LTD      RUA LAGO DA PEDRA, 111                  JABOATAO DOS GU                         54335060PE279030002903951403 001687105  13052011800UNIBANCO S/A        1209201100000000001023120CC                                                                                                                                                                                                                                                                                                                                                                                                         000056
1003421010775COBR_CAUC_COR  NUFARM IND QUIM FARMACEUTICA S/A        008855199000141EMIS COMERCIO E REPRESENTACOES LTD      RUA LAGO DA PEDRA, 111                  JABOATAO DOS GU                         54335060PE279030003003951462 001585701  18022011800UNIBANCO S/A        0208201100000000001286999CC                                                                                                                                                                                                                                                                                                                                                                                                         000057
1003421010775COBR_CAUC_COR  NUFARM IND QUIM FARMACEUTICA S/A        008855199000141EMIS COMERCIO E REPRESENTACOES LTD      RUA LAGO DA PEDRA, 111                  JABOATAO DOS GU                         54335060PE279030003103951535 001637601  30032011800UNIBANCO S/A        1209201100000000001215504CC                                                                                                                                                                                                                                                                                                                                                                                                         000058
1003421010775COBR_CAUC_COR  NUFARM IND QUIM FARMACEUTICA S/A        004221051000870COMERCIAL AGRO INDUSTRIAL LTDA          AV MANOEL NOVAIS, 2065 B                BOM JESUS DA LA                         45600970BA279040000103934240 001490002  06012011900BRADESCO S/A        0507201100000000004398000CC                                                                                                                                                                                                                                                                                                                                                                                                         000059
1003421010775COBR_CAUC_COR  NUFARM IND QUIM FARMACEUTICA S/A        004221051000870COMERCIAL AGRO INDUSTRIAL LTDA          AV MANOEL NOVAIS, 2065 B                BOM JESUS DA LA                         45600970BA279040000203943605 001490001  06012011800BRADESCO S/A        0507201100000000002638800CC                                                                                                                                                                                                                                                                                                                                                                                                         000060
1003421010775COBR_CAUC_COR  NUFARM IND QUIM FARMACEUTICA S/A        004221051000870COMERCIAL AGRO INDUSTRIAL LTDA          AV MANOEL NOVAIS, 2065 B                BOM JESUS DA LA                         45600970BA279040000303951543 001639701  31032011800BRADESCO S/A        2908201100000000001238400CC                                                                                                                                                                                                                                                                                                                                                                                                         000061
1003421010775COBR_CAUC_COR  NUFARM IND QUIM FARMACEUTICA S/A        001391790000146SAGRA INSUMOS AGROPECUARIOS LTDA        RUA OLEGARIO MACIEL, 859                PATOS DE MINAS                          38700122MG279050000103943702 001033002  21012011800UNIBANCO S/A        3008201100000000008517600CC                                                                                                                                                                                                                                                                                                                                                                                                         000062
1003421010775COBR_CAUC_BIC  NUFARM IND QUIM FARMACEUTICA S/A        093436632000183VASCONCELOS AGRICOLA LTDA               RUA MARCELO GAMA, 3280                  CACHOEIRA DO SU                         96503260RS279060000103932425 000160101  26102010015PORTO ALEGRE        3005201100000000003555000CC                                                                                                                                                                                                                                                                                                                                                                                                         000063
1003421010775COBR_CAUC_BIC  NUFARM IND QUIM FARMACEUTICA S/A        093436632000183VASCONCELOS AGRICOLA LTDA               RUA MARCELO GAMA, 3280                  CACHOEIRA DO SU                         96503260RS279060000203932492 000833903  13092010015PORTO ALEGRE        3006201100000000005670000CC                                                                                                                                                                                                                                                                                                                                                                                                         000064
1003421010775COBR_CAUC_COR  NUFARM IND QUIM FARMACEUTICA S/A        011204893000103RACA FORTE PRODUTOS AGROPECUARIOS       RUA PARAIBA, 387                        IMPERATRIZ                              65900510MA279070000103943800 001613301  11032011800UNIBANCO S/A        0808201100000000009498080CC                                                                                                                                                                                                                                                                                                                                                                                                         000065
1003421010775COBR_CAUC_COR  NUFARM IND QUIM FARMACEUTICA S/A        001542004000164NADIA RURAL LTDA                        RUA: ALAGOAS, 820                       IMPERATRIZ                              65900490MA279080000103934193 001660401  20042011600HSBC BANK BRASIL    1808201100000000003241000CC                                                                                                                                                                                                                                                                                                                                                                                                         000066
1003421010775COBR_CAUC_COR  NUFARM IND QUIM FARMACEUTICA S/A        001542004000164NADIA RURAL LTDA                        RUA: ALAGOAS, 820                       IMPERATRIZ                              65900490MA279080000203934258 001513401  18012011600HSBC BANK BRASIL    1807201100000000006885000CC                                                                                                                                                                                                                                                                                                                                                                                                         000067
1003421010775COBR_CAUC_BIC  NUFARM IND QUIM FARMACEUTICA S/A        004469502000117AHL DISTRIBUIDORA LTDA                  RUA ANICUNS, 150 - QD CH LT 179A        GOIANIA                                 74425190GO279090000103943672 000991602  21122010018GOIANIA             3008201100000000005199990CC                                                                                                                                                                                                                                                                                                                                                                                                         000068
1003421010775COBR_CAUC_BIC  NUFARM IND QUIM FARMACEUTICA S/A        004469502000117AHL DISTRIBUIDORA LTDA                  RUA ANICUNS, 150 - QD CH LT 179A        GOIANIA                                 74425190GO279090000203943681 001024303  18012011018GOIANIA             3008201100000000004240000CC                                                                                                                                                                                                                                                                                                                                                                                                         000069
1003421010775COBR_CAUC_BIC  NUFARM IND QUIM FARMACEUTICA S/A        004469502000117AHL DISTRIBUIDORA LTDA                  RUA ANICUNS, 150 - QD CH LT 179A        GOIANIA                                 74425190GO279090000303951420 001024302  18012011018GOIANIA             3008201100000000001380000CC                                                                                                                                                                                                                                                                                                                                                                                                         000070
1003421010775COBR_CAUC_COR  NUFARM IND QUIM FARMACEUTICA S/A        088438205000102FACCINI DEFENSIVOS FERTILIZANTES E      AVENIDA SATURNINO DE BRITO, 295         CRUZ ALTA                               98040070RS279100000103932468 001540501  26012011900BRADESCO S/A        2706201100000000007624392CC                                                                                                                                                                                                                                                                                                                                                                                                         000071
1003421010775COBR_CAUC_COR  NUFARM IND QUIM FARMACEUTICA S/A        088438205000102FACCINI DEFENSIVOS FERTILIZANTES E      AVENIDA SATURNINO DE BRITO, 295         CRUZ ALTA                               98040070RS279100000203932549 000199301  19012011900BRADESCO S/A        2006201100000000004409996CC                                                                                                                                                                                                                                                                                                                                                                                                         000072
1003421010775COBR_CAUC_BIC  NUFARM IND QUIM FARMACEUTICA S/A        013184452000112SODAGRO SOCIEDADE DISTRIB AGROPEC       AV.CHANCELER OSVALDO ARANHA,1398        ARACAJU                                 49085100SE279110000103934185 001657201  15042011045ARACAJU             1508201100000000003075000CC                                                                                                                                                                                                                                                                                                                                                                                                         000073
1003421010775COBR_CAUC_BIC  NUFARM IND QUIM FARMACEUTICA S/A        013184452000112SODAGRO SOCIEDADE DISTRIB AGROPEC       AV.CHANCELER OSVALDO ARANHA,1398        ARACAJU                                 49085100SE279110000203934266 001529101  24012011045ARACAJU             2507201100000000003799232CC                                                                                                                                                                                                                                                                                                                                                                                                         000074
1003421010775COBR_CAUC_BIC  NUFARM IND QUIM FARMACEUTICA S/A        013184452000112SODAGRO SOCIEDADE DISTRIB AGROPEC       AV.CHANCELER OSVALDO ARANHA,1398        ARACAJU                                 49085100SE279110000303950831 001634303  29032011045ARACAJU             2707201100000000001258949CC                                                                                                                                                                                                                                                                                                                                                                                                         000075
1003421010775COBR_CAUC_BIC  NUFARM IND QUIM FARMACEUTICA S/A        013184452000112SODAGRO SOCIEDADE DISTRIB AGROPEC       AV.CHANCELER OSVALDO ARANHA,1398        ARACAJU                                 49085100SE279110000403951373 001679602  10052011045ARACAJU             0808201100000000001379400CC                                                                                                                                                                                                                                                                                                                                                                                                         000076
1003421010775COBR_CAUC_BIC  NUFARM IND QUIM FARMACEUTICA S/A        013184452000112SODAGRO SOCIEDADE DISTRIB AGROPEC       AV.CHANCELER OSVALDO ARANHA,1398        ARACAJU                                 49085100SE279110000503951381 001679603  10052011045ARACAJU             0709201100000000001379400CC                                                                                                                                                                                                                                                                                                                                                                                                         000077
1003421010775COBR_CAUC_BIC  NUFARM IND QUIM FARMACEUTICA S/A        013184452000112SODAGRO SOCIEDADE DISTRIB AGROPEC       AV.CHANCELER OSVALDO ARANHA,1398        ARACAJU                                 49085100SE279110000603951527 001540003  25012011045ARACAJU             3008201100000000001175999CC                                                                                                                                                                                                                                                                                                                                                                                                         000078
1003421010775COBR_CAUC_BIC  NUFARM IND QUIM FARMACEUTICA S/A        000235798000401TERRA FERTIL COMERCIO E REPRESENTA      AV ANEL VIARIO,900                      MARACANAU                               61930370CE279120000103938482 001595203  25022011003CENTRO              2507201100000000002184000CC                                                                                                                                                                                                                                                                                                                                                                                                         000079
1003421010775COBR_CAUC_BIC  NUFARM IND QUIM FARMACEUTICA S/A        000235798000401TERRA FERTIL COMERCIO E REPRESENTA      AV ANEL VIARIO,900                      MARACANAU                               61930370CE279120000203943753 001578001  16022011003CENTRO              1807201100000000002037000CC                                                                                                                                                                                                                                                                                                                                                                                                         000080
1003421010775COBR_CAUC_BIC  NUFARM IND QUIM FARMACEUTICA S/A        000235798000401TERRA FERTIL COMERCIO E REPRESENTA      AV ANEL VIARIO,900                      MARACANAU                               61930370CE279120000303950806 001620701  18032011800CENTRO              1807201100000000001178000CC                                                                                                                                                                                                                                                                                                                                                                                                         000081
1003421010775COBR_CAUC_BIC  NUFARM IND QUIM FARMACEUTICA S/A        000235798000401TERRA FERTIL COMERCIO E REPRESENTA      AV ANEL VIARIO,900                      MARACANAU                               61930370CE279120000403951110 001562201  07022011003CENTRO              3008201100000000001050000CC                                                                                                                                                                                                                                                                                                                                                                                                         000082
1003421010775COBR_CAUC_BIC  NUFARM IND QUIM FARMACEUTICA S/A        000235798000401TERRA FERTIL COMERCIO E REPRESENTA      AV ANEL VIARIO,900                      MARACANAU                               61930370CE279120000503951128 001562601  07022011003CENTRO              3008201100000000001104000CC                                                                                                                                                                                                                                                                                                                                                                                                         000083
1003421010775COBR_CAUC_BIC  NUFARM IND QUIM FARMACEUTICA S/A        000235798000401TERRA FERTIL COMERCIO E REPRESENTA      AV ANEL VIARIO,900                      MARACANAU                               61930370CE279120000603951217 001151801  29042011800CENTRO              2908201100000000001079000CC                                                                                                                                                                                                                                                                                                                                                                                                         000084
1003421010775COBR_CAUC_BIC  NUFARM IND QUIM FARMACEUTICA S/A        000235798000401TERRA FERTIL COMERCIO E REPRESENTA      AV ANEL VIARIO,900                      MARACANAU                               61930370CE279120000703951292 001590801  23022011003CENTRO              2507201100000000001210500CC                                                                                                                                                                                                                                                                                                                                                                                                         000085
1003421010775COBR_CAUC_BIC  NUFARM IND QUIM FARMACEUTICA S/A        000235798000401TERRA FERTIL COMERCIO E REPRESENTA      AV ANEL VIARIO,900                      MARACANAU                               61930370CE279120000803951314 001596101  25022011800CENTRO              2507201100000000001092442CC                                                                                                                                                                                                                                                                                                                                                                                                         000086
1003421010775COBR_CAUC_BIC  NUFARM IND QUIM FARMACEUTICA S/A        000235798000401TERRA FERTIL COMERCIO E REPRESENTA      AV ANEL VIARIO,900                      MARACANAU                               61930370CE279120000903951322 001598603  25022011003CENTRO              2507201100000000001169280CC                                                                                                                                                                                                                                                                                                                                                                                                         000087
1003421010775COBR_CAUC_COR  NUFARM IND QUIM FARMACEUTICA S/A        001868463000132AGIVET COMERCIO E REPRESENTACOES L      AV.JOAO DURVAL CARNEIRO,2945            FEIRA DE SANTAN                         44051335BA279130000103943613 001528907  24012011800UNIBANCO S/A        3008201100000000003452160CC                                                                                                                                                                                                                                                                                                                                                                                                         000088
1003421010775COBR_CAUC_COR  NUFARM IND QUIM FARMACEUTICA S/A        001868463000132AGIVET COMERCIO E REPRESENTACOES L      AV.JOAO DURVAL CARNEIRO,2945            FEIRA DE SANTAN                         44051335BA279130000203951471 001528901  24012011800UNIBANCO S/A        3008201100000000001422001CC                                                                                                                                                                                                                                                                                                                                                                                                         000089
1003421010775COBR_CAUC_COR  NUFARM IND QUIM FARMACEUTICA S/A        001868463000132AGIVET COMERCIO E REPRESENTACOES L      AV.JOAO DURVAL CARNEIRO,2945            FEIRA DE SANTAN                         44051335BA279130000303951489 001528902  24012011800UNIBANCO S/A        3008201100000000001866000CC                                                                                                                                                                                                                                                                                                                                                                                                         000090
1003421010775COBR_CAUC_COR  NUFARM IND QUIM FARMACEUTICA S/A        001868463000132AGIVET COMERCIO E REPRESENTACOES L      AV.JOAO DURVAL CARNEIRO,2945            FEIRA DE SANTAN                         44051335BA279130000403951497 001528903  24012011800UNIBANCO S/A        3008201100000000001668001CC                                                                                                                                                                                                                                                                                                                                                                                                         000091
1003421010775COBR_CAUC_COR  NUFARM IND QUIM FARMACEUTICA S/A        001868463000132AGIVET COMERCIO E REPRESENTACOES L      AV.JOAO DURVAL CARNEIRO,2945            FEIRA DE SANTAN                         44051335BA279130000503951501 001528905  24012011800UNIBANCO S/A        3008201100000000002460000CC                                                                                                                                                                                                                                                                                                                                                                                                         000092
1003421010775COBR_CAUC_COR  NUFARM IND QUIM FARMACEUTICA S/A        001868463000132AGIVET COMERCIO E REPRESENTACOES L      AV.JOAO DURVAL CARNEIRO,2945            FEIRA DE SANTAN                         44051335BA279130000603951519 001530603  25012011800UNIBANCO S/A        2507201100000000001702796CC                                                                                                                                                                                                                                                                                                                                                                                                         000093
1003421010775COBR_CAUC_COR  NUFARM IND QUIM FARMACEUTICA S/A        028138113000339CASA DO ADUBO LTDA (F2)                 RODOV. JOSE SETTE  KM 01                CARIACICA                               29151055ES279140000103938334 001138401  20042011800UNIBANCO S/A        1907201100000000003040000CC                                                                                                                                                                                                                                                                                                                                                                                                         000094
1003421010775COBR_CAUC_COR  NUFARM IND QUIM FARMACEUTICA S/A        028138113000339CASA DO ADUBO LTDA (F2)                 RODOV. JOSE SETTE  KM 01                CARIACICA                               29151055ES279140000203951004 000529601  18052011800UNIBANCO S/A        1608201100000000004560000CC                                                                                                                                                                                                                                                                                                                                                                                                         000095
1003421010775COBR_CAUC_COR  NUFARM IND QUIM FARMACEUTICA S/A        028138113000339CASA DO ADUBO LTDA (F2)                 RODOV. JOSE SETTE  KM 01                CARIACICA                               29151055ES279140000303951012 000529801  19052011800UNIBANCO S/A        1708201100000000001580000CC                                                                                                                                                                                                                                                                                                                                                                                                         000096
1003421010775COBR_CAUC_COR  NUFARM IND QUIM FARMACEUTICA S/A        028138113000339CASA DO ADUBO LTDA (F2)                 RODOV. JOSE SETTE  KM 01                CARIACICA                               29151055ES279140000403951021 000529802  19052011800UNIBANCO S/A        1708201100000000004560000CC                                                                                                                                                                                                                                                                                                                                                                                                         000097
1003421010775COBR_CAUC_BIC  NUFARM IND QUIM FARMACEUTICA S/A        005554364000137SIGMA AGROPECUARIA LTDA.                AVENIDA MIGUEL SUTIL, 10040             CUIABA                                  78040365MT279150000103916811 001440901  30112010024CUIABA              2905201100000000005646816CC                                                                                                                                                                                                                                                                                                                                                                                                         000098
1003421010775COBR_CAUC_BIC  NUFARM IND QUIM FARMACEUTICA S/A        005554364000137SIGMA AGROPECUARIA LTDA.                AVENIDA MIGUEL SUTIL, 10040             CUIABA                                  78040365MT279150000203916829 001440902  30112010024CUIABA              2905201100000000004476000CC                                                                                                                                                                                                                                                                                                                                                                                                         000099
1003421010775COBR_CAUC_BIC  NUFARM IND QUIM FARMACEUTICA S/A        005554364000137SIGMA AGROPECUARIA LTDA.                AVENIDA MIGUEL SUTIL, 10040             CUIABA                                  78040365MT279150000303934274 001548901  28012011024CUIABA              2707201100000000003724000CC                                                                                                                                                                                                                                                                                                                                                                                                         000100
1003421010775COBR_CAUC_COR  NUFARM IND QUIM FARMACEUTICA S/A        008839710000111LAVROSOLO SOLUCOES AGRICOLAS LTDA-      ROD.BR 010 S/N,KM 1650-SALA 02          PARAGOMINAS                             68625970PA279160000103932450 001487301  05012011900BRADESCO S/A        3006201100000000005600000CC                                                                                                                                                                                                                                                                                                                                                                                                         000101
1003421010775COBR_CAUC_COR  NUFARM IND QUIM FARMACEUTICA S/A        008839710000111LAVROSOLO SOLUCOES AGRICOLAS LTDA-      ROD.BR 010 S/N,KM 1650-SALA 02          PARAGOMINAS                             68625970PA279160000203932514 000933407  30112010900BRADESCO S/A        3006201100000000003036000CC                                                                                                                                                                                                                                                                                                                                                                                                         000102
1003421010775COBR_CAUC_COR  NUFARM IND QUIM FARMACEUTICA S/A        008839710000111LAVROSOLO SOLUCOES AGRICOLAS LTDA-      ROD.BR 010 S/N,KM 1650-SALA 02          PARAGOMINAS                             68625970PA279160000303934207 000933418  30112010900BRADESCO S/A        3007201100000000003036000CC                                                                                                                                                                                                                                                                                                                                                                                                         000103
1003421010775COBR_CAUC_COR  NUFARM IND QUIM FARMACEUTICA S/A        008839710000111LAVROSOLO SOLUCOES AGRICOLAS LTDA-      ROD.BR 010 S/N,KM 1650-SALA 02          PARAGOMINAS                             68625970PA279160000403950946 000933420  30112010800BRADESCO S/A        3007201100000000001081740CC                                                                                                                                                                                                                                                                                                                                                                                                         000104
1003421010775COBR_CAUC_COR  NUFARM IND QUIM FARMACEUTICA S/A        008839710000111LAVROSOLO SOLUCOES AGRICOLAS LTDA-      ROD.BR 010 S/N,KM 1650-SALA 02          PARAGOMINAS                             68625970PA279160000503950954 000933422  30112010800BRADESCO S/A        3007201100000000001248192CC                                                                                                                                                                                                                                                                                                                                                                                                         000105
1003421010775COBR_CAUC_COR  NUFARM IND QUIM FARMACEUTICA S/A        008839710000111LAVROSOLO SOLUCOES AGRICOLAS LTDA-      ROD.BR 010 S/N,KM 1650-SALA 02          PARAGOMINAS                             68625970PA279160000603951306 001595101  25022011800BRADESCO S/A        2408201100000000001080000CC                                                                                                                                                                                                                                                                                                                                                                                                         000106
1003421010775COBR_CAUC_COR  NUFARM IND QUIM FARMACEUTICA S/A        005662861001201BOA SAFRA COMERCIO E REPRESENTACAO      R 24 DE JANEIRO, 132                    RIO BRANCO                              69901150AC279170000103938270 000472501  16122010800UNIBANCO S/A        3007201100000000002996000CC                                                                                                                                                                                                                                                                                                                                                                                                         000107
1003421010775COBR_CAUC_COR  NUFARM IND QUIM FARMACEUTICA S/A        005662861001201BOA SAFRA COMERCIO E REPRESENTACAO      R 24 DE JANEIRO, 132                    RIO BRANCO                              69901150AC279170000203938288 000472601  16122010800UNIBANCO S/A        3007201100000000005018300CC                                                                                                                                                                                                                                                                                                                                                                                                         000108
1003421010775COBR_CAUC_COR  NUFARM IND QUIM FARMACEUTICA S/A        005662861001201BOA SAFRA COMERCIO E REPRESENTACAO      R 24 DE JANEIRO, 132                    RIO BRANCO                              69901150AC279170000303938407 000365601  22072010800UNIBANCO S/A        3007201100000000004142592CC                                                                                                                                                                                                                                                                                                                                                                                                         000109
1003421010775COBR_CAUC_COR  NUFARM IND QUIM FARMACEUTICA S/A        005662861001201BOA SAFRA COMERCIO E REPRESENTACAO      R 24 DE JANEIRO, 132                    RIO BRANCO                              69901150AC279170000403938415 000365604  22072010800UNIBANCO S/A        3007201100000000003340800CC                                                                                                                                                                                                                                                                                                                                                                                                         000110
1003421010775COBR_CAUC_COR  NUFARM IND QUIM FARMACEUTICA S/A        005737282000128FUTURA AGRONEGOCIOS LTDA                AV.SENADOR MELLO VIANA, 830             ARAGUARI                                38442192MG279180000103932379 000976801  20122010600HSBC BANK BRASIL    3105201100000000006350000CC                                                                                                                                                                                                                                                                                                                                                                                                         000111
1003421010775COBR_CAUC_COR  NUFARM IND QUIM FARMACEUTICA S/A        005737282000128FUTURA AGRONEGOCIOS LTDA                AV.SENADOR MELLO VIANA, 830             ARAGUARI                                38442192MG279180000203932522 000999301  21122010600HSBC BANK BRASIL    0106201100000000006350000CC                                                                                                                                                                                                                                                                                                                                                                                                         000112
1003421010775COBR_CAUC_COR  NUFARM IND QUIM FARMACEUTICA S/A        005737282000128FUTURA AGRONEGOCIOS LTDA                AV.SENADOR MELLO VIANA, 830             ARAGUARI                                38442192MG279180000303934215 001039101  25012011600HSBC BANK BRASIL    1107201100000000004800000CC                                                                                                                                                                                                                                                                                                                                                                                                         000113
1003421010775COBR_CAUC_COR  NUFARM IND QUIM FARMACEUTICA S/A        005430190000281SANTANA PROD AGROPEC LTDA               AV. ARAGUAIA, 3484                      REDENCAO                                68552412PA279190000103934096 001582901  17022011600HSBC BANK BRASIL    1807201100000000005736497CC                                                                                                                                                                                                                                                                                                                                                                                                         000114
1003421010775COBR_CAUC_COR  NUFARM IND QUIM FARMACEUTICA S/A        005430190000281SANTANA PROD AGROPEC LTDA               AV. ARAGUAIA, 3484                      REDENCAO                                68552412PA279190000203934100 001582902  17022011600HSBC BANK BRASIL    1807201100000000005400000CC                                                                                                                                                                                                                                                                                                                                                                                                         000115
1003421010775COBR_CAUC_COR  NUFARM IND QUIM FARMACEUTICA S/A        005430190000281SANTANA PROD AGROPEC LTDA               AV. ARAGUAIA, 3484                      REDENCAO                                68552412PA279190000303934126 001622301  21032011600HSBC BANK BRASIL    1808201100000000009000000CC                                                                                                                                                                                                                                                                                                                                                                                                         000116
1003421010775COBR_CAUC_COR  NUFARM IND QUIM FARMACEUTICA S/A        010943866000190PRECILIANO E LOPES LTDA ME              AV DJALMA DUTRA, 2091                   ALTAMIRA                                68371163PA279200000103938563 001670702  30042011600HSBC BANK BRASIL    2907201100000000004527600CC                                                                                                                                                                                                                                                                                                                                                                                                         000117
1003421010775COBR_CAUC_COR  NUFARM IND QUIM FARMACEUTICA S/A        010943866000190PRECILIANO E LOPES LTDA ME              AV DJALMA DUTRA, 2091                   ALTAMIRA                                68371163PA279200000203943583 001670704  30042011600HSBC BANK BRASIL    2908201100000000004664800CC                                                                                                                                                                                                                                                                                                                                                                                                         000118
1003421010775COBR_CAUC_COR  NUFARM IND QUIM FARMACEUTICA S/A        010943866000190PRECILIANO E LOPES LTDA ME              AV DJALMA DUTRA, 2091                   ALTAMIRA                                68371163PA279200000303943591 001670901  30042011600HSBC BANK BRASIL    2908201100000000005880000CC                                                                                                                                                                                                                                                                                                                                                                                                         000119
1003421010775COBR_CAUC_COR  NUFARM IND QUIM FARMACEUTICA S/A        010943866000190PRECILIANO E LOPES LTDA ME              AV DJALMA DUTRA, 2091                   ALTAMIRA                                68371163PA279200000403943788 001608802  10032011600HSBC BANK BRASIL    0807201100000000002825444CC                                                                                                                                                                                                                                                                                                                                                                                                         000120
1003421010775COBR_CAUC_COR  NUFARM IND QUIM FARMACEUTICA S/A        010943866000190PRECILIANO E LOPES LTDA ME              AV DJALMA DUTRA, 2091                   ALTAMIRA                                68371163PA279200000503950814 001622403  21032011600HSBC BANK BRASIL    1907201100000000001298923CC                                                                                                                                                                                                                                                                                                                                                                                                         000121
1003421010775COBR_CAUC_COR  NUFARM IND QUIM FARMACEUTICA S/A        010943866000190PRECILIANO E LOPES LTDA ME              AV DJALMA DUTRA, 2091                   ALTAMIRA                                68371163PA279200000603950822 001622405  21032011600HSBC BANK BRASIL    1808201100000000001260720CC                                                                                                                                                                                                                                                                                                                                                                                                         000122
1003421010775COBR_CAUC_COR  NUFARM IND QUIM FARMACEUTICA S/A        010943866000190PRECILIANO E LOPES LTDA ME              AV DJALMA DUTRA, 2091                   ALTAMIRA                                68371163PA279200000703951357 001670701  30042011600HSBC BANK BRASIL    2907201100000000001188000CC                                                                                                                                                                                                                                                                                                                                                                                                         000123
1003421010775COBR_CAUC_COR  NUFARM IND QUIM FARMACEUTICA S/A        010943866000190PRECILIANO E LOPES LTDA ME              AV DJALMA DUTRA, 2091                   ALTAMIRA                                68371163PA279200000803951365 001670703  30042011600HSBC BANK BRASIL    2908201100000000001224000CC                                                                                                                                                                                                                                                                                                                                                                                                         000124
1003421010775COBR_CAUC_BIC  NUFARM IND QUIM FARMACEUTICA S/A        044702868000109FERBELA AGRICOLA LTDA                   RUA PRIMO SANTO ANTONIO, 474/480        ARARAS                                  13603015SP279210000103950903 001101001  11032011021CAMPINAS            0808201100000000001015000CC                                                                                                                                                                                                                                                                                                                                                                                                         000125
1003421010775COBR_CAUC_COR  NUFARM IND QUIM FARMACEUTICA S/A        022881858000145HILGERT E CIA LTDA                      AV. MARECHAL RONDON, 1327               JI-PARANA                               78961390RO279220000103950849 001635201  29032011800UNIBANCO S/A        2608201100000000001045000CC                                                                                                                                                                                                                                                                                                                                                                                                         000126
1003421010775COBR_CAUC_COR  NUFARM IND QUIM FARMACEUTICA S/A        005831541000851MODULO INSUMOS AGROPECUARIOS LTDA       RUA CRISTOVAO BARRETO, 1725             FEIRA DE SANTAN                         44003127BA279230000103951349 001658902  18042011800UNIBANCO S/A        1807201100000000001050560CC                                                                                                                                                                                                                                                                                                                                                                                                         000127
1003421010775COBR_CAUC_BIC  NUFARM IND QUIM FARMACEUTICA S/A        012452676000103PAIOL PRODUTOS AGRICOLA LTDA            RUA DOS INDAIAS, 101                    INDAIATUBA                              13344000SP279240000103951446 001033801  21012011021CAMPINAS            3008201100000000001140000CC                                                                                                                                                                                                                                                                                                                                                                                                         000128
1003421010775COBR_CAUC_COR  NUFARM IND QUIM FARMACEUTICA S/A        059904896000500AGROTECNICA VERRONE COMERCIAL AGRI      R BENEDITA DE AZEV. RODRIGUES,140 NA 160POCOS DE CALDAS                         37704174MG279250000103918546 000716101  07072010600HSBC BANK BRASIL    3005201100000000001286297CC                                                                                                                                                                                                                                                                                                                                                                                                         000129
1003421010775COBR_CAUC_BIC  NUFARM IND QUIM FARMACEUTICA S/A        008725775000136DIAGRO COMERCIO E REPRESENTACAO LT      AV. DURVAL DE GOES MONTEIRO, 6601-A     MACEIO                                  57060972AL279260000103951331 001602201  28022011017MACEIO              2908201100000000001380000CC                                                                                                                                                                                                                                                                                                                                                                                                         000130
1003421010775COBR_CAUC_BIC  NUFARM IND QUIM FARMACEUTICA S/A        000206023000157BM COMERCIO E REP. DE PRODS.AGROPE      RUA BETTY HASS DE CAMPOS,220            INDAIATUBA                              13331224SP279270000103951209 001150301  29042011021CAMPINAS            3008201100000000001431900CC                                                                                                                                                                                                                                                                                                                                                                                                         000131
1003421010775COBR_CAUC_BIC  NUFARM IND QUIM FARMACEUTICA S/A        007324688000104DENAGRO DIST. DE INSUMOS AGRICOLAS      AV. MANOEL RIBAS, 2950                  GUARAPUAVA                              85055010PR279280000103918554 000718105  08072010016CURITIBA            3005201100000000001750176CC                                                                                                                                                                                                                                                                                                                                                                                                         000132
1003421010775COBR_CAUC_COR  NUFARM IND QUIM FARMACEUTICA S/A        001911761000168NATIVA PRODUTOS AGRICOLAS LTDA          AVENIDA BRASIL, 1492                    PATO BRANCO                             85501080PR279290000103951411 001007503  11012011800UNIBANCO S/A        3008201100000000001200000CC                                                                                                                                                                                                                                                                                                                                                                                                         000133
1003421010775COBR_CAUC_COR  NUFARM IND QUIM FARMACEUTICA S/A        001911761000168NATIVA PRODUTOS AGRICOLAS LTDA          AVENIDA BRASIL, 1492                    PATO BRANCO                             85501080PR279290000203951454 001042101  25012011800UNIBANCO S/A        3008201100000000001235168CC                                                                                                                                                                                                                                                                                                                                                                                                         000134
1003421010775COBR_CAUC_BIC  NUFARM IND QUIM FARMACEUTICA S/A        011169030000142COOP DO AGRONEGOCIO ASS ASSOC FORN      AV MAL MASCARENHAS DE MORAIS, 2028      RECIFE                                  51180001PE279300000103938547 001664402  27042011010RECIFE              2607201100000000002719200CC                                                                                                                                                                                                                                                                                                                                                                                                         000135
1003421010775COBR_CAUC_COR  NUFARM IND QUIM FARMACEUTICA S/A        004419281000172NUCLEO PRODUTOS AGROPECUARIOS LTDA      AV. PRESIDENTE VARGAS,3039/3047         RIO VERDE                               75905310GO279310000103950890 001085001  23022011800UNIBANCO S/A        3008201100000000001300000CC                                                                                                                                                                                                                                                                                                                                                                                                         000136
1003421010775COBR_CAUC_COR  NUFARM IND QUIM FARMACEUTICA S/A        004419281000172NUCLEO PRODUTOS AGROPECUARIOS LTDA      AV. PRESIDENTE VARGAS,3039/3047         RIO VERDE                               75905310GO279310000203951136 001570701  11022011800UNIBANCO S/A        3008201100000000001480000CC                                                                                                                                                                                                                                                                                                                                                                                                         000137
1003421010775COBR_CAUC_COR  NUFARM IND QUIM FARMACEUTICA S/A        004214229000180KACZAM E GARCIA KACZAM LTDA             AV.MENDONCA FURTADO ,2830               SANTAREM                                68040050PA279320000103932476 001558801  07022011600HSBC BANK BRASIL    0706201100000000003452755CC                                                                                                                                                                                                                                                                                                                                                                                                         000138
1003421010775COBR_CAUC_BIC  NUFARM IND QUIM FARMACEUTICA S/A        075904383005433COAMO AGROINDUSTRIAL COOPERATIVA        AV.GUILHERME DE PAULA XAVIER,3715       CAMPO MOURAO                            87308570PR279330000103932484 001637101  30032011016CURITIBA            3006201100000000003636600CC                                                                                                                                                                                                                                                                                                                                                                                                         000139
1003421010775COBR_CAUC_BIC  NUFARM IND QUIM FARMACEUTICA S/A        010316940000148MCF AGROFLORESTAL LTDA                  RUA CLAUDIO MANOEL DA COSTA 155         PORTO ALEGRE                            91210250RS279340000103932557 000208001  28012011015PORTO ALEGRE        0206201100000000005000000CC                                                                                                                                                                                                                                                                                                                                                                                                         000140
1003421010775COBR_CAUC_COR  NUFARM IND QUIM FARMACEUTICA S/A        007361225000112MARCA AGRO MERCANTIL LTDA               AV MIN OLAVO DRUMMOND, 920              ARAXA                                   38180400MG279350000103943621 001541601  26012011800UNIBANCO S/A        3008201100000000004700000CC                                                                                                                                                                                                                                                                                                                                                                                                         000141
1003421010775COBR_CAUC_COR  NUFARM IND QUIM FARMACEUTICA S/A        007361225000112MARCA AGRO MERCANTIL LTDA               AV MIN OLAVO DRUMMOND, 920              ARAXA                                   38180400MG279350000203951438 001030001  20012011800UNIBANCO S/A        3008201100000000001040000CC                                                                                                                                                                                                                                                                                                                                                                                                         000142
