0REMESSANOTIFICACAO ELETRONICA        99999999999999BICBANCO                                AV. PAULISTA                            1048      12.ANDAR  BELA VISTA                    SAO PAULO                     01310100SP1121739360CORTINHAL                               COORDENADOR                             26032014                                                                                                                                                                                                                                                                                                                                                                                      000001
1046421000145COBR_CAUC_COR  KOMLOG IMPORTACAO LTDA                  061502324000546REFRIGELO CLIMATIZACAO DE AMBIENTE      AV RUI BARBOSA, 2797                    ASSIS                                   19800002SP469310000102335518060115-002  21032014700BANCO REAL- ABN AMRO2004201400000000040507250CC                                                                                                                                                                                                                                                                                                                                                                                                         000002
1046421000145COBR_CAUC_COR  KOMLOG IMPORTACAO LTDA                  061502324000546REFRIGELO CLIMATIZACAO DE AMBIENTE      AV RUI BARBOSA, 2797                    ASSIS                                   19800002SP469310000202335526060115-003  21032014700BANCO REAL- ABN AMRO2005201400000000040507250CC                                                                                                                                                                                                                                                                                                                                                                                                         000003
1007421068839COBR_CAUC_BIC  KELPEN OIL BRASIL LTDA                  008833531000177PULCRA ESPECIALIDADES QUIMICAS LTD      RODOVIA  PRESIDENTE DUTRA KM 161,0      JACAREI                                 12335010SP4693200001027687112259201     25032014007PAULISTA            0605201400000000011452129CC                                                                                                                                                                                                                                                                                                                                                                                                         000004
9000002                                                                                                                                                                                                                                                                                                                                                                                                                                                                                                                                                                                                                                                                                                               000005
