0REMESSANOTIFICACAO ELETRONICA        99999999999999BICBANCO                                AV. PAULISTA                            1048      12.ANDAR  BELA VISTA                    SAO PAULO                     01310100SP1121739360CORTINHAL                               COORDENADOR                             17072013                                                                                                                                                                                                                                                                                                                                                                                      000001
1007421067492COBR_CAUC_BIC  ENERGY COML IMPORT E EXPORT LTDA        014555032000168REPLAS COMERCIO DE RESINAS PLASTIC      AVENIDA PRESIDENTE WILSON ,5700         SAO PAULO                               04220002SP4309700001020728069229        15072013007PAULISTA            1408201300000000013511876CC                                                                                                                                                                                                                                                                                                                                                                                                         000002
1007421067492COBR_CAUC_BIC  ENERGY COML IMPORT E EXPORT LTDA        014555032000168REPLAS COMERCIO DE RESINAS PLASTIC      AVENIDA PRESIDENTE WILSON ,5700         SAO PAULO                               04220002SP4309700002020728149240        15072013007PAULISTA            1408201300000000013511876CC                                                                                                                                                                                                                                                                                                                                                                                                         000003
1007421067492COBR_CAUC_BIC  ENERGY COML IMPORT E EXPORT LTDA        014555032000168REPLAS COMERCIO DE RESINAS PLASTIC      AVENIDA PRESIDENTE WILSON ,5700         SAO PAULO                               04220002SP4309700003020728229239        15072013007PAULISTA            1408201300000000013511876CC                                                                                                                                                                                                                                                                                                                                                                                                         000004
1007421067492COBR_CAUC_BIC  ENERGY COML IMPORT E EXPORT LTDA        014555032000168REPLAS COMERCIO DE RESINAS PLASTIC      AVENIDA PRESIDENTE WILSON ,5700         SAO PAULO                               04220002SP4309700004020728319238        15072013007PAULISTA            1408201300000000013511876CC                                                                                                                                                                                                                                                                                                                                                                                                         000005
1007421067492COBR_CAUC_BIC  ENERGY COML IMPORT E EXPORT LTDA        014555032000168REPLAS COMERCIO DE RESINAS PLASTIC      AVENIDA PRESIDENTE WILSON ,5700         SAO PAULO                               04220002SP4309700005020728499237        15072013007PAULISTA            1408201300000000013511876CC                                                                                                                                                                                                                                                                                                                                                                                                         000006
1007421067492COBR_CAUC_BIC  ENERGY COML IMPORT E EXPORT LTDA        014555032000168REPLAS COMERCIO DE RESINAS PLASTIC      AVENIDA PRESIDENTE WILSON ,5700         SAO PAULO                               04220002SP4309700006020728579236        15072013007PAULISTA            1408201300000000013511876CC                                                                                                                                                                                                                                                                                                                                                                                                         000007
1007421067492COBR_CAUC_BIC  ENERGY COML IMPORT E EXPORT LTDA        014555032000168REPLAS COMERCIO DE RESINAS PLASTIC      AVENIDA PRESIDENTE WILSON ,5700         SAO PAULO                               04220002SP4309700007020728659235        15072013007PAULISTA            1408201300000000013511876CC                                                                                                                                                                                                                                                                                                                                                                                                         000008
1007421067492COBR_CAUC_BIC  ENERGY COML IMPORT E EXPORT LTDA        014555032000168REPLAS COMERCIO DE RESINAS PLASTIC      AVENIDA PRESIDENTE WILSON ,5700         SAO PAULO                               04220002SP4309700008020728739234        15072013007PAULISTA            1408201300000000013511876CC                                                                                                                                                                                                                                                                                                                                                                                                         000009
1007421067492COBR_CAUC_BIC  ENERGY COML IMPORT E EXPORT LTDA        014555032000168REPLAS COMERCIO DE RESINAS PLASTIC      AVENIDA PRESIDENTE WILSON ,5700         SAO PAULO                               04220002SP4309700009020728819232        15072013007PAULISTA            1408201300000000013511876CC                                                                                                                                                                                                                                                                                                                                                                                                         000010
1007421067492COBR_CAUC_BIC  ENERGY COML IMPORT E EXPORT LTDA        014555032000168REPLAS COMERCIO DE RESINAS PLASTIC      AVENIDA PRESIDENTE WILSON ,5700         SAO PAULO                               04220002SP4309700010020728909231        15072013007PAULISTA            1408201300000000013511876CC                                                                                                                                                                                                                                                                                                                                                                                                         000011
1007421067492COBR_CAUC_BIC  ENERGY COML IMPORT E EXPORT LTDA        014555032000168REPLAS COMERCIO DE RESINAS PLASTIC      AVENIDA PRESIDENTE WILSON ,5700         SAO PAULO                               04220002SP4309700011020729039230        15072013007PAULISTA            1408201300000000013511876CC                                                                                                                                                                                                                                                                                                                                                                                                         000012
1007421067492COBR_CAUC_BIC  ENERGY COML IMPORT E EXPORT LTDA        014555032000168REPLAS COMERCIO DE RESINAS PLASTIC      AVENIDA PRESIDENTE WILSON ,5700         SAO PAULO                               04220002SP4309700012020729119233        15072013007PAULISTA            1408201300000000013511876CC                                                                                                                                                                                                                                                                                                                                                                                                         000013
1028421002921COBR_CAUC_COR  MATABOI ALIMENTOS S/A - EM REC.JUD.     007918552000122CHARQUEADA FRISUL LTDA.                 R  13 DE MAIO2720                       OURO FINO                               37570000MG4309500001003911530001521701  15072013900BRADESCO S/A        1408201300000000011939401CC                                                                                                                                                                                                                                                                                                                                                                                                         000014
1016420933828COBR_CAUC_COR  PENINSULA INTERNATIONAL S/A             002734023001470FIAGRIL LTDA                            R COLONIZADOR ENIO PEPINO 3751          BELO HORIZONTE                          78555000MG4309600001040738172135-2      25062013900BRADESCO S/A        3004201400000000050000000CC                                                                                                                                                                                                                                                                                                                                                                                                         000015
1016420933828COBR_CAUC_COR  PENINSULA INTERNATIONAL S/A             002734023001470FIAGRIL LTDA                            R COLONIZADOR ENIO PEPINO 3751          BELO HORIZONTE                          78555000MG4309600002040738252135-1      25062013900BRADESCO S/A        3004201400000000050000000CC                                                                                                                                                                                                                                                                                                                                                                                                         000016
9000003                                                                                                                                                                                                                                                                                                                                                                                                                                                                                                                                                                                                                                                                                                               000017
