0REMESSANOTIFICACAO ELETRONICA        99999999999999BICBANCO                                AV. PAULISTA                            1048      12.ANDAR  BELA VISTA                    SAO PAULO                     01310100SP1121739360CORTINHAL                               COORDENADOR                             11042014                                                                                                                                                                                                                                                                                                                                                                                      000001
1028421002921COBR_CAUC_COR  MATABOI ALIMENTOS S/A - EM REC.JUD.     057622466000146DISTRIBUIDORA DE CARNES VALE DO MO      R VITORIO THOMAZOTTI, 105               LEME                                    13611413SP4713400001005545670013711601  09042014900BRADESCO S/A        0705201400000000019000813CC                                                                                                                                                                                                                                                                                                                                                                                                         000002
1048421000338COBR_CAUC_COR  FRIGOESTRELA S.A. EM RECUP JUDICIAL     050947761001871IRMAOS RUSSI LTDA                       RUA LUIS ALLI FARDYN SALA 03, 590       CAJAMAR                                 07750000SP4713500001079152750034644901  09042014900BRADESCO S/A        1005201400000000012680457CC                                                                                                                                                                                                                                                                                                                                                                                                         000003
1016141019259COBR_CAUC_COR  COBRAZEM AGROINDUSTRIAL LTDA            084874726000496KAEFER AGROINDUSTRIAL LTDA              RUA MATE LARANJEIRAS Nº 0               TOLEDO                                  85900000PR4713600001044488110057533-01  07042014700BANCO REAL- ABN AMRO0705201400000000030247500TD                                                                                                                                                                                                                                                                                                                                                                                                         000004
1016141019259COBR_CAUC_COR  COBRAZEM AGROINDUSTRIAL LTDA            084874726000496KAEFER AGROINDUSTRIAL LTDA              RUA MATE LARANJEIRAS Nº 0               TOLEDO                                  85900000PR4713600002044488290057533-02  07042014700BANCO REAL- ABN AMRO0805201400000000030247500TD                                                                                                                                                                                                                                                                                                                                                                                                         000005
9000003                                                                                                                                                                                                                                                                                                                                                                                                                                                                                                                                                                                                                                                                                                               000006
