0REMESSANOTIFICACAO ELETRONICA        99999999999999BICBANCO                                AV. PAULISTA                            1048      12.ANDAR  BELA VISTA                    SAO PAULO                     01310100SP1121739360CORTINHAL                               COORDENADOR                             01042013                                                                                                                                                                                                                                                                                                                                                                                      000001
1046421006399DIR_CREDIT     CARBONIFERA CRICIUMA S/A                002474103000208TRACTEBEL ENERGIA S/A                   AVENIDA PAULO SANTOS MELLO, S/NR        CAPIVARI DE BAIXO                       88745000SC4115100001                                                                                                                                          481008398           011220100000020197DGT.NAJL.05.28032013000404compra de carvão mineral tipo CE 4500.                                                                                                                                                                                                          083647909000163              000002
1048421000338COBR_CAUC_COR  FRIGOESTRELA S.A. EM RECUP JUDICIAL     003384037000159MASTROTTO BRASIL S/A                    ROD BR 101 KM 201S/N                    CACHOEIRA                               44300000BA4113100001041622090001545201  27032013900BRADESCO S/A        1104201300000000024158703CC                                                                                                                                                                                                                                                                                                                                                                                                         000003
1015421001149DIR_CREDIT     GREMIO FOOTBALL PORTO ALEGRENSE         067420349000153FILON CONFECCOES LTDA                   RUA LUBAVITCH 42                        SAO PAULO                               01123010SP4114300001                                                                                                                                          012193148           010120050000017631S/N         28032013000403LICENCIAMENTO DE MARCA E SIMBOLOGIA NA CONFECÇÃO E VENDA DE PRODUTOS DEMATERIAIS ESPORTIVOS E OUTRAS AVENÇAS.                                                                                                                                   092797901000174              000004
1015421001149DIR_CREDIT     GREMIO FOOTBALL PORTO ALEGRENSE         087834883000113TRAMONTINA FARROUPILHA S/A              RODOVIA RS 122 KM 61                    FARROUPILHA                             95180000RS4114400001                                                                                                                                          012193148           130120110000017640S/N         28032013000403patrocinio da tramontina às equipes de futebol de campo do gremio, vi- sando à divulgação e estruturação da marca tramontina, de propriedade da patro-cinadora, atraves da inserção de sua marca tramontina.                                    092797901000174              000005
1018440972658COBR_CAUC_COR  IND E COM DE BEBIDAS IMPERIAL S/A       050221019001370PRIMO SCHINCARIOL IND. CERVEJAS E       ROD. BR-060 KM.22                       ALEXANIA                                72930970GO41130000010199503447378-7/1   27032013900BRADESCO S/A        1104201300000000013001928CC                                                                                                                                                                                                                                                                                                                                                                                                         000006
1024420934410COBR_CAUC_BIC  INTERCOOP INT SUIN MED NORTE MT LTD     001928075002062DMA DISTRIBUIDORA SA                    RODOVIA BR 040, 180 KM 531,180          BELO HORIZONTE                          30855500MG41132000010201182996539       23032013019BELO HORIZONTE      2204201300000000011650302CC                                                                                                                                                                                                                                                                                                                                                                                                         000007
1007421064540COBR_CAUC_COR  SUPERSONIC LOGISTICA E TRANSPORTES      007130025000582DIGIBRAS IND DO BRASIL                  RUA ACAI DISTRITUO INDUSTRIAL,0         MANAUS                                  69075020AM4115200001018070390110000239  23112012800UNIBANCO S/A        1105201300000000005980157CC                                                                                                                                                                                                                                                                                                                                                                                                         000008
1007421064540COBR_CAUC_COR  SUPERSONIC LOGISTICA E TRANSPORTES      007130025000582DIGIBRAS IND DO BRASIL                  RUA ACAI DISTRITUO INDUSTRIAL,0         MANAUS                                  69075020AM4115200002018067760130000021  26122012800UNIBANCO S/A        1605201300000000002027688CC                                                                                                                                                                                                                                                                                                                                                                                                         000009
1007421064540COBR_CAUC_COR  SUPERSONIC LOGISTICA E TRANSPORTES      007130025000582DIGIBRAS IND DO BRASIL                  RUA ACAI DISTRITUO INDUSTRIAL,0         MANAUS                                  69075020AM411520000301806784011004458   12112012800UNIBANCO S/A        1105201300000000002836466CC                                                                                                                                                                                                                                                                                                                                                                                                         000010
1007421064540COBR_CAUC_COR  SUPERSONIC LOGISTICA E TRANSPORTES      007130025000582DIGIBRAS IND DO BRASIL                  RUA ACAI DISTRITUO INDUSTRIAL,0         MANAUS                                  69075020AM41152000040180679211004416    29102012007UNIBANCO S/A        0605201300000000003007894CC                                                                                                                                                                                                                                                                                                                                                                                                         000011
1007421064540COBR_CAUC_COR  SUPERSONIC LOGISTICA E TRANSPORTES      007130025000582DIGIBRAS IND DO BRASIL                  RUA ACAI DISTRITUO INDUSTRIAL,0         MANAUS                                  69075020AM4115200005018068060110000330  21012013800UNIBANCO S/A        1605201300000000003179996CC                                                                                                                                                                                                                                                                                                                                                                                                         000012
1007421064540COBR_CAUC_COR  SUPERSONIC LOGISTICA E TRANSPORTES      007130025000582DIGIBRAS IND DO BRASIL                  RUA ACAI DISTRITUO INDUSTRIAL,0         MANAUS                                  69075020AM4115200006018068140050002711  05102012800UNIBANCO S/A        0605201300000000003429187CC                                                                                                                                                                                                                                                                                                                                                                                                         000013
1007421064540COBR_CAUC_COR  SUPERSONIC LOGISTICA E TRANSPORTES      007130025000582DIGIBRAS IND DO BRASIL                  RUA ACAI DISTRITUO INDUSTRIAL,0         MANAUS                                  69075020AM4115200007018068220050002474  28062012800UNIBANCO S/A        0605201300000000003541980CC                                                                                                                                                                                                                                                                                                                                                                                                         000014
1007421064540COBR_CAUC_COR  SUPERSONIC LOGISTICA E TRANSPORTES      007130025000582DIGIBRAS IND DO BRASIL                  RUA ACAI DISTRITUO INDUSTRIAL,0         MANAUS                                  69075020AM4115200008018068310110000279  19122012800UNIBANCO S/A        1605201300000000003775868CC                                                                                                                                                                                                                                                                                                                                                                                                         000015
1007421064540COBR_CAUC_COR  SUPERSONIC LOGISTICA E TRANSPORTES      007130025000582DIGIBRAS IND DO BRASIL                  RUA ACAI DISTRITUO INDUSTRIAL,0         MANAUS                                  69075020AM411520000901806849011004440   29102012800UNIBANCO S/A        1105201300000000003599085CC                                                                                                                                                                                                                                                                                                                                                                                                         000016
1007421064540COBR_CAUC_COR  SUPERSONIC LOGISTICA E TRANSPORTES      007130025000582DIGIBRAS IND DO BRASIL                  RUA ACAI DISTRITUO INDUSTRIAL,0         MANAUS                                  69075020AM411520001001806857011004459   12112012800UNIBANCO S/A        0605201300000000003599203CC                                                                                                                                                                                                                                                                                                                                                                                                         000017
1007421064540COBR_CAUC_COR  SUPERSONIC LOGISTICA E TRANSPORTES      007130025000582DIGIBRAS IND DO BRASIL                  RUA ACAI DISTRITUO INDUSTRIAL,0         MANAUS                                  69075020AM411520001101806865011004481   30112012800UNIBANCO S/A        0605201300000000003816565CC                                                                                                                                                                                                                                                                                                                                                                                                         000018
1007421064540COBR_CAUC_COR  SUPERSONIC LOGISTICA E TRANSPORTES      007130025000582DIGIBRAS IND DO BRASIL                  RUA ACAI DISTRITUO INDUSTRIAL,0         MANAUS                                  69075020AM411520001201806873011004474   23112012800UNIBANCO S/A        0605201300000000002786643CC                                                                                                                                                                                                                                                                                                                                                                                                         000019
1007421064540COBR_CAUC_COR  SUPERSONIC LOGISTICA E TRANSPORTES      007130025000582DIGIBRAS IND DO BRASIL                  RUA ACAI DISTRITUO INDUSTRIAL,0         MANAUS                                  69075020AM411520001301806881011004392   11102012800UNIBANCO S/A        0605201300000000002703506CC                                                                                                                                                                                                                                                                                                                                                                                                         000020
1007421064540COBR_CAUC_COR  SUPERSONIC LOGISTICA E TRANSPORTES      007130025000582DIGIBRAS IND DO BRASIL                  RUA ACAI DISTRITUO INDUSTRIAL,0         MANAUS                                  69075020AM411520001401806890011005446   08012013800UNIBANCO S/A        1605201300000000002032690CC                                                                                                                                                                                                                                                                                                                                                                                                         000021
1007421064540COBR_CAUC_COR  SUPERSONIC LOGISTICA E TRANSPORTES      007130025000582DIGIBRAS IND DO BRASIL                  RUA ACAI DISTRITUO INDUSTRIAL,0         MANAUS                                  69075020AM411520001501806903011004199   27072012800UNIBANCO S/A        0605201300000000002076273CC                                                                                                                                                                                                                                                                                                                                                                                                         000022
1007421064540COBR_CAUC_COR  SUPERSONIC LOGISTICA E TRANSPORTES      007130025000582DIGIBRAS IND DO BRASIL                  RUA ACAI DISTRITUO INDUSTRIAL,0         MANAUS                                  69075020AM4115200016018069110110000281  19122012800UNIBANCO S/A        1605201300000000002101358CC                                                                                                                                                                                                                                                                                                                                                                                                         000023
1007421064540COBR_CAUC_COR  SUPERSONIC LOGISTICA E TRANSPORTES      007130025000582DIGIBRAS IND DO BRASIL                  RUA ACAI DISTRITUO INDUSTRIAL,0         MANAUS                                  69075020AM4115200017018069200110000226  29102012800UNIBANCO S/A        0605201300000000002169408CC                                                                                                                                                                                                                                                                                                                                                                                                         000024
1007421064540COBR_CAUC_COR  SUPERSONIC LOGISTICA E TRANSPORTES      007130025000582DIGIBRAS IND DO BRASIL                  RUA ACAI DISTRITUO INDUSTRIAL,0         MANAUS                                  69075020AM4115200018018069380110000323  16012013800UNIBANCO S/A        0605201300000000002393832CC                                                                                                                                                                                                                                                                                                                                                                                                         000025
1007421064540COBR_CAUC_COR  SUPERSONIC LOGISTICA E TRANSPORTES      007130025000582DIGIBRAS IND DO BRASIL                  RUA ACAI DISTRITUO INDUSTRIAL,0         MANAUS                                  69075020AM411520001901806946011004462   23112012800UNIBANCO S/A        0605201300000000002552357CC                                                                                                                                                                                                                                                                                                                                                                                                         000026
1007421064540COBR_CAUC_COR  SUPERSONIC LOGISTICA E TRANSPORTES      007130025000582DIGIBRAS IND DO BRASIL                  RUA ACAI DISTRITUO INDUSTRIAL,0         MANAUS                                  69075020AM411520002001806954011005526   23012013800UNIBANCO S/A        1605201300000000002598666CC                                                                                                                                                                                                                                                                                                                                                                                                         000027
1007421064540COBR_CAUC_COR  SUPERSONIC LOGISTICA E TRANSPORTES      007130025000582DIGIBRAS IND DO BRASIL                  RUA ACAI DISTRITUO INDUSTRIAL,0         MANAUS                                  69075020AM411520002101806962011005532   29012013800UNIBANCO S/A        1605201300000000002647961CC                                                                                                                                                                                                                                                                                                                                                                                                         000028
1007421064540COBR_CAUC_COR  SUPERSONIC LOGISTICA E TRANSPORTES      007130025000582DIGIBRAS IND DO BRASIL                  RUA ACAI DISTRITUO INDUSTRIAL,0         MANAUS                                  69075020AM411520002201806971011004569   12122012800UNIBANCO S/A        1105201300000000002655609CC                                                                                                                                                                                                                                                                                                                                                                                                         000029
1007421064540COBR_CAUC_COR  SUPERSONIC LOGISTICA E TRANSPORTES      007130025000582DIGIBRAS IND DO BRASIL                  RUA ACAI DISTRITUO INDUSTRIAL,0         MANAUS                                  69075020AM411520002301806989011004614   02012013800UNIBANCO S/A        1605201300000000004020436CC                                                                                                                                                                                                                                                                                                                                                                                                         000030
1007421064540COBR_CAUC_COR  SUPERSONIC LOGISTICA E TRANSPORTES      007130025000582DIGIBRAS IND DO BRASIL                  RUA ACAI DISTRITUO INDUSTRIAL,0         MANAUS                                  69075020AM4115200024018069970110000267  06122012800UNIBANCO S/A        1105201300000000004175916CC                                                                                                                                                                                                                                                                                                                                                                                                         000031
1007421064540COBR_CAUC_COR  SUPERSONIC LOGISTICA E TRANSPORTES      007130025000582DIGIBRAS IND DO BRASIL                  RUA ACAI DISTRITUO INDUSTRIAL,0         MANAUS                                  69075020AM411520002501807004011001224   30072012800UNIBANCO S/A        0605201300000000005622349CC                                                                                                                                                                                                                                                                                                                                                                                                         000032
1007421064540COBR_CAUC_COR  SUPERSONIC LOGISTICA E TRANSPORTES      007130025000582DIGIBRAS IND DO BRASIL                  RUA ACAI DISTRITUO INDUSTRIAL,0         MANAUS                                  69075020AM4115200026018070120110000249  04122012800UNIBANCO S/A        1105201300000000005859110CC                                                                                                                                                                                                                                                                                                                                                                                                         000033
1007421064540COBR_CAUC_COR  SUPERSONIC LOGISTICA E TRANSPORTES      007130025000582DIGIBRAS IND DO BRASIL                  RUA ACAI DISTRITUO INDUSTRIAL,0         MANAUS                                  69075020AM4115200027018070210050002814  26102012800UNIBANCO S/A        1105201300000000005929990CC                                                                                                                                                                                                                                                                                                                                                                                                         000034
1007421064540COBR_CAUC_COR  SUPERSONIC LOGISTICA E TRANSPORTES      007130025000582DIGIBRAS IND DO BRASIL                  RUA ACAI DISTRITUO INDUSTRIAL,0         MANAUS                                  69075020AM4115200028018073060110000291  03012013800UNIBANCO S/A        1605201300000000008422459CC                                                                                                                                                                                                                                                                                                                                                                                                         000035
1007421064540COBR_CAUC_COR  SUPERSONIC LOGISTICA E TRANSPORTES      007130025000582DIGIBRAS IND DO BRASIL                  RUA ACAI DISTRITUO INDUSTRIAL,0         MANAUS                                  69075020AM4115200029018070470110000238  23112012800UNIBANCO S/A        1105201300000000006153669CC                                                                                                                                                                                                                                                                                                                                                                                                         000036
1007421064540COBR_CAUC_COR  SUPERSONIC LOGISTICA E TRANSPORTES      007130025000582DIGIBRAS IND DO BRASIL                  RUA ACAI DISTRITUO INDUSTRIAL,0         MANAUS                                  69075020AM41152000300180705511004463    23112012800UNIBANCO S/A        1105201300000000006375983CC                                                                                                                                                                                                                                                                                                                                                                                                         000037
1007421064540COBR_CAUC_COR  SUPERSONIC LOGISTICA E TRANSPORTES      007130025000582DIGIBRAS IND DO BRASIL                  RUA ACAI DISTRITUO INDUSTRIAL,0         MANAUS                                  69075020AM4115200031018070630110000241  23112012800UNIBANCO S/A        1105201300000000006732737CC                                                                                                                                                                                                                                                                                                                                                                                                         000038
1007421064540COBR_CAUC_COR  SUPERSONIC LOGISTICA E TRANSPORTES      007130025000582DIGIBRAS IND DO BRASIL                  RUA ACAI DISTRITUO INDUSTRIAL,0         MANAUS                                  69075020AM4115200032018070710110000277  19122012800UNIBANCO S/A        1605201300000000007304069CC                                                                                                                                                                                                                                                                                                                                                                                                         000039
1007421064540COBR_CAUC_COR  SUPERSONIC LOGISTICA E TRANSPORTES      007130025000582DIGIBRAS IND DO BRASIL                  RUA ACAI DISTRITUO INDUSTRIAL,0         MANAUS                                  69075020AM4115200033018070800110000317  14012013800UNIBANCO S/A        1605201300000000007201854CC                                                                                                                                                                                                                                                                                                                                                                                                         000040
1007421064540COBR_CAUC_COR  SUPERSONIC LOGISTICA E TRANSPORTES      007130025000582DIGIBRAS IND DO BRASIL                  RUA ACAI DISTRITUO INDUSTRIAL,0         MANAUS                                  69075020AM411520003401807098011004613   02012013800UNIBANCO S/A        1605201300000000005485204CC                                                                                                                                                                                                                                                                                                                                                                                                         000041
1007421064540COBR_CAUC_COR  SUPERSONIC LOGISTICA E TRANSPORTES      007130025000582DIGIBRAS IND DO BRASIL                  RUA ACAI DISTRITUO INDUSTRIAL,0         MANAUS                                  69075020AM4115200035018071010110000253  04122012800UNIBANCO S/A        1105201300000000005350766CC                                                                                                                                                                                                                                                                                                                                                                                                         000042
1007421064540COBR_CAUC_COR  SUPERSONIC LOGISTICA E TRANSPORTES      007130025000582DIGIBRAS IND DO BRASIL                  RUA ACAI DISTRITUO INDUSTRIAL,0         MANAUS                                  69075020AM411520003601807110011004308   12092012800UNIBANCO S/A        0605201300000000004038079CC                                                                                                                                                                                                                                                                                                                                                                                                         000043
1007421064540COBR_CAUC_COR  SUPERSONIC LOGISTICA E TRANSPORTES      007130025000582DIGIBRAS IND DO BRASIL                  RUA ACAI DISTRITUO INDUSTRIAL,0         MANAUS                                  69075020AM4115200037018071280110000276  12122012800UNIBANCO S/A        1105201300000000004272794CC                                                                                                                                                                                                                                                                                                                                                                                                         000044
1007421064540COBR_CAUC_COR  SUPERSONIC LOGISTICA E TRANSPORTES      007130025000582DIGIBRAS IND DO BRASIL                  RUA ACAI DISTRITUO INDUSTRIAL,0         MANAUS                                  69075020AM4115200038018071360110000304  08012013800UNIBANCO S/A        1605201300000000004467000CC                                                                                                                                                                                                                                                                                                                                                                                                         000045
1007421064540COBR_CAUC_COR  SUPERSONIC LOGISTICA E TRANSPORTES      007130025000582DIGIBRAS IND DO BRASIL                  RUA ACAI DISTRITUO INDUSTRIAL,0         MANAUS                                  69075020AM4115200039018071440110000232  29102012800UNIBANCO S/A        1105201300000000004667017CC                                                                                                                                                                                                                                                                                                                                                                                                         000046
1007421064540COBR_CAUC_COR  SUPERSONIC LOGISTICA E TRANSPORTES      007130025000582DIGIBRAS IND DO BRASIL                  RUA ACAI DISTRITUO INDUSTRIAL,0         MANAUS                                  69075020AM4115200040018071520110000237  23112012800UNIBANCO S/A        1105201300000000004291246CC                                                                                                                                                                                                                                                                                                                                                                                                         000047
1007421064540COBR_CAUC_COR  SUPERSONIC LOGISTICA E TRANSPORTES      007130025000582DIGIBRAS IND DO BRASIL                  RUA ACAI DISTRITUO INDUSTRIAL,0         MANAUS                                  69075020AM4115200041018071610110000250  04122012800UNIBANCO S/A        1105201300000000004676327CC                                                                                                                                                                                                                                                                                                                                                                                                         000048
1007421064540COBR_CAUC_COR  SUPERSONIC LOGISTICA E TRANSPORTES      007130025000582DIGIBRAS IND DO BRASIL                  RUA ACAI DISTRITUO INDUSTRIAL,0         MANAUS                                  69075020AM411520004201807179011004465   23112012800UNIBANCO S/A        1105201300000000004701851CC                                                                                                                                                                                                                                                                                                                                                                                                         000049
1007421064540COBR_CAUC_COR  SUPERSONIC LOGISTICA E TRANSPORTES      007130025000582DIGIBRAS IND DO BRASIL                  RUA ACAI DISTRITUO INDUSTRIAL,0         MANAUS                                  69075020AM4115200043018071870050002953  12122012800UNIBANCO S/A        1605201300000000004797350CC                                                                                                                                                                                                                                                                                                                                                                                                         000050
1007421064540COBR_CAUC_COR  SUPERSONIC LOGISTICA E TRANSPORTES      007130025000582DIGIBRAS IND DO BRASIL                  RUA ACAI DISTRITUO INDUSTRIAL,0         MANAUS                                  69075020AM411520004401807195011004227   30072012800UNIBANCO S/A        0605201300000000005063559CC                                                                                                                                                                                                                                                                                                                                                                                                         000051
1007421064540COBR_CAUC_COR  SUPERSONIC LOGISTICA E TRANSPORTES      007130025000582DIGIBRAS IND DO BRASIL                  RUA ACAI DISTRITUO INDUSTRIAL,0         MANAUS                                  69075020AM4115200045018072090110000278  19122012800UNIBANCO S/A        1605201300000000007109562CC                                                                                                                                                                                                                                                                                                                                                                                                         000052
1007421064540COBR_CAUC_COR  SUPERSONIC LOGISTICA E TRANSPORTES      007130025000582DIGIBRAS IND DO BRASIL                  RUA ACAI DISTRITUO INDUSTRIAL,0         MANAUS                                  69075020AM41152000460180721711004531    05122012800UNIBANCO S/A        1105201300000000007906017CC                                                                                                                                                                                                                                                                                                                                                                                                         000053
1007421064540COBR_CAUC_COR  SUPERSONIC LOGISTICA E TRANSPORTES      007130025000582DIGIBRAS IND DO BRASIL                  RUA ACAI DISTRITUO INDUSTRIAL,0         MANAUS                                  69075020AM4115200047018072250110000200  06102012800UNIBANCO S/A        0605201300000000017658401CC                                                                                                                                                                                                                                                                                                                                                                                                         000054
1007421064540COBR_CAUC_COR  SUPERSONIC LOGISTICA E TRANSPORTES      007130025000582DIGIBRAS IND DO BRASIL                  RUA ACAI DISTRITUO INDUSTRIAL,0         MANAUS                                  69075020AM4115200048018072330110000280  19122012800UNIBANCO S/A        1605201300000000015153244CC                                                                                                                                                                                                                                                                                                                                                                                                         000055
1007421064540COBR_CAUC_COR  SUPERSONIC LOGISTICA E TRANSPORTES      007130025000582DIGIBRAS IND DO BRASIL                  RUA ACAI DISTRITUO INDUSTRIAL,0         MANAUS                                  69075020AM4115200049018072410110000199  06102012800UNIBANCO S/A        0605201300000000013105400CC                                                                                                                                                                                                                                                                                                                                                                                                         000056
1007421064540COBR_CAUC_COR  SUPERSONIC LOGISTICA E TRANSPORTES      007130025000582DIGIBRAS IND DO BRASIL                  RUA ACAI DISTRITUO INDUSTRIAL,0         MANAUS                                  69075020AM4115200050018072500050002972  19122012800UNIBANCO S/A        1605201300000000010808311CC                                                                                                                                                                                                                                                                                                                                                                                                         000057
1007421064540COBR_CAUC_COR  SUPERSONIC LOGISTICA E TRANSPORTES      007130025000582DIGIBRAS IND DO BRASIL                  RUA ACAI DISTRITUO INDUSTRIAL,0         MANAUS                                  69075020AM4115200051018072680110000265  06122012800UNIBANCO S/A        1105201300000000009429059CC                                                                                                                                                                                                                                                                                                                                                                                                         000058
1007421064540COBR_CAUC_COR  SUPERSONIC LOGISTICA E TRANSPORTES      007130025000582DIGIBRAS IND DO BRASIL                  RUA ACAI DISTRITUO INDUSTRIAL,0         MANAUS                                  69075020AM4115200052018072760110000252  04122012800UNIBANCO S/A        1105201300000000008937188CC                                                                                                                                                                                                                                                                                                                                                                                                         000059
1007421064540COBR_CAUC_COR  SUPERSONIC LOGISTICA E TRANSPORTES      007130025000582DIGIBRAS IND DO BRASIL                  RUA ACAI DISTRITUO INDUSTRIAL,0         MANAUS                                  69075020AM4115200053018072840110000195  04102012800UNIBANCO S/A        0605201300000000008768368CC                                                                                                                                                                                                                                                                                                                                                                                                         000060
1007421064540COBR_CAUC_COR  SUPERSONIC LOGISTICA E TRANSPORTES      007130025000582DIGIBRAS IND DO BRASIL                  RUA ACAI DISTRITUO INDUSTRIAL,0         MANAUS                                  69075020AM4115200054018072920110000240  23112012800UNIBANCO S/A        1105201300000000008743170CC                                                                                                                                                                                                                                                                                                                                                                                                         000061
1007421064540COBR_CAUC_COR  SUPERSONIC LOGISTICA E TRANSPORTES      007130025000582DIGIBRAS IND DO BRASIL                  RUA ACAI DISTRITUO INDUSTRIAL,0         MANAUS                                  69075020AM4115200055018075780110000222  29102012800UNIBANCO S/A        0605201300000000000975111CC                                                                                                                                                                                                                                                                                                                                                                                                         000062
1007421064540COBR_CAUC_COR  SUPERSONIC LOGISTICA E TRANSPORTES      007130025000582DIGIBRAS IND DO BRASIL                  RUA ACAI DISTRITUO INDUSTRIAL,0         MANAUS                                  69075020AM4115200056018073140110000290  03012013800UNIBANCO S/A        1605201300000000008414142CC                                                                                                                                                                                                                                                                                                                                                                                                         000063
1007421064540COBR_CAUC_COR  SUPERSONIC LOGISTICA E TRANSPORTES      007130025000582DIGIBRAS IND DO BRASIL                  RUA ACAI DISTRITUO INDUSTRIAL,0         MANAUS                                  69075020AM4115200057018073220110000211  11102012800UNIBANCO S/A        1105201300000000008154531CC                                                                                                                                                                                                                                                                                                                                                                                                         000064
1007421064540COBR_CAUC_COR  SUPERSONIC LOGISTICA E TRANSPORTES      007130025000582DIGIBRAS IND DO BRASIL                  RUA ACAI DISTRITUO INDUSTRIAL,0         MANAUS                                  69075020AM41152000580180733111004228    30072012800UNIBANCO S/A        0605201300000000008977088CC                                                                                                                                                                                                                                                                                                                                                                                                         000065
1007421064540COBR_CAUC_COR  SUPERSONIC LOGISTICA E TRANSPORTES      007130025000582DIGIBRAS IND DO BRASIL                  RUA ACAI DISTRITUO INDUSTRIAL,0         MANAUS                                  69075020AM4115200059018073490110000266  06122012800UNIBANCO S/A        1105201300000000022485515CC                                                                                                                                                                                                                                                                                                                                                                                                         000066
1007421064540COBR_CAUC_COR  SUPERSONIC LOGISTICA E TRANSPORTES      007130025000582DIGIBRAS IND DO BRASIL                  RUA ACAI DISTRITUO INDUSTRIAL,0         MANAUS                                  69075020AM411520006001807357011004395   11102012800UNIBANCO S/A        0605201300000000001933679CC                                                                                                                                                                                                                                                                                                                                                                                                         000067
1007421064540COBR_CAUC_COR  SUPERSONIC LOGISTICA E TRANSPORTES      007130025000582DIGIBRAS IND DO BRASIL                  RUA ACAI DISTRITUO INDUSTRIAL,0         MANAUS                                  69075020AM411520006101807365011004435   29102012800UNIBANCO S/A        0605201300000000001801144CC                                                                                                                                                                                                                                                                                                                                                                                                         000068
1007421064540COBR_CAUC_COR  SUPERSONIC LOGISTICA E TRANSPORTES      007130025000582DIGIBRAS IND DO BRASIL                  RUA ACAI DISTRITUO INDUSTRIAL,0         MANAUS                                  69075020AM411520006201807373011004450   12112012800UNIBANCO S/A        0605201300000000001748279CC                                                                                                                                                                                                                                                                                                                                                                                                         000069
1007421064540COBR_CAUC_COR  SUPERSONIC LOGISTICA E TRANSPORTES      007130025000582DIGIBRAS IND DO BRASIL                  RUA ACAI DISTRITUO INDUSTRIAL,0         MANAUS                                  69075020AM411520006301807381011004445   30102012800UNIBANCO S/A        0605201300000000001831300CC                                                                                                                                                                                                                                                                                                                                                                                                         000070
1007421064540COBR_CAUC_COR  SUPERSONIC LOGISTICA E TRANSPORTES      007130025000582DIGIBRAS IND DO BRASIL                  RUA ACAI DISTRITUO INDUSTRIAL,0         MANAUS                                  69075020AM411520006401807390011005442   08012013800UNIBANCO S/A        0605201300000000001816077CC                                                                                                                                                                                                                                                                                                                                                                                                         000071
1007421064540COBR_CAUC_COR  SUPERSONIC LOGISTICA E TRANSPORTES      007130025000582DIGIBRAS IND DO BRASIL                  RUA ACAI DISTRITUO INDUSTRIAL,0         MANAUS                                  69075020AM4115200065018074030110000230  29102012800UNIBANCO S/A        0605201300000000001609027CC                                                                                                                                                                                                                                                                                                                                                                                                         000072
1007421064540COBR_CAUC_COR  SUPERSONIC LOGISTICA E TRANSPORTES      007130025000582DIGIBRAS IND DO BRASIL                  RUA ACAI DISTRITUO INDUSTRIAL,0         MANAUS                                  69075020AM4115200066018074110050003047  17012013800UNIBANCO S/A        1605201300000000001538328CC                                                                                                                                                                                                                                                                                                                                                                                                         000073
1007421064540COBR_CAUC_COR  SUPERSONIC LOGISTICA E TRANSPORTES      007130025000582DIGIBRAS IND DO BRASIL                  RUA ACAI DISTRITUO INDUSTRIAL,0         MANAUS                                  69075020AM4115200067018074200110000251  04122012800UNIBANCO S/A        1105201300000000001637938CC                                                                                                                                                                                                                                                                                                                                                                                                         000074
1007421064540COBR_CAUC_COR  SUPERSONIC LOGISTICA E TRANSPORTES      007130025000582DIGIBRAS IND DO BRASIL                  RUA ACAI DISTRITUO INDUSTRIAL,0         MANAUS                                  69075020AM4115200068018074380110000325  17012013800UNIBANCO S/A        0605201300000000001430634CC                                                                                                                                                                                                                                                                                                                                                                                                         000075
1007421064540COBR_CAUC_COR  SUPERSONIC LOGISTICA E TRANSPORTES      007130025000582DIGIBRAS IND DO BRASIL                  RUA ACAI DISTRITUO INDUSTRIAL,0         MANAUS                                  69075020AM4115200069018074460050002479  28062012800UNIBANCO S/A        0605201300000000001689284CC                                                                                                                                                                                                                                                                                                                                                                                                         000076
1007421064540COBR_CAUC_COR  SUPERSONIC LOGISTICA E TRANSPORTES      007130025000582DIGIBRAS IND DO BRASIL                  RUA ACAI DISTRITUO INDUSTRIAL,0         MANAUS                                  69075020AM411520007001807454011004485   03122012800UNIBANCO S/A        0605201300000000001680163CC                                                                                                                                                                                                                                                                                                                                                                                                         000077
1007421064540COBR_CAUC_COR  SUPERSONIC LOGISTICA E TRANSPORTES      007130025000582DIGIBRAS IND DO BRASIL                  RUA ACAI DISTRITUO INDUSTRIAL,0         MANAUS                                  69075020AM411520007101807462011004390   11102012800UNIBANCO S/A        0605201300000000001572530CC                                                                                                                                                                                                                                                                                                                                                                                                         000078
1007421064540COBR_CAUC_COR  SUPERSONIC LOGISTICA E TRANSPORTES      007130025000582DIGIBRAS IND DO BRASIL                  RUA ACAI DISTRITUO INDUSTRIAL,0         MANAUS                                  69075020AM411520007201807471011005528   23012013800UNIBANCO S/A        0605201300000000001914126CC                                                                                                                                                                                                                                                                                                                                                                                                         000079
1007421064540COBR_CAUC_COR  SUPERSONIC LOGISTICA E TRANSPORTES      007130025000582DIGIBRAS IND DO BRASIL                  RUA ACAI DISTRITUO INDUSTRIAL,0         MANAUS                                  69075020AM4115200073018074890050003044  16012013800UNIBANCO S/A        1605201300000000001913509CC                                                                                                                                                                                                                                                                                                                                                                                                         000080
1007421064540COBR_CAUC_COR  SUPERSONIC LOGISTICA E TRANSPORTES      007130025000582DIGIBRAS IND DO BRASIL                  RUA ACAI DISTRITUO INDUSTRIAL,0         MANAUS                                  69075020AM411520007401807497011004489   04122012800UNIBANCO S/A        1105201300000000001748201CC                                                                                                                                                                                                                                                                                                                                                                                                         000081
1007421064540COBR_CAUC_COR  SUPERSONIC LOGISTICA E TRANSPORTES      007130025000582DIGIBRAS IND DO BRASIL                  RUA ACAI DISTRITUO INDUSTRIAL,0         MANAUS                                  69075020AM411520007501807501011004394   11102012800UNIBANCO S/A        0605201300000000001742393CC                                                                                                                                                                                                                                                                                                                                                                                                         000082
1007421064540COBR_CAUC_COR  SUPERSONIC LOGISTICA E TRANSPORTES      007130025000582DIGIBRAS IND DO BRASIL                  RUA ACAI DISTRITUO INDUSTRIAL,0         MANAUS                                  69075020AM4115200076018075190050002544  16082012800UNIBANCO S/A        0605201300000000001695474CC                                                                                                                                                                                                                                                                                                                                                                                                         000083
1007421064540COBR_CAUC_COR  SUPERSONIC LOGISTICA E TRANSPORTES      007130025000582DIGIBRAS IND DO BRASIL                  RUA ACAI DISTRITUO INDUSTRIAL,0         MANAUS                                  69075020AM4115200077018075270050003042  14012013800UNIBANCO S/A        1605201300000000001602379CC                                                                                                                                                                                                                                                                                                                                                                                                         000084
1007421064540COBR_CAUC_COR  SUPERSONIC LOGISTICA E TRANSPORTES      007130025000582DIGIBRAS IND DO BRASIL                  RUA ACAI DISTRITUO INDUSTRIAL,0         MANAUS                                  69075020AM4115200078018075350110000319  14012013800UNIBANCO S/A        1605201300000000001568413CC                                                                                                                                                                                                                                                                                                                                                                                                         000085
1007421064540COBR_CAUC_COR  SUPERSONIC LOGISTICA E TRANSPORTES      007130025000582DIGIBRAS IND DO BRASIL                  RUA ACAI DISTRITUO INDUSTRIAL,0         MANAUS                                  69075020AM411520007901807543011005596   04022013800UNIBANCO S/A        0605201300000000001542029CC                                                                                                                                                                                                                                                                                                                                                                                                         000086
1007421064540COBR_CAUC_COR  SUPERSONIC LOGISTICA E TRANSPORTES      007130025000582DIGIBRAS IND DO BRASIL                  RUA ACAI DISTRITUO INDUSTRIAL,0         MANAUS                                  69075020AM411520008001807551011005452   08012013800UNIBANCO S/A        1605201300000000001388271CC                                                                                                                                                                                                                                                                                                                                                                                                         000087
1007421064540COBR_CAUC_COR  SUPERSONIC LOGISTICA E TRANSPORTES      007130025000582DIGIBRAS IND DO BRASIL                  RUA ACAI DISTRITUO INDUSTRIAL,0         MANAUS                                  69075020AM4115200081018075600050003019  08012013800UNIBANCO S/A        0605201300000000001002647CC                                                                                                                                                                                                                                                                                                                                                                                                         000088
1007421064540COBR_CAUC_COR  SUPERSONIC LOGISTICA E TRANSPORTES      007130025000582DIGIBRAS IND DO BRASIL                  RUA ACAI DISTRITUO INDUSTRIAL,0         MANAUS                                  69075020AM411520008201807845011005287   05122012800UNIBANCO S/A        0605201300000000001120176CC                                                                                                                                                                                                                                                                                                                                                                                                         000089
1007421064540COBR_CAUC_COR  SUPERSONIC LOGISTICA E TRANSPORTES      007130025000582DIGIBRAS IND DO BRASIL                  RUA ACAI DISTRITUO INDUSTRIAL,0         MANAUS                                  69075020AM4115200083018075860050003050  21012013800UNIBANCO S/A        1605201300000000000927637CC                                                                                                                                                                                                                                                                                                                                                                                                         000090
1007421064540COBR_CAUC_COR  SUPERSONIC LOGISTICA E TRANSPORTES      007130025000582DIGIBRAS IND DO BRASIL                  RUA ACAI DISTRITUO INDUSTRIAL,0         MANAUS                                  69075020AM411520008401807594011005477   14012013800UNIBANCO S/A        0605201300000000000868814CC                                                                                                                                                                                                                                                                                                                                                                                                         000091
1007421064540COBR_CAUC_COR  SUPERSONIC LOGISTICA E TRANSPORTES      007130025000582DIGIBRAS IND DO BRASIL                  RUA ACAI DISTRITUO INDUSTRIAL,0         MANAUS                                  69075020AM411520008501807608011005527   23012013800UNIBANCO S/A        1605201300000000001783899CC                                                                                                                                                                                                                                                                                                                                                                                                         000092
1007421064540COBR_CAUC_COR  SUPERSONIC LOGISTICA E TRANSPORTES      007130025000582DIGIBRAS IND DO BRASIL                  RUA ACAI DISTRITUO INDUSTRIAL,0         MANAUS                                  69075020AM411520008601807616011005533   01022013800UNIBANCO S/A        0605201300000000000814814CC                                                                                                                                                                                                                                                                                                                                                                                                         000093
1007421064540COBR_CAUC_COR  SUPERSONIC LOGISTICA E TRANSPORTES      007130025000582DIGIBRAS IND DO BRASIL                  RUA ACAI DISTRITUO INDUSTRIAL,0         MANAUS                                  69075020AM4115200087018076240050003075  01022013800UNIBANCO S/A        1605201300000000000812177CC                                                                                                                                                                                                                                                                                                                                                                                                         000094
1007421064540COBR_CAUC_COR  SUPERSONIC LOGISTICA E TRANSPORTES      007130025000582DIGIBRAS IND DO BRASIL                  RUA ACAI DISTRITUO INDUSTRIAL,0         MANAUS                                  69075020AM411520008801807632011004486   03122012800UNIBANCO S/A        0605201300000000000803031CC                                                                                                                                                                                                                                                                                                                                                                                                         000095
1007421064540COBR_CAUC_COR  SUPERSONIC LOGISTICA E TRANSPORTES      007130025000582DIGIBRAS IND DO BRASIL                  RUA ACAI DISTRITUO INDUSTRIAL,0         MANAUS                                  69075020AM411520008901807641011004476   23112012800UNIBANCO S/A        1105201300000000000785001CC                                                                                                                                                                                                                                                                                                                                                                                                         000096
1007421064540COBR_CAUC_COR  SUPERSONIC LOGISTICA E TRANSPORTES      007130025000582DIGIBRAS IND DO BRASIL                  RUA ACAI DISTRITUO INDUSTRIAL,0         MANAUS                                  69075020AM411520009001807659011004519   05122012800UNIBANCO S/A        0605201300000000000767704CC                                                                                                                                                                                                                                                                                                                                                                                                         000097
1007421064540COBR_CAUC_COR  SUPERSONIC LOGISTICA E TRANSPORTES      007130025000582DIGIBRAS IND DO BRASIL                  RUA ACAI DISTRITUO INDUSTRIAL,0         MANAUS                                  69075020AM411520009101807667011004589   19122012800UNIBANCO S/A        0605201300000000000710910CC                                                                                                                                                                                                                                                                                                                                                                                                         000098
1007421064540COBR_CAUC_COR  SUPERSONIC LOGISTICA E TRANSPORTES      007130025000582DIGIBRAS IND DO BRASIL                  RUA ACAI DISTRITUO INDUSTRIAL,0         MANAUS                                  69075020AM4115200092018076750050003002  03012013800UNIBANCO S/A        0605201300000000000688108CC                                                                                                                                                                                                                                                                                                                                                                                                         000099
1007421064540COBR_CAUC_COR  SUPERSONIC LOGISTICA E TRANSPORTES      007130025000582DIGIBRAS IND DO BRASIL                  RUA ACAI DISTRITUO INDUSTRIAL,0         MANAUS                                  69075020AM411520009301807683011004446   30102012800UNIBANCO S/A        0605201300000000000687746CC                                                                                                                                                                                                                                                                                                                                                                                                         000100
1007421064540COBR_CAUC_COR  SUPERSONIC LOGISTICA E TRANSPORTES      007130025000582DIGIBRAS IND DO BRASIL                  RUA ACAI DISTRITUO INDUSTRIAL,0         MANAUS                                  69075020AM411520009401807691011005703   06032013800UNIBANCO S/A        0605201300000000001047995CC                                                                                                                                                                                                                                                                                                                                                                                                         000101
1007421064540COBR_CAUC_COR  SUPERSONIC LOGISTICA E TRANSPORTES      007130025000582DIGIBRAS IND DO BRASIL                  RUA ACAI DISTRITUO INDUSTRIAL,0         MANAUS                                  69075020AM411520009501807705011004207   30072012800UNIBANCO S/A        0605201300000000001077954CC                                                                                                                                                                                                                                                                                                                                                                                                         000102
1007421064540COBR_CAUC_COR  SUPERSONIC LOGISTICA E TRANSPORTES      007130025000582DIGIBRAS IND DO BRASIL                  RUA ACAI DISTRITUO INDUSTRIAL,0         MANAUS                                  69075020AM411520009601807713011004207   30072012800UNIBANCO S/A        0605201300000000001077954CC                                                                                                                                                                                                                                                                                                                                                                                                         000103
1007421064540COBR_CAUC_COR  SUPERSONIC LOGISTICA E TRANSPORTES      007130025000582DIGIBRAS IND DO BRASIL                  RUA ACAI DISTRITUO INDUSTRIAL,0         MANAUS                                  69075020AM4115200097018077210050003071  30012013800UNIBANCO S/A        1605201300000000001358739CC                                                                                                                                                                                                                                                                                                                                                                                                         000104
1007421064540COBR_CAUC_COR  SUPERSONIC LOGISTICA E TRANSPORTES      007130025000582DIGIBRAS IND DO BRASIL                  RUA ACAI DISTRITUO INDUSTRIAL,0         MANAUS                                  69075020AM4115200098018077300110000326  17012013800UNIBANCO S/A        1605201300000000001356875CC                                                                                                                                                                                                                                                                                                                                                                                                         000105
1007421064540COBR_CAUC_COR  SUPERSONIC LOGISTICA E TRANSPORTES      007130025000582DIGIBRAS IND DO BRASIL                  RUA ACAI DISTRITUO INDUSTRIAL,0         MANAUS                                  69075020AM4115200099018077480050003060  23012013800UNIBANCO S/A        1605201300000000001335422CC                                                                                                                                                                                                                                                                                                                                                                                                         000106
1007421064540COBR_CAUC_COR  SUPERSONIC LOGISTICA E TRANSPORTES      007130025000582DIGIBRAS IND DO BRASIL                  RUA ACAI DISTRITUO INDUSTRIAL,0         MANAUS                                  69075020AM411520010001807756011005578   06022013800UNIBANCO S/A        0605201300000000001318726CC                                                                                                                                                                                                                                                                                                                                                                                                         000107
1007421064540COBR_CAUC_COR  SUPERSONIC LOGISTICA E TRANSPORTES      007130025000582DIGIBRAS IND DO BRASIL                  RUA ACAI DISTRITUO INDUSTRIAL,0         MANAUS                                  69075020AM4115200101018077640110000298  08012013800UNIBANCO S/A        0605201300000000001311503CC                                                                                                                                                                                                                                                                                                                                                                                                         000108
1007421064540COBR_CAUC_COR  SUPERSONIC LOGISTICA E TRANSPORTES      007130025000582DIGIBRAS IND DO BRASIL                  RUA ACAI DISTRITUO INDUSTRIAL,0         MANAUS                                  69075020AM4115200102018077720050003063  24012013800UNIBANCO S/A        0605201300000000001303660CC                                                                                                                                                                                                                                                                                                                                                                                                         000109
1007421064540COBR_CAUC_COR  SUPERSONIC LOGISTICA E TRANSPORTES      007130025000582DIGIBRAS IND DO BRASIL                  RUA ACAI DISTRITUO INDUSTRIAL,0         MANAUS                                  69075020AM4115200103018077810050003045  17012013800UNIBANCO S/A        0605201300000000001292069CC                                                                                                                                                                                                                                                                                                                                                                                                         000110
1007421064540COBR_CAUC_COR  SUPERSONIC LOGISTICA E TRANSPORTES      007130025000582DIGIBRAS IND DO BRASIL                  RUA ACAI DISTRITUO INDUSTRIAL,0         MANAUS                                  69075020AM4115200104018077990050003065  29012013800UNIBANCO S/A        1605201300000000001283671CC                                                                                                                                                                                                                                                                                                                                                                                                         000111
1007421064540COBR_CAUC_COR  SUPERSONIC LOGISTICA E TRANSPORTES      007130025000582DIGIBRAS IND DO BRASIL                  RUA ACAI DISTRITUO INDUSTRIAL,0         MANAUS                                  69075020AM411520010501807802011004310   12092012800UNIBANCO S/A        0605201300000000001358813CC                                                                                                                                                                                                                                                                                                                                                                                                         000112
1007421064540COBR_CAUC_COR  SUPERSONIC LOGISTICA E TRANSPORTES      007130025000582DIGIBRAS IND DO BRASIL                  RUA ACAI DISTRITUO INDUSTRIAL,0         MANAUS                                  69075020AM411520010601807811011004558   12122012800UNIBANCO S/A        0605201300000000001037322CC                                                                                                                                                                                                                                                                                                                                                                                                         000113
1007421064540COBR_CAUC_COR  SUPERSONIC LOGISTICA E TRANSPORTES      007130025000582DIGIBRAS IND DO BRASIL                  RUA ACAI DISTRITUO INDUSTRIAL,0         MANAUS                                  69075020AM411520010701807829011005286   05122012800UNIBANCO S/A        0605201300000000001256092CC                                                                                                                                                                                                                                                                                                                                                                                                         000114
1007421064540COBR_CAUC_COR  SUPERSONIC LOGISTICA E TRANSPORTES      007130025000582DIGIBRAS IND DO BRASIL                  RUA ACAI DISTRITUO INDUSTRIAL,0         MANAUS                                  69075020AM411520010801807837011004444   30102012800UNIBANCO S/A        0605201300000000001182990CC                                                                                                                                                                                                                                                                                                                                                                                                         000115
1007421064540COBR_CAUC_COR  SUPERSONIC LOGISTICA E TRANSPORTES      007130025000582DIGIBRAS IND DO BRASIL                  RUA ACAI DISTRITUO INDUSTRIAL,0         MANAUS                                  69075020AM4115200109018078530110000328  18012013800UNIBANCO S/A        0605201300000000001104170CC                                                                                                                                                                                                                                                                                                                                                                                                         000116
1007421064540COBR_CAUC_COR  SUPERSONIC LOGISTICA E TRANSPORTES      007130025000582DIGIBRAS IND DO BRASIL                  RUA ACAI DISTRITUO INDUSTRIAL,0         MANAUS                                  69075020AM411520011001807861011005535   04022013800UNIBANCO S/A        0605201300000000001081248CC                                                                                                                                                                                                                                                                                                                                                                                                         000117
1007421064540COBR_CAUC_COR  SUPERSONIC LOGISTICA E TRANSPORTES      007130025000582DIGIBRAS IND DO BRASIL                  RUA ACAI DISTRITUO INDUSTRIAL,0         MANAUS                                  69075020AM4115200111018078700110000275  12122012800UNIBANCO S/A        0605201300000000001077971CC                                                                                                                                                                                                                                                                                                                                                                                                         000118
1007421064540COBR_CAUC_COR  SUPERSONIC LOGISTICA E TRANSPORTES      007130025000582DIGIBRAS IND DO BRASIL                  RUA ACAI DISTRITUO INDUSTRIAL,0         MANAUS                                  69075020AM4115200112018078880050003002  03012013800UNIBANCO S/A        0605201300000000000688108CC                                                                                                                                                                                                                                                                                                                                                                                                         000119
1032421021185DIR_CREDIT     TRANSVILLE TRANSPORTES E SERV. LTDA     082640558000104KARSTEN S/A                             RUA JOHANN KARSTEN, 260                 BLUMENAU                                89074700SC4115000001                                                                                                                                          012190574           150720100000017592            28032013000404Prestação de serviços de Transporte e Outras Avenças, dentro das neces-sidades da CONTRATANTE, sem caráter de exclusividade, para coleta, transferência e entrega de PRODUTOS de sua fabricação ou comercialização.                             082604042000104              000120
1014421001213DIR_CREDIT     UNIAO G CLUBES FUTEBOL BRASILEIRO       000811990000148GLOBOSAT PROGRAMADORA LTDA              AV DAS AMERICAS, 1650 BARRA DA TIJUCA   RIO DE JANEIRO                          22640101RJ4113900001                                                                                                                                          441001353           200220030000000713S/N/C       21062011000101cessão de direitos de captação, fixação, exibição e transmissão em     televisão via sistema PAY-PER-VIEW do Campeonato Brasileiro de Futebol,        temporadas de 2006, 2007 e 2008, e outras avenças.                                        058102294000142              000121
1014421001213DIR_CREDIT     UNIAO G CLUBES FUTEBOL BRASILEIRO       000811990000148GLOBOSAT PROGRAMADORA LTDA              AV DAS AMERICAS, 1650 BARRA DA TIJUCA   RIO DE JANEIRO                          22640101RJ4114200001                                                                                                                                          011527610           200220030000000713S/N/C       27032013000407cessão de direitos de captação, fixação, exibição e transmissão em     televisão via sistema PAY-PER-VIEW do Campeonato Brasileiro de Futebol,        temporadas de 2006, 2007 e 2008, e outras avenças.                                        058102294000142              000122
1014421001213DIR_CREDIT     UNIAO G CLUBES FUTEBOL BRASILEIRO       000811990000148GLOBOSAT PROGRAMADORA LTDA              AV DAS AMERICAS, 1650 BARRA DA TIJUCA   RIO DE JANEIRO                          22640101RJ4114100001                                                                                                                                          011527600           200220030000000713S/N/C       27032013000407cessão de direitos de captação, fixação, exibição e transmissão em     televisão via sistema PAY-PER-VIEW do Campeonato Brasileiro de Futebol,        temporadas de 2006, 2007 e 2008, e outras avenças.                                        058102294000142              000123
1014421001213DIR_CREDIT     UNIAO G CLUBES FUTEBOL BRASILEIRO       000811990000148GLOBOSAT PROGRAMADORA LTDA              AV DAS AMERICAS, 1650 BARRA DA TIJUCA   RIO DE JANEIRO                          22640101RJ4114000001                                                                                                                                          011527590           200220030000000713S/N/C       27032013000407cessão de direitos de captação, fixação, exibição e transmissão em     televisão via sistema PAY-PER-VIEW do Campeonato Brasileiro de Futebol,        temporadas de 2006, 2007 e 2008, e outras avenças.                                        058102294000142              000124
9000012                                                                                                                                                                                                                                                                                                                                                                                                                                                                                                                                                                                                                                                                                                               000125
