0REMESSANOTIFICACAO ELETRONICA        99999999999999BICBANCO                                AV. PAULISTA                            1048      12.ANDAR  BELA VISTA                    SAO PAULO                     01310100SP1121739360CORTINHAL                               COORDENADOR                             29112011                                                                                                                                                                                                                                                                                                                                                                                      000001
1038421013459COBR_CAUC_COR  GENERAL BRANDS DO BR I C P A LTDA       007721579000201DIPALMA COM DIST E LOGIST PROD ALI      ROD BR 262 - 4603 - SAIDA P/ TRES LAGOASCAMPO GRANDE                            79040670MS321970000109481076001062862   28102011900BRADESCO S/A        3101201200000000010490760CC                                                                                                                                                                                                                                                                                                                                                                                                         000002
1038421011812COBR_CAUC_BIC  ENERGY COML IMPORT E EXPORT LTDA        009363567000105PREMIX BRASIL RESINAS                   ALAMEDA ARAGU,2044-CJ703A705TORRE2      SAO PAULO                               06455000SP3219800001094810686809        24112011007PAULISTA            0801201200000000092512239CC                                                                                                                                                                                                                                                                                                                                                                                                         000003
1007421032516COBR_CAUC_BIC  NITRIFLEX SP IND E COM DE BORRACHAS     051938702000151AGEL-ANEIS GAXETAS EQUIPAMENTOS LT      AV PIRAMBOIA, 1580                      BARUERI                                 06465060SP321990000100940053000790901   28112011007PAULISTA            1212201100000000010583104CC                                                                                                                                                                                                                                                                                                                                                                                                         000004
1013141016637COBR_CAUC_BIC  SIDBRAS PRODUTOS SIDERURGICOS LTDA      004290793000181GROW EMPREENDIMENTOS LTDA               AV BARRAO DO R BRANCO,186 EDF           ARACAJU                                 49018900SE3220000001041126793142 A      25112011045ARACAJU             1502201200000000010913820TD                                                                                                                                                                                                                                                                                                                                                                                                         000005
1013141016637COBR_CAUC_BIC  SIDBRAS PRODUTOS SIDERURGICOS LTDA      004290793000181GROW EMPREENDIMENTOS LTDA               AV BARRAO DO R BRANCO,186 EDF           ARACAJU                                 49018900SE3220000002041126873142 B      25112011045ARACAJU             1503201200000000010913820TD                                                                                                                                                                                                                                                                                                                                                                                                         000006
9000004                                                                                                                                                                                                                                                                                                                                                                                                                                                                                                                                                                                                                                                                                                               000007
