0REMESSANOTIFICACAO ELETRONICA        99999999999999BICBANCO                                AV. PAULISTA                            1048      12.ANDAR  BELA VISTA                    SAO PAULO                     01310100SP1121739360CORTINHAL                               COORDENADOR                             23072014                                                                                                                                                                                                                                                                                                                                                                                      000001
1048421000338COBR_CAUC_COR  FRIGOESTRELA S.A. EM RECUP JUDICIAL     060494416001530PAGUE MENOS COM.DE PROD.ALIMENTCIO      RUA ANCHIETA GALPAO No1599 GALPAO       NOVA ODESSA                             13460000SP4855400001084487350114663001  21072014900BRADESCO S/A        1808201400000000012133927CC                                                                                                                                                                                                                                                                                                                                                                                                         000002
1031421011181COBR_CAUC_BIC  AGROIND IRMAOS DALLA COSTA LTDA         033304981000110SUPERMERCADOS MUNDIAL LTDA              R DONA EMILIA ENT AV ITAOCA        02532RIO DE JANEIRO                          20765110RJ48555000010542299867/1        21072014014RIO DE JANEIRO      1808201400000000014280000CC                                                                                                                                                                                                                                                                                                                                                                                                         000003
1008421022487COBR_CAUC_COR  EBP - EMPRESA BRASILEIRA DE PESCADO     009060964005916PIMENTA VERDE ALIMENTOS LTDA            RUA AGOSTINO TOGNERI N421 PARTE B       SAO PAULO                               04690090SP4855600001017810240027699/    19072014900BRADESCO S/A        1708201400000000010696384CC                                                                                                                                                                                                                                                                                                                                                                                                         000004
1008421022487COBR_CAUC_COR  EBP - EMPRESA BRASILEIRA DE PESCADO     033381286000151SUPER MERCADO ZONA SUL S/A              RUA COMANDANTE VERGUEIRO DA CRUZ, 226   RIO DE JANEIRO                          21021020RJ4855700001017809400027691/    18072014900BRADESCO S/A        2108201400000000010275000CC                                                                                                                                                                                                                                                                                                                                                                                                         000005
1046421007816DIR_CREDIT     MELQUIOR SCHLICKMANN                    000041573951900MILTON SCHLICKMANN                      AV ALMIRANTE TAMANDARÉ 808              TAMBAÚ                                  58039010PB4856700001                                                                                                                                          012626934           01012010000002277142200331234 22072014000403transferência, mediante cessão onerosa (venda à prazo) integral de     quotas de Capital da SBDE - Sociedade Brasileira de Embalagens e Descartáveis  Ltda                                                                                      665321759000000              000006
1023421001967DIR_CREDIT     SIND DOS ESTIV STOS S V GJA CUBATAO     000945425000173ORGAO DE GESTAO DE MAO DE OBRA - OGMO   AV. CONSELHEIRO NéBIAS, 255             SANTOS                                  11015003SP4856800001                                                                                                                                          012621037           270220080000005031            22072014000403Repasse de contribuição sindical dos estivadores.                                                                                                                                                                                               058200700000100              000007
1023421001967DIR_CREDIT     SIND DOS ESTIV STOS S V GJA CUBATAO     000945425000173ORGAO DE GESTAO DE MAO DE OBRA - OGMO   AV CONSELHEIRO NEBIAS 255               SANTOS                                  11015003SP4856900001                                                                                                                                          012621037           200920110000019727            22072014000403Repasse da mensalidade sindical dos trabalhadores utilizados pelo      Contratante, denominado cartão de câmbio.                                                                                                                                058200700000100              000008
1023421001967DIR_CREDIT     SIND DOS ESTIV STOS S V GJA CUBATAO     001505291000132SM OPERADORA PORTUARIA LTDA             RUA 28 DE SETEMBRO Nº130                SANTOS                                  11015110SP4857000001                                                                                                                                          012621037           010320110000020899            22072014000403Repasse mensal de 2%, sobre a remuneração mensal,paga aos trabalhadoresutilizados pela Empresa, para formação do Fundo de Programas Sociais,nos termosdo Acordo Coletivo firmado pelas partes.                                                  058200700000100              000009
1046421006070DIR_CREDIT     METALURGICA DS LTDA                     060857349000176TRW AUTOMOTIVE LTDA                     VIA ANHANGUERA KM 147                   LIMEIRA                                 13486915SP4857100001                                                                                                                                          012635224           260320070000018698            21072014000404fornecimento de discos e tambores de freio para automóveis.                                                                                                                                                                                     079414868000198              000010
1046421007808DIR_CREDIT     SOULPACK SA                             000025234650944MARIO SCHLICKMANN                       AV MONS FREDERICO TOMBROCK 99           SãO LUDGERO                             88730000SC4857300001                                                                                                                                          012626829           01012010000002276742200331234 22072014000403transferência, mediante cessão onerosa (venda à prazo) integral das    quotas de capital da SBDE - Sociedade Brasileira de Embalagens e Descartáveis  Ltda.                                                                                     415765519000020              000011
1046421007816DIR_CREDIT     SOULPACK SA                             000043591400700MARCELO SCHLICKMANN                     RUA FELIPE SCHLICKMANN 55               SÃO LUDGERO                             88730000SC4857400001                                                                                                                                          012626934           01102010000002277242200331234 22072014000403transferência, mediante cessão onerosa (venda à prazo) integral da     quotas de Capital da SBDE - Sociedade Brasileira de Embalagens e Descartáveis  Ltda.                                                                                     665321759000000              000012
1046421007794DIR_CREDIT     SOULPACK SA                             000041573951900MILTON SCHLICKMANN                      AV TAMANDARÉ 808                        TAMBAÚ                                  58039010PB4857500001                                                                                                                                          012626870           01102010000002277342200331234 22072014000403transferência, mediante cessão onerosa (venda à prazo) integral das    quotas de Capital da SBDE - Sociedade Brasileira de Embalagens e Descartáveis  Ltda                                                                                      665322569000000              000013
9000012                                                                                                                                                                                                                                                                                                                                                                                                                                                                                                                                                                                                                                                                                                               000014
