0REMESSANOTIFICACAO ELETRONICA        99999999999999BICBANCO                                AV. PAULISTA                            1048      12.ANDAR  BELA VISTA                    SAO PAULO                     01310100SP1121739360CORTINHAL                               COORDENADOR                             20052011                                                                                                                                                                                                                                                                                                                                                                                      000001
1028421004525DIR_CREDIT     MARCELO BALERINI DE CARVALHO            001121175000110CICOPAL                                 AV TROPICAL, SN MOD2 SETOR IND BRASIL CESENADOR CANEDO                          38400000GO2771900001                                                                                                                                          011425350           311220090000013778            12052011000403fornecimento de batatas.                                                                                                                                                                                                                        063883198000090              000002
1029141009096COBR_CAUC_BIC  CPS BRAZIL TOBACCO IMP E EXP LTDA       009237378000188CTS EXPORTADORA DE FUMOS LTDA           RUA CLAUDIO MANOEL,306                  VERA CRUZ                               96880000RS27785000010947522110959A      02032010015PORTO ALEGRE        2906201100000000010620000TD                                                                                                                                                                                                                                                                                                                                                                                                         000003
1007421035264COBR_CAUC_BIC  ALLIED ADVANCED TECHNOLOGIES LTDA       001534080009770NOVO MUNDO MOVEIS E UTILIDADES LTD      ALAMEDA DOS FLAMBOYANTS, 101 - QD QC 3 -GOIANIA                                 74681230GO277860000100566160000045922A  25032011018GOIANIA             0707201100000000012215000CC                                                                                                                                                                                                                                                                                                                                                                                                         000004
1032421002555COBR_CAUC_BIC  ZZA SECURITIZADORA S.A.                 059760553000195TEXTIL SAO JOAO LTDA                    ROD SP 342 KM 231                       SAO JOAO DA BOA                         13874243SP2778700001093761524594/1      16052011021CAMPINAS            2006201100000000011187595CC                                                                                                                                                                                                                                                                                                                                                                                                         000005
9000004                                                                                                                                                                                                                                                                                                                                                                                                                                                                                                                                                                                                                                                                                                               000006
