0REMESSANOTIFICACAO ELETRONICA        99999999999999BICBANCO                                AV. PAULISTA                            1048      12.ANDAR  BELA VISTA                    SAO PAULO                     01310100SP1121739360CORTINHAL                               COORDENADOR                             09042013                                                                                                                                                                                                                                                                                                                                                                                      000001
1031421007850COBR_CAUC_BIC  AGRICOLA JANDELLE S/A                   010265737000190MAXIMO S ALIMENTOS LTDA                 RUA SOTERO DOS REIS 31                  RIO DE JANEIRO                          20270200RJ4130200001052107450022413101  08042013014RIO DE JANEIRO      0805201300000000014124000CC                                                                                                                                                                                                                                                                                                                                                                                                         000002
1029141008057COBR_CAUC_BIC  COMERCIAL DE TABACOS MICHELON LTDA      012046599000183VIRGINIA DO BRASIL TABACOS LTDA         RUA ALAMEDA DAS HORTENCIAS,525          SANTA CRUZ DO S                         96810972RS41303000010992728821274/531J  01042013015PORTO ALEGRE        2407201300000000011000000TD                                                                                                                                                                                                                                                                                                                                                                                                         000003
1029141008057COBR_CAUC_BIC  COMERCIAL DE TABACOS MICHELON LTDA      012046599000183VIRGINIA DO BRASIL TABACOS LTDA         RUA ALAMEDA DAS HORTENCIAS,525          SANTA CRUZ DO S                         96810972RS41303000020992729621379/532A  05042013015PORTO ALEGRE        0308201300000000042768000TD                                                                                                                                                                                                                                                                                                                                                                                                         000004
1006441006860COBR_CAUC_BIC  MONT GRANITOS S/A                       000475251000122PAULO OCTAVIO INVESTIMENTOS IMOBIL      SCN QD 1,125                            BRASILIA                                70711900DF4130100001094628283246        08042013009BRASILIA            0605201300000000010475782CC                                                                                                                                                                                                                                                                                                                                                                                                         000005
9000003                                                                                                                                                                                                                                                                                                                                                                                                                                                                                                                                                                                                                                                                                                               000006
