0REMESSANOTIFICACAO ELETRONICA        99999999999999BICBANCO                                AV. PAULISTA                            1048      12.ANDAR  BELA VISTA                    SAO PAULO                     01310100SP1121739360CORTINHAL                               COORDENADOR                             23102013                                                                                                                                                                                                                                                                                                                                                                                      000001
1021420930887COBR_CAUC_COR  DEDINI S/A INDUSTRIAS DE BASE           077264224000135USINA DE ACUCAR E ALCOOL GOIOERE L      ROD. PR 180, KM 174 ZONA RURAL BR       MOREIRA SALES                           87370000PR449210000106459940231138-7-7  08102013900BRADESCO S/A        2012201300000000017249186CC                                                                                                                                                                                                                                                                                                                                                                                                         000002
1046421000617COBR_CAUC_COR  INPLAC INDUSTRIA DE PLASTICOS S/A       002314366000403ORICA SERVICOS DE MINERACAO LTDA        AV.MANTIQUEIRA,317 - BAIRRO VIA CRISTINALORENA                                  12611030SP449200000102157997001192727   18102013800UNIBANCO S/A        0212201300000000013716395CC                                                                                                                                                                                                                                                                                                                                                                                                         000003
1007421074430COBR_CAUC_BIC  POLO INDUSTRIA E COMERCIO S/A           004732138000136TIV PLASTICOS LTDA                      RUA ALVARES CABRAL, 651                 DIADEMA                                 09981030SP4491800001023648310003307     30092013007PAULISTA            2801201400000000015930205CC                                                                                                                                                                                                                                                                                                                                                                                                         000004
1007421074430COBR_CAUC_BIC  POLO INDUSTRIA E COMERCIO S/A           004732138000136TIV PLASTICOS LTDA                      RUA ALVARES CABRAL, 651                 DIADEMA                                 09981030SP4491800002023648820003314     30092013007PAULISTA            2801201400000000012903737CC                                                                                                                                                                                                                                                                                                                                                                                                         000005
1007421074430COBR_CAUC_BIC  POLO INDUSTRIA E COMERCIO S/A           004732138000136TIV PLASTICOS LTDA                      RUA ALVARES CABRAL, 651                 DIADEMA                                 09981030SP4491800003023649630003383     07102013007PAULISTA            1501201400000000011411168CC                                                                                                                                                                                                                                                                                                                                                                                                         000006
1007421074430COBR_CAUC_BIC  POLO INDUSTRIA E COMERCIO S/A           004732138000136TIV PLASTICOS LTDA                      RUA ALVARES CABRAL, 651                 DIADEMA                                 09981030SP4491800004023649710003366 01  04102013007PAULISTA            1301201400000000021649631CC                                                                                                                                                                                                                                                                                                                                                                                                         000007
1007421074430COBR_CAUC_BIC  POLO INDUSTRIA E COMERCIO S/A           066792490000114LIMER-CART IND E COM DE EMBALA          ROD LIMEIRA MOGI MIRIM SP 147S/N, KM 103LIMEIRA                                 13486466SP4491900001023646020002894     31082013021CAMPINAS            1912201300000000017031918CC                                                                                                                                                                                                                                                                                                                                                                                                         000008
1007421074430COBR_CAUC_BIC  POLO INDUSTRIA E COMERCIO S/A           066792490000114LIMER-CART IND E COM DE EMBALA          ROD LIMEIRA MOGI MIRIM SP 147S/N, KM 103LIMEIRA                                 13486466SP4491900002023646880003035     13092013021CAMPINAS            1212201300000000013595962CC                                                                                                                                                                                                                                                                                                                                                                                                         000009
1007421074430COBR_CAUC_BIC  POLO INDUSTRIA E COMERCIO S/A           066792490000114LIMER-CART IND E COM DE EMBALA          ROD LIMEIRA MOGI MIRIM SP 147S/N, KM 103LIMEIRA                                 13486466SP4491900003023647000003172     24092013021CAMPINAS            2312201300000000013104587CC                                                                                                                                                                                                                                                                                                                                                                                                         000010
1007421074430COBR_CAUC_BIC  POLO INDUSTRIA E COMERCIO S/A           066792490000114LIMER-CART IND E COM DE EMBALA          ROD LIMEIRA MOGI MIRIM SP 147S/N, KM 103LIMEIRA                                 13486466SP4491900004023647180003182     24092013021CAMPINAS            2312201300000000021004444CC                                                                                                                                                                                                                                                                                                                                                                                                         000011
1007421074430COBR_CAUC_BIC  POLO INDUSTRIA E COMERCIO S/A           066792490000114LIMER-CART IND E COM DE EMBALA          ROD LIMEIRA MOGI MIRIM SP 147S/N, KM 103LIMEIRA                                 13486466SP4491900005023647260003184     24092013021CAMPINAS            2312201300000000019425904CC                                                                                                                                                                                                                                                                                                                                                                                                         000012
1007421074430COBR_CAUC_BIC  POLO INDUSTRIA E COMERCIO S/A           066792490000114LIMER-CART IND E COM DE EMBALA          ROD LIMEIRA MOGI MIRIM SP 147S/N, KM 103LIMEIRA                                 13486466SP4491900006023647340003158     24092013021CAMPINAS            2312201300000000021310964CC                                                                                                                                                                                                                                                                                                                                                                                                         000013
1007421074430COBR_CAUC_BIC  POLO INDUSTRIA E COMERCIO S/A           066792490000114LIMER-CART IND E COM DE EMBALA          ROD LIMEIRA MOGI MIRIM SP 147S/N, KM 103LIMEIRA                                 13486466SP4491900007023647510003157     24092013021CAMPINAS            2312201300000000012388292CC                                                                                                                                                                                                                                                                                                                                                                                                         000014
1007421074430COBR_CAUC_BIC  POLO INDUSTRIA E COMERCIO S/A           066792490000114LIMER-CART IND E COM DE EMBALA          ROD LIMEIRA MOGI MIRIM SP 147S/N, KM 103LIMEIRA                                 13486466SP4491900008023648910003322     30092013021CAMPINAS            3012201300000000015030091CC                                                                                                                                                                                                                                                                                                                                                                                                         000015
1007421074430COBR_CAUC_BIC  POLO INDUSTRIA E COMERCIO S/A           066792490000114LIMER-CART IND E COM DE EMBALA          ROD LIMEIRA MOGI MIRIM SP 147S/N, KM 103LIMEIRA                                 13486466SP4491900009023649040007728     30092013021CAMPINAS            3012201300000000017702391CC                                                                                                                                                                                                                                                                                                                                                                                                         000016
1007421074430COBR_CAUC_BIC  POLO INDUSTRIA E COMERCIO S/A           066792490000114LIMER-CART IND E COM DE EMBALA          ROD LIMEIRA MOGI MIRIM SP 147S/N, KM 103LIMEIRA                                 13486466SP4491900010023649210003321     30092013021CAMPINAS            3012201300000000018123612CC                                                                                                                                                                                                                                                                                                                                                                                                         000017
1046421006658COBR_CAUC_COR  TRANSPORTES DALCOQUIO LTDA              007322382000119BSBIOS IND. COM. BIO SUL BRASIL S/      BR 285 , KM 174-0-BAIRRO-DIST.IND.      PASSO FUNDO                             99050000RS4492200001000172761301053430  15102013900BRADESCO S/A        0511201300000000015441145CC                                                                                                                                                                                                                                                                                                                                                                                                         000018
9000005                                                                                                                                                                                                                                                                                                                                                                                                                                                                                                                                                                                                                                                                                                               000019
