0REMESSANOTIFICACAO ELETRONICA        99999999999999BICBANCO                                AV. PAULISTA                            1048      12.ANDAR  BELA VISTA                    SAO PAULO                     01310100SP1121739360CORTINHAL                               COORDENADOR                             30092011                                                                                                                                                                                                                                                                                                                                                                                      000001
1046421004809DIR_CREDIT     INDUSTRIAL PAGE LTDA                    087754941000107IRMAOS TREVISAN SA - IND COM AGRICULTURAAVENIDA BRASIL, 791                     RIO GRANDE DO SUL                       96503491RS3082600001                                                                                                                                          481006115           260720110000019379            22092011000404REFERENTE FORNECIMENTO DE SILOS P/ ARMAZENAMENTO DE GRAOS.                                                                                                                                                                                      082563321000169              000002
1045000000000DIR_CREDIT     JOSE ANGELO DE OLIVEIRA ME              015134695000171VALE POTASSIO NORDESTE S/A              LOC KM 24 D, ROD. BR 324, S/N           SIMOES FILHO                            43700000BA3083700001                                                                                                                                          481011820           1504201100000192427282        22092011000404Prestação de serviços de içamento de cargas a serem executados nas     instalações da Vale Potássio Nordeste no Município Rosário do Catete, SE.                                                                                                001998800000106              000003
1016421013250COBR_CAUC_COR  INSOL INTE.DO BRASIL IND E COM S/A      005553578000512ATLAS AGROINDUSTRIAL LTDA               AV JOAO NEVES VIEIRA,1071-SALA B        CATALAO                                 75706013GO3097800001031933212602/4      29092011800UNIBANCO S/A        2510201100000000020200000CC                                                                                                                                                                                                                                                                                                                                                                                                         000004
1016421013250COBR_CAUC_COR  INSOL INTE.DO BRASIL IND E COM S/A      005553578000512ATLAS AGROINDUSTRIAL LTDA               AV JOAO NEVES VIEIRA,1071-SALA B        CATALAO                                 75706013GO3097800002031933392602/5      29092011800UNIBANCO S/A        2610201100000000020200000CC                                                                                                                                                                                                                                                                                                                                                                                                         000005
1016421013250COBR_CAUC_COR  INSOL INTE.DO BRASIL IND E COM S/A      005553578000512ATLAS AGROINDUSTRIAL LTDA               AV JOAO NEVES VIEIRA,1071-SALA B        CATALAO                                 75706013GO3097800003031933472602/6      29092011800UNIBANCO S/A        2710201100000000020200000CC                                                                                                                                                                                                                                                                                                                                                                                                         000006
1016421013250COBR_CAUC_COR  INSOL INTE.DO BRASIL IND E COM S/A      005553578000512ATLAS AGROINDUSTRIAL LTDA               AV JOAO NEVES VIEIRA,1071-SALA B        CATALAO                                 75706013GO3097800004031933552602/6      29092011800UNIBANCO S/A        2810201100000000020200000CC                                                                                                                                                                                                                                                                                                                                                                                                         000007
1044421010977COBR_CAUC_BIC  FEDCO INDUSTRIA E COMERCIO LTDA         006626253012400EMPREENDIMENTOS PAGUE MENOS S/A         R. FRANCISCO CORDEIRO                   FORTALEZA                               60310490CE309790000101364071015156/1.1  27092011003CENTRO              0401201200000000017134574CC                                                                                                                                                                                                                                                                                                                                                                                                         000008
1021421015341COBR_CAUC_BIC  POLYDIST AMER LATINA C I E R PETR       009257039000163CAIUMA EMBALAGENS PLASTICAS LTDA        AV DR HUMBERTO GIANNELLA, ,622          BARUERI                                 06422130SP3098000001062018371028-01     27092011007PAULISTA            1511201100000000010221095CC                                                                                                                                                                                                                                                                                                                                                                                                         000009
1021421015341COBR_CAUC_BIC  POLYDIST AMER LATINA C I E R PETR       059264051000173TECTEXTIL EMBALAGENS TEXTEIS LTDA       RUA CAPITAO JOSE PINTO SIQUEI,1700      PIRACICABA                              13422150SP3098100001062018291030-01     27092011021CAMPINAS            0811201100000000010365374CC                                                                                                                                                                                                                                                                                                                                                                                                         000010
1018421017760COBR_CAUC_COR  RURAL RIO PRODUTOS AGRICOLAS LTDA       000021969752068JUARI BERTOLD                           RUA RIO VERDE,1150 Q-45 LT 6P           JATAI                                   75800093GO3102400001000014936927        27072011900BRADESCO S/A        2001201200000000037444000CC                                                                                                                                                                                                                                                                                                                                                                                                         000011
1032141016424DIR_CREDIT     DOUAT TEXTIL LTDA.                      001067479000146PM DE ANAPOLIS                          AV PRESIDENTE VARGAS, 465 VILA GOIAS    ANAPOLIS                                75115320GO3102500001                                                                                                                                          011440020           110220110000017619042/2011    16052011000404Aquisicão de kit escolar, Pregão eletrônico nº 095/2010, lote nº01, processo administrativo de nº000035993/2010.                                                                                                                                082610726000100              000012
1031421001119COBR_CAUC_COR  GET GLOBAL ENERGY AND TELECOMMUNICA     006906651000121R.DA SILVA EQUIPAMENTOS  ME             RUA FRANCISCO PIERMANN 170              JARAGUA DO SUL                          89252500SC310270000104898638G74470/1    12072011800UNIBANCO S/A        0911201100000000001083018CC                                                                                                                                                                                                                                                                                                                                                                                                         000013
1031421001119COBR_CAUC_COR  GET GLOBAL ENERGY AND TELECOMMUNICA     006906651000121R.DA SILVA EQUIPAMENTOS  ME             RUA FRANCISCO PIERMANN 170              JARAGUA DO SUL                          89252500SC310280000104898646G74471/1    13072011800UNIBANCO S/A        1011201100000000000883019CC                                                                                                                                                                                                                                                                                                                                                                                                         000014
1031421001119COBR_CAUC_COR  GET GLOBAL ENERGY AND TELECOMMUNICA     006906651000121R.DA SILVA EQUIPAMENTOS  ME             RUA FRANCISCO PIERMANN 170              JARAGUA DO SUL                          89252500SC310280000204903089G74562/1    22072011800UNIBANCO S/A        1411201100000000000506509CC                                                                                                                                                                                                                                                                                                                                                                                                         000015
1031421001119COBR_CAUC_COR  GET GLOBAL ENERGY AND TELECOMMUNICA     006906651000121R.DA SILVA EQUIPAMENTOS  ME             RUA FRANCISCO PIERMANN 170              JARAGUA DO SUL                          89252500SC310280000304903097G74562/2    22072011800UNIBANCO S/A        2111201100000000000506509CC                                                                                                                                                                                                                                                                                                                                                                                                         000016
1031421001119COBR_CAUC_COR  GET GLOBAL ENERGY AND TELECOMMUNICA     006906651000121R.DA SILVA EQUIPAMENTOS  ME             RUA FRANCISCO PIERMANN 170              JARAGUA DO SUL                          89252500SC310280000404903267G74583/1    26072011800UNIBANCO S/A        2311201100000000000992018CC                                                                                                                                                                                                                                                                                                                                                                                                         000017
1031421001119COBR_CAUC_COR  GET GLOBAL ENERGY AND TELECOMMUNICA     006906651000121R.DA SILVA EQUIPAMENTOS  ME             RUA FRANCISCO PIERMANN 170              JARAGUA DO SUL                          89252500SC310280000504903275G74584/1    22072011800UNIBANCO S/A        2110201100000000000606468CC                                                                                                                                                                                                                                                                                                                                                                                                         000018
1031421001119COBR_CAUC_COR  GET GLOBAL ENERGY AND TELECOMMUNICA     006906651000121R.DA SILVA EQUIPAMENTOS  ME             RUA FRANCISCO PIERMANN 170              JARAGUA DO SUL                          89252500SC310280000604903283G74584/2    22072011800UNIBANCO S/A        2111201100000000000606468CC                                                                                                                                                                                                                                                                                                                                                                                                         000019
1031421001119COBR_CAUC_COR  GET GLOBAL ENERGY AND TELECOMMUNICA     006906651000121R.DA SILVA EQUIPAMENTOS  ME             RUA FRANCISCO PIERMANN 170              JARAGUA DO SUL                          89252500SC310280000704904433G74621/1    29072011800UNIBANCO S/A        1710201100000000000505817CC                                                                                                                                                                                                                                                                                                                                                                                                         000020
1031421001119COBR_CAUC_COR  GET GLOBAL ENERGY AND TELECOMMUNICA     006906651000121R.DA SILVA EQUIPAMENTOS  ME             RUA FRANCISCO PIERMANN 170              JARAGUA DO SUL                          89252500SC310280000804904441G74621/2    29072011800UNIBANCO S/A        1611201100000000000505817CC                                                                                                                                                                                                                                                                                                                                                                                                         000021
1031421001119COBR_CAUC_COR  GET GLOBAL ENERGY AND TELECOMMUNICA     006906651000121R.DA SILVA EQUIPAMENTOS  ME             RUA FRANCISCO PIERMANN 170              JARAGUA DO SUL                          89252500SC310280000904904450G74622/1    28072011800UNIBANCO S/A        2110201100000000000755615CC                                                                                                                                                                                                                                                                                                                                                                                                         000022
1031421001119COBR_CAUC_COR  GET GLOBAL ENERGY AND TELECOMMUNICA     006906651000121R.DA SILVA EQUIPAMENTOS  ME             RUA FRANCISCO PIERMANN 170              JARAGUA DO SUL                          89252500SC310280001004904468G74622/2    28072011800UNIBANCO S/A        2411201100000000000755614CC                                                                                                                                                                                                                                                                                                                                                                                                         000023
1031421001119COBR_CAUC_COR  GET GLOBAL ENERGY AND TELECOMMUNICA     006906651000121R.DA SILVA EQUIPAMENTOS  ME             RUA FRANCISCO PIERMANN 170              JARAGUA DO SUL                          89252500SC310280001104905278G74659/1    02082011800UNIBANCO S/A        2311201100000000000609518CC                                                                                                                                                                                                                                                                                                                                                                                                         000024
1031421001119COBR_CAUC_COR  GET GLOBAL ENERGY AND TELECOMMUNICA     006906651000121R.DA SILVA EQUIPAMENTOS  ME             RUA FRANCISCO PIERMANN 170              JARAGUA DO SUL                          89252500SC310280001204905286G74659/2    02082011800UNIBANCO S/A        3011201100000000000609518CC                                                                                                                                                                                                                                                                                                                                                                                                         000025
1031421001119COBR_CAUC_COR  GET GLOBAL ENERGY AND TELECOMMUNICA     006906651000121R.DA SILVA EQUIPAMENTOS  ME             RUA FRANCISCO PIERMANN 170              JARAGUA DO SUL                          89252500SC310280001304907530G74724/1    09082011800UNIBANCO S/A        3011201100000000000649008CC                                                                                                                                                                                                                                                                                                                                                                                                         000026
1031421001119COBR_CAUC_COR  GET GLOBAL ENERGY AND TELECOMMUNICA     006906651000121R.DA SILVA EQUIPAMENTOS  ME             RUA FRANCISCO PIERMANN 170              JARAGUA DO SUL                          89252500SC310280001404907548G74724/2    09082011800UNIBANCO S/A        0712201100000000000649008CC                                                                                                                                                                                                                                                                                                                                                                                                         000027
1031421001119COBR_CAUC_COR  GET GLOBAL ENERGY AND TELECOMMUNICA     006906651000121R.DA SILVA EQUIPAMENTOS  ME             RUA FRANCISCO PIERMANN 170              JARAGUA DO SUL                          89252500SC310280001504927301G76218/1    23092011800UNIBANCO S/A        2001201200000000000983016CC                                                                                                                                                                                                                                                                                                                                                                                                         000028
1031421001119COBR_CAUC_COR  GET GLOBAL ENERGY AND TELECOMMUNICA     006906651000121R.DA SILVA EQUIPAMENTOS  ME             RUA FRANCISCO PIERMANN 170              JARAGUA DO SUL                          89252500SC310280001604927310G76219/1    23092011800UNIBANCO S/A        1301201200000000000749027CC                                                                                                                                                                                                                                                                                                                                                                                                         000029
1031421001119COBR_CAUC_COR  GET GLOBAL ENERGY AND TELECOMMUNICA     006906651000121R.DA SILVA EQUIPAMENTOS  ME             RUA FRANCISCO PIERMANN 170              JARAGUA DO SUL                          89252500SC310280001704927328G76219/2    23092011800UNIBANCO S/A        2001201200000000000749027CC                                                                                                                                                                                                                                                                                                                                                                                                         000030
1031421001119COBR_CAUC_COR  GET GLOBAL ENERGY AND TELECOMMUNICA     006906651000121R.DA SILVA EQUIPAMENTOS  ME             RUA FRANCISCO PIERMANN 170              JARAGUA DO SUL                          89252500SC310280001804927581G76226/1    26092011800UNIBANCO S/A        1801201200000000000705817CC                                                                                                                                                                                                                                                                                                                                                                                                         000031
1031421001119COBR_CAUC_COR  GET GLOBAL ENERGY AND TELECOMMUNICA     006906651000121R.DA SILVA EQUIPAMENTOS  ME             RUA FRANCISCO PIERMANN 170              JARAGUA DO SUL                          89252500SC310280001904927590G76226/2    26092011800UNIBANCO S/A        2401201200000000000705817CC                                                                                                                                                                                                                                                                                                                                                                                                         000032
1031421001119COBR_CAUC_COR  GET GLOBAL ENERGY AND TELECOMMUNICA     006906651000121R.DA SILVA EQUIPAMENTOS  ME             RUA FRANCISCO PIERMANN 170              JARAGUA DO SUL                          89252500SC310280002004929321G76239/1    28092011800UNIBANCO S/A        2501201200000000000721634CC                                                                                                                                                                                                                                                                                                                                                                                                         000033
1031421001119COBR_CAUC_COR  GET GLOBAL ENERGY AND TELECOMMUNICA     006906651000121R.DA SILVA EQUIPAMENTOS  ME             RUA FRANCISCO PIERMANN 170              JARAGUA DO SUL                          89252500SC310280002104929339G76240/1    28092011800UNIBANCO S/A        2501201200000000000921836CC                                                                                                                                                                                                                                                                                                                                                                                                         000034
1031421001119COBR_CAUC_COR  GET GLOBAL ENERGY AND TELECOMMUNICA     006906651000121R.DA SILVA EQUIPAMENTOS  ME             RUA FRANCISCO PIERMANN 170              JARAGUA DO SUL                          89252500SC310290000104898638G74470/1    12072011800UNIBANCO S/A        0911201100000000001083018CC                                                                                                                                                                                                                                                                                                                                                                                                         000035
1031421001119COBR_CAUC_BIC  GET GLOBAL ENERGY AND TELECOMMUNICA     008934694000146RCC DISTRIBUIDORA LTDA                  RUA SERRA DO MARACAJU, 505 A            LONDRINA                                86065400PR310300000104881271G74157/1    08062011031LONDRINA            0610201100000000001023044CC                                                                                                                                                                                                                                                                                                                                                                                                         000036
1031421001119COBR_CAUC_BIC  GET GLOBAL ENERGY AND TELECOMMUNICA     008934694000146RCC DISTRIBUIDORA LTDA                  RUA SERRA DO MARACAJU, 505 A            LONDRINA                                86065400PR310300000204881298G74158/2    08062011031LONDRINA            0710201100000000000632884CC                                                                                                                                                                                                                                                                                                                                                                                                         000037
1031421001119COBR_CAUC_BIC  GET GLOBAL ENERGY AND TELECOMMUNICA     008934694000146RCC DISTRIBUIDORA LTDA                  RUA SERRA DO MARACAJU, 505 A            LONDRINA                                86065400PR310300000304881310G74158/4    08062011031LONDRINA            0310201100000000000632884CC                                                                                                                                                                                                                                                                                                                                                                                                         000038
1031421001119COBR_CAUC_BIC  GET GLOBAL ENERGY AND TELECOMMUNICA     008934694000146RCC DISTRIBUIDORA LTDA                  RUA SERRA DO MARACAJU, 505 A            LONDRINA                                86065400PR310300000404881417G74187/2    09062011031LONDRINA            0710201100000000000765810CC                                                                                                                                                                                                                                                                                                                                                                                                         000039
1031421001119COBR_CAUC_BIC  GET GLOBAL ENERGY AND TELECOMMUNICA     008934694000146RCC DISTRIBUIDORA LTDA                  RUA SERRA DO MARACAJU, 505 A            LONDRINA                                86065400PR310300000504881425G74188/1    07062011031LONDRINA            0710201100000000000574011CC                                                                                                                                                                                                                                                                                                                                                                                                         000040
1031421001119COBR_CAUC_BIC  GET GLOBAL ENERGY AND TELECOMMUNICA     008934694000146RCC DISTRIBUIDORA LTDA                  RUA SERRA DO MARACAJU, 505 A            LONDRINA                                86065400PR310300000604881441G74188/3    07062011031LONDRINA            0310201100000000000574012CC                                                                                                                                                                                                                                                                                                                                                                                                         000041
1031421001119COBR_CAUC_BIC  GET GLOBAL ENERGY AND TELECOMMUNICA     008934694000146RCC DISTRIBUIDORA LTDA                  RUA SERRA DO MARACAJU, 505 A            LONDRINA                                86065400PR310300000704883584G74227/1    15062011031LONDRINA            0510201100000000000756010CC                                                                                                                                                                                                                                                                                                                                                                                                         000042
1031421001119COBR_CAUC_BIC  GET GLOBAL ENERGY AND TELECOMMUNICA     008934694000146RCC DISTRIBUIDORA LTDA                  RUA SERRA DO MARACAJU, 505 A            LONDRINA                                86065400PR310300000804883592G74227/2    15062011031LONDRINA            1110201100000000000756009CC                                                                                                                                                                                                                                                                                                                                                                                                         000043
1031421001119COBR_CAUC_BIC  GET GLOBAL ENERGY AND TELECOMMUNICA     008934694000146RCC DISTRIBUIDORA LTDA                  RUA SERRA DO MARACAJU, 505 A            LONDRINA                                86065400PR310300000904883606G74228/1    16062011031LONDRINA            0710201100000000000746509CC                                                                                                                                                                                                                                                                                                                                                                                                         000044
1031421001119COBR_CAUC_BIC  GET GLOBAL ENERGY AND TELECOMMUNICA     008934694000146RCC DISTRIBUIDORA LTDA                  RUA SERRA DO MARACAJU, 505 A            LONDRINA                                86065400PR310300001004883614G74228/2    16062011031LONDRINA            1410201100000000000746508CC                                                                                                                                                                                                                                                                                                                                                                                                         000045
1031421001119COBR_CAUC_BIC  GET GLOBAL ENERGY AND TELECOMMUNICA     008934694000146RCC DISTRIBUIDORA LTDA                  RUA SERRA DO MARACAJU, 505 A            LONDRINA                                86065400PR310300001104885374G74250/1    17062011031LONDRINA            1110201100000000001012314CC                                                                                                                                                                                                                                                                                                                                                                                                         000046
1031421001119COBR_CAUC_BIC  GET GLOBAL ENERGY AND TELECOMMUNICA     008934694000146RCC DISTRIBUIDORA LTDA                  RUA SERRA DO MARACAJU, 505 A            LONDRINA                                86065400PR310300001204885391G74251/2    17062011031LONDRINA            1410201100000000000756509CC                                                                                                                                                                                                                                                                                                                                                                                                         000047
1031421001119COBR_CAUC_BIC  GET GLOBAL ENERGY AND TELECOMMUNICA     008934694000146RCC DISTRIBUIDORA LTDA                  RUA SERRA DO MARACAJU, 505 A            LONDRINA                                86065400PR310300001304892524G74315/1    28062011031LONDRINA            2110201100000000000649017CC                                                                                                                                                                                                                                                                                                                                                                                                         000048
1031421001119COBR_CAUC_BIC  GET GLOBAL ENERGY AND TELECOMMUNICA     008934694000146RCC DISTRIBUIDORA LTDA                  RUA SERRA DO MARACAJU, 505 A            LONDRINA                                86065400PR310300001404892532G74315/2    28062011031LONDRINA            2610201100000000000649017CC                                                                                                                                                                                                                                                                                                                                                                                                         000049
1031421001119COBR_CAUC_BIC  GET GLOBAL ENERGY AND TELECOMMUNICA     008934694000146RCC DISTRIBUIDORA LTDA                  RUA SERRA DO MARACAJU, 505 A            LONDRINA                                86065400PR310300001504892541G74316/1    28062011031LONDRINA            2610201100000000001118019CC                                                                                                                                                                                                                                                                                                                                                                                                         000050
1031421001119COBR_CAUC_BIC  GET GLOBAL ENERGY AND TELECOMMUNICA     008934694000146RCC DISTRIBUIDORA LTDA                  RUA SERRA DO MARACAJU, 505 A            LONDRINA                                86065400PR310300001604898611G74469/1    13072011031LONDRINA            2710201100000000000649008CC                                                                                                                                                                                                                                                                                                                                                                                                         000051
1031421001119COBR_CAUC_BIC  GET GLOBAL ENERGY AND TELECOMMUNICA     008934694000146RCC DISTRIBUIDORA LTDA                  RUA SERRA DO MARACAJU, 505 A            LONDRINA                                86065400PR310300001704898620G74469/2    13072011031LONDRINA            1011201100000000000649007CC                                                                                                                                                                                                                                                                                                                                                                                                         000052
1031421001119COBR_CAUC_BIC  GET GLOBAL ENERGY AND TELECOMMUNICA     008934694000146RCC DISTRIBUIDORA LTDA                  RUA SERRA DO MARACAJU, 505 A            LONDRINA                                86065400PR310300001804899049G74478/1    13072011031LONDRINA            1011201100000000000898017CC                                                                                                                                                                                                                                                                                                                                                                                                         000053
1031421001119COBR_CAUC_BIC  GET GLOBAL ENERGY AND TELECOMMUNICA     008934694000146RCC DISTRIBUIDORA LTDA                  RUA SERRA DO MARACAJU, 505 A            LONDRINA                                86065400PR310300001904903101G74563/1    22072011031LONDRINA            2111201100000000000821036CC                                                                                                                                                                                                                                                                                                                                                                                                         000054
1031421001119COBR_CAUC_BIC  GET GLOBAL ENERGY AND TELECOMMUNICA     008934694000146RCC DISTRIBUIDORA LTDA                  RUA SERRA DO MARACAJU, 505 A            LONDRINA                                86065400PR310300002004903291G74585/1    22072011031LONDRINA            2810201100000000000551821CC                                                                                                                                                                                                                                                                                                                                                                                                         000055
1031421001119COBR_CAUC_BIC  GET GLOBAL ENERGY AND TELECOMMUNICA     008934694000146RCC DISTRIBUIDORA LTDA                  RUA SERRA DO MARACAJU, 505 A            LONDRINA                                86065400PR310300002104903305G74585/2    22072011031LONDRINA            2311201100000000000551821CC                                                                                                                                                                                                                                                                                                                                                                                                         000056
1031421001119COBR_CAUC_BIC  GET GLOBAL ENERGY AND TELECOMMUNICA     008934694000146RCC DISTRIBUIDORA LTDA                  RUA SERRA DO MARACAJU, 505 A            LONDRINA                                86065400PR310300002204907556G74725/1    08082011031LONDRINA            0612201100000000000821034CC                                                                                                                                                                                                                                                                                                                                                                                                         000057
1031421001119COBR_CAUC_BIC  GET GLOBAL ENERGY AND TELECOMMUNICA     008934694000146RCC DISTRIBUIDORA LTDA                  RUA SERRA DO MARACAJU, 505 A            LONDRINA                                86065400PR310300002304927603G76227/1    26092011031LONDRINA            2301201200000000000891036CC                                                                                                                                                                                                                                                                                                                                                                                                         000058
1031421001119COBR_CAUC_BIC  GET GLOBAL ENERGY AND TELECOMMUNICA     008934694000146RCC DISTRIBUIDORA LTDA                  RUA SERRA DO MARACAJU, 505 A            LONDRINA                                86065400PR310300002404929347G76241/1    28092011031LONDRINA            2601201200000000000625974CC                                                                                                                                                                                                                                                                                                                                                                                                         000059
9000012                                                                                                                                                                                                                                                                                                                                                                                                                                                                                                                                                                                                                                                                                                               000060
