0REMESSANOTIFICACAO ELETRONICA        99999999999999BICBANCO                                AV. PAULISTA                            1048      12.ANDAR  BELA VISTA                    SAO PAULO                     01310100SP1121739360CORTINHAL                               COORDENADOR                             05092011                                                                                                                                                                                                                                                                                                                                                                                      000001
1028421007486DIR_CREDIT     WEBROOM SOLUCOES INTERATIVAS LTDA       004123616000100BROOKFIELD MB EMPREENDIMENTOS IMOB. SA  AV T-9, 1423 - SETOR BUENO              GOIANIA                                 74215020GO2996500001                                                                                                                                          481007504           230520110000019527S/N         29082011000404Serviços de mídia.                                                                                                                                                                                                                              004043336000192              000002
1018421029172DIR_CREDIT     BARSIL CONSTRUCOES E COMERCIO LTDA      071476527001883CONSTRUTORA TENDA S.A                   RUA SETE S/N Q 06 L 29 CENTRO           GOIANIA                                 74375150GO2997000001                                                                                                                                          011501123           010220110000018908            30082011000403EXECUCAO DOS SERVICOS DE CONSTRUCAO CIVIL DO RESIDENCIAL DENOMINADO PARQUE GREEN VILLAGE DUO EM APERECIDA GOIANIA-GO                                                                                                                            001540806000135              000003
1003421010775COBR_CAUC_COR  NUFARM IND QUIM FARMACEUTICA S/A        001792003000178AGROLINE COM DE PRODUTOS VETERINAR      RUA QUATORZE DE JULHO, 575              CAMPO GRANDE                            79004390MS300010000104017275 001791502  30062011800UNIBANCO S/A        3003201200000000011286000CC                                                                                                                                                                                                                                                                                                                                                                                                         000004
1003421010775COBR_CAUC_COR  NUFARM IND QUIM FARMACEUTICA S/A        001792003000178AGROLINE COM DE PRODUTOS VETERINAR      RUA QUATORZE DE JULHO, 575              CAMPO GRANDE                            79004390MS300010000204017283 001792402  30062011800UNIBANCO S/A        3003201200000000011286000CC                                                                                                                                                                                                                                                                                                                                                                                                         000005
1003421010775COBR_CAUC_BIC  NUFARM IND QUIM FARMACEUTICA S/A        005554364000137SIGMA AGROPECUARIA LTDA.                AVENIDA MIGUEL SUTIL, 10040             CUIABA                                  78040365MT300020000104017755 001875502  24072011024CUIABA              3003201200000000011286000CC                                                                                                                                                                                                                                                                                                                                                                                                         000006
1003421010775COBR_CAUC_BIC  NUFARM IND QUIM FARMACEUTICA S/A        005554364000137SIGMA AGROPECUARIA LTDA.                AVENIDA MIGUEL SUTIL, 10040             CUIABA                                  78040365MT300020000204017763 001875702  24072011024CUIABA              3003201200000000011286000CC                                                                                                                                                                                                                                                                                                                                                                                                         000007
1003421010775COBR_CAUC_COR  NUFARM IND QUIM FARMACEUTICA S/A        010943866000190PRECILIANO E LOPES LTDA ME              AV DJALMA DUTRA, 2091                   ALTAMIRA                                68371163PA300030000104017771 001879001  24072011600HSBC BANK BRASIL    2003201200000000011286000CC                                                                                                                                                                                                                                                                                                                                                                                                         000008
1003421010775COBR_CAUC_COR  NUFARM IND QUIM FARMACEUTICA S/A        022881858000145HILGERT E CIA LTDA                      AV. MARECHAL RONDON, 1327               JI-PARANA                               78961390RO300040000104017291 001793801  30062011800UNIBANCO S/A        3003201200000000011628000CC                                                                                                                                                                                                                                                                                                                                                                                                         000009
1003421010775COBR_CAUC_COR  NUFARM IND QUIM FARMACEUTICA S/A        022881858000145HILGERT E CIA LTDA                      AV. MARECHAL RONDON, 1327               JI-PARANA                               78961390RO300040000204017305 001794001  30062011800UNIBANCO S/A        3003201200000000011628000CC                                                                                                                                                                                                                                                                                                                                                                                                         000010
1003421010775COBR_CAUC_COR  NUFARM IND QUIM FARMACEUTICA S/A        022881858000145HILGERT E CIA LTDA                      AV. MARECHAL RONDON, 1327               JI-PARANA                               78961390RO300040000304017313 001794201  30062011800UNIBANCO S/A        3003201200000000011628000CC                                                                                                                                                                                                                                                                                                                                                                                                         000011
1019421004658COBR_CAUC_COR  S/A ESTADO DE MINAS                     033000118000179TELEMAR NORTE LESTE S A                 R GENERAL POLIDORO 99 1.AND-A C AU      RIO DE JANEIRO                          22280004RJ300050000101125750549858-1    31082011900BRADESCO S/A        1510201100000000013200000CC                                                                                                                                                                                                                                                                                                                                                                                                         000012
1016421019267COBR_CAUC_COR  COBRAZEM AGROINDUSTRIAL LTDA            002489004000100GLOBOSUINOS AGROPECUARIA S/A            RUA MATE LARANJEIRAS,0                  TOLEDO                                  85907150PR3000600001031668380000544-01  01092011800UNIBANCO S/A        0410201100000000026325000CC                                                                                                                                                                                                                                                                                                                                                                                                         000013
1016421019267COBR_CAUC_COR  COBRAZEM AGROINDUSTRIAL LTDA            002489004000100GLOBOSUINOS AGROPECUARIA S/A            RUA MATE LARANJEIRAS,0                  TOLEDO                                  85907150PR3000600002031668970000543-01  01092011800UNIBANCO S/A        0410201100000000026325000CC                                                                                                                                                                                                                                                                                                                                                                                                         000014
1016421018104COBR_CAUC_COR  METALGRAFICA TRIVISAN S/A               002921346000158ANJO QUIMICA DO BRASIL LTDA             RODOVIA SC.447 KM-2,0                   CRICIUMA                                88817440SC3000800001031306986044/2      27072011600HSBC BANK BRASIL    2809201100000000001642695CC                                                                                                                                                                                                                                                                                                                                                                                                         000015
1016421018104COBR_CAUC_COR  METALGRAFICA TRIVISAN S/A               002921346000158ANJO QUIMICA DO BRASIL LTDA             RODOVIA SC.447 KM-2,0                   CRICIUMA                                88817440SC3000800002031377576100/2      29072011600HSBC BANK BRASIL    2809201100000000000919657CC                                                                                                                                                                                                                                                                                                                                                                                                         000016
1016421018104COBR_CAUC_COR  METALGRAFICA TRIVISAN S/A               002921346000158ANJO QUIMICA DO BRASIL LTDA             RODOVIA SC.447 KM-2,0                   CRICIUMA                                88817440SC3000800003031377736102/2      29072011600HSBC BANK BRASIL    2809201100000000000093132CC                                                                                                                                                                                                                                                                                                                                                                                                         000017
1016421018104COBR_CAUC_COR  METALGRAFICA TRIVISAN S/A               002921346000158ANJO QUIMICA DO BRASIL LTDA             RODOVIA SC.447 KM-2,0                   CRICIUMA                                88817440SC3000800004031590176396/1      22082011600HSBC BANK BRASIL    2609201100000000001752655CC                                                                                                                                                                                                                                                                                                                                                                                                         000018
1016421018104COBR_CAUC_COR  METALGRAFICA TRIVISAN S/A               002921346000158ANJO QUIMICA DO BRASIL LTDA             RODOVIA SC.447 KM-2,0                   CRICIUMA                                88817440SC3000800005031590256396/2      22082011600HSBC BANK BRASIL    0310201100000000001752654CC                                                                                                                                                                                                                                                                                                                                                                                                         000019
1016421018104COBR_CAUC_COR  METALGRAFICA TRIVISAN S/A               002921346000158ANJO QUIMICA DO BRASIL LTDA             RODOVIA SC.447 KM-2,0                   CRICIUMA                                88817440SC3000800006031590336426/1      24082011600HSBC BANK BRASIL    2809201100000000001316404CC                                                                                                                                                                                                                                                                                                                                                                                                         000020
1016421018104COBR_CAUC_COR  METALGRAFICA TRIVISAN S/A               002921346000158ANJO QUIMICA DO BRASIL LTDA             RODOVIA SC.447 KM-2,0                   CRICIUMA                                88817440SC3000800007031590416426/2      24082011600HSBC BANK BRASIL    0510201100000000001316404CC                                                                                                                                                                                                                                                                                                                                                                                                         000021
1016421018104COBR_CAUC_BIC  METALGRAFICA TRIVISAN S/A               001675793000101HUTCHINSON DO BRASIL S/A                RUA AUREA TAVARES,580-480/580           TABOAO DA SERRA                         06765902SP3000900001031235605909        18072011007PAULISTA            1609201100000000002303997CC                                                                                                                                                                                                                                                                                                                                                                                                         000022
1016421018104COBR_CAUC_BIC  METALGRAFICA TRIVISAN S/A               001675793000101HUTCHINSON DO BRASIL S/A                RUA AUREA TAVARES,580-480/580           TABOAO DA SERRA                         06765902SP3000900002031263645968        21072011007PAULISTA            1909201100000000003396594CC                                                                                                                                                                                                                                                                                                                                                                                                         000023
1016421018104COBR_CAUC_BIC  METALGRAFICA TRIVISAN S/A               001675793000101HUTCHINSON DO BRASIL S/A                RUA AUREA TAVARES,580-480/580           TABOAO DA SERRA                         06765902SP3000900003031511486354        18082011007PAULISTA            1710201100000000001020320CC                                                                                                                                                                                                                                                                                                                                                                                                         000024
1016421018104COBR_CAUC_BIC  METALGRAFICA TRIVISAN S/A               001675793000101HUTCHINSON DO BRASIL S/A                RUA AUREA TAVARES,580-480/580           TABOAO DA SERRA                         06765902SP3000900004031589916378        20082011007PAULISTA            1910201100000000003091063CC                                                                                                                                                                                                                                                                                                                                                                                                         000025
1016421018104COBR_CAUC_BIC  METALGRAFICA TRIVISAN S/A               001675793000101HUTCHINSON DO BRASIL S/A                RUA AUREA TAVARES,580-480/580           TABOAO DA SERRA                         06765902SP3000900005031590096381        20082011007PAULISTA            1910201100000000002794990CC                                                                                                                                                                                                                                                                                                                                                                                                         000026
9000010                                                                                                                                                                                                                                                                                                                                                                                                                                                                                                                                                                                                                                                                                                               000027
