0REMESSANOTIFICACAO ELETRONICA        99999999999999BICBANCO                                AV. PAULISTA                            1048      12.ANDAR  BELA VISTA                    SAO PAULO                     01310100SP1121739360CORTINHAL                               COORDENADOR                             11062012                                                                                                                                                                                                                                                                                                                                                                                      000001
1021420930887COBR_CAUC_COR  DEDINI S/A INDUSTRIAS DE BASE           060329174000124US AC S MANOEL S A                      FAZENDA BOA VISTA, S N ZONA RURAL BR    SAO MANUEL                              18650000SP358460000106335833180951-3-3  05062012900BRADESCO S/A        0207201200000000091800000CC                                                                                                                                                                                                                                                                                                                                                                                                         000002
1046421006658COBR_CAUC_COR  TRANSPORTES DALCOQUIO LTDA              015179682002596RHODIA POLIAMIDA E ESPECIALIDADES       FAZENDA SAO FRANCISCO S/N               SANTO ANDRE                             13140000SP3584700001000034531201038395  31052012900BRADESCO S/A        0507201200000000021516864CC                                                                                                                                                                                                                                                                                                                                                                                                         000003
1014420939021COBR_CAUC_BIC  EDITORA O DIA S/A                       033747288000111FEDER.EMPR.TRANSP.RODOV.LESTE M.BR      RUA DA ASSEMBLEIA 10 39 A/C. SR.ED      RIO DE JANEIRO                          20119900RJ3584800001024384640646441     06062012014RIO DE JANEIRO      1507201200000000011582540CC                                                                                                                                                                                                                                                                                                                                                                                                         000004
1007421044581COBR_CAUC_BIC  GRANCARGA TRANSP. E GUINDASTES S/A.     001027335000166WOBBEN WINDPOWER IND.E COM.LTDA.        AV.FERNANDO STECCA,100                  SOROCABA                                18087149SP358490000101272941002276      05062012007PAULISTA            2507201200000000012455315CC                                                                                                                                                                                                                                                                                                                                                                                                         000005
1007421044581COBR_CAUC_BIC  GRANCARGA TRANSP. E GUINDASTES S/A.     001027335000166WOBBEN WINDPOWER IND.E COM.LTDA.        AV.FERNANDO STECCA,100                  SOROCABA                                18087149SP358490000201272950002275      05062012007PAULISTA            2507201200000000012455315CC                                                                                                                                                                                                                                                                                                                                                                                                         000006
1007421044581COBR_CAUC_BIC  GRANCARGA TRANSP. E GUINDASTES S/A.     001027335000166WOBBEN WINDPOWER IND.E COM.LTDA.        AV.FERNANDO STECCA,100                  SOROCABA                                18087149SP358490000301272968002274      05062012007PAULISTA            2507201200000000012455315CC                                                                                                                                                                                                                                                                                                                                                                                                         000007
1007421044581COBR_CAUC_BIC  GRANCARGA TRANSP. E GUINDASTES S/A.     001027335000166WOBBEN WINDPOWER IND.E COM.LTDA.        AV.FERNANDO STECCA,100                  SOROCABA                                18087149SP358490000401272976002273      05062012007PAULISTA            2507201200000000012455315CC                                                                                                                                                                                                                                                                                                                                                                                                         000008
1007421044581COBR_CAUC_BIC  GRANCARGA TRANSP. E GUINDASTES S/A.     001027335000166WOBBEN WINDPOWER IND.E COM.LTDA.        AV.FERNANDO STECCA,100                  SOROCABA                                18087149SP358490000501272984002272      05062012007PAULISTA            2507201200000000012455315CC                                                                                                                                                                                                                                                                                                                                                                                                         000009
1007421044581COBR_CAUC_BIC  GRANCARGA TRANSP. E GUINDASTES S/A.     001027335000166WOBBEN WINDPOWER IND.E COM.LTDA.        AV.FERNANDO STECCA,100                  SOROCABA                                18087149SP358490000601272992002271      05062012007PAULISTA            2507201200000000012455315CC                                                                                                                                                                                                                                                                                                                                                                                                         000010
1007421044581COBR_CAUC_BIC  GRANCARGA TRANSP. E GUINDASTES S/A.     001027335000166WOBBEN WINDPOWER IND.E COM.LTDA.        AV.FERNANDO STECCA,100                  SOROCABA                                18087149SP358490000701273000002270      05062012007PAULISTA            2507201200000000012455315CC                                                                                                                                                                                                                                                                                                                                                                                                         000011
1007421044581COBR_CAUC_BIC  GRANCARGA TRANSP. E GUINDASTES S/A.     001027335000166WOBBEN WINDPOWER IND.E COM.LTDA.        AV.FERNANDO STECCA,100                  SOROCABA                                18087149SP358490000801273018002269      05062012007PAULISTA            2507201200000000012455315CC                                                                                                                                                                                                                                                                                                                                                                                                         000012
1032421020308COBR_CAUC_COR  OTM SOLUCOES LOGISTICAS LTDA            000080714000157ACOS CONTINENTE INDUSTRIA E COMERC      ESTRADA DO GA,3851-ROD CURITIBA/ Q      CURITIBA                                81935552PR3585000001000039221954        08062012900BRADESCO S/A        2306201200000000015696371CC                                                                                                                                                                                                                                                                                                                                                                                                         000013
1007421043968DIR_CREDIT     TG AGRO INDUSTRIAL LTDA                 033453598000123RAÌSEN COMBUSTÌVEIS S.A.                AV DAS AMÈRICAS, 4200 BLOCO 5           RIO DE JANEIRO                          22640102RJ3586600001                                                                                                                                          011876613           300420120000021531            08062012000403contrato de fornecimento de 36.000 m3 de etanol hidratado combustivel                                                                                                                                                                           002126558000143              000014
1042421006957DIR_CREDIT     MARCOZZI CONSTRUCOES LTDA               013003501000173CYRELLA TURQUESA EMP IMOB LTDA          AV ENGENHEIRO ROBERTO ZUCCOLO, 555      SAO PAULO                               05307190SP3586900001                                                                                                                                          481012589           291120110000020352            07022012000404ConstruÁ„o de stand medindo 700 m2 denominado empesca e 02 apartamento decorados sendo 01 medindo 76 m2 e 01 medindo 90m2 em BelÈm/Pa.                                                                                                          008714924000161              000015
9000007                                                                                                                                                                                                                                                                                                                                                                                                                                                                                                                                                                                                                                                                                                               000016
