0REMESSANOTIFICACAO ELETRONICA        99999999999999BICBANCO                                AV. PAULISTA                            1048      12.ANDAR  BELA VISTA                    SAO PAULO                     01310100SP1121739360CORTINHAL                               COORDENADOR                             03052012                                                                                                                                                                                                                                                                                                                                                                                      000001
1019421013614DIR_CREDIT     FERGIKAL LTDA                           018715383000140MUNICIPIO DE BELO HORIZONTE             AV AFONSO PENA, 1212 - SALA 318         BELO HORIZONTE                          30130003MG3513200001                                                                                                                                          481013912           091120110000020725SC-247/11   27042012000404Execução com fornecimento de mão-de-obra, materiais e equipamentos, dosserviços e obras de restauração, recuperação e melhoramento dos pavimentos em  diversos logradouros do município de Belo Horizonte.                                      018793539000100              000002
1043421002682DIR_CREDIT     CESAN CONST EMPR SANTO ANTONIO LTDA     008272049000105SAPE - SEC AGRIC DA PECUARIA E DA PESCA CENTRO ADMINISTRATIVO, S/N - BR 101 BL 4NATAL                                   59064901RN3516800001                                                                                                                                          011839587           250820090000019782020/2009    30042012000403EXECUÇÃO DAS OBRAS PARA CONSTRUÇÃO DE BARRAGENS NOS MUNICIPIOS DE CARAÚBAS-RN E RAFAEL GODEIRO-RN.                                                                                                                                              002135177000120              000003
1021420930887COBR_CAUC_COR  DEDINI S/A INDUSTRIAS DE BASE           010820645000124USINA TRAPICHE S A                      LOC ENGENHO ROSARIO SIRINHAEM, S/N      SIRINHAEM                               55580000PE351710000106325480179153-1-1  30042012900BRADESCO S/A        1705201200000000010150000CC                                                                                                                                                                                                                                                                                                                                                                                                         000004
1032420933490COBR_CAUC_COR  CECRISA REVESTIMENTOS CERAMICOS         011010651000189RIO MARINA RESORT IMOBILIARIO           AVENIDA DO CANAL,S/N                    MANGARATIBA                             23880000RJ351720000100519058VP00523201  30042012900BRADESCO S/A        2105201200000000034740496CC                                                                                                                                                                                                                                                                                                                                                                                                         000005
1007421031242COBR_CAUC_BIC  GP GUARDA PATRIMONIAL DE S.P. LTDA      007773962000122ASSOCIACAO MASTER DA GRAMA              RODOVIA SP 324  KM 837   570 METROS     ITUPEVA                                 13295000SP35173000010005164079446       02052012021CAMPINAS            0206201200000000010323950CC                                                                                                                                                                                                                                                                                                                                                                                                         000006
1031420932046COBR_CAUC_BIC  PALMALI INDL.DE ALIMENTOS LTDA          074101569000341AGRICOLA JANDELLE S/A.                  AV ITAMARATY                            ROLANDIA                                86600000PR351740000104988998NE 0346065  30032012031LONDRINA            2508201200000000060000000CC                                                                                                                                                                                                                                                                                                                                                                                                         000007
1046421004647COBR_CAUC_BIC  TERMOTECNICA LTDA                       076487032000125ELECTROLUX DO BRASIL S.A.               R.MINISTRO GABRIEL PASSOS, 360          CURITIBA                                81520620PR35175000010145345206245913    26042012016CURITIBA            2408201200000000040020585CC                                                                                                                                                                                                                                                                                                                                                                                                         000008
1038421011812COBR_CAUC_BIC  ENERGY COML IMPORT E EXPORT LTDA        009363567000105PREMIX BRASIL RESINAS                   ALAMEDA ARAGU,2044-CJ703A705TORRE2      SAO PAULO                               06455000SP3517600001096012417677        13042012007PAULISTA            2805201200000000043006737CC                                                                                                                                                                                                                                                                                                                                                                                                         000009
1038421011812COBR_CAUC_BIC  ENERGY COML IMPORT E EXPORT LTDA        009363567000105PREMIX BRASIL RESINAS                   ALAMEDA ARAGU,2044-CJ703A705TORRE2      SAO PAULO                               06455000SP3517600002096012687848        30042012007PAULISTA            1406201200000000044654569CC                                                                                                                                                                                                                                                                                                                                                                                                         000010
1016421019267COBR_CAUC_COR  COBRAZEM AGROINDUSTRIAL LTDA            084874726003169KAEFER AGROINDUSTRIAL LTDA              RUA LUZIA DE SANTIS,8                   BARIRI                                  17250000SP3517700001033921450007195-01  24042012800UNIBANCO S/A        2505201200000000045250000CC                                                                                                                                                                                                                                                                                                                                                                                                         000011
1022421007495COBR_CAUC_BIC  TECUMSEH DO BRASIL LTDA                 002948030000230ESMALTEC SA                             AV PARQUE OESTE ,2130                   MARACANAU                               61939120CE35178000010432132350299/1     02052012003CENTRO              0806201200000000019458831CC                                                                                                                                                                                                                                                                                                                                                                                                         000012
1046421001443COBR_CAUC_COR  COSTAO DO SANTINHO TUR E LAZER LTDA     054446984000168TOP SERVICE TURISMO LTDA                RUA ALAMEDA ARAGUAIA,2044-BLOCO 2       SAO PAULO                               06455906SP351790000100005553135607      30042012900BRADESCO S/A        1005201200000000016084321CC                                                                                                                                                                                                                                                                                                                                                                                                         000013
1042421006507DIR_CREDIT     GALGANI E LUNA S/C LTDA                 007142821000101UNIMED DE SAO LUIS - COOP DE TRAB MEDICOAV GETULIO VARGAS 1863 MONTE CASTELO    SãO LUIS                                65000000MA3518800001                                                                                                                                          011836441           060119930000016672            02052012000403prestar ao usuários da unimed, no âmbito de suas especialidades, serviços laboratóriais                                                                                                                                                         023684772000195              000014
9000012                                                                                                                                                                                                                                                                                                                                                                                                                                                                                                                                                                                                                                                                                                               000015
