0REMESSANOTIFICACAO ELETRONICA        99999999999999BICBANCO                                AV. PAULISTA                            1048      12.ANDAR  BELA VISTA                    SAO PAULO                     01310100SP1121739360CORTINHAL                               COORDENADOR                             01092014                                                                                                                                                                                                                                                                                                                                                                                      000001
1021420930887COBR_CAUC_COR  DEDINI S/A INDUSTRIAS DE BASE           043619832001760BRANCO PERES ACUCAR E ALCOOL SA         ROD DR PLACIDO ROCHA KM 19,6 S N LAGOA SADAMANTINA                              17800000SP489920000106589193265129-4-4  28082014900BRADESCO S/A        3011201400000000011956258CC                                                                                                                                                                                                                                                                                                                                                                                                         000002
1015421010253COBR_CAUC_COR  MUNDIAL S/A PRODUTOS DE CONSUMO         066471517000177DPC DISTRIBUIDOR ATACADISTA S A         AV. AUREA CARLOS LEITE DE MATOS KM1,8 S CARATINGA                               35303136MG4899300001013572345800978301  28082014900BRADESCO S/A        2611201400000000018144000CC                                                                                                                                                                                                                                                                                                                                                                                                         000003
1007421072259COBR_CAUC_COR  BOMBRIL S/A                             008899849000401SPACE MINAS DISTRIBUIDORA LTDA          R JOAQUIM JOSE 1165                     CONTAGEM                                32013390MG4899400001032347451020085001  29082014900BRADESCO S/A        1909201400000000010009808CC                                                                                                                                                                                                                                                                                                                                                                                                         000004
1007421072259COBR_CAUC_COR  BOMBRIL S/A                             008899849000401SPACE MINAS DISTRIBUIDORA LTDA          R JOAQUIM JOSE 1165                     CONTAGEM                                32013390MG4899400002032347531020088001  29082014900BRADESCO S/A        1909201400000000010009808CC                                                                                                                                                                                                                                                                                                                                                                                                         000005
1007421072259COBR_CAUC_COR  BOMBRIL S/A                             011354833000177DISTR DE ALIMENTOS LEGACY LTDA ME       R NOE DE ANUNCIACAO PRADO 467           ITAUNA                                  35681296MG4899500001032346990062613001  28082014900BRADESCO S/A        1809201400000000010803531CC                                                                                                                                                                                                                                                                                                                                                                                                         000006
1007421065899COBR_CAUC_BIC  FORCE ONE IND E COM DE METAIS PLAST     001376079000112JOHNSON CONTROLS PS DO BRASIL LTDA      AV INDEPENDENCIA,2757                   SOROCABA                                18103000SP48996000010323342112053       27082014007PAULISTA            0212201400000000017690282CC                                                                                                                                                                                                                                                                                                                                                                                                         000007
1021421017050COBR_CAUC_BIC  STAR DISTR PROD FARMACEUTICOS LTDA      061585865073701RAIA DROGASIL S/A                       RUA PATAXOS , 1412                      EMBU                                    06833073SP4899700001000044950000388301  28082014007PAULISTA            2710201400000000015178876CC                                                                                                                                                                                                                                                                                                                                                                                                         000008
1021421017050COBR_CAUC_BIC  STAR DISTR PROD FARMACEUTICOS LTDA      061585865073701RAIA DROGASIL S/A                       RUA PATAXOS , 1412                      EMBU                                    06833073SP4899700002000045500000387801  27082014007PAULISTA            1009201400000000042026861CC                                                                                                                                                                                                                                                                                                                                                                                                         000009
1021421017050COBR_CAUC_BIC  STAR DISTR PROD FARMACEUTICOS LTDA      061585865073701RAIA DROGASIL S/A                       RUA PATAXOS , 1412                      EMBU                                    06833073SP4899700003000045920000389701  28082014007PAULISTA            1109201400000000012499355CC                                                                                                                                                                                                                                                                                                                                                                                                         000010
1021421017050COBR_CAUC_BIC  STAR DISTR PROD FARMACEUTICOS LTDA      061585865073701RAIA DROGASIL S/A                       RUA PATAXOS , 1412                      EMBU                                    06833073SP4899700004000046220000390001  29082014007PAULISTA            2810201400000000027699325CC                                                                                                                                                                                                                                                                                                                                                                                                         000011
9000006                                                                                                                                                                                                                                                                                                                                                                                                                                                                                                                                                                                                                                                                                                               000012
