0REMESSANOTIFICACAO ELETRONICA        99999999999999BICBANCO                                AV. PAULISTA                            1048      12.ANDAR  BELA VISTA                    SAO PAULO                     01310100SP1121739360CORTINHAL                               COORDENADOR                             08092014                                                                                                                                                                                                                                                                                                                                                                                      000001
1029421018494COBR_CAUC_COR  PRO SALUTE SERVICOS PARA SAUDE LTDA     088611264000122INTRAL S A IND DE MATERIAIS ELETRI      TRAV. RIO GRANDE , 130                  CAXIAS DO SUL                           95098750RS4907000001001504340154902.A   04092014900BRADESCO S/A        1010201400000000010412985CC                                                                                                                                                                                                                                                                                                                                                                                                         000002
1050421001492COBR_CAUC_COR  M J NOVAES DE LIMA & CIA LTDA           060398914000931MIDORI ATLANTICA BRASIL                 AV ANTONIO VERONESE,1-TERREO            PENAPOLIS                               16300000SP49071000010000295914/6196A    04092014900BRADESCO S/A        0210201400000000010369077CC                                                                                                                                                                                                                                                                                                                                                                                                         000003
1050421001492COBR_CAUC_COR  M J NOVAES DE LIMA & CIA LTDA           060398914000931MIDORI ATLANTICA BRASIL                 AV ANTONIO VERONESE,1-TERREO            PENAPOLIS                               16300000SP49071000020000296714/6196B    05092014900BRADESCO S/A        0410201400000000010369078CC                                                                                                                                                                                                                                                                                                                                                                                                         000004
1007421065309COBR_CAUC_BIC  OCEANO IND.GRAFICA E EDITORA LTDA       042179671000101DART DO BRASIL IND E COM LTDA           ESTRADA DA ILHA,870                     RIO DE JANEIRO                          23020230RJ49072000010324868175232       05092014014RIO DE JANEIRO      3009201400000000018425880CC                                                                                                                                                                                                                                                                                                                                                                                                         000005
1016421019267COBR_CAUC_BIC  COBRAZEM AGROINDUSTRIAL LTDA            084874726000658KAEFER AGRO INDUSTRIAL LTDA             ROD PR 467 KM 03 -  N 0,0               CASCAVEL                                85802970PR4907300001046157920016033-1   05092014016CURITIBA            0710201400000000010700000CC                                                                                                                                                                                                                                                                                                                                                                                                         000006
1016421019267COBR_CAUC_BIC  COBRAZEM AGROINDUSTRIAL LTDA            084874726000658KAEFER AGRO INDUSTRIAL LTDA             ROD PR 467 KM 03 -  N 0,0               CASCAVEL                                85802970PR4907300002046158490063157-01  03092014016CURITIBA            0310201400000000015450000CC                                                                                                                                                                                                                                                                                                                                                                                                         000007
1016421024090COBR_CAUC_BIC  FRESNOMAQ IND DE MAQUINAS S/A           076189406000630CONDOR SUPER CENTER LTDA                AV WINSTON CHURCHILL,2222               CURITIBA                                81150050PR4907400001046169510099599     03092014016CURITIBA            2310201400000000011318534CC                                                                                                                                                                                                                                                                                                                                                                                                         000008
1007421034080COBR_CAUC_BIC  SIDMEX INTERNACIONAL LTDA               007279104000126H.M. FADEL & CIA LTDA                   R NICOLAU BARRETO,33                    SAO PAULO                               03047010SP4907500001032478800015788     05092014007PAULISTA            1909201400000000011681820CC                                                                                                                                                                                                                                                                                                                                                                                                         000009
1007421034080COBR_CAUC_BIC  SIDMEX INTERNACIONAL LTDA               008669868000190TERMOS & FADEL COMERCIO DE ROUPAS       R MARIA MARCOLINA ,830                  SAO PAULO                               03011000SP4907600001032478980015790     05092014007PAULISTA            1909201400000000011681820CC                                                                                                                                                                                                                                                                                                                                                                                                         000010
1007421034080COBR_CAUC_BIC  SIDMEX INTERNACIONAL LTDA               017587001000187TREX MODAS LTDA                         R MILLER ,770                           SAO PAULO                               03011010SP4907700001032478710015789     05092014007PAULISTA            1909201400000000011681820CC                                                                                                                                                                                                                                                                                                                                                                                                         000011
1032421019512COBR_CAUC_COR  GEOTESC FUNDACOES LTDA                  079379491002399HAVAN LOJAS DE DEPARTAMENTOS LTDA       ROD. BR 101 ,1019                       BARRA VELHA                             88390000SC4907800001030284203384.1      04092014900BRADESCO S/A        1510201400000000016901150CC                                                                                                                                                                                                                                                                                                                                                                                                         000012
9000009                                                                                                                                                                                                                                                                                                                                                                                                                                                                                                                                                                                                                                                                                                               000013
