0REMESSANOTIFICACAO ELETRONICA        99999999999999BICBANCO                                AV. PAULISTA                            1048      12.ANDAR  BELA VISTA                    SAO PAULO                     01310100SP1121739360CORTINHAL                               COORDENADOR                             11082014                                                                                                                                                                                                                                                                                                                                                                                      000001
1029421018494COBR_CAUC_COR  PRO SALUTE SERVICOS PARA SAUDE LTDA     088611264000122INTRAL S A IND DE MATERIAIS ELETRI      TRAV. RIO GRANDE , 130                  CAXIAS DO SUL                           95098750RS4877000001001446120153396.A   04082014900BRADESCO S/A        1009201400000000010507480CC                                                                                                                                                                                                                                                                                                                                                                                                         000002
1029421018494COBR_CAUC_COR  PRO SALUTE SERVICOS PARA SAUDE LTDA     093785822000106SAN MARINO ONIBUS LTDA                  IRMAO GILDO SCHIAVO, 110                CAXIAS DO SUL                           95058510RS4877100001001446390153443.A   04082014900BRADESCO S/A        2008201400000000017745942CC                                                                                                                                                                                                                                                                                                                                                                                                         000003
1016421024090COBR_CAUC_BIC  FRESNOMAQ IND DE MAQUINAS S/A           076189406000630CONDOR SUPER CENTER LTDA                AV WINSTON CHURCHILL,2222               CURITIBA                                81150050PR4877200001045883020098191     29072014016CURITIBA            1509201400000000011823793CC                                                                                                                                                                                                                                                                                                                                                                                                         000004
1021421017050COBR_CAUC_BIC  STAR DISTR PROD FARMACEUTICOS LTDA      061585865073701RAIA DROGASIL S/A                       RUA PATAXOS , 1412                      EMBU                                    06833073SP4877300001000039610000376301  07082014007PAULISTA            2808201400000000037706723CC                                                                                                                                                                                                                                                                                                                                                                                                         000005
1021421017050COBR_CAUC_BIC  STAR DISTR PROD FARMACEUTICOS LTDA      061585865073701RAIA DROGASIL S/A                       RUA PATAXOS , 1412                      EMBU                                    06833073SP4877300002000039790000376401  07082014007PAULISTA            2808201400000000011854293CC                                                                                                                                                                                                                                                                                                                                                                                                         000006
1021421017050COBR_CAUC_BIC  STAR DISTR PROD FARMACEUTICOS LTDA      061585865073701RAIA DROGASIL S/A                       RUA PATAXOS , 1412                      EMBU                                    06833073SP4877300003000039950000376601  07082014007PAULISTA            2808201400000000020888312CC                                                                                                                                                                                                                                                                                                                                                                                                         000007
1046421006070DIR_CREDIT     METALURGICA DS LTDA                     060857349000176TRW AUTOMOTIVE LTDA                     VIA ANHANGUERA KM 147                   LIMEIRA                                 13486915SP4878800001                                                                                                                                          012649004           260320070000018698            08082014000404fornecimento de discos e tambores de freio para automóveis.                                                                                                                                                                                     079414868000198              000008
9000005                                                                                                                                                                                                                                                                                                                                                                                                                                                                                                                                                                                                                                                                                                               000009
