0REMESSANOTIFICACAO ELETRONICA        99999999999999BICBANCO                                AV. PAULISTA                            1048      12.ANDAR  BELA VISTA                    SAO PAULO                     01310100SP1121739360CORTINHAL                               COORDENADOR                             17072012                                                                                                                                                                                                                                                                                                                                                                                      000001
1048421000338COBR_CAUC_COR  FRIGOESTRELA S.A. EM RECUP JUDICIAL     008386287000141BERMAS MARACANAU IND E COM DE COUR      AV CONTORNOS/NDISTRITO INDUSTRIAL       MARACANAU                               61939160CE3654100001024008970001235501  13072012900BRADESCO S/A        1208201200000000028819210CC                                                                                                                                                                                                                                                                                                                                                                                                         000002
1007421032516COBR_CAUC_BIC  NITRIFLEX SP IND E COM DE BORRACHAS     050937564000123CORREIAS MERCURIO SA INDUSTRIA E C      RUA JOSE SPINA, 10                      JUNDIAI                                 13210780SP365420000101340653001100101   13072012007PAULISTA            1708201200000000014444291CC                                                                                                                                                                                                                                                                                                                                                                                                         000003
1021421015910COBR_CAUC_BIC  ZERO COM E DIST PROD DE TELEC LTDA      047960950010194MAGAZINE LUIZA S A                      RUA DO COMERCIO,1924                    FRANCA       SP                         14400660SP365430000106344824000004099   20062012022RIBEIRAO PRETO      0409201200000000014520000CC                                                                                                                                                                                                                                                                                                                                                                                                         000004
1021421015910COBR_CAUC_BIC  ZERO COM E DIST PROD DE TELEC LTDA      047960950010194MAGAZINE LUIZA S A                      RUA DO COMERCIO,1924                    FRANCA       SP                         14400660SP365430000206344859000004098   20062012022RIBEIRAO PRETO      0209201200000000023100000CC                                                                                                                                                                                                                                                                                                                                                                                                         000005
1021421015910COBR_CAUC_BIC  ZERO COM E DIST PROD DE TELEC LTDA      047960950010194MAGAZINE LUIZA S A                      RUA DO COMERCIO,1924                    FRANCA       SP                         14400660SP365430000306344867000004103   20062012022RIBEIRAO PRETO      0309201200000000011220000CC                                                                                                                                                                                                                                                                                                                                                                                                         000006
1021421015910COBR_CAUC_BIC  ZERO COM E DIST PROD DE TELEC LTDA      047960950010194MAGAZINE LUIZA S A                      RUA DO COMERCIO,1924                    FRANCA       SP                         14400660SP365430000406344875000003966   01062012022RIBEIRAO PRETO      2709201200000000020665500CC                                                                                                                                                                                                                                                                                                                                                                                                         000007
1021421015910COBR_CAUC_BIC  ZERO COM E DIST PROD DE TELEC LTDA      047960950010194MAGAZINE LUIZA S A                      RUA DO COMERCIO,1924                    FRANCA       SP                         14400660SP365430000506344883000003967   01062012022RIBEIRAO PRETO      0109201200000000024507600CC                                                                                                                                                                                                                                                                                                                                                                                                         000008
1021421015910COBR_CAUC_BIC  ZERO COM E DIST PROD DE TELEC LTDA      047960950010194MAGAZINE LUIZA S A                      RUA DO COMERCIO,1924                    FRANCA       SP                         14400660SP365430000606344891000004100   20062012022RIBEIRAO PRETO      0109201200000000039600000CC                                                                                                                                                                                                                                                                                                                                                                                                         000009
1021421015910COBR_CAUC_BIC  ZERO COM E DIST PROD DE TELEC LTDA      047960950010194MAGAZINE LUIZA S A                      RUA DO COMERCIO,1924                    FRANCA       SP                         14400660SP365430000706344905000004101   20062012022RIBEIRAO PRETO      0109201200000000025080000CC                                                                                                                                                                                                                                                                                                                                                                                                         000010
1021421015830COBR_CAUC_COR  ATIBAIA ALIMENTOS ABATED AVES LTDA      002895198000144SUPERMERCADO ALTA ROTACAO LTDA          RUA NARUMI NAKAYAMA, 29                 EMBU                                    06816250SP365550000100006714000177126   04072012900BRADESCO S/A        2507201200000000000606600CC                                                                                                                                                                                                                                                                                                                                                                                                         000011
1021421015830COBR_CAUC_COR  ATIBAIA ALIMENTOS ABATED AVES LTDA      067758169000186MEQSO FRANGO COMERCIO DE PRODUTOS       RUA CARMELA NANO,36                     JUNDIAI                                 13211710SP365560000100006129000177067   03072012900BRADESCO S/A        3107201200000000000650000CC                                                                                                                                                                                                                                                                                                                                                                                                         000012
1021421015830COBR_CAUC_COR  ATIBAIA ALIMENTOS ABATED AVES LTDA      039553144000100NAOMI COMERCIO DE ALIMENTOS LTDA        AVENIDA ANTONIO DE ALMEIDA, N.1477      VOLTA REDONDA                           27330041RJ365570000100005971000177052   03072012900BRADESCO S/A        3107201200000000000126000CC                                                                                                                                                                                                                                                                                                                                                                                                         000013
1021421015830COBR_CAUC_COR  ATIBAIA ALIMENTOS ABATED AVES LTDA      039553144000100NAOMI COMERCIO DE ALIMENTOS LTDA        AVENIDA ANTONIO DE ALMEIDA, N.1477      VOLTA REDONDA                           27330041RJ365570000200006005000177055   03072012900BRADESCO S/A        3107201200000000000096000CC                                                                                                                                                                                                                                                                                                                                                                                                         000014
1021421015830COBR_CAUC_COR  ATIBAIA ALIMENTOS ABATED AVES LTDA      039553144000100NAOMI COMERCIO DE ALIMENTOS LTDA        AVENIDA ANTONIO DE ALMEIDA, N.1477      VOLTA REDONDA                           27330041RJ365570000300006013000177056   03072012900BRADESCO S/A        3107201200000000000126000CC                                                                                                                                                                                                                                                                                                                                                                                                         000015
1021421015830COBR_CAUC_COR  ATIBAIA ALIMENTOS ABATED AVES LTDA      039553144000100NAOMI COMERCIO DE ALIMENTOS LTDA        AVENIDA ANTONIO DE ALMEIDA, N.1477      VOLTA REDONDA                           27330041RJ365570000400006030000177058   03072012900BRADESCO S/A        3107201200000000000156000CC                                                                                                                                                                                                                                                                                                                                                                                                         000016
1021421015830COBR_CAUC_COR  ATIBAIA ALIMENTOS ABATED AVES LTDA      039553144000100NAOMI COMERCIO DE ALIMENTOS LTDA        AVENIDA ANTONIO DE ALMEIDA, N.1477      VOLTA REDONDA                           27330041RJ365570000500006277000177083   04072012900BRADESCO S/A        0108201200000000000026100CC                                                                                                                                                                                                                                                                                                                                                                                                         000017
1021421015830COBR_CAUC_COR  ATIBAIA ALIMENTOS ABATED AVES LTDA      039553144000100NAOMI COMERCIO DE ALIMENTOS LTDA        AVENIDA ANTONIO DE ALMEIDA, N.1477      VOLTA REDONDA                           27330041RJ365570000600006307000177086   04072012900BRADESCO S/A        0108201200000000000053700CC                                                                                                                                                                                                                                                                                                                                                                                                         000018
1021421015830COBR_CAUC_COR  ATIBAIA ALIMENTOS ABATED AVES LTDA      039553144000100NAOMI COMERCIO DE ALIMENTOS LTDA        AVENIDA ANTONIO DE ALMEIDA, N.1477      VOLTA REDONDA                           27330041RJ365570000700006323000177088   04072012900BRADESCO S/A        0108201200000000000067800CC                                                                                                                                                                                                                                                                                                                                                                                                         000019
1021421015830COBR_CAUC_COR  ATIBAIA ALIMENTOS ABATED AVES LTDA      001845252000184SUPERMERCADO J J J X LTDA               EST PRES JUSCELINO KUBISTCHECK 2985     GUARULHOS                               07252000SP365580000100005394000176050   28062012900BRADESCO S/A        0208201200000000000664000CC                                                                                                                                                                                                                                                                                                                                                                                                         000020
1021421015830COBR_CAUC_COR  ATIBAIA ALIMENTOS ABATED AVES LTDA      058044090000100FRANGUEX GENEROS ALIMENTICIOS LTDA      AV JAGUARE, 1500                        SAO PAULO                               05346000SP365590000100005009000176009   28062012900BRADESCO S/A        1907201200000000000675000CC                                                                                                                                                                                                                                                                                                                                                                                                         000021
1021421015830COBR_CAUC_COR  ATIBAIA ALIMENTOS ABATED AVES LTDA      071779813000250SUPERMERCADO X LTDA                     AVENIDA ANTONIO MASSA, 300              POA                                     08550350SP365600000100003782000175885   28062012900BRADESCO S/A        0208201200000000000235750CC                                                                                                                                                                                                                                                                                                                                                                                                         000022
1021421015830COBR_CAUC_COR  ATIBAIA ALIMENTOS ABATED AVES LTDA      071779813000250SUPERMERCADO X LTDA                     AVENIDA ANTONIO MASSA, 300              POA                                     08550350SP365600000200005408000176051   28062012900BRADESCO S/A        0208201200000000000480050CC                                                                                                                                                                                                                                                                                                                                                                                                         000023
1021421015830COBR_CAUC_COR  ATIBAIA ALIMENTOS ABATED AVES LTDA      068954742000190MINI MERCADO E PADARIA PONTOBOM LT      R. DA AGUA CHATA,  245                  ITAQUAQUECETUBA                         08576020SP365610000100005416000176052   28062012900BRADESCO S/A        0208201200000000000729000CC                                                                                                                                                                                                                                                                                                                                                                                                         000024
1021421015830COBR_CAUC_COR  ATIBAIA ALIMENTOS ABATED AVES LTDA      007569651000650SUPERMERCADO NACOES UNIDAS LTDA         AV YERVANT KISSAJIKIAN,1918             SAO PAULO                               04428000SP365620000100003634000175870   28062012900BRADESCO S/A        0208201200000000000224600CC                                                                                                                                                                                                                                                                                                                                                                                                         000025
1021421015830COBR_CAUC_COR  ATIBAIA ALIMENTOS ABATED AVES LTDA      007569651000650SUPERMERCADO NACOES UNIDAS LTDA         AV YERVANT KISSAJIKIAN,1918             SAO PAULO                               04428000SP365620000200004827000175990   28062012900BRADESCO S/A        0208201200000000000249400CC                                                                                                                                                                                                                                                                                                                                                                                                         000026
1021421015830COBR_CAUC_COR  ATIBAIA ALIMENTOS ABATED AVES LTDA      007569651000650SUPERMERCADO NACOES UNIDAS LTDA         AV YERVANT KISSAJIKIAN,1918             SAO PAULO                               04428000SP365620000300006404000177096   04072012900BRADESCO S/A        0808201200000000000064640CC                                                                                                                                                                                                                                                                                                                                                                                                         000027
1021421015830COBR_CAUC_COR  ATIBAIA ALIMENTOS ABATED AVES LTDA      007569651000650SUPERMERCADO NACOES UNIDAS LTDA         AV YERVANT KISSAJIKIAN,1918             SAO PAULO                               04428000SP365620000400006447000177100   04072012900BRADESCO S/A        0808201200000000000256020CC                                                                                                                                                                                                                                                                                                                                                                                                         000028
1021421015830COBR_CAUC_COR  ATIBAIA ALIMENTOS ABATED AVES LTDA      059635318000191ALTA DISTRIBUIDORA DE AVES LTDA         RUA LUIZ GONZAGA, 435                   LOUVEIRA                                13290000SP365630000100005157000176025   28062012900BRADESCO S/A        1907201200000000000873222CC                                                                                                                                                                                                                                                                                                                                                                                                         000029
1021421015830COBR_CAUC_COR  ATIBAIA ALIMENTOS ABATED AVES LTDA      009436733000229SUPERMERCADO AKI TUDO LTDA              AV DA MOENDA VELHA , 308                SAO PAULO                               05880330SP365640000100004321000175940   28062012900BRADESCO S/A        0208201200000000000140400CC                                                                                                                                                                                                                                                                                                                                                                                                         000030
1021421015830COBR_CAUC_COR  ATIBAIA ALIMENTOS ABATED AVES LTDA      009436733000229SUPERMERCADO AKI TUDO LTDA              AV DA MOENDA VELHA , 308                SAO PAULO                               05880330SP365640000200006668000177122   04072012900BRADESCO S/A        0808201200000000000929700CC                                                                                                                                                                                                                                                                                                                                                                                                         000031
1021421015830COBR_CAUC_COR  ATIBAIA ALIMENTOS ABATED AVES LTDA      006341293000408A MAIS SUPERMERCADOS LTDA               RUA CANEDOS , 100                       SAO PAULO                               02252010SP365650000100003481000175855   27062012900BRADESCO S/A        0108201200000000000031200CC                                                                                                                                                                                                                                                                                                                                                                                                         000032
1021421015830COBR_CAUC_COR  ATIBAIA ALIMENTOS ABATED AVES LTDA      006341293000408A MAIS SUPERMERCADOS LTDA               RUA CANEDOS , 100                       SAO PAULO                               02252010SP365650000200005327000176043   28062012900BRADESCO S/A        0208201200000000000258800CC                                                                                                                                                                                                                                                                                                                                                                                                         000033
1021421015830COBR_CAUC_COR  ATIBAIA ALIMENTOS ABATED AVES LTDA      006341293000408A MAIS SUPERMERCADOS LTDA               RUA CANEDOS , 100                       SAO PAULO                               02252010SP365650000300005572000176068   28062012900BRADESCO S/A        0208201200000000000205400CC                                                                                                                                                                                                                                                                                                                                                                                                         000034
1021421015830COBR_CAUC_COR  ATIBAIA ALIMENTOS ABATED AVES LTDA      006341293000408A MAIS SUPERMERCADOS LTDA               RUA CANEDOS , 100                       SAO PAULO                               02252010SP365650000400006421000177098   04072012900BRADESCO S/A        0808201200000000000399820CC                                                                                                                                                                                                                                                                                                                                                                                                         000035
1021421015830COBR_CAUC_COR  ATIBAIA ALIMENTOS ABATED AVES LTDA      006341293000408A MAIS SUPERMERCADOS LTDA               RUA CANEDOS , 100                       SAO PAULO                               02252010SP365650000500007711000177228   04072012900BRADESCO S/A        0808201200000000000073700CC                                                                                                                                                                                                                                                                                                                                                                                                         000036
1021421015830COBR_CAUC_COR  ATIBAIA ALIMENTOS ABATED AVES LTDA      006341293000408A MAIS SUPERMERCADOS LTDA               RUA CANEDOS , 100                       SAO PAULO                               02252010SP365650000600007729000177229   04072012900BRADESCO S/A        0808201200000000000107420CC                                                                                                                                                                                                                                                                                                                                                                                                         000037
1021421015830COBR_CAUC_COR  ATIBAIA ALIMENTOS ABATED AVES LTDA      048124457001106SUPERMERCADO RIVIERA LTDA               ESTRADA DO ALVARENGA, 1694              SAO PAULO                               04467000SP365660000100003928000175900   28062012900BRADESCO S/A        0208201200000000000259200CC                                                                                                                                                                                                                                                                                                                                                                                                         000038
1021421015830COBR_CAUC_COR  ATIBAIA ALIMENTOS ABATED AVES LTDA      048124457001106SUPERMERCADO RIVIERA LTDA               ESTRADA DO ALVARENGA, 1694              SAO PAULO                               04467000SP365660000200004169000175924   28062012900BRADESCO S/A        0208201200000000000122200CC                                                                                                                                                                                                                                                                                                                                                                                                         000039
1021421015830COBR_CAUC_COR  ATIBAIA ALIMENTOS ABATED AVES LTDA      048124457001106SUPERMERCADO RIVIERA LTDA               ESTRADA DO ALVARENGA, 1694              SAO PAULO                               04467000SP365660000300004266000175934   28062012900BRADESCO S/A        0208201200000000000221400CC                                                                                                                                                                                                                                                                                                                                                                                                         000040
1021421015830COBR_CAUC_COR  ATIBAIA ALIMENTOS ABATED AVES LTDA      048124457001106SUPERMERCADO RIVIERA LTDA               ESTRADA DO ALVARENGA, 1694              SAO PAULO                               04467000SP365660000400005378000176048   28062012900BRADESCO S/A        0208201200000000000066600CC                                                                                                                                                                                                                                                                                                                                                                                                         000041
1021421015830COBR_CAUC_COR  ATIBAIA ALIMENTOS ABATED AVES LTDA      048124457001106SUPERMERCADO RIVIERA LTDA               ESTRADA DO ALVARENGA, 1694              SAO PAULO                               04467000SP365660000500006676000177123   04072012900BRADESCO S/A        0808201200000000000097580CC                                                                                                                                                                                                                                                                                                                                                                                                         000042
1021421015830COBR_CAUC_COR  ATIBAIA ALIMENTOS ABATED AVES LTDA      048124457001106SUPERMERCADO RIVIERA LTDA               ESTRADA DO ALVARENGA, 1694              SAO PAULO                               04467000SP365660000600007117000177167   04072012900BRADESCO S/A        0808201200000000000114440CC                                                                                                                                                                                                                                                                                                                                                                                                         000043
1021421015830COBR_CAUC_COR  ATIBAIA ALIMENTOS ABATED AVES LTDA      048124457001106SUPERMERCADO RIVIERA LTDA               ESTRADA DO ALVARENGA, 1694              SAO PAULO                               04467000SP365660000700007630000177219   04072012900BRADESCO S/A        0808201200000000000227430CC                                                                                                                                                                                                                                                                                                                                                                                                         000044
1021421015830COBR_CAUC_COR  ATIBAIA ALIMENTOS ABATED AVES LTDA      005789313000607ENXUTO SUPERMERCADOS LTDA               RUA MONTE CASTELO, 289                  COSMOPOLIS                              13150000SP365670000100004053000175913   28062012900BRADESCO S/A        2607201200000000000476700CC                                                                                                                                                                                                                                                                                                                                                                                                         000045
1021421015830COBR_CAUC_COR  ATIBAIA ALIMENTOS ABATED AVES LTDA      005789313000607ENXUTO SUPERMERCADOS LTDA               RUA MONTE CASTELO, 289                  COSMOPOLIS                              13150000SP365670000200004568000175964   28062012900BRADESCO S/A        2607201200000000000353200CC                                                                                                                                                                                                                                                                                                                                                                                                         000046
1021421015830COBR_CAUC_COR  ATIBAIA ALIMENTOS ABATED AVES LTDA      005789313000607ENXUTO SUPERMERCADOS LTDA               RUA MONTE CASTELO, 289                  COSMOPOLIS                              13150000SP365670000300004576000175965   28062012900BRADESCO S/A        2607201200000000000116800CC                                                                                                                                                                                                                                                                                                                                                                                                         000047
1021421015830COBR_CAUC_COR  ATIBAIA ALIMENTOS ABATED AVES LTDA      005789313000607ENXUTO SUPERMERCADOS LTDA               RUA MONTE CASTELO, 289                  COSMOPOLIS                              13150000SP365670000400004622000175970   28062012900BRADESCO S/A        2607201200000000000237900CC                                                                                                                                                                                                                                                                                                                                                                                                         000048
1021421015830COBR_CAUC_COR  ATIBAIA ALIMENTOS ABATED AVES LTDA      071100432000546CENTRAL COML E IMPORTADORA LTDA         AV AFONSO PENA 622                      SANTOS                                  11020002SP365680000100004495000175957   28062012900BRADESCO S/A        2607201200000000001029000CC                                                                                                                                                                                                                                                                                                                                                                                                         000049
1021421015830COBR_CAUC_COR  ATIBAIA ALIMENTOS ABATED AVES LTDA      071100432000546CENTRAL COML E IMPORTADORA LTDA         AV AFONSO PENA 622                      SANTOS                                  11020002SP365680000200006161000177072   04072012900BRADESCO S/A        2507201200000000000185400CC                                                                                                                                                                                                                                                                                                                                                                                                         000050
1021421015830COBR_CAUC_COR  ATIBAIA ALIMENTOS ABATED AVES LTDA      007945562000157JOSE AUGUSTO DE MORAES PESSAMILIO       RUA MANOEL RODRIGUES, S/N               ITAPETININGA                            18217000SP365690000106341728000001143   27062012900BRADESCO S/A        2507201200000000002948400CC                                                                                                                                                                                                                                                                                                                                                                                                         000051
1016421016276DIR_CREDIT     CONSORCIO GAISSLER-DOS ARROYOS          076417005000186PM DE CURITIBA                          AV CANDIDO DE ABREU 815                 CURITIBA                                80530908PR3657000001                                                                                                                                          011872269           18052010000001468418966       31052012000403Execução de obras de infra estrutura das vias Fredolin Wolf / SaturninoMiranda / Domingos Antônio Moro / São Salvador, no trecho entre as Ruas Manoel Ribas e Nilo Peçanha.                                                                     012309038000120              000052
9000019                                                                                                                                                                                                                                                                                                                                                                                                                                                                                                                                                                                                                                                                                                               000053
