0REMESSANOTIFICACAO ELETRONICA        99999999999999BICBANCO                                AV. PAULISTA                            1048      12.ANDAR  BELA VISTA                    SAO PAULO                     01310100SP1121739360CORTINHAL                               COORDENADOR                             28112013                                                                                                                                                                                                                                                                                                                                                                                      000001
1007421072259COBR_CAUC_COR  BOMBRIL S/A                             082576604000145JORGE MOTTER & FILHOS LTDA              R RUDY BAYER 533                        TIJUCAS                                 88200000SC4542300001024618610849347001  26112013900BRADESCO S/A        1401201400000000010600590CC                                                                                                                                                                                                                                                                                                                                                                                                         000002
1018421015651COBR_CAUC_BIC  CMS PRODUTOS MEDICOS LTDA               060726502000126HOSPITAL ALEMAO OSWALDO CRUZ            RUA JOAO JULIAO, 331                    SAO PAULO                               01323903SP454250000103505077000084573   25112013007PAULISTA            2401201400000000010325000CC                                                                                                                                                                                                                                                                                                                                                                                                         000003
1014420939021COBR_CAUC_COR  EDITORA O DIA S/A                       033352394000104CIA EST.AGUAS E ESGOTO CEDAE            AV. PRESIDENTE VARGAS, 2655             RIO DE JANEIRO                          20210030RJ4542400001025378290705628     26112013900BRADESCO S/A        1512201300000000016000000CC                                                                                                                                                                                                                                                                                                                                                                                                         000004
1006421013565COBR_CAUC_COR  IMARF IND DE GRANITOS DO CEARA LTDA     001327233000166AXXO CONSTRUTORA LTDA                   AV CENTENARIO, 2411 SL 1401             SALVADOR                                40155151BA4542600001097378272083        25112013700BANCO REAL- ABN AMRO1012201300000000014000092CC                                                                                                                                                                                                                                                                                                                                                                                                         000005
9000004                                                                                                                                                                                                                                                                                                                                                                                                                                                                                                                                                                                                                                                                                                               000006
