0REMESSANOTIFICACAO ELETRONICA        99999999999999BICBANCO                                AV. PAULISTA                            1048      12.ANDAR  BELA VISTA                    SAO PAULO                     01310100SP1121739360CORTINHAL                               COORDENADOR                             27072012                                                                                                                                                                                                                                                                                                                                                                                      000001
1032420934675COBR_CAUC_COR  ELIANE S/A REVESTIMENTOS CERAMICOS      079812178000197KOERICH CONST E PARTIC LTDA             RUA VICTOR KONDER, 223                  FLORIANOPOLIS                           88015400SC367640000100835189DPL289993A  26072012900BRADESCO S/A        1709201200000000014019264CC                                                                                                                                                                                                                                                                                                                                                                                                         000002
1048421000338COBR_CAUC_COR  FRIGOESTRELA S.A. EM RECUP JUDICIAL     002886959000282MULT BEEF COMERCILA LTDA                AV DOM LUIZ DO AMARAL MOUSINHO500       BRODOWSKI                               14340000SP3676500001024567610075819901  25072012900BRADESCO S/A        1508201200000000010890000CC                                                                                                                                                                                                                                                                                                                                                                                                         000003
1048421000338COBR_CAUC_COR  FRIGOESTRELA S.A. EM RECUP JUDICIAL     050947761001871IRMAOS RUSSI LTDA                       RUA LUIS ALLI FARDYN590SALA 03          CAJAMAR                                 07750000SP3676600001024568410021234501  25072012900BRADESCO S/A        3008201200000000010489107CC                                                                                                                                                                                                                                                                                                                                                                                                         000004
1019421014068COBR_CAUC_COR  RIO BRANCO ALIMENTOS S/A                001928075002062DMA DISTRIBUIDORA S/A                   ROD BR 040 KM 531 180                   BELO HORIZONTE                          30855500MG3676700001001017330133690601  27062012900BRADESCO S/A        2707201200000000016601842CC                                                                                                                                                                                                                                                                                                                                                                                                         000005
9000004                                                                                                                                                                                                                                                                                                                                                                                                                                                                                                                                                                                                                                                                                                               000006
