0REMESSANOTIFICACAO ELETRONICA        99999999999999BICBANCO                                AV. PAULISTA                            1048      12.ANDAR  BELA VISTA                    SAO PAULO                     01310100SP1121739360CORTINHAL                               COORDENADOR                             25072011                                                                                                                                                                                                                                                                                                                                                                                      000001
1031421007893COBR_CAUC_BIC  DIPLOMATA S/A  INDL. E COMERCIAL        009418012000105TREND COMERCIO DE PRODUTOS ALIMENT      RUA DOUTOR OSVALDO ANHERT 00            CAMPINAS                                13034195SP2917500001049030200245758-01  21072011021CAMPINAS            1709201100000000013284000CC                                                                                                                                                                                                                                                                                                                                                                                                         000002
1037421007698COBR_CAUC_BIC  HOSP - LOG COM DE PROD HOSP LTDA        067838490000170CCC  CENTRO PRIVADO AO CANCER LTDA      AV. BRASIL, 678                         SAO PAULO                               01430000SP2917600001044940880121234 01  19072011007PAULISTA            1710201100000000018375914CC                                                                                                                                                                                                                                                                                                                                                                                                         000003
1008421022029DIR_CREDIT     L&B CONSULTORIA LTDA ME                 007963861000114PM DE PACATUBA                          R MAJOR CRISANTO ALMEIDA, 186           PACATUBA                                61800000CE2919400001                                                                                                                                          001131797           030120110000017371043/2010    22032011001211contratacao de servicos de locacao de maquina e veiculos.                                                                                                                                                                                       005495790000147              000004
1008421022029DIR_CREDIT     L&B CONSULTORIA LTDA ME                 007963861000114PM DE PACATUBA                          R MAJOR CRISANTO ALMEIDA, 186           PACATUBA                                61800000CE2919500001                                                                                                                                          001132186           030120110000017371043/2010    21022011001211contratacao de servicos de locacao de maquina e veiculos.                                                                                                                                                                                       005495790000147              000005
1008421022029DIR_CREDIT     L&B CONSULTORIA LTDA ME                 007963861000114PM DE PACATUBA                          R MAJOR CRISANTO ALMEIDA, 186           PACATUBA                                61800000CE2919600001                                                                                                                                          001132188           030120110000017371043/2010    02032011001211contratacao de servicos de locacao de maquina e veiculos.                                                                                                                                                                                       005495790000147              000006
9000005                                                                                                                                                                                                                                                                                                                                                                                                                                                                                                                                                                                                                                                                                                               000007
