0REMESSANOTIFICACAO ELETRONICA        99999999999999BICBANCO                                AV. PAULISTA                            1048      12.ANDAR  BELA VISTA                    SAO PAULO                     01310100SP1121739360CORTINHAL                               COORDENADOR                             20052014                                                                                                                                                                                                                                                                                                                                                                                      000001
1050421000089COBR_CAUC_BIC  ATIVO ALIMENTOS EXP E IMP EIRELI        011596442003427CARVALHO E FERNANDES LTDA               AVE DEPUTADO PAULO FERRAZ 4888          TERESINA                                64078820PI475950000100574189252284/1    17052014042SAO LUIS            1606201400000000014223390CC                                                                                                                                                                                                                                                                                                                                                                                                         000002
1046421000145COBR_CAUC_BIC  KOMLOG IMPORTACAO LTDA                  077044618000340BALAROTI - COMERCIO DE MATERIAIS D      AV DAS TORRES, 2697                     CURITIBA                                81610100PR475960000102389359139234-     16052014016CURITIBA            1309201400000000019255005CC                                                                                                                                                                                                                                                                                                                                                                                                         000003
1008421022487COBR_CAUC_COR  EBP - EMPRESA BRASILEIRA DE PESCADO     033304981000110SUPERMERCADOS MUNDIAL LTDA              RUA  DONA EMILIA, 2                     RIO DE JANEIRO                          20765110RJ4759700001017592660026365/    16052014900BRADESCO S/A        0506201400000000032263600CC                                                                                                                                                                                                                                                                                                                                                                                                         000004
9000003                                                                                                                                                                                                                                                                                                                                                                                                                                                                                                                                                                                                                                                                                                               000005
