0REMESSANOTIFICACAO ELETRONICA        99999999999999BICBANCO                                AV. PAULISTA                            1048      12.ANDAR  BELA VISTA                    SAO PAULO                     01310100SP1121739360CORTINHAL                               COORDENADOR                             05022013                                                                                                                                                                                                                                                                                                                                                                                      000001
1031421007850COBR_CAUC_BIC  AGRICOLA JANDELLE S/A                   010319375000172MULTI FORMATO DISTRIBUIDORA SOCIED      AVENIDA MANOEL JACINTO COELHO JUNIOR 901CONTAGEM                                32150245MG4006900001051743150010905201  01022013019BELO HORIZONTE      0703201300000000013232934CC                                                                                                                                                                                                                                                                                                                                                                                                         000002
1050421000089COBR_CAUC_BIC  ATIVO ALIMENTOS EXP E IMP EIRELI        028664456000337SUPERMERCADO CRISTAL LTDA               RUA ANTONIO JOSE BITTENCOURT 429        RIO DE JANEIRO                          26535000RJ400710000100423237175475/1    02022013014RIO DE JANEIRO      1602201300000000028990112CC                                                                                                                                                                                                                                                                                                                                                                                                         000003
1044421014794DIR_CREDIT     DROGUISTAS POTIGUARES REUNIDAS LTDA     008241754000145SECRETARIA DE ESTADO DA SAUDE PUBLICA   AV DEODORO DA FONSECA,730               NATAL                                   59025600RN3997200001                                                                                                                                          011655989           201220100000017099PE763/10    29112012000403fornecimento de medicamento á secretaria de saude.                     descrição: citrato sildenafila revatio 20mg cx c/90 cpr pfizer - lote 0716810 , qtde 285 - validade 01/2012                                                              008401564000148              000004
1044421014794DIR_CREDIT     DROGUISTAS POTIGUARES REUNIDAS LTDA     008241754000145SECRETARIA DE ESTADO DA SAUDE PUBLICA   AV DEODORO DA FONSECA,730               NATAL                                   59025600RN3997400001                                                                                                                                          011655989           061220100000017106011/09      29112012000403fornecimento de medicamento à secretaria de saúde.                                                                                                                                                                                              008401564000148              000005
1044421014794DIR_CREDIT     DROGUISTAS POTIGUARES REUNIDAS LTDA     008241754000145SECRETARIA DE ESTADO DA SAUDE PUBLICA   AV DEODORO DA FONSECA,730               NATAL                                   59025600RN3997300001                                                                                                                                          011655989           161120100000017104ATA PREçO 0329112012000403fornecimento de medicamentos à secretaria de saúde do estado do rn.                                                                                                                                                                             008401564000148              000006
1007421031242COBR_CAUC_BIC  GP GUARDA PATRIMONIAL DE S.P. LTDA      000007618080860JOSE OSWALDO RIBEIRO DE MENDONCA        RUA CRISTOVAO DINIZ  67                 SAO PAULO                               01426020SP40067000010007379188723       01022013007PAULISTA            0103201300000000011068990CC                                                                                                                                                                                                                                                                                                                                                                                                         000007
1020421002020COBR_CAUC_COR  GRABER SISTEMAS DE SEGURANCA LTDA       010588595000363MEDLEY COMERCIAL E LOGISTICA L          R ESTACIO DE SA, 1490 - JD SANTA GENEBRACAMPINAS                                13080010SP400660000100002899000004787   01022013900BRADESCO S/A        0103201300000000013332049CC                                                                                                                                                                                                                                                                                                                                                                                                         000008
1006420933059COBR_CAUC_BIC  IMARF BENEFICIAMENTO DE GRANITOS LT     000475251000122PAULO OCTAVIO INVESTIMENTOS IMOBIL      SCN QUADRA 01,125                       BRASILIA                                70711900DF4006800001093790842970        04022013009BRASILIA            0403201300000000010017108CC                                                                                                                                                                                                                                                                                                                                                                                                         000009
1007421061559COBR_CAUC_BIC  PLASCAR IND DE COMP PLAST LTDA          059275792000826GENERAL MOTORS DO BRASIL LTDA.          AV. GOIAS, 1805                         SAO CAETANO DO                          09550900SP4007000001017196520356425 01  05112012038ABC                 2204201300000000052383734CC                                                                                                                                                                                                                                                                                                                                                                                                         000010
9000009                                                                                                                                                                                                                                                                                                                                                                                                                                                                                                                                                                                                                                                                                                               000011
