0REMESSANOTIFICACAO ELETRONICA        99999999999999BICBANCO                                AV. PAULISTA                            1048      12.ANDAR  BELA VISTA                    SAO PAULO                     01310100SP1121739360CORTINHAL                               COORDENADOR                             15082013                                                                                                                                                                                                                                                                                                                                                                                      000001
1009421012831COBR_CAUC_COR  ASA ALIMENTOS S/A                       007387853000177GRANJA SALOME LTDA                      ROD. BR-262  KM 0                       BOM DESPACHO                            35600000MG4359600001001467190041522     14082013900BRADESCO S/A        1109201300000000012600000CC                                                                                                                                                                                                                                                                                                                                                                                                         000002
1046421006020COBR_CAUC_BIC  RUELL IMPORTACAO E EXPORTACAO LTDA      004744781000341ADM COM. DE ROUPAS LTDA                 ALAMEDA STO AMARO,326                   SAO PAULO                               04745001SP4359800001020587861989/01     17072013007PAULISTA            1301201400000000011982180CC                                                                                                                                                                                                                                                                                                                                                                                                         000003
1046421006658COBR_CAUC_COR  TRANSPORTES DALCOQUIO LTDA              007322382000119BSBIOS IND. COM. BIO SUL BRASIL S/      BR 285 , KM 174-0-BAIRRO-DIST.IND.      PASSO FUNDO                             99050000RS4359700001000164661301041786  13082013900BRADESCO S/A        0509201300000000015303476CC                                                                                                                                                                                                                                                                                                                                                                                                         000004
1046421006658COBR_CAUC_COR  TRANSPORTES DALCOQUIO LTDA              007322382000119BSBIOS IND. COM. BIO SUL BRASIL S/      BR 285 , KM 174-0-BAIRRO-DIST.IND.      PASSO FUNDO                             99050000RS4359700002000164741301041790  13082013900BRADESCO S/A        0509201300000000011496927CC                                                                                                                                                                                                                                                                                                                                                                                                         000005
9000003                                                                                                                                                                                                                                                                                                                                                                                                                                                                                                                                                                                                                                                                                                               000006
