0REMESSANOTIFICACAO ELETRONICA        99999999999999BICBANCO                                AV. PAULISTA                            1048      12.ANDAR  BELA VISTA                    SAO PAULO                     01310100SP1121739360CORTINHAL                               COORDENADOR                             03082011                                                                                                                                                                                                                                                                                                                                                                                      000001
1021420930887COBR_CAUC_BIC  DEDINI S/A INDUSTRIAS DE BASE           006538082000109ROUSSELOT GELATINAS DO BRASIL SA        RUA SANTO AGOSTINHO, 280                AMPARO                                  13908080SP294410000106176255156693-1-1  01082011021CAMPINAS            1908201100000000010450000CC                                                                                                                                                                                                                                                                                                                                                                                                         000002
1021420930887COBR_CAUC_BIC  DEDINI S/A INDUSTRIAS DE BASE           006538082000109ROUSSELOT GELATINAS DO BRASIL SA        RUA SANTO AGOSTINHO, 280                AMPARO                                  13908080SP294410000206176336156693-2-2  01082011021CAMPINAS            1909201100000000010450000CC                                                                                                                                                                                                                                                                                                                                                                                                         000003
1021420930887COBR_CAUC_BIC  DEDINI S/A INDUSTRIAS DE BASE           006538082000109ROUSSELOT GELATINAS DO BRASIL SA        RUA SANTO AGOSTINHO, 280                AMPARO                                  13908080SP294410000306176344156693-3-3  01082011021CAMPINAS            2909201100000000010450000CC                                                                                                                                                                                                                                                                                                                                                                                                         000004
1016421009571COBR_CAUC_BIC  IMPORTADORA DE FRUTAS LA VIOLETERA      037259223000269NOVA AMAZONAS IND COM IMPORTACAO D      JK TRECHO 1 S/N CJ 11 LOTE 3            BRASILIA                                70310500DF2944200001031347910013803101  28072011009BRASILIA            2508201100000000010048176CC                                                                                                                                                                                                                                                                                                                                                                                                         000005
1016421013250COBR_CAUC_COR  INSOL INTE.DO BRASIL IND E COM S/A      005553578000512ATLAS AGROINDUSTRIAL LTDA               AV JOAO NEVES VIEIRA,1071-SALA B        CATALAO                                 75706013GO2944300001031348712672/2      02082011800UNIBANCO S/A        2908201100000000024379250CC                                                                                                                                                                                                                                                                                                                                                                                                         000006
1016421013250COBR_CAUC_COR  INSOL INTE.DO BRASIL IND E COM S/A      005553578000512ATLAS AGROINDUSTRIAL LTDA               AV JOAO NEVES VIEIRA,1071-SALA B        CATALAO                                 75706013GO2944300002031348802672/3      02082011800UNIBANCO S/A        1209201100000000024750000CC                                                                                                                                                                                                                                                                                                                                                                                                         000007
1014421018213COBR_CAUC_COR  POWERTECH COMERCIAL LTDA.               084590892000118HERMASA NAVEGACAO DA AMAZONIA S/A       AV.DJALMA BATISTA ED.MILLENIU 1661      MANAUS                                  69050010AM294440000100037683266420A     27072011900BRADESCO S/A        0508201100000000012000000CC                                                                                                                                                                                                                                                                                                                                                                                                         000008
1014421018213COBR_CAUC_COR  POWERTECH COMERCIAL LTDA.               084590892000118HERMASA NAVEGACAO DA AMAZONIA S/A       AV.DJALMA BATISTA ED.MILLENIU 1661      MANAUS                                  69050010AM294440000200037691266421A     27072011900BRADESCO S/A        0508201100000000012000000CC                                                                                                                                                                                                                                                                                                                                                                                                         000009
1007421053076COBR_CAUC_BIC  WORLD TRACTOR COML IMP LTDA             033042730001348CIA SIDERURGICA NACIONAL                RUA ENG FRANCISCO PITTA BRITTO,138      SAO PAULO                               04753900SP2944500001007120773441        02082011007PAULISTA            1009201100000000015976320CC                                                                                                                                                                                                                                                                                                                                                                                                         000010
1044421009251DIR_CREDIT     BD ENERGIA LTDA                         008334385000135COMPANHIA DE AGUAS E ESGOTOS DO RN      AV. SENADOR SALGADO FILHO, 1555         NATAL                                   59000000RN2945700001                                                                                                                                          481016491           23082010000001911710.0122     30062011000404EXECUÇÃO DOS SERV DE RECUPERAÇÃO DE CONJUNTOS MOTOBOMBAS SBMERSIVEIS PARA POÇOS DE VARIAS CIDADES DA REGIONAL DE MOSSORO/RN.                                                                                                                    040765455000112              000011
9000006                                                                                                                                                                                                                                                                                                                                                                                                                                                                                                                                                                                                                                                                                                               000012
