0REMESSANOTIFICACAO ELETRONICA        99999999999999BICBANCO                                AV. PAULISTA                            1048      12.ANDAR  BELA VISTA                    SAO PAULO                     01310100SP1121739360CORTINHAL                               COORDENADOR                             27082012                                                                                                                                                                                                                                                                                                                                                                                      000001
1008421002710DIR_CREDIT     OCS MIN E EMPREENDIMENTOS LTDA          034230979005418SUPERMIX CONCRETO S/A                   R PROF. JOSE VIEIRA DE MENDONçA, 1121   BELO HORIZONTE                          31310260MG3739000001                                                                                                                                          481026873           100120070000012817            22082012000404fornecimento de material produzido pela OCS-Mineração e EmpreendimentosLtda,a saber Brita 19mm,Brita 9,5mm e areia grossa de Brita,todos fornecidos e oferecidos em forma de tonelada.                                                          007323439000102              000002
1013421019571DIR_CREDIT     JPNOR ENGENHARIA LTDA                   042150391000170BRASKEM S/A                             RUA ETENO,1561-POLO PETROQUIMICO        CAMAçARI                                42800000BA3742900001                                                                                                                                          481025814           10022010000001798510108/2009  23082012000404Elaboração de projetos conceituais, de engenharia básica, de detalhamento de projeto, de automação, estudos técnicos e estudos de viabilidade.                                                                                                  001531864000100              000003
1021420930887COBR_CAUC_BIC  DEDINI S/A INDUSTRIAS DE BASE           075717355001177USINA DE ACUCAR SANTA TEREZINHA LT      AV MARCELO MESSIAS BUSIQUIA 847 PQ INDUSMARINGA                                 87065006PR374380000106353092188771-1-1  22082012016CURITIBA            3008201200000000019698677CC                                                                                                                                                                                                                                                                                                                                                                                                         000004
1021420930887COBR_CAUC_BIC  DEDINI S/A INDUSTRIAS DE BASE           075717355001177USINA DE ACUCAR SANTA TEREZINHA LT      AV MARCELO MESSIAS BUSIQUIA 847 PQ INDUSMARINGA                                 87065006PR374380000206353114188354-1-1  21082012016CURITIBA            3008201200000000017135932CC                                                                                                                                                                                                                                                                                                                                                                                                         000005
1021420930887COBR_CAUC_BIC  DEDINI S/A INDUSTRIAS DE BASE           075717355001177USINA DE ACUCAR SANTA TEREZINHA LT      AV MARCELO MESSIAS BUSIQUIA 847 PQ INDUSMARINGA                                 87065006PR374380000306353131188011-1-1  20082012016CURITIBA            3008201200000000011199712CC                                                                                                                                                                                                                                                                                                                                                                                                         000006
1021420930887COBR_CAUC_BIC  DEDINI S/A INDUSTRIAS DE BASE           075717355001177USINA DE ACUCAR SANTA TEREZINHA LT      AV MARCELO MESSIAS BUSIQUIA 847 PQ INDUSMARINGA                                 87065006PR374380000406353157188352-1-1  20082012016CURITIBA            3008201200000000031709314CC                                                                                                                                                                                                                                                                                                                                                                                                         000007
1021420930887COBR_CAUC_BIC  DEDINI S/A INDUSTRIAS DE BASE           075717355001177USINA DE ACUCAR SANTA TEREZINHA LT      AV MARCELO MESSIAS BUSIQUIA 847 PQ INDUSMARINGA                                 87065006PR374380000506353190189295-1-1  20082012016CURITIBA            3008201200000000020242440CC                                                                                                                                                                                                                                                                                                                                                                                                         000008
1021420930887COBR_CAUC_BIC  DEDINI S/A INDUSTRIAS DE BASE           075717355001177USINA DE ACUCAR SANTA TEREZINHA LT      AV MARCELO MESSIAS BUSIQUIA 847 PQ INDUSMARINGA                                 87065006PR374380000606353211188231-1-1  20082012016CURITIBA            3008201200000000017066416CC                                                                                                                                                                                                                                                                                                                                                                                                         000009
1022421007886COBR_CAUC_COR  COOPERCITRUS COOP. DE PROD. RURAIS      055859656000156SEMENTES ESPERANCA COM.IMP.EXP.LTD      RUA ANTONIO GUERREIRO,00050             JABOTICABAL                             14876270SP374390000100000921019031467   22082012900BRADESCO S/A        1505201300000000031437016CC                                                                                                                                                                                                                                                                                                                                                                                                         000010
1016421006424COBR_CAUC_COR  BOUTIN FERTILIZANTES LTDA               007113113000142SOLOS E IND E COM DE FERTILIZANTES      ROD BR 376 ,115-KM 115,5                IVINHEMA                                79740000MS37440000010366444727954       23082012800UNIBANCO S/A        1902201300000000011181400CC                                                                                                                                                                                                                                                                                                                                                                                                         000011
1016421006424COBR_CAUC_COR  BOUTIN FERTILIZANTES LTDA               007113113000142SOLOS E IND E COM DE FERTILIZANTES      ROD BR 376 ,115-KM 115,5                IVINHEMA                                79740000MS37440000020366445527956       23082012800UNIBANCO S/A        1902201300000000013216400CC                                                                                                                                                                                                                                                                                                                                                                                                         000012
1048421001938COBR_CAUC_COR  SERVIMED COMERCIAL LTDA                 006880016000112LIGMED COM DE MEDS LTDA                 AV T2 1820                              GOIANIA                                 74215010GO374410000100191930317184  16  23082012900BRADESCO S/A        2009201200000000017021094CC                                                                                                                                                                                                                                                                                                                                                                                                         000013
1038421011812COBR_CAUC_BIC  ENERGY COML IMPORT E EXPORT LTDA        009363567000105PREMIX BRASIL RESINAS LTDA              AL ARAGUAIA,2044                        BARUERI                                 06455000SP374420000109812595001597      22082012007PAULISTA            0610201200000000014139787CC                                                                                                                                                                                                                                                                                                                                                                                                         000014
1038421011812COBR_CAUC_BIC  ENERGY COML IMPORT E EXPORT LTDA        009363567000105PREMIX BRASIL RESINAS LTDA              AL ARAGUAIA,2044                        BARUERI                                 06455000SP374420000209812609001598      22082012007PAULISTA            0610201200000000013833504CC                                                                                                                                                                                                                                                                                                                                                                                                         000015
1038421011812COBR_CAUC_BIC  ENERGY COML IMPORT E EXPORT LTDA        009363567000105PREMIX BRASIL RESINAS LTDA              AL ARAGUAIA,2044                        BARUERI                                 06455000SP374420000309812617001599      22082012007PAULISTA            0610201200000000013986646CC                                                                                                                                                                                                                                                                                                                                                                                                         000016
1038421011812COBR_CAUC_BIC  ENERGY COML IMPORT E EXPORT LTDA        009363567000105PREMIX BRASIL RESINAS LTDA              AL ARAGUAIA,2044                        BARUERI                                 06455000SP374420000409812625001600      22082012007PAULISTA            0610201200000000013986646CC                                                                                                                                                                                                                                                                                                                                                                                                         000017
1038421011812COBR_CAUC_BIC  ENERGY COML IMPORT E EXPORT LTDA        009363567000105PREMIX BRASIL RESINAS LTDA              AL ARAGUAIA,2044                        BARUERI                                 06455000SP374420000509812633001601      22082012007PAULISTA            0610201200000000013833505CC                                                                                                                                                                                                                                                                                                                                                                                                         000018
1038421011812COBR_CAUC_BIC  ENERGY COML IMPORT E EXPORT LTDA        009363567000105PREMIX BRASIL RESINAS LTDA              AL ARAGUAIA,2044                        BARUERI                                 06455000SP374420000609812641001602      22082012007PAULISTA            0610201200000000013833505CC                                                                                                                                                                                                                                                                                                                                                                                                         000019
1038421011812COBR_CAUC_BIC  ENERGY COML IMPORT E EXPORT LTDA        009363567000105PREMIX BRASIL RESINAS LTDA              AL ARAGUAIA,2044                        BARUERI                                 06455000SP374420000709812650001603      22082012007PAULISTA            0610201200000000013833505CC                                                                                                                                                                                                                                                                                                                                                                                                         000020
1038421011812COBR_CAUC_BIC  ENERGY COML IMPORT E EXPORT LTDA        009363567000105PREMIX BRASIL RESINAS LTDA              AL ARAGUAIA,2044                        BARUERI                                 06455000SP374420000809812668001604      22082012007PAULISTA            0610201200000000013833505CC                                                                                                                                                                                                                                                                                                                                                                                                         000021
1018421008680COBR_CAUC_BIC  CMS PRODUTOS MEDICOS LTDA               046009718000140HOSPITAL VERA CRUZ S A                  AV ANDRADE NEVES,402                    CAMPINAS                                13013900SP374430000102873170000055064   23082012021CAMPINAS            1810201200000000010609600CC                                                                                                                                                                                                                                                                                                                                                                                                         000022
1048421000613COBR_CAUC_BIC  TRIANGULO ALIMENTOS LTDA                016417331000161VETERAN COMERCIO DE ALIMENTOS E GO      AV.MARECHAL FIUZA DE CASTRO, 228 - SL 03SAO PAULO                               05596000SP374690000100591148043879-1    24072012007PAULISTA            3008201200000000001641063CC                                                                                                                                                                                                                                                                                                                                                                                                         000023
1048421000613COBR_CAUC_BIC  TRIANGULO ALIMENTOS LTDA                016417331000161VETERAN COMERCIO DE ALIMENTOS E GO      AV.MARECHAL FIUZA DE CASTRO, 228 - SL 03SAO PAULO                               05596000SP374690000200591156043879-2    24072012007PAULISTA            0609201200000000001641063CC                                                                                                                                                                                                                                                                                                                                                                                                         000024
1048421000613COBR_CAUC_BIC  TRIANGULO ALIMENTOS LTDA                016417331000161VETERAN COMERCIO DE ALIMENTOS E GO      AV.MARECHAL FIUZA DE CASTRO, 228 - SL 03SAO PAULO                               05596000SP374690000300593043044326-2    30072012007PAULISTA            0309201200000000003149125CC                                                                                                                                                                                                                                                                                                                                                                                                         000025
1048421000613COBR_CAUC_BIC  TRIANGULO ALIMENTOS LTDA                016417331000161VETERAN COMERCIO DE ALIMENTOS E GO      AV.MARECHAL FIUZA DE CASTRO, 228 - SL 03SAO PAULO                               05596000SP374690000400594112044327-1    30072012007PAULISTA            2808201200000000003164875CC                                                                                                                                                                                                                                                                                                                                                                                                         000026
1048421000613COBR_CAUC_BIC  TRIANGULO ALIMENTOS LTDA                016417331000161VETERAN COMERCIO DE ALIMENTOS E GO      AV.MARECHAL FIUZA DE CASTRO, 228 - SL 03SAO PAULO                               05596000SP374690000500594121044327-2    30072012007PAULISTA            0409201200000000003164875CC                                                                                                                                                                                                                                                                                                                                                                                                         000027
1048421000613COBR_CAUC_BIC  TRIANGULO ALIMENTOS LTDA                016417331000161VETERAN COMERCIO DE ALIMENTOS E GO      AV.MARECHAL FIUZA DE CASTRO, 228 - SL 03SAO PAULO                               05596000SP374690000600594767044547-1    02082012007PAULISTA            0509201200000000003167500CC                                                                                                                                                                                                                                                                                                                                                                                                         000028
1048421000613COBR_CAUC_BIC  TRIANGULO ALIMENTOS LTDA                016417331000161VETERAN COMERCIO DE ALIMENTOS E GO      AV.MARECHAL FIUZA DE CASTRO, 228 - SL 03SAO PAULO                               05596000SP374690000700594775044547-2    02082012007PAULISTA            1209201200000000003167500CC                                                                                                                                                                                                                                                                                                                                                                                                         000029
1048421000613COBR_CAUC_BIC  TRIANGULO ALIMENTOS LTDA                016417331000161VETERAN COMERCIO DE ALIMENTOS E GO      AV.MARECHAL FIUZA DE CASTRO, 228 - SL 03SAO PAULO                               05596000SP374690000800594805044555-1    02082012007PAULISTA            0609201200000000003194625CC                                                                                                                                                                                                                                                                                                                                                                                                         000030
1048421000613COBR_CAUC_BIC  TRIANGULO ALIMENTOS LTDA                016417331000161VETERAN COMERCIO DE ALIMENTOS E GO      AV.MARECHAL FIUZA DE CASTRO, 228 - SL 03SAO PAULO                               05596000SP374690000900594813044555-2    02082012007PAULISTA            1309201200000000003194625CC                                                                                                                                                                                                                                                                                                                                                                                                         000031
1048421000613COBR_CAUC_COR  TRIANGULO ALIMENTOS LTDA                013940074000150S T COMERCIO E DISTRIBUIDORA DE AL      RUA GRAVATA, 36                         ILHA DE ITAMARA                         53900000PE374700000100590885042889-2    12072012900BRADESCO S/A        3108201200000000002466200CC                                                                                                                                                                                                                                                                                                                                                                                                         000032
1048421000613COBR_CAUC_COR  TRIANGULO ALIMENTOS LTDA                013940074000150S T COMERCIO E DISTRIBUIDORA DE AL      RUA GRAVATA, 36                         ILHA DE ITAMARA                         53900000PE374700000200590893042889-3    12072012900BRADESCO S/A        0609201200000000002466200CC                                                                                                                                                                                                                                                                                                                                                                                                         000033
1048421000613COBR_CAUC_COR  TRIANGULO ALIMENTOS LTDA                013940074000150S T COMERCIO E DISTRIBUIDORA DE AL      RUA GRAVATA, 36                         ILHA DE ITAMARA                         53900000PE374700000300590907042889-4    12072012900BRADESCO S/A        1409201200000000002466200CC                                                                                                                                                                                                                                                                                                                                                                                                         000034
1048421000613COBR_CAUC_COR  TRIANGULO ALIMENTOS LTDA                013940074000150S T COMERCIO E DISTRIBUIDORA DE AL      RUA GRAVATA, 36                         ILHA DE ITAMARA                         53900000PE374700000400590915042889-5    12072012900BRADESCO S/A        2109201200000000002466200CC                                                                                                                                                                                                                                                                                                                                                                                                         000035
1048421000613COBR_CAUC_COR  TRIANGULO ALIMENTOS LTDA                013940074000150S T COMERCIO E DISTRIBUIDORA DE AL      RUA GRAVATA, 36                         ILHA DE ITAMARA                         53900000PE374700000500591369043487-3    19072012900BRADESCO S/A        1009201200000000003111000CC                                                                                                                                                                                                                                                                                                                                                                                                         000036
1048421000613COBR_CAUC_COR  TRIANGULO ALIMENTOS LTDA                013940074000150S T COMERCIO E DISTRIBUIDORA DE AL      RUA GRAVATA, 36                         ILHA DE ITAMARA                         53900000PE374700000600592322044325-1    30072012900BRADESCO S/A        0409201200000000003082750CC                                                                                                                                                                                                                                                                                                                                                                                                         000037
1048421000613COBR_CAUC_COR  TRIANGULO ALIMENTOS LTDA                013940074000150S T COMERCIO E DISTRIBUIDORA DE AL      RUA GRAVATA, 36                         ILHA DE ITAMARA                         53900000PE374700000700592331044325-2    30072012900BRADESCO S/A        1109201200000000003082750CC                                                                                                                                                                                                                                                                                                                                                                                                         000038
1048421000613COBR_CAUC_COR  TRIANGULO ALIMENTOS LTDA                013940074000150S T COMERCIO E DISTRIBUIDORA DE AL      RUA GRAVATA, 36                         ILHA DE ITAMARA                         53900000PE374700000800592349044325-3    30072012900BRADESCO S/A        1809201200000000003082750CC                                                                                                                                                                                                                                                                                                                                                                                                         000039
1048421000613COBR_CAUC_COR  TRIANGULO ALIMENTOS LTDA                013940074000150S T COMERCIO E DISTRIBUIDORA DE AL      RUA GRAVATA, 36                         ILHA DE ITAMARA                         53900000PE374700000900592357044325-4    30072012900BRADESCO S/A        2509201200000000003082750CC                                                                                                                                                                                                                                                                                                                                                                                                         000040
1048421000613COBR_CAUC_COR  TRIANGULO ALIMENTOS LTDA                013940074000150S T COMERCIO E DISTRIBUIDORA DE AL      RUA GRAVATA, 36                         ILHA DE ITAMARA                         53900000PE374700001000594155044998-1    08082012900BRADESCO S/A        1209201200000000003082750CC                                                                                                                                                                                                                                                                                                                                                                                                         000041
1048421000613COBR_CAUC_COR  TRIANGULO ALIMENTOS LTDA                013940074000150S T COMERCIO E DISTRIBUIDORA DE AL      RUA GRAVATA, 36                         ILHA DE ITAMARA                         53900000PE374700001100594163044998-2    08082012900BRADESCO S/A        1909201200000000003082750CC                                                                                                                                                                                                                                                                                                                                                                                                         000042
1048421000613COBR_CAUC_COR  TRIANGULO ALIMENTOS LTDA                013940074000150S T COMERCIO E DISTRIBUIDORA DE AL      RUA GRAVATA, 36                         ILHA DE ITAMARA                         53900000PE374700001200594171044998-3    08082012900BRADESCO S/A        2609201200000000003082750CC                                                                                                                                                                                                                                                                                                                                                                                                         000043
1048421000613COBR_CAUC_COR  TRIANGULO ALIMENTOS LTDA                013940074000150S T COMERCIO E DISTRIBUIDORA DE AL      RUA GRAVATA, 36                         ILHA DE ITAMARA                         53900000PE374700001300594180044998-4    08082012900BRADESCO S/A        0310201200000000003082750CC                                                                                                                                                                                                                                                                                                                                                                                                         000044
1048421000613COBR_CAUC_COR  TRIANGULO ALIMENTOS LTDA                014674708000132ROMA -  COMERCIO DE OLEOS E GORDUR      RUA CORONEL JOSE BRAS, 1637             MARILIA                                 17502010SP374720000100590818042669-3    10072012900BRADESCO S/A        2808201200000000002190197CC                                                                                                                                                                                                                                                                                                                                                                                                         000045
1048421000613COBR_CAUC_COR  TRIANGULO ALIMENTOS LTDA                014674708000132ROMA -  COMERCIO DE OLEOS E GORDUR      RUA CORONEL JOSE BRAS, 1637             MARILIA                                 17502010SP374720000200591377043758-1    23072012900BRADESCO S/A        0409201200000000003167500CC                                                                                                                                                                                                                                                                                                                                                                                                         000046
1048421000613COBR_CAUC_COR  TRIANGULO ALIMENTOS LTDA                014674708000132ROMA -  COMERCIO DE OLEOS E GORDUR      RUA CORONEL JOSE BRAS, 1637             MARILIA                                 17502010SP374720000300591385043758-2    23072012900BRADESCO S/A        1109201200000000003167500CC                                                                                                                                                                                                                                                                                                                                                                                                         000047
1048421000613COBR_CAUC_COR  TRIANGULO ALIMENTOS LTDA                014674708000132ROMA -  COMERCIO DE OLEOS E GORDUR      RUA CORONEL JOSE BRAS, 1637             MARILIA                                 17502010SP374720000400594287044292-1    30072012900BRADESCO S/A        0509201200000000003150875CC                                                                                                                                                                                                                                                                                                                                                                                                         000048
1048421000613COBR_CAUC_COR  TRIANGULO ALIMENTOS LTDA                014674708000132ROMA -  COMERCIO DE OLEOS E GORDUR      RUA CORONEL JOSE BRAS, 1637             MARILIA                                 17502010SP374720000500594295044292-2    30072012900BRADESCO S/A        1209201200000000003150875CC                                                                                                                                                                                                                                                                                                                                                                                                         000049
1048421000613COBR_CAUC_COR  TRIANGULO ALIMENTOS LTDA                014674708000132ROMA -  COMERCIO DE OLEOS E GORDUR      RUA CORONEL JOSE BRAS, 1637             MARILIA                                 17502010SP374720000600594732044545-1    02082012900BRADESCO S/A        1109201200000000006440000CC                                                                                                                                                                                                                                                                                                                                                                                                         000050
1048421000613COBR_CAUC_COR  TRIANGULO ALIMENTOS LTDA                014674708000132ROMA -  COMERCIO DE OLEOS E GORDUR      RUA CORONEL JOSE BRAS, 1637             MARILIA                                 17502010SP374720000700594864044559-1    02082012900BRADESCO S/A        1309201200000000003253250CC                                                                                                                                                                                                                                                                                                                                                                                                         000051
1048421000613COBR_CAUC_COR  TRIANGULO ALIMENTOS LTDA                014674708000132ROMA -  COMERCIO DE OLEOS E GORDUR      RUA CORONEL JOSE BRAS, 1637             MARILIA                                 17502010SP374720000800594872044559-2    02082012900BRADESCO S/A        2009201200000000003253250CC                                                                                                                                                                                                                                                                                                                                                                                                         000052
1048421000613COBR_CAUC_COR  TRIANGULO ALIMENTOS LTDA                014674708000132ROMA -  COMERCIO DE OLEOS E GORDUR      RUA CORONEL JOSE BRAS, 1637             MARILIA                                 17502010SP374720000900597022044566-1    02082012900BRADESCO S/A        1209201200000000003277750CC                                                                                                                                                                                                                                                                                                                                                                                                         000053
1048421000613COBR_CAUC_COR  TRIANGULO ALIMENTOS LTDA                014674708000132ROMA -  COMERCIO DE OLEOS E GORDUR      RUA CORONEL JOSE BRAS, 1637             MARILIA                                 17502010SP374720001000597031044566-2    02082012900BRADESCO S/A        1909201200000000003277750CC                                                                                                                                                                                                                                                                                                                                                                                                         000054
1048421000613COBR_CAUC_COR  TRIANGULO ALIMENTOS LTDA                014674708000132ROMA -  COMERCIO DE OLEOS E GORDUR      RUA CORONEL JOSE BRAS, 1637             MARILIA                                 17502010SP374720001100597049044577-1    02082012900BRADESCO S/A        1309201200000000003247125CC                                                                                                                                                                                                                                                                                                                                                                                                         000055
1048421000613COBR_CAUC_COR  TRIANGULO ALIMENTOS LTDA                014674708000132ROMA -  COMERCIO DE OLEOS E GORDUR      RUA CORONEL JOSE BRAS, 1637             MARILIA                                 17502010SP374720001200597057044577-2    02082012900BRADESCO S/A        2009201200000000003247125CC                                                                                                                                                                                                                                                                                                                                                                                                         000056
1048421000613COBR_CAUC_COR  TRIANGULO ALIMENTOS LTDA                014674708000132ROMA -  COMERCIO DE OLEOS E GORDUR      RUA CORONEL JOSE BRAS, 1637             MARILIA                                 17502010SP374720001300599947044977-1    08082012900BRADESCO S/A        2009201200000000002100420CC                                                                                                                                                                                                                                                                                                                                                                                                         000057
1048421000613COBR_CAUC_COR  TRIANGULO ALIMENTOS LTDA                014674708000132ROMA -  COMERCIO DE OLEOS E GORDUR      RUA CORONEL JOSE BRAS, 1637             MARILIA                                 17502010SP374720001400599955044977-2    08082012900BRADESCO S/A        2709201200000000002099790CC                                                                                                                                                                                                                                                                                                                                                                                                         000058
1048421000613COBR_CAUC_COR  TRIANGULO ALIMENTOS LTDA                014674708000132ROMA -  COMERCIO DE OLEOS E GORDUR      RUA CORONEL JOSE BRAS, 1637             MARILIA                                 17502010SP374720001500599963044977-3    08082012900BRADESCO S/A        0410201200000000002099790CC                                                                                                                                                                                                                                                                                                                                                                                                         000059
1048421000613COBR_CAUC_COR  TRIANGULO ALIMENTOS LTDA                014674708000132ROMA -  COMERCIO DE OLEOS E GORDUR      RUA CORONEL JOSE BRAS, 1637             MARILIA                                 17502010SP374720001600600961044984-1    08082012900BRADESCO S/A        1809201200000000003245375CC                                                                                                                                                                                                                                                                                                                                                                                                         000060
1048421000613COBR_CAUC_COR  TRIANGULO ALIMENTOS LTDA                014674708000132ROMA -  COMERCIO DE OLEOS E GORDUR      RUA CORONEL JOSE BRAS, 1637             MARILIA                                 17502010SP374720001700600970044984-2    08082012900BRADESCO S/A        2509201200000000003245375CC                                                                                                                                                                                                                                                                                                                                                                                                         000061
1048421000613COBR_CAUC_BIC  TRIANGULO ALIMENTOS LTDA                008778562000172RACINE DO BRASIL PRODUTOS ALIMENTI      R GUANABARA, 296                        SANTANA DE PARN                         06529220SP374730000100591431043882-2    24072012007PAULISTA            2908201200000000004484552CC                                                                                                                                                                                                                                                                                                                                                                                                         000062
1048421000613COBR_CAUC_BIC  TRIANGULO ALIMENTOS LTDA                008778562000172RACINE DO BRASIL PRODUTOS ALIMENTI      R GUANABARA, 296                        SANTANA DE PARN                         06529220SP374730000200591440043882-3    24072012007PAULISTA            0509201200000000004484551CC                                                                                                                                                                                                                                                                                                                                                                                                         000063
1048421000613COBR_CAUC_BIC  TRIANGULO ALIMENTOS LTDA                008778562000172RACINE DO BRASIL PRODUTOS ALIMENTI      R GUANABARA, 296                        SANTANA DE PARN                         06529220SP374730000300591458044001-1    25072012007PAULISTA            0909201200000000005058000CC                                                                                                                                                                                                                                                                                                                                                                                                         000064
1048421000613COBR_CAUC_BIC  TRIANGULO ALIMENTOS LTDA                008778562000172RACINE DO BRASIL PRODUTOS ALIMENTI      R GUANABARA, 296                        SANTANA DE PARN                         06529220SP374730000400593230044088-1    26072012007PAULISTA            3008201200000000004404047CC                                                                                                                                                                                                                                                                                                                                                                                                         000065
1048421000613COBR_CAUC_BIC  TRIANGULO ALIMENTOS LTDA                008778562000172RACINE DO BRASIL PRODUTOS ALIMENTI      R GUANABARA, 296                        SANTANA DE PARN                         06529220SP374730000500593248044088-2    26072012007PAULISTA            0609201200000000004402726CC                                                                                                                                                                                                                                                                                                                                                                                                         000066
1048421000613COBR_CAUC_BIC  TRIANGULO ALIMENTOS LTDA                008778562000172RACINE DO BRASIL PRODUTOS ALIMENTI      R GUANABARA, 296                        SANTANA DE PARN                         06529220SP374730000600593256044088-3    26072012007PAULISTA            1309201200000000004402727CC                                                                                                                                                                                                                                                                                                                                                                                                         000067
1048421000613COBR_CAUC_BIC  TRIANGULO ALIMENTOS LTDA                008778562000172RACINE DO BRASIL PRODUTOS ALIMENTI      R GUANABARA, 296                        SANTANA DE PARN                         06529220SP374730000700593981044513-1    01082012007PAULISTA            0309201200000000004575915CC                                                                                                                                                                                                                                                                                                                                                                                                         000068
1048421000613COBR_CAUC_BIC  TRIANGULO ALIMENTOS LTDA                008778562000172RACINE DO BRASIL PRODUTOS ALIMENTI      R GUANABARA, 296                        SANTANA DE PARN                         06529220SP374730000800593990044513-2    01082012007PAULISTA            1009201200000000004574543CC                                                                                                                                                                                                                                                                                                                                                                                                         000069
1048421000613COBR_CAUC_BIC  TRIANGULO ALIMENTOS LTDA                008778562000172RACINE DO BRASIL PRODUTOS ALIMENTI      R GUANABARA, 296                        SANTANA DE PARN                         06529220SP374730000900594007044513-3    01082012007PAULISTA            1709201200000000004574542CC                                                                                                                                                                                                                                                                                                                                                                                                         000070
1048421000613COBR_CAUC_BIC  TRIANGULO ALIMENTOS LTDA                008778562000172RACINE DO BRASIL PRODUTOS ALIMENTI      R GUANABARA, 296                        SANTANA DE PARN                         06529220SP374730001000594341044617-1    02082012007PAULISTA            1209201200000000006042000CC                                                                                                                                                                                                                                                                                                                                                                                                         000071
1048421000613COBR_CAUC_BIC  TRIANGULO ALIMENTOS LTDA                008778562000172RACINE DO BRASIL PRODUTOS ALIMENTI      R GUANABARA, 296                        SANTANA DE PARN                         06529220SP374730001100599866044972-1    08082012007PAULISTA            2509201200000000005929700CC                                                                                                                                                                                                                                                                                                                                                                                                         000072
1048421000613COBR_CAUC_BIC  TRIANGULO ALIMENTOS LTDA                008778562000172RACINE DO BRASIL PRODUTOS ALIMENTI      R GUANABARA, 296                        SANTANA DE PARN                         06529220SP374730001200599874045073-1    09082012007PAULISTA            2809201200000000006042000CC                                                                                                                                                                                                                                                                                                                                                                                                         000073
1048421000613COBR_CAUC_COR  TRIANGULO ALIMENTOS LTDA                002698989000184FONT COM. E REP. DE OLEOS LTDA          RUA 7 DE SETEMBRO, 993 SALA 10          BARIRI                                  17250000SP374740000100590397043493-1    19072012900BRADESCO S/A        2908201200000000003102750CC                                                                                                                                                                                                                                                                                                                                                                                                         000074
1048421000613COBR_CAUC_COR  TRIANGULO ALIMENTOS LTDA                002698989000184FONT COM. E REP. DE OLEOS LTDA          RUA 7 DE SETEMBRO, 993 SALA 10          BARIRI                                  17250000SP374740000200590401043493-2    19072012900BRADESCO S/A        0509201200000000003102750CC                                                                                                                                                                                                                                                                                                                                                                                                         000075
1048421000613COBR_CAUC_COR  TRIANGULO ALIMENTOS LTDA                002698989000184FONT COM. E REP. DE OLEOS LTDA          RUA 7 DE SETEMBRO, 993 SALA 10          BARIRI                                  17250000SP374740000300590419043493-3    19072012900BRADESCO S/A        1209201200000000003102750CC                                                                                                                                                                                                                                                                                                                                                                                                         000076
1048421000613COBR_CAUC_COR  TRIANGULO ALIMENTOS LTDA                002698989000184FONT COM. E REP. DE OLEOS LTDA          RUA 7 DE SETEMBRO, 993 SALA 10          BARIRI                                  17250000SP374740000400590427043493-4    19072012900BRADESCO S/A        1909201200000000003102750CC                                                                                                                                                                                                                                                                                                                                                                                                         000077
1048421000613COBR_CAUC_COR  TRIANGULO ALIMENTOS LTDA                002698989000184FONT COM. E REP. DE OLEOS LTDA          RUA 7 DE SETEMBRO, 993 SALA 10          BARIRI                                  17250000SP374740000500591164043880-1    24072012900BRADESCO S/A        3008201200000000003326250CC                                                                                                                                                                                                                                                                                                                                                                                                         000078
1048421000613COBR_CAUC_COR  TRIANGULO ALIMENTOS LTDA                002698989000184FONT COM. E REP. DE OLEOS LTDA          RUA 7 DE SETEMBRO, 993 SALA 10          BARIRI                                  17250000SP374740000600591172043880-2    24072012900BRADESCO S/A        0609201200000000003326250CC                                                                                                                                                                                                                                                                                                                                                                                                         000079
1048421000613COBR_CAUC_COR  TRIANGULO ALIMENTOS LTDA                002698989000184FONT COM. E REP. DE OLEOS LTDA          RUA 7 DE SETEMBRO, 993 SALA 10          BARIRI                                  17250000SP374740000700591181043880-3    24072012900BRADESCO S/A        1309201200000000003326250CC                                                                                                                                                                                                                                                                                                                                                                                                         000080
1048421000613COBR_CAUC_COR  TRIANGULO ALIMENTOS LTDA                002698989000184FONT COM. E REP. DE OLEOS LTDA          RUA 7 DE SETEMBRO, 993 SALA 10          BARIRI                                  17250000SP374740000800591199043880-4    24072012900BRADESCO S/A        2009201200000000003326250CC                                                                                                                                                                                                                                                                                                                                                                                                         000081
1048421000613COBR_CAUC_COR  TRIANGULO ALIMENTOS LTDA                002698989000184FONT COM. E REP. DE OLEOS LTDA          RUA 7 DE SETEMBRO, 993 SALA 10          BARIRI                                  17250000SP374740000900592896044203-2    27072012900BRADESCO S/A        3108201200000000004286738CC                                                                                                                                                                                                                                                                                                                                                                                                         000082
1048421000613COBR_CAUC_COR  TRIANGULO ALIMENTOS LTDA                002698989000184FONT COM. E REP. DE OLEOS LTDA          RUA 7 DE SETEMBRO, 993 SALA 10          BARIRI                                  17250000SP374740001000592951044203-3    27072012900BRADESCO S/A        0309201200000000004286738CC                                                                                                                                                                                                                                                                                                                                                                                                         000083
1048421000613COBR_CAUC_COR  TRIANGULO ALIMENTOS LTDA                002698989000184FONT COM. E REP. DE OLEOS LTDA          RUA 7 DE SETEMBRO, 993 SALA 10          BARIRI                                  17250000SP374740001100594015044512-3    01082012900BRADESCO S/A        2809201200000000004444555CC                                                                                                                                                                                                                                                                                                                                                                                                         000084
1048421000613COBR_CAUC_COR  TRIANGULO ALIMENTOS LTDA                002698989000184FONT COM. E REP. DE OLEOS LTDA          RUA 7 DE SETEMBRO, 993 SALA 10          BARIRI                                  17250000SP374740001200594350044803-1    06082012900BRADESCO S/A        1209201200000000004177502CC                                                                                                                                                                                                                                                                                                                                                                                                         000085
1048421000613COBR_CAUC_COR  TRIANGULO ALIMENTOS LTDA                002698989000184FONT COM. E REP. DE OLEOS LTDA          RUA 7 DE SETEMBRO, 993 SALA 10          BARIRI                                  17250000SP374740001300594368044803-2    06082012900BRADESCO S/A        1909201200000000004176249CC                                                                                                                                                                                                                                                                                                                                                                                                         000086
1048421000613COBR_CAUC_COR  TRIANGULO ALIMENTOS LTDA                002698989000184FONT COM. E REP. DE OLEOS LTDA          RUA 7 DE SETEMBRO, 993 SALA 10          BARIRI                                  17250000SP374740001400594376044803-3    06082012900BRADESCO S/A        2609201200000000004176249CC                                                                                                                                                                                                                                                                                                                                                                                                         000087
1048421000613COBR_CAUC_COR  TRIANGULO ALIMENTOS LTDA                002698989000184FONT COM. E REP. DE OLEOS LTDA          RUA 7 DE SETEMBRO, 993 SALA 10          BARIRI                                  17250000SP374740001500603464046073-1    22082012900BRADESCO S/A        0210201200000000004635927CC                                                                                                                                                                                                                                                                                                                                                                                                         000088
1048421000613COBR_CAUC_COR  TRIANGULO ALIMENTOS LTDA                002698989000184FONT COM. E REP. DE OLEOS LTDA          RUA 7 DE SETEMBRO, 993 SALA 10          BARIRI                                  17250000SP374740001600603472046073-2    22082012900BRADESCO S/A        0910201200000000004634537CC                                                                                                                                                                                                                                                                                                                                                                                                         000089
1048421000613COBR_CAUC_BIC  TRIANGULO ALIMENTOS LTDA                010670502000183VERONA COMERCIO DE OLEOS E GORDURA      RUA ITAJOBI Nº 476                      CATANDUVA                               15801080SP374750000100591393043759-1    23072012022RIBEIRAO PRETO      3008201200000000003225200CC                                                                                                                                                                                                                                                                                                                                                                                                         000090
1048421000613COBR_CAUC_BIC  TRIANGULO ALIMENTOS LTDA                010670502000183VERONA COMERCIO DE OLEOS E GORDURA      RUA ITAJOBI Nº 476                      CATANDUVA                               15801080SP374750000200591407043759-2    23072012022RIBEIRAO PRETO      0609201200000000003225200CC                                                                                                                                                                                                                                                                                                                                                                                                         000091
1048421000613COBR_CAUC_BIC  TRIANGULO ALIMENTOS LTDA                010670502000183VERONA COMERCIO DE OLEOS E GORDURA      RUA ITAJOBI Nº 476                      CATANDUVA                               15801080SP374750000300594252044314-1    30072012022RIBEIRAO PRETO      0409201200000000006427520CC                                                                                                                                                                                                                                                                                                                                                                                                         000092
1048421000613COBR_CAUC_BIC  TRIANGULO ALIMENTOS LTDA                010670502000183VERONA COMERCIO DE OLEOS E GORDURA      RUA ITAJOBI Nº 476                      CATANDUVA                               15801080SP374750000400594261044317-1    30072012022RIBEIRAO PRETO      0409201200000000003322000CC                                                                                                                                                                                                                                                                                                                                                                                                         000093
1048421000613COBR_CAUC_BIC  TRIANGULO ALIMENTOS LTDA                010670502000183VERONA COMERCIO DE OLEOS E GORDURA      RUA ITAJOBI Nº 476                      CATANDUVA                               15801080SP374750000500594279044317-2    30072012022RIBEIRAO PRETO      1109201200000000003322000CC                                                                                                                                                                                                                                                                                                                                                                                                         000094
1048421000613COBR_CAUC_BIC  TRIANGULO ALIMENTOS LTDA                010670502000183VERONA COMERCIO DE OLEOS E GORDURA      RUA ITAJOBI Nº 476                      CATANDUVA                               15801080SP374750000600594881044580-1    02082012022RIBEIRAO PRETO      0509201200000000003325520CC                                                                                                                                                                                                                                                                                                                                                                                                         000095
1048421000613COBR_CAUC_BIC  TRIANGULO ALIMENTOS LTDA                010670502000183VERONA COMERCIO DE OLEOS E GORDURA      RUA ITAJOBI Nº 476                      CATANDUVA                               15801080SP374750000700594899044580-2    02082012022RIBEIRAO PRETO      1209201200000000003325520CC                                                                                                                                                                                                                                                                                                                                                                                                         000096
1048421000613COBR_CAUC_BIC  TRIANGULO ALIMENTOS LTDA                010670502000183VERONA COMERCIO DE OLEOS E GORDURA      RUA ITAJOBI Nº 476                      CATANDUVA                               15801080SP374750000800594902044582-1    02082012022RIBEIRAO PRETO      1409201200000000003210240CC                                                                                                                                                                                                                                                                                                                                                                                                         000097
1048421000613COBR_CAUC_BIC  TRIANGULO ALIMENTOS LTDA                010670502000183VERONA COMERCIO DE OLEOS E GORDURA      RUA ITAJOBI Nº 476                      CATANDUVA                               15801080SP374750000900594911044582-2    02082012022RIBEIRAO PRETO      2109201200000000003210240CC                                                                                                                                                                                                                                                                                                                                                                                                         000098
1048421000613COBR_CAUC_BIC  TRIANGULO ALIMENTOS LTDA                010670502000183VERONA COMERCIO DE OLEOS E GORDURA      RUA ITAJOBI Nº 476                      CATANDUVA                               15801080SP374750001000599921044976-1    08082012022RIBEIRAO PRETO      1409201200000000003276240CC                                                                                                                                                                                                                                                                                                                                                                                                         000099
1048421000613COBR_CAUC_BIC  TRIANGULO ALIMENTOS LTDA                010670502000183VERONA COMERCIO DE OLEOS E GORDURA      RUA ITAJOBI Nº 476                      CATANDUVA                               15801080SP374750001100599939044976-2    08082012022RIBEIRAO PRETO      2109201200000000003276240CC                                                                                                                                                                                                                                                                                                                                                                                                         000100
1048421000613COBR_CAUC_BIC  TRIANGULO ALIMENTOS LTDA                010670502000183VERONA COMERCIO DE OLEOS E GORDURA      RUA ITAJOBI Nº 476                      CATANDUVA                               15801080SP374750001200599971044981-2    08082012022RIBEIRAO PRETO      2009201200000000002188048CC                                                                                                                                                                                                                                                                                                                                                                                                         000101
1048421000613COBR_CAUC_BIC  TRIANGULO ALIMENTOS LTDA                010670502000183VERONA COMERCIO DE OLEOS E GORDURA      RUA ITAJOBI Nº 476                      CATANDUVA                               15801080SP374750001300600481045747-1    17082012022RIBEIRAO PRETO      2109201200000000006422240CC                                                                                                                                                                                                                                                                                                                                                                                                         000102
1048421000613COBR_CAUC_BIC  TRIANGULO ALIMENTOS LTDA                010670502000183VERONA COMERCIO DE OLEOS E GORDURA      RUA ITAJOBI Nº 476                      CATANDUVA                               15801080SP374750001400600511045752-1    17082012022RIBEIRAO PRETO      2509201200000000003248080CC                                                                                                                                                                                                                                                                                                                                                                                                         000103
1048421000613COBR_CAUC_BIC  TRIANGULO ALIMENTOS LTDA                010670502000183VERONA COMERCIO DE OLEOS E GORDURA      RUA ITAJOBI Nº 476                      CATANDUVA                               15801080SP374750001500600520045752-2    17082012022RIBEIRAO PRETO      0210201200000000003248080CC                                                                                                                                                                                                                                                                                                                                                                                                         000104
1048421000613COBR_CAUC_BIC  TRIANGULO ALIMENTOS LTDA                010670502000183VERONA COMERCIO DE OLEOS E GORDURA      RUA ITAJOBI Nº 476                      CATANDUVA                               15801080SP374750001600600988044989-1    08082012022RIBEIRAO PRETO      1909201200000000003221680CC                                                                                                                                                                                                                                                                                                                                                                                                         000105
1048421000613COBR_CAUC_BIC  TRIANGULO ALIMENTOS LTDA                010670502000183VERONA COMERCIO DE OLEOS E GORDURA      RUA ITAJOBI Nº 476                      CATANDUVA                               15801080SP374750001700600996044989-2    08082012022RIBEIRAO PRETO      2609201200000000003221680CC                                                                                                                                                                                                                                                                                                                                                                                                         000106
1048421000613COBR_CAUC_BIC  TRIANGULO ALIMENTOS LTDA                009116142000355CAPRI DISTRIBUIDORA E ATACADISTA D      R. ARTHUR DE AZEVEDO                    SAO PAULO                               05404014SP374760000100590591043609-2    20072012007PAULISTA            0309201200000000002275400CC                                                                                                                                                                                                                                                                                                                                                                                                         000107
1048421000613COBR_CAUC_BIC  TRIANGULO ALIMENTOS LTDA                009116142000355CAPRI DISTRIBUIDORA E ATACADISTA D      R. ARTHUR DE AZEVEDO                    SAO PAULO                               05404014SP374760000200590605043609-3    20072012007PAULISTA            1009201200000000002275400CC                                                                                                                                                                                                                                                                                                                                                                                                         000108
1048421000613COBR_CAUC_BIC  TRIANGULO ALIMENTOS LTDA                009116142000355CAPRI DISTRIBUIDORA E ATACADISTA D      R. ARTHUR DE AZEVEDO                    SAO PAULO                               05404014SP374760000300590613043609-4    20072012007PAULISTA            1709201200000000002275400CC                                                                                                                                                                                                                                                                                                                                                                                                         000109
1048421000613COBR_CAUC_BIC  TRIANGULO ALIMENTOS LTDA                009116142000355CAPRI DISTRIBUIDORA E ATACADISTA D      R. ARTHUR DE AZEVEDO                    SAO PAULO                               05404014SP374760000400590621043609-5    20072012007PAULISTA            2409201200000000002275400CC                                                                                                                                                                                                                                                                                                                                                                                                         000110
1048421000613COBR_CAUC_BIC  TRIANGULO ALIMENTOS LTDA                009116142000355CAPRI DISTRIBUIDORA E ATACADISTA D      R. ARTHUR DE AZEVEDO                    SAO PAULO                               05404014SP374760000500592659044015-1    25072012007PAULISTA            0609201200000000003810662CC                                                                                                                                                                                                                                                                                                                                                                                                         000111
1048421000613COBR_CAUC_BIC  TRIANGULO ALIMENTOS LTDA                009116142000355CAPRI DISTRIBUIDORA E ATACADISTA D      R. ARTHUR DE AZEVEDO                    SAO PAULO                               05404014SP374760000600592667044015-2    25072012007PAULISTA            1309201200000000003809519CC                                                                                                                                                                                                                                                                                                                                                                                                         000112
1048421000613COBR_CAUC_BIC  TRIANGULO ALIMENTOS LTDA                009116142000355CAPRI DISTRIBUIDORA E ATACADISTA D      R. ARTHUR DE AZEVEDO                    SAO PAULO                               05404014SP374760000700592675044015-3    25072012007PAULISTA            2009201200000000003809519CC                                                                                                                                                                                                                                                                                                                                                                                                         000113
1048421000613COBR_CAUC_BIC  TRIANGULO ALIMENTOS LTDA                009116142000355CAPRI DISTRIBUIDORA E ATACADISTA D      R. ARTHUR DE AZEVEDO                    SAO PAULO                               05404014SP374760000800593825044201-2    27072012007PAULISTA            0109201200000000003677266CC                                                                                                                                                                                                                                                                                                                                                                                                         000114
1048421000613COBR_CAUC_BIC  TRIANGULO ALIMENTOS LTDA                009116142000355CAPRI DISTRIBUIDORA E ATACADISTA D      R. ARTHUR DE AZEVEDO                    SAO PAULO                               05404014SP374760000900593833044201-3    27072012007PAULISTA            0709201200000000003677265CC                                                                                                                                                                                                                                                                                                                                                                                                         000115
1048421000613COBR_CAUC_BIC  TRIANGULO ALIMENTOS LTDA                009116142000355CAPRI DISTRIBUIDORA E ATACADISTA D      R. ARTHUR DE AZEVEDO                    SAO PAULO                               05404014SP374760001000594384044889-1    07082012007PAULISTA            1409201200000000003703040CC                                                                                                                                                                                                                                                                                                                                                                                                         000116
1048421000613COBR_CAUC_BIC  TRIANGULO ALIMENTOS LTDA                009116142000355CAPRI DISTRIBUIDORA E ATACADISTA D      R. ARTHUR DE AZEVEDO                    SAO PAULO                               05404014SP374760001100594392044889-2    07082012007PAULISTA            2109201200000000003701930CC                                                                                                                                                                                                                                                                                                                                                                                                         000117
1048421000613COBR_CAUC_BIC  TRIANGULO ALIMENTOS LTDA                009116142000355CAPRI DISTRIBUIDORA E ATACADISTA D      R. ARTHUR DE AZEVEDO                    SAO PAULO                               05404014SP374760001200594406044889-3    07082012007PAULISTA            2809201200000000003701930CC                                                                                                                                                                                                                                                                                                                                                                                                         000118
1048421000613COBR_CAUC_BIC  TRIANGULO ALIMENTOS LTDA                009116142000355CAPRI DISTRIBUIDORA E ATACADISTA D      R. ARTHUR DE AZEVEDO                    SAO PAULO                               05404014SP374760001300597073045050-1    09082012007PAULISTA            1809201200000000003738748CC                                                                                                                                                                                                                                                                                                                                                                                                         000119
1048421000613COBR_CAUC_BIC  TRIANGULO ALIMENTOS LTDA                009116142000355CAPRI DISTRIBUIDORA E ATACADISTA D      R. ARTHUR DE AZEVEDO                    SAO PAULO                               05404014SP374760001400597081045050-2    09082012007PAULISTA            2509201200000000003737626CC                                                                                                                                                                                                                                                                                                                                                                                                         000120
1048421000613COBR_CAUC_BIC  TRIANGULO ALIMENTOS LTDA                009116142000355CAPRI DISTRIBUIDORA E ATACADISTA D      R. ARTHUR DE AZEVEDO                    SAO PAULO                               05404014SP374760001500597090045050-3    09082012007PAULISTA            0210201200000000003737626CC                                                                                                                                                                                                                                                                                                                                                                                                         000121
1048421000613COBR_CAUC_BIC  TRIANGULO ALIMENTOS LTDA                009116142000355CAPRI DISTRIBUIDORA E ATACADISTA D      R. ARTHUR DE AZEVEDO                    SAO PAULO                               05404014SP374760001600601003045726-1    17082012007PAULISTA            2509201200000000003788107CC                                                                                                                                                                                                                                                                                                                                                                                                         000122
1048421000613COBR_CAUC_BIC  TRIANGULO ALIMENTOS LTDA                009116142000355CAPRI DISTRIBUIDORA E ATACADISTA D      R. ARTHUR DE AZEVEDO                    SAO PAULO                               05404014SP374760001700601011045726-2    17082012007PAULISTA            0210201200000000003786971CC                                                                                                                                                                                                                                                                                                                                                                                                         000123
1048421000613COBR_CAUC_BIC  TRIANGULO ALIMENTOS LTDA                009116142000355CAPRI DISTRIBUIDORA E ATACADISTA D      R. ARTHUR DE AZEVEDO                    SAO PAULO                               05404014SP374760001800601020045726-3    17082012007PAULISTA            0910201200000000003786972CC                                                                                                                                                                                                                                                                                                                                                                                                         000124
1048421000613COBR_CAUC_BIC  TRIANGULO ALIMENTOS LTDA                015123405000194ANCRISA - COMERCIO DE ALIMENTOS E       JUNDIAI                                 PRAIA GRANDE                            11701250SP374770000100566798040652-2    14062012023SANTOS              3108201200000000002202000CC                                                                                                                                                                                                                                                                                                                                                                                                         000125
1048421000613COBR_CAUC_BIC  TRIANGULO ALIMENTOS LTDA                015123405000194ANCRISA - COMERCIO DE ALIMENTOS E       JUNDIAI                                 PRAIA GRANDE                            11701250SP374770000200585016042658-2    10072012023SANTOS              2908201200000000003298170CC                                                                                                                                                                                                                                                                                                                                                                                                         000126
1048421000613COBR_CAUC_BIC  TRIANGULO ALIMENTOS LTDA                015123405000194ANCRISA - COMERCIO DE ALIMENTOS E       JUNDIAI                                 PRAIA GRANDE                            11701250SP374770000300591024043761-1    23072012023SANTOS              2908201200000000003120690CC                                                                                                                                                                                                                                                                                                                                                                                                         000127
1048421000613COBR_CAUC_BIC  TRIANGULO ALIMENTOS LTDA                015123405000194ANCRISA - COMERCIO DE ALIMENTOS E       JUNDIAI                                 PRAIA GRANDE                            11701250SP374770000400591032043761-2    23072012023SANTOS              0509201200000000003120690CC                                                                                                                                                                                                                                                                                                                                                                                                         000128
1048421000613COBR_CAUC_BIC  TRIANGULO ALIMENTOS LTDA                015123405000194ANCRISA - COMERCIO DE ALIMENTOS E       JUNDIAI                                 PRAIA GRANDE                            11701250SP374770000500591041043763-1    23072012023SANTOS              2908201200000000002087257CC                                                                                                                                                                                                                                                                                                                                                                                                         000129
1048421000613COBR_CAUC_BIC  TRIANGULO ALIMENTOS LTDA                015123405000194ANCRISA - COMERCIO DE ALIMENTOS E       JUNDIAI                                 PRAIA GRANDE                            11701250SP374770000600591059043763-2    23072012023SANTOS              0509201200000000002086631CC                                                                                                                                                                                                                                                                                                                                                                                                         000130
1048421000613COBR_CAUC_BIC  TRIANGULO ALIMENTOS LTDA                015123405000194ANCRISA - COMERCIO DE ALIMENTOS E       JUNDIAI                                 PRAIA GRANDE                            11701250SP374770000700591067043763-3    23072012023SANTOS              1209201200000000002086632CC                                                                                                                                                                                                                                                                                                                                                                                                         000131
1048421000613COBR_CAUC_BIC  TRIANGULO ALIMENTOS LTDA                015123405000194ANCRISA - COMERCIO DE ALIMENTOS E       JUNDIAI                                 PRAIA GRANDE                            11701250SP374770000800592217043768-1    23072012023SANTOS              2908201200000000002129606CC                                                                                                                                                                                                                                                                                                                                                                                                         000132
1048421000613COBR_CAUC_BIC  TRIANGULO ALIMENTOS LTDA                015123405000194ANCRISA - COMERCIO DE ALIMENTOS E       JUNDIAI                                 PRAIA GRANDE                            11701250SP374770000900592225043768-2    23072012023SANTOS              0509201200000000002128967CC                                                                                                                                                                                                                                                                                                                                                                                                         000133
1048421000613COBR_CAUC_BIC  TRIANGULO ALIMENTOS LTDA                015123405000194ANCRISA - COMERCIO DE ALIMENTOS E       JUNDIAI                                 PRAIA GRANDE                            11701250SP374770001000592233043768-3    23072012023SANTOS              1209201200000000002128967CC                                                                                                                                                                                                                                                                                                                                                                                                         000134
1048421000613COBR_CAUC_BIC  TRIANGULO ALIMENTOS LTDA                015123405000194ANCRISA - COMERCIO DE ALIMENTOS E       JUNDIAI                                 PRAIA GRANDE                            11701250SP374770001100594023044298-1    30072012023SANTOS              3008201200000000002158032CC                                                                                                                                                                                                                                                                                                                                                                                                         000135
1048421000613COBR_CAUC_BIC  TRIANGULO ALIMENTOS LTDA                015123405000194ANCRISA - COMERCIO DE ALIMENTOS E       JUNDIAI                                 PRAIA GRANDE                            11701250SP374770001200594031044298-2    30072012023SANTOS              0609201200000000002157384CC                                                                                                                                                                                                                                                                                                                                                                                                         000136
1048421000613COBR_CAUC_BIC  TRIANGULO ALIMENTOS LTDA                015123405000194ANCRISA - COMERCIO DE ALIMENTOS E       JUNDIAI                                 PRAIA GRANDE                            11701250SP374770001300594040044298-3    30072012023SANTOS              1309201200000000002157384CC                                                                                                                                                                                                                                                                                                                                                                                                         000137
1048421000613COBR_CAUC_BIC  TRIANGULO ALIMENTOS LTDA                015123405000194ANCRISA - COMERCIO DE ALIMENTOS E       JUNDIAI                                 PRAIA GRANDE                            11701250SP374770001400594066044302-2    30072012023SANTOS              0309201200000000003261630CC                                                                                                                                                                                                                                                                                                                                                                                                         000138
1048421000613COBR_CAUC_BIC  TRIANGULO ALIMENTOS LTDA                015123405000194ANCRISA - COMERCIO DE ALIMENTOS E       JUNDIAI                                 PRAIA GRANDE                            11701250SP374770001500594741044546-1    02082012023SANTOS              0409201200000000003259020CC                                                                                                                                                                                                                                                                                                                                                                                                         000139
1048421000613COBR_CAUC_BIC  TRIANGULO ALIMENTOS LTDA                015123405000194ANCRISA - COMERCIO DE ALIMENTOS E       JUNDIAI                                 PRAIA GRANDE                            11701250SP374770001600594759044546-2    02082012023SANTOS              1109201200000000003259020CC                                                                                                                                                                                                                                                                                                                                                                                                         000140
1048421000613COBR_CAUC_BIC  TRIANGULO ALIMENTOS LTDA                015123405000194ANCRISA - COMERCIO DE ALIMENTOS E       JUNDIAI                                 PRAIA GRANDE                            11701250SP374770001700594783044553-1    02082012023SANTOS              1209201200000000003184200CC                                                                                                                                                                                                                                                                                                                                                                                                         000141
1048421000613COBR_CAUC_BIC  TRIANGULO ALIMENTOS LTDA                015123405000194ANCRISA - COMERCIO DE ALIMENTOS E       JUNDIAI                                 PRAIA GRANDE                            11701250SP374770001800594791044553-2    02082012023SANTOS              1909201200000000003184200CC                                                                                                                                                                                                                                                                                                                                                                                                         000142
