0REMESSANOTIFICACAO ELETRONICA        99999999999999BICBANCO                                AV. PAULISTA                            1048      12.ANDAR  BELA VISTA                    SAO PAULO                     01310100SP1121739360CORTINHAL                               COORDENADOR                             10022014                                                                                                                                                                                                                                                                                                                                                                                      000001
1046421006070DIR_CREDIT     METALURGICA DS LTDA                     060857349000176TRW AUTOMOTIVE LTDA                     VIA ANHANGUERA KM 147                   LIMEIRA                                 13486915SP4634400001                                                                                                                                          012497387           260320070000018698            05022014017002fornecimento de discos e tambores de freio para automoveis                                                                                                                                                                                      079414868000198              000002
1007421060269COBR_CAUC_BIC  CAMBUCI S/A                             057489403000163A ESPORTIVA COMERCIAL LTDA              RUA SILVEIRAS, 468                      SANTO ANDRE                             09071100SP463700000102649801DM23131601  06022014007PAULISTA            0606201400000000013487568CC                                                                                                                                                                                                                                                                                                                                                                                                         000003
1019421004658COBR_CAUC_COR  S/A ESTADO DE MINAS                     060894730000105USINAS SIDERURGICAS MINAS GERAIS S      PROFESSOR JOSE VIEIRA DE MENDONCA 3011  BELO HORIZONTE                          31310260MG4637100001012816382196271-1   06022014900BRADESCO S/A        1503201400000000080000000CC                                                                                                                                                                                                                                                                                                                                                                                                         000004
1028421011386COBR_CAUC_COR  POLICARD SYSTEMS E SERVICOS S/A         004113174000111PARA SEGURANCA LTDA                     R TRIUNVIRATO, 571                      BELEM                                   66020655PA463720000102983422217360      07022014900BRADESCO S/A        2702201400000000020736545CC                                                                                                                                                                                                                                                                                                                                                                                                         000005
1028421011386COBR_CAUC_COR  POLICARD SYSTEMS E SERVICOS S/A         015752934000157PUMA SERVIçOS DE VIG. E TRANSP DE       TV. MAURITI, 2123                       BELEM                                   66087680PA463730000102983457217410      07022014900BRADESCO S/A        2403201400000000024938213CC                                                                                                                                                                                                                                                                                                                                                                                                         000006
1044421012350DIR_CREDIT     PAPI PRONTO SOCORRO                     008380701000105UNIMED NATAL                            RUA MIPIBU, 511 - PETRÓPOLIS            NATAL                                   59020250RN4638700001                                                                                                                                          012497767           260320080000005352001         05022014000404atendimento médico ambulatorial dos conveniados da UNIMED                                                                                                                                                                                       008423220000130              000007
9000006                                                                                                                                                                                                                                                                                                                                                                                                                                                                                                                                                                                                                                                                                                               000008
