0REMESSANOTIFICACAO ELETRONICA        99999999999999BICBANCO                                AV. PAULISTA                            1048      12.ANDAR  BELA VISTA                    SAO PAULO                     01310100SP1121739360CORTINHAL                               COORDENADOR                             15072013                                                                                                                                                                                                                                                                                                                                                                                      000001
1017421013375COBR_CAUC_COR  BMS MICRO NUTRIENTES DO BRASIL LTDA     002414858000390VALE VERDE EMPREENDIMENTOS AGRICOL      ROD. GO ANICUNS/,6-CAIXA POSTAL 06      ANICUNS                                 76170000GO4305400001000002311096B       24052013900BRADESCO S/A        0811201300000000014954598CC                                                                                                                                                                                                                                                                                                                                                                                                         000002
1007421067492COBR_CAUC_COR  ENERGY COML IMPORT E EXPORT LTDA        009363567000369PREMIX BRASIL RESINAS LTDA              ROD BR 101, KM 117,5,5600-SALA 6        ITAJAI                                  88311601SC430490000102065222009079      24062013800UNIBANCO S/A        0808201300000000097965130CC                                                                                                                                                                                                                                                                                                                                                                                                         000003
1048421003043COBR_CAUC_COR  FRIGOL S.A. EM RECUPERACAO JUDICIAL     011094490000159F OLIVEIRA NASCIMENTO E CIA LTDA        AL ONZE, 16                             BELEM                                   18681030PA4305200001000325720024370-01  12072013900BRADESCO S/A        3007201300000000012685432CC                                                                                                                                                                                                                                                                                                                                                                                                         000004
1048421003043COBR_CAUC_COR  FRIGOL S.A. EM RECUPERACAO JUDICIAL     011094490000159F OLIVEIRA NASCIMENTO E CIA LTDA        AL ONZE, 16                             BELEM                                   18681030PA4305200002000325810024371-01  12072013900BRADESCO S/A        3007201300000000011941281CC                                                                                                                                                                                                                                                                                                                                                                                                         000005
1048421003043COBR_CAUC_COR  FRIGOL S.A. EM RECUPERACAO JUDICIAL     016647607000106FORCE MEAT COM. DIST. CARNES E DER      MARIA GONZAGA 460                       SAO JOAO DE MER                         25535482RJ4305300001000325640024380-01  12072013900BRADESCO S/A        1907201300000000016280153CC                                                                                                                                                                                                                                                                                                                                                                                                         000006
1016421009571COBR_CAUC_BIC  IMPORTADORA DE FRUTAS LA VIOLETERA      001644931000608A.S.E. DISTRIBUICAO LTDA                RUA SARGENTE EICLIDES, 110              ANAPOLIS                                75130390GO4304700001040736210024627901  08072013018GOIANIA             0508201300000000010405770CC                                                                                                                                                                                                                                                                                                                                                                                                         000007
1016421009571COBR_CAUC_BIC  IMPORTADORA DE FRUTAS LA VIOLETERA      006204131001220PEROLA DISTRIBUICAO E LOGISTICA LT      ROD BR 060 1035 KM 125                  ANAPOLIS                                75104900GO4304800001040735820024612901  05072013018GOIANIA             0208201300000000010048265CC                                                                                                                                                                                                                                                                                                                                                                                                         000008
1031421009993COBR_CAUC_COR  VAMOL INDUSTRIA MOVELEIRA LTDA          021545371000129LOJAS EDMIL S/A                         AV. CAPITAO JOAO ALVES PEREIRA,570      ELOI MENDES                             37110000MG43050000010528426997976-1/1   03072013800UNIBANCO S/A        0208201300000000012746250CC                                                                                                                                                                                                                                                                                                                                                                                                         000009
1031421009993COBR_CAUC_BIC  VAMOL INDUSTRIA MOVELEIRA LTDA          084683432000134LOJAS SALFER S/A                        RUA RUI BARBOSA,1300                    JOINVILLE                               89219521SC43051000010528428598180-1/1   05072013032BLUMENAU            1410201300000000012298341CC                                                                                                                                                                                                                                                                                                                                                                                                         000010
9000008                                                                                                                                                                                                                                                                                                                                                                                                                                                                                                                                                                                                                                                                                                               000011
