0REMESSANOTIFICACAO ELETRONICA        99999999999999BICBANCO                                AV. PAULISTA                            1048      12.ANDAR  BELA VISTA                    SAO PAULO                     01310100SP1121739360CORTINHAL                               COORDENADOR                             13052011                                                                                                                                                                                                                                                                                                                                                                                      000001
1016421001333COBR_CAUC_BIC  CONDUSPAR CONDUTORES ELETRICOS LTDA     002998611000104CTEEP CIA DE TRANS DE ENER ELET PA      RUA CASA DO ATOR, 1155                  SAO PAULO                               04546004SP275960000103074542225758      06052011007PAULISTA            1506201100000000011860475CC                                                                                                                                                                                                                                                                                                                                                                                                         000002
1014421011391COBR_CAUC_BIC  CENTRAL NACIONAL DE PRODUCOES LTDA      002415583000147IGREJA MUNDIAL DO PODER DE DEUS         R.CARNEIRO DE LEAO, 439                 SAO PAULO                               03015000SP2759700001044181341995/A      09052011007PAULISTA            1209201100000000050000000CC                                                                                                                                                                                                                                                                                                                                                                                                         000003
1007421044581COBR_CAUC_BIC  GRANCARGA TRANSP. E GUINDASTES S/A.     001027335000166WOBBEN WINDPOWER IND.E COM.LTDA         AV.FERNANDO STECCA,100                  SOROCABA                                18087149SP275980000100550247001765      10052011007PAULISTA            0906201100000000020323261CC                                                                                                                                                                                                                                                                                                                                                                                                         000004
1007421044581COBR_CAUC_BIC  GRANCARGA TRANSP. E GUINDASTES S/A.     001027335000166WOBBEN WINDPOWER IND.E COM.LTDA         AV.FERNANDO STECCA,100                  SOROCABA                                18087149SP275980000200550298001763      09052011007PAULISTA            3005201100000000016832413CC                                                                                                                                                                                                                                                                                                                                                                                                         000005
1007421044581COBR_CAUC_BIC  GRANCARGA TRANSP. E GUINDASTES S/A.     001027335000166WOBBEN WINDPOWER IND.E COM.LTDA         AV.FERNANDO STECCA,100                  SOROCABA                                18087149SP275980000300550301001764      09052011007PAULISTA            3005201100000000016832413CC                                                                                                                                                                                                                                                                                                                                                                                                         000006
1007421017940COBR_CAUC_BIC  QUIRIOS PRODUTOS QUIMICOS S/A           056992951001978TORTUGA CIA ZOOTECNICA AGRARIA          AV: BRIG.FARIA LIMA, 2066 - 13          SAO PAULO                               01451905SP2759900001005496990006640 01  10052011007PAULISTA            1006201100000000018206380CC                                                                                                                                                                                                                                                                                                                                                                                                         000007
1042141000240COBR_CAUC_BIC  J W ENG E MANUTENCAO INDUSTRIAL LTD     008675637000190CEMEC CONST ENG ELET E MONT LTDA        RUA 1 N 1 QD A LOTE 1                   SAO LUIS                                65099110MA276000000102181480165         10052011042SAO LUIS            1007201100000000075124522TD                                                                                                                                                                                                                                                                                                                                                                                                         000008
1046421000145COBR_CAUC_COR  KOMLOG IMPORTACAO LTDA                  075400218000809CASSOL MATERIAIS DE CONST. LTDA         ROD. BR 101 KM 206, S/N ACESSO VIA EXP. SAO JOSE                                88102700SC276010000101137887007992-     02022011800UNIBANCO S/A        0207201100000000017886818CC                                                                                                                                                                                                                                                                                                                                                                                                         000009
1046421000145COBR_CAUC_COR  KOMLOG IMPORTACAO LTDA                  075400218000809CASSOL MATERIAIS DE CONST. LTDA         ROD. BR 101 KM 206, S/N ACESSO VIA EXP. SAO JOSE                                88102700SC276010000201137895008346-     14022011800UNIBANCO S/A        1407201100000000017243407CC                                                                                                                                                                                                                                                                                                                                                                                                         000010
1046421000145COBR_CAUC_COR  KOMLOG IMPORTACAO LTDA                  075400218000809CASSOL MATERIAIS DE CONST. LTDA         ROD. BR 101 KM 206, S/N ACESSO VIA EXP. SAO JOSE                                88102700SC276010000301137909009128-     25022011800UNIBANCO S/A        2507201100000000020496493CC                                                                                                                                                                                                                                                                                                                                                                                                         000011
1046421000145COBR_CAUC_BIC  KOMLOG IMPORTACAO LTDA                  089777692005828COOP. REG. DE DES. TEUTONIA LTDA -      R PASTOR HASENACK, 240                  TEUTONIA                                95890000RS276020000101137968011120-     27042011015PORTO ALEGRE        2508201100000000016250000CC                                                                                                                                                                                                                                                                                                                                                                                                         000012
1046421000145COBR_CAUC_BIC  KOMLOG IMPORTACAO LTDA                  089777692005828COOP. REG. DE DES. TEUTONIA LTDA -      R PASTOR HASENACK, 240                  TEUTONIA                                95890000RS276020000201137976011386-     03052011015PORTO ALEGRE        3108201100000000016250000CC                                                                                                                                                                                                                                                                                                                                                                                                         000013
1024141007815COBR_DESC_BIC  TREVO COMBUSTIVEIS E LUBRIF LTDA        000027590819824FERNANDO HIDALGO FERNANDES              ESTRADA FEDERAL BR 174 S/N              COMODORO                                78310000MT2762200001018858922607        05052011024CUIABA              2607201100000000009500000TD                                                                                                                                                                                                                                                                                                                                                                                                         000014
1024141007815COBR_DESC_BIC  TREVO COMBUSTIVEIS E LUBRIF LTDA        011836935000129N. M. DE OLIVEIRA - TRANSPORTES -       RUA AMAZONAS S/N Q 97 LOTE 15R          COMODORO                                78310000MT2762300001018858842507        05052011024CUIABA              2507201100000000009500000TD                                                                                                                                                                                                                                                                                                                                                                                                         000015
1024141007815COBR_DESC_BIC  TREVO COMBUSTIVEIS E LUBRIF LTDA        011409167000127TRANSPORTADORA NOVO FUTURO LTDA         AV MARECHALL DEODORO, 900 SLB5          CUIABA                                  78005100MT2762400001018858682107        05052011024CUIABA              2107201100000000009750000TD                                                                                                                                                                                                                                                                                                                                                                                                         000016
1024141007815COBR_DESC_BIC  TREVO COMBUSTIVEIS E LUBRIF LTDA        009547055000190MAV COMERCIO E TRANSPORTES LTDA         BR 364 KM 06 ST13 QD 10 CP 40           VILHENA                                 76980000RO2762500001018858762207        05052011024CUIABA              2207201100000000009880000TD                                                                                                                                                                                                                                                                                                                                                                                                         000017
1024141007815COBR_DESC_BIC  TREVO COMBUSTIVEIS E LUBRIF LTDA        033720962000255TSA - AMAZONIA LOGISTICA LTDA           ROD BR 163 KM 119 SL03 CP 303           RONDONOPOLIS                            78700970MT2762600001018859062907        05052011024CUIABA              2907201100000000009800000TD                                                                                                                                                                                                                                                                                                                                                                                                         000018
1024141007815COBR_DESC_BIC  TREVO COMBUSTIVEIS E LUBRIF LTDA        033720962000255TSA - AMAZONIA LOGISTICA LTDA           ROD BR 163 KM 119 SL03 CP 303           RONDONOPOLIS                            78700970MT2762600002018859140108        05052011024CUIABA              0108201100000000009900000TD                                                                                                                                                                                                                                                                                                                                                                                                         000019
1024141007815COBR_DESC_BIC  TREVO COMBUSTIVEIS E LUBRIF LTDA        033720962000255TSA - AMAZONIA LOGISTICA LTDA           ROD BR 163 KM 119 SL03 CP 303           RONDONOPOLIS                            78700970MT2762600003018859220308        05052011024CUIABA              0308201100000000009950000TD                                                                                                                                                                                                                                                                                                                                                                                                         000020
1016421017027DIR_CREDIT     SERVICOS E TRANSPORTES SOLEVANTE LT     056643018000247EUCATEX S/A IND E COM                   RUA RIBEIRãO PRETO 811-JD MARILIA       SALTO                                   13323010SP2762700001                                                                                                                                          001114931           010720090000015709SN          10112010001213Prestação de serviços de mão de obra e equipamentos próprios, serviços de recepção, armazenamento e movimentação de toras, resíduos e cavacos de madeira.                                                                                       077513513000120              000021
1006421008723DIR_CREDIT     CAPTOR ENGENHARIA LTDA                  010377679000196PM DE JABOATAO DOS GUARARAPES           AVENIDA BARRETO DE MENEZES, 1648 PRAZEREJABOATAO DOS GUARARA                    54410100PE2762800001                                                                                                                                          481010086           281120080000012686            04112010000404Construção de residencias populares no município de Jaboatão dos Guararapes.                                                                                                                                                                    005730884000153              000022
1006421008723DIR_CREDIT     CAPTOR ENGENHARIA LTDA                  010377679000196PM DE JABOATAO DOS GUARARAPES           AVENIDA BARRETO DE MENEZES, 1648 PRAZEREJABOATAO DOS GUARARA                    54410100PE2762900001                                                                                                                                          481010515           281120080000012686            21012011000404Construção de residencias populares no município de Jaboatão dos Guararapes.                                                                                                                                                                    005730884000153              000023
1006421008723DIR_CREDIT     CAPTOR ENGENHARIA LTDA                  007272636000131UNIVERSIDADE FEDERAL DO CEARA           AV DA UNIVERSIDADE, 2853 - BENFICA      FORTALEZA                               60020181CE2763000001                                                                                                                                          481009959           300720100000015519            27092010000404EXECUÇÃO DA OBRA DE CONSTRUÇAO DO BLOCO DE REFEITORIO DO CAMPUS DO PORANGABUÇU/CAMPUS DO PORANGABUÇU/UFC.                                                                                                                                       005730884000153              000024
1007421045057COBR_CAUC_BIC  CENTRO MANUF.DO ACO LTDA                047710066000139SERTHI HIDRAULICA LTDA                  R ENG. ARMANDO DE ARRUDA PEREIRA, 226   SAO CAETANO DO                          09540030SP2763100001005410192192A       09052011038ABC                 0606201100000000000028172CC                                                                                                                                                                                                                                                                                                                                                                                                         000025
1007421045057COBR_CAUC_BIC  CENTRO MANUF.DO ACO LTDA                017157603000102RITZ DO BRASIL SA                       ROD. BR 381 - KM 488, S/N-CAIXA POSTAL 5BETIM                                   32681200MG2763200001005412640008788101  09052011019BELO HORIZONTE      2206201100000000000033881CC                                                                                                                                                                                                                                                                                                                                                                                                         000026
1007421045057COBR_CAUC_BIC  CENTRO MANUF.DO ACO LTDA                004813841000179NOVOAR PNEUMATICA LTDA                  RUA MIRACATU, 348                       TABOAO DA SERRA                         06790090SP2763300001005381152130        04052011007PAULISTA            0306201100000000000028340CC                                                                                                                                                                                                                                                                                                                                                                                                         000027
1007421045057COBR_CAUC_BIC  CENTRO MANUF.DO ACO LTDA                004813841000179NOVOAR PNEUMATICA LTDA                  RUA MIRACATU, 348                       TABOAO DA SERRA                         06790090SP2763300002005382392143        04052011007PAULISTA            0406201100000000000021574CC                                                                                                                                                                                                                                                                                                                                                                                                         000028
1007421045057COBR_CAUC_BIC  CENTRO MANUF.DO ACO LTDA                061064846001585SIDOR INDUSTRIA E COMERCIO LTDA         AV. JEROME CASE, 2162                   SOROCABA                                18087220SP276340000100501947    1563/1  04042011007PAULISTA            1905201100000000000092190CC                                                                                                                                                                                                                                                                                                                                                                                                         000029
1007421045057COBR_CAUC_COR  CENTRO MANUF.DO ACO LTDA                018222877000192ZOLLERN TRANSMISSOES MECANICAS LTD      AV. MANOEL INACIO PEIXOTO, 2147         CATAGUASES                              36771000MG2763500001005412720008797101  09052011900BRADESCO S/A        0806201100000000000095025CC                                                                                                                                                                                                                                                                                                                                                                                                         000030
1007421045057COBR_CAUC_BIC  CENTRO MANUF.DO ACO LTDA                034052977000174MAQUESONDA MAQ. EQUIP. SOND. LTDA.      RUA: FRANCISCO SIQUEIRA, 95             RIO DE JANEIRO                          20765270RJ276360000100412456     784/4  24022011014RIO DE JANEIRO      2406201100000000000057306CC                                                                                                                                                                                                                                                                                                                                                                                                         000031
1007421045057COBR_CAUC_BIC  CENTRO MANUF.DO ACO LTDA                034052977000174MAQUESONDA MAQ. EQUIP. SOND. LTDA.      RUA: FRANCISCO SIQUEIRA, 95             RIO DE JANEIRO                          20765270RJ276360000200412464     784/3  24022011014RIO DE JANEIRO      2505201100000000000057306CC                                                                                                                                                                                                                                                                                                                                                                                                         000032
1007421045057COBR_CAUC_BIC  CENTRO MANUF.DO ACO LTDA                061801601000350UC CALDEIRARIA UNIVERSAL LTDA           AV. NEW JERSEY, 70                      ARUJA                                   07400000SP2763700001005381662140        04052011007PAULISTA            0906201100000000000121905CC                                                                                                                                                                                                                                                                                                                                                                                                         000033
1007421045057COBR_CAUC_BIC  CENTRO MANUF.DO ACO LTDA                059502187000174USINAGEM JJ LTDA                        AV. MARGINAL DA VIA ANHANGUERA, 600 KM  JUNDIAI                                 13214666SP2763800001005410942199A       09052011007PAULISTA            0606201100000000000177240CC                                                                                                                                                                                                                                                                                                                                                                                                         000034
1007421045057COBR_CAUC_BIC  CENTRO MANUF.DO ACO LTDA                049596851000138LA-SURE PROD TERMOELET.E CONFEC LT      RUA ALZIRA VERARDO PAFFARO, 380         VINHEDO                                 13280000SP2763900001005381232134        04052011007PAULISTA            0106201100000000000195933CC                                                                                                                                                                                                                                                                                                                                                                                                         000035
1007421045057COBR_CAUC_BIC  CENTRO MANUF.DO ACO LTDA                057420598000195HIDROCROMO HIDRAU E PNEUMATICA LTD      RUA TABAJARAS, 492                      SANTA BARBARA D                         13456106SP2764000001005426942217A       10052011021CAMPINAS            0706201100000000000229147CC                                                                                                                                                                                                                                                                                                                                                                                                         000036
1007421045057COBR_CAUC_BIC  CENTRO MANUF.DO ACO LTDA                000080714000238ACOS CONTINENTE IND E COM LTDA          AV. PAPA JOAO PAULO I, 5619             GUARULHOS                               07170350SP2764100001005410272194A       09052011037GUARULHOS           0606201100000000000259224CC                                                                                                                                                                                                                                                                                                                                                                                                         000037
1007421045057COBR_CAUC_BIC  CENTRO MANUF.DO ACO LTDA                002269509000160METALURGICA DE TUBOS DE PRECISAO L      AV. MONTEIRO LOBATO, 3097               GUARULHOS                               07190903SP2764200001005409262183        06052011037GUARULHOS           0306201100000000000142149CC                                                                                                                                                                                                                                                                                                                                                                                                         000038
1007421045057COBR_CAUC_BIC  CENTRO MANUF.DO ACO LTDA                002269509000160METALURGICA DE TUBOS DE PRECISAO L      AV. MONTEIRO LOBATO, 3097               GUARULHOS                               07190903SP2764200002005415072183        06052011037GUARULHOS           0306201100000000000142149CC                                                                                                                                                                                                                                                                                                                                                                                                         000039
1007421045057COBR_CAUC_BIC  CENTRO MANUF.DO ACO LTDA                002610542000101RODAVELE INDUSTRIA DE EQUIPAMENTOS      RUA FRANCISCO DA COSTA PINA, 170        ARAUCARIA                               83707000PR276430000100502218    1548/3  04042011016CURITIBA            1605201100000000000297192CC                                                                                                                                                                                                                                                                                                                                                                                                         000040
1007421045057COBR_CAUC_BIC  CENTRO MANUF.DO ACO LTDA                074474933000157IMA INDS. MECANICAS ASSOCIADAS LTD      RUA ZILDA C. GIRALDI, 45                CAMPINAS                                13052476SP276440000100502056    1560/3  04042011021CAMPINAS            0306201100000000000152320CC                                                                                                                                                                                                                                                                                                                                                                                                         000041
1007421045057COBR_CAUC_BIC  CENTRO MANUF.DO ACO LTDA                074474933000157IMA INDS. MECANICAS ASSOCIADAS LTD      RUA ZILDA C. GIRALDI, 45                CAMPINAS                                13052476SP276440000200502064    1560/2  04042011021CAMPINAS            1905201100000000000152320CC                                                                                                                                                                                                                                                                                                                                                                                                         000042
1007421045057COBR_CAUC_COR  CENTRO MANUF.DO ACO LTDA                029981297000103VESCON EQUIP INDUSTRIAIS LTDA           VIA URBANA, 1988                        SIMOES FILHO                            43700000BA2764500001005412132206A       09052011900BRADESCO S/A        1006201100000000000320040CC                                                                                                                                                                                                                                                                                                                                                                                                         000043
1007421045057COBR_CAUC_BIC  CENTRO MANUF.DO ACO LTDA                059185579000157USINAGEM TAUBATE LTDA                   RUA NABOR ANTONIO CROZARIOL, 147        QUIRIRIM                                12092762SP2764600001005412212210A       09052011007PAULISTA            0606201100000000000353808CC                                                                                                                                                                                                                                                                                                                                                                                                         000044
1007421045057COBR_CAUC_BIC  CENTRO MANUF.DO ACO LTDA                002165825000191BBF INDUSTRIAL COMERCIAL LTDA           AV. ENG CARLOS REINALDO MENDES, 2120    SOROCABA                                18013280SP2764700001005411832205A-01    09052011007PAULISTA            0806201100000000000126184CC                                                                                                                                                                                                                                                                                                                                                                                                         000045
1007421045057COBR_CAUC_BIC  CENTRO MANUF.DO ACO LTDA                002165825000191BBF INDUSTRIAL COMERCIAL LTDA           AV. ENG CARLOS REINALDO MENDES, 2120    SOROCABA                                18013280SP2764700002005411912205A-02    09052011007PAULISTA            2206201100000000000126183CC                                                                                                                                                                                                                                                                                                                                                                                                         000046
1007421045057COBR_CAUC_BIC  CENTRO MANUF.DO ACO LTDA                002165825000191BBF INDUSTRIAL COMERCIAL LTDA           AV. ENG CARLOS REINALDO MENDES, 2120    SOROCABA                                18013280SP2764700003005412052205A-03    09052011007PAULISTA            0607201100000000000126183CC                                                                                                                                                                                                                                                                                                                                                                                                         000047
1007421045057COBR_CAUC_COR  CENTRO MANUF.DO ACO LTDA                010296329000103ITAMONT CALDEIRARIA LTDA                RUA: A, 77                              ESMERALDAS                              35740000MG2764800001005412810008772102  06052011900BRADESCO S/A        2006201100000000000062009CC                                                                                                                                                                                                                                                                                                                                                                                                         000048
1007421045057COBR_CAUC_COR  CENTRO MANUF.DO ACO LTDA                010296329000103ITAMONT CALDEIRARIA LTDA                RUA: A, 77                              ESMERALDAS                              35740000MG2764800002005413110008772101  06052011900BRADESCO S/A        0606201100000000000068213CC                                                                                                                                                                                                                                                                                                                                                                                                         000049
1007421045057COBR_CAUC_COR  CENTRO MANUF.DO ACO LTDA                010296329000103ITAMONT CALDEIRARIA LTDA                RUA: A, 77                              ESMERALDAS                              35740000MG2764800003005413290008771102  06052011900BRADESCO S/A        2006201100000000000128220CC                                                                                                                                                                                                                                                                                                                                                                                                         000050
1007421045057COBR_CAUC_COR  CENTRO MANUF.DO ACO LTDA                010296329000103ITAMONT CALDEIRARIA LTDA                RUA: A, 77                              ESMERALDAS                              35740000MG2764800004005413370008771101  06052011900BRADESCO S/A        0606201100000000000141043CC                                                                                                                                                                                                                                                                                                                                                                                                         000051
1007421045057COBR_CAUC_BIC  CENTRO MANUF.DO ACO LTDA                005846709000126TPA TRITURADORES DO BRASIL LTDA         RUA ZARA, 66                            SAO PAULO                               02512030SP276490000100479836    1447/2  28032011007PAULISTA            1705201100000000000237042CC                                                                                                                                                                                                                                                                                                                                                                                                         000052
1007421045057COBR_CAUC_BIC  CENTRO MANUF.DO ACO LTDA                005846709000126TPA TRITURADORES DO BRASIL LTDA         RUA ZARA, 66                            SAO PAULO                               02512030SP276490000200479844    1447/3  28032011007PAULISTA            0606201100000000000237042CC                                                                                                                                                                                                                                                                                                                                                                                                         000053
1007421045057COBR_CAUC_BIC  CENTRO MANUF.DO ACO LTDA                044106466000141POLIMOLD INDUSTRIAL SA                  ESTRADA DOS CASA,  4585                 RIACHO GRANDE                           09840000SP2765000001005426862216A       10052011038ABC                 2406201100000000000493165CC                                                                                                                                                                                                                                                                                                                                                                                                         000054
1007421045057COBR_CAUC_BIC  CENTRO MANUF.DO ACO LTDA                061440913000113CANDELORO MAQUINAS INDUSTRIAIS LTD      ROD.SP 333 CARLOS TONANNI, KM 123       JABOTICABAL                             14872000SP2765100001005407992167        06052011022RIBEIRAO PRETO      0306201100000000000253299CC                                                                                                                                                                                                                                                                                                                                                                                                         000055
1007421045057COBR_CAUC_BIC  CENTRO MANUF.DO ACO LTDA                061440913000113CANDELORO MAQUINAS INDUSTRIAIS LTD      ROD.SP 333 CARLOS TONANNI, KM 123       JABOTICABAL                             14872000SP2765100002005413702167        06052011022RIBEIRAO PRETO      0306201100000000000253299CC                                                                                                                                                                                                                                                                                                                                                                                                         000056
1007421045057COBR_CAUC_BIC  CENTRO MANUF.DO ACO LTDA                045561404000192PARCAN INDUSTRIA METALURGICA LTDA       R:JOAO SQUILASSI, 286                   RAFARD                                  13370000SP276520000100502161    1549/3  04042011021CAMPINAS            3005201100000000000135887CC                                                                                                                                                                                                                                                                                                                                                                                                         000057
1007421045057COBR_CAUC_BIC  CENTRO MANUF.DO ACO LTDA                045561404000192PARCAN INDUSTRIA METALURGICA LTDA       R:JOAO SQUILASSI, 286                   RAFARD                                  13370000SP276520000200502170    1549/2  04042011021CAMPINAS            1605201100000000000135887CC                                                                                                                                                                                                                                                                                                                                                                                                         000058
1007421045057COBR_CAUC_BIC  CENTRO MANUF.DO ACO LTDA                045561404000192PARCAN INDUSTRIA METALURGICA LTDA       R:JOAO SQUILASSI, 286                   RAFARD                                  13370000SP2765200003005380852125        04052011021CAMPINAS            0306201100000000000280413CC                                                                                                                                                                                                                                                                                                                                                                                                         000059
1007421045057COBR_CAUC_COR  CENTRO MANUF.DO ACO LTDA                022390108000170USINAGEM ITAUNA INDUSTRIA MECANICA      RDV BR 431 KM 45.3, S/N                 ITAUNA                                  35680583MG2765300001005412560008805101  09052011600HSBC BANK BRASIL    0606201100000000000210587CC                                                                                                                                                                                                                                                                                                                                                                                                         000060
1007421045057COBR_CAUC_COR  CENTRO MANUF.DO ACO LTDA                022390108000170USINAGEM ITAUNA INDUSTRIA MECANICA      RDV BR 431 KM 45.3, S/N                 ITAUNA                                  35680583MG2765300002005412990008805103  09052011600HSBC BANK BRASIL    2006201100000000000183118CC                                                                                                                                                                                                                                                                                                                                                                                                         000061
1007421045057COBR_CAUC_COR  CENTRO MANUF.DO ACO LTDA                022390108000170USINAGEM ITAUNA INDUSTRIA MECANICA      RDV BR 431 KM 45.3, S/N                 ITAUNA                                  35680583MG2765300003005413020008805102  09052011600HSBC BANK BRASIL    1306201100000000000183119CC                                                                                                                                                                                                                                                                                                                                                                                                         000062
1007421045057COBR_CAUC_BIC  CENTRO MANUF.DO ACO LTDA                096574165000146APEXFIL INDUSTRIA E COMERCIO LTDA       RUA CURUCA,  111                        SAO PAULO                               02120000SP2765400001005382472146-01     04052011007PAULISTA            0306201100000000000199726CC                                                                                                                                                                                                                                                                                                                                                                                                         000063
1007421045057COBR_CAUC_BIC  CENTRO MANUF.DO ACO LTDA                096574165000146APEXFIL INDUSTRIA E COMERCIO LTDA       RUA CURUCA,  111                        SAO PAULO                               02120000SP2765400002005382552146-02     04052011007PAULISTA            1806201100000000000199724CC                                                                                                                                                                                                                                                                                                                                                                                                         000064
1007421045057COBR_CAUC_BIC  CENTRO MANUF.DO ACO LTDA                096574165000146APEXFIL INDUSTRIA E COMERCIO LTDA       RUA CURUCA,  111                        SAO PAULO                               02120000SP2765400003005382632146-03     04052011007PAULISTA            0307201100000000000199724CC                                                                                                                                                                                                                                                                                                                                                                                                         000065
1007421045057COBR_CAUC_BIC  CENTRO MANUF.DO ACO LTDA                096574165000146APEXFIL INDUSTRIA E COMERCIO LTDA       RUA CURUCA,  111                        SAO PAULO                               02120000SP2765400004005383012148-01     04052011007PAULISTA            0306201100000000000013857CC                                                                                                                                                                                                                                                                                                                                                                                                         000066
1007421045057COBR_CAUC_BIC  CENTRO MANUF.DO ACO LTDA                096574165000146APEXFIL INDUSTRIA E COMERCIO LTDA       RUA CURUCA,  111                        SAO PAULO                               02120000SP2765400005005383102148-02     04052011007PAULISTA            1806201100000000000013856CC                                                                                                                                                                                                                                                                                                                                                                                                         000067
1007421045057COBR_CAUC_BIC  CENTRO MANUF.DO ACO LTDA                096574165000146APEXFIL INDUSTRIA E COMERCIO LTDA       RUA CURUCA,  111                        SAO PAULO                               02120000SP2765400006005383282148-03     04052011007PAULISTA            0307201100000000000013856CC                                                                                                                                                                                                                                                                                                                                                                                                         000068
1007421045057COBR_CAUC_BIC  CENTRO MANUF.DO ACO LTDA                004941427000145EUROHIDRAULICS COMERCIAL LTDA           RUA ZEFERINO BACCHI, 282                PIRACICABA                              13424090SP2765500001005408292170-01     06052011021CAMPINAS            0506201100000000000127134CC                                                                                                                                                                                                                                                                                                                                                                                                         000069
1007421045057COBR_CAUC_BIC  CENTRO MANUF.DO ACO LTDA                004941427000145EUROHIDRAULICS COMERCIAL LTDA           RUA ZEFERINO BACCHI, 282                PIRACICABA                              13424090SP2765500002005408372170-02     06052011021CAMPINAS            2006201100000000000127133CC                                                                                                                                                                                                                                                                                                                                                                                                         000070
1007421045057COBR_CAUC_BIC  CENTRO MANUF.DO ACO LTDA                004941427000145EUROHIDRAULICS COMERCIAL LTDA           RUA ZEFERINO BACCHI, 282                PIRACICABA                              13424090SP2765500003005408452170-03     06052011021CAMPINAS            0507201100000000000127133CC                                                                                                                                                                                                                                                                                                                                                                                                         000071
1007421045057COBR_CAUC_BIC  CENTRO MANUF.DO ACO LTDA                004941427000145EUROHIDRAULICS COMERCIAL LTDA           RUA ZEFERINO BACCHI, 282                PIRACICABA                              13424090SP2765500004005414002170-01     06052011021CAMPINAS            0506201100000000000127134CC                                                                                                                                                                                                                                                                                                                                                                                                         000072
1007421045057COBR_CAUC_BIC  CENTRO MANUF.DO ACO LTDA                004941427000145EUROHIDRAULICS COMERCIAL LTDA           RUA ZEFERINO BACCHI, 282                PIRACICABA                              13424090SP2765500005005414182170-02     06052011021CAMPINAS            2006201100000000000127133CC                                                                                                                                                                                                                                                                                                                                                                                                         000073
1007421045057COBR_CAUC_BIC  CENTRO MANUF.DO ACO LTDA                004941427000145EUROHIDRAULICS COMERCIAL LTDA           RUA ZEFERINO BACCHI, 282                PIRACICABA                              13424090SP2765500006005414262170-03     06052011021CAMPINAS            0507201100000000000127133CC                                                                                                                                                                                                                                                                                                                                                                                                         000074
1007421045057COBR_CAUC_BIC  CENTRO MANUF.DO ACO LTDA                056720428000163INDUSTRIA ROMI S.A                      AV. PEROLA BYINGTON,  56                SANTA BARBARA D                         13453900SP2765600001005380932126        04052011021CAMPINAS            2806201100000000000092400CC                                                                                                                                                                                                                                                                                                                                                                                                         000075
1007421045057COBR_CAUC_BIC  CENTRO MANUF.DO ACO LTDA                056720428000163INDUSTRIA ROMI S.A                      AV. PEROLA BYINGTON,  56                SANTA BARBARA D                         13453900SP2765600002005381072128        04052011021CAMPINAS            2806201100000000000138348CC                                                                                                                                                                                                                                                                                                                                                                                                         000076
1007421045057COBR_CAUC_BIC  CENTRO MANUF.DO ACO LTDA                056720428000163INDUSTRIA ROMI S.A                      AV. PEROLA BYINGTON,  56                SANTA BARBARA D                         13453900SP2765600003005427162221A       10052011021CAMPINAS            2806201100000000000564480CC                                                                                                                                                                                                                                                                                                                                                                                                         000077
1007421045057COBR_CAUC_BIC  CENTRO MANUF.DO ACO LTDA                052848868000140CESTARI INDUSTRIAL E COMERCIAL S/A      RODOVIA MONTE ALTO, KM 03               MONTE ALTO                              15910000SP2765700001005408022168        06052011022RIBEIRAO PRETO      1006201100000000000410666CC                                                                                                                                                                                                                                                                                                                                                                                                         000078
1007421045057COBR_CAUC_BIC  CENTRO MANUF.DO ACO LTDA                052848868000140CESTARI INDUSTRIAL E COMERCIAL S/A      RODOVIA MONTE ALTO, KM 03               MONTE ALTO                              15910000SP2765700002005413882168        06052011022RIBEIRAO PRETO      1006201100000000000410666CC                                                                                                                                                                                                                                                                                                                                                                                                         000079
1007421045057COBR_CAUC_BIC  CENTRO MANUF.DO ACO LTDA                057010126000164FEBA INDUSTRIA MECANICA LTDA            AV.SETE DE SETEMBRO, 1629               DIADEMA                                 09912010SP276580000100502226    1630/2  07042011038ABC                 0606201100000000000417937CC                                                                                                                                                                                                                                                                                                                                                                                                         000080
1007421045057COBR_CAUC_BIC  CENTRO MANUF.DO ACO LTDA                057010126000164FEBA INDUSTRIA MECANICA LTDA            AV.SETE DE SETEMBRO, 1629               DIADEMA                                 09912010SP276580000200502234    1630/3  07042011038ABC                 0607201100000000000417937CC                                                                                                                                                                                                                                                                                                                                                                                                         000081
1007421045057COBR_CAUC_COR  CENTRO MANUF.DO ACO LTDA                044021095000103LIEBHERR BRASIL GUIND E MAQ OPERAT      R DR HANS LIEBHERR,  1                  GUARATINGUETA                           12522640SP2765900001005411672203A       09052011900BRADESCO S/A        0806201100000000000875551CC                                                                                                                                                                                                                                                                                                                                                                                                         000082
1007421045057COBR_CAUC_BIC  CENTRO MANUF.DO ACO LTDA                044755932000110SORG IND E COMERCIO DE MAQUINAS LT      VIA ANTONIO CRUANES FILHO, 4430         LIMEIRA                                 13481287SP276600000100501955    1557/3  04042011021CAMPINAS            3005201100000000000443139CC                                                                                                                                                                                                                                                                                                                                                                                                         000083
1007421045057COBR_CAUC_BIC  CENTRO MANUF.DO ACO LTDA                044755932000110SORG IND E COMERCIO DE MAQUINAS LT      VIA ANTONIO CRUANES FILHO, 4430         LIMEIRA                                 13481287SP276600000200501963    1557/2  04042011021CAMPINAS            1605201100000000000443139CC                                                                                                                                                                                                                                                                                                                                                                                                         000084
1007421045057COBR_CAUC_BIC  CENTRO MANUF.DO ACO LTDA                061440913000113CANDELORO MAQUINAS INDUSTRIAIS LTD      ROD.SP 333 CARLOS TONANNI, KM 123       JABOTICABAL                             14872000SP2766300001005407992167        06052011022RIBEIRAO PRETO      0306201100000000000253299CC                                                                                                                                                                                                                                                                                                                                                                                                         000085
1007421045057COBR_CAUC_BIC  CENTRO MANUF.DO ACO LTDA                061440913000113CANDELORO MAQUINAS INDUSTRIAIS LTD      ROD.SP 333 CARLOS TONANNI, KM 123       JABOTICABAL                             14872000SP2766300002005413702167        06052011022RIBEIRAO PRETO      0306201100000000000253299CC                                                                                                                                                                                                                                                                                                                                                                                                         000086
1007421045057COBR_CAUC_BIC  CENTRO MANUF.DO ACO LTDA                045561404000192PARCAN INDUSTRIA METALURGICA LTDA       R:JOAO SQUILASSI, 286                   RAFARD                                  13370000SP276640000100502161    1549/3  04042011021CAMPINAS            3005201100000000000135887CC                                                                                                                                                                                                                                                                                                                                                                                                         000087
1007421045057COBR_CAUC_BIC  CENTRO MANUF.DO ACO LTDA                045561404000192PARCAN INDUSTRIA METALURGICA LTDA       R:JOAO SQUILASSI, 286                   RAFARD                                  13370000SP276640000200502170    1549/2  04042011021CAMPINAS            1605201100000000000135887CC                                                                                                                                                                                                                                                                                                                                                                                                         000088
1007421045057COBR_CAUC_BIC  CENTRO MANUF.DO ACO LTDA                045561404000192PARCAN INDUSTRIA METALURGICA LTDA       R:JOAO SQUILASSI, 286                   RAFARD                                  13370000SP2766400003005380852125        04052011021CAMPINAS            0306201100000000000280413CC                                                                                                                                                                                                                                                                                                                                                                                                         000089
1007421045057COBR_CAUC_COR  CENTRO MANUF.DO ACO LTDA                022390108000170USINAGEM ITAUNA INDUSTRIA MECANICA      RDV BR 431 KM 45.3, S/N                 ITAUNA                                  35680583MG2766500001005412560008805101  09052011600HSBC BANK BRASIL    0606201100000000000210587CC                                                                                                                                                                                                                                                                                                                                                                                                         000090
1007421045057COBR_CAUC_COR  CENTRO MANUF.DO ACO LTDA                022390108000170USINAGEM ITAUNA INDUSTRIA MECANICA      RDV BR 431 KM 45.3, S/N                 ITAUNA                                  35680583MG2766500002005412990008805103  09052011600HSBC BANK BRASIL    2006201100000000000183118CC                                                                                                                                                                                                                                                                                                                                                                                                         000091
1007421045057COBR_CAUC_COR  CENTRO MANUF.DO ACO LTDA                022390108000170USINAGEM ITAUNA INDUSTRIA MECANICA      RDV BR 431 KM 45.3, S/N                 ITAUNA                                  35680583MG2766500003005413020008805102  09052011600HSBC BANK BRASIL    1306201100000000000183119CC                                                                                                                                                                                                                                                                                                                                                                                                         000092
1007421045057COBR_CAUC_BIC  CENTRO MANUF.DO ACO LTDA                096574165000146APEXFIL INDUSTRIA E COMERCIO LTDA       RUA CURUCA,  111                        SAO PAULO                               02120000SP2766600001005382472146-01     04052011007PAULISTA            0306201100000000000199726CC                                                                                                                                                                                                                                                                                                                                                                                                         000093
1007421045057COBR_CAUC_BIC  CENTRO MANUF.DO ACO LTDA                096574165000146APEXFIL INDUSTRIA E COMERCIO LTDA       RUA CURUCA,  111                        SAO PAULO                               02120000SP2766600002005382552146-02     04052011007PAULISTA            1806201100000000000199724CC                                                                                                                                                                                                                                                                                                                                                                                                         000094
1007421045057COBR_CAUC_BIC  CENTRO MANUF.DO ACO LTDA                096574165000146APEXFIL INDUSTRIA E COMERCIO LTDA       RUA CURUCA,  111                        SAO PAULO                               02120000SP2766600003005382632146-03     04052011007PAULISTA            0307201100000000000199724CC                                                                                                                                                                                                                                                                                                                                                                                                         000095
1007421045057COBR_CAUC_BIC  CENTRO MANUF.DO ACO LTDA                096574165000146APEXFIL INDUSTRIA E COMERCIO LTDA       RUA CURUCA,  111                        SAO PAULO                               02120000SP2766600004005383012148-01     04052011007PAULISTA            0306201100000000000013857CC                                                                                                                                                                                                                                                                                                                                                                                                         000096
1007421045057COBR_CAUC_BIC  CENTRO MANUF.DO ACO LTDA                096574165000146APEXFIL INDUSTRIA E COMERCIO LTDA       RUA CURUCA,  111                        SAO PAULO                               02120000SP2766600005005383102148-02     04052011007PAULISTA            1806201100000000000013856CC                                                                                                                                                                                                                                                                                                                                                                                                         000097
1007421045057COBR_CAUC_BIC  CENTRO MANUF.DO ACO LTDA                096574165000146APEXFIL INDUSTRIA E COMERCIO LTDA       RUA CURUCA,  111                        SAO PAULO                               02120000SP2766600006005383282148-03     04052011007PAULISTA            0307201100000000000013856CC                                                                                                                                                                                                                                                                                                                                                                                                         000098
1007421045057COBR_CAUC_BIC  CENTRO MANUF.DO ACO LTDA                004941427000145EUROHIDRAULICS COMERCIAL LTDA           RUA ZEFERINO BACCHI, 282                PIRACICABA                              13424090SP2766700001005408292170-01     06052011021CAMPINAS            0506201100000000000127134CC                                                                                                                                                                                                                                                                                                                                                                                                         000099
1007421045057COBR_CAUC_BIC  CENTRO MANUF.DO ACO LTDA                004941427000145EUROHIDRAULICS COMERCIAL LTDA           RUA ZEFERINO BACCHI, 282                PIRACICABA                              13424090SP2766700002005408372170-02     06052011021CAMPINAS            2006201100000000000127133CC                                                                                                                                                                                                                                                                                                                                                                                                         000100
1007421045057COBR_CAUC_BIC  CENTRO MANUF.DO ACO LTDA                004941427000145EUROHIDRAULICS COMERCIAL LTDA           RUA ZEFERINO BACCHI, 282                PIRACICABA                              13424090SP2766700003005408452170-03     06052011021CAMPINAS            0507201100000000000127133CC                                                                                                                                                                                                                                                                                                                                                                                                         000101
1007421045057COBR_CAUC_BIC  CENTRO MANUF.DO ACO LTDA                004941427000145EUROHIDRAULICS COMERCIAL LTDA           RUA ZEFERINO BACCHI, 282                PIRACICABA                              13424090SP2766700004005414002170-01     06052011021CAMPINAS            0506201100000000000127134CC                                                                                                                                                                                                                                                                                                                                                                                                         000102
1007421045057COBR_CAUC_BIC  CENTRO MANUF.DO ACO LTDA                004941427000145EUROHIDRAULICS COMERCIAL LTDA           RUA ZEFERINO BACCHI, 282                PIRACICABA                              13424090SP2766700005005414182170-02     06052011021CAMPINAS            2006201100000000000127133CC                                                                                                                                                                                                                                                                                                                                                                                                         000103
1007421045057COBR_CAUC_BIC  CENTRO MANUF.DO ACO LTDA                004941427000145EUROHIDRAULICS COMERCIAL LTDA           RUA ZEFERINO BACCHI, 282                PIRACICABA                              13424090SP2766700006005414262170-03     06052011021CAMPINAS            0507201100000000000127133CC                                                                                                                                                                                                                                                                                                                                                                                                         000104
1007421045057COBR_CAUC_BIC  CENTRO MANUF.DO ACO LTDA                056720428000163INDUSTRIA ROMI S.A                      AV. PEROLA BYINGTON,  56                SANTA BARBARA D                         13453900SP2766800001005380932126        04052011021CAMPINAS            2806201100000000000092400CC                                                                                                                                                                                                                                                                                                                                                                                                         000105
1007421045057COBR_CAUC_BIC  CENTRO MANUF.DO ACO LTDA                056720428000163INDUSTRIA ROMI S.A                      AV. PEROLA BYINGTON,  56                SANTA BARBARA D                         13453900SP2766800002005381072128        04052011021CAMPINAS            2806201100000000000138348CC                                                                                                                                                                                                                                                                                                                                                                                                         000106
1007421045057COBR_CAUC_BIC  CENTRO MANUF.DO ACO LTDA                056720428000163INDUSTRIA ROMI S.A                      AV. PEROLA BYINGTON,  56                SANTA BARBARA D                         13453900SP2766800003005427162221A       10052011021CAMPINAS            2806201100000000000564480CC                                                                                                                                                                                                                                                                                                                                                                                                         000107
1007421045057COBR_CAUC_BIC  CENTRO MANUF.DO ACO LTDA                052848868000140CESTARI INDUSTRIAL E COMERCIAL S/A      RODOVIA MONTE ALTO, KM 03               MONTE ALTO                              15910000SP2766900001005408022168        06052011022RIBEIRAO PRETO      1006201100000000000410666CC                                                                                                                                                                                                                                                                                                                                                                                                         000108
1007421045057COBR_CAUC_BIC  CENTRO MANUF.DO ACO LTDA                052848868000140CESTARI INDUSTRIAL E COMERCIAL S/A      RODOVIA MONTE ALTO, KM 03               MONTE ALTO                              15910000SP2766900002005413882168        06052011022RIBEIRAO PRETO      1006201100000000000410666CC                                                                                                                                                                                                                                                                                                                                                                                                         000109
1007421045057COBR_CAUC_BIC  CENTRO MANUF.DO ACO LTDA                057010126000164FEBA INDUSTRIA MECANICA LTDA            AV.SETE DE SETEMBRO, 1629               DIADEMA                                 09912010SP276700000100502226    1630/2  07042011038ABC                 0606201100000000000417937CC                                                                                                                                                                                                                                                                                                                                                                                                         000110
1007421045057COBR_CAUC_BIC  CENTRO MANUF.DO ACO LTDA                057010126000164FEBA INDUSTRIA MECANICA LTDA            AV.SETE DE SETEMBRO, 1629               DIADEMA                                 09912010SP276700000200502234    1630/3  07042011038ABC                 0607201100000000000417937CC                                                                                                                                                                                                                                                                                                                                                                                                         000111
1007421045057COBR_CAUC_COR  CENTRO MANUF.DO ACO LTDA                044021095000103LIEBHERR BRASIL GUIND E MAQ OPERAT      R DR HANS LIEBHERR,  1                  GUARATINGUETA                           12522640SP2767100001005411672203A       09052011900BRADESCO S/A        0806201100000000000875551CC                                                                                                                                                                                                                                                                                                                                                                                                         000112
1007421045057COBR_CAUC_BIC  CENTRO MANUF.DO ACO LTDA                044755932000110SORG IND E COMERCIO DE MAQUINAS LT      VIA ANTONIO CRUANES FILHO, 4430         LIMEIRA                                 13481287SP276720000100501955    1557/3  04042011021CAMPINAS            3005201100000000000443139CC                                                                                                                                                                                                                                                                                                                                                                                                         000113
1007421045057COBR_CAUC_BIC  CENTRO MANUF.DO ACO LTDA                044755932000110SORG IND E COMERCIO DE MAQUINAS LT      VIA ANTONIO CRUANES FILHO, 4430         LIMEIRA                                 13481287SP276720000200501963    1557/2  04042011021CAMPINAS            1605201100000000000443139CC                                                                                                                                                                                                                                                                                                                                                                                                         000114
1007421045057COBR_CAUC_BIC  CENTRO MANUF.DO ACO LTDA                032592073000882HARSCO METALS LTDA                      AUTO ESTRADA, S/N                       VOLTA REDONDA                           27211130RJ2767400001005408532171        06052011014RIO DE JANEIRO      0306201100000000000472500CC                                                                                                                                                                                                                                                                                                                                                                                                         000115
1007421045057COBR_CAUC_BIC  CENTRO MANUF.DO ACO LTDA                032592073000882HARSCO METALS LTDA                      AUTO ESTRADA, S/N                       VOLTA REDONDA                           27211130RJ2767400002005414342171        06052011014RIO DE JANEIRO      0306201100000000000472500CC                                                                                                                                                                                                                                                                                                                                                                                                         000116
1007421045057COBR_CAUC_BIC  CENTRO MANUF.DO ACO LTDA                043299791000377MAQUINAS DANLY LTDA                     AV.PRINK, 151                           MAIRINQUE                               18120000SP276750000100397384     635/2  17022011007PAULISTA            2005201100000000000503804CC                                                                                                                                                                                                                                                                                                                                                                                                         000117
1007421045057COBR_CAUC_BIC  CENTRO MANUF.DO ACO LTDA                043299791000377MAQUINAS DANLY LTDA                     AV.PRINK, 151                           MAIRINQUE                               18120000SP276750000200502269    1637/1  07042011007PAULISTA            1006201100000000000922488CC                                                                                                                                                                                                                                                                                                                                                                                                         000118
1007421045057COBR_CAUC_BIC  CENTRO MANUF.DO ACO LTDA                060478476000164MODELACAO UNIDOS LTDA                   AV. ARICANDUVA, 5500                    SAO PAULO                               03490000SP276760000100502099    1551/1  04042011007PAULISTA            1905201100000000001594753CC                                                                                                                                                                                                                                                                                                                                                                                                         000119
1007421045057COBR_CAUC_COR  CENTRO MANUF.DO ACO LTDA                031705734000108ITAMIL ITAPEMIRIM MECANICA INDUSTR      RODOVIA BR 482 , S/N-KM 16              CACHOEIRO DE IT                         29313760ES2767700001005413450008757103  06052011600HSBC BANK BRASIL    2007201100000000000532800CC                                                                                                                                                                                                                                                                                                                                                                                                         000120
1007421045057COBR_CAUC_COR  CENTRO MANUF.DO ACO LTDA                031705734000108ITAMIL ITAPEMIRIM MECANICA INDUSTR      RODOVIA BR 482 , S/N-KM 16              CACHOEIRO DE IT                         29313760ES2767700002005413530008757102  06052011600HSBC BANK BRASIL    0507201100000000000532800CC                                                                                                                                                                                                                                                                                                                                                                                                         000121
1007421045057COBR_CAUC_COR  CENTRO MANUF.DO ACO LTDA                031705734000108ITAMIL ITAPEMIRIM MECANICA INDUSTR      RODOVIA BR 482 , S/N-KM 16              CACHOEIRO DE IT                         29313760ES2767700003005413610008757101  06052011600HSBC BANK BRASIL    2006201100000000000612720CC                                                                                                                                                                                                                                                                                                                                                                                                         000122
1007421045057COBR_CAUC_BIC  CENTRO MANUF.DO ACO LTDA                001939979000120NG METALURGICA  LTDA                    AV. DR MORATO,  190                     PIRACICABA                              13405260SP2767800001005382042142-01     04052011021CAMPINAS            1006201100000000000582820CC                                                                                                                                                                                                                                                                                                                                                                                                         000123
1007421045057COBR_CAUC_BIC  CENTRO MANUF.DO ACO LTDA                001939979000120NG METALURGICA  LTDA                    AV. DR MORATO,  190                     PIRACICABA                              13405260SP2767800002005382122142-02     04052011021CAMPINAS            2006201100000000000582820CC                                                                                                                                                                                                                                                                                                                                                                                                         000124
1007421045057COBR_CAUC_BIC  CENTRO MANUF.DO ACO LTDA                001939979000120NG METALURGICA  LTDA                    AV. DR MORATO,  190                     PIRACICABA                              13405260SP2767800003005382212142-03     04052011021CAMPINAS            1007201100000000000582820CC                                                                                                                                                                                                                                                                                                                                                                                                         000125
1007421045057COBR_CAUC_COR  CENTRO MANUF.DO ACO LTDA                083065292000178BLENKE MANUTENCAO INDUSTRIAL LTDA       RUA TIJUCAS,  572                       ITAJAI                                  88301361SC2767900001005383362150-01     04052011900BRADESCO S/A        0106201100000000000628426CC                                                                                                                                                                                                                                                                                                                                                                                                         000126
1007421045057COBR_CAUC_COR  CENTRO MANUF.DO ACO LTDA                083065292000178BLENKE MANUTENCAO INDUSTRIAL LTDA       RUA TIJUCAS,  572                       ITAJAI                                  88301361SC2767900002005383442150-02     04052011900BRADESCO S/A        0806201100000000000628425CC                                                                                                                                                                                                                                                                                                                                                                                                         000127
1007421045057COBR_CAUC_COR  CENTRO MANUF.DO ACO LTDA                083065292000178BLENKE MANUTENCAO INDUSTRIAL LTDA       RUA TIJUCAS,  572                       ITAJAI                                  88301361SC2767900003005383522150-03     04052011900BRADESCO S/A        1506201100000000000628425CC                                                                                                                                                                                                                                                                                                                                                                                                         000128
1007421045057COBR_CAUC_BIC  CENTRO MANUF.DO ACO LTDA                002755014000140TECNOLOGIA EM CABOS DE ACO BRASCAB      ROD. AMARAL PEIXOTO, KM. 177,5 - G. 2   MACAE                                   27973030RJ276800000100501980    1544/4  04042011014RIO DE JANEIRO      1806201100000000000713038CC                                                                                                                                                                                                                                                                                                                                                                                                         000129
1007421045057COBR_CAUC_BIC  CENTRO MANUF.DO ACO LTDA                002755014000140TECNOLOGIA EM CABOS DE ACO BRASCAB      ROD. AMARAL PEIXOTO, KM. 177,5 - G. 2   MACAE                                   27973030RJ276800000200501998    1544/2  04042011014RIO DE JANEIRO      1905201100000000000713038CC                                                                                                                                                                                                                                                                                                                                                                                                         000130
1007421045057COBR_CAUC_BIC  CENTRO MANUF.DO ACO LTDA                002755014000140TECNOLOGIA EM CABOS DE ACO BRASCAB      ROD. AMARAL PEIXOTO, KM. 177,5 - G. 2   MACAE                                   27973030RJ276800000300502013    1544/3  04042011014RIO DE JANEIRO      0306201100000000000713038CC                                                                                                                                                                                                                                                                                                                                                                                                         000131
1007421045057COBR_CAUC_BIC  CENTRO MANUF.DO ACO LTDA                003885416000122PRENSAS MAHNKE LTDA                     ALAMEDA 3 SARG.ALCIDES DE OLIVEIRA, 461 SAO PAULO                               02145040SP2768100001005383611255        18032011007PAULISTA            2007201100000000002465974CC                                                                                                                                                                                                                                                                                                                                                                                                         000132
1007421045057COBR_CAUC_BIC  CENTRO MANUF.DO ACO LTDA                003885416000122PRENSAS MAHNKE LTDA                     ALAMEDA 3 SARG.ALCIDES DE OLIVEIRA, 461 SAO PAULO                               02145040SP2768100002005384172072        02052011007PAULISTA            0107201100000000000728077CC                                                                                                                                                                                                                                                                                                                                                                                                         000133
1007421045057COBR_CAUC_BIC  CENTRO MANUF.DO ACO LTDA                061409892000335COMPANHIA BRASILEIRA DE ALUMINIO        RUA MORAES DO REGO, 347                 ALUMINIO                                18125000SP276820000100523070564/01E     25042011007PAULISTA            2006201100000000006946515CC                                                                                                                                                                                                                                                                                                                                                                                                         000134
1007421045057COBR_CAUC_BIC  CENTRO MANUF.DO ACO LTDA                002216876000286ANDRITZ HYDRO INEPAR DO BRASIL S/A      ROD.MANOEL DE ABREU KM4, S/N            ARARAQUARA                              14806500SP276830000100539081008795101   09052011022RIBEIRAO PRETO      2306201100000000004348260CC                                                                                                                                                                                                                                                                                                                                                                                                         000135
1007421045057COBR_CAUC_BIC  CENTRO MANUF.DO ACO LTDA                002216876000286ANDRITZ HYDRO INEPAR DO BRASIL S/A      ROD.MANOEL DE ABREU KM4, S/N            ARARAQUARA                              14806500SP276830000200539090008796101   09052011022RIBEIRAO PRETO      2306201100000000004369575CC                                                                                                                                                                                                                                                                                                                                                                                                         000136
1007421045057COBR_CAUC_BIC  CENTRO MANUF.DO ACO LTDA                088309620002606ALSTOM BRASIL ENERGIA E TRANSPORTE      AV CHARLES SCHNEIDER , S/N-TERREO       QUIRIRIM                                12040001SP2768400001005230530008607101  26042011007PAULISTA            2605201100000000007918929CC                                                                                                                                                                                                                                                                                                                                                                                                         000137
1007421045057COBR_CAUC_BIC  CENTRO MANUF.DO ACO LTDA                088309620002606ALSTOM BRASIL ENERGIA E TRANSPORTE      AV CHARLES SCHNEIDER , S/N-TERREO       QUIRIRIM                                12040001SP2768400002005230610008609101  27042011007PAULISTA            2705201100000000008021329CC                                                                                                                                                                                                                                                                                                                                                                                                         000138
1007421045057COBR_CAUC_BIC  CENTRO MANUF.DO ACO LTDA                061068342000138PRENSAS SCHULER S/A                     AV. FAGUNDES DE OLIVEIRA, 1515          DIADEMA                                 09950904SP276850000100412791     850/1  28022011038ABC                 1805201100000000005387739CC                                                                                                                                                                                                                                                                                                                                                                                                         000139
1007421045057COBR_CAUC_BIC  CENTRO MANUF.DO ACO LTDA                061068342000138PRENSAS SCHULER S/A                     AV. FAGUNDES DE OLIVEIRA, 1515          DIADEMA                                 09950904SP276850000200504474    1693/1  11042011038ABC                 2705201100000000005740140CC                                                                                                                                                                                                                                                                                                                                                                                                         000140
1007421045057COBR_CAUC_BIC  CENTRO MANUF.DO ACO LTDA                061068342000138PRENSAS SCHULER S/A                     AV. FAGUNDES DE OLIVEIRA, 1515          DIADEMA                                 09950904SP2768500003005391032208        09052011038ABC                 2506201100000000008537508CC                                                                                                                                                                                                                                                                                                                                                                                                         000141
1007421045057COBR_CAUC_BIC  CENTRO MANUF.DO ACO LTDA                061068342000138PRENSAS SCHULER S/A                     AV. FAGUNDES DE OLIVEIRA, 1515          DIADEMA                                 09950904SP2768500004005391112209        09052011038ABC                 2506201100000000005670436CC                                                                                                                                                                                                                                                                                                                                                                                                         000142
