0REMESSANOTIFICACAO ELETRONICA        99999999999999BICBANCO                                AV. PAULISTA                            1048      12.ANDAR  BELA VISTA                    SAO PAULO                     01310100SP1121739360CORTINHAL                               COORDENADOR                             30072014                                                                                                                                                                                                                                                                                                                                                                                      000001
1007421072259COBR_CAUC_COR  BOMBRIL S/A                             047079496000790MARANHAO DISTRIBUICAO S.A.              R ANUAR PACHA 400                       CATANDUVA                               15800670SP4863600001031472060061405001  28072014900BRADESCO S/A        1808201400000000010174395CC                                                                                                                                                                                                                                                                                                                                                                                                         000002
1007421072259COBR_CAUC_COR  BOMBRIL S/A                             047079496000790MARANHAO DISTRIBUICAO S.A.              R ANUAR PACHA 400                       CATANDUVA                               15800670SP4863600002031472140061406001  28072014900BRADESCO S/A        1808201400000000010174395CC                                                                                                                                                                                                                                                                                                                                                                                                         000003
1031421012447COBR_CAUC_COR  AGRICOLA JANDELLE S/A                   001928075002062DMA DISTRIBUIDORA S/A                   RODOVIA BR 040 KM 531 180               BELO HORIZONTE                          30855500MG4863700001030014050015339601  29072014900BRADESCO S/A        2808201400000000012123164CC                                                                                                                                                                                                                                                                                                                                                                                                         000004
1048421000338COBR_CAUC_COR  FRIGOESTRELA S.A. EM RECUP JUDICIAL     060494416001530PAGUE MENOS COM.DE PROD.ALIMENTCIO      RUA ANCHIETA GALPAO No1599 GALPAO       NOVA ODESSA                             13460000SP4863800001084750820114955801  28072014900BRADESCO S/A        2508201400000000010963448CC                                                                                                                                                                                                                                                                                                                                                                                                         000005
1016421019267COBR_CAUC_COR  COBRAZEM AGROINDUSTRIAL LTDA            081584278004304COOPERATIVA AGROINDUSTRIAL COPAGRI      RUA ARSENIO BACKES ,1                   ENTRE RIOS D OE                         85988000PR4863900001045827890003316-1   17072014600HSBC BANK BRASIL    2108201400000000050750000CC                                                                                                                                                                                                                                                                                                                                                                                                         000006
9000004                                                                                                                                                                                                                                                                                                                                                                                                                                                                                                                                                                                                                                                                                                               000007
