0REMESSANOTIFICACAO ELETRONICA        99999999999999BICBANCO                                AV. PAULISTA                            1048      12.ANDAR  BELA VISTA                    SAO PAULO                     01310100SP1121739360CORTINHAL                               COORDENADOR                             26052014                                                                                                                                                                                                                                                                                                                                                                                      000001
1016421009571COBR_CAUC_BIC  IMPORTADORA DE FRUTAS LA VIOLETERA      006314327000203JC DIST LOGISTICA IMP EXP PROD IND      RUA 1 QD1 LOTE 2 S/N                    APARECIDA DE GO                         74980970GO4765600001045084810029732301  21052014018GOIANIA             1806201400000000011548938CC                                                                                                                                                                                                                                                                                                                                                                                                         000002
1018421034826COBR_CAUC_BIC  LACEL LATICINIOS CERES LTDA             023439441001323ARMAZEM MATEUS LTDA                     AV ENG.  EMILIANO MACIEIRA, 5 - DEPOSITOSAO LUIS                                65095602MA476570000103710363032505      22052014042SAO LUIS            2306201400000000011174400CC                                                                                                                                                                                                                                                                                                                                                                                                         000003
1018421034834COBR_CAUC_COR  LACEL LATICINIOS CERES LTDA             023439441000190ARMAZEM  MATEUS LTDA                    RUA PROFESSOR JOCA REGO  NR.100         BALSAS                                  65800000MA476580000103710380032500      22052014900BRADESCO S/A        2506201400000000054900000CC                                                                                                                                                                                                                                                                                                                                                                                                         000004
1048421002195COBR_CAUC_COR  SERVIMED COMERCIAL LTDA                 011420176000119A B DO AMARAL                           R 24 600                                GOIANIA                                 74030060GO476590000101977121113992  22  22052014900BRADESCO S/A        2605201400000000049750483CC                                                                                                                                                                                                                                                                                                                                                                                                         000005
1016421019909COBR_CAUC_BIC  TROMBINI EMBALAGENS S/A                 083305235007636COOPERATIVA AGROINDUSTRIAL ALFA         AV. FERNANDO MACHADO 2580 PASSO DOS FORTCHAPECO                                 89805902SC47660000010450869426300-1     22052014046FLORIANOPOLIS       1906201400000000012550583CC                                                                                                                                                                                                                                                                                                                                                                                                         000006
1050421002855COBR_CAUC_COR  C F SANTOS COM DE ALIMENTOS LTDA        004899316000118IMIFARMA PRODUTOS FARMAC. E COSMET      TV QUINTINO BOCAIUVA 381,381            BELEM                                   66053240PA476610000100000816382453      23052014900BRADESCO S/A        3006201400000000010104945CC                                                                                                                                                                                                                                                                                                                                                                                                         000007
1007421076122COBR_CAUC_BIC  BMC HYUNDAI S.A                         005146343000182SAVEL CONSTRUCAO E LOCACAO LTDA         RUA PRISCILA B,135-QDR A LOT 54 CO      LAURO DE FREITA                         42700000BA476620000102942207CONT.-14    30072013013SALVADOR            1806201400000000030232300CC                                                                                                                                                                                                                                                                                                                                                                                                         000008
1007421076122COBR_CAUC_BIC  BMC HYUNDAI S.A                         005146343000182SAVEL CONSTRUCAO E LOCACAO LTDA         RUA PRISCILA B,135-QDR A LOT 54 CO      LAURO DE FREITA                         42700000BA476620000202942215CONT.-20    30072013013SALVADOR            1812201400000000030232300CC                                                                                                                                                                                                                                                                                                                                                                                                         000009
1007421076122COBR_CAUC_BIC  BMC HYUNDAI S.A                         005146343000182SAVEL CONSTRUCAO E LOCACAO LTDA         RUA PRISCILA B,135-QDR A LOT 54 CO      LAURO DE FREITA                         42700000BA476620000302942223CONT.-19    30072013013SALVADOR            1811201400000000030232300CC                                                                                                                                                                                                                                                                                                                                                                                                         000010
1007421076122COBR_CAUC_BIC  BMC HYUNDAI S.A                         005146343000182SAVEL CONSTRUCAO E LOCACAO LTDA         RUA PRISCILA B,135-QDR A LOT 54 CO      LAURO DE FREITA                         42700000BA476620000402942231CONT.-18    30072013013SALVADOR            1810201400000000030232300CC                                                                                                                                                                                                                                                                                                                                                                                                         000011
1007421076122COBR_CAUC_BIC  BMC HYUNDAI S.A                         005146343000182SAVEL CONSTRUCAO E LOCACAO LTDA         RUA PRISCILA B,135-QDR A LOT 54 CO      LAURO DE FREITA                         42700000BA476620000502942240CONT.-17    30072013013SALVADOR            1809201400000000030232300CC                                                                                                                                                                                                                                                                                                                                                                                                         000012
1007421076122COBR_CAUC_BIC  BMC HYUNDAI S.A                         005146343000182SAVEL CONSTRUCAO E LOCACAO LTDA         RUA PRISCILA B,135-QDR A LOT 54 CO      LAURO DE FREITA                         42700000BA476620000602942258CONT.-16    30072013013SALVADOR            1808201400000000030232300CC                                                                                                                                                                                                                                                                                                                                                                                                         000013
1007421076122COBR_CAUC_BIC  BMC HYUNDAI S.A                         005146343000182SAVEL CONSTRUCAO E LOCACAO LTDA         RUA PRISCILA B,135-QDR A LOT 54 CO      LAURO DE FREITA                         42700000BA476620000702942266CONT.-15    30072013013SALVADOR            1807201400000000030232300CC                                                                                                                                                                                                                                                                                                                                                                                                         000014
1016420933828COBR_CAUC_COR  PENINSULA INTERNATIONAL S/A             002734023001470FIAGRIL LTDA                            RUA COLONIZADOR ENIO PIPINO 3751 SAL01  SINOP                                   78550514MT4767800001040738172135-2      25062013900BRADESCO S/A        3006201400000000050000000CC                                                                                                                                                                                                                                                                                                                                                                                                         000015
1016420933828COBR_CAUC_COR  PENINSULA INTERNATIONAL S/A             002734023001470FIAGRIL LTDA                            RUA COLONIZADOR ENIO PIPINO 3751 SAL01  SINOP                                   78550514MT4767800002040738252135-1      25062013900BRADESCO S/A        3006201400000000050000000CC                                                                                                                                                                                                                                                                                                                                                                                                         000016
9000008                                                                                                                                                                                                                                                                                                                                                                                                                                                                                                                                                                                                                                                                                                               000017
