0REMESSANOTIFICACAO ELETRONICA        99999999999999BICBANCO                                AV. PAULISTA                            1048      12.ANDAR  BELA VISTA                    SAO PAULO                     01310100SP1121739360CORTINHAL                               COORDENADOR                             15042014                                                                                                                                                                                                                                                                                                                                                                                      000001
1007421077048DIR_CREDIT     ACESYSTEMS SOLUCOES EM TECNOLOGIA       043217280000105SOCICAM ADMIN. E PROJ. E REPR. LTDA     RUA BOA VISTA, 236                      SãO PAULO                               01046926SP4717000001                                                                                                                                          012556825           01082013000002541010/2013-INEA11042014000404Serviços de manutenção de Terminais Inteligentes(TI) nos Terminais,    Estações de Transferencia e Paradas conforme proposta técnica apresentada e de acordo com as Ordens de Serviços a serem expedidas pela SP Trans a Socicam.               008755477000199              000002
1015421022340COBR_CAUC_BIC  BORRACHAS VIPAL SA                      002437645000111RECAP -  PNEUS MARINGA LTDA             ESTRADA RJ 145, N 10017 PARTE CX P 87345VALENCA                                 27600000RJ471720000101266948048200601   09042014014RIO DE JANEIRO      0807201400000000012147345CC                                                                                                                                                                                                                                                                                                                                                                                                         000003
1015421022340COBR_CAUC_BIC  BORRACHAS VIPAL SA                      002926987000103UNIMAK REFORMADORA DE PNEUS LTDA        ROD. DO ACUCAR  KM  154                 RIO DAS PEDRAS                          13390000SP471730000101267014048191101   09042014021CAMPINAS            2904201400000000011565096CC                                                                                                                                                                                                                                                                                                                                                                                                         000004
1015421022340COBR_CAUC_BIC  BORRACHAS VIPAL SA                      008832031000110VEYANCE TECHNOLOGIES BR.PRODS.ENG.      RUA MORAES MIGUEL, 180                  SAO PAULO                               03021200SP471740000101264465048187401   09042014007PAULISTA            1605201400000000020390328CC                                                                                                                                                                                                                                                                                                                                                                                                         000005
1015421022340COBR_CAUC_BIC  BORRACHAS VIPAL SA                      008832031000110VEYANCE TECHNOLOGIES BR.PRODS.ENG.      RUA MORAES MIGUEL, 180                  SAO PAULO                               03021200SP471740000201266891048199601   09042014007PAULISTA            1605201400000000018015900CC                                                                                                                                                                                                                                                                                                                                                                                                         000006
1021420930887COBR_CAUC_COR  DEDINI S/A INDUSTRIAS DE BASE           033273681000110FLOWSERVE DO BRASIL LTDA                ESTRADA DO PEDREGOSO CAMPO GRANDE BR    RIO DE JANEIRO                          23078450RJ47175000010655328847722-3-3   10042014900BRADESCO S/A        1005201400000000019859982CC                                                                                                                                                                                                                                                                                                                                                                                                         000007
1007421065309COBR_CAUC_BIC  OCEANO IND.GRAFICA E EDITORA LTDA       062270186000156PRECOLANDIA COMERCIAL  LTDA             AV. ALVARO RAMOS,2178                   SAO PAULO                               03330000SP47176000010282712261235-C     01042014007PAULISTA            0107201400000000010461600CC                                                                                                                                                                                                                                                                                                                                                                                                         000008
1007421065309COBR_CAUC_BIC  OCEANO IND.GRAFICA E EDITORA LTDA       062270186000156PRECOLANDIA COMERCIAL  LTDA             AV. ALVARO RAMOS,2178                   SAO PAULO                               03330000SP47176000020282713161235-D     01042014007PAULISTA            1107201400000000010461600CC                                                                                                                                                                                                                                                                                                                                                                                                         000009
1008421022487COBR_CAUC_COR  EBP - EMPRESA BRASILEIRA DE PESCADO     033304981000110SUPERMERCADOS MUNDIAL LTDA              RUA  DONA EMILIA, 2                     RIO DE JANEIRO                          20765110RJ4717700001017468310025795/    12042014900BRADESCO S/A        0205201400000000015800000CC                                                                                                                                                                                                                                                                                                                                                                                                         000010
1022421009978COBR_CAUC_COR  LAJINHA AGROPECUARIA DE ITAPUI LTDA     023439441001404ARMAZEM MATEUS S/A                      RUA: LEONCIO PIRES DOURDAO , 3200       IMPERATRIZ                              65901020MA4718300001000305612  026777   14042014900BRADESCO S/A        1305201400000000009570000CC                                                                                                                                                                                                                                                                                                                                                                                                         000011
1022421009978COBR_CAUC_COR  LAJINHA AGROPECUARIA DE ITAPUI LTDA     023439441001404ARMAZEM MATEUS S/A                      RUA: LEONCIO PIRES DOURDAO , 3200       IMPERATRIZ                              65901020MA4718300002000305702  026778   14042014900BRADESCO S/A        1305201400000000009570000CC                                                                                                                                                                                                                                                                                                                                                                                                         000012
9000008                                                                                                                                                                                                                                                                                                                                                                                                                                                                                                                                                                                                                                                                                                               000013
