0REMESSANOTIFICACAO ELETRONICA        99999999999999BICBANCO                                AV. PAULISTA                            1048      12.ANDAR  BELA VISTA                    SAO PAULO                     01310100SP1121739360CORTINHAL                               COORDENADOR                             26072013                                                                                                                                                                                                                                                                                                                                                                                      000001
1022421007886COBR_CAUC_COR  COOPERCITRUS COOP. DE PROD. RURAIS      000001184539987CARLOS TREVIZAN E OUTRA                 AVE BATALHAO MAUA,01126                 ARAGUARI                                38440210MG432770000100010862000036709   05072013900BRADESCO S/A        0410201300000000013000000CC                                                                                                                                                                                                                                                                                                                                                                                                         000002
1022421007886COBR_CAUC_COR  COOPERCITRUS COOP. DE PROD. RURAIS      000055041388687MARCIO CUSTODIO DE ARAUJO               AVE AFONSO PENA,00967                   CENTRALINA                              38390000MG432800000100010871000035169   18022013900BRADESCO S/A        0710201300000000011030300CC                                                                                                                                                                                                                                                                                                                                                                                                         000003
1022421007886COBR_CAUC_COR  COOPERCITRUS COOP. DE PROD. RURAIS      000022105619819CRISTINA APARECIDA ROSA CARDOSO         AVE ANTONIO ROSA,00088                  PAULOPOLIS                              17583000SP432790000100010897000004834   02072013900BRADESCO S/A        2110201300000000019220000CC                                                                                                                                                                                                                                                                                                                                                                                                         000004
1022421007886COBR_CAUC_COR  COOPERCITRUS COOP. DE PROD. RURAIS      016617789000164AGROPEU AGRO INDUSTRIAL POMPEU S/A      ROD MG 060 KM 82                        POMPEU                                  35640000MG432780000100010889000039572   12072013900BRADESCO S/A        0210201300000000022300000CC                                                                                                                                                                                                                                                                                                                                                                                                         000005
1014421024990DIR_CREDIT     FLAVIO MOVEIS LTDA                      027406222000165DACASA FINANCEIRA S/A                   AV NOSSA SENHORA DA PENHA, 2035         VITORIA                                 29056245ES4329700001                                                                                                                                          012295742           010620070000023670S/NR        24072013000403recebíveis do cartão de crédito Private Label denominado Cartão        Palladium Móveis - DACASA.                                                                                                                                               005107922000116              000006
1048421000338COBR_CAUC_COR  FRIGOESTRELA S.A. EM RECUP JUDICIAL     050947761001871IRMAOS RUSSI LTDA                       RUA LUIS ALLI FARDYN590SALA 03          CAJAMAR                                 07750000SP4328300001054539240096479801  24072013900BRADESCO S/A        2608201300000000010219521CC                                                                                                                                                                                                                                                                                                                                                                                                         000007
1016421023809COBR_CAUC_BIC  IBEMA COMPANHIA BRASILEIRA DE PAPEL     010308997000103HALLEY S/A GRAFICA E EDITORA            AV. INDUSTRIAL GIL MARTINS,250-SUL      TERESINA                                64019630PI432810000104082123180291.1    25072013042SAO LUIS            1208201300000000014738404CC                                                                                                                                                                                                                                                                                                                                                                                                         000008
1015421022537COBR_CAUC_COR  SERRA MORENA CORRETORA LTDA             079044871000167MOLINO ROSSO LTDA                       AVENIDA IRAI, 77                        OSASCO                                  83321000SP432820000101088322870/13-D    28062013900BRADESCO S/A        1309201300000000044000000CC                                                                                                                                                                                                                                                                                                                                                                                                         000009
9000008                                                                                                                                                                                                                                                                                                                                                                                                                                                                                                                                                                                                                                                                                                               000010
