0REMESSANOTIFICACAO ELETRONICA        99999999999999BICBANCO                                AV. PAULISTA                            1048      12.ANDAR  BELA VISTA                    SAO PAULO                     01310100SP1121739360CORTINHAL                               COORDENADOR                             28092011                                                                                                                                                                                                                                                                                                                                                                                      000001
1038421011812COBR_CAUC_BIC  ENERGY COML IMPORT E EXPORT LTDA        009363567000105PREMIX BRASIL RESINAS                   ALAMEDA ARAGU,2044-CJ703A705TORRE2      SAO PAULO                               06455000SP309160000109433900564         26092011007PAULISTA            2410201100000000012367890CC                                                                                                                                                                                                                                                                                                                                                                                                         000002
1038421011812COBR_CAUC_BIC  ENERGY COML IMPORT E EXPORT LTDA        009363567000105PREMIX BRASIL RESINAS                   ALAMEDA ARAGU,2044-CJ703A705TORRE2      SAO PAULO                               06455000SP309160000209433918563         26092011007PAULISTA            2410201100000000011030821CC                                                                                                                                                                                                                                                                                                                                                                                                         000003
1038421011812COBR_CAUC_BIC  ENERGY COML IMPORT E EXPORT LTDA        009363567000105PREMIX BRASIL RESINAS                   ALAMEDA ARAGU,2044-CJ703A705TORRE2      SAO PAULO                               06455000SP309160000309433926562         26092011007PAULISTA            2410201100000000011030821CC                                                                                                                                                                                                                                                                                                                                                                                                         000004
1038421011812COBR_CAUC_BIC  ENERGY COML IMPORT E EXPORT LTDA        009363567000105PREMIX BRASIL RESINAS                   ALAMEDA ARAGU,2044-CJ703A705TORRE2      SAO PAULO                               06455000SP309160000409433934561         26092011007PAULISTA            2410201100000000011030821CC                                                                                                                                                                                                                                                                                                                                                                                                         000005
1048421000354COBR_CAUC_COR  FRIGOL S.A. EM RECUPERACAO JUDICIAL     003879760000702ANCORA DISTRIBUIDORA LTDA               AV SENADOR ROBERT KENNEDY 1055          FORTALEZA                               60332170CE30917000010024623819992       27092011900BRADESCO S/A        0410201100000000013380000CC                                                                                                                                                                                                                                                                                                                                                                                                         000006
1048421000354COBR_CAUC_COR  FRIGOL S.A. EM RECUPERACAO JUDICIAL     074101569002395AGRICOLA JANDELLE SA                    ROD PR 317 KM 52                        SANTA FE                                86770000PR3091800001002462718103        27092011900BRADESCO S/A        0410201100000000016347764CC                                                                                                                                                                                                                                                                                                                                                                                                         000007
1024421007416COBR_CAUC_BIC  ATLAS AGROINDUSTRIAL LTDA               060037058000484ADORO S/A                               ROD SP 215 KM 157 S/N                   SAO CARLOS                              13560970SP30919000010192861320222       26092011024CUIABA              1601201200000000014192125CC                                                                                                                                                                                                                                                                                                                                                                                                         000008
1024421007416COBR_CAUC_BIC  ATLAS AGROINDUSTRIAL LTDA               060037058000484ADORO S/A                               ROD SP 215 KM 157 S/N                   SAO CARLOS                              13560970SP30919000020192862120223       26092011024CUIABA              2001201200000000014192125CC                                                                                                                                                                                                                                                                                                                                                                                                         000009
9000004                                                                                                                                                                                                                                                                                                                                                                                                                                                                                                                                                                                                                                                                                                               000010
