0REMESSANOTIFICACAO ELETRONICA        99999999999999BICBANCO                                AV. PAULISTA                            1048      12.ANDAR  BELA VISTA                    SAO PAULO                     01310100SP1121739360CORTINHAL                               COORDENADOR                             08042014                                                                                                                                                                                                                                                                                                                                                                                      000001
1003421010775COBR_CAUC_COR  NUFARM IND QUIM FARMACEUTICA S/A        043001981005082COOPERATIVA AGRICOLA MISTA DE ADAM      RUA CHUJIRO MATSUDA, 25                 ADAMANTINA                              17800000SP470900000104379304 002698901  24032014600HSBC BANK BRASIL    2304201400000000030600000CC                                                                                                                                                                                                                                                                                                                                                                                                         000002
1009421012831COBR_CAUC_COR  ASA ALIMENTOS S/A                       007209331000185REGINA AGROINDUSTRIAL S/A               ESTRADA DO AQUIRAZ,  801                FORTALEZA                               60840970CE4709100001001503250048687     05042014900BRADESCO S/A        0305201400000000012412800CC                                                                                                                                                                                                                                                                                                                                                                                                         000003
1009421012831COBR_CAUC_COR  ASA ALIMENTOS S/A                       000083809899615VALDIR VAGNER FERREIRA E OUTROS         ROD BR 262, SN KM 426                   IGARATINGA                              35695000MG4709200001001500660048636     04042014900BRADESCO S/A        0904201400000000010382580CC                                                                                                                                                                                                                                                                                                                                                                                                         000004
1019421010410COBR_CAUC_BIC  MADSON ELETROMETALURGICA LTDA           001120364000178WG ELETRO S.A.                          R ARQUIMEDES P LIMA           1000      CUIABA                                  78060260MT470930000106852005243132/P01  03042014024CUIABA              0108201400000000017634396CC                                                                                                                                                                                                                                                                                                                                                                                                         000005
1007421075894COBR_CAUC_COR  INTELCAV CARTOES LTDA                   069034668000156SODEXO PASS DO BRASIL SERVS E COM       ALAMEDA ARAGUAIA 1142                   BARUERI                                 06455000SP4709400001028046886025-A      05042014700BANCO REAL- ABN AMRO2504201400000000024842616CC                                                                                                                                                                                                                                                                                                                                                                                                         000006
1007421075894COBR_CAUC_COR  INTELCAV CARTOES LTDA                   069034668000156SODEXO PASS DO BRASIL SERVS E COM       ALAMEDA ARAGUAIA 1142                   BARUERI                                 06455000SP4709400002028046966024-A      05042014700BANCO REAL- ABN AMRO2504201400000000014100022CC                                                                                                                                                                                                                                                                                                                                                                                                         000007
1016421023299COBR_CAUC_BIC  SIDERQUIMICA IND COM PROD QUIM S/A      085347284000140BENVETEX TÊXTIL LTDA                    RUA DR BLUMENAU 2799 GALPÃO 01          INDAIAL                                 89130000SC470950000104443690172799-1    28022014046FLORIANOPOLIS       2904201400000000012525000CC                                                                                                                                                                                                                                                                                                                                                                                                         000008
1046421001443COBR_CAUC_COR  COSTAO DO SANTINHO TUR E LAZER LTDA     043940618000144ELI LILLY DO BRASIL LTDA                AVENIDA MORUMBI,8264                    SAO PAULO                               04703002SP470960000100013611208120      03042014900BRADESCO S/A        2404201400000000019907543CC                                                                                                                                                                                                                                                                                                                                                                                                         000009
1010421024356COBR_CAUC_COR  DIST EQUADOR DE PROD PETROLEO LTDA      011338257000174NAVEGACAO UNIDAS TAPAJOS LTDA           AV DOUTOR FREITAS, 2408 , SALA 201 B    BELEM                                   66087810PA47097000010007247041801       07042014900BRADESCO S/A        1704201400000000024000000CC                                                                                                                                                                                                                                                                                                                                                                                                         000010
1016421008591COBR_CAUC_BIC  GLOBOAVES SAO PAULO AGROAVICOLA LTD     083044016000980TYSON DO BRASIL ALIMENTOS LTDA          ROD BR 487 ESTR BOIADEIRA KM 185,0      CAMPO MOURAO                            87305380PR470980000104441590121730      01042014016CURITIBA            3004201400000000010584000CC                                                                                                                                                                                                                                                                                                                                                                                                         000011
1048421003043COBR_CAUC_COR  FRIGOL S.A. EM RECUPERACAO JUDICIAL     008029696000352ESTIVAS NOVO PRADO LTDA                 VINTE DE JANEIRO 958                    RECIFE                                  51130120PE47099000010007138100000576-1  05042014900BRADESCO S/A        1404201400000000020997515CC                                                                                                                                                                                                                                                                                                                                                                                                         000012
9000010                                                                                                                                                                                                                                                                                                                                                                                                                                                                                                                                                                                                                                                                                                               000013
