0REMESSANOTIFICACAO ELETRONICA        99999999999999BICBANCO                                AV. PAULISTA                            1048      12.ANDAR  BELA VISTA                    SAO PAULO                     01310100SP1121739360CORTINHAL                               COORDENADOR                             08032013                                                                                                                                                                                                                                                                                                                                                                                      000001
1024420934410COBR_CAUC_BIC  INTERCOOP INT SUIN MED NORTE MT LTD     004613751000487CRISTALFRIGO IND COM IMPORTACAO EX      AV DOS ANDRADAS ,2229-STA EFIGENIA      BELO HORIZONTE                          30120010MG40782000010200944195690       06032013019BELO HORIZONTE      0304201300000000013467293CC                                                                                                                                                                                                                                                                                                                                                                                                         000002
1028421002921COBR_CAUC_COR  MATABOI ALIMENTOS S/A - EM REC.JUD.     004641376007300SUPERMERCADOS BH COMERCIO DE ALIME      AV  GERALDO ROCHA700                    CONTAGEM                                32183054MG4077900001002760010030018701  06032013900BRADESCO S/A        0304201300000000016913228CC                                                                                                                                                                                                                                                                                                                                                                                                         000003
1007421055095COBR_CAUC_COR  PLASTER IND COM RESINAS PLAS EIRELI     005038737000117CERANTOLA DO BRASIL IND COM LTDA        RODOVIA BRAZ FORTUNATO,S/N-KM 02        BARIRI                                  17250000SP407830000100011303031782/A    06032013900BRADESCO S/A        1603201300000000016170000CC                                                                                                                                                                                                                                                                                                                                                                                                         000004
1009420930764COBR_CAUC_BIC  S/A CORREIO BRAZILIENSE                 006056990000166JOSE CELSO GONTIJO ENGENHARIA S A       EQS 114 115 CONJUNTO A BLOCO 1 A SUL 41 BRASILIA                                70377400DF407800000101396565455853-1    06032013009BRASILIA            1504201300000000014300938CC                                                                                                                                                                                                                                                                                                                                                                                                         000005
1048421002195COBR_CAUC_COR  SERVIMED COMERCIAL LTDA                 017256512002917DROG ARAUJO SA                          AV APIO CARDOSO 100                     CONTAGEM                                32371615MG407810000100516243783729  17  06032013900BRADESCO S/A        0605201300000000061009376CC                                                                                                                                                                                                                                                                                                                                                                                                         000006
9000005                                                                                                                                                                                                                                                                                                                                                                                                                                                                                                                                                                                                                                                                                                               000007
