0REMESSANOTIFICACAO ELETRONICA        99999999999999BICBANCO                                AV. PAULISTA                            1048      12.ANDAR  BELA VISTA                    SAO PAULO                     01310100SP1121739360CORTINHAL                               COORDENADOR                             13092012                                                                                                                                                                                                                                                                                                                                                                                      000001
1022421007800COBR_CAUC_COR  LEAO ENGENHARIA S/A                     012753800000162CGR - CURITIBA LTDA                     ACF-XAVIER SILVA-CXPOSTAL 1108,0        CAMPO LARGO                             83601980PR378030000100000239052685/1.1  10092012900BRADESCO S/A        0910201200000000010481128CC                                                                                                                                                                                                                                                                                                                                                                                                         000002
1038421020897COBR_CAUC_BIC  ENERGY COML IMPORT E EXPORT LTDA        014555032000168REPLAS COMERCIO DE RESINAS PLASTIC      AV PRESIDENTE WILSON 5700               SAO PAULO                               04220002SP378040000109848450001729      10092012007PAULISTA            1010201200000000011105464CC                                                                                                                                                                                                                                                                                                                                                                                                         000003
1038421020897COBR_CAUC_BIC  ENERGY COML IMPORT E EXPORT LTDA        014555032000168REPLAS COMERCIO DE RESINAS PLASTIC      AV PRESIDENTE WILSON 5700               SAO PAULO                               04220002SP378040000209848468001730      10092012007PAULISTA            1010201200000000011105464CC                                                                                                                                                                                                                                                                                                                                                                                                         000004
1038421020897COBR_CAUC_BIC  ENERGY COML IMPORT E EXPORT LTDA        014555032000168REPLAS COMERCIO DE RESINAS PLASTIC      AV PRESIDENTE WILSON 5700               SAO PAULO                               04220002SP378040000309848476001731      10092012007PAULISTA            1010201200000000011105464CC                                                                                                                                                                                                                                                                                                                                                                                                         000005
1038421020897COBR_CAUC_BIC  ENERGY COML IMPORT E EXPORT LTDA        014555032000168REPLAS COMERCIO DE RESINAS PLASTIC      AV PRESIDENTE WILSON 5700               SAO PAULO                               04220002SP378040000409848484001732      10092012007PAULISTA            1010201200000000011105464CC                                                                                                                                                                                                                                                                                                                                                                                                         000006
1038421020897COBR_CAUC_BIC  ENERGY COML IMPORT E EXPORT LTDA        014555032000168REPLAS COMERCIO DE RESINAS PLASTIC      AV PRESIDENTE WILSON 5700               SAO PAULO                               04220002SP378040000509848492001733      11092012007PAULISTA            1110201200000000011085079CC                                                                                                                                                                                                                                                                                                                                                                                                         000007
1038421020897COBR_CAUC_BIC  ENERGY COML IMPORT E EXPORT LTDA        014555032000168REPLAS COMERCIO DE RESINAS PLASTIC      AV PRESIDENTE WILSON 5700               SAO PAULO                               04220002SP378040000609848506001734      11092012007PAULISTA            1110201200000000011085079CC                                                                                                                                                                                                                                                                                                                                                                                                         000008
1038421020897COBR_CAUC_BIC  ENERGY COML IMPORT E EXPORT LTDA        014555032000168REPLAS COMERCIO DE RESINAS PLASTIC      AV PRESIDENTE WILSON 5700               SAO PAULO                               04220002SP378040000709848514001735      11092012007PAULISTA            1110201200000000011085078CC                                                                                                                                                                                                                                                                                                                                                                                                         000009
1038421020897COBR_CAUC_BIC  ENERGY COML IMPORT E EXPORT LTDA        014555032000168REPLAS COMERCIO DE RESINAS PLASTIC      AV PRESIDENTE WILSON 5700               SAO PAULO                               04220002SP378040000809848522001736      11092012007PAULISTA            1110201200000000011085078CC                                                                                                                                                                                                                                                                                                                                                                                                         000010
1046421007212COBR_CAUC_BIC  MANCHESTER QUIMICA DO BRASIL SA         060561719009503AKZO NOBEL LTDA - MAUA                  AV PAPA JOAO XXIII, 2100                MAUA                                    09370901SP37805000010158196501024134    11092012038ABC                 1211201200000000011352046CC                                                                                                                                                                                                                                                                                                                                                                                                         000011
1042141005772COBR_CAUC_BIC  HIDROSONDA LTDA                         007073042000100EDECONSIL CONSTRUCOES E LOCACOES L      RUA JOSE SARNEY 500                     SAO LUIS                                65085470MA378060000103170058NF012-1     06092012042SAO LUIS            1510201200000000015000000TD                                                                                                                                                                                                                                                                                                                                                                                                         000012
1042141005772COBR_CAUC_BIC  HIDROSONDA LTDA                         007073042000100EDECONSIL CONSTRUCOES E LOCACOES L      RUA JOSE SARNEY 500                     SAO LUIS                                65085470MA378060000203170066NF012-2     06092012042SAO LUIS            1311201200000000015000000TD                                                                                                                                                                                                                                                                                                                                                                                                         000013
1031421009837COBR_CAUC_BIC  DIPLOMATA S/A  INDL. E COMERCIAL        001333984000195SEGALAS ALIMENTOS LTDA                  BR 470 N 4292                           BLUMENAU                                89070200SC3782900001050248440337088-01  17082012032BLUMENAU            1709201200000000008100000CC                                                                                                                                                                                                                                                                                                                                                                                                         000014
1031421009837COBR_CAUC_BIC  DIPLOMATA S/A  INDL. E COMERCIAL        001333984000195SEGALAS ALIMENTOS LTDA                  BR 470 N 4292                           BLUMENAU                                89070200SC3782900002050248520337095-01  17082012032BLUMENAU            2409201200000000008100000CC                                                                                                                                                                                                                                                                                                                                                                                                         000015
1031421009837COBR_CAUC_BIC  DIPLOMATA S/A  INDL. E COMERCIAL        001333984000195SEGALAS ALIMENTOS LTDA                  BR 470 N 4292                           BLUMENAU                                89070200SC3782900003050249840337014-01  16082012032BLUMENAU            2609201200000000008884440CC                                                                                                                                                                                                                                                                                                                                                                                                         000016
1031421009837COBR_CAUC_BIC  DIPLOMATA S/A  INDL. E COMERCIAL        001333984000195SEGALAS ALIMENTOS LTDA                  BR 470 N 4292                           BLUMENAU                                89070200SC3782900004050249920337087-01  17082012032BLUMENAU            1909201200000000009990000CC                                                                                                                                                                                                                                                                                                                                                                                                         000017
1031421009837COBR_CAUC_BIC  DIPLOMATA S/A  INDL. E COMERCIAL        001333984000195SEGALAS ALIMENTOS LTDA                  BR 470 N 4292                           BLUMENAU                                89070200SC3782900005050250000336499-01  13082012032BLUMENAU            2809201200000000007425000CC                                                                                                                                                                                                                                                                                                                                                                                                         000018
1031421009837COBR_CAUC_BIC  DIPLOMATA S/A  INDL. E COMERCIAL        001333984000195SEGALAS ALIMENTOS LTDA                  BR 470 N 4292                           BLUMENAU                                89070200SC3782900006050250180336498-01  13082012032BLUMENAU            2709201200000000009180000CC                                                                                                                                                                                                                                                                                                                                                                                                         000019
1031421009837COBR_CAUC_BIC  DIPLOMATA S/A  INDL. E COMERCIAL        001333984000195SEGALAS ALIMENTOS LTDA                  BR 470 N 4292                           BLUMENAU                                89070200SC3782900007050282380337091-01  17082012032BLUMENAU            1909201200000000008100000CC                                                                                                                                                                                                                                                                                                                                                                                                         000020
1031421009837COBR_CAUC_BIC  DIPLOMATA S/A  INDL. E COMERCIAL        001333984000195SEGALAS ALIMENTOS LTDA                  BR 470 N 4292                           BLUMENAU                                89070200SC3782900008050252040337086-01  17082012032BLUMENAU            1809201200000000008100000CC                                                                                                                                                                                                                                                                                                                                                                                                         000021
1031421009837COBR_CAUC_BIC  DIPLOMATA S/A  INDL. E COMERCIAL        001333984000195SEGALAS ALIMENTOS LTDA                  BR 470 N 4292                           BLUMENAU                                89070200SC3782900009050252120337090-01  17082012032BLUMENAU            1809201200000000008100000CC                                                                                                                                                                                                                                                                                                                                                                                                         000022
1031421009837COBR_CAUC_BIC  DIPLOMATA S/A  INDL. E COMERCIAL        001333984000195SEGALAS ALIMENTOS LTDA                  BR 470 N 4292                           BLUMENAU                                89070200SC3782900010050252210337081-01  17082012032BLUMENAU            2509201200000000008100000CC                                                                                                                                                                                                                                                                                                                                                                                                         000023
1031421009837COBR_CAUC_BIC  DIPLOMATA S/A  INDL. E COMERCIAL        001333984000195SEGALAS ALIMENTOS LTDA                  BR 470 N 4292                           BLUMENAU                                89070200SC3782900011050252390337085-01  17082012032BLUMENAU            2009201200000000008235000CC                                                                                                                                                                                                                                                                                                                                                                                                         000024
1031421009837COBR_CAUC_BIC  DIPLOMATA S/A  INDL. E COMERCIAL        001333984000195SEGALAS ALIMENTOS LTDA                  BR 470 N 4292                           BLUMENAU                                89070200SC3782900012050252470337082-01  17082012032BLUMENAU            1409201200000000009527400CC                                                                                                                                                                                                                                                                                                                                                                                                         000025
1031421009837COBR_CAUC_BIC  DIPLOMATA S/A  INDL. E COMERCIAL        001333984000195SEGALAS ALIMENTOS LTDA                  BR 470 N 4292                           BLUMENAU                                89070200SC3782900013050252550337084-01  17082012032BLUMENAU            2609201200000000009720000CC                                                                                                                                                                                                                                                                                                                                                                                                         000026
9000005                                                                                                                                                                                                                                                                                                                                                                                                                                                                                                                                                                                                                                                                                                               000027
