0REMESSANOTIFICACAO ELETRONICA        99999999999999BICBANCO                                AV. PAULISTA                            1048      12.ANDAR  BELA VISTA                    SAO PAULO                     01310100SP1121739360CORTINHAL                               COORDENADOR                             22112012                                                                                                                                                                                                                                                                                                                                                                                      000001
1007421035337COBR_CAUC_BIC  COMERCIAL IMP.E EXP.CANTAREIRA LTDA     027668086000343BOMBONIERE ESTRELA 112 LTDA             R TEIXEIRA RIBEIRO, 265                 RIO DE JANEIRO                          21040241RJ38900000010158058198659-001   19112012014RIO DE JANEIRO      2112201200000000033340700CC                                                                                                                                                                                                                                                                                                                                                                                                         000002
1043421010006COBR_CAUC_COR  ELFA MEDICAMENTOS LTDA                  009112236000194HOSPITAL NAPOLEAO LAUREANO              RUA CAPITAO JOSE PESSOA, 1140           JOAO PESSOA                             58015170PB389010000100018355000006791   14112012900BRADESCO S/A        1401201300000000011032514CC                                                                                                                                                                                                                                                                                                                                                                                                         000003
1032421019997COBR_CAUC_BIC  METALURGICA DUQUE S/A                   060736279001846MABE BRASIL ELETRODOMESTICOS  LTDA      PQ. INDL BSH CONTINENTALS/N             Hortolândia                             13184970SP38923000010109834005009301DP  25102012021CAMPINAS            2002201300000000000360208CC                                                                                                                                                                                                                                                                                                                                                                                                         000004
1032421019997COBR_CAUC_BIC  METALURGICA DUQUE S/A                   060736279001846MABE BRASIL ELETRODOMESTICOS  LTDA      PQ. INDL BSH CONTINENTALS/N             Hortolândia                             13184970SP38923000020093389004727101DP  15082012021CAMPINAS            1912201200000000000654843CC                                                                                                                                                                                                                                                                                                                                                                                                         000005
1032421019997COBR_CAUC_BIC  METALURGICA DUQUE S/A                   060736279001846MABE BRASIL ELETRODOMESTICOS  LTDA      PQ. INDL BSH CONTINENTALS/N             Hortolândia                             13184970SP38923000030093390304740001DP  20082012021CAMPINAS            1912201200000000000485623CC                                                                                                                                                                                                                                                                                                                                                                                                         000006
1032421019997COBR_CAUC_BIC  METALURGICA DUQUE S/A                   060736279001846MABE BRASIL ELETRODOMESTICOS  LTDA      PQ. INDL BSH CONTINENTALS/N             Hortolândia                             13184970SP38923000040093391104746801DP  21082012021CAMPINAS            1912201200000000000485623CC                                                                                                                                                                                                                                                                                                                                                                                                         000007
1032421019997COBR_CAUC_BIC  METALURGICA DUQUE S/A                   060736279001846MABE BRASIL ELETRODOMESTICOS  LTDA      PQ. INDL BSH CONTINENTALS/N             Hortolândia                             13184970SP38923000050093386504750501DP  22082012021CAMPINAS            2612201200000000001593237CC                                                                                                                                                                                                                                                                                                                                                                                                         000008
1032421019997COBR_CAUC_BIC  METALURGICA DUQUE S/A                   060736279001846MABE BRASIL ELETRODOMESTICOS  LTDA      PQ. INDL BSH CONTINENTALS/N             Hortolândia                             13184970SP38923000060093387304750701DP  22082012021CAMPINAS            2612201200000000000412032CC                                                                                                                                                                                                                                                                                                                                                                                                         000009
1032421019997COBR_CAUC_BIC  METALURGICA DUQUE S/A                   060736279001846MABE BRASIL ELETRODOMESTICOS  LTDA      PQ. INDL BSH CONTINENTALS/N             Hortolândia                             13184970SP38923000070093388104755201DP  23082012021CAMPINAS            2612201200000000001799291CC                                                                                                                                                                                                                                                                                                                                                                                                         000010
1032421019997COBR_CAUC_BIC  METALURGICA DUQUE S/A                   060736279001846MABE BRASIL ELETRODOMESTICOS  LTDA      PQ. INDL BSH CONTINENTALS/N             Hortolândia                             13184970SP38923000080093383104755401DP  23082012021CAMPINAS            2612201200000000000654843CC                                                                                                                                                                                                                                                                                                                                                                                                         000011
1032421019997COBR_CAUC_BIC  METALURGICA DUQUE S/A                   060736279001846MABE BRASIL ELETRODOMESTICOS  LTDA      PQ. INDL BSH CONTINENTALS/N             Hortolândia                             13184970SP38923000090093384904760101DP  25082012021CAMPINAS            2612201200000000002249371CC                                                                                                                                                                                                                                                                                                                                                                                                         000012
1032421019997COBR_CAUC_BIC  METALURGICA DUQUE S/A                   060736279001846MABE BRASIL ELETRODOMESTICOS  LTDA      PQ. INDL BSH CONTINENTALS/N             Hortolândia                             13184970SP38923000100093385704760401DP  25082012021CAMPINAS            2612201200000000001000174CC                                                                                                                                                                                                                                                                                                                                                                                                         000013
1032421019997COBR_CAUC_BIC  METALURGICA DUQUE S/A                   060736279001846MABE BRASIL ELETRODOMESTICOS  LTDA      PQ. INDL BSH CONTINENTALS/N             Hortolândia                             13184970SP38923000110093380604761501DP  27082012021CAMPINAS            2612201200000000000720874CC                                                                                                                                                                                                                                                                                                                                                                                                         000014
1032421019997COBR_CAUC_BIC  METALURGICA DUQUE S/A                   060736279001846MABE BRASIL ELETRODOMESTICOS  LTDA      PQ. INDL BSH CONTINENTALS/N             Hortolândia                             13184970SP38923000120093381404763501DP  27082012021CAMPINAS            2612201200000000001124905CC                                                                                                                                                                                                                                                                                                                                                                                                         000015
1032421019997COBR_CAUC_BIC  METALURGICA DUQUE S/A                   060736279001846MABE BRASIL ELETRODOMESTICOS  LTDA      PQ. INDL BSH CONTINENTALS/N             Hortolândia                             13184970SP38923000130093382204763701DP  27082012021CAMPINAS            2612201200000000001397255CC                                                                                                                                                                                                                                                                                                                                                                                                         000016
1032421019997COBR_CAUC_BIC  METALURGICA DUQUE S/A                   060736279001846MABE BRASIL ELETRODOMESTICOS  LTDA      PQ. INDL BSH CONTINENTALS/N             Hortolândia                             13184970SP38923000140096879104819301DP  10092012021CAMPINAS            0901201300000000001802995CC                                                                                                                                                                                                                                                                                                                                                                                                         000017
1032421019997COBR_CAUC_BIC  METALURGICA DUQUE S/A                   060736279001846MABE BRASIL ELETRODOMESTICOS  LTDA      PQ. INDL BSH CONTINENTALS/N             Hortolândia                             13184970SP38923000150096880404819501DP  10092012021CAMPINAS            0901201300000000001235701CC                                                                                                                                                                                                                                                                                                                                                                                                         000018
1032421019997COBR_CAUC_BIC  METALURGICA DUQUE S/A                   060736279001846MABE BRASIL ELETRODOMESTICOS  LTDA      PQ. INDL BSH CONTINENTALS/N             Hortolândia                             13184970SP38923000160096881204820601DP  11092012021CAMPINAS            0901201300000000000475272CC                                                                                                                                                                                                                                                                                                                                                                                                         000019
1032421019997COBR_CAUC_BIC  METALURGICA DUQUE S/A                   060736279001846MABE BRASIL ELETRODOMESTICOS  LTDA      PQ. INDL BSH CONTINENTALS/N             Hortolândia                             13184970SP38923000170096876604823001DP  11092012021CAMPINAS            0901201300000000002933881CC                                                                                                                                                                                                                                                                                                                                                                                                         000020
1032421019997COBR_CAUC_BIC  METALURGICA DUQUE S/A                   060736279001846MABE BRASIL ELETRODOMESTICOS  LTDA      PQ. INDL BSH CONTINENTALS/N             Hortolândia                             13184970SP38923000180096877404823201DP  11092012021CAMPINAS            0901201300000000000427241CC                                                                                                                                                                                                                                                                                                                                                                                                         000021
1032421019997COBR_CAUC_BIC  METALURGICA DUQUE S/A                   060736279001846MABE BRASIL ELETRODOMESTICOS  LTDA      PQ. INDL BSH CONTINENTALS/N             Hortolândia                             13184970SP38923000190096878204826701DP  12092012021CAMPINAS            1601201300000000002603678CC                                                                                                                                                                                                                                                                                                                                                                                                         000022
1032421019997COBR_CAUC_BIC  METALURGICA DUQUE S/A                   060736279001846MABE BRASIL ELETRODOMESTICOS  LTDA      PQ. INDL BSH CONTINENTALS/N             Hortolândia                             13184970SP38923000200096873104827401DP  12092012021CAMPINAS            1601201300000000000493979CC                                                                                                                                                                                                                                                                                                                                                                                                         000023
1032421019997COBR_CAUC_BIC  METALURGICA DUQUE S/A                   060736279001846MABE BRASIL ELETRODOMESTICOS  LTDA      PQ. INDL BSH CONTINENTALS/N             Hortolândia                             13184970SP38923000210096874004832201DP  13092012021CAMPINAS            1601201300000000000349806CC                                                                                                                                                                                                                                                                                                                                                                                                         000024
1032421019997COBR_CAUC_BIC  METALURGICA DUQUE S/A                   060736279001846MABE BRASIL ELETRODOMESTICOS  LTDA      PQ. INDL BSH CONTINENTALS/N             Hortolândia                             13184970SP38923000220096875804833401DP  14092012021CAMPINAS            1601201300000000000806360CC                                                                                                                                                                                                                                                                                                                                                                                                         000025
1032421019997COBR_CAUC_BIC  METALURGICA DUQUE S/A                   060736279001846MABE BRASIL ELETRODOMESTICOS  LTDA      PQ. INDL BSH CONTINENTALS/N             Hortolândia                             13184970SP38923000230096870704836901DP  14092012021CAMPINAS            1601201300000000000556692CC                                                                                                                                                                                                                                                                                                                                                                                                         000026
1032421019997COBR_CAUC_BIC  METALURGICA DUQUE S/A                   060736279001846MABE BRASIL ELETRODOMESTICOS  LTDA      PQ. INDL BSH CONTINENTALS/N             Hortolândia                             13184970SP38923000240096871504838701DP  15092012021CAMPINAS            1601201300000000002249555CC                                                                                                                                                                                                                                                                                                                                                                                                         000027
1032421019997COBR_CAUC_BIC  METALURGICA DUQUE S/A                   060736279001846MABE BRASIL ELETRODOMESTICOS  LTDA      PQ. INDL BSH CONTINENTALS/N             Hortolândia                             13184970SP38923000250096872304839901DP  17092012021CAMPINAS            1601201300000000000116718CC                                                                                                                                                                                                                                                                                                                                                                                                         000028
1032421019997COBR_CAUC_BIC  METALURGICA DUQUE S/A                   060736279001846MABE BRASIL ELETRODOMESTICOS  LTDA      PQ. INDL BSH CONTINENTALS/N             Hortolândia                             13184970SP38923000260109832304996301DP  22102012021CAMPINAS            2002201300000000000261073CC                                                                                                                                                                                                                                                                                                                                                                                                         000029
1032421019997COBR_CAUC_BIC  METALURGICA DUQUE S/A                   060736279001846MABE BRASIL ELETRODOMESTICOS  LTDA      PQ. INDL BSH CONTINENTALS/N             Hortolândia                             13184970SP38923000270109833105008001DP  24102012021CAMPINAS            2002201300000000000261073CC                                                                                                                                                                                                                                                                                                                                                                                                         000030
1032421019997COBR_CAUC_BIC  METALURGICA DUQUE S/A                   060736279001846MABE BRASIL ELETRODOMESTICOS  LTDA      PQ. INDL BSH CONTINENTALS/N             Hortolândia                             13184970SP38923000280109829305015801DP  26102012021CAMPINAS            2702201300000000000248554CC                                                                                                                                                                                                                                                                                                                                                                                                         000031
1032421019997COBR_CAUC_BIC  METALURGICA DUQUE S/A                   060736279001846MABE BRASIL ELETRODOMESTICOS  LTDA      PQ. INDL BSH CONTINENTALS/N             Hortolândia                             13184970SP38923000290109830705020601DP  26102012021CAMPINAS            2702201300000000001871283CC                                                                                                                                                                                                                                                                                                                                                                                                         000032
1032421019997COBR_CAUC_BIC  METALURGICA DUQUE S/A                   060736279001846MABE BRASIL ELETRODOMESTICOS  LTDA      PQ. INDL BSH CONTINENTALS/N             Hortolândia                             13184970SP38923000300109831505020701DP  26102012021CAMPINAS            2702201300000000000261073CC                                                                                                                                                                                                                                                                                                                                                                                                         000033
1007421056385COBR_CAUC_COR  TERRA NOVA TRADING S/A                  001397852000550DISAC COMERCIAL LTDA                    AVE 800, ,0-QD.19 MOD 03                SERRA                                   29161389ES388990000100000859TI08381-PB  21112012900BRADESCO S/A        0412201200000000013846150CC                                                                                                                                                                                                                                                                                                                                                                                                         000034
9000004                                                                                                                                                                                                                                                                                                                                                                                                                                                                                                                                                                                                                                                                                                               000035
