0REMESSANOTIFICACAO ELETRONICA        99999999999999BICBANCO                                AV. PAULISTA                            1048      12.ANDAR  BELA VISTA                    SAO PAULO                     01310100SP1121739360CORTINHAL                               COORDENADOR                             02092013                                                                                                                                                                                                                                                                                                                                                                                      000001
1015421021867COBR_CAUC_COR  COTRIJUI COOP AGROP & INDUSTRIAL        008797179000161DSG DISTRIB. DE ALIMENTOS LTDA          SALATIEL MARQUES FONTES, 695            SOUSA                                   58806410PB438400000100077351159870-1    29082013900BRADESCO S/A        0509201300000000011120000CC                                                                                                                                                                                                                                                                                                                                                                                                         000002
1021420930887COBR_CAUC_BIC  DEDINI S/A INDUSTRIAS DE BASE           075717355001177USINA DE ACUCAR SANTA TEREZINHA LT      AV MARCELO MESSIAS BUSIQUIA 847 PQ INDUSMARINGA                                 87065006PR438360000106431999228301-2-2  29082013016CURITIBA            3009201300000000016477532CC                                                                                                                                                                                                                                                                                                                                                                                                         000003
1021420930887COBR_CAUC_BIC  DEDINI S/A INDUSTRIAS DE BASE           075717355001177USINA DE ACUCAR SANTA TEREZINHA LT      AV MARCELO MESSIAS BUSIQUIA 847 PQ INDUSMARINGA                                 87065006PR438360000206432006228300-2-2  29082013016CURITIBA            3009201300000000014856866CC                                                                                                                                                                                                                                                                                                                                                                                                         000004
1021420930887COBR_CAUC_BIC  DEDINI S/A INDUSTRIAS DE BASE           075717355001177USINA DE ACUCAR SANTA TEREZINHA LT      AV MARCELO MESSIAS BUSIQUIA 847 PQ INDUSMARINGA                                 87065006PR438360000306432031228241-2-2  29082013016CURITIBA            3009201300000000010602131CC                                                                                                                                                                                                                                                                                                                                                                                                         000005
1021420930887COBR_CAUC_BIC  DEDINI S/A INDUSTRIAS DE BASE           075717355001177USINA DE ACUCAR SANTA TEREZINHA LT      AV MARCELO MESSIAS BUSIQUIA 847 PQ INDUSMARINGA                                 87065006PR438360000406432090228243-2-2  29082013016CURITIBA            3009201300000000022820005CC                                                                                                                                                                                                                                                                                                                                                                                                         000006
1016421001058COBR_CAUC_COR  MONTANA INDUSTRIA DE MAQUINAS SA        008204291000141COMERCIAL AGRICOLA POSSOBON LTDA        RUA PAULO ROEPKE,602                    RESTINGA SECA                           97200000RS4383700001041134010043024/02  29082013900BRADESCO S/A        2711201300000000016300000CC                                                                                                                                                                                                                                                                                                                                                                                                         000007
1016421001058COBR_CAUC_COR  MONTANA INDUSTRIA DE MAQUINAS SA        000051879727072CARLOS GOMES ABREU JUNIOR               BOCAVERA,S/N                            TUPANCIRETA                             98170000RS4383900001041134790042918/01  28082013800UNIBANCO S/A        2709201300000000016000000CC                                                                                                                                                                                                                                                                                                                                                                                                         000008
1016421001058COBR_CAUC_BIC  MONTANA INDUSTRIA DE MAQUINAS SA        016883638000158W W LONDRINA MAQ AGRICOLAS LTDA         RUA CLISTENES,38                        LONDRINA                                86025630PR4383800001041134440042943/01  28082013031LONDRINA            2709201300000000026100000CC                                                                                                                                                                                                                                                                                                                                                                                                         000009
1019421004658COBR_CAUC_COR  S/A ESTADO DE MINAS                     005818921000180BOEING BRASIL SERVICOS TECNICOS AE      AV. BRIGADEIRO FARIA LIMA 3729 4 ANDAR CSAO PAULO                               04538905SP4383400001012572901958328-1   30082013900BRADESCO S/A        1509201300000000010724688CC                                                                                                                                                                                                                                                                                                                                                                                                         000010
1019421004658COBR_CAUC_COR  S/A ESTADO DE MINAS                     019791581000155CIA DE DESENV ECONOMICO DE MG-CODE      MANAUS 467                              BELO HORIZONTE                          30150350MG4383500001012566331958375-1   30082013900BRADESCO S/A        1509201300000000031138037CC                                                                                                                                                                                                                                                                                                                                                                                                         000011
1022421010097COBR_CAUC_COR  TRIANGULO ALIMENTOS LTDA                014162266000145RPM DISTRIBUIDORA DE ALIMENTOS E L      R J. ALBERTO BRAZAO FERR. 103 GALP M E QPAULISTA                                53413235PE438610000104610449070461-2    06082013800UNIBANCO S/A        1709201300000000005688750CC                                                                                                                                                                                                                                                                                                                                                                                                         000012
1022421010097COBR_CAUC_COR  TRIANGULO ALIMENTOS LTDA                014162266000145RPM DISTRIBUIDORA DE ALIMENTOS E L      R J. ALBERTO BRAZAO FERR. 103 GALP M E QPAULISTA                                53413235PE438610000204610457070659-2    09082013800UNIBANCO S/A        2009201300000000001059375CC                                                                                                                                                                                                                                                                                                                                                                                                         000013
1022421010097COBR_CAUC_COR  TRIANGULO ALIMENTOS LTDA                014162266000145RPM DISTRIBUIDORA DE ALIMENTOS E L      R J. ALBERTO BRAZAO FERR. 103 GALP M E QPAULISTA                                53413235PE438610000304610465070659-3    09082013800UNIBANCO S/A        2709201300000000001059375CC                                                                                                                                                                                                                                                                                                                                                                                                         000014
1022421010097COBR_CAUC_COR  TRIANGULO ALIMENTOS LTDA                014162266000145RPM DISTRIBUIDORA DE ALIMENTOS E L      R J. ALBERTO BRAZAO FERR. 103 GALP M E QPAULISTA                                53413235PE438610000404610473070659-4    09082013800UNIBANCO S/A        0410201300000000001059375CC                                                                                                                                                                                                                                                                                                                                                                                                         000015
1022421010097COBR_CAUC_COR  TRIANGULO ALIMENTOS LTDA                014162266000145RPM DISTRIBUIDORA DE ALIMENTOS E L      R J. ALBERTO BRAZAO FERR. 103 GALP M E QPAULISTA                                53413235PE438610000504610481070660-2    09082013800UNIBANCO S/A        2009201300000000004237500CC                                                                                                                                                                                                                                                                                                                                                                                                         000016
1022421010097COBR_CAUC_COR  TRIANGULO ALIMENTOS LTDA                014162266000145RPM DISTRIBUIDORA DE ALIMENTOS E L      R J. ALBERTO BRAZAO FERR. 103 GALP M E QPAULISTA                                53413235PE438610000604610490071179-1    16082013800UNIBANCO S/A        2009201300000000004465500CC                                                                                                                                                                                                                                                                                                                                                                                                         000017
1022421010097COBR_CAUC_COR  TRIANGULO ALIMENTOS LTDA                014162266000145RPM DISTRIBUIDORA DE ALIMENTOS E L      R J. ALBERTO BRAZAO FERR. 103 GALP M E QPAULISTA                                53413235PE438610000704610503071179-2    16082013800UNIBANCO S/A        2709201300000000004465500CC                                                                                                                                                                                                                                                                                                                                                                                                         000018
1022421010097COBR_CAUC_COR  TRIANGULO ALIMENTOS LTDA                014162266000145RPM DISTRIBUIDORA DE ALIMENTOS E L      R J. ALBERTO BRAZAO FERR. 103 GALP M E QPAULISTA                                53413235PE438610000804610511071180-1    16082013800UNIBANCO S/A        2009201300000000000320200CC                                                                                                                                                                                                                                                                                                                                                                                                         000019
1022421010097COBR_CAUC_COR  TRIANGULO ALIMENTOS LTDA                014162266000145RPM DISTRIBUIDORA DE ALIMENTOS E L      R J. ALBERTO BRAZAO FERR. 103 GALP M E QPAULISTA                                53413235PE438610000904610520071180-2    16082013800UNIBANCO S/A        2709201300000000000320200CC                                                                                                                                                                                                                                                                                                                                                                                                         000020
1022421010097COBR_CAUC_COR  TRIANGULO ALIMENTOS LTDA                014162266000145RPM DISTRIBUIDORA DE ALIMENTOS E L      R J. ALBERTO BRAZAO FERR. 103 GALP M E QPAULISTA                                53413235PE438610001004610538071332-1    17082013800UNIBANCO S/A        2109201300000000003672500CC                                                                                                                                                                                                                                                                                                                                                                                                         000021
1022421010097COBR_CAUC_COR  TRIANGULO ALIMENTOS LTDA                014162266000145RPM DISTRIBUIDORA DE ALIMENTOS E L      R J. ALBERTO BRAZAO FERR. 103 GALP M E QPAULISTA                                53413235PE438610001104610546071332-2    17082013800UNIBANCO S/A        2809201300000000003672500CC                                                                                                                                                                                                                                                                                                                                                                                                         000022
1022421010097COBR_CAUC_COR  TRIANGULO ALIMENTOS LTDA                014162266000145RPM DISTRIBUIDORA DE ALIMENTOS E L      R J. ALBERTO BRAZAO FERR. 103 GALP M E QPAULISTA                                53413235PE438610001204610554071333-1    17082013800UNIBANCO S/A        2109201300000000000776875CC                                                                                                                                                                                                                                                                                                                                                                                                         000023
1022421010097COBR_CAUC_COR  TRIANGULO ALIMENTOS LTDA                014162266000145RPM DISTRIBUIDORA DE ALIMENTOS E L      R J. ALBERTO BRAZAO FERR. 103 GALP M E QPAULISTA                                53413235PE438610001304610562071333-2    17082013800UNIBANCO S/A        2809201300000000000776875CC                                                                                                                                                                                                                                                                                                                                                                                                         000024
1022421010097COBR_CAUC_COR  TRIANGULO ALIMENTOS LTDA                014162266000145RPM DISTRIBUIDORA DE ALIMENTOS E L      R J. ALBERTO BRAZAO FERR. 103 GALP M E QPAULISTA                                53413235PE438610001404610571071333-3    17082013800UNIBANCO S/A        0510201300000000000776875CC                                                                                                                                                                                                                                                                                                                                                                                                         000025
1022421010097COBR_CAUC_COR  TRIANGULO ALIMENTOS LTDA                014162266000145RPM DISTRIBUIDORA DE ALIMENTOS E L      R J. ALBERTO BRAZAO FERR. 103 GALP M E QPAULISTA                                53413235PE438610001504610589071333-4    17082013800UNIBANCO S/A        1210201300000000000776875CC                                                                                                                                                                                                                                                                                                                                                                                                         000026
1022421010097COBR_CAUC_COR  TRIANGULO ALIMENTOS LTDA                014162266000145RPM DISTRIBUIDORA DE ALIMENTOS E L      R J. ALBERTO BRAZAO FERR. 103 GALP M E QPAULISTA                                53413235PE438610001604610597071666-1    23082013800UNIBANCO S/A        2909201300000000000218725CC                                                                                                                                                                                                                                                                                                                                                                                                         000027
1022421010097COBR_CAUC_COR  TRIANGULO ALIMENTOS LTDA                014162266000145RPM DISTRIBUIDORA DE ALIMENTOS E L      R J. ALBERTO BRAZAO FERR. 103 GALP M E QPAULISTA                                53413235PE438610001704610601071666-2    23082013800UNIBANCO S/A        0610201300000000000218725CC                                                                                                                                                                                                                                                                                                                                                                                                         000028
1022421010097COBR_CAUC_COR  TRIANGULO ALIMENTOS LTDA                014162266000145RPM DISTRIBUIDORA DE ALIMENTOS E L      R J. ALBERTO BRAZAO FERR. 103 GALP M E QPAULISTA                                53413235PE438610001804610619071667-1    23082013800UNIBANCO S/A        2909201300000000005577660CC                                                                                                                                                                                                                                                                                                                                                                                                         000029
1022421010097COBR_CAUC_COR  TRIANGULO ALIMENTOS LTDA                014162266000145RPM DISTRIBUIDORA DE ALIMENTOS E L      R J. ALBERTO BRAZAO FERR. 103 GALP M E QPAULISTA                                53413235PE438610001904610627071667-2    23082013800UNIBANCO S/A        0610201300000000005577660CC                                                                                                                                                                                                                                                                                                                                                                                                         000030
1022421010097COBR_CAUC_COR  TRIANGULO ALIMENTOS LTDA                014162266000145RPM DISTRIBUIDORA DE ALIMENTOS E L      R J. ALBERTO BRAZAO FERR. 103 GALP M E QPAULISTA                                53413235PE438610002004610635071829-1    24082013800UNIBANCO S/A        2809201300000000006356250CC                                                                                                                                                                                                                                                                                                                                                                                                         000031
1022421010097COBR_CAUC_COR  TRIANGULO ALIMENTOS LTDA                014162266000145RPM DISTRIBUIDORA DE ALIMENTOS E L      R J. ALBERTO BRAZAO FERR. 103 GALP M E QPAULISTA                                53413235PE438610002104610643071829-2    24082013800UNIBANCO S/A        0510201300000000006356250CC                                                                                                                                                                                                                                                                                                                                                                                                         000032
9000008                                                                                                                                                                                                                                                                                                                                                                                                                                                                                                                                                                                                                                                                                                               000033
