0REMESSANOTIFICACAO ELETRONICA        99999999999999BICBANCO                                AV. PAULISTA                            1048      12.ANDAR  BELA VISTA                    SAO PAULO                     01310100SP1121739360CORTINHAL                               COORDENADOR                             17102011                                                                                                                                                                                                                                                                                                                                                                                      000001
1047421000232COBR_CAUC_BIC  JOFER EMBALAGENS LTDA.                  000190373000172IND. E COM. DE COSMETICOS NATURA L      AVENIDA JURUA, 253                      BARUERI                                 06455010SP3135800001011152820025246     07102011007PAULISTA            2112201100000000017724951CC                                                                                                                                                                                                                                                                                                                                                                                                         000002
1016421008591COBR_CAUC_BIC  GLOBOAVES SAO PAULO AGROAVICOLA LTD     061752739000144FRIGORIFICO PRIETO LTDA                 AV VER JOAQUIM P BARBOSA,777            CAJAMAR                                 07760000SP313590000103207402068733      11102011021CAMPINAS            1011201100000000010021190CC                                                                                                                                                                                                                                                                                                                                                                                                         000003
1047421000402COBR_CAUC_BIC  TRANSPORTADORA JOVERNO LTDA             049972326000170USINA MOEMA ACUCAR E ALCOOL LTDA        AV. JOHN DALTO,301-BL B-CJ 11           CAMPINAS                                13069330SP3136000001011153041185        13102011021CAMPINAS            2811201100000000013823000CC                                                                                                                                                                                                                                                                                                                                                                                                         000004
1007421053076COBR_CAUC_BIC  WORLD TRACTOR COML IMP LTDA             033042730001348CIA SIDERURGICA NACIONAL                RUA ENG FRANCISCO PITTA BRITTO,138      SAO PAULO                               04753900SP3136100001008633693741        13102011007PAULISTA            2011201100000000024421284CC                                                                                                                                                                                                                                                                                                                                                                                                         000005
9000004                                                                                                                                                                                                                                                                                                                                                                                                                                                                                                                                                                                                                                                                                                               000006
