0REMESSANOTIFICACAO ELETRONICA        99999999999999BICBANCO                                AV. PAULISTA                            1048      12.ANDAR  BELA VISTA                    SAO PAULO                     01310100SP1121739360CORTINHAL                               COORDENADOR                             02102012                                                                                                                                                                                                                                                                                                                                                                                      000001
1017421012786COBR_CAUC_BIC  FABRICA DA PEDRA S.A FIAC.E TECELAG     000886257000788ATMOSFERA GESTAO E HIGIENIZACA          R. A.PIVA  BARRANQUEIROS, CHAC.AEROPORTOJUNDIAI                                 13212000SP38092000010257836111344-A01   29092012007PAULISTA            2812201200000000018618036CC                                                                                                                                                                                                                                                                                                                                                                                                         000002
1016421009571COBR_CAUC_BIC  IMPORTADORA DE FRUTAS LA VIOLETERA      004641376003828SUPERMERCADOS BH COMERCIO DE ALIME      AVENIDA GERALDO ROCHA 200               CONTAGEM                                32183054MG3809300001037201000020543501  29092012019BELO HORIZONTE      1011201200000000013102104CC                                                                                                                                                                                                                                                                                                                                                                                                         000003
1007420931444COBR_CAUC_BIC  PLASINCO LTDA                           044603447000120AMPHENOL TFC DO BRASIL LTDA.            ROD. GOV. PER. BARROS,340-KM 121.5      CAMPINAS                                13098300SP38094000010147694623314       28092012021CAMPINAS            2610201200000000012227145CC                                                                                                                                                                                                                                                                                                                                                                                                         000004
1031421007850COBR_CAUC_COR  AGRICOLA JANDELLE S/A                   005169759000116TUDOBOM COMERCIAL LTDA                  AVENIDA JOSE FRANCISCO DOMINGOS 359     CORONEL FABRICI                         35170348MG3809500001050527160009771001  28092012800UNIBANCO S/A        0111201200000000012276397CC                                                                                                                                                                                                                                                                                                                                                                                                         000005
1014420939021COBR_CAUC_BIC  EDITORA O DIA S/A                       010757237000175NOVA CASA BAHIA S/A.                    CONDE FRANCISCO MATARAZZO 100           SAO CAETANO DO                          09520900SP3809600001024776130660435     30092012038ABC                 2010201200000000015270249CC                                                                                                                                                                                                                                                                                                                                                                                                         000006
1048421001938COBR_CAUC_COR  SERVIMED COMERCIAL LTDA                 006880016000112LIGMED COM DE MEDS LTDA                 AV T2 1820                              GOIANIA                                 74215010GO380970000100301930567595  16  28092012900BRADESCO S/A        0510201200000000012420882CC                                                                                                                                                                                                                                                                                                                                                                                                         000007
9000006                                                                                                                                                                                                                                                                                                                                                                                                                                                                                                                                                                                                                                                                                                               000008
