0REMESSANOTIFICACAO ELETRONICA        99999999999999BICBANCO                                AV. PAULISTA                            1048      12.ANDAR  BELA VISTA                    SAO PAULO                     01310100SP1121739360CORTINHAL                               COORDENADOR                             08032012                                                                                                                                                                                                                                                                                                                                                                                      000001
1007421031242COBR_CAUC_BIC  GP GUARDA PATRIMONIAL DE S.P. LTDA      056998982000107BRISTOL MYERS  SQUIBB FARMACEUTICA      RUA CARLOS GOMES  N  924                SAO PAULO                               04743903SP34237000010004229277417       06032012007PAULISTA            0504201200000000016324739CC                                                                                                                                                                                                                                                                                                                                                                                                         000002
1031421007893COBR_CAUC_COR  DIPLOMATA S/A  INDL. E COMERCIAL        027751320000130CCB CENTRAL DE COMPRAS DO BRASIL L       RUA PROJETADA   A   QUADRA 1           CARIACICA                               29152500ES3425700001049696320007247-01  31012012800UNIBANCO S/A        2103201200000000001599840CC                                                                                                                                                                                                                                                                                                                                                                                                         000003
1031421007893COBR_CAUC_BIC  DIPLOMATA S/A  INDL. E COMERCIAL        001333984000195SEGALAS ALIMENTOS LTDA                  BR 470 N 4292                           BLUMENAU                                89070200SC3425800001049699770292878-01  01022012032BLUMENAU            2203201200000000005670000CC                                                                                                                                                                                                                                                                                                                                                                                                         000004
1031421007893COBR_CAUC_COR  DIPLOMATA S/A  INDL. E COMERCIAL        006292922000791COOPERATIVA AGROINDUSTRIAL SALTO V      AV TUPI 100                             PATO BRANCO                             85506000PR3425900001049699510017879-02  31012012800UNIBANCO S/A        2803201200000000004755000CC                                                                                                                                                                                                                                                                                                                                                                                                         000005
1031421007893COBR_CAUC_COR  DIPLOMATA S/A  INDL. E COMERCIAL        006292922000791COOPERATIVA AGROINDUSTRIAL SALTO V      AV TUPI 100                             PATO BRANCO                             85506000PR3425900002049699000017879-03  31012012800UNIBANCO S/A        0404201200000000004755000CC                                                                                                                                                                                                                                                                                                                                                                                                         000006
1031421007893COBR_CAUC_COR  DIPLOMATA S/A  INDL. E COMERCIAL        006292922000791COOPERATIVA AGROINDUSTRIAL SALTO V      AV TUPI 100                             PATO BRANCO                             85506000PR3425900003049699180017879-04  31012012800UNIBANCO S/A        0404201200000000004755000CC                                                                                                                                                                                                                                                                                                                                                                                                         000007
1031421007893COBR_CAUC_BIC  DIPLOMATA S/A  INDL. E COMERCIAL        097191902000194CONSERVAS ODERICH S/A                   RUA ODERICH,  807                       SAO SEBASTIAO D                         95760000RS3426000001049696080292397-01  30012012015PORTO ALEGRE        1603201200000000001890000CC                                                                                                                                                                                                                                                                                                                                                                                                         000008
1031421007893COBR_CAUC_BIC  DIPLOMATA S/A  INDL. E COMERCIAL        097191902000194CONSERVAS ODERICH S/A                   RUA ODERICH,  807                       SAO SEBASTIAO D                         95760000RS3426000002049695940292398-01  30012012015PORTO ALEGRE        1503201200000000001890000CC                                                                                                                                                                                                                                                                                                                                                                                                         000009
1031421007893COBR_CAUC_BIC  DIPLOMATA S/A  INDL. E COMERCIAL        097191902000194CONSERVAS ODERICH S/A                   RUA ODERICH,  807                       SAO SEBASTIAO D                         95760000RS3426000003049695860292399-01  30012012015PORTO ALEGRE        1503201200000000001890000CC                                                                                                                                                                                                                                                                                                                                                                                                         000010
1031421007893COBR_CAUC_BIC  DIPLOMATA S/A  INDL. E COMERCIAL        097191902000194CONSERVAS ODERICH S/A                   RUA ODERICH,  807                       SAO SEBASTIAO D                         95760000RS3426000004049695780292404-01  30012012015PORTO ALEGRE        1903201200000000001890000CC                                                                                                                                                                                                                                                                                                                                                                                                         000011
1031421007893COBR_CAUC_BIC  DIPLOMATA S/A  INDL. E COMERCIAL        097191902000194CONSERVAS ODERICH S/A                   RUA ODERICH,  807                       SAO SEBASTIAO D                         95760000RS3426000005049696750292405-01  30012012015PORTO ALEGRE        1903201200000000001890000CC                                                                                                                                                                                                                                                                                                                                                                                                         000012
1031421007893COBR_CAUC_BIC  DIPLOMATA S/A  INDL. E COMERCIAL        097191902000194CONSERVAS ODERICH S/A                   RUA ODERICH,  807                       SAO SEBASTIAO D                         95760000RS3426000006049696830292406-01  30012012015PORTO ALEGRE        1603201200000000001890000CC                                                                                                                                                                                                                                                                                                                                                                                                         000013
1031421007893COBR_CAUC_BIC  DIPLOMATA S/A  INDL. E COMERCIAL        097191902000194CONSERVAS ODERICH S/A                   RUA ODERICH,  807                       SAO SEBASTIAO D                         95760000RS3426000007049696910292410-01  30012012015PORTO ALEGRE        2103201200000000001890000CC                                                                                                                                                                                                                                                                                                                                                                                                         000014
1031421007893COBR_CAUC_BIC  DIPLOMATA S/A  INDL. E COMERCIAL        097191902000194CONSERVAS ODERICH S/A                   RUA ODERICH,  807                       SAO SEBASTIAO D                         95760000RS3426000008049697050292411-01  30012012015PORTO ALEGRE        1603201200000000001890000CC                                                                                                                                                                                                                                                                                                                                                                                                         000015
1031421007893COBR_CAUC_BIC  DIPLOMATA S/A  INDL. E COMERCIAL        097191902000194CONSERVAS ODERICH S/A                   RUA ODERICH,  807                       SAO SEBASTIAO D                         95760000RS3426000009049697130292412-01  30012012015PORTO ALEGRE        1603201200000000001890000CC                                                                                                                                                                                                                                                                                                                                                                                                         000016
1031421007893COBR_CAUC_BIC  DIPLOMATA S/A  INDL. E COMERCIAL        097191902000194CONSERVAS ODERICH S/A                   RUA ODERICH,  807                       SAO SEBASTIAO D                         95760000RS3426000010049697300292420-01  30012012015PORTO ALEGRE        2103201200000000001890000CC                                                                                                                                                                                                                                                                                                                                                                                                         000017
1031421007893COBR_CAUC_BIC  DIPLOMATA S/A  INDL. E COMERCIAL        097191902000194CONSERVAS ODERICH S/A                   RUA ODERICH,  807                       SAO SEBASTIAO D                         95760000RS3426000011049697480292567-01  31012012015PORTO ALEGRE        1503201200000000001890000CC                                                                                                                                                                                                                                                                                                                                                                                                         000018
1031421007893COBR_CAUC_BIC  DIPLOMATA S/A  INDL. E COMERCIAL        097191902000194CONSERVAS ODERICH S/A                   RUA ODERICH,  807                       SAO SEBASTIAO D                         95760000RS3426000012049697560292568-01  31012012015PORTO ALEGRE        1503201200000000001890000CC                                                                                                                                                                                                                                                                                                                                                                                                         000019
1031421007893COBR_CAUC_COR  DIPLOMATA S/A  INDL. E COMERCIAL        012252218000112COMERCIO DE LATICINIOS E FRIOS SAO      RUA SAO BENEDITO - CIDADE DE DEUS 368   MANAUS                                  69099000AM3426100001049734940025931-01  16022012800UNIBANCO S/A        2803201200000000006581880CC                                                                                                                                                                                                                                                                                                                                                                                                         000020
1031421007893COBR_CAUC_COR  DIPLOMATA S/A  INDL. E COMERCIAL        012252218000112COMERCIO DE LATICINIOS E FRIOS SAO      RUA SAO BENEDITO - CIDADE DE DEUS 368   MANAUS                                  69099000AM3426100002049734860025932-01  16022012800UNIBANCO S/A        2803201200000000006581880CC                                                                                                                                                                                                                                                                                                                                                                                                         000021
1031421007893COBR_CAUC_COR  DIPLOMATA S/A  INDL. E COMERCIAL        012252218000112COMERCIO DE LATICINIOS E FRIOS SAO      RUA SAO BENEDITO - CIDADE DE DEUS 368   MANAUS                                  69099000AM3426100003049734780025933-01  16022012800UNIBANCO S/A        2903201200000000006581880CC                                                                                                                                                                                                                                                                                                                                                                                                         000022
1031421007893COBR_CAUC_COR  DIPLOMATA S/A  INDL. E COMERCIAL        012252218000112COMERCIO DE LATICINIOS E FRIOS SAO      RUA SAO BENEDITO - CIDADE DE DEUS 368   MANAUS                                  69099000AM3426100004049735240025934-01  16022012800UNIBANCO S/A        2903201200000000006581880CC                                                                                                                                                                                                                                                                                                                                                                                                         000023
9000006                                                                                                                                                                                                                                                                                                                                                                                                                                                                                                                                                                                                                                                                                                               000024
