0REMESSANOTIFICACAO ELETRONICA        99999999999999BICBANCO                                AV. PAULISTA                            1048      12.ANDAR  BELA VISTA                    SAO PAULO                     01310100SP1121739360CORTINHAL                               COORDENADOR                             09092013                                                                                                                                                                                                                                                                                                                                                                                      000001
1048421003043COBR_CAUC_COR  FRIGOL S.A. EM RECUPERACAO JUDICIAL     016647607000106FORCE MEAT COM. DIST. CARNES E DER      MARIA GONZAGA 460                       SAO JOAO DE MER                         25535482RJ4401900001000449110000026821  06092013900BRADESCO S/A        1309201300000000010069619CC                                                                                                                                                                                                                                                                                                                                                                                                         000002
1028421001518COBR_CAUC_COR  GAIA AGRIBUSINESS AGRICOLA LTDA         000048494836153JOSE ADONIZETE DA COSTA                 AV SANTA CATARINA 180 SAO FRANCISCO     GOIATUBA                                75600000GO44035000010291105739419       19072013900BRADESCO S/A        1001201400000000011500000CC                                                                                                                                                                                                                                                                                                                                                                                                         000003
1028421001518COBR_CAUC_COR  GAIA AGRIBUSINESS AGRICOLA LTDA         000048494836153JOSE ADONIZETE DA COSTA                 AV SANTA CATARINA 180 SAO FRANCISCO     GOIATUBA                                75600000GO44036000010291410239729       02082013900BRADESCO S/A        1012201300000000016380000CC                                                                                                                                                                                                                                                                                                                                                                                                         000004
1028421001518COBR_CAUC_COR  GAIA AGRIBUSINESS AGRICOLA LTDA         000048494836153JOSE ADONIZETE DA COSTA                 AV SANTA CATARINA 180 SAO FRANCISCO     GOIATUBA                                75600000GO44036000020291411139730       02082013900BRADESCO S/A        1001201400000000016380000CC                                                                                                                                                                                                                                                                                                                                                                                                         000005
1046421006658COBR_CAUC_COR  TRANSPORTES DALCOQUIO LTDA              013463913000358V-BIODIESEL LTDA                        RODOVIARIA BR 122-0-BAIRRO-ZONA RURAL   IRAQUARA                                46980000BA4401800001000168141301045717  30082013900BRADESCO S/A        3009201300000000010058243CC                                                                                                                                                                                                                                                                                                                                                                                                         000006
1046421006658COBR_CAUC_COR  TRANSPORTES DALCOQUIO LTDA              013463913000358V-BIODIESEL LTDA                        RODOVIARIA BR 122-0-BAIRRO-ZONA RURAL   IRAQUARA                                46980000BA4401800002000168221301045716  30082013900BRADESCO S/A        3009201300000000010231131CC                                                                                                                                                                                                                                                                                                                                                                                                         000007
9000004                                                                                                                                                                                                                                                                                                                                                                                                                                                                                                                                                                                                                                                                                                               000008
