0REMESSANOTIFICACAO ELETRONICA        99999999999999BICBANCO                                AV. PAULISTA                            1048      12.ANDAR  BELA VISTA                    SAO PAULO                     01310100SP1121739360CORTINHAL                               COORDENADOR                             16072012                                                                                                                                                                                                                                                                                                                                                                                      000001
1021421011958DIR_CREDIT     USINA CAROLO S/A ACUCAR E ALCOOL        023314594000100ALESAT COMBUSTIVEIS S/A                 R. MANOEL DE CASTRO, 1170               NATAL                                   59064010RN3648300001                                                                                                                                          011915190           2210201000000160732010.US.000812072012000407venda do volume semanal de 135m³ de ETANOL ANIDRO COMBUSTÍVEL,destinadoao mercado interno,produzido na Safra 2011/2012 e 2012/2013.                                                                                                             055109474000168              000002
1020421001229COBR_CAUC_BIC  JARI CELULOSE,PAPEL E EMBALAGENS SA     049912199000385FAB DE PAPEL PAP N SENHORA DA           RUA COMENDADOR FUNABASHI TOKUJI, 170    ITAPIRA                                 13970970SP3649200001062165210028725 01  10072012021CAMPINAS            0809201200000000010133992CC                                                                                                                                                                                                                                                                                                                                                                                                         000003
1021421015830COBR_CAUC_COR  ATIBAIA ALIMENTOS ABATED AVES LTDA      063079099000189MARIOMAR GENEROS ALIMENTICIOS LTDA      RUA VERGUEIRO, 5481                     SAO PAULO                               04273000SP365200000100003596000175866   28062012900BRADESCO S/A        2607201200000000000300650CC                                                                                                                                                                                                                                                                                                                                                                                                         000004
1021421015830COBR_CAUC_COR  ATIBAIA ALIMENTOS ABATED AVES LTDA      043410869000117MERCADINHO BEM BARATO LTDA              AV ANTONIO SYLVIO CUNHA BUENO, N 386    DIADEMA                                 09970160SP365210000100005351000176046   28062012900BRADESCO S/A        1907201200000000000280000CC                                                                                                                                                                                                                                                                                                                                                                                                         000005
1021421015830COBR_CAUC_COR  ATIBAIA ALIMENTOS ABATED AVES LTDA      043410869000117MERCADINHO BEM BARATO LTDA              AV ANTONIO SYLVIO CUNHA BUENO, N 386    DIADEMA                                 09970160SP365210000200007109000177166   04072012900BRADESCO S/A        2507201200000000000024150CC                                                                                                                                                                                                                                                                                                                                                                                                         000006
1021421015830COBR_CAUC_COR  ATIBAIA ALIMENTOS ABATED AVES LTDA      004151987000287SUPERMERCADO BIG PUBLIC DE PINDA L      AV FORTUNATO MOREIRA, 170               PINDAMONHANGABA                         12400400SP365220000100004959000176004   28062012900BRADESCO S/A        1907201200000000000307623CC                                                                                                                                                                                                                                                                                                                                                                                                         000007
1021421015830COBR_CAUC_COR  ATIBAIA ALIMENTOS ABATED AVES LTDA      053601191000103SUPERMERCADO MIHARA LTDA                R MOTOMO MARDA,35                       MAIRIPORA                               07600000SP365230000100005149000176024   28062012900BRADESCO S/A        1907201200000000000320000CC                                                                                                                                                                                                                                                                                                                                                                                                         000008
1021421015830COBR_CAUC_COR  ATIBAIA ALIMENTOS ABATED AVES LTDA      067933531000108COMERCIAL DE AVES ABATIDAS JOAO DE      R DOUTOR FERREIRA DA LUZ, 126           SAO PAULO                               02971050SP365240000100004207000175928   28062012900BRADESCO S/A        1907201200000000000320860CC                                                                                                                                                                                                                                                                                                                                                                                                         000009
1021421015830COBR_CAUC_COR  ATIBAIA ALIMENTOS ABATED AVES LTDA      007173090000242SUPERMERCADO PATCHI LTDA.               AV DR JANUARIO MIRAGLIA,  608           CAMPOS DO JORDA                         12460000SP365250000100004916000176000   28062012900BRADESCO S/A        1907201200000000000329536CC                                                                                                                                                                                                                                                                                                                                                                                                         000010
1021421015830COBR_CAUC_COR  ATIBAIA ALIMENTOS ABATED AVES LTDA      008842314000224ROYAL COMERCIO E DISTRIBUIDORA LTD      AV AMARAL PEIXOTO, 348                  VOLTA REDONDA                           27253221RJ365260000100005998000177054   03072012900BRADESCO S/A        3107201200000000000066000CC                                                                                                                                                                                                                                                                                                                                                                                                         000011
1021421015830COBR_CAUC_COR  ATIBAIA ALIMENTOS ABATED AVES LTDA      008842314000224ROYAL COMERCIO E DISTRIBUIDORA LTD      AV AMARAL PEIXOTO, 348                  VOLTA REDONDA                           27253221RJ365260000200006048000177059   03072012900BRADESCO S/A        3107201200000000000156000CC                                                                                                                                                                                                                                                                                                                                                                                                         000012
1021421015830COBR_CAUC_COR  ATIBAIA ALIMENTOS ABATED AVES LTDA      008842314000224ROYAL COMERCIO E DISTRIBUIDORA LTD      AV AMARAL PEIXOTO, 348                  VOLTA REDONDA                           27253221RJ365260000300006293000177085   04072012900BRADESCO S/A        0108201200000000000090600CC                                                                                                                                                                                                                                                                                                                                                                                                         000013
1021421015830COBR_CAUC_COR  ATIBAIA ALIMENTOS ABATED AVES LTDA      008842314000224ROYAL COMERCIO E DISTRIBUIDORA LTD      AV AMARAL PEIXOTO, 348                  VOLTA REDONDA                           27253221RJ365260000400006331000177089   04072012900BRADESCO S/A        0108201200000000000026100CC                                                                                                                                                                                                                                                                                                                                                                                                         000014
1021421015830COBR_CAUC_COR  ATIBAIA ALIMENTOS ABATED AVES LTDA      059229575000123COMERCIAL FASSAO DE ALIMENTOS LTDA      AV. SANTA CRUZ, 384                     TAUBATE                                 12030000SP365270000100004860000175994   28062012900BRADESCO S/A        2307201200000000000108600CC                                                                                                                                                                                                                                                                                                                                                                                                         000015
1021421015830COBR_CAUC_COR  ATIBAIA ALIMENTOS ABATED AVES LTDA      059229575000123COMERCIAL FASSAO DE ALIMENTOS LTDA      AV. SANTA CRUZ, 384                     TAUBATE                                 12030000SP365270000200007877000177244   04072012900BRADESCO S/A        2907201200000000000241665CC                                                                                                                                                                                                                                                                                                                                                                                                         000016
1021421015830COBR_CAUC_COR  ATIBAIA ALIMENTOS ABATED AVES LTDA      004375687000109COMERCIO ATACADISTA BOIS & BICOS L      R. INGAIBAS, N. 106                     SAO PAULO                               03363050SP365280000100004070000175915A  28062012900BRADESCO S/A        1907201200000000000185526CC                                                                                                                                                                                                                                                                                                                                                                                                         000017
1021421015830COBR_CAUC_COR  ATIBAIA ALIMENTOS ABATED AVES LTDA      004375687000109COMERCIO ATACADISTA BOIS & BICOS L      R. INGAIBAS, N. 106                     SAO PAULO                               03363050SP365280000200004088000175915B  28062012900BRADESCO S/A        2607201200000000000185526CC                                                                                                                                                                                                                                                                                                                                                                                                         000018
1021421015830COBR_CAUC_COR  ATIBAIA ALIMENTOS ABATED AVES LTDA      011150477000170SUPERMERCADO BOM X LTDA.                AV. JOAO MANOEL,  420                   ARUJA                                   07400000SP365290000100005793000176090   28062012900BRADESCO S/A        0208201200000000000383000CC                                                                                                                                                                                                                                                                                                                                                                                                         000019
1021421015830COBR_CAUC_COR  ATIBAIA ALIMENTOS ABATED AVES LTDA      004697359000110COMERCIAL PADRE BRAZ CUBAS LTDA         RUA DOUTOR DEODATO WERTHEIMER,250       MOGI DAS CRUZES                         08740270SP365300000100003774000175884   28062012900BRADESCO S/A        2607201200000000000386000CC                                                                                                                                                                                                                                                                                                                                                                                                         000020
1021421015830COBR_CAUC_COR  ATIBAIA ALIMENTOS ABATED AVES LTDA      009353868000220SUPERMERCADO PEROLA DE GUAIANASES       AV DOUTOR JOSE FORNARI,1645             SAO BERNARDO DO                         09790400SP365310000100003758000175882   28062012900BRADESCO S/A        0208201200000000000127000CC                                                                                                                                                                                                                                                                                                                                                                                                         000021
1021421015830COBR_CAUC_COR  ATIBAIA ALIMENTOS ABATED AVES LTDA      009353868000220SUPERMERCADO PEROLA DE GUAIANASES       AV DOUTOR JOSE FORNARI,1645             SAO BERNARDO DO                         09790400SP365310000200007168000177172   04072012900BRADESCO S/A        0808201200000000000265740CC                                                                                                                                                                                                                                                                                                                                                                                                         000022
1021421015830COBR_CAUC_COR  ATIBAIA ALIMENTOS ABATED AVES LTDA      011163283000109SUPERMERCADO MAIS X LTDA.               AVENIDA VITAL BRASIL, 1031              POA                                     08557000SP365320000100003766000175883   28062012900BRADESCO S/A        0208201200000000000413000CC                                                                                                                                                                                                                                                                                                                                                                                                         000023
1021421015830COBR_CAUC_COR  ATIBAIA ALIMENTOS ABATED AVES LTDA      008047338000100TATHIANA COOL RAMOS MOTTA ME            AV ANTONIO PIRES PIMENTEL,  494         BRAGANCA PAULIS                         12900011SP365330000100006102000177065   03072012900BRADESCO S/A        2407201200000000000017739CC                                                                                                                                                                                                                                                                                                                                                                                                         000024
1021421015830COBR_CAUC_COR  ATIBAIA ALIMENTOS ABATED AVES LTDA      008047338000100TATHIANA COOL RAMOS MOTTA ME            AV ANTONIO PIRES PIMENTEL,  494         BRAGANCA PAULIS                         12900011SP365330000200006897000177145   04072012900BRADESCO S/A        2507201200000000000430400CC                                                                                                                                                                                                                                                                                                                                                                                                         000025
1021421015830COBR_CAUC_COR  ATIBAIA ALIMENTOS ABATED AVES LTDA      013931503000122COMERCIAL DE CARNES BOI RASTREADO       AVENIDA DAS PALMEIRAS,1103              SAO PAULO                               04895340SP365340000100004487000175956   28062012900BRADESCO S/A        1907201200000000000214200CC                                                                                                                                                                                                                                                                                                                                                                                                         000026
1021421015830COBR_CAUC_COR  ATIBAIA ALIMENTOS ABATED AVES LTDA      013931503000122COMERCIAL DE CARNES BOI RASTREADO       AVENIDA DAS PALMEIRAS,1103              SAO PAULO                               04895340SP365340000200008024000177260   04072012900BRADESCO S/A        2507201200000000000138300CC                                                                                                                                                                                                                                                                                                                                                                                                         000027
1021421015830COBR_CAUC_COR  ATIBAIA ALIMENTOS ABATED AVES LTDA      013931503000122COMERCIAL DE CARNES BOI RASTREADO       AVENIDA DAS PALMEIRAS,1103              SAO PAULO                               04895340SP365340000300008032000177261   04072012900BRADESCO S/A        2507201200000000000161040CC                                                                                                                                                                                                                                                                                                                                                                                                         000028
1021421015830COBR_CAUC_COR  ATIBAIA ALIMENTOS ABATED AVES LTDA      068374875000197PRIFE SUPERMERCADO LTDA                 EST DE ITAPECERICA,5552                 SAO PAULO                               05858000SP365350000100006374000177093   04072012900BRADESCO S/A        0808201200000000000052760CC                                                                                                                                                                                                                                                                                                                                                                                                         000029
1021421015830COBR_CAUC_COR  ATIBAIA ALIMENTOS ABATED AVES LTDA      068374875000197PRIFE SUPERMERCADO LTDA                 EST DE ITAPECERICA,5552                 SAO PAULO                               05858000SP365350000200006382000177094   04072012900BRADESCO S/A        0808201200000000000540000CC                                                                                                                                                                                                                                                                                                                                                                                                         000030
1021421015830COBR_CAUC_COR  ATIBAIA ALIMENTOS ABATED AVES LTDA      0102505850001515M COM. ATAC. E VAREJO DE ALIM. LT      R VITORIO BERNARDELLO, .77              SAO BERNARDO DO                         09851070SP365360000100003731000175880   28062012900BRADESCO S/A        1907201200000000000319000CC                                                                                                                                                                                                                                                                                                                                                                                                         000031
1021421015830COBR_CAUC_COR  ATIBAIA ALIMENTOS ABATED AVES LTDA      0102505850001515M COM. ATAC. E VAREJO DE ALIM. LT      R VITORIO BERNARDELLO, .77              SAO BERNARDO DO                         09851070SP365360000200008059000177263   04072012900BRADESCO S/A        2507201200000000000303840CC                                                                                                                                                                                                                                                                                                                                                                                                         000032
1021421015945COBR_CAUC_COR  ATIBAIA ALIMENTOS ABATED AVES LTDA      071779813000170SUPERMERCADO X LTDA                     ESTR. DO SACRAMENTO,  1126              GUARULHOS                               07263000SP365370000100001283000175214   25062012900BRADESCO S/A        3007201200000000000972200CC                                                                                                                                                                                                                                                                                                                                                                                                         000033
1021421015945COBR_CAUC_COR  ATIBAIA ALIMENTOS ABATED AVES LTDA      057867129000119SUPERMERCADO DUBOM PRECO LTDA.          RUA USHIKICHI KAMIYA , 2425             SAO PAULO                               02323000SP365380000100003472000175854   27062012900BRADESCO S/A        0108201200000000001044400CC                                                                                                                                                                                                                                                                                                                                                                                                         000034
1021421015830COBR_CAUC_COR  ATIBAIA ALIMENTOS ABATED AVES LTDA      005789313000356ENXUTO SUPERMERCADOS LTDA               AV DOUTOR CASSIO PASCOAL PADOVANI, 401  PIRACICABA                              13420015SP365390000100004592000175967   28062012900BRADESCO S/A        2607201200000000000280000CC                                                                                                                                                                                                                                                                                                                                                                                                         000035
1021421015830COBR_CAUC_COR  ATIBAIA ALIMENTOS ABATED AVES LTDA      005789313000356ENXUTO SUPERMERCADOS LTDA               AV DOUTOR CASSIO PASCOAL PADOVANI, 401  PIRACICABA                              13420015SP365390000200004754000175983   28062012900BRADESCO S/A        2607201200000000000213400CC                                                                                                                                                                                                                                                                                                                                                                                                         000036
1021421015830COBR_CAUC_COR  ATIBAIA ALIMENTOS ABATED AVES LTDA      039553144000968NAOMI COMERCIO DE ALIMENTOS LTDA        RUA MANOEL DE AGUIAR, N.89              BANANAL                                 12850000SP365400000100005980000177053   03072012900BRADESCO S/A        3107201200000000000156000CC                                                                                                                                                                                                                                                                                                                                                                                                         000037
1021421015830COBR_CAUC_COR  ATIBAIA ALIMENTOS ABATED AVES LTDA      039553144000968NAOMI COMERCIO DE ALIMENTOS LTDA        RUA MANOEL DE AGUIAR, N.89              BANANAL                                 12850000SP365400000200006021000177057   03072012900BRADESCO S/A        3107201200000000000276000CC                                                                                                                                                                                                                                                                                                                                                                                                         000038
1021421015830COBR_CAUC_COR  ATIBAIA ALIMENTOS ABATED AVES LTDA      039553144000968NAOMI COMERCIO DE ALIMENTOS LTDA        RUA MANOEL DE AGUIAR, N.89              BANANAL                                 12850000SP365400000300006285000177084   04072012900BRADESCO S/A        0108201200000000000052200CC                                                                                                                                                                                                                                                                                                                                                                                                         000039
1021421015830COBR_CAUC_COR  ATIBAIA ALIMENTOS ABATED AVES LTDA      039553144000968NAOMI COMERCIO DE ALIMENTOS LTDA        RUA MANOEL DE AGUIAR, N.89              BANANAL                                 12850000SP365400000400006315000177087   04072012900BRADESCO S/A        0108201200000000000192600CC                                                                                                                                                                                                                                                                                                                                                                                                         000040
9000023                                                                                                                                                                                                                                                                                                                                                                                                                                                                                                                                                                                                                                                                                                               000041
