0REMESSANOTIFICACAO ELETRONICA        99999999999999BICBANCO                                AV. PAULISTA                            1048      12.ANDAR  BELA VISTA                    SAO PAULO                     01310100SP1121739360CORTINHAL                               COORDENADOR                             20072012                                                                                                                                                                                                                                                                                                                                                                                      000001
1007420931444COBR_CAUC_BIC  PLASINCO LTDA                           061413282000143LORENZETTI S/A INDUSTRIA BRASILEIR      AV. PRESIDENTE WILSON,1230              SAO PAULO                               03107901SP36635000010134663521678       18072012007PAULISTA            1508201200000000019458340CC                                                                                                                                                                                                                                                                                                                                                                                                         000002
1032421021860COBR_CAUC_COR  INDUSTRIAL REX LTDA                     087288940000297KEPLER WEBER INDUSTRIAL S/A             AV. ADOLFO K.JUNIOR, 1.500              PANAMBI                                 98280000RS366360000100815030802.808/01  18072012800UNIBANCO S/A        1708201200000000010204858CC                                                                                                                                                                                                                                                                                                                                                                                                         000003
1007421055095COBR_CAUC_COR  PLASTER IND COM RESINAS PLAS EIRELI     046188199000124NORTEE PLASTICOS LTDA                   AV DR DIB SAUAIA NETO,4628              BARUERI                                 06455050SP36637000010000710126181/A     19072012900BRADESCO S/A        0709201200000000012188138CC                                                                                                                                                                                                                                                                                                                                                                                                         000004
1007421060307COBR_CAUC_COR  ROTHENBERG COMERCIO DE PERFUMES E C     005753951000317DOTCOM GROUP COMERCIO DE PRESENTES      912 SUL ALEMEDA 07 QL E LTES 5 9 LJ 2   PALMAS                                  77023482TO366380000101348131RR4071005A  14072012800UNIBANCO S/A        1308201200000000013439131CC                                                                                                                                                                                                                                                                                                                                                                                                         000005
1003420935082DIR_CREDIT     PB CONSTRUCOES LTDA                     010260249000351CIA INDUSTRIAL DE CIMENTO APODI S/A     ROD. CE 536 S/N - KM 30 - BOM SUCESSO   QUIXERE                                 62920000CE3664100001                                                                                                                                          011921478           150120120000021239S/N         19072012000403PRESTACAO DE SERVICOS DE EDIFICACOES DE PREDIOS INDUSTRIAIS, INCLUSO   FUNDACAO ATE A LIMPEZA E ENTREGA FINAL.                                                                                                                                  006017891000175              000006
1045421005424DIR_CREDIT     SAO LUCAS MEDICO HOSPITALAR LTDA        013360276000122UNIMED SERGIPE - COOP DE TRAB MEDICO    RUA SOCORRO 100_ SAO JOSE               ARACAJU                                 49015300SE3664500001                                                                                                                                          441009174           01052003000000852505/2003     05032012000101Contrato de prestação de serviços hospitalares aos beneficiários dos   planos de saúde operacionalizados pela contratante.                                                                                                                      013131370000100              000007
1044421012350DIR_CREDIT     PAPI PRONTO SOCORRO                     008380701000105UNIMED NATAL                            RUA MIPIBU, 511 - PETRÓPOLIS            NATAL                                   59020250RN3664900001                                                                                                                                          011928730           260320080000005352001         19072012000401ATENDIMENTO MEDICO/AMBULATORIAL DOS CONVENIADOS A UNIMED/NATAL.                                                                                                                                                                                 008423220000130              000008
1007421045766COBR_CAUC_COR  EVER ELETRIC A IND E COM VEIC LTDA      010738770000190FARIA & FARIA LTDA                      RUA DARCY GRIJO,20 LOJA 02              VITORIA                                 29060500ES36656000010131679523266       28062012800UNIBANCO S/A        3007201200000000002636568CC                                                                                                                                                                                                                                                                                                                                                                                                         000009
1007421045766COBR_CAUC_COR  EVER ELETRIC A IND E COM VEIC LTDA      010738770000190FARIA & FARIA LTDA                      RUA DARCY GRIJO,20 LOJA 02              VITORIA                                 29060500ES36656000020131680923267       28062012800UNIBANCO S/A        3007201200000000002636568CC                                                                                                                                                                                                                                                                                                                                                                                                         000010
1007421045766COBR_CAUC_COR  EVER ELETRIC A IND E COM VEIC LTDA      010738770000190FARIA & FARIA LTDA                      RUA DARCY GRIJO,20 LOJA 02              VITORIA                                 29060500ES36656000030131681723264       28062012800UNIBANCO S/A        3007201200000000002636568CC                                                                                                                                                                                                                                                                                                                                                                                                         000011
1016421022241COBR_CAUC_BIC  STOCKFER COM DIST DE FERRO ACO LTDA     082605288000192CLIMASUL AR CONDICIONADOS LTDA          AV. COMENDADOR FRANCO,8218              CURITIBA                                81560001PR366570000103566968100704/1    17072012016CURITIBA            1608201200000000000028048CC                                                                                                                                                                                                                                                                                                                                                                                                         000012
1016421022241COBR_CAUC_BIC  STOCKFER COM DIST DE FERRO ACO LTDA     081662462000176TECNOGRAN DO BRASIL                     RUA JOSE HAUER,525                      CURITIBA                                81580330PR36658000010341916799701/2     24052012016CURITIBA            2607201200000000000062388CC                                                                                                                                                                                                                                                                                                                                                                                                         000013
1016421022241COBR_CAUC_BIC  STOCKFER COM DIST DE FERRO ACO LTDA     078377363000138GRANISUL INDUSTRIA E COMERCIO LTDA      RODOVIA DOS MINERIOS,SN-KM 27           RIO BRANCO DO S                         83540000PR36659000010342951199873       31052012016CURITIBA            2607201200000000000082500CC                                                                                                                                                                                                                                                                                                                                                                                                         000014
1016421022241COBR_CAUC_COR  STOCKFER COM DIST DE FERRO ACO LTDA     033225616000705FORNECEDORA E EXP DE MADEIRA FOREX      RUA FAZENDA JANGADA,0                   TRES BARRAS                             89490000SC366600000103440603100138/2    12062012800UNIBANCO S/A        2407201200000000000085492CC                                                                                                                                                                                                                                                                                                                                                                                                         000015
1016421022241COBR_CAUC_BIC  STOCKFER COM DIST DE FERRO ACO LTDA     004638954000185GILTON NEUBER E CIA LTDA                AVENIDA PRINCIPAL,0                     PALMEIRA                                84130000PR366610000103475571100323      22062012016CURITIBA            2207201200000000000094775CC                                                                                                                                                                                                                                                                                                                                                                                                         000016
1016421022241COBR_CAUC_COR  STOCKFER COM DIST DE FERRO ACO LTDA     010646366000196I9 ENGENHARIA LTDA                      RUA CLOVIS DEVILAQUA,734                PINHAIS                                 83321110PR36662000010342950299867       31052012900BRADESCO S/A        2607201200000000000095879CC                                                                                                                                                                                                                                                                                                                                                                                                         000017
1016421022241COBR_CAUC_BIC  STOCKFER COM DIST DE FERRO ACO LTDA     019900000000842CERVEJARIAS KAISE DO BRASIL LTDA        AV TOCANTINS,199                        PONTA GROSSA                            84050130PR366630000103475661100333      25062012016CURITIBA            2507201200000000000100460CC                                                                                                                                                                                                                                                                                                                                                                                                         000018
1016421022241COBR_CAUC_BIC  STOCKFER COM DIST DE FERRO ACO LTDA     035820448016482WHITE MARTINS GASES INDL TDA            RUA  ELI VOLPATO,888                    ARAUCARIA                               83707440PR366640000103468281100289      20062012016CURITIBA            0408201200000000000103083CC                                                                                                                                                                                                                                                                                                                                                                                                         000019
1016421022241COBR_CAUC_COR  STOCKFER COM DIST DE FERRO ACO LTDA     013200521000134CONSORCIO FERROSUL                      RUA PAULO LOPES,400-LT 3 E 4            SANTA HELENA DE                         75920000GO366650000103475539100366      26062012800UNIBANCO S/A        2607201200000000000104000CC                                                                                                                                                                                                                                                                                                                                                                                                         000020
1016421022241COBR_CAUC_COR  STOCKFER COM DIST DE FERRO ACO LTDA     075703256000164JANACIEVIZCZ MALINOWSKI E CIA LTDA      RODOVIA DO PAPEL PR 160,SN-KM 14,5      TELEMACO BORBA                          84269090PR366660000103475580100332      25062012800UNIBANCO S/A        2207201200000000000115148CC                                                                                                                                                                                                                                                                                                                                                                                                         000021
1016421022241COBR_CAUC_BIC  STOCKFER COM DIST DE FERRO ACO LTDA     076147578000137EMISA PLAENGE ENGENHARIA LTDA           AV TIRADENTES,100-SL 11 E 12            LONDRINA                                86070520PR366670000103475644100339      25062012031LONDRINA            2507201200000000000118817CC                                                                                                                                                                                                                                                                                                                                                                                                         000022
1016421022241COBR_CAUC_BIC  STOCKFER COM DIST DE FERRO ACO LTDA     061082962001608CIA MELHORAMENTOS NORTE DO PARANHA      ESTRADA JUSSARA VIDIGAL, ,0             JUSSARA                                 87230000PR3666800001034383231000501     11062012016CURITIBA            3107201200000000000132534CC                                                                                                                                                                                                                                                                                                                                                                                                         000023
1016421022241COBR_CAUC_COR  STOCKFER COM DIST DE FERRO ACO LTDA     061575775000856TECHINT SA                              RUA PONTO DO POCO ,SN                   PONTAL DO PARAN                         83255000PR3666900001034383151000491     11062012800UNIBANCO S/A        2307201200000000000161986CC                                                                                                                                                                                                                                                                                                                                                                                                         000024
1016421022241COBR_CAUC_COR  STOCKFER COM DIST DE FERRO ACO LTDA     078908266000205MILI S/A                                RODOVIA BR 116,21561-KM 109             TRES BARRAS                             89490000SC366700000103475563100320      22062012800UNIBANCO S/A        2207201200000000000167946CC                                                                                                                                                                                                                                                                                                                                                                                                         000025
1016421022241COBR_CAUC_COR  STOCKFER COM DIST DE FERRO ACO LTDA     000506489000178FARENZENA SERRALHERIA E FERRAGENS       RUA CASTRO ALVES,165                    SALTO VELOSO                            89595000SC366710000103440638100141/3    12062012800UNIBANCO S/A        2407201200000000000178616CC                                                                                                                                                                                                                                                                                                                                                                                                         000026
1016421022241COBR_CAUC_BIC  STOCKFER COM DIST DE FERRO ACO LTDA     076024876000130EMPO CURITIBANO DE SANEAMENTO CONS      RUA MATEUS LEME, ,2511                  CURITIBA                                80530010PR366720000103475555100375      26062012016CURITIBA            2607201200000000000190001CC                                                                                                                                                                                                                                                                                                                                                                                                         000027
1016421022241COBR_CAUC_COR  STOCKFER COM DIST DE FERRO ACO LTDA     003632042000133FARENZENA COM DE EQUIPAMENTOS LTDA      RUA ALGINO FORMIGUERI,70                VIDEIRA                                 89560000SC36673000010341907899697/3     24042012800UNIBANCO S/A        2607201200000000000208086CC                                                                                                                                                                                                                                                                                                                                                                                                         000028
1016421022241COBR_CAUC_BIC  STOCKFER COM DIST DE FERRO ACO LTDA     008371303000122WZ OLIVEIRA MANUTENCAO E MONTAGENS      RUA FRANCISCO GALARDA,411               ARAUCARIA                               83706540PR366740000103475628100327      22062012016CURITIBA            2207201200000000000113050CC                                                                                                                                                                                                                                                                                                                                                                                                         000029
1016421022241COBR_CAUC_BIC  STOCKFER COM DIST DE FERRO ACO LTDA     008371303000122WZ OLIVEIRA MANUTENCAO E MONTAGENS      RUA FRANCISCO GALARDA,411               ARAUCARIA                               83706540PR366740000203475636100327/2    22062012016CURITIBA            0608201200000000000113050CC                                                                                                                                                                                                                                                                                                                                                                                                         000030
1016421022241COBR_CAUC_COR  STOCKFER COM DIST DE FERRO ACO LTDA     008824016000120ARY KIMITA JUNIOR                       RUA JOSE CASEMIRO SWIERK,,90            PORTO UNIAO                             89500000SC366750000103475547100371      26062012800UNIBANCO S/A        2607201200000000000290149CC                                                                                                                                                                                                                                                                                                                                                                                                         000031
1016421022241COBR_CAUC_BIC  STOCKFER COM DIST DE FERRO ACO LTDA     004731861000109INTERALLI ADMINISTRACAO E PARTICIP      AVENIDA PORTUARIA,0                     PARANAGUA                               83221570PR36676000010341911699706/3     24052012016CURITIBA            2607201200000000000325498CC                                                                                                                                                                                                                                                                                                                                                                                                         000032
1016421022241COBR_CAUC_BIC  STOCKFER COM DIST DE FERRO ACO LTDA     077955532000700CONSTRUTORA TRIUNFO SA                  ROD. BR 116, ,2651                      CURITIBA                                82590100PR366770000103566976100680/1    16072012016CURITIBA            1208201200000000000568650CC                                                                                                                                                                                                                                                                                                                                                                                                         000033
1016421022241COBR_CAUC_BIC  STOCKFER COM DIST DE FERRO ACO LTDA     004731861000109INTERALLI ADMINISTRACAO E PARTICIP      AVENIDA PORTUARIA,0                     PARANAGUA                               83221570PR366780000103468303100288      20062012016CURITIBA            2507201200000000000309990CC                                                                                                                                                                                                                                                                                                                                                                                                         000034
1016421022241COBR_CAUC_BIC  STOCKFER COM DIST DE FERRO ACO LTDA     004731861000109INTERALLI ADMINISTRACAO E PARTICIP      AVENIDA PORTUARIA,0                     PARANAGUA                               83221570PR3667800002034682901002882     20062012016CURITIBA            0108201200000000000309990CC                                                                                                                                                                                                                                                                                                                                                                                                         000035
1016421022241COBR_CAUC_COR  STOCKFER COM DIST DE FERRO ACO LTDA     076093731000190COPACOL - COOPERATIVA AGROINDUSTRI      RUA DES. MUNHOZ DE MELO,176             CAFELANDIA                              85415970PR366790000103475610100326      22062012800UNIBANCO S/A        2207201200000000000313020CC                                                                                                                                                                                                                                                                                                                                                                                                         000036
1016421022241COBR_CAUC_COR  STOCKFER COM DIST DE FERRO ACO LTDA     076093731000190COPACOL - COOPERATIVA AGROINDUSTRI      RUA DES. MUNHOZ DE MELO,176             CAFELANDIA                              85415970PR366790000203475652100352      25062012800UNIBANCO S/A        2507201200000000000127680CC                                                                                                                                                                                                                                                                                                                                                                                                         000037
1016421022241COBR_CAUC_COR  STOCKFER COM DIST DE FERRO ACO LTDA     076093731000190COPACOL - COOPERATIVA AGROINDUSTRI      RUA DES. MUNHOZ DE MELO,176             CAFELANDIA                              85415970PR366790000303475598100359      26062012800UNIBANCO S/A        2607201200000000003164592CC                                                                                                                                                                                                                                                                                                                                                                                                         000038
1016421022241COBR_CAUC_COR  STOCKFER COM DIST DE FERRO ACO LTDA     076093731000190COPACOL - COOPERATIVA AGROINDUSTRI      RUA DES. MUNHOZ DE MELO,176             CAFELANDIA                              85415970PR36679000040341925699632       22052012800UNIBANCO S/A        2307201200000000000372000CC                                                                                                                                                                                                                                                                                                                                                                                                         000039
9000031                                                                                                                                                                                                                                                                                                                                                                                                                                                                                                                                                                                                                                                                                                               000040
