0REMESSANOTIFICACAO ELETRONICA        99999999999999BICBANCO                                AV. PAULISTA                            1048      12.ANDAR  BELA VISTA                    SAO PAULO                     01310100SP1121739360CORTINHAL                               COORDENADOR                             17042012                                                                                                                                                                                                                                                                                                                                                                                      000001
1018481031041DIR_CREDIT     CONSTRUTORA INCORP SANTA TERESA         001543032000104CELG DISTRIBUIÇÃO S.A - CELG D          RUA 2, QD. A-37,JARDIM GOIAS            GOIANIA                                 74805180GO3483600001                                                                                                                                          481031548           291220110000020505PRGE-1.089/213042012000404Prestação de serviços técnicos comerciais, englobando atividades de suspensão, restabelecimento e vistoria de suspensão do fornecimento, leitura do medidor, retirada e/ou instalação do equipamento de medição.                                006128807000190              000002
1007420931444COBR_CAUC_BIC  PLASINCO LTDA                           061413282000143LORENZETTI S/A INDUSTRIA BRASILEIR      AV. PRESIDENTE WILSON,1230              SAO PAULO                               03107901SP34842000010118403119587       13042012007PAULISTA            1105201200000000012378535CC                                                                                                                                                                                                                                                                                                                                                                                                         000003
1031420932046COBR_CAUC_BIC  PALMALI INDL.DE ALIMENTOS LTDA          074101569000341AGRICOLA JANDELLE S/A.                  AV ITAMARATY                            ROLANDIA                                86600000PR348430000104982663NE 0346062  30032012031LONDRINA            2505201200000000060000000CC                                                                                                                                                                                                                                                                                                                                                                                                         000004
1014420939021COBR_CAUC_BIC  EDITORA O DIA S/A                       033747288000111FEDER.EMPR.TRANSP.RODOV.LESTE M.BR      RUA DA ASSEMBLEIA 10 39 A/C. SR.ED      RIO DE JANEIRO                          20119900RJ3484400001024082390638551     15042012014RIO DE JANEIRO      1505201200000000011582516CC                                                                                                                                                                                                                                                                                                                                                                                                         000005
1048421000338COBR_CAUC_COR  FRIGOESTRELA S.A. EM RECUP JUDICIAL     050947761001871IRMAOS RUSSI LTDA                       RUA LUIS ALLI FARDYN590SALA 03          CAJAMAR                                 07750000SP3484500001019998500018888601  15042012900BRADESCO S/A        2105201200000000010480654CC                                                                                                                                                                                                                                                                                                                                                                                                         000006
1007421044581COBR_CAUC_BIC  GRANCARGA TRANSP. E GUINDASTES S/A.     001027335000166WOBBEN WINDPOWER IND.E COM.LTDA.        AV.FERNANDO STECCA,100                  SOROCABA                                18087149SP348460000101184805002188      09042012007PAULISTA            1306201200000000013247850CC                                                                                                                                                                                                                                                                                                                                                                                                         000007
1050421000089COBR_CAUC_COR  ATIVO ALIMENTOS LTDA                    027497684000135FRISA FRIGORIFICO RIO DOCE SA           R FIORAVANTE ROSSI 4000                 COLATINA                                29704700ES348470000100325251131152/1    14042012800UNIBANCO S/A        1205201200000000010257104CC                                                                                                                                                                                                                                                                                                                                                                                                         000008
1024420933562COBR_CAUC_BIC  GLOBAL ENERGIA ELETRICA S/A             010994254000126TRANSMISSORA MATOGROSSENSE DE ENER      AV. MIGUEL SUTIL, 8695 3  ANDAR         CUIABA                                  78043305MT34866000010196088650/1        30012012024CUIABA              2504201200000000032259981CC                                                                                                                                                                                                                                                                                                                                                                                                         000009
1024420933562COBR_CAUC_BIC  GLOBAL ENERGIA ELETRICA S/A             010994254000126TRANSMISSORA MATOGROSSENSE DE ENER      AV. MIGUEL SUTIL, 8695 3  ANDAR         CUIABA                                  78043305MT34866000020196089449/1        30012012024CUIABA              2504201200000000109534001CC                                                                                                                                                                                                                                                                                                                                                                                                         000010
9000008                                                                                                                                                                                                                                                                                                                                                                                                                                                                                                                                                                                                                                                                                                               000011
