0REMESSANOTIFICACAO ELETRONICA        99999999999999BICBANCO                                AV. PAULISTA                            1048      12.ANDAR  BELA VISTA                    SAO PAULO                     01310100SP1121739360CORTINHAL                               COORDENADOR                             02022012                                                                                                                                                                                                                                                                                                                                                                                      000001
1019421004658COBR_CAUC_COR  S/A ESTADO DE MINAS                     059104422005704VOLKSWAGEN DO BRASIL IND DE VEIC A      EST. MARGINAL DA VIA ANCHIETA 1 KM      SAO BERNADO DO                          09600004SP336250000101134856881769-1    31012012900BRADESCO S/A        0703201200000000010993552CC                                                                                                                                                                                                                                                                                                                                                                                                         000002
1031421007850COBR_CAUC_BIC  AGRICOLA JANDELLE S/A                   092241819000169PAMPACARNE COMERCIO IMPORTACAO E E      AVENIDA FARRAPOS 2475                   PORTO ALEGRE                            90220006RS3362600001049698450000632001  19012012015PORTO ALEGRE        0803201200000000014317040CC                                                                                                                                                                                                                                                                                                                                                                                                         000003
1014420939021COBR_CAUC_BIC  EDITORA O DIA S/A                       033747288000111FEDER.EMPR.TRANSP.RODOV.LESTE M.BR      RUA DA ASSEMBLEIA 10 39 A/C. SR.ED      RIO DE JANEIRO                          20119900RJ3362700001023898710628294     31012012014RIO DE JANEIRO      1502201200000000011582538CC                                                                                                                                                                                                                                                                                                                                                                                                         000004
1028421001518COBR_CAUC_COR  GAIA AGRIBUSINESS AGRICOLA LTDA         000037457080082SILVIO ARANTES DE OLIVEIRA              AV MINAS GERAIS,1380                    GOIATUBA                                75600000GO33628000010275220019621       01022012800UNIBANCO S/A        1607201200000000012485000CC                                                                                                                                                                                                                                                                                                                                                                                                         000005
1028421001518COBR_CAUC_COR  GAIA AGRIBUSINESS AGRICOLA LTDA         000082255210134CRISTIANO LOPES ARANTES                 RUA URUGUAI,85                          ITUMBIARA                               75503970GO33629000010275222619625       01022012800UNIBANCO S/A        2207201200000000010268000CC                                                                                                                                                                                                                                                                                                                                                                                                         000006
1014421018213COBR_CAUC_COR  POWERTECH COMERCIAL LTDA.               004562559000832COMPANHIA NAVEGACAO DA AMAZONIA -       AV: GETULIO VARGAS,366-CENTRO    0      MANAUS                                  69020010AM336300000100051783 28117A     20012012900BRADESCO S/A        1702201200000000018700000CC                                                                                                                                                                                                                                                                                                                                                                                                         000007
1007421045766COBR_CAUC_BIC  EVER ELETRIC A IND E COM VEIC LTDA      012249852000104RAF COMERCIO DE VEICULOS LTDA.          AV. JOAO NAVES DE AVILA,5330            UBERLANDIA                              38408663MG33657000010105865622209       15122011028UBERLANDIA          2303201200000000002381400CC                                                                                                                                                                                                                                                                                                                                                                                                         000008
1007421045766COBR_CAUC_BIC  EVER ELETRIC A IND E COM VEIC LTDA      012249852000104RAF COMERCIO DE VEICULOS LTDA.          AV. JOAO NAVES DE AVILA,5330            UBERLANDIA                              38408663MG33657000020105864822902       15122011028UBERLANDIA          2303201200000000002381400CC                                                                                                                                                                                                                                                                                                                                                                                                         000009
1007421045766COBR_CAUC_BIC  EVER ELETRIC A IND E COM VEIC LTDA      012249852000104RAF COMERCIO DE VEICULOS LTDA.          AV. JOAO NAVES DE AVILA,5330            UBERLANDIA                              38408663MG33657000030105862122904       15122011028UBERLANDIA          2303201200000000002381400CC                                                                                                                                                                                                                                                                                                                                                                                                         000010
1007421045766COBR_CAUC_BIC  EVER ELETRIC A IND E COM VEIC LTDA      012249852000104RAF COMERCIO DE VEICULOS LTDA.          AV. JOAO NAVES DE AVILA,5330            UBERLANDIA                              38408663MG33657000040105863022908       15122011028UBERLANDIA          2303201200000000002381400CC                                                                                                                                                                                                                                                                                                                                                                                                         000011
1007421045766COBR_CAUC_BIC  EVER ELETRIC A IND E COM VEIC LTDA      003107949000183AFV VEICULOS LTDA.                      VIA EXPRESSA DE CONTAGEM, 7045          CONTAGEM                                32070005MG3365800001009436990126212/02  28112011019BELO HORIZONTE      2503201200000000002668825CC                                                                                                                                                                                                                                                                                                                                                                                                         000012
1007421045766COBR_CAUC_BIC  EVER ELETRIC A IND E COM VEIC LTDA      003107949000183AFV VEICULOS LTDA.                      VIA EXPRESSA DE CONTAGEM, 7045          CONTAGEM                                32070005MG3365800002009437020126213/02  28112011019BELO HORIZONTE      2802201200000000002668825CC                                                                                                                                                                                                                                                                                                                                                                                                         000013
1007421045766COBR_CAUC_BIC  EVER ELETRIC A IND E COM VEIC LTDA      003107949000183AFV VEICULOS LTDA.                      VIA EXPRESSA DE CONTAGEM, 7045          CONTAGEM                                32070005MG3365800003009437110126217/02  28112011019BELO HORIZONTE      2503201200000000001836828CC                                                                                                                                                                                                                                                                                                                                                                                                         000014
1007421045766COBR_CAUC_BIC  EVER ELETRIC A IND E COM VEIC LTDA      003107949000183AFV VEICULOS LTDA.                      VIA EXPRESSA DE CONTAGEM, 7045          CONTAGEM                                32070005MG3365800004009437290126218/02  28112011019BELO HORIZONTE      2002201200000000001836828CC                                                                                                                                                                                                                                                                                                                                                                                                         000015
1007421045766COBR_CAUC_BIC  EVER ELETRIC A IND E COM VEIC LTDA      003107949000183AFV VEICULOS LTDA.                      VIA EXPRESSA DE CONTAGEM, 7045          CONTAGEM                                32070005MG3365800005009437370126220/02  28112011019BELO HORIZONTE      2503201200000000002584099CC                                                                                                                                                                                                                                                                                                                                                                                                         000016
1007421045766COBR_CAUC_BIC  EVER ELETRIC A IND E COM VEIC LTDA      003107949000183AFV VEICULOS LTDA.                      VIA EXPRESSA DE CONTAGEM, 7045          CONTAGEM                                32070005MG3365800006009437610126209/02  28112011019BELO HORIZONTE      2503201200000000002668825CC                                                                                                                                                                                                                                                                                                                                                                                                         000017
1007421045766COBR_CAUC_BIC  EVER ELETRIC A IND E COM VEIC LTDA      003107949000183AFV VEICULOS LTDA.                      VIA EXPRESSA DE CONTAGEM, 7045          CONTAGEM                                32070005MG3365800007009438000126210/02  28112011019BELO HORIZONTE      2503201200000000002668825CC                                                                                                                                                                                                                                                                                                                                                                                                         000018
1007421045766COBR_CAUC_BIC  EVER ELETRIC A IND E COM VEIC LTDA      003107949000183AFV VEICULOS LTDA.                      VIA EXPRESSA DE CONTAGEM, 7045          CONTAGEM                                32070005MG3365800008009438180126211/02  28112011019BELO HORIZONTE      1902201200000000002668825CC                                                                                                                                                                                                                                                                                                                                                                                                         000019
1007421045766COBR_CAUC_BIC  EVER ELETRIC A IND E COM VEIC LTDA      003107949000183AFV VEICULOS LTDA.                      VIA EXPRESSA DE CONTAGEM, 7045          CONTAGEM                                32070005MG3365800009009438260126216/02  28112011019BELO HORIZONTE      0402201200000000001836828CC                                                                                                                                                                                                                                                                                                                                                                                                         000020
1007421045766COBR_CAUC_BIC  EVER ELETRIC A IND E COM VEIC LTDA      003107949000183AFV VEICULOS LTDA.                      VIA EXPRESSA DE CONTAGEM, 7045          CONTAGEM                                32070005MG3365800010009438340126219/02  28112011019BELO HORIZONTE      1902201200000000001836828CC                                                                                                                                                                                                                                                                                                                                                                                                         000021
1007421045766COBR_CAUC_BIC  EVER ELETRIC A IND E COM VEIC LTDA      003107949000183AFV VEICULOS LTDA.                      VIA EXPRESSA DE CONTAGEM, 7045          CONTAGEM                                32070005MG3365800011009438420126221/02  28112011019BELO HORIZONTE      2503201200000000002584099CC                                                                                                                                                                                                                                                                                                                                                                                                         000022
9000008                                                                                                                                                                                                                                                                                                                                                                                                                                                                                                                                                                                                                                                                                                               000023
