0REMESSANOTIFICACAO ELETRONICA        99999999999999BICBANCO                                AV. PAULISTA                            1048      12.ANDAR  BELA VISTA                    SAO PAULO                     01310100SP1121739360CORTINHAL                               COORDENADOR                             14082013                                                                                                                                                                                                                                                                                                                                                                                      000001
1046421001443COBR_CAUC_COR  COSTAO DO SANTINHO TUR E LAZER LTDA     075487009000178ASSOCIACAO CATARINENSE DE RADIO E       R. JERONIMO COELHO,280                  FLORIANOPOLIS                           88010030SC435790000100011421178959/8    13082013900BRADESCO S/A        2708201300000000020356500CC                                                                                                                                                                                                                                                                                                                                                                                                         000002
1046421001443COBR_CAUC_COR  COSTAO DO SANTINHO TUR E LAZER LTDA     075487009000178ASSOCIACAO CATARINENSE DE RADIO E       R. JERONIMO COELHO,280                  FLORIANOPOLIS                           88010030SC4357900002000114301518/7      13082013900BRADESCO S/A        1209201300000000020356500CC                                                                                                                                                                                                                                                                                                                                                                                                         000003
1021420930887COBR_CAUC_BIC  DEDINI S/A INDUSTRIAS DE BASE           075717355000286USINA DE ACUCAR SANTA TEREZINHA LT      AV MARCELO MESSIAS BUSIQUIA 847 PQ INDUSMARINGA                                 87065006PR435780000106426685227318-4-4  08082013016CURITIBA            3011201300000000022500000CC                                                                                                                                                                                                                                                                                                                                                                                                         000004
1007421064426COBR_CAUC_BIC  GADOL DISTRIBUIDORA DE POLIMEROS LT     002567761000155EDR INDUSTRIA DE PLASTICOS LTDA         R. TOCANTINIA,373                       SAO PAULO                               04186200SP435800000102160250001507/AA   13082013007PAULISTA            1109201300000000014468407CC                                                                                                                                                                                                                                                                                                                                                                                                         000005
9000003                                                                                                                                                                                                                                                                                                                                                                                                                                                                                                                                                                                                                                                                                                               000006
