0REMESSANOTIFICACAO ELETRONICA        99999999999999BICBANCO                                AV. PAULISTA                            1048      12.ANDAR  BELA VISTA                    SAO PAULO                     01310100SP1121739360CORTINHAL                               COORDENADOR                             14122012                                                                                                                                                                                                                                                                                                                                                                                      000001
1048421000338COBR_CAUC_COR  FRIGOESTRELA S.A. EM RECUP JUDICIAL     050947761001871IRMAOS RUSSI LTDA                       RUA LUIS ALLI FARDYN590SALA 03          CAJAMAR                                 07750000SP3932500001033673460024324201  12122012900BRADESCO S/A        1701201300000000010424817CC                                                                                                                                                                                                                                                                                                                                                                                                         000002
1037421008961COBR_CAUC_BIC  INTERMODAL BRASIL LOGISTICA LTDA        059275792008991GENERAL MOTORS DO BRASIL LTDA           R. MANOEL BORBA GATO,100                GUARULHOS                               07044220SP39326000010457981465852       05122012037GUARULHOS           2201201300000000015307205CC                                                                                                                                                                                                                                                                                                                                                                                                         000003
1037421008961COBR_CAUC_BIC  INTERMODAL BRASIL LOGISTICA LTDA        059275792008991GENERAL MOTORS DO BRASIL LTDA           R. MANOEL BORBA GATO,100                GUARULHOS                               07044220SP39326000020457982266201       12122012037GUARULHOS           2901201300000000013326924CC                                                                                                                                                                                                                                                                                                                                                                                                         000004
9000002                                                                                                                                                                                                                                                                                                                                                                                                                                                                                                                                                                                                                                                                                                               000005
