0REMESSANOTIFICACAO ELETRONICA        99999999999999BICBANCO                                AV. PAULISTA                            1048      12.ANDAR  BELA VISTA                    SAO PAULO                     01310100SP1121739360CORTINHAL                               COORDENADOR                             25012012                                                                                                                                                                                                                                                                                                                                                                                      000001
1003421016641DIR_CREDIT     TECNOCON TECNOLOGIA EM CONSTRUCOES      007598634000137PM DE SOBRAL                            RUA VIRIATO DE MEDEIROS, 1.250 CENTRO   SOBRAL                                  62011000CE3333300001                                                                                                                                          481017907           170420080000006303S/N         13012012000404EXECUCAO DE OBRAS DE CONSTRUCAO DO SISTEMA DE ESGOTAMENTO SANITARIO DASBACIAS 11, 13, 16 E 17, DOS BAIRROS CENTRO E PEDRINHAS - MUNICIPIO DE SOBRAL                                                                                             000700782000171              000002
1015421011950DIR_CREDIT     SULTEPA CONSTRUCOES E COMERCIO LTDA     087958641000131SECRETARIA DE OBRAS PUBLICAS, IRRIGACAO AV. BORGES DE MEDEIROS, 1501 3AND       PORTO ALEGRE                            90119900RS3333400001                                                                                                                                          481020135           021220080000017960001/08      29072011000404execução de serviços necessários à Construção da BARRAGEM DO ARROIO JA-GUARI, NA BACIA DO RIO SANTA MARIA, NO ESTADO DO RIO GRANDE DO SUL.                                                                                                      090318338000189              000003
1017421012786COBR_CAUC_BIC  FABRICA DA PEDRA S.A FIAC.E TECELAG     000886257000788ATMOSFERA GESTAO E HIGIENIZACA          RUA ANTONIETA PIVA BARRANQUEIROS CHACARAJUNDIAI                                 13212000SP3346700001025674417585-A01    23012012007PAULISTA            2304201200000000010399240CC                                                                                                                                                                                                                                                                                                                                                                                                         000004
1007421044581COBR_CAUC_BIC  GRANCARGA TRANSP. E GUINDASTES S/A.     001027335000166WOBBEN WINDPOWER IND.E COM.LTDA.        AV.FERNANDO STECCA,100                  SOROCABA                                18087149SP334680000101044591002091      23012012007PAULISTA            2202201200000000012455315CC                                                                                                                                                                                                                                                                                                                                                                                                         000005
1007421044581COBR_CAUC_BIC  GRANCARGA TRANSP. E GUINDASTES S/A.     001027335000166WOBBEN WINDPOWER IND.E COM.LTDA.        AV.FERNANDO STECCA,100                  SOROCABA                                18087149SP334680000201044655006180      19012012007PAULISTA            0703201200000000010141959CC                                                                                                                                                                                                                                                                                                                                                                                                         000006
1007421044581COBR_CAUC_BIC  GRANCARGA TRANSP. E GUINDASTES S/A.     001027335000166WOBBEN WINDPOWER IND.E COM.LTDA.        AV.FERNANDO STECCA,100                  SOROCABA                                18087149SP334680000301044663006178      19012012007PAULISTA            0703201200000000010141959CC                                                                                                                                                                                                                                                                                                                                                                                                         000007
1007421044581COBR_CAUC_BIC  GRANCARGA TRANSP. E GUINDASTES S/A.     001027335000166WOBBEN WINDPOWER IND.E COM.LTDA.        AV.FERNANDO STECCA,100                  SOROCABA                                18087149SP334680000401044671002090      23012012007PAULISTA            2202201200000000012455315CC                                                                                                                                                                                                                                                                                                                                                                                                         000008
1021141012725COBR_CAUC_BIC  MABE BRASIL ELETRODOMESTICOS LTDA       010757237010723NOVA CASA BAHIA S/A                     RODOVIA ANHANGUERA 0, S/N KM52          JUNDIAI                                 13208401SP3346900001062817920000607710  20012012007PAULISTA            0702201200000000010632912TD                                                                                                                                                                                                                                                                                                                                                                                                         000009
1021141012725COBR_CAUC_BIC  MABE BRASIL ELETRODOMESTICOS LTDA       010757237010723NOVA CASA BAHIA S/A                     RODOVIA ANHANGUERA 0, S/N KM52          JUNDIAI                                 13208401SP3346900002062818060000048211  20012012007PAULISTA            0702201200000000010669025TD                                                                                                                                                                                                                                                                                                                                                                                                         000010
1021141012725COBR_CAUC_BIC  MABE BRASIL ELETRODOMESTICOS LTDA       010757237010723NOVA CASA BAHIA S/A                     RODOVIA ANHANGUERA 0, S/N KM52          JUNDIAI                                 13208401SP3346900003062818140000048266  20012012007PAULISTA            0702201200000000011298257TD                                                                                                                                                                                                                                                                                                                                                                                                         000011
1021141012725COBR_CAUC_BIC  MABE BRASIL ELETRODOMESTICOS LTDA       010757237010723NOVA CASA BAHIA S/A                     RODOVIA ANHANGUERA 0, S/N KM52          JUNDIAI                                 13208401SP3346900004062818220000048212  20012012007PAULISTA            0702201200000000012981785TD                                                                                                                                                                                                                                                                                                                                                                                                         000012
1021141012725COBR_CAUC_BIC  MABE BRASIL ELETRODOMESTICOS LTDA       010757237010723NOVA CASA BAHIA S/A                     RODOVIA ANHANGUERA 0, S/N KM52          JUNDIAI                                 13208401SP3346900005062818310000609121  20012012007PAULISTA            0802201200000000013299475TD                                                                                                                                                                                                                                                                                                                                                                                                         000013
1021141012725COBR_CAUC_BIC  MABE BRASIL ELETRODOMESTICOS LTDA       010757237010723NOVA CASA BAHIA S/A                     RODOVIA ANHANGUERA 0, S/N KM52          JUNDIAI                                 13208401SP3346900006062819620000610586  23012012007PAULISTA            0802201200000000010934083TD                                                                                                                                                                                                                                                                                                                                                                                                         000014
1021141012725COBR_CAUC_BIC  MABE BRASIL ELETRODOMESTICOS LTDA       010757237010723NOVA CASA BAHIA S/A                     RODOVIA ANHANGUERA 0, S/N KM52          JUNDIAI                                 13208401SP3346900007062819710000609559  23012012007PAULISTA            0802201200000000011906002TD                                                                                                                                                                                                                                                                                                                                                                                                         000015
1007421057012COBR_CAUC_BIC  MAZAL COML INSUMOS PLASTICOS LTDA       010460372000154PLASTER INDUSTRIA E COMERCIO DE RE      ESTACAO DOS CASA,2599-GALPAO - 02       S.B. DO CAMPO                           09840000SP334700000101045953000097/AA   24012012038ABC                 2902201200000000010201275CC                                                                                                                                                                                                                                                                                                                                                                                                         000016
1007421057012COBR_CAUC_BIC  MAZAL COML INSUMOS PLASTICOS LTDA       010460372000154PLASTER INDUSTRIA E COMERCIO DE RE      ESTACAO DOS CASA,2599-GALPAO - 02       S.B. DO CAMPO                           09840000SP334700000201045996000095/AA   24012012038ABC                 2502201200000000010801350CC                                                                                                                                                                                                                                                                                                                                                                                                         000017
1007421057012COBR_CAUC_BIC  MAZAL COML INSUMOS PLASTICOS LTDA       010460372000154PLASTER INDUSTRIA E COMERCIO DE RE      ESTACAO DOS CASA,2599-GALPAO - 02       S.B. DO CAMPO                           09840000SP334700000301046003000096/AA   24012012038ABC                 2602201200000000010201275CC                                                                                                                                                                                                                                                                                                                                                                                                         000018
9000006                                                                                                                                                                                                                                                                                                                                                                                                                                                                                                                                                                                                                                                                                                               000019
