0REMESSANOTIFICACAO ELETRONICA        99999999999999BICBANCO                                AV. PAULISTA                            1048      12.ANDAR  BELA VISTA                    SAO PAULO                     01310100SP1121739360CORTINHAL                               COORDENADOR                             18102012                                                                                                                                                                                                                                                                                                                                                                                      000001
1007421053971COBR_CAUC_BIC  VIDA ALIMENTOS LTDA                     017159518000175DOMINGOS COSTA INDUSTRIAS ALIMENTI      PC LOUIS ENSCH, 160                     CONTAGEM                                32210050MG3837200001015011510005198001  17102012019BELO HORIZONTE      2411201200000000010036000CC                                                                                                                                                                                                                                                                                                                                                                                                         000002
1022421007720COBR_CAUC_BIC  JUMIL-JUSTINO DE MORAIS IRMAOS S/A      003752033000186INTER NEW MAQUINAS AGRICOLAS LTDA       AV DR ANTONIO ALVES PASSIG, 791         RIBEIRAO PRETO                          14092590SP383730000104418131125882E.01  15102012022RIBEIRAO PRETO      1211201200000000016000000CC                                                                                                                                                                                                                                                                                                                                                                                                         000003
1022421007720COBR_CAUC_BIC  JUMIL-JUSTINO DE MORAIS IRMAOS S/A      045236791003450COOPERCITRUS COOPERATIVA DE PRODUT      PRACA BARAO RIO BRANCO, 09              BEBEDOURO                               14700900SP383740000104418114126298E.01  17102012022RIBEIRAO PRETO      0111201200000000012300000CC                                                                                                                                                                                                                                                                                                                                                                                                         000004
9000003                                                                                                                                                                                                                                                                                                                                                                                                                                                                                                                                                                                                                                                                                                               000005
