0REMESSANOTIFICACAO ELETRONICA        99999999999999BICBANCO                                AV. PAULISTA                            1048      12.ANDAR  BELA VISTA                    SAO PAULO                     01310100SP1121739360CORTINHAL                               COORDENADOR                             15052014                                                                                                                                                                                                                                                                                                                                                                                      000001
1007421072259COBR_CAUC_COR  BOMBRIL S/A                             005139469000120DIN CENTRO OESTE LTDA                   AV WILSON TAVARES RIBEIRO 800           CONTAGEM                                32183680MG4754400001029158380057927001  25042014900BRADESCO S/A        1206201400000000010488370CC                                                                                                                                                                                                                                                                                                                                                                                                         000002
1007421056385COBR_CAUC_COR  TERRA NOVA TRADING S/A                  047410238001805EUROMOBILE INTERIORES S/A               RODOVIA SC 486-ANTONIO ,1001-KM 01      ITAJAI                                  88316001SC475450000100002134NF26428     14052014900BRADESCO S/A        2807201400000000018368851CC                                                                                                                                                                                                                                                                                                                                                                                                         000003
1003421013987COBR_CAUC_COR  SCIENTIFIC COM E IMPORTACAO LTDA        000029372000140GE HC DO BRASIL COM. SERV. EQUIP M      AV DAS NACOES UNIDAS,8501               SAO PAULO                               05425070SP4754600001001029611024        13052014900BRADESCO S/A        2805201400000000011012221CC                                                                                                                                                                                                                                                                                                                                                                                                         000004
9000003                                                                                                                                                                                                                                                                                                                                                                                                                                                                                                                                                                                                                                                                                                               000005
