0REMESSANOTIFICACAO ELETRONICA        99999999999999BICBANCO                                AV. PAULISTA                            1048      12.ANDAR  BELA VISTA                    SAO PAULO                     01310100SP1121739360CORTINHAL                               COORDENADOR                             17112011                                                                                                                                                                                                                                                                                                                                                                                      000001
1014420939021COBR_CAUC_BIC  EDITORA O DIA S/A                       033130543000182CASAS GUANABARA COMESTIVEIS LTDA        DA AGUA BRANCA,3400                     RIO DE JANEIRO                          21720161RJ3197400001023755780618914     15112011014RIO DE JANEIRO      3011201100000000010794304CC                                                                                                                                                                                                                                                                                                                                                                                                         000002
1024420934410COBR_CAUC_BIC  INTERCOOP INT SUIN MED NORTE MT LTD     004613751000487CRISTALFRIGO IND COM IMPORTACAO EX      AV DOS ANDRADAS ,2229-STA EFIGENIA      BELO HORIZONTE                          30120010MG31975000010194039768838       09112011019BELO HORIZONTE      1112201100000000010682153CC                                                                                                                                                                                                                                                                                                                                                                                                         000003
1038421011812COBR_CAUC_BIC  ENERGY COML IMPORT E EXPORT LTDA        009363567000105PREMIX BRASIL RESINAS                   ALAMEDA ARAGU,2044-CJ703A705TORRE2      SAO PAULO                               06455000SP319760000109473511706         16112011007PAULISTA            0912201100000000011412972CC                                                                                                                                                                                                                                                                                                                                                                                                         000004
1038421011812COBR_CAUC_BIC  ENERGY COML IMPORT E EXPORT LTDA        009363567000105PREMIX BRASIL RESINAS                   ALAMEDA ARAGU,2044-CJ703A705TORRE2      SAO PAULO                               06455000SP319760000209473529707         16112011007PAULISTA            0912201100000000011412972CC                                                                                                                                                                                                                                                                                                                                                                                                         000005
1038421011812COBR_CAUC_BIC  ENERGY COML IMPORT E EXPORT LTDA        009363567000105PREMIX BRASIL RESINAS                   ALAMEDA ARAGU,2044-CJ703A705TORRE2      SAO PAULO                               06455000SP319760000309473537708         16112011007PAULISTA            0912201100000000011633074CC                                                                                                                                                                                                                                                                                                                                                                                                         000006
1038421011812COBR_CAUC_BIC  ENERGY COML IMPORT E EXPORT LTDA        009363567000105PREMIX BRASIL RESINAS                   ALAMEDA ARAGU,2044-CJ703A705TORRE2      SAO PAULO                               06455000SP319760000409473545709         16112011007PAULISTA            0912201100000000011931785CC                                                                                                                                                                                                                                                                                                                                                                                                         000007
1007421032516COBR_CAUC_BIC  NITRIFLEX SP IND E COM DE BORRACHAS     051938702000151AGEL-ANEIS GAXETAS EQUIPAMENTOS LT      AV PIRAMBOIA, 1580                      BARUERI                                 06465060SP319770000100917728000773301   16112011007PAULISTA            3011201100000000010521673CC                                                                                                                                                                                                                                                                                                                                                                                                         000008
1044421010977COBR_CAUC_BIC  FEDCO INDUSTRIA E COMERCIO LTDA         006626253012400EMPREENDIMENTOS PAGUE MENOS S/A         R. FRANCISCO CORDEIRO                   FORTALEZA                               60310490CE319780000101370853015818/1.1  07112011003CENTRO              1503201200000000027525736CC                                                                                                                                                                                                                                                                                                                                                                                                         000009
9000005                                                                                                                                                                                                                                                                                                                                                                                                                                                                                                                                                                                                                                                                                                               000010
