0REMESSANOTIFICACAO ELETRONICA        99999999999999BICBANCO                                AV. PAULISTA                            1048      12.ANDAR  BELA VISTA                    SAO PAULO                     01310100SP1121739360CORTINHAL                               COORDENADOR                             10062014                                                                                                                                                                                                                                                                                                                                                                                      000001
1045421005424DIR_CREDIT     SAO LUCAS MEDICO HOSPITALAR LTDA        013360276000122UNIMED SERGIPE - COOP DE TRAB MEDICO    RUA SOCORRO 100_ SAO JOSE               ARACAJU                                 49015300SE4761700001                                                                                                                                          012587134           01052003000000852505/2003     21052014000404Contrato de prestação de serviços hospitalares aos beneficiários dos   planos de saúde operacionalizados pela contratante.                                                                                                                      013131370000100              000002
1008421002710DIR_CREDIT     OCS MIN E EMPREENDIMENTOS LTDA          034230979005418SUPERMIX CONCRETO S/A                   R PROF. JOSE VIEIRA DE MENDONçA, 1121   BELO HORIZONTE                          31310260MG4764200001                                                                                                                                          012577187           100120070000012817            22052014000404fornecimento de material produzido pela OCS-Mineração e EmpreendimentosLtda,a saber Brita 19mm,Brita 9,5mm e areia grossa de Brita,todos fornecidos e oferecidos em forma de tonelada.                                                          007323439000102              000003
1014421024990DIR_CREDIT     FLAVIO MOVEIS LTDA                      027406222000165DACASA FINANCEIRA S/A                   AV NOSSA SENHORA DA PENHA, 2035         VITORIA                                 29056245ES4765500001                                                                                                                                          012586461           010620070000023670S/NR        22052014000403recebíveis do cartão de crédito Private Label denominado Cartão        Palladium Móveis - DACASA.                                                                                                                                               005107922000116              000004
1029420932648DIR_CREDIT     PRATO FEITO ALIMENTACAO E SERVICOS      000350387000106A.T.C ASSOCIATED TOBACCO COMPANY BR LTDABR 471 KM 132 - DISTRITO INDUSTRIAL     SANTA CRUZ DO SUL                       96835642RS4766400001                                                                                                                                          012112289           201220010000000796S/N         17012013051902FornecimentO de refeições coletivos.                                                                                                                                                                                                            094161122000103              000005
1029420932648DIR_CREDIT     PRATO FEITO ALIMENTACAO E SERVICOS      095428231001421JTI KANNENBERG COM DE TABACOS DO BRASIL BR 471 KM 133,5                         SANTA CRUZ DO SUL                       96810971RS4766500001                                                                                                                                          012112289           210120070000000798S/N         17012013051902fornecimento de refeições coletivas.                                                                                                                                                                                                            094161122000103              000006
1029420932648DIR_CREDIT     PRATO FEITO ALIMENTACAO E SERVICOS      061064929004328DU PONT DO BRASIL S/A                   BR 471 KM 49                            SANTA CRUZ DO SUL                       96835640RS4766600001                                                                                                                                          012112289           230120070000000802S/N         17012013051902fornecimento de refeições coletivas.                                                                                                                                                                                                            094161122000103              000007
1029421016661DIR_CREDIT     PRATO FEITO ALIMENTACAO E SERVICOS      089086961000336DAKOTA CALCADOS LTDA                    RUA BARAO DO RIO BRANCO,101             SARANDI                                 99560000RS4766700001                                                                                                                                          012112289           020520000000008494029/SN      17012013051902Fornecimento de refeições coletivas.                                                                                                                                                                                                            094161122000103              000008
1008421002710DIR_CREDIT     OCS MIN E EMPREENDIMENTOS LTDA          034230979005418SUPERMIX CONCRETO S/A                   R PROF. JOSE VIEIRA DE MENDONçA, 1121   BELO HORIZONTE                          31310260MG4774400001                                                                                                                                          012595274           100120070000012817            29052014000404fornecimento de material produzido pela OCS-Mineração e EmpreendimentosLtda,a saber Brita 19mm,Brita 9,5mm e areia grossa de Brita,todos fornecidos e oferecidos em forma de tonelada.                                                          007323439000102              000009
1016420932350COBR_CAUC_BIC  PLASTICOS DO PARANA LTDA                017359233000188TECIDOS E ARM MIGUEL BARTOLOMEU S/      MUN COELHO JACINTO JUNIOR,0             CONTAGEM                                32150245MG47908000010452883120486/1     05062014019BELO HORIZONTE      2006201400000000011314295CC                                                                                                                                                                                                                                                                                                                                                                                                         000010
1048421000338COBR_CAUC_COR  FRIGOESTRELA S.A. EM RECUP JUDICIAL     003384037000159MASTROTTO BRASIL S/A                    ROD BR 101 KM 201, S/N                  CACHOEIRA                               44300000BA4790900001082659830112832601  06062014900BRADESCO S/A        0407201400000000032554034CC                                                                                                                                                                                                                                                                                                                                                                                                         000011
1007421065309COBR_CAUC_BIC  OCEANO IND.GRAFICA E EDITORA LTDA       056529217000148COM. APARAS PRIMOS DE RIO CLARO LT      RODOVIA SP 191 KM 63,191-KM 63          RIO CLARO                               13500970SP47910000010299802463708-B     13052014021CAMPINAS            1507201400000000015000000CC                                                                                                                                                                                                                                                                                                                                                                                                         000012
1021421017050COBR_CAUC_BIC  STAR DISTR PROD FARMACEUTICOS LTDA      054375647003738DROGAL FARMACEUTICA LTDA                AVENIDA DR.CASSIO PASCHOAL PADOVANI,1910PIRACICABA                              13420355SP4791100001000020850000337001  03062014021CAMPINAS            0107201400000000012250526CC                                                                                                                                                                                                                                                                                                                                                                                                         000013
1021421017050COBR_CAUC_BIC  STAR DISTR PROD FARMACEUTICOS LTDA      054375647003738DROGAL FARMACEUTICA LTDA                AVENIDA DR.CASSIO PASCHOAL PADOVANI,1910PIRACICABA                              13420355SP4791100002000020930000337101  03062014021CAMPINAS            0107201400000000010739748CC                                                                                                                                                                                                                                                                                                                                                                                                         000014
1021421017050COBR_CAUC_BIC  STAR DISTR PROD FARMACEUTICOS LTDA      061549259000180DROGARIA ONOFRE LTDA                    PRACA DA SE , 170                       SAO PAULO                               01001000SP4791200001000021310000337501  03062014007PAULISTA            1107201400000000013124948CC                                                                                                                                                                                                                                                                                                                                                                                                         000015
1021421017050COBR_CAUC_BIC  STAR DISTR PROD FARMACEUTICOS LTDA      061585865000151RAIA DROGASIL S/A                       AVENIDA CORIFEU DE AZEVEDO MARQUES, 3097SAO PAULO                               05339000SP4791300001000022710000338901  06062014007PAULISTA            2006201400000000024136341CC                                                                                                                                                                                                                                                                                                                                                                                                         000016
1021421017050COBR_CAUC_BIC  STAR DISTR PROD FARMACEUTICOS LTDA      061585865000151RAIA DROGASIL S/A                       AVENIDA CORIFEU DE AZEVEDO MARQUES, 3097SAO PAULO                               05339000SP4791300002000022800000339001  06062014007PAULISTA            2006201400000000072559109CC                                                                                                                                                                                                                                                                                                                                                                                                         000017
1008421030137COBR_CAUC_COR  CECOMIL COMERCIO E SERVICOS LTDA        007273592000164IRMANDADE BENEF DA SANTA CASA DA M      R BARAO DO RIO BRANCO , 20              FORTALEZA                               60025060CE47924000010001991901P76334    21052014900BRADESCO S/A        2006201400000000000110300CC                                                                                                                                                                                                                                                                                                                                                                                                         000018
1008421030137COBR_CAUC_COR  CECOMIL COMERCIO E SERVICOS LTDA        007273592000164IRMANDADE BENEF DA SANTA CASA DA M      R BARAO DO RIO BRANCO , 20              FORTALEZA                               60025060CE47924000020001992701P76335    21052014900BRADESCO S/A        2006201400000000000110300CC                                                                                                                                                                                                                                                                                                                                                                                                         000019
1008421030137COBR_CAUC_COR  CECOMIL COMERCIO E SERVICOS LTDA        007273592000164IRMANDADE BENEF DA SANTA CASA DA M      R BARAO DO RIO BRANCO , 20              FORTALEZA                               60025060CE47924000030001993501P76336    21052014900BRADESCO S/A        2006201400000000000110300CC                                                                                                                                                                                                                                                                                                                                                                                                         000020
1008421030137COBR_CAUC_COR  CECOMIL COMERCIO E SERVICOS LTDA        007273592000164IRMANDADE BENEF DA SANTA CASA DA M      R BARAO DO RIO BRANCO , 20              FORTALEZA                               60025060CE47924000040001994301P76337    21052014900BRADESCO S/A        2006201400000000000110300CC                                                                                                                                                                                                                                                                                                                                                                                                         000021
1008421030137COBR_CAUC_COR  CECOMIL COMERCIO E SERVICOS LTDA        007273592000164IRMANDADE BENEF DA SANTA CASA DA M      R BARAO DO RIO BRANCO , 20              FORTALEZA                               60025060CE47924000050001995101P76338    21052014900BRADESCO S/A        2006201400000000000110300CC                                                                                                                                                                                                                                                                                                                                                                                                         000022
1008421030137COBR_CAUC_COR  CECOMIL COMERCIO E SERVICOS LTDA        007273592000164IRMANDADE BENEF DA SANTA CASA DA M      R BARAO DO RIO BRANCO , 20              FORTALEZA                               60025060CE47924000060001996001P76339    21052014900BRADESCO S/A        2006201400000000000110300CC                                                                                                                                                                                                                                                                                                                                                                                                         000023
1008421030137COBR_CAUC_COR  CECOMIL COMERCIO E SERVICOS LTDA        023477326000100J T MAGALHAES AGUIAR ME                 RUA ORIANO MENDES , 876                 SOBRAL                                  62010370CE47925000010001522101P7520203  31032014900BRADESCO S/A        3006201400000000000343334CC                                                                                                                                                                                                                                                                                                                                                                                                         000024
1008421030137COBR_CAUC_COR  CECOMIL COMERCIO E SERVICOS LTDA        023477326000100J T MAGALHAES AGUIAR ME                 RUA ORIANO MENDES , 876                 SOBRAL                                  62010370CE47925000020001525501P7520303  31032014900BRADESCO S/A        3006201400000000000343334CC                                                                                                                                                                                                                                                                                                                                                                                                         000025
1008421030137COBR_CAUC_COR  CECOMIL COMERCIO E SERVICOS LTDA        003365404000177M DE JESUS MARANHAO RODRIGUES - ME      RUA FLORIANO PEIXOTO, 264               SOBRAL                                  62010010CE47926000010001690101P7555502  16042014900BRADESCO S/A        1606201400000000000350000CC                                                                                                                                                                                                                                                                                                                                                                                                         000026
1008421030137COBR_CAUC_COR  CECOMIL COMERCIO E SERVICOS LTDA        003365404000177M DE JESUS MARANHAO RODRIGUES - ME      RUA FLORIANO PEIXOTO, 264               SOBRAL                                  62010010CE47926000020001691001P7555503  16042014900BRADESCO S/A        1507201400000000000350000CC                                                                                                                                                                                                                                                                                                                                                                                                         000027
1008421030137COBR_CAUC_COR  CECOMIL COMERCIO E SERVICOS LTDA        011744455000138INSTITUTO PEDAGOGICO GURI LTDA          RUA CONEGO DE CASTRO , 1780             FORTALEZA                               60730000CE47927000010001868801P7623101  16052014900BRADESCO S/A        1606201400000000000210000CC                                                                                                                                                                                                                                                                                                                                                                                                         000028
1008421030137COBR_CAUC_COR  CECOMIL COMERCIO E SERVICOS LTDA        011744455000138INSTITUTO PEDAGOGICO GURI LTDA          RUA CONEGO DE CASTRO , 1780             FORTALEZA                               60730000CE47927000020001869601P7623102  16052014900BRADESCO S/A        1507201400000000000210000CC                                                                                                                                                                                                                                                                                                                                                                                                         000029
1008421030137COBR_CAUC_COR  CECOMIL COMERCIO E SERVICOS LTDA        011744455000138INSTITUTO PEDAGOGICO GURI LTDA          RUA CONEGO DE CASTRO , 1780             FORTALEZA                               60730000CE47927000030001870001P7623103  16052014900BRADESCO S/A        1408201400000000000210000CC                                                                                                                                                                                                                                                                                                                                                                                                         000030
1008421030137COBR_CAUC_COR  CECOMIL COMERCIO E SERVICOS LTDA        011744455000138INSTITUTO PEDAGOGICO GURI LTDA          RUA CONEGO DE CASTRO , 1780             FORTALEZA                               60730000CE47927000040001871801P7623104  16052014900BRADESCO S/A        1509201400000000000210000CC                                                                                                                                                                                                                                                                                                                                                                                                         000031
1008421030137COBR_CAUC_COR  CECOMIL COMERCIO E SERVICOS LTDA        001583150000138GERARDO S DISTRIBUIDORA LTDA            RUA PORTO DAS ROSAS , 1150              FORTALEZA                               60534160CE47928000010001411901P7494303  17032014900BRADESCO S/A        1606201400000000000149875CC                                                                                                                                                                                                                                                                                                                                                                                                         000032
1008421030137COBR_CAUC_COR  CECOMIL COMERCIO E SERVICOS LTDA        001583150000138GERARDO S DISTRIBUIDORA LTDA            RUA PORTO DAS ROSAS , 1150              FORTALEZA                               60534160CE47928000020001412701P7494304  17032014900BRADESCO S/A        1507201400000000000149875CC                                                                                                                                                                                                                                                                                                                                                                                                         000033
1008421030137COBR_CAUC_COR  CECOMIL COMERCIO E SERVICOS LTDA        001583150000138GERARDO S DISTRIBUIDORA LTDA            RUA PORTO DAS ROSAS , 1150              FORTALEZA                               60534160CE47928000030001696101P7558302  16042014900BRADESCO S/A        1606201400000000000109900CC                                                                                                                                                                                                                                                                                                                                                                                                         000034
1008421030137COBR_CAUC_COR  CECOMIL COMERCIO E SERVICOS LTDA        001583150000138GERARDO S DISTRIBUIDORA LTDA            RUA PORTO DAS ROSAS , 1150              FORTALEZA                               60534160CE47928000040001697901P7558303  16042014900BRADESCO S/A        1507201400000000000109900CC                                                                                                                                                                                                                                                                                                                                                                                                         000035
1008421030137COBR_CAUC_COR  CECOMIL COMERCIO E SERVICOS LTDA        001583150000138GERARDO S DISTRIBUIDORA LTDA            RUA PORTO DAS ROSAS , 1150              FORTALEZA                               60534160CE47928000050001698701P7558304  16042014900BRADESCO S/A        1408201400000000000109900CC                                                                                                                                                                                                                                                                                                                                                                                                         000036
1008421030137COBR_CAUC_COR  CECOMIL COMERCIO E SERVICOS LTDA        001583150000138GERARDO S DISTRIBUIDORA LTDA            RUA PORTO DAS ROSAS , 1150              FORTALEZA                               60534160CE47928000060001700201P7560102  17042014900BRADESCO S/A        1606201400000000000027114CC                                                                                                                                                                                                                                                                                                                                                                                                         000037
1008421030137COBR_CAUC_COR  CECOMIL COMERCIO E SERVICOS LTDA        001583150000138GERARDO S DISTRIBUIDORA LTDA            RUA PORTO DAS ROSAS , 1150              FORTALEZA                               60534160CE47928000070001701101P7560103  17042014900BRADESCO S/A        1607201400000000000027115CC                                                                                                                                                                                                                                                                                                                                                                                                         000038
1008421030137COBR_CAUC_COR  CECOMIL COMERCIO E SERVICOS LTDA        001583150000138GERARDO S DISTRIBUIDORA LTDA            RUA PORTO DAS ROSAS , 1150              FORTALEZA                               60534160CE47928000080001895501P7625001  19052014900BRADESCO S/A        1806201400000000000090440CC                                                                                                                                                                                                                                                                                                                                                                                                         000039
1008421030137COBR_CAUC_COR  CECOMIL COMERCIO E SERVICOS LTDA        001583150000138GERARDO S DISTRIBUIDORA LTDA            RUA PORTO DAS ROSAS , 1150              FORTALEZA                               60534160CE47928000090001896301P7625002  19052014900BRADESCO S/A        1807201400000000000090440CC                                                                                                                                                                                                                                                                                                                                                                                                         000040
1008421030137COBR_CAUC_COR  CECOMIL COMERCIO E SERVICOS LTDA        001583150000138GERARDO S DISTRIBUIDORA LTDA            RUA PORTO DAS ROSAS , 1150              FORTALEZA                               60534160CE47928000100001897101P7625003  19052014900BRADESCO S/A        1808201400000000000090440CC                                                                                                                                                                                                                                                                                                                                                                                                         000041
1008421030137COBR_CAUC_COR  CECOMIL COMERCIO E SERVICOS LTDA        001583150000138GERARDO S DISTRIBUIDORA LTDA            RUA PORTO DAS ROSAS , 1150              FORTALEZA                               60534160CE47928000110001898001P7625101  19052014900BRADESCO S/A        1806201400000000000053091CC                                                                                                                                                                                                                                                                                                                                                                                                         000042
1008421030137COBR_CAUC_COR  CECOMIL COMERCIO E SERVICOS LTDA        001583150000138GERARDO S DISTRIBUIDORA LTDA            RUA PORTO DAS ROSAS , 1150              FORTALEZA                               60534160CE47928000120001899801P7625102  19052014900BRADESCO S/A        1807201400000000000053091CC                                                                                                                                                                                                                                                                                                                                                                                                         000043
1008421030137COBR_CAUC_COR  CECOMIL COMERCIO E SERVICOS LTDA        001583150000138GERARDO S DISTRIBUIDORA LTDA            RUA PORTO DAS ROSAS , 1150              FORTALEZA                               60534160CE47928000130001900501P7625103  19052014900BRADESCO S/A        1808201400000000000053090CC                                                                                                                                                                                                                                                                                                                                                                                                         000044
1008421030137COBR_CAUC_COR  CECOMIL COMERCIO E SERVICOS LTDA        010237888000134CDMAX SOLUTIONS COMERCIAL DE INFOR      RUA JOSE AVELINO, 580                   FORTALEZA                               60060220CE47929000010001823801P7587602  30042014900BRADESCO S/A        3006201400000000000593010CC                                                                                                                                                                                                                                                                                                                                                                                                         000045
1008421030137COBR_CAUC_COR  CECOMIL COMERCIO E SERVICOS LTDA        010237888000134CDMAX SOLUTIONS COMERCIAL DE INFOR      RUA JOSE AVELINO, 580                   FORTALEZA                               60060220CE47929000020001824601P7587603  30042014900BRADESCO S/A        2907201400000000000593010CC                                                                                                                                                                                                                                                                                                                                                                                                         000046
1008421030137COBR_CAUC_COR  CECOMIL COMERCIO E SERVICOS LTDA        010237888000134CDMAX SOLUTIONS COMERCIAL DE INFOR      RUA JOSE AVELINO, 580                   FORTALEZA                               60060220CE47929000030001826201P7587802  30042014900BRADESCO S/A        3006201400000000000051760CC                                                                                                                                                                                                                                                                                                                                                                                                         000047
1008421030137COBR_CAUC_COR  CECOMIL COMERCIO E SERVICOS LTDA        010237888000134CDMAX SOLUTIONS COMERCIAL DE INFOR      RUA JOSE AVELINO, 580                   FORTALEZA                               60060220CE47929000040001827101P7587803  30042014900BRADESCO S/A        2907201400000000000051760CC                                                                                                                                                                                                                                                                                                                                                                                                         000048
1008421030137COBR_CAUC_COR  CECOMIL COMERCIO E SERVICOS LTDA        007240328000124EDUCADORA 7 DE SETEMBRO LTDA            AVENIDA IMPERADOR, 1330                 FORTALEZA                               60811020CE47930000010001472101P7503403  21032014900BRADESCO S/A        1906201400000000000345000CC                                                                                                                                                                                                                                                                                                                                                                                                         000049
1008421030137COBR_CAUC_COR  CECOMIL COMERCIO E SERVICOS LTDA        007240328000124EDUCADORA 7 DE SETEMBRO LTDA            AVENIDA IMPERADOR, 1330                 FORTALEZA                               60811020CE47930000020001476301P7503603  21032014900BRADESCO S/A        1906201400000000000345000CC                                                                                                                                                                                                                                                                                                                                                                                                         000050
1008421030137COBR_CAUC_COR  CECOMIL COMERCIO E SERVICOS LTDA        007240328000124EDUCADORA 7 DE SETEMBRO LTDA            AVENIDA IMPERADOR, 1330                 FORTALEZA                               60811020CE47930000030001744401P7578002  28042014900BRADESCO S/A        2706201400000000000076600CC                                                                                                                                                                                                                                                                                                                                                                                                         000051
1008421030137COBR_CAUC_COR  CECOMIL COMERCIO E SERVICOS LTDA        007240328000124EDUCADORA 7 DE SETEMBRO LTDA            AVENIDA IMPERADOR, 1330                 FORTALEZA                               60811020CE47930000040001948001P7629901  20052014900BRADESCO S/A        1906201400000000000193200CC                                                                                                                                                                                                                                                                                                                                                                                                         000052
1008421030137COBR_CAUC_COR  CECOMIL COMERCIO E SERVICOS LTDA        007240328000124EDUCADORA 7 DE SETEMBRO LTDA            AVENIDA IMPERADOR, 1330                 FORTALEZA                               60811020CE47930000050001949801P7629902  20052014900BRADESCO S/A        2107201400000000000193200CC                                                                                                                                                                                                                                                                                                                                                                                                         000053
1008421030137COBR_CAUC_COR  CECOMIL COMERCIO E SERVICOS LTDA        007240328000124EDUCADORA 7 DE SETEMBRO LTDA            AVENIDA IMPERADOR, 1330                 FORTALEZA                               60811020CE47930000060001950101P7629903  20052014900BRADESCO S/A        1808201400000000000193200CC                                                                                                                                                                                                                                                                                                                                                                                                         000054
1008421030137COBR_CAUC_COR  CECOMIL COMERCIO E SERVICOS LTDA        003539462000250DISTRIBUIDORA DE ALIMENTOS ALBUQUE      RUA CACILDA BECKER , 270                FORTALEZA                               60525570CE47931000010001392901P7490803  14032014900BRADESCO S/A        1206201400000000000057538CC                                                                                                                                                                                                                                                                                                                                                                                                         000055
1008421030137COBR_CAUC_COR  CECOMIL COMERCIO E SERVICOS LTDA        003539462000250DISTRIBUIDORA DE ALIMENTOS ALBUQUE      RUA CACILDA BECKER , 270                FORTALEZA                               60525570CE47931000020001395301P7490903  14032014900BRADESCO S/A        1206201400000000000028769CC                                                                                                                                                                                                                                                                                                                                                                                                         000056
1008421030137COBR_CAUC_COR  CECOMIL COMERCIO E SERVICOS LTDA        003539462000250DISTRIBUIDORA DE ALIMENTOS ALBUQUE      RUA CACILDA BECKER , 270                FORTALEZA                               60525570CE47931000030001503401P7506903  24032014900BRADESCO S/A        2306201400000000000028956CC                                                                                                                                                                                                                                                                                                                                                                                                         000057
1008421030137COBR_CAUC_COR  CECOMIL COMERCIO E SERVICOS LTDA        003539462000250DISTRIBUIDORA DE ALIMENTOS ALBUQUE      RUA CACILDA BECKER , 270                FORTALEZA                               60525570CE47931000040001709601P7559802  17042014900BRADESCO S/A        1606201400000000000026317CC                                                                                                                                                                                                                                                                                                                                                                                                         000058
1008421030137COBR_CAUC_COR  CECOMIL COMERCIO E SERVICOS LTDA        003539462000250DISTRIBUIDORA DE ALIMENTOS ALBUQUE      RUA CACILDA BECKER , 270                FORTALEZA                               60525570CE47931000050001710001P7559803  17042014900BRADESCO S/A        1607201400000000000026316CC                                                                                                                                                                                                                                                                                                                                                                                                         000059
1008421030137COBR_CAUC_COR  CECOMIL COMERCIO E SERVICOS LTDA        003539462000250DISTRIBUIDORA DE ALIMENTOS ALBUQUE      RUA CACILDA BECKER , 270                FORTALEZA                               60525570CE47931000060001706101P7559902  17042014900BRADESCO S/A        1606201400000000000026317CC                                                                                                                                                                                                                                                                                                                                                                                                         000060
1008421030137COBR_CAUC_COR  CECOMIL COMERCIO E SERVICOS LTDA        003539462000250DISTRIBUIDORA DE ALIMENTOS ALBUQUE      RUA CACILDA BECKER , 270                FORTALEZA                               60525570CE47931000070001707001P7559903  17042014900BRADESCO S/A        1607201400000000000026316CC                                                                                                                                                                                                                                                                                                                                                                                                         000061
1008421030137COBR_CAUC_COR  CECOMIL COMERCIO E SERVICOS LTDA        003539462000250DISTRIBUIDORA DE ALIMENTOS ALBUQUE      RUA CACILDA BECKER , 270                FORTALEZA                               60525570CE47931000080001854801P7622301  16052014900BRADESCO S/A        1606201400000000000145792CC                                                                                                                                                                                                                                                                                                                                                                                                         000062
1008421030137COBR_CAUC_COR  CECOMIL COMERCIO E SERVICOS LTDA        003539462000250DISTRIBUIDORA DE ALIMENTOS ALBUQUE      RUA CACILDA BECKER , 270                FORTALEZA                               60525570CE47931000090001855601P7622302  16052014900BRADESCO S/A        1507201400000000000145792CC                                                                                                                                                                                                                                                                                                                                                                                                         000063
1008421030137COBR_CAUC_COR  CECOMIL COMERCIO E SERVICOS LTDA        003539462000250DISTRIBUIDORA DE ALIMENTOS ALBUQUE      RUA CACILDA BECKER , 270                FORTALEZA                               60525570CE47931000100001856401P7622303  16052014900BRADESCO S/A        1408201400000000000145792CC                                                                                                                                                                                                                                                                                                                                                                                                         000064
1008421030137COBR_CAUC_COR  CECOMIL COMERCIO E SERVICOS LTDA        003539462000250DISTRIBUIDORA DE ALIMENTOS ALBUQUE      RUA CACILDA BECKER , 270                FORTALEZA                               60525570CE47931000110001901301P7625201  19052014900BRADESCO S/A        1806201400000000000060293CC                                                                                                                                                                                                                                                                                                                                                                                                         000065
1008421030137COBR_CAUC_COR  CECOMIL COMERCIO E SERVICOS LTDA        003539462000250DISTRIBUIDORA DE ALIMENTOS ALBUQUE      RUA CACILDA BECKER , 270                FORTALEZA                               60525570CE47931000120001902101P7625202  19052014900BRADESCO S/A        1807201400000000000060293CC                                                                                                                                                                                                                                                                                                                                                                                                         000066
1008421030137COBR_CAUC_COR  CECOMIL COMERCIO E SERVICOS LTDA        003539462000250DISTRIBUIDORA DE ALIMENTOS ALBUQUE      RUA CACILDA BECKER , 270                FORTALEZA                               60525570CE47931000130001903001P7625203  19052014900BRADESCO S/A        1808201400000000000060294CC                                                                                                                                                                                                                                                                                                                                                                                                         000067
1008421030137COBR_CAUC_COR  CECOMIL COMERCIO E SERVICOS LTDA        003539462000250DISTRIBUIDORA DE ALIMENTOS ALBUQUE      RUA CACILDA BECKER , 270                FORTALEZA                               60525570CE47931000140002061501P7639801  23052014900BRADESCO S/A        2306201400000000000197201CC                                                                                                                                                                                                                                                                                                                                                                                                         000068
1008421030137COBR_CAUC_COR  CECOMIL COMERCIO E SERVICOS LTDA        003539462000250DISTRIBUIDORA DE ALIMENTOS ALBUQUE      RUA CACILDA BECKER , 270                FORTALEZA                               60525570CE47931000150002062301P7639802  23052014900BRADESCO S/A        2207201400000000000197201CC                                                                                                                                                                                                                                                                                                                                                                                                         000069
1008421030137COBR_CAUC_COR  CECOMIL COMERCIO E SERVICOS LTDA        003539462000250DISTRIBUIDORA DE ALIMENTOS ALBUQUE      RUA CACILDA BECKER , 270                FORTALEZA                               60525570CE47931000160002063101P7639803  23052014900BRADESCO S/A        2108201400000000000197202CC                                                                                                                                                                                                                                                                                                                                                                                                         000070
1008421030137COBR_CAUC_COR  CECOMIL COMERCIO E SERVICOS LTDA        007220769000164G & A SERV E COM DE SUPRIM PARA ES      RUA MINISTRO JOAQUIM BASTOS, 744        FORTALEZA                               60415040CE47932000010001489501P7504103  21032014900BRADESCO S/A        1906201400000000000046366CC                                                                                                                                                                                                                                                                                                                                                                                                         000071
1008421030137COBR_CAUC_COR  CECOMIL COMERCIO E SERVICOS LTDA        007220769000164G & A SERV E COM DE SUPRIM PARA ES      RUA MINISTRO JOAQUIM BASTOS, 744        FORTALEZA                               60415040CE47932000020001496801P7504203  21032014900BRADESCO S/A        1906201400000000000053500CC                                                                                                                                                                                                                                                                                                                                                                                                         000072
1008421030137COBR_CAUC_COR  CECOMIL COMERCIO E SERVICOS LTDA        007220769000164G & A SERV E COM DE SUPRIM PARA ES      RUA MINISTRO JOAQUIM BASTOS, 744        FORTALEZA                               60415040CE47932000030001493301P7504303  21032014900BRADESCO S/A        1906201400000000000053500CC                                                                                                                                                                                                                                                                                                                                                                                                         000073
1008421030137COBR_CAUC_COR  CECOMIL COMERCIO E SERVICOS LTDA        007220769000164G & A SERV E COM DE SUPRIM PARA ES      RUA MINISTRO JOAQUIM BASTOS, 744        FORTALEZA                               60415040CE47932000040001757601P7579502  28042014900BRADESCO S/A        2706201400000000000098400CC                                                                                                                                                                                                                                                                                                                                                                                                         000074
1008421030137COBR_CAUC_COR  CECOMIL COMERCIO E SERVICOS LTDA        007224991000135NAZARIA DISTRIBUIDORA DE PRODUTOS       AV BR 116,  3569 KM 13                  FORTALEZA                               60842395CE47933000010001736301P7577602  28042014900BRADESCO S/A        2706201400000000000086138CC                                                                                                                                                                                                                                                                                                                                                                                                         000075
1008421030137COBR_CAUC_COR  CECOMIL COMERCIO E SERVICOS LTDA        007224991000135NAZARIA DISTRIBUIDORA DE PRODUTOS       AV BR 116,  3569 KM 13                  FORTALEZA                               60842395CE47933000020001737101P7577603  28042014900BRADESCO S/A        2807201400000000000086138CC                                                                                                                                                                                                                                                                                                                                                                                                         000076
1008421030137COBR_CAUC_COR  CECOMIL COMERCIO E SERVICOS LTDA        007224991000135NAZARIA DISTRIBUIDORA DE PRODUTOS       AV BR 116,  3569 KM 13                  FORTALEZA                               60842395CE47933000030001738001P7577604  28042014900BRADESCO S/A        2608201400000000000086139CC                                                                                                                                                                                                                                                                                                                                                                                                         000077
1008421030137COBR_CAUC_COR  CECOMIL COMERCIO E SERVICOS LTDA        002773366000129F L VARIEDADES LTDA                     RUA PADRE FRANCISCO ROSA , 1327         NOVA RUSSAS                             62200000CE47934000010001557301P7522703  01042014900BRADESCO S/A        3006201400000000000075550CC                                                                                                                                                                                                                                                                                                                                                                                                         000078
1008421030137COBR_CAUC_COR  CECOMIL COMERCIO E SERVICOS LTDA        002773366000129F L VARIEDADES LTDA                     RUA PADRE FRANCISCO ROSA , 1327         NOVA RUSSAS                             62200000CE47934000020001904801P7625301  19052014900BRADESCO S/A        1806201400000000000061353CC                                                                                                                                                                                                                                                                                                                                                                                                         000079
1008421030137COBR_CAUC_COR  CECOMIL COMERCIO E SERVICOS LTDA        002773366000129F L VARIEDADES LTDA                     RUA PADRE FRANCISCO ROSA , 1327         NOVA RUSSAS                             62200000CE47934000030001905601P7625302  19052014900BRADESCO S/A        1807201400000000000061353CC                                                                                                                                                                                                                                                                                                                                                                                                         000080
1008421030137COBR_CAUC_COR  CECOMIL COMERCIO E SERVICOS LTDA        002773366000129F L VARIEDADES LTDA                     RUA PADRE FRANCISCO ROSA , 1327         NOVA RUSSAS                             62200000CE47934000040001906401P7625303  19052014900BRADESCO S/A        1808201400000000000061352CC                                                                                                                                                                                                                                                                                                                                                                                                         000081
1008421030137COBR_CAUC_COR  CECOMIL COMERCIO E SERVICOS LTDA        023487374000189MULTGRAFH GRAFICA DIGITAL E SERVIC      RUA PADRE ROMA, 893                     FORTALEZA                               60040360CE47935000010001214101P7460404  24022014900BRADESCO S/A        2306201400000000000035906CC                                                                                                                                                                                                                                                                                                                                                                                                         000082
1008421030137COBR_CAUC_COR  CECOMIL COMERCIO E SERVICOS LTDA        023487374000189MULTGRAFH GRAFICA DIGITAL E SERVIC      RUA PADRE ROMA, 893                     FORTALEZA                               60040360CE47935000020001462301P7502403  21032014900BRADESCO S/A        1906201400000000000054500CC                                                                                                                                                                                                                                                                                                                                                                                                         000083
1008421030137COBR_CAUC_COR  CECOMIL COMERCIO E SERVICOS LTDA        023487374000189MULTGRAFH GRAFICA DIGITAL E SERVIC      RUA PADRE ROMA, 893                     FORTALEZA                               60040360CE47935000030001730401P7574202  25042014900BRADESCO S/A        2406201400000000000020000CC                                                                                                                                                                                                                                                                                                                                                                                                         000084
1008421030137COBR_CAUC_COR  CECOMIL COMERCIO E SERVICOS LTDA        023487374000189MULTGRAFH GRAFICA DIGITAL E SERVIC      RUA PADRE ROMA, 893                     FORTALEZA                               60040360CE47935000040001731201P7574203  25042014900BRADESCO S/A        2407201400000000000020000CC                                                                                                                                                                                                                                                                                                                                                                                                         000085
1008421030137COBR_CAUC_COR  CECOMIL COMERCIO E SERVICOS LTDA        023487374000189MULTGRAFH GRAFICA DIGITAL E SERVIC      RUA PADRE ROMA, 893                     FORTALEZA                               60040360CE47935000050001732101P7574204  25042014900BRADESCO S/A        2508201400000000000020000CC                                                                                                                                                                                                                                                                                                                                                                                                         000086
1008421030137COBR_CAUC_COR  CECOMIL COMERCIO E SERVICOS LTDA        023487374000189MULTGRAFH GRAFICA DIGITAL E SERVIC      RUA PADRE ROMA, 893                     FORTALEZA                               60040360CE47935000060001944701P7629501  20052014900BRADESCO S/A        1906201400000000000036667CC                                                                                                                                                                                                                                                                                                                                                                                                         000087
1008421030137COBR_CAUC_COR  CECOMIL COMERCIO E SERVICOS LTDA        023487374000189MULTGRAFH GRAFICA DIGITAL E SERVIC      RUA PADRE ROMA, 893                     FORTALEZA                               60040360CE47935000070001945501P7629502  20052014900BRADESCO S/A        2107201400000000000036667CC                                                                                                                                                                                                                                                                                                                                                                                                         000088
1008421030137COBR_CAUC_COR  CECOMIL COMERCIO E SERVICOS LTDA        023487374000189MULTGRAFH GRAFICA DIGITAL E SERVIC      RUA PADRE ROMA, 893                     FORTALEZA                               60040360CE47935000080001946301P7629503  20052014900BRADESCO S/A        1808201400000000000036666CC                                                                                                                                                                                                                                                                                                                                                                                                         000089
1008421030137COBR_CAUC_COR  CECOMIL COMERCIO E SERVICOS LTDA        013931743000127L BARRETO MAIA - ME                     ROD DOUTOR MENDEL STEINBRUCH, SN        MARACANAU                               61925660CE47936000010002006201P7634501  21052014900BRADESCO S/A        1906201400000000000068020CC                                                                                                                                                                                                                                                                                                                                                                                                         000090
1008421030137COBR_CAUC_COR  CECOMIL COMERCIO E SERVICOS LTDA        013931743000127L BARRETO MAIA - ME                     ROD DOUTOR MENDEL STEINBRUCH, SN        MARACANAU                               61925660CE47936000020002007101P7634502  21052014900BRADESCO S/A        2107201400000000000068020CC                                                                                                                                                                                                                                                                                                                                                                                                         000091
1008421030137COBR_CAUC_COR  CECOMIL COMERCIO E SERVICOS LTDA        013931743000127L BARRETO MAIA - ME                     ROD DOUTOR MENDEL STEINBRUCH, SN        MARACANAU                               61925660CE47936000030002008901P7634503  21052014900BRADESCO S/A        1808201400000000000068020CC                                                                                                                                                                                                                                                                                                                                                                                                         000092
1008421030137COBR_CAUC_COR  CECOMIL COMERCIO E SERVICOS LTDA        013931743000127L BARRETO MAIA - ME                     ROD DOUTOR MENDEL STEINBRUCH, SN        MARACANAU                               61925660CE47936000040002009701P7634504  21052014900BRADESCO S/A        1709201400000000000068020CC                                                                                                                                                                                                                                                                                                                                                                                                         000093
1008421030137COBR_CAUC_COR  CECOMIL COMERCIO E SERVICOS LTDA        008017658000118DIVETRO IND E COM DE REVEST VIDROS      ROD BR 116  N., 5871 KM 42              HORIZONTE                               62880000CE47937000010001888201P7624801  19052014900BRADESCO S/A        1806201400000000000069975CC                                                                                                                                                                                                                                                                                                                                                                                                         000094
1008421030137COBR_CAUC_COR  CECOMIL COMERCIO E SERVICOS LTDA        008017658000118DIVETRO IND E COM DE REVEST VIDROS      ROD BR 116  N., 5871 KM 42              HORIZONTE                               62880000CE47937000020001889101P7624802  19052014900BRADESCO S/A        1807201400000000000069975CC                                                                                                                                                                                                                                                                                                                                                                                                         000095
1008421030137COBR_CAUC_COR  CECOMIL COMERCIO E SERVICOS LTDA        008017658000118DIVETRO IND E COM DE REVEST VIDROS      ROD BR 116  N., 5871 KM 42              HORIZONTE                               62880000CE47937000030001890401P7624803  19052014900BRADESCO S/A        1808201400000000000069975CC                                                                                                                                                                                                                                                                                                                                                                                                         000096
1008421030137COBR_CAUC_COR  CECOMIL COMERCIO E SERVICOS LTDA        008017658000118DIVETRO IND E COM DE REVEST VIDROS      ROD BR 116  N., 5871 KM 42              HORIZONTE                               62880000CE47937000040001891201P7624804  19052014900BRADESCO S/A        1609201400000000000069975CC                                                                                                                                                                                                                                                                                                                                                                                                         000097
1008421030137COBR_CAUC_COR  CECOMIL COMERCIO E SERVICOS LTDA        000346450000130SILVANIA AMARO ALVES - ME               AV L , 870                              FORTALEZA                               60750110CE47938000010001879301P7623701  19052014900BRADESCO S/A        1806201400000000000088828CC                                                                                                                                                                                                                                                                                                                                                                                                         000098
1008421030137COBR_CAUC_COR  CECOMIL COMERCIO E SERVICOS LTDA        000346450000130SILVANIA AMARO ALVES - ME               AV L , 870                              FORTALEZA                               60750110CE47938000020001880701P7623702  19052014900BRADESCO S/A        1807201400000000000088828CC                                                                                                                                                                                                                                                                                                                                                                                                         000099
1008421030137COBR_CAUC_COR  CECOMIL COMERCIO E SERVICOS LTDA        000346450000130SILVANIA AMARO ALVES - ME               AV L , 870                              FORTALEZA                               60750110CE47938000030001881501P7623703  19052014900BRADESCO S/A        1808201400000000000088828CC                                                                                                                                                                                                                                                                                                                                                                                                         000100
1008421030137COBR_CAUC_COR  CECOMIL COMERCIO E SERVICOS LTDA        000346450000130SILVANIA AMARO ALVES - ME               AV L , 870                              FORTALEZA                               60750110CE47938000040001998601P76341    21052014900BRADESCO S/A        2006201400000000000016900CC                                                                                                                                                                                                                                                                                                                                                                                                         000101
1008421030137COBR_CAUC_COR  CECOMIL COMERCIO E SERVICOS LTDA        007197718000916FORNECEDORA-MAQUINAS E EQUIPAMENTO      RUA  JOSE RAIMUNDO MONTEIRO, 500 LOTE 11PARNAMIRIM                              59150000RN47939000010001569701P7524603  03042014900BRADESCO S/A        0207201400000000000290000CC                                                                                                                                                                                                                                                                                                                                                                                                         000102
1008421030137COBR_CAUC_COR  CECOMIL COMERCIO E SERVICOS LTDA        005099966000141M.E.G. EDICAO E COMERCIO DE LIVROS      R BARAO DO RIO BRANCO, 1620             FORTALEZA                               60025061CE47940000010001865301P7622801  16052014900BRADESCO S/A        1606201400000000000165000CC                                                                                                                                                                                                                                                                                                                                                                                                         000103
1008421030137COBR_CAUC_COR  CECOMIL COMERCIO E SERVICOS LTDA        005099966000141M.E.G. EDICAO E COMERCIO DE LIVROS      R BARAO DO RIO BRANCO, 1620             FORTALEZA                               60025061CE47940000020001866101P7622802  16052014900BRADESCO S/A        1507201400000000000165000CC                                                                                                                                                                                                                                                                                                                                                                                                         000104
1008421030137COBR_CAUC_COR  CECOMIL COMERCIO E SERVICOS LTDA        010238042000461ESPLANADA BRASIL S/A UNID 001           RODOVIA BR 020 KM, 12                   FORTALEZA                               61658000CE47941000010002018601P76350    22052014900BRADESCO S/A        2306201400000000000342000CC                                                                                                                                                                                                                                                                                                                                                                                                         000105
1008421030137COBR_CAUC_COR  CECOMIL COMERCIO E SERVICOS LTDA        023711492000129V AZEVEDO & CIA LTDA EIRELI - ME        R PE RAUL VIEIRA , 000557               RUSSAS                                  62900000CE47942000010001804101P7586702  30042014900BRADESCO S/A        3006201400000000000171667CC                                                                                                                                                                                                                                                                                                                                                                                                         000106
1008421030137COBR_CAUC_COR  CECOMIL COMERCIO E SERVICOS LTDA        023711492000129V AZEVEDO & CIA LTDA EIRELI - ME        R PE RAUL VIEIRA , 000557               RUSSAS                                  62900000CE47942000020001805001P7586703  30042014900BRADESCO S/A        2907201400000000000171666CC                                                                                                                                                                                                                                                                                                                                                                                                         000107
1008421030137COBR_CAUC_COR  CECOMIL COMERCIO E SERVICOS LTDA        013206755000270EDITORA E LIVRARIA NOVA NATAL LTDA      AVENIDA 13 DE MAIO , 429                FORTALEZA                               60040530CE47943000010001810601P7587002  30042014900BRADESCO S/A        3006201400000000000173333CC                                                                                                                                                                                                                                                                                                                                                                                                         000108
1008421030137COBR_CAUC_COR  CECOMIL COMERCIO E SERVICOS LTDA        013206755000270EDITORA E LIVRARIA NOVA NATAL LTDA      AVENIDA 13 DE MAIO , 429                FORTALEZA                               60040530CE47943000020001811401P7587003  30042014900BRADESCO S/A        2907201400000000000173334CC                                                                                                                                                                                                                                                                                                                                                                                                         000109
1008421030137COBR_CAUC_COR  CECOMIL COMERCIO E SERVICOS LTDA        001398311000113TECNOCOPIA - COMERCIO E SERVICOS L      RUA DOM QUINTINO, 748                   CRATO                                   63100070CE47944000010001480101P7503803  21032014900BRADESCO S/A        1906201400000000000176666CC                                                                                                                                                                                                                                                                                                                                                                                                         000110
1008421030137COBR_CAUC_COR  CECOMIL COMERCIO E SERVICOS LTDA        001398311000113TECNOCOPIA - COMERCIO E SERVICOS L      RUA DOM QUINTINO, 748                   CRATO                                   63100070CE47944000020001650201P7545603  11042014900BRADESCO S/A        1007201400000000000176666CC                                                                                                                                                                                                                                                                                                                                                                                                         000111
1008421030137COBR_CAUC_COR  CECOMIL COMERCIO E SERVICOS LTDA        002920797000170SILVA & RAMOS LTDA                      RUA CORONEL POMPEU, 888                 ARACATI                                 62800000CE47945000010001675801P7551702  14042014900BRADESCO S/A        1306201400000000000176667CC                                                                                                                                                                                                                                                                                                                                                                                                         000112
1008421030137COBR_CAUC_COR  CECOMIL COMERCIO E SERVICOS LTDA        002920797000170SILVA & RAMOS LTDA                      RUA CORONEL POMPEU, 888                 ARACATI                                 62800000CE47945000020001676601P7551703  14042014900BRADESCO S/A        1407201400000000000176666CC                                                                                                                                                                                                                                                                                                                                                                                                         000113
1008421030137COBR_CAUC_COR  CECOMIL COMERCIO E SERVICOS LTDA        002920797000170SILVA & RAMOS LTDA                      RUA CORONEL POMPEU, 888                 ARACATI                                 62800000CE47945000030001882301P76239    19052014900BRADESCO S/A        1806201400000000000011300CC                                                                                                                                                                                                                                                                                                                                                                                                         000114
1008421030137COBR_CAUC_COR  CECOMIL COMERCIO E SERVICOS LTDA        041557349000106DIAGA COMERCIO DE ALIMENTOS E REPR      R MACEIO , 1460                         FORTALEZA                               60521105CE47946000010002011901P7634201  21052014900BRADESCO S/A        1906201400000000000095160CC                                                                                                                                                                                                                                                                                                                                                                                                         000115
1008421030137COBR_CAUC_COR  CECOMIL COMERCIO E SERVICOS LTDA        041557349000106DIAGA COMERCIO DE ALIMENTOS E REPR      R MACEIO , 1460                         FORTALEZA                               60521105CE47946000020002012701P7634202  21052014900BRADESCO S/A        2107201400000000000095160CC                                                                                                                                                                                                                                                                                                                                                                                                         000116
1008421030137COBR_CAUC_COR  CECOMIL COMERCIO E SERVICOS LTDA        041557349000106DIAGA COMERCIO DE ALIMENTOS E REPR      R MACEIO , 1460                         FORTALEZA                               60521105CE47946000030002013501P7634203  21052014900BRADESCO S/A        1808201400000000000095160CC                                                                                                                                                                                                                                                                                                                                                                                                         000117
1008421030137COBR_CAUC_COR  CECOMIL COMERCIO E SERVICOS LTDA        041557349000106DIAGA COMERCIO DE ALIMENTOS E REPR      R MACEIO , 1460                         FORTALEZA                               60521105CE47946000040002014301P7634204  21052014900BRADESCO S/A        1709201400000000000095160CC                                                                                                                                                                                                                                                                                                                                                                                                         000118
1008421030137COBR_CAUC_COR  CECOMIL COMERCIO E SERVICOS LTDA        005424523000189AGROCEL - AGROPECUARIA CEARENSE LT      RUA MELVIN JONES, 17 21,25,27 E SENA MADFORTALEZA                               60055450CE47947000010001924201P7627301  20052014900BRADESCO S/A        1906201400000000000090500CC                                                                                                                                                                                                                                                                                                                                                                                                         000119
1008421030137COBR_CAUC_COR  CECOMIL COMERCIO E SERVICOS LTDA        005424523000189AGROCEL - AGROPECUARIA CEARENSE LT      RUA MELVIN JONES, 17 21,25,27 E SENA MADFORTALEZA                               60055450CE47947000020001925101P7627302  20052014900BRADESCO S/A        2107201400000000000090500CC                                                                                                                                                                                                                                                                                                                                                                                                         000120
1008421030137COBR_CAUC_COR  CECOMIL COMERCIO E SERVICOS LTDA        005424523000189AGROCEL - AGROPECUARIA CEARENSE LT      RUA MELVIN JONES, 17 21,25,27 E SENA MADFORTALEZA                               60055450CE47947000030001926901P7627303  20052014900BRADESCO S/A        1808201400000000000090500CC                                                                                                                                                                                                                                                                                                                                                                                                         000121
1008421030137COBR_CAUC_COR  CECOMIL COMERCIO E SERVICOS LTDA        005424523000189AGROCEL - AGROPECUARIA CEARENSE LT      RUA MELVIN JONES, 17 21,25,27 E SENA MADFORTALEZA                               60055450CE47947000040001934001P7628401  20052014900BRADESCO S/A        1906201400000000000036667CC                                                                                                                                                                                                                                                                                                                                                                                                         000122
1008421030137COBR_CAUC_COR  CECOMIL COMERCIO E SERVICOS LTDA        005424523000189AGROCEL - AGROPECUARIA CEARENSE LT      RUA MELVIN JONES, 17 21,25,27 E SENA MADFORTALEZA                               60055450CE47947000050001935801P7628402  20052014900BRADESCO S/A        2107201400000000000036667CC                                                                                                                                                                                                                                                                                                                                                                                                         000123
1008421030137COBR_CAUC_COR  CECOMIL COMERCIO E SERVICOS LTDA        005424523000189AGROCEL - AGROPECUARIA CEARENSE LT      RUA MELVIN JONES, 17 21,25,27 E SENA MADFORTALEZA                               60055450CE47947000060001936601P7628403  20052014900BRADESCO S/A        1808201400000000000036666CC                                                                                                                                                                                                                                                                                                                                                                                                         000124
1008421030137COBR_CAUC_COR  CECOMIL COMERCIO E SERVICOS LTDA        007156086000195INSTITUTO DE ASSISTENCIA SOCIAL         RUA SAO PAULO, 843                      FORTALEZA                               60030100CE47948000010001969201P7631301  21052014900BRADESCO S/A        2006201400000000000150900CC                                                                                                                                                                                                                                                                                                                                                                                                         000125
1008421030137COBR_CAUC_COR  CECOMIL COMERCIO E SERVICOS LTDA        007156086000195INSTITUTO DE ASSISTENCIA SOCIAL         RUA SAO PAULO, 843                      FORTALEZA                               60030100CE47948000020001970601P7631302  21052014900BRADESCO S/A        2107201400000000000150900CC                                                                                                                                                                                                                                                                                                                                                                                                         000126
1008421030137COBR_CAUC_COR  CECOMIL COMERCIO E SERVICOS LTDA        007156086000195INSTITUTO DE ASSISTENCIA SOCIAL         RUA SAO PAULO, 843                      FORTALEZA                               60030100CE47948000030001971401P7631303  21052014900BRADESCO S/A        1908201400000000000150900CC                                                                                                                                                                                                                                                                                                                                                                                                         000127
1008421030137COBR_CAUC_COR  CECOMIL COMERCIO E SERVICOS LTDA        009445644000168BACHA E COMPANHIA LTDA                  RUA FLORIANO PEIXOTO, 221               FORTALEZA                               60025130CE47949000010001748701P7578302  28042014900BRADESCO S/A        2706201400000000000094605CC                                                                                                                                                                                                                                                                                                                                                                                                         000128
1008421030137COBR_CAUC_COR  CECOMIL COMERCIO E SERVICOS LTDA        009445644000168BACHA E COMPANHIA LTDA                  RUA FLORIANO PEIXOTO, 221               FORTALEZA                               60025130CE47949000020001974901P7631901  21052014900BRADESCO S/A        2006201400000000000194125CC                                                                                                                                                                                                                                                                                                                                                                                                         000129
1008421030137COBR_CAUC_COR  CECOMIL COMERCIO E SERVICOS LTDA        009445644000168BACHA E COMPANHIA LTDA                  RUA FLORIANO PEIXOTO, 221               FORTALEZA                               60025130CE47949000030001975701P7631902  21052014900BRADESCO S/A        2107201400000000000194125CC                                                                                                                                                                                                                                                                                                                                                                                                         000130
1008421030137COBR_CAUC_COR  CECOMIL COMERCIO E SERVICOS LTDA        010462976000130MAQUILAR COM DE MAQUINAS P ESC E A      RUA PERBOYRE E SILVA , 68               FORTALEZA                               60030200CE47950000010001768101P7581302  29042014900BRADESCO S/A        3006201400000000000137800CC                                                                                                                                                                                                                                                                                                                                                                                                         000131
1008421030137COBR_CAUC_COR  CECOMIL COMERCIO E SERVICOS LTDA        010462976000130MAQUILAR COM DE MAQUINAS P ESC E A      RUA PERBOYRE E SILVA , 68               FORTALEZA                               60030200CE47950000020001769001P7581303  29042014900BRADESCO S/A        2807201400000000000137800CC                                                                                                                                                                                                                                                                                                                                                                                                         000132
1008421030137COBR_CAUC_COR  CECOMIL COMERCIO E SERVICOS LTDA        010462976000130MAQUILAR COM DE MAQUINAS P ESC E A      RUA PERBOYRE E SILVA , 68               FORTALEZA                               60030200CE47950000030001874201P7623301  19052014900BRADESCO S/A        1806201400000000000082800CC                                                                                                                                                                                                                                                                                                                                                                                                         000133
1008421030137COBR_CAUC_COR  CECOMIL COMERCIO E SERVICOS LTDA        010462976000130MAQUILAR COM DE MAQUINAS P ESC E A      RUA PERBOYRE E SILVA , 68               FORTALEZA                               60030200CE47950000040001875101P7623302  19052014900BRADESCO S/A        1807201400000000000082800CC                                                                                                                                                                                                                                                                                                                                                                                                         000134
1008421030137COBR_CAUC_COR  CECOMIL COMERCIO E SERVICOS LTDA        010462976000130MAQUILAR COM DE MAQUINAS P ESC E A      RUA PERBOYRE E SILVA , 68               FORTALEZA                               60030200CE47950000050001876901P7623303  19052014900BRADESCO S/A        1808201400000000000082800CC                                                                                                                                                                                                                                                                                                                                                                                                         000135
1008421030137COBR_CAUC_COR  CECOMIL COMERCIO E SERVICOS LTDA        003284505000113HOSP MATERNIDADE SAO VICENTE DE PA      AVENIDA CEL JOAO COELHO, 299            BARBALHA                                63180000CE47951000010001539501P7521303  01042014900BRADESCO S/A        3006201400000000000094747CC                                                                                                                                                                                                                                                                                                                                                                                                         000136
1008421030137COBR_CAUC_COR  CECOMIL COMERCIO E SERVICOS LTDA        003284505000113HOSP MATERNIDADE SAO VICENTE DE PA      AVENIDA CEL JOAO COELHO, 299            BARBALHA                                63180000CE47951000020001658801P7546703  11042014900BRADESCO S/A        1007201400000000000038134CC                                                                                                                                                                                                                                                                                                                                                                                                         000137
1008421030137COBR_CAUC_COR  CECOMIL COMERCIO E SERVICOS LTDA        003284505000113HOSP MATERNIDADE SAO VICENTE DE PA      AVENIDA CEL JOAO COELHO, 299            BARBALHA                                63180000CE47951000030001724001P7563002  22042014900BRADESCO S/A        2306201400000000000056727CC                                                                                                                                                                                                                                                                                                                                                                                                         000138
1008421030137COBR_CAUC_COR  CECOMIL COMERCIO E SERVICOS LTDA        003284505000113HOSP MATERNIDADE SAO VICENTE DE PA      AVENIDA CEL JOAO COELHO, 299            BARBALHA                                63180000CE47951000040001725801P7563003  22042014900BRADESCO S/A        2107201400000000000056726CC                                                                                                                                                                                                                                                                                                                                                                                                         000139
1008421030137COBR_CAUC_COR  CECOMIL COMERCIO E SERVICOS LTDA        003284505000113HOSP MATERNIDADE SAO VICENTE DE PA      AVENIDA CEL JOAO COELHO, 299            BARBALHA                                63180000CE47951000050001913701P7626501  20052014900BRADESCO S/A        1906201400000000000055000CC                                                                                                                                                                                                                                                                                                                                                                                                         000140
1008421030137COBR_CAUC_COR  CECOMIL COMERCIO E SERVICOS LTDA        003284505000113HOSP MATERNIDADE SAO VICENTE DE PA      AVENIDA CEL JOAO COELHO, 299            BARBALHA                                63180000CE47951000060001914501P7626502  20052014900BRADESCO S/A        2107201400000000000055000CC                                                                                                                                                                                                                                                                                                                                                                                                         000141
1008421030137COBR_CAUC_COR  CECOMIL COMERCIO E SERVICOS LTDA        003284505000113HOSP MATERNIDADE SAO VICENTE DE PA      AVENIDA CEL JOAO COELHO, 299            BARBALHA                                63180000CE47951000070001915301P7626503  20052014900BRADESCO S/A        1808201400000000000055000CC                                                                                                                                                                                                                                                                                                                                                                                                         000142
