0REMESSANOTIFICACAO ELETRONICA        99999999999999BICBANCO                                AV. PAULISTA                            1048      12.ANDAR  BELA VISTA                    SAO PAULO                     01310100SP1121739360CORTINHAL                               COORDENADOR                             22052014                                                                                                                                                                                                                                                                                                                                                                                      000001
1015421010253COBR_CAUC_BIC  MUNDIAL S/A PRODUTOS DE CONSUMO         025769266000124ARCOM S A                               ANEL VIARIO AYRTON SENA BR 365 050 2001 UBERLANDIA                              38414512MG4761100001012848655800407701  28042014028UBERLANDIA          0707201400000000017992229CC                                                                                                                                                                                                                                                                                                                                                                                                         000002
1015421010253COBR_CAUC_BIC  MUNDIAL S/A PRODUTOS DE CONSUMO         025769266000124ARCOM S A                               ANEL VIARIO AYRTON SENA BR 365 050 2001 UBERLANDIA                              38414512MG4761100002012848735800407901  28042014028UBERLANDIA          0707201400000000014515200CC                                                                                                                                                                                                                                                                                                                                                                                                         000003
1015421010253COBR_CAUC_BIC  MUNDIAL S/A PRODUTOS DE CONSUMO         025769266000124ARCOM S A                               ANEL VIARIO AYRTON SENA BR 365 050 2001 UBERLANDIA                              38414512MG4761100003012848815800408001  28042014028UBERLANDIA          0707201400000000012412800CC                                                                                                                                                                                                                                                                                                                                                                                                         000004
1031421012447COBR_CAUC_COR  AGRICOLA JANDELLE S/A                   001928075002062DMA DISTRIBUIDORA S/A                   RODOVIA BR 040 KM 531 180               BELO HORIZONTE                          30855500MG4761200001030003280014726501  21052014900BRADESCO S/A        2006201400000000013986508CC                                                                                                                                                                                                                                                                                                                                                                                                         000005
1007421067719COBR_CAUC_BIC  NEOLIDER COM.IMP.E EXP.DE ACOS LTDA     096591128000146VWS BRASIL LTDA                         R JUNDIAI,50                            SAO PAULO                               04001140SP476130000102932856062402/     21052014007PAULISTA            0707201400000000015918097CC                                                                                                                                                                                                                                                                                                                                                                                                         000006
1018421015651COBR_CAUC_BIC  CMS PRODUTOS MEDICOS LTDA               060765823000130SOCIEDADE BENEF ISRAELITABRAS HOSP      AV. ALBERT EINSTEIN, 627                SAO PAULO                               05652000SP476140000103708580000094883   20052014007PAULISTA            2107201400000000012000000CC                                                                                                                                                                                                                                                                                                                                                                                                         000007
1007421055095COBR_CAUC_COR  PLASTER IND COM RESINAS PLAS EIRELI     055818397000115ALFATERM IND E COM LTDA                 ESTRADA TENENTE MARQUES,5490            SANTANA PARNAIB                         06530001SP476150000100020175041396/A    20052014900BRADESCO S/A        0107201400000000020097000CC                                                                                                                                                                                                                                                                                                                                                                                                         000008
9000005                                                                                                                                                                                                                                                                                                                                                                                                                                                                                                                                                                                                                                                                                                               000009
