0REMESSANOTIFICACAO ELETRONICA        99999999999999BICBANCO                                AV. PAULISTA                            1048      12.ANDAR  BELA VISTA                    SAO PAULO                     01310100SP1121739360CORTINHAL                               COORDENADOR                             15082014                                                                                                                                                                                                                                                                                                                                                                                      000001
1018421016313DIR_CREDIT     SERRA NEGRA LOGISTICA LTDA              015104599000180SAMA S.A - MINERACOES ASSOCIADAS        MINA CANA BRAVA                         MINACU                                  76450000GO4882700001                                                                                                                                          012647490           040520090000009686            13082014000403locação de 13 caminhões VOLVO 6X4 e uma escavadeira referente contrato 4500101063 e locação de 7 caminhões VOLVO 6 x 4, basculante capacidade de 16m3,refrente contrato 4500151097.                                                             010732172000103              000002
1021420930887COBR_CAUC_COR  DEDINI S/A INDUSTRIAS DE BASE           043619832001760BRANCO PERES ACUCAR E ALCOOL SA         ROD DR PLACIDO ROCHA KM 19,6 S N LAGOA SADAMANTINA                              17800000SP488290000106588081265129-1-1  07082014900BRADESCO S/A        3008201400000000012204606CC                                                                                                                                                                                                                                                                                                                                                                                                         000003
1048421000338COBR_CAUC_COR  FRIGOESTRELA S.A. EM RECUP JUDICIAL     060398914000931MIDORI ATLANTICA BRASIL INDUSTRIAL      AV. ANTONIO VERONESE TERREO, 1007       PENAPOLIS                               16300000SP4883000001085448910115740501  13082014900BRADESCO S/A        2008201400000000017600229CC                                                                                                                                                                                                                                                                                                                                                                                                         000004
1031421011181COBR_CAUC_BIC  AGROIND IRMAOS DALLA COSTA LTDA         064308299000129INTERCONTINENTAL COMERCIO DE ALIME      ROD PRESIDENTE DUTRA               01957SAO JOAO DE MER                         25515230RJ48831000010542776135119/1     01082014014RIO DE JANEIRO      2908201400000000015503400CC                                                                                                                                                                                                                                                                                                                                                                                                         000005
1046421008677COBR_CAUC_BIC  KMA FABRICACAO E COM DE APAR DE REF     010280765000690TUMELERO MATERIAIS DE CONSTRUCAO S      AV SERTORIO, 9700                       PORTO ALEGRE                            91130720RS488320000102480437022645-     12082014015PORTO ALEGRE        0212201400000000014400000CC                                                                                                                                                                                                                                                                                                                                                                                                         000006
1046421008677COBR_CAUC_COR  KMA FABRICACAO E COM DE APAR DE REF     062253943000183CONSTRUMARQUES JAU MATERIAIS DE CO      AV DO CAFE, 632                         JAU                                     17208010SP488330000102480054022512-     08082014600HSBC BANK BRASIL    2808201400000000011969950CC                                                                                                                                                                                                                                                                                                                                                                                                         000007
1046421008677COBR_CAUC_BIC  KMA FABRICACAO E COM DE APAR DE REF     077044618004507BALAROTI COMERCIO DE MATERIAIS DE       R WALDEMAR KOST, 701                    CURITIBA                                81610100PR488340000102479498021667-     21072014016CURITIBA            1011201400000000012906870CC                                                                                                                                                                                                                                                                                                                                                                                                         000008
1046421008677COBR_CAUC_BIC  KMA FABRICACAO E COM DE APAR DE REF     077044618004507BALAROTI COMERCIO DE MATERIAIS DE       R WALDEMAR KOST, 701                    CURITIBA                                81610100PR488340000202479501021578-     18072014016CURITIBA            0711201400000000018222098CC                                                                                                                                                                                                                                                                                                                                                                                                         000009
1046421008677COBR_CAUC_BIC  KMA FABRICACAO E COM DE APAR DE REF     077044618004507BALAROTI COMERCIO DE MATERIAIS DE       R WALDEMAR KOST, 701                    CURITIBA                                81610100PR488340000302480470021893-     24072014016CURITIBA            1311201400000000019891750CC                                                                                                                                                                                                                                                                                                                                                                                                         000010
1046421008677COBR_CAUC_BIC  KMA FABRICACAO E COM DE APAR DE REF     077044618004507BALAROTI COMERCIO DE MATERIAIS DE       R WALDEMAR KOST, 701                    CURITIBA                                81610100PR488340000402480488022337-     31072014016CURITIBA            2011201400000000014074720CC                                                                                                                                                                                                                                                                                                                                                                                                         000011
1046421008677COBR_CAUC_BIC  KMA FABRICACAO E COM DE APAR DE REF     077044618004507BALAROTI COMERCIO DE MATERIAIS DE       R WALDEMAR KOST, 701                    CURITIBA                                81610100PR488340000502480496021898-     24072014016CURITIBA            1311201400000000014340690CC                                                                                                                                                                                                                                                                                                                                                                                                         000012
1046421008677COBR_CAUC_BIC  KMA FABRICACAO E COM DE APAR DE REF     077044618004507BALAROTI COMERCIO DE MATERIAIS DE       R WALDEMAR KOST, 701                    CURITIBA                                81610100PR488340000602480500021668-     21072014016CURITIBA            1011201400000000010333940CC                                                                                                                                                                                                                                                                                                                                                                                                         000013
1046421008677COBR_CAUC_BIC  KMA FABRICACAO E COM DE APAR DE REF     077044618004507BALAROTI COMERCIO DE MATERIAIS DE       R WALDEMAR KOST, 701                    CURITIBA                                81610100PR488340000702480518021899-     24072014016CURITIBA            1311201400000000013497120CC                                                                                                                                                                                                                                                                                                                                                                                                         000014
1046421008677COBR_CAUC_BIC  KMA FABRICACAO E COM DE APAR DE REF     077044618004507BALAROTI COMERCIO DE MATERIAIS DE       R WALDEMAR KOST, 701                    CURITIBA                                81610100PR488340000802480526021670-     21072014016CURITIBA            1011201400000000010333940CC                                                                                                                                                                                                                                                                                                                                                                                                         000015
1007421075541DIR_CREDIT     LADEIRA MIRANDA ENGENHARIA E CONSTR     013326313000186POUR LA VIE ECO SOCIEDADE INCORPORADORA AV. GARCILIOL DA COSTA FERREIRA, 01     TAUBATE                                 12090280SP4883800001                                                                                                                                          012372988           090620110000024897            13082014000403Construção sob o regime de administração ao valor de 7% do custo total da obra no valor de R$24.000.000,00.                                                                                                                                     046407888000182              000016
9000008                                                                                                                                                                                                                                                                                                                                                                                                                                                                                                                                                                                                                                                                                                               000017
