0REMESSANOTIFICACAO ELETRONICA        99999999999999BICBANCO                                AV. PAULISTA                            1048      12.ANDAR  BELA VISTA                    SAO PAULO                     01310100SP1121739360CORTINHAL                               COORDENADOR                             12062014                                                                                                                                                                                                                                                                                                                                                                                      000001
1007421060269COBR_CAUC_COR  CAMBUCI S/A                             007027366000101VR COMERCIO DE CALCADOS LTDA - EPP      RUA REPUBLICA DO LIBANO, 28             TRES CORACOES                           37410000MG481620000103001597DM25520701  04062014700BANCO REAL- ABN AMRO0608201400000000013539636CC                                                                                                                                                                                                                                                                                                                                                                                                         000002
1007421056385COBR_CAUC_COR  TERRA NOVA TRADING S/A                  047410238001805EUROMOBILE INTERIORES S/A               RODOVIA SC 486-ANTONIO ,1001-KM 01      ITAJAI                                  88316001SC481630000100002142NF27126     11062014900BRADESCO S/A        0409201400000000031775157CC                                                                                                                                                                                                                                                                                                                                                                                                         000003
1048421000338COBR_CAUC_COR  FRIGOESTRELA S.A. EM RECUP JUDICIAL     088148259000125INDUSTRIA DE PELES MINUANO LTDA         AV CAPIVARA, 1645                       LINDOLFO COLLOR                         93940000RS4816400001082776550112952301  10062014900BRADESCO S/A        0807201400000000027476281CC                                                                                                                                                                                                                                                                                                                                                                                                         000004
1021421017050COBR_CAUC_BIC  STAR DISTR PROD FARMACEUTICOS LTDA      061585865073701RAIA DROGASIL S/A                       RUA PATAXOS , 1412                      EMBU                                    06833073SP4816500001000023010000340501  10062014007PAULISTA            2406201400000000040878206CC                                                                                                                                                                                                                                                                                                                                                                                                         000005
1021421017050COBR_CAUC_BIC  STAR DISTR PROD FARMACEUTICOS LTDA      061585865073701RAIA DROGASIL S/A                       RUA PATAXOS , 1412                      EMBU                                    06833073SP4816500002000023100000340601  10062014007PAULISTA            2406201400000000016234451CC                                                                                                                                                                                                                                                                                                                                                                                                         000006
1021421017050COBR_CAUC_BIC  STAR DISTR PROD FARMACEUTICOS LTDA      061585865073701RAIA DROGASIL S/A                       RUA PATAXOS , 1412                      EMBU                                    06833073SP4816500003000023280000340401  10062014007PAULISTA            2406201400000000016455999CC                                                                                                                                                                                                                                                                                                                                                                                                         000007
1021421017050COBR_CAUC_BIC  STAR DISTR PROD FARMACEUTICOS LTDA      061585865073701RAIA DROGASIL S/A                       RUA PATAXOS , 1412                      EMBU                                    06833073SP4816500004000023360000341001  11062014007PAULISTA            2506201400000000016298820CC                                                                                                                                                                                                                                                                                                                                                                                                         000008
1021421017050COBR_CAUC_BIC  STAR DISTR PROD FARMACEUTICOS LTDA      061585865073701RAIA DROGASIL S/A                       RUA PATAXOS , 1412                      EMBU                                    06833073SP4816500005000023440000340801  11062014007PAULISTA            2506201400000000041556426CC                                                                                                                                                                                                                                                                                                                                                                                                         000009
1021421017050COBR_CAUC_BIC  STAR DISTR PROD FARMACEUTICOS LTDA      061585865073701RAIA DROGASIL S/A                       RUA PATAXOS , 1412                      EMBU                                    06833073SP4816500006000023520000340901  11062014007PAULISTA            2506201400000000010992631CC                                                                                                                                                                                                                                                                                                                                                                                                         000010
9000004                                                                                                                                                                                                                                                                                                                                                                                                                                                                                                                                                                                                                                                                                                               000011
