0REMESSANOTIFICACAO ELETRONICA        99999999999999BICBANCO                                AV. PAULISTA                            1048      12.ANDAR  BELA VISTA                    SAO PAULO                     01310100SP1121739360CORTINHAL                               COORDENADOR                             24012012                                                                                                                                                                                                                                                                                                                                                                                      000001
1038421013459COBR_CAUC_BIC  GENERAL BRANDS DO BR I C P A LTDA       007170943004603BARCELONA COMERCIO VAREJISTA E ATA      RUA MANILHA,42                          SAO PAULO                               03445050SP334430000109516571001068473   06012012007PAULISTA            0603201200000000014688720CC                                                                                                                                                                                                                                                                                                                                                                                                         000002
1031421007850COBR_CAUC_BIC  AGRICOLA JANDELLE S/A                   004641376007300SUPERMERCADOS BH COMERCIO DE ALIME      AVENIDA GERALDO ROCHA 200               CONTAGEM                                32183054MG3344400001049636180007148501  22012012019BELO HORIZONTE      2002201200000000012236767CC                                                                                                                                                                                                                                                                                                                                                                                                         000003
1008421022487COBR_CAUC_COR  EBP - EMPRESA BRASILEIRA DE PESCADO     033304981000110SUPERMERCADOS MUNDIAL LTDA              RUA  DONA EMILIA, 2                     RIO DE JANEIRO                          20765110RJ3344500001014661117999/       18012012900BRADESCO S/A        0702201200000000018603720CC                                                                                                                                                                                                                                                                                                                                                                                                         000004
9000003                                                                                                                                                                                                                                                                                                                                                                                                                                                                                                                                                                                                                                                                                                               000005
