0REMESSANOTIFICACAO ELETRONICA        99999999999999BICBANCO                                AV. PAULISTA                            1048      12.ANDAR  BELA VISTA                    SAO PAULO                     01310100SP1121739360CORTINHAL                               COORDENADOR                             08082014                                                                                                                                                                                                                                                                                                                                                                                      000001
1015421021867COBR_CAUC_COR  COTRIJUI COOP AGROP & INDUSTRIAL        008764131000157CENTER CARNES DE JUAZEIRO COMERCIA      AV CASTELO BRANCO 697                   CRATO                                   63130300CE487640000100428812200416-1    06082014900BRADESCO S/A        0509201400000000012987500CC                                                                                                                                                                                                                                                                                                                                                                                                         000002
1021421017050COBR_CAUC_BIC  STAR DISTR PROD FARMACEUTICOS LTDA      061585865073701RAIA DROGASIL S/A                       RUA PATAXOS , 1412                      EMBU                                    06833073SP4876500001000038630000375601  06082014007PAULISTA            2708201400000000015357919CC                                                                                                                                                                                                                                                                                                                                                                                                         000003
1021421017050COBR_CAUC_BIC  STAR DISTR PROD FARMACEUTICOS LTDA      061585865073701RAIA DROGASIL S/A                       RUA PATAXOS , 1412                      EMBU                                    06833073SP4876500002000038800000375401  06082014007PAULISTA            2708201400000000011335876CC                                                                                                                                                                                                                                                                                                                                                                                                         000004
1021421017050COBR_CAUC_BIC  STAR DISTR PROD FARMACEUTICOS LTDA      061585865073701RAIA DROGASIL S/A                       RUA PATAXOS , 1412                      EMBU                                    06833073SP4876500003000038980000375301  06082014022PAULISTA            2708201400000000014209941CC                                                                                                                                                                                                                                                                                                                                                                                                         000005
1010421023481DIR_CREDIT     HOSPITAL DE AVILA LTDA                  004171205000190VIVA PLANOS DE SAUDE LTDA               AV.DR.JOSE A.MOREIRA, 1251 - CASA CAIADAOLINDA                                  53130410PE4876600001                                                                                                                                          011809941           010320100000020792S/N         28052012051902Prestação de serviços de assistência médico-hospitalar.                                                                                                                                                                                         035716166000193              000006
1010421023481DIR_CREDIT     HOSPITAL DE AVILA LTDA                  044649812010877INTERMEDICA SISTEMA DE SAUDE S/A        AV PROF ANDRADE BEZERRA 1078            OLINDA                                  53110110PE4876700001                                                                                                                                          011809941           24011996000002150800          28052012051902ASSISTÊNCIA HOSPITALAR AOS BENEFICIÁRIOS DA CONTRATANTE                                                                                                                                                                                         035716166000193              000007
9000004                                                                                                                                                                                                                                                                                                                                                                                                                                                                                                                                                                                                                                                                                                               000008
