0REMESSANOTIFICACAO ELETRONICA        99999999999999BICBANCO                                AV. PAULISTA                            1048      12.ANDAR  BELA VISTA                    SAO PAULO                     01310100SP1121739360CORTINHAL                               COORDENADOR                             11122013                                                                                                                                                                                                                                                                                                                                                                                      000001
1009421012831COBR_CAUC_COR  ASA ALIMENTOS S/A                       003387396001131SAO SALVADOR ALIMENTOS S/A              ROD GO 156 KM 0                         ITABERAI                                76630000GO4561600001001493510045141     09122013900BRADESCO S/A        1301201400000000014040000CC                                                                                                                                                                                                                                                                                                                                                                                                         000002
1015421021867COBR_CAUC_COR  COTRIJUI COOP AGROP & INDUSTRIAL        008474030000141MEDEIROS FRIOS E CONGELADOS LTDA-       RUA DIAS CARNEIRO 1977                  BACABAL                                 65700000MA456180000100199465174324-1    09122013900BRADESCO S/A        1612201300000000011883000CC                                                                                                                                                                                                                                                                                                                                                                                                         000003
1008421022487COBR_CAUC_COR  EBP - EMPRESA BRASILEIRA DE PESCADO     033381286000151SUPER MERCADO ZONA SUL S/A              RUA COMANDANTE VERGUEIRO DA CRUZ, 226   RIO DE JANEIRO                          21021020RJ4562000001016976270023446/    09122013900BRADESCO S/A        1201201400000000012750000CC                                                                                                                                                                                                                                                                                                                                                                                                         000004
1028421001518COBR_CAUC_COR  GAIA AGRIBUSINESS AGRICOLA LTDA         000048494836153JOSE ADONIZETE DA COSTA                 AV SANTA CATARINA ,180                  GOIATUBA                                75600000GO45619000010297284646089       10122013900BRADESCO S/A        2505201400000000017390000CC                                                                                                                                                                                                                                                                                                                                                                                                         000005
1028421001518COBR_CAUC_COR  GAIA AGRIBUSINESS AGRICOLA LTDA         000048494836153JOSE ADONIZETE DA COSTA                 AV SANTA CATARINA ,180                  GOIATUBA                                75600000GO45619000020297285446090       10122013900BRADESCO S/A        0506201400000000017392000CC                                                                                                                                                                                                                                                                                                                                                                                                         000006
1018421034826COBR_CAUC_BIC  LACEL LATICINIOS CERES LTDA             011596442004237CARVALHO & FERNANDES LTDA               AV.DEPUTADO PAULO FERRAZ, 4888 GALPAO 04TERESINA                                64078820PI456170000103516320029118      09122013042SAO LUIS            1202201400000000018341500CC                                                                                                                                                                                                                                                                                                                                                                                                         000007
1003421010775COBR_CAUC_COR  NUFARM IND QUIM FARMACEUTICA S/A        013450200000511AGROPECUARIA ALKMIM ARAUJO LTDA         R PROFESSOR MANOEL CRUZ, 100 PREDIO     SANTANA                                 47700000BA456150000104335781 003882501  31102013900BRADESCO S/A        3003201400000000011100000CC                                                                                                                                                                                                                                                                                                                                                                                                         000008
9000006                                                                                                                                                                                                                                                                                                                                                                                                                                                                                                                                                                                                                                                                                                               000009
