0REMESSANOTIFICACAO ELETRONICA        99999999999999BICBANCO                                AV. PAULISTA                            1048      12.ANDAR  BELA VISTA                    SAO PAULO                     01310100SP1121739360CORTINHAL                               COORDENADOR                             21082012                                                                                                                                                                                                                                                                                                                                                                                      000001
1044421000297DIR_CREDIT     DOIS A ENGENHARIA E TECNOLOGIA LTDA     008282865000108DER - DEPTO DE ESTRADAS E RODAGEM       AV SENADOR SALGADO FILHO,1808           NATAL                                   59056000RN3720800001                                                                                                                                          011649687           030520100000015084009/2010-PJ 25112011051902execução das obras do 3 progarama de recosntrução de eixos e acessos rodoviários, pertencentes à malha viária estadual, integrantes do lote 3 do edital de licitação 025/2009.                                                                  003092799000181              000002
1022421000067DIR_CREDIT     ATIVAADM ADMIN.PATRIMONIAL LTDA         009336431000106AUTOPISTA REGIS BITTENCOURT S.A         ROD. SP 139, 226 - SãO NICOLAU          REGISTRO                                11900000SP3721400001                                                                                                                                          011900327           010320120000021691DSU-OBR 040415082012000403implantação de trevo em desnivel do km 326+800, municipio de juquitiba/sp, rodovia regis bittencourt, br-116, trecho são paulo-curitiba, com fornecimento de material                                                                           004810550000127              000003
1019141010810COBR_CAUC_BIC  LIGAS DE ALUMINIO S/A LIASA             061409892000335CIA BRASILEIRA DE ALUMINIO              ROD.CTBA.RIO BRANCO PR092,1303          CURITIBA                                82130570PR3727500001065406230000148-01  23072012016CURITIBA            0309201200000000014429448TD                                                                                                                                                                                                                                                                                                                                                                                                         000004
1019141010810COBR_CAUC_BIC  LIGAS DE ALUMINIO S/A LIASA             061409892000335CIA BRASILEIRA DE ALUMINIO              ROD.CTBA.RIO BRANCO PR092,1303          CURITIBA                                82130570PR3727500002065407210016932-01  06082012016CURITIBA            1709201200000000014429448TD                                                                                                                                                                                                                                                                                                                                                                                                         000005
1024420934410COBR_CAUC_BIC  INTERCOOP INT SUIN MED NORTE MT LTD     061270393000148FRIGORIFICO MARBA LTDA                  AV CEZAR MAGNANI 971,971                SAO BERNARDO                            09694000SP37276000010198842084833       11082012038ABC                 1809201200000000013378145CC                                                                                                                                                                                                                                                                                                                                                                                                         000006
1038421018922COBR_CAUC_COR  AMEPLAN ASSIST MEDICA PLANEJADA         011031202000117MOBIBRASIL TRANSPORTE URBANO LTDA       R. GENARO DE CARVALHO,145               SAO PAULO                               04377220SP37277000010999572044890       20082012900BRADESCO S/A        2509201200000000013126246CC                                                                                                                                                                                                                                                                                                                                                                                                         000007
1038421011812COBR_CAUC_BIC  ENERGY COML IMPORT E EXPORT LTDA        009363567000105PREMIX BRASIL RESINAS LTDA              AL ARAGUAIA,2044                        BARUERI                                 06455000SP372780000109808253001213      17072012007PAULISTA            3108201200000000012148951CC                                                                                                                                                                                                                                                                                                                                                                                                         000008
1038421011812COBR_CAUC_BIC  ENERGY COML IMPORT E EXPORT LTDA        009363567000105PREMIX BRASIL RESINAS LTDA              AL ARAGUAIA,2044                        BARUERI                                 06455000SP372780000209808261001214      17072012007PAULISTA            3108201200000000012212060CC                                                                                                                                                                                                                                                                                                                                                                                                         000009
1038421011812COBR_CAUC_BIC  ENERGY COML IMPORT E EXPORT LTDA        009363567000105PREMIX BRASIL RESINAS LTDA              AL ARAGUAIA,2044                        BARUERI                                 06455000SP372780000309808270001228      18072012007PAULISTA            3108201200000000012290552CC                                                                                                                                                                                                                                                                                                                                                                                                         000010
1038421011812COBR_CAUC_BIC  ENERGY COML IMPORT E EXPORT LTDA        009363567000105PREMIX BRASIL RESINAS LTDA              AL ARAGUAIA,2044                        BARUERI                                 06455000SP372780000409808288001229      18072012007PAULISTA            3108201200000000011907719CC                                                                                                                                                                                                                                                                                                                                                                                                         000011
1038421011812COBR_CAUC_BIC  ENERGY COML IMPORT E EXPORT LTDA        009363567000105PREMIX BRASIL RESINAS LTDA              AL ARAGUAIA,2044                        BARUERI                                 06455000SP372780000509808296001230      19072012007PAULISTA            3108201200000000012261321CC                                                                                                                                                                                                                                                                                                                                                                                                         000012
1038421011812COBR_CAUC_BIC  ENERGY COML IMPORT E EXPORT LTDA        009363567000105PREMIX BRASIL RESINAS LTDA              AL ARAGUAIA,2044                        BARUERI                                 06455000SP372780000609808300001231      19072012007PAULISTA            3108201200000000012108188CC                                                                                                                                                                                                                                                                                                                                                                                                         000013
1050421000089COBR_CAUC_COR  ATIVO ALIMENTOS LTDA                    007164263000185KADAO INDUSTRIA DE ALIMENTOS LTDA       ROD GO 206 KM 01 0                      CACU                                    75813000GO372790000100373434149308/1    18082012900BRADESCO S/A        0809201200000000015151410CC                                                                                                                                                                                                                                                                                                                                                                                                         000014
1038421002945COBR_CAUC_BIC  NEOLIDER COM.IMP.E EXP.DE ACOS LTDA     061182440000100GEA WESTFALIA SEPARATOR DO BRASIL       AV MERCEDES BENZ 679 EDIF 4D2 - 1*      CAMPINAS                                13054750SP372800000109807842045850/01   10082012021CAMPINAS            2409201200000000010356337CC                                                                                                                                                                                                                                                                                                                                                                                                         000015
1014421023721COBR_CAUC_BIC  VML COMERCIAL IMP E EXP LTDA            060776788000154QUIRIOS PRODUTOS QUIMICOS S.A.          ARNALDO,388                             BARUERI                                 06415110SP3728100001045396244262        20082012007PAULISTA            1609201200000000017500000CC                                                                                                                                                                                                                                                                                                                                                                                                         000016
1006420932613DIR_CREDIT     NIVEL CONSTRUCOES LTDA                  008805453000105MB ENGENHARIA SPE 004 S/A               AV SENADOR VIRGILIO TAVORA 1500-ALDEOTA FORTALEZA                               60170220CE3728600001                                                                                                                                          011961690           301120100000016589S/N         20082012000401GERENCIAR E EXECUTAR AS OBRAS DE CONSTRUÇAO DO EMPREENDIMENTO THE ONE  TOWER SITUADO A AV SENADOR VIRGILIO TAVORA 1500 - ALDEOTA - FORTALEZA (CE), ON-DE A INCORPORAÇÃO É DE INTEIRA RESPONSABILIDADE DE BROOKFIELD INCORP S/A.                 002960450000151              000017
9000010                                                                                                                                                                                                                                                                                                                                                                                                                                                                                                                                                                                                                                                                                                               000018
