0REMESSANOTIFICACAO ELETRONICA        99999999999999BICBANCO                                AV. PAULISTA                            1048      12.ANDAR  BELA VISTA                    SAO PAULO                     01310100SP1121739360CORTINHAL                               COORDENADOR                             21102014                                                                                                                                                                                                                                                                                                                                                                                      000001
1050421000089COBR_CAUC_BIC  ATIVO ALIMENTOS EXP E IMP EIRELI        011596442003427CARVALHO E FERNANDES LTDA               AVE DEPUTADO PAULO FERRAZ 4888          TERESINA                                64078820PI499310000100616493279014/1    17102014042SAO LUIS            1611201400000000016823529CC                                                                                                                                                                                                                                                                                                                                                                                                         000002
1007421035337COBR_CAUC_COR  COMERCIAL IMP.E EXP.CANTAREIRA LTDA     002105874000139REDE SUPER LTDA                         EST BR 392, 4399                        SANTA MARIA                             97070160RS499320000103369471122067001   17102014700BANCO REAL- ABN AMRO1411201400000000010146765CC                                                                                                                                                                                                                                                                                                                                                                                                         000003
1007421035337COBR_CAUC_BIC  COMERCIAL IMP.E EXP.CANTAREIRA LTDA     006222792000125NOVA COQUEIRO DE ALIMENTOS LTDA         AV BRASIL, 19001                        RIO DE JANEIRO                          21530000RJ499330000103369454122056001   17102014014RIO DE JANEIRO      1411201400000000018500370CC                                                                                                                                                                                                                                                                                                                                                                                                         000004
1028421001518COBR_CAUC_COR  GAIA AGRIBUSINESS AGRICOLA LTDA         000054778751191FABIO FERNANDES DA SILVA E OUTROS       RUA TEFE,840                            GOIATUBA                                75600000GO49934000010307011156986       17102014600HSBC BANK BRASIL    1812201400000000016380000CC                                                                                                                                                                                                                                                                                                                                                                                                         000005
1043421010006COBR_CAUC_COR  ELFA MEDICAMENTOS LTDA                  060961968000106FUNDACAO ANTONIO PRUDENTE               RUA PROFESSOR ANTONIO PRUDENTE          SAO PAULO                               01509010SP499350000100120125000064144   17102014900BRADESCO S/A        1612201400000000016376004CC                                                                                                                                                                                                                                                                                                                                                                                                         000006
9000005                                                                                                                                                                                                                                                                                                                                                                                                                                                                                                                                                                                                                                                                                                               000007
