0REMESSANOTIFICACAO ELETRONICA        99999999999999BICBANCO                                AV. PAULISTA                            1048      12.ANDAR  BELA VISTA                    SAO PAULO                     01310100SP1121739360CORTINHAL                               COORDENADOR                             18072012                                                                                                                                                                                                                                                                                                                                                                                      000001
1007421044581COBR_CAUC_BIC  GRANCARGA TRANSP. E GUINDASTES S/A.     001027335000166WOBBEN WINDPOWER IND.E COM.LTDA.        AV.FERNANDO STECCA,100                  SOROCABA                                18087149SP365710000101341994002339      16072012007PAULISTA            2009201200000000076820093CC                                                                                                                                                                                                                                                                                                                                                                                                         000002
1022421007495COBR_CAUC_BIC  TECUMSEH DO BRASIL LTDA                 002948030000230ESMALTEC SA                             AV PARQUE OESTE ,2130                   MARACANAU                               61939120CE36572000010435387054433/1     16072012003CENTRO              2408201200000000017066847CC                                                                                                                                                                                                                                                                                                                                                                                                         000003
1007421043100COBR_CAUC_COR  MACROPORT INTERNACIONAL LTDA            013197889000271LEICHT SAO PAULO MOVEIS PLANEJADOS      R ATALYDES MOREIRA DE SOUZA,1046        SERRA                                   29168055ES365730000101341986410011      13072012800UNIBANCO S/A        1008201200000000018075064CC                                                                                                                                                                                                                                                                                                                                                                                                         000004
1021421015910COBR_CAUC_BIC  ZERO COM E DIST PROD DE TELEC LTDA      033068883000201SOCIEDADE COMERCIAL E IMP HERMES S      RUA VICTOR CIVITA,77 BL 01 ED 6.2 2AND  RIO DE JANEIRRJ                         22775905RJ365740000106345880000004077   18062012014RIO DE JANEIRO      3009201200000000027317700CC                                                                                                                                                                                                                                                                                                                                                                                                         000005
1014421023721COBR_CAUC_BIC  VML COMERCIAL IMP E EXP LTDA            060776788000154QUIRIOS PRODUTOS QUIMICOS S.A.          ARNALDO,388                             BARUERI                                 06415110SP36575000010453515711264       16072012007PAULISTA            2008201200000000017500000CC                                                                                                                                                                                                                                                                                                                                                                                                         000006
9000005                                                                                                                                                                                                                                                                                                                                                                                                                                                                                                                                                                                                                                                                                                               000007
