0REMESSANOTIFICACAO ELETRONICA        99999999999999BICBANCO                                AV. PAULISTA                            1048      12.ANDAR  BELA VISTA                    SAO PAULO                     01310100SP1121739360CORTINHAL                               COORDENADOR                             16092013                                                                                                                                                                                                                                                                                                                                                                                      000001
1007421037046COBR_CAUC_BIC  ADL SERVICOS DE FIDELIZACAO LTDA        044597052000162ABRIL COMUNICACOES S/A                  AVENIDA DAS NACOES UNIDAS,7221          SAO PAULO                               05477000SP441410000102249285173         09092013007PAULISTA            3009201300000000027058900CC                                                                                                                                                                                                                                                                                                                                                                                                         000002
1007421037046COBR_CAUC_BIC  ADL SERVICOS DE FIDELIZACAO LTDA        044597052000162ABRIL COMUNICACOES S/A                  AVENIDA DAS NACOES UNIDAS,7221          SAO PAULO                               05477000SP441410000202249307172         09092013007PAULISTA            1410201300000000024751900CC                                                                                                                                                                                                                                                                                                                                                                                                         000003
1007421037046COBR_CAUC_BIC  ADL SERVICOS DE FIDELIZACAO LTDA        044597052000162ABRIL COMUNICACOES S/A                  AVENIDA DAS NACOES UNIDAS,7221          SAO PAULO                               05477000SP441410000302249315176         10092013007PAULISTA            0110201300000000028712500CC                                                                                                                                                                                                                                                                                                                                                                                                         000004
1007421072259COBR_CAUC_COR  BOMBRIL S/A                             005103939000286ZAMBONI COMERCIAL LTDA                  ROD BR116 RIO BAHIA KM 809,7 S/N        ALEM PARAIBA                            36660000MG4413700001022540330049359001  31082013900BRADESCO S/A        3009201300000000010215823CC                                                                                                                                                                                                                                                                                                                                                                                                         000005
1007421072259COBR_CAUC_BIC  BOMBRIL S/A                             012299281000104FUTURA DISTRIBUIDORA DE ALIM LTDA       ROD BR-040 KM 688 S/N, PAV 1 LJ9        CONTAGEM                                32145900MG4413900001022540680049298001  31082013019BELO HORIZONTE      1410201300000000010803531CC                                                                                                                                                                                                                                                                                                                                                                                                         000006
1007421072259COBR_CAUC_BIC  BOMBRIL S/A                             008450457000100EPOCA COM DISTR PROD ALIM IND LTDA      VER JOAQUIM COSTA AV GLP2 1405          CONTAGEM                                32150240MG4413800001022540410049309001  31082013019BELO HORIZONTE      1410201300000000010803531CC                                                                                                                                                                                                                                                                                                                                                                                                         000007
1018421018863COBR_CAUC_COR  PIVOT EQUIPAMENTOS AGRI E IRRI LTDA     001717041000166SILVIO UBIRATAN DIAS & CIA LTDA ME      RUA RODOLFO ADJUNTO, 20 - SLA 01        PARACATU                                38600000MG44140000010000600211420 1     13092013900BRADESCO S/A        1010201300000000011266600CC                                                                                                                                                                                                                                                                                                                                                                                                         000008
1018421018863COBR_CAUC_COR  PIVOT EQUIPAMENTOS AGRI E IRRI LTDA     001717041000166SILVIO UBIRATAN DIAS & CIA LTDA ME      RUA RODOLFO ADJUNTO, 20 - SLA 01        PARACATU                                38600000MG44140000020000601111420 2     13092013900BRADESCO S/A        1011201300000000011266600CC                                                                                                                                                                                                                                                                                                                                                                                                         000009
1018421018863COBR_CAUC_COR  PIVOT EQUIPAMENTOS AGRI E IRRI LTDA     001717041000166SILVIO UBIRATAN DIAS & CIA LTDA ME      RUA RODOLFO ADJUNTO, 20 - SLA 01        PARACATU                                38600000MG44140000030000602911420 3     13092013900BRADESCO S/A        1012201300000000011266800CC                                                                                                                                                                                                                                                                                                                                                                                                         000010
9000005                                                                                                                                                                                                                                                                                                                                                                                                                                                                                                                                                                                                                                                                                                               000011
