0REMESSANOTIFICACAO ELETRONICA        99999999999999BICBANCO                                AV. PAULISTA                            1048      12.ANDAR  BELA VISTA                    SAO PAULO                     01310100SP1121739360CORTINHAL                               COORDENADOR                             11092013                                                                                                                                                                                                                                                                                                                                                                                      000001
1021420930887COBR_CAUC_COR  DEDINI S/A INDUSTRIAS DE BASE           008657268000102USINA RIO PARDO LTDA                    ROD CASTELO BRANCO, S N KM 260,3 ENTRERIAVARE                                   18700970SP440480000106440262229478-1-1  06092013900BRADESCO S/A        2510201300000000023130583CC                                                                                                                                                                                                                                                                                                                                                                                                         000002
1007421067492COBR_CAUC_COR  ENERGY COML IMPORT E EXPORT LTDA        009363567000369PREMIX BRASIL RESINAS LTDA              ROD BR 101, KM 117,5,5600-SALA 6        ITAJAI                                  88311601SC440510000102238224009652      06092013800UNIBANCO S/A        2110201300000000114694400CC                                                                                                                                                                                                                                                                                                                                                                                                         000003
1020421002020COBR_CAUC_COR  GRABER SISTEMAS DE SEGURANCA LTDA       010588595000363MEDLEY COMERCIAL E LOGISTICA L          R ESTACIO DE SA, 1490 - JD SANTA GENEBRACAMPINAS                                13080010SP4404900001000113910000006415  09092013900BRADESCO S/A        0110201300000000013218646CC                                                                                                                                                                                                                                                                                                                                                                                                         000004
1007421067719COBR_CAUC_BIC  NEOLIDER COM.IMP.E EXP.DE ACOS LTDA     012884632000144GV DO BRASIL IND E COM DE ACO LTDA      ROD VER ABEL FABRICIO DIAS,4320 - KM.154PINDAMONHANGABA                         12445010SP440520000102238461055910/     03092013007PAULISTA            0310201300000000012528112CC                                                                                                                                                                                                                                                                                                                                                                                                         000005
1013421027167COBR_CAUC_COR  SPECIAL FRUIT IMP. E EXP. LTDA          010367146000123HORTIFRUTI AMMA LTDA                    AV. DR. GSTAO VIDIGAL PAV,461-1946      SAO PAULO                               05314000SP44050000010000121000009988    06092013900BRADESCO S/A        1610201300000000010225515CC                                                                                                                                                                                                                                                                                                                                                                                                         000006
1029140513521COBR_DESC_COR  VIA UNO S/A CALCADOS E ACESSORIOS       011286582000211GESTA E NASCIMENTO COMERCIO LTDA E      AV MARIO YPIRANGA LJ 33 PISO TUCUM, 1300MANAUS                                  69057002AM4407900001099433482019120232  30042013900BRADESCO S/A        1809201300000000000072421TD                                                                                                                                                                                                                                                                                                                                                                                                         000007
1029140513521COBR_DESC_COR  VIA UNO S/A CALCADOS E ACESSORIOS       011286582000211GESTA E NASCIMENTO COMERCIO LTDA E      AV MARIO YPIRANGA LJ 33 PISO TUCUM, 1300MANAUS                                  69057002AM4407900002099434112019120233  30042013900BRADESCO S/A        1810201300000000000072420TD                                                                                                                                                                                                                                                                                                                                                                                                         000008
1029140513521COBR_DESC_COR  VIA UNO S/A CALCADOS E ACESSORIOS       009458637000109AMANDA CRISTINA SAVI TRESOLDI- UBE      AV SANTA BEATRIZ DA SILVA LJ 131, 1501  UBERABA                                 38020433MG4408600001099666912058870232  31052013900BRADESCO S/A        3110201300000000000083417TD                                                                                                                                                                                                                                                                                                                                                                                                         000009
1029140513521COBR_DESC_COR  VIA UNO S/A CALCADOS E ACESSORIOS       009458637000109AMANDA CRISTINA SAVI TRESOLDI- UBE      AV SANTA BEATRIZ DA SILVA LJ 131, 1501  UBERABA                                 38020433MG4408600002099667712058870233  31052013900BRADESCO S/A        0212201300000000000083416TD                                                                                                                                                                                                                                                                                                                                                                                                         000010
1029140513521COBR_DESC_COR  VIA UNO S/A CALCADOS E ACESSORIOS       009458637000109AMANDA CRISTINA SAVI TRESOLDI- UBE      AV SANTA BEATRIZ DA SILVA LJ 131, 1501  UBERABA                                 38020433MG4408600003099667042058980232  31052013900BRADESCO S/A        3110201300000000001138865TD                                                                                                                                                                                                                                                                                                                                                                                                         000011
1029140513521COBR_DESC_COR  VIA UNO S/A CALCADOS E ACESSORIOS       009458637000109AMANDA CRISTINA SAVI TRESOLDI- UBE      AV SANTA BEATRIZ DA SILVA LJ 131, 1501  UBERABA                                 38020433MG4408600004099666582059390231  31052013900BRADESCO S/A        0110201300000000000423020TD                                                                                                                                                                                                                                                                                                                                                                                                         000012
1029140513521COBR_DESC_COR  VIA UNO S/A CALCADOS E ACESSORIOS       009458637000109AMANDA CRISTINA SAVI TRESOLDI- UBE      AV SANTA BEATRIZ DA SILVA LJ 131, 1501  UBERABA                                 38020433MG4408600005099667122059510232  31052013900BRADESCO S/A        3110201300000000000151853TD                                                                                                                                                                                                                                                                                                                                                                                                         000013
1029140513521COBR_DESC_COR  VIA UNO S/A CALCADOS E ACESSORIOS       009458637000109AMANDA CRISTINA SAVI TRESOLDI- UBE      AV SANTA BEATRIZ DA SILVA LJ 131, 1501  UBERABA                                 38020433MG4408600006099667982059510233  31052013900BRADESCO S/A        0212201300000000000151854TD                                                                                                                                                                                                                                                                                                                                                                                                         000014
1029140513521COBR_DESC_COR  VIA UNO S/A CALCADOS E ACESSORIOS       009458637000109AMANDA CRISTINA SAVI TRESOLDI- UBE      AV SANTA BEATRIZ DA SILVA LJ 131, 1501  UBERABA                                 38020433MG4408600007099667212060030232  03062013900BRADESCO S/A        3110201300000000000066767TD                                                                                                                                                                                                                                                                                                                                                                                                         000015
1029140513521COBR_DESC_COR  VIA UNO S/A CALCADOS E ACESSORIOS       009458637000109AMANDA CRISTINA SAVI TRESOLDI- UBE      AV SANTA BEATRIZ DA SILVA LJ 131, 1501  UBERABA                                 38020433MG4408600008099668102060030233  03062013900BRADESCO S/A        0212201300000000000066766TD                                                                                                                                                                                                                                                                                                                                                                                                         000016
1029140513521COBR_DESC_COR  VIA UNO S/A CALCADOS E ACESSORIOS       009458637000109AMANDA CRISTINA SAVI TRESOLDI- UBE      AV SANTA BEATRIZ DA SILVA LJ 131, 1501  UBERABA                                 38020433MG4408600009099666822060200232  03062013900BRADESCO S/A        3110201300000000000139295TD                                                                                                                                                                                                                                                                                                                                                                                                         000017
1029140513521COBR_DESC_COR  VIA UNO S/A CALCADOS E ACESSORIOS       009458637000109AMANDA CRISTINA SAVI TRESOLDI- UBE      AV SANTA BEATRIZ DA SILVA LJ 131, 1501  UBERABA                                 38020433MG4408600010099667552060330232  03062013900BRADESCO S/A        3110201300000000000043387TD                                                                                                                                                                                                                                                                                                                                                                                                         000018
1029140513521COBR_DESC_COR  VIA UNO S/A CALCADOS E ACESSORIOS       004888639000297A M GESTA DE MELLO - AMAZONAS SHOP      AV.DJALMA BATISTA LJ 210/211, 482       MANAUS                                  69050010AM4408500001099433132019090233  30042013900BRADESCO S/A        1809201300000000000023966TD                                                                                                                                                                                                                                                                                                                                                                                                         000019
1029140513521COBR_DESC_COR  VIA UNO S/A CALCADOS E ACESSORIOS       004888639000297A M GESTA DE MELLO - AMAZONAS SHOP      AV.DJALMA BATISTA LJ 210/211, 482       MANAUS                                  69050010AM4408500002099433212019100233  30042013900BRADESCO S/A        1809201300000000000044950TD                                                                                                                                                                                                                                                                                                                                                                                                         000020
1029140513521COBR_DESC_COR  VIA UNO S/A CALCADOS E ACESSORIOS       004888639000297A M GESTA DE MELLO - AMAZONAS SHOP      AV.DJALMA BATISTA LJ 210/211, 482       MANAUS                                  69050010AM4408500003099433302019110233  30042013900BRADESCO S/A        1809201300000000000027470TD                                                                                                                                                                                                                                                                                                                                                                                                         000021
1029140513521COBR_DESC_COR  VIA UNO S/A CALCADOS E ACESSORIOS       004888639000297A M GESTA DE MELLO - AMAZONAS SHOP      AV.DJALMA BATISTA LJ 210/211, 482       MANAUS                                  69050010AM4408500004099668012059530233  31052013900BRADESCO S/A        0212201300000000000098295TD                                                                                                                                                                                                                                                                                                                                                                                                         000022
1029140513521COBR_DESC_COR  VIA UNO S/A CALCADOS E ACESSORIOS       004888639000297A M GESTA DE MELLO - AMAZONAS SHOP      AV.DJALMA BATISTA LJ 210/211, 482       MANAUS                                  69050010AM4408500005099668282060040233  03062013900BRADESCO S/A        0212201300000000000127951TD                                                                                                                                                                                                                                                                                                                                                                                                         000023
1029140513521COBR_DESC_COR  VIA UNO S/A CALCADOS E ACESSORIOS       004888639000297A M GESTA DE MELLO - AMAZONAS SHOP      AV.DJALMA BATISTA LJ 210/211, 482       MANAUS                                  69050010AM4408500006099668362060390233  03062013900BRADESCO S/A        0212201300000000000138245TD                                                                                                                                                                                                                                                                                                                                                                                                         000024
1029140513521COBR_DESC_COR  VIA UNO S/A CALCADOS E ACESSORIOS       004888639000297A M GESTA DE MELLO - AMAZONAS SHOP      AV.DJALMA BATISTA LJ 210/211, 482       MANAUS                                  69050010AM4408500007099666662061290231  04062013900BRADESCO S/A        0110201300000000000315107TD                                                                                                                                                                                                                                                                                                                                                                                                         000025
1029140513521COBR_DESC_COR  VIA UNO S/A CALCADOS E ACESSORIOS       004888639000297A M GESTA DE MELLO - AMAZONAS SHOP      AV.DJALMA BATISTA LJ 210/211, 482       MANAUS                                  69050010AM4408500008099666742063600231  05062013900BRADESCO S/A        2910201300000000000297184TD                                                                                                                                                                                                                                                                                                                                                                                                         000026
1029140513521COBR_DESC_COR  VIA UNO S/A CALCADOS E ACESSORIOS       004888639000297A M GESTA DE MELLO - AMAZONAS SHOP      AV.DJALMA BATISTA LJ 210/211, 482       MANAUS                                  69050010AM4408500009099667632063600232  05062013900BRADESCO S/A        2811201300000000000297184TD                                                                                                                                                                                                                                                                                                                                                                                                         000027
1029140513521COBR_DESC_BIC  VIA UNO S/A CALCADOS E ACESSORIOS       008397798000169VIELE COM CALC LTDA - CASCAVEL          RIO GRANDE DO SUL, 1797                 CASCAVEL                                85801011PR4408400001099667392060100231  03062013016CURITIBA            3110201300000000000537950TD                                                                                                                                                                                                                                                                                                                                                                                                         000028
1029140513521COBR_DESC_BIC  VIA UNO S/A CALCADOS E ACESSORIOS       009083484000154FOZ CATARATAS COM CAL LTDA              R:RIO GRANDE DO SUL, 1797               CASCAVEL                                85801011PR4408300001099667472060110231  03062013016CURITIBA            3110201300000000000537950TD                                                                                                                                                                                                                                                                                                                                                                                                         000029
1029140513521COBR_DESC_COR  VIA UNO S/A CALCADOS E ACESSORIOS       017514887000139PCAS COMERCIO DE CALCADOS E ACESSO      RUA CORONEL CHICUTA  LOJA 254, 355      PASSO FUNDO                             99010050RS4408200001099433562019130233  30042013900BRADESCO S/A        1809201300000000000096305TD                                                                                                                                                                                                                                                                                                                                                                                                         000030
1029140513521COBR_DESC_COR  VIA UNO S/A CALCADOS E ACESSORIOS       017514887000139PCAS COMERCIO DE CALCADOS E ACESSO      RUA CORONEL CHICUTA  LOJA 254, 355      PASSO FUNDO                             99010050RS4408200002099433642019140233  30042013900BRADESCO S/A        1809201300000000000046694TD                                                                                                                                                                                                                                                                                                                                                                                                         000031
1029140513521COBR_DESC_COR  VIA UNO S/A CALCADOS E ACESSORIOS       017514887000139PCAS COMERCIO DE CALCADOS E ACESSO      RUA CORONEL CHICUTA  LOJA 254, 355      PASSO FUNDO                             99010050RS4408200003099433722019150233  30042013900BRADESCO S/A        1809201300000000000017523TD                                                                                                                                                                                                                                                                                                                                                                                                         000032
1029140513521COBR_DESC_COR  VIA UNO S/A CALCADOS E ACESSORIOS       017514887000139PCAS COMERCIO DE CALCADOS E ACESSO      RUA CORONEL CHICUTA  LOJA 254, 355      PASSO FUNDO                             99010050RS4408200004099433812019160233  30042013900BRADESCO S/A        1809201300000000000037550TD                                                                                                                                                                                                                                                                                                                                                                                                         000033
1029140513521COBR_DESC_COR  VIA UNO S/A CALCADOS E ACESSORIOS       017514887000139PCAS COMERCIO DE CALCADOS E ACESSO      RUA CORONEL CHICUTA  LOJA 254, 355      PASSO FUNDO                             99010050RS4408200005099433992019170233  30042013900BRADESCO S/A        1809201300000000000110996TD                                                                                                                                                                                                                                                                                                                                                                                                         000034
1029140513521COBR_DESC_COR  VIA UNO S/A CALCADOS E ACESSORIOS       017514887000139PCAS COMERCIO DE CALCADOS E ACESSO      RUA CORONEL CHICUTA  LOJA 254, 355      PASSO FUNDO                             99010050RS4408200006099434022019180233  30042013900BRADESCO S/A        1809201300000000000015643TD                                                                                                                                                                                                                                                                                                                                                                                                         000035
1029140513521COBR_DESC_BIC  VIA UNO S/A CALCADOS E ACESSORIOS       011457319000167DUDA SHOES COM. VEST. E CALÇADOS L      AV. JULIO DE ROSE - LJ.137, 80          PORTO ALEGRE                            91340110RS4408100001099667802059420233  31052013015PORTO ALEGRE        0212201300000000000081350TD                                                                                                                                                                                                                                                                                                                                                                                                         000036
1029140513521COBR_DESC_BIC  VIA UNO S/A CALCADOS E ACESSORIOS       011457319000167DUDA SHOES COM. VEST. E CALÇADOS L      AV. JULIO DE ROSE - LJ.137, 80          PORTO ALEGRE                            91340110RS4408100002099668442061450233  04062013015PORTO ALEGRE        0212201300000000000135170TD                                                                                                                                                                                                                                                                                                                                                                                                         000037
1029140513521COBR_DESC_BIC  VIA UNO S/A CALCADOS E ACESSORIOS       010476680000178HANSEN MARTINS CALC. LTDA EPP-CAMP      R. JACY TEIXEIRA DE CAMARGO, 940 LJ 418 CAMPINAS                                13050913SP4408000001099432832013050233  29042013021CAMPINAS            1709201300000000000012516TD                                                                                                                                                                                                                                                                                                                                                                                                         000038
1029140513521COBR_DESC_BIC  VIA UNO S/A CALCADOS E ACESSORIOS       010476680000178HANSEN MARTINS CALC. LTDA EPP-CAMP      R. JACY TEIXEIRA DE CAMARGO, 940 LJ 418 CAMPINAS                                13050913SP4408000002099432912014070233  29042013021CAMPINAS            1709201300000000000025034TD                                                                                                                                                                                                                                                                                                                                                                                                         000039
1029140513521COBR_DESC_BIC  VIA UNO S/A CALCADOS E ACESSORIOS       010476680000178HANSEN MARTINS CALC. LTDA EPP-CAMP      R. JACY TEIXEIRA DE CAMARGO, 940 LJ 418 CAMPINAS                                13050913SP4408000003099433052018440233  30042013021CAMPINAS            1809201300000000000042573TD                                                                                                                                                                                                                                                                                                                                                                                                         000040
1029140513521COBR_DESC_BIC  VIA UNO S/A CALCADOS E ACESSORIOS       010476680000178HANSEN MARTINS CALC. LTDA EPP-CAMP      R. JACY TEIXEIRA DE CAMARGO, 940 LJ 418 CAMPINAS                                13050913SP4408000004099666402038000233  08052013021CAMPINAS            3009201300000000000111527TD                                                                                                                                                                                                                                                                                                                                                                                                         000041
9000013                                                                                                                                                                                                                                                                                                                                                                                                                                                                                                                                                                                                                                                                                                               000042
