0REMESSANOTIFICACAO ELETRONICA        99999999999999BICBANCO                                AV. PAULISTA                            1048      12.ANDAR  BELA VISTA                    SAO PAULO                     01310100SP1121739360CORTINHAL                               COORDENADOR                             22122011                                                                                                                                                                                                                                                                                                                                                                                      000001
1031421007893COBR_CAUC_BIC  DIPLOMATA S/A  INDL. E COMERCIAL        007718633004257UNIDASUL DISTRIBUIDORA ALIMENTICIA      ROD BR 116 KM 12, S/N PAV 5 CAD 1       ESTEIO                                  93270000RS3266900001049573080321258-01  20122011015PORTO ALEGRE        3101201200000000011280000CC                                                                                                                                                                                                                                                                                                                                                                                                         000002
1014420939021COBR_CAUC_BIC  EDITORA O DIA S/A                       033747288000111FEDER.EMPR.TRANSP.RODOV.LESTE M.BR      RUA DA ASSEMBLEIA 10 39 A/C. SR.ED      RIO DE JANEIRO                          20119900RJ3267000001023837830624734     21122011014RIO DE JANEIRO      1501201200000000011582540CC                                                                                                                                                                                                                                                                                                                                                                                                         000003
1003441000362COBR_CAUC_BIC  PESQUEIRA MAGUARY LTDA                  007793833000104SAUDE RIO E MAR COMERCIO DE ALIMEN      Q. SETOR ARMAZENAGE,02-NORTE QD 02      BRASILIA                                71215207DF326710000104064109000003132A  20122011009BRASILIA            3001201200000000012050000CC                                                                                                                                                                                                                                                                                                                                                                                                         000004
1003441000362COBR_CAUC_BIC  PESQUEIRA MAGUARY LTDA                  007793833000104SAUDE RIO E MAR COMERCIO DE ALIMEN      Q. SETOR ARMAZENAGE,02-NORTE QD 02      BRASILIA                                71215207DF326710000204064117000003132B  20122011009BRASILIA            0502201200000000012050000CC                                                                                                                                                                                                                                                                                                                                                                                                         000005
1038421011812COBR_CAUC_BIC  ENERGY COML IMPORT E EXPORT LTDA        009363567000105PREMIX BRASIL RESINAS                   ALAMEDA ARAGU,2044-CJ703A705TORRE2      SAO PAULO                               06455000SP3267200001094991886890        14122011007PAULISTA            2701201200000000229917393CC                                                                                                                                                                                                                                                                                                                                                                                                         000006
1050421000089COBR_CAUC_COR  ATIVO ALIMENTOS LTDA                    012023966003734BONANZA SUPERMERCADOS LTDA              ROD BR-232 KM137 CAMARAS 03 E 04 S/N 0  CARUARU                                 55034640PE326730000100299765117968/1    20122011800UNIBANCO S/A        1901201200000000014578151CC                                                                                                                                                                                                                                                                                                                                                                                                         000007
1007421032516COBR_CAUC_BIC  NITRIFLEX SP IND E COM DE BORRACHAS     062143847000182DACARTO BENVIC LTDA.                    ESTRADA DA ALPINA, 59                   OSASCO                                  06278903SP326740000100993432000826501   21122011007PAULISTA            0102201200000000033252546CC                                                                                                                                                                                                                                                                                                                                                                                                         000008
1032421019881COBR_CAUC_COR  JOINVEST SECURITIZADORA S/A             005907238000119ICEPORT TERMINAL FRIGORIFICO NAVEG      RUA ANIBAL GAYA, 767                    ITAJAI                                  88304360SC3267500001001515903977        13122011900BRADESCO S/A        1102201200000000017380000CC                                                                                                                                                                                                                                                                                                                                                                                                         000009
9000007                                                                                                                                                                                                                                                                                                                                                                                                                                                                                                                                                                                                                                                                                                               000010
