0REMESSANOTIFICACAO ELETRONICA        99999999999999BICBANCO                                AV. PAULISTA                            1048      12.ANDAR  BELA VISTA                    SAO PAULO                     01310100SP1121739360CORTINHAL                               COORDENADOR                             09072013                                                                                                                                                                                                                                                                                                                                                                                      000001
1046421001443COBR_CAUC_COR  COSTAO DO SANTINHO TUR E LAZER LTDA     002932074000604HYPERMARCAS S/A                         AV. PRESIDENTE KUBITSCHECK,1830         SAO PAULO                               04543900SP42959000010001107308072013    08072013900BRADESCO S/A        2607201300000000025000000CC                                                                                                                                                                                                                                                                                                                                                                                                         000002
1008421022487COBR_CAUC_COR  EBP - EMPRESA BRASILEIRA DE PESCADO     033304981000110SUPERMERCADOS MUNDIAL LTDA              RUA  DONA EMILIA, 2                     RIO DE JANEIRO                          20765110RJ4296100001016275300019837/    27062013900BRADESCO S/A        1707201300000000031050000CC                                                                                                                                                                                                                                                                                                                                                                                                         000003
1016421008591COBR_CAUC_BIC  GLOBOAVES SAO PAULO AGROAVICOLA LTD     083044016000980TYSON DO BRASIL ALIMENTOS LTDA          ROD BR 487 ESTR BOIADEIRA KM 185,0      CAMPO MOURAO                            87305380PR429600000104066691094513      04072013016CURITIBA            0108201300000000010963000CC                                                                                                                                                                                                                                                                                                                                                                                                         000004
1028421002921COBR_CAUC_COR  MATABOI ALIMENTOS S/A - EM REC.JUD.     016559614000148SOBERANO INDUSTRIA E COMERCIO DE A      RUA MANUEL DUARTE167GALPAO PARTE G      SAO GONCALO                             24430500RJ4295400001003850480010504001  05072013900BRADESCO S/A        0208201300000000015549548CC                                                                                                                                                                                                                                                                                                                                                                                                         000005
1029421018494COBR_CAUC_BIC  PRO SALUTE SERVICOS PARA SAUDE LTDA     088611264000122INTRAL S A IND DE MATERIAIS ELETRI      TRAV. RIO GRANDE , 130                  CAXIAS DO SUL                           95098750RS4295600001099866240133693.A   03072013029CAXIAS DO SUL       1008201300000000010148249CC                                                                                                                                                                                                                                                                                                                                                                                                         000006
1029421018494COBR_CAUC_BIC  PRO SALUTE SERVICOS PARA SAUDE LTDA     093785822000106SAN MARINO ONIBUS E IMPLEMENTOS LT      IRMAO GILDO SCHIAVO, 110                CAXIAS DO SUL                           95058510RS4295800001099866410133740.A   03072013029CAXIAS DO SUL       2007201300000000018130349CC                                                                                                                                                                                                                                                                                                                                                                                                         000007
1029421018494COBR_CAUC_BIC  PRO SALUTE SERVICOS PARA SAUDE LTDA     090467424000153VIACAO SANTA TEREZA DE CAXIAS DO S      RUA JULIO CALEGARI, 940                 CAXIAS DO SUL                           95095230RS4295700001099866590133759.A   03072013029CAXIAS DO SUL       1807201300000000022987994CC                                                                                                                                                                                                                                                                                                                                                                                                         000008
1009420930764COBR_CAUC_BIC  SA CORREIO BRAZILIENSE                  027865757002571GLOBO COMUNICACAO E PARTICIPACOES       SRTVN Q 701 CONJ. A ED TV GLOBO ASA  NORBRASILIA                                70719901DF4295500001014029812003-1      08072013009BRASILIA            3007201300000000012765480CC                                                                                                                                                                                                                                                                                                                                                                                                         000009
9000008                                                                                                                                                                                                                                                                                                                                                                                                                                                                                                                                                                                                                                                                                                               000010
