0REMESSANOTIFICACAO ELETRONICA        99999999999999BICBANCO                                AV. PAULISTA                            1048      12.ANDAR  BELA VISTA                    SAO PAULO                     01310100SP1121739360CORTINHAL                               COORDENADOR                             31102011                                                                                                                                                                                                                                                                                                                                                                                      000001
1021141012725COBR_CAUC_BIC  MABE BRASIL ELETRODOMESTICOS LTDA       056642960000100LOJAS CEM S/A                           ROD.ENG.ERMENIO OLIVE 0, KM 46 S/N      SALTO                                   13329900SP3162000001062232960000059536  27102011021CAMPINAS            1611201100000000013471939TD                                                                                                                                                                                                                                                                                                                                                                                                         000002
1021141012725COBR_CAUC_BIC  MABE BRASIL ELETRODOMESTICOS LTDA       056642960000100LOJAS CEM S/A                           ROD.ENG.ERMENIO OLIVE 0, KM 46 S/N      SALTO                                   13329900SP3162000002062233000000059538  27102011021CAMPINAS            1611201100000000013471939TD                                                                                                                                                                                                                                                                                                                                                                                                         000003
1021141012725COBR_CAUC_BIC  MABE BRASIL ELETRODOMESTICOS LTDA       056642960000100LOJAS CEM S/A                           ROD.ENG.ERMENIO OLIVE 0, KM 46 S/N      SALTO                                   13329900SP3162000003062233180000059542  27102011021CAMPINAS            1611201100000000013471939TD                                                                                                                                                                                                                                                                                                                                                                                                         000004
1021141012725COBR_CAUC_BIC  MABE BRASIL ELETRODOMESTICOS LTDA       056642960000100LOJAS CEM S/A                           ROD.ENG.ERMENIO OLIVE 0, KM 46 S/N      SALTO                                   13329900SP3162000004062233260000059543  27102011021CAMPINAS            1611201100000000013471939TD                                                                                                                                                                                                                                                                                                                                                                                                         000005
1021141012725COBR_CAUC_BIC  MABE BRASIL ELETRODOMESTICOS LTDA       056642960000100LOJAS CEM S/A                           ROD.ENG.ERMENIO OLIVE 0, KM 46 S/N      SALTO                                   13329900SP3162000005062233340000059544  27102011021CAMPINAS            1611201100000000013471939TD                                                                                                                                                                                                                                                                                                                                                                                                         000006
1021141012725COBR_CAUC_BIC  MABE BRASIL ELETRODOMESTICOS LTDA       056642960000100LOJAS CEM S/A                           ROD.ENG.ERMENIO OLIVE 0, KM 46 S/N      SALTO                                   13329900SP3162000006062233420000059557  27102011021CAMPINAS            1611201100000000013471939TD                                                                                                                                                                                                                                                                                                                                                                                                         000007
1021141012725COBR_CAUC_BIC  MABE BRASIL ELETRODOMESTICOS LTDA       056642960000100LOJAS CEM S/A                           ROD.ENG.ERMENIO OLIVE 0, KM 46 S/N      SALTO                                   13329900SP3162000007062233510000059636  28102011021CAMPINAS            1611201100000000013471939TD                                                                                                                                                                                                                                                                                                                                                                                                         000008
1021141012725COBR_CAUC_BIC  MABE BRASIL ELETRODOMESTICOS LTDA       056642960000100LOJAS CEM S/A                           ROD.ENG.ERMENIO OLIVE 0, KM 46 S/N      SALTO                                   13329900SP3162000008062233690000059637  28102011021CAMPINAS            1611201100000000013471939TD                                                                                                                                                                                                                                                                                                                                                                                                         000009
1018421005230COBR_CAUC_COR  CENTROALCOOL S/A                        002368373000226NAKI DISTRIBUIDORA DE COMBUSTIVEIS      RUA JC 19                               SENADOR CANEDO                          75250000GO31621000010249091237950/AA    28102011800UNIBANCO S/A        2304201200000000040000000CC                                                                                                                                                                                                                                                                                                                                                                                                         000010
1018421005230COBR_CAUC_COR  CENTROALCOOL S/A                        002368373000226NAKI DISTRIBUIDORA DE COMBUSTIVEIS      RUA JC 19                               SENADOR CANEDO                          75250000GO31621000020249092137950/AB    28102011800UNIBANCO S/A        3004201200000000040000000CC                                                                                                                                                                                                                                                                                                                                                                                                         000011
1018421005230COBR_CAUC_COR  CENTROALCOOL S/A                        002368373000226NAKI DISTRIBUIDORA DE COMBUSTIVEIS      RUA JC 19                               SENADOR CANEDO                          75250000GO31621000030249093937950/AC    28102011800UNIBANCO S/A        0705201200000000040000000CC                                                                                                                                                                                                                                                                                                                                                                                                         000012
1018421005230COBR_CAUC_COR  CENTROALCOOL S/A                        002368373000226NAKI DISTRIBUIDORA DE COMBUSTIVEIS      RUA JC 19                               SENADOR CANEDO                          75250000GO31621000040249094737950/AD    28102011800UNIBANCO S/A        1405201200000000040000000CC                                                                                                                                                                                                                                                                                                                                                                                                         000013
1018421005230COBR_CAUC_COR  CENTROALCOOL S/A                        002368373000226NAKI DISTRIBUIDORA DE COMBUSTIVEIS      RUA JC 19                               SENADOR CANEDO                          75250000GO31621000050249095537950/AE    28102011800UNIBANCO S/A        2105201200000000040000000CC                                                                                                                                                                                                                                                                                                                                                                                                         000014
1016421000809COBR_CAUC_BIC  LOGIKA DISTRIBUIDORA COSMETICOS LTD     025769266000124ARCOM S/A                               ANEL VIARIO AYRTON SENNA, 2001          UBERLANDIA                              38414512MG3162200001032204330008097/01  28092011028UBERLANDIA          2811201100000000014200200CC                                                                                                                                                                                                                                                                                                                                                                                                         000015
1016421000809COBR_CAUC_BIC  LOGIKA DISTRIBUIDORA COSMETICOS LTD     025769266000124ARCOM S/A                               ANEL VIARIO AYRTON SENNA, 2001          UBERLANDIA                              38414512MG3162200002032204410009034/01  26102011028UBERLANDIA          2612201100000000019609800CC                                                                                                                                                                                                                                                                                                                                                                                                         000016
1016421000809COBR_CAUC_BIC  LOGIKA DISTRIBUIDORA COSMETICOS LTD     025769266000124ARCOM S/A                               ANEL VIARIO AYRTON SENNA, 2001          UBERLANDIA                              38414512MG3162200003032204500009167/01  27102011028UBERLANDIA          2612201100000000013524000CC                                                                                                                                                                                                                                                                                                                                                                                                         000017
1046421001443COBR_CAUC_COR  COSTAO DO SANTINHO TUR E LAZER LTDA     081015158000137PRIMEIRO MUNDO AGENTE DE VIAGENS L      R. ANGELO DIAS,207-SALA 52              BLUMENAU                                89010020SC316230000100004310117569      27102011900BRADESCO S/A        1711201100000000019461355CC                                                                                                                                                                                                                                                                                                                                                                                                         000018
1007421034080COBR_CAUC_BIC  SIDMEX INTERNACIONAL LTDA               045145075000107SANTO ANDRE DISTRIBUIDORA INDUSTRI      RUA CAIUBI ,60                          SANTO ANDRE                             09185610SP316240000100889872376.11      27102011038ABC                 1011201100000000011498288CC                                                                                                                                                                                                                                                                                                                                                                                                         000019
1016421019291COBR_CAUC_BIC  ITESA LTDA                              041757527000495EATON LTDA                              RUA CLARK 2061                          VALINHOS                                13279400SP31625000010322050616724       27102011021CAMPINAS            2811201100000000039048200CC                                                                                                                                                                                                                                                                                                                                                                                                         000020
9000006                                                                                                                                                                                                                                                                                                                                                                                                                                                                                                                                                                                                                                                                                                               000021
