0REMESSANOTIFICACAO ELETRONICA        99999999999999BICBANCO                                AV. PAULISTA                            1048      12.ANDAR  BELA VISTA                    SAO PAULO                     01310100SP1121739360CORTINHAL                               COORDENADOR                             12092011                                                                                                                                                                                                                                                                                                                                                                                      000001
1031421007893COBR_CAUC_COR  DIPLOMATA S/A  INDL. E COMERCIAL        005907238000119ICEPORT  TERM FRIGORÍFICO DE NAVEG      RUA ANIBAL GAYA 707                     NAVEGANTES                              88375000SC3003000001049220670126575-01  06092011800UNIBANCO S/A        0610201100000000013335894CC                                                                                                                                                                                                                                                                                                                                                                                                         000002
1031421007893COBR_CAUC_COR  DIPLOMATA S/A  INDL. E COMERCIAL        006696990000120SHOW DISTRIBUIDORA PRODUTOS ALIMEN      AV EUDES SCHERRER DE SOUZA 2001         SERRA                                   29162173ES3003100001049220830005629-01  08092011800UNIBANCO S/A        1410201100000000013140000CC                                                                                                                                                                                                                                                                                                                                                                                                         000003
1032421000854COBR_CAUC_BIC  METALURGICA IANY IND E COM LTDA         076639285000762FERRAGENS NEGRAO COMERCIAL LTDA         RUA PROF. ALGACYR M. MADER, 2800        CURITIBA - PR                           81310020PR30032000010979236916140-1/1   08092011016CURITIBA            2310201100000000012306900CC                                                                                                                                                                                                                                                                                                                                                                                                         000004
9000003                                                                                                                                                                                                                                                                                                                                                                                                                                                                                                                                                                                                                                                                                                               000005
