0REMESSANOTIFICACAO ELETRONICA        99999999999999BICBANCO                                AV. PAULISTA                            1048      12.ANDAR  BELA VISTA                    SAO PAULO                     01310100SP1121739360CORTINHAL                               COORDENADOR                             08042013                                                                                                                                                                                                                                                                                                                                                                                      000001
1015421022448COBR_CAUC_BIC  INTAB IND DE TABACOS E AGROP LTDA       004551794001376VALESUL BRASIL TABACOS LTDA             ROD RSC 287 S/N KM 78                   STA CRUZ DO SUL                         96878000RS412710000101020990413         01042013015PORTO ALEGRE        1507201300000000016119388CC                                                                                                                                                                                                                                                                                                                                                                                                         000002
1015421022448COBR_CAUC_BIC  INTAB IND DE TABACOS E AGROP LTDA       004551794001376VALESUL BRASIL TABACOS LTDA             ROD RSC 287 S/N KM 78                   STA CRUZ DO SUL                         96878000RS4127100002010210154896        01042013015PORTO ALEGRE        1507201300000000016124555CC                                                                                                                                                                                                                                                                                                                                                                                                         000003
1015421022448COBR_CAUC_BIC  INTAB IND DE TABACOS E AGROP LTDA       004551794001376VALESUL BRASIL TABACOS LTDA             ROD RSC 287 S/N KM 78                   STA CRUZ DO SUL                         96878000RS4127100003010210234909        01042013015PORTO ALEGRE        1507201300000000015198567CC                                                                                                                                                                                                                                                                                                                                                                                                         000004
1015421022448COBR_CAUC_BIC  INTAB IND DE TABACOS E AGROP LTDA       004551794001376VALESUL BRASIL TABACOS LTDA             ROD RSC 287 S/N KM 78                   STA CRUZ DO SUL                         96878000RS4127100004010210581242        01042013015PORTO ALEGRE        1507201300000000013830768CC                                                                                                                                                                                                                                                                                                                                                                                                         000005
1015421022448COBR_CAUC_BIC  INTAB IND DE TABACOS E AGROP LTDA       004551794001376VALESUL BRASIL TABACOS LTDA             ROD RSC 287 S/N KM 78                   STA CRUZ DO SUL                         96878000RS4127100005010210664917        01042013015PORTO ALEGRE        1507201300000000015793680CC                                                                                                                                                                                                                                                                                                                                                                                                         000006
1015421022448COBR_CAUC_BIC  INTAB IND DE TABACOS E AGROP LTDA       004551794001376VALESUL BRASIL TABACOS LTDA             ROD RSC 287 S/N KM 78                   STA CRUZ DO SUL                         96878000RS4127100006010210824924        01042013015PORTO ALEGRE        1507201300000000013498846CC                                                                                                                                                                                                                                                                                                                                                                                                         000007
1017421013340DIR_CREDIT     LIMPEL LIMPEZA URBANA LTDA              015339921000150SLEA SAO LUIZ ENGENHARIA AMBIENTAL S/A  RUA DOZE, 01, LOTE 1, QD G DIST INDUST  SAO LUIZ                                65090260MA4127700001                                                                                                                                          481013487           05052012000002260673.040.1005/05042013000404locação de equipamentos, conforme anexo 1.                                                                                                                                                                                                      002499321000108              000008
1036421018985COBR_CAUC_BIC  PEEQFLEX INDUSTRIA E COMERCIO LTDA      060723061055868YAKULT S/A IND.COM                      Alameda Santos, 771                     SAO PAULO                               01419000SP4127200001059428476021392-01  05042013007PAULISTA            2604201300000000016635806CC                                                                                                                                                                                                                                                                                                                                                                                                         000009
9000003                                                                                                                                                                                                                                                                                                                                                                                                                                                                                                                                                                                                                                                                                                               000010
