0REMESSANOTIFICACAO ELETRONICA        99999999999999BICBANCO                                AV. PAULISTA                            1048      12.ANDAR  BELA VISTA                    SAO PAULO                     01310100SP1121739360CORTINHAL                               COORDENADOR                             02042013                                                                                                                                                                                                                                                                                                                                                                                      000001
1048421000095COBR_CAUC_BIC  ACUMULADORES AJAX LTDA                  004781786000182LIEST PRO PROD SERV DE INFORM TELE      RUA MANOEL COELHO 600                   SAO CAETANO DO                          09510101SP411740000100643784025234101   27022013038ABC                 1804201300000000000025900CC                                                                                                                                                                                                                                                                                                                                                                                                         000002
1048421000095COBR_CAUC_BIC  ACUMULADORES AJAX LTDA                  004781786000182LIEST PRO PROD SERV DE INFORM TELE      RUA MANOEL COELHO 600                   SAO CAETANO DO                          09510101SP411740000200643792003131201   27022013038ABC                 1804201300000000000029785CC                                                                                                                                                                                                                                                                                                                                                                                                         000003
1048421000095COBR_CAUC_BIC  ACUMULADORES AJAX LTDA                  004781786000182LIEST PRO PROD SERV DE INFORM TELE      RUA MANOEL COELHO 600                   SAO CAETANO DO                          09510101SP411740000300643814025234002   27022013038ABC                 1504201300000000000061914CC                                                                                                                                                                                                                                                                                                                                                                                                         000004
1048421000095COBR_CAUC_BIC  ACUMULADORES AJAX LTDA                  004781786000182LIEST PRO PROD SERV DE INFORM TELE      RUA MANOEL COELHO 600                   SAO CAETANO DO                          09510101SP411740000400643822025234003   27022013038ABC                 2904201300000000000061932CC                                                                                                                                                                                                                                                                                                                                                                                                         000005
1048421000095COBR_CAUC_BIC  ACUMULADORES AJAX LTDA                  006125974000188ELETROJAX COMERCIO DE BATERIAS COM      RUA DAS CARMELITAS 3259                 CURITIBA                                81730050PR411940000100646538025285307   11032013016CURITIBA            1006201300000000000258951CC                                                                                                                                                                                                                                                                                                                                                                                                         000006
1048421000095COBR_CAUC_BIC  ACUMULADORES AJAX LTDA                  006125974000188ELETROJAX COMERCIO DE BATERIAS COM      RUA DAS CARMELITAS 3259                 CURITIBA                                81730050PR411940000200646121003157402   11032013016CURITIBA            2204201300000000000347550CC                                                                                                                                                                                                                                                                                                                                                                                                         000007
1048421000095COBR_CAUC_BIC  ACUMULADORES AJAX LTDA                  006125974000188ELETROJAX COMERCIO DE BATERIAS COM      RUA DAS CARMELITAS 3259                 CURITIBA                                81730050PR411940000300646139003157403   11032013016CURITIBA            3004201300000000000347550CC                                                                                                                                                                                                                                                                                                                                                                                                         000008
1048421000095COBR_CAUC_BIC  ACUMULADORES AJAX LTDA                  006125974000188ELETROJAX COMERCIO DE BATERIAS COM      RUA DAS CARMELITAS 3259                 CURITIBA                                81730050PR411940000400646147003157404   11032013016CURITIBA            1005201300000000000347550CC                                                                                                                                                                                                                                                                                                                                                                                                         000009
1048421000095COBR_CAUC_BIC  ACUMULADORES AJAX LTDA                  006125974000188ELETROJAX COMERCIO DE BATERIAS COM      RUA DAS CARMELITAS 3259                 CURITIBA                                81730050PR411940000500646155003157405   11032013016CURITIBA            2005201300000000000347550CC                                                                                                                                                                                                                                                                                                                                                                                                         000010
1048421000095COBR_CAUC_BIC  ACUMULADORES AJAX LTDA                  006125974000188ELETROJAX COMERCIO DE BATERIAS COM      RUA DAS CARMELITAS 3259                 CURITIBA                                81730050PR411940000600646163003157406   11032013016CURITIBA            3005201300000000000347550CC                                                                                                                                                                                                                                                                                                                                                                                                         000011
1048421000095COBR_CAUC_BIC  ACUMULADORES AJAX LTDA                  006125974000188ELETROJAX COMERCIO DE BATERIAS COM      RUA DAS CARMELITAS 3259                 CURITIBA                                81730050PR411940000700646171003157407   11032013016CURITIBA            1006201300000000000348522CC                                                                                                                                                                                                                                                                                                                                                                                                         000012
1048421000095COBR_CAUC_BIC  ACUMULADORES AJAX LTDA                  006125974000188ELETROJAX COMERCIO DE BATERIAS COM      RUA DAS CARMELITAS 3259                 CURITIBA                                81730050PR411940000800646180003157501   11032013016CURITIBA            1004201300000000000021361CC                                                                                                                                                                                                                                                                                                                                                                                                         000013
1048421000095COBR_CAUC_BIC  ACUMULADORES AJAX LTDA                  006125974000188ELETROJAX COMERCIO DE BATERIAS COM      RUA DAS CARMELITAS 3259                 CURITIBA                                81730050PR411940000900646198003157502   11032013016CURITIBA            2204201300000000000014776CC                                                                                                                                                                                                                                                                                                                                                                                                         000014
1048421000095COBR_CAUC_BIC  ACUMULADORES AJAX LTDA                  006125974000188ELETROJAX COMERCIO DE BATERIAS COM      RUA DAS CARMELITAS 3259                 CURITIBA                                81730050PR411940001000646201003157503   11032013016CURITIBA            3004201300000000000014776CC                                                                                                                                                                                                                                                                                                                                                                                                         000015
1048421000095COBR_CAUC_BIC  ACUMULADORES AJAX LTDA                  006125974000188ELETROJAX COMERCIO DE BATERIAS COM      RUA DAS CARMELITAS 3259                 CURITIBA                                81730050PR411940001100646210003157504   11032013016CURITIBA            1005201300000000000014776CC                                                                                                                                                                                                                                                                                                                                                                                                         000016
1048421000095COBR_CAUC_BIC  ACUMULADORES AJAX LTDA                  006125974000188ELETROJAX COMERCIO DE BATERIAS COM      RUA DAS CARMELITAS 3259                 CURITIBA                                81730050PR411940001200646228003157505   11032013016CURITIBA            2005201300000000000014776CC                                                                                                                                                                                                                                                                                                                                                                                                         000017
1048421000095COBR_CAUC_BIC  ACUMULADORES AJAX LTDA                  006125974000188ELETROJAX COMERCIO DE BATERIAS COM      RUA DAS CARMELITAS 3259                 CURITIBA                                81730050PR411940001300646236003157506   11032013016CURITIBA            3005201300000000000014776CC                                                                                                                                                                                                                                                                                                                                                                                                         000018
1048421000095COBR_CAUC_BIC  ACUMULADORES AJAX LTDA                  006125974000188ELETROJAX COMERCIO DE BATERIAS COM      RUA DAS CARMELITAS 3259                 CURITIBA                                81730050PR411940001400646244003157507   11032013016CURITIBA            1006201300000000000014815CC                                                                                                                                                                                                                                                                                                                                                                                                         000019
1048421000095COBR_CAUC_BIC  ACUMULADORES AJAX LTDA                  006125974000188ELETROJAX COMERCIO DE BATERIAS COM      RUA DAS CARMELITAS 3259                 CURITIBA                                81730050PR411940001500646406025285501   11032013016CURITIBA            1004201300000000000019275CC                                                                                                                                                                                                                                                                                                                                                                                                         000020
1048421000095COBR_CAUC_BIC  ACUMULADORES AJAX LTDA                  006125974000188ELETROJAX COMERCIO DE BATERIAS COM      RUA DAS CARMELITAS 3259                 CURITIBA                                81730050PR411940001600646414025285502   11032013016CURITIBA            2204201300000000000019275CC                                                                                                                                                                                                                                                                                                                                                                                                         000021
1048421000095COBR_CAUC_BIC  ACUMULADORES AJAX LTDA                  006125974000188ELETROJAX COMERCIO DE BATERIAS COM      RUA DAS CARMELITAS 3259                 CURITIBA                                81730050PR411940001700646422025285503   11032013016CURITIBA            3004201300000000000019275CC                                                                                                                                                                                                                                                                                                                                                                                                         000022
1048421000095COBR_CAUC_BIC  ACUMULADORES AJAX LTDA                  006125974000188ELETROJAX COMERCIO DE BATERIAS COM      RUA DAS CARMELITAS 3259                 CURITIBA                                81730050PR411940001800646431025285504   11032013016CURITIBA            1005201300000000000019275CC                                                                                                                                                                                                                                                                                                                                                                                                         000023
1048421000095COBR_CAUC_BIC  ACUMULADORES AJAX LTDA                  006125974000188ELETROJAX COMERCIO DE BATERIAS COM      RUA DAS CARMELITAS 3259                 CURITIBA                                81730050PR411940001900646449025285505   11032013016CURITIBA            2005201300000000000019275CC                                                                                                                                                                                                                                                                                                                                                                                                         000024
1048421000095COBR_CAUC_BIC  ACUMULADORES AJAX LTDA                  006125974000188ELETROJAX COMERCIO DE BATERIAS COM      RUA DAS CARMELITAS 3259                 CURITIBA                                81730050PR411940002000646457025285506   11032013016CURITIBA            3005201300000000000019275CC                                                                                                                                                                                                                                                                                                                                                                                                         000025
1048421000095COBR_CAUC_BIC  ACUMULADORES AJAX LTDA                  006125974000188ELETROJAX COMERCIO DE BATERIAS COM      RUA DAS CARMELITAS 3259                 CURITIBA                                81730050PR411940002100646465025285507   11032013016CURITIBA            1006201300000000000019326CC                                                                                                                                                                                                                                                                                                                                                                                                         000026
1048421000095COBR_CAUC_BIC  ACUMULADORES AJAX LTDA                  006125974000188ELETROJAX COMERCIO DE BATERIAS COM      RUA DAS CARMELITAS 3259                 CURITIBA                                81730050PR411940002200646473025285301   11032013016CURITIBA            1004201300000000000258231CC                                                                                                                                                                                                                                                                                                                                                                                                         000027
1048421000095COBR_CAUC_BIC  ACUMULADORES AJAX LTDA                  006125974000188ELETROJAX COMERCIO DE BATERIAS COM      RUA DAS CARMELITAS 3259                 CURITIBA                                81730050PR411940002300646481025285302   11032013016CURITIBA            2204201300000000000258231CC                                                                                                                                                                                                                                                                                                                                                                                                         000028
1048421000095COBR_CAUC_BIC  ACUMULADORES AJAX LTDA                  006125974000188ELETROJAX COMERCIO DE BATERIAS COM      RUA DAS CARMELITAS 3259                 CURITIBA                                81730050PR411940002400646490025285303   11032013016CURITIBA            3004201300000000000258231CC                                                                                                                                                                                                                                                                                                                                                                                                         000029
1048421000095COBR_CAUC_BIC  ACUMULADORES AJAX LTDA                  006125974000188ELETROJAX COMERCIO DE BATERIAS COM      RUA DAS CARMELITAS 3259                 CURITIBA                                81730050PR411940002500646503025285304   11032013016CURITIBA            1005201300000000000258231CC                                                                                                                                                                                                                                                                                                                                                                                                         000030
1048421000095COBR_CAUC_BIC  ACUMULADORES AJAX LTDA                  006125974000188ELETROJAX COMERCIO DE BATERIAS COM      RUA DAS CARMELITAS 3259                 CURITIBA                                81730050PR411940002600646511025285305   11032013016CURITIBA            2005201300000000000258231CC                                                                                                                                                                                                                                                                                                                                                                                                         000031
1048421000095COBR_CAUC_BIC  ACUMULADORES AJAX LTDA                  006125974000188ELETROJAX COMERCIO DE BATERIAS COM      RUA DAS CARMELITAS 3259                 CURITIBA                                81730050PR411940002700646520025285306   11032013016CURITIBA            3005201300000000000258231CC                                                                                                                                                                                                                                                                                                                                                                                                         000032
1048421000095COBR_CAUC_BIC  ACUMULADORES AJAX LTDA                  006125974000188ELETROJAX COMERCIO DE BATERIAS COM      RUA DAS CARMELITAS 3259                 CURITIBA                                81730050PR411940002800646546025285002   11032013016CURITIBA            2204201300000000002129214CC                                                                                                                                                                                                                                                                                                                                                                                                         000033
1048421000095COBR_CAUC_BIC  ACUMULADORES AJAX LTDA                  006125974000188ELETROJAX COMERCIO DE BATERIAS COM      RUA DAS CARMELITAS 3259                 CURITIBA                                81730050PR411940002900646554025285003   11032013016CURITIBA            3004201300000000002129214CC                                                                                                                                                                                                                                                                                                                                                                                                         000034
1048421000095COBR_CAUC_BIC  ACUMULADORES AJAX LTDA                  006125974000188ELETROJAX COMERCIO DE BATERIAS COM      RUA DAS CARMELITAS 3259                 CURITIBA                                81730050PR411940003000646562025285004   11032013016CURITIBA            1005201300000000002129214CC                                                                                                                                                                                                                                                                                                                                                                                                         000035
1048421000095COBR_CAUC_BIC  ACUMULADORES AJAX LTDA                  006125974000188ELETROJAX COMERCIO DE BATERIAS COM      RUA DAS CARMELITAS 3259                 CURITIBA                                81730050PR411940003100646571025285005   11032013016CURITIBA            2005201300000000002129214CC                                                                                                                                                                                                                                                                                                                                                                                                         000036
1048421000095COBR_CAUC_BIC  ACUMULADORES AJAX LTDA                  006125974000188ELETROJAX COMERCIO DE BATERIAS COM      RUA DAS CARMELITAS 3259                 CURITIBA                                81730050PR411940003200646589025285006   11032013016CURITIBA            3005201300000000002129214CC                                                                                                                                                                                                                                                                                                                                                                                                         000037
1048421000095COBR_CAUC_BIC  ACUMULADORES AJAX LTDA                  006125974000188ELETROJAX COMERCIO DE BATERIAS COM      RUA DAS CARMELITAS 3259                 CURITIBA                                81730050PR411940003300646597025285007   11032013016CURITIBA            1006201300000000002135179CC                                                                                                                                                                                                                                                                                                                                                                                                         000038
1048421000095COBR_CAUC_BIC  ACUMULADORES AJAX LTDA                  006125974000188ELETROJAX COMERCIO DE BATERIAS COM      RUA DAS CARMELITAS 3259                 CURITIBA                                81730050PR411940003400646961025293202   12032013016CURITIBA            2204201300000000000109935CC                                                                                                                                                                                                                                                                                                                                                                                                         000039
1048421000095COBR_CAUC_BIC  ACUMULADORES AJAX LTDA                  006125974000188ELETROJAX COMERCIO DE BATERIAS COM      RUA DAS CARMELITAS 3259                 CURITIBA                                81730050PR411940003500646970025293201   12032013016CURITIBA            1104201300000000000109935CC                                                                                                                                                                                                                                                                                                                                                                                                         000040
1048421000095COBR_CAUC_BIC  ACUMULADORES AJAX LTDA                  006125974000188ELETROJAX COMERCIO DE BATERIAS COM      RUA DAS CARMELITAS 3259                 CURITIBA                                81730050PR411940003600646988025293203   12032013016CURITIBA            0105201300000000000109935CC                                                                                                                                                                                                                                                                                                                                                                                                         000041
1048421000095COBR_CAUC_BIC  ACUMULADORES AJAX LTDA                  006125974000188ELETROJAX COMERCIO DE BATERIAS COM      RUA DAS CARMELITAS 3259                 CURITIBA                                81730050PR411940003700646996025293204   12032013016CURITIBA            1305201300000000000109935CC                                                                                                                                                                                                                                                                                                                                                                                                         000042
1048421000095COBR_CAUC_BIC  ACUMULADORES AJAX LTDA                  006125974000188ELETROJAX COMERCIO DE BATERIAS COM      RUA DAS CARMELITAS 3259                 CURITIBA                                81730050PR411940003800647003025293205   12032013016CURITIBA            2105201300000000000109935CC                                                                                                                                                                                                                                                                                                                                                                                                         000043
1048421000095COBR_CAUC_BIC  ACUMULADORES AJAX LTDA                  006125974000188ELETROJAX COMERCIO DE BATERIAS COM      RUA DAS CARMELITAS 3259                 CURITIBA                                81730050PR411940003900647011025293206   12032013016CURITIBA            3105201300000000000109935CC                                                                                                                                                                                                                                                                                                                                                                                                         000044
1048421000095COBR_CAUC_BIC  ACUMULADORES AJAX LTDA                  006125974000188ELETROJAX COMERCIO DE BATERIAS COM      RUA DAS CARMELITAS 3259                 CURITIBA                                81730050PR411940004000647020025293207   12032013016CURITIBA            1006201300000000000109935CC                                                                                                                                                                                                                                                                                                                                                                                                         000045
1048421000095COBR_CAUC_BIC  ACUMULADORES AJAX LTDA                  006125974000188ELETROJAX COMERCIO DE BATERIAS COM      RUA DAS CARMELITAS 3259                 CURITIBA                                81730050PR411940004100647038025293208   12032013016CURITIBA            2006201300000000000109935CC                                                                                                                                                                                                                                                                                                                                                                                                         000046
1048421000095COBR_CAUC_BIC  ACUMULADORES AJAX LTDA                  006125974000188ELETROJAX COMERCIO DE BATERIAS COM      RUA DAS CARMELITAS 3259                 CURITIBA                                81730050PR411940004200647046025293209   12032013016CURITIBA            0107201300000000000109935CC                                                                                                                                                                                                                                                                                                                                                                                                         000047
1048421000095COBR_CAUC_BIC  ACUMULADORES AJAX LTDA                  006125974000188ELETROJAX COMERCIO DE BATERIAS COM      RUA DAS CARMELITAS 3259                 CURITIBA                                81730050PR411940004300647054025293210   12032013016CURITIBA            1007201300000000000109935CC                                                                                                                                                                                                                                                                                                                                                                                                         000048
1048421000095COBR_CAUC_BIC  ACUMULADORES AJAX LTDA                  003786240000151AC BATTERY LIMITADA                     RUA DENTISTA BARRETO N 3 13             SAO PAULO                               03420000SP411930000100643521025145903   13022013007PAULISTA            0306201300000000003444320CC                                                                                                                                                                                                                                                                                                                                                                                                         000049
1048421000095COBR_CAUC_BIC  ACUMULADORES AJAX LTDA                  003786240000151AC BATTERY LIMITADA                     RUA DENTISTA BARRETO N 3 13             SAO PAULO                               03420000SP411930000200643539025145904   13022013007PAULISTA            1306201300000000003444320CC                                                                                                                                                                                                                                                                                                                                                                                                         000050
1048421000095COBR_CAUC_BIC  ACUMULADORES AJAX LTDA                  003786240000151AC BATTERY LIMITADA                     RUA DENTISTA BARRETO N 3 13             SAO PAULO                               03420000SP411930000300643547025145901   13022013007PAULISTA            1405201300000000003444320CC                                                                                                                                                                                                                                                                                                                                                                                                         000051
1048421000095COBR_CAUC_BIC  ACUMULADORES AJAX LTDA                  001138645000158ENERJAX COMERCIO DE BATERIAS LTDA       ROD RIO MAGE 1415 Q 15 C KM 1 LT 21 22  DUQUE DE CAXIAS                         25211000RJ411920000100646066003154002   08032013014RIO DE JANEIRO      0705201300000000000773089CC                                                                                                                                                                                                                                                                                                                                                                                                         000052
1048421000095COBR_CAUC_BIC  ACUMULADORES AJAX LTDA                  001138645000158ENERJAX COMERCIO DE BATERIAS LTDA       ROD RIO MAGE 1415 Q 15 C KM 1 LT 21 22  DUQUE DE CAXIAS                         25211000RJ411920000200646074003154003   08032013014RIO DE JANEIRO      0606201300000000000773322CC                                                                                                                                                                                                                                                                                                                                                                                                         000053
1048421000095COBR_CAUC_BIC  ACUMULADORES AJAX LTDA                  001138645000158ENERJAX COMERCIO DE BATERIAS LTDA       ROD RIO MAGE 1415 Q 15 C KM 1 LT 21 22  DUQUE DE CAXIAS                         25211000RJ411920000300646082003153702   08032013014RIO DE JANEIRO      0705201300000000000768123CC                                                                                                                                                                                                                                                                                                                                                                                                         000054
1048421000095COBR_CAUC_BIC  ACUMULADORES AJAX LTDA                  001138645000158ENERJAX COMERCIO DE BATERIAS LTDA       ROD RIO MAGE 1415 Q 15 C KM 1 LT 21 22  DUQUE DE CAXIAS                         25211000RJ411920000400646091003153703   08032013014RIO DE JANEIRO      0606201300000000000768354CC                                                                                                                                                                                                                                                                                                                                                                                                         000055
1048421000095COBR_CAUC_BIC  ACUMULADORES AJAX LTDA                  001138645000158ENERJAX COMERCIO DE BATERIAS LTDA       ROD RIO MAGE 1415 Q 15 C KM 1 LT 21 22  DUQUE DE CAXIAS                         25211000RJ411920000500646104003153802   08032013014RIO DE JANEIRO      0705201300000000000021352CC                                                                                                                                                                                                                                                                                                                                                                                                         000056
1048421000095COBR_CAUC_BIC  ACUMULADORES AJAX LTDA                  001138645000158ENERJAX COMERCIO DE BATERIAS LTDA       ROD RIO MAGE 1415 Q 15 C KM 1 LT 21 22  DUQUE DE CAXIAS                         25211000RJ411920000600646112003153803   08032013014RIO DE JANEIRO      0606201300000000000021359CC                                                                                                                                                                                                                                                                                                                                                                                                         000057
1048421000095COBR_CAUC_BIC  ACUMULADORES AJAX LTDA                  001138645000158ENERJAX COMERCIO DE BATERIAS LTDA       ROD RIO MAGE 1415 Q 15 C KM 1 LT 21 22  DUQUE DE CAXIAS                         25211000RJ411920000700646252025160502   15022013014RIO DE JANEIRO      1604201300000000001335142CC                                                                                                                                                                                                                                                                                                                                                                                                         000058
1048421000095COBR_CAUC_BIC  ACUMULADORES AJAX LTDA                  001138645000158ENERJAX COMERCIO DE BATERIAS LTDA       ROD RIO MAGE 1415 Q 15 C KM 1 LT 21 22  DUQUE DE CAXIAS                         25211000RJ411920000800646261025158302   15022013014RIO DE JANEIRO      1604201300000000000034465CC                                                                                                                                                                                                                                                                                                                                                                                                         000059
1048421000095COBR_CAUC_BIC  ACUMULADORES AJAX LTDA                  001138645000158ENERJAX COMERCIO DE BATERIAS LTDA       ROD RIO MAGE 1415 Q 15 C KM 1 LT 21 22  DUQUE DE CAXIAS                         25211000RJ411920000900646279025158303   15022013014RIO DE JANEIRO      1605201300000000000034474CC                                                                                                                                                                                                                                                                                                                                                                                                         000060
1048421000095COBR_CAUC_BIC  ACUMULADORES AJAX LTDA                  001138645000158ENERJAX COMERCIO DE BATERIAS LTDA       ROD RIO MAGE 1415 Q 15 C KM 1 LT 21 22  DUQUE DE CAXIAS                         25211000RJ411920001000646287025158702   15022013014RIO DE JANEIRO      1604201300000000000505143CC                                                                                                                                                                                                                                                                                                                                                                                                         000061
1048421000095COBR_CAUC_BIC  ACUMULADORES AJAX LTDA                  001138645000158ENERJAX COMERCIO DE BATERIAS LTDA       ROD RIO MAGE 1415 Q 15 C KM 1 LT 21 22  DUQUE DE CAXIAS                         25211000RJ411920001100646295025158703   15022013014RIO DE JANEIRO      1605201300000000000505294CC                                                                                                                                                                                                                                                                                                                                                                                                         000062
1048421000095COBR_CAUC_BIC  ACUMULADORES AJAX LTDA                  001138645000158ENERJAX COMERCIO DE BATERIAS LTDA       ROD RIO MAGE 1415 Q 15 C KM 1 LT 21 22  DUQUE DE CAXIAS                         25211000RJ411920001200646309025280701   08032013014RIO DE JANEIRO      0804201300000000000018567CC                                                                                                                                                                                                                                                                                                                                                                                                         000063
1048421000095COBR_CAUC_BIC  ACUMULADORES AJAX LTDA                  001138645000158ENERJAX COMERCIO DE BATERIAS LTDA       ROD RIO MAGE 1415 Q 15 C KM 1 LT 21 22  DUQUE DE CAXIAS                         25211000RJ411920001300646317025280702   08032013014RIO DE JANEIRO      0705201300000000000018567CC                                                                                                                                                                                                                                                                                                                                                                                                         000064
1048421000095COBR_CAUC_BIC  ACUMULADORES AJAX LTDA                  001138645000158ENERJAX COMERCIO DE BATERIAS LTDA       ROD RIO MAGE 1415 Q 15 C KM 1 LT 21 22  DUQUE DE CAXIAS                         25211000RJ411920001400646325025280703   08032013014RIO DE JANEIRO      0606201300000000000018574CC                                                                                                                                                                                                                                                                                                                                                                                                         000065
1048421000095COBR_CAUC_BIC  ACUMULADORES AJAX LTDA                  001138645000158ENERJAX COMERCIO DE BATERIAS LTDA       ROD RIO MAGE 1415 Q 15 C KM 1 LT 21 22  DUQUE DE CAXIAS                         25211000RJ411920001500646333025280502   08032013014RIO DE JANEIRO      0705201300000000000907536CC                                                                                                                                                                                                                                                                                                                                                                                                         000066
1048421000095COBR_CAUC_BIC  ACUMULADORES AJAX LTDA                  001138645000158ENERJAX COMERCIO DE BATERIAS LTDA       ROD RIO MAGE 1415 Q 15 C KM 1 LT 21 22  DUQUE DE CAXIAS                         25211000RJ411920001600646341025280503   08032013014RIO DE JANEIRO      0606201300000000000907808CC                                                                                                                                                                                                                                                                                                                                                                                                         000067
1048421000095COBR_CAUC_BIC  ACUMULADORES AJAX LTDA                  001138645000158ENERJAX COMERCIO DE BATERIAS LTDA       ROD RIO MAGE 1415 Q 15 C KM 1 LT 21 22  DUQUE DE CAXIAS                         25211000RJ411920001700646350025280301   08032013014RIO DE JANEIRO      0804201300000000000546479CC                                                                                                                                                                                                                                                                                                                                                                                                         000068
1048421000095COBR_CAUC_BIC  ACUMULADORES AJAX LTDA                  001138645000158ENERJAX COMERCIO DE BATERIAS LTDA       ROD RIO MAGE 1415 Q 15 C KM 1 LT 21 22  DUQUE DE CAXIAS                         25211000RJ411920001800646368025280302   08032013014RIO DE JANEIRO      0705201300000000000546479CC                                                                                                                                                                                                                                                                                                                                                                                                         000069
1048421000095COBR_CAUC_BIC  ACUMULADORES AJAX LTDA                  001138645000158ENERJAX COMERCIO DE BATERIAS LTDA       ROD RIO MAGE 1415 Q 15 C KM 1 LT 21 22  DUQUE DE CAXIAS                         25211000RJ411920001900646376025280303   08032013014RIO DE JANEIRO      0606201300000000000546642CC                                                                                                                                                                                                                                                                                                                                                                                                         000070
1048421000095COBR_CAUC_BIC  ACUMULADORES AJAX LTDA                  001138645000158ENERJAX COMERCIO DE BATERIAS LTDA       ROD RIO MAGE 1415 Q 15 C KM 1 LT 21 22  DUQUE DE CAXIAS                         25211000RJ411920002000646384025280802   08032013014RIO DE JANEIRO      0705201300000000000575510CC                                                                                                                                                                                                                                                                                                                                                                                                         000071
1048421000095COBR_CAUC_BIC  ACUMULADORES AJAX LTDA                  001138645000158ENERJAX COMERCIO DE BATERIAS LTDA       ROD RIO MAGE 1415 Q 15 C KM 1 LT 21 22  DUQUE DE CAXIAS                         25211000RJ411920002100646392025280803   08032013014RIO DE JANEIRO      0606201300000000000575683CC                                                                                                                                                                                                                                                                                                                                                                                                         000072
1048421000095COBR_CAUC_BIC  ACUMULADORES AJAX LTDA                  007390580000110COJAX COMERCIO DE ACUMULADORES AJA      AV MARECHAL MASCARENHAS DE MORAES 1096 ARECIFE                                  51170000PE411910000100646881003162402   12032013010RECIFE              1305201300000000000534451CC                                                                                                                                                                                                                                                                                                                                                                                                         000073
1048421000095COBR_CAUC_BIC  ACUMULADORES AJAX LTDA                  007390580000110COJAX COMERCIO DE ACUMULADORES AJA      AV MARECHAL MASCARENHAS DE MORAES 1096 ARECIFE                                  51170000PE411910000200646899003162502   12032013010RECIFE              1305201300000000000976002CC                                                                                                                                                                                                                                                                                                                                                                                                         000074
1048421000095COBR_CAUC_BIC  ACUMULADORES AJAX LTDA                  007390580000110COJAX COMERCIO DE ACUMULADORES AJA      AV MARECHAL MASCARENHAS DE MORAES 1096 ARECIFE                                  51170000PE411910000300646953025295302   12032013010RECIFE              1305201300000000000402658CC                                                                                                                                                                                                                                                                                                                                                                                                         000075
1048421000095COBR_CAUC_BIC  ACUMULADORES AJAX LTDA                  007390580000110COJAX COMERCIO DE ACUMULADORES AJA      AV MARECHAL MASCARENHAS DE MORAES 1096 ARECIFE                                  51170000PE411910000400647062025295002   12032013010RECIFE              1305201300000000000274028CC                                                                                                                                                                                                                                                                                                                                                                                                         000076
1048421000095COBR_CAUC_BIC  ACUMULADORES AJAX LTDA                  007390580000110COJAX COMERCIO DE ACUMULADORES AJA      AV MARECHAL MASCARENHAS DE MORAES 1096 ARECIFE                                  51170000PE411910000500647071025295202   12032013010RECIFE              1305201300000000000197167CC                                                                                                                                                                                                                                                                                                                                                                                                         000077
1048421000095COBR_CAUC_BIC  ACUMULADORES AJAX LTDA                  007390580000110COJAX COMERCIO DE ACUMULADORES AJA      AV MARECHAL MASCARENHAS DE MORAES 1096 ARECIFE                                  51170000PE411910000600647089025295102   12032013010RECIFE              1305201300000000000380570CC                                                                                                                                                                                                                                                                                                                                                                                                         000078
1048421000095COBR_CAUC_BIC  ACUMULADORES AJAX LTDA                  007390580000110COJAX COMERCIO DE ACUMULADORES AJA      AV MARECHAL MASCARENHAS DE MORAES 1096 ARECIFE                                  51170000PE411910000700647101025294902   12032013010RECIFE              1305201300000000000117155CC                                                                                                                                                                                                                                                                                                                                                                                                         000079
1048421000095COBR_CAUC_BIC  ACUMULADORES AJAX LTDA                  007390580000110COJAX COMERCIO DE ACUMULADORES AJA      AV MARECHAL MASCARENHAS DE MORAES 1096 ARECIFE                                  51170000PE411910000800647127025294702   12032013010RECIFE              1305201300000000000493013CC                                                                                                                                                                                                                                                                                                                                                                                                         000080
1048421000095COBR_CAUC_BIC  ACUMULADORES AJAX LTDA                  007390580000110COJAX COMERCIO DE ACUMULADORES AJA      AV MARECHAL MASCARENHAS DE MORAES 1096 ARECIFE                                  51170000PE411910000900647135025295402   12032013010RECIFE              1305201300000000000714650CC                                                                                                                                                                                                                                                                                                                                                                                                         000081
1048421000095COBR_CAUC_COR  ACUMULADORES AJAX LTDA                  010856448000165ANDER POWER TECNOLOGIA DE ELETRONI      RUA EYRE N 152                          GARCA                                   17400000SP411900000100643555025215302   25022013900BRADESCO S/A        2604201300000000001120500CC                                                                                                                                                                                                                                                                                                                                                                                                         000082
1048421000095COBR_CAUC_COR  ACUMULADORES AJAX LTDA                  010856448000165ANDER POWER TECNOLOGIA DE ELETRONI      RUA EYRE N 152                          GARCA                                   17400000SP411900000200643563025215304   25022013900BRADESCO S/A        2506201300000000001120500CC                                                                                                                                                                                                                                                                                                                                                                                                         000083
1048421000095COBR_CAUC_COR  ACUMULADORES AJAX LTDA                  010856448000165ANDER POWER TECNOLOGIA DE ELETRONI      RUA EYRE N 152                          GARCA                                   17400000SP411900000300643571025215303   25022013900BRADESCO S/A        2705201300000000001120500CC                                                                                                                                                                                                                                                                                                                                                                                                         000084
1048421000095COBR_CAUC_BIC  ACUMULADORES AJAX LTDA                  007953456000115OXXO ACUMULADORES LTDA                  RUA P-16 N. 1.133 QD 114 LT 03         GOIANIA                                 74543040GO411890000100643474003132405   27022013018GOIANIA             1206201300000000000064696CC                                                                                                                                                                                                                                                                                                                                                                                                         000085
1048421000095COBR_CAUC_BIC  ACUMULADORES AJAX LTDA                  007953456000115OXXO ACUMULADORES LTDA                  RUA P-16 N. 1.133 QD 114 LT 03         GOIANIA                                 74543040GO411890000200643482003132402   27022013018GOIANIA             2904201300000000000064696CC                                                                                                                                                                                                                                                                                                                                                                                                         000086
1048421000095COBR_CAUC_BIC  ACUMULADORES AJAX LTDA                  007953456000115OXXO ACUMULADORES LTDA                  RUA P-16 N. 1.133 QD 114 LT 03         GOIANIA                                 74543040GO411890000300643491003132403   27022013018GOIANIA             1305201300000000000064696CC                                                                                                                                                                                                                                                                                                                                                                                                         000087
1048421000095COBR_CAUC_BIC  ACUMULADORES AJAX LTDA                  007953456000115OXXO ACUMULADORES LTDA                  RUA P-16 N. 1.133 QD 114 LT 03         GOIANIA                                 74543040GO411890000400643504003132404   27022013018GOIANIA             2805201300000000000064696CC                                                                                                                                                                                                                                                                                                                                                                                                         000088
1048421000095COBR_CAUC_BIC  ACUMULADORES AJAX LTDA                  007953456000115OXXO ACUMULADORES LTDA                  RUA P-16 N. 1.133 QD 114 LT 03         GOIANIA                                 74543040GO411890000500643512003132406   27022013018GOIANIA             2706201300000000000064697CC                                                                                                                                                                                                                                                                                                                                                                                                         000089
1048421000095COBR_CAUC_BIC  ACUMULADORES AJAX LTDA                  007953456000115OXXO ACUMULADORES LTDA                  RUA P-16 N. 1.133 QD 114 LT 03         GOIANIA                                 74543040GO411890000600643903025235305   27022013018GOIANIA             2706201300000000000176072CC                                                                                                                                                                                                                                                                                                                                                                                                         000090
1048421000095COBR_CAUC_BIC  ACUMULADORES AJAX LTDA                  007953456000115OXXO ACUMULADORES LTDA                  RUA P-16 N. 1.133 QD 114 LT 03         GOIANIA                                 74543040GO411890000700643911025235303   27022013018GOIANIA             2805201300000000000176074CC                                                                                                                                                                                                                                                                                                                                                                                                         000091
1048421000095COBR_CAUC_BIC  ACUMULADORES AJAX LTDA                  007953456000115OXXO ACUMULADORES LTDA                  RUA P-16 N. 1.133 QD 114 LT 03         GOIANIA                                 74543040GO411890000800643920025235302   27022013018GOIANIA             1305201300000000000176074CC                                                                                                                                                                                                                                                                                                                                                                                                         000092
1048421000095COBR_CAUC_BIC  ACUMULADORES AJAX LTDA                  007953456000115OXXO ACUMULADORES LTDA                  RUA P-16 N. 1.133 QD 114 LT 03         GOIANIA                                 74543040GO411890000900643938025235301   27022013018GOIANIA             2904201300000000000176074CC                                                                                                                                                                                                                                                                                                                                                                                                         000093
1048421000095COBR_CAUC_BIC  ACUMULADORES AJAX LTDA                  007953456000115OXXO ACUMULADORES LTDA                  RUA P-16 N. 1.133 QD 114 LT 03         GOIANIA                                 74543040GO411890001000643946025235304   27022013018GOIANIA             1206201300000000000176074CC                                                                                                                                                                                                                                                                                                                                                                                                         000094
1048421000095COBR_CAUC_BIC  ACUMULADORES AJAX LTDA                  007953456000115OXXO ACUMULADORES LTDA                  RUA P-16 N. 1.133 QD 114 LT 03         GOIANIA                                 74543040GO411890001100643962003132306   27022013018GOIANIA             2706201300000000000194088CC                                                                                                                                                                                                                                                                                                                                                                                                         000095
1048421000095COBR_CAUC_BIC  ACUMULADORES AJAX LTDA                  007953456000115OXXO ACUMULADORES LTDA                  RUA P-16 N. 1.133 QD 114 LT 03         GOIANIA                                 74543040GO411890001200643971003132304   27022013018GOIANIA             2805201300000000000194089CC                                                                                                                                                                                                                                                                                                                                                                                                         000096
1048421000095COBR_CAUC_BIC  ACUMULADORES AJAX LTDA                  007953456000115OXXO ACUMULADORES LTDA                  RUA P-16 N. 1.133 QD 114 LT 03         GOIANIA                                 74543040GO411890001300643989003132303   27022013018GOIANIA             1305201300000000000194089CC                                                                                                                                                                                                                                                                                                                                                                                                         000097
1048421000095COBR_CAUC_BIC  ACUMULADORES AJAX LTDA                  007953456000115OXXO ACUMULADORES LTDA                  RUA P-16 N. 1.133 QD 114 LT 03         GOIANIA                                 74543040GO411890001400643997003132302   27022013018GOIANIA             2904201300000000000194089CC                                                                                                                                                                                                                                                                                                                                                                                                         000098
1048421000095COBR_CAUC_BIC  ACUMULADORES AJAX LTDA                  007953456000115OXXO ACUMULADORES LTDA                  RUA P-16 N. 1.133 QD 114 LT 03         GOIANIA                                 74543040GO411890001500644004003132305   27022013018GOIANIA             1206201300000000000194089CC                                                                                                                                                                                                                                                                                                                                                                                                         000099
1048421000095COBR_CAUC_BIC  ACUMULADORES AJAX LTDA                  007953456000115OXXO ACUMULADORES LTDA                  RUA P-16 N. 1.133 QD 114 LT 03         GOIANIA                                 74543040GO411890001600647097025293305   12032013018GOIANIA             1007201300000000000408432CC                                                                                                                                                                                                                                                                                                                                                                                                         000100
1048421000095COBR_CAUC_BIC  ACUMULADORES AJAX LTDA                  007953456000115OXXO ACUMULADORES LTDA                  RUA P-16 N. 1.133 QD 114 LT 03         GOIANIA                                 74543040GO411890001700647119025293405   12032013018GOIANIA             1007201300000000000164664CC                                                                                                                                                                                                                                                                                                                                                                                                         000101
1048421000095COBR_CAUC_BIC  ACUMULADORES AJAX LTDA                  011488469000138LONDRIJAX BATERIAS LTDA ME              ROD CELSO GARCIA CID 335                LONDRINA                                86066230PR411880000100646911025261202   11032013031LONDRINA            3004201300000000000781966CC                                                                                                                                                                                                                                                                                                                                                                                                         000102
1048421000095COBR_CAUC_BIC  ACUMULADORES AJAX LTDA                  011488469000138LONDRIJAX BATERIAS LTDA ME              ROD CELSO GARCIA CID 335                LONDRINA                                86066230PR411880000200646929025273602   11032013031LONDRINA            3004201300000000000040166CC                                                                                                                                                                                                                                                                                                                                                                                                         000103
1048421000095COBR_CAUC_BIC  ACUMULADORES AJAX LTDA                  011488469000138LONDRIJAX BATERIAS LTDA ME              ROD CELSO GARCIA CID 335                LONDRINA                                86066230PR411880000300646937025273702   11032013031LONDRINA            3004201300000000001290598CC                                                                                                                                                                                                                                                                                                                                                                                                         000104
1048421000095COBR_CAUC_BIC  ACUMULADORES AJAX LTDA                  010353610000122ECOMBAT COM DE BATERIAS LTDA            TRV CAPITAO EUFRASIN DE ANDRADE N. 1024 CASTANHAL                               68743610PA411870000100647411002832010   29012013050BELEM               3007201300000000001850000CC                                                                                                                                                                                                                                                                                                                                                                                                         000105
1048421000095COBR_CAUC_BIC  ACUMULADORES AJAX LTDA                  036868974000139DIPS DIST DE PRODUTOS ELETRONICOS       RUA 68 N. 415 QD 25 LT 47               GOIANIA                                 74055100GO411860000100643598025236202   27022013018GOIANIA             2904201300000000000274725CC                                                                                                                                                                                                                                                                                                                                                                                                         000106
1048421000095COBR_CAUC_BIC  ACUMULADORES AJAX LTDA                  036868974000139DIPS DIST DE PRODUTOS ELETRONICOS       RUA 68 N. 415 QD 25 LT 47               GOIANIA                                 74055100GO411860000200643601025236203   27022013018GOIANIA             2805201300000000000274725CC                                                                                                                                                                                                                                                                                                                                                                                                         000107
1048421000095COBR_CAUC_BIC  ACUMULADORES AJAX LTDA                  036868974000139DIPS DIST DE PRODUTOS ELETRONICOS       RUA 68 N. 415 QD 25 LT 47               GOIANIA                                 74055100GO411860000300643610025236204   27022013018GOIANIA             2706201300000000000274725CC                                                                                                                                                                                                                                                                                                                                                                                                         000108
1048421000095COBR_CAUC_BIC  ACUMULADORES AJAX LTDA                  036868974000139DIPS DIST DE PRODUTOS ELETRONICOS       RUA 68 N. 415 QD 25 LT 47               GOIANIA                                 74055100GO411860000400643628003132804   27022013018GOIANIA             2706201300000000000315933CC                                                                                                                                                                                                                                                                                                                                                                                                         000109
1048421000095COBR_CAUC_BIC  ACUMULADORES AJAX LTDA                  036868974000139DIPS DIST DE PRODUTOS ELETRONICOS       RUA 68 N. 415 QD 25 LT 47               GOIANIA                                 74055100GO411860000500643644003132802   27022013018GOIANIA             2904201300000000000315934CC                                                                                                                                                                                                                                                                                                                                                                                                         000110
1048421000095COBR_CAUC_BIC  ACUMULADORES AJAX LTDA                  036868974000139DIPS DIST DE PRODUTOS ELETRONICOS       RUA 68 N. 415 QD 25 LT 47               GOIANIA                                 74055100GO411860000600643652003132803   27022013018GOIANIA             2805201300000000000315934CC                                                                                                                                                                                                                                                                                                                                                                                                         000111
1048421000095COBR_CAUC_BIC  ACUMULADORES AJAX LTDA                  000769104000165MERCANTIL DE BATERIAS SERGIPE LTDA      RUA ELIZEU DOS SANTOS 350               ARACAJU                                 49072230SE411850000100643831023663009   29012013045ARACAJU             3006201300000000001499580CC                                                                                                                                                                                                                                                                                                                                                                                                         000112
1048421000095COBR_CAUC_BIC  ACUMULADORES AJAX LTDA                  014701179000119REITEC TECNOLOGIA EM SEGURANCA ELE      AVENIDA ANHANGUERA 1889                 GOIANIA                                 74610010GO411840000100644128025235901   27022013018GOIANIA             1804201300000000000170940CC                                                                                                                                                                                                                                                                                                                                                                                                         000113
1048421000095COBR_CAUC_BIC  ACUMULADORES AJAX LTDA                  014701179000119REITEC TECNOLOGIA EM SEGURANCA ELE      AVENIDA ANHANGUERA 1889                 GOIANIA                                 74610010GO411840000200644136003132601   27022013018GOIANIA             1804201300000000000196581CC                                                                                                                                                                                                                                                                                                                                                                                                         000114
1048421000095COBR_CAUC_BIC  ACUMULADORES AJAX LTDA                  014701179000119REITEC TECNOLOGIA EM SEGURANCA ELE      AVENIDA ANHANGUERA 1889                 GOIANIA                                 74610010GO411840000300644152025235804   27022013018GOIANIA             2706201300000000000329980CC                                                                                                                                                                                                                                                                                                                                                                                                         000115
1048421000095COBR_CAUC_BIC  ACUMULADORES AJAX LTDA                  014701179000119REITEC TECNOLOGIA EM SEGURANCA ELE      AVENIDA ANHANGUERA 1889                 GOIANIA                                 74610010GO411840000400644161025235803   27022013018GOIANIA             2805201300000000000329980CC                                                                                                                                                                                                                                                                                                                                                                                                         000116
1048421000095COBR_CAUC_BIC  ACUMULADORES AJAX LTDA                  014701179000119REITEC TECNOLOGIA EM SEGURANCA ELE      AVENIDA ANHANGUERA 1889                 GOIANIA                                 74610010GO411840000500644179025235802   27022013018GOIANIA             2904201300000000000329980CC                                                                                                                                                                                                                                                                                                                                                                                                         000117
1048421000095COBR_CAUC_COR  ACUMULADORES AJAX LTDA                  013855602000172JUA COMERCIAL DE BATERIAS LTDA ME       RODOVIA LOMANTO JUNIOR N 33 D           JUAZEIRO                                48900420BA411830000100643776024161111   29012013900BRADESCO S/A        3008201300000000001198796CC                                                                                                                                                                                                                                                                                                                                                                                                         000118
1048421000095COBR_CAUC_BIC  ACUMULADORES AJAX LTDA                  009370368000116DISEG PRODUTOS ELETRONICOS LTDA         RUA C 135 N. 11 QD 560 LT 01            GOIANIA                                 74275040GO411820000100643661025236502   27022013018GOIANIA             2904201300000000000183150CC                                                                                                                                                                                                                                                                                                                                                                                                         000119
1048421000095COBR_CAUC_BIC  ACUMULADORES AJAX LTDA                  009370368000116DISEG PRODUTOS ELETRONICOS LTDA         RUA C 135 N. 11 QD 560 LT 01            GOIANIA                                 74275040GO411820000200643679025236503   27022013018GOIANIA             2805201300000000000183150CC                                                                                                                                                                                                                                                                                                                                                                                                         000120
1048421000095COBR_CAUC_BIC  ACUMULADORES AJAX LTDA                  009370368000116DISEG PRODUTOS ELETRONICOS LTDA         RUA C 135 N. 11 QD 560 LT 01            GOIANIA                                 74275040GO411820000300643687025236504   27022013018GOIANIA             2706201300000000000183150CC                                                                                                                                                                                                                                                                                                                                                                                                         000121
1048421000095COBR_CAUC_BIC  ACUMULADORES AJAX LTDA                  009370368000116DISEG PRODUTOS ELETRONICOS LTDA         RUA C 135 N. 11 QD 560 LT 01            GOIANIA                                 74275040GO411820000400643709003133104   27022013018GOIANIA             2706201300000000000210621CC                                                                                                                                                                                                                                                                                                                                                                                                         000122
1048421000095COBR_CAUC_BIC  ACUMULADORES AJAX LTDA                  009370368000116DISEG PRODUTOS ELETRONICOS LTDA         RUA C 135 N. 11 QD 560 LT 01            GOIANIA                                 74275040GO411820000500643717003133103   27022013018GOIANIA             2805201300000000000210623CC                                                                                                                                                                                                                                                                                                                                                                                                         000123
1048421000095COBR_CAUC_BIC  ACUMULADORES AJAX LTDA                  009370368000116DISEG PRODUTOS ELETRONICOS LTDA         RUA C 135 N. 11 QD 560 LT 01            GOIANIA                                 74275040GO411820000600643725003133102   27022013018GOIANIA             2904201300000000000210623CC                                                                                                                                                                                                                                                                                                                                                                                                         000124
1048421000095COBR_CAUC_BIC  ACUMULADORES AJAX LTDA                  001441519000178EVOLUSOM COMERCIAL LTDA                 RUA JOSE CLEMENTE 288                   MARINGA                                 87020070PR411810000100643750003131602   27022013016CURITIBA            1504201300000000000490196CC                                                                                                                                                                                                                                                                                                                                                                                                         000125
1048421000095COBR_CAUC_BIC  ACUMULADORES AJAX LTDA                  001441519000178EVOLUSOM COMERCIAL LTDA                 RUA JOSE CLEMENTE 288                   MARINGA                                 87020070PR411810000200643768003131603   27022013016CURITIBA            2904201300000000000490343CC                                                                                                                                                                                                                                                                                                                                                                                                         000126
1048421000095COBR_CAUC_BIC  ACUMULADORES AJAX LTDA                  009565470000177W & Z COMERCIO DE BATERIAS LTDA ME      AV ALMIRANTE ADA DE BARROS NUNES N 2842 VOLTA REDONDA                           27281800RJ411800000100644233025235002   27022013014RIO DE JANEIRO      1504201300000000000123828CC                                                                                                                                                                                                                                                                                                                                                                                                         000127
1048421000095COBR_CAUC_BIC  ACUMULADORES AJAX LTDA                  009565470000177W & Z COMERCIO DE BATERIAS LTDA ME      AV ALMIRANTE ADA DE BARROS NUNES N 2842 VOLTA REDONDA                           27281800RJ411800000200644241025235003   27022013014RIO DE JANEIRO      2904201300000000000123864CC                                                                                                                                                                                                                                                                                                                                                                                                         000128
1048421000095COBR_CAUC_BIC  ACUMULADORES AJAX LTDA                  009565470000177W & Z COMERCIO DE BATERIAS LTDA ME      AV ALMIRANTE ADA DE BARROS NUNES N 2842 VOLTA REDONDA                           27281800RJ411800000300644250025235101   27022013014RIO DE JANEIRO      1804201300000000000177640CC                                                                                                                                                                                                                                                                                                                                                                                                         000129
1048421000095COBR_CAUC_BIC  ACUMULADORES AJAX LTDA                  009565470000177W & Z COMERCIO DE BATERIAS LTDA ME      AV ALMIRANTE ADA DE BARROS NUNES N 2842 VOLTA REDONDA                           27281800RJ411800000400644268003132002   27022013014RIO DE JANEIRO      1804201300000000000204286CC                                                                                                                                                                                                                                                                                                                                                                                                         000130
1048421000095COBR_CAUC_BIC  ACUMULADORES AJAX LTDA                  005437649000198ORTSA COMERCIO DE BATERIAS LIMITAD      RUA DENTISTA BARRETO N 3 13             SAO PAULO                               03420000SP411790000100643458003133404   27022013007PAULISTA            2805201300000000000063263CC                                                                                                                                                                                                                                                                                                                                                                                                         000131
1048421000095COBR_CAUC_BIC  ACUMULADORES AJAX LTDA                  005437649000198ORTSA COMERCIO DE BATERIAS LIMITAD      RUA DENTISTA BARRETO N 3 13             SAO PAULO                               03420000SP411790000200643865025237002   27022013007PAULISTA            2904201300000000000054995CC                                                                                                                                                                                                                                                                                                                                                                                                         000132
1048421000095COBR_CAUC_BIC  ACUMULADORES AJAX LTDA                  005437649000198ORTSA COMERCIO DE BATERIAS LIMITAD      RUA DENTISTA BARRETO N 3 13             SAO PAULO                               03420000SP411790000300643873025237003   27022013007PAULISTA            2805201300000000000055010CC                                                                                                                                                                                                                                                                                                                                                                                                         000133
1048421000095COBR_CAUC_BIC  ACUMULADORES AJAX LTDA                  005437649000198ORTSA COMERCIO DE BATERIAS LIMITAD      RUA DENTISTA BARRETO N 3 13             SAO PAULO                               03420000SP411790000400643890003133403   27022013007PAULISTA            2904201300000000000063243CC                                                                                                                                                                                                                                                                                                                                                                                                         000134
1048421000095COBR_CAUC_BIC  ACUMULADORES AJAX LTDA                  005437649000198ORTSA COMERCIO DE BATERIAS LIMITAD      RUA DENTISTA BARRETO N 3 13             SAO PAULO                               03420000SP411790000500646945025291306   12032013007PAULISTA            0107201300000000000150900CC                                                                                                                                                                                                                                                                                                                                                                                                         000135
1048421000095COBR_CAUC_BIC  ACUMULADORES AJAX LTDA                  010553657000130OMIL ACUMULADORES LTDA                  RUA P 16 N. 1133                        GOIANIA                                 74543040GO411780000100646902003159906   12032013018GOIANIA             1007201300000000000265446CC                                                                                                                                                                                                                                                                                                                                                                                                         000136
1048421000095COBR_CAUC_COR  ACUMULADORES AJAX LTDA                  014326585000149POLLI E SILVESTRIN DISTRIB DE MAT       RUA MATO GROSSO 119                     CHAPECO                                 89802270SC411770000100644071025234401   27022013900BRADESCO S/A        1804201300000000000037050CC                                                                                                                                                                                                                                                                                                                                                                                                         000137
1048421000095COBR_CAUC_COR  ACUMULADORES AJAX LTDA                  014326585000149POLLI E SILVESTRIN DISTRIB DE MAT       RUA MATO GROSSO 119                     CHAPECO                                 89802270SC411770000200644080003131801   27022013900BRADESCO S/A        1804201300000000000042607CC                                                                                                                                                                                                                                                                                                                                                                                                         000138
1048421000095COBR_CAUC_COR  ACUMULADORES AJAX LTDA                  014326585000149POLLI E SILVESTRIN DISTRIB DE MAT       RUA MATO GROSSO 119                     CHAPECO                                 89802270SC411770000300644101025234302   27022013900BRADESCO S/A        1504201300000000000092871CC                                                                                                                                                                                                                                                                                                                                                                                                         000139
1048421000095COBR_CAUC_COR  ACUMULADORES AJAX LTDA                  014326585000149POLLI E SILVESTRIN DISTRIB DE MAT       RUA MATO GROSSO 119                     CHAPECO                                 89802270SC411770000400644110025234303   27022013900BRADESCO S/A        2904201300000000000092898CC                                                                                                                                                                                                                                                                                                                                                                                                         000140
1048421000095COBR_CAUC_BIC  ACUMULADORES AJAX LTDA                  010828286000151PHD COMERCIO E LICITACOES LTDA EPP      RUA DONA ANTONIA N. 691                 GUARULHOS                               07021000SP411760000100644012025234901   27022013037GUARULHOS           1804201300000000000029820CC                                                                                                                                                                                                                                                                                                                                                                                                         000141
1048421000095COBR_CAUC_BIC  ACUMULADORES AJAX LTDA                  010828286000151PHD COMERCIO E LICITACOES LTDA EPP      RUA DONA ANTONIA N. 691                 GUARULHOS                               07021000SP411760000200644021003131901   27022013037GUARULHOS           1804201300000000000034293CC                                                                                                                                                                                                                                                                                                                                                                                                         000142
