0REMESSANOTIFICACAO ELETRONICA        99999999999999BICBANCO                                AV. PAULISTA                            1048      12.ANDAR  BELA VISTA                    SAO PAULO                     01310100SP1121739360CORTINHAL                               COORDENADOR                             30082013                                                                                                                                                                                                                                                                                                                                                                                      000001
1046421001443COBR_CAUC_COR  COSTAO DO SANTINHO TUR E LAZER LTDA     000480633000144RENASE AGENCIA DE VIAGENS E TURISM      R. CHILON,344                           SAO PAULO                               04552030SP438020000100011448179945      28082013900BRADESCO S/A        1609201300000000026380077CC                                                                                                                                                                                                                                                                                                                                                                                                         000002
1028421001518COBR_CAUC_COR  GAIA AGRIBUSINESS AGRICOLA LTDA         000041890124168JOAO QUIRINO DA SILVA                   RUA RUI BARBOSA,826                     PONTALINA                               75620000GO43803000010291759440444       29082013900BRADESCO S/A        2502201400000000019280000CC                                                                                                                                                                                                                                                                                                                                                                                                         000003
1022421026823DIR_CREDIT     IBA AGROINDUSTRIAL LTDA                 007459492000127DESTILARIA VALE DO PARACATU AGROENERGIA ROD LMG 680 KM 26 CX POSTAL 271         PARACATU                                38600000MG4381700001                                                                                                                                          001114338           101020100000017282            26062013001210a locadora aluga para locataria as maquinas descritas no instrumento   particular de contrato de locação de maquinas agricolas.                                                                                                                 006997187000126              000004
1022421026823DIR_CREDIT     IBA AGROINDUSTRIAL LTDA                 007459492000127DESTILARIA VALE DO PARACATU AGROENERGIA ROD LMG 680 KM 26 CX POSTAL 271         PARACATU                                38600000MG4382100001                                                                                                                                          001114325           101020100000017282            26062013001210a locadora aluga para locataria as maquinas descritas no instrumento   particular de contrato de locação de maquinas agricolas.                                                                                                                 006997187000126              000005
1022421026823DIR_CREDIT     IBA AGROINDUSTRIAL LTDA                 007459492000127DESTILARIA VALE DO PARACATU AGROENERGIA ROD LMG 680 KM 26 CX POSTAL 271         PARACATU                                38600000MG4381800001                                                                                                                                          001114319           101020100000017282            26062013001213a locadora aluga para locataria as maquinas descritas no instrumento   particular de contrato de locação de maquinas agricolas.                                                                                                                 006997187000126              000006
1022421009579COBR_CAUC_BIC  LOREN-SID LTDA                          032919896000101COMERCIAL DE VENTILADORES LTDA          C.N.F 01-LOTE 5/08 LOJA 1               TAGUATINGA NORT                         72125515DF43822000010457796442061       04072013009BRASILIA            0909201300000000000126150CC                                                                                                                                                                                                                                                                                                                                                                                                         000007
1022421009579COBR_CAUC_BIC  LOREN-SID LTDA                          032919896000101COMERCIAL DE VENTILADORES LTDA          C.N.F 01-LOTE 5/08 LOJA 1               TAGUATINGA NORT                         72125515DF43822000020457797242061       04072013009BRASILIA            0910201300000000000126150CC                                                                                                                                                                                                                                                                                                                                                                                                         000008
1022421009579COBR_CAUC_BIC  LOREN-SID LTDA                          032919896000101COMERCIAL DE VENTILADORES LTDA          C.N.F 01-LOTE 5/08 LOJA 1               TAGUATINGA NORT                         72125515DF43822000030457798142061       04072013009BRASILIA            0811201300000000000126150CC                                                                                                                                                                                                                                                                                                                                                                                                         000009
1022421009579COBR_CAUC_BIC  LOREN-SID LTDA                          032919896000101COMERCIAL DE VENTILADORES LTDA          C.N.F 01-LOTE 5/08 LOJA 1               TAGUATINGA NORT                         72125515DF43822000040457799942061       04072013009BRASILIA            0812201300000000000126150CC                                                                                                                                                                                                                                                                                                                                                                                                         000010
1022421009579COBR_CAUC_COR  LOREN-SID LTDA                          002292663000152SANTA IZABEL MOV. E ELET. LTDA          RUA CORONEL SA, S/N                     STA IZABEL DO P                         68790000PA43833000010457811142031       28062013900BRADESCO S/A        0310201300000000000404558CC                                                                                                                                                                                                                                                                                                                                                                                                         000011
1022421009579COBR_CAUC_COR  LOREN-SID LTDA                          002282152000230CONCORDIA MOVEIS E ELETRO LTDA          RUA CORONEL SA, S/N                     SANTA IZABEL DO                         68790000PA43832000010457728042007       28062013900BRADESCO S/A        0310201300000000000404558CC                                                                                                                                                                                                                                                                                                                                                                                                         000012
1022421009579COBR_CAUC_COR  LOREN-SID LTDA                          002280707000124TOME-ACU MOVEIS E ELET. LTDA            RUA JOAO COELHO, S/N                    STA IZABEL DO P                         68790000PA43831000010457822742030       28062013900BRADESCO S/A        0310201300000000000404480CC                                                                                                                                                                                                                                                                                                                                                                                                         000013
1022421009579COBR_CAUC_BIC  LOREN-SID LTDA                          010645495000160M. SOUZA DA GAMA - ME                   RUA CEL. LOURENCO BORGES, 2146          BREVES                                  68800000PA43830000010457769742016       28062013050BELEM               0309201300000000000168588CC                                                                                                                                                                                                                                                                                                                                                                                                         000014
1022421009579COBR_CAUC_BIC  LOREN-SID LTDA                          010645495000160M. SOUZA DA GAMA - ME                   RUA CEL. LOURENCO BORGES, 2146          BREVES                                  68800000PA43830000020457770142016       28062013050BELEM               0310201300000000000168586CC                                                                                                                                                                                                                                                                                                                                                                                                         000015
1022421009579COBR_CAUC_BIC  LOREN-SID LTDA                          010645495000160M. SOUZA DA GAMA - ME                   RUA CEL. LOURENCO BORGES, 2146          BREVES                                  68800000PA43830000030457771942016       28062013050BELEM               0211201300000000000168586CC                                                                                                                                                                                                                                                                                                                                                                                                         000016
1022421009579COBR_CAUC_BIC  LOREN-SID LTDA                          010645495000160M. SOUZA DA GAMA - ME                   RUA CEL. LOURENCO BORGES, 2146          BREVES                                  68800000PA43830000040457772742016       28062013050BELEM               0212201300000000000168586CC                                                                                                                                                                                                                                                                                                                                                                                                         000017
1022421009579COBR_CAUC_COR  LOREN-SID LTDA                          002282194000271BENEVIDES MOVEIS E ELETRO LTDA          RUA CORONEL SA, S/N                     STA IZABEL DO P                         68790000PA43829000010457718242009       28062013900BRADESCO S/A        0310201300000000000404558CC                                                                                                                                                                                                                                                                                                                                                                                                         000018
1022421009579COBR_CAUC_COR  LOREN-SID LTDA                          002282194000271BENEVIDES MOVEIS E ELETRO LTDA          RUA CORONEL SA, S/N                     STA IZABEL DO P                         68790000PA43829000020457719142011       28062013900BRADESCO S/A        0310201300000000000404558CC                                                                                                                                                                                                                                                                                                                                                                                                         000019
1022421009579COBR_CAUC_BIC  LOREN-SID LTDA                          001746105000157ELETROPIMBO COM. E SERVICO LTDA         AV. MAGALHAES BARATA 1192               CASTANHAL                               68740060PA43828000010457738742014       28062013050BELEM               0309201300000000000259870CC                                                                                                                                                                                                                                                                                                                                                                                                         000020
1022421009579COBR_CAUC_BIC  LOREN-SID LTDA                          001746105000157ELETROPIMBO COM. E SERVICO LTDA         AV. MAGALHAES BARATA 1192               CASTANHAL                               68740060PA43828000020457739542014       28062013050BELEM               0310201300000000000258834CC                                                                                                                                                                                                                                                                                                                                                                                                         000021
1022421009579COBR_CAUC_BIC  LOREN-SID LTDA                          001746105000157ELETROPIMBO COM. E SERVICO LTDA         AV. MAGALHAES BARATA 1192               CASTANHAL                               68740060PA43828000030457740942014       28062013050BELEM               0211201300000000000258834CC                                                                                                                                                                                                                                                                                                                                                                                                         000022
1022421009579COBR_CAUC_COR  LOREN-SID LTDA                          007227502000107CARRA E MAFFEI LTDA-ME                  RUA MARECHAL RONDON,65                  CAMPO GRANDE                            79008000MS43827000010457727142006       28062013900BRADESCO S/A        2609201300000000000096980CC                                                                                                                                                                                                                                                                                                                                                                                                         000023
1022421009579COBR_CAUC_COR  LOREN-SID LTDA                          007227502000107CARRA E MAFFEI LTDA-ME                  RUA MARECHAL RONDON,65                  CAMPO GRANDE                            79008000MS43827000020457783242006       28062013900BRADESCO S/A        2610201300000000000096980CC                                                                                                                                                                                                                                                                                                                                                                                                         000024
1022421009579COBR_CAUC_BIC  LOREN-SID LTDA                          001963780000138MACROVENDA SOLUCOES EM VENT. LTDA       RUA DO HIPODROMO, 628/632               SAO PAULO                               03051000SP43826000010457773542058       04072013007PAULISTA            0909201300000000000070825CC                                                                                                                                                                                                                                                                                                                                                                                                         000025
1022421009579COBR_CAUC_BIC  LOREN-SID LTDA                          001963780000138MACROVENDA SOLUCOES EM VENT. LTDA       RUA DO HIPODROMO, 628/632               SAO PAULO                               03051000SP43826000020457774342058       04072013007PAULISTA            0910201300000000000057226CC                                                                                                                                                                                                                                                                                                                                                                                                         000026
1022421009579COBR_CAUC_BIC  LOREN-SID LTDA                          001963780000138MACROVENDA SOLUCOES EM VENT. LTDA       RUA DO HIPODROMO, 628/632               SAO PAULO                               03051000SP43826000030457775142058       04072013007PAULISTA            0811201300000000000057226CC                                                                                                                                                                                                                                                                                                                                                                                                         000027
1022421009579COBR_CAUC_COR  LOREN-SID LTDA                          044878981000140COIMMA COM.IND.SAO CRISTOVAO LTDA.      ROD.COMTE.JOAO RIBEIRO DE BARROS KM 646 DRACENA                                 17900000SP43825000010457791342092       05072013900BRADESCO S/A        1009201300000000000081340CC                                                                                                                                                                                                                                                                                                                                                                                                         000028
1022421009579COBR_CAUC_COR  LOREN-SID LTDA                          044878981000140COIMMA COM.IND.SAO CRISTOVAO LTDA.      ROD.COMTE.JOAO RIBEIRO DE BARROS KM 646 DRACENA                                 17900000SP43825000020457792142092       05072013900BRADESCO S/A        1010201300000000000081340CC                                                                                                                                                                                                                                                                                                                                                                                                         000029
1022421009579COBR_CAUC_BIC  LOREN-SID LTDA                          037405842000133CAMARA FRIA COM.MANUT.ASSIST.TEC.L      AV.PERIMETRAL NORTE,7625                GOIANIA                                 74573260GO43824000010457721242077       05072013018GOIANIA             1009201300000000000069786CC                                                                                                                                                                                                                                                                                                                                                                                                         000030
1022421009579COBR_CAUC_BIC  LOREN-SID LTDA                          037405842000133CAMARA FRIA COM.MANUT.ASSIST.TEC.L      AV.PERIMETRAL NORTE,7625                GOIANIA                                 74573260GO43824000020457722142077       05072013018GOIANIA             1010201300000000000069786CC                                                                                                                                                                                                                                                                                                                                                                                                         000031
1022421009579COBR_CAUC_COR  LOREN-SID LTDA                          007227592000128G.A. VIANA IND. COMERC. EPP             AV.DOS PINHEIROS N. 1006                SANTA FE DO SUL                         15775000SP43823000010457746842076       05072013900BRADESCO S/A        1009201300000000000208740CC                                                                                                                                                                                                                                                                                                                                                                                                         000032
1046421006070DIR_CREDIT     METALURGICA DS LTDA                     060857349000176TRW AUTOMOTIVE LTDA                     VIA ANHANGUERA KM 147                   LIMEIRA                                 13486915SP4381300001                                                                                                                                          012352672           260320070000018698            29082013017002fornecimento de discos e tambores de freio para automoveis                                                                                                                                                                                      079414868000198              000033
9000018                                                                                                                                                                                                                                                                                                                                                                                                                                                                                                                                                                                                                                                                                                               000034
