0REMESSANOTIFICACAO ELETRONICA        99999999999999BICBANCO                                AV. PAULISTA                            1048      12.ANDAR  BELA VISTA                    SAO PAULO                     01310100SP1121739360CORTINHAL                               COORDENADOR                             02052012                                                                                                                                                                                                                                                                                                                                                                                      000001
1007421027229COBR_CAUC_COR  ARFRIO S/A ARM GERAIS FRIGORIFICO       083310441000460COOP CENTRAL OESTE CATARINENSE          SAAN QD 02 LOTE 995,0                   BRASILIA                                70632200DF35152000010002977604/2012     30042012900BRADESCO S/A        0505201200000000012500000CC                                                                                                                                                                                                                                                                                                                                                                                                         000002
1007421053971COBR_CAUC_COR  VIDA ALIMENTOS LTDA                     044022424000556TRIANGULO ALIMENTOS LTDA                AV  JOSE DE BARROS RIBEIRO, 168         ITAPOLIS                                14900000SP3515300001012016610004372601  27042012900BRADESCO S/A        1805201200000000012265200CC                                                                                                                                                                                                                                                                                                                                                                                                         000003
1007421053971COBR_CAUC_COR  VIDA ALIMENTOS LTDA                     044022424000556TRIANGULO ALIMENTOS LTDA                AV  JOSE DE BARROS RIBEIRO, 168         ITAPOLIS                                14900000SP3515300002012016700004372901  27042012900BRADESCO S/A        2505201200000000012264300CC                                                                                                                                                                                                                                                                                                                                                                                                         000004
1021141012725COBR_CAUC_BIC  MABE BRASIL ELETRODOMESTICOS LTDA       043708379000100FAST SHOP COMERCIAL LTDA                AV ZAKI NARCHI 1664, SOBRE LOJA         SAO PAULO                               02029001SP3515400001063222510000720211  28042012007PAULISTA            1806201200000000012877893TD                                                                                                                                                                                                                                                                                                                                                                                                         000005
1048141000168COBR_CAUC_BIC  BALDIN BIOENERGIA S/A                   051050763000188SAO PEDRO BIOENERGIA S.A.               FAZENDA SAO JOSE, S/N                   PIRASSUNUNGA                            13630970SP35155000010053005018954/1     09042012021CAMPINAS            2606201200000000016000000TD                                                                                                                                                                                                                                                                                                                                                                                                         000006
1008421022487COBR_CAUC_COR  EBP - EMPRESA BRASILEIRA DE PESCADO     033304981000110SUPERMERCADOS MUNDIAL LTDA              RUA  DONA EMILIA, 2                     RIO DE JANEIRO                          20765110RJ35156000010151089610628/      27042012900BRADESCO S/A        1705201200000000023310000CC                                                                                                                                                                                                                                                                                                                                                                                                         000007
1015421001149DIR_CREDIT     GREMIO FOOTBALL PORTO ALEGRENSE         067420349000153FILON CONFECCOES LTDA                   RUA LUBAVITCH 42                        SAO PAULO                               01123010SP3516000001                                                                                                                                          011841596           010120050000017631S/N         30042012000403LICENCIAMENTO DE MARCA E SIMBOLOGIA NA CONFECÇÃO E VENDA DE PRODUTOS DEMATERIAIS ESPORTIVOS E OUTRAS AVENÇAS.                                                                                                                                   092797901000174              000008
1045421009756DIR_CREDIT     CLIMEDI-CLINICA MED.N.E.DIABETE S/S     013360276000122UNIMED SERGIPE - COOP DE TRAB MEDICO    RUA SOCORRO, 100 SAO JOSE               ARACAJU                                 49015300SE3516500001                                                                                                                                          481012559           0711200500000156710021        30042012000404Serviços auxiliares de diagnosticos e terapia aos Beneficiários de Pla-no de Saúde.                                                                                                                                                             013158985000120              000009
9000007                                                                                                                                                                                                                                                                                                                                                                                                                                                                                                                                                                                                                                                                                                               000010
