0REMESSANOTIFICACAO ELETRONICA        99999999999999BICBANCO                                AV. PAULISTA                            1048      12.ANDAR  BELA VISTA                    SAO PAULO                     01310100SP1121739360CORTINHAL                               COORDENADOR                             07042014                                                                                                                                                                                                                                                                                                                                                                                      000001
1015421022340COBR_CAUC_BIC  BORRACHAS VIPAL SA                      008832031000110VEYANCE TECHNOLOGIES BR.PRODS.ENG.      RUA MORAES MIGUEL, 180                  SAO PAULO                               03021200SP470680000101248494048003401   01042014007PAULISTA            1605201400000000014278639CC                                                                                                                                                                                                                                                                                                                                                                                                         000002
1015421022340COBR_CAUC_BIC  BORRACHAS VIPAL SA                      008832031000110VEYANCE TECHNOLOGIES BR.PRODS.ENG.      RUA MORAES MIGUEL, 180                  SAO PAULO                               03021200SP470680000201248605048004701   02042014007PAULISTA            1605201400000000014270911CC                                                                                                                                                                                                                                                                                                                                                                                                         000003
1015421022340COBR_CAUC_BIC  BORRACHAS VIPAL SA                      008832031000110VEYANCE TECHNOLOGIES BR.PRODS.ENG.      RUA MORAES MIGUEL, 180                  SAO PAULO                               03021200SP470680000301249407048029501   02042014007PAULISTA            1605201400000000014255842CC                                                                                                                                                                                                                                                                                                                                                                                                         000004
1015421022340COBR_CAUC_BIC  BORRACHAS VIPAL SA                      008832031000110VEYANCE TECHNOLOGIES BR.PRODS.ENG.      RUA MORAES MIGUEL, 180                  SAO PAULO                               03021200SP470680000401250154048030401   02042014007PAULISTA            1605201400000000014097804CC                                                                                                                                                                                                                                                                                                                                                                                                         000005
1029421018494COBR_CAUC_COR  PRO SALUTE SERVICOS PARA SAUDE LTDA     088611264000122INTRAL S A IND DE MATERIAIS ELETRI      TRAV. RIO GRANDE , 130                  CAXIAS DO SUL                           95098750RS4706900001001202250147344.A   02042014900BRADESCO S/A        1005201400000000010637241CC                                                                                                                                                                                                                                                                                                                                                                                                         000006
1029421018494COBR_CAUC_COR  PRO SALUTE SERVICOS PARA SAUDE LTDA     093785822000106SAN MARINO ONIBUS LTDA                  IRMAO GILDO SCHIAVO, 110                CAXIAS DO SUL                           95058510RS4707000001001202170147391.A   02042014900BRADESCO S/A        2004201400000000018524886CC                                                                                                                                                                                                                                                                                                                                                                                                         000007
1007421035337COBR_CAUC_BIC  COMERCIAL IMP.E EXP.CANTAREIRA LTDA     012557936000105CASA PETRUS DOCES E SALGADOS LTDA       R DA CARIOCA, 14 , LOJA C JIRAU         RIO DE JANEIRO                          20050000RJ470710000102799820115738001   27032014014RIO DE JANEIRO      1804201400000000050325000CC                                                                                                                                                                                                                                                                                                                                                                                                         000008
1007421034080COBR_CAUC_BIC  SIDMEX INTERNACIONAL LTDA               013586587000104HF DO BRASIL IMP. E COM. DE POLIME      NELLY PELLEGRINO,463                    SAO CAETANO DO                          09580140SP470720000102799731026414      04042014007PAULISTA            2107201400000000021956088CC                                                                                                                                                                                                                                                                                                                                                                                                         000009
1007421077480COBR_CAUC_COR  KOFAR IND COM DE PROD METALUG LTDA      018842730000367CONSORCIO PRO INFANCIA BRASIL PIB       R BELARMINO FERNANDES MAGALHAES,25      BOA VISTA                               69313485RR470730000102800526000081919   04042014700BANCO REAL- ABN AMRO0105201400000000010401856CC                                                                                                                                                                                                                                                                                                                                                                                                         000010
1016421019909COBR_CAUC_BIC  TROMBINI EMBALAGENS S/A                 006538082000109ROUSSELOT GELATINAS DO BRASIL LTDA      RUA SANTO AGOSTINHO 280 ARCADAS         AMPARO                                  13908000SP47074000010443997825471-1     03042014021CAMPINAS            1505201400000000014697345CC                                                                                                                                                                                                                                                                                                                                                                                                         000011
9000007                                                                                                                                                                                                                                                                                                                                                                                                                                                                                                                                                                                                                                                                                                               000012
