0REMESSANOTIFICACAO ELETRONICA        99999999999999BICBANCO                                AV. PAULISTA                            1048      12.ANDAR  BELA VISTA                    SAO PAULO                     01310100SP1121739360CORTINHAL                               COORDENADOR                             25092013                                                                                                                                                                                                                                                                                                                                                                                      000001
1007421061990COBR_CAUC_BIC  BRASIL MAQUINAS E EQUIP PESADOS S/A     000752423000249CUNZOLO MAQUINAS E EQUIPAMENTOS         RUA SALVIANO JOSE DA ,300-GALPAO 1      SAO JOSE DOS CA                         12238573SP44334000010228325416997C      19092013007PAULISTA            1011201300000000020916668CC                                                                                                                                                                                                                                                                                                                                                                                                         000002
1007421061990COBR_CAUC_BIC  BRASIL MAQUINAS E EQUIP PESADOS S/A     000752423000249CUNZOLO MAQUINAS E EQUIPAMENTOS         RUA SALVIANO JOSE DA ,300-GALPAO 1      SAO JOSE DOS CA                         12238573SP44334000020228326216997B      19092013007PAULISTA            1010201300000000020916666CC                                                                                                                                                                                                                                                                                                                                                                                                         000003
1007421068839COBR_CAUC_BIC  KELPEN OIL BRASIL LTDA                  043218296000124PETROCOQUE SA IND E COMERCIO            ROD CONEGO DOMENICO RANGONI SP,267      CUBATAO                                 11573000SP44335000010228468402034801    24092013023SANTOS              0110201300000000010583260CC                                                                                                                                                                                                                                                                                                                                                                                                         000004
1019421014068COBR_CAUC_COR  RIO BRANCO ALIMENTOS S/A                004641376007300SUPERMERCADOS BH COMERCIO DE            AV GERALDO ROCHA 700                    CONTAGEM                                32183054MG4433200001020643980186283501  23092013900BRADESCO S/A        2110201300000000020261307CC                                                                                                                                                                                                                                                                                                                                                                                                         000005
1042141005640COBR_CAUC_BIC  TAC TRANSPORTE E CONSTRUCOES LTDA       007073042000100EDECONSIL CONSTRUCOES E LOCACOES L      AV JOSE SARNEY 500                      SAO LUIS                                65055300MA443330000103904221550/2013    10092013042SAO LUIS            1811201300000000016500000TD                                                                                                                                                                                                                                                                                                                                                                                                         000006
1028421008601COBR_CAUC_COR  TERRENA AGRONEGOCIOS LTDA               000030692156615VICENTE FERREIRA GONCALVES              R. ARTHUR BOTELHO                  326  PATROCINIO                              38740000MG4433100001029260620007527901  17092013800UNIBANCO S/A        3011201300000000029455774CC                                                                                                                                                                                                                                                                                                                                                                                                         000007
9000005                                                                                                                                                                                                                                                                                                                                                                                                                                                                                                                                                                                                                                                                                                               000008
