0REMESSANOTIFICACAO ELETRONICA        99999999999999BICBANCO                                AV. PAULISTA                            1048      12.ANDAR  BELA VISTA                    SAO PAULO                     01310100SP1121739360CORTINHAL                               COORDENADOR                             08052014                                                                                                                                                                                                                                                                                                                                                                                      000001
1045421005424DIR_CREDIT     SAO LUCAS MEDICO HOSPITALAR LTDA        013360276000122UNIMED SERGIPE - COOP DE TRAB MEDICO    RUA SOCORRO 100_ SAO JOSE               ARACAJU                                 49015300SE4742200001                                                                                                                                          012573257           01052003000000852505/2003     05052014000404Contrato de prestação de serviços hospitalares aos beneficiários dos   planos de saúde operacionalizados pela contratante.                                                                                                                      013131370000100              000002
1044421012350DIR_CREDIT     PAPI PRONTO SOCORRO                     008380701000105UNIMED NATAL                            RUA MIPIBU, 511 - PETRÓPOLIS            NATAL                                   59020250RN4742400001                                                                                                                                          012573625           260320080000005352001         05052014000404atendimento médico ambulatorial dos conveniados da UNIMED                                                                                                                                                                                       008423220000130              000003
1046421006070DIR_CREDIT     METALURGICA DS LTDA                     060857349000176TRW AUTOMOTIVE LTDA                     VIA ANHANGUERA KM 147                   LIMEIRA                                 13486915SP4742500001                                                                                                                                          012573962           260320070000018698            05052014017002fornecimento de discos e tambores de freio para automóveis.                                                                                                                                                                                     079414868000198              000004
1029420932648DIR_CREDIT     PRATO FEITO ALIMENTACAO E SERVICOS      082638644000174UNIVERSAL LEAF TABACOS LTDA             BR 471 KM 129,8 DISTRITO INDUSTRIAL     SANTA CRUZ DO SUL                       96835642RS4743400001                                                                                                                                          012112289           230120070000000795S/N         17012013051902Fornecimento de refeições coletivas.                                                                                                                                                                                                            094161122000103              000005
1029420932648DIR_CREDIT     PRATO FEITO ALIMENTACAO E SERVICOS      000350387000106A.T.C ASSOCIATED TOBACCO COMPANY BR LTDABR 471 KM 132 - DISTRITO INDUSTRIAL     SANTA CRUZ DO SUL                       96835642RS4743500001                                                                                                                                          012112289           201220010000000796S/N         17012013051902FornecimentO de refeições coletivos.                                                                                                                                                                                                            094161122000103              000006
1029420932648DIR_CREDIT     PRATO FEITO ALIMENTACAO E SERVICOS      095422218000140METALURGICA MOR S/A                     BR 471 KM 132                           SANTA CRUZ DO SUL                       96835642RS4743600001                                                                                                                                          012112289           010919980000000810S/N         17012013051902Fornecimento de refeições coletivas.                                                                                                                                                                                                            094161122000103              000007
1029421007549DIR_CREDIT     PRATO FEITO ALIMENTACAO E SERVICOS      033876145002749ALLIANCE ONE BRASIL EXP DE TABACOS      BR 471 KM 48                            SANTA CRUZ DO SUL                       96835640RS4743700001                                                                                                                                          012112289           170219970000000824SN          17012013051902Fornecimento de refeições coletivas.                                                                                                                                                                                                            094161122000103              000008
1029421016661DIR_CREDIT     PRATO FEITO ALIMENTACAO E SERVICOS      089086961000336DAKOTA CALCADOS LTDA                    RUA BARAO DO RIO BRANCO,101             SARANDI                                 99560000RS4743800001                                                                                                                                          012112289           020520000000008494029/SN      17012013051902Fornecimento de refeições coletivas.                                                                                                                                                                                                            094161122000103              000009
1000000000000DIR_CREDIT     IMOVLEAO ADMIN INCORP IMOVEIS LTDA      010541089000157ESTRE SPI AMBIENTAL S/A                 AV.THOMAZ ALBERTO WATHELY, 5005JD AEROPORIBEIRãO PRETO                          14078900SP4744000001                                                                                                                                          012455807           281020130000025326            18122013000403locação do imóvel sediado na Av. Thomaz Alberto Wathely,5005 Ribeirão  Preto SP-Centro Empresarial Dr. Leão.                                                                                                                                    004819117000152              000010
1045421005424DIR_CREDIT     SAO LUCAS MEDICO HOSPITALAR LTDA        013360276000122UNIMED SERGIPE - COOP DE TRAB MEDICO    RUA SOCORRO 100_ SAO JOSE               ARACAJU                                 49015300SE4744100001                                                                                                                                          012109933           01052003000000852505/2003     21012013051902Contrato de prestação de serviços hospitalares aos beneficiários dos   planos de saúde operacionalizados pela contratante.                                                                                                                      013131370000100              000011
1018421034834COBR_CAUC_BIC  LACEL LATICINIOS CERES LTDA             005054671001554LIDER COMERCIO E INDUSTRIA LTDA         ROD AUGUSTO MONTENEGRO S/N KM-8         BELEM                                   66833000PA474490000103700210005332      06052014050BELEM               1006201400000000015340000CC                                                                                                                                                                                                                                                                                                                                                                                                         000012
1015421019927COBR_CAUC_BIC  BELSUL IND. E COM DE MAT. PRIMAS LT     060822079000168TWILTEX INDUSTRIAS TEXTEIS LTDA         AV JOAO PAULO,555                       EMBU                                    06818902SP47450000010127886511336-01    07052014007PAULISTA            1406201400000000010877622CC                                                                                                                                                                                                                                                                                                                                                                                                         000013
9000012                                                                                                                                                                                                                                                                                                                                                                                                                                                                                                                                                                                                                                                                                                               000014
