0REMESSANOTIFICACAO ELETRONICA        99999999999999BICBANCO                                AV. PAULISTA                            1048      12.ANDAR  BELA VISTA                    SAO PAULO                     01310100SP1121739360CORTINHAL                               COORDENADOR                             02102014                                                                                                                                                                                                                                                                                                                                                                                      000001
1016421009571COBR_CAUC_BIC  IMPORTADORA DE FRUTAS LA VIOLETERA      004641376003828SUPERMERCADOS BH COMERCIO DE ALIME      AVENIDA GERALDO ROCHA 200               CONTAGEM                                32183054MG4983100001046329560011905001  27092014019BELO HORIZONTE      0811201400000000012755322CC                                                                                                                                                                                                                                                                                                                                                                                                         000002
1016421009571COBR_CAUC_BIC  IMPORTADORA DE FRUTAS LA VIOLETERA      005955701000106COMPRE FACIL COM DE PROD ALIM LTDA      AV JORNALISTA ROBERTO MARINHO 3501      SAO JOSE DO RIO                         15061818SP4983200001046329720011854001  27092014022RIBEIRAO PRETO      0901201500000000016746120CC                                                                                                                                                                                                                                                                                                                                                                                                         000003
1016421009571COBR_CAUC_BIC  IMPORTADORA DE FRUTAS LA VIOLETERA      007728073000224REDE BRASIL DISTRIBUICAO E LOGISTI      AV UNIVERSITARIA 3680                   ANAPOLIS                                75024050GO4983300001046329640011865001  27092014018GOIANIA             0811201400000000012114945CC                                                                                                                                                                                                                                                                                                                                                                                                         000004
1016421009571COBR_CAUC_COR  IMPORTADORA DE FRUTAS LA VIOLETERA      012023966003149BONANZA SUPERMERCADOS LTDA              AV CLETO CAMPELO 36 SETOR FINANCEIR     CARUARU                                 55012340PE4983400001046329130011960001  27092014700BANCO REAL- ABN AMRO0811201400000000010224150CC                                                                                                                                                                                                                                                                                                                                                                                                         000005
1020421002020COBR_CAUC_COR  GRABER SISTEMAS DE SEGURANCA LTDA       010588595000363MEDLEY FARMACEUTICA LTDA                R ESTACIO DE SA, 1490 - JD SANTA GENEBRACAMPINAS                                13080010SP4983500001000183610000008150  01102014900BRADESCO S/A        0111201400000000014914867CC                                                                                                                                                                                                                                                                                                                                                                                                         000006
1022421008149COBR_CAUC_COR  PASSAREDO T. AEREOS LTDA-EM REC.JUD     010760260000119CVC BRASIL OPERADORA E AGENCIA DE       RUA GERTRUDES DE LIMA,53-CJ 52          SANTO ANDRE                             09020000SP498360000100018138116444      30092014900BRADESCO S/A        1310201400000000022389070CC                                                                                                                                                                                                                                                                                                                                                                                                         000007
1023421008201DIR_CREDIT     METRA-SISTEMA METR DE TRANSP LTDA       007096200000139CMT-CONSÓRCIO METROPOLITANO DE TRANSPORTAVENIDA REBOUÇAS Nº1368  JARDIM PAULISTASÃO PAULO                               05402100SP4984200001                                                                                                                                          012682990           020320090000023237            01102014000403venda de passagens e respectivos bilhetes, e todas as demais operações compreendidas no "sistema" da CMT, destacando a marca "BOM - bilhete ônibus metropolitano", cadastros e outros ativos, materiais e imateriais na operação.               001764417000193              000008
1046421006070DIR_CREDIT     METALURGICA DS LTDA                     060857349000176TRW AUTOMOTIVE LTDA                     VIA ANHANGUERA KM 147                   LIMEIRA                                 13486915SP4984300001                                                                                                                                          012683318           260320070000018698            30092014000404fornecimento de discos e tambores de freio para automóveis.                                                                                                                                                                                     079414868000198              000009
9000008                                                                                                                                                                                                                                                                                                                                                                                                                                                                                                                                                                                                                                                                                                               000010
