0REMESSANOTIFICACAO ELETRONICA        99999999999999BICBANCO                                AV. PAULISTA                            1048      12.ANDAR  BELA VISTA                    SAO PAULO                     01310100SP1121739360CORTINHAL                               COORDENADOR                             07032014                                                                                                                                                                                                                                                                                                                                                                                      000001
1009421012831COBR_CAUC_COR  ASA ALIMENTOS S/A                       007387853000177GRANJA SALOME LTDA                      ROD. BR-262  KM 0                       BOM DESPACHO                            35600000MG4665000001001497180047690     05032014900BRADESCO S/A        0204201400000000012600000CC                                                                                                                                                                                                                                                                                                                                                                                                         000002
1009421012831COBR_CAUC_COR  ASA ALIMENTOS S/A                       009587239000427COOPERATIVA MISTA DOS AVICULT. DO       ESTRADA TERESINA UNIAO ZONA LESTE       TERESINA                                64058305PI4665100001001497260047700     05032014900BRADESCO S/A        2603201400000000010800000CC                                                                                                                                                                                                                                                                                                                                                                                                         000003
1032420932087COBR_CAUC_BIC  TEXTIL RENAUXVIEW S/A                   000311557000143VCI VANGUARD CONFS IMPORTADAS SA        . ROD ANHANGUERA, KM 17, BL1 16950 KM 17SAO PAULO                               05112000SP466520000102664144099107/001  28022014007PAULISTA            1504201400000000010125538CC                                                                                                                                                                                                                                                                                                                                                                                                         000004
1021420930887COBR_CAUC_COR  DEDINI S/A INDUSTRIAS DE BASE           012229415000200S A USINA CORURIPE ACUCAR E ALCOOL      POV CAMACARI CAMACARI BR                CORURIPE                                57020030AL466530000106531799246689-2-2  06032014900BRADESCO S/A        3004201400000000031636244CC                                                                                                                                                                                                                                                                                                                                                                                                         000005
1029421018494COBR_CAUC_COR  PRO SALUTE SERVICOS PARA SAUDE LTDA     088611264000122INTRAL S A IND DE MATERIAIS ELETRI      TRAV. RIO GRANDE , 130                  CAXIAS DO SUL                           95098750RS4665400001001097950145835.A   04032014900BRADESCO S/A        1004201400000000011124144CC                                                                                                                                                                                                                                                                                                                                                                                                         000006
1029421018494COBR_CAUC_COR  PRO SALUTE SERVICOS PARA SAUDE LTDA     093785822000106SAN MARINO ONIBUS LTDA                  IRMAO GILDO SCHIAVO, 110                CAXIAS DO SUL                           95058510RS4665500001001097870145882.A   04032014900BRADESCO S/A        2003201400000000019181079CC                                                                                                                                                                                                                                                                                                                                                                                                         000007
1036421016893COBR_CAUC_COR  TECAL ALUMINIO DA AMAZONIA LTDA         004012043000148SHOWA DO BRASIL LTDA                    RUA RIO QUIXITO                         MANAUS                                  69075830AM4665600001059976410000057211  18022014900BRADESCO S/A        2003201400000000014217038CC                                                                                                                                                                                                                                                                                                                                                                                                         000008
1036421016893COBR_CAUC_COR  TECAL ALUMINIO DA AMAZONIA LTDA         004012043000148SHOWA DO BRASIL LTDA                    RUA RIO QUIXITO                         MANAUS                                  69075830AM4665600002059976500000057243  19022014900BRADESCO S/A        2103201400000000015392498CC                                                                                                                                                                                                                                                                                                                                                                                                         000009
1016421023299COBR_CAUC_COR  SIDERQUIMICA IND COM PROD QUIM S/A      007292446000186HG TEXTIL LTDA                          RUA ABRÃO DE SOUZA E SILVA 1557 ESTRADA BRUSQUE                                 88355570SC466570000104407707172191-5    25022014800UNIBANCO S/A        1006201400000000011775400CC                                                                                                                                                                                                                                                                                                                                                                                                         000010
9000008                                                                                                                                                                                                                                                                                                                                                                                                                                                                                                                                                                                                                                                                                                               000011
