0REMESSANOTIFICACAO ELETRONICA        99999999999999BICBANCO                                AV. PAULISTA                            1048      12.ANDAR  BELA VISTA                    SAO PAULO                     01310100SP1121739360CORTINHAL                               COORDENADOR                             02032012                                                                                                                                                                                                                                                                                                                                                                                      000001
1021420930887COBR_CAUC_BIC  DEDINI S/A INDUSTRIAS DE BASE           061186888006558SPAL IND BRASILEIRA DE BEBIDAS S A      ROD DOM GABRIEL P BUENO COUTO JARDIM TANJUNDIAI                                 13212240SP34142000010630106820001-1-1   29022012007PAULISTA            2803201200000000013448160CC                                                                                                                                                                                                                                                                                                                                                                                                         000002
1021141012725COBR_CAUC_BIC  MABE BRASIL ELETRODOMESTICOS LTDA       043708379000100FAST SHOP COMERCIAL LTDA                AV ZAKI NARCHI 1664, SOBRE LOJA         SAO PAULO                               02029001SP3414300001063008600000659517  29022012007PAULISTA            1904201200000000012897274TD                                                                                                                                                                                                                                                                                                                                                                                                         000003
1021141012725COBR_CAUC_BIC  MABE BRASIL ELETRODOMESTICOS LTDA       043708379000100FAST SHOP COMERCIAL LTDA                AV ZAKI NARCHI 1664, SOBRE LOJA         SAO PAULO                               02029001SP3414300002063008780000659518  29022012007PAULISTA            1904201200000000012897275TD                                                                                                                                                                                                                                                                                                                                                                                                         000004
1021141012725COBR_CAUC_BIC  MABE BRASIL ELETRODOMESTICOS LTDA       043708379000100FAST SHOP COMERCIAL LTDA                AV ZAKI NARCHI 1664, SOBRE LOJA         SAO PAULO                               02029001SP3414300003063008860000659519  29022012007PAULISTA            1904201200000000012897275TD                                                                                                                                                                                                                                                                                                                                                                                                         000005
1036421018985COBR_CAUC_BIC  PEEQFLEX INDUSTRIA E COMERCIO LTDA      005161069000544BRAINFARMA INDUSTRIA QUIMICA E FAR      Avenida Presidente Juscelino Kubitsche  SAO PAULO                               04593900SP3414400001058513616014567-01  29022012007PAULISTA            2806201200000000014991734CC                                                                                                                                                                                                                                                                                                                                                                                                         000006
1019421010259COBR_CAUC_BIC  L & S INTERBANK FOMENTO LTDA            017249111008547COOP. CENTRAL DOS PROD. RURAIS MG       RUA ITAMBÉ, 40                          BELO HORIZONTE                          30150150MG34145000010637257795277       29022012019BELO HORIZONTE      2603201200000000075323591CC                                                                                                                                                                                                                                                                                                                                                                                                         000007
1019421010259COBR_CAUC_BIC  L & S INTERBANK FOMENTO LTDA            017249111008547COOP. CENTRAL DOS PROD. RURAIS MG       RUA ITAMBÉ, 40                          BELO HORIZONTE                          30150150MG34145000020637258595278       29022012019BELO HORIZONTE      2603201200000000021796729CC                                                                                                                                                                                                                                                                                                                                                                                                         000008
1007421053076COBR_CAUC_BIC  WORLD TRACTOR COML IMP LTDA             033042730001348CIA SIDERURGICA NACIONAL                RUA ENG FRANCISCO PITTA BRITTO,138      SAO PAULO                               04753900SP3414600001011161172055        29022012007PAULISTA            1004201200000000014667975CC                                                                                                                                                                                                                                                                                                                                                                                                         000009
1016421022586COBR_CAUC_COR  BRAMAX IMP EXP COM DE MAQUINAS LTDA     082353194000416MOREIRA DA SILVA E COM DE MADEIRA       RUA COLONIZADOR ENIO PEPINO ,0          SINOP                                   78550099MT341470000103338477834/01      27022012800UNIBANCO S/A        0705201200000000017807353CC                                                                                                                                                                                                                                                                                                                                                                                                         000010
9000006                                                                                                                                                                                                                                                                                                                                                                                                                                                                                                                                                                                                                                                                                                               000011
