0REMESSANOTIFICACAO ELETRONICA        99999999999999BICBANCO                                AV. PAULISTA                            1048      12.ANDAR  BELA VISTA                    SAO PAULO                     01310100SP1121739360CORTINHAL                               COORDENADOR                             02072013                                                                                                                                                                                                                                                                                                                                                                                      000001
1006421010990COBR_CAUC_BIC  CAMERON CONSTRUTORA S/A                 010390965000191SHOPPING CENTER JUAZEIRO LTDA EPP       AV HUMBERTO BEZERRA, 1800               JUAZEIRO                                63020600CE42821000010956849948          14062013005JUAZEIRO            1509201300000000018731956CC                                                                                                                                                                                                                                                                                                                                                                                                         000002
1014421000268COBR_CAUC_COR  DOARBELLEZA PRODUTOS DE BELEZA LTD      066471517000177DPC DISTRIBUIDOR ATACADISTA S/A         RODOVIA MG 329 KMZ                      CARATINGA                               35303136MG4281900001045739030048996     28062013900BRADESCO S/A        0109201300000000013737184CC                                                                                                                                                                                                                                                                                                                                                                                                         000003
1014421000268COBR_CAUC_COR  DOARBELLEZA PRODUTOS DE BELEZA LTD      066471517000177DPC DISTRIBUIDOR ATACADISTA S/A         RODOVIA MG 329 KMZ                      CARATINGA                               35303136MG4281900002045739110049000     28062013900BRADESCO S/A        0109201300000000013049419CC                                                                                                                                                                                                                                                                                                                                                                                                         000004
1048421003043COBR_CAUC_COR  FRIGOL S.A. EM RECUPERACAO JUDICIAL     005699871000169FRIGOTIL FRIGORIFICO DE TIMON S/A       ROD TIMON/PRESIDENTE DUTRA BR S/N       TIMON                                   18681030MA4282200001000308210023781-01  01072013900BRADESCO S/A        0807201300000000020384260CC                                                                                                                                                                                                                                                                                                                                                                                                         000005
1018421032858COBR_CAUC_COR  PIVOT EQUIPAMENTOS AGRI E IRRI LTDA     000082410771815LUSENRIQUE QUINTAL                      AV LAURO CORREA DA SILVA, 3233 -        LIMEIRA                                 13481631SP42820000010000241418748 2     19062013900BRADESCO S/A        1508201300000000026150000CC                                                                                                                                                                                                                                                                                                                                                                                                         000006
1019421014637COBR_CAUC_COR  SOCIEDADE RADIO E TV ALTEROSA SA        006111334000119INTRALOT DO BRASIL COM EQUIP E          AV DO CONTORNO,6500-7 ANDAR             BELO HORIZONTE                          30110044MG42818000010001067361528       30062013900BRADESCO S/A        1507201300000000018230866CC                                                                                                                                                                                                                                                                                                                                                                                                         000007
1007421053971COBR_CAUC_COR  VIDA ALIMENTOS LTDA                     032669608000108BISCOITOS SAO BENEDITO IND COM LTD      RUA DA CONCEICAO, S/N CASA              SANTO ANTONIO D                         44573490BA42848000010191249500061676A   22052013800UNIBANCO S/A        0307201300000000001493250CC                                                                                                                                                                                                                                                                                                                                                                                                         000008
1007421053971COBR_CAUC_COR  VIDA ALIMENTOS LTDA                     032669608000108BISCOITOS SAO BENEDITO IND COM LTD      RUA DA CONCEICAO, S/N CASA              SANTO ANTONIO D                         44573490BA42848000020191250900061676B   22052013800UNIBANCO S/A        1007201300000000001493250CC                                                                                                                                                                                                                                                                                                                                                                                                         000009
1007421053971COBR_CAUC_COR  VIDA ALIMENTOS LTDA                     032669608000108BISCOITOS SAO BENEDITO IND COM LTD      RUA DA CONCEICAO, S/N CASA              SANTO ANTONIO D                         44573490BA42848000030191251700061676C   22052013800UNIBANCO S/A        1707201300000000001538500CC                                                                                                                                                                                                                                                                                                                                                                                                         000010
9000006                                                                                                                                                                                                                                                                                                                                                                                                                                                                                                                                                                                                                                                                                                               000011
