0REMESSANOTIFICACAO ELETRONICA        99999999999999BICBANCO                                AV. PAULISTA                            1048      12.ANDAR  BELA VISTA                    SAO PAULO                     01310100SP1121739360CORTINHAL                               COORDENADOR                             30092014                                                                                                                                                                                                                                                                                                                                                                                      000001
1007421072259COBR_CAUC_COR  BOMBRIL S/A                             005139469000120DIN CENTRO OESTE LTDA                   AV WILSON TAVARES RIBEIRO 800           CONTAGEM                                32183680MG4981400001033110220062810001  30082014900BRADESCO S/A        2310201400000000010488370CC                                                                                                                                                                                                                                                                                                                                                                                                         000002
1041421002694COBR_CAUC_COR  MEGA FIOS LTDA                          006699029000190CANOPUS CONSTRUCOES LTDA                AV. COLARES MOREIRA 1 QUADRA 46         SAO LUIS                                65075441MA49815000010073721636975 11    25092014900BRADESCO S/A        2310201400000000012717697CC                                                                                                                                                                                                                                                                                                                                                                                                         000003
1021421017050COBR_CAUC_BIC  STAR DISTR PROD FARMACEUTICOS LTDA      061585865073701RAIA DROGASIL S/A                       RUA PATAXOS , 1412                      EMBU                                    06833073SP4981600001000055210000406201  26092014007PAULISTA            1010201400000000012483783CC                                                                                                                                                                                                                                                                                                                                                                                                         000004
1021421017050COBR_CAUC_BIC  STAR DISTR PROD FARMACEUTICOS LTDA      061585865073701RAIA DROGASIL S/A                       RUA PATAXOS , 1412                      EMBU                                    06833073SP4981600002000055300000406301  26092014007PAULISTA            1010201400000000071831228CC                                                                                                                                                                                                                                                                                                                                                                                                         000005
1021421017050COBR_CAUC_BIC  STAR DISTR PROD FARMACEUTICOS LTDA      061585865073701RAIA DROGASIL S/A                       RUA PATAXOS , 1412                      EMBU                                    06833073SP4981600003000055480000406401  26092014007PAULISTA            1010201400000000015175105CC                                                                                                                                                                                                                                                                                                                                                                                                         000006
9000003                                                                                                                                                                                                                                                                                                                                                                                                                                                                                                                                                                                                                                                                                                               000007
