0REMESSANOTIFICACAO ELETRONICA        99999999999999BICBANCO                                AV. PAULISTA                            1048      12.ANDAR  BELA VISTA                    SAO PAULO                     01310100SP1121739360CORTINHAL                               COORDENADOR                             28052012                                                                                                                                                                                                                                                                                                                                                                                      000001
1017000000000DIR_CREDIT     JULIO DE OMENA NOGUEIRA                 012718011000190CENTRAL AçUCAREIRA SANTO ANTONIO S/A    USINA SANTO ANTONIO S/N ZONA RURAL      SAO LUIZ DO QUITUNDE                    57000000AL3557600001                                                                                                                                          011862626           270320120000021469            24052012000403FORNECIMENTO DE TODO O CONTINGENTE PRODUZIDOS NO IMOVEL RURAL DENOMINADO FAZENDA BUENOS AIRES, PENDENTE DE CORTE NA SAFRA 2012/2013.                                                                                                            008722914000056              000002
1021420930887COBR_CAUC_COR  DEDINI S/A INDUSTRIAS DE BASE           051466860000156SAO MARTINHO S A                        FAZENDA SAO MARTINHO S N ZONA RURAL BR  PRADOPOLIS                              14850000SP355800000106332885176428-4-4  22052012900BRADESCO S/A        2008201200000000040743330CC                                                                                                                                                                                                                                                                                                                                                                                                         000003
1003441000362COBR_CAUC_BIC  PESQUEIRA MAGUARY LTDA                  033381286000151SUPER MERCADO ZONA SUL S/A              RUA COMANDANTE VERGUEIRO DA CR,226      RIO DE JANEIRO                          21021020RJ355810000104113304000002490   25052012014RIO DE JANEIRO      1107201200000000010720000CC                                                                                                                                                                                                                                                                                                                                                                                                         000004
1022421006723DIR_CREDIT     FERRARI AGROINDUSTRIA S/A               061149589000189COPERSUCAR                              AV. PAULISTA, 287 2. ANDAR              SãO PAULO                               01311000SP3558500001                                                                                                                                          011841754           040520090000015973DEJR-2770/2025052012017002repasse pela Coopersucar de 6% do saldo líquido credor da conta        movimento disponibilidade da USINA, no período compreendido entre 16/11/2011   até 30/11/2012 e 3% entre 01/12/2012 até 30/11/2012.                                      054846951000105              000005
1045421008814DIR_CREDIT     CLINICA RENASCENCA S/A                  013360276000122UNIMED SERGIPE - COOP DE TRAB MEDICO    RUA SOCORRO, 100                        ARACAJU                                 49015300SE3559200001                                                                                                                                          481012524           010520030000013101SEM NUMERO  25052012000404Serviços hospitalares.                                                                                                                                                                                                                          013175690000161              000006
1019421013967DIR_CREDIT     ACOPLATION LOCACAO DE AUTOS             041679762000305GPA CONSTRUCAO PESADA E MINERACAO       ROD BR 040 KM 800 NUM.60 BL 02 SALA 34  MATIAS BARBOSA                          36120000MG3559500001                                                                                                                                          011840935           140320120000021344012625-2012 25052012000403locacao de plataformas aereas que serao utilizadas pela gpa construcao pesada e mineracao.                                                                                                                                                      010408025000182              000007
1007421049419COBR_CAUC_BIC  UNIPAC EMBALAGENS LTDA                  014798555000135IRIS MARIA TELHADA GARCIA - EPP         RUA JOSE PAOLONE,80                     SAO CAETANO DO                          09521370SP355980000101165177001033391   30032012038ABC                 2905201200000000000126546CC                                                                                                                                                                                                                                                                                                                                                                                                         000008
1007421049419COBR_CAUC_BIC  UNIPAC EMBALAGENS LTDA                  014798555000135IRIS MARIA TELHADA GARCIA - EPP         RUA JOSE PAOLONE,80                     SAO CAETANO DO                          09521370SP355980000201185127001033474   11042012038ABC                 1006201200000000000223123CC                                                                                                                                                                                                                                                                                                                                                                                                         000009
1007421049419COBR_CAUC_COR  UNIPAC EMBALAGENS LTDA                  083310441003302COOPERATIVA CENTRAL AURORA ALIMENT      RUA JOAO MARTINS,219                    CHAPECO                                 89803901SC355990000101200720001033537   26042012800UNIBANCO S/A        0506201200000000000600345CC                                                                                                                                                                                                                                                                                                                                                                                                         000010
1007421049419COBR_CAUC_COR  UNIPAC EMBALAGENS LTDA                  009104182000115MINERVA  DAWN FARMS IND COM  PROTE      RUA JOAO RIBEIRO NASCIMENTO,355 CH      BARRETOS                                14781530SP356000000101200789001033523C  23042012800UNIBANCO S/A        0406201200000000000612429CC                                                                                                                                                                                                                                                                                                                                                                                                         000011
1007421049419COBR_CAUC_BIC  UNIPAC EMBALAGENS LTDA                  002332686000739KERRY DO BRASIL LTDA.                   AV MERCEDES BENZ,460                    CAMPINAS                                13054750SP356010000101204661001033548A  02052012021CAMPINAS            0106201200000000000362320CC                                                                                                                                                                                                                                                                                                                                                                                                         000012
1007421049419COBR_CAUC_BIC  UNIPAC EMBALAGENS LTDA                  002332686000739KERRY DO BRASIL LTDA.                   AV MERCEDES BENZ,460                    CAMPINAS                                13054750SP356010000201204679001033548B  02052012021CAMPINAS            1606201200000000000362320CC                                                                                                                                                                                                                                                                                                                                                                                                         000013
1007421049419COBR_CAUC_BIC  UNIPAC EMBALAGENS LTDA                  002332686000739KERRY DO BRASIL LTDA.                   AV MERCEDES BENZ,460                    CAMPINAS                                13054750SP356010000301204687001033548C  02052012021CAMPINAS            0107201200000000000362320CC                                                                                                                                                                                                                                                                                                                                                                                                         000014
1007421049419COBR_CAUC_BIC  UNIPAC EMBALAGENS LTDA                  071597298000107FLORA PLAST IND. DE EMBALAGENS LTD      RUA 01, 454                             PAULINIA                                13140000SP356020000101200746001033545C  27042012021CAMPINAS            0106201200000000000576450CC                                                                                                                                                                                                                                                                                                                                                                                                         000015
1007421049419COBR_CAUC_BIC  UNIPAC EMBALAGENS LTDA                  071597298000107FLORA PLAST IND. DE EMBALAGENS LTD      RUA 01, 454                             PAULINIA                                13140000SP356020000201200754001033545D  27042012021CAMPINAS            0806201200000000000576450CC                                                                                                                                                                                                                                                                                                                                                                                                         000016
1007421049419COBR_CAUC_BIC  UNIPAC EMBALAGENS LTDA                  008142803000435NOVA MIX INDL. E COML. DE ALIMENTO      R. MARTINHO DE CAMPOS,222               SAO PAULO                               05093050SP356030000101204695001033536   25042012007PAULISTA            0906201200000000001487712CC                                                                                                                                                                                                                                                                                                                                                                                                         000017
1007421049419COBR_CAUC_COR  UNIPAC EMBALAGENS LTDA                  025853672000170KARAMBI ALIMENTOS LTDA                  RODOVIA BR 135 KM59                     ITACARAMBI                              39470000MG356040000101204652001033553   03052012800UNIBANCO S/A        3105201200000000001530195CC                                                                                                                                                                                                                                                                                                                                                                                                         000018
1007421049419COBR_CAUC_COR  UNIPAC EMBALAGENS LTDA                  090726506010995COTRIJUI - COOPERATIVA AGROPECUARI      RUA VICENTE FERRER PRADO S/N            SAO LUIZ GONZAG                         97800000RS356050000101181709001033390B  30032012800UNIBANCO S/A        0406201200000000000836272CC                                                                                                                                                                                                                                                                                                                                                                                                         000019
1007421049419COBR_CAUC_COR  UNIPAC EMBALAGENS LTDA                  090726506010995COTRIJUI - COOPERATIVA AGROPECUARI      RUA VICENTE FERRER PRADO S/N            SAO LUIZ GONZAG                         97800000RS356050000201181717001033390C  30032012800UNIBANCO S/A        1106201200000000000836273CC                                                                                                                                                                                                                                                                                                                                                                                                         000020
1007421049419COBR_CAUC_COR  UNIPAC EMBALAGENS LTDA                  090726506010995COTRIJUI - COOPERATIVA AGROPECUARI      RUA VICENTE FERRER PRADO S/N            SAO LUIZ GONZAG                         97800000RS356050000301185089001033417B  03042012800UNIBANCO S/A        0806201200000000000421032CC                                                                                                                                                                                                                                                                                                                                                                                                         000021
1007421049419COBR_CAUC_COR  UNIPAC EMBALAGENS LTDA                  090726506010995COTRIJUI - COOPERATIVA AGROPECUARI      RUA VICENTE FERRER PRADO S/N            SAO LUIZ GONZAG                         97800000RS356050000401185097001033417C  03042012800UNIBANCO S/A        1506201200000000000421032CC                                                                                                                                                                                                                                                                                                                                                                                                         000022
1041421008587COBR_CAUC_BIC  ININGA INDUSTRIA E COMERCIO LTDA        015314644000121MERCANTIL COMETA LTDA - ME              RUA PROF ALUIZIO MARTINS 73 -           SANTAREM                                68015760PA356060000100643327001037      17052012050BELEM               2107201200000000002240000CC                                                                                                                                                                                                                                                                                                                                                                                                         000023
1041421008587COBR_CAUC_COR  ININGA INDUSTRIA E COMERCIO LTDA        013030520000199FRANCO E BELO COM DE PROD ALIMENTI      RUA COSME FERREIRA, 7317                OSASCO                                  69083000SP356070000100643335001038      17052012900BRADESCO S/A        1107201200000000002437500CC                                                                                                                                                                                                                                                                                                                                                                                                         000024
1041421008587COBR_CAUC_BIC  ININGA INDUSTRIA E COMERCIO LTDA        009007466000193D. ROCHA & CIA LTDA - ME                RUA PROF ALUIZIO MARTINS 73             SANTAREM                                68015760PA356080000100643319001039      17052012050BELEM               0107201200000000002400000CC                                                                                                                                                                                                                                                                                                                                                                                                         000025
1041421008587COBR_CAUC_BIC  ININGA INDUSTRIA E COMERCIO LTDA        009007466000193D. ROCHA & CIA LTDA - ME                RUA PROF ALUIZIO MARTINS 73             SANTAREM                                68015760PA356080000200631418552-D       21032012050BELEM               2905201200000000000536250CC                                                                                                                                                                                                                                                                                                                                                                                                         000026
9000017                                                                                                                                                                                                                                                                                                                                                                                                                                                                                                                                                                                                                                                                                                               000027
