0REMESSANOTIFICACAO ELETRONICA        99999999999999BICBANCO                                AV. PAULISTA                            1048      12.ANDAR  BELA VISTA                    SAO PAULO                     01310100SP1121739360CORTINHAL                               COORDENADOR                             09012012                                                                                                                                                                                                                                                                                                                                                                                      000001
1007421057012COBR_CAUC_BIC  MAZAL COML INSUMOS PLASTICOS LTDA       010460372000154PLASTER INDUSTRIA E COMERCIO DE RE      ESTACAO DOS CASA,2599-GALPAO - 02       S.B. DO CAMPO                           09840000SP332320000100982210000083/AA   30112011038ABC                 1301201200000000010260863CC                                                                                                                                                                                                                                                                                                                                                                                                         000002
1007421057012COBR_CAUC_BIC  MAZAL COML INSUMOS PLASTICOS LTDA       010460372000154PLASTER INDUSTRIA E COMERCIO DE RE      ESTACAO DOS CASA,2599-GALPAO - 02       S.B. DO CAMPO                           09840000SP332320000200982228000084/AA   01122011038ABC                 1601201200000000010260863CC                                                                                                                                                                                                                                                                                                                                                                                                         000003
1007421057012COBR_CAUC_BIC  MAZAL COML INSUMOS PLASTICOS LTDA       010460372000154PLASTER INDUSTRIA E COMERCIO DE RE      ESTACAO DOS CASA,2599-GALPAO - 02       S.B. DO CAMPO                           09840000SP332320000300982236000085/AA   02122011038ABC                 1701201200000000010260863CC                                                                                                                                                                                                                                                                                                                                                                                                         000004
1007421057012COBR_CAUC_BIC  MAZAL COML INSUMOS PLASTICOS LTDA       010460372000154PLASTER INDUSTRIA E COMERCIO DE RE      ESTACAO DOS CASA,2599-GALPAO - 02       S.B. DO CAMPO                           09840000SP332320000400982244000086/AA   05122011038ABC                 1801201200000000010260863CC                                                                                                                                                                                                                                                                                                                                                                                                         000005
1007421057012COBR_CAUC_BIC  MAZAL COML INSUMOS PLASTICOS LTDA       010460372000154PLASTER INDUSTRIA E COMERCIO DE RE      ESTACAO DOS CASA,2599-GALPAO - 02       S.B. DO CAMPO                           09840000SP332320000500982252000087/AA   06122011038ABC                 1901201200000000010260863CC                                                                                                                                                                                                                                                                                                                                                                                                         000006
1007421057012COBR_CAUC_BIC  MAZAL COML INSUMOS PLASTICOS LTDA       010460372000154PLASTER INDUSTRIA E COMERCIO DE RE      ESTACAO DOS CASA,2599-GALPAO - 02       S.B. DO CAMPO                           09840000SP332320000600973113000088/AA   07122011038ABC                 2001201200000000010209558CC                                                                                                                                                                                                                                                                                                                                                                                                         000007
1021421013144COBR_CAUC_BIC  COML AGROGRAIN DE GRAOS E OLEO LTDA     046883302000156GOLDEN GRAIN COM DE CEREAIS LTDA        ALAMEDA NHAMBIQUARAS,,1500-CONJ 97      SAO PAULO                               04082001SP3323300001062292351165A       28102011007PAULISTA            1101201200000000002486185CC                                                                                                                                                                                                                                                                                                                                                                                                         000008
1021421013144COBR_CAUC_BIC  COML AGROGRAIN DE GRAOS E OLEO LTDA     004740534000458DMR DIST DE PRODS ALIM LTDA             RUA FERNADES,147                        SAO PAULO                               03005010SP3323400001062080761064F       05102011007PAULISTA            1101201200000000002583960CC                                                                                                                                                                                                                                                                                                                                                                                                         000009
1021421013144COBR_CAUC_BIC  COML AGROGRAIN DE GRAOS E OLEO LTDA     004740534000458DMR DIST DE PRODS ALIM LTDA             RUA FERNADES,147                        SAO PAULO                               03005010SP3323400002062255581148C       25102011007PAULISTA            1301201200000000002532205CC                                                                                                                                                                                                                                                                                                                                                                                                         000010
1021421013144COBR_CAUC_BIC  COML AGROGRAIN DE GRAOS E OLEO LTDA     005055406000195FAROLEO COM DE PRODS.ALIM.LTDA          RUA SANTA RITA,539                      SAO PAULO                               03026030SP3323500001062255151122D       20102011007PAULISTA            2001201200000000002665293CC                                                                                                                                                                                                                                                                                                                                                                                                         000011
1021421013144COBR_CAUC_BIC  COML AGROGRAIN DE GRAOS E OLEO LTDA     005055406000195FAROLEO COM DE PRODS.ALIM.LTDA          RUA SANTA RITA,539                      SAO PAULO                               03026030SP3323500002062255231122E       20102011007PAULISTA            2501201200000000002665293CC                                                                                                                                                                                                                                                                                                                                                                                                         000012
1021421013144COBR_CAUC_BIC  COML AGROGRAIN DE GRAOS E OLEO LTDA     011369549000174PRIME  COMERCIO DE GRAOS E OLEOS        RUA PIMENTA BUENO,33                    SAO PAULO                               03060000SP3323600001062268301118D       26092011007PAULISTA            1701201200000000002491168CC                                                                                                                                                                                                                                                                                                                                                                                                         000013
1021421013144COBR_CAUC_BIC  COML AGROGRAIN DE GRAOS E OLEO LTDA     011369549000174PRIME  COMERCIO DE GRAOS E OLEOS        RUA PIMENTA BUENO,33                    SAO PAULO                               03060000SP3323600002062292271147A       25102011007PAULISTA            1101201200000000002435355CC                                                                                                                                                                                                                                                                                                                                                                                                         000014
1021421013144COBR_CAUC_BIC  COML AGROGRAIN DE GRAOS E OLEO LTDA     011369549000174PRIME  COMERCIO DE GRAOS E OLEOS        RUA PIMENTA BUENO,33                    SAO PAULO                               03060000SP3323600003062321551147C       25102011007PAULISTA            2401201200000000002435355CC                                                                                                                                                                                                                                                                                                                                                                                                         000015
1021421013144COBR_CAUC_BIC  COML AGROGRAIN DE GRAOS E OLEO LTDA     011369549000174PRIME  COMERCIO DE GRAOS E OLEOS        RUA PIMENTA BUENO,33                    SAO PAULO                               03060000SP3323600004062321631147D       25102011007PAULISTA            0102201200000000002435355CC                                                                                                                                                                                                                                                                                                                                                                                                         000016
1021421013144COBR_CAUC_BIC  COML AGROGRAIN DE GRAOS E OLEO LTDA     010818812000100ISOIL DIST DE ALIM LTDA                 RUA BARAO DE IGAUPE,212-SL 37           SAO PAULO                               01507000SP3323700001062255071119E       27092011007PAULISTA            2401201200000000002491168CC                                                                                                                                                                                                                                                                                                                                                                                                         000017
1021421013144COBR_CAUC_BIC  COML AGROGRAIN DE GRAOS E OLEO LTDA     010818812000100ISOIL DIST DE ALIM LTDA                 RUA BARAO DE IGAUPE,212-SL 37           SAO PAULO                               01507000SP3323700002062268211119F       27092011007PAULISTA            3101201200000000002491168CC                                                                                                                                                                                                                                                                                                                                                                                                         000018
1021421013144COBR_CAUC_BIC  COML AGROGRAIN DE GRAOS E OLEO LTDA     010818812000100ISOIL DIST DE ALIM LTDA                 RUA BARAO DE IGAUPE,212-SL 37           SAO PAULO                               01507000SP3323700003062321711164B       28102011007PAULISTA            1801201200000000002491168CC                                                                                                                                                                                                                                                                                                                                                                                                         000019
1021421013144COBR_CAUC_BIC  COML AGROGRAIN DE GRAOS E OLEO LTDA     010818812000100ISOIL DIST DE ALIM LTDA                 RUA BARAO DE IGAUPE,212-SL 37           SAO PAULO                               01507000SP332370000406209498994F        22092011007PAULISTA            1201201200000000002503215CC                                                                                                                                                                                                                                                                                                                                                                                                         000020
1021421013144COBR_CAUC_BIC  COML AGROGRAIN DE GRAOS E OLEO LTDA     010481625000176MP COMERCIO DE CEREAIS LTDA             RUA DA MOOCA,2705                       SAO PAULO                               03165001SP3323800001062229401120D       27092011007PAULISTA            1701201200000000002488178CC                                                                                                                                                                                                                                                                                                                                                                                                         000021
1021421013144COBR_CAUC_BIC  COML AGROGRAIN DE GRAOS E OLEO LTDA     010481625000176MP COMERCIO DE CEREAIS LTDA             RUA DA MOOCA,2705                       SAO PAULO                               03165001SP3323800002062259491120E       27092011007PAULISTA            2401201200000000002488178CC                                                                                                                                                                                                                                                                                                                                                                                                         000022
1021421013144COBR_CAUC_BIC  COML AGROGRAIN DE GRAOS E OLEO LTDA     010481625000176MP COMERCIO DE CEREAIS LTDA             RUA DA MOOCA,2705                       SAO PAULO                               03165001SP332380000306208050986E        22092011007PAULISTA            1201201200000000002506677CC                                                                                                                                                                                                                                                                                                                                                                                                         000023
1021421013144COBR_CAUC_BIC  COML AGROGRAIN DE GRAOS E OLEO LTDA     010481625000176MP COMERCIO DE CEREAIS LTDA             RUA DA MOOCA,2705                       SAO PAULO                               03165001SP332380000406209501986F        22092011007PAULISTA            1901201200000000002506677CC                                                                                                                                                                                                                                                                                                                                                                                                         000024
9000007                                                                                                                                                                                                                                                                                                                                                                                                                                                                                                                                                                                                                                                                                                               000025
