0REMESSANOTIFICACAO ELETRONICA        99999999999999BICBANCO                                AV. PAULISTA                            1048      12.ANDAR  BELA VISTA                    SAO PAULO                     01310100SP1121739360CORTINHAL                               COORDENADOR                             09122011                                                                                                                                                                                                                                                                                                                                                                                      000001
1032420932303COBR_CAUC_BIC  TEKA TECELAGEM KUEHNRICH S/A            014112933000185AGUA DE CHEIRO DISTRIB.PRODUTOS LT      ROD.RAP.TAV,SN KM20 BLA MOD1002/1004    SAO PAULO                               05577300SP3247100001001048340121899501  07122011007PAULISTA            0603201200000000023839200CC                                                                                                                                                                                                                                                                                                                                                                                                         000002
1007421006183COBR_CAUC_BIC  NITRIFLEX S/A IND E COMERCIO            015179682002243RHODIA POLIAMIDA E ESPECIALIDADES       AV.DOS ESTADOS, 6144                    SANTO ANDRE                             09290520SP324720000100968519001272801   07122011038ABC                 0802201200000000015251691CC                                                                                                                                                                                                                                                                                                                                                                                                         000003
1007420931444COBR_CAUC_BIC  PLASINCO LTDA                           066007857000141WIREX CABLE SA                          ESTR JACAREI STA BRANCA,0-PREDIO A      STA BRANCA                              12325310SP32473000010096835716916-3     07122011007PAULISTA            1101201200000000014959868CC                                                                                                                                                                                                                                                                                                                                                                                                         000004
1007420931444COBR_CAUC_BIC  PLASINCO LTDA                           066007857000141WIREX CABLE SA                          ESTR JACAREI STA BRANCA,0-PREDIO A      STA BRANCA                              12325310SP32473000020096836516916-2     07122011007PAULISTA            0401201200000000014959418CC                                                                                                                                                                                                                                                                                                                                                                                                         000005
1007420931444COBR_CAUC_BIC  PLASINCO LTDA                           066007857000141WIREX CABLE SA                          ESTR JACAREI STA BRANCA,0-PREDIO A      STA BRANCA                              12325310SP32473000030096837316916       07122011007PAULISTA            2812201100000000014959418CC                                                                                                                                                                                                                                                                                                                                                                                                         000006
1032420933490COBR_CAUC_BIC  CECRISA REVESTIMENTOS CERAMICOS         009162574000130RIBEIRAO GOLF EMPREENDIMENTOS           R DR SODRE CONJ 66,122                  SAO PAULO                               04535110SP324740000100106497VP00507504  07122011007PAULISTA            2603201200000000015488643CC                                                                                                                                                                                                                                                                                                                                                                                                         000007
1007421012434COBR_CAUC_COR  AMEPLAN ASSIST MEDICA PLANEJADA         011031202000117VIACAO METROPOLITANA.                   R. GENARO DE CARVALHO 65                SAO PAULO                               04377220SP3247500001000265130000000868  08122011900BRADESCO S/A        2501201200000000012458267CC                                                                                                                                                                                                                                                                                                                                                                                                         000008
1016421000809COBR_CAUC_BIC  LOGIKA DISTRIBUIDORA COSMETICOS LTD     025769266000124ARCOM S/A                               ANEL VIARIO AYRTON SENNA, 2001          UBERLANDIA                              38414512MG3247600001032552290010578/01  28112011028UBERLANDIA          3001201200000000013524000CC                                                                                                                                                                                                                                                                                                                                                                                                         000009
1016421000809COBR_CAUC_BIC  LOGIKA DISTRIBUIDORA COSMETICOS LTD     025769266000124ARCOM S/A                               ANEL VIARIO AYRTON SENNA, 2001          UBERLANDIA                              38414512MG3247600002032552370010709/01  29112011028UBERLANDIA          3001201200000000022314600CC                                                                                                                                                                                                                                                                                                                                                                                                         000010
1016421000809COBR_CAUC_BIC  LOGIKA DISTRIBUIDORA COSMETICOS LTD     025769266000124ARCOM S/A                               ANEL VIARIO AYRTON SENNA, 2001          UBERLANDIA                              38414512MG3247600003032552450010823/01  30112011028UBERLANDIA          3001201200000000025695600CC                                                                                                                                                                                                                                                                                                                                                                                                         000011
1024421007416COBR_CAUC_COR  ATLAS AGROINDUSTRIAL LTDA               005055406000195FAROLEO COM DE PROD ALIMENTICIOS L      RUA STA. RITA, 539                      CONTAGEM                                32210120MG324770000101945861028816      07122011600HSBC BANK BRASIL    2012201100000000012250000CC                                                                                                                                                                                                                                                                                                                                                                                                         000012
1024421007416COBR_CAUC_COR  ATLAS AGROINDUSTRIAL LTDA               005055406000195FAROLEO COM DE PROD ALIMENTICIOS L      RUA STA. RITA, 539                      CONTAGEM                                32210120MG324770000201945879028815      07122011600HSBC BANK BRASIL    2012201100000000012250000CC                                                                                                                                                                                                                                                                                                                                                                                                         000013
1010421018542DIR_CREDIT     CENTRO TERAPIA CUIDADOS INT LTDA        011944899000117INSTITUTO DE RECURSOS HUMANOS DE PE-IRH RUA HENRIQUE DIAS   S/N                 _RECIFE                                 50070140PE3249100001                                                                                                                                          011438617           02012008000001375104/2008     16052011000403Prestação de Serviços de Assistência à Saúde aos Usuários do Sistema deAssistência à Saude dos Servidores do Estado de PE - SASSEPE.                                                                                                            008273584000180              000014
9000008                                                                                                                                                                                                                                                                                                                                                                                                                                                                                                                                                                                                                                                                                                               000015
