0REMESSANOTIFICACAO ELETRONICA        99999999999999BICBANCO                                AV. PAULISTA                            1048      12.ANDAR  BELA VISTA                    SAO PAULO                     01310100SP1121739360CORTINHAL                               COORDENADOR                             13072011                                                                                                                                                                                                                                                                                                                                                                                      000001
1006420932150COBR_CAUC_COR  FIOTEX INDUSTRIAL S/A                   054514294000875OLIVEIRA & LOPES LTDA                   AV. MARIA APARECIDA SIRIA1000           IBITINGA                                14940000SP2898600001085778260001041801  11072011800UNIBANCO S/A        0308201100000000015122743CC                                                                                                                                                                                                                                                                                                                                                                                                         000002
1031421007850COBR_CAUC_BIC  AGRICOLA JANDELLE S/A                   003083231000790CEMA CENTRAL MINEIRA ATACADISTA LT      ROD BR 040 KM 688 S/N PAVILHAO 05 CEASA CONTAGEM                                32145900MG2898700001048984760018604001  08072011019BELO HORIZONTE      0808201100000000012539150CC                                                                                                                                                                                                                                                                                                                                                                                                         000003
1016421000833COBR_CAUC_COR  SPERAFICO AGROINDUSTRIAL LTDA           004463344000198COOPERATIVA AGROINDUSTRIAL AGUAS F      AVENIDA ANITA BOARO,502-CENTRO          AGUAS FRIAS                             89843000SC2898800001031161640004223-01  12072011800UNIBANCO S/A        1108201100000000028000000CC                                                                                                                                                                                                                                                                                                                                                                                                         000004
1048421000354COBR_CAUC_COR  FRIGOL S.A. EM RECUPERACAO JUDICIAL     007042642000100FRINENSE ALIMENTOS LTDA                 AV ZOELHO SOLA, 44                      ITAPERUNA                               28300000RJ2898900001001728207275        12072011900BRADESCO S/A        1907201100000000012666915CC                                                                                                                                                                                                                                                                                                                                                                                                         000005
9000004                                                                                                                                                                                                                                                                                                                                                                                                                                                                                                                                                                                                                                                                                                               000006
