0REMESSANOTIFICACAO ELETRONICA        99999999999999BICBANCO                                AV. PAULISTA                            1048      12.ANDAR  BELA VISTA                    SAO PAULO                     01310100SP1121739360CORTINHAL                               COORDENADOR                             20032014                                                                                                                                                                                                                                                                                                                                                                                      000001
1036421016893COBR_CAUC_COR  TECAL ALUMINIO DA AMAZONIA LTDA         004012043000148SHOWA DO BRASIL LTDA                    RUA RIO QUIXITO                         MANAUS                                  69075830AM4685600001059999970000057639  18032014900BRADESCO S/A        1704201400000000015542445CC                                                                                                                                                                                                                                                                                                                                                                                                         000002
1041421010050DIR_CREDIT     R R CONSTRUCOES E IMOBILIARIA LTDA      006845747000127AGUAS E ESGOTOS DO PIAUI S/A-AGESPISA   AV MAL CASTELO BRANCO. 101/N            TERESINA                                64000810PI4686600001                                                                                                                                          012510993           29012014000002552006/14-ASJUR 19032014000403execução das obras e serviços relativos a implantação da adutora do    litoral-Sistema Integrado de Abastecimento de Água dos Municípios do Litoral - Lote I - Implantação do sub-sistema.                                                      007257868000110              000003
1041421010050DIR_CREDIT     R R CONSTRUCOES E IMOBILIARIA LTDA      006845747000127AGUAS E ESGOTOS DO PIAUI S/A -AGESPISA  AV MAL CASTELO BRANCO, 101-N            TERESINA                                64000810PI4686700001                                                                                                                                          012510993           29012014000002551907/14-ASJUR 19032014000403execução de obras e serviços relativos a implantação da adutora do     litoral - Sistema Integrado de Abastecimento de água dos Municípios do Litoral do Piauí:1ª Etapa - Lote II - Sistema Produtor.                                           007257868000110              000004
9000003                                                                                                                                                                                                                                                                                                                                                                                                                                                                                                                                                                                                                                                                                                               000005
