0REMESSANOTIFICACAO ELETRONICA        99999999999999BICBANCO                                AV. PAULISTA                            1048      12.ANDAR  BELA VISTA                    SAO PAULO                     01310100SP1121739360CORTINHAL                               COORDENADOR                             16092011                                                                                                                                                                                                                                                                                                                                                                                      000001
1031421007893COBR_CAUC_COR  DIPLOMATA S/A  INDL. E COMERCIAL        009479630000165OLAM AGROMERCANTIL LTDA                 SMITH VASCONCELOS, 312                  ASSIS                                   19814010SP3069100001049239850013667-01  15092011800UNIBANCO S/A        1910201100000000011125000CC                                                                                                                                                                                                                                                                                                                                                                                                         000002
1031421007893COBR_CAUC_COR  DIPLOMATA S/A  INDL. E COMERCIAL        009479630000165OLAM AGROMERCANTIL LTDA                 SMITH VASCONCELOS, 312                  ASSIS                                   19814010SP3069100002049239930013667-02  15092011800UNIBANCO S/A        1910201100000000011125000CC                                                                                                                                                                                                                                                                                                                                                                                                         000003
1031421007893COBR_CAUC_COR  DIPLOMATA S/A  INDL. E COMERCIAL        009479630000165OLAM AGROMERCANTIL LTDA                 SMITH VASCONCELOS, 312                  ASSIS                                   19814010SP3069100003049240010013667-03  15092011800UNIBANCO S/A        2010201100000000011125000CC                                                                                                                                                                                                                                                                                                                                                                                                         000004
1031421007893COBR_CAUC_COR  DIPLOMATA S/A  INDL. E COMERCIAL        009479630000165OLAM AGROMERCANTIL LTDA                 SMITH VASCONCELOS, 312                  ASSIS                                   19814010SP3069100004049240190013667-04  15092011800UNIBANCO S/A        2010201100000000011125000CC                                                                                                                                                                                                                                                                                                                                                                                                         000005
1016421008591COBR_CAUC_BIC  GLOBOAVES SAO PAULO AGROAVICOLA LTD     085070068000280GONCALVES E TORTOLA LTDA                RUA TAMOIO ,0                           INDIANAPOLIS                            87210000PR306920000103177724028742      13092011016CURITIBA            1110201100000000010326190CC                                                                                                                                                                                                                                                                                                                                                                                                         000006
9000002                                                                                                                                                                                                                                                                                                                                                                                                                                                                                                                                                                                                                                                                                                               000007
