0REMESSANOTIFICACAO ELETRONICA        99999999999999BICBANCO                                AV. PAULISTA                            1048      12.ANDAR  BELA VISTA                    SAO PAULO                     01310100SP1121739360CORTINHAL                               COORDENADOR                             01062011                                                                                                                                                                                                                                                                                                                                                                                      000001
1029420933644COBR_CAUC_COR  DHB COMPONENTES AUTOMOTIVOS S/A         002162259000407INTERNATIONAL IND. AUT. DA AMERICA      AV GUILHERME SCHELL  - PREDIO 1016      CANOAS                                  92420000RS2795700001094802590008650801  30052011900BRADESCO S/A        2906201100000000019614149CC                                                                                                                                                                                                                                                                                                                                                                                                         000002
1021420930887COBR_CAUC_COR  DEDINI S/A INDUSTRIAS DE BASE           012274379000530LAGINHA AGRO INDUSTRIAL SA              FAZENDA URUBA ZONA RURAL BR             ATALAIA                                 57690000AL279580000106159997150996-5-5  31052011900BRADESCO S/A        1410201100000000036000000CC                                                                                                                                                                                                                                                                                                                                                                                                         000003
1014420939021COBR_CAUC_BIC  EDITORA O DIA S/A                       033747288000111FEDER.EMPR.TRANSP.RODOV.LESTE M.BR      RUA DA ASSEMBLEIA 10 39 A/C. SR.ED      RIO DE JANEIRO                          20119900RJ2795900001023359410594079     28052011014RIO DE JANEIRO      1506201100000000013969420CC                                                                                                                                                                                                                                                                                                                                                                                                         000004
1048421000354COBR_CAUC_COR  FRIGOL S.A. EM RECUPERACAO JUDICIAL     000417504000101QUEBRAMAR DIST. DE CARNES E DERIVA      RUA DOUTOR ELOI S/N LOTE 1              SAO JOAO DE MER                         25535481RJ2796000001001147066931        31052011900BRADESCO S/A        0706201100000000012082226CC                                                                                                                                                                                                                                                                                                                                                                                                         000005
1042141000037COBR_CAUC_BIC  COBRACO SERVICOS E MONTAGENS LTDA       008675637000190CEMEC CONST ENG ELET E MONT LTDA        RUA 1 N 1 QD A LOTE 1                   SAO LUIS                                65099110MA279610000102223638179         28042011042SAO LUIS            0407201100000000023000000TD                                                                                                                                                                                                                                                                                                                                                                                                         000006
1014421021575COBR_CAUC_BIC  CESBRA QUIMICA S/A                      004182260000186BIOVERDE IND E COM DE BIOCOMBUSTIV      RUA IRMAOS ALBERNAZ ,600                TAUBATE                                 12050190SP2796200001044298110005866/01  31052011007PAULISTA            1306201100000000010511256CC                                                                                                                                                                                                                                                                                                                                                                                                         000007
1014421021575COBR_CAUC_BIC  CESBRA QUIMICA S/A                      004182260000186BIOVERDE IND E COM DE BIOCOMBUSTIV      RUA IRMAOS ALBERNAZ ,600                TAUBATE                                 12050190SP2796200002044298290005877/01  31052011007PAULISTA            1306201100000000011847640CC                                                                                                                                                                                                                                                                                                                                                                                                         000008
9000006                                                                                                                                                                                                                                                                                                                                                                                                                                                                                                                                                                                                                                                                                                               000009
