0REMESSANOTIFICACAO ELETRONICA        99999999999999BICBANCO                                AV. PAULISTA                            1048      12.ANDAR  BELA VISTA                    SAO PAULO                     01310100SP1121739360CORTINHAL                               COORDENADOR                             01102014                                                                                                                                                                                                                                                                                                                                                                                      000001
1019421004658COBR_CAUC_COR  S/A ESTADO DE MINAS                     073312076000126SINDICATO I EXTRATIVAS O M P D P P      BERNARDO GUIMARAES 63 3 ANDAR           BELO HORIZONTE                          30140080MG4981900001013244342521313-1   29092014900BRADESCO S/A        3010201400000000012500000CC                                                                                                                                                                                                                                                                                                                                                                                                         000002
1046421001109COBR_CAUC_BIC  C-PACK CREATIVE PACKAGING S/A           000190373000172IND E COM DE COSMETICOS NATURA LTD      ALAMEDA JURUA, 253                      BARUERI                                 06455010SP498200000102516393006485301   09092014007PAULISTA            2410201400000000015058524CC                                                                                                                                                                                                                                                                                                                                                                                                         000003
1031421011181COBR_CAUC_BIC  AGROIND IRMAOS DALLA COSTA LTDA         011224864000103REAL FOODS COMERCIO ATAC DE GEN AL      AV AMERICAS, DAS SALA 1109         00844RIO DE JANEIRO                          22793081RJ49821000010544466514909/1     22092014014RIO DE JANEIRO      2210201400000000016839900CC                                                                                                                                                                                                                                                                                                                                                                                                         000004
1018141026092COBR_CAUC_COR  MEDIO NORTE CONST E TERRAPLEN LTDA      001500203000100ACEFER COMERCIO DE SUCATAS LTDA         ROD BR 153,0                            URUACU                                  76400000GO49822000010388440039          30092014900BRADESCO S/A        0112201400000000010960000TD                                                                                                                                                                                                                                                                                                                                                                                                         000005
1007421055095COBR_CAUC_COR  PLASTER COM DE RESINAS PLAST EIRELI     013583323000105BASELL POLIOLEFINAS LTDA                AV JULIO DE PAULA  CLARO,687-Q A        PINDAMONHANGABA                         12441400SP498230000100023182044065/A    29092014900BRADESCO S/A        0611201400000000017942820CC                                                                                                                                                                                                                                                                                                                                                                                                         000006
1021421017050COBR_CAUC_BIC  STAR DISTR PROD FARMACEUTICOS LTDA      061585865073701RAIA DROGASIL S/A                       RUA PATAXOS , 1412                      EMBU                                    06833073SP4982400001000055640000407201  30092014007PAULISTA            2110201400000000022348897CC                                                                                                                                                                                                                                                                                                                                                                                                         000007
1021421017050COBR_CAUC_BIC  STAR DISTR PROD FARMACEUTICOS LTDA      061585865073701RAIA DROGASIL S/A                       RUA PATAXOS , 1412                      EMBU                                    06833073SP4982400002000055810000407401  30092014007PAULISTA            2110201400000000011105106CC                                                                                                                                                                                                                                                                                                                                                                                                         000008
9000006                                                                                                                                                                                                                                                                                                                                                                                                                                                                                                                                                                                                                                                                                                               000009
