0REMESSANOTIFICACAO ELETRONICA        99999999999999BICBANCO                                AV. PAULISTA                            1048      12.ANDAR  BELA VISTA                    SAO PAULO                     01310100SP1121739360CORTINHAL                               COORDENADOR                             08062011                                                                                                                                                                                                                                                                                                                                                                                      000001
1019421004658COBR_CAUC_COR  S/A ESTADO DE MINAS                     022196430000163HABITARE CONSTRUTORA E INCORPORADO      AIMORES 2825 BR                         BELO HORIZONTE                          30140073MG280620000101100421286703-1    07062011900BRADESCO S/A        3006201100000000011233484CC                                                                                                                                                                                                                                                                                                                                                                                                         000002
1019421004658COBR_CAUC_COR  S/A ESTADO DE MINAS                     067405936000173PEUGEOT CITROEN DO BRASIL AUTOMOVE      ESTRADA RENATO MONTEIRO 6901 BR         PORTO REAL                              27570000RJ280630000101100412286925-1    07062011900BRADESCO S/A        3006201100000000010565069CC                                                                                                                                                                                                                                                                                                                                                                                                         000003
1021420930887COBR_CAUC_BIC  DEDINI S/A INDUSTRIAS DE BASE           054470679000101USINA BATATAIS S A ACUCAR E ALCOOL      END USINA BATATAIS ZONA RURAL BR        BATATAIS                                14300000SP280640000106162122143891-3-3  07062011022RIBEIRAO PRETO      3008201100000000025600000CC                                                                                                                                                                                                                                                                                                                                                                                                         000004
1031421007893COBR_CAUC_BIC  DIPLOMATA S/A  INDL. E COMERCIAL        009418012000105TREND COMERCIO DE PRODUTOS ALIMENT      R ZILDA CICCONE GIRALDI, 141 141        CAMPINAS                                13052475SP2806500001048810690234952-01  06062011021CAMPINAS            1607201100000000012555000CC                                                                                                                                                                                                                                                                                                                                                                                                         000005
1031421007893COBR_CAUC_BIC  DIPLOMATA S/A  INDL. E COMERCIAL        009418012000105TREND COMERCIO DE PRODUTOS ALIMENT      R ZILDA CICCONE GIRALDI, 141 141        CAMPINAS                                13052475SP2806500002048810770234954-01  06062011021CAMPINAS            0907201100000000012555000CC                                                                                                                                                                                                                                                                                                                                                                                                         000006
1042141000037COBR_CAUC_BIC  COBRACO SERVICOS E MONTAGENS LTDA       003715415000130J W ENG E MANUT INDL LTDA               AV EMILIANO MACIEIRA KM 09              SAO LUIS                                65099110MA280660000102224111199/1       24052011042SAO LUIS            2708201100000000016000000TD                                                                                                                                                                                                                                                                                                                                                                                                         000007
1028421001518COBR_CAUC_COR  GAIA AGRIBUSINESS AGRICOLA LTDA         000037457080082SILVIO ARANTES DE OLIVEIRA              AV MINAS GERAIS,1380                    GOIATUBA                                75600000GO28067000010271693910912       06062011800UNIBANCO S/A        2011201100000000016000000CC                                                                                                                                                                                                                                                                                                                                                                                                         000008
1028421001518COBR_CAUC_COR  GAIA AGRIBUSINESS AGRICOLA LTDA         000048494836153JOSE ADONIZETE DA COSTA                 AV SANTA CATARINA ,180                  GOIATUBA                                75600000GO28068000010271694710935       07062011800UNIBANCO S/A        3011201100000000017600000CC                                                                                                                                                                                                                                                                                                                                                                                                         000009
1028421001518COBR_CAUC_COR  GAIA AGRIBUSINESS AGRICOLA LTDA         000064140130130VINICIUS VIEIRA LOPES                   RUA TAPAJOS ,712                        GOIATUBA                                75600000GO28069000010271692110913       06062011800UNIBANCO S/A        2511201100000000017600000CC                                                                                                                                                                                                                                                                                                                                                                                                         000010
1007421049060COBR_CAUC_BIC  MERCOSUL COMERCIAL E INDL LTDA          004177571000157EXCEL 3000 MAT E SERV. LTDA             R. MIGUEL FRIAS,77 S-1804/6             NITEROI                                 24220901RJ2807000001006137964983-1/1    06062011014RIO DE JANEIRO      2609201100000000010260300CC                                                                                                                                                                                                                                                                                                                                                                                                         000011
1007421049060COBR_CAUC_BIC  MERCOSUL COMERCIAL E INDL LTDA          004177571000157EXCEL 3000 MAT E SERV. LTDA             R. MIGUEL FRIAS,77 S-1804/6             NITEROI                                 24220901RJ28070000020061382620105-1     06062011014RIO DE JANEIRO      0110201100000000010147140CC                                                                                                                                                                                                                                                                                                                                                                                                         000012
1007421049060COBR_CAUC_BIC  MERCOSUL COMERCIAL E INDL LTDA          004177571000157EXCEL 3000 MAT E SERV. LTDA             R. MIGUEL FRIAS,77 S-1804/6             NITEROI                                 24220901RJ2807000003006138698507-1      06062011014RIO DE JANEIRO      2609201100000000021531343CC                                                                                                                                                                                                                                                                                                                                                                                                         000013
1007421049060COBR_CAUC_BIC  MERCOSUL COMERCIAL E INDL LTDA          006067345000149LV DISTRIB DE MAT LTDA                  R GAL.SILVESTRE ROCHA, 133              NITEROI                                 24220170RJ28071000010061383420476-1     06062011014RIO DE JANEIRO      2308201100000000051186960CC                                                                                                                                                                                                                                                                                                                                                                                                         000014
1007421049060COBR_CAUC_BIC  MERCOSUL COMERCIAL E INDL LTDA          006067345000149LV DISTRIB DE MAT LTDA                  R GAL.SILVESTRE ROCHA, 133              NITEROI                                 24220170RJ28071000020061384220477-1     06062011014RIO DE JANEIRO      2308201100000000048598770CC                                                                                                                                                                                                                                                                                                                                                                                                         000015
1007421049060COBR_CAUC_BIC  MERCOSUL COMERCIAL E INDL LTDA          006067345000149LV DISTRIB DE MAT LTDA                  R GAL.SILVESTRE ROCHA, 133              NITEROI                                 24220170RJ28071000030061385120479-1     06062011014RIO DE JANEIRO      2308201100000000040087440CC                                                                                                                                                                                                                                                                                                                                                                                                         000016
1031421008326DIR_CREDIT     FERTIMOURAO AGRICOLA LTDA               004666932000129BONDIO ALIMENTO S/A                     ROD SC 283 S/ NR - KM 03  ZONA RURAL    GUATAMBU                                89817000SC2807600001                                                                                                                                          011464600           010620110000018865            07062011000301compra e venda de graos                                                                                                                                                                                                                         080768153001003              000017
1014421003968DIR_CREDIT     BERKELEY EQUIPAMENTOS MEDICOS LTDA      000394544021182MINISTERIO DA SAUDE HOSP. DOS SERV.DO ESRUA SACADURA CABRAL, 178 - SAUDE        RIO DE JANEIRO                          20221903RJ2809400001                                                                                                                                          481021915           02052007000000179317/2011     11042011000404Locação com manutenção preventiva e corretiva de equipamentos para os  serviços de anestesia, Centro Cirúrgico Geral, CTI Geral e Unidade Coronariana do Hospital dos Servidores do Estado.                                                     000210051000148              000018
1021421011559DIR_CREDIT     FOXX SOLUCOES AMBIENTAIS LTDA           045301264000113PM DE MOGI GUACU                        RUA HENRIQUE COPPI Nº 200               MOGI GUAçU                              13840061SP2809500001                                                                                                                                          011470962           07012010000001399914513/2009  07062011000407prestação de serviços especializados de limpeza e manutenção urbanas.                                                                                                                                                                           008804459000150              000019
9000013                                                                                                                                                                                                                                                                                                                                                                                                                                                                                                                                                                                                                                                                                                               000020
