0REMESSANOTIFICACAO ELETRONICA        99999999999999BICBANCO                                AV. PAULISTA                            1048      12.ANDAR  BELA VISTA                    SAO PAULO                     01310100SP1121739360CORTINHAL                               COORDENADOR                             14052012                                                                                                                                                                                                                                                                                                                                                                                      000001
1007421053971COBR_CAUC_BIC  VIDA ALIMENTOS LTDA                     011457034000126GOOD MEAL COM E TRANSP DE PROD ALI      RUA ARARIPE, 206                        SAO PAULO                               03215010SP3536800001012174280004421301  10052012007PAULISTA            3105201200000000011398000CC                                                                                                                                                                                                                                                                                                                                                                                                         000002
1007421044581COBR_CAUC_BIC  GRANCARGA TRANSP. E GUINDASTES S/A.     001027335000166WOBBEN WINDPOWER IND.E COM.LTDA.        AV.FERNANDO STECCA,100                  SOROCABA                                18087149SP353690000101216553002224      08052012007PAULISTA            0407201200000000023168209CC                                                                                                                                                                                                                                                                                                                                                                                                         000003
1007421044581COBR_CAUC_BIC  GRANCARGA TRANSP. E GUINDASTES S/A.     001027335000166WOBBEN WINDPOWER IND.E COM.LTDA.        AV.FERNANDO STECCA,100                  SOROCABA                                18087149SP353690000201216715002223      08052012007PAULISTA            0407201200000000055229417CC                                                                                                                                                                                                                                                                                                                                                                                                         000004
1021141012725COBR_CAUC_BIC  MABE BRASIL ELETRODOMESTICOS LTDA       000776574000660B2W COMPANHIA GLOBAL DO VAREJO          RUA SACADURA CABRAL 102, PARTE          RIO DE JANEIRO                          20081902RJ3537000001063298170000107499  10052012014RIO DE JANEIRO      1807201200000000010899520TD                                                                                                                                                                                                                                                                                                                                                                                                         000005
1021141012725COBR_CAUC_BIC  MABE BRASIL ELETRODOMESTICOS LTDA       000776574000660B2W COMPANHIA GLOBAL DO VAREJO          RUA SACADURA CABRAL 102, PARTE          RIO DE JANEIRO                          20081902RJ3537000002063299490000730388  11052012014RIO DE JANEIRO      1907201200000000011026473TD                                                                                                                                                                                                                                                                                                                                                                                                         000006
1021141012725COBR_CAUC_BIC  MABE BRASIL ELETRODOMESTICOS LTDA       000776574000660B2W COMPANHIA GLOBAL DO VAREJO          RUA SACADURA CABRAL 102, PARTE          RIO DE JANEIRO                          20081902RJ3537000003063299650000730390  11052012014RIO DE JANEIRO      1907201200000000012413565TD                                                                                                                                                                                                                                                                                                                                                                                                         000007
1021141012725COBR_CAUC_BIC  MABE BRASIL ELETRODOMESTICOS LTDA       009358108000397NOVA PONTOCOM COMERCIO ELETRONICO       RUA GOMES DE CARVALHO, 1609             S„O PAULO                               04547006SP3537100001063296550000729962  10052012007PAULISTA            1807201200000000012461732TD                                                                                                                                                                                                                                                                                                                                                                                                         000008
1036421016893COBR_CAUC_COR  TECAL ALUMINIO DA AMAZONIA LTDA         004012043000148SHOWA DO BRASIL LTDA                    RUA RIO QUIXITO                         MANAUS                                  69075830AM3537200001058654600000039518  11052012900BRADESCO S/A        1006201200000000010412192CC                                                                                                                                                                                                                                                                                                                                                                                                         000009
1010421019891DIR_CREDIT     CIDADE TRANSPORTES LTDA                 003128979000176DISTR.EQUADOR DE PRODUTOS DE PETROLEO   RUA PAJURA 895 VILA BURITI              MANAUS                                  69075840AM3538200001                                                                                                                                          011811245           260420070000015968_001/2007   11052012000403TRANSPORTE VIA FLUVIAL COMBUSTIVEL(GASOLINA, ALCOOL E DIESEL) EM CARRETAS TANQUE.                                                                                                                                                               006151511000190              000010
9000006                                                                                                                                                                                                                                                                                                                                                                                                                                                                                                                                                                                                                                                                                                               000011
