0REMESSANOTIFICACAO ELETRONICA        99999999999999BICBANCO                                AV. PAULISTA                            1048      12.ANDAR  BELA VISTA                    SAO PAULO                     01310100SP1121739360CORTINHAL                               COORDENADOR                             27062013                                                                                                                                                                                                                                                                                                                                                                                      000001
1018421005230COBR_CAUC_COR  CENTROALCOOL S/A                        004930779000103SR DISTRIBUIDORA DE PETROLEO LTDA       AV.NITEROI X/COP.QD.04 L.R1/19          SENADOR CANEDO                          75250000GO42746000010329641947898/AA    25062013800UNIBANCO S/A        1508201300000000027555000CC                                                                                                                                                                                                                                                                                                                                                                                                         000002
1018421005230COBR_CAUC_COR  CENTROALCOOL S/A                        004930779000103SR DISTRIBUIDORA DE PETROLEO LTDA       AV.NITEROI X/COP.QD.04 L.R1/19          SENADOR CANEDO                          75250000GO42746000020329642747898/AB    25062013800UNIBANCO S/A        1609201300000000027555000CC                                                                                                                                                                                                                                                                                                                                                                                                         000003
1046421001443COBR_CAUC_COR  COSTAO DO SANTINHO TUR E LAZER LTDA     093612109000160FELLINI TURISMO E VIAGENS LTDA          R. GAL. BENTO MARTINS,24-401            PORTO ALEGRE                            90010080RS427470000100010808260613      26062013900BRADESCO S/A        1707201300000000020000000CC                                                                                                                                                                                                                                                                                                                                                                                                         000004
1028421002921COBR_CAUC_COR  MATABOI ALIMENTOS S/A - EM REC.JUD.     010915021000190TOP ALTO PARTICIPACOES E COMERCIO       EST SAO JOAO CAXIAS99PARTE              SAO JOAO DE MER                         25515420RJ4274500001003713570000259901  25062013900BRADESCO S/A        0207201300000000015857984CC                                                                                                                                                                                                                                                                                                                                                                                                         000005
1007421055095COBR_CAUC_COR  PLASTER IND COM RESINAS PLAS EIRELI     001377724000464BRASALPLA BRASIL - INDUSTRIA DE EM      AV JOSE MAMPRIM,999                     LOUVEIRA                                13290000SP427480000100013497034272/A    25062013900BRADESCO S/A        0708201300000000016023000CC                                                                                                                                                                                                                                                                                                                                                                                                         000006
9000004                                                                                                                                                                                                                                                                                                                                                                                                                                                                                                                                                                                                                                                                                                               000007
