0REMESSANOTIFICACAO ELETRONICA        99999999999999BICBANCO                                AV. PAULISTA                            1048      12.ANDAR  BELA VISTA                    SAO PAULO                     01310100SP1121739360CORTINHAL                               COORDENADOR                             17032014                                                                                                                                                                                                                                                                                                                                                                                      000001
1028421002921COBR_CAUC_COR  MATABOI ALIMENTOS S/A - EM REC.JUD.     010915021000190TOP ALTO PARTICIPACOES E COMERCIO       EST SAO JOAO CAXIAS PARTE, 99           SAO JOAO DE MER                         25515420RJ4677800001005462200038448501  13032014900BRADESCO S/A        1603201400000000022824541CC                                                                                                                                                                                                                                                                                                                                                                                                         000002
1028421002921COBR_CAUC_COR  MATABOI ALIMENTOS S/A - EM REC.JUD.     017745613000150SUPERMERCADO BAHAMAS LTDA               ROD BR-040  KM, 780                     JUIZ DE FORA                            36092005MG4677900001005462030038448201  13032014900BRADESCO S/A        1204201400000000039668778CC                                                                                                                                                                                                                                                                                                                                                                                                         000003
1015421022340COBR_CAUC_COR  BORRACHAS VIPAL SA                      012931405000122INDUSTRIA DE PNEUS FREEDOM LTDA         AVENIDA AEROCLUBE, 1643                 CAMPINA GRANDE                          58411370PB467800000101239142047446601   11032014800UNIBANCO S/A        2603201400000000013958393CC                                                                                                                                                                                                                                                                                                                                                                                                         000004
1048421002195COBR_CAUC_COR  SERVIMED COMERCIAL LTDA                 025102146001493IRMAOS MATTAR E CIA LTDA                RUA ADIB CADAH 443                      TEOFILO OTONI                           37704429MG467810000101603409418109  21  12032014900BRADESCO S/A        0904201400000000010117690CC                                                                                                                                                                                                                                                                                                                                                                                                         000005
1046421001109COBR_CAUC_BIC  C-PACK CREATIVE PACKAGING S/A           018459628000115BAYER S/A                               RUA DOMINGOS JORGE, 1.100               SAO PAULO                               04779900SP467820000102322335005803201   07032014007PAULISTA            1604201400000000012280100CC                                                                                                                                                                                                                                                                                                                                                                                                         000006
1031421011181COBR_CAUC_BIC  AGROIND IRMAOS DALLA COSTA LTDA         007427095000173MHM DISTRIBUIDORA DE ALIMENTOS LTD      RUA OLIMPIA DE CAMPOS              00088SAO GONCALO                             24756660RJ46783000010537191932020/1     13032014014RIO DE JANEIRO      1004201400000000015795000CC                                                                                                                                                                                                                                                                                                                                                                                                         000007
1015421019927COBR_CAUC_BIC  BELSUL IND. E COM DE MAT. PRIMAS LT     008748013000155COMPOLIMEROS IND E IMPORT DE PLAST      RUA DR LUIZ CARLOS,78                   SAO PAULO                               03405100SP46784000010123842110390-01    14032014007PAULISTA            1104201400000000014238000CC                                                                                                                                                                                                                                                                                                                                                                                                         000008
1015421019927COBR_CAUC_BIC  BELSUL IND. E COM DE MAT. PRIMAS LT     060822079000168TWILTEX INDUSTRIAS TEXTEIS LTDA         AV JOAO PAULO,555                       EMBU                                    06818902SP46785000010123844810373-01    13032014007PAULISTA            2004201400000000010846377CC                                                                                                                                                                                                                                                                                                                                                                                                         000009
1007421059295COBR_CAUC_BIC  PARAMOUNT TEXTEIS IND E COM S.A.        047100110010909VIA VENETO ROUPAS LT                    AV OCTALLES MARCONDES FERREIRA 390 GAL ASAO PAULO                               04696010SP4678600001027284260051521/01  14032014007PAULISTA            1504201400000000023489079CC                                                                                                                                                                                                                                                                                                                                                                                                         000010
1007421059295COBR_CAUC_BIC  PARAMOUNT TEXTEIS IND E COM S.A.        047100110010909VIA VENETO ROUPAS LT                    AV OCTALLES MARCONDES FERREIRA 390 GAL ASAO PAULO                               04696010SP4678600002027284340051521/02  14032014007PAULISTA            1505201400000000023489078CC                                                                                                                                                                                                                                                                                                                                                                                                         000011
9000009                                                                                                                                                                                                                                                                                                                                                                                                                                                                                                                                                                                                                                                                                                               000012
