0REMESSANOTIFICACAO ELETRONICA        99999999999999BICBANCO                                AV. PAULISTA                            1048      12.ANDAR  BELA VISTA                    SAO PAULO                     01310100SP1121739360CORTINHAL                               COORDENADOR                             11072014                                                                                                                                                                                                                                                                                                                                                                                      000001
1029421018494COBR_CAUC_COR  PRO SALUTE SERVICOS PARA SAUDE LTDA     088611264000122INTRAL S A IND DE MATERIAIS ELETRI      TRAV. RIO GRANDE , 130                  CAXIAS DO SUL                           95098750RS4843700001001415750151886.A   02072014900BRADESCO S/A        1008201400000000010852853CC                                                                                                                                                                                                                                                                                                                                                                                                         000002
1007421055095COBR_CAUC_COR  PLASTER IND COM RESINAS PLAS EIRELI     013583323000105BASELL POLIOLEFINAS LTDA                AV JULIO DE PAULA  CLARO,687-Q A        PINDAMONHANGABA                         12441400SP484380000100021295042234/A    02072014900BRADESCO S/A        1508201400000000018185370CC                                                                                                                                                                                                                                                                                                                                                                                                         000003
1049421001570COBR_CAUC_COR  MASTER AGROINDUSTRIAL LTDA              007797729000180DISTRIB. E TRANSP. DE CARNES SUITA      ROD. PARIGOT DFE SOUZA, S/N             JOAQUIM TAVORA                          86455000PR4843900001003760290000761001  09072014900BRADESCO S/A        3007201400000000011823240CC                                                                                                                                                                                                                                                                                                                                                                                                         000004
9000003                                                                                                                                                                                                                                                                                                                                                                                                                                                                                                                                                                                                                                                                                                               000005
