0REMESSANOTIFICACAO ELETRONICA        99999999999999BICBANCO                                AV. PAULISTA                            1048      12.ANDAR  BELA VISTA                    SAO PAULO                     01310100SP1121739360CORTINHAL                               COORDENADOR                             21112013                                                                                                                                                                                                                                                                                                                                                                                      000001
1046421001443COBR_CAUC_COR  COSTAO DO SANTINHO TUR E LAZER LTDA     004206050012863TIM CELULAR SA                          R. COMEND. ARAUJO,299                   CURITIBA                                80420000PR45344000010001235520112013    20112013900BRADESCO S/A        2711201300000000063231803CC                                                                                                                                                                                                                                                                                                                                                                                                         000002
1019421014637COBR_CAUC_COR  SOCIEDADE RADIO E TV ALTEROSA SA        001928075000280DMA DISTRIBUIDORA SA                    RUA SANTA CRUZ,294                      BELO HORIZONTE                          30431045MG45342000010001662162197       18112013900BRADESCO S/A        1512201300000000010209892CC                                                                                                                                                                                                                                                                                                                                                                                                         000003
1019421014637COBR_CAUC_COR  SOCIEDADE RADIO E TV ALTEROSA SA        006111334000119INTRALOT DO BRASIL COM EQUIP E          AV. DO CONTORNO,6500-7 ANDAR            BELO HORIZONTE                          30110044MG45343000010001653162210       18112013900BRADESCO S/A        1512201300000000018230866CC                                                                                                                                                                                                                                                                                                                                                                                                         000004
1031421009993COBR_CAUC_BIC  VAMOL INDUSTRIA MOVELEIRA LTDA          010480029000252COMERCIAL ZENA MOVEIS SOCIEDADE LT      RODOVIA ANHANGUERA KM375                CAJAMAR                                 07750000SP453450000105338423107912-1/1  18112013007PAULISTA            0312201300000000010906960CC                                                                                                                                                                                                                                                                                                                                                                                                         000005
9000004                                                                                                                                                                                                                                                                                                                                                                                                                                                                                                                                                                                                                                                                                                               000006
