0REMESSANOTIFICACAO ELETRONICA        99999999999999BICBANCO                                AV. PAULISTA                            1048      12.ANDAR  BELA VISTA                    SAO PAULO                     01310100SP1121739360CORTINHAL                               COORDENADOR                             17012012                                                                                                                                                                                                                                                                                                                                                                                      000001
1046421006070DIR_CREDIT     METALURGICA DS LTDA                     060857349000176TRW AUTOMOTIVE LTDA                     VIA ANHANGUERA KM 147                   LIMEIRA                                 13486915SP3246400001                                                                                                                                          011685210           260320070000018698            07122011017002fornecimento de discos e tambores de freio para automoveis                                                                                                                                                                                      079414868000198              000002
1044421012082DIR_CREDIT     SERHS BRASIL EMPREEND. TURISTICOS       008030363000181SUPERMERCADO NORDESTAO LTDA             AV PRESIDNETE BANDEIRA,717              NATAL                                   59000000RN3250200001                                                                                                                                          011662055           081120100000020137S/N         09122011000403locação de um galpão industrial, o qual possui uma área de 111.352m², 'sendo um complexo industrial, fazendo parte do complexo com 30.674.52m², nas  'margens do entrocamento das rodovias BR 101 com BR 304, Município de Parnamirim           009374554000123              000003
1042000000000DIR_CREDIT     MARCOZZI CONSTRUCOES LTDA               009434045000149EPHIGENIO SALLES EMP IMOB SPE LTDA      R.PROF MANOELITO DE ORNELAS 303-7O AND  SAO PAULO                               04719040SP3255700001                                                                                                                                          481012406           101020110000019978            14122011000404servicos de engenharia para execução de stand de vendas e duas salas comerciais                                                                                                                                                                 008714924000161              000004
1036421017326DIR_CREDIT     CCI CONSTRUCOES LTDA                    010880989000129GESTORES PRISIONAIS ASSOCIADOS S/A - GPAAV BRASIL, 1438 SALA 306 FUNCIONARIOS   BELO HORIZONTE                          30140003MG3260200001                                                                                                                                          011323096           010920100000017365            02122011000403Obras de construção principal e demais ampliações, melhoramentos,      conservação especial,manutenção e outras, nas 5 unidades penais e da unidade   denominada célula mãe,localizada na Região de Ribeirão das Neves/MG.                      061288437000167              000005
1014420938530DIR_CREDIT     PREVCOR IPANEMA S/A                     036155208000127GOLDEN CROSS SEGURADORA S/A             RUA GETULIO VARGAS, 87 CENTRO           NOVA IGUAçU                             26255060RJ3261000001                                                                                                                                          010794016           010720070000011040            12122011000403convenio de referenciamento do hospital com o objetivo de atender e    prestar serviços médicos e hospitalares aos clientes da Golden Cross.                                                                                                    033123415000101              000006
1028421002719COBR_CAUC_BIC  SIPCAM UPL BRASIL S/A                   007467822000126NUFARM IND. QUIMICA E FARMACEUTICA      AV. PARQUE SUL, 2138                    MARACANAU                               61939000CE333360000102749667DC00995901  13012012003CENTRO              0102201200000000018257219CC                                                                                                                                                                                                                                                                                                                                                                                                         000007
1028421002719COBR_CAUC_BIC  SIPCAM UPL BRASIL S/A                   007467822000126NUFARM IND. QUIMICA E FARMACEUTICA      AV. PARQUE SUL, 2138                    MARACANAU                               61939000CE333360000202749675DC00997001  16012012003CENTRO              0102201200000000011614448CC                                                                                                                                                                                                                                                                                                                                                                                                         000008
1006421011724COBR_CAUC_BIC  MONT GRANITOS S/A                       006862627000138CLAUDINO S/A LOJA DE DEPARTAMENTOS      RUA JOAO CABRAL 607                     TERESINA                                64000030PI333370000108851898674         13012012041TERESINA            1002201200000000028531000CC                                                                                                                                                                                                                                                                                                                                                                                                         000009
1021141012725COBR_CAUC_BIC  MABE BRASIL ELETRODOMESTICOS LTDA       010757237010723NOVA CASA BAHIA S/A                     RODOVIA ANHANGUERA 0, S/N KM52          JUNDIAI                                 13208401SP3333800001062771590000047172  13012012007PAULISTA            0602201200000000010934083TD                                                                                                                                                                                                                                                                                                                                                                                                         000010
1021141012725COBR_CAUC_BIC  MABE BRASIL ELETRODOMESTICOS LTDA       010757237010723NOVA CASA BAHIA S/A                     RODOVIA ANHANGUERA 0, S/N KM52          JUNDIAI                                 13208401SP3333800002062771670000047173  14012012007PAULISTA            0602201200000000010934083TD                                                                                                                                                                                                                                                                                                                                                                                                         000011
1021141012725COBR_CAUC_BIC  MABE BRASIL ELETRODOMESTICOS LTDA       010757237010723NOVA CASA BAHIA S/A                     RODOVIA ANHANGUERA 0, S/N KM52          JUNDIAI                                 13208401SP3333800003062772640000047039  13012012007PAULISTA            0602201200000000010934083TD                                                                                                                                                                                                                                                                                                                                                                                                         000012
1021141012725COBR_CAUC_BIC  MABE BRASIL ELETRODOMESTICOS LTDA       010757237010723NOVA CASA BAHIA S/A                     RODOVIA ANHANGUERA 0, S/N KM52          JUNDIAI                                 13208401SP3333800004062772720000047061  13012012007PAULISTA            0602201200000000010934083TD                                                                                                                                                                                                                                                                                                                                                                                                         000013
1021141012725COBR_CAUC_BIC  MABE BRASIL ELETRODOMESTICOS LTDA       010757237010723NOVA CASA BAHIA S/A                     RODOVIA ANHANGUERA 0, S/N KM52          JUNDIAI                                 13208401SP3333800005062772810000047089  13012012007PAULISTA            0602201200000000010934083TD                                                                                                                                                                                                                                                                                                                                                                                                         000014
9000008                                                                                                                                                                                                                                                                                                                                                                                                                                                                                                                                                                                                                                                                                                               000015
