0REMESSANOTIFICACAO ELETRONICA        99999999999999BICBANCO                                AV. PAULISTA                            1048      12.ANDAR  BELA VISTA                    SAO PAULO                     01310100SP1121739360CORTINHAL                               COORDENADOR                             21082013                                                                                                                                                                                                                                                                                                                                                                                      000001
1048421003043COBR_CAUC_COR  FRIGOL S.A. EM RECUPERACAO JUDICIAL     004906617000121N. N. SHIOZAKI                          ALAMEDA 11, 16 - CONJ. MAGUARI          BELEM                                   66823060PA4368300001000411480000026044  20082013900BRADESCO S/A        1609201300000000011910703CC                                                                                                                                                                                                                                                                                                                                                                                                         000002
1042141005772COBR_CAUC_BIC  HIDROSONDA LTDA                         007073042000100EDECONSIL CONSTRUCOES E LOCACOES L      RUA JOSE SARNEY 500                     SAO LUIS                                65085470MA436820000103855174DP650000-1  14082013042SAO LUIS            1410201300000000032500000TD                                                                                                                                                                                                                                                                                                                                                                                                         000003
1042141005772COBR_CAUC_BIC  HIDROSONDA LTDA                         007073042000100EDECONSIL CONSTRUCOES E LOCACOES L      RUA JOSE SARNEY 500                     SAO LUIS                                65085470MA436820000203855182DP650000-2  14082013042SAO LUIS            1411201300000000032500000TD                                                                                                                                                                                                                                                                                                                                                                                                         000004
1028421002921COBR_CAUC_COR  MATABOI ALIMENTOS S/A - EM REC.JUD.     065791980000648RODOPA INDUSTRIA E COMERCIO DE ALI      VL SANTA RITA DE CASSIA SN              CASSILANDIA                             79540000MS4367800001004069240001558901  19082013900BRADESCO S/A        2608201300000000014055916CC                                                                                                                                                                                                                                                                                                                                                                                                         000005
1007421013325COBR_CAUC_COR  SANTA CRUZ FOMENTO COMERCIAL LTDA       002558157000162TELECOMUNICACOES DE SAO PAULO S/A       RUA  MARTINIANO DE CARVALHO 851         SAO PAULO                               01321001SP436800000102178507324         20082013900BRADESCO S/A        1610201300000000014046303CC                                                                                                                                                                                                                                                                                                                                                                                                         000006
1022421009730COBR_CAUC_COR  SIMISA SIMIONI METALURGICA LTDA         005461642000101SIMEX SIMIONI IMPORTADORA E EXPORT      MARG ANTONIO W.MARTINELLI 3013          SERTAOZINHO                             14175360SP43681000010460447340705/01    02072013600HSBC BANK BRASIL    3010201300000000031000000CC                                                                                                                                                                                                                                                                                                                                                                                                         000007
1019421014637COBR_CAUC_COR  SOCIEDADE RADIO E TV ALTEROSA SA        006111334000119INTRALOT DO BRASIL COM EQUIP E          AV. DO CONTORNO,6500-7 ANDAR            BELO HORIZONTE                          30110044MG43679000010001250161757       20082013900BRADESCO S/A        1509201300000000018230866CC                                                                                                                                                                                                                                                                                                                                                                                                         000008
9000006                                                                                                                                                                                                                                                                                                                                                                                                                                                                                                                                                                                                                                                                                                               000009
