0REMESSANOTIFICACAO ELETRONICA        99999999999999BICBANCO                                AV. PAULISTA                            1048      12.ANDAR  BELA VISTA                    SAO PAULO                     01310100SP1121739360CORTINHAL                               COORDENADOR                             25042012                                                                                                                                                                                                                                                                                                                                                                                      000001
1013421002598DIR_CREDIT     H. S. SERVICOS DE SAUDE LTDA.           001518211000183GOLDEN CROSS ASSISTENCIA INTERNACIONAL  RUA MORAIS E SILVA 40 - MARACANA        RIO DE JANEIRO                          20271030RJ3502700001                                                                                                                                          115719520           010120040000001137S/N         31082011000430Atendimento e prestação de serviços médico e hospitalar para clientes  da rede básica, especial e superior.                                                                                                                                     005512809000116              000002
1013421002598DIR_CREDIT     H. S. SERVICOS DE SAUDE LTDA.           003658432000182GEAP FUNDAçãO DE SEGURIDADE SOCIAL      SHC - AO SUL EA 02/08 LOTE 05 CE TERRAçOBRASILIA                                70660900DF3502800001                                                                                                                                          115719520           080520090000019521400001800   31082011000430Prestação de serviços hospitalares, ambulatoriais e/ou de apoio diagnóstico e terapêutico e/ou urgência ou emergência.                                                                                                                          005512809000116              000003
1045421012005DIR_CREDIT     CONSTRUTORA CUNHA LTDA                  005339901000126NB PARTICIPAÇÕES E EMPREENDIMENTOS LTDA AV TIRADENTES, 43 SALA 06               ARACAJU                                 49082600SE3502900001                                                                                                                                          011813343           010420120000021151S/N         23042012000403Venda do imóvel registrado na Matrícula nº 13.784 - 1ª Zona Imobiliáriade Aracajú.                                                                                                                                                              013170105000130              000004
1045421003766DIR_CREDIT     BIOGRAF S/C LTDA                        013131370000100SAO LUCAS MEDICO HOSPITALAR             AV CEL STANLEY DA SILVEIRA 33           ARACAJU                                 49015400SE3503100001                                                                                                                                          011830566           060520020000006114001         23042012000403Prestação de serviços médicos realizando exames de scan duplex, dopplervascular ultra-som vascular                                                                                                                                              001666646000175              000005
1038421019619COBR_CAUC_COR  TOME EQUIPAMENTOS E TRANSPORTES S.A     008528337000188WIND POWER ENERGIA S/A                  EST TRONCO DIST ROD.NORTE,1724          CABO DE SANTO A                         54590000PE3504300001095952842404        23042012900BRADESCO S/A        0806201200000000129140772CC                                                                                                                                                                                                                                                                                                                                                                                                         000006
1009421001996COBR_CAUC_COR  MEDICAL SHOP PROD.HOSPITALARES LTDA     000025841000153HOSPITAL SANTA LUCIA S/A                SHLS QD 716 CONJUNTO C,0                BRASILIA                                70390700DF35044000010005426151934/1     24042012900BRADESCO S/A        2306201200000000017000000CC                                                                                                                                                                                                                                                                                                                                                                                                         000007
1008421022487COBR_CAUC_COR  EBP - EMPRESA BRASILEIRA DE PESCADO     033381286000151SUPER MERCADO ZONA SUL S/A              RUA COMANDANTE VERGUEIRO DA CRUZ, 226   RIO DE JANEIRO                          21021020RJ35045000010150872710542/      21042012900BRADESCO S/A        2005201200000000012700000CC                                                                                                                                                                                                                                                                                                                                                                                                         000008
1017420930587DIR_CREDIT     USINA CANSANCAO DE SINIMBU SA           012277646000108COOP.REG.PROD.DE ACUCAR E ALCOOL DE AL  RUA SÁ E ALBUQUERQUE, 235               MACEIO                                  57022180AL3505300001                                                                                                                                          011834568           020320070000000575            24042012017002TODA A PRODUÇÃO DE AÇUCAR,ÁLCOOL E MEL,NAS SAFRAS 2007/2008/2009/2010/ 2011/2012/2013,PASSARÁ IMEDIATA E DEFINITIVAMENTE PARA POSSE E LIVRE DISPONIBILIDADE DA COOPERATIVA.                                                                     012272498000120              000009
1014421019252DIR_CREDIT     PROCORDIS S A                           028630531000187UNIMED SAO GONCALO - COOP DE TRAB MEDICORUA DRº BORMAN, 51 11ª ANDAR            CENTRO                                  24020320RJ3505600001                                                                                                                                          011524314           010720040000012385N/C         24042012000403PRESTAÇÃO DE SERVIÇOS CLÍNICOS E CIRÚRGICOS NAS ESPECIALIDADES DE CAR- DIOLOGIA CLÍNICA CIRÚRGICA E VASCULAR, ALÉM DE PRESTAR ASSISTÊNCIA MÉDICA DE   PRONTO SOCORRO (EMERGÊNCIA E URGÊNCIA)                                                    030079479000164              000010
1019421002647COBR_CAUC_BIC  TRANSPORTES PARGON LTDA                 007838307000105DIST CARVAO BRASA DE MINAS              AV ALVARES CABRAL,381-1006              BELO HORIZONTE                          30170001MG350650000106392985303266      05042012019BELO HORIZONTE      1306201200000000000500000CC                                                                                                                                                                                                                                                                                                                                                                                                         000011
1019421002647COBR_CAUC_BIC  TRANSPORTES PARGON LTDA                 007838307000105DIST CARVAO BRASA DE MINAS              AV ALVARES CABRAL,381-1006              BELO HORIZONTE                          30170001MG3506500002063862411000,00     29032012019BELO HORIZONTE      1005201200000000000100000CC                                                                                                                                                                                                                                                                                                                                                                                                         000012
1019421002647COBR_CAUC_BIC  TRANSPORTES PARGON LTDA                 007838307000105DIST CARVAO BRASA DE MINAS              AV ALVARES CABRAL,381-1006              BELO HORIZONTE                          30170001MG350650000306373981302816      09032012019BELO HORIZONTE      2804201200000000000700000CC                                                                                                                                                                                                                                                                                                                                                                                                         000013
1019421002647COBR_CAUC_BIC  TRANSPORTES PARGON LTDA                 007838307000105DIST CARVAO BRASA DE MINAS              AV ALVARES CABRAL,381-1006              BELO HORIZONTE                          30170001MG350650000406373999302817      09032012019BELO HORIZONTE      2904201200000000000700000CC                                                                                                                                                                                                                                                                                                                                                                                                         000014
1019421002647COBR_CAUC_BIC  TRANSPORTES PARGON LTDA                 007838307000105DIST CARVAO BRASA DE MINAS              AV ALVARES CABRAL,381-1006              BELO HORIZONTE                          30170001MG350650000506374006302818      09032012019BELO HORIZONTE      3004201200000000000700000CC                                                                                                                                                                                                                                                                                                                                                                                                         000015
1019421002647COBR_CAUC_BIC  TRANSPORTES PARGON LTDA                 007838307000105DIST CARVAO BRASA DE MINAS              AV ALVARES CABRAL,381-1006              BELO HORIZONTE                          30170001MG350650000606374014302819      09032012019BELO HORIZONTE      0205201200000000000600000CC                                                                                                                                                                                                                                                                                                                                                                                                         000016
1019421002647COBR_CAUC_BIC  TRANSPORTES PARGON LTDA                 007838307000105DIST CARVAO BRASA DE MINAS              AV ALVARES CABRAL,381-1006              BELO HORIZONTE                          30170001MG350650000706374022302820      09032012019BELO HORIZONTE      0305201200000000000600000CC                                                                                                                                                                                                                                                                                                                                                                                                         000017
1019421002647COBR_CAUC_BIC  TRANSPORTES PARGON LTDA                 007838307000105DIST CARVAO BRASA DE MINAS              AV ALVARES CABRAL,381-1006              BELO HORIZONTE                          30170001MG350650000806378729302856      12032012019BELO HORIZONTE      0905201200000000000500000CC                                                                                                                                                                                                                                                                                                                                                                                                         000018
1019421002647COBR_CAUC_BIC  TRANSPORTES PARGON LTDA                 007838307000105DIST CARVAO BRASA DE MINAS              AV ALVARES CABRAL,381-1006              BELO HORIZONTE                          30170001MG350650000906378737302857      12032012019BELO HORIZONTE      1005201200000000000600000CC                                                                                                                                                                                                                                                                                                                                                                                                         000019
1019421002647COBR_CAUC_BIC  TRANSPORTES PARGON LTDA                 007838307000105DIST CARVAO BRASA DE MINAS              AV ALVARES CABRAL,381-1006              BELO HORIZONTE                          30170001MG350650001006379598302880      13032012019BELO HORIZONTE      1405201200000000000500000CC                                                                                                                                                                                                                                                                                                                                                                                                         000020
1019421002647COBR_CAUC_BIC  TRANSPORTES PARGON LTDA                 007838307000105DIST CARVAO BRASA DE MINAS              AV ALVARES CABRAL,381-1006              BELO HORIZONTE                          30170001MG350650001106380723302989      19032012019BELO HORIZONTE      3004201200000000000100000CC                                                                                                                                                                                                                                                                                                                                                                                                         000021
1019421002647COBR_CAUC_BIC  TRANSPORTES PARGON LTDA                 007838307000105DIST CARVAO BRASA DE MINAS              AV ALVARES CABRAL,381-1006              BELO HORIZONTE                          30170001MG350650001206380731302990      19032012019BELO HORIZONTE      1805201200000000000800000CC                                                                                                                                                                                                                                                                                                                                                                                                         000022
1019421002647COBR_CAUC_BIC  TRANSPORTES PARGON LTDA                 007838307000105DIST CARVAO BRASA DE MINAS              AV ALVARES CABRAL,381-1006              BELO HORIZONTE                          30170001MG350650001306380766303008      20032012019BELO HORIZONTE      2305201200000000000500000CC                                                                                                                                                                                                                                                                                                                                                                                                         000023
1019421002647COBR_CAUC_BIC  TRANSPORTES PARGON LTDA                 007838307000105DIST CARVAO BRASA DE MINAS              AV ALVARES CABRAL,381-1006              BELO HORIZONTE                          30170001MG350650001406380774303009      20032012019BELO HORIZONTE      2405201200000000000600000CC                                                                                                                                                                                                                                                                                                                                                                                                         000024
1019421002647COBR_CAUC_BIC  TRANSPORTES PARGON LTDA                 007838307000105DIST CARVAO BRASA DE MINAS              AV ALVARES CABRAL,381-1006              BELO HORIZONTE                          30170001MG350650001506380847303027      21032012019BELO HORIZONTE      2805201200000000000500000CC                                                                                                                                                                                                                                                                                                                                                                                                         000025
1019421002647COBR_CAUC_BIC  TRANSPORTES PARGON LTDA                 007838307000105DIST CARVAO BRASA DE MINAS              AV ALVARES CABRAL,381-1006              BELO HORIZONTE                          30170001MG350650001606380855303028      21032012019BELO HORIZONTE      2905201200000000000600000CC                                                                                                                                                                                                                                                                                                                                                                                                         000026
1019421002647COBR_CAUC_BIC  TRANSPORTES PARGON LTDA                 007838307000105DIST CARVAO BRASA DE MINAS              AV ALVARES CABRAL,381-1006              BELO HORIZONTE                          30170001MG350650001706383919303049      22032012019BELO HORIZONTE      3105201200000000000500000CC                                                                                                                                                                                                                                                                                                                                                                                                         000027
1019421002647COBR_CAUC_BIC  TRANSPORTES PARGON LTDA                 007838307000105DIST CARVAO BRASA DE MINAS              AV ALVARES CABRAL,381-1006              BELO HORIZONTE                          30170001MG350650001806383927303050      22032012019BELO HORIZONTE      0106201200000000000600000CC                                                                                                                                                                                                                                                                                                                                                                                                         000028
1019421002647COBR_CAUC_BIC  TRANSPORTES PARGON LTDA                 007838307000105DIST CARVAO BRASA DE MINAS              AV ALVARES CABRAL,381-1006              BELO HORIZONTE                          30170001MG350650001906384176303058      23032012019BELO HORIZONTE      0705201200000000000100000CC                                                                                                                                                                                                                                                                                                                                                                                                         000029
1019421002647COBR_CAUC_BIC  TRANSPORTES PARGON LTDA                 007838307000105DIST CARVAO BRASA DE MINAS              AV ALVARES CABRAL,381-1006              BELO HORIZONTE                          30170001MG350650002006384184303059      23032012019BELO HORIZONTE      3005201200000000000500000CC                                                                                                                                                                                                                                                                                                                                                                                                         000030
1019421002647COBR_CAUC_BIC  TRANSPORTES PARGON LTDA                 007838307000105DIST CARVAO BRASA DE MINAS              AV ALVARES CABRAL,381-1006              BELO HORIZONTE                          30170001MG350650002106384192303061      23032012019BELO HORIZONTE      0406201200000000000600000CC                                                                                                                                                                                                                                                                                                                                                                                                         000031
1019421002647COBR_CAUC_BIC  TRANSPORTES PARGON LTDA                 007838307000105DIST CARVAO BRASA DE MINAS              AV ALVARES CABRAL,381-1006              BELO HORIZONTE                          30170001MG350650002206385768303110      27032012019BELO HORIZONTE      0506201200000000000700000CC                                                                                                                                                                                                                                                                                                                                                                                                         000032
1019421002647COBR_CAUC_BIC  TRANSPORTES PARGON LTDA                 007838307000105DIST CARVAO BRASA DE MINAS              AV ALVARES CABRAL,381-1006              BELO HORIZONTE                          30170001MG350650002306386250303164      29032012019BELO HORIZONTE      0606201200000000000800000CC                                                                                                                                                                                                                                                                                                                                                                                                         000033
1019421002647COBR_CAUC_BIC  TRANSPORTES PARGON LTDA                 007838307000105DIST CARVAO BRASA DE MINAS              AV ALVARES CABRAL,381-1006              BELO HORIZONTE                          30170001MG350650002406390010303176      30032012019BELO HORIZONTE      0806201200000000000500000CC                                                                                                                                                                                                                                                                                                                                                                                                         000034
1019421002647COBR_CAUC_BIC  TRANSPORTES PARGON LTDA                 007838307000105DIST CARVAO BRASA DE MINAS              AV ALVARES CABRAL,381-1006              BELO HORIZONTE                          30170001MG350650002506390028303177      30032012019BELO HORIZONTE      1106201200000000000600000CC                                                                                                                                                                                                                                                                                                                                                                                                         000035
1019421002647COBR_CAUC_BIC  TRANSPORTES PARGON LTDA                 007838307000105DIST CARVAO BRASA DE MINAS              AV ALVARES CABRAL,381-1006              BELO HORIZONTE                          30170001MG350650002606390460303231      03042012019BELO HORIZONTE      1206201200000000000700000CC                                                                                                                                                                                                                                                                                                                                                                                                         000036
1019421002647COBR_CAUC_BIC  TRANSPORTES PARGON LTDA                 007838307000105DIST CARVAO BRASA DE MINAS              AV ALVARES CABRAL,381-1006              BELO HORIZONTE                          30170001MG350650002706390575303253      04042012019BELO HORIZONTE      1505201200000000000100000CC                                                                                                                                                                                                                                                                                                                                                                                                         000037
1019421002647COBR_CAUC_BIC  TRANSPORTES PARGON LTDA                 007838307000105DIST CARVAO BRASA DE MINAS              AV ALVARES CABRAL,381-1006              BELO HORIZONTE                          30170001MG350650002806392993303267      05042012019BELO HORIZONTE      1406201200000000000600000CC                                                                                                                                                                                                                                                                                                                                                                                                         000038
1019421002647COBR_CAUC_BIC  TRANSPORTES PARGON LTDA                 007838307000105DIST CARVAO BRASA DE MINAS              AV ALVARES CABRAL,381-1006              BELO HORIZONTE                          30170001MG350650002906393051303298      09042012019BELO HORIZONTE      2105201200000000000100000CC                                                                                                                                                                                                                                                                                                                                                                                                         000039
1019421002647COBR_CAUC_BIC  TRANSPORTES PARGON LTDA                 007838307000105DIST CARVAO BRASA DE MINAS              AV ALVARES CABRAL,381-1006              BELO HORIZONTE                          30170001MG350650003006393060303300      09042012019BELO HORIZONTE      1506201200000000000600000CC                                                                                                                                                                                                                                                                                                                                                                                                         000040
1019421002647COBR_CAUC_BIC  TRANSPORTES PARGON LTDA                 007838307000105DIST CARVAO BRASA DE MINAS              AV ALVARES CABRAL,381-1006              BELO HORIZONTE                          30170001MG350650003106393337303323      10042012019BELO HORIZONTE      1806201200000000000900000CC                                                                                                                                                                                                                                                                                                                                                                                                         000041
1019421002647COBR_CAUC_BIC  TRANSPORTES PARGON LTDA                 007838307000105DIST CARVAO BRASA DE MINAS              AV ALVARES CABRAL,381-1006              BELO HORIZONTE                          30170001MG350650003206406722303363      11042012019BELO HORIZONTE      1906201200000000000500000CC                                                                                                                                                                                                                                                                                                                                                                                                         000042
1019421002647COBR_CAUC_BIC  TRANSPORTES PARGON LTDA                 007838307000105DIST CARVAO BRASA DE MINAS              AV ALVARES CABRAL,381-1006              BELO HORIZONTE                          30170001MG350650003306410029303404      13042012019BELO HORIZONTE      2505201200000000000100000CC                                                                                                                                                                                                                                                                                                                                                                                                         000043
1019421002647COBR_CAUC_BIC  TRANSPORTES PARGON LTDA                 007838307000105DIST CARVAO BRASA DE MINAS              AV ALVARES CABRAL,381-1006              BELO HORIZONTE                          30170001MG350650003406410037303406      13042012019BELO HORIZONTE      2006201200000000000600000CC                                                                                                                                                                                                                                                                                                                                                                                                         000044
1019421002647COBR_CAUC_BIC  TRANSPORTES PARGON LTDA                 007838307000105DIST CARVAO BRASA DE MINAS              AV ALVARES CABRAL,381-1006              BELO HORIZONTE                          30170001MG350650003506410045303407      13042012019BELO HORIZONTE      2106201200000000000600000CC                                                                                                                                                                                                                                                                                                                                                                                                         000045
1019421002647COBR_CAUC_BIC  TRANSPORTES PARGON LTDA                 007838307000105DIST CARVAO BRASA DE MINAS              AV ALVARES CABRAL,381-1006              BELO HORIZONTE                          30170001MG350650003606410649303426      16042012019BELO HORIZONTE      2106201200000000000700000CC                                                                                                                                                                                                                                                                                                                                                                                                         000046
1019421002647COBR_CAUC_BIC  TRANSPORTES PARGON LTDA                 007838307000105DIST CARVAO BRASA DE MINAS              AV ALVARES CABRAL,381-1006              BELO HORIZONTE                          30170001MG350650003706410657303427      16042012019BELO HORIZONTE      2206201200000000000700000CC                                                                                                                                                                                                                                                                                                                                                                                                         000047
1019421002647COBR_CAUC_BIC  TRANSPORTES PARGON LTDA                 007838307000105DIST CARVAO BRASA DE MINAS              AV ALVARES CABRAL,381-1006              BELO HORIZONTE                          30170001MG350650003806410681303459      17042012019BELO HORIZONTE      2506201200000000000800000CC                                                                                                                                                                                                                                                                                                                                                                                                         000048
1019421002647COBR_CAUC_BIC  TRANSPORTES PARGON LTDA                 007838307000105DIST CARVAO BRASA DE MINAS              AV ALVARES CABRAL,381-1006              BELO HORIZONTE                          30170001MG350650003906410690303460      17042012019BELO HORIZONTE      2606201200000000000800000CC                                                                                                                                                                                                                                                                                                                                                                                                         000049
1019421002647COBR_CAUC_BIC  TRANSPORTES PARGON LTDA                 007838307000105DIST CARVAO BRASA DE MINAS              AV ALVARES CABRAL,381-1006              BELO HORIZONTE                          30170001MG350650004006410720303482      18042012019BELO HORIZONTE      2706201200000000000900000CC                                                                                                                                                                                                                                                                                                                                                                                                         000050
1019421002647COBR_CAUC_BIC  TRANSPORTES PARGON LTDA                 007838307000105DIST CARVAO BRASA DE MINAS              AV ALVARES CABRAL,381-1006              BELO HORIZONTE                          30170001MG350650004106410754303497      19042012019BELO HORIZONTE      2806201200000000000700000CC                                                                                                                                                                                                                                                                                                                                                                                                         000051
1019421002647COBR_CAUC_BIC  TRANSPORTES PARGON LTDA                 007838307000105DIST CARVAO BRASA DE MINAS              AV ALVARES CABRAL,381-1006              BELO HORIZONTE                          30170001MG350650004206410762303498      19042012019BELO HORIZONTE      2806201200000000000600000CC                                                                                                                                                                                                                                                                                                                                                                                                         000052
1019421002647COBR_CAUC_BIC  TRANSPORTES PARGON LTDA                 007838307000105DIST CARVAO BRASA DE MINAS              AV ALVARES CABRAL,381-1006              BELO HORIZONTE                          30170001MG350650004306410797303512      20042012019BELO HORIZONTE      2906201200000000000500000CC                                                                                                                                                                                                                                                                                                                                                                                                         000053
1019421002647COBR_CAUC_BIC  TRANSPORTES PARGON LTDA                 007838307000105DIST CARVAO BRASA DE MINAS              AV ALVARES CABRAL,381-1006              BELO HORIZONTE                          30170001MG350650004406410801303513      20042012019BELO HORIZONTE      2906201200000000000400000CC                                                                                                                                                                                                                                                                                                                                                                                                         000054
1007421058434DIR_CREDIT     BIO ENERGIAS COMERC DE ENERGIA LTDA     007298835000119COENERGY COMERCIALIZADORA DE ENERGIA    RUA PEQUETITA 215 VILA OLIMPIA          SP                                      04552060SP3506600001                                                                                                                                          001177922           0101201200000209910299/2011   23032012003002contrato de compra e venda de energia                                                                                                                                                                                                           009571846000156              000055
9000011                                                                                                                                                                                                                                                                                                                                                                                                                                                                                                                                                                                                                                                                                                               000056
