0REMESSANOTIFICACAO ELETRONICA        99999999999999BICBANCO                                AV. PAULISTA                            1048      12.ANDAR  BELA VISTA                    SAO PAULO                     01310100SP1121739360CORTINHAL                               COORDENADOR                             17092012                                                                                                                                                                                                                                                                                                                                                                                      000001
1019421014068COBR_CAUC_COR  RIO BRANCO ALIMENTOS S/A                004641376007300SUPERMERCADOS BH COMERCIO DE            AV GERALDO ROCHA 700                    CONTAGEM                                32183054MG3785200001002469280143002401  13092012900BRADESCO S/A        1110201200000000022805358CC                                                                                                                                                                                                                                                                                                                                                                                                         000002
1019421014068COBR_CAUC_COR  RIO BRANCO ALIMENTOS S/A                004641376007300SUPERMERCADOS BH COMERCIO DE            AV GERALDO ROCHA 700                    CONTAGEM                                32183054MG3785200002002600330143142001  14092012900BRADESCO S/A        1210201200000000010140563CC                                                                                                                                                                                                                                                                                                                                                                                                         000003
1019421010259COBR_CAUC_BIC  L & S INTERBANK FOMENTO LTDA            003108004000186ALPHA VIGILANCIA E SEGURANCA LTDA       R. PATROCINIO Nº 252                    BELO HORIZONTE                          30710140MG3785300001065720374783        13092012019BELO HORIZONTE      2210201200000000016400321CC                                                                                                                                                                                                                                                                                                                                                                                                         000004
9000002                                                                                                                                                                                                                                                                                                                                                                                                                                                                                                                                                                                                                                                                                                               000005
