0REMESSANOTIFICACAO ELETRONICA        99999999999999BICBANCO                                AV. PAULISTA                            1048      12.ANDAR  BELA VISTA                    SAO PAULO                     01310100SP1121739360CORTINHAL                               COORDENADOR                             19122011                                                                                                                                                                                                                                                                                                                                                                                      000001
1007421006183COBR_CAUC_BIC  NITRIFLEX S/A IND E COMERCIO            015179682002243RHODIA POLIAMIDA E ESPECIALIDADES       AV.DOS ESTADOS, 6144                    SANTO ANDRE                             09290520SP325950000100984158001286101   15122011038ABC                 1602201200000000013559501CC                                                                                                                                                                                                                                                                                                                                                                                                         000002
1021420930887COBR_CAUC_COR  DEDINI S/A INDUSTRIAS DE BASE           051990778000126ACUCAR E ALCOOL OSWALDO R MENDONCA      RUA FAZ S JOSE DA GLORIA RURAL BR       GUAIRA                                  14790000SP325960000106263867161953-8-8  15122011900BRADESCO S/A        3105201200000000012032491CC                                                                                                                                                                                                                                                                                                                                                                                                         000003
1021141012725COBR_CAUC_BIC  MABE BRASIL ELETRODOMESTICOS LTDA       010757237010723NOVA CASA BAHIA S/A                     RODOVIA ANHANGUERA 0, S/N KM52          13203850                                13203850SP3259700001062636620000575565  16122011007PAULISTA            0301201200000000010934083TD                                                                                                                                                                                                                                                                                                                                                                                                         000004
9000003                                                                                                                                                                                                                                                                                                                                                                                                                                                                                                                                                                                                                                                                                                               000005
