0REMESSANOTIFICACAO ELETRONICA        99999999999999BICBANCO                                AV. PAULISTA                            1048      12.ANDAR  BELA VISTA                    SAO PAULO                     01310100SP1121739360CORTINHAL                               COORDENADOR                             20082012                                                                                                                                                                                                                                                                                                                                                                                      000001
1021420930887COBR_CAUC_COR  DEDINI S/A INDUSTRIAS DE BASE           048295562001450USINA ALTO ALEGRE S A - ACUCAR E A      RUA JOSE LEITE, 40 JD BONGIOVANI BR     PRESIDENTE PRUD                         19050910SP37250000010635068926389-2-2   15082012900BRADESCO S/A        3008201200000000012079600CC                                                                                                                                                                                                                                                                                                                                                                                                         000002
1021420930887COBR_CAUC_COR  DEDINI S/A INDUSTRIAS DE BASE           060329174000124US AC S MANOEL S A                      FAZENDA BOA VISTA, S N ZONA RURAL BR    SAO MANUEL                              18650000SP372510000106350701189094-1-1  16082012900BRADESCO S/A        3108201200000000033896550CC                                                                                                                                                                                                                                                                                                                                                                                                         000003
1022421007720COBR_CAUC_COR  JUMIL-JUSTINO DE MORAIS IRMAOS S/A      007974888000102JOAO EMILIO ROCHETO E OUTROS            CX POSTAL, 21                           PERDIZES                                38170000MG372520000104376349116196E.01  17082012800UNIBANCO S/A        0709201200000000017415800CC                                                                                                                                                                                                                                                                                                                                                                                                         000004
1022421007720COBR_CAUC_BIC  JUMIL-JUSTINO DE MORAIS IRMAOS S/A      008551535000324AKIRA YOCHIDA                           RUA ORLANDIA, APTO-11, 796              RIBEIRAO PRETO                          14090240SP372530000104376381116148E.01  17082012022RIBEIRAO PRETO      0109201200000000012200000CC                                                                                                                                                                                                                                                                                                                                                                                                         000005
1003421013987COBR_CAUC_COR  SCIENTIFIC COM E IMPORTACAO LTDA        041338310000106CEDIU-CENTRO DE DIAG ULTRASONOGRAF      RUA PADRE CICERO,774                    JUAZEIRO DO NOR                         63010020CE37254000010002786112503       17082012900BRADESCO S/A        3008201200000000011600000CC                                                                                                                                                                                                                                                                                                                                                                                                         000006
1014421008439COBR_CAUC_BIC  TV OMEGA LTDA                           009137895000266Kawasaki Motores do Brasil Ltda         Alameda Santos - 9º andar        771    SãoPaulo                                01419001SP37255000010453927600012901    17082012007PAULISTA            1509201200000000013603200CC                                                                                                                                                                                                                                                                                                                                                                                                         000007
1007421043100COBR_CAUC_BIC  MACROPORT INTERNACIONAL LTDA            067854034000114WYDA IND DE EMBALAGENS LTDA             ALAMEDA WYDA, ,109                      SOROCABA                                18086600SP3725600001014031243179        15082012007PAULISTA            0509201200000000020509902CC                                                                                                                                                                                                                                                                                                                                                                                                         000008
1007420938457DIR_CREDIT     RADIO E TV BANDEIRANTES LTDA            030902803000100IGREJA INTERNACIONAL DA GRAçA DE DEUS   ESTRADA DOS BANDEIRANTES, 1000          RIO DE JANEIRO                          22710571RJ3725700001                                                                                                                                          011947235           010120120000021328            17082012000403c1rato de cessão de horário para veiculação de programa de  produção   independente. contratante "r.r.soares"                                                                                                                                   060509239000113              000009
1015421021743DIR_CREDIT     CENTRO CLINICO GAUCHO LTDA              000773639000100DIVERSOS CONVENIADOS - PF               CEL FREDERICO LINK, 25                  PORTO ALEGRE                            90035010RS3726200001                                                                                                                                          011950200           090720120000021986DIVERSOS CON16082012000403CONVENIOS DE PLANOS DE SAÚDE.                                                                                                                                                                                                                   093956837000190              000010
1014421018841DIR_CREDIT     ENGUIA GEN BA LTDA                      061695227000193ELETROPAULO METROP ELETRIC SAO PAULO S/AAV DR MARCOS PENTEADO DE ULHOA RODR,939 LJ I E II BARUERI                       06460040SP3726800001                                                                                                                                          010913260           0101200800000122332087/2005   23052011000403FORNECIMENTO DE ENERGIA.                                                                                                                                                                                                                        004735625000152              000011
1014421018876DIR_CREDIT     ENGUIA GEN CE LTDA                      061695227000193ELETROPAULO METROP ELETRIC SAO PAULO S/AAV DR MARCOS PENTEADO ULHOA RODR, 939   LJ I E II BARUERI                       06460040SP3726900001                                                                                                                                          010913384           0101200800000122432114/2005   14062012000403FORNECIMENTO DE ENERGIA.                                                                                                                                                                                                                        004735629000130              000012
1014421018876DIR_CREDIT     ENGUIA GEN CE LTDA                      061695227000193ELETROPAULO METROP ELETRIC SAO PAULO S/AAV DR MARCOS PENTEADO ULHOA RODR, 939   LJ I E II BARUERI                       06460040SP3727000001                                                                                                                                          010913384           0101200800000122432114/2005   14062012000403FORNECIMENTO DE ENERGIA.                                                                                                                                                                                                                        004735629000130              000013
1014421018892DIR_CREDIT     ENGUIA GEN PI LTDA                      061695227000193ELETROPAULO METROP ELETRIC SAO PAULO S/AAV DR MARCOS PENTEADO DE ULHOA RODR,939 LJ I E II BARUERI                       06460040SP3727200001                                                                                                                                          011115660           0101200800000122452141/2005   08092010000403FORNECIMENTO DE ENERGIA.                                                                                                                                                                                                                        004735623000163              000014
1014421018892DIR_CREDIT     ENGUIA GEN PI LTDA                      061695227000193ELETROPAULO METROP ELETRIC SAO PAULO S/AAV DR MARCOS PENTEADO DE ULHOA RODR,939 LJ I E II BARUERI                       06460040SP3727300001                                                                                                                                          011115660           0101200800000122452141/2005   08092010000403FORNECIMENTO DE ENERGIA.                                                                                                                                                                                                                        004735623000163              000015
1007420938457DIR_CREDIT     RADIO E TV BANDEIRANTES LTDA            030902803000100IGREJA INTERNACIONAL DA GRAçA DE DEUS   ESTRADA DOS BANDEIRANTES, 1000          RIO DE JANEIRO                          22710571RJ3727400001                                                                                                                                          011947235           010120120000021328            17082012000403c1rato de cessão de horário para veiculação de programa de  produção   independente. contratante "r.r.soares"                                                                                                                                   060509239000113              000016
9000015                                                                                                                                                                                                                                                                                                                                                                                                                                                                                                                                                                                                                                                                                                               000017
