0REMESSANOTIFICACAO ELETRONICA        99999999999999BICBANCO                                AV. PAULISTA                            1048      12.ANDAR  BELA VISTA                    SAO PAULO                     01310100SP1121739360CORTINHAL                               COORDENADOR                             29102013                                                                                                                                                                                                                                                                                                                                                                                      000001
1009421012831COBR_CAUC_COR  ASA ALIMENTOS S/A                       007209331000185REGINA AGROINDUSTRIAL S/A               ESTRADA DO AQUIRAZ,  801                FORTALEZA                               60840970CE4497000001001485090043769     26102013900BRADESCO S/A        2311201300000000012761910CC                                                                                                                                                                                                                                                                                                                                                                                                         000002
1048421003043COBR_CAUC_COR  FRIGOL S.A. EM RECUPERACAO JUDICIAL     067620377000114MINERVA.S.A                             AV.ANTONIO MANSO BERNARDES,S/N          BARRETOS                                14781545SP4497600001000533320000028656  28102013900BRADESCO S/A        0411201300000000021667249CC                                                                                                                                                                                                                                                                                                                                                                                                         000003
1018421034826COBR_CAUC_BIC  LACEL LATICINIOS CERES LTDA             005054671001554LIDER COMERCIO E INDUSTRIA LTDA         ROD AUGUSTO MONTENEGRO S/N KM-8         BELEM                                   66833000PA449730000103465181028088      25102013050BELEM               2911201300000000011293128CC                                                                                                                                                                                                                                                                                                                                                                                                         000004
1007421055095COBR_CAUC_COR  PLASTER IND COM RESINAS PLAS EIRELI     059104513000195AUTOMETAL S/A                           AV FAGUNDES DE OLIVEIRA,1650            DIADEMA                                 09950300SP449750000100017069037168/A    25102013900BRADESCO S/A        1912201300000000010612875CC                                                                                                                                                                                                                                                                                                                                                                                                         000005
1019421014637COBR_CAUC_COR  SOCIEDADE RADIO E TV ALTEROSA SA        013481309000192RN COMERCIO VAREJISTA S A               R. TOME DE SOUZA - ATE,273-9 ANDAR      BELO HORIZONTE                          30140130MG44972000010001557862086       25102013900BRADESCO S/A        1511201300000000015197595CC                                                                                                                                                                                                                                                                                                                                                                                                         000006
1036421016893COBR_CAUC_COR  TECAL ALUMINIO DA AMAZONIA LTDA         004012043000148SHOWA DO BRASIL LTDA                    RUA RIO QUIXITO                         MANAUS                                  69075830AM4497400001059783530000054518  28102013900BRADESCO S/A        2711201300000000015047019CC                                                                                                                                                                                                                                                                                                                                                                                                         000007
1007421066275COBR_CAUC_COR  TOME EQUIPAMENTOS E TRANSPORTES S.A     043053081000109TRANSDATA TRANSPORTES LTDA              RUA CARMINE GAETA 80                    SP CENTRAL PROT                         02060100SP4497100001023817011840        11102012800UNIBANCO S/A        1211201300000000029000000CC                                                                                                                                                                                                                                                                                                                                                                                                         000008
9000007                                                                                                                                                                                                                                                                                                                                                                                                                                                                                                                                                                                                                                                                                                               000009
