0REMESSANOTIFICACAO ELETRONICA        99999999999999BICBANCO                                AV. PAULISTA                            1048      12.ANDAR  BELA VISTA                    SAO PAULO                     01310100SP1121739360CORTINHAL                               COORDENADOR                             25052012                                                                                                                                                                                                                                                                                                                                                                                      000001
1038421019619COBR_CAUC_BIC  TOME EQUIPAMENTOS E TRANSPORTES S.A     008528337000188WIND POWER ENERGIA S/A                  ESTR.TDR KM 3,3 1724                    CABO DE SANTO A                         54590000PE3555400001096366572305        23052012038ABC                 1007201200000000119612397CC                                                                                                                                                                                                                                                                                                                                                                                                         000002
1009420930764COBR_CAUC_BIC  S/A CORREIO BRAZILIENSE                 006056990000166JOSE CELSO GONTIJO ENGENHARIA S A       EQS 114 115 CONJUNTO A BLOCO 1 A SUL 41 BRASILIA                                70377400DF355550000101377170437966-1    22052012009BRASILIA            0106201200000000016800761CC                                                                                                                                                                                                                                                                                                                                                                                                         000003
1021420930887COBR_CAUC_BIC  DEDINI S/A INDUSTRIAS DE BASE           007083656000750SANDVIK MINING AND CONSTRUCTION DO      AVENIDA DAS NACOES, 2880 DI PROF JOSE VMVESPASIANO                              33200000MG35556000010633282631665-1-1   22052012019BELO HORIZONTE      1906201200000000020700000CC                                                                                                                                                                                                                                                                                                                                                                                                         000004
1021420930887COBR_CAUC_COR  DEDINI S/A INDUSTRIAS DE BASE           051466860002957SAO MARTINHO S A                        USINA IRACEMA, S N IRACEMAPOLIS BR      IRACEMAPOLIS                            13495000SP355570000106332851176429-4-4  22052012900BRADESCO S/A        2008201200000000013290120CC                                                                                                                                                                                                                                                                                                                                                                                                         000005
1021420930887COBR_CAUC_BIC  DEDINI S/A INDUSTRIAS DE BASE           061068342000138PRENSAS SCHULER SA                      AV FAGUNDES DE OLIVEIRA, 1515 PIRAPORINHDIADEMA                                 09950904SP35558000010633279631684-1-1   23052012038ABC                 1106201200000000010534300CC                                                                                                                                                                                                                                                                                                                                                                                                         000006
1021420930887COBR_CAUC_BIC  DEDINI S/A INDUSTRIAS DE BASE           061068342000138PRENSAS SCHULER SA                      AV FAGUNDES DE OLIVEIRA, 1515 PIRAPORINHDIADEMA                                 09950904SP35558000020633280031683-1-1   23052012038ABC                 1106201200000000010594900CC                                                                                                                                                                                                                                                                                                                                                                                                         000007
1007421053971COBR_CAUC_BIC  VIDA ALIMENTOS LTDA                     011457034000126GOOD MEAL COM E TRANSP DE PROD ALI      RUA ARARIPE, 206                        SAO PAULO                               03215010SP3555900001012537340004486301  23052012007PAULISTA            1506201200000000018037500CC                                                                                                                                                                                                                                                                                                                                                                                                         000008
1032421016971COBR_CAUC_BIC  METALURGICA RIOSULENSE S.A              068869767000195SERRAF DIST. PECAS P/MOTORES LTDA       AV. JOSE DE BRITO DE FREITAS, 132       SAO PAULO                               02552000SP3556000001006109773078456U    23052012007PAULISTA            2507201200000000011205890CC                                                                                                                                                                                                                                                                                                                                                                                                         000009
1038421019856COBR_CAUC_BIC  KELPEN OIL BRASIL LTDA                  043218296000124PETROCOQUE S/A IND E COMERCIO           R.C.DOMENICO RANGONI SP55 KM26          CUBATAO                                 11573000SP355610000109636690013630-01   23052012023SANTOS              0706201200000000010923270CC                                                                                                                                                                                                                                                                                                                                                                                                         000010
1007421053076COBR_CAUC_BIC  WORLD TRACTOR COML IMP LTDA             033042730001348CIA SIDERURGICA NACIONAL                RUA ENG FRANCISCO PITTA BRITTO,138      SAO PAULO                               04753900SP3556200001012536702483        24052012007PAULISTA            2007201200000000030738723CC                                                                                                                                                                                                                                                                                                                                                                                                         000011
1017421012956DIR_CREDIT     RONALDO LOPES DE ALBUQUERQUE SARMEN     012718011000190CENTRAL ACUC STO ANTONIO                USINA SANTO ANTONIO ZONA RURAL          SAO LUIZ DO QUITUNDE                    57920000AL3557400001                                                                                                                                          011850717           270320120000021348            24052012000403FORNECIMENTO DE UMA MÉDIA DE 24000 (VINTE E QUATRO MIL) TONELADAS DE CANA DE ACUCAR, PRODUZIDAS NO IMOVEL RURAL DENOMINADO FAZENDA SANTA JUSTINA 1, SAFRA 2012/2013.                                                                            076229374000087              000012
9000010                                                                                                                                                                                                                                                                                                                                                                                                                                                                                                                                                                                                                                                                                                               000013
