0REMESSANOTIFICACAO ELETRONICA        99999999999999BICBANCO                                AV. PAULISTA                            1048      12.ANDAR  BELA VISTA                    SAO PAULO                     01310100SP1121739360CORTINHAL                               COORDENADOR                             22082012                                                                                                                                                                                                                                                                                                                                                                                      000001
1015420931819COBR_CAUC_COR  COOPERATIVA TRITICOLA ERECHIM LTDA      083310441000117COOPERATIVA CENTRAL OESTE CATARINE      RUA JOAO MARTINS, 219 D                 CHAPECO                                 89803901SC37300000010095806480113/1     30072012900BRADESCO S/A        0801201300000000020072613CC                                                                                                                                                                                                                                                                                                                                                                                                         000002
1031421009837COBR_CAUC_BIC  DIPLOMATA S/A  INDL. E COMERCIAL        085070068000108GONCALVES & TORTOLA S/A                 CAIXA POSTAL 142                        MARINGA                                 87001970PR3730100001050249760029417-06  14082012016CURITIBA            1609201200000000010400000CC                                                                                                                                                                                                                                                                                                                                                                                                         000003
1007421044581COBR_CAUC_BIC  GRANCARGA TRANSP. E GUINDASTES S/A.     035820448013548WHITE MARTINS GASES INDUSTRIAIS LT      AV. PASTOR MAR,126-SL 301 BL01,319      JOAO MONLEVADE                          20760005RJ373020000101408606002425      16082012014RIO DE JANEIRO      0310201200000000012167468CC                                                                                                                                                                                                                                                                                                                                                                                                         000004
1007421044581COBR_CAUC_BIC  GRANCARGA TRANSP. E GUINDASTES S/A.     035820448013548WHITE MARTINS GASES INDUSTRIAIS LT      AV. PASTOR MAR,126-SL 301 BL01,319      JOAO MONLEVADE                          20760005RJ373020000201408690002424      16082012014RIO DE JANEIRO      1709201200000000013243353CC                                                                                                                                                                                                                                                                                                                                                                                                         000005
1018421009783COBR_CAUC_BIC  EMBALO EMBALAGENS LOGICAS LTDA          006204131000258PEROLA DIST E LOGST. LTDA               AV. BRASIL SUL 5240,0                   ANAPOLIS                                75123390GO373030000102869211036923      20082012018GOIANIA             1809201200000000011613114CC                                                                                                                                                                                                                                                                                                                                                                                                         000006
1038421011812COBR_CAUC_BIC  ENERGY COML IMPORT E EXPORT LTDA        009363567000105PREMIX BRASIL RESINAS LTDA              AL ARAGUAIA,2044                        BARUERI                                 06455000SP373040000109809209001511      20082012007PAULISTA            0410201200000000013179631CC                                                                                                                                                                                                                                                                                                                                                                                                         000007
1038421011812COBR_CAUC_BIC  ENERGY COML IMPORT E EXPORT LTDA        009363567000105PREMIX BRASIL RESINAS LTDA              AL ARAGUAIA,2044                        BARUERI                                 06455000SP373040000209809217001512      20082012007PAULISTA            0410201200000000013179631CC                                                                                                                                                                                                                                                                                                                                                                                                         000008
1038421011812COBR_CAUC_BIC  ENERGY COML IMPORT E EXPORT LTDA        009363567000105PREMIX BRASIL RESINAS LTDA              AL ARAGUAIA,2044                        BARUERI                                 06455000SP373040000309809225001513      20082012007PAULISTA            0410201200000000013179631CC                                                                                                                                                                                                                                                                                                                                                                                                         000009
1038421011812COBR_CAUC_BIC  ENERGY COML IMPORT E EXPORT LTDA        009363567000105PREMIX BRASIL RESINAS LTDA              AL ARAGUAIA,2044                        BARUERI                                 06455000SP373040000409809233001514      20082012007PAULISTA            0410201200000000013179631CC                                                                                                                                                                                                                                                                                                                                                                                                         000010
1038421011812COBR_CAUC_BIC  ENERGY COML IMPORT E EXPORT LTDA        009363567000105PREMIX BRASIL RESINAS LTDA              AL ARAGUAIA,2044                        BARUERI                                 06455000SP373040000509809241001515      20082012007PAULISTA            0410201200000000013748123CC                                                                                                                                                                                                                                                                                                                                                                                                         000011
1038421011812COBR_CAUC_BIC  ENERGY COML IMPORT E EXPORT LTDA        009363567000105PREMIX BRASIL RESINAS LTDA              AL ARAGUAIA,2044                        BARUERI                                 06455000SP373040000609809250001516      20082012007PAULISTA            0410201200000000013748123CC                                                                                                                                                                                                                                                                                                                                                                                                         000012
1019421010259COBR_CAUC_BIC  L & S INTERBANK FOMENTO LTDA            019590579000118PRESENCA COMERCIAL LTDA                 R ALAGOAS 1029 SL 803                   BELO HORIZONTE                          30130160MG3730500001065437710845        16052012019BELO HORIZONTE      2409201200000000010234400CC                                                                                                                                                                                                                                                                                                                                                                                                         000013
1037421008368COBR_CAUC_COR  LOCOMOTIVA IND. E COM. DE TEXTEIS       062499934000177MARKA TEXTIL LTDA                       AV,DR. ADHEMAR DE BARROS,777-           GUARAREMA (SP)                          08900000SP373060000104542872000045496   20082012900BRADESCO S/A        2409201200000000010875000CC                                                                                                                                                                                                                                                                                                                                                                                                         000014
1048421000095COBR_CAUC_COR  ACUMULADORES AJAX LTDA                  003647568000197CASA DO INTERFONE LTDA                  AVE DEZESSETE N. 634                    ITUIUTABA                               38300132MG373310000100593876002691601   06082012900BRADESCO S/A        2509201200000000000027002CC                                                                                                                                                                                                                                                                                                                                                                                                         000015
1048421000095COBR_CAUC_BIC  ACUMULADORES AJAX LTDA                  008810537000129DE AGUIAR COMERCIO DE EQUIPAMENTOS      RUA MARECHAL CANDIDO RONDON N. 878      CASCAVEL                                85802130PR373320000100593868002691501   06082012016CURITIBA            2509201200000000000027025CC                                                                                                                                                                                                                                                                                                                                                                                                         000016
1048421000095COBR_CAUC_BIC  ACUMULADORES AJAX LTDA                  010799610000150LICIPAR LTDA ME                         R MAJOR ALBERTO P JORGE 213 CS04        CURITIBA                                80740270PR373330000100572607024089601   25062012016CURITIBA            2408201200000000000027380CC                                                                                                                                                                                                                                                                                                                                                                                                         000017
1048421000095COBR_CAUC_COR  ACUMULADORES AJAX LTDA                  007599680000150DANELUZ COMERCIO DE EQUIP ELETRONI      RUA TENENTE CAMARGO N. 277              FRANCISCO BELTR                         85605090PR373340000100593884002691901   06082012900BRADESCO S/A        2509201200000000000032402CC                                                                                                                                                                                                                                                                                                                                                                                                         000018
1048421000095COBR_CAUC_BIC  ACUMULADORES AJAX LTDA                  011806191000108REDE-SEG ARACAJU COMERCIO DE EQUIP      RUA FENELON SANTOS 579                  ARACAJU                                 49020350SE373350000100579601024107403   27062012045ARACAJU             2708201200000000000033194CC                                                                                                                                                                                                                                                                                                                                                                                                         000019
1048421000095COBR_CAUC_BIC  ACUMULADORES AJAX LTDA                  012464984000140TSEG TELECOM SEGURANCA ELETRONICA       RUA MARIA LOPES 63                      RIO DE JANEIRO                          21310050RJ373360000100570167002575704   21062012014RIO DE JANEIRO      0409201200000000000056557CC                                                                                                                                                                                                                                                                                                                                                                                                         000020
1048421000095COBR_CAUC_BIC  ACUMULADORES AJAX LTDA                  011980905000191INGATEC DISTRIBUIDORA DE EQUIPAMEN      AV CERRO AZUL N 1253 SALA 22 B          MARINGA                                 87010055PR373370000100579199024123003   29062012016CURITIBA            2808201200000000000064183CC                                                                                                                                                                                                                                                                                                                                                                                                         000021
1048421000095COBR_CAUC_BIC  ACUMULADORES AJAX LTDA                  005814992000104DISCOM COMERCIO E DISTRIBUICAO LTD      AVENIDA TANCREDO NEVES N. 969           SALVADOR                                41820021BA373380000100579784024118703   29062012013SALVADOR            2808201200000000000044160CC                                                                                                                                                                                                                                                                                                                                                                                                         000022
1048421000095COBR_CAUC_BIC  ACUMULADORES AJAX LTDA                  005814992000104DISCOM COMERCIO E DISTRIBUICAO LTD      AVENIDA TANCREDO NEVES N. 969           SALVADOR                                41820021BA373380000200579121024118704   29062012013SALVADOR            1209201200000000000044160CC                                                                                                                                                                                                                                                                                                                                                                                                         000023
1048421000095COBR_CAUC_COR  ACUMULADORES AJAX LTDA                  006163487000100PRODUSOM DO VALE DO SAO FRANCISCO       AV SANTOS DUMONT 1                      JUAZEIRO                                48903680BA373390000100574979024095103   26062012900BRADESCO S/A        2708201200000000000044160CC                                                                                                                                                                                                                                                                                                                                                                                                         000024
1048421000095COBR_CAUC_COR  ACUMULADORES AJAX LTDA                  006163487000100PRODUSOM DO VALE DO SAO FRANCISCO       AV SANTOS DUMONT 1                      JUAZEIRO                                48903680BA373390000200574987024095104   26062012900BRADESCO S/A        1009201200000000000044160CC                                                                                                                                                                                                                                                                                                                                                                                                         000025
1048421000095COBR_CAUC_BIC  ACUMULADORES AJAX LTDA                  000220867000152COMERCIAL BANDEIRANTES DE ELETRO L      AV T N. 2                               GOIANIA                                 74210010GO373400000100575444002589803   26062012018GOIANIA             2708201200000000000091022CC                                                                                                                                                                                                                                                                                                                                                                                                         000026
1048421000095COBR_CAUC_BIC  ACUMULADORES AJAX LTDA                  014698925000162DELPRETO E GUERRA DIST E QUIP DE S      RUA DOUTOR BERNARDINO DE CAMPOS 688     SAO CARLOS                              13574030SP373410000100575029024095303   26062012022RIBEIRAO PRETO      2708201200000000000023968CC                                                                                                                                                                                                                                                                                                                                                                                                         000027
1048421000095COBR_CAUC_BIC  ACUMULADORES AJAX LTDA                  014698925000162DELPRETO E GUERRA DIST E QUIP DE S      RUA DOUTOR BERNARDINO DE CAMPOS 688     SAO CARLOS                              13574030SP373410000200575037024095304   26062012022RIBEIRAO PRETO      1009201200000000000023968CC                                                                                                                                                                                                                                                                                                                                                                                                         000028
1048421000095COBR_CAUC_BIC  ACUMULADORES AJAX LTDA                  014698925000162DELPRETO E GUERRA DIST E QUIP DE S      RUA DOUTOR BERNARDINO DE CAMPOS 688     SAO CARLOS                              13574030SP373410000300575045024095305   26062012022RIBEIRAO PRETO      2409201200000000000023968CC                                                                                                                                                                                                                                                                                                                                                                                                         000029
1048421000095COBR_CAUC_BIC  ACUMULADORES AJAX LTDA                  014698925000162DELPRETO E GUERRA DIST E QUIP DE S      RUA DOUTOR BERNARDINO DE CAMPOS 688     SAO CARLOS                              13574030SP373410000400575053024095306   26062012022RIBEIRAO PRETO      0910201200000000000023968CC                                                                                                                                                                                                                                                                                                                                                                                                         000030
1048421000095COBR_CAUC_BIC  ACUMULADORES AJAX LTDA                  014698925000162DELPRETO E GUERRA DIST E QUIP DE S      RUA DOUTOR BERNARDINO DE CAMPOS 688     SAO CARLOS                              13574030SP373410000500575061024095307   26062012022RIBEIRAO PRETO      2410201200000000000024032CC                                                                                                                                                                                                                                                                                                                                                                                                         000031
1048421000095COBR_CAUC_BIC  ACUMULADORES AJAX LTDA                  002718023000161COMERCIAL DE SEGURANCA FRAZAO LTDA      AV NOSSA SENHORA DE FATIMA 2058         JOAO PESSOA                             58040380PB373420000100593931002691701   06082012043JOAO PESSOA         2509201200000000000128915CC                                                                                                                                                                                                                                                                                                                                                                                                         000032
1048421000095COBR_CAUC_BIC  ACUMULADORES AJAX LTDA                  013455004000106BS - SEG SISTEMAS ELETRONICOS LTDA      RUA VIRGILIO MALTA, 60                  BAURU                                   17014440SP37343000010057922924122402    03072012048AGENCIA BAURU       2708201200000000000044957CC                                                                                                                                                                                                                                                                                                                                                                                                         000033
1048421000095COBR_CAUC_BIC  ACUMULADORES AJAX LTDA                  013455004000106BS - SEG SISTEMAS ELETRONICOS LTDA      RUA VIRGILIO MALTA, 60                  BAURU                                   17014440SP37343000020057923724122403    03072012048AGENCIA BAURU       2609201200000000000044957CC                                                                                                                                                                                                                                                                                                                                                                                                         000034
1048421000095COBR_CAUC_BIC  ACUMULADORES AJAX LTDA                  013455004000106BS - SEG SISTEMAS ELETRONICOS LTDA      RUA VIRGILIO MALTA, 60                  BAURU                                   17014440SP37343000030057924524122404    03072012048AGENCIA BAURU       2710201200000000000044957CC                                                                                                                                                                                                                                                                                                                                                                                                         000035
1048421000095COBR_CAUC_BIC  ACUMULADORES AJAX LTDA                  010988466000109DPA DIST PORTOES AUTOMATIZADOS CAR      RUA DELMIRO GOUVEIA 942                 JUAZEIRO DO NOR                         63050220CE373440000100579431024139303   05072012005JUAZEIRO            0309201200000000000070656CC                                                                                                                                                                                                                                                                                                                                                                                                         000036
1048421000095COBR_CAUC_BIC  ACUMULADORES AJAX LTDA                  010988466000109DPA DIST PORTOES AUTOMATIZADOS CAR      RUA DELMIRO GOUVEIA 942                 JUAZEIRO DO NOR                         63050220CE373440000200579440024139304   05072012005JUAZEIRO            1809201200000000000070656CC                                                                                                                                                                                                                                                                                                                                                                                                         000037
1048421000095COBR_CAUC_BIC  ACUMULADORES AJAX LTDA                  010988466000109DPA DIST PORTOES AUTOMATIZADOS CAR      RUA DELMIRO GOUVEIA 942                 JUAZEIRO DO NOR                         63050220CE373440000300579458024139305   05072012005JUAZEIRO            0310201200000000000070656CC                                                                                                                                                                                                                                                                                                                                                                                                         000038
1048421000095COBR_CAUC_BIC  ACUMULADORES AJAX LTDA                  010988466000109DPA DIST PORTOES AUTOMATIZADOS CAR      RUA DELMIRO GOUVEIA 942                 JUAZEIRO DO NOR                         63050220CE373440000400579342024139401   05072012005JUAZEIRO            2408201200000000000045760CC                                                                                                                                                                                                                                                                                                                                                                                                         000039
1048421000095COBR_CAUC_BIC  ACUMULADORES AJAX LTDA                  001465881000189M R NUNES FEITOSA ME                    AV JOAQUIM RIBEIRO 795 803              TERESINA                                64001480PI373450000100559619002442601   04052012041TERESINA            1309201200000000000118720CC                                                                                                                                                                                                                                                                                                                                                                                                         000040
1048421000095COBR_CAUC_BIC  ACUMULADORES AJAX LTDA                  001465881000189M R NUNES FEITOSA ME                    AV JOAQUIM RIBEIRO 795 803              TERESINA                                64001480PI373450000200559601002442701   04052012041TERESINA            1309201200000000000068077CC                                                                                                                                                                                                                                                                                                                                                                                                         000041
1048421000095COBR_CAUC_BIC  ACUMULADORES AJAX LTDA                  001465881000189M R NUNES FEITOSA ME                    AV JOAQUIM RIBEIRO 795 803              TERESINA                                64001480PI373450000300559805023843401   04052012041TERESINA            1309201200000000000066239CC                                                                                                                                                                                                                                                                                                                                                                                                         000042
1048421000095COBR_CAUC_BIC  ACUMULADORES AJAX LTDA                  001465881000189M R NUNES FEITOSA ME                    AV JOAQUIM RIBEIRO 795 803              TERESINA                                64001480PI373450000400559830023843501   04052012041TERESINA            1309201200000000000036596CC                                                                                                                                                                                                                                                                                                                                                                                                         000043
1048421000095COBR_CAUC_BIC  ACUMULADORES AJAX LTDA                  013985890000180TELETOK COM DE MATERIAS P TELEFONI      RUA AMADO COUTINHO 397                  SALVADOR                                40285500BA373460000100586969024182402   13072012013SALVADOR            1109201200000000000101600CC                                                                                                                                                                                                                                                                                                                                                                                                         000044
1048421000095COBR_CAUC_BIC  ACUMULADORES AJAX LTDA                  013985890000180TELETOK COM DE MATERIAS P TELEFONI      RUA AMADO COUTINHO 397                  SALVADOR                                40285500BA373460000200586802024182403   13072012013SALVADOR            1110201200000000000101600CC                                                                                                                                                                                                                                                                                                                                                                                                         000045
1048421000095COBR_CAUC_BIC  ACUMULADORES AJAX LTDA                  013985890000180TELETOK COM DE MATERIAS P TELEFONI      RUA AMADO COUTINHO 397                  SALVADOR                                40285500BA373460000300586811024182404   13072012013SALVADOR            1211201200000000000101600CC                                                                                                                                                                                                                                                                                                                                                                                                         000046
1048421000095COBR_CAUC_BIC  ACUMULADORES AJAX LTDA                  007376540000113GEORGE ANTONIO NOGUEIRA ME              RUA JOSE CANDIDO DE MORAES 18           SAO LUIS                                65073830MA373470000100579059024095903   26062012042SAO LUIS            2708201200000000000052992CC                                                                                                                                                                                                                                                                                                                                                                                                         000047
1048421000095COBR_CAUC_BIC  ACUMULADORES AJAX LTDA                  007376540000113GEORGE ANTONIO NOGUEIRA ME              RUA JOSE CANDIDO DE MORAES 18           SAO LUIS                                65073830MA373470000200579067024095904   26062012042SAO LUIS            1009201200000000000052992CC                                                                                                                                                                                                                                                                                                                                                                                                         000048
1048421000095COBR_CAUC_BIC  ACUMULADORES AJAX LTDA                  007376540000113GEORGE ANTONIO NOGUEIRA ME              RUA JOSE CANDIDO DE MORAES 18           SAO LUIS                                65073830MA373470000300579075024095905   26062012042SAO LUIS            2409201200000000000052992CC                                                                                                                                                                                                                                                                                                                                                                                                         000049
1048421000095COBR_CAUC_BIC  ACUMULADORES AJAX LTDA                  007376540000113GEORGE ANTONIO NOGUEIRA ME              RUA JOSE CANDIDO DE MORAES 18           SAO LUIS                                65073830MA373470000400579377024139703   05072012042SAO LUIS            0309201200000000000052992CC                                                                                                                                                                                                                                                                                                                                                                                                         000050
1048421000095COBR_CAUC_BIC  ACUMULADORES AJAX LTDA                  007376540000113GEORGE ANTONIO NOGUEIRA ME              RUA JOSE CANDIDO DE MORAES 18           SAO LUIS                                65073830MA373470000500579385024139704   05072012042SAO LUIS            1809201200000000000052992CC                                                                                                                                                                                                                                                                                                                                                                                                         000051
1048421000095COBR_CAUC_BIC  ACUMULADORES AJAX LTDA                  007376540000113GEORGE ANTONIO NOGUEIRA ME              RUA JOSE CANDIDO DE MORAES 18           SAO LUIS                                65073830MA373470000600579393024139705   05072012042SAO LUIS            0310201200000000000052992CC                                                                                                                                                                                                                                                                                                                                                                                                         000052
1048421000095COBR_CAUC_BIC  ACUMULADORES AJAX LTDA                  007376540000113GEORGE ANTONIO NOGUEIRA ME              RUA JOSE CANDIDO DE MORAES 18           SAO LUIS                                65073830MA373470000700579407024139801   05072012042SAO LUIS            2408201200000000000034320CC                                                                                                                                                                                                                                                                                                                                                                                                         000053
1048421000095COBR_CAUC_COR  ACUMULADORES AJAX LTDA                  009317202000136JEFFERSON GONCALVES PEREIRA ME          RUA VEREADOR EUZEBINHO CABRAL 417       GOVERNADOR VALA                         35010260MG373480000100571112024060203   18062012900BRADESCO S/A        1709201200000000000212200CC                                                                                                                                                                                                                                                                                                                                                                                                         000054
1048421000095COBR_CAUC_COR  ACUMULADORES AJAX LTDA                  009317202000136JEFFERSON GONCALVES PEREIRA ME          RUA VEREADOR EUZEBINHO CABRAL 417       GOVERNADOR VALA                         35010260MG373480000200571104024060204   18062012900BRADESCO S/A        1610201200000000000212200CC                                                                                                                                                                                                                                                                                                                                                                                                         000055
1048421000095COBR_CAUC_BIC  ACUMULADORES AJAX LTDA                  002200238000196MERCOSAT COMPONENTES ELETRONICOS L      RUA SAO NICOLAU 903                     PORTO ALEGRE                            91030230RS373490000100560021024021503   06062012015PORTO ALEGRE        0409201200000000000216400CC                                                                                                                                                                                                                                                                                                                                                                                                         000056
1048421000095COBR_CAUC_BIC  ACUMULADORES AJAX LTDA                  002200238000196MERCOSAT COMPONENTES ELETRONICOS L      RUA SAO NICOLAU 903                     PORTO ALEGRE                            91030230RS373490000200560030024021504   06062012015PORTO ALEGRE        0410201200000000000216400CC                                                                                                                                                                                                                                                                                                                                                                                                         000057
1048421000095COBR_CAUC_COR  ACUMULADORES AJAX LTDA                  011026122000254SUDOESTE COMERCIO DE BATERIAS LTDA      AV DERALDO MENDES N. 425                VITORIA DA CONQ                         45051185BA373500000100530947023828403   02052012600HSBC BANK BRASIL    3008201200000000000234599CC                                                                                                                                                                                                                                                                                                                                                                                                         000058
1048421000095COBR_CAUC_COR  ACUMULADORES AJAX LTDA                  011026122000254SUDOESTE COMERCIO DE BATERIAS LTDA      AV DERALDO MENDES N. 425                VITORIA DA CONQ                         45051185BA373500000200530912023828503   02052012600HSBC BANK BRASIL    3008201200000000000227447CC                                                                                                                                                                                                                                                                                                                                                                                                         000059
1048421000095COBR_CAUC_BIC  ACUMULADORES AJAX LTDA                  004518084000100RCD INFORMATICA ME                      AV CORIFEU DE AZEVEDO MARQUES 3 597     SAO PAULO                               05339001SP373510000100586837002636101   13072012007PAULISTA            0309201200000000000084237CC                                                                                                                                                                                                                                                                                                                                                                                                         000060
1048421000095COBR_CAUC_BIC  ACUMULADORES AJAX LTDA                  004518084000100RCD INFORMATICA ME                      AV CORIFEU DE AZEVEDO MARQUES 3 597     SAO PAULO                               05339001SP373510000200573760024087403   22062012007PAULISTA            2009201200000000000044732CC                                                                                                                                                                                                                                                                                                                                                                                                         000061
1048421000095COBR_CAUC_BIC  ACUMULADORES AJAX LTDA                  004518084000100RCD INFORMATICA ME                      AV CORIFEU DE AZEVEDO MARQUES 3 597     SAO PAULO                               05339001SP373510000300586942024181102   13072012007PAULISTA            1109201200000000000177702CC                                                                                                                                                                                                                                                                                                                                                                                                         000062
1048421000095COBR_CAUC_BIC  ACUMULADORES AJAX LTDA                  004518084000100RCD INFORMATICA ME                      AV CORIFEU DE AZEVEDO MARQUES 3 597     SAO PAULO                               05339001SP373510000400586951024181103   13072012007PAULISTA            1110201200000000000177756CC                                                                                                                                                                                                                                                                                                                                                                                                         000063
1048421000095COBR_CAUC_BIC  ACUMULADORES AJAX LTDA                  004518084000100RCD INFORMATICA ME                      AV CORIFEU DE AZEVEDO MARQUES 3 597     SAO PAULO                               05339001SP373510000500586934024181201   13072012007PAULISTA            0309201200000000000073250CC                                                                                                                                                                                                                                                                                                                                                                                                         000064
1048421000095COBR_CAUC_COR  ACUMULADORES AJAX LTDA                  008181769000165MASTER COM E REPRESENTACAO DE BATE      RUA SAO PAULO 309 LETRA 1               CARUARU                                 55012000PE373520000100578885024077704   21062012600HSBC BANK BRASIL    2910201200000000000172060CC                                                                                                                                                                                                                                                                                                                                                                                                         000065
1048421000095COBR_CAUC_COR  ACUMULADORES AJAX LTDA                  008181769000165MASTER COM E REPRESENTACAO DE BATE      RUA SAO PAULO 309 LETRA 1               CARUARU                                 55012000PE373520000200578966024077804   21062012600HSBC BANK BRASIL    2910201200000000000243020CC                                                                                                                                                                                                                                                                                                                                                                                                         000066
1048421000095COBR_CAUC_COR  ACUMULADORES AJAX LTDA                  008181769000165MASTER COM E REPRESENTACAO DE BATE      RUA SAO PAULO 309 LETRA 1               CARUARU                                 55012000PE373520000300578931024077904   21062012600HSBC BANK BRASIL    2910201200000000000147447CC                                                                                                                                                                                                                                                                                                                                                                                                         000067
1048421000095COBR_CAUC_BIC  ACUMULADORES AJAX LTDA                  010682660000153WERNER & KNORST LTDA ME                 AV CEL FREDERICO LINCK N. 102 SALA 1    NOVO HAMBURGO                           93336001RS373530000100579717024118403   29062012015PORTO ALEGRE        2808201200000000000123608CC                                                                                                                                                                                                                                                                                                                                                                                                         000068
1048421000095COBR_CAUC_BIC  ACUMULADORES AJAX LTDA                  010682660000153WERNER & KNORST LTDA ME                 AV CEL FREDERICO LINCK N. 102 SALA 1    NOVO HAMBURGO                           93336001RS373530000200579725024118404   29062012015PORTO ALEGRE        1209201200000000000123608CC                                                                                                                                                                                                                                                                                                                                                                                                         000069
1048421000095COBR_CAUC_BIC  ACUMULADORES AJAX LTDA                  010682660000153WERNER & KNORST LTDA ME                 AV CEL FREDERICO LINCK N. 102 SALA 1    NOVO HAMBURGO                           93336001RS373530000300579733024118405   29062012015PORTO ALEGRE        2709201200000000000123608CC                                                                                                                                                                                                                                                                                                                                                                                                         000070
1048421000095COBR_CAUC_BIC  ACUMULADORES AJAX LTDA                  010682660000153WERNER & KNORST LTDA ME                 AV CEL FREDERICO LINCK N. 102 SALA 1    NOVO HAMBURGO                           93336001RS373530000400579741024118406   29062012015PORTO ALEGRE        1210201200000000000123608CC                                                                                                                                                                                                                                                                                                                                                                                                         000071
1048421000095COBR_CAUC_BIC  ACUMULADORES AJAX LTDA                  010682660000153WERNER & KNORST LTDA ME                 AV CEL FREDERICO LINCK N. 102 SALA 1    NOVO HAMBURGO                           93336001RS373530000500579687024118407   29062012015PORTO ALEGRE        2910201200000000000123952CC                                                                                                                                                                                                                                                                                                                                                                                                         000072
1048421000095COBR_CAUC_COR  ACUMULADORES AJAX LTDA                  004291115000133SEG MONTES COMERCIO DE EQUIPAMENTO      RUA JUCA SOUTO 23 A                     MONTES CLAROS                           39400202MG373540000100575321002597002   28062012900BRADESCO S/A        0609201200000000000064170CC                                                                                                                                                                                                                                                                                                                                                                                                         000073
1048421000095COBR_CAUC_COR  ACUMULADORES AJAX LTDA                  004291115000133SEG MONTES COMERCIO DE EQUIPAMENTO      RUA JUCA SOUTO 23 A                     MONTES CLAROS                           39400202MG373540000200575908024112703   28062012900BRADESCO S/A        2708201200000000000119838CC                                                                                                                                                                                                                                                                                                                                                                                                         000074
1048421000095COBR_CAUC_COR  ACUMULADORES AJAX LTDA                  004291115000133SEG MONTES COMERCIO DE EQUIPAMENTO      RUA JUCA SOUTO 23 A                     MONTES CLAROS                           39400202MG373540000300575916024112704   28062012900BRADESCO S/A        1109201200000000000119838CC                                                                                                                                                                                                                                                                                                                                                                                                         000075
1048421000095COBR_CAUC_COR  ACUMULADORES AJAX LTDA                  004291115000133SEG MONTES COMERCIO DE EQUIPAMENTO      RUA JUCA SOUTO 23 A                     MONTES CLAROS                           39400202MG373540000400575924024112705   28062012900BRADESCO S/A        2609201200000000000119838CC                                                                                                                                                                                                                                                                                                                                                                                                         000076
1048421000095COBR_CAUC_COR  ACUMULADORES AJAX LTDA                  004291115000133SEG MONTES COMERCIO DE EQUIPAMENTO      RUA JUCA SOUTO 23 A                     MONTES CLAROS                           39400202MG373540000500575932024112706   28062012900BRADESCO S/A        1110201200000000000119838CC                                                                                                                                                                                                                                                                                                                                                                                                         000077
1048421000095COBR_CAUC_COR  ACUMULADORES AJAX LTDA                  004291115000133SEG MONTES COMERCIO DE EQUIPAMENTO      RUA JUCA SOUTO 23 A                     MONTES CLAROS                           39400202MG373540000600579628024112707   28062012600BRADESCO S/A        2610201200000000000120172CC                                                                                                                                                                                                                                                                                                                                                                                                         000078
1048421000095COBR_CAUC_COR  ACUMULADORES AJAX LTDA                  004291115000133SEG MONTES COMERCIO DE EQUIPAMENTO      RUA JUCA SOUTO 23 A                     MONTES CLAROS                           39400202MG373540000700575339024112802   28062012900BRADESCO S/A        0609201200000000000055800CC                                                                                                                                                                                                                                                                                                                                                                                                         000079
1048421000095COBR_CAUC_COR  ACUMULADORES AJAX LTDA                  002621285000103AUTOMATIZA IND E COM DE EQUIP ELET      RUA DO ALBATROZ 35 TECNOPARK            PALHOCA                                 88137290SC373550000100571643002583303   22062012900BRADESCO S/A        2009201200000000000144268CC                                                                                                                                                                                                                                                                                                                                                                                                         000080
1048421000095COBR_CAUC_COR  ACUMULADORES AJAX LTDA                  002621285000103AUTOMATIZA IND E COM DE EQUIP ELET      RUA DO ALBATROZ 35 TECNOPARK            PALHOCA                                 88137290SC373550000200571635002583304   22062012900BRADESCO S/A        2210201200000000000144266CC                                                                                                                                                                                                                                                                                                                                                                                                         000081
1048421000095COBR_CAUC_COR  ACUMULADORES AJAX LTDA                  002621285000103AUTOMATIZA IND E COM DE EQUIP ELET      RUA DO ALBATROZ 35 TECNOPARK            PALHOCA                                 88137290SC373550000300576050002596802   28062012900BRADESCO S/A        2708201200000000000216401CC                                                                                                                                                                                                                                                                                                                                                                                                         000082
1048421000095COBR_CAUC_COR  ACUMULADORES AJAX LTDA                  002621285000103AUTOMATIZA IND E COM DE EQUIP ELET      RUA DO ALBATROZ 35 TECNOPARK            PALHOCA                                 88137290SC373550000400576068002596803   28062012900BRADESCO S/A        2609201200000000000216401CC                                                                                                                                                                                                                                                                                                                                                                                                         000083
1048421000095COBR_CAUC_COR  ACUMULADORES AJAX LTDA                  015089712000104JUAN GUSTAVO LOPES DE OLIVEIRA          AV APOLONIO SALES 500                   PAULO AFONSO                            48601200BA373560000100586829002636501   13072012900BRADESCO S/A        0309201200000000000128915CC                                                                                                                                                                                                                                                                                                                                                                                                         000084
1048421000095COBR_CAUC_COR  ACUMULADORES AJAX LTDA                  015089712000104JUAN GUSTAVO LOPES DE OLIVEIRA          AV APOLONIO SALES 500                   PAULO AFONSO                            48601200BA373560000200586888024181902   13072012900BRADESCO S/A        1109201200000000000216400CC                                                                                                                                                                                                                                                                                                                                                                                                         000085
1048421000095COBR_CAUC_COR  ACUMULADORES AJAX LTDA                  015089712000104JUAN GUSTAVO LOPES DE OLIVEIRA          AV APOLONIO SALES 500                   PAULO AFONSO                            48601200BA373560000300586896024181903   13072012900BRADESCO S/A        1110201200000000000216400CC                                                                                                                                                                                                                                                                                                                                                                                                         000086
1048421000095COBR_CAUC_COR  ACUMULADORES AJAX LTDA                  015089712000104JUAN GUSTAVO LOPES DE OLIVEIRA          AV APOLONIO SALES 500                   PAULO AFONSO                            48601200BA373560000400586900024181904   13072012900BRADESCO S/A        1211201200000000000216400CC                                                                                                                                                                                                                                                                                                                                                                                                         000087
1048421000095COBR_CAUC_COR  ACUMULADORES AJAX LTDA                  015089712000104JUAN GUSTAVO LOPES DE OLIVEIRA          AV APOLONIO SALES 500                   PAULO AFONSO                            48601200BA373560000500586918024182001   13072012900BRADESCO S/A        0309201200000000000112100CC                                                                                                                                                                                                                                                                                                                                                                                                         000088
1048421000095COBR_CAUC_BIC  ACUMULADORES AJAX LTDA                  008655890000181DISSEGEL DIST DE EQUIP DE SEG LTDA      RUA MAJOR GAMA 1260                     CUIABA                                  78020170MT373570000100575843024112303   28062012024CUIABA              2708201200000000000247215CC                                                                                                                                                                                                                                                                                                                                                                                                         000089
1048421000095COBR_CAUC_BIC  ACUMULADORES AJAX LTDA                  008655890000181DISSEGEL DIST DE EQUIP DE SEG LTDA      RUA MAJOR GAMA 1260                     CUIABA                                  78020170MT373570000200575851024112304   28062012024CUIABA              1109201200000000000247215CC                                                                                                                                                                                                                                                                                                                                                                                                         000090
1048421000095COBR_CAUC_BIC  ACUMULADORES AJAX LTDA                  008655890000181DISSEGEL DIST DE EQUIP DE SEG LTDA      RUA MAJOR GAMA 1260                     CUIABA                                  78020170MT373570000300575860024112305   28062012024CUIABA              2609201200000000000247215CC                                                                                                                                                                                                                                                                                                                                                                                                         000091
1048421000095COBR_CAUC_BIC  ACUMULADORES AJAX LTDA                  008655890000181DISSEGEL DIST DE EQUIP DE SEG LTDA      RUA MAJOR GAMA 1260                     CUIABA                                  78020170MT373570000400575878024112306   28062012024CUIABA              1110201200000000000247215CC                                                                                                                                                                                                                                                                                                                                                                                                         000092
1048421000095COBR_CAUC_BIC  ACUMULADORES AJAX LTDA                  009472954000171PEREIRA E GOMES PORTOES AUTOMATICO      QS 3 LOTE 3                             BRASILIA                                71953000DF373580000100568103024065803   19062012009BRASILIA            1709201200000000000700625CC                                                                                                                                                                                                                                                                                                                                                                                                         000093
1048421000095COBR_CAUC_BIC  ACUMULADORES AJAX LTDA                  009472954000171PEREIRA E GOMES PORTOES AUTOMATICO      QS 3 LOTE 3                             BRASILIA                                71953000DF373580000200568111024065804   19062012009BRASILIA            1710201200000000000700625CC                                                                                                                                                                                                                                                                                                                                                                                                         000094
1048421000095COBR_CAUC_BIC  ACUMULADORES AJAX LTDA                  007953456000115OXXO ACUMULADORES LTDA                  RUA P-16 N. 1.133 QD 114 LT 03         GOIANIA                                 74543040GO373590000100561052002553803   12062012018GOIANIA             1009201200000000000323819CC                                                                                                                                                                                                                                                                                                                                                                                                         000095
1048421000095COBR_CAUC_BIC  ACUMULADORES AJAX LTDA                  007953456000115OXXO ACUMULADORES LTDA                  RUA P-16 N. 1.133 QD 114 LT 03         GOIANIA                                 74543040GO373590000200561061002553804   12062012018GOIANIA             1010201200000000000323819CC                                                                                                                                                                                                                                                                                                                                                                                                         000096
1048421000095COBR_CAUC_BIC  ACUMULADORES AJAX LTDA                  007953456000115OXXO ACUMULADORES LTDA                  RUA P-16 N. 1.133 QD 114 LT 03         GOIANIA                                 74543040GO373590000300561079002553903   12062012018GOIANIA             1009201200000000000369012CC                                                                                                                                                                                                                                                                                                                                                                                                         000097
1048421000095COBR_CAUC_BIC  ACUMULADORES AJAX LTDA                  007953456000115OXXO ACUMULADORES LTDA                  RUA P-16 N. 1.133 QD 114 LT 03         GOIANIA                                 74543040GO373590000400561087002553904   12062012018GOIANIA             1010201200000000000369012CC                                                                                                                                                                                                                                                                                                                                                                                                         000098
1048421000095COBR_CAUC_BIC  ACUMULADORES AJAX LTDA                  007953456000115OXXO ACUMULADORES LTDA                  RUA P-16 N. 1.133 QD 114 LT 03         GOIANIA                                 74543040GO373590000500561036002554003   12062012018GOIANIA             1009201200000000000101037CC                                                                                                                                                                                                                                                                                                                                                                                                         000099
1048421000095COBR_CAUC_BIC  ACUMULADORES AJAX LTDA                  007953456000115OXXO ACUMULADORES LTDA                  RUA P-16 N. 1.133 QD 114 LT 03         GOIANIA                                 74543040GO373590000600561044002554004   12062012018GOIANIA             1010201200000000000101066CC                                                                                                                                                                                                                                                                                                                                                                                                         000100
1048421000095COBR_CAUC_BIC  ACUMULADORES AJAX LTDA                  001280745000114MARBAT COMERCIO DE BATERIAS LTDA M      TRAVESSA AMAPA 396                      ARACAJU                                 49080070SE373600000100569606002576901   21062012045ARACAJU             2708201200000000000736901CC                                                                                                                                                                                                                                                                                                                                                                                                         000101
1048421000095COBR_CAUC_BIC  ACUMULADORES AJAX LTDA                  001280745000114MARBAT COMERCIO DE BATERIAS LTDA M      TRAVESSA AMAPA 396                      ARACAJU                                 49080070SE373600000200569614002576902   21062012045ARACAJU             1709201200000000000736901CC                                                                                                                                                                                                                                                                                                                                                                                                         000102
1048421000095COBR_CAUC_BIC  ACUMULADORES AJAX LTDA                  001280745000114MARBAT COMERCIO DE BATERIAS LTDA M      TRAVESSA AMAPA 396                      ARACAJU                                 49080070SE373600000300569622002576903   21062012045ARACAJU             2409201200000000000736901CC                                                                                                                                                                                                                                                                                                                                                                                                         000103
1048421000095COBR_CAUC_BIC  ACUMULADORES AJAX LTDA                  010553657000130OMIL ACUMULADORES LTDA                  RUA P 16 N. 1133                        GOIANIA                                 74543040GO373610000100530874002430404   30042012018GOIANIA             2808201200000000000390926CC                                                                                                                                                                                                                                                                                                                                                                                                         000104
1048421000095COBR_CAUC_BIC  ACUMULADORES AJAX LTDA                  010553657000130OMIL ACUMULADORES LTDA                  RUA P 16 N. 1133                        GOIANIA                                 74543040GO373610000200586845002633404   13072012018GOIANIA             1211201200000000000200741CC                                                                                                                                                                                                                                                                                                                                                                                                         000105
1048421000095COBR_CAUC_BIC  ACUMULADORES AJAX LTDA                  010553657000130OMIL ACUMULADORES LTDA                  RUA P 16 N. 1133                        GOIANIA                                 74543040GO373610000300591989002666504   27072012018GOIANIA             2611201200000000000143183CC                                                                                                                                                                                                                                                                                                                                                                                                         000106
1048421000095COBR_CAUC_BIC  ACUMULADORES AJAX LTDA                  010553657000130OMIL ACUMULADORES LTDA                  RUA P 16 N. 1133                        GOIANIA                                 74543040GO373610000400591997002666603   27072012018GOIANIA             2510201200000000000497141CC                                                                                                                                                                                                                                                                                                                                                                                                         000107
1048421000095COBR_CAUC_BIC  ACUMULADORES AJAX LTDA                  010553657000130OMIL ACUMULADORES LTDA                  RUA P 16 N. 1133                        GOIANIA                                 74543040GO373610000500592004002666604   27072012018GOIANIA             2611201200000000000497141CC                                                                                                                                                                                                                                                                                                                                                                                                         000108
1048421000095COBR_CAUC_BIC  ACUMULADORES AJAX LTDA                  010553657000130OMIL ACUMULADORES LTDA                  RUA P 16 N. 1133                        GOIANIA                                 74543040GO373610000600561117024036103   12062012018GOIANIA             1010201200000000000319607CC                                                                                                                                                                                                                                                                                                                                                                                                         000109
1048421000095COBR_CAUC_BIC  ACUMULADORES AJAX LTDA                  010553657000130OMIL ACUMULADORES LTDA                  RUA P 16 N. 1133                        GOIANIA                                 74543040GO373610000700561095024036203   12062012018GOIANIA             1010201200000000000276090CC                                                                                                                                                                                                                                                                                                                                                                                                         000110
1048421000095COBR_CAUC_BIC  ACUMULADORES AJAX LTDA                  010553657000130OMIL ACUMULADORES LTDA                  RUA P 16 N. 1133                        GOIANIA                                 74543040GO373610000800586870024174603   13072012018GOIANIA             1211201200000000000153594CC                                                                                                                                                                                                                                                                                                                                                                                                         000111
1048421000095COBR_CAUC_BIC  ACUMULADORES AJAX LTDA                  010553657000130OMIL ACUMULADORES LTDA                  RUA P 16 N. 1133                        GOIANIA                                 74543040GO373610000900592080024235802   27072012018GOIANIA             2510201200000000000370899CC                                                                                                                                                                                                                                                                                                                                                                                                         000112
1048421000095COBR_CAUC_BIC  ACUMULADORES AJAX LTDA                  010553657000130OMIL ACUMULADORES LTDA                  RUA P 16 N. 1133                        GOIANIA                                 74543040GO373610001000592098024235803   27072012018GOIANIA             2611201200000000000370899CC                                                                                                                                                                                                                                                                                                                                                                                                         000113
1048421000095COBR_CAUC_BIC  ACUMULADORES AJAX LTDA                  012838570000134SHOP CFTV PECAS E ACESSORIO P/ APA      AV PRESIDENTE WENCESLAU BRAZ 2216       CURITIBA                                81010000PR373620000100575371024116202   28062012016CURITIBA            2708201200000000001697600CC                                                                                                                                                                                                                                                                                                                                                                                                         000114
1048421000095COBR_CAUC_BIC  ACUMULADORES AJAX LTDA                  012838570000134SHOP CFTV PECAS E ACESSORIO P/ APA      AV PRESIDENTE WENCESLAU BRAZ 2216       CURITIBA                                81010000PR373620000200575380024116203   28062012016CURITIBA            2609201200000000001697600CC                                                                                                                                                                                                                                                                                                                                                                                                         000115
1048421000095COBR_CAUC_BIC  ACUMULADORES AJAX LTDA                  007400193000117J G MONTEIRO DA SILVA ME                RODOVIA TRANSAMAZONICA S N KM 1,5 LOTE 4MARABA                                  68502700PA373630000100579563024141102   05072012050BELEM               0309201200000000000362056CC                                                                                                                                                                                                                                                                                                                                                                                                         000116
1048421000095COBR_CAUC_BIC  ACUMULADORES AJAX LTDA                  007400193000117J G MONTEIRO DA SILVA ME                RODOVIA TRANSAMAZONICA S N KM 1,5 LOTE 4MARABA                                  68502700PA373630000200579571024141103   05072012050BELEM               0310201200000000000362056CC                                                                                                                                                                                                                                                                                                                                                                                                         000117
1048421000095COBR_CAUC_BIC  ACUMULADORES AJAX LTDA                  007400193000117J G MONTEIRO DA SILVA ME                RODOVIA TRANSAMAZONICA S N KM 1,5 LOTE 4MARABA                                  68502700PA373630000300579504024141104   05072012050BELEM               0211201200000000000362056CC                                                                                                                                                                                                                                                                                                                                                                                                         000118
1048421000095COBR_CAUC_BIC  ACUMULADORES AJAX LTDA                  007400193000117J G MONTEIRO DA SILVA ME                RODOVIA TRANSAMAZONICA S N KM 1,5 LOTE 4MARABA                                  68502700PA373630000400579521024141302   05072012050BELEM               0309201200000000000182580CC                                                                                                                                                                                                                                                                                                                                                                                                         000119
1048421000095COBR_CAUC_BIC  ACUMULADORES AJAX LTDA                  007400193000117J G MONTEIRO DA SILVA ME                RODOVIA TRANSAMAZONICA S N KM 1,5 LOTE 4MARABA                                  68502700PA373630000500579539024141303   05072012050BELEM               0310201200000000000182580CC                                                                                                                                                                                                                                                                                                                                                                                                         000120
1048421000095COBR_CAUC_BIC  ACUMULADORES AJAX LTDA                  007400193000117J G MONTEIRO DA SILVA ME                RODOVIA TRANSAMAZONICA S N KM 1,5 LOTE 4MARABA                                  68502700PA373630000600579547024141304   05072012050BELEM               0211201200000000000182580CC                                                                                                                                                                                                                                                                                                                                                                                                         000121
1048421000095COBR_CAUC_BIC  ACUMULADORES AJAX LTDA                  007400193000117J G MONTEIRO DA SILVA ME                RODOVIA TRANSAMAZONICA S N KM 1,5 LOTE 4MARABA                                  68502700PA373630000700579474024141402   05072012050BELEM               0309201200000000000579259CC                                                                                                                                                                                                                                                                                                                                                                                                         000122
1048421000095COBR_CAUC_BIC  ACUMULADORES AJAX LTDA                  007400193000117J G MONTEIRO DA SILVA ME                RODOVIA TRANSAMAZONICA S N KM 1,5 LOTE 4MARABA                                  68502700PA373630000800579482024141403   05072012050BELEM               0310201200000000000579259CC                                                                                                                                                                                                                                                                                                                                                                                                         000123
1048421000095COBR_CAUC_BIC  ACUMULADORES AJAX LTDA                  007400193000117J G MONTEIRO DA SILVA ME                RODOVIA TRANSAMAZONICA S N KM 1,5 LOTE 4MARABA                                  68502700PA373630000900579491024141404   05072012050BELEM               0211201200000000000579259CC                                                                                                                                                                                                                                                                                                                                                                                                         000124
1048421000095COBR_CAUC_BIC  ACUMULADORES AJAX LTDA                  007400193000117J G MONTEIRO DA SILVA ME                RODOVIA TRANSAMAZONICA S N KM 1,5 LOTE 4MARABA                                  68502700PA373630001000579334024141501   05072012050BELEM               0310201200000000000157550CC                                                                                                                                                                                                                                                                                                                                                                                                         000125
1048421000095COBR_CAUC_BIC  ACUMULADORES AJAX LTDA                  013500324000130QUANTIKUS DISTRIBUIDORA LTDA            AV JOAQUIM MACHADO DE LIMA N 1230       JACAREI                                 12324325SP373640000100571597002583904   22062012007PAULISTA            0509201200000000000019071CC                                                                                                                                                                                                                                                                                                                                                                                                         000126
1048421000095COBR_CAUC_BIC  ACUMULADORES AJAX LTDA                  013500324000130QUANTIKUS DISTRIBUIDORA LTDA            AV JOAQUIM MACHADO DE LIMA N 1230       JACAREI                                 12324325SP373640000200571589002583905   22062012007PAULISTA            2009201200000000000019071CC                                                                                                                                                                                                                                                                                                                                                                                                         000127
1048421000095COBR_CAUC_BIC  ACUMULADORES AJAX LTDA                  013500324000130QUANTIKUS DISTRIBUIDORA LTDA            AV JOAQUIM MACHADO DE LIMA N 1230       JACAREI                                 12324325SP373640000300571571002583906   22062012007PAULISTA            0510201200000000000019071CC                                                                                                                                                                                                                                                                                                                                                                                                         000128
1048421000095COBR_CAUC_BIC  ACUMULADORES AJAX LTDA                  013500324000130QUANTIKUS DISTRIBUIDORA LTDA            AV JOAQUIM MACHADO DE LIMA N 1230       JACAREI                                 12324325SP373640000400571562002583907   22062012007PAULISTA            2210201200000000000019071CC                                                                                                                                                                                                                                                                                                                                                                                                         000129
1048421000095COBR_CAUC_BIC  ACUMULADORES AJAX LTDA                  013500324000130QUANTIKUS DISTRIBUIDORA LTDA            AV JOAQUIM MACHADO DE LIMA N 1230       JACAREI                                 12324325SP373640000500571511002584005   22062012007PAULISTA            0509201200000000000289184CC                                                                                                                                                                                                                                                                                                                                                                                                         000130
1048421000095COBR_CAUC_BIC  ACUMULADORES AJAX LTDA                  013500324000130QUANTIKUS DISTRIBUIDORA LTDA            AV JOAQUIM MACHADO DE LIMA N 1230       JACAREI                                 12324325SP373640000600571503002584006   22062012007PAULISTA            2009201200000000000289184CC                                                                                                                                                                                                                                                                                                                                                                                                         000131
1048421000095COBR_CAUC_BIC  ACUMULADORES AJAX LTDA                  013500324000130QUANTIKUS DISTRIBUIDORA LTDA            AV JOAQUIM MACHADO DE LIMA N 1230       JACAREI                                 12324325SP373640000700571490002584007   22062012007PAULISTA            0510201200000000000289184CC                                                                                                                                                                                                                                                                                                                                                                                                         000132
1048421000095COBR_CAUC_BIC  ACUMULADORES AJAX LTDA                  013500324000130QUANTIKUS DISTRIBUIDORA LTDA            AV JOAQUIM MACHADO DE LIMA N 1230       JACAREI                                 12324325SP373640000800571481002584008   22062012007PAULISTA            2210201200000000000289184CC                                                                                                                                                                                                                                                                                                                                                                                                         000133
1048421000095COBR_CAUC_BIC  ACUMULADORES AJAX LTDA                  013500324000130QUANTIKUS DISTRIBUIDORA LTDA            AV JOAQUIM MACHADO DE LIMA N 1230       JACAREI                                 12324325SP373640000900570957024088304   22062012007PAULISTA            0509201200000000000418023CC                                                                                                                                                                                                                                                                                                                                                                                                         000134
1048421000095COBR_CAUC_BIC  ACUMULADORES AJAX LTDA                  013500324000130QUANTIKUS DISTRIBUIDORA LTDA            AV JOAQUIM MACHADO DE LIMA N 1230       JACAREI                                 12324325SP373640001000570990024088305   22062012007PAULISTA            2009201200000000000418023CC                                                                                                                                                                                                                                                                                                                                                                                                         000135
1048421000095COBR_CAUC_BIC  ACUMULADORES AJAX LTDA                  013500324000130QUANTIKUS DISTRIBUIDORA LTDA            AV JOAQUIM MACHADO DE LIMA N 1230       JACAREI                                 12324325SP373640001100570949024088306   22062012007PAULISTA            0510201200000000000418023CC                                                                                                                                                                                                                                                                                                                                                                                                         000136
1048421000095COBR_CAUC_BIC  ACUMULADORES AJAX LTDA                  013500324000130QUANTIKUS DISTRIBUIDORA LTDA            AV JOAQUIM MACHADO DE LIMA N 1230       JACAREI                                 12324325SP373640001200570931024088307   22062012007PAULISTA            2210201200000000000418023CC                                                                                                                                                                                                                                                                                                                                                                                                         000137
1048421000095COBR_CAUC_BIC  ACUMULADORES AJAX LTDA                  013500324000130QUANTIKUS DISTRIBUIDORA LTDA            AV JOAQUIM MACHADO DE LIMA N 1230       JACAREI                                 12324325SP373640001300570892024088504   22062012007PAULISTA            0509201200000000000016583CC                                                                                                                                                                                                                                                                                                                                                                                                         000138
1048421000095COBR_CAUC_BIC  ACUMULADORES AJAX LTDA                  013500324000130QUANTIKUS DISTRIBUIDORA LTDA            AV JOAQUIM MACHADO DE LIMA N 1230       JACAREI                                 12324325SP373640001400570884024088505   22062012007PAULISTA            2009201200000000000016583CC                                                                                                                                                                                                                                                                                                                                                                                                         000139
1048421000095COBR_CAUC_BIC  ACUMULADORES AJAX LTDA                  013500324000130QUANTIKUS DISTRIBUIDORA LTDA            AV JOAQUIM MACHADO DE LIMA N 1230       JACAREI                                 12324325SP373640001500570876024088506   22062012007PAULISTA            0510201200000000000016583CC                                                                                                                                                                                                                                                                                                                                                                                                         000140
1048421000095COBR_CAUC_BIC  ACUMULADORES AJAX LTDA                  013500324000130QUANTIKUS DISTRIBUIDORA LTDA            AV JOAQUIM MACHADO DE LIMA N 1230       JACAREI                                 12324325SP373640001600570868024088507   22062012007PAULISTA            2210201200000000000016583CC                                                                                                                                                                                                                                                                                                                                                                                                         000141
1048421000095COBR_CAUC_BIC  ACUMULADORES AJAX LTDA                  013500324000130QUANTIKUS DISTRIBUIDORA LTDA            AV JOAQUIM MACHADO DE LIMA N 1230       JACAREI                                 12324325SP373640001700570825024088604   22062012007PAULISTA            0509201200000000000209599CC                                                                                                                                                                                                                                                                                                                                                                                                         000142
