0REMESSANOTIFICACAO ELETRONICA        99999999999999BICBANCO                                AV. PAULISTA                            1048      12.ANDAR  BELA VISTA                    SAO PAULO                     01310100SP1121739360CORTINHAL                               COORDENADOR                             23072012                                                                                                                                                                                                                                                                                                                                                                                      000001
1007421044581COBR_CAUC_BIC  GRANCARGA TRANSP. E GUINDASTES S/A.     001027335000166WOBBEN WINDPOWER IND.E COM.LTDA.        AV.FERNANDO STECCA,100                  SOROCABA                                18087149SP36680000010134918902345       20072012007PAULISTA            1508201200000000034496260CC                                                                                                                                                                                                                                                                                                                                                                                                         000002
1007421053378COBR_CAUC_COR  MEGGA TEC E COM DE MAQUINAS LTDA        006931598000119NOVA INJECAO SOB PRESSAO E COMERCI      RUA MARIA JOSE RODRIGUES,1365           CAMPO LIMPO PAU                         13236200SP3668100001013493836815-4-4    20072012800UNIBANCO S/A        0909201200000000012372250CC                                                                                                                                                                                                                                                                                                                                                                                                         000003
1007421043100COBR_CAUC_COR  MACROPORT INTERNACIONAL LTDA            012158862000207AMPLA COMERCIO, IMPORTACAO E EXPOR      AV. CEM, MOD 16,0                       SERRA                                   29161384ES366820000101348972312411      20072012800UNIBANCO S/A        2008201200000000011986704CC                                                                                                                                                                                                                                                                                                                                                                                                         000004
1014421023721COBR_CAUC_COR  VML COMERCIAL IMP E EXP LTDA            011978797000112OPENVIX DISTRIBUIDORA LTDA              TANCREDO NEVES, QUADRA 12, LOT,S/N      SERRA                                   29163267ES36683000010453529711286       20072012900BRADESCO S/A        1109201200000000016631817CC                                                                                                                                                                                                                                                                                                                                                                                                         000005
1007421060307COBR_CAUC_BIC  ROTHENBERG COMERCIO DE PERFUMES E C     027197888007597DUFRY DO BRASIL DUTY FREE SHOP LTD      R ESTRELA D OESTE 124                   GUARULHOS                               07140030SP366840000101349740RR4071540   19072012037GUARULHOS           2709201200000000012119425CC                                                                                                                                                                                                                                                                                                                                                                                                         000006
1049000000000DIR_CREDIT     COOP AGR MISTA URTIGENSE LTDA           088587357000240COOPERATIVA SANTA CLARA LTDA            EST JOSE CHIES 1637                     CARLOS BARBOSA                          95185000RS3668700001                                                                                                                                          011924078           300420120000021421            20072012000403Fornecimento de leite.                                                                                                                                                                                                                          002032115000193              000007
1008421002710DIR_CREDIT     OCS MIN E EMPREENDIMENTOS LTDA          034230979005418SUPERMIX CONCRETO S/A                   R PROF. JOSE VIEIRA DE MENDONçA, 1121   BELO HORIZONTE                          31310260MG3668900001                                                                                                                                          481026547           100120070000012817            20072012000404fornecimento de material produzido pela OCS-Mineração e EmpreendimentosLtda,a saber Brita 19mm,Brita 9,5mm e areia grossa de Brita,todos fornecidos e oferecidos em forma de tonelada.                                                          007323439000102              000008
1044421005221DIR_CREDIT     CNG CONSTRUTORA NOBREGA GOMES LTDA      070162904000107COOPERATIVA HABITACIONAL DOS SERV. E TRAPC PADRE JOAO MARIA, 74 - CIDADE ALTA   NATAL                                   59025290RN3669300001                                                                                                                                          011745759           121220060000019090S/N         31012012000416construção de um empreendimento habitacional denominado " residencial  esplanada dos jardins III, IV E V em parnamirim/rn.                                                                                                                      040766917000116              000009
1009421001996COBR_CAUC_COR  MEDICAL SHOP PROD.HOSPITALARES LTDA     000382069000127HOSPITAL LAGO SUL                       SHIS QI 7 BLOCO F COM. LOCAL SUL,0      BRASILIA                                71615570DF36695000010005492052959/1     10072012900BRADESCO S/A        0908201200000000000061363CC                                                                                                                                                                                                                                                                                                                                                                                                         000010
1009421001996COBR_CAUC_COR  MEDICAL SHOP PROD.HOSPITALARES LTDA     000382069000127HOSPITAL LAGO SUL                       SHIS QI 7 BLOCO F COM. LOCAL SUL,0      BRASILIA                                71615570DF36695000020005493852959/2     10072012900BRADESCO S/A        0809201200000000000061363CC                                                                                                                                                                                                                                                                                                                                                                                                         000011
1009421001996COBR_CAUC_COR  MEDICAL SHOP PROD.HOSPITALARES LTDA     000382069000127HOSPITAL LAGO SUL                       SHIS QI 7 BLOCO F COM. LOCAL SUL,0      BRASILIA                                71615570DF36695000030005494652959/3     10072012900BRADESCO S/A        2309201200000000000061364CC                                                                                                                                                                                                                                                                                                                                                                                                         000012
1009421001996COBR_CAUC_COR  MEDICAL SHOP PROD.HOSPITALARES LTDA     000382069000127HOSPITAL LAGO SUL                       SHIS QI 7 BLOCO F COM. LOCAL SUL,0      BRASILIA                                71615570DF36695000040005498952983/1     11072012900BRADESCO S/A        1008201200000000000125255CC                                                                                                                                                                                                                                                                                                                                                                                                         000013
1009421001996COBR_CAUC_COR  MEDICAL SHOP PROD.HOSPITALARES LTDA     000382069000127HOSPITAL LAGO SUL                       SHIS QI 7 BLOCO F COM. LOCAL SUL,0      BRASILIA                                71615570DF36695000050005496252983/2     11072012900BRADESCO S/A        0909201200000000000125255CC                                                                                                                                                                                                                                                                                                                                                                                                         000014
1009421001996COBR_CAUC_COR  MEDICAL SHOP PROD.HOSPITALARES LTDA     000382069000127HOSPITAL LAGO SUL                       SHIS QI 7 BLOCO F COM. LOCAL SUL,0      BRASILIA                                71615570DF36695000060005497152983/3     11072012900BRADESCO S/A        2409201200000000000125255CC                                                                                                                                                                                                                                                                                                                                                                                                         000015
1009421001996COBR_CAUC_COR  MEDICAL SHOP PROD.HOSPITALARES LTDA     000382069000127HOSPITAL LAGO SUL                       SHIS QI 7 BLOCO F COM. LOCAL SUL,0      BRASILIA                                71615570DF36695000070005502153087/1     18072012900BRADESCO S/A        1708201200000000000046667CC                                                                                                                                                                                                                                                                                                                                                                                                         000016
1009421001996COBR_CAUC_COR  MEDICAL SHOP PROD.HOSPITALARES LTDA     000382069000127HOSPITAL LAGO SUL                       SHIS QI 7 BLOCO F COM. LOCAL SUL,0      BRASILIA                                71615570DF36695000080005503953087/2     18072012900BRADESCO S/A        1609201200000000000046667CC                                                                                                                                                                                                                                                                                                                                                                                                         000017
1009421001996COBR_CAUC_COR  MEDICAL SHOP PROD.HOSPITALARES LTDA     000382069000127HOSPITAL LAGO SUL                       SHIS QI 7 BLOCO F COM. LOCAL SUL,0      BRASILIA                                71615570DF36695000090005504753087/3     18072012900BRADESCO S/A        0110201200000000000046666CC                                                                                                                                                                                                                                                                                                                                                                                                         000018
1009421001996COBR_CAUC_COR  MEDICAL SHOP PROD.HOSPITALARES LTDA     000382069000127HOSPITAL LAGO SUL                       SHIS QI 7 BLOCO F COM. LOCAL SUL,0      BRASILIA                                71615570DF36695000100005507153106/1     19072012900BRADESCO S/A        1808201200000000001108813CC                                                                                                                                                                                                                                                                                                                                                                                                         000019
1009421001996COBR_CAUC_COR  MEDICAL SHOP PROD.HOSPITALARES LTDA     000382069000127HOSPITAL LAGO SUL                       SHIS QI 7 BLOCO F COM. LOCAL SUL,0      BRASILIA                                71615570DF36695000110005508053106/2     19072012900BRADESCO S/A        1709201200000000001108813CC                                                                                                                                                                                                                                                                                                                                                                                                         000020
1009421001996COBR_CAUC_COR  MEDICAL SHOP PROD.HOSPITALARES LTDA     000382069000127HOSPITAL LAGO SUL                       SHIS QI 7 BLOCO F COM. LOCAL SUL,0      BRASILIA                                71615570DF36695000120005509853106/3     19072012900BRADESCO S/A        0210201200000000001108814CC                                                                                                                                                                                                                                                                                                                                                                                                         000021
1009421001996COBR_CAUC_COR  MEDICAL SHOP PROD.HOSPITALARES LTDA     008380701000610UNIMED NATAL - SOCIEDADE COOPERATI      AVENIDA ANTONIO BASILIO,3598            NATAL                                   59056500RN36696000010005467952806/1     27062012900BRADESCO S/A        2707201200000000001800000CC                                                                                                                                                                                                                                                                                                                                                                                                         000022
1009421001996COBR_CAUC_COR  MEDICAL SHOP PROD.HOSPITALARES LTDA     008380701000610UNIMED NATAL - SOCIEDADE COOPERATI      AVENIDA ANTONIO BASILIO,3598            NATAL                                   59056500RN366960000200054687813/1       27062012900BRADESCO S/A        2707201200000000001200000CC                                                                                                                                                                                                                                                                                                                                                                                                         000023
1009421001996COBR_CAUC_COR  MEDICAL SHOP PROD.HOSPITALARES LTDA     008380701000610UNIMED NATAL - SOCIEDADE COOPERATI      AVENIDA ANTONIO BASILIO,3598            NATAL                                   59056500RN366960000300054695814/1       27062012900BRADESCO S/A        2707201200000000001249410CC                                                                                                                                                                                                                                                                                                                                                                                                         000024
1009421001996COBR_CAUC_COR  MEDICAL SHOP PROD.HOSPITALARES LTDA     000025841000153HOSPITAL SANTA LUCIA S/A                SHLS QD 716 CONJUNTO C,0                BRASILIA                                70390700DF36697000010005458052407/1     30052012900BRADESCO S/A        2807201200000000003500000CC                                                                                                                                                                                                                                                                                                                                                                                                         000025
1009421001996COBR_CAUC_COR  MEDICAL SHOP PROD.HOSPITALARES LTDA     000025841000153HOSPITAL SANTA LUCIA S/A                SHLS QD 716 CONJUNTO C,0                BRASILIA                                70390700DF36697000020005501253088/1     18072012900BRADESCO S/A        1609201200000000000698420CC                                                                                                                                                                                                                                                                                                                                                                                                         000026
1009421001996COBR_CAUC_COR  MEDICAL SHOP PROD.HOSPITALARES LTDA     000025841000153HOSPITAL SANTA LUCIA S/A                SHLS QD 716 CONJUNTO C,0                BRASILIA                                70390700DF36697000030005505553093/1     19072012900BRADESCO S/A        1709201200000000000300000CC                                                                                                                                                                                                                                                                                                                                                                                                         000027
1009421001996COBR_CAUC_COR  MEDICAL SHOP PROD.HOSPITALARES LTDA     000025841000153HOSPITAL SANTA LUCIA S/A                SHLS QD 716 CONJUNTO C,0                BRASILIA                                70390700DF36697000040005510153107/1     20072012900BRADESCO S/A        1709201200000000001400000CC                                                                                                                                                                                                                                                                                                                                                                                                         000028
1007421045766COBR_CAUC_COR  EVER ELETRIC A IND E COM VEIC LTDA      012259991000100PARQUE VEICULOS GUANHAES LTDA           ROD. BR 120,2000                        GUANHAES                                39740000MG36698000010134924325972       20072012800UNIBANCO S/A        2008201200000000003526000CC                                                                                                                                                                                                                                                                                                                                                                                                         000029
1007421045766COBR_CAUC_BIC  EVER ELETRIC A IND E COM VEIC LTDA      001913794000147NCA COMERCIO DE VEICULOS LTDA           AV. GUARULHOS,1971                      GUARULHOS                               07025000SP36699000010134923525651       20072012037GUARULHOS           2008201200000000004498200CC                                                                                                                                                                                                                                                                                                                                                                                                         000030
9000013                                                                                                                                                                                                                                                                                                                                                                                                                                                                                                                                                                                                                                                                                                               000031
