0REMESSANOTIFICACAO ELETRONICA        99999999999999BICBANCO                                AV. PAULISTA                            1048      12.ANDAR  BELA VISTA                    SAO PAULO                     01310100SP1121739360CORTINHAL                               COORDENADOR                             18032013                                                                                                                                                                                                                                                                                                                                                                                      000001
1041421009567DIR_CREDIT     CARVALHO E FERNANDES LTDA               062895230000113CREDI SHOP                              AV FREI SERAFIM, 2648                   TERESINA-PI                             64001020PI4089900001                                                                                                                                          012152540           070220130000023587            14032013000403créditos provenientes de vendas de mercadorias nas Lojas do Carvalho e Fernandes LTDA, através do cartão Credi Shop S/A.                                                                                                                        011596442000169              000002
1022421006723DIR_CREDIT     FERRARI AGROINDUSTRIA S/A               061149589000189COOP.DE PRODS DE CANA-DE-AÇÚCAR,AÇ E ALCAV. PAULISTA, 287 2. ANDAR              SãO PAULO                               01311000SP4090000001                                                                                                                                          012123464           040520090000015973DEJR-2770/2001022013017002Repasse pela COOPERATIVA de 6% do saldo líquido credor da conta        movimento disponibilidade da USINA, no período compreendido entre 16/11/2011   até 30/11/2012 e 3% entre 01/12/2012 até 30/11/2012.                                      054846951000105              000003
1046421000145COBR_CAUC_BIC  KOMLOG IMPORTACAO LTDA                  093015006001438COMPANHIA ZAFFARI COMERCIO E INDUS      AV. PLINIO BRASIL MILANO, 1000 5º ANDAR PORTO ALEGRE                            90520000RS409120000101816148007775-     06032013015PORTO ALEGRE        1004201300000000021283990CC                                                                                                                                                                                                                                                                                                                                                                                                         000004
1018421034834COBR_CAUC_BIC  LACEL LATICINIOS CERES LTDA             004180523000118CARVALHO ATACADO DE ALIMENTOS LTDA      AV DEPUTADO PAULO FERRAZ, 4888          TERESINA                                64076130PI409080000103124294022713      14032013041TERESINA            1305201300000000013365000CC                                                                                                                                                                                                                                                                                                                                                                                                         000005
1018421034834COBR_CAUC_BIC  LACEL LATICINIOS CERES LTDA             011596442004237CARVALHO & FERNANDES LTDA               AV.DEPUTADO PAULO FERRAZ, 4888 GALPAO 04TERESINA                                64078820PI409090000103124308022708      14032013041TERESINA            1305201300000000021000000CC                                                                                                                                                                                                                                                                                                                                                                                                         000006
1016421004260COBR_CAUC_COR  RODOLATINA LOGISTICA S/A                011673228000169NAVITRUCKS COMERCIO E CAMINHOES LT      RODOVIA BR-116 ,19470                   CURITIBA                                83006970PR4092600001000687201799        15012013900BRADESCO S/A        0204201300000000003000000CC                                                                                                                                                                                                                                                                                                                                                                                                         000007
1016421004260COBR_CAUC_COR  RODOLATINA LOGISTICA S/A                011673228000169NAVITRUCKS COMERCIO E CAMINHOES LT      RODOVIA BR-116 ,19470                   CURITIBA                                83006970PR4092600002000689591954        01022013900BRADESCO S/A        1903201300000000002136296CC                                                                                                                                                                                                                                                                                                                                                                                                         000008
1016421004260COBR_CAUC_COR  RODOLATINA LOGISTICA S/A                011673228000169NAVITRUCKS COMERCIO E CAMINHOES LT      RODOVIA BR-116 ,19470                   CURITIBA                                83006970PR4092600003000689671955        01022013900BRADESCO S/A        2103201300000000001899410CC                                                                                                                                                                                                                                                                                                                                                                                                         000009
1016421004260COBR_CAUC_COR  RODOLATINA LOGISTICA S/A                011673228000169NAVITRUCKS COMERCIO E CAMINHOES LT      RODOVIA BR-116 ,19470                   CURITIBA                                83006970PR4092600004000689751956        01022013900BRADESCO S/A        0404201300000000001374900CC                                                                                                                                                                                                                                                                                                                                                                                                         000010
1016421004260COBR_CAUC_COR  RODOLATINA LOGISTICA S/A                011673228000169NAVITRUCKS COMERCIO E CAMINHOES LT      RODOVIA BR-116 ,19470                   CURITIBA                                83006970PR4092600005000689831957        04022013900BRADESCO S/A        0604201300000000001385743CC                                                                                                                                                                                                                                                                                                                                                                                                         000011
1016421004260COBR_CAUC_COR  RODOLATINA LOGISTICA S/A                011673228000169NAVITRUCKS COMERCIO E CAMINHOES LT      RODOVIA BR-116 ,19470                   CURITIBA                                83006970PR4092600006000689911958        01022013900BRADESCO S/A        0804201300000000001624436CC                                                                                                                                                                                                                                                                                                                                                                                                         000012
1016421004260COBR_CAUC_COR  RODOLATINA LOGISTICA S/A                011673228000169NAVITRUCKS COMERCIO E CAMINHOES LT      RODOVIA BR-116 ,19470                   CURITIBA                                83006970PR4092600007000690681978        04022013900BRADESCO S/A        1004201300000000001909017CC                                                                                                                                                                                                                                                                                                                                                                                                         000013
1016421004260COBR_CAUC_COR  RODOLATINA LOGISTICA S/A                011673228000169NAVITRUCKS COMERCIO E CAMINHOES LT      RODOVIA BR-116 ,19470                   CURITIBA                                83006970PR4092600008000690761979        04022013900BRADESCO S/A        1204201300000000001363847CC                                                                                                                                                                                                                                                                                                                                                                                                         000014
1016421004260COBR_CAUC_COR  RODOLATINA LOGISTICA S/A                012467616000156KUHNEN TRANSPORTES LTDA                 RUA PREFEITO SAMUEL MILEO 763           CURITIBA                                81920110PR4092800001000687541793        15012013900BRADESCO S/A        2103201300000000001602456CC                                                                                                                                                                                                                                                                                                                                                                                                         000015
1016421004260COBR_CAUC_COR  RODOLATINA LOGISTICA S/A                012467616000156KUHNEN TRANSPORTES LTDA                 RUA PREFEITO SAMUEL MILEO 763           CURITIBA                                81920110PR4092800002000688431943        01022013900BRADESCO S/A        1903201300000000002088345CC                                                                                                                                                                                                                                                                                                                                                                                                         000016
1016421004260COBR_CAUC_COR  RODOLATINA LOGISTICA S/A                012467616000156KUHNEN TRANSPORTES LTDA                 RUA PREFEITO SAMUEL MILEO 763           CURITIBA                                81920110PR4092800003000688511944        01022013900BRADESCO S/A        2103201300000000001347922CC                                                                                                                                                                                                                                                                                                                                                                                                         000017
1016421004260COBR_CAUC_COR  RODOLATINA LOGISTICA S/A                012467616000156KUHNEN TRANSPORTES LTDA                 RUA PREFEITO SAMUEL MILEO 763           CURITIBA                                81920110PR4092800004000688601945        01022013900BRADESCO S/A        0404201300000000002025102CC                                                                                                                                                                                                                                                                                                                                                                                                         000018
1016421004260COBR_CAUC_COR  RODOLATINA LOGISTICA S/A                012467616000156KUHNEN TRANSPORTES LTDA                 RUA PREFEITO SAMUEL MILEO 763           CURITIBA                                81920110PR4092800005000688781946        01022013900BRADESCO S/A        0604201300000000001881237CC                                                                                                                                                                                                                                                                                                                                                                                                         000019
1016421004260COBR_CAUC_COR  RODOLATINA LOGISTICA S/A                012467616000156KUHNEN TRANSPORTES LTDA                 RUA PREFEITO SAMUEL MILEO 763           CURITIBA                                81920110PR4092800006000688861947        01022013900BRADESCO S/A        0804201300000000001923174CC                                                                                                                                                                                                                                                                                                                                                                                                         000020
1016421004260COBR_CAUC_COR  RODOLATINA LOGISTICA S/A                012467616000156KUHNEN TRANSPORTES LTDA                 RUA PREFEITO SAMUEL MILEO 763           CURITIBA                                81920110PR4092800007000688941948        01022013900BRADESCO S/A        0804201300000000001701862CC                                                                                                                                                                                                                                                                                                                                                                                                         000021
1016421004260COBR_CAUC_COR  RODOLATINA LOGISTICA S/A                012467616000156KUHNEN TRANSPORTES LTDA                 RUA PREFEITO SAMUEL MILEO 763           CURITIBA                                81920110PR4092800008000690091972        04022013900BRADESCO S/A        1004201300000000001474508CC                                                                                                                                                                                                                                                                                                                                                                                                         000022
1016421004260COBR_CAUC_COR  RODOLATINA LOGISTICA S/A                012467616000156KUHNEN TRANSPORTES LTDA                 RUA PREFEITO SAMUEL MILEO 763           CURITIBA                                81920110PR4092800009000690171973        04022013900BRADESCO S/A        1204201300000000001910690CC                                                                                                                                                                                                                                                                                                                                                                                                         000023
1016421004260COBR_CAUC_COR  RODOLATINA LOGISTICA S/A                012467616000156KUHNEN TRANSPORTES LTDA                 RUA PREFEITO SAMUEL MILEO 763           CURITIBA                                81920110PR4092800010000690251974        04022013900BRADESCO S/A        1404201300000000001613855CC                                                                                                                                                                                                                                                                                                                                                                                                         000024
1016421004260COBR_CAUC_COR  RODOLATINA LOGISTICA S/A                012467616000156KUHNEN TRANSPORTES LTDA                 RUA PREFEITO SAMUEL MILEO 763           CURITIBA                                81920110PR4092800011000690922140/F      04032013900BRADESCO S/A        1704201300000000001027049CC                                                                                                                                                                                                                                                                                                                                                                                                         000025
1016421004260COBR_CAUC_COR  RODOLATINA LOGISTICA S/A                012467616000156KUHNEN TRANSPORTES LTDA                 RUA PREFEITO SAMUEL MILEO 763           CURITIBA                                81920110PR4092800012000691142180        08032013900BRADESCO S/A        1804201300000000001094543CC                                                                                                                                                                                                                                                                                                                                                                                                         000026
1016421004260COBR_CAUC_COR  RODOLATINA LOGISTICA S/A                004793342000167AMERILOG LOG PART E EMPREE LTDA         R ESTEVAO BAYAO 226 APTO 161            CURITIBA                                80240260PR4092700001000689081949        01022013900BRADESCO S/A        1903201300000000002414464CC                                                                                                                                                                                                                                                                                                                                                                                                         000027
1016421004260COBR_CAUC_COR  RODOLATINA LOGISTICA S/A                004793342000167AMERILOG LOG PART E EMPREE LTDA         R ESTEVAO BAYAO 226 APTO 161            CURITIBA                                80240260PR4092700002000689161950        01022013900BRADESCO S/A        2103201300000000002433847CC                                                                                                                                                                                                                                                                                                                                                                                                         000028
1016421004260COBR_CAUC_COR  RODOLATINA LOGISTICA S/A                004793342000167AMERILOG LOG PART E EMPREE LTDA         R ESTEVAO BAYAO 226 APTO 161            CURITIBA                                80240260PR4092700003000689241951        01022013900BRADESCO S/A        0404201300000000002867642CC                                                                                                                                                                                                                                                                                                                                                                                                         000029
1016421004260COBR_CAUC_COR  RODOLATINA LOGISTICA S/A                004793342000167AMERILOG LOG PART E EMPREE LTDA         R ESTEVAO BAYAO 226 APTO 161            CURITIBA                                80240260PR4092700004000689321952        01022013900BRADESCO S/A        0604201300000000001458400CC                                                                                                                                                                                                                                                                                                                                                                                                         000030
1016421004260COBR_CAUC_COR  RODOLATINA LOGISTICA S/A                004793342000167AMERILOG LOG PART E EMPREE LTDA         R ESTEVAO BAYAO 226 APTO 161            CURITIBA                                80240260PR4092700005000689411953        01022013900BRADESCO S/A        0804201300000000001470885CC                                                                                                                                                                                                                                                                                                                                                                                                         000031
1016421004260COBR_CAUC_COR  RODOLATINA LOGISTICA S/A                004793342000167AMERILOG LOG PART E EMPREE LTDA         R ESTEVAO BAYAO 226 APTO 161            CURITIBA                                80240260PR4092700006000690331975        04022013900BRADESCO S/A        1004201300000000001587287CC                                                                                                                                                                                                                                                                                                                                                                                                         000032
1016421004260COBR_CAUC_COR  RODOLATINA LOGISTICA S/A                004793342000167AMERILOG LOG PART E EMPREE LTDA         R ESTEVAO BAYAO 226 APTO 161            CURITIBA                                80240260PR4092700007000690411976        04022013900BRADESCO S/A        1204201300000000001576963CC                                                                                                                                                                                                                                                                                                                                                                                                         000033
1016421004260COBR_CAUC_COR  RODOLATINA LOGISTICA S/A                004793342000167AMERILOG LOG PART E EMPREE LTDA         R ESTEVAO BAYAO 226 APTO 161            CURITIBA                                80240260PR4092700008000690501977        04022013900BRADESCO S/A        1404201300000000001611355CC                                                                                                                                                                                                                                                                                                                                                                                                         000034
1016421004260COBR_CAUC_COR  RODOLATINA LOGISTICA S/A                004793342000167AMERILOG LOG PART E EMPREE LTDA         R ESTEVAO BAYAO 226 APTO 161            CURITIBA                                80240260PR4092700009000690842139/F      04032013900BRADESCO S/A        1704201300000000001630219CC                                                                                                                                                                                                                                                                                                                                                                                                         000035
1016421004260COBR_CAUC_COR  RODOLATINA LOGISTICA S/A                004793342000167AMERILOG LOG PART E EMPREE LTDA         R ESTEVAO BAYAO 226 APTO 161            CURITIBA                                80240260PR4092700010000691062179        08032013900BRADESCO S/A        1804201300000000001022874CC                                                                                                                                                                                                                                                                                                                                                                                                         000036
1008421026911COBR_CAUC_COR  SANTANA TEXTIL S/A                      011146466000116FLORIPA IND E COM DE ROUPAS LTDA        ESTRADA DO MARGARCA 109 LOJA D          RIO DE JANEIRO                          23035380RJ409060000100575889174817*     14032013900BRADESCO S/A        1206201300000000010646286CC                                                                                                                                                                                                                                                                                                                                                                                                         000037
1008421026911COBR_CAUC_COR  SANTANA TEXTIL S/A                      064565385000117BIVIK CONFECCOES LTDA                   RUA DA JUTA S/N                         SAO PAULO                               03010010SP409070000100575251101827*     14032013900BRADESCO S/A        2904201300000000010170589CC                                                                                                                                                                                                                                                                                                                                                                                                         000038
1007421034080COBR_CAUC_BIC  SIDMEX INTERNACIONAL LTDA               011898766000151INNOVATTO COMERCIO, IMPORTACAO E E      CASA, DOS,4285                          SAO BERNARDO DO                         09840000SP409130000101776958139912      14032013038ABC                 0204201300000000016777000CC                                                                                                                                                                                                                                                                                                                                                                                                         000039
1031421009993COBR_CAUC_BIC  VAMOL INDUSTRIA MOVELEIRA LTDA          007105743001651POLO DO ELETRO COMERCIAL DE MOVEIS      CENTRAL 3,401                           MARACANAU                               61901410CE40910000010519923789525-1/1   14032013003CENTRO              1504201300000000010858942CC                                                                                                                                                                                                                                                                                                                                                                                                         000040
1031421009993COBR_CAUC_COR  VAMOL INDUSTRIA MOVELEIRA LTDA          030689848000130LOJAS SIPOLATTI IND. COM. LTDA          RUA JOAO SIPOLATTI,1                    CARIACICA                               29141152ES40911000010519924589502-1/1   14032013800UNIBANCO S/A        0805201300000000010887547CC                                                                                                                                                                                                                                                                                                                                                                                                         000041
1043421002054DIR_CREDIT     VIJAI ELETRICA DO BRASIL LTDA           015139629000194COELBA - CIA ELETRICIDADE EST DA BAHIA  AVENIDA EDGAR SANTOS, 300-NARANDIBA     SALVADOR                                41181900BA4092900001                                                                                                                                          002200212           0204201200000214984600023884  28022013013801Trata-se de fornecimento dos materiais descritos na tabela do contrato 1.1, onde temos diversos tipos de transformadores.                                                                                                                       008268683000174              000042
1043421002054DIR_CREDIT     VIJAI ELETRICA DO BRASIL LTDA           015139629000194COELBA - CIA ELETRICIDADE EST DA BAHIA  AVENIDA EDGAR SANTOS, 300-NARANDIBA     SALVADOR                                41181900BA4093300001                                                                                                                                          481011416           0204201200000214984600023884  27022013000404Trata-se de fornecimento dos materiais descritos na tabela do contrato 1.1, onde temos diversos tipos de transformadores.                                                                                                                       008268683000174              000043
1043421002054DIR_CREDIT     VIJAI ELETRICA DO BRASIL LTDA           015139629000194COELBA - CIA ELETRICIDADE EST DA BAHIA  AVENIDA EDGAR SANTOS, 300-NARANDIBA     SALVADOR                                41181900BA4093200001                                                                                                                                          481011122           0204201200000214984600023884  21112012000404Trata-se de fornecimento dos materiais descritos na tabela do contrato 1.1, onde temos diversos tipos de transformadores.                                                                                                                       008268683000174              000044
1043421002054DIR_CREDIT     VIJAI ELETRICA DO BRASIL LTDA           015139629000194COELBA - CIA ELETRICIDADE EST DA BAHIA  AVENIDA EDGAR SANTOS, 300-NARANDIBA     SALVADOR                                41181900BA4093100001                                                                                                                                          002360212           0204201200000214984600023884  28022013013801Trata-se de fornecimento dos materiais descritos na tabela do contrato 1.1, onde temos diversos tipos de transformadores.                                                                                                                       008268683000174              000045
1043421002054DIR_CREDIT     VIJAI ELETRICA DO BRASIL LTDA           015139629000194COELBA - CIA ELETRICIDADE EST DA BAHIA  AVENIDA EDGAR SANTOS, 300-NARANDIBA     SALVADOR                                41181900BA4093000001                                                                                                                                          002260212           0204201200000214984600023884  28022013013801Trata-se de fornecimento dos materiais descritos na tabela do contrato 1.1, onde temos diversos tipos de transformadores.                                                                                                                       008268683000174              000046
9000018                                                                                                                                                                                                                                                                                                                                                                                                                                                                                                                                                                                                                                                                                                               000047
