0REMESSANOTIFICACAO ELETRONICA        99999999999999BICBANCO                                AV. PAULISTA                            1048      12.ANDAR  BELA VISTA                    SAO PAULO                     01310100SP1121739360CORTINHAL                               COORDENADOR                             03042013                                                                                                                                                                                                                                                                                                                                                                                      000001
1021420930887COBR_CAUC_BIC  DEDINI S/A INDUSTRIAS DE BASE           075717355001177USINA DE ACUCAR SANTA TEREZINHA LT      AV MARCELO MESSIAS BUSIQUIA 847 PQ INDUSMARINGA                                 87065006PR411960000106393850188771-9-9  27032013016CURITIBA            3004201300000000015758942CC                                                                                                                                                                                                                                                                                                                                                                                                         000002
1021420930887COBR_CAUC_BIC  DEDINI S/A INDUSTRIAS DE BASE           075717355001177USINA DE ACUCAR SANTA TEREZINHA LT      AV MARCELO MESSIAS BUSIQUIA 847 PQ INDUSMARINGA                                 87065006PR411960000206393868188354-9-9  27032013016CURITIBA            3004201300000000013708746CC                                                                                                                                                                                                                                                                                                                                                                                                         000003
1021420930887COBR_CAUC_BIC  DEDINI S/A INDUSTRIAS DE BASE           075717355001177USINA DE ACUCAR SANTA TEREZINHA LT      AV MARCELO MESSIAS BUSIQUIA 847 PQ INDUSMARINGA                                 87065006PR411960000306393914188352-9-9  27032013016CURITIBA            3004201300000000025367451CC                                                                                                                                                                                                                                                                                                                                                                                                         000004
1021420930887COBR_CAUC_BIC  DEDINI S/A INDUSTRIAS DE BASE           075717355001177USINA DE ACUCAR SANTA TEREZINHA LT      AV MARCELO MESSIAS BUSIQUIA 847 PQ INDUSMARINGA                                 87065006PR411960000406393931188612-9-9  27032013016CURITIBA            3004201300000000019863725CC                                                                                                                                                                                                                                                                                                                                                                                                         000005
1021420930887COBR_CAUC_BIC  DEDINI S/A INDUSTRIAS DE BASE           075717355001177USINA DE ACUCAR SANTA TEREZINHA LT      AV MARCELO MESSIAS BUSIQUIA 847 PQ INDUSMARINGA                                 87065006PR411960000506393973189295-9-9  27032013016CURITIBA            3004201300000000016193952CC                                                                                                                                                                                                                                                                                                                                                                                                         000006
1021420930887COBR_CAUC_BIC  DEDINI S/A INDUSTRIAS DE BASE           075717355001177USINA DE ACUCAR SANTA TEREZINHA LT      AV MARCELO MESSIAS BUSIQUIA 847 PQ INDUSMARINGA                                 87065006PR411960000606393990188231-9-9  27032013016CURITIBA            3004201300000000013653133CC                                                                                                                                                                                                                                                                                                                                                                                                         000007
1008421022487COBR_CAUC_COR  EBP - EMPRESA BRASILEIRA DE PESCADO     033304981000110SUPERMERCADOS MUNDIAL LTDA              RUA  DONA EMILIA, 2                     RIO DE JANEIRO                          20765110RJ4120000001015904070018094/    28032013900BRADESCO S/A        0105201300000000030625000CC                                                                                                                                                                                                                                                                                                                                                                                                         000008
1024420934410COBR_CAUC_COR  INTERCOOP INT SUIN MED NORTE MT LTD     002492119000154RPD CARNES LTDA                         AV JORGE FERRAZ ,235                    ITABIRA                                 35901229MG41197000010201196996855       28032013900BRADESCO S/A        2504201300000000011901875CC                                                                                                                                                                                                                                                                                                                                                                                                         000009
1046421000145COBR_CAUC_COR  KOMLOG IMPORTACAO LTDA                  061502324000546REFRIGELO CLIMATIZACAO DE AMBIENTE      AV RUI BARBOSA, 2797                    ASSIS                                   19800002SP411990000101842718035164-     28032013800UNIBANCO S/A        2305201300000000013500000CC                                                                                                                                                                                                                                                                                                                                                                                                         000010
1037421008520COBR_CAUC_BIC  OCEANO IND.GRAFICA E EDITORA LTDA       062270186000156PRECOLANDIA COMERCIAL  LTDA             AV. ALVARO RAMOS,2178                   SAO PAULO                               03330000SP41198000010460901236684-C     01042013007PAULISTA            0107201300000000010356470CC                                                                                                                                                                                                                                                                                                                                                                                                         000011
1044421012350DIR_CREDIT     PAPI PRONTO SOCORRO                     008380701000105UNIMED NATAL                            RUA MIPIBU, 511 - PETRÓPOLIS            NATAL                                   59020250RN4121000001                                                                                                                                          481018559           260320080000005352001         02042013000404ATENDIMENTO MEDICO/AMBULATORIAL DOS CONVENIADOS A UNIMED/NATAL.                                                                                                                                                                                 008423220000130              000012
1009420930764COBR_CAUC_BIC  SA CORREIO BRAZILIENSE                  073312076000126SINDICATO I EXTRATIVAS O M P D P P      R BERNARDO GUIMARAES 63 FUNCIONARIOS    BELO HORIZONTE                          30140080MG411950000101397405456874-1    31032013019BELO HORIZONTE      3004201300000000011904782CC                                                                                                                                                                                                                                                                                                                                                                                                         000013
1007421064540COBR_CAUC_COR  SUPERSONIC LOGISTICA E TRANSPORTES      007130025000582DIGIBRAS IND DO BRASIL                  RUA ACAI DISTRITUO INDUSTRIAL,0         MANAUS                                  69075020AM4121700001018141670050003072  30012012800UNIBANCO S/A        1605201300000000000176315CC                                                                                                                                                                                                                                                                                                                                                                                                         000014
1007421064540COBR_CAUC_COR  SUPERSONIC LOGISTICA E TRANSPORTES      007130025000582DIGIBRAS IND DO BRASIL                  RUA ACAI DISTRITUO INDUSTRIAL,0         MANAUS                                  69075020AM4121700002018139420050003084  05022013800UNIBANCO S/A        1605201300000000000120081CC                                                                                                                                                                                                                                                                                                                                                                                                         000015
1007421064540COBR_CAUC_COR  SUPERSONIC LOGISTICA E TRANSPORTES      007130025000582DIGIBRAS IND DO BRASIL                  RUA ACAI DISTRITUO INDUSTRIAL,0         MANAUS                                  69075020AM412170000301813951011005542   29012013800UNIBANCO S/A        1605201300000000000084509CC                                                                                                                                                                                                                                                                                                                                                                                                         000016
1007421064540COBR_CAUC_COR  SUPERSONIC LOGISTICA E TRANSPORTES      007130025000582DIGIBRAS IND DO BRASIL                  RUA ACAI DISTRITUO INDUSTRIAL,0         MANAUS                                  69075020AM412170000401813969011005573   05022013800UNIBANCO S/A        1605201300000000000094926CC                                                                                                                                                                                                                                                                                                                                                                                                         000017
1007421064540COBR_CAUC_COR  SUPERSONIC LOGISTICA E TRANSPORTES      007130025000582DIGIBRAS IND DO BRASIL                  RUA ACAI DISTRITUO INDUSTRIAL,0         MANAUS                                  69075020AM412170000501813977011004413   29102012800UNIBANCO S/A        1105201300000000000098178CC                                                                                                                                                                                                                                                                                                                                                                                                         000018
1007421064540COBR_CAUC_COR  SUPERSONIC LOGISTICA E TRANSPORTES      007130025000582DIGIBRAS IND DO BRASIL                  RUA ACAI DISTRITUO INDUSTRIAL,0         MANAUS                                  69075020AM4121700006018139850110000324  17012013800UNIBANCO S/A        0605201300000000000077566CC                                                                                                                                                                                                                                                                                                                                                                                                         000019
1007421064540COBR_CAUC_COR  SUPERSONIC LOGISTICA E TRANSPORTES      007130025000582DIGIBRAS IND DO BRASIL                  RUA ACAI DISTRITUO INDUSTRIAL,0         MANAUS                                  69075020AM4121700007018139930110000324  17012013800UNIBANCO S/A        0605201300000000000077566CC                                                                                                                                                                                                                                                                                                                                                                                                         000020
1007421064540COBR_CAUC_COR  SUPERSONIC LOGISTICA E TRANSPORTES      007130025000582DIGIBRAS IND DO BRASIL                  RUA ACAI DISTRITUO INDUSTRIAL,0         MANAUS                                  69075020AM4121700008018140010130000034  26122012800UNIBANCO S/A        0605201300000000000077536CC                                                                                                                                                                                                                                                                                                                                                                                                         000021
1007421064540COBR_CAUC_COR  SUPERSONIC LOGISTICA E TRANSPORTES      007130025000582DIGIBRAS IND DO BRASIL                  RUA ACAI DISTRITUO INDUSTRIAL,0         MANAUS                                  69075020AM412170000901814019011004432   29102012800UNIBANCO S/A        1105201300000000000069740CC                                                                                                                                                                                                                                                                                                                                                                                                         000022
1007421064540COBR_CAUC_COR  SUPERSONIC LOGISTICA E TRANSPORTES      007130025000582DIGIBRAS IND DO BRASIL                  RUA ACAI DISTRITUO INDUSTRIAL,0         MANAUS                                  69075020AM412170001001814027011004431   29102012800UNIBANCO S/A        0605201300000000000058269CC                                                                                                                                                                                                                                                                                                                                                                                                         000023
1007421064540COBR_CAUC_COR  SUPERSONIC LOGISTICA E TRANSPORTES      007130025000582DIGIBRAS IND DO BRASIL                  RUA ACAI DISTRITUO INDUSTRIAL,0         MANAUS                                  69075020AM412170001101814035011004418   29102012800UNIBANCO S/A        0605201300000000000057056CC                                                                                                                                                                                                                                                                                                                                                                                                         000024
1007421064540COBR_CAUC_COR  SUPERSONIC LOGISTICA E TRANSPORTES      007130025000582DIGIBRAS IND DO BRASIL                  RUA ACAI DISTRITUO INDUSTRIAL,0         MANAUS                                  69075020AM412170001201814043011005491   16012013800UNIBANCO S/A        0605201300000000000056967CC                                                                                                                                                                                                                                                                                                                                                                                                         000025
1007421064540COBR_CAUC_COR  SUPERSONIC LOGISTICA E TRANSPORTES      007130025000582DIGIBRAS IND DO BRASIL                  RUA ACAI DISTRITUO INDUSTRIAL,0         MANAUS                                  69075020AM4121700013018140510110000289  19122012800UNIBANCO S/A        0605201300000000000053763CC                                                                                                                                                                                                                                                                                                                                                                                                         000026
1007421064540COBR_CAUC_COR  SUPERSONIC LOGISTICA E TRANSPORTES      007130025000582DIGIBRAS IND DO BRASIL                  RUA ACAI DISTRITUO INDUSTRIAL,0         MANAUS                                  69075020AM4121700014018140600050002585  06092012800UNIBANCO S/A        0605201300000000000101535CC                                                                                                                                                                                                                                                                                                                                                                                                         000027
1007421064540COBR_CAUC_COR  SUPERSONIC LOGISTICA E TRANSPORTES      007130025000582DIGIBRAS IND DO BRASIL                  RUA ACAI DISTRITUO INDUSTRIAL,0         MANAUS                                  69075020AM4121700015018140780050002560  04092012800UNIBANCO S/A        0605201300000000000106476CC                                                                                                                                                                                                                                                                                                                                                                                                         000028
1007421064540COBR_CAUC_COR  SUPERSONIC LOGISTICA E TRANSPORTES      007130025000582DIGIBRAS IND DO BRASIL                  RUA ACAI DISTRITUO INDUSTRIAL,0         MANAUS                                  69075020AM4121700016018140860050003051  21012013800UNIBANCO S/A        0605201300000000000107097CC                                                                                                                                                                                                                                                                                                                                                                                                         000029
1007421064540COBR_CAUC_COR  SUPERSONIC LOGISTICA E TRANSPORTES      007130025000582DIGIBRAS IND DO BRASIL                  RUA ACAI DISTRITUO INDUSTRIAL,0         MANAUS                                  69075020AM4121700017018140940110000283  19122012800UNIBANCO S/A        1605201300000000000113636CC                                                                                                                                                                                                                                                                                                                                                                                                         000030
1007421064540COBR_CAUC_COR  SUPERSONIC LOGISTICA E TRANSPORTES      007130025000582DIGIBRAS IND DO BRASIL                  RUA ACAI DISTRITUO INDUSTRIAL,0         MANAUS                                  69075020AM412170001801814108011004599   19122012800UNIBANCO S/A        0605201300000000000140152CC                                                                                                                                                                                                                                                                                                                                                                                                         000031
1007421064540COBR_CAUC_COR  SUPERSONIC LOGISTICA E TRANSPORTES      007130025000582DIGIBRAS IND DO BRASIL                  RUA ACAI DISTRITUO INDUSTRIAL,0         MANAUS                                  69075020AM4121700019018141160110000182  16082012800UNIBANCO S/A        0605201300000000000138170CC                                                                                                                                                                                                                                                                                                                                                                                                         000032
1007421064540COBR_CAUC_COR  SUPERSONIC LOGISTICA E TRANSPORTES      007130025000582DIGIBRAS IND DO BRASIL                  RUA ACAI DISTRITUO INDUSTRIAL,0         MANAUS                                  69075020AM4121700020018141240050002573  06092012800UNIBANCO S/A        0605201300000000000157159CC                                                                                                                                                                                                                                                                                                                                                                                                         000033
1007421064540COBR_CAUC_COR  SUPERSONIC LOGISTICA E TRANSPORTES      007130025000582DIGIBRAS IND DO BRASIL                  RUA ACAI DISTRITUO INDUSTRIAL,0         MANAUS                                  69075020AM412170002101814132011004451   12112012800UNIBANCO S/A        0605201300000000000163920CC                                                                                                                                                                                                                                                                                                                                                                                                         000034
1007421064540COBR_CAUC_COR  SUPERSONIC LOGISTICA E TRANSPORTES      007130025000582DIGIBRAS IND DO BRASIL                  RUA ACAI DISTRITUO INDUSTRIAL,0         MANAUS                                  69075020AM412170002201814141011005476   14012013800UNIBANCO S/A        1605201300000000000171867CC                                                                                                                                                                                                                                                                                                                                                                                                         000035
1007421064540COBR_CAUC_COR  SUPERSONIC LOGISTICA E TRANSPORTES      007130025000582DIGIBRAS IND DO BRASIL                  RUA ACAI DISTRITUO INDUSTRIAL,0         MANAUS                                  69075020AM4121700023018141590050002564  04092012800UNIBANCO S/A        0605201300000000000174620CC                                                                                                                                                                                                                                                                                                                                                                                                         000036
1007421064540COBR_CAUC_COR  SUPERSONIC LOGISTICA E TRANSPORTES      007130025000582DIGIBRAS IND DO BRASIL                  RUA ACAI DISTRITUO INDUSTRIAL,0         MANAUS                                  69075020AM412170002401814434011005560   04022013800UNIBANCO S/A        1605201300000000000035194CC                                                                                                                                                                                                                                                                                                                                                                                                         000037
1007421064540COBR_CAUC_COR  SUPERSONIC LOGISTICA E TRANSPORTES      007130025000582DIGIBRAS IND DO BRASIL                  RUA ACAI DISTRITUO INDUSTRIAL,0         MANAUS                                  69075020AM4121700025018141750050003021  08012013800UNIBANCO S/A        0605201300000000000112684CC                                                                                                                                                                                                                                                                                                                                                                                                         000038
1007421064540COBR_CAUC_COR  SUPERSONIC LOGISTICA E TRANSPORTES      007130025000582DIGIBRAS IND DO BRASIL                  RUA ACAI DISTRITUO INDUSTRIAL,0         MANAUS                                  69075020AM4121700026018141830050002561  04092012800UNIBANCO S/A        0605201300000000000110958CC                                                                                                                                                                                                                                                                                                                                                                                                         000039
1007421064540COBR_CAUC_COR  SUPERSONIC LOGISTICA E TRANSPORTES      007130025000582DIGIBRAS IND DO BRASIL                  RUA ACAI DISTRITUO INDUSTRIAL,0         MANAUS                                  69075020AM412170002701814191011005479   14012013800UNIBANCO S/A        1605201300000000000109206CC                                                                                                                                                                                                                                                                                                                                                                                                         000040
1007421064540COBR_CAUC_COR  SUPERSONIC LOGISTICA E TRANSPORTES      007130025000582DIGIBRAS IND DO BRASIL                  RUA ACAI DISTRITUO INDUSTRIAL,0         MANAUS                                  69075020AM4121700028018142050050003059  23012013800UNIBANCO S/A        0605201300000000000052554CC                                                                                                                                                                                                                                                                                                                                                                                                         000041
1007421064540COBR_CAUC_COR  SUPERSONIC LOGISTICA E TRANSPORTES      007130025000582DIGIBRAS IND DO BRASIL                  RUA ACAI DISTRITUO INDUSTRIAL,0         MANAUS                                  69075020AM412170002901814213011004423   29102012800UNIBANCO S/A        0605201300000000000049121CC                                                                                                                                                                                                                                                                                                                                                                                                         000042
1007421064540COBR_CAUC_COR  SUPERSONIC LOGISTICA E TRANSPORTES      007130025000582DIGIBRAS IND DO BRASIL                  RUA ACAI DISTRITUO INDUSTRIAL,0         MANAUS                                  69075020AM412170003001814221011005541   07022013800UNIBANCO S/A        0605201300000000000047976CC                                                                                                                                                                                                                                                                                                                                                                                                         000043
1007421064540COBR_CAUC_COR  SUPERSONIC LOGISTICA E TRANSPORTES      007130025000582DIGIBRAS IND DO BRASIL                  RUA ACAI DISTRITUO INDUSTRIAL,0         MANAUS                                  69075020AM412170003101814230011004487   03122012800UNIBANCO S/A        0605201300000000000007072CC                                                                                                                                                                                                                                                                                                                                                                                                         000044
1007421064540COBR_CAUC_COR  SUPERSONIC LOGISTICA E TRANSPORTES      007130025000582DIGIBRAS IND DO BRASIL                  RUA ACAI DISTRITUO INDUSTRIAL,0         MANAUS                                  69075020AM412170003201814248011005570   05022013800UNIBANCO S/A        0605201300000000000018893CC                                                                                                                                                                                                                                                                                                                                                                                                         000045
1007421064540COBR_CAUC_COR  SUPERSONIC LOGISTICA E TRANSPORTES      007130025000582DIGIBRAS IND DO BRASIL                  RUA ACAI DISTRITUO INDUSTRIAL,0         MANAUS                                  69075020AM412170003301814256011005539   06022013800UNIBANCO S/A        0605201300000000000018170CC                                                                                                                                                                                                                                                                                                                                                                                                         000046
1007421064540COBR_CAUC_COR  SUPERSONIC LOGISTICA E TRANSPORTES      007130025000582DIGIBRAS IND DO BRASIL                  RUA ACAI DISTRITUO INDUSTRIAL,0         MANAUS                                  69075020AM4121700034018142640050003086  06022013800UNIBANCO S/A        0605201300000000000015489CC                                                                                                                                                                                                                                                                                                                                                                                                         000047
1007421064540COBR_CAUC_COR  SUPERSONIC LOGISTICA E TRANSPORTES      007130025000582DIGIBRAS IND DO BRASIL                  RUA ACAI DISTRITUO INDUSTRIAL,0         MANAUS                                  69075020AM412170003501814272011005582   07022013800UNIBANCO S/A        0605201300000000000010573CC                                                                                                                                                                                                                                                                                                                                                                                                         000048
1007421064540COBR_CAUC_COR  SUPERSONIC LOGISTICA E TRANSPORTES      007130025000582DIGIBRAS IND DO BRASIL                  RUA ACAI DISTRITUO INDUSTRIAL,0         MANAUS                                  69075020AM412170003601814281011005526   23012013800UNIBANCO S/A        0605201300000000000008927CC                                                                                                                                                                                                                                                                                                                                                                                                         000049
1007421064540COBR_CAUC_COR  SUPERSONIC LOGISTICA E TRANSPORTES      007130025000582DIGIBRAS IND DO BRASIL                  RUA ACAI DISTRITUO INDUSTRIAL,0         MANAUS                                  69075020AM412170003701814299011005480   14012013800UNIBANCO S/A        0605201300000000000007026CC                                                                                                                                                                                                                                                                                                                                                                                                         000050
1007421064540COBR_CAUC_COR  SUPERSONIC LOGISTICA E TRANSPORTES      007130025000582DIGIBRAS IND DO BRASIL                  RUA ACAI DISTRITUO INDUSTRIAL,0         MANAUS                                  69075020AM4121700038018143020110000329  21012013800UNIBANCO S/A        0605201300000000000006261CC                                                                                                                                                                                                                                                                                                                                                                                                         000051
1007421064540COBR_CAUC_COR  SUPERSONIC LOGISTICA E TRANSPORTES      007130025000582DIGIBRAS IND DO BRASIL                  RUA ACAI DISTRITUO INDUSTRIAL,0         MANAUS                                  69075020AM412170003901814311011005483   14012013800UNIBANCO S/A        0605201300000000000001638CC                                                                                                                                                                                                                                                                                                                                                                                                         000052
1007421064540COBR_CAUC_COR  SUPERSONIC LOGISTICA E TRANSPORTES      007130025000582DIGIBRAS IND DO BRASIL                  RUA ACAI DISTRITUO INDUSTRIAL,0         MANAUS                                  69075020AM412170004001814329011005557   01022013800UNIBANCO S/A        0605201300000000000001498CC                                                                                                                                                                                                                                                                                                                                                                                                         000053
1007421064540COBR_CAUC_COR  SUPERSONIC LOGISTICA E TRANSPORTES      007130025000582DIGIBRAS IND DO BRASIL                  RUA ACAI DISTRITUO INDUSTRIAL,0         MANAUS                                  69075020AM412170004101814337011005560   04022013800UNIBANCO S/A        1605201300000000000035194CC                                                                                                                                                                                                                                                                                                                                                                                                         000054
1007421064540COBR_CAUC_COR  SUPERSONIC LOGISTICA E TRANSPORTES      007130025000582DIGIBRAS IND DO BRASIL                  RUA ACAI DISTRITUO INDUSTRIAL,0         MANAUS                                  69075020AM412170004201814345011005543   07022013800UNIBANCO S/A        1605201300000000000008496CC                                                                                                                                                                                                                                                                                                                                                                                                         000055
1007421064540COBR_CAUC_COR  SUPERSONIC LOGISTICA E TRANSPORTES      007130025000582DIGIBRAS IND DO BRASIL                  RUA ACAI DISTRITUO INDUSTRIAL,0         MANAUS                                  69075020AM412170004301814353011005536   05022013800UNIBANCO S/A        0605201300000000000020457CC                                                                                                                                                                                                                                                                                                                                                                                                         000056
1007421064540COBR_CAUC_COR  SUPERSONIC LOGISTICA E TRANSPORTES      007130025000582DIGIBRAS IND DO BRASIL                  RUA ACAI DISTRITUO INDUSTRIAL,0         MANAUS                                  69075020AM412170004401814361011004428   29102012800UNIBANCO S/A        1105201300000000000021173CC                                                                                                                                                                                                                                                                                                                                                                                                         000057
1007421064540COBR_CAUC_COR  SUPERSONIC LOGISTICA E TRANSPORTES      007130025000582DIGIBRAS IND DO BRASIL                  RUA ACAI DISTRITUO INDUSTRIAL,0         MANAUS                                  69075020AM412170004501814370011005545   29012013800UNIBANCO S/A        0605201300000000000038432CC                                                                                                                                                                                                                                                                                                                                                                                                         000058
1007421064540COBR_CAUC_COR  SUPERSONIC LOGISTICA E TRANSPORTES      007130025000582DIGIBRAS IND DO BRASIL                  RUA ACAI DISTRITUO INDUSTRIAL,0         MANAUS                                  69075020AM412170004601814388011004412   29102012800UNIBANCO S/A        0605201300000000000044692CC                                                                                                                                                                                                                                                                                                                                                                                                         000059
1007421064540COBR_CAUC_COR  SUPERSONIC LOGISTICA E TRANSPORTES      007130025000582DIGIBRAS IND DO BRASIL                  RUA ACAI DISTRITUO INDUSTRIAL,0         MANAUS                                  69075020AM412170004701814396011005544   29012013800UNIBANCO S/A        0605201300000000000044228CC                                                                                                                                                                                                                                                                                                                                                                                                         000060
1007421064540COBR_CAUC_COR  SUPERSONIC LOGISTICA E TRANSPORTES      007130025000582DIGIBRAS IND DO BRASIL                  RUA ACAI DISTRITUO INDUSTRIAL,0         MANAUS                                  69075020AM412170004801814400011005542   07022013800UNIBANCO S/A        0605201300000000000041678CC                                                                                                                                                                                                                                                                                                                                                                                                         000061
1007421064540COBR_CAUC_COR  SUPERSONIC LOGISTICA E TRANSPORTES      007130025000582DIGIBRAS IND DO BRASIL                  RUA ACAI DISTRITUO INDUSTRIAL,0         MANAUS                                  69075020AM412170004901814418011005558   01022013800UNIBANCO S/A        1605201300000000000035657CC                                                                                                                                                                                                                                                                                                                                                                                                         000062
1007421064540COBR_CAUC_COR  SUPERSONIC LOGISTICA E TRANSPORTES      007130025000582DIGIBRAS IND DO BRASIL                  RUA ACAI DISTRITUO INDUSTRIAL,0         MANAUS                                  69075020AM412170005001814426011005493   17012013800UNIBANCO S/A        0605201300000000000033111CC                                                                                                                                                                                                                                                                                                                                                                                                         000063
1007421064540COBR_CAUC_COR  SUPERSONIC LOGISTICA E TRANSPORTES      007130025000582DIGIBRAS IND DO BRASIL                  RUA ACAI DISTRITUO INDUSTRIAL,0         MANAUS                                  69075020AM412170005101814701011004452   12112012800UNIBANCO S/A        0605201300000000000522311CC                                                                                                                                                                                                                                                                                                                                                                                                         000064
1007421064540COBR_CAUC_COR  SUPERSONIC LOGISTICA E TRANSPORTES      007130025000582DIGIBRAS IND DO BRASIL                  RUA ACAI DISTRITUO INDUSTRIAL,0         MANAUS                                  69075020AM412170005201814442011005488   15012013800UNIBANCO S/A        0605201300000000000027050CC                                                                                                                                                                                                                                                                                                                                                                                                         000065
1007421064540COBR_CAUC_COR  SUPERSONIC LOGISTICA E TRANSPORTES      007130025000582DIGIBRAS IND DO BRASIL                  RUA ACAI DISTRITUO INDUSTRIAL,0         MANAUS                                  69075020AM412170005301814451011005537   05022013800UNIBANCO S/A        1605201300000000000023007CC                                                                                                                                                                                                                                                                                                                                                                                                         000066
1007421064540COBR_CAUC_COR  SUPERSONIC LOGISTICA E TRANSPORTES      007130025000582DIGIBRAS IND DO BRASIL                  RUA ACAI DISTRITUO INDUSTRIAL,0         MANAUS                                  69075020AM4121700054018144690050002563  04092012800UNIBANCO S/A        0605201300000000000021910CC                                                                                                                                                                                                                                                                                                                                                                                                         000067
1007421064540COBR_CAUC_COR  SUPERSONIC LOGISTICA E TRANSPORTES      007130025000582DIGIBRAS IND DO BRASIL                  RUA ACAI DISTRITUO INDUSTRIAL,0         MANAUS                                  69075020AM4121700055018144770050003078  04022013800UNIBANCO S/A        1605201300000000000021255CC                                                                                                                                                                                                                                                                                                                                                                                                         000068
1007421064540COBR_CAUC_COR  SUPERSONIC LOGISTICA E TRANSPORTES      007130025000582DIGIBRAS IND DO BRASIL                  RUA ACAI DISTRITUO INDUSTRIAL,0         MANAUS                                  69075020AM412170005601814485011004420   29102012800UNIBANCO S/A        0605201300000000000507297CC                                                                                                                                                                                                                                                                                                                                                                                                         000069
1007421064540COBR_CAUC_COR  SUPERSONIC LOGISTICA E TRANSPORTES      007130025000582DIGIBRAS IND DO BRASIL                  RUA ACAI DISTRITUO INDUSTRIAL,0         MANAUS                                  69075020AM4121700057018144930050003049  18012013800UNIBANCO S/A        0605201300000000000464741CC                                                                                                                                                                                                                                                                                                                                                                                                         000070
1007421064540COBR_CAUC_COR  SUPERSONIC LOGISTICA E TRANSPORTES      007130025000582DIGIBRAS IND DO BRASIL                  RUA ACAI DISTRITUO INDUSTRIAL,0         MANAUS                                  69075020AM412170005801814507011004526   05122012800UNIBANCO S/A        0605201300000000000411672CC                                                                                                                                                                                                                                                                                                                                                                                                         000071
1007421064540COBR_CAUC_COR  SUPERSONIC LOGISTICA E TRANSPORTES      007130025000582DIGIBRAS IND DO BRASIL                  RUA ACAI DISTRITUO INDUSTRIAL,0         MANAUS                                  69075020AM412170005901814515011004442   30102012800UNIBANCO S/A        0605201300000000000414039CC                                                                                                                                                                                                                                                                                                                                                                                                         000072
1007421064540COBR_CAUC_COR  SUPERSONIC LOGISTICA E TRANSPORTES      007130025000582DIGIBRAS IND DO BRASIL                  RUA ACAI DISTRITUO INDUSTRIAL,0         MANAUS                                  69075020AM412170006001814523011004442   30102012800UNIBANCO S/A        0605201300000000000414039CC                                                                                                                                                                                                                                                                                                                                                                                                         000073
1007421064540COBR_CAUC_COR  SUPERSONIC LOGISTICA E TRANSPORTES      007130025000582DIGIBRAS IND DO BRASIL                  RUA ACAI DISTRITUO INDUSTRIAL,0         MANAUS                                  69075020AM412170006101814531011005539   28012013800UNIBANCO S/A        0605201300000000000648130CC                                                                                                                                                                                                                                                                                                                                                                                                         000074
1007421064540COBR_CAUC_COR  SUPERSONIC LOGISTICA E TRANSPORTES      007130025000582DIGIBRAS IND DO BRASIL                  RUA ACAI DISTRITUO INDUSTRIAL,0         MANAUS                                  69075020AM4121700062018145400110000287  19122012800UNIBANCO S/A        0605201300000000000407481CC                                                                                                                                                                                                                                                                                                                                                                                                         000075
1007421064540COBR_CAUC_COR  SUPERSONIC LOGISTICA E TRANSPORTES      007130025000582DIGIBRAS IND DO BRASIL                  RUA ACAI DISTRITUO INDUSTRIAL,0         MANAUS                                  69075020AM4121700063018145580050002562  04092012800UNIBANCO S/A        0605201300000000000359980CC                                                                                                                                                                                                                                                                                                                                                                                                         000076
1007421064540COBR_CAUC_COR  SUPERSONIC LOGISTICA E TRANSPORTES      007130025000582DIGIBRAS IND DO BRASIL                  RUA ACAI DISTRITUO INDUSTRIAL,0         MANAUS                                  69075020AM4121700064018145660110000269  06122012800UNIBANCO S/A        0605201300000000000349634CC                                                                                                                                                                                                                                                                                                                                                                                                         000077
1007421064540COBR_CAUC_COR  SUPERSONIC LOGISTICA E TRANSPORTES      007130025000582DIGIBRAS IND DO BRASIL                  RUA ACAI DISTRITUO INDUSTRIAL,0         MANAUS                                  69075020AM412170006501814574011005499   21012013800UNIBANCO S/A        1605201300000000000494853CC                                                                                                                                                                                                                                                                                                                                                                                                         000078
1007421064540COBR_CAUC_COR  SUPERSONIC LOGISTICA E TRANSPORTES      007130025000582DIGIBRAS IND DO BRASIL                  RUA ACAI DISTRITUO INDUSTRIAL,0         MANAUS                                  69075020AM412170006601814582011004419   29102012800UNIBANCO S/A        0605201300000000000428629CC                                                                                                                                                                                                                                                                                                                                                                                                         000079
1007421064540COBR_CAUC_COR  SUPERSONIC LOGISTICA E TRANSPORTES      007130025000582DIGIBRAS IND DO BRASIL                  RUA ACAI DISTRITUO INDUSTRIAL,0         MANAUS                                  69075020AM4121700067018145910050002569  04092012800UNIBANCO S/A        0605201300000000000448811CC                                                                                                                                                                                                                                                                                                                                                                                                         000080
1007421064540COBR_CAUC_COR  SUPERSONIC LOGISTICA E TRANSPORTES      007130025000582DIGIBRAS IND DO BRASIL                  RUA ACAI DISTRITUO INDUSTRIAL,0         MANAUS                                  69075020AM412170006801814604011004426   29102012800UNIBANCO S/A        1105201300000000000595476CC                                                                                                                                                                                                                                                                                                                                                                                                         000081
1007421064540COBR_CAUC_COR  SUPERSONIC LOGISTICA E TRANSPORTES      007130025000582DIGIBRAS IND DO BRASIL                  RUA ACAI DISTRITUO INDUSTRIAL,0         MANAUS                                  69075020AM4121700069018146120110000254  04122012800UNIBANCO S/A        1105201300000000000556770CC                                                                                                                                                                                                                                                                                                                                                                                                         000082
1007421064540COBR_CAUC_COR  SUPERSONIC LOGISTICA E TRANSPORTES      007130025000582DIGIBRAS IND DO BRASIL                  RUA ACAI DISTRITUO INDUSTRIAL,0         MANAUS                                  69075020AM412170007001814621011005531   28012013800UNIBANCO S/A        0605201300000000000541767CC                                                                                                                                                                                                                                                                                                                                                                                                         000083
1007421064540COBR_CAUC_COR  SUPERSONIC LOGISTICA E TRANSPORTES      007130025000582DIGIBRAS IND DO BRASIL                  RUA ACAI DISTRITUO INDUSTRIAL,0         MANAUS                                  69075020AM412170007101814639011005530   28012013800UNIBANCO S/A        0605201300000000000529818CC                                                                                                                                                                                                                                                                                                                                                                                                         000084
1007421064540COBR_CAUC_COR  SUPERSONIC LOGISTICA E TRANSPORTES      007130025000582DIGIBRAS IND DO BRASIL                  RUA ACAI DISTRITUO INDUSTRIAL,0         MANAUS                                  69075020AM4121700072018146470050002804  24102012800UNIBANCO S/A        1105201300000000000685940CC                                                                                                                                                                                                                                                                                                                                                                                                         000085
1007421064540COBR_CAUC_COR  SUPERSONIC LOGISTICA E TRANSPORTES      007130025000582DIGIBRAS IND DO BRASIL                  RUA ACAI DISTRITUO INDUSTRIAL,0         MANAUS                                  69075020AM412170007301814655011004488   04122012800UNIBANCO S/A        1105201300000000000525363CC                                                                                                                                                                                                                                                                                                                                                                                                         000086
1007421064540COBR_CAUC_COR  SUPERSONIC LOGISTICA E TRANSPORTES      007130025000582DIGIBRAS IND DO BRASIL                  RUA ACAI DISTRITUO INDUSTRIAL,0         MANAUS                                  69075020AM412170007401814663011004488   04122012800UNIBANCO S/A        1105201300000000000525363CC                                                                                                                                                                                                                                                                                                                                                                                                         000087
1007421064540COBR_CAUC_COR  SUPERSONIC LOGISTICA E TRANSPORTES      007130025000582DIGIBRAS IND DO BRASIL                  RUA ACAI DISTRITUO INDUSTRIAL,0         MANAUS                                  69075020AM412170007501814671011004443   30102012800UNIBANCO S/A        0605201300000000000522919CC                                                                                                                                                                                                                                                                                                                                                                                                         000088
1007421064540COBR_CAUC_COR  SUPERSONIC LOGISTICA E TRANSPORTES      007130025000582DIGIBRAS IND DO BRASIL                  RUA ACAI DISTRITUO INDUSTRIAL,0         MANAUS                                  69075020AM412170007601814680011004382   08102012800UNIBANCO S/A        0605201300000000000512161CC                                                                                                                                                                                                                                                                                                                                                                                                         000089
1007421064540COBR_CAUC_COR  SUPERSONIC LOGISTICA E TRANSPORTES      007130025000582DIGIBRAS IND DO BRASIL                  RUA ACAI DISTRITUO INDUSTRIAL,0         MANAUS                                  69075020AM412170007701814698011004420   29102012800UNIBANCO S/A        0605201300000000000507297CC                                                                                                                                                                                                                                                                                                                                                                                                         000090
1007421064540COBR_CAUC_COR  SUPERSONIC LOGISTICA E TRANSPORTES      007130025000582DIGIBRAS IND DO BRASIL                  RUA ACAI DISTRITUO INDUSTRIAL,0         MANAUS                                  69075020AM4121700078018149730050002549  17082012800UNIBANCO S/A        0605201300000000000259965CC                                                                                                                                                                                                                                                                                                                                                                                                         000091
1007421064540COBR_CAUC_COR  SUPERSONIC LOGISTICA E TRANSPORTES      007130025000582DIGIBRAS IND DO BRASIL                  RUA ACAI DISTRITUO INDUSTRIAL,0         MANAUS                                  69075020AM4121700079018147100110000269  06122012800UNIBANCO S/A        0605201300000000000349634CC                                                                                                                                                                                                                                                                                                                                                                                                         000092
1007421064540COBR_CAUC_COR  SUPERSONIC LOGISTICA E TRANSPORTES      007130025000582DIGIBRAS IND DO BRASIL                  RUA ACAI DISTRITUO INDUSTRIAL,0         MANAUS                                  69075020AM412170008001814728011005540   29012013800UNIBANCO S/A        1605201300000000000346845CC                                                                                                                                                                                                                                                                                                                                                                                                         000093
1007421064540COBR_CAUC_COR  SUPERSONIC LOGISTICA E TRANSPORTES      007130025000582DIGIBRAS IND DO BRASIL                  RUA ACAI DISTRITUO INDUSTRIAL,0         MANAUS                                  69075020AM412170008101814736011005497   19012013800UNIBANCO S/A        1605201300000000000333008CC                                                                                                                                                                                                                                                                                                                                                                                                         000094
1007421064540COBR_CAUC_COR  SUPERSONIC LOGISTICA E TRANSPORTES      007130025000582DIGIBRAS IND DO BRASIL                  RUA ACAI DISTRITUO INDUSTRIAL,0         MANAUS                                  69075020AM4121700082018147440050002644  12092012800UNIBANCO S/A        0605201300000000000235730CC                                                                                                                                                                                                                                                                                                                                                                                                         000095
1007421064540COBR_CAUC_COR  SUPERSONIC LOGISTICA E TRANSPORTES      007130025000582DIGIBRAS IND DO BRASIL                  RUA ACAI DISTRITUO INDUSTRIAL,0         MANAUS                                  69075020AM4121700083018147520050003077  01022013800UNIBANCO S/A        0605201300000000000235600CC                                                                                                                                                                                                                                                                                                                                                                                                         000096
1007421064540COBR_CAUC_COR  SUPERSONIC LOGISTICA E TRANSPORTES      007130025000582DIGIBRAS IND DO BRASIL                  RUA ACAI DISTRITUO INDUSTRIAL,0         MANAUS                                  69075020AM4121700084018147610050003072  30012013800UNIBANCO S/A        1605201300000000000176315CC                                                                                                                                                                                                                                                                                                                                                                                                         000097
1007421064540COBR_CAUC_COR  SUPERSONIC LOGISTICA E TRANSPORTES      007130025000582DIGIBRAS IND DO BRASIL                  RUA ACAI DISTRITUO INDUSTRIAL,0         MANAUS                                  69075020AM412170008501814779011004421   29102012800UNIBANCO S/A        0605201300000000000207992CC                                                                                                                                                                                                                                                                                                                                                                                                         000098
1007421064540COBR_CAUC_COR  SUPERSONIC LOGISTICA E TRANSPORTES      007130025000582DIGIBRAS IND DO BRASIL                  RUA ACAI DISTRITUO INDUSTRIAL,0         MANAUS                                  69075020AM412170008601814787011004434   29102012800UNIBANCO S/A        0605201300000000000191747CC                                                                                                                                                                                                                                                                                                                                                                                                         000099
1007421064540COBR_CAUC_COR  SUPERSONIC LOGISTICA E TRANSPORTES      007130025000582DIGIBRAS IND DO BRASIL                  RUA ACAI DISTRITUO INDUSTRIAL,0         MANAUS                                  69075020AM4121700087018147950050003145  06032013800UNIBANCO S/A        1605201300000000000190000CC                                                                                                                                                                                                                                                                                                                                                                                                         000100
1007421064540COBR_CAUC_COR  SUPERSONIC LOGISTICA E TRANSPORTES      007130025000582DIGIBRAS IND DO BRASIL                  RUA ACAI DISTRITUO INDUSTRIAL,0         MANAUS                                  69075020AM4121700088018148090050002584  06092012800UNIBANCO S/A        0605201300000000000176883CC                                                                                                                                                                                                                                                                                                                                                                                                         000101
1007421064540COBR_CAUC_COR  SUPERSONIC LOGISTICA E TRANSPORTES      007130025000582DIGIBRAS IND DO BRASIL                  RUA ACAI DISTRITUO INDUSTRIAL,0         MANAUS                                  69075020AM4121700089018148170050002551  17082012800UNIBANCO S/A        0605201300000000000515138CC                                                                                                                                                                                                                                                                                                                                                                                                         000102
1007421064540COBR_CAUC_COR  SUPERSONIC LOGISTICA E TRANSPORTES      007130025000582DIGIBRAS IND DO BRASIL                  RUA ACAI DISTRITUO INDUSTRIAL,0         MANAUS                                  69075020AM4121700090018148250130000028  26122012800UNIBANCO S/A        0605201300000000000193817CC                                                                                                                                                                                                                                                                                                                                                                                                         000103
1007421064540COBR_CAUC_COR  SUPERSONIC LOGISTICA E TRANSPORTES      007130025000582DIGIBRAS IND DO BRASIL                  RUA ACAI DISTRITUO INDUSTRIAL,0         MANAUS                                  69075020AM412170009101814833011005559   01022013800UNIBANCO S/A        0605201300000000000193801CC                                                                                                                                                                                                                                                                                                                                                                                                         000104
1007421064540COBR_CAUC_COR  SUPERSONIC LOGISTICA E TRANSPORTES      007130025000582DIGIBRAS IND DO BRASIL                  RUA ACAI DISTRITUO INDUSTRIAL,0         MANAUS                                  69075020AM412170009201814841011005543   29012013800UNIBANCO S/A        2605201300000000000128453CC                                                                                                                                                                                                                                                                                                                                                                                                         000105
1007421064540COBR_CAUC_COR  SUPERSONIC LOGISTICA E TRANSPORTES      007130025000582DIGIBRAS IND DO BRASIL                  RUA ACAI DISTRITUO INDUSTRIAL,0         MANAUS                                  69075020AM4121700093018148500050003043  14012013800UNIBANCO S/A        0605201300000000000209629CC                                                                                                                                                                                                                                                                                                                                                                                                         000106
1007421064540COBR_CAUC_COR  SUPERSONIC LOGISTICA E TRANSPORTES      007130025000582DIGIBRAS IND DO BRASIL                  RUA ACAI DISTRITUO INDUSTRIAL,0         MANAUS                                  69075020AM4121700094018148680050003076  01022013800UNIBANCO S/A        0605201300000000000214195CC                                                                                                                                                                                                                                                                                                                                                                                                         000107
1007421064540COBR_CAUC_COR  SUPERSONIC LOGISTICA E TRANSPORTES      007130025000582DIGIBRAS IND DO BRASIL                  RUA ACAI DISTRITUO INDUSTRIAL,0         MANAUS                                  69075020AM412170009501814876011004132   20062012800UNIBANCO S/A        0605201300000000000229100CC                                                                                                                                                                                                                                                                                                                                                                                                         000108
1007421064540COBR_CAUC_COR  SUPERSONIC LOGISTICA E TRANSPORTES      007130025000582DIGIBRAS IND DO BRASIL                  RUA ACAI DISTRITUO INDUSTRIAL,0         MANAUS                                  69075020AM412170009601814884011004235   30072012800UNIBANCO S/A        0605201300000000000328136CC                                                                                                                                                                                                                                                                                                                                                                                                         000109
1007421064540COBR_CAUC_COR  SUPERSONIC LOGISTICA E TRANSPORTES      007130025000582DIGIBRAS IND DO BRASIL                  RUA ACAI DISTRITUO INDUSTRIAL,0         MANAUS                                  69075020AM4121700097018148920050002575  06092012800UNIBANCO S/A        0605201300000000000327008CC                                                                                                                                                                                                                                                                                                                                                                                                         000110
1007421064540COBR_CAUC_COR  SUPERSONIC LOGISTICA E TRANSPORTES      007130025000582DIGIBRAS IND DO BRASIL                  RUA ACAI DISTRITUO INDUSTRIAL,0         MANAUS                                  69075020AM4121700098018149060050002943  04122012800UNIBANCO S/A        0605201300000000000325572CC                                                                                                                                                                                                                                                                                                                                                                                                         000111
1007421064540COBR_CAUC_COR  SUPERSONIC LOGISTICA E TRANSPORTES      007130025000582DIGIBRAS IND DO BRASIL                  RUA ACAI DISTRITUO INDUSTRIAL,0         MANAUS                                  69075020AM4121700099018149140050002550  17082012800UNIBANCO S/A        0605201300000000000310644CC                                                                                                                                                                                                                                                                                                                                                                                                         000112
1007421064540COBR_CAUC_COR  SUPERSONIC LOGISTICA E TRANSPORTES      007130025000582DIGIBRAS IND DO BRASIL                  RUA ACAI DISTRITUO INDUSTRIAL,0         MANAUS                                  69075020AM412170010001814922011004631   03012013800UNIBANCO S/A        1605201300000000000302386CC                                                                                                                                                                                                                                                                                                                                                                                                         000113
1007421064540COBR_CAUC_COR  SUPERSONIC LOGISTICA E TRANSPORTES      007130025000582DIGIBRAS IND DO BRASIL                  RUA ACAI DISTRITUO INDUSTRIAL,0         MANAUS                                  69075020AM4121700101018149310050002576  06092012800UNIBANCO S/A        0605201300000000000293044CC                                                                                                                                                                                                                                                                                                                                                                                                         000114
1007421064540COBR_CAUC_COR  SUPERSONIC LOGISTICA E TRANSPORTES      007130025000582DIGIBRAS IND DO BRASIL                  RUA ACAI DISTRITUO INDUSTRIAL,0         MANAUS                                  69075020AM41217001020181494900114417    29112012800UNIBANCO S/A        0605201300000000000278277CC                                                                                                                                                                                                                                                                                                                                                                                                         000115
1007421064540COBR_CAUC_COR  SUPERSONIC LOGISTICA E TRANSPORTES      007130025000582DIGIBRAS IND DO BRASIL                  RUA ACAI DISTRITUO INDUSTRIAL,0         MANAUS                                  69075020AM412170010301814957011004383   08102012800UNIBANCO S/A        0605201300000000000273290CC                                                                                                                                                                                                                                                                                                                                                                                                         000116
1007421064540COBR_CAUC_COR  SUPERSONIC LOGISTICA E TRANSPORTES      007130025000582DIGIBRAS IND DO BRASIL                  RUA ACAI DISTRITUO INDUSTRIAL,0         MANAUS                                  69075020AM4121700104018149650050003046  17012013800UNIBANCO S/A        0605201300000000000252947CC                                                                                                                                                                                                                                                                                                                                                                                                         000117
1007421064540COBR_CAUC_COR  SUPERSONIC LOGISTICA E TRANSPORTES      007130025000582DIGIBRAS IND DO BRASIL                  RUA ACAI DISTRITUO INDUSTRIAL,0         MANAUS                                  69075020AM4121700105018149810050002567  04092012800UNIBANCO S/A        0605201300000000000259800CC                                                                                                                                                                                                                                                                                                                                                                                                         000118
1007421064540COBR_CAUC_COR  SUPERSONIC LOGISTICA E TRANSPORTES      007130025000582DIGIBRAS IND DO BRASIL                  RUA ACAI DISTRITUO INDUSTRIAL,0         MANAUS                                  69075020AM412170010601814990011005543   29012013800UNIBANCO S/A        2605201300000000000128453CC                                                                                                                                                                                                                                                                                                                                                                                                         000119
1007421064540COBR_CAUC_COR  SUPERSONIC LOGISTICA E TRANSPORTES      007130025000582DIGIBRAS IND DO BRASIL                  RUA ACAI DISTRITUO INDUSTRIAL,0         MANAUS                                  69075020AM412170010701815007011005532   29012013800UNIBANCO S/A        1605201300000000002647961CC                                                                                                                                                                                                                                                                                                                                                                                                         000120
1007421064540COBR_CAUC_COR  SUPERSONIC LOGISTICA E TRANSPORTES      007130025000582DIGIBRAS IND DO BRASIL                  RUA ACAI DISTRITUO INDUSTRIAL,0         MANAUS                                  69075020AM412170010801815015011005496   17012013800UNIBANCO S/A        1605201300000000000620295CC                                                                                                                                                                                                                                                                                                                                                                                                         000121
1007421064540COBR_CAUC_COR  SUPERSONIC LOGISTICA E TRANSPORTES      007130025000582DIGIBRAS IND DO BRASIL                  RUA ACAI DISTRITUO INDUSTRIAL,0         MANAUS                                  69075020AM412170010901815023011004430   29102012800UNIBANCO S/A        0605201300000000000498800CC                                                                                                                                                                                                                                                                                                                                                                                                         000122
1007421064540COBR_CAUC_COR  SUPERSONIC LOGISTICA E TRANSPORTES      007130025000582DIGIBRAS IND DO BRASIL                  RUA ACAI DISTRITUO INDUSTRIAL,0         MANAUS                                  69075020AM4121700110018150310050002605  11092012800UNIBANCO S/A        0605201300000000000506930CC                                                                                                                                                                                                                                                                                                                                                                                                         000123
1007421064540COBR_CAUC_COR  SUPERSONIC LOGISTICA E TRANSPORTES      007130025000582DIGIBRAS IND DO BRASIL                  RUA ACAI DISTRITUO INDUSTRIAL,0         MANAUS                                  69075020AM4121700111018184810050002944  04122012800UNIBANCO S/A        1105201300000000000678690CC                                                                                                                                                                                                                                                                                                                                                                                                         000124
1007421064540COBR_CAUC_COR  SUPERSONIC LOGISTICA E TRANSPORTES      007130025000582DIGIBRAS IND DO BRASIL                  RUA ACAI DISTRITUO INDUSTRIAL,0         MANAUS                                  69075020AM412170011201818499011005038   23102012800UNIBANCO S/A        0605201300000000000411414CC                                                                                                                                                                                                                                                                                                                                                                                                         000125
1007421064540COBR_CAUC_COR  SUPERSONIC LOGISTICA E TRANSPORTES      007130025000582DIGIBRAS IND DO BRASIL                  RUA ACAI DISTRITUO INDUSTRIAL,0         MANAUS                                  69075020AM412170011301818502011005486   15012013800UNIBANCO S/A        0605201300000000000626353CC                                                                                                                                                                                                                                                                                                                                                                                                         000126
1007421064540COBR_CAUC_COR  SUPERSONIC LOGISTICA E TRANSPORTES      007130025000582DIGIBRAS IND DO BRASIL                  RUA ACAI DISTRITUO INDUSTRIAL,0         MANAUS                                  69075020AM412170011401818511011005527   23012013800UNIBANCO S/A        0605201300000000000842980CC                                                                                                                                                                                                                                                                                                                                                                                                         000127
1007421064540COBR_CAUC_COR  SUPERSONIC LOGISTICA E TRANSPORTES      007130025000582DIGIBRAS IND DO BRASIL                  RUA ACAI DISTRITUO INDUSTRIAL,0         MANAUS                                  69075020AM4121700115018185290110000282  19122012800UNIBANCO S/A        1605201300000000002908370CC                                                                                                                                                                                                                                                                                                                                                                                                         000128
1007421064540COBR_CAUC_COR  SUPERSONIC LOGISTICA E TRANSPORTES      007130025000582DIGIBRAS IND DO BRASIL                  RUA ACAI DISTRITUO INDUSTRIAL,0         MANAUS                                  69075020AM412170011601818537011005446   08012013800UNIBANCO S/A        1605201300000000002032690CC                                                                                                                                                                                                                                                                                                                                                                                                         000129
1007421064540COBR_CAUC_COR  SUPERSONIC LOGISTICA E TRANSPORTES      007130025000582DIGIBRAS IND DO BRASIL                  RUA ACAI DISTRITUO INDUSTRIAL,0         MANAUS                                  69075020AM412170011701818545011004612   02012013800UNIBANCO S/A        1605201300000000004442857CC                                                                                                                                                                                                                                                                                                                                                                                                         000130
1007421064540COBR_CAUC_COR  SUPERSONIC LOGISTICA E TRANSPORTES      007130025000582DIGIBRAS IND DO BRASIL                  RUA ACAI DISTRITUO INDUSTRIAL,0         MANAUS                                  69075020AM412170011801818553011004587   19122012800UNIBANCO S/A        1605201300000000006560560CC                                                                                                                                                                                                                                                                                                                                                                                                         000131
9000008                                                                                                                                                                                                                                                                                                                                                                                                                                                                                                                                                                                                                                                                                                               000132
