0REMESSANOTIFICACAO ELETRONICA        99999999999999BICBANCO                                AV. PAULISTA                            1048      12.ANDAR  BELA VISTA                    SAO PAULO                     01310100SP1121739360CORTINHAL                               COORDENADOR                             25072012                                                                                                                                                                                                                                                                                                                                                                                      000001
1038421019619COBR_CAUC_BIC  TOME EQUIPAMENTOS E TRANSPORTES S.A     006361990000170IMPERPORTOS TERMINAIS E LOGISTICA       AV. BRASIL 3200                         RIO DE JANEIRO                          20930040RJ3672000001097515962307        23072012014RIO DE JANEIRO      0608201200000000050006866CC                                                                                                                                                                                                                                                                                                                                                                                                         000002
1007421006183COBR_CAUC_BIC  NITRIFLEX S/A IND E COMERCIO            002036483000290CONTINENTAL DO BRASIL PROD AUTOMOT      AV. CONTINENTAL, 2777                   PONTA GROSSA                            84043735PR367210000101352619001622101   23072012016CURITIBA            2008201200000000011942007CC                                                                                                                                                                                                                                                                                                                                                                                                         000003
1007421044581COBR_CAUC_BIC  GRANCARGA TRANSP. E GUINDASTES S/A.     001027335000166WOBBEN WINDPOWER IND.E COM.LTDA.        AV.FERNANDO STECCA,100                  SOROCABA                                18087149SP367220000101352767002346      23072012007PAULISTA            2208201200000000012455315CC                                                                                                                                                                                                                                                                                                                                                                                                         000004
1007421044581COBR_CAUC_BIC  GRANCARGA TRANSP. E GUINDASTES S/A.     001027335000166WOBBEN WINDPOWER IND.E COM.LTDA.        AV.FERNANDO STECCA,100                  SOROCABA                                18087149SP367220000201352775002347      23072012007PAULISTA            2908201200000000012455315CC                                                                                                                                                                                                                                                                                                                                                                                                         000005
1007421044581COBR_CAUC_BIC  GRANCARGA TRANSP. E GUINDASTES S/A.     001027335000166WOBBEN WINDPOWER IND.E COM.LTDA.        AV.FERNANDO STECCA,100                  SOROCABA                                18087149SP367220000301352783002348      23072012007PAULISTA            0509201200000000012455315CC                                                                                                                                                                                                                                                                                                                                                                                                         000006
1022421007495COBR_CAUC_BIC  TECUMSEH DO BRASIL LTDA                 002948030000230ESMALTEC SA                             AV PARQUE OESTE ,2130                   MARACANAU                               61939120CE36723000010436053154886/1     24072012003CENTRO              3108201200000000018601920CC                                                                                                                                                                                                                                                                                                                                                                                                         000007
1036421018985COBR_CAUC_BIC  PEEQFLEX INDUSTRIA E COMERCIO LTDA      060723061055868YAKULT S/A IND.COM                      Alameda Santos, 771                     SAO PAULO                               01419000SP3672400001058808256017127-01  24072012007PAULISTA            1408201200000000036300827CC                                                                                                                                                                                                                                                                                                                                                                                                         000008
1042141005772COBR_CAUC_BIC  HIDROSONDA LTDA                         007073042000100EDECONSIL CONSTRUCOES E LOCAÇOES L      RUA JOSE SARNEY, 42-A N 500             SAO LUIS                                65085470MA367250000103091492NF008-1     27062012042SAO LUIS            0608201200000000025000000TD                                                                                                                                                                                                                                                                                                                                                                                                         000009
1042141005772COBR_CAUC_BIC  HIDROSONDA LTDA                         007073042000100EDECONSIL CONSTRUCOES E LOCAÇOES L      RUA JOSE SARNEY, 42-A N 500             SAO LUIS                                65085470MA367250000203091506NF008-2     27062012042SAO LUIS            0609201200000000025000000TD                                                                                                                                                                                                                                                                                                                                                                                                         000010
1007421055095COBR_CAUC_COR  PLASTER IND COM RESINAS PLAS EIRELI     001618295000127BOLIVAR PRODUOS PLASTICOS LTDA          ROD GERALDO MARTINS COSTA,35            PCS DE CALDAS                           37718000MG36726000010000715226245/A     23072012900BRADESCO S/A        1209201200000000012390000CC                                                                                                                                                                                                                                                                                                                                                                                                         000011
1014421023721COBR_CAUC_BIC  VML COMERCIAL IMP E EXP LTDA            011894188000185MELFI IMPORTACAO E COMERCIO DE FER      R. RIO GRANDE DO NORTE,525              SANTO ANDRE                             09210360SP3674100001045353014165-1      20072012038ABC                 1709201200000000002425123CC                                                                                                                                                                                                                                                                                                                                                                                                         000012
1014421023721COBR_CAUC_BIC  VML COMERCIAL IMP E EXP LTDA            011894188000185MELFI IMPORTACAO E COMERCIO DE FER      R. RIO GRANDE DO NORTE,525              SANTO ANDRE                             09210360SP3674100002045353194165-2      20072012038ABC                 1809201200000000002425123CC                                                                                                                                                                                                                                                                                                                                                                                                         000013
1014421023721COBR_CAUC_BIC  VML COMERCIAL IMP E EXP LTDA            011894188000185MELFI IMPORTACAO E COMERCIO DE FER      R. RIO GRANDE DO NORTE,525              SANTO ANDRE                             09210360SP3674100003045353274165-3      20072012038ABC                 1909201200000000002425123CC                                                                                                                                                                                                                                                                                                                                                                                                         000014
1014421023721COBR_CAUC_BIC  VML COMERCIAL IMP E EXP LTDA            011894188000185MELFI IMPORTACAO E COMERCIO DE FER      R. RIO GRANDE DO NORTE,525              SANTO ANDRE                             09210360SP3674100004045353354165-4      20072012038ABC                 2009201200000000002425123CC                                                                                                                                                                                                                                                                                                                                                                                                         000015
1014421023721COBR_CAUC_BIC  VML COMERCIAL IMP E EXP LTDA            011894188000185MELFI IMPORTACAO E COMERCIO DE FER      R. RIO GRANDE DO NORTE,525              SANTO ANDRE                             09210360SP3674100005045353434165-5      20072012038ABC                 2109201200000000002425123CC                                                                                                                                                                                                                                                                                                                                                                                                         000016
1046421006020COBR_CAUC_BIC  RUELL IMPORTACAO E EXPORTACAO LTDA      004744781000341ADM COM. DE ROUPAS LTDA                 ALAMEDA STO AMARO,326                   SAO PAULO                               04745001SP3674200001014497732651/12     27032012007PAULISTA            1710201200000000005805518CC                                                                                                                                                                                                                                                                                                                                                                                                         000017
1046421006020COBR_CAUC_BIC  RUELL IMPORTACAO E EXPORTACAO LTDA      004744781000341ADM COM. DE ROUPAS LTDA                 ALAMEDA STO AMARO,326                   SAO PAULO                               04745001SP3674200002013649211060/08     14122011007PAULISTA            3107201200000000006327700CC                                                                                                                                                                                                                                                                                                                                                                                                         000018
1046421006020COBR_CAUC_BIC  RUELL IMPORTACAO E EXPORTACAO LTDA      004744781000341ADM COM. DE ROUPAS LTDA                 ALAMEDA STO AMARO,326                   SAO PAULO                               04745001SP3674200003013650901060/09     14122011007PAULISTA            2008201200000000006327700CC                                                                                                                                                                                                                                                                                                                                                                                                         000019
1046421006020COBR_CAUC_BIC  RUELL IMPORTACAO E EXPORTACAO LTDA      004744781000341ADM COM. DE ROUPAS LTDA                 ALAMEDA STO AMARO,326                   SAO PAULO                               04745001SP3674200004013651031060/10     14122011007PAULISTA            2708201200000000006327700CC                                                                                                                                                                                                                                                                                                                                                                                                         000020
1046421006020COBR_CAUC_BIC  RUELL IMPORTACAO E EXPORTACAO LTDA      004744781000341ADM COM. DE ROUPAS LTDA                 ALAMEDA STO AMARO,326                   SAO PAULO                               04745001SP3674200005013649481060/11     14122011007PAULISTA            1809201200000000006327700CC                                                                                                                                                                                                                                                                                                                                                                                                         000021
1046421006020COBR_CAUC_BIC  RUELL IMPORTACAO E EXPORTACAO LTDA      004744781000341ADM COM. DE ROUPAS LTDA                 ALAMEDA STO AMARO,326                   SAO PAULO                               04745001SP3674200006013650811082/05     22122011007PAULISTA            3007201200000000005616000CC                                                                                                                                                                                                                                                                                                                                                                                                         000022
1046421006020COBR_CAUC_BIC  RUELL IMPORTACAO E EXPORTACAO LTDA      004744781000341ADM COM. DE ROUPAS LTDA                 ALAMEDA STO AMARO,326                   SAO PAULO                               04745001SP3674200007013649301082/06     22122011007PAULISTA            3008201200000000005616000CC                                                                                                                                                                                                                                                                                                                                                                                                         000023
1046421006020COBR_CAUC_BIC  RUELL IMPORTACAO E EXPORTACAO LTDA      004744781000341ADM COM. DE ROUPAS LTDA                 ALAMEDA STO AMARO,326                   SAO PAULO                               04745001SP3674200008014046641117/08     25012012007PAULISTA            1608201200000000005015000CC                                                                                                                                                                                                                                                                                                                                                                                                         000024
1046421006020COBR_CAUC_BIC  RUELL IMPORTACAO E EXPORTACAO LTDA      004744781000341ADM COM. DE ROUPAS LTDA                 ALAMEDA STO AMARO,326                   SAO PAULO                               04745001SP3674200009014046561117/09     25012012007PAULISTA            2308201200000000005015000CC                                                                                                                                                                                                                                                                                                                                                                                                         000025
1046421006020COBR_CAUC_BIC  RUELL IMPORTACAO E EXPORTACAO LTDA      004744781000341ADM COM. DE ROUPAS LTDA                 ALAMEDA STO AMARO,326                   SAO PAULO                               04745001SP3674200010014046481117/10     25012012007PAULISTA            2808201200000000005015000CC                                                                                                                                                                                                                                                                                                                                                                                                         000026
1046421006020COBR_CAUC_BIC  RUELL IMPORTACAO E EXPORTACAO LTDA      004744781000341ADM COM. DE ROUPAS LTDA                 ALAMEDA STO AMARO,326                   SAO PAULO                               04745001SP3674200011014046131117/11     25012012007PAULISTA            1909201200000000005015000CC                                                                                                                                                                                                                                                                                                                                                                                                         000027
1046421006020COBR_CAUC_BIC  RUELL IMPORTACAO E EXPORTACAO LTDA      004744781000341ADM COM. DE ROUPAS LTDA                 ALAMEDA STO AMARO,326                   SAO PAULO                               04745001SP3674200012014047371117/12     25012012007PAULISTA            2709201200000000005015000CC                                                                                                                                                                                                                                                                                                                                                                                                         000028
1046421006020COBR_CAUC_BIC  RUELL IMPORTACAO E EXPORTACAO LTDA      004744781000341ADM COM. DE ROUPAS LTDA                 ALAMEDA STO AMARO,326                   SAO PAULO                               04745001SP3674200013014047111117/13     25012012007PAULISTA            1610201200000000005015000CC                                                                                                                                                                                                                                                                                                                                                                                                         000029
1046421006020COBR_CAUC_BIC  RUELL IMPORTACAO E EXPORTACAO LTDA      004744781000341ADM COM. DE ROUPAS LTDA                 ALAMEDA STO AMARO,326                   SAO PAULO                               04745001SP3674200014014046991119/08     26012012007PAULISTA            1508201200000000004679857CC                                                                                                                                                                                                                                                                                                                                                                                                         000030
1046421006020COBR_CAUC_BIC  RUELL IMPORTACAO E EXPORTACAO LTDA      004744781000341ADM COM. DE ROUPAS LTDA                 ALAMEDA STO AMARO,326                   SAO PAULO                               04745001SP3674200015014046301119/11     26012012007PAULISTA            1109201200000000004679857CC                                                                                                                                                                                                                                                                                                                                                                                                         000031
1046421006020COBR_CAUC_BIC  RUELL IMPORTACAO E EXPORTACAO LTDA      004744781000341ADM COM. DE ROUPAS LTDA                 ALAMEDA STO AMARO,326                   SAO PAULO                               04745001SP3674200016014046051119/12     26012012007PAULISTA            2509201200000000004679857CC                                                                                                                                                                                                                                                                                                                                                                                                         000032
1046421006020COBR_CAUC_BIC  RUELL IMPORTACAO E EXPORTACAO LTDA      004744781000341ADM COM. DE ROUPAS LTDA                 ALAMEDA STO AMARO,326                   SAO PAULO                               04745001SP3674200017014047021119/13     26012012007PAULISTA            2010201200000000004679857CC                                                                                                                                                                                                                                                                                                                                                                                                         000033
1046421006020COBR_CAUC_BIC  RUELL IMPORTACAO E EXPORTACAO LTDA      004744781000341ADM COM. DE ROUPAS LTDA                 ALAMEDA STO AMARO,326                   SAO PAULO                               04745001SP3674200018014046721121/08     27012012007PAULISTA            1508201200000000004679857CC                                                                                                                                                                                                                                                                                                                                                                                                         000034
1046421006020COBR_CAUC_BIC  RUELL IMPORTACAO E EXPORTACAO LTDA      004744781000341ADM COM. DE ROUPAS LTDA                 ALAMEDA STO AMARO,326                   SAO PAULO                               04745001SP3674200019014046211121/11     27012012007PAULISTA            1109201200000000004679857CC                                                                                                                                                                                                                                                                                                                                                                                                         000035
1046421006020COBR_CAUC_BIC  RUELL IMPORTACAO E EXPORTACAO LTDA      004744781000341ADM COM. DE ROUPAS LTDA                 ALAMEDA STO AMARO,326                   SAO PAULO                               04745001SP3674200020014047291121/12     27012012007PAULISTA            2709201200000000004679857CC                                                                                                                                                                                                                                                                                                                                                                                                         000036
1046421006020COBR_CAUC_BIC  RUELL IMPORTACAO E EXPORTACAO LTDA      004744781000341ADM COM. DE ROUPAS LTDA                 ALAMEDA STO AMARO,326                   SAO PAULO                               04745001SP3674200021014046811121/13     27012012007PAULISTA            2010201200000000004679857CC                                                                                                                                                                                                                                                                                                                                                                                                         000037
1046421006020COBR_CAUC_BIC  RUELL IMPORTACAO E EXPORTACAO LTDA      004744781000341ADM COM. DE ROUPAS LTDA                 ALAMEDA STO AMARO,326                   SAO PAULO                               04745001SP3674200022014538192487/14     26012012007PAULISTA            2110201200000000004679857CC                                                                                                                                                                                                                                                                                                                                                                                                         000038
1046421006020COBR_CAUC_BIC  RUELL IMPORTACAO E EXPORTACAO LTDA      004744781000341ADM COM. DE ROUPAS LTDA                 ALAMEDA STO AMARO,326                   SAO PAULO                               04745001SP3674200023014498112591/08     27032012007PAULISTA            2108201200000000004239100CC                                                                                                                                                                                                                                                                                                                                                                                                         000039
1046421006020COBR_CAUC_BIC  RUELL IMPORTACAO E EXPORTACAO LTDA      004744781000341ADM COM. DE ROUPAS LTDA                 ALAMEDA STO AMARO,326                   SAO PAULO                               04745001SP3674200024014497902591/10     27032012007PAULISTA            1909201200000000004239100CC                                                                                                                                                                                                                                                                                                                                                                                                         000040
1046421006020COBR_CAUC_BIC  RUELL IMPORTACAO E EXPORTACAO LTDA      004744781000341ADM COM. DE ROUPAS LTDA                 ALAMEDA STO AMARO,326                   SAO PAULO                               04745001SP3674200025014497812591/11     27032012007PAULISTA            1510201200000000004239100CC                                                                                                                                                                                                                                                                                                                                                                                                         000041
1046421006020COBR_CAUC_BIC  RUELL IMPORTACAO E EXPORTACAO LTDA      004744781000341ADM COM. DE ROUPAS LTDA                 ALAMEDA STO AMARO,326                   SAO PAULO                               04745001SP3674200026014538272591/12     27032012007PAULISTA            2210201200000000004242700CC                                                                                                                                                                                                                                                                                                                                                                                                         000042
1046421006020COBR_CAUC_BIC  RUELL IMPORTACAO E EXPORTACAO LTDA      004744781000341ADM COM. DE ROUPAS LTDA                 ALAMEDA STO AMARO,326                   SAO PAULO                               04745001SP3674200027014498032596/10     27032012007PAULISTA            1809201200000000004239400CC                                                                                                                                                                                                                                                                                                                                                                                                         000043
1046421006020COBR_CAUC_BIC  RUELL IMPORTACAO E EXPORTACAO LTDA      004744781000341ADM COM. DE ROUPAS LTDA                 ALAMEDA STO AMARO,326                   SAO PAULO                               04745001SP367420002801365073881/16      29092011007PAULISTA            2707201200000000004112640CC                                                                                                                                                                                                                                                                                                                                                                                                         000044
9000009                                                                                                                                                                                                                                                                                                                                                                                                                                                                                                                                                                                                                                                                                                               000045
