0REMESSANOTIFICACAO ELETRONICA        99999999999999BICBANCO                                AV. PAULISTA                            1048      12.ANDAR  BELA VISTA                    SAO PAULO                     01310100SP1121739360CORTINHAL                               COORDENADOR                             22072014                                                                                                                                                                                                                                                                                                                                                                                      000001
1016421009571COBR_CAUC_BIC  IMPORTADORA DE FRUTAS LA VIOLETERA      002782071000623MEGAFORT DISTRIBUIDORA IMP. E EXPO      AV WILSON T RIBEIRO 1651                CONTAGEM                                32183680MG4853700001045728480003407001  14072014019BELO HORIZONTE      2508201400000000013451728CC                                                                                                                                                                                                                                                                                                                                                                                                         000002
1016421009571COBR_CAUC_BIC  IMPORTADORA DE FRUTAS LA VIOLETERA      004641376003828SUPERMERCADOS BH COMERCIO DE ALIME      AVENIDA GERALDO ROCHA 200               CONTAGEM                                32183054MG4853800001045728300003080001  10072014019BELO HORIZONTE      2108201400000000010210407CC                                                                                                                                                                                                                                                                                                                                                                                                         000003
1016421009571COBR_CAUC_BIC  IMPORTADORA DE FRUTAS LA VIOLETERA      010912900000240RIO VERMELHO DISTRIBUICAO DE ALIME      ROD BR 153 KM 52 S/N                    ANAPOLIS                                75045190GO4853900001045728640003381001  14072014018GOIANIA             2508201400000000013177800CC                                                                                                                                                                                                                                                                                                                                                                                                         000004
1016421009571COBR_CAUC_BIC  IMPORTADORA DE FRUTAS LA VIOLETERA      010912900000240RIO VERMELHO DISTRIBUICAO DE ALIME      ROD BR 153 KM 52 S/N                    ANAPOLIS                                75045190GO4853900002045728720003425001  14072014018GOIANIA             2508201400000000013646746CC                                                                                                                                                                                                                                                                                                                                                                                                         000005
1016421009571COBR_CAUC_BIC  IMPORTADORA DE FRUTAS LA VIOLETERA      011596442004237CARVALHO E FERNANDES LTDA               AV DEPUTADO PAULO FERRAZ 4888           TERESINA                                64078820PI4854000001045728560003431001  14072014042SAO LUIS            1209201400000000014490005CC                                                                                                                                                                                                                                                                                                                                                                                                         000006
1016421009571COBR_CAUC_BIC  IMPORTADORA DE FRUTAS LA VIOLETERA      049319411001105MARTIN BROWER COMERCIO TRANSPORTES      RUA MAKITA BRASIL 201                   SAO BERNARDO DO                         09852080SP4854100001045728810001050001  09072014007PAULISTA            0608201400000000011187280CC                                                                                                                                                                                                                                                                                                                                                                                                         000007
1048421002195COBR_CAUC_COR  SERVIMED COMERCIAL LTDA                 006161357000138CONDE NETO & CIA LTDA                   R CARAVELAS 65                          SAO JOSE DOS CA                         12238170SP485420000102150688680178  22  18072014900BRADESCO S/A        2908201400000000017899622CC                                                                                                                                                                                                                                                                                                                                                                                                         000008
1048421002195COBR_CAUC_COR  SERVIMED COMERCIAL LTDA                 006161357000138CONDE NETO & CIA LTDA                   R CARAVELAS 65                          SAO JOSE DOS CA                         12238170SP485420000202151307680891  22  18072014900BRADESCO S/A        2908201400000000011895472CC                                                                                                                                                                                                                                                                                                                                                                                                         000009
1048421000338COBR_CAUC_COR  FRIGOESTRELA S.A. EM RECUP JUDICIAL     060398914000931MIDORI ATLANTICA BRASIL INDUSTRIAL      AV. ANTONIO VERONESE TERREO, 1007       PENAPOLIS                               16300000SP4854300001084394850114625801  18072014900BRADESCO S/A        2507201400000000025543361CC                                                                                                                                                                                                                                                                                                                                                                                                         000010
1048421000338COBR_CAUC_COR  FRIGOESTRELA S.A. EM RECUP JUDICIAL     060398914000931MIDORI ATLANTICA BRASIL INDUSTRIAL      AV. ANTONIO VERONESE TERREO, 1007       PENAPOLIS                               16300000SP4854300002084395660114629401  18072014900BRADESCO S/A        2507201400000000025562722CC                                                                                                                                                                                                                                                                                                                                                                                                         000011
1049421001570COBR_CAUC_COR  MASTER AGROINDUSTRIAL LTDA              006173113000337FRIGODARIO COMERCIAL E LOGISTICA L       AV ANTONIO MARIO DE AZEVEDO, 3710      NOVA FRIBURGO                           28630310RJ4854400001003769160004830001  19072014900BRADESCO S/A        1808201400000000012887400CC                                                                                                                                                                                                                                                                                                                                                                                                         000012
1021421017050COBR_CAUC_BIC  STAR DISTR PROD FARMACEUTICOS LTDA      061585865073701RAIA DROGASIL S/A                       RUA PATAXOS , 1412                      EMBU                                    06833073SP4854500001000031380000362101  18072014007PAULISTA            0108201400000000028851624CC                                                                                                                                                                                                                                                                                                                                                                                                         000013
1021421017050COBR_CAUC_BIC  STAR DISTR PROD FARMACEUTICOS LTDA      061585865073701RAIA DROGASIL S/A                       RUA PATAXOS , 1412                      EMBU                                    06833073SP4854500002000031970000362901  18072014007PAULISTA            0108201400000000029875723CC                                                                                                                                                                                                                                                                                                                                                                                                         000014
1021421017050COBR_CAUC_BIC  STAR DISTR PROD FARMACEUTICOS LTDA      061585865073701RAIA DROGASIL S/A                       RUA PATAXOS , 1412                      EMBU                                    06833073SP4854500003000032010000363001  18072014007PAULISTA            0108201400000000021376444CC                                                                                                                                                                                                                                                                                                                                                                                                         000015
9000009                                                                                                                                                                                                                                                                                                                                                                                                                                                                                                                                                                                                                                                                                                               000016
