0REMESSANOTIFICACAO ELETRONICA        99999999999999BICBANCO                                AV. PAULISTA                            1048      12.ANDAR  BELA VISTA                    SAO PAULO                     01310100SP1121739360CORTINHAL                               COORDENADOR                             12032012                                                                                                                                                                                                                                                                                                                                                                                      000001
1007421053971COBR_CAUC_BIC  VIDA ALIMENTOS LTDA                     011457034000126GOOD MEAL COM E TRANSP DE PROD ALI      RUA ARARIPE, 206                        SAO PAULO                               03215010SP3427900001011269610004135701  08032012007PAULISTA            3003201200000000016445000CC                                                                                                                                                                                                                                                                                                                                                                                                         000002
1007421031242COBR_CAUC_BIC  GP GUARDA PATRIMONIAL DE S.P. LTDA      001588770000836DIVEO DO BRASIL TELECOMUNICACOES        AVENIDA CECI  1850                      BARUERI                                 06460120SP34280000010004323077595       08032012007PAULISTA            0204201200000000014306951CC                                                                                                                                                                                                                                                                                                                                                                                                         000003
1024421007416COBR_CAUC_COR  ATLAS AGROINDUSTRIAL LTDA               091830836000683OLFAR S/A ALIMENTO E ENERGIA            BR 153 KM 53 FUNDOS                     ERECHIM                                 99700000RS342810000101965853030294      09032012900BRADESCO S/A        2305201200000000011875000CC                                                                                                                                                                                                                                                                                                                                                                                                         000004
1016421022586COBR_CAUC_COR  BRAMAX IMP EXP COM DE MAQUINAS LTDA     012944170000456CANTAGALO GENERAL GRANIS SA             AV PARANA ,366                          PRIMAVERA DO LE                         78850000MT342820000103348073783/1       08022012800UNIBANCO S/A        3105201200000000015000000CC                                                                                                                                                                                                                                                                                                                                                                                                         000005
9000004                                                                                                                                                                                                                                                                                                                                                                                                                                                                                                                                                                                                                                                                                                               000006
