0REMESSANOTIFICACAO ELETRONICA        99999999999999BICBANCO                                AV. PAULISTA                            1048      12.ANDAR  BELA VISTA                    SAO PAULO                     01310100SP1121739360CORTINHAL                               COORDENADOR                             19032012                                                                                                                                                                                                                                                                                                                                                                                      000001
1007421044581COBR_CAUC_BIC  GRANCARGA TRANSP. E GUINDASTES S/A.     001027335000166WOBBEN WINDPOWER IND.E COM.LTDA.        AV.FERNANDO STECCA,100                  SOROCABA                                18087149SP343990000101138463002131      06032012007PAULISTA            2504201200000000012455315CC                                                                                                                                                                                                                                                                                                                                                                                                         000002
1007421044581COBR_CAUC_BIC  GRANCARGA TRANSP. E GUINDASTES S/A.     001027335000166WOBBEN WINDPOWER IND.E COM.LTDA.        AV.FERNANDO STECCA,100                  SOROCABA                                18087149SP343990000201138480002150      15032012007PAULISTA            0905201200000000012455315CC                                                                                                                                                                                                                                                                                                                                                                                                         000003
1007421044581COBR_CAUC_BIC  GRANCARGA TRANSP. E GUINDASTES S/A.     001027335000166WOBBEN WINDPOWER IND.E COM.LTDA.        AV.FERNANDO STECCA,100                  SOROCABA                                18087149SP343990000301138501002149      15032012007PAULISTA            0905201200000000012455315CC                                                                                                                                                                                                                                                                                                                                                                                                         000004
1007421044581COBR_CAUC_BIC  GRANCARGA TRANSP. E GUINDASTES S/A.     001027335000166WOBBEN WINDPOWER IND.E COM.LTDA.        AV.FERNANDO STECCA,100                  SOROCABA                                18087149SP343990000401138528002147      15032012007PAULISTA            0905201200000000012455315CC                                                                                                                                                                                                                                                                                                                                                                                                         000005
1007421044581COBR_CAUC_BIC  GRANCARGA TRANSP. E GUINDASTES S/A.     001027335000166WOBBEN WINDPOWER IND.E COM.LTDA.        AV.FERNANDO STECCA,100                  SOROCABA                                18087149SP343990000501138552002148      15032012007PAULISTA            0905201200000000012455315CC                                                                                                                                                                                                                                                                                                                                                                                                         000006
1007421044581COBR_CAUC_BIC  GRANCARGA TRANSP. E GUINDASTES S/A.     001027335000166WOBBEN WINDPOWER IND.E COM.LTDA.        AV.FERNANDO STECCA,100                  SOROCABA                                18087149SP343990000601138561002130      06032012007PAULISTA            2504201200000000012455315CC                                                                                                                                                                                                                                                                                                                                                                                                         000007
1007421044581COBR_CAUC_BIC  GRANCARGA TRANSP. E GUINDASTES S/A.     001027335000166WOBBEN WINDPOWER IND.E COM.LTDA.        AV.FERNANDO STECCA,100                  SOROCABA                                18087149SP343990000701138587002132      06032012007PAULISTA            2504201200000000012455315CC                                                                                                                                                                                                                                                                                                                                                                                                         000008
1021141012725COBR_CAUC_BIC  MABE BRASIL ELETRODOMESTICOS LTDA       000776574000660B2W COMPANHIA GLOBAL DO VAREJO          RUA SACADURA CABRAL 102, PARTE          RIO DE JANEIRO                          20081902RJ3440000001063070820000093728  15032012014RIO DE JANEIRO      1405201200000000011144069TD                                                                                                                                                                                                                                                                                                                                                                                                         000009
1021141012725COBR_CAUC_BIC  MABE BRASIL ELETRODOMESTICOS LTDA       039346861010639CENCOSUD BRASIL COMERCIAL LTDA          ESTRADA CAMPINAS PIRAJA 1051, KM 05     SALVADOR                                41290001BA3440100001063072520000093716  15032012013SALVADOR            0904201200000000010215504TD                                                                                                                                                                                                                                                                                                                                                                                                         000010
1014421008439COBR_CAUC_BIC  TV OMEGA LTDA                           043940618000144Eli Lilly do Brasil Ltda                Rua Ramos Batista - 12º andar    198    SãoPaulo                                04552020SP34402000010450894001193101    15032012007PAULISTA            3003201200000000017904960CC                                                                                                                                                                                                                                                                                                                                                                                                         000011
9000004                                                                                                                                                                                                                                                                                                                                                                                                                                                                                                                                                                                                                                                                                                               000012
