0REMESSANOTIFICACAO ELETRONICA        99999999999999BICBANCO                                AV. PAULISTA                            1048      12.ANDAR  BELA VISTA                    SAO PAULO                     01310100SP1121739360CORTINHAL                               COORDENADOR                             08022012                                                                                                                                                                                                                                                                                                                                                                                      000001
1028421002719COBR_CAUC_BIC  SIPCAM UPL BRASIL S/A                   075263400000199NORTOX S/A                              RODOVIA MELO PEIXOTO, BR369 - KM 197 S/NARAPONGAS                               86700970PR337530000102753249DP01613901  31012012031LONDRINA            2802201200000000022208100CC                                                                                                                                                                                                                                                                                                                                                                                                         000002
1016421022241COBR_CAUC_COR  STOCKFER COM DIST DE FERO ACO LTDA      011207104000198CONSORCIO CONDUTO EGESA - COEG          LOTEAMENTO CANOAS,2036-LT 17 QD 02      IPOJUCA                                 55590000PE33754000010331434995207/1     03022012800UNIBANCO S/A        2703201200000000010646496CC                                                                                                                                                                                                                                                                                                                                                                                                         000003
1031421007850COBR_CAUC_COR  AGRICOLA JANDELLE S/A                   017745613000150SUPERMERCADO BAHAMAS LTDA               RODOVIA BR 040 780                      JUIZ DE FORA                            36092005MG3375500001049702580007325101  06022012800UNIBANCO S/A        0703201200000000012236767CC                                                                                                                                                                                                                                                                                                                                                                                                         000004
1021141012725COBR_CAUC_BIC  MABE BRASIL ELETRODOMESTICOS LTDA       010757237010723NOVA CASA BAHIA S/A                     RODOVIA ANHANGUERA 0, S/N KM52          JUNDIAI                                 13208401SP3375600001062881850000628043  07022012007PAULISTA            2702201200000000010096429TD                                                                                                                                                                                                                                                                                                                                                                                                         000005
1021141012725COBR_CAUC_BIC  MABE BRASIL ELETRODOMESTICOS LTDA       010757237010723NOVA CASA BAHIA S/A                     RODOVIA ANHANGUERA 0, S/N KM52          JUNDIAI                                 13208401SP3375600002062881930000628044  07022012007PAULISTA            2702201200000000010096429TD                                                                                                                                                                                                                                                                                                                                                                                                         000006
1021141012725COBR_CAUC_BIC  MABE BRASIL ELETRODOMESTICOS LTDA       010757237010723NOVA CASA BAHIA S/A                     RODOVIA ANHANGUERA 0, S/N KM52          JUNDIAI                                 13208401SP3375600003062882070000628038  07022012007PAULISTA            2702201200000000010152308TD                                                                                                                                                                                                                                                                                                                                                                                                         000007
1021141012725COBR_CAUC_BIC  MABE BRASIL ELETRODOMESTICOS LTDA       010757237010723NOVA CASA BAHIA S/A                     RODOVIA ANHANGUERA 0, S/N KM52          JUNDIAI                                 13208401SP3375600004062882150000628039  07022012007PAULISTA            2702201200000000010152308TD                                                                                                                                                                                                                                                                                                                                                                                                         000008
1021141012725COBR_CAUC_BIC  MABE BRASIL ELETRODOMESTICOS LTDA       010757237010723NOVA CASA BAHIA S/A                     RODOVIA ANHANGUERA 0, S/N KM52          JUNDIAI                                 13208401SP3375600005062882230000628040  07022012007PAULISTA            2702201200000000010152308TD                                                                                                                                                                                                                                                                                                                                                                                                         000009
1021141012725COBR_CAUC_BIC  MABE BRASIL ELETRODOMESTICOS LTDA       010757237010723NOVA CASA BAHIA S/A                     RODOVIA ANHANGUERA 0, S/N KM52          JUNDIAI                                 13208401SP3375600006062882310000628047  07022012007PAULISTA            2702201200000000010152308TD                                                                                                                                                                                                                                                                                                                                                                                                         000010
1021141012725COBR_CAUC_BIC  MABE BRASIL ELETRODOMESTICOS LTDA       010757237010723NOVA CASA BAHIA S/A                     RODOVIA ANHANGUERA 0, S/N KM52          JUNDIAI                                 13208401SP3375600007062882400000628048  07022012007PAULISTA            2702201200000000010152308TD                                                                                                                                                                                                                                                                                                                                                                                                         000011
1021141012725COBR_CAUC_BIC  MABE BRASIL ELETRODOMESTICOS LTDA       010757237010723NOVA CASA BAHIA S/A                     RODOVIA ANHANGUERA 0, S/N KM52          JUNDIAI                                 13208401SP3375600008062882580000628049  07022012007PAULISTA            2702201200000000010152308TD                                                                                                                                                                                                                                                                                                                                                                                                         000012
1021141012725COBR_CAUC_BIC  MABE BRASIL ELETRODOMESTICOS LTDA       010757237010723NOVA CASA BAHIA S/A                     RODOVIA ANHANGUERA 0, S/N KM52          JUNDIAI                                 13208401SP3375600009062882660000628041  07022012007PAULISTA            2702201200000000010152308TD                                                                                                                                                                                                                                                                                                                                                                                                         000013
1021141012725COBR_CAUC_BIC  MABE BRASIL ELETRODOMESTICOS LTDA       010757237010723NOVA CASA BAHIA S/A                     RODOVIA ANHANGUERA 0, S/N KM52          JUNDIAI                                 13208401SP3375600010062882740000628042  07022012007PAULISTA            2702201200000000010152308TD                                                                                                                                                                                                                                                                                                                                                                                                         000014
1021141012725COBR_CAUC_BIC  MABE BRASIL ELETRODOMESTICOS LTDA       010757237010723NOVA CASA BAHIA S/A                     RODOVIA ANHANGUERA 0, S/N KM52          JUNDIAI                                 13208401SP3375600011062882820000628045  07022012007PAULISTA            2702201200000000010152308TD                                                                                                                                                                                                                                                                                                                                                                                                         000015
1021141012725COBR_CAUC_BIC  MABE BRASIL ELETRODOMESTICOS LTDA       010757237010723NOVA CASA BAHIA S/A                     RODOVIA ANHANGUERA 0, S/N KM52          JUNDIAI                                 13208401SP3375600012062882910000628046  07022012007PAULISTA            2702201200000000010152308TD                                                                                                                                                                                                                                                                                                                                                                                                         000016
1038421018922COBR_CAUC_COR  AMEPLAN ASSIST MEDICA PLANEJADA         011031202000117V. METROPOLITANA LTDA                   R. GENARO DE CARVALHO 135 OU 145        SAO PAULO                               04377220SP3375700001090193720009019372  02022012900BRADESCO S/A        2502201200000000012043567CC                                                                                                                                                                                                                                                                                                                                                                                                         000017
1014421008439COBR_CAUC_COR  TV OMEGA LTDA                           006281716000190Tholor do Brasil Ltda                   Avenida São João -               4      Manaus                                  69029240AM33758000010450486301141201    07022012800UNIBANCO S/A        1004201200000000025000000CC                                                                                                                                                                                                                                                                                                                                                                                                         000018
1014421008439COBR_CAUC_COR  TV OMEGA LTDA                           006281716000190Tholor do Brasil Ltda                   Avenida São João -               4      Manaus                                  69029240AM33758000020450487101141101    07022012800UNIBANCO S/A        1003201200000000025000000CC                                                                                                                                                                                                                                                                                                                                                                                                         000019
9000006                                                                                                                                                                                                                                                                                                                                                                                                                                                                                                                                                                                                                                                                                                               000020
