0REMESSANOTIFICACAO ELETRONICA        99999999999999BICBANCO                                AV. PAULISTA                            1048      12.ANDAR  BELA VISTA                    SAO PAULO                     01310100SP1121739360CORTINHAL                               COORDENADOR                             07112013                                                                                                                                                                                                                                                                                                                                                                                      000001
1007421072259COBR_CAUC_COR  BOMBRIL S/A                             005383639000117DISTR CHOK - PET DE FRANCA LTDA         R HEITOR VILA LOBOS 1093                FRANCA                                  14409409SP4512800001024088800837386001  31102013900BRADESCO S/A        0512201300000000010009808CC                                                                                                                                                                                                                                                                                                                                                                                                         000002
1007421072259COBR_CAUC_COR  BOMBRIL S/A                             049092398000394COML ESPERANCA ATAC DISTR LTDA          AV JULIA GAIOLLI 600                    GUARULHOS                               07251500SP4513000001024087400836463001  31102013900BRADESCO S/A        2111201300000000010989825CC                                                                                                                                                                                                                                                                                                                                                                                                         000003
1007421072259COBR_CAUC_COR  BOMBRIL S/A                             013495487000172DESTRO BRASIL DISTRIBUICAO LTDA         AV ANDRE COSTA 2002                     JUNDIAI                                 13214730SP4512900001024088980051534001  31102013900BRADESCO S/A        0612201300000000010184790CC                                                                                                                                                                                                                                                                                                                                                                                                         000004
1007421072259COBR_CAUC_COR  BOMBRIL S/A                             013495487000172DESTRO BRASIL DISTRIBUICAO LTDA         AV ANDRE COSTA 2002                     JUNDIAI                                 13214730SP4512900002024089010051535001  31102013900BRADESCO S/A        0612201300000000010184790CC                                                                                                                                                                                                                                                                                                                                                                                                         000005
1021420930887COBR_CAUC_COR  DEDINI S/A INDUSTRIAS DE BASE           004165520000296AGROPECUARIA NOVO MILENIO LTDA          ROD TRANSEFONICA KM 6 ANEXO 01 S N VILA MIRASSOL D'OEST                         78280000MT451260000106473276236482-1-1  04112013900BRADESCO S/A        3011201300000000032000000CC                                                                                                                                                                                                                                                                                                                                                                                                         000006
1021420930887COBR_CAUC_COR  DEDINI S/A INDUSTRIAS DE BASE           007930999000206BAMBUI BIOENERGIA S.A.                  ROD MG 827 KM BAMBUI   MEDEIROS BR      BAMBUI                                  38900000MG451270000106473306235705-2-2  01112013900BRADESCO S/A        1501201400000000012009641CC                                                                                                                                                                                                                                                                                                                                                                                                         000007
1016421008591COBR_CAUC_COR  GLOBOAVES SAO PAULO AGROAVICOLA LTD     004240370001129MERCANTILNOVA ERA LTDA                  AV AUTAZ MIRIM ,9058                    MANAUS                                  69088245AM451320000104190911087563      05112013800UNIBANCO S/A        0312201300000000010503024CC                                                                                                                                                                                                                                                                                                                                                                                                         000008
1016421008591COBR_CAUC_COR  GLOBOAVES SAO PAULO AGROAVICOLA LTD     004240370001129MERCANTILNOVA ERA LTDA                  AV AUTAZ MIRIM ,9058                    MANAUS                                  69088245AM451320000204190937087195      30102013800UNIBANCO S/A        2711201300000000010503024CC                                                                                                                                                                                                                                                                                                                                                                                                         000009
1029421018320COBR_CAUC_BIC  MOVEIS K1 LTDA                          056642960000100LOJAS CEM S/A                           ROD ENG ERMINIO OLIV PENTEADO, s/n km 46SALTO                                   13329903SP451310000100067065379341-128  04112013021CAMPINAS            2811201300000000010893375CC                                                                                                                                                                                                                                                                                                                                                                                                         000010
9000007                                                                                                                                                                                                                                                                                                                                                                                                                                                                                                                                                                                                                                                                                                               000011
