0REMESSANOTIFICACAO ELETRONICA        99999999999999BICBANCO                                AV. PAULISTA                            1048      12.ANDAR  BELA VISTA                    SAO PAULO                     01310100SP1121739360CORTINHAL                               COORDENADOR                             30052011                                                                                                                                                                                                                                                                                                                                                                                      000001
1032420933490COBR_CAUC_BIC  CECRISA REVESTIMENTOS CERAMICOS         005890253000100UNIVERSIDADES HOTEL CAMPINAS I          RUA JOSE AUGUSTO  SILVA,835             CAMPINAS                                13087570SP279410000109412159VP00476302  27052011021CAMPINAS            1406201100000000020857422CC                                                                                                                                                                                                                                                                                                                                                                                                         000002
1014421000268COBR_CAUC_BIC  DOARBELLEZA PRODUTOS DE BELEZA LTD      008055366000170MRIO COMERCIO DE COSMETICO E ALIME      AVN BRASIL 12900                        RIO DE JANEIRO                          21012351RJ2794200001044246810016081     26052011014RIO DE JANEIRO      2107201100000000014228353CC                                                                                                                                                                                                                                                                                                                                                                                                         000003
1008141001773COBR_CAUC_BIC  UNITY FOUR CORRETORA SEGUROS LTDA       063554067000198HAPVIDA ASS MEDICA LTDA                 AN HERACLITO GRACA 406                  FORTALEZA                               60140060CE2794300001083282871063/01/03  20052011003CENTRO              1706201100000000020747320TD                                                                                                                                                                                                                                                                                                                                                                                                         000004
1008141001773COBR_CAUC_BIC  UNITY FOUR CORRETORA SEGUROS LTDA       063554067000198HAPVIDA ASS MEDICA LTDA                 AN HERACLITO GRACA 406                  FORTALEZA                               60140060CE2794300002083282951063/02/03  20052011003CENTRO              1707201100000000020747320TD                                                                                                                                                                                                                                                                                                                                                                                                         000005
1008141001773COBR_CAUC_BIC  UNITY FOUR CORRETORA SEGUROS LTDA       063554067000198HAPVIDA ASS MEDICA LTDA                 AN HERACLITO GRACA 406                  FORTALEZA                               60140060CE2794300003083283091063/03/03  20052011003CENTRO              1708201100000000020747316TD                                                                                                                                                                                                                                                                                                                                                                                                         000006
1046421002474COBR_CAUC_BIC  MACROMAQ EQUIPAMENTOS LTDA              005324318000141RW CONNECT SERVICOS EM TELECOMUNIC      PIRES DA MOTA,586                       SAO PAULO                               01529000SP27944000010115448025535/1     24052011007PAULISTA            1007201100000000031492100CC                                                                                                                                                                                                                                                                                                                                                                                                         000007
9000004                                                                                                                                                                                                                                                                                                                                                                                                                                                                                                                                                                                                                                                                                                               000008
