0REMESSANOTIFICACAO ELETRONICA        99999999999999BICBANCO                                AV. PAULISTA                            1048      12.ANDAR  BELA VISTA                    SAO PAULO                     01310100SP1121739360CORTINHAL                               COORDENADOR                             25042014                                                                                                                                                                                                                                                                                                                                                                                      000001
1007421072259COBR_CAUC_COR  BOMBRIL S/A                             005868574001090COMERCIAL ZARAGOZA IMP EXP LTDA         AV DOM PEDRO I 6707                     TAUBATE                                 12091000SP4728900001028577730927547001  31032014900BRADESCO S/A        1205201400000000010361400CC                                                                                                                                                                                                                                                                                                                                                                                                         000002
1007421072259COBR_CAUC_COR  BOMBRIL S/A                             010953229000285URANIO DISTR COM ATAC PROD LTDA         AV JOAO PINHEIRO 2345                   POCOS DE CALDAS                         37701387MG4729000001028581760056860001  26032014900BRADESCO S/A        1205201400000000010184790CC                                                                                                                                                                                                                                                                                                                                                                                                         000003
1018421034834COBR_CAUC_BIC  LACEL LATICINIOS CERES LTDA             011596442004237CARVALHO & FERNANDES LTDA               AV.DEPUTADO PAULO FERRAZ, 4888 GALPAO 04TERESINA                                64078820PI4729100001036928450318122     23042014042SAO LUIS            2706201400000000016466667CC                                                                                                                                                                                                                                                                                                                                                                                                         000004
1046421001109COBR_CAUC_BIC  C-PACK CREATIVE PACKAGING S/A           001615814006487UNILEVER BRASIL INDUSTRIAL LTDA         AV FCO MATARAZZO, 1500 10§              SAO PAULO                               05001200SP472920000102365921005961601   22042014007PAULISTA            2008201400000000013723133CC                                                                                                                                                                                                                                                                                                                                                                                                         000005
1010421024356COBR_CAUC_COR  DIST EQUADOR DE PROD PETROLEO LTDA      007989162000143DISTRIBUIDORA RORAIMENSE DE PETROL      AV MAJOR WILLIANS, 1639 , SALA A        BOA VISTA                               69301110RR472930000100075550118906      24042014900BRADESCO S/A        2904201400000000015300000CC                                                                                                                                                                                                                                                                                                                                                                                                         000006
1046421000145COBR_CAUC_BIC  KOMLOG IMPORTACAO LTDA                  005879152000715BOTTINO MATERIAIS DE CONSTRUCAO LT      EST DO PONTAL, 843                      RIO DE JANEIRO                          22790877RJ472940000102365786130119-     09012014014RIO DE JANEIRO      1706201400000000022744108CC                                                                                                                                                                                                                                                                                                                                                                                                         000007
1046421000145COBR_CAUC_BIC  KOMLOG IMPORTACAO LTDA                  005879152000715BOTTINO MATERIAIS DE CONSTRUCAO LT      EST DO PONTAL, 843                      RIO DE JANEIRO                          22790877RJ472940000202365794131919-     07022014014RIO DE JANEIRO      2506201400000000010543879CC                                                                                                                                                                                                                                                                                                                                                                                                         000008
1046421000145COBR_CAUC_BIC  KOMLOG IMPORTACAO LTDA                  005879152000715BOTTINO MATERIAIS DE CONSTRUCAO LT      EST DO PONTAL, 843                      RIO DE JANEIRO                          22790877RJ472940000302365808136372-     28032014014RIO DE JANEIRO      0708201400000000017370875CC                                                                                                                                                                                                                                                                                                                                                                                                         000009
1046421000145COBR_CAUC_COR  KOMLOG IMPORTACAO LTDA                  061502324000546REFRIGELO CLIMATIZACAO DE AMBIENTE      AV RUI BARBOSA, 2797                    ASSIS                                   19800002SP472950000102365719060115-005  21032014700BANCO REAL- ABN AMRO2007201400000000040507250CC                                                                                                                                                                                                                                                                                                                                                                                                         000010
9000007                                                                                                                                                                                                                                                                                                                                                                                                                                                                                                                                                                                                                                                                                                               000011
