0REMESSANOTIFICACAO ELETRONICA        99999999999999BICBANCO                                AV. PAULISTA                            1048      12.ANDAR  BELA VISTA                    SAO PAULO                     01310100SP1121739360CORTINHAL                               COORDENADOR                             24032014                                                                                                                                                                                                                                                                                                                                                                                      000001
1008421029015DIR_CREDIT     G B S ENGENHARIA LTDA                   033541368000116COMP HIDRO ELET DO S. FRANCISCO - CHESF RUA DELMIRO GOUVEIA,333 SAN MARTIN      RECIFE                                  50761901CE4679800001                                                                                                                                          012436869           301120120000023416CTNI-922012014032014000404Execução dos serviços de obras civis e montagam eletromecânica com aplicação de materiais relativos à construção da Subestação Teixeira de Freitas    230/138 KV.                                                                               035554591000204              000002
1007420933005DIR_CREDIT     COMPANHIA BRAS DE ACUCAR E ALCOOL       005242560000176USINA VERTENTE LTDA                     ROD. ASSIS CHATEAUBRIAND,SN KM 155      OLIMPIA                                 15400000SP4681600001                                                                                                                                          012528230           20102011000001998221/10       12032014003901fornecimento de cana em pé.                                                                                                                                                                                                                     002995097000145              000003
1046421006070DIR_CREDIT     METALURGICA DS LTDA                     060857349000176TRW AUTOMOTIVE LTDA                     VIA ANHANGUERA KM 147                   LIMEIRA                                 13486915SP4682900001                                                                                                                                          012530228           260320070000018698            17032014017002fornecimento de discos e tambores de freio para automoveis                                                                                                                                                                                      079414868000198              000004
1016000000000DIR_CREDIT     KONRAD CURITIBA COM DE CAMINHOES LT     060746948000112BANCO BRADESCO S/A                      RUA CIDADE DE DEUS SN                   OSASCO                                  90000000SP4683100001                                                                                                                                          012530400           310120140000025611PACS DIVERSO17032014000404PACS DIVERSOS PROVENEINTE DO BANCO BRADESCO                                                                                                                                                                                                     008482610000180              000005
1023421008678DIR_CREDIT     AUTO VIACAO A.B.C LTDA                  007096200000139CMT-CONSÓRCIO METROPOLITANO DE TRANSPORTAVENIDA REBOUÇAS Nº1368 JARDIM PAULISTA SÃO PAULO                               05402100SP4684200001                                                                                                                                          012530686           020320090000024370            18032014000403VENDA DE PASSAGENS E RESPECTIVOS BILHETES E TODAS AS DEMAIS OPERAÇÕES  COMPREENDIDAS NO "SISTEMA" DA CMT, DESTACANDO A MARCA "BOM-BILHETE ÔNIBUS METROPOLITANO",CADASTOS E OUTROS ATIVOS, MATERIAIS E IMATERIAIS NA OPERAÇÃO.                   059153569000130              000006
1021421016003DIR_CREDIT     USINA ACUCAREIRA ESTER S/A              058551326000197INDUSTRIA DE BEBIDAS PIRASSUNUNGA LTDA  RODOVIA ANHANGUERA, KM 210              PIRASSUNUNGA                            13630000SP4684400001                                                                                                                                          012514360           010220140000025534001/2014    18032014017002compra e venda de destilado alcoólico simples de cana.                                                                                                                                                                                          060892098000160              000007
1008421029015DIR_CREDIT     G B S ENGENHARIA LTDA                   033541368000116COMP HIDRO ELET DO S. FRANCISCO - CHESF RUA DELMIRO GOUVEIA,333 SAN MARTIN      RECIFE                                  50761901CE4684700001                                                                                                                                          012380383           301120120000023416CTNI-922012014032014000403Execução dos serviços de obras civis e montagam eletromecânica com aplicação de materiais relativos à construção da Subestação Teixeira de Freitas    230/138 KV.                                                                               035554591000204              000008
1008421029015DIR_CREDIT     G B S ENGENHARIA LTDA                   033541368000116COMP HIDRO ELET DO S. FRANCISCO - CHESF RUA DELMIRO GOUVEIA,333 SAN MARTIN      RECIFE                                  50761901CE4684800001                                                                                                                                          012380510           301120120000023416CTNI-922012014032014000403Execução dos serviços de obras civis e montagam eletromecânica com aplicação de materiais relativos à construção da Subestação Teixeira de Freitas    230/138 KV.                                                                               035554591000204              000009
1044421012350DIR_CREDIT     PAPI PRONTO SOCORRO                     008380701000105UNIMED NATAL                            RUA MIPIBU, 511 - PETRÓPOLIS            NATAL                                   59020250RN4686100001                                                                                                                                          012520637           260320080000005352001         19032014000404atendimento médico ambulatorial dos conveniados da UNIMED                                                                                                                                                                                       008423220000130              000010
1036421016893COBR_CAUC_COR  TECAL ALUMINIO DA AMAZONIA LTDA         004012043000148SHOWA DO BRASIL LTDA                    RUA RIO QUIXITO                         MANAUS                                  69075830AM4690200001060003140000057676  20032014900BRADESCO S/A        1904201400000000023056346CC                                                                                                                                                                                                                                                                                                                                                                                                         000011
1022421007525COBR_CAUC_COR  D. CENTER DISTRIBUIDORA LTDA            007868718000143ALESSANDRA FARIAS DE OLIVEIRA ME        R.LOURENCO DE ALMEIDA, 601              SAO PAULO                               04508000SP46903000010151500374869905    20032014900BRADESCO S/A        1905201400000000014544138CC                                                                                                                                                                                                                                                                                                                                                                                                         000012
1019421010259COBR_CAUC_BIC  L & S INTERBANK FOMENTO LTDA            004744781000341ADM COMERCIO DE ROUPAS  LTDA            ALAMEDA  STO AMARO, 326/330             SAO PAULO                               04745001SP4690400001068491012256-5      20032014007PAULISTA            2104201400000000014648267CC                                                                                                                                                                                                                                                                                                                                                                                                         000013
1048421003043COBR_CAUC_COR  FRIGOL S.A. EM RECUPERACAO JUDICIAL     006128996000100ATIVO ALIMENTOS  EXP. E IMP. LTDA       RODOVIA CASTANHAL - INHANGAPI, S/N KM 04CASTANHAL                               68745040PA46905000010007073300034273-1  21032014900BRADESCO S/A        3103201400000000020620675CC                                                                                                                                                                                                                                                                                                                                                                                                         000014
9000013                                                                                                                                                                                                                                                                                                                                                                                                                                                                                                                                                                                                                                                                                                               000015
