0REMESSANOTIFICACAO ELETRONICA        99999999999999BICBANCO                                AV. PAULISTA                            1048      12.ANDAR  BELA VISTA                    SAO PAULO                     01310100SP1121739360CORTINHAL                               COORDENADOR                             30032012                                                                                                                                                                                                                                                                                                                                                                                      000001
1017421012786COBR_CAUC_COR  FABRICA DA PEDRA S.A FIAC.E TECELAG     032763013000451CAMPOS & CAMPOS LTDA                    RUA A QUADRA F   ,51-52/53              TOBIAS BARRETO                          49300000SE3460700001025701917927-A04    28022012800UNIBANCO S/A        2806201200000000012601722CC                                                                                                                                                                                                                                                                                                                                                                                                         000002
1007420931444COBR_CAUC_BIC  PLASINCO LTDA                           047090782000160DANEVA MAQ. E COND. EL. LTDA.           RUA VOTUPORANGA,415                     POA                                     08558050SP34608000010116137619277       27032012007PAULISTA            1904201200000000023706480CC                                                                                                                                                                                                                                                                                                                                                                                                         000003
1007420931444COBR_CAUC_BIC  PLASINCO LTDA                           048063416000185INDUSCABOS COND. EL. LTDA.              AV. INDUSCABOS,300                      POA                                     08559300SP34609000010116138419275       27032012007PAULISTA            2404201200000000010669345CC                                                                                                                                                                                                                                                                                                                                                                                                         000004
1007420931444COBR_CAUC_BIC  PLASINCO LTDA                           061150751000260PRSMIAN ENERGIA CABOS E SIST BRAS       AV ALEXANDRE GUSMAO ,397                STO ANDRE                               09110900SP34610000010116139219290       27032012038ABC                 1105201200000000023777518CC                                                                                                                                                                                                                                                                                                                                                                                                         000005
1036420933388COBR_CAUC_COR  METALURGICA DE TUBOS PRECISAO LTDA      061156113000175IOCHPE - MAXION S/A                     R DR. OTHON BARCELLOS,83                CRUZEIRO                                12730900SP3461100001058557400211271  1  28032012800UNIBANCO S/A        2604201200000000013452201CC                                                                                                                                                                                                                                                                                                                                                                                                         000006
1041421006002COBR_CAUC_COR  ALUX CABOS LTDA                         006840748000189COMPANHIA ENERGETICA DO PIAUI-CEPI      AVENIDA MARANHAO,759                    TERESINA                                64001010PI346120000100010031721/12      16022012900BRADESCO S/A        3004201200000000041258360CC                                                                                                                                                                                                                                                                                                                                                                                                         000007
1041421006002COBR_CAUC_COR  ALUX CABOS LTDA                         006840748000189COMPANHIA ENERGETICA DO PIAUI-CEPI      AVENIDA MARANHAO,759                    TERESINA                                64001010PI346120000200010049721/22      16022012900BRADESCO S/A        0505201200000000041258360CC                                                                                                                                                                                                                                                                                                                                                                                                         000008
1013421013905DIR_CREDIT     CACO DE TELHA PROD EVENTOS LTDA         030535975000185FILO SA                                 RUA BONFIM N 25 VILA  AMELIA NOVA FRIBURRIO DE JANEIRO                          28625570RJ3463200001                                                                                                                                          011322480           180120120000020877            09032011000403Licenciamento para uso de marca Miss Triumph by Ivete Sangalo.                                                                                                                                                                                  000829821000135              000009
9000007                                                                                                                                                                                                                                                                                                                                                                                                                                                                                                                                                                                                                                                                                                               000010
