0REMESSANOTIFICACAO ELETRONICA        99999999999999BICBANCO                                AV. PAULISTA                            1048      12.ANDAR  BELA VISTA                    SAO PAULO                     01310100SP1121739360CORTINHAL                               COORDENADOR                             14022014                                                                                                                                                                                                                                                                                                                                                                                      000001
1042141005640COBR_CAUC_BIC  TAC TRANSPORTE E CONSTRUCOES LTDA       007638249000176G SABOYA VIEIRA                         ESTRADA DE RIBAMAR Nº 01 KM 02          SAO JOSE DE RIB                         65110000MA464450000103931482651/2014    04022014042SAO LUIS            1004201400000000020000000TD                                                                                                                                                                                                                                                                                                                                                                                                         000002
1007421061990COBR_CAUC_BIC  BRASIL MAQUINAS E EQUIP PESADOS S/A     029355260000919TRIUNFO LOGISTICA LTDA                  AV. RIO DE JANEIRO,292                  RIO DE JANEIRO                          20931670RJ464460000102663421503A        31012014014RIO DE JANEIRO      1903201400000000022250000CC                                                                                                                                                                                                                                                                                                                                                                                                         000003
1007421061990COBR_CAUC_BIC  BRASIL MAQUINAS E EQUIP PESADOS S/A     029355260000919TRIUNFO LOGISTICA LTDA                  AV. RIO DE JANEIRO,292                  RIO DE JANEIRO                          20931670RJ464460000202663430503B        31012014014RIO DE JANEIRO      1804201400000000022250000CC                                                                                                                                                                                                                                                                                                                                                                                                         000004
1007421061990COBR_CAUC_BIC  BRASIL MAQUINAS E EQUIP PESADOS S/A     029355260000919TRIUNFO LOGISTICA LTDA                  AV. RIO DE JANEIRO,292                  RIO DE JANEIRO                          20931670RJ464460000302663448504A        31012014014RIO DE JANEIRO      1903201400000000018900000CC                                                                                                                                                                                                                                                                                                                                                                                                         000005
1007421061990COBR_CAUC_BIC  BRASIL MAQUINAS E EQUIP PESADOS S/A     029355260000919TRIUNFO LOGISTICA LTDA                  AV. RIO DE JANEIRO,292                  RIO DE JANEIRO                          20931670RJ464460000402663456504B        31012014014RIO DE JANEIRO      1804201400000000018900000CC                                                                                                                                                                                                                                                                                                                                                                                                         000006
1031421011181COBR_CAUC_BIC  AGROIND IRMAOS DALLA COSTA LTDA         042234005001443REGINAVES INDS COMERCIO DE AVES LT      EST CARIBU                         00348RIO DE JANEIRO                          22765010RJ46447000010536119131350/1     10022014014RIO DE JANEIRO      1003201400000000012408000CC                                                                                                                                                                                                                                                                                                                                                                                                         000007
1048421003043COBR_CAUC_COR  FRIGOL S.A. EM RECUPERACAO JUDICIAL     010700821000194RAIMUNDO NONATO BANDEIRA E SILVA        RUA BELA VISTA, 05                      NATAL                                   59060190RN46448000010006721000033135-1  13022014900BRADESCO S/A        2003201400000000013358160CC                                                                                                                                                                                                                                                                                                                                                                                                         000008
1044421012694DIR_CREDIT     NATAL HOSPITAL CENTER S/A               003716044000100ASL - ASSISTENCIA A SAUDE LTDA          RUA PRUDENTE DE MORAIS, 870             NATAL                                   59020510RN4645700001                                                                                                                                          012475674           250620020000013755S/N         15012014000404prestar serviços aos beneficiários da contratante, atraves de seu corpo clinico e, responsabilidade de sua diretoria clinica, os serviços de assisten-cia médico- hospitalar contatados através de profissionais da área no rn.                 002109397000180              000009
9000005                                                                                                                                                                                                                                                                                                                                                                                                                                                                                                                                                                                                                                                                                                               000010
