0REMESSANOTIFICACAO ELETRONICA        99999999999999BICBANCO                                AV. PAULISTA                            1048      12.ANDAR  BELA VISTA                    SAO PAULO                     01310100SP1121739360CORTINHAL                               COORDENADOR                             17102014                                                                                                                                                                                                                                                                                                                                                                                      000001
1046421006070DIR_CREDIT     METALURGICA DS LTDA                     060857349000176TRW AUTOMOTIVE LTDA                     VIA ANHANGUERA KM 147                   LIMEIRA                                 13486915SP4991800001                                                                                                                                          012692872           260320070000018698            15102014000404fornecimento de discos e tambores de freio para automóveis.                                                                                                                                                                                     079414868000198              000002
1048421002195COBR_CAUC_COR  SERVIMED COMERCIAL LTDA                 011059197000312MEDCOMERCE DELIVERY DE MEDS E           AV CASTELO BRANCO 945                   GOIANIA                                 75510360GO499210000102401397631094  23  15102014900BRADESCO S/A        1911201400000000054274439CC                                                                                                                                                                                                                                                                                                                                                                                                         000003
1007421035337COBR_CAUC_BIC  COMERCIAL IMP.E EXP.CANTAREIRA LTDA     004445927000196RMOURA COMERCIO DE CEREAIS LTDA.        R PROFESSOR EURIPEDES SIMOES DE PAULA, 5SAO PAULO                               03006010SP499220000103363774121860001   14102014007PAULISTA            2411201400000000012800000CC                                                                                                                                                                                                                                                                                                                                                                                                         000004
1007421035337COBR_CAUC_BIC  COMERCIAL IMP.E EXP.CANTAREIRA LTDA     004641376007300 SUPERMERCADOS BH COMERCIO DE ALIM      AV GERALDO ROCHA, 700                   CONTAGEM                                32183054MG499230000103363766121871001   14102014019BELO HORIZONTE      2811201400000000011700000CC                                                                                                                                                                                                                                                                                                                                                                                                         000005
9000004                                                                                                                                                                                                                                                                                                                                                                                                                                                                                                                                                                                                                                                                                                               000006
