0REMESSANOTIFICACAO ELETRONICA        99999999999999BICBANCO                                AV. PAULISTA                            1048      12.ANDAR  BELA VISTA                    SAO PAULO                     01310100SP1121739360CORTINHAL                               COORDENADOR                             28082013                                                                                                                                                                                                                                                                                                                                                                                      000001
1018420932820COBR_CAUC_BIC  ADUBOS ARAGUAIA IND. E COM. LTDA        011127711000148NOVA PIRATININGA EMP PART INCORP L      RUA 14 ESQ C 7 QD 39 LT 9 S/N           GOIANIA                                 74853270GO4376900001033865400000995301  26082013018GOIANIA             2411201300000000017021070CC                                                                                                                                                                                                                                                                                                                                                                                                         000002
1046421000048COBR_CAUC_BIC  COPOBRAS S/A IND. E COM. DE EMB         010531092000270INTERPOLYMERS COML IMP E EXPRA LTD      AV TAQUARA - SALA 402, 353              PORTO ALEGRE                            90460210RS4377000001020815670008282001  26082013015PORTO ALEGRE        3011201300000000015736731CC                                                                                                                                                                                                                                                                                                                                                                                                         000003
1007421064426COBR_CAUC_BIC  GADOL DISTRIBUIDORA DE POLIMEROS LT     002567761000155EDR INDUSTRIA DE PLASTICOS LTDA         R. TOCANTINIA,373                       SAO PAULO                               04186200SP437720000102201592001510/AA   27082013007PAULISTA            1709201300000000014042866CC                                                                                                                                                                                                                                                                                                                                                                                                         000004
1007421064426COBR_CAUC_BIC  GADOL DISTRIBUIDORA DE POLIMEROS LT     002567761000155EDR INDUSTRIA DE PLASTICOS LTDA         R. TOCANTINIA,373                       SAO PAULO                               04186200SP437720000202201606001512/AA   27082013007PAULISTA            1809201300000000014468407CC                                                                                                                                                                                                                                                                                                                                                                                                         000005
1007421068901COBR_CAUC_COR  STEM IND COM PROD METALURG LT           043626407000484SCHENCK PROCESS EQUIP. INDUSTRIAIS      A.PRES.PRUDENTE S/N Q71 L.10-B          PARAUAPEBAS                             68515000PA437710000102205091016517      26082013900BRADESCO S/A        0310201300000000015633175CC                                                                                                                                                                                                                                                                                                                                                                                                         000006
1007421068901COBR_CAUC_COR  STEM IND COM PROD METALURG LT           043626407000484SCHENCK PROCESS EQUIP. INDUSTRIAIS      A.PRES.PRUDENTE S/N Q71 L.10-B          PARAUAPEBAS                             68515000PA437710000202205105016518      26082013900BRADESCO S/A        0310201300000000015633175CC                                                                                                                                                                                                                                                                                                                                                                                                         000007
9000004                                                                                                                                                                                                                                                                                                                                                                                                                                                                                                                                                                                                                                                                                                               000008
