0REMESSANOTIFICACAO ELETRONICA        99999999999999BICBANCO                                AV. PAULISTA                            1048      12.ANDAR  BELA VISTA                    SAO PAULO                     01310100SP1121739360CORTINHAL                               COORDENADOR                             14072014                                                                                                                                                                                                                                                                                                                                                                                      000001
1031421011521COBR_CAUC_BIC  ARAMOVEIS IND REUN.MOV ESTOFADOS LT     047960950044927MAGAZINE LUIZA SA                       RUA DO COMERCIO 1924                    FRANCA                                  14400660SP484480000105419709189175-1/1  09072014022RIBEIRAO PRETO      0910201400000000010920000CC                                                                                                                                                                                                                                                                                                                                                                                                         000002
1021421017050COBR_CAUC_BIC  STAR DISTR PROD FARMACEUTICOS LTDA      061585865000151RAIA DROGASIL S/A                       AVENIDA CORIFEU DE AZEVEDO MARQUES, 3097SAO PAULO                               05339000SP4844900001000030310000358301  10072014007PAULISTA            2407201400000000011764024CC                                                                                                                                                                                                                                                                                                                                                                                                         000003
1021421017050COBR_CAUC_BIC  STAR DISTR PROD FARMACEUTICOS LTDA      061585865000151RAIA DROGASIL S/A                       AVENIDA CORIFEU DE AZEVEDO MARQUES, 3097SAO PAULO                               05339000SP4844900002000030490000358001  10072014007PAULISTA            2407201400000000049749724CC                                                                                                                                                                                                                                                                                                                                                                                                         000004
1021421017352COBR_CAUC_BIC  STAR DISTR PROD FARMACEUTICOS LTDA      061585865073701RAIA DROGASIL S/A                       RUA PATAXOS , 1412                      EMBU                                    06833073SP4845000001000004220000357801  10072014007PAULISTA            2407201400000000010269482CC                                                                                                                                                                                                                                                                                                                                                                                                         000005
9000003                                                                                                                                                                                                                                                                                                                                                                                                                                                                                                                                                                                                                                                                                                               000006
