0REMESSANOTIFICACAO ELETRONICA        99999999999999BICBANCO                                AV. PAULISTA                            1048      12.ANDAR  BELA VISTA                    SAO PAULO                     01310100SP1121739360CORTINHAL                               COORDENADOR                             27112013                                                                                                                                                                                                                                                                                                                                                                                      000001
1018421005230COBR_CAUC_COR  CENTROALCOOL S/A                        002431337000260PETROBALL DIST DE PETROLEO LTDA         AV NITEROI C/COP. QD.04 LT1/19          SENADOR CANEDO                          75250000GO45411000010350391152376/AA    20112013900BRADESCO S/A        2505201400000000030000000CC                                                                                                                                                                                                                                                                                                                                                                                                         000002
1018421005230COBR_CAUC_COR  CENTROALCOOL S/A                        002431337000260PETROBALL DIST DE PETROLEO LTDA         AV NITEROI C/COP. QD.04 LT1/19          SENADOR CANEDO                          75250000GO45411000020350392952376/AB    20112013900BRADESCO S/A        2506201400000000030000000CC                                                                                                                                                                                                                                                                                                                                                                                                         000003
1018421005230COBR_CAUC_COR  CENTROALCOOL S/A                        002431337000260PETROBALL DIST DE PETROLEO LTDA         AV NITEROI C/COP. QD.04 LT1/19          SENADOR CANEDO                          75250000GO45411000030350393752376/AC    20112013900BRADESCO S/A        2507201400000000030000000CC                                                                                                                                                                                                                                                                                                                                                                                                         000004
1018421005230COBR_CAUC_COR  CENTROALCOOL S/A                        002431337000260PETROBALL DIST DE PETROLEO LTDA         AV NITEROI C/COP. QD.04 LT1/19          SENADOR CANEDO                          75250000GO45411000040350394552376/AD    20112013900BRADESCO S/A        2508201400000000030000000CC                                                                                                                                                                                                                                                                                                                                                                                                         000005
1016421009571COBR_CAUC_COR  IMPORTADORA DE FRUTAS LA VIOLETERA      001937635001740SONDA SUPERMERCADOS EXPORTACAO E I      AV PAULISTA 2073 HORSA 2 ANDAR 25       SAO PAULO                               01311300SP4541000001042098670026903301  23112013800UNIBANCO S/A        0401201400000000019085998CC                                                                                                                                                                                                                                                                                                                                                                                                         000006
1046421002474COBR_CAUC_COR  MACROMAQ EQUIPAMENTOS LTDA              002474103000208TRACTEBEL ENERGIA                       AV PAULO SANTOS MELLO,S/N               CAPIVARI DE BAI                         88745000SC45412000010000001255087/01    22102013700BANCO REAL- ABN AMRO2711201300000000011000000CC                                                                                                                                                                                                                                                                                                                                                                                                         000007
9000003                                                                                                                                                                                                                                                                                                                                                                                                                                                                                                                                                                                                                                                                                                               000008
