0REMESSANOTIFICACAO ELETRONICA        99999999999999BICBANCO                                AV. PAULISTA                            1048      12.ANDAR  BELA VISTA                    SAO PAULO                     01310100SP1121739360CORTINHAL                               COORDENADOR                             10082011                                                                                                                                                                                                                                                                                                                                                                                      000001
1031421007850COBR_CAUC_COR  AGRICOLA JANDELLE S/A                   005169759000116TUDOBOM COMERCIAL LTDA                  AVENIDA JOSE FRANCISCO DOMINGOS 359     CORONEL FABRICI                         35170348MG2953800001049077420018793501  06082011800UNIBANCO S/A        0609201100000000011547360CC                                                                                                                                                                                                                                                                                                                                                                                                         000002
1024420934410COBR_CAUC_BIC  INTERCOOP INT SUIN MED NORTE MT LTD     004613751000487CRISTALFRIGO IND COM IMPORTACAO EX      AV DOS ANDRADAS ,2229-STA EFIGENIA      BELO HORIZONTE                          30120010MG29539000010191591162842       28072011019BELO HORIZONTE      0209201100000000010417068CC                                                                                                                                                                                                                                                                                                                                                                                                         000003
1031421004509COBR_CAUC_BIC  V.L.AGRO INDUSTRIAL LTDA                072600190001918ASA ALIMENTOS LTDA                      FAZENDA STO ANTONIO A DIREITA ROD BR 251BRASILIA                                71200030DF29540000010490756422527/1     08082011009BRASILIA            2908201100000000010241187CC                                                                                                                                                                                                                                                                                                                                                                                                         000004
1016421008591COBR_CAUC_BIC  GLOBOAVES SAO PAULO AGROAVICOLA LTD     075315333000109ATACADAO DISTRIBUICAO COMERCIO E I      AV MORVAN DIAS DE FIGUEIREDO,6199       SAO PAULO                               02170901SP295410000103142459054759      06082011007PAULISTA            2708201100000000013377000CC                                                                                                                                                                                                                                                                                                                                                                                                         000005
1028421003057COBR_CAUC_BIC  QUALIMIX SERV E CONCRETAGENS LTDA       019403252001242EMCCAMP RESIDENCIAL S/A                 R VARSOVIA LT 15 QD 04 ANEXO CID,1      UBERLANDIA                              38414523MG2954200001027289616504        08082011028UBERLANDIA          2608201100000000011000000CC                                                                                                                                                                                                                                                                                                                                                                                                         000006
1007421053076COBR_CAUC_BIC  WORLD TRACTOR COML IMP LTDA             033042730001348CIA SIDERURGICA NACIONAL                RUA ENG FRANCISCO PITTA BRITTO,138      SAO PAULO                               04753900SP2954300001007245983470        08082011007PAULISTA            1009201100000000071359392CC                                                                                                                                                                                                                                                                                                                                                                                                         000007
9000006                                                                                                                                                                                                                                                                                                                                                                                                                                                                                                                                                                                                                                                                                                               000008
