0REMESSANOTIFICACAO ELETRONICA        99999999999999BICBANCO                                AV. PAULISTA                            1048      12.ANDAR  BELA VISTA                    SAO PAULO                     01310100SP1121739360CORTINHAL                               COORDENADOR                             10092014                                                                                                                                                                                                                                                                                                                                                                                      000001
1032421026020COBR_CAUC_BIC  KARSTEN S/A                             053558342001593ANIS RAZUK IND E COM LTDA               RUA CAETANO PINTO,129                   SAO PAULO                               03041000SP4909500001030361470415265B01  29082014007PAULISTA            0403201500000000013329720CC                                                                                                                                                                                                                                                                                                                                                                                                         000002
1018421034834COBR_CAUC_BIC  LACEL LATICINIOS CERES LTDA             011596442004237CARVALHO & FERNANDES LTDA               AV.DEPUTADO PAULO FERRAZ, 4888 GALPAO 04TERESINA                                64078820PI490960000103830962005708      08092014042SAO LUIS            0711201400000000010878000CC                                                                                                                                                                                                                                                                                                                                                                                                         000003
1048421000338COBR_CAUC_COR  FRIGOESTRELA S A  EM RECUP JUDICIAL     023439441001323ARMAZEM MATEUS S.A.                     AV ENGENHEIRO EMILIANO MACIEIRA DE      SAO LUIS                                65095602MA4909700001086543010116810601  08092014900BRADESCO S/A        0810201400000000017979000CC                                                                                                                                                                                                                                                                                                                                                                                                         000004
1031421011181COBR_CAUC_BIC  AGROIND IRMAOS DALLA COSTA LTDA         011224864000103REAL FOODS COMERCIO ATAC DE GEN AL      AV AMERICAS, DAS SALA 1109         00844RIO DE JANEIRO                          22793081RJ49098000010544174713591/1     21082014014RIO DE JANEIRO      2009201400000000015660000CC                                                                                                                                                                                                                                                                                                                                                                                                         000005
1031421011181COBR_CAUC_BIC  AGROIND IRMAOS DALLA COSTA LTDA         064308299000129INTERCONTINENTAL COMERCIO DE ALIME      ROD PRESIDENTE DUTRA               01957SAO JOAO DE MER                         25515230RJ49099000010544175513636/1     23082014014RIO DE JANEIRO      2009201400000000015660000CC                                                                                                                                                                                                                                                                                                                                                                                                         000006
1021421016739COBR_CAUC_BIC  MULTIMARCAS COM DISTR PROD ALIM LTD     075315333000109ATACADAO DISTRIBUICAO COM E IND LT      AV MOVAN DIAS DE FIGUEIREDO, 6169       SAO PAULO                               02170901SP491000000106589550000016717   01092014007PAULISTA            3011201400000000027350719CC                                                                                                                                                                                                                                                                                                                                                                                                         000007
1021421017050COBR_CAUC_BIC  STAR DISTR PROD FARMACEUTICOS LTDA      061585865073701RAIA DROGASIL S/A                       RUA PATAXOS , 1412                      EMBU                                    06833073SP4910100001000049910000394101  08092014007PAULISTA            2209201400000000018616094CC                                                                                                                                                                                                                                                                                                                                                                                                         000008
1021421017050COBR_CAUC_BIC  STAR DISTR PROD FARMACEUTICOS LTDA      061585865073701RAIA DROGASIL S/A                       RUA PATAXOS , 1412                      EMBU                                    06833073SP4910100002000050250000394401  08092014007PAULISTA            2209201400000000015512489CC                                                                                                                                                                                                                                                                                                                                                                                                         000009
1021421017050COBR_CAUC_BIC  STAR DISTR PROD FARMACEUTICOS LTDA      061585865073701RAIA DROGASIL S/A                       RUA PATAXOS , 1412                      EMBU                                    06833073SP4910100003000050410000394801  09092014007PAULISTA            2309201400000000012117800CC                                                                                                                                                                                                                                                                                                                                                                                                         000010
1021421017050COBR_CAUC_BIC  STAR DISTR PROD FARMACEUTICOS LTDA      061585865073701RAIA DROGASIL S/A                       RUA PATAXOS , 1412                      EMBU                                    06833073SP4910100004000050760000395101  09092014007PAULISTA            2309201400000000014846841CC                                                                                                                                                                                                                                                                                                                                                                                                         000011
1021421017050COBR_CAUC_BIC  STAR DISTR PROD FARMACEUTICOS LTDA      061585865073701RAIA DROGASIL S/A                       RUA PATAXOS , 1412                      EMBU                                    06833073SP4910100005000051570000395901  09092014007PAULISTA            3009201400000000076289361CC                                                                                                                                                                                                                                                                                                                                                                                                         000012
1021421017050COBR_CAUC_BIC  STAR DISTR PROD FARMACEUTICOS LTDA      061585865073701RAIA DROGASIL S/A                       RUA PATAXOS , 1412                      EMBU                                    06833073SP4910100006000051650000396001  09092014007PAULISTA            3009201400000000013952546CC                                                                                                                                                                                                                                                                                                                                                                                                         000013
1021421017050COBR_CAUC_BIC  STAR DISTR PROD FARMACEUTICOS LTDA      061585865073701RAIA DROGASIL S/A                       RUA PATAXOS , 1412                      EMBU                                    06833073SP4910100007000051730000396101  09092014007PAULISTA            2309201400000000054915257CC                                                                                                                                                                                                                                                                                                                                                                                                         000014
1021421017050COBR_CAUC_BIC  STAR DISTR PROD FARMACEUTICOS LTDA      061585865073701RAIA DROGASIL S/A                       RUA PATAXOS , 1412                      EMBU                                    06833073SP4910100008000050090000394201  08092014022PAULISTA            2209201400000000017038993CC                                                                                                                                                                                                                                                                                                                                                                                                         000015
9000007                                                                                                                                                                                                                                                                                                                                                                                                                                                                                                                                                                                                                                                                                                               000016
