0REMESSANOTIFICACAO ELETRONICA        99999999999999BICBANCO                                AV. PAULISTA                            1048      12.ANDAR  BELA VISTA                    SAO PAULO                     01310100SP1121739360CORTINHAL                               COORDENADOR                             11032013                                                                                                                                                                                                                                                                                                                                                                                      000001
1006421012283COBR_CAUC_BIC  AERIS IND E COM DE E G DE ENERG S/A     008146882000100SUZLON ENERGIAEOLICA DO BRASIL LTD      AV SENADOR VIRGILIO TAVORA 195          FORTALEZA                               60170250CE408070000109421188494         05032013006BEZERRA             1904201300000000061675127CC                                                                                                                                                                                                                                                                                                                                                                                                         000002
1006421012283COBR_CAUC_BIC  AERIS IND E COM DE E G DE ENERG S/A     008146882000100SUZLON ENERGIAEOLICA DO BRASIL LTD      AV SENADOR VIRGILIO TAVORA 195          FORTALEZA                               60170250CE408070000209421196495         05032013006BEZERRA             1904201300000000061675127CC                                                                                                                                                                                                                                                                                                                                                                                                         000003
1006421012283COBR_CAUC_BIC  AERIS IND E COM DE E G DE ENERG S/A     008146882000100SUZLON ENERGIAEOLICA DO BRASIL LTD      AV SENADOR VIRGILIO TAVORA 195          FORTALEZA                               60170250CE408070000309421200496         05032013006BEZERRA             1904201300000000061675127CC                                                                                                                                                                                                                                                                                                                                                                                                         000004
1046421001443COBR_CAUC_COR  COSTAO DO SANTINHO TUR E LAZER LTDA     057443319000109TIVOLITUR VIAGENS E TURISMO LTDA        AV PAULISTA ,2202-2 ANDAR               SAO PAULO                               01310300SP408060000100009818161484      07032013900BRADESCO S/A        2603201300000000018378406CC                                                                                                                                                                                                                                                                                                                                                                                                         000005
1007421031242COBR_CAUC_BIC  GP GUARDA PATRIMONIAL DE S.P. LTDA      062144175000120BANCO PINE S A                          AV  DAS NACOES UNIDAS  8 501   29  E 30 SAO PAULO                               05425070SP40803000010007620190274       07032013007PAULISTA            0104201300000000026284312CC                                                                                                                                                                                                                                                                                                                                                                                                         000006
1007421031242COBR_CAUC_BIC  GP GUARDA PATRIMONIAL DE S.P. LTDA      000007618080860JOSE OSWALDO RIBEIRO DE MENDONCA        RUA CRISTOVAO DINIZ  67                 SAO PAULO                               01426020SP40804000010007635990312       07032013007PAULISTA            0104201300000000012751477CC                                                                                                                                                                                                                                                                                                                                                                                                         000007
1006420933059COBR_CAUC_BIC  IMARF BENEFICIAMENTO DE GRANITOS LT     000475251000122PAULO OCTAVIO INVESTIMENTOS IMOBIL      SCN QUADRA 01,125                       BRASILIA                                70711900DF4080500001094211533111        08032013009BRASILIA            0504201300000000010801736CC                                                                                                                                                                                                                                                                                                                                                                                                         000008
9000005                                                                                                                                                                                                                                                                                                                                                                                                                                                                                                                                                                                                                                                                                                               000009
