0REMESSANOTIFICACAO ELETRONICA        99999999999999BICBANCO                                AV. PAULISTA                            1048      12.ANDAR  BELA VISTA                    SAO PAULO                     01310100SP1121739360CORTINHAL                               COORDENADOR                             13082014                                                                                                                                                                                                                                                                                                                                                                                      000001
1018421034958DIR_CREDIT     VIACAO REUNIDAS LTDA                    033638032000176SIND EMP DE TRANSP COL URB PASSAG GOIÂNIAV DR IRANY ALVES FERREIRA, 298         GOIANIA                                 74465539GO4879600001                                                                                                                                          012640151           25032008000002349101/2007     06082014000401Adesão à bilhetagem eletrônica denominada "SIT-PASS - Sistema inteligente de tarifação de passagens" derivada do Contrato de Concessão nº 02/2008 paraexploração e operação dos serviços do LOTE Nº 03 - Concorrência 01/2007.                  001231646000142              000002
1020421002020COBR_CAUC_COR  GRABER SISTEMAS DE SEGURANCA LTDA       010588595000363MEDLEY COMERCIAL E LOGISTICA L          R ESTACIO DE SA, 1490 - JD SANTA GENEBRACAMPINAS                                13080010SP4880400001000179420000007909  11082014900BRADESCO S/A        0109201400000000014914867CC                                                                                                                                                                                                                                                                                                                                                                                                         000003
1048421002195COBR_CAUC_COR  SERVIMED COMERCIAL LTDA                 061585865065954RAIA DROGASIL S/A                       ROD PRESIDENTE DUTRA S/N                BARRA MANSA                             27338000RJ488050000102195541904463  22  08082014900BRADESCO S/A        0809201400000000021178344CC                                                                                                                                                                                                                                                                                                                                                                                                         000004
1048421002195COBR_CAUC_COR  SERVIMED COMERCIAL LTDA                 061585865065954RAIA DROGASIL S/A                       ROD PRESIDENTE DUTRA S/N                BARRA MANSA                             27338000RJ488050000202195550904464  22  08082014900BRADESCO S/A        0809201400000000011063534CC                                                                                                                                                                                                                                                                                                                                                                                                         000005
1048421000338COBR_CAUC_COR  FRIGOESTRELA S.A. EM RECUP JUDICIAL     060494416001530PAGUE MENOS COM.DE PROD.ALIMENTCIO      RUA ANCHIETA GALPAO No1599 GALPAO       NOVA ODESSA                             13460000SP4880600001085184400115599701  11082014900BRADESCO S/A        0809201400000000012430358CC                                                                                                                                                                                                                                                                                                                                                                                                         000006
1046421007085COBR_CAUC_BIC  H  F  SISTEMAS DE FREIO LTDA            011509676000121AUTO NORTE DISTRIBUIDORA DE PECAS       R PROFESSOR NESTOR BEZERRA, N266  C.U.C RECIFE                                  50950150PE488070000102476081023244      12082014010RECIFE              2511201400000000019400607CC                                                                                                                                                                                                                                                                                                                                                                                                         000007
1046421007085COBR_CAUC_BIC  H  F  SISTEMAS DE FREIO LTDA            011509676000121AUTO NORTE DISTRIBUIDORA DE PECAS       R PROFESSOR NESTOR BEZERRA, N266  C.U.C RECIFE                                  50950150PE488070000202476073023213      12082014013RECIFE              2511201400000000015714725CC                                                                                                                                                                                                                                                                                                                                                                                                         000008
1046421006070DIR_CREDIT     METALURGICA DS LTDA                     060857349000176TRW AUTOMOTIVE LTDA                     VIA ANHANGUERA KM 147                   LIMEIRA                                 13486915SP4882000001                                                                                                                                          012650800           260320070000018698            12082014000404fornecimento de discos e tambores de freio para automóveis.                                                                                                                                                                                     079414868000198              000009
9000006                                                                                                                                                                                                                                                                                                                                                                                                                                                                                                                                                                                                                                                                                                               000010
