0REMESSANOTIFICACAO ELETRONICA        99999999999999BICBANCO                                AV. PAULISTA                            1048      12.ANDAR  BELA VISTA                    SAO PAULO                     01310100SP1121739360CORTINHAL                               COORDENADOR                             14112012                                                                                                                                                                                                                                                                                                                                                                                      000001
1007421035337COBR_CAUC_BIC  COMERCIAL IMP.E EXP.CANTAREIRA LTDA     005054671001554LIDER COM E INDS  LTDA                   ROD. AUGUSTO MONTENEGRO KM -08, S/N    BELEM                                   66833000PA38823000010156443898155-001   12112012050BELEM               1601201300000000033625673CC                                                                                                                                                                                                                                                                                                                                                                                                         000002
1048421000338COBR_CAUC_COR  FRIGOESTRELA S.A. EM RECUP JUDICIAL     008712199000192IWABRAS ATACADISTA DE PROD. ALIM.       R ENGENHEIRO GUILHERME CRISTIANO F      SAO PAULO                               03477000SP3881800001030861690023645201  12112012900BRADESCO S/A        1012201200000000012019123CC                                                                                                                                                                                                                                                                                                                                                                                                         000003
1007421044581COBR_CAUC_BIC  GRANCARGA TRANSP. E GUINDASTES S/A.     035820448013548WHITE MARTINS GASES INDUSTRIAIS LT      AV. PASTOR MAR,126-SL 301 BL01,319      JOAO MONLEVADE                          20760005RJ388190000101564501FAT 002605  12112012014RIO DE JANEIRO      2612201200000000030753000CC                                                                                                                                                                                                                                                                                                                                                                                                         000004
1007421061559COBR_CAUC_BIC  PLASCAR IND DE COMP PLAST LTDA          016701716000156FIAT AUTOMOVEIS S/A                     RUA SENADOR MILTON CAMPOS,175 - 4  ANDARNOVA LIMA                               34000000MG3882000001015654511256783 01  18062012019BELO HORIZONTE      0302201300000000037837807CC                                                                                                                                                                                                                                                                                                                                                                                                         000005
1007421061559COBR_CAUC_BIC  PLASCAR IND DE COMP PLAST LTDA          016701716000156FIAT AUTOMOVEIS S/A                     RUA SENADOR MILTON CAMPOS,175 - 4  ANDARNOVA LIMA                               34000000MG3882000002015655070151145 01  09112012019BELO HORIZONTE      3101201300000000013508270CC                                                                                                                                                                                                                                                                                                                                                                                                         000006
1007421061559COBR_CAUC_BIC  PLASCAR IND DE COMP PLAST LTDA          059275792000826GENERAL MOTORS DO BRASIL LTDA.          AV. GOIAS, 1805                         SAO CAETANO DO                          09550900SP3882100001015654770356411 01  05112012038ABC                 0102201300000000027877705CC                                                                                                                                                                                                                                                                                                                                                                                                         000007
1007421061559COBR_CAUC_BIC  PLASCAR IND DE COMP PLAST LTDA          059275792000826GENERAL MOTORS DO BRASIL LTDA.          AV. GOIAS, 1805                         SAO CAETANO DO                          09550900SP3882100002015654850356412 01  05112012038ABC                 0202201300000000032557881CC                                                                                                                                                                                                                                                                                                                                                                                                         000008
1016421023299COBR_CAUC_BIC  SIDERQUIMICA IND COM PROD QUIM S/A      017245234000525CIA DE FIACAO E TECIDOS CEDRO E CA      RUA PARAIBA, 337                        BELO HORIZONTE                          30130140MG388220000103783713127720      06112012019BELO HORIZONTE      0501201300000000010692960CC                                                                                                                                                                                                                                                                                                                                                                                                         000009
9000006                                                                                                                                                                                                                                                                                                                                                                                                                                                                                                                                                                                                                                                                                                               000010
