0REMESSANOTIFICACAO ELETRONICA        99999999999999BICBANCO                                AV. PAULISTA                            1048      12.ANDAR  BELA VISTA                    SAO PAULO                     01310100SP1121739360CORTINHAL                               COORDENADOR                             11102012                                                                                                                                                                                                                                                                                                                                                                                      000001
1019421004658COBR_CAUC_COR  S/A ESTADO DE MINAS                     073312076000126SINDICATO I EXTRATIVAS O M P D P P      BERNARDO GUIMARAES 63 3 ANDAR           BELO HORIZONTE                          30140080MG3825900001011830321392907-1   09102012900BRADESCO S/A        3011201200000000012500000CC                                                                                                                                                                                                                                                                                                                                                                                                         000002
1007420931444COBR_CAUC_BIC  PLASINCO LTDA                           014197209000100CORDEIRO CABOS ELETRICOS SA             RUA  ILJIMA,1036                        FERRAZ DE VASCO                         08534000SP38260000010149363823542-3     09102012007PAULISTA            0812201200000000012840450CC                                                                                                                                                                                                                                                                                                                                                                                                         000003
1007420931444COBR_CAUC_BIC  PLASINCO LTDA                           014197209000100CORDEIRO CABOS ELETRICOS SA             RUA  ILJIMA,1036                        FERRAZ DE VASCO                         08534000SP38260000020149364623542-4     09102012007PAULISTA            2312201200000000012840450CC                                                                                                                                                                                                                                                                                                                                                                                                         000004
1048421000613COBR_CAUC_BIC  TRIANGULO ALIMENTOS LTDA                002399654000165VIDA ALIMENTOS LTDA                     R DOS PATRIOTAS                         SAO PAULO                               04207030SP382610000100613401049756-1    08102012007PAULISTA            0811201200000000015336000CC                                                                                                                                                                                                                                                                                                                                                                                                         000005
1031421009837COBR_CAUC_BIC  DIPLOMATA S/A  INDL. E COMERCIAL        003721769000278MASTERBOI LTDA                          AV .  DA RECUPERAÇAO  7380              RECIFE                                  52291000PE3826200001050635990174579-01  09102012010RECIFE              2311201200000000010143900CC                                                                                                                                                                                                                                                                                                                                                                                                         000006
1031421007850COBR_CAUC_BIC  AGRICOLA JANDELLE S/A                   003083231000790CEMA CENTRAL MINEIRA ATACADISTA LT      ROD BR 040 KM 688 S/N PAVILHAO 05 CEASA CONTAGEM                                32145900MG3826300001050625500009877401  10102012019BELO HORIZONTE      0911201200000000011157410CC                                                                                                                                                                                                                                                                                                                                                                                                         000007
1003421013987COBR_CAUC_COR  SCIENTIFIC COM E IMPORTACAO LTDA        063326243000215MED IMAGEM S/C LTDA                     RUA PAISSANDU,1842                      TERESINA                                64001120PI38264000010003219913520       10102012900BRADESCO S/A        3010201200000000017500000CC                                                                                                                                                                                                                                                                                                                                                                                                         000008
1038421011812COBR_CAUC_BIC  ENERGY COML IMPORT E EXPORT LTDA        014555032000168REPLAS COMERCIO DE RESINAS PLASTIC      AVENIDA PRESIDENTE WILSON ,5700         SAO PAULO                               04220002SP382650000109890529001969      05102012007PAULISTA            0111201200000000012295066CC                                                                                                                                                                                                                                                                                                                                                                                                         000009
1038421011812COBR_CAUC_BIC  ENERGY COML IMPORT E EXPORT LTDA        014555032000168REPLAS COMERCIO DE RESINAS PLASTIC      AVENIDA PRESIDENTE WILSON ,5700         SAO PAULO                               04220002SP382650000209890537001970      05102012007PAULISTA            0111201200000000012168950CC                                                                                                                                                                                                                                                                                                                                                                                                         000010
1038421011812COBR_CAUC_BIC  ENERGY COML IMPORT E EXPORT LTDA        014555032000168REPLAS COMERCIO DE RESINAS PLASTIC      AVENIDA PRESIDENTE WILSON ,5700         SAO PAULO                               04220002SP382650000309890545001986      08102012007PAULISTA            0711201200000000012327097CC                                                                                                                                                                                                                                                                                                                                                                                                         000011
1038421011812COBR_CAUC_BIC  ENERGY COML IMPORT E EXPORT LTDA        014555032000168REPLAS COMERCIO DE RESINAS PLASTIC      AVENIDA PRESIDENTE WILSON ,5700         SAO PAULO                               04220002SP382650000409890553001987      08102012007PAULISTA            0711201200000000012327097CC                                                                                                                                                                                                                                                                                                                                                                                                         000012
1038421011812COBR_CAUC_BIC  ENERGY COML IMPORT E EXPORT LTDA        014555032000168REPLAS COMERCIO DE RESINAS PLASTIC      AVENIDA PRESIDENTE WILSON ,5700         SAO PAULO                               04220002SP382650000509890561001988      08102012007PAULISTA            0711201200000000012327097CC                                                                                                                                                                                                                                                                                                                                                                                                         000013
1038421011812COBR_CAUC_BIC  ENERGY COML IMPORT E EXPORT LTDA        014555032000168REPLAS COMERCIO DE RESINAS PLASTIC      AVENIDA PRESIDENTE WILSON ,5700         SAO PAULO                               04220002SP382650000609890570001951      02102012007PAULISTA            0111201200000000011998897CC                                                                                                                                                                                                                                                                                                                                                                                                         000014
1038421011812COBR_CAUC_BIC  ENERGY COML IMPORT E EXPORT LTDA        014555032000168REPLAS COMERCIO DE RESINAS PLASTIC      AVENIDA PRESIDENTE WILSON ,5700         SAO PAULO                               04220002SP382650000709890588001965      05102012007PAULISTA            0111201200000000012295066CC                                                                                                                                                                                                                                                                                                                                                                                                         000015
1019421010259COBR_CAUC_COR  L & S INTERBANK FOMENTO LTDA            006043226000156MALIBU CONFINAMENTOS DE BOVINOS LT      AV GUANABARA, 2919 OESTE PLAZA SHOP     ANDRADINA                               16901100SP38266000010658651836772-2     09102012900BRADESCO S/A        1511201200000000011100000CC                                                                                                                                                                                                                                                                                                                                                                                                         000016
9000008                                                                                                                                                                                                                                                                                                                                                                                                                                                                                                                                                                                                                                                                                                               000017
