0REMESSANOTIFICACAO ELETRONICA        99999999999999BICBANCO                                AV. PAULISTA                            1048      12.ANDAR  BELA VISTA                    SAO PAULO                     01310100SP1121739360CORTINHAL                               COORDENADOR                             26022014                                                                                                                                                                                                                                                                                                                                                                                      000001
1048421002195COBR_CAUC_COR  SERVIMED COMERCIAL LTDA                 025102146001493IRMAOS MATTAR E CIA LTDA                RUA ADIB CADAH 443                      TEOFILO OTONI                           37704429MG465500000101489037249032  21  21022014900BRADESCO S/A        1803201400000000017087215CC                                                                                                                                                                                                                                                                                                                                                                                                         000002
1046421001443COBR_CAUC_COR  COSTAO DO SANTINHO TUR E LAZER LTDA     051780468000187JANSSEN CILAG FARMACEUTICA LTDA         RUA GERIVATIBA,207-8A A 11A ANDAR       SAO PAULO                               05501900SP46551000010001346725022014    25022014900BRADESCO S/A        1503201400000000080000000CC                                                                                                                                                                                                                                                                                                                                                                                                         000003
1007421061931COBR_CAUC_COR  EBF VAZ INDUSTRIA E COMERCIO LTDA       002513526000109CICLO CAIRU LTDA                        R Cairu 601                             Pimenta Bueno                           76970000RO46552000010269162000044491/1  24022014900BRADESCO S/A        2504201400000000014409775CC                                                                                                                                                                                                                                                                                                                                                                                                         000004
1007421034080COBR_CAUC_BIC  SIDMEX INTERNACIONAL LTDA               050607514000188KORECOM MODAS LTDA.                     JOSE PAULINO,664-666                    SAO PAULO                               01120000SP46553000010268722391113       25022014007PAULISTA            2004201400000000022719774CC                                                                                                                                                                                                                                                                                                                                                                                                         000005
9000004                                                                                                                                                                                                                                                                                                                                                                                                                                                                                                                                                                                                                                                                                                               000006
