0REMESSANOTIFICACAO ELETRONICA        99999999999999BICBANCO                                AV. PAULISTA                            1048      12.ANDAR  BELA VISTA                    SAO PAULO                     01310100SP1121739360CORTINHAL                               COORDENADOR                             08112013                                                                                                                                                                                                                                                                                                                                                                                      000001
1029141006836COBR_CAUC_COR  CTS EXPORTADORA DE FUMOS LTDA           068881150000195PHOENIX IND E COM DE TABACOS LTDA       RUA IRINEU JOSE BORDON,565              SAO PAULO                               05120060SP45151000010006725118-7        04112013900BRADESCO S/A        1804201400000000016000000TD                                                                                                                                                                                                                                                                                                                                                                                                         000002
1048421000338COBR_CAUC_COR  FRIGOESTRELA S.A. EM RECUP JUDICIAL     050947761001871IRMAOS RUSSI LTDA                       RUA LUIS ALLI FARDYN SALA 03, 590       CAJAMAR                                 07750000SP4515000001066588560031377901  06112013900BRADESCO S/A        0712201300000000014206104CC                                                                                                                                                                                                                                                                                                                                                                                                         000003
1007421055095COBR_CAUC_COR  PLASTER IND COM RESINAS PLAS EIRELI     062321138000140GRECO E GUERREIRO LTDA                  R ALBANO DONIZETE MIANO,91              MORUNGABA                               13260000SP451520000100017123037423/A    06112013900BRADESCO S/A        0402201400000000015041250CC                                                                                                                                                                                                                                                                                                                                                                                                         000004
1029421018494COBR_CAUC_COR  PRO SALUTE SERVICOS PARA SAUDE LTDA     088611264000122INTRAL S A IND DE MATERIAIS ELETRI      TRAV. RIO GRANDE , 130                  CAXIAS DO SUL                           95098750RS4514800001000678120139786.A   04112013900BRADESCO S/A        1012201300000000010745469CC                                                                                                                                                                                                                                                                                                                                                                                                         000005
1029421018494COBR_CAUC_COR  PRO SALUTE SERVICOS PARA SAUDE LTDA     093785822000106SAN MARINO ONIBUS LTDA                  IRMAO GILDO SCHIAVO, 110                CAXIAS DO SUL                           95058510RS4514900001000678210139833.A   04112013900BRADESCO S/A        2011201300000000019024300CC                                                                                                                                                                                                                                                                                                                                                                                                         000006
9000005                                                                                                                                                                                                                                                                                                                                                                                                                                                                                                                                                                                                                                                                                                               000007
