0REMESSANOTIFICACAO ELETRONICA        99999999999999BICBANCO                                AV. PAULISTA                            1048      12.ANDAR  BELA VISTA                    SAO PAULO                     01310100SP1121739360CORTINHAL                               COORDENADOR                             20032013                                                                                                                                                                                                                                                                                                                                                                                      000001
1050421000089COBR_CAUC_COR  ATIVO ALIMENTOS EXP E IMP EIRELI        027497684000135FRISA FRIGORIFICO RIO DOCE SA           R FIORAVANTE ROSSI 4000                 COLATINA                                29704700ES409520000100435669182597/1    18032013800UNIBANCO S/A        1504201300000000011009000CC                                                                                                                                                                                                                                                                                                                                                                                                         000002
1038421011812COBR_CAUC_BIC  ENERGY COML IMPORT E EXPORT LTDA        009363567000105PREMIX BRASIL RESINAS LTDA              AL ARAGUAIA,2044                        BARUERI                                 06455000SP409510000100051036002648      11032013007PAULISTA            2504201300000000010675689CC                                                                                                                                                                                                                                                                                                                                                                                                         000003
1038421011812COBR_CAUC_BIC  ENERGY COML IMPORT E EXPORT LTDA        009363567000105PREMIX BRASIL RESINAS LTDA              AL ARAGUAIA,2044                        BARUERI                                 06455000SP409510000200051044002649      11032013007PAULISTA            2504201300000000010675689CC                                                                                                                                                                                                                                                                                                                                                                                                         000004
1038421011812COBR_CAUC_BIC  ENERGY COML IMPORT E EXPORT LTDA        009363567000105PREMIX BRASIL RESINAS LTDA              AL ARAGUAIA,2044                        BARUERI                                 06455000SP409510000300051052002650      12032013007PAULISTA            2604201300000000011178045CC                                                                                                                                                                                                                                                                                                                                                                                                         000005
1038421011812COBR_CAUC_BIC  ENERGY COML IMPORT E EXPORT LTDA        009363567000105PREMIX BRASIL RESINAS LTDA              AL ARAGUAIA,2044                        BARUERI                                 06455000SP409510000400051061002651      12032013007PAULISTA            2604201300000000011178045CC                                                                                                                                                                                                                                                                                                                                                                                                         000006
9000002                                                                                                                                                                                                                                                                                                                                                                                                                                                                                                                                                                                                                                                                                                               000007
