0REMESSANOTIFICACAO ELETRONICA        99999999999999BICBANCO                                AV. PAULISTA                            1048      12.ANDAR  BELA VISTA                    SAO PAULO                     01310100SP1121739360CORTINHAL                               COORDENADOR                             01112011                                                                                                                                                                                                                                                                                                                                                                                      000001
1028481006214DIR_CREDIT     ARAGUAIA ENGENHARIA LTDA                025769548000121DMAE - DEPTO MUNICIPAL DE AGUA E ESGOTO RUA MARTINESIA 245                      UBERLANDIA                              38400606MG3008600001                                                                                                                                          011257406           181220090000011538158/2009    21122010000453execução das obras da 2º etapa da estação de tratamento de esgoto denominada ETE Uberabinha e do Interceptor de Esgoto denominado Interceptor do Córrego do Oleo, compreendendo pré operãção e operação.                                        019465574000163              000002
1028481006214DIR_CREDIT     ARAGUAIA ENGENHARIA LTDA                025769548000121DMAE - DEPTO MUNICIPAL DE AGUA E ESGOTO RUA MARTINESIA 245                      UBERLANDIA                              38400606MG3008700001                                                                                                                                          010833055           181220090000011538158/2009    03052010000403execução das obras da 2º etapa da estação de tratamento de esgoto denominada ETE Uberabinha e do Interceptor de Esgoto denominado Interceptor do Córrego do Oleo, compreendendo pré operãção e operação.                                        019465574000163              000003
1028481006214DIR_CREDIT     ARAGUAIA ENGENHARIA LTDA                025769548000121DMAE - DEPTO MUNICIPAL DE AGUA E ESGOTO RUA MARTINéSIA, 245 - APARECIDA         UBERLâNDIA                              38400606MG3008800001                                                                                                                                          011284330           2406201000000170500068/2010   21012011000403Contratação de empresa especializada em engenharia para ampliação da capacidade de reservação e distribuição de água.                                                                                                                           019465574000163              000004
1036421015412COBR_CAUC_BIC  IPERFOR INDUSTRIAL LTDA                 061497947000144CIP CIA INDL DE PECAS                   AV.MONTEIRO LOBATO,2487                 GUARULHOS                               07190000SP31645000010582195151232       31102011037GUARULHOS           0212201100000000010496278CC                                                                                                                                                                                                                                                                                                                                                                                                         000005
1014420939021COBR_CAUC_BIC  EDITORA O DIA S/A                       033130543000182CASAS GUANABARA COMESTIVEIS LTDA        DA AGUA BRANCA,3400                     RIO DE JANEIRO                          21720161RJ3164600001023730870616606     31102011014RIO DE JANEIRO      1511201100000000025354605CC                                                                                                                                                                                                                                                                                                                                                                                                         000006
1021141012725COBR_CAUC_BIC  MABE BRASIL ELETRODOMESTICOS LTDA       056642960000100LOJAS CEM S/A                           ROD.ENG.ERMENIO OLIVE 0, KM 46 S/N      SALTO                                   13329900SP3164700001062256470000055025  06102011021CAMPINAS            1111201100000000013471939TD                                                                                                                                                                                                                                                                                                                                                                                                         000007
1021141012725COBR_CAUC_BIC  MABE BRASIL ELETRODOMESTICOS LTDA       056642960000100LOJAS CEM S/A                           ROD.ENG.ERMENIO OLIVE 0, KM 46 S/N      SALTO                                   13329900SP3164700002062256630000055027  06102011021CAMPINAS            1111201100000000013183255TD                                                                                                                                                                                                                                                                                                                                                                                                         000008
1007421035337COBR_CAUC_COR  COML IMP E EXP LA RIOJA LTDA            008081791000133OURO AZUL DIST E IMP DE PROD ALIM       AV LAURITA ORTEGA MARI, 144             TABOAO DA SERRA                         06766360SP31648000010035560673365-001   27102011900BRADESCO S/A        2911201100000000014746174CC                                                                                                                                                                                                                                                                                                                                                                                                         000009
1016421019291COBR_CAUC_BIC  ITESA LTDA                              054625819002893EATON LTDA                              RUA CLARK N2061                         VALINHOS                                13279400SP31649000010322289416724       27102011021CAMPINAS            2811201100000000039048200CC                                                                                                                                                                                                                                                                                                                                                                                                         000010
1028441002110DIR_CREDIT     ARAGUAIA ENGENHARIA LTDA                025769548000121DMAE - DEPTO MUNICIPAL DE AGUA E ESGOTO  RUA MARTINESIA 245                     UBERLANDIA                              38400606MG3169900001                                                                                                                                          011393067           2406201000000146330067/2010   11042011000403ampliação da capacidade de tratamento de água da ETA Renato de Freitas "Sucupira".                                                                                                                                                              019465574000163              000011
1028441002110DIR_CREDIT     ARAGUAIA ENGENHARIA LTDA                025769548000121DMAE - DEPTO MUNICIPAL DE AGUA E ESGOTO  RUA MARTINESIA 245                     UBERLANDIA                              38400606MG3170000001                                                                                                                                          011507550           2406201000000146330067/2010   06072011000403ampliação da capacidade de tratamento de água da ETA Renato de Freitas "Sucupira".                                                                                                                                                              019465574000163              000012
1028441002110DIR_CREDIT     ARAGUAIA ENGENHARIA LTDA                025769548000121DMAE - DEPTO MUNICIPAL DE AGUA E ESGOTO  RUA MARTINESIA 245                     UBERLANDIA                              38400606MG3170100001                                                                                                                                          011598734           2406201000000146330067/2010   27092011000403ampliação da capacidade de tratamento de água da ETA Renato de Freitas "Sucupira".                                                                                                                                                              019465574000163              000013
1028441002110DIR_CREDIT     ARAGUAIA ENGENHARIA LTDA                025769548000121DMAE - DEPTO MUNICIPAL DE AGUA E ESGOTO RUA MARTINESIA 245                      UBERLANDIA                              38400606MG3170200001                                                                                                                                          010986277           181220090000011538158/2009    27052010000403execução das obras da 2º etapa da estação de tratamento de esgoto denominada ETE Uberabinha e do Interceptor de Esgoto denominado Interceptor do Córrego do Oleo, compreendendo pré operãção e operação.                                        019465574000163              000014
1028441002110DIR_CREDIT     ARAGUAIA ENGENHARIA LTDA                025769548000121DMAE - DEPTO MUNICIPAL DE AGUA E ESGOTO RUA MARTINESIA 245                      UBERLANDIA                              38400606MG3170300001                                                                                                                                          011103026           181220090000011538158/2009    27082010000453execução das obras da 2º etapa da estação de tratamento de esgoto denominada ETE Uberabinha e do Interceptor de Esgoto denominado Interceptor do Córrego do Oleo, compreendendo pré operãção e operação.                                        019465574000163              000015
9000013                                                                                                                                                                                                                                                                                                                                                                                                                                                                                                                                                                                                                                                                                                               000016
