0REMESSANOTIFICACAO ELETRONICA        99999999999999BICBANCO                                AV. PAULISTA                            1048      12.ANDAR  BELA VISTA                    SAO PAULO                     01310100SP1121739360CORTINHAL                               COORDENADOR                             30052014                                                                                                                                                                                                                                                                                                                                                                                      000001
1016421009571COBR_CAUC_BIC  IMPORTADORA DE FRUTAS LA VIOLETERA      004641376003828SUPERMERCADOS BH COMERCIO DE ALIME      AVENIDA GERALDO ROCHA 200               CONTAGEM                                32183054MG4773600001045168670029880501  27052014019BELO HORIZONTE      0807201400000000018865892CC                                                                                                                                                                                                                                                                                                                                                                                                         000002
1048421000338COBR_CAUC_COR  FRIGOESTRELA S.A. EM RECUP JUDICIAL     023439441001323ARMAZEM MATEUS S.A.                     AV ENGENHEIRO EMILIANO MACIEIRA DE      SAO LUIS                                65095602MA4773700001081830730112359601  28052014900BRADESCO S/A        2706201400000000012582166CC                                                                                                                                                                                                                                                                                                                                                                                                         000003
1048421000338COBR_CAUC_COR  FRIGOESTRELA S.A. EM RECUP JUDICIAL     023439441001323ARMAZEM MATEUS S.A.                     AV ENGENHEIRO EMILIANO MACIEIRA DE      SAO LUIS                                65095602MA4773700002081839870112371401  28052014900BRADESCO S/A        2706201400000000011827500CC                                                                                                                                                                                                                                                                                                                                                                                                         000004
1021421017050COBR_CAUC_BIC  STAR DISTR PROD FARMACEUTICOS LTDA      061549259000180DROGARIA ONOFRE LTDA                    PRACA DA SE , 170                       SAO PAULO                               01001000SP4773800001000014960000329201  26052014007PAULISTA            0207201400000000011550585CC                                                                                                                                                                                                                                                                                                                                                                                                         000005
1021421017050COBR_CAUC_BIC  STAR DISTR PROD FARMACEUTICOS LTDA      061585865000151RAIA DROGASIL S/A                       AVENIDA CORIFEU DE AZEVEDO MARQUES, 3097SAO PAULO                               05339000SP4773900001000015260000329801  27052014007PAULISTA            1006201400000000014392124CC                                                                                                                                                                                                                                                                                                                                                                                                         000006
1021421017050COBR_CAUC_BIC  STAR DISTR PROD FARMACEUTICOS LTDA      061585865000151RAIA DROGASIL S/A                       AVENIDA CORIFEU DE AZEVEDO MARQUES, 3097SAO PAULO                               05339000SP4773900002000015340000330101  28052014007PAULISTA            1207201400000000016498822CC                                                                                                                                                                                                                                                                                                                                                                                                         000007
1021421017050COBR_CAUC_BIC  STAR DISTR PROD FARMACEUTICOS LTDA      061585865000151RAIA DROGASIL S/A                       AVENIDA CORIFEU DE AZEVEDO MARQUES, 3097SAO PAULO                               05339000SP4773900003000016310000331001  28052014007PAULISTA            1207201400000000010983243CC                                                                                                                                                                                                                                                                                                                                                                                                         000008
1021421017050COBR_CAUC_BIC  STAR DISTR PROD FARMACEUTICOS LTDA      061585865000151RAIA DROGASIL S/A                       AVENIDA CORIFEU DE AZEVEDO MARQUES, 3097SAO PAULO                               05339000SP4773900004000016400000331201  28052014007PAULISTA            1207201400000000012894592CC                                                                                                                                                                                                                                                                                                                                                                                                         000009
1021421017050COBR_CAUC_BIC  STAR DISTR PROD FARMACEUTICOS LTDA      061585865000151RAIA DROGASIL S/A                       AVENIDA CORIFEU DE AZEVEDO MARQUES, 3097SAO PAULO                               05339000SP4773900005000015000000329901  27052014022PAULISTA            1006201400000000010756583CC                                                                                                                                                                                                                                                                                                                                                                                                         000010
1018421005230COBR_CAUC_COR  CENTROALCOOL S/A                        004930779000103SR DISTRIBUIDORA DE PETROLEO LTDA       AV PROGURESSO SN QD 1 LT 3 SALA 2       SENADOR CANEDO                          75250000GO47756000010353581252410/AB    11122013800UNIBANCO S/A        2106201400000000015000000CC                                                                                                                                                                                                                                                                                                                                                                                                         000011
1018421005230COBR_CAUC_COR  CENTROALCOOL S/A                        004930779000103SR DISTRIBUIDORA DE PETROLEO LTDA       AV PROGURESSO SN QD 1 LT 3 SALA 2       SENADOR CANEDO                          75250000GO47756000020353582152410/AC    11122013800UNIBANCO S/A        2107201400000000015000000CC                                                                                                                                                                                                                                                                                                                                                                                                         000012
1018421005230COBR_CAUC_COR  CENTROALCOOL S/A                        004930779000103SR DISTRIBUIDORA DE PETROLEO LTDA       AV PROGURESSO SN QD 1 LT 3 SALA 2       SENADOR CANEDO                          75250000GO47756000030353583952410/AD    11122013800UNIBANCO S/A        2108201400000000015000000CC                                                                                                                                                                                                                                                                                                                                                                                                         000013
1018421005230COBR_CAUC_COR  CENTROALCOOL S/A                        004930779000103SR DISTRIBUIDORA DE PETROLEO LTDA       AV PROGURESSO SN QD 1 LT 3 SALA 2       SENADOR CANEDO                          75250000GO47756000040353584752410/AE    11122013800UNIBANCO S/A        2109201400000000015000000CC                                                                                                                                                                                                                                                                                                                                                                                                         000014
1046421008936COBR_CAUC_COR  MG ELETRO COM IMP E EXP LTDA            000325400000177CEQUIPEL INDUSTRIA  DE  MOVEIS E C      AVENIDA RUI BARBOSA 2980,2980           SAO JOSE DOS PI                         83055320PR477570000100006410NF 13742/1  22052014900BRADESCO S/A        2107201400000000002500042CC                                                                                                                                                                                                                                                                                                                                                                                                         000015
1046421008936COBR_CAUC_COR  MG ELETRO COM IMP E EXP LTDA            000325400000177CEQUIPEL INDUSTRIA  DE  MOVEIS E C      AVENIDA RUI BARBOSA 2980,2980           SAO JOSE DOS PI                         83055320PR477570000200006428NF 13742/2  22052014900BRADESCO S/A        2008201400000000002500040CC                                                                                                                                                                                                                                                                                                                                                                                                         000016
1046421008936COBR_CAUC_COR  MG ELETRO COM IMP E EXP LTDA            000325400000177CEQUIPEL INDUSTRIA  DE  MOVEIS E C      AVENIDA RUI BARBOSA 2980,2980           SAO JOSE DOS PI                         83055320PR477570000300006436NF 13742/3  22052014900BRADESCO S/A        1909201400000000002500040CC                                                                                                                                                                                                                                                                                                                                                                                                         000017
1046421008936COBR_CAUC_COR  MG ELETRO COM IMP E EXP LTDA            000325400000177CEQUIPEL INDUSTRIA  DE  MOVEIS E C      AVENIDA RUI BARBOSA 2980,2980           SAO JOSE DOS PI                         83055320PR477570000400006380NF 13743/1  22052014900BRADESCO S/A        2107201400000000002334500CC                                                                                                                                                                                                                                                                                                                                                                                                         000018
1046421008936COBR_CAUC_COR  MG ELETRO COM IMP E EXP LTDA            000325400000177CEQUIPEL INDUSTRIA  DE  MOVEIS E C      AVENIDA RUI BARBOSA 2980,2980           SAO JOSE DOS PI                         83055320PR477570000500006398NF 13743/2  22052014900BRADESCO S/A        2008201400000000002334500CC                                                                                                                                                                                                                                                                                                                                                                                                         000019
1046421008936COBR_CAUC_COR  MG ELETRO COM IMP E EXP LTDA            000325400000177CEQUIPEL INDUSTRIA  DE  MOVEIS E C      AVENIDA RUI BARBOSA 2980,2980           SAO JOSE DOS PI                         83055320PR477570000600006401NF 13743/3  22052014900BRADESCO S/A        1909201400000000002334500CC                                                                                                                                                                                                                                                                                                                                                                                                         000020
9000006                                                                                                                                                                                                                                                                                                                                                                                                                                                                                                                                                                                                                                                                                                               000021
