0REMESSANOTIFICACAO ELETRONICA        99999999999999BICBANCO                                AV. PAULISTA                            1048      12.ANDAR  BELA VISTA                    SAO PAULO                     01310100SP1121739360CORTINHAL                               COORDENADOR                             05062014                                                                                                                                                                                                                                                                                                                                                                                      000001
1046421001443COBR_CAUC_COR  COSTAO DO SANTINHO TUR E LAZER LTDA     010696657000199MATCH SERVICOS DE EVENTOS               AV.DAS AMERICAS,3500-BL01-SL.619/0      RIO DE JANEIRO                          22640102RJ478390000100014269209840      03062014900BRADESCO S/A        2306201400000000014279831CC                                                                                                                                                                                                                                                                                                                                                                                                         000002
1007421013325COBR_CAUC_COR  SANTA CRUZ FOMENTO COMERCIAL LTDA       011385302000141NAVETRON IMPORTACAO E COM. DE TECN      Rua Coramandel, 41                      São Paulo                               05088010SP47848000010276980717333-F     21032014900BRADESCO S/A        1106201400000000005236645CC                                                                                                                                                                                                                                                                                                                                                                                                         000003
1007421013325COBR_CAUC_COR  SANTA CRUZ FOMENTO COMERCIAL LTDA       011385302000141NAVETRON IMPORTACAO E COM. DE TECN      Rua Coramandel, 41                      São Paulo                               05088010SP47848000020290367817502-E     05052013900BRADESCO S/A        0508201400000000004724331CC                                                                                                                                                                                                                                                                                                                                                                                                         000004
1007421013325COBR_CAUC_COR  SANTA CRUZ FOMENTO COMERCIAL LTDA       011385302000141NAVETRON IMPORTACAO E COM. DE TECN      Rua Coramandel, 41                      São Paulo                               05088010SP47848000030276981517502-H     21032014900BRADESCO S/A        1806201400000000004724331CC                                                                                                                                                                                                                                                                                                                                                                                                         000005
1007421013325COBR_CAUC_COR  SANTA CRUZ FOMENTO COMERCIAL LTDA       011385302000141NAVETRON IMPORTACAO E COM. DE TECN      Rua Coramandel, 41                      São Paulo                               05088010SP47848000040293104318217 -C    05052014900BRADESCO S/A        1809201400000000004808034CC                                                                                                                                                                                                                                                                                                                                                                                                         000006
1007421013325COBR_CAUC_COR  SANTA CRUZ FOMENTO COMERCIAL LTDA       011385302000141NAVETRON IMPORTACAO E COM. DE TECN      Rua Coramandel, 41                      São Paulo                               05088010SP47848000050275533418716-A.    14032014900BRADESCO S/A        2006201400000000003023217CC                                                                                                                                                                                                                                                                                                                                                                                                         000007
1007421013325COBR_CAUC_COR  SANTA CRUZ FOMENTO COMERCIAL LTDA       011385302000141NAVETRON IMPORTACAO E COM. DE TECN      Rua Coramandel, 41                      São Paulo                               05088010SP47848000060293105118716-C     05052014900BRADESCO S/A        1109201400000000003023217CC                                                                                                                                                                                                                                                                                                                                                                                                         000008
1007421013325COBR_CAUC_COR  SANTA CRUZ FOMENTO COMERCIAL LTDA       011385302000141NAVETRON IMPORTACAO E COM. DE TECN      Rua Coramandel, 41                      São Paulo                               05088010SP47848000070290368618716-D     05052014900BRADESCO S/A        2307201400000000003023217CC                                                                                                                                                                                                                                                                                                                                                                                                         000009
1007421013325COBR_CAUC_COR  SANTA CRUZ FOMENTO COMERCIAL LTDA       011385302000141NAVETRON IMPORTACAO E COM. DE TECN      Rua Coramandel, 41                      São Paulo                               05088010SP47848000080275532618716-E     14032014900BRADESCO S/A        0807201400000000003023216CC                                                                                                                                                                                                                                                                                                                                                                                                         000010
1007421013325COBR_CAUC_COR  SANTA CRUZ FOMENTO COMERCIAL LTDA       003216455000137NASCAR RODAS LTDA                       RUA  FLOR DE MACIEIRA 30                BELO HORIZONTE                          30810450MG47849000010289102510111-7     05052014900BRADESCO S/A        2808201400000000001002951CC                                                                                                                                                                                                                                                                                                                                                                                                         000011
1007421013325COBR_CAUC_COR  SANTA CRUZ FOMENTO COMERCIAL LTDA       003216455000137NASCAR RODAS LTDA                       RUA  FLOR DE MACIEIRA 30                BELO HORIZONTE                          30810450MG47849000020279961710077-3     01042014900BRADESCO S/A        0906201400000000001167188CC                                                                                                                                                                                                                                                                                                                                                                                                         000012
1007421013325COBR_CAUC_COR  SANTA CRUZ FOMENTO COMERCIAL LTDA       003216455000137NASCAR RODAS LTDA                       RUA  FLOR DE MACIEIRA 30                BELO HORIZONTE                          30810450MG47849000030279435610077-4     01042014900BRADESCO S/A        2706201400000000001167188CC                                                                                                                                                                                                                                                                                                                                                                                                         000013
1007421013325COBR_CAUC_COR  SANTA CRUZ FOMENTO COMERCIAL LTDA       003216455000137NASCAR RODAS LTDA                       RUA  FLOR DE MACIEIRA 30                BELO HORIZONTE                          30810450MG47849000040279436410077-5     01042014900BRADESCO S/A        1507201400000000001167188CC                                                                                                                                                                                                                                                                                                                                                                                                         000014
1007421013325COBR_CAUC_COR  SANTA CRUZ FOMENTO COMERCIAL LTDA       003216455000137NASCAR RODAS LTDA                       RUA  FLOR DE MACIEIRA 30                BELO HORIZONTE                          30810450MG47849000050279437210077-6     01042014900BRADESCO S/A        2907201400000000001167188CC                                                                                                                                                                                                                                                                                                                                                                                                         000015
1007421013325COBR_CAUC_COR  SANTA CRUZ FOMENTO COMERCIAL LTDA       003216455000137NASCAR RODAS LTDA                       RUA  FLOR DE MACIEIRA 30                BELO HORIZONTE                          30810450MG47849000060288869510077-9     30042014900BRADESCO S/A        1108201400000000001168246CC                                                                                                                                                                                                                                                                                                                                                                                                         000016
1007421013325COBR_CAUC_COR  SANTA CRUZ FOMENTO COMERCIAL LTDA       003216455000137NASCAR RODAS LTDA                       RUA  FLOR DE MACIEIRA 30                BELO HORIZONTE                          30810450MG47849000070288866110085-8     30042014900BRADESCO S/A        0408201400000000000985716CC                                                                                                                                                                                                                                                                                                                                                                                                         000017
1007421013325COBR_CAUC_COR  SANTA CRUZ FOMENTO COMERCIAL LTDA       003216455000137NASCAR RODAS LTDA                       RUA  FLOR DE MACIEIRA 30                BELO HORIZONTE                          30810450MG47849000080288868710085-9     30042014900BRADESCO S/A        0608201400000000000986606CC                                                                                                                                                                                                                                                                                                                                                                                                         000018
1007421013325COBR_CAUC_COR  SANTA CRUZ FOMENTO COMERCIAL LTDA       003216455000137NASCAR RODAS LTDA                       RUA  FLOR DE MACIEIRA 30                BELO HORIZONTE                          30810450MG47849000090288867910089-7     30042014900BRADESCO S/A        0508201400000000000993196CC                                                                                                                                                                                                                                                                                                                                                                                                         000019
1007421013325COBR_CAUC_COR  SANTA CRUZ FOMENTO COMERCIAL LTDA       003216455000137NASCAR RODAS LTDA                       RUA  FLOR DE MACIEIRA 30                BELO HORIZONTE                          30810450MG47849000100287284510096-1/10  30042014900BRADESCO S/A        2606201400000000000903121CC                                                                                                                                                                                                                                                                                                                                                                                                         000020
1007421013325COBR_CAUC_COR  SANTA CRUZ FOMENTO COMERCIAL LTDA       003216455000137NASCAR RODAS LTDA                       RUA  FLOR DE MACIEIRA 30                BELO HORIZONTE                          30810450MG47849000110287285310096-2/10  30042014900BRADESCO S/A        1807201400000000000903121CC                                                                                                                                                                                                                                                                                                                                                                                                         000021
1007421013325COBR_CAUC_COR  SANTA CRUZ FOMENTO COMERCIAL LTDA       003216455000137NASCAR RODAS LTDA                       RUA  FLOR DE MACIEIRA 30                BELO HORIZONTE                          30810450MG47849000120285928810096-6/10  17042014900BRADESCO S/A        1208201400000000000903121CC                                                                                                                                                                                                                                                                                                                                                                                                         000022
1007421013325COBR_CAUC_COR  SANTA CRUZ FOMENTO COMERCIAL LTDA       003216455000137NASCAR RODAS LTDA                       RUA  FLOR DE MACIEIRA 30                BELO HORIZONTE                          30810450MG47849000130285929610096-7/10  17042014900BRADESCO S/A        1408201400000000000903121CC                                                                                                                                                                                                                                                                                                                                                                                                         000023
1007421013325COBR_CAUC_COR  SANTA CRUZ FOMENTO COMERCIAL LTDA       003216455000137NASCAR RODAS LTDA                       RUA  FLOR DE MACIEIRA 30                BELO HORIZONTE                          30810450MG47849000140287064810098-5     25042014900BRADESCO S/A        0808201400000000001006648CC                                                                                                                                                                                                                                                                                                                                                                                                         000024
1007421013325COBR_CAUC_COR  SANTA CRUZ FOMENTO COMERCIAL LTDA       003216455000137NASCAR RODAS LTDA                       RUA  FLOR DE MACIEIRA 30                BELO HORIZONTE                          30810450MG47849000150287065610098-6     25042014900BRADESCO S/A        1508201400000000001006648CC                                                                                                                                                                                                                                                                                                                                                                                                         000025
1007421013325COBR_CAUC_COR  SANTA CRUZ FOMENTO COMERCIAL LTDA       003216455000137NASCAR RODAS LTDA                       RUA  FLOR DE MACIEIRA 30                BELO HORIZONTE                          30810450MG47849000160287066410098-7     25042014900BRADESCO S/A        2108201400000000001006648CC                                                                                                                                                                                                                                                                                                                                                                                                         000026
1007421013325COBR_CAUC_COR  SANTA CRUZ FOMENTO COMERCIAL LTDA       003216455000137NASCAR RODAS LTDA                       RUA  FLOR DE MACIEIRA 30                BELO HORIZONTE                          30810450MG47849000170288016310098-8     30042014900BRADESCO S/A        2808201400000000001006655CC                                                                                                                                                                                                                                                                                                                                                                                                         000027
1007421013325COBR_CAUC_COR  SANTA CRUZ FOMENTO COMERCIAL LTDA       003216455000137NASCAR RODAS LTDA                       RUA  FLOR DE MACIEIRA 30                BELO HORIZONTE                          30810450MG47849000180288865210108-1     30042014900BRADESCO S/A        1707201400000000001401468CC                                                                                                                                                                                                                                                                                                                                                                                                         000028
1007421013325COBR_CAUC_COR  SANTA CRUZ FOMENTO COMERCIAL LTDA       003216455000137NASCAR RODAS LTDA                       RUA  FLOR DE MACIEIRA 30                BELO HORIZONTE                          30810450MG47849000190288013910108-2     30042014900BRADESCO S/A        2207201400000000001401468CC                                                                                                                                                                                                                                                                                                                                                                                                         000029
1007421013325COBR_CAUC_COR  SANTA CRUZ FOMENTO COMERCIAL LTDA       003216455000137NASCAR RODAS LTDA                       RUA  FLOR DE MACIEIRA 30                BELO HORIZONTE                          30810450MG47849000200288014710108-3     30042014900BRADESCO S/A        3007201400000000001401468CC                                                                                                                                                                                                                                                                                                                                                                                                         000030
1007421013325COBR_CAUC_COR  SANTA CRUZ FOMENTO COMERCIAL LTDA       003216455000137NASCAR RODAS LTDA                       RUA  FLOR DE MACIEIRA 30                BELO HORIZONTE                          30810450MG47849000210288015510108-4     30042014900BRADESCO S/A        1308201400000000001401468CC                                                                                                                                                                                                                                                                                                                                                                                                         000031
1007421013325COBR_CAUC_COR  SANTA CRUZ FOMENTO COMERCIAL LTDA       003216455000137NASCAR RODAS LTDA                       RUA  FLOR DE MACIEIRA 30                BELO HORIZONTE                          30810450MG47849000220287286110108-5     30042014900BRADESCO S/A        1508201400000000001401468CC                                                                                                                                                                                                                                                                                                                                                                                                         000032
1007421013325COBR_CAUC_COR  SANTA CRUZ FOMENTO COMERCIAL LTDA       003216455000137NASCAR RODAS LTDA                       RUA  FLOR DE MACIEIRA 30                BELO HORIZONTE                          30810450MG47849000230287287010108-6     30042014900BRADESCO S/A        2208201400000000001401468CC                                                                                                                                                                                                                                                                                                                                                                                                         000033
1007421013325COBR_CAUC_COR  SANTA CRUZ FOMENTO COMERCIAL LTDA       003216455000137NASCAR RODAS LTDA                       RUA  FLOR DE MACIEIRA 30                BELO HORIZONTE                          30810450MG47849000240287288810108-7     30042014900BRADESCO S/A        2708201400000000001405397CC                                                                                                                                                                                                                                                                                                                                                                                                         000034
1007421013325COBR_CAUC_COR  SANTA CRUZ FOMENTO COMERCIAL LTDA       003216455000137NASCAR RODAS LTDA                       RUA  FLOR DE MACIEIRA 30                BELO HORIZONTE                          30810450MG47849000250290363510111-1     05052014900BRADESCO S/A        1407201400000000001002951CC                                                                                                                                                                                                                                                                                                                                                                                                         000035
1007421013325COBR_CAUC_COR  SANTA CRUZ FOMENTO COMERCIAL LTDA       003216455000137NASCAR RODAS LTDA                       RUA  FLOR DE MACIEIRA 30                BELO HORIZONTE                          30810450MG47849000260290364310111-2     05052014900BRADESCO S/A        2807201400000000001002951CC                                                                                                                                                                                                                                                                                                                                                                                                         000036
1007421013325COBR_CAUC_COR  SANTA CRUZ FOMENTO COMERCIAL LTDA       003216455000137NASCAR RODAS LTDA                       RUA  FLOR DE MACIEIRA 30                BELO HORIZONTE                          30810450MG47849000270289101710111-6     05052014900BRADESCO S/A        2608201400000000001002951CC                                                                                                                                                                                                                                                                                                                                                                                                         000037
1007421013325COBR_CAUC_COR  SANTA CRUZ FOMENTO COMERCIAL LTDA       003216455000137NASCAR RODAS LTDA                       RUA  FLOR DE MACIEIRA 30                BELO HORIZONTE                          30810450MG47849000280289103310111-8     05052014900BRADESCO S/A        0209201400000000001002951CC                                                                                                                                                                                                                                                                                                                                                                                                         000038
1007421013325COBR_CAUC_COR  SANTA CRUZ FOMENTO COMERCIAL LTDA       003216455000137NASCAR RODAS LTDA                       RUA  FLOR DE MACIEIRA 30                BELO HORIZONTE                          30810450MG47849000290290365110111-9     05052014900BRADESCO S/A        0409201400000000001003862CC                                                                                                                                                                                                                                                                                                                                                                                                         000039
1007421013325COBR_CAUC_COR  SANTA CRUZ FOMENTO COMERCIAL LTDA       003216455000137NASCAR RODAS LTDA                       RUA  FLOR DE MACIEIRA 30                BELO HORIZONTE                          30810450MG47849000300295737910135-9     22052014900BRADESCO S/A        2509201400000000000284835CC                                                                                                                                                                                                                                                                                                                                                                                                         000040
1007421013325COBR_CAUC_COR  SANTA CRUZ FOMENTO COMERCIAL LTDA       013317605000152TST COM DE PECAS AUTOMOTIVAS LTDA       RUA  TAQUARI,478                        BELO HORIZONTE                          31130370MG47850000010271800510057-10    10032014900BRADESCO S/A        0307201400000000000925327CC                                                                                                                                                                                                                                                                                                                                                                                                         000041
1007421013325COBR_CAUC_COR  SANTA CRUZ FOMENTO COMERCIAL LTDA       013317605000152TST COM DE PECAS AUTOMOTIVAS LTDA       RUA  TAQUARI,478                        BELO HORIZONTE                          31130370MG47850000020271794710057-7     10032014900BRADESCO S/A        0906201400000000000925324CC                                                                                                                                                                                                                                                                                                                                                                                                         000042
1007421013325COBR_CAUC_COR  SANTA CRUZ FOMENTO COMERCIAL LTDA       013317605000152TST COM DE PECAS AUTOMOTIVAS LTDA       RUA  TAQUARI,478                        BELO HORIZONTE                          31130370MG47850000030271795510057-8     10032014900BRADESCO S/A        1806201400000000000925324CC                                                                                                                                                                                                                                                                                                                                                                                                         000043
1007421013325COBR_CAUC_COR  SANTA CRUZ FOMENTO COMERCIAL LTDA       013317605000152TST COM DE PECAS AUTOMOTIVAS LTDA       RUA  TAQUARI,478                        BELO HORIZONTE                          31130370MG47850000040271799810057-9     10032014900BRADESCO S/A        2706201400000000000925324CC                                                                                                                                                                                                                                                                                                                                                                                                         000044
1007421013325COBR_CAUC_COR  SANTA CRUZ FOMENTO COMERCIAL LTDA       013317605000152TST COM DE PECAS AUTOMOTIVAS LTDA       RUA  TAQUARI,478                        BELO HORIZONTE                          31130370MG47850000050271798010058-7     10032014900BRADESCO S/A        1306201400000000000801823CC                                                                                                                                                                                                                                                                                                                                                                                                         000045
1007421013325COBR_CAUC_COR  SANTA CRUZ FOMENTO COMERCIAL LTDA       013317605000152TST COM DE PECAS AUTOMOTIVAS LTDA       RUA  TAQUARI,478                        BELO HORIZONTE                          31130370MG47850000060271801310058-8     10032014900BRADESCO S/A        2406201400000000000801823CC                                                                                                                                                                                                                                                                                                                                                                                                         000046
1007421013325COBR_CAUC_COR  SANTA CRUZ FOMENTO COMERCIAL LTDA       013317605000152TST COM DE PECAS AUTOMOTIVAS LTDA       RUA  TAQUARI,478                        BELO HORIZONTE                          31130370MG47850000070271802110058-9     10032014900BRADESCO S/A        0207201400000000000801823CC                                                                                                                                                                                                                                                                                                                                                                                                         000047
1007421013325COBR_CAUC_COR  SANTA CRUZ FOMENTO COMERCIAL LTDA       013317605000152TST COM DE PECAS AUTOMOTIVAS LTDA       RUA  TAQUARI,478                        BELO HORIZONTE                          31130370MG47850000080277385510070-07    26032014900BRADESCO S/A        1807201400000000001257439CC                                                                                                                                                                                                                                                                                                                                                                                                         000048
1007421013325COBR_CAUC_COR  SANTA CRUZ FOMENTO COMERCIAL LTDA       013317605000152TST COM DE PECAS AUTOMOTIVAS LTDA       RUA  TAQUARI,478                        BELO HORIZONTE                          31130370MG47850000090277386310070-08    26032014900BRADESCO S/A        2507201400000000001257445CC                                                                                                                                                                                                                                                                                                                                                                                                         000049
1007421013325COBR_CAUC_COR  SANTA CRUZ FOMENTO COMERCIAL LTDA       013317605000152TST COM DE PECAS AUTOMOTIVAS LTDA       RUA  TAQUARI,478                        BELO HORIZONTE                          31130370MG47850000100279101210071-06    31032014900BRADESCO S/A        3006201400000000001004897CC                                                                                                                                                                                                                                                                                                                                                                                                         000050
1007421013325COBR_CAUC_COR  SANTA CRUZ FOMENTO COMERCIAL LTDA       013317605000152TST COM DE PECAS AUTOMOTIVAS LTDA       RUA  TAQUARI,478                        BELO HORIZONTE                          31130370MG47850000110279102110071-08    31032014900BRADESCO S/A        2307201400000000001004902CC                                                                                                                                                                                                                                                                                                                                                                                                         000051
1007421013325COBR_CAUC_COR  SANTA CRUZ FOMENTO COMERCIAL LTDA       013317605000152TST COM DE PECAS AUTOMOTIVAS LTDA       RUA  TAQUARI,478                        BELO HORIZONTE                          31130370MG47850000120288864410091-1     30042014900BRADESCO S/A        1606201400000000000981979CC                                                                                                                                                                                                                                                                                                                                                                                                         000052
1007421013325COBR_CAUC_COR  SANTA CRUZ FOMENTO COMERCIAL LTDA       013317605000152TST COM DE PECAS AUTOMOTIVAS LTDA       RUA  TAQUARI,478                        BELO HORIZONTE                          31130370MG47850000130288870910091-8     30042014900BRADESCO S/A        1908201400000000000981979CC                                                                                                                                                                                                                                                                                                                                                                                                         000053
1007421013325COBR_CAUC_COR  SANTA CRUZ FOMENTO COMERCIAL LTDA       013317605000152TST COM DE PECAS AUTOMOTIVAS LTDA       RUA  TAQUARI,478                        BELO HORIZONTE                          31130370MG47850000140288871710091-9     30042014900BRADESCO S/A        2208201400000000000982868CC                                                                                                                                                                                                                                                                                                                                                                                                         000054
1007421013325COBR_CAUC_COR  SANTA CRUZ FOMENTO COMERCIAL LTDA       015447934000577PH DISTRIB MULT RODAS LTDA ME           AVENIDA  SETE 15                        SAO LUIS                                65052650MA47851000010280817910088-2     09042014900BRADESCO S/A        1507201400000000003337245CC                                                                                                                                                                                                                                                                                                                                                                                                         000055
1007421013325COBR_CAUC_COR  SANTA CRUZ FOMENTO COMERCIAL LTDA       009291916000112PH AUTOMOTIVOS LTDA ME                  RUA CORONEL ALEXANDRINO 778             FORTALEZA                               60420700CE47852000010290366010080-3     30042014900BRADESCO S/A        2807201400000000003497695CC                                                                                                                                                                                                                                                                                                                                                                                                         000056
1007421013325COBR_CAUC_COR  SANTA CRUZ FOMENTO COMERCIAL LTDA       059179838000307PIRELLI PNEUS LTDA                      AV. GIONANNI BAPTISTA PIRELLI, 871      SANTO ANDRE                             09111340SP4785300001028509068226/1-1    14042014900BRADESCO S/A        1006201400000000003790500CC                                                                                                                                                                                                                                                                                                                                                                                                         000057
1007421013325COBR_CAUC_COR  SANTA CRUZ FOMENTO COMERCIAL LTDA       020146676000367CIAFAL - COM. E IND. DE ARTEF. DE       RUA  WILSON SANTOS, 653                 DIVINOPOLIS                             35502286MG47854000010274741246364-02.   14032014900BRADESCO S/A        1407201400000000004715529CC                                                                                                                                                                                                                                                                                                                                                                                                         000058
1007421013325COBR_CAUC_COR  SANTA CRUZ FOMENTO COMERCIAL LTDA       003439316003350CONSTRUDECOR S/A                        RUA DOS PATRIOTAS, 1212,.               SAO PAULO                               04207040SP47855000010271807268228E-1/1  10032014900BRADESCO S/A        2406201400000000002465893CC                                                                                                                                                                                                                                                                                                                                                                                                         000059
1007421013325COBR_CAUC_COR  SANTA CRUZ FOMENTO COMERCIAL LTDA       003439316003350CONSTRUDECOR S/A                        RUA DOS PATRIOTAS, 1212,.               SAO PAULO                               04207040SP47855000020293106068259E-1/1  12032014900BRADESCO S/A        2506201400000000002465893CC                                                                                                                                                                                                                                                                                                                                                                                                         000060
1007421013325COBR_CAUC_COR  SANTA CRUZ FOMENTO COMERCIAL LTDA       033042730001771CSN CIA SIDERURGICA NA                  RODOVIA  LUCIO MEIRA BR 393 KM 5,001    VOLTA REDONDA                           27260390RJ4785600001029573612611        23052014900BRADESCO S/A        2508201400000000005000000CC                                                                                                                                                                                                                                                                                                                                                                                                         000061
1007421013325COBR_CAUC_COR  SANTA CRUZ FOMENTO COMERCIAL LTDA       006837645000593PINTOS LTDA                             AV PROF. VALTER ALENCAR,1674 ZN SUL,.   TERESINA                                64019625PI47857000010278163768992E-2/3  28032014900BRADESCO S/A        0907201400000000000266702CC                                                                                                                                                                                                                                                                                                                                                                                                         000062
1007421013325COBR_CAUC_COR  SANTA CRUZ FOMENTO COMERCIAL LTDA       006837645000593PINTOS LTDA                             AV PROF. VALTER ALENCAR,1674 ZN SUL,.   TERESINA                                64019625PI47857000020278164568992E-3/3  28032014900BRADESCO S/A        2407201400000000000266702CC                                                                                                                                                                                                                                                                                                                                                                                                         000063
1007421013325COBR_CAUC_COR  SANTA CRUZ FOMENTO COMERCIAL LTDA       017608707000188ELIANE SILVA DE MELO COMERCIAL DE       R BARAO DE ITAPETININGA 68,.-           SAO PAULO                               01042000SP47858000010287273069547E-2/3  24042014900BRADESCO S/A        2207201400000000000067017CC                                                                                                                                                                                                                                                                                                                                                                                                         000064
1007421013325COBR_CAUC_COR  SANTA CRUZ FOMENTO COMERCIAL LTDA       017608707000188ELIANE SILVA DE MELO COMERCIAL DE       R BARAO DE ITAPETININGA 68,.-           SAO PAULO                               01042000SP47858000020287075369547E-3/3  24042014900BRADESCO S/A        2108201400000000000067017CC                                                                                                                                                                                                                                                                                                                                                                                                         000065
1007421013325COBR_CAUC_COR  SANTA CRUZ FOMENTO COMERCIAL LTDA       017608707000188ELIANE SILVA DE MELO COMERCIAL DE       R BARAO DE ITAPETININGA 68,.-           SAO PAULO                               01042000SP47858000030287274869548E-2/3  24042014900BRADESCO S/A        2207201400000000000049007CC                                                                                                                                                                                                                                                                                                                                                                                                         000066
1007421013325COBR_CAUC_COR  SANTA CRUZ FOMENTO COMERCIAL LTDA       017608707000188ELIANE SILVA DE MELO COMERCIAL DE       R BARAO DE ITAPETININGA 68,.-           SAO PAULO                               01042000SP47858000040287076169548E-3/3  24042014900BRADESCO S/A        2108201400000000000049007CC                                                                                                                                                                                                                                                                                                                                                                                                         000067
1007421013325COBR_CAUC_COR  SANTA CRUZ FOMENTO COMERCIAL LTDA       017608707000188ELIANE SILVA DE MELO COMERCIAL DE       R BARAO DE ITAPETININGA 68,.-           SAO PAULO                               01042000SP47858000050285933469549E-1/3  24042014900BRADESCO S/A        2206201400000000000104286CC                                                                                                                                                                                                                                                                                                                                                                                                         000068
1007421013325COBR_CAUC_COR  SANTA CRUZ FOMENTO COMERCIAL LTDA       017608707000188ELIANE SILVA DE MELO COMERCIAL DE       R BARAO DE ITAPETININGA 68,.-           SAO PAULO                               01042000SP47858000060285934269549E-2/3  24042014900BRADESCO S/A        2207201400000000000101218CC                                                                                                                                                                                                                                                                                                                                                                                                         000069
1007421013325COBR_CAUC_COR  SANTA CRUZ FOMENTO COMERCIAL LTDA       017608707000188ELIANE SILVA DE MELO COMERCIAL DE       R BARAO DE ITAPETININGA 68,.-           SAO PAULO                               01042000SP47858000070285935169549E-3/3  24042014900BRADESCO S/A        2108201400000000000101218CC                                                                                                                                                                                                                                                                                                                                                                                                         000070
1007421013325COBR_CAUC_COR  SANTA CRUZ FOMENTO COMERCIAL LTDA       017608707000188ELIANE SILVA DE MELO COMERCIAL DE       R BARAO DE ITAPETININGA 68,.-           SAO PAULO                               01042000SP47858000080287275669551E-2/3  24042014900BRADESCO S/A        2207201400000000000038426CC                                                                                                                                                                                                                                                                                                                                                                                                         000071
1007421013325COBR_CAUC_COR  SANTA CRUZ FOMENTO COMERCIAL LTDA       017608707000188ELIANE SILVA DE MELO COMERCIAL DE       R BARAO DE ITAPETININGA 68,.-           SAO PAULO                               01042000SP47858000090287077069551E-3/3  24042014900BRADESCO S/A        2108201400000000000038426CC                                                                                                                                                                                                                                                                                                                                                                                                         000072
1007421013325COBR_CAUC_COR  SANTA CRUZ FOMENTO COMERCIAL LTDA       083754234000151DISTRIBUIDORA BIG BENN LTDA             AVENIDA ALMIRANTE BARROSO, 544 B        BELEM                                   66613710PA47859000010279109868985E-2/3  28032014900BRADESCO S/A        2606201400000000000313175CC                                                                                                                                                                                                                                                                                                                                                                                                         000073
1007421013325COBR_CAUC_COR  SANTA CRUZ FOMENTO COMERCIAL LTDA       083754234000151DISTRIBUIDORA BIG BENN LTDA             AVENIDA ALMIRANTE BARROSO, 544 B        BELEM                                   66613710PA47859000020278161168985E-3/3  28032014900BRADESCO S/A        2607201400000000000313175CC                                                                                                                                                                                                                                                                                                                                                                                                         000074
1007421013325COBR_CAUC_COR  SANTA CRUZ FOMENTO COMERCIAL LTDA       004163519000303LEGABRI UTILIDADES DO LAR LTDA - M      R. EMILIO ZALUAR , 92                   RIO DE JANEIRO                          21020310RJ47860000010279113668990E-2/3  28032014900BRADESCO S/A        2606201400000000000421317CC                                                                                                                                                                                                                                                                                                                                                                                                         000075
1007421013325COBR_CAUC_COR  SANTA CRUZ FOMENTO COMERCIAL LTDA       004163519000303LEGABRI UTILIDADES DO LAR LTDA - M      R. EMILIO ZALUAR , 92                   RIO DE JANEIRO                          21020310RJ47860000020278162968990E-3/3  28032014900BRADESCO S/A        2607201400000000000421570CC                                                                                                                                                                                                                                                                                                                                                                                                         000076
1007421013325COBR_CAUC_COR  SANTA CRUZ FOMENTO COMERCIAL LTDA       011705549000106EBM - DISTRIBUICAO E LOGISTICA LTD      R JOAO PEDRO 172,.-                     SAO PAULO                               04781040SP47861000010271806468226E-3/3  10032014900BRADESCO S/A        2406201400000000000402858CC                                                                                                                                                                                                                                                                                                                                                                                                         000077
1007421013325COBR_CAUC_COR  SANTA CRUZ FOMENTO COMERCIAL LTDA       011705549000106EBM - DISTRIBUICAO E LOGISTICA LTD      R JOAO PEDRO 172,.-                     SAO PAULO                               04781040SP47861000020293107868263E-3/3  16052014900BRADESCO S/A        2506201400000000000268572CC                                                                                                                                                                                                                                                                                                                                                                                                         000078
1007421013325COBR_CAUC_COR  SANTA CRUZ FOMENTO COMERCIAL LTDA       011705549000106EBM - DISTRIBUICAO E LOGISTICA LTD      R JOAO PEDRO 172,.-                     SAO PAULO                               04781040SP47861000030293108668366E-3/3  16052014900BRADESCO S/A        2606201400000000000402858CC                                                                                                                                                                                                                                                                                                                                                                                                         000079
1007421013325COBR_CAUC_COR  SANTA CRUZ FOMENTO COMERCIAL LTDA       010309449000190CALDEIRARIA JAMBEIRENSE-USINAG IND      RUA PRIMAVERA 137                       JAMBEIRO                                12270000SP47862000010285941520172/2     24042014900BRADESCO S/A        0907201400000000001329600CC                                                                                                                                                                                                                                                                                                                                                                                                         000080
1007421013325COBR_CAUC_COR  SANTA CRUZ FOMENTO COMERCIAL LTDA       033032442001574LOJAS MAGAL DE UTILIDADES LTDA          RUA CONDE DE AGROLONGO,1166 A ENTR R.SANRIO DE JANEIRO                          21020190RJ47863000010276991268809E-1/2  25032014900BRADESCO S/A        2206201400000000000454537CC                                                                                                                                                                                                                                                                                                                                                                                                         000081
1007421013325COBR_CAUC_COR  SANTA CRUZ FOMENTO COMERCIAL LTDA       033032442001574LOJAS MAGAL DE UTILIDADES LTDA          RUA CONDE DE AGROLONGO,1166 A ENTR R.SANRIO DE JANEIRO                          21020190RJ47863000020276992168809E-2/2  25032014900BRADESCO S/A        0707201400000000000454537CC                                                                                                                                                                                                                                                                                                                                                                                                         000082
1007421013325COBR_CAUC_COR  SANTA CRUZ FOMENTO COMERCIAL LTDA       033032442001574LOJAS MAGAL DE UTILIDADES LTDA          RUA CONDE DE AGROLONGO,1166 A ENTR R.SANRIO DE JANEIRO                          21020190RJ47863000030279105568989E-2/3  28032014900BRADESCO S/A        1107201400000000000286536CC                                                                                                                                                                                                                                                                                                                                                                                                         000083
1007421013325COBR_CAUC_COR  SANTA CRUZ FOMENTO COMERCIAL LTDA       033032442001574LOJAS MAGAL DE UTILIDADES LTDA          RUA CONDE DE AGROLONGO,1166 A ENTR R.SANRIO DE JANEIRO                          21020190RJ47863000040279112868989E-3/3  28032014900BRADESCO S/A        2607201400000000000278109CC                                                                                                                                                                                                                                                                                                                                                                                                         000084
1007421013325COBR_CAUC_COR  SANTA CRUZ FOMENTO COMERCIAL LTDA       013030696000140TECNO X ENGENHARIA DE EQUIPAMENTOS      RUA CASABLANCA, 183                     BELO HORIZONTE                          31365160MG4786400001026971642014/16     25022014900BRADESCO S/A        2006201400000000001591570CC                                                                                                                                                                                                                                                                                                                                                                                                         000085
1007421013325COBR_CAUC_COR  SANTA CRUZ FOMENTO COMERCIAL LTDA       004493892000160GIGAPLAST INDUSTRIA E                   AVENIDA SAUDADE, 140                    MORUNGABA                               13260000SP4786500001029573521052.5      14052014900BRADESCO S/A        1208201400000000001792400CC                                                                                                                                                                                                                                                                                                                                                                                                         000086
1007421013325COBR_CAUC_COR  SANTA CRUZ FOMENTO COMERCIAL LTDA       013762947000181ELELSEG-ELETRONICA DE SEGURANCA LT      RUA  CASTELO BRANCO, 351 LOJA           BELO HORIZONTE                          31365170MG4786600001027910392014/28A    31032014900BRADESCO S/A        3006201400000000001855800CC                                                                                                                                                                                                                                                                                                                                                                                                         000087
1007421013325COBR_CAUC_COR  SANTA CRUZ FOMENTO COMERCIAL LTDA       014055516000300MOBLY COMERCIO VAREJISTA LTDA.          RUA MAJOR PALADINO , 128,.              SAO PAULO                               05307000SP47867000010268450067783E-3/3  24022014900BRADESCO S/A        0906201400000000000464847CC                                                                                                                                                                                                                                                                                                                                                                                                         000088
1007421013325COBR_CAUC_COR  SANTA CRUZ FOMENTO COMERCIAL LTDA       014055516000300MOBLY COMERCIO VAREJISTA LTDA.          RUA MAJOR PALADINO , 128,.              SAO PAULO                               05307000SP47867000020293109468808E-2/2  16052014900BRADESCO S/A        0407201400000000000433496CC                                                                                                                                                                                                                                                                                                                                                                                                         000089
1007421013325COBR_CAUC_COR  SANTA CRUZ FOMENTO COMERCIAL LTDA       014055516000300MOBLY COMERCIO VAREJISTA LTDA.          RUA MAJOR PALADINO , 128,.              SAO PAULO                               05307000SP47867000030293110868980E-1/2  16052014900BRADESCO S/A        2606201400000000000482373CC                                                                                                                                                                                                                                                                                                                                                                                                         000090
1007421013325COBR_CAUC_COR  SANTA CRUZ FOMENTO COMERCIAL LTDA       014055516000300MOBLY COMERCIO VAREJISTA LTDA.          RUA MAJOR PALADINO , 128,.              SAO PAULO                               05307000SP47867000040279106368980E-2/2  28032014900BRADESCO S/A        1107201400000000000482373CC                                                                                                                                                                                                                                                                                                                                                                                                         000091
1007421013325COBR_CAUC_COR  SANTA CRUZ FOMENTO COMERCIAL LTDA       083261420001554BISTEK SUPERMERCADOS LTDA               RODOVIA BR 101,S/N,.                    IÇARA                                   88820000SC47868000010293111669371E-1/1  16052014900BRADESCO S/A        1807201400000000002122080CC                                                                                                                                                                                                                                                                                                                                                                                                         000092
1007421013325COBR_CAUC_COR  SANTA CRUZ FOMENTO COMERCIAL LTDA       008851080000109CENTRAL LAMINADOS DE FERRO E AÇO L      RUA  WILSON SANTOS                      DIVINOPOLIS                             35502286MG47869000010271803019768-a     10032014900BRADESCO S/A        0706201400000000002503200CC                                                                                                                                                                                                                                                                                                                                                                                                         000093
1007421013325COBR_CAUC_COR  SANTA CRUZ FOMENTO COMERCIAL LTDA       011334003000188DRV DISTR DE RODAS E PECAS LTDA         RUA TEODORO DA SILVA, 584               RIO DE JANEIRO                          20560001RJ47870000010276026510066-05    20032014900BRADESCO S/A        1407201400000000002505870CC                                                                                                                                                                                                                                                                                                                                                                                                         000094
1007421013325COBR_CAUC_COR  SANTA CRUZ FOMENTO COMERCIAL LTDA       062270186002019PRECOLANDIA COMERCIAL LTDA - LOJA       AV. ALVARO RAMOS , 271,.                SAO PAULO                               03330000SP47871000010276987451235E-1/1  25032014900BRADESCO S/A        2606201400000000000478500CC                                                                                                                                                                                                                                                                                                                                                                                                         000095
1007421013325COBR_CAUC_COR  SANTA CRUZ FOMENTO COMERCIAL LTDA       062270186002019PRECOLANDIA COMERCIAL LTDA - LOJA       AV. ALVARO RAMOS , 271,.                SAO PAULO                               03330000SP47871000020276988251314E-1/1  25032014900BRADESCO S/A        2606201400000000000073516CC                                                                                                                                                                                                                                                                                                                                                                                                         000096
1007421013325COBR_CAUC_COR  SANTA CRUZ FOMENTO COMERCIAL LTDA       062270186002019PRECOLANDIA COMERCIAL LTDA - LOJA       AV. ALVARO RAMOS , 271,.                SAO PAULO                               03330000SP47871000030276982357097E-1/1  25032014900BRADESCO S/A        2606201400000000000305240CC                                                                                                                                                                                                                                                                                                                                                                                                         000097
1007421013325COBR_CAUC_COR  SANTA CRUZ FOMENTO COMERCIAL LTDA       062270186002019PRECOLANDIA COMERCIAL LTDA - LOJA       AV. ALVARO RAMOS , 271,.                SAO PAULO                               03330000SP47871000040276983157102E-1/1  25032014900BRADESCO S/A        2606201400000000000567763CC                                                                                                                                                                                                                                                                                                                                                                                                         000098
1007421013325COBR_CAUC_COR  SANTA CRUZ FOMENTO COMERCIAL LTDA       062270186002019PRECOLANDIA COMERCIAL LTDA - LOJA       AV. ALVARO RAMOS , 271,.                SAO PAULO                               03330000SP47871000050276984057139E-1/1  25032014900BRADESCO S/A        2606201400000000000668252CC                                                                                                                                                                                                                                                                                                                                                                                                         000099
1007421013325COBR_CAUC_COR  SANTA CRUZ FOMENTO COMERCIAL LTDA       062270186002019PRECOLANDIA COMERCIAL LTDA - LOJA       AV. ALVARO RAMOS , 271,.                SAO PAULO                               03330000SP47871000060276985857191E-1/1  25032014900BRADESCO S/A        2606201400000000000135780CC                                                                                                                                                                                                                                                                                                                                                                                                         000100
1007421013325COBR_CAUC_COR  SANTA CRUZ FOMENTO COMERCIAL LTDA       062270186002019PRECOLANDIA COMERCIAL LTDA - LOJA       AV. ALVARO RAMOS , 271,.                SAO PAULO                               03330000SP47871000070276986657192E-1/1  25032014900BRADESCO S/A        2606201400000000000101835CC                                                                                                                                                                                                                                                                                                                                                                                                         000101
1007421013325COBR_CAUC_COR  SANTA CRUZ FOMENTO COMERCIAL LTDA       062270186002019PRECOLANDIA COMERCIAL LTDA - LOJA       AV. ALVARO RAMOS , 271,.                SAO PAULO                               03330000SP47871000080275537768351E-1/1  14032014900BRADESCO S/A        1106201400000000000168965CC                                                                                                                                                                                                                                                                                                                                                                                                         000102
1007421013325COBR_CAUC_COR  SANTA CRUZ FOMENTO COMERCIAL LTDA       062270186002019PRECOLANDIA COMERCIAL LTDA - LOJA       AV. ALVARO RAMOS , 271,.                SAO PAULO                               03330000SP47871000090275538568352E-1/1  14032014900BRADESCO S/A        1106201400000000000168965CC                                                                                                                                                                                                                                                                                                                                                                                                         000103
1007421013325COBR_CAUC_COR  SANTA CRUZ FOMENTO COMERCIAL LTDA       050601392000112COMFERPE COM IMP EXP FER PNEUMATIC      RUA MAZZINI, 401                        SAO PAULO                               01528000SP4787200001027738474301-2/4    26032014900BRADESCO S/A        1606201400000000002875000CC                                                                                                                                                                                                                                                                                                                                                                                                         000104
1007421013325COBR_CAUC_COR  SANTA CRUZ FOMENTO COMERCIAL LTDA       076189406004032CONDOR SUPER CENTER LTDA                AV WINSTON CHURCHILL,2222               CURITIBA                                81150050PR47873000010277018068481E-2/2  17032014900BRADESCO S/A        1706201400000000000176217CC                                                                                                                                                                                                                                                                                                                                                                                                         000105
1007421013325COBR_CAUC_COR  SANTA CRUZ FOMENTO COMERCIAL LTDA       076189406004032CONDOR SUPER CENTER LTDA                AV WINSTON CHURCHILL,2222               CURITIBA                                81150050PR47873000020277020168482E-2/2  17032014900BRADESCO S/A        1506201400000000000159934CC                                                                                                                                                                                                                                                                                                                                                                                                         000106
1007421013325COBR_CAUC_COR  SANTA CRUZ FOMENTO COMERCIAL LTDA       076189406004032CONDOR SUPER CENTER LTDA                AV WINSTON CHURCHILL,2222               CURITIBA                                81150050PR47873000030277021068483E-2/2  17032014900BRADESCO S/A        1506201400000000000140977CC                                                                                                                                                                                                                                                                                                                                                                                                         000107
1007421013325COBR_CAUC_COR  SANTA CRUZ FOMENTO COMERCIAL LTDA       076189406004032CONDOR SUPER CENTER LTDA                AV WINSTON CHURCHILL,2222               CURITIBA                                81150050PR47873000040277022868484E-2/2  17032014900BRADESCO S/A        1506201400000000000158592CC                                                                                                                                                                                                                                                                                                                                                                                                         000108
1007421013325COBR_CAUC_COR  SANTA CRUZ FOMENTO COMERCIAL LTDA       076189406004032CONDOR SUPER CENTER LTDA                AV WINSTON CHURCHILL,2222               CURITIBA                                81150050PR47873000050279116168804E-1/2  25032014900BRADESCO S/A        1406201400000000000189326CC                                                                                                                                                                                                                                                                                                                                                                                                         000109
1007421013325COBR_CAUC_COR  SANTA CRUZ FOMENTO COMERCIAL LTDA       076189406004032CONDOR SUPER CENTER LTDA                AV WINSTON CHURCHILL,2222               CURITIBA                                81150050PR47873000060277387168804E-2/2  25032014900BRADESCO S/A        2906201400000000000189326CC                                                                                                                                                                                                                                                                                                                                                                                                         000110
1007421013325COBR_CAUC_COR  SANTA CRUZ FOMENTO COMERCIAL LTDA       076189406004032CONDOR SUPER CENTER LTDA                AV WINSTON CHURCHILL,2222               CURITIBA                                81150050PR47873000070279110168805E-1/2  25032014900BRADESCO S/A        1606201400000000000232957CC                                                                                                                                                                                                                                                                                                                                                                                                         000111
1007421013325COBR_CAUC_COR  SANTA CRUZ FOMENTO COMERCIAL LTDA       076189406004032CONDOR SUPER CENTER LTDA                AV WINSTON CHURCHILL,2222               CURITIBA                                81150050PR47873000080276989168806E-1/2  25032014900BRADESCO S/A        1806201400000000000218557CC                                                                                                                                                                                                                                                                                                                                                                                                         000112
1007421013325COBR_CAUC_COR  SANTA CRUZ FOMENTO COMERCIAL LTDA       076189406004032CONDOR SUPER CENTER LTDA                AV WINSTON CHURCHILL,2222               CURITIBA                                81150050PR47873000090276990468806E-2/2  25032014900BRADESCO S/A        0307201400000000000218557CC                                                                                                                                                                                                                                                                                                                                                                                                         000113
1007421013325COBR_CAUC_COR  SANTA CRUZ FOMENTO COMERCIAL LTDA       076189406004032CONDOR SUPER CENTER LTDA                AV WINSTON CHURCHILL,2222               CURITIBA                                81150050PR47873000100278158168981E-1/2  28032014900BRADESCO S/A        0707201400000000000221506CC                                                                                                                                                                                                                                                                                                                                                                                                         000114
1007421013325COBR_CAUC_COR  SANTA CRUZ FOMENTO COMERCIAL LTDA       076189406004032CONDOR SUPER CENTER LTDA                AV WINSTON CHURCHILL,2222               CURITIBA                                81150050PR47873000110278159968981E-2/2  28032014900BRADESCO S/A        2207201400000000000221506CC                                                                                                                                                                                                                                                                                                                                                                                                         000115
1007421013325COBR_CAUC_COR  SANTA CRUZ FOMENTO COMERCIAL LTDA       076189406004032CONDOR SUPER CENTER LTDA                AV WINSTON CHURCHILL,2222               CURITIBA                                81150050PR47873000120279107168982E-1/2  28032014900BRADESCO S/A        1107201400000000000185068CC                                                                                                                                                                                                                                                                                                                                                                                                         000116
1007421013325COBR_CAUC_COR  SANTA CRUZ FOMENTO COMERCIAL LTDA       076189406004032CONDOR SUPER CENTER LTDA                AV WINSTON CHURCHILL,2222               CURITIBA                                81150050PR47873000130279108068982E-2/2  28032014900BRADESCO S/A        2607201400000000000185068CC                                                                                                                                                                                                                                                                                                                                                                                                         000117
1007421013325COBR_CAUC_COR  SANTA CRUZ FOMENTO COMERCIAL LTDA       076189406004032CONDOR SUPER CENTER LTDA                AV WINSTON CHURCHILL,2222               CURITIBA                                81150050PR47873000140285939368983E-1/2  28032014900BRADESCO S/A        0907201400000000000228031CC                                                                                                                                                                                                                                                                                                                                                                                                         000118
1007421013325COBR_CAUC_COR  SANTA CRUZ FOMENTO COMERCIAL LTDA       076189406004032CONDOR SUPER CENTER LTDA                AV WINSTON CHURCHILL,2222               CURITIBA                                81150050PR47873000150278160268983E-2/2  28032014900BRADESCO S/A        2407201400000000000228031CC                                                                                                                                                                                                                                                                                                                                                                                                         000119
1007421069410COBR_CAUC_COR  FULL COMEX TRADING S/A                  019376786000174GLOBIMPORT COMERCIO E IMPORTACAO L      AVE 100 S/N QUADRA: 01  LOTE: M04 M05 M0SERRA                                   29161384ES478740000102959291966.2       13052014700BANCO REAL- ABN AMRO0707201400000000004040174CC                                                                                                                                                                                                                                                                                                                                                                                                         000120
1007421069410COBR_CAUC_COR  FULL COMEX TRADING S/A                  019376786000174GLOBIMPORT COMERCIO E IMPORTACAO L      AVE 100 S/N QUADRA: 01  LOTE: M04 M05 M0SERRA                                   29161384ES478740000202959304967.2       13052014700BANCO REAL- ABN AMRO0707201400000000004824910CC                                                                                                                                                                                                                                                                                                                                                                                                         000121
1007421069410COBR_CAUC_COR  FULL COMEX TRADING S/A                  019376786000174GLOBIMPORT COMERCIO E IMPORTACAO L      AVE 100 S/N QUADRA: 01  LOTE: M04 M05 M0SERRA                                   29161384ES478740000302959312969.2       13052014700BANCO REAL- ABN AMRO1407201400000000002990439CC                                                                                                                                                                                                                                                                                                                                                                                                         000122
1007421069410COBR_CAUC_COR  FULL COMEX TRADING S/A                  019376786000174GLOBIMPORT COMERCIO E IMPORTACAO L      AVE 100 S/N QUADRA: 01  LOTE: M04 M05 M0SERRA                                   29161384ES478740000402959321971.2       13052014700BANCO REAL- ABN AMRO0707201400000000002043601CC                                                                                                                                                                                                                                                                                                                                                                                                         000123
1007421069410COBR_CAUC_COR  FULL COMEX TRADING S/A                  019376786000174GLOBIMPORT COMERCIO E IMPORTACAO L      AVE 100 S/N QUADRA: 01  LOTE: M04 M05 M0SERRA                                   29161384ES478740000502959339976.2       14052014700BANCO REAL- ABN AMRO2807201400000000003426564CC                                                                                                                                                                                                                                                                                                                                                                                                         000124
1007421069410COBR_CAUC_COR  FULL COMEX TRADING S/A                  019376786000174GLOBIMPORT COMERCIO E IMPORTACAO L      AVE 100 S/N QUADRA: 01  LOTE: M04 M05 M0SERRA                                   29161384ES478740000602959347979.2       14052014700BANCO REAL- ABN AMRO1407201400000000003593638CC                                                                                                                                                                                                                                                                                                                                                                                                         000125
9000028                                                                                                                                                                                                                                                                                                                                                                                                                                                                                                                                                                                                                                                                                                               000126
