0REMESSANOTIFICACAO ELETRONICA        99999999999999BICBANCO                                AV. PAULISTA                            1048      12.ANDAR  BELA VISTA                    SAO PAULO                     01310100SP1121739360CORTINHAL                               COORDENADOR                             11032014                                                                                                                                                                                                                                                                                                                                                                                      000001
1018421034397COBR_CAUC_COR  MISSIONEIRA COM E REP AGROP LTDA        000052947700910YOISHIO BENTO KUMASSAKA                 R.CANDIDO PORTINARI Q17 LT8, 270        LUIS EDUARDO MA                         47850000BA46716000010349557819690/01    29102013900BRADESCO S/A        3005201400000000019000000CC                                                                                                                                                                                                                                                                                                                                                                                                         000002
1018421002380COBR_CAUC_COR  FERTILIZANTES ALIANCA LTDA.             000014555391802FLAMERSON DIAS DE OLIVEIRA              R.PRES.KENNEDY Q.9 LT1 -BANDEIRANTES    CALDAS NOVAS                            75690000GO467170000103518021A1347856B   05122013700BANCO REAL- ABN AMRO3005201400000000013360800CC                                                                                                                                                                                                                                                                                                                                                                                                         000003
1018421002380COBR_CAUC_COR  FERTILIZANTES ALIANCA LTDA.             000014555391802FLAMERSON DIAS DE OLIVEIRA              R.PRES.KENNEDY Q.9 LT1 -BANDEIRANTES    CALDAS NOVAS                            75690000GO467170000203518039A1347856A   05122013700BANCO REAL- ABN AMRO3005201400000000013360800CC                                                                                                                                                                                                                                                                                                                                                                                                         000004
1028421001518COBR_CAUC_COR  GAIA AGRIBUSINESS AGRICOLA LTDA         000048494836153JOSE ADONIZETE DA COSTA                 AV.STA.CATARINA 180- S.FRANCISCO        GOIATUBA                                75600000GO46718000010297284646089       10122013900BRADESCO S/A        2505201400000000017390000CC                                                                                                                                                                                                                                                                                                                                                                                                         000005
1028421001518COBR_CAUC_COR  GAIA AGRIBUSINESS AGRICOLA LTDA         000048494836153JOSE ADONIZETE DA COSTA                 AV.STA.CATARINA 180- S.FRANCISCO        GOIATUBA                                75600000GO46718000020297285446090       10122013900BRADESCO S/A        0506201400000000017392000CC                                                                                                                                                                                                                                                                                                                                                                                                         000006
1019421011492COBR_CAUC_BIC  SECULUS DA AMAZONIA IND. E COM. S/A     027197888007597DUFRY DO BRASIL DUTY FREE SHOP LTD      RUA DA ASSEMBLEIA 51, 10 ANDAR          RIO DE JANEIRO                          20011001RJ467000000106836158123453001   05022014014RIO DE JANEIRO      0805201400000000015379434CC                                                                                                                                                                                                                                                                                                                                                                                                         000007
1007421061990COBR_CAUC_COR  BRASIL MAQUINAS E EQUIP PESADOS S/A     018795934000122CONSORCIO CONTEK - A. MADEIRA           ROD BR-101 NORTE - KM 260 S/N,0         SERRA                                   29170022ES46701000010271639817715A      28022014700BANCO REAL- ABN AMRO1004201400000000024000000CC                                                                                                                                                                                                                                                                                                                                                                                                         000008
1007421061990COBR_CAUC_COR  BRASIL MAQUINAS E EQUIP PESADOS S/A     018795934000122CONSORCIO CONTEK - A. MADEIRA           ROD BR-101 NORTE - KM 260 S/N,0         SERRA                                   29170022ES46701000020271640117715B      28022014700BANCO REAL- ABN AMRO1005201400000000024000000CC                                                                                                                                                                                                                                                                                                                                                                                                         000009
1007421061990COBR_CAUC_COR  BRASIL MAQUINAS E EQUIP PESADOS S/A     018795934000122CONSORCIO CONTEK - A. MADEIRA           ROD BR-101 NORTE - KM 260 S/N,0         SERRA                                   29170022ES46701000030271641017715C      28022014700BANCO REAL- ABN AMRO1006201400000000024000000CC                                                                                                                                                                                                                                                                                                                                                                                                         000010
1007421061990COBR_CAUC_COR  BRASIL MAQUINAS E EQUIP PESADOS S/A     018795934000122CONSORCIO CONTEK - A. MADEIRA           ROD BR-101 NORTE - KM 260 S/N,0         SERRA                                   29170022ES46701000040271642817715D      28022014700BANCO REAL- ABN AMRO1007201400000000024000000CC                                                                                                                                                                                                                                                                                                                                                                                                         000011
1048421003043COBR_CAUC_COR  FRIGOL S.A. EM RECUPERACAO JUDICIAL     008029696000352ESTIVAS NOVO PRADO LTDA                 VINTE DE JANEIRO 958                    RECIFE                                  51130120PE46702000010006921200000444-1  08032014900BRADESCO S/A        1703201400000000020761230CC                                                                                                                                                                                                                                                                                                                                                                                                         000012
9000006                                                                                                                                                                                                                                                                                                                                                                                                                                                                                                                                                                                                                                                                                                               000013
