0REMESSANOTIFICACAO ELETRONICA        99999999999999BICBANCO                                AV. PAULISTA                            1048      12.ANDAR  BELA VISTA                    SAO PAULO                     01310100SP1121739360CORTINHAL                               COORDENADOR                             15072014                                                                                                                                                                                                                                                                                                                                                                                      000001
1016421009571COBR_CAUC_BIC  IMPORTADORA DE FRUTAS LA VIOLETERA      006314327000203JC DIST LOGISTICA IMP EXP PROD IND      RUA 1 QD1 LOTE 2 S/N                    APARECIDA DE GO                         74980970GO4845900001045640550002837001  09072014018GOIANIA             0608201400000000013743551CC                                                                                                                                                                                                                                                                                                                                                                                                         000002
1006441006860COBR_CAUC_BIC  MONT GRANITOS S/A                       005599839000101CONDOMINIO ITAU POWER SHOPPING          BC. DELA VOLPE,5160                     CONTAGEM                                32210110MG4846000001099440244262        11072014019BELO HORIZONTE      1308201400000000011480000CC                                                                                                                                                                                                                                                                                                                                                                                                         000003
1031421012447COBR_CAUC_COR  AGRICOLA JANDELLE S/A                   075315333000109ATACADAO DISTRIBUICAO COMERCIO E I      AVENIDA MOVAN DIAS DE FIGUEIREDO 6169   SAO PAULO                               02170901SP4846100001060044720007956701  12072014900BRADESCO S/A        1108201400000000017548351CC                                                                                                                                                                                                                                                                                                                                                                                                         000004
1031421012447COBR_CAUC_COR  AGRICOLA JANDELLE S/A                   075315333000109ATACADAO DISTRIBUICAO COMERCIO E I      AVENIDA MOVAN DIAS DE FIGUEIREDO 6169   SAO PAULO                               02170901SP4846100002060045020007956801  12072014900BRADESCO S/A        1108201400000000012600000CC                                                                                                                                                                                                                                                                                                                                                                                                         000005
1048421000338COBR_CAUC_COR  FRIGOESTRELA S.A. EM RECUP JUDICIAL     060494416001530PAGUE MENOS COM.DE PROD.ALIMENTCIO      RUA ANCHIETA GALPAO No1599 GALPAO       NOVA ODESSA                             13460000SP4846200001084224690114326001  12072014900BRADESCO S/A        0908201400000000012289520CC                                                                                                                                                                                                                                                                                                                                                                                                         000006
9000004                                                                                                                                                                                                                                                                                                                                                                                                                                                                                                                                                                                                                                                                                                               000007
