0REMESSANOTIFICACAO ELETRONICA        99999999999999BICBANCO                                AV. PAULISTA                            1048      12.ANDAR  BELA VISTA                    SAO PAULO                     01310100SP1121739360CORTINHAL                               COORDENADOR                             18122013                                                                                                                                                                                                                                                                                                                                                                                      000001
1018421005230COBR_CAUC_COR  CENTROALCOOL S/A                        004930779000103SR DISTRIBUIDORA DE PETROLEO LTDA       AV.NITERIOI C/COPAC Q.04L.R1/1          SENADOR CANEDO                          75250000GO45726000010353580452410/AA    11122013800UNIBANCO S/A        2105201400000000015000000CC                                                                                                                                                                                                                                                                                                                                                                                                         000002
1018421005230COBR_CAUC_COR  CENTROALCOOL S/A                        004930779000103SR DISTRIBUIDORA DE PETROLEO LTDA       AV.NITERIOI C/COPAC Q.04L.R1/1          SENADOR CANEDO                          75250000GO45726000020353581252410/AB    11122013800UNIBANCO S/A        2106201400000000015000000CC                                                                                                                                                                                                                                                                                                                                                                                                         000003
1018421005230COBR_CAUC_COR  CENTROALCOOL S/A                        004930779000103SR DISTRIBUIDORA DE PETROLEO LTDA       AV.NITERIOI C/COPAC Q.04L.R1/1          SENADOR CANEDO                          75250000GO45726000030353582152410/AC    11122013800UNIBANCO S/A        2107201400000000015000000CC                                                                                                                                                                                                                                                                                                                                                                                                         000004
1018421005230COBR_CAUC_COR  CENTROALCOOL S/A                        004930779000103SR DISTRIBUIDORA DE PETROLEO LTDA       AV.NITERIOI C/COPAC Q.04L.R1/1          SENADOR CANEDO                          75250000GO45726000040353583952410/AD    11122013800UNIBANCO S/A        2108201400000000015000000CC                                                                                                                                                                                                                                                                                                                                                                                                         000005
1018421005230COBR_CAUC_COR  CENTROALCOOL S/A                        004930779000103SR DISTRIBUIDORA DE PETROLEO LTDA       AV.NITERIOI C/COPAC Q.04L.R1/1          SENADOR CANEDO                          75250000GO45726000050353584752410/AE    11122013800UNIBANCO S/A        2109201400000000015000000CC                                                                                                                                                                                                                                                                                                                                                                                                         000006
1048421000338COBR_CAUC_COR  FRIGOESTRELA S.A. EM RECUP JUDICIAL     023439441001323ARMAZEM MATEUS S.A.                     AV ENGENHEIRO EMILIANO MACIEIRA DE      SAO LUIS                                65095602MA4572500001071082130104353801  16122013900BRADESCO S/A        1501201400000000013708025CC                                                                                                                                                                                                                                                                                                                                                                                                         000007
1031421009896COBR_CAUC_COR  LATICINIOS LATCO LTDA                   003418509000147OCEANICA COMERCIO GENEROS ALIMENT.      RODOVIA PR 323 KM 310 LOTE 14           UMUARAMA                                87507013PR457210000101011233168215/1    16122013900BRADESCO S/A        2312201300000000011386703CC                                                                                                                                                                                                                                                                                                                                                                                                         000008
1031421009896COBR_CAUC_COR  LATICINIOS LATCO LTDA                   077766608000156FRIGOVEL COMERCIAL DE PRODUTOS FRI      RUA CARLOS CHAGAS, 769                  CASCAVEL                                85816310PR457230000101013015168412/1    16122013900BRADESCO S/A        2412201300000000010276046CC                                                                                                                                                                                                                                                                                                                                                                                                         000009
1031421009896COBR_CAUC_COR  LATICINIOS LATCO LTDA                   005391760000190COLINA ALIMENTOS LTDA                   RUA DAS FIGUEIRAS, 70 GALPAO 2          CARIACICA                               29156846ES457220000101012973168404/1    16122013900BRADESCO S/A        2412201300000000022975301CC                                                                                                                                                                                                                                                                                                                                                                                                         000010
1028421002921COBR_CAUC_COR  MATABOI ALIMENTOS S/A - EM REC.JUD.     002982267000408NAVI CARNES - INDUSTRIA E COMERCIO      RODOVIA ASSIS CHATEAUBRIAND  KM 47      PIRAPOZINHO                             19200000SP4572000001004853950012504501  16122013900BRADESCO S/A        2312201300000000016376007CC                                                                                                                                                                                                                                                                                                                                                                                                         000011
1007421055095COBR_CAUC_COR  PLASTER IND COM RESINAS PLAS EIRELI     000217622000176LATINA                                  AV GETULIO VARGAS ,2700                 SAO CARLOS                              13571272SP457270000100017671038422/A    16122013900BRADESCO S/A        1502201400000000016406250CC                                                                                                                                                                                                                                                                                                                                                                                                         000012
1007421055095COBR_CAUC_COR  PLASTER IND COM RESINAS PLAS EIRELI     045420726000111TEXTIL ITAJA LTDA                       RUA PROJETADA II,75                     SALTO DE PIRAPO                         18160000SP457280000100017620038430/A    16122013900BRADESCO S/A        2501201400000000017180625CC                                                                                                                                                                                                                                                                                                                                                                                                         000013
1022421009730COBR_CAUC_COR  SIMISA SIMIONI METALURGICA LTDA         007914230001420TONON BIOENERGIA S/A                    FAZ.PARAISO, S/N ,0                     BROTAS                                  17380000SP457240000104677888NF25945/06  17122013700BANCO REAL- ABN AMRO1504201400000000010199996CC                                                                                                                                                                                                                                                                                                                                                                                                         000014
9000009                                                                                                                                                                                                                                                                                                                                                                                                                                                                                                                                                                                                                                                                                                               000015
