0REMESSANOTIFICACAO ELETRONICA        99999999999999BICBANCO                                AV. PAULISTA                            1048      12.ANDAR  BELA VISTA                    SAO PAULO                     01310100SP1121739360CORTINHAL                               COORDENADOR                             22112011                                                                                                                                                                                                                                                                                                                                                                                      000001
1021420930887COBR_CAUC_BIC  DEDINI S/A INDUSTRIAS DE BASE           075717355000286USINA DE ACUCAR SANTA TEREZINHA LT      AV MARCELO MESSIAS BUSIQUIA 847 PQ INDUSMARINGA                                 87065006PR320540000106232996152983-8-8  18102011016CURITIBA            2003201200000000012990975CC                                                                                                                                                                                                                                                                                                                                                                                                         000002
1021420930887COBR_CAUC_BIC  DEDINI S/A INDUSTRIAS DE BASE           075717355000286USINA DE ACUCAR SANTA TEREZINHA LT      AV MARCELO MESSIAS BUSIQUIA 847 PQ INDUSMARINGA                                 87065006PR320540000206233020152984-8-8  18102011016CURITIBA            2003201200000000011081170CC                                                                                                                                                                                                                                                                                                                                                                                                         000003
1021420930887COBR_CAUC_BIC  DEDINI S/A INDUSTRIAS DE BASE           075717355000286USINA DE ACUCAR SANTA TEREZINHA LT      AV MARCELO MESSIAS BUSIQUIA 847 PQ INDUSMARINGA                                 87065006PR320540000306233038152837-8-8  18102011016CURITIBA            2003201200000000013286410CC                                                                                                                                                                                                                                                                                                                                                                                                         000004
1050421000089COBR_CAUC_BIC  ATIVO ALIMENTOS LTDA                    010364949000124CAMPINAS ATACADISTA DE CARNES  DER      ESTRADA VELHA CAMPINAS  MONTE MOR 1211  CAMPINAS                                13012970SP320550000100296057114441/1    18112011021CAMPINAS            1612201100000000031977948CC                                                                                                                                                                                                                                                                                                                                                                                                         000005
1007421049451COBR_CAUC_COR  RIGOR ALIMENTOS LTDA                    017745613000150SUPERMERCADO BAHAMAS LTDA               ROD. BR 040, 780 KM                     JUIZ DE FORA                            36092005MG32056000010006184011 011909   18112011900BRADESCO S/A        1812201100000000011214042CC                                                                                                                                                                                                                                                                                                                                                                                                         000006
1019421010259COBR_CAUC_BIC  L&S FOMENTO MERCANTIL                   004126524000184VIC LOGISTICA LTDA                      AV. HELENA DE VASCONCELOS COSTA, 1365   CONTAGEM                                32371685MG3205700001061873890001-4      17112011019BELO HORIZONTE      1003201200000000013000000CC                                                                                                                                                                                                                                                                                                                                                                                                         000007
9000004                                                                                                                                                                                                                                                                                                                                                                                                                                                                                                                                                                                                                                                                                                               000008
