0REMESSANOTIFICACAO ELETRONICA        99999999999999BICBANCO                                AV. PAULISTA                            1048      12.ANDAR  BELA VISTA                    SAO PAULO                     01310100SP1121739360CORTINHAL                               COORDENADOR                             14062011                                                                                                                                                                                                                                                                                                                                                                                      000001
1021420930887COBR_CAUC_COR  DEDINI S/A INDUSTRIAS DE BASE           007079511000190M G POLIMEROS BRASIL S.A.               RODOVIA PE 060 ENG MASSANG TDR SUL PORTOIPOJUCA                                 55590000PE28176000010616364111-1-1      09062011900BRADESCO S/A        3006201100000000025208138CC                                                                                                                                                                                                                                                                                                                                                                                                         000002
1021420930887COBR_CAUC_BIC  DEDINI S/A INDUSTRIAS DE BASE           057663932000131INTERUNION COMERCIO INTERNACIONAL       AV  GUADALAJARA LAGOINHA BR             RIBEIRAO PRETO                          14095380SP281770000106163706148555-2-2  03052011022RIBEIRAO PRETO      2806201100000000017542740CC                                                                                                                                                                                                                                                                                                                                                                                                         000003
1037421007698COBR_CAUC_BIC  HOSP - LOG COM DE PROD HOSP LTDA        029435005002687ESHO EMPRESA DE SERV.HOSPITALARES       R: MARTINIANO DE CARVALHO, 741 SL.319   SAO PAULO                               01321001SP2817800001044878550115589 01  13062011007PAULISTA            1208201100000000012919358CC                                                                                                                                                                                                                                                                                                                                                                                                         000004
9000003                                                                                                                                                                                                                                                                                                                                                                                                                                                                                                                                                                                                                                                                                                               000005
