0REMESSANOTIFICACAO ELETRONICA        99999999999999BICBANCO                                AV. PAULISTA                            1048      12.ANDAR  BELA VISTA                    SAO PAULO                     01310100SP1121739360CORTINHAL                               COORDENADOR                             23032012                                                                                                                                                                                                                                                                                                                                                                                      000001
1006420932613DIR_CREDIT     NIVEL CONSTRUCOES LTDA                  008805453000105MB ENGENHARIA SPE 004 S/A               AV SENADOR VIRGILIO TAVORA 1500-ALDEOTA FORTALEZA                               60170220CE3447500001                                                                                                                                          011794548           301120100000016589S/N         21032012000403GERENCIAR E EXECUTAR AS OBRAS DE CONSTRUÇAO DO EMPREENDIMENTO THE ONE  TOWER SITUADO A AV SENADOR VIRGILIO TAVORA 1500 - ALDEOTA - FORTALEZA (CE), ON-DE A INCORPORAÇÃO É DE INTEIRA RESPONSABILIDADE DE BROOKFIELD INCORP S/A.                 002960450000151              000002
1028421002719COBR_CAUC_COR  SIPCAM UPL BRASIL S/A                   002077618000185COOP AGRODL PROD RURAIS SUDOESTE G      AV. PRESIDENTE VARGAS, 1.878            RIO VERDE                               75903290GO344900000102759298DC00670201  20032012800UNIBANCO S/A        0404201200000000012750000CC                                                                                                                                                                                                                                                                                                                                                                                                         000003
1028421002719COBR_CAUC_COR  SIPCAM UPL BRASIL S/A                   000001690616806JOAO EMILIO ROCHETO E OUTRO             ROD BR 452, KM 258 S/N                  PERDIZES                                38170000MG344910000102759433DC00670601  21032012800UNIBANCO S/A        2505201200000000012880000CC                                                                                                                                                                                                                                                                                                                                                                                                         000004
1031421007010COBR_CAUC_BIC  PLANT BEM FERTILIZANTES S.A.            079038097000181BELAGRICOLA COM E REP DE PRODUTOS       AV BANDEIRANTES,809                     LONDRINA                                86010020PR34492000010497899252204A410   21032012031LONDRINA            2809201200000000020373000CC                                                                                                                                                                                                                                                                                                                                                                                                         000005
1014420939021COBR_CAUC_BIC  EDITORA O DIA S/A                       033747288000111FEDER.EMPR.TRANSP.RODOV.LESTE M.BR      RUA DA ASSEMBLEIA 10 39 A/C. SR.ED      RIO DE JANEIRO                          20119900RJ3449300001024027110636175     22032012014RIO DE JANEIRO      1504201200000000011582518CC                                                                                                                                                                                                                                                                                                                                                                                                         000006
1038421011812COBR_CAUC_BIC  ENERGY COML IMPORT E EXPORT LTDA        009363567000105PREMIX BRASIL RESINAS                   ALAMEDA ARAGU,2044-CJ703A705TORRE2      SAO PAULO                               06455000SP3449400001095686197418        07032012007PAULISTA            2004201200000000052963728CC                                                                                                                                                                                                                                                                                                                                                                                                         000007
1038421011812COBR_CAUC_BIC  ENERGY COML IMPORT E EXPORT LTDA        009363567000105PREMIX BRASIL RESINAS                   ALAMEDA ARAGU,2044-CJ703A705TORRE2      SAO PAULO                               06455000SP3449400002095686277420        07032012007PAULISTA            2004201200000000084120714CC                                                                                                                                                                                                                                                                                                                                                                                                         000008
1008421022487COBR_CAUC_COR  EBP - EMPRESA BRASILEIRA DE PESCADO     010542662000147COCO BAMBU LAGO SUL COMERCIO DE AL      SETOR DE CLUBES ESPORTIVOS SUL TRECHO 2 BRASILIA                                70200002DF3449500001014898719411/1      12032012900BRADESCO S/A        0104201200000000019009500CC                                                                                                                                                                                                                                                                                                                                                                                                         000009
1008421022487COBR_CAUC_COR  EBP - EMPRESA BRASILEIRA DE PESCADO     033304981000110SUPERMERCADOS MUNDIAL LTDA              RUA  DONA EMILIA, 2                     RIO DE JANEIRO                          20765110RJ3449600001014932669598/       16032012900BRADESCO S/A        0504201200000000027610000CC                                                                                                                                                                                                                                                                                                                                                                                                         000010
9000008                                                                                                                                                                                                                                                                                                                                                                                                                                                                                                                                                                                                                                                                                                               000011
