0REMESSANOTIFICACAO ELETRONICA        99999999999999BICBANCO                                AV. PAULISTA                            1048      12.ANDAR  BELA VISTA                    SAO PAULO                     01310100SP1121739360CORTINHAL                               COORDENADOR                             25062014                                                                                                                                                                                                                                                                                                                                                                                      000001
1016421008591COBR_CAUC_BIC  GLOBOAVES SAO PAULO AGROAVICOLA LTD     083044016000980TYSON DO BRASIL ALIMENTOS LTDA          ROD BR 487 ESTR BOIADEIRA KM 185,0      CAMPO MOURAO                            87305380PR4825700001045510850129935     17062014016CURITIBA            1507201400000000011172000CC                                                                                                                                                                                                                                                                                                                                                                                                         000002
1008421022487COBR_CAUC_COR  EBP - EMPRESA BRASILEIRA DE PESCADO     033304981000110SUPERMERCADOS MUNDIAL LTDA              RUA  DONA EMILIA, 2                     RIO DE JANEIRO                          20765110RJ4825800001017714520027076/    23062014900BRADESCO S/A        0808201400000000012622500CC                                                                                                                                                                                                                                                                                                                                                                                                         000003
1021421017352COBR_CAUC_BIC  STAR DISTR PROD FARMACEUTICOS LTDA      061585865000151RAIA DROGASIL S/A                       AVENIDA CORIFEU DE AZEVEDO MARQUES, 3097SAO PAULO                               05339000SP4825900001000002790000344501  23062014007PAULISTA            1407201400000000010636679CC                                                                                                                                                                                                                                                                                                                                                                                                         000004
1021421017352COBR_CAUC_BIC  STAR DISTR PROD FARMACEUTICOS LTDA      061585865000151RAIA DROGASIL S/A                       AVENIDA CORIFEU DE AZEVEDO MARQUES, 3097SAO PAULO                               05339000SP4825900002000002870000344601  23062014007PAULISTA            1407201400000000032434688CC                                                                                                                                                                                                                                                                                                                                                                                                         000005
9000003                                                                                                                                                                                                                                                                                                                                                                                                                                                                                                                                                                                                                                                                                                               000006
