0REMESSANOTIFICACAO ELETRONICA        99999999999999BICBANCO                                AV. PAULISTA                            1048      12.ANDAR  BELA VISTA                    SAO PAULO                     01310100SP1121739360CORTINHAL                               COORDENADOR                             17022012                                                                                                                                                                                                                                                                                                                                                                                      000001
1019421004658COBR_CAUC_COR  S/A ESTADO DE MINAS                     017184037000110BANCO MERCANTIL DO BRASIL S A           RIO DE JANEIRO 654 3 ANDAR              BELO HORIZONTE                          30160912MG339240000101134902915016-1    16022012900BRADESCO S/A        1503201200000000023560243CC                                                                                                                                                                                                                                                                                                                                                                                                         000002
1014420939021COBR_CAUC_BIC  EDITORA O DIA S/A                       033747288000111FEDER.EMPR.TRANSP.RODOV.LESTE M.BR      RUA DA ASSEMBLEIA 10 39 A/C. SR.ED      RIO DE JANEIRO                          20119900RJ3392500001023911580630201     15022012014RIO DE JANEIRO      1503201200000000011582538CC                                                                                                                                                                                                                                                                                                                                                                                                         000003
1047421000534COBR_CAUC_BIC  INDUSTRIA QUIMICA KIMBERLIT LTDA        061560934000172COOPERATIVA CENTRAL DE FERTILIZANT      AV.COMENDADOR ALADIN4910                Campinas                                13069096SP339260000101268933007913/01   29122011021CAMPINAS            3003201200000000010308115CC                                                                                                                                                                                                                                                                                                                                                                                                         000004
1021141012725COBR_CAUC_BIC  MABE BRASIL ELETRODOMESTICOS LTDA       010757237010723NOVA CASA BAHIA S/A                     RODOVIA ANHANGUERA 0, S/N KM52          JUNDIAI                                 13208401SP3392700001062927860000053068  14022012007PAULISTA            0603201200000000011690720TD                                                                                                                                                                                                                                                                                                                                                                                                         000005
1021141012725COBR_CAUC_BIC  MABE BRASIL ELETRODOMESTICOS LTDA       010757237010723NOVA CASA BAHIA S/A                     RODOVIA ANHANGUERA 0, S/N KM52          JUNDIAI                                 13208401SP3392700002062927940000053569  15022012007PAULISTA            0603201200000000011268803TD                                                                                                                                                                                                                                                                                                                                                                                                         000006
1021141012725COBR_CAUC_BIC  MABE BRASIL ELETRODOMESTICOS LTDA       010757237010723NOVA CASA BAHIA S/A                     RODOVIA ANHANGUERA 0, S/N KM52          JUNDIAI                                 13208401SP3392700003062928080000053651  15022012007PAULISTA            0603201200000000010508658TD                                                                                                                                                                                                                                                                                                                                                                                                         000007
1021141012725COBR_CAUC_BIC  MABE BRASIL ELETRODOMESTICOS LTDA       010757237010723NOVA CASA BAHIA S/A                     RODOVIA ANHANGUERA 0, S/N KM52          JUNDIAI                                 13208401SP3392700004062928160000053804  16022012007PAULISTA            0603201200000000010508658TD                                                                                                                                                                                                                                                                                                                                                                                                         000008
1046421001443COBR_CAUC_COR  COSTAO DO SANTINHO TUR E LAZER LTDA     005686617000126POWER TRAVEL VIAGENS E TURISMO LTD      RUA DR. BRAULIO GOMES,107-7 ANDAR       SAO PAULO                               01047020SP33928000010000520116022012    16022012900BRADESCO S/A        1503201200000000034118077CC                                                                                                                                                                                                                                                                                                                                                                                                         000009
9000005                                                                                                                                                                                                                                                                                                                                                                                                                                                                                                                                                                                                                                                                                                               000010
