0REMESSANOTIFICACAO ELETRONICA        99999999999999BICBANCO                                AV. PAULISTA                            1048      12.ANDAR  BELA VISTA                    SAO PAULO                     01310100SP1121739360CORTINHAL                               COORDENADOR                             04022014                                                                                                                                                                                                                                                                                                                                                                                      000001
1020421002020COBR_CAUC_COR  GRABER SISTEMAS DE SEGURANCA LTDA       004176689000322ENVISION INDUSTRIA DE PRODUTOS          ROD ANHNAGUERA, S/N - KM 49 - TERRA NOVAJUNDIAI                                 13205700SP4627100001000149190000007259  01022014900BRADESCO S/A        2802201400000000010927320CC                                                                                                                                                                                                                                                                                                                                                                                                         000002
1032421019512COBR_CAUC_BIC  GEOTESC FUNDACOES LTDA                  075491613000500PERVILLE CONSTRUCOES E EMP. SA          RUA DONA FRANCISCA,8300                 JOINVILLE                               89219600SC4627200001025915623082.1      03022014046FLORIANOPOLIS       1702201400000000024700000CC                                                                                                                                                                                                                                                                                                                                                                                                         000003
1048421003043COBR_CAUC_COR  FRIGOL S.A. EM RECUPERACAO JUDICIAL     006128996000100ATIVO ALIMENTOS  EXP. E IMP. LTDA       RODOVIA CASTANHAL - INHANGAPI, S/N KM 04CASTANHAL                               68745040PA46273000010006602700032684-1  01022014900BRADESCO S/A        1102201400000000017483949CC                                                                                                                                                                                                                                                                                                                                                                                                         000004
1048421003043COBR_CAUC_COR  FRIGOL S.A. EM RECUPERACAO JUDICIAL     067620377000114MINERVA.S.A                             AV.ANTONIO MANSO BERNARDES,S/N          BARRETOS                                14781545SP46274000010006587000032635-1  01022014900BRADESCO S/A        1002201400000000024226380CC                                                                                                                                                                                                                                                                                                                                                                                                         000005
9000004                                                                                                                                                                                                                                                                                                                                                                                                                                                                                                                                                                                                                                                                                                               000006
