0REMESSANOTIFICACAO ELETRONICA        99999999999999BICBANCO                                AV. PAULISTA                            1048      12.ANDAR  BELA VISTA                    SAO PAULO                     01310100SP1121739360CORTINHAL                               COORDENADOR                             30062014                                                                                                                                                                                                                                                                                                                                                                                      000001
1018141026092COBR_CAUC_COR  MEDIO NORTE CONST E TERRAPLEN LTDA      001500203000100ACEFER COMERCIO DE SUCATAS LTDA         ROD BR 153,0                            URUACU                                  76400000GO48301000010375552929          27062014900BRADESCO S/A        2608201400000000010265500TD                                                                                                                                                                                                                                                                                                                                                                                                         000002
1021421017050COBR_CAUC_BIC  STAR DISTR PROD FARMACEUTICOS LTDA      061585865073701RAIA DROGASIL S/A                       RUA PATAXOS , 1412                      EMBU                                    06833073SP4830200001000025570000347201  26062014007PAULISTA            1707201400000000076997927CC                                                                                                                                                                                                                                                                                                                                                                                                         000003
1021421017050COBR_CAUC_BIC  STAR DISTR PROD FARMACEUTICOS LTDA      061585865073701RAIA DROGASIL S/A                       RUA PATAXOS , 1412                      EMBU                                    06833073SP4830200002000025650000347301  26062014007PAULISTA            1707201400000000043595958CC                                                                                                                                                                                                                                                                                                                                                                                                         000004
9000002                                                                                                                                                                                                                                                                                                                                                                                                                                                                                                                                                                                                                                                                                                               000005
