0REMESSANOTIFICACAO ELETRONICA        99999999999999BICBANCO                                AV. PAULISTA                            1048      12.ANDAR  BELA VISTA                    SAO PAULO                     01310100SP1121739360CORTINHAL                               COORDENADOR                             27022012                                                                                                                                                                                                                                                                                                                                                                                      000001
1014421004999DIR_CREDIT     LOCANTY COM SERVICOS LTDA               031443526000170DEFENSORIA PUBLICA GERAL DO ESTADO      AV MARECHAL CAMARA 314 CENTRO           RIO DE JANEIRO                          20020080RJ3396700001                                                                                                                                          011762819           180720080000006985009/2008    17022012000403Prestação de Serviço de Apoio Administrativo e Auxiliares em Geral.                                                                                                                                                                             002182621000169              000002
1007421006183COBR_CAUC_BIC  NITRIFLEX S/A IND E COMERCIO            015179682002243RHODIA POLIAMIDA E ESPECIALIDADES       AV.DOS ESTADOS, 6144                    SANTO ANDRE                             09290520SP340400000101104283001380501   23022012038ABC                 2604201200000000013525346CC                                                                                                                                                                                                                                                                                                                                                                                                         000003
1007421006183COBR_CAUC_COR  NITRIFLEX S/A IND E COMERCIO            036193845000198TERMOLITE INDUSTRIA E COMERCIO LTD      ESTR BELFORD ROXO, 1800                 BELFORD ROXO                            26110260RJ340410000101104186001380101   23022012800UNIBANCO S/A        0803201200000000013834913CC                                                                                                                                                                                                                                                                                                                                                                                                         000004
1032421002555COBR_CAUC_BIC  ZZA SECURITIZADORA S.A.                 053558342001593ANIS RAZUK INDUSTRIA E COM LTD          RUA CAETANO PINTO  129                  SAO PAULO                               03041000SP340420000100310868147489011   23022012007PAULISTA            3004201200000000012024000CC                                                                                                                                                                                                                                                                                                                                                                                                         000005
1014421008439COBR_CAUC_BIC  TV OMEGA LTDA                           011367629000190F. Bravo Com. Prop. e Marketing Lt      Rua André Saraiva                73     SãoPaulo                                05626000SP34043000010450617301151301    15022012007PAULISTA            2504201200000000018917586CC                                                                                                                                                                                                                                                                                                                                                                                                         000006
1007421053076COBR_CAUC_COR  WORLD TRACTOR COML IMP LTDA             008446702000539NACIONAL MINERIOS S/A                   ROD BR 040 KM 590,0                     OURO PRETO                              35400000MG3404400001011054092020        23022012800UNIBANCO S/A        1004201200000000023424372CC                                                                                                                                                                                                                                                                                                                                                                                                         000007
1007421053076COBR_CAUC_BIC  WORLD TRACTOR COML IMP LTDA             033042730001348CIA SIDERURGICA NACIONAL                RUA ENG FRANCISCO PITTA BRITTO,138      SAO PAULO                               04753900SP3404500001011054172018        23022012007PAULISTA            1004201200000000015893640CC                                                                                                                                                                                                                                                                                                                                                                                                         000008
1007421053076COBR_CAUC_BIC  WORLD TRACTOR COML IMP LTDA             033042730001348CIA SIDERURGICA NACIONAL                RUA ENG FRANCISCO PITTA BRITTO,138      SAO PAULO                               04753900SP3404500002011054252017        23022012007PAULISTA            1004201200000000020885445CC                                                                                                                                                                                                                                                                                                                                                                                                         000009
1017421003957DIR_CREDIT     INDUSTRIAL PORTO RICO S/A.              012277646000108COOP.REG.PROD.DE ACUCAR E ALCOOL DE AL  RUA SA E ALBUQUERQUE, 235               MACEIO                                  57025180AL3404600001                                                                                                                                          011764764           280120080000005862            23022012017002FORNECIMENTO DE TODA A PRODUCAO DE QUAISQUER TIPOS DE ACUCAR, ALCOOL E MEL PRODUZIDAS NAS SAFRAS 2008/2009, 2009/2010 E 2010/2011.                                                                                                              012217832000143              000010
1014421013734DIR_CREDIT     EMISSAO ENGENHARIA E CONSTRUCOES LT     033352394000104CIA ESTADUAL DE AGUAS E ESGOTOS CEDAE   AV PRESIDENTE VARGAS 2655  NOVA CIDADE  RIO DE JANEIRO                          20210030RJ3405700001                                                                                                                                          481023179           150420110000019919007/2011(DM)11112011000404Serviços contínuos de apoio a manutenção e operação do abastecimento deágua e esgotamento sanitário das gerencias regionais na area da região         Metropolitana do Rio de janeiro - Lote 1.                                                 039110879000160              000011
1042481009901DIR_CREDIT     C B M CONSTRUCOES E COMERCIO LTDA       006274757000150CAEMA CIA DE AGUAS E ESGOTOS DO MARANHAORUA SILVA JARDIM 307 - CENTRO           SÃO LUIS                                65020560MA3406100001                                                                                                                                          011526442           120220080000004915001/2007    26072011000403EXECUCAO DE SERVICOS DE MANUTENCAO DE REDES E RAMAIS DE AGUA, COM LEITURA DE HIDROMETROS E ENTREGA DE FATURAS MENSAIS, DO SISTEMA DE ABASTECIMENTO DE AGUA DE SAO LUIS.                                                                         005504696000107              000012
1043421010006COBR_CAUC_COR  ELFA MEDICAMENTOS LTDA                  061590410000124SOC BENEFICIENTE DE SENH HOSPITAL       R DA ADMA JAFET 91                      OSASCO                                  01308050SP340620000100700822000042841   17022012900BRADESCO S/A        0803201200000000005445805CC                                                                                                                                                                                                                                                                                                                                                                                                         000013
1043421010006COBR_CAUC_COR  ELFA MEDICAMENTOS LTDA                  061590410000124SOC BENEFICIENTE DE SENH HOSPITAL       R DA ADMA JAFET 91                      OSASCO                                  01308050SP340620000200700814000043350   17022012900BRADESCO S/A        0204201200000000005856710CC                                                                                                                                                                                                                                                                                                                                                                                                         000014
1043421010006COBR_CAUC_COR  ELFA MEDICAMENTOS LTDA                  061590410000124SOC BENEFICIENTE DE SENH HOSPITAL       R DA ADMA JAFET 91                      OSASCO                                  01308050SP340620000300700792000043488   17022012900BRADESCO S/A        2203201200000000005864710CC                                                                                                                                                                                                                                                                                                                                                                                                         000015
1043421010006COBR_CAUC_COR  ELFA MEDICAMENTOS LTDA                  061590410000124SOC BENEFICIENTE DE SENH HOSPITAL       R DA ADMA JAFET 91                      OSASCO                                  01308050SP340620000400700806000043556   17022012900BRADESCO S/A        2303201200000000005864710CC                                                                                                                                                                                                                                                                                                                                                                                                         000016
1043421010006COBR_CAUC_COR  ELFA MEDICAMENTOS LTDA                  061590410000124SOC BENEFICIENTE DE SENH HOSPITAL       R DA ADMA JAFET 91                      OSASCO                                  01308050SP340620000500700849000043954   17022012900BRADESCO S/A        3003201200000000005864710CC                                                                                                                                                                                                                                                                                                                                                                                                         000017
1043421010006COBR_CAUC_COR  ELFA MEDICAMENTOS LTDA                  013356779000124REDE PRIMACERA - ASSISTENCIAL MEDI      AV MIN GERALDO B.SOBRAL, 2277           ARACAJU                                 49026010SE3406300001006948571242734     20012012900BRADESCO S/A        3003201200000000000156312CC                                                                                                                                                                                                                                                                                                                                                                                                         000018
1043421010006COBR_CAUC_COR  ELFA MEDICAMENTOS LTDA                  061590410000124SOC BENEFICIENTE DE SENH HOSPITAL       R DA ADMA JAFET 91                      OSASCO                                  01308050SP340640000100701918000042453   17022012900BRADESCO S/A        1203201200000000006283635CC                                                                                                                                                                                                                                                                                                                                                                                                         000019
1043421010006COBR_CAUC_COR  ELFA MEDICAMENTOS LTDA                  007510778000190CENTRO PARAIBANO DE ONCOLOGIA           AV MATO GROSSO,183                      JOAO PESSOA                             58030080PB340650000100700784000044112   17022012900BRADESCO S/A        2004201200000000006674663CC                                                                                                                                                                                                                                                                                                                                                                                                         000020
1043421010006COBR_CAUC_COR  ELFA MEDICAMENTOS LTDA                  009112236000194HOSPITAL NAPOLEAO LAUREANO              R CAPITAO JOSE PESSOA,1140              JOAO PESSOA                             58015170PB340660000100700831000044036   17022012900BRADESCO S/A        1604201200000000004958792CC                                                                                                                                                                                                                                                                                                                                                                                                         000021
1043421010006COBR_CAUC_COR  ELFA MEDICAMENTOS LTDA                  009112236000194HOSPITAL NAPOLEAO LAUREANO              R CAPITAO JOSE PESSOA,1140              JOAO PESSOA                             58015170PB340660000200700776000044056   17022012900BRADESCO S/A        1604201200000000008584500CC                                                                                                                                                                                                                                                                                                                                                                                                         000022
1042481009901DIR_CREDIT     C B M CONSTRUCOES E COMERCIO LTDA       006274757000150CAEMA CIA DE AGUAS E ESGOTOS DO MARANHAORUA SILVA JARDIM 307 CENTRO             SÃO LUIS                                65020560MA3406700001                                                                                                                                          481011949           080620060000005407028/2006 - R06102011000404Serviços de manutenção de redes e ramais de água de Imperatriz e       Açailandia, conforme contrato 028/2006, ordem 082/2006.                                                                                                                  005504696000107              000023
1042481009901DIR_CREDIT     C B M CONSTRUCOES E COMERCIO LTDA       006274757000150CAEMA CIA DE AGUAS E ESGOTOS DO MARANHAORUA SILVA JARDIM 307 CENTRO             SÃO LUIS                                65020560MA3406800001                                                                                                                                          481012287           080620060000005407028/2006 - R28112011000404Serviços de manutenção de redes e ramais de água de Imperatriz e       Açailandia, conforme contrato 028/2006, ordem 082/2006.                                                                                                                  005504696000107              000024
1014421013734DIR_CREDIT     EMISSAO ENGENHARIA E CONSTRUCOES LT     029138336000105PM DE SAO JOAO MERITI                   AV PRESIDENTE LINCOLN 899 VILAR TELES   SAO JOAO DE MERITI                      25555201RJ3406900001                                                                                                                                          481023179           28052010000001819410/2010     11112011000404execução de obras de urbanização e drenagem de diversos logradouros no Município de São João de Meriti/RJ.                                                                                                                                      039110879000160              000025
9000018                                                                                                                                                                                                                                                                                                                                                                                                                                                                                                                                                                                                                                                                                                               000026
