0REMESSANOTIFICACAO ELETRONICA        99999999999999BICBANCO                                AV. PAULISTA                            1048      12.ANDAR  BELA VISTA                    SAO PAULO                     01310100SP1121739360CORTINHAL                               COORDENADOR                             24042014                                                                                                                                                                                                                                                                                                                                                                                      000001
1031421009896COBR_CAUC_COR  LATICINIOS LATCO LTDA                   077766608000156FRIGOVEL COMERCIAL DE PRODUTOS FRI      RUA CARLOS CHAGAS, 769                  CASCAVEL                                85816310PR472640000101019218184811/1    22042014900BRADESCO S/A        3004201400000000014466864CC                                                                                                                                                                                                                                                                                                                                                                                                         000002
1028421001518COBR_CAUC_COR  GAIA AGRIBUSINESS AGRICOLA LTDA         000037457080082SILVIO ARANTES DE OLIVEIRA              AV MINAS GERAIS,1380                    GOIATUBA                                75600000GO47265000010299328253574       23042014900BRADESCO S/A        2510201400000000015300000CC                                                                                                                                                                                                                                                                                                                                                                                                         000003
1028421001518COBR_CAUC_COR  GAIA AGRIBUSINESS AGRICOLA LTDA         000037457080082SILVIO ARANTES DE OLIVEIRA              AV MINAS GERAIS,1380                    GOIATUBA                                75600000GO47265000020299329153575       23042014900BRADESCO S/A        2509201400000000015386000CC                                                                                                                                                                                                                                                                                                                                                                                                         000004
1028421001518COBR_CAUC_COR  GAIA AGRIBUSINESS AGRICOLA LTDA         000054778751191FABIO FERNANDES DA SILVA E OUTROS       RUA TEFE,840                            GOIATUBA                                75600000GO47266000010299331253582       23042014900BRADESCO S/A        2009201400000000015862000CC                                                                                                                                                                                                                                                                                                                                                                                                         000005
1028421001518COBR_CAUC_COR  GAIA AGRIBUSINESS AGRICOLA LTDA         000054778751191FABIO FERNANDES DA SILVA E OUTROS       RUA TEFE,840                            GOIATUBA                                75600000GO47266000020299332153580       23042014900BRADESCO S/A        2010201400000000015800000CC                                                                                                                                                                                                                                                                                                                                                                                                         000006
1021421015236COBR_CAUC_BIC  AGRARIA INDUSTRIA E COMERCIO LTDA       010849600000182JULIO CESAR NOGUEIRA PIMENTEL           AVALEXANDRE VILEL,2970                  CRISTAIS PAULIS                         14460000SP4726700001065561710000008273  07102013022RIBEIRAO PRETO      3006201400000000012755000CC                                                                                                                                                                                                                                                                                                                                                                                                         000007
1015421019927COBR_CAUC_BIC  BELSUL IND. E COM DE MAT. PRIMAS LT     060822079000168TWILTEX INDUSTRIAS TEXTEIS LTDA         AV JOAO PAULO,555                       EMBU                                    06818902SP47268000010126822311080-01    22042014007PAULISTA            3005201400000000023080921CC                                                                                                                                                                                                                                                                                                                                                                                                         000008
1048421003043COBR_CAUC_COR  FRIGOL S.A. EM RECUPERACAO JUDICIAL     011831785000322MERCURIO FRIG E EXP DE ALIMENTOS L      PA-150 S/N                              XINGUARA                                68557080PA47269000010007246900035338-1  19042014900BRADESCO S/A        2804201400000000011874070CC                                                                                                                                                                                                                                                                                                                                                                                                         000009
9000006                                                                                                                                                                                                                                                                                                                                                                                                                                                                                                                                                                                                                                                                                                               000010
