0REMESSANOTIFICACAO ELETRONICA        99999999999999BICBANCO                                AV. PAULISTA                            1048      12.ANDAR  BELA VISTA                    SAO PAULO                     01310100SP1121739360CORTINHAL                               COORDENADOR                             16082012                                                                                                                                                                                                                                                                                                                                                                                      000001
1007420931444COBR_CAUC_BIC  PLASINCO LTDA                           061150751000260PRSMIAN ENERGIA CABOS E SIST BRAS       AV ALEXANDRE GUSMAO ,397                STO ANDRE                               09110900SP37192000010139719122201       13082012038ABC                 2709201200000000011450901CC                                                                                                                                                                                                                                                                                                                                                                                                         000002
1007420931444COBR_CAUC_BIC  PLASINCO LTDA                           061150751000260PRSMIAN ENERGIA CABOS E SIST BRAS       AV ALEXANDRE GUSMAO ,397                STO ANDRE                               09110900SP37192000020139720522203       13082012038ABC                 2709201200000000026468658CC                                                                                                                                                                                                                                                                                                                                                                                                         000003
1007420931444COBR_CAUC_BIC  PLASINCO LTDA                           061150751000260PRSMIAN ENERGIA CABOS E SIST BRAS       AV ALEXANDRE GUSMAO ,397                STO ANDRE                               09110900SP37192000030139721322205       13082012038ABC                 2709201200000000020841967CC                                                                                                                                                                                                                                                                                                                                                                                                         000004
9000001                                                                                                                                                                                                                                                                                                                                                                                                                                                                                                                                                                                                                                                                                                               000005
