0REMESSANOTIFICACAO ELETRONICA        99999999999999BICBANCO                                AV. PAULISTA                            1048      12.ANDAR  BELA VISTA                    SAO PAULO                     01310100SP1121739360CORTINHAL                               COORDENADOR                             29062011                                                                                                                                                                                                                                                                                                                                                                                      000001
1021420930887COBR_CAUC_COR  DEDINI S/A INDUSTRIAS DE BASE           043619832001760BRANCO PERES ACUCAR E ALCOOL SA         ROD DR PLACIDO ROCHA, KM 19,6   BR      ADAMANTINA                              17800000SP284000000106167761153415-4-4  28062011900BRADESCO S/A        3009201100000000011046954CC                                                                                                                                                                                                                                                                                                                                                                                                         000002
1018421005230COBR_CAUC_COR  CENTROALCOOL S/A                        004930779000103SR DISTRIBUIDORA DE PETROLEO LTDA       AV.NITEROI C/COP.Q.4 L.R-1/19           SENADOR CANEDO                          75250000GO28401000010232401033745/AA    27062011800UNIBANCO S/A        2309201100000000150000000CC                                                                                                                                                                                                                                                                                                                                                                                                         000003
1048421000354COBR_CAUC_COR  FRIGOL S.A. EM RECUPERACAO JUDICIAL     009259067000110COMPANHIA BONSMARA BEEF                 RUA JOAQUIM FLORIANO, 1144              SAO PAULO                               04534003SP284020000100150907213437-1    27062011900BRADESCO S/A        1807201100000000010396768CC                                                                                                                                                                                                                                                                                                                                                                                                         000004
1007421040063COBR_CAUC_BIC  TUBERFIL IND. E COM. DE TUBOS LTDA      002665068000204ACOSID COM DE FERRO & ACO LTDA          R: BOM JESUS 772                        CURITIBA                                81610040PR284030000100648999004672001   22062011016CURITIBA            0108201100000000012828282CC                                                                                                                                                                                                                                                                                                                                                                                                         000005
1007421034080COBR_CAUC_BIC  SIDMEX INTERNACIONAL LTDA               004399400000172KAINOA COMERCIAL LTDA.                  RUA BHERING,145                         SAO PAULO                               03023020SP28404000010064801830411       28062011007PAULISTA            3009201100000000022100000CC                                                                                                                                                                                                                                                                                                                                                                                                         000006
1024141008021COBR_DESC_BIC  MASTER AGROINDUSTRIAL IMP E EXPORTA     007952188000206JOSE  FLAVIO NETO E OUTRO               FAZ SANTO ANGELO                        MOCOCA                                  13738600SP2841600001019017666331/001    21062011024CUIABA              1907201100000000000225050TD                                                                                                                                                                                                                                                                                                                                                                                                         000007
1024141008021COBR_DESC_BIC  MASTER AGROINDUSTRIAL IMP E EXPORTA     007952188000206JOSE  FLAVIO NETO E OUTRO               FAZ SANTO ANGELO                        MOCOCA                                  13738600SP2841600002019017746334/001    21062011024CUIABA              1907201100000000002019555TD                                                                                                                                                                                                                                                                                                                                                                                                         000008
1024141008021COBR_DESC_BIC  MASTER AGROINDUSTRIAL IMP E EXPORTA     007952188000206JOSE  FLAVIO NETO E OUTRO               FAZ SANTO ANGELO                        MOCOCA                                  13738600SP2841600003019017826336/001    21062011024CUIABA              1907201100000000000605491TD                                                                                                                                                                                                                                                                                                                                                                                                         000009
1024141008021COBR_DESC_BIC  MASTER AGROINDUSTRIAL IMP E EXPORTA     007952188000206JOSE  FLAVIO NETO E OUTRO               FAZ SANTO ANGELO                        MOCOCA                                  13738600SP2841600004019017916346/001    21062011024CUIABA              1907201100000000002030807TD                                                                                                                                                                                                                                                                                                                                                                                                         000010
1024141008021COBR_DESC_BIC  MASTER AGROINDUSTRIAL IMP E EXPORTA     007952188000206JOSE  FLAVIO NETO E OUTRO               FAZ SANTO ANGELO                        MOCOCA                                  13738600SP2841600005019018046350/001    21062011024CUIABA              1907201100000000002008838TD                                                                                                                                                                                                                                                                                                                                                                                                         000011
1024141008021COBR_DESC_BIC  MASTER AGROINDUSTRIAL IMP E EXPORTA     007952188000206JOSE  FLAVIO NETO E OUTRO               FAZ SANTO ANGELO                        MOCOCA                                  13738600SP2841600006019018126353/001    21062011024CUIABA              1907201100000000000750166TD                                                                                                                                                                                                                                                                                                                                                                                                         000012
1024141008021COBR_DESC_BIC  MASTER AGROINDUSTRIAL IMP E EXPORTA     007952188000206JOSE  FLAVIO NETO E OUTRO               FAZ SANTO ANGELO                        MOCOCA                                  13738600SP2841600007019018216367/001    21062011024CUIABA              1907201100000000002007230TD                                                                                                                                                                                                                                                                                                                                                                                                         000013
1024141008021COBR_DESC_BIC  MASTER AGROINDUSTRIAL IMP E EXPORTA     007952188000206JOSE  FLAVIO NETO E OUTRO               FAZ SANTO ANGELO                        MOCOCA                                  13738600SP2841600008019018396368/001    21062011024CUIABA              1907201100000000000048225TD                                                                                                                                                                                                                                                                                                                                                                                                         000014
1024141008021COBR_DESC_BIC  MASTER AGROINDUSTRIAL IMP E EXPORTA     007952188000206JOSE  FLAVIO NETO E OUTRO               FAZ SANTO ANGELO                        MOCOCA                                  13738600SP2841600009019018476328/001    21062011024CUIABA              1907201100000000002019555TD                                                                                                                                                                                                                                                                                                                                                                                                         000015
1024141008021COBR_DESC_BIC  MASTER AGROINDUSTRIAL IMP E EXPORTA     007952188000206JOSE  FLAVIO NETO E OUTRO               FAZ SANTO ANGELO                        MOCOCA                                  13738600SP2841600010019018806397/001    22062011024CUIABA              2107201100000000002013660TD                                                                                                                                                                                                                                                                                                                                                                                                         000016
1024141008021COBR_DESC_BIC  MASTER AGROINDUSTRIAL IMP E EXPORTA     007952188000206JOSE  FLAVIO NETO E OUTRO               FAZ SANTO ANGELO                        MOCOCA                                  13738600SP2841600011019018986389/001    22062011024CUIABA              2107201100000000001709307TD                                                                                                                                                                                                                                                                                                                                                                                                         000017
1024141008021COBR_DESC_BIC  MASTER AGROINDUSTRIAL IMP E EXPORTA     007952188000206JOSE  FLAVIO NETO E OUTRO               FAZ SANTO ANGELO                        MOCOCA                                  13738600SP2841600012019019016415/001    23062011024CUIABA              2107201100000000002009374TD                                                                                                                                                                                                                                                                                                                                                                                                         000018
1024141008021COBR_DESC_BIC  MASTER AGROINDUSTRIAL IMP E EXPORTA     007952188000206JOSE  FLAVIO NETO E OUTRO               FAZ SANTO ANGELO                        MOCOCA                                  13738600SP2841600013019019106417/001    23062011024CUIABA              2107201100000000000144675TD                                                                                                                                                                                                                                                                                                                                                                                                         000019
1024141008021COBR_DESC_BIC  MASTER AGROINDUSTRIAL IMP E EXPORTA     007952188000206JOSE  FLAVIO NETO E OUTRO               FAZ SANTO ANGELO                        MOCOCA                                  13738600SP2841600014019019286398/001    22062011024CUIABA              2107201100000000000075017TD                                                                                                                                                                                                                                                                                                                                                                                                         000020
1014421019635DIR_CREDIT     LIFECENTER SISTEMA DE SAUDE S/A         016513178000176UNIMED BH - COOP DE TRAB MEDICO         AVNEIDA FRANCISCO SALES 1483            STA EFIGENIA                            30150221BH2841800001                                                                                                                                          010942384           280320050000012953            14102010000403contrato de prestação de serviços médicos e hospitalares                                                                                                                                                                                        004123021000155              000021
1022421004852DIR_CREDIT     TONON BIOENERGIA S/A                    007914230000105CEVAL INTERNATIONAL LTD                 FAZ BOM RETIRO S/N                      MARACAJU                                79150000MS2842300001                                                                                                                                          010003124           03072009000001611124307 B     12112010001702compra de açucar para exportação tipo v.h.p,sendo 6.000tm da trache de ago/11, 10.000tm da trache de set/11 e 10.000tm da trache de out/11.                                                                                                     007914230000105              000022
1046421004914DIR_CREDIT     MR EMPREENDIMENTOS S A                  002474103000119TRACTEBEL ENERGIA S/A                   RUA ANTONIO DIB MUSSI 366               FLORIANOPOLIS                           88015110SC2843200001                                                                                                                                          011189824           300920100000015875            11112010000403Contraprestação pela ocupação e uso do imóvel Centro Empresarial José Carlos Daux, situado na rua Pascoal Apostolo Pitsica s/n, Bairro Agronomica, Florianópolis/SC.                                                                            004031314000102              000023
9000009                                                                                                                                                                                                                                                                                                                                                                                                                                                                                                                                                                                                                                                                                                               000024
