0REMESSANOTIFICACAO ELETRONICA        99999999999999BICBANCO                                AV. PAULISTA                            1048      12.ANDAR  BELA VISTA                    SAO PAULO                     01310100SP1121739360CORTINHAL                               COORDENADOR                             11022014                                                                                                                                                                                                                                                                                                                                                                                      000001
1009421012831COBR_CAUC_COR  ASA ALIMENTOS S/A                       007209331000185REGINA AGROINDUSTRIAL S/A               ESTRADA DO AQUIRAZ,  801                FORTALEZA                               60840970CE4638800001001497000047041     08022014900BRADESCO S/A        0803201400000000012412800CC                                                                                                                                                                                                                                                                                                                                                                                                         000002
1009421012831COBR_CAUC_COR  ASA ALIMENTOS S/A                       000083809899615VALDIR VAGNER FERREIRA E OUTROS         ROD BR 262, SN KM 426                   IGARATINGA                              35695000MG4638900001001496700046975     07022014900BRADESCO S/A        1202201400000000011457482CC                                                                                                                                                                                                                                                                                                                                                                                                         000003
1007421055095COBR_CAUC_COR  PLASTER IND COM RESINAS PLAS EIRELI     003430341000195UNIPLEN IND DE POLIMEROS LTDA           RUA BILAC,280                           DIADEMA                                 09912260SP463900000100018278039400/A    07022014900BRADESCO S/A        2603201400000000011037469CC                                                                                                                                                                                                                                                                                                                                                                                                         000004
1048421003043COBR_CAUC_COR  FRIGOL S.A. EM RECUPERACAO JUDICIAL     000885125000146CAVALCANTE COMERCIO DE CARNES LTDA      RUA PADRE PERDIGAO SAMPAIO, 807         FORTALEZA                               60361010CE46391000010006682500000277-1  07022014900BRADESCO S/A        1003201400000000010725032CC                                                                                                                                                                                                                                                                                                                                                                                                         000005
1048421003043COBR_CAUC_COR  FRIGOL S.A. EM RECUPERACAO JUDICIAL     000885125000146CAVALCANTE COMERCIO DE CARNES LTDA      RUA PADRE PERDIGAO SAMPAIO, 807         FORTALEZA                               60361010CE46391000020006685000000280-1  07022014900BRADESCO S/A        1003201400000000010911432CC                                                                                                                                                                                                                                                                                                                                                                                                         000006
1048421003043COBR_CAUC_COR  FRIGOL S.A. EM RECUPERACAO JUDICIAL     067620377000114MINERVA.S.A                             AV.ANTONIO MANSO BERNARDES,S/N          BARRETOS                                14781545SP46392000010006675200032945-1  08022014900BRADESCO S/A        1003201400000000024451668CC                                                                                                                                                                                                                                                                                                                                                                                                         000007
1048421003043COBR_CAUC_COR  FRIGOL S.A. EM RECUPERACAO JUDICIAL     067620377000114MINERVA.S.A                             AV.ANTONIO MANSO BERNARDES,S/N          BARRETOS                                14781545SP46392000020006684100000279-1  07022014900BRADESCO S/A        1003201400000000024440996CC                                                                                                                                                                                                                                                                                                                                                                                                         000008
9000005                                                                                                                                                                                                                                                                                                                                                                                                                                                                                                                                                                                                                                                                                                               000009
