0REMESSANOTIFICACAO ELETRONICA        99999999999999BICBANCO                                AV. PAULISTA                            1048      12.ANDAR  BELA VISTA                    SAO PAULO                     01310100SP1121739360CORTINHAL                               COORDENADOR                             16082013                                                                                                                                                                                                                                                                                                                                                                                      000001
1009421012831COBR_CAUC_COR  ASA ALIMENTOS S/A                       009587239000427COOPERATIVA MISTA DOS AVICULT. DO       ESTRADA TERESINA UNIAO ZONA LESTE       TERESINA                                64058305PI4361800001001468080041551     15082013900BRADESCO S/A        0509201300000000010750320CC                                                                                                                                                                                                                                                                                                                                                                                                         000002
1014420939021COBR_CAUC_BIC  EDITORA O DIA S/A                       033041260065290VIA VAREJO S/A                          PREFEITO DULCIDIO CARDOSO, 2000         RIO DE JANEIRO                          22640085RJ4362100001025359580694591     15082013014RIO DE JANEIRO      0509201300000000014925625CC                                                                                                                                                                                                                                                                                                                                                                                                         000003
1014420939021COBR_CAUC_BIC  EDITORA O DIA S/A                       033747288000111FEDER.EMPR.TRANSP.RODOV.LESTE M.BR      RUA DA ASSEMBLEIA 10 39 A/C. SR.ED      RIO DE JANEIRO                          20119900RJ4362200001025355830694337     31072013014RIO DE JANEIRO      3008201300000000011848848CC                                                                                                                                                                                                                                                                                                                                                                                                         000004
1043421010006COBR_CAUC_COR  ELFA MEDICAMENTOS LTDA                  000521814000171GNOCCATO & GNOCCATO LTDA.               RUA SAMUEL KRUSCHIN, 395                SANTA MARIA                             97020670RS436230000100043376000053224   14082013900BRADESCO S/A        1309201300000000010562644CC                                                                                                                                                                                                                                                                                                                                                                                                         000005
1019421004658COBR_CAUC_COR  S/A ESTADO DE MINAS                     003471344000177CAOA MONTADORA DE VEICULOS SA           R11 SN FAZ BARREIRO DO MEIO             ANAPOLIS                                75133590GO4361900001012512321929514-1   14082013900BRADESCO S/A        3008201300000000010934976CC                                                                                                                                                                                                                                                                                                                                                                                                         000006
1019421004658COBR_CAUC_COR  S/A ESTADO DE MINAS                     017184037000110BANCO MERCANTIL DO BRASIL S A           RIO DE JANEIRO 654 3 ANDAR              BELO HORIZONTE                          30160912MG4362000001012513131929520-1   14082013900BRADESCO S/A        3008201300000000025265261CC                                                                                                                                                                                                                                                                                                                                                                                                         000007
9000006                                                                                                                                                                                                                                                                                                                                                                                                                                                                                                                                                                                                                                                                                                               000008
