0REMESSANOTIFICACAO ELETRONICA        99999999999999BICBANCO                                AV. PAULISTA                            1048      12.ANDAR  BELA VISTA                    SAO PAULO                     01310100SP1121739360CORTINHAL                               COORDENADOR                             17022014                                                                                                                                                                                                                                                                                                                                                                                      000001
1022421007800COBR_CAUC_COR  LEAO ENGENHARIA S/A                     056984057000127JOSAN EMPREENDIMENTOS IMOBILIARIOS      VIA ANHANGUERA KM 186 80                LEME                                    13610970SP464580000101038523025172/1.1  13022014900BRADESCO S/A        1803201400000000010978065CC                                                                                                                                                                                                                                                                                                                                                                                                         000002
1007421065309COBR_CAUC_BIC  OCEANO IND.GRAFICA E EDITORA LTDA       042179671000101DART DO BRASIL IND E COM LTDA           ESTRADA DA ILHA,870                     RIO DE JANEIRO                          23020230RJ46459000010266726557913       12022014014RIO DE JANEIRO      1303201400000000018292620CC                                                                                                                                                                                                                                                                                                                                                                                                         000003
1050421000089COBR_CAUC_BIC  ATIVO ALIMENTOS EXP E IMP EIRELI        005054671001554LIDER COMERCIO E INDUSTRIA LTDA         RUA DOS  PARIQUIS SALA 01 1056          BELEM                                   66033590PA464600000100548625237706/1    13022014050BELEM               1503201400000000018551138CC                                                                                                                                                                                                                                                                                                                                                                                                         000004
1048421003043COBR_CAUC_COR  FRIGOL S.A. EM RECUPERACAO JUDICIAL     007972639000188NORDESTE COMERCIO DE ALIMENTOS LTD      AV GOV. AGAMENON MAGALHAES, 1063        JABOATAO DOS GU                         54250000PE46461000010006735000000321-1  14022014900BRADESCO S/A        2102201400000000020534811CC                                                                                                                                                                                                                                                                                                                                                                                                         000005
9000004                                                                                                                                                                                                                                                                                                                                                                                                                                                                                                                                                                                                                                                                                                               000006
