0REMESSANOTIFICACAO ELETRONICA        99999999999999BICBANCO                                AV. PAULISTA                            1048      12.ANDAR  BELA VISTA                    SAO PAULO                     01310100SP1121739360CORTINHAL                               COORDENADOR                             13022012                                                                                                                                                                                                                                                                                                                                                                                      000001
1024420933562COBR_CAUC_BIC  GLOBAL ENERGIA ELETRICA S/A             010994254000126TRANSMISSORA MATOGROSSENSE DE ENER      AV. MIGUEL SUTIL, 8695 3º ANDA          CUIABA                                  78043305MT33843000010196088650/1        30012012024CUIABA              3003201200000000032259981CC                                                                                                                                                                                                                                                                                                                                                                                                         000002
1024420933562COBR_CAUC_BIC  GLOBAL ENERGIA ELETRICA S/A             010994254000126TRANSMISSORA MATOGROSSENSE DE ENER      AV. MIGUEL SUTIL, 8695 3º ANDA          CUIABA                                  78043305MT33843000020196089449/1        30012012024CUIABA              3003201200000000109534001CC                                                                                                                                                                                                                                                                                                                                                                                                         000003
1007421031242COBR_CAUC_COR  GP GUARDA PATRIMONIAL DE S.P. LTDA      053825725000185CENTRO EMPRESARIAL MARIO GARNERO        AV  BRIGADEIRO FARIA LIMA  1461 1485    SAO PAULO                               01452002SP33844000010004114876792       09022012900BRADESCO S/A        0603201200000000012236751CC                                                                                                                                                                                                                                                                                                                                                                                                         000004
1021141012725COBR_CAUC_BIC  MABE BRASIL ELETRODOMESTICOS LTDA       010757237010723NOVA CASA BAHIA S/A                     RODOVIA ANHANGUERA 0, S/N KM52          JUNDIAI                                 13208401SP3384500001062899210000052494  10022012007PAULISTA            0503201200000000010077106TD                                                                                                                                                                                                                                                                                                                                                                                                         000005
1021141012725COBR_CAUC_BIC  MABE BRASIL ELETRODOMESTICOS LTDA       010757237010723NOVA CASA BAHIA S/A                     RODOVIA ANHANGUERA 0, S/N KM52          JUNDIAI                                 13208401SP3384500002062899390000052379  09022012007PAULISTA            0503201200000000010528320TD                                                                                                                                                                                                                                                                                                                                                                                                         000006
1014421008439COBR_CAUC_BIC  TV OMEGA LTDA                           004756873000180NTIME Serviços de Informatica e Co      Av. Professor manoel José Chaves 277    SãoPaulo                                05463070SP33846000010450496101146001    10022012007PAULISTA            1504201200000000016168000CC                                                                                                                                                                                                                                                                                                                                                                                                         000007
1014421008439COBR_CAUC_BIC  TV OMEGA LTDA                           004756873000180NTIME Serviços de Informatica e Co      Av. Professor manoel José Chaves 277    SãoPaulo                                05463070SP33846000020450497901145901    10022012007PAULISTA            1503201200000000015772000CC                                                                                                                                                                                                                                                                                                                                                                                                         000008
9000004                                                                                                                                                                                                                                                                                                                                                                                                                                                                                                                                                                                                                                                                                                               000009
