0REMESSANOTIFICACAO ELETRONICA        99999999999999BICBANCO                                AV. PAULISTA                            1048      12.ANDAR  BELA VISTA                    SAO PAULO                     01310100SP1121739360CORTINHAL                               COORDENADOR                             20102014                                                                                                                                                                                                                                                                                                                                                                                      000001
1046421007603COBR_CAUC_COR  SUL IMAG PROD P/DIAGNOSTICOS EIRELI     090797606000192ULTRASSOM SERVICOS EIRELI               R DOMINGOS DE ALMEIDA,SL201             URUGUAIANA                              97500009RS4992600001025403081120119//F  03102014700BANCO REAL- ABN AMRO1011201400000000012500000CC                                                                                                                                                                                                                                                                                                                                                                                                         000002
1050421002855COBR_CAUC_COR  C F SANTOS COM DE ALIMENTOS LTDA        004899316000118IMIFARMA PRODUTOS FARMAC. E COSMET      TV QUINTINO BOCAIUVA 381,381            BELEM                                   66053240PA499270000100001171412699      17102014900BRADESCO S/A        1411201400000000013764510CC                                                                                                                                                                                                                                                                                                                                                                                                         000003
1021421017050COBR_CAUC_BIC  STAR DISTR PROD FARMACEUTICOS LTDA      061585865000151RAIA DROGASIL S/A                       AVENIDA CORIFEU DE AZEVEDO MARQUES, 3097SAO PAULO                               05339000SP4992800001000057000000409301  17102014007PAULISTA            3110201400000000014618070CC                                                                                                                                                                                                                                                                                                                                                                                                         000004
1021421017050COBR_CAUC_BIC  STAR DISTR PROD FARMACEUTICOS LTDA      061585865000151RAIA DROGASIL S/A                       AVENIDA CORIFEU DE AZEVEDO MARQUES, 3097SAO PAULO                               05339000SP4992800002000057260000409501  17102014007PAULISTA            3110201400000000011297554CC                                                                                                                                                                                                                                                                                                                                                                                                         000005
1021421017050COBR_CAUC_BIC  STAR DISTR PROD FARMACEUTICOS LTDA      061585865000151RAIA DROGASIL S/A                       AVENIDA CORIFEU DE AZEVEDO MARQUES, 3097SAO PAULO                               05339000SP4992800003000057930000410301  17102014007PAULISTA            3110201400000000070401863CC                                                                                                                                                                                                                                                                                                                                                                                                         000006
1021421017050COBR_CAUC_BIC  STAR DISTR PROD FARMACEUTICOS LTDA      061585865000151RAIA DROGASIL S/A                       AVENIDA CORIFEU DE AZEVEDO MARQUES, 3097SAO PAULO                               05339000SP4992800004000058230000410501  17102014007PAULISTA            3110201400000000032854364CC                                                                                                                                                                                                                                                                                                                                                                                                         000007
1021421017050COBR_CAUC_BIC  STAR DISTR PROD FARMACEUTICOS LTDA      061585865000151RAIA DROGASIL S/A                       AVENIDA CORIFEU DE AZEVEDO MARQUES, 3097SAO PAULO                               05339000SP4992800005000059470000411401  17102014007PAULISTA            3110201400000000016253815CC                                                                                                                                                                                                                                                                                                                                                                                                         000008
1021421017050COBR_CAUC_BIC  STAR DISTR PROD FARMACEUTICOS LTDA      061585865000151RAIA DROGASIL S/A                       AVENIDA CORIFEU DE AZEVEDO MARQUES, 3097SAO PAULO                               05339000SP4992800006000059550000411501  17102014007PAULISTA            3110201400000000021953501CC                                                                                                                                                                                                                                                                                                                                                                                                         000009
1021421017050COBR_CAUC_BIC  STAR DISTR PROD FARMACEUTICOS LTDA      061585865000151RAIA DROGASIL S/A                       AVENIDA CORIFEU DE AZEVEDO MARQUES, 3097SAO PAULO                               05339000SP4992800007000060130000412101  17102014007PAULISTA            3110201400000000031500426CC                                                                                                                                                                                                                                                                                                                                                                                                         000010
1021421017050COBR_CAUC_BIC  STAR DISTR PROD FARMACEUTICOS LTDA      061585865000151RAIA DROGASIL S/A                       AVENIDA CORIFEU DE AZEVEDO MARQUES, 3097SAO PAULO                               05339000SP4992800008000058150000409701  17102014022PAULISTA            3110201400000000014357740CC                                                                                                                                                                                                                                                                                                                                                                                                         000011
9000003                                                                                                                                                                                                                                                                                                                                                                                                                                                                                                                                                                                                                                                                                                               000012
