0REMESSANOTIFICACAO ELETRONICA        99999999999999BICBANCO                                AV. PAULISTA                            1048      12.ANDAR  BELA VISTA                    SAO PAULO                     01310100SP1121739360CORTINHAL                               COORDENADOR                             23042012                                                                                                                                                                                                                                                                                                                                                                                      000001
1047421000232COBR_CAUC_BIC  JOFER EMBALAGENS LTDA.                  000190373000172IND. E COM. DE COSMETICOS NATURA L      RODOVIA ANHANGUERA,  KM 30,5            CAJAMAR                                 07750000SP349670000101354244003154201   20042012007PAULISTA            0407201200000000012707459CC                                                                                                                                                                                                                                                                                                                                                                                                         000002
1047421000232COBR_CAUC_BIC  JOFER EMBALAGENS LTDA.                  000190373000172IND. E COM. DE COSMETICOS NATURA L      RODOVIA ANHANGUERA,  KM 30,5            CAJAMAR                                 07750000SP349670000201354252003154301   20042012007PAULISTA            0407201200000000012707459CC                                                                                                                                                                                                                                                                                                                                                                                                         000003
1047421000232COBR_CAUC_BIC  JOFER EMBALAGENS LTDA.                  000190373000172IND. E COM. DE COSMETICOS NATURA L      RODOVIA ANHANGUERA,  KM 30,5            CAJAMAR                                 07750000SP349670000301354261003154401   20042012007PAULISTA            0407201200000000012707459CC                                                                                                                                                                                                                                                                                                                                                                                                         000004
1021141012725COBR_CAUC_BIC  MABE BRASIL ELETRODOMESTICOS LTDA       043708379000100FAST SHOP COMERCIAL LTDA                AV ZAKI NARCHI 1664, SOBRE LOJA         SAO PAULO                               02029001SP3496900001063175090000705608  16042012007PAULISTA            0506201200000000011908119TD                                                                                                                                                                                                                                                                                                                                                                                                         000005
1021141012725COBR_CAUC_BIC  MABE BRASIL ELETRODOMESTICOS LTDA       047508411007835CIA.BRASILEIRA DE DISTRIBUICAO          MARG. DIR. TIETE 342                    SAO PAULO                               05118100SP3497000001063181900000709939  19042012007PAULISTA            2806201200000000014477554TD                                                                                                                                                                                                                                                                                                                                                                                                         000006
1018421015651COBR_CAUC_BIC  CMS PRODUTOS MEDICOS LTDA               075222224000147UNIMED DE LONDRINA COOPERATIVA DE       RUA SENADOR SOUZA NAVES, 1333           LONDRINA                                86010170PR349710000102693732000044547   12042012031LONDRINA            1205201200000000013651000CC                                                                                                                                                                                                                                                                                                                                                                                                         000007
1007421039880COBR_CAUC_COR  PETROSUL DIST TRANSP COM COMB LTDA      002429191000137WF SUMARE COM.SERVICOS AUTOMOT          R.ANEZIO LANTTI,41                      SUMARE                                  13174020SP3499500001000360390060897 P1  20042012900BRADESCO S/A        1505201200000000000655853CC                                                                                                                                                                                                                                                                                                                                                                                                         000008
1007421039880COBR_CAUC_COR  PETROSUL DIST TRANSP COM COMB LTDA      005420356000106AUTO POSTO CAPRI DE SERTAOZINH          AV NOSSA SRA APARECIDA, 1534            SERTAOZINHO                             14170150SP3499600001000359110027830 P1  20042012900BRADESCO S/A        0505201200000000000866250CC                                                                                                                                                                                                                                                                                                                                                                                                         000009
1007421039880COBR_CAUC_COR  PETROSUL DIST TRANSP COM COMB LTDA      059247973000172AUTO POSTO REMANSO LTDA.                RUA LUIZ CAMILO DE CAMARGO, 840         HORTOLANDIA                             13184020SP3499700001000351560064324 P1  05042012900BRADESCO S/A        2504201200000000001516603CC                                                                                                                                                                                                                                                                                                                                                                                                         000010
1007421039880COBR_CAUC_COR  PETROSUL DIST TRANSP COM COMB LTDA      055095020000185SUPER POSTO PERIMETRAL LTDA -           AV CEL. NOGUEIRA PADILHA, 770           SOROCABA                                18020000SP3499800001000360210031749 P1  20042012900BRADESCO S/A        1505201200000000000524800CC                                                                                                                                                                                                                                                                                                                                                                                                         000011
1007421039880COBR_CAUC_COR  PETROSUL DIST TRANSP COM COMB LTDA      055095020000185SUPER POSTO PERIMETRAL LTDA -           AV CEL. NOGUEIRA PADILHA, 770           SOROCABA                                18020000SP3499800002000358900054893 P1  19042012900BRADESCO S/A        0505201200000000001023500CC                                                                                                                                                                                                                                                                                                                                                                                                         000012
1007421039880COBR_CAUC_COR  PETROSUL DIST TRANSP COM COMB LTDA      000211778000140AUTO POSTO JULIO DE MESQUITA F          AV.A, 2350-CONJ.HAB.JULIO DE MESQUITA   SOROCABA                                18053000SP3499900001000347020056774 P1  04042012900BRADESCO S/A        2704201200000000000584798CC                                                                                                                                                                                                                                                                                                                                                                                                         000013
1007421039880COBR_CAUC_COR  PETROSUL DIST TRANSP COM COMB LTDA      000211778000140AUTO POSTO JULIO DE MESQUITA F          AV.A, 2350-CONJ.HAB.JULIO DE MESQUITA   SOROCABA                                18053000SP3499900002000353930064101 p1  11042012900BRADESCO S/A        0205201200000000001063800CC                                                                                                                                                                                                                                                                                                                                                                                                         000014
1007421039880COBR_CAUC_COR  PETROSUL DIST TRANSP COM COMB LTDA      003892889000157AUTO POSTO PLANALTO DE RIBEIRA          AVENIDA BRASIL, 1756                    RIBEIRAO PRETO                          14075030SP3500000001000359710016934 P1  20042012900BRADESCO S/A        1405201200000000000488900CC                                                                                                                                                                                                                                                                                                                                                                                                         000015
1007421039880COBR_CAUC_COR  PETROSUL DIST TRANSP COM COMB LTDA      003892889000157AUTO POSTO PLANALTO DE RIBEIRA          AVENIDA BRASIL, 1756                    RIBEIRAO PRETO                          14075030SP3500000002000348510021172 P1  04042012900BRADESCO S/A        3004201200000000000583799CC                                                                                                                                                                                                                                                                                                                                                                                                         000016
1007421039880COBR_CAUC_COR  PETROSUL DIST TRANSP COM COMB LTDA      003892889000157AUTO POSTO PLANALTO DE RIBEIRA          AVENIDA BRASIL, 1756                    RIBEIRAO PRETO                          14075030SP3500000003000351990024295 P1  05042012900BRADESCO S/A        0205201200000000000744351CC                                                                                                                                                                                                                                                                                                                                                                                                         000017
1007421039880COBR_CAUC_COR  PETROSUL DIST TRANSP COM COMB LTDA      003892889000157AUTO POSTO PLANALTO DE RIBEIRA          AVENIDA BRASIL, 1756                    RIBEIRAO PRETO                          14075030SP3500000004000353340024343 P1  10042012900BRADESCO S/A        0705201200000000001075150CC                                                                                                                                                                                                                                                                                                                                                                                                         000018
1007421039880COBR_CAUC_COR  PETROSUL DIST TRANSP COM COMB LTDA      005660954000144AUTO POSTO ROD.PRESID.DUTRA KM          RODOVIA PRESIDENTE DUTRA, KM 110        TAUBATE                                 12031770SP3500100001000358650015894 P1  19042012900BRADESCO S/A        0405201200000000001026150CC                                                                                                                                                                                                                                                                                                                                                                                                         000019
1007421039880COBR_CAUC_COR  PETROSUL DIST TRANSP COM COMB LTDA      005660954000144AUTO POSTO ROD.PRESID.DUTRA KM          RODOVIA PRESIDENTE DUTRA, KM 110        TAUBATE                                 12031770SP3500100002000351810071385 P1  05042012900BRADESCO S/A        3004201200000000000880100CC                                                                                                                                                                                                                                                                                                                                                                                                         000020
1007421039880COBR_CAUC_COR  PETROSUL DIST TRANSP COM COMB LTDA      005660954000144AUTO POSTO ROD.PRESID.DUTRA KM          RODOVIA PRESIDENTE DUTRA, KM 110        TAUBATE                                 12031770SP3500100003000358730071588 P1  19042012900BRADESCO S/A        0505201200000000001080996CC                                                                                                                                                                                                                                                                                                                                                                                                         000021
1007421039880COBR_CAUC_COR  PETROSUL DIST TRANSP COM COMB LTDA      004043623000100AUTO POSTO BANDEIRANTE DE SAO           RAIMUNDO CORREA 780                     SAO CARLOS                              13570591SP3500200001000359030023866 P1  20042012900BRADESCO S/A        0505201200000000001051300CC                                                                                                                                                                                                                                                                                                                                                                                                         000022
1007421039880COBR_CAUC_COR  PETROSUL DIST TRANSP COM COMB LTDA      004043623000100AUTO POSTO BANDEIRANTE DE SAO           RAIMUNDO CORREA 780                     SAO CARLOS                              13570591SP3500200002000349310025163 P1  04042012900BRADESCO S/A        0305201200000000002168000CC                                                                                                                                                                                                                                                                                                                                                                                                         000023
1007421039880COBR_CAUC_COR  PETROSUL DIST TRANSP COM COMB LTDA      003657296000106AUTO POSTO SAO PEDRO DE CRAVIN          RUA DAS PEDREIRAS, S/N                  SOROCABA                                18020520SP3500300001000359890016617 P1  20042012900BRADESCO S/A        1405201200000000000983197CC                                                                                                                                                                                                                                                                                                                                                                                                         000024
1007421039880COBR_CAUC_COR  PETROSUL DIST TRANSP COM COMB LTDA      003657296000106AUTO POSTO SAO PEDRO DE CRAVIN          RUA DAS PEDREIRAS, S/N                  SOROCABA                                18020520SP3500300002000353420023668 P1  10042012900BRADESCO S/A        0805201200000000001078950CC                                                                                                                                                                                                                                                                                                                                                                                                         000025
1007421039880COBR_CAUC_COR  PETROSUL DIST TRANSP COM COMB LTDA      003657296000106AUTO POSTO SAO PEDRO DE CRAVIN          RUA DAS PEDREIRAS, S/N                  SOROCABA                                18020520SP3500300003000354740023788 p1  11042012900BRADESCO S/A        1505201200000000000699550CC                                                                                                                                                                                                                                                                                                                                                                                                         000026
1007421039880COBR_CAUC_COR  PETROSUL DIST TRANSP COM COMB LTDA      003657296000106AUTO POSTO SAO PEDRO DE CRAVIN          RUA DAS PEDREIRAS, S/N                  SOROCABA                                18020520SP3500300004000352020024296 P1  05042012900BRADESCO S/A        0305201200000000001483705CC                                                                                                                                                                                                                                                                                                                                                                                                         000027
1007421039880COBR_CAUC_COR  PETROSUL DIST TRANSP COM COMB LTDA      004140815000127AUTO POSTO JARDIM IBITI LTDA.           AV COMENDADOR CAMILO JULIO, 1625        SOROCABA                                18086000SP3500400001000359380052638 P1  20042012900BRADESCO S/A        1005201200000000000844600CC                                                                                                                                                                                                                                                                                                                                                                                                         000028
1007421039880COBR_CAUC_COR  PETROSUL DIST TRANSP COM COMB LTDA      004140815000127AUTO POSTO JARDIM IBITI LTDA.           AV COMENDADOR CAMILO JULIO, 1625        SOROCABA                                18086000SP3500400002000358490054797 P1  19042012900BRADESCO S/A        0305201200000000000844900CC                                                                                                                                                                                                                                                                                                                                                                                                         000029
1007421039880COBR_CAUC_COR  PETROSUL DIST TRANSP COM COMB LTDA      004140815000127AUTO POSTO JARDIM IBITI LTDA.           AV COMENDADOR CAMILO JULIO, 1625        SOROCABA                                18086000SP3500400003000349070064865 P1  04042012900BRADESCO S/A        0205201200000000000786302CC                                                                                                                                                                                                                                                                                                                                                                                                         000030
1007421039880COBR_CAUC_COR  PETROSUL DIST TRANSP COM COMB LTDA      004140815000127AUTO POSTO JARDIM IBITI LTDA.           AV COMENDADOR CAMILO JULIO, 1625        SOROCABA                                18086000SP3500400004000349740065033 P1  04042012900BRADESCO S/A        0305201200000000000851250CC                                                                                                                                                                                                                                                                                                                                                                                                         000031
1007421039880COBR_CAUC_COR  PETROSUL DIST TRANSP COM COMB LTDA      004140815000127AUTO POSTO JARDIM IBITI LTDA.           AV COMENDADOR CAMILO JULIO, 1625        SOROCABA                                18086000SP3500400005000348420065111 P1  04042012900BRADESCO S/A        3004201200000000001074650CC                                                                                                                                                                                                                                                                                                                                                                                                         000032
1007421039880COBR_CAUC_COR  PETROSUL DIST TRANSP COM COMB LTDA      003645510000104AUTO POSTO PARQUE DE VINHEDO L          ESTRADA DA BOIADA,2440                  VINHEDO                                 13280000SP3500500001000359620024791 P1  20042012900BRADESCO S/A        1405201200000000001039600CC                                                                                                                                                                                                                                                                                                                                                                                                         000033
1007421039880COBR_CAUC_COR  PETROSUL DIST TRANSP COM COMB LTDA      003645510000104AUTO POSTO PARQUE DE VINHEDO L          ESTRADA DA BOIADA,2440                  VINHEDO                                 13280000SP3500500002000348850063328 P1  04042012900BRADESCO S/A        0205201200000000001066050CC                                                                                                                                                                                                                                                                                                                                                                                                         000034
1007421039880COBR_CAUC_COR  PETROSUL DIST TRANSP COM COMB LTDA      003645510000104AUTO POSTO PARQUE DE VINHEDO L          ESTRADA DA BOIADA,2440                  VINHEDO                                 13280000SP3500500003000348260063329 P1  04042012900BRADESCO S/A        3004201200000000000709902CC                                                                                                                                                                                                                                                                                                                                                                                                         000035
1007421039880COBR_CAUC_COR  PETROSUL DIST TRANSP COM COMB LTDA      003645510000104AUTO POSTO PARQUE DE VINHEDO L          ESTRADA DA BOIADA,2440                  VINHEDO                                 13280000SP3500500004000354580064011 p1  11042012900BRADESCO S/A        1105201200000000001059000CC                                                                                                                                                                                                                                                                                                                                                                                                         000036
1007421039880COBR_CAUC_COR  PETROSUL DIST TRANSP COM COMB LTDA      003645510000104AUTO POSTO PARQUE DE VINHEDO L          ESTRADA DA BOIADA,2440                  VINHEDO                                 13280000SP3500500005000353000065027 P1  10042012900BRADESCO S/A        0205201200000000001067150CC                                                                                                                                                                                                                                                                                                                                                                                                         000037
1007421039880COBR_CAUC_COR  PETROSUL DIST TRANSP COM COMB LTDA      003643986000106AUTO POSTO NOVA ITAQUERA LTDA           AV IMPERADOR,5080                       SAO PAULO                               08050000SP3500600001000358570026906 P1  19042012900BRADESCO S/A        0405201200000000001033450CC                                                                                                                                                                                                                                                                                                                                                                                                         000038
1007421039880COBR_CAUC_COR  PETROSUL DIST TRANSP COM COMB LTDA      003643986000106AUTO POSTO NOVA ITAQUERA LTDA           AV IMPERADOR,5080                       SAO PAULO                               08050000SP3500600002000359460026907 P1  20042012900BRADESCO S/A        1005201200000000000499400CC                                                                                                                                                                                                                                                                                                                                                                                                         000039
1007421039880COBR_CAUC_COR  PETROSUL DIST TRANSP COM COMB LTDA      003643986000106AUTO POSTO NOVA ITAQUERA LTDA           AV IMPERADOR,5080                       SAO PAULO                               08050000SP3500600003000353180053240 P1  10042012900BRADESCO S/A        0305201200000000001028300CC                                                                                                                                                                                                                                                                                                                                                                                                         000040
1007421039880COBR_CAUC_COR  PETROSUL DIST TRANSP COM COMB LTDA      003643986000106AUTO POSTO NOVA ITAQUERA LTDA           AV IMPERADOR,5080                       SAO PAULO                               08050000SP3500600004000349580059957 P1  04042012900BRADESCO S/A        0305201200000000001016350CC                                                                                                                                                                                                                                                                                                                                                                                                         000041
1007421039880COBR_CAUC_COR  PETROSUL DIST TRANSP COM COMB LTDA      003643986000106AUTO POSTO NOVA ITAQUERA LTDA           AV IMPERADOR,5080                       SAO PAULO                               08050000SP3500600005000351640060098 P1  05042012900BRADESCO S/A        2604201200000000000607550CC                                                                                                                                                                                                                                                                                                                                                                                                         000042
1007421039880COBR_CAUC_COR  PETROSUL DIST TRANSP COM COMB LTDA      003643986000106AUTO POSTO NOVA ITAQUERA LTDA           AV IMPERADOR,5080                       SAO PAULO                               08050000SP3500600006000354660062994 p1  11042012900BRADESCO S/A        1405201200000000001389903CC                                                                                                                                                                                                                                                                                                                                                                                                         000043
1007421039880COBR_CAUC_COR  PETROSUL DIST TRANSP COM COMB LTDA      004043058000173AUTO POSTO PADRE ANCHIETA DE A          AV. PE. JOSE DE ANCHIETA, 949           ARARAQUARA                              14807150SP3500700001000359540016204 P1  20042012900BRADESCO S/A        1405201200000000001120702CC                                                                                                                                                                                                                                                                                                                                                                                                         000044
1007421039880COBR_CAUC_COR  PETROSUL DIST TRANSP COM COMB LTDA      004043058000173AUTO POSTO PADRE ANCHIETA DE A          AV. PE. JOSE DE ANCHIETA, 949           ARARAQUARA                              14807150SP3500700002000348340017647 P1  04042012900BRADESCO S/A        3004201200000000000848504CC                                                                                                                                                                                                                                                                                                                                                                                                         000045
1007421039880COBR_CAUC_COR  PETROSUL DIST TRANSP COM COMB LTDA      004043058000173AUTO POSTO PADRE ANCHIETA DE A          AV. PE. JOSE DE ANCHIETA, 949           ARARAQUARA                              14807150SP3500700003000348930021030 P1  04042012900BRADESCO S/A        0205201200000000000852850CC                                                                                                                                                                                                                                                                                                                                                                                                         000046
1007421039880COBR_CAUC_COR  PETROSUL DIST TRANSP COM COMB LTDA      004043058000173AUTO POSTO PADRE ANCHIETA DE A          AV. PE. JOSE DE ANCHIETA, 949           ARARAQUARA                              14807150SP3500700004000349660021242 P1  04042012900BRADESCO S/A        0305201200000000001048800CC                                                                                                                                                                                                                                                                                                                                                                                                         000047
1007421039880COBR_CAUC_COR  PETROSUL DIST TRANSP COM COMB LTDA      004043058000173AUTO POSTO PADRE ANCHIETA DE A          AV. PE. JOSE DE ANCHIETA, 949           ARARAQUARA                              14807150SP3500700005000353770023690 p1  11042012900BRADESCO S/A        2704201200000000001075050CC                                                                                                                                                                                                                                                                                                                                                                                                         000048
1007421039880COBR_CAUC_COR  PETROSUL DIST TRANSP COM COMB LTDA      004043058000173AUTO POSTO PADRE ANCHIETA DE A          AV. PE. JOSE DE ANCHIETA, 949           ARARAQUARA                              14807150SP3500700006000352370024061 P1  05042012900BRADESCO S/A        2604201200000000001084650CC                                                                                                                                                                                                                                                                                                                                                                                                         000049
1007421039880COBR_CAUC_COR  PETROSUL DIST TRANSP COM COMB LTDA      004043058000173AUTO POSTO PADRE ANCHIETA DE A          AV. PE. JOSE DE ANCHIETA, 949           ARARAQUARA                              14807150SP3500700007000347700050556 P1  04042012900BRADESCO S/A        3004201200000000001693300CC                                                                                                                                                                                                                                                                                                                                                                                                         000050
1007421039880COBR_CAUC_COR  PETROSUL DIST TRANSP COM COMB LTDA      004043058000173AUTO POSTO PADRE ANCHIETA DE A          AV. PE. JOSE DE ANCHIETA, 949           ARARAQUARA                              14807150SP3500700008000325560054347 P1  14032012900BRADESCO S/A        2404201200000000000535400CC                                                                                                                                                                                                                                                                                                                                                                                                         000051
1007421039880COBR_CAUC_COR  PETROSUL DIST TRANSP COM COMB LTDA      002640666000130CENTRO AUTOM. 9 DE JULHO LTDA           AV. 9 DE JULHO, 3634                    SAO PAULO                               01406000SP3500800001000346480053204 P1  04042012900BRADESCO S/A        2604201200000000002056600CC                                                                                                                                                                                                                                                                                                                                                                                                         000052
1007421039880COBR_CAUC_COR  PETROSUL DIST TRANSP COM COMB LTDA      002640666000130CENTRO AUTOM. 9 DE JULHO LTDA           AV. 9 DE JULHO, 3634                    SAO PAULO                               01406000SP3500800002000347290053205 P1  04042012900BRADESCO S/A        2704201200000000001019196CC                                                                                                                                                                                                                                                                                                                                                                                                         000053
1007421039880COBR_CAUC_COR  PETROSUL DIST TRANSP COM COMB LTDA      002640666000130CENTRO AUTOM. 9 DE JULHO LTDA           AV. 9 DE JULHO, 3634                    SAO PAULO                               01406000SP3500800003000345750062992 P1  04042012900BRADESCO S/A        2504201200000000002084854CC                                                                                                                                                                                                                                                                                                                                                                                                         000054
1007421039880COBR_CAUC_COR  PETROSUL DIST TRANSP COM COMB LTDA      002640666000130CENTRO AUTOM. 9 DE JULHO LTDA           AV. 9 DE JULHO, 3634                    SAO PAULO                               01406000SP3500800004000350080063044 P1  04042012900BRADESCO S/A        0405201200000000003113100CC                                                                                                                                                                                                                                                                                                                                                                                                         000055
1007421039880COBR_CAUC_COR  PETROSUL DIST TRANSP COM COMB LTDA      005476730000187AUTO POSTO VILLAGE DE NOVA ODE          RUA DAS PEDREIRAS, S/N                  SOROCABA                                18020520SP3500900001000359970019108 P1  20042012900BRADESCO S/A        1405201200000000001040050CC                                                                                                                                                                                                                                                                                                                                                                                                         000056
1007421039880COBR_CAUC_COR  PETROSUL DIST TRANSP COM COMB LTDA      005476730000187AUTO POSTO VILLAGE DE NOVA ODE          RUA DAS PEDREIRAS, S/N                  SOROCABA                                18020520SP3500900002000345590050558 P1  04042012900BRADESCO S/A        2504201200000000001022150CC                                                                                                                                                                                                                                                                                                                                                                                                         000057
1007421039880COBR_CAUC_COR  PETROSUL DIST TRANSP COM COMB LTDA      005476730000187AUTO POSTO VILLAGE DE NOVA ODE          RUA DAS PEDREIRAS, S/N                  SOROCABA                                18020520SP3500900003000346210050559 P1  04042012900BRADESCO S/A        2604201200000000000466601CC                                                                                                                                                                                                                                                                                                                                                                                                         000058
1007421039880COBR_CAUC_COR  PETROSUL DIST TRANSP COM COMB LTDA      005476730000187AUTO POSTO VILLAGE DE NOVA ODE          RUA DAS PEDREIRAS, S/N                  SOROCABA                                18020520SP3500900004000353850056759 p1  11042012900BRADESCO S/A        3004201200000000001050350CC                                                                                                                                                                                                                                                                                                                                                                                                         000059
1007421039880COBR_CAUC_COR  PETROSUL DIST TRANSP COM COMB LTDA      005476730000187AUTO POSTO VILLAGE DE NOVA ODE          RUA DAS PEDREIRAS, S/N                  SOROCABA                                18020520SP3500900005000356360068648 P1  18042012900BRADESCO S/A        0905201200000000001060200CC                                                                                                                                                                                                                                                                                                                                                                                                         000060
1007421039880COBR_CAUC_COR  PETROSUL DIST TRANSP COM COMB LTDA      005476730000187AUTO POSTO VILLAGE DE NOVA ODE          RUA DAS PEDREIRAS, S/N                  SOROCABA                                18020520SP3500900006000357500068679 P1  18042012900BRADESCO S/A        1105201200000000001516603CC                                                                                                                                                                                                                                                                                                                                                                                                         000061
1007421039880COBR_CAUC_COR  PETROSUL DIST TRANSP COM COMB LTDA      005476730000187AUTO POSTO VILLAGE DE NOVA ODE          RUA DAS PEDREIRAS, S/N                  SOROCABA                                18020520SP3500900007000355210068897 P1  18042012900BRADESCO S/A        0705201200000000001559399CC                                                                                                                                                                                                                                                                                                                                                                                                         000062
1007421039880COBR_CAUC_COR  PETROSUL DIST TRANSP COM COMB LTDA      005476730000187AUTO POSTO VILLAGE DE NOVA ODE          RUA DAS PEDREIRAS, S/N                  SOROCABA                                18020520SP3500900008000355390068985 P1  18042012900BRADESCO S/A        0705201200000000000779700CC                                                                                                                                                                                                                                                                                                                                                                                                         000063
1007421039880COBR_CAUC_COR  PETROSUL DIST TRANSP COM COMB LTDA      003904037000132AUTO POSTO CAPITAO DE PIEDADE           RUA CAPITAO MORAES, 283                 PIEDADE                                 18170000SP3501000001000358060023717 P1  19042012900BRADESCO S/A        0205201200000000000516550CC                                                                                                                                                                                                                                                                                                                                                                                                         000064
1007421039880COBR_CAUC_COR  PETROSUL DIST TRANSP COM COMB LTDA      003904037000132AUTO POSTO CAPITAO DE PIEDADE           RUA CAPITAO MORAES, 283                 PIEDADE                                 18170000SP3501000002000358140023718 P1  19042012900BRADESCO S/A        0205201200000000000945450CC                                                                                                                                                                                                                                                                                                                                                                                                         000065
1007421039880COBR_CAUC_COR  PETROSUL DIST TRANSP COM COMB LTDA      003904037000132AUTO POSTO CAPITAO DE PIEDADE           RUA CAPITAO MORAES, 283                 PIEDADE                                 18170000SP3501000003000353260056497 P1  10042012900BRADESCO S/A        0405201200000000002536950CC                                                                                                                                                                                                                                                                                                                                                                                                         000066
1007421039880COBR_CAUC_COR  PETROSUL DIST TRANSP COM COMB LTDA      003904037000132AUTO POSTO CAPITAO DE PIEDADE           RUA CAPITAO MORAES, 283                 PIEDADE                                 18170000SP3501000004000351720063133 P1  05042012900BRADESCO S/A        2704201200000000002536050CC                                                                                                                                                                                                                                                                                                                                                                                                         000067
1007421039880COBR_CAUC_COR  PETROSUL DIST TRANSP COM COMB LTDA      003904037000132AUTO POSTO CAPITAO DE PIEDADE           RUA CAPITAO MORAES, 283                 PIEDADE                                 18170000SP3501000005000355980068830 P1  18042012900BRADESCO S/A        0805201200000000001708600CC                                                                                                                                                                                                                                                                                                                                                                                                         000068
1007421039880COBR_CAUC_COR  PETROSUL DIST TRANSP COM COMB LTDA      003904037000132AUTO POSTO CAPITAO DE PIEDADE           RUA CAPITAO MORAES, 283                 PIEDADE                                 18170000SP3501000006000357170068996 P1  18042012900BRADESCO S/A        1005201200000000000785251CC                                                                                                                                                                                                                                                                                                                                                                                                         000069
1007421039880COBR_CAUC_COR  PETROSUL DIST TRANSP COM COMB LTDA      003904037000132AUTO POSTO CAPITAO DE PIEDADE           RUA CAPITAO MORAES, 283                 PIEDADE                                 18170000SP3501000007000354820069126 P1  18042012900BRADESCO S/A        0705201200000000001065650CC                                                                                                                                                                                                                                                                                                                                                                                                         000070
1007421039880COBR_CAUC_COR  PETROSUL DIST TRANSP COM COMB LTDA      003034736000179BAND-2 POSTO LTDA                       AV DOS BANDEIRANTES,1365                SAO PAULO                               04553010SP3501100001000351480056621 P1  05042012900BRADESCO S/A        2404201200000000001011800CC                                                                                                                                                                                                                                                                                                                                                                                                         000071
1007421039880COBR_CAUC_COR  PETROSUL DIST TRANSP COM COMB LTDA      003034736000179BAND-2 POSTO LTDA                       AV DOS BANDEIRANTES,1365                SAO PAULO                               04553010SP3501100002000352960056762 P1  10042012900BRADESCO S/A        3004201200000000001013000CC                                                                                                                                                                                                                                                                                                                                                                                                         000072
1007421039880COBR_CAUC_COR  PETROSUL DIST TRANSP COM COMB LTDA      003034736000179BAND-2 POSTO LTDA                       AV DOS BANDEIRANTES,1365                SAO PAULO                               04553010SP3501100003000346050059291 P1  04042012900BRADESCO S/A        2504201200000000001033750CC                                                                                                                                                                                                                                                                                                                                                                                                         000073
1007421039880COBR_CAUC_COR  PETROSUL DIST TRANSP COM COMB LTDA      003034736000179BAND-2 POSTO LTDA                       AV DOS BANDEIRANTES,1365                SAO PAULO                               04553010SP3501100004000346990059292 P1  04042012900BRADESCO S/A        2604201200000000001091203CC                                                                                                                                                                                                                                                                                                                                                                                                         000074
1007421039880COBR_CAUC_COR  PETROSUL DIST TRANSP COM COMB LTDA      003034736000179BAND-2 POSTO LTDA                       AV DOS BANDEIRANTES,1365                SAO PAULO                               04553010SP3501100005000352880059470 P1  10042012900BRADESCO S/A        2704201200000000000545647CC                                                                                                                                                                                                                                                                                                                                                                                                         000075
1007421039880COBR_CAUC_COR  PETROSUL DIST TRANSP COM COMB LTDA      003034736000179BAND-2 POSTO LTDA                       AV DOS BANDEIRANTES,1365                SAO PAULO                               04553010SP3501100006000357680061447 P1  18042012900BRADESCO S/A        1105201200000000001388245CC                                                                                                                                                                                                                                                                                                                                                                                                         000076
1007421039880COBR_CAUC_COR  PETROSUL DIST TRANSP COM COMB LTDA      003034736000179BAND-2 POSTO LTDA                       AV DOS BANDEIRANTES,1365                SAO PAULO                               04553010SP3501100007000355470061511 P1  18042012900BRADESCO S/A        0705201200000000001014850CC                                                                                                                                                                                                                                                                                                                                                                                                         000077
1007421039880COBR_CAUC_COR  PETROSUL DIST TRANSP COM COMB LTDA      003034736000179BAND-2 POSTO LTDA                       AV DOS BANDEIRANTES,1365                SAO PAULO                               04553010SP3501100008000355550061512 P1  18042012900BRADESCO S/A        0805201200000000000472950CC                                                                                                                                                                                                                                                                                                                                                                                                         000078
1007421039880COBR_CAUC_COR  PETROSUL DIST TRANSP COM COMB LTDA      003034736000179BAND-2 POSTO LTDA                       AV DOS BANDEIRANTES,1365                SAO PAULO                               04553010SP3501100009000354400062904 p1  11042012900BRADESCO S/A        1005201200000000002121200CC                                                                                                                                                                                                                                                                                                                                                                                                         000079
1007421039880COBR_CAUC_COR  PETROSUL DIST TRANSP COM COMB LTDA      003034736000179BAND-2 POSTO LTDA                       AV DOS BANDEIRANTES,1365                SAO PAULO                               04553010SP3501100010000356440064158 P1  18042012900BRADESCO S/A        0905201200000000000843300CC                                                                                                                                                                                                                                                                                                                                                                                                         000080
1007421039880COBR_CAUC_COR  PETROSUL DIST TRANSP COM COMB LTDA      005762181000107AUTO POSTO CASTELAO 91 LTDA             RUA DAS PEDREIRAS, S/N                  SOROCABA                                18020520SP3501200001000358220024666 P1  19042012900BRADESCO S/A        0305201200000000000514449CC                                                                                                                                                                                                                                                                                                                                                                                                         000081
1007421039880COBR_CAUC_COR  PETROSUL DIST TRANSP COM COMB LTDA      005762181000107AUTO POSTO CASTELAO 91 LTDA             RUA DAS PEDREIRAS, S/N                  SOROCABA                                18020520SP3501200002000358310024782 P1  19042012900BRADESCO S/A        0305201200000000001883100CC                                                                                                                                                                                                                                                                                                                                                                                                         000082
1007421039880COBR_CAUC_COR  PETROSUL DIST TRANSP COM COMB LTDA      005762181000107AUTO POSTO CASTELAO 91 LTDA             RUA DAS PEDREIRAS, S/N                  SOROCABA                                18020520SP3501200003000359200032210 P1  20042012900BRADESCO S/A        1005201200000000002818950CC                                                                                                                                                                                                                                                                                                                                                                                                         000083
1007421039880COBR_CAUC_COR  PETROSUL DIST TRANSP COM COMB LTDA      005762181000107AUTO POSTO CASTELAO 91 LTDA             RUA DAS PEDREIRAS, S/N                  SOROCABA                                18020520SP3501200004000356010055129 P1  18042012900BRADESCO S/A        0805201200000000000471401CC                                                                                                                                                                                                                                                                                                                                                                                                         000084
1007421039880COBR_CAUC_COR  PETROSUL DIST TRANSP COM COMB LTDA      005762181000107AUTO POSTO CASTELAO 91 LTDA             RUA DAS PEDREIRAS, S/N                  SOROCABA                                18020520SP3501200005000357250055130 P1  18042012900BRADESCO S/A        1005201200000000001684000CC                                                                                                                                                                                                                                                                                                                                                                                                         000085
1007421039880COBR_CAUC_COR  PETROSUL DIST TRANSP COM COMB LTDA      005762181000107AUTO POSTO CASTELAO 91 LTDA             RUA DAS PEDREIRAS, S/N                  SOROCABA                                18020520SP3501200006000354070055317 p1  11042012900BRADESCO S/A        0305201200000000001088504CC                                                                                                                                                                                                                                                                                                                                                                                                         000086
1007421039880COBR_CAUC_COR  PETROSUL DIST TRANSP COM COMB LTDA      005762181000107AUTO POSTO CASTELAO 91 LTDA             RUA DAS PEDREIRAS, S/N                  SOROCABA                                18020520SP3501200007000354910060507 P1  18042012900BRADESCO S/A        0705201200000000000553048CC                                                                                                                                                                                                                                                                                                                                                                                                         000087
1007421039880COBR_CAUC_COR  PETROSUL DIST TRANSP COM COMB LTDA      005762181000107AUTO POSTO CASTELAO 91 LTDA             RUA DAS PEDREIRAS, S/N                  SOROCABA                                18020520SP3501200008000347110062794 P1  04042012900BRADESCO S/A        2704201200000000001689200CC                                                                                                                                                                                                                                                                                                                                                                                                         000088
1007421039880COBR_CAUC_COR  PETROSUL DIST TRANSP COM COMB LTDA      002802083000168SUPER POSTO JC LTDA                     AV. WASHINGTON LUIZ, 1297               SOROCABA                                18040000SP3501300001000353690042412 p1  11042012900BRADESCO S/A        0705201200000000001009205CC                                                                                                                                                                                                                                                                                                                                                                                                         000089
1007421039880COBR_CAUC_COR  PETROSUL DIST TRANSP COM COMB LTDA      002802083000168SUPER POSTO JC LTDA                     AV. WASHINGTON LUIZ, 1297               SOROCABA                                18040000SP3501300002000347960056585 P1  04042012900BRADESCO S/A        3004201200000000001053000CC                                                                                                                                                                                                                                                                                                                                                                                                         000090
1007421039880COBR_CAUC_COR  PETROSUL DIST TRANSP COM COMB LTDA      002802083000168SUPER POSTO JC LTDA                     AV. WASHINGTON LUIZ, 1297               SOROCABA                                18040000SP3501300003000347450056586 P1  04042012900BRADESCO S/A        2704201200000000001754394CC                                                                                                                                                                                                                                                                                                                                                                                                         000091
1007421039880COBR_CAUC_COR  PETROSUL DIST TRANSP COM COMB LTDA      002802083000168SUPER POSTO JC LTDA                     AV. WASHINGTON LUIZ, 1297               SOROCABA                                18040000SP3501300004000350160056676 P1  04042012900BRADESCO S/A        0405201200000000001053000CC                                                                                                                                                                                                                                                                                                                                                                                                         000092
1007421039880COBR_CAUC_COR  PETROSUL DIST TRANSP COM COMB LTDA      002802083000168SUPER POSTO JC LTDA                     AV. WASHINGTON LUIZ, 1297               SOROCABA                                18040000SP3501300005000354150056922 p1  11042012900BRADESCO S/A        0405201200000000000611202CC                                                                                                                                                                                                                                                                                                                                                                                                         000093
1007421039880COBR_CAUC_COR  PETROSUL DIST TRANSP COM COMB LTDA      002802083000168SUPER POSTO JC LTDA                     AV. WASHINGTON LUIZ, 1297               SOROCABA                                18040000SP3501300006000356950068639 P1  18042012900BRADESCO S/A        1005201200000000001526203CC                                                                                                                                                                                                                                                                                                                                                                                                         000094
1007421039880COBR_CAUC_COR  PETROSUL DIST TRANSP COM COMB LTDA      002802083000168SUPER POSTO JC LTDA                     AV. WASHINGTON LUIZ, 1297               SOROCABA                                18040000SP3501300007000357090068654 P1  18042012900BRADESCO S/A        1005201200000000000639000CC                                                                                                                                                                                                                                                                                                                                                                                                         000095
1007421039880COBR_CAUC_COR  PETROSUL DIST TRANSP COM COMB LTDA      002802083000168SUPER POSTO JC LTDA                     AV. WASHINGTON LUIZ, 1297               SOROCABA                                18040000SP3501300008000355800068828 P1  18042012900BRADESCO S/A        0805201200000000002130000CC                                                                                                                                                                                                                                                                                                                                                                                                         000096
1007421039880COBR_CAUC_COR  PETROSUL DIST TRANSP COM COMB LTDA      002802083000168SUPER POSTO JC LTDA                     AV. WASHINGTON LUIZ, 1297               SOROCABA                                18040000SP3501300009000357920068987 P1  18042012900BRADESCO S/A        1105201200000000001065000CC                                                                                                                                                                                                                                                                                                                                                                                                         000097
1007421039880COBR_CAUC_COR  PETROSUL DIST TRANSP COM COMB LTDA      003035619000120POSTO DE ABAST SERVICOS AMIZAD          AV DA AMIZADE,1661                      SUMARE                                  13175483SP3501400001000360040010929 P1  20042012900BRADESCO S/A        1505201200000000001895700CC                                                                                                                                                                                                                                                                                                                                                                                                         000098
1007421039880COBR_CAUC_COR  PETROSUL DIST TRANSP COM COMB LTDA      003035619000120POSTO DE ABAST SERVICOS AMIZAD          AV DA AMIZADE,1661                      SUMARE                                  13175483SP3501400002000358810040438 P1  19042012900BRADESCO S/A        0505201200000000001041850CC                                                                                                                                                                                                                                                                                                                                                                                                         000099
1007421039880COBR_CAUC_COR  PETROSUL DIST TRANSP COM COMB LTDA      003035619000120POSTO DE ABAST SERVICOS AMIZAD          AV DA AMIZADE,1661                      SUMARE                                  13175483SP3501400003000346640055456 P1  04042012900BRADESCO S/A        2604201200000000001071303CC                                                                                                                                                                                                                                                                                                                                                                                                         000100
1007421039880COBR_CAUC_COR  PETROSUL DIST TRANSP COM COMB LTDA      003035619000120POSTO DE ABAST SERVICOS AMIZAD          AV DA AMIZADE,1661                      SUMARE                                  13175483SP3501400004000348000055539 P1  04042012900BRADESCO S/A        3004201200000000001039000CC                                                                                                                                                                                                                                                                                                                                                                                                         000101
1007421039880COBR_CAUC_COR  PETROSUL DIST TRANSP COM COMB LTDA      003035619000120POSTO DE ABAST SERVICOS AMIZAD          AV DA AMIZADE,1661                      SUMARE                                  13175483SP3501400005000350240055648 P1  04042012900BRADESCO S/A        0405201200000000000547852CC                                                                                                                                                                                                                                                                                                                                                                                                         000102
1007421039880COBR_CAUC_COR  PETROSUL DIST TRANSP COM COMB LTDA      003035619000120POSTO DE ABAST SERVICOS AMIZAD          AV DA AMIZADE,1661                      SUMARE                                  13175483SP3501400006000347530056879 P1  04042012900BRADESCO S/A        2704201200000000001694800CC                                                                                                                                                                                                                                                                                                                                                                                                         000103
1007421039880COBR_CAUC_COR  PETROSUL DIST TRANSP COM COMB LTDA      003035619000120POSTO DE ABAST SERVICOS AMIZAD          AV DA AMIZADE,1661                      SUMARE                                  13175483SP3501400007000354230057020 p1  11042012900BRADESCO S/A        0805201200000000001023500CC                                                                                                                                                                                                                                                                                                                                                                                                         000104
1007421039880COBR_CAUC_COR  PETROSUL DIST TRANSP COM COMB LTDA      003035619000120POSTO DE ABAST SERVICOS AMIZAD          AV DA AMIZADE,1661                      SUMARE                                  13175483SP3501400008000344940059548 P1  04042012900BRADESCO S/A        2404201200000000001703900CC                                                                                                                                                                                                                                                                                                                                                                                                         000105
1007421039880COBR_CAUC_COR  PETROSUL DIST TRANSP COM COMB LTDA      003035619000120POSTO DE ABAST SERVICOS AMIZAD          AV DA AMIZADE,1661                      SUMARE                                  13175483SP3501400009000352530060076 P1  10042012900BRADESCO S/A        2404201200000000001703900CC                                                                                                                                                                                                                                                                                                                                                                                                         000106
1007421039880COBR_CAUC_COR  PETROSUL DIST TRANSP COM COMB LTDA      003035619000120POSTO DE ABAST SERVICOS AMIZAD          AV DA AMIZADE,1661                      SUMARE                                  13175483SP3501400010000356520067816 P1  18042012900BRADESCO S/A        0905201200000000001063450CC                                                                                                                                                                                                                                                                                                                                                                                                         000107
1007421039880COBR_CAUC_COR  PETROSUL DIST TRANSP COM COMB LTDA      003035619000120POSTO DE ABAST SERVICOS AMIZAD          AV DA AMIZADE,1661                      SUMARE                                  13175483SP3501400011000355630068108 P1  18042012900BRADESCO S/A        0805201200000000001449303CC                                                                                                                                                                                                                                                                                                                                                                                                         000108
1007421039880COBR_CAUC_COR  PETROSUL DIST TRANSP COM COMB LTDA      002197202000796REDE ROGER DE P DE COM LTDA -J          ROD WASHINGTON LUIS, KM 244             IBATE                                   14815000SP3501500001000348770028118 P1  04042012900BRADESCO S/A        0205201200000000001759700CC                                                                                                                                                                                                                                                                                                                                                                                                         000109
1007421039880COBR_CAUC_COR  PETROSUL DIST TRANSP COM COMB LTDA      002197202000796REDE ROGER DE P DE COM LTDA -J          ROD WASHINGTON LUIS, KM 244             IBATE                                   14815000SP3501500002000353510028307 P1  10042012900BRADESCO S/A        0905201200000000001043401CC                                                                                                                                                                                                                                                                                                                                                                                                         000110
1007421039880COBR_CAUC_COR  PETROSUL DIST TRANSP COM COMB LTDA      002197202000796REDE ROGER DE P DE COM LTDA -J          ROD WASHINGTON LUIS, KM 244             IBATE                                   14815000SP3501500003000354310028320 p1  11042012900BRADESCO S/A        0905201200000000001015150CC                                                                                                                                                                                                                                                                                                                                                                                                         000111
1007421039880COBR_CAUC_COR  PETROSUL DIST TRANSP COM COMB LTDA      002197202000796REDE ROGER DE P DE COM LTDA -J          ROD WASHINGTON LUIS, KM 244             IBATE                                   14815000SP3501500004000350410029700 P1  04042012900BRADESCO S/A        0405201200000000000977996CC                                                                                                                                                                                                                                                                                                                                                                                                         000112
1007421039880COBR_CAUC_COR  PETROSUL DIST TRANSP COM COMB LTDA      002197202000796REDE ROGER DE P DE COM LTDA -J          ROD WASHINGTON LUIS, KM 244             IBATE                                   14815000SP3501500005000345240029746 P1  04042012900BRADESCO S/A        2404201200000000000861700CC                                                                                                                                                                                                                                                                                                                                                                                                         000113
1007421039880COBR_CAUC_COR  PETROSUL DIST TRANSP COM COMB LTDA      002197202000796REDE ROGER DE P DE COM LTDA -J          ROD WASHINGTON LUIS, KM 244             IBATE                                   14815000SP3501500006000345910030585 P1  04042012900BRADESCO S/A        2504201200000000001015700CC                                                                                                                                                                                                                                                                                                                                                                                                         000114
1007421039880COBR_CAUC_COR  PETROSUL DIST TRANSP COM COMB LTDA      002197202000796REDE ROGER DE P DE COM LTDA -J          ROD WASHINGTON LUIS, KM 244             IBATE                                   14815000SP3501500007000346810030810 P1  04042012900BRADESCO S/A        2604201200000000000871400CC                                                                                                                                                                                                                                                                                                                                                                                                         000115
1007421039880COBR_CAUC_COR  PETROSUL DIST TRANSP COM COMB LTDA      002197202000796REDE ROGER DE P DE COM LTDA -J          ROD WASHINGTON LUIS, KM 244             IBATE                                   14815000SP3501500008000348180030936 P1  04042012900BRADESCO S/A        3004201200000000000521700CC                                                                                                                                                                                                                                                                                                                                                                                                         000116
1007421039880COBR_CAUC_COR  PETROSUL DIST TRANSP COM COMB LTDA      002197202000796REDE ROGER DE P DE COM LTDA -J          ROD WASHINGTON LUIS, KM 244             IBATE                                   14815000SP3501500009000350320030937 P1  04042012900BRADESCO S/A        0405201200000000000521700CC                                                                                                                                                                                                                                                                                                                                                                                                         000117
1007421039880COBR_CAUC_COR  PETROSUL DIST TRANSP COM COMB LTDA      002197202000796REDE ROGER DE P DE COM LTDA -J          ROD WASHINGTON LUIS, KM 244             IBATE                                   14815000SP3501500010000347610031304 P1  04042012900BRADESCO S/A        2704201200000000000575899CC                                                                                                                                                                                                                                                                                                                                                                                                         000118
1007421039880COBR_CAUC_COR  PETROSUL DIST TRANSP COM COMB LTDA      002197202000796REDE ROGER DE P DE COM LTDA -J          ROD WASHINGTON LUIS, KM 244             IBATE                                   14815000SP3501500011000345830031305 P1  04042012900BRADESCO S/A        2504201200000000001022100CC                                                                                                                                                                                                                                                                                                                                                                                                         000119
1007421039880COBR_CAUC_COR  PETROSUL DIST TRANSP COM COMB LTDA      002197202000796REDE ROGER DE P DE COM LTDA -J          ROD WASHINGTON LUIS, KM 244             IBATE                                   14815000SP3501500012000346720031561 P1  04042012900BRADESCO S/A        2604201200000000000545849CC                                                                                                                                                                                                                                                                                                                                                                                                         000120
1007421039880COBR_CAUC_COR  PETROSUL DIST TRANSP COM COMB LTDA      002197202000796REDE ROGER DE P DE COM LTDA -J          ROD WASHINGTON LUIS, KM 244             IBATE                                   14815000SP3501500013000352610032554 P1  10042012900BRADESCO S/A        2504201200000000001018600CC                                                                                                                                                                                                                                                                                                                                                                                                         000121
1007421039880COBR_CAUC_COR  PETROSUL DIST TRANSP COM COMB LTDA      002197202000796REDE ROGER DE P DE COM LTDA -J          ROD WASHINGTON LUIS, KM 244             IBATE                                   14815000SP3501500014000352700032647 P1  10042012900BRADESCO S/A        2604201200000000000877000CC                                                                                                                                                                                                                                                                                                                                                                                                         000122
1007421039880COBR_CAUC_COR  PETROSUL DIST TRANSP COM COMB LTDA      002197202000796REDE ROGER DE P DE COM LTDA -J          ROD WASHINGTON LUIS, KM 244             IBATE                                   14815000SP3501500015000356610035261 P1  18042012900BRADESCO S/A        0905201200000000000510051CC                                                                                                                                                                                                                                                                                                                                                                                                         000123
1007421039880COBR_CAUC_COR  PETROSUL DIST TRANSP COM COMB LTDA      002197202000796REDE ROGER DE P DE COM LTDA -J          ROD WASHINGTON LUIS, KM 244             IBATE                                   14815000SP3501500016000357760035322 P1  18042012900BRADESCO S/A        1105201200000000001723400CC                                                                                                                                                                                                                                                                                                                                                                                                         000124
1007421039880COBR_CAUC_COR  PETROSUL DIST TRANSP COM COMB LTDA      002197202000796REDE ROGER DE P DE COM LTDA -J          ROD WASHINGTON LUIS, KM 244             IBATE                                   14815000SP3501500017000355710035494 P1  18042012900BRADESCO S/A        0805201200000000000521201CC                                                                                                                                                                                                                                                                                                                                                                                                         000125
1007421039880COBR_CAUC_COR  PETROSUL DIST TRANSP COM COMB LTDA      002197202000796REDE ROGER DE P DE COM LTDA -J          ROD WASHINGTON LUIS, KM 244             IBATE                                   14815000SP3501500018000356790038004 P1  18042012900BRADESCO S/A        0905201200000000001182904CC                                                                                                                                                                                                                                                                                                                                                                                                         000126
1007421039880COBR_CAUC_COR  PETROSUL DIST TRANSP COM COMB LTDA      002197202000796REDE ROGER DE P DE COM LTDA -J          ROD WASHINGTON LUIS, KM 244             IBATE                                   14815000SP3501500019000356870038005 p1  18042012900BRADESCO S/A        0905201200000000001162396CC                                                                                                                                                                                                                                                                                                                                                                                                         000127
1007421039880COBR_CAUC_COR  PETROSUL DIST TRANSP COM COMB LTDA      002197202000796REDE ROGER DE P DE COM LTDA -J          ROD WASHINGTON LUIS, KM 244             IBATE                                   14815000SP3501500020000357840038038 P1  18042012900BRADESCO S/A        1105201200000000001033200CC                                                                                                                                                                                                                                                                                                                                                                                                         000128
1007421039880COBR_CAUC_COR  PETROSUL DIST TRANSP COM COMB LTDA      002197202000796REDE ROGER DE P DE COM LTDA -J          ROD WASHINGTON LUIS, KM 244             IBATE                                   14815000SP3501500021000345160075412 P1  04042012900BRADESCO S/A        2404201200000000001763100CC                                                                                                                                                                                                                                                                                                                                                                                                         000129
9000025                                                                                                                                                                                                                                                                                                                                                                                                                                                                                                                                                                                                                                                                                                               000130
