0REMESSANOTIFICACAO ELETRONICA        99999999999999BICBANCO                                AV. PAULISTA                            1048      12.ANDAR  BELA VISTA                    SAO PAULO                     01310100SP1121739360CORTINHAL                               COORDENADOR                             06072012                                                                                                                                                                                                                                                                                                                                                                                      000001
1021420930887COBR_CAUC_BIC  DEDINI S/A INDUSTRIAS DE BASE           005235484000171BRASTEC TECHNOLOGIES LTDA               R ANTONIO OVIDIO RODRIGUES P I JUNDIAI IJUNDIAI                                 13213180SP36322000010634261937279-1-1   04072012007PAULISTA            2007201200000000029795000CC                                                                                                                                                                                                                                                                                                                                                                                                         000002
1048421001938COBR_CAUC_COR  SERVIMED COMERCIAL LTDA                 079430682003067FARM E DROG NISSEI LTDA                 R DESEMBAGADOR WESTEPHALEN 3448         CURITIBA                                80220031PR363230000100161852966634  15  04072012900BRADESCO S/A        0309201200000000010274740CC                                                                                                                                                                                                                                                                                                                                                                                                         000003
1016421019267COBR_CAUC_COR  COBRAZEM AGROINDUSTRIAL LTDA            004463344000198COOPERATIVA AGROINDUSTRIAL AGUAS F      AVENIDA ANITA BOARO,,502                AGUAS FRIAS                             89843000SC3632400001034806130007899-1   29062012800UNIBANCO S/A        0808201200000000052500000CC                                                                                                                                                                                                                                                                                                                                                                                                         000004
1022421007495COBR_CAUC_BIC  TECUMSEH DO BRASIL LTDA                 004821041000108METALFRIO SOLUTIONS SA                  AV ABRAHAO GONCALVES  BRAGA  ,412       SAO PAULO                               04186220SP36325000010435047153901/1     05072012007PAULISTA            0310201200000000012944736CC                                                                                                                                                                                                                                                                                                                                                                                                         000005
1019421011492COBR_CAUC_BIC  SECULUS DA AMAZONIA IND. E COM. S/A     010464223000597PRIVALIA SERVICOS DE INFORMACAO LT      R PROF ALCEU MAYNARD DE ARAUJO, 689     SAO PAULO                               04726160SP3632600001065015040002415 02  28062012007PAULISTA            2708201200000000010606379CC                                                                                                                                                                                                                                                                                                                                                                                                         000006
1019421011492COBR_CAUC_BIC  SECULUS DA AMAZONIA IND. E COM. S/A     010464223000597PRIVALIA SERVICOS DE INFORMACAO LT      R PROF ALCEU MAYNARD DE ARAUJO, 689     SAO PAULO                               04726160SP3632600002065015120002415 03  28062012007PAULISTA            2609201200000000010609562CC                                                                                                                                                                                                                                                                                                                                                                                                         000007
1007421034080COBR_CAUC_BIC  SIDMEX INTERNACIONAL LTDA               012974810000128MOORIM DO BRASIL IMPORTACAO E EXPO      SENADOR CASEMIRO DA ROCHA,50            SAO PAULO                               04047000SP363270000101326740464.12      05072012007PAULISTA            1807201200000000011293583CC                                                                                                                                                                                                                                                                                                                                                                                                         000008
1038421019856COBR_CAUC_BIC  KELPEN OIL BRASIL LTDA                  047446133000150QUIMATEC PRODUTOS QUIMICOS LTDA         RODOVIA WASHINGTON LUIZ ,0              ARARAQUARA                              14800670SP36328000010972326601409701    04072012022RIBEIRAO PRETO      1807201200000000011767599CC                                                                                                                                                                                                                                                                                                                                                                                                         000009
1038421019856COBR_CAUC_BIC  KELPEN OIL BRASIL LTDA                  047446133000150QUIMATEC PRODUTOS QUIMICOS LTDA         RODOVIA WASHINGTON LUIZ ,0              ARARAQUARA                              14800670SP36328000020972327401409901    04072012022RIBEIRAO PRETO      1807201200000000011846199CC                                                                                                                                                                                                                                                                                                                                                                                                         000010
9000007                                                                                                                                                                                                                                                                                                                                                                                                                                                                                                                                                                                                                                                                                                               000011
