0REMESSANOTIFICACAO ELETRONICA        99999999999999BICBANCO                                AV. PAULISTA                            1048      12.ANDAR  BELA VISTA                    SAO PAULO                     01310100SP1121739360CORTINHAL                               COORDENADOR                             29012013                                                                                                                                                                                                                                                                                                                                                                                      000001
1016421006424COBR_CAUC_COR  BOUTIN FERTILIZANTES LTDA               002355341000105SAFRAS INSUMOS AGRICOLAS                ESTRADA PARA CONTRY CLUB,0              DOIZ VIZINHOS                           85660000PR39943000010388366132237       28012013800UNIBANCO S/A        3005201300000000010143000CC                                                                                                                                                                                                                                                                                                                                                                                                         000002
1016421006424COBR_CAUC_COR  BOUTIN FERTILIZANTES LTDA               002355341000105SAFRAS INSUMOS AGRICOLAS                ESTRADA PARA CONTRY CLUB,0              DOIZ VIZINHOS                           85660000PR39943000020388367032238       28012013800UNIBANCO S/A        3005201300000000010384000CC                                                                                                                                                                                                                                                                                                                                                                                                         000003
1021420930887COBR_CAUC_COR  DEDINI S/A INDUSTRIAS DE BASE           015043391000107COOPERATIVA AGR PROD CANA CAMPO NO      RODOVIA BR364 KM 864 ZONA RURAL BR      CAMPO NOVO DE P                         78360000MT39942000010636603828637-3-3   16012013900BRADESCO S/A        1703201300000000011400000CC                                                                                                                                                                                                                                                                                                                                                                                                         000004
1020421001717COBR_CAUC_BIC  H-BUSTER DA AMAZONIA IND COM LTDA       013481309015629RN COMERCIO VAREJISTA S.A.              RUA HIBISCO,210                         CONTAGEM                                32150210MG399490000106288697022082.1/1  14122012019BELO HORIZONTE      1302201300000000055564000CC                                                                                                                                                                                                                                                                                                                                                                                                         000005
1047421000534COBR_CAUC_BIC  INDUSTRIA QUIMICA KIMBERLIT LTDA        002208767000721FERTILIZANTES ALIANCA LTDA              PARAISO AS MARGENS DA BR153  KM 1290 SN APARECIDA DE GO                         74984300GO399450000101589446118232      28012013018GOIANIA             3004201300000000023395404CC                                                                                                                                                                                                                                                                                                                                                                                                         000006
1047421000534COBR_CAUC_COR  INDUSTRIA QUIMICA KIMBERLIT LTDA        091787176000190COXILHA INDDE FERTILIZANTES E CORR      JULIO DE CASTILHOS 890                  TAPEJARA                                99950000RS399460000101589454118253      28012013900BRADESCO S/A        3006201300000000020136000CC                                                                                                                                                                                                                                                                                                                                                                                                         000007
1038421020080COBR_CAUC_COR  JM IND E COM DE ARTEFATOS DE METAIS     006931598000119NOVA INJECAO LTDA - ME                  MARIA JOSE RODRIGUES,1365               C.LIMPO PAULIST                         13236000SP399570000100003066101701      28012013800UNIBANCO S/A        2304201300000000004427800CC                                                                                                                                                                                                                                                                                                                                                                                                         000008
1038421020080COBR_CAUC_COR  JM IND E COM DE ARTEFATOS DE METAIS     006931598000119NOVA INJECAO LTDA - ME                  MARIA JOSE RODRIGUES,1365               C.LIMPO PAULIST                         13236000SP399570000200003074102301      28012013800UNIBANCO S/A        2504201300000000005386265CC                                                                                                                                                                                                                                                                                                                                                                                                         000009
1038421020080COBR_CAUC_COR  JM IND E COM DE ARTEFATOS DE METAIS     006931598000119NOVA INJECAO LTDA - ME                  MARIA JOSE RODRIGUES,1365               C.LIMPO PAULIST                         13236000SP399570000300003082102401      28012013800UNIBANCO S/A        2504201300000000005200000CC                                                                                                                                                                                                                                                                                                                                                                                                         000010
1038421020080COBR_CAUC_COR  JM IND E COM DE ARTEFATOS DE METAIS     006931598000119NOVA INJECAO LTDA - ME                  MARIA JOSE RODRIGUES,1365               C.LIMPO PAULIST                         13236000SP39957000040997171595901       27122012800UNIBANCO S/A        1803201300000000003052400CC                                                                                                                                                                                                                                                                                                                                                                                                         000011
1038421020080COBR_CAUC_COR  JM IND E COM DE ARTEFATOS DE METAIS     006931598000119NOVA INJECAO LTDA - ME                  MARIA JOSE RODRIGUES,1365               C.LIMPO PAULIST                         13236000SP39957000050999184898101       16012013800UNIBANCO S/A        1004201300000000006500000CC                                                                                                                                                                                                                                                                                                                                                                                                         000012
1038421020080COBR_CAUC_COR  JM IND E COM DE ARTEFATOS DE METAIS     006931598000119NOVA INJECAO LTDA - ME                  MARIA JOSE RODRIGUES,1365               C.LIMPO PAULIST                         13236000SP39957000060999185698201       16012013800UNIBANCO S/A        1004201300000000003250000CC                                                                                                                                                                                                                                                                                                                                                                                                         000013
1038421020080COBR_CAUC_COR  JM IND E COM DE ARTEFATOS DE METAIS     006931598000119NOVA INJECAO LTDA - ME                  MARIA JOSE RODRIGUES,1365               C.LIMPO PAULIST                         13236000SP39957000070999186497601       16012013800UNIBANCO S/A        0704201300000000003606105CC                                                                                                                                                                                                                                                                                                                                                                                                         000014
1038421020080COBR_CAUC_COR  JM IND E COM DE ARTEFATOS DE METAIS     006931598000119NOVA INJECAO LTDA - ME                  MARIA JOSE RODRIGUES,1365               C.LIMPO PAULIST                         13236000SP39957000080999187296501       16012013800UNIBANCO S/A        0204201300000000004883840CC                                                                                                                                                                                                                                                                                                                                                                                                         000015
1038421020080COBR_CAUC_COR  JM IND E COM DE ARTEFATOS DE METAIS     006931598000119NOVA INJECAO LTDA - ME                  MARIA JOSE RODRIGUES,1365               C.LIMPO PAULIST                         13236000SP399570000909991881567101      16012013800UNIBANCO S/A        0904201300000000003950000CC                                                                                                                                                                                                                                                                                                                                                                                                         000016
1046421007255COBR_CAUC_COR  MAESTRO DO BRASIL IND METALUR LTDA      019166917000199EMBRASIL EMPRESA BRASILEIRA DISTRI      RODOVIA BR-040,  KM-517,S/N             RIBEIRAO DAS NE                         33823310MG39944000010175472026553-1/1   28012013800UNIBANCO S/A        0204201300000000012216364CC                                                                                                                                                                                                                                                                                                                                                                                                         000017
1007421063594COBR_CAUC_BIC  MELHORAMENTOS FLORESTAL LTDA            060856077000947PAPIRUS INDUSTRIA DE PAPEL S/A          VIA ANHANGUERA KM 130 SITIO DA BARRA    LIMEIRA                                 13480970SP399470000101696369000020821   22012013021CAMPINAS            0803201300000000040265624CC                                                                                                                                                                                                                                                                                                                                                                                                         000018
1007421063594COBR_CAUC_COR  MELHORAMENTOS FLORESTAL LTDA            080228885000543IBEMA COMPANHIA BRASILEIRA DE PAPE      LOC. FAXINAL DA BOA VISTA,  SN          TURVO                                   85150000PR399480000101696067000020779   21012013900BRADESCO S/A        0703201300000000014613450CC                                                                                                                                                                                                                                                                                                                                                                                                         000019
1006421012658COBR_CAUC_BIC  MERCURIUS ENGENHARIA S/A.               011647008000160NOVA EOLICA LAGOA SECA S/A              AV WASINGTON SOARES 55 SL 308           ACARAU                                  60811341CE399560000109352208480         25102012006BEZERRA             2703201300000000093964288CC                                                                                                                                                                                                                                                                                                                                                                                                         000020
1014421008439DIR_CREDIT     TV OMEGA LTDA                           030902803000100IGREJA INTERNACIONAL DA GRACA DE DEUS   ESR DOS BANDEIRANTES, 1000              TAQUARA                                 22710112RJ3995100001                                                                                                                                          011758188           280920090000010207            15022012051902CONTRATO DE CESSAO ONEROSA DE ESPAÇO TELEVISIVO E PRESTAÇÃO DE SERVIÇOS CONEXOS                                                                                                                                                                 002131538000322              000021
1014421008439DIR_CREDIT     TV OMEGA LTDA                           030902803000100IGREJA INTERNACIONAL DA GRACA DE DEUS   EST DOS BANDEIRANTES, 1000              TAQUARA                                 22710112RJ3995200001                                                                                                                                          011758188           010420100000012859            15022012051902Cessão onerosa de espaço televisivo,ref. programação a ser veiculada e exibida por todas as emissoras da rede tv!, de segunda a sexta-feira,c/duração de 3h e 30 min,c/início às 5h e término às 8h e 30min.                                    002131538000322              000022
9000012                                                                                                                                                                                                                                                                                                                                                                                                                                                                                                                                                                                                                                                                                                               000023
