0REMESSANOTIFICACAO ELETRONICA        99999999999999BICBANCO                                AV. PAULISTA                            1048      12.ANDAR  BELA VISTA                    SAO PAULO                     01310100SP1121739360CORTINHAL                               COORDENADOR                             02082012                                                                                                                                                                                                                                                                                                                                                                                      000001
1021420930887COBR_CAUC_COR  DEDINI S/A INDUSTRIAS DE BASE           048295562001450USINA ALTO ALEGRE S A - ACUCAR E A      RUA JOSE LEITE, 40 JD BONGIOVANI BR     PRESIDENTE PRUD                         19050910SP36950000010634901026150-2-2   31072012900BRADESCO S/A        1608201200000000018920200CC                                                                                                                                                                                                                                                                                                                                                                                                         000002
1007421031242COBR_CAUC_BIC  GP GUARDA PATRIMONIAL DE S.P. LTDA      001588770000836DIVEO DO BRASIL TELECOMUNICACOES        AVENIDA CECI  1850                      BARUERI                                 06460120SP36951000010005800882387       01082012007PAULISTA            0309201200000000013779344CC                                                                                                                                                                                                                                                                                                                                                                                                         000003
1015141021638COBR_CAUC_COR  SERRA MORENA CORRETORA LTDA             077118131000798COTRIGUACU COOPERATIVA CENTRAL          AV PRESIDENTE KENNEDY, 3500             OSASCO                                  85950000SP369520000100956151982         20062012900BRADESCO S/A        2008201200000000088998000TD                                                                                                                                                                                                                                                                                                                                                                                                         000004
1038421018922COBR_CAUC_COR  AMEPLAN ASSIST MEDICA PLANEJADA         011031202000117MOBIBRASIL TRANSPORTE URBANO LTDA       R. GENARO DE CARVALHO,145               SAO PAULO                               04377220SP36953000010982005944633       01082012900BRADESCO S/A        2508201200000000012905846CC                                                                                                                                                                                                                                                                                                                                                                                                         000005
1017421013146COBR_CAUC_BIC  USINA TAQUARA LTDA                      011699378000737COMPANHIA ALCOOLQUIMICA NACIONAL        ENGENHO CACHOEIRINHA                    VITORIA DE STO                          55600000PE36954000010257684912429/1     09062012017MACEIO              0510201200000000025000000CC                                                                                                                                                                                                                                                                                                                                                                                                         000006
1017421013146COBR_CAUC_BIC  USINA TAQUARA LTDA                      011699378000737COMPANHIA ALCOOLQUIMICA NACIONAL        ENGENHO CACHOEIRINHA                    VITORIA DE STO                          55600000PE36954000020257685712429/2     09062012017MACEIO              0511201200000000025000000CC                                                                                                                                                                                                                                                                                                                                                                                                         000007
1014421008439COBR_CAUC_BIC  TV OMEGA LTDA                           008455356000202Nutop Alimento Funcionais Ltda          RUA CLÉLIA - 10º ANDAR - CJ. 101 1251   SãoPaulo                                05042000SP36955000010453631500005001    01082012007PAULISTA            1509201200000000010120000CC                                                                                                                                                                                                                                                                                                                                                                                                         000008
1028421001518COBR_CAUC_COR  GAIA AGRIBUSINESS AGRICOLA LTDA         000037457080082SILVIO ARANTES DE OLIVEIRA              AV MINAS GERAIS,1380                    GOIATUBA                                75600000GO36956000010278403925246/1     31072012800UNIBANCO S/A        2401201300000000015782000CC                                                                                                                                                                                                                                                                                                                                                                                                         000009
1028421001518COBR_CAUC_COR  GAIA AGRIBUSINESS AGRICOLA LTDA         000037457080082SILVIO ARANTES DE OLIVEIRA              AV MINAS GERAIS,1380                    GOIATUBA                                75600000GO36956000020278404725246/2     31072012800UNIBANCO S/A        2701201300000000015565000CC                                                                                                                                                                                                                                                                                                                                                                                                         000010
1028421001518COBR_CAUC_COR  GAIA AGRIBUSINESS AGRICOLA LTDA         000048494836153JOSE ADONIZETE DA COSTA                 AV SANTA CATARINA ,180                  GOIATUBA                                75600000GO36957000010278401225249/2     31072012800UNIBANCO S/A        2101201300000000018866999CC                                                                                                                                                                                                                                                                                                                                                                                                         000011
1028421001518COBR_CAUC_COR  GAIA AGRIBUSINESS AGRICOLA LTDA         000048494836153JOSE ADONIZETE DA COSTA                 AV SANTA CATARINA ,180                  GOIATUBA                                75600000GO36957000020278402125249/1     31072012800UNIBANCO S/A        1801201300000000018594000CC                                                                                                                                                                                                                                                                                                                                                                                                         000012
1028421001518COBR_CAUC_COR  GAIA AGRIBUSINESS AGRICOLA LTDA         000064140130130VINICIUS VIEIRA LOPES                   RUA TAPAJOS ,712                        GOIATUBA                                75600000GO36958000010278399725248/1     31072012800UNIBANCO S/A        1001201300000000014846000CC                                                                                                                                                                                                                                                                                                                                                                                                         000013
1028421001518COBR_CAUC_COR  GAIA AGRIBUSINESS AGRICOLA LTDA         000064140130130VINICIUS VIEIRA LOPES                   RUA TAPAJOS ,712                        GOIATUBA                                75600000GO36958000020278400425248/2     31072012800UNIBANCO S/A        1501201300000000014763001CC                                                                                                                                                                                                                                                                                                                                                                                                         000014
1028421001518COBR_CAUC_COR  GAIA AGRIBUSINESS AGRICOLA LTDA         000087074516104ANA PAULA REZENDE VILARINHO PRUDEN      RUA RIO NEGRO,1397                      GOIATUBA                                75600000GO36959000010278397125242/1     31072012800UNIBANCO S/A        0301201300000000015128000CC                                                                                                                                                                                                                                                                                                                                                                                                         000015
1028421001518COBR_CAUC_COR  GAIA AGRIBUSINESS AGRICOLA LTDA         000087074516104ANA PAULA REZENDE VILARINHO PRUDEN      RUA RIO NEGRO,1397                      GOIATUBA                                75600000GO36959000020278398925242/2     31072012800UNIBANCO S/A        0701201300000000015060003CC                                                                                                                                                                                                                                                                                                                                                                                                         000016
1007421053076COBR_CAUC_BIC  WORLD TRACTOR COML IMP LTDA             033042730001348CIA SIDERURGICA NACIONAL                RUA ENG FRANCISCO PITTA BRITTO,138      SAO PAULO                               04753900SP3696000001013683112772        31072012007PAULISTA            1009201200000000032895878CC                                                                                                                                                                                                                                                                                                                                                                                                         000017
1038421020480COBR_CAUC_BIC  LIONFER INDUSTRIA METALURGICA LTDA      015209549000168C & F - CALDERARIA E MONT. INDUSTR      LRG. SETE DE SETEMBRO,52-CONJ. 901      SAO PAULO                               01501050SP36976000010977410314813/3     31072012007PAULISTA            2510201200000000000854877CC                                                                                                                                                                                                                                                                                                                                                                                                         000018
1038421020480COBR_CAUC_BIC  LIONFER INDUSTRIA METALURGICA LTDA      015209549000168C & F - CALDERARIA E MONT. INDUSTR      LRG. SETE DE SETEMBRO,52-CONJ. 901      SAO PAULO                               01501050SP36976000020977411114813/1     31072012007PAULISTA            0410201200000000000854500CC                                                                                                                                                                                                                                                                                                                                                                                                         000019
1038421020480COBR_CAUC_BIC  LIONFER INDUSTRIA METALURGICA LTDA      015209549000168C & F - CALDERARIA E MONT. INDUSTR      LRG. SETE DE SETEMBRO,52-CONJ. 901      SAO PAULO                               01501050SP36976000030977448114782/5     30072012007PAULISTA            2310201200000000001158000CC                                                                                                                                                                                                                                                                                                                                                                                                         000020
1038421020480COBR_CAUC_BIC  LIONFER INDUSTRIA METALURGICA LTDA      015209549000168C & F - CALDERARIA E MONT. INDUSTR      LRG. SETE DE SETEMBRO,52-CONJ. 901      SAO PAULO                               01501050SP36976000040977459614782/4     30072012007PAULISTA            0210201200000000001158000CC                                                                                                                                                                                                                                                                                                                                                                                                         000021
1038421020480COBR_CAUC_BIC  LIONFER INDUSTRIA METALURGICA LTDA      015209549000168C & F - CALDERARIA E MONT. INDUSTR      LRG. SETE DE SETEMBRO,52-CONJ. 901      SAO PAULO                               01501050SP36976000050977460014782/3     30072012007PAULISTA            1109201200000000001158000CC                                                                                                                                                                                                                                                                                                                                                                                                         000022
1038421020480COBR_CAUC_BIC  LIONFER INDUSTRIA METALURGICA LTDA      015209549000168C & F - CALDERARIA E MONT. INDUSTR      LRG. SETE DE SETEMBRO,52-CONJ. 901      SAO PAULO                               01501050SP36976000060977461814782/2     30072012007PAULISTA            2208201200000000001158000CC                                                                                                                                                                                                                                                                                                                                                                                                         000023
1038421020480COBR_CAUC_BIC  LIONFER INDUSTRIA METALURGICA LTDA      015209549000168C & F - CALDERARIA E MONT. INDUSTR      LRG. SETE DE SETEMBRO,52-CONJ. 901      SAO PAULO                               01501050SP36976000070977468514781/2     30072012007PAULISTA            2308201200000000001214800CC                                                                                                                                                                                                                                                                                                                                                                                                         000024
1038421020480COBR_CAUC_BIC  LIONFER INDUSTRIA METALURGICA LTDA      015209549000168C & F - CALDERARIA E MONT. INDUSTR      LRG. SETE DE SETEMBRO,52-CONJ. 901      SAO PAULO                               01501050SP36976000080977469314781/3     30072012007PAULISTA            1209201200000000001214800CC                                                                                                                                                                                                                                                                                                                                                                                                         000025
1038421020480COBR_CAUC_BIC  LIONFER INDUSTRIA METALURGICA LTDA      015209549000168C & F - CALDERARIA E MONT. INDUSTR      LRG. SETE DE SETEMBRO,52-CONJ. 901      SAO PAULO                               01501050SP36976000090977470714781/4     30072012007PAULISTA            0410201200000000001214800CC                                                                                                                                                                                                                                                                                                                                                                                                         000026
1038421020480COBR_CAUC_BIC  LIONFER INDUSTRIA METALURGICA LTDA      015209549000168C & F - CALDERARIA E MONT. INDUSTR      LRG. SETE DE SETEMBRO,52-CONJ. 901      SAO PAULO                               01501050SP36976000100977471514781/5     30072012007PAULISTA            2410201200000000001214800CC                                                                                                                                                                                                                                                                                                                                                                                                         000027
1038421020480COBR_CAUC_BIC  LIONFER INDUSTRIA METALURGICA LTDA      015209549000168C & F - CALDERARIA E MONT. INDUSTR      LRG. SETE DE SETEMBRO,52-CONJ. 901      SAO PAULO                               01501050SP36976000110977472314781/6     30072012007PAULISTA            1311201200000000001217956CC                                                                                                                                                                                                                                                                                                                                                                                                         000028
1038421020480COBR_CAUC_BIC  LIONFER INDUSTRIA METALURGICA LTDA      015209549000168C & F - CALDERARIA E MONT. INDUSTR      LRG. SETE DE SETEMBRO,52-CONJ. 901      SAO PAULO                               01501050SP36976000120977473114782/1     30072012007PAULISTA            1508201200000000001158000CC                                                                                                                                                                                                                                                                                                                                                                                                         000029
1038421020480COBR_CAUC_BIC  LIONFER INDUSTRIA METALURGICA LTDA      015209549000168C & F - CALDERARIA E MONT. INDUSTR      LRG. SETE DE SETEMBRO,52-CONJ. 901      SAO PAULO                               01501050SP36976000130977525814781/1     30072012007PAULISTA            1608201200000000001214800CC                                                                                                                                                                                                                                                                                                                                                                                                         000030
1038421020480COBR_CAUC_BIC  LIONFER INDUSTRIA METALURGICA LTDA      014820717000194FACE - IMPLEMENTOS RODOVIARIOS LTD      RUA AFONSO LEGAZ GARCIA,188             SUMARE                                  13180580SP36977000010977415414772/3     30072012021CAMPINAS            2809201200000000001322800CC                                                                                                                                                                                                                                                                                                                                                                                                         000031
1038421020480COBR_CAUC_BIC  LIONFER INDUSTRIA METALURGICA LTDA      014820717000194FACE - IMPLEMENTOS RODOVIARIOS LTD      RUA AFONSO LEGAZ GARCIA,188             SUMARE                                  13180580SP36977000020977474014772/4     30072012021CAMPINAS            1810201200000000001322800CC                                                                                                                                                                                                                                                                                                                                                                                                         000032
1038421020480COBR_CAUC_BIC  LIONFER INDUSTRIA METALURGICA LTDA      014820717000194FACE - IMPLEMENTOS RODOVIARIOS LTD      RUA AFONSO LEGAZ GARCIA,188             SUMARE                                  13180580SP36977000030977492814722/1     30072012021CAMPINAS            2908201200000000001322800CC                                                                                                                                                                                                                                                                                                                                                                                                         000033
1038421020480COBR_CAUC_BIC  LIONFER INDUSTRIA METALURGICA LTDA      014820717000194FACE - IMPLEMENTOS RODOVIARIOS LTD      RUA AFONSO LEGAZ GARCIA,188             SUMARE                                  13180580SP36977000040977493614772/2     30072012021CAMPINAS            0709201200000000001322800CC                                                                                                                                                                                                                                                                                                                                                                                                         000034
1038421020480COBR_CAUC_BIC  LIONFER INDUSTRIA METALURGICA LTDA      014820717000194FACE - IMPLEMENTOS RODOVIARIOS LTD      RUA AFONSO LEGAZ GARCIA,188             SUMARE                                  13180580SP36977000050977494414772/5     30072012021CAMPINAS            0811201200000000001322800CC                                                                                                                                                                                                                                                                                                                                                                                                         000035
1038421020480COBR_CAUC_BIC  LIONFER INDUSTRIA METALURGICA LTDA      014820717000194FACE - IMPLEMENTOS RODOVIARIOS LTD      RUA AFONSO LEGAZ GARCIA,188             SUMARE                                  13180580SP36977000060977495214722/6     30072012021CAMPINAS            2711201200000000001326326CC                                                                                                                                                                                                                                                                                                                                                                                                         000036
1038421020480COBR_CAUC_BIC  LIONFER INDUSTRIA METALURGICA LTDA      014820717000194FACE - IMPLEMENTOS RODOVIARIOS LTD      RUA AFONSO LEGAZ GARCIA,188             SUMARE                                  13180580SP36977000070977496114783/1     30072012021CAMPINAS            2808201200000000001296400CC                                                                                                                                                                                                                                                                                                                                                                                                         000037
1038421020480COBR_CAUC_BIC  LIONFER INDUSTRIA METALURGICA LTDA      014820717000194FACE - IMPLEMENTOS RODOVIARIOS LTD      RUA AFONSO LEGAZ GARCIA,188             SUMARE                                  13180580SP36977000080977497914783/2     30072012021CAMPINAS            0609201200000000001296400CC                                                                                                                                                                                                                                                                                                                                                                                                         000038
1038421020480COBR_CAUC_BIC  LIONFER INDUSTRIA METALURGICA LTDA      014820717000194FACE - IMPLEMENTOS RODOVIARIOS LTD      RUA AFONSO LEGAZ GARCIA,188             SUMARE                                  13180580SP36977000090977498714783/3     30072012021CAMPINAS            2709201200000000001296400CC                                                                                                                                                                                                                                                                                                                                                                                                         000039
1038421020480COBR_CAUC_BIC  LIONFER INDUSTRIA METALURGICA LTDA      014820717000194FACE - IMPLEMENTOS RODOVIARIOS LTD      RUA AFONSO LEGAZ GARCIA,188             SUMARE                                  13180580SP36977000100977499514783/4     30072012021CAMPINAS            1710201200000000001296400CC                                                                                                                                                                                                                                                                                                                                                                                                         000040
1038421020480COBR_CAUC_BIC  LIONFER INDUSTRIA METALURGICA LTDA      014820717000194FACE - IMPLEMENTOS RODOVIARIOS LTD      RUA AFONSO LEGAZ GARCIA,188             SUMARE                                  13180580SP36977000110977500214783/5     30072012021CAMPINAS            0611201200000000001296400CC                                                                                                                                                                                                                                                                                                                                                                                                         000041
1038421020480COBR_CAUC_BIC  LIONFER INDUSTRIA METALURGICA LTDA      014820717000194FACE - IMPLEMENTOS RODOVIARIOS LTD      RUA AFONSO LEGAZ GARCIA,188             SUMARE                                  13180580SP36977000120977501114783/6     30072012021CAMPINAS            2611201200000000001299991CC                                                                                                                                                                                                                                                                                                                                                                                                         000042
1038421020480COBR_CAUC_BIC  LIONFER INDUSTRIA METALURGICA LTDA      014695926000153FABRICIO DA CONCEICAO LIMA              RUA PAULA BUENO,190                     CAMPINAS                                13076061SP36979000010977412014812/3     31072012021CAMPINAS            2910201200000000000663811CC                                                                                                                                                                                                                                                                                                                                                                                                         000043
1038421020480COBR_CAUC_BIC  LIONFER INDUSTRIA METALURGICA LTDA      014695926000153FABRICIO DA CONCEICAO LIMA              RUA PAULA BUENO,190                     CAMPINAS                                13076061SP36979000020977413814812/2     31072012021CAMPINAS            1810201200000000000663400CC                                                                                                                                                                                                                                                                                                                                                                                                         000044
1038421020480COBR_CAUC_BIC  LIONFER INDUSTRIA METALURGICA LTDA      014695926000153FABRICIO DA CONCEICAO LIMA              RUA PAULA BUENO,190                     CAMPINAS                                13076061SP36979000030977414614812/1     31072012021CAMPINAS            0510201200000000000663400CC                                                                                                                                                                                                                                                                                                                                                                                                         000045
1038421020480COBR_CAUC_BIC  LIONFER INDUSTRIA METALURGICA LTDA      014695926000153FABRICIO DA CONCEICAO LIMA              RUA PAULA BUENO,190                     CAMPINAS                                13076061SP36979000040977485514774/1     30072012021CAMPINAS            2408201200000000001321100CC                                                                                                                                                                                                                                                                                                                                                                                                         000046
1038421020480COBR_CAUC_BIC  LIONFER INDUSTRIA METALURGICA LTDA      014695926000153FABRICIO DA CONCEICAO LIMA              RUA PAULA BUENO,190                     CAMPINAS                                13076061SP36979000050977486314774/2     30072012021CAMPINAS            3108201200000000001321100CC                                                                                                                                                                                                                                                                                                                                                                                                         000047
1038421020480COBR_CAUC_BIC  LIONFER INDUSTRIA METALURGICA LTDA      014695926000153FABRICIO DA CONCEICAO LIMA              RUA PAULA BUENO,190                     CAMPINAS                                13076061SP36979000060977487114774/3     30072012021CAMPINAS            2509201200000000001321100CC                                                                                                                                                                                                                                                                                                                                                                                                         000048
1038421020480COBR_CAUC_BIC  LIONFER INDUSTRIA METALURGICA LTDA      014695926000153FABRICIO DA CONCEICAO LIMA              RUA PAULA BUENO,190                     CAMPINAS                                13076061SP36979000070977502914774/4     30072012021CAMPINAS            1610201200000000001321100CC                                                                                                                                                                                                                                                                                                                                                                                                         000049
1038421020480COBR_CAUC_BIC  LIONFER INDUSTRIA METALURGICA LTDA      014695926000153FABRICIO DA CONCEICAO LIMA              RUA PAULA BUENO,190                     CAMPINAS                                13076061SP36979000080977503714774/5     30072012021CAMPINAS            0511201200000000001321100CC                                                                                                                                                                                                                                                                                                                                                                                                         000050
1038421020480COBR_CAUC_BIC  LIONFER INDUSTRIA METALURGICA LTDA      014695926000153FABRICIO DA CONCEICAO LIMA              RUA PAULA BUENO,190                     CAMPINAS                                13076061SP36979000090977504514774/6     30072012021CAMPINAS            2311201200000000001324844CC                                                                                                                                                                                                                                                                                                                                                                                                         000051
1038421020480COBR_CAUC_BIC  LIONFER INDUSTRIA METALURGICA LTDA      014695926000153FABRICIO DA CONCEICAO LIMA              RUA PAULA BUENO,190                     CAMPINAS                                13076061SP36979000100977520714785/1     30072012021CAMPINAS            2308201200000000001170200CC                                                                                                                                                                                                                                                                                                                                                                                                         000052
1038421020480COBR_CAUC_BIC  LIONFER INDUSTRIA METALURGICA LTDA      014695926000153FABRICIO DA CONCEICAO LIMA              RUA PAULA BUENO,190                     CAMPINAS                                13076061SP36979000110977521514785/2     30072012021CAMPINAS            3008201200000000001170200CC                                                                                                                                                                                                                                                                                                                                                                                                         000053
1038421020480COBR_CAUC_BIC  LIONFER INDUSTRIA METALURGICA LTDA      014695926000153FABRICIO DA CONCEICAO LIMA              RUA PAULA BUENO,190                     CAMPINAS                                13076061SP36979000120977522314785/3     30072012021CAMPINAS            2409201200000000001170200CC                                                                                                                                                                                                                                                                                                                                                                                                         000054
1038421020480COBR_CAUC_BIC  LIONFER INDUSTRIA METALURGICA LTDA      014695926000153FABRICIO DA CONCEICAO LIMA              RUA PAULA BUENO,190                     CAMPINAS                                13076061SP36979000130977523114785/4     30072012021CAMPINAS            1510201200000000001170200CC                                                                                                                                                                                                                                                                                                                                                                                                         000055
1038421020480COBR_CAUC_BIC  LIONFER INDUSTRIA METALURGICA LTDA      014695926000153FABRICIO DA CONCEICAO LIMA              RUA PAULA BUENO,190                     CAMPINAS                                13076061SP36979000140977524014785/5     30072012021CAMPINAS            0211201200000000001170200CC                                                                                                                                                                                                                                                                                                                                                                                                         000056
1038421020480COBR_CAUC_BIC  LIONFER INDUSTRIA METALURGICA LTDA      014927723000145FELIPE CORTEZ DE ALMEIDA                RUA IBITIRAMA,1310-CONJ. 1              SAO PAULO                               03134001SP36980000010977418914778/1     30072012007PAULISTA            1708201200000000001374000CC                                                                                                                                                                                                                                                                                                                                                                                                         000057
1038421020480COBR_CAUC_BIC  LIONFER INDUSTRIA METALURGICA LTDA      014927723000145FELIPE CORTEZ DE ALMEIDA                RUA IBITIRAMA,1310-CONJ. 1              SAO PAULO                               03134001SP36980000020977419714778/2     30072012007PAULISTA            2408201200000000001374000CC                                                                                                                                                                                                                                                                                                                                                                                                         000058
1038421020480COBR_CAUC_BIC  LIONFER INDUSTRIA METALURGICA LTDA      014927723000145FELIPE CORTEZ DE ALMEIDA                RUA IBITIRAMA,1310-CONJ. 1              SAO PAULO                               03134001SP36980000030977420114778/3     30072012007PAULISTA            1409201200000000001374000CC                                                                                                                                                                                                                                                                                                                                                                                                         000059
1038421020480COBR_CAUC_BIC  LIONFER INDUSTRIA METALURGICA LTDA      014927723000145FELIPE CORTEZ DE ALMEIDA                RUA IBITIRAMA,1310-CONJ. 1              SAO PAULO                               03134001SP36980000040977421914778/4     30072012007PAULISTA            1010201200000000001374000CC                                                                                                                                                                                                                                                                                                                                                                                                         000060
1038421020480COBR_CAUC_BIC  LIONFER INDUSTRIA METALURGICA LTDA      014927723000145FELIPE CORTEZ DE ALMEIDA                RUA IBITIRAMA,1310-CONJ. 1              SAO PAULO                               03134001SP36980000050977422714778/5     30072012007PAULISTA            3010201200000000001374000CC                                                                                                                                                                                                                                                                                                                                                                                                         000061
1038421020480COBR_CAUC_BIC  LIONFER INDUSTRIA METALURGICA LTDA      014927723000145FELIPE CORTEZ DE ALMEIDA                RUA IBITIRAMA,1310-CONJ. 1              SAO PAULO                               03134001SP36980000060977423514778/6     30072012007PAULISTA            1511201200000000001377829CC                                                                                                                                                                                                                                                                                                                                                                                                         000062
1038421020480COBR_CAUC_BIC  LIONFER INDUSTRIA METALURGICA LTDA      014927723000145FELIPE CORTEZ DE ALMEIDA                RUA IBITIRAMA,1310-CONJ. 1              SAO PAULO                               03134001SP36980000070977424314789/1     30072012007PAULISTA            1608201200000000001255200CC                                                                                                                                                                                                                                                                                                                                                                                                         000063
1038421020480COBR_CAUC_BIC  LIONFER INDUSTRIA METALURGICA LTDA      014927723000145FELIPE CORTEZ DE ALMEIDA                RUA IBITIRAMA,1310-CONJ. 1              SAO PAULO                               03134001SP36980000080977425114789/2     30072012007PAULISTA            2308201200000000001255200CC                                                                                                                                                                                                                                                                                                                                                                                                         000064
1038421020480COBR_CAUC_BIC  LIONFER INDUSTRIA METALURGICA LTDA      014927723000145FELIPE CORTEZ DE ALMEIDA                RUA IBITIRAMA,1310-CONJ. 1              SAO PAULO                               03134001SP36980000090977426014789/3     30072012007PAULISTA            1309201200000000001255200CC                                                                                                                                                                                                                                                                                                                                                                                                         000065
1038421020480COBR_CAUC_BIC  LIONFER INDUSTRIA METALURGICA LTDA      014927723000145FELIPE CORTEZ DE ALMEIDA                RUA IBITIRAMA,1310-CONJ. 1              SAO PAULO                               03134001SP36980000100977427814789/4     30072012007PAULISTA            0910201200000000001255200CC                                                                                                                                                                                                                                                                                                                                                                                                         000066
1038421020480COBR_CAUC_BIC  LIONFER INDUSTRIA METALURGICA LTDA      014927723000145FELIPE CORTEZ DE ALMEIDA                RUA IBITIRAMA,1310-CONJ. 1              SAO PAULO                               03134001SP36980000110977428614789/5     30072012007PAULISTA            2610201200000000001255200CC                                                                                                                                                                                                                                                                                                                                                                                                         000067
1038421020480COBR_CAUC_BIC  LIONFER INDUSTRIA METALURGICA LTDA      014927723000145FELIPE CORTEZ DE ALMEIDA                RUA IBITIRAMA,1310-CONJ. 1              SAO PAULO                               03134001SP36980000120977429414789/6     30072012007PAULISTA            1411201200000000001258800CC                                                                                                                                                                                                                                                                                                                                                                                                         000068
1038421020480COBR_CAUC_BIC  LIONFER INDUSTRIA METALURGICA LTDA      014967724000113OL - INDUSTRIA METALURGICA              RUA JOAO CARLOS AMARAL,226              CAMPINAS                                13068617SP36981000010977417114787/3     30072012021CAMPINAS            1709201200000000001236100CC                                                                                                                                                                                                                                                                                                                                                                                                         000069
1038421020480COBR_CAUC_BIC  LIONFER INDUSTRIA METALURGICA LTDA      014967724000113OL - INDUSTRIA METALURGICA              RUA JOAO CARLOS AMARAL,226              CAMPINAS                                13068617SP36981000020977433214787/4     30072012021CAMPINAS            1310201200000000001236100CC                                                                                                                                                                                                                                                                                                                                                                                                         000070
1038421020480COBR_CAUC_BIC  LIONFER INDUSTRIA METALURGICA LTDA      014967724000113OL - INDUSTRIA METALURGICA              RUA JOAO CARLOS AMARAL,226              CAMPINAS                                13068617SP36981000030977434114787/5     30072012021CAMPINAS            3110201200000000001236100CC                                                                                                                                                                                                                                                                                                                                                                                                         000071
1038421020480COBR_CAUC_BIC  LIONFER INDUSTRIA METALURGICA LTDA      014967724000113OL - INDUSTRIA METALURGICA              RUA JOAO CARLOS AMARAL,226              CAMPINAS                                13068617SP36981000040977435914787/6     30072012021CAMPINAS            1611201200000000001239159CC                                                                                                                                                                                                                                                                                                                                                                                                         000072
1038421020480COBR_CAUC_BIC  LIONFER INDUSTRIA METALURGICA LTDA      014967724000113OL - INDUSTRIA METALURGICA              RUA JOAO CARLOS AMARAL,226              CAMPINAS                                13068617SP36981000050977475814787/2     30072012021CAMPINAS            2808201200000000001236100CC                                                                                                                                                                                                                                                                                                                                                                                                         000073
1038421020480COBR_CAUC_BIC  LIONFER INDUSTRIA METALURGICA LTDA      014967724000113OL - INDUSTRIA METALURGICA              RUA JOAO CARLOS AMARAL,226              CAMPINAS                                13068617SP36981000060977511814776/1     30072012021CAMPINAS            2408201200000000001401400CC                                                                                                                                                                                                                                                                                                                                                                                                         000074
1038421020480COBR_CAUC_BIC  LIONFER INDUSTRIA METALURGICA LTDA      014967724000113OL - INDUSTRIA METALURGICA              RUA JOAO CARLOS AMARAL,226              CAMPINAS                                13068617SP36981000070977512614776/2     30072012021CAMPINAS            2908201200000000001401400CC                                                                                                                                                                                                                                                                                                                                                                                                         000075
1038421020480COBR_CAUC_BIC  LIONFER INDUSTRIA METALURGICA LTDA      014967724000113OL - INDUSTRIA METALURGICA              RUA JOAO CARLOS AMARAL,226              CAMPINAS                                13068617SP36981000080977513414776/3     30072012021CAMPINAS            1809201200000000001401400CC                                                                                                                                                                                                                                                                                                                                                                                                         000076
1038421020480COBR_CAUC_BIC  LIONFER INDUSTRIA METALURGICA LTDA      014967724000113OL - INDUSTRIA METALURGICA              RUA JOAO CARLOS AMARAL,226              CAMPINAS                                13068617SP36981000090977514214776/4     30072012021CAMPINAS            1410201200000000001401400CC                                                                                                                                                                                                                                                                                                                                                                                                         000077
1038421020480COBR_CAUC_BIC  LIONFER INDUSTRIA METALURGICA LTDA      014967724000113OL - INDUSTRIA METALURGICA              RUA JOAO CARLOS AMARAL,226              CAMPINAS                                13068617SP36981000100977515114776/5     30072012021CAMPINAS            0111201200000000001401400CC                                                                                                                                                                                                                                                                                                                                                                                                         000078
1038421020480COBR_CAUC_BIC  LIONFER INDUSTRIA METALURGICA LTDA      014967724000113OL - INDUSTRIA METALURGICA              RUA JOAO CARLOS AMARAL,226              CAMPINAS                                13068617SP36981000110977516914776/6     30072012021CAMPINAS            2111201200000000001405054CC                                                                                                                                                                                                                                                                                                                                                                                                         000079
1038421020480COBR_CAUC_BIC  LIONFER INDUSTRIA METALURGICA LTDA      014967724000113OL - INDUSTRIA METALURGICA              RUA JOAO CARLOS AMARAL,226              CAMPINAS                                13068617SP36981000120977532114787/1     30072012021CAMPINAS            2308201200000000001236100CC                                                                                                                                                                                                                                                                                                                                                                                                         000080
1038421020480COBR_CAUC_BIC  LIONFER INDUSTRIA METALURGICA LTDA      014927705000163CARLOS EDUARDO RAMIRO FERRAGENS         RUA GENERAL BAGNUOLO,523                SAO PAULO                               03152130SP36982000010977445614779/1     30072012007PAULISTA            1608201200000000001347400CC                                                                                                                                                                                                                                                                                                                                                                                                         000081
1038421020480COBR_CAUC_BIC  LIONFER INDUSTRIA METALURGICA LTDA      014927705000163CARLOS EDUARDO RAMIRO FERRAGENS         RUA GENERAL BAGNUOLO,523                SAO PAULO                               03152130SP36982000020977446414779/2     30072012007PAULISTA            2408201200000000001347400CC                                                                                                                                                                                                                                                                                                                                                                                                         000082
1038421020480COBR_CAUC_BIC  LIONFER INDUSTRIA METALURGICA LTDA      014927705000163CARLOS EDUARDO RAMIRO FERRAGENS         RUA GENERAL BAGNUOLO,523                SAO PAULO                               03152130SP36982000030977447214779/3     30072012007PAULISTA            1209201200000000001347400CC                                                                                                                                                                                                                                                                                                                                                                                                         000083
1038421020480COBR_CAUC_BIC  LIONFER INDUSTRIA METALURGICA LTDA      014927705000163CARLOS EDUARDO RAMIRO FERRAGENS         RUA GENERAL BAGNUOLO,523                SAO PAULO                               03152130SP36982000040977462614779/4     30072012007PAULISTA            0510201200000000001347400CC                                                                                                                                                                                                                                                                                                                                                                                                         000084
1038421020480COBR_CAUC_BIC  LIONFER INDUSTRIA METALURGICA LTDA      014927705000163CARLOS EDUARDO RAMIRO FERRAGENS         RUA GENERAL BAGNUOLO,523                SAO PAULO                               03152130SP36982000050977463414779/5     30072012007PAULISTA            3010201200000000001347400CC                                                                                                                                                                                                                                                                                                                                                                                                         000085
1038421020480COBR_CAUC_BIC  LIONFER INDUSTRIA METALURGICA LTDA      014927705000163CARLOS EDUARDO RAMIRO FERRAGENS         RUA GENERAL BAGNUOLO,523                SAO PAULO                               03152130SP36982000060977464214779/6     30072012007PAULISTA            1511201200000000001350692CC                                                                                                                                                                                                                                                                                                                                                                                                         000086
1038421020480COBR_CAUC_BIC  LIONFER INDUSTRIA METALURGICA LTDA      014927705000163CARLOS EDUARDO RAMIRO FERRAGENS         RUA GENERAL BAGNUOLO,523                SAO PAULO                               03152130SP36982000070977465114790/1     30072012007PAULISTA            1708201200000000001318000CC                                                                                                                                                                                                                                                                                                                                                                                                         000087
1038421020480COBR_CAUC_BIC  LIONFER INDUSTRIA METALURGICA LTDA      014927705000163CARLOS EDUARDO RAMIRO FERRAGENS         RUA GENERAL BAGNUOLO,523                SAO PAULO                               03152130SP36982000080977466914790/2     30072012007PAULISTA            2308201200000000001318000CC                                                                                                                                                                                                                                                                                                                                                                                                         000088
1038421020480COBR_CAUC_BIC  LIONFER INDUSTRIA METALURGICA LTDA      014927705000163CARLOS EDUARDO RAMIRO FERRAGENS         RUA GENERAL BAGNUOLO,523                SAO PAULO                               03152130SP36982000090977467714790/3     30072012007PAULISTA            1109201200000000001318000CC                                                                                                                                                                                                                                                                                                                                                                                                         000089
1038421020480COBR_CAUC_BIC  LIONFER INDUSTRIA METALURGICA LTDA      014927705000163CARLOS EDUARDO RAMIRO FERRAGENS         RUA GENERAL BAGNUOLO,523                SAO PAULO                               03152130SP36982000100977526614790/6     30072012007PAULISTA            1411201200000000001321540CC                                                                                                                                                                                                                                                                                                                                                                                                         000090
1038421020480COBR_CAUC_BIC  LIONFER INDUSTRIA METALURGICA LTDA      014927705000163CARLOS EDUARDO RAMIRO FERRAGENS         RUA GENERAL BAGNUOLO,523                SAO PAULO                               03152130SP36982000110977527414790/5     30072012007PAULISTA            2510201200000000001318000CC                                                                                                                                                                                                                                                                                                                                                                                                         000091
1038421020480COBR_CAUC_BIC  LIONFER INDUSTRIA METALURGICA LTDA      014927705000163CARLOS EDUARDO RAMIRO FERRAGENS         RUA GENERAL BAGNUOLO,523                SAO PAULO                               03152130SP36982000120977529114790/4     30072012007PAULISTA            0410201200000000001318000CC                                                                                                                                                                                                                                                                                                                                                                                                         000092
1038421020480COBR_CAUC_BIC  LIONFER INDUSTRIA METALURGICA LTDA      014911186000145CAPITAL BRASIL - INVEST. E PART. L      RUA DOS BANDEIRANTES,154-SALA 72        CAMPINAS                                13024010SP36983000010977405714815/2     31072012021CAMPINAS            1010201200000000000504000CC                                                                                                                                                                                                                                                                                                                                                                                                         000093
1038421020480COBR_CAUC_BIC  LIONFER INDUSTRIA METALURGICA LTDA      014911186000145CAPITAL BRASIL - INVEST. E PART. L      RUA DOS BANDEIRANTES,154-SALA 72        CAMPINAS                                13024010SP36983000020977406514815/1     31072012021CAMPINAS            0110201200000000000504000CC                                                                                                                                                                                                                                                                                                                                                                                                         000094
1038421020480COBR_CAUC_BIC  LIONFER INDUSTRIA METALURGICA LTDA      014911186000145CAPITAL BRASIL - INVEST. E PART. L      RUA DOS BANDEIRANTES,154-SALA 72        CAMPINAS                                13024010SP36983000030977416214815/3     31072012021CAMPINAS            2310201200000000000504210CC                                                                                                                                                                                                                                                                                                                                                                                                         000095
1038421020480COBR_CAUC_BIC  LIONFER INDUSTRIA METALURGICA LTDA      014911186000145CAPITAL BRASIL - INVEST. E PART. L      RUA DOS BANDEIRANTES,154-SALA 72        CAMPINAS                                13024010SP36983000040977505314786/1     30072012021CAMPINAS            2108201200000000001224500CC                                                                                                                                                                                                                                                                                                                                                                                                         000096
1038421020480COBR_CAUC_BIC  LIONFER INDUSTRIA METALURGICA LTDA      014911186000145CAPITAL BRASIL - INVEST. E PART. L      RUA DOS BANDEIRANTES,154-SALA 72        CAMPINAS                                13024010SP36983000050977506114786/2     30072012021CAMPINAS            2908201200000000001224500CC                                                                                                                                                                                                                                                                                                                                                                                                         000097
1038421020480COBR_CAUC_BIC  LIONFER INDUSTRIA METALURGICA LTDA      014911186000145CAPITAL BRASIL - INVEST. E PART. L      RUA DOS BANDEIRANTES,154-SALA 72        CAMPINAS                                13024010SP36983000060977507014786/3     30072012021CAMPINAS            1909201200000000001224500CC                                                                                                                                                                                                                                                                                                                                                                                                         000098
1038421020480COBR_CAUC_BIC  LIONFER INDUSTRIA METALURGICA LTDA      014911186000145CAPITAL BRASIL - INVEST. E PART. L      RUA DOS BANDEIRANTES,154-SALA 72        CAMPINAS                                13024010SP36983000070977508814786/4     30072012021CAMPINAS            1510201200000000001224500CC                                                                                                                                                                                                                                                                                                                                                                                                         000099
1038421020480COBR_CAUC_BIC  LIONFER INDUSTRIA METALURGICA LTDA      014911186000145CAPITAL BRASIL - INVEST. E PART. L      RUA DOS BANDEIRANTES,154-SALA 72        CAMPINAS                                13024010SP36983000080977509614786/5     30072012021CAMPINAS            0211201200000000001224500CC                                                                                                                                                                                                                                                                                                                                                                                                         000100
1038421020480COBR_CAUC_BIC  LIONFER INDUSTRIA METALURGICA LTDA      014911186000145CAPITAL BRASIL - INVEST. E PART. L      RUA DOS BANDEIRANTES,154-SALA 72        CAMPINAS                                13024010SP36983000090977510014786/6     30072012021CAMPINAS            2211201200000000001227500CC                                                                                                                                                                                                                                                                                                                                                                                                         000101
1038421020480COBR_CAUC_BIC  LIONFER INDUSTRIA METALURGICA LTDA      014911186000145CAPITAL BRASIL - INVEST. E PART. L      RUA DOS BANDEIRANTES,154-SALA 72        CAMPINAS                                13024010SP36983000100977517714775/6     30072012021CAMPINAS            2311201200000000001366837CC                                                                                                                                                                                                                                                                                                                                                                                                         000102
1038421020480COBR_CAUC_BIC  LIONFER INDUSTRIA METALURGICA LTDA      014911186000145CAPITAL BRASIL - INVEST. E PART. L      RUA DOS BANDEIRANTES,154-SALA 72        CAMPINAS                                13024010SP36983000110977518514775/5     30072012021CAMPINAS            0511201200000000001363400CC                                                                                                                                                                                                                                                                                                                                                                                                         000103
1038421020480COBR_CAUC_BIC  LIONFER INDUSTRIA METALURGICA LTDA      014911186000145CAPITAL BRASIL - INVEST. E PART. L      RUA DOS BANDEIRANTES,154-SALA 72        CAMPINAS                                13024010SP36983000120977519314775/4     30072012021CAMPINAS            1610201200000000001363400CC                                                                                                                                                                                                                                                                                                                                                                                                         000104
1038421020480COBR_CAUC_BIC  LIONFER INDUSTRIA METALURGICA LTDA      014911186000145CAPITAL BRASIL - INVEST. E PART. L      RUA DOS BANDEIRANTES,154-SALA 72        CAMPINAS                                13024010SP36983000130977528214775/1     30072012021CAMPINAS            2208201200000000001363400CC                                                                                                                                                                                                                                                                                                                                                                                                         000105
1038421020480COBR_CAUC_BIC  LIONFER INDUSTRIA METALURGICA LTDA      014911186000145CAPITAL BRASIL - INVEST. E PART. L      RUA DOS BANDEIRANTES,154-SALA 72        CAMPINAS                                13024010SP36983000140977530414775/2     30072012021CAMPINAS            3008201200000000001363400CC                                                                                                                                                                                                                                                                                                                                                                                                         000106
1038421020480COBR_CAUC_BIC  LIONFER INDUSTRIA METALURGICA LTDA      014911186000145CAPITAL BRASIL - INVEST. E PART. L      RUA DOS BANDEIRANTES,154-SALA 72        CAMPINAS                                13024010SP36983000150977531214775/3     30072012021CAMPINAS            2109201200000000001363400CC                                                                                                                                                                                                                                                                                                                                                                                                         000107
1038421020480COBR_CAUC_BIC  LIONFER INDUSTRIA METALURGICA LTDA      015071317000196LIM - TECN. DE CORTES, SOLD. USIN.      EST. MUNICIPAL,0-B                      SUMARE                                  13173250SP36984000010977407314814/3     31072012021CAMPINAS            2410201200000000000661700CC                                                                                                                                                                                                                                                                                                                                                                                                         000108
1038421020480COBR_CAUC_BIC  LIONFER INDUSTRIA METALURGICA LTDA      015071317000196LIM - TECN. DE CORTES, SOLD. USIN.      EST. MUNICIPAL,0-B                      SUMARE                                  13173250SP36984000020977408114814/2     31072012021CAMPINAS            1210201200000000000661500CC                                                                                                                                                                                                                                                                                                                                                                                                         000109
1038421020480COBR_CAUC_BIC  LIONFER INDUSTRIA METALURGICA LTDA      015071317000196LIM - TECN. DE CORTES, SOLD. USIN.      EST. MUNICIPAL,0-B                      SUMARE                                  13173250SP36984000030977409014814/1     31072012021CAMPINAS            0310201200000000000661500CC                                                                                                                                                                                                                                                                                                                                                                                                         000110
1038421020480COBR_CAUC_BIC  LIONFER INDUSTRIA METALURGICA LTDA      015071317000196LIM - TECN. DE CORTES, SOLD. USIN.      EST. MUNICIPAL,0-B                      SUMARE                                  13173250SP36984000040977430814788/6     30072012021CAMPINAS            1611201200000000001248526CC                                                                                                                                                                                                                                                                                                                                                                                                         000111
1038421020480COBR_CAUC_BIC  LIONFER INDUSTRIA METALURGICA LTDA      015071317000196LIM - TECN. DE CORTES, SOLD. USIN.      EST. MUNICIPAL,0-B                      SUMARE                                  13173250SP36984000050977431614788/5     30072012021CAMPINAS            3110201200000000001245500CC                                                                                                                                                                                                                                                                                                                                                                                                         000112
1038421020480COBR_CAUC_BIC  LIONFER INDUSTRIA METALURGICA LTDA      015071317000196LIM - TECN. DE CORTES, SOLD. USIN.      EST. MUNICIPAL,0-B                      SUMARE                                  13173250SP36984000060977432414788/4     30072012021CAMPINAS            1110201200000000001245500CC                                                                                                                                                                                                                                                                                                                                                                                                         000113
1038421020480COBR_CAUC_BIC  LIONFER INDUSTRIA METALURGICA LTDA      015071317000196LIM - TECN. DE CORTES, SOLD. USIN.      EST. MUNICIPAL,0-B                      SUMARE                                  13173250SP36984000070977436714777/1     30072012021CAMPINAS            2008201200000000001313500CC                                                                                                                                                                                                                                                                                                                                                                                                         000114
1038421020480COBR_CAUC_BIC  LIONFER INDUSTRIA METALURGICA LTDA      015071317000196LIM - TECN. DE CORTES, SOLD. USIN.      EST. MUNICIPAL,0-B                      SUMARE                                  13173250SP36984000080977437514777/2     30072012021CAMPINAS            2708201200000000001313500CC                                                                                                                                                                                                                                                                                                                                                                                                         000115
1038421020480COBR_CAUC_BIC  LIONFER INDUSTRIA METALURGICA LTDA      015071317000196LIM - TECN. DE CORTES, SOLD. USIN.      EST. MUNICIPAL,0-B                      SUMARE                                  13173250SP36984000090977438314777/3     30072012021CAMPINAS            1409201200000000001313500CC                                                                                                                                                                                                                                                                                                                                                                                                         000116
1038421020480COBR_CAUC_BIC  LIONFER INDUSTRIA METALURGICA LTDA      015071317000196LIM - TECN. DE CORTES, SOLD. USIN.      EST. MUNICIPAL,0-B                      SUMARE                                  13173250SP36984000100977439114777/4     30072012021CAMPINAS            1210201200000000001313500CC                                                                                                                                                                                                                                                                                                                                                                                                         000117
1038421020480COBR_CAUC_BIC  LIONFER INDUSTRIA METALURGICA LTDA      015071317000196LIM - TECN. DE CORTES, SOLD. USIN.      EST. MUNICIPAL,0-B                      SUMARE                                  13173250SP36984000110977440514777/5     30072012021CAMPINAS            0111201200000000001313500CC                                                                                                                                                                                                                                                                                                                                                                                                         000118
1038421020480COBR_CAUC_BIC  LIONFER INDUSTRIA METALURGICA LTDA      015071317000196LIM - TECN. DE CORTES, SOLD. USIN.      EST. MUNICIPAL,0-B                      SUMARE                                  13173250SP36984000120977441314777/6     30072012021CAMPINAS            2111201200000000001316875CC                                                                                                                                                                                                                                                                                                                                                                                                         000119
1038421020480COBR_CAUC_BIC  LIONFER INDUSTRIA METALURGICA LTDA      015071317000196LIM - TECN. DE CORTES, SOLD. USIN.      EST. MUNICIPAL,0-B                      SUMARE                                  13173250SP36984000130977442114788/1     30072012021CAMPINAS            2108201200000000001245500CC                                                                                                                                                                                                                                                                                                                                                                                                         000120
1038421020480COBR_CAUC_BIC  LIONFER INDUSTRIA METALURGICA LTDA      015071317000196LIM - TECN. DE CORTES, SOLD. USIN.      EST. MUNICIPAL,0-B                      SUMARE                                  13173250SP36984000140977443014788/2     30072012021CAMPINAS            2408201200000000001245500CC                                                                                                                                                                                                                                                                                                                                                                                                         000121
1038421020480COBR_CAUC_BIC  LIONFER INDUSTRIA METALURGICA LTDA      015071317000196LIM - TECN. DE CORTES, SOLD. USIN.      EST. MUNICIPAL,0-B                      SUMARE                                  13173250SP36984000150977444814788/3     30072012021CAMPINAS            1309201200000000001245500CC                                                                                                                                                                                                                                                                                                                                                                                                         000122
1038421020480COBR_CAUC_BIC  LIONFER INDUSTRIA METALURGICA LTDA      014454875000178FLIXETEN SOCIEDAD ANONIMA               RUA DOS BANDEIRANTES,154                CAMPINAS                                13024010SP36985000010977404914784/2     30072012021CAMPINAS            0409201200000000001373400CC                                                                                                                                                                                                                                                                                                                                                                                                         000123
1038421020480COBR_CAUC_BIC  LIONFER INDUSTRIA METALURGICA LTDA      014454875000178FLIXETEN SOCIEDAD ANONIMA               RUA DOS BANDEIRANTES,154                CAMPINAS                                13024010SP36985000020977477414773/4     30072012021CAMPINAS            1810201200000000001253900CC                                                                                                                                                                                                                                                                                                                                                                                                         000124
1038421020480COBR_CAUC_BIC  LIONFER INDUSTRIA METALURGICA LTDA      014454875000178FLIXETEN SOCIEDAD ANONIMA               RUA DOS BANDEIRANTES,154                CAMPINAS                                13024010SP36985000030977478214773/5     30072012021CAMPINAS            0811201200000000001253900CC                                                                                                                                                                                                                                                                                                                                                                                                         000125
1038421020480COBR_CAUC_BIC  LIONFER INDUSTRIA METALURGICA LTDA      014454875000178FLIXETEN SOCIEDAD ANONIMA               RUA DOS BANDEIRANTES,154                CAMPINAS                                13024010SP36985000040977479114773/6     30072012021CAMPINAS            2711201200000000001257488CC                                                                                                                                                                                                                                                                                                                                                                                                         000126
1038421020480COBR_CAUC_BIC  LIONFER INDUSTRIA METALURGICA LTDA      014454875000178FLIXETEN SOCIEDAD ANONIMA               RUA DOS BANDEIRANTES,154                CAMPINAS                                13024010SP36985000050977480414784/1     30072012021CAMPINAS            2908201200000000001373400CC                                                                                                                                                                                                                                                                                                                                                                                                         000127
1038421020480COBR_CAUC_BIC  LIONFER INDUSTRIA METALURGICA LTDA      014454875000178FLIXETEN SOCIEDAD ANONIMA               RUA DOS BANDEIRANTES,154                CAMPINAS                                13024010SP36985000060977481214784/3     30072012021CAMPINAS            2509201200000000001373400CC                                                                                                                                                                                                                                                                                                                                                                                                         000128
1038421020480COBR_CAUC_BIC  LIONFER INDUSTRIA METALURGICA LTDA      014454875000178FLIXETEN SOCIEDAD ANONIMA               RUA DOS BANDEIRANTES,154                CAMPINAS                                13024010SP36985000070977482114784/4     30072012021CAMPINAS            1710201200000000001373400CC                                                                                                                                                                                                                                                                                                                                                                                                         000129
1038421020480COBR_CAUC_BIC  LIONFER INDUSTRIA METALURGICA LTDA      014454875000178FLIXETEN SOCIEDAD ANONIMA               RUA DOS BANDEIRANTES,154                CAMPINAS                                13024010SP36985000080977483914784/5     30072012021CAMPINAS            0611201200000000001373400CC                                                                                                                                                                                                                                                                                                                                                                                                         000130
1038421020480COBR_CAUC_BIC  LIONFER INDUSTRIA METALURGICA LTDA      014454875000178FLIXETEN SOCIEDAD ANONIMA               RUA DOS BANDEIRANTES,154                CAMPINAS                                13024010SP36985000090977484714784/6     30072012021CAMPINAS            2611201200000000001376970CC                                                                                                                                                                                                                                                                                                                                                                                                         000131
1038421020480COBR_CAUC_BIC  LIONFER INDUSTRIA METALURGICA LTDA      014454875000178FLIXETEN SOCIEDAD ANONIMA               RUA DOS BANDEIRANTES,154                CAMPINAS                                13024010SP36985000100977488014773/3     30072012021CAMPINAS            2609201200000000001253900CC                                                                                                                                                                                                                                                                                                                                                                                                         000132
1038421020480COBR_CAUC_BIC  LIONFER INDUSTRIA METALURGICA LTDA      014454875000178FLIXETEN SOCIEDAD ANONIMA               RUA DOS BANDEIRANTES,154                CAMPINAS                                13024010SP36985000110977489814773/2     30072012021CAMPINAS            0509201200000000001253900CC                                                                                                                                                                                                                                                                                                                                                                                                         000133
1038421020480COBR_CAUC_BIC  LIONFER INDUSTRIA METALURGICA LTDA      014454875000178FLIXETEN SOCIEDAD ANONIMA               RUA DOS BANDEIRANTES,154                CAMPINAS                                13024010SP36985000120977490114773/1     30072012021CAMPINAS            2408201200000000001253900CC                                                                                                                                                                                                                                                                                                                                                                                                         000134
9000020                                                                                                                                                                                                                                                                                                                                                                                                                                                                                                                                                                                                                                                                                                               000135
