0REMESSANOTIFICACAO ELETRONICA        99999999999999BICBANCO                                AV. PAULISTA                            1048      12.ANDAR  BELA VISTA                    SAO PAULO                     01310100SP1121739360CORTINHAL                               COORDENADOR                             09122013                                                                                                                                                                                                                                                                                                                                                                                      000001
1043421005622DIR_CREDIT     CAGEPA-CIA.DE AGUA E ESGOTOS DA PB      009123654000187CAGEPA - CIA DE AGUA E ESGOTO DA PB     RUA FELICIANO CIRNE SN                  JAGUARIBE                               58015570PB4558600001                                                                                                                                          010755843           101120090000010706            040920120004033rata-se de direito de credito,representado pelos recebiveis derivados do faturamento da arrecadacao mensal em contas do consumo mensal de agua e es- goto pelos usuarios finais da cagepa.                                                     009123654000187              000002
1043421005622DIR_CREDIT     CAGEPA-CIA.DE AGUA E ESGOTOS DA PB      009123654000187CAGEPA - CIA DE AGUA E ESGOTO DA PB     RUA FELICIANO CIRNE SN                  JAGUARIBE                               58015570PB4558800001                                                                                                                                          011328728           101120090000010706            040920120004033rata-se de direito de credito,representado pelos recebiveis derivados do faturamento da arrecadacao mensal em contas do consumo mensal de agua e es- goto pelos usuarios finais da cagepa.                                                     009123654000187              000003
1043421005622DIR_CREDIT     CAGEPA-CIA.DE AGUA E ESGOTOS DA PB      009123654000187CAGEPA - CIA DE AGUA E ESGOTO DA PB     RUA FELICIANO CIRNE SN                  JAGUARIBE                               58015570PB4558700001                                                                                                                                          010880790           101120090000010706            040920120004033rata-se de direito de credito,representado pelos recebiveis derivados do faturamento da arrecadacao mensal em contas do consumo mensal de agua e es- goto pelos usuarios finais da cagepa.                                                     009123654000187              000004
1048421003043COBR_CAUC_COR  FRIGOL S.A. EM RECUPERACAO JUDICIAL     008593008000110DISTCARNES - DISTRIBUIDORA DE CARN      RUA ENG. VASCONCELOS BITTENCOURT, 414 41RECIFE                                  50740180PE4557500001000597990000030285  06122013900BRADESCO S/A        1312201300000000011629526CC                                                                                                                                                                                                                                                                                                                                                                                                         000005
1022421007800COBR_CAUC_COR  LEAO ENGENHARIA S/A                     007111038000180DUPLAN CONSTRUCAO CIVIL LTDA            RUA PEDRO IVO CAMPOS, 132               BIGUACU                                 88160000SC455730000101034129001728/1.1  05122013900BRADESCO S/A        3001201400000000025209885CC                                                                                                                                                                                                                                                                                                                                                                                                         000006
1016421023299COBR_CAUC_BIC  SIDERQUIMICA IND COM PROD QUIM S/A      017245234000525CIA DE FIACAO E TECIDOS CEDRO E CA      RUA PARAIBA, 337                        BELO HORIZONTE                          30130140MG455740000104221638164863      03122013019BELO HORIZONTE      0502201400000000010400000CC                                                                                                                                                                                                                                                                                                                                                                                                         000007
1013421027167COBR_CAUC_COR  SPECIAL FRUIT IMP. E EXP. LTDA          002633999000212BETO COMERCIAL AGRICOLA LTDA.           AV. DR.GASTAO VIDIG,0-CEASA-PAV 04      SAO PAULO                               05314000SP45572000010000175900011529    29112013900BRADESCO S/A        1301201400000000010300290CC                                                                                                                                                                                                                                                                                                                                                                                                         000008
9000007                                                                                                                                                                                                                                                                                                                                                                                                                                                                                                                                                                                                                                                                                                               000009
