0REMESSANOTIFICACAO ELETRONICA        99999999999999BICBANCO                                AV. PAULISTA                            1048      12.ANDAR  BELA VISTA                    SAO PAULO                     01310100SP1121739360CORTINHAL                               COORDENADOR                             12122012                                                                                                                                                                                                                                                                                                                                                                                      000001
1016421001333COBR_CAUC_BIC  CONDUSPAR CONDUTORES ELETRICOS LTDA     017155342000345LOJA ELETRICA LTDA                      AV. SANTOS DUMONT, 402                  BELO HORIZONTE                          30111040MG392750000103850879262774      29112012019BELO HORIZONTE      0201201300000000011049566CC                                                                                                                                                                                                                                                                                                                                                                                                         000002
1016421001333COBR_CAUC_BIC  CONDUSPAR CONDUTORES ELETRICOS LTDA     017155342000345LOJA ELETRICA LTDA                      AV. SANTOS DUMONT, 402                  BELO HORIZONTE                          30111040MG392750000203850887262783      29112012019BELO HORIZONTE      0201201300000000011626734CC                                                                                                                                                                                                                                                                                                                                                                                                         000003
1007421045766COBR_CAUC_BIC  EVER ELETRIC A IND E COM VEIC LTDA      013641886000102JOY COMERCIO DE AUTOMOVEIS LTDA         RUA SAO GABRIEL,108                     FORTALEZA                               60135450CE39296000010159919318445       28112012003CENTRO              3001201300000000002816409CC                                                                                                                                                                                                                                                                                                                                                                                                         000004
1007421045766COBR_CAUC_BIC  EVER ELETRIC A IND E COM VEIC LTDA      013641886000102JOY COMERCIO DE AUTOMOVEIS LTDA         RUA SAO GABRIEL,108                     FORTALEZA                               60135450CE39296000020159923118447       28112012003CENTRO              2002201300000000002904632CC                                                                                                                                                                                                                                                                                                                                                                                                         000005
1007421045766COBR_CAUC_BIC  EVER ELETRIC A IND E COM VEIC LTDA      013641886000102JOY COMERCIO DE AUTOMOVEIS LTDA         RUA SAO GABRIEL,108                     FORTALEZA                               60135450CE39296000030159924024160       28112012003CENTRO              2002201300000000002248200CC                                                                                                                                                                                                                                                                                                                                                                                                         000006
1007421045766COBR_CAUC_BIC  EVER ELETRIC A IND E COM VEIC LTDA      013641886000102JOY COMERCIO DE AUTOMOVEIS LTDA         RUA SAO GABRIEL,108                     FORTALEZA                               60135450CE39296000040159925818436       28112012003CENTRO              3001201300000000002816409CC                                                                                                                                                                                                                                                                                                                                                                                                         000007
1046421007085COBR_CAUC_BIC  H.F.SISTEMAS DE FREIO LTDA              007221070000623BEZERRA E OLIVEIRA COM. DE AUTOPEC      R PROFESSOR DINIZ N 1390                TERESINA                                64023530PI392790000101703432010819      22112012041TERESINA            2712201200000000011614467CC                                                                                                                                                                                                                                                                                                                                                                                                         000008
1024420934410COBR_CAUC_BIC  INTERCOOP INT SUIN MED NORTE MT LTD     004613751000487CRISTALFRIGO IND COM IMPORTACAO EX      AV DOS ANDRADAS ,2229-STA EFIGENIA      BELO HORIZONTE                          30120010MG39276000010200136090792       27112012019BELO HORIZONTE      0101201300000000013520250CC                                                                                                                                                                                                                                                                                                                                                                                                         000009
1019421010259COBR_CAUC_BIC  L & S INTERBANK FOMENTO LTDA            038625489000160TECNOMETAL ENG CONS MECANICAS LTDA      AVENIDA DAS NACOES, 3801                VESPASIANO                              33200000MG3927800001066349899899-2      06122012019BELO HORIZONTE      0503201300000000011000100CC                                                                                                                                                                                                                                                                                                                                                                                                         000010
1044421012350DIR_CREDIT     PAPI PRONTO SOCORRO                     008380701000105UNIMED NATAL                            RUA MIPIBU, 511 - PETRÓPOLIS            NATAL                                   59020250RN3929100001                                                                                                                                          481018265           260320080000005352001         11122012000404ATENDIMENTO MEDICO/AMBULATORIAL DOS CONVENIADOS A UNIMED/NATAL.                                                                                                                                                                                 008423220000130              000011
1007420938457DIR_CREDIT     RADIO E TV BANDEIRANTES LTDA            001796785000113MULTISOLUTION PUBLICIDADE E COM LTDA    AV DOS BANDEIRANTES, 5386 JD AEROPORTO  SAO PAULO                               04071001SP3923300001                                                                                                                                          011615798           101220100000019098S/N         22122011051902contrato de aquisição de publicidade envolvendo conjunto de ações   de mídia referente a Copa do Mundo de 2014.                                                                                                                                 060509239000113              000012
1050000000000DIR_CREDIT     SINETEL ENG E COM LTDA                  000190373000768IND E COM DE COSMETICOS NATURA LTDA     ROD AUG MEIRA FILHO KM 3 N3920 FZ ELDORABENEVIDES                               68795000PA3923400001                                                                                                                                          001205131           061120120000022985001/2012    07122012003004execução de obras de construção civil, instalações e demais avenças.                                                                                                                                                                            004883542000100              000013
1014421008439COBR_CAUC_BIC  TV OMEGA LTDA                           055068134000136Trucão Publicidade e Promoções Ltd      Av. Victor Chaves de Oliveira -  633    SantanadeParnaí                         06524215SP39277000010455603100031801    11122012007PAULISTA            2503201300000000013400000CC                                                                                                                                                                                                                                                                                                                                                                                                         000014
1014421008439COBR_CAUC_BIC  TV OMEGA LTDA                           055068134000136Trucão Publicidade e Promoções Ltd      Av. Victor Chaves de Oliveira -  633    SantanadeParnaí                         06524215SP39277000020455604900031601    11122012007PAULISTA            2501201300000000013400000CC                                                                                                                                                                                                                                                                                                                                                                                                         000015
1014421008439COBR_CAUC_BIC  TV OMEGA LTDA                           055068134000136Trucão Publicidade e Promoções Ltd      Av. Victor Chaves de Oliveira -  633    SantanadeParnaí                         06524215SP39277000030455605700031701    11122012007PAULISTA            2502201300000000013400000CC                                                                                                                                                                                                                                                                                                                                                                                                         000016
9000009                                                                                                                                                                                                                                                                                                                                                                                                                                                                                                                                                                                                                                                                                                               000017
