0REMESSANOTIFICACAO ELETRONICA        99999999999999BICBANCO                                AV. PAULISTA                            1048      12.ANDAR  BELA VISTA                    SAO PAULO                     01310100SP1121739360CORTINHAL                               COORDENADOR                             10042014                                                                                                                                                                                                                                                                                                                                                                                      000001
1007421067719COBR_CAUC_BIC  NEOLIDER COM.IMP.E EXP.DE ACOS LTDA     038951406000122TCA TUBOS E CONEXOES DE ACO LTDA        R SERRA DE PARACAINA,680                SAO PAULO                               03107020SP471210000102813539061407/     04042014007PAULISTA            2204201400000000013386240CC                                                                                                                                                                                                                                                                                                                                                                                                         000002
1010421024356COBR_CAUC_COR  DIST EQUADOR DE PROD PETROLEO LTDA      014172647000105W PEREIRA NAVEGACAO LTDA                R MONSENHOR COUTINHO, 763               MANAUS                                  69010110AM471220000100072046117460      02042014900BRADESCO S/A        1704201400000000010125001CC                                                                                                                                                                                                                                                                                                                                                                                                         000003
1049421001570COBR_CAUC_COR  MASTER AGROINDUSTRIAL LTDA              007797729000180DISTRIB. E TRANSP. DE CARNES SUITA      ROD. PARIGOT DFE SOUZA, S/N             JOAQUIM TAVORA                          86455000PR4712300001003717360000615601  04042014900BRADESCO S/A        2804201400000000010062000CC                                                                                                                                                                                                                                                                                                                                                                                                         000004
1049421001570COBR_CAUC_COR  MASTER AGROINDUSTRIAL LTDA              007797729000180DISTRIB. E TRANSP. DE CARNES SUITA      ROD. PARIGOT DFE SOUZA, S/N             JOAQUIM TAVORA                          86455000PR4712300002003717440000618501  07042014900BRADESCO S/A        2904201400000000010062000CC                                                                                                                                                                                                                                                                                                                                                                                                         000005
1048421003043COBR_CAUC_COR  FRIGOL S.A. EM RECUPERACAO JUDICIAL     010700821000194RAIMUNDO NONATO BANDEIRA E SILVA        RUA BELA VISTA, 05                      NATAL                                   59060190RN47124000010007168300034980-1  09042014900BRADESCO S/A        1405201400000000012694940CC                                                                                                                                                                                                                                                                                                                                                                                                         000006
9000004                                                                                                                                                                                                                                                                                                                                                                                                                                                                                                                                                                                                                                                                                                               000007
