0REMESSANOTIFICACAO ELETRONICA        99999999999999BICBANCO                                AV. PAULISTA                            1048      12.ANDAR  BELA VISTA                    SAO PAULO                     01310100SP1121739360CORTINHAL                               COORDENADOR                             06062014                                                                                                                                                                                                                                                                                                                                                                                      000001
1015421010253COBR_CAUC_COR  MUNDIAL S/A PRODUTOS DE CONSUMO         066471517000924DPC DISTRIBUIDOR ATACADISTA S A         AV DEP LUIS EDUARDO MAGALHAES S NR KM 52FEIRA DE SANTAN                         44096486BA4787500001012956205800568101  04062014900BRADESCO S/A        0209201400000000018144000CC                                                                                                                                                                                                                                                                                                                                                                                                         000002
1019421011492COBR_CAUC_COR  SECULUS DA AMAZONIA IND. E COM. S/A     022164990006177ELETROSOM S A                           R AUGUSTO SILVESTRE,177                 CATALAO                                 38500000MG478760000106924561099520001   24102013900BRADESCO S/A        0607201400000000010149300CC                                                                                                                                                                                                                                                                                                                                                                                                         000003
1046421001443COBR_CAUC_COR  COSTAO DO SANTINHO TUR E LAZER LTDA     002332375000184TREVISO AGENCIA DE VIAGENS E TURIS      AVENIDA CANDIDO DE ABR,526-SALA 12      CURITIBA                                80530905PR47877000010001428505062014    05062014900BRADESCO S/A        2306201400000000019260932CC                                                                                                                                                                                                                                                                                                                                                                                                         000004
1007421013325COBR_CAUC_COR  SANTA CRUZ FOMENTO COMERCIAL LTDA       004557061000105COMBOIO OFFICER LOGISTIC LTDA           RUA DR. BORMAN 43 SL  706               NITEROI                                 24020320RJ478870000102769793964/2.      25032014900BRADESCO S/A        1606201400000000004700000CC                                                                                                                                                                                                                                                                                                                                                                                                         000005
1007421013325COBR_CAUC_COR  SANTA CRUZ FOMENTO COMERCIAL LTDA       004557061000105COMBOIO OFFICER LOGISTIC LTDA           RUA DR. BORMAN 43 SL  706               NITEROI                                 24020320RJ478870000202773839964/5       21032014900BRADESCO S/A        1606201400000000004700000CC                                                                                                                                                                                                                                                                                                                                                                                                         000006
1007421013325COBR_CAUC_COR  SANTA CRUZ FOMENTO COMERCIAL LTDA       004557061000105COMBOIO OFFICER LOGISTIC LTDA           RUA DR. BORMAN 43 SL  706               NITEROI                                 24020320RJ478870000302903619971/a       07052014900BRADESCO S/A        3007201400000000005320000CC                                                                                                                                                                                                                                                                                                                                                                                                         000007
1007421013325COBR_CAUC_COR  SANTA CRUZ FOMENTO COMERCIAL LTDA       004557061000105COMBOIO OFFICER LOGISTIC LTDA           RUA DR. BORMAN 43 SL  706               NITEROI                                 24020320RJ478870000402903627971/c       07052014900BRADESCO S/A        3007201400000000005320000CC                                                                                                                                                                                                                                                                                                                                                                                                         000008
1007421013325COBR_CAUC_COR  SANTA CRUZ FOMENTO COMERCIAL LTDA       004557061000105COMBOIO OFFICER LOGISTIC LTDA           RUA DR. BORMAN, 43 SL 706               NITEROI                                 24020320RJ478880000102720298964/A       28022014900BRADESCO S/A        2306201400000000023500000CC                                                                                                                                                                                                                                                                                                                                                                                                         000009
9000005                                                                                                                                                                                                                                                                                                                                                                                                                                                                                                                                                                                                                                                                                                               000010
