0REMESSANOTIFICACAO ELETRONICA        99999999999999BICBANCO                                AV. PAULISTA                            1048      12.ANDAR  BELA VISTA                    SAO PAULO                     01310100SP1121739360CORTINHAL                               COORDENADOR                             21022013                                                                                                                                                                                                                                                                                                                                                                                      000001
1024140518611COBR_CAUC_BIC  BIMETAL INDUSTRIA METALURGICA LTDA      059225698000196ZOPONE ENGENHARIA E COMERCIO LTDA       AV RODRIGUES ALVES, 34-53               BAURU                                   17030000SP404980000102008101003/2012    19022013048AGENCIA BAURU       1903201300000000041630211TD                                                                                                                                                                                                                                                                                                                                                                                                         000002
1038421011812COBR_CAUC_BIC  ENERGY COML IMPORT E EXPORT LTDA        014555032000168REPLAS COMERCIO DE RESINAS PLASTIC      AVENIDA PRESIDENTE WILSON ,5700         SAO PAULO                               04220002SP405000000100024888002488      18022013007PAULISTA            2003201300000000011566958CC                                                                                                                                                                                                                                                                                                                                                                                                         000003
1038421011812COBR_CAUC_BIC  ENERGY COML IMPORT E EXPORT LTDA        014555032000168REPLAS COMERCIO DE RESINAS PLASTIC      AVENIDA PRESIDENTE WILSON ,5700         SAO PAULO                               04220002SP405000000200024896002489      18022013007PAULISTA            2003201300000000011566958CC                                                                                                                                                                                                                                                                                                                                                                                                         000004
1038421011812COBR_CAUC_BIC  ENERGY COML IMPORT E EXPORT LTDA        014555032000168REPLAS COMERCIO DE RESINAS PLASTIC      AVENIDA PRESIDENTE WILSON ,5700         SAO PAULO                               04220002SP405000000300024900002490      18022013007PAULISTA            2003201300000000011566958CC                                                                                                                                                                                                                                                                                                                                                                                                         000005
1038421011812COBR_CAUC_BIC  ENERGY COML IMPORT E EXPORT LTDA        014555032000168REPLAS COMERCIO DE RESINAS PLASTIC      AVENIDA PRESIDENTE WILSON ,5700         SAO PAULO                               04220002SP405000000400024918002491      18022013007PAULISTA            2003201300000000011566958CC                                                                                                                                                                                                                                                                                                                                                                                                         000006
1038421011812COBR_CAUC_BIC  ENERGY COML IMPORT E EXPORT LTDA        014555032000168REPLAS COMERCIO DE RESINAS PLASTIC      AVENIDA PRESIDENTE WILSON ,5700         SAO PAULO                               04220002SP405000000500024926002492      18022013007PAULISTA            2003201300000000011566958CC                                                                                                                                                                                                                                                                                                                                                                                                         000007
1038421011812COBR_CAUC_BIC  ENERGY COML IMPORT E EXPORT LTDA        014555032000168REPLAS COMERCIO DE RESINAS PLASTIC      AVENIDA PRESIDENTE WILSON ,5700         SAO PAULO                               04220002SP405000000600024934002487      18022013007PAULISTA            2003201300000000011566958CC                                                                                                                                                                                                                                                                                                                                                                                                         000008
1024420934410COBR_CAUC_BIC  INTERCOOP INT SUIN MED NORTE MT LTD     004613751000487CRISTALFRIGO IND COM IMPORTACAO EX      AV DOS ANDRADAS ,2229-STA EFIGENIA      BELO HORIZONTE                          30120010MG40499000010200811994946       20022013019BELO HORIZONTE      2003201300000000013733367CC                                                                                                                                                                                                                                                                                                                                                                                                         000009
9000003                                                                                                                                                                                                                                                                                                                                                                                                                                                                                                                                                                                                                                                                                                               000010
