0REMESSANOTIFICACAO ELETRONICA        99999999999999BICBANCO                                AV. PAULISTA                            1048      12.ANDAR  BELA VISTA                    SAO PAULO                     01310100SP1121739360CORTINHAL                               COORDENADOR                             06082014                                                                                                                                                                                                                                                                                                                                                                                      000001
1016421009571COBR_CAUC_BIC  IMPORTADORA DE FRUTAS LA VIOLETERA      002782071000461MEGAFORT DISTRIBUIDORA IMP E EXP L      V EX ANEL VIARIO 0                      APARECIDA DE GO                         74985240GO4872400001045848380005472001  31072014018GOIANIA             1109201400000000010949133CC                                                                                                                                                                                                                                                                                                                                                                                                         000002
1016421009571COBR_CAUC_BIC  IMPORTADORA DE FRUTAS LA VIOLETERA      002782071000461MEGAFORT DISTRIBUIDORA IMP E EXP L      V EX ANEL VIARIO 0                      APARECIDA DE GO                         74985240GO4872400002045848110005235001  30072014019GOIANIA             1009201400000000014652086CC                                                                                                                                                                                                                                                                                                                                                                                                         000003
1016421009571COBR_CAUC_BIC  IMPORTADORA DE FRUTAS LA VIOLETERA      075315333012468ATACADAO DISTRIBUICAO COMERCIO E I      AV MORVAN DIAS DE FIGUEREDO 6169        SAO PAULO                               02170901SP4872500001045848540005380001  31072014007PAULISTA            1109201400000000010082032CC                                                                                                                                                                                                                                                                                                                                                                                                         000004
1029421012917COBR_CAUC_COR  GERMANI ALIMENTOS LTDA                  001920177000179COMERCIAL MILANO BRASIL LTDA            ESTRADA VELHA DO PILAR,1083             DUQUE DE CAXIAS                         25230610RJ487260000100042500178528-1    04082014900BRADESCO S/A        0809201400000000010356666CC                                                                                                                                                                                                                                                                                                                                                                                                         000005
1029421012917COBR_CAUC_COR  GERMANI ALIMENTOS LTDA                  001920177000179COMERCIAL MILANO BRASIL LTDA            ESTRADA VELHA DO PILAR,1083             DUQUE DE CAXIAS                         25230610RJ487260000200042518178528-2    04082014900BRADESCO S/A        1809201400000000010356667CC                                                                                                                                                                                                                                                                                                                                                                                                         000006
1029421012917COBR_CAUC_COR  GERMANI ALIMENTOS LTDA                  001920177000179COMERCIAL MILANO BRASIL LTDA            ESTRADA VELHA DO PILAR,1083             DUQUE DE CAXIAS                         25230610RJ487260000300042526178528-3    04082014900BRADESCO S/A        0310201400000000010356667CC                                                                                                                                                                                                                                                                                                                                                                                                         000007
1007421067719COBR_CAUC_BIC  NEOLIDER COM.IMP.E EXP.DE ACOS LTDA     096591128000146VWS BRASIL LTDA                         R JUNDIAI,50                            SAO PAULO                               04001140SP487270000103161811064108/     31072014007PAULISTA            2808201400000000010077148CC                                                                                                                                                                                                                                                                                                                                                                                                         000008
1031421011181COBR_CAUC_BIC  AGROIND IRMAOS DALLA COSTA LTDA         061270393000148FRIGORIFICO MARBA LTDA                  AV. CEZAR MAGNANI                  00971SAO BERNARDO DO                         09694000SP48728000010542614435020/1     31072014007PAULISTA            0909201400000000016625000CC                                                                                                                                                                                                                                                                                                                                                                                                         000009
1046421006070DIR_CREDIT     METALURGICA DS LTDA                     060857349000176TRW AUTOMOTIVE LTDA                     VIA ANHANGUERA KM 147                   LIMEIRA                                 13486915SP4874400001                                                                                                                                          012645785           260320070000018698            05082014000404fornecimento de discos e tambores de freio para automóveis.                                                                                                                                                                                     079414868000198              000010
9000006                                                                                                                                                                                                                                                                                                                                                                                                                                                                                                                                                                                                                                                                                                               000011
