0REMESSANOTIFICACAO ELETRONICA        99999999999999BICBANCO                                AV. PAULISTA                            1048      12.ANDAR  BELA VISTA                    SAO PAULO                     01310100SP1121739360CORTINHAL                               COORDENADOR                             14102013                                                                                                                                                                                                                                                                                                                                                                                      000001
1018420932820COBR_CAUC_COR  ADUBOS ARAGUAIA IND. E COM. LTDA        000047574062668CLAYTON LUIZ MARQUES                    SAO JOAO BATISTA DA GLORIA SN           CAMPINAS                                37920000MG4478200001034403580003215801  11102013900BRADESCO S/A        2803201400000000018946154CC                                                                                                                                                                                                                                                                                                                                                                                                         000002
1015421021867COBR_CAUC_COR  COTRIJUI COOP AGROP & INDUSTRIAL        008474030000141MEDEIROS FRIOS E CONGELADOS LTDA-       RUA DIAS CARNEIRO 1977                  BACABAL                                 65700000MA447830000100128797165993-1    10102013900BRADESCO S/A        2410201300000000010671661CC                                                                                                                                                                                                                                                                                                                                                                                                         000003
1049421001570COBR_CAUC_COR  MASTER AGROINDUSTRIAL LTDA              007797729000180DISTRIB. E TRANSP. DE CARNES SUITA      ROD. PARIGOT DFE SOUZA, S/N             JOAQUIM TAVORA                          86455000PR4478400001003668640003740601  10102013900BRADESCO S/A        3110201300000000011746540CC                                                                                                                                                                                                                                                                                                                                                                                                         000004
9000003                                                                                                                                                                                                                                                                                                                                                                                                                                                                                                                                                                                                                                                                                                               000005
