0REMESSANOTIFICACAO ELETRONICA        99999999999999BICBANCO                                AV. PAULISTA                            1048      12.ANDAR  BELA VISTA                    SAO PAULO                     01310100SP1121739360CORTINHAL                               COORDENADOR                             21032012                                                                                                                                                                                                                                                                                                                                                                                      000001
1036421013576DIR_CREDIT     BIOFAST MEDICINA E SAUDE LTDA           060975174000100ASSOC.DE BENEF.E FILANTROPIA S.CRISTOVAORUA TERENAS, 161/207                    SÃO PAULO                               03128010SP3443000001                                                                                                                                          011794218           010620080000010627            19032012000403PRESTAÇÃO DE SERVIÇOS DE DIAGNÓSTICOS EM ANÁLISES CLÍNICAS, ANATOMIA E OUTRAS AVENÇAS.                                                                                                                                                          006137183000178              000002
1036421013576DIR_CREDIT     BIOFAST MEDICINA E SAUDE LTDA           060961422000155SEPACO - SERV.SOCIAL DA IND.DO PAPEL    RUA VERGUEIRO, 4210                     VILA MARIANA                            04102900SP3443100001                                                                                                                                          011794218           030820080000010632            19032012000403realização de exames de patologia clínica a serem realizados em        materiais biológicos que serão coletados dos clientes/pacientes pela           contratante.                                                                              006137183000178              000003
1022421007509DIR_CREDIT     KURICA SELETA AMBIENTAL S/A             078079639000100SAMAE - SERVIçO AUTONOMO MUNICIPAL DE   AV. SANTOS DUMONT, 565                  IBIPORA                                 86200000PR3443300001                                                                                                                                          011787792           010920100000016632016/2010    19032012000403execução de serviços de engenharia sanitária para a coleta,tratamento edisposição final de resíduos sólidos orgânicos e inogânicos,provenientes das   áreas urbanas e rural do Município de Ibiporã-PR.                                         007706588000142              000004
1007420931444COBR_CAUC_BIC  PLASINCO LTDA                           047090782000160DANEVA MAQ. E COND. EL. LTDA.           RUA VOTUPORANGA,415                     POA                                     08558050SP34435000010114201119086       19032012007PAULISTA            1104201200000000019863016CC                                                                                                                                                                                                                                                                                                                                                                                                         000005
1016421008591COBR_CAUC_BIC  GLOBOAVES SAO PAULO AGROAVICOLA LTD     061270393000148FRIGORIFICO MARBA LTDA                  AV CESAR MAGNANI,971                    S BERNANRDO CAM                         09694000SP344360000103354138081480      16032012038ABC                 2204201200000000011760000CC                                                                                                                                                                                                                                                                                                                                                                                                         000006
1018421031380DIR_CREDIT     CATALAO CONSTR. EMPREEND. IMOB.LTDA     007023615000182CONFIANçA EMPREEND IMOBILIARIOS LTDA    AV BARAO DO RIO BRANCO N 522 CENTR0     ANAPOLIS                                75020020GO3446000001                                                                                                                                          011739391           280220120000020821            20032012000403repasse de pagamentos parcelas - referente venda de lotes.                                                                                                                                                                                      005306319000163              000007
1031421007893COBR_CAUC_COR  DIPLOMATA S/A  INDL. E COMERCIAL        076994946000182FRANGO SEVA LTDA                        ROD PR 469 KM 03, Nº2000                PATO BRANCO                             85503390PR3446300001049735080149750-04  16022012800UNIBANCO S/A        1204201200000000013117500CC                                                                                                                                                                                                                                                                                                                                                                                                         000008
1031421007893COBR_CAUC_COR  DIPLOMATA S/A  INDL. E COMERCIAL        091830836000683OLFAR - INDUSTRIA E COMERCIO DE OL      ROD EST BR 153 KM 53 SN                 ERECHIM                                 99700000RS3446400001049764850001196-01  09032012800UNIBANCO S/A        1004201200000000007830000CC                                                                                                                                                                                                                                                                                                                                                                                                         000009
1031421007893COBR_CAUC_COR  DIPLOMATA S/A  INDL. E COMERCIAL        091830836000683OLFAR - INDUSTRIA E COMERCIO DE OL      ROD EST BR 153 KM 53 SN                 ERECHIM                                 99700000RS3446400002049764770001196-02  09032012800UNIBANCO S/A        1004201200000000007830000CC                                                                                                                                                                                                                                                                                                                                                                                                         000010
1031421007893COBR_CAUC_COR  DIPLOMATA S/A  INDL. E COMERCIAL        091830836000683OLFAR - INDUSTRIA E COMERCIO DE OL      ROD EST BR 153 KM 53 SN                 ERECHIM                                 99700000RS3446400003049764690001196-03  09032012800UNIBANCO S/A        1004201200000000007830000CC                                                                                                                                                                                                                                                                                                                                                                                                         000011
1031421007893COBR_CAUC_COR  DIPLOMATA S/A  INDL. E COMERCIAL        091830836000683OLFAR - INDUSTRIA E COMERCIO DE OL      ROD EST BR 153 KM 53 SN                 ERECHIM                                 99700000RS3446400004049764510001196-04  09032012800UNIBANCO S/A        1004201200000000007830000CC                                                                                                                                                                                                                                                                                                                                                                                                         000012
1031421007893COBR_CAUC_COR  DIPLOMATA S/A  INDL. E COMERCIAL        091830836000683OLFAR - INDUSTRIA E COMERCIO DE OL      ROD EST BR 153 KM 53 SN                 ERECHIM                                 99700000RS3446400005049764420001196-05  09032012800UNIBANCO S/A        1004201200000000007830000CC                                                                                                                                                                                                                                                                                                                                                                                                         000013
1031421007893COBR_CAUC_COR  DIPLOMATA S/A  INDL. E COMERCIAL        091830836000683OLFAR - INDUSTRIA E COMERCIO DE OL      ROD EST BR 153 KM 53 SN                 ERECHIM                                 99700000RS3446400006049764340001196-06  09032012800UNIBANCO S/A        1004201200000000007830000CC                                                                                                                                                                                                                                                                                                                                                                                                         000014
9000008                                                                                                                                                                                                                                                                                                                                                                                                                                                                                                                                                                                                                                                                                                               000015
