0REMESSANOTIFICACAO ELETRONICA        99999999999999BICBANCO                                AV. PAULISTA                            1048      12.ANDAR  BELA VISTA                    SAO PAULO                     01310100SP1121739360CORTINHAL                               COORDENADOR                             29082012                                                                                                                                                                                                                                                                                                                                                                                      000001
1038421011812COBR_CAUC_BIC  ENERGY COML IMPORT E EXPORT LTDA        009363567000105PREMIX BRASIL RESINAS LTDA              AL ARAGUAIA,2044                        BARUERI                                 06455000SP375060000109815225001331      27072012007PAULISTA            1009201200000000015760053CC                                                                                                                                                                                                                                                                                                                                                                                                         000002
1038421011812COBR_CAUC_BIC  ENERGY COML IMPORT E EXPORT LTDA        009363567000105PREMIX BRASIL RESINAS LTDA              AL ARAGUAIA,2044                        BARUERI                                 06455000SP375060000209815233001363      03082012007PAULISTA            1709201200000000011843592CC                                                                                                                                                                                                                                                                                                                                                                                                         000003
1038421011812COBR_CAUC_BIC  ENERGY COML IMPORT E EXPORT LTDA        009363567000105PREMIX BRASIL RESINAS LTDA              AL ARAGUAIA,2044                        BARUERI                                 06455000SP375060000309815241001362      03082012007PAULISTA            1709201200000000011924095CC                                                                                                                                                                                                                                                                                                                                                                                                         000004
1038421011812COBR_CAUC_BIC  ENERGY COML IMPORT E EXPORT LTDA        009363567000105PREMIX BRASIL RESINAS LTDA              AL ARAGUAIA,2044                        BARUERI                                 06455000SP375060000409815250001350      02082012007PAULISTA            1409201200000000010513216CC                                                                                                                                                                                                                                                                                                                                                                                                         000005
1038421011812COBR_CAUC_BIC  ENERGY COML IMPORT E EXPORT LTDA        009363567000105PREMIX BRASIL RESINAS LTDA              AL ARAGUAIA,2044                        BARUERI                                 06455000SP375060000509815268001349      02082012007PAULISTA            1409201200000000010605951CC                                                                                                                                                                                                                                                                                                                                                                                                         000006
1038421011812COBR_CAUC_BIC  ENERGY COML IMPORT E EXPORT LTDA        009363567000105PREMIX BRASIL RESINAS LTDA              AL ARAGUAIA,2044                        BARUERI                                 06455000SP375060000609815276001348      02082012007PAULISTA            1409201200000000010707769CC                                                                                                                                                                                                                                                                                                                                                                                                         000007
1038421011812COBR_CAUC_BIC  ENERGY COML IMPORT E EXPORT LTDA        009363567000105PREMIX BRASIL RESINAS LTDA              AL ARAGUAIA,2044                        BARUERI                                 06455000SP375060000709815284001347      01082012007PAULISTA            1409201200000000010862827CC                                                                                                                                                                                                                                                                                                                                                                                                         000008
1038421011812COBR_CAUC_BIC  ENERGY COML IMPORT E EXPORT LTDA        009363567000105PREMIX BRASIL RESINAS LTDA              AL ARAGUAIA,2044                        BARUERI                                 06455000SP375060000809815292001346      01082012007PAULISTA            1409201200000000011244642CC                                                                                                                                                                                                                                                                                                                                                                                                         000009
1038421011812COBR_CAUC_BIC  ENERGY COML IMPORT E EXPORT LTDA        009363567000105PREMIX BRASIL RESINAS LTDA              AL ARAGUAIA,2044                        BARUERI                                 06455000SP375060000909815306001342      31072012007PAULISTA            1409201200000000011751732CC                                                                                                                                                                                                                                                                                                                                                                                                         000010
1038421011812COBR_CAUC_BIC  ENERGY COML IMPORT E EXPORT LTDA        009363567000105PREMIX BRASIL RESINAS LTDA              AL ARAGUAIA,2044                        BARUERI                                 06455000SP375060001009815314001339      30072012007PAULISTA            1309201200000000012226938CC                                                                                                                                                                                                                                                                                                                                                                                                         000011
1038421011812COBR_CAUC_BIC  ENERGY COML IMPORT E EXPORT LTDA        009363567000105PREMIX BRASIL RESINAS LTDA              AL ARAGUAIA,2044                        BARUERI                                 06455000SP375060001109815322001338      30072012007PAULISTA            1309201200000000012540876CC                                                                                                                                                                                                                                                                                                                                                                                                         000012
1038421011812COBR_CAUC_BIC  ENERGY COML IMPORT E EXPORT LTDA        009363567000105PREMIX BRASIL RESINAS LTDA              AL ARAGUAIA,2044                        BARUERI                                 06455000SP375060001209815331001332      27072012007PAULISTA            1009201200000000015760053CC                                                                                                                                                                                                                                                                                                                                                                                                         000013
1038421011812COBR_CAUC_BIC  ENERGY COML IMPORT E EXPORT LTDA        009363567000105PREMIX BRASIL RESINAS LTDA              AL ARAGUAIA,2044                        BARUERI                                 06455000SP375060001309815349001364      03082012007PAULISTA            1709201200000000011685619CC                                                                                                                                                                                                                                                                                                                                                                                                         000014
1007421034080COBR_CAUC_BIC  SIDMEX INTERNACIONAL LTDA               011607743000140SHAOXING COMERCIO DE PRODUTOS TEXT      CORREIA DE MELO,84-SALA 411             SAO PAULO                               01123020SP375070000101421807674322      27082012007PAULISTA            1510201200000000016077445CC                                                                                                                                                                                                                                                                                                                                                                                                         000015
1031421006919COBR_CAUC_BIC  AVEBOM INDUSTRIA DE ALIMENTOS LTDA      010793534000176PINHEIRO DISTRIB. DE ALIMENTOS LTD      AV.GENERAL OSORIO DE PAIVA,1599         FORTALEZA                               60720000CE3754100001050140240041421/01  06082012003CENTRO              0309201200000000001350000CC                                                                                                                                                                                                                                                                                                                                                                                                         000016
1031421006919COBR_CAUC_BIC  AVEBOM INDUSTRIA DE ALIMENTOS LTDA      010793534000176PINHEIRO DISTRIB. DE ALIMENTOS LTD      AV.GENERAL OSORIO DE PAIVA,1599         FORTALEZA                               60720000CE3754100002050141300041421/02  06082012003CENTRO              0809201200000000001350000CC                                                                                                                                                                                                                                                                                                                                                                                                         000017
1048421000613COBR_CAUC_COR  TRIANGULO ALIMENTOS LTDA                009259930000139A PRAEIRA COMERCIO ATACADISTA DE A      RUA TUPARETAMA 173 LOTE 11              RECIFE                                  50771460PE375420000100590567042887-3    12072012900BRADESCO S/A        0509201200000000003038750CC                                                                                                                                                                                                                                                                                                                                                                                                         000018
1048421000613COBR_CAUC_COR  TRIANGULO ALIMENTOS LTDA                009259930000139A PRAEIRA COMERCIO ATACADISTA DE A      RUA TUPARETAMA 173 LOTE 11              RECIFE                                  50771460PE375420000200590575042887-4    12072012900BRADESCO S/A        1209201200000000003038750CC                                                                                                                                                                                                                                                                                                                                                                                                         000019
1048421000613COBR_CAUC_COR  TRIANGULO ALIMENTOS LTDA                009259930000139A PRAEIRA COMERCIO ATACADISTA DE A      RUA TUPARETAMA 173 LOTE 11              RECIFE                                  50771460PE375420000300591008042888-3    12072012900BRADESCO S/A        3108201200000000002877000CC                                                                                                                                                                                                                                                                                                                                                                                                         000020
1048421000613COBR_CAUC_COR  TRIANGULO ALIMENTOS LTDA                009259930000139A PRAEIRA COMERCIO ATACADISTA DE A      RUA TUPARETAMA 173 LOTE 11              RECIFE                                  50771460PE375420000400591016042888-4    12072012900BRADESCO S/A        0609201200000000002877000CC                                                                                                                                                                                                                                                                                                                                                                                                         000021
1048421000613COBR_CAUC_COR  TRIANGULO ALIMENTOS LTDA                009259930000139A PRAEIRA COMERCIO ATACADISTA DE A      RUA TUPARETAMA 173 LOTE 11              RECIFE                                  50771460PE375420000500592292044324-2    30072012900BRADESCO S/A        0309201200000000003014000CC                                                                                                                                                                                                                                                                                                                                                                                                         000022
1048421000613COBR_CAUC_COR  TRIANGULO ALIMENTOS LTDA                009259930000139A PRAEIRA COMERCIO ATACADISTA DE A      RUA TUPARETAMA 173 LOTE 11              RECIFE                                  50771460PE375420000600592306044324-3    30072012900BRADESCO S/A        1009201200000000003014000CC                                                                                                                                                                                                                                                                                                                                                                                                         000023
1048421000613COBR_CAUC_COR  TRIANGULO ALIMENTOS LTDA                009259930000139A PRAEIRA COMERCIO ATACADISTA DE A      RUA TUPARETAMA 173 LOTE 11              RECIFE                                  50771460PE375420000700592314044324-4    30072012900BRADESCO S/A        1709201200000000003014000CC                                                                                                                                                                                                                                                                                                                                                                                                         000024
1048421000613COBR_CAUC_BIC  TRIANGULO ALIMENTOS LTDA                016422000000110MARTINS - COMERCIO DE ALIMENTOS E       AV. MARINA, 652 - SL 23                 MONGAGUA                                11730000SP375430000100590770043776-3    23072012023SANTOS              0509201200000000002195447CC                                                                                                                                                                                                                                                                                                                                                                                                         000025
1048421000613COBR_CAUC_BIC  TRIANGULO ALIMENTOS LTDA                016422000000110MARTINS - COMERCIO DE ALIMENTOS E       AV. MARINA, 652 - SL 23                 MONGAGUA                                11730000SP375430000200592985044299-3    30072012023SANTOS              0309201200000000002169199CC                                                                                                                                                                                                                                                                                                                                                                                                         000026
1048421000613COBR_CAUC_BIC  TRIANGULO ALIMENTOS LTDA                016422000000110MARTINS - COMERCIO DE ALIMENTOS E       AV. MARINA, 652 - SL 23                 MONGAGUA                                11730000SP375430000300593001044305-2    30072012023SANTOS              0309201200000000003239250CC                                                                                                                                                                                                                                                                                                                                                                                                         000027
1048421000613COBR_CAUC_BIC  TRIANGULO ALIMENTOS LTDA                016422000000110MARTINS - COMERCIO DE ALIMENTOS E       AV. MARINA, 652 - SL 23                 MONGAGUA                                11730000SP375430000400594082044308-2    30072012023SANTOS              0409201200000000003202500CC                                                                                                                                                                                                                                                                                                                                                                                                         000028
1048421000613COBR_CAUC_BIC  TRIANGULO ALIMENTOS LTDA                016422000000110MARTINS - COMERCIO DE ALIMENTOS E       AV. MARINA, 652 - SL 23                 MONGAGUA                                11730000SP375430000500594309044543-1    02082012023SANTOS              0309201200000000003141250CC                                                                                                                                                                                                                                                                                                                                                                                                         000029
1048421000613COBR_CAUC_BIC  TRIANGULO ALIMENTOS LTDA                016422000000110MARTINS - COMERCIO DE ALIMENTOS E       AV. MARINA, 652 - SL 23                 MONGAGUA                                11730000SP375430000600594317044543-2    02082012023SANTOS              1009201200000000003141250CC                                                                                                                                                                                                                                                                                                                                                                                                         000030
1048421000613COBR_CAUC_BIC  TRIANGULO ALIMENTOS LTDA                016422000000110MARTINS - COMERCIO DE ALIMENTOS E       AV. MARINA, 652 - SL 23                 MONGAGUA                                11730000SP375430000700594821044556-1    02082012023SANTOS              1109201200000000003199875CC                                                                                                                                                                                                                                                                                                                                                                                                         000031
1048421000613COBR_CAUC_BIC  TRIANGULO ALIMENTOS LTDA                016422000000110MARTINS - COMERCIO DE ALIMENTOS E       AV. MARINA, 652 - SL 23                 MONGAGUA                                11730000SP375430000800594830044556-2    02082012023SANTOS              1809201200000000003199875CC                                                                                                                                                                                                                                                                                                                                                                                                         000032
1048421000613COBR_CAUC_BIC  TRIANGULO ALIMENTOS LTDA                016422000000110MARTINS - COMERCIO DE ALIMENTOS E       AV. MARINA, 652 - SL 23                 MONGAGUA                                11730000SP375430000900594848044570-1    02082012023SANTOS              1409201200000000003199875CC                                                                                                                                                                                                                                                                                                                                                                                                         000033
1048421000613COBR_CAUC_BIC  TRIANGULO ALIMENTOS LTDA                016422000000110MARTINS - COMERCIO DE ALIMENTOS E       AV. MARINA, 652 - SL 23                 MONGAGUA                                11730000SP375430001000594856044570-2    02082012023SANTOS              2109201200000000003199875CC                                                                                                                                                                                                                                                                                                                                                                                                         000034
1048421000613COBR_CAUC_BIC  TRIANGULO ALIMENTOS LTDA                016422000000110MARTINS - COMERCIO DE ALIMENTOS E       AV. MARINA, 652 - SL 23                 MONGAGUA                                11730000SP375430001100597065044578-1    02082012023SANTOS              1609201200000000006429500CC                                                                                                                                                                                                                                                                                                                                                                                                         000035
1047421001310COBR_CAUC_BIC  CAMPEZINA IND COM DE ALIMENTOS LTDA     064599871000156SUPERMERCADO GALASSI LTDA               AV ENG ANTONIO F P SOUZA 3471           CAMPINAS                                13044370SP37544000010146187300055712-3  02082012021CAMPINAS            2109201200000000000687024CC                                                                                                                                                                                                                                                                                                                                                                                                         000036
1047421001310COBR_CAUC_BIC  CAMPEZINA IND COM DE ALIMENTOS LTDA     064599871000156SUPERMERCADO GALASSI LTDA               AV ENG ANTONIO F P SOUZA 3471           CAMPINAS                                13044370SP37544000020146188100055712-2  02082012021CAMPINAS            1409201200000000000686817CC                                                                                                                                                                                                                                                                                                                                                                                                         000037
1047421001310COBR_CAUC_BIC  CAMPEZINA IND COM DE ALIMENTOS LTDA     064599871000156SUPERMERCADO GALASSI LTDA               AV ENG ANTONIO F P SOUZA 3471           CAMPINAS                                13044370SP37544000030146189000055712-1  02082012021CAMPINAS            1009201200000000000686817CC                                                                                                                                                                                                                                                                                                                                                                                                         000038
9000006                                                                                                                                                                                                                                                                                                                                                                                                                                                                                                                                                                                                                                                                                                               000039
