0REMESSANOTIFICACAO ELETRONICA        99999999999999BICBANCO                                AV. PAULISTA                            1048      12.ANDAR  BELA VISTA                    SAO PAULO                     01310100SP1121739360CORTINHAL                               COORDENADOR                             13092013                                                                                                                                                                                                                                                                                                                                                                                      000001
1048421003043COBR_CAUC_COR  FRIGOL S.A. EM RECUPERACAO JUDICIAL     011294453000194RIOFRIO MAIS ALIMENTOS                  ESTRADA SAO JOAO CAXIAS.30              SAO JOAO DE MER                         18681730RJ4411600001000461580000027080  12092013900BRADESCO S/A        1410201300000000022398961CC                                                                                                                                                                                                                                                                                                                                                                                                         000002
1046421002474COBR_CAUC_BIC  MACROMAQ EQUIPAMENTOS LTDA              016851795000181CONSTRUTORA ZORZO LTDA - ME             R MOSCOU,51 - LETRA E                   CHAPECO                                 89805370SC44115000010210021924743/02    11092013046FLORIANOPOLIS       1111201300000000015000000CC                                                                                                                                                                                                                                                                                                                                                                                                         000003
1028421002921COBR_CAUC_COR  MATABOI ALIMENTOS S/A - EM REC.JUD.     006829427000183S J PARAISO CHARQUE LTDA                R XV DE NOVEMBRO  SN                    CAMBUCI                                 28430000RJ4411400001004234380001582401  11092013900BRADESCO S/A        0610201300000000011321664CC                                                                                                                                                                                                                                                                                                                                                                                                         000004
1028421008601COBR_CAUC_COR  TERRENA AGRONEGOCIOS LTDA               000685383000502COODETEC - COOP. CENTRAL DE PESQUI      R. GASTAO CAMPOS LEPESQUER 225 APT 225  PARACATU                                38600000MG4411300001029238530001248701  02092013800UNIBANCO S/A        3011201300000000013612800CC                                                                                                                                                                                                                                                                                                                                                                                                         000005
9000004                                                                                                                                                                                                                                                                                                                                                                                                                                                                                                                                                                                                                                                                                                               000006
