0REMESSANOTIFICACAO ELETRONICA        99999999999999BICBANCO                                AV. PAULISTA                            1048      12.ANDAR  BELA VISTA                    SAO PAULO                     01310100SP1121739360CORTINHAL                               COORDENADOR                             01022012                                                                                                                                                                                                                                                                                                                                                                                      000001
1008420932455COBR_CAUC_COR  SANTANA TEXTIL S/A                      078876950005300CIA HERING                              RUA HERMANN HERING 1790                 BLUMENAU                                89010900SC335690000100507760068709*     30012012900BRADESCO S/A        2905201200000000013917134CC                                                                                                                                                                                                                                                                                                                                                                                                         000002
1008420932455COBR_CAUC_COR  SANTANA TEXTIL S/A                      078876950005300CIA HERING                              RUA HERMANN HERING 1790                 BLUMENAU                                89010900SC335690000200507778068710*     30012012900BRADESCO S/A        2905201200000000012352604CC                                                                                                                                                                                                                                                                                                                                                                                                         000003
1017421012786COBR_CAUC_COR  FABRICA DA PEDRA S.A FIAC.E TECELAG     051663763001044LOJAS TANGER LTDA                       AVENIDA FLORIANO PEIXOTOJARDIM ARIANO   LINS                                    16400101SP3357000001025677777683-A01    30012012800UNIBANCO S/A        3003201200000000018954570CC                                                                                                                                                                                                                                                                                                                                                                                                         000004
1021420930887COBR_CAUC_BIC  DEDINI S/A INDUSTRIAS DE BASE           061068342000138PRENSAS SCHULER SA                      AV FAGUNDES DE OLIVEIRA PIRAPORINHA BR  DIADEMA                                 09950904SP33571000010628459733421-1-1   27012012038ABC                 1402201200000000010540000CC                                                                                                                                                                                                                                                                                                                                                                                                         000005
1021141012725COBR_CAUC_BIC  MABE BRASIL ELETRODOMESTICOS LTDA       000776574000660B2W COMPANHIA GLOBAL DO VAREJO          RUA SACADURA CABRAL 102, PARTE          RIO DE JANEIRO                          20081902RJ3357200001062842790000080238  26012012014RIO DE JANEIRO      2603201200000000011701408TD                                                                                                                                                                                                                                                                                                                                                                                                         000006
1021141012725COBR_CAUC_BIC  MABE BRASIL ELETRODOMESTICOS LTDA       000776574000660B2W COMPANHIA GLOBAL DO VAREJO          RUA SACADURA CABRAL 102, PARTE          RIO DE JANEIRO                          20081902RJ3357200002062844810000618810  31012012014RIO DE JANEIRO      0204201200000000010025712TD                                                                                                                                                                                                                                                                                                                                                                                                         000007
1018421005230COBR_CAUC_COR  CENTROALCOOL S/A                        004930779000103SR DISTRIBUIDORA DE PETROLEO LTDA       AV NITEROI QD 4 LT R1/19                SENADOR CANEDO                          75250000GO33573000010260245138773/AA    30012012800UNIBANCO S/A        2906201200000000043000000CC                                                                                                                                                                                                                                                                                                                                                                                                         000008
1007421045766COBR_CAUC_BIC  EVER ELETRIC A IND E COM VEIC LTDA      012007687000176TRYON COMERCIO E LOCACAO DE VEICUL      AVENIDA HISTORIADOR RUBENS DE, 1563     CUIABA                                  78050000MT3360700001009936530129053/02  15122011024CUIABA              1403201200000000004408237CC                                                                                                                                                                                                                                                                                                                                                                                                         000009
1007421045766COBR_CAUC_BIC  EVER ELETRIC A IND E COM VEIC LTDA      012007687000176TRYON COMERCIO E LOCACAO DE VEICUL      AVENIDA HISTORIADOR RUBENS DE, 1563     CUIABA                                  78050000MT3360700002009936020129056/02  15122011024CUIABA              1403201200000000004408237CC                                                                                                                                                                                                                                                                                                                                                                                                         000010
1007421045766COBR_CAUC_COR  EVER ELETRIC A IND E COM VEIC LTDA      000475208000167PROESTE OURINHOS COM. DE VEICULOS       AV. LUIZ S. RODRIGUES ,2751             OURINHOS                                19908095SP33608000010102482424697       13012012800UNIBANCO S/A        2502201200000000004498200CC                                                                                                                                                                                                                                                                                                                                                                                                         000011
1007421045766COBR_CAUC_COR  EVER ELETRIC A IND E COM VEIC LTDA      000475208000167PROESTE OURINHOS COM. DE VEICULOS       AV. LUIZ S. RODRIGUES ,2751             OURINHOS                                19908095SP33608000020102481624713       13012012800UNIBANCO S/A        2502201200000000002248199CC                                                                                                                                                                                                                                                                                                                                                                                                         000012
1007421045766COBR_CAUC_COR  EVER ELETRIC A IND E COM VEIC LTDA      000475208000167PROESTE OURINHOS COM. DE VEICULOS       AV. LUIZ S. RODRIGUES ,2751             OURINHOS                                19908095SP33608000030102480824720       13012012800UNIBANCO S/A        2502201200000000002248199CC                                                                                                                                                                                                                                                                                                                                                                                                         000013
1007421045766COBR_CAUC_BIC  EVER ELETRIC A IND E COM VEIC LTDA      003468241000158SIRVEL SIRCILLI VEICULOS LTDA           AV. PROF. IGNACIO DE A. MELLO,1190      SAO PAULO                               03154000SP33609000010105477423094       15122011007PAULISTA            1402201200000000001761280CC                                                                                                                                                                                                                                                                                                                                                                                                         000014
1007421045766COBR_CAUC_BIC  EVER ELETRIC A IND E COM VEIC LTDA      003468241000158SIRVEL SIRCILLI VEICULOS LTDA           AV. PROF. IGNACIO DE A. MELLO,1190      SAO PAULO                               03154000SP33609000020105478223122       15122011007PAULISTA            1304201200000000001864480CC                                                                                                                                                                                                                                                                                                                                                                                                         000015
1007421045766COBR_CAUC_BIC  EVER ELETRIC A IND E COM VEIC LTDA      003468241000158SIRVEL SIRCILLI VEICULOS LTDA           AV. PROF. IGNACIO DE A. MELLO,1190      SAO PAULO                               03154000SP33609000030102479424532       13012012007PAULISTA            2502201200000000004498200CC                                                                                                                                                                                                                                                                                                                                                                                                         000016
1007421045766COBR_CAUC_BIC  EVER ELETRIC A IND E COM VEIC LTDA      003468241000158SIRVEL SIRCILLI VEICULOS LTDA           AV. PROF. IGNACIO DE A. MELLO,1190      SAO PAULO                               03154000SP33609000040102478624536       13012012007PAULISTA            2502201200000000004498200CC                                                                                                                                                                                                                                                                                                                                                                                                         000017
1007421045766COBR_CAUC_BIC  EVER ELETRIC A IND E COM VEIC LTDA      003130993000295BORBOREMA & FERNANDES VEICULOS          AV. DOS AUTONOMISTAS,4861               OSASCO                                  06194050SP33610000010102491322212       13012012007PAULISTA            2502201200000000002288825CC                                                                                                                                                                                                                                                                                                                                                                                                         000018
1007421045766COBR_CAUC_BIC  EVER ELETRIC A IND E COM VEIC LTDA      003130993000295BORBOREMA & FERNANDES VEICULOS          AV. DOS AUTONOMISTAS,4861               OSASCO                                  06194050SP33610000020102474322213       13012012007PAULISTA            2502201200000000002288825CC                                                                                                                                                                                                                                                                                                                                                                                                         000019
1007421045766COBR_CAUC_BIC  EVER ELETRIC A IND E COM VEIC LTDA      003130993000295BORBOREMA & FERNANDES VEICULOS          AV. DOS AUTONOMISTAS,4861               OSASCO                                  06194050SP33610000030102490522214       13012012007PAULISTA            2502201200000000002288825CC                                                                                                                                                                                                                                                                                                                                                                                                         000020
1007421045766COBR_CAUC_BIC  EVER ELETRIC A IND E COM VEIC LTDA      003130993000295BORBOREMA & FERNANDES VEICULOS          AV. DOS AUTONOMISTAS,4861               OSASCO                                  06194050SP33610000040102489122215       13012012007PAULISTA            2502201200000000002288825CC                                                                                                                                                                                                                                                                                                                                                                                                         000021
1007421045766COBR_CAUC_BIC  EVER ELETRIC A IND E COM VEIC LTDA      003130993000295BORBOREMA & FERNANDES VEICULOS          AV. DOS AUTONOMISTAS,4861               OSASCO                                  06194050SP33610000050102488322216       13012012007PAULISTA            2502201200000000002288825CC                                                                                                                                                                                                                                                                                                                                                                                                         000022
1007421045766COBR_CAUC_BIC  EVER ELETRIC A IND E COM VEIC LTDA      003130993000295BORBOREMA & FERNANDES VEICULOS          AV. DOS AUTONOMISTAS,4861               OSASCO                                  06194050SP33610000060102487522217       13012012007PAULISTA            2502201200000000002288825CC                                                                                                                                                                                                                                                                                                                                                                                                         000023
1007421045766COBR_CAUC_BIC  EVER ELETRIC A IND E COM VEIC LTDA      003130993000295BORBOREMA & FERNANDES VEICULOS          AV. DOS AUTONOMISTAS,4861               OSASCO                                  06194050SP33610000070102486722218       13012012007PAULISTA            2502201200000000002288855CC                                                                                                                                                                                                                                                                                                                                                                                                         000024
1007421045766COBR_CAUC_BIC  EVER ELETRIC A IND E COM VEIC LTDA      003130993000295BORBOREMA & FERNANDES VEICULOS          AV. DOS AUTONOMISTAS,4861               OSASCO                                  06194050SP33610000080102485922219       13012012007PAULISTA            2502201200000000002288855CC                                                                                                                                                                                                                                                                                                                                                                                                         000025
1007421045766COBR_CAUC_BIC  EVER ELETRIC A IND E COM VEIC LTDA      003130993000295BORBOREMA & FERNANDES VEICULOS          AV. DOS AUTONOMISTAS,4861               OSASCO                                  06194050SP33610000090102484122220       13012012007PAULISTA            2502201200000000002288825CC                                                                                                                                                                                                                                                                                                                                                                                                         000026
1007421045766COBR_CAUC_BIC  EVER ELETRIC A IND E COM VEIC LTDA      010771057000148LEVE MOTORS LTDA-ME                     AV. PRIMEIRA AVENIDA,S/N                AP. DE GOIANIA                          74935900GO33611000010105485524432       16122011018GOIANIA             2203201200000000001912175CC                                                                                                                                                                                                                                                                                                                                                                                                         000027
1007421045766COBR_CAUC_BIC  EVER ELETRIC A IND E COM VEIC LTDA      010655382000650VIA ROMA AUTOMOVEIS LTDA                AVENIDA 31 DE MARCO, 228                VOTORANTIM                              18110005SP3361200001009936450129031/02  15122011007PAULISTA            1403201200000000001912177CC                                                                                                                                                                                                                                                                                                                                                                                                         000028
1007421045766COBR_CAUC_BIC  EVER ELETRIC A IND E COM VEIC LTDA      005241520000100AVENIDA 971 AUTOMOVEIS LTDA ME          R. HERNANI DO A. PEIXOTO,971            NITEROI                                 24020073RJ33613000010105487125780       29122011014RIO DE JANEIRO      2802201200000000002203236CC                                                                                                                                                                                                                                                                                                                                                                                                         000029
1007421045766COBR_CAUC_BIC  EVER ELETRIC A IND E COM VEIC LTDA      003972822000203MEDEIROS & SULLATO COMERCIO DE VEI      AV. SAO MIGUEL,4049                     SAO PAULO                               03871000SP33614000010105475825734       19122011007PAULISTA            1704201200000000002203236CC                                                                                                                                                                                                                                                                                                                                                                                                         000030
1007421045766COBR_CAUC_BIC  EVER ELETRIC A IND E COM VEIC LTDA      001913794000147NCA COMERCIO DE VEICULOS LTDA           AV. GUARULHOS,1971                      GUARULHOS                               07025000SP33615000010105476625816       29122011037GUARULHOS           1702201200000000002203236CC                                                                                                                                                                                                                                                                                                                                                                                                         000031
1007421045766COBR_CAUC_COR  EVER ELETRIC A IND E COM VEIC LTDA      008822313000137LIBERO DAL PONT  LTDA.                  AV. JUSCELINO KUBITSCHEK,2160           FOZ DO IGUACU                           85851210PR33616000010105484724405       15122011800UNIBANCO S/A        1304201200000000002248199CC                                                                                                                                                                                                                                                                                                                                                                                                         000032
1007421045766COBR_CAUC_BIC  EVER ELETRIC A IND E COM VEIC LTDA      009290751000245EMIDIO MOTORS LTDA - EPP                AVENIDA DAS AMOREIRAS , 3419            CAMPINAS                                13050035SP3361700001009936110128875/02  15122011021CAMPINAS            1403201200000000002381400CC                                                                                                                                                                                                                                                                                                                                                                                                         000033
1007421045766COBR_CAUC_COR  EVER ELETRIC A IND E COM VEIC LTDA      097531125000180FLORIPA COMERCIO DE VEICULOS LTDA.      R. GENERAL L. BITTENCOURT,1518          FLORIANOPOLIS                           88075400RJ33618000010105492821992       08122011900BRADESCO S/A        1603201200000000002450300CC                                                                                                                                                                                                                                                                                                                                                                                                         000034
1007421045766COBR_CAUC_BIC  EVER ELETRIC A IND E COM VEIC LTDA      011134510000178AUTO MAIS AUTOMOVEIS LTDA               AVENIDA GEREMARIO DANTAS, 444,  LT 08 PARIO DE JANEIRO                          22740010RJ3361900001009935640128951/02  15122011014RIO DE JANEIRO      1403201200000000001874123CC                                                                                                                                                                                                                                                                                                                                                                                                         000035
1007421045766COBR_CAUC_BIC  EVER ELETRIC A IND E COM VEIC LTDA      011134510000178AUTO MAIS AUTOMOVEIS LTDA               AVENIDA GEREMARIO DANTAS, 444,  LT 08 PARIO DE JANEIRO                          22740010RJ33619000020105474025169       26122001014RIO DE JANEIRO      2503201200000000002248199CC                                                                                                                                                                                                                                                                                                                                                                                                         000036
1007421045766COBR_CAUC_BIC  EVER ELETRIC A IND E COM VEIC LTDA      001993436000949SOLAR COMERCIAL DE VEICULOS LTDA        AV. QUATORZE DE DEZEMBRO,2890           JUNDIAI                                 13206105SP33620000010105479122139       12122011007PAULISTA            1102201200000000001912100CC                                                                                                                                                                                                                                                                                                                                                                                                         000037
1007421045766COBR_CAUC_BIC  EVER ELETRIC A IND E COM VEIC LTDA      001993436000949SOLAR COMERCIAL DE VEICULOS LTDA        AV. QUATORZE DE DEZEMBRO,2890           JUNDIAI                                 13206105SP33620000020105480422140       12122011007PAULISTA            1102201200000000001912100CC                                                                                                                                                                                                                                                                                                                                                                                                         000038
1007421045766COBR_CAUC_BIC  EVER ELETRIC A IND E COM VEIC LTDA      001993436000949SOLAR COMERCIAL DE VEICULOS LTDA        AV. QUATORZE DE DEZEMBRO,2890           JUNDIAI                                 13206105SP33620000030105481222141       12122011007PAULISTA            1102201200000000001912100CC                                                                                                                                                                                                                                                                                                                                                                                                         000039
1007421045766COBR_CAUC_BIC  EVER ELETRIC A IND E COM VEIC LTDA      014449697000197MILLENIUM COMERCIO DE VEICULOS LTD      AVENIDA MENDONCA FURTADO, 3341          SANTAREM                                68040050PA3362100001009935720128992/02  15122011050BELEM               1403201200000000001912177CC                                                                                                                                                                                                                                                                                                                                                                                                         000040
1007421045766COBR_CAUC_BIC  EVER ELETRIC A IND E COM VEIC LTDA      014449697000197MILLENIUM COMERCIO DE VEICULOS LTD      AVENIDA MENDONCA FURTADO, 3341          SANTAREM                                68040050PA3362100002009935810128995/02  15122011050BELEM               1403201200000000001912177CC                                                                                                                                                                                                                                                                                                                                                                                                         000041
1007421045766COBR_CAUC_BIC  EVER ELETRIC A IND E COM VEIC LTDA      014449697000197MILLENIUM COMERCIO DE VEICULOS LTD      AVENIDA MENDONCA FURTADO, 3341          SANTAREM                                68040050PA3362100003009935990128999/02  15122011050BELEM               1403201200000000001912177CC                                                                                                                                                                                                                                                                                                                                                                                                         000042
1007421045766COBR_CAUC_COR  EVER ELETRIC A IND E COM VEIC LTDA      008752869000102FREE LANCE AUTO CENTER LTDA             QUADRA 812 SUL ALAMED,S/N-LOTE 22A      PALMAS                                  77023120TO33622000010105493624583       16122011800UNIBANCO S/A        2604201200000000002248200CC                                                                                                                                                                                                                                                                                                                                                                                                         000043
1007421045766COBR_CAUC_COR  EVER ELETRIC A IND E COM VEIC LTDA      008752869000102FREE LANCE AUTO CENTER LTDA             QUADRA 812 SUL ALAMED,S/N-LOTE 22A      PALMAS                                  77023120TO33622000020105494424611       16122011800UNIBANCO S/A        2604201200000000002248200CC                                                                                                                                                                                                                                                                                                                                                                                                         000044
1007421045766COBR_CAUC_COR  EVER ELETRIC A IND E COM VEIC LTDA      008752869000102FREE LANCE AUTO CENTER LTDA             QUADRA 812 SUL ALAMED,S/N-LOTE 22A      PALMAS                                  77023120TO33622000030105495224631       16122011800UNIBANCO S/A        2604201200000000002248200CC                                                                                                                                                                                                                                                                                                                                                                                                         000045
1007421045766COBR_CAUC_BIC  EVER ELETRIC A IND E COM VEIC LTDA      012576046000132VIA ASIA COMERCIO DE VEICULOS LTDA      RUA PLATINA,34                          RIBEIRAO PRETO                          14020730SP33623000010105482121616       26112011022RIBEIRAO PRETO      1402201200000000002287563CC                                                                                                                                                                                                                                                                                                                                                                                                         000046
1007421045766COBR_CAUC_BIC  EVER ELETRIC A IND E COM VEIC LTDA      012576046000132VIA ASIA COMERCIO DE VEICULOS LTDA      RUA PLATINA,34                          RIBEIRAO PRETO                          14020730SP33623000020105483921618       26112011022RIBEIRAO PRETO      1402201200000000002287563CC                                                                                                                                                                                                                                                                                                                                                                                                         000047
1007421045766COBR_CAUC_BIC  EVER ELETRIC A IND E COM VEIC LTDA      012576046000132VIA ASIA COMERCIO DE VEICULOS LTDA      RUA PLATINA,34                          RIBEIRAO PRETO                          14020730SP33623000030105499521619       26112011022RIBEIRAO PRETO      1402201200000000002287563CC                                                                                                                                                                                                                                                                                                                                                                                                         000048
1007421045766COBR_CAUC_BIC  EVER ELETRIC A IND E COM VEIC LTDA      013795424000131RLM COM. DE VEICULOS LTDA               AV.DOS ESTADOS,8000-LOJA 1124           SANTO ANDRE                             09270270SP33624000010102476024485       13012012038ABC                 1503201200000000002289292CC                                                                                                                                                                                                                                                                                                                                                                                                         000049
1007421045766COBR_CAUC_BIC  EVER ELETRIC A IND E COM VEIC LTDA      013795424000131RLM COM. DE VEICULOS LTDA               AV.DOS ESTADOS,8000-LOJA 1124           SANTO ANDRE                             09270270SP33624000020102475124487       13012012038ABC                 1503201200000000002289293CC                                                                                                                                                                                                                                                                                                                                                                                                         000050
1007421045766COBR_CAUC_BIC  EVER ELETRIC A IND E COM VEIC LTDA      013795424000131RLM COM. DE VEICULOS LTDA               AV.DOS ESTADOS,8000-LOJA 1124           SANTO ANDRE                             09270270SP33624000030102492124489       13012012038ABC                 1503201200000000002289293CC                                                                                                                                                                                                                                                                                                                                                                                                         000051
9000023                                                                                                                                                                                                                                                                                                                                                                                                                                                                                                                                                                                                                                                                                                               000052
