0REMESSANOTIFICACAO ELETRONICA        99999999999999BICBANCO                                AV. PAULISTA                            1048      12.ANDAR  BELA VISTA                    SAO PAULO                     01310100SP1121739360CORTINHAL                               COORDENADOR                             14042014                                                                                                                                                                                                                                                                                                                                                                                      000001
1009421012831COBR_CAUC_COR  ASA ALIMENTOS S/A                       009587239000427COOPERATIVA MISTA DOS AVICULT. DO       ESTRADA TERESINA UNIAO ZONA LESTE       TERESINA                                64058305PI4714400001001504900048815     09042014900BRADESCO S/A        3004201400000000010800000CC                                                                                                                                                                                                                                                                                                                                                                                                         000002
1009421012831COBR_CAUC_COR  ASA ALIMENTOS S/A                       000083809899615VALDIR VAGNER FERREIRA E OUTROS         ROD BR 262, SN KM 426                   IGARATINGA                              35695000MG4714500001001505710048864     11042014900BRADESCO S/A        1604201400000000011604470CC                                                                                                                                                                                                                                                                                                                                                                                                         000003
1007421056385COBR_CAUC_COR  TERRA NOVA TRADING S/A                  061733242000189GREENWOOD INDUSTRIA E COMERCIO LTD      RUA PROF. CELIA ASS,127-PAVILHAO C      SAO ROQUE                               18130375SP471460000100001910TI13860PBB  11042014900BRADESCO S/A        2804201400000000015631172CC                                                                                                                                                                                                                                                                                                                                                                                                         000004
1020421002020COBR_CAUC_COR  GRABER SISTEMAS DE SEGURANCA LTDA       010588595000363MEDLEY COMERCIAL E LOGISTICA L          R ESTACIO DE SA, 1490 - JD SANTA GENEBRACAMPINAS                                13080010SP4714700001000163340000007639  09042014900BRADESCO S/A        0105201400000000014914867CC                                                                                                                                                                                                                                                                                                                                                                                                         000005
1021421016526COBR_CAUC_COR  EAM FACTORING FOMENTO MERCANTIL EIR     008419273000500PALMYRA REC NAT EXP COM LTDA            ROD PA 263, VIC CCM, PT REFLOR , S N    BREU BRANCO                             68488000PA471480000106552036000009092   09042014900BRADESCO S/A        0905201400000000011776505CC                                                                                                                                                                                                                                                                                                                                                                                                         000006
1018421015651COBR_CAUC_BIC  CMS PRODUTOS MEDICOS LTDA               076767219000182UNIMED REGIONAL MARINGA - COOPERAT      AV. TIRADENTES, 1008                    MARINGA                                 87013260PR471490000103669690000092641   10042014016CURITIBA            1205201400000000014738000CC                                                                                                                                                                                                                                                                                                                                                                                                         000007
1018421010323COBR_CAUC_BIC  PRODUBON NUTRICAO ANIMAL LTDA           000000794902634SEBASTIAO RIBEIRO FLOR E OUTRO          RUA 7 N354 ED BRITANIA SL101            GOIANIA                                 74023020GO471500000103669576053008/6    14012014018GOIANIA             0608201400000000012800000CC                                                                                                                                                                                                                                                                                                                                                                                                         000008
1007421055095COBR_CAUC_COR  PLASTER IND COM RESINAS PLAS EIRELI     059104513000195AUTOMETAL S/A                           AV FAGUNDES DE OLIVEIRA,1650            DIADEMA                                 09950300SP471510000100019622040469/A    31032014900BRADESCO S/A        1305201400000000010920000CC                                                                                                                                                                                                                                                                                                                                                                                                         000009
9000008                                                                                                                                                                                                                                                                                                                                                                                                                                                                                                                                                                                                                                                                                                               000010
