0REMESSANOTIFICACAO ELETRONICA        99999999999999BICBANCO                                AV. PAULISTA                            1048      12.ANDAR  BELA VISTA                    SAO PAULO                     01310100SP1121739360CORTINHAL                               COORDENADOR                             05112012                                                                                                                                                                                                                                                                                                                                                                                      000001
1003421007502DIR_CREDIT     CONSTRUTORES ASSOCIADOS LTDA            004887055000116CIA DE HAB. DO ESTADO DO PARA - COHAB/PAPASSAGEM GAMA MALCHER 361               PARA                                    66613115PA3854400001                                                                                                                                          481018830           26022008000000517202/2008     26102012000404EXECUCAO DE OBRAS DE URBANIZACAO, SANEAMENTO E HABITACAO DO PROGRAMA DEACELERACAO DO CRESCIMENTO - PAC                                                                                                                                          005303995000183              000002
1008420932455COBR_CAUC_COR  SANTANA TEXTIL S/A                      078876950005300CIA HERING                              RUA HERMANN HERING 1790                 BLUMENAU                                89010900SC386310000100528465090566*     15102012900BRADESCO S/A        1202201300000000010601010CC                                                                                                                                                                                                                                                                                                                                                                                                         000003
1019421004658COBR_CAUC_COR  S/A ESTADO DE MINAS                     003471344000177CAOA MONTADORA DE VEICULOS SA           R11 SN FAZ BARREIRO DO MEIO             ANAPOLIS                                75133590GO3863200001011836361444558-1   31102012900BRADESCO S/A        3011201200000000010221120CC                                                                                                                                                                                                                                                                                                                                                                                                         000004
1019421004658COBR_CAUC_COR  S/A ESTADO DE MINAS                     003657848000186FUNDACAO ASSIS CHATEAUBRIAND            SIG SUL QUADRA 02 340 LOTE 01           BRASILIA                                70610901DF3863300001011836011435767-1   31102012900BRADESCO S/A        1511201200000000013849888CC                                                                                                                                                                                                                                                                                                                                                                                                         000005
1021420930887COBR_CAUC_COR  DEDINI S/A INDUSTRIAS DE BASE           007912062000119USINA LAGUNA - ALCOOL E ACUCAR LTD      ROD MS-476, KM 04, S N ZONA RURAL FESTA BATAIPORA                               79760000MS386340000106358221196013-2-2  01112012900BRADESCO S/A        2011201200000000011000000CC                                                                                                                                                                                                                                                                                                                                                                                                         000006
1007420931444COBR_CAUC_BIC  PLASINCO LTDA                           014197209000100CORDEIRO CABOS ELETRICOS SA             RUA  ILJIMA,1036                        FERRAZ DE VASCO                         08534000SP38635000010153350824024-3     29102012007PAULISTA            2812201200000000016168546CC                                                                                                                                                                                                                                                                                                                                                                                                         000007
1007420931444COBR_CAUC_BIC  PLASINCO LTDA                           014197209000100CORDEIRO CABOS ELETRICOS SA             RUA  ILJIMA,1036                        FERRAZ DE VASCO                         08534000SP38635000020153351624024-2     29102012007PAULISTA            1312201200000000016168546CC                                                                                                                                                                                                                                                                                                                                                                                                         000008
1007420931444COBR_CAUC_BIC  PLASINCO LTDA                           014197209000100CORDEIRO CABOS ELETRICOS SA             RUA  ILJIMA,1036                        FERRAZ DE VASCO                         08534000SP38635000030153352424024-1     29102012007PAULISTA            2811201200000000016168546CC                                                                                                                                                                                                                                                                                                                                                                                                         000009
1007420931444COBR_CAUC_BIC  PLASINCO LTDA                           014197209000100CORDEIRO CABOS ELETRICOS SA             RUA  ILJIMA,1036                        FERRAZ DE VASCO                         08534000SP38635000040153360524024-4     29102012007PAULISTA            1201201300000000016168546CC                                                                                                                                                                                                                                                                                                                                                                                                         000010
1007421035337COBR_CAUC_BIC  COMERCIAL IMP.E EXP.CANTAREIRA LTDA     007047767000115ATAC  ORIZANIA LTDA                     ROD 40 KM 688 CEASA PAV U LOJA 20, 0    CONTAGEM                                32145900MG38636000010153362197648-001   01112012019BELO HORIZONTE      1211201200000000018550000CC                                                                                                                                                                                                                                                                                                                                                                                                         000011
1007421035337COBR_CAUC_BIC  COMERCIAL IMP.E EXP.CANTAREIRA LTDA     007047767000115ATAC  ORIZANIA LTDA                     ROD 40 KM 688 CEASA PAV U LOJA 20, 0    CONTAGEM                                32145900MG38636000020153363097649-001   01112012019BELO HORIZONTE      1211201200000000018550000CC                                                                                                                                                                                                                                                                                                                                                                                                         000012
1047421002243COBR_CAUC_COR  ARGE LTDA                               072456809000133CYBELAR COMERCIO E INDUSTRIA LTDA       ROD. CORNELIO PIRES, KM 78              TIETÒ                                   18530000SP3863700001015462910027415     01112012900BRADESCO S/A        1611201200000000010423632CC                                                                                                                                                                                                                                                                                                                                                                                                         000013
9000008                                                                                                                                                                                                                                                                                                                                                                                                                                                                                                                                                                                                                                                                                                               000014
