0REMESSANOTIFICACAO ELETRONICA        99999999999999BICBANCO                                AV. PAULISTA                            1048      12.ANDAR  BELA VISTA                    SAO PAULO                     01310100SP1121739360CORTINHAL                               COORDENADOR                             10012012                                                                                                                                                                                                                                                                                                                                                                                      000001
1021141012725COBR_CAUC_BIC  MABE BRASIL ELETRODOMESTICOS LTDA       010757237010723NOVA CASA BAHIA S/A                     RODOVIA ANHANGUERA 0, S/N KM52          JUNDIAI                                 13208401SP3323900001062716730000045720  05012012007PAULISTA            2401201200000000011298553TD                                                                                                                                                                                                                                                                                                                                                                                                         000002
1021141012725COBR_CAUC_BIC  MABE BRASIL ELETRODOMESTICOS LTDA       010757237010723NOVA CASA BAHIA S/A                     RODOVIA ANHANGUERA 0, S/N KM52          JUNDIAI                                 13208401SP3323900002062716810000046165  09012012007PAULISTA            2401201200000000010934083TD                                                                                                                                                                                                                                                                                                                                                                                                         000003
1021141012725COBR_CAUC_BIC  MABE BRASIL ELETRODOMESTICOS LTDA       010757237010723NOVA CASA BAHIA S/A                     RODOVIA ANHANGUERA 0, S/N KM52          JUNDIAI                                 13208401SP3323900003062716900000046140  09012012007PAULISTA            2401201200000000010934083TD                                                                                                                                                                                                                                                                                                                                                                                                         000004
1021141012725COBR_CAUC_BIC  MABE BRASIL ELETRODOMESTICOS LTDA       010757237010723NOVA CASA BAHIA S/A                     RODOVIA ANHANGUERA 0, S/N KM52          JUNDIAI                                 13208401SP3323900004062717030000045967  06012012007PAULISTA            2401201200000000010934083TD                                                                                                                                                                                                                                                                                                                                                                                                         000005
1021141012725COBR_CAUC_BIC  MABE BRASIL ELETRODOMESTICOS LTDA       010757237010723NOVA CASA BAHIA S/A                     RODOVIA ANHANGUERA 0, S/N KM52          JUNDIAI                                 13208401SP3323900005062717110000045869  06012012007PAULISTA            2401201200000000010934083TD                                                                                                                                                                                                                                                                                                                                                                                                         000006
1021141012725COBR_CAUC_BIC  MABE BRASIL ELETRODOMESTICOS LTDA       010757237010723NOVA CASA BAHIA S/A                     RODOVIA ANHANGUERA 0, S/N KM52          JUNDIAI                                 13208401SP3323900006062717200000045829  06012012007PAULISTA            2401201200000000010934083TD                                                                                                                                                                                                                                                                                                                                                                                                         000007
1007421012434COBR_CAUC_COR  AMEPLAN ASSIST MEDICA PLANEJADA         011031202000117VIACAO METROPOLITANA LTDA               R. GENARO DE CARVALHO 135 OU 14         SAO PAULO                               04377220SP33240000010002681509456-0112  05012012900BRADESCO S/A        2501201200000000012145268CC                                                                                                                                                                                                                                                                                                                                                                                                         000008
1041421002694COBR_CAUC_COR  MEGA FIOS LTDA                          009665069000109PATRI VINTE E SEIS EMPREENDIMENTOS      R MARIA ALVARES 90 CONJ 7               SAO PAULO                               03077060SP33241000010029714314416 11    06012012900BRADESCO S/A        0602201200000000022868858CC                                                                                                                                                                                                                                                                                                                                                                                                         000009
1041421002694COBR_CAUC_COR  MEGA FIOS LTDA                          009665069000109PATRI VINTE E SEIS EMPREENDIMENTOS      R MARIA ALVARES 90 CONJ 7               SAO PAULO                               03077060SP33241000020029715114416 12    06012012900BRADESCO S/A        0603201200000000022868859CC                                                                                                                                                                                                                                                                                                                                                                                                         000010
9000003                                                                                                                                                                                                                                                                                                                                                                                                                                                                                                                                                                                                                                                                                                               000011
