0REMESSANOTIFICACAO ELETRONICA        99999999999999BICBANCO                                AV. PAULISTA                            1048      12.ANDAR  BELA VISTA                    SAO PAULO                     01310100SP1121739360CORTINHAL                               COORDENADOR                             04112011                                                                                                                                                                                                                                                                                                                                                                                      000001
1006420932613DIR_CREDIT     NIVEL CONSTRUCOES LTDA                  008805453000105MB ENGENHARIA SPE 004 S/A               AV SENADOR VIRGILIO TAVORA 1500-ALDEOTA FORTALEZA                               60170220CE3160700001                                                                                                                                          011637841           301120100000016589S/N         27102011000401GERENCIAR E EXECUTAR AS OBRAS DE CONSTRUÇAO DO EMPREENDIMENTO THE ONE  TOWER SITUADO A AV SENADOR VIRGILIO TAVORA 1500 - ALDEOTA - FORTALEZA (CE), ON-DE A INCORPORAÇÃO É DE INTEIRA RESPONSABILIDADE DE BROOKFIELD INCORP S/A.                 002960450000151              000002
1015421010784DIR_CREDIT     TOP ESTRATEGICA CONSULT EMPRES LTDA     092883834000100DAER - DEPTO AUT ESTRADAS DE RODAGEM    AV. BORGES DE MEDEIROS, 1555 - 17ºANDAR PORTO ALEGRE                            90020020RS3171800001                                                                                                                                          481020720           030719980000009521PJ/TP/230/9831102011000404EXECUÇÃO DOS SERVIÇOS DE TERRAPLENAGEM, DRENAGEM, PAVIMENTAÇÃO ASFÁLTI-CA, OBRAS-DE-ARTE CORRENTES E OBRAS COMPLEMENTARES NA RODOVIA RS/711 - MUNICÍ- PIO MARIANA PIMENTEL (LOTE II), EXTENSÃO 16,807KM.                                        087998159000125              000003
1019421004658COBR_CAUC_COR  S/A ESTADO DE MINAS                     000721183000134CONFEDERACAO NAC DO TRANSPORTE          SASQD1 0 BLOCO J EDIFICIO CNT 13 A      BRASILIA                                70070944DF317270000101133957685613-1    31102011900BRADESCO S/A        0501201200000000021000000CC                                                                                                                                                                                                                                                                                                                                                                                                         000004
1019421004658COBR_CAUC_COR  S/A ESTADO DE MINAS                     000721183000134CONFEDERACAO NAC DO TRANSPORTE          SASQD1 0 BLOCO J EDIFICIO CNT 13 A      BRASILIA                                70070944DF317270000201133965685614-1    31102011900BRADESCO S/A        0502201200000000021000000CC                                                                                                                                                                                                                                                                                                                                                                                                         000005
1019421004658COBR_CAUC_COR  S/A ESTADO DE MINAS                     071027866000134BANCO BONSUCESSO S A                    ALVARENGA PEIXOTO 974 7  ANDAR          BELO HORIZONTE                          30180120MG317280000101133973685623-1    31102011900BRADESCO S/A        1611201100000000020000000CC                                                                                                                                                                                                                                                                                                                                                                                                         000006
1007421006183COBR_CAUC_BIC  NITRIFLEX S/A IND E COMERCIO            061083804001400GATES DO BRASIL INDUSTRIA COMERCIO      RUA DR. RENATO PAES DE BARROS, 1017 - 8OSAO PAULO                               04530001SP317290000100898651001213601   01112011007PAULISTA            1511201100000000023672491CC                                                                                                                                                                                                                                                                                                                                                                                                         000007
1014421017616COBR_CAUC_BIC  GPC QUIMICA S/A                         057001273000178ROYALPLAS IND COM DE PROD QUIM          AV. NOVO BRASIL, 750                    GUARULHOS                               07221010SP3173000001044877050012378     24102011037GUARULHOS           2811201100000000036600000CC                                                                                                                                                                                                                                                                                                                                                                                                         000008
1014421017616COBR_CAUC_BIC  GPC QUIMICA S/A                         081905176000194BERNECK S/A PAINEIS E SERRADOS          RUA VALERIO SOBANIA,500                 ARAUCARIA                               83707125PR3173100001044876240018531     27102011016CURITIBA            2612201100000000011910180CC                                                                                                                                                                                                                                                                                                                                                                                                         000009
1031421007893COBR_CAUC_COR  DIPLOMATA S/A  INDL. E COMERCIAL        009108149000163HAKAN BRAZIL COMERCIAL EXPORTADORA      AV. MAURO RAMOS-SALA 1001, N.1450 1450  FLORIANOPOLIS                           88020302SC3173200001049448690134242-01  01112011800UNIBANCO S/A        1212201100000000011723400CC                                                                                                                                                                                                                                                                                                                                                                                                         000010
1031421007893COBR_CAUC_COR  DIPLOMATA S/A  INDL. E COMERCIAL        009108149000163HAKAN BRAZIL COMERCIAL EXPORTADORA      AV. MAURO RAMOS-SALA 1001, N.1450 1450  FLORIANOPOLIS                           88020302SC3173200002049448770134243-01  01112011800UNIBANCO S/A        1212201100000000011723400CC                                                                                                                                                                                                                                                                                                                                                                                                         000011
1031421007893COBR_CAUC_COR  DIPLOMATA S/A  INDL. E COMERCIAL        009108149000163HAKAN BRAZIL COMERCIAL EXPORTADORA      AV. MAURO RAMOS-SALA 1001, N.1450 1450  FLORIANOPOLIS                           88020302SC3173200003049448850134244-01  01112011800UNIBANCO S/A        1212201100000000011723400CC                                                                                                                                                                                                                                                                                                                                                                                                         000012
1031421007893COBR_CAUC_COR  DIPLOMATA S/A  INDL. E COMERCIAL        009108149000163HAKAN BRAZIL COMERCIAL EXPORTADORA      AV. MAURO RAMOS-SALA 1001, N.1450 1450  FLORIANOPOLIS                           88020302SC3173200004049448930134245-01  01112011800UNIBANCO S/A        1912201100000000011723400CC                                                                                                                                                                                                                                                                                                                                                                                                         000013
1031421007893COBR_CAUC_COR  DIPLOMATA S/A  INDL. E COMERCIAL        009108149000163HAKAN BRAZIL COMERCIAL EXPORTADORA      AV. MAURO RAMOS-SALA 1001, N.1450 1450  FLORIANOPOLIS                           88020302SC3173200005049449070134246-01  01112011800UNIBANCO S/A        1912201100000000011723400CC                                                                                                                                                                                                                                                                                                                                                                                                         000014
1048421000354COBR_CAUC_COR  FRIGOL S.A. EM RECUPERACAO JUDICIAL     009298360000196FUNCHAL COMERCIAL DE ALIMENTOS LTD      RUA SAMPAIO CORREIA, 75                 SAO PAULO                               02710080SP317330000100268631248198-1    02112011900BRADESCO S/A        0711201100000000010152145CC                                                                                                                                                                                                                                                                                                                                                                                                         000015
1048421000354COBR_CAUC_COR  FRIGOL S.A. EM RECUPERACAO JUDICIAL     024896425001594LUIZ TONIN ATACADISTA E SUPERMERCA      AV.CASTELO BRANCO, 717                  RIBEIRAO PRETO                          14095000SP3173400001002713308486        03112011900BRADESCO S/A        2211201100000000010564375CC                                                                                                                                                                                                                                                                                                                                                                                                         000016
1008141001773COBR_CAUC_BIC  UNITY FOUR CORRETORA SEGUROS LTDA       063554067000198HAPVIDA ASS MEDICA LTDA                 AV HERACLITO GRACA 406                  FORTALEZA                               60140061CE31735000010849143957/1/3      31102011003CENTRO              3011201100000000011387375TD                                                                                                                                                                                                                                                                                                                                                                                                         000017
1008141001773COBR_CAUC_BIC  UNITY FOUR CORRETORA SEGUROS LTDA       063554067000198HAPVIDA ASS MEDICA LTDA                 AV HERACLITO GRACA 406                  FORTALEZA                               60140061CE31735000020849144757/2/3      31102011003CENTRO              3012201100000000011387375TD                                                                                                                                                                                                                                                                                                                                                                                                         000018
1008141001773COBR_CAUC_BIC  UNITY FOUR CORRETORA SEGUROS LTDA       063554067000198HAPVIDA ASS MEDICA LTDA                 AV HERACLITO GRACA 406                  FORTALEZA                               60140061CE31735000030849145557/3/3      31102011003CENTRO              3001201200000000011387375TD                                                                                                                                                                                                                                                                                                                                                                                                         000019
1008421022487COBR_CAUC_COR  EBP - EMPRESA BRASILEIRA DE PESCADO     033304981000110SUPERMERCADOS MUNDIAL LTDA              RUA  DONA EMILIA, 2                     RIO DE JANEIRO                          20765110RJ3173600001014336976154/       27102011900BRADESCO S/A        0911201100000000010936800CC                                                                                                                                                                                                                                                                                                                                                                                                         000020
1007441041329DIR_CREDIT     VEGA DISTRIBUIDORA                      046523270000188PM DE MOGI DAS CRUZES                   AVENIDA VEREADOR NARCISO YAGUE GUIMARAESMOGI DAS CRUZES                         08780900SP3174500001                                                                                                                                          011583969           24062008000001275474          01112011000403fornecimento de derivados de petroleo, incluindo sistema eletronico com gerenciamento de abastecimento da frota municipal.                                                                                                                      003906304000100              000021
1018421027960DIR_CREDIT     GARRA CONSTRUCAO PAVIMENTACAO LTDA      002584100000138AGENCIA MUNICIPAL DE OBRAS - AMOB       RUA 21 Q CH LT 02/04,NR 410 V.STA HELENAGOIANIA                                 74555330GO3174600001                                                                                                                                          011631000           150820110000018866008/2011    03112011000403serviços de pavimentação e drenagem de vias urbanas,referente ao LOTE 5                                                                                                                                                                         009082158000122              000022
1018421002096COBR_CAUC_COR  GRAO DOURADO IND. E COM. LTDA           000005048443187GERSON CAVALCANTE RODRIGUES             FAZ. SERRA NEGRA/ROD. GO 413, KM        PIRACANJUBA                             75640000GO31748000010161901608161901    23072011900BRADESCO S/A        2111201100000000000859510CC                                                                                                                                                                                                                                                                                                                                                                                                         000023
1018421002096COBR_CAUC_COR  GRAO DOURADO IND. E COM. LTDA           000071699155100DIONESIA DE OLIVEIRA CRUZ               GRANJA BELFOR                           PIRACANJUBA                             75640000GO31749000010231801008231801    29072011900BRADESCO S/A        2411201100000000000528750CC                                                                                                                                                                                                                                                                                                                                                                                                         000024
1018421002096COBR_CAUC_COR  GRAO DOURADO IND. E COM. LTDA           000071699155100DIONESIA DE OLIVEIRA CRUZ               GRANJA BELFOR                           PIRACANJUBA                             75640000GO31749000020889301607889301    30062011900BRADESCO S/A        1411201100000000000763875CC                                                                                                                                                                                                                                                                                                                                                                                                         000025
1018421002096COBR_CAUC_COR  GRAO DOURADO IND. E COM. LTDA           000039158667687DION CASSIO FRANCA DOS SANTOS           FAZ BOA VISTA                           PIRACANJUBA                             75640000GO31750000010064101809064101    13102011900BRADESCO S/A        3101201200000000000501818CC                                                                                                                                                                                                                                                                                                                                                                                                         000026
1018421002096COBR_CAUC_COR  GRAO DOURADO IND. E COM. LTDA           000039158667687DION CASSIO FRANCA DOS SANTOS           FAZ BOA VISTA                           PIRACANJUBA                             75640000GO31750000020064201409064201    13102011900BRADESCO S/A        3001201200000000000495772CC                                                                                                                                                                                                                                                                                                                                                                                                         000027
1018421002096COBR_CAUC_COR  GRAO DOURADO IND. E COM. LTDA           000039158667687DION CASSIO FRANCA DOS SANTOS           FAZ BOA VISTA                           PIRACANJUBA                             75640000GO31750000030064401709064401    13102011900BRADESCO S/A        3101201200000000000405090CC                                                                                                                                                                                                                                                                                                                                                                                                         000028
1018421002096COBR_CAUC_COR  GRAO DOURADO IND. E COM. LTDA           000039158667687DION CASSIO FRANCA DOS SANTOS           FAZ BOA VISTA                           PIRACANJUBA                             75640000GO31750000040064501309064501    13102011900BRADESCO S/A        3001201200000000000388920CC                                                                                                                                                                                                                                                                                                                                                                                                         000029
1018421002096COBR_CAUC_COR  GRAO DOURADO IND. E COM. LTDA           000039158667687DION CASSIO FRANCA DOS SANTOS           FAZ BOA VISTA                           PIRACANJUBA                             75640000GO31750000050064601009064601    13102011900BRADESCO S/A        3101201200000000000741630CC                                                                                                                                                                                                                                                                                                                                                                                                         000030
1018421002096COBR_CAUC_COR  GRAO DOURADO IND. E COM. LTDA           000039158667687DION CASSIO FRANCA DOS SANTOS           FAZ BOA VISTA                           PIRACANJUBA                             75640000GO31750000060064701609064701    13102011900BRADESCO S/A        3101201200000000000653970CC                                                                                                                                                                                                                                                                                                                                                                                                         000031
1018421002096COBR_CAUC_COR  GRAO DOURADO IND. E COM. LTDA           000039158667687DION CASSIO FRANCA DOS SANTOS           FAZ BOA VISTA                           PIRACANJUBA                             75640000GO31750000070064801209064801    13102011900BRADESCO S/A        3101201200000000000366345CC                                                                                                                                                                                                                                                                                                                                                                                                         000032
1018421002096COBR_CAUC_COR  GRAO DOURADO IND. E COM. LTDA           000039158667687DION CASSIO FRANCA DOS SANTOS           FAZ BOA VISTA                           PIRACANJUBA                             75640000GO31750000080064901909064901    13102011900BRADESCO S/A        3101201200000000000821100CC                                                                                                                                                                                                                                                                                                                                                                                                         000033
1018421002096COBR_CAUC_COR  GRAO DOURADO IND. E COM. LTDA           000039158667687DION CASSIO FRANCA DOS SANTOS           FAZ BOA VISTA                           PIRACANJUBA                             75640000GO31750000090065001709065001    13102011900BRADESCO S/A        0102201200000000000602430CC                                                                                                                                                                                                                                                                                                                                                                                                         000034
1018421002096COBR_CAUC_COR  GRAO DOURADO IND. E COM. LTDA           000039158667687DION CASSIO FRANCA DOS SANTOS           FAZ BOA VISTA                           PIRACANJUBA                             75640000GO31750000100065101309065101    13102011900BRADESCO S/A        0102201200000000000952380CC                                                                                                                                                                                                                                                                                                                                                                                                         000035
1018421002096COBR_CAUC_COR  GRAO DOURADO IND. E COM. LTDA           000039158667687DION CASSIO FRANCA DOS SANTOS           FAZ BOA VISTA                           PIRACANJUBA                             75640000GO31750000110074401109074401    13102011900BRADESCO S/A        0202201200000000000742260CC                                                                                                                                                                                                                                                                                                                                                                                                         000036
1018421002096COBR_CAUC_COR  GRAO DOURADO IND. E COM. LTDA           000039158667687DION CASSIO FRANCA DOS SANTOS           FAZ BOA VISTA                           PIRACANJUBA                             75640000GO31750000120074501809074501    13102011900BRADESCO S/A        0202201200000000000921375CC                                                                                                                                                                                                                                                                                                                                                                                                         000037
1018421002096COBR_CAUC_COR  GRAO DOURADO IND. E COM. LTDA           000039158667687DION CASSIO FRANCA DOS SANTOS           FAZ BOA VISTA                           PIRACANJUBA                             75640000GO31750000130074601409074601    13102011900BRADESCO S/A        0202201200000000000852180CC                                                                                                                                                                                                                                                                                                                                                                                                         000038
1018421002096COBR_CAUC_COR  GRAO DOURADO IND. E COM. LTDA           000039158667687DION CASSIO FRANCA DOS SANTOS           FAZ BOA VISTA                           PIRACANJUBA                             75640000GO31750000140081901109081901    14102011900BRADESCO S/A        0102201200000000000268740CC                                                                                                                                                                                                                                                                                                                                                                                                         000039
1018421002096COBR_CAUC_COR  GRAO DOURADO IND. E COM. LTDA           000039158667687DION CASSIO FRANCA DOS SANTOS           FAZ BOA VISTA                           PIRACANJUBA                             75640000GO31750000150082001009082001    14102011900BRADESCO S/A        0102201200000000000280530CC                                                                                                                                                                                                                                                                                                                                                                                                         000040
1018421002096COBR_CAUC_COR  GRAO DOURADO IND. E COM. LTDA           000039158667687DION CASSIO FRANCA DOS SANTOS           FAZ BOA VISTA                           PIRACANJUBA                             75640000GO31750000160094201809094201    14102011900BRADESCO S/A        0102201200000000000449400CC                                                                                                                                                                                                                                                                                                                                                                                                         000041
1018421002096COBR_CAUC_COR  GRAO DOURADO IND. E COM. LTDA           000045755515115NAZARENO RODRIGUES DA SILVA             RODOVIA GO 413, QUILOMETRO 18           PIRACANJUBA                             75640000GO31751000010358701408358701    09082011900BRADESCO S/A        1111201100000000000631320CC                                                                                                                                                                                                                                                                                                                                                                                                         000042
1018421002096COBR_CAUC_COR  GRAO DOURADO IND. E COM. LTDA           000045755515115NAZARENO RODRIGUES DA SILVA             RODOVIA GO 413, QUILOMETRO 18           PIRACANJUBA                             75640000GO31751000020740901308740901    13092011900BRADESCO S/A        1001201200000000000852075CC                                                                                                                                                                                                                                                                                                                                                                                                         000043
1018421002096COBR_CAUC_COR  GRAO DOURADO IND. E COM. LTDA           000045755515115NAZARENO RODRIGUES DA SILVA             RODOVIA GO 413, QUILOMETRO 18           PIRACANJUBA                             75640000GO31751000030764601508764601    15092011900BRADESCO S/A        1701201200000000000230560CC                                                                                                                                                                                                                                                                                                                                                                                                         000044
1018421002096COBR_CAUC_COR  GRAO DOURADO IND. E COM. LTDA           000045755515115NAZARENO RODRIGUES DA SILVA             RODOVIA GO 413, QUILOMETRO 18           PIRACANJUBA                             75640000GO31751000040786601508786601    16092011900BRADESCO S/A        1701201200000000000258040CC                                                                                                                                                                                                                                                                                                                                                                                                         000045
1018421002096COBR_CAUC_COR  GRAO DOURADO IND. E COM. LTDA           000045755515115NAZARENO RODRIGUES DA SILVA             RODOVIA GO 413, QUILOMETRO 18           PIRACANJUBA                             75640000GO31751000050786701108786701    16092011900BRADESCO S/A        1701201200000000000277393CC                                                                                                                                                                                                                                                                                                                                                                                                         000046
1018421002096COBR_CAUC_COR  GRAO DOURADO IND. E COM. LTDA           000045755515115NAZARENO RODRIGUES DA SILVA             RODOVIA GO 413, QUILOMETRO 18           PIRACANJUBA                             75640000GO31751000060786801808786801    16092011900BRADESCO S/A        1701201200000000000270942CC                                                                                                                                                                                                                                                                                                                                                                                                         000047
1018421002096COBR_CAUC_COR  GRAO DOURADO IND. E COM. LTDA           000045755515115NAZARENO RODRIGUES DA SILVA             RODOVIA GO 413, QUILOMETRO 18           PIRACANJUBA                             75640000GO31751000070829601808829601    21092011900BRADESCO S/A        1801201200000000000326556CC                                                                                                                                                                                                                                                                                                                                                                                                         000048
1018421002096COBR_CAUC_COR  GRAO DOURADO IND. E COM. LTDA           000045755515115NAZARENO RODRIGUES DA SILVA             RODOVIA GO 413, QUILOMETRO 18           PIRACANJUBA                             75640000GO31751000080829701408829701    21092011900BRADESCO S/A        1801201200000000000268170CC                                                                                                                                                                                                                                                                                                                                                                                                         000049
1018421002096COBR_CAUC_COR  GRAO DOURADO IND. E COM. LTDA           000045755515115NAZARENO RODRIGUES DA SILVA             RODOVIA GO 413, QUILOMETRO 18           PIRACANJUBA                             75640000GO31751000090829801108829801    21092011900BRADESCO S/A        1801201200000000000410704CC                                                                                                                                                                                                                                                                                                                                                                                                         000050
1018421002096COBR_CAUC_COR  GRAO DOURADO IND. E COM. LTDA           000045755515115NAZARENO RODRIGUES DA SILVA             RODOVIA GO 413, QUILOMETRO 18           PIRACANJUBA                             75640000GO31751000100829901708829901    21092011900BRADESCO S/A        1801201200000000000385035CC                                                                                                                                                                                                                                                                                                                                                                                                         000051
1018421002096COBR_CAUC_COR  GRAO DOURADO IND. E COM. LTDA           000045755515115NAZARENO RODRIGUES DA SILVA             RODOVIA GO 413, QUILOMETRO 18           PIRACANJUBA                             75640000GO31751000110830001508830001    21092011900BRADESCO S/A        1801201200000000000359366CC                                                                                                                                                                                                                                                                                                                                                                                                         000052
1018421002096COBR_CAUC_COR  GRAO DOURADO IND. E COM. LTDA           000045755515115NAZARENO RODRIGUES DA SILVA             RODOVIA GO 413, QUILOMETRO 18           PIRACANJUBA                             75640000GO31751000120920501608920501    29092011900BRADESCO S/A        2401201200000000000357105CC                                                                                                                                                                                                                                                                                                                                                                                                         000053
1018421002096COBR_CAUC_COR  GRAO DOURADO IND. E COM. LTDA           000045755515115NAZARENO RODRIGUES DA SILVA             RODOVIA GO 413, QUILOMETRO 18           PIRACANJUBA                             75640000GO31751000130920601208920601    29092011900BRADESCO S/A        2401201200000000000273570CC                                                                                                                                                                                                                                                                                                                                                                                                         000054
1018421002096COBR_CAUC_COR  GRAO DOURADO IND. E COM. LTDA           000045755515115NAZARENO RODRIGUES DA SILVA             RODOVIA GO 413, QUILOMETRO 18           PIRACANJUBA                             75640000GO31751000140920701908920701    29092011900BRADESCO S/A        2401201200000000000347760CC                                                                                                                                                                                                                                                                                                                                                                                                         000055
1018421002096COBR_CAUC_COR  GRAO DOURADO IND. E COM. LTDA           000045755515115NAZARENO RODRIGUES DA SILVA             RODOVIA GO 413, QUILOMETRO 18           PIRACANJUBA                             75640000GO31751000150921201208921201    29092011900BRADESCO S/A        2401201200000000000297189CC                                                                                                                                                                                                                                                                                                                                                                                                         000056
1018421002096COBR_CAUC_COR  GRAO DOURADO IND. E COM. LTDA           000045755515115NAZARENO RODRIGUES DA SILVA             RODOVIA GO 413, QUILOMETRO 18           PIRACANJUBA                             75640000GO31751000160929701808929701    30092011900BRADESCO S/A        2601201200000000000479820CC                                                                                                                                                                                                                                                                                                                                                                                                         000057
1018421002096COBR_CAUC_COR  GRAO DOURADO IND. E COM. LTDA           000045755515115NAZARENO RODRIGUES DA SILVA             RODOVIA GO 413, QUILOMETRO 18           PIRACANJUBA                             75640000GO31751000170929801408929801    30092011900BRADESCO S/A        2601201200000000000374280CC                                                                                                                                                                                                                                                                                                                                                                                                         000058
1018421002096COBR_CAUC_COR  GRAO DOURADO IND. E COM. LTDA           000045755515115NAZARENO RODRIGUES DA SILVA             RODOVIA GO 413, QUILOMETRO 18           PIRACANJUBA                             75640000GO31751000180929901108929901    30092011900BRADESCO S/A        2601201200000000000287640CC                                                                                                                                                                                                                                                                                                                                                                                                         000059
1018421002096COBR_CAUC_COR  GRAO DOURADO IND. E COM. LTDA           000045755515115NAZARENO RODRIGUES DA SILVA             RODOVIA GO 413, QUILOMETRO 18           PIRACANJUBA                             75640000GO31751000190930001908930001    30092011900BRADESCO S/A        2601201200000000000448170CC                                                                                                                                                                                                                                                                                                                                                                                                         000060
1018421002096COBR_CAUC_COR  GRAO DOURADO IND. E COM. LTDA           000045755515115NAZARENO RODRIGUES DA SILVA             RODOVIA GO 413, QUILOMETRO 18           PIRACANJUBA                             75640000GO31751000200936501308936501    30092011900BRADESCO S/A        2701201200000000000477485CC                                                                                                                                                                                                                                                                                                                                                                                                         000061
1018421002096COBR_CAUC_COR  GRAO DOURADO IND. E COM. LTDA           000045755515115NAZARENO RODRIGUES DA SILVA             RODOVIA GO 413, QUILOMETRO 18           PIRACANJUBA                             75640000GO31751000210936601008936601    30092011900BRADESCO S/A        2701201200000000000410610CC                                                                                                                                                                                                                                                                                                                                                                                                         000062
1018421002096COBR_CAUC_COR  GRAO DOURADO IND. E COM. LTDA           000045755515115NAZARENO RODRIGUES DA SILVA             RODOVIA GO 413, QUILOMETRO 18           PIRACANJUBA                             75640000GO31751000220936901908936901    30092011900BRADESCO S/A        2601201200000000000386944CC                                                                                                                                                                                                                                                                                                                                                                                                         000063
1018421002096COBR_CAUC_COR  GRAO DOURADO IND. E COM. LTDA           000045755515115NAZARENO RODRIGUES DA SILVA             RODOVIA GO 413, QUILOMETRO 18           PIRACANJUBA                             75640000GO31751000230937001708937001    30092011900BRADESCO S/A        2701201200000000000380898CC                                                                                                                                                                                                                                                                                                                                                                                                         000064
1018421002096COBR_CAUC_COR  GRAO DOURADO IND. E COM. LTDA           000045755515115NAZARENO RODRIGUES DA SILVA             RODOVIA GO 413, QUILOMETRO 18           PIRACANJUBA                             75640000GO31751000240937101308937101    30092011900BRADESCO S/A        2701201200000000000229748CC                                                                                                                                                                                                                                                                                                                                                                                                         000065
1018421002096COBR_CAUC_COR  GRAO DOURADO IND. E COM. LTDA           000045755515115NAZARENO RODRIGUES DA SILVA             RODOVIA GO 413, QUILOMETRO 18           PIRACANJUBA                             75640000GO31751000250969301108969301    04102011900BRADESCO S/A        2701201200000000000333132CC                                                                                                                                                                                                                                                                                                                                                                                                         000066
1018421002096COBR_CAUC_COR  GRAO DOURADO IND. E COM. LTDA           000045755515115NAZARENO RODRIGUES DA SILVA             RODOVIA GO 413, QUILOMETRO 18           PIRACANJUBA                             75640000GO31751000260969401708969401    04102011900BRADESCO S/A        2701201200000000000320068CC                                                                                                                                                                                                                                                                                                                                                                                                         000067
1018421002096COBR_CAUC_COR  GRAO DOURADO IND. E COM. LTDA           000045755515115NAZARENO RODRIGUES DA SILVA             RODOVIA GO 413, QUILOMETRO 18           PIRACANJUBA                             75640000GO31751000270991301108991301    05102011900BRADESCO S/A        2701201200000000000221070CC                                                                                                                                                                                                                                                                                                                                                                                                         000068
1018421002096COBR_CAUC_COR  GRAO DOURADO IND. E COM. LTDA           000030936969172ILVA DIAS DE MELO                       FAZENDA BOA VISTA DO JACARE             PIRACANJUBA                             75640000GO31752000010165401608165401    25072011900BRADESCO S/A        1811201100000000000300780CC                                                                                                                                                                                                                                                                                                                                                                                                         000069
1018421002096COBR_CAUC_COR  GRAO DOURADO IND. E COM. LTDA           000030936969172ILVA DIAS DE MELO                       FAZENDA BOA VISTA DO JACARE             PIRACANJUBA                             75640000GO31752000020165501208165501    25072011900BRADESCO S/A        1811201100000000000624180CC                                                                                                                                                                                                                                                                                                                                                                                                         000070
1018421002096COBR_CAUC_COR  GRAO DOURADO IND. E COM. LTDA           000030936969172ILVA DIAS DE MELO                       FAZENDA BOA VISTA DO JACARE             PIRACANJUBA                             75640000GO31752000030165601908165601    25072011900BRADESCO S/A        2211201100000000001246620CC                                                                                                                                                                                                                                                                                                                                                                                                         000071
1018421002096COBR_CAUC_COR  GRAO DOURADO IND. E COM. LTDA           000030936969172ILVA DIAS DE MELO                       FAZENDA BOA VISTA DO JACARE             PIRACANJUBA                             75640000GO31752000040165701508165701    25072011900BRADESCO S/A        1011201100000000000408475CC                                                                                                                                                                                                                                                                                                                                                                                                         000072
1018421002096COBR_CAUC_COR  GRAO DOURADO IND. E COM. LTDA           000030936969172ILVA DIAS DE MELO                       FAZENDA BOA VISTA DO JACARE             PIRACANJUBA                             75640000GO31752000050174401508174401    26072011900BRADESCO S/A        2311201100000000001142760CC                                                                                                                                                                                                                                                                                                                                                                                                         000073
1018421002096COBR_CAUC_COR  GRAO DOURADO IND. E COM. LTDA           000030936969172ILVA DIAS DE MELO                       FAZENDA BOA VISTA DO JACARE             PIRACANJUBA                             75640000GO31752000060174501108174501    26072011900BRADESCO S/A        2311201100000000000699600CC                                                                                                                                                                                                                                                                                                                                                                                                         000074
1018421002096COBR_CAUC_COR  GRAO DOURADO IND. E COM. LTDA           000030936969172ILVA DIAS DE MELO                       FAZENDA BOA VISTA DO JACARE             PIRACANJUBA                             75640000GO31752000070174601808174601    26072011900BRADESCO S/A        2311201100000000000657720CC                                                                                                                                                                                                                                                                                                                                                                                                         000075
1018421002096COBR_CAUC_COR  GRAO DOURADO IND. E COM. LTDA           000030936969172ILVA DIAS DE MELO                       FAZENDA BOA VISTA DO JACARE             PIRACANJUBA                             75640000GO31752000080432701608432701    16082011900BRADESCO S/A        1611201100000000000662400CC                                                                                                                                                                                                                                                                                                                                                                                                         000076
1018421002096COBR_CAUC_COR  GRAO DOURADO IND. E COM. LTDA           000030936969172ILVA DIAS DE MELO                       FAZENDA BOA VISTA DO JACARE             PIRACANJUBA                             75640000GO31752000090748801108748801    14092011900BRADESCO S/A        1101201200000000000188940CC                                                                                                                                                                                                                                                                                                                                                                                                         000077
1018421002096COBR_CAUC_COR  GRAO DOURADO IND. E COM. LTDA           000030936969172ILVA DIAS DE MELO                       FAZENDA BOA VISTA DO JACARE             PIRACANJUBA                             75640000GO31752000100748901708748901    14092011900BRADESCO S/A        1101201200000000000330300CC                                                                                                                                                                                                                                                                                                                                                                                                         000078
1018421002096COBR_CAUC_COR  GRAO DOURADO IND. E COM. LTDA           000030936969172ILVA DIAS DE MELO                       FAZENDA BOA VISTA DO JACARE             PIRACANJUBA                             75640000GO31752000110751801708751801    14092011900BRADESCO S/A        0901201200000000000404960CC                                                                                                                                                                                                                                                                                                                                                                                                         000079
1018421002096COBR_CAUC_COR  GRAO DOURADO IND. E COM. LTDA           000030936969172ILVA DIAS DE MELO                       FAZENDA BOA VISTA DO JACARE             PIRACANJUBA                             75640000GO31752000120751901308751901    14092011900BRADESCO S/A        1201201200000000000475910CC                                                                                                                                                                                                                                                                                                                                                                                                         000080
1018421002096COBR_CAUC_COR  GRAO DOURADO IND. E COM. LTDA           000030936969172ILVA DIAS DE MELO                       FAZENDA BOA VISTA DO JACARE             PIRACANJUBA                             75640000GO31752000130807401508807401    19092011900BRADESCO S/A        1701201200000000000397200CC                                                                                                                                                                                                                                                                                                                                                                                                         000081
1018421002096COBR_CAUC_COR  GRAO DOURADO IND. E COM. LTDA           000030936969172ILVA DIAS DE MELO                       FAZENDA BOA VISTA DO JACARE             PIRACANJUBA                             75640000GO31752000140813201508813201    20092011900BRADESCO S/A        1601201200000000000359366CC                                                                                                                                                                                                                                                                                                                                                                                                         000082
1018421002096COBR_CAUC_COR  GRAO DOURADO IND. E COM. LTDA           000030936969172ILVA DIAS DE MELO                       FAZENDA BOA VISTA DO JACARE             PIRACANJUBA                             75640000GO31752000150813901008813901    20092011900BRADESCO S/A        1601201200000000000250292CC                                                                                                                                                                                                                                                                                                                                                                                                         000083
1018421002096COBR_CAUC_COR  GRAO DOURADO IND. E COM. LTDA           000030936969172ILVA DIAS DE MELO                       FAZENDA BOA VISTA DO JACARE             PIRACANJUBA                             75640000GO31752000160869101408869101    24092011900BRADESCO S/A        2301201200000000000426411CC                                                                                                                                                                                                                                                                                                                                                                                                         000084
1018421002096COBR_CAUC_COR  GRAO DOURADO IND. E COM. LTDA           000030936969172ILVA DIAS DE MELO                       FAZENDA BOA VISTA DO JACARE             PIRACANJUBA                             75640000GO31752000170869201108869201    26092011900BRADESCO S/A        2301201200000000000324225CC                                                                                                                                                                                                                                                                                                                                                                                                         000085
1018421002096COBR_CAUC_COR  GRAO DOURADO IND. E COM. LTDA           000030936969172ILVA DIAS DE MELO                       FAZENDA BOA VISTA DO JACARE             PIRACANJUBA                             75640000GO31752000180869301708869301    26092011900BRADESCO S/A        2301201200000000000532620CC                                                                                                                                                                                                                                                                                                                                                                                                         000086
1018421002096COBR_CAUC_COR  GRAO DOURADO IND. E COM. LTDA           000030936969172ILVA DIAS DE MELO                       FAZENDA BOA VISTA DO JACARE             PIRACANJUBA                             75640000GO31752000190869401308869401    26092011900BRADESCO S/A        2301201200000000000395604CC                                                                                                                                                                                                                                                                                                                                                                                                         000087
1018421002096COBR_CAUC_COR  GRAO DOURADO IND. E COM. LTDA           000030936969172ILVA DIAS DE MELO                       FAZENDA BOA VISTA DO JACARE             PIRACANJUBA                             75640000GO31752000200869501008869501    26092011900BRADESCO S/A        2301201200000000000428571CC                                                                                                                                                                                                                                                                                                                                                                                                         000088
1018421002096COBR_CAUC_COR  GRAO DOURADO IND. E COM. LTDA           000096651393120WILLIAN MARTINS DUARTE                  ROD GO-147                              PIRACANJUBA                             75640000GO31753000010000762908795101    19092011900BRADESCO S/A        1601201200000000000383280CC                                                                                                                                                                                                                                                                                                                                                                                                         000089
1018421002096COBR_CAUC_COR  GRAO DOURADO IND. E COM. LTDA           000096651393120WILLIAN MARTINS DUARTE                  ROD GO-147                              PIRACANJUBA                             75640000GO31753000020000763708795401    19092011900BRADESCO S/A        1601201200000000000249228CC                                                                                                                                                                                                                                                                                                                                                                                                         000090
1018421002096COBR_CAUC_COR  GRAO DOURADO IND. E COM. LTDA           000096651393120WILLIAN MARTINS DUARTE                  ROD GO-147                              PIRACANJUBA                             75640000GO31753000030000764508795501    19092011900BRADESCO S/A        1601201200000000000069552CC                                                                                                                                                                                                                                                                                                                                                                                                         000091
1018421002096COBR_CAUC_COR  GRAO DOURADO IND. E COM. LTDA           000096651393120WILLIAN MARTINS DUARTE                  ROD GO-147                              PIRACANJUBA                             75640000GO31753000040079901108079901    15072011900BRADESCO S/A        1011201100000000000836735CC                                                                                                                                                                                                                                                                                                                                                                                                         000092
1018421002096COBR_CAUC_COR  GRAO DOURADO IND. E COM. LTDA           000096651393120WILLIAN MARTINS DUARTE                  ROD GO-147                              PIRACANJUBA                             75640000GO31753000050080101508080101    15072011900BRADESCO S/A        1111201100000000000830310CC                                                                                                                                                                                                                                                                                                                                                                                                         000093
1018421002096COBR_CAUC_COR  GRAO DOURADO IND. E COM. LTDA           000096651393120WILLIAN MARTINS DUARTE                  ROD GO-147                              PIRACANJUBA                             75640000GO31753000060095901808095901    16072011900BRADESCO S/A        1411201100000000000903840CC                                                                                                                                                                                                                                                                                                                                                                                                         000094
1018421002096COBR_CAUC_COR  GRAO DOURADO IND. E COM. LTDA           000096651393120WILLIAN MARTINS DUARTE                  ROD GO-147                              PIRACANJUBA                             75640000GO31753000070096001608096001    16072011900BRADESCO S/A        1411201100000000000625050CC                                                                                                                                                                                                                                                                                                                                                                                                         000095
1018421002096COBR_CAUC_COR  GRAO DOURADO IND. E COM. LTDA           000096651393120WILLIAN MARTINS DUARTE                  ROD GO-147                              PIRACANJUBA                             75640000GO31753000080096201908096201    18072011900BRADESCO S/A        0911201100000000000690750CC                                                                                                                                                                                                                                                                                                                                                                                                         000096
1018421002096COBR_CAUC_COR  GRAO DOURADO IND. E COM. LTDA           000096651393120WILLIAN MARTINS DUARTE                  ROD GO-147                              PIRACANJUBA                             75640000GO31753000090096301508096301    18072011900BRADESCO S/A        1111201100000000001189695CC                                                                                                                                                                                                                                                                                                                                                                                                         000097
1018421002096COBR_CAUC_COR  GRAO DOURADO IND. E COM. LTDA           000096651393120WILLIAN MARTINS DUARTE                  ROD GO-147                              PIRACANJUBA                             75640000GO31753000100110401608110401    19072011900BRADESCO S/A        1611201100000000001048500CC                                                                                                                                                                                                                                                                                                                                                                                                         000098
1018421002096COBR_CAUC_COR  GRAO DOURADO IND. E COM. LTDA           000096651393120WILLIAN MARTINS DUARTE                  ROD GO-147                              PIRACANJUBA                             75640000GO31753000110110501208110501    19072011900BRADESCO S/A        1611201100000000001020600CC                                                                                                                                                                                                                                                                                                                                                                                                         000099
1018421002096COBR_CAUC_COR  GRAO DOURADO IND. E COM. LTDA           000096651393120WILLIAN MARTINS DUARTE                  ROD GO-147                              PIRACANJUBA                             75640000GO31753000120120501708120501    20072011900BRADESCO S/A        1711201100000000001504665CC                                                                                                                                                                                                                                                                                                                                                                                                         000100
1018421002096COBR_CAUC_COR  GRAO DOURADO IND. E COM. LTDA           000096651393120WILLIAN MARTINS DUARTE                  ROD GO-147                              PIRACANJUBA                             75640000GO31753000130133501808133501    20072011900BRADESCO S/A        1811201100000000000482085CC                                                                                                                                                                                                                                                                                                                                                                                                         000101
1018421002096COBR_CAUC_COR  GRAO DOURADO IND. E COM. LTDA           000096651393120WILLIAN MARTINS DUARTE                  ROD GO-147                              PIRACANJUBA                             75640000GO31753000140138501508138501    21072011900BRADESCO S/A        1811201100000000000795330CC                                                                                                                                                                                                                                                                                                                                                                                                         000102
1018421002096COBR_CAUC_COR  GRAO DOURADO IND. E COM. LTDA           000096651393120WILLIAN MARTINS DUARTE                  ROD GO-147                              PIRACANJUBA                             75640000GO31753000150160401908160401    22072011900BRADESCO S/A        2111201100000000001452270CC                                                                                                                                                                                                                                                                                                                                                                                                         000103
1018421002096COBR_CAUC_COR  GRAO DOURADO IND. E COM. LTDA           000096651393120WILLIAN MARTINS DUARTE                  ROD GO-147                              PIRACANJUBA                             75640000GO31753000160879601108879601    26092011900BRADESCO S/A        2401201200000000000293940CC                                                                                                                                                                                                                                                                                                                                                                                                         000104
1018421002096COBR_CAUC_COR  GRAO DOURADO IND. E COM. LTDA           000096651393120WILLIAN MARTINS DUARTE                  ROD GO-147                              PIRACANJUBA                             75640000GO31753000170879701708879701    26092011900BRADESCO S/A        2401201200000000000287408CC                                                                                                                                                                                                                                                                                                                                                                                                         000105
1018421002096COBR_CAUC_COR  GRAO DOURADO IND. E COM. LTDA           000096651393120WILLIAN MARTINS DUARTE                  ROD GO-147                              PIRACANJUBA                             75640000GO31753000180879801308879801    26092011900BRADESCO S/A        2401201200000000000300472CC                                                                                                                                                                                                                                                                                                                                                                                                         000106
1018421002096COBR_CAUC_COR  GRAO DOURADO IND. E COM. LTDA           000096651393120WILLIAN MARTINS DUARTE                  ROD GO-147                              PIRACANJUBA                             75640000GO31753000190897901808897901    27092011900BRADESCO S/A        2401201200000000000264488CC                                                                                                                                                                                                                                                                                                                                                                                                         000107
1018421002096COBR_CAUC_COR  GRAO DOURADO IND. E COM. LTDA           000096651393120WILLIAN MARTINS DUARTE                  ROD GO-147                              PIRACANJUBA                             75640000GO31753000200898001608898001    27092011900BRADESCO S/A        2301201200000000000338595CC                                                                                                                                                                                                                                                                                                                                                                                                         000108
1018421002096COBR_CAUC_COR  GRAO DOURADO IND. E COM. LTDA           000096651393120WILLIAN MARTINS DUARTE                  ROD GO-147                              PIRACANJUBA                             75640000GO31753000210898101208898101    27092011900BRADESCO S/A        2301201200000000000316022CC                                                                                                                                                                                                                                                                                                                                                                                                         000109
1018421002096COBR_CAUC_COR  GRAO DOURADO IND. E COM. LTDA           000096651393120WILLIAN MARTINS DUARTE                  ROD GO-147                              PIRACANJUBA                             75640000GO31753000220898201908898201    27092011900BRADESCO S/A        2301201200000000000361168CC                                                                                                                                                                                                                                                                                                                                                                                                         000110
1018421002096COBR_CAUC_COR  GRAO DOURADO IND. E COM. LTDA           000096651393120WILLIAN MARTINS DUARTE                  ROD GO-147                              PIRACANJUBA                             75640000GO31753000230898301508898301    27092011900BRADESCO S/A        2301201200000000000308522CC                                                                                                                                                                                                                                                                                                                                                                                                         000111
1018421002096COBR_CAUC_COR  GRAO DOURADO IND. E COM. LTDA           000096651393120WILLIAN MARTINS DUARTE                  ROD GO-147                              PIRACANJUBA                             75640000GO31753000240898401108898401    27092011900BRADESCO S/A        2401201200000000000300403CC                                                                                                                                                                                                                                                                                                                                                                                                         000112
1018421002096COBR_CAUC_COR  GRAO DOURADO IND. E COM. LTDA           000019178557100ELZA MARIA VIEIRA                       RODOVIA GO 217 KM 02 A ESQUERDA         PIRACANJUBA                             75640000GO31754000010921601808921601    29092011900BRADESCO S/A        2501201200000000000385035CC                                                                                                                                                                                                                                                                                                                                                                                                         000113
1018421002096COBR_CAUC_COR  GRAO DOURADO IND. E COM. LTDA           000019178557100ELZA MARIA VIEIRA                       RODOVIA GO 217 KM 02 A ESQUERDA         PIRACANJUBA                             75640000GO31754000020005901709005901    06102011900BRADESCO S/A        3001201200000000000302300CC                                                                                                                                                                                                                                                                                                                                                                                                         000114
1018421002096COBR_CAUC_COR  GRAO DOURADO IND. E COM. LTDA           000019178557100ELZA MARIA VIEIRA                       RODOVIA GO 217 KM 02 A ESQUERDA         PIRACANJUBA                             75640000GO31754000030006001509006001    06102011900BRADESCO S/A        3001201200000000000308346CC                                                                                                                                                                                                                                                                                                                                                                                                         000115
1018421002096COBR_CAUC_COR  GRAO DOURADO IND. E COM. LTDA           000019178557100ELZA MARIA VIEIRA                       RODOVIA GO 217 KM 02 A ESQUERDA         PIRACANJUBA                             75640000GO31754000040741201408741201    13092011900BRADESCO S/A        1201201200000000000816403CC                                                                                                                                                                                                                                                                                                                                                                                                         000116
1018421002096COBR_CAUC_COR  GRAO DOURADO IND. E COM. LTDA           000019178557100ELZA MARIA VIEIRA                       RODOVIA GO 217 KM 02 A ESQUERDA         PIRACANJUBA                             75640000GO31754000050752001108752001    14092011900BRADESCO S/A        0501201200000000000173620CC                                                                                                                                                                                                                                                                                                                                                                                                         000117
1018421002096COBR_CAUC_COR  GRAO DOURADO IND. E COM. LTDA           000019178557100ELZA MARIA VIEIRA                       RODOVIA GO 217 KM 02 A ESQUERDA         PIRACANJUBA                             75640000GO31754000060764801808764801    15092011900BRADESCO S/A        0601201200000000000259040CC                                                                                                                                                                                                                                                                                                                                                                                                         000118
1018421002096COBR_CAUC_COR  GRAO DOURADO IND. E COM. LTDA           000019178557100ELZA MARIA VIEIRA                       RODOVIA GO 217 KM 02 A ESQUERDA         PIRACANJUBA                             75640000GO31754000070764901408764901    15092011900BRADESCO S/A        0501201200000000000263104CC                                                                                                                                                                                                                                                                                                                                                                                                         000119
1018421002096COBR_CAUC_COR  GRAO DOURADO IND. E COM. LTDA           000019178557100ELZA MARIA VIEIRA                       RODOVIA GO 217 KM 02 A ESQUERDA         PIRACANJUBA                             75640000GO31754000080775001708775001    16092011900BRADESCO S/A        2812201100000000000128715CC                                                                                                                                                                                                                                                                                                                                                                                                         000120
1018421002096COBR_CAUC_COR  GRAO DOURADO IND. E COM. LTDA           000019178557100ELZA MARIA VIEIRA                       RODOVIA GO 217 KM 02 A ESQUERDA         PIRACANJUBA                             75640000GO31754000090775101308775101    16092011900BRADESCO S/A        2812201100000000000244230CC                                                                                                                                                                                                                                                                                                                                                                                                         000121
1018421002096COBR_CAUC_COR  GRAO DOURADO IND. E COM. LTDA           000019178557100ELZA MARIA VIEIRA                       RODOVIA GO 217 KM 02 A ESQUERDA         PIRACANJUBA                             75640000GO31754000100775201008775201    16092011900BRADESCO S/A        2912201100000000000199380CC                                                                                                                                                                                                                                                                                                                                                                                                         000122
1018421002096COBR_CAUC_COR  GRAO DOURADO IND. E COM. LTDA           000019178557100ELZA MARIA VIEIRA                       RODOVIA GO 217 KM 02 A ESQUERDA         PIRACANJUBA                             75640000GO31754000110775401208775401    16092011900BRADESCO S/A        2212201100000000000532048CC                                                                                                                                                                                                                                                                                                                                                                                                         000123
1018421002096COBR_CAUC_COR  GRAO DOURADO IND. E COM. LTDA           000019178557100ELZA MARIA VIEIRA                       RODOVIA GO 217 KM 02 A ESQUERDA         PIRACANJUBA                             75640000GO31754000120787301108787301    16092011900BRADESCO S/A        1701201200000000000282084CC                                                                                                                                                                                                                                                                                                                                                                                                         000124
1018421002096COBR_CAUC_COR  GRAO DOURADO IND. E COM. LTDA           000019178557100ELZA MARIA VIEIRA                       RODOVIA GO 217 KM 02 A ESQUERDA         PIRACANJUBA                             75640000GO31754000130787401808787401    16092011900BRADESCO S/A        1701201200000000000230796CC                                                                                                                                                                                                                                                                                                                                                                                                         000125
1018421002096COBR_CAUC_COR  GRAO DOURADO IND. E COM. LTDA           000019178557100ELZA MARIA VIEIRA                       RODOVIA GO 217 KM 02 A ESQUERDA         PIRACANJUBA                             75640000GO31754000140787501408787501    16092011900BRADESCO S/A        1701201200000000000256440CC                                                                                                                                                                                                                                                                                                                                                                                                         000126
1018421002096COBR_CAUC_COR  GRAO DOURADO IND. E COM. LTDA           000019178557100ELZA MARIA VIEIRA                       RODOVIA GO 217 KM 02 A ESQUERDA         PIRACANJUBA                             75640000GO31754000150813801308813801    20092011900BRADESCO S/A        1701201200000000000268170CC                                                                                                                                                                                                                                                                                                                                                                                                         000127
1018421002096COBR_CAUC_COR  GRAO DOURADO IND. E COM. LTDA           000019178557100ELZA MARIA VIEIRA                       RODOVIA GO 217 KM 02 A ESQUERDA         PIRACANJUBA                             75640000GO31754000160823501908823501    20092011900BRADESCO S/A        1701201200000000000395402CC                                                                                                                                                                                                                                                                                                                                                                                                         000128
1018421002096COBR_CAUC_COR  GRAO DOURADO IND. E COM. LTDA           000019178557100ELZA MARIA VIEIRA                       RODOVIA GO 217 KM 02 A ESQUERDA         PIRACANJUBA                             75640000GO31754000170825101408825101    20092011900BRADESCO S/A        1701201200000000000382438CC                                                                                                                                                                                                                                                                                                                                                                                                         000129
1018421002096COBR_CAUC_COR  GRAO DOURADO IND. E COM. LTDA           000019178557100ELZA MARIA VIEIRA                       RODOVIA GO 217 KM 02 A ESQUERDA         PIRACANJUBA                             75640000GO31754000180825201108825201    20092011900BRADESCO S/A        1701201200000000000220430CC                                                                                                                                                                                                                                                                                                                                                                                                         000130
1018421002096COBR_CAUC_COR  GRAO DOURADO IND. E COM. LTDA           000019178557100ELZA MARIA VIEIRA                       RODOVIA GO 217 KM 02 A ESQUERDA         PIRACANJUBA                             75640000GO31754000190827901608827901    21092011900BRADESCO S/A        1801201200000000000354805CC                                                                                                                                                                                                                                                                                                                                                                                                         000131
1018421002096COBR_CAUC_COR  GRAO DOURADO IND. E COM. LTDA           000019178557100ELZA MARIA VIEIRA                       RODOVIA GO 217 KM 02 A ESQUERDA         PIRACANJUBA                             75640000GO31754000200828001408828001    21092011900BRADESCO S/A        1801201200000000000322550CC                                                                                                                                                                                                                                                                                                                                                                                                         000132
1018421002096COBR_CAUC_COR  GRAO DOURADO IND. E COM. LTDA           000019178557100ELZA MARIA VIEIRA                       RODOVIA GO 217 KM 02 A ESQUERDA         PIRACANJUBA                             75640000GO31754000210829501108829501    21092011900BRADESCO S/A        1801201200000000000081639CC                                                                                                                                                                                                                                                                                                                                                                                                         000133
1018421002096COBR_CAUC_COR  GRAO DOURADO IND. E COM. LTDA           000019178557100ELZA MARIA VIEIRA                       RODOVIA GO 217 KM 02 A ESQUERDA         PIRACANJUBA                             75640000GO31754000220836301708836301    22092011900BRADESCO S/A        1901201200000000000482280CC                                                                                                                                                                                                                                                                                                                                                                                                         000134
1018421002096COBR_CAUC_COR  GRAO DOURADO IND. E COM. LTDA           000019178557100ELZA MARIA VIEIRA                       RODOVIA GO 217 KM 02 A ESQUERDA         PIRACANJUBA                             75640000GO31754000230836401308836401    22092011900BRADESCO S/A        1901201200000000000383280CC                                                                                                                                                                                                                                                                                                                                                                                                         000135
1018421002096COBR_CAUC_COR  GRAO DOURADO IND. E COM. LTDA           000019178557100ELZA MARIA VIEIRA                       RODOVIA GO 217 KM 02 A ESQUERDA         PIRACANJUBA                             75640000GO31754000240836501008836501    22092011900BRADESCO S/A        1901201200000000000451650CC                                                                                                                                                                                                                                                                                                                                                                                                         000136
1018421002096COBR_CAUC_COR  GRAO DOURADO IND. E COM. LTDA           000019178557100ELZA MARIA VIEIRA                       RODOVIA GO 217 KM 02 A ESQUERDA         PIRACANJUBA                             75640000GO31754000250836601608836601    22092011900BRADESCO S/A        1901201200000000000083863CC                                                                                                                                                                                                                                                                                                                                                                                                         000137
1018421002096COBR_CAUC_COR  GRAO DOURADO IND. E COM. LTDA           000019178557100ELZA MARIA VIEIRA                       RODOVIA GO 217 KM 02 A ESQUERDA         PIRACANJUBA                             75640000GO31754000260846901008846901    23092011900BRADESCO S/A        2001201200000000000357150CC                                                                                                                                                                                                                                                                                                                                                                                                         000138
1018421002096COBR_CAUC_COR  GRAO DOURADO IND. E COM. LTDA           000019178557100ELZA MARIA VIEIRA                       RODOVIA GO 217 KM 02 A ESQUERDA         PIRACANJUBA                             75640000GO31754000270847001808847001    23092011900BRADESCO S/A        2001201200000000000447450CC                                                                                                                                                                                                                                                                                                                                                                                                         000139
1018421002096COBR_CAUC_COR  GRAO DOURADO IND. E COM. LTDA           000019178557100ELZA MARIA VIEIRA                       RODOVIA GO 217 KM 02 A ESQUERDA         PIRACANJUBA                             75640000GO31754000280847101408847101    23092011900BRADESCO S/A        2001201200000000000246902CC                                                                                                                                                                                                                                                                                                                                                                                                         000140
1018421002096COBR_CAUC_COR  GRAO DOURADO IND. E COM. LTDA           000019178557100ELZA MARIA VIEIRA                       RODOVIA GO 217 KM 02 A ESQUERDA         PIRACANJUBA                             75640000GO31754000290921301908921301    29092011900BRADESCO S/A        2401201200000000000214836CC                                                                                                                                                                                                                                                                                                                                                                                                         000141
1018421002096COBR_CAUC_COR  GRAO DOURADO IND. E COM. LTDA           000019178557100ELZA MARIA VIEIRA                       RODOVIA GO 217 KM 02 A ESQUERDA         PIRACANJUBA                             75640000GO31754000300921401508921401    29092011900BRADESCO S/A        2501201200000000000410704CC                                                                                                                                                                                                                                                                                                                                                                                                         000142
