0REMESSANOTIFICACAO ELETRONICA        99999999999999BICBANCO                                AV. PAULISTA                            1048      12.ANDAR  BELA VISTA                    SAO PAULO                     01310100SP1121739360CORTINHAL                               COORDENADOR                             10102013                                                                                                                                                                                                                                                                                                                                                                                      000001
1009421012831COBR_CAUC_COR  ASA ALIMENTOS S/A                       007387853000177GRANJA SALOME LTDA                      ROD. BR-262  KM 0                       BOM DESPACHO                            35600000MG4474600001001481180043204     09102013900BRADESCO S/A        0611201300000000013770000CC                                                                                                                                                                                                                                                                                                                                                                                                         000002
1003421010775COBR_CAUC_BIC  NUFARM IND QUIM FARMACEUTICA S/A        008725775000136DIAGRO COMERCIO E REPRESENTACAO LT      AV. DURVAL DE GOES MONTEIRO, 6601-A     MACEIO                                  57060972AL447450000104313257 003618601  30082013017MACEIO              2701201400000000010210000CC                                                                                                                                                                                                                                                                                                                                                                                                         000003
1003421010775COBR_CAUC_BIC  NUFARM IND QUIM FARMACEUTICA S/A        008725775000136DIAGRO COMERCIO E REPRESENTACAO LT      AV. DURVAL DE GOES MONTEIRO, 6601-A     MACEIO                                  57060972AL447450000204313265 003645101  06092013017MACEIO              0302201400000000010210000CC                                                                                                                                                                                                                                                                                                                                                                                                         000004
9000002                                                                                                                                                                                                                                                                                                                                                                                                                                                                                                                                                                                                                                                                                                               000005
