0REMESSANOTIFICACAO ELETRONICA        99999999999999BICBANCO                                AV. PAULISTA                            1048      12.ANDAR  BELA VISTA                    SAO PAULO                     01310100SP1121739360CORTINHAL                               COORDENADOR                             29122011                                                                                                                                                                                                                                                                                                                                                                                      000001
1031421007893COBR_CAUC_COR  DIPLOMATA S/A  INDL. E COMERCIAL        005907238000119ICEPORT  TERM FRIGORÍFICO DE NAVEG      RUA ANIBAL GAYA 707                     NAVEGANTES                              88375000SC3280600001049581340142178-01  22122011800UNIBANCO S/A        1301201200000000017616987CC                                                                                                                                                                                                                                                                                                                                                                                                         000002
1007421049451COBR_CAUC_COR  RIGOR ALIMENTOS LTDA                    009397586000144SERRANO DISTRIBUIDORA LTDA              AV. EUDES SCHERRER DE SOUZA, 2001       SERRA                                   29167080ES32842000010006413011 0126942  06122011900BRADESCO S/A        0301201200000000001360000CC                                                                                                                                                                                                                                                                                                                                                                                                         000003
1007421049451COBR_CAUC_COR  RIGOR ALIMENTOS LTDA                    009397586000144SERRANO DISTRIBUIDORA LTDA              AV. EUDES SCHERRER DE SOUZA, 2001       SERRA                                   29167080ES32842000020006414811 0126943  06122011900BRADESCO S/A        1001201200000000001360000CC                                                                                                                                                                                                                                                                                                                                                                                                         000004
1007421049451COBR_CAUC_COR  RIGOR ALIMENTOS LTDA                    077883320000757SUPERMERCADO SUPERPAO LTDA              RUA SANTA CATARINA, 880                 IVAIPORA                                86870000PR3284300001000658454  129248   15122011900BRADESCO S/A        0501201200000000000250000CC                                                                                                                                                                                                                                                                                                                                                                                                         000005
1007421049451COBR_CAUC_COR  RIGOR ALIMENTOS LTDA                    077883320000757SUPERMERCADO SUPERPAO LTDA              RUA SANTA CATARINA, 880                 IVAIPORA                                86870000PR3284300002000658534  129249   15122011900BRADESCO S/A        0501201200000000000250000CC                                                                                                                                                                                                                                                                                                                                                                                                         000006
1007421049451COBR_CAUC_COR  RIGOR ALIMENTOS LTDA                    077883320000757SUPERMERCADO SUPERPAO LTDA              RUA SANTA CATARINA, 880                 IVAIPORA                                86870000PR3284300003000658614  129250   15122011900BRADESCO S/A        0501201200000000000800000CC                                                                                                                                                                                                                                                                                                                                                                                                         000007
1007421049451COBR_CAUC_COR  RIGOR ALIMENTOS LTDA                    077883320000757SUPERMERCADO SUPERPAO LTDA              RUA SANTA CATARINA, 880                 IVAIPORA                                86870000PR3284300004000658704  129251   15122011900BRADESCO S/A        0501201200000000000560000CC                                                                                                                                                                                                                                                                                                                                                                                                         000008
1007421049451COBR_CAUC_COR  RIGOR ALIMENTOS LTDA                    077883320000757SUPERMERCADO SUPERPAO LTDA              RUA SANTA CATARINA, 880                 IVAIPORA                                86870000PR3284300005000658884  129252   15122011900BRADESCO S/A        0501201200000000000560000CC                                                                                                                                                                                                                                                                                                                                                                                                         000009
1007421049451COBR_CAUC_COR  RIGOR ALIMENTOS LTDA                    077883320000757SUPERMERCADO SUPERPAO LTDA              RUA SANTA CATARINA, 880                 IVAIPORA                                86870000PR3284300006000658964  129253   15122011900BRADESCO S/A        0501201200000000000600000CC                                                                                                                                                                                                                                                                                                                                                                                                         000010
1007421049451COBR_CAUC_COR  RIGOR ALIMENTOS LTDA                    007170943001850BARCELONA COM VAREJ ATAC SA             RODOVIA RAPOSO TAVARES, SN KM 26,5      COTIA                                   06707000SP3284400001000655194  128928   10122011900BRADESCO S/A        1001201200000000000770000CC                                                                                                                                                                                                                                                                                                                                                                                                         000011
1007421049451COBR_CAUC_COR  RIGOR ALIMENTOS LTDA                    007170943001850BARCELONA COM VAREJ ATAC SA             RODOVIA RAPOSO TAVARES, SN KM 26,5      COTIA                                   06707000SP3284400002000655274  128929   10122011900BRADESCO S/A        1001201200000000000525000CC                                                                                                                                                                                                                                                                                                                                                                                                         000012
1007421049451COBR_CAUC_COR  RIGOR ALIMENTOS LTDA                    007170943001850BARCELONA COM VAREJ ATAC SA             RODOVIA RAPOSO TAVARES, SN KM 26,5      COTIA                                   06707000SP3284400003000655354  128930   10122011900BRADESCO S/A        1001201200000000000990000CC                                                                                                                                                                                                                                                                                                                                                                                                         000013
1007421049451COBR_CAUC_COR  RIGOR ALIMENTOS LTDA                    007170943001850BARCELONA COM VAREJ ATAC SA             RODOVIA RAPOSO TAVARES, SN KM 26,5      COTIA                                   06707000SP3284400004000656084  129110   13122011900BRADESCO S/A        1301201200000000000900000CC                                                                                                                                                                                                                                                                                                                                                                                                         000014
1007421049451COBR_CAUC_COR  RIGOR ALIMENTOS LTDA                    006240281000136MAR AZUL DISTRIBUIDORA LTDA             AV. DURVAL DE GOES MONTERO, 6115 E 6107 MACEIO                                  57062280AL3284500001000640598  0514103  02122011900BRADESCO S/A        0101201200000000003600000CC                                                                                                                                                                                                                                                                                                                                                                                                         000015
1007421049451COBR_CAUC_COR  RIGOR ALIMENTOS LTDA                    000923256000170FRIGORIFICO E ACOUGUE DA RESERVA L      RUA NUCLEO COML WALDIR BARRETO, 16 CASA RUY BARBOSA                             46800000BA32846000010006451211 0127351  07122011900BRADESCO S/A        0101201200000000001367760CC                                                                                                                                                                                                                                                                                                                                                                                                         000016
1007421049451COBR_CAUC_COR  RIGOR ALIMENTOS LTDA                    000923256000170FRIGORIFICO E ACOUGUE DA RESERVA L      RUA NUCLEO COML WALDIR BARRETO, 16 CASA RUY BARBOSA                             46800000BA32846000020006452111 0127352  07122011900BRADESCO S/A        0601201200000000001367760CC                                                                                                                                                                                                                                                                                                                                                                                                         000017
1007421049451COBR_CAUC_COR  RIGOR ALIMENTOS LTDA                    000923256000170FRIGORIFICO E ACOUGUE DA RESERVA L      RUA NUCLEO COML WALDIR BARRETO, 16 CASA RUY BARBOSA                             46800000BA32846000030006453911 0127353  07122011900BRADESCO S/A        1101201200000000001367760CC                                                                                                                                                                                                                                                                                                                                                                                                         000018
1007421049451COBR_CAUC_COR  RIGOR ALIMENTOS LTDA                    001928075002062DMA DISTRIBUIDORA SA                    ROD BR 040, 180 KM 531                  BELO HORIZONTE                          30855500MG3284700001000656594  129247   15122011900BRADESCO S/A        1401201200000000005774898CC                                                                                                                                                                                                                                                                                                                                                                                                         000019
1007421049451COBR_CAUC_COR  RIGOR ALIMENTOS LTDA                    093923449000455COOP AGROP E ABASTECIMENTOS DO SUL      AV. RIO DOS SINOS, 1229                 CANOAS                                  92320750RS3284800001000643518  052247   07122011900BRADESCO S/A        0401201200000000007800000CC                                                                                                                                                                                                                                                                                                                                                                                                         000020
1007421049451COBR_CAUC_COR  RIGOR ALIMENTOS LTDA                    017745613000150SUPERMERCADO BAHAMAS LTDA               ROD. BR 040, 780 KM                     JUIZ DE FORA                            36092005MG3284900001000642114  128515   06122011900BRADESCO S/A        0501201200000000008010030CC                                                                                                                                                                                                                                                                                                                                                                                                         000021
1007421049451COBR_CAUC_COR  RIGOR ALIMENTOS LTDA                    083684910000249J BATTIROLA E CIA LTDA                  RUA PLACIDO DE CASTRO, 1020             PASSO FUNDO                             99070100RS32850000010006718011 013440   22122011900BRADESCO S/A        1901201200000000008396640CC                                                                                                                                                                                                                                                                                                                                                                                                         000022
1007421049451COBR_CAUC_COR  RIGOR ALIMENTOS LTDA                    003454838000143DISTRIBUIDORA DE ALIMENTOS SERIDO       AV. FRANCISCO GERMANO, 81               CAICO                                   59300000RN32851000010006544611 0129291  09122011900BRADESCO S/A        0301201200000000003450690CC                                                                                                                                                                                                                                                                                                                                                                                                         000023
1007421049451COBR_CAUC_COR  RIGOR ALIMENTOS LTDA                    003454838000143DISTRIBUIDORA DE ALIMENTOS SERIDO       AV. FRANCISCO GERMANO, 81               CAICO                                   59300000RN32851000020006545411 0129292  09122011900BRADESCO S/A        0801201200000000003450690CC                                                                                                                                                                                                                                                                                                                                                                                                         000024
1007421049451COBR_CAUC_COR  RIGOR ALIMENTOS LTDA                    003454838000143DISTRIBUIDORA DE ALIMENTOS SERIDO       AV. FRANCISCO GERMANO, 81               CAICO                                   59300000RN32851000030006546211 0129293  09122011900BRADESCO S/A        1301201200000000003450690CC                                                                                                                                                                                                                                                                                                                                                                                                         000025
1007421049451COBR_CAUC_COR  RIGOR ALIMENTOS LTDA                    002956500000127DISBRAL DISTR BRASILEIRA DE ALIM L      RUA LUIZ ELOY DE PONTES, 667 1 ANDAR SL JABOATAO GUARAR                         54160594PE3285200001000654714  1288221  09122011900BRADESCO S/A        0301201200000000004700000CC                                                                                                                                                                                                                                                                                                                                                                                                         000026
1007421049451COBR_CAUC_COR  RIGOR ALIMENTOS LTDA                    002956500000127DISBRAL DISTR BRASILEIRA DE ALIM L      RUA LUIZ ELOY DE PONTES, 667 1 ANDAR SL JABOATAO GUARAR                         54160594PE3285200002000654894  1288222  09122011900BRADESCO S/A        0801201200000000004700000CC                                                                                                                                                                                                                                                                                                                                                                                                         000027
1007421049451COBR_CAUC_COR  RIGOR ALIMENTOS LTDA                    002956500000127DISBRAL DISTR BRASILEIRA DE ALIM L      RUA LUIZ ELOY DE PONTES, 667 1 ANDAR SL JABOATAO GUARAR                         54160594PE3285200003000654974  1288223  09122011900BRADESCO S/A        1301201200000000004700000CC                                                                                                                                                                                                                                                                                                                                                                                                         000028
1007421049451COBR_CAUC_COR  RIGOR ALIMENTOS LTDA                    005931384000180IVONE DE CARVALHO COM DE FRIOS LTD      RUA JOSE AUGUSTO ARRUDA BOTELHO, 518    BARIRI                                  17250000SP3285300001000680628  055164   22122011900BRADESCO S/A        1201201200000000001005000CC                                                                                                                                                                                                                                                                                                                                                                                                         000029
1007421049451COBR_CAUC_COR  RIGOR ALIMENTOS LTDA                    010403248000157REAL MADRI COM E DISTR GEN ALIM LT      ROD. AMARAL PEIXOTO, SN KM 9,5 PV T LJ 0SAO GONCALO                             24753560RJ3285400001000690934  130172   26122011900BRADESCO S/A        1601201200000000001140000CC                                                                                                                                                                                                                                                                                                                                                                                                         000030
1007421049451COBR_CAUC_COR  RIGOR ALIMENTOS LTDA                    001418267000166FRANGARIA SAO FRANCISCO LTDA ME         RUA ENEIDA,  80                         SANTO ANDRE                             09131090SP3285500001000655434  128927   10122011900BRADESCO S/A        3112201100000000000671788CC                                                                                                                                                                                                                                                                                                                                                                                                         000031
1007421049451COBR_CAUC_COR  RIGOR ALIMENTOS LTDA                    001418267000166FRANGARIA SAO FRANCISCO LTDA ME         RUA ENEIDA,  80                         SANTO ANDRE                             09131090SP3285500002000675207  144869   22122011900BRADESCO S/A        1201201200000000000484715CC                                                                                                                                                                                                                                                                                                                                                                                                         000032
1007421049451COBR_CAUC_COR  RIGOR ALIMENTOS LTDA                    006732094000250CURVELO ALIMENTOS LTDA                  RUA JOAQUIM FELICIO, 503                CURVELO                                 35790000MG3285600001000643938  0522522  07122011900BRADESCO S/A        0101201200000000000601642CC                                                                                                                                                                                                                                                                                                                                                                                                         000033
1007421049451COBR_CAUC_COR  RIGOR ALIMENTOS LTDA                    006732094000250CURVELO ALIMENTOS LTDA                  RUA JOAQUIM FELICIO, 503                CURVELO                                 35790000MG3285600002000644078  0522523  07122011900BRADESCO S/A        0601201200000000000601643CC                                                                                                                                                                                                                                                                                                                                                                                                         000034
1007421049451COBR_CAUC_COR  RIGOR ALIMENTOS LTDA                    008847954000146REDE FORTEDISTRIBDE PRODALIMLTDA        RUA SANTOS LANSAC TOHA, 3               SAO JOAO DA BOA                         13875060SP3285700001000683998  055147   22122011900BRADESCO S/A        1201201200000000000086400CC                                                                                                                                                                                                                                                                                                                                                                                                         000035
1007421049451COBR_CAUC_COR  RIGOR ALIMENTOS LTDA                    008847954000146REDE FORTEDISTRIBDE PRODALIMLTDA        RUA SANTOS LANSAC TOHA, 3               SAO JOAO DA BOA                         13875060SP3285700002000684028  055148   22122011900BRADESCO S/A        1201201200000000000832000CC                                                                                                                                                                                                                                                                                                                                                                                                         000036
1007421049451COBR_CAUC_COR  RIGOR ALIMENTOS LTDA                    008847954000146REDE FORTEDISTRIBDE PRODALIMLTDA        RUA SANTOS LANSAC TOHA, 3               SAO JOAO DA BOA                         13875060SP3285700003000684118  055149   22122011900BRADESCO S/A        1201201200000000000338400CC                                                                                                                                                                                                                                                                                                                                                                                                         000037
1007421049451COBR_CAUC_COR  RIGOR ALIMENTOS LTDA                    007359966000169SO OFERTAS SUPERMERCADOS LTDA           RUA SILVA JARDIM, 376                   MACAE                                   27910340RJ3285800001000658294  129267   15122011900BRADESCO S/A        0501201200000000001345300CC                                                                                                                                                                                                                                                                                                                                                                                                         000038
1007421049451COBR_CAUC_COR  RIGOR ALIMENTOS LTDA                    059765651000387CORSO E CIA LTDA                        AV. JOAO PINHEIRO, 1100                 POCOS DE CALDAS                         37701387MG3285900001000680118  055140   22122011900BRADESCO S/A        1201201200000000000383413CC                                                                                                                                                                                                                                                                                                                                                                                                         000039
1007421049451COBR_CAUC_COR  RIGOR ALIMENTOS LTDA                    059765651000387CORSO E CIA LTDA                        AV. JOAO PINHEIRO, 1100                 POCOS DE CALDAS                         37701387MG3285900002000680208  055141   22122011900BRADESCO S/A        1201201200000000000150589CC                                                                                                                                                                                                                                                                                                                                                                                                         000040
1007421049451COBR_CAUC_COR  RIGOR ALIMENTOS LTDA                    059765651000387CORSO E CIA LTDA                        AV. JOAO PINHEIRO, 1100                 POCOS DE CALDAS                         37701387MG3285900003000680388  055145   22122011900BRADESCO S/A        1201201200000000000412600CC                                                                                                                                                                                                                                                                                                                                                                                                         000041
1007421049451COBR_CAUC_COR  RIGOR ALIMENTOS LTDA                    059765651000387CORSO E CIA LTDA                        AV. JOAO PINHEIRO, 1100                 POCOS DE CALDAS                         37701387MG3285900004000680468  055146   22122011900BRADESCO S/A        1201201200000000000705000CC                                                                                                                                                                                                                                                                                                                                                                                                         000042
1007421049451COBR_CAUC_COR  RIGOR ALIMENTOS LTDA                    055728778000103NAF COMERCIAL DE ALIMENTOS LTDA         RUA CHIQUINHA GONZAGA, 100              SAO PAULO                               03389050SP3286000001000661757  143429   17122011900BRADESCO S/A        0701201200000000001716000CC                                                                                                                                                                                                                                                                                                                                                                                                         000043
1007421049451COBR_CAUC_COR  RIGOR ALIMENTOS LTDA                    006062706000164NIPPOBRAS COM IND E EXP DE CARNES       ROD DF 230, KM 10                       BRASILIA                                73310970DF32861000010006715511 013430   22122011900BRADESCO S/A        1901201200000000001555000CC                                                                                                                                                                                                                                                                                                                                                                                                         000044
1007421049451COBR_CAUC_COR  RIGOR ALIMENTOS LTDA                    006062706000164NIPPOBRAS COM IND E EXP DE CARNES       ROD DF 230, KM 10                       BRASILIA                                73310970DF32861000020006716311 013431   22122011900BRADESCO S/A        1901201200000000000383040CC                                                                                                                                                                                                                                                                                                                                                                                                         000045
1007421049451COBR_CAUC_COR  RIGOR ALIMENTOS LTDA                    000689663000165GARCIA E RUBENS INDUSTRIA E COM LT      RUA CORONEL FRANCISCO INACIO, 96        SAO PAULO                               04286000SP3286200001000691078  055444   26122011900BRADESCO S/A        2301201200000000001950000CC                                                                                                                                                                                                                                                                                                                                                                                                         000046
1007421049451COBR_CAUC_COR  RIGOR ALIMENTOS LTDA                    095597571000404SUPERMERCADO BELTRAME LTDA              ROD BR 392, 4395                        SANTA MARIA                             97017970RS3286300001000655868  052865   10122011900BRADESCO S/A        3112201100000000002025800CC                                                                                                                                                                                                                                                                                                                                                                                                         000047
1007421049451COBR_CAUC_COR  RIGOR ALIMENTOS LTDA                    058767252000201SUPERMERCADO VERAN LTDA                 RUA CEL CARDOSO SIQUEIRA, 211           MOGI DAS CRUZES                         08715000SP3286400001000652847  140902   08122011900BRADESCO S/A        0501201200000000000300759CC                                                                                                                                                                                                                                                                                                                                                                                                         000048
1007421049451COBR_CAUC_COR  RIGOR ALIMENTOS LTDA                    058767252000201SUPERMERCADO VERAN LTDA                 RUA CEL CARDOSO SIQUEIRA, 211           MOGI DAS CRUZES                         08715000SP3286400002000652927  140905   08122011900BRADESCO S/A        0501201200000000000322420CC                                                                                                                                                                                                                                                                                                                                                                                                         000049
1007421049451COBR_CAUC_COR  RIGOR ALIMENTOS LTDA                    058767252000201SUPERMERCADO VERAN LTDA                 RUA CEL CARDOSO SIQUEIRA, 211           MOGI DAS CRUZES                         08715000SP3286400003000653067  140906   08122011900BRADESCO S/A        0501201200000000000110544CC                                                                                                                                                                                                                                                                                                                                                                                                         000050
1007421049451COBR_CAUC_COR  RIGOR ALIMENTOS LTDA                    058767252000201SUPERMERCADO VERAN LTDA                 RUA CEL CARDOSO SIQUEIRA, 211           MOGI DAS CRUZES                         08715000SP3286400004000653147  140907   08122011900BRADESCO S/A        0501201200000000000581140CC                                                                                                                                                                                                                                                                                                                                                                                                         000051
1007421049451COBR_CAUC_COR  RIGOR ALIMENTOS LTDA                    058767252000201SUPERMERCADO VERAN LTDA                 RUA CEL CARDOSO SIQUEIRA, 211           MOGI DAS CRUZES                         08715000SP3286400005000653227  140908   08122011900BRADESCO S/A        0501201200000000000764400CC                                                                                                                                                                                                                                                                                                                                                                                                         000052
1007421049451COBR_CAUC_COR  RIGOR ALIMENTOS LTDA                    000981411000105SPF DO BRASIL INDUSTRIA E COMERCIO      ROD SP 215 KM 112,5                     DESCALVADO                              13690000SP3286500001000655014  128819   09122011900BRADESCO S/A        0601201200000000002193920CC                                                                                                                                                                                                                                                                                                                                                                                                         000053
1007421049451COBR_CAUC_COR  RIGOR ALIMENTOS LTDA                    009535928000307SUPERMERCADO NUTRI SAM LTDA             RUA FIORAVANTE SICHIERI, 80             SERTAOZINHO                             14170690SP3286600001000691158  055445   26122011900BRADESCO S/A        2301201200000000002284800CC                                                                                                                                                                                                                                                                                                                                                                                                         000054
1007421049451COBR_CAUC_COR  RIGOR ALIMENTOS LTDA                    037020260000139NUTRIZA AGROINDUSTRIAL DE ALIMENTO      ROD. GO 330 KM 01, SN                   PIRES DO RIO                            75200000GO3286700001000656417  142771   15122011900BRADESCO S/A        0501201200000000002430000CC                                                                                                                                                                                                                                                                                                                                                                                                         000055
1007421049451COBR_CAUC_COR  RIGOR ALIMENTOS LTDA                    010538888000174VALENTE RODRIGUES DIST DE ALIMENTO      AV. BRASIL, 19001 PAV44 BOX 31 AO 34    RIO DE JANEIRO                          21530000RJ3286800001000690348  055082   22122011900BRADESCO S/A        1201201200000000000670000CC                                                                                                                                                                                                                                                                                                                                                                                                         000056
1007421049451COBR_CAUC_COR  RIGOR ALIMENTOS LTDA                    065934978000176MILTON SELLANI                          RUA MARIA MENDES,  293                  AMERICO BRASILI                         14820000SP3286900001000680718  055098   22122011900BRADESCO S/A        1901201200000000000673200CC                                                                                                                                                                                                                                                                                                                                                                                                         000057
1007421049451COBR_CAUC_COR  RIGOR ALIMENTOS LTDA                    005165520000178RAINHA DA FIGUEIRA CEREAIS LTDA         ESTRADA VELHA DO PILAR, SN QD 09 LT 07  DUQUE DE CAXIAS                         25230610RJ3287000001000683648  055084   22122011900BRADESCO S/A        1201201200000000000680000CC                                                                                                                                                                                                                                                                                                                                                                                                         000058
1007421049451COBR_CAUC_COR  RIGOR ALIMENTOS LTDA                    010505296000156REDE PLUS SUPERMERCADOS LTDA            AV. RAIMUNDO PEREIRA DE MAGALHAES, 12590SAO PAULO                               02938000SP3287100001000640837  1400362  06122011900BRADESCO S/A        0301201200000000000592655CC                                                                                                                                                                                                                                                                                                                                                                                                         000059
1007421049451COBR_CAUC_COR  RIGOR ALIMENTOS LTDA                    010505296000156REDE PLUS SUPERMERCADOS LTDA            AV. RAIMUNDO PEREIRA DE MAGALHAES, 12590SAO PAULO                               02938000SP3287100002000660607  1427831  15122011900BRADESCO S/A        0501201200000000000050715CC                                                                                                                                                                                                                                                                                                                                                                                                         000060
1007421049451COBR_CAUC_COR  RIGOR ALIMENTOS LTDA                    010505296000156REDE PLUS SUPERMERCADOS LTDA            AV. RAIMUNDO PEREIRA DE MAGALHAES, 12590SAO PAULO                               02938000SP3287100003000660787  1427832  15122011900BRADESCO S/A        1201201200000000000050715CC                                                                                                                                                                                                                                                                                                                                                                                                         000061
1007421049451COBR_CAUC_COR  RIGOR ALIMENTOS LTDA                    001845252000184MERCADO JJJX LTDA                       AV JUSCELINO KUBITSCHEK, 2985           GUARULHOS                               07252000SP3287200001000661917  143434   17122011900BRADESCO S/A        1401201200000000000703250CC                                                                                                                                                                                                                                                                                                                                                                                                         000062
1007421049451COBR_CAUC_COR  RIGOR ALIMENTOS LTDA                    023637077001225P SEVERINI NETTO COMERCIAL LTDA         AV. SILVIO MONTEIRO DOS SANTOS, 180 LOJAPOCOS DE CALDAS                         37704369MG3287300001000690518  055139   22122011900BRADESCO S/A        1201201200000000000705524CC                                                                                                                                                                                                                                                                                                                                                                                                         000063
1007421049451COBR_CAUC_COR  RIGOR ALIMENTOS LTDA                    004071466000139VINICIUS OLISIESKI APRATO E CIA LT      AV. NORBERTO LINCK, 130                 GUAIBA                                  92500000RS3287400001000642374  1285192  06122011900BRADESCO S/A        0301201200000000000183333CC                                                                                                                                                                                                                                                                                                                                                                                                         000064
1007421049451COBR_CAUC_COR  RIGOR ALIMENTOS LTDA                    004071466000139VINICIUS OLISIESKI APRATO E CIA LT      AV. NORBERTO LINCK, 130                 GUAIBA                                  92500000RS3287400002000642454  1285193  06122011900BRADESCO S/A        1001201200000000000183334CC                                                                                                                                                                                                                                                                                                                                                                                                         000065
1007421049451COBR_CAUC_COR  RIGOR ALIMENTOS LTDA                    004071466000139VINICIUS OLISIESKI APRATO E CIA LT      AV. NORBERTO LINCK, 130                 GUAIBA                                  92500000RS3287400003000642614  1285202  06122011900BRADESCO S/A        0301201200000000000183333CC                                                                                                                                                                                                                                                                                                                                                                                                         000066
1007421049451COBR_CAUC_COR  RIGOR ALIMENTOS LTDA                    004071466000139VINICIUS OLISIESKI APRATO E CIA LT      AV. NORBERTO LINCK, 130                 GUAIBA                                  92500000RS3287400004000642704  1285203  06122011900BRADESCO S/A        1001201200000000000183334CC                                                                                                                                                                                                                                                                                                                                                                                                         000067
1007421049451COBR_CAUC_COR  RIGOR ALIMENTOS LTDA                    011616784000101LAURIVAL DE ALMEIDA SUPERMERCADO M      AV. DA SAUDADE, 240                     MIRACATU                                11850000SP3287500001000670917  143736   19122011900BRADESCO S/A        0301201200000000000735800CC                                                                                                                                                                                                                                                                                                                                                                                                         000068
1007421049451COBR_CAUC_COR  RIGOR ALIMENTOS LTDA                    004611340000100NARCISO ALVES COM ALIMENTOS LTDA        ESTR. DO CAMBOATA, 281                  RIO DE JANEIRO                          21665001RJ3287600001000683058  055080   22122011900BRADESCO S/A        1201201200000000000603000CC                                                                                                                                                                                                                                                                                                                                                                                                         000069
1007421049451COBR_CAUC_COR  RIGOR ALIMENTOS LTDA                    004611340000100NARCISO ALVES COM ALIMENTOS LTDA        ESTR. DO CAMBOATA, 281                  RIO DE JANEIRO                          21665001RJ3287600002000683138  055081   22122011900BRADESCO S/A        1201201200000000000144000CC                                                                                                                                                                                                                                                                                                                                                                                                         000070
1007421049451COBR_CAUC_COR  RIGOR ALIMENTOS LTDA                    001424838000175COMERCIAL MIOTTI CUNHA LTDA EPP         AV. CAPITAO CASA, 1070                  S BERNARDO CAMP                         09812000SP3287700001000674577  144875   22122011900BRADESCO S/A        1201201200000000000756800CC                                                                                                                                                                                                                                                                                                                                                                                                         000071
1007421049451COBR_CAUC_COR  RIGOR ALIMENTOS LTDA                    009559961000377SUPERMERCADO MSS LTDA                   RUA EUCLIDES DA CUNHA, 05               SAO PAULO                               05281000SP3287800001000665157  143703   19122011900BRADESCO S/A        0901201200000000000104300CC                                                                                                                                                                                                                                                                                                                                                                                                         000072
1007421049451COBR_CAUC_COR  RIGOR ALIMENTOS LTDA                    009559961000377SUPERMERCADO MSS LTDA                   RUA EUCLIDES DA CUNHA, 05               SAO PAULO                               05281000SP3287800002000665237  143704   19122011900BRADESCO S/A        0901201200000000000054200CC                                                                                                                                                                                                                                                                                                                                                                                                         000073
1007421049451COBR_CAUC_COR  RIGOR ALIMENTOS LTDA                    009559961000377SUPERMERCADO MSS LTDA                   RUA EUCLIDES DA CUNHA, 05               SAO PAULO                               05281000SP3287800003000665407  143707   19122011900BRADESCO S/A        0901201200000000000478500CC                                                                                                                                                                                                                                                                                                                                                                                                         000074
1007421049451COBR_CAUC_COR  RIGOR ALIMENTOS LTDA                    009559961000377SUPERMERCADO MSS LTDA                   RUA EUCLIDES DA CUNHA, 05               SAO PAULO                               05281000SP3287800004000665077  143708   19122011900BRADESCO S/A        0901201200000000000120400CC                                                                                                                                                                                                                                                                                                                                                                                                         000075
1007421049451COBR_CAUC_COR  RIGOR ALIMENTOS LTDA                    012892059000110FRIGONEPI COMERCIAL E REPRESENTACA      R ISNARDE RIBEIRO DIAS, 85              REGISTRO                                11900000SP3287900001000664857  143737   19122011900BRADESCO S/A        1601201200000000000795811CC                                                                                                                                                                                                                                                                                                                                                                                                         000076
1007421049451COBR_CAUC_COR  RIGOR ALIMENTOS LTDA                    027488188000115RONDELLI FILHOS E CIA LTDA              AV. PRES. CASTELO BRANCO, 10            S GABRIEL PALHA                         29780000ES3288000001000656914  129258   15122011900BRADESCO S/A        0501201200000000000777600CC                                                                                                                                                                                                                                                                                                                                                                                                         000077
1007421049451COBR_CAUC_COR  RIGOR ALIMENTOS LTDA                    027488188000115RONDELLI FILHOS E CIA LTDA              AV. PRES. CASTELO BRANCO, 10            S GABRIEL PALHA                         29780000ES3288000002000657054  129259   15122011900BRADESCO S/A        0501201200000000000095760CC                                                                                                                                                                                                                                                                                                                                                                                                         000078
1007421049451COBR_CAUC_COR  RIGOR ALIMENTOS LTDA                    071779813000170SUPERMERCADO X LTDA                     ESTRADA DO SACRAMENTO, 1126             GUARULHOS                               07263000SP3288100001000662057  143435   17122011900BRADESCO S/A        1401201200000000000890072CC                                                                                                                                                                                                                                                                                                                                                                                                         000079
1007421049451COBR_CAUC_COR  RIGOR ALIMENTOS LTDA                    052676350000176SUPERMERCADO ARESTA LTDA                AV  NOSSA SRA DE FATIMA, 430            MONGAGUA                                11730000SP3288200001000669317  143768   19122011900BRADESCO S/A        0901201200000000000902000CC                                                                                                                                                                                                                                                                                                                                                                                                         000080
1007421049451COBR_CAUC_COR  RIGOR ALIMENTOS LTDA                    004173846000184CLEZIO DE FREITAS ME                    RUA DUQUE DE CAXIAS, 133                TUPACIGUARA                             38430000MG3288300001000680978  055158   22122011900BRADESCO S/A        1901201200000000000858995CC                                                                                                                                                                                                                                                                                                                                                                                                         000081
1007421049451COBR_CAUC_COR  RIGOR ALIMENTOS LTDA                    004173846000184CLEZIO DE FREITAS ME                    RUA DUQUE DE CAXIAS, 133                TUPACIGUARA                             38430000MG3288300002000681018  055159   22122011900BRADESCO S/A        1901201200000000000058031CC                                                                                                                                                                                                                                                                                                                                                                                                         000082
1007421049451COBR_CAUC_COR  RIGOR ALIMENTOS LTDA                    007056052000471MINIMERCADO RIBEIRA ANGRA LTDA EPP      RUA PREFEITO JOAO GREGORIO GALINDO, 173 ANGRA DOS REIS                          23900650RJ3288400001000656834  129246   15122011900BRADESCO S/A        0501201200000000000940000CC                                                                                                                                                                                                                                                                                                                                                                                                         000083
1007421049451COBR_CAUC_COR  RIGOR ALIMENTOS LTDA                    005490561000130M A J COMERCIO DE GENEROS ALIM LTD      RUA DR. ANTONIO ALVES, 205 E 215        SAO PEDRO ALDEI                         28940000RJ3288500001000658374  129268   15122011900BRADESCO S/A        0501201200000000000985300CC                                                                                                                                                                                                                                                                                                                                                                                                         000084
1007421049451COBR_CAUC_COR  RIGOR ALIMENTOS LTDA                    007222867000130OESTE BOI ALIMENTOS LTDA EPP            AV DOS VESSONI, 07                      JANDIRA                                 06600040SP3288600001000667877  143698   19122011900BRADESCO S/A        0201201200000000000404200CC                                                                                                                                                                                                                                                                                                                                                                                                         000085
1007421049451COBR_CAUC_COR  RIGOR ALIMENTOS LTDA                    008357595000149SUPERMERCADO PERUIBE LTDA ME            RUA MARILIA, 1241                       PERUIBE                                 11750000SP3288700001000669497  1437461  19122011900BRADESCO S/A        0201201200000000000206335CC                                                                                                                                                                                                                                                                                                                                                                                                         000086
1007421049451COBR_CAUC_COR  RIGOR ALIMENTOS LTDA                    008357595000149SUPERMERCADO PERUIBE LTDA ME            RUA MARILIA, 1241                       PERUIBE                                 11750000SP3288700002000669577  1437462  19122011900BRADESCO S/A        0901201200000000000206335CC                                                                                                                                                                                                                                                                                                                                                                                                         000087
1007421049451COBR_CAUC_COR  RIGOR ALIMENTOS LTDA                    002674033000142SUPERMERCADO KRILL DE ITANHAEM LTD      RUA DOS FUNDADORES, 453                 ITANHAEM                                11740000SP3288800001000665667  143759   19122011900BRADESCO S/A        0901201200000000000420541CC                                                                                                                                                                                                                                                                                                                                                                                                         000088
1007421049451COBR_CAUC_COR  RIGOR ALIMENTOS LTDA                    011772475000112C E SILVA MERCADO ME                    RUA JORGE MIGUEL BAIDA, 243             CAMPINAS                                13054654SP3288900001000687808  055116   22122011900BRADESCO S/A        1201201200000000000424000CC                                                                                                                                                                                                                                                                                                                                                                                                         000089
1007421049451COBR_CAUC_COR  RIGOR ALIMENTOS LTDA                    003746607000707SUPER MAXI SUPERMERCADOS LTDA           RUA SERRA FORMOSA, 671                  UBERLANDIA                              38410374MG3289000001000689418  055150   22122011900BRADESCO S/A        1201201200000000000089926CC                                                                                                                                                                                                                                                                                                                                                                                                         000090
1007421049451COBR_CAUC_COR  RIGOR ALIMENTOS LTDA                    003746607000707SUPER MAXI SUPERMERCADOS LTDA           RUA SERRA FORMOSA, 671                  UBERLANDIA                              38410374MG3289000002000689688  055151   22122011900BRADESCO S/A        1201201200000000000061645CC                                                                                                                                                                                                                                                                                                                                                                                                         000091
1007421049451COBR_CAUC_COR  RIGOR ALIMENTOS LTDA                    003746607000707SUPER MAXI SUPERMERCADOS LTDA           RUA SERRA FORMOSA, 671                  UBERLANDIA                              38410374MG3289000003000689768  055153   22122011900BRADESCO S/A        1201201200000000000136620CC                                                                                                                                                                                                                                                                                                                                                                                                         000092
1007421049451COBR_CAUC_COR  RIGOR ALIMENTOS LTDA                    003746607000707SUPER MAXI SUPERMERCADOS LTDA           RUA SERRA FORMOSA, 671                  UBERLANDIA                              38410374MG3289000004000689848  055155   22122011900BRADESCO S/A        1201201200000000000162444CC                                                                                                                                                                                                                                                                                                                                                                                                         000093
1007421049451COBR_CAUC_COR  RIGOR ALIMENTOS LTDA                    005322299000114PAULO JOSE SALINA E CIA LTDA            AV JOSE ANTONIO MARRONE, 464            IBITINGA                                14940000SP3289100001000688958  055160   22122011900BRADESCO S/A        1201201200000000000454235CC                                                                                                                                                                                                                                                                                                                                                                                                         000094
1007421049451COBR_CAUC_COR  RIGOR ALIMENTOS LTDA                    011033582000129SUPERMERCADO MIRALHA CAMARGO II LT      AV PRESIDENTE VARGAS, 725               ITAPEVI                                 06694000SP3289200001000669657  143694   19122011900BRADESCO S/A        0901201200000000000456600CC                                                                                                                                                                                                                                                                                                                                                                                                         000095
1007421049451COBR_CAUC_COR  RIGOR ALIMENTOS LTDA                    053074514000158MINI MERCADO OSCAR ARAGAO LTDA          RUA GENTIL PEREZ, 2220 E 2230           ITANHAEM                                11740000SP3289300001000666807  143762   19122011900BRADESCO S/A        0901201200000000000460270CC                                                                                                                                                                                                                                                                                                                                                                                                         000096
1007421049451COBR_CAUC_COR  RIGOR ALIMENTOS LTDA                    001703103000180HIPALA HIDROGENACAO E INGREDIENTES      RUA FRANCISCO SANTOS, 80                GUARULHOS                               07250220SP3289400001000690854  130175   26122011900BRADESCO S/A        2501201200000000000462150CC                                                                                                                                                                                                                                                                                                                                                                                                         000097
1007421049451COBR_CAUC_COR  RIGOR ALIMENTOS LTDA                    012671641000157JACKELINE DE FATIMA CORREIA FACIN       RUA PRIMEIRO DE MAIO, 80                ITAJU                                   17260000SP3289500001000681438  055161   22122011900BRADESCO S/A        1201201200000000000469000CC                                                                                                                                                                                                                                                                                                                                                                                                         000098
1007421049451COBR_CAUC_COR  RIGOR ALIMENTOS LTDA                    006781401000102SUPERMERCADO  KRILL PERUIBE LTDA        AV. LUCIANO DE BONA, 2027               PERUIBE                                 11750000SP3289600001000665747  143739   19122011900BRADESCO S/A        0901201200000000000504000CC                                                                                                                                                                                                                                                                                                                                                                                                         000099
1007421049451COBR_CAUC_COR  RIGOR ALIMENTOS LTDA                    051010502000134SUPERMERCADO RONDON LTDA                RUA MARCOS TOQUETAO, 514                ARACATUBA                               16021345SP3289700001000686748  055207   22122011900BRADESCO S/A        1201201200000000000260000CC                                                                                                                                                                                                                                                                                                                                                                                                         000100
1007421049451COBR_CAUC_COR  RIGOR ALIMENTOS LTDA                    051010502000134SUPERMERCADO RONDON LTDA                RUA MARCOS TOQUETAO, 514                ARACATUBA                               16021345SP3289700002000686828  055208   22122011900BRADESCO S/A        1201201200000000000260000CC                                                                                                                                                                                                                                                                                                                                                                                                         000101
1007421049451COBR_CAUC_COR  RIGOR ALIMENTOS LTDA                    061256335000402SUPERMERCADOS PALOMAX LTDA              AV  FRANCISCO VAZ FILHO, 2874           ARARAQUARA                              14811200SP3289800001000688288  055095   22122011900BRADESCO S/A        1201201200000000000142822CC                                                                                                                                                                                                                                                                                                                                                                                                         000102
1007421049451COBR_CAUC_COR  RIGOR ALIMENTOS LTDA                    061256335000402SUPERMERCADOS PALOMAX LTDA              AV  FRANCISCO VAZ FILHO, 2874           ARARAQUARA                              14811200SP3289800002000688368  055099   22122011900BRADESCO S/A        1201201200000000000132300CC                                                                                                                                                                                                                                                                                                                                                                                                         000103
1007421049451COBR_CAUC_COR  RIGOR ALIMENTOS LTDA                    061256335000402SUPERMERCADOS PALOMAX LTDA              AV  FRANCISCO VAZ FILHO, 2874           ARARAQUARA                              14811200SP3289800003000688448  055100   22122011900BRADESCO S/A        1201201200000000000101920CC                                                                                                                                                                                                                                                                                                                                                                                                         000104
1007421049451COBR_CAUC_COR  RIGOR ALIMENTOS LTDA                    061256335000402SUPERMERCADOS PALOMAX LTDA              AV  FRANCISCO VAZ FILHO, 2874           ARARAQUARA                              14811200SP3289800004000688528  055101   22122011900BRADESCO S/A        1201201200000000000144452CC                                                                                                                                                                                                                                                                                                                                                                                                         000105
1007421049451COBR_CAUC_COR  RIGOR ALIMENTOS LTDA                    009525900000127SUPERMERCADO ROSSI NEW LTDA             RUA CARVALHO DE ARAUJO, 12              SAO PAULO                               08412020SP3289900001000661167  142777   15122011900BRADESCO S/A        0501201200000000000528645CC                                                                                                                                                                                                                                                                                                                                                                                                         000106
1007421049451COBR_CAUC_COR  RIGOR ALIMENTOS LTDA                    001215135000137MONTE CARMELO DISTRIB DE FRIOS LTD      AV. SANTA RITA, 99                      MONTE CARMELO                           38500000MG3290000001000683818  055178   22122011900BRADESCO S/A        2101201200000000000553938CC                                                                                                                                                                                                                                                                                                                                                                                                         000107
1007421049451COBR_CAUC_COR  RIGOR ALIMENTOS LTDA                    008055366000170MRIO COM DE COSMETICOS E ALIMENTOS      AV. BRASIL, 12900                       RIO DE JANEIRO                          21012350RJ3290100001000682918  055085   22122011900BRADESCO S/A        1201201200000000000608000CC                                                                                                                                                                                                                                                                                                                                                                                                         000108
1007421049451COBR_CAUC_COR  RIGOR ALIMENTOS LTDA                    057546715000161SUPERMERCADO SAO JUDAS TADEU LTDA       AVENIDA AMERICA DO SUL, 92              SANTO ANDRE                             09270410SP3290200001000677247  144870   22122011900BRADESCO S/A        2101201200000000000612800CC                                                                                                                                                                                                                                                                                                                                                                                                         000109
1007421049451COBR_CAUC_COR  RIGOR ALIMENTOS LTDA                    007537282000100CAMATTA E CAMATTA SUPERMERCADO LTD      RUA ANTONIETA PASQUARELLI PENTEADO, 120 CAJAMAR                                 07760000SP3290300001000669817  143682   19122011900BRADESCO S/A        0901201200000000000636000CC                                                                                                                                                                                                                                                                                                                                                                                                         000110
1007421049451COBR_CAUC_COR  RIGOR ALIMENTOS LTDA                    005234808000157IGUABA COM DE GENEROS ALIMENTICIOS      ROD. AMARAL PEIXOTO, 2289 KM 98         IGUABA GRANDE                           28960000RJ3290400001000658114  129269   15122011900BRADESCO S/A        0501201200000000000651420CC                                                                                                                                                                                                                                                                                                                                                                                                         000111
1007421049451COBR_CAUC_COR  RIGOR ALIMENTOS LTDA                    062077706000109LATICINIOS ARAXA LTDA                   RUA POSSIDONIO ANACIO, 130 E 132        SAO PAULO                               01103030SP3290500001000665827  143714   19122011900BRADESCO S/A        0901201200000000000231000CC                                                                                                                                                                                                                                                                                                                                                                                                         000112
1007421049451COBR_CAUC_COR  RIGOR ALIMENTOS LTDA                    067421644000124JOSE AVELINO DE ANDRADE ME              AV. ROTARY, 257                         DIADEMA                                 09980600SP3290600001000672877  144893   22122011900BRADESCO S/A        0501201200000000000234915CC                                                                                                                                                                                                                                                                                                                                                                                                         000113
1007421049451COBR_CAUC_COR  RIGOR ALIMENTOS LTDA                    009291346000160XBOI COMERCIO DE CARNES LTDA            RUA DR. FELICIO LAURITO, 27 LJ 03       RIBEIRAO PIRES                          09400210SP3290700001000675547  144841   22122011900BRADESCO S/A        1201201200000000000237440CC                                                                                                                                                                                                                                                                                                                                                                                                         000114
1007421049451COBR_CAUC_COR  RIGOR ALIMENTOS LTDA                    056600851000120MINIMERC SAOJUDAS TADEU DE ITANHAE      ESTRADA GENTIL PERES, 457               ITANHAEM                                11740000SP3290800001000666557  143763   19122011900BRADESCO S/A        0901201200000000000238500CC                                                                                                                                                                                                                                                                                                                                                                                                         000115
1007421049451COBR_CAUC_COR  RIGOR ALIMENTOS LTDA                    056128572000105SUPERMERCADO A BAIUCA DO MIGUEL LT      RUA WASHINGTON LUIZ, 714                IPAUSSU                                 18950000SP3290900001000684618  055194   22122011900BRADESCO S/A        1201201200000000000109600CC                                                                                                                                                                                                                                                                                                                                                                                                         000116
1007421049451COBR_CAUC_COR  RIGOR ALIMENTOS LTDA                    056128572000105SUPERMERCADO A BAIUCA DO MIGUEL LT      RUA WASHINGTON LUIZ, 714                IPAUSSU                                 18950000SP3290900002000684708  055195   22122011900BRADESCO S/A        1201201200000000000134980CC                                                                                                                                                                                                                                                                                                                                                                                                         000117
1007421049451COBR_CAUC_COR  RIGOR ALIMENTOS LTDA                    002775652000123SUPERMERCADO SACCHI E GUEDES LTDA       AV. PRIMAVERA, 169                      LUIS ANTONIO                            14210000SP3291000001000688878  055180   22122011900BRADESCO S/A        1201201200000000000252500CC                                                                                                                                                                                                                                                                                                                                                                                                         000118
1007421049451COBR_CAUC_COR  RIGOR ALIMENTOS LTDA                    052852704000196CASA DE CARNES LAFER LTDA EPP           AV PRES. COSTA E SILVA, 1001            OSASCO                                  06253000SP3291100001000662647  143687   19122011900BRADESCO S/A        0201201200000000000258364CC                                                                                                                                                                                                                                                                                                                                                                                                         000119
1007421049451COBR_CAUC_COR  RIGOR ALIMENTOS LTDA                    005937697000145MERCEARIA E CASA DE CARNES DAKACIN      RUA FRANCOIS BUNEL  332                 SAO PAULO                               04193310SP3291200001000664427  143726   19122011900BRADESCO S/A        0201201200000000000263900CC                                                                                                                                                                                                                                                                                                                                                                                                         000120
1007421049451COBR_CAUC_COR  RIGOR ALIMENTOS LTDA                    064599871000407SUPERMERCADO GALASSI LTDA               RUA VINTE E UM, 180                     CAMPINAS                                13012100SP3291300001000686078  055113   22122011900BRADESCO S/A        1201201200000000000130900CC                                                                                                                                                                                                                                                                                                                                                                                                         000121
1007421049451COBR_CAUC_COR  RIGOR ALIMENTOS LTDA                    064599871000407SUPERMERCADO GALASSI LTDA               RUA VINTE E UM, 180                     CAMPINAS                                13012100SP3291300002000686158  055114   22122011900BRADESCO S/A        1201201200000000000052200CC                                                                                                                                                                                                                                                                                                                                                                                                         000122
1007421049451COBR_CAUC_COR  RIGOR ALIMENTOS LTDA                    064599871000407SUPERMERCADO GALASSI LTDA               RUA VINTE E UM, 180                     CAMPINAS                                13012100SP3291300003000686238  055115   22122011900BRADESCO S/A        1201201200000000000089900CC                                                                                                                                                                                                                                                                                                                                                                                                         000123
1007421049451COBR_CAUC_COR  RIGOR ALIMENTOS LTDA                    005244997000149SUPERMERCADO J C SETE BARRAS LTDA       RUA JULIO PRESTES, 1344                 SETE BARRAS                             11910000SP3291400001000669147  143734   19122011900BRADESCO S/A        0901201200000000000174200CC                                                                                                                                                                                                                                                                                                                                                                                                         000124
1007421049451COBR_CAUC_COR  RIGOR ALIMENTOS LTDA                    005244997000149SUPERMERCADO J C SETE BARRAS LTDA       RUA JULIO PRESTES, 1344                 SETE BARRAS                             11910000SP3291400002000669227  143735   19122011900BRADESCO S/A        0901201200000000000104000CC                                                                                                                                                                                                                                                                                                                                                                                                         000125
1007421049451COBR_CAUC_COR  RIGOR ALIMENTOS LTDA                    053938643000147SUPERMERCADO BOA ESPERANCA SERVE L      RUA TENENTE PENHA, 300                  BOA ESPERANCA S                         14930000SP3291500001000687218  055089   22122011900BRADESCO S/A        1201201200000000000291100CC                                                                                                                                                                                                                                                                                                                                                                                                         000126
1007421049451COBR_CAUC_COR  RIGOR ALIMENTOS LTDA                    001562150000151MAMEDE RASOUL SALEM MERCADINHO ME       AV ANTONIO SYLVIO CUNHA BUENO, 435      DIADEMA                                 09970160SP3291600001000676197  144884   22122011900BRADESCO S/A        0501201200000000000295500CC                                                                                                                                                                                                                                                                                                                                                                                                         000127
1007421049451COBR_CAUC_COR  RIGOR ALIMENTOS LTDA                    074226804000140SUPERMERCADO HIGA E FILHOS LTDA         AV. MATEO BEI, 1055                     SAO PAULO                               03949011SP3291700001000677087  144854   22122011900BRADESCO S/A        1201201200000000000312500CC                                                                                                                                                                                                                                                                                                                                                                                                         000128
1007421049451COBR_CAUC_COR  RIGOR ALIMENTOS LTDA                    008480735000171CHEN CASA DE CARNES LTDA ME             RUA DO TANQUE, 365                      DIADEMA                                 09990150SP3291800001000674497  144888   22122011900BRADESCO S/A        0501201200000000000326000CC                                                                                                                                                                                                                                                                                                                                                                                                         000129
1007421049451COBR_CAUC_COR  RIGOR ALIMENTOS LTDA                    003284057000158SUPERMERCADO SEMPRE FACIL LTDA          RUA SAO PAULO, 140                      VINHEDO                                 13280000SP3291900001000685428  055133   22122011900BRADESCO S/A        1201201200000000000050960CC                                                                                                                                                                                                                                                                                                                                                                                                         000130
1007421049451COBR_CAUC_COR  RIGOR ALIMENTOS LTDA                    003284057000158SUPERMERCADO SEMPRE FACIL LTDA          RUA SAO PAULO, 140                      VINHEDO                                 13280000SP3291900002000685518  055134   22122011900BRADESCO S/A        1201201200000000000277340CC                                                                                                                                                                                                                                                                                                                                                                                                         000131
1007421049451COBR_CAUC_COR  RIGOR ALIMENTOS LTDA                    067785931000113MIELE COMERCIAL DE ALIMENTOS LTDA       AV TANCREDO NEVES, 1042                 VARGEM GDE PTA                          06730000SP3292000001000669737  143697   19122011900BRADESCO S/A        0901201200000000000331800CC                                                                                                                                                                                                                                                                                                                                                                                                         000132
1007421049451COBR_CAUC_COR  RIGOR ALIMENTOS LTDA                    007769902000136CENTRAL DE CARNES EGM DE GUARULHOS      RUA CENTENARIO, 37 CASA 01              GUARULHOS                               07270000SP3292100001000661597  143433   17122011900BRADESCO S/A        3112201100000000000343800CC                                                                                                                                                                                                                                                                                                                                                                                                         000133
1007421049451COBR_CAUC_COR  RIGOR ALIMENTOS LTDA                    096283957000161CENTRAL DE CANES TRATO FINO LTDA        RUA MARECHAL DEODORO, 1517              SAO BERNARDO DO                         09710012SP3292200001000677917  144872   22122011900BRADESCO S/A        0501201200000000000385800CC                                                                                                                                                                                                                                                                                                                                                                                                         000134
1007421049451COBR_CAUC_COR  RIGOR ALIMENTOS LTDA                    002263383000116DISTRIBUIDORA DE AVES CAMPIONE LTD      RUA COSTEIRA, 377                       SAO PAULO                               03573010SP3292300001000661677  143431   17122011900BRADESCO S/A        0701201200000000000196000CC                                                                                                                                                                                                                                                                                                                                                                                                         000135
1007421049451COBR_CAUC_COR  RIGOR ALIMENTOS LTDA                    002263383000116DISTRIBUIDORA DE AVES CAMPIONE LTD      RUA COSTEIRA, 377                       SAO PAULO                               03573010SP3292300002000673507  144863   22122011900BRADESCO S/A        1201201200000000000198000CC                                                                                                                                                                                                                                                                                                                                                                                                         000136
1007421049451COBR_CAUC_COR  RIGOR ALIMENTOS LTDA                    057032427000270PEDRO MARCIO DA FONSECA E CIA LTDA      RUA DOS PAULISTA, 250                   SAO JOSE DO RIO                         13720000SP3292400001000683568  055144   22122011900BRADESCO S/A        1201201200000000000177746CC                                                                                                                                                                                                                                                                                                                                                                                                         000137
1007421049451COBR_CAUC_COR  RIGOR ALIMENTOS LTDA                    003318174000195SUPERMERCADO ASP LTDA                   RUA JOSE CARLOS FERRARI, 79             VALINHOS                                13272810SP3292500001000684888  055126   22122011900BRADESCO S/A        1201201200000000000122304CC                                                                                                                                                                                                                                                                                                                                                                                                         000138
1007421049451COBR_CAUC_COR  RIGOR ALIMENTOS LTDA                    003318174000195SUPERMERCADO ASP LTDA                   RUA JOSE CARLOS FERRARI, 79             VALINHOS                                13272810SP3292500002000684968  055127   22122011900BRADESCO S/A        1201201200000000000056448CC                                                                                                                                                                                                                                                                                                                                                                                                         000139
1007421049451COBR_CAUC_COR  RIGOR ALIMENTOS LTDA                    001797136000137SUPERMERCADO BEMBOM LTDA                ESTRADA DO TAMBORI, 15                  CARAPICUIBA                             06386000SP3292600001000661087  142794   15122011900BRADESCO S/A        0501201200000000000091000CC                                                                                                                                                                                                                                                                                                                                                                                                         000140
1007421049451COBR_CAUC_COR  RIGOR ALIMENTOS LTDA                    001797136000137SUPERMERCADO BEMBOM LTDA                ESTRADA DO TAMBORI, 15                  CARAPICUIBA                             06386000SP3292600002000670827  143683   19122011900BRADESCO S/A        0901201200000000000089200CC                                                                                                                                                                                                                                                                                                                                                                                                         000141
1007421049451COBR_CAUC_COR  RIGOR ALIMENTOS LTDA                    025926205000123SUPERMERCADO LEAL LTDA                  AV. CESARIO CROSARIO, 3855              UBERLANDIA                              38401048MG3292700001000688018  055157   22122011900BRADESCO S/A        2101201200000000000180707CC                                                                                                                                                                                                                                                                                                                                                                                                         000142
