0REMESSANOTIFICACAO ELETRONICA        99999999999999BICBANCO                                AV. PAULISTA                            1048      12.ANDAR  BELA VISTA                    SAO PAULO                     01310100SP1121739360CORTINHAL                               COORDENADOR                             16092014                                                                                                                                                                                                                                                                                                                                                                                      000001
1046421004647COBR_CAUC_BIC  TERMOTECNICA LTDA                       072273436000165ISOPLAST IND. COM. DE PLASTICOS LT      AVENIDA  PARQUE COMERCIAL,251           MARACANAU                               61920150CE49125000010249891310932113    10092014003CENTRO              0810201400000000018716436CC                                                                                                                                                                                                                                                                                                                                                                                                         000002
1046421004647COBR_CAUC_BIC  TERMOTECNICA LTDA                       072273436000165ISOPLAST IND. COM. DE PLASTICOS LT      AVENIDA  PARQUE COMERCIAL,251           MARACANAU                               61920150CE49125000020249892110938713    11092014003CENTRO              0910201400000000017009687CC                                                                                                                                                                                                                                                                                                                                                                                                         000003
1048421000338COBR_CAUC_COR  FRIGOESTRELA S A  EM RECUP JUDICIAL     049254634000160NUTRIPLUS ALIMENTACAO E TECNOLOGIA      RUA SICILIA, 168                        SALTO                                   13321390SP4912600001086838310117119201  12092014900BRADESCO S/A        0310201400000000015451159CC                                                                                                                                                                                                                                                                                                                                                                                                         000004
1031421011181COBR_CAUC_BIC  AGROIND IRMAOS DALLA COSTA LTDA         061270393000148FRIGORIFICO MARBA LTDA                  AV. CEZAR MAGNANI                  00971SAO BERNARDO DO                         09694000SP49127000010544207713635/1     23082014007PAULISTA            3009201400000000019440000CC                                                                                                                                                                                                                                                                                                                                                                                                         000005
1031421011181COBR_CAUC_BIC  AGROIND IRMAOS DALLA COSTA LTDA         061270393000148FRIGORIFICO MARBA LTDA                  AV. CEZAR MAGNANI                  00971SAO BERNARDO DO                         09694000SP49127000020544209313657/1     25082014007PAULISTA            3009201400000000011520000CC                                                                                                                                                                                                                                                                                                                                                                                                         000006
9000003                                                                                                                                                                                                                                                                                                                                                                                                                                                                                                                                                                                                                                                                                                               000007
