0REMESSANOTIFICACAO ELETRONICA        99999999999999BICBANCO                                AV. PAULISTA                            1048      12.ANDAR  BELA VISTA                    SAO PAULO                     01310100SP1121739360CORTINHAL                               COORDENADOR                             04042012                                                                                                                                                                                                                                                                                                                                                                                      000001
1007421044581COBR_CAUC_BIC  GRANCARGA TRANSP. E GUINDASTES S/A.     001027335000166WOBBEN WINDPOWER IND.E COM.LTDA.        AV.FERNANDO STECCA,100                  SOROCABA                                18087149SP346860000101167463002172      03042012007PAULISTA            0205201200000000012455315CC                                                                                                                                                                                                                                                                                                                                                                                                         000002
1007421044581COBR_CAUC_BIC  GRANCARGA TRANSP. E GUINDASTES S/A.     001027335000166WOBBEN WINDPOWER IND.E COM.LTDA.        AV.FERNANDO STECCA,100                  SOROCABA                                18087149SP346860000201167471002173      03042012007PAULISTA            0205201200000000012455315CC                                                                                                                                                                                                                                                                                                                                                                                                         000003
1007421044581COBR_CAUC_BIC  GRANCARGA TRANSP. E GUINDASTES S/A.     001027335000166WOBBEN WINDPOWER IND.E COM.LTDA.        AV.FERNANDO STECCA,100                  SOROCABA                                18087149SP346860000301167480002174      03042012007PAULISTA            0205201200000000012455315CC                                                                                                                                                                                                                                                                                                                                                                                                         000004
1038421018922COBR_CAUC_COR  AMEPLAN ASSIST MEDICA PLANEJADA         011031202000117V. METROPOLITANA LTDA                   R. GENARO DE CARVALHO,145               SAO PAULO                               04377220SP34687000010930046242591       03042012900BRADESCO S/A        2504201200000000012200667CC                                                                                                                                                                                                                                                                                                                                                                                                         000005
1007421035337COBR_CAUC_COR  COML IMP E EXP LA RIOJA LTDA            010319375000172MULTI FORMATO DIST S/A (PTA) (16.0      AV MANOEL JACINTA COELHO JUNIOR, 901    CONTAGEM                                32150245MG34688000010037385087037-001   03042012900BRADESCO S/A        0406201200000000023835000CC                                                                                                                                                                                                                                                                                                                                                                                                         000006
9000003                                                                                                                                                                                                                                                                                                                                                                                                                                                                                                                                                                                                                                                                                                               000007
