0REMESSANOTIFICACAO ELETRONICA        99999999999999BICBANCO                                AV. PAULISTA                            1048      12.ANDAR  BELA VISTA                    SAO PAULO                     01310100SP1121739360CORTINHAL                               COORDENADOR                             20022014                                                                                                                                                                                                                                                                                                                                                                                      000001
1031421010312COBR_CAUC_BIC  PADO S/A - INDL.COML E IMPORTADORA      017359233000188TECIDOS E ARMARINHOS MIGUEL             VIA. MUN. MANOEL JACINTO COELHO S/N     CONTAGEM                                32060514MG4649800001053644750024576301  18022014019BELO HORIZONTE      0503201400000000021238421CC                                                                                                                                                                                                                                                                                                                                                                                                         000002
1031421007010COBR_CAUC_BIC  PLANT BEM FERTILIZANTES S.A.            078340270000139COOPCANA COOP AGRICOLA REGIONAL DE      AV TAPEJARA,2150                        PARAISO DO NORT                         87780000PR4649900001053614848001        19022014016CURITIBA            1003201400000000033750000CC                                                                                                                                                                                                                                                                                                                                                                                                         000003
1007421068839COBR_CAUC_BIC  KELPEN OIL BRASIL LTDA                  043995646000169FUCHS DO BRASIL S A                     VIA JOAO DE GOES ,1110                  BARUERI                                 06422150SP465000000102677805022067      19022014007PAULISTA            1403201400000000010917515CC                                                                                                                                                                                                                                                                                                                                                                                                         000004
1049421001570COBR_CAUC_COR  MASTER AGROINDUSTRIAL LTDA              007797729000180DISTRIB. E TRANSP. DE CARNES SUITA      ROD. PARIGOT DFE SOUZA, S/N             JOAQUIM TAVORA                          86455000PR4650100001003703220000491101  14022014900BRADESCO S/A        0903201400000000010140000CC                                                                                                                                                                                                                                                                                                                                                                                                         000005
1049421001570COBR_CAUC_COR  MASTER AGROINDUSTRIAL LTDA              007797729000180DISTRIB. E TRANSP. DE CARNES SUITA      ROD. PARIGOT DFE SOUZA, S/N             JOAQUIM TAVORA                          86455000PR4650100002003703490000491301  14022014900BRADESCO S/A        0903201400000000010140000CC                                                                                                                                                                                                                                                                                                                                                                                                         000006
1016421001058COBR_CAUC_COR  MONTANA INDUSTRIA DE MAQUINAS SA        013806854000101SIMOAGRO - MAQUINAS AGRICOLAS LTDA      ROD PARIGOT DE SOUZA PR 092 KM,220      ARAPOTI                                 84990000PR4651800001041871200045572/01  29102013900BRADESCO S/A        2602201400000000006250000CC                                                                                                                                                                                                                                                                                                                                                                                                         000007
9000005                                                                                                                                                                                                                                                                                                                                                                                                                                                                                                                                                                                                                                                                                                               000008
