0REMESSANOTIFICACAO ELETRONICA        99999999999999BICBANCO                                AV. PAULISTA                            1048      12.ANDAR  BELA VISTA                    SAO PAULO                     01310100SP1121739360CORTINHAL                               COORDENADOR                             30102012                                                                                                                                                                                                                                                                                                                                                                                      000001
1021420930887COBR_CAUC_COR  DEDINI S/A INDUSTRIAS DE BASE           004165520000296AGROPECUARIA NOVO MILENIO LTDA          ROD TRANSEFONICA KM 6 ANEXO 01 S N VILA MIRASSOL D'OEST                         78280000MT385380000106358027187951-4-4  26102012900BRADESCO S/A        2011201200000000048500000CC                                                                                                                                                                                                                                                                                                                                                                                                         000002
1021420930887COBR_CAUC_COR  DEDINI S/A INDUSTRIAS DE BASE           044330975002288USINA COLOMBO S A - ACUCAR E ALCOO      EST MUN PALESTINA A PONTES GESTAL PONTALPALESTINA                               15470000SP385390000106358035188993-4-4  26102012900BRADESCO S/A        2211201200000000087500000CC                                                                                                                                                                                                                                                                                                                                                                                                         000003
1048421000338COBR_CAUC_COR  FRIGOESTRELA S.A. EM RECUP JUDICIAL     075315333007979ATACADAO DISTR. COM. E IND. LTDA        AVENIDA EDUARDO FROES DA MOTA5500       FEIRA DE SANTAN                         44021215BA3854000001030168110081410901  27102012900BRADESCO S/A        0612201200000000010221390CC                                                                                                                                                                                                                                                                                                                                                                                                         000004
1022421007720COBR_CAUC_COR  JUMIL-JUSTINO DE MORAIS IRMAOS S/A      057213191001088COMERCIAL BORGATO MAQS E IMPLEMENT      AVENIDA INDUSTRIAL, 1144                AGUA BOA                                78635000MT385410000104427393128026E.01  26102012800UNIBANCO S/A        2512201200000000015300000CC                                                                                                                                                                                                                                                                                                                                                                                                         000005
1019421014068COBR_CAUC_COR  RIO BRANCO ALIMENTOS S/A                004641376007300SUPERMERCADOS BH COMERCIO DE            AV GERALDO ROCHA 700                    CONTAGEM                                32183054MG3854200001005402730148042901  26102012900BRADESCO S/A        2311201200000000011354137CC                                                                                                                                                                                                                                                                                                                                                                                                         000006
1019421014068COBR_CAUC_COR  RIO BRANCO ALIMENTOS S/A                004641376007300SUPERMERCADOS BH COMERCIO DE            AV GERALDO ROCHA 700                    CONTAGEM                                32183054MG3854200002005472270036216101  28102012900BRADESCO S/A        2611201200000000012151696CC                                                                                                                                                                                                                                                                                                                                                                                                         000007
1003421013987COBR_CAUC_COR  SCIENTIFIC COM E IMPORTACAO LTDA        008612914000115OPS SERICOS MEDICOS E HOSPITALARES      RUA JOAO FERNANDES VIEIRA,699           RECIFE                                  50050903PE38543000010003269513812       27102012900BRADESCO S/A        2711201200000000011330000CC                                                                                                                                                                                                                                                                                                                                                                                                         000008
1008421002710DIR_CREDIT     OCS MIN E EMPREENDIMENTOS LTDA          034230979005418SUPERMIX CONCRETO S/A                   R PROF. JOSE VIEIRA DE MENDONçA, 1121   BELO HORIZONTE                          31310260MG3855300001                                                                                                                                          481027624           100120070000012817            29102012000404fornecimento de material produzido pela OCS-Mineração e EmpreendimentosLtda,a saber Brita 19mm,Brita 9,5mm e areia grossa de Brita,todos fornecidos e oferecidos em forma de tonelada.                                                          007323439000102              000009
1031421008709COBR_CAUC_COR  TABLEROS COMERCIO DE PAINEIS LTDA       008148179000130CARLA E EDSON EMPREENDIMENTOS IMOB      RUA TAMOIO,845                          PATO BRANCO                             85501070PR3856600001050236861906/C      17082012800UNIBANCO S/A        1211201200000000000183666CC                                                                                                                                                                                                                                                                                                                                                                                                         000010
1031421008709COBR_CAUC_COR  TABLEROS COMERCIO DE PAINEIS LTDA       030571749000150FIO E FERRO MATERIAIS SERVICOS E C      AV. LEITAO DA SILVA,1845                VITORIA                                 29047565ES3856700001050517102007/A      28092012800UNIBANCO S/A        0211201200000000000370038CC                                                                                                                                                                                                                                                                                                                                                                                                         000011
1031421008709COBR_CAUC_COR  TABLEROS COMERCIO DE PAINEIS LTDA       030571749000150FIO E FERRO MATERIAIS SERVICOS E C      AV. LEITAO DA SILVA,1845                VITORIA                                 29047565ES3856700002050517282007/B      28092012800UNIBANCO S/A        1711201200000000000370038CC                                                                                                                                                                                                                                                                                                                                                                                                         000012
1031421008709COBR_CAUC_COR  TABLEROS COMERCIO DE PAINEIS LTDA       030571749000150FIO E FERRO MATERIAIS SERVICOS E C      AV. LEITAO DA SILVA,1845                VITORIA                                 29047565ES3856700003050517362007/C      28092012800UNIBANCO S/A        0212201200000000000370039CC                                                                                                                                                                                                                                                                                                                                                                                                         000013
1031421008709COBR_CAUC_BIC  TABLEROS COMERCIO DE PAINEIS LTDA       006985805000118B4 CONSTRUCOES CIVIS LTDA               RUA MARECHAL RONDON,1951                CASCAVEL                                85801170PR3856800001050509001995/B      25092012016CURITIBA            2111201200000000000893334CC                                                                                                                                                                                                                                                                                                                                                                                                         000014
1031421008709COBR_CAUC_BIC  TABLEROS COMERCIO DE PAINEIS LTDA       006985805000118B4 CONSTRUCOES CIVIS LTDA               RUA MARECHAL RONDON,1951                CASCAVEL                                85801170PR3856800002050509181995/C      25092012016CURITIBA            2112201200000000000893335CC                                                                                                                                                                                                                                                                                                                                                                                                         000015
9000010                                                                                                                                                                                                                                                                                                                                                                                                                                                                                                                                                                                                                                                                                                               000016
