0REMESSANOTIFICACAO ELETRONICA        99999999999999BICBANCO                                AV. PAULISTA                            1048      12.ANDAR  BELA VISTA                    SAO PAULO                     01310100SP1121739360CORTINHAL                               COORDENADOR                             12042012                                                                                                                                                                                                                                                                                                                                                                                      000001
1014421017616COBR_CAUC_BIC  GPC QUIMICA S/A                         097837181001119DURATEX S.A.                            AVENIDA PAULISTA, 1938 - 8 ANDAR        SAO PAULO                               01310942SP3478900001045147290005472     10042012007PAULISTA            2304201200000000010020757CC                                                                                                                                                                                                                                                                                                                                                                                                         000002
1014421017616COBR_CAUC_BIC  GPC QUIMICA S/A                         097837181001119DURATEX S.A.                            AVENIDA PAULISTA, 1938 - 8 ANDAR        SAO PAULO                               01310942SP3478900002045147370005475     11042012007PAULISTA            2304201200000000011057927CC                                                                                                                                                                                                                                                                                                                                                                                                         000003
1007421053971COBR_CAUC_BIC  VIDA ALIMENTOS LTDA                     011457034000126GOOD MEAL COM E TRANSP DE PROD ALI      RUA ARARIPE, 206                        SAO PAULO                               03215010SP3479000001011798520004284001  10042012007PAULISTA            3004201200000000011403000CC                                                                                                                                                                                                                                                                                                                                                                                                         000004
1006421011724COBR_CAUC_COR  MONT GRANITOS S/A                       007204217000243CALILA ADMINISTRACAO E COMERCIO LT      AV CONSUL ASSAF TRAD 4634               CAMPO GRANDE                            79062200MS347910000108958447710         10042012800UNIBANCO S/A        3005201200000000010860000CC                                                                                                                                                                                                                                                                                                                                                                                                         000005
1006421011724COBR_CAUC_COR  MONT GRANITOS S/A                       007204217000243CALILA ADMINISTRACAO E COMERCIO LT      AV CONSUL ASSAF TRAD 4634               CAMPO GRANDE                            79062200MS347910000208958455711         10042012800UNIBANCO S/A        3006201200000000010860000CC                                                                                                                                                                                                                                                                                                                                                                                                         000006
1029421012194COBR_CAUC_COR  SELETA IND COM E SERV DE CONC LTDA      006372009000100MARIANTE DE JESUS CORUJA                RUA OTTO ALFREDO MULLER, N71, SALA      TRAMANDAI                               95590000RS347920000100103231MQN050812   11042012900BRADESCO S/A        0508201200000000012000000CC                                                                                                                                                                                                                                                                                                                                                                                                         000007
1008421022487COBR_CAUC_COR  EBP - EMPRESA BRASILEIRA DE PESCADO     033304981000110SUPERMERCADOS MUNDIAL LTDA              RUA  DONA EMILIA, 2                     RIO DE JANEIRO                          20765110RJ3479300001014995319996/       30032012900BRADESCO S/A        1904201200000000022226400CC                                                                                                                                                                                                                                                                                                                                                                                                         000008
1008421022487COBR_CAUC_COR  EBP - EMPRESA BRASILEIRA DE PESCADO     033304981000110SUPERMERCADOS MUNDIAL LTDA              RUA  DONA EMILIA, 2                     RIO DE JANEIRO                          20765110RJ34793000020149956610002/      31032012900BRADESCO S/A        2004201200000000019733280CC                                                                                                                                                                                                                                                                                                                                                                                                         000009
1007421053076COBR_CAUC_BIC  WORLD TRACTOR COML IMP LTDA             033042730001348CIA SIDERURGICA NACIONAL                RUA ENG FRANCISCO PITTA BRITTO,138      SAO PAULO                               04753900SP3479400001011798102278        10042012007PAULISTA            3005201200000000020413604CC                                                                                                                                                                                                                                                                                                                                                                                                         000010
1007421053076COBR_CAUC_BIC  WORLD TRACTOR COML IMP LTDA             033042730001348CIA SIDERURGICA NACIONAL                RUA ENG FRANCISCO PITTA BRITTO,138      SAO PAULO                               04753900SP3479400002011798362276        10042012007PAULISTA            3005201200000000016097378CC                                                                                                                                                                                                                                                                                                                                                                                                         000011
9000006                                                                                                                                                                                                                                                                                                                                                                                                                                                                                                                                                                                                                                                                                                               000012
