0REMESSANOTIFICACAO ELETRONICA        99999999999999BICBANCO                                AV. PAULISTA                            1048      12.ANDAR  BELA VISTA                    SAO PAULO                     01310100SP1121739360CORTINHAL                               COORDENADOR                             17092014                                                                                                                                                                                                                                                                                                                                                                                      000001
1046421007085COBR_CAUC_BIC  H  F  SISTEMAS DE FREIO LTDA            007221070000623BEZERRA E OLIVEIRA COM. DE AUTOPEC      R PRINCESA ISABEL, N 1185               FORTALEZA                               60015061CE491410000102499421000627      16092014003CENTRO              1610201400000000011435990CC                                                                                                                                                                                                                                                                                                                                                                                                         000002
1021421017050COBR_CAUC_BIC  STAR DISTR PROD FARMACEUTICOS LTDA      046054219000174SOLFARMA COMERCIO DE PRODUTOS FARM      AVENIDA BELMIRO DIAS BAPTISTA , 778     BEBEDOURO                               14711130SP4914200001000052110000397301  12092014022RIBEIRAO PRETO      1710201400000000016917470CC                                                                                                                                                                                                                                                                                                                                                                                                         000003
1021421017050COBR_CAUC_BIC  STAR DISTR PROD FARMACEUTICOS LTDA      046054219000174SOLFARMA COMERCIO DE PRODUTOS FARM      AVENIDA BELMIRO DIAS BAPTISTA , 778     BEBEDOURO                               14711130SP4914200002000052200000397401  12092014022RIBEIRAO PRETO      1710201400000000030412173CC                                                                                                                                                                                                                                                                                                                                                                                                         000004
1021421017050COBR_CAUC_BIC  STAR DISTR PROD FARMACEUTICOS LTDA      061585865073701RAIA DROGASIL S/A                       RUA PATAXOS , 1412                      EMBU                                    06833073SP4914300001000051900000396801  11092014007PAULISTA            2509201400000000055963609CC                                                                                                                                                                                                                                                                                                                                                                                                         000005
9000003                                                                                                                                                                                                                                                                                                                                                                                                                                                                                                                                                                                                                                                                                                               000006
