0REMESSANOTIFICACAO ELETRONICA        99999999999999BICBANCO                                AV. PAULISTA                            1048      12.ANDAR  BELA VISTA                    SAO PAULO                     01310100SP1121739360CORTINHAL                               COORDENADOR                             03042012                                                                                                                                                                                                                                                                                                                                                                                      000001
1007421031242COBR_CAUC_BIC  GP GUARDA PATRIMONIAL DE S.P. LTDA      001588770000836DIVEO DO BRASIL TELECOMUNICACOES        AVENIDA CECI  1850                      BARUERI                                 06460120SP34658000010004715478491       02042012007PAULISTA            0105201200000000014306951CC                                                                                                                                                                                                                                                                                                                                                                                                         000002
1031420932046COBR_CAUC_BIC  PALMALI INDL.DE ALIMENTOS LTDA          074101569000341AGRICOLA JANDELLE S/A.                  AV ITAMARATY                            ROLANDIA                                86600000PR346590000104980806NE 0346063  30032012031LONDRINA            2506201200000000060000000CC                                                                                                                                                                                                                                                                                                                                                                                                         000003
1031420932046COBR_CAUC_BIC  PALMALI INDL.DE ALIMENTOS LTDA          074101569000341AGRICOLA JANDELLE S/A.                  AV ITAMARATY                            ROLANDIA                                86600000PR346590000204980814NE 0346064  30032012031LONDRINA            2507201200000000060000000CC                                                                                                                                                                                                                                                                                                                                                                                                         000004
1003421005364COBR_CAUC_BIC  PESQUEIRA MAGUARY LTDA                  005780031000126IMPERIAL DISTRIBUIDORA LTDA             RODOVIA BR 040 KM 688 PAV ,0-CEASA      CONTAGEM                                32145900MG346600000104092960000003548   30032012019BELO HORIZONTE      2604201200000000011381250CC                                                                                                                                                                                                                                                                                                                                                                                                         000005
1007421058450COBR_CAUC_BIC  CEDIPRO DISTRIBUIDORA LTDA              025769266000124ARCOM S/A                               RO.AN.VIAR.AYRTON SENNA, 2001           UBERLANDIA                              38414512MG3466100001011665211805-000    30032012028UBERLANDIA          1905201200000000017186068CC                                                                                                                                                                                                                                                                                                                                                                                                         000006
1008421022487COBR_CAUC_COR  EBP - EMPRESA BRASILEIRA DE PESCADO     033304981000110SUPERMERCADOS MUNDIAL LTDA              RUA  DONA EMILIA, 2                     RIO DE JANEIRO                          20765110RJ3466200001014974589842/       27032012900BRADESCO S/A        1604201200000000019665000CC                                                                                                                                                                                                                                                                                                                                                                                                         000007
1046421001281DIR_CREDIT     SUL IMAGEM PROD P/ DIAGNOSTICOS LTD     024134488000299HOSP DAS CLIN DA UF PERNAMBUCO          AV PROF MORAIS REGO S/N                 RECIFE                                  50670901PE3466800001                                                                                                                                          481006816           16082011000001975679/2011     02042012000404Aquisição de equipamentos médicos hospitalares.                                                                                                                                                                                                 003135637000183              000008
1046421001281DIR_CREDIT     SUL IMAGEM PROD P/ DIAGNOSTICOS LTD     015180714000104UNIVERSIDADE FEDERAL DA BAHIA           RUA AUGUSTO VIANA, S/N - CANELA         SALVADOR                                40110060BA3466900001                                                                                                                                          481006816           16082011000001976228/2011     02042012000404Aquisição de equipamentos médicos e hospitalares                                                                                                                                                                                                003135637000183              000009
1046421001281DIR_CREDIT     SUL IMAGEM PROD P/ DIAGNOSTICOS LTD     007272636000212HOSP. U. WALTER CANTIDIO DA U.F. CEARA  R CAPITAO FRANCISCO PEDRO 1290 RODOLFO  FORTALEZA                               60430370CE3467000001                                                                                                                                          481006816           16082011000001977129/2011     02042012000404aquisição de equipamentos medicos e hospitalares                                                                                                                                                                                                003135637000183              000010
1018421019240DIR_CREDIT     ENGEFORT CONSTRUTORA LTDA               021154554000113TRIBUNAL DE JUSTICA DO EST. MINAS GERAISAV AFONSO PENA 1.420 CENTRO             BELO HORIZONTE                          30130002MG3468400001                                                                                                                                          011361313           261120100000017901602/2010    31032011000453obra de construcao e edificacao do predio do novo forum da comerca de  uberlandia.//                                                                                                                                                            005280840000179              000011
1018421021538DIR_CREDIT     ENGEFORT CONSTRUTORA LTDA               000394460009793DELEGACIA DA RECEITA FEDERAL DO BRASIL  RUA LEVINDO LOPES NR 357 ANDAR 6        BELO HORIZONTE                          30140170MG3468500001                                                                                                                                          010972386           18122009000001358612/2009     31052010000453execução de obra total do edifício da futura sede da DRF/BHE na Cidade de Belo Horizonte  incluindo a elaboracao do projeto executivo concomitantemen-te com a obra.                                                                            005280840000179              000012
9000010                                                                                                                                                                                                                                                                                                                                                                                                                                                                                                                                                                                                                                                                                                               000013
