0REMESSANOTIFICACAO ELETRONICA        99999999999999BICBANCO                                AV. PAULISTA                            1048      12.ANDAR  BELA VISTA                    SAO PAULO                     01310100SP1121739360CORTINHAL                               COORDENADOR                             03122012                                                                                                                                                                                                                                                                                                                                                                                      000001
1031421007850COBR_CAUC_BIC  AGRICOLA JANDELLE S/A                   004641376007300SUPERMERCADOS BH COMERCIO DE ALIME      AVENIDA GERALDO ROCHA 200               CONTAGEM                                32183054MG3909600001051211730010374801  30112012019BELO HORIZONTE      2812201200000000011005394CC                                                                                                                                                                                                                                                                                                                                                                                                         000002
1031421007850COBR_CAUC_COR  AGRICOLA JANDELLE S/A                   026036491000114CONGEBRAS ALIMENTOS LTDA                RODOVIA BR 040 S/N KM 516 SALA 101      RIBEIRAO DAS NE                         33822502MG3909700001051211810010374401  30112012800UNIBANCO S/A        3112201200000000012089259CC                                                                                                                                                                                                                                                                                                                                                                                                         000003
1048421000338COBR_CAUC_COR  FRIGOESTRELA S.A. EM RECUP JUDICIAL     004004586000113ABRAHAO CANDIDO DA SILVA                AVENIDA DESEMBARGADOR TAVORA35          CRUZEIRO DO SUL                         69980000AC3909800001032564390083262601  29112012900BRADESCO S/A        0412201200000000010661644CC                                                                                                                                                                                                                                                                                                                                                                                                         000004
1048421000338COBR_CAUC_COR  FRIGOESTRELA S.A. EM RECUP JUDICIAL     008386287000141BERMAS MARACANAU IND E COM DE COUR      AV CONTORNOS/NDISTRITO INDUSTRIAL       MARACANAU                               61939160CE3909900001032563660001400501  29112012900BRADESCO S/A        2912201200000000015969807CC                                                                                                                                                                                                                                                                                                                                                                                                         000005
1048421000338COBR_CAUC_COR  FRIGOESTRELA S.A. EM RECUP JUDICIAL     008386287000141BERMAS MARACANAU IND E COM DE COUR      AV CONTORNOS/NDISTRITO INDUSTRIAL       MARACANAU                               61939160CE3909900002032563740001400601  29112012900BRADESCO S/A        2912201200000000016042590CC                                                                                                                                                                                                                                                                                                                                                                                                         000006
1046421007255COBR_CAUC_COR  MAESTRO DO BRASIL IND METALUR LTDA      019166917000199EMBRASIL EMPRESA BRASILEIRA DISTRI      RODOVIA BR-040,  KM-517,S/N             RIBEIRAO DAS NE                         33823310MG39095000010168969325575-1/1   26112012800UNIBANCO S/A        2901201300000000012031172CC                                                                                                                                                                                                                                                                                                                                                                                                         000007
1007421061290COBR_CAUC_BIC  ROYAL QUIMICA LTDA                      056558703000194BENTOMAR IND. E COM. DE MINERIOS L      R: SR. EDGAR MAGALHAES DE NORONHA, 563  SAO PAULO                               03480000SP3910100001016030510000115496  29112012007PAULISTA            2801201300000000011400375CC                                                                                                                                                                                                                                                                                                                                                                                                         000008
1019421004658COBR_CAUC_COR  S/A ESTADO DE MINAS                     016705345000180SINDICATO DAS EMP.TRANSP.PASSAG.MG      AIMORES 2152  BR                        BELO HORIZONTE                          30140072MG3909400001011907211487744-1   29112012900BRADESCO S/A        0303201300000000020000000CC                                                                                                                                                                                                                                                                                                                                                                                                         000009
1016421019909COBR_CAUC_COR  TROMBINI EMBALAGENS S/A                 021228861000363NACIONAL DE GRAFITE LTDA                RODOVIA MG.164 - KM.04 S N NA           ITAPECERICA                             35550000MG39100000010384296516944-1     29112012800UNIBANCO S/A        1301201300000000010065066CC                                                                                                                                                                                                                                                                                                                                                                                                         000010
9000008                                                                                                                                                                                                                                                                                                                                                                                                                                                                                                                                                                                                                                                                                                               000011
