0REMESSANOTIFICACAO ELETRONICA        99999999999999BICBANCO                                AV. PAULISTA                            1048      12.ANDAR  BELA VISTA                    SAO PAULO                     01310100SP1121739360CORTINHAL                               COORDENADOR                             26102012                                                                                                                                                                                                                                                                                                                                                                                      000001
1031421009837COBR_CAUC_BIC  DIPLOMATA S/A  INDL. E COMERCIAL        003721769000278MASTERBOI LTDA                          AV .  DA RECUPERAÇAO  7380              RECIFE                                  52291000PE3849400001050747950175669-01  24102012010RECIFE              1412201200000000010404000CC                                                                                                                                                                                                                                                                                                                                                                                                         000002
1022421007720COBR_CAUC_COR  JUMIL-JUSTINO DE MORAIS IRMAOS S/A      057213191001088COMERCIAL BORGATO MAQS E IMPLEMENT      AVENIDA INDUSTRIAL, 1144                AGUA BOA                                78635000MT384950000104424769126514E.01  18102012800UNIBANCO S/A        1712201200000000015300000CC                                                                                                                                                                                                                                                                                                                                                                                                         000003
1020421001717COBR_CAUC_BIC  H-BUSTER DA AMAZONIA IND COM LTDA       013481309015629RN COMERCIO VAREJISTA S.A.              RUA HIBISCO,210                         CONTAGEM                                32150210MG384960000106251955020035.1/1  25102012019BELO HORIZONTE      2301201300000000012272000CC                                                                                                                                                                                                                                                                                                                                                                                                         000004
1020421001717COBR_CAUC_BIC  H-BUSTER DA AMAZONIA IND COM LTDA       013481309015629RN COMERCIO VAREJISTA S.A.              RUA HIBISCO,210                         CONTAGEM                                32150210MG384960000206251963020036.1/1  25102012019BELO HORIZONTE      2301201300000000015000000CC                                                                                                                                                                                                                                                                                                                                                                                                         000005
1020421001717COBR_CAUC_BIC  H-BUSTER DA AMAZONIA IND COM LTDA       013481309015629RN COMERCIO VAREJISTA S.A.              RUA HIBISCO,210                         CONTAGEM                                32150210MG384960000306251971020037.1/1  25102012900BELO HORIZONTE      2301201300000000027000000CC                                                                                                                                                                                                                                                                                                                                                                                                         000006
1020421001717COBR_CAUC_COR  H-BUSTER DA AMAZONIA IND COM LTDA       016182834034180LOJAS INSINUANTE LTDA                   RUA PORTO FRANCO 1271,BLOCO B           JABOATAO DOS GU                         54335020PE384970000106251980020038.1/1  25102012900BRADESCO S/A        0912201200000000033372000CC                                                                                                                                                                                                                                                                                                                                                                                                         000007
1020421001717COBR_CAUC_BIC  H-BUSTER DA AMAZONIA IND COM LTDA       047960950003902MAGAZINE LUIZA S/A - CD050              RUA DO COMERCIO,1924                    FRANCA                                  14400660SP384980000106251998020045.1/1  25102012022RIBEIRAO PRETO      0702201300000000024800000CC                                                                                                                                                                                                                                                                                                                                                                                                         000008
1020421001717COBR_CAUC_BIC  H-BUSTER DA AMAZONIA IND COM LTDA       047960950003902MAGAZINE LUIZA S/A - CD050              RUA DO COMERCIO,1924                    FRANCA                                  14400660SP384980000206252013020048.1/1  25102012022RIBEIRAO PRETO      0702201300000000024800000CC                                                                                                                                                                                                                                                                                                                                                                                                         000009
1020421001717COBR_CAUC_BIC  H-BUSTER DA AMAZONIA IND COM LTDA       047960950003902MAGAZINE LUIZA S/A - CD050              RUA DO COMERCIO,1924                    FRANCA                                  14400660SP384980000306252030020050.1/1  25102012022RIBEIRAO PRETO      0702201300000000024800000CC                                                                                                                                                                                                                                                                                                                                                                                                         000010
1020421001717COBR_CAUC_BIC  H-BUSTER DA AMAZONIA IND COM LTDA       047960950003902MAGAZINE LUIZA S/A - CD050              RUA DO COMERCIO,1924                    FRANCA                                  14400660SP384980000406252048020051.1/1  25102012022RIBEIRAO PRETO      0702201300000000029512000CC                                                                                                                                                                                                                                                                                                                                                                                                         000011
1020421001717COBR_CAUC_BIC  H-BUSTER DA AMAZONIA IND COM LTDA       047960950003902MAGAZINE LUIZA S/A - CD050              RUA DO COMERCIO,1924                    FRANCA                                  14400660SP384980000506252056020052.1/1  25102012022RIBEIRAO PRETO      0702201300000000029512000CC                                                                                                                                                                                                                                                                                                                                                                                                         000012
1020421001717COBR_CAUC_BIC  H-BUSTER DA AMAZONIA IND COM LTDA       047960950003902MAGAZINE LUIZA S/A - CD050              RUA DO COMERCIO,1924                    FRANCA                                  14400660SP384980000606252064020053.1/1  25102012022RIBEIRAO PRETO      0702201300000000029512000CC                                                                                                                                                                                                                                                                                                                                                                                                         000013
1020421001717COBR_CAUC_BIC  H-BUSTER DA AMAZONIA IND COM LTDA       047960950003902MAGAZINE LUIZA S/A - CD050              RUA DO COMERCIO,1924                    FRANCA                                  14400660SP384980000706252072020054.1/1  25102012022RIBEIRAO PRETO      0702201300000000023064000CC                                                                                                                                                                                                                                                                                                                                                                                                         000014
1020421001717COBR_CAUC_BIC  H-BUSTER DA AMAZONIA IND COM LTDA       047960950003902MAGAZINE LUIZA S/A - CD050              RUA DO COMERCIO,1924                    FRANCA                                  14400660SP384980000806252081020055.1/1  25102012022RIBEIRAO PRETO      0702201300000000012400000CC                                                                                                                                                                                                                                                                                                                                                                                                         000015
1020421001717COBR_CAUC_BIC  H-BUSTER DA AMAZONIA IND COM LTDA       047960950003902MAGAZINE LUIZA S/A - CD050              RUA DO COMERCIO,1924                    FRANCA                                  14400660SP384980000906252099020057.1/1  25102012022RIBEIRAO PRETO      0702201300000000024800000CC                                                                                                                                                                                                                                                                                                                                                                                                         000016
1020421001717COBR_CAUC_BIC  H-BUSTER DA AMAZONIA IND COM LTDA       047960950003902MAGAZINE LUIZA S/A - CD050              RUA DO COMERCIO,1924                    FRANCA                                  14400660SP384980001006252102020059.1/1  25102012022RIBEIRAO PRETO      0702201300000000029512000CC                                                                                                                                                                                                                                                                                                                                                                                                         000017
1020421001717COBR_CAUC_BIC  H-BUSTER DA AMAZONIA IND COM LTDA       047960950003902MAGAZINE LUIZA S/A - CD050              RUA DO COMERCIO,1924                    FRANCA                                  14400660SP384980001106252111020060.1/1  25102012022RIBEIRAO PRETO      0702201300000000029512000CC                                                                                                                                                                                                                                                                                                                                                                                                         000018
1020421001717COBR_CAUC_BIC  H-BUSTER DA AMAZONIA IND COM LTDA       047960950003902MAGAZINE LUIZA S/A - CD050              RUA DO COMERCIO,1924                    FRANCA                                  14400660SP384980001206252129020062.1/1  25102012022RIBEIRAO PRETO      0702201300000000024800000CC                                                                                                                                                                                                                                                                                                                                                                                                         000019
1020421001717COBR_CAUC_BIC  H-BUSTER DA AMAZONIA IND COM LTDA       047960950003902MAGAZINE LUIZA S/A - CD050              RUA DO COMERCIO,1924                    FRANCA                                  14400660SP384980001306252137020063.1/1  25102012022RIBEIRAO PRETO      0702201300000000024800000CC                                                                                                                                                                                                                                                                                                                                                                                                         000020
1020421001717COBR_CAUC_BIC  H-BUSTER DA AMAZONIA IND COM LTDA       047960950003902MAGAZINE LUIZA S/A - CD050              RUA DO COMERCIO,1924                    FRANCA                                  14400660SP384980001406252145020065.1/1  25102012022RIBEIRAO PRETO      0702201300000000024800000CC                                                                                                                                                                                                                                                                                                                                                                                                         000021
1020421001717COBR_CAUC_BIC  H-BUSTER DA AMAZONIA IND COM LTDA       047960950003902MAGAZINE LUIZA S/A - CD050              RUA DO COMERCIO,1924                    FRANCA                                  14400660SP384980001506252153020066.1/1  25102012022RIBEIRAO PRETO      0702201300000000029512000CC                                                                                                                                                                                                                                                                                                                                                                                                         000022
1020421001717COBR_CAUC_BIC  H-BUSTER DA AMAZONIA IND COM LTDA       047960950003902MAGAZINE LUIZA S/A - CD050              RUA DO COMERCIO,1924                    FRANCA                                  14400660SP384980001606252170020069.1/1  25102012022RIBEIRAO PRETO      0702201300000000024800000CC                                                                                                                                                                                                                                                                                                                                                                                                         000023
1020421001717COBR_CAUC_BIC  H-BUSTER DA AMAZONIA IND COM LTDA       047960950003902MAGAZINE LUIZA S/A - CD050              RUA DO COMERCIO,1924                    FRANCA                                  14400660SP384980001706252188020070.1/1  25102012022RIBEIRAO PRETO      0702201300000000024800000CC                                                                                                                                                                                                                                                                                                                                                                                                         000024
1020421001717COBR_CAUC_BIC  H-BUSTER DA AMAZONIA IND COM LTDA       047960950003902MAGAZINE LUIZA S/A - CD050              RUA DO COMERCIO,1924                    FRANCA                                  14400660SP384980001806252005020047.1/1  25102012900RIBEIRAO PRETO      0702201300000000024800000CC                                                                                                                                                                                                                                                                                                                                                                                                         000025
1020421001717COBR_CAUC_BIC  H-BUSTER DA AMAZONIA IND COM LTDA       047960950003902MAGAZINE LUIZA S/A - CD050              RUA DO COMERCIO,1924                    FRANCA                                  14400660SP384980001906252021020049.1/1  25102012900RIBEIRAO PRETO      0702201300000000024800000CC                                                                                                                                                                                                                                                                                                                                                                                                         000026
1013421019571DIR_CREDIT     JPNOR ENGENHARIA LTDA                   042150391000170BRASKEM S/A                             RUA ETENO,1561-POLO PETROQUIMICO        CAMAçARI                                42800000BA3850400001                                                                                                                                          481026225           10022010000001798510108/2009  25102012000404Elaboração de projetos conceituais, de engenharia básica, de detalhamento de projeto, de automação, estudos técnicos e estudos de viabilidade.                                                                                                  001531864000100              000027
1013421019571DIR_CREDIT     JPNOR ENGENHARIA LTDA                   001202799000242RIO POLIMEROS S.A.                      RUA MARUMBI, 1001-CAMPOS ELISEOS        DUQUE DE CAXIAS                         25070235RJ3850500001                                                                                                                                          481026225           10022010000001985910108       25102012000404Elaboração de projetos conceituais, de engenharia básica, de detalha-  mento de projeto, de automação, estudos técnicos e estudos de viabilidade.                                                                                               001531864000100              000028
9000007                                                                                                                                                                                                                                                                                                                                                                                                                                                                                                                                                                                                                                                                                                               000029
