0REMESSANOTIFICACAO ELETRONICA        99999999999999BICBANCO                                AV. PAULISTA                            1048      12.ANDAR  BELA VISTA                    SAO PAULO                     01310100SP1121739360CORTINHAL                               COORDENADOR                             28022013                                                                                                                                                                                                                                                                                                                                                                                      000001
1046421001443COBR_CAUC_COR  COSTAO DO SANTINHO TUR E LAZER LTDA     089131189000165CASSUL COM PROD AGROPECUARIOS           RUA ITALIA,1128                         ERECHIM                                 99700000RS406290000100009737160735      26022013900BRADESCO S/A        0403201300000000013660899CC                                                                                                                                                                                                                                                                                                                                                                                                         000002
1021420930887COBR_CAUC_BIC  DEDINI S/A INDUSTRIAS DE BASE           075717355000448USINA DE ACUCAR SANTA TEREZINHA LT      AV MARCELO MESSIAS BUSIQUIA 847 PQ INDUSMARINGA                                 87065006PR406240000106380464188354-8-8  25022013016CURITIBA            3003201300000000013708746CC                                                                                                                                                                                                                                                                                                                                                                                                         000003
1006420933059COBR_CAUC_BIC  IMARF BENEFICIAMENTO DE GRANITOS LT     000475251000122PAULO OCTAVIO INVESTIMENTOS IMOBIL      SCN QUADRA 01,125                       BRASILIA                                70711900DF4062700001094071003064        27022013009BRASILIA            2703201300000000010801736CC                                                                                                                                                                                                                                                                                                                                                                                                         000004
1046421002474COBR_CAUC_COR  MACROMAQ EQUIPAMENTOS LTDA              083011247002346LACTICINIOS TIROL LTDA                  ROD  SC 454 KM 08,S/N - LINHA CAÇADOR   TREZE TILIAS                            89650000SC40628000010179345844832/01    27022013800UNIBANCO S/A        1903201300000000016096629CC                                                                                                                                                                                                                                                                                                                                                                                                         000005
1046421002474COBR_CAUC_COR  MACROMAQ EQUIPAMENTOS LTDA              083011247002346LACTICINIOS TIROL LTDA                  ROD  SC 454 KM 08,S/N - LINHA CAÇADOR   TREZE TILIAS                            89650000SC40628000020179346644835/01    27022013800UNIBANCO S/A        2703201300000000016246629CC                                                                                                                                                                                                                                                                                                                                                                                                         000006
1028421002921COBR_CAUC_COR  MATABOI ALIMENTOS S/A - EM REC.JUD.     003481212000126FRIGORIFICO CAMBUI LTDA                 EST MUNICIPAL SNCX. POSTAL 59           CAMBUI                                  37600000MG4062300001002633090029834801  26022013900BRADESCO S/A        1903201300000000010322992CC                                                                                                                                                                                                                                                                                                                                                                                                         000007
1029421018494COBR_CAUC_BIC  PRO SALUTE SERVICOS PARA SAUDE LTDA     088611264000122INTRAL S A IND DE MATERIAIS ELETRI      TRAV. RIO GRANDE , 130                  CAXIAS DO SUL                           95098750RS4062600001099024210127564.A   22022013029CAXIAS DO SUL       1003201300000000010216096CC                                                                                                                                                                                                                                                                                                                                                                                                         000008
1007421056385COBR_CAUC_COR  TERRA NOVA TRADING S/A                  011636871000112NORTON AGUIAR LABANES                   R. CLAUDIO SOARES, ,72-CONJ 1315        SAO PAULO                               05422030SP406250000100001332TV09261-00  26022013900BRADESCO S/A        2703201300000000015000000CC                                                                                                                                                                                                                                                                                                                                                                                                         000009
9000007                                                                                                                                                                                                                                                                                                                                                                                                                                                                                                                                                                                                                                                                                                               000010