0REMESSANOTIFICACAO ELETRONICA        99999999999999BICBANCO                                AV. PAULISTA                            1048      12.ANDAR  BELA VISTA                    SAO PAULO                     01310100SP1121739360CORTINHAL                               COORDENADOR                             21092012                                                                                                                                                                                                                                                                                                                                                                                      000001
1032420934675COBR_CAUC_BIC  ELIANE S/A REVESTIMENTOS CERAMICOS      004608598000157CESTO PARTICIPACOES S/A                 RUA PROF.MAGALHAES DRUMOND,15 5ANDAR    BELO HORIZONTE                          30350000MG379240000100973972DPL088534A  20092012019BELO HORIZONTE      0312201200000000012383294CC                                                                                                                                                                                                                                                                                                                                                                                                         000002
1007421056385COBR_CAUC_COR  TERRA NOVA TRADING S/A                  013859972000188RITRAMA AUTOADESIVOS COMERCIO LTDA      ROD.VICE-PREFEITO HERMENEGILDO T,1      JUNDIAI                                 13213086SP379250000100000298TI08555-PB  20092012900BRADESCO S/A        2609201200000000012950886CC                                                                                                                                                                                                                                                                                                                                                                                                         000003
1019421014068COBR_CAUC_COR  RIO BRANCO ALIMENTOS S/A                004641376007300SUPERMERCADOS BH COMERCIO DE            AV GERALDO ROCHA 700                    CONTAGEM                                32183054MG3792600001003024370143667901  19092012900BRADESCO S/A        1710201200000000021582395CC                                                                                                                                                                                                                                                                                                                                                                                                         000004
1046421001443COBR_CAUC_COR  COSTAO DO SANTINHO TUR E LAZER LTDA     076590884000143UNIMED DO ESTADO DE SANTA CATARINA      RUA OTTO BOHEN,478                      JOINVILLE                               89201700SC379270000100007181366-2       19092012900BRADESCO S/A        0110201200000000014670000CC                                                                                                                                                                                                                                                                                                                                                                                                         000005
1014421008439COBR_CAUC_BIC  TV OMEGA LTDA                           008743754000143Hasbro do Brasil Ind e Com de Brin      Rua Major Sylvio de Magalhães Pad5200   SãoPaulo                                05693000SP37928000010454521701520401    19092012007PAULISTA            1510201200000000015402360CC                                                                                                                                                                                                                                                                                                                                                                                                         000006
1046141000986COBR_CAUC_COR  COOPERATIVA DE EXTRACAO DE CARVAO M     083163576000105CARBONIFERA BELLUNO LTDA                ESTRADA GERAL RIO FIORITA,10            SIDEROPOLIS                             88860000SC3792900001015908413119-1/1    14092012900BRADESCO S/A        2311201200000000042625000TD                                                                                                                                                                                                                                                                                                                                                                                                         000007
1046141000986COBR_CAUC_COR  COOPERATIVA DE EXTRACAO DE CARVAO M     083163576000105CARBONIFERA BELLUNO LTDA                ESTRADA GERAL RIO FIORITA,10            SIDEROPOLIS                             88860000SC3792900002015908593119-1/2    14092012900BRADESCO S/A        2112201200000000042625000TD                                                                                                                                                                                                                                                                                                                                                                                                         000008
1014421023721COBR_CAUC_BIC  VML COMERCIAL IMP E EXP LTDA            060776788000154QUIRIOS PRODUTOS QUIMICOS S.A.          ARNALDO,388                             BARUERI                                 06415110SP37930000010454543811682       19092012007PAULISTA            2311201200000000015000000CC                                                                                                                                                                                                                                                                                                                                                                                                         000009
1008421002710DIR_CREDIT     OCS MIN E EMPREENDIMENTOS LTDA          034230979005418SUPERMIX CONCRETO S/A                   R PROF. JOSE VIEIRA DE MENDONçA, 1121   BELO HORIZONTE                          31310260MG3793300001                                                                                                                                          481027187           100120070000012817            20092012000404fornecimento de material produzido pela OCS-Mineração e EmpreendimentosLtda,a saber Brita 19mm,Brita 9,5mm e areia grossa de Brita,todos fornecidos e oferecidos em forma de tonelada.                                                          007323439000102              000010
9000008                                                                                                                                                                                                                                                                                                                                                                                                                                                                                                                                                                                                                                                                                                               000011
