0REMESSANOTIFICACAO ELETRONICA        99999999999999BICBANCO                                AV. PAULISTA                            1048      12.ANDAR  BELA VISTA                    SAO PAULO                     01310100SP1121739360CORTINHAL                               COORDENADOR                             30042012                                                                                                                                                                                                                                                                                                                                                                                      000001
1018421005230COBR_CAUC_COR  CENTROALCOOL S/A                        004930779000103SR DISTRIBUIDORA DE PETROLEO LTDA       AV.NITEROI C/COPACABANA Q4 L1/          SENADOR CANEDO                          75250000GO35120000010270203139120/AA    25042012800UNIBANCO S/A        2206201200000000031900000CC                                                                                                                                                                                                                                                                                                                                                                                                         000002
1038421018922COBR_CAUC_COR  AMEPLAN ASSIST MEDICA PLANEJADA         011031202000117V. METROPOLITANA LTDA                   R. GENARO DE CARVALHO,145               SAO PAULO                               04377220SP35121000010943858842984       27042012900BRADESCO S/A        2505201200000000012158842CC                                                                                                                                                                                                                                                                                                                                                                                                         000003
1038421011812COBR_CAUC_BIC  ENERGY COML IMPORT E EXPORT LTDA        009363567000105PREMIX BRASIL RESINAS                   ALAMEDA ARAGU,2044-CJ703A705TORRE2      SAO PAULO                               06455000SP3512200001095997517813        26042012007PAULISTA            0806201200000000047078352CC                                                                                                                                                                                                                                                                                                                                                                                                         000004
9000003                                                                                                                                                                                                                                                                                                                                                                                                                                                                                                                                                                                                                                                                                                               000005
