0REMESSANOTIFICACAO ELETRONICA        99999999999999BICBANCO                                AV. PAULISTA                            1048      12.ANDAR  BELA VISTA                    SAO PAULO                     01310100SP1121739360CORTINHAL                               COORDENADOR                             03062014                                                                                                                                                                                                                                                                                                                                                                                      000001
1032420934675COBR_CAUC_COR  ELIANE S/A REVESTIMENTOS CERAMICOS      015723427000195CONDOMINIO RESIDENCIAL DIAMANTE DE      RUA JOAO MAXIMO DE CARVALHO, 59         ARACATUBA                               16015260SP477860000102857716NDP004842A  30052014700BANCO REAL- ABN AMRO3006201400000000011600870CC                                                                                                                                                                                                                                                                                                                                                                                                         000002
1016421023809COBR_CAUC_BIC  IBEMA COMPANHIA BRASILEIRA DE PAPEL     043336056000124IND.COM.GRAF.CONSELHEIRO LTDA           RUA CANTIGA INGENUA,99                  SAO PAULO                               04184065SP477870000104522051196071.1    02062014007PAULISTA            1706201400000000011681031CC                                                                                                                                                                                                                                                                                                                                                                                                         000003
1048421000338COBR_CAUC_COR  FRIGOESTRELA S.A. EM RECUP JUDICIAL     023439441001323ARMAZEM MATEUS S.A.                     AV ENGENHEIRO EMILIANO MACIEIRA DE      SAO LUIS                                65095602MA4778800001082054330112518301  30052014900BRADESCO S/A        2906201400000000017019000CC                                                                                                                                                                                                                                                                                                                                                                                                         000004
1003421013987COBR_CAUC_COR  SCIENTIFIC COM E IMPORTACAO LTDA        008546929000122CARESTREAM DO BRASIL COM.SERV.P.ME      AV.DR.MARCOS PENTEADO,401-PARTE 17      BARUERI                                 06460040SP4778900001001049801042        02062014900BRADESCO S/A        0207201400000000012753727CC                                                                                                                                                                                                                                                                                                                                                                                                         000005
1046421001109COBR_CAUC_BIC  C-PACK CREATIVE PACKAGING S/A           001615814006487UNILEVER BRASIL INDUSTRIAL LTDA         AV FCO MATARAZZO, 1500 10§              SAO PAULO                               05001200SP477900000102412032006106801   30052014007PAULISTA            2709201400000000010164345CC                                                                                                                                                                                                                                                                                                                                                                                                         000006
1050421000089COBR_CAUC_BIC  ATIVO ALIMENTOS EXP E IMP EIRELI        062453774000125CORINGA ALIMENTOS LTDA                  R SANTO STEFANO 38                      SAO PAULO                               02084030SP477910000100577552254661/1    31052014007PAULISTA            2806201400000000011088361CC                                                                                                                                                                                                                                                                                                                                                                                                         000007
1021421015236COBR_CAUC_BIC  AGRARIA INDUSTRIA E COMERCIO LTDA       046344354000588AJINOMOTO DO BRASIL IND. E COM. DE      C PCAIXA POSTAL,312                     LIMEIRA                                 13480970SP4779200001065747900000023647  30052014021CAMPINAS            3006201400000000021180000CC                                                                                                                                                                                                                                                                                                                                                                                                         000008
1015421019927COBR_CAUC_COR  BELSUL IND. E COM DE MAT. PRIMAS LT     004826593000109LEITISSIMO SA                           ROD MAMBAI/COCOS, SN - FAZ,0-KM 35      JABORANDI                               47655000BA47793000010129502611773-01    02062014900BRADESCO S/A        3006201400000000012100000CC                                                                                                                                                                                                                                                                                                                                                                                                         000009
1032421025814COBR_CAUC_COR  VILLA GERMANIA ALIMENTOS S/A            001693848000297VERDINI MEIRELES REPRESENTACOES LT      AV.BRASIL, 12980 RUA DO FEIJAO, 530     RIO DE JANEIRO                          21011050RJ4779400001001075150056843/01  30052014900BRADESCO S/A        2706201400000000010740000CC                                                                                                                                                                                                                                                                                                                                                                                                         000010
1007421076122COBR_CAUC_COR  BMC HYUNDAI S.A                         005659785003733MARE CIMENTO LTDA                        SIT VELAME II ,0-S/N                   BARAUNA                                 59695000RN477950000102971967114013...A  17052012900BRADESCO S/A        1706201400000000072122295CC                                                                                                                                                                                                                                                                                                                                                                                                         000011
1007421076122COBR_CAUC_COR  BMC HYUNDAI S.A                         005659785003733MARE CIMENTO LTDA                        SIT VELAME II ,0-S/N                   BARAUNA                                 59695000RN477950000202971975114013...B  17052012900BRADESCO S/A        1707201400000000072122295CC                                                                                                                                                                                                                                                                                                                                                                                                         000012
1007421076122COBR_CAUC_COR  BMC HYUNDAI S.A                         005659785003733MARE CIMENTO LTDA                        SIT VELAME II ,0-S/N                   BARAUNA                                 59695000RN477950000302971983114013...C  17052012900BRADESCO S/A        1708201400000000072122295CC                                                                                                                                                                                                                                                                                                                                                                                                         000013
1007421076122COBR_CAUC_COR  BMC HYUNDAI S.A                         005659785003733MARE CIMENTO LTDA                        SIT VELAME II ,0-S/N                   BARAUNA                                 59695000RN477950000402971991114013...D  17052012900BRADESCO S/A        1709201400000000072122295CC                                                                                                                                                                                                                                                                                                                                                                                                         000014
1007421076122COBR_CAUC_COR  BMC HYUNDAI S.A                         005659785003733MARE CIMENTO LTDA                        SIT VELAME II ,0-S/N                   BARAUNA                                 59695000RN477950000502972009114013...E  17052012900BRADESCO S/A        1710201400000000072122295CC                                                                                                                                                                                                                                                                                                                                                                                                         000015
1007421068952COBR_CAUC_COR  CAMP ALIMENTOS COM E DISTR LTDA         002492193000170DISTRIBUIDORA SOLIMOES LTDA             AV GENERAL ATAIDE TEIVE, 4199           BOA VISTA                               69312244RR4780700001028854160010608783  05032014700BANCO REAL- ABN AMRO1007201400000000000171353CC                                                                                                                                                                                                                                                                                                                                                                                                         000016
1007421068952COBR_CAUC_COR  CAMP ALIMENTOS COM E DISTR LTDA         002492193000170DISTRIBUIDORA SOLIMOES LTDA             AV GENERAL ATAIDE TEIVE, 4199           BOA VISTA                               69312244RR4780700002028537190010640142  22042014700BANCO REAL- ABN AMRO1006201400000000000508698CC                                                                                                                                                                                                                                                                                                                                                                                                         000017
1007421068952COBR_CAUC_COR  CAMP ALIMENTOS COM E DISTR LTDA         002492193000170DISTRIBUIDORA SOLIMOES LTDA             AV GENERAL ATAIDE TEIVE, 4199           BOA VISTA                               69312244RR4780700003028537270010640143  22042014700BANCO REAL- ABN AMRO1706201400000000000508698CC                                                                                                                                                                                                                                                                                                                                                                                                         000018
1007421068952COBR_CAUC_BIC  CAMP ALIMENTOS COM E DISTR LTDA         011322774000155NORTE SUL REAL DIST E LOG               RUA CASTRO ALVES,434                    VARZEA GRANDE                           78125590MT478080000102834579001063780   14042014024CUIABA              1306201400000000001495880CC                                                                                                                                                                                                                                                                                                                                                                                                         000019
1007421068952COBR_CAUC_BIC  CAMP ALIMENTOS COM E DISTR LTDA         075315333001423ATACADAO DISTRIBUICAO COMERCIO E I      QNL 01 ST L NORTE A/E 03 QD RESID AREA BBRASILIA                                70000000DF478090000102853760001064097   23042014009BRASILIA            2006201400000000000326077CC                                                                                                                                                                                                                                                                                                                                                                                                         000020
1007421068952COBR_CAUC_BIC  CAMP ALIMENTOS COM E DISTR LTDA         075315333001423ATACADAO DISTRIBUICAO COMERCIO E I      QNL 01 ST L NORTE A/E 03 QD RESID AREA BBRASILIA                                70000000DF478090000202853778001064098   23042014007BRASILIA            1106201400000000000276488CC                                                                                                                                                                                                                                                                                                                                                                                                         000021
1007421068952COBR_CAUC_BIC  CAMP ALIMENTOS COM E DISTR LTDA         075315333001423ATACADAO DISTRIBUICAO COMERCIO E I      QNL 01 ST L NORTE A/E 03 QD RESID AREA BBRASILIA                                70000000DF478090000302853786001064099   23042014007BRASILIA            1206201400000000000276488CC                                                                                                                                                                                                                                                                                                                                                                                                         000022
1007421068952COBR_CAUC_BIC  CAMP ALIMENTOS COM E DISTR LTDA         075315333001423ATACADAO DISTRIBUICAO COMERCIO E I      QNL 01 ST L NORTE A/E 03 QD RESID AREA BBRASILIA                                70000000DF478090000402885572001064612   30042014016BRASILIA            2306201400000000000608253CC                                                                                                                                                                                                                                                                                                                                                                                                         000023
1007421068952COBR_CAUC_BIC  CAMP ALIMENTOS COM E DISTR LTDA         075315333001423ATACADAO DISTRIBUICAO COMERCIO E I      QNL 01 ST L NORTE A/E 03 QD RESID AREA BBRASILIA                                70000000DF478090000502885564001064613   30042014031BRASILIA            2406201400000000000530962CC                                                                                                                                                                                                                                                                                                                                                                                                         000024
1007421068952COBR_CAUC_BIC  CAMP ALIMENTOS COM E DISTR LTDA         075315333001423ATACADAO DISTRIBUICAO COMERCIO E I      QNL 01 ST L NORTE A/E 03 QD RESID AREA BBRASILIA                                70000000DF478090000602885581001064614   30042014016BRASILIA            2306201400000000000608253CC                                                                                                                                                                                                                                                                                                                                                                                                         000025
1007421068952COBR_CAUC_BIC  CAMP ALIMENTOS COM E DISTR LTDA         075315333001423ATACADAO DISTRIBUICAO COMERCIO E I      QNL 01 ST L NORTE A/E 03 QD RESID AREA BBRASILIA                                70000000DF478090000702895152001064874   06052014700BRASILIA            0506201400000000000627340CC                                                                                                                                                                                                                                                                                                                                                                                                         000026
1007421068952COBR_CAUC_COR  CAMP ALIMENTOS COM E DISTR LTDA         002847540000130ASSIS E BORGES LTDA                     RUA RAIMUNDO FILGUEIRAS,1723            BOA VISTA                               69309160RR4781000001028537430010640132  22042014700BANCO REAL- ABN AMRO1006201400000000000360312CC                                                                                                                                                                                                                                                                                                                                                                                                         000027
1007421068952COBR_CAUC_COR  CAMP ALIMENTOS COM E DISTR LTDA         002847540000130ASSIS E BORGES LTDA                     RUA RAIMUNDO FILGUEIRAS,1723            BOA VISTA                               69309160RR4781000002028537510010640133  22042014700BANCO REAL- ABN AMRO1706201400000000000360311CC                                                                                                                                                                                                                                                                                                                                                                                                         000028
1007421068952COBR_CAUC_BIC  CAMP ALIMENTOS COM E DISTR LTDA         052130481000404D'AVO SUPERMERCADO LTDA                 ESTRADA ITAQUERA - GUAIANAZES - 2000    SAO PAULO                               08420000SP478110000102853794001064114   23042014007PAULISTA            1406201400000000000345170CC                                                                                                                                                                                                                                                                                                                                                                                                         000029
1007421068952COBR_CAUC_BIC  CAMP ALIMENTOS COM E DISTR LTDA         052130481000404D'AVO SUPERMERCADO LTDA                 ESTRADA ITAQUERA - GUAIANAZES - 2000    SAO PAULO                               08420000SP478110000202853808001064117   23042014007PAULISTA            1406201400000000000174260CC                                                                                                                                                                                                                                                                                                                                                                                                         000030
1007421068952COBR_CAUC_BIC  CAMP ALIMENTOS COM E DISTR LTDA         052130481000404D'AVO SUPERMERCADO LTDA                 ESTRADA ITAQUERA - GUAIANAZES - 2000    SAO PAULO                               08420000SP478110000302853816001064118   23042014007PAULISTA            1406201400000000000284170CC                                                                                                                                                                                                                                                                                                                                                                                                         000031
1007421068952COBR_CAUC_COR  CAMP ALIMENTOS COM E DISTR LTDA         004082624000156IRMAOS GONCALVES COMERCIO E INDUST      R RICARDO CATANHEDE 814                 JARU                                    76890000RO478120000102933232001065539   20052014700BANCO REAL- ABN AMRO0407201400000000000818241CC                                                                                                                                                                                                                                                                                                                                                                                                         000032
1049421004706COBR_CAUC_COR  COOPERATIVA AGROINDUSTRIAL SALTO VE     006368045000108FRIAVES IND. DE ALIMENTOS LTDA          LINHA SUSPIRO BR 282 KM,0-INTERIOR      NOVA ERECHIM                            89865000SC4781300001004549415805.A      17052014700BANCO REAL- ABN AMRO1606201400000000002059680CC                                                                                                                                                                                                                                                                                                                                                                                                         000033
1049421004706COBR_CAUC_COR  COOPERATIVA AGROINDUSTRIAL SALTO VE     006368045000108FRIAVES IND. DE ALIMENTOS LTDA          LINHA SUSPIRO BR 282 KM,0-INTERIOR      NOVA ERECHIM                            89865000SC4781300002004548795805.B      17052014700BANCO REAL- ABN AMRO1906201400000000002059680CC                                                                                                                                                                                                                                                                                                                                                                                                         000034
1049421004706COBR_CAUC_COR  COOPERATIVA AGROINDUSTRIAL SALTO VE     006368045000108FRIAVES IND. DE ALIMENTOS LTDA          LINHA SUSPIRO BR 282 KM,0-INTERIOR      NOVA ERECHIM                            89865000SC4781300003004549255806.A      17052014700BANCO REAL- ABN AMRO1906201400000000002114560CC                                                                                                                                                                                                                                                                                                                                                                                                         000035
1049421004706COBR_CAUC_COR  COOPERATIVA AGROINDUSTRIAL SALTO VE     006368045000108FRIAVES IND. DE ALIMENTOS LTDA          LINHA SUSPIRO BR 282 KM,0-INTERIOR      NOVA ERECHIM                            89865000SC4781300004004549335806.B      17052014700BANCO REAL- ABN AMRO1906201400000000002114560CC                                                                                                                                                                                                                                                                                                                                                                                                         000036
1049421004706COBR_CAUC_COR  COOPERATIVA AGROINDUSTRIAL SALTO VE     006368045000108FRIAVES IND. DE ALIMENTOS LTDA          LINHA SUSPIRO BR 282 KM,0-INTERIOR      NOVA ERECHIM                            89865000SC4781300005004549095812.A      20052014700BANCO REAL- ABN AMRO1906201400000000002077600CC                                                                                                                                                                                                                                                                                                                                                                                                         000037
1049421004706COBR_CAUC_COR  COOPERATIVA AGROINDUSTRIAL SALTO VE     006368045000108FRIAVES IND. DE ALIMENTOS LTDA          LINHA SUSPIRO BR 282 KM,0-INTERIOR      NOVA ERECHIM                            89865000SC4781300006004549175812.B      20052014700BANCO REAL- ABN AMRO2206201400000000002077600CC                                                                                                                                                                                                                                                                                                                                                                                                         000038
1049421004706COBR_CAUC_COR  COOPERATIVA AGROINDUSTRIAL SALTO VE     006368045000108FRIAVES IND. DE ALIMENTOS LTDA          LINHA SUSPIRO BR 282 KM,0-INTERIOR      NOVA ERECHIM                            89865000SC4781300007004548875813.A      20052014700BANCO REAL- ABN AMRO1906201400000000002043800CC                                                                                                                                                                                                                                                                                                                                                                                                         000039
1049421004706COBR_CAUC_COR  COOPERATIVA AGROINDUSTRIAL SALTO VE     006368045000108FRIAVES IND. DE ALIMENTOS LTDA          LINHA SUSPIRO BR 282 KM,0-INTERIOR      NOVA ERECHIM                            89865000SC4781300008004548955813.B      20052014700BANCO REAL- ABN AMRO2206201400000000002043800CC                                                                                                                                                                                                                                                                                                                                                                                                         000040
1049421004706COBR_CAUC_COR  COOPERATIVA AGROINDUSTRIAL SALTO VE     006368045000108FRIAVES IND. DE ALIMENTOS LTDA          LINHA SUSPIRO BR 282 KM,0-INTERIOR      NOVA ERECHIM                            89865000SC4781300009004550425814        20052014700BANCO REAL- ABN AMRO1906201400000000002396640CC                                                                                                                                                                                                                                                                                                                                                                                                         000041
1049421004706COBR_CAUC_COR  COOPERATIVA AGROINDUSTRIAL SALTO VE     006368045000108FRIAVES IND. DE ALIMENTOS LTDA          LINHA SUSPIRO BR 282 KM,0-INTERIOR      NOVA ERECHIM                            89865000SC4781300010004545515828        23052014700BANCO REAL- ABN AMRO2206201400000000002471040CC                                                                                                                                                                                                                                                                                                                                                                                                         000042
1049421004706COBR_CAUC_COR  COOPERATIVA AGROINDUSTRIAL SALTO VE     006368045000108FRIAVES IND. DE ALIMENTOS LTDA          LINHA SUSPIRO BR 282 KM,0-INTERIOR      NOVA ERECHIM                            89865000SC4781300011004545695829.A      23052014700BANCO REAL- ABN AMRO2206201400000000002665850CC                                                                                                                                                                                                                                                                                                                                                                                                         000043
1049421004706COBR_CAUC_COR  COOPERATIVA AGROINDUSTRIAL SALTO VE     006368045000108FRIAVES IND. DE ALIMENTOS LTDA          LINHA SUSPIRO BR 282 KM,0-INTERIOR      NOVA ERECHIM                            89865000SC4781300012004545775829.B      23052014700BANCO REAL- ABN AMRO2506201400000000002665850CC                                                                                                                                                                                                                                                                                                                                                                                                         000044
1049421004706COBR_CAUC_COR  COOPERATIVA AGROINDUSTRIAL SALTO VE     006368045000108FRIAVES IND. DE ALIMENTOS LTDA          LINHA SUSPIRO BR 282 KM,0-INTERIOR      NOVA ERECHIM                            89865000SC4781300013004545005830        23052014700BANCO REAL- ABN AMRO2206201400000000002329920CC                                                                                                                                                                                                                                                                                                                                                                                                         000045
1049421004706COBR_CAUC_COR  COOPERATIVA AGROINDUSTRIAL SALTO VE     006368045000108FRIAVES IND. DE ALIMENTOS LTDA          LINHA SUSPIRO BR 282 KM,0-INTERIOR      NOVA ERECHIM                            89865000SC4781300014004544965836        26052014700BANCO REAL- ABN AMRO2506201400000000002392425CC                                                                                                                                                                                                                                                                                                                                                                                                         000046
1049421004706COBR_CAUC_COR  COOPERATIVA AGROINDUSTRIAL SALTO VE     006368045000108FRIAVES IND. DE ALIMENTOS LTDA          LINHA SUSPIRO BR 282 KM,0-INTERIOR      NOVA ERECHIM                            89865000SC4781300015004550265837.A      26052014700BANCO REAL- ABN AMRO2506201400000000002175250CC                                                                                                                                                                                                                                                                                                                                                                                                         000047
1049421004706COBR_CAUC_COR  COOPERATIVA AGROINDUSTRIAL SALTO VE     006368045000108FRIAVES IND. DE ALIMENTOS LTDA          LINHA SUSPIRO BR 282 KM,0-INTERIOR      NOVA ERECHIM                            89865000SC4781300016004550345837.B      26052014700BANCO REAL- ABN AMRO2806201400000000002175250CC                                                                                                                                                                                                                                                                                                                                                                                                         000048
1049421004706COBR_CAUC_COR  COOPERATIVA AGROINDUSTRIAL SALTO VE     006368045000108FRIAVES IND. DE ALIMENTOS LTDA          LINHA SUSPIRO BR 282 KM,0-INTERIOR      NOVA ERECHIM                            89865000SC4781300017004549685838.A      27052014700BANCO REAL- ABN AMRO2606201400000000003041162CC                                                                                                                                                                                                                                                                                                                                                                                                         000049
1049421004706COBR_CAUC_COR  COOPERATIVA AGROINDUSTRIAL SALTO VE     006368045000108FRIAVES IND. DE ALIMENTOS LTDA          LINHA SUSPIRO BR 282 KM,0-INTERIOR      NOVA ERECHIM                            89865000SC4781300018004549505838.B      27052014700BANCO REAL- ABN AMRO2906201400000000003041163CC                                                                                                                                                                                                                                                                                                                                                                                                         000050
1049421004706COBR_CAUC_COR  COOPERATIVA AGROINDUSTRIAL SALTO VE     006368045000108FRIAVES IND. DE ALIMENTOS LTDA          LINHA SUSPIRO BR 282 KM,0-INTERIOR      NOVA ERECHIM                            89865000SC4781300019004549765849        29052014700BANCO REAL- ABN AMRO2806201400000000001840935CC                                                                                                                                                                                                                                                                                                                                                                                                         000051
1049421004706COBR_CAUC_COR  COOPERATIVA AGROINDUSTRIAL SALTO VE     006368045000108FRIAVES IND. DE ALIMENTOS LTDA          LINHA SUSPIRO BR 282 KM,0-INTERIOR      NOVA ERECHIM                            89865000SC4781300020004549845851        29052014700BANCO REAL- ABN AMRO2806201400000000002310120CC                                                                                                                                                                                                                                                                                                                                                                                                         000052
1049421004706COBR_CAUC_COR  COOPERATIVA AGROINDUSTRIAL SALTO VE     006368045000108FRIAVES IND. DE ALIMENTOS LTDA          LINHA SUSPIRO BR 282 KM,0-INTERIOR      NOVA ERECHIM                            89865000SC4781300021004550695856.A      31052014700BANCO REAL- ABN AMRO3006201400000000002265123CC                                                                                                                                                                                                                                                                                                                                                                                                         000053
1049421004706COBR_CAUC_COR  COOPERATIVA AGROINDUSTRIAL SALTO VE     006368045000108FRIAVES IND. DE ALIMENTOS LTDA          LINHA SUSPIRO BR 282 KM,0-INTERIOR      NOVA ERECHIM                            89865000SC4781300022004550775856.B      31052014700BANCO REAL- ABN AMRO0307201400000000002265122CC                                                                                                                                                                                                                                                                                                                                                                                                         000054
1007421068952COBR_CAUC_COR  CAMP ALIMENTOS COM E DISTR LTDA         004356697000199INDUSTRIA DE CAFE MANAUS LTDA           AVE CASTELO BRANCO 164                  MANAUS                                  69065010AM4781400001028854080010623023  20032014700BANCO REAL- ABN AMRO3006201400000000000122928CC                                                                                                                                                                                                                                                                                                                                                                                                         000055
1007421068952COBR_CAUC_BIC  CAMP ALIMENTOS COM E DISTR LTDA         015462196000103MERCADINHO PARANA PRIMAVERA LTDA        ESTRADA DO ZIRCONIO      N: 1041        GUARULHOS                               07145000SP478150000102933283001065536   20052014007PAULISTA            1706201400000000000124534CC                                                                                                                                                                                                                                                                                                                                                                                                         000056
1007421068952COBR_CAUC_BIC  CAMP ALIMENTOS COM E DISTR LTDA         017504181000196SUPERMERCADO PARANA JANDAIA LTDA        SUPERMERCADO PARANA JANDAIA LTDA        CARAPICUIBA                             06330000SP478160000102933267001065534   20052014007PAULISTA            1706201400000000000165408CC                                                                                                                                                                                                                                                                                                                                                                                                         000057
1007421068952COBR_CAUC_BIC  CAMP ALIMENTOS COM E DISTR LTDA         050525146000129SUPERMERCADO PARANA CARAPICUIBA LT      AV INOCENCIO SERAFICO, 1894             CARAPICUIBA                             06380021SP478170000102933275001065535   20052014007PAULISTA            1606201400000000000167030CC                                                                                                                                                                                                                                                                                                                                                                                                         000058
1007421068952COBR_CAUC_BIC  CAMP ALIMENTOS COM E DISTR LTDA         056302953000169MERCADINHO PARANA OSASCO LTDA.          PRACA DICRAN ECHREFIAN, 12              OSASCO                                  06210010SP478180000102933259001065532   20052014007PAULISTA            1706201400000000000173416CC                                                                                                                                                                                                                                                                                                                                                                                                         000059
1007421068952COBR_CAUC_BIC  CAMP ALIMENTOS COM E DISTR LTDA         006000794000170SUPERMERCADO SANTOS LUZ LTDA            R MAGALI WESSEL 25                      ITAPEVI                                 06660750SP478190000102933241001065531   20052014007PAULISTA            1606201400000000000192048CC                                                                                                                                                                                                                                                                                                                                                                                                         000060
1007421068952COBR_CAUC_BIC  CAMP ALIMENTOS COM E DISTR LTDA         001767082000167EMPORIO LGB DIST DE PROD ALIMENTIC      AVENIDA SALLUM 1039                     SAO CARLOS                              13574040SP478200000102849835001064008   22042014022RIBEIRAO PRETO      0606201400000000000271040CC                                                                                                                                                                                                                                                                                                                                                                                                         000061
1007421068952COBR_CAUC_BIC  CAMP ALIMENTOS COM E DISTR LTDA         020096998000187COML AMARAL DE PROD ALIMENT EIRELI      R DR ALVARO GUIAO, 276                  SOROCABA                                18025120SP4782100001029151450010652681  12052014007PAULISTA            0906201400000000000148815CC                                                                                                                                                                                                                                                                                                                                                                                                         000062
1007421068952COBR_CAUC_BIC  CAMP ALIMENTOS COM E DISTR LTDA         020096998000187COML AMARAL DE PROD ALIMENT EIRELI      R DR ALVARO GUIAO, 276                  SOROCABA                                18025120SP4782100002029151530010652682  12052014007PAULISTA            1606201400000000000148815CC                                                                                                                                                                                                                                                                                                                                                                                                         000063
1007421068952COBR_CAUC_BIC  CAMP ALIMENTOS COM E DISTR LTDA         066825670000155KUCHOS DISTRIB DE PRODUTOS ALIMENT      RUA QUIRINO DOS SANTOS, 122 130 140     SAO PAULO                               01141020SP4782200001028854240010645641  30042014007PAULISTA            0906201400000000000147050CC                                                                                                                                                                                                                                                                                                                                                                                                         000064
1007421068952COBR_CAUC_BIC  CAMP ALIMENTOS COM E DISTR LTDA         066825670000155KUCHOS DISTRIB DE PRODUTOS ALIMENT      RUA QUIRINO DOS SANTOS, 122 130 140     SAO PAULO                               01141020SP4782200002028854320010645642  30042014007PAULISTA            1606201400000000000147050CC                                                                                                                                                                                                                                                                                                                                                                                                         000065
1007421068952COBR_CAUC_BIC  CAMP ALIMENTOS COM E DISTR LTDA         066825670000155KUCHOS DISTRIB DE PRODUTOS ALIMENT      RUA QUIRINO DOS SANTOS, 122 130 140     SAO PAULO                               01141020SP4782200003028854410010645643  30042014007PAULISTA            1906201400000000000147050CC                                                                                                                                                                                                                                                                                                                                                                                                         000066
1007421068952COBR_CAUC_BIC  CAMP ALIMENTOS COM E DISTR LTDA         061116828000102CALVO-COM E IMPORTACAO LT               AV RIO DAS PEDRAS, 2118                 SAO PAULO                               03432100SP478230000102915111001065270   13052014007PAULISTA            0107201400000000000155400CC                                                                                                                                                                                                                                                                                                                                                                                                         000067
1007421068952COBR_CAUC_BIC  CAMP ALIMENTOS COM E DISTR LTDA         061116828000102CALVO-COM E IMPORTACAO LT               AV RIO DAS PEDRAS, 2118                 SAO PAULO                               03432100SP478230000202915129001065271   13052014007PAULISTA            0107201400000000000328500CC                                                                                                                                                                                                                                                                                                                                                                                                         000068
9000027                                                                                                                                                                                                                                                                                                                                                                                                                                                                                                                                                                                                                                                                                                               000069
