0REMESSANOTIFICACAO ELETRONICA        99999999999999BICBANCO                                AV. PAULISTA                            1048      12.ANDAR  BELA VISTA                    SAO PAULO                     01310100SP1121739360CORTINHAL                               COORDENADOR                             22062012                                                                                                                                                                                                                                                                                                                                                                                      000001
1036421015412COBR_CAUC_BIC  IPERFOR INDUSTRIAL LTDA                 061497947000144CIP CIA INDL DE PECAS                   AV.MONTEIRO LOBATO,2487                 GUARULHOS                               07190000SP36067000010587376460761       21062012037GUARULHOS           1507201200000000011049798CC                                                                                                                                                                                                                                                                                                                                                                                                         000002
1038421011812COBR_CAUC_BIC  ENERGY COML IMPORT E EXPORT LTDA        009363567000105PREMIX BRASIL RESINAS                   ALAMEDA ARAGU,2044-CJ703A705TORRE2      SAO PAULO                               06455000SP3606800001096718431047        14062012007PAULISTA            2707201200000000012237706CC                                                                                                                                                                                                                                                                                                                                                                                                         000003
1038421011812COBR_CAUC_BIC  ENERGY COML IMPORT E EXPORT LTDA        009363567000105PREMIX BRASIL RESINAS                   ALAMEDA ARAGU,2044-CJ703A705TORRE2      SAO PAULO                               06455000SP3606800002096718511048        14062012007PAULISTA            2707201200000000012237706CC                                                                                                                                                                                                                                                                                                                                                                                                         000004
1038421011812COBR_CAUC_BIC  ENERGY COML IMPORT E EXPORT LTDA        009363567000105PREMIX BRASIL RESINAS                   ALAMEDA ARAGU,2044-CJ703A705TORRE2      SAO PAULO                               06455000SP3606800003096718601061        18062012007PAULISTA            0208201200000000012363459CC                                                                                                                                                                                                                                                                                                                                                                                                         000005
1038421011812COBR_CAUC_BIC  ENERGY COML IMPORT E EXPORT LTDA        009363567000105PREMIX BRASIL RESINAS                   ALAMEDA ARAGU,2044-CJ703A705TORRE2      SAO PAULO                               06455000SP3606800004096718781072        19062012007PAULISTA            0308201200000000012397371CC                                                                                                                                                                                                                                                                                                                                                                                                         000006
1038421011812COBR_CAUC_BIC  ENERGY COML IMPORT E EXPORT LTDA        009363567000105PREMIX BRASIL RESINAS                   ALAMEDA ARAGU,2044-CJ703A705TORRE2      SAO PAULO                               06455000SP3606800005096718861073        19062012007PAULISTA            0308201200000000012397371CC                                                                                                                                                                                                                                                                                                                                                                                                         000007
1010421023570DIR_CREDIT     AGRO INDUSTRIAL TABU S.A.               050706019000126CAMPARI DO BRASIL LTDA                  ALAMEDA RIO NEGRO, 585 CJ 62            ALPHAVILLE                              06454000SP3606900001                                                                                                                                          011804710           010920110000021042252         03052012000453FORNECIMENTO DE DESTILADO ALCOOLICO DE CANA                                                                                                                                                                                                     009053646000101              000008
1028421001348DIR_CREDIT     ELETROSOM S/A                           062421979000129BANCO GE CAPITAL SA - ATUAL BANCO CIFRA AVENIDA DO CAFé, 277 - 3 ANDAR TORRE A  SAO PAULO                               04311000SP3607100001                                                                                                                                          001184086           080620040000010310            04062012003313Financiamento de compra dos produtos vendidos pela Rede Eletrosom.                                                                                                                                                                              022164990000136              000009
9000004                                                                                                                                                                                                                                                                                                                                                                                                                                                                                                                                                                                                                                                                                                               000010
