0REMESSANOTIFICACAO ELETRONICA        99999999999999BICBANCO                                AV. PAULISTA                            1048      12.ANDAR  BELA VISTA                    SAO PAULO                     01310100SP1121739360CORTINHAL                               COORDENADOR                             06092013                                                                                                                                                                                                                                                                                                                                                                                      000001
1009421012831COBR_CAUC_COR  ASA ALIMENTOS S/A                       009587239000427COOPERATIVA MISTA DOS AVICULT. DO       ESTRADA TERESINA UNIAO ZONA LESTE       TERESINA                                64058305PI4398300001001469050042192     05092013900BRADESCO S/A        2609201300000000010750320CC                                                                                                                                                                                                                                                                                                                                                                                                         000002
1046421007085COBR_CAUC_BIC  H.F.SISTEMAS DE FREIO LTDA              011509676000121AUTO NORTE DISTRIBUIDORA DE PECAS       R PROFESSOR NESTOR BEZERRA, N266  C.U.C RECIFE                                  50950150PE439870000102092917016150      05092013010RECIFE              1912201300000000015577569CC                                                                                                                                                                                                                                                                                                                                                                                                         000003
1046421007085COBR_CAUC_BIC  H.F.SISTEMAS DE FREIO LTDA              011509676000121AUTO NORTE DISTRIBUIDORA DE PECAS       R PROFESSOR NESTOR BEZERRA, N266  C.U.C RECIFE                                  50950150PE439870000202092895016134      05092013013RECIFE              1912201300000000015053984CC                                                                                                                                                                                                                                                                                                                                                                                                         000004
1016421001058COBR_CAUC_COR  MONTANA INDUSTRIA DE MAQUINAS SA        008204291000141COMERCIAL AGRICOLA POSSOBON LTDA        RUA PAULO ROEPKE,602                    RESTINGA SECA                           97200000RS4398400001041193290043024/01  29082013900BRADESCO S/A        2810201300000000016300000CC                                                                                                                                                                                                                                                                                                                                                                                                         000005
1022421009730COBR_CAUC_COR  SIMISA SIMIONI METALURGICA LTDA         005461642000101SIMEX SIMIONI IMPORTADORA E EXPORT      MARG ANTONIO W.MARTINELLI 3013          SERTAOZINHO                             14175360SP43985000010461863640719/01    21082013600HSBC BANK BRASIL    2510201300000000022197555CC                                                                                                                                                                                                                                                                                                                                                                                                         000006
1022421009730COBR_CAUC_COR  SIMISA SIMIONI METALURGICA LTDA         005461642000101SIMEX SIMIONI IMPORTADORA E EXPORT      MARG ANTONIO W.MARTINELLI 3013          SERTAOZINHO                             14175360SP43985000020461864440705/01    30082013600HSBC BANK BRASIL    2811201300000000030769193CC                                                                                                                                                                                                                                                                                                                                                                                                         000007
1022421009730COBR_CAUC_BIC  SIMISA SIMIONI METALURGICA LTDA         033390170001312APERAM INOX AMERICA DO SUL SA           AV JOAO PINHEIRO, 580                   BELO HORIZONTE                          30130180MG43986000010461862858954/04    22082013019BELO HORIZONTE      1010201300000000019000000CC                                                                                                                                                                                                                                                                                                                                                                                                         000008
9000005                                                                                                                                                                                                                                                                                                                                                                                                                                                                                                                                                                                                                                                                                                               000009
