0REMESSANOTIFICACAO ELETRONICA        99999999999999BICBANCO                                AV. PAULISTA                            1048      12.ANDAR  BELA VISTA                    SAO PAULO                     01310100SP1121739360CORTINHAL                               COORDENADOR                             07112011                                                                                                                                                                                                                                                                                                                                                                                      000001
1046421001141COBR_CAUC_COR  COQUE SUL BRASILEIRO INDUSTRIA E C      084683374000300TUPY S.A./JLLE                          RUA ALBANO SCHMIDT, 3400                JOINVILLE                               89227901SC317800000101305399000004394   25102011800UNIBANCO S/A        2211201100000000004075500CC                                                                                                                                                                                                                                                                                                                                                                                                         000002
1046421001141COBR_CAUC_COR  COQUE SUL BRASILEIRO INDUSTRIA E C      084683374000300TUPY S.A./JLLE                          RUA ALBANO SCHMIDT, 3400                JOINVILLE                               89227901SC317800000201305402000004393   25102011800UNIBANCO S/A        2211201100000000004102176CC                                                                                                                                                                                                                                                                                                                                                                                                         000003
1046421001141COBR_CAUC_COR  COQUE SUL BRASILEIRO INDUSTRIA E C      084683374000300TUPY S.A./JLLE                          RUA ALBANO SCHMIDT, 3400                JOINVILLE                               89227901SC317800000301307618000004408   26102011800UNIBANCO S/A        2311201100000000004687566CC                                                                                                                                                                                                                                                                                                                                                                                                         000004
1046421001141COBR_CAUC_COR  COQUE SUL BRASILEIRO INDUSTRIA E C      084683374000300TUPY S.A./JLLE                          RUA ALBANO SCHMIDT, 3400                JOINVILLE                               89227901SC317800000401307626000004409   26102011800UNIBANCO S/A        2311201100000000004478604CC                                                                                                                                                                                                                                                                                                                                                                                                         000005
1046421001141COBR_CAUC_COR  COQUE SUL BRASILEIRO INDUSTRIA E C      084683374000300TUPY S.A./JLLE                          RUA ALBANO SCHMIDT, 3400                JOINVILLE                               89227901SC317800000501313731000004429   01112011800UNIBANCO S/A        2911201100000000004081428CC                                                                                                                                                                                                                                                                                                                                                                                                         000006
1046421001141COBR_CAUC_COR  COQUE SUL BRASILEIRO INDUSTRIA E C      084683374000300TUPY S.A./JLLE                          RUA ALBANO SCHMIDT, 3400                JOINVILLE                               89227901SC317800000601313740000004430   01112011800UNIBANCO S/A        2911201100000000004330404CC                                                                                                                                                                                                                                                                                                                                                                                                         000007
1046421001141COBR_CAUC_COR  COQUE SUL BRASILEIRO INDUSTRIA E C      084683374000300TUPY S.A./JLLE                          RUA ALBANO SCHMIDT, 3400                JOINVILLE                               89227901SC317800000701313758000004433   03112011800UNIBANCO S/A        0112201100000000004692012CC                                                                                                                                                                                                                                                                                                                                                                                                         000008
1046421001141COBR_CAUC_COR  COQUE SUL BRASILEIRO INDUSTRIA E C      084683374000300TUPY S.A./JLLE                          RUA ALBANO SCHMIDT, 3400                JOINVILLE                               89227901SC317800000801313766000004436   03112011800UNIBANCO S/A        0112201100000000004176276CC                                                                                                                                                                                                                                                                                                                                                                                                         000009
1046421001141COBR_CAUC_COR  COQUE SUL BRASILEIRO INDUSTRIA E C      084683374000300TUPY S.A./JLLE                          RUA ALBANO SCHMIDT, 3400                JOINVILLE                               89227901SC317800000901313774000004437   03112011800UNIBANCO S/A        0112201100000000004099212CC                                                                                                                                                                                                                                                                                                                                                                                                         000010
1007421054498DIR_CREDIT     LUMEN EMPREENDIMENTOS IMOBILIARIOS      067405936000173PEUGEOT CITROEN DO BRASIL AUTOMOVEIS LTDAV RENATO MONTEIRO, 6901 POLO URB AGRO. PORTO REAL                              27570000RJ3161900001                                                                                                                                          481055745           030520110000018655            14102011000404locação do imóvel pela Locadora à Locatária,em caráter atípico.                                                                                                                                                                                 012298333000128              000011
1021141012725COBR_CAUC_BIC  MABE BRASIL ELETRODOMESTICOS LTDA       010757237010723NOVA CASA BAHIA S/A                     RODOVIA ANHANGUERA 0, S/N KM52          13203850                                13203850SP3175700001062263680000034686  03112011007PAULISTA            2211201100000000010072961TD                                                                                                                                                                                                                                                                                                                                                                                                         000012
1021141012725COBR_CAUC_BIC  MABE BRASIL ELETRODOMESTICOS LTDA       010757237010723NOVA CASA BAHIA S/A                     RODOVIA ANHANGUERA 0, S/N KM52          13203850                                13203850SP3175700002062263760000034668  03112011007PAULISTA            2211201100000000010311369TD                                                                                                                                                                                                                                                                                                                                                                                                         000013
1021141012725COBR_CAUC_BIC  MABE BRASIL ELETRODOMESTICOS LTDA       010757237010723NOVA CASA BAHIA S/A                     RODOVIA ANHANGUERA 0, S/N KM52          13203850                                13203850SP3175700003062263840000034696  03112011007PAULISTA            2211201100000000010311369TD                                                                                                                                                                                                                                                                                                                                                                                                         000014
1021141012725COBR_CAUC_BIC  MABE BRASIL ELETRODOMESTICOS LTDA       010757237010723NOVA CASA BAHIA S/A                     RODOVIA ANHANGUERA 0, S/N KM52          13203850                                13203850SP3175700004062264140000034701  03112011007PAULISTA            2211201100000000010504099TD                                                                                                                                                                                                                                                                                                                                                                                                         000015
1021141012725COBR_CAUC_BIC  MABE BRASIL ELETRODOMESTICOS LTDA       010757237010723NOVA CASA BAHIA S/A                     RODOVIA ANHANGUERA 0, S/N KM52          13203850                                13203850SP3175700005062264220000034788  04112011007PAULISTA            2211201100000000010582488TD                                                                                                                                                                                                                                                                                                                                                                                                         000016
1021141012725COBR_CAUC_BIC  MABE BRASIL ELETRODOMESTICOS LTDA       010757237010723NOVA CASA BAHIA S/A                     RODOVIA ANHANGUERA 0, S/N KM52          13203850                                13203850SP3175700006062263920000034660  03112011014PAULISTA            2211201100000000010337996TD                                                                                                                                                                                                                                                                                                                                                                                                         000017
1021141012725COBR_CAUC_BIC  MABE BRASIL ELETRODOMESTICOS LTDA       010757237010723NOVA CASA BAHIA S/A                     RODOVIA ANHANGUERA 0, S/N KM52          13203850                                13203850SP3175700007062264060000034698  03112011014PAULISTA            2211201100000000010337996TD                                                                                                                                                                                                                                                                                                                                                                                                         000018
1021141012725COBR_CAUC_BIC  MABE BRASIL ELETRODOMESTICOS LTDA       010757237010723NOVA CASA BAHIA S/A                     RODOVIA ANHANGUERA 0, S/N KM52          13203850                                13203850SP3175700008062264490000034730  03112011014PAULISTA            2211201100000000011139674TD                                                                                                                                                                                                                                                                                                                                                                                                         000019
1021141012725COBR_CAUC_BIC  MABE BRASIL ELETRODOMESTICOS LTDA       010757237010723NOVA CASA BAHIA S/A                     RODOVIA ANHANGUERA 0, S/N KM52          13203850                                13203850SP3175700009062264570000034787  04112011014PAULISTA            2211201100000000011416424TD                                                                                                                                                                                                                                                                                                                                                                                                         000020
1021141012725COBR_CAUC_BIC  MABE BRASIL ELETRODOMESTICOS LTDA       010757237010723NOVA CASA BAHIA S/A                     RODOVIA ANHANGUERA 0, S/N KM52          13203850                                13203850SP3175700010062264650000034828  04112011014PAULISTA            2211201100000000011416424TD                                                                                                                                                                                                                                                                                                                                                                                                         000021
1021141012725COBR_CAUC_BIC  MABE BRASIL ELETRODOMESTICOS LTDA       010757237010723NOVA CASA BAHIA S/A                     RODOVIA ANHANGUERA 0, S/N KM52          13203850                                13203850SP3175700011062264310000034661  03112011022PAULISTA            2211201100000000010670507TD                                                                                                                                                                                                                                                                                                                                                                                                         000022
1007421032516COBR_CAUC_BIC  NITRIFLEX SP IND E COM DE BORRACHAS     049327943000201DAY BRASIL S/A                          AV. MASRQUES DE SAO VICENTE, 1213       SAO PAULO                               01139901SP317580000100901571000761701   04112011007PAULISTA            1811201100000000018706275CC                                                                                                                                                                                                                                                                                                                                                                                                         000023
1044421010977COBR_CAUC_BIC  FEDCO INDUSTRIA E COMERCIO LTDA         006626253012400EMPREENDIMENTOS PAGUE MENOS S/A         R. FRANCISCO CORDEIRO                   FORTALEZA                               60310490CE317590000101368956015669/1.1  25102011003CENTRO              0203201200000000011872937CC                                                                                                                                                                                                                                                                                                                                                                                                         000024
9000005                                                                                                                                                                                                                                                                                                                                                                                                                                                                                                                                                                                                                                                                                                               000025
