0REMESSANOTIFICACAO ELETRONICA        99999999999999BICBANCO                                AV. PAULISTA                            1048      12.ANDAR  BELA VISTA                    SAO PAULO                     01310100SP1121739360CORTINHAL                               COORDENADOR                             30052012                                                                                                                                                                                                                                                                                                                                                                                      000001
1021141012725COBR_CAUC_BIC  MABE BRASIL ELETRODOMESTICOS LTDA       043708379000100FAST SHOP COMERCIAL LTDA                AV ZAKI NARCHI 1664, SOBRE LOJA         SAO PAULO                               02029001SP3563600001063332700000745037  28052012007PAULISTA            2007201200000000014487630TD                                                                                                                                                                                                                                                                                                                                                                                                         000002
1049421001200COBR_CAUC_COR  LATICINIOS CORDILAT LTDA                001838723010432BRF BRASIL FOODS S.A                    RUA JORGE TZACHEL,475 FAZENDA           ITAJAI                                  88301600SC356570000100320937N26850/A    14052012800UNIBANCO S/A        1206201200000000003220000CC                                                                                                                                                                                                                                                                                                                                                                                                         000003
1049421001200COBR_CAUC_COR  LATICINIOS CORDILAT LTDA                001838723010432BRF BRASIL FOODS S.A                    RUA JORGE TZACHEL,475 FAZENDA           ITAJAI                                  88301600SC356570000200320945N26852/A    14052012800UNIBANCO S/A        1206201200000000003220000CC                                                                                                                                                                                                                                                                                                                                                                                                         000004
1049421001200COBR_CAUC_COR  LATICINIOS CORDILAT LTDA                001838723010432BRF BRASIL FOODS S.A                    RUA JORGE TZACHEL,475 FAZENDA           ITAJAI                                  88301600SC356570000300322778N26923/A    18052012800UNIBANCO S/A        1206201200000000003220000CC                                                                                                                                                                                                                                                                                                                                                                                                         000005
1049421001200COBR_CAUC_COR  LATICINIOS CORDILAT LTDA                001838723010432BRF BRASIL FOODS S.A                    RUA JORGE TZACHEL,475 FAZENDA           ITAJAI                                  88301600SC356570000400322751N26927/A    19052012800UNIBANCO S/A        1206201200000000003220000CC                                                                                                                                                                                                                                                                                                                                                                                                         000006
1049421001200COBR_CAUC_COR  LATICINIOS CORDILAT LTDA                001838723010432BRF BRASIL FOODS S.A                    RUA JORGE TZACHEL,475 FAZENDA           ITAJAI                                  88301600SC356570000500322760N26928/A    19052012800UNIBANCO S/A        1206201200000000003220000CC                                                                                                                                                                                                                                                                                                                                                                                                         000007
9000002                                                                                                                                                                                                                                                                                                                                                                                                                                                                                                                                                                                                                                                                                                               000008
