0REMESSANOTIFICACAO ELETRONICA        99999999999999BICBANCO                                AV. PAULISTA                            1048      12.ANDAR  BELA VISTA                    SAO PAULO                     01310100SP1121739360CORTINHAL                               COORDENADOR                             03072013                                                                                                                                                                                                                                                                                                                                                                                      000001
1018420932820COBR_CAUC_BIC  ADUBOS ARAGUAIA IND. E COM. LTDA        053311361005265COOP DOS AGRIC DA REG DE ORLANDIA       RUA SEIS 1676                           ORLANDIA                                14620000SP4285100001033037170008541801  25062013022RIBEIRAO PRETO      0408201300000000019372386CC                                                                                                                                                                                                                                                                                                                                                                                                         000002
1018420932820COBR_CAUC_COR  ADUBOS ARAGUAIA IND. E COM. LTDA        000019973667972PEDRO BONETTI                           RODOVIA MARG ESQ ROD BR 158 15 S N      AGUA BOA                                78635000MT4285300001033038650002965201  01072013800UNIBANCO S/A        3007201300000000037739435CC                                                                                                                                                                                                                                                                                                                                                                                                         000003
1018420932820COBR_CAUC_COR  ADUBOS ARAGUAIA IND. E COM. LTDA        000019077262172FELEMON DOS REIS CALCADO                RUA GETULIO VARGAS N(O)759 S/N          CRISTALINA                              73850000GO4285200001033038810002951601  25062013900BRADESCO S/A        3009201300000000048000000CC                                                                                                                                                                                                                                                                                                                                                                                                         000004
1007421067336COBR_CAUC_COR  AMEPLAN ASSIST MEDICA PLANEJADA         011031202000117MOBIBRASIL TRANSPORTE URBANO LTDA       R. GENARO DE CARVALHO,145               SAO PAULO                               04377220SP42858000010000037951240       01072013900BRADESCO S/A        2507201300000000014190130CC                                                                                                                                                                                                                                                                                                                                                                                                         000005
1010421024356COBR_CAUC_COR  DIST EQUADOR DE PROD PETROLEO LTDA      000940665000185AUTO POSTO AMAZONMINAS LTDA - ME        AV MINAS GERAIS, 747                    BOA VISTA                               69305660RR42859000010003507898315       01072013900BRADESCO S/A        0807201300000000011868000CC                                                                                                                                                                                                                                                                                                                                                                                                         000006
1014420939021COBR_CAUC_BIC  EDITORA O DIA S/A                       002449992000164VIVO S/A  A/C F.LOPES PUBL.             HIGIENOPOLIS,1365                       RIO DE JANEIRO                          20011001RJ4285400001025335050689810     30062013014RIO DE JANEIRO      3007201300000000015755270CC                                                                                                                                                                                                                                                                                                                                                                                                         000007
1014420939021COBR_CAUC_BIC  EDITORA O DIA S/A                       033747288000111FEDER.EMPR.TRANSP.RODOV.LESTE M.BR      RUA DA ASSEMBLEIA 10 39 A/C. SR.ED      RIO DE JANEIRO                          20119900RJ4285600001025340050691588     30062013014RIO DE JANEIRO      3007201300000000012800000CC                                                                                                                                                                                                                                                                                                                                                                                                         000008
1014420939021COBR_CAUC_BIC  EDITORA O DIA S/A                       033041260065290VIA VAREJO S/A                          PREFEITO DULCIDIO CARDOSO, 2000         RIO DE JANEIRO                          22640085RJ4285500001025337420690011     30062013014RIO DE JANEIRO      0508201300000000029063503CC                                                                                                                                                                                                                                                                                                                                                                                                         000009
1018421018863COBR_CAUC_COR  PIVOT EQUIPAMENTOS AGRI E IRRI LTDA     000082410771815LUSENRIQUE QUINTAL                      AV LAURO CORREA DA SILVA, 3233 -        LIMEIRA                                 13481631SP42857000010000416618748 3     19062013900BRADESCO S/A        1509201300000000026150000CC                                                                                                                                                                                                                                                                                                                                                                                                         000010
1019421004658COBR_CAUC_COR  S/A ESTADO DE MINAS                     016978907000160ETG GLOBAL INVESTIMENTOS LTDA           NACOES UNIDAS 12995 10 ANDAR            SAO PAULO                               04578911SP4284900001012485251863647-1   30062013900BRADESCO S/A        3007201300000000010093824CC                                                                                                                                                                                                                                                                                                                                                                                                         000011
1019421004658COBR_CAUC_COR  S/A ESTADO DE MINAS                     016978907000160ETG GLOBAL INVESTIMENTOS LTDA           NACOES UNIDAS 12995 10 ANDAR            SAO PAULO                               04578911SP4284900002012487201863652-1   30062013900BRADESCO S/A        3007201300000000030281480CC                                                                                                                                                                                                                                                                                                                                                                                                         000012
1009420930764COBR_CAUC_BIC  SA CORREIO BRAZILIENSE                  009109567001902LA HOTELS EMPREENDIMENTOS 1 LTDA        SHTN NORTE 01 CONJUNTO 1BBLOCO C ASA NORBRASILIA                                70800200DF4285000001014028081732-1      30062013009BRASILIA            1507201300000000034000000CC                                                                                                                                                                                                                                                                                                                                                                                                         000013
9000011                                                                                                                                                                                                                                                                                                                                                                                                                                                                                                                                                                                                                                                                                                               000014
