0REMESSANOTIFICACAO ELETRONICA        99999999999999BICBANCO                                AV. PAULISTA                            1048      12.ANDAR  BELA VISTA                    SAO PAULO                     01310100SP1121739360CORTINHAL                               COORDENADOR                             10032014                                                                                                                                                                                                                                                                                                                                                                                      000001
1036421016893COBR_CAUC_COR  TECAL ALUMINIO DA AMAZONIA LTDA         004012043000148SHOWA DO BRASIL LTDA                    RUA RIO QUIXITO                         MANAUS                                  69075830AM4667100001059976920000057419  26022014900BRADESCO S/A        2803201400000000015363865CC                                                                                                                                                                                                                                                                                                                                                                                                         000002
1016421019267COBR_CAUC_BIC  COBRAZEM AGROINDUSTRIAL LTDA            076108349000103CASTROLANDA COOP. AGROINDUSTRIAL L      ROD. PR 340 KM 195 + 490 MTS,0          CASTRO                                  84160000PR4667200001044081770013482-1   27022014016CURITIBA            0704201400000000046875000CC                                                                                                                                                                                                                                                                                                                                                                                                         000003
1016421019267COBR_CAUC_BIC  COBRAZEM AGROINDUSTRIAL LTDA            076108349000103CASTROLANDA COOP. AGROINDUSTRIAL L      ROD. PR 340 KM 195 + 490 MTS,0          CASTRO                                  84160000PR4667200002044081850013483-1   27022014016CURITIBA            0704201400000000046875000CC                                                                                                                                                                                                                                                                                                                                                                                                         000004
1046421001443COBR_CAUC_COR  COSTAO DO SANTINHO TUR E LAZER LTDA     000027976000158MM ASSESSORIA EVENTOS E CONGRESSOS      AV. PAULISTA - ,1439-3O AND.CJ.33/      SAO PAULO                               01311200SP466730000100013475204086      28022014900BRADESCO S/A        2703201400000000197782346CC                                                                                                                                                                                                                                                                                                                                                                                                         000005
1048421003043COBR_CAUC_COR  FRIGOL S.A. EM RECUPERACAO JUDICIAL     008029696000352ESTIVAS NOVO PRADO LTDA                 VINTE DE JANEIRO 958                    RECIFE                                  51130120PE4667400001000692040000033875  07032014900BRADESCO S/A        1703201400000000022103235CC                                                                                                                                                                                                                                                                                                                                                                                                         000006
1018421034869COBR_CAUC_COR  L ANNO IND E COM DE LATICINIOS LTDA     009040746000284DFB DIST D PROD FRIOS ALIMENTICIOS      RUA MARGINAL, 3 QUADRA J                PETROLINA                               56308422PE4667500001036249980010421     25022014900BRADESCO S/A        2503201400000000010406333CC                                                                                                                                                                                                                                                                                                                                                                                                         000007
9000005                                                                                                                                                                                                                                                                                                                                                                                                                                                                                                                                                                                                                                                                                                               000008
