0REMESSANOTIFICACAO ELETRONICA        99999999999999BICBANCO                                AV. PAULISTA                            1048      12.ANDAR  BELA VISTA                    SAO PAULO                     01310100SP1121739360CORTINHAL                               COORDENADOR                             13032013                                                                                                                                                                                                                                                                                                                                                                                      000001
1036421019213COBR_CAUC_COR  COTONIFICIO DE ANDIRA S/A               010474553000130MALHAS MENEGOTTI IND TEXTIL LTDA        R.JOAQUIM FRCO DE PAULA, 4850 PREDIO    JARAGUA DO SUL                          89254710SC40857000010593344901151801    09032013800UNIBANCO S/A        0804201300000000010527385CC                                                                                                                                                                                                                                                                                                                                                                                                         000002
1008420934067COBR_CAUC_BIC  EMPRESA JORNALISTICA O POVO S/A         007206816000115M DIAS BRANCO S/A INDUSTRIA E COME      R ALCINO GUANABARA,25 18º ANDAR         RIO DE JANEIRO                          20031130RJ40856000010885345417542       11032013014RIO DE JANEIRO      1004201300000000017366616CC                                                                                                                                                                                                                                                                                                                                                                                                         000003
1016421013250COBR_CAUC_COR  INSOL INTE.DO BRASIL IND E COM S/A      044022424000556TRIANGULO ALIMENTOS LTDA                AV JOSE DE BARROS RIBEIRO,168           ITAPOLIS                                14900000SP4087400001039309707587        01032013800UNIBANCO S/A        0104201300000000007617960CC                                                                                                                                                                                                                                                                                                                                                                                                         000004
1016421013250COBR_CAUC_COR  INSOL INTE.DO BRASIL IND E COM S/A      044022424000556TRIANGULO ALIMENTOS LTDA                AV JOSE DE BARROS RIBEIRO,168           ITAPOLIS                                14900000SP4087400002039309887591        01032013800UNIBANCO S/A        0104201300000000007635600CC                                                                                                                                                                                                                                                                                                                                                                                                         000005
1016421013250COBR_CAUC_COR  INSOL INTE.DO BRASIL IND E COM S/A      044022424000556TRIANGULO ALIMENTOS LTDA                AV JOSE DE BARROS RIBEIRO,168           ITAPOLIS                                14900000SP4087400003039309967595        01032013800UNIBANCO S/A        0104201300000000009248400CC                                                                                                                                                                                                                                                                                                                                                                                                         000006
1016421013250COBR_CAUC_COR  INSOL INTE.DO BRASIL IND E COM S/A      044022424000556TRIANGULO ALIMENTOS LTDA                AV JOSE DE BARROS RIBEIRO,168           ITAPOLIS                                14900000SP4087400004039310037598        01032013800UNIBANCO S/A        0204201300000000008981280CC                                                                                                                                                                                                                                                                                                                                                                                                         000007
1016421013250COBR_CAUC_COR  INSOL INTE.DO BRASIL IND E COM S/A      044022424000556TRIANGULO ALIMENTOS LTDA                AV JOSE DE BARROS RIBEIRO,168           ITAPOLIS                                14900000SP4087400005039310117629        06032013800UNIBANCO S/A        0504201300000000006310080CC                                                                                                                                                                                                                                                                                                                                                                                                         000008
1016421013250COBR_CAUC_COR  INSOL INTE.DO BRASIL IND E COM S/A      044022424000556TRIANGULO ALIMENTOS LTDA                AV JOSE DE BARROS RIBEIRO,168           ITAPOLIS                                14900000SP4087400006039310207633        06032013800UNIBANCO S/A        0504201300000000007575120CC                                                                                                                                                                                                                                                                                                                                                                                                         000009
1016421013250COBR_CAUC_COR  INSOL INTE.DO BRASIL IND E COM S/A      044022424000556TRIANGULO ALIMENTOS LTDA                AV JOSE DE BARROS RIBEIRO,168           ITAPOLIS                                14900000SP4087400007039310387662        08032013800UNIBANCO S/A        0804201300000000008913240CC                                                                                                                                                                                                                                                                                                                                                                                                         000010
1018421018863COBR_CAUC_COR  PIVOT EQUIPAMENTOS AGRI E IRRI LTDA     000094458278649GALBA VIEIRA CORDEIRO JUNIOR            RUA MACHADO DE ASSIS, 25 -              PARACATU                                38600000MG4085800001000011089170 3      08032013900BRADESCO S/A        3006201300000000017000000CC                                                                                                                                                                                                                                                                                                                                                                                                         000011
1018421018863COBR_CAUC_COR  PIVOT EQUIPAMENTOS AGRI E IRRI LTDA     000094458278649GALBA VIEIRA CORDEIRO JUNIOR            RUA MACHADO DE ASSIS, 25 -              PARACATU                                38600000MG4085800002000011169170 4      08032013900BRADESCO S/A        3007201300000000017000000CC                                                                                                                                                                                                                                                                                                                                                                                                         000012
9000004                                                                                                                                                                                                                                                                                                                                                                                                                                                                                                                                                                                                                                                                                                               000013
