0REMESSANOTIFICACAO ELETRONICA        99999999999999BICBANCO                                AV. PAULISTA                            1048      12.ANDAR  BELA VISTA                    SAO PAULO                     01310100SP1121739360CORTINHAL                               COORDENADOR                             17122012                                                                                                                                                                                                                                                                                                                                                                                      000001
1021421015236COBR_CAUC_COR  AGRARIA INDUSTRIA E COMERCIO LTDA       011586646000119EMPRESA DE COMERCIO AGRICOLA LTDA.      AVMINISTRO OLAVO ,955                   ARAXA                                   38190510MG3934100001063609780000006143  17102012800UNIBANCO S/A        3103201300000000014256670CC                                                                                                                                                                                                                                                                                                                                                                                                         000002
1046421001443COBR_CAUC_COR  COSTAO DO SANTINHO TUR E LAZER LTDA     073431686000149KONTIK FRANSTUR VIAGENS E TURISMO       AVENIDA ANTONIO CARLOS MAGALH,3244      SALVADOR                                41800700BA393390000100008960153761      14122012900BRADESCO S/A        1001201300000000016612898CC                                                                                                                                                                                                                                                                                                                                                                                                         000003
1021420930887COBR_CAUC_BIC  DEDINI S/A INDUSTRIAS DE BASE           005635291001260GE OIL   GAS DO BRASIL LTDA             PC ALCIDES PEREIRA, ILHA DA CONCEICAO BRNITEROI                                 24050350RJ39338000010636095123405-1-1   13122012014RIO DE JANEIRO      2701201300000000021370000CC                                                                                                                                                                                                                                                                                                                                                                                                         000004
1031421010495COBR_CAUC_BIC  FOREMAN CONFECCOES LTDA                 009054385005707INBRANDS S/A                            CORONEL LUIS BARROSO               151  SAO PAULO                               04750030SP393400000105140712019810/01   13122012007PAULISTA            1803201300000000013365852CC                                                                                                                                                                                                                                                                                                                                                                                                         000005
1007421060307COBR_CAUC_BIC  ROTHENBERG COMERCIO DE PERFUMES E C     027197888007597DUFRY DO BRASIL DUTY FREE SHOP LTD      R ESTRELA D OESTE 124                   GUARULHOS                               07140030SP393420000101625461RR4083026   29112012037GUARULHOS           0702201300000000011290161CC                                                                                                                                                                                                                                                                                                                                                                                                         000006
9000005                                                                                                                                                                                                                                                                                                                                                                                                                                                                                                                                                                                                                                                                                                               000007
