0REMESSANOTIFICACAO ELETRONICA        99999999999999BICBANCO                                AV. PAULISTA                            1048      12.ANDAR  BELA VISTA                    SAO PAULO                     01310100SP1121739360CORTINHAL                               COORDENADOR                             04072013                                                                                                                                                                                                                                                                                                                                                                                      000001
1046421003438COBR_CAUC_BIC  BRASCOLA LTDA - EM RECUP.JUDICIAL       017359233000188TECIDOS E ARMARINHOS MIGUEL BARTOL      V MUNICIPAL MANOEL JACINTO COELHO JR, 10CONTAGEM                                32150245MG428730000101996103035921/     28062013019BELO HORIZONTE      2207201300000000012414815CC                                                                                                                                                                                                                                                                                                                                                                                                         000002
1010421023481DIR_CREDIT     HOSPITAL DE AVILA LTDA                  004171205000190VIVA PLANOS DE SAUDE LTDA               AV.DR.JOSE A.MOREIRA, 1251 - CASA CAIADAOLINDA                                  53130410PE4283400001                                                                                                                                          012287116           010320100000020792S/N         28062013000401Prestação de serviços de assistência médico-hospitalar.                                                                                                                                                                                         035716166000193              000003
1019421004658COBR_CAUC_COR  S/A ESTADO DE MINAS                     004164616000159TNL PCS S A                             JANGADEIROS 48 7 ANDAR                  RIO DE JANEIRO                          20090010RJ4287200001012487621863688-1   30062013900BRADESCO S/A        1508201300000000013200000CC                                                                                                                                                                                                                                                                                                                                                                                                         000004
1050421001700DIR_CREDIT     SINETEL ENG E COM LTDA                  000190373000768IND E COM DE COSMETICOS NATURA LTDA     ROD AUG MEIRA FILHO KM 3 N3920 FZ ELDORABENEVIDES                               68795000PA4286100001                                                                                                                                          012283104           061120120000022985001/2012    02072013000404execução de obras de construção civil, instalações e demais avenças.   contrato 001/2012                                                                                                                                                        004883542000100              000005
9000004                                                                                                                                                                                                                                                                                                                                                                                                                                                                                                                                                                                                                                                                                                               000006
