0REMESSANOTIFICACAO ELETRONICA        99999999999999BICBANCO                                AV. PAULISTA                            1048      12.ANDAR  BELA VISTA                    SAO PAULO                     01310100SP1121739360CORTINHAL                               COORDENADOR                             13122011                                                                                                                                                                                                                                                                                                                                                                                      000001
1021141012725COBR_CAUC_BIC  MABE BRASIL ELETRODOMESTICOS LTDA       047960950003902MAGAZINE LUIZA S/A                      RUA DO COMÈRCIO 1.924                   FRANCA                                  14400660SP3251200001062603370000569621  09122011022RIBEIRAO PRETO      0401201200000000011357879TD                                                                                                                                                                                                                                                                                                                                                                                                         000002
1009141012890COBR_CAUC_BIC  CONSTRUTORA J COUTO I. TERRAP. LTDA     024946352000100JM TERRAPLENAGEM E COSNTRU«√O LTDA      QNA 26 CASA 34                          TAGUATINGA                              72110260DF325130000106776501250         29112011009BRASILIA            0703201200000000056348263TD                                                                                                                                                                                                                                                                                                                                                                                                         000003
1007421054641COBR_CAUC_BIC  TEC TOY S/A                             072820822002840SKY BRASIL SERVICOS LTDA                EST DA CRUZ GRANDE, 1700   PARTE A      LOUVEIRA                                13290000SP3252900001009231413100811001  16112011007PAULISTA            3112201100000000056727840CC                                                                                                                                                                                                                                                                                                                                                                                                         000004
1007421054641COBR_CAUC_COR  TEC TOY S/A                             007105743001651POLO DO ELETRO COMERCIAL DE MOVEIS      AV DOM LINO ,996                        RUSSAS                                  62900000CE3253000001009624133100806502  10112011800UNIBANCO S/A        2112201100000000003135000CC                                                                                                                                                                                                                                                                                                                                                                                                         000005
1007421054641COBR_CAUC_COR  TEC TOY S/A                             007105743001651POLO DO ELETRO COMERCIAL DE MOVEIS      AV DOM LINO ,996                        RUSSAS                                  62900000CE3253000002009625023100806503  10112011800UNIBANCO S/A        3112201100000000003135000CC                                                                                                                                                                                                                                                                                                                                                                                                         000006
1007421054641COBR_CAUC_COR  TEC TOY S/A                             007105743001651POLO DO ELETRO COMERCIAL DE MOVEIS      AV DOM LINO ,996                        RUSSAS                                  62900000CE3253000003009625883100831101  29112011800UNIBANCO S/A        1512201100000000001191190CC                                                                                                                                                                                                                                                                                                                                                                                                         000007
1007421054641COBR_CAUC_COR  TEC TOY S/A                             007105743001651POLO DO ELETRO COMERCIAL DE MOVEIS      AV DOM LINO ,996                        RUSSAS                                  62900000CE3253000004009625963100831102  29112011800UNIBANCO S/A        2512201100000000001156155CC                                                                                                                                                                                                                                                                                                                                                                                                         000008
1007421054641COBR_CAUC_COR  TEC TOY S/A                             007105743001651POLO DO ELETRO COMERCIAL DE MOVEIS      AV DOM LINO ,996                        RUSSAS                                  62900000CE3253000005009626003100831103  29112011800UNIBANCO S/A        0401201200000000001156155CC                                                                                                                                                                                                                                                                                                                                                                                                         000009
1007421054641COBR_CAUC_COR  TEC TOY S/A                             007105743001651POLO DO ELETRO COMERCIAL DE MOVEIS      AV DOM LINO ,996                        RUSSAS                                  62900000CE3253000006009626933100832601  30112011800UNIBANCO S/A        1512201100000000001191190CC                                                                                                                                                                                                                                                                                                                                                                                                         000010
1007421054641COBR_CAUC_COR  TEC TOY S/A                             007105743001651POLO DO ELETRO COMERCIAL DE MOVEIS      AV DOM LINO ,996                        RUSSAS                                  62900000CE3253000007009627073100832602  30112011800UNIBANCO S/A        2412201100000000001156155CC                                                                                                                                                                                                                                                                                                                                                                                                         000011
1007421054641COBR_CAUC_COR  TEC TOY S/A                             007105743001651POLO DO ELETRO COMERCIAL DE MOVEIS      AV DOM LINO ,996                        RUSSAS                                  62900000CE3253000008009627153100832603  30112011800UNIBANCO S/A        0301201200000000001156155CC                                                                                                                                                                                                                                                                                                                                                                                                         000012
9000004                                                                                                                                                                                                                                                                                                                                                                                                                                                                                                                                                                                                                                                                                                               000013
