0REMESSANOTIFICACAO ELETRONICA        99999999999999BICBANCO                                AV. PAULISTA                            1048      12.ANDAR  BELA VISTA                    SAO PAULO                     01310100SP1121739360CORTINHAL                               COORDENADOR                             13012012                                                                                                                                                                                                                                                                                                                                                                                      000001
1021141012725COBR_CAUC_BIC  MABE BRASIL ELETRODOMESTICOS LTDA       010757237010723NOVA CASA BAHIA S/A                     RODOVIA ANHANGUERA 0, S/N KM52          JUNDIAI                                 13208401SP3329500001062746480000599272  11012012007PAULISTA            0102201200000000012552221TD                                                                                                                                                                                                                                                                                                                                                                                                         000002
1021141012725COBR_CAUC_BIC  MABE BRASIL ELETRODOMESTICOS LTDA       010757237010723NOVA CASA BAHIA S/A                     RODOVIA ANHANGUERA 0, S/N KM52          JUNDIAI                                 13208401SP3329500002062746560000599260  11012012007PAULISTA            0102201200000000011690720TD                                                                                                                                                                                                                                                                                                                                                                                                         000003
1021141012725COBR_CAUC_BIC  MABE BRASIL ELETRODOMESTICOS LTDA       010757237010723NOVA CASA BAHIA S/A                     RODOVIA ANHANGUERA 0, S/N KM52          JUNDIAI                                 13208401SP3329500003062746640000599041  11012012007PAULISTA            0102201200000000011690720TD                                                                                                                                                                                                                                                                                                                                                                                                         000004
1021141012725COBR_CAUC_BIC  MABE BRASIL ELETRODOMESTICOS LTDA       010757237010723NOVA CASA BAHIA S/A                     RODOVIA ANHANGUERA 0, S/N KM52          JUNDIAI                                 13208401SP3329500004062746720000599263  11012012007PAULISTA            0102201200000000011044193TD                                                                                                                                                                                                                                                                                                                                                                                                         000005
1021141012725COBR_CAUC_BIC  MABE BRASIL ELETRODOMESTICOS LTDA       010757237010723NOVA CASA BAHIA S/A                     RODOVIA ANHANGUERA 0, S/N KM52          JUNDIAI                                 13208401SP3329500005062746810000046810  12012012007PAULISTA            0102201200000000010934083TD                                                                                                                                                                                                                                                                                                                                                                                                         000006
1021141012725COBR_CAUC_BIC  MABE BRASIL ELETRODOMESTICOS LTDA       010757237010723NOVA CASA BAHIA S/A                     RODOVIA ANHANGUERA 0, S/N KM52          JUNDIAI                                 13208401SP3329500006062746990000046765  12012012007PAULISTA            0102201200000000010934083TD                                                                                                                                                                                                                                                                                                                                                                                                         000007
1021141012725COBR_CAUC_BIC  MABE BRASIL ELETRODOMESTICOS LTDA       010757237010723NOVA CASA BAHIA S/A                     RODOVIA ANHANGUERA 0, S/N KM52          JUNDIAI                                 13208401SP3329500007062747020000599273  11012012007PAULISTA            0102201200000000010934083TD                                                                                                                                                                                                                                                                                                                                                                                                         000008
1021141012725COBR_CAUC_BIC  MABE BRASIL ELETRODOMESTICOS LTDA       010757237010723NOVA CASA BAHIA S/A                     RODOVIA ANHANGUERA 0, S/N KM52          JUNDIAI                                 13208401SP3329500008062747110000599271  11012012007PAULISTA            0102201200000000010934083TD                                                                                                                                                                                                                                                                                                                                                                                                         000009
1021141012725COBR_CAUC_BIC  MABE BRASIL ELETRODOMESTICOS LTDA       010757237010723NOVA CASA BAHIA S/A                     RODOVIA ANHANGUERA 0, S/N KM52          JUNDIAI                                 13208401SP3329500009062747290000598476  11012012007PAULISTA            0102201200000000010457026TD                                                                                                                                                                                                                                                                                                                                                                                                         000010
1007421034080COBR_CAUC_COR  SIDMEX INTERNACIONAL LTDA               012812360000177CAPRION COMERCIO DE PRODUTOS TEXTE      MINISTRO VICTOR KONDER,840-SALA 01      ITAJAI                                  88301701SP3329600001010218331433.11     12012012900BRADESCO S/A        2401201200000000015652460CC                                                                                                                                                                                                                                                                                                                                                                                                         000011
1044421000351DIR_CREDIT     MULT SERVICE CONSTRUCOES E SERVICOS     024365710000183UFRN - UNIVERSIDADE FEDERAL DO RN       CAPUS UNIVERSITARIO                     NATAL                                   59000000RN3330800001                                                                                                                                          481017498           300420100000007069025/2007    12012012000404Serviços de limpeza urbana, conservação e higienização hospitalar dos  diversos setores da Universidade Federal do Rio Grande do Norte.                                                                                                         002648969000107              000012
9000003                                                                                                                                                                                                                                                                                                                                                                                                                                                                                                                                                                                                                                                                                                               000013
