0REMESSANOTIFICACAO ELETRONICA        99999999999999BICBANCO                                AV. PAULISTA                            1048      12.ANDAR  BELA VISTA                    SAO PAULO                     01310100SP1121739360CORTINHAL                               COORDENADOR                             10122013                                                                                                                                                                                                                                                                                                                                                                                      000001
1009421012831COBR_CAUC_COR  ASA ALIMENTOS S/A                       007209331000185REGINA AGROINDUSTRIAL S/A               ESTRADA DO AQUIRAZ,  801                FORTALEZA                               60840970CE4558900001001491730045107     07122013900BRADESCO S/A        0401201400000000012412800CC                                                                                                                                                                                                                                                                                                                                                                                                         000002
1009421012831COBR_CAUC_COR  ASA ALIMENTOS S/A                       076111335000149GRANJA ECONOMICA AVICOLA LTDA           RUA CATANDUVAS, 333                     CARAMBEI                                84145000PR4559000001001489830045057     06122013900BRADESCO S/A        0301201400000000012600000CC                                                                                                                                                                                                                                                                                                                                                                                                         000003
1014420939021COBR_CAUC_COR  EDITORA O DIA S/A                       033352394000104CIA EST.AGUAS E ESGOTO CEDAE            AV. PRESIDENTE VARGAS, 2655             RIO DE JANEIRO                          20210030RJ4559200001025378610707116     30112013900BRADESCO S/A        1512201300000000014729400CC                                                                                                                                                                                                                                                                                                                                                                                                         000004
1016421008591COBR_CAUC_BIC  GLOBOAVES SAO PAULO AGROAVICOLA LTD     083044016000980TYSON DO BRASIL ALIMENTOS LTDA          ROD BR 487 ESTR BOIADEIRA KM 185,0      CAMPO MOURAO                            87305380PR455940000104221816110570      05122013016CURITIBA            0201201400000000011524800CC                                                                                                                                                                                                                                                                                                                                                                                                         000005
1018421034826COBR_CAUC_BIC  LACEL LATICINIOS CERES LTDA             011596442004237CARVALHO & FERNANDES LTDA               AV.DEPUTADO PAULO FERRAZ, 4888 GALPAO 04TERESINA                                64078820PI455910000103515161029077      06122013042SAO LUIS            1002201400000000011267100CC                                                                                                                                                                                                                                                                                                                                                                                                         000006
1036421016893COBR_CAUC_COR  TECAL ALUMINIO DA AMAZONIA LTDA         004012043000148SHOWA DO BRASIL LTDA                    RUA RIO QUIXITO                         MANAUS                                  69075830AM4559300001059856430000055710  09122013900BRADESCO S/A        0801201400000000010383296CC                                                                                                                                                                                                                                                                                                                                                                                                         000007
9000006                                                                                                                                                                                                                                                                                                                                                                                                                                                                                                                                                                                                                                                                                                               000008
