0REMESSANOTIFICACAO ELETRONICA        99999999999999BICBANCO                                AV. PAULISTA                            1048      12.ANDAR  BELA VISTA                    SAO PAULO                     01310100SP1121739360CORTINHAL                               COORDENADOR                             27112012                                                                                                                                                                                                                                                                                                                                                                                      000001
1045421003766DIR_CREDIT     BIOGRAF S/C LTDA                        013131370000100SAO LUCAS MEDICO HOSPITALAR             AV CEL STANLEY DA SILVEIRA 33           ARACAJU                                 49015400SE3893900001                                                                                                                                          012061612           060520020000006114001         22112012000407Prestação de serviços médicos realizando exames de scan duplex, dopplervascular ultra-som vascular                                                                                                                                              001666646000175              000002
1020421001857COBR_CAUC_COR  BRASALPLA BRASIL IND DE EMBALAG LTD     008415791000556CERVEJARIA PETROPOLIS DO CENTRO OE      ROD CELSO GARCIA CID,1480 KM 85         CAMBE                                   86185520PR3895900001000035263  051710   21112012900BRADESCO S/A        1912201200000000010147689CC                                                                                                                                                                                                                                                                                                                                                                                                         000003
1044421017947DIR_CREDIT     CENTRAL SEGURANCA DE VALORES LTDA       008234148000100MUNICIPIO DE MACAIBA RN                 AV MONICA DANTAS,34-CENTRO              MACAIBA                                 59280000RN3884600001                                                                                                                                          011936007           011220100000021841S/N         13112012000403serviços de vigilancia humana armada, desarmada e vigilancia eletronica monitorada ininterruptamente para atender as necessidades da administração direta e indireta.                                                                           005312066000130              000004
1046421001443COBR_CAUC_COR  COSTAO DO SANTINHO TUR E LAZER LTDA     030033823000184COMITE NACIONAL BRAS ENERG ELET         RUA PRAIA DO FLAMENGO,66-SALA 408       RIO DE JANEIRO                          22210903RJ389610000100008579151952      23112012900BRADESCO S/A        0812201200000000014271300CC                                                                                                                                                                                                                                                                                                                                                                                                         000005
1046421001443COBR_CAUC_COR  COSTAO DO SANTINHO TUR E LAZER LTDA     089848543000177LOJAS COLOMBO S/A COM UTILIDADES        RUA JOSE ACHILES COLOMBO,50             FARROUPILHA                             95180000RS389620000100008587151948      23112012900BRADESCO S/A        0312201200000000025633459CC                                                                                                                                                                                                                                                                                                                                                                                                         000006
1044421000289DIR_CREDIT     CRISAL CONSTRUCAO ENG E COML. LTDA      008234148000100PM DE MACAIBA                           AV MONICA DANTAS,34                     MACAIBA                                 59000000RN3888100001                                                                                                                                          481017790           160520120000021534TP001/2012  24052012000404EXECUÇÃO DE SERVIÇOS DE NEGENHARIA PARA CONSTRUÇÃO DE 06 PRAÇAS NO MUNICIPIO DE MACAIBA/RN.                                                                                                                                                     000792407000107              000007
1021420930887COBR_CAUC_COR  DEDINI S/A INDUSTRIAS DE BASE           004165520000296AGROPECUARIA NOVO MILENIO LTDA          ROD TRANSEFONICA KM 6 ANEXO 01 S N VILA MIRASSOL D'OEST                         78280000MT389540000106358906187951-5-5  22112012900BRADESCO S/A        2012201200000000097000000CC                                                                                                                                                                                                                                                                                                                                                                                                         000008
1021420930887COBR_CAUC_COR  DEDINI S/A INDUSTRIAS DE BASE           044330975002288USINA COLOMBO S A - ACUCAR E ALCOO      EST MUN PALESTINA A PONTES GESTAL PONTALPALESTINA                               15470000SP389550000106358914188993-5-5  06112012900BRADESCO S/A        2012201200000000087500000CC                                                                                                                                                                                                                                                                                                                                                                                                         000009
1024420934410COBR_CAUC_BIC  INTERCOOP INT SUIN MED NORTE MT LTD     004613751000487CRISTALFRIGO IND COM IMPORTACAO EX      AV DOS ANDRADAS ,2229-STA EFIGENIA      BELO HORIZONTE                          30120010MG38958000010199957090644       23112012019BELO HORIZONTE      2412201200000000013499200CC                                                                                                                                                                                                                                                                                                                                                                                                         000010
1047421002340COBR_CAUC_BIC  LOREN-SID LTDA                          011596442003427CARVALHO E FERNANDES LTDA               AV. DEP. PAULO FERRAZ,4888              TERESINA                                64078820PI389850000101543365E0345261    25102012041TERESINA            1612201200000000000695168CC                                                                                                                                                                                                                                                                                                                                                                                                         000011
1047421002340COBR_CAUC_BIC  LOREN-SID LTDA                          011596442003427CARVALHO E FERNANDES LTDA               AV. DEP. PAULO FERRAZ,4888              TERESINA                                64078820PI389850000201543373E0345262    25102012041TERESINA            1501201300000000000695166CC                                                                                                                                                                                                                                                                                                                                                                                                         000012
1047421002340COBR_CAUC_BIC  LOREN-SID LTDA                          011596442003427CARVALHO E FERNANDES LTDA               AV. DEP. PAULO FERRAZ,4888              TERESINA                                64078820PI389850000301543381E0345263    25102012041TERESINA            1402201300000000000695166CC                                                                                                                                                                                                                                                                                                                                                                                                         000013
1047421002340COBR_CAUC_BIC  LOREN-SID LTDA                          011596442003427CARVALHO E FERNANDES LTDA               AV. DEP. PAULO FERRAZ,4888              TERESINA                                64078820PI389850000401543390E0345271    25102012041TERESINA            1612201200000000000336134CC                                                                                                                                                                                                                                                                                                                                                                                                         000014
1047421002340COBR_CAUC_BIC  LOREN-SID LTDA                          011596442003427CARVALHO E FERNANDES LTDA               AV. DEP. PAULO FERRAZ,4888              TERESINA                                64078820PI389850000501543403E0345272    25102012041TERESINA            1501201300000000000336133CC                                                                                                                                                                                                                                                                                                                                                                                                         000015
1047421002340COBR_CAUC_BIC  LOREN-SID LTDA                          011596442003427CARVALHO E FERNANDES LTDA               AV. DEP. PAULO FERRAZ,4888              TERESINA                                64078820PI389850000601543411E0345273    25102012041TERESINA            1402201300000000000336133CC                                                                                                                                                                                                                                                                                                                                                                                                         000016
1047421002340COBR_CAUC_BIC  LOREN-SID LTDA                          011596442003427CARVALHO E FERNANDES LTDA               AV. DEP. PAULO FERRAZ,4888              TERESINA                                64078820PI389850000701543420E0345281    25102012041TERESINA            1612201200000000000409500CC                                                                                                                                                                                                                                                                                                                                                                                                         000017
1047421002340COBR_CAUC_BIC  LOREN-SID LTDA                          011596442003427CARVALHO E FERNANDES LTDA               AV. DEP. PAULO FERRAZ,4888              TERESINA                                64078820PI389850000801543438E0345282    25102012041TERESINA            1501201300000000000409500CC                                                                                                                                                                                                                                                                                                                                                                                                         000018
1047421002340COBR_CAUC_BIC  LOREN-SID LTDA                          011596442003427CARVALHO E FERNANDES LTDA               AV. DEP. PAULO FERRAZ,4888              TERESINA                                64078820PI389850000901543446E0345283    25102012041TERESINA            1402201300000000000409500CC                                                                                                                                                                                                                                                                                                                                                                                                         000019
1047421002340COBR_CAUC_BIC  LOREN-SID LTDA                          011596442003427CARVALHO E FERNANDES LTDA               AV. DEP. PAULO FERRAZ,4888              TERESINA                                64078820PI389850001001543454E0346211    25102012900TERESINA            1612201200000000000695168CC                                                                                                                                                                                                                                                                                                                                                                                                         000020
1047421002340COBR_CAUC_BIC  LOREN-SID LTDA                          011596442003427CARVALHO E FERNANDES LTDA               AV. DEP. PAULO FERRAZ,4888              TERESINA                                64078820PI389850001101543462E0346212    25102012900TERESINA            1501201300000000000695166CC                                                                                                                                                                                                                                                                                                                                                                                                         000021
1047421002340COBR_CAUC_BIC  LOREN-SID LTDA                          011596442003427CARVALHO E FERNANDES LTDA               AV. DEP. PAULO FERRAZ,4888              TERESINA                                64078820PI389850001201543471E0346213    25102012900TERESINA            1402201300000000000695166CC                                                                                                                                                                                                                                                                                                                                                                                                         000022
1047421002340COBR_CAUC_BIC  LOREN-SID LTDA                          011596442003427CARVALHO E FERNANDES LTDA               AV. DEP. PAULO FERRAZ,4888              TERESINA                                64078820PI389850001301543489E0346221    25102012900TERESINA            1612201200000000000409500CC                                                                                                                                                                                                                                                                                                                                                                                                         000023
1047421002340COBR_CAUC_BIC  LOREN-SID LTDA                          011596442003427CARVALHO E FERNANDES LTDA               AV. DEP. PAULO FERRAZ,4888              TERESINA                                64078820PI389850001401543497E0346222    25102012900TERESINA            1501201300000000000409500CC                                                                                                                                                                                                                                                                                                                                                                                                         000024
1047421002340COBR_CAUC_BIC  LOREN-SID LTDA                          011596442003427CARVALHO E FERNANDES LTDA               AV. DEP. PAULO FERRAZ,4888              TERESINA                                64078820PI389850001501543501E0346223    25102012900TERESINA            1402201300000000000409500CC                                                                                                                                                                                                                                                                                                                                                                                                         000025
1047421002340COBR_CAUC_BIC  LOREN-SID LTDA                          004920658000687NORTE REFRIGERACAO LTDA                 TRAV SAO PEDRO,165                      BELEM                                   66023570PA389900000101541516E0347123    29102012050BELEM               2303201300000000000073645CC                                                                                                                                                                                                                                                                                                                                                                                                         000026
1047421002340COBR_CAUC_BIC  LOREN-SID LTDA                          004920658000687NORTE REFRIGERACAO LTDA                 TRAV SAO PEDRO,165                      BELEM                                   66023570PA389900000201542237E0347071    29102012050BELEM               2201201300000000000333951CC                                                                                                                                                                                                                                                                                                                                                                                                         000027
1047421002340COBR_CAUC_BIC  LOREN-SID LTDA                          004920658000687NORTE REFRIGERACAO LTDA                 TRAV SAO PEDRO,165                      BELEM                                   66023570PA389900000301542245E0347072    29102012050BELEM               2102201300000000000328198CC                                                                                                                                                                                                                                                                                                                                                                                                         000028
1047421002340COBR_CAUC_BIC  LOREN-SID LTDA                          004920658000687NORTE REFRIGERACAO LTDA                 TRAV SAO PEDRO,165                      BELEM                                   66023570PA389900000401542253E0347073    29102012050BELEM               2303201300000000000328198CC                                                                                                                                                                                                                                                                                                                                                                                                         000029
1047421002340COBR_CAUC_BIC  LOREN-SID LTDA                          004920658000687NORTE REFRIGERACAO LTDA                 TRAV SAO PEDRO,165                      BELEM                                   66023570PA389900000501542261E0347074    29102012050BELEM               2204201300000000000328198CC                                                                                                                                                                                                                                                                                                                                                                                                         000030
1047421002340COBR_CAUC_BIC  LOREN-SID LTDA                          004920658000687NORTE REFRIGERACAO LTDA                 TRAV SAO PEDRO,165                      BELEM                                   66023570PA389900000601542270E0347075    29102012050BELEM               2205201300000000000328198CC                                                                                                                                                                                                                                                                                                                                                                                                         000031
1047421002340COBR_CAUC_BIC  LOREN-SID LTDA                          004920658000687NORTE REFRIGERACAO LTDA                 TRAV SAO PEDRO,165                      BELEM                                   66023570PA389900000701542288E0347076    29102012050BELEM               2106201300000000000328198CC                                                                                                                                                                                                                                                                                                                                                                                                         000032
1047421002340COBR_CAUC_BIC  LOREN-SID LTDA                          004920658000687NORTE REFRIGERACAO LTDA                 TRAV SAO PEDRO,165                      BELEM                                   66023570PA389900000801542296E0347091    29102012050BELEM               2201201300000000000402120CC                                                                                                                                                                                                                                                                                                                                                                                                         000033
1047421002340COBR_CAUC_BIC  LOREN-SID LTDA                          004920658000687NORTE REFRIGERACAO LTDA                 TRAV SAO PEDRO,165                      BELEM                                   66023570PA389900000901542300E0347092    29102012050BELEM               2102201300000000000402116CC                                                                                                                                                                                                                                                                                                                                                                                                         000034
1047421002340COBR_CAUC_BIC  LOREN-SID LTDA                          004920658000687NORTE REFRIGERACAO LTDA                 TRAV SAO PEDRO,165                      BELEM                                   66023570PA389900001001542318E0347093    29102012050BELEM               2303201300000000000402116CC                                                                                                                                                                                                                                                                                                                                                                                                         000035
1047421002340COBR_CAUC_BIC  LOREN-SID LTDA                          004920658000687NORTE REFRIGERACAO LTDA                 TRAV SAO PEDRO,165                      BELEM                                   66023570PA389900001101542326E0347094    29102012050BELEM               2204201300000000000402116CC                                                                                                                                                                                                                                                                                                                                                                                                         000036
1047421002340COBR_CAUC_BIC  LOREN-SID LTDA                          004920658000687NORTE REFRIGERACAO LTDA                 TRAV SAO PEDRO,165                      BELEM                                   66023570PA389900001201542334E0347095    29102012050BELEM               2205201300000000000402116CC                                                                                                                                                                                                                                                                                                                                                                                                         000037
1047421002340COBR_CAUC_BIC  LOREN-SID LTDA                          004920658000687NORTE REFRIGERACAO LTDA                 TRAV SAO PEDRO,165                      BELEM                                   66023570PA389900001301542342E0347096    29102012050BELEM               2106201300000000000402116CC                                                                                                                                                                                                                                                                                                                                                                                                         000038
1047421002340COBR_CAUC_BIC  LOREN-SID LTDA                          004920658000687NORTE REFRIGERACAO LTDA                 TRAV SAO PEDRO,165                      BELEM                                   66023570PA389900001401542351E0347101    29102012050BELEM               2201201300000000001407200CC                                                                                                                                                                                                                                                                                                                                                                                                         000039
1047421002340COBR_CAUC_BIC  LOREN-SID LTDA                          004920658000687NORTE REFRIGERACAO LTDA                 TRAV SAO PEDRO,165                      BELEM                                   66023570PA389900001501542369E0347102    29102012050BELEM               2102201300000000001407200CC                                                                                                                                                                                                                                                                                                                                                                                                         000040
1047421002340COBR_CAUC_BIC  LOREN-SID LTDA                          004920658000687NORTE REFRIGERACAO LTDA                 TRAV SAO PEDRO,165                      BELEM                                   66023570PA389900001601542377E0347103    29102012050BELEM               2303201300000000001407200CC                                                                                                                                                                                                                                                                                                                                                                                                         000041
1047421002340COBR_CAUC_BIC  LOREN-SID LTDA                          004920658000687NORTE REFRIGERACAO LTDA                 TRAV SAO PEDRO,165                      BELEM                                   66023570PA389900001701542385E0347104    29102012050BELEM               2204201300000000001407200CC                                                                                                                                                                                                                                                                                                                                                                                                         000042
1047421002340COBR_CAUC_BIC  LOREN-SID LTDA                          004920658000687NORTE REFRIGERACAO LTDA                 TRAV SAO PEDRO,165                      BELEM                                   66023570PA389900001801542393E0347105    29102012050BELEM               2205201300000000001407200CC                                                                                                                                                                                                                                                                                                                                                                                                         000043
1047421002340COBR_CAUC_BIC  LOREN-SID LTDA                          004920658000687NORTE REFRIGERACAO LTDA                 TRAV SAO PEDRO,165                      BELEM                                   66023570PA389900001901542407E0347106    29102012050BELEM               2106201300000000001407200CC                                                                                                                                                                                                                                                                                                                                                                                                         000044
1047421002340COBR_CAUC_BIC  LOREN-SID LTDA                          004920658000687NORTE REFRIGERACAO LTDA                 TRAV SAO PEDRO,165                      BELEM                                   66023570PA389900002001542415E0347111    29102012050BELEM               2201201300000000000802410CC                                                                                                                                                                                                                                                                                                                                                                                                         000045
1047421002340COBR_CAUC_BIC  LOREN-SID LTDA                          004920658000687NORTE REFRIGERACAO LTDA                 TRAV SAO PEDRO,165                      BELEM                                   66023570PA389900002101542423E0347112    29102012050BELEM               2102201300000000000802408CC                                                                                                                                                                                                                                                                                                                                                                                                         000046
1047421002340COBR_CAUC_BIC  LOREN-SID LTDA                          004920658000687NORTE REFRIGERACAO LTDA                 TRAV SAO PEDRO,165                      BELEM                                   66023570PA389900002201542431E0347113    29102012050BELEM               2303201300000000000802408CC                                                                                                                                                                                                                                                                                                                                                                                                         000047
1047421002340COBR_CAUC_BIC  LOREN-SID LTDA                          004920658000687NORTE REFRIGERACAO LTDA                 TRAV SAO PEDRO,165                      BELEM                                   66023570PA389900002301542440E0347114    29102012050BELEM               2204201300000000000802408CC                                                                                                                                                                                                                                                                                                                                                                                                         000048
1047421002340COBR_CAUC_BIC  LOREN-SID LTDA                          004920658000687NORTE REFRIGERACAO LTDA                 TRAV SAO PEDRO,165                      BELEM                                   66023570PA389900002401541478E0347115    29102012050BELEM               2205201300000000000802408CC                                                                                                                                                                                                                                                                                                                                                                                                         000049
1047421002340COBR_CAUC_BIC  LOREN-SID LTDA                          004920658000687NORTE REFRIGERACAO LTDA                 TRAV SAO PEDRO,165                      BELEM                                   66023570PA389900002501541486E0347116    29102012050BELEM               2106201300000000000802408CC                                                                                                                                                                                                                                                                                                                                                                                                         000050
1047421002340COBR_CAUC_BIC  LOREN-SID LTDA                          004920658000687NORTE REFRIGERACAO LTDA                 TRAV SAO PEDRO,165                      BELEM                                   66023570PA389900002601541494E0347121    29102012050BELEM               2201201300000000000075691CC                                                                                                                                                                                                                                                                                                                                                                                                         000051
1047421002340COBR_CAUC_BIC  LOREN-SID LTDA                          004920658000687NORTE REFRIGERACAO LTDA                 TRAV SAO PEDRO,165                      BELEM                                   66023570PA389900002701541508E0347122    29102012050BELEM               2102201300000000000073645CC                                                                                                                                                                                                                                                                                                                                                                                                         000052
1047421002340COBR_CAUC_BIC  LOREN-SID LTDA                          004920658000687NORTE REFRIGERACAO LTDA                 TRAV SAO PEDRO,165                      BELEM                                   66023570PA389900002801545597E0347124    29102012050BELEM               2204201300000000000073645CC                                                                                                                                                                                                                                                                                                                                                                                                         000053
1047421002340COBR_CAUC_BIC  LOREN-SID LTDA                          004920658000687NORTE REFRIGERACAO LTDA                 TRAV SAO PEDRO,165                      BELEM                                   66023570PA389900002901541524E0347125    29102012050BELEM               2205201300000000000073645CC                                                                                                                                                                                                                                                                                                                                                                                                         000054
1047421002340COBR_CAUC_BIC  LOREN-SID LTDA                          004920658000687NORTE REFRIGERACAO LTDA                 TRAV SAO PEDRO,165                      BELEM                                   66023570PA389900003001541532E0347126    29102012050BELEM               2106201300000000000073645CC                                                                                                                                                                                                                                                                                                                                                                                                         000055
1047421002340COBR_CAUC_BIC  LOREN-SID LTDA                          004920658000687NORTE REFRIGERACAO LTDA                 TRAV SAO PEDRO,165                      BELEM                                   66023570PA389900003101541541E0347131    29102012050BELEM               0401201300000000000272487CC                                                                                                                                                                                                                                                                                                                                                                                                         000056
1047421002340COBR_CAUC_BIC  LOREN-SID LTDA                          004920658000687NORTE REFRIGERACAO LTDA                 TRAV SAO PEDRO,165                      BELEM                                   66023570PA389900003201541559E0347132    29102012050BELEM               0302201300000000000272250CC                                                                                                                                                                                                                                                                                                                                                                                                         000057
1047421002340COBR_CAUC_BIC  LOREN-SID LTDA                          004920658000687NORTE REFRIGERACAO LTDA                 TRAV SAO PEDRO,165                      BELEM                                   66023570PA389900003301541567E0347133    29102012050BELEM               0503201300000000000272250CC                                                                                                                                                                                                                                                                                                                                                                                                         000058
1047421002340COBR_CAUC_BIC  LOREN-SID LTDA                          004920658000687NORTE REFRIGERACAO LTDA                 TRAV SAO PEDRO,165                      BELEM                                   66023570PA389900003401541575E0347134    29102012050BELEM               0404201300000000000272250CC                                                                                                                                                                                                                                                                                                                                                                                                         000059
1047421002340COBR_CAUC_BIC  LOREN-SID LTDA                          004920658000687NORTE REFRIGERACAO LTDA                 TRAV SAO PEDRO,165                      BELEM                                   66023570PA389900003501541583E0347135    29102012050BELEM               0405201300000000000272250CC                                                                                                                                                                                                                                                                                                                                                                                                         000060
1047421002340COBR_CAUC_BIC  LOREN-SID LTDA                          076639285002544FERRAGENS NEGRAO COMERCIAL LTDA         R PROF. ALGACYR M MADER,2800            CURITIBA                                81310020PR389890000101544329E0346101    25102012016CURITIBA            1903201300000000000575473CC                                                                                                                                                                                                                                                                                                                                                                                                         000061
1047421002340COBR_CAUC_BIC  LOREN-SID LTDA                          076639285002544FERRAGENS NEGRAO COMERCIAL LTDA         R PROF. ALGACYR M MADER,2800            CURITIBA                                81310020PR389890000201544205E03445941   25102012016CURITIBA            1903201300000000000805864CC                                                                                                                                                                                                                                                                                                                                                                                                         000062
1047421002340COBR_CAUC_BIC  LOREN-SID LTDA                          076639285002544FERRAGENS NEGRAO COMERCIAL LTDA         R PROF. ALGACYR M MADER,2800            CURITIBA                                81310020PR389890000301544060E0345801    25102012016CURITIBA            1903201300000000000787818CC                                                                                                                                                                                                                                                                                                                                                                                                         000063
1047421002340COBR_CAUC_BIC  LOREN-SID LTDA                          076639285002544FERRAGENS NEGRAO COMERCIAL LTDA         R PROF. ALGACYR M MADER,2800            CURITIBA                                81310020PR389890000401544078E0345811    25102012016CURITIBA            1903201300000000000225882CC                                                                                                                                                                                                                                                                                                                                                                                                         000064
1047421002340COBR_CAUC_BIC  LOREN-SID LTDA                          076639285002544FERRAGENS NEGRAO COMERCIAL LTDA         R PROF. ALGACYR M MADER,2800            CURITIBA                                81310020PR389890000501544086E0345821    25102012016CURITIBA            1903201300000000000687743CC                                                                                                                                                                                                                                                                                                                                                                                                         000065
1047421002340COBR_CAUC_BIC  LOREN-SID LTDA                          076639285002544FERRAGENS NEGRAO COMERCIAL LTDA         R PROF. ALGACYR M MADER,2800            CURITIBA                                81310020PR389890000601544094E0345831    25102012016CURITIBA            1903201300000000000335661CC                                                                                                                                                                                                                                                                                                                                                                                                         000066
1047421002340COBR_CAUC_BIC  LOREN-SID LTDA                          076639285002544FERRAGENS NEGRAO COMERCIAL LTDA         R PROF. ALGACYR M MADER,2800            CURITIBA                                81310020PR389890000701544108E0345841    25102012016CURITIBA            1903201300000000000365489CC                                                                                                                                                                                                                                                                                                                                                                                                         000067
1047421002340COBR_CAUC_BIC  LOREN-SID LTDA                          076639285002544FERRAGENS NEGRAO COMERCIAL LTDA         R PROF. ALGACYR M MADER,2800            CURITIBA                                81310020PR389890000801544116E0345851    25102012016CURITIBA            1903201300000000000505690CC                                                                                                                                                                                                                                                                                                                                                                                                         000068
1047421002340COBR_CAUC_BIC  LOREN-SID LTDA                          076639285002544FERRAGENS NEGRAO COMERCIAL LTDA         R PROF. ALGACYR M MADER,2800            CURITIBA                                81310020PR389890000901544124E0345861    25102012016CURITIBA            1903201300000000000640325CC                                                                                                                                                                                                                                                                                                                                                                                                         000069
1047421002340COBR_CAUC_BIC  LOREN-SID LTDA                          076639285002544FERRAGENS NEGRAO COMERCIAL LTDA         R PROF. ALGACYR M MADER,2800            CURITIBA                                81310020PR389890001001544132E0345871    25102012016CURITIBA            1903201300000000000670293CC                                                                                                                                                                                                                                                                                                                                                                                                         000070
1047421002340COBR_CAUC_BIC  LOREN-SID LTDA                          076639285002544FERRAGENS NEGRAO COMERCIAL LTDA         R PROF. ALGACYR M MADER,2800            CURITIBA                                81310020PR389890001101544141E0345881    25102012016CURITIBA            1903201300000000001120969CC                                                                                                                                                                                                                                                                                                                                                                                                         000071
1047421002340COBR_CAUC_BIC  LOREN-SID LTDA                          076639285002544FERRAGENS NEGRAO COMERCIAL LTDA         R PROF. ALGACYR M MADER,2800            CURITIBA                                81310020PR389890001201544159E0345891    25102012016CURITIBA            1903201300000000000511904CC                                                                                                                                                                                                                                                                                                                                                                                                         000072
1047421002340COBR_CAUC_BIC  LOREN-SID LTDA                          076639285002544FERRAGENS NEGRAO COMERCIAL LTDA         R PROF. ALGACYR M MADER,2800            CURITIBA                                81310020PR389890001301544167E0345901    25102012016CURITIBA            1903201300000000000674596CC                                                                                                                                                                                                                                                                                                                                                                                                         000073
1047421002340COBR_CAUC_BIC  LOREN-SID LTDA                          076639285002544FERRAGENS NEGRAO COMERCIAL LTDA         R PROF. ALGACYR M MADER,2800            CURITIBA                                81310020PR389890001401544175E0345911    25102012016CURITIBA            1903201300000000000073220CC                                                                                                                                                                                                                                                                                                                                                                                                         000074
1047421002340COBR_CAUC_BIC  LOREN-SID LTDA                          076639285002544FERRAGENS NEGRAO COMERCIAL LTDA         R PROF. ALGACYR M MADER,2800            CURITIBA                                81310020PR389890001501544183E0345921    25102012016CURITIBA            1903201300000000001859946CC                                                                                                                                                                                                                                                                                                                                                                                                         000075
1047421002340COBR_CAUC_BIC  LOREN-SID LTDA                          076639285002544FERRAGENS NEGRAO COMERCIAL LTDA         R PROF. ALGACYR M MADER,2800            CURITIBA                                81310020PR389890001601544191E0345931    25102012016CURITIBA            1903201300000000000141306CC                                                                                                                                                                                                                                                                                                                                                                                                         000076
1047421002340COBR_CAUC_BIC  LOREN-SID LTDA                          076639285002544FERRAGENS NEGRAO COMERCIAL LTDA         R PROF. ALGACYR M MADER,2800            CURITIBA                                81310020PR389890001701544213E0345951    25102012016CURITIBA            1903201300000000000353153CC                                                                                                                                                                                                                                                                                                                                                                                                         000077
1047421002340COBR_CAUC_BIC  LOREN-SID LTDA                          076639285002544FERRAGENS NEGRAO COMERCIAL LTDA         R PROF. ALGACYR M MADER,2800            CURITIBA                                81310020PR389890001801544221E0345961    25102012016CURITIBA            1903201300000000000353150CC                                                                                                                                                                                                                                                                                                                                                                                                         000078
1047421002340COBR_CAUC_BIC  LOREN-SID LTDA                          076639285002544FERRAGENS NEGRAO COMERCIAL LTDA         R PROF. ALGACYR M MADER,2800            CURITIBA                                81310020PR389890001901544230E0345971    25102012016CURITIBA            1903201300000000000805864CC                                                                                                                                                                                                                                                                                                                                                                                                         000079
1047421002340COBR_CAUC_BIC  LOREN-SID LTDA                          076639285002544FERRAGENS NEGRAO COMERCIAL LTDA         R PROF. ALGACYR M MADER,2800            CURITIBA                                81310020PR389890002001544248E0345981    25102012016CURITIBA            1903201300000000001309503CC                                                                                                                                                                                                                                                                                                                                                                                                         000080
1047421002340COBR_CAUC_BIC  LOREN-SID LTDA                          076639285002544FERRAGENS NEGRAO COMERCIAL LTDA         R PROF. ALGACYR M MADER,2800            CURITIBA                                81310020PR389890002101544256E0345991    25102012016CURITIBA            1903201300000000000219456CC                                                                                                                                                                                                                                                                                                                                                                                                         000081
1047421002340COBR_CAUC_BIC  LOREN-SID LTDA                          076639285002544FERRAGENS NEGRAO COMERCIAL LTDA         R PROF. ALGACYR M MADER,2800            CURITIBA                                81310020PR389890002201544264E0346001    25102012016CURITIBA            1501201300000000000439670CC                                                                                                                                                                                                                                                                                                                                                                                                         000082
1047421002340COBR_CAUC_BIC  LOREN-SID LTDA                          076639285002544FERRAGENS NEGRAO COMERCIAL LTDA         R PROF. ALGACYR M MADER,2800            CURITIBA                                81310020PR389890002301544272E0346011    25102012016CURITIBA            1903201300000000001222140CC                                                                                                                                                                                                                                                                                                                                                                                                         000083
1047421002340COBR_CAUC_BIC  LOREN-SID LTDA                          076639285002544FERRAGENS NEGRAO COMERCIAL LTDA         R PROF. ALGACYR M MADER,2800            CURITIBA                                81310020PR389890002401544281E0346021    25102012016CURITIBA            1903201300000000000090997CC                                                                                                                                                                                                                                                                                                                                                                                                         000084
1047421002340COBR_CAUC_BIC  LOREN-SID LTDA                          076639285002544FERRAGENS NEGRAO COMERCIAL LTDA         R PROF. ALGACYR M MADER,2800            CURITIBA                                81310020PR389890002501544299E0346031    25102012016CURITIBA            1501201300000000000349654CC                                                                                                                                                                                                                                                                                                                                                                                                         000085
1047421002340COBR_CAUC_BIC  LOREN-SID LTDA                          076639285002544FERRAGENS NEGRAO COMERCIAL LTDA         R PROF. ALGACYR M MADER,2800            CURITIBA                                81310020PR389890002601544302E0346051    25102012016CURITIBA            0103201300000000001266556CC                                                                                                                                                                                                                                                                                                                                                                                                         000086
1047421002340COBR_CAUC_BIC  LOREN-SID LTDA                          076639285002544FERRAGENS NEGRAO COMERCIAL LTDA         R PROF. ALGACYR M MADER,2800            CURITIBA                                81310020PR389890002701544311E0346091    25102012016CURITIBA            1903201300000000000613308CC                                                                                                                                                                                                                                                                                                                                                                                                         000087
1047421002340COBR_CAUC_BIC  LOREN-SID LTDA                          076639285002544FERRAGENS NEGRAO COMERCIAL LTDA         R PROF. ALGACYR M MADER,2800            CURITIBA                                81310020PR389890002801544337E0346111    25102012016CURITIBA            1903201300000000000200852CC                                                                                                                                                                                                                                                                                                                                                                                                         000088
1047421002340COBR_CAUC_BIC  LOREN-SID LTDA                          076639285002544FERRAGENS NEGRAO COMERCIAL LTDA         R PROF. ALGACYR M MADER,2800            CURITIBA                                81310020PR389890002901544345E0346121    25102012016CURITIBA            1903201300000000000573916CC                                                                                                                                                                                                                                                                                                                                                                                                         000089
1047421002340COBR_CAUC_BIC  LOREN-SID LTDA                          076639285002544FERRAGENS NEGRAO COMERCIAL LTDA         R PROF. ALGACYR M MADER,2800            CURITIBA                                81310020PR389890003001544353E0346301    25102012016CURITIBA            1501201300000000000467212CC                                                                                                                                                                                                                                                                                                                                                                                                         000090
1047421002340COBR_CAUC_BIC  LOREN-SID LTDA                          011590296001640MAGAZINE LILIANE S.A.                   R STO ANTONIO, 90                       BELEM                                   66816040PA389880000101541290E0345021    25102012050BELEM               0103201300000000001185000CC                                                                                                                                                                                                                                                                                                                                                                                                         000091
1047421002340COBR_CAUC_BIC  LOREN-SID LTDA                          011590296001640MAGAZINE LILIANE S.A.                   R STO ANTONIO, 90                       BELEM                                   66816040PA389880000201541303E0345031    25102012900BELEM               0103201300000000000995000CC                                                                                                                                                                                                                                                                                                                                                                                                         000092
1047421002340COBR_CAUC_BIC  LOREN-SID LTDA                          011590296001640MAGAZINE LILIANE S.A.                   R STO ANTONIO, 90                       BELEM                                   66816040PA389880000301541311E0345041    25102012900BELEM               0103201300000000000395000CC                                                                                                                                                                                                                                                                                                                                                                                                         000093
1047421002340COBR_CAUC_BIC  LOREN-SID LTDA                          011590296001640MAGAZINE LILIANE S.A.                   R STO ANTONIO, 90                       BELEM                                   66816040PA389880000401541435E0345241    25102012041BELEM               1603201300000000000858900CC                                                                                                                                                                                                                                                                                                                                                                                                         000094
1047421002340COBR_CAUC_BIC  LOREN-SID LTDA                          011590296001640MAGAZINE LILIANE S.A.                   R STO ANTONIO, 90                       BELEM                                   66816040PA389880000501541443E0345251    25102012041BELEM               1603201300000000000995000CC                                                                                                                                                                                                                                                                                                                                                                                                         000095
1047421002340COBR_CAUC_BIC  LOREN-SID LTDA                          011590296001640MAGAZINE LILIANE S.A.                   R STO ANTONIO, 90                       BELEM                                   66816040PA389880000601541320E0346571    26102012050BELEM               0203201300000000000348000CC                                                                                                                                                                                                                                                                                                                                                                                                         000096
1047421002340COBR_CAUC_BIC  LOREN-SID LTDA                          011590296001640MAGAZINE LILIANE S.A.                   R STO ANTONIO, 90                       BELEM                                   66816040PA389880000701541338E0346581    26102012050BELEM               0203201300000000000464000CC                                                                                                                                                                                                                                                                                                                                                                                                         000097
1047421002340COBR_CAUC_BIC  LOREN-SID LTDA                          011590296001640MAGAZINE LILIANE S.A.                   R STO ANTONIO, 90                       BELEM                                   66816040PA389880000801541346E0346591    26102012050BELEM               0203201300000000000858900CC                                                                                                                                                                                                                                                                                                                                                                                                         000098
1047421002340COBR_CAUC_BIC  LOREN-SID LTDA                          011590296001640MAGAZINE LILIANE S.A.                   R STO ANTONIO, 90                       BELEM                                   66816040PA389880000901541354E0346601    26102012050BELEM               0203201300000000000506940CC                                                                                                                                                                                                                                                                                                                                                                                                         000099
1047421002340COBR_CAUC_BIC  LOREN-SID LTDA                          011590296001640MAGAZINE LILIANE S.A.                   R STO ANTONIO, 90                       BELEM                                   66816040PA389880001001541362E0346611    26102012050BELEM               0203201300000000000597000CC                                                                                                                                                                                                                                                                                                                                                                                                         000100
1047421002340COBR_CAUC_BIC  LOREN-SID LTDA                          011590296001640MAGAZINE LILIANE S.A.                   R STO ANTONIO, 90                       BELEM                                   66816040PA389880001101541371E0347141    29102012900BELEM               2303201300000000001013880CC                                                                                                                                                                                                                                                                                                                                                                                                         000101
1047421002340COBR_CAUC_BIC  LOREN-SID LTDA                          011590296001640MAGAZINE LILIANE S.A.                   R STO ANTONIO, 90                       BELEM                                   66816040PA389880001201541389E0347151    29102012900BELEM               2303201300000000000858900CC                                                                                                                                                                                                                                                                                                                                                                                                         000102
1047421002340COBR_CAUC_BIC  LOREN-SID LTDA                          011590296001640MAGAZINE LILIANE S.A.                   R STO ANTONIO, 90                       BELEM                                   66816040PA389880001301541397E0347161    29102012900BELEM               2303201300000000000592500CC                                                                                                                                                                                                                                                                                                                                                                                                         000103
1047421002340COBR_CAUC_BIC  LOREN-SID LTDA                          011590296001640MAGAZINE LILIANE S.A.                   R STO ANTONIO, 90                       BELEM                                   66816040PA389880001401541401E0347171    29102012900BELEM               2303201300000000000464000CC                                                                                                                                                                                                                                                                                                                                                                                                         000104
1047421002340COBR_CAUC_BIC  LOREN-SID LTDA                          011590296001640MAGAZINE LILIANE S.A.                   R STO ANTONIO, 90                       BELEM                                   66816040PA389880001501541419E0347191    29102012042BELEM               2303201300000000000675920CC                                                                                                                                                                                                                                                                                                                                                                                                         000105
1047421002340COBR_CAUC_BIC  LOREN-SID LTDA                          011590296001640MAGAZINE LILIANE S.A.                   R STO ANTONIO, 90                       BELEM                                   66816040PA389880001601541427E0347201    29102012042BELEM               2303201300000000000790000CC                                                                                                                                                                                                                                                                                                                                                                                                         000106
1047421002340COBR_CAUC_BIC  LOREN-SID LTDA                          011590296001640MAGAZINE LILIANE S.A.                   R STO ANTONIO, 90                       BELEM                                   66816040PA389880001701541451E0347211    29102012041BELEM               2303201300000000000580000CC                                                                                                                                                                                                                                                                                                                                                                                                         000107
1047421002340COBR_CAUC_BIC  LOREN-SID LTDA                          011590296001640MAGAZINE LILIANE S.A.                   R STO ANTONIO, 90                       BELEM                                   66816040PA389880001801541460E0347221    29102012041BELEM               2303201300000000000675920CC                                                                                                                                                                                                                                                                                                                                                                                                         000108
1047421002340COBR_CAUC_COR  LOREN-SID LTDA                          039800339001260COMERCIAL SUPERAUDIO LTDA               AV NOSSA SENHORA NAVEGANTES 635 17º     SERRA                                   29050335ES389870000101545066E0347871    30102012800UNIBANCO S/A        0402201300000000003975800CC                                                                                                                                                                                                                                                                                                                                                                                                         000109
1047421002340COBR_CAUC_COR  LOREN-SID LTDA                          039800339001260COMERCIAL SUPERAUDIO LTDA               AV NOSSA SENHORA NAVEGANTES 635 17º     SERRA                                   29050335ES389870000201545074E0347881    30102012800UNIBANCO S/A        0402201300000000000990420CC                                                                                                                                                                                                                                                                                                                                                                                                         000110
1047421002340COBR_CAUC_COR  LOREN-SID LTDA                          039800339001260COMERCIAL SUPERAUDIO LTDA               AV NOSSA SENHORA NAVEGANTES 635 17º     SERRA                                   29050335ES389870000301545082E0347901    30102012800UNIBANCO S/A        0402201300000000003409360CC                                                                                                                                                                                                                                                                                                                                                                                                         000111
1047421002340COBR_CAUC_BIC  LOREN-SID LTDA                          023502610000199VENTANIA COM SERV ELETRO LTDA ME        R.CLODOALDO FREITAS,1505, SL 2          TERESINA                                64000360PI389860000101544574E0345201    25102012041TERESINA            1402201300000000000435516CC                                                                                                                                                                                                                                                                                                                                                                                                         000112
1047421002340COBR_CAUC_BIC  LOREN-SID LTDA                          023502610000199VENTANIA COM SERV ELETRO LTDA ME        R.CLODOALDO FREITAS,1505, SL 2          TERESINA                                64000360PI389860000201544582E0345202    25102012041TERESINA            0103201300000000000435513CC                                                                                                                                                                                                                                                                                                                                                                                                         000113
1047421002340COBR_CAUC_BIC  LOREN-SID LTDA                          023502610000199VENTANIA COM SERV ELETRO LTDA ME        R.CLODOALDO FREITAS,1505, SL 2          TERESINA                                64000360PI389860000301544591E0345203    25102012041TERESINA            1603201300000000000435513CC                                                                                                                                                                                                                                                                                                                                                                                                         000114
1047421002340COBR_CAUC_BIC  LOREN-SID LTDA                          023502610000199VENTANIA COM SERV ELETRO LTDA ME        R.CLODOALDO FREITAS,1505, SL 2          TERESINA                                64000360PI389860000401544604E0345204    25102012041TERESINA            3103201300000000000435513CC                                                                                                                                                                                                                                                                                                                                                                                                         000115
1047421002340COBR_CAUC_BIC  LOREN-SID LTDA                          023502610000199VENTANIA COM SERV ELETRO LTDA ME        R.CLODOALDO FREITAS,1505, SL 2          TERESINA                                64000360PI389860000501544612E0345205    25102012041TERESINA            1504201300000000000435513CC                                                                                                                                                                                                                                                                                                                                                                                                         000116
1047421002340COBR_CAUC_BIC  LOREN-SID LTDA                          023502610000199VENTANIA COM SERV ELETRO LTDA ME        R.CLODOALDO FREITAS,1505, SL 2          TERESINA                                64000360PI389860000601544817E0345206    25102012041TERESINA            3004201300000000000435513CC                                                                                                                                                                                                                                                                                                                                                                                                         000117
1047421002340COBR_CAUC_BIC  LOREN-SID LTDA                          023502610000199VENTANIA COM SERV ELETRO LTDA ME        R.CLODOALDO FREITAS,1505, SL 2          TERESINA                                64000360PI389860000701544621E0345207    25102012041TERESINA            1505201300000000000435513CC                                                                                                                                                                                                                                                                                                                                                                                                         000118
1047421002340COBR_CAUC_BIC  LOREN-SID LTDA                          023502610000199VENTANIA COM SERV ELETRO LTDA ME        R.CLODOALDO FREITAS,1505, SL 2          TERESINA                                64000360PI389860000801544639E0345208    25102012041TERESINA            3005201300000000000435513CC                                                                                                                                                                                                                                                                                                                                                                                                         000119
1047421002340COBR_CAUC_BIC  LOREN-SID LTDA                          023502610000199VENTANIA COM SERV ELETRO LTDA ME        R.CLODOALDO FREITAS,1505, SL 2          TERESINA                                64000360PI389860000901544647E0345209    25102012041TERESINA            1406201300000000000435513CC                                                                                                                                                                                                                                                                                                                                                                                                         000120
1047421002340COBR_CAUC_BIC  LOREN-SID LTDA                          023502610000199VENTANIA COM SERV ELETRO LTDA ME        R.CLODOALDO FREITAS,1505, SL 2          TERESINA                                64000360PI389860001001544655E0345211    25102012041TERESINA            1402201300000000000462724CC                                                                                                                                                                                                                                                                                                                                                                                                         000121
1047421002340COBR_CAUC_BIC  LOREN-SID LTDA                          023502610000199VENTANIA COM SERV ELETRO LTDA ME        R.CLODOALDO FREITAS,1505, SL 2          TERESINA                                64000360PI389860001101544663E0345212    25102012041TERESINA            0103201300000000000462717CC                                                                                                                                                                                                                                                                                                                                                                                                         000122
1047421002340COBR_CAUC_BIC  LOREN-SID LTDA                          023502610000199VENTANIA COM SERV ELETRO LTDA ME        R.CLODOALDO FREITAS,1505, SL 2          TERESINA                                64000360PI389860001201544671E0345213    25102012041TERESINA            1603201300000000000462717CC                                                                                                                                                                                                                                                                                                                                                                                                         000123
1047421002340COBR_CAUC_BIC  LOREN-SID LTDA                          023502610000199VENTANIA COM SERV ELETRO LTDA ME        R.CLODOALDO FREITAS,1505, SL 2          TERESINA                                64000360PI389860001301544680E0345214    25102012041TERESINA            3103201300000000000462717CC                                                                                                                                                                                                                                                                                                                                                                                                         000124
1047421002340COBR_CAUC_BIC  LOREN-SID LTDA                          023502610000199VENTANIA COM SERV ELETRO LTDA ME        R.CLODOALDO FREITAS,1505, SL 2          TERESINA                                64000360PI389860001401544698E0345215    25102012041TERESINA            1504201300000000000462717CC                                                                                                                                                                                                                                                                                                                                                                                                         000125
1047421002340COBR_CAUC_BIC  LOREN-SID LTDA                          023502610000199VENTANIA COM SERV ELETRO LTDA ME        R.CLODOALDO FREITAS,1505, SL 2          TERESINA                                64000360PI389860001501544701E0345216    25102012041TERESINA            3004201300000000000462717CC                                                                                                                                                                                                                                                                                                                                                                                                         000126
1047421002340COBR_CAUC_BIC  LOREN-SID LTDA                          023502610000199VENTANIA COM SERV ELETRO LTDA ME        R.CLODOALDO FREITAS,1505, SL 2          TERESINA                                64000360PI389860001601544710E0345217    25102012041TERESINA            1505201300000000000462717CC                                                                                                                                                                                                                                                                                                                                                                                                         000127
1047421002340COBR_CAUC_BIC  LOREN-SID LTDA                          023502610000199VENTANIA COM SERV ELETRO LTDA ME        R.CLODOALDO FREITAS,1505, SL 2          TERESINA                                64000360PI389860001701544728E0345218    25102012041TERESINA            3005201300000000000462717CC                                                                                                                                                                                                                                                                                                                                                                                                         000128
1047421002340COBR_CAUC_BIC  LOREN-SID LTDA                          023502610000199VENTANIA COM SERV ELETRO LTDA ME        R.CLODOALDO FREITAS,1505, SL 2          TERESINA                                64000360PI389860001801544736E0345219    25102012041TERESINA            1406201300000000000462717CC                                                                                                                                                                                                                                                                                                                                                                                                         000129
1046421002474COBR_CAUC_COR  MACROMAQ EQUIPAMENTOS LTDA              092791243000294CELULOSE IRANI S A                      BR 153 KM 47,S/N - CXP 87               VARGEM BONITA                           89675000SC3896000001016807342933CL01    23112012800UNIBANCO S/A        1312201200000000011310305CC                                                                                                                                                                                                                                                                                                                                                                                                         000130
1046421007255COBR_CAUC_BIC  MAESTRO DO BRASIL IND METALUR LTDA      076639285000924FERRAGENS NEGRAO COMERCIAL LTDA         R. PROFESSOR ALGACYR M. MADER,,2800     CURITIBA - PR                           81310020PR38957000010168160925513-1/1   23112012016CURITIBA            2501201300000000011118800CC                                                                                                                                                                                                                                                                                                                                                                                                         000131
1046421007255COBR_CAUC_BIC  MAESTRO DO BRASIL IND METALUR LTDA      076639285000924FERRAGENS NEGRAO COMERCIAL LTDA         R. PROFESSOR ALGACYR M. MADER,,2800     CURITIBA - PR                           81310020PR38957000020168162525527-1/1   23112012016CURITIBA            2501201300000000011314300CC                                                                                                                                                                                                                                                                                                                                                                                                         000132
1008421027730DIR_CREDIT     PCA - REFEICOES E HOSPITALARES LTDA     001397886000111MMAIA - INDÚSTRIA METALMECÂNICA         RUA FRANCISCO OLIVEIRA ALMEIDA 121 F    EUSEBIO                                 61760000CE3899100001                                                                                                                                          012044189           250420110000022952S/N         21112012000403FORNECIMENTO DIÁRIO E ININTERRUPTO DE REFEIÇÕES PRONTAS, PELA CONTRATA-DA - AOS FUNCIONÁRIOS DA CONTRATANTE - ATRAVÉS DA MODALIDADE DENOMINADA DE RE -FEIÇÃO TRANSPORTADA.                                                                      005737974000176              000133
1029421018494COBR_CAUC_BIC  PRO SALUTE SERVICOS PARA SAUDE LTDA     088611264000122INTRAL S A IND DE MATERIAIS ELETRI      TRAV. RIO GRANDE , 130                  CAXIAS DO SUL                           95098750RS3895600001098291890122977.A   20112012029CAXIAS DO SUL       1012201200000000010533537CC                                                                                                                                                                                                                                                                                                                                                                                                         000134
1045421013192DIR_CREDIT     YEX GESTAO DE SERVICOS LTDA             013131370000100SÃO LUCAS MÉDICO HOSPITALAR LTDA        AV CORONEL STANLEY DA SILVEIRA, 33      ARACAJU                                 49000000SE3889300001                                                                                                                                          481013229           241120060000021898001/06      20112012000404Prestação de serviços de lavagem, higienização e tratamento de roupas  hospitalares, constando de lençóis, fronhas, toalhas, uniformes, campos        cirúrgicos e outras provenientes do próprio hospital.                                     007689816000113              000135
1013421015746DIR_CREDIT     ZJ MINERACAO E TERRAPLANAGEM LTDA       005673658000269MINERACAO FAZENDA BRASILEIRO S/A        R ITALO ANTONIO DE JESUS ALMEIDA,20     SANTA LUZ                               48880000BA3891400001                                                                                                                                          481026195           021120110000021384MFB-C1-CON.222102012000404Prestação de serviços de movimentação de material - lavra industrial,  incluindo fornecimedno de equipamentos, materiais insumos, mão de obra e consu-míveis(exceto diesel)necessários à execução da lavra nas cavas da Mina C1.                009029442000135              000136
9000021                                                                                                                                                                                                                                                                                                                                                                                                                                                                                                                                                                                                                                                                                                               000137
