0REMESSANOTIFICACAO ELETRONICA        99999999999999BICBANCO                                AV. PAULISTA                            1048      12.ANDAR  BELA VISTA                    SAO PAULO                     01310100SP1121739360CORTINHAL                               COORDENADOR                             16052012                                                                                                                                                                                                                                                                                                                                                                                      000001
1044421000599DIR_CREDIT     FLAGUE CONSTRUCOES LTDA                 008234148000100PM DE MACAIBA                           AV MONICA NOBREGA DANTAS, 34            MACAIBA                                 59280000RN3535500001                                                                                                                                          011833992           060520110000018754P. LICIT. 1110052012000403construção de escola padrão com 10 salas de aula - monte líbano/macaiba-rn.                                                                                                                                                                     041000977000196              000002
1044481014642DIR_CREDIT     GASPAR SERVICOS E CONSTRUCOES LTDA      008241804000194SECRETARIA DE ESTADO DA EDUCACAO E CULT 5OC CENTRO ADMINISTRATIVO S/N           NATAL                                   59037155RN3535700001                                                                                                                                          481017471           230720100000015054060/2010    05012012000404execução de obras referente ao lote n 38 - reforma e ampliação das instalações físicas na escola estadual ielmo marinho, em ielmo marinho/rn e reformadas instalaçoes fisicas na e.e. jose fernandes machado em natal/rn.                       008735254000160              000003
1044481016670DIR_CREDIT     GASPAR SERVICOS E CONSTRUCOES LTDA      008241804000194SECRETARIA DE ESTADO DA EDUCACAO E CULT LOC CENTRO ADMINISTRATIVO - S/N         NATAL                                   59037155RN3535800001                                                                                                                                          481017471           040820100000015267026/2010-SIN05012012000404execução das obras do lote n 22 - construção de unidade escolar padrao com 06 salas de aula e quadra poliesportiva coberta, em galinhos/rn.                                                                                                     008735254000160              000004
1044481016670DIR_CREDIT     GASPAR SERVICOS E CONSTRUCOES LTDA      008241804000194SECRETARIA DE ESTADO DA EDUCACAO E CULT LOC CENTRO ADMINISTRATIVO               NATAL                                   59037155RN3535900001                                                                                                                                          481017471           030920100000015688076/2010-SIN05012012000404reforma e ampliação das instalações físicas na E.E Querubina Silveira, em Cerro corá/rn e reforma e ampliação das instalaçoes fisicas na e.e teonia amaral, em florania/rn.                                                                     008735254000160              000005
1007421006183COBR_CAUC_BIC  NITRIFLEX S/A IND E COMERCIO            015179682002243RHODIA POLIAMIDA E ESPECIALIDADES       AV.DOS ESTADOS, 6144                    SANTO ANDRE                             09290520SP353940000101219846001513301   14052012038ABC                 1607201200000000015165360CC                                                                                                                                                                                                                                                                                                                                                                                                         000006
1009420930764COBR_CAUC_BIC  S/A CORREIO BRAZILIENSE                 060701190000104ITAU UNIBANCO S.A.                      PRACA ALFREDO E.S.ARANHA,100 TORRE ITAUSSAO PAULO                               04344902SP353950000101376971437505-1    14052012007PAULISTA            3005201200000000011681280CC                                                                                                                                                                                                                                                                                                                                                                                                         000007
1021420930887COBR_CAUC_BIC  DEDINI S/A INDUSTRIAS DE BASE           061068342000138PRENSAS SCHULER SA                      AV FAGUNDES DE OLIVEIRA, 1515 PIRAPORINHDIADEMA                                 09950904SP35396000010633072631386-01-1  11052012038ABC                 3005201200000000010594900CC                                                                                                                                                                                                                                                                                                                                                                                                         000008
1007420931444COBR_CAUC_BIC  PLASINCO LTDA                           047090782000160DANEVA MAQ. E COND. EL. LTDA.           RUA VOTUPORANGA,415                     POA                                     08558050SP35397000010121974920178       14052012007PAULISTA            0406201200000000020654816CC                                                                                                                                                                                                                                                                                                                                                                                                         000009
1007421053971COBR_CAUC_BIC  VIDA ALIMENTOS LTDA                     011457034000126GOOD MEAL COM E TRANSP DE PROD ALI      RUA ARARIPE, 206                        SAO PAULO                               03215010SP3539800001012202410004438001  14052012007PAULISTA            0606201200000000015012000CC                                                                                                                                                                                                                                                                                                                                                                                                         000010
1020421001652COBR_CAUC_BIC  SANTHER FAB PAP STA THEREZINHA S/A      007968243000167FOCO DISTRIBUIDORA LTDA                 R. TOM JOBIM, 600 GALP 01/02 E MOD01    CONTAGEM                                32210190MG353990000106187653036188101   14052012019BELO HORIZONTE      1106201200000000015335659CC                                                                                                                                                                                                                                                                                                                                                                                                         000011
1014421021575COBR_CAUC_COR  CESBRA QUIMICA S/A                      048539407000207BASF SA                                 AVENIDA BRASIL ,791                     GUARATINGUETA                           12521900SP3540000001045218658352/COMPL  15052012900BRADESCO S/A        1406201200000000038000000CC                                                                                                                                                                                                                                                                                                                                                                                                         000012
1010421023481DIR_CREDIT     HOSPITAL DE AVILA LTDA                  004171205000190VIVA PLANOS DE SAUDE LTDA               AV.DR.JOSE A.MOREIRA, 1251 - CASA CAIADAOLINDA                                  53130410PE3541000001                                                                                                                                          001177263           010320100000020792S/N         10052012001213Prestação de serviços de assistência médico-hospitalar.                                                                                                                                                                                         035716166000193              000013
9000012                                                                                                                                                                                                                                                                                                                                                                                                                                                                                                                                                                                                                                                                                                               000014
