0REMESSANOTIFICACAO ELETRONICA        99999999999999BICBANCO                                AV. PAULISTA                            1048      12.ANDAR  BELA VISTA                    SAO PAULO                     01310100SP1121739360CORTINHAL                               COORDENADOR                             30042014                                                                                                                                                                                                                                                                                                                                                                                      000001
1014421019635DIR_CREDIT     LIFECENTER SISTEMA DE SAUDE S/A         012055813000168CEMIG SAUDE                             AV BARBACENA, 472 5/6/7/8 ANDARES       BELO HORIZONTE                          30190130BH4732500001                                                                                                                                          010942384           010620040000012954            14102010051902Contrato de prestação serviços de assistência médica hospitalar                                                                                                                                                                                 004123021000155              000002
1019421004658COBR_CAUC_COR  S/A ESTADO DE MINAS                     002919555000167ARTERIS S.A.                            JOAQUIM FLORIANO 913 6 ANDAR            SAO PAULO                               04534013SP4737200001012904082312872-1   28042014900BRADESCO S/A        1505201400000000010488816CC                                                                                                                                                                                                                                                                                                                                                                                                         000003
1007421069410COBR_CAUC_COR  FULL COMEX TRADING S/A                  012718028000229KINGSON STEEL COM. DE PRODS. SIDER      DR NEREU RAMOS 64 SL 02                 ITAJAI                                  88301215SC47373000010287196222624.4     28042014700BANCO REAL- ABN AMRO2706201400000000014747126CC                                                                                                                                                                                                                                                                                                                                                                                                         000004
1008421022487COBR_CAUC_COR  EBP - EMPRESA BRASILEIRA DE PESCADO     009060964005916PIMENTA VERDE ALIMENTOS LTDA            RUA AGOSTINO TOGNERI N421 PARTE B       SAO PAULO                               04690090SP4737400001017523260026021/    28042014900BRADESCO S/A        2705201400000000023498000CC                                                                                                                                                                                                                                                                                                                                                                                                         000005
1007421055095COBR_CAUC_COR  PLASTER IND COM RESINAS PLAS EIRELI     087833737000335PISANI PLASTICOS S/A                    AV TOBIAS SALGADO,461                   PINDAMONHANGABA                         12412770SP473750000100019843040951/A    28042014900BRADESCO S/A        2505201400000000017094000CC                                                                                                                                                                                                                                                                                                                                                                                                         000006
9000005                                                                                                                                                                                                                                                                                                                                                                                                                                                                                                                                                                                                                                                                                                               000007
