0REMESSANOTIFICACAO ELETRONICA        99999999999999BICBANCO                                AV. PAULISTA                            1048      12.ANDAR  BELA VISTA                    SAO PAULO                     01310100SP1121739360CORTINHAL                               COORDENADOR                             09022012                                                                                                                                                                                                                                                                                                                                                                                      000001
1009420930764COBR_CAUC_BIC  S/A CORREIO BRAZILIENSE                 006056990000166JOSE CELSO GONTIJO ENGENHARIA S A       EQS 114 115 CONJUNTO A BLOCO 1 A SUL 41 BRASILIA                                70377400DF337840000101371724431477-1    07022012009BRASILIA            2902201200000000014166306CC                                                                                                                                                                                                                                                                                                                                                                                                         000002
1016421006424COBR_CAUC_COR  BOUTIN FERTILIZANTES LTDA               001710374000163AGROPECUARIA FIORESE                    R. MARECHAL FLORIANO 340,340            RONCADOR                                87320000PR33785000010331466724653       19012012800UNIBANCO S/A        1507201200000000023050000CC                                                                                                                                                                                                                                                                                                                                                                                                         000003
1016421006424COBR_CAUC_COR  BOUTIN FERTILIZANTES LTDA               079035275000110AGRICOLA MK LTDA                        AV DR. CICERO DE MORAES ,43             SAO PEDRO IVAI                          86945000PR33786000010331464124938       07022012800UNIBANCO S/A        3006201200000000010620000CC                                                                                                                                                                                                                                                                                                                                                                                                         000004
1024421000926DIR_CREDIT     HOSPITAL DE OLHOS DE CUIABA LTDA        005794356000168INSTITUTO ASSIST SAUDE SERV ESTADO MT   AV HIST RUBENS DE MENDONçA 343          CUIABá                                  78005170MT3380300001                                                                                                                                          011013749           010620070000001906PJ/2007-MTS 30062010000403CONTRATO DE CREDENCIAMENTO P/ PRESTAçãO SERVIçOS DE ASSISTENCIA à SAUDEAOS SERVIDORES DO ESTADO DE MATO GROSSO.                                                                                                                                 000108558000195              000005
1024420934542DIR_CREDIT     HOSPITAL DE MED ESPECIALIZADA LTDA      005794356000168INSTITUTO ASSIST SAUDE SERV ESTADO MT   AV RUBENS DE MENDONçA, 343              CUIABá                                  78005170MT3380400001                                                                                                                                          011409685           221220050000016216CONTRATO PJ/02052011000403prestação de serviços de saúde para atendimento médico-hospitalar_aos  beneficiários da contratante.                                                                                                                                            070524145000177              000006
9000005                                                                                                                                                                                                                                                                                                                                                                                                                                                                                                                                                                                                                                                                                                               000007
