0REMESSANOTIFICACAO ELETRONICA        99999999999999BICBANCO                                AV. PAULISTA                            1048      12.ANDAR  BELA VISTA                    SAO PAULO                     01310100SP1121739360CORTINHAL                               COORDENADOR                             05102012                                                                                                                                                                                                                                                                                                                                                                                      000001
1043421005576DIR_CREDIT     AMBIENTAL SOLUCOES LTDA                 009159666000161PREFEITURA MUNICIPAL DE SANTA RITA      RUA JUAREZ TÁVOLA,N 93 - SANTA RITA     JOAO PESSOA                             58300410PB3813600001                                                                                                                                          481010878           310520120000022102099/2012    02102012000404prestação de serviços de limpeza urbana no município de Santa Rita.                                                                                                                                                                             001840291000199              000002
1007421044581COBR_CAUC_BIC  GRANCARGA TRANSP. E GUINDASTES S/A.     001027335000166WOBBEN WINDPOWER IND.E COM.LTDA.        AV.FERNANDO STECCA,100                  SOROCABA                                18087149SP3816200001014855030002492     04102012007PAULISTA            2410201200000000047394428CC                                                                                                                                                                                                                                                                                                                                                                                                         000003
1007421044581COBR_CAUC_BIC  GRANCARGA TRANSP. E GUINDASTES S/A.     001027335000166WOBBEN WINDPOWER IND.E COM.LTDA.        AV.FERNANDO STECCA,100                  SOROCABA                                18087149SP3816200002014855200002494     03102012007PAULISTA            2410201200000000025076753CC                                                                                                                                                                                                                                                                                                                                                                                                         000004
1014421008439COBR_CAUC_COR  TV OMEGA LTDA                           006281716000190Tholor do Brasil Ltda                   Avenida São João -               4      Manaus                                  69029240AM38163000010454765100021101    04102012800UNIBANCO S/A        0512201200000000023000000CC                                                                                                                                                                                                                                                                                                                                                                                                         000005
1007421059295COBR_CAUC_BIC  PARAMOUNT TEXTEIS IND E COM S.A.        023119027000446MINAS LA COM DE FIOS LT                 R JOSE MARIA DE SOUZA,348               AGUAS DE LINDOI                         13940000SP3816400001014859020038069/01  03102012021CAMPINAS            2811201200000000012412564CC                                                                                                                                                                                                                                                                                                                                                                                                         000006
1036141019566COBR_CAUC_BIC  JBR COM IMP EXP GRAO MAT PRIMA LT       051254159000173KARINA IND COM DE PLASTICOS LTDA        AV. VENTUROSA, 1688 KM 217 V D          GUARULHOS                               07240000SP3816500001058972563917A       19092012037GUARULHOS           1911201200000000011629852TD                                                                                                                                                                                                                                                                                                                                                                                                         000007
1036141019566COBR_CAUC_BIC  JBR COM IMP EXP GRAO MAT PRIMA LT       051254159000173KARINA IND COM DE PLASTICOS LTDA        AV. VENTUROSA, 1688 KM 217 V D          GUARULHOS                               07240000SP3816500002058972643935A       24092012037GUARULHOS           2311201200000000011494696TD                                                                                                                                                                                                                                                                                                                                                                                                         000008
1013421015746DIR_CREDIT     ZJ MINERACAO E TERRAPLANAGEM LTDA       005673658000269MINERACAO FAZENDA BRASILEIRO S/A        R ITALO ANTONIO DE JESUS ALMEIDA,20     SANTA LUZ                               48880000BA3818000001                                                                                                                                          481026098           021120110000021384MFB-C1-CON.204102012000404Prestação de serviços de movimentação de material - lavra industrial,  incluindo fornecimedno de equipamentos, materiais insumos, mão de obra e consu-míveis(exceto diesel)necessários à execução da lavra nas cavas da Mina C1.                009029442000135              000009
9000006                                                                                                                                                                                                                                                                                                                                                                                                                                                                                                                                                                                                                                                                                                               000010
