0REMESSANOTIFICACAO ELETRONICA        99999999999999BICBANCO                                AV. PAULISTA                            1048      12.ANDAR  BELA VISTA                    SAO PAULO                     01310100SP1121739360CORTINHAL                               COORDENADOR                             09082013                                                                                                                                                                                                                                                                                                                                                                                      000001
1015421022340COBR_CAUC_BIC  BORRACHAS VIPAL SA                      060681038000107RENOBRAS RENOV. BRASILEIRA PN LTDA      ESTR DR CICERO B MORAIS, 311            BARUERI                                 06407000SP434950000101092834011486401   07082013007PAULISTA            2208201300000000024956175CC                                                                                                                                                                                                                                                                                                                                                                                                         000002
1007421061990COBR_CAUC_BIC  BRASIL MAQUINAS E EQUIP PESADOS S/A     000252409000103TERCON TERRAPLENAGEM CONST.LTDA         RODOVIA RS 332,1260-KM 101              ENCANTADO                               95960000RS4350400001021482093567A       29072013015PORTO ALEGRE        2608201300000000012666800CC                                                                                                                                                                                                                                                                                                                                                                                                         000003
1007421061990COBR_CAUC_BIC  BRASIL MAQUINAS E EQUIP PESADOS S/A     000252409000103TERCON TERRAPLENAGEM CONST.LTDA         RODOVIA RS 332,1260-KM 101              ENCANTADO                               95960000RS4350400002021482173567B       29072013015PORTO ALEGRE        2609201300000000012666600CC                                                                                                                                                                                                                                                                                                                                                                                                         000004
1007421061990COBR_CAUC_BIC  BRASIL MAQUINAS E EQUIP PESADOS S/A     000252409000103TERCON TERRAPLENAGEM CONST.LTDA         RODOVIA RS 332,1260-KM 101              ENCANTADO                               95960000RS4350400003021482253567C       29072013015PORTO ALEGRE        2610201300000000012666600CC                                                                                                                                                                                                                                                                                                                                                                                                         000005
1007421061990COBR_CAUC_BIC  BRASIL MAQUINAS E EQUIP PESADOS S/A     004810550000127LEAO ENGENHARIA S.A.                    AVENIDA PRESIDENTE VARGAS,2121          RIBEIRAO PRETO                          14020260SP43505000010214844612568A      06082012022RIBEIRAO PRETO      1509201300000000010285714CC                                                                                                                                                                                                                                                                                                                                                                                                         000006
1007421061990COBR_CAUC_BIC  BRASIL MAQUINAS E EQUIP PESADOS S/A     004810550000127LEAO ENGENHARIA S.A.                    AVENIDA PRESIDENTE VARGAS,2121          RIBEIRAO PRETO                          14020260SP43505000020214845412568B      06082012022RIBEIRAO PRETO      1510201300000000010285714CC                                                                                                                                                                                                                                                                                                                                                                                                         000007
1007421061990COBR_CAUC_BIC  BRASIL MAQUINAS E EQUIP PESADOS S/A     004810550000127LEAO ENGENHARIA S.A.                    AVENIDA PRESIDENTE VARGAS,2121          RIBEIRAO PRETO                          14020260SP43505000030214846212568C      06082012022RIBEIRAO PRETO      1511201300000000010285714CC                                                                                                                                                                                                                                                                                                                                                                                                         000008
1007421061990COBR_CAUC_BIC  BRASIL MAQUINAS E EQUIP PESADOS S/A     004810550000127LEAO ENGENHARIA S.A.                    AVENIDA PRESIDENTE VARGAS,2121          RIBEIRAO PRETO                          14020260SP43505000040214847112568D      06082012022RIBEIRAO PRETO      1512201300000000010285714CC                                                                                                                                                                                                                                                                                                                                                                                                         000009
1007421061990COBR_CAUC_BIC  BRASIL MAQUINAS E EQUIP PESADOS S/A     004810550000127LEAO ENGENHARIA S.A.                    AVENIDA PRESIDENTE VARGAS,2121          RIBEIRAO PRETO                          14020260SP43505000050214848912568E      06082012022RIBEIRAO PRETO      1501201400000000010285714CC                                                                                                                                                                                                                                                                                                                                                                                                         000010
1007421061990COBR_CAUC_BIC  BRASIL MAQUINAS E EQUIP PESADOS S/A     004810550000127LEAO ENGENHARIA S.A.                    AVENIDA PRESIDENTE VARGAS,2121          RIBEIRAO PRETO                          14020260SP43505000060214849712568F      06082012022RIBEIRAO PRETO      1502201400000000010285715CC                                                                                                                                                                                                                                                                                                                                                                                                         000011
1007421061990COBR_CAUC_BIC  BRASIL MAQUINAS E EQUIP PESADOS S/A     004810550000127LEAO ENGENHARIA S.A.                    AVENIDA PRESIDENTE VARGAS,2121          RIBEIRAO PRETO                          14020260SP43505000070214850112568G      06082012022RIBEIRAO PRETO      1503201400000000010285715CC                                                                                                                                                                                                                                                                                                                                                                                                         000012
1015421021867COBR_CAUC_COR  COTRIJUI COOP AGROP & INDUSTRIAL        008474030000141MEDEIROS FRIOS E CONGELADOS LTDA-       RUA DIAS CARNEIRO 1977                  BACABAL                                 65700000MA435020000100049676156578-1    07082013900BRADESCO S/A        1408201300000000013058000CC                                                                                                                                                                                                                                                                                                                                                                                                         000013
1021420930887COBR_CAUC_BIC  DEDINI S/A INDUSTRIAS DE BASE           075717355000286USINA DE ACUCAR SANTA TEREZINHA LT      AV MARCELO MESSIAS BUSIQUIA 847 PQ INDUSMARINGA                                 87065006PR434960000106424771227318-1-1  08082013016CURITIBA            3008201300000000030000000CC                                                                                                                                                                                                                                                                                                                                                                                                         000014
1021420930887COBR_CAUC_BIC  DEDINI S/A INDUSTRIAS DE BASE           075717355000286USINA DE ACUCAR SANTA TEREZINHA LT      AV MARCELO MESSIAS BUSIQUIA 847 PQ INDUSMARINGA                                 87065006PR434960000206424801227318-2-2  08082013016CURITIBA            3009201300000000030000000CC                                                                                                                                                                                                                                                                                                                                                                                                         000015
1021420930887COBR_CAUC_BIC  DEDINI S/A INDUSTRIAS DE BASE           075717355000286USINA DE ACUCAR SANTA TEREZINHA LT      AV MARCELO MESSIAS BUSIQUIA 847 PQ INDUSMARINGA                                 87065006PR434960000306424810227318-3-3  08082013016CURITIBA            3010201300000000022500000CC                                                                                                                                                                                                                                                                                                                                                                                                         000016
1016421009571COBR_CAUC_BIC  IMPORTADORA DE FRUTAS LA VIOLETERA      001644931000608A.S.E. DISTRIBUICAO LTDA                RUA SARGENTE EICLIDES, 110              ANAPOLIS                                75130390GO4349700001040918740025015001  06082013018GOIANIA             0309201300000000010920548CC                                                                                                                                                                                                                                                                                                                                                                                                         000017
1007421065309COBR_CAUC_BIC  OCEANO IND.GRAFICA E EDITORA LTDA       062270186000156PRECOLANDIA COMERCIAL  LTDA             AV. ALVARO RAMOS,2178                   SAO PAULO                               03330000SP43501000010214851945600-A     30072013007PAULISTA            3008201300000000013911295CC                                                                                                                                                                                                                                                                                                                                                                                                         000018
1036421018985COBR_CAUC_COR  PEEQFLEX INDUSTRIA E COMERCIO LTDA      073410326000837CERVEJARIA PETROPOLIS S/A               Rod Celso Garcia Cid, 1440  Km 85       CAMBE                                   86185520PR4350300001059658636023728-01  07082013800UNIBANCO S/A        0409201300000000013024653CC                                                                                                                                                                                                                                                                                                                                                                                                         000019
1007421055095COBR_CAUC_COR  PLASTER IND COM RESINAS PLAS EIRELI     045420726000111TEXTIL ITAJA LTDA                       RUA PROJETADA II,75                     SALTO DE PIRAPO                         18160000SP435060000100015244035385/A    07082013900BRADESCO S/A        0709201300000000017036250CC                                                                                                                                                                                                                                                                                                                                                                                                         000020
1029421018494COBR_CAUC_BIC  PRO SALUTE SERVICOS PARA SAUDE LTDA     088611264000122INTRAL S A IND DE MATERIAIS ELETRI      TRAV. RIO GRANDE , 130                  CAXIAS DO SUL                           95098750RS4349800001000008660135211.A   02082013015PORTO ALEGRE        1009201300000000010067321CC                                                                                                                                                                                                                                                                                                                                                                                                         000021
1029421018494COBR_CAUC_BIC  PRO SALUTE SERVICOS PARA SAUDE LTDA     093785822000106SAN MARINO ONIBUS E IMPLEMENTOS LT      IRMAO GILDO SCHIAVO, 110                CAXIAS DO SUL                           95058510RS4350000001000008400135258.A   02082013015PORTO ALEGRE        2008201300000000021704296CC                                                                                                                                                                                                                                                                                                                                                                                                         000022
1029421018494COBR_CAUC_BIC  PRO SALUTE SERVICOS PARA SAUDE LTDA     090467424000153VIACAO SANTA TEREZA DE CAXIAS DO S      RUA JULIO CALEGARI, 940                 CAXIAS DO SUL                           95095230RS4349900001000008580135277.A   02082013015PORTO ALEGRE        1808201300000000023079286CC                                                                                                                                                                                                                                                                                                                                                                                                         000023
9000012                                                                                                                                                                                                                                                                                                                                                                                                                                                                                                                                                                                                                                                                                                               000024
