0REMESSANOTIFICACAO ELETRONICA        99999999999999BICBANCO                                AV. PAULISTA                            1048      12.ANDAR  BELA VISTA                    SAO PAULO                     01310100SP1121739360CORTINHAL                               COORDENADOR                             05042012                                                                                                                                                                                                                                                                                                                                                                                      000001
1007421006183COBR_CAUC_BIC  NITRIFLEX S/A IND E COMERCIO            015179682002243RHODIA POLIAMIDA E ESPECIALIDADES       AV.DOS ESTADOS, 6144                    SANTO ANDRE                             09290520SP347020000101168737001447501   03042012038ABC                 0506201200000000014317777CC                                                                                                                                                                                                                                                                                                                                                                                                         000002
1007420931444COBR_CAUC_BIC  PLASINCO LTDA                           014197209000100CORDEIRO CABOS ELETRICOS SA             RUA  ILJIMA,1036                        FERRAZ DE VASCO                         08534000SP34703000010116863019383-1     02042012007PAULISTA            2705201200000000010741234CC                                                                                                                                                                                                                                                                                                                                                                                                         000003
1007420931444COBR_CAUC_BIC  PLASINCO LTDA                           014197209000100CORDEIRO CABOS ELETRICOS SA             RUA  ILJIMA,1036                        FERRAZ DE VASCO                         08534000SP34703000020116864819383-2     02042011007PAULISTA            0106201200000000010741234CC                                                                                                                                                                                                                                                                                                                                                                                                         000004
1007420931444COBR_CAUC_BIC  PLASINCO LTDA                           014197209000100CORDEIRO CABOS ELETRICOS SA             RUA  ILJIMA,1036                        FERRAZ DE VASCO                         08534000SP34703000030116865619383-3     02042012007PAULISTA            0606201200000000010741234CC                                                                                                                                                                                                                                                                                                                                                                                                         000005
1007420931444COBR_CAUC_BIC  PLASINCO LTDA                           014197209000100CORDEIRO CABOS ELETRICOS SA             RUA  ILJIMA,1036                        FERRAZ DE VASCO                         08534000SP34703000040116866419383-4     02042012007PAULISTA            1106201200000000010741234CC                                                                                                                                                                                                                                                                                                                                                                                                         000006
1007420931444COBR_CAUC_BIC  PLASINCO LTDA                           014197209000100CORDEIRO CABOS ELETRICOS SA             RUA  ILJIMA,1036                        FERRAZ DE VASCO                         08534000SP34703000050116867219383-5     02042012007PAULISTA            1606201200000000010741234CC                                                                                                                                                                                                                                                                                                                                                                                                         000007
1007420931444COBR_CAUC_BIC  PLASINCO LTDA                           047090782000160DANEVA MAQ. E COND. EL. LTDA.           RUA VOTUPORANGA,415                     POA                                     08558050SP34704000010116862119379       02042012007PAULISTA            2504201200000000021289950CC                                                                                                                                                                                                                                                                                                                                                                                                         000008
1032421002555COBR_CAUC_BIC  ZZA SECURITIZADORA S.A.                 053558342001593ANIS RAZUK INDUSTRIA E COM LTD          RUA CAETANO PINTO  129                  SAO PAULO                               03041000SP347050000100445810151251011   04042012007PAULISTA            1005201200000000024000000CC                                                                                                                                                                                                                                                                                                                                                                                                         000009
1003421005364COBR_CAUC_BIC  PESQUEIRA MAGUARY LTDA                  008967872000135COCO BAMBU FRUTOS DO MAR COMERCIO       AV.BEIRA MAR - DE 1141/1142 A,3698      FORTALEZA                               60165121CE3470600001040938342433        04042012003CENTRO              0905201200000000011100000CC                                                                                                                                                                                                                                                                                                                                                                                                         000010
1024421007416COBR_CAUC_BIC  ATLAS AGROINDUSTRIAL LTDA               083310441005500COOPERATIVA CENTRAL AURORA ALIMENT      LINHA 3 PONTES ROD SCT 480              XANXERE                                 89803400SC34707000010196925521758       03042012024CUIABA              2905201200000000013430000CC                                                                                                                                                                                                                                                                                                                                                                                                         000011
9000006                                                                                                                                                                                                                                                                                                                                                                                                                                                                                                                                                                                                                                                                                                               000012
