0REMESSANOTIFICACAO ELETRONICA        99999999999999BICBANCO                                AV. PAULISTA                            1048      12.ANDAR  BELA VISTA                    SAO PAULO                     01310100SP1121739360CORTINHAL                               COORDENADOR                             31122013                                                                                                                                                                                                                                                                                                                                                                                      000001
1009421012831COBR_CAUC_COR  ASA ALIMENTOS S/A                       007209331000185REGINA AGROINDUSTRIAL S/A               ESTRADA DO AQUIRAZ,  801                FORTALEZA                               60840970CE4590000001001494830045787     28122013900BRADESCO S/A        2501201400000000012412800CC                                                                                                                                                                                                                                                                                                                                                                                                         000002
1043421010006COBR_CAUC_COR  ELFA MEDICAMENTOS LTDA                  008680639000410UNIMED JOAO PESSOA COOPERATIVA DE       AV MINISTRO JOSE AMERICO DE ALMEIDA 1338JOAO PESSOA                             58040302PB459030000100069189000035320   27122013900BRADESCO S/A        2502201400000000021011205CC                                                                                                                                                                                                                                                                                                                                                                                                         000003
1021141012725COBR_CAUC_BIC  MABE BRASIL ELET LTDA- EM REC.JUD.      061099834033870ARTHUR LUNDGREN TECIDOS S/A C.          R.CONSOLACAO ,2411                      SAO PAULO                               01301909SP4590100001065008931233353     21122013007PAULISTA            1902201400000000010342139TD                                                                                                                                                                                                                                                                                                                                                                                                         000004
1021141012725COBR_CAUC_BIC  MABE BRASIL ELET LTDA- EM REC.JUD.      061099834033870ARTHUR LUNDGREN TECIDOS S/A C.          R.CONSOLACAO ,2411                      SAO PAULO                               01301909SP4590100002065009821230636     18122013007PAULISTA            2202201400000000010056003TD                                                                                                                                                                                                                                                                                                                                                                                                         000005
1007421034080COBR_CAUC_BIC  SIDMEX INTERNACIONAL LTDA               013586587000104HF DO BRASIL IMP. E COM. DE POLIME      NELLY PELLEGRINO,463                    SAO CAETANO DO                          09580140SP459020000102537396125413      27122013007PAULISTA            2603201400000000018822453CC                                                                                                                                                                                                                                                                                                                                                                                                         000006
9000004                                                                                                                                                                                                                                                                                                                                                                                                                                                                                                                                                                                                                                                                                                               000007
