0REMESSANOTIFICACAO ELETRONICA        99999999999999BICBANCO                                AV. PAULISTA                            1048      12.ANDAR  BELA VISTA                    SAO PAULO                     01310100SP1121739360CORTINHAL                               COORDENADOR                             24112011                                                                                                                                                                                                                                                                                                                                                                                      000001
1008420932455COBR_CAUC_COR  SANTANA TEXTIL S/A                      078876950005300CIA HERING                              RUA HERMANN HERING 1790                 BLUMENAU                                89010900SC321240000100495389065105*     23112011900BRADESCO S/A        2203201200000000016191889CC                                                                                                                                                                                                                                                                                                                                                                                                         000002
1031421007893COBR_CAUC_BIC  DIPLOMATA S/A  INDL. E COMERCIAL        011367731000196JBR COMERCIO IMP E EXP LTDA             R URBANO DUARTE 779                     SAO PAULO                               02523000SP3212500001049494700015680-05  23112011007PAULISTA            1701201200000000012360000CC                                                                                                                                                                                                                                                                                                                                                                                                         000003
1031421007893COBR_CAUC_BIC  DIPLOMATA S/A  INDL. E COMERCIAL        011367731000196JBR COMERCIO IMP E EXP LTDA             R URBANO DUARTE 779                     SAO PAULO                               02523000SP3212500002049494880015680-04  23112011007PAULISTA            1601201200000000012360000CC                                                                                                                                                                                                                                                                                                                                                                                                         000004
1031421007893COBR_CAUC_BIC  DIPLOMATA S/A  INDL. E COMERCIAL        011367731000196JBR COMERCIO IMP E EXP LTDA             R URBANO DUARTE 779                     SAO PAULO                               02523000SP3212500003049494960015680-03  23112011007PAULISTA            1301201200000000012360000CC                                                                                                                                                                                                                                                                                                                                                                                                         000005
1031421007893COBR_CAUC_BIC  DIPLOMATA S/A  INDL. E COMERCIAL        011367731000196JBR COMERCIO IMP E EXP LTDA             R URBANO DUARTE 779                     SAO PAULO                               02523000SP3212500004049495000015680-02  23112011007PAULISTA            1201201200000000012360000CC                                                                                                                                                                                                                                                                                                                                                                                                         000006
1031421007893COBR_CAUC_BIC  DIPLOMATA S/A  INDL. E COMERCIAL        011367731000196JBR COMERCIO IMP E EXP LTDA             R URBANO DUARTE 779                     SAO PAULO                               02523000SP3212500005049495180015680-01  23112011007PAULISTA            1101201200000000012360000CC                                                                                                                                                                                                                                                                                                                                                                                                         000007
1007421049451COBR_CAUC_COR  RIGOR ALIMENTOS LTDA                    012714378000136XPY DISTRIBUIDORA DE ALIMENTOS LTD      AV. SANTOS DUMONT, 8011 ESP 10 GP 0 CENTLAURO DE FREITA                         42700000BA32126000010006231511 012142   23112011900BRADESCO S/A        0312201100000000010800000CC                                                                                                                                                                                                                                                                                                                                                                                                         000008
1047421000402COBR_CAUC_BIC  TRANSPORTADORA JOVERNO LTDA             049972326000170USINA MOEMA ACUCAR E ALCOOL LTDA        AV. JOHN DALTO,301-BL B-CJ 11BA16B      CAMPINAS                                13069330SP3214300001011280581202        18102011021CAMPINAS            0512201100000000008397000CC                                                                                                                                                                                                                                                                                                                                                                                                         000009
1047421000402COBR_CAUC_BIC  TRANSPORTADORA JOVERNO LTDA             049972326000170USINA MOEMA ACUCAR E ALCOOL LTDA        AV. JOHN DALTO,301-BL B-CJ 11BA16B      CAMPINAS                                13069330SP3214300002011442151236        28102011021CAMPINAS            1212201100000000008308100CC                                                                                                                                                                                                                                                                                                                                                                                                         000010
1047421000402COBR_CAUC_BIC  TRANSPORTADORA JOVERNO LTDA             049972326000170USINA MOEMA ACUCAR E ALCOOL LTDA        AV. JOHN DALTO,301-BL B-CJ 11BA16B      CAMPINAS                                13069330SP3214300003011444611259        01112011021CAMPINAS            1912201100000000008421800CC                                                                                                                                                                                                                                                                                                                                                                                                         000011
1047421000402COBR_CAUC_BIC  TRANSPORTADORA JOVERNO LTDA             049972326000170USINA MOEMA ACUCAR E ALCOOL LTDA        AV. JOHN DALTO,301-BL B-CJ 11BA16B      CAMPINAS                                13069330SP3214300004011668121296        16112011021CAMPINAS            0201201200000000006254000CC                                                                                                                                                                                                                                                                                                                                                                                                         000012
1047421000402COBR_CAUC_BIC  TRANSPORTADORA JOVERNO LTDA             049972326000170USINA MOEMA ACUCAR E ALCOOL LTDA        AV. JOHN DALTO,301-BL B-CJ 11BA16B      CAMPINAS                                13069330SP3214300005011668391296B       16112011021CAMPINAS            0201201200000000002659000CC                                                                                                                                                                                                                                                                                                                                                                                                         000013
1047421000402COBR_CAUC_BIC  TRANSPORTADORA JOVERNO LTDA             049972326000170USINA MOEMA ACUCAR E ALCOOL LTDA        AV. JOHN DALTO,301-BL B-CJ 11BA16B      CAMPINAS                                13069330SP3214300006011668471298        16112011021CAMPINAS            0901201200000000007432000CC                                                                                                                                                                                                                                                                                                                                                                                                         000014
9000004                                                                                                                                                                                                                                                                                                                                                                                                                                                                                                                                                                                                                                                                                                               000015
