0REMESSANOTIFICACAO ELETRONICA        99999999999999BICBANCO                                AV. PAULISTA                            1048      12.ANDAR  BELA VISTA                    SAO PAULO                     01310100SP1121739360CORTINHAL                               COORDENADOR                             26092011                                                                                                                                                                                                                                                                                                                                                                                      000001
1007421013325COBR_CAUC_COR  SANTA CRUZ FOMENTO COMERCIAL LTDA       059275792000150GENERAL MOTORS DO BRASIL LTDA           AV. GOIAS 1805                          S.CAETANO SUL                           09550050SP30841000010080904644890       22092011900BRADESCO S/A        0711201100000000013883885CC                                                                                                                                                                                                                                                                                                                                                                                                         000002
1031421007893COBR_CAUC_COR  DIPLOMATA S/A  INDL. E COMERCIAL        083310441004104COOPERATIVA CENTRAL OESTE CATARINE      AV SANTO DAL BOSCO 860                  ERECHIM                                 99700000RS3084200001049274500013955-04  23092011800UNIBANCO S/A        1111201100000000011700000CC                                                                                                                                                                                                                                                                                                                                                                                                         000003
1031421007893COBR_CAUC_COR  DIPLOMATA S/A  INDL. E COMERCIAL        083310441004104COOPERATIVA CENTRAL OESTE CATARINE      AV SANTO DAL BOSCO 860                  ERECHIM                                 99700000RS3084200002049274680013955-05  23092011800UNIBANCO S/A        1111201100000000011700000CC                                                                                                                                                                                                                                                                                                                                                                                                         000004
1038421011812COBR_CAUC_COR  ENERGY COML IMPORT E EXPORT LTDA        009363567000369PREMIX BRASIL RESINAS LTDA              ROD.BR. 101 5600 KM 117 5 SL 6          OSASCO                                  88311601SP3084300001094330396528        22092011900BRADESCO S/A        2110201100000000022469517CC                                                                                                                                                                                                                                                                                                                                                                                                         000005
1007421055273COBR_CAUC_BIC  VIVER EMPREEND IMOB E PARTIC SA         011244729000120ESPIRITO SANTO CAMP DESENV              R GOMES CARVALHO 892 12.ANDAR           SAO PAULO                               04547000SP30844000010081193821          19092011007PAULISTA            1901201200000000017369832CC                                                                                                                                                                                                                                                                                                                                                                                                         000006
9000004                                                                                                                                                                                                                                                                                                                                                                                                                                                                                                                                                                                                                                                                                                               000007
