0REMESSANOTIFICACAO ELETRONICA        99999999999999BICBANCO                                AV. PAULISTA                            1048      12.ANDAR  BELA VISTA                    SAO PAULO                     01310100SP1121739360CORTINHAL                               COORDENADOR                             29102012                                                                                                                                                                                                                                                                                                                                                                                      000001
1019421004658COBR_CAUC_COR  S/A ESTADO DE MINAS                     003657848000186FUNDACAO ASSIS CHATEAUBRIAND            SIG SUL QUADRA 02 340 LOTE 01           BRASILIA                                70610901DF3851000001011835471428412-1   25102012900BRADESCO S/A        1511201200000000026749414CC                                                                                                                                                                                                                                                                                                                                                                                                         000002
1028421009810COBR_CAUC_COR  VALLEE S/A                              007737326000145FERREIRA & QUEIROZ PROD AGROPEC LT      AVE RIO GRANDE 846-CENTRO               ITURAMA                                 38280000MG3851100001028072923060748013  26102012800UNIBANCO S/A        2101201300000000013298000CC                                                                                                                                                                                                                                                                                                                                                                                                         000003
1022421007720COBR_CAUC_BIC  JUMIL-JUSTINO DE MORAIS IRMAOS S/A      009365484000228BORGATO COMERCIO DE MAQUINAS LTDA       CX POSTAL, 39                           MORRO AGUDO                             14640000SP385120000104425846127893E.01  26102012022RIBEIRAO PRETO      1611201200000000015270000CC                                                                                                                                                                                                                                                                                                                                                                                                         000004
1029421018680DIR_CREDIT     HOSPITAL SANTA LUCIA LTDA               089100135000132UNIMED PLANALTO CENTRAL                 RUA GENERAL CAMARA,589                  CRUZ ALTA                               95025770RS3851400001                                                                                                                                          001199062           010820100000019907CONTRATO DE 15102012001213SERVICOS HOSPITALARES                                                                                                                                                                                                                           089121230000112              000005
1007421044590DIR_CREDIT     ARFRIO S/A ARM GERAIS FRIGORIFICO       006057223000171SENDAS DISTRIBUIDORA S/A                RUA JOAO ANTONIO SENDAS, 286 PARTE      SOA JOAO DE MERITI R                    25565330RJ3852600001                                                                                                                                          001117177           061020100000017636CONSOLIDADO 14092012001213ref locação de imóvel não residencial-lotes nr 108/109 do contrato 002 e ref locação de bens móveis do contrato nr 001.                                                                                                                         061024295000120              000006
1007421044590DIR_CREDIT     ARFRIO S/A ARM GERAIS FRIGORIFICO       006057223000171SENDAS DISTRIBUIDORA S/A                RUA JOAO ANTONIO SENDAS, 286 PARTE      SOA JOAO DE MERITI R                    25565330RJ3852700001                                                                                                                                          001118535           061020100000017636CONSOLIDADO 28092012001213ref locação de imóvel não residencial-lotes nr 108/109 do contrato 002 e ref locação de bens móveis do contrato nr 001.                                                                                                                         061024295000120              000007
1007421044590DIR_CREDIT     ARFRIO S/A ARM GERAIS FRIGORIFICO       006057223000171SENDAS DISTRIBUIDORA S/A                RUA JOAO ANTONIO SENDAS, 286 PARTE      SOA JOAO DE MERITI R                    25565330RJ3852800001                                                                                                                                          001119685           061020100000017636CONSOLIDADO 14092012001213ref locação de imóvel não residencial-lotes nr 108/109 do contrato 002 e ref locação de bens móveis do contrato nr 001.                                                                                                                         061024295000120              000008
1007421044590DIR_CREDIT     ARFRIO S/A ARM GERAIS FRIGORIFICO       006057223000171SENDAS DISTRIBUIDORA S/A                RUA JOAO ANTONIO SENDAS, 286 PARTE      SOA JOAO DE MERITI R                    25565330RJ3852900001                                                                                                                                          001136048           061020100000017636CONSOLIDADO 24032011003302ref locação de imóvel não residencial-lotes nr 108/109 do contrato 002 e ref locação de bens móveis do contrato nr 001.                                                                                                                         061024295000120              000009
1007421044590DIR_CREDIT     ARFRIO S/A ARM GERAIS FRIGORIFICO       006057223000171SENDAS DISTRIBUIDORA S/A                RUA JOAO ANTONIO SENDAS, 286 PARTE      SOA JOAO DE MERITI R                    25565330RJ3853000001                                                                                                                                          011171989           061020100000017636CONSOLIDADO 22102010000403ref locação de imóvel não residencial-lotes nr 108/109 do contrato 002 e ref locação de bens móveis do contrato nr 001.                                                                                                                         061024295000120              000010
1007421044590DIR_CREDIT     ARFRIO S/A ARM GERAIS FRIGORIFICO       006057223000171SENDAS DISTRIBUIDORA S/A                RUA JOAO ANTONIO SENDAS, 286 PARTE      SOA JOAO DE MERITI R                    25565330RJ3853100001                                                                                                                                          011909120           061020100000017636CONSOLIDADO 22082012000401ref locação de imóvel não residencial-lotes nr 108/109 do contrato 002 e ref locação de bens móveis do contrato nr 001.                                                                                                                         061024295000120              000011
9000010                                                                                                                                                                                                                                                                                                                                                                                                                                                                                                                                                                                                                                                                                                               000012
