0REMESSANOTIFICACAO ELETRONICA        99999999999999BICBANCO                                AV. PAULISTA                            1048      12.ANDAR  BELA VISTA                    SAO PAULO                     01310100SP1121739360CORTINHAL                               COORDENADOR                             13022014                                                                                                                                                                                                                                                                                                                                                                                      000001
1042421013490DIR_CREDIT     SILVEIRA ENGENHARIA E CONSTRUCOES L     034164319000506CASA DA MOEDA DO BRASIL                 RENE BITTENCUORT 371 SANTA CRUZ         RIO DE JANEIRO                          23565200RJ4640700001                                                                                                                                          012448127           2802201300000242331696/11     07022014000404obras e serviços de engenharia para recuperação do paviemnto da        drenagem das águas pluviais das sarjetas,meios-fios e calçadas do Parque Fabrilda CMB.                                                                                   004885201000174              000002
1045421013761DIR_CREDIT     NUCLEO DE GESTAO INF COM SERVICO        003264927000127MANAUS AMBIENTAL S/A                    RUA DO BOMBEAMENTO Nº 01                MANAUS                                  69029000AM4640900001                                                                                                                                          012495183           021220130000025298250/2013    10022014000404prestação de serviços técnicos especializados de engenharia para       captação de novos clientes, potencialização da base cadastral e redução de     perdas comerciais nas áreas abastecidas por Ponta das Lajes, etc.                         004009820000103              000003
1016421015628COBR_CAUC_COR  PERFIPAR S/A - MANUFATURADOS DE ACO     005038737000117CERANTOLA DO BRASIL IND. E COM. LT      RODV. BRAZ FORTUNATO, S/N, KM 2         BARIRI                                  17250000SP4642700001042656860017732 01  11022014900BRADESCO S/A        2502201400000000010987232CC                                                                                                                                                                                                                                                                                                                                                                                                         000004
1020421002020COBR_CAUC_COR  GRABER SISTEMAS DE SEGURANCA LTDA       010588595000363MEDLEY COMERCIAL E LOGISTICA L          R ESTACIO DE SA, 1490 - JD SANTA GENEBRACAMPINAS                                13080010SP4642800001000151920000007304  11022014900BRADESCO S/A        0103201400000000014914867CC                                                                                                                                                                                                                                                                                                                                                                                                         000005
1036421016893COBR_CAUC_COR  TECAL ALUMINIO DA AMAZONIA LTDA         004337168000148MOTO HONDA DA AMAZONIA LTDA             RUA JURUA                               MANAUS                                  69075120AM4642900001059931400000056627  30012014900BRADESCO S/A        0103201400000000010871960CC                                                                                                                                                                                                                                                                                                                                                                                                         000006
1036421016893COBR_CAUC_COR  TECAL ALUMINIO DA AMAZONIA LTDA         004337168000148MOTO HONDA DA AMAZONIA LTDA             RUA JURUA                               MANAUS                                  69075120AM4642900002059931580000056626  30012014900BRADESCO S/A        0103201400000000010871960CC                                                                                                                                                                                                                                                                                                                                                                                                         000007
1036421016893COBR_CAUC_COR  TECAL ALUMINIO DA AMAZONIA LTDA         004337168000148MOTO HONDA DA AMAZONIA LTDA             RUA JURUA                               MANAUS                                  69075120AM4642900003059931660000056639  30012014900BRADESCO S/A        0103201400000000010871960CC                                                                                                                                                                                                                                                                                                                                                                                                         000008
1036421016893COBR_CAUC_COR  TECAL ALUMINIO DA AMAZONIA LTDA         004337168000148MOTO HONDA DA AMAZONIA LTDA             RUA JURUA                               MANAUS                                  69075120AM4642900004059932120000056671  31012014900BRADESCO S/A        0203201400000000010871960CC                                                                                                                                                                                                                                                                                                                                                                                                         000009
1036421016893COBR_CAUC_COR  TECAL ALUMINIO DA AMAZONIA LTDA         004337168000148MOTO HONDA DA AMAZONIA LTDA             RUA JURUA                               MANAUS                                  69075120AM4642900005059932550000056685  31012014900BRADESCO S/A        0203201400000000011728127CC                                                                                                                                                                                                                                                                                                                                                                                                         000010
1008421022487COBR_CAUC_COR  EBP - EMPRESA BRASILEIRA DE PESCADO     033304981000110SUPERMERCADOS MUNDIAL LTDA              RUA  DONA EMILIA, 2                     RIO DE JANEIRO                          20765110RJ4643000001017244460024569/    07022014900BRADESCO S/A        2702201400000000036250000CC                                                                                                                                                                                                                                                                                                                                                                                                         000011
1007421061290COBR_CAUC_BIC  ROYAL QUIMICA LTDA                      056558703000194BENTOMAR IND. E COM. DE MINERIOS L      R: SR. EDGAR MAGALHAES DE NORONHA, 563  SAO PAULO                               03480000SP464310000102659670012923      08022014007PAULISTA            0904201400000000013341825CC                                                                                                                                                                                                                                                                                                                                                                                                         000012
1046421008677COBR_CAUC_BIC  KMA FABRICACAO E COM DE APAR DE REF     008584116000127INFOAR COM E SERV EM AR CONDICIONA      TV VENEZUELA, 210  BL L PARTE SL 1      PORTO ALEGRE                            90240220RS464320000102296547015238-     29012014015PORTO ALEGRE        1802201400000000019865000CC                                                                                                                                                                                                                                                                                                                                                                                                         000013
1046421008677COBR_CAUC_BIC  KMA FABRICACAO E COM DE APAR DE REF     008584116000127INFOAR COM E SERV EM AR CONDICIONA      TV VENEZUELA, 210  BL L PARTE SL 1      PORTO ALEGRE                            90240220RS464320000202296563015247-     29012014015PORTO ALEGRE        1802201400000000014900000CC                                                                                                                                                                                                                                                                                                                                                                                                         000014
9000008                                                                                                                                                                                                                                                                                                                                                                                                                                                                                                                                                                                                                                                                                                               000015
