0REMESSANOTIFICACAO ELETRONICA        99999999999999BICBANCO                                AV. PAULISTA                            1048      12.ANDAR  BELA VISTA                    SAO PAULO                     01310100SP1121739360CORTINHAL                               COORDENADOR                             01082014                                                                                                                                                                                                                                                                                                                                                                                      000001
1031421012447COBR_CAUC_COR  AGRICOLA JANDELLE S/A                   011224864000103REAL FOODS COMERCIO ATAC DE GEN AL      AVENIDA DAS AMERICAS 8445 SALA 515 E 516RIO DE JANEIRO                          22793081RJ4866400001060045960025078301  30072014900BRADESCO S/A        2908201400000000010951200CC                                                                                                                                                                                                                                                                                                                                                                                                         000002
1048421002195COBR_CAUC_COR  SERVIMED COMERCIAL LTDA                 006161357000138CONDE NETO & CIA LTDA                   R CARAVELAS 65                          SAO JOSE DOS CA                         12238170SP486650000102175036787514  22  30072014900BRADESCO S/A        1009201400000000015201989CC                                                                                                                                                                                                                                                                                                                                                                                                         000003
1009421013315COBR_CAUC_COR  BONASA ALIMENTOS S/A                    009587239000427COOPERATIVA MISTA DOS AVICULT. DO       ESTRADA TERESINA UNIAO ZONA LESTE KM 03 TERESINA                                64058305PI486660000100016602000142501   31072014900BRADESCO S/A        2108201400000000011475000CC                                                                                                                                                                                                                                                                                                                                                                                                         000004
1031421012064COBR_CAUC_BIC  I. F. EMPREEND IMOB LTDA                002489004000100GLOBOSUINOS AGROPECUARIA S/A            BR 467 KM 03                            CASCAVEL                                85802970PR48667000010542551218960-2     25072014016CURITIBA            1010201400000000050000000CC                                                                                                                                                                                                                                                                                                                                                                                                         000005
1031421012064COBR_CAUC_BIC  I. F. EMPREEND IMOB LTDA                002489004000100GLOBOSUINOS AGROPECUARIA S/A            BR 467 KM 03                            CASCAVEL                                85802970PR48667000020542552118960-1     25072014016CURITIBA            1009201400000000050000000CC                                                                                                                                                                                                                                                                                                                                                                                                         000006
1021421017050COBR_CAUC_BIC  STAR DISTR PROD FARMACEUTICOS LTDA      061585865073701RAIA DROGASIL S/A                       RUA PATAXOS , 1412                      EMBU                                    06833073SP4866800001000035960000371501  31072014007PAULISTA            2108201400000000013528988CC                                                                                                                                                                                                                                                                                                                                                                                                         000007
1021421017050COBR_CAUC_BIC  STAR DISTR PROD FARMACEUTICOS LTDA      061585865073701RAIA DROGASIL S/A                       RUA PATAXOS , 1412                      EMBU                                    06833073SP4866800002000036260000372001  31072014007PAULISTA            2909201400000000014515060CC                                                                                                                                                                                                                                                                                                                                                                                                         000008
1021421017050COBR_CAUC_BIC  STAR DISTR PROD FARMACEUTICOS LTDA      061585865073701RAIA DROGASIL S/A                       RUA PATAXOS , 1412                      EMBU                                    06833073SP4866800003000036770000372101  31072014007PAULISTA            2108201400000000023178971CC                                                                                                                                                                                                                                                                                                                                                                                                         000009
1021421017050COBR_CAUC_BIC  STAR DISTR PROD FARMACEUTICOS LTDA      061585865073701RAIA DROGASIL S/A                       RUA PATAXOS , 1412                      EMBU                                    06833073SP4866800004000036930000372601  31072014007PAULISTA            2108201400000000045649864CC                                                                                                                                                                                                                                                                                                                                                                                                         000010
1021421017050COBR_CAUC_BIC  STAR DISTR PROD FARMACEUTICOS LTDA      061585865073701RAIA DROGASIL S/A                       RUA PATAXOS , 1412                      EMBU                                    06833073SP4866800005000037230000372801  31072014007PAULISTA            2909201400000000016653170CC                                                                                                                                                                                                                                                                                                                                                                                                         000011
1021421017050COBR_CAUC_BIC  STAR DISTR PROD FARMACEUTICOS LTDA      061585865073701RAIA DROGASIL S/A                       RUA PATAXOS , 1412                      EMBU                                    06833073SP4866800006000037400000373001  31072014007PAULISTA            2909201400000000022542174CC                                                                                                                                                                                                                                                                                                                                                                                                         000012
1021421017050COBR_CAUC_BIC  STAR DISTR PROD FARMACEUTICOS LTDA      061585865073701RAIA DROGASIL S/A                       RUA PATAXOS , 1412                      EMBU                                    06833073SP4866800007000037660000371401  31072014007PAULISTA            2909201400000000011828300CC                                                                                                                                                                                                                                                                                                                                                                                                         000013
1021421017352COBR_CAUC_BIC  STAR DISTR PROD FARMACEUTICOS LTDA      061585865000151RAIA DROGASIL S/A                       AVENIDA CORIFEU DE AZEVEDO MARQUES, 3097SAO PAULO                               05339000SP4866900001000005620000370801  30072014007PAULISTA            1308201400000000028348825CC                                                                                                                                                                                                                                                                                                                                                                                                         000014
1021421017352COBR_CAUC_BIC  STAR DISTR PROD FARMACEUTICOS LTDA      061585865000151RAIA DROGASIL S/A                       AVENIDA CORIFEU DE AZEVEDO MARQUES, 3097SAO PAULO                               05339000SP4866900002000005890000371001  30072014007PAULISTA            1308201400000000056248153CC                                                                                                                                                                                                                                                                                                                                                                                                         000015
1021421017352COBR_CAUC_BIC  STAR DISTR PROD FARMACEUTICOS LTDA      061585865000151RAIA DROGASIL S/A                       AVENIDA CORIFEU DE AZEVEDO MARQUES, 3097SAO PAULO                               05339000SP4866900003000005540000370201  30072014022PAULISTA            1308201400000000011763650CC                                                                                                                                                                                                                                                                                                                                                                                                         000016
1032421002032COBR_CAUC_COR  CANGURU S/A IND COM PROD PLASTICOS      008950019000100IRANILDA JESUS RIBEIRO SILVA            AV. PRES. VARGAS,1740 QUIOSQUI 07 JD GOIRIO VERDE                               75903290GO486830000102938139139491-03-  09072014900BRADESCO S/A        2808201400000000000117596CC                                                                                                                                                                                                                                                                                                                                                                                                         000017
1032421002032COBR_CAUC_COR  CANGURU S/A IND COM PROD PLASTICOS      008950019000100IRANILDA JESUS RIBEIRO SILVA            AV. PRES. VARGAS,1740 QUIOSQUI 07 JD GOIRIO VERDE                               75903290GO486830000202938112139491-01-  09072014900BRADESCO S/A        0808201400000000000117599CC                                                                                                                                                                                                                                                                                                                                                                                                         000018
1032421002032COBR_CAUC_COR  CANGURU S/A IND COM PROD PLASTICOS      008950019000100IRANILDA JESUS RIBEIRO SILVA            AV. PRES. VARGAS,1740 QUIOSQUI 07 JD GOIRIO VERDE                               75903290GO486830000302938121139491-02-  09072014900BRADESCO S/A        1808201400000000000117596CC                                                                                                                                                                                                                                                                                                                                                                                                         000019
1032421002032COBR_CAUC_COR  CANGURU S/A IND COM PROD PLASTICOS      008950019000100IRANILDA JESUS RIBEIRO SILVA            AV. PRES. VARGAS,1740 QUIOSQUI 07 JD GOIRIO VERDE                               75903290GO486830000402938147139491-04-  09072014900BRADESCO S/A        0709201400000000000117596CC                                                                                                                                                                                                                                                                                                                                                                                                         000020
1032421002032COBR_CAUC_BIC  CANGURU S/A IND COM PROD PLASTICOS      008755515000103PORTAL COMERCIO DE EMBALAGENS LTDA      R. NICARAGUA,1563  TIBERY               UBERLANDIA                              38405100MG486840000102880955137708-01-  17062014028UBERLANDIA          1108201400000000000174240CC                                                                                                                                                                                                                                                                                                                                                                                                         000021
1032421002032COBR_CAUC_BIC  CANGURU S/A IND COM PROD PLASTICOS      008755515000103PORTAL COMERCIO DE EMBALAGENS LTDA      R. NICARAGUA,1563  TIBERY               UBERLANDIA                              38405100MG486840000202880971137708-03-  17062014028UBERLANDIA          3108201400000000000174240CC                                                                                                                                                                                                                                                                                                                                                                                                         000022
1032421002032COBR_CAUC_BIC  CANGURU S/A IND COM PROD PLASTICOS      008755515000103PORTAL COMERCIO DE EMBALAGENS LTDA      R. NICARAGUA,1563  TIBERY               UBERLANDIA                              38405100MG486840000302880963137708-02-  17062014028UBERLANDIA          2108201400000000000174240CC                                                                                                                                                                                                                                                                                                                                                                                                         000023
1032421002032COBR_CAUC_BIC  CANGURU S/A IND COM PROD PLASTICOS      001482382000108TINGUI FACTORY ALIMENTOS LTDA.          R. LUIZ ANDRETA,79 PLANTA BOROS WALFRIDOCOLOMBO                                 83413240PR486850000102894913138173-00-  25062014016CURITIBA            0109201400000000000563836CC                                                                                                                                                                                                                                                                                                                                                                                                         000024
1032421002032COBR_CAUC_BIC  CANGURU S/A IND COM PROD PLASTICOS      002105972000176RIBEIRAO FACTORY COZINHA INDUSTRIA      R. OTAVIO MACHADO FILHO,535  PRQ I LAGOIRIBEIRAO PRETO                          14095290SP486860000102894921138166-00-  25062014022RIBEIRAO PRETO      0109201400000000001104761CC                                                                                                                                                                                                                                                                                                                                                                                                         000025
1032421002032COBR_CAUC_BIC  CANGURU S/A IND COM PROD PLASTICOS      008450457000100EPOCA COM.DISTRIBUICAO PROD.ALIM.I      VIA VER. JOAQUIM COSTA,1405 GP 2 C VERDECONTAGEM                                32150240MG486870000102866359137107-00-  05062014019BELO HORIZONTE      0408201400000000001438250CC                                                                                                                                                                                                                                                                                                                                                                                                         000026
1032421002032COBR_CAUC_BIC  CANGURU S/A IND COM PROD PLASTICOS      003476811013725DIA BRASIL SOCIEDADE LIMITADA.          ROD. PRES. DUTRA,SN KM 228 PRQ CECAP Z MGUARULHOS                               07034000SP486880000102899257046112-00-  26062014007PAULISTA            3008201400000000000412552CC                                                                                                                                                                                                                                                                                                                                                                                                         000027
1032421002032COBR_CAUC_BIC  CANGURU S/A IND COM PROD PLASTICOS      003476811013725DIA BRASIL SOCIEDADE LIMITADA.          ROD. PRES. DUTRA,SN KM 228 PRQ CECAP Z MGUARULHOS                               07034000SP486880000202899273046110-00-  26062014007PAULISTA            3008201400000000000329755CC                                                                                                                                                                                                                                                                                                                                                                                                         000028
1032421002032COBR_CAUC_BIC  CANGURU S/A IND COM PROD PLASTICOS      003476811013725DIA BRASIL SOCIEDADE LIMITADA.          ROD. PRES. DUTRA,SN KM 228 PRQ CECAP Z MGUARULHOS                               07034000SP486880000302865590046000-00-  04062014021PAULISTA            1008201400000000000412552CC                                                                                                                                                                                                                                                                                                                                                                                                         000029
1032421002032COBR_CAUC_BIC  CANGURU S/A IND COM PROD PLASTICOS      003476811013725DIA BRASIL SOCIEDADE LIMITADA.          ROD. PRES. DUTRA,SN KM 228 PRQ CECAP Z MGUARULHOS                               07034000SP486880000402899265046114-00-  26062014021PAULISTA            3008201400000000000412552CC                                                                                                                                                                                                                                                                                                                                                                                                         000030
1032421002032COBR_CAUC_BIC  CANGURU S/A IND COM PROD PLASTICOS      002782071000623MEGAFORT DIST.IMPOTACAO E EXPORTAC      AV. WILSON TAVARES RIBEIRO,1651  CHS R.SCONTAGEM                                32183680MG486890000102885132137749-00-  18062014019BELO HORIZONTE      2208201400000000003862100CC                                                                                                                                                                                                                                                                                                                                                                                                         000031
1032421002032COBR_CAUC_BIC  CANGURU S/A IND COM PROD PLASTICOS      002782071000623MEGAFORT DIST.IMPOTACAO E EXPORTAC      AV. WILSON TAVARES RIBEIRO,1651  CHS R.SCONTAGEM                                32183680MG486890000202885060137750-05-  18062014019BELO HORIZONTE      0608201400000000000170512CC                                                                                                                                                                                                                                                                                                                                                                                                         000032
1032421002032COBR_CAUC_BIC  CANGURU S/A IND COM PROD PLASTICOS      002782071000623MEGAFORT DIST.IMPOTACAO E EXPORTAC      AV. WILSON TAVARES RIBEIRO,1651  CHS R.SCONTAGEM                                32183680MG486890000302885035137753-05-  18062014019BELO HORIZONTE      0608201400000000000187563CC                                                                                                                                                                                                                                                                                                                                                                                                         000033
1032421002032COBR_CAUC_BIC  CANGURU S/A IND COM PROD PLASTICOS      002782071000623MEGAFORT DIST.IMPOTACAO E EXPORTAC      AV. WILSON TAVARES RIBEIRO,1651  CHS R.SCONTAGEM                                32183680MG486890000402885141137748-00-  18062014019BELO HORIZONTE      2208201400000000000767250CC                                                                                                                                                                                                                                                                                                                                                                                                         000034
1032421002032COBR_CAUC_BIC  CANGURU S/A IND COM PROD PLASTICOS      002782071000623MEGAFORT DIST.IMPOTACAO E EXPORTAC      AV. WILSON TAVARES RIBEIRO,1651  CHS R.SCONTAGEM                                32183680MG486890000502885124137750-00-  18062014019BELO HORIZONTE      2208201400000000000943800CC                                                                                                                                                                                                                                                                                                                                                                                                         000035
1032421002032COBR_CAUC_BIC  CANGURU S/A IND COM PROD PLASTICOS      002782071000623MEGAFORT DIST.IMPOTACAO E EXPORTAC      AV. WILSON TAVARES RIBEIRO,1651  CHS R.SCONTAGEM                                32183680MG486890000602885078137749-05-  18062014019BELO HORIZONTE      0608201400000000000697747CC                                                                                                                                                                                                                                                                                                                                                                                                         000036
1032421002032COBR_CAUC_BIC  CANGURU S/A IND COM PROD PLASTICOS      002782071000623MEGAFORT DIST.IMPOTACAO E EXPORTAC      AV. WILSON TAVARES RIBEIRO,1651  CHS R.SCONTAGEM                                32183680MG486890000702885086137748-05-  18062014019BELO HORIZONTE      0608201400000000000138615CC                                                                                                                                                                                                                                                                                                                                                                                                         000037
1032421002032COBR_CAUC_BIC  CANGURU S/A IND COM PROD PLASTICOS      002782071000623MEGAFORT DIST.IMPOTACAO E EXPORTAC      AV. WILSON TAVARES RIBEIRO,1651  CHS R.SCONTAGEM                                32183680MG486890000802885094137746-05-  18062014019BELO HORIZONTE      0608201400000000000224606CC                                                                                                                                                                                                                                                                                                                                                                                                         000038
1032421002032COBR_CAUC_BIC  CANGURU S/A IND COM PROD PLASTICOS      002782071000623MEGAFORT DIST.IMPOTACAO E EXPORTAC      AV. WILSON TAVARES RIBEIRO,1651  CHS R.SCONTAGEM                                32183680MG486890000902885108137752-00-  18062014019BELO HORIZONTE      2208201400000000000519090CC                                                                                                                                                                                                                                                                                                                                                                                                         000039
1032421002032COBR_CAUC_BIC  CANGURU S/A IND COM PROD PLASTICOS      002782071000623MEGAFORT DIST.IMPOTACAO E EXPORTAC      AV. WILSON TAVARES RIBEIRO,1651  CHS R.SCONTAGEM                                32183680MG486890001002885159137753-00-  18062014019BELO HORIZONTE      2208201400000000001038180CC                                                                                                                                                                                                                                                                                                                                                                                                         000040
1032421002032COBR_CAUC_BIC  CANGURU S/A IND COM PROD PLASTICOS      002782071000623MEGAFORT DIST.IMPOTACAO E EXPORTAC      AV. WILSON TAVARES RIBEIRO,1651  CHS R.SCONTAGEM                                32183680MG486890001102885116137751-00-  18062014019BELO HORIZONTE      2208201400000000000519090CC                                                                                                                                                                                                                                                                                                                                                                                                         000041
1032421002032COBR_CAUC_BIC  CANGURU S/A IND COM PROD PLASTICOS      002782071000623MEGAFORT DIST.IMPOTACAO E EXPORTAC      AV. WILSON TAVARES RIBEIRO,1651  CHS R.SCONTAGEM                                32183680MG486890001202885167137746-00-  18062014019BELO HORIZONTE      2208201400000000001243220CC                                                                                                                                                                                                                                                                                                                                                                                                         000042
1032421002032COBR_CAUC_BIC  CANGURU S/A IND COM PROD PLASTICOS      002782071000623MEGAFORT DIST.IMPOTACAO E EXPORTAC      AV. WILSON TAVARES RIBEIRO,1651  CHS R.SCONTAGEM                                32183680MG486890001302885043137752-05-  18062014019BELO HORIZONTE      0608201400000000000093781CC                                                                                                                                                                                                                                                                                                                                                                                                         000043
1032421002032COBR_CAUC_BIC  CANGURU S/A IND COM PROD PLASTICOS      002782071000623MEGAFORT DIST.IMPOTACAO E EXPORTAC      AV. WILSON TAVARES RIBEIRO,1651  CHS R.SCONTAGEM                                32183680MG486890001402885051137751-05-  18062014019BELO HORIZONTE      0608201400000000000093781CC                                                                                                                                                                                                                                                                                                                                                                                                         000044
1032421002032COBR_CAUC_COR  CANGURU S/A IND COM PROD PLASTICOS      010442984000114DICRIL-PROD.E EQUIP.PARA LIMP.E HI      R. CONO. ANIBAL MARIA DI FRANCIA,150  PICRICIUMA                                88804360SC486900000102940605140071-01-  21072014900BRADESCO S/A        0209201400000000000065783CC                                                                                                                                                                                                                                                                                                                                                                                                         000045
1032421002032COBR_CAUC_COR  CANGURU S/A IND COM PROD PLASTICOS      010442984000114DICRIL-PROD.E EQUIP.PARA LIMP.E HI      R. CONO. ANIBAL MARIA DI FRANCIA,150  PICRICIUMA                                88804360SC486900000202940630140071-02-  21072014900BRADESCO S/A        0909201400000000000060065CC                                                                                                                                                                                                                                                                                                                                                                                                         000046
1032421002032COBR_CAUC_COR  CANGURU S/A IND COM PROD PLASTICOS      001965363001015SUMIDENSO DO BRASIL IND.ELETRICAS       ROD. AMG 1010,S N KM 01 AMADEU MIGUEL   TRES CORACOES                           37410000MG486910000102940575046303-00-  17072014900BRADESCO S/A        1608201400000000000133802CC                                                                                                                                                                                                                                                                                                                                                                                                         000047
1032421002032COBR_CAUC_COR  CANGURU S/A IND COM PROD PLASTICOS      001965363001015SUMIDENSO DO BRASIL IND.ELETRICAS       ROD. AMG 1010,S N KM 01 AMADEU MIGUEL   TRES CORACOES                           37410000MG486910000202940583046319-00-  21072014900BRADESCO S/A        2008201400000000000009482CC                                                                                                                                                                                                                                                                                                                                                                                                         000048
1032421002032COBR_CAUC_COR  CANGURU S/A IND COM PROD PLASTICOS      005231715000179SHOPPING DAS EMBALAGENS E FESTA LT      R. STA. RITA,364  CENTRO                JUIZ DE FORA                            36010071MG486920000102905621138528-02-  30062014900BRADESCO S/A        0309201400000000000042271CC                                                                                                                                                                                                                                                                                                                                                                                                         000049
1032421002032COBR_CAUC_COR  CANGURU S/A IND COM PROD PLASTICOS      005231715000179SHOPPING DAS EMBALAGENS E FESTA LT      R. STA. RITA,364  CENTRO                JUIZ DE FORA                            36010071MG486920000202905729138528-03-  30062014900BRADESCO S/A        1809201400000000000042271CC                                                                                                                                                                                                                                                                                                                                                                                                         000050
1032421002032COBR_CAUC_COR  CANGURU S/A IND COM PROD PLASTICOS      005231715000179SHOPPING DAS EMBALAGENS E FESTA LT      R. STA. RITA,364  CENTRO                JUIZ DE FORA                            36010071MG486920000302905583138528-01-  30062014900BRADESCO S/A        1908201400000000000060859CC                                                                                                                                                                                                                                                                                                                                                                                                         000051
1032421002032COBR_CAUC_COR  CANGURU S/A IND COM PROD PLASTICOS      0255134740001681000 IDEIAS COM.DE EMBALAGENS LTDA      AV. INDEPENDENCIA,1952  S MATEUS        JUIZ DE FORA                            36016321MG486930000102914451139255-03-  03072014900BRADESCO S/A        1610201400000000000044303CC                                                                                                                                                                                                                                                                                                                                                                                                         000052
1032421002032COBR_CAUC_COR  CANGURU S/A IND COM PROD PLASTICOS      0255134740001681000 IDEIAS COM.DE EMBALAGENS LTDA      AV. INDEPENDENCIA,1952  S MATEUS        JUIZ DE FORA                            36016321MG486930000202914418139255-02-  03072014900BRADESCO S/A        0110201400000000000044303CC                                                                                                                                                                                                                                                                                                                                                                                                         000053
1032421002032COBR_CAUC_COR  CANGURU S/A IND COM PROD PLASTICOS      0255134740001681000 IDEIAS COM.DE EMBALAGENS LTDA      AV. INDEPENDENCIA,1952  S MATEUS        JUIZ DE FORA                            36016321MG486930000302914396139255-01-  03072014900BRADESCO S/A        1609201400000000000061347CC                                                                                                                                                                                                                                                                                                                                                                                                         000054
1032421002032COBR_CAUC_COR  CANGURU S/A IND COM PROD PLASTICOS      059765651000387CORSO E CIA.LTDA.                       AV. JOAO PINHEIRO,1100  JD COUNTRY CLUB POCOS DE CALDAS                         37701387MG486940000102905672138640-02-  30062014900BRADESCO S/A        0309201400000000000042488CC                                                                                                                                                                                                                                                                                                                                                                                                         000055
1032421002032COBR_CAUC_COR  CANGURU S/A IND COM PROD PLASTICOS      059765651000387CORSO E CIA.LTDA.                       AV. JOAO PINHEIRO,1100  JD COUNTRY CLUB POCOS DE CALDAS                         37701387MG486940000202905541138640-01-  30062014900BRADESCO S/A        1908201400000000000065516CC                                                                                                                                                                                                                                                                                                                                                                                                         000056
1032421002032COBR_CAUC_COR  CANGURU S/A IND COM PROD PLASTICOS      059765651000387CORSO E CIA.LTDA.                       AV. JOAO PINHEIRO,1100  JD COUNTRY CLUB POCOS DE CALDAS                         37701387MG486940000302905681138640-03-  30062014900BRADESCO S/A        1809201400000000000042488CC                                                                                                                                                                                                                                                                                                                                                                                                         000057
1032421002032COBR_CAUC_COR  CANGURU S/A IND COM PROD PLASTICOS      071067649000178DISTR.FLORIANO LTDA.                    R. MAL. FLORIANO PEIXOTO,226  CENTRO    JUIZ DE FORA                            36013080MG486950000102905575138636-01-  30062014900BRADESCO S/A        1908201400000000000059985CC                                                                                                                                                                                                                                                                                                                                                                                                         000058
1032421002032COBR_CAUC_COR  CANGURU S/A IND COM PROD PLASTICOS      071067649000178DISTR.FLORIANO LTDA.                    R. MAL. FLORIANO PEIXOTO,226  CENTRO    JUIZ DE FORA                            36013080MG486950000202905656138636-02-  30062014900BRADESCO S/A        0309201400000000000049047CC                                                                                                                                                                                                                                                                                                                                                                                                         000059
1032421002032COBR_CAUC_COR  CANGURU S/A IND COM PROD PLASTICOS      071067649000178DISTR.FLORIANO LTDA.                    R. MAL. FLORIANO PEIXOTO,226  CENTRO    JUIZ DE FORA                            36013080MG486950000302905699138636-03-  30062014900BRADESCO S/A        1809201400000000000049047CC                                                                                                                                                                                                                                                                                                                                                                                                         000060
1032421002032COBR_CAUC_COR  CANGURU S/A IND COM PROD PLASTICOS      042908509000187KARLOS PAPELARIA LTDA.                  PC. CEL. TIBURCIO,108  BARRA            MURIAE                                  36880000MG486960000102905702138638-03-  30062014900BRADESCO S/A        1809201400000000000045545CC                                                                                                                                                                                                                                                                                                                                                                                                         000061
1032421002032COBR_CAUC_COR  CANGURU S/A IND COM PROD PLASTICOS      042908509000187KARLOS PAPELARIA LTDA.                  PC. CEL. TIBURCIO,108  BARRA            MURIAE                                  36880000MG486960000202905532138638-01-  30062014900BRADESCO S/A        1908201400000000000070232CC                                                                                                                                                                                                                                                                                                                                                                                                         000062
1032421002032COBR_CAUC_COR  CANGURU S/A IND COM PROD PLASTICOS      042908509000187KARLOS PAPELARIA LTDA.                  PC. CEL. TIBURCIO,108  BARRA            MURIAE                                  36880000MG486960000302905648138638-02-  30062014900BRADESCO S/A        0309201400000000000045545CC                                                                                                                                                                                                                                                                                                                                                                                                         000063
1032421002032COBR_CAUC_BIC  CANGURU S/A IND COM PROD PLASTICOS      029850302000130PENA FIEL BAR LTDA.                     R. GAVIAO PEIXOTO,182 LOJA 110  ICARAI  NITEROI                                 24230101RJ486970000102905567138555-01-  30062014014RIO DE JANEIRO      1908201400000000000044265CC                                                                                                                                                                                                                                                                                                                                                                                                         000064
1032421002032COBR_CAUC_BIC  CANGURU S/A IND COM PROD PLASTICOS      029850302000130PENA FIEL BAR LTDA.                     R. GAVIAO PEIXOTO,182 LOJA 110  ICARAI  NITEROI                                 24230101RJ486970000202905664138555-02-  30062014014RIO DE JANEIRO      0309201400000000000044263CC                                                                                                                                                                                                                                                                                                                                                                                                         000065
1032421002032COBR_CAUC_BIC  CANGURU S/A IND COM PROD PLASTICOS      029850302000130PENA FIEL BAR LTDA.                     R. GAVIAO PEIXOTO,182 LOJA 110  ICARAI  NITEROI                                 24230101RJ486970000302905605138555-05-  30062014014RIO DE JANEIRO      2908201400000000000030031CC                                                                                                                                                                                                                                                                                                                                                                                                         000066
1032421002032COBR_CAUC_BIC  CANGURU S/A IND COM PROD PLASTICOS      029850302000130PENA FIEL BAR LTDA.                     R. GAVIAO PEIXOTO,182 LOJA 110  ICARAI  NITEROI                                 24230101RJ486970000402905745138555-03-  30062014014RIO DE JANEIRO      1809201400000000000044263CC                                                                                                                                                                                                                                                                                                                                                                                                         000067
1032421002032COBR_CAUC_BIC  CANGURU S/A IND COM PROD PLASTICOS      030290688000152FERRAGENS RAMADA LTDA.                  R. PEDRO JORIO,365  COELHO NETO         RIO DE JANEIRO                          21530030RJ486980000102905613138632-02-  30062014014RIO DE JANEIRO      0309201400000000000057168CC                                                                                                                                                                                                                                                                                                                                                                                                         000068
1032421002032COBR_CAUC_BIC  CANGURU S/A IND COM PROD PLASTICOS      030290688000152FERRAGENS RAMADA LTDA.                  R. PEDRO JORIO,365  COELHO NETO         RIO DE JANEIRO                          21530030RJ486980000202905737138632-03-  30062014014RIO DE JANEIRO      1809201400000000000057168CC                                                                                                                                                                                                                                                                                                                                                                                                         000069
1032421002032COBR_CAUC_BIC  CANGURU S/A IND COM PROD PLASTICOS      030290688000152FERRAGENS RAMADA LTDA.                  R. PEDRO JORIO,365  COELHO NETO         RIO DE JANEIRO                          21530030RJ486980000302905559138632-01-  30062014014RIO DE JANEIRO      1908201400000000000057169CC                                                                                                                                                                                                                                                                                                                                                                                                         000070
1032421002032COBR_CAUC_COR  CANGURU S/A IND COM PROD PLASTICOS      010695873000110LUIZ CARLOS TAVARES ME.                 R. ADOLFO JOSE DE ASSIS,639 SL.01 CORDEIITAJAI                                  88310150SC486990000102905591138605-01-  30062014900BRADESCO S/A        1908201400000000000059612CC                                                                                                                                                                                                                                                                                                                                                                                                         000071
1032421002032COBR_CAUC_COR  CANGURU S/A IND COM PROD PLASTICOS      010695873000110LUIZ CARLOS TAVARES ME.                 R. ADOLFO JOSE DE ASSIS,639 SL.01 CORDEIITAJAI                                  88310150SC486990000202905630138605-02-  30062014900BRADESCO S/A        0309201400000000000056378CC                                                                                                                                                                                                                                                                                                                                                                                                         000072
1032421002032COBR_CAUC_COR  CANGURU S/A IND COM PROD PLASTICOS      010695873000110LUIZ CARLOS TAVARES ME.                 R. ADOLFO JOSE DE ASSIS,639 SL.01 CORDEIITAJAI                                  88310150SC486990000302905711138605-03-  30062014900BRADESCO S/A        1809201400000000000056378CC                                                                                                                                                                                                                                                                                                                                                                                                         000073
1032421002032COBR_CAUC_BIC  CANGURU S/A IND COM PROD PLASTICOS      005107433000164PAPELARIA JARDIM LGO DO MACHADO LT      LRG DO MACHADO,8 LOJAS B C J CATETE     RIO DE JANEIRO                          22221020RJ487000000102894883138204-00-  25062014014RIO DE JANEIRO      2108201400000000000190683CC                                                                                                                                                                                                                                                                                                                                                                                                         000074
1032421002032COBR_CAUC_BIC  CANGURU S/A IND COM PROD PLASTICOS      003295548000447NEUZA DE ASSIS DE SOUZA-EPP             R. VICE-PREF.LUIZ C.GARCIA,815-SL2  COSTJOINVILLE                               89219370SC487010000102889146137891-02-  20062014046FLORIANOPOLIS       2408201400000000000061917CC                                                                                                                                                                                                                                                                                                                                                                                                         000075
1032421002032COBR_CAUC_BIC  CANGURU S/A IND COM PROD PLASTICOS      003295548000447NEUZA DE ASSIS DE SOUZA-EPP             R. VICE-PREF.LUIZ C.GARCIA,815-SL2  COSTJOINVILLE                               89219370SC487010000202889138137891-01-  20062014046FLORIANOPOLIS       0908201400000000000070755CC                                                                                                                                                                                                                                                                                                                                                                                                         000076
1032421002032COBR_CAUC_BIC  CANGURU S/A IND COM PROD PLASTICOS      003295548000447NEUZA DE ASSIS DE SOUZA-EPP             R. VICE-PREF.LUIZ C.GARCIA,815-SL2  COSTJOINVILLE                               89219370SC487010000302889154137891-03-  20062014046FLORIANOPOLIS       0809201400000000000061917CC                                                                                                                                                                                                                                                                                                                                                                                                         000077
1032421002032COBR_CAUC_COR  CANGURU S/A IND COM PROD PLASTICOS      018855990000105RIGEL COMERCIO E SERVICOS LTDA.         R. ADAO REITZ,399  CENTRO               ANTONIO CARLOS                          88180000SC487020000102914400139262-01-  03072014900BRADESCO S/A        1609201400000000000080529CC                                                                                                                                                                                                                                                                                                                                                                                                         000078
1032421002032COBR_CAUC_COR  CANGURU S/A IND COM PROD PLASTICOS      018855990000105RIGEL COMERCIO E SERVICOS LTDA.         R. ADAO REITZ,399  CENTRO               ANTONIO CARLOS                          88180000SC487020000202914442139262-03-  03072014900BRADESCO S/A        1610201400000000000070469CC                                                                                                                                                                                                                                                                                                                                                                                                         000079
1032421002032COBR_CAUC_COR  CANGURU S/A IND COM PROD PLASTICOS      018855990000105RIGEL COMERCIO E SERVICOS LTDA.         R. ADAO REITZ,399  CENTRO               ANTONIO CARLOS                          88180000SC487020000302914426139262-02-  03072014900BRADESCO S/A        0110201400000000000070469CC                                                                                                                                                                                                                                                                                                                                                                                                         000080
1032421002032COBR_CAUC_BIC  CANGURU S/A IND COM PROD PLASTICOS      010901069000140A.S AMARO DIST.DE PROD.DE LIMP.E U      R. NAPOLEAO ESTEVES,369 A SALDANHA MARINPETROPOLIS                              25640250RJ487030000102914434139250-02-  03072014014RIO DE JANEIRO      0110201400000000000060714CC                                                                                                                                                                                                                                                                                                                                                                                                         000081
1032421002032COBR_CAUC_BIC  CANGURU S/A IND COM PROD PLASTICOS      010901069000140A.S AMARO DIST.DE PROD.DE LIMP.E U      R. NAPOLEAO ESTEVES,369 A SALDANHA MARINPETROPOLIS                              25640250RJ487030000202914469139250-03-  03072014014RIO DE JANEIRO      1610201400000000000060714CC                                                                                                                                                                                                                                                                                                                                                                                                         000082
1032421002032COBR_CAUC_BIC  CANGURU S/A IND COM PROD PLASTICOS      010901069000140A.S AMARO DIST.DE PROD.DE LIMP.E U      R. NAPOLEAO ESTEVES,369 A SALDANHA MARINPETROPOLIS                              25640250RJ487030000302914370139250-05-  03072014014RIO DE JANEIRO      1109201400000000000045763CC                                                                                                                                                                                                                                                                                                                                                                                                         000083
1032421002032COBR_CAUC_BIC  CANGURU S/A IND COM PROD PLASTICOS      010901069000140A.S AMARO DIST.DE PROD.DE LIMP.E U      R. NAPOLEAO ESTEVES,369 A SALDANHA MARINPETROPOLIS                              25640250RJ487030000402914388139250-01-  03072014014RIO DE JANEIRO      1609201400000000000060716CC                                                                                                                                                                                                                                                                                                                                                                                                         000084
1032421002032COBR_CAUC_COR  CANGURU S/A IND COM PROD PLASTICOS      019867464000470LS GUARATO LTDA.                        AV. ALEXANDRE BARBOSA,1760  MERCES      UBERABA                                 38060200MG487040000102940613139505-02-  09072014900BRADESCO S/A        0209201400000000000079566CC                                                                                                                                                                                                                                                                                                                                                                                                         000085
1032421002032COBR_CAUC_COR  CANGURU S/A IND COM PROD PLASTICOS      019867464000470LS GUARATO LTDA.                        AV. ALEXANDRE BARBOSA,1760  MERCES      UBERABA                                 38060200MG487040000202940648139505-03-  09072014900BRADESCO S/A        1209201400000000000079566CC                                                                                                                                                                                                                                                                                                                                                                                                         000086
1032421002032COBR_CAUC_COR  CANGURU S/A IND COM PROD PLASTICOS      019867464000470LS GUARATO LTDA.                        AV. ALEXANDRE BARBOSA,1760  MERCES      UBERABA                                 38060200MG487040000302940591139505-01-  09072014900BRADESCO S/A        2308201400000000000079568CC                                                                                                                                                                                                                                                                                                                                                                                                         000087
1032421002032COBR_CAUC_BIC  CANGURU S/A IND COM PROD PLASTICOS      005160909000120COZINHA INDUSTRIAL LTDA.                AV.  A,608 LO 000 AR A1 CAMPO DO PIRES  NOVA LIMA                               34000000MG487050000102894905138175-00-  25062014019BELO HORIZONTE      0109201400000000000449049CC                                                                                                                                                                                                                                                                                                                                                                                                         000088
1022421010720COBR_CAUC_COR  GUERRA E GUERRA TRANSPORTES LTDA        002003402002461ADM DO BRASIL LTDA                      AV SENADIR ATILIO FONTANA,SN-SALA2      RONDONOPOLIS                            78745800MT487060000100005109479         26052014900BRADESCO S/A        3009201400000000002310000CC                                                                                                                                                                                                                                                                                                                                                                                                         000089
1022421010720COBR_CAUC_COR  GUERRA E GUERRA TRANSPORTES LTDA        002003402002461ADM DO BRASIL LTDA                      AV SENADIR ATILIO FONTANA,SN-SALA2      RONDONOPOLIS                            78745800MT487060000200005150005367      28052014900BRADESCO S/A        3009201400000000000207200CC                                                                                                                                                                                                                                                                                                                                                                                                         000090
1022421010720COBR_CAUC_COR  GUERRA E GUERRA TRANSPORTES LTDA        002003402002461ADM DO BRASIL LTDA                      AV SENADIR ATILIO FONTANA,SN-SALA2      RONDONOPOLIS                            78745800MT487060000300005257006230      28052014900BRADESCO S/A        0408201400000000000044604CC                                                                                                                                                                                                                                                                                                                                                                                                         000091
1022421010720COBR_CAUC_COR  GUERRA E GUERRA TRANSPORTES LTDA        002003402002461ADM DO BRASIL LTDA                      AV SENADIR ATILIO FONTANA,SN-SALA2      RONDONOPOLIS                            78745800MT487060000400005281000000559   28052014900BRADESCO S/A        1508201400000000000297929CC                                                                                                                                                                                                                                                                                                                                                                                                         000092
1022421010720COBR_CAUC_COR  GUERRA E GUERRA TRANSPORTES LTDA        002003402002461ADM DO BRASIL LTDA                      AV SENADIR ATILIO FONTANA,SN-SALA2      RONDONOPOLIS                            78745800MT487060000500004765000000306   02052014900BRADESCO S/A        2008201400000000001239500CC                                                                                                                                                                                                                                                                                                                                                                                                         000093
1022421010720COBR_CAUC_COR  GUERRA E GUERRA TRANSPORTES LTDA        002003402002461ADM DO BRASIL LTDA                      AV SENADIR ATILIO FONTANA,SN-SALA2      RONDONOPOLIS                            78745800MT487060000600004773000000307   02052014900BRADESCO S/A        3009201400000000001565300CC                                                                                                                                                                                                                                                                                                                                                                                                         000094
1022421010720COBR_CAUC_COR  GUERRA E GUERRA TRANSPORTES LTDA        002003402002461ADM DO BRASIL LTDA                      AV SENADIR ATILIO FONTANA,SN-SALA2      RONDONOPOLIS                            78745800MT487060000700005044556         26052014900BRADESCO S/A        2208201400000000000478440CC                                                                                                                                                                                                                                                                                                                                                                                                         000095
1022421010720COBR_CAUC_COR  GUERRA E GUERRA TRANSPORTES LTDA        002003402002461ADM DO BRASIL LTDA                      AV SENADIR ATILIO FONTANA,SN-SALA2      RONDONOPOLIS                            78745800MT487060000800005095435D        26052014900BRADESCO S/A        3008201400000000003342536CC                                                                                                                                                                                                                                                                                                                                                                                                         000096
1022421010720COBR_CAUC_COR  GUERRA E GUERRA TRANSPORTES LTDA        002003402002461ADM DO BRASIL LTDA                      AV SENADIR ATILIO FONTANA,SN-SALA2      RONDONOPOLIS                            78745800MT487060000900005176005591      28052014900BRADESCO S/A        0808201400000000000207315CC                                                                                                                                                                                                                                                                                                                                                                                                         000097
1022421010720COBR_CAUC_COR  GUERRA E GUERRA TRANSPORTES LTDA        002003402002461ADM DO BRASIL LTDA                      AV SENADIR ATILIO FONTANA,SN-SALA2      RONDONOPOLIS                            78745800MT487060001000005214000000516   28052014900BRADESCO S/A        2208201400000000000305997CC                                                                                                                                                                                                                                                                                                                                                                                                         000098
1022421010720COBR_CAUC_COR  GUERRA E GUERRA TRANSPORTES LTDA        002003402002461ADM DO BRASIL LTDA                      AV SENADIR ATILIO FONTANA,SN-SALA2      RONDONOPOLIS                            78745800MT487060001100005222006748      28052014900BRADESCO S/A        2608201400000000000039000CC                                                                                                                                                                                                                                                                                                                                                                                                         000099
1022421010720COBR_CAUC_COR  GUERRA E GUERRA TRANSPORTES LTDA        002003402002461ADM DO BRASIL LTDA                      AV SENADIR ATILIO FONTANA,SN-SALA2      RONDONOPOLIS                            78745800MT487060001200005974344/407     30072014900BRADESCO S/A        3009201400000000001052437CC                                                                                                                                                                                                                                                                                                                                                                                                         000100
1022421010720COBR_CAUC_COR  GUERRA E GUERRA TRANSPORTES LTDA        002003402002461ADM DO BRASIL LTDA                      AV SENADIR ATILIO FONTANA,SN-SALA2      RONDONOPOLIS                            78745800MT487060001300005036434         26052014900BRADESCO S/A        3008201400000000001026362CC                                                                                                                                                                                                                                                                                                                                                                                                         000101
1022421010720COBR_CAUC_COR  GUERRA E GUERRA TRANSPORTES LTDA        002003402002461ADM DO BRASIL LTDA                      AV SENADIR ATILIO FONTANA,SN-SALA2      RONDONOPOLIS                            78745800MT487060001400005061435A        26052014900BRADESCO S/A        1108201400000000003342536CC                                                                                                                                                                                                                                                                                                                                                                                                         000102
1022421010720COBR_CAUC_COR  GUERRA E GUERRA TRANSPORTES LTDA        002003402002461ADM DO BRASIL LTDA                      AV SENADIR ATILIO FONTANA,SN-SALA2      RONDONOPOLIS                            78745800MT487060001500005079435B        26052014900BRADESCO S/A        1808201400000000003342536CC                                                                                                                                                                                                                                                                                                                                                                                                         000103
1022421010720COBR_CAUC_COR  GUERRA E GUERRA TRANSPORTES LTDA        002003402002461ADM DO BRASIL LTDA                      AV SENADIR ATILIO FONTANA,SN-SALA2      RONDONOPOLIS                            78745800MT487060001600005206006751      28052014900BRADESCO S/A        1908201400000000000241737CC                                                                                                                                                                                                                                                                                                                                                                                                         000104
1022421010720COBR_CAUC_COR  GUERRA E GUERRA TRANSPORTES LTDA        002003402002461ADM DO BRASIL LTDA                      AV SENADIR ATILIO FONTANA,SN-SALA2      RONDONOPOLIS                            78745800MT487060001700005249005952      28052014900BRADESCO S/A        3009201400000000000029000CC                                                                                                                                                                                                                                                                                                                                                                                                         000105
1022421010720COBR_CAUC_COR  GUERRA E GUERRA TRANSPORTES LTDA        002003402002461ADM DO BRASIL LTDA                      AV SENADIR ATILIO FONTANA,SN-SALA2      RONDONOPOLIS                            78745800MT487060001800005290000000586   28052014900BRADESCO S/A        1908201400000000001262100CC                                                                                                                                                                                                                                                                                                                                                                                                         000106
1022421010720COBR_CAUC_COR  GUERRA E GUERRA TRANSPORTES LTDA        002003402002461ADM DO BRASIL LTDA                      AV SENADIR ATILIO FONTANA,SN-SALA2      RONDONOPOLIS                            78745800MT487060001900005087435C        26052014900BRADESCO S/A        3008201400000000003342536CC                                                                                                                                                                                                                                                                                                                                                                                                         000107
1022421010720COBR_CAUC_COR  GUERRA E GUERRA TRANSPORTES LTDA        002003402002461ADM DO BRASIL LTDA                      AV SENADIR ATILIO FONTANA,SN-SALA2      RONDONOPOLIS                            78745800MT487060002000005184000000570   28052014900BRADESCO S/A        1208201400000000000514300CC                                                                                                                                                                                                                                                                                                                                                                                                         000108
1022421010720COBR_CAUC_COR  GUERRA E GUERRA TRANSPORTES LTDA        002003402002461ADM DO BRASIL LTDA                      AV SENADIR ATILIO FONTANA,SN-SALA2      RONDONOPOLIS                            78745800MT487060002100005273000000556   28052014900BRADESCO S/A        1208201400000000000478440CC                                                                                                                                                                                                                                                                                                                                                                                                         000109
1022421010720COBR_CAUC_COR  GUERRA E GUERRA TRANSPORTES LTDA        002003402002461ADM DO BRASIL LTDA                      AV SENADIR ATILIO FONTANA,SN-SALA2      RONDONOPOLIS                            78745800MT487060002200005192006750      28052014900BRADESCO S/A        1508201400000000000213876CC                                                                                                                                                                                                                                                                                                                                                                                                         000110
1022421010720COBR_CAUC_COR  GUERRA E GUERRA TRANSPORTES LTDA        002003402002461ADM DO BRASIL LTDA                      AV SENADIR ATILIO FONTANA,SN-SALA2      RONDONOPOLIS                            78745800MT487060002300005265006763      28052014900BRADESCO S/A        0808201400000000000460125CC                                                                                                                                                                                                                                                                                                                                                                                                         000111
1022421010720COBR_CAUC_COR  GUERRA E GUERRA TRANSPORTES LTDA        002003402002461ADM DO BRASIL LTDA                      AV SENADIR ATILIO FONTANA,SN-SALA2      RONDONOPOLIS                            78745800MT487060002400005435000000237   06062014900BRADESCO S/A        3009201400000000000536500CC                                                                                                                                                                                                                                                                                                                                                                                                         000112
1022421010720COBR_CAUC_COR  GUERRA E GUERRA TRANSPORTES LTDA        002003402002461ADM DO BRASIL LTDA                      AV SENADIR ATILIO FONTANA,SN-SALA2      RONDONOPOLIS                            78745800MT487060002500005052559         26052014900BRADESCO S/A        2908201400000000000297929CC                                                                                                                                                                                                                                                                                                                                                                                                         000113
1022421010720COBR_CAUC_COR  GUERRA E GUERRA TRANSPORTES LTDA        002003402002461ADM DO BRASIL LTDA                      AV SENADIR ATILIO FONTANA,SN-SALA2      RONDONOPOLIS                            78745800MT487060002600005419000000342   06062014900BRADESCO S/A        3008201400000000000515036CC                                                                                                                                                                                                                                                                                                                                                                                                         000114
1022421010720COBR_CAUC_COR  GUERRA E GUERRA TRANSPORTES LTDA        002003402002461ADM DO BRASIL LTDA                      AV SENADIR ATILIO FONTANA,SN-SALA2      RONDONOPOLIS                            78745800MT487060002700005427000000127   06062014900BRADESCO S/A        3008201400000000000265260CC                                                                                                                                                                                                                                                                                                                                                                                                         000115
1022421010720COBR_CAUC_COR  GUERRA E GUERRA TRANSPORTES LTDA        002003402002461ADM DO BRASIL LTDA                      AV SENADIR ATILIO FONTANA,SN-SALA2      RONDONOPOLIS                            78745800MT487060002800005168005583      28052014900BRADESCO S/A        0408201400000000000212500CC                                                                                                                                                                                                                                                                                                                                                                                                         000116
1022421010720COBR_CAUC_COR  GUERRA E GUERRA TRANSPORTES LTDA        002003402002461ADM DO BRASIL LTDA                      AV SENADIR ATILIO FONTANA,SN-SALA2      RONDONOPOLIS                            78745800MT487060002900005231005786      28052014900BRADESCO S/A        2908201400000000000524320CC                                                                                                                                                                                                                                                                                                                                                                                                         000117
9000030                                                                                                                                                                                                                                                                                                                                                                                                                                                                                                                                                                                                                                                                                                               000118
