0REMESSANOTIFICACAO ELETRONICA        99999999999999BICBANCO                                AV. PAULISTA                            1048      12.ANDAR  BELA VISTA                    SAO PAULO                     01310100SP1121739360CORTINHAL                               COORDENADOR                             04102013                                                                                                                                                                                                                                                                                                                                                                                      000001
1048421000338COBR_CAUC_COR  FRIGOESTRELA S.A. EM RECUP JUDICIAL     050947761001871IRMAOS RUSSI LTDA                       RUA LUIS ALLI FARDYN SALA 03, 590       CAJAMAR                                 07750000SP4462300001062682250030658401  02102013900BRADESCO S/A        0711201300000000012604800CC                                                                                                                                                                                                                                                                                                                                                                                                         000002
1007421068839COBR_CAUC_BIC  KELPEN OIL BRASIL LTDA                  043218296000124PETROCOQUE SA IND E COMERCIO            ROD CONEGO DOMENICO RANGONI SP,267      CUBATAO                                 11573000SP44624000010231537702048801    03102013023SANTOS              1510201300000000010127795CC                                                                                                                                                                                                                                                                                                                                                                                                         000003
1029421018494COBR_CAUC_COR  PRO SALUTE SERVICOS PARA SAUDE LTDA     088611264000122INTRAL S A IND DE MATERIAIS ELETRI      TRAV. RIO GRANDE , 130                  CAXIAS DO SUL                           95098750RS4462000001000376030138255.A   02102013900BRADESCO S/A        1011201300000000010733512CC                                                                                                                                                                                                                                                                                                                                                                                                         000004
1029421018494COBR_CAUC_COR  PRO SALUTE SERVICOS PARA SAUDE LTDA     093785822000106SAN MARINO ONIBUS E IMPLEMENTOS LT      IRMAO GILDO SCHIAVO, 110                CAXIAS DO SUL                           95058510RS4462200001000376110138302.A   02102013900BRADESCO S/A        2010201300000000019335382CC                                                                                                                                                                                                                                                                                                                                                                                                         000005
1029421018494COBR_CAUC_COR  PRO SALUTE SERVICOS PARA SAUDE LTDA     090467424000153VIACAO SANTA TEREZA DE CAXIAS DO S      RUA JULIO CALEGARI, 940                 CAXIAS DO SUL                           95095230RS4462100001000376200138321.A   02102013900BRADESCO S/A        1810201300000000023039514CC                                                                                                                                                                                                                                                                                                                                                                                                         000006
9000005                                                                                                                                                                                                                                                                                                                                                                                                                                                                                                                                                                                                                                                                                                               000007
