0REMESSANOTIFICACAO ELETRONICA        99999999999999BICBANCO                                AV. PAULISTA                            1048      12.ANDAR  BELA VISTA                    SAO PAULO                     01310100SP1121739360CORTINHAL                               COORDENADOR                             06112012                                                                                                                                                                                                                                                                                                                                                                                      000001
1007421056385COBR_CAUC_COR  TERRA NOVA TRADING S/A                  013859972000188RITRAMA AUTOADESIVOS COMERCIO LTDA      ROD.VICE-PREFEITO HERMENEGILDO T,1      JUNDIAI                                 13213086SP386580000100000697TI08863-PB  05112012900BRADESCO S/A        0811201200000000010487496CC                                                                                                                                                                                                                                                                                                                                                                                                         000002
1046421007255COBR_CAUC_BIC  MAESTRO DO BRASIL IND METALUR LTDA      076639285002110FERRAGENS NEGRAO COMERCIAL LTDA         RUA PROFESSOR ALGACYR MUNHOZ MADER,,2800CURITIBA - PR                           81310020PR38659000010164993425091-1/1   25102012016CURITIBA            2311201200000000011630425CC                                                                                                                                                                                                                                                                                                                                                                                                         000003
1048421000338COBR_CAUC_COR  FRIGOESTRELA S.A. EM RECUP JUDICIAL     008386287000141BERMAS MARACANAU IND E COM DE COUR      AV CONTORNOS/NDISTRITO INDUSTRIAL       MARACANAU                               61939160CE3866000001030364470001371501  01112012900BRADESCO S/A        0112201200000000029570940CC                                                                                                                                                                                                                                                                                                                                                                                                         000004
1048421000338COBR_CAUC_COR  FRIGOESTRELA S.A. EM RECUP JUDICIAL     008386287000141BERMAS MARACANAU IND E COM DE COUR      AV CONTORNOS/NDISTRITO INDUSTRIAL       MARACANAU                               61939160CE3866000002030364550001371601  01112012900BRADESCO S/A        0112201200000000016750893CC                                                                                                                                                                                                                                                                                                                                                                                                         000005
1048421000338COBR_CAUC_COR  FRIGOESTRELA S.A. EM RECUP JUDICIAL     008386287000141BERMAS MARACANAU IND E COM DE COUR      AV CONTORNOS/NDISTRITO INDUSTRIAL       MARACANAU                               61939160CE3866000003030364630001371701  01112012900BRADESCO S/A        0112201200000000014578029CC                                                                                                                                                                                                                                                                                                                                                                                                         000006
1031421009993COBR_CAUC_BIC  VAMOL INDUSTRIA MOVELEIRA LTDA          056642960000100LOJAS CEM S/A                           RODOV. ENG. ERMENTO O PENTEADO,0        SALTO                                   13322100SP38661000010508751078357-1/1   29102012021CAMPINAS            2811201200000000011940000CC                                                                                                                                                                                                                                                                                                                                                                                                         000007
1010421024356COBR_CAUC_COR  DIST EQUADOR DE PROD PETROLEO LTDA      007283719000207VESTING SERVICOS E OBRAS DE DRAGAG      AV CAMPO SALES, 3200                    PORTO VELHO                             76801246RO38662000010000122057466       31102012900BRADESCO S/A        1011201200000000080000101CC                                                                                                                                                                                                                                                                                                                                                                                                         000008
1020421001717COBR_CAUC_COR  H-BUSTER DA AMAZONIA IND COM LTDA       010772760000170RICARDO ELETRO ATACADO LTDA             ESTRADA AEROPORTO AREMBEPE,KM 3,5       LAURO DE FREITA                         42700000BA386630000106255403020355.1/1  01112012900BRADESCO S/A        3001201300000000046875000CC                                                                                                                                                                                                                                                                                                                                                                                                         000009
1020421001717COBR_CAUC_BIC  H-BUSTER DA AMAZONIA IND COM LTDA       013481309015629RN COMERCIO VAREJISTA S.A.              RUA HIBISCO,210                         CONTAGEM                                32150210MG386640000106255357020413.1/1  01112012019BELO HORIZONTE      3001201300000000033500000CC                                                                                                                                                                                                                                                                                                                                                                                                         000010
1020421001717COBR_CAUC_BIC  H-BUSTER DA AMAZONIA IND COM LTDA       013481309015629RN COMERCIO VAREJISTA S.A.              RUA HIBISCO,210                         CONTAGEM                                32150210MG386640000206255365020432.1/1  01112012900BELO HORIZONTE      3001201300000000010050000CC                                                                                                                                                                                                                                                                                                                                                                                                         000011
1020421001717COBR_CAUC_COR  H-BUSTER DA AMAZONIA IND COM LTDA       016182834002904LOJAS INSINUANTE LTDA.                  ESTRADA AEROPORTO AREMBEPE KM 3,,SEM NROLAURO DE FREITA                         42700000BA386650000106255411020385.1/1  01112012900BRADESCO S/A        3001201300000000050250000CC                                                                                                                                                                                                                                                                                                                                                                                                         000012
1020421001717COBR_CAUC_COR  H-BUSTER DA AMAZONIA IND COM LTDA       022164990006177ELETROSOM S/A                           RUA TITO FULGENCIO,255                  MONTE CARMELO                           38500000MG386660000106255390020331.1/1  01112012900BRADESCO S/A        0103201300000000021543000CC                                                                                                                                                                                                                                                                                                                                                                                                         000013
1020421001717COBR_CAUC_BIC  H-BUSTER DA AMAZONIA IND COM LTDA       025760877012975CARLOS SARAIVA IMPORTACAO E COM LT      RUA HUM,60                              CONTAGEM                                32183050MG386670000106255349020409.1/1  01112012019BELO HORIZONTE      3001201300000000016750000CC                                                                                                                                                                                                                                                                                                                                                                                                         000014
1020421001717COBR_CAUC_BIC  H-BUSTER DA AMAZONIA IND COM LTDA       047960950034450MAGAZINE LUIZA S/A - CD 350             RUA DO COMERCIO,1924                    FRANCA                                  14400660SP386680000106255373020279.1/1  01112012022RIBEIRAO PRETO      1402201300000000028804000CC                                                                                                                                                                                                                                                                                                                                                                                                         000015
1020421001717COBR_CAUC_BIC  H-BUSTER DA AMAZONIA IND COM LTDA       061099834033870ARTUR LUNDGREEN PERNAMBUCANAS LTDA      RUA DA CONSOLACAO,2411                  CERQUEIRA CESAR                         01301909SP386690000106255292020397.1/1  01112012007PAULISTA            3001201300000000014560000CC                                                                                                                                                                                                                                                                                                                                                                                                         000016
1020421001717COBR_CAUC_BIC  H-BUSTER DA AMAZONIA IND COM LTDA       061099834033870ARTUR LUNDGREEN PERNAMBUCANAS LTDA      RUA DA CONSOLACAO,2411                  CERQUEIRA CESAR                         01301909SP386690000206255306020398.1/1  01112012007PAULISTA            3001201300000000014560000CC                                                                                                                                                                                                                                                                                                                                                                                                         000017
1020421001717COBR_CAUC_BIC  H-BUSTER DA AMAZONIA IND COM LTDA       061099834033870ARTUR LUNDGREEN PERNAMBUCANAS LTDA      RUA DA CONSOLACAO,2411                  CERQUEIRA CESAR                         01301909SP386690000306255314020399.1/1  01112012007PAULISTA            3001201300000000014560000CC                                                                                                                                                                                                                                                                                                                                                                                                         000018
1020421001717COBR_CAUC_BIC  H-BUSTER DA AMAZONIA IND COM LTDA       061099834033870ARTUR LUNDGREEN PERNAMBUCANAS LTDA      RUA DA CONSOLACAO,2411                  CERQUEIRA CESAR                         01301909SP386690000406255322020401.1/1  01112012007PAULISTA            3001201300000000014560000CC                                                                                                                                                                                                                                                                                                                                                                                                         000019
1020421001717COBR_CAUC_BIC  H-BUSTER DA AMAZONIA IND COM LTDA       061099834033870ARTUR LUNDGREEN PERNAMBUCANAS LTDA      RUA DA CONSOLACAO,2411                  CERQUEIRA CESAR                         01301909SP386690000506255420020394.1/1  01112012007PAULISTA            3001201300000000014560000CC                                                                                                                                                                                                                                                                                                                                                                                                         000020
1020421001717COBR_CAUC_BIC  H-BUSTER DA AMAZONIA IND COM LTDA       061099834033870ARTUR LUNDGREEN PERNAMBUCANAS LTDA      RUA DA CONSOLACAO,2411                  CERQUEIRA CESAR                         01301909SP386690000606255438020395.1/1  01112012007PAULISTA            3001201300000000014560000CC                                                                                                                                                                                                                                                                                                                                                                                                         000021
9000012                                                                                                                                                                                                                                                                                                                                                                                                                                                                                                                                                                                                                                                                                                               000022
