0REMESSANOTIFICACAO ELETRONICA        99999999999999BICBANCO                                AV. PAULISTA                            1048      12.ANDAR  BELA VISTA                    SAO PAULO                     01310100SP1121739360CORTINHAL                               COORDENADOR                             03102014                                                                                                                                                                                                                                                                                                                                                                                      000001
1022421007800COBR_CAUC_COR  LEAO ENGENHARIA S/A                     013749329000100WTB PARTICIPACOES LTDA                  R MARINGA 438                           RIBEIRAO PRETO                          14026040SP498440000101059580058757/1.1  30092014900BRADESCO S/A        3010201400000000010067798CC                                                                                                                                                                                                                                                                                                                                                                                                         000002
1043421010006COBR_CAUC_COR  ELFA MEDICAMENTOS LTDA                  060961968000106FUNDACAO ANTONIO PRUDENTE               RUA PROFESSOR ANTONIO PRUDENTE          SAO PAULO                               01509010SP498450000100116373000062222   02102014900BRADESCO S/A        0112201400000000012101310CC                                                                                                                                                                                                                                                                                                                                                                                                         000003
1007421076122COBR_CAUC_BIC  BMC HYUNDAI S.A                         012141133000167IRO INDUSTRIA E COMERCIO DE MATERI      EST ESTRADA DOS ROMEIROS - K,0-S/N      SANTANA DE PARN                         06513305SP49846000010332694116147A      30092014007PAULISTA            2810201400000000027000000CC                                                                                                                                                                                                                                                                                                                                                                                                         000004
9000003                                                                                                                                                                                                                                                                                                                                                                                                                                                                                                                                                                                                                                                                                                               000005
