0REMESSANOTIFICACAO ELETRONICA        99999999999999BICBANCO                                AV. PAULISTA                            1048      12.ANDAR  BELA VISTA                    SAO PAULO                     01310100SP1121739360CORTINHAL                               COORDENADOR                             03082012                                                                                                                                                                                                                                                                                                                                                                                      000001
1007421044581COBR_CAUC_BIC  GRANCARGA TRANSP. E GUINDASTES S/A.     001027335000166WOBBEN WINDPOWER IND.E COM.LTDA.        AV.FERNANDO STECCA,100                  SOROCABA                                18087149SP369860000101370668002387      02082012007PAULISTA            2908201200000000071967306CC                                                                                                                                                                                                                                                                                                                                                                                                         000002
1007421044581COBR_CAUC_BIC  GRANCARGA TRANSP. E GUINDASTES S/A.     001027335000166WOBBEN WINDPOWER IND.E COM.LTDA.        AV.FERNANDO STECCA,100                  SOROCABA                                18087149SP369860000201370773002382      01082012007PAULISTA            0110201200000000013724865CC                                                                                                                                                                                                                                                                                                                                                                                                         000003
1007421044581COBR_CAUC_BIC  GRANCARGA TRANSP. E GUINDASTES S/A.     001027335000166WOBBEN WINDPOWER IND.E COM.LTDA.        AV.FERNANDO STECCA,100                  SOROCABA                                18087149SP369860000301370781002381      01082012007PAULISTA            0110201200000000013724865CC                                                                                                                                                                                                                                                                                                                                                                                                         000004
1007421044581COBR_CAUC_BIC  GRANCARGA TRANSP. E GUINDASTES S/A.     001027335000166WOBBEN WINDPOWER IND.E COM.LTDA.        AV.FERNANDO STECCA,100                  SOROCABA                                18087149SP369860000401370803002373      01082012007PAULISTA            1209201200000000013724865CC                                                                                                                                                                                                                                                                                                                                                                                                         000005
1007421044581COBR_CAUC_BIC  GRANCARGA TRANSP. E GUINDASTES S/A.     001027335000166WOBBEN WINDPOWER IND.E COM.LTDA.        AV.FERNANDO STECCA,100                  SOROCABA                                18087149SP369860000501370811002374      01082012007PAULISTA            1209201200000000013724865CC                                                                                                                                                                                                                                                                                                                                                                                                         000006
1007421044581COBR_CAUC_BIC  GRANCARGA TRANSP. E GUINDASTES S/A.     001027335000166WOBBEN WINDPOWER IND.E COM.LTDA.        AV.FERNANDO STECCA,100                  SOROCABA                                18087149SP369860000601370820002375      01082012007PAULISTA            1909201200000000013724865CC                                                                                                                                                                                                                                                                                                                                                                                                         000007
1007421044581COBR_CAUC_BIC  GRANCARGA TRANSP. E GUINDASTES S/A.     001027335000166WOBBEN WINDPOWER IND.E COM.LTDA.        AV.FERNANDO STECCA,100                  SOROCABA                                18087149SP369860000701370838002376      01082012007PAULISTA            1909201200000000013724865CC                                                                                                                                                                                                                                                                                                                                                                                                         000008
1007421044581COBR_CAUC_BIC  GRANCARGA TRANSP. E GUINDASTES S/A.     001027335000166WOBBEN WINDPOWER IND.E COM.LTDA.        AV.FERNANDO STECCA,100                  SOROCABA                                18087149SP369860000801370846002377      01082012007PAULISTA            2609201200000000013724865CC                                                                                                                                                                                                                                                                                                                                                                                                         000009
1007421044581COBR_CAUC_BIC  GRANCARGA TRANSP. E GUINDASTES S/A.     001027335000166WOBBEN WINDPOWER IND.E COM.LTDA.        AV.FERNANDO STECCA,100                  SOROCABA                                18087149SP369860000901370854002378      01082012007PAULISTA            2609201200000000013724865CC                                                                                                                                                                                                                                                                                                                                                                                                         000010
1007421044581COBR_CAUC_BIC  GRANCARGA TRANSP. E GUINDASTES S/A.     001027335000166WOBBEN WINDPOWER IND.E COM.LTDA.        AV.FERNANDO STECCA,100                  SOROCABA                                18087149SP369860001001370862002379      01082012007PAULISTA            0110201200000000013724865CC                                                                                                                                                                                                                                                                                                                                                                                                         000011
1007421044581COBR_CAUC_BIC  GRANCARGA TRANSP. E GUINDASTES S/A.     001027335000166WOBBEN WINDPOWER IND.E COM.LTDA.        AV.FERNANDO STECCA,100                  SOROCABA                                18087149SP369860001101370871002380      01082012007PAULISTA            0110201200000000013724865CC                                                                                                                                                                                                                                                                                                                                                                                                         000012
1020421001717COBR_CAUC_BIC  H-BUSTER DA AMAZONIA IND COM LTDA       047960950041901MAGAZINE LUIZA S/A                      RUA DO COMERCIO,1924                    FRANCA                                  14400660SP369870000106223021016711.1/1  30072012022RIBEIRAO PRETO      1211201200000000033480000CC                                                                                                                                                                                                                                                                                                                                                                                                         000013
1020421001717COBR_CAUC_BIC  H-BUSTER DA AMAZONIA IND COM LTDA       047960950041901MAGAZINE LUIZA S/A                      RUA DO COMERCIO,1924                    FRANCA                                  14400660SP369870000206223030016713.1/1  30072012022RIBEIRAO PRETO      1211201200000000016740000CC                                                                                                                                                                                                                                                                                                                                                                                                         000014
1020421001717COBR_CAUC_BIC  H-BUSTER DA AMAZONIA IND COM LTDA       047960950041901MAGAZINE LUIZA S/A                      RUA DO COMERCIO,1924                    FRANCA                                  14400660SP369870000306223048016715.1/1  30072012022RIBEIRAO PRETO      1211201200000000059396000CC                                                                                                                                                                                                                                                                                                                                                                                                         000015
1020421001717COBR_CAUC_BIC  H-BUSTER DA AMAZONIA IND COM LTDA       047960950041901MAGAZINE LUIZA S/A                      RUA DO COMERCIO,1924                    FRANCA                                  14400660SP369870000406223056016717.1/1  30072012022RIBEIRAO PRETO      1211201200000000027900000CC                                                                                                                                                                                                                                                                                                                                                                                                         000016
1020421001717COBR_CAUC_BIC  H-BUSTER DA AMAZONIA IND COM LTDA       047960950041901MAGAZINE LUIZA S/A                      RUA DO COMERCIO,1924                    FRANCA                                  14400660SP369870000506223064016721.1/1  30072012022RIBEIRAO PRETO      1211201200000000029884000CC                                                                                                                                                                                                                                                                                                                                                                                                         000017
1020421001717COBR_CAUC_BIC  H-BUSTER DA AMAZONIA IND COM LTDA       047960950041901MAGAZINE LUIZA S/A                      RUA DO COMERCIO,1924                    FRANCA                                  14400660SP369870000606223072016723.1/1  30072012022RIBEIRAO PRETO      1211201200000000044640000CC                                                                                                                                                                                                                                                                                                                                                                                                         000018
1020421001717COBR_CAUC_BIC  H-BUSTER DA AMAZONIA IND COM LTDA       047960950041901MAGAZINE LUIZA S/A                      RUA DO COMERCIO,1924                    FRANCA                                  14400660SP369870000706223081016726.1/1  30072012022RIBEIRAO PRETO      1211201200000000059396000CC                                                                                                                                                                                                                                                                                                                                                                                                         000019
1020421001717COBR_CAUC_BIC  H-BUSTER DA AMAZONIA IND COM LTDA       047960950041901MAGAZINE LUIZA S/A                      RUA DO COMERCIO,1924                    FRANCA                                  14400660SP369870000806223099016727.1/1  30072012022RIBEIRAO PRETO      1211201200000000059396000CC                                                                                                                                                                                                                                                                                                                                                                                                         000020
1020421001717COBR_CAUC_BIC  H-BUSTER DA AMAZONIA IND COM LTDA       047960950041901MAGAZINE LUIZA S/A                      RUA DO COMERCIO,1924                    FRANCA                                  14400660SP369870000906223102016732.1/1  30072012022RIBEIRAO PRETO      1211201200000000015004000CC                                                                                                                                                                                                                                                                                                                                                                                                         000021
1020421001717COBR_CAUC_BIC  H-BUSTER DA AMAZONIA IND COM LTDA       047960950041901MAGAZINE LUIZA S/A                      RUA DO COMERCIO,1924                    FRANCA                                  14400660SP369870001006223111016733.1/1  30072012022RIBEIRAO PRETO      1211201200000000059396000CC                                                                                                                                                                                                                                                                                                                                                                                                         000022
1038421020480COBR_CAUC_BIC  LIONFER INDUSTRIA METALURGICA LTDA      054043179000193MESTERLIDE IND. E COM. LTDA             RUA OLIVEIRA LIMA,455                   SAO PAULO                               01541010SP37001000010977449914796/1     30072012007PAULISTA            2809201200000000001377000CC                                                                                                                                                                                                                                                                                                                                                                                                         000023
1038421020480COBR_CAUC_BIC  LIONFER INDUSTRIA METALURGICA LTDA      054043179000193MESTERLIDE IND. E COM. LTDA             RUA OLIVEIRA LIMA,455                   SAO PAULO                               01541010SP37001000020977450214796/2     30072012007PAULISTA            0310201200000000001377000CC                                                                                                                                                                                                                                                                                                                                                                                                         000024
1038421020480COBR_CAUC_BIC  LIONFER INDUSTRIA METALURGICA LTDA      054043179000193MESTERLIDE IND. E COM. LTDA             RUA OLIVEIRA LIMA,455                   SAO PAULO                               01541010SP37001000030977451114796/3     30072012007PAULISTA            1210201200000000001377000CC                                                                                                                                                                                                                                                                                                                                                                                                         000025
1038421020480COBR_CAUC_BIC  LIONFER INDUSTRIA METALURGICA LTDA      054043179000193MESTERLIDE IND. E COM. LTDA             RUA OLIVEIRA LIMA,455                   SAO PAULO                               01541010SP37001000040977452914796/4     30072012007PAULISTA            1810201200000000001377000CC                                                                                                                                                                                                                                                                                                                                                                                                         000026
1038421020480COBR_CAUC_BIC  LIONFER INDUSTRIA METALURGICA LTDA      054043179000193MESTERLIDE IND. E COM. LTDA             RUA OLIVEIRA LIMA,455                   SAO PAULO                               01541010SP37001000050977453714796/5     30072012007PAULISTA            0711201200000000001377000CC                                                                                                                                                                                                                                                                                                                                                                                                         000027
1038421020480COBR_CAUC_BIC  LIONFER INDUSTRIA METALURGICA LTDA      054043179000193MESTERLIDE IND. E COM. LTDA             RUA OLIVEIRA LIMA,455                   SAO PAULO                               01541010SP37001000060977454514796/6     30072012007PAULISTA            2711201200000000001380432CC                                                                                                                                                                                                                                                                                                                                                                                                         000028
1038421020480COBR_CAUC_BIC  LIONFER INDUSTRIA METALURGICA LTDA      054043179000193MESTERLIDE IND. E COM. LTDA             RUA OLIVEIRA LIMA,455                   SAO PAULO                               01541010SP37001000070977455314797/1     30072012007PAULISTA            2709201200000000001292400CC                                                                                                                                                                                                                                                                                                                                                                                                         000029
1038421020480COBR_CAUC_BIC  LIONFER INDUSTRIA METALURGICA LTDA      054043179000193MESTERLIDE IND. E COM. LTDA             RUA OLIVEIRA LIMA,455                   SAO PAULO                               01541010SP37001000080977456114797/2     30072012007PAULISTA            0210201200000000001292400CC                                                                                                                                                                                                                                                                                                                                                                                                         000030
1038421020480COBR_CAUC_BIC  LIONFER INDUSTRIA METALURGICA LTDA      054043179000193MESTERLIDE IND. E COM. LTDA             RUA OLIVEIRA LIMA,455                   SAO PAULO                               01541010SP37001000090977457014797/3     30072012007PAULISTA            0810201200000000001292400CC                                                                                                                                                                                                                                                                                                                                                                                                         000031
1038421020480COBR_CAUC_BIC  LIONFER INDUSTRIA METALURGICA LTDA      054043179000193MESTERLIDE IND. E COM. LTDA             RUA OLIVEIRA LIMA,455                   SAO PAULO                               01541010SP37001000100977458814797/4     30072012007PAULISTA            1710201200000000001292400CC                                                                                                                                                                                                                                                                                                                                                                                                         000032
1038421020480COBR_CAUC_BIC  LIONFER INDUSTRIA METALURGICA LTDA      054043179000193MESTERLIDE IND. E COM. LTDA             RUA OLIVEIRA LIMA,455                   SAO PAULO                               01541010SP37001000110977476614797/6     30072012007PAULISTA            2611201200000000001295610CC                                                                                                                                                                                                                                                                                                                                                                                                         000033
1038421020480COBR_CAUC_BIC  LIONFER INDUSTRIA METALURGICA LTDA      054043179000193MESTERLIDE IND. E COM. LTDA             RUA OLIVEIRA LIMA,455                   SAO PAULO                               01541010SP37001000120977491014797/5     30072012007PAULISTA            0611201200000000001292400CC                                                                                                                                                                                                                                                                                                                                                                                                         000034
1032421023773COBR_CAUC_BIC  FRIGORIFICO SAO GREGORIO LTDA           093148955000171LUNARDELLI COMERCIAL DE CARNES E A      RUA JEROLOMO MINUZZO 580                PORTO ALEGRE                            91730050RS37002000010067430415084/1     12062012015PORTO ALEGRE        1008201200000000001233857CC                                                                                                                                                                                                                                                                                                                                                                                                         000035
1032421023773COBR_CAUC_BIC  FRIGORIFICO SAO GREGORIO LTDA           093148955000171LUNARDELLI COMERCIAL DE CARNES E A      RUA JEROLOMO MINUZZO 580                PORTO ALEGRE                            91730050RS37002000020067431215087/1     12062012015PORTO ALEGRE        1208201200000000001290145CC                                                                                                                                                                                                                                                                                                                                                                                                         000036
1032421023773COBR_CAUC_BIC  FRIGORIFICO SAO GREGORIO LTDA           093148955000171LUNARDELLI COMERCIAL DE CARNES E A      RUA JEROLOMO MINUZZO 580                PORTO ALEGRE                            91730050RS370020000300674541150841/1    12062012015PORTO ALEGRE        1208201200000000001233857CC                                                                                                                                                                                                                                                                                                                                                                                                         000037
1032421023773COBR_CAUC_BIC  FRIGORIFICO SAO GREGORIO LTDA           093148955000171LUNARDELLI COMERCIAL DE CARNES E A      RUA JEROLOMO MINUZZO 580                PORTO ALEGRE                            91730050RS370020000400731731389/1       26062012015PORTO ALEGRE        2008201200000000002507150CC                                                                                                                                                                                                                                                                                                                                                                                                         000038
1032421023773COBR_CAUC_BIC  FRIGORIFICO SAO GREGORIO LTDA           093148955000171LUNARDELLI COMERCIAL DE CARNES E A      RUA JEROLOMO MINUZZO 580                PORTO ALEGRE                            91730050RS37002000050081557916874/1     18072012015PORTO ALEGRE        1508201200000000000919196CC                                                                                                                                                                                                                                                                                                                                                                                                         000039
1032421023773COBR_CAUC_COR  FRIGORIFICO SAO GREGORIO LTDA           003204565000189MACRO ATAC TREICHEL LTDA                AV FERNANDO OSORIO 4842                 PELOTAS                                 96065000RS37003000010079546216177/1     11072012800UNIBANCO S/A        1308201200000000002610088CC                                                                                                                                                                                                                                                                                                                                                                                                         000040
1032421023773COBR_CAUC_COR  FRIGORIFICO SAO GREGORIO LTDA           003204565000189MACRO ATAC TREICHEL LTDA                AV FERNANDO OSORIO 4842                 PELOTAS                                 96065000RS37003000020079548921218/1     11072012800UNIBANCO S/A        1508201200000000002920740CC                                                                                                                                                                                                                                                                                                                                                                                                         000041
1032421023773COBR_CAUC_COR  FRIGORIFICO SAO GREGORIO LTDA           003204565000189MACRO ATAC TREICHEL LTDA                AV FERNANDO OSORIO 4842                 PELOTAS                                 96065000RS37003000030081383516867/1     18072012800UNIBANCO S/A        1508201200000000001821069CC                                                                                                                                                                                                                                                                                                                                                                                                         000042
1032421023773COBR_CAUC_BIC  FRIGORIFICO SAO GREGORIO LTDA           005327858000189SEFAR INDUSTRIA E COMERCIO DE FARI      ESTRADA RS 239 KM 37 0                  PAROBE                                  95630000RS37004000010060069619376/2     21052012015PORTO ALEGRE        0808201200000000001875000CC                                                                                                                                                                                                                                                                                                                                                                                                         000043
1032421023773COBR_CAUC_BIC  FRIGORIFICO SAO GREGORIO LTDA           005327858000189SEFAR INDUSTRIA E COMERCIO DE FARI      ESTRADA RS 239 KM 37 0                  PAROBE                                  95630000RS37004000020060070019376/3     21052012015PORTO ALEGRE        1508201200000000001875000CC                                                                                                                                                                                                                                                                                                                                                                                                         000044
1032421023773COBR_CAUC_BIC  FRIGORIFICO SAO GREGORIO LTDA           005327858000189SEFAR INDUSTRIA E COMERCIO DE FARI      ESTRADA RS 239 KM 37 0                  PAROBE                                  95630000RS37004000030060071819376/6     21052012015PORTO ALEGRE        1008201200000000001875000CC                                                                                                                                                                                                                                                                                                                                                                                                         000045
1032421023773COBR_CAUC_BIC  FRIGORIFICO SAO GREGORIO LTDA           005327858000189SEFAR INDUSTRIA E COMERCIO DE FARI      ESTRADA RS 239 KM 37 0                  PAROBE                                  95630000RS37004000040060499319377/3     21052012015PORTO ALEGRE        1909201200000000001875000CC                                                                                                                                                                                                                                                                                                                                                                                                         000046
1032421023773COBR_CAUC_BIC  FRIGORIFICO SAO GREGORIO LTDA           005327858000189SEFAR INDUSTRIA E COMERCIO DE FARI      ESTRADA RS 239 KM 37 0                  PAROBE                                  95630000RS37004000050060503519377/5     21052012015PORTO ALEGRE        1809201200000000001875000CC                                                                                                                                                                                                                                                                                                                                                                                                         000047
1032421023773COBR_CAUC_COR  FRIGORIFICO SAO GREGORIO LTDA           008087796000173SIJIL MULTI REPRESENTACOES LTDA         R 23 DE JULHO 42 AND 1 SALA 02          POUSO REDONDO                           89172000SC37005000010067441015387/1     12062012800UNIBANCO S/A        0708201200000000001128800CC                                                                                                                                                                                                                                                                                                                                                                                                         000048
1032421023773COBR_CAUC_COR  FRIGORIFICO SAO GREGORIO LTDA           008087796000173SIJIL MULTI REPRESENTACOES LTDA         R 23 DE JULHO 42 AND 1 SALA 02          POUSO REDONDO                           89172000SC37005000020070883715760/1     21062012900UNIBANCO S/A        1008201200000000001119595CC                                                                                                                                                                                                                                                                                                                                                                                                         000049
1032421023773COBR_CAUC_COR  FRIGORIFICO SAO GREGORIO LTDA           008087796000173SIJIL MULTI REPRESENTACOES LTDA         R 23 DE JULHO 42 AND 1 SALA 02          POUSO REDONDO                           89172000SC370050000300708900157731/1    21062012900UNIBANCO S/A        1308201200000000001216713CC                                                                                                                                                                                                                                                                                                                                                                                                         000050
1032421023773COBR_CAUC_COR  FRIGORIFICO SAO GREGORIO LTDA           008087796000173SIJIL MULTI REPRESENTACOES LTDA         R 23 DE JULHO 42 AND 1 SALA 02          POUSO REDONDO                           89172000SC370050000400731685385/1       25062012800UNIBANCO S/A        1408201200000000002098039CC                                                                                                                                                                                                                                                                                                                                                                                                         000051
1032421023773COBR_CAUC_COR  FRIGORIFICO SAO GREGORIO LTDA           008087796000173SIJIL MULTI REPRESENTACOES LTDA         R 23 DE JULHO 42 AND 1 SALA 02          POUSO REDONDO                           89172000SC370050000500731693386/1       25062012800UNIBANCO S/A        1608201200000000002136653CC                                                                                                                                                                                                                                                                                                                                                                                                         000052
1032421023773COBR_CAUC_COR  FRIGORIFICO SAO GREGORIO LTDA           008087796000173SIJIL MULTI REPRESENTACOES LTDA         R 23 DE JULHO 42 AND 1 SALA 02          POUSO REDONDO                           89172000SC370050000600731707384/1       25062012800UNIBANCO S/A        1308201200000000002038040CC                                                                                                                                                                                                                                                                                                                                                                                                         000053
1032421023773COBR_CAUC_BIC  FRIGORIFICO SAO GREGORIO LTDA           000418282000141BURLANI COMERCIO DE CARNES LTDA         R OURO PRETO 810                        PORTO ALEGRE                            91040610RS37006000010079545416066/1     11072012015PORTO ALEGRE        1608201200000000003087335CC                                                                                                                                                                                                                                                                                                                                                                                                         000054
1032421023773COBR_CAUC_BIC  FRIGORIFICO SAO GREGORIO LTDA           000418282000141BURLANI COMERCIO DE CARNES LTDA         R OURO PRETO 810                        PORTO ALEGRE                            91040610RS37006000020079547116548/1     11072012015PORTO ALEGRE        1408201200000000002269347CC                                                                                                                                                                                                                                                                                                                                                                                                         000055
1032421023773COBR_CAUC_BIC  FRIGORIFICO SAO GREGORIO LTDA           000418282000141BURLANI COMERCIO DE CARNES LTDA         R OURO PRETO 810                        PORTO ALEGRE                            91040610RS37006000030080428316676/1     13072012015PORTO ALEGRE        1208201200000000002538171CC                                                                                                                                                                                                                                                                                                                                                                                                         000056
1032421023773COBR_CAUC_BIC  FRIGORIFICO SAO GREGORIO LTDA           000418282000141BURLANI COMERCIO DE CARNES LTDA         R OURO PRETO 810                        PORTO ALEGRE                            91040610RS37006000040080438115550/1     13072012015PORTO ALEGRE        1308201200000000001730170CC                                                                                                                                                                                                                                                                                                                                                                                                         000057
1032421023773COBR_CAUC_BIC  FRIGORIFICO SAO GREGORIO LTDA           000418282000141BURLANI COMERCIO DE CARNES LTDA         R OURO PRETO 810                        PORTO ALEGRE                            91040610RS37006000050080439916548/1     13072012015PORTO ALEGRE        1308201200000000002269347CC                                                                                                                                                                                                                                                                                                                                                                                                         000058
1032421023773COBR_CAUC_BIC  FRIGORIFICO SAO GREGORIO LTDA           000418282000141BURLANI COMERCIO DE CARNES LTDA         R OURO PRETO 810                        PORTO ALEGRE                            91040610RS37006000060080745216791/1     16072012015PORTO ALEGRE        1508201200000000001662034CC                                                                                                                                                                                                                                                                                                                                                                                                         000059
1032421023773COBR_CAUC_BIC  FRIGORIFICO SAO GREGORIO LTDA           000418282000141BURLANI COMERCIO DE CARNES LTDA         R OURO PRETO 810                        PORTO ALEGRE                            91040610RS37006000070081558716925/1     19072012015PORTO ALEGRE        1808201200000000001401268CC                                                                                                                                                                                                                                                                                                                                                                                                         000060
1032421023773COBR_CAUC_BIC  FRIGORIFICO SAO GREGORIO LTDA           000418282000141BURLANI COMERCIO DE CARNES LTDA         R OURO PRETO 810                        PORTO ALEGRE                            91040610RS37006000080082913822209/1     18072012015PORTO ALEGRE        1708201200000000000192861CC                                                                                                                                                                                                                                                                                                                                                                                                         000061
1032421023773COBR_CAUC_BIC  FRIGORIFICO SAO GREGORIO LTDA           092091891000823ASUN COMERCIO DE GENEROS ALIMENTIC      R PADRE CHAGAS 710                      GRAVATAI                                94075080RS37007000010082916222380/1     23072012015PORTO ALEGRE        2008201200000000000276124CC                                                                                                                                                                                                                                                                                                                                                                                                         000062
1032421023773COBR_CAUC_BIC  FRIGORIFICO SAO GREGORIO LTDA           092091891000823ASUN COMERCIO DE GENEROS ALIMENTIC      R PADRE CHAGAS 710                      GRAVATAI                                94075080RS37007000020079686821905/1     10072012015PORTO ALEGRE        0708201200000000000115952CC                                                                                                                                                                                                                                                                                                                                                                                                         000063
1032421023773COBR_CAUC_BIC  FRIGORIFICO SAO GREGORIO LTDA           092091891000823ASUN COMERCIO DE GENEROS ALIMENTIC      R PADRE CHAGAS 710                      GRAVATAI                                94075080RS37007000030079689221972/1     12072012015PORTO ALEGRE        0908201200000000000204865CC                                                                                                                                                                                                                                                                                                                                                                                                         000064
1032421023773COBR_CAUC_BIC  FRIGORIFICO SAO GREGORIO LTDA           092091891000823ASUN COMERCIO DE GENEROS ALIMENTIC      R PADRE CHAGAS 710                      GRAVATAI                                94075080RS37007000040079690621973/1     12072012015PORTO ALEGRE        0908201200000000000165484CC                                                                                                                                                                                                                                                                                                                                                                                                         000065
1032421023773COBR_CAUC_BIC  FRIGORIFICO SAO GREGORIO LTDA           092091891000823ASUN COMERCIO DE GENEROS ALIMENTIC      R PADRE CHAGAS 710                      GRAVATAI                                94075080RS37007000050079691421979/1     12072012015PORTO ALEGRE        0908201200000000000249644CC                                                                                                                                                                                                                                                                                                                                                                                                         000066
1032421023773COBR_CAUC_BIC  FRIGORIFICO SAO GREGORIO LTDA           092091891000823ASUN COMERCIO DE GENEROS ALIMENTIC      R PADRE CHAGAS 710                      GRAVATAI                                94075080RS37007000060079692221980/1     12072012015PORTO ALEGRE        0908201200000000000435958CC                                                                                                                                                                                                                                                                                                                                                                                                         000067
1032421023773COBR_CAUC_BIC  FRIGORIFICO SAO GREGORIO LTDA           092091891000823ASUN COMERCIO DE GENEROS ALIMENTIC      R PADRE CHAGAS 710                      GRAVATAI                                94075080RS37007000070079693121982/1     12072012015PORTO ALEGRE        0908201200000000000363047CC                                                                                                                                                                                                                                                                                                                                                                                                         000068
1032421023773COBR_CAUC_BIC  FRIGORIFICO SAO GREGORIO LTDA           092091891000823ASUN COMERCIO DE GENEROS ALIMENTIC      R PADRE CHAGAS 710                      GRAVATAI                                94075080RS37007000080079696520683/1     12072012015PORTO ALEGRE        1208201200000000000901028CC                                                                                                                                                                                                                                                                                                                                                                                                         000069
1032421023773COBR_CAUC_BIC  FRIGORIFICO SAO GREGORIO LTDA           092091891000823ASUN COMERCIO DE GENEROS ALIMENTIC      R PADRE CHAGAS 710                      GRAVATAI                                94075080RS37007000090079697321047/1     12072012015PORTO ALEGRE        1208201200000000000986881CC                                                                                                                                                                                                                                                                                                                                                                                                         000070
1032421023773COBR_CAUC_BIC  FRIGORIFICO SAO GREGORIO LTDA           092091891000823ASUN COMERCIO DE GENEROS ALIMENTIC      R PADRE CHAGAS 710                      GRAVATAI                                94075080RS37007000100079698121456/1     12072012015PORTO ALEGRE        1208201200000000000988033CC                                                                                                                                                                                                                                                                                                                                                                                                         000071
1032421023773COBR_CAUC_BIC  FRIGORIFICO SAO GREGORIO LTDA           092091891000823ASUN COMERCIO DE GENEROS ALIMENTIC      R PADRE CHAGAS 710                      GRAVATAI                                94075080RS370070001100796990210631/1    12072012015PORTO ALEGRE        1208201200000000001514059CC                                                                                                                                                                                                                                                                                                                                                                                                         000072
1032421023773COBR_CAUC_BIC  FRIGORIFICO SAO GREGORIO LTDA           092091891000823ASUN COMERCIO DE GENEROS ALIMENTIC      R PADRE CHAGAS 710                      GRAVATAI                                94075080RS37007000120079703116616/1     12072012015PORTO ALEGRE        0908201200000000000376998CC                                                                                                                                                                                                                                                                                                                                                                                                         000073
1032421023773COBR_CAUC_BIC  FRIGORIFICO SAO GREGORIO LTDA           092091891000823ASUN COMERCIO DE GENEROS ALIMENTIC      R PADRE CHAGAS 710                      GRAVATAI                                94075080RS37007000130079704016617/1     12072012015PORTO ALEGRE        0908201200000000000524234CC                                                                                                                                                                                                                                                                                                                                                                                                         000074
1032421023773COBR_CAUC_BIC  FRIGORIFICO SAO GREGORIO LTDA           092091891000823ASUN COMERCIO DE GENEROS ALIMENTIC      R PADRE CHAGAS 710                      GRAVATAI                                94075080RS37007000140080412721984/1     12072012015PORTO ALEGRE        0908201200000000000608312CC                                                                                                                                                                                                                                                                                                                                                                                                         000075
1032421023773COBR_CAUC_BIC  FRIGORIFICO SAO GREGORIO LTDA           092091891000823ASUN COMERCIO DE GENEROS ALIMENTIC      R PADRE CHAGAS 710                      GRAVATAI                                94075080RS37007000150080940422105/1     16072012015PORTO ALEGRE        1308201200000000000149331CC                                                                                                                                                                                                                                                                                                                                                                                                         000076
1032421023773COBR_CAUC_BIC  FRIGORIFICO SAO GREGORIO LTDA           092091891000823ASUN COMERCIO DE GENEROS ALIMENTIC      R PADRE CHAGAS 710                      GRAVATAI                                94075080RS37007000160080941222106/1     16072012015PORTO ALEGRE        1308201200000000000176863CC                                                                                                                                                                                                                                                                                                                                                                                                         000077
1032421023773COBR_CAUC_BIC  FRIGORIFICO SAO GREGORIO LTDA           092091891000823ASUN COMERCIO DE GENEROS ALIMENTIC      R PADRE CHAGAS 710                      GRAVATAI                                94075080RS37007000170080942122115/1     16072012015PORTO ALEGRE        1308201200000000000345536CC                                                                                                                                                                                                                                                                                                                                                                                                         000078
1032421023773COBR_CAUC_BIC  FRIGORIFICO SAO GREGORIO LTDA           092091891000823ASUN COMERCIO DE GENEROS ALIMENTIC      R PADRE CHAGAS 710                      GRAVATAI                                94075080RS37007000180080943922117/1     16072012015PORTO ALEGRE        1308201200000000000282574CC                                                                                                                                                                                                                                                                                                                                                                                                         000079
1032421023773COBR_CAUC_BIC  FRIGORIFICO SAO GREGORIO LTDA           092091891000823ASUN COMERCIO DE GENEROS ALIMENTIC      R PADRE CHAGAS 710                      GRAVATAI                                94075080RS37007000190080945522120/1     16072012015PORTO ALEGRE        1308201200000000000271870CC                                                                                                                                                                                                                                                                                                                                                                                                         000080
1032421023773COBR_CAUC_BIC  FRIGORIFICO SAO GREGORIO LTDA           092091891000823ASUN COMERCIO DE GENEROS ALIMENTIC      R PADRE CHAGAS 710                      GRAVATAI                                94075080RS37007000200080946322121/1     16072012015PORTO ALEGRE        1308201200000000000358096CC                                                                                                                                                                                                                                                                                                                                                                                                         000081
1032421023773COBR_CAUC_BIC  FRIGORIFICO SAO GREGORIO LTDA           092091891000823ASUN COMERCIO DE GENEROS ALIMENTIC      R PADRE CHAGAS 710                      GRAVATAI                                94075080RS37007000210080947122122/1     16072012015PORTO ALEGRE        1308201200000000000641049CC                                                                                                                                                                                                                                                                                                                                                                                                         000082
1032421023773COBR_CAUC_BIC  FRIGORIFICO SAO GREGORIO LTDA           092091891000823ASUN COMERCIO DE GENEROS ALIMENTIC      R PADRE CHAGAS 710                      GRAVATAI                                94075080RS37007000220081546322264/1     19072012015PORTO ALEGRE        1608201200000000000896483CC                                                                                                                                                                                                                                                                                                                                                                                                         000083
1032421023773COBR_CAUC_BIC  FRIGORIFICO SAO GREGORIO LTDA           092091891000823ASUN COMERCIO DE GENEROS ALIMENTIC      R PADRE CHAGAS 710                      GRAVATAI                                94075080RS37007000230081549822250/1     19072012015PORTO ALEGRE        1608201200000000000465471CC                                                                                                                                                                                                                                                                                                                                                                                                         000084
1032421023773COBR_CAUC_BIC  FRIGORIFICO SAO GREGORIO LTDA           092091891000823ASUN COMERCIO DE GENEROS ALIMENTIC      R PADRE CHAGAS 710                      GRAVATAI                                94075080RS37007000240081550122251/1     19072012015PORTO ALEGRE        1608201200000000000723842CC                                                                                                                                                                                                                                                                                                                                                                                                         000085
1032421023773COBR_CAUC_BIC  FRIGORIFICO SAO GREGORIO LTDA           092091891000823ASUN COMERCIO DE GENEROS ALIMENTIC      R PADRE CHAGAS 710                      GRAVATAI                                94075080RS37007000250081551022252/1     19072012015PORTO ALEGRE        1608201200000000000550605CC                                                                                                                                                                                                                                                                                                                                                                                                         000086
1032421023773COBR_CAUC_BIC  FRIGORIFICO SAO GREGORIO LTDA           092091891000823ASUN COMERCIO DE GENEROS ALIMENTIC      R PADRE CHAGAS 710                      GRAVATAI                                94075080RS37007000260081553622254/1     19072012015PORTO ALEGRE        1608201200000000000872240CC                                                                                                                                                                                                                                                                                                                                                                                                         000087
1032421023773COBR_CAUC_BIC  FRIGORIFICO SAO GREGORIO LTDA           092091891000823ASUN COMERCIO DE GENEROS ALIMENTIC      R PADRE CHAGAS 710                      GRAVATAI                                94075080RS37007000270082218422263/1     19072012015PORTO ALEGRE        1608201200000000001425393CC                                                                                                                                                                                                                                                                                                                                                                                                         000088
1032421023773COBR_CAUC_BIC  FRIGORIFICO SAO GREGORIO LTDA           092091891000823ASUN COMERCIO DE GENEROS ALIMENTIC      R PADRE CHAGAS 710                      GRAVATAI                                94075080RS37007000280082917122381/1     23072012015PORTO ALEGRE        2008201200000000000374309CC                                                                                                                                                                                                                                                                                                                                                                                                         000089
1032421023773COBR_CAUC_BIC  FRIGORIFICO SAO GREGORIO LTDA           092091891000823ASUN COMERCIO DE GENEROS ALIMENTIC      R PADRE CHAGAS 710                      GRAVATAI                                94075080RS37007000290082918922382/1     23072012015PORTO ALEGRE        2008201200000000000350112CC                                                                                                                                                                                                                                                                                                                                                                                                         000090
1032421023773COBR_CAUC_BIC  FRIGORIFICO SAO GREGORIO LTDA           092091891000823ASUN COMERCIO DE GENEROS ALIMENTIC      R PADRE CHAGAS 710                      GRAVATAI                                94075080RS37007000300082919722395/1     23072012015PORTO ALEGRE        2008201200000000000236622CC                                                                                                                                                                                                                                                                                                                                                                                                         000091
1032421023773COBR_CAUC_BIC  FRIGORIFICO SAO GREGORIO LTDA           092091891000823ASUN COMERCIO DE GENEROS ALIMENTIC      R PADRE CHAGAS 710                      GRAVATAI                                94075080RS37007000310082920122396/1     23072012015PORTO ALEGRE        2008201200000000000356764CC                                                                                                                                                                                                                                                                                                                                                                                                         000092
1032421023773COBR_CAUC_COR  FRIGORIFICO SAO GREGORIO LTDA           005877589000124ALIANZ IND E COM DE CARNES LTDA         ESTRADA RG 460                          RIO GRANDE                              96207070RS37008000010079541116561/1     11072012800UNIBANCO S/A        0808201200000000002702937CC                                                                                                                                                                                                                                                                                                                                                                                                         000093
1032421023773COBR_CAUC_COR  FRIGORIFICO SAO GREGORIO LTDA           005877589000124ALIANZ IND E COM DE CARNES LTDA         ESTRADA RG 460                          RIO GRANDE                              96207070RS37008000020079543810371/1     11072012800UNIBANCO S/A        1508201200000000001669400CC                                                                                                                                                                                                                                                                                                                                                                                                         000094
1032421023773COBR_CAUC_COR  FRIGORIFICO SAO GREGORIO LTDA           005877589000124ALIANZ IND E COM DE CARNES LTDA         ESTRADA RG 460                          RIO GRANDE                              96207070RS37008000030079544615732/1     11072012800UNIBANCO S/A        1408201200000000002271120CC                                                                                                                                                                                                                                                                                                                                                                                                         000095
1032421023773COBR_CAUC_COR  FRIGORIFICO SAO GREGORIO LTDA           005877589000124ALIANZ IND E COM DE CARNES LTDA         ESTRADA RG 460                          RIO GRANDE                              96207070RS37008000040080749516698/1     16072012800UNIBANCO S/A        1608201200000000001594352CC                                                                                                                                                                                                                                                                                                                                                                                                         000096
1032421023773COBR_CAUC_COR  FRIGORIFICO SAO GREGORIO LTDA           005877589000124ALIANZ IND E COM DE CARNES LTDA         ESTRADA RG 460                          RIO GRANDE                              96207070RS37008000050081380116798/1     18072012800UNIBANCO S/A        1808201200000000004272056CC                                                                                                                                                                                                                                                                                                                                                                                                         000097
1032421023773COBR_CAUC_COR  FRIGORIFICO SAO GREGORIO LTDA           005877589000124ALIANZ IND E COM DE CARNES LTDA         ESTRADA RG 460                          RIO GRANDE                              96207070RS37008000060081390822192/1     17072012800UNIBANCO S/A        1408201200000000000056900CC                                                                                                                                                                                                                                                                                                                                                                                                         000098
1032421023773COBR_CAUC_COR  FRIGORIFICO SAO GREGORIO LTDA           005877589000124ALIANZ IND E COM DE CARNES LTDA         ESTRADA RG 460                          RIO GRANDE                              96207070RS37008000070081562516788/1     19072012800UNIBANCO S/A        1808201200000000002136028CC                                                                                                                                                                                                                                                                                                                                                                                                         000099
1032421023773COBR_CAUC_COR  FRIGORIFICO SAO GREGORIO LTDA           005877589000124ALIANZ IND E COM DE CARNES LTDA         ESTRADA RG 460                          RIO GRANDE                              96207070RS37008000080083214716798/1     25072012800UNIBANCO S/A        2508201200000000002136028CC                                                                                                                                                                                                                                                                                                                                                                                                         000100
1032421023773COBR_CAUC_COR  FRIGORIFICO SAO GREGORIO LTDA           005877589000124ALIANZ IND E COM DE CARNES LTDA         ESTRADA RG 460                          RIO GRANDE                              96207070RS37008000090083218017153/1     25072012800UNIBANCO S/A        2208201200000000000691087CC                                                                                                                                                                                                                                                                                                                                                                                                         000101
1032421023773COBR_CAUC_BIC  FRIGORIFICO SAO GREGORIO LTDA           091444745000103FRIGORIFICO LAGOENSE                    RS 30,KM 76 76                          SANTO ANTONIO D                         95500000RS37009000010067429115065/1     12062012015PORTO ALEGRE        0908201200000000001221665CC                                                                                                                                                                                                                                                                                                                                                                                                         000102
1032421023773COBR_CAUC_BIC  FRIGORIFICO SAO GREGORIO LTDA           091444745000103FRIGORIFICO LAGOENSE                    RS 30,KM 76 76                          SANTO ANTONIO D                         95500000RS37009000020067432115090/1     12062012015PORTO ALEGRE        1308201200000000001816000CC                                                                                                                                                                                                                                                                                                                                                                                                         000103
1032421023773COBR_CAUC_BIC  FRIGORIFICO SAO GREGORIO LTDA           091444745000103FRIGORIFICO LAGOENSE                    RS 30,KM 76 76                          SANTO ANTONIO D                         95500000RS370090000300674533150680/1    12062012015PORTO ALEGRE        0808201200000000001516721CC                                                                                                                                                                                                                                                                                                                                                                                                         000104
1032421023773COBR_CAUC_BIC  FRIGORIFICO SAO GREGORIO LTDA           007049310000140ZIMMERMANN & AGNES COM DE ALIMENTO      RUA IMACULADA CONCEICAO 452             CAMPO BOM                               93700000RS370100000100807282129/1       16072012015PORTO ALEGRE        0608201200000000000300000CC                                                                                                                                                                                                                                                                                                                                                                                                         000105
1032421023773COBR_CAUC_BIC  FRIGORIFICO SAO GREGORIO LTDA           007049310000140ZIMMERMANN & AGNES COM DE ALIMENTO      RUA IMACULADA CONCEICAO 452             CAMPO BOM                               93700000RS370100000200807291130/1       16072012015PORTO ALEGRE        1308201200000000000300000CC                                                                                                                                                                                                                                                                                                                                                                                                         000106
1032421023773COBR_CAUC_BIC  FRIGORIFICO SAO GREGORIO LTDA           007049310000140ZIMMERMANN & AGNES COM DE ALIMENTO      RUA IMACULADA CONCEICAO 452             CAMPO BOM                               93700000RS370100000300807304131/1       16072012015PORTO ALEGRE        2008201200000000000300000CC                                                                                                                                                                                                                                                                                                                                                                                                         000107
1032421023773COBR_CAUC_BIC  FRIGORIFICO SAO GREGORIO LTDA           007049310000140ZIMMERMANN & AGNES COM DE ALIMENTO      RUA IMACULADA CONCEICAO 452             CAMPO BOM                               93700000RS370100000400807312132/1       16072012015PORTO ALEGRE        2708201200000000000300000CC                                                                                                                                                                                                                                                                                                                                                                                                         000108
1032421023773COBR_CAUC_BIC  FRIGORIFICO SAO GREGORIO LTDA           007049310000140ZIMMERMANN & AGNES COM DE ALIMENTO      RUA IMACULADA CONCEICAO 452             CAMPO BOM                               93700000RS370100000500807321133/1       16072012015PORTO ALEGRE        0309201200000000000300000CC                                                                                                                                                                                                                                                                                                                                                                                                         000109
1032421023773COBR_CAUC_BIC  FRIGORIFICO SAO GREGORIO LTDA           007049310000140ZIMMERMANN & AGNES COM DE ALIMENTO      RUA IMACULADA CONCEICAO 452             CAMPO BOM                               93700000RS370100000600807339134/1       16072012015PORTO ALEGRE        1009201200000000000300000CC                                                                                                                                                                                                                                                                                                                                                                                                         000110
1032421023773COBR_CAUC_BIC  FRIGORIFICO SAO GREGORIO LTDA           007049310000140ZIMMERMANN & AGNES COM DE ALIMENTO      RUA IMACULADA CONCEICAO 452             CAMPO BOM                               93700000RS370100000700807347135/1       16072012015PORTO ALEGRE        1709201200000000000300000CC                                                                                                                                                                                                                                                                                                                                                                                                         000111
1032421023773COBR_CAUC_BIC  FRIGORIFICO SAO GREGORIO LTDA           007049310000140ZIMMERMANN & AGNES COM DE ALIMENTO      RUA IMACULADA CONCEICAO 452             CAMPO BOM                               93700000RS370100000800807355136/1       16072012015PORTO ALEGRE        2409201200000000000300000CC                                                                                                                                                                                                                                                                                                                                                                                                         000112
1032421023773COBR_CAUC_BIC  FRIGORIFICO SAO GREGORIO LTDA           007049310000140ZIMMERMANN & AGNES COM DE ALIMENTO      RUA IMACULADA CONCEICAO 452             CAMPO BOM                               93700000RS370100000900807363137/1       16072012015PORTO ALEGRE        0110201200000000000300000CC                                                                                                                                                                                                                                                                                                                                                                                                         000113
1032421023773COBR_CAUC_BIC  FRIGORIFICO SAO GREGORIO LTDA           007049310000140ZIMMERMANN & AGNES COM DE ALIMENTO      RUA IMACULADA CONCEICAO 452             CAMPO BOM                               93700000RS370100001000807371138/1       16072012015PORTO ALEGRE        0810201200000000000300000CC                                                                                                                                                                                                                                                                                                                                                                                                         000114
1032421023773COBR_CAUC_BIC  FRIGORIFICO SAO GREGORIO LTDA           007049310000140ZIMMERMANN & AGNES COM DE ALIMENTO      RUA IMACULADA CONCEICAO 452             CAMPO BOM                               93700000RS370100001100807380139/1       16072012015PORTO ALEGRE        1510201200000000000300000CC                                                                                                                                                                                                                                                                                                                                                                                                         000115
1032421023773COBR_CAUC_BIC  FRIGORIFICO SAO GREGORIO LTDA           007049310000140ZIMMERMANN & AGNES COM DE ALIMENTO      RUA IMACULADA CONCEICAO 452             CAMPO BOM                               93700000RS370100001200807398140/1       16072012015PORTO ALEGRE        2210201200000000000300000CC                                                                                                                                                                                                                                                                                                                                                                                                         000116
1032421023773COBR_CAUC_BIC  FRIGORIFICO SAO GREGORIO LTDA           007049310000140ZIMMERMANN & AGNES COM DE ALIMENTO      RUA IMACULADA CONCEICAO 452             CAMPO BOM                               93700000RS370100001300807401142/1       16072012015PORTO ALEGRE        2910201200000000000300000CC                                                                                                                                                                                                                                                                                                                                                                                                         000117
1032421023773COBR_CAUC_BIC  FRIGORIFICO SAO GREGORIO LTDA           007049310000140ZIMMERMANN & AGNES COM DE ALIMENTO      RUA IMACULADA CONCEICAO 452             CAMPO BOM                               93700000RS370100001400807410143/1       16072012015PORTO ALEGRE        0511201200000000000311414CC                                                                                                                                                                                                                                                                                                                                                                                                         000118
1032421023773COBR_CAUC_BIC  FRIGORIFICO SAO GREGORIO LTDA           007049310000140ZIMMERMANN & AGNES COM DE ALIMENTO      RUA IMACULADA CONCEICAO 452             CAMPO BOM                               93700000RS37010000150081388622165/1     17072012015PORTO ALEGRE        0708201200000000000172781CC                                                                                                                                                                                                                                                                                                                                                                                                         000119
1032421023773COBR_CAUC_BIC  FRIGORIFICO SAO GREGORIO LTDA           007049310000140ZIMMERMANN & AGNES COM DE ALIMENTO      RUA IMACULADA CONCEICAO 452             CAMPO BOM                               93700000RS37010000160081389422165/2     17072012015PORTO ALEGRE        1408201200000000000172782CC                                                                                                                                                                                                                                                                                                                                                                                                         000120
1032421023773COBR_CAUC_COR  FRIGORIFICO SAO GREGORIO LTDA           000551198000100MARIO ANTONIO RAMOS ME                  RUA JOSE BONIFACIO PIRES 2284           SAO JOAO DO ITA                         88395000SC37011000010081381970229/1     18072012800UNIBANCO S/A        1708201200000000004713080CC                                                                                                                                                                                                                                                                                                                                                                                                         000121
1032421023773COBR_CAUC_COR  FRIGORIFICO SAO GREGORIO LTDA           085077030000159MERCADO DONEDA LTDA                     RUA CHAPECO 2                           LAURO MULLER                            88880000SC37012000010067448769768/1     12062012800UNIBANCO S/A        0608201200000000000787123CC                                                                                                                                                                                                                                                                                                                                                                                                         000122
1032421023773COBR_CAUC_COR  FRIGORIFICO SAO GREGORIO LTDA           085077030000159MERCADO DONEDA LTDA                     RUA CHAPECO 2                           LAURO MULLER                            88880000SC37012000020067449569796/1     12062012800UNIBANCO S/A        0508201200000000000708544CC                                                                                                                                                                                                                                                                                                                                                                                                         000123
1032421023773COBR_CAUC_COR  FRIGORIFICO SAO GREGORIO LTDA           085077030000159MERCADO DONEDA LTDA                     RUA CHAPECO 2                           LAURO MULLER                            88880000SC37012000030067858015353/1     13062012800UNIBANCO S/A        1008201200000000001532600CC                                                                                                                                                                                                                                                                                                                                                                                                         000124
1032421023773COBR_CAUC_COR  FRIGORIFICO SAO GREGORIO LTDA           085077030000159MERCADO DONEDA LTDA                     RUA CHAPECO 2                           LAURO MULLER                            88880000SC37012000040070887021044/1     21062012900UNIBANCO S/A        1508201200000000000743759CC                                                                                                                                                                                                                                                                                                                                                                                                         000125
1032421023773COBR_CAUC_COR  FRIGORIFICO SAO GREGORIO LTDA           085077030000159MERCADO DONEDA LTDA                     RUA CHAPECO 2                           LAURO MULLER                            88880000SC37012000050070888821044/2     21062012900UNIBANCO S/A        1608201200000000000743759CC                                                                                                                                                                                                                                                                                                                                                                                                         000126
1032421023773COBR_CAUC_COR  FRIGORIFICO SAO GREGORIO LTDA           085077030000159MERCADO DONEDA LTDA                     RUA CHAPECO 2                           LAURO MULLER                            88880000SC37012000060070889621063/1     21062012900UNIBANCO S/A        2008201200000000001514059CC                                                                                                                                                                                                                                                                                                                                                                                                         000127
9000014                                                                                                                                                                                                                                                                                                                                                                                                                                                                                                                                                                                                                                                                                                               000128
