0REMESSANOTIFICACAO ELETRONICA        99999999999999BICBANCO                                AV. PAULISTA                            1048      12.ANDAR  BELA VISTA                    SAO PAULO                     01310100SP1121739360CORTINHAL                               COORDENADOR                             01102012                                                                                                                                                                                                                                                                                                                                                                                      000001
1038421019619COBR_CAUC_COR  TOME EQUIPAMENTOS E TRANSPORTES S.A     008528337000188WIND POWER ENERGIA S/A                  EST.TRONCO DIST.RODOV.KM 3,3            SALVADOR                                54590000BA38066000010987049831249/A     08082012900BRADESCO S/A        2612201200000000025451610CC                                                                                                                                                                                                                                                                                                                                                                                                         000002
1038421019619COBR_CAUC_COR  TOME EQUIPAMENTOS E TRANSPORTES S.A     008528337000188WIND POWER ENERGIA S/A                  EST.TRONCO DIST.RODOV.KM 3,3            SALVADOR                                54590000BA38066000020987050131258/A     08082012900BRADESCO S/A        2612201200000000050903220CC                                                                                                                                                                                                                                                                                                                                                                                                         000003
1038421019619COBR_CAUC_COR  TOME EQUIPAMENTOS E TRANSPORTES S.A     008528337000188WIND POWER ENERGIA S/A                  EST.TRONCO DIST.RODOV.KM 3,3            SALVADOR                                54590000BA38066000030987051031260/A     21082012900BRADESCO S/A        2612201200000000025451610CC                                                                                                                                                                                                                                                                                                                                                                                                         000004
1038421019619COBR_CAUC_COR  TOME EQUIPAMENTOS E TRANSPORTES S.A     008528337000188WIND POWER ENERGIA S/A                  EST.TRONCO DIST.RODOV.KM 3,3            SALVADOR                                54590000BA38066000040987052831290/A     21082012900BRADESCO S/A        2612201200000000044311823CC                                                                                                                                                                                                                                                                                                                                                                                                         000005
1038421019619COBR_CAUC_COR  TOME EQUIPAMENTOS E TRANSPORTES S.A     008528337000188WIND POWER ENERGIA S/A                  EST.TRONCO DIST.RODOV.KM 3,3            SALVADOR                                54590000BA38066000050987054431299/A     29082012900BRADESCO S/A        2612201200000000018860213CC                                                                                                                                                                                                                                                                                                                                                                                                         000006
1038421019619COBR_CAUC_COR  TOME EQUIPAMENTOS E TRANSPORTES S.A     008528337000188WIND POWER ENERGIA S/A                  EST.TRONCO DIST.RODOV.KM 3,3            SALVADOR                                54590000BA38066000060987055231300/A     31082012900BRADESCO S/A        2612201200000000025451610CC                                                                                                                                                                                                                                                                                                                                                                                                         000007
1038421019619COBR_CAUC_COR  TOME EQUIPAMENTOS E TRANSPORTES S.A     008528337000188WIND POWER ENERGIA S/A                  EST.TRONCO DIST.RODOV.KM 3,3            SALVADOR                                54590000BA38066000070987056131307/A     31082012900BRADESCO S/A        2612201200000000032043007CC                                                                                                                                                                                                                                                                                                                                                                                                         000008
1038421019619COBR_CAUC_COR  TOME EQUIPAMENTOS E TRANSPORTES S.A     008528337000188WIND POWER ENERGIA S/A                  EST.TRONCO DIST.RODOV.KM 3,3            SALVADOR                                54590000BA38066000080987057931308/A     31082012900BRADESCO S/A        2612201200000000018860213CC                                                                                                                                                                                                                                                                                                                                                                                                         000009
1016421001333COBR_CAUC_COR  CONDUSPAR CONDUTORES ELETRICOS LTDA     014568575000110C V HILGERT MAQUINAS E IMPLEMENTOS      AV MARECHAL RONDON, 1327                JI-PARANA                               76900101RO380670000103717991258095      24092012600HSBC BANK BRASIL    0511201200000000011647525CC                                                                                                                                                                                                                                                                                                                                                                                                         000010
1016421001333COBR_CAUC_COR  CONDUSPAR CONDUTORES ELETRICOS LTDA     014568575000110C V HILGERT MAQUINAS E IMPLEMENTOS      AV MARECHAL RONDON, 1327                JI-PARANA                               76900101RO380670000203718008258095      24092012600HSBC BANK BRASIL    1211201200000000011647525CC                                                                                                                                                                                                                                                                                                                                                                                                         000011
1016421001333COBR_CAUC_COR  CONDUSPAR CONDUTORES ELETRICOS LTDA     014568575000110C V HILGERT MAQUINAS E IMPLEMENTOS      AV MARECHAL RONDON, 1327                JI-PARANA                               76900101RO380670000303718016258096      24092012600HSBC BANK BRASIL    2910201200000000011673225CC                                                                                                                                                                                                                                                                                                                                                                                                         000012
1016421001333COBR_CAUC_COR  CONDUSPAR CONDUTORES ELETRICOS LTDA     014568575000110C V HILGERT MAQUINAS E IMPLEMENTOS      AV MARECHAL RONDON, 1327                JI-PARANA                               76900101RO380670000403718024258096      24092012600HSBC BANK BRASIL    0511201200000000011673225CC                                                                                                                                                                                                                                                                                                                                                                                                         000013
1016421001333COBR_CAUC_COR  CONDUSPAR CONDUTORES ELETRICOS LTDA     014568575000110C V HILGERT MAQUINAS E IMPLEMENTOS      AV MARECHAL RONDON, 1327                JI-PARANA                               76900101RO380670000503718032258096      24092012600HSBC BANK BRASIL    1211201200000000011673225CC                                                                                                                                                                                                                                                                                                                                                                                                         000014
1031421009896COBR_CAUC_COR  LATICINIOS LATCO LTDA                   003418509000147OCEANICA COMERCIO GENEROS ALIMENT.      RODOVIA PR 323 KM 310 LOTE 14           UMUARAMA                                87507013PR380680000101000592113477/1    27092012900BRADESCO S/A        0410201200000000011636845CC                                                                                                                                                                                                                                                                                                                                                                                                         000015
1031421009896COBR_CAUC_COR  LATICINIOS LATCO LTDA                   003418509000147OCEANICA COMERCIO GENEROS ALIMENT.      RODOVIA PR 323 KM 310 LOTE 14           UMUARAMA                                87507013PR380680000201000886113516/1    27092012900BRADESCO S/A        0410201200000000010744897CC                                                                                                                                                                                                                                                                                                                                                                                                         000016
1018421031207COBR_CAUC_BIC  CEREAL COM EXP REP AGROPECUARIA LTD     002918654000124CENTRO OESTE RACOES S/A                 VIA VP 6 LOTE E,0                       ANAPOLIS                                75133600GO38069000010291309173908       27092012018GOIANIA             2010201200000000023400000CC                                                                                                                                                                                                                                                                                                                                                                                                         000017
1016421000809COBR_CAUC_COR  LOGIKA DISTRIBUIDORA COSMETICOS LTD     005997742000408UNIMARKA DISTRIBIDORA S/A               ROD CONEGO JOAO BATISTA GUILHERME - KM19COLATINA                                29705100ES3807000001037176300026986/01  27092012900BRADESCO S/A        2611201200000000028003320CC                                                                                                                                                                                                                                                                                                                                                                                                         000018
1016421000809COBR_CAUC_COR  LOGIKA DISTRIBUIDORA COSMETICOS LTD     082873068000140GENESIO A MENDES & CIA LTDA             AV PATROCINIO LIMA, 310                 TUBARAO                                 88704410SC3807100001037176210026985/01  27092012900BRADESCO S/A        1111201200000000014998344CC                                                                                                                                                                                                                                                                                                                                                                                                         000019
1020421001857COBR_CAUC_COR  BRASALPLA BRASIL IND DE EMBALAG LTD     060409075002953NESTLE BRASIL LTD                       ROD MARECHAL RONDON, KM 531             ARACATUBA                               16021900SP3807200001000011593  049878   20092012900BRADESCO S/A        1911201200000000010766002CC                                                                                                                                                                                                                                                                                                                                                                                                         000020
9000007                                                                                                                                                                                                                                                                                                                                                                                                                                                                                                                                                                                                                                                                                                               000021
