0REMESSANOTIFICACAO ELETRONICA        99999999999999BICBANCO                                AV. PAULISTA                            1048      12.ANDAR  BELA VISTA                    SAO PAULO                     01310100SP1121739360CORTINHAL                               COORDENADOR                             14022012                                                                                                                                                                                                                                                                                                                                                                                      000001
1022421000784DIR_CREDIT     INFRAPAR PARTICIPACOES S/A              056024581000156PM DE RIBEIRAO PRETO                    PçA BARãO DO RIO BRANCO, S/N            RIBEIRãO PRETO                          14055580SP3386200001                                                                                                                                          011759756           250220100000012315034/2010    10022012000401Execução da 1º etapa(PAC)Programa de Aceleração do Crescimento-Reforma e ampliação da Seção de Canalização do Córrego Ribeirão Preto e Laureano,    - localizado entre as ruas General Osório e proximidades da Rua Lafaiate-RP.                055979264000120              000002
1009420930764COBR_CAUC_BIC  S/A CORREIO BRAZILIENSE                 004104117000176NISSAN DO BRASIL AUTOMOVEIS LTDA        AVENIDA RENAULT,1300-PARTE BORDA DO CAMPSAO JOSE DOS PI                         83070900PR338670000101372089431704-1    13022012016CURITIBA            2902201200000000010542355CC                                                                                                                                                                                                                                                                                                                                                                                                         000003
1007421053971COBR_CAUC_BIC  VIDA ALIMENTOS LTDA                     011457034000126GOOD MEAL COM E TRANSP DE PROD ALI      RUA ARARIPE, 206                        SAO PAULO                               03215010SP3386800001010738410004023701  10022012007PAULISTA            2802201200000000040662000CC                                                                                                                                                                                                                                                                                                                                                                                                         000004
1014421008439COBR_CAUC_BIC  TV OMEGA LTDA                           030278428000161L´Oreal Brasil Comercial de Cosmét      Av. Juscelino Kubitschek  - 4º an1830   SãoPaulo                                04543900SP33869000010450508801147101    13022012007PAULISTA            0505201200000000012949200CC                                                                                                                                                                                                                                                                                                                                                                                                         000005
1007421034080COBR_CAUC_BIC  SIDMEX INTERNACIONAL LTDA               057580656000148METALURGICA MARDEL LTDA                 PEDRO RIPOLI,624                        RIBEIRAO PIRES                          09407100SP3387000001010717171319.11A    13022012038ABC                 1005201200000000026360229CC                                                                                                                                                                                                                                                                                                                                                                                                         000006
1032421019512COBR_CAUC_BIC  GEOTESC FUNDACOES LTDA                  003015145000154CAPITAL REALTY INFRA-ESTRUTURA LOG      AV. JOAO GUALBERTO ,1259-2 ANDAR        CURITIBA                                80030001PR3387100001002840002242.1      10022012016CURITIBA            1303201200000000039614400CC                                                                                                                                                                                                                                                                                                                                                                                                         000007
1032421019512COBR_CAUC_BIC  GEOTESC FUNDACOES LTDA                  003015145000154CAPITAL REALTY INFRA-ESTRUTURA LOG      AV. JOAO GUALBERTO ,1259-2 ANDAR        CURITIBA                                80030001PR3387100002002840182242.2      10022012016CURITIBA            2303201200000000041265000CC                                                                                                                                                                                                                                                                                                                                                                                                         000008
1024421005278DIR_CREDIT     ELMA ENGENHARIA CONSTR E COM LTDA       004603701000176SECRETARIA DE ESTADO DE INFRA ESTRUTURA CENTRO POLITICO ADMINISTRATIVO          CUIABÁ                                  78049906MT3387200001                                                                                                                                          481008303           010220080000008639003/2008/00/18072011000404Ampliação e pavimentação do Aeroporto do Município de Matupá-MT.                                                                                                                                                                                024600447000160              000009
9000007                                                                                                                                                                                                                                                                                                                                                                                                                                                                                                                                                                                                                                                                                                               000010
