0REMESSANOTIFICACAO ELETRONICA        99999999999999BICBANCO                                AV. PAULISTA                            1048      12.ANDAR  BELA VISTA                    SAO PAULO                     01310100SP1121739360CORTINHAL                               COORDENADOR                             17072014                                                                                                                                                                                                                                                                                                                                                                                      000001
1031421012447COBR_CAUC_COR  AGRICOLA JANDELLE S/A                   001928075002062DMA DISTRIBUIDORA S/A                   RODOVIA BR 040 KM 531 180               BELO HORIZONTE                          30855500MG4848300001030011890015227701  15072014900BRADESCO S/A        1408201400000000013403915CC                                                                                                                                                                                                                                                                                                                                                                                                         000002
1050421000089COBR_CAUC_COR  ATIVO ALIMENTOS EXP E IMP EIRELI        027497684000135FRISA FRIGORIFICO RIO DOCE SA           R FIORAVANTE ROSSI 4000                 COLATINA                                29704700ES484840000100593191262309/1    15072014600HSBC BANK BRASIL    1208201400000000014788500CC                                                                                                                                                                                                                                                                                                                                                                                                         000003
1021421017050COBR_CAUC_BIC  STAR DISTR PROD FARMACEUTICOS LTDA      061585865073701RAIA DROGASIL S/A                       RUA PATAXOS , 1412                      EMBU                                    06833073SP4848500001000030810000359101  11072014007PAULISTA            2507201400000000017957623CC                                                                                                                                                                                                                                                                                                                                                                                                         000004
1021421017352COBR_CAUC_BIC  STAR DISTR PROD FARMACEUTICOS LTDA      061585865073701RAIA DROGASIL S/A                       RUA PATAXOS , 1412                      EMBU                                    06833073SP4848600001000004650000360801  16072014007PAULISTA            3007201400000000020802049CC                                                                                                                                                                                                                                                                                                                                                                                                         000005
9000004                                                                                                                                                                                                                                                                                                                                                                                                                                                                                                                                                                                                                                                                                                               000006
