0REMESSANOTIFICACAO ELETRONICA        99999999999999BICBANCO                                AV. PAULISTA                            1048      12.ANDAR  BELA VISTA                    SAO PAULO                     01310100SP1121739360CORTINHAL                               COORDENADOR                             29112012                                                                                                                                                                                                                                                                                                                                                                                      000001
1050421002855COBR_CAUC_COR  C F SANTOS COM DE ALIMENTOS LTDA        004899316000118IMIFARMA PRODUTOS FARMAC. E COSMET      TV QUINTINO BOCAIUVA 381,381            BELEM                                   66053240PA390130000100000174110452      28112012900BRADESCO S/A        0501201300000000011365093CC                                                                                                                                                                                                                                                                                                                                                                                                         000002
1031421009837COBR_CAUC_COR  DIPLOMATA S/A  INDL. E COMERCIAL        007534303000133COMAL COM. ATAC. DE ALIMENTOS LTDA      R MARIA GOMES DA SILVA 292 292          OLINDA                                  53370680PE3902900001050582850174194-03  04102012800UNIBANCO S/A        3011201200000000003337950CC                                                                                                                                                                                                                                                                                                                                                                                                         000003
1031421009837COBR_CAUC_COR  DIPLOMATA S/A  INDL. E COMERCIAL        007534303000133COMAL COM. ATAC. DE ALIMENTOS LTDA      R MARIA GOMES DA SILVA 292 292          OLINDA                                  53370680PE3902900002050582510174195-03  04102012800UNIBANCO S/A        3011201200000000000385770CC                                                                                                                                                                                                                                                                                                                                                                                                         000004
1031421009837COBR_CAUC_COR  DIPLOMATA S/A  INDL. E COMERCIAL        007534303000133COMAL COM. ATAC. DE ALIMENTOS LTDA      R MARIA GOMES DA SILVA 292 292          OLINDA                                  53370680PE3902900003051025430176301-01  08112012600UNIBANCO S/A        2612201200000000000420840CC                                                                                                                                                                                                                                                                                                                                                                                                         000005
1031421009837COBR_CAUC_COR  DIPLOMATA S/A  INDL. E COMERCIAL        007534303000133COMAL COM. ATAC. DE ALIMENTOS LTDA      R MARIA GOMES DA SILVA 292 292          OLINDA                                  53370680PE3902900004051025600176301-02  08112012600UNIBANCO S/A        3112201200000000000420840CC                                                                                                                                                                                                                                                                                                                                                                                                         000006
1031421009837COBR_CAUC_COR  DIPLOMATA S/A  INDL. E COMERCIAL        007534303000133COMAL COM. ATAC. DE ALIMENTOS LTDA      R MARIA GOMES DA SILVA 292 292          OLINDA                                  53370680PE3902900005051025860176301-03  08112012600UNIBANCO S/A        0401201300000000000420840CC                                                                                                                                                                                                                                                                                                                                                                                                         000007
1031421009837COBR_CAUC_COR  DIPLOMATA S/A  INDL. E COMERCIAL        007534303000133COMAL COM. ATAC. DE ALIMENTOS LTDA      R MARIA GOMES DA SILVA 292 292          OLINDA                                  53370680PE3902900006051025510176303-01  08112012600UNIBANCO S/A        3112201200000000000420840CC                                                                                                                                                                                                                                                                                                                                                                                                         000008
1031421009837COBR_CAUC_COR  DIPLOMATA S/A  INDL. E COMERCIAL        007534303000133COMAL COM. ATAC. DE ALIMENTOS LTDA      R MARIA GOMES DA SILVA 292 292          OLINDA                                  53370680PE3902900007051025780176303-02  08112012600UNIBANCO S/A        0401201300000000000420840CC                                                                                                                                                                                                                                                                                                                                                                                                         000009
1031421009837COBR_CAUC_COR  DIPLOMATA S/A  INDL. E COMERCIAL        007534303000133COMAL COM. ATAC. DE ALIMENTOS LTDA      R MARIA GOMES DA SILVA 292 292          OLINDA                                  53370680PE3902900008051025940176303-03  08112012600UNIBANCO S/A        0901201300000000000420840CC                                                                                                                                                                                                                                                                                                                                                                                                         000010
1031421009837COBR_CAUC_BIC  DIPLOMATA S/A  INDL. E COMERCIAL        001333984000195SEGALAS ALIMENTOS LTDA                  BR 470 N 4292                           BLUMENAU                                89070200SC3906400001050718260347645-01  16102012032BLUMENAU            2012201200000000007236000CC                                                                                                                                                                                                                                                                                                                                                                                                         000011
1031421009837COBR_CAUC_BIC  DIPLOMATA S/A  INDL. E COMERCIAL        015729989000146ADR DISTRIBUIDORA DE ALIMENTOS LTD      RUA CORONEL OLIVEIRA 39                 RECIFE                                  50830430PE3906300001050660080174677-01  10102012010RECIFE              0312201200000000002016120CC                                                                                                                                                                                                                                                                                                                                                                                                         000012
1031421009837COBR_CAUC_BIC  DIPLOMATA S/A  INDL. E COMERCIAL        015729989000146ADR DISTRIBUIDORA DE ALIMENTOS LTD      RUA CORONEL OLIVEIRA 39                 RECIFE                                  50830430PE3906300002050660160174677-02  10102012010RECIFE              0712201200000000002016120CC                                                                                                                                                                                                                                                                                                                                                                                                         000013
1031421009837COBR_CAUC_BIC  DIPLOMATA S/A  INDL. E COMERCIAL        015729989000146ADR DISTRIBUIDORA DE ALIMENTOS LTD      RUA CORONEL OLIVEIRA 39                 RECIFE                                  50830430PE3906300003050660240174677-03  10102012010RECIFE              1312201200000000002016120CC                                                                                                                                                                                                                                                                                                                                                                                                         000014
1031421009837COBR_CAUC_BIC  DIPLOMATA S/A  INDL. E COMERCIAL        009418012000105TREND COMERCIO DE PRODUTOS ALIMENT      RUA DOUTOR OSVALDO ANHERT 00            CAMPINAS                                13034195SP3906200001050512050344273-02  24092012021CAMPINAS            1001201300000000005940000CC                                                                                                                                                                                                                                                                                                                                                                                                         000015
1031421009837COBR_CAUC_BIC  DIPLOMATA S/A  INDL. E COMERCIAL        008969770000159RIO QUALITY COM. DE ALIM.LTDA           RUA HERCULANO PINHEIRO 1045 1045        RIO DE JANEIRO                          21532440RJ3906100001051102280351355-01  16112012014RIO DE JANEIRO      1712201200000000004897800CC                                                                                                                                                                                                                                                                                                                                                                                                         000016
1031421009837COBR_CAUC_BIC  DIPLOMATA S/A  INDL. E COMERCIAL        027833615000155PRINCESA AUTO SERV.COMESTIVEIS LTD      RUA DO FEIJAO, 684                      RIO DE JANEIRO                          21011050RJ3906000001050748250175758-01  25102012014RIO DE JANEIRO      0712201200000000004894290CC                                                                                                                                                                                                                                                                                                                                                                                                         000017
1031421009837COBR_CAUC_BIC  DIPLOMATA S/A  INDL. E COMERCIAL        008960738000102RJ INDUSTRIA COM E ARMAZ DE ALIMEN      RUA DA MATRIZ 274                       SALVADOR                                41300600BA3905900001050635130174575-03  09102012013SALVADOR            0112201200000000000365730CC                                                                                                                                                                                                                                                                                                                                                                                                         000018
1031421009837COBR_CAUC_BIC  DIPLOMATA S/A  INDL. E COMERCIAL        008960738000102RJ INDUSTRIA COM E ARMAZ DE ALIMEN      RUA DA MATRIZ 274                       SALVADOR                                41300600BA3905900002050635480174577-02  09102012013SALVADOR            0312201200000000000368736CC                                                                                                                                                                                                                                                                                                                                                                                                         000019
1031421009837COBR_CAUC_BIC  DIPLOMATA S/A  INDL. E COMERCIAL        008960738000102RJ INDUSTRIA COM E ARMAZ DE ALIMEN      RUA DA MATRIZ 274                       SALVADOR                                41300600BA3905900003050635640174577-03  09102012013SALVADOR            0712201200000000000368736CC                                                                                                                                                                                                                                                                                                                                                                                                         000020
1031421009837COBR_CAUC_BIC  DIPLOMATA S/A  INDL. E COMERCIAL        008960738000102RJ INDUSTRIA COM E ARMAZ DE ALIMEN      RUA DA MATRIZ 274                       SALVADOR                                41300600BA3905900004050635300346639-01  09102012013SALVADOR            3011201200000000000368736CC                                                                                                                                                                                                                                                                                                                                                                                                         000021
1031421009837COBR_CAUC_BIC  DIPLOMATA S/A  INDL. E COMERCIAL        008960738000102RJ INDUSTRIA COM E ARMAZ DE ALIMEN      RUA DA MATRIZ 274                       SALVADOR                                41300600BA3905900005050635560346639-02  09102012013SALVADOR            0612201200000000000368736CC                                                                                                                                                                                                                                                                                                                                                                                                         000022
1031421009837COBR_CAUC_BIC  DIPLOMATA S/A  INDL. E COMERCIAL        008960738000102RJ INDUSTRIA COM E ARMAZ DE ALIMEN      RUA DA MATRIZ 274                       SALVADOR                                41300600BA3905900006050635720346639-03  09102012013SALVADOR            1112201200000000000368736CC                                                                                                                                                                                                                                                                                                                                                                                                         000023
1031421009837COBR_CAUC_BIC  DIPLOMATA S/A  INDL. E COMERCIAL        008960738000102RJ INDUSTRIA COM E ARMAZ DE ALIMEN      RUA DA MATRIZ 274                       SALVADOR                                41300600BA3905900007050865560349954-01  01112012013SALVADOR            1412201200000000000352704CC                                                                                                                                                                                                                                                                                                                                                                                                         000024
1031421009837COBR_CAUC_BIC  DIPLOMATA S/A  INDL. E COMERCIAL        008960738000102RJ INDUSTRIA COM E ARMAZ DE ALIMEN      RUA DA MATRIZ 274                       SALVADOR                                41300600BA3905900008050865720349954-02  01112012013SALVADOR            2012201200000000000352704CC                                                                                                                                                                                                                                                                                                                                                                                                         000025
1031421009837COBR_CAUC_BIC  DIPLOMATA S/A  INDL. E COMERCIAL        008960738000102RJ INDUSTRIA COM E ARMAZ DE ALIMEN      RUA DA MATRIZ 274                       SALVADOR                                41300600BA3905900009050865990349954-03  01112012013SALVADOR            2512201200000000000352704CC                                                                                                                                                                                                                                                                                                                                                                                                         000026
1031421009837COBR_CAUC_BIC  DIPLOMATA S/A  INDL. E COMERCIAL        008960738000102RJ INDUSTRIA COM E ARMAZ DE ALIMEN      RUA DA MATRIZ 274                       SALVADOR                                41300600BA3905900010050865640349955-01  01112012013SALVADOR            1912201200000000000352704CC                                                                                                                                                                                                                                                                                                                                                                                                         000027
1031421009837COBR_CAUC_BIC  DIPLOMATA S/A  INDL. E COMERCIAL        008960738000102RJ INDUSTRIA COM E ARMAZ DE ALIMEN      RUA DA MATRIZ 274                       SALVADOR                                41300600BA3905900011050865810349955-02  01112012013SALVADOR            2412201200000000000352704CC                                                                                                                                                                                                                                                                                                                                                                                                         000028
1031421009837COBR_CAUC_BIC  DIPLOMATA S/A  INDL. E COMERCIAL        008960738000102RJ INDUSTRIA COM E ARMAZ DE ALIMEN      RUA DA MATRIZ 274                       SALVADOR                                41300600BA3905900012050866020349955-03  01112012013SALVADOR            2812201200000000000352704CC                                                                                                                                                                                                                                                                                                                                                                                                         000029
1031421009837COBR_CAUC_BIC  DIPLOMATA S/A  INDL. E COMERCIAL        007158073000155PERALTA DISTRIBUIDORA DE ALIMENTOS      ESTRADA DE LIGAÇÃO, 24,8 KM 23,4 ANHANGUSAO PAULO                               05280000SP3905800001051103680176727-01  16112012007PAULISTA            1212201200000000004258200CC                                                                                                                                                                                                                                                                                                                                                                                                         000030
1031421009837COBR_CAUC_BIC  DIPLOMATA S/A  INDL. E COMERCIAL        001990619000153CEVISKO ALIMENTOS LTDA                  RUA SEBATIÃO SOUZA CAMPOS, 334          MOGI-MIRIM                              13807506SP3905700001050812010349712-01  30102012021CAMPINAS            0712201200000000003256200CC                                                                                                                                                                                                                                                                                                                                                                                                         000031
1031421009837COBR_CAUC_COR  DIPLOMATA S/A  INDL. E COMERCIAL        008797179000161DSG - DISTRIBUIDORA DE ALIMENTOS L      RUA SALATIEL MARQUES FONTES 695         SOUSA                                   85806410PB3905600001050747010175618-01  24102012900BRADESCO S/A        0712201200000000000350700CC                                                                                                                                                                                                                                                                                                                                                                                                         000032
1031421009837COBR_CAUC_COR  DIPLOMATA S/A  INDL. E COMERCIAL        008797179000161DSG - DISTRIBUIDORA DE ALIMENTOS L      RUA SALATIEL MARQUES FONTES 695         SOUSA                                   85806410PB3905600002050747280175618-02  24102012900BRADESCO S/A        1312201200000000000350700CC                                                                                                                                                                                                                                                                                                                                                                                                         000033
1031421009837COBR_CAUC_COR  DIPLOMATA S/A  INDL. E COMERCIAL        008797179000161DSG - DISTRIBUIDORA DE ALIMENTOS L      RUA SALATIEL MARQUES FONTES 695         SOUSA                                   85806410PB3905600003050747520175618-03  24102012900BRADESCO S/A        1812201200000000000350700CC                                                                                                                                                                                                                                                                                                                                                                                                         000034
1031421009837COBR_CAUC_COR  DIPLOMATA S/A  INDL. E COMERCIAL        008797179000161DSG - DISTRIBUIDORA DE ALIMENTOS L      RUA SALATIEL MARQUES FONTES 695         SOUSA                                   85806410PB3905600004050746980175620-01  24102012900BRADESCO S/A        1812201200000000000350700CC                                                                                                                                                                                                                                                                                                                                                                                                         000035
1031421009837COBR_CAUC_COR  DIPLOMATA S/A  INDL. E COMERCIAL        008797179000161DSG - DISTRIBUIDORA DE ALIMENTOS L      RUA SALATIEL MARQUES FONTES 695         SOUSA                                   85806410PB3905600005050747100175620-02  24102012900BRADESCO S/A        2412201200000000000350700CC                                                                                                                                                                                                                                                                                                                                                                                                         000036
1031421009837COBR_CAUC_COR  DIPLOMATA S/A  INDL. E COMERCIAL        008797179000161DSG - DISTRIBUIDORA DE ALIMENTOS L      RUA SALATIEL MARQUES FONTES 695         SOUSA                                   85806410PB3905600006050747440175620-03  24102012900BRADESCO S/A        2812201200000000000350700CC                                                                                                                                                                                                                                                                                                                                                                                                         000037
1031421009837COBR_CAUC_COR  DIPLOMATA S/A  INDL. E COMERCIAL        008797179000161DSG - DISTRIBUIDORA DE ALIMENTOS L      RUA SALATIEL MARQUES FONTES 695         SOUSA                                   85806410PB3905600007050747360175622-01  24102012900BRADESCO S/A        1412201200000000000350700CC                                                                                                                                                                                                                                                                                                                                                                                                         000038
1031421009837COBR_CAUC_COR  DIPLOMATA S/A  INDL. E COMERCIAL        008797179000161DSG - DISTRIBUIDORA DE ALIMENTOS L      RUA SALATIEL MARQUES FONTES 695         SOUSA                                   85806410PB3905600008050747610175622-02  24102012900BRADESCO S/A        2012201200000000000350700CC                                                                                                                                                                                                                                                                                                                                                                                                         000039
1031421009837COBR_CAUC_COR  DIPLOMATA S/A  INDL. E COMERCIAL        008797179000161DSG - DISTRIBUIDORA DE ALIMENTOS L      RUA SALATIEL MARQUES FONTES 695         SOUSA                                   85806410PB3905600009050747790175622-03  24102012900BRADESCO S/A        2512201200000000000350700CC                                                                                                                                                                                                                                                                                                                                                                                                         000040
1031421009837COBR_CAUC_COR  DIPLOMATA S/A  INDL. E COMERCIAL        002330475000171G.DE OLIVEIRA PINTO                     R. PROJETADA, 30 BR 304 KM 30           MOSSORO                                 59614470RN3905500001050657700347490-03  15102012800UNIBANCO S/A        3011201200000000000340680CC                                                                                                                                                                                                                                                                                                                                                                                                         000041
1031421009837COBR_CAUC_COR  DIPLOMATA S/A  INDL. E COMERCIAL        002330475000171G.DE OLIVEIRA PINTO                     R. PROJETADA, 30 BR 304 KM 30           MOSSORO                                 59614470RN3905500002050658000347491-03  15102012800UNIBANCO S/A        3011201200000000002520000CC                                                                                                                                                                                                                                                                                                                                                                                                         000042
1031421009837COBR_CAUC_COR  DIPLOMATA S/A  INDL. E COMERCIAL        002330475000171G.DE OLIVEIRA PINTO                     R. PROJETADA, 30 BR 304 KM 30           MOSSORO                                 59614470RN3905500003050661050347492-03  15102012800UNIBANCO S/A        3011201200000000000280560CC                                                                                                                                                                                                                                                                                                                                                                                                         000043
1031421009837COBR_CAUC_BIC  DIPLOMATA S/A  INDL. E COMERCIAL        002478344000136MERCADO DE CARNES M P C G LTDA          AV PRESIDENTE TANCREDO NEVES 953        DUQUE DE CAXIAS                         25070096RJ3905400001050748170175757-02  25102012014RIO DE JANEIRO      0612201200000000000652050CC                                                                                                                                                                                                                                                                                                                                                                                                         000044
1031421009837COBR_CAUC_BIC  DIPLOMATA S/A  INDL. E COMERCIAL        002478344000136MERCADO DE CARNES M P C G LTDA          AV PRESIDENTE TANCREDO NEVES 953        DUQUE DE CAXIAS                         25070096RJ3905400002051101710176042-01  06112012014RIO DE JANEIRO      0312201200000000000896040CC                                                                                                                                                                                                                                                                                                                                                                                                         000045
1031421009837COBR_CAUC_BIC  DIPLOMATA S/A  INDL. E COMERCIAL        002478344000136MERCADO DE CARNES M P C G LTDA          AV PRESIDENTE TANCREDO NEVES 953        DUQUE DE CAXIAS                         25070096RJ3905400003051101800176042-02  06112012014RIO DE JANEIRO      1012201200000000000896040CC                                                                                                                                                                                                                                                                                                                                                                                                         000046
1031421009837COBR_CAUC_BIC  DIPLOMATA S/A  INDL. E COMERCIAL        006240281000136MAR AZUL DIST .IMP.E EXPORT. LTDA       AV DURVAL DE GOES MONTEIRO 6115         MACEIO                                  57062280AL3905300001050622150174419-01  08102012017MACEIO              0312201200000000000385770CC                                                                                                                                                                                                                                                                                                                                                                                                         000047
1031421009837COBR_CAUC_BIC  DIPLOMATA S/A  INDL. E COMERCIAL        006240281000136MAR AZUL DIST .IMP.E EXPORT. LTDA       AV DURVAL DE GOES MONTEIRO 6115         MACEIO                                  57062280AL3905300002050622310174419-02  08102012017MACEIO              0712201200000000000385770CC                                                                                                                                                                                                                                                                                                                                                                                                         000048
1031421009837COBR_CAUC_BIC  DIPLOMATA S/A  INDL. E COMERCIAL        006240281000136MAR AZUL DIST .IMP.E EXPORT. LTDA       AV DURVAL DE GOES MONTEIRO 6115         MACEIO                                  57062280AL3905300003050622580174419-03  08102012017MACEIO              1212201200000000000385770CC                                                                                                                                                                                                                                                                                                                                                                                                         000049
1031421009837COBR_CAUC_BIC  DIPLOMATA S/A  INDL. E COMERCIAL        006240281000136MAR AZUL DIST .IMP.E EXPORT. LTDA       AV DURVAL DE GOES MONTEIRO 6115         MACEIO                                  57062280AL3905300004050622230346415-01  08102012017MACEIO              0712201200000000000385770CC                                                                                                                                                                                                                                                                                                                                                                                                         000050
1031421009837COBR_CAUC_BIC  DIPLOMATA S/A  INDL. E COMERCIAL        006240281000136MAR AZUL DIST .IMP.E EXPORT. LTDA       AV DURVAL DE GOES MONTEIRO 6115         MACEIO                                  57062280AL3905300005050622400346415-02  08102012017MACEIO              1212201200000000000385770CC                                                                                                                                                                                                                                                                                                                                                                                                         000051
1031421009837COBR_CAUC_BIC  DIPLOMATA S/A  INDL. E COMERCIAL        006240281000136MAR AZUL DIST .IMP.E EXPORT. LTDA       AV DURVAL DE GOES MONTEIRO 6115         MACEIO                                  57062280AL3905300006050622660346415-03  08102012017MACEIO              1712201200000000000385770CC                                                                                                                                                                                                                                                                                                                                                                                                         000052
1031421009837COBR_CAUC_BIC  DIPLOMATA S/A  INDL. E COMERCIAL        081433765000389PEDRO MUFFATTO & CIA LTDA               ROD. BR 277 -KM- 598                    CASCAVEL                                85804200PR3905200001051099390176499-01  12112012016CURITIBA            1012201200000000001696086CC                                                                                                                                                                                                                                                                                                                                                                                                         000053
1031421009837COBR_CAUC_COR  DIPLOMATA S/A  INDL. E COMERCIAL        000981411000105SPF DO BRASIL IND. E COM. LTDA          ROD. SP 215,  KM 112,5 SN               DESCALVADO                              13690970SP3905100001051103410176682-01  15112012800UNIBANCO S/A        1312201200000000000780000CC                                                                                                                                                                                                                                                                                                                                                                                                         000054
1031421009837COBR_CAUC_COR  DIPLOMATA S/A  INDL. E COMERCIAL        000981411000105SPF DO BRASIL IND. E COM. LTDA          ROD. SP 215,  KM 112,5 SN               DESCALVADO                              13690970SP3905100002051103500176683-01  15112012800UNIBANCO S/A        1312201200000000000780000CC                                                                                                                                                                                                                                                                                                                                                                                                         000055
1031421009837COBR_CAUC_COR  DIPLOMATA S/A  INDL. E COMERCIAL        076111335000149GRANJA ECONOMICA AVICOLA LTDA           RUA CATANDUVAS, 333                     CARAMBEI                                84145000PR3905000001051109020017994-01  09112012800UNIBANCO S/A        1012201200000000001400000CC                                                                                                                                                                                                                                                                                                                                                                                                         000056
1031421009837COBR_CAUC_BIC  DIPLOMATA S/A  INDL. E COMERCIAL        009531776000102VTF ALIMENTOS LTDA - EPP                RUA NOEMIA DE QUEIROZ TELES DA FONSECA 1JUNDIAI                                 13206180SP3904900001050811800003428-01  30102012007PAULISTA            0312201200000000000987840CC                                                                                                                                                                                                                                                                                                                                                                                                         000057
1031421009837COBR_CAUC_BIC  DIPLOMATA S/A  INDL. E COMERCIAL        004484639000140IDEIAS E SABOR ALIMENTOS LTDA           NOEMIA DE QUEIROZ T.FONSECA 104         JUNDIAI                                 13206180SP3904800001050811980003427-01  30102012007PAULISTA            0312201200000000000987840CC                                                                                                                                                                                                                                                                                                                                                                                                         000058
1031421009837COBR_CAUC_BIC  DIPLOMATA S/A  INDL. E COMERCIAL        031210180001565GERMANS DISTR. DE PROD.COMEST. LTD      RUA CORDOVIL 1000                       RIO DE JANEIRO                          21250450RJ3904700001050810820349655-01  30102012014RIO DE JANEIRO      1012201200000000000979200CC                                                                                                                                                                                                                                                                                                                                                                                                         000059
1031421009837COBR_CAUC_BIC  DIPLOMATA S/A  INDL. E COMERCIAL        003925746000102QUEM VEM EM MURY GAMA SUPERMERCADO      AV MANOEL CARNEIRO DE MENEZES 4329      NOVA FRIBURGO                           28615060RJ3904600001051102100350577-02  06112012014RIO DE JANEIRO      3011201200000000000619350CC                                                                                                                                                                                                                                                                                                                                                                                                         000060
1031421009837COBR_CAUC_BIC  DIPLOMATA S/A  INDL. E COMERCIAL        011270328000144BOVMEAT PROCESSADORA DE CARNES E D      ESTRADA DO LUPPI SN                     ITAPIRA                                 13970260SP3904500001050811630003399-03  30102012021CAMPINAS            0412201200000000000288000CC                                                                                                                                                                                                                                                                                                                                                                                                         000061
1031421009837COBR_CAUC_BIC  DIPLOMATA S/A  INDL. E COMERCIAL        076085125000123POLINA E CIA LTDA                       AVENIDA BRASIL 2232                     CASCAVEL                                85816290PR3904400001051109110176708-01  16112012016CURITIBA            1012201200000000000246960CC                                                                                                                                                                                                                                                                                                                                                                                                         000062
1031421009837COBR_CAUC_BIC  DIPLOMATA S/A  INDL. E COMERCIAL        075315333012620ATACADAO DISTRIBUICAO COM.E IND.LT      AV.MORVAN DIAS DE FIGUEIREDO 6169       SAO PAULO                               02170901SP3904300001051101210003856-01  06112012007PAULISTA            0201201300000000001368000CC                                                                                                                                                                                                                                                                                                                                                                                                         000063
1031421009837COBR_CAUC_BIC  DIPLOMATA S/A  INDL. E COMERCIAL        075315333012620ATACADAO DISTRIBUICAO COM.E IND.LT      AV.MORVAN DIAS DE FIGUEIREDO 6169       SAO PAULO                               02170901SP3904300002051101390003857-01  06112012007PAULISTA            0201201300000000003077640CC                                                                                                                                                                                                                                                                                                                                                                                                         000064
1031421009837COBR_CAUC_BIC  DIPLOMATA S/A  INDL. E COMERCIAL        075315333012620ATACADAO DISTRIBUICAO COM.E IND.LT      AV.MORVAN DIAS DE FIGUEIREDO 6169       SAO PAULO                               02170901SP3904300003051099630003858-01  06112012007PAULISTA            0201201300000000003609000CC                                                                                                                                                                                                                                                                                                                                                                                                         000065
1031421009837COBR_CAUC_BIC  DIPLOMATA S/A  INDL. E COMERCIAL        075315333012620ATACADAO DISTRIBUICAO COM.E IND.LT      AV.MORVAN DIAS DE FIGUEIREDO 6169       SAO PAULO                               02170901SP3904300004051099550003859-01  06112012007PAULISTA            0201201300000000003609000CC                                                                                                                                                                                                                                                                                                                                                                                                         000066
1031421009837COBR_CAUC_BIC  DIPLOMATA S/A  INDL. E COMERCIAL        075315333012620ATACADAO DISTRIBUICAO COM.E IND.LT      AV.MORVAN DIAS DE FIGUEIREDO 6169       SAO PAULO                               02170901SP3904300005051100740003860-01  06112012007PAULISTA            0201201300000000005318640CC                                                                                                                                                                                                                                                                                                                                                                                                         000067
1031421009837COBR_CAUC_BIC  DIPLOMATA S/A  INDL. E COMERCIAL        075315333012620ATACADAO DISTRIBUICAO COM.E IND.LT      AV.MORVAN DIAS DE FIGUEIREDO 6169       SAO PAULO                               02170901SP3904300006051101040003861-01  06112012007PAULISTA            0201201300000000003361500CC                                                                                                                                                                                                                                                                                                                                                                                                         000068
1031421009837COBR_CAUC_BIC  DIPLOMATA S/A  INDL. E COMERCIAL        075315333012620ATACADAO DISTRIBUICAO COM.E IND.LT      AV.MORVAN DIAS DE FIGUEIREDO 6169       SAO PAULO                               02170901SP3904300007051101120003862-01  06112012007PAULISTA            0201201300000000003361500CC                                                                                                                                                                                                                                                                                                                                                                                                         000069
1031421009837COBR_CAUC_BIC  DIPLOMATA S/A  INDL. E COMERCIAL        075315333012620ATACADAO DISTRIBUICAO COM.E IND.LT      AV.MORVAN DIAS DE FIGUEIREDO 6169       SAO PAULO                               02170901SP3904300008051103330003863-01  06112012007PAULISTA            0701201300000000008680140CC                                                                                                                                                                                                                                                                                                                                                                                                         000070
1031421009837COBR_CAUC_BIC  DIPLOMATA S/A  INDL. E COMERCIAL        075315333012620ATACADAO DISTRIBUICAO COM.E IND.LT      AV.MORVAN DIAS DE FIGUEIREDO 6169       SAO PAULO                               02170901SP3904300009051100910003864-01  06112012007PAULISTA            0801201300000000002076660CC                                                                                                                                                                                                                                                                                                                                                                                                         000071
1031421009837COBR_CAUC_BIC  DIPLOMATA S/A  INDL. E COMERCIAL        075315333012620ATACADAO DISTRIBUICAO COM.E IND.LT      AV.MORVAN DIAS DE FIGUEIREDO 6169       SAO PAULO                               02170901SP3904300010051100820003865-01  06112012007PAULISTA            0801201300000000001247490CC                                                                                                                                                                                                                                                                                                                                                                                                         000072
1031421009837COBR_CAUC_BIC  DIPLOMATA S/A  INDL. E COMERCIAL        075315333012620ATACADAO DISTRIBUICAO COM.E IND.LT      AV.MORVAN DIAS DE FIGUEIREDO 6169       SAO PAULO                               02170901SP3904300011051099470003867-01  06112012007PAULISTA            0801201300000000003609000CC                                                                                                                                                                                                                                                                                                                                                                                                         000073
1031421009837COBR_CAUC_BIC  DIPLOMATA S/A  INDL. E COMERCIAL        075315333012620ATACADAO DISTRIBUICAO COM.E IND.LT      AV.MORVAN DIAS DE FIGUEIREDO 6169       SAO PAULO                               02170901SP3904300012051103250003868-01  06112012007PAULISTA            0801201300000000001368000CC                                                                                                                                                                                                                                                                                                                                                                                                         000074
1031421009837COBR_CAUC_BIC  DIPLOMATA S/A  INDL. E COMERCIAL        003835761000151COMCARNE COML DE CARNES LTDA            RUA GENERAL ARTUR CARVALHO  320         SAO LUIS                                65066320MA3904200001051100150176724-01  16112012042SAO LUIS            1412201200000000003690000CC                                                                                                                                                                                                                                                                                                                                                                                                         000075
1031421009837COBR_CAUC_BIC  DIPLOMATA S/A  INDL. E COMERCIAL        003835761000151COMCARNE COML DE CARNES LTDA            RUA GENERAL ARTUR CARVALHO  320         SAO LUIS                                65066320MA3904200002051100230176724-02  16112012042SAO LUIS            1912201200000000003690000CC                                                                                                                                                                                                                                                                                                                                                                                                         000076
1031421009837COBR_CAUC_BIC  DIPLOMATA S/A  INDL. E COMERCIAL        003835761000151COMCARNE COML DE CARNES LTDA            RUA GENERAL ARTUR CARVALHO  320         SAO LUIS                                65066320MA3904200003051100310176724-03  16112012042SAO LUIS            2412201200000000003690000CC                                                                                                                                                                                                                                                                                                                                                                                                         000077
1031421009837COBR_CAUC_BIC  DIPLOMATA S/A  INDL. E COMERCIAL        003835761000151COMCARNE COML DE CARNES LTDA            RUA GENERAL ARTUR CARVALHO  320         SAO LUIS                                65066320MA3904200004051099710176725-01  16112012042SAO LUIS            1412201200000000000410820CC                                                                                                                                                                                                                                                                                                                                                                                                         000078
1031421009837COBR_CAUC_BIC  DIPLOMATA S/A  INDL. E COMERCIAL        003835761000151COMCARNE COML DE CARNES LTDA            RUA GENERAL ARTUR CARVALHO  320         SAO LUIS                                65066320MA3904200005051099800176725-02  16112012042SAO LUIS            1912201200000000000410820CC                                                                                                                                                                                                                                                                                                                                                                                                         000079
1031421009837COBR_CAUC_BIC  DIPLOMATA S/A  INDL. E COMERCIAL        003835761000151COMCARNE COML DE CARNES LTDA            RUA GENERAL ARTUR CARVALHO  320         SAO LUIS                                65066320MA3904200006051099980176725-03  16112012042SAO LUIS            2412201200000000000410820CC                                                                                                                                                                                                                                                                                                                                                                                                         000080
1031421009837COBR_CAUC_BIC  DIPLOMATA S/A  INDL. E COMERCIAL        003835761000151COMCARNE COML DE CARNES LTDA            RUA GENERAL ARTUR CARVALHO  320         SAO LUIS                                65066320MA3904200007051099040176726-01  16112012042SAO LUIS            1412201200000000000521040CC                                                                                                                                                                                                                                                                                                                                                                                                         000081
1031421009837COBR_CAUC_BIC  DIPLOMATA S/A  INDL. E COMERCIAL        003835761000151COMCARNE COML DE CARNES LTDA            RUA GENERAL ARTUR CARVALHO  320         SAO LUIS                                65066320MA3904200008051099120176726-02  16112012042SAO LUIS            1912201200000000000521040CC                                                                                                                                                                                                                                                                                                                                                                                                         000082
1031421009837COBR_CAUC_BIC  DIPLOMATA S/A  INDL. E COMERCIAL        003835761000151COMCARNE COML DE CARNES LTDA            RUA GENERAL ARTUR CARVALHO  320         SAO LUIS                                65066320MA3904200009051099210176726-03  16112012042SAO LUIS            2412201200000000000521040CC                                                                                                                                                                                                                                                                                                                                                                                                         000083
1031421009837COBR_CAUC_BIC  DIPLOMATA S/A  INDL. E COMERCIAL        003835761000151COMCARNE COML DE CARNES LTDA            RUA GENERAL ARTUR CARVALHO  320         SAO LUIS                                65066320MA3904200010051100400176729-01  16112012042SAO LUIS            1112201200000000003988200CC                                                                                                                                                                                                                                                                                                                                                                                                         000084
1031421009837COBR_CAUC_BIC  DIPLOMATA S/A  INDL. E COMERCIAL        003835761000151COMCARNE COML DE CARNES LTDA            RUA GENERAL ARTUR CARVALHO  320         SAO LUIS                                65066320MA3904200011051100580176729-02  16112012042SAO LUIS            1712201200000000003988200CC                                                                                                                                                                                                                                                                                                                                                                                                         000085
1031421009837COBR_CAUC_BIC  DIPLOMATA S/A  INDL. E COMERCIAL        003835761000151COMCARNE COML DE CARNES LTDA            RUA GENERAL ARTUR CARVALHO  320         SAO LUIS                                65066320MA3904200012051100660176729-03  16112012042SAO LUIS            2112201200000000003988200CC                                                                                                                                                                                                                                                                                                                                                                                                         000086
1031421009837COBR_CAUC_BIC  DIPLOMATA S/A  INDL. E COMERCIAL        003835761000151COMCARNE COML DE CARNES LTDA            RUA GENERAL ARTUR CARVALHO  320         SAO LUIS                                65066320MA3904200013051100070176730-01  16112012042SAO LUIS            1112201200000000000460920CC                                                                                                                                                                                                                                                                                                                                                                                                         000087
1031421009837COBR_CAUC_BIC  DIPLOMATA S/A  INDL. E COMERCIAL        003835761000151COMCARNE COML DE CARNES LTDA            RUA GENERAL ARTUR CARVALHO  320         SAO LUIS                                65066320MA3904200014051098820176730-02  16112012042SAO LUIS            1712201200000000000460920CC                                                                                                                                                                                                                                                                                                                                                                                                         000088
1031421009837COBR_CAUC_BIC  DIPLOMATA S/A  INDL. E COMERCIAL        003835761000151COMCARNE COML DE CARNES LTDA            RUA GENERAL ARTUR CARVALHO  320         SAO LUIS                                65066320MA3904200015051098910176730-03  16112012042SAO LUIS            2112201200000000000460920CC                                                                                                                                                                                                                                                                                                                                                                                                         000089
1031421009837COBR_CAUC_BIC  DIPLOMATA S/A  INDL. E COMERCIAL        010887961000113MAYARA COMERCIO DE GENEROS ALIMENT      AV NELORE 200                           CABO FRIO                               28910420RJ3904100001050866110003532-01  31102012014RIO DE JANEIRO      1412201200000000009936360CC                                                                                                                                                                                                                                                                                                                                                                                                         000090
1031421009837COBR_CAUC_BIC  DIPLOMATA S/A  INDL. E COMERCIAL        010887961000113MAYARA COMERCIO DE GENEROS ALIMENT      AV NELORE 200                           CABO FRIO                               28910420RJ3904100002050621850174463-01  09102012014RIO DE JANEIRO      0412201200000000006030000CC                                                                                                                                                                                                                                                                                                                                                                                                         000091
1031421009837COBR_CAUC_BIC  DIPLOMATA S/A  INDL. E COMERCIAL        010887961000113MAYARA COMERCIO DE GENEROS ALIMENT      AV NELORE 200                           CABO FRIO                               28910420RJ3904100003051101630176105-01  07112012014RIO DE JANEIRO      2512201200000000006633000CC                                                                                                                                                                                                                                                                                                                                                                                                         000092
1031421009837COBR_CAUC_BIC  DIPLOMATA S/A  INDL. E COMERCIAL        010948378000175COMERCIAL DE ALIMENTOS VITORIA LTD      RUA DO ARROZ 76                         RIO DE JANEIRO                          21011070RJ3904000001050624280174461-03  09102012014RIO DE JANEIRO      0412201200000000003645000CC                                                                                                                                                                                                                                                                                                                                                                                                         000093
1031421009837COBR_CAUC_BIC  DIPLOMATA S/A  INDL. E COMERCIAL        010948378000175COMERCIAL DE ALIMENTOS VITORIA LTD      RUA DO ARROZ 76                         RIO DE JANEIRO                          21011070RJ3904000002051102360176025-01  06112012014RIO DE JANEIRO      1412201200000000003735000CC                                                                                                                                                                                                                                                                                                                                                                                                         000094
1031421009837COBR_CAUC_BIC  DIPLOMATA S/A  INDL. E COMERCIAL        010948378000175COMERCIAL DE ALIMENTOS VITORIA LTD      RUA DO ARROZ 76                         RIO DE JANEIRO                          21011070RJ3904000003051102440176025-02  06112012014RIO DE JANEIRO      1912201200000000003735000CC                                                                                                                                                                                                                                                                                                                                                                                                         000095
1031421009837COBR_CAUC_BIC  DIPLOMATA S/A  INDL. E COMERCIAL        010948378000175COMERCIAL DE ALIMENTOS VITORIA LTD      RUA DO ARROZ 76                         RIO DE JANEIRO                          21011070RJ3904000004051102520176025-03  06112012014RIO DE JANEIRO      2412201200000000003735000CC                                                                                                                                                                                                                                                                                                                                                                                                         000096
1031421009837COBR_CAUC_BIC  DIPLOMATA S/A  INDL. E COMERCIAL        001693848000297VERDINI MEIRELES REPRESENTACOES LT      RUA DO FEIJAO  530 530                  RIO DE JANEIRO                          21011050RJ3903600001051102610176020-01  06112012014RIO DE JANEIRO      2112201200000000005130000CC                                                                                                                                                                                                                                                                                                                                                                                                         000097
1031421009837COBR_CAUC_BIC  DIPLOMATA S/A  INDL. E COMERCIAL        001693848000297VERDINI MEIRELES REPRESENTACOES LT      RUA DO FEIJAO  530 530                  RIO DE JANEIRO                          21011050RJ3903600002051102790176020-02  06112012014RIO DE JANEIRO      2512201200000000005130000CC                                                                                                                                                                                                                                                                                                                                                                                                         000098
1031421009837COBR_CAUC_BIC  DIPLOMATA S/A  INDL. E COMERCIAL        001333984000195SEGALAS ALIMENTOS LTDA                  BR 470 N 4292                           BLUMENAU                                89070200SC3903400001050517520345038-01  28092012032BLUMENAU            1912201200000000007920000CC                                                                                                                                                                                                                                                                                                                                                                                                         000099
1031421009837COBR_CAUC_COR  DIPLOMATA S/A  INDL. E COMERCIAL        010535064000140MAX ALIMENTOS LTDA                      AV AYRON WELLINGTON DE ANDRADE 7        BEZERROS                                55660000PE3903300001050675190175297-02  18102012900BRADESCO S/A        0412201200000000000390780CC                                                                                                                                                                                                                                                                                                                                                                                                         000100
1031421009837COBR_CAUC_COR  DIPLOMATA S/A  INDL. E COMERCIAL        010535064000140MAX ALIMENTOS LTDA                      AV AYRON WELLINGTON DE ANDRADE 7        BEZERROS                                55660000PE3903300002050675270175297-03  18102012900BRADESCO S/A        1012201200000000000390780CC                                                                                                                                                                                                                                                                                                                                                                                                         000101
1031421009837COBR_CAUC_COR  DIPLOMATA S/A  INDL. E COMERCIAL        010535064000140MAX ALIMENTOS LTDA                      AV AYRON WELLINGTON DE ANDRADE 7        BEZERROS                                55660000PE3903300003050675430175298-02  18102012900BRADESCO S/A        0412201200000000003381300CC                                                                                                                                                                                                                                                                                                                                                                                                         000102
1031421009837COBR_CAUC_COR  DIPLOMATA S/A  INDL. E COMERCIAL        010535064000140MAX ALIMENTOS LTDA                      AV AYRON WELLINGTON DE ANDRADE 7        BEZERROS                                55660000PE3903300004050675510175298-03  18102012900BRADESCO S/A        1012201200000000003381300CC                                                                                                                                                                                                                                                                                                                                                                                                         000103
1031421009837COBR_CAUC_BIC  DIPLOMATA S/A  INDL. E COMERCIAL        081894255000147DUSNEI ALIMENTICIOS LTDA                RUA PIONEIRO JOAO RUFATO 257            MARINGA                                 87035540PR3903200001051101470176719-01  16112012016CURITIBA            0712201200000000006669000CC                                                                                                                                                                                                                                                                                                                                                                                                         000104
1031421009837COBR_CAUC_BIC  DIPLOMATA S/A  INDL. E COMERCIAL        011662138000334SUPERMERCADO CHARME LTDA                ETR DE ITAIPUACU, LOTEAMENTO CHACARAS DEMARICA                                  24900000RJ3903100001050746550175508-01  22102012014RIO DE JANEIRO      0312201200000000006660000CC                                                                                                                                                                                                                                                                                                                                                                                                         000105
1031421009837COBR_CAUC_BIC  DIPLOMATA S/A  INDL. E COMERCIAL        008700020000187BARRA FRIOS FLUMINENSE DISTRIBUIDO      ESTRADA GOVERNADOR CHAGAS FREITAS, 3040 BARRA MANSA                             27351720RJ3903000001051101550176043-01  06112012014RIO DE JANEIRO      0312201200000000006480000CC                                                                                                                                                                                                                                                                                                                                                                                                         000106
1049421001570COBR_CAUC_COR  MASTER AGROINDUSTRIAL LTDA              085782878000340FRIGORIFICO RIO SULENSE SA              RUA JOSINO MONTEIRO,2                   ESTACAO                                 99930000RS39012000010000493822417       21112012900BRADESCO S/A        1912201200000000013007019CC                                                                                                                                                                                                                                                                                                                                                                                                         000107
1007421006183COBR_CAUC_BIC  NITRIFLEX S/A IND E COMERCIO            036193928000187TEADIT INDUSTRIA E COMERCIO LTDA        AV.PASTOR MARTIN LUTHER KING JR,8939    RIO DE JANEIRO                          21530012RJ390100000101594019001812701   27112012014RIO DE JANEIRO      1312201200000000016957495CC                                                                                                                                                                                                                                                                                                                                                                                                         000108
1019421014068COBR_CAUC_COR  RIO BRANCO ALIMENTOS S/A                004641376007300SUPERMERCADOS BH COMERCIO DE            AV GERALDO ROCHA 700                    CONTAGEM                                32183054MG3901100001007168510151468301  28112012900BRADESCO S/A        2612201200000000030943308CC                                                                                                                                                                                                                                                                                                                                                                                                         000109
9000036                                                                                                                                                                                                                                                                                                                                                                                                                                                                                                                                                                                                                                                                                                               000110
