0REMESSANOTIFICACAO ELETRONICA        99999999999999BICBANCO                                AV. PAULISTA                            1048      12.ANDAR  BELA VISTA                    SAO PAULO                     01310100SP1121739360CORTINHAL                               COORDENADOR                             06022014                                                                                                                                                                                                                                                                                                                                                                                      000001
1009421012831COBR_CAUC_COR  ASA ALIMENTOS S/A                       007387853000177GRANJA SALOME LTDA                      ROD. BR-262  KM 0                       BOM DESPACHO                            35600000MG4632200001001496610046918     05022014900BRADESCO S/A        0503201400000000012600000CC                                                                                                                                                                                                                                                                                                                                                                                                         000002
1018420932820COBR_CAUC_COR  ADUBOS ARAGUAIA IND. E COM. LTDA        010903299000148BASE AGRICOLA COM DE PROD AGRIC LT      RUA SAID ABDALLA QD 05 LT 23 105        JATAI                                   75800001GO4632300001036000110001245401  24012014900BRADESCO S/A        3008201400000000010715136CC                                                                                                                                                                                                                                                                                                                                                                                                         000003
1018420932820COBR_CAUC_COR  ADUBOS ARAGUAIA IND. E COM. LTDA        000001562071173JONES LUIZ HEEMANN                      AV CENTRAL SETOR A 515                  QUERENCIA                               78643000MT4632400001036001510003452101  24012014800UNIBANCO S/A        2908201400000000016661655CC                                                                                                                                                                                                                                                                                                                                                                                                         000004
1028421011386COBR_CAUC_COR  POLICARD SYSTEMS E SERVICOS S/A         002510563000155EMPRESA DE TRANSPORTES COSTA VERDE      R MARIA ISABEL DOS SANTOS, 130          LAURO DE FREITA                         42700000BA463250000102983121215674      03022014900BRADESCO S/A        1803201400000000017340384CC                                                                                                                                                                                                                                                                                                                                                                                                         000005
1028421011386COBR_CAUC_COR  POLICARD SYSTEMS E SERVICOS S/A         013809986000197CONSORCIO MENDES JUNIOR SCHAHIN         AV TANCREDO NEVES, SN - 0               FOZ DO IGUACU                           85867970PR463260000102983155215954      03022014900BRADESCO S/A        2102201400000000013105800CC                                                                                                                                                                                                                                                                                                                                                                                                         000006
1028421011386COBR_CAUC_COR  POLICARD SYSTEMS E SERVICOS S/A         092688415000118SOCIEDADE DE ONIBUS PORTO ALEGRE L      RUA DOS MAIAS, 773                      PORTO ALEGRE                            91170200RS463270000102983171215851      03022014900BRADESCO S/A        1802201400000000032469840CC                                                                                                                                                                                                                                                                                                                                                                                                         000007
1028421011386COBR_CAUC_COR  POLICARD SYSTEMS E SERVICOS S/A         092697093000173TRANSPORTES COLETIVOS TREVO S/A         R CORONEL MASSOT, 1402                  PORTO ALEGRE                            91910530RS463280000102983180215894      03022014900BRADESCO S/A        1802201400000000011460672CC                                                                                                                                                                                                                                                                                                                                                                                                         000008
1028421011386COBR_CAUC_COR  POLICARD SYSTEMS E SERVICOS S/A         093315000000161RESTINGA TRANSPORTES COLETIVOS LTD      R ANT ONOFRE DA SILVEIRA, 50            PORTO ALEGRE                            91790510RS463290000102983201215900      03022014900BRADESCO S/A        1802201400000000014513384CC                                                                                                                                                                                                                                                                                                                                                                                                         000009
1046421001443COBR_CAUC_COR  COSTAO DO SANTINHO TUR E LAZER LTDA     001127357000106SAS INSTITUTE BRASIL LTDA               PRACA JOAO DURAN ALONSO,34-8 ANDAR      SAO PAULO                               04571070SP463300000100013408199962      01022014900BRADESCO S/A        2102201400000000024970631CC                                                                                                                                                                                                                                                                                                                                                                                                         000010
1007421068847COBR_CAUC_BIC  PROAROMA IND E COM LTDA                 056370364000118RICLAN S.A.                             AV. PRESIDENTE KENNEDY, 754             RIO CLARO                               13501900SP46331000010264045611073       31012014021CAMPINAS            2802201400000000010520250CC                                                                                                                                                                                                                                                                                                                                                                                                         000011
1031421011181COBR_CAUC_BIC  AGROIND IRMAOS DALLA COSTA LTDA         053045266000389JAD ZOGUEIB E CIA LTDA                  RUA INACIO CONCEICAO VIEIRA        25-75BAURU                                   17048011SP46332000010535815731180/1     04022014022RIBEIRAO PRETO      2502201400000000010871820CC                                                                                                                                                                                                                                                                                                                                                                                                         000012
1007421055095COBR_CAUC_COR  PLASTER IND COM RESINAS PLAS EIRELI     045420726000111TEXTIL ITAJA LTDA                       RUA PROJETADA II,75                     SALTO DE PIRAPO                         18160000SP463330000100018057039286/A    04022014900BRADESCO S/A        0503201400000000017902500CC                                                                                                                                                                                                                                                                                                                                                                                                         000013
1048421003043COBR_CAUC_COR  FRIGOL S.A. EM RECUPERACAO JUDICIAL     013373017000306FRIGORIFICO BIG BOI LTDA                ROD PR 323, KM 03 S/N                   PAICANDU                                87140000PR46334000010006635300000252-1  04022014900BRADESCO S/A        1102201400000000010400130CC                                                                                                                                                                                                                                                                                                                                                                                                         000014
9000013                                                                                                                                                                                                                                                                                                                                                                                                                                                                                                                                                                                                                                                                                                               000015
