0REMESSANOTIFICACAO ELETRONICA        99999999999999BICBANCO                                AV. PAULISTA                            1048      12.ANDAR  BELA VISTA                    SAO PAULO                     01310100SP1121739360CORTINHAL                               COORDENADOR                             26112013                                                                                                                                                                                                                                                                                                                                                                                      000001
1007421072259COBR_CAUC_COR  BOMBRIL S/A                             002782071000623MEGAFORT DISTRIB IMP E EXP LTDA         AV WILSON TAVARES RIBEIR 1651, LUC1     CONTAGEM                                32183680MG4539400001024515810051584001  31102013900BRADESCO S/A        1212201300000000010803531CC                                                                                                                                                                                                                                                                                                                                                                                                         000002
1048421003043COBR_CAUC_COR  FRIGOL S.A. EM RECUPERACAO JUDICIAL     067620377000114MINERVA.S.A                             AV.ANTONIO MANSO BERNARDES,S/N          BARRETOS                                14781545SP4539700001000575410000029771  25112013900BRADESCO S/A        0212201300000000022673577CC                                                                                                                                                                                                                                                                                                                                                                                                         000003
1019421010259COBR_CAUC_BIC  L & S INTERBANK FOMENTO LTDA            004744781000341ADM COMERCIO DE ROUPAS  LTDA            ALAMEDA  STO AMARO, 326/330             SAO PAULO                               04745001SP4539500001068098512256-4      21112013007PAULISTA            1803201400000000014249288CC                                                                                                                                                                                                                                                                                                                                                                                                         000004
1019421010259COBR_CAUC_COR  L & S INTERBANK FOMENTO LTDA            010711787000234PAN-RIO COMERCIAL DE BEBIDAS LTDA-      AV ANTONIO RIBEIRO SEABRA, 330          MAGE                                    25935000RJ4539600001068095764563-2      22112013900BRADESCO S/A        1312201300000000015815898CC                                                                                                                                                                                                                                                                                                                                                                                                         000005
9000004                                                                                                                                                                                                                                                                                                                                                                                                                                                                                                                                                                                                                                                                                                               000006
