0REMESSANOTIFICACAO ELETRONICA        99999999999999BICBANCO                                AV. PAULISTA                            1048      12.ANDAR  BELA VISTA                    SAO PAULO                     01310100SP1121739360CORTINHAL                               COORDENADOR                             12072013                                                                                                                                                                                                                                                                                                                                                                                      000001
1045421009756DIR_CREDIT     CLIMEDI-CLINICA MED.N.E.DIABETE S/S     013360276000122UNIMED SERGIPE - COOP DE TRAB MEDICO    RUA SOCORRO, 100 SAO JOSE               ARACAJU                                 49015300SE4300200001                                                                                                                                          012274187           0711200500000156710021        10072013000403Serviços auxiliares de diagnosticos e terapia aos Beneficiários de Pla-no de Saúde.                                                                                                                                                             013158985000120              000002
1018421015651COBR_CAUC_BIC  CMS PRODUTOS MEDICOS LTDA               060453024000390ASSOCIACAO DO SANATORIO SIRIO           RUA DESEMBARGADOR ELISEU GUILHERME, 123 SAO PAULO                               04004030SP430370000103316398000073983   26062013007PAULISTA            2608201300000000012920000CC                                                                                                                                                                                                                                                                                                                                                                                                         000003
1010421024356COBR_CAUC_COR  DIST EQUADOR DE PROD PETROLEO LTDA      010392166000154AUTO POSTO PETRONORTE                   R PEDRO ALDEMAR BANTIN, 1855            BOA VISTA                               69314543RR43036000010003731398929       10072013900BRADESCO S/A        1707201300000000011776000CC                                                                                                                                                                                                                                                                                                                                                                                                         000004
1007421067492COBR_CAUC_COR  ENERGY COML IMPORT E EXPORT LTDA        009363567000369PREMIX BRASIL RESINAS LTDA              ROD BR 101, KM 117,5,5600-SALA 6        ITAJAI                                  88311601SC4303500001020618639133        28062013800UNIBANCO S/A        1208201300000000117878286CC                                                                                                                                                                                                                                                                                                                                                                                                         000005
1048421003043COBR_CAUC_COR  FRIGOL S.A. EM RECUPERACAO JUDICIAL     007042642000364FRINENSE ALIMENTOS LTDA                 ZOELO SOLA 44                           ITAPERUNA                               18681030RJ4303800001000325560024320-01  11072013900BRADESCO S/A        1807201300000000011660585CC                                                                                                                                                                                                                                                                                                                                                                                                         000006
1008421029449COBR_CAUC_BIC  NOVA FIACAO INDUSTRIA TEXTIL LTDA       043248863000195MENEGHEL INDUSTRIA TEXTIL LTDA          AV JOSE MENEGHEL 1701                   AMERICANA                               13478820SP430390000108945456000022/1    05072013021CAMPINAS            2407201300000000016019296CC                                                                                                                                                                                                                                                                                                                                                                                                         000007
1020421001652COBR_CAUC_BIC  SANTHER FAB PAP STA THEREZINHA S/A      023439441001323ARMAZEM MATEUS LTDA                     AV DANIEL DE LA TOUCHE, 73              SAO LUIS                                65073780MA430340000106338091004612201   10072013042SAO LUIS            2108201300000000010010025CC                                                                                                                                                                                                                                                                                                                                                                                                         000008
1050421001700DIR_CREDIT     SINETEL ENG E COM LTDA                  000190373000768IND E COM DE COSMETICOS NATURA LTDA     ROD AUG MEIRA FILHO KM 3 N3920 FZ ELDORABENEVIDES                               68795000PA4299400001                                                                                                                                          012304020           061120120000022985001/2012    10072013000404execução de obras de construção civil, instalações e demais avenças.   contrato 001/2012                                                                                                                                                        004883542000100              000009
9000008                                                                                                                                                                                                                                                                                                                                                                                                                                                                                                                                                                                                                                                                                                               000010
