0REMESSANOTIFICACAO ELETRONICA        99999999999999BICBANCO                                AV. PAULISTA                            1048      12.ANDAR  BELA VISTA                    SAO PAULO                     01310100SP1121739360CORTINHAL                               COORDENADOR                             17042014                                                                                                                                                                                                                                                                                                                                                                                      000001
1003421010775COBR_CAUC_COR  NUFARM IND QUIM FARMACEUTICA S/A        024444317000185PLANTEBEM COM E TEC DE PROD AGRIC       AVENIDA CORONEL CLEMENTINO COELHO, 1542 PETROLINA                               56308210PE472040000104381457 004262401  27022014600HSBC BANK BRASIL    0105201400000000011133300CC                                                                                                                                                                                                                                                                                                                                                                                                         000002
1048421000338COBR_CAUC_COR  FRIGOESTRELA S.A. EM RECUP JUDICIAL     004004586000113ABRAHAO CANDIDO DA SILVA                AVENIDA DESEMBARGADOR TAVORA, 35        CRUZEIRO DO SUL                         69980000AC4720500001079705270110638301  15042014900BRADESCO S/A        1305201400000000014006759CC                                                                                                                                                                                                                                                                                                                                                                                                         000003
1042141005640COBR_CAUC_BIC  TAC TRANSPORTE E CONSTRUCOES LTDA       007638249000176G SABOYA VIEIRA                         ESTRADA DE RIBAMAR, 01-A KM 02          S„O JOSE DE RIB                         65110000MA472060000103942310652/2014    10042014042SAO LUIS            2006201400000000023000000TD                                                                                                                                                                                                                                                                                                                                                                                                         000004
1021421015236COBR_CAUC_BIC  AGRARIA INDUSTRIA E COMERCIO LTDA       006228648000104FORT GREEN COMERCIAL AGRICOLA LTDA      AVBRASIL,7351                           MARINGA                                 87050000PR4720700001065541870000023319  15042014016CURITIBA            1305201400000000021329000CC                                                                                                                                                                                                                                                                                                                                                                                                         000005
1007421055095COBR_CAUC_COR  PLASTER IND COM RESINAS PLAS EIRELI     059104513000195AUTOMETAL S/A                           AV FAGUNDES DE OLIVEIRA,1650            DIADEMA                                 09950300SP472080000100019720040467/A    31032014900BRADESCO S/A        2005201400000000010920000CC                                                                                                                                                                                                                                                                                                                                                                                                         000006
9000005                                                                                                                                                                                                                                                                                                                                                                                                                                                                                                                                                                                                                                                                                                               000007
