0REMESSANOTIFICACAO ELETRONICA        99999999999999BICBANCO                                AV. PAULISTA                            1048      12.ANDAR  BELA VISTA                    SAO PAULO                     01310100SP1121739360CORTINHAL                               COORDENADOR                             10042012                                                                                                                                                                                                                                                                                                                                                                                      000001
1017420930587DIR_CREDIT     USINA CANSANCAO DE SINIMBU SA           012277646000108COOP.REG.PROD.DE ACUCAR E ALCOOL DE AL  RUA SÁ E ALBUQUERQUE, 235               MACEIO                                  57022180AL3474000001                                                                                                                                          011814338           020320070000000575            05042012017002TODA A PRODUÇÃO DE AÇUCAR,ÁLCOOL E MEL,NAS SAFRAS 2007/2008/2009/2010/ 2011/2012/2013,PASSARÁ IMEDIATA E DEFINITIVAMENTE PARA POSSE E LIVRE DISPONIBILIDADE DA COOPERATIVA.                                                                     012272498000120              000002
1023141007329COBR_CAUC_COR  ENGEBASA MECANICA E USINAGEM LTDA.      008528337000188WIND POWER ENERGIA S/A                  EST TRONCO DIST ROD.NORTE,1724          CABO DE SANTO A                         54590000PE3475900001036615064964/B      16032012900BRADESCO S/A        1505201200000000020587040TD                                                                                                                                                                                                                                                                                                                                                                                                         000003
1023141007329COBR_CAUC_COR  ENGEBASA MECANICA E USINAGEM LTDA.      008528337000188WIND POWER ENERGIA S/A                  EST TRONCO DIST ROD.NORTE,1724          CABO DE SANTO A                         54590000PE3475900002036615144965/B      16032012900BRADESCO S/A        1505201200000000013994548TD                                                                                                                                                                                                                                                                                                                                                                                                         000004
1023141007329COBR_CAUC_COR  ENGEBASA MECANICA E USINAGEM LTDA.      008528337000188WIND POWER ENERGIA S/A                  EST TRONCO DIST ROD.NORTE,1724          CABO DE SANTO A                         54590000PE3475900003036615314966/B      16032012900BRADESCO S/A        1605201200000000013936705TD                                                                                                                                                                                                                                                                                                                                                                                                         000005
1023141007329COBR_CAUC_COR  ENGEBASA MECANICA E USINAGEM LTDA.      008528337000188WIND POWER ENERGIA S/A                  EST TRONCO DIST ROD.NORTE,1724          CABO DE SANTO A                         54590000PE3475900004036615655078/B      03042012900BRADESCO S/A        0106201200000000020587040TD                                                                                                                                                                                                                                                                                                                                                                                                         000006
1023141007329COBR_CAUC_COR  ENGEBASA MECANICA E USINAGEM LTDA.      008528337000188WIND POWER ENERGIA S/A                  EST TRONCO DIST ROD.NORTE,1724          CABO DE SANTO A                         54590000PE3475900005036615735079/B      03042012900BRADESCO S/A        0406201200000000013994548TD                                                                                                                                                                                                                                                                                                                                                                                                         000007
1023141007329COBR_CAUC_COR  ENGEBASA MECANICA E USINAGEM LTDA.      008528337000188WIND POWER ENERGIA S/A                  EST TRONCO DIST ROD.NORTE,1724          CABO DE SANTO A                         54590000PE3475900006036615815080/B      03042012900BRADESCO S/A        0406201200000000013936705TD                                                                                                                                                                                                                                                                                                                                                                                                         000008
1021420930887COBR_CAUC_BIC  DEDINI S/A INDUSTRIAS DE BASE           075717355001177USINA DE ACUCAR SANTA TEREZINHA LT      AV MARCELO MESSIAS BUSIQUIA 847 PQ INDUSMARINGA                                 87065006PR347600000106314089153343-9-9  09042012016CURITIBA            2404201200000000015061835CC                                                                                                                                                                                                                                                                                                                                                                                                         000009
1021420930887COBR_CAUC_BIC  DEDINI S/A INDUSTRIAS DE BASE           075717355001177USINA DE ACUCAR SANTA TEREZINHA LT      AV MARCELO MESSIAS BUSIQUIA 847 PQ INDUSMARINGA                                 87065006PR347600000206314127152680-9-9  09042012016CURITIBA            2404201200000000017465600CC                                                                                                                                                                                                                                                                                                                                                                                                         000010
1021420930887COBR_CAUC_BIC  DEDINI S/A INDUSTRIAS DE BASE           075717355001177USINA DE ACUCAR SANTA TEREZINHA LT      AV MARCELO MESSIAS BUSIQUIA 847 PQ INDUSMARINGA                                 87065006PR347600000306314194152983-9-9  09042012016CURITIBA            2404201200000000015220025CC                                                                                                                                                                                                                                                                                                                                                                                                         000011
1021420930887COBR_CAUC_BIC  DEDINI S/A INDUSTRIAS DE BASE           075717355001177USINA DE ACUCAR SANTA TEREZINHA LT      AV MARCELO MESSIAS BUSIQUIA 847 PQ INDUSMARINGA                                 87065006PR347600000406314283152468-9-9  09042012016CURITIBA            2404201200000000021689265CC                                                                                                                                                                                                                                                                                                                                                                                                         000012
1007421035337COBR_CAUC_COR  COML IMP E EXP LA RIOJA LTDA            045827425001006SUPERMERCADOS IRMAOS LOPES S/A          R MANOEL FERNANDES GARROTE, 555         GUARULHOS                               07160520SP34761000010037386887225-001   04042012900BRADESCO S/A        2105201200000000025960519CC                                                                                                                                                                                                                                                                                                                                                                                                         000013
1010421018496DIR_CREDIT     RICARDO E BENTO CONSTRUCAO              003206056000195CEHAB - CIA ESTADUAL DE HABITACAO E OBRARUA ODORICO MENDES, 700, CAMPO GRANDE   RECIFE                                  52031080PE3477400001                                                                                                                                          481021497           060520100000014417            27042011000404CONTRATO DE CONSTRUÇÃO DE 720 CASAS POPULARES DO PROJETO MINHA CASA, MINHA VIDA. CONTRATO Nº 029/2010.                                                                                                                                          004235100000158              000014
9000005                                                                                                                                                                                                                                                                                                                                                                                                                                                                                                                                                                                                                                                                                                               000015
