0REMESSANOTIFICACAO ELETRONICA        99999999999999BICBANCO                                AV. PAULISTA                            1048      12.ANDAR  BELA VISTA                    SAO PAULO                     01310100SP1121739360CORTINHAL                               COORDENADOR                             25092014                                                                                                                                                                                                                                                                                                                                                                                      000001
1018421015651COBR_CAUC_BIC  CMS PRODUTOS MEDICOS LTDA               046009718000140HOSPITAL VERA CRUZ S A                  AV ANDRADE NEVES,402                    CAMPINAS                                13013900SP497940000103877993000103229   23092014021CAMPINAS            2411201400000000015290000CC                                                                                                                                                                                                                                                                                                                                                                                                         000002
1028421001518COBR_CAUC_COR  GAIA AGRIBUSINESS AGRICOLA LTDA         000054778751191FABIO FERNANDES DA SILVA E OUTROS       RUA TEFE,840                            GOIATUBA                                75600000GO49795000010303869156017       24092014600HSBC BANK BRASIL    0512201400000000010184000CC                                                                                                                                                                                                                                                                                                                                                                                                         000003
1028421001518COBR_CAUC_COR  GAIA AGRIBUSINESS AGRICOLA LTDA         000062405918153WILLIAM PEREIRA BARBOSA E OUTROS        RUA SAO FRANCI,641-CAIXA POSTAL 14      GOIATUBA                                75600000GO49796000010303870556016       24092014600HSBC BANK BRASIL    1012201400000000025882000CC                                                                                                                                                                                                                                                                                                                                                                                                         000004
1028421001518COBR_CAUC_COR  GAIA AGRIBUSINESS AGRICOLA LTDA         000087074516104ANA PAULA REZENDE VILARINHO PRUDEN      RUA RIO NEGRO,1397                      GOIATUBA                                75600000GO49797000010303868356015       24092014600HSBC BANK BRASIL    3012201400000000025986000CC                                                                                                                                                                                                                                                                                                                                                                                                         000005
1007421069410COBR_CAUC_COR  FULL COMEX TRADING S/A                  025381674000104SAK'S COMERCIO E CONFECCOES LTDA.       AV DOUTOR THOMAZ NOVELINO 795           SACRAMENTO                              38190000MG4979800001032997400.1         19092014700BANCO REAL- ABN AMRO1812201400000000010810527CC                                                                                                                                                                                                                                                                                                                                                                                                         000006
9000005                                                                                                                                                                                                                                                                                                                                                                                                                                                                                                                                                                                                                                                                                                               000007
