0REMESSANOTIFICACAO ELETRONICA        99999999999999BICBANCO                                AV. PAULISTA                            1048      12.ANDAR  BELA VISTA                    SAO PAULO                     01310100SP1121739360CORTINHAL                               COORDENADOR                             24022012                                                                                                                                                                                                                                                                                                                                                                                      000001
1028421002719COBR_CAUC_BIC  SIPCAM UPL BRASIL S/A                   075263400000199NORTOX S/A                              RODOVIA MELO PEIXOTO, BR369 - KM 197 S/NARAPONGAS                               86700970PR339880000102754911DP01027401  17022012031LONDRINA            1603201200000000021976035CC                                                                                                                                                                                                                                                                                                                                                                                                         000002
1028421002719COBR_CAUC_BIC  SIPCAM UPL BRASIL S/A                   075263400000199NORTOX S/A                              RODOVIA MELO PEIXOTO, BR369 - KM 197 S/NARAPONGAS                               86700970PR339880000202754903DP01635501  15022012800LONDRINA            1403201200000000021333750CC                                                                                                                                                                                                                                                                                                                                                                                                         000003
1046421000617COBR_CAUC_BIC  INPLAC INDUSTRIA DE PLASTICOS S/A       044893410001407USINA FORTALEZA IND. COM. LTDA          RUA SAO PAULO. 02                       NOVO BARUERI                            06415070SP339890000101396220001171150   18022012007PAULISTA            1805201200000000013151573CC                                                                                                                                                                                                                                                                                                                                                                                                         000004
1031421007850COBR_CAUC_BIC  AGRICOLA JANDELLE S/A                   005207680000302ATENDE DISTRIBUIDORA S/A                RUA DESEMBARGADOR JORGE FONTANA 428 SALABELO HORIZONTE                          30320670MG3399000001049739400020043001  17022012019BELO HORIZONTE      2303201200000000010504620CC                                                                                                                                                                                                                                                                                                                                                                                                         000005
1031421007850COBR_CAUC_BIC  AGRICOLA JANDELLE S/A                   023439441001323ARMAZEM MATEUS LTDA                     AVENIDA ENGENHEIRO EMILIANO MACIEIRA 5  SAO LUIS                                65095602MA3399100001049739580003786801  22022012042SAO LUIS            2303201200000000012320453CC                                                                                                                                                                                                                                                                                                                                                                                                         000006
1036420934171COBR_CAUC_BIC  VULCAN MATERIAL PLASTICO LTDA           007366729000125COMERCIAL PLAST ABUDE LTDA              AV RANGEL PESTANA 1664 BRAS             SAO PAULO                               03004020SP339920000105848883063263   1  23022012007PAULISTA            0803201200000000014158800CC                                                                                                                                                                                                                                                                                                                                                                                                         000007
1041421008587COBR_CAUC_COR  ININGA INDUSTRIA E COMERCIO LTDA        009479630000165OLAM AGROMERCANTIL LTDA                 ESTRADA DO PAVAO, KM 2 S/N              OSASCO                                  19810000SP339930000100628107956         16022012900BRADESCO S/A        1704201200000000014250000CC                                                                                                                                                                                                                                                                                                                                                                                                         000008
9000006                                                                                                                                                                                                                                                                                                                                                                                                                                                                                                                                                                                                                                                                                                               000009
