0REMESSANOTIFICACAO ELETRONICA        99999999999999BICBANCO                                AV. PAULISTA                            1048      12.ANDAR  BELA VISTA                    SAO PAULO                     01310100SP1121739360CORTINHAL                               COORDENADOR                             07082014                                                                                                                                                                                                                                                                                                                                                                                      000001
1017421013618DIR_CREDIT     STELIO DARCI C DE ALBUQUERQUE           012282034000600USINA CAETE S/A UNIDADE CACHOEIRA       ZONA RURAL DE MACEIO                    ALAGOAS                                 57000000AL4873700001                                                                                                                                          012638258           250720130000024703            05082014000403fornecimento de 50.000 toneladas de cana de açúcar que vem sendo culti-vado nos imóveis rurais, a serem colhidas na safra 2014/2015.                                                                                                            007313154000072              000002
1031421011521COBR_CAUC_COR  ARAMOVEIS IND REUN.MOV ESTOFADOS LT     009309578000107ES ATACADO LTDA                         RODOVIA PE 15 0                         PAULISTA                                53401914PE487510000105426268193621-1/1  05082014800UNIBANCO S/A        2710201400000000010420800CC                                                                                                                                                                                                                                                                                                                                                                                                         000003
1018421034826COBR_CAUC_BIC  LACEL LATICINIOS CERES LTDA             011596442004237CARVALHO & FERNANDES LTDA               AV.DEPUTADO PAULO FERRAZ, 4888 GALPAO 04TERESINA                                64078820PI487520000103795296034258      05082014042SAO LUIS            0610201400000000013770000CC                                                                                                                                                                                                                                                                                                                                                                                                         000004
1050421001492COBR_CAUC_COR  M J NOVAES DE LIMA & CIA LTDA           003384037000159MASTROTTO BRASIL S.A                    ROD BR 101, KM 201,201                  CACHOEIRA                               44300000BA48753000010000289414/6074B    05082014900BRADESCO S/A        2008201400000000013513822CC                                                                                                                                                                                                                                                                                                                                                                                                         000005
1021421017050COBR_CAUC_BIC  STAR DISTR PROD FARMACEUTICOS LTDA      061585865000151RAIA DROGASIL S/A                       AVENIDA CORIFEU DE AZEVEDO MARQUES, 3097SAO PAULO                               05339000SP4875400001000038390000375001  05082014007PAULISTA            1908201400000000027875540CC                                                                                                                                                                                                                                                                                                                                                                                                         000006
1021421017050COBR_CAUC_BIC  STAR DISTR PROD FARMACEUTICOS LTDA      061585865000151RAIA DROGASIL S/A                       AVENIDA CORIFEU DE AZEVEDO MARQUES, 3097SAO PAULO                               05339000SP4875400002000038470000375101  05082014007PAULISTA            1908201400000000034360266CC                                                                                                                                                                                                                                                                                                                                                                                                         000007
1022421010720COBR_CAUC_COR  GUERRA E GUERRA TRANSPORTES LTDA        053400818000834FERTIGRAN FERTILIZANTES VALE DO RI      AV FILOMENA CARTAFINA,22840             UBERABA                                 38040450MG487600000100005940500142      25072014900BRADESCO S/A        1008201400000000003099180CC                                                                                                                                                                                                                                                                                                                                                                                                         000008
1022421010720COBR_CAUC_COR  GUERRA E GUERRA TRANSPORTES LTDA        007605782000131TES TRANSPORTES ESPECIAIS SCARPELL      V. ANHANGUERA - DO KM 318,0-KM 319      RIBEIRAO PRETO                          14070730SP48761000010000427790004       01042014900BRADESCO S/A        2908201400000000003400210CC                                                                                                                                                                                                                                                                                                                                                                                                         000009
1022421010720COBR_CAUC_COR  GUERRA E GUERRA TRANSPORTES LTDA        007605782000131TES TRANSPORTES ESPECIAIS SCARPELL      V. ANHANGUERA - DO KM 318,0-KM 319      RIBEIRAO PRETO                          14070730SP48761000020000532020140530B   30052014900BRADESCO S/A        2208201400000000002320150CC                                                                                                                                                                                                                                                                                                                                                                                                         000010
1022421010720COBR_CAUC_COR  GUERRA E GUERRA TRANSPORTES LTDA        007605782000131TES TRANSPORTES ESPECIAIS SCARPELL      V. ANHANGUERA - DO KM 318,0-KM 319      RIBEIRAO PRETO                          14070730SP48761000030000567206201425C   25062014900BRADESCO S/A        2909201400000000002900100CC                                                                                                                                                                                                                                                                                                                                                                                                         000011
1022421010720COBR_CAUC_COR  GUERRA E GUERRA TRANSPORTES LTDA        004416363000163AUGUSTIN TRANSPORTES LTDA - ME          AV. ANTONIO CARLOS GUILLAUMON,125       UBERABA                                 38044760MG48762000010000600831072014A   31072014900BRADESCO S/A        1011201400000000004210000CC                                                                                                                                                                                                                                                                                                                                                                                                         000012
1022421010720COBR_CAUC_COR  GUERRA E GUERRA TRANSPORTES LTDA        004416363000163AUGUSTIN TRANSPORTES LTDA - ME          AV. ANTONIO CARLOS GUILLAUMON,125       UBERABA                                 38044760MG48762000020000604105082014B   05082014900BRADESCO S/A        2410201400000000003450030CC                                                                                                                                                                                                                                                                                                                                                                                                         000013
1022421010720COBR_CAUC_COR  GUERRA E GUERRA TRANSPORTES LTDA        004416363000163AUGUSTIN TRANSPORTES LTDA - ME          AV. ANTONIO CARLOS GUILLAUMON,125       UBERABA                                 38044760MG48762000030000598230072014B   30072014900BRADESCO S/A        3008201400000000002200110CC                                                                                                                                                                                                                                                                                                                                                                                                         000014
1022421010720COBR_CAUC_COR  GUERRA E GUERRA TRANSPORTES LTDA        004416363000163AUGUSTIN TRANSPORTES LTDA - ME          AV. ANTONIO CARLOS GUILLAUMON,125       UBERABA                                 38044760MG48762000040000596629072014    29072014900BRADESCO S/A        3009201400000000004450001CC                                                                                                                                                                                                                                                                                                                                                                                                         000015
1022421010720COBR_CAUC_COR  GUERRA E GUERRA TRANSPORTES LTDA        004416363000163AUGUSTIN TRANSPORTES LTDA - ME          AV. ANTONIO CARLOS GUILLAUMON,125       UBERABA                                 38044760MG48762000050000603205082014A   05082014900BRADESCO S/A        2010201400000000003021030CC                                                                                                                                                                                                                                                                                                                                                                                                         000016
1022421010720COBR_CAUC_COR  GUERRA E GUERRA TRANSPORTES LTDA        004416363000163AUGUSTIN TRANSPORTES LTDA - ME          AV. ANTONIO CARLOS GUILLAUMON,125       UBERABA                                 38044760MG48762000060000599131072014B   31072014900BRADESCO S/A        2110201400000000003220110CC                                                                                                                                                                                                                                                                                                                                                                                                         000017
1022421010720COBR_CAUC_COR  GUERRA E GUERRA TRANSPORTES LTDA        004416363000163AUGUSTIN TRANSPORTES LTDA - ME          AV. ANTONIO CARLOS GUILLAUMON,125       UBERABA                                 38044760MG48762000070000602401082014A   01082014900BRADESCO S/A        0511201400000000003910000CC                                                                                                                                                                                                                                                                                                                                                                                                         000018
1022421010720COBR_CAUC_COR  GUERRA E GUERRA TRANSPORTES LTDA        003846426000159EAS TRANSPORTES LTDA ME                 R. AQUIDAUANA,956                       RIBEIRAO PRETO                          14051210SP4876300001000049860002205     22052014900BRADESCO S/A        0610201400000000002580050CC                                                                                                                                                                                                                                                                                                                                                                                                         000019
1022421010720COBR_CAUC_COR  GUERRA E GUERRA TRANSPORTES LTDA        003846426000159EAS TRANSPORTES LTDA ME                 R. AQUIDAUANA,956                       RIBEIRAO PRETO                          14051210SP48763000020000559120140906V   09062014900BRADESCO S/A        1310201400000000002921230CC                                                                                                                                                                                                                                                                                                                                                                                                         000020
1022421010720COBR_CAUC_COR  GUERRA E GUERRA TRANSPORTES LTDA        003846426000159EAS TRANSPORTES LTDA ME                 R. AQUIDAUANA,956                       RIBEIRAO PRETO                          14051210SP48763000030000531120143005A   30052014900BRADESCO S/A        2908201400000000002950515CC                                                                                                                                                                                                                                                                                                                                                                                                         000021
1022421010720COBR_CAUC_COR  GUERRA E GUERRA TRANSPORTES LTDA        003846426000159EAS TRANSPORTES LTDA ME                 R. AQUIDAUANA,956                       RIBEIRAO PRETO                          14051210SP48763000040000565625062014A   26052014900BRADESCO S/A        3009201400000000002992112CC                                                                                                                                                                                                                                                                                                                                                                                                         000022
1022421010720COBR_CAUC_COR  GUERRA E GUERRA TRANSPORTES LTDA        003846426000159EAS TRANSPORTES LTDA ME                 R. AQUIDAUANA,956                       RIBEIRAO PRETO                          14051210SP487630000500005958250714      25072014900BRADESCO S/A        2809201400000000003420000CC                                                                                                                                                                                                                                                                                                                                                                                                         000023
1022421010720COBR_CAUC_COR  GUERRA E GUERRA TRANSPORTES LTDA        003846426000159EAS TRANSPORTES LTDA ME                 R. AQUIDAUANA,956                       RIBEIRAO PRETO                          14051210SP48763000060000601631072014C   31072014900BRADESCO S/A        0211201400000000003050012CC                                                                                                                                                                                                                                                                                                                                                                                                         000024
1022421010720COBR_CAUC_COR  GUERRA E GUERRA TRANSPORTES LTDA        003846426000159EAS TRANSPORTES LTDA ME                 R. AQUIDAUANA,956                       RIBEIRAO PRETO                          14051210SP48763000070000560520140906N   09062014900BRADESCO S/A        2010201400000000003300000CC                                                                                                                                                                                                                                                                                                                                                                                                         000025
1022421010720COBR_CAUC_COR  GUERRA E GUERRA TRANSPORTES LTDA        003846426000159EAS TRANSPORTES LTDA ME                 R. AQUIDAUANA,956                       RIBEIRAO PRETO                          14051210SP48763000080000605905082014C   05082014900BRADESCO S/A        1710201400000000003220000CC                                                                                                                                                                                                                                                                                                                                                                                                         000026
1022421010720COBR_CAUC_COR  GUERRA E GUERRA TRANSPORTES LTDA        003846426000159EAS TRANSPORTES LTDA ME                 R. AQUIDAUANA,956                       RIBEIRAO PRETO                          14051210SP48763000090000568125062014B   25062014900BRADESCO S/A        2809201400000000003051210CC                                                                                                                                                                                                                                                                                                                                                                                                         000027
1022421010720COBR_CAUC_COR  GUERRA E GUERRA TRANSPORTES LTDA        003846426000159EAS TRANSPORTES LTDA ME                 R. AQUIDAUANA,956                       RIBEIRAO PRETO                          14051210SP48763000100000606705082014D   05082014900BRADESCO S/A        3110201400000000002612010CC                                                                                                                                                                                                                                                                                                                                                                                                         000028
9000009                                                                                                                                                                                                                                                                                                                                                                                                                                                                                                                                                                                                                                                                                                               000029
