0REMESSANOTIFICACAO ELETRONICA        99999999999999BICBANCO                                AV. PAULISTA                            1048      12.ANDAR  BELA VISTA                    SAO PAULO                     01310100SP1121739360CORTINHAL                               COORDENADOR                             07052010                                                                                                                                                                                                                                                                                                                                                                                      000001
1023421005148DIR_CREDIT     BANDEIRANTES DRAGAGEM E CONSTR.LTD      044837524000107COMP.DOCAS DO EST.SAO PAULO - CODESP    AV. CONS.RODRIGUES ALVES S/N            SANTOS                                  11015900SP2199100001                                                                                                                                          010899046           150120090000011022CONTRATO DP/04052010000403serviços de dragagem de manutenção profundidade dos berços de atração  do porto de santos utilizando criterio medição in situ                                                                                                                   044520609000167              000002
1021420930887COBR_CAUC_COR  DEDINI S/A INDUSTRIAS DE BASE           008830263000130FATIMA DO SUL AGRO-ENERGETICA SA A      ROD OTR LINHA DO BARREIRINHO -LTS  2 ZONFATIMA DO SUL                           79700000MS220120000105798015110358-2-2  31032010900BRADESCO S/A        1506201000000000034427000CC                                                                                                                                                                                                                                                                                                                                                                                                         000003
1016421011053COBR_CAUC_COR  FRIMESA COOPERATIVA CENTRAL             076189406000126CONDOR SUPER CENTER LTDA                EST DO GANCHINHO,690 RODOVIA CONTORNO SUCURITIBA                                81930160PR220130000102757662151747-1    05052010900BRADESCO S/A        0406201000000000013429356CC                                                                                                                                                                                                                                                                                                                                                                                                         000004
1022141001217COBR_CAUC_BIC  BALDIN BIOENERGIA S/A                   001062529000100DULCINI S/A                             ESTR SITIO TABOAO S/N Z RURAL           PIRASSUNUNGA                            13631301SP2201400001038371726811/08     30032010021CAMPINAS            1706201000000000025000000TD                                                                                                                                                                                                                                                                                                                                                                                                         000005
1022141001217COBR_CAUC_BIC  BALDIN BIOENERGIA S/A                   001062529000100DULCINI S/A                             ESTR SITIO TABOAO S/N Z RURAL           PIRASSUNUNGA                            13631301SP2201400002038371816811/09     30032010021CAMPINAS            1806201000000000025000000TD                                                                                                                                                                                                                                                                                                                                                                                                         000006
1022141001217COBR_CAUC_BIC  BALDIN BIOENERGIA S/A                   001062529000100DULCINI S/A                             ESTR SITIO TABOAO S/N Z RURAL           PIRASSUNUNGA                            13631301SP2201400003038371996811/10     30032010021CAMPINAS            2106201000000000025000000TD                                                                                                                                                                                                                                                                                                                                                                                                         000007
1022141001217COBR_CAUC_BIC  BALDIN BIOENERGIA S/A                   001062529000100DULCINI S/A                             ESTR SITIO TABOAO S/N Z RURAL           PIRASSUNUNGA                            13631301SP2201400004038372026811/11     30032010021CAMPINAS            2206201000000000025000000TD                                                                                                                                                                                                                                                                                                                                                                                                         000008
1022141001217COBR_CAUC_BIC  BALDIN BIOENERGIA S/A                   001062529000100DULCINI S/A                             ESTR SITIO TABOAO S/N Z RURAL           PIRASSUNUNGA                            13631301SP2201400005038372116811/12     30032010021CAMPINAS            2306201000000000025000000TD                                                                                                                                                                                                                                                                                                                                                                                                         000009
1022141001217COBR_CAUC_BIC  BALDIN BIOENERGIA S/A                   001062529000100DULCINI S/A                             ESTR SITIO TABOAO S/N Z RURAL           PIRASSUNUNGA                            13631301SP2201400006038372296811/13     30032010021CAMPINAS            2406201000000000025000000TD                                                                                                                                                                                                                                                                                                                                                                                                         000010
1022141001217COBR_CAUC_BIC  BALDIN BIOENERGIA S/A                   001062529000100DULCINI S/A                             ESTR SITIO TABOAO S/N Z RURAL           PIRASSUNUNGA                            13631301SP2201400007038372376811/14     30032010021CAMPINAS            2506201000000000025000000TD                                                                                                                                                                                                                                                                                                                                                                                                         000011
1022141001217COBR_CAUC_BIC  BALDIN BIOENERGIA S/A                   001062529000100DULCINI S/A                             ESTR SITIO TABOAO S/N Z RURAL           PIRASSUNUNGA                            13631301SP2201400008038372456811/15     30032010021CAMPINAS            2806201000000000025000000TD                                                                                                                                                                                                                                                                                                                                                                                                         000012
1017421010350DIR_CREDIT     LUIZ SOARES PINTO                       012718011001081CENTRAL ACUC STO ANTONIO FILIAL CAMARAGIRUA BARAO DE JARAGUá 195, JARAGUá       MACEIó                                  57000000AL2201600001                                                                                                                                          010953024           080420100000013064            05052010000403fornecimento de 8000 (oito mil) toneladas de cana de açúcar a ser cultivada no imóvel rural denominado fazenda recanto, localizado no município de matriz de camaragibe, pendente de corte para a safra 2010/2011.                              005947254000053              000013
1036420932373DIR_CREDIT     SAUDE ABC SERVICOS MEDICO HOSP LTDA     043202472000130UNIMED PAULISTANA SOC.COOPER.DE TRAB.MEDAV. BRIGADEIRO LUIS ANTONIO, 487        SÃO PAULO                               01318000SP2202000001                                                                                                                                          481015842           011220070000011949001         05052010000404O CONTRATADO PRESTARÁ AOS BENEFICIÁRIOS DA CONTRATANTE ATENDIMENTO MÉDICO HOSPITALAR.                                                                                                                                                           004178490000171              000014
1018421020760DIR_CREDIT     GOIAS VERDE ALIMENTOS LTDA              000588458000103FUGINI ALIMENTOS LTDA                   AV FUGITA N 1000 JARDIM NOVO PARAISO    MONTE ALTO                              15910000SP2202800001                                                                                                                                          010949570           261120090000013154S/N         05052010000403fornecimento pela goias verde alimentos ltda de crushed de tomate 8,0 mm para fins industriais da safra de 2010.                                                                                                                                024866741000118              000015
1022421004852DIR_CREDIT     TONON BIOENERGIA S/A                    007733867000103BAUCHE ENERGY BRASIL TRADING S/A        AV. BRIGADEIRO FARIA LIMA, 201 CONJ 151 SãO PAULO                               05426001SP2203300001                                                                                                                                          010908146           091220090000012662LP09-116    31032010017002fornecimento de etanol etilico anidro, produzido de cana de açúcar ou  melaço - safra 2010/2011, 2011/2012, 2012/2013 - padrão europa en 15376                                                                                                  007914230000105              000016
1043421003948DIR_CREDIT     LINEAR ENG E EMPREEN LTDA               005055128000176UNIVERSIDADE FEDERAL DE CAMPINA GRANDE  AV APRIGIO VELOSO 882                   CAMPINA GRANDE                          58109000PB2203500001                                                                                                                                          010958434           221220090000012006UFCG/PRA 11705052010000403construção e recuperação da cerca de contorno do Campus de Campina     Grande/PB.                                                                                                                                                               001698341000145              000017
1043421003948DIR_CREDIT     LINEAR ENG E EMPREEN LTDA               005055128000176UNIVERSIDADE FEDERAL DE CAMPINA GRANDE  AV APRIGIO VELOSO 882                   CAMPINA GRANDE                          58109000PB2203600001                                                                                                                                          010958434           221220090000012006UFCG/PRA 11705052010000403construção e recuperação da cerca de contorno do Campus de Campina     Grande/PB.                                                                                                                                                               001698341000145              000018
9000010                                                                                                                                                                                                                                                                                                                                                                                                                                                                                                                                                                                                                                                                                                               000019
