0REMESSANOTIFICACAO ELETRONICA        99999999999999BICBANCO                                AV. PAULISTA                            1048      12.ANDAR  BELA VISTA                    SAO PAULO                     01310100SP1121739360CORTINHAL                               COORDENADOR                             20042010                                                                                                                                                                                                                                                                                                                                                                                      000001
1021420930887COBR_CAUC_COR  DEDINI S/A INDUSTRIAS DE BASE           018054379000188DASA DEST DE ALCOOL SERRA DOS AIMO      ROD MARGEM DA BR 418 ZONA RURAL BR      SERRA DOS AIMOR                         39868000MG217430000105785967114477-2-2  31032010900BRADESCO S/A        3006201000000000025250000CC                                                                                                                                                                                                                                                                                                                                                                                                         000002
1036421014416COBR_CAUC_COR  RONTAN ELETRO METALURGICA LTDA          016701716000156FIAT AUTOMOVEIS S.A. 65401              RUA FERNAO DIASBR381 KM429              BETIM                                   32560460MG217440000105695653040269-1    06042010900BRADESCO S/A        1305201000000000079515540CC                                                                                                                                                                                                                                                                                                                                                                                                         000003
1007421009131COBR_CAUC_BIC  KASINSKI FABRICADORA DE VEIC LTDA       010548031000305MOTOSHOW COMERCIO DE MOTOS LTD          AV HEITOR DIAS 293                      SALVADOR                                40313042BA217450000109813143F01004761   08042010013SALVADOR            3105201000000000010858027CC                                                                                                                                                                                                                                                                                                                                                                                                         000004
1019421007320COBR_CAUC_COR  ATHOS FARMA SUDESTE S/A                 000100374000189DROG GALANTI DE NOVA IGUACU LTDA        TR ALMERINDA LUCAS DE AZEREDO , 60      NOVA IGUACU                             26210180RJ217460000100234717114466A     17032010900BRADESCO S/A        1605201000000000025183749CC                                                                                                                                                                                                                                                                                                                                                                                                         000005
1019421007320COBR_CAUC_COR  ATHOS FARMA SUDESTE S/A                 000100374000189DROG GALANTI DE NOVA IGUACU LTDA        TR ALMERINDA LUCAS DE AZEREDO , 60      NOVA IGUACU                             26210180RJ217460000200234733114466C     17032010900BRADESCO S/A        1506201000000000025183288CC                                                                                                                                                                                                                                                                                                                                                                                                         000006
9000004                                                                                                                                                                                                                                                                                                                                                                                                                                                                                                                                                                                                                                                                                                               000007
